{
  "_format": "hh-sol-artifact-1",
  "contractName": "BaseRoutingForwarderMock",
  "sourceName": "contracts/mocks/BaseRoutingForwarderMock.sol",
  "abi": [
    {
      "inputs": [],
      "stateMutability": "nonpayable",
      "type": "constructor"
    },
    {
      "inputs": [
        {
          "components": [
            {
              "internalType": "address",
              "name": "from",
              "type": "address"
            },
            {
              "internalType": "uint256",
              "name": "nonce",
              "type": "uint256"
            },
            {
              "internalType": "uint256",
              "name": "tokenId",
              "type": "uint256"
            },
            {
              "internalType": "bytes",
              "name": "data",
              "type": "bytes"
            }
          ],
          "internalType": "struct IForwarder.ForwardRequest",
          "name": "req",
          "type": "tuple"
        },
        {
          "internalType": "bytes",
          "name": "signature",
          "type": "bytes"
        }
      ],
      "name": "buildRouteData",
      "outputs": [
        {
          "internalType": "bytes",
          "name": "",
          "type": "bytes"
        }
      ],
      "stateMutability": "view",
      "type": "function"
    },
    {
      "inputs": [
        {
          "components": [
            {
              "internalType": "address",
              "name": "from",
              "type": "address"
            },
            {
              "internalType": "uint256",
              "name": "nonce",
              "type": "uint256"
            },
            {
              "internalType": "uint256",
              "name": "tokenId",
              "type": "uint256"
            },
            {
              "internalType": "bytes",
              "name": "data",
              "type": "bytes"
            }
          ],
          "internalType": "struct IForwarder.ForwardRequest",
          "name": "",
          "type": "tuple"
        },
        {
          "internalType": "bytes",
          "name": "",
          "type": "bytes"
        }
      ],
      "name": "execute",
      "outputs": [
        {
          "internalType": "bytes",
          "name": "",
          "type": "bytes"
        }
      ],
      "stateMutability": "pure",
      "type": "function"
    },
    {
      "inputs": [
        {
          "internalType": "uint256",
          "name": "",
          "type": "uint256"
        }
      ],
      "name": "nonceOf",
      "outputs": [
        {
          "internalType": "uint256",
          "name": "",
          "type": "uint256"
        }
      ],
      "stateMutability": "pure",
      "type": "function"
    },
    {
      "inputs": [
        {
          "internalType": "string",
          "name": "",
          "type": "string"
        }
      ],
      "name": "putString",
      "outputs": [],
      "stateMutability": "pure",
      "type": "function"
    },
    {
      "inputs": [
        {
          "internalType": "string",
          "name": "",
          "type": "string"
        },
        {
          "internalType": "bytes",
          "name": "",
          "type": "bytes"
        }
      ],
      "name": "putStringFor",
      "outputs": [],
      "stateMutability": "pure",
      "type": "function"
    },
    {
      "inputs": [
        {
          "internalType": "uint256",
          "name": "",
          "type": "uint256"
        }
      ],
      "name": "putUint",
      "outputs": [],
      "stateMutability": "pure",
      "type": "function"
    },
    {
      "inputs": [
        {
          "internalType": "uint256[]",
          "name": "",
          "type": "uint256[]"
        }
      ],
      "name": "putUintArr",
      "outputs": [],
      "stateMutability": "pure",
      "type": "function"
    },
    {
      "inputs": [
        {
          "internalType": "uint256[]",
          "name": "",
          "type": "uint256[]"
        },
        {
          "internalType": "bytes",
          "name": "",
          "type": "bytes"
        }
      ],
      "name": "putUintArrFor",
      "outputs": [],
      "stateMutability": "pure",
      "type": "function"
    },
    {
      "inputs": [
        {
          "internalType": "uint256",
          "name": "",
          "type": "uint256"
        },
        {
          "internalType": "bytes",
          "name": "",
          "type": "bytes"
        }
      ],
      "name": "putUintFor",
      "outputs": [],
      "stateMutability": "pure",
      "type": "function"
    },
    {
      "inputs": [
        {
          "components": [
            {
              "internalType": "address",
              "name": "from",
              "type": "address"
            },
            {
              "internalType": "uint256",
              "name": "nonce",
              "type": "uint256"
            },
            {
              "internalType": "uint256",
              "name": "tokenId",
              "type": "uint256"
            },
            {
              "internalType": "bytes",
              "name": "data",
              "type": "bytes"
            }
          ],
          "internalType": "struct IForwarder.ForwardRequest",
          "name": "",
          "type": "tuple"
        },
        {
          "internalType": "bytes",
          "name": "",
          "type": "bytes"
        }
      ],
      "name": "verify",
      "outputs": [
        {
          "internalType": "bool",
          "name": "",
          "type": "bool"
        }
      ],
      "stateMutability": "pure",
      "type": "function"
    }
  ],
  "bytecode": "0x608060405234801561001057600080fd5b5061004b604051806060016040528060258152602001610d53602591396040518060600160405280602e8152602001610d78602e91396101a5565b6100b960405180604001604052806011815260200170707574537472696e6728737472696e672960781b8152506040518060400160405280601a81526020017f707574537472696e67466f7228737472696e672c6279746573290000000000008152506101a560201b60201c565b6101266040518060400160405280601081526020016f70757455696e742875696e743235362960801b8152506040518060400160405280601981526020017f70757455696e74466f722875696e743235362c627974657329000000000000008152506101a560201b60201c565b6101a06040518060400160405280601581526020017f70757455696e744172722875696e743235365b5d2900000000000000000000008152506040518060400160405280601e81526020017f70757455696e74417272466f722875696e743235365b5d2c62797465732900008152506101a560201b60201c565b6101e4565b80516020918201208251928201929092206001600160e01b03191660009081529081905260409020805463ffffffff191660e09290921c919091179055565b610b60806101f36000396000f3fe608060405234801561001057600080fd5b506004361061009e5760003560e01c8063a424740011610066578063a424740014610122578063ab3ca71b14610142578063cdec3fe314610155578063da5703c214610163578063daa948aa146101715761009e565b806302c7ff77146100a35780631bf7e13e146100b857806332065ca7146100e15780633b526333146100f45780636ccbae5f14610102575b600080fd5b6100b66100b13660046105a2565b61017f565b005b6100cb6100c6366004610806565b6101a0565b6040516100d891906109a1565b60405180910390f35b6100cb6100ef366004610806565b6101ba565b6100b66100b13660046106f2565b610115610110366004610873565b610256565b6040516100d89190610a64565b610135610130366004610806565b61025c565b6040516100d89190610996565b6100b66101503660046105e2565b610276565b6100b66100b1366004610873565b6100b6610150366004610726565b6100b66101503660046108a3565b60405162461bcd60e51b815260040161019790610a46565b60405180910390fd5b606060405162461bcd60e51b815260040161019790610a46565b606061024c6101cc6020860186610544565b60408601356101de6060880188610a86565b8080601f01602080910402602001604051908101604052809392919081815260200183838082843760009201919091525050604080516020601f8b01819004810282018101909252898152925089915088908190840183828082843760009201919091525061028e92505050565b90505b9392505050565b50600090565b600060405162461bcd60e51b815260040161019790610a46565b60405162461bcd60e51b8152600401610197906109e2565b6060600061029b846102e7565b90506001600160e01b031981166102c45760405162461bcd60e51b815260040161019790610a03565b835160031901600485019081526102dc82828661030b565b979650505050505050565b6020908101516001600160e01b031916600090815290819052604090205460e01b90565b60606001600160e01b03198416631de5861160e31b141561039a5760008060008580602001905181019061033f9190610560565b925092509250868383838860405160240161035d949392919061090c565b60408051601f198184030181529190526020810180516001600160e01b03166001600160e01b031990931692909217909152935061024f92505050565b6001600160e01b03198416636d2b81e160e11b141561041a576000838060200190518101906103c99190610776565b90508481846040516024016103df9291906109b4565b60408051601f198184030181529190526020810180516001600160e01b03166001600160e01b031990931692909217909152915061024f9050565b6001600160e01b03198416636d54a45560e11b141561045f57600083806020019051810190610449919061088b565b90508481846040516024016103df929190610a6d565b6001600160e01b0319841663ab3ca71b60e01b14156104a45760008380602001905181019061048e919061064b565b90508481846040516024016103df929190610949565b506040805160208101909152600081529392505050565b60008083601f8401126104cc578182fd5b50813567ffffffffffffffff8111156104e3578182fd5b60208301915083602080830285010111156104fd57600080fd5b9250929050565b60008083601f840112610515578182fd5b50813567ffffffffffffffff81111561052c578182fd5b6020830191508360208285010111156104fd57600080fd5b600060208284031215610555578081fd5b813561024f81610b3b565b600080600060608486031215610574578182fd5b835161057f81610b3b565b602085015190935061059081610b3b565b80925050604084015190509250925092565b600080602083850312156105b4578182fd5b823567ffffffffffffffff8111156105ca578283fd5b6105d6858286016104bb565b90969095509350505050565b600080600080604085870312156105f7578081fd5b843567ffffffffffffffff8082111561060e578283fd5b61061a888389016104bb565b90965094506020870135915080821115610632578283fd5b5061063f87828801610504565b95989497509550505050565b6000602080838503121561065d578182fd5b825167ffffffffffffffff80821115610674578384fd5b818501915085601f830112610687578384fd5b81518181111561069957610699610b25565b83810291506106a9848301610acb565b8181528481019084860184860187018a10156106c3578788fd5b8795505b838610156106e55780518352600195909501949186019186016106c7565b5098975050505050505050565b60008060208385031215610704578182fd5b823567ffffffffffffffff81111561071a578283fd5b6105d685828601610504565b6000806000806040858703121561073b578384fd5b843567ffffffffffffffff80821115610752578586fd5b61075e88838901610504565b90965094506020870135915080821115610632578384fd5b600060208284031215610787578081fd5b815167ffffffffffffffff8082111561079e578283fd5b818401915084601f8301126107b1578283fd5b8151818111156107c3576107c3610b25565b6107d6601f8201601f1916602001610acb565b91508082528560208285010111156107ec578384fd5b6107fd816020840160208601610af5565b50949350505050565b60008060006040848603121561081a578283fd5b833567ffffffffffffffff80821115610831578485fd5b9085019060808288031215610844578485fd5b90935060208501359080821115610859578384fd5b5061086686828701610504565b9497909650939450505050565b600060208284031215610884578081fd5b5035919050565b60006020828403121561089c578081fd5b5051919050565b6000806000604084860312156108b7578283fd5b83359250602084013567ffffffffffffffff8111156108d4578283fd5b61086686828701610504565b600081518084526108f8816020860160208601610af5565b601f01601f19169290920160200192915050565b6001600160a01b038581168252841660208201526040810183905260806060820181905260009061093f908301846108e0565b9695505050505050565b604080825283519082018190526000906020906060840190828701845b8281101561098257815184529284019290840190600101610966565b5050508381038285015261093f81866108e0565b901515815260200190565b60006020825261024f60208301846108e0565b6000604082526109c760408301856108e0565b82810360208401526109d981856108e0565b95945050505050565b60208082526007908201526636b7b1b5a337b960c91b604082015260600190565b60208082526023908201527f42617365526f7574696e67466f727761726465723a20524f5554455f554e4b4e60408201526227aba760e91b606082015260800190565b6020808252600490820152636d6f636b60e01b604082015260600190565b90815260200190565b60008382526040602083015261024c60408301846108e0565b6000808335601e19843603018112610a9c578283fd5b83018035915067ffffffffffffffff821115610ab6578283fd5b6020019150368190038213156104fd57600080fd5b60405181810167ffffffffffffffff81118282101715610aed57610aed610b25565b604052919050565b60005b83811015610b10578181015183820152602001610af8565b83811115610b1f576000848401525b50505050565b634e487b7160e01b600052604160045260246000fd5b6001600160a01b0381168114610b5057600080fd5b5056fea164736f6c6343000800000a7472616e7366657246726f6d28616464726573732c616464726573732c75696e74323536297472616e7366657246726f6d466f7228616464726573732c616464726573732c75696e743235362c627974657329",
  "linkReferences": {},
  "deployedLinkReferences": {}
}