{
  "_format": "hh-sol-artifact-1",
  "contractName": "BaseForwarderMock",
  "sourceName": "contracts/mocks/BaseForwarderMock.sol",
  "abi": [
    {
      "inputs": [
        {
          "components": [
            {
              "internalType": "address",
              "name": "from",
              "type": "address"
            },
            {
              "internalType": "uint256",
              "name": "nonce",
              "type": "uint256"
            },
            {
              "internalType": "uint256",
              "name": "tokenId",
              "type": "uint256"
            },
            {
              "internalType": "bytes",
              "name": "data",
              "type": "bytes"
            }
          ],
          "internalType": "struct IForwarder.ForwardRequest",
          "name": "req",
          "type": "tuple"
        },
        {
          "internalType": "bytes",
          "name": "signature",
          "type": "bytes"
        }
      ],
      "name": "execute",
      "outputs": [
        {
          "internalType": "bytes",
          "name": "",
          "type": "bytes"
        }
      ],
      "stateMutability": "nonpayable",
      "type": "function"
    },
    {
      "inputs": [
        {
          "internalType": "uint256",
          "name": "tokenId",
          "type": "uint256"
        }
      ],
      "name": "nonceOf",
      "outputs": [
        {
          "internalType": "uint256",
          "name": "",
          "type": "uint256"
        }
      ],
      "stateMutability": "view",
      "type": "function"
    },
    {
      "inputs": [],
      "name": "revertWithReason",
      "outputs": [],
      "stateMutability": "pure",
      "type": "function"
    },
    {
      "inputs": [],
      "name": "revertWithoutReason",
      "outputs": [],
      "stateMutability": "pure",
      "type": "function"
    },
    {
      "inputs": [
        {
          "components": [
            {
              "internalType": "address",
              "name": "from",
              "type": "address"
            },
            {
              "internalType": "uint256",
              "name": "nonce",
              "type": "uint256"
            },
            {
              "internalType": "uint256",
              "name": "tokenId",
              "type": "uint256"
            },
            {
              "internalType": "bytes",
              "name": "data",
              "type": "bytes"
            }
          ],
          "internalType": "struct IForwarder.ForwardRequest",
          "name": "req",
          "type": "tuple"
        },
        {
          "internalType": "bytes",
          "name": "signature",
          "type": "bytes"
        }
      ],
      "name": "verify",
      "outputs": [
        {
          "internalType": "bool",
          "name": "",
          "type": "bool"
        }
      ],
      "stateMutability": "view",
      "type": "function"
    }
  ],
  "bytecode": "0x608060405234801561001057600080fd5b50610b60806100206000396000f3fe608060405234801561001057600080fd5b50600436106100575760003560e01c80631bf7e13e1461005c5780634167168d146100855780635b2dd1001461008f5780636ccbae5f14610097578063a4247400146100b7575b600080fd5b61006f61006a366004610630565b6100d7565b60405161007c9190610801565b60405180910390f35b61008d610057565b005b61008d6101ac565b6100aa6100a53660046106c8565b6101c4565b60405161007c919061096a565b6100ca6100c5366004610630565b6101d9565b60405161007c91906107d8565b606060005a90506100e98585856101d9565b61010e5760405162461bcd60e51b815260040161010590610926565b60405180910390fd5b6101a161011e6020870187610616565b3060408801358461013260608b018b610973565b8080601f0160208091040260200160405190810160405280939291908181526020018383808284376000920191909152505060408051808201909152601e81527f42617365466f727761726465724d6f636b3a2043414c4c5f4641494c454400006020820152915061022c9050565b9150505b9392505050565b60405162461bcd60e51b8152600401610105906108c4565b6000818152602081905260409020545b919050565b60006102246101e785610a03565b3085858080601f0160208091040260200160405190810160405280939291908181526020018383808284376000920191909152506102fc92505050565b949350505050565b6060610237856103be565b600080876001600160a01b031686868b8a60405160200161025a93929190610768565b60408051601f19818403018152908290526102749161074c565b60006040518083038160008787f1925050503d80600081146102b2576040519150601f19603f3d011682016040523d82523d6000602084013e6102b7565b606091505b5090925090506102c8603f876109e3565b5a116102e457634e487b7160e01b600052600160045260246000fd5b6102ef8282866103ea565b9998505050505050505050565b6040808401519051636ccbae5f60e01b815260009182913091636ccbae5f91610328919060040161096a565b60206040518083038186803b15801561034057600080fd5b505afa158015610354573d6000803e3d6000fd5b505050506040513d601f19601f8201168201806040525081019061037891906106e0565b90506000610393866060015180519060200120868487610423565b90508560200151821480156103b4575085516001600160a01b038281169116145b9695505050505050565b6000818152602081905260409020546103d89060016109bf565b60009182526020829052604090912055565b606083156103f95750816101a5565b8251156104095782518084602001fd5b8160405162461bcd60e51b81526004016101059190610801565b60006104628261045c87878760405160200161044193929190610724565b6040516020818303038152906040528051906020012061046b565b9061049b565b95945050505050565b60008160405160200161047e91906107a7565b604051602081830303815290604052805190602001209050919050565b6000806000808451604114156104c55750505060208201516040830151606084015160001a61050b565b8451604014156104f35750505060408201516020830151906001600160ff1b0381169060ff1c601b0161050b565b60405162461bcd60e51b81526004016101059061084b565b6103b48682858560007f7fffffffffffffffffffffffffffffff5d576e7357a4501ddfe92f46681b20a08211156105545760405162461bcd60e51b815260040161010590610882565b8360ff16601b148061056957508360ff16601c145b6105855760405162461bcd60e51b8152600401610105906108e4565b6000600186868686604051600081526020016040526040516105aa94939291906107e3565b6020604051602081039080840390855afa1580156105cc573d6000803e3d6000fd5b5050604051601f1901519150506001600160a01b0381166104625760405162461bcd60e51b815260040161010590610814565b80356001600160a01b03811681146101d457600080fd5b600060208284031215610627578081fd5b6101a5826105ff565b600080600060408486031215610644578182fd5b833567ffffffffffffffff8082111561065b578384fd5b908501906080828803121561066e578384fd5b90935060208501359080821115610683578384fd5b818601915086601f830112610696578384fd5b8135818111156106a4578485fd5b8760208285010111156106b5578485fd5b6020830194508093505050509250925092565b6000602082840312156106d9578081fd5b5035919050565b6000602082840312156106f1578081fd5b5051919050565b60008151808452610710816020860160208601610ae4565b601f01601f19169290920160200192915050565b92835260609190911b6bffffffffffffffffffffffff19166020830152603482015260540190565b6000825161075e818460208701610ae4565b9190910192915050565b6000845161077a818460208901610ae4565b60609490941b6bffffffffffffffffffffffff191691909301908152601481019190915260340192915050565b7f19457468657265756d205369676e6564204d6573736167653a0a3332000000008152601c810191909152603c0190565b901515815260200190565b93845260ff9290921660208401526040830152606082015260800190565b6000602082526101a560208301846106f8565b60208082526018908201527f45434453413a20696e76616c6964207369676e61747572650000000000000000604082015260600190565b6020808252601f908201527f45434453413a20696e76616c6964207369676e6174757265206c656e67746800604082015260600190565b60208082526022908201527f45434453413a20696e76616c6964207369676e6174757265202773272076616c604082015261756560f01b606082015260800190565b60208082526006908201526541414141414160d01b604082015260600190565b60208082526022908201527f45434453413a20696e76616c6964207369676e6174757265202776272076616c604082015261756560f01b606082015260800190565b60208082526024908201527f42617365466f727761726465724d6f636b3a205349474e41545552455f494e566040820152631053125160e21b606082015260800190565b90815260200190565b6000808335601e19843603018112610989578283fd5b83018035915067ffffffffffffffff8211156109a3578283fd5b6020019150368190038213156109b857600080fd5b9250929050565b600082198211156109de57634e487b7160e01b81526011600452602481fd5b500190565b6000826109fe57634e487b7160e01b81526012600452602481fd5b500490565b600060808236031215610a14578081fd5b604080516080810167ffffffffffffffff8282108183111715610a3957610a39610b14565b818452610a45866105ff565b83526020915081860135828401528386013584840152606086013581811115610a6c578586fd5b860136601f820112610a7c578586fd5b803582811115610a8e57610a8e610b14565b8551601f8201601f1916810185018481118282101715610ab057610ab0610b14565b87528181523683830186011115610ac5578788fd5b8185840186830137908101909301959095525060608201529392505050565b60005b83811015610aff578181015183820152602001610ae7565b83811115610b0e576000848401525b50505050565b634e487b7160e01b600052604160045260246000fdfea2646970667358221220c15bf1fc586027051847e11a3b90b0dc0f3a7b1517ba65924a0fb4c38d74134364736f6c63430008000033",
  "linkReferences": {},
  "deployedLinkReferences": {}
}