{
  "_format": "hh-sol-artifact-1",
  "contractName": "BaseForwarderMock",
  "sourceName": "contracts/mocks/BaseForwarderMock.sol",
  "abi": [
    {
      "inputs": [
        {
          "components": [
            {
              "internalType": "address",
              "name": "from",
              "type": "address"
            },
            {
              "internalType": "uint256",
              "name": "nonce",
              "type": "uint256"
            },
            {
              "internalType": "uint256",
              "name": "tokenId",
              "type": "uint256"
            },
            {
              "internalType": "bytes",
              "name": "data",
              "type": "bytes"
            }
          ],
          "internalType": "struct IForwarder.ForwardRequest",
          "name": "req",
          "type": "tuple"
        },
        {
          "internalType": "bytes",
          "name": "signature",
          "type": "bytes"
        }
      ],
      "name": "execute",
      "outputs": [
        {
          "internalType": "bytes",
          "name": "",
          "type": "bytes"
        }
      ],
      "stateMutability": "nonpayable",
      "type": "function"
    },
    {
      "inputs": [
        {
          "internalType": "uint256",
          "name": "tokenId",
          "type": "uint256"
        }
      ],
      "name": "nonceOf",
      "outputs": [
        {
          "internalType": "uint256",
          "name": "",
          "type": "uint256"
        }
      ],
      "stateMutability": "view",
      "type": "function"
    },
    {
      "inputs": [],
      "name": "revertWithReason",
      "outputs": [],
      "stateMutability": "pure",
      "type": "function"
    },
    {
      "inputs": [],
      "name": "revertWithoutReason",
      "outputs": [],
      "stateMutability": "pure",
      "type": "function"
    },
    {
      "inputs": [
        {
          "components": [
            {
              "internalType": "address",
              "name": "from",
              "type": "address"
            },
            {
              "internalType": "uint256",
              "name": "nonce",
              "type": "uint256"
            },
            {
              "internalType": "uint256",
              "name": "tokenId",
              "type": "uint256"
            },
            {
              "internalType": "bytes",
              "name": "data",
              "type": "bytes"
            }
          ],
          "internalType": "struct IForwarder.ForwardRequest",
          "name": "req",
          "type": "tuple"
        },
        {
          "internalType": "bytes",
          "name": "signature",
          "type": "bytes"
        }
      ],
      "name": "verify",
      "outputs": [
        {
          "internalType": "bool",
          "name": "",
          "type": "bool"
        }
      ],
      "stateMutability": "view",
      "type": "function"
    }
  ],
  "bytecode": "0x608060405234801561001057600080fd5b50610aa4806100206000396000f3fe608060405234801561001057600080fd5b50600436106100575760003560e01c80631bf7e13e1461005c5780634167168d146100855780635b2dd1001461008f5780636ccbae5f14610097578063a4247400146100b7575b600080fd5b61006f61006a3660046105a0565b6100d7565b60405161007c9190610765565b60405180910390f35b61008d610057565b005b61008d610218565b6100aa6100a5366004610638565b610230565b60405161007c91906108ce565b6100ca6100c53660046105a0565b610245565b60405161007c919061073c565b606060005a90506100e9858585610245565b61010e5760405162461bcd60e51b81526004016101059061088a565b60405180910390fd5b61011d60208601356001610923565b604080870135600090815260208190529081209190915580308361014460608a018a6108d7565b61015160208c018c610586565b8b6040013560405160200161016994939291906106bc565b60408051601f1981840301815290829052610183916106ef565b60006040518083038160008787f1925050503d80600081146101c1576040519150601f19603f3d011682016040523d82523d6000602084013e6101c6565b606091505b509150915061020b82826040518060400160405280601e81526020017f42617365466f727761726465724d6f636b3a2043414c4c5f4641494c45440000815250610298565b93505050505b9392505050565b60405162461bcd60e51b815260040161010590610828565b6000818152602081905260409020545b919050565b600061029061025385610947565b3085858080601f0160208091040260200160405190810160405280939291908181526020018383808284376000920191909152506102d192505050565b949350505050565b606083156102a7575081610211565b8251156102b75782518084602001fd5b8160405162461bcd60e51b81526004016101059190610765565b6040808401519051636ccbae5f60e01b815260009182913091636ccbae5f916102fd91906004016108ce565b60206040518083038186803b15801561031557600080fd5b505afa158015610329573d6000803e3d6000fd5b505050506040513d601f19601f8201168201806040525081019061034d9190610650565b90506000610368866060015180519060200120868487610393565b9050856020015182148015610389575085516001600160a01b038281169116145b9695505050505050565b60006103d2826103cc8787876040516020016103b193929190610694565b604051602081830303815290604052805190602001206103db565b9061040b565b95945050505050565b6000816040516020016103ee919061070b565b604051602081830303815290604052805190602001209050919050565b6000806000808451604114156104355750505060208201516040830151606084015160001a61047b565b8451604014156104635750505060408201516020830151906001600160ff1b0381169060ff1c601b0161047b565b60405162461bcd60e51b8152600401610105906107af565b6103898682858560007f7fffffffffffffffffffffffffffffff5d576e7357a4501ddfe92f46681b20a08211156104c45760405162461bcd60e51b8152600401610105906107e6565b8360ff16601b14806104d957508360ff16601c145b6104f55760405162461bcd60e51b815260040161010590610848565b60006001868686866040516000815260200160405260405161051a9493929190610747565b6020604051602081039080840390855afa15801561053c573d6000803e3d6000fd5b5050604051601f1901519150506001600160a01b0381166103d25760405162461bcd60e51b815260040161010590610778565b80356001600160a01b038116811461024057600080fd5b600060208284031215610597578081fd5b6102118261056f565b6000806000604084860312156105b4578182fd5b833567ffffffffffffffff808211156105cb578384fd5b90850190608082880312156105de578384fd5b909350602085013590808211156105f3578384fd5b818601915086601f830112610606578384fd5b813581811115610614578485fd5b876020828501011115610625578485fd5b6020830194508093505050509250925092565b600060208284031215610649578081fd5b5035919050565b600060208284031215610661578081fd5b5051919050565b60008151808452610680816020860160208601610a28565b601f01601f19169290920160200192915050565b92835260609190911b6bffffffffffffffffffffffff19166020830152603482015260540190565b6000848683375060609290921b6bffffffffffffffffffffffff1916919092019081526014810191909152603401919050565b60008251610701818460208701610a28565b9190910192915050565b7f19457468657265756d205369676e6564204d6573736167653a0a3332000000008152601c810191909152603c0190565b901515815260200190565b93845260ff9290921660208401526040830152606082015260800190565b6000602082526102116020830184610668565b60208082526018908201527f45434453413a20696e76616c6964207369676e61747572650000000000000000604082015260600190565b6020808252601f908201527f45434453413a20696e76616c6964207369676e6174757265206c656e67746800604082015260600190565b60208082526022908201527f45434453413a20696e76616c6964207369676e6174757265202773272076616c604082015261756560f01b606082015260800190565b60208082526006908201526541414141414160d01b604082015260600190565b60208082526022908201527f45434453413a20696e76616c6964207369676e6174757265202776272076616c604082015261756560f01b606082015260800190565b60208082526024908201527f42617365466f727761726465724d6f636b3a205349474e41545552455f494e566040820152631053125160e21b606082015260800190565b90815260200190565b6000808335601e198436030181126108ed578283fd5b83018035915067ffffffffffffffff821115610907578283fd5b60200191503681900382131561091c57600080fd5b9250929050565b6000821982111561094257634e487b7160e01b81526011600452602481fd5b500190565b600060808236031215610958578081fd5b604080516080810167ffffffffffffffff828210818311171561097d5761097d610a58565b8184526109898661056f565b835260209150818601358284015283860135848401526060860135818111156109b0578586fd5b860136601f8201126109c0578586fd5b8035828111156109d2576109d2610a58565b8551601f8201601f19168101850184811182821017156109f4576109f4610a58565b87528181523683830186011115610a09578788fd5b8185840186830137908101909301959095525060608201529392505050565b60005b83811015610a43578181015183820152602001610a2b565b83811115610a52576000848401525b50505050565b634e487b7160e01b600052604160045260246000fdfea2646970667358221220a8ba8e4167aab0e265110522f4942b1c940deb9411e4785a29e4bdfe089627d464736f6c63430008000033",
  "linkReferences": {},
  "deployedLinkReferences": {}
}