{
  "_format": "hh-sol-artifact-1",
  "contractName": "BaseForwarderMock",
  "sourceName": "contracts/mocks/BaseForwarderMock.sol",
  "abi": [
    {
      "inputs": [
        {
          "components": [
            {
              "internalType": "address",
              "name": "from",
              "type": "address"
            },
            {
              "internalType": "uint256",
              "name": "nonce",
              "type": "uint256"
            },
            {
              "internalType": "uint256",
              "name": "tokenId",
              "type": "uint256"
            },
            {
              "internalType": "bytes",
              "name": "data",
              "type": "bytes"
            }
          ],
          "internalType": "struct IForwarder.ForwardRequest",
          "name": "req",
          "type": "tuple"
        },
        {
          "internalType": "bytes",
          "name": "signature",
          "type": "bytes"
        }
      ],
      "name": "execute",
      "outputs": [
        {
          "internalType": "bytes",
          "name": "",
          "type": "bytes"
        }
      ],
      "stateMutability": "nonpayable",
      "type": "function"
    },
    {
      "inputs": [
        {
          "internalType": "address",
          "name": "addr",
          "type": "address"
        }
      ],
      "name": "hasAsset",
      "outputs": [
        {
          "internalType": "bool",
          "name": "",
          "type": "bool"
        }
      ],
      "stateMutability": "view",
      "type": "function"
    },
    {
      "inputs": [],
      "name": "mintAsset",
      "outputs": [],
      "stateMutability": "nonpayable",
      "type": "function"
    },
    {
      "inputs": [
        {
          "internalType": "uint256",
          "name": "tokenId",
          "type": "uint256"
        }
      ],
      "name": "nonceOf",
      "outputs": [
        {
          "internalType": "uint256",
          "name": "",
          "type": "uint256"
        }
      ],
      "stateMutability": "view",
      "type": "function"
    },
    {
      "inputs": [],
      "name": "revertWithReason",
      "outputs": [],
      "stateMutability": "pure",
      "type": "function"
    },
    {
      "inputs": [],
      "name": "revertWithoutReason",
      "outputs": [],
      "stateMutability": "pure",
      "type": "function"
    },
    {
      "inputs": [
        {
          "components": [
            {
              "internalType": "address",
              "name": "from",
              "type": "address"
            },
            {
              "internalType": "uint256",
              "name": "nonce",
              "type": "uint256"
            },
            {
              "internalType": "uint256",
              "name": "tokenId",
              "type": "uint256"
            },
            {
              "internalType": "bytes",
              "name": "data",
              "type": "bytes"
            }
          ],
          "internalType": "struct IForwarder.ForwardRequest",
          "name": "req",
          "type": "tuple"
        },
        {
          "internalType": "bytes",
          "name": "signature",
          "type": "bytes"
        }
      ],
      "name": "verify",
      "outputs": [
        {
          "internalType": "bool",
          "name": "",
          "type": "bool"
        }
      ],
      "stateMutability": "view",
      "type": "function"
    }
  ],
  "bytecode": "0x608060405234801561001057600080fd5b50610d43806100206000396000f3fe608060405234801561001057600080fd5b506004361061007d5760003560e01c80636ccbae5f1161005b5780636ccbae5f146100bd578063716ac80f146100dd578063a4247400146100e5578063a567fb47146101055761007d565b80631bf7e13e146100825780634167168d146100ab5780635b2dd100146100b5575b600080fd5b610095610090366004610823565b610118565b6040516100a29190610a0d565b60405180910390f35b6100b361007d565b005b6100b36101ec565b6100d06100cb3660046108bb565b610204565b6040516100a29190610b76565b6100b3610219565b6100f86100f3366004610823565b610250565b6040516100a291906109cb565b6100f86101133660046107e1565b6102a3565b606060005a905061012a858585610250565b61014f5760405162461bcd60e51b815260040161014690610b32565b60405180910390fd5b6101e161015f60208701876107e1565b3060408801358461017360608b018b610b7f565b8080601f01602080910402602001604051908101604052809392919081815260200183838082843760009201919091525050604080516020601f8e018190048102820181019092528c815292508c91508b90819084018382808284376000920191909152506102c192505050565b9150505b9392505050565b60405162461bcd60e51b815260040161014690610ad0565b6000818152602081905260409020545b919050565b60018060006102266103b0565b6001600160a01b031681526020810191909152604001600020805460ff1916911515919091179055565b600061029b61025e85610c0f565b3085858080601f0160208091040260200160405190810160405280939291908181526020018383808284376000920191909152506103cf92505050565b949350505050565b6001600160a01b031660009081526001602052604090205460ff1690565b60606102cc856104c1565b600080876001600160a01b0316866102e68b8a89896104ed565b6040516102f3919061093f565b60006040518083038160008787f1925050503d8060008114610331576040519150601f19603f3d011682016040523d82523d6000602084013e610336565b606091505b509092509050610347603f87610bef565b5a1161036357634e487b7160e01b600052600160045260246000fd5b6103a382826040518060400160405280601a81526020017f42617365466f727761726465723a2043414c4c5f4641494c454400000000000081525061051d565b9998505050505050505050565b6000333014156103c9575060331936013560601c6103cc565b50335b90565b6040808401519051636ccbae5f60e01b815260009182913091636ccbae5f916103fb9190600401610b76565b60206040518083038186803b15801561041357600080fd5b505afa158015610427573d6000803e3d6000fd5b505050506040513d601f19601f8201168201806040525081019061044b91906108d3565b9050600061049186606001518051906020012086886020015160405160200161047693929190610917565b60405160208183030381529060405280519060200120610556565b90508186602001511480156104b7575085516104b7906001600160a01b03168286610586565b9695505050505050565b6000818152602081905260409020546104db906001610bcb565b60009182526020829052604090912055565b60608285856040516020016105049392919061095b565b6040516020818303038152906040529050949350505050565b6060831561052c5750816101e5565b82511561053c5782518084602001fd5b8160405162461bcd60e51b81526004016101469190610a0d565b600081604051602001610569919061099a565b604051602081830303815290604052805190602001209050919050565b600061059184610657565b1561063257604051630b135d3f60e11b81526001600160a01b03851690631626ba7e906105c490869086906004016109d6565b60206040518083038186803b1580156105dc57600080fd5b505afa92505050801561060c575060408051601f3d908101601f19168201909252610609918101906107fb565b60015b610618575060006101e5565b6001600160e01b031916630b135d3f60e11b1490506101e5565b836001600160a01b0316610646848461065d565b6001600160a01b03161490506101e5565b3b151590565b6000806000808451604114156106875750505060208201516040830151606084015160001a6106cd565b8451604014156106b55750505060408201516020830151906001600160ff1b0381169060ff1c601b016106cd565b60405162461bcd60e51b815260040161014690610a57565b6104b78682858560007f7fffffffffffffffffffffffffffffff5d576e7357a4501ddfe92f46681b20a08211156107165760405162461bcd60e51b815260040161014690610a8e565b8360ff16601b148061072b57508360ff16601c145b6107475760405162461bcd60e51b815260040161014690610af0565b60006001868686866040516000815260200160405260405161076c94939291906109ef565b6020604051602081039080840390855afa15801561078e573d6000803e3d6000fd5b5050604051601f1901519150506001600160a01b0381166107c15760405162461bcd60e51b815260040161014690610a20565b95945050505050565b80356001600160a01b038116811461021457600080fd5b6000602082840312156107f2578081fd5b6101e5826107ca565b60006020828403121561080c578081fd5b81516001600160e01b0319811681146101e5578182fd5b600080600060408486031215610837578182fd5b833567ffffffffffffffff8082111561084e578384fd5b9085019060808288031215610861578384fd5b90935060208501359080821115610876578384fd5b818601915086601f830112610889578384fd5b813581811115610897578485fd5b8760208285010111156108a8578485fd5b6020830194508093505050509250925092565b6000602082840312156108cc578081fd5b5035919050565b6000602082840312156108e4578081fd5b5051919050565b60008151808452610903816020860160208601610cf0565b601f01601f19169290920160200192915050565b92835260609190911b6bffffffffffffffffffffffff19166020830152603482015260540190565b60008251610951818460208701610cf0565b9190910192915050565b6000845161096d818460208901610cf0565b60609490941b6bffffffffffffffffffffffff191691909301908152601481019190915260340192915050565b7f19457468657265756d205369676e6564204d6573736167653a0a3332000000008152601c810191909152603c0190565b901515815260200190565b60008382526040602083015261029b60408301846108eb565b93845260ff9290921660208401526040830152606082015260800190565b6000602082526101e560208301846108eb565b60208082526018908201527f45434453413a20696e76616c6964207369676e61747572650000000000000000604082015260600190565b6020808252601f908201527f45434453413a20696e76616c6964207369676e6174757265206c656e67746800604082015260600190565b60208082526022908201527f45434453413a20696e76616c6964207369676e6174757265202773272076616c604082015261756560f01b606082015260800190565b60208082526006908201526541414141414160d01b604082015260600190565b60208082526022908201527f45434453413a20696e76616c6964207369676e6174757265202776272076616c604082015261756560f01b606082015260800190565b60208082526024908201527f42617365466f727761726465724d6f636b3a205349474e41545552455f494e566040820152631053125160e21b606082015260800190565b90815260200190565b6000808335601e19843603018112610b95578283fd5b83018035915067ffffffffffffffff821115610baf578283fd5b602001915036819003821315610bc457600080fd5b9250929050565b60008219821115610bea57634e487b7160e01b81526011600452602481fd5b500190565b600082610c0a57634e487b7160e01b81526012600452602481fd5b500490565b600060808236031215610c20578081fd5b604080516080810167ffffffffffffffff8282108183111715610c4557610c45610d20565b818452610c51866107ca565b83526020915081860135828401528386013584840152606086013581811115610c78578586fd5b860136601f820112610c88578586fd5b803582811115610c9a57610c9a610d20565b8551601f8201601f1916810185018481118282101715610cbc57610cbc610d20565b87528181523683830186011115610cd1578788fd5b8185840186830137908101909301959095525060608201529392505050565b60005b83811015610d0b578181015183820152602001610cf3565b83811115610d1a576000848401525b50505050565b634e487b7160e01b600052604160045260246000fdfea164736f6c6343000800000a",
  "linkReferences": {},
  "deployedLinkReferences": {}
}