{
  "_format": "hh-sol-artifact-1",
  "contractName": "BulkWhitelistedRoleMock",
  "sourceName": "contracts/mocks/BulkWhitelistedRoleMock.sol",
  "abi": [
    {
      "anonymous": false,
      "inputs": [
        {
          "indexed": true,
          "internalType": "bytes32",
          "name": "role",
          "type": "bytes32"
        },
        {
          "indexed": true,
          "internalType": "bytes32",
          "name": "previousAdminRole",
          "type": "bytes32"
        },
        {
          "indexed": true,
          "internalType": "bytes32",
          "name": "newAdminRole",
          "type": "bytes32"
        }
      ],
      "name": "RoleAdminChanged",
      "type": "event"
    },
    {
      "anonymous": false,
      "inputs": [
        {
          "indexed": true,
          "internalType": "bytes32",
          "name": "role",
          "type": "bytes32"
        },
        {
          "indexed": true,
          "internalType": "address",
          "name": "account",
          "type": "address"
        },
        {
          "indexed": true,
          "internalType": "address",
          "name": "sender",
          "type": "address"
        }
      ],
      "name": "RoleGranted",
      "type": "event"
    },
    {
      "anonymous": false,
      "inputs": [
        {
          "indexed": true,
          "internalType": "bytes32",
          "name": "role",
          "type": "bytes32"
        },
        {
          "indexed": true,
          "internalType": "address",
          "name": "account",
          "type": "address"
        },
        {
          "indexed": true,
          "internalType": "address",
          "name": "sender",
          "type": "address"
        }
      ],
      "name": "RoleRevoked",
      "type": "event"
    },
    {
      "inputs": [],
      "name": "DEFAULT_ADMIN_ROLE",
      "outputs": [
        {
          "internalType": "bytes32",
          "name": "",
          "type": "bytes32"
        }
      ],
      "stateMutability": "view",
      "type": "function"
    },
    {
      "inputs": [],
      "name": "WHITELISTED_ROLE",
      "outputs": [
        {
          "internalType": "bytes32",
          "name": "",
          "type": "bytes32"
        }
      ],
      "stateMutability": "view",
      "type": "function"
    },
    {
      "inputs": [
        {
          "internalType": "address",
          "name": "account",
          "type": "address"
        }
      ],
      "name": "addWhitelistAdmin",
      "outputs": [],
      "stateMutability": "nonpayable",
      "type": "function"
    },
    {
      "inputs": [
        {
          "internalType": "address",
          "name": "account",
          "type": "address"
        }
      ],
      "name": "addWhitelisted",
      "outputs": [],
      "stateMutability": "nonpayable",
      "type": "function"
    },
    {
      "inputs": [
        {
          "internalType": "address[]",
          "name": "accounts",
          "type": "address[]"
        }
      ],
      "name": "bulkAddWhitelisted",
      "outputs": [],
      "stateMutability": "nonpayable",
      "type": "function"
    },
    {
      "inputs": [
        {
          "internalType": "address[]",
          "name": "accounts",
          "type": "address[]"
        }
      ],
      "name": "bulkRemoveWhitelisted",
      "outputs": [],
      "stateMutability": "nonpayable",
      "type": "function"
    },
    {
      "inputs": [
        {
          "internalType": "bytes32",
          "name": "role",
          "type": "bytes32"
        }
      ],
      "name": "getRoleAdmin",
      "outputs": [
        {
          "internalType": "bytes32",
          "name": "",
          "type": "bytes32"
        }
      ],
      "stateMutability": "view",
      "type": "function"
    },
    {
      "inputs": [
        {
          "internalType": "bytes32",
          "name": "role",
          "type": "bytes32"
        },
        {
          "internalType": "address",
          "name": "account",
          "type": "address"
        }
      ],
      "name": "grantRole",
      "outputs": [],
      "stateMutability": "nonpayable",
      "type": "function"
    },
    {
      "inputs": [
        {
          "internalType": "bytes32",
          "name": "role",
          "type": "bytes32"
        },
        {
          "internalType": "address",
          "name": "account",
          "type": "address"
        }
      ],
      "name": "hasRole",
      "outputs": [
        {
          "internalType": "bool",
          "name": "",
          "type": "bool"
        }
      ],
      "stateMutability": "view",
      "type": "function"
    },
    {
      "inputs": [],
      "name": "initialize",
      "outputs": [],
      "stateMutability": "nonpayable",
      "type": "function"
    },
    {
      "inputs": [
        {
          "internalType": "address",
          "name": "account",
          "type": "address"
        }
      ],
      "name": "isWhitelisted",
      "outputs": [
        {
          "internalType": "bool",
          "name": "",
          "type": "bool"
        }
      ],
      "stateMutability": "view",
      "type": "function"
    },
    {
      "inputs": [
        {
          "internalType": "address",
          "name": "account",
          "type": "address"
        }
      ],
      "name": "removeWhitelisted",
      "outputs": [],
      "stateMutability": "nonpayable",
      "type": "function"
    },
    {
      "inputs": [
        {
          "internalType": "bytes32",
          "name": "role",
          "type": "bytes32"
        },
        {
          "internalType": "address",
          "name": "account",
          "type": "address"
        }
      ],
      "name": "renounceRole",
      "outputs": [],
      "stateMutability": "nonpayable",
      "type": "function"
    },
    {
      "inputs": [],
      "name": "renounceWhitelistAdmin",
      "outputs": [],
      "stateMutability": "nonpayable",
      "type": "function"
    },
    {
      "inputs": [],
      "name": "renounceWhitelisted",
      "outputs": [],
      "stateMutability": "nonpayable",
      "type": "function"
    },
    {
      "inputs": [
        {
          "internalType": "bytes32",
          "name": "role",
          "type": "bytes32"
        },
        {
          "internalType": "address",
          "name": "account",
          "type": "address"
        }
      ],
      "name": "revokeRole",
      "outputs": [],
      "stateMutability": "nonpayable",
      "type": "function"
    },
    {
      "inputs": [
        {
          "internalType": "bytes4",
          "name": "interfaceId",
          "type": "bytes4"
        }
      ],
      "name": "supportsInterface",
      "outputs": [
        {
          "internalType": "bool",
          "name": "",
          "type": "bool"
        }
      ],
      "stateMutability": "view",
      "type": "function"
    }
  ],
  "bytecode": "0x608060405234801561001057600080fd5b50610dee806100206000396000f3fe608060405234801561001057600080fd5b506004361061010b5760003560e01c80637362d9c8116100a2578063a217fddf11610071578063a217fddf146101f8578063d547741f14610200578063d6cd947314610213578063f6e491aa1461021b578063f8a6c3d61461022e5761010b565b80637362d9c8146101c25780637a3226ec146101d55780638129fc1c146101dd57806391d14854146101e55761010b565b80632f2ff15d116100de5780632f2ff15d1461018157806336568abe146101945780633af32abf146101a75780634c5a628c146101ba5761010b565b806301ffc9a71461011057806310154bad14610139578063248a9ca31461014e578063291d95491461016e575b600080fd5b61012361011e366004610ad9565b610241565b6040516101309190610b76565b60405180910390f35b61014c6101473660046109bb565b61026e565b005b61016161015c366004610a96565b6102ac565b6040516101309190610b81565b61014c61017c3660046109bb565b6102c1565b61014c61018f366004610aae565b6102f3565b61014c6101a2366004610aae565b61031c565b6101236101b53660046109bb565b610362565b61014c61037c565b61014c6101d03660046109bb565b61038b565b6101616103bf565b61014c6103d1565b6101236101f3366004610aae565b61044d565b610161610478565b61014c61020e366004610aae565b61047d565b61014c61049c565b61014c6102293660046109d5565b6104ac565b61014c61023c3660046109d5565b6104de565b60006001600160e01b03198216637965db0b60e01b1480610266575061026682610564565b90505b919050565b61027b60006101f361057d565b6102a05760405162461bcd60e51b815260040161029790610c40565b60405180910390fd5b6102a981610581565b50565b60009081526065602052604090206001015490565b6102ce60006101f361057d565b6102ea5760405162461bcd60e51b815260040161029790610c40565b6102a981610599565b6102fc826102ac565b61030d8161030861057d565b6105b1565b6103178383610615565b505050565b61032461057d565b6001600160a01b0316816001600160a01b0316146103545760405162461bcd60e51b815260040161029790610c84565b61035e828261069c565b5050565b6000610266600080516020610d998339815191528361044d565b61038960006101a261057d565b565b61039860006101f361057d565b6103b45760405162461bcd60e51b815260040161029790610c40565b6102a9600082610721565b600080516020610d9983398151915281565b600054610100900460ff16806103ea575060005460ff16155b6104065760405162461bcd60e51b815260040161029790610bf2565b600054610100900460ff16158015610431576000805460ff1961ff0019909116610100171660011790555b61043961072b565b80156102a9576000805461ff001916905550565b60009182526065602090815260408084206001600160a01b0393909316845291905290205460ff1690565b600081565b610486826102ac565b6104928161030861057d565b610317838361069c565b6103896104a761057d565b610599565b6104b960006101f361057d565b6104d55760405162461bcd60e51b815260040161029790610c40565b6102a98161079d565b6104eb60006101f361057d565b6105075760405162461bcd60e51b815260040161029790610c40565b60005b815181101561035e57610552600080516020610d9983398151915283838151811061054557634e487b7160e01b600052603260045260246000fd5b602002602001015161047d565b8061055c81610d51565b91505061050a565b6001600160e01b031981166301ffc9a760e01b14919050565b3390565b6102a9600080516020610d9983398151915282610721565b6102a9600080516020610d998339815191528261031c565b6105bb828261044d565b61035e576105d3816001600160a01b031660146107eb565b6105de8360206107eb565b6040516020016105ef929190610b01565b60408051601f198184030181529082905262461bcd60e51b825261029791600401610b8a565b61061f828261044d565b61035e5760008281526065602090815260408083206001600160a01b03851684529091529020805460ff1916600117905561065861057d565b6001600160a01b0316816001600160a01b0316837f2f8788117e7eff1d82e926ec794901d17c78024a50270940304540a733656f0d60405160405180910390a45050565b6106a6828261044d565b1561035e5760008281526065602090815260408083206001600160a01b03851684529091529020805460ff191690556106dd61057d565b6001600160a01b0316816001600160a01b0316837ff6391f5c32d9c69d2a47ea670b442974b53935d1edc7fd64eb21e047a839171b60405160405180910390a45050565b61035e8282610615565b600054610100900460ff1680610744575060005460ff16155b6107605760405162461bcd60e51b815260040161029790610bf2565b600054610100900460ff1615801561078b576000805460ff1961ff0019909116610100171660011790555b610439600061079861057d565b610721565b60005b815181101561035e576107d98282815181106107cc57634e487b7160e01b600052603260045260246000fd5b6020026020010151610581565b806107e381610d51565b9150506107a0565b606060006107fa836002610ceb565b610805906002610cd3565b67ffffffffffffffff81111561082b57634e487b7160e01b600052604160045260246000fd5b6040519080825280601f01601f191660200182016040528015610855576020820181803683370190505b509050600360fc1b8160008151811061087e57634e487b7160e01b600052603260045260246000fd5b60200101906001600160f81b031916908160001a905350600f60fb1b816001815181106108bb57634e487b7160e01b600052603260045260246000fd5b60200101906001600160f81b031916908160001a90535060006108df846002610ceb565b6108ea906001610cd3565b90505b600181111561097e576f181899199a1a9b1b9c1cb0b131b232b360811b85600f166010811061092c57634e487b7160e01b600052603260045260246000fd5b1a60f81b82828151811061095057634e487b7160e01b600052603260045260246000fd5b60200101906001600160f81b031916908160001a90535060049490941c9361097781610d3a565b90506108ed565b50831561099d5760405162461bcd60e51b815260040161029790610bbd565b9392505050565b80356001600160a01b038116811461026957600080fd5b6000602082840312156109cc578081fd5b61099d826109a4565b600060208083850312156109e7578182fd5b823567ffffffffffffffff808211156109fe578384fd5b818501915085601f830112610a11578384fd5b813581811115610a2357610a23610d82565b83810260405185828201018181108582111715610a4257610a42610d82565b604052828152858101935084860182860187018a1015610a60578788fd5b8795505b83861015610a8957610a75816109a4565b855260019590950194938601938601610a64565b5098975050505050505050565b600060208284031215610aa7578081fd5b5035919050565b60008060408385031215610ac0578081fd5b82359150610ad0602084016109a4565b90509250929050565b600060208284031215610aea578081fd5b81356001600160e01b03198116811461099d578182fd5b60007f416363657373436f6e74726f6c3a206163636f756e742000000000000000000082528351610b39816017850160208801610d0a565b7001034b99036b4b9b9b4b733903937b6329607d1b6017918401918201528351610b6a816028840160208801610d0a565b01602801949350505050565b901515815260200190565b90815260200190565b6000602082528251806020840152610ba9816040850160208701610d0a565b601f01601f19169190910160400192915050565b6020808252818101527f537472696e67733a20686578206c656e67746820696e73756666696369656e74604082015260600190565b6020808252602e908201527f496e697469616c697a61626c653a20636f6e747261637420697320616c72656160408201526d191e481a5b9a5d1a585b1a5e995960921b606082015260800190565b60208082526024908201527f57686974656c6973746564526f6c653a2043414c4c45525f49535f4e4f545f416040820152632226a4a760e11b606082015260800190565b6020808252602f908201527f416363657373436f6e74726f6c3a2063616e206f6e6c792072656e6f756e636560408201526e103937b632b9903337b91039b2b63360891b606082015260800190565b60008219821115610ce657610ce6610d6c565b500190565b6000816000190483118215151615610d0557610d05610d6c565b500290565b60005b83811015610d25578181015183820152602001610d0d565b83811115610d34576000848401525b50505050565b600081610d4957610d49610d6c565b506000190190565b6000600019821415610d6557610d65610d6c565b5060010190565b634e487b7160e01b600052601160045260246000fd5b634e487b7160e01b600052604160045260246000fdfe8429d542926e6695b59ac6fbdcd9b37e8b1aeb757afab06ab60b1bb5878c3b49a26469706673582212200e94d36234d5a2edcf7f0acddee57ce3c0b123e3912e82a848fd822d12c5f08364736f6c63430008000033",
  "linkReferences": {},
  "deployedLinkReferences": {}
}