{
  "_format": "hh-sol-artifact-1",
  "contractName": "CNSRegistryForwarder",
  "sourceName": "contracts/metatx/CNSRegistryForwarder.sol",
  "abi": [
    {
      "inputs": [
        {
          "internalType": "contract IForwarder",
          "name": "target",
          "type": "address"
        }
      ],
      "stateMutability": "nonpayable",
      "type": "constructor"
    },
    {
      "inputs": [
        {
          "components": [
            {
              "internalType": "address",
              "name": "from",
              "type": "address"
            },
            {
              "internalType": "uint256",
              "name": "nonce",
              "type": "uint256"
            },
            {
              "internalType": "uint256",
              "name": "tokenId",
              "type": "uint256"
            },
            {
              "internalType": "bytes",
              "name": "data",
              "type": "bytes"
            }
          ],
          "internalType": "struct IForwarder.ForwardRequest",
          "name": "req",
          "type": "tuple"
        },
        {
          "internalType": "bytes",
          "name": "signature",
          "type": "bytes"
        }
      ],
      "name": "execute",
      "outputs": [
        {
          "internalType": "bytes",
          "name": "",
          "type": "bytes"
        }
      ],
      "stateMutability": "nonpayable",
      "type": "function"
    },
    {
      "inputs": [
        {
          "internalType": "uint256",
          "name": "tokenId",
          "type": "uint256"
        }
      ],
      "name": "nonceOf",
      "outputs": [
        {
          "internalType": "uint256",
          "name": "",
          "type": "uint256"
        }
      ],
      "stateMutability": "view",
      "type": "function"
    },
    {
      "inputs": [
        {
          "components": [
            {
              "internalType": "address",
              "name": "from",
              "type": "address"
            },
            {
              "internalType": "uint256",
              "name": "nonce",
              "type": "uint256"
            },
            {
              "internalType": "uint256",
              "name": "tokenId",
              "type": "uint256"
            },
            {
              "internalType": "bytes",
              "name": "data",
              "type": "bytes"
            }
          ],
          "internalType": "struct IForwarder.ForwardRequest",
          "name": "req",
          "type": "tuple"
        },
        {
          "internalType": "bytes",
          "name": "signature",
          "type": "bytes"
        }
      ],
      "name": "verify",
      "outputs": [
        {
          "internalType": "bool",
          "name": "",
          "type": "bool"
        }
      ],
      "stateMutability": "view",
      "type": "function"
    }
  ],
  "bytecode": "0x60806040523480156200001157600080fd5b5060405162001ecc38038062001ecc833981016040819052620000349162000657565b600180546001600160a01b0319166001600160a01b03831617905560408051606081019091526025808252620000c7919062001b4c60208301396040518060600160405280602e815260200162001e5a602e913980516020918201208251928201929092206001600160e01b03191660009081529081905260409020805463ffffffff191660e09290921c919091179055565b6200013e60405180606001604052806029815260200162001bd76029913960405180606001604052806032815260200162001c5d6032913980516020918201208251928201929092206001600160e01b03191660009081529081905260409020805463ffffffff191660e09290921c919091179055565b620001b56040518060600160405280602f815260200162001d66602f913960405180606001604052806038815260200162001b716038913980516020918201208251928201929092206001600160e01b03191660009081529081905260409020805463ffffffff191660e09290921c919091179055565b620002216040518060400160405280600d81526020016c6275726e2875696e743235362960981b8152506040518060400160405280601681526020017f6275726e466f722875696e743235362c627974657329000000000000000000008152506200061860201b60201c565b6200029860405180606001604052806021815260200162001e39602191396040518060600160405280602a815260200162001d3c602a913980516020918201208251928201929092206001600160e01b03191660009081529081905260409020805463ffffffff191660e09290921c919091179055565b6200030f60405180606001604052806025815260200162001cb1602591396040518060600160405280602e815260200162001ba9602e913980516020918201208251928201929092206001600160e01b03191660009081529081905260409020805463ffffffff191660e09290921c919091179055565b620003866040518060600160405280602b815260200162001dd0602b913960405180606001604052806034815260200162001b186034913980516020918201208251928201929092206001600160e01b03191660009081529081905260409020805463ffffffff191660e09290921c919091179055565b620003fd60405180606001604052806031815260200162001d0b603191396040518060600160405280603a815260200162001c23603a913980516020918201208251928201929092206001600160e01b03191660009081529081905260409020805463ffffffff191660e09290921c919091179055565b6200047460405180606001604052806035815260200162001cd6603591396040518060600160405280603e815260200162001dfb603e913980516020918201208251928201929092206001600160e01b03191660009081529081905260409020805463ffffffff191660e09290921c919091179055565b620004eb6040518060600160405280603b815260200162001d95603b913960405180608001604052806044815260200162001e886044913980516020918201208251928201929092206001600160e01b03191660009081529081905260409020805463ffffffff191660e09290921c919091179055565b6200057e6040518060400160405280601981526020017f6275726e4368696c642875696e743235362c737472696e67290000000000000081525060405180606001604052806022815260200162001c8f6022913980516020918201208251928201929092206001600160e01b03191660009081529081905260409020805463ffffffff191660e09290921c919091179055565b620006116040518060400160405280601a81526020017f7265736f6c7665546f28616464726573732c75696e743235362900000000000081525060405180606001604052806023815260200162001c006023913980516020918201208251928201929092206001600160e01b03191660009081529081905260409020805463ffffffff191660e09290921c919091179055565b5062000687565b80516020918201208251928201929092206001600160e01b03191660009081529081905260409020805463ffffffff191660e09290921c919091179055565b60006020828403121562000669578081fd5b81516001600160a01b038116811462000680578182fd5b9392505050565b61148180620006976000396000f3fe608060405234801561001057600080fd5b50600436106100415760003560e01c80631bf7e13e146100465780636ccbae5f1461006f578063a424740014610090575b600080fd5b610059610054366004610f76565b6100b3565b6040516100669190611253565b60405180910390f35b61008261007d36600461100e565b610162565b604051908152602001610066565b6100a361009e366004610f76565b6101e5565b6040519015158152602001610066565b606060005a90506101576100ca6020870187610cf6565b6001546001600160a01b03166040880135846100e960608b018b611291565b8080601f01602080910402602001604051908101604052809392919081815260200183838082843760009201919091525050604080516020601f8e018190048102820181019092528c815292508c91508b908190840183828082843760009201919091525061024492505050565b9150505b9392505050565b600154604051636ccbae5f60e01b8152600481018390526000916001600160a01b031690636ccbae5f9060240160206040518083038186803b1580156101a757600080fd5b505afa1580156101bb573d6000803e3d6000fd5b505050506040513d601f19601f820116820180604052508101906101df9190610f5e565b92915050565b600061023c6101f385611378565b600154604080516020601f88018190048102820181019092528681526001600160a01b039092169190879087908190840183828082843760009201919091525061030f92505050565b949350505050565b6060600080876001600160a01b0316866102608b8a8989610357565b60405161026d9190611097565b60006040518083038160008787f1925050503d80600081146102ab576040519150601f19603f3d011682016040523d82523d6000602084013e6102b0565b606091505b5090925090506102c1603f87611358565b5a116102dd57634e487b7160e01b600052600160045260246000fd5b610302828260405180604001604052806002815260200161064760f31b8152506103e2565b9998505050505050505050565b600061031c84848461041b565b801561023c575060608401516020908101516001600160e01b031990811660009081529182905260409091205460e01b16151561023c565b50565b6020808301516001600160e01b03191660009081529081905260408120546060919060e01b90506001600160e01b031981166103bf5760405162461bcd60e51b8152602060048201526002602482015261033360f41b60448201526064015b60405180910390fd5b835160031901600485019081526103d7828286610573565b979650505050505050565b606083156103f157508161015b565b8251156104015782518084602001fd5b8160405162461bcd60e51b81526004016103b69190611253565b6040838101519051636ccbae5f60e01b8152600481019190915260009081903090636ccbae5f9060240160206040518083038186803b15801561045d57600080fd5b505afa158015610471573d6000803e3d6000fd5b505050506040513d601f19601f820116820180604052508101906104959190610f5e565b905060006105438660600151805190602001208688602001516040516020016104e39392919092835260609190911b6bffffffffffffffffffffffff19166020830152603482015260540190565b60408051601f1981840301815282825280516020918201207f19457468657265756d205369676e6564204d6573736167653a0a33320000000084830152603c8085019190915282518085039091018152605c909301909152815191012090565b905081866020015114801561056957508551610569906001600160a01b03168286610a2b565b9695505050505050565b6060631de5861160e31b6001600160e01b031985161415610602576000806000858060200190518101906105a79190610d12565b92509250925086838383886040516024016105c594939291906110b3565b60408051601f198184030181529190526020810180516001600160e01b03166001600160e01b031990931692909217909152935061015b92505050565b636debcb8d60e01b6001600160e01b031985161415610634576000806000858060200190518101906105a79190610d12565b63280d9b0560e01b6001600160e01b0319851614156106c757600080600080868060200190518101906106679190610d54565b935093509350935087848484848a6040516024016106899594939291906110e6565b60408051601f198184030181529190526020810180516001600160e01b03166001600160e01b031990931692909217909152945061015b9350505050565b6361603dd960e01b6001600160e01b031985161415610747576000838060200190518101906106f69190610f5e565b905084818460405160240161070c92919061123a565b60408051601f198184030181529190526020810180516001600160e01b03166001600160e01b031990931692909217909152915061015b9050565b63b34f33c560e01b6001600160e01b031985161415610797576000806000858060200190518101906107799190610e94565b92509250925086838383886040516024016105c594939291906111b4565b633013529360e01b6001600160e01b0319851614156107c9576000806000858060200190518101906107799190610e94565b6307eca39560e01b6001600160e01b03198516141561081e57600080600080868060200190518101906107fc9190610eec565b935093509350935087848484848a6040516024016106899594939291906111ed565b6368b6154f60e01b6001600160e01b03198516141561085157600080600080868060200190518101906106679190610dc0565b63341de35b60e21b6001600160e01b03198516141561088457600080600080868060200190518101906106679190610dc0565b637a84860f60e11b6001600160e01b03198516141561091e576000806000806000878060200190518101906108b99190610dd5565b945094509450945094508885858585858c6040516024016108df9695949392919061112b565b60408051601f198184030181529190526020810180516001600160e01b03166001600160e01b031990931692909217909152955061015b945050505050565b636fab95b360e01b6001600160e01b0319851614156109a4576000808480602001905181019061094e9190611026565b915091508582828660405160240161096893929190611266565b60408051601f198184030181529190526020810180516001600160e01b03166001600160e01b031990931692909217909152925061015b915050565b63288f888960e11b6001600160e01b03198516141561015b57600080848060200190518101906109d49190610e67565b91509150858282866040516024016109ee93929190611184565b60408051601f198184030181529190526020810180516001600160e01b03166001600160e01b031990931692909217909152925050509392505050565b6000806000610a3a8585610b7b565b90925090506000816004811115610a6157634e487b7160e01b600052602160045260246000fd5b148015610a7f5750856001600160a01b0316826001600160a01b0316145b15610a8f5760019250505061015b565b600080876001600160a01b0316631626ba7e60e01b8888604051602401610ab792919061123a565b60408051601f198184030181529181526020820180516001600160e01b03166001600160e01b0319909416939093179092529051610af59190611097565b600060405180830381855afa9150503d8060008114610b30576040519150601f19603f3d011682016040523d82523d6000602084013e610b35565b606091505b5091509150818015610b48575080516020145b8015610b6f57508051630b135d3f60e11b90610b6d9083016020908101908401610f5e565b145b98975050505050505050565b600080825160411415610bb25760208301516040840151606085015160001a610ba687828585610bc1565b94509450505050610bba565b506000905060025b9250929050565b6000807f7fffffffffffffffffffffffffffffff5d576e7357a4501ddfe92f46681b20a0831115610bf85750600090506003610ca5565b8460ff16601b14158015610c1057508460ff16601c14155b15610c215750600090506004610ca5565b6040805160008082526020820180845289905260ff881692820192909252606081018690526080810185905260019060a0016020604051602081039080840390855afa158015610c75573d6000803e3d6000fd5b5050604051601f1901519150506001600160a01b038116610c9e57600060019250925050610ca5565b9150600090505b94509492505050565b600082601f830112610cbe578081fd5b8151610cd1610ccc82611330565b6112ff565b818152846020838601011115610ce5578283fd5b61023c826020830160208701611419565b600060208284031215610d07578081fd5b813561015b8161145f565b600080600060608486031215610d26578182fd5b8351610d318161145f565b6020850151909350610d428161145f565b80925050604084015190509250925092565b60008060008060808587031215610d69578081fd5b8451610d748161145f565b6020860151909450610d858161145f565b60408601516060870151919450925067ffffffffffffffff811115610da8578182fd5b610db487828801610cae565b91505092959194509250565b60008060008060808587031215610d69578384fd5b600080600080600060a08688031215610dec578081fd5b8551610df78161145f565b6020870151909550610e088161145f565b60408701516060880151919550935067ffffffffffffffff80821115610e2c578283fd5b610e3889838a01610cae565b93506080880151915080821115610e4d578283fd5b50610e5a88828901610cae565b9150509295509295909350565b60008060408385031215610e79578182fd5b8251610e848161145f565b6020939093015192949293505050565b600080600060608486031215610ea8578283fd5b8351610eb38161145f565b60208501516040860151919450925067ffffffffffffffff811115610ed6578182fd5b610ee286828701610cae565b9150509250925092565b60008060008060808587031215610f01578182fd5b8451610f0c8161145f565b60208601516040870151919550935067ffffffffffffffff80821115610f30578384fd5b610f3c88838901610cae565b93506060870151915080821115610f51578283fd5b50610db487828801610cae565b600060208284031215610f6f578081fd5b5051919050565b600080600060408486031215610f8a578081fd5b833567ffffffffffffffff80821115610fa1578283fd5b9085019060808288031215610fb4578283fd5b90935060208501359080821115610fc9578283fd5b818601915086601f830112610fdc578283fd5b813581811115610fea578384fd5b876020828501011115610ffb578384fd5b6020830194508093505050509250925092565b60006020828403121561101f578081fd5b5035919050565b60008060408385031215611038578182fd5b82519150602083015167ffffffffffffffff811115611055578182fd5b61106185828601610cae565b9150509250929050565b60008151808452611083816020860160208601611419565b601f01601f19169290920160200192915050565b600082516110a9818460208701611419565b9190910192915050565b6001600160a01b03858116825284166020820152604081018390526080606082018190526000906105699083018461106b565b6001600160a01b038681168252851660208201526040810184905260a0606082018190526000906111199083018561106b565b8281036080840152610b6f818561106b565b6001600160a01b038781168252861660208201526040810185905260c06060820181905260009061115e9083018661106b565b8281036080840152611170818661106b565b905082810360a0840152610302818561106b565b60018060a01b03841681528260208201526060604082015260006111ab606083018461106b565b95945050505050565b60018060a01b03851681528360208201526080604082015260006111db608083018561106b565b82810360608401526103d7818561106b565b60018060a01b038616815284602082015260a06040820152600061121460a083018661106b565b8281036060840152611226818661106b565b90508281036080840152610b6f818561106b565b82815260406020820152600061023c604083018461106b565b60208152600061015b602083018461106b565b83815260606020820152600061127f606083018561106b565b8281036040840152610569818561106b565b6000808335601e198436030181126112a7578283fd5b83018035915067ffffffffffffffff8211156112c1578283fd5b602001915036819003821315610bba57600080fd5b6040516080810167ffffffffffffffff811182821017156112f9576112f9611449565b60405290565b604051601f8201601f1916810167ffffffffffffffff8111828210171561132857611328611449565b604052919050565b600067ffffffffffffffff82111561134a5761134a611449565b50601f01601f191660200190565b60008261137357634e487b7160e01b81526012600452602481fd5b500490565b600060808236031215611389578081fd5b6113916112d6565b823561139c8161145f565b81526020838101358183015260408085013590830152606084013567ffffffffffffffff8111156113cb578384fd5b840136601f8201126113db578384fd5b80356113e9610ccc82611330565b81815236848385010111156113fc578586fd5b818484018583013790810190920193909352606082015292915050565b60005b8381101561143457818101518382015260200161141c565b83811115611443576000848401525b50505050565b634e487b7160e01b600052604160045260246000fd5b6001600160a01b038116811461035457600080fdfea164736f6c6343000804000a736166654d696e744368696c64466f7228616464726573732c75696e743235362c737472696e672c62797465732c6279746573297472616e7366657246726f6d28616464726573732c616464726573732c75696e7432353629736166655472616e7366657246726f6d466f7228616464726573732c616464726573732c75696e743235362c62797465732c627974657329736166654d696e744368696c64466f7228616464726573732c75696e743235362c737472696e672c627974657329736166655472616e7366657246726f6d28616464726573732c616464726573732c75696e74323536297265736f6c7665546f466f7228616464726573732c75696e743235362c6279746573297472616e7366657246726f6d4368696c64466f7228616464726573732c616464726573732c75696e743235362c737472696e672c627974657329736166655472616e7366657246726f6d466f7228616464726573732c616464726573732c75696e743235362c6279746573296275726e4368696c64466f722875696e743235362c737472696e672c627974657329736166654d696e744368696c6428616464726573732c75696e743235362c737472696e6729736166655472616e7366657246726f6d4368696c6428616464726573732c616464726573732c75696e743235362c737472696e67297472616e7366657246726f6d4368696c6428616464726573732c616464726573732c75696e743235362c737472696e67296d696e744368696c64466f7228616464726573732c75696e743235362c737472696e672c627974657329736166655472616e7366657246726f6d28616464726573732c616464726573732c75696e743235362c627974657329736166655472616e7366657246726f6d4368696c6428616464726573732c616464726573732c75696e743235362c737472696e672c627974657329736166654d696e744368696c6428616464726573732c75696e743235362c737472696e672c627974657329736166655472616e7366657246726f6d4368696c64466f7228616464726573732c616464726573732c75696e743235362c737472696e672c6279746573296d696e744368696c6428616464726573732c75696e743235362c737472696e67297472616e7366657246726f6d466f7228616464726573732c616464726573732c75696e743235362c627974657329736166655472616e7366657246726f6d4368696c64466f7228616464726573732c616464726573732c75696e743235362c737472696e672c62797465732c627974657329",
  "linkReferences": {},
  "deployedLinkReferences": {}
}