{
  "_format": "hh-sol-artifact-1",
  "contractName": "Consideration",
  "sourceName": "seaport-core/src/lib/Consideration.sol",
  "abi": [
    {
      "inputs": [
        {
          "internalType": "address",
          "name": "conduitController",
          "type": "address"
        }
      ],
      "stateMutability": "nonpayable",
      "type": "constructor"
    },
    {
      "inputs": [],
      "name": "BadContractSignature",
      "type": "error"
    },
    {
      "inputs": [],
      "name": "BadFraction",
      "type": "error"
    },
    {
      "inputs": [
        {
          "internalType": "address",
          "name": "token",
          "type": "address"
        },
        {
          "internalType": "address",
          "name": "from",
          "type": "address"
        },
        {
          "internalType": "address",
          "name": "to",
          "type": "address"
        },
        {
          "internalType": "uint256",
          "name": "amount",
          "type": "uint256"
        }
      ],
      "name": "BadReturnValueFromERC20OnTransfer",
      "type": "error"
    },
    {
      "inputs": [
        {
          "internalType": "uint8",
          "name": "v",
          "type": "uint8"
        }
      ],
      "name": "BadSignatureV",
      "type": "error"
    },
    {
      "inputs": [],
      "name": "CannotCancelOrder",
      "type": "error"
    },
    {
      "inputs": [],
      "name": "ConsiderationCriteriaResolverOutOfRange",
      "type": "error"
    },
    {
      "inputs": [],
      "name": "ConsiderationLengthNotEqualToTotalOriginal",
      "type": "error"
    },
    {
      "inputs": [
        {
          "internalType": "uint256",
          "name": "orderIndex",
          "type": "uint256"
        },
        {
          "internalType": "uint256",
          "name": "considerationIndex",
          "type": "uint256"
        },
        {
          "internalType": "uint256",
          "name": "shortfallAmount",
          "type": "uint256"
        }
      ],
      "name": "ConsiderationNotMet",
      "type": "error"
    },
    {
      "inputs": [],
      "name": "CriteriaNotEnabledForItem",
      "type": "error"
    },
    {
      "inputs": [
        {
          "internalType": "address",
          "name": "token",
          "type": "address"
        },
        {
          "internalType": "address",
          "name": "from",
          "type": "address"
        },
        {
          "internalType": "address",
          "name": "to",
          "type": "address"
        },
        {
          "internalType": "uint256[]",
          "name": "identifiers",
          "type": "uint256[]"
        },
        {
          "internalType": "uint256[]",
          "name": "amounts",
          "type": "uint256[]"
        }
      ],
      "name": "ERC1155BatchTransferGenericFailure",
      "type": "error"
    },
    {
      "inputs": [],
      "name": "InexactFraction",
      "type": "error"
    },
    {
      "inputs": [],
      "name": "InsufficientNativeTokensSupplied",
      "type": "error"
    },
    {
      "inputs": [],
      "name": "Invalid1155BatchTransferEncoding",
      "type": "error"
    },
    {
      "inputs": [],
      "name": "InvalidBasicOrderParameterEncoding",
      "type": "error"
    },
    {
      "inputs": [
        {
          "internalType": "address",
          "name": "conduit",
          "type": "address"
        }
      ],
      "name": "InvalidCallToConduit",
      "type": "error"
    },
    {
      "inputs": [
        {
          "internalType": "bytes32",
          "name": "conduitKey",
          "type": "bytes32"
        },
        {
          "internalType": "address",
          "name": "conduit",
          "type": "address"
        }
      ],
      "name": "InvalidConduit",
      "type": "error"
    },
    {
      "inputs": [
        {
          "internalType": "bytes32",
          "name": "orderHash",
          "type": "bytes32"
        }
      ],
      "name": "InvalidContractOrder",
      "type": "error"
    },
    {
      "inputs": [
        {
          "internalType": "uint256",
          "name": "amount",
          "type": "uint256"
        }
      ],
      "name": "InvalidERC721TransferAmount",
      "type": "error"
    },
    {
      "inputs": [],
      "name": "InvalidFulfillmentComponentData",
      "type": "error"
    },
    {
      "inputs": [
        {
          "internalType": "uint256",
          "name": "value",
          "type": "uint256"
        }
      ],
      "name": "InvalidMsgValue",
      "type": "error"
    },
    {
      "inputs": [],
      "name": "InvalidNativeOfferItem",
      "type": "error"
    },
    {
      "inputs": [],
      "name": "InvalidProof",
      "type": "error"
    },
    {
      "inputs": [
        {
          "internalType": "bytes32",
          "name": "orderHash",
          "type": "bytes32"
        }
      ],
      "name": "InvalidRestrictedOrder",
      "type": "error"
    },
    {
      "inputs": [],
      "name": "InvalidSignature",
      "type": "error"
    },
    {
      "inputs": [],
      "name": "InvalidSigner",
      "type": "error"
    },
    {
      "inputs": [
        {
          "internalType": "uint256",
          "name": "startTime",
          "type": "uint256"
        },
        {
          "internalType": "uint256",
          "name": "endTime",
          "type": "uint256"
        }
      ],
      "name": "InvalidTime",
      "type": "error"
    },
    {
      "inputs": [
        {
          "internalType": "uint256",
          "name": "fulfillmentIndex",
          "type": "uint256"
        }
      ],
      "name": "MismatchedFulfillmentOfferAndConsiderationComponents",
      "type": "error"
    },
    {
      "inputs": [
        {
          "internalType": "enum Side",
          "name": "side",
          "type": "uint8"
        }
      ],
      "name": "MissingFulfillmentComponentOnAggregation",
      "type": "error"
    },
    {
      "inputs": [],
      "name": "MissingItemAmount",
      "type": "error"
    },
    {
      "inputs": [],
      "name": "MissingOriginalConsiderationItems",
      "type": "error"
    },
    {
      "inputs": [
        {
          "internalType": "address",
          "name": "account",
          "type": "address"
        },
        {
          "internalType": "uint256",
          "name": "amount",
          "type": "uint256"
        }
      ],
      "name": "NativeTokenTransferGenericFailure",
      "type": "error"
    },
    {
      "inputs": [
        {
          "internalType": "address",
          "name": "account",
          "type": "address"
        }
      ],
      "name": "NoContract",
      "type": "error"
    },
    {
      "inputs": [],
      "name": "NoReentrantCalls",
      "type": "error"
    },
    {
      "inputs": [],
      "name": "NoSpecifiedOrdersAvailable",
      "type": "error"
    },
    {
      "inputs": [],
      "name": "OfferAndConsiderationRequiredOnFulfillment",
      "type": "error"
    },
    {
      "inputs": [],
      "name": "OfferCriteriaResolverOutOfRange",
      "type": "error"
    },
    {
      "inputs": [
        {
          "internalType": "bytes32",
          "name": "orderHash",
          "type": "bytes32"
        }
      ],
      "name": "OrderAlreadyFilled",
      "type": "error"
    },
    {
      "inputs": [
        {
          "internalType": "enum Side",
          "name": "side",
          "type": "uint8"
        }
      ],
      "name": "OrderCriteriaResolverOutOfRange",
      "type": "error"
    },
    {
      "inputs": [
        {
          "internalType": "bytes32",
          "name": "orderHash",
          "type": "bytes32"
        }
      ],
      "name": "OrderIsCancelled",
      "type": "error"
    },
    {
      "inputs": [
        {
          "internalType": "bytes32",
          "name": "orderHash",
          "type": "bytes32"
        }
      ],
      "name": "OrderPartiallyFilled",
      "type": "error"
    },
    {
      "inputs": [],
      "name": "PartialFillsNotEnabledForOrder",
      "type": "error"
    },
    {
      "inputs": [],
      "name": "TStoreAlreadyActivated",
      "type": "error"
    },
    {
      "inputs": [],
      "name": "TStoreNotSupported",
      "type": "error"
    },
    {
      "inputs": [],
      "name": "TloadTestContractDeploymentFailed",
      "type": "error"
    },
    {
      "inputs": [
        {
          "internalType": "address",
          "name": "token",
          "type": "address"
        },
        {
          "internalType": "address",
          "name": "from",
          "type": "address"
        },
        {
          "internalType": "address",
          "name": "to",
          "type": "address"
        },
        {
          "internalType": "uint256",
          "name": "identifier",
          "type": "uint256"
        },
        {
          "internalType": "uint256",
          "name": "amount",
          "type": "uint256"
        }
      ],
      "name": "TokenTransferGenericFailure",
      "type": "error"
    },
    {
      "inputs": [
        {
          "internalType": "uint256",
          "name": "orderIndex",
          "type": "uint256"
        },
        {
          "internalType": "uint256",
          "name": "considerationIndex",
          "type": "uint256"
        }
      ],
      "name": "UnresolvedConsiderationCriteria",
      "type": "error"
    },
    {
      "inputs": [
        {
          "internalType": "uint256",
          "name": "orderIndex",
          "type": "uint256"
        },
        {
          "internalType": "uint256",
          "name": "offerIndex",
          "type": "uint256"
        }
      ],
      "name": "UnresolvedOfferCriteria",
      "type": "error"
    },
    {
      "inputs": [],
      "name": "UnusedItemParameters",
      "type": "error"
    },
    {
      "anonymous": false,
      "inputs": [
        {
          "indexed": false,
          "internalType": "uint256",
          "name": "newCounter",
          "type": "uint256"
        },
        {
          "indexed": true,
          "internalType": "address",
          "name": "offerer",
          "type": "address"
        }
      ],
      "name": "CounterIncremented",
      "type": "event"
    },
    {
      "anonymous": false,
      "inputs": [
        {
          "indexed": false,
          "internalType": "bytes32",
          "name": "orderHash",
          "type": "bytes32"
        },
        {
          "indexed": true,
          "internalType": "address",
          "name": "offerer",
          "type": "address"
        },
        {
          "indexed": true,
          "internalType": "address",
          "name": "zone",
          "type": "address"
        }
      ],
      "name": "OrderCancelled",
      "type": "event"
    },
    {
      "anonymous": false,
      "inputs": [
        {
          "indexed": false,
          "internalType": "bytes32",
          "name": "orderHash",
          "type": "bytes32"
        },
        {
          "indexed": true,
          "internalType": "address",
          "name": "offerer",
          "type": "address"
        },
        {
          "indexed": true,
          "internalType": "address",
          "name": "zone",
          "type": "address"
        },
        {
          "indexed": false,
          "internalType": "address",
          "name": "recipient",
          "type": "address"
        },
        {
          "components": [
            {
              "internalType": "enum ItemType",
              "name": "itemType",
              "type": "uint8"
            },
            {
              "internalType": "address",
              "name": "token",
              "type": "address"
            },
            {
              "internalType": "uint256",
              "name": "identifier",
              "type": "uint256"
            },
            {
              "internalType": "uint256",
              "name": "amount",
              "type": "uint256"
            }
          ],
          "indexed": false,
          "internalType": "struct SpentItem[]",
          "name": "offer",
          "type": "tuple[]"
        },
        {
          "components": [
            {
              "internalType": "enum ItemType",
              "name": "itemType",
              "type": "uint8"
            },
            {
              "internalType": "address",
              "name": "token",
              "type": "address"
            },
            {
              "internalType": "uint256",
              "name": "identifier",
              "type": "uint256"
            },
            {
              "internalType": "uint256",
              "name": "amount",
              "type": "uint256"
            },
            {
              "internalType": "address payable",
              "name": "recipient",
              "type": "address"
            }
          ],
          "indexed": false,
          "internalType": "struct ReceivedItem[]",
          "name": "consideration",
          "type": "tuple[]"
        }
      ],
      "name": "OrderFulfilled",
      "type": "event"
    },
    {
      "anonymous": false,
      "inputs": [
        {
          "indexed": false,
          "internalType": "bytes32",
          "name": "orderHash",
          "type": "bytes32"
        },
        {
          "components": [
            {
              "internalType": "address",
              "name": "offerer",
              "type": "address"
            },
            {
              "internalType": "address",
              "name": "zone",
              "type": "address"
            },
            {
              "components": [
                {
                  "internalType": "enum ItemType",
                  "name": "itemType",
                  "type": "uint8"
                },
                {
                  "internalType": "address",
                  "name": "token",
                  "type": "address"
                },
                {
                  "internalType": "uint256",
                  "name": "identifierOrCriteria",
                  "type": "uint256"
                },
                {
                  "internalType": "uint256",
                  "name": "startAmount",
                  "type": "uint256"
                },
                {
                  "internalType": "uint256",
                  "name": "endAmount",
                  "type": "uint256"
                }
              ],
              "internalType": "struct OfferItem[]",
              "name": "offer",
              "type": "tuple[]"
            },
            {
              "components": [
                {
                  "internalType": "enum ItemType",
                  "name": "itemType",
                  "type": "uint8"
                },
                {
                  "internalType": "address",
                  "name": "token",
                  "type": "address"
                },
                {
                  "internalType": "uint256",
                  "name": "identifierOrCriteria",
                  "type": "uint256"
                },
                {
                  "internalType": "uint256",
                  "name": "startAmount",
                  "type": "uint256"
                },
                {
                  "internalType": "uint256",
                  "name": "endAmount",
                  "type": "uint256"
                },
                {
                  "internalType": "address payable",
                  "name": "recipient",
                  "type": "address"
                }
              ],
              "internalType": "struct ConsiderationItem[]",
              "name": "consideration",
              "type": "tuple[]"
            },
            {
              "internalType": "enum OrderType",
              "name": "orderType",
              "type": "uint8"
            },
            {
              "internalType": "uint256",
              "name": "startTime",
              "type": "uint256"
            },
            {
              "internalType": "uint256",
              "name": "endTime",
              "type": "uint256"
            },
            {
              "internalType": "bytes32",
              "name": "zoneHash",
              "type": "bytes32"
            },
            {
              "internalType": "uint256",
              "name": "salt",
              "type": "uint256"
            },
            {
              "internalType": "bytes32",
              "name": "conduitKey",
              "type": "bytes32"
            },
            {
              "internalType": "uint256",
              "name": "totalOriginalConsiderationItems",
              "type": "uint256"
            }
          ],
          "indexed": false,
          "internalType": "struct OrderParameters",
          "name": "orderParameters",
          "type": "tuple"
        }
      ],
      "name": "OrderValidated",
      "type": "event"
    },
    {
      "anonymous": false,
      "inputs": [
        {
          "indexed": false,
          "internalType": "bytes32[]",
          "name": "orderHashes",
          "type": "bytes32[]"
        }
      ],
      "name": "OrdersMatched",
      "type": "event"
    },
    {
      "inputs": [],
      "name": "__activateTstore",
      "outputs": [],
      "stateMutability": "nonpayable",
      "type": "function"
    },
    {
      "inputs": [
        {
          "components": [
            {
              "internalType": "address",
              "name": "offerer",
              "type": "address"
            },
            {
              "internalType": "address",
              "name": "zone",
              "type": "address"
            },
            {
              "components": [
                {
                  "internalType": "enum ItemType",
                  "name": "itemType",
                  "type": "uint8"
                },
                {
                  "internalType": "address",
                  "name": "token",
                  "type": "address"
                },
                {
                  "internalType": "uint256",
                  "name": "identifierOrCriteria",
                  "type": "uint256"
                },
                {
                  "internalType": "uint256",
                  "name": "startAmount",
                  "type": "uint256"
                },
                {
                  "internalType": "uint256",
                  "name": "endAmount",
                  "type": "uint256"
                }
              ],
              "internalType": "struct OfferItem[]",
              "name": "offer",
              "type": "tuple[]"
            },
            {
              "components": [
                {
                  "internalType": "enum ItemType",
                  "name": "itemType",
                  "type": "uint8"
                },
                {
                  "internalType": "address",
                  "name": "token",
                  "type": "address"
                },
                {
                  "internalType": "uint256",
                  "name": "identifierOrCriteria",
                  "type": "uint256"
                },
                {
                  "internalType": "uint256",
                  "name": "startAmount",
                  "type": "uint256"
                },
                {
                  "internalType": "uint256",
                  "name": "endAmount",
                  "type": "uint256"
                },
                {
                  "internalType": "address payable",
                  "name": "recipient",
                  "type": "address"
                }
              ],
              "internalType": "struct ConsiderationItem[]",
              "name": "consideration",
              "type": "tuple[]"
            },
            {
              "internalType": "enum OrderType",
              "name": "orderType",
              "type": "uint8"
            },
            {
              "internalType": "uint256",
              "name": "startTime",
              "type": "uint256"
            },
            {
              "internalType": "uint256",
              "name": "endTime",
              "type": "uint256"
            },
            {
              "internalType": "bytes32",
              "name": "zoneHash",
              "type": "bytes32"
            },
            {
              "internalType": "uint256",
              "name": "salt",
              "type": "uint256"
            },
            {
              "internalType": "bytes32",
              "name": "conduitKey",
              "type": "bytes32"
            },
            {
              "internalType": "uint256",
              "name": "counter",
              "type": "uint256"
            }
          ],
          "internalType": "struct OrderComponents[]",
          "name": "orders",
          "type": "tuple[]"
        }
      ],
      "name": "cancel",
      "outputs": [
        {
          "internalType": "bool",
          "name": "cancelled",
          "type": "bool"
        }
      ],
      "stateMutability": "nonpayable",
      "type": "function"
    },
    {
      "inputs": [
        {
          "components": [
            {
              "components": [
                {
                  "internalType": "address",
                  "name": "offerer",
                  "type": "address"
                },
                {
                  "internalType": "address",
                  "name": "zone",
                  "type": "address"
                },
                {
                  "components": [
                    {
                      "internalType": "enum ItemType",
                      "name": "itemType",
                      "type": "uint8"
                    },
                    {
                      "internalType": "address",
                      "name": "token",
                      "type": "address"
                    },
                    {
                      "internalType": "uint256",
                      "name": "identifierOrCriteria",
                      "type": "uint256"
                    },
                    {
                      "internalType": "uint256",
                      "name": "startAmount",
                      "type": "uint256"
                    },
                    {
                      "internalType": "uint256",
                      "name": "endAmount",
                      "type": "uint256"
                    }
                  ],
                  "internalType": "struct OfferItem[]",
                  "name": "offer",
                  "type": "tuple[]"
                },
                {
                  "components": [
                    {
                      "internalType": "enum ItemType",
                      "name": "itemType",
                      "type": "uint8"
                    },
                    {
                      "internalType": "address",
                      "name": "token",
                      "type": "address"
                    },
                    {
                      "internalType": "uint256",
                      "name": "identifierOrCriteria",
                      "type": "uint256"
                    },
                    {
                      "internalType": "uint256",
                      "name": "startAmount",
                      "type": "uint256"
                    },
                    {
                      "internalType": "uint256",
                      "name": "endAmount",
                      "type": "uint256"
                    },
                    {
                      "internalType": "address payable",
                      "name": "recipient",
                      "type": "address"
                    }
                  ],
                  "internalType": "struct ConsiderationItem[]",
                  "name": "consideration",
                  "type": "tuple[]"
                },
                {
                  "internalType": "enum OrderType",
                  "name": "orderType",
                  "type": "uint8"
                },
                {
                  "internalType": "uint256",
                  "name": "startTime",
                  "type": "uint256"
                },
                {
                  "internalType": "uint256",
                  "name": "endTime",
                  "type": "uint256"
                },
                {
                  "internalType": "bytes32",
                  "name": "zoneHash",
                  "type": "bytes32"
                },
                {
                  "internalType": "uint256",
                  "name": "salt",
                  "type": "uint256"
                },
                {
                  "internalType": "bytes32",
                  "name": "conduitKey",
                  "type": "bytes32"
                },
                {
                  "internalType": "uint256",
                  "name": "totalOriginalConsiderationItems",
                  "type": "uint256"
                }
              ],
              "internalType": "struct OrderParameters",
              "name": "parameters",
              "type": "tuple"
            },
            {
              "internalType": "uint120",
              "name": "numerator",
              "type": "uint120"
            },
            {
              "internalType": "uint120",
              "name": "denominator",
              "type": "uint120"
            },
            {
              "internalType": "bytes",
              "name": "signature",
              "type": "bytes"
            },
            {
              "internalType": "bytes",
              "name": "extraData",
              "type": "bytes"
            }
          ],
          "internalType": "struct AdvancedOrder",
          "name": "",
          "type": "tuple"
        },
        {
          "components": [
            {
              "internalType": "uint256",
              "name": "orderIndex",
              "type": "uint256"
            },
            {
              "internalType": "enum Side",
              "name": "side",
              "type": "uint8"
            },
            {
              "internalType": "uint256",
              "name": "index",
              "type": "uint256"
            },
            {
              "internalType": "uint256",
              "name": "identifier",
              "type": "uint256"
            },
            {
              "internalType": "bytes32[]",
              "name": "criteriaProof",
              "type": "bytes32[]"
            }
          ],
          "internalType": "struct CriteriaResolver[]",
          "name": "",
          "type": "tuple[]"
        },
        {
          "internalType": "bytes32",
          "name": "fulfillerConduitKey",
          "type": "bytes32"
        },
        {
          "internalType": "address",
          "name": "recipient",
          "type": "address"
        }
      ],
      "name": "fulfillAdvancedOrder",
      "outputs": [
        {
          "internalType": "bool",
          "name": "fulfilled",
          "type": "bool"
        }
      ],
      "stateMutability": "payable",
      "type": "function"
    },
    {
      "inputs": [
        {
          "components": [
            {
              "components": [
                {
                  "internalType": "address",
                  "name": "offerer",
                  "type": "address"
                },
                {
                  "internalType": "address",
                  "name": "zone",
                  "type": "address"
                },
                {
                  "components": [
                    {
                      "internalType": "enum ItemType",
                      "name": "itemType",
                      "type": "uint8"
                    },
                    {
                      "internalType": "address",
                      "name": "token",
                      "type": "address"
                    },
                    {
                      "internalType": "uint256",
                      "name": "identifierOrCriteria",
                      "type": "uint256"
                    },
                    {
                      "internalType": "uint256",
                      "name": "startAmount",
                      "type": "uint256"
                    },
                    {
                      "internalType": "uint256",
                      "name": "endAmount",
                      "type": "uint256"
                    }
                  ],
                  "internalType": "struct OfferItem[]",
                  "name": "offer",
                  "type": "tuple[]"
                },
                {
                  "components": [
                    {
                      "internalType": "enum ItemType",
                      "name": "itemType",
                      "type": "uint8"
                    },
                    {
                      "internalType": "address",
                      "name": "token",
                      "type": "address"
                    },
                    {
                      "internalType": "uint256",
                      "name": "identifierOrCriteria",
                      "type": "uint256"
                    },
                    {
                      "internalType": "uint256",
                      "name": "startAmount",
                      "type": "uint256"
                    },
                    {
                      "internalType": "uint256",
                      "name": "endAmount",
                      "type": "uint256"
                    },
                    {
                      "internalType": "address payable",
                      "name": "recipient",
                      "type": "address"
                    }
                  ],
                  "internalType": "struct ConsiderationItem[]",
                  "name": "consideration",
                  "type": "tuple[]"
                },
                {
                  "internalType": "enum OrderType",
                  "name": "orderType",
                  "type": "uint8"
                },
                {
                  "internalType": "uint256",
                  "name": "startTime",
                  "type": "uint256"
                },
                {
                  "internalType": "uint256",
                  "name": "endTime",
                  "type": "uint256"
                },
                {
                  "internalType": "bytes32",
                  "name": "zoneHash",
                  "type": "bytes32"
                },
                {
                  "internalType": "uint256",
                  "name": "salt",
                  "type": "uint256"
                },
                {
                  "internalType": "bytes32",
                  "name": "conduitKey",
                  "type": "bytes32"
                },
                {
                  "internalType": "uint256",
                  "name": "totalOriginalConsiderationItems",
                  "type": "uint256"
                }
              ],
              "internalType": "struct OrderParameters",
              "name": "parameters",
              "type": "tuple"
            },
            {
              "internalType": "uint120",
              "name": "numerator",
              "type": "uint120"
            },
            {
              "internalType": "uint120",
              "name": "denominator",
              "type": "uint120"
            },
            {
              "internalType": "bytes",
              "name": "signature",
              "type": "bytes"
            },
            {
              "internalType": "bytes",
              "name": "extraData",
              "type": "bytes"
            }
          ],
          "internalType": "struct AdvancedOrder[]",
          "name": "",
          "type": "tuple[]"
        },
        {
          "components": [
            {
              "internalType": "uint256",
              "name": "orderIndex",
              "type": "uint256"
            },
            {
              "internalType": "enum Side",
              "name": "side",
              "type": "uint8"
            },
            {
              "internalType": "uint256",
              "name": "index",
              "type": "uint256"
            },
            {
              "internalType": "uint256",
              "name": "identifier",
              "type": "uint256"
            },
            {
              "internalType": "bytes32[]",
              "name": "criteriaProof",
              "type": "bytes32[]"
            }
          ],
          "internalType": "struct CriteriaResolver[]",
          "name": "",
          "type": "tuple[]"
        },
        {
          "components": [
            {
              "internalType": "uint256",
              "name": "orderIndex",
              "type": "uint256"
            },
            {
              "internalType": "uint256",
              "name": "itemIndex",
              "type": "uint256"
            }
          ],
          "internalType": "struct FulfillmentComponent[][]",
          "name": "",
          "type": "tuple[][]"
        },
        {
          "components": [
            {
              "internalType": "uint256",
              "name": "orderIndex",
              "type": "uint256"
            },
            {
              "internalType": "uint256",
              "name": "itemIndex",
              "type": "uint256"
            }
          ],
          "internalType": "struct FulfillmentComponent[][]",
          "name": "",
          "type": "tuple[][]"
        },
        {
          "internalType": "bytes32",
          "name": "fulfillerConduitKey",
          "type": "bytes32"
        },
        {
          "internalType": "address",
          "name": "recipient",
          "type": "address"
        },
        {
          "internalType": "uint256",
          "name": "maximumFulfilled",
          "type": "uint256"
        }
      ],
      "name": "fulfillAvailableAdvancedOrders",
      "outputs": [
        {
          "internalType": "bool[]",
          "name": "",
          "type": "bool[]"
        },
        {
          "components": [
            {
              "components": [
                {
                  "internalType": "enum ItemType",
                  "name": "itemType",
                  "type": "uint8"
                },
                {
                  "internalType": "address",
                  "name": "token",
                  "type": "address"
                },
                {
                  "internalType": "uint256",
                  "name": "identifier",
                  "type": "uint256"
                },
                {
                  "internalType": "uint256",
                  "name": "amount",
                  "type": "uint256"
                },
                {
                  "internalType": "address payable",
                  "name": "recipient",
                  "type": "address"
                }
              ],
              "internalType": "struct ReceivedItem",
              "name": "item",
              "type": "tuple"
            },
            {
              "internalType": "address",
              "name": "offerer",
              "type": "address"
            },
            {
              "internalType": "bytes32",
              "name": "conduitKey",
              "type": "bytes32"
            }
          ],
          "internalType": "struct Execution[]",
          "name": "",
          "type": "tuple[]"
        }
      ],
      "stateMutability": "payable",
      "type": "function"
    },
    {
      "inputs": [
        {
          "components": [
            {
              "components": [
                {
                  "internalType": "address",
                  "name": "offerer",
                  "type": "address"
                },
                {
                  "internalType": "address",
                  "name": "zone",
                  "type": "address"
                },
                {
                  "components": [
                    {
                      "internalType": "enum ItemType",
                      "name": "itemType",
                      "type": "uint8"
                    },
                    {
                      "internalType": "address",
                      "name": "token",
                      "type": "address"
                    },
                    {
                      "internalType": "uint256",
                      "name": "identifierOrCriteria",
                      "type": "uint256"
                    },
                    {
                      "internalType": "uint256",
                      "name": "startAmount",
                      "type": "uint256"
                    },
                    {
                      "internalType": "uint256",
                      "name": "endAmount",
                      "type": "uint256"
                    }
                  ],
                  "internalType": "struct OfferItem[]",
                  "name": "offer",
                  "type": "tuple[]"
                },
                {
                  "components": [
                    {
                      "internalType": "enum ItemType",
                      "name": "itemType",
                      "type": "uint8"
                    },
                    {
                      "internalType": "address",
                      "name": "token",
                      "type": "address"
                    },
                    {
                      "internalType": "uint256",
                      "name": "identifierOrCriteria",
                      "type": "uint256"
                    },
                    {
                      "internalType": "uint256",
                      "name": "startAmount",
                      "type": "uint256"
                    },
                    {
                      "internalType": "uint256",
                      "name": "endAmount",
                      "type": "uint256"
                    },
                    {
                      "internalType": "address payable",
                      "name": "recipient",
                      "type": "address"
                    }
                  ],
                  "internalType": "struct ConsiderationItem[]",
                  "name": "consideration",
                  "type": "tuple[]"
                },
                {
                  "internalType": "enum OrderType",
                  "name": "orderType",
                  "type": "uint8"
                },
                {
                  "internalType": "uint256",
                  "name": "startTime",
                  "type": "uint256"
                },
                {
                  "internalType": "uint256",
                  "name": "endTime",
                  "type": "uint256"
                },
                {
                  "internalType": "bytes32",
                  "name": "zoneHash",
                  "type": "bytes32"
                },
                {
                  "internalType": "uint256",
                  "name": "salt",
                  "type": "uint256"
                },
                {
                  "internalType": "bytes32",
                  "name": "conduitKey",
                  "type": "bytes32"
                },
                {
                  "internalType": "uint256",
                  "name": "totalOriginalConsiderationItems",
                  "type": "uint256"
                }
              ],
              "internalType": "struct OrderParameters",
              "name": "parameters",
              "type": "tuple"
            },
            {
              "internalType": "bytes",
              "name": "signature",
              "type": "bytes"
            }
          ],
          "internalType": "struct Order[]",
          "name": "",
          "type": "tuple[]"
        },
        {
          "components": [
            {
              "internalType": "uint256",
              "name": "orderIndex",
              "type": "uint256"
            },
            {
              "internalType": "uint256",
              "name": "itemIndex",
              "type": "uint256"
            }
          ],
          "internalType": "struct FulfillmentComponent[][]",
          "name": "",
          "type": "tuple[][]"
        },
        {
          "components": [
            {
              "internalType": "uint256",
              "name": "orderIndex",
              "type": "uint256"
            },
            {
              "internalType": "uint256",
              "name": "itemIndex",
              "type": "uint256"
            }
          ],
          "internalType": "struct FulfillmentComponent[][]",
          "name": "",
          "type": "tuple[][]"
        },
        {
          "internalType": "bytes32",
          "name": "fulfillerConduitKey",
          "type": "bytes32"
        },
        {
          "internalType": "uint256",
          "name": "maximumFulfilled",
          "type": "uint256"
        }
      ],
      "name": "fulfillAvailableOrders",
      "outputs": [
        {
          "internalType": "bool[]",
          "name": "",
          "type": "bool[]"
        },
        {
          "components": [
            {
              "components": [
                {
                  "internalType": "enum ItemType",
                  "name": "itemType",
                  "type": "uint8"
                },
                {
                  "internalType": "address",
                  "name": "token",
                  "type": "address"
                },
                {
                  "internalType": "uint256",
                  "name": "identifier",
                  "type": "uint256"
                },
                {
                  "internalType": "uint256",
                  "name": "amount",
                  "type": "uint256"
                },
                {
                  "internalType": "address payable",
                  "name": "recipient",
                  "type": "address"
                }
              ],
              "internalType": "struct ReceivedItem",
              "name": "item",
              "type": "tuple"
            },
            {
              "internalType": "address",
              "name": "offerer",
              "type": "address"
            },
            {
              "internalType": "bytes32",
              "name": "conduitKey",
              "type": "bytes32"
            }
          ],
          "internalType": "struct Execution[]",
          "name": "",
          "type": "tuple[]"
        }
      ],
      "stateMutability": "payable",
      "type": "function"
    },
    {
      "inputs": [
        {
          "components": [
            {
              "internalType": "address",
              "name": "considerationToken",
              "type": "address"
            },
            {
              "internalType": "uint256",
              "name": "considerationIdentifier",
              "type": "uint256"
            },
            {
              "internalType": "uint256",
              "name": "considerationAmount",
              "type": "uint256"
            },
            {
              "internalType": "address payable",
              "name": "offerer",
              "type": "address"
            },
            {
              "internalType": "address",
              "name": "zone",
              "type": "address"
            },
            {
              "internalType": "address",
              "name": "offerToken",
              "type": "address"
            },
            {
              "internalType": "uint256",
              "name": "offerIdentifier",
              "type": "uint256"
            },
            {
              "internalType": "uint256",
              "name": "offerAmount",
              "type": "uint256"
            },
            {
              "internalType": "enum BasicOrderType",
              "name": "basicOrderType",
              "type": "uint8"
            },
            {
              "internalType": "uint256",
              "name": "startTime",
              "type": "uint256"
            },
            {
              "internalType": "uint256",
              "name": "endTime",
              "type": "uint256"
            },
            {
              "internalType": "bytes32",
              "name": "zoneHash",
              "type": "bytes32"
            },
            {
              "internalType": "uint256",
              "name": "salt",
              "type": "uint256"
            },
            {
              "internalType": "bytes32",
              "name": "offererConduitKey",
              "type": "bytes32"
            },
            {
              "internalType": "bytes32",
              "name": "fulfillerConduitKey",
              "type": "bytes32"
            },
            {
              "internalType": "uint256",
              "name": "totalOriginalAdditionalRecipients",
              "type": "uint256"
            },
            {
              "components": [
                {
                  "internalType": "uint256",
                  "name": "amount",
                  "type": "uint256"
                },
                {
                  "internalType": "address payable",
                  "name": "recipient",
                  "type": "address"
                }
              ],
              "internalType": "struct AdditionalRecipient[]",
              "name": "additionalRecipients",
              "type": "tuple[]"
            },
            {
              "internalType": "bytes",
              "name": "signature",
              "type": "bytes"
            }
          ],
          "internalType": "struct BasicOrderParameters",
          "name": "",
          "type": "tuple"
        }
      ],
      "name": "fulfillBasicOrder",
      "outputs": [
        {
          "internalType": "bool",
          "name": "fulfilled",
          "type": "bool"
        }
      ],
      "stateMutability": "payable",
      "type": "function"
    },
    {
      "inputs": [
        {
          "components": [
            {
              "internalType": "address",
              "name": "considerationToken",
              "type": "address"
            },
            {
              "internalType": "uint256",
              "name": "considerationIdentifier",
              "type": "uint256"
            },
            {
              "internalType": "uint256",
              "name": "considerationAmount",
              "type": "uint256"
            },
            {
              "internalType": "address payable",
              "name": "offerer",
              "type": "address"
            },
            {
              "internalType": "address",
              "name": "zone",
              "type": "address"
            },
            {
              "internalType": "address",
              "name": "offerToken",
              "type": "address"
            },
            {
              "internalType": "uint256",
              "name": "offerIdentifier",
              "type": "uint256"
            },
            {
              "internalType": "uint256",
              "name": "offerAmount",
              "type": "uint256"
            },
            {
              "internalType": "enum BasicOrderType",
              "name": "basicOrderType",
              "type": "uint8"
            },
            {
              "internalType": "uint256",
              "name": "startTime",
              "type": "uint256"
            },
            {
              "internalType": "uint256",
              "name": "endTime",
              "type": "uint256"
            },
            {
              "internalType": "bytes32",
              "name": "zoneHash",
              "type": "bytes32"
            },
            {
              "internalType": "uint256",
              "name": "salt",
              "type": "uint256"
            },
            {
              "internalType": "bytes32",
              "name": "offererConduitKey",
              "type": "bytes32"
            },
            {
              "internalType": "bytes32",
              "name": "fulfillerConduitKey",
              "type": "bytes32"
            },
            {
              "internalType": "uint256",
              "name": "totalOriginalAdditionalRecipients",
              "type": "uint256"
            },
            {
              "components": [
                {
                  "internalType": "uint256",
                  "name": "amount",
                  "type": "uint256"
                },
                {
                  "internalType": "address payable",
                  "name": "recipient",
                  "type": "address"
                }
              ],
              "internalType": "struct AdditionalRecipient[]",
              "name": "additionalRecipients",
              "type": "tuple[]"
            },
            {
              "internalType": "bytes",
              "name": "signature",
              "type": "bytes"
            }
          ],
          "internalType": "struct BasicOrderParameters",
          "name": "",
          "type": "tuple"
        }
      ],
      "name": "fulfillBasicOrder_efficient_6GL6yc",
      "outputs": [
        {
          "internalType": "bool",
          "name": "fulfilled",
          "type": "bool"
        }
      ],
      "stateMutability": "payable",
      "type": "function"
    },
    {
      "inputs": [
        {
          "components": [
            {
              "components": [
                {
                  "internalType": "address",
                  "name": "offerer",
                  "type": "address"
                },
                {
                  "internalType": "address",
                  "name": "zone",
                  "type": "address"
                },
                {
                  "components": [
                    {
                      "internalType": "enum ItemType",
                      "name": "itemType",
                      "type": "uint8"
                    },
                    {
                      "internalType": "address",
                      "name": "token",
                      "type": "address"
                    },
                    {
                      "internalType": "uint256",
                      "name": "identifierOrCriteria",
                      "type": "uint256"
                    },
                    {
                      "internalType": "uint256",
                      "name": "startAmount",
                      "type": "uint256"
                    },
                    {
                      "internalType": "uint256",
                      "name": "endAmount",
                      "type": "uint256"
                    }
                  ],
                  "internalType": "struct OfferItem[]",
                  "name": "offer",
                  "type": "tuple[]"
                },
                {
                  "components": [
                    {
                      "internalType": "enum ItemType",
                      "name": "itemType",
                      "type": "uint8"
                    },
                    {
                      "internalType": "address",
                      "name": "token",
                      "type": "address"
                    },
                    {
                      "internalType": "uint256",
                      "name": "identifierOrCriteria",
                      "type": "uint256"
                    },
                    {
                      "internalType": "uint256",
                      "name": "startAmount",
                      "type": "uint256"
                    },
                    {
                      "internalType": "uint256",
                      "name": "endAmount",
                      "type": "uint256"
                    },
                    {
                      "internalType": "address payable",
                      "name": "recipient",
                      "type": "address"
                    }
                  ],
                  "internalType": "struct ConsiderationItem[]",
                  "name": "consideration",
                  "type": "tuple[]"
                },
                {
                  "internalType": "enum OrderType",
                  "name": "orderType",
                  "type": "uint8"
                },
                {
                  "internalType": "uint256",
                  "name": "startTime",
                  "type": "uint256"
                },
                {
                  "internalType": "uint256",
                  "name": "endTime",
                  "type": "uint256"
                },
                {
                  "internalType": "bytes32",
                  "name": "zoneHash",
                  "type": "bytes32"
                },
                {
                  "internalType": "uint256",
                  "name": "salt",
                  "type": "uint256"
                },
                {
                  "internalType": "bytes32",
                  "name": "conduitKey",
                  "type": "bytes32"
                },
                {
                  "internalType": "uint256",
                  "name": "totalOriginalConsiderationItems",
                  "type": "uint256"
                }
              ],
              "internalType": "struct OrderParameters",
              "name": "parameters",
              "type": "tuple"
            },
            {
              "internalType": "bytes",
              "name": "signature",
              "type": "bytes"
            }
          ],
          "internalType": "struct Order",
          "name": "",
          "type": "tuple"
        },
        {
          "internalType": "bytes32",
          "name": "fulfillerConduitKey",
          "type": "bytes32"
        }
      ],
      "name": "fulfillOrder",
      "outputs": [
        {
          "internalType": "bool",
          "name": "fulfilled",
          "type": "bool"
        }
      ],
      "stateMutability": "payable",
      "type": "function"
    },
    {
      "inputs": [
        {
          "internalType": "address",
          "name": "contractOfferer",
          "type": "address"
        }
      ],
      "name": "getContractOffererNonce",
      "outputs": [
        {
          "internalType": "uint256",
          "name": "nonce",
          "type": "uint256"
        }
      ],
      "stateMutability": "view",
      "type": "function"
    },
    {
      "inputs": [
        {
          "internalType": "address",
          "name": "offerer",
          "type": "address"
        }
      ],
      "name": "getCounter",
      "outputs": [
        {
          "internalType": "uint256",
          "name": "counter",
          "type": "uint256"
        }
      ],
      "stateMutability": "view",
      "type": "function"
    },
    {
      "inputs": [
        {
          "components": [
            {
              "internalType": "address",
              "name": "offerer",
              "type": "address"
            },
            {
              "internalType": "address",
              "name": "zone",
              "type": "address"
            },
            {
              "components": [
                {
                  "internalType": "enum ItemType",
                  "name": "itemType",
                  "type": "uint8"
                },
                {
                  "internalType": "address",
                  "name": "token",
                  "type": "address"
                },
                {
                  "internalType": "uint256",
                  "name": "identifierOrCriteria",
                  "type": "uint256"
                },
                {
                  "internalType": "uint256",
                  "name": "startAmount",
                  "type": "uint256"
                },
                {
                  "internalType": "uint256",
                  "name": "endAmount",
                  "type": "uint256"
                }
              ],
              "internalType": "struct OfferItem[]",
              "name": "offer",
              "type": "tuple[]"
            },
            {
              "components": [
                {
                  "internalType": "enum ItemType",
                  "name": "itemType",
                  "type": "uint8"
                },
                {
                  "internalType": "address",
                  "name": "token",
                  "type": "address"
                },
                {
                  "internalType": "uint256",
                  "name": "identifierOrCriteria",
                  "type": "uint256"
                },
                {
                  "internalType": "uint256",
                  "name": "startAmount",
                  "type": "uint256"
                },
                {
                  "internalType": "uint256",
                  "name": "endAmount",
                  "type": "uint256"
                },
                {
                  "internalType": "address payable",
                  "name": "recipient",
                  "type": "address"
                }
              ],
              "internalType": "struct ConsiderationItem[]",
              "name": "consideration",
              "type": "tuple[]"
            },
            {
              "internalType": "enum OrderType",
              "name": "orderType",
              "type": "uint8"
            },
            {
              "internalType": "uint256",
              "name": "startTime",
              "type": "uint256"
            },
            {
              "internalType": "uint256",
              "name": "endTime",
              "type": "uint256"
            },
            {
              "internalType": "bytes32",
              "name": "zoneHash",
              "type": "bytes32"
            },
            {
              "internalType": "uint256",
              "name": "salt",
              "type": "uint256"
            },
            {
              "internalType": "bytes32",
              "name": "conduitKey",
              "type": "bytes32"
            },
            {
              "internalType": "uint256",
              "name": "counter",
              "type": "uint256"
            }
          ],
          "internalType": "struct OrderComponents",
          "name": "",
          "type": "tuple"
        }
      ],
      "name": "getOrderHash",
      "outputs": [
        {
          "internalType": "bytes32",
          "name": "orderHash",
          "type": "bytes32"
        }
      ],
      "stateMutability": "view",
      "type": "function"
    },
    {
      "inputs": [
        {
          "internalType": "bytes32",
          "name": "orderHash",
          "type": "bytes32"
        }
      ],
      "name": "getOrderStatus",
      "outputs": [
        {
          "internalType": "bool",
          "name": "isValidated",
          "type": "bool"
        },
        {
          "internalType": "bool",
          "name": "isCancelled",
          "type": "bool"
        },
        {
          "internalType": "uint256",
          "name": "totalFilled",
          "type": "uint256"
        },
        {
          "internalType": "uint256",
          "name": "totalSize",
          "type": "uint256"
        }
      ],
      "stateMutability": "view",
      "type": "function"
    },
    {
      "inputs": [],
      "name": "incrementCounter",
      "outputs": [
        {
          "internalType": "uint256",
          "name": "newCounter",
          "type": "uint256"
        }
      ],
      "stateMutability": "nonpayable",
      "type": "function"
    },
    {
      "inputs": [],
      "name": "information",
      "outputs": [
        {
          "internalType": "string",
          "name": "version",
          "type": "string"
        },
        {
          "internalType": "bytes32",
          "name": "domainSeparator",
          "type": "bytes32"
        },
        {
          "internalType": "address",
          "name": "conduitController",
          "type": "address"
        }
      ],
      "stateMutability": "view",
      "type": "function"
    },
    {
      "inputs": [
        {
          "components": [
            {
              "components": [
                {
                  "internalType": "address",
                  "name": "offerer",
                  "type": "address"
                },
                {
                  "internalType": "address",
                  "name": "zone",
                  "type": "address"
                },
                {
                  "components": [
                    {
                      "internalType": "enum ItemType",
                      "name": "itemType",
                      "type": "uint8"
                    },
                    {
                      "internalType": "address",
                      "name": "token",
                      "type": "address"
                    },
                    {
                      "internalType": "uint256",
                      "name": "identifierOrCriteria",
                      "type": "uint256"
                    },
                    {
                      "internalType": "uint256",
                      "name": "startAmount",
                      "type": "uint256"
                    },
                    {
                      "internalType": "uint256",
                      "name": "endAmount",
                      "type": "uint256"
                    }
                  ],
                  "internalType": "struct OfferItem[]",
                  "name": "offer",
                  "type": "tuple[]"
                },
                {
                  "components": [
                    {
                      "internalType": "enum ItemType",
                      "name": "itemType",
                      "type": "uint8"
                    },
                    {
                      "internalType": "address",
                      "name": "token",
                      "type": "address"
                    },
                    {
                      "internalType": "uint256",
                      "name": "identifierOrCriteria",
                      "type": "uint256"
                    },
                    {
                      "internalType": "uint256",
                      "name": "startAmount",
                      "type": "uint256"
                    },
                    {
                      "internalType": "uint256",
                      "name": "endAmount",
                      "type": "uint256"
                    },
                    {
                      "internalType": "address payable",
                      "name": "recipient",
                      "type": "address"
                    }
                  ],
                  "internalType": "struct ConsiderationItem[]",
                  "name": "consideration",
                  "type": "tuple[]"
                },
                {
                  "internalType": "enum OrderType",
                  "name": "orderType",
                  "type": "uint8"
                },
                {
                  "internalType": "uint256",
                  "name": "startTime",
                  "type": "uint256"
                },
                {
                  "internalType": "uint256",
                  "name": "endTime",
                  "type": "uint256"
                },
                {
                  "internalType": "bytes32",
                  "name": "zoneHash",
                  "type": "bytes32"
                },
                {
                  "internalType": "uint256",
                  "name": "salt",
                  "type": "uint256"
                },
                {
                  "internalType": "bytes32",
                  "name": "conduitKey",
                  "type": "bytes32"
                },
                {
                  "internalType": "uint256",
                  "name": "totalOriginalConsiderationItems",
                  "type": "uint256"
                }
              ],
              "internalType": "struct OrderParameters",
              "name": "parameters",
              "type": "tuple"
            },
            {
              "internalType": "uint120",
              "name": "numerator",
              "type": "uint120"
            },
            {
              "internalType": "uint120",
              "name": "denominator",
              "type": "uint120"
            },
            {
              "internalType": "bytes",
              "name": "signature",
              "type": "bytes"
            },
            {
              "internalType": "bytes",
              "name": "extraData",
              "type": "bytes"
            }
          ],
          "internalType": "struct AdvancedOrder[]",
          "name": "",
          "type": "tuple[]"
        },
        {
          "components": [
            {
              "internalType": "uint256",
              "name": "orderIndex",
              "type": "uint256"
            },
            {
              "internalType": "enum Side",
              "name": "side",
              "type": "uint8"
            },
            {
              "internalType": "uint256",
              "name": "index",
              "type": "uint256"
            },
            {
              "internalType": "uint256",
              "name": "identifier",
              "type": "uint256"
            },
            {
              "internalType": "bytes32[]",
              "name": "criteriaProof",
              "type": "bytes32[]"
            }
          ],
          "internalType": "struct CriteriaResolver[]",
          "name": "",
          "type": "tuple[]"
        },
        {
          "components": [
            {
              "components": [
                {
                  "internalType": "uint256",
                  "name": "orderIndex",
                  "type": "uint256"
                },
                {
                  "internalType": "uint256",
                  "name": "itemIndex",
                  "type": "uint256"
                }
              ],
              "internalType": "struct FulfillmentComponent[]",
              "name": "offerComponents",
              "type": "tuple[]"
            },
            {
              "components": [
                {
                  "internalType": "uint256",
                  "name": "orderIndex",
                  "type": "uint256"
                },
                {
                  "internalType": "uint256",
                  "name": "itemIndex",
                  "type": "uint256"
                }
              ],
              "internalType": "struct FulfillmentComponent[]",
              "name": "considerationComponents",
              "type": "tuple[]"
            }
          ],
          "internalType": "struct Fulfillment[]",
          "name": "",
          "type": "tuple[]"
        },
        {
          "internalType": "address",
          "name": "recipient",
          "type": "address"
        }
      ],
      "name": "matchAdvancedOrders",
      "outputs": [
        {
          "components": [
            {
              "components": [
                {
                  "internalType": "enum ItemType",
                  "name": "itemType",
                  "type": "uint8"
                },
                {
                  "internalType": "address",
                  "name": "token",
                  "type": "address"
                },
                {
                  "internalType": "uint256",
                  "name": "identifier",
                  "type": "uint256"
                },
                {
                  "internalType": "uint256",
                  "name": "amount",
                  "type": "uint256"
                },
                {
                  "internalType": "address payable",
                  "name": "recipient",
                  "type": "address"
                }
              ],
              "internalType": "struct ReceivedItem",
              "name": "item",
              "type": "tuple"
            },
            {
              "internalType": "address",
              "name": "offerer",
              "type": "address"
            },
            {
              "internalType": "bytes32",
              "name": "conduitKey",
              "type": "bytes32"
            }
          ],
          "internalType": "struct Execution[]",
          "name": "",
          "type": "tuple[]"
        }
      ],
      "stateMutability": "payable",
      "type": "function"
    },
    {
      "inputs": [
        {
          "components": [
            {
              "components": [
                {
                  "internalType": "address",
                  "name": "offerer",
                  "type": "address"
                },
                {
                  "internalType": "address",
                  "name": "zone",
                  "type": "address"
                },
                {
                  "components": [
                    {
                      "internalType": "enum ItemType",
                      "name": "itemType",
                      "type": "uint8"
                    },
                    {
                      "internalType": "address",
                      "name": "token",
                      "type": "address"
                    },
                    {
                      "internalType": "uint256",
                      "name": "identifierOrCriteria",
                      "type": "uint256"
                    },
                    {
                      "internalType": "uint256",
                      "name": "startAmount",
                      "type": "uint256"
                    },
                    {
                      "internalType": "uint256",
                      "name": "endAmount",
                      "type": "uint256"
                    }
                  ],
                  "internalType": "struct OfferItem[]",
                  "name": "offer",
                  "type": "tuple[]"
                },
                {
                  "components": [
                    {
                      "internalType": "enum ItemType",
                      "name": "itemType",
                      "type": "uint8"
                    },
                    {
                      "internalType": "address",
                      "name": "token",
                      "type": "address"
                    },
                    {
                      "internalType": "uint256",
                      "name": "identifierOrCriteria",
                      "type": "uint256"
                    },
                    {
                      "internalType": "uint256",
                      "name": "startAmount",
                      "type": "uint256"
                    },
                    {
                      "internalType": "uint256",
                      "name": "endAmount",
                      "type": "uint256"
                    },
                    {
                      "internalType": "address payable",
                      "name": "recipient",
                      "type": "address"
                    }
                  ],
                  "internalType": "struct ConsiderationItem[]",
                  "name": "consideration",
                  "type": "tuple[]"
                },
                {
                  "internalType": "enum OrderType",
                  "name": "orderType",
                  "type": "uint8"
                },
                {
                  "internalType": "uint256",
                  "name": "startTime",
                  "type": "uint256"
                },
                {
                  "internalType": "uint256",
                  "name": "endTime",
                  "type": "uint256"
                },
                {
                  "internalType": "bytes32",
                  "name": "zoneHash",
                  "type": "bytes32"
                },
                {
                  "internalType": "uint256",
                  "name": "salt",
                  "type": "uint256"
                },
                {
                  "internalType": "bytes32",
                  "name": "conduitKey",
                  "type": "bytes32"
                },
                {
                  "internalType": "uint256",
                  "name": "totalOriginalConsiderationItems",
                  "type": "uint256"
                }
              ],
              "internalType": "struct OrderParameters",
              "name": "parameters",
              "type": "tuple"
            },
            {
              "internalType": "bytes",
              "name": "signature",
              "type": "bytes"
            }
          ],
          "internalType": "struct Order[]",
          "name": "",
          "type": "tuple[]"
        },
        {
          "components": [
            {
              "components": [
                {
                  "internalType": "uint256",
                  "name": "orderIndex",
                  "type": "uint256"
                },
                {
                  "internalType": "uint256",
                  "name": "itemIndex",
                  "type": "uint256"
                }
              ],
              "internalType": "struct FulfillmentComponent[]",
              "name": "offerComponents",
              "type": "tuple[]"
            },
            {
              "components": [
                {
                  "internalType": "uint256",
                  "name": "orderIndex",
                  "type": "uint256"
                },
                {
                  "internalType": "uint256",
                  "name": "itemIndex",
                  "type": "uint256"
                }
              ],
              "internalType": "struct FulfillmentComponent[]",
              "name": "considerationComponents",
              "type": "tuple[]"
            }
          ],
          "internalType": "struct Fulfillment[]",
          "name": "",
          "type": "tuple[]"
        }
      ],
      "name": "matchOrders",
      "outputs": [
        {
          "components": [
            {
              "components": [
                {
                  "internalType": "enum ItemType",
                  "name": "itemType",
                  "type": "uint8"
                },
                {
                  "internalType": "address",
                  "name": "token",
                  "type": "address"
                },
                {
                  "internalType": "uint256",
                  "name": "identifier",
                  "type": "uint256"
                },
                {
                  "internalType": "uint256",
                  "name": "amount",
                  "type": "uint256"
                },
                {
                  "internalType": "address payable",
                  "name": "recipient",
                  "type": "address"
                }
              ],
              "internalType": "struct ReceivedItem",
              "name": "item",
              "type": "tuple"
            },
            {
              "internalType": "address",
              "name": "offerer",
              "type": "address"
            },
            {
              "internalType": "bytes32",
              "name": "conduitKey",
              "type": "bytes32"
            }
          ],
          "internalType": "struct Execution[]",
          "name": "",
          "type": "tuple[]"
        }
      ],
      "stateMutability": "payable",
      "type": "function"
    },
    {
      "inputs": [],
      "name": "name",
      "outputs": [
        {
          "internalType": "string",
          "name": "",
          "type": "string"
        }
      ],
      "stateMutability": "pure",
      "type": "function"
    },
    {
      "inputs": [
        {
          "components": [
            {
              "components": [
                {
                  "internalType": "address",
                  "name": "offerer",
                  "type": "address"
                },
                {
                  "internalType": "address",
                  "name": "zone",
                  "type": "address"
                },
                {
                  "components": [
                    {
                      "internalType": "enum ItemType",
                      "name": "itemType",
                      "type": "uint8"
                    },
                    {
                      "internalType": "address",
                      "name": "token",
                      "type": "address"
                    },
                    {
                      "internalType": "uint256",
                      "name": "identifierOrCriteria",
                      "type": "uint256"
                    },
                    {
                      "internalType": "uint256",
                      "name": "startAmount",
                      "type": "uint256"
                    },
                    {
                      "internalType": "uint256",
                      "name": "endAmount",
                      "type": "uint256"
                    }
                  ],
                  "internalType": "struct OfferItem[]",
                  "name": "offer",
                  "type": "tuple[]"
                },
                {
                  "components": [
                    {
                      "internalType": "enum ItemType",
                      "name": "itemType",
                      "type": "uint8"
                    },
                    {
                      "internalType": "address",
                      "name": "token",
                      "type": "address"
                    },
                    {
                      "internalType": "uint256",
                      "name": "identifierOrCriteria",
                      "type": "uint256"
                    },
                    {
                      "internalType": "uint256",
                      "name": "startAmount",
                      "type": "uint256"
                    },
                    {
                      "internalType": "uint256",
                      "name": "endAmount",
                      "type": "uint256"
                    },
                    {
                      "internalType": "address payable",
                      "name": "recipient",
                      "type": "address"
                    }
                  ],
                  "internalType": "struct ConsiderationItem[]",
                  "name": "consideration",
                  "type": "tuple[]"
                },
                {
                  "internalType": "enum OrderType",
                  "name": "orderType",
                  "type": "uint8"
                },
                {
                  "internalType": "uint256",
                  "name": "startTime",
                  "type": "uint256"
                },
                {
                  "internalType": "uint256",
                  "name": "endTime",
                  "type": "uint256"
                },
                {
                  "internalType": "bytes32",
                  "name": "zoneHash",
                  "type": "bytes32"
                },
                {
                  "internalType": "uint256",
                  "name": "salt",
                  "type": "uint256"
                },
                {
                  "internalType": "bytes32",
                  "name": "conduitKey",
                  "type": "bytes32"
                },
                {
                  "internalType": "uint256",
                  "name": "totalOriginalConsiderationItems",
                  "type": "uint256"
                }
              ],
              "internalType": "struct OrderParameters",
              "name": "parameters",
              "type": "tuple"
            },
            {
              "internalType": "bytes",
              "name": "signature",
              "type": "bytes"
            }
          ],
          "internalType": "struct Order[]",
          "name": "",
          "type": "tuple[]"
        }
      ],
      "name": "validate",
      "outputs": [
        {
          "internalType": "bool",
          "name": "",
          "type": "bool"
        }
      ],
      "stateMutability": "nonpayable",
      "type": "function"
    },
    {
      "stateMutability": "payable",
      "type": "receive"
    }
  ],
  "bytecode": "0x61020060405234801562000011575f80fd5b50604051620063673803806200636783398101604081905262000034916200031f565b8080808080808080806200004762000177565b610120526101005260e05260c081905260a082815246610140819052604080515f9485526020879052948152606091825230608090815292842085825293909152939052610160526001600160a01b038316610180819052630a96ad3960e01b825282519092630a96ad3992600480820193918290030181865afa158015620000d2573d5f803e3d5ffd5b505050506040513d601f19601f82011682018060405250810190620000f891906200034e565b506101a052505f90506200010b620002a4565b90506001600160a01b0381166200013557604051632aea588760e01b815260040160405180910390fd5b5f6200014182620002bd565b8015156101c0526001600160a01b0383166101e0529050806200016757600163929eee14555b50505050505050505050620003ec565b5f8080808080620001a860408051808201909152600d81526c21b7b739b4b232b930ba34b7b760991b602082015290565b8051906020012095506040518060400160405280600381526020016218971b60e91b8152508051906020012094505f6040518060a00160405280606a8152602001620062fd606a913990505f6040518060c0016040528060848152602001620061536084913990505f60405180610100016040528060d481526020016200622960d491399050604051806080016040528060528152602001620061d76052913980519060200120965082805190602001209550818051906020012094505f8183856040516020016200027d93929190620003a0565b60405160208183030381529060405290508080519060200120945050505050909192939495565b5f696002601e613d5c3d52f35f52600a60165ff0905090565b5f816001600160a01b0316600a5a620002d79190620003cc565b6040515f8181818686fa925050503d805f811462000311576040519150601f19603f3d011682016040523d82523d5f602084013e62000316565b606091505b50909392505050565b5f6020828403121562000330575f80fd5b81516001600160a01b038116811462000347575f80fd5b9392505050565b5f806040838503121562000360575f80fd5b505080516020909101519092909150565b5f81515f5b8181101562000392576020818501810151868301520162000376565b505f93019283525090919050565b5f620003c3620003bc620003b5848862000371565b8662000371565b8462000371565b95945050505050565b5f82620003e757634e487b7160e01b5f52601260045260245ffd5b500490565b60805160a05160c05160e05161010051610120516101405161016051610180516101a0516101c0516101e051615cab620004a85f395f61047601525f818161036d0152818161042b01528181611a6601528181611ab901526125f201525f61318e01525f81816112b4015261315e01525f61303801525f612f8001525f8181610c24015261164f01525f8181610bb3015261149801525f8181610b4d01526115e101525f612fb001525f612ff901525f612fd50152615cab5ff3fe608060405260043610610103575f3560e01c8063a900866b11610092578063f07ec37311610062578063f07ec373146102f7578063f2d12b1214610316578063f47b774014610329578063fb0f3ee114610116578063fd9f1e101461034c575f80fd5b8063a900866b1461028a578063b3a34c4c146102be578063e7acab24146102d1578063ed98a574146102e4575f80fd5b80637423eb3c116100d85780637423eb3c146101f757806379df72bd1461020b57806387201b411461022a578063881477321461024b578063a81744041461026a575f80fd5b801561011657806306fdde031461013e57806346423aa71461015f5780635b34b966146101d5575f80fd5b366101125761011061036b565b005b5f80fd5b6101296101243660046152ed565b6103f9565b60405190151581526020015b60405180910390f35b348015610149575f80fd5b50610152610408565b6040516101359190615367565b34801561016a575f80fd5b506101b3610179366004615379565b5f9081526001602052604090205460ff808216926101008304909116916001600160781b03620100008204811692600160881b9092041690565b6040805194151585529215156020850152918301526060820152608001610135565b3480156101e0575f80fd5b506101e9610417565b604051908152602001610135565b348015610202575f80fd5b50610110610420565b348015610216575f80fd5b506101e9610225366004615390565b6104c1565b61023d610238366004615424565b6104f8565b6040516101359291906155c8565b348015610256575f80fd5b50610129610265366004615617565b610571565b61027d610278366004615655565b61058f565b60405161013591906156bb565b348015610295575f80fd5b506101e96102a43660046156cd565b6001600160a01b03165f9081526002602052604090205490565b6101296102cc3660046156e6565b61062a565b6101296102df36600461572b565b6106a3565b61023d6102f23660046157af565b6106e1565b348015610302575f80fd5b506101e96103113660046156cd565b610784565b61027d61032436600461584f565b6107a1565b348015610334575f80fd5b5061033d6107ea565b604051610135939291906158f1565b348015610357575f80fd5b50610129610366366004615617565b610801565b7f000000000000000000000000000000000000000000000000000000000000000080156103b357600263929eee145c146103b05763a61be9f05f52346020526024601cfd5b50565b63929eee1454806103e057600263929eee145c146103dc5763a61be9f05f52346020526024601cfd5b5050565b600381146103dc5763a61be9f05f52346020526024601cfd5b5f61040261080c565b92915050565b60606104126109c0565b905090565b5f6104126109de565b63929eee14546001147f000000000000000000000000000000000000000000000000000000000000000080610453575080155b1561047157604051630f45b98b60e41b815260040160405180910390fd5b61049a7f0000000000000000000000000000000000000000000000000000000000000000610a4b565b6104b7576040516370a4078f60e01b815260040160405180910390fd5b5f63929eee145550565b5f806104cd6004610aa9565b90506104f16104e282610ab95b63ffffffff16565b610140830135610b36565b3590565b9392505050565b60608061055d61051361050b6004610aa9565b610c7a6104da565b61052a61052260046020610ce2565b610d006104da565b61054161053960046040610ce2565b610d586104da565b61055061053960046060610ce2565b89338a15028a0189610db0565b915091509b509b9950505050505050505050565b5f6104f161058a6105826004610aa9565b610dea6104da565b610e42565b606061061f6105a96105a16004610aa9565b610f636104da565b604080515f8082526020820190925290610601565b6105ee6040805160a081019091525f808252602082019081526020015f81526020015f8152602001606081525090565b8152602001906001900390816105be5790505b5061061961061160046020610ce2565b610fbb6104da565b33611013565b90505b949350505050565b5f6104f161064361063b6004610aa9565b6110516104da565b604080515f808252602082019092529061069b565b6106886040805160a081019091525f808252602082019081526020015f81526020015f8152602001606081525090565b8152602001906001900390816106585790505b5084336110c7565b5f6106d76106bc6106b46004610aa9565b6112466104da565b6106cb61052260046020610ce2565b853386150286016110c7565b9695505050505050565b6060806107736106f46105a16004610aa9565b604080515f808252602082019092529061074c565b6107396040805160a081019091525f808252602082019081526020015f81526020015f8152602001606081525090565b8152602001906001900390816107095790505b5061075c61053960046020610ce2565b61076b61053960046040610ce2565b883389610db0565b915091509850989650505050505050565b6001600160a01b0381165f90815260208190526040812054610402565b60606107dc6107b361050b6004610aa9565b6107c261052260046020610ce2565b6107d161061160046040610ce2565b338615028601611013565b90505b979650505050505050565b60605f806107f66112a2565b925092509250909192565b5f6104f183836112ee565b5f61012435600281901c90600316600182118334158214806108315761083134611429565b506003841160a0810260240135906502030203010160d01b861a905f630101020360d01b881a610864888289888861143a565b9096509150506101c4600583901b01355f87600581111561088757610887615501565b036108bc5760443560243517156108a557636ab37ce75f526004601cfd5b6108af8482611757565b6108b761180f565b61099d565b6040805160208082528183019092525f9160208201818036833701905050905060028a60058111156108f0576108f0615501565b036109135761090e60c4356084353360e435610104355b878761188f565b610988565b60038a600581111561092757610927615501565b036109455761090e60c4356084353360e435610104355b87876118da565b60048a600581111561095957610959615501565b036109735761090e60243533608435604435606435610907565b6109886024353360843560443560643561093e565b6109928482611910565b61099b816119ca565b505b6109a88689846119ee565b6109b0611a64565b6001995050505050505050505090565b6060602080526d0d436f6e73696465726174696f6e604d5260606020f35b5f6109e7611ab7565b600143034060801c335f525f60205260405f208054820192508281555050336001600160a01b03167f721c20121297512b72821b97f5326877ea8ecf4bb9948fea5bfcb6453074d37f82604051610a4091815260200190565b60405180910390a290565b5f816001600160a01b0316600a5a610a63919061594b565b6040515f8181818686fa925050503d805f8114610a9b576040519150601f19603f3d011682016040523d82523d5f602084013e610aa0565b606091505b50909392505050565b5f813563ffffffff168201610402565b5f610acc61016060408051918201905290565b9050610adb8282610140611b2e565b610af8610af1610aec846040610ce2565b611b37565b6040830152565b5f610b0c610b07846060610ce2565b611b8a565b9050610b19816060840152565b610b2c610b24825190565b610140840152565b50919050565b0190565b610140820151604080519084015180515f939284927f000000000000000000000000000000000000000000000000000000000000000092602090910190845b81811015610ba2578251601f1901805186825260c082208652905260209384019390920191600101610b75565b508060051b6040512094505050505f7f0000000000000000000000000000000000000000000000000000000000000000915060405160206060890151015f5b86811015610c0e578151601f1901805186825260e082208552905260209283019290910190600101610be1565b505060408051600587901b9020601f198a0180517f00000000000000000000000000000000000000000000000000000000000000008252928b01805197815260608c018051938152610140909c019a8b5261018082209390915295909552939097525050925250919050565b5f8063ffffffff8335169050600581901b610c9e6020820160408051918201905290565b828152925060208381019085015f5b83811015610cd857610cd0610cca610cc58484610ce2565b611246565b82850152565b602001610cad565b5050505050919050565b5f6104f163ffffffff610cfa6104ed8686610b328516565b16840190565b5f8063ffffffff8335169050600581901b610d246020820160408051918201905290565b828152925060208381019085015f5b83811015610cd857610d50610cca610d4b8484610ce2565b611bcd565b602001610d33565b5f8063ffffffff8335169050600581901b610d7c6020820160408051918201905290565b828152925060208381019085015f5b83811015610cd857610da8610cca610da38484610ce2565b611c0f565b602001610d8b565b60608036155f80610dc48c8c85898b611c52565b91509150610dd78c8b8b8b8b878761202f565b9450945050505097509795505050505050565b5f8063ffffffff8335169050600581901b610e0e6020820160408051918201905290565b828152925060208381019085015f5b83811015610cd857610e3a610cca610e358484610ce2565b612161565b602001610e1d565b5f610e4b611ab7565b5f805f80855190505f5b81811015610f56575f878281518110610e7057610e7061596a565b60209081029190910101518051909150600481608001516004811115610e9857610e98615501565b03610ea4575050610f4e565b80519450610eb1816121a4565b5f8181526001602052604081209850909650610ed390879089903615156121dd565b50865460ff16610f4b5780610140015181606001515114610ef657610ef661226b565b610f0585878460200151612278565b865460ff191660011787556040517ff280791efe782edcf06ce15c8f4dff17601db3b88eb3805a0db7d77faf757f0490610f429088908490615a6d565b60405180910390a15b50505b600101610e55565b5060019695505050505050565b5f8063ffffffff8335169050600581901b610f876020820160408051918201905290565b828152925060208381019085015f5b83811015610cd857610fb3610cca610fae8484610ce2565b611051565b602001610f96565b5f8063ffffffff8335169050600581901b610fdf6020820160408051918201905290565b828152925060208381019085015f5b83811015610cd85761100b610cca6110068484610ce2565b612433565b602001610fee565b60605f36151590505f8061102b8888858b5189611c52565b9150915061103882612466565b61104588878488856124a5565b98975050505050505050565b5f61106461020060408051918201905290565b60a0810180825290915061108061107a84610aa9565b82612578565b61108c60016020840152565b61109860016040840152565b6110b56110ae6110a9856020610ce2565b6125ae565b6060840152565b610b2c6110c06125d6565b6080840152565b835160808101515f91906110ee60048260048111156110e8576110e8615501565b146125f0565b5f80806110fd8a361515612691565b60408051600180825281830190925293965091945092505f9190816020015b6111246151ff565b81526020019060019003908161111c5790505090508a815f8151811061114c5761114c61596a565b6020026020010181905250611161818b612889565b61116d8684848b612a02565b6040805160018082528183019092525f9160208083019080368337509192505050361515600487818111156111a4576111a4615501565b146111c7576111b58d83885f612b02565b6111c186868684612b54565b506111d9565b6111d6888e6080015183612c58565b95505b6111e4888c8c612d28565b85825f815181106111f7576111f761596a565b60200260200101818152505061120e8d8388612e4b565b61122b86895f01518a602001518d8c604001518d60600151612f18565b611233611a64565b5060019c9b505050505050505050505050565b5f61125961020060408051918201905290565b905061126d60208381019083016040611b2e565b60a0810180825261128061107a84610aa9565b6112916110ae6110a9856060610ce2565b610b2c6110c06110a9856080610ce2565b60605f805f6112af612f7d565b90505f7f0000000000000000000000000000000000000000000000000000000000000000905060605f5281602052806040526303312e3660635260a05ff35b5f6112f7611ab7565b5f8083815b8181101561140e57368787838181106113175761131761596a565b90506020028101906113299190615b4f565b90505f61133960208301836156cd565b90505f61134c60408401602085016156cd565b90505f61135f60a0850160808601615b6e565b905081331483331417156004821417871796505f6113936113886113808790565b610ab96104da565b866101400135610b36565b5f8181526001602052604090819020805461ffff19166101001781559051909a509091506001600160a01b0380851691908616907f6bacc01dbe442496068f7d234edd811f1a5f833243e0aec824f86ab861f3c90d906113f69085815260200190565b60405180910390a385600101955050505050506112fc565b5050801561141e5761141e61305a565b506001949350505050565b63a61be9f05f52806020526024601cfd5b5f806114455f6125f0565b61144d613067565b42610164351115426101443511171561147b576321ccfeb75f5261014435602052610164356040526044601cfd5b610204356102643510156114965763466aa6165f526004601cfd5b7f0000000000000000000000000000000000000000000000000000000000000000608081905260a08790526060602460c037604060646101203760e060802061016052610264356102043560051b6102a0016001820181526020810190508881526080602460208301376101608860a0528760c0525f60e0525f6102043593505f5b8481101561156c578060400261028401602081610100376040816101203760208101358317925060208401935060e0608020845260a0850194508b85528a6020860152604081606087013750600101611518565b6001850160051b610160206060526102643594505b848110156115bc578060400261028401925060a0840193508a8452896020850152604083606086013760208301359190911790600101611581565b506001600160a01b038111156115d9576339f3e3fd5f526004601cfd5b50505050505f7f00000000000000000000000000000000000000000000000000000000000000009050806080528360a052606060c460c0376020610104610120375060c06080205f9081526020812060e0526084359061164d826001600160a01b03165f9081526020819052604090205490565b7f000000000000000000000000000000000000000000000000000000000000000060808190529091506040608460a03760605161010052896101205260a061014461014037816101e05261018060802094505050506102043560051b61018001828152336020820152608060408201526101206060820152600160808201528360a0820152606060c460c083013760a061026435026101e00160a4356084357f9d9af8e38d66c62e2c12f0225249fd9d721c54b83f48d9352c97c6cacdcb6f318385a35f60605260608101820160405250505f611729836130b2565b90506117358389613103565b7101000000000000000000000000000001000182559150509550959350505050565b60c43560843560e4356101043584156117bf575f6040519050632671a55160e11b815260206004820152600160248201528660448201528460648201528360848201523360a48201528260c48201528160e48201526117b98682610104613158565b50611807565b60028660058111156117d3576117d3615501565b036117fa57806001146117e9576117e98161320f565b6117f584843385613220565b611807565b61180784843385856132d5565b505050505050565b346064356084356102643560061b5f80805b838110156118605761028481013592506102a4810135915086831115611849576118496133ac565b828703965061185882846133b9565b604001611821565b5085851115611871576118716133ac565b61187b84866133b9565b8486111561180757611807338688036133b9565b61189981836133ef565b816118c057826001146118af576118af8361320f565b6118bb87878787613220565b6118d1565b6118d1828260028a8a8a8a8a61340d565b50505050505050565b6118e38361348c565b6118ed81836133ef565b816118ff576118bb87878787876132d5565b6118d1828260038a8a8a8a8a61340d565b5f805f805f861561193557505060843592503391505060c4356101043560e43561194a565b50339350506084359150506024356064356044355b80156119585761195861349e565b50600586901b6101e403356102643560061b5f80805b838110156119af5761028481013592506102a481013591508a15611999576119968387615b8c565b95505b6119a7878a8486898f6134ab565b60400161196e565b506119be86898988888e6134ab565b50505050505050505050565b60408151146119d65750565b5f6119e2826020015190565b90506103dc81836134e0565b611a0a8260a4355b331415600182116004909210919091161690565b15611a5f57805f611a19825190565b9050608081901c63ffffffff8216611a3a84826317b1f94282526001905250565b601c840163fb5014fc6060529350611a5660a435888685613504565b5f6060526118d1565b505050565b7f00000000000000000000000000000000000000000000000000000000000000008015611a95575f63929eee145d50565b63929eee145480611aab575f63929eee145d5050565b50600163929eee145550565b7f00000000000000000000000000000000000000000000000000000000000000008015611af65763929eee145c156103b057637fa8a9875f526004601cfd5b63929eee145480611b195763929eee145c156103dc57637fa8a9875f526004601cfd5b600181146103dc57637fa8a9875f526004601cfd5b80838337505050565b5f63ffffffff8235166040519150808252602082018160051b81018060a084026020870183378293505b81841015611b7a5780845260209093019260a001611b61565b60405250919392505050565b9052565b5f63ffffffff8235166040519150808252602082018160051b81018060c084026020870183378293505b81841015611b7a5780845260209093019260c001611bb4565b5f611bdf60a060408051918201905290565b9050611bed82826080611b2e565b611c0a611c03611bfe846080610ce2565b61354c565b6080830152565b919050565b5f63ffffffff8235166040519150808252602082018160051b8101808360061b6020870183378293505b81841015611b7a57808452602090930192604001611c39565b60605f611c5f60016125f0565b86515f90600160e61b82351690806001600160401b03811115611c8457611c84615923565b604051908082528060200260200182016040528015611cad578160200160208202803683370190505b50945060010160051b91505f60205b83811015611eae575f611cd28c83613e7b6104da565b90505f805f611ce1848e612691565b6001600160781b0382166020880152919450925090505f829003611d085750505050611ea6565b6001600160781b0381166040808601919091528a8601849052845160a081015160c0820151608083015192909301518051600184119d909d179c600490931099509092915f5b81811015611df0575f838281518110611d6957611d6961596a565b602002602001015190508b8151108d179c505f611d8b89898460800151613583565b90508160800151826060015103611da85760608201819052611dbd565b611db789898460600151613583565b60608301525b5f611dd68360600151838a8a611dd1361590565b6135bf565b606084018190526080909301929092525050600101611d4e565b5087516060015180515f5b81811015611e9a575f838281518110611e1657611e1661596a565b602002602001015190505f611e308b8b8460800151613583565b90508160800151826060015103611e4d5760608201819052611e62565b611e5c8b8b8460600151613583565b60608301525b5f611e778360600151838c8c611dd136151590565b6060840181905260a0840180516080909501949094529092525050600101611dfb565b50505050505050505050505b602001611cbc565b50506001600160e61b018103611ec657611ec6613612565b50611ed18888612889565b5f8060205b8381101561201457858101519250821561200c575f611ef88c83613e7b6104da565b9050885f03611f13575f87830181905260209091015261200c565b60048151608001516004811115611f2c57611f2c615501565b14611faf57611f458188866001600587901c038e61361f565b611f5b575f87830181905260209091015261200c565b602080820151604083015183516080810151930151611f949388936001600160781b039081169316913314156001909111168e17612b54565b611faa575f87830181905260209091015261200c565b611fda565b611fc1815f015182608001518c612c58565b878301819052935083611fda575f60209091015261200c565b886001900398505f815f0151905061200585825f015183602001518c85604001518660600151612f18565b6001935050505b602001611ed6565b50806120225761202261367a565b5050509550959350505050565b8551855160609182916120428183615b9f565b6001600160401b0381111561205957612059615923565b60405190808252806020026020018201604052801561209257816020015b61207f615232565b8152602001906001900390816120775790505b5092505f5b828110156120ea576120c58c5f8d84815181106120b6576120b661596a565b60200260200101518c8c613687565b8482815181106120d7576120d761596a565b6020908102919091010152600101612097565b505f5b818110156121435761211c8c60018c848151811061210d5761210d61596a565b60200260200101518c5f613687565b84848301815181106121305761213061596a565b60209081029190910101526001016120ed565b506121518b84888a896136d6565b9350505097509795505050505050565b5f6121726040808051918201905290565b905061218c61218861218384610aa9565b6139bf565b8252565b611c0a61219d6110a9846020610ce2565b6020830152565b5f6121b98260600151518361014001516139de565b81516001600160a01b03165f90815260208190526040902054610402908390610b36565b82545f90610100900460ff16156122045781156121fd576121fd856139ee565b505f610622565b83546201000090046001600160781b0316801561225f57831561222f5761222a866139ff565b61225f565b8454600160881b90046001600160781b0316811061225f5782156122565761225686613a10565b5f915050610622565b50600195945050505050565b632165628a5f526004601cfd5b33831480156122875750505050565b5f612290612f7d565b61190160f01b5f908152600282905260228681526042822090829052919250506122df6040518060400160405280600e81526020016d1bdc9a59da5b985b111a59d95cdd60921b815250613a21565b6122e881613a64565b6123186040518060400160405280600f81526020016e0bdbdc9a59da5b985b111a59d95cdd608a1b815250613a21565b83515f6102e26062198301106002601d8401601f161016156123635761233e8688613aa9565b61190160f01b5f90815260028690526022828152604282209190529097509050612366565b50815b612390604051806040016040528060098152602001680dee4c8cae490c2e6d60bb1b815250613a21565b61239987613a64565b6123c46040518060400160405280600a81526020016905edee4c8cae490c2e6d60b31b815250613a21565b6123eb60405180604001604052806006815260200165191a59d95cdd60d21b815250613a21565b6123f481613a64565b61241c604051806040016040528060078152602001660bd91a59d95cdd60ca1b815250613a21565b612429888285858a613b3f565b5050505050505050565b5f6124446040808051918201905290565b9050612455612188610da384610aa9565b611c0a61219d610da3846020610ce2565b80518060051b6040019050602082038051602082527f4b9f2d36e1b4c93de62cc077b00b1a91d84b6c31b4a14e012718dcca230689e78383a190525050565b8351606090806001600160401b038111156124c2576124c2615923565b6040519080825280602002602001820160405280156124fb57816020015b6124e8615232565b8152602001906001900390816124e05790505b5091505f5b8181101561255e575f87828151811061251b5761251b61596a565b6020026020010151905061253889825f0151836020015185613c88565b84838151811061254a5761254a61596a565b602090810291909101015250600101612500565b5061256c87838787876136d6565b50505b95945050505050565b6125858282610160611b2e565b612596610af1610aec846040610ce2565b6103dc6125a7610b07846060610ce2565b6060830152565b6040518135601f0163ffffffe01660200180838337913563ffffffff16815290810160405290565b5f6125e8602060408051918201905290565b5f8152905090565b7f0000000000000000000000000000000000000000000000000000000000000000801561263d5763929eee145c1561262f57637fa8a9875f526004601cfd5b8160010163929eee145d5050565b63929eee14548061266f5763929eee145c1561266057637fa8a9875f526004601cfd5b8260010163929eee145d505050565b6001811461268457637fa8a9875f526004601cfd5b505060020163929eee1455565b5f805f80855f015190506126ae8160a001518260c0015187613e2d565b6126c157505f9250829150819050612882565b602086015160408701516001600160781b0391821694501691505f6004826080015160048111156126f4576126f4615501565b03612721576001838502189050801561270f5761270f613e50565b50600193508392508291506128829050565b50818311831517801561273657612736613e50565b608082015160011615848411161561275057612750613e5d565b612759826121a4565b5f81815260016020526040812091965061277790879083908a6121dd565b61278a57505f9350839250612882915050565b805460ff166127a5576127a5835f0151878a60600151612278565b8054608881901c806127b95786915061287c565b6001600160781b038260101c169150600186036127dd57818103965080955061287c565b8086036127f85790860185810386821102909603959061287c565b80860296810291909502810186810387821102918290039695919003906001600160781b0386111561287c5761283c565b5f5b8215610b2c5790829006919061282b565b61284f6128498784612829565b88612829565b8015019687900496909504946001600160781b0386111561287c57634e487b715f5260116020526024601cfd5b50505050505b9250925092565b805182515f5b82811015612978575f8482815181106128aa576128aa61596a565b602002602001015190505f815f015190508381106128cf576128cf8260200151613e6a565b5f8782815181106128e2576128e261596a565b6020026020010151905080602001516001600160781b03165f0361290857505050612970565b80516040808201519085015163bfb3f8ce5f8760200151600181111561293057612930615501565b1461294c575f612941856060613e7b565b9350636088d7de9150505b8251821061295d57805f526004601cfd5b612968838389613e86565b505050505050505b60010161288f565b505f5b818110156129fb575f8582815181106129965761299661596a565b6020026020010151905080602001516001600160781b03165f036129ba57506129f3565b8051608081015160608201516129d79085908363a8930e9a613f39565b6129ef8483604001518363d69293326104da613f3990565b5050505b60010161297b565b5050505050565b60a084015160c08501516040860151515f805b82811015612a7f575f89604001518281518110612a3457612a3461596a565b602002602001015190505f815f01519050801584179350505f612a6b826060015183608001518c8c8b8b612a66361590565b613fa0565b606083015250608001869052600101612a15565b5060808801516004811082168015612a9957612a99613612565b505050506060860151515f5b81811015612429575f88606001518281518110612ac457612ac461596a565b602002602001015190505f612ae9826060015183608001518b8b8a8a612a6636151590565b60608301525060a0810151608090910152600101612aa5565b8351608081015160208201513314156001821160049092109190911616156129fb575f80612b37858489608001518988613fdb565b63fb5014fc6060529092509050611a568360200151868484613504565b5f848152600160205260408120805482908290608881901c80612b7957889150612c01565b6001600160781b038260101c169150808803612b9d57908801878111935090612c01565b97880297808802979190910288018781119350906001600160781b038083119089111715612c0157612bcf8883612829565b8015019788900497909104906001600160781b038083119089111715612c0157634e487b715f5260116020526024601cfd5b508215612c3a578515612c2e576040516310fda3e160e01b8152600481018a905260240160405180910390fd5b5f945050505050610622565b8660881b8160101b1760011782556001945050505050949350505050565b5f83610140015184606001515114612c7257612c7261226b565b83515f8080612c818888614159565b915091505f8082845f885af16001600160a01b0385165f908152600260205260409020805460018101909155606086901b189550925082612ce0578515612cd357612cca614203565b612cd38561424a565b505f93506104f192505050565b505050505f805f612cfd876040015188606001516104da61425b90565b925092509250825f14612d1357612d138461424a565b60408701919091526060860152509392505050565b6040805160208082528183019092525f916020820181803683375050506040850151519091505f5b81811015612da0575f86604001518281518110612d6f57612d6f61596a565b60200260200101519050846080820152612d9781885f0151896101200151876104da6144d490565b50600101612d50565b50506060840151515f90815b81811015612e2e575f87606001518281518110612dcb57612dcb61596a565b602002602001015190505f6005811115612de757612de7615501565b81516005811115612dfa57612dfa615501565b03612e16574793508381606001511115612e1657612e166133ac565b612e25813389886144d46104da565b50600101612dac565b5050612e39826119ca565b504780156129fb576129fb33826133b9565b8251608081015160208201515f92839283928392916004811060019091111633909114151615612ead57612e8e612e8861010083015190565b5190565b886145c9565b9093509150612e9f60208201612e84565b945063fb5014fc9350612ef9565b600481608001516004811115612ec557612ec5615501565b0361242957805194505f8560601b9050612ee687838b608001518b8561460a565b639397928596509094509250612ef99050565b612f036060859052565b612f0f85878585613504565b5f606052612429565b60608290506060829050856001600160a01b0316876001600160a01b03167f9d9af8e38d66c62e2c12f0225249fd9d721c54b83f48d9352c97c6cacdcb6f318a888686604051612f6b9493929190615beb565b60405180910390a35050505050505050565b5f7f00000000000000000000000000000000000000000000000000000000000000004614613035575060408051608080517f00000000000000000000000000000000000000000000000000000000000000005f9081527f00000000000000000000000000000000000000000000000000000000000000006020527f0000000000000000000000000000000000000000000000000000000000000000855246606090815230845260a08220949095529093529190915290565b507f000000000000000000000000000000000000000000000000000000000000000090565b63fed398fc5f526004601cfd5b600435602014610224356102401416610244356102606102643560061b01141660186101243510600160a01b60843560a4351760c4356024351717101616806103b0576103b06146d5565b5f81815260016020819052604090912090608435906130d790849084903615156121dd565b50815460ff16610b2c57610b2c81846130fe602463ffffffff6102443516016125ae6104da565b612278565b5f6131108260a4356119f6565b15610402575f805f613121866146e2565b63fb5014fc6060529194509250905061314160a43587601c860185613504565b5f60605260209190910160801b1781529392505050565b604080517f000000000000000000000000000000000000000000000000000000000000000060ff60a01b175f90815260208690527f000000000000000000000000000000000000000000000000000000000000000083526055600b20919092526001600160a01b031690505f805f805260205f85875f875af191505f519050816131ed576131e4614203565b6131ed8361479a565b6001600160e01b03198116632671a55160e11b146118075761180786846147ab565b6369f958275f52806020526024601cfd5b833b61323757635f15d6725f52836020526024601cfd5b6040516323b872dd60e01b5f528360045282602452816044525f8060645f80895af1806132c7573d156132a557601f3d0160051c8260051c816003028183111561328e578183036003028280028480020360091c01015b5a6020820110156132a1573d5f803e3d5ffd5b5050505b63f486bc875f5285602052846040528360605282608052600160a05260a4601cfd5b5060405250505f6060525050565b843b6132ec57635f15d6725f52846020526024601cfd5b60405160805160a05160c051637921219560e11b5f528760045286602452856044528460645260a06084525f60a4525f8060c45f808d5af180613391573d1561337057601f3d0160051c8560051c8160030281831115613359578183036003028280028480020360091c01015b5a60208201101561336c573d5f803e3d5ffd5b5050505b63f486bc875f52896020528860405287606052866080528560a05260a4601cfd5b5060809290925260a05260c05260405250505f606052505050565b638ffff9805f526004601cfd5b6133c28161348c565b5f805f805f85875af1905080611a5f576133da614203565b63bc806b965f5282602052816040526044601cfd5b5f6133fb836020015190565b9050818114611a5f57611a5f836119ca565b5f60208851036134475750604080885260208089018a9052632671a55160e11b918901919091526044880152600160648801819052613456565b50606487018051600101908190525b603c60c082028901038781528660208201528560408201528460608201528360808201528260a082015250505050505050505050565b806103b0576391b3e5145f526004601cfd5b636ab37ce75f526004601cfd5b6134b48361348c565b6134be81836133ef565b816134cf576117f5868686866147c0565b611807828260018989895f8a61340d565b6064810151604082019060c0026044016134fb848383613158565b50506020905250565b5f806001600160e01b03198451165f805260205f85875f8b5af15f519093501490508161353d57613533614203565b846080526024607cfd5b8061180757846080526024607cfd5b5f8063ffffffff83351690506001810160051b61356f8160408051918201905290565b925061357c848483611b2e565b5050919050565b5f8284036135925750806104f1565b82848309156135a85763c63cf0895f526004601cfd5b5f6135b38584615c87565b93909304949350505050565b5f84861461360857838303428590038082035f6135dc838a615c87565b6135e6838c615c87565b6135f09190615b9f565b9050858487830304018115150294505050505061256f565b5092949350505050565b6312d3f5a35f526004601cfd5b8451608081015160208201515f92916004811060019091111633909114151615610f56575f8061365687848b608001518b8a613fdb565b91509150613670836020015188848463fb5014fc8a6148b4565b935050505061256f565b63d5da9a1b5f526004601cfd5b61368f615232565b83515f036136a0576136a085614921565b5f8560018111156136b3576136b3615501565b036136c9576136c486858385614932565b61256f565b61256f8685833387614aa2565b84516060905f816001600160401b038111156136f4576136f4615923565b60405190808252806020026020018201604052801561371d578160200160208202803683370190505b506040805160208082528183019092529192505f9190602082018180368337505089519192505060010160051b60205b818110156137ac575f6137638b83613e7b6104da565b805160608101519192509080156137a157478111825115161561378d57638ffff9805f526004601cfd5b6137a18284602001518560400151896144d4565b50505060200161374d565b50505f5b83811015613918575f8a82815181106137cb576137cb61596a565b6020026020010151905080602001516001600160781b03165f03613812575f8483815181106137fc576137fc61596a565b9115156020928302919091019091015250613910565b60018483815181106138265761382661596a565b911515602092830291909101909101528051604081015180515f5b818110156138ab575f83828151811061385c5761385c61596a565b6020026020010151905080606001515f1461389857608081018051908e905285516101208701516138929184918c6144d46104da565b60808201525b6080810151606090910152600101613841565b505050606081015180515f5b8181101561390a575f8382815181106138d2576138d261596a565b602002602001015190505f81606001519050805f146138f6576138f6888483614bd9565b5060a08101516060909101526001016138b7565b50505050505b6001016137b0565b50613922816119ca565b4780156139335761393333826133b9565b85156139a9575f5b848110156139a7578381815181106139555761395561596a565b60200260200101511561399f5761399f8b82815181106139775761397761596a565b60200260200101518a8b84815181106139925761399261596a565b6020026020010151612e4b565b60010161393b565b505b6139b1611a64565b509098975050505050505050565b5f6139d261016060408051918201905290565b9050611c0a8282612578565b808210156103dc576103dc614bf2565b631a5155745f52806020526024601cfd5b63ee9e0e635f52806020526024601cfd5b6310fda3e15f52806020526024601cfd5b6103b081604051602401613a359190615367565b60408051601f198184030181529190526020810180516001600160e01b031663104c13eb60e21b179052614bff565b6103b081604051602401613a7a91815260200190565b60408051601f198184030181529190526020810180516001600160e01b03166327b7cf8560e01b179052614bff565b5f805f84516001811660410380820360051c9250808752806020018701915050805160e81c6003820191506001811660051b868152825160208218525060015b83811015613b155760405f2082821c60051b602090811691825293840180519190941852600101613ae9565b50505060405f2091505f613b2882614c0b565b5f9081526020939093525050604090209392505050565b5f805f528151602083038051826041035f60018211613ba257604087015160608801515f1a8315613b8357601b8260ff1c0190506001600160ff1b03821660408a01525b88528a855260205f60808760015afa508385528588526040880152505f515b8a148a1515169450849050613c6b57858552604082526044850380516040870351630b135d3f60e11b835289604089035260205f60648b01858f5afa96508615613c5f57630b135d3f60e11b5f5114613c5f578b3b15613c0957634f7fb80d5f526004601cfd5b6001866041031115613c2257638baa579f5f526004601cfd5b64010100000060608901515f1a1a15604187141615613c5257631f003d0a5f5260608801515f1a6020526024601cfd5b63815e1d645f526004601cfd5b8385529152603f198601525b5050508061180757613c7b614203565b634f7fb80d5f526004601cfd5b613c90615232565b8251158451151715613ca9576398e9db6e5f526004601cfd5b613cb1615232565b613cbe8685835f80614aa2565b805160608101515f03613cd357509050610622565b613ce38787858460800151614932565b82516040828101519082015160208085015190840151855185511891181791181715613d1a5763bced929d5f52846020526024601cfd5b806060015182606001511115613da1575f865f81518110613d3d57613d3d61596a565b60200260200101519050816060015183606001510389825f015181518110613d6757613d6761596a565b60200260200101515f015160600151826020015181518110613d8b57613d8b61596a565b6020026020010151606001818152505050613e22565b5f875f81518110613db457613db461596a565b60200260200101519050826060015182606001510389825f015181518110613dde57613dde61596a565b60200260200101515f015160400151826020015181518110613e0257613e0261596a565b602002602001015160600181815250508260600151826060018181525050505b505050949350505050565b428084111590831116818015613e41575080155b156104f1576104f1848461501a565b635a052b325f526004601cfd5b63a11b63ff5f526004601cfd5b63133c37c65f52806020526024601cfd5b5f6104f18284015190565b5f838381518110613e9957613e9961596a565b602002602001015190505f815f01519050613eb48160031090565b613ec057613ec061502f565b60408201518015613ee357613ede846060015182866080015161503c565b613ef6565b60808401515115613ef657613ef6615086565b6004821460030383816005811115613f1057613f10615501565b90816005811115613f2357613f23615501565b9052505050606090920151604090910152505050565b82515f5b81811015611807575f858281518110613f5857613f5861596a565b60209081029190910101518051604082015191925090600382116004881415821515171615613f9257855f5288602052836040526044601cfd5b505050806001019050613f3d565b5f868803613fba57613fb3868689613583565b90506107df565b6107dc613fc887878b613583565b613fd388888b613583565b8686866135bf565b5f805f613fe6615093565b6301e4d72a815260208082015260408101898152336060830152601c82019450909150875160408201528761402661401f60a083015190565b60e0840152565b61403c61403460c083015190565b610100840152565b61405261404a60e083015190565b610120840152565b610140614060816060850152565b5f61406c604084015190565b90505f61407b8284870161509d565b92830192905061408c836080870152565b5f614098606086015190565b90505f6140a782868901615103565b9485019490506140b88560a0890152565b5f6140c58e878a01615168565b9590950194506140d68560c0890152565b8685015f6140e48e83615187565b602497019687019a5061410090506140fb8c8c0190565b6151b7565b8060408b901b60808b901b17178f61010001818152505061412a8c82611b8690919063ffffffff16565b60058c8e516141399190615b8c565b614144911b8b615b8c565b99505050505050505050509550959350505050565b5f8083614164615093565b639891976581523360208201908152608060408301819052601c9092019450905f614190604085015190565b90505f61419f8284860161509d565b9283019290506141b0836040860152565b5f6141bc606087015190565b90505f6141cb8286880161509d565b9485019490506141dc856060880152565b895f6141ea82898901615168565b9a9d96909a016004019b50949950505050505050505050565b3d1561424857601f3d0160051c60405160051c8160030281831115614235578183036003028280028480020360091c01015b5a602082011015611a5f573d5f803e3d5ffd5b565b63939792855f52806020526024601cfd5b60603d105f8080808080866142cd5760405f803e5f51935060205192503d60208501113d602085011180821798505050866142cd576020845f3e5f51915060208360203e60205190508160071b60208501018160a0026020850101803d10823d101761ffff8486171117985050505f80525b866142ff575f806142e284602088018d614308565b925097506142f483602087018c6143e8565b929092179850909550505b50505050612882565b5f806040519150825160c08602602001830160405285835260208660010160051b8085018360010160051b8701614346858b81811090829003020190565b60010160051b8a861196505b808510156143a657828589015260808a843e606083015195508560808401526060820151868111614383858561448f565b17881797505060808a01995060a08301925060a082019150602085019450614352565b50505b818310156143dc578083870152608088823e6060810151608082015260808801975060a0810190506020830192506143a9565b50505050935093915050565b604051815180851190808603818710028101602060e08202850181016040528185526001928301600590811b87019390920190911b908185015b828210156143dc57808287015260a088823e60206060890160a083013e6060810151606085015161445f6080840151608088015180159114171590565b8183111761446d848861448f565b60a09b909b019a179690961795505060c0938401936020929092019101614422565b5f8151604083015180156003831116156144b157506040840151600119909101905b604085015181148551831460208701516020870151141616159250505092915050565b5f845160058111156144e8576144e8615501565b0361452557604084015160208501516001600160a01b0316171561450e5761450e61349e565b614520846080015185606001516133b9565b6145c3565b60018451600581111561453a5761453a615501565b0361456b576040840151156145515761455161349e565b6145208460200151848660800151876060015186866134ab565b60028451600581111561458057614580615501565b036145a457614520846020015184866080015187604001518860600151878761188f565b6145c384602001518486608001518760400151886060015187876118da565b50505050565b608082901c63ffffffff604084901c811690808516906145f19084906317b1f94290611b8616565b601c830192506146018482615187565b50509250929050565b5f80614614615093565b63f4dd92ce815287841860a0820152601c8101925060200160a0808252875f61463e604083015190565b90505f61464d8285870161509d565b93840193905061465e846020870152565b5f61466a606085015190565b90505f61467982878901615103565b95860195905061468a866040890152565b5f6146978d888a01615168565b9687019690506146a88760608a0152565b5f6146b58d898b01615187565b905080880197508760040199505050505050505050509550959350505050565b6339f3e3fd5f526004601cfd5b6301e4d72a6102043560051b6080019081525f808260208082015260408101858152336060830152601c919091019061471c608435610af1565b61472d61014460e083016060611b2e565b61014061473b816060840152565b61474960a082016080840152565b61016060a0610264358102929092010190614765908290840152565b61476f5f82840152565b60200161477d8160c0840152565b5f9181019182526020820196909652939560449095019492505050565b63d13d53d45f52806020526024601cfd5b631cf99b265f5281602052806040526044601cfd5b6040516323b872dd60e01b5f5283600452826024528160445260205f60645f80895af1803d15601f3d1160015f51141617163d151581166148a55780873b1515166148a557806148945781614877573d1561485657601f3d0160051c8360051c816003028183111561483f578183036003028280028480020360091c01015b5a602082011015614852573d5f803e3d5ffd5b5050505b63f486bc875f528660205285604052846060525f6080528360a05260a4601cfd5b63988919235f52866020528560405284606052836080526084601cfd5b635f15d6725f52866020526024601cfd5b505060405250505f6060525050565b5f805f6001600160e01b03198751165f805260205f888a5f8e5af15f519093501490508161490057836148eb575f925050506106d7565b6148f3614203565b845f52876020526024601cfd5b8061491257845f52876020526024601cfd5b50600198975050505050505050565b63375c24c15f52806020526024601cfd5b5f805f85865160051b87015b80821015614a4f5760208201915088518251511061495e5761495e614a83565b81515160051b60208a01015180516020845101515f60408301516020850151158151841015171561499357505050505061493e565b8260051b60208201015191505060608101935083518901915083511589831060011b17881797508198505f84528a5193508615600181146149fc5760608220881860408d01516101208601511860208e01518651181717156149f7576149f7614a83565b614a45565b8151855260208201516020860152604082015160408601528a6080860152835160208d015261012084015160408d015260608520975060208d01925086831815614a4557865183525b505050505061493e565b505050816060855101528015614a7c5760018103614a74576391b3e5145f526004601cfd5b614a7c614a90565b50506145c3565b637fda72795f526004601cfd5b634e487b715f5260116020526024601cfd5b5f805f86875160051b88015b80821015614ba4576020820191508151518a518110614acf57614acf614a83565b8060051b60208c01015190506020835101515f60608351015160208401511581518410151715614b025750505050614aae565b8260051b60208201015191505060608101925082518801915082511588831060011b17871796508197505f83528a519250851560018114614b545760a082208714614b4f57614b4f614a83565b614b9b565b815184526020820151602085015260408201516040850152608082015160808501528a60208d01528960408d015260a08220965060208d01925085831815614b9b57855183525b50505050614aae565b50508551606001839052508015614bd25760018103614bca576391b3e5145f526004601cfd5b614bd2614a90565b50506129fb565b63a5f542085f528260205281604052806060526064601cfd5b63466aa6165f526004601cfd5b6103b0816151c16104da565b5f615011565b5f6009821015614d6a576005821015614cc7576003821015614c7a577f832c58a5b611aadcfa6a082ac9d04bace53d8278387f10040347b7e98eb5b30260018314027fbf8e29b89f29ed9b529c154a63038ffca562f8d7cd1e2545dda53a1b582dde3018610402565b7ff3e8417a785f980bdaf134fa0274a6bf891eeb8195cd94b09d2aa651046e28bc60038314027fa02eb7ff164c884e5e2c336dc85f81c6a93329d8e9adf214b32729b894de2af118610402565b6007821015614d1d577f25d02425402d882d211a7ab774c0ed6eca048c4d03d9af40132475744753b2a360058314027f1c19f71958cdd8f081b4c31f7caf5c010b29d12950be2fa1c95070dc47e30b5518610402565b7fb58d772fb09b426b9dece637f61ca9065f2b994f1464b51e9207f55f7c8f594860078314027f7ff98d9d4e55d876c5cfac10b43c04039522f3ddfb0ea9bfe70c68cfb5c7cc1418610402565b6011821015614ec257600d821015614e1f57600b821015614dd2577f6f0ec38c21f6f583ab7f3c5413c773ffd5344c34fde1d390958e438bf667448f60098314027fd1d97d1ef5eaa37a4ee5fbf234e6f6d64eb511eb562221cd7edfbdde0848da0518610402565b7f32f4e7485d6485f9f6c255929b9905c62ba919758bbe231f231eaeecf33d810c600b8314027fbb98d87cc12922b83759626c5f07d72266da9702d19ffad6a514c73a89002f5f18610402565b600f821015614e75577f8df51df98847160517f5b1186b4bc3f418d98b8a7f17f1292f392d79d600d79e600d8314027f6b5b04cbae4fcb1a9d78e7b2dfc51a36933d023cf6e347e03d517b472a85259018610402565b7fcc4886e37eedd9aacd6c1c2c9247197a621a71282e87a7cbc673f3736d9aa141600f8314027f1da3eed3ecef6ebaa6e5023c057ec2c75150693fd0dac5c90f4a142f9879fde818610402565b6015821015614f6e576013821015614f21577f2d7a3ed6dab270fdb8e054b2ad525f0ce2a8b89cc76c17f0965434740f673a5560118314027fc3939feff011e53ab8c35ca3370aad54c5df1fc2938cd62543174fa6e7d8587718610402565b7f54b3212a178782f104e0d514b41a9a5c4ca9c980bf6597c3cecbf280917e202a60138314027f5a4f867d3d458dabecad65f6201ceeaba0096df2d0c491cc32e6ea4e6435001718610402565b6017821015614fc4577fbb40bf8cea3a5a716e2b6eb08bbdac8ec159f82f380783db3c56904f15a43d0460158314027f3bd8cff538aba49a9c374c806d277181e9651624b3e31111bc0624574f8bca1d18610402565b7f403be09941a31d05cfc2f896505811353d45d38743288b016630cce39435476a60178314027f1d51df90cba8de7637ca3e8fe1e3511d1dc2f23487d05dbdecb781860c21ac1c18610402565b61040282614c11565b6321ccfeb75f5281602052806040526044601cfd5b6394eb6af65f526004601cfd5b5f835f5260205f2060208301835160051b81015b8082101561507757815180841160051b93845260209384185260405f209290910190615050565b505083149050806145c3576145c35b6309bde3395f526004601cfd5b5f61041260405190565b5f825180835260208401602084018260051b82015b808310156150f057825180518352602081015160208401526040810151604084015260608101516060840152506020830192506080820191506150b2565b5050508060071b60200191505092915050565b5f8061510d845190565b8084529050602084810190600583901b860181019085015b82821115615155575f615137846151e0565b9050615145818360a06151e9565b506020929092019160a001615125565b60a0840260200194505050505092915050565b5f63ffffffe0603f615178855190565b011690506104028383836151e9565b5f80615191845190565b8084529050600581901b6151ac6020868101908601836151e9565b602001949350505050565b6103b06040829052565b5f6a636f6e736f6c652e6c6f6790505f80835160208501845afa505050565b5f610402825190565b8082828560045afa80153d1517156145c3575f80fd5b6040518060a00160405280615212615274565b81525f602082018190526040820152606080820181905260809091015290565b60408051610100810182525f606082018181526080830182905260a0830182905260c0830182905260e083018290528252602082018190529181019190915290565b6040518061016001604052805f6001600160a01b031681526020015f6001600160a01b0316815260200160608152602001606081526020015f60048111156152be576152be615501565b81525f6020820181905260408201819052606082018190526080820181905260a0820181905260c09091015290565b5f602082840312156152fd575f80fd5b81356001600160401b03811115615312575f80fd5b820161024081850312156104f1575f80fd5b5f81518084525f5b818110156153485760208185018101518683018201520161532c565b505f602082860101526020601f19601f83011685010191505092915050565b602081525f6104f16020830184615324565b5f60208284031215615389575f80fd5b5035919050565b5f602082840312156153a0575f80fd5b81356001600160401b038111156153b5575f80fd5b820161016081850312156104f1575f80fd5b5f8083601f8401126153d7575f80fd5b5081356001600160401b038111156153ed575f80fd5b6020830191508360208260051b8501011115615407575f80fd5b9250929050565b80356001600160a01b0381168114611c0a575f80fd5b5f805f805f805f805f805f60e08c8e03121561543e575f80fd5b6001600160401b03808d351115615453575f80fd5b6154608e8e358f016153c7565b909c509a5060208d0135811015615475575f80fd5b6154858e60208f01358f016153c7565b909a50985060408d013581101561549a575f80fd5b6154aa8e60408f01358f016153c7565b909850965060608d01358110156154bf575f80fd5b506154d08d60608e01358e016153c7565b909550935060808c013592506154e860a08d0161540e565b915060c08c013590509295989b509295989b9093969950565b634e487b7160e01b5f52602160045260245ffd5b60068110611b8657611b86615501565b615530828251615515565b6020818101516001600160a01b0390811691840191909152604080830151908401526060808301519084015260809182015116910152565b5f815180845260208085019450602084015f5b838110156155bd578151615590888251615525565b808401516001600160a01b031660a08901526040015160c088015260e0909601959082019060010161557b565b509495945050505050565b604080825283519082018190525f906020906060840190828701845b828110156156025781511515845292840192908401906001016155e4565b50505083810360208501526106d78186615568565b5f8060208385031215615628575f80fd5b82356001600160401b0381111561563d575f80fd5b615649858286016153c7565b90969095509350505050565b5f805f8060408587031215615668575f80fd5b84356001600160401b038082111561567e575f80fd5b61568a888389016153c7565b909650945060208701359150808211156156a2575f80fd5b506156af878288016153c7565b95989497509550505050565b602081525f6104f16020830184615568565b5f602082840312156156dd575f80fd5b6104f18261540e565b5f80604083850312156156f7575f80fd5b82356001600160401b0381111561570c575f80fd5b83016040818603121561571d575f80fd5b946020939093013593505050565b5f805f805f6080868803121561573f575f80fd5b85356001600160401b0380821115615755575f80fd5b9087019060a0828a031215615768575f80fd5b9095506020870135908082111561577d575f80fd5b5061578a888289016153c7565b909550935050604086013591506157a36060870161540e565b90509295509295909350565b5f805f805f805f8060a0898b0312156157c6575f80fd5b88356001600160401b03808211156157dc575f80fd5b6157e88c838d016153c7565b909a50985060208b0135915080821115615800575f80fd5b61580c8c838d016153c7565b909850965060408b0135915080821115615824575f80fd5b506158318b828c016153c7565b999c989b509699959896976060870135966080013595509350505050565b5f805f805f805f6080888a031215615865575f80fd5b87356001600160401b038082111561587b575f80fd5b6158878b838c016153c7565b909950975060208a013591508082111561589f575f80fd5b6158ab8b838c016153c7565b909750955060408a01359150808211156158c3575f80fd5b506158d08a828b016153c7565b90945092506158e390506060890161540e565b905092959891949750929550565b606081525f6159036060830186615324565b6020830194909452506001600160a01b0391909116604090910152919050565b634e487b7160e01b5f52604160045260245ffd5b634e487b7160e01b5f52601160045260245ffd5b5f8261596557634e487b7160e01b5f52601260045260245ffd5b500490565b634e487b7160e01b5f52603260045260245ffd5b5f815180845260208085019450602084015f5b838110156155bd5781516159a6888251615515565b838101516001600160a01b03168885015260408082015190890152606080820151908901526080908101519088015260a09096019590820190600101615991565b5f815180845260208085019450602084015f5b838110156155bd578151615a0f888251615515565b808401516001600160a01b0390811689860152604080830151908a0152606080830151908a0152608080830151908a015260a091820151169088015260c090960195908201906001016159fa565b60058110611b8657611b86615501565b82815260406020820152615a8d6040820183516001600160a01b03169052565b5f6020830151615aa860608401826001600160a01b03169052565b506040830151610160806080850152615ac56101a085018361597e565b91506060850151603f198584030160a0860152615ae283826159e7565b9250506080850151615af760c0860182615a5d565b5060a085015160e085015260c0850151610100818187015260e0870151915061012082818801528188015192506101409150828288015280880151848801525080870151610180870152505050809150509392505050565b5f823561015e19833603018112615b64575f80fd5b9190910192915050565b5f60208284031215615b7e575f80fd5b8135600581106104f1575f80fd5b8181038181111561040257610402615937565b8082018082111561040257610402615937565b5f815180845260208085019450602084015f5b838110156155bd57615bd8878351615525565b60a0969096019590820190600101615bc5565b5f6080808301878452602060018060a01b03808916602087015260406080604088015283895180865260a08901915060208b0195505f5b81811015615c63578651615c37848251615515565b808701518616848801528481015185850152606090810151908401529585019591870191600101615c22565b50508781036060890152615c77818a615bb2565b9c9b505050505050505050505050565b80820281158282048414176104025761040261593756fea164736f6c6343000818000a436f6e73696465726174696f6e4974656d2875696e7438206974656d547970652c6164647265737320746f6b656e2c75696e74323536206964656e7469666965724f7243726974657269612c75696e74323536207374617274416d6f756e742c75696e7432353620656e64416d6f756e742c6164647265737320726563697069656e7429454950373132446f6d61696e28737472696e67206e616d652c737472696e672076657273696f6e2c75696e7432353620636861696e49642c6164647265737320766572696679696e67436f6e7472616374294f72646572436f6d706f6e656e74732861646472657373206f6666657265722c61646472657373207a6f6e652c4f666665724974656d5b5d206f666665722c436f6e73696465726174696f6e4974656d5b5d20636f6e73696465726174696f6e2c75696e7438206f72646572547970652c75696e7432353620737461727454696d652c75696e7432353620656e6454696d652c62797465733332207a6f6e65486173682c75696e743235362073616c742c6279746573333220636f6e647569744b65792c75696e7432353620636f756e746572294f666665724974656d2875696e7438206974656d547970652c6164647265737320746f6b656e2c75696e74323536206964656e7469666965724f7243726974657269612c75696e74323536207374617274416d6f756e742c75696e7432353620656e64416d6f756e7429",
  "linkReferences": {},
  "deployedLinkReferences": {}
}