{
  "_format": "hh-sol-artifact-1",
  "contractName": "CustodyERC20Contract",
  "sourceName": "contracts/custodyERC20Contract/CustodyERC20Contract.sol",
  "abi": [
    {
      "anonymous": false,
      "inputs": [
        {
          "indexed": true,
          "internalType": "address",
          "name": "owner",
          "type": "address"
        },
        {
          "indexed": false,
          "internalType": "uint256",
          "name": "numberOfTokens",
          "type": "uint256"
        },
        {
          "indexed": false,
          "internalType": "uint256",
          "name": "depositReleaseTimestamp",
          "type": "uint256"
        }
      ],
      "name": "Deposit",
      "type": "event"
    },
    {
      "anonymous": false,
      "inputs": [
        {
          "indexed": false,
          "internalType": "uint8",
          "name": "version",
          "type": "uint8"
        }
      ],
      "name": "Initialized",
      "type": "event"
    },
    {
      "anonymous": false,
      "inputs": [
        {
          "indexed": true,
          "internalType": "string",
          "name": "secret",
          "type": "string"
        },
        {
          "indexed": true,
          "internalType": "address",
          "name": "recepient",
          "type": "address"
        },
        {
          "indexed": false,
          "internalType": "uint256",
          "name": "numberOfTokens",
          "type": "uint256"
        }
      ],
      "name": "Withdrawal",
      "type": "event"
    },
    {
      "inputs": [
        {
          "internalType": "bytes32",
          "name": "",
          "type": "bytes32"
        }
      ],
      "name": "_deposits",
      "outputs": [
        {
          "internalType": "address",
          "name": "owner",
          "type": "address"
        },
        {
          "internalType": "uint256",
          "name": "depositOwnerReleaseTimestamp",
          "type": "uint256"
        },
        {
          "internalType": "uint256",
          "name": "numberOfTokens",
          "type": "uint256"
        }
      ],
      "stateMutability": "view",
      "type": "function"
    },
    {
      "inputs": [
        {
          "internalType": "uint256",
          "name": "numberOfTokens",
          "type": "uint256"
        },
        {
          "internalType": "uint256",
          "name": "depositOwnerReleaseTimestamp",
          "type": "uint256"
        },
        {
          "internalType": "bytes32",
          "name": "secretHash",
          "type": "bytes32"
        }
      ],
      "name": "depositTokens",
      "outputs": [],
      "stateMutability": "nonpayable",
      "type": "function"
    },
    {
      "inputs": [
        {
          "internalType": "contract IERC20Upgradeable",
          "name": "token",
          "type": "address"
        }
      ],
      "name": "initialize",
      "outputs": [],
      "stateMutability": "nonpayable",
      "type": "function"
    },
    {
      "inputs": [
        {
          "internalType": "string",
          "name": "secret",
          "type": "string"
        }
      ],
      "name": "withdrawTokens",
      "outputs": [],
      "stateMutability": "nonpayable",
      "type": "function"
    }
  ],
  "bytecode": "0x608060405234801561001057600080fd5b5061094c806100206000396000f3fe608060405234801561001057600080fd5b506004361061004c5760003560e01c8063594922fb14610051578063c4d66de8146100b3578063cdd8ecdd146100c8578063e835d4f2146100db575b600080fd5b61008a61005f3660046107d0565b6034602052600090815260409020805460018201546002909201546001600160a01b03909116919083565b604080516001600160a01b03909416845260208401929092529082015260600160405180910390f35b6100c66100c13660046107e8565b6100ee565b005b6100c66100d6366004610894565b610218565b6100c66100e936600461080f565b6104e5565b600054610100900460ff161580801561010e5750600054600160ff909116105b806101285750303b158015610128575060005460ff166001145b6101905760405162461bcd60e51b815260206004820152602e60248201527f496e697469616c697a61626c653a20636f6e747261637420697320616c72656160448201526d191e481a5b9a5d1a585b1a5e995960921b60648201526084015b60405180910390fd5b6000805460ff1916600117905580156101b3576000805461ff0019166101001790555b603380546001600160a01b0319166001600160a01b0384161790558015610214576000805461ff0019169055604051600181527f7f26b83ff96e1f2b6a682f133852f6798a09c465da95921460cefb38474024989060200160405180910390a15b5050565b6002600154141561026b5760405162461bcd60e51b815260206004820152601f60248201527f5265656e7472616e637947756172643a207265656e7472616e742063616c6c006044820152606401610187565b600260015560335460408051636eb1769f60e11b815233600482015230602482015290516000926001600160a01b03169163dd62ed3e916044808301926020929190829003018186803b1580156102c157600080fd5b505afa1580156102d5573d6000803e3d6000fd5b505050506040513d601f19601f820116820180604052508101906102f9919061087c565b90508381101561034b5760405162461bcd60e51b815260206004820152601f60248201527f416c6c6f77616e6365206973206c657373207468656e207265717569726564006044820152606401610187565b6000828152603460205260409020546001600160a01b0316156103c35760405162461bcd60e51b815260206004820152602a60248201527f4465706f73697420776974682073756368207365637265744861736820616c726044820152691958591e48195e1a5cdd60b21b6064820152608401610187565b6033546001600160a01b03166323b872dd33306040516001600160e01b031960e085901b1681526001600160a01b0392831660048201529116602482015260448101879052606401602060405180830381600087803b15801561042557600080fd5b505af1158015610439573d6000803e3d6000fd5b505050506040513d601f19601f8201168201806040525081019061045d91906107a9565b6104795760405162461bcd60e51b8152600401610187906108fe565b604080518581526020810185905233917f90890809c654f11d6e72a28fa60149770a0d11ec6c92319d6ceb2bb0a4ea1a15910160405180910390a250600090815260346020526040902080546001600160a01b0319163317815560028101929092556001918201558055565b600260015414156105385760405162461bcd60e51b815260206004820152601f60248201527f5265656e7472616e637947756172643a207265656e7472616e742063616c6c006044820152606401610187565b600260015560405160009061055390849084906020016108cf565b60408051601f19818403018152828252805160209182012060008181526034835283902060608501845280546001600160a01b031680865260018201549386019390935260020154928401929092529092506106015760405162461bcd60e51b815260206004820152602760248201527f4465706f736974206279207468697320736563726574206973206e6f7420617660448201526661696c61626c6560c81b6064820152608401610187565b80516001600160a01b03163314158061061e575080602001514210155b6106785760405162461bcd60e51b815260206004820152602560248201527f4465706f736974206973206e6f742072656c656173656420666f72206f776e656044820152641c881e595d60da1b6064820152608401610187565b603354604082810151905163a9059cbb60e01b815233600482015260248101919091526001600160a01b039091169063a9059cbb90604401602060405180830381600087803b1580156106ca57600080fd5b505af11580156106de573d6000803e3d6000fd5b505050506040513d601f19601f8201168201806040525081019061070291906107a9565b61071e5760405162461bcd60e51b8152600401610187906108fe565b604051339061073090869086906108bf565b60405180910390207fd0cfd60d55acd3226ac0fafab52ad35f0ab2fb6eedb946f7d8405108d71df46d836040015160405161076d91815260200190565b60405180910390a350600090815260346020526040812080546001600160a01b0319168155600180820183905560029091019190915580555050565b6000602082840312156107ba578081fd5b815180151581146107c9578182fd5b9392505050565b6000602082840312156107e1578081fd5b5035919050565b6000602082840312156107f9578081fd5b81356001600160a01b03811681146107c9578182fd5b60008060208385031215610821578081fd5b823567ffffffffffffffff80821115610838578283fd5b818501915085601f83011261084b578283fd5b813581811115610859578384fd5b86602082850101111561086a578384fd5b60209290920196919550909350505050565b60006020828403121561088d578081fd5b5051919050565b6000806000606084860312156108a8578081fd5b505081359360208301359350604090920135919050565b8183823760009101908152919050565b60208152816020820152818360408301376000818301604090810191909152601f909201601f19160101919050565b60208082526021908201527f546f6b656e207472616e73666572207761736e2774207375636365737366756c6040820152601760f91b60608201526080019056fea164736f6c6343000804000a",
  "linkReferences": {},
  "deployedLinkReferences": {}
}