{
  "_format": "hh-sol-artifact-1",
  "contractName": "CustodyERC20Contract",
  "sourceName": "contracts/custodyERC20Contract/CustodyERC20Contract.sol",
  "abi": [
    {
      "anonymous": false,
      "inputs": [
        {
          "indexed": true,
          "internalType": "address",
          "name": "sender",
          "type": "address"
        },
        {
          "indexed": false,
          "internalType": "bytes32",
          "name": "puzzle",
          "type": "bytes32"
        },
        {
          "indexed": false,
          "internalType": "uint256",
          "name": "amount",
          "type": "uint256"
        }
      ],
      "name": "Deposit",
      "type": "event"
    },
    {
      "anonymous": false,
      "inputs": [
        {
          "indexed": false,
          "internalType": "uint8",
          "name": "version",
          "type": "uint8"
        }
      ],
      "name": "Initialized",
      "type": "event"
    },
    {
      "anonymous": false,
      "inputs": [
        {
          "indexed": true,
          "internalType": "address",
          "name": "sender",
          "type": "address"
        },
        {
          "indexed": false,
          "internalType": "uint256",
          "name": "amount",
          "type": "uint256"
        }
      ],
      "name": "Withdrawal",
      "type": "event"
    },
    {
      "inputs": [
        {
          "internalType": "uint256",
          "name": "amount",
          "type": "uint256"
        },
        {
          "internalType": "uint256",
          "name": "expiration",
          "type": "uint256"
        },
        {
          "internalType": "bytes32",
          "name": "secretHash",
          "type": "bytes32"
        }
      ],
      "name": "depositTokens",
      "outputs": [],
      "stateMutability": "nonpayable",
      "type": "function"
    },
    {
      "inputs": [
        {
          "internalType": "contract IERC20Upgradeable",
          "name": "token",
          "type": "address"
        }
      ],
      "name": "initialize",
      "outputs": [],
      "stateMutability": "nonpayable",
      "type": "function"
    },
    {
      "inputs": [
        {
          "internalType": "bytes32",
          "name": "secret",
          "type": "bytes32"
        }
      ],
      "name": "withdrawTokens",
      "outputs": [],
      "stateMutability": "nonpayable",
      "type": "function"
    }
  ],
  "bytecode": "0x608060405234801561001057600080fd5b50610c07806100206000396000f3fe608060405234801561001057600080fd5b50600436106100415760003560e01c806349cda18f14610046578063c4d66de81461005b578063cdd8ecdd1461006e575b600080fd5b610059610054366004610af9565b610081565b005b610059610069366004610b11565b6102eb565b61005961007c366004610b50565b610410565b600260015414156100d95760405162461bcd60e51b815260206004820152601f60248201527f5265656e7472616e637947756172643a207265656e7472616e742063616c6c0060448201526064015b60405180910390fd5b60026001556040805160208101839052469181019190915230606082015260009060800160408051601f19818403018152828252805160209182012060008181526034835283902060608501845280546001600160a01b031680865260018201549386019390935260020154928401929092529092506101ab5760405162461bcd60e51b815260206004820152602760248201527f4465706f736974206279207468697320736563726574206973206e6f7420617660448201526661696c61626c6560c81b60648201526084016100d0565b60008160200151116101ff5760405162461bcd60e51b815260206004820152601c60248201527f4465706f73697420697320616c72656164792077697468647261776e0000000060448201526064016100d0565b80516001600160a01b03163314158061021c575080604001514210155b6102765760405162461bcd60e51b815260206004820152602560248201527f4465706f736974206973206e6f742072656c656173656420666f72206f776e656044820152641c881e595d60da1b60648201526084016100d0565b6020810151603354610295916001600160a01b0390911690339061082d565b60208082015160405190815233917f7fcf532c15f0a6db0bd6d0e038bea71d30d808c7d98cb3bf7268a95bf5081b65910160405180910390a2506000908152603460205260408120600190810191909155805550565b600054610100900460ff161580801561030b5750600054600160ff909116105b806103255750303b158015610325575060005460ff166001145b6103885760405162461bcd60e51b815260206004820152602e60248201527f496e697469616c697a61626c653a20636f6e747261637420697320616c72656160448201526d191e481a5b9a5d1a585b1a5e995960921b60648201526084016100d0565b6000805460ff1916600117905580156103ab576000805461ff0019166101001790555b603380546001600160a01b0319166001600160a01b038416179055801561040c576000805461ff0019169055604051600181527f7f26b83ff96e1f2b6a682f133852f6798a09c465da95921460cefb38474024989060200160405180910390a15b5050565b600260015414156104635760405162461bcd60e51b815260206004820152601f60248201527f5265656e7472616e637947756172643a207265656e7472616e742063616c6c0060448201526064016100d0565b6002600155603354604051636eb1769f60e11b81523360048201523060248201526000916001600160a01b03169063dd62ed3e9060440160206040518083038186803b1580156104b257600080fd5b505afa1580156104c6573d6000803e3d6000fd5b505050506040513d601f19601f820116820180604052508101906104ea9190610b38565b90508381101561053c5760405162461bcd60e51b815260206004820152601f60248201527f416c6c6f77616e6365206973206c657373207468656e2072657175697265640060448201526064016100d0565b6000841161058c5760405162461bcd60e51b815260206004820152601c60248201527f4465706f73697420616d6f756e742073686f756c64206265203e20300000000060448201526064016100d0565b816105d95760405162461bcd60e51b815260206004820152601b60248201527f536563726574486173682063616e206e6f7420626520656d707479000000000060448201526064016100d0565b82421061063d5760405162461bcd60e51b815260206004820152602c60248201527f45787069726174696f6e2063616e206e6f74206265206c657373207468656e2060448201526b63757272656e742074696d6560a01b60648201526084016100d0565b6000828152603460205260409020546001600160a01b0316156106b55760405162461bcd60e51b815260206004820152602a60248201527f4465706f73697420776974682073756368207365637265744861736820616c726044820152691958591e48195e1a5cdd60b21b60648201526084016100d0565b6033546040516323b872dd60e01b8152336004820152306024820152604481018690526001600160a01b03909116906323b872dd90606401602060405180830381600087803b15801561070757600080fd5b505af115801561071b573d6000803e3d6000fd5b505050506040513d601f19601f8201168201806040525081019061073f9190610ad9565b6107955760405162461bcd60e51b815260206004820152602160248201527f546f6b656e207472616e73666572207761736e2774207375636365737366756c6044820152601760f91b60648201526084016100d0565b604080518381526020810186905233917f19dacbf83c5de6658e14cbf7bcae5c15eca2eedecf1c66fbca928e4d351bea0f910160405180910390a2506040805160608101825233815260208082019586528183019485526000938452603490529120905181546001600160a01b0319166001600160a01b03909116178155915160018084019190915590516002909201919091558055565b604080516001600160a01b038416602482015260448082018490528251808303909101815260649091019091526020810180516001600160e01b031663a9059cbb60e01b17905261087f908490610884565b505050565b60006108d9826040518060400160405280602081526020017f5361666545524332303a206c6f772d6c6576656c2063616c6c206661696c6564815250856001600160a01b03166109569092919063ffffffff16565b80519091501561087f57808060200190518101906108f79190610ad9565b61087f5760405162461bcd60e51b815260206004820152602a60248201527f5361666545524332303a204552433230206f7065726174696f6e20646964206e6044820152691bdd081cdd58d8d9595960b21b60648201526084016100d0565b6060610965848460008561096f565b90505b9392505050565b6060824710156109d05760405162461bcd60e51b815260206004820152602660248201527f416464726573733a20696e73756666696369656e742062616c616e636520666f6044820152651c8818d85b1b60d21b60648201526084016100d0565b6001600160a01b0385163b610a275760405162461bcd60e51b815260206004820152601d60248201527f416464726573733a2063616c6c20746f206e6f6e2d636f6e747261637400000060448201526064016100d0565b600080866001600160a01b03168587604051610a439190610b7b565b60006040518083038185875af1925050503d8060008114610a80576040519150601f19603f3d011682016040523d82523d6000602084013e610a85565b606091505b5091509150610a95828286610aa0565b979650505050505050565b60608315610aaf575081610968565b825115610abf5782518084602001fd5b8160405162461bcd60e51b81526004016100d09190610b97565b600060208284031215610aea578081fd5b81518015158114610968578182fd5b600060208284031215610b0a578081fd5b5035919050565b600060208284031215610b22578081fd5b81356001600160a01b0381168114610968578182fd5b600060208284031215610b49578081fd5b5051919050565b600080600060608486031215610b64578182fd5b505081359360208301359350604090920135919050565b60008251610b8d818460208701610bca565b9190910192915050565b6020815260008251806020840152610bb6816040850160208701610bca565b601f01601f19169190910160400192915050565b60005b83811015610be5578181015183820152602001610bcd565b83811115610bf4576000848401525b5050505056fea164736f6c6343000804000a",
  "linkReferences": {},
  "deployedLinkReferences": {}
}