{
  "_format": "hh-sol-artifact-1",
  "contractName": "CustodyERC20Contract",
  "sourceName": "contracts/custodyERC20Contract/CustodyERC20Contract.sol",
  "abi": [
    {
      "anonymous": false,
      "inputs": [
        {
          "indexed": true,
          "internalType": "address",
          "name": "sender",
          "type": "address"
        },
        {
          "indexed": false,
          "internalType": "bytes32",
          "name": "puzzle",
          "type": "bytes32"
        },
        {
          "indexed": false,
          "internalType": "uint256",
          "name": "amount",
          "type": "uint256"
        }
      ],
      "name": "Deposit",
      "type": "event"
    },
    {
      "anonymous": false,
      "inputs": [
        {
          "indexed": false,
          "internalType": "uint8",
          "name": "version",
          "type": "uint8"
        }
      ],
      "name": "Initialized",
      "type": "event"
    },
    {
      "anonymous": false,
      "inputs": [
        {
          "indexed": true,
          "internalType": "address",
          "name": "sender",
          "type": "address"
        },
        {
          "indexed": false,
          "internalType": "uint256",
          "name": "amount",
          "type": "uint256"
        }
      ],
      "name": "Withdrawal",
      "type": "event"
    },
    {
      "inputs": [
        {
          "internalType": "uint256",
          "name": "amount",
          "type": "uint256"
        },
        {
          "internalType": "uint256",
          "name": "expiration",
          "type": "uint256"
        },
        {
          "internalType": "bytes32",
          "name": "secretHash",
          "type": "bytes32"
        }
      ],
      "name": "depositTokens",
      "outputs": [],
      "stateMutability": "nonpayable",
      "type": "function"
    },
    {
      "inputs": [
        {
          "internalType": "bytes32",
          "name": "secret",
          "type": "bytes32"
        }
      ],
      "name": "getSecretHash",
      "outputs": [
        {
          "internalType": "bytes32",
          "name": "",
          "type": "bytes32"
        }
      ],
      "stateMutability": "view",
      "type": "function"
    },
    {
      "inputs": [
        {
          "internalType": "contract IERC20Upgradeable",
          "name": "token",
          "type": "address"
        }
      ],
      "name": "initialize",
      "outputs": [],
      "stateMutability": "nonpayable",
      "type": "function"
    },
    {
      "inputs": [
        {
          "internalType": "bytes32",
          "name": "secret",
          "type": "bytes32"
        }
      ],
      "name": "withdrawTokens",
      "outputs": [],
      "stateMutability": "nonpayable",
      "type": "function"
    }
  ],
  "bytecode": "0x608060405234801561001057600080fd5b50610c59806100206000396000f3fe608060405234801561001057600080fd5b506004361061004c5760003560e01c806349cda18f14610051578063be54c8f014610066578063c4d66de8146100bc578063cdd8ecdd146100cf575b600080fd5b61006461005f366004610b4b565b6100e2565b005b6100aa610074366004610b4b565b60408051602080820193909352468183015230606080830191909152825180830390910181526080909101909152805191012090565b60405190815260200160405180910390f35b6100646100ca366004610b63565b610387565b6100646100dd366004610ba2565b6104ac565b6002600154141561013a5760405162461bcd60e51b815260206004820152601f60248201527f5265656e7472616e637947756172643a207265656e7472616e742063616c6c0060448201526064015b60405180910390fd5b60026001556040805160208101839052469181019190915230606082015260009060800160408051601f19818403018152828252805160209182012060008181526034835283902060608501845280546001600160a01b0316808652600182015493860193909352600201549284019290925290925061020c5760405162461bcd60e51b815260206004820152602760248201527f4465706f736974206279207468697320736563726574206973206e6f7420617660448201526661696c61626c6560c81b6064820152608401610131565b60008160200151116102605760405162461bcd60e51b815260206004820152601c60248201527f4465706f73697420697320616c72656164792077697468647261776e000000006044820152606401610131565b80516001600160a01b03163314801561027d575080604001514210155b806102a0575080516001600160a01b031633148015906102a05750806040015142105b6103125760405162461bcd60e51b815260206004820152603760248201527f54686520757365722063616e206e6f742077697468647261772074686520646560448201527f706f7369742064756520746f2065787069726174696f6e0000000000000000006064820152608401610131565b6020810151603354610331916001600160a01b0390911690339061087f565b60208082015160405190815233917f7fcf532c15f0a6db0bd6d0e038bea71d30d808c7d98cb3bf7268a95bf5081b65910160405180910390a2506000908152603460205260408120600190810191909155805550565b600054610100900460ff16158080156103a75750600054600160ff909116105b806103c15750303b1580156103c1575060005460ff166001145b6104245760405162461bcd60e51b815260206004820152602e60248201527f496e697469616c697a61626c653a20636f6e747261637420697320616c72656160448201526d191e481a5b9a5d1a585b1a5e995960921b6064820152608401610131565b6000805460ff191660011790558015610447576000805461ff0019166101001790555b603380546001600160a01b0319166001600160a01b03841617905580156104a8576000805461ff0019169055604051600181527f7f26b83ff96e1f2b6a682f133852f6798a09c465da95921460cefb38474024989060200160405180910390a15b5050565b600260015414156104ff5760405162461bcd60e51b815260206004820152601f60248201527f5265656e7472616e637947756172643a207265656e7472616e742063616c6c006044820152606401610131565b600260015582158015906105935750603354604051636eb1769f60e11b81523360048201523060248201526001600160a01b039091169063dd62ed3e9060440160206040518083038186803b15801561055757600080fd5b505afa15801561056b573d6000803e3d6000fd5b505050506040513d601f19601f8201168201806040525081019061058f9190610b8a565b8311155b6105df5760405162461bcd60e51b815260206004820152601860248201527f416d6f756e74206973206f7574206f6620626f756e64732e00000000000000006044820152606401610131565b8061062c5760405162461bcd60e51b815260206004820152601b60248201527f536563726574486173682063616e206e6f7420626520656d70747900000000006044820152606401610131565b8142106106905760405162461bcd60e51b815260206004820152602c60248201527f45787069726174696f6e2063616e206e6f74206265206c657373207468656e2060448201526b63757272656e742074696d6560a01b6064820152608401610131565b6000818152603460205260409020546001600160a01b0316156107085760405162461bcd60e51b815260206004820152602a60248201527f4465706f73697420776974682073756368207365637265744861736820616c726044820152691958591e48195e1a5cdd60b21b6064820152608401610131565b6033546040516323b872dd60e01b8152336004820152306024820152604481018590526001600160a01b03909116906323b872dd90606401602060405180830381600087803b15801561075a57600080fd5b505af115801561076e573d6000803e3d6000fd5b505050506040513d601f19601f820116820180604052508101906107929190610b2b565b6107e85760405162461bcd60e51b815260206004820152602160248201527f546f6b656e207472616e73666572207761736e2774207375636365737366756c6044820152601760f91b6064820152608401610131565b604080518281526020810185905233917f19dacbf83c5de6658e14cbf7bcae5c15eca2eedecf1c66fbca928e4d351bea0f910160405180910390a26040805160608101825233815260208082019586528183019485526000938452603490529120905181546001600160a01b0319166001600160a01b03909116178155915160018084019190915590516002909201919091558055565b604080516001600160a01b038416602482015260448082018490528251808303909101815260649091019091526020810180516001600160e01b031663a9059cbb60e01b1790526108d19084906108d6565b505050565b600061092b826040518060400160405280602081526020017f5361666545524332303a206c6f772d6c6576656c2063616c6c206661696c6564815250856001600160a01b03166109a89092919063ffffffff16565b8051909150156108d157808060200190518101906109499190610b2b565b6108d15760405162461bcd60e51b815260206004820152602a60248201527f5361666545524332303a204552433230206f7065726174696f6e20646964206e6044820152691bdd081cdd58d8d9595960b21b6064820152608401610131565b60606109b784846000856109c1565b90505b9392505050565b606082471015610a225760405162461bcd60e51b815260206004820152602660248201527f416464726573733a20696e73756666696369656e742062616c616e636520666f6044820152651c8818d85b1b60d21b6064820152608401610131565b6001600160a01b0385163b610a795760405162461bcd60e51b815260206004820152601d60248201527f416464726573733a2063616c6c20746f206e6f6e2d636f6e74726163740000006044820152606401610131565b600080866001600160a01b03168587604051610a959190610bcd565b60006040518083038185875af1925050503d8060008114610ad2576040519150601f19603f3d011682016040523d82523d6000602084013e610ad7565b606091505b5091509150610ae7828286610af2565b979650505050505050565b60608315610b015750816109ba565b825115610b115782518084602001fd5b8160405162461bcd60e51b81526004016101319190610be9565b600060208284031215610b3c578081fd5b815180151581146109ba578182fd5b600060208284031215610b5c578081fd5b5035919050565b600060208284031215610b74578081fd5b81356001600160a01b03811681146109ba578182fd5b600060208284031215610b9b578081fd5b5051919050565b600080600060608486031215610bb6578182fd5b505081359360208301359350604090920135919050565b60008251610bdf818460208701610c1c565b9190910192915050565b6020815260008251806020840152610c08816040850160208701610c1c565b601f01601f19169190910160400192915050565b60005b83811015610c37578181015183820152602001610c1f565b83811115610c46576000848401525b5050505056fea164736f6c6343000804000a",
  "linkReferences": {},
  "deployedLinkReferences": {}
}