{
  "_format": "hh-sol-artifact-1",
  "contractName": "DotCoinBurner",
  "sourceName": "contracts/DotCoinBurner.sol",
  "abi": [
    {
      "inputs": [
        {
          "internalType": "contract IUNSRegistry",
          "name": "unsRegistry",
          "type": "address"
        }
      ],
      "stateMutability": "nonpayable",
      "type": "constructor"
    },
    {
      "anonymous": false,
      "inputs": [
        {
          "indexed": false,
          "internalType": "uint256",
          "name": "first",
          "type": "uint256"
        },
        {
          "indexed": false,
          "internalType": "uint256",
          "name": "last",
          "type": "uint256"
        }
      ],
      "name": "BatchCompleted",
      "type": "event"
    },
    {
      "inputs": [
        {
          "internalType": "uint256[]",
          "name": "labelHashes",
          "type": "uint256[]"
        }
      ],
      "name": "burnAll",
      "outputs": [],
      "stateMutability": "nonpayable",
      "type": "function"
    }
  ],
  "bytecode": "0x60a060405234801561001057600080fd5b506040516103d03803806103d083398101604081905261002f91610044565b60601b6001600160601b031916608052610072565b600060208284031215610055578081fd5b81516001600160a01b038116811461006b578182fd5b9392505050565b60805160601c61034161008f600039600060e601526103416000f3fe608060405234801561001057600080fd5b506004361061002b5760003560e01c8063100cdd9114610030575b600080fd5b61004361003e36600461027c565b610045565b005b60008060005b8381101561020e5760007f7674e7282552c15f203b9c4a6025aeaf28176ef7f5451b280f9bada3f8bc98e28686600181811061009757634e487b7160e01b600052603260045260246000fd5b905060200201356040516020016100b8929190918252602082015260400190565b60408051808303601f190181529082905280516020909101206331a9108f60e11b82526004820181905291507f00000000000000000000000000000000000000000000000000000000000000006001600160a01b0316906323b872dd908290636352211e9060240160206040518083038186803b15801561013857600080fd5b505afa15801561014c573d6000803e3d6000fd5b505050506040513d601f19601f82011682018060405250810190610170919061024e565b6040516001600160e01b031960e084901b1681526001600160a01b03909116600482015261dead602482015260448101849052606401600060405180830381600087803b1580156101c057600080fd5b505af11580156101d4573d6000803e3d6000fd5b5050505081600014156101e5578093505b6101f06001866102ec565b8214156101fb578092505b508061020681610303565b91505061004b565b5060408051838152602081018390527fdf423376f9b0ab363b1b4d6f0b4cb6821921ec30f491555a97236a8a38ce095a910160405180910390a150505050565b60006020828403121561025f578081fd5b81516001600160a01b0381168114610275578182fd5b9392505050565b6000806020838503121561028e578081fd5b823567ffffffffffffffff808211156102a5578283fd5b818501915085601f8301126102b8578283fd5b8135818111156102c6578384fd5b8660208260051b85010111156102da578384fd5b60209290920196919550909350505050565b6000828210156102fe576102fe61031e565b500390565b60006000198214156103175761031761031e565b5060010190565b634e487b7160e01b600052601160045260246000fdfea164736f6c6343000804000a",
  "linkReferences": {},
  "deployedLinkReferences": {}
}