{
  "_format": "hh-sol-artifact-1",
  "contractName": "DotCoinBurner",
  "sourceName": "contracts/DotCoinBurner.sol",
  "abi": [
    {
      "inputs": [
        {
          "internalType": "contract IUNSRegistry",
          "name": "unsRegistry",
          "type": "address"
        }
      ],
      "stateMutability": "nonpayable",
      "type": "constructor"
    },
    {
      "anonymous": false,
      "inputs": [
        {
          "indexed": true,
          "internalType": "uint256",
          "name": "first",
          "type": "uint256"
        },
        {
          "indexed": true,
          "internalType": "uint256",
          "name": "last",
          "type": "uint256"
        }
      ],
      "name": "BatchCompleted",
      "type": "event"
    },
    {
      "inputs": [
        {
          "internalType": "uint256[]",
          "name": "labelHashes",
          "type": "uint256[]"
        }
      ],
      "name": "burnAll",
      "outputs": [],
      "stateMutability": "nonpayable",
      "type": "function"
    }
  ],
  "bytecode": "0x60a060405234801561001057600080fd5b5060405161049e38038061049e83398101604081905261002f91610044565b60601b6001600160601b031916608052610072565b600060208284031215610055578081fd5b81516001600160a01b038116811461006b578182fd5b9392505050565b60805160601c61040f61008f600039600060e2015261040f6000f3fe608060405234801561001057600080fd5b506004361061002b5760003560e01c8063100cdd9114610030575b600080fd5b61004361003e36600461034a565b610045565b005b60005b818110156101e85760007f7674e7282552c15f203b9c4a6025aeaf28176ef7f5451b280f9bada3f8bc98e284848481811061009357634e487b7160e01b600052603260045260246000fd5b905060200201356040516020016100b4929190918252602082015260400190565b60408051808303601f190181529082905280516020909101206331a9108f60e11b82526004820181905291507f00000000000000000000000000000000000000000000000000000000000000006001600160a01b0316906323b872dd908290636352211e9060240160206040518083038186803b15801561013457600080fd5b505afa158015610148573d6000803e3d6000fd5b505050506040513d601f19601f8201168201806040525081019061016c919061031c565b6040516001600160e01b031960e084901b1681526001600160a01b03909116600482015261dead602482015260448101849052606401600060405180830381600087803b1580156101bc57600080fd5b505af11580156101d0573d6000803e3d6000fd5b505050505080806101e0906103d1565b915050610048565b508015610318577f7674e7282552c15f203b9c4a6025aeaf28176ef7f5451b280f9bada3f8bc98e2828261021d6001826103ba565b81811061023a57634e487b7160e01b600052603260045260246000fd5b9050602002013560405160200161025b929190918252602082015260400190565b6040516020818303038152906040528051906020012060001c7f7674e7282552c15f203b9c4a6025aeaf28176ef7f5451b280f9bada3f8bc98e2838360008181106102b657634e487b7160e01b600052603260045260246000fd5b905060200201356040516020016102d7929190918252602082015260400190565b60408051601f19818403018152908290528051602090910120907fdf423376f9b0ab363b1b4d6f0b4cb6821921ec30f491555a97236a8a38ce095a90600090a35b5050565b60006020828403121561032d578081fd5b81516001600160a01b0381168114610343578182fd5b9392505050565b6000806020838503121561035c578081fd5b823567ffffffffffffffff80821115610373578283fd5b818501915085601f830112610386578283fd5b813581811115610394578384fd5b8660208260051b85010111156103a8578384fd5b60209290920196919550909350505050565b6000828210156103cc576103cc6103ec565b500390565b60006000198214156103e5576103e56103ec565b5060010190565b634e487b7160e01b600052601160045260246000fdfea164736f6c6343000804000a",
  "linkReferences": {},
  "deployedLinkReferences": {}
}