{
  "_format": "hh-sol-artifact-1",
  "contractName": "DummyOracle",
  "sourceName": "@ensdomains/ens-contracts/contracts/ethregistrar/DummyOracle.sol",
  "abi": [
    {
      "inputs": [
        {
          "internalType": "int256",
          "name": "_value",
          "type": "int256"
        }
      ],
      "stateMutability": "nonpayable",
      "type": "constructor"
    },
    {
      "inputs": [],
      "name": "latestAnswer",
      "outputs": [
        {
          "internalType": "int256",
          "name": "",
          "type": "int256"
        }
      ],
      "stateMutability": "view",
      "type": "function"
    },
    {
      "inputs": [
        {
          "internalType": "int256",
          "name": "_value",
          "type": "int256"
        }
      ],
      "name": "set",
      "outputs": [],
      "stateMutability": "nonpayable",
      "type": "function"
    }
  ],
  "bytecode": "0x608060405234801561000f575f80fd5b506040516100db3803806100db83398101604081905261002e9161003c565b610036815f55565b50610053565b5f6020828403121561004c575f80fd5b5051919050565b607c8061005f5f395ff3fe6080604052348015600e575f80fd5b50600436106030575f3560e01c806350d25bcd146034578063e5c19b2d146048575b5f80fd5b5f5460405190815260200160405180910390f35b605760533660046059565b5f55565b005b5f602082840312156068575f80fd5b503591905056fea164736f6c6343000818000a",
  "linkReferences": {},
  "deployedLinkReferences": {}
}