{
  "_format": "hh-sol-artifact-1",
  "contractName": "ENSCustody",
  "sourceName": "contracts/custody/ENSCustody.sol",
  "abi": [
    {
      "inputs": [],
      "stateMutability": "nonpayable",
      "type": "constructor"
    },
    {
      "inputs": [],
      "name": "CustodyNotEnoughBalance",
      "type": "error"
    },
    {
      "inputs": [
        {
          "internalType": "uint256",
          "name": "tokenId",
          "type": "uint256"
        }
      ],
      "name": "InvalidForwardedToken",
      "type": "error"
    },
    {
      "inputs": [],
      "name": "InvalidSignature",
      "type": "error"
    },
    {
      "inputs": [
        {
          "internalType": "uint256",
          "name": "tokenId",
          "type": "uint256"
        }
      ],
      "name": "InvalidToken",
      "type": "error"
    },
    {
      "inputs": [],
      "name": "OperationProhibited",
      "type": "error"
    },
    {
      "inputs": [
        {
          "internalType": "uint256",
          "name": "tokenId",
          "type": "uint256"
        },
        {
          "internalType": "address",
          "name": "addr",
          "type": "address"
        }
      ],
      "name": "Unauthorised",
      "type": "error"
    },
    {
      "anonymous": false,
      "inputs": [
        {
          "indexed": false,
          "internalType": "uint8",
          "name": "version",
          "type": "uint8"
        }
      ],
      "name": "Initialized",
      "type": "event"
    },
    {
      "anonymous": false,
      "inputs": [
        {
          "indexed": true,
          "internalType": "address",
          "name": "previousOwner",
          "type": "address"
        },
        {
          "indexed": true,
          "internalType": "address",
          "name": "newOwner",
          "type": "address"
        }
      ],
      "name": "OwnershipTransferred",
      "type": "event"
    },
    {
      "anonymous": false,
      "inputs": [
        {
          "indexed": true,
          "internalType": "uint256",
          "name": "tokenId",
          "type": "uint256"
        },
        {
          "indexed": true,
          "internalType": "address",
          "name": "owner",
          "type": "address"
        }
      ],
      "name": "Parked",
      "type": "event"
    },
    {
      "anonymous": false,
      "inputs": [
        {
          "indexed": true,
          "internalType": "bytes32",
          "name": "role",
          "type": "bytes32"
        },
        {
          "indexed": true,
          "internalType": "bytes32",
          "name": "previousAdminRole",
          "type": "bytes32"
        },
        {
          "indexed": true,
          "internalType": "bytes32",
          "name": "newAdminRole",
          "type": "bytes32"
        }
      ],
      "name": "RoleAdminChanged",
      "type": "event"
    },
    {
      "anonymous": false,
      "inputs": [
        {
          "indexed": true,
          "internalType": "bytes32",
          "name": "role",
          "type": "bytes32"
        },
        {
          "indexed": true,
          "internalType": "address",
          "name": "account",
          "type": "address"
        },
        {
          "indexed": true,
          "internalType": "address",
          "name": "sender",
          "type": "address"
        }
      ],
      "name": "RoleGranted",
      "type": "event"
    },
    {
      "anonymous": false,
      "inputs": [
        {
          "indexed": true,
          "internalType": "bytes32",
          "name": "role",
          "type": "bytes32"
        },
        {
          "indexed": true,
          "internalType": "address",
          "name": "account",
          "type": "address"
        },
        {
          "indexed": true,
          "internalType": "address",
          "name": "sender",
          "type": "address"
        }
      ],
      "name": "RoleRevoked",
      "type": "event"
    },
    {
      "inputs": [],
      "name": "DEFAULT_ADMIN_ROLE",
      "outputs": [
        {
          "internalType": "bytes32",
          "name": "",
          "type": "bytes32"
        }
      ],
      "stateMutability": "view",
      "type": "function"
    },
    {
      "inputs": [],
      "name": "MINTER_ROLE",
      "outputs": [
        {
          "internalType": "bytes32",
          "name": "",
          "type": "bytes32"
        }
      ],
      "stateMutability": "view",
      "type": "function"
    },
    {
      "inputs": [],
      "name": "NAME",
      "outputs": [
        {
          "internalType": "string",
          "name": "",
          "type": "string"
        }
      ],
      "stateMutability": "view",
      "type": "function"
    },
    {
      "inputs": [],
      "name": "VERSION",
      "outputs": [
        {
          "internalType": "string",
          "name": "",
          "type": "string"
        }
      ],
      "stateMutability": "view",
      "type": "function"
    },
    {
      "inputs": [
        {
          "internalType": "address",
          "name": "account",
          "type": "address"
        }
      ],
      "name": "addMinter",
      "outputs": [],
      "stateMutability": "nonpayable",
      "type": "function"
    },
    {
      "inputs": [
        {
          "internalType": "address[]",
          "name": "accounts",
          "type": "address[]"
        }
      ],
      "name": "addMinters",
      "outputs": [],
      "stateMutability": "nonpayable",
      "type": "function"
    },
    {
      "inputs": [
        {
          "internalType": "address payable",
          "name": "receiver",
          "type": "address"
        }
      ],
      "name": "closeMinter",
      "outputs": [],
      "stateMutability": "payable",
      "type": "function"
    },
    {
      "inputs": [
        {
          "components": [
            {
              "internalType": "address",
              "name": "from",
              "type": "address"
            },
            {
              "internalType": "uint256",
              "name": "nonce",
              "type": "uint256"
            },
            {
              "internalType": "uint256",
              "name": "tokenId",
              "type": "uint256"
            },
            {
              "internalType": "bytes",
              "name": "data",
              "type": "bytes"
            }
          ],
          "internalType": "struct IForwarder.ForwardRequest",
          "name": "req",
          "type": "tuple"
        },
        {
          "internalType": "bytes",
          "name": "signature",
          "type": "bytes"
        }
      ],
      "name": "execute",
      "outputs": [
        {
          "internalType": "bytes",
          "name": "",
          "type": "bytes"
        }
      ],
      "stateMutability": "nonpayable",
      "type": "function"
    },
    {
      "inputs": [
        {
          "internalType": "bytes32",
          "name": "role",
          "type": "bytes32"
        }
      ],
      "name": "getRoleAdmin",
      "outputs": [
        {
          "internalType": "bytes32",
          "name": "",
          "type": "bytes32"
        }
      ],
      "stateMutability": "view",
      "type": "function"
    },
    {
      "inputs": [
        {
          "internalType": "bytes32",
          "name": "role",
          "type": "bytes32"
        },
        {
          "internalType": "address",
          "name": "account",
          "type": "address"
        }
      ],
      "name": "grantRole",
      "outputs": [],
      "stateMutability": "nonpayable",
      "type": "function"
    },
    {
      "inputs": [
        {
          "internalType": "bytes32",
          "name": "role",
          "type": "bytes32"
        },
        {
          "internalType": "address",
          "name": "account",
          "type": "address"
        }
      ],
      "name": "hasRole",
      "outputs": [
        {
          "internalType": "bool",
          "name": "",
          "type": "bool"
        }
      ],
      "stateMutability": "view",
      "type": "function"
    },
    {
      "inputs": [
        {
          "internalType": "contract IETHRegistrarController",
          "name": "controller",
          "type": "address"
        },
        {
          "internalType": "contract INameWrapper",
          "name": "wrapper",
          "type": "address"
        }
      ],
      "name": "initialize",
      "outputs": [],
      "stateMutability": "nonpayable",
      "type": "function"
    },
    {
      "inputs": [
        {
          "internalType": "address",
          "name": "account",
          "type": "address"
        }
      ],
      "name": "isMinter",
      "outputs": [
        {
          "internalType": "bool",
          "name": "",
          "type": "bool"
        }
      ],
      "stateMutability": "view",
      "type": "function"
    },
    {
      "inputs": [
        {
          "internalType": "address",
          "name": "forwarder",
          "type": "address"
        }
      ],
      "name": "isTrustedForwarder",
      "outputs": [
        {
          "internalType": "bool",
          "name": "",
          "type": "bool"
        }
      ],
      "stateMutability": "view",
      "type": "function"
    },
    {
      "inputs": [
        {
          "internalType": "string",
          "name": "name",
          "type": "string"
        },
        {
          "internalType": "address",
          "name": "owner",
          "type": "address"
        },
        {
          "internalType": "uint256",
          "name": "duration",
          "type": "uint256"
        },
        {
          "internalType": "bytes32",
          "name": "secret",
          "type": "bytes32"
        },
        {
          "internalType": "address",
          "name": "resolver",
          "type": "address"
        },
        {
          "internalType": "bytes[]",
          "name": "data",
          "type": "bytes[]"
        },
        {
          "internalType": "bool",
          "name": "reverseRecord",
          "type": "bool"
        },
        {
          "internalType": "uint16",
          "name": "ownerControlledFuses",
          "type": "uint16"
        },
        {
          "internalType": "bool",
          "name": "selfCustody",
          "type": "bool"
        }
      ],
      "name": "makeCommitment",
      "outputs": [
        {
          "internalType": "bytes32",
          "name": "",
          "type": "bytes32"
        }
      ],
      "stateMutability": "view",
      "type": "function"
    },
    {
      "inputs": [
        {
          "internalType": "uint256",
          "name": "tokenId",
          "type": "uint256"
        }
      ],
      "name": "nonceOf",
      "outputs": [
        {
          "internalType": "uint256",
          "name": "",
          "type": "uint256"
        }
      ],
      "stateMutability": "view",
      "type": "function"
    },
    {
      "inputs": [
        {
          "internalType": "address",
          "name": "",
          "type": "address"
        },
        {
          "internalType": "address",
          "name": "",
          "type": "address"
        },
        {
          "internalType": "uint256[]",
          "name": "",
          "type": "uint256[]"
        },
        {
          "internalType": "uint256[]",
          "name": "",
          "type": "uint256[]"
        },
        {
          "internalType": "bytes",
          "name": "",
          "type": "bytes"
        }
      ],
      "name": "onERC1155BatchReceived",
      "outputs": [
        {
          "internalType": "bytes4",
          "name": "",
          "type": "bytes4"
        }
      ],
      "stateMutability": "view",
      "type": "function"
    },
    {
      "inputs": [
        {
          "internalType": "address",
          "name": "",
          "type": "address"
        },
        {
          "internalType": "address",
          "name": "",
          "type": "address"
        },
        {
          "internalType": "uint256",
          "name": "",
          "type": "uint256"
        },
        {
          "internalType": "uint256",
          "name": "",
          "type": "uint256"
        },
        {
          "internalType": "bytes",
          "name": "",
          "type": "bytes"
        }
      ],
      "name": "onERC1155Received",
      "outputs": [
        {
          "internalType": "bytes4",
          "name": "",
          "type": "bytes4"
        }
      ],
      "stateMutability": "view",
      "type": "function"
    },
    {
      "inputs": [],
      "name": "owner",
      "outputs": [
        {
          "internalType": "address",
          "name": "",
          "type": "address"
        }
      ],
      "stateMutability": "view",
      "type": "function"
    },
    {
      "inputs": [
        {
          "internalType": "uint256",
          "name": "tokenId",
          "type": "uint256"
        }
      ],
      "name": "ownerOf",
      "outputs": [
        {
          "internalType": "address",
          "name": "",
          "type": "address"
        }
      ],
      "stateMutability": "view",
      "type": "function"
    },
    {
      "inputs": [
        {
          "internalType": "string",
          "name": "name",
          "type": "string"
        },
        {
          "internalType": "address",
          "name": "owner",
          "type": "address"
        },
        {
          "internalType": "uint256",
          "name": "duration",
          "type": "uint256"
        },
        {
          "internalType": "bytes32",
          "name": "secret",
          "type": "bytes32"
        },
        {
          "internalType": "address",
          "name": "resolver",
          "type": "address"
        },
        {
          "internalType": "bytes[]",
          "name": "data",
          "type": "bytes[]"
        },
        {
          "internalType": "bool",
          "name": "reverseRecord",
          "type": "bool"
        },
        {
          "internalType": "uint16",
          "name": "ownerControlledFuses",
          "type": "uint16"
        },
        {
          "internalType": "bool",
          "name": "selfCustody",
          "type": "bool"
        }
      ],
      "name": "register",
      "outputs": [],
      "stateMutability": "nonpayable",
      "type": "function"
    },
    {
      "inputs": [
        {
          "internalType": "address",
          "name": "account",
          "type": "address"
        }
      ],
      "name": "removeMinter",
      "outputs": [],
      "stateMutability": "nonpayable",
      "type": "function"
    },
    {
      "inputs": [
        {
          "internalType": "address[]",
          "name": "accounts",
          "type": "address[]"
        }
      ],
      "name": "removeMinters",
      "outputs": [],
      "stateMutability": "nonpayable",
      "type": "function"
    },
    {
      "inputs": [],
      "name": "renounceMinter",
      "outputs": [],
      "stateMutability": "nonpayable",
      "type": "function"
    },
    {
      "inputs": [],
      "name": "renounceOwnership",
      "outputs": [],
      "stateMutability": "nonpayable",
      "type": "function"
    },
    {
      "inputs": [
        {
          "internalType": "bytes32",
          "name": "role",
          "type": "bytes32"
        },
        {
          "internalType": "address",
          "name": "account",
          "type": "address"
        }
      ],
      "name": "renounceRole",
      "outputs": [],
      "stateMutability": "nonpayable",
      "type": "function"
    },
    {
      "inputs": [
        {
          "internalType": "bytes32",
          "name": "role",
          "type": "bytes32"
        },
        {
          "internalType": "address",
          "name": "account",
          "type": "address"
        }
      ],
      "name": "revokeRole",
      "outputs": [],
      "stateMutability": "nonpayable",
      "type": "function"
    },
    {
      "inputs": [
        {
          "internalType": "address payable",
          "name": "receiver",
          "type": "address"
        }
      ],
      "name": "rotateMinter",
      "outputs": [],
      "stateMutability": "payable",
      "type": "function"
    },
    {
      "inputs": [
        {
          "internalType": "address",
          "name": "to",
          "type": "address"
        },
        {
          "internalType": "uint256",
          "name": "tokenId",
          "type": "uint256"
        }
      ],
      "name": "safeTransfer",
      "outputs": [],
      "stateMutability": "nonpayable",
      "type": "function"
    },
    {
      "inputs": [
        {
          "internalType": "bytes4",
          "name": "interfaceId",
          "type": "bytes4"
        }
      ],
      "name": "supportsInterface",
      "outputs": [
        {
          "internalType": "bool",
          "name": "",
          "type": "bool"
        }
      ],
      "stateMutability": "view",
      "type": "function"
    },
    {
      "inputs": [
        {
          "internalType": "address",
          "name": "newOwner",
          "type": "address"
        }
      ],
      "name": "transferOwnership",
      "outputs": [],
      "stateMutability": "nonpayable",
      "type": "function"
    },
    {
      "inputs": [
        {
          "components": [
            {
              "internalType": "address",
              "name": "from",
              "type": "address"
            },
            {
              "internalType": "uint256",
              "name": "nonce",
              "type": "uint256"
            },
            {
              "internalType": "uint256",
              "name": "tokenId",
              "type": "uint256"
            },
            {
              "internalType": "bytes",
              "name": "data",
              "type": "bytes"
            }
          ],
          "internalType": "struct IForwarder.ForwardRequest",
          "name": "req",
          "type": "tuple"
        },
        {
          "internalType": "bytes",
          "name": "signature",
          "type": "bytes"
        }
      ],
      "name": "verify",
      "outputs": [
        {
          "internalType": "bool",
          "name": "",
          "type": "bool"
        }
      ],
      "stateMutability": "view",
      "type": "function"
    },
    {
      "stateMutability": "payable",
      "type": "receive"
    }
  ],
  "bytecode": "0x60806040523480156200001157600080fd5b506200001c62000022565b620000e4565b600054610100900460ff16156200008f5760405162461bcd60e51b815260206004820152602760248201527f496e697469616c697a61626c653a20636f6e747261637420697320696e697469604482015266616c697a696e6760c81b606482015260840160405180910390fd5b60005460ff9081161015620000e2576000805460ff191660ff9081179091556040519081527f7f26b83ff96e1f2b6a682f133852f6798a09c465da95921460cefb38474024989060200160405180910390a15b565b612a8e80620000f46000396000f3fe6080604052600436106101e75760003560e01c80638da5cb5b11610102578063aa271e1a11610095578063d547741f11610064578063d547741f146105cb578063f23a6e61146105eb578063f2fde38b1461060b578063ffa1ad741461062b57600080fd5b8063aa271e1a14610530578063bc197c8114610550578063cf01585314610589578063d5391393146105a957600080fd5b8063a0e3aef1116100d1578063a0e3aef1146104a4578063a217fddf146104c4578063a3f4df7e146104d9578063a42474001461051057600080fd5b80638da5cb5b1461043157806391d148541461044f578063983b2d561461046f578063986502751461048f57600080fd5b8063572b6c051161017a5780636ccbae5f116101495780636ccbae5f146103c9578063715018a6146103e957806371e2a657146103fe57806381c81d351461041e57600080fd5b8063572b6c05146103355780635fc1964f1461035e578063634486da1461037e5780636352211e1461039157600080fd5b80633092afd5116101b65780633092afd5146102b557806336568abe146102d5578063423f6cef146102f5578063485cc9551461031557600080fd5b806301ffc9a7146101f35780631bf7e13e14610228578063248a9ca3146102555780632f2ff15d1461029357600080fd5b366101ee57005b600080fd5b3480156101ff57600080fd5b5061021361020e366004611dce565b61065c565b60405190151581526020015b60405180910390f35b34801561023457600080fd5b50610248610243366004611e39565b610687565b60405161021f9190611ef9565b34801561026157600080fd5b50610285610270366004611f0c565b600090815260fb602052604090206001015490565b60405190815260200161021f565b34801561029f57600080fd5b506102b36102ae366004611f4a565b610753565b005b3480156102c157600080fd5b506102b36102d0366004611f7a565b61077d565b3480156102e157600080fd5b506102b36102f0366004611f4a565b610791565b34801561030157600080fd5b506102b3610310366004611f97565b610824565b34801561032157600080fd5b506102b3610330366004611fc3565b61092e565b34801561034157600080fd5b50610213610350366004611f7a565b6001600160a01b0316301490565b34801561036a57600080fd5b506102b361037936600461205a565b610a92565b6102b361038c366004611f7a565b610ada565b34801561039d57600080fd5b506103b16103ac366004611f0c565b610b9d565b6040516001600160a01b03909116815260200161021f565b3480156103d557600080fd5b506102856103e4366004611f0c565b610ba8565b3480156103f557600080fd5b506102b3610c02565b34801561040a57600080fd5b506102b361041936600461205a565b610c16565b6102b361042c366004611f7a565b610c5e565b34801561043d57600080fd5b506097546001600160a01b03166103b1565b34801561045b57600080fd5b5061021361046a366004611f4a565b610cdb565b34801561047b57600080fd5b506102b361048a366004611f7a565b610d06565b34801561049b57600080fd5b506102b3610d17565b3480156104b057600080fd5b506102856104bf3660046121b5565b610d31565b3480156104d057600080fd5b50610285600081565b3480156104e557600080fd5b506102486040518060400160405280600b81526020016a454e5320437573746f647960a81b81525081565b34801561051c57600080fd5b5061021361052b366004611e39565b610dcf565b34801561053c57600080fd5b5061021361054b366004611f7a565b610e22565b34801561055c57600080fd5b5061057061056b366004612323565b610e3c565b6040516001600160e01b0319909116815260200161021f565b34801561059557600080fd5b506102b36105a43660046123d0565b610e92565b3480156105b557600080fd5b50610285600080516020612a6283398151915281565b3480156105d757600080fd5b506102b36105e6366004611f4a565b61111d565b3480156105f757600080fd5b506105706106063660046124b2565b611142565b34801561061757600080fd5b506102b3610626366004611f7a565b61117b565b34801561063757600080fd5b5061024860405180604001604052806005815260200164302e302e3160d81b81525081565b60006001600160e01b03198216630271189760e51b1480610681575061068182611197565b92915050565b606060005a9050610699858585610dcf565b6106b657604051638baa579f60e01b815260040160405180910390fd5b6107486106c66020870187611f7a565b306040880135846106da60608b018b61252d565b8080601f01602080910402602001604051908101604052809392919081815260200183838082843760009201919091525050604080516020601f8e018190048102820181019092528c815292508c91508b90819084018382808284376000920191909152506111cc92505050565b9150505b9392505050565b600082815260fb602052604090206001015461076e816112ad565b61077883836112be565b505050565b610785611345565b61078e816113be565b50565b6107996113d6565b6001600160a01b0316816001600160a01b0316146108165760405162461bcd60e51b815260206004820152602f60248201527f416363657373436f6e74726f6c3a2063616e206f6e6c792072656e6f756e636560448201526e103937b632b9903337b91039b2b63360891b60648201526084015b60405180910390fd5b61082082826113e5565b5050565b8061082d6113d6565b6001600160a01b031661083f8261146a565b6001600160a01b03161461088157806108566113d6565b604051637ea58b1160e01b815260048101929092526001600160a01b0316602482015260440161080d565b61088a826114a4565b600082815261012d602052604080822080546001600160a01b031916905561012f549051637921219560e11b81523060048201526001600160a01b038681166024830152604482018690526001606483015260a0608483015260a482019390935291169063f242432a9060c401600060405180830381600087803b15801561091157600080fd5b505af1158015610925573d6000803e3d6000fd5b50505050505050565b600054610100900460ff161580801561094e5750600054600160ff909116105b806109685750303b158015610968575060005460ff166001145b6109cb5760405162461bcd60e51b815260206004820152602e60248201527f496e697469616c697a61626c653a20636f6e747261637420697320616c72656160448201526d191e481a5b9a5d1a585b1a5e995960921b606482015260840161080d565b6000805460ff1916600117905580156109ee576000805461ff0019166101001790555b61012e80546001600160a01b038086166001600160a01b03199283161790925561012f805492851692909116919091179055610a286114de565b610a3061150c565b610a3861150c565b610a40611533565b610a4861156a565b8015610778576000805461ff0019169055604051600181527f7f26b83ff96e1f2b6a682f133852f6798a09c465da95921460cefb38474024989060200160405180910390a1505050565b610a9a611345565b60005b815181101561082057610ac8828281518110610abb57610abb612573565b60200260200101516113be565b80610ad28161259f565b915050610a9d565b610ae561054b6113d6565b610b015760405162461bcd60e51b815260040161080d906125b8565b6001600160a01b038116610b575760405162461bcd60e51b815260206004820152601d60248201527f4d696e746572526f6c653a2052454345495645525f49535f454d505459000000604482015260640161080d565b610b60816115a3565b610b68610d17565b6040516001600160a01b038216903480156108fc02916000818181858888f19350505050158015610820573d6000803e3d6000fd5b60006106818261146a565b604080517f1ee5d87a048b728f67073f282321992c260e5be4fa651d08665c5b4ee7a838156020820152908101829052600090610bfb906060016040516020818303038152906040528051906020012090565b5492915050565b610c0a611345565b610c1460006115bb565b565b610c1e611345565b60005b815181101561082057610c4c828281518110610c3f57610c3f612573565b60200260200101516115a3565b80610c568161259f565b915050610c21565b610c6961054b6113d6565b610c855760405162461bcd60e51b815260040161080d906125b8565b6001600160a01b038116610b605760405162461bcd60e51b815260206004820152601d60248201527f4d696e746572526f6c653a2052454345495645525f49535f454d505459000000604482015260640161080d565b600091825260fb602090815260408084206001600160a01b0393909316845291905290205460ff1690565b610d0e611345565b61078e816115a3565b610c14600080516020612a628339815191526102f06113d6565b61012e546000906001600160a01b03166365a69dcf8c84610d525730610d54565b8c5b8c8c8c8c8c8c8c6040518a63ffffffff1660e01b8152600401610d7f999897969594939291906126a7565b602060405180830381865afa158015610d9c573d6000803e3d6000fd5b505050506040513d601f19601f82011682018060405250810190610dc09190612717565b9b9a5050505050505050505050565b6000610e1a610ddd85612730565b3085858080601f01602080910402602001604051908101604052809392919081815260200183838082843760009201919091525061160d92505050565b949350505050565b6000610681600080516020612a6283398151915283610cdb565b61012f546000906001600160a01b0316610e546113d6565b6001600160a01b031603610e70575063bc197c8160e01b610e89565b6040516344e7d94960e01b815260040160405180910390fd5b95945050505050565b610e9d61054b6113d6565b610eb95760405162461bcd60e51b815260040161080d906125b8565b600260335403610f0b5760405162461bcd60e51b815260206004820152601f60248201527f5265656e7472616e637947756172643a207265656e7472616e742063616c6c00604482015260640161080d565b60026033819055506000610f548c8c8080601f01602080910402602001604051908101604052809392919081815260200183838082843760009201919091525061175692505050565b9050610f5f816114a4565b600061012e60009054906101000a90046001600160a01b03166001600160a01b03166383e7f6ff8e8e8d6040518463ffffffff1660e01b8152600401610fa7939291906127ba565b6040805180830381865afa158015610fc3573d6000803e3d6000fd5b505050506040513d601f19601f82011682018060405250810190610fe791906127de565b60208101518151919250610ffa9161282c565b47101561101a5760405163050205f960e01b815260040160405180910390fd5b61012e54602082015182516001600160a01b03909216916374694a2b916110409161282c565b8f8f8761104d573061104f565b8f5b8f8f8f8f8f8f8f6040518c63ffffffff1660e01b815260040161107b9a9998979695949392919061283f565b6000604051808303818588803b15801561109457600080fd5b505af11580156110a8573d6000803e3d6000fd5b50505050508261110957600082815261012d602052604080822080546001600160a01b0319166001600160a01b038f169081179091559051909184917f45aa97e368889fb3527c1db60c59c2ae91e82f21778613449e46d4208c1c4b129190a35b505060016033555050505050505050505050565b600082815260fb6020526040902060010154611138816112ad565b61077883836113e5565b61012f546000906001600160a01b031661115a6113d6565b6001600160a01b031603610e70575063f23a6e6160e01b9695505050505050565b611183611345565b61118c816117db565b61078e600082611851565b60006001600160e01b03198216637965db0b60e01b148061068157506301ffc9a760e01b6001600160e01b0319831614610681565b60606111d78561185b565b600080876001600160a01b0316866111f18b8a89896118c1565b6040516111fe91906128b1565b60006040518083038160008787f1925050503d806000811461123c576040519150601f19603f3d011682016040523d82523d6000602084013e611241565b606091505b509092509050611252603f876128cd565b5a11611260576112606128ef565b6112a082826040518060400160405280601a81526020017f42617365466f727761726465723a2043414c4c5f4641494c45440000000000008152506118f1565b9998505050505050505050565b61078e816112b96113d6565b61192a565b6112c88282610cdb565b61082057600082815260fb602090815260408083206001600160a01b03851684529091529020805460ff191660011790556113016113d6565b6001600160a01b0316816001600160a01b0316837f2f8788117e7eff1d82e926ec794901d17c78024a50270940304540a733656f0d60405160405180910390a45050565b61134d6113d6565b6001600160a01b03166113686097546001600160a01b031690565b6001600160a01b031614610c145760405162461bcd60e51b815260206004820181905260248201527f4f776e61626c653a2063616c6c6572206973206e6f7420746865206f776e6572604482015260640161080d565b61078e600080516020612a628339815191528261111d565b60006113e061198e565b905090565b6113ef8282610cdb565b1561082057600082815260fb602090815260408083206001600160a01b03851684529091529020805460ff191690556114266113d6565b6001600160a01b0316816001600160a01b0316837ff6391f5c32d9c69d2a47ea670b442974b53935d1edc7fd64eb21e047a839171b60405160405180910390a45050565b600081815261012d60205260408120546001600160a01b0316806106815760405163124bad6360e31b81526004810184905260240161080d565b3033036114d5576114b36119ac565b811461078e57604051635637b6af60e11b81526004810182905260240161080d565b61078e8161185b565b600054610100900460ff166115055760405162461bcd60e51b815260040161080d90612905565b6001603355565b600054610100900460ff16610c145760405162461bcd60e51b815260040161080d90612905565b600054610100900460ff1661155a5760405162461bcd60e51b815260040161080d90612905565b610c146115656113d6565b6115bb565b600054610100900460ff166115915760405162461bcd60e51b815260040161080d90612905565b610c14600061159e6113d6565b611851565b61078e600080516020612a6283398151915282611851565b609780546001600160a01b038381166001600160a01b0319831681179093556040519116919082907f8be0079c531659141344cd1fd0a4f28419497f9722a3daafe3b4186f6b6457e090600090a35050565b6040838101519051636ccbae5f60e01b8152600481019190915260009081903090636ccbae5f90602401602060405180830381865afa158015611654573d6000803e3d6000fd5b505050506040513d601f19601f820116820180604052508101906116789190612717565b905060006117268660600151805190602001208688602001516040516020016116c69392919092835260609190911b6bffffffffffffffffffffffff19166020830152603482015260540190565b60408051601f1981840301815282825280516020918201207f19457468657265756d205369676e6564204d6573736167653a0a33320000000084830152603c8085019190915282518085039091018152605c909301909152815191012090565b905081866020015114801561174c5750855161174c906001600160a01b031682866119bf565b9695505050505050565b60007f93cdeb708b7545dc668eb9280176169d1c33cfd8ed6f04690a0bcc88a93fc4ae60001b8260405160200161178d91906128b1565b604051602081830303815290604052805190602001206040516020016117bd929190918252602082015260400190565b60408051601f19818403018152919052805160209091012092915050565b6117e3611345565b6001600160a01b0381166118485760405162461bcd60e51b815260206004820152602660248201527f4f776e61626c653a206e6577206f776e657220697320746865207a65726f206160448201526564647265737360d01b606482015260840161080d565b61078e816115bb565b61082082826112be565b604080517f1ee5d87a048b728f67073f282321992c260e5be4fa651d08665c5b4ee7a8381560208201529081018290526000906060016040516020818303038152906040528051906020012090506118b08190565b546118bc90600161282c565b905550565b60608285856040516020016118d893929190612950565b6040516020818303038152906040529050949350505050565b6060831561190057508161074c565b8251156119105782518084602001fd5b8160405162461bcd60e51b815260040161080d9190611ef9565b6119348282610cdb565b6108205761194c816001600160a01b03166014611b01565b611957836020611b01565b60405160200161196892919061298f565b60408051601f198184030181529082905262461bcd60e51b825261080d91600401611ef9565b60003033036119a4575060331936013560601c90565b503390565b90565b60003033036119a95750601f1936013590565b60008060006119ce8585611c9c565b909250905060008160048111156119e7576119e7612a04565b148015611a055750856001600160a01b0316826001600160a01b0316145b15611a155760019250505061074c565b600080876001600160a01b0316631626ba7e60e01b8888604051602401611a3d929190612a1a565b60408051601f198184030181529181526020820180516001600160e01b03166001600160e01b0319909416939093179092529051611a7b91906128b1565b600060405180830381855afa9150503d8060008114611ab6576040519150601f19603f3d011682016040523d82523d6000602084013e611abb565b606091505b5091509150818015611ace575080516020145b8015611af557508051630b135d3f60e11b90611af39083016020908101908401612717565b145b98975050505050505050565b60606000611b10836002612a33565b611b1b90600261282c565b6001600160401b03811115611b3257611b32611ff1565b6040519080825280601f01601f191660200182016040528015611b5c576020820181803683370190505b509050600360fc1b81600081518110611b7757611b77612573565b60200101906001600160f81b031916908160001a905350600f60fb1b81600181518110611ba657611ba6612573565b60200101906001600160f81b031916908160001a9053506000611bca846002612a33565b611bd590600161282c565b90505b6001811115611c4d576f181899199a1a9b1b9c1cb0b131b232b360811b85600f1660108110611c0957611c09612573565b1a60f81b828281518110611c1f57611c1f612573565b60200101906001600160f81b031916908160001a90535060049490941c93611c4681612a4a565b9050611bd8565b50831561074c5760405162461bcd60e51b815260206004820181905260248201527f537472696e67733a20686578206c656e67746820696e73756666696369656e74604482015260640161080d565b6000808251604103611cd25760208301516040840151606085015160001a611cc687828585611ce1565b94509450505050611cda565b506000905060025b9250929050565b6000807f7fffffffffffffffffffffffffffffff5d576e7357a4501ddfe92f46681b20a0831115611d185750600090506003611dc5565b8460ff16601b14158015611d3057508460ff16601c14155b15611d415750600090506004611dc5565b6040805160008082526020820180845289905260ff881692820192909252606081018690526080810185905260019060a0016020604051602081039080840390855afa158015611d95573d6000803e3d6000fd5b5050604051601f1901519150506001600160a01b038116611dbe57600060019250925050611dc5565b9150600090505b94509492505050565b600060208284031215611de057600080fd5b81356001600160e01b03198116811461074c57600080fd5b60008083601f840112611e0a57600080fd5b5081356001600160401b03811115611e2157600080fd5b602083019150836020828501011115611cda57600080fd5b600080600060408486031215611e4e57600080fd5b83356001600160401b0380821115611e6557600080fd5b9085019060808288031215611e7957600080fd5b90935060208501359080821115611e8f57600080fd5b50611e9c86828701611df8565b9497909650939450505050565b60005b83811015611ec4578181015183820152602001611eac565b50506000910152565b60008151808452611ee5816020860160208601611ea9565b601f01601f19169290920160200192915050565b60208152600061074c6020830184611ecd565b600060208284031215611f1e57600080fd5b5035919050565b6001600160a01b038116811461078e57600080fd5b8035611f4581611f25565b919050565b60008060408385031215611f5d57600080fd5b823591506020830135611f6f81611f25565b809150509250929050565b600060208284031215611f8c57600080fd5b813561074c81611f25565b60008060408385031215611faa57600080fd5b8235611fb581611f25565b946020939093013593505050565b60008060408385031215611fd657600080fd5b8235611fe181611f25565b91506020830135611f6f81611f25565b634e487b7160e01b600052604160045260246000fd5b604051601f8201601f191681016001600160401b038111828210171561202f5761202f611ff1565b604052919050565b60006001600160401b0382111561205057612050611ff1565b5060051b60200190565b6000602080838503121561206d57600080fd5b82356001600160401b0381111561208357600080fd5b8301601f8101851361209457600080fd5b80356120a76120a282612037565b612007565b81815260059190911b820183019083810190878311156120c657600080fd5b928401925b828410156120ed5783356120de81611f25565b825292840192908401906120cb565b979650505050505050565b60006001600160401b0383111561211157612111611ff1565b612124601f8401601f1916602001612007565b905082815283838301111561213857600080fd5b828260208301376000602084830101529392505050565b60008083601f84011261216157600080fd5b5081356001600160401b0381111561217857600080fd5b6020830191508360208260051b8501011115611cda57600080fd5b80358015158114611f4557600080fd5b803561ffff81168114611f4557600080fd5b6000806000806000806000806000806101208b8d0312156121d557600080fd5b8a356001600160401b03808211156121ec57600080fd5b818d0191508d601f83011261220057600080fd5b61220f8e8335602085016120f8565b9b5061221d60208e01611f3a565b9a5060408d0135995060608d0135985061223960808e01611f3a565b975060a08d013591508082111561224f57600080fd5b5061225c8d828e0161214f565b909650945061226f905060c08c01612193565b925061227d60e08c016121a3565b915061228c6101008c01612193565b90509295989b9194979a5092959850565b600082601f8301126122ae57600080fd5b813560206122be6120a283612037565b82815260059290921b840181019181810190868411156122dd57600080fd5b8286015b848110156122f857803583529183019183016122e1565b509695505050505050565b600082601f83011261231457600080fd5b61074c838335602085016120f8565b600080600080600060a0868803121561233b57600080fd5b853561234681611f25565b9450602086013561235681611f25565b935060408601356001600160401b038082111561237257600080fd5b61237e89838a0161229d565b9450606088013591508082111561239457600080fd5b6123a089838a0161229d565b935060808801359150808211156123b657600080fd5b506123c388828901612303565b9150509295509295909350565b60008060008060008060008060008060006101208c8e0312156123f257600080fd5b6001600160401b03808d35111561240857600080fd5b6124158e8e358f01611df8565b909c509a5061242760208e0135611f25565b60208d0135995060408d0135985060608d0135975061244960808e0135611f25565b60808d013596508060a08e0135111561246157600080fd5b506124728d60a08e01358e0161214f565b909550935061248360c08d01612193565b925061249160e08d016121a3565b91506124a06101008d01612193565b90509295989b509295989b9093969950565b60008060008060008060a087890312156124cb57600080fd5b86356124d681611f25565b955060208701356124e681611f25565b9450604087013593506060870135925060808701356001600160401b0381111561250f57600080fd5b61251b89828a01611df8565b979a9699509497509295939492505050565b6000808335601e1984360301811261254457600080fd5b8301803591506001600160401b0382111561255e57600080fd5b602001915036819003821315611cda57600080fd5b634e487b7160e01b600052603260045260246000fd5b634e487b7160e01b600052601160045260246000fd5b6000600182016125b1576125b1612589565b5060010190565b6020808252818101527f4d696e746572526f6c653a2043414c4c45525f49535f4e4f545f4d494e544552604082015260600190565b81835281816020850137506000828201602090810191909152601f909101601f19169091010190565b81835260006020808501808196508560051b810191508460005b8781101561269a5782840389528135601e1988360301811261265157600080fd5b870185810190356001600160401b0381111561266c57600080fd5b80360382131561267b57600080fd5b6126868682846125ed565b9a87019a9550505090840190600101612630565b5091979650505050505050565b60006101008083526126bb8184018d611ecd565b6001600160a01b038c81166020860152604085018c9052606085018b90528916608085015283810360a085015290506126f5818789612616565b94151560c0840152505061ffff9190911660e090910152979650505050505050565b60006020828403121561272957600080fd5b5051919050565b60006080823603121561274257600080fd5b604051608081016001600160401b03828210818311171561276557612765611ff1565b816040528435915061277682611f25565b818352602085013560208401526040850135604084015260608501359150808211156127a157600080fd5b506127ae36828601612303565b60608301525092915050565b6040815260006127ce6040830185876125ed565b9050826020830152949350505050565b6000604082840312156127f057600080fd5b604051604081018181106001600160401b038211171561281257612812611ff1565b604052825181526020928301519281019290925250919050565b8082018082111561068157610681612589565b60006101008083526128548184018d8f6125ed565b6001600160a01b038c81166020860152604085018c9052606085018b90528916608085015283810360a0850152905061288e818789612616565b94151560c0840152505061ffff9190911660e09091015298975050505050505050565b600082516128c3818460208701611ea9565b9190910192915050565b6000826128ea57634e487b7160e01b600052601260045260246000fd5b500490565b634e487b7160e01b600052600160045260246000fd5b6020808252602b908201527f496e697469616c697a61626c653a20636f6e7472616374206973206e6f74206960408201526a6e697469616c697a696e6760a81b606082015260800190565b60008451612962818460208901611ea9565b60609490941b6bffffffffffffffffffffffff191691909301908152601481019190915260340192915050565b7f416363657373436f6e74726f6c3a206163636f756e74200000000000000000008152600083516129c7816017850160208801611ea9565b7001034b99036b4b9b9b4b733903937b6329607d1b60179184019182015283516129f8816028840160208801611ea9565b01602801949350505050565b634e487b7160e01b600052602160045260246000fd5b828152604060208201526000610e1a6040830184611ecd565b808202811582820484141761068157610681612589565b600081612a5957612a59612589565b50600019019056fe9f2df0fed2c77648de5860a4cc508cd0818c85b8b8a1ab4ceeef8d981c8956a6a164736f6c6343000811000a",
  "linkReferences": {},
  "deployedLinkReferences": {}
}