{
  "_format": "hh-sol-artifact-1",
  "contractName": "ENSCustody",
  "sourceName": "contracts/custody/ENSCustody.sol",
  "abi": [
    {
      "inputs": [],
      "stateMutability": "nonpayable",
      "type": "constructor"
    },
    {
      "inputs": [],
      "name": "CustodyNotEnoughBalance",
      "type": "error"
    },
    {
      "inputs": [
        {
          "internalType": "uint256",
          "name": "tokenId",
          "type": "uint256"
        }
      ],
      "name": "InvalidForwardedToken",
      "type": "error"
    },
    {
      "inputs": [
        {
          "internalType": "address",
          "name": "addr",
          "type": "address"
        }
      ],
      "name": "InvalidOwner",
      "type": "error"
    },
    {
      "inputs": [],
      "name": "InvalidSignature",
      "type": "error"
    },
    {
      "inputs": [
        {
          "internalType": "uint256",
          "name": "tokenId",
          "type": "uint256"
        }
      ],
      "name": "InvalidToken",
      "type": "error"
    },
    {
      "inputs": [],
      "name": "OperationProhibited",
      "type": "error"
    },
    {
      "inputs": [
        {
          "internalType": "uint256",
          "name": "tokenId",
          "type": "uint256"
        },
        {
          "internalType": "address",
          "name": "addr",
          "type": "address"
        }
      ],
      "name": "Unauthorised",
      "type": "error"
    },
    {
      "inputs": [
        {
          "internalType": "uint256",
          "name": "tokenId",
          "type": "uint256"
        }
      ],
      "name": "UnknownToken",
      "type": "error"
    },
    {
      "anonymous": false,
      "inputs": [
        {
          "indexed": false,
          "internalType": "uint8",
          "name": "version",
          "type": "uint8"
        }
      ],
      "name": "Initialized",
      "type": "event"
    },
    {
      "anonymous": false,
      "inputs": [
        {
          "indexed": true,
          "internalType": "address",
          "name": "previousOwner",
          "type": "address"
        },
        {
          "indexed": true,
          "internalType": "address",
          "name": "newOwner",
          "type": "address"
        }
      ],
      "name": "OwnershipTransferred",
      "type": "event"
    },
    {
      "anonymous": false,
      "inputs": [
        {
          "indexed": true,
          "internalType": "uint256",
          "name": "tokenId",
          "type": "uint256"
        },
        {
          "indexed": true,
          "internalType": "address",
          "name": "owner",
          "type": "address"
        }
      ],
      "name": "Parked",
      "type": "event"
    },
    {
      "anonymous": false,
      "inputs": [
        {
          "indexed": true,
          "internalType": "bytes32",
          "name": "role",
          "type": "bytes32"
        },
        {
          "indexed": true,
          "internalType": "bytes32",
          "name": "previousAdminRole",
          "type": "bytes32"
        },
        {
          "indexed": true,
          "internalType": "bytes32",
          "name": "newAdminRole",
          "type": "bytes32"
        }
      ],
      "name": "RoleAdminChanged",
      "type": "event"
    },
    {
      "anonymous": false,
      "inputs": [
        {
          "indexed": true,
          "internalType": "bytes32",
          "name": "role",
          "type": "bytes32"
        },
        {
          "indexed": true,
          "internalType": "address",
          "name": "account",
          "type": "address"
        },
        {
          "indexed": true,
          "internalType": "address",
          "name": "sender",
          "type": "address"
        }
      ],
      "name": "RoleGranted",
      "type": "event"
    },
    {
      "anonymous": false,
      "inputs": [
        {
          "indexed": true,
          "internalType": "bytes32",
          "name": "role",
          "type": "bytes32"
        },
        {
          "indexed": true,
          "internalType": "address",
          "name": "account",
          "type": "address"
        },
        {
          "indexed": true,
          "internalType": "address",
          "name": "sender",
          "type": "address"
        }
      ],
      "name": "RoleRevoked",
      "type": "event"
    },
    {
      "inputs": [],
      "name": "DEFAULT_ADMIN_ROLE",
      "outputs": [
        {
          "internalType": "bytes32",
          "name": "",
          "type": "bytes32"
        }
      ],
      "stateMutability": "view",
      "type": "function"
    },
    {
      "inputs": [],
      "name": "MINTER_ROLE",
      "outputs": [
        {
          "internalType": "bytes32",
          "name": "",
          "type": "bytes32"
        }
      ],
      "stateMutability": "view",
      "type": "function"
    },
    {
      "inputs": [],
      "name": "NAME",
      "outputs": [
        {
          "internalType": "string",
          "name": "",
          "type": "string"
        }
      ],
      "stateMutability": "view",
      "type": "function"
    },
    {
      "inputs": [],
      "name": "VERSION",
      "outputs": [
        {
          "internalType": "string",
          "name": "",
          "type": "string"
        }
      ],
      "stateMutability": "view",
      "type": "function"
    },
    {
      "inputs": [
        {
          "internalType": "address",
          "name": "account",
          "type": "address"
        }
      ],
      "name": "addMinter",
      "outputs": [],
      "stateMutability": "nonpayable",
      "type": "function"
    },
    {
      "inputs": [
        {
          "internalType": "address[]",
          "name": "accounts",
          "type": "address[]"
        }
      ],
      "name": "addMinters",
      "outputs": [],
      "stateMutability": "nonpayable",
      "type": "function"
    },
    {
      "inputs": [
        {
          "internalType": "address payable",
          "name": "receiver",
          "type": "address"
        }
      ],
      "name": "closeMinter",
      "outputs": [],
      "stateMutability": "payable",
      "type": "function"
    },
    {
      "inputs": [
        {
          "internalType": "bytes32",
          "name": "commitment",
          "type": "bytes32"
        }
      ],
      "name": "commit",
      "outputs": [],
      "stateMutability": "nonpayable",
      "type": "function"
    },
    {
      "inputs": [
        {
          "components": [
            {
              "internalType": "address",
              "name": "from",
              "type": "address"
            },
            {
              "internalType": "uint256",
              "name": "nonce",
              "type": "uint256"
            },
            {
              "internalType": "uint256",
              "name": "tokenId",
              "type": "uint256"
            },
            {
              "internalType": "bytes",
              "name": "data",
              "type": "bytes"
            }
          ],
          "internalType": "struct IForwarder.ForwardRequest",
          "name": "req",
          "type": "tuple"
        },
        {
          "internalType": "bytes",
          "name": "signature",
          "type": "bytes"
        }
      ],
      "name": "execute",
      "outputs": [
        {
          "internalType": "bytes",
          "name": "",
          "type": "bytes"
        }
      ],
      "stateMutability": "nonpayable",
      "type": "function"
    },
    {
      "inputs": [
        {
          "internalType": "bytes32",
          "name": "role",
          "type": "bytes32"
        }
      ],
      "name": "getRoleAdmin",
      "outputs": [
        {
          "internalType": "bytes32",
          "name": "",
          "type": "bytes32"
        }
      ],
      "stateMutability": "view",
      "type": "function"
    },
    {
      "inputs": [
        {
          "internalType": "bytes32",
          "name": "role",
          "type": "bytes32"
        },
        {
          "internalType": "address",
          "name": "account",
          "type": "address"
        }
      ],
      "name": "grantRole",
      "outputs": [],
      "stateMutability": "nonpayable",
      "type": "function"
    },
    {
      "inputs": [
        {
          "internalType": "bytes32",
          "name": "role",
          "type": "bytes32"
        },
        {
          "internalType": "address",
          "name": "account",
          "type": "address"
        }
      ],
      "name": "hasRole",
      "outputs": [
        {
          "internalType": "bool",
          "name": "",
          "type": "bool"
        }
      ],
      "stateMutability": "view",
      "type": "function"
    },
    {
      "inputs": [
        {
          "internalType": "address",
          "name": "controller",
          "type": "address"
        },
        {
          "internalType": "address",
          "name": "wrapper",
          "type": "address"
        },
        {
          "internalType": "address",
          "name": "registrar",
          "type": "address"
        }
      ],
      "name": "initialize",
      "outputs": [],
      "stateMutability": "nonpayable",
      "type": "function"
    },
    {
      "inputs": [
        {
          "internalType": "address",
          "name": "account",
          "type": "address"
        }
      ],
      "name": "isMinter",
      "outputs": [
        {
          "internalType": "bool",
          "name": "",
          "type": "bool"
        }
      ],
      "stateMutability": "view",
      "type": "function"
    },
    {
      "inputs": [
        {
          "internalType": "address",
          "name": "forwarder",
          "type": "address"
        }
      ],
      "name": "isTrustedForwarder",
      "outputs": [
        {
          "internalType": "bool",
          "name": "",
          "type": "bool"
        }
      ],
      "stateMutability": "view",
      "type": "function"
    },
    {
      "inputs": [
        {
          "internalType": "string",
          "name": "name",
          "type": "string"
        },
        {
          "internalType": "address",
          "name": "owner",
          "type": "address"
        },
        {
          "internalType": "uint256",
          "name": "duration",
          "type": "uint256"
        },
        {
          "internalType": "bytes32",
          "name": "secret",
          "type": "bytes32"
        },
        {
          "internalType": "address",
          "name": "resolver",
          "type": "address"
        },
        {
          "internalType": "bytes[]",
          "name": "data",
          "type": "bytes[]"
        },
        {
          "internalType": "bool",
          "name": "reverseRecord",
          "type": "bool"
        },
        {
          "internalType": "uint16",
          "name": "ownerControlledFuses",
          "type": "uint16"
        },
        {
          "internalType": "bool",
          "name": "selfCustody",
          "type": "bool"
        }
      ],
      "name": "makeCommitment",
      "outputs": [
        {
          "internalType": "bytes32",
          "name": "",
          "type": "bytes32"
        }
      ],
      "stateMutability": "view",
      "type": "function"
    },
    {
      "inputs": [
        {
          "internalType": "uint256",
          "name": "tokenId",
          "type": "uint256"
        }
      ],
      "name": "nonceOf",
      "outputs": [
        {
          "internalType": "uint256",
          "name": "",
          "type": "uint256"
        }
      ],
      "stateMutability": "view",
      "type": "function"
    },
    {
      "inputs": [
        {
          "internalType": "address",
          "name": "",
          "type": "address"
        },
        {
          "internalType": "address",
          "name": "",
          "type": "address"
        },
        {
          "internalType": "uint256[]",
          "name": "tokenIds",
          "type": "uint256[]"
        },
        {
          "internalType": "uint256[]",
          "name": "",
          "type": "uint256[]"
        },
        {
          "internalType": "bytes",
          "name": "data",
          "type": "bytes"
        }
      ],
      "name": "onERC1155BatchReceived",
      "outputs": [
        {
          "internalType": "bytes4",
          "name": "",
          "type": "bytes4"
        }
      ],
      "stateMutability": "nonpayable",
      "type": "function"
    },
    {
      "inputs": [
        {
          "internalType": "address",
          "name": "",
          "type": "address"
        },
        {
          "internalType": "address",
          "name": "from",
          "type": "address"
        },
        {
          "internalType": "uint256",
          "name": "tokenId",
          "type": "uint256"
        },
        {
          "internalType": "uint256",
          "name": "",
          "type": "uint256"
        },
        {
          "internalType": "bytes",
          "name": "data",
          "type": "bytes"
        }
      ],
      "name": "onERC1155Received",
      "outputs": [
        {
          "internalType": "bytes4",
          "name": "",
          "type": "bytes4"
        }
      ],
      "stateMutability": "nonpayable",
      "type": "function"
    },
    {
      "inputs": [
        {
          "internalType": "address",
          "name": "",
          "type": "address"
        },
        {
          "internalType": "address",
          "name": "",
          "type": "address"
        },
        {
          "internalType": "uint256",
          "name": "tokenId",
          "type": "uint256"
        },
        {
          "internalType": "bytes",
          "name": "data",
          "type": "bytes"
        }
      ],
      "name": "onERC721Received",
      "outputs": [
        {
          "internalType": "bytes4",
          "name": "",
          "type": "bytes4"
        }
      ],
      "stateMutability": "nonpayable",
      "type": "function"
    },
    {
      "inputs": [],
      "name": "owner",
      "outputs": [
        {
          "internalType": "address",
          "name": "",
          "type": "address"
        }
      ],
      "stateMutability": "view",
      "type": "function"
    },
    {
      "inputs": [
        {
          "internalType": "uint256",
          "name": "tokenId",
          "type": "uint256"
        }
      ],
      "name": "ownerOf",
      "outputs": [
        {
          "internalType": "address",
          "name": "",
          "type": "address"
        }
      ],
      "stateMutability": "view",
      "type": "function"
    },
    {
      "inputs": [
        {
          "internalType": "string",
          "name": "name",
          "type": "string"
        },
        {
          "internalType": "address",
          "name": "owner",
          "type": "address"
        },
        {
          "internalType": "uint256",
          "name": "duration",
          "type": "uint256"
        },
        {
          "internalType": "bytes32",
          "name": "secret",
          "type": "bytes32"
        },
        {
          "internalType": "address",
          "name": "resolver",
          "type": "address"
        },
        {
          "internalType": "bytes[]",
          "name": "data",
          "type": "bytes[]"
        },
        {
          "internalType": "bool",
          "name": "reverseRecord",
          "type": "bool"
        },
        {
          "internalType": "uint16",
          "name": "ownerControlledFuses",
          "type": "uint16"
        },
        {
          "internalType": "bool",
          "name": "selfCustody",
          "type": "bool"
        }
      ],
      "name": "register",
      "outputs": [],
      "stateMutability": "nonpayable",
      "type": "function"
    },
    {
      "inputs": [
        {
          "internalType": "address",
          "name": "account",
          "type": "address"
        }
      ],
      "name": "removeMinter",
      "outputs": [],
      "stateMutability": "nonpayable",
      "type": "function"
    },
    {
      "inputs": [
        {
          "internalType": "address[]",
          "name": "accounts",
          "type": "address[]"
        }
      ],
      "name": "removeMinters",
      "outputs": [],
      "stateMutability": "nonpayable",
      "type": "function"
    },
    {
      "inputs": [
        {
          "internalType": "string",
          "name": "name",
          "type": "string"
        },
        {
          "internalType": "uint256",
          "name": "duration",
          "type": "uint256"
        }
      ],
      "name": "renew",
      "outputs": [],
      "stateMutability": "nonpayable",
      "type": "function"
    },
    {
      "inputs": [],
      "name": "renounceMinter",
      "outputs": [],
      "stateMutability": "nonpayable",
      "type": "function"
    },
    {
      "inputs": [],
      "name": "renounceOwnership",
      "outputs": [],
      "stateMutability": "nonpayable",
      "type": "function"
    },
    {
      "inputs": [
        {
          "internalType": "bytes32",
          "name": "role",
          "type": "bytes32"
        },
        {
          "internalType": "address",
          "name": "account",
          "type": "address"
        }
      ],
      "name": "renounceRole",
      "outputs": [],
      "stateMutability": "nonpayable",
      "type": "function"
    },
    {
      "inputs": [
        {
          "internalType": "string",
          "name": "name",
          "type": "string"
        },
        {
          "internalType": "uint256",
          "name": "duration",
          "type": "uint256"
        }
      ],
      "name": "rentPrice",
      "outputs": [
        {
          "internalType": "uint256",
          "name": "",
          "type": "uint256"
        }
      ],
      "stateMutability": "view",
      "type": "function"
    },
    {
      "inputs": [
        {
          "internalType": "bytes32",
          "name": "role",
          "type": "bytes32"
        },
        {
          "internalType": "address",
          "name": "account",
          "type": "address"
        }
      ],
      "name": "revokeRole",
      "outputs": [],
      "stateMutability": "nonpayable",
      "type": "function"
    },
    {
      "inputs": [
        {
          "internalType": "address payable",
          "name": "receiver",
          "type": "address"
        }
      ],
      "name": "rotateMinter",
      "outputs": [],
      "stateMutability": "payable",
      "type": "function"
    },
    {
      "inputs": [
        {
          "internalType": "address",
          "name": "to",
          "type": "address"
        },
        {
          "internalType": "uint256",
          "name": "tokenId",
          "type": "uint256"
        }
      ],
      "name": "safeTransfer",
      "outputs": [],
      "stateMutability": "nonpayable",
      "type": "function"
    },
    {
      "inputs": [
        {
          "internalType": "address",
          "name": "baseRegistrar",
          "type": "address"
        }
      ],
      "name": "setBaseRegistrar",
      "outputs": [],
      "stateMutability": "nonpayable",
      "type": "function"
    },
    {
      "inputs": [
        {
          "internalType": "bytes4",
          "name": "interfaceId",
          "type": "bytes4"
        }
      ],
      "name": "supportsInterface",
      "outputs": [
        {
          "internalType": "bool",
          "name": "",
          "type": "bool"
        }
      ],
      "stateMutability": "view",
      "type": "function"
    },
    {
      "inputs": [
        {
          "internalType": "address",
          "name": "newOwner",
          "type": "address"
        }
      ],
      "name": "transferOwnership",
      "outputs": [],
      "stateMutability": "nonpayable",
      "type": "function"
    },
    {
      "inputs": [
        {
          "components": [
            {
              "internalType": "address",
              "name": "from",
              "type": "address"
            },
            {
              "internalType": "uint256",
              "name": "nonce",
              "type": "uint256"
            },
            {
              "internalType": "uint256",
              "name": "tokenId",
              "type": "uint256"
            },
            {
              "internalType": "bytes",
              "name": "data",
              "type": "bytes"
            }
          ],
          "internalType": "struct IForwarder.ForwardRequest",
          "name": "req",
          "type": "tuple"
        },
        {
          "internalType": "bytes",
          "name": "signature",
          "type": "bytes"
        }
      ],
      "name": "verify",
      "outputs": [
        {
          "internalType": "bool",
          "name": "",
          "type": "bool"
        }
      ],
      "stateMutability": "view",
      "type": "function"
    },
    {
      "stateMutability": "payable",
      "type": "receive"
    }
  ],
  "bytecode": "0x608060405234801562000010575f80fd5b506200001b62000021565b620000e0565b5f54610100900460ff16156200008d5760405162461bcd60e51b815260206004820152602760248201527f496e697469616c697a61626c653a20636f6e747261637420697320696e697469604482015266616c697a696e6760c81b606482015260840160405180910390fd5b5f5460ff9081161015620000de575f805460ff191660ff9081179091556040519081527f7f26b83ff96e1f2b6a682f133852f6798a09c465da95921460cefb38474024989060200160405180910390a15b565b6132cb80620000ee5f395ff3fe608060405260043610610215575f3560e01c80638da5cb5b1161011e578063acf1a841116100a8578063d547741f1161006d578063d547741f14610657578063f14fcbc814610676578063f23a6e6114610695578063f2fde38b146106b4578063ffa1ad74146106d3575f80fd5b8063acf1a841146105bb578063bc197c81146105da578063c0c53b8b146105f9578063cf01585314610618578063d539139314610637575f80fd5b8063a0e3aef1116100ee578063a0e3aef114610515578063a217fddf14610534578063a3f4df7e14610547578063a42474001461057d578063aa271e1a1461059c575f80fd5b80638da5cb5b146104a657806391d14854146104c3578063983b2d56146104e25780639865027514610501575f80fd5b80635fc1964f1161019f5780636ccbae5f1161016f5780636ccbae5f14610422578063715018a61461044157806371e2a6571461045557806381c81d351461047457806383e7f6ff14610487575f80fd5b80635fc1964f1461039a578063634486da146103b95780636352211e146103cc5780636a8be89e14610403575f80fd5b80632f2ff15d116101e55780632f2ff15d146102f45780633092afd51461031557806336568abe14610334578063423f6cef14610353578063572b6c0514610372575f80fd5b806301ffc9a714610220578063150b7a02146102545780631bf7e13e1461028c578063248a9ca3146102b8575f80fd5b3661021c57005b5f80fd5b34801561022b575f80fd5b5061023f61023a366004612514565b610703565b60405190151581526020015b60405180910390f35b34801561025f575f80fd5b5061027361026e36600461258c565b610748565b6040516001600160e01b0319909116815260200161024b565b348015610297575f80fd5b506102ab6102a63660046125f9565b610891565b60405161024b91906126b0565b3480156102c3575f80fd5b506102e66102d23660046126c2565b5f90815260fb602052604090206001015490565b60405190815260200161024b565b3480156102ff575f80fd5b5061031361030e3660046126d9565b61095a565b005b348015610320575f80fd5b5061031361032f366004612707565b610983565b34801561033f575f80fd5b5061031361034e3660046126d9565b610997565b34801561035e575f80fd5b5061031361036d366004612722565b610a2a565b34801561037d575f80fd5b5061023f61038c366004612707565b6001600160a01b0316301490565b3480156103a5575f80fd5b506103136103b4366004612790565b610b92565b6103136103c7366004612707565b610bcf565b3480156103d7575f80fd5b506103eb6103e63660046126c2565b610c8f565b6040516001600160a01b03909116815260200161024b565b34801561040e575f80fd5b5061031361041d366004612707565b610c99565b34801561042d575f80fd5b506102e661043c3660046126c2565b610ce2565b34801561044c575f80fd5b50610313610d27565b348015610460575f80fd5b5061031361046f366004612790565b610d3a565b610313610482366004612707565b610d77565b348015610492575f80fd5b506102e66104a1366004612830565b610df4565b3480156104b1575f80fd5b506097546001600160a01b03166103eb565b3480156104ce575f80fd5b5061023f6104dd3660046126d9565b610e93565b3480156104ed575f80fd5b506103136104fc366004612707565b610ebd565b34801561050c575f80fd5b50610313610ece565b348015610520575f80fd5b506102e661052f366004612949565b610ee7565b34801561053f575f80fd5b506102e65f81565b348015610552575f80fd5b506102ab6040518060400160405280600b81526020016a454e5320437573746f647960a81b81525081565b348015610588575f80fd5b5061023f6105973660046125f9565b610f8f565b3480156105a7575f80fd5b5061023f6105b6366004612707565b610fe0565b3480156105c6575f80fd5b506103136105d5366004612830565b610ff8565b3480156105e5575f80fd5b506102736105f4366004612a1a565b6111a8565b348015610604575f80fd5b50610313610613366004612ad0565b611253565b348015610623575f80fd5b50610313610632366004612b18565b6113f5565b348015610642575f80fd5b506102e65f8051602061327f83398151915281565b348015610662575f80fd5b506103136106713660046126d9565b611500565b348015610681575f80fd5b506103136106903660046126c2565b611524565b3480156106a0575f80fd5b506102736106af366004612bf1565b611591565b3480156106bf575f80fd5b506103136106ce366004612707565b61161f565b3480156106de575f80fd5b506102ab60405180604001604052806005815260200164302e312e3360d81b81525081565b5f6001600160e01b03198216630a85bd0160e11b148061073357506001600160e01b03198216630271189760e51b145b8061074257506107428261163a565b92915050565b7ff851d5f4fccb32d2a48561b7acc01b5d4d46b7e138d49f887026f203b08c5004545f906001600160a01b03168061077e61166e565b6001600160a01b03160361086f575f808061079b86880188612c67565b9250925092506107aa8361167c565b6001600160a01b03841663b88d4fde305f8051602061329f833981519152546040516001600160a01b03909116908c906107ee90879030905f908b90602001612cc4565b6040516020818303038152906040526040518563ffffffff1660e01b815260040161081c9493929190612d03565b5f604051808303815f87803b158015610833575f80fd5b505af1158015610845573d5f803e3d5ffd5b5050505061085b610855826116ae565b84611731565b50630a85bd0160e11b935061088892505050565b6040516344e7d94960e01b815260040160405180910390fd5b95945050505050565b60605f5a90506108a2858585610f8f565b6108bf57604051638baa579f60e01b815260040160405180910390fd5b61094f6108cf6020870187612707565b306040880135846108e360608b018b612d35565b8080601f0160208091040260200160405190810160405280939291908181526020018383808284375f9201919091525050604080516020601f8e018190048102820181019092528c815292508c91508b90819084018382808284375f920191909152506117bb92505050565b9150505b9392505050565b5f82815260fb602052604090206001015461097481611897565b61097e83836118a8565b505050565b61098b61192e565b610994816119a7565b50565b61099f61166e565b6001600160a01b0316816001600160a01b031614610a1c5760405162461bcd60e51b815260206004820152602f60248201527f416363657373436f6e74726f6c3a2063616e206f6e6c792072656e6f756e636560448201526e103937b632b9903337b91039b2b63360891b60648201526084015b60405180910390fd5b610a2682826119be565b5050565b80610a3361166e565b6001600160a01b0316610a4582611a42565b6001600160a01b031614610a875780610a5c61166e565b604051637ea58b1160e01b815260048101929092526001600160a01b03166024820152604401610a13565b610a9082611b54565b604080517f0a8885dd093a12d378a27df09bde33e3caca641a3d6970e06805fde8e847cb4660208201529081018390525f90610ae3906060015b6040516020818303038152906040528051906020012090565b80546001600160a01b0319166001600160a01b03929092169190911790555f5f8051602061329f83398151915254604051637921219560e11b81523060048201526001600160a01b038681166024830152604482018690526001606483015260a060848301525f60a48301529091169150819063f242432a9060c4015f604051808303815f87803b158015610b76575f80fd5b505af1158015610b88573d5f803e3d5ffd5b5050505050505050565b610b9a61192e565b5f5b8151811015610a2657610bc7828281518110610bba57610bba612d77565b60200260200101516119a7565b600101610b9c565b610bda6105b661166e565b610bf65760405162461bcd60e51b8152600401610a1390612d8b565b6001600160a01b038116610c4c5760405162461bcd60e51b815260206004820152601d60248201527f4d696e746572526f6c653a2052454345495645525f49535f454d5054590000006044820152606401610a13565b610c5581611b6d565b610c5d610ece565b6040516001600160a01b038216903480156108fc02915f818181858888f19350505050158015610a26573d5f803e3d5ffd5b5f61074282611a42565b610ca161192e565b7ff851d5f4fccb32d2a48561b7acc01b5d4d46b7e138d49f887026f203b08c500480546001600160a01b0319166001600160a01b0392909216919091179055565b604080517f1ee5d87a048b728f67073f282321992c260e5be4fa651d08665c5b4ee7a8381560208201529081018290525f90610d2090606001610aca565b5492915050565b610d2f61192e565b610d385f611b84565b565b610d4261192e565b5f5b8151811015610a2657610d6f828281518110610d6257610d62612d77565b6020026020010151611b6d565b600101610d44565b610d826105b661166e565b610d9e5760405162461bcd60e51b8152600401610a1390612d8b565b6001600160a01b038116610c555760405162461bcd60e51b815260206004820152601d60248201527f4d696e746572526f6c653a2052454345495645525f49535f454d5054590000006044820152606401610a13565b5f8051602061325f833981519152546040516383e7f6ff60e01b81525f916001600160a01b031690829082906383e7f6ff90610e3890899089908990600401612de8565b6040805180830381865afa158015610e52573d5f803e3d5ffd5b505050506040513d601f19601f82011682018060405250810190610e769190612e0b565b60208101518151919250610e8991612e6b565b9695505050505050565b5f91825260fb602090815260408084206001600160a01b0393909316845291905290205460ff1690565b610ec561192e565b61099481611b6d565b610d385f8051602061327f83398151915261034e61166e565b5f8051602061325f833981519152545f906001600160a01b0316806365a69dcf8d85610f135730610f15565b8d5b8d8d8d8d8d8d8d6040518a63ffffffff1660e01b8152600401610f4099989796959493929190612f0f565b602060405180830381865afa158015610f5b573d5f803e3d5ffd5b505050506040513d601f19601f82011682018060405250810190610f7f9190612f7e565b9c9b505050505050505050505050565b5f610fd8610f9c85612f95565b3085858080601f0160208091040260200160405190810160405280939291908181526020018383808284375f92019190915250611bd592505050565b949350505050565b5f6107425f8051602061327f83398151915283610e93565b6110036105b661166e565b61101f5760405162461bcd60e51b8152600401610a1390612d8b565b6002603354036110715760405162461bcd60e51b815260206004820152601f60248201527f5265656e7472616e637947756172643a207265656e7472616e742063616c6c006044820152606401610a13565b60026033555f8051602061325f833981519152546040516383e7f6ff60e01b81526001600160a01b03909116905f9082906383e7f6ff906110ba90889088908890600401612de8565b6040805180830381865afa1580156110d4573d5f803e3d5ffd5b505050506040513d601f19601f820116820180604052508101906110f89190612e0b565b6020810151815191925061110b91612e6b565b47101561112b5760405163050205f960e01b815260040160405180910390fd5b816001600160a01b031663acf1a8418260200151835f015161114d9190612e6b565b8787876040518563ffffffff1660e01b815260040161116e93929190612de8565b5f604051808303818588803b158015611185575f80fd5b505af1158015611197573d5f803e3d5ffd5b505060016033555050505050505050565b5f5f8051602061329f833981519152546001600160a01b03166111c961166e565b6001600160a01b0316146111f0576040516344e7d94960e01b815260040160405180910390fd5b5f6111fd83850185612707565b90506112088161167c565b5f5b8781101561123c5761123489898381811061122757611227612d77565b9050602002013583611731565b60010161120a565b5063bc197c8160e01b9a9950505050505050505050565b5f54610100900460ff161580801561127157505f54600160ff909116105b8061128a5750303b15801561128a57505f5460ff166001145b6112ed5760405162461bcd60e51b815260206004820152602e60248201527f496e697469616c697a61626c653a20636f6e747261637420697320616c72656160448201526d191e481a5b9a5d1a585b1a5e995960921b6064820152608401610a13565b5f805460ff19166001179055801561130e575f805461ff0019166101001790555b5f8051602061325f83398151915280546001600160a01b038087166001600160a01b0319928316179092555f8051602061329f83398151915280548684169083161790557ff851d5f4fccb32d2a48561b7acc01b5d4d46b7e138d49f887026f203b08c500480549285169290911691909117905561138a611d10565b611392611d3d565b61139a611d3d565b6113a2611d63565b6113aa611d99565b80156113ef575f805461ff0019169055604051600181527f7f26b83ff96e1f2b6a682f133852f6798a09c465da95921460cefb38474024989060200160405180910390a15b50505050565b6114006105b661166e565b61141c5760405162461bcd60e51b8152600401610a1390612d8b565b60026033540361146e5760405162461bcd60e51b815260206004820152601f60248201527f5265656e7472616e637947756172643a207265656e7472616e742063616c6c006044820152606401610a13565b60026033819055505f6114b58c8c8080601f0160208091040260200160405190810160405280939291908181526020018383808284375f920191909152506116ae92505050565b90506114c081611b54565b6114de8c8c846114d057306114d2565b8c5b8c8c8c8c8c8c8c611dd0565b816114ed576114ed818b611731565b5050600160335550505050505050505050565b5f82815260fb602052604090206001015461151a81611897565b61097e83836119be565b5f5f8051602061325f83398151915254604051631e29f97960e31b8152600481018490526001600160a01b039091169150819063f14fcbc8906024015f604051808303815f87803b158015611577575f80fd5b505af1158015611589573d5f803e3d5ffd5b505050505050565b5f5f8051602061329f833981519152546001600160a01b03166115b261166e565b6001600160a01b0316146115d9576040516344e7d94960e01b815260040160405180910390fd5b6001600160a01b0386161561160c575f6115f583850185612707565b90506116008161167c565b61160a8682611731565b505b5063f23a6e6160e01b9695505050505050565b61162761192e565b61163081611f12565b6109945f82611f88565b5f6001600160e01b03198216637965db0b60e01b148061074257506301ffc9a760e01b6001600160e01b0319831614610742565b5f611677611f92565b905090565b6001600160a01b0381166109945760405163b20f76e360e01b81526001600160a01b0382166004820152602401610a13565b5f7f93cdeb708b7545dc668eb9280176169d1c33cfd8ed6f04690a0bcc88a93fc4ae5f1b826040516020016116e3919061302f565b60405160208183030381529060405280519060200120604051602001611713929190918252602082015260400190565b60408051601f19818403018152919052805160209091012092915050565b604080517f0a8885dd093a12d378a27df09bde33e3caca641a3d6970e06805fde8e847cb466020820152908101839052819061176f90606001610aca565b80546001600160a01b0319166001600160a01b039283161790556040519082169083907f45aa97e368889fb3527c1db60c59c2ae91e82f21778613449e46d4208c1c4b12905f90a35050565b60606117c685611faf565b5f80876001600160a01b0316866117df8b8a8989612014565b6040516117ec919061302f565b5f604051808303815f8787f1925050503d805f8114611826576040519150601f19603f3d011682016040523d82523d5f602084013e61182b565b606091505b50909250905061183c603f8761304a565b5a1161184a5761184a613069565b61188a82826040518060400160405280601a81526020017f42617365466f727761726465723a2043414c4c5f4641494c4544000000000000815250612044565b9998505050505050505050565b610994816118a361166e565b61207d565b6118b28282610e93565b610a26575f82815260fb602090815260408083206001600160a01b03851684529091529020805460ff191660011790556118ea61166e565b6001600160a01b0316816001600160a01b0316837f2f8788117e7eff1d82e926ec794901d17c78024a50270940304540a733656f0d60405160405180910390a45050565b61193661166e565b6001600160a01b03166119516097546001600160a01b031690565b6001600160a01b031614610d385760405162461bcd60e51b815260206004820181905260248201527f4f776e61626c653a2063616c6c6572206973206e6f7420746865206f776e65726044820152606401610a13565b6109945f8051602061327f83398151915282611500565b6119c88282610e93565b15610a26575f82815260fb602090815260408083206001600160a01b03851684529091529020805460ff191690556119fe61166e565b6001600160a01b0316816001600160a01b0316837ff6391f5c32d9c69d2a47ea670b442974b53935d1edc7fd64eb21e047a839171b60405160405180910390a45050565b604080517f0a8885dd093a12d378a27df09bde33e3caca641a3d6970e06805fde8e847cb4660208201529081018290525f90611a8090606001610aca565b546001600160a01b0316905080611aad5760405163124bad6360e31b815260048101839052602401610a13565b305f8051602061329f833981519152546040516331a9108f60e11b8152600481018590526001600160a01b0390911690636352211e90602401602060405180830381865afa158015611b01573d5f803e3d5ffd5b505050506040513d601f19601f82011682018060405250810190611b25919061307d565b6001600160a01b031614611b4f576040516303b673fd60e21b815260048101839052602401610a13565b919050565b303303611b6457610994816120e1565b61099481611faf565b6109945f8051602061327f83398151915282611f88565b609780546001600160a01b038381166001600160a01b0319831681179093556040519116919082907f8be0079c531659141344cd1fd0a4f28419497f9722a3daafe3b4186f6b6457e0905f90a35050565b6040838101519051636ccbae5f60e01b815260048101919091525f9081903090636ccbae5f90602401602060405180830381865afa158015611c19573d5f803e3d5ffd5b505050506040513d601f19601f82011682018060405250810190611c3d9190612f7e565b90505f611cea866060015180519060200120868860200151604051602001611c8a9392919092835260609190911b6bffffffffffffffffffffffff19166020830152603482015260540190565b60408051601f1981840301815282825280516020918201207f19457468657265756d205369676e6564204d6573736167653a0a33320000000084830152603c8085019190915282518085039091018152605c909301909152815191012090565b9050818660200151148015610e8957508551610e89906001600160a01b0316828661210b565b5f54610100900460ff16611d365760405162461bcd60e51b8152600401610a1390613098565b6001603355565b5f54610100900460ff16610d385760405162461bcd60e51b8152600401610a1390613098565b5f54610100900460ff16611d895760405162461bcd60e51b8152600401610a1390613098565b610d38611d9461166e565b611b84565b5f54610100900460ff16611dbf5760405162461bcd60e51b8152600401610a1390613098565b610d385f611dcb61166e565b611f88565b5f8051602061325f833981519152546040516383e7f6ff60e01b81526001600160a01b03909116905f9082906383e7f6ff90611e14908f908f908e90600401612de8565b6040805180830381865afa158015611e2e573d5f803e3d5ffd5b505050506040513d601f19601f82011682018060405250810190611e529190612e0b565b60208101518151919250611e6591612e6b565b471015611e855760405163050205f960e01b815260040160405180910390fd5b816001600160a01b03166374694a2b8260200151835f0151611ea79190612e6b565b8e8e8e8e8e8e8e8e8e8e6040518c63ffffffff1660e01b8152600401611ed69a999897969594939291906130e3565b5f604051808303818588803b158015611eed575f80fd5b505af1158015611eff573d5f803e3d5ffd5b5050505050505050505050505050505050565b611f1a61192e565b6001600160a01b038116611f7f5760405162461bcd60e51b815260206004820152602660248201527f4f776e61626c653a206e6577206f776e657220697320746865207a65726f206160448201526564647265737360d01b6064820152608401610a13565b61099481611b84565b610a2682826118a8565b5f303303611fa7575060331936013560601c90565b503390565b90565b604080517f1ee5d87a048b728f67073f282321992c260e5be4fa651d08665c5b4ee7a8381560208201529081018290525f906060016040516020818303038152906040528051906020012090506120038190565b5461200f906001612e6b565b905550565b606082858560405160200161202b93929190613154565b6040516020818303038152906040529050949350505050565b60608315612053575081610953565b8251156120635782518084602001fd5b8160405162461bcd60e51b8152600401610a1391906126b0565b6120878282610e93565b610a265761209f816001600160a01b03166014612246565b6120aa836020612246565b6040516020016120bb929190613192565b60408051601f198184030181529082905262461bcd60e51b8252610a13916004016126b0565b6120e96123db565b811461099457604051635637b6af60e11b815260048101829052602401610a13565b5f805f61211885856123ed565b90925090505f81600481111561213057612130613206565b14801561214e5750856001600160a01b0316826001600160a01b0316145b1561215e57600192505050610953565b5f80876001600160a01b0316631626ba7e60e01b888860405160240161218592919061321a565b60408051601f198184030181529181526020820180516001600160e01b03166001600160e01b03199094169390931790925290516121c3919061302f565b5f60405180830381855afa9150503d805f81146121fb576040519150601f19603f3d011682016040523d82523d5f602084013e612200565b606091505b5091509150818015612213575080516020145b801561223a57508051630b135d3f60e11b906122389083016020908101908401612f7e565b145b98975050505050505050565b60605f612254836002613232565b61225f906002612e6b565b6001600160401b038111156122765761227661274c565b6040519080825280601f01601f1916602001820160405280156122a0576020820181803683370190505b509050600360fc1b815f815181106122ba576122ba612d77565b60200101906001600160f81b03191690815f1a905350600f60fb1b816001815181106122e8576122e8612d77565b60200101906001600160f81b03191690815f1a9053505f61230a846002613232565b612315906001612e6b565b90505b600181111561238c576f181899199a1a9b1b9c1cb0b131b232b360811b85600f166010811061234957612349612d77565b1a60f81b82828151811061235f5761235f612d77565b60200101906001600160f81b03191690815f1a90535060049490941c9361238581613249565b9050612318565b5083156109535760405162461bcd60e51b815260206004820181905260248201527f537472696e67733a20686578206c656e67746820696e73756666696369656e746044820152606401610a13565b5f303303611fac5750601f1936013590565b5f808251604103612421576020830151604084015160608501515f1a6124158782858561242f565b94509450505050612428565b505f905060025b9250929050565b5f807f7fffffffffffffffffffffffffffffff5d576e7357a4501ddfe92f46681b20a083111561246457505f9050600361250b565b8460ff16601b1415801561247c57508460ff16601c14155b1561248c57505f9050600461250b565b604080515f8082526020820180845289905260ff881692820192909252606081018690526080810185905260019060a0016020604051602081039080840390855afa1580156124dd573d5f803e3d5ffd5b5050604051601f1901519150506001600160a01b038116612505575f6001925092505061250b565b91505f90505b94509492505050565b5f60208284031215612524575f80fd5b81356001600160e01b031981168114610953575f80fd5b6001600160a01b0381168114610994575f80fd5b5f8083601f84011261255f575f80fd5b5081356001600160401b03811115612575575f80fd5b602083019150836020828501011115612428575f80fd5b5f805f805f608086880312156125a0575f80fd5b85356125ab8161253b565b945060208601356125bb8161253b565b93506040860135925060608601356001600160401b038111156125dc575f80fd5b6125e88882890161254f565b969995985093965092949392505050565b5f805f6040848603121561260b575f80fd5b83356001600160401b0380821115612621575f80fd5b9085019060808288031215612634575f80fd5b90935060208501359080821115612649575f80fd5b506126568682870161254f565b9497909650939450505050565b5f5b8381101561267d578181015183820152602001612665565b50505f910152565b5f815180845261269c816020860160208601612663565b601f01601f19169290920160200192915050565b602081525f6109536020830184612685565b5f602082840312156126d2575f80fd5b5035919050565b5f80604083850312156126ea575f80fd5b8235915060208301356126fc8161253b565b809150509250929050565b5f60208284031215612717575f80fd5b81356109538161253b565b5f8060408385031215612733575f80fd5b823561273e8161253b565b946020939093013593505050565b634e487b7160e01b5f52604160045260245ffd5b604051601f8201601f191681016001600160401b03811182821017156127885761278861274c565b604052919050565b5f60208083850312156127a1575f80fd5b82356001600160401b03808211156127b7575f80fd5b818501915085601f8301126127ca575f80fd5b8135818111156127dc576127dc61274c565b8060051b91506127ed848301612760565b8181529183018401918481019088841115612806575f80fd5b938501935b8385101561223a57843592506128208361253b565b828252938501939085019061280b565b5f805f60408486031215612842575f80fd5b83356001600160401b03811115612857575f80fd5b6128638682870161254f565b909790965060209590950135949350505050565b5f6001600160401b0383111561288f5761288f61274c565b6128a2601f8401601f1916602001612760565b90508281528383830111156128b5575f80fd5b828260208301375f602084830101529392505050565b5f82601f8301126128da575f80fd5b61095383833560208501612877565b5f8083601f8401126128f9575f80fd5b5081356001600160401b0381111561290f575f80fd5b6020830191508360208260051b8501011115612428575f80fd5b80358015158114611b4f575f80fd5b803561ffff81168114611b4f575f80fd5b5f805f805f805f805f806101208b8d031215612963575f80fd5b8a356001600160401b0380821115612979575f80fd5b6129858e838f016128cb565b9b5060208d013591506129978261253b565b90995060408c0135985060608c0135975060808c0135906129b78261253b565b90965060a08c013590808211156129cc575f80fd5b506129d98d828e016128e9565b90965094506129ec905060c08c01612929565b92506129fa60e08c01612938565b9150612a096101008c01612929565b90509295989b9194979a5092959850565b5f805f805f805f8060a0898b031215612a31575f80fd5b8835612a3c8161253b565b97506020890135612a4c8161253b565b965060408901356001600160401b0380821115612a67575f80fd5b612a738c838d016128e9565b909850965060608b0135915080821115612a8b575f80fd5b612a978c838d016128e9565b909650945060808b0135915080821115612aaf575f80fd5b50612abc8b828c0161254f565b999c989b5096995094979396929594505050565b5f805f60608486031215612ae2575f80fd5b8335612aed8161253b565b92506020840135612afd8161253b565b91506040840135612b0d8161253b565b809150509250925092565b5f805f805f805f805f805f6101208c8e031215612b33575f80fd5b6001600160401b03808d351115612b48575f80fd5b612b558e8e358f0161254f565b909c509a50612b6760208e013561253b565b60208d0135995060408d0135985060608d01359750612b8960808e013561253b565b60808d013596508060a08e01351115612ba0575f80fd5b50612bb18d60a08e01358e016128e9565b9095509350612bc260c08d01612929565b9250612bd060e08d01612938565b9150612bdf6101008d01612929565b90509295989b509295989b9093969950565b5f805f805f8060a08789031215612c06575f80fd5b8635612c118161253b565b95506020870135612c218161253b565b9450604087013593506060870135925060808701356001600160401b03811115612c49575f80fd5b612c5589828a0161254f565b979a9699509497509295939492505050565b5f805f60608486031215612c79575f80fd5b8335612c848161253b565b92506020840135612c948161253b565b915060408401356001600160401b03811115612cae575f80fd5b612cba868287016128cb565b9150509250925092565b608081525f612cd66080830187612685565b6001600160a01b03958616602084015261ffff949094166040830152509216606090920191909152919050565b6001600160a01b03858116825284166020820152604081018390526080606082018190525f90610e8990830184612685565b5f808335601e19843603018112612d4a575f80fd5b8301803591506001600160401b03821115612d63575f80fd5b602001915036819003821315612428575f80fd5b634e487b7160e01b5f52603260045260245ffd5b6020808252818101527f4d696e746572526f6c653a2043414c4c45525f49535f4e4f545f4d494e544552604082015260600190565b81835281816020850137505f828201602090810191909152601f909101601f19169091010190565b604081525f612dfb604083018587612dc0565b9050826020830152949350505050565b5f60408284031215612e1b575f80fd5b604051604081018181106001600160401b0382111715612e3d57612e3d61274c565b604052825181526020928301519281019290925250919050565b634e487b7160e01b5f52601160045260245ffd5b8082018082111561074257610742612e57565b5f838385526020808601955060208560051b830101845f5b87811015612f0257848303601f19018952813536889003601e19018112612ebb575f80fd5b870184810190356001600160401b03811115612ed5575f80fd5b803603821315612ee3575f80fd5b612eee858284612dc0565b9a86019a9450505090830190600101612e96565b5090979650505050505050565b5f610100808352612f228184018d612685565b6001600160a01b038c81166020860152604085018c9052606085018b90528916608085015283810360a08501529050612f5c818789612e7e565b94151560c0840152505061ffff9190911660e090910152979650505050505050565b5f60208284031215612f8e575f80fd5b5051919050565b5f60808236031215612fa5575f80fd5b604051608081016001600160401b038282108183111715612fc857612fc861274c565b8160405284359150612fd98261253b565b81835260208501356020840152604085013560408401526060850135915080821115613003575f80fd5b50830136601f820112613014575f80fd5b61302336823560208401612877565b60608301525092915050565b5f8251613040818460208701612663565b9190910192915050565b5f8261306457634e487b7160e01b5f52601260045260245ffd5b500490565b634e487b7160e01b5f52600160045260245ffd5b5f6020828403121561308d575f80fd5b81516109538161253b565b6020808252602b908201527f496e697469616c697a61626c653a20636f6e7472616374206973206e6f74206960408201526a6e697469616c697a696e6760a81b606082015260800190565b5f6101008083526130f78184018d8f612dc0565b6001600160a01b038c81166020860152604085018c9052606085018b90528916608085015283810360a08501529050613131818789612e7e565b94151560c0840152505061ffff9190911660e09091015298975050505050505050565b5f8451613165818460208901612663565b60609490941b6bffffffffffffffffffffffff191691909301908152601481019190915260340192915050565b7f416363657373436f6e74726f6c3a206163636f756e742000000000000000000081525f83516131c9816017850160208801612663565b7001034b99036b4b9b9b4b733903937b6329607d1b60179184019182015283516131fa816028840160208801612663565b01602801949350505050565b634e487b7160e01b5f52602160045260245ffd5b828152604060208201525f610fd86040830184612685565b808202811582820484141761074257610742612e57565b5f8161325757613257612e57565b505f19019056fe412386de53449251cbf7ce1f4c6a038bf9c0746e62d331b08ef0c3fa7d0ab6729f2df0fed2c77648de5860a4cc508cd0818c85b8b8a1ab4ceeef8d981c8956a660793a5062d506d35cc8f1beda67ee5028c16bfcd9c923d5bfc439c04bd929b1a164736f6c6343000818000a",
  "linkReferences": {},
  "deployedLinkReferences": {}
}