{
  "_format": "hh-sol-artifact-1",
  "contractName": "ENSCustody",
  "sourceName": "contracts/custody/ENSCustody.sol",
  "abi": [
    {
      "inputs": [],
      "stateMutability": "nonpayable",
      "type": "constructor"
    },
    {
      "inputs": [],
      "name": "CustodyNotEnoughBalance",
      "type": "error"
    },
    {
      "inputs": [
        {
          "internalType": "uint256",
          "name": "tokenId",
          "type": "uint256"
        }
      ],
      "name": "InvalidForwardedToken",
      "type": "error"
    },
    {
      "inputs": [],
      "name": "InvalidSignature",
      "type": "error"
    },
    {
      "inputs": [
        {
          "internalType": "uint256",
          "name": "tokenId",
          "type": "uint256"
        }
      ],
      "name": "InvalidToken",
      "type": "error"
    },
    {
      "inputs": [],
      "name": "OperationProhibited",
      "type": "error"
    },
    {
      "inputs": [
        {
          "internalType": "uint256",
          "name": "tokenId",
          "type": "uint256"
        },
        {
          "internalType": "address",
          "name": "addr",
          "type": "address"
        }
      ],
      "name": "Unauthorised",
      "type": "error"
    },
    {
      "anonymous": false,
      "inputs": [
        {
          "indexed": false,
          "internalType": "uint8",
          "name": "version",
          "type": "uint8"
        }
      ],
      "name": "Initialized",
      "type": "event"
    },
    {
      "anonymous": false,
      "inputs": [
        {
          "indexed": true,
          "internalType": "address",
          "name": "previousOwner",
          "type": "address"
        },
        {
          "indexed": true,
          "internalType": "address",
          "name": "newOwner",
          "type": "address"
        }
      ],
      "name": "OwnershipTransferred",
      "type": "event"
    },
    {
      "anonymous": false,
      "inputs": [
        {
          "indexed": true,
          "internalType": "uint256",
          "name": "tokenId",
          "type": "uint256"
        },
        {
          "indexed": true,
          "internalType": "address",
          "name": "owner",
          "type": "address"
        }
      ],
      "name": "Parked",
      "type": "event"
    },
    {
      "anonymous": false,
      "inputs": [
        {
          "indexed": true,
          "internalType": "bytes32",
          "name": "role",
          "type": "bytes32"
        },
        {
          "indexed": true,
          "internalType": "bytes32",
          "name": "previousAdminRole",
          "type": "bytes32"
        },
        {
          "indexed": true,
          "internalType": "bytes32",
          "name": "newAdminRole",
          "type": "bytes32"
        }
      ],
      "name": "RoleAdminChanged",
      "type": "event"
    },
    {
      "anonymous": false,
      "inputs": [
        {
          "indexed": true,
          "internalType": "bytes32",
          "name": "role",
          "type": "bytes32"
        },
        {
          "indexed": true,
          "internalType": "address",
          "name": "account",
          "type": "address"
        },
        {
          "indexed": true,
          "internalType": "address",
          "name": "sender",
          "type": "address"
        }
      ],
      "name": "RoleGranted",
      "type": "event"
    },
    {
      "anonymous": false,
      "inputs": [
        {
          "indexed": true,
          "internalType": "bytes32",
          "name": "role",
          "type": "bytes32"
        },
        {
          "indexed": true,
          "internalType": "address",
          "name": "account",
          "type": "address"
        },
        {
          "indexed": true,
          "internalType": "address",
          "name": "sender",
          "type": "address"
        }
      ],
      "name": "RoleRevoked",
      "type": "event"
    },
    {
      "inputs": [],
      "name": "DEFAULT_ADMIN_ROLE",
      "outputs": [
        {
          "internalType": "bytes32",
          "name": "",
          "type": "bytes32"
        }
      ],
      "stateMutability": "view",
      "type": "function"
    },
    {
      "inputs": [],
      "name": "MINTER_ROLE",
      "outputs": [
        {
          "internalType": "bytes32",
          "name": "",
          "type": "bytes32"
        }
      ],
      "stateMutability": "view",
      "type": "function"
    },
    {
      "inputs": [],
      "name": "NAME",
      "outputs": [
        {
          "internalType": "string",
          "name": "",
          "type": "string"
        }
      ],
      "stateMutability": "view",
      "type": "function"
    },
    {
      "inputs": [],
      "name": "VERSION",
      "outputs": [
        {
          "internalType": "string",
          "name": "",
          "type": "string"
        }
      ],
      "stateMutability": "view",
      "type": "function"
    },
    {
      "inputs": [
        {
          "internalType": "address",
          "name": "account",
          "type": "address"
        }
      ],
      "name": "addMinter",
      "outputs": [],
      "stateMutability": "nonpayable",
      "type": "function"
    },
    {
      "inputs": [
        {
          "internalType": "address[]",
          "name": "accounts",
          "type": "address[]"
        }
      ],
      "name": "addMinters",
      "outputs": [],
      "stateMutability": "nonpayable",
      "type": "function"
    },
    {
      "inputs": [
        {
          "internalType": "address payable",
          "name": "receiver",
          "type": "address"
        }
      ],
      "name": "closeMinter",
      "outputs": [],
      "stateMutability": "payable",
      "type": "function"
    },
    {
      "inputs": [
        {
          "internalType": "bytes32",
          "name": "commitment",
          "type": "bytes32"
        }
      ],
      "name": "commit",
      "outputs": [],
      "stateMutability": "nonpayable",
      "type": "function"
    },
    {
      "inputs": [
        {
          "components": [
            {
              "internalType": "address",
              "name": "from",
              "type": "address"
            },
            {
              "internalType": "uint256",
              "name": "nonce",
              "type": "uint256"
            },
            {
              "internalType": "uint256",
              "name": "tokenId",
              "type": "uint256"
            },
            {
              "internalType": "bytes",
              "name": "data",
              "type": "bytes"
            }
          ],
          "internalType": "struct IForwarder.ForwardRequest",
          "name": "req",
          "type": "tuple"
        },
        {
          "internalType": "bytes",
          "name": "signature",
          "type": "bytes"
        }
      ],
      "name": "execute",
      "outputs": [
        {
          "internalType": "bytes",
          "name": "",
          "type": "bytes"
        }
      ],
      "stateMutability": "nonpayable",
      "type": "function"
    },
    {
      "inputs": [
        {
          "internalType": "bytes32",
          "name": "role",
          "type": "bytes32"
        }
      ],
      "name": "getRoleAdmin",
      "outputs": [
        {
          "internalType": "bytes32",
          "name": "",
          "type": "bytes32"
        }
      ],
      "stateMutability": "view",
      "type": "function"
    },
    {
      "inputs": [
        {
          "internalType": "bytes32",
          "name": "role",
          "type": "bytes32"
        },
        {
          "internalType": "address",
          "name": "account",
          "type": "address"
        }
      ],
      "name": "grantRole",
      "outputs": [],
      "stateMutability": "nonpayable",
      "type": "function"
    },
    {
      "inputs": [
        {
          "internalType": "bytes32",
          "name": "role",
          "type": "bytes32"
        },
        {
          "internalType": "address",
          "name": "account",
          "type": "address"
        }
      ],
      "name": "hasRole",
      "outputs": [
        {
          "internalType": "bool",
          "name": "",
          "type": "bool"
        }
      ],
      "stateMutability": "view",
      "type": "function"
    },
    {
      "inputs": [
        {
          "internalType": "address",
          "name": "controller",
          "type": "address"
        },
        {
          "internalType": "address",
          "name": "wrapper",
          "type": "address"
        }
      ],
      "name": "initialize",
      "outputs": [],
      "stateMutability": "nonpayable",
      "type": "function"
    },
    {
      "inputs": [
        {
          "internalType": "address",
          "name": "account",
          "type": "address"
        }
      ],
      "name": "isMinter",
      "outputs": [
        {
          "internalType": "bool",
          "name": "",
          "type": "bool"
        }
      ],
      "stateMutability": "view",
      "type": "function"
    },
    {
      "inputs": [
        {
          "internalType": "address",
          "name": "forwarder",
          "type": "address"
        }
      ],
      "name": "isTrustedForwarder",
      "outputs": [
        {
          "internalType": "bool",
          "name": "",
          "type": "bool"
        }
      ],
      "stateMutability": "view",
      "type": "function"
    },
    {
      "inputs": [
        {
          "internalType": "string",
          "name": "name",
          "type": "string"
        },
        {
          "internalType": "address",
          "name": "owner",
          "type": "address"
        },
        {
          "internalType": "uint256",
          "name": "duration",
          "type": "uint256"
        },
        {
          "internalType": "bytes32",
          "name": "secret",
          "type": "bytes32"
        },
        {
          "internalType": "address",
          "name": "resolver",
          "type": "address"
        },
        {
          "internalType": "bytes[]",
          "name": "data",
          "type": "bytes[]"
        },
        {
          "internalType": "bool",
          "name": "reverseRecord",
          "type": "bool"
        },
        {
          "internalType": "uint16",
          "name": "ownerControlledFuses",
          "type": "uint16"
        },
        {
          "internalType": "bool",
          "name": "selfCustody",
          "type": "bool"
        }
      ],
      "name": "makeCommitment",
      "outputs": [
        {
          "internalType": "bytes32",
          "name": "",
          "type": "bytes32"
        }
      ],
      "stateMutability": "view",
      "type": "function"
    },
    {
      "inputs": [
        {
          "internalType": "uint256",
          "name": "tokenId",
          "type": "uint256"
        }
      ],
      "name": "nonceOf",
      "outputs": [
        {
          "internalType": "uint256",
          "name": "",
          "type": "uint256"
        }
      ],
      "stateMutability": "view",
      "type": "function"
    },
    {
      "inputs": [
        {
          "internalType": "address",
          "name": "",
          "type": "address"
        },
        {
          "internalType": "address",
          "name": "",
          "type": "address"
        },
        {
          "internalType": "uint256[]",
          "name": "",
          "type": "uint256[]"
        },
        {
          "internalType": "uint256[]",
          "name": "",
          "type": "uint256[]"
        },
        {
          "internalType": "bytes",
          "name": "",
          "type": "bytes"
        }
      ],
      "name": "onERC1155BatchReceived",
      "outputs": [
        {
          "internalType": "bytes4",
          "name": "",
          "type": "bytes4"
        }
      ],
      "stateMutability": "view",
      "type": "function"
    },
    {
      "inputs": [
        {
          "internalType": "address",
          "name": "",
          "type": "address"
        },
        {
          "internalType": "address",
          "name": "",
          "type": "address"
        },
        {
          "internalType": "uint256",
          "name": "",
          "type": "uint256"
        },
        {
          "internalType": "uint256",
          "name": "",
          "type": "uint256"
        },
        {
          "internalType": "bytes",
          "name": "",
          "type": "bytes"
        }
      ],
      "name": "onERC1155Received",
      "outputs": [
        {
          "internalType": "bytes4",
          "name": "",
          "type": "bytes4"
        }
      ],
      "stateMutability": "view",
      "type": "function"
    },
    {
      "inputs": [],
      "name": "owner",
      "outputs": [
        {
          "internalType": "address",
          "name": "",
          "type": "address"
        }
      ],
      "stateMutability": "view",
      "type": "function"
    },
    {
      "inputs": [
        {
          "internalType": "uint256",
          "name": "tokenId",
          "type": "uint256"
        }
      ],
      "name": "ownerOf",
      "outputs": [
        {
          "internalType": "address",
          "name": "",
          "type": "address"
        }
      ],
      "stateMutability": "view",
      "type": "function"
    },
    {
      "inputs": [
        {
          "internalType": "string",
          "name": "name",
          "type": "string"
        },
        {
          "internalType": "address",
          "name": "owner",
          "type": "address"
        },
        {
          "internalType": "uint256",
          "name": "duration",
          "type": "uint256"
        },
        {
          "internalType": "bytes32",
          "name": "secret",
          "type": "bytes32"
        },
        {
          "internalType": "address",
          "name": "resolver",
          "type": "address"
        },
        {
          "internalType": "bytes[]",
          "name": "data",
          "type": "bytes[]"
        },
        {
          "internalType": "bool",
          "name": "reverseRecord",
          "type": "bool"
        },
        {
          "internalType": "uint16",
          "name": "ownerControlledFuses",
          "type": "uint16"
        },
        {
          "internalType": "bool",
          "name": "selfCustody",
          "type": "bool"
        }
      ],
      "name": "register",
      "outputs": [],
      "stateMutability": "nonpayable",
      "type": "function"
    },
    {
      "inputs": [
        {
          "internalType": "address",
          "name": "account",
          "type": "address"
        }
      ],
      "name": "removeMinter",
      "outputs": [],
      "stateMutability": "nonpayable",
      "type": "function"
    },
    {
      "inputs": [
        {
          "internalType": "address[]",
          "name": "accounts",
          "type": "address[]"
        }
      ],
      "name": "removeMinters",
      "outputs": [],
      "stateMutability": "nonpayable",
      "type": "function"
    },
    {
      "inputs": [],
      "name": "renounceMinter",
      "outputs": [],
      "stateMutability": "nonpayable",
      "type": "function"
    },
    {
      "inputs": [],
      "name": "renounceOwnership",
      "outputs": [],
      "stateMutability": "nonpayable",
      "type": "function"
    },
    {
      "inputs": [
        {
          "internalType": "bytes32",
          "name": "role",
          "type": "bytes32"
        },
        {
          "internalType": "address",
          "name": "account",
          "type": "address"
        }
      ],
      "name": "renounceRole",
      "outputs": [],
      "stateMutability": "nonpayable",
      "type": "function"
    },
    {
      "inputs": [
        {
          "internalType": "bytes32",
          "name": "role",
          "type": "bytes32"
        },
        {
          "internalType": "address",
          "name": "account",
          "type": "address"
        }
      ],
      "name": "revokeRole",
      "outputs": [],
      "stateMutability": "nonpayable",
      "type": "function"
    },
    {
      "inputs": [
        {
          "internalType": "address payable",
          "name": "receiver",
          "type": "address"
        }
      ],
      "name": "rotateMinter",
      "outputs": [],
      "stateMutability": "payable",
      "type": "function"
    },
    {
      "inputs": [
        {
          "internalType": "address",
          "name": "to",
          "type": "address"
        },
        {
          "internalType": "uint256",
          "name": "tokenId",
          "type": "uint256"
        }
      ],
      "name": "safeTransfer",
      "outputs": [],
      "stateMutability": "nonpayable",
      "type": "function"
    },
    {
      "inputs": [
        {
          "internalType": "bytes4",
          "name": "interfaceId",
          "type": "bytes4"
        }
      ],
      "name": "supportsInterface",
      "outputs": [
        {
          "internalType": "bool",
          "name": "",
          "type": "bool"
        }
      ],
      "stateMutability": "view",
      "type": "function"
    },
    {
      "inputs": [
        {
          "internalType": "address",
          "name": "newOwner",
          "type": "address"
        }
      ],
      "name": "transferOwnership",
      "outputs": [],
      "stateMutability": "nonpayable",
      "type": "function"
    },
    {
      "inputs": [
        {
          "components": [
            {
              "internalType": "address",
              "name": "from",
              "type": "address"
            },
            {
              "internalType": "uint256",
              "name": "nonce",
              "type": "uint256"
            },
            {
              "internalType": "uint256",
              "name": "tokenId",
              "type": "uint256"
            },
            {
              "internalType": "bytes",
              "name": "data",
              "type": "bytes"
            }
          ],
          "internalType": "struct IForwarder.ForwardRequest",
          "name": "req",
          "type": "tuple"
        },
        {
          "internalType": "bytes",
          "name": "signature",
          "type": "bytes"
        }
      ],
      "name": "verify",
      "outputs": [
        {
          "internalType": "bool",
          "name": "",
          "type": "bool"
        }
      ],
      "stateMutability": "view",
      "type": "function"
    },
    {
      "stateMutability": "payable",
      "type": "receive"
    }
  ],
  "bytecode": "0x60806040523480156200001157600080fd5b506200001c62000022565b620000e4565b600054610100900460ff16156200008f5760405162461bcd60e51b815260206004820152602760248201527f496e697469616c697a61626c653a20636f6e747261637420697320696e697469604482015266616c697a696e6760c81b606482015260840160405180910390fd5b60005460ff9081161015620000e2576000805460ff191660ff9081179091556040519081527f7f26b83ff96e1f2b6a682f133852f6798a09c465da95921460cefb38474024989060200160405180910390a15b565b612c8880620000f46000396000f3fe6080604052600436106101f25760003560e01c80638da5cb5b1161010d578063aa271e1a116100a0578063d547741f1161006f578063d547741f146105d6578063f14fcbc8146105f6578063f23a6e6114610616578063f2fde38b14610636578063ffa1ad741461065657600080fd5b8063aa271e1a1461053b578063bc197c811461055b578063cf01585314610594578063d5391393146105b457600080fd5b8063a0e3aef1116100dc578063a0e3aef1146104af578063a217fddf146104cf578063a3f4df7e146104e4578063a42474001461051b57600080fd5b80638da5cb5b1461043c57806391d148541461045a578063983b2d561461047a578063986502751461049a57600080fd5b8063572b6c05116101855780636ccbae5f116101545780636ccbae5f146103d4578063715018a6146103f457806371e2a6571461040957806381c81d351461042957600080fd5b8063572b6c05146103405780635fc1964f14610369578063634486da146103895780636352211e1461039c57600080fd5b80633092afd5116101c15780633092afd5146102c057806336568abe146102e0578063423f6cef14610300578063485cc9551461032057600080fd5b806301ffc9a7146101fe5780631bf7e13e14610233578063248a9ca3146102605780632f2ff15d1461029e57600080fd5b366101f957005b600080fd5b34801561020a57600080fd5b5061021e610219366004611f88565b610687565b60405190151581526020015b60405180910390f35b34801561023f57600080fd5b5061025361024e366004611ff3565b6106b2565b60405161022a91906120b3565b34801561026c57600080fd5b5061029061027b3660046120c6565b600090815260fb602052604090206001015490565b60405190815260200161022a565b3480156102aa57600080fd5b506102be6102b9366004612104565b61077e565b005b3480156102cc57600080fd5b506102be6102db366004612134565b6107a8565b3480156102ec57600080fd5b506102be6102fb366004612104565b6107bc565b34801561030c57600080fd5b506102be61031b366004612151565b61084f565b34801561032c57600080fd5b506102be61033b36600461217d565b6109c0565b34801561034c57600080fd5b5061021e61035b366004612134565b6001600160a01b0316301490565b34801561037557600080fd5b506102be610384366004612214565b610b3c565b6102be610397366004612134565b610b84565b3480156103a857600080fd5b506103bc6103b73660046120c6565b610c47565b6040516001600160a01b03909116815260200161022a565b3480156103e057600080fd5b506102906103ef3660046120c6565b610c52565b34801561040057600080fd5b506102be610c98565b34801561041557600080fd5b506102be610424366004612214565b610cac565b6102be610437366004612134565b610cf4565b34801561044857600080fd5b506097546001600160a01b03166103bc565b34801561046657600080fd5b5061021e610475366004612104565b610d71565b34801561048657600080fd5b506102be610495366004612134565b610d9c565b3480156104a657600080fd5b506102be610dad565b3480156104bb57600080fd5b506102906104ca36600461236f565b610dc7565b3480156104db57600080fd5b50610290600081565b3480156104f057600080fd5b506102536040518060400160405280600b81526020016a454e5320437573746f647960a81b81525081565b34801561052757600080fd5b5061021e610536366004611ff3565b610e73565b34801561054757600080fd5b5061021e610556366004612134565b610ec6565b34801561056757600080fd5b5061057b6105763660046124dd565b610ee0565b6040516001600160e01b0319909116815260200161022a565b3480156105a057600080fd5b506102be6105af36600461258a565b610f41565b3480156105c057600080fd5b50610290600080516020612c3c83398151915281565b3480156105e257600080fd5b506102be6105f1366004612104565b6110cc565b34801561060257600080fd5b506102be6106113660046120c6565b6110f1565b34801561062257600080fd5b5061057b61063136600461266c565b611165565b34801561064257600080fd5b506102be610651366004612134565b6111a9565b34801561066257600080fd5b5061025360405180604001604052806005815260200164302e302e3160d81b81525081565b60006001600160e01b03198216630271189760e51b14806106ac57506106ac826111c5565b92915050565b606060005a90506106c4858585610e73565b6106e157604051638baa579f60e01b815260040160405180910390fd5b6107736106f16020870187612134565b3060408801358461070560608b018b6126e7565b8080601f01602080910402602001604051908101604052809392919081815260200183838082843760009201919091525050604080516020601f8e018190048102820181019092528c815292508c91508b90819084018382808284376000920191909152506111fa92505050565b9150505b9392505050565b600082815260fb6020526040902060010154610799816112db565b6107a383836112ec565b505050565b6107b0611373565b6107b9816113ec565b50565b6107c4611404565b6001600160a01b0316816001600160a01b0316146108415760405162461bcd60e51b815260206004820152602f60248201527f416363657373436f6e74726f6c3a2063616e206f6e6c792072656e6f756e636560448201526e103937b632b9903337b91039b2b63360891b60648201526084015b60405180910390fd5b61084b8282611413565b5050565b80610858611404565b6001600160a01b031661086a82611498565b6001600160a01b0316146108ac5780610881611404565b604051637ea58b1160e01b815260048101929092526001600160a01b03166024820152604401610838565b6108b582611506565b604080517f0a8885dd093a12d378a27df09bde33e3caca641a3d6970e06805fde8e847cb466020820152908101839052600090610909906060015b6040516020818303038152906040528051906020012090565b80546001600160a01b0319166001600160a01b03929092169190911790556000600080516020612c5c83398151915254604051637921219560e11b81523060048201526001600160a01b038681166024830152604482018690526001606483015260a06084830152600060a48301529091169150819063f242432a9060c401600060405180830381600087803b1580156109a257600080fd5b505af11580156109b6573d6000803e3d6000fd5b5050505050505050565b600054610100900460ff16158080156109e05750600054600160ff909116105b806109fa5750303b1580156109fa575060005460ff166001145b610a5d5760405162461bcd60e51b815260206004820152602e60248201527f496e697469616c697a61626c653a20636f6e747261637420697320616c72656160448201526d191e481a5b9a5d1a585b1a5e995960921b6064820152608401610838565b6000805460ff191660011790558015610a80576000805461ff0019166101001790555b600080516020612c1c83398151915280546001600160a01b038086166001600160a01b031992831617909255600080516020612c5c833981519152805492851692909116919091179055610ad2611540565b610ada61156e565b610ae261156e565b610aea611595565b610af26115cc565b80156107a3576000805461ff0019169055604051600181527f7f26b83ff96e1f2b6a682f133852f6798a09c465da95921460cefb38474024989060200160405180910390a1505050565b610b44611373565b60005b815181101561084b57610b72828281518110610b6557610b6561272d565b60200260200101516113ec565b80610b7c81612759565b915050610b47565b610b8f610556611404565b610bab5760405162461bcd60e51b815260040161083890612772565b6001600160a01b038116610c015760405162461bcd60e51b815260206004820152601d60248201527f4d696e746572526f6c653a2052454345495645525f49535f454d5054590000006044820152606401610838565b610c0a81611605565b610c12610dad565b6040516001600160a01b038216903480156108fc02916000818181858888f1935050505015801561084b573d6000803e3d6000fd5b60006106ac82611498565b604080517f1ee5d87a048b728f67073f282321992c260e5be4fa651d08665c5b4ee7a838156020820152908101829052600090610c91906060016108f0565b5492915050565b610ca0611373565b610caa600061161d565b565b610cb4611373565b60005b815181101561084b57610ce2828281518110610cd557610cd561272d565b6020026020010151611605565b80610cec81612759565b915050610cb7565b610cff610556611404565b610d1b5760405162461bcd60e51b815260040161083890612772565b6001600160a01b038116610c0a5760405162461bcd60e51b815260206004820152601d60248201527f4d696e746572526f6c653a2052454345495645525f49535f454d5054590000006044820152606401610838565b600091825260fb602090815260408084206001600160a01b0393909316845291905290205460ff1690565b610da4611373565b6107b981611605565b610caa600080516020612c3c8339815191526102fb611404565b600080516020612c1c833981519152546000906001600160a01b0316806365a69dcf8d85610df55730610df7565b8d5b8d8d8d8d8d8d8d6040518a63ffffffff1660e01b8152600401610e2299989796959493929190612861565b602060405180830381865afa158015610e3f573d6000803e3d6000fd5b505050506040513d601f19601f82011682018060405250810190610e6391906128d1565b9c9b505050505050505050505050565b6000610ebe610e81856128ea565b3085858080601f01602080910402602001604051908101604052809392919081815260200183838082843760009201919091525061166f92505050565b949350505050565b60006106ac600080516020612c3c83398151915283610d71565b6000600080516020612c5c833981519152546001600160a01b0316610f03611404565b6001600160a01b031603610f1f575063bc197c8160e01b610f38565b6040516344e7d94960e01b815260040160405180910390fd5b95945050505050565b610f4c610556611404565b610f685760405162461bcd60e51b815260040161083890612772565b600260335403610fba5760405162461bcd60e51b815260206004820152601f60248201527f5265656e7472616e637947756172643a207265656e7472616e742063616c6c006044820152606401610838565b600260338190555060006110038c8c8080601f0160208091040260200160405190810160405280939291908181526020018383808284376000920191909152506117b892505050565b905061100e81611506565b61102c8c8c8461101e5730611020565b8c5b8c8c8c8c8c8c8c61183d565b816110b957604080517f0a8885dd093a12d378a27df09bde33e3caca641a3d6970e06805fde8e847cb4660208201529081018290528a9061106f906060016108f0565b80546001600160a01b0319166001600160a01b03928316179055604051908b169082907f45aa97e368889fb3527c1db60c59c2ae91e82f21778613449e46d4208c1c4b1290600090a35b5050600160335550505050505050505050565b600082815260fb60205260409020600101546110e7816112db565b6107a38383611413565b6000600080516020612c1c83398151915254604051631e29f97960e31b8152600481018490526001600160a01b039091169150819063f14fcbc890602401600060405180830381600087803b15801561114957600080fd5b505af115801561115d573d6000803e3d6000fd5b505050505050565b6000600080516020612c5c833981519152546001600160a01b0316611188611404565b6001600160a01b031603610f1f575063f23a6e6160e01b9695505050505050565b6111b1611373565b6111ba81611995565b6107b9600082611a0b565b60006001600160e01b03198216637965db0b60e01b14806106ac57506301ffc9a760e01b6001600160e01b03198316146106ac565b606061120585611a15565b600080876001600160a01b03168661121f8b8a8989611a7b565b60405161122c9190612974565b60006040518083038160008787f1925050503d806000811461126a576040519150601f19603f3d011682016040523d82523d6000602084013e61126f565b606091505b509092509050611280603f87612990565b5a1161128e5761128e6129b2565b6112ce82826040518060400160405280601a81526020017f42617365466f727761726465723a2043414c4c5f4641494c4544000000000000815250611aab565b9998505050505050505050565b6107b9816112e7611404565b611ae4565b6112f68282610d71565b61084b57600082815260fb602090815260408083206001600160a01b03851684529091529020805460ff1916600117905561132f611404565b6001600160a01b0316816001600160a01b0316837f2f8788117e7eff1d82e926ec794901d17c78024a50270940304540a733656f0d60405160405180910390a45050565b61137b611404565b6001600160a01b03166113966097546001600160a01b031690565b6001600160a01b031614610caa5760405162461bcd60e51b815260206004820181905260248201527f4f776e61626c653a2063616c6c6572206973206e6f7420746865206f776e65726044820152606401610838565b6107b9600080516020612c3c833981519152826110cc565b600061140e611b48565b905090565b61141d8282610d71565b1561084b57600082815260fb602090815260408083206001600160a01b03851684529091529020805460ff19169055611454611404565b6001600160a01b0316816001600160a01b0316837ff6391f5c32d9c69d2a47ea670b442974b53935d1edc7fd64eb21e047a839171b60405160405180910390a45050565b604080517f0a8885dd093a12d378a27df09bde33e3caca641a3d6970e06805fde8e847cb46602082015290810182905260009081906114d9906060016108f0565b546001600160a01b03169050806106ac5760405163124bad6360e31b815260048101849052602401610838565b30330361153757611515611b66565b81146107b957604051635637b6af60e11b815260048101829052602401610838565b6107b981611a15565b600054610100900460ff166115675760405162461bcd60e51b8152600401610838906129c8565b6001603355565b600054610100900460ff16610caa5760405162461bcd60e51b8152600401610838906129c8565b600054610100900460ff166115bc5760405162461bcd60e51b8152600401610838906129c8565b610caa6115c7611404565b61161d565b600054610100900460ff166115f35760405162461bcd60e51b8152600401610838906129c8565b610caa6000611600611404565b611a0b565b6107b9600080516020612c3c83398151915282611a0b565b609780546001600160a01b038381166001600160a01b0319831681179093556040519116919082907f8be0079c531659141344cd1fd0a4f28419497f9722a3daafe3b4186f6b6457e090600090a35050565b6040838101519051636ccbae5f60e01b8152600481019190915260009081903090636ccbae5f90602401602060405180830381865afa1580156116b6573d6000803e3d6000fd5b505050506040513d601f19601f820116820180604052508101906116da91906128d1565b905060006117888660600151805190602001208688602001516040516020016117289392919092835260609190911b6bffffffffffffffffffffffff19166020830152603482015260540190565b60408051601f1981840301815282825280516020918201207f19457468657265756d205369676e6564204d6573736167653a0a33320000000084830152603c8085019190915282518085039091018152605c909301909152815191012090565b90508186602001511480156117ae575085516117ae906001600160a01b03168286611b79565b9695505050505050565b60007f93cdeb708b7545dc668eb9280176169d1c33cfd8ed6f04690a0bcc88a93fc4ae60001b826040516020016117ef9190612974565b6040516020818303038152906040528051906020012060405160200161181f929190918252602082015260400190565b60408051601f19818403018152919052805160209091012092915050565b600080516020612c1c833981519152546040516383e7f6ff60e01b81526001600160a01b039091169060009082906383e7f6ff90611883908f908f908e90600401612a13565b6040805180830381865afa15801561189f573d6000803e3d6000fd5b505050506040513d601f19601f820116820180604052508101906118c39190612a37565b905060006064826020015183600001516118dd9190612a85565b6118e890606e612a98565b6118f29190612990565b9050804710156119155760405163050205f960e01b815260040160405180910390fd5b826001600160a01b03166374694a2b828f8f8f8f8f8f8f8f8f8f6040518c63ffffffff1660e01b81526004016119549a99989796959493929190612aaf565b6000604051808303818588803b15801561196d57600080fd5b505af1158015611981573d6000803e3d6000fd5b505050505050505050505050505050505050565b61199d611373565b6001600160a01b038116611a025760405162461bcd60e51b815260206004820152602660248201527f4f776e61626c653a206e6577206f776e657220697320746865207a65726f206160448201526564647265737360d01b6064820152608401610838565b6107b98161161d565b61084b82826112ec565b604080517f1ee5d87a048b728f67073f282321992c260e5be4fa651d08665c5b4ee7a838156020820152908101829052600090606001604051602081830303815290604052805190602001209050611a6a8190565b54611a76906001612a85565b905550565b6060828585604051602001611a9293929190612b21565b6040516020818303038152906040529050949350505050565b60608315611aba575081610777565b825115611aca5782518084602001fd5b8160405162461bcd60e51b815260040161083891906120b3565b611aee8282610d71565b61084b57611b06816001600160a01b03166014611cbb565b611b11836020611cbb565b604051602001611b22929190612b60565b60408051601f198184030181529082905262461bcd60e51b8252610838916004016120b3565b6000303303611b5e575060331936013560601c90565b503390565b90565b6000303303611b635750601f1936013590565b6000806000611b888585611e56565b90925090506000816004811115611ba157611ba1612bd5565b148015611bbf5750856001600160a01b0316826001600160a01b0316145b15611bcf57600192505050610777565b600080876001600160a01b0316631626ba7e60e01b8888604051602401611bf7929190612beb565b60408051601f198184030181529181526020820180516001600160e01b03166001600160e01b0319909416939093179092529051611c359190612974565b600060405180830381855afa9150503d8060008114611c70576040519150601f19603f3d011682016040523d82523d6000602084013e611c75565b606091505b5091509150818015611c88575080516020145b8015611caf57508051630b135d3f60e11b90611cad90830160209081019084016128d1565b145b98975050505050505050565b60606000611cca836002612a98565b611cd5906002612a85565b6001600160401b03811115611cec57611cec6121ab565b6040519080825280601f01601f191660200182016040528015611d16576020820181803683370190505b509050600360fc1b81600081518110611d3157611d3161272d565b60200101906001600160f81b031916908160001a905350600f60fb1b81600181518110611d6057611d6061272d565b60200101906001600160f81b031916908160001a9053506000611d84846002612a98565b611d8f906001612a85565b90505b6001811115611e07576f181899199a1a9b1b9c1cb0b131b232b360811b85600f1660108110611dc357611dc361272d565b1a60f81b828281518110611dd957611dd961272d565b60200101906001600160f81b031916908160001a90535060049490941c93611e0081612c04565b9050611d92565b5083156107775760405162461bcd60e51b815260206004820181905260248201527f537472696e67733a20686578206c656e67746820696e73756666696369656e746044820152606401610838565b6000808251604103611e8c5760208301516040840151606085015160001a611e8087828585611e9b565b94509450505050611e94565b506000905060025b9250929050565b6000807f7fffffffffffffffffffffffffffffff5d576e7357a4501ddfe92f46681b20a0831115611ed25750600090506003611f7f565b8460ff16601b14158015611eea57508460ff16601c14155b15611efb5750600090506004611f7f565b6040805160008082526020820180845289905260ff881692820192909252606081018690526080810185905260019060a0016020604051602081039080840390855afa158015611f4f573d6000803e3d6000fd5b5050604051601f1901519150506001600160a01b038116611f7857600060019250925050611f7f565b9150600090505b94509492505050565b600060208284031215611f9a57600080fd5b81356001600160e01b03198116811461077757600080fd5b60008083601f840112611fc457600080fd5b5081356001600160401b03811115611fdb57600080fd5b602083019150836020828501011115611e9457600080fd5b60008060006040848603121561200857600080fd5b83356001600160401b038082111561201f57600080fd5b908501906080828803121561203357600080fd5b9093506020850135908082111561204957600080fd5b5061205686828701611fb2565b9497909650939450505050565b60005b8381101561207e578181015183820152602001612066565b50506000910152565b6000815180845261209f816020860160208601612063565b601f01601f19169290920160200192915050565b6020815260006107776020830184612087565b6000602082840312156120d857600080fd5b5035919050565b6001600160a01b03811681146107b957600080fd5b80356120ff816120df565b919050565b6000806040838503121561211757600080fd5b823591506020830135612129816120df565b809150509250929050565b60006020828403121561214657600080fd5b8135610777816120df565b6000806040838503121561216457600080fd5b823561216f816120df565b946020939093013593505050565b6000806040838503121561219057600080fd5b823561219b816120df565b91506020830135612129816120df565b634e487b7160e01b600052604160045260246000fd5b604051601f8201601f191681016001600160401b03811182821017156121e9576121e96121ab565b604052919050565b60006001600160401b0382111561220a5761220a6121ab565b5060051b60200190565b6000602080838503121561222757600080fd5b82356001600160401b0381111561223d57600080fd5b8301601f8101851361224e57600080fd5b803561226161225c826121f1565b6121c1565b81815260059190911b8201830190838101908783111561228057600080fd5b928401925b828410156122a7578335612298816120df565b82529284019290840190612285565b979650505050505050565b60006001600160401b038311156122cb576122cb6121ab565b6122de601f8401601f19166020016121c1565b90508281528383830111156122f257600080fd5b828260208301376000602084830101529392505050565b60008083601f84011261231b57600080fd5b5081356001600160401b0381111561233257600080fd5b6020830191508360208260051b8501011115611e9457600080fd5b803580151581146120ff57600080fd5b803561ffff811681146120ff57600080fd5b6000806000806000806000806000806101208b8d03121561238f57600080fd5b8a356001600160401b03808211156123a657600080fd5b818d0191508d601f8301126123ba57600080fd5b6123c98e8335602085016122b2565b9b506123d760208e016120f4565b9a5060408d0135995060608d013598506123f360808e016120f4565b975060a08d013591508082111561240957600080fd5b506124168d828e01612309565b9096509450612429905060c08c0161234d565b925061243760e08c0161235d565b91506124466101008c0161234d565b90509295989b9194979a5092959850565b600082601f83011261246857600080fd5b8135602061247861225c836121f1565b82815260059290921b8401810191818101908684111561249757600080fd5b8286015b848110156124b2578035835291830191830161249b565b509695505050505050565b600082601f8301126124ce57600080fd5b610777838335602085016122b2565b600080600080600060a086880312156124f557600080fd5b8535612500816120df565b94506020860135612510816120df565b935060408601356001600160401b038082111561252c57600080fd5b61253889838a01612457565b9450606088013591508082111561254e57600080fd5b61255a89838a01612457565b9350608088013591508082111561257057600080fd5b5061257d888289016124bd565b9150509295509295909350565b60008060008060008060008060008060006101208c8e0312156125ac57600080fd5b6001600160401b03808d3511156125c257600080fd5b6125cf8e8e358f01611fb2565b909c509a506125e160208e01356120df565b60208d0135995060408d0135985060608d0135975061260360808e01356120df565b60808d013596508060a08e0135111561261b57600080fd5b5061262c8d60a08e01358e01612309565b909550935061263d60c08d0161234d565b925061264b60e08d0161235d565b915061265a6101008d0161234d565b90509295989b509295989b9093969950565b60008060008060008060a0878903121561268557600080fd5b8635612690816120df565b955060208701356126a0816120df565b9450604087013593506060870135925060808701356001600160401b038111156126c957600080fd5b6126d589828a01611fb2565b979a9699509497509295939492505050565b6000808335601e198436030181126126fe57600080fd5b8301803591506001600160401b0382111561271857600080fd5b602001915036819003821315611e9457600080fd5b634e487b7160e01b600052603260045260246000fd5b634e487b7160e01b600052601160045260246000fd5b60006001820161276b5761276b612743565b5060010190565b6020808252818101527f4d696e746572526f6c653a2043414c4c45525f49535f4e4f545f4d494e544552604082015260600190565b81835281816020850137506000828201602090810191909152601f909101601f19169091010190565b81835260006020808501808196508560051b810191508460005b878110156128545782840389528135601e1988360301811261280b57600080fd5b870185810190356001600160401b0381111561282657600080fd5b80360382131561283557600080fd5b6128408682846127a7565b9a87019a95505050908401906001016127ea565b5091979650505050505050565b60006101008083526128758184018d612087565b6001600160a01b038c81166020860152604085018c9052606085018b90528916608085015283810360a085015290506128af8187896127d0565b94151560c0840152505061ffff9190911660e090910152979650505050505050565b6000602082840312156128e357600080fd5b5051919050565b6000608082360312156128fc57600080fd5b604051608081016001600160401b03828210818311171561291f5761291f6121ab565b8160405284359150612930826120df565b8183526020850135602084015260408501356040840152606085013591508082111561295b57600080fd5b50612968368286016124bd565b60608301525092915050565b60008251612986818460208701612063565b9190910192915050565b6000826129ad57634e487b7160e01b600052601260045260246000fd5b500490565b634e487b7160e01b600052600160045260246000fd5b6020808252602b908201527f496e697469616c697a61626c653a20636f6e7472616374206973206e6f74206960408201526a6e697469616c697a696e6760a81b606082015260800190565b604081526000612a276040830185876127a7565b9050826020830152949350505050565b600060408284031215612a4957600080fd5b604051604081018181106001600160401b0382111715612a6b57612a6b6121ab565b604052825181526020928301519281019290925250919050565b808201808211156106ac576106ac612743565b80820281158282048414176106ac576106ac612743565b6000610100808352612ac48184018d8f6127a7565b6001600160a01b038c81166020860152604085018c9052606085018b90528916608085015283810360a08501529050612afe8187896127d0565b94151560c0840152505061ffff9190911660e09091015298975050505050505050565b60008451612b33818460208901612063565b60609490941b6bffffffffffffffffffffffff191691909301908152601481019190915260340192915050565b7f416363657373436f6e74726f6c3a206163636f756e7420000000000000000000815260008351612b98816017850160208801612063565b7001034b99036b4b9b9b4b733903937b6329607d1b6017918401918201528351612bc9816028840160208801612063565b01602801949350505050565b634e487b7160e01b600052602160045260246000fd5b828152604060208201526000610ebe6040830184612087565b600081612c1357612c13612743565b50600019019056fe412386de53449251cbf7ce1f4c6a038bf9c0746e62d331b08ef0c3fa7d0ab6729f2df0fed2c77648de5860a4cc508cd0818c85b8b8a1ab4ceeef8d981c8956a660793a5062d506d35cc8f1beda67ee5028c16bfcd9c923d5bfc439c04bd929b1a164736f6c6343000811000a",
  "linkReferences": {},
  "deployedLinkReferences": {}
}