{
  "_format": "hh-sol-artifact-1",
  "contractName": "ENSCustody",
  "sourceName": "contracts/custody/ENSCustody.sol",
  "abi": [
    {
      "inputs": [],
      "stateMutability": "nonpayable",
      "type": "constructor"
    },
    {
      "inputs": [],
      "name": "CustodyNotEnoughBalance",
      "type": "error"
    },
    {
      "inputs": [
        {
          "internalType": "uint256",
          "name": "tokenId",
          "type": "uint256"
        }
      ],
      "name": "InvalidForwardedToken",
      "type": "error"
    },
    {
      "inputs": [],
      "name": "InvalidSignature",
      "type": "error"
    },
    {
      "inputs": [
        {
          "internalType": "uint256",
          "name": "tokenId",
          "type": "uint256"
        }
      ],
      "name": "InvalidToken",
      "type": "error"
    },
    {
      "inputs": [],
      "name": "OperationProhibited",
      "type": "error"
    },
    {
      "inputs": [
        {
          "internalType": "uint256",
          "name": "tokenId",
          "type": "uint256"
        },
        {
          "internalType": "address",
          "name": "addr",
          "type": "address"
        }
      ],
      "name": "Unauthorised",
      "type": "error"
    },
    {
      "inputs": [
        {
          "internalType": "uint256",
          "name": "tokenId",
          "type": "uint256"
        }
      ],
      "name": "UnknownToken",
      "type": "error"
    },
    {
      "anonymous": false,
      "inputs": [
        {
          "indexed": false,
          "internalType": "uint8",
          "name": "version",
          "type": "uint8"
        }
      ],
      "name": "Initialized",
      "type": "event"
    },
    {
      "anonymous": false,
      "inputs": [
        {
          "indexed": true,
          "internalType": "address",
          "name": "previousOwner",
          "type": "address"
        },
        {
          "indexed": true,
          "internalType": "address",
          "name": "newOwner",
          "type": "address"
        }
      ],
      "name": "OwnershipTransferred",
      "type": "event"
    },
    {
      "anonymous": false,
      "inputs": [
        {
          "indexed": true,
          "internalType": "uint256",
          "name": "tokenId",
          "type": "uint256"
        },
        {
          "indexed": true,
          "internalType": "address",
          "name": "owner",
          "type": "address"
        }
      ],
      "name": "Parked",
      "type": "event"
    },
    {
      "anonymous": false,
      "inputs": [
        {
          "indexed": true,
          "internalType": "bytes32",
          "name": "role",
          "type": "bytes32"
        },
        {
          "indexed": true,
          "internalType": "bytes32",
          "name": "previousAdminRole",
          "type": "bytes32"
        },
        {
          "indexed": true,
          "internalType": "bytes32",
          "name": "newAdminRole",
          "type": "bytes32"
        }
      ],
      "name": "RoleAdminChanged",
      "type": "event"
    },
    {
      "anonymous": false,
      "inputs": [
        {
          "indexed": true,
          "internalType": "bytes32",
          "name": "role",
          "type": "bytes32"
        },
        {
          "indexed": true,
          "internalType": "address",
          "name": "account",
          "type": "address"
        },
        {
          "indexed": true,
          "internalType": "address",
          "name": "sender",
          "type": "address"
        }
      ],
      "name": "RoleGranted",
      "type": "event"
    },
    {
      "anonymous": false,
      "inputs": [
        {
          "indexed": true,
          "internalType": "bytes32",
          "name": "role",
          "type": "bytes32"
        },
        {
          "indexed": true,
          "internalType": "address",
          "name": "account",
          "type": "address"
        },
        {
          "indexed": true,
          "internalType": "address",
          "name": "sender",
          "type": "address"
        }
      ],
      "name": "RoleRevoked",
      "type": "event"
    },
    {
      "inputs": [],
      "name": "DEFAULT_ADMIN_ROLE",
      "outputs": [
        {
          "internalType": "bytes32",
          "name": "",
          "type": "bytes32"
        }
      ],
      "stateMutability": "view",
      "type": "function"
    },
    {
      "inputs": [],
      "name": "MINTER_ROLE",
      "outputs": [
        {
          "internalType": "bytes32",
          "name": "",
          "type": "bytes32"
        }
      ],
      "stateMutability": "view",
      "type": "function"
    },
    {
      "inputs": [],
      "name": "NAME",
      "outputs": [
        {
          "internalType": "string",
          "name": "",
          "type": "string"
        }
      ],
      "stateMutability": "view",
      "type": "function"
    },
    {
      "inputs": [],
      "name": "VERSION",
      "outputs": [
        {
          "internalType": "string",
          "name": "",
          "type": "string"
        }
      ],
      "stateMutability": "view",
      "type": "function"
    },
    {
      "inputs": [
        {
          "internalType": "address",
          "name": "account",
          "type": "address"
        }
      ],
      "name": "addMinter",
      "outputs": [],
      "stateMutability": "nonpayable",
      "type": "function"
    },
    {
      "inputs": [
        {
          "internalType": "address[]",
          "name": "accounts",
          "type": "address[]"
        }
      ],
      "name": "addMinters",
      "outputs": [],
      "stateMutability": "nonpayable",
      "type": "function"
    },
    {
      "inputs": [
        {
          "internalType": "address payable",
          "name": "receiver",
          "type": "address"
        }
      ],
      "name": "closeMinter",
      "outputs": [],
      "stateMutability": "payable",
      "type": "function"
    },
    {
      "inputs": [
        {
          "internalType": "bytes32",
          "name": "commitment",
          "type": "bytes32"
        }
      ],
      "name": "commit",
      "outputs": [],
      "stateMutability": "nonpayable",
      "type": "function"
    },
    {
      "inputs": [
        {
          "components": [
            {
              "internalType": "address",
              "name": "from",
              "type": "address"
            },
            {
              "internalType": "uint256",
              "name": "nonce",
              "type": "uint256"
            },
            {
              "internalType": "uint256",
              "name": "tokenId",
              "type": "uint256"
            },
            {
              "internalType": "bytes",
              "name": "data",
              "type": "bytes"
            }
          ],
          "internalType": "struct IForwarder.ForwardRequest",
          "name": "req",
          "type": "tuple"
        },
        {
          "internalType": "bytes",
          "name": "signature",
          "type": "bytes"
        }
      ],
      "name": "execute",
      "outputs": [
        {
          "internalType": "bytes",
          "name": "",
          "type": "bytes"
        }
      ],
      "stateMutability": "nonpayable",
      "type": "function"
    },
    {
      "inputs": [
        {
          "internalType": "bytes32",
          "name": "role",
          "type": "bytes32"
        }
      ],
      "name": "getRoleAdmin",
      "outputs": [
        {
          "internalType": "bytes32",
          "name": "",
          "type": "bytes32"
        }
      ],
      "stateMutability": "view",
      "type": "function"
    },
    {
      "inputs": [
        {
          "internalType": "bytes32",
          "name": "role",
          "type": "bytes32"
        },
        {
          "internalType": "address",
          "name": "account",
          "type": "address"
        }
      ],
      "name": "grantRole",
      "outputs": [],
      "stateMutability": "nonpayable",
      "type": "function"
    },
    {
      "inputs": [
        {
          "internalType": "bytes32",
          "name": "role",
          "type": "bytes32"
        },
        {
          "internalType": "address",
          "name": "account",
          "type": "address"
        }
      ],
      "name": "hasRole",
      "outputs": [
        {
          "internalType": "bool",
          "name": "",
          "type": "bool"
        }
      ],
      "stateMutability": "view",
      "type": "function"
    },
    {
      "inputs": [
        {
          "internalType": "address",
          "name": "controller",
          "type": "address"
        },
        {
          "internalType": "address",
          "name": "wrapper",
          "type": "address"
        },
        {
          "internalType": "address",
          "name": "registrar",
          "type": "address"
        }
      ],
      "name": "initialize",
      "outputs": [],
      "stateMutability": "nonpayable",
      "type": "function"
    },
    {
      "inputs": [
        {
          "internalType": "address",
          "name": "account",
          "type": "address"
        }
      ],
      "name": "isMinter",
      "outputs": [
        {
          "internalType": "bool",
          "name": "",
          "type": "bool"
        }
      ],
      "stateMutability": "view",
      "type": "function"
    },
    {
      "inputs": [
        {
          "internalType": "address",
          "name": "forwarder",
          "type": "address"
        }
      ],
      "name": "isTrustedForwarder",
      "outputs": [
        {
          "internalType": "bool",
          "name": "",
          "type": "bool"
        }
      ],
      "stateMutability": "view",
      "type": "function"
    },
    {
      "inputs": [
        {
          "internalType": "string",
          "name": "name",
          "type": "string"
        },
        {
          "internalType": "address",
          "name": "owner",
          "type": "address"
        },
        {
          "internalType": "uint256",
          "name": "duration",
          "type": "uint256"
        },
        {
          "internalType": "bytes32",
          "name": "secret",
          "type": "bytes32"
        },
        {
          "internalType": "address",
          "name": "resolver",
          "type": "address"
        },
        {
          "internalType": "bytes[]",
          "name": "data",
          "type": "bytes[]"
        },
        {
          "internalType": "bool",
          "name": "reverseRecord",
          "type": "bool"
        },
        {
          "internalType": "uint16",
          "name": "ownerControlledFuses",
          "type": "uint16"
        },
        {
          "internalType": "bool",
          "name": "selfCustody",
          "type": "bool"
        }
      ],
      "name": "makeCommitment",
      "outputs": [
        {
          "internalType": "bytes32",
          "name": "",
          "type": "bytes32"
        }
      ],
      "stateMutability": "view",
      "type": "function"
    },
    {
      "inputs": [
        {
          "internalType": "uint256",
          "name": "tokenId",
          "type": "uint256"
        }
      ],
      "name": "nonceOf",
      "outputs": [
        {
          "internalType": "uint256",
          "name": "",
          "type": "uint256"
        }
      ],
      "stateMutability": "view",
      "type": "function"
    },
    {
      "inputs": [
        {
          "internalType": "address",
          "name": "",
          "type": "address"
        },
        {
          "internalType": "address",
          "name": "",
          "type": "address"
        },
        {
          "internalType": "uint256[]",
          "name": "tokenIds",
          "type": "uint256[]"
        },
        {
          "internalType": "uint256[]",
          "name": "",
          "type": "uint256[]"
        },
        {
          "internalType": "bytes",
          "name": "data",
          "type": "bytes"
        }
      ],
      "name": "onERC1155BatchReceived",
      "outputs": [
        {
          "internalType": "bytes4",
          "name": "",
          "type": "bytes4"
        }
      ],
      "stateMutability": "nonpayable",
      "type": "function"
    },
    {
      "inputs": [
        {
          "internalType": "address",
          "name": "",
          "type": "address"
        },
        {
          "internalType": "address",
          "name": "from",
          "type": "address"
        },
        {
          "internalType": "uint256",
          "name": "tokenId",
          "type": "uint256"
        },
        {
          "internalType": "uint256",
          "name": "",
          "type": "uint256"
        },
        {
          "internalType": "bytes",
          "name": "data",
          "type": "bytes"
        }
      ],
      "name": "onERC1155Received",
      "outputs": [
        {
          "internalType": "bytes4",
          "name": "",
          "type": "bytes4"
        }
      ],
      "stateMutability": "nonpayable",
      "type": "function"
    },
    {
      "inputs": [
        {
          "internalType": "address",
          "name": "",
          "type": "address"
        },
        {
          "internalType": "address",
          "name": "",
          "type": "address"
        },
        {
          "internalType": "uint256",
          "name": "tokenId",
          "type": "uint256"
        },
        {
          "internalType": "bytes",
          "name": "data",
          "type": "bytes"
        }
      ],
      "name": "onERC721Received",
      "outputs": [
        {
          "internalType": "bytes4",
          "name": "",
          "type": "bytes4"
        }
      ],
      "stateMutability": "nonpayable",
      "type": "function"
    },
    {
      "inputs": [],
      "name": "owner",
      "outputs": [
        {
          "internalType": "address",
          "name": "",
          "type": "address"
        }
      ],
      "stateMutability": "view",
      "type": "function"
    },
    {
      "inputs": [
        {
          "internalType": "uint256",
          "name": "tokenId",
          "type": "uint256"
        }
      ],
      "name": "ownerOf",
      "outputs": [
        {
          "internalType": "address",
          "name": "",
          "type": "address"
        }
      ],
      "stateMutability": "view",
      "type": "function"
    },
    {
      "inputs": [
        {
          "internalType": "string",
          "name": "name",
          "type": "string"
        },
        {
          "internalType": "address",
          "name": "owner",
          "type": "address"
        },
        {
          "internalType": "uint256",
          "name": "duration",
          "type": "uint256"
        },
        {
          "internalType": "bytes32",
          "name": "secret",
          "type": "bytes32"
        },
        {
          "internalType": "address",
          "name": "resolver",
          "type": "address"
        },
        {
          "internalType": "bytes[]",
          "name": "data",
          "type": "bytes[]"
        },
        {
          "internalType": "bool",
          "name": "reverseRecord",
          "type": "bool"
        },
        {
          "internalType": "uint16",
          "name": "ownerControlledFuses",
          "type": "uint16"
        },
        {
          "internalType": "bool",
          "name": "selfCustody",
          "type": "bool"
        }
      ],
      "name": "register",
      "outputs": [],
      "stateMutability": "nonpayable",
      "type": "function"
    },
    {
      "inputs": [
        {
          "internalType": "address",
          "name": "account",
          "type": "address"
        }
      ],
      "name": "removeMinter",
      "outputs": [],
      "stateMutability": "nonpayable",
      "type": "function"
    },
    {
      "inputs": [
        {
          "internalType": "address[]",
          "name": "accounts",
          "type": "address[]"
        }
      ],
      "name": "removeMinters",
      "outputs": [],
      "stateMutability": "nonpayable",
      "type": "function"
    },
    {
      "inputs": [
        {
          "internalType": "string",
          "name": "name",
          "type": "string"
        },
        {
          "internalType": "uint256",
          "name": "duration",
          "type": "uint256"
        }
      ],
      "name": "renew",
      "outputs": [],
      "stateMutability": "nonpayable",
      "type": "function"
    },
    {
      "inputs": [],
      "name": "renounceMinter",
      "outputs": [],
      "stateMutability": "nonpayable",
      "type": "function"
    },
    {
      "inputs": [],
      "name": "renounceOwnership",
      "outputs": [],
      "stateMutability": "nonpayable",
      "type": "function"
    },
    {
      "inputs": [
        {
          "internalType": "bytes32",
          "name": "role",
          "type": "bytes32"
        },
        {
          "internalType": "address",
          "name": "account",
          "type": "address"
        }
      ],
      "name": "renounceRole",
      "outputs": [],
      "stateMutability": "nonpayable",
      "type": "function"
    },
    {
      "inputs": [
        {
          "internalType": "string",
          "name": "name",
          "type": "string"
        },
        {
          "internalType": "uint256",
          "name": "duration",
          "type": "uint256"
        }
      ],
      "name": "rentPrice",
      "outputs": [
        {
          "internalType": "uint256",
          "name": "",
          "type": "uint256"
        }
      ],
      "stateMutability": "view",
      "type": "function"
    },
    {
      "inputs": [
        {
          "internalType": "bytes32",
          "name": "role",
          "type": "bytes32"
        },
        {
          "internalType": "address",
          "name": "account",
          "type": "address"
        }
      ],
      "name": "revokeRole",
      "outputs": [],
      "stateMutability": "nonpayable",
      "type": "function"
    },
    {
      "inputs": [
        {
          "internalType": "address payable",
          "name": "receiver",
          "type": "address"
        }
      ],
      "name": "rotateMinter",
      "outputs": [],
      "stateMutability": "payable",
      "type": "function"
    },
    {
      "inputs": [
        {
          "internalType": "address",
          "name": "to",
          "type": "address"
        },
        {
          "internalType": "uint256",
          "name": "tokenId",
          "type": "uint256"
        }
      ],
      "name": "safeTransfer",
      "outputs": [],
      "stateMutability": "nonpayable",
      "type": "function"
    },
    {
      "inputs": [
        {
          "internalType": "address",
          "name": "baseRegistrar",
          "type": "address"
        }
      ],
      "name": "setBaseRegistrar",
      "outputs": [],
      "stateMutability": "nonpayable",
      "type": "function"
    },
    {
      "inputs": [
        {
          "internalType": "bytes4",
          "name": "interfaceId",
          "type": "bytes4"
        }
      ],
      "name": "supportsInterface",
      "outputs": [
        {
          "internalType": "bool",
          "name": "",
          "type": "bool"
        }
      ],
      "stateMutability": "view",
      "type": "function"
    },
    {
      "inputs": [
        {
          "internalType": "address",
          "name": "newOwner",
          "type": "address"
        }
      ],
      "name": "transferOwnership",
      "outputs": [],
      "stateMutability": "nonpayable",
      "type": "function"
    },
    {
      "inputs": [
        {
          "components": [
            {
              "internalType": "address",
              "name": "from",
              "type": "address"
            },
            {
              "internalType": "uint256",
              "name": "nonce",
              "type": "uint256"
            },
            {
              "internalType": "uint256",
              "name": "tokenId",
              "type": "uint256"
            },
            {
              "internalType": "bytes",
              "name": "data",
              "type": "bytes"
            }
          ],
          "internalType": "struct IForwarder.ForwardRequest",
          "name": "req",
          "type": "tuple"
        },
        {
          "internalType": "bytes",
          "name": "signature",
          "type": "bytes"
        }
      ],
      "name": "verify",
      "outputs": [
        {
          "internalType": "bool",
          "name": "",
          "type": "bool"
        }
      ],
      "stateMutability": "view",
      "type": "function"
    },
    {
      "stateMutability": "payable",
      "type": "receive"
    }
  ],
  "bytecode": "0x60806040523480156200001157600080fd5b506200001c62000022565b620000e4565b600054610100900460ff16156200008f5760405162461bcd60e51b815260206004820152602760248201527f496e697469616c697a61626c653a20636f6e747261637420697320696e697469604482015266616c697a696e6760c81b606482015260840160405180910390fd5b60005460ff9081161015620000e2576000805460ff191660ff9081179091556040519081527f7f26b83ff96e1f2b6a682f133852f6798a09c465da95921460cefb38474024989060200160405180910390a15b565b6133e580620000f46000396000f3fe60806040526004361061021e5760003560e01c80638da5cb5b11610123578063acf1a841116100ab578063d547741f1161006f578063d547741f14610682578063f14fcbc8146106a2578063f23a6e61146106c2578063f2fde38b146106e2578063ffa1ad741461070257600080fd5b8063acf1a841146105e0578063bc197c8114610600578063c0c53b8b14610620578063cf01585314610640578063d53913931461066057600080fd5b8063a0e3aef1116100f2578063a0e3aef114610534578063a217fddf14610554578063a3f4df7e14610569578063a4247400146105a0578063aa271e1a146105c057600080fd5b80638da5cb5b146104c157806391d14854146104df578063983b2d56146104ff578063986502751461051f57600080fd5b80635fc1964f116101a65780636ccbae5f116101755780636ccbae5f14610439578063715018a61461045957806371e2a6571461046e57806381c81d351461048e57806383e7f6ff146104a157600080fd5b80635fc1964f146103ae578063634486da146103ce5780636352211e146103e15780636a8be89e1461041957600080fd5b80632f2ff15d116101ed5780632f2ff15d146103035780633092afd51461032557806336568abe14610345578063423f6cef14610365578063572b6c051461038557600080fd5b806301ffc9a71461022a578063150b7a021461025f5780631bf7e13e14610298578063248a9ca3146102c557600080fd5b3661022557005b600080fd5b34801561023657600080fd5b5061024a610245366004612596565b610733565b60405190151581526020015b60405180910390f35b34801561026b57600080fd5b5061027f61027a366004612616565b610779565b6040516001600160e01b03199091168152602001610256565b3480156102a457600080fd5b506102b86102b3366004612688565b6108c3565b6040516102569190612748565b3480156102d157600080fd5b506102f56102e036600461275b565b600090815260fb602052604090206001015490565b604051908152602001610256565b34801561030f57600080fd5b5061032361031e366004612774565b61098f565b005b34801561033157600080fd5b506103236103403660046127a4565b6109b9565b34801561035157600080fd5b50610323610360366004612774565b6109cd565b34801561037157600080fd5b506103236103803660046127c1565b610a60565b34801561039157600080fd5b5061024a6103a03660046127a4565b6001600160a01b0316301490565b3480156103ba57600080fd5b506103236103c9366004612833565b610bd1565b6103236103dc3660046127a4565b610c19565b3480156103ed57600080fd5b506104016103fc36600461275b565b610cdc565b6040516001600160a01b039091168152602001610256565b34801561042557600080fd5b506103236104343660046127a4565b610ce7565b34801561044557600080fd5b506102f561045436600461275b565b610d30565b34801561046557600080fd5b50610323610d76565b34801561047a57600080fd5b50610323610489366004612833565b610d8a565b61032361049c3660046127a4565b610dd2565b3480156104ad57600080fd5b506102f56104bc3660046128d8565b610e4f565b3480156104cd57600080fd5b506097546001600160a01b0316610401565b3480156104eb57600080fd5b5061024a6104fa366004612774565b610ef2565b34801561050b57600080fd5b5061032361051a3660046127a4565b610f1d565b34801561052b57600080fd5b50610323610f2e565b34801561054057600080fd5b506102f561054f366004612a00565b610f48565b34801561056057600080fd5b506102f5600081565b34801561057557600080fd5b506102b86040518060400160405280600b81526020016a454e5320437573746f647960a81b81525081565b3480156105ac57600080fd5b5061024a6105bb366004612688565b610ff4565b3480156105cc57600080fd5b5061024a6105db3660046127a4565b611047565b3480156105ec57600080fd5b506103236105fb3660046128d8565b611061565b34801561060c57600080fd5b5061027f61061b366004612ad9565b61121a565b34801561062c57600080fd5b5061032361063b366004612b97565b6112ca565b34801561064c57600080fd5b5061032361065b366004612be2565b611474565b34801561066c57600080fd5b506102f560008051602061339983398151915281565b34801561068e57600080fd5b5061032361069d366004612774565b611581565b3480156106ae57600080fd5b506103236106bd36600461275b565b6115a6565b3480156106ce57600080fd5b5061027f6106dd366004612cc4565b61161a565b3480156106ee57600080fd5b506103236106fd3660046127a4565b61169b565b34801561070e57600080fd5b506102b860405180604001604052806005815260200164302e312e3360d81b81525081565b60006001600160e01b03198216630a85bd0160e11b148061076457506001600160e01b03198216630271189760e51b145b806107735750610773826116b7565b92915050565b7ff851d5f4fccb32d2a48561b7acc01b5d4d46b7e138d49f887026f203b08c5004546000906001600160a01b0316806107b06116ec565b6001600160a01b0316036108a157600080806107ce86880188612d3f565b919450925090506001600160a01b03841663b88d4fde306000805160206133b9833981519152546040516001600160a01b03909116908c9061081b90879030906000908b90602001612da0565b6040516020818303038152906040526040518563ffffffff1660e01b81526004016108499493929190612de0565b600060405180830381600087803b15801561086357600080fd5b505af1158015610877573d6000803e3d6000fd5b5050505061088d610887826116fb565b84611780565b50630a85bd0160e11b93506108ba92505050565b6040516344e7d94960e01b815260040160405180910390fd5b95945050505050565b606060005a90506108d5858585610ff4565b6108f257604051638baa579f60e01b815260040160405180910390fd5b61098461090260208701876127a4565b3060408801358461091660608b018b612e13565b8080601f01602080910402602001604051908101604052809392919081815260200183838082843760009201919091525050604080516020601f8e018190048102820181019092528c815292508c91508b908190840183828082843760009201919091525061180b92505050565b9150505b9392505050565b600082815260fb60205260409020600101546109aa816118ec565b6109b483836118fd565b505050565b6109c1611984565b6109ca816119fd565b50565b6109d56116ec565b6001600160a01b0316816001600160a01b031614610a525760405162461bcd60e51b815260206004820152602f60248201527f416363657373436f6e74726f6c3a2063616e206f6e6c792072656e6f756e636560448201526e103937b632b9903337b91039b2b63360891b60648201526084015b60405180910390fd5b610a5c8282611a15565b5050565b80610a696116ec565b6001600160a01b0316610a7b82611a9a565b6001600160a01b031614610abd5780610a926116ec565b604051637ea58b1160e01b815260048101929092526001600160a01b03166024820152604401610a49565b610ac682611bb0565b604080517f0a8885dd093a12d378a27df09bde33e3caca641a3d6970e06805fde8e847cb466020820152908101839052600090610b1a906060015b6040516020818303038152906040528051906020012090565b80546001600160a01b0319166001600160a01b039290921691909117905560006000805160206133b983398151915254604051637921219560e11b81523060048201526001600160a01b038681166024830152604482018690526001606483015260a06084830152600060a48301529091169150819063f242432a9060c401600060405180830381600087803b158015610bb357600080fd5b505af1158015610bc7573d6000803e3d6000fd5b5050505050505050565b610bd9611984565b60005b8151811015610a5c57610c07828281518110610bfa57610bfa612e59565b60200260200101516119fd565b80610c1181612e85565b915050610bdc565b610c246105db6116ec565b610c405760405162461bcd60e51b8152600401610a4990612e9e565b6001600160a01b038116610c965760405162461bcd60e51b815260206004820152601d60248201527f4d696e746572526f6c653a2052454345495645525f49535f454d5054590000006044820152606401610a49565b610c9f81611bea565b610ca7610f2e565b6040516001600160a01b038216903480156108fc02916000818181858888f19350505050158015610a5c573d6000803e3d6000fd5b600061077382611a9a565b610cef611984565b7ff851d5f4fccb32d2a48561b7acc01b5d4d46b7e138d49f887026f203b08c500480546001600160a01b0319166001600160a01b0392909216919091179055565b604080517f1ee5d87a048b728f67073f282321992c260e5be4fa651d08665c5b4ee7a838156020820152908101829052600090610d6f90606001610b01565b5492915050565b610d7e611984565b610d886000611c02565b565b610d92611984565b60005b8151811015610a5c57610dc0828281518110610db357610db3612e59565b6020026020010151611bea565b80610dca81612e85565b915050610d95565b610ddd6105db6116ec565b610df95760405162461bcd60e51b8152600401610a4990612e9e565b6001600160a01b038116610c9f5760405162461bcd60e51b815260206004820152601d60248201527f4d696e746572526f6c653a2052454345495645525f49535f454d5054590000006044820152606401610a49565b600080516020613379833981519152546040516383e7f6ff60e01b81526000916001600160a01b031690829082906383e7f6ff90610e9590899089908990600401612efc565b6040805180830381865afa158015610eb1573d6000803e3d6000fd5b505050506040513d601f19601f82011682018060405250810190610ed59190612f20565b60208101518151919250610ee891612f6e565b9695505050505050565b600091825260fb602090815260408084206001600160a01b0393909316845291905290205460ff1690565b610f25611984565b6109ca81611bea565b610d886000805160206133998339815191526103606116ec565b600080516020613379833981519152546000906001600160a01b0316806365a69dcf8d85610f765730610f78565b8d5b8d8d8d8d8d8d8d6040518a63ffffffff1660e01b8152600401610fa399989796959493929190613012565b602060405180830381865afa158015610fc0573d6000803e3d6000fd5b505050506040513d601f19601f82011682018060405250810190610fe49190613082565b9c9b505050505050505050505050565b600061103f6110028561309b565b3085858080601f016020809104026020016040519081016040528093929190818152602001838380828437600092019190915250611c5492505050565b949350505050565b600061077360008051602061339983398151915283610ef2565b61106c6105db6116ec565b6110885760405162461bcd60e51b8152600401610a4990612e9e565b6002603354036110da5760405162461bcd60e51b815260206004820152601f60248201527f5265656e7472616e637947756172643a207265656e7472616e742063616c6c006044820152606401610a49565b6002603355600080516020613379833981519152546040516383e7f6ff60e01b81526001600160a01b039091169060009082906383e7f6ff9061112590889088908890600401612efc565b6040805180830381865afa158015611141573d6000803e3d6000fd5b505050506040513d601f19601f820116820180604052508101906111659190612f20565b6020810151815191925061117891612f6e565b4710156111985760405163050205f960e01b815260040160405180910390fd5b816001600160a01b031663acf1a841826020015183600001516111bb9190612f6e565b8787876040518563ffffffff1660e01b81526004016111dc93929190612efc565b6000604051808303818588803b1580156111f557600080fd5b505af1158015611209573d6000803e3d6000fd5b505060016033555050505050505050565b60006000805160206133b9833981519152546001600160a01b031661123d6116ec565b6001600160a01b031614611264576040516344e7d94960e01b815260040160405180910390fd5b6000611272838501856127a4565b905060005b878110156112b3576112a189898381811061129457611294612e59565b9050602002013583611780565b806112ab81612e85565b915050611277565b5063bc197c8160e01b9a9950505050505050505050565b600054610100900460ff16158080156112ea5750600054600160ff909116105b806113045750303b158015611304575060005460ff166001145b6113675760405162461bcd60e51b815260206004820152602e60248201527f496e697469616c697a61626c653a20636f6e747261637420697320616c72656160448201526d191e481a5b9a5d1a585b1a5e995960921b6064820152608401610a49565b6000805460ff19166001179055801561138a576000805461ff0019166101001790555b60008051602061337983398151915280546001600160a01b038087166001600160a01b0319928316179092556000805160206133b983398151915280548684169083161790557ff851d5f4fccb32d2a48561b7acc01b5d4d46b7e138d49f887026f203b08c5004805492851692909116919091179055611408611d93565b611410611dc1565b611418611dc1565b611420611de8565b611428611e1f565b801561146e576000805461ff0019169055604051600181527f7f26b83ff96e1f2b6a682f133852f6798a09c465da95921460cefb38474024989060200160405180910390a15b50505050565b61147f6105db6116ec565b61149b5760405162461bcd60e51b8152600401610a4990612e9e565b6002603354036114ed5760405162461bcd60e51b815260206004820152601f60248201527f5265656e7472616e637947756172643a207265656e7472616e742063616c6c006044820152606401610a49565b600260338190555060006115368c8c8080601f0160208091040260200160405190810160405280939291908181526020018383808284376000920191909152506116fb92505050565b905061154181611bb0565b61155f8c8c846115515730611553565b8c5b8c8c8c8c8c8c8c611e58565b8161156e5761156e818b611780565b5050600160335550505050505050505050565b600082815260fb602052604090206001015461159c816118ec565b6109b48383611a15565b600060008051602061337983398151915254604051631e29f97960e31b8152600481018490526001600160a01b039091169150819063f14fcbc890602401600060405180830381600087803b1580156115fe57600080fd5b505af1158015611612573d6000803e3d6000fd5b505050505050565b60006000805160206133b9833981519152546001600160a01b031661163d6116ec565b6001600160a01b031614611664576040516344e7d94960e01b815260040160405180910390fd5b6001600160a01b038616156116885761168885611683848601866127a4565b611780565b5063f23a6e6160e01b9695505050505050565b6116a3611984565b6116ac81611fa3565b6109ca600082612019565b60006001600160e01b03198216637965db0b60e01b148061077357506301ffc9a760e01b6001600160e01b0319831614610773565b60006116f6612023565b905090565b60007f93cdeb708b7545dc668eb9280176169d1c33cfd8ed6f04690a0bcc88a93fc4ae60001b826040516020016117329190613139565b60405160208183030381529060405280519060200120604051602001611762929190918252602082015260400190565b60408051601f19818403018152919052805160209091012092915050565b604080517f0a8885dd093a12d378a27df09bde33e3caca641a3d6970e06805fde8e847cb46602082015290810183905281906117be90606001610b01565b80546001600160a01b0319166001600160a01b039283161790556040519082169083907f45aa97e368889fb3527c1db60c59c2ae91e82f21778613449e46d4208c1c4b1290600090a35050565b606061181685612041565b600080876001600160a01b0316866118308b8a89896120a7565b60405161183d9190613139565b60006040518083038160008787f1925050503d806000811461187b576040519150601f19603f3d011682016040523d82523d6000602084013e611880565b606091505b509092509050611891603f87613155565b5a1161189f5761189f613177565b6118df82826040518060400160405280601a81526020017f42617365466f727761726465723a2043414c4c5f4641494c45440000000000008152506120d7565b9998505050505050505050565b6109ca816118f86116ec565b612110565b6119078282610ef2565b610a5c57600082815260fb602090815260408083206001600160a01b03851684529091529020805460ff191660011790556119406116ec565b6001600160a01b0316816001600160a01b0316837f2f8788117e7eff1d82e926ec794901d17c78024a50270940304540a733656f0d60405160405180910390a45050565b61198c6116ec565b6001600160a01b03166119a76097546001600160a01b031690565b6001600160a01b031614610d885760405162461bcd60e51b815260206004820181905260248201527f4f776e61626c653a2063616c6c6572206973206e6f7420746865206f776e65726044820152606401610a49565b6109ca60008051602061339983398151915282611581565b611a1f8282610ef2565b15610a5c57600082815260fb602090815260408083206001600160a01b03851684529091529020805460ff19169055611a566116ec565b6001600160a01b0316816001600160a01b0316837ff6391f5c32d9c69d2a47ea670b442974b53935d1edc7fd64eb21e047a839171b60405160405180910390a45050565b604080517f0a8885dd093a12d378a27df09bde33e3caca641a3d6970e06805fde8e847cb466020820152908101829052600090611ad990606001610b01565b546001600160a01b0316905080611b065760405163124bad6360e31b815260048101839052602401610a49565b306000805160206133b9833981519152546040516331a9108f60e11b8152600481018590526001600160a01b0390911690636352211e90602401602060405180830381865afa158015611b5d573d6000803e3d6000fd5b505050506040513d601f19601f82011682018060405250810190611b81919061318d565b6001600160a01b031614611bab576040516303b673fd60e21b815260048101839052602401610a49565b919050565b303303611be157611bbf612174565b81146109ca57604051635637b6af60e11b815260048101829052602401610a49565b6109ca81612041565b6109ca60008051602061339983398151915282612019565b609780546001600160a01b038381166001600160a01b0319831681179093556040519116919082907f8be0079c531659141344cd1fd0a4f28419497f9722a3daafe3b4186f6b6457e090600090a35050565b6040838101519051636ccbae5f60e01b8152600481019190915260009081903090636ccbae5f90602401602060405180830381865afa158015611c9b573d6000803e3d6000fd5b505050506040513d601f19601f82011682018060405250810190611cbf9190613082565b90506000611d6d866060015180519060200120868860200151604051602001611d0d9392919092835260609190911b6bffffffffffffffffffffffff19166020830152603482015260540190565b60408051601f1981840301815282825280516020918201207f19457468657265756d205369676e6564204d6573736167653a0a33320000000084830152603c8085019190915282518085039091018152605c909301909152815191012090565b9050818660200151148015610ee857508551610ee8906001600160a01b03168286612187565b600054610100900460ff16611dba5760405162461bcd60e51b8152600401610a49906131aa565b6001603355565b600054610100900460ff16610d885760405162461bcd60e51b8152600401610a49906131aa565b600054610100900460ff16611e0f5760405162461bcd60e51b8152600401610a49906131aa565b610d88611e1a6116ec565b611c02565b600054610100900460ff16611e465760405162461bcd60e51b8152600401610a49906131aa565b610d886000611e536116ec565b612019565b600080516020613379833981519152546040516383e7f6ff60e01b81526001600160a01b039091169060009082906383e7f6ff90611e9e908f908f908e90600401612efc565b6040805180830381865afa158015611eba573d6000803e3d6000fd5b505050506040513d601f19601f82011682018060405250810190611ede9190612f20565b60208101518151919250611ef191612f6e565b471015611f115760405163050205f960e01b815260040160405180910390fd5b816001600160a01b03166374694a2b82602001518360000151611f349190612f6e565b8e8e8e8e8e8e8e8e8e8e6040518c63ffffffff1660e01b8152600401611f639a999897969594939291906131f5565b6000604051808303818588803b158015611f7c57600080fd5b505af1158015611f90573d6000803e3d6000fd5b5050505050505050505050505050505050565b611fab611984565b6001600160a01b0381166120105760405162461bcd60e51b815260206004820152602660248201527f4f776e61626c653a206e6577206f776e657220697320746865207a65726f206160448201526564647265737360d01b6064820152608401610a49565b6109ca81611c02565b610a5c82826118fd565b6000303303612039575060331936013560601c90565b503390565b90565b604080517f1ee5d87a048b728f67073f282321992c260e5be4fa651d08665c5b4ee7a8381560208201529081018290526000906060016040516020818303038152906040528051906020012090506120968190565b546120a2906001612f6e565b905550565b60608285856040516020016120be93929190613267565b6040516020818303038152906040529050949350505050565b606083156120e6575081610988565b8251156120f65782518084602001fd5b8160405162461bcd60e51b8152600401610a499190612748565b61211a8282610ef2565b610a5c57612132816001600160a01b031660146122c9565b61213d8360206122c9565b60405160200161214e9291906132a6565b60408051601f198184030181529082905262461bcd60e51b8252610a4991600401612748565b600030330361203e5750601f1936013590565b60008060006121968585612464565b909250905060008160048111156121af576121af61331b565b1480156121cd5750856001600160a01b0316826001600160a01b0316145b156121dd57600192505050610988565b600080876001600160a01b0316631626ba7e60e01b8888604051602401612205929190613331565b60408051601f198184030181529181526020820180516001600160e01b03166001600160e01b03199094169390931790925290516122439190613139565b600060405180830381855afa9150503d806000811461227e576040519150601f19603f3d011682016040523d82523d6000602084013e612283565b606091505b5091509150818015612296575080516020145b80156122bd57508051630b135d3f60e11b906122bb9083016020908101908401613082565b145b98975050505050505050565b606060006122d883600261334a565b6122e3906002612f6e565b6001600160401b038111156122fa576122fa6127ed565b6040519080825280601f01601f191660200182016040528015612324576020820181803683370190505b509050600360fc1b8160008151811061233f5761233f612e59565b60200101906001600160f81b031916908160001a905350600f60fb1b8160018151811061236e5761236e612e59565b60200101906001600160f81b031916908160001a905350600061239284600261334a565b61239d906001612f6e565b90505b6001811115612415576f181899199a1a9b1b9c1cb0b131b232b360811b85600f16601081106123d1576123d1612e59565b1a60f81b8282815181106123e7576123e7612e59565b60200101906001600160f81b031916908160001a90535060049490941c9361240e81613361565b90506123a0565b5083156109885760405162461bcd60e51b815260206004820181905260248201527f537472696e67733a20686578206c656e67746820696e73756666696369656e746044820152606401610a49565b600080825160410361249a5760208301516040840151606085015160001a61248e878285856124a9565b945094505050506124a2565b506000905060025b9250929050565b6000807f7fffffffffffffffffffffffffffffff5d576e7357a4501ddfe92f46681b20a08311156124e0575060009050600361258d565b8460ff16601b141580156124f857508460ff16601c14155b15612509575060009050600461258d565b6040805160008082526020820180845289905260ff881692820192909252606081018690526080810185905260019060a0016020604051602081039080840390855afa15801561255d573d6000803e3d6000fd5b5050604051601f1901519150506001600160a01b0381166125865760006001925092505061258d565b9150600090505b94509492505050565b6000602082840312156125a857600080fd5b81356001600160e01b03198116811461098857600080fd5b6001600160a01b03811681146109ca57600080fd5b60008083601f8401126125e757600080fd5b5081356001600160401b038111156125fe57600080fd5b6020830191508360208285010111156124a257600080fd5b60008060008060006080868803121561262e57600080fd5b8535612639816125c0565b94506020860135612649816125c0565b93506040860135925060608601356001600160401b0381111561266b57600080fd5b612677888289016125d5565b969995985093965092949392505050565b60008060006040848603121561269d57600080fd5b83356001600160401b03808211156126b457600080fd5b90850190608082880312156126c857600080fd5b909350602085013590808211156126de57600080fd5b506126eb868287016125d5565b9497909650939450505050565b60005b838110156127135781810151838201526020016126fb565b50506000910152565b600081518084526127348160208601602086016126f8565b601f01601f19169290920160200192915050565b602081526000610988602083018461271c565b60006020828403121561276d57600080fd5b5035919050565b6000806040838503121561278757600080fd5b823591506020830135612799816125c0565b809150509250929050565b6000602082840312156127b657600080fd5b8135610988816125c0565b600080604083850312156127d457600080fd5b82356127df816125c0565b946020939093013593505050565b634e487b7160e01b600052604160045260246000fd5b604051601f8201601f191681016001600160401b038111828210171561282b5761282b6127ed565b604052919050565b6000602080838503121561284657600080fd5b82356001600160401b038082111561285d57600080fd5b818501915085601f83011261287157600080fd5b813581811115612883576128836127ed565b8060051b9150612894848301612803565b81815291830184019184810190888411156128ae57600080fd5b938501935b838510156122bd57843592506128c8836125c0565b82825293850193908501906128b3565b6000806000604084860312156128ed57600080fd5b83356001600160401b0381111561290357600080fd5b61290f868287016125d5565b909790965060209590950135949350505050565b60006001600160401b0383111561293c5761293c6127ed565b61294f601f8401601f1916602001612803565b905082815283838301111561296357600080fd5b828260208301376000602084830101529392505050565b600082601f83011261298b57600080fd5b61098883833560208501612923565b60008083601f8401126129ac57600080fd5b5081356001600160401b038111156129c357600080fd5b6020830191508360208260051b85010111156124a257600080fd5b80358015158114611bab57600080fd5b803561ffff81168114611bab57600080fd5b6000806000806000806000806000806101208b8d031215612a2057600080fd5b8a356001600160401b0380821115612a3757600080fd5b612a438e838f0161297a565b9b5060208d01359150612a55826125c0565b90995060408c0135985060608c0135975060808c013590612a75826125c0565b90965060a08c01359080821115612a8b57600080fd5b50612a988d828e0161299a565b9096509450612aab905060c08c016129de565b9250612ab960e08c016129ee565b9150612ac86101008c016129de565b90509295989b9194979a5092959850565b60008060008060008060008060a0898b031215612af557600080fd5b8835612b00816125c0565b97506020890135612b10816125c0565b965060408901356001600160401b0380821115612b2c57600080fd5b612b388c838d0161299a565b909850965060608b0135915080821115612b5157600080fd5b612b5d8c838d0161299a565b909650945060808b0135915080821115612b7657600080fd5b50612b838b828c016125d5565b999c989b5096995094979396929594505050565b600080600060608486031215612bac57600080fd5b8335612bb7816125c0565b92506020840135612bc7816125c0565b91506040840135612bd7816125c0565b809150509250925092565b60008060008060008060008060008060006101208c8e031215612c0457600080fd5b6001600160401b03808d351115612c1a57600080fd5b612c278e8e358f016125d5565b909c509a50612c3960208e01356125c0565b60208d0135995060408d0135985060608d01359750612c5b60808e01356125c0565b60808d013596508060a08e01351115612c7357600080fd5b50612c848d60a08e01358e0161299a565b9095509350612c9560c08d016129de565b9250612ca360e08d016129ee565b9150612cb26101008d016129de565b90509295989b509295989b9093969950565b60008060008060008060a08789031215612cdd57600080fd5b8635612ce8816125c0565b95506020870135612cf8816125c0565b9450604087013593506060870135925060808701356001600160401b03811115612d2157600080fd5b612d2d89828a016125d5565b979a9699509497509295939492505050565b600080600060608486031215612d5457600080fd5b8335612d5f816125c0565b92506020840135612d6f816125c0565b915060408401356001600160401b03811115612d8a57600080fd5b612d968682870161297a565b9150509250925092565b608081526000612db3608083018761271c565b6001600160a01b03958616602084015261ffff949094166040830152509216606090920191909152919050565b6001600160a01b0385811682528416602082015260408101839052608060608201819052600090610ee89083018461271c565b6000808335601e19843603018112612e2a57600080fd5b8301803591506001600160401b03821115612e4457600080fd5b6020019150368190038213156124a257600080fd5b634e487b7160e01b600052603260045260246000fd5b634e487b7160e01b600052601160045260246000fd5b600060018201612e9757612e97612e6f565b5060010190565b6020808252818101527f4d696e746572526f6c653a2043414c4c45525f49535f4e4f545f4d494e544552604082015260600190565b81835281816020850137506000828201602090810191909152601f909101601f19169091010190565b604081526000612f10604083018587612ed3565b9050826020830152949350505050565b600060408284031215612f3257600080fd5b604051604081018181106001600160401b0382111715612f5457612f546127ed565b604052825181526020928301519281019290925250919050565b8082018082111561077357610773612e6f565b81835260006020808501808196508560051b810191508460005b878110156130055782840389528135601e19883603018112612fbc57600080fd5b870185810190356001600160401b03811115612fd757600080fd5b803603821315612fe657600080fd5b612ff1868284612ed3565b9a87019a9550505090840190600101612f9b565b5091979650505050505050565b60006101008083526130268184018d61271c565b6001600160a01b038c81166020860152604085018c9052606085018b90528916608085015283810360a08501529050613060818789612f81565b94151560c0840152505061ffff9190911660e090910152979650505050505050565b60006020828403121561309457600080fd5b5051919050565b6000608082360312156130ad57600080fd5b604051608081016001600160401b0382821081831117156130d0576130d06127ed565b81604052843591506130e1826125c0565b8183526020850135602084015260408501356040840152606085013591508082111561310c57600080fd5b50830136601f82011261311e57600080fd5b61312d36823560208401612923565b60608301525092915050565b6000825161314b8184602087016126f8565b9190910192915050565b60008261317257634e487b7160e01b600052601260045260246000fd5b500490565b634e487b7160e01b600052600160045260246000fd5b60006020828403121561319f57600080fd5b8151610988816125c0565b6020808252602b908201527f496e697469616c697a61626c653a20636f6e7472616374206973206e6f74206960408201526a6e697469616c697a696e6760a81b606082015260800190565b600061010080835261320a8184018d8f612ed3565b6001600160a01b038c81166020860152604085018c9052606085018b90528916608085015283810360a08501529050613244818789612f81565b94151560c0840152505061ffff9190911660e09091015298975050505050505050565b600084516132798184602089016126f8565b60609490941b6bffffffffffffffffffffffff191691909301908152601481019190915260340192915050565b7f416363657373436f6e74726f6c3a206163636f756e74200000000000000000008152600083516132de8160178501602088016126f8565b7001034b99036b4b9b9b4b733903937b6329607d1b601791840191820152835161330f8160288401602088016126f8565b01602801949350505050565b634e487b7160e01b600052602160045260246000fd5b82815260406020820152600061103f604083018461271c565b808202811582820484141761077357610773612e6f565b60008161337057613370612e6f565b50600019019056fe412386de53449251cbf7ce1f4c6a038bf9c0746e62d331b08ef0c3fa7d0ab6729f2df0fed2c77648de5860a4cc508cd0818c85b8b8a1ab4ceeef8d981c8956a660793a5062d506d35cc8f1beda67ee5028c16bfcd9c923d5bfc439c04bd929b1a164736f6c6343000811000a",
  "linkReferences": {},
  "deployedLinkReferences": {}
}