{
  "_format": "hh-sol-artifact-1",
  "contractName": "ENSCustody",
  "sourceName": "contracts/custody/ENSCustody.sol",
  "abi": [
    {
      "inputs": [
        {
          "internalType": "contract IETHRegistrarController",
          "name": "controller",
          "type": "address"
        },
        {
          "internalType": "contract INameWrapper",
          "name": "wrapper",
          "type": "address"
        }
      ],
      "stateMutability": "nonpayable",
      "type": "constructor"
    },
    {
      "anonymous": false,
      "inputs": [
        {
          "indexed": false,
          "internalType": "uint8",
          "name": "version",
          "type": "uint8"
        }
      ],
      "name": "Initialized",
      "type": "event"
    },
    {
      "anonymous": false,
      "inputs": [
        {
          "indexed": true,
          "internalType": "address",
          "name": "previousOwner",
          "type": "address"
        },
        {
          "indexed": true,
          "internalType": "address",
          "name": "newOwner",
          "type": "address"
        }
      ],
      "name": "OwnershipTransferred",
      "type": "event"
    },
    {
      "anonymous": false,
      "inputs": [
        {
          "indexed": true,
          "internalType": "uint256",
          "name": "tokenId",
          "type": "uint256"
        },
        {
          "indexed": true,
          "internalType": "address",
          "name": "owner",
          "type": "address"
        }
      ],
      "name": "Parked",
      "type": "event"
    },
    {
      "anonymous": false,
      "inputs": [
        {
          "indexed": true,
          "internalType": "bytes32",
          "name": "role",
          "type": "bytes32"
        },
        {
          "indexed": true,
          "internalType": "bytes32",
          "name": "previousAdminRole",
          "type": "bytes32"
        },
        {
          "indexed": true,
          "internalType": "bytes32",
          "name": "newAdminRole",
          "type": "bytes32"
        }
      ],
      "name": "RoleAdminChanged",
      "type": "event"
    },
    {
      "anonymous": false,
      "inputs": [
        {
          "indexed": true,
          "internalType": "bytes32",
          "name": "role",
          "type": "bytes32"
        },
        {
          "indexed": true,
          "internalType": "address",
          "name": "account",
          "type": "address"
        },
        {
          "indexed": true,
          "internalType": "address",
          "name": "sender",
          "type": "address"
        }
      ],
      "name": "RoleGranted",
      "type": "event"
    },
    {
      "anonymous": false,
      "inputs": [
        {
          "indexed": true,
          "internalType": "bytes32",
          "name": "role",
          "type": "bytes32"
        },
        {
          "indexed": true,
          "internalType": "address",
          "name": "account",
          "type": "address"
        },
        {
          "indexed": true,
          "internalType": "address",
          "name": "sender",
          "type": "address"
        }
      ],
      "name": "RoleRevoked",
      "type": "event"
    },
    {
      "inputs": [],
      "name": "DEFAULT_ADMIN_ROLE",
      "outputs": [
        {
          "internalType": "bytes32",
          "name": "",
          "type": "bytes32"
        }
      ],
      "stateMutability": "view",
      "type": "function"
    },
    {
      "inputs": [],
      "name": "MINTER_ROLE",
      "outputs": [
        {
          "internalType": "bytes32",
          "name": "",
          "type": "bytes32"
        }
      ],
      "stateMutability": "view",
      "type": "function"
    },
    {
      "inputs": [],
      "name": "NAME",
      "outputs": [
        {
          "internalType": "string",
          "name": "",
          "type": "string"
        }
      ],
      "stateMutability": "view",
      "type": "function"
    },
    {
      "inputs": [],
      "name": "VERSION",
      "outputs": [
        {
          "internalType": "string",
          "name": "",
          "type": "string"
        }
      ],
      "stateMutability": "view",
      "type": "function"
    },
    {
      "inputs": [
        {
          "internalType": "address",
          "name": "account",
          "type": "address"
        }
      ],
      "name": "addMinter",
      "outputs": [],
      "stateMutability": "nonpayable",
      "type": "function"
    },
    {
      "inputs": [
        {
          "internalType": "address[]",
          "name": "accounts",
          "type": "address[]"
        }
      ],
      "name": "addMinters",
      "outputs": [],
      "stateMutability": "nonpayable",
      "type": "function"
    },
    {
      "inputs": [
        {
          "internalType": "address payable",
          "name": "receiver",
          "type": "address"
        }
      ],
      "name": "closeMinter",
      "outputs": [],
      "stateMutability": "payable",
      "type": "function"
    },
    {
      "inputs": [
        {
          "components": [
            {
              "internalType": "address",
              "name": "from",
              "type": "address"
            },
            {
              "internalType": "uint256",
              "name": "nonce",
              "type": "uint256"
            },
            {
              "internalType": "uint256",
              "name": "tokenId",
              "type": "uint256"
            },
            {
              "internalType": "bytes",
              "name": "data",
              "type": "bytes"
            }
          ],
          "internalType": "struct IForwarder.ForwardRequest",
          "name": "req",
          "type": "tuple"
        },
        {
          "internalType": "bytes",
          "name": "signature",
          "type": "bytes"
        }
      ],
      "name": "execute",
      "outputs": [
        {
          "internalType": "bytes",
          "name": "",
          "type": "bytes"
        }
      ],
      "stateMutability": "nonpayable",
      "type": "function"
    },
    {
      "inputs": [
        {
          "internalType": "bytes32",
          "name": "role",
          "type": "bytes32"
        }
      ],
      "name": "getRoleAdmin",
      "outputs": [
        {
          "internalType": "bytes32",
          "name": "",
          "type": "bytes32"
        }
      ],
      "stateMutability": "view",
      "type": "function"
    },
    {
      "inputs": [
        {
          "internalType": "bytes32",
          "name": "role",
          "type": "bytes32"
        },
        {
          "internalType": "address",
          "name": "account",
          "type": "address"
        }
      ],
      "name": "grantRole",
      "outputs": [],
      "stateMutability": "nonpayable",
      "type": "function"
    },
    {
      "inputs": [
        {
          "internalType": "bytes32",
          "name": "role",
          "type": "bytes32"
        },
        {
          "internalType": "address",
          "name": "account",
          "type": "address"
        }
      ],
      "name": "hasRole",
      "outputs": [
        {
          "internalType": "bool",
          "name": "",
          "type": "bool"
        }
      ],
      "stateMutability": "view",
      "type": "function"
    },
    {
      "inputs": [
        {
          "internalType": "contract IETHRegistrarController",
          "name": "controller",
          "type": "address"
        },
        {
          "internalType": "contract INameWrapper",
          "name": "wrapper",
          "type": "address"
        }
      ],
      "name": "initialize",
      "outputs": [],
      "stateMutability": "nonpayable",
      "type": "function"
    },
    {
      "inputs": [
        {
          "internalType": "address",
          "name": "account",
          "type": "address"
        }
      ],
      "name": "isMinter",
      "outputs": [
        {
          "internalType": "bool",
          "name": "",
          "type": "bool"
        }
      ],
      "stateMutability": "view",
      "type": "function"
    },
    {
      "inputs": [
        {
          "internalType": "address",
          "name": "forwarder",
          "type": "address"
        }
      ],
      "name": "isTrustedForwarder",
      "outputs": [
        {
          "internalType": "bool",
          "name": "",
          "type": "bool"
        }
      ],
      "stateMutability": "view",
      "type": "function"
    },
    {
      "inputs": [
        {
          "internalType": "string",
          "name": "name",
          "type": "string"
        },
        {
          "internalType": "address",
          "name": "owner",
          "type": "address"
        },
        {
          "internalType": "uint256",
          "name": "duration",
          "type": "uint256"
        },
        {
          "internalType": "bytes32",
          "name": "secret",
          "type": "bytes32"
        },
        {
          "internalType": "address",
          "name": "resolver",
          "type": "address"
        },
        {
          "internalType": "bytes[]",
          "name": "data",
          "type": "bytes[]"
        },
        {
          "internalType": "bool",
          "name": "reverseRecord",
          "type": "bool"
        },
        {
          "internalType": "uint16",
          "name": "ownerControlledFuses",
          "type": "uint16"
        },
        {
          "internalType": "bool",
          "name": "selfCustody",
          "type": "bool"
        }
      ],
      "name": "makeCommitment",
      "outputs": [
        {
          "internalType": "bytes32",
          "name": "",
          "type": "bytes32"
        }
      ],
      "stateMutability": "view",
      "type": "function"
    },
    {
      "inputs": [
        {
          "internalType": "uint256",
          "name": "tokenId",
          "type": "uint256"
        }
      ],
      "name": "nonceOf",
      "outputs": [
        {
          "internalType": "uint256",
          "name": "",
          "type": "uint256"
        }
      ],
      "stateMutability": "view",
      "type": "function"
    },
    {
      "inputs": [
        {
          "internalType": "address",
          "name": "",
          "type": "address"
        },
        {
          "internalType": "address",
          "name": "",
          "type": "address"
        },
        {
          "internalType": "uint256[]",
          "name": "",
          "type": "uint256[]"
        },
        {
          "internalType": "uint256[]",
          "name": "",
          "type": "uint256[]"
        },
        {
          "internalType": "bytes",
          "name": "",
          "type": "bytes"
        }
      ],
      "name": "onERC1155BatchReceived",
      "outputs": [
        {
          "internalType": "bytes4",
          "name": "",
          "type": "bytes4"
        }
      ],
      "stateMutability": "pure",
      "type": "function"
    },
    {
      "inputs": [
        {
          "internalType": "address",
          "name": "",
          "type": "address"
        },
        {
          "internalType": "address",
          "name": "",
          "type": "address"
        },
        {
          "internalType": "uint256",
          "name": "",
          "type": "uint256"
        },
        {
          "internalType": "uint256",
          "name": "",
          "type": "uint256"
        },
        {
          "internalType": "bytes",
          "name": "",
          "type": "bytes"
        }
      ],
      "name": "onERC1155Received",
      "outputs": [
        {
          "internalType": "bytes4",
          "name": "",
          "type": "bytes4"
        }
      ],
      "stateMutability": "pure",
      "type": "function"
    },
    {
      "inputs": [],
      "name": "owner",
      "outputs": [
        {
          "internalType": "address",
          "name": "",
          "type": "address"
        }
      ],
      "stateMutability": "view",
      "type": "function"
    },
    {
      "inputs": [
        {
          "internalType": "uint256",
          "name": "tokenId",
          "type": "uint256"
        }
      ],
      "name": "ownerOf",
      "outputs": [
        {
          "internalType": "address",
          "name": "",
          "type": "address"
        }
      ],
      "stateMutability": "view",
      "type": "function"
    },
    {
      "inputs": [
        {
          "internalType": "string",
          "name": "name",
          "type": "string"
        },
        {
          "internalType": "address",
          "name": "owner",
          "type": "address"
        },
        {
          "internalType": "uint256",
          "name": "duration",
          "type": "uint256"
        },
        {
          "internalType": "bytes32",
          "name": "secret",
          "type": "bytes32"
        },
        {
          "internalType": "address",
          "name": "resolver",
          "type": "address"
        },
        {
          "internalType": "bytes[]",
          "name": "data",
          "type": "bytes[]"
        },
        {
          "internalType": "bool",
          "name": "reverseRecord",
          "type": "bool"
        },
        {
          "internalType": "uint16",
          "name": "ownerControlledFuses",
          "type": "uint16"
        },
        {
          "internalType": "bool",
          "name": "selfCustody",
          "type": "bool"
        }
      ],
      "name": "register",
      "outputs": [],
      "stateMutability": "nonpayable",
      "type": "function"
    },
    {
      "inputs": [
        {
          "internalType": "address",
          "name": "account",
          "type": "address"
        }
      ],
      "name": "removeMinter",
      "outputs": [],
      "stateMutability": "nonpayable",
      "type": "function"
    },
    {
      "inputs": [
        {
          "internalType": "address[]",
          "name": "accounts",
          "type": "address[]"
        }
      ],
      "name": "removeMinters",
      "outputs": [],
      "stateMutability": "nonpayable",
      "type": "function"
    },
    {
      "inputs": [],
      "name": "renounceMinter",
      "outputs": [],
      "stateMutability": "nonpayable",
      "type": "function"
    },
    {
      "inputs": [],
      "name": "renounceOwnership",
      "outputs": [],
      "stateMutability": "nonpayable",
      "type": "function"
    },
    {
      "inputs": [
        {
          "internalType": "bytes32",
          "name": "role",
          "type": "bytes32"
        },
        {
          "internalType": "address",
          "name": "account",
          "type": "address"
        }
      ],
      "name": "renounceRole",
      "outputs": [],
      "stateMutability": "nonpayable",
      "type": "function"
    },
    {
      "inputs": [
        {
          "internalType": "bytes32",
          "name": "role",
          "type": "bytes32"
        },
        {
          "internalType": "address",
          "name": "account",
          "type": "address"
        }
      ],
      "name": "revokeRole",
      "outputs": [],
      "stateMutability": "nonpayable",
      "type": "function"
    },
    {
      "inputs": [
        {
          "internalType": "address payable",
          "name": "receiver",
          "type": "address"
        }
      ],
      "name": "rotateMinter",
      "outputs": [],
      "stateMutability": "payable",
      "type": "function"
    },
    {
      "inputs": [
        {
          "internalType": "address",
          "name": "to",
          "type": "address"
        },
        {
          "internalType": "uint256",
          "name": "tokenId",
          "type": "uint256"
        }
      ],
      "name": "safeTransfer",
      "outputs": [],
      "stateMutability": "nonpayable",
      "type": "function"
    },
    {
      "inputs": [
        {
          "internalType": "bytes4",
          "name": "interfaceId",
          "type": "bytes4"
        }
      ],
      "name": "supportsInterface",
      "outputs": [
        {
          "internalType": "bool",
          "name": "",
          "type": "bool"
        }
      ],
      "stateMutability": "view",
      "type": "function"
    },
    {
      "inputs": [
        {
          "internalType": "address",
          "name": "newOwner",
          "type": "address"
        }
      ],
      "name": "transferOwnership",
      "outputs": [],
      "stateMutability": "nonpayable",
      "type": "function"
    },
    {
      "inputs": [
        {
          "components": [
            {
              "internalType": "address",
              "name": "from",
              "type": "address"
            },
            {
              "internalType": "uint256",
              "name": "nonce",
              "type": "uint256"
            },
            {
              "internalType": "uint256",
              "name": "tokenId",
              "type": "uint256"
            },
            {
              "internalType": "bytes",
              "name": "data",
              "type": "bytes"
            }
          ],
          "internalType": "struct IForwarder.ForwardRequest",
          "name": "req",
          "type": "tuple"
        },
        {
          "internalType": "bytes",
          "name": "signature",
          "type": "bytes"
        }
      ],
      "name": "verify",
      "outputs": [
        {
          "internalType": "bool",
          "name": "",
          "type": "bool"
        }
      ],
      "stateMutability": "view",
      "type": "function"
    },
    {
      "stateMutability": "payable",
      "type": "receive"
    }
  ],
  "bytecode": "0x60806040523480156200001157600080fd5b506040516200301e3803806200301e8339810160408190526200003491620004f5565b62000040828262000048565b505062000534565b600054610100900460ff1615808015620000695750600054600160ff909116105b806200009957506200008630620001d660201b6200111c1760201c565b15801562000099575060005460ff166001145b620001025760405162461bcd60e51b815260206004820152602e60248201527f496e697469616c697a61626c653a20636f6e747261637420697320616c72656160448201526d191e481a5b9a5d1a585b1a5e995960921b60648201526084015b60405180910390fd5b6000805460ff19166001179055801562000126576000805461ff0019166101001790555b61012e80546001600160a01b038086166001600160a01b03199283161790925561012f80549285169290911691909117905562000162620001e5565b6200016c62000248565b6200017662000248565b62000180620002a6565b6200018a62000316565b8015620001d1576000805461ff0019169055604051600181527f7f26b83ff96e1f2b6a682f133852f6798a09c465da95921460cefb38474024989060200160405180910390a15b505050565b6001600160a01b03163b151590565b600054610100900460ff16620002415760405162461bcd60e51b815260206004820152602b602482015260008051602062002ffe83398151915260448201526a6e697469616c697a696e6760a81b6064820152608401620000f9565b6001603355565b600054610100900460ff16620002a45760405162461bcd60e51b815260206004820152602b602482015260008051602062002ffe83398151915260448201526a6e697469616c697a696e6760a81b6064820152608401620000f9565b565b600054610100900460ff16620003025760405162461bcd60e51b815260206004820152602b602482015260008051602062002ffe83398151915260448201526a6e697469616c697a696e6760a81b6064820152608401620000f9565b620002a46200031062000388565b620003a4565b600054610100900460ff16620003725760405162461bcd60e51b815260206004820152602b602482015260008051602062002ffe83398151915260448201526a6e697469616c697a696e6760a81b6064820152608401620000f9565b620002a460006200038262000388565b620003f6565b60006200039f6200040660201b6200112b1760201c565b905090565b609780546001600160a01b038381166001600160a01b0319831681179093556040519116919082907f8be0079c531659141344cd1fd0a4f28419497f9722a3daafe3b4186f6b6457e090600090a35050565b62000402828262000432565b5050565b60003033036200041d575060331936013560601c90565b6200039f620004d860201b6200114b1760201c565b600082815260fb602090815260408083206001600160a01b038516845290915290205460ff166200040257600082815260fb602090815260408083206001600160a01b03851684529091529020805460ff191660011790556200049462000388565b6001600160a01b0316816001600160a01b0316837f2f8788117e7eff1d82e926ec794901d17c78024a50270940304540a733656f0d60405160405180910390a45050565b3390565b6001600160a01b0381168114620004f257600080fd5b50565b600080604083850312156200050957600080fd5b82516200051681620004dc565b60208401519092506200052981620004dc565b809150509250929050565b612aba80620005446000396000f3fe6080604052600436106101e75760003560e01c80638da5cb5b11610102578063aa271e1a11610095578063d547741f11610064578063d547741f146105e8578063f23a6e6114610608578063f2fde38b14610635578063ffa1ad741461065557600080fd5b8063aa271e1a14610541578063bc197c8114610561578063cf015853146105a6578063d5391393146105c657600080fd5b8063a0e3aef1116100d1578063a0e3aef1146104b5578063a217fddf146104d5578063a3f4df7e146104ea578063a42474001461052157600080fd5b80638da5cb5b1461044257806391d1485414610460578063983b2d561461048057806398650275146104a057600080fd5b8063572b6c051161017a5780636ccbae5f116101495780636ccbae5f146103da578063715018a6146103fa57806371e2a6571461040f57806381c81d351461042f57600080fd5b8063572b6c05146103465780635fc1964f1461036f578063634486da1461038f5780636352211e146103a257600080fd5b80633092afd5116101b65780633092afd5146102c657806336568abe146102e6578063423f6cef14610306578063485cc9551461032657600080fd5b806301ffc9a7146101f35780631bf7e13e14610239578063248a9ca3146102665780632f2ff15d146102a457600080fd5b366101ee57005b600080fd5b3480156101ff57600080fd5b5061022461020e366004611ddd565b6001600160e01b031916630271189760e51b1490565b60405190151581526020015b60405180910390f35b34801561024557600080fd5b50610259610254366004611e48565b610686565b6040516102309190611f08565b34801561027257600080fd5b50610296610281366004611f1b565b600090815260fb602052604090206001015490565b604051908152602001610230565b3480156102b057600080fd5b506102c46102bf366004611f59565b610786565b005b3480156102d257600080fd5b506102c46102e1366004611f89565b6107b0565b3480156102f257600080fd5b506102c4610301366004611f59565b6107c4565b34801561031257600080fd5b506102c4610321366004611fa6565b610852565b34801561033257600080fd5b506102c4610341366004611fd2565b61094a565b34801561035257600080fd5b50610224610361366004611f89565b6001600160a01b0316301490565b34801561037b57600080fd5b506102c461038a366004612069565b610aae565b6102c461039d366004611f89565b610af6565b3480156103ae57600080fd5b506103c26103bd366004611f1b565b610bb9565b6040516001600160a01b039091168152602001610230565b3480156103e657600080fd5b506102966103f5366004611f1b565b610bca565b34801561040657600080fd5b506102c4610c24565b34801561041b57600080fd5b506102c461042a366004612069565b610c38565b6102c461043d366004611f89565b610c80565b34801561044e57600080fd5b506097546001600160a01b03166103c2565b34801561046c57600080fd5b5061022461047b366004611f59565b610cfd565b34801561048c57600080fd5b506102c461049b366004611f89565b610d28565b3480156104ac57600080fd5b506102c4610d39565b3480156104c157600080fd5b506102966104d03660046121c4565b610d53565b3480156104e157600080fd5b50610296600081565b3480156104f657600080fd5b506102596040518060400160405280600b81526020016a454e5320437573746f647960a81b81525081565b34801561052d57600080fd5b5061022461053c366004611e48565b610e17565b34801561054d57600080fd5b5061022461055c366004611f89565b610e6a565b34801561056d57600080fd5b5061058d61057c366004612332565b63bc197c8160e01b95945050505050565b6040516001600160e01b03199091168152602001610230565b3480156105b257600080fd5b506102c46105c13660046123df565b610e84565b3480156105d257600080fd5b50610296600080516020612a8e83398151915281565b3480156105f457600080fd5b506102c4610603366004611f59565b6110db565b34801561061457600080fd5b5061058d6106233660046124c1565b63f23a6e6160e01b9695505050505050565b34801561064157600080fd5b506102c4610650366004611f89565b611100565b34801561066157600080fd5b5061025960405180604001604052806005815260200164302e302e3160d81b81525081565b606060005a9050610698858585610e17565b6106e95760405162461bcd60e51b815260206004820152601c60248201527f466f727761726465723a205349474e41545552455f494e56414c49440000000060448201526064015b60405180910390fd5b61077b6106f96020870187611f89565b3060408801358461070d60608b018b61253c565b8080601f01602080910402602001604051908101604052809392919081815260200183838082843760009201919091525050604080516020601f8e018190048102820181019092528c815292508c91508b908190840183828082843760009201919091525061114f92505050565b9150505b9392505050565b600082815260fb60205260409020600101546107a181611230565b6107ab8383611241565b505050565b6107b86112c8565b6107c181611341565b50565b6107cc611359565b6001600160a01b0316816001600160a01b0316146108445760405162461bcd60e51b815260206004820152602f60248201527f416363657373436f6e74726f6c3a2063616e206f6e6c792072656e6f756e636560448201526e103937b632b9903337b91039b2b63360891b60648201526084016106e0565b61084e8282611363565b5050565b8061085b611359565b6001600160a01b031661086d826113e8565b6001600160a01b0316146108c35760405162461bcd60e51b815260206004820152601f60248201527f454e53437573746f64793a2053454e4445525f49535f4e4f545f4f574e45520060448201526064016106e0565b61012f54604051637921219560e11b81523060048201526001600160a01b038581166024830152604482018590526001606483015260a06084830152600060a48301529091169063f242432a9060c401600060405180830381600087803b15801561092d57600080fd5b505af1158015610941573d6000803e3d6000fd5b50505050505050565b600054610100900460ff161580801561096a5750600054600160ff909116105b806109845750303b158015610984575060005460ff166001145b6109e75760405162461bcd60e51b815260206004820152602e60248201527f496e697469616c697a61626c653a20636f6e747261637420697320616c72656160448201526d191e481a5b9a5d1a585b1a5e995960921b60648201526084016106e0565b6000805460ff191660011790558015610a0a576000805461ff0019166101001790555b61012e80546001600160a01b038086166001600160a01b03199283161790925561012f805492851692909116919091179055610a4461151e565b610a4c61154c565b610a5461154c565b610a5c611573565b610a646115aa565b80156107ab576000805461ff0019169055604051600181527f7f26b83ff96e1f2b6a682f133852f6798a09c465da95921460cefb38474024989060200160405180910390a1505050565b610ab66112c8565b60005b815181101561084e57610ae4828281518110610ad757610ad7612582565b6020026020010151611341565b80610aee816125ae565b915050610ab9565b610b0161055c611359565b610b1d5760405162461bcd60e51b81526004016106e0906125c7565b6001600160a01b038116610b735760405162461bcd60e51b815260206004820152601d60248201527f4d696e746572526f6c653a2052454345495645525f49535f454d50545900000060448201526064016106e0565b610b7c816115e3565b610b84610d39565b6040516001600160a01b038216903480156108fc02916000818181858888f1935050505015801561084e573d6000803e3d6000fd5b6000610bc4826113e8565b92915050565b604080517f1ee5d87a048b728f67073f282321992c260e5be4fa651d08665c5b4ee7a838156020820152908101829052600090610c1d906060016040516020818303038152906040528051906020012090565b5492915050565b610c2c6112c8565b610c3660006115fb565b565b610c406112c8565b60005b815181101561084e57610c6e828281518110610c6157610c61612582565b60200260200101516115e3565b80610c78816125ae565b915050610c43565b610c8b61055c611359565b610ca75760405162461bcd60e51b81526004016106e0906125c7565b6001600160a01b038116610b7c5760405162461bcd60e51b815260206004820152601d60248201527f4d696e746572526f6c653a2052454345495645525f49535f454d50545900000060448201526064016106e0565b600091825260fb602090815260408084206001600160a01b0393909316845291905290205460ff1690565b610d306112c8565b6107c1816115e3565b610c36600080516020612a8e833981519152610301611359565b6000610d6061055c611359565b610d7c5760405162461bcd60e51b81526004016106e0906125c7565b61012e546001600160a01b03166365a69dcf8c84610d9a5730610d9c565b8c5b8c8c8c8c8c8c8c6040518a63ffffffff1660e01b8152600401610dc7999897969594939291906126b6565b602060405180830381865afa158015610de4573d6000803e3d6000fd5b505050506040513d601f19601f82011682018060405250810190610e089190612726565b9b9a5050505050505050505050565b6000610e62610e258561273f565b3085858080601f01602080910402602001604051908101604052809392919081815260200183838082843760009201919091525061164d92505050565b949350505050565b6000610bc4600080516020612a8e83398151915283610cfd565b610e8f61055c611359565b610eab5760405162461bcd60e51b81526004016106e0906125c7565b600260335403610efd5760405162461bcd60e51b815260206004820152601f60248201527f5265656e7472616e637947756172643a207265656e7472616e742063616c6c0060448201526064016106e0565b600260335561012e546040516383e7f6ff60e01b81526000916001600160a01b0316906383e7f6ff90610f38908f908f908e906004016127c9565b6040805180830381865afa158015610f54573d6000803e3d6000fd5b505050506040513d601f19601f82011682018060405250810190610f7891906127ed565b61012e54602082015182519293506001600160a01b03909116916374694a2b91610fa19161283b565b8e8e86610fae5730610fb0565b8e5b8e8e8e8e8e8e8e6040518c63ffffffff1660e01b8152600401610fdc9a9998979695949392919061284e565b6000604051808303818588803b158015610ff557600080fd5b505af1158015611009573d6000803e3d6000fd5b5050505050816110c85760006110548d8d8080601f01602080910402602001604051908101604052809392919081815260200183838082843760009201919091525061179692505050565b90508a61012d600083815260200190815260200160002060006101000a8154816001600160a01b0302191690836001600160a01b031602179055508a6001600160a01b0316817f45aa97e368889fb3527c1db60c59c2ae91e82f21778613449e46d4208c1c4b1260405160405180910390a3505b5050600160335550505050505050505050565b600082815260fb60205260409020600101546110f681611230565b6107ab8383611363565b6111086112c8565b6111118161181b565b6107c1600082611891565b6001600160a01b03163b151590565b6000303303611141575060331936013560601c90565b503390565b905090565b3390565b606061115a8561189b565b600080876001600160a01b0316866111748b8a8989611901565b60405161118191906128c0565b60006040518083038160008787f1925050503d80600081146111bf576040519150601f19603f3d011682016040523d82523d6000602084013e6111c4565b606091505b5090925090506111d5603f876128dc565b5a116111e3576111e36128fe565b61122382826040518060400160405280601a81526020017f42617365466f727761726465723a2043414c4c5f4641494c4544000000000000815250611931565b9998505050505050505050565b6107c18161123c611359565b61196a565b61124b8282610cfd565b61084e57600082815260fb602090815260408083206001600160a01b03851684529091529020805460ff19166001179055611284611359565b6001600160a01b0316816001600160a01b0316837f2f8788117e7eff1d82e926ec794901d17c78024a50270940304540a733656f0d60405160405180910390a45050565b6112d0611359565b6001600160a01b03166112eb6097546001600160a01b031690565b6001600160a01b031614610c365760405162461bcd60e51b815260206004820181905260248201527f4f776e61626c653a2063616c6c6572206973206e6f7420746865206f776e657260448201526064016106e0565b6107c1600080516020612a8e833981519152826110db565b600061114661112b565b61136d8282610cfd565b1561084e57600082815260fb602090815260408083206001600160a01b03851684529091529020805460ff191690556113a4611359565b6001600160a01b0316816001600160a01b0316837ff6391f5c32d9c69d2a47ea670b442974b53935d1edc7fd64eb21e047a839171b60405160405180910390a45050565b600081815261012d60205260408120546001600160a01b03168061144e5760405162461bcd60e51b815260206004820152601c60248201527f454e53437573746f64793a20696e76616c696420746f6b656e2049440000000060448201526064016106e0565b61012f546040516331a9108f60e11b8152600481018590526000916001600160a01b031690636352211e90602401602060405180830381865afa158015611499573d6000803e3d6000fd5b505050506040513d601f19601f820116820180604052508101906114bd9190612914565b90506001600160a01b03811630146115175760405162461bcd60e51b815260206004820152601c60248201527f454e53437573746f64793a20756e6b6e6f776e20746f6b656e2049440000000060448201526064016106e0565b5092915050565b600054610100900460ff166115455760405162461bcd60e51b81526004016106e090612931565b6001603355565b600054610100900460ff16610c365760405162461bcd60e51b81526004016106e090612931565b600054610100900460ff1661159a5760405162461bcd60e51b81526004016106e090612931565b610c366115a5611359565b6115fb565b600054610100900460ff166115d15760405162461bcd60e51b81526004016106e090612931565b610c3660006115de611359565b611891565b6107c1600080516020612a8e83398151915282611891565b609780546001600160a01b038381166001600160a01b0319831681179093556040519116919082907f8be0079c531659141344cd1fd0a4f28419497f9722a3daafe3b4186f6b6457e090600090a35050565b6040838101519051636ccbae5f60e01b8152600481019190915260009081903090636ccbae5f90602401602060405180830381865afa158015611694573d6000803e3d6000fd5b505050506040513d601f19601f820116820180604052508101906116b89190612726565b905060006117668660600151805190602001208688602001516040516020016117069392919092835260609190911b6bffffffffffffffffffffffff19166020830152603482015260540190565b60408051601f1981840301815282825280516020918201207f19457468657265756d205369676e6564204d6573736167653a0a33320000000084830152603c8085019190915282518085039091018152605c909301909152815191012090565b905081866020015114801561178c5750855161178c906001600160a01b031682866119ce565b9695505050505050565b60007f93cdeb708b7545dc668eb9280176169d1c33cfd8ed6f04690a0bcc88a93fc4ae60001b826040516020016117cd91906128c0565b604051602081830303815290604052805190602001206040516020016117fd929190918252602082015260400190565b60408051601f19818403018152919052805160209091012092915050565b6118236112c8565b6001600160a01b0381166118885760405162461bcd60e51b815260206004820152602660248201527f4f776e61626c653a206e6577206f776e657220697320746865207a65726f206160448201526564647265737360d01b60648201526084016106e0565b6107c1816115fb565b61084e8282611241565b604080517f1ee5d87a048b728f67073f282321992c260e5be4fa651d08665c5b4ee7a8381560208201529081018290526000906060016040516020818303038152906040528051906020012090506118f08190565b546118fc90600161283b565b905550565b60608285856040516020016119189392919061297c565b6040516020818303038152906040529050949350505050565b6060831561194057508161077f565b8251156119505782518084602001fd5b8160405162461bcd60e51b81526004016106e09190611f08565b6119748282610cfd565b61084e5761198c816001600160a01b03166014611b10565b611997836020611b10565b6040516020016119a89291906129bb565b60408051601f198184030181529082905262461bcd60e51b82526106e091600401611f08565b60008060006119dd8585611cab565b909250905060008160048111156119f6576119f6612a30565b148015611a145750856001600160a01b0316826001600160a01b0316145b15611a245760019250505061077f565b600080876001600160a01b0316631626ba7e60e01b8888604051602401611a4c929190612a46565b60408051601f198184030181529181526020820180516001600160e01b03166001600160e01b0319909416939093179092529051611a8a91906128c0565b600060405180830381855afa9150503d8060008114611ac5576040519150601f19603f3d011682016040523d82523d6000602084013e611aca565b606091505b5091509150818015611add575080516020145b8015611b0457508051630b135d3f60e11b90611b029083016020908101908401612726565b145b98975050505050505050565b60606000611b1f836002612a5f565b611b2a90600261283b565b6001600160401b03811115611b4157611b41612000565b6040519080825280601f01601f191660200182016040528015611b6b576020820181803683370190505b509050600360fc1b81600081518110611b8657611b86612582565b60200101906001600160f81b031916908160001a905350600f60fb1b81600181518110611bb557611bb5612582565b60200101906001600160f81b031916908160001a9053506000611bd9846002612a5f565b611be490600161283b565b90505b6001811115611c5c576f181899199a1a9b1b9c1cb0b131b232b360811b85600f1660108110611c1857611c18612582565b1a60f81b828281518110611c2e57611c2e612582565b60200101906001600160f81b031916908160001a90535060049490941c93611c5581612a76565b9050611be7565b50831561077f5760405162461bcd60e51b815260206004820181905260248201527f537472696e67733a20686578206c656e67746820696e73756666696369656e7460448201526064016106e0565b6000808251604103611ce15760208301516040840151606085015160001a611cd587828585611cf0565b94509450505050611ce9565b506000905060025b9250929050565b6000807f7fffffffffffffffffffffffffffffff5d576e7357a4501ddfe92f46681b20a0831115611d275750600090506003611dd4565b8460ff16601b14158015611d3f57508460ff16601c14155b15611d505750600090506004611dd4565b6040805160008082526020820180845289905260ff881692820192909252606081018690526080810185905260019060a0016020604051602081039080840390855afa158015611da4573d6000803e3d6000fd5b5050604051601f1901519150506001600160a01b038116611dcd57600060019250925050611dd4565b9150600090505b94509492505050565b600060208284031215611def57600080fd5b81356001600160e01b03198116811461077f57600080fd5b60008083601f840112611e1957600080fd5b5081356001600160401b03811115611e3057600080fd5b602083019150836020828501011115611ce957600080fd5b600080600060408486031215611e5d57600080fd5b83356001600160401b0380821115611e7457600080fd5b9085019060808288031215611e8857600080fd5b90935060208501359080821115611e9e57600080fd5b50611eab86828701611e07565b9497909650939450505050565b60005b83811015611ed3578181015183820152602001611ebb565b50506000910152565b60008151808452611ef4816020860160208601611eb8565b601f01601f19169290920160200192915050565b60208152600061077f6020830184611edc565b600060208284031215611f2d57600080fd5b5035919050565b6001600160a01b03811681146107c157600080fd5b8035611f5481611f34565b919050565b60008060408385031215611f6c57600080fd5b823591506020830135611f7e81611f34565b809150509250929050565b600060208284031215611f9b57600080fd5b813561077f81611f34565b60008060408385031215611fb957600080fd5b8235611fc481611f34565b946020939093013593505050565b60008060408385031215611fe557600080fd5b8235611ff081611f34565b91506020830135611f7e81611f34565b634e487b7160e01b600052604160045260246000fd5b604051601f8201601f191681016001600160401b038111828210171561203e5761203e612000565b604052919050565b60006001600160401b0382111561205f5761205f612000565b5060051b60200190565b6000602080838503121561207c57600080fd5b82356001600160401b0381111561209257600080fd5b8301601f810185136120a357600080fd5b80356120b66120b182612046565b612016565b81815260059190911b820183019083810190878311156120d557600080fd5b928401925b828410156120fc5783356120ed81611f34565b825292840192908401906120da565b979650505050505050565b60006001600160401b0383111561212057612120612000565b612133601f8401601f1916602001612016565b905082815283838301111561214757600080fd5b828260208301376000602084830101529392505050565b60008083601f84011261217057600080fd5b5081356001600160401b0381111561218757600080fd5b6020830191508360208260051b8501011115611ce957600080fd5b80358015158114611f5457600080fd5b803561ffff81168114611f5457600080fd5b6000806000806000806000806000806101208b8d0312156121e457600080fd5b8a356001600160401b03808211156121fb57600080fd5b818d0191508d601f83011261220f57600080fd5b61221e8e833560208501612107565b9b5061222c60208e01611f49565b9a5060408d0135995060608d0135985061224860808e01611f49565b975060a08d013591508082111561225e57600080fd5b5061226b8d828e0161215e565b909650945061227e905060c08c016121a2565b925061228c60e08c016121b2565b915061229b6101008c016121a2565b90509295989b9194979a5092959850565b600082601f8301126122bd57600080fd5b813560206122cd6120b183612046565b82815260059290921b840181019181810190868411156122ec57600080fd5b8286015b8481101561230757803583529183019183016122f0565b509695505050505050565b600082601f83011261232357600080fd5b61077f83833560208501612107565b600080600080600060a0868803121561234a57600080fd5b853561235581611f34565b9450602086013561236581611f34565b935060408601356001600160401b038082111561238157600080fd5b61238d89838a016122ac565b945060608801359150808211156123a357600080fd5b6123af89838a016122ac565b935060808801359150808211156123c557600080fd5b506123d288828901612312565b9150509295509295909350565b60008060008060008060008060008060006101208c8e03121561240157600080fd5b6001600160401b03808d35111561241757600080fd5b6124248e8e358f01611e07565b909c509a5061243660208e0135611f34565b60208d0135995060408d0135985060608d0135975061245860808e0135611f34565b60808d013596508060a08e0135111561247057600080fd5b506124818d60a08e01358e0161215e565b909550935061249260c08d016121a2565b92506124a060e08d016121b2565b91506124af6101008d016121a2565b90509295989b509295989b9093969950565b60008060008060008060a087890312156124da57600080fd5b86356124e581611f34565b955060208701356124f581611f34565b9450604087013593506060870135925060808701356001600160401b0381111561251e57600080fd5b61252a89828a01611e07565b979a9699509497509295939492505050565b6000808335601e1984360301811261255357600080fd5b8301803591506001600160401b0382111561256d57600080fd5b602001915036819003821315611ce957600080fd5b634e487b7160e01b600052603260045260246000fd5b634e487b7160e01b600052601160045260246000fd5b6000600182016125c0576125c0612598565b5060010190565b6020808252818101527f4d696e746572526f6c653a2043414c4c45525f49535f4e4f545f4d494e544552604082015260600190565b81835281816020850137506000828201602090810191909152601f909101601f19169091010190565b81835260006020808501808196508560051b810191508460005b878110156126a95782840389528135601e1988360301811261266057600080fd5b870185810190356001600160401b0381111561267b57600080fd5b80360382131561268a57600080fd5b6126958682846125fc565b9a87019a955050509084019060010161263f565b5091979650505050505050565b60006101008083526126ca8184018d611edc565b6001600160a01b038c81166020860152604085018c9052606085018b90528916608085015283810360a08501529050612704818789612625565b94151560c0840152505061ffff9190911660e090910152979650505050505050565b60006020828403121561273857600080fd5b5051919050565b60006080823603121561275157600080fd5b604051608081016001600160401b03828210818311171561277457612774612000565b816040528435915061278582611f34565b818352602085013560208401526040850135604084015260608501359150808211156127b057600080fd5b506127bd36828601612312565b60608301525092915050565b6040815260006127dd6040830185876125fc565b9050826020830152949350505050565b6000604082840312156127ff57600080fd5b604051604081018181106001600160401b038211171561282157612821612000565b604052825181526020928301519281019290925250919050565b80820180821115610bc457610bc4612598565b60006101008083526128638184018d8f6125fc565b6001600160a01b038c81166020860152604085018c9052606085018b90528916608085015283810360a0850152905061289d818789612625565b94151560c0840152505061ffff9190911660e09091015298975050505050505050565b600082516128d2818460208701611eb8565b9190910192915050565b6000826128f957634e487b7160e01b600052601260045260246000fd5b500490565b634e487b7160e01b600052600160045260246000fd5b60006020828403121561292657600080fd5b815161077f81611f34565b6020808252602b908201527f496e697469616c697a61626c653a20636f6e7472616374206973206e6f74206960408201526a6e697469616c697a696e6760a81b606082015260800190565b6000845161298e818460208901611eb8565b60609490941b6bffffffffffffffffffffffff191691909301908152601481019190915260340192915050565b7f416363657373436f6e74726f6c3a206163636f756e74200000000000000000008152600083516129f3816017850160208801611eb8565b7001034b99036b4b9b9b4b733903937b6329607d1b6017918401918201528351612a24816028840160208801611eb8565b01602801949350505050565b634e487b7160e01b600052602160045260246000fd5b828152604060208201526000610e626040830184611edc565b8082028115828204841417610bc457610bc4612598565b600081612a8557612a85612598565b50600019019056fe9f2df0fed2c77648de5860a4cc508cd0818c85b8b8a1ab4ceeef8d981c8956a6a164736f6c6343000811000a496e697469616c697a61626c653a20636f6e7472616374206973206e6f742069",
  "linkReferences": {},
  "deployedLinkReferences": {}
}