{
  "_format": "hh-sol-artifact-1",
  "contractName": "ERC1155PresetMinterPauserUpgradeable",
  "sourceName": "@openzeppelin/contracts-upgradeable/token/ERC1155/presets/ERC1155PresetMinterPauserUpgradeable.sol",
  "abi": [
    {
      "anonymous": false,
      "inputs": [
        {
          "indexed": true,
          "internalType": "address",
          "name": "account",
          "type": "address"
        },
        {
          "indexed": true,
          "internalType": "address",
          "name": "operator",
          "type": "address"
        },
        {
          "indexed": false,
          "internalType": "bool",
          "name": "approved",
          "type": "bool"
        }
      ],
      "name": "ApprovalForAll",
      "type": "event"
    },
    {
      "anonymous": false,
      "inputs": [
        {
          "indexed": false,
          "internalType": "uint8",
          "name": "version",
          "type": "uint8"
        }
      ],
      "name": "Initialized",
      "type": "event"
    },
    {
      "anonymous": false,
      "inputs": [
        {
          "indexed": false,
          "internalType": "address",
          "name": "account",
          "type": "address"
        }
      ],
      "name": "Paused",
      "type": "event"
    },
    {
      "anonymous": false,
      "inputs": [
        {
          "indexed": true,
          "internalType": "bytes32",
          "name": "role",
          "type": "bytes32"
        },
        {
          "indexed": true,
          "internalType": "bytes32",
          "name": "previousAdminRole",
          "type": "bytes32"
        },
        {
          "indexed": true,
          "internalType": "bytes32",
          "name": "newAdminRole",
          "type": "bytes32"
        }
      ],
      "name": "RoleAdminChanged",
      "type": "event"
    },
    {
      "anonymous": false,
      "inputs": [
        {
          "indexed": true,
          "internalType": "bytes32",
          "name": "role",
          "type": "bytes32"
        },
        {
          "indexed": true,
          "internalType": "address",
          "name": "account",
          "type": "address"
        },
        {
          "indexed": true,
          "internalType": "address",
          "name": "sender",
          "type": "address"
        }
      ],
      "name": "RoleGranted",
      "type": "event"
    },
    {
      "anonymous": false,
      "inputs": [
        {
          "indexed": true,
          "internalType": "bytes32",
          "name": "role",
          "type": "bytes32"
        },
        {
          "indexed": true,
          "internalType": "address",
          "name": "account",
          "type": "address"
        },
        {
          "indexed": true,
          "internalType": "address",
          "name": "sender",
          "type": "address"
        }
      ],
      "name": "RoleRevoked",
      "type": "event"
    },
    {
      "anonymous": false,
      "inputs": [
        {
          "indexed": true,
          "internalType": "address",
          "name": "operator",
          "type": "address"
        },
        {
          "indexed": true,
          "internalType": "address",
          "name": "from",
          "type": "address"
        },
        {
          "indexed": true,
          "internalType": "address",
          "name": "to",
          "type": "address"
        },
        {
          "indexed": false,
          "internalType": "uint256[]",
          "name": "ids",
          "type": "uint256[]"
        },
        {
          "indexed": false,
          "internalType": "uint256[]",
          "name": "values",
          "type": "uint256[]"
        }
      ],
      "name": "TransferBatch",
      "type": "event"
    },
    {
      "anonymous": false,
      "inputs": [
        {
          "indexed": true,
          "internalType": "address",
          "name": "operator",
          "type": "address"
        },
        {
          "indexed": true,
          "internalType": "address",
          "name": "from",
          "type": "address"
        },
        {
          "indexed": true,
          "internalType": "address",
          "name": "to",
          "type": "address"
        },
        {
          "indexed": false,
          "internalType": "uint256",
          "name": "id",
          "type": "uint256"
        },
        {
          "indexed": false,
          "internalType": "uint256",
          "name": "value",
          "type": "uint256"
        }
      ],
      "name": "TransferSingle",
      "type": "event"
    },
    {
      "anonymous": false,
      "inputs": [
        {
          "indexed": false,
          "internalType": "string",
          "name": "value",
          "type": "string"
        },
        {
          "indexed": true,
          "internalType": "uint256",
          "name": "id",
          "type": "uint256"
        }
      ],
      "name": "URI",
      "type": "event"
    },
    {
      "anonymous": false,
      "inputs": [
        {
          "indexed": false,
          "internalType": "address",
          "name": "account",
          "type": "address"
        }
      ],
      "name": "Unpaused",
      "type": "event"
    },
    {
      "inputs": [],
      "name": "DEFAULT_ADMIN_ROLE",
      "outputs": [
        {
          "internalType": "bytes32",
          "name": "",
          "type": "bytes32"
        }
      ],
      "stateMutability": "view",
      "type": "function"
    },
    {
      "inputs": [],
      "name": "MINTER_ROLE",
      "outputs": [
        {
          "internalType": "bytes32",
          "name": "",
          "type": "bytes32"
        }
      ],
      "stateMutability": "view",
      "type": "function"
    },
    {
      "inputs": [],
      "name": "PAUSER_ROLE",
      "outputs": [
        {
          "internalType": "bytes32",
          "name": "",
          "type": "bytes32"
        }
      ],
      "stateMutability": "view",
      "type": "function"
    },
    {
      "inputs": [
        {
          "internalType": "address",
          "name": "account",
          "type": "address"
        },
        {
          "internalType": "uint256",
          "name": "id",
          "type": "uint256"
        }
      ],
      "name": "balanceOf",
      "outputs": [
        {
          "internalType": "uint256",
          "name": "",
          "type": "uint256"
        }
      ],
      "stateMutability": "view",
      "type": "function"
    },
    {
      "inputs": [
        {
          "internalType": "address[]",
          "name": "accounts",
          "type": "address[]"
        },
        {
          "internalType": "uint256[]",
          "name": "ids",
          "type": "uint256[]"
        }
      ],
      "name": "balanceOfBatch",
      "outputs": [
        {
          "internalType": "uint256[]",
          "name": "",
          "type": "uint256[]"
        }
      ],
      "stateMutability": "view",
      "type": "function"
    },
    {
      "inputs": [
        {
          "internalType": "address",
          "name": "account",
          "type": "address"
        },
        {
          "internalType": "uint256",
          "name": "id",
          "type": "uint256"
        },
        {
          "internalType": "uint256",
          "name": "value",
          "type": "uint256"
        }
      ],
      "name": "burn",
      "outputs": [],
      "stateMutability": "nonpayable",
      "type": "function"
    },
    {
      "inputs": [
        {
          "internalType": "address",
          "name": "account",
          "type": "address"
        },
        {
          "internalType": "uint256[]",
          "name": "ids",
          "type": "uint256[]"
        },
        {
          "internalType": "uint256[]",
          "name": "values",
          "type": "uint256[]"
        }
      ],
      "name": "burnBatch",
      "outputs": [],
      "stateMutability": "nonpayable",
      "type": "function"
    },
    {
      "inputs": [
        {
          "internalType": "bytes32",
          "name": "role",
          "type": "bytes32"
        }
      ],
      "name": "getRoleAdmin",
      "outputs": [
        {
          "internalType": "bytes32",
          "name": "",
          "type": "bytes32"
        }
      ],
      "stateMutability": "view",
      "type": "function"
    },
    {
      "inputs": [
        {
          "internalType": "bytes32",
          "name": "role",
          "type": "bytes32"
        },
        {
          "internalType": "uint256",
          "name": "index",
          "type": "uint256"
        }
      ],
      "name": "getRoleMember",
      "outputs": [
        {
          "internalType": "address",
          "name": "",
          "type": "address"
        }
      ],
      "stateMutability": "view",
      "type": "function"
    },
    {
      "inputs": [
        {
          "internalType": "bytes32",
          "name": "role",
          "type": "bytes32"
        }
      ],
      "name": "getRoleMemberCount",
      "outputs": [
        {
          "internalType": "uint256",
          "name": "",
          "type": "uint256"
        }
      ],
      "stateMutability": "view",
      "type": "function"
    },
    {
      "inputs": [
        {
          "internalType": "bytes32",
          "name": "role",
          "type": "bytes32"
        },
        {
          "internalType": "address",
          "name": "account",
          "type": "address"
        }
      ],
      "name": "grantRole",
      "outputs": [],
      "stateMutability": "nonpayable",
      "type": "function"
    },
    {
      "inputs": [
        {
          "internalType": "bytes32",
          "name": "role",
          "type": "bytes32"
        },
        {
          "internalType": "address",
          "name": "account",
          "type": "address"
        }
      ],
      "name": "hasRole",
      "outputs": [
        {
          "internalType": "bool",
          "name": "",
          "type": "bool"
        }
      ],
      "stateMutability": "view",
      "type": "function"
    },
    {
      "inputs": [
        {
          "internalType": "string",
          "name": "uri",
          "type": "string"
        }
      ],
      "name": "initialize",
      "outputs": [],
      "stateMutability": "nonpayable",
      "type": "function"
    },
    {
      "inputs": [
        {
          "internalType": "address",
          "name": "account",
          "type": "address"
        },
        {
          "internalType": "address",
          "name": "operator",
          "type": "address"
        }
      ],
      "name": "isApprovedForAll",
      "outputs": [
        {
          "internalType": "bool",
          "name": "",
          "type": "bool"
        }
      ],
      "stateMutability": "view",
      "type": "function"
    },
    {
      "inputs": [
        {
          "internalType": "address",
          "name": "to",
          "type": "address"
        },
        {
          "internalType": "uint256",
          "name": "id",
          "type": "uint256"
        },
        {
          "internalType": "uint256",
          "name": "amount",
          "type": "uint256"
        },
        {
          "internalType": "bytes",
          "name": "data",
          "type": "bytes"
        }
      ],
      "name": "mint",
      "outputs": [],
      "stateMutability": "nonpayable",
      "type": "function"
    },
    {
      "inputs": [
        {
          "internalType": "address",
          "name": "to",
          "type": "address"
        },
        {
          "internalType": "uint256[]",
          "name": "ids",
          "type": "uint256[]"
        },
        {
          "internalType": "uint256[]",
          "name": "amounts",
          "type": "uint256[]"
        },
        {
          "internalType": "bytes",
          "name": "data",
          "type": "bytes"
        }
      ],
      "name": "mintBatch",
      "outputs": [],
      "stateMutability": "nonpayable",
      "type": "function"
    },
    {
      "inputs": [],
      "name": "pause",
      "outputs": [],
      "stateMutability": "nonpayable",
      "type": "function"
    },
    {
      "inputs": [],
      "name": "paused",
      "outputs": [
        {
          "internalType": "bool",
          "name": "",
          "type": "bool"
        }
      ],
      "stateMutability": "view",
      "type": "function"
    },
    {
      "inputs": [
        {
          "internalType": "bytes32",
          "name": "role",
          "type": "bytes32"
        },
        {
          "internalType": "address",
          "name": "account",
          "type": "address"
        }
      ],
      "name": "renounceRole",
      "outputs": [],
      "stateMutability": "nonpayable",
      "type": "function"
    },
    {
      "inputs": [
        {
          "internalType": "bytes32",
          "name": "role",
          "type": "bytes32"
        },
        {
          "internalType": "address",
          "name": "account",
          "type": "address"
        }
      ],
      "name": "revokeRole",
      "outputs": [],
      "stateMutability": "nonpayable",
      "type": "function"
    },
    {
      "inputs": [
        {
          "internalType": "address",
          "name": "from",
          "type": "address"
        },
        {
          "internalType": "address",
          "name": "to",
          "type": "address"
        },
        {
          "internalType": "uint256[]",
          "name": "ids",
          "type": "uint256[]"
        },
        {
          "internalType": "uint256[]",
          "name": "amounts",
          "type": "uint256[]"
        },
        {
          "internalType": "bytes",
          "name": "data",
          "type": "bytes"
        }
      ],
      "name": "safeBatchTransferFrom",
      "outputs": [],
      "stateMutability": "nonpayable",
      "type": "function"
    },
    {
      "inputs": [
        {
          "internalType": "address",
          "name": "from",
          "type": "address"
        },
        {
          "internalType": "address",
          "name": "to",
          "type": "address"
        },
        {
          "internalType": "uint256",
          "name": "id",
          "type": "uint256"
        },
        {
          "internalType": "uint256",
          "name": "amount",
          "type": "uint256"
        },
        {
          "internalType": "bytes",
          "name": "data",
          "type": "bytes"
        }
      ],
      "name": "safeTransferFrom",
      "outputs": [],
      "stateMutability": "nonpayable",
      "type": "function"
    },
    {
      "inputs": [
        {
          "internalType": "address",
          "name": "operator",
          "type": "address"
        },
        {
          "internalType": "bool",
          "name": "approved",
          "type": "bool"
        }
      ],
      "name": "setApprovalForAll",
      "outputs": [],
      "stateMutability": "nonpayable",
      "type": "function"
    },
    {
      "inputs": [
        {
          "internalType": "bytes4",
          "name": "interfaceId",
          "type": "bytes4"
        }
      ],
      "name": "supportsInterface",
      "outputs": [
        {
          "internalType": "bool",
          "name": "",
          "type": "bool"
        }
      ],
      "stateMutability": "view",
      "type": "function"
    },
    {
      "inputs": [],
      "name": "unpause",
      "outputs": [],
      "stateMutability": "nonpayable",
      "type": "function"
    },
    {
      "inputs": [
        {
          "internalType": "uint256",
          "name": "",
          "type": "uint256"
        }
      ],
      "name": "uri",
      "outputs": [
        {
          "internalType": "string",
          "name": "",
          "type": "string"
        }
      ],
      "stateMutability": "view",
      "type": "function"
    }
  ],
  "bytecode": "0x608060405234801561001057600080fd5b50612ce5806100206000396000f3fe608060405234801561001057600080fd5b506004361061018d5760003560e01c80638456cb59116100de578063d539139311610097578063e985e9c511610071578063e985e9c514610377578063f242432a146103b3578063f5298aca146103c6578063f62d1888146103d957600080fd5b8063d53913931461033a578063d547741f1461034f578063e63ab1e91461036257600080fd5b80638456cb59146102c65780639010d07c146102ce57806391d14854146102f9578063a217fddf1461030c578063a22cb46514610314578063ca15c8731461032757600080fd5b80632f2ff15d1161014b5780634e1273f4116101255780634e1273f4146102745780635c975abb146102945780636b20c454146102a0578063731133e9146102b357600080fd5b80632f2ff15d1461024657806336568abe146102595780633f4ba83a1461026c57600080fd5b8062fdd58e1461019257806301ffc9a7146101b85780630e89341c146101db5780631f7fdffa146101fb578063248a9ca3146102105780632eb2c2d614610233575b600080fd5b6101a56101a0366004611edd565b6103ec565b6040519081526020015b60405180910390f35b6101cb6101c6366004611f1d565b610487565b60405190151581526020016101af565b6101ee6101e9366004611f3a565b610492565b6040516101af9190611fa3565b61020e610209366004612109565b610526565b005b6101a561021e366004611f3a565b60009081526065602052604090206001015490565b61020e6102413660046121a1565b61056c565b61020e61025436600461224a565b6105b8565b61020e61026736600461224a565b6105e2565b61020e610660565b610287610282366004612276565b6106f4565b6040516101af919061237b565b61012d5460ff166101cb565b61020e6102ae36600461238e565b61081d565b61020e6102c1366004612401565b610860565b61020e6108a0565b6102e16102dc366004612455565b610932565b6040516001600160a01b0390911681526020016101af565b6101cb61030736600461224a565b610951565b6101a5600081565b61020e610322366004612477565b61097c565b6101a5610335366004611f3a565b610987565b6101a5600080516020612cb983398151915281565b61020e61035d36600461224a565b61099e565b6101a5600080516020612c9983398151915281565b6101cb6103853660046124b3565b6001600160a01b03918216600090815260ca6020908152604080832093909416825291909152205460ff1690565b61020e6103c13660046124dd565b6109c3565b61020e6103d4366004612541565b610a08565b61020e6103e7366004612574565b610a4b565b60006001600160a01b03831661045c5760405162461bcd60e51b815260206004820152602a60248201527f455243313135353a2061646472657373207a65726f206973206e6f742061207660448201526930b634b21037bbb732b960b11b60648201526084015b60405180910390fd5b50600081815260c9602090815260408083206001600160a01b03861684529091529020545b92915050565b600061048182610b5d565b606060cb80546104a1906125c4565b80601f01602080910402602001604051908101604052809291908181526020018280546104cd906125c4565b801561051a5780601f106104ef5761010080835404028352916020019161051a565b820191906000526020600020905b8154815290600101906020018083116104fd57829003601f168201915b50505050509050919050565b61053e600080516020612cb983398151915233610951565b61055a5760405162461bcd60e51b8152600401610453906125fe565b61056684848484610b9d565b50505050565b6001600160a01b03851633148061058857506105888533610385565b6105a45760405162461bcd60e51b81526004016104539061265b565b6105b18585858585610cf8565b5050505050565b6000828152606560205260409020600101546105d381610ea5565b6105dd8383610eb2565b505050565b6001600160a01b03811633146106525760405162461bcd60e51b815260206004820152602f60248201527f416363657373436f6e74726f6c3a2063616e206f6e6c792072656e6f756e636560448201526e103937b632b9903337b91039b2b63360891b6064820152608401610453565b61065c8282610ed4565b5050565b610678600080516020612c9983398151915233610951565b6106ea5760405162461bcd60e51b815260206004820152603b60248201527f455243313135355072657365744d696e7465725061757365723a206d7573742060448201527f686176652070617573657220726f6c6520746f20756e706175736500000000006064820152608401610453565b6106f2610ef6565b565b606081518351146107595760405162461bcd60e51b815260206004820152602960248201527f455243313135353a206163636f756e747320616e6420696473206c656e677468604482015268040dad2e6dac2e8c6d60bb1b6064820152608401610453565b600083516001600160401b0381111561077457610774611fb6565b60405190808252806020026020018201604052801561079d578160200160208202803683370190505b50905060005b8451811015610815576107e88582815181106107c1576107c16126aa565b60200260200101518583815181106107db576107db6126aa565b60200260200101516103ec565b8282815181106107fa576107fa6126aa565b602090810291909101015261080e816126d6565b90506107a3565b509392505050565b6001600160a01b03831633148061083957506108398333610385565b6108555760405162461bcd60e51b81526004016104539061265b565b6105dd838383610f49565b610878600080516020612cb983398151915233610951565b6108945760405162461bcd60e51b8152600401610453906125fe565b610566848484846110e8565b6108b8600080516020612c9983398151915233610951565b61092a5760405162461bcd60e51b815260206004820152603960248201527f455243313135355072657365744d696e7465725061757365723a206d7573742060448201527f686176652070617573657220726f6c6520746f207061757365000000000000006064820152608401610453565b6106f26111d3565b600082815260976020526040812061094a9083611211565b9392505050565b60009182526065602090815260408084206001600160a01b0393909316845291905290205460ff1690565b61065c33838361121d565b6000818152609760205260408120610481906112fd565b6000828152606560205260409020600101546109b981610ea5565b6105dd8383610ed4565b6001600160a01b0385163314806109df57506109df8533610385565b6109fb5760405162461bcd60e51b81526004016104539061265b565b6105b18585858585611307565b6001600160a01b038316331480610a245750610a248333610385565b610a405760405162461bcd60e51b81526004016104539061265b565b6105dd838383611443565b600054610100900460ff1615808015610a6b5750600054600160ff909116105b80610a855750303b158015610a85575060005460ff166001145b610ae85760405162461bcd60e51b815260206004820152602e60248201527f496e697469616c697a61626c653a20636f6e747261637420697320616c72656160448201526d191e481a5b9a5d1a585b1a5e995960921b6064820152608401610453565b6000805460ff191660011790558015610b0b576000805461ff0019166101001790555b610b148261155f565b801561065c576000805461ff0019169055604051600181527f7f26b83ff96e1f2b6a682f133852f6798a09c465da95921460cefb38474024989060200160405180910390a15050565b60006001600160e01b03198216636cdb3d1360e11b1480610b8e57506001600160e01b031982166303a24d0760e21b145b806104815750610481826115a0565b6001600160a01b038416610bc35760405162461bcd60e51b8152600401610453906126ef565b8151835114610be45760405162461bcd60e51b815260040161045390612730565b33610bf4816000878787876115c5565b60005b8451811015610c9057838181518110610c1257610c126126aa565b602002602001015160c96000878481518110610c3057610c306126aa565b602002602001015181526020019081526020016000206000886001600160a01b03166001600160a01b031681526020019081526020016000206000828254610c789190612778565b90915550819050610c88816126d6565b915050610bf7565b50846001600160a01b031660006001600160a01b0316826001600160a01b03167f4a39dc06d4c0dbc64b70af90fd698a233a518aa5d07e595d983b8c0526c8f7fb8787604051610ce192919061278b565b60405180910390a46105b1816000878787876115d3565b8151835114610d195760405162461bcd60e51b815260040161045390612730565b6001600160a01b038416610d3f5760405162461bcd60e51b8152600401610453906127b9565b33610d4e8187878787876115c5565b60005b8451811015610e37576000858281518110610d6e57610d6e6126aa565b602002602001015190506000858381518110610d8c57610d8c6126aa565b602090810291909101810151600084815260c9835260408082206001600160a01b038e168352909352919091205490915081811015610ddd5760405162461bcd60e51b8152600401610453906127fe565b600083815260c9602090815260408083206001600160a01b038e8116855292528083208585039055908b16825281208054849290610e1c908490612778565b9250508190555050505080610e30906126d6565b9050610d51565b50846001600160a01b0316866001600160a01b0316826001600160a01b03167f4a39dc06d4c0dbc64b70af90fd698a233a518aa5d07e595d983b8c0526c8f7fb8787604051610e8792919061278b565b60405180910390a4610e9d8187878787876115d3565b505050505050565b610eaf813361172e565b50565b610ebc8282611792565b60008281526097602052604090206105dd9082611818565b610ede828261182d565b60008281526097602052604090206105dd9082611894565b610efe6118a9565b61012d805460ff191690557f5db9ee0a495bf2e6ff9c91a7834c1ba4fdd244a5e8aa4e537bd38aeae4b073aa335b6040516001600160a01b03909116815260200160405180910390a1565b6001600160a01b038316610f6f5760405162461bcd60e51b815260040161045390612848565b8051825114610f905760405162461bcd60e51b815260040161045390612730565b6000339050610fb3818560008686604051806020016040528060008152506115c5565b60005b835181101561107b576000848281518110610fd357610fd36126aa565b602002602001015190506000848381518110610ff157610ff16126aa565b602090810291909101810151600084815260c9835260408082206001600160a01b038c1683529093529190912054909150818110156110425760405162461bcd60e51b81526004016104539061288b565b600092835260c9602090815260408085206001600160a01b038b1686529091529092209103905580611073816126d6565b915050610fb6565b5060006001600160a01b0316846001600160a01b0316826001600160a01b03167f4a39dc06d4c0dbc64b70af90fd698a233a518aa5d07e595d983b8c0526c8f7fb86866040516110cc92919061278b565b60405180910390a4604080516020810190915260009052610566565b6001600160a01b03841661110e5760405162461bcd60e51b8152600401610453906126ef565b33600061111a856118f3565b90506000611127856118f3565b9050611138836000898585896115c5565b600086815260c9602090815260408083206001600160a01b038b1684529091528120805487929061116a908490612778565b909155505060408051878152602081018790526001600160a01b03808a1692600092918716917fc3d58168c5ae7397731d063d5bbf3d657854427343f4c083240f7aacaa2d0f62910160405180910390a46111ca8360008989898961193e565b50505050505050565b6111db6119f9565b61012d805460ff191660011790557f62e78cea01bee320cd4e420270b5ea74000d11b0c9f74754ebdbfc544b05a258610f2c3390565b600061094a8383611a40565b816001600160a01b0316836001600160a01b0316036112905760405162461bcd60e51b815260206004820152602960248201527f455243313135353a2073657474696e6720617070726f76616c20737461747573604482015268103337b91039b2b63360b91b6064820152608401610453565b6001600160a01b03838116600081815260ca6020908152604080832094871680845294825291829020805460ff191686151590811790915591519182527f17307eab39ab6107e8899845ad3d59bd9653f200f220920489ca2b5937696c31910160405180910390a3505050565b6000610481825490565b6001600160a01b03841661132d5760405162461bcd60e51b8152600401610453906127b9565b336000611339856118f3565b90506000611346856118f3565b90506113568389898585896115c5565b600086815260c9602090815260408083206001600160a01b038c168452909152902054858110156113995760405162461bcd60e51b8152600401610453906127fe565b600087815260c9602090815260408083206001600160a01b038d8116855292528083208985039055908a168252812080548892906113d8908490612778565b909155505060408051888152602081018890526001600160a01b03808b16928c821692918816917fc3d58168c5ae7397731d063d5bbf3d657854427343f4c083240f7aacaa2d0f62910160405180910390a4611438848a8a8a8a8a61193e565b505050505050505050565b6001600160a01b0383166114695760405162461bcd60e51b815260040161045390612848565b336000611475846118f3565b90506000611482846118f3565b90506114a2838760008585604051806020016040528060008152506115c5565b600085815260c9602090815260408083206001600160a01b038a168452909152902054848110156114e55760405162461bcd60e51b81526004016104539061288b565b600086815260c9602090815260408083206001600160a01b038b81168086529184528285208a8703905582518b81529384018a90529092908816917fc3d58168c5ae7397731d063d5bbf3d657854427343f4c083240f7aacaa2d0f62910160405180910390a46040805160208101909152600090526111ca565b600054610100900460ff166115865760405162461bcd60e51b8152600401610453906128cf565b61158f81611a6a565b611597611a9a565b610eaf81611ace565b60006001600160e01b03198216635a05180f60e01b1480610481575061048182611b30565b610e9d868686868686611b65565b6001600160a01b0384163b15610e9d5760405163bc197c8160e01b81526001600160a01b0385169063bc197c8190611617908990899088908890889060040161291a565b6020604051808303816000875af1925050508015611652575060408051601f3d908101601f1916820190925261164f91810190612978565b60015b6116fe5761165e612995565b806308c379a00361169757506116726129b1565b8061167d5750611699565b8060405162461bcd60e51b81526004016104539190611fa3565b505b60405162461bcd60e51b815260206004820152603460248201527f455243313135353a207472616e7366657220746f206e6f6e20455243313135356044820152732932b1b2b4bb32b91034b6b83632b6b2b73a32b960611b6064820152608401610453565b6001600160e01b0319811663bc197c8160e01b146111ca5760405162461bcd60e51b815260040161045390612a3a565b6117388282610951565b61065c57611750816001600160a01b03166014611bce565b61175b836020611bce565b60405160200161176c929190612a82565b60408051601f198184030181529082905262461bcd60e51b825261045391600401611fa3565b61179c8282610951565b61065c5760008281526065602090815260408083206001600160a01b03851684529091529020805460ff191660011790556117d43390565b6001600160a01b0316816001600160a01b0316837f2f8788117e7eff1d82e926ec794901d17c78024a50270940304540a733656f0d60405160405180910390a45050565b600061094a836001600160a01b038416611d69565b6118378282610951565b1561065c5760008281526065602090815260408083206001600160a01b0385168085529252808320805460ff1916905551339285917ff6391f5c32d9c69d2a47ea670b442974b53935d1edc7fd64eb21e047a839171b9190a45050565b600061094a836001600160a01b038416611db8565b61012d5460ff166106f25760405162461bcd60e51b815260206004820152601460248201527314185d5cd8589b194e881b9bdd081c185d5cd95960621b6044820152606401610453565b6040805160018082528183019092526060916000919060208083019080368337019050509050828160008151811061192d5761192d6126aa565b602090810291909101015292915050565b6001600160a01b0384163b15610e9d5760405163f23a6e6160e01b81526001600160a01b0385169063f23a6e61906119829089908990889088908890600401612af7565b6020604051808303816000875af19250505080156119bd575060408051601f3d908101601f191682019092526119ba91810190612978565b60015b6119c95761165e612995565b6001600160e01b0319811663f23a6e6160e01b146111ca5760405162461bcd60e51b815260040161045390612a3a565b61012d5460ff16156106f25760405162461bcd60e51b815260206004820152601060248201526f14185d5cd8589b194e881c185d5cd95960821b6044820152606401610453565b6000826000018281548110611a5757611a576126aa565b9060005260206000200154905092915050565b600054610100900460ff16611a915760405162461bcd60e51b8152600401610453906128cf565b610eaf81611eab565b600054610100900460ff16611ac15760405162461bcd60e51b8152600401610453906128cf565b61012d805460ff19169055565b600054610100900460ff16611af55760405162461bcd60e51b8152600401610453906128cf565b611b00600033611eb7565b611b18600080516020612cb983398151915233611eb7565b610eaf600080516020612c9983398151915233611eb7565b60006001600160e01b03198216637965db0b60e01b148061048157506301ffc9a760e01b6001600160e01b0319831614610481565b61012d5460ff1615610e9d5760405162461bcd60e51b815260206004820152602c60248201527f455243313135355061757361626c653a20746f6b656e207472616e736665722060448201526b1dda1a5b19481c185d5cd95960a21b6064820152608401610453565b60606000611bdd836002612b3c565b611be8906002612778565b6001600160401b03811115611bff57611bff611fb6565b6040519080825280601f01601f191660200182016040528015611c29576020820181803683370190505b509050600360fc1b81600081518110611c4457611c446126aa565b60200101906001600160f81b031916908160001a905350600f60fb1b81600181518110611c7357611c736126aa565b60200101906001600160f81b031916908160001a9053506000611c97846002612b3c565b611ca2906001612778565b90505b6001811115611d1a576f181899199a1a9b1b9c1cb0b131b232b360811b85600f1660108110611cd657611cd66126aa565b1a60f81b828281518110611cec57611cec6126aa565b60200101906001600160f81b031916908160001a90535060049490941c93611d1381612b53565b9050611ca5565b50831561094a5760405162461bcd60e51b815260206004820181905260248201527f537472696e67733a20686578206c656e67746820696e73756666696369656e746044820152606401610453565b6000818152600183016020526040812054611db057508154600181810184556000848152602080822090930184905584548482528286019093526040902091909155610481565b506000610481565b60008181526001830160205260408120548015611ea1576000611ddc600183612b6a565b8554909150600090611df090600190612b6a565b9050818114611e55576000866000018281548110611e1057611e106126aa565b9060005260206000200154905080876000018481548110611e3357611e336126aa565b6000918252602080832090910192909255918252600188019052604090208390555b8554869080611e6657611e66612b7d565b600190038181906000526020600020016000905590558560010160008681526020019081526020016000206000905560019350505050610481565b6000915050610481565b60cb61065c8282612bd9565b61065c8282610eb2565b80356001600160a01b0381168114611ed857600080fd5b919050565b60008060408385031215611ef057600080fd5b611ef983611ec1565b946020939093013593505050565b6001600160e01b031981168114610eaf57600080fd5b600060208284031215611f2f57600080fd5b813561094a81611f07565b600060208284031215611f4c57600080fd5b5035919050565b60005b83811015611f6e578181015183820152602001611f56565b50506000910152565b60008151808452611f8f816020860160208601611f53565b601f01601f19169290920160200192915050565b60208152600061094a6020830184611f77565b634e487b7160e01b600052604160045260246000fd5b601f8201601f191681016001600160401b0381118282101715611ff157611ff1611fb6565b6040525050565b60006001600160401b0382111561201157612011611fb6565b5060051b60200190565b600082601f83011261202c57600080fd5b8135602061203982611ff8565b6040516120468282611fcc565b83815260059390931b850182019282810191508684111561206657600080fd5b8286015b84811015612081578035835291830191830161206a565b509695505050505050565b60006001600160401b038311156120a5576120a5611fb6565b6040516120bc601f8501601f191660200182611fcc565b8091508381528484840111156120d157600080fd5b83836020830137600060208583010152509392505050565b600082601f8301126120fa57600080fd5b61094a8383356020850161208c565b6000806000806080858703121561211f57600080fd5b61212885611ec1565b935060208501356001600160401b038082111561214457600080fd5b6121508883890161201b565b9450604087013591508082111561216657600080fd5b6121728883890161201b565b9350606087013591508082111561218857600080fd5b50612195878288016120e9565b91505092959194509250565b600080600080600060a086880312156121b957600080fd5b6121c286611ec1565b94506121d060208701611ec1565b935060408601356001600160401b03808211156121ec57600080fd5b6121f889838a0161201b565b9450606088013591508082111561220e57600080fd5b61221a89838a0161201b565b9350608088013591508082111561223057600080fd5b5061223d888289016120e9565b9150509295509295909350565b6000806040838503121561225d57600080fd5b8235915061226d60208401611ec1565b90509250929050565b6000806040838503121561228957600080fd5b82356001600160401b03808211156122a057600080fd5b818501915085601f8301126122b457600080fd5b813560206122c182611ff8565b6040516122ce8282611fcc565b83815260059390931b85018201928281019150898411156122ee57600080fd5b948201945b838610156123135761230486611ec1565b825294820194908201906122f3565b9650508601359250508082111561232957600080fd5b506123368582860161201b565b9150509250929050565b600081518084526020808501945080840160005b8381101561237057815187529582019590820190600101612354565b509495945050505050565b60208152600061094a6020830184612340565b6000806000606084860312156123a357600080fd5b6123ac84611ec1565b925060208401356001600160401b03808211156123c857600080fd5b6123d48783880161201b565b935060408601359150808211156123ea57600080fd5b506123f78682870161201b565b9150509250925092565b6000806000806080858703121561241757600080fd5b61242085611ec1565b9350602085013592506040850135915060608501356001600160401b0381111561244957600080fd5b612195878288016120e9565b6000806040838503121561246857600080fd5b50508035926020909101359150565b6000806040838503121561248a57600080fd5b61249383611ec1565b9150602083013580151581146124a857600080fd5b809150509250929050565b600080604083850312156124c657600080fd5b6124cf83611ec1565b915061226d60208401611ec1565b600080600080600060a086880312156124f557600080fd5b6124fe86611ec1565b945061250c60208701611ec1565b9350604086013592506060860135915060808601356001600160401b0381111561253557600080fd5b61223d888289016120e9565b60008060006060848603121561255657600080fd5b61255f84611ec1565b95602085013595506040909401359392505050565b60006020828403121561258657600080fd5b81356001600160401b0381111561259c57600080fd5b8201601f810184136125ad57600080fd5b6125bc8482356020840161208c565b949350505050565b600181811c908216806125d857607f821691505b6020821081036125f857634e487b7160e01b600052602260045260246000fd5b50919050565b60208082526038908201527f455243313135355072657365744d696e7465725061757365723a206d7573742060408201527f68617665206d696e74657220726f6c6520746f206d696e740000000000000000606082015260800190565b6020808252602f908201527f455243313135353a2063616c6c6572206973206e6f7420746f6b656e206f776e60408201526e195c881b9bdc88185c1c1c9bdd9959608a1b606082015260800190565b634e487b7160e01b600052603260045260246000fd5b634e487b7160e01b600052601160045260246000fd5b6000600182016126e8576126e86126c0565b5060010190565b60208082526021908201527f455243313135353a206d696e7420746f20746865207a65726f206164647265736040820152607360f81b606082015260800190565b60208082526028908201527f455243313135353a2069647320616e6420616d6f756e7473206c656e677468206040820152670dad2e6dac2e8c6d60c31b606082015260800190565b80820180821115610481576104816126c0565b60408152600061279e6040830185612340565b82810360208401526127b08185612340565b95945050505050565b60208082526025908201527f455243313135353a207472616e7366657220746f20746865207a65726f206164604082015264647265737360d81b606082015260800190565b6020808252602a908201527f455243313135353a20696e73756666696369656e742062616c616e636520666f60408201526939103a3930b739b332b960b11b606082015260800190565b60208082526023908201527f455243313135353a206275726e2066726f6d20746865207a65726f206164647260408201526265737360e81b606082015260800190565b60208082526024908201527f455243313135353a206275726e20616d6f756e7420657863656564732062616c604082015263616e636560e01b606082015260800190565b6020808252602b908201527f496e697469616c697a61626c653a20636f6e7472616374206973206e6f74206960408201526a6e697469616c697a696e6760a81b606082015260800190565b6001600160a01b0386811682528516602082015260a06040820181905260009061294690830186612340565b82810360608401526129588186612340565b9050828103608084015261296c8185611f77565b98975050505050505050565b60006020828403121561298a57600080fd5b815161094a81611f07565b600060033d11156129ae5760046000803e5060005160e01c5b90565b600060443d10156129bf5790565b6040516003193d81016004833e81513d6001600160401b0381602484011181841117156129ee57505050505090565b8285019150815181811115612a065750505050505090565b843d8701016020828501011115612a205750505050505090565b612a2f60208286010187611fcc565b509095945050505050565b60208082526028908201527f455243313135353a204552433131353552656365697665722072656a656374656040820152676420746f6b656e7360c01b606082015260800190565b7f416363657373436f6e74726f6c3a206163636f756e7420000000000000000000815260008351612aba816017850160208801611f53565b7001034b99036b4b9b9b4b733903937b6329607d1b6017918401918201528351612aeb816028840160208801611f53565b01602801949350505050565b6001600160a01b03868116825285166020820152604081018490526060810183905260a060808201819052600090612b3190830184611f77565b979650505050505050565b8082028115828204841417610481576104816126c0565b600081612b6257612b626126c0565b506000190190565b81810381811115610481576104816126c0565b634e487b7160e01b600052603160045260246000fd5b601f8211156105dd57600081815260208120601f850160051c81016020861015612bba5750805b601f850160051c820191505b81811015610e9d57828155600101612bc6565b81516001600160401b03811115612bf257612bf2611fb6565b612c0681612c0084546125c4565b84612b93565b602080601f831160018114612c3b5760008415612c235750858301515b600019600386901b1c1916600185901b178555610e9d565b600085815260208120601f198616915b82811015612c6a57888601518255948401946001909101908401612c4b565b5085821015612c885787850151600019600388901b60f8161c191681555b5050505050600190811b0190555056fe65d7a28e3265b37a6474929f336521b332c1681b933f6cb9f3376673440d862a9f2df0fed2c77648de5860a4cc508cd0818c85b8b8a1ab4ceeef8d981c8956a6a164736f6c6343000811000a",
  "linkReferences": {},
  "deployedLinkReferences": {}
}