{
  "_format": "hh-sol-artifact-1",
  "contractName": "ERC1271SmartWalletMock",
  "sourceName": "contracts/mocks/ERC1271SmartWalletMock.sol",
  "abi": [
    {
      "inputs": [
        {
          "internalType": "address",
          "name": "owner",
          "type": "address"
        }
      ],
      "stateMutability": "nonpayable",
      "type": "constructor"
    },
    {
      "inputs": [
        {
          "internalType": "bytes32",
          "name": "_hash",
          "type": "bytes32"
        },
        {
          "internalType": "bytes",
          "name": "_signature",
          "type": "bytes"
        }
      ],
      "name": "isValidSignature",
      "outputs": [
        {
          "internalType": "bytes4",
          "name": "",
          "type": "bytes4"
        }
      ],
      "stateMutability": "view",
      "type": "function"
    }
  ],
  "bytecode": "0x608060405234801561001057600080fd5b506040516104bb3803806104bb83398101604081905261002f91610054565b600080546001600160a01b0319166001600160a01b0392909216919091179055610082565b600060208284031215610065578081fd5b81516001600160a01b038116811461007b578182fd5b9392505050565b61042a806100916000396000f3fe608060405234801561001057600080fd5b506004361061002b5760003560e01c80631626ba7e14610030575b600080fd5b61004361003e366004610235565b610059565b6040516100509190610300565b60405180910390f35b600080546001600160a01b031661007084846100b0565b6001600160a01b031614156100a657507f1626ba7e356f5979dd355a3d2bfb43e80420a480c3b854edce286a82d74968696100aa565b5060005b92915050565b6000806000808451604114156100da5750505060208201516040830151606084015160001a610129565b8451604014156101085750505060408201516020830151906001600160ff1b0381169060ff1c601b01610129565b60405162461bcd60e51b81526004016101209061034c565b60405180910390fd5b6101358682858561013f565b9695505050505050565b60007f7fffffffffffffffffffffffffffffff5d576e7357a4501ddfe92f46681b20a08211156101815760405162461bcd60e51b815260040161012090610383565b8360ff16601b148061019657508360ff16601c145b6101b25760405162461bcd60e51b8152600401610120906103c5565b6000600186868686604051600081526020016040526040516101d794939291906102e2565b6020604051602081039080840390855afa1580156101f9573d6000803e3d6000fd5b5050604051601f1901519150506001600160a01b03811661022c5760405162461bcd60e51b815260040161012090610315565b95945050505050565b60008060408385031215610247578182fd5b8235915060208084013567ffffffffffffffff80821115610266578384fd5b818601915086601f830112610279578384fd5b81358181111561028b5761028b610407565b604051601f8201601f19168101850183811182821017156102ae576102ae610407565b60405281815283820185018910156102c4578586fd5b81858501868301378585838301015280955050505050509250929050565b93845260ff9290921660208401526040830152606082015260800190565b6001600160e01b031991909116815260200190565b60208082526018908201527f45434453413a20696e76616c6964207369676e61747572650000000000000000604082015260600190565b6020808252601f908201527f45434453413a20696e76616c6964207369676e6174757265206c656e67746800604082015260600190565b60208082526022908201527f45434453413a20696e76616c6964207369676e6174757265202773272076616c604082015261756560f01b606082015260800190565b60208082526022908201527f45434453413a20696e76616c6964207369676e6174757265202776272076616c604082015261756560f01b606082015260800190565b634e487b7160e01b600052604160045260246000fdfea164736f6c6343000800000a",
  "linkReferences": {},
  "deployedLinkReferences": {}
}