{
  "_format": "hh-sol-artifact-1",
  "contractName": "ERC2771RegistryContextMock",
  "sourceName": "contracts/mocks/ERC2771RegistryContextMock.sol",
  "abi": [
    {
      "inputs": [
        {
          "internalType": "bytes",
          "name": "data",
          "type": "bytes"
        }
      ],
      "name": "execute",
      "outputs": [
        {
          "internalType": "bool",
          "name": "",
          "type": "bool"
        },
        {
          "internalType": "bytes",
          "name": "",
          "type": "bytes"
        }
      ],
      "stateMutability": "nonpayable",
      "type": "function"
    },
    {
      "inputs": [],
      "name": "initialize",
      "outputs": [],
      "stateMutability": "nonpayable",
      "type": "function"
    },
    {
      "inputs": [
        {
          "internalType": "address",
          "name": "forwarder",
          "type": "address"
        }
      ],
      "name": "isTrustedForwarder",
      "outputs": [
        {
          "internalType": "bool",
          "name": "",
          "type": "bool"
        }
      ],
      "stateMutability": "view",
      "type": "function"
    },
    {
      "inputs": [],
      "name": "msgData",
      "outputs": [
        {
          "internalType": "bytes",
          "name": "",
          "type": "bytes"
        }
      ],
      "stateMutability": "view",
      "type": "function"
    },
    {
      "inputs": [],
      "name": "msgSender",
      "outputs": [
        {
          "internalType": "address",
          "name": "",
          "type": "address"
        }
      ],
      "stateMutability": "view",
      "type": "function"
    },
    {
      "inputs": [],
      "name": "msgToken",
      "outputs": [
        {
          "internalType": "uint256",
          "name": "",
          "type": "uint256"
        }
      ],
      "stateMutability": "view",
      "type": "function"
    }
  ],
  "bytecode": "0x608060405234801561001057600080fd5b506105a5806100206000396000f3fe608060405234801561001057600080fd5b50600436106100625760003560e01c806309c5eabe14610067578063572b6c05146100915780638129fc1c146100b1578063c4c2bfdc146100bb578063d737d0c7146100d1578063f4b06cd8146100e6575b600080fd5b61007a6100753660046103ce565b6100fb565b60405161008892919061046a565b60405180910390f35b6100a461009f3660046103a0565b610167565b604051610088919061045f565b6100b9610178565b005b6100c36101fe565b6040516100889291906104c7565b6100d9610212565b604051610088919061044b565b6100ee610222565b6040516100889190610544565b60006060306001600160a01b0316848460405161011992919061043b565b6000604051808303816000865af19150503d8060008114610156576040519150601f19603f3d011682016040523d82523d6000602084013e61015b565b606091505b50915091509250929050565b6001600160a01b0381163014919050565b600054610100900460ff1680610191575060005460ff16155b6101b65760405162461bcd60e51b81526004016101ad906104f6565b60405180910390fd5b600054610100900460ff161580156101e1576000805460ff1961ff0019909116610100171660011790555b6101e961022c565b80156101fb576000805461ff00191690555b50565b36600061020961029c565b915091505b9091565b600061021c6102da565b90505b90565b600061021c610308565b600054610100900460ff1680610245575060005460ff16155b6102615760405162461bcd60e51b81526004016101ad906104f6565b600054610100900460ff1615801561028c576000805460ff1961ff0019909116610100171660011790555b610294610322565b6101e9610322565b3660006102a833610167565b156102d257600080366102bc603482610575565b926102c99392919061054d565b9150915061020e565b6102c9610395565b60006102e533610167565b156102f9575060331936013560601c61021f565b61030161039c565b905061021f565b600061031333610167565b1561021f5750601f1936013590565b600054610100900460ff168061033b575060005460ff16155b6103575760405162461bcd60e51b81526004016101ad906104f6565b600054610100900460ff161580156101e9576000805460ff1961ff00199091166101001716600117905580156101fb576000805461ff001916905550565b6000369091565b3390565b6000602082840312156103b1578081fd5b81356001600160a01b03811681146103c7578182fd5b9392505050565b600080602083850312156103e0578081fd5b823567ffffffffffffffff808211156103f7578283fd5b818501915085601f83011261040a578283fd5b813581811115610418578384fd5b866020828501011115610429578384fd5b60209290920196919550909350505050565b6000828483379101908152919050565b6001600160a01b0391909116815260200190565b901515815260200190565b6000831515825260206040818401528351806040850152825b8181101561049f57858101830151858201606001528201610483565b818111156104b05783606083870101525b50601f01601f191692909201606001949350505050565b60006020825282602083015282846040840137818301604090810191909152601f909201601f19160101919050565b6020808252602e908201527f496e697469616c697a61626c653a20636f6e747261637420697320616c72656160408201526d191e481a5b9a5d1a585b1a5e995960921b606082015260800190565b90815260200190565b6000808585111561055c578182fd5b83861115610568578182fd5b5050820193919092039150565b60008282101561059357634e487b7160e01b81526011600452602481fd5b50039056fea164736f6c6343000800000a",
  "linkReferences": {},
  "deployedLinkReferences": {}
}