{
  "_format": "hh-sol-artifact-1",
  "contractName": "ERC2771ContextMock",
  "sourceName": "contracts/mocks/ERC2771ContextMock.sol",
  "abi": [
    {
      "inputs": [
        {
          "internalType": "address",
          "name": "forwarder",
          "type": "address"
        }
      ],
      "name": "initialize",
      "outputs": [],
      "stateMutability": "nonpayable",
      "type": "function"
    },
    {
      "inputs": [
        {
          "internalType": "address",
          "name": "forwarder",
          "type": "address"
        }
      ],
      "name": "isTrustedForwarder",
      "outputs": [
        {
          "internalType": "bool",
          "name": "",
          "type": "bool"
        }
      ],
      "stateMutability": "view",
      "type": "function"
    },
    {
      "inputs": [],
      "name": "msgData",
      "outputs": [
        {
          "internalType": "bytes",
          "name": "",
          "type": "bytes"
        }
      ],
      "stateMutability": "view",
      "type": "function"
    },
    {
      "inputs": [],
      "name": "msgSender",
      "outputs": [
        {
          "internalType": "address",
          "name": "",
          "type": "address"
        }
      ],
      "stateMutability": "view",
      "type": "function"
    },
    {
      "inputs": [],
      "name": "msgToken",
      "outputs": [
        {
          "internalType": "uint256",
          "name": "",
          "type": "uint256"
        }
      ],
      "stateMutability": "view",
      "type": "function"
    },
    {
      "inputs": [],
      "name": "run",
      "outputs": [
        {
          "internalType": "string",
          "name": "",
          "type": "string"
        }
      ],
      "stateMutability": "pure",
      "type": "function"
    }
  ],
  "bytecode": "0x608060405234801561001057600080fd5b506105d1806100206000396000f3fe608060405234801561001057600080fd5b50600436106100625760003560e01c8063572b6c0514610067578063c040622614610090578063c4c2bfdc146100a5578063c4d66de8146100bb578063d737d0c7146100d0578063f4b06cd8146100e5575b600080fd5b61007a610075366004610453565b6100fa565b6040516100879190610495565b60405180910390f35b61009861013b565b60405161008791906104cf565b6100ad610173565b6040516100879291906104a0565b6100ce6100c9366004610453565b610187565b005b6100d861020f565b6040516100879190610481565b6100ed61021e565b6040516100879190610570565b60006101257f893ef2ea16c023f61d4f55d3e6ee3fc3f2fbfd478461323dbc2fbf919047086e610170565b546001600160a01b038381169116149050919050565b60408051808201909152601781527f45524332373731436f6e746578744d6f636b3a2072756e00000000000000000060208201525b90565b36600061017e610228565b915091505b9091565b600054610100900460ff16806101a0575060005460ff16155b6101c55760405162461bcd60e51b81526004016101bc90610522565b60405180910390fd5b600054610100900460ff161580156101f0576000805460ff1961ff0019909116610100171660011790555b6101f982610266565b801561020b576000805461ff00191690555b5050565b60006102196102d7565b905090565b6000610219610305565b366000610234336100fa565b1561025e57600080366102486034826105a1565b9261025593929190610579565b91509150610183565b61025561031f565b600054610100900460ff168061027f575060005460ff16155b61029b5760405162461bcd60e51b81526004016101bc90610522565b600054610100900460ff161580156102c6576000805460ff1961ff0019909116610100171660011790555b6102ce610326565b6101f98261039b565b60006102e2336100fa565b156102f6575060331936013560601c610170565b6102fe610404565b9050610170565b6000610310336100fa565b156101705750601f1936013590565b6000369091565b600054610100900460ff168061033f575060005460ff16155b61035b5760405162461bcd60e51b81526004016101bc90610522565b600054610100900460ff16158015610386576000805460ff1961ff0019909116610100171660011790555b8015610398576000805461ff00191690555b50565b600054610100900460ff16806103b4575060005460ff16155b6103d05760405162461bcd60e51b81526004016101bc90610522565b600054610100900460ff161580156103fb576000805460ff1961ff0019909116610100171660011790555b6101f982610408565b3390565b806104327f893ef2ea16c023f61d4f55d3e6ee3fc3f2fbfd478461323dbc2fbf919047086e610170565b80546001600160a01b0319166001600160a01b039290921691909117905550565b600060208284031215610464578081fd5b81356001600160a01b038116811461047a578182fd5b9392505050565b6001600160a01b0391909116815260200190565b901515815260200190565b60006020825282602083015282846040840137818301604090810191909152601f909201601f19160101919050565b6000602080835283518082850152825b818110156104fb578581018301518582016040015282016104df565b8181111561050c5783604083870101525b50601f01601f1916929092016040019392505050565b6020808252602e908201527f496e697469616c697a61626c653a20636f6e747261637420697320616c72656160408201526d191e481a5b9a5d1a585b1a5e995960921b606082015260800190565b90815260200190565b60008085851115610588578182fd5b83861115610594578182fd5b5050820193919092039150565b6000828210156105bf57634e487b7160e01b81526011600452602481fd5b50039056fea164736f6c6343000800000a",
  "linkReferences": {},
  "deployedLinkReferences": {}
}