{
  "_format": "hh-sol-artifact-1",
  "contractName": "Faucet",
  "sourceName": "contracts/smartAccounts/Faucet.sol",
  "abi": [
    {
      "inputs": [],
      "name": "InsufficientBalance",
      "type": "error"
    },
    {
      "inputs": [],
      "name": "NotAuthorizedWorker",
      "type": "error"
    },
    {
      "inputs": [],
      "name": "TransferFailed",
      "type": "error"
    },
    {
      "anonymous": false,
      "inputs": [
        {
          "indexed": false,
          "internalType": "uint8",
          "name": "version",
          "type": "uint8"
        }
      ],
      "name": "Initialized",
      "type": "event"
    },
    {
      "anonymous": false,
      "inputs": [
        {
          "indexed": true,
          "internalType": "address",
          "name": "previousOwner",
          "type": "address"
        },
        {
          "indexed": true,
          "internalType": "address",
          "name": "newOwner",
          "type": "address"
        }
      ],
      "name": "OwnershipTransferred",
      "type": "event"
    },
    {
      "inputs": [
        {
          "internalType": "address[]",
          "name": "workers",
          "type": "address[]"
        }
      ],
      "name": "addAuthorizedWorkers",
      "outputs": [],
      "stateMutability": "nonpayable",
      "type": "function"
    },
    {
      "inputs": [
        {
          "internalType": "address",
          "name": "",
          "type": "address"
        }
      ],
      "name": "authorizedWorkers",
      "outputs": [
        {
          "internalType": "bool",
          "name": "",
          "type": "bool"
        }
      ],
      "stateMutability": "view",
      "type": "function"
    },
    {
      "inputs": [],
      "name": "fundWorker",
      "outputs": [],
      "stateMutability": "nonpayable",
      "type": "function"
    },
    {
      "inputs": [
        {
          "internalType": "uint256",
          "name": "_workerFundingAmount",
          "type": "uint256"
        },
        {
          "internalType": "uint256",
          "name": "_workerBalanceThreshold",
          "type": "uint256"
        }
      ],
      "name": "initialize",
      "outputs": [],
      "stateMutability": "nonpayable",
      "type": "function"
    },
    {
      "inputs": [],
      "name": "owner",
      "outputs": [
        {
          "internalType": "address",
          "name": "",
          "type": "address"
        }
      ],
      "stateMutability": "view",
      "type": "function"
    },
    {
      "inputs": [
        {
          "internalType": "address[]",
          "name": "workers",
          "type": "address[]"
        }
      ],
      "name": "removeAuthorizedWorkers",
      "outputs": [],
      "stateMutability": "nonpayable",
      "type": "function"
    },
    {
      "inputs": [],
      "name": "renounceOwnership",
      "outputs": [],
      "stateMutability": "nonpayable",
      "type": "function"
    },
    {
      "inputs": [
        {
          "internalType": "uint256",
          "name": "threshold",
          "type": "uint256"
        }
      ],
      "name": "setWorkerBalanceThreshold",
      "outputs": [],
      "stateMutability": "nonpayable",
      "type": "function"
    },
    {
      "inputs": [
        {
          "internalType": "uint256",
          "name": "amount",
          "type": "uint256"
        }
      ],
      "name": "setWorkerFundingAmount",
      "outputs": [],
      "stateMutability": "nonpayable",
      "type": "function"
    },
    {
      "inputs": [
        {
          "internalType": "address",
          "name": "newOwner",
          "type": "address"
        }
      ],
      "name": "transferOwnership",
      "outputs": [],
      "stateMutability": "nonpayable",
      "type": "function"
    },
    {
      "inputs": [
        {
          "internalType": "uint256",
          "name": "amount",
          "type": "uint256"
        }
      ],
      "name": "withdraw",
      "outputs": [],
      "stateMutability": "nonpayable",
      "type": "function"
    },
    {
      "inputs": [],
      "name": "withdrawAll",
      "outputs": [],
      "stateMutability": "nonpayable",
      "type": "function"
    },
    {
      "inputs": [],
      "name": "workerBalanceThreshold",
      "outputs": [
        {
          "internalType": "uint256",
          "name": "",
          "type": "uint256"
        }
      ],
      "stateMutability": "view",
      "type": "function"
    },
    {
      "inputs": [],
      "name": "workerFundingAmount",
      "outputs": [
        {
          "internalType": "uint256",
          "name": "",
          "type": "uint256"
        }
      ],
      "stateMutability": "view",
      "type": "function"
    },
    {
      "stateMutability": "payable",
      "type": "receive"
    }
  ],
  "bytecode": "0x608060405234801561000f575f80fd5b5061089f8061001d5f395ff3fe6080604052600436106100dc575f3560e01c80638f5bdbb91161007c578063c2352bbb11610057578063c2352bbb14610224578063e4a3011614610243578063eee5170614610262578063f2fde38b14610281575f80fd5b80638f5bdbb9146101ae578063919f4ca3146101d15780639e6c39921461020f575f80fd5b8063853828b6116100b7578063853828b61461013b57806386cb61c21461014f5780638b6d5fb7146101635780638da5cb5b14610182575f80fd5b80631ebf770c146100e75780632e1a7d4d14610108578063715018a614610127575f80fd5b366100e357005b5f80fd5b3480156100f2575f80fd5b50610106610101366004610760565b6102a0565b005b348015610113575f80fd5b50610106610122366004610760565b6102ad565b348015610132575f80fd5b50610106610304565b348015610146575f80fd5b50610106610317565b34801561015a575f80fd5b5061010661034b565b34801561016e575f80fd5b5061010661017d366004610777565b6103e1565b34801561018d575f80fd5b506033546040516001600160a01b0390911681526020015b60405180910390f35b3480156101b9575f80fd5b506101c360665481565b6040519081526020016101a5565b3480156101dc575f80fd5b506101ff6101eb3660046107e6565b60676020525f908152604090205460ff1681565b60405190151581526020016101a5565b34801561021a575f80fd5b506101c360655481565b34801561022f575f80fd5b5061010661023e366004610760565b610452565b34801561024e575f80fd5b5061010661025d366004610813565b61045f565b34801561026d575f80fd5b5061010661027c366004610777565b61057a565b34801561028c575f80fd5b5061010661029b3660046107e6565b6105e7565b6102a861065d565b606655565b6102b561065d565b478111156102d657604051631e9acf1760e31b815260040160405180910390fd5b604051339082156108fc029083905f818181858888f19350505050158015610300573d5f803e3d5ffd5b5050565b61030c61065d565b6103155f6106b7565b565b61031f61065d565b60405133904780156108fc02915f818181858888f19350505050158015610348573d5f803e3d5ffd5b50565b335f9081526067602052604090205460ff1661037a5760405163738e2b6d60e11b815260040160405180910390fd5b6066546040515f9133918381818185875af1925050503d805f81146103ba576040519150601f19603f3d011682016040523d82523d5f602084013e6103bf565b606091505b5050905080610348576040516312171d8360e31b815260040160405180910390fd5b6103e961065d565b5f5b8181101561044d575f60675f85858581811061040957610409610833565b905060200201602081019061041e91906107e6565b6001600160a01b0316815260208101919091526040015f20805460ff19169115159190911790556001016103eb565b505050565b61045a61065d565b606555565b5f54610100900460ff161580801561047d57505f54600160ff909116105b806104965750303b15801561049657505f5460ff166001145b6104fe5760405162461bcd60e51b815260206004820152602e60248201527f496e697469616c697a61626c653a20636f6e747261637420697320616c72656160448201526d191e481a5b9a5d1a585b1a5e995960921b60648201526084015b60405180910390fd5b5f805460ff19166001179055801561051f575f805461ff0019166101001790555b610527610708565b60668390556065829055801561044d575f805461ff0019169055604051600181527f7f26b83ff96e1f2b6a682f133852f6798a09c465da95921460cefb38474024989060200160405180910390a1505050565b61058261065d565b5f5b8181101561044d57600160675f8585858181106105a3576105a3610833565b90506020020160208101906105b891906107e6565b6001600160a01b0316815260208101919091526040015f20805460ff1916911515919091179055600101610584565b6105ef61065d565b6001600160a01b0381166106545760405162461bcd60e51b815260206004820152602660248201527f4f776e61626c653a206e6577206f776e657220697320746865207a65726f206160448201526564647265737360d01b60648201526084016104f5565b610348816106b7565b6033546001600160a01b031633146103155760405162461bcd60e51b815260206004820181905260248201527f4f776e61626c653a2063616c6c6572206973206e6f7420746865206f776e657260448201526064016104f5565b603380546001600160a01b038381166001600160a01b0319831681179093556040519116919082907f8be0079c531659141344cd1fd0a4f28419497f9722a3daafe3b4186f6b6457e0905f90a35050565b5f54610100900460ff1661072e5760405162461bcd60e51b81526004016104f590610847565b6103155f54610100900460ff166107575760405162461bcd60e51b81526004016104f590610847565b610315336106b7565b5f60208284031215610770575f80fd5b5035919050565b5f8060208385031215610788575f80fd5b823567ffffffffffffffff8082111561079f575f80fd5b818501915085601f8301126107b2575f80fd5b8135818111156107c0575f80fd5b8660208260051b85010111156107d4575f80fd5b60209290920196919550909350505050565b5f602082840312156107f6575f80fd5b81356001600160a01b038116811461080c575f80fd5b9392505050565b5f8060408385031215610824575f80fd5b50508035926020909101359150565b634e487b7160e01b5f52603260045260245ffd5b6020808252602b908201527f496e697469616c697a61626c653a20636f6e7472616374206973206e6f74206960408201526a6e697469616c697a696e6760a81b60608201526080019056fea164736f6c6343000818000a",
  "linkReferences": {},
  "deployedLinkReferences": {}
}