{
  "_format": "hh-sol-artifact-1",
  "contractName": "Faucet",
  "sourceName": "contracts/smartAccounts/Faucet.sol",
  "abi": [
    {
      "inputs": [],
      "stateMutability": "nonpayable",
      "type": "constructor"
    },
    {
      "anonymous": false,
      "inputs": [
        {
          "indexed": true,
          "internalType": "address",
          "name": "previousOwner",
          "type": "address"
        },
        {
          "indexed": true,
          "internalType": "address",
          "name": "newOwner",
          "type": "address"
        }
      ],
      "name": "OwnershipTransferred",
      "type": "event"
    },
    {
      "inputs": [
        {
          "internalType": "address[]",
          "name": "_workers",
          "type": "address[]"
        }
      ],
      "name": "addAuthorizedWorkers",
      "outputs": [],
      "stateMutability": "nonpayable",
      "type": "function"
    },
    {
      "inputs": [],
      "name": "owner",
      "outputs": [
        {
          "internalType": "address",
          "name": "",
          "type": "address"
        }
      ],
      "stateMutability": "view",
      "type": "function"
    },
    {
      "inputs": [
        {
          "internalType": "address[]",
          "name": "_workers",
          "type": "address[]"
        }
      ],
      "name": "removeAuthorizedWorkers",
      "outputs": [],
      "stateMutability": "nonpayable",
      "type": "function"
    },
    {
      "inputs": [],
      "name": "renounceOwnership",
      "outputs": [],
      "stateMutability": "nonpayable",
      "type": "function"
    },
    {
      "inputs": [
        {
          "internalType": "address",
          "name": "newOwner",
          "type": "address"
        }
      ],
      "name": "transferOwnership",
      "outputs": [],
      "stateMutability": "nonpayable",
      "type": "function"
    },
    {
      "inputs": [],
      "name": "withdraw",
      "outputs": [],
      "stateMutability": "nonpayable",
      "type": "function"
    },
    {
      "stateMutability": "payable",
      "type": "receive"
    }
  ],
  "bytecode": "0x608060405234801561000f575f80fd5b506100193361001e565b61006d565b5f80546001600160a01b038381166001600160a01b0319831681178455604051919092169283917f8be0079c531659141344cd1fd0a4f28419497f9722a3daafe3b4186f6b6457e09190a35050565b6104718061007a5f395ff3fe608060405260043610610057575f3560e01c80633ccfd60b14610062578063715018a6146100785780638b6d5fb71461008c5780638da5cb5b146100ab578063eee51706146100d5578063f2fde38b146100f4575f80fd5b3661005e57005b5f80fd5b34801561006d575f80fd5b50610076610113565b005b348015610083575f80fd5b506100766101a6565b348015610097575f80fd5b506100766100a63660046103b4565b6101b9565b3480156100b6575f80fd5b505f54604080516001600160a01b039092168252519081900360200190f35b3480156100e0575f80fd5b506100766100ef3660046103b4565b61022a565b3480156100ff575f80fd5b5061007661010e366004610423565b610296565b335f9081526001602052604090205460ff166101765760405162461bcd60e51b815260206004820181905260248201527f4661756365743a204e6f7420616e20617574686f72697a656420776f726b657260448201526064015b60405180910390fd5b60405133905f90670de0b6b3a76400009082818181858883f193505050501580156101a3573d5f803e3d5ffd5b50565b6101ae61030c565b6101b75f610365565b565b6101c161030c565b5f5b81811015610225575f60015f8585858181106101e1576101e1610450565b90506020020160208101906101f69190610423565b6001600160a01b0316815260208101919091526040015f20805460ff19169115159190911790556001016101c3565b505050565b61023261030c565b5f5b81811015610225576001805f85858581811061025257610252610450565b90506020020160208101906102679190610423565b6001600160a01b0316815260208101919091526040015f20805460ff1916911515919091179055600101610234565b61029e61030c565b6001600160a01b0381166103035760405162461bcd60e51b815260206004820152602660248201527f4f776e61626c653a206e6577206f776e657220697320746865207a65726f206160448201526564647265737360d01b606482015260840161016d565b6101a381610365565b5f546001600160a01b031633146101b75760405162461bcd60e51b815260206004820181905260248201527f4f776e61626c653a2063616c6c6572206973206e6f7420746865206f776e6572604482015260640161016d565b5f80546001600160a01b038381166001600160a01b0319831681178455604051919092169283917f8be0079c531659141344cd1fd0a4f28419497f9722a3daafe3b4186f6b6457e09190a35050565b5f80602083850312156103c5575f80fd5b823567ffffffffffffffff808211156103dc575f80fd5b818501915085601f8301126103ef575f80fd5b8135818111156103fd575f80fd5b8660208260051b8501011115610411575f80fd5b60209290920196919550909350505050565b5f60208284031215610433575f80fd5b81356001600160a01b0381168114610449575f80fd5b9392505050565b634e487b7160e01b5f52603260045260245ffdfea164736f6c6343000818000a",
  "linkReferences": {},
  "deployedLinkReferences": {}
}