{
  "_format": "hh-sol-artifact-1",
  "contractName": "Faucet",
  "sourceName": "contracts/smartAccounts/Faucet.sol",
  "abi": [
    {
      "inputs": [
        {
          "internalType": "uint256",
          "name": "_workerFundingAmount",
          "type": "uint256"
        }
      ],
      "stateMutability": "nonpayable",
      "type": "constructor"
    },
    {
      "anonymous": false,
      "inputs": [
        {
          "indexed": true,
          "internalType": "address",
          "name": "previousOwner",
          "type": "address"
        },
        {
          "indexed": true,
          "internalType": "address",
          "name": "newOwner",
          "type": "address"
        }
      ],
      "name": "OwnershipTransferred",
      "type": "event"
    },
    {
      "inputs": [
        {
          "internalType": "address[]",
          "name": "workers",
          "type": "address[]"
        }
      ],
      "name": "addAuthorizedWorkers",
      "outputs": [],
      "stateMutability": "nonpayable",
      "type": "function"
    },
    {
      "inputs": [],
      "name": "owner",
      "outputs": [
        {
          "internalType": "address",
          "name": "",
          "type": "address"
        }
      ],
      "stateMutability": "view",
      "type": "function"
    },
    {
      "inputs": [
        {
          "internalType": "address[]",
          "name": "workers",
          "type": "address[]"
        }
      ],
      "name": "removeAuthorizedWorkers",
      "outputs": [],
      "stateMutability": "nonpayable",
      "type": "function"
    },
    {
      "inputs": [],
      "name": "renounceOwnership",
      "outputs": [],
      "stateMutability": "nonpayable",
      "type": "function"
    },
    {
      "inputs": [
        {
          "internalType": "uint256",
          "name": "amount",
          "type": "uint256"
        }
      ],
      "name": "setWorkerFundingAmount",
      "outputs": [],
      "stateMutability": "nonpayable",
      "type": "function"
    },
    {
      "inputs": [
        {
          "internalType": "address",
          "name": "newOwner",
          "type": "address"
        }
      ],
      "name": "transferOwnership",
      "outputs": [],
      "stateMutability": "nonpayable",
      "type": "function"
    },
    {
      "inputs": [
        {
          "internalType": "uint256",
          "name": "amount",
          "type": "uint256"
        }
      ],
      "name": "withdraw",
      "outputs": [],
      "stateMutability": "nonpayable",
      "type": "function"
    },
    {
      "inputs": [],
      "name": "withdraw",
      "outputs": [],
      "stateMutability": "nonpayable",
      "type": "function"
    },
    {
      "inputs": [],
      "name": "withdrawAll",
      "outputs": [],
      "stateMutability": "nonpayable",
      "type": "function"
    },
    {
      "inputs": [],
      "name": "workerFundingAmount",
      "outputs": [
        {
          "internalType": "uint256",
          "name": "",
          "type": "uint256"
        }
      ],
      "stateMutability": "view",
      "type": "function"
    },
    {
      "stateMutability": "payable",
      "type": "receive"
    }
  ],
  "bytecode": "0x608060405234801561000f575f80fd5b5060405161071938038061071983398101604081905261002e9161008e565b6100373361003f565b6001556100a5565b5f80546001600160a01b038381166001600160a01b0319831681178455604051919092169283917f8be0079c531659141344cd1fd0a4f28419497f9722a3daafe3b4186f6b6457e09190a35050565b5f6020828403121561009e575f80fd5b5051919050565b610667806100b25f395ff3fe608060405260043610610092575f3560e01c80638b6d5fb7116100575780638b6d5fb7146101195780638da5cb5b146101385780638f5bdbb914610163578063eee5170614610186578063f2fde38b146101a5575f80fd5b80631ebf770c1461009d5780632e1a7d4d146100be5780633ccfd60b146100dd578063715018a6146100f1578063853828b614610105575f80fd5b3661009957005b5f80fd5b3480156100a8575f80fd5b506100bc6100b7366004610593565b6101c4565b005b3480156100c9575f80fd5b506100bc6100d8366004610593565b6101d1565b3480156100e8575f80fd5b506100bc61025c565b3480156100fc575f80fd5b506100bc610353565b348015610110575f80fd5b506100bc610366565b348015610124575f80fd5b506100bc6101333660046105aa565b610397565b348015610143575f80fd5b505f546040516001600160a01b0390911681526020015b60405180910390f35b34801561016e575f80fd5b5061017860015481565b60405190815260200161015a565b348015610191575f80fd5b506100bc6101a03660046105aa565b610408565b3480156101b0575f80fd5b506100bc6101bf366004610619565b610475565b6101cc6104eb565b600155565b6101d96104eb565b4781111561022e5760405162461bcd60e51b815260206004820152601c60248201527f4661756365743a20496e73756666696369656e742062616c616e63650000000060448201526064015b60405180910390fd5b604051339082156108fc029083905f818181858888f19350505050158015610258573d5f803e3d5ffd5b5050565b335f9081526002602052604090205460ff166102ba5760405162461bcd60e51b815260206004820181905260248201527f4661756365743a204e6f7420616e20617574686f72697a656420776f726b65726044820152606401610225565b6001546040515f9133918381818185875af1925050503d805f81146102fa576040519150601f19603f3d011682016040523d82523d5f602084013e6102ff565b606091505b50509050806103505760405162461bcd60e51b815260206004820152601760248201527f4661756365743a205472616e73666572206661696c65640000000000000000006044820152606401610225565b50565b61035b6104eb565b6103645f610544565b565b61036e6104eb565b60405133904780156108fc02915f818181858888f19350505050158015610350573d5f803e3d5ffd5b61039f6104eb565b5f5b81811015610403575f60025f8585858181106103bf576103bf610646565b90506020020160208101906103d49190610619565b6001600160a01b0316815260208101919091526040015f20805460ff19169115159190911790556001016103a1565b505050565b6104106104eb565b5f5b8181101561040357600160025f85858581811061043157610431610646565b90506020020160208101906104469190610619565b6001600160a01b0316815260208101919091526040015f20805460ff1916911515919091179055600101610412565b61047d6104eb565b6001600160a01b0381166104e25760405162461bcd60e51b815260206004820152602660248201527f4f776e61626c653a206e6577206f776e657220697320746865207a65726f206160448201526564647265737360d01b6064820152608401610225565b61035081610544565b5f546001600160a01b031633146103645760405162461bcd60e51b815260206004820181905260248201527f4f776e61626c653a2063616c6c6572206973206e6f7420746865206f776e65726044820152606401610225565b5f80546001600160a01b038381166001600160a01b0319831681178455604051919092169283917f8be0079c531659141344cd1fd0a4f28419497f9722a3daafe3b4186f6b6457e09190a35050565b5f602082840312156105a3575f80fd5b5035919050565b5f80602083850312156105bb575f80fd5b823567ffffffffffffffff808211156105d2575f80fd5b818501915085601f8301126105e5575f80fd5b8135818111156105f3575f80fd5b8660208260051b8501011115610607575f80fd5b60209290920196919550909350505050565b5f60208284031215610629575f80fd5b81356001600160a01b038116811461063f575f80fd5b9392505050565b634e487b7160e01b5f52603260045260245ffdfea164736f6c6343000818000a",
  "linkReferences": {},
  "deployedLinkReferences": {}
}