{
  "_format": "hh-sol-artifact-1",
  "contractName": "Faucet",
  "sourceName": "contracts/smartAccounts/Faucet.sol",
  "abi": [
    {
      "inputs": [],
      "stateMutability": "nonpayable",
      "type": "constructor"
    },
    {
      "anonymous": false,
      "inputs": [
        {
          "indexed": true,
          "internalType": "address",
          "name": "previousOwner",
          "type": "address"
        },
        {
          "indexed": true,
          "internalType": "address",
          "name": "newOwner",
          "type": "address"
        }
      ],
      "name": "OwnershipTransferred",
      "type": "event"
    },
    {
      "inputs": [
        {
          "internalType": "address[]",
          "name": "_workers",
          "type": "address[]"
        }
      ],
      "name": "addAuthorizedWorkers",
      "outputs": [],
      "stateMutability": "nonpayable",
      "type": "function"
    },
    {
      "inputs": [],
      "name": "owner",
      "outputs": [
        {
          "internalType": "address",
          "name": "",
          "type": "address"
        }
      ],
      "stateMutability": "view",
      "type": "function"
    },
    {
      "inputs": [
        {
          "internalType": "address[]",
          "name": "_workers",
          "type": "address[]"
        }
      ],
      "name": "removeAuthorizedWorkers",
      "outputs": [],
      "stateMutability": "nonpayable",
      "type": "function"
    },
    {
      "inputs": [],
      "name": "renounceOwnership",
      "outputs": [],
      "stateMutability": "nonpayable",
      "type": "function"
    },
    {
      "inputs": [
        {
          "internalType": "address",
          "name": "newOwner",
          "type": "address"
        }
      ],
      "name": "transferOwnership",
      "outputs": [],
      "stateMutability": "nonpayable",
      "type": "function"
    },
    {
      "inputs": [
        {
          "internalType": "uint256",
          "name": "_amount",
          "type": "uint256"
        }
      ],
      "name": "withdraw",
      "outputs": [],
      "stateMutability": "nonpayable",
      "type": "function"
    },
    {
      "inputs": [],
      "name": "withdraw",
      "outputs": [],
      "stateMutability": "nonpayable",
      "type": "function"
    },
    {
      "stateMutability": "payable",
      "type": "receive"
    }
  ],
  "bytecode": "0x608060405234801561000f575f80fd5b506100193361001e565b61006d565b5f80546001600160a01b038381166001600160a01b0319831681178455604051919092169283917f8be0079c531659141344cd1fd0a4f28419497f9722a3daafe3b4186f6b6457e09190a35050565b6105478061007a5f395ff3fe608060405260043610610071575f3560e01c80638b6d5fb71161004c5780638b6d5fb7146100c55780638da5cb5b146100e4578063eee517061461010e578063f2fde38b1461012d575f80fd5b80632e1a7d4d1461007c5780633ccfd60b1461009d578063715018a6146100b1575f80fd5b3661007857005b5f80fd5b348015610087575f80fd5b5061009b610096366004610473565b61014c565b005b3480156100a8575f80fd5b5061009b6101d7565b3480156100bc575f80fd5b5061009b610265565b3480156100d0575f80fd5b5061009b6100df36600461048a565b610278565b3480156100ef575f80fd5b505f54604080516001600160a01b039092168252519081900360200190f35b348015610119575f80fd5b5061009b61012836600461048a565b6102e9565b348015610138575f80fd5b5061009b6101473660046104f9565b610355565b6101546103cb565b478111156101a95760405162461bcd60e51b815260206004820152601c60248201527f4661756365743a20496e73756666696369656e742062616c616e63650000000060448201526064015b60405180910390fd5b604051339082156108fc029083905f818181858888f193505050501580156101d3573d5f803e3d5ffd5b5050565b335f9081526001602052604090205460ff166102355760405162461bcd60e51b815260206004820181905260248201527f4661756365743a204e6f7420616e20617574686f72697a656420776f726b657260448201526064016101a0565b60405133905f9067016345785d8a00009082818181858883f19350505050158015610262573d5f803e3d5ffd5b50565b61026d6103cb565b6102765f610424565b565b6102806103cb565b5f5b818110156102e4575f60015f8585858181106102a0576102a0610526565b90506020020160208101906102b591906104f9565b6001600160a01b0316815260208101919091526040015f20805460ff1916911515919091179055600101610282565b505050565b6102f16103cb565b5f5b818110156102e4576001805f85858581811061031157610311610526565b905060200201602081019061032691906104f9565b6001600160a01b0316815260208101919091526040015f20805460ff19169115159190911790556001016102f3565b61035d6103cb565b6001600160a01b0381166103c25760405162461bcd60e51b815260206004820152602660248201527f4f776e61626c653a206e6577206f776e657220697320746865207a65726f206160448201526564647265737360d01b60648201526084016101a0565b61026281610424565b5f546001600160a01b031633146102765760405162461bcd60e51b815260206004820181905260248201527f4f776e61626c653a2063616c6c6572206973206e6f7420746865206f776e657260448201526064016101a0565b5f80546001600160a01b038381166001600160a01b0319831681178455604051919092169283917f8be0079c531659141344cd1fd0a4f28419497f9722a3daafe3b4186f6b6457e09190a35050565b5f60208284031215610483575f80fd5b5035919050565b5f806020838503121561049b575f80fd5b823567ffffffffffffffff808211156104b2575f80fd5b818501915085601f8301126104c5575f80fd5b8135818111156104d3575f80fd5b8660208260051b85010111156104e7575f80fd5b60209290920196919550909350505050565b5f60208284031215610509575f80fd5b81356001600160a01b038116811461051f575f80fd5b9392505050565b634e487b7160e01b5f52603260045260245ffdfea164736f6c6343000818000a",
  "linkReferences": {},
  "deployedLinkReferences": {}
}