{
  "_format": "hh-sol-artifact-1",
  "contractName": "Faucet",
  "sourceName": "contracts/smartAccounts/Faucet.sol",
  "abi": [
    {
      "anonymous": false,
      "inputs": [
        {
          "indexed": false,
          "internalType": "uint8",
          "name": "version",
          "type": "uint8"
        }
      ],
      "name": "Initialized",
      "type": "event"
    },
    {
      "anonymous": false,
      "inputs": [
        {
          "indexed": true,
          "internalType": "address",
          "name": "previousOwner",
          "type": "address"
        },
        {
          "indexed": true,
          "internalType": "address",
          "name": "newOwner",
          "type": "address"
        }
      ],
      "name": "OwnershipTransferred",
      "type": "event"
    },
    {
      "inputs": [
        {
          "internalType": "address[]",
          "name": "workers",
          "type": "address[]"
        }
      ],
      "name": "addAuthorizedWorkers",
      "outputs": [],
      "stateMutability": "nonpayable",
      "type": "function"
    },
    {
      "inputs": [
        {
          "internalType": "address",
          "name": "",
          "type": "address"
        }
      ],
      "name": "authorizedWorkers",
      "outputs": [
        {
          "internalType": "bool",
          "name": "",
          "type": "bool"
        }
      ],
      "stateMutability": "view",
      "type": "function"
    },
    {
      "inputs": [],
      "name": "fundWorker",
      "outputs": [],
      "stateMutability": "nonpayable",
      "type": "function"
    },
    {
      "inputs": [
        {
          "internalType": "uint256",
          "name": "_workerFundingAmount",
          "type": "uint256"
        }
      ],
      "name": "initialize",
      "outputs": [],
      "stateMutability": "nonpayable",
      "type": "function"
    },
    {
      "inputs": [],
      "name": "owner",
      "outputs": [
        {
          "internalType": "address",
          "name": "",
          "type": "address"
        }
      ],
      "stateMutability": "view",
      "type": "function"
    },
    {
      "inputs": [
        {
          "internalType": "address[]",
          "name": "workers",
          "type": "address[]"
        }
      ],
      "name": "removeAuthorizedWorkers",
      "outputs": [],
      "stateMutability": "nonpayable",
      "type": "function"
    },
    {
      "inputs": [],
      "name": "renounceOwnership",
      "outputs": [],
      "stateMutability": "nonpayable",
      "type": "function"
    },
    {
      "inputs": [
        {
          "internalType": "uint256",
          "name": "amount",
          "type": "uint256"
        }
      ],
      "name": "setWorkerFundingAmount",
      "outputs": [],
      "stateMutability": "nonpayable",
      "type": "function"
    },
    {
      "inputs": [
        {
          "internalType": "address",
          "name": "newOwner",
          "type": "address"
        }
      ],
      "name": "transferOwnership",
      "outputs": [],
      "stateMutability": "nonpayable",
      "type": "function"
    },
    {
      "inputs": [
        {
          "internalType": "uint256",
          "name": "amount",
          "type": "uint256"
        }
      ],
      "name": "withdraw",
      "outputs": [],
      "stateMutability": "nonpayable",
      "type": "function"
    },
    {
      "inputs": [],
      "name": "withdrawAll",
      "outputs": [],
      "stateMutability": "nonpayable",
      "type": "function"
    },
    {
      "inputs": [],
      "name": "workerFundingAmount",
      "outputs": [
        {
          "internalType": "uint256",
          "name": "",
          "type": "uint256"
        }
      ],
      "stateMutability": "view",
      "type": "function"
    },
    {
      "stateMutability": "payable",
      "type": "receive"
    }
  ],
  "bytecode": "0x608060405234801561000f575f80fd5b506108918061001d5f395ff3fe6080604052600436106100a8575f3560e01c80638da5cb5b116100625780638da5cb5b1461014e5780638f5bdbb91461017a578063919f4ca31461019d578063eee51706146101db578063f2fde38b146101fa578063fe4b84df14610219575f80fd5b80631ebf770c146100b35780632e1a7d4d146100d4578063715018a6146100f3578063853828b61461010757806386cb61c21461011b5780638b6d5fb71461012f575f80fd5b366100af57005b5f80fd5b3480156100be575f80fd5b506100d26100cd366004610772565b610238565b005b3480156100df575f80fd5b506100d26100ee366004610772565b610245565b3480156100fe575f80fd5b506100d26102d0565b348015610112575f80fd5b506100d26102e3565b348015610126575f80fd5b506100d2610317565b34801561013a575f80fd5b506100d2610149366004610789565b61040b565b348015610159575f80fd5b506033546040516001600160a01b0390911681526020015b60405180910390f35b348015610185575f80fd5b5061018f60655481565b604051908152602001610171565b3480156101a8575f80fd5b506101cb6101b73660046107f8565b60666020525f908152604090205460ff1681565b6040519015158152602001610171565b3480156101e6575f80fd5b506100d26101f5366004610789565b61047c565b348015610205575f80fd5b506100d26102143660046107f8565b6104e9565b348015610224575f80fd5b506100d2610233366004610772565b61055f565b61024061066f565b606555565b61024d61066f565b478111156102a25760405162461bcd60e51b815260206004820152601c60248201527f4661756365743a20496e73756666696369656e742062616c616e63650000000060448201526064015b60405180910390fd5b604051339082156108fc029083905f818181858888f193505050501580156102cc573d5f803e3d5ffd5b5050565b6102d861066f565b6102e15f6106c9565b565b6102eb61066f565b60405133904780156108fc02915f818181858888f19350505050158015610314573d5f803e3d5ffd5b50565b335f9081526066602052604090205460ff166103755760405162461bcd60e51b815260206004820181905260248201527f4661756365743a204e6f7420616e20617574686f72697a656420776f726b65726044820152606401610299565b6065546040515f9133918381818185875af1925050503d805f81146103b5576040519150601f19603f3d011682016040523d82523d5f602084013e6103ba565b606091505b50509050806103145760405162461bcd60e51b815260206004820152601760248201527f4661756365743a205472616e73666572206661696c65640000000000000000006044820152606401610299565b61041361066f565b5f5b81811015610477575f60665f85858581811061043357610433610825565b905060200201602081019061044891906107f8565b6001600160a01b0316815260208101919091526040015f20805460ff1916911515919091179055600101610415565b505050565b61048461066f565b5f5b8181101561047757600160665f8585858181106104a5576104a5610825565b90506020020160208101906104ba91906107f8565b6001600160a01b0316815260208101919091526040015f20805460ff1916911515919091179055600101610486565b6104f161066f565b6001600160a01b0381166105565760405162461bcd60e51b815260206004820152602660248201527f4f776e61626c653a206e6577206f776e657220697320746865207a65726f206160448201526564647265737360d01b6064820152608401610299565b610314816106c9565b5f54610100900460ff161580801561057d57505f54600160ff909116105b806105965750303b15801561059657505f5460ff166001145b6105f95760405162461bcd60e51b815260206004820152602e60248201527f496e697469616c697a61626c653a20636f6e747261637420697320616c72656160448201526d191e481a5b9a5d1a585b1a5e995960921b6064820152608401610299565b5f805460ff19166001179055801561061a575f805461ff0019166101001790555b61062261071a565b606582905580156102cc575f805461ff0019169055604051600181527f7f26b83ff96e1f2b6a682f133852f6798a09c465da95921460cefb38474024989060200160405180910390a15050565b6033546001600160a01b031633146102e15760405162461bcd60e51b815260206004820181905260248201527f4f776e61626c653a2063616c6c6572206973206e6f7420746865206f776e65726044820152606401610299565b603380546001600160a01b038381166001600160a01b0319831681179093556040519116919082907f8be0079c531659141344cd1fd0a4f28419497f9722a3daafe3b4186f6b6457e0905f90a35050565b5f54610100900460ff166107405760405162461bcd60e51b815260040161029990610839565b6102e15f54610100900460ff166107695760405162461bcd60e51b815260040161029990610839565b6102e1336106c9565b5f60208284031215610782575f80fd5b5035919050565b5f806020838503121561079a575f80fd5b823567ffffffffffffffff808211156107b1575f80fd5b818501915085601f8301126107c4575f80fd5b8135818111156107d2575f80fd5b8660208260051b85010111156107e6575f80fd5b60209290920196919550909350505050565b5f60208284031215610808575f80fd5b81356001600160a01b038116811461081e575f80fd5b9392505050565b634e487b7160e01b5f52603260045260245ffd5b6020808252602b908201527f496e697469616c697a61626c653a20636f6e7472616374206973206e6f74206960408201526a6e697469616c697a696e6760a81b60608201526080019056fea164736f6c6343000818000a",
  "linkReferences": {},
  "deployedLinkReferences": {}
}