{
  "_format": "hh-sol-artifact-1",
  "contractName": "Greeting",
  "sourceName": "contracts/Greeting.sol",
  "abi": [
    {
      "inputs": [],
      "name": "greet",
      "outputs": [
        {
          "internalType": "string",
          "name": "name",
          "type": "string"
        }
      ],
      "stateMutability": "view",
      "type": "function"
    },
    {
      "inputs": [
        {
          "internalType": "string",
          "name": "name",
          "type": "string"
        }
      ],
      "name": "rememberName",
      "outputs": [],
      "stateMutability": "nonpayable",
      "type": "function"
    }
  ],
  "bytecode": "0x608060405234801561001057600080fd5b50610645806100206000396000f3fe608060405234801561001057600080fd5b50600436106100365760003560e01c8063cfae32171461003b578063e5ec7e1914610059575b600080fd5b61004361006e565b60405161005091906104e6565b60405180910390f35b61006c61006736600461044a565b61009d565b005b60606100786100bc565b60405160200161008891906104b7565b60405160208183030381529060405290505b90565b3360009081526020819052604090206100b79083836103b1565b505050565b336000908152602081905260408120805460609291906100db906105cc565b905011156101825733600090815260208190526040902080546100fd906105cc565b80601f0160208091040260200160405190810160405280929190818152602001828054610129906105cc565b80156101765780601f1061014b57610100808354040283529160200191610176565b820191906000526020600020905b81548152906001019060200180831161015957829003601f168201915b5050505050905061009a565b61018b33610190565b905090565b6060816101b857506040805180820190915260048152630307830360e41b60208201526101ea565b8160005b81156101db57806101cc81610607565b915050600882901c91506101bc565b6101e584826101ef565b925050505b919050565b606060006101fe836002610566565b61020990600261054e565b67ffffffffffffffff81111561022f57634e487b7160e01b600052604160045260246000fd5b6040519080825280601f01601f191660200182016040528015610259576020820181803683370190505b509050600360fc1b8160008151811061028257634e487b7160e01b600052603260045260246000fd5b60200101906001600160f81b031916908160001a905350600f60fb1b816001815181106102bf57634e487b7160e01b600052603260045260246000fd5b60200101906001600160f81b031916908160001a90535060006102e3846002610566565b6102ee90600161054e565b90505b6001811115610382576f181899199a1a9b1b9c1cb0b131b232b360811b85600f166010811061033057634e487b7160e01b600052603260045260246000fd5b1a60f81b82828151811061035457634e487b7160e01b600052603260045260246000fd5b60200101906001600160f81b031916908160001a90535060049490941c9361037b816105b5565b90506102f1565b5083156103aa5760405162461bcd60e51b81526004016103a190610519565b60405180910390fd5b9392505050565b8280546103bd906105cc565b90600052602060002090601f0160209004810192826103df5760008555610425565b82601f106103f85782800160ff19823516178555610425565b82800160010185558215610425579182015b8281111561042557823582559160200191906001019061040a565b50610431929150610435565b5090565b5b808211156104315760008155600101610436565b6000806020838503121561045c578182fd5b823567ffffffffffffffff80821115610473578384fd5b818501915085601f830112610486578384fd5b813581811115610494578485fd5b8660208285010111156104a5578485fd5b60209290920196919550909350505050565b60006602432b6363796160cd1b825282516104d9816007850160208701610585565b9190910160070192915050565b6000602082528251806020840152610505816040850160208701610585565b601f01601f19169190910160400192915050565b6020808252818101527f537472696e67733a20686578206c656e67746820696e73756666696369656e74604082015260600190565b6000821982111561056157610561610622565b500190565b600081600019048311821515161561058057610580610622565b500290565b60005b838110156105a0578181015183820152602001610588565b838111156105af576000848401525b50505050565b6000816105c4576105c4610622565b506000190190565b6002810460018216806105e057607f821691505b6020821081141561060157634e487b7160e01b600052602260045260246000fd5b50919050565b600060001982141561061b5761061b610622565b5060010190565b634e487b7160e01b600052601160045260246000fdfea164736f6c6343000800000a",
  "linkReferences": {},
  "deployedLinkReferences": {}
}