{
  "_format": "hh-sol-artifact-1",
  "contractName": "GreetingForwarder",
  "sourceName": "contracts/metatx/GreetingForwarder.sol",
  "abi": [
    {
      "inputs": [
        {
          "internalType": "address",
          "name": "greeting",
          "type": "address"
        }
      ],
      "stateMutability": "nonpayable",
      "type": "constructor"
    },
    {
      "inputs": [
        {
          "components": [
            {
              "internalType": "address",
              "name": "from",
              "type": "address"
            },
            {
              "internalType": "uint256",
              "name": "nonce",
              "type": "uint256"
            },
            {
              "internalType": "bytes",
              "name": "data",
              "type": "bytes"
            }
          ],
          "internalType": "struct ForwardRequest",
          "name": "req",
          "type": "tuple"
        },
        {
          "internalType": "bytes",
          "name": "signature",
          "type": "bytes"
        }
      ],
      "name": "execute",
      "outputs": [
        {
          "internalType": "bytes",
          "name": "",
          "type": "bytes"
        }
      ],
      "stateMutability": "nonpayable",
      "type": "function"
    },
    {
      "inputs": [
        {
          "internalType": "address",
          "name": "account",
          "type": "address"
        }
      ],
      "name": "nonceOf",
      "outputs": [
        {
          "internalType": "uint256",
          "name": "",
          "type": "uint256"
        }
      ],
      "stateMutability": "view",
      "type": "function"
    },
    {
      "inputs": [
        {
          "components": [
            {
              "internalType": "address",
              "name": "from",
              "type": "address"
            },
            {
              "internalType": "uint256",
              "name": "nonce",
              "type": "uint256"
            },
            {
              "internalType": "bytes",
              "name": "data",
              "type": "bytes"
            }
          ],
          "internalType": "struct ForwardRequest",
          "name": "req",
          "type": "tuple"
        },
        {
          "internalType": "bytes",
          "name": "signature",
          "type": "bytes"
        }
      ],
      "name": "verify",
      "outputs": [
        {
          "internalType": "bool",
          "name": "",
          "type": "bool"
        }
      ],
      "stateMutability": "view",
      "type": "function"
    }
  ],
  "bytecode": "0x608060405234801561001057600080fd5b506040516109f03803806109f083398101604081905261002f91610054565b600080546001600160a01b0319166001600160a01b0392909216919091179055610082565b600060208284031215610065578081fd5b81516001600160a01b038116811461007b578182fd5b9392505050565b61095f806100916000396000f3fe608060405234801561001057600080fd5b50600436106100415760003560e01c8063b189169914610046578063c4192b6e1461006f578063ed2a2d641461008f575b600080fd5b61005961005436600461055f565b6100af565b60405161006691906106d1565b60405180910390f35b61008261007d36600461055f565b6100d1565b60405161006691906106fa565b6100a261009d366004610531565b6101dc565b60405161006691906108a9565b600080546100c99085906001600160a01b031685856101f7565b949350505050565b60606100de8484846100af565b6101035760405162461bcd60e51b81526004016100fa9061081f565b60405180910390fd5b6101186101136020860186610531565b61031d565b6000805481906001600160a01b03165a61013560408901896108b2565b61014260208b018b610531565b60405160200161015493929190610647565b60408051601f198184030181529082905261016e91610670565b60006040518083038160008787f1925050503d80600081146101ac576040519150601f19603f3d011682016040523d82523d6000602084013e6101b1565b606091505b5091509150816101d35760405162461bcd60e51b81526004016100fa90610863565b95945050505050565b6001600160a01b031660009081526001602052604090205490565b60008061026261020a60408801886108b2565b604051610218929190610637565b604051809103902086886020013587878080601f01602080910402602001604051908101604052809392919081815260200183838082843760009201919091525061035e92505050565b90506102716020870187610531565b6001600160a01b0316816001600160a01b0316148015610313575060208601803590309063ed2a2d64906102a5908a610531565b6040518263ffffffff1660e01b81526004016102c191906106bd565b60206040518083038186803b1580156102d957600080fd5b505afa1580156102ed573d6000803e3d6000fd5b505050506040513d601f19601f8201168201806040525081019061031191906105f7565b145b9695505050505050565b6001600160a01b038116600090815260016020819052604090912054610342916108fe565b6001600160a01b03909116600090815260016020526040902055565b60006101d38261039787878760405160200161037c9392919061060f565b6040516020818303038152906040528051906020012061039d565b906103cd565b6000816040516020016103b0919061068c565b604051602081830303815290604052805190602001209050919050565b6000806000808451604114156103f75750505060208201516040830151606084015160001a61043d565b8451604014156104255750505060408201516020830151906001600160ff1b0381169060ff1c601b0161043d565b60405162461bcd60e51b81526004016100fa90610764565b6103138682858560007f7fffffffffffffffffffffffffffffff5d576e7357a4501ddfe92f46681b20a08211156104865760405162461bcd60e51b81526004016100fa9061079b565b8360ff16601b148061049b57508360ff16601c145b6104b75760405162461bcd60e51b81526004016100fa906107dd565b6000600186868686604051600081526020016040526040516104dc94939291906106dc565b6020604051602081039080840390855afa1580156104fe573d6000803e3d6000fd5b5050604051601f1901519150506001600160a01b0381166101d35760405162461bcd60e51b81526004016100fa9061072d565b600060208284031215610542578081fd5b81356001600160a01b0381168114610558578182fd5b9392505050565b600080600060408486031215610573578182fd5b833567ffffffffffffffff8082111561058a578384fd5b908501906060828803121561059d578384fd5b909350602085013590808211156105b2578384fd5b818601915086601f8301126105c5578384fd5b8135818111156105d3578485fd5b8760208285010111156105e4578485fd5b6020830194508093505050509250925092565b600060208284031215610608578081fd5b5051919050565b92835260609190911b6bffffffffffffffffffffffff19166020830152603482015260540190565b6000828483379101908152919050565b6000838583375060609190911b6bffffffffffffffffffffffff19169101908152601401919050565b60008251610682818460208701610922565b9190910192915050565b7f19457468657265756d205369676e6564204d6573736167653a0a3332000000008152601c810191909152603c0190565b6001600160a01b0391909116815260200190565b901515815260200190565b93845260ff9290921660208401526040830152606082015260800190565b6000602082528251806020840152610719816040850160208701610922565b601f01601f19169190910160400192915050565b60208082526018908201527f45434453413a20696e76616c6964207369676e61747572650000000000000000604082015260600190565b6020808252601f908201527f45434453413a20696e76616c6964207369676e6174757265206c656e67746800604082015260600190565b60208082526022908201527f45434453413a20696e76616c6964207369676e6174757265202773272076616c604082015261756560f01b606082015260800190565b60208082526022908201527f45434453413a20696e76616c6964207369676e6174757265202776272076616c604082015261756560f01b606082015260800190565b60208082526024908201527f4772656574696e67466f727761726465723a205349474e41545552455f494e566040820152631053125160e21b606082015260800190565b60208082526026908201527f4772656574696e67466f727761726465723a20464f52574152445f43414c4c5f60408201526511905253115160d21b606082015260800190565b90815260200190565b6000808335601e198436030181126108c8578283fd5b83018035915067ffffffffffffffff8211156108e2578283fd5b6020019150368190038213156108f757600080fd5b9250929050565b6000821982111561091d57634e487b7160e01b81526011600452602481fd5b500190565b60005b8381101561093d578181015183820152602001610925565b8381111561094c576000848401525b5050505056fea164736f6c6343000800000a",
  "linkReferences": {},
  "deployedLinkReferences": {}
}