{
  "_format": "hh-sol-artifact-1",
  "contractName": "Greeting",
  "sourceName": "contracts/Greeting.sol",
  "abi": [
    {
      "inputs": [],
      "name": "getForwarder",
      "outputs": [
        {
          "internalType": "address",
          "name": "",
          "type": "address"
        }
      ],
      "stateMutability": "view",
      "type": "function"
    },
    {
      "inputs": [],
      "name": "greet",
      "outputs": [
        {
          "internalType": "string",
          "name": "name",
          "type": "string"
        }
      ],
      "stateMutability": "view",
      "type": "function"
    },
    {
      "inputs": [
        {
          "internalType": "address",
          "name": "forwarder",
          "type": "address"
        }
      ],
      "name": "isTrustedForwarder",
      "outputs": [
        {
          "internalType": "bool",
          "name": "",
          "type": "bool"
        }
      ],
      "stateMutability": "view",
      "type": "function"
    },
    {
      "inputs": [
        {
          "internalType": "string",
          "name": "name",
          "type": "string"
        }
      ],
      "name": "rememberName",
      "outputs": [],
      "stateMutability": "nonpayable",
      "type": "function"
    },
    {
      "inputs": [
        {
          "internalType": "address",
          "name": "forwarder",
          "type": "address"
        }
      ],
      "name": "setForwarder",
      "outputs": [],
      "stateMutability": "nonpayable",
      "type": "function"
    }
  ],
  "bytecode": "0x608060405234801561001057600080fd5b506107c3806100206000396000f3fe608060405234801561001057600080fd5b50600436106100575760003560e01c8063572b6c051461005c578063a004252614610085578063b9998a241461009a578063cfae3217146100af578063e5ec7e19146100c4575b600080fd5b61006f61006a366004610582565b6100d7565b60405161007c9190610659565b60405180910390f35b61008d6100ee565b60405161007c9190610645565b6100ad6100a8366004610582565b6100fe565b005b6100b7610120565b60405161007c9190610664565b6100ad6100d23660046105a9565b61014e565b6000546001600160a01b038281169116145b919050565b6000546001600160a01b03165b90565b600080546001600160a01b0319166001600160a01b0392909216919091179055565b606061012a610185565b60405160200161013a9190610616565b604051602081830303815290604052905090565b81816001600061015c6102a2565b6001600160a01b0316815260208101919091526040016000206101809290916104e9565b505050565b60606000600160006101956102a2565b6001600160a01b03166001600160a01b0316815260200190815260200160002080546101c09061074a565b9050111561028457600160006101d46102a2565b6001600160a01b03166001600160a01b0316815260200190815260200160002080546101ff9061074a565b80601f016020809104026020016040519081016040528092919081815260200182805461022b9061074a565b80156102785780601f1061024d57610100808354040283529160200191610278565b820191906000526020600020905b81548152906001019060200180831161025b57829003601f168201915b505050505090506100fb565b61029d61028f6102a2565b6001600160a01b03166102ca565b905090565b33601436108015906102b857506102b8816100d7565b156100fb575060131936013560601c90565b6060816102f257506040805180820190915260048152630307830360e41b60208201526100e9565b8160005b8115610315578061030681610785565b915050600882901c91506102f6565b61031f8482610327565b949350505050565b606060006103368360026106e4565b6103419060026106cc565b67ffffffffffffffff81111561036757634e487b7160e01b600052604160045260246000fd5b6040519080825280601f01601f191660200182016040528015610391576020820181803683370190505b509050600360fc1b816000815181106103ba57634e487b7160e01b600052603260045260246000fd5b60200101906001600160f81b031916908160001a905350600f60fb1b816001815181106103f757634e487b7160e01b600052603260045260246000fd5b60200101906001600160f81b031916908160001a905350600061041b8460026106e4565b6104269060016106cc565b90505b60018111156104ba576f181899199a1a9b1b9c1cb0b131b232b360811b85600f166010811061046857634e487b7160e01b600052603260045260246000fd5b1a60f81b82828151811061048c57634e487b7160e01b600052603260045260246000fd5b60200101906001600160f81b031916908160001a90535060049490941c936104b381610733565b9050610429565b5083156104e25760405162461bcd60e51b81526004016104d990610697565b60405180910390fd5b9392505050565b8280546104f59061074a565b90600052602060002090601f016020900481019282610517576000855561055d565b82601f106105305782800160ff1982351617855561055d565b8280016001018555821561055d579182015b8281111561055d578235825591602001919060010190610542565b5061056992915061056d565b5090565b5b80821115610569576000815560010161056e565b600060208284031215610593578081fd5b81356001600160a01b03811681146104e2578182fd5b600080602083850312156105bb578081fd5b823567ffffffffffffffff808211156105d2578283fd5b818501915085601f8301126105e5578283fd5b8135818111156105f3578384fd5b866020828501011115610604578384fd5b60209290920196919550909350505050565b60006602432b6363796160cd1b82528251610638816007850160208701610703565b9190910160070192915050565b6001600160a01b0391909116815260200190565b901515815260200190565b6000602082528251806020840152610683816040850160208701610703565b601f01601f19169190910160400192915050565b6020808252818101527f537472696e67733a20686578206c656e67746820696e73756666696369656e74604082015260600190565b600082198211156106df576106df6107a0565b500190565b60008160001904831182151516156106fe576106fe6107a0565b500290565b60005b8381101561071e578181015183820152602001610706565b8381111561072d576000848401525b50505050565b600081610742576107426107a0565b506000190190565b60028104600182168061075e57607f821691505b6020821081141561077f57634e487b7160e01b600052602260045260246000fd5b50919050565b6000600019821415610799576107996107a0565b5060010190565b634e487b7160e01b600052601160045260246000fdfea164736f6c6343000800000a",
  "linkReferences": {},
  "deployedLinkReferences": {}
}