{
  "_format": "hh-sol-artifact-1",
  "contractName": "GringottsEscrow",
  "sourceName": "contracts/GringottsEscrow.sol",
  "abi": [
    {
      "inputs": [
        {
          "internalType": "bytes32",
          "name": "secretHash",
          "type": "bytes32"
        },
        {
          "internalType": "uint256",
          "name": "expiration",
          "type": "uint256"
        }
      ],
      "name": "deposit",
      "outputs": [],
      "stateMutability": "payable",
      "type": "function"
    },
    {
      "inputs": [
        {
          "internalType": "string",
          "name": "secret",
          "type": "string"
        },
        {
          "internalType": "address",
          "name": "addr",
          "type": "address"
        }
      ],
      "name": "generateSecretHash",
      "outputs": [
        {
          "internalType": "bytes32",
          "name": "",
          "type": "bytes32"
        }
      ],
      "stateMutability": "pure",
      "type": "function"
    },
    {
      "inputs": [
        {
          "internalType": "string",
          "name": "secret",
          "type": "string"
        }
      ],
      "name": "withdraw",
      "outputs": [],
      "stateMutability": "nonpayable",
      "type": "function"
    }
  ],
  "bytecode": "0x608060405234801561001057600080fd5b506105a6806100206000396000f3fe6080604052600436106100345760003560e01c80631de26e161461003957806331fb67c21461004e578063c0461cfe1461006e575b600080fd5b61004c61004736600461038e565b6100a4565b005b34801561005a57600080fd5b5061004c6100693660046103af565b610173565b34801561007a57600080fd5b5061008e6100893660046103ef565b6102e0565b60405161009b919061047b565b60405180910390f35b6000828152602081905260409020546001600160a01b0316156100e25760405162461bcd60e51b81526004016100d990610484565b60405180910390fd5b346100ff5760405162461bcd60e51b81526004016100d990610528565b42811161011e5760405162461bcd60e51b81526004016100d9906104fe565b6040805160608101825233815260208082019384523482840190815260009586529085905291909320925183546001600160a01b0319166001600160a01b039091161783559051600183015551600290910155565b60006101808383306102e0565b60008181526020818152604091829020825160608101845281546001600160a01b031680825260018301549382019390935260029091015492810192909252919250906101df5760405162461bcd60e51b81526004016100d99061054d565b428160200151111561021a5780516001600160a01b03163314156102155760405162461bcd60e51b81526004016100d9906104d7565b610243565b80516001600160a01b031633146102435760405162461bcd60e51b81526004016100d9906104ae565b600080336001600160a01b0316836040015160405161026190610478565b60006040518083038185875af1925050503d806000811461029e576040519150601f19603f3d011682016040523d82523d6000602084013e6102a3565b606091505b50915091506102b28282610316565b505050600090815260208190526040812080546001600160a01b031916815560018101829055600201555050565b60008383836040516020016102f79392919061044f565b6040516020818303038152906040528051906020012090509392505050565b816103435780511561032b5780518082602001fd5b60405162461bcd60e51b81526004016100d990610575565b5050565b60008083601f840112610358578182fd5b50813567ffffffffffffffff81111561036f578182fd5b60208301915083602082850101111561038757600080fd5b9250929050565b600080604083850312156103a0578182fd5b50508035926020909101359150565b600080602083850312156103c1578182fd5b823567ffffffffffffffff8111156103d7578283fd5b6103e385828601610347565b90969095509350505050565b600080600060408486031215610403578081fd5b833567ffffffffffffffff811115610419578182fd5b61042586828701610347565b90945092505060208401356001600160a01b0381168114610444578182fd5b809150509250925092565b6000838583375060609190911b6bffffffffffffffffffffffff19169101908152601401919050565b90565b90815260200190565b60208082526010908201526f111554131250d0551157d4d150d4915560821b604082015260600190565b6020808252600f908201526e1154d0d493d5d7d5539313d0d2d151608a1b604082015260600190565b6020808252600d908201526c1154d0d493d5d7d313d0d2d151609a1b604082015260600190565b60208082526010908201526f2ba927a723afa2ac2824a920aa24a7a760811b604082015260600190565b6020808252600b908201526a16915493d7d05353d5539560aa1b604082015260600190565b6020808252600e908201526d155392d393d5d397d4d150d4915560921b604082015260600190565b6020808252600a908201526929a2a7222fa2a92927a960b11b60408201526060019056fea164736f6c6343000800000a",
  "linkReferences": {},
  "deployedLinkReferences": {}
}