{
  "_format": "hh-sol-artifact-1",
  "contractName": "GringottsEscrow",
  "sourceName": "contracts/GringottsEscrow.sol",
  "abi": [
    {
      "inputs": [
        {
          "internalType": "bytes32",
          "name": "secretHash",
          "type": "bytes32"
        },
        {
          "internalType": "uint256",
          "name": "expiration",
          "type": "uint256"
        }
      ],
      "name": "deposit",
      "outputs": [],
      "stateMutability": "payable",
      "type": "function"
    },
    {
      "inputs": [
        {
          "internalType": "string",
          "name": "secret",
          "type": "string"
        },
        {
          "internalType": "address",
          "name": "addr",
          "type": "address"
        }
      ],
      "name": "generateSecretHash",
      "outputs": [
        {
          "internalType": "bytes32",
          "name": "",
          "type": "bytes32"
        }
      ],
      "stateMutability": "pure",
      "type": "function"
    },
    {
      "inputs": [
        {
          "internalType": "string",
          "name": "secret",
          "type": "string"
        }
      ],
      "name": "withdraw",
      "outputs": [],
      "stateMutability": "nonpayable",
      "type": "function"
    }
  ],
  "bytecode": "0x608060405234801561001057600080fd5b50610610806100206000396000f3fe6080604052600436106100345760003560e01c80631de26e161461003957806331fb67c21461004e578063c0461cfe1461006e575b600080fd5b61004c6100473660046103c1565b6100a4565b005b34801561005a57600080fd5b5061004c6100693660046103e2565b610174565b34801561007a57600080fd5b5061008e610089366004610422565b610313565b60405161009b91906104ae565b60405180910390f35b6000828152603360205260409020546001600160a01b0316156100e25760405162461bcd60e51b81526004016100d9906104b7565b60405180910390fd5b346100ff5760405162461bcd60e51b81526004016100d99061055b565b42811161011e5760405162461bcd60e51b81526004016100d990610531565b604080516060810182523381526020808201938452348284019081526000958652603390915291909320925183546001600160a01b0319166001600160a01b039091161783559051600183015551600290910155565b600260015414156101975760405162461bcd60e51b81526004016100d9906105a8565b600260015560006101a9838330610313565b600081815260336020908152604091829020825160608101845281546001600160a01b0316808252600183015493820193909352600290910154928101929092529192509061020a5760405162461bcd60e51b81526004016100d990610580565b42816020015111156102455780516001600160a01b03163314156102405760405162461bcd60e51b81526004016100d99061050a565b61026e565b80516001600160a01b0316331461026e5760405162461bcd60e51b81526004016100d9906104e1565b600080336001600160a01b0316836040015160405161028c906104ab565b60006040518083038185875af1925050503d80600081146102c9576040519150601f19603f3d011682016040523d82523d6000602084013e6102ce565b606091505b50915091506102dd8282610349565b505050600090815260336020526040812080546001600160a01b0319168155600180820183905560029091019190915580555050565b600083838360405160200161032a93929190610482565b6040516020818303038152906040528051906020012090509392505050565b816103765780511561035e5780518082602001fd5b60405162461bcd60e51b81526004016100d9906105df565b5050565b60008083601f84011261038b578182fd5b50813567ffffffffffffffff8111156103a2578182fd5b6020830191508360208285010111156103ba57600080fd5b9250929050565b600080604083850312156103d3578182fd5b50508035926020909101359150565b600080602083850312156103f4578182fd5b823567ffffffffffffffff81111561040a578283fd5b6104168582860161037a565b90969095509350505050565b600080600060408486031215610436578081fd5b833567ffffffffffffffff81111561044c578182fd5b6104588682870161037a565b90945092505060208401356001600160a01b0381168114610477578182fd5b809150509250925092565b6000838583375060609190911b6bffffffffffffffffffffffff19169101908152601401919050565b90565b90815260200190565b60208082526010908201526f111554131250d0551157d4d150d4915560821b604082015260600190565b6020808252600f908201526e1154d0d493d5d7d5539313d0d2d151608a1b604082015260600190565b6020808252600d908201526c1154d0d493d5d7d313d0d2d151609a1b604082015260600190565b60208082526010908201526f2ba927a723afa2ac2824a920aa24a7a760811b604082015260600190565b6020808252600b908201526a16915493d7d05353d5539560aa1b604082015260600190565b6020808252600e908201526d155392d393d5d397d4d150d4915560921b604082015260600190565b6020808252601f908201527f5265656e7472616e637947756172643a207265656e7472616e742063616c6c00604082015260600190565b6020808252600a908201526929a2a7222fa2a92927a960b11b60408201526060019056fea164736f6c6343000800000a",
  "linkReferences": {},
  "deployedLinkReferences": {}
}