{
  "_format": "hh-sol-artifact-1",
  "contractName": "LegacyENSRegistry",
  "sourceName": "contracts/@ens/LegacyENSRegistry.sol",
  "abi": [
    {
      "inputs": [],
      "stateMutability": "nonpayable",
      "type": "constructor"
    },
    {
      "anonymous": false,
      "inputs": [
        {
          "indexed": true,
          "internalType": "bytes32",
          "name": "node",
          "type": "bytes32"
        },
        {
          "indexed": true,
          "internalType": "bytes32",
          "name": "label",
          "type": "bytes32"
        },
        {
          "indexed": false,
          "internalType": "address",
          "name": "owner",
          "type": "address"
        }
      ],
      "name": "NewOwner",
      "type": "event"
    },
    {
      "anonymous": false,
      "inputs": [
        {
          "indexed": true,
          "internalType": "bytes32",
          "name": "node",
          "type": "bytes32"
        },
        {
          "indexed": false,
          "internalType": "address",
          "name": "resolver",
          "type": "address"
        }
      ],
      "name": "NewResolver",
      "type": "event"
    },
    {
      "anonymous": false,
      "inputs": [
        {
          "indexed": true,
          "internalType": "bytes32",
          "name": "node",
          "type": "bytes32"
        },
        {
          "indexed": false,
          "internalType": "uint64",
          "name": "ttl",
          "type": "uint64"
        }
      ],
      "name": "NewTTL",
      "type": "event"
    },
    {
      "anonymous": false,
      "inputs": [
        {
          "indexed": true,
          "internalType": "bytes32",
          "name": "node",
          "type": "bytes32"
        },
        {
          "indexed": false,
          "internalType": "address",
          "name": "owner",
          "type": "address"
        }
      ],
      "name": "Transfer",
      "type": "event"
    },
    {
      "inputs": [
        {
          "internalType": "bytes32",
          "name": "node",
          "type": "bytes32"
        }
      ],
      "name": "owner",
      "outputs": [
        {
          "internalType": "address",
          "name": "",
          "type": "address"
        }
      ],
      "stateMutability": "view",
      "type": "function"
    },
    {
      "inputs": [
        {
          "internalType": "bytes32",
          "name": "node",
          "type": "bytes32"
        }
      ],
      "name": "resolver",
      "outputs": [
        {
          "internalType": "address",
          "name": "",
          "type": "address"
        }
      ],
      "stateMutability": "view",
      "type": "function"
    },
    {
      "inputs": [
        {
          "internalType": "bytes32",
          "name": "node",
          "type": "bytes32"
        },
        {
          "internalType": "address",
          "name": "owner",
          "type": "address"
        }
      ],
      "name": "setOwner",
      "outputs": [],
      "stateMutability": "nonpayable",
      "type": "function"
    },
    {
      "inputs": [
        {
          "internalType": "bytes32",
          "name": "node",
          "type": "bytes32"
        },
        {
          "internalType": "address",
          "name": "resolver",
          "type": "address"
        }
      ],
      "name": "setResolver",
      "outputs": [],
      "stateMutability": "nonpayable",
      "type": "function"
    },
    {
      "inputs": [
        {
          "internalType": "bytes32",
          "name": "node",
          "type": "bytes32"
        },
        {
          "internalType": "bytes32",
          "name": "label",
          "type": "bytes32"
        },
        {
          "internalType": "address",
          "name": "owner",
          "type": "address"
        }
      ],
      "name": "setSubnodeOwner",
      "outputs": [],
      "stateMutability": "nonpayable",
      "type": "function"
    },
    {
      "inputs": [
        {
          "internalType": "bytes32",
          "name": "node",
          "type": "bytes32"
        },
        {
          "internalType": "uint64",
          "name": "ttl",
          "type": "uint64"
        }
      ],
      "name": "setTTL",
      "outputs": [],
      "stateMutability": "nonpayable",
      "type": "function"
    },
    {
      "inputs": [
        {
          "internalType": "bytes32",
          "name": "node",
          "type": "bytes32"
        }
      ],
      "name": "ttl",
      "outputs": [
        {
          "internalType": "uint64",
          "name": "",
          "type": "uint64"
        }
      ],
      "stateMutability": "view",
      "type": "function"
    }
  ],
  "bytecode": "0x608060405234801561000f575f80fd5b505f8080526020527fad3228b676f7d3cd4284a5443f17f1962b36e491b30a40b2405849e597ba5fb580546001600160a01b031916331790556104d8806100555f395ff3fe608060405234801561000f575f80fd5b506004361061007a575f3560e01c806314ab90381161005857806314ab90381461010357806316a25cbd146101165780631896f70a146101625780635b0fc9c314610175575f80fd5b80630178b8bf1461007e57806302571be3146100c657806306ab5923146100ee575b5f80fd5b6100a961008c366004610403565b5f908152602081905260409020600101546001600160a01b031690565b6040516001600160a01b0390911681526020015b60405180910390f35b6100a96100d4366004610403565b5f908152602081905260409020546001600160a01b031690565b6101016100fc366004610435565b610188565b005b610101610111366004610467565b610242565b610149610124366004610403565b5f90815260208190526040902060010154600160a01b900467ffffffffffffffff1690565b60405167ffffffffffffffff90911681526020016100bd565b6101016101703660046104a1565b6102e2565b6101016101833660046104a1565b610374565b5f8381526020819052604090205483906001600160a01b031633146101ab575f80fd5b60408051602080820187905281830186905282518083038401815260608301808552815191909201206001600160a01b0386169091529151859187917fce0457fe73731f824cc272376169235128c118b49d344817417c6d108d155e829181900360800190a35f90815260208190526040902080546001600160a01b0319166001600160a01b039390931692909217909155505050565b5f8281526020819052604090205482906001600160a01b03163314610265575f80fd5b60405167ffffffffffffffff8316815283907f1d4f9bbfc9cab89d66e1a1562f2233ccbf1308cb4f63de2ead5787adddb8fa689060200160405180910390a2505f91825260208290526040909120600101805467ffffffffffffffff909216600160a01b0267ffffffffffffffff60a01b19909216919091179055565b5f8281526020819052604090205482906001600160a01b03163314610305575f80fd5b6040516001600160a01b038316815283907f335721b01866dc23fbee8b6b2c7b1e14d6f05c28cd35a2c934239f94095602a09060200160405180910390a2505f9182526020829052604090912060010180546001600160a01b0319166001600160a01b03909216919091179055565b5f8281526020819052604090205482906001600160a01b03163314610397575f80fd5b6040516001600160a01b038316815283907fd4735d920b0f87494915f556dd9b54c8f309026070caea5c737245152564d2669060200160405180910390a2505f9182526020829052604090912080546001600160a01b0319166001600160a01b03909216919091179055565b5f60208284031215610413575f80fd5b5035919050565b80356001600160a01b0381168114610430575f80fd5b919050565b5f805f60608486031215610447575f80fd5b833592506020840135915061045e6040850161041a565b90509250925092565b5f8060408385031215610478575f80fd5b82359150602083013567ffffffffffffffff81168114610496575f80fd5b809150509250929050565b5f80604083850312156104b2575f80fd5b823591506104c26020840161041a565b9050925092905056fea164736f6c6343000818000a",
  "linkReferences": {},
  "deployedLinkReferences": {}
}