{
  "_format": "hh-sol-artifact-1",
  "contractName": "LinkTokenMock",
  "sourceName": "contracts/mocks/LinkTokenMock.sol",
  "abi": [
    {
      "anonymous": false,
      "inputs": [
        {
          "indexed": true,
          "internalType": "address",
          "name": "owner",
          "type": "address"
        },
        {
          "indexed": true,
          "internalType": "address",
          "name": "spender",
          "type": "address"
        },
        {
          "indexed": false,
          "internalType": "uint256",
          "name": "value",
          "type": "uint256"
        }
      ],
      "name": "Approval",
      "type": "event"
    },
    {
      "anonymous": false,
      "inputs": [
        {
          "indexed": true,
          "internalType": "bytes32",
          "name": "role",
          "type": "bytes32"
        },
        {
          "indexed": true,
          "internalType": "bytes32",
          "name": "previousAdminRole",
          "type": "bytes32"
        },
        {
          "indexed": true,
          "internalType": "bytes32",
          "name": "newAdminRole",
          "type": "bytes32"
        }
      ],
      "name": "RoleAdminChanged",
      "type": "event"
    },
    {
      "anonymous": false,
      "inputs": [
        {
          "indexed": true,
          "internalType": "bytes32",
          "name": "role",
          "type": "bytes32"
        },
        {
          "indexed": true,
          "internalType": "address",
          "name": "account",
          "type": "address"
        },
        {
          "indexed": true,
          "internalType": "address",
          "name": "sender",
          "type": "address"
        }
      ],
      "name": "RoleGranted",
      "type": "event"
    },
    {
      "anonymous": false,
      "inputs": [
        {
          "indexed": true,
          "internalType": "bytes32",
          "name": "role",
          "type": "bytes32"
        },
        {
          "indexed": true,
          "internalType": "address",
          "name": "account",
          "type": "address"
        },
        {
          "indexed": true,
          "internalType": "address",
          "name": "sender",
          "type": "address"
        }
      ],
      "name": "RoleRevoked",
      "type": "event"
    },
    {
      "anonymous": false,
      "inputs": [
        {
          "indexed": true,
          "internalType": "address",
          "name": "from",
          "type": "address"
        },
        {
          "indexed": true,
          "internalType": "address",
          "name": "to",
          "type": "address"
        },
        {
          "indexed": false,
          "internalType": "uint256",
          "name": "value",
          "type": "uint256"
        }
      ],
      "name": "Transfer",
      "type": "event"
    },
    {
      "inputs": [],
      "name": "DEFAULT_ADMIN_ROLE",
      "outputs": [
        {
          "internalType": "bytes32",
          "name": "",
          "type": "bytes32"
        }
      ],
      "stateMutability": "view",
      "type": "function"
    },
    {
      "inputs": [],
      "name": "MINTER_ROLE",
      "outputs": [
        {
          "internalType": "bytes32",
          "name": "",
          "type": "bytes32"
        }
      ],
      "stateMutability": "view",
      "type": "function"
    },
    {
      "inputs": [
        {
          "internalType": "address",
          "name": "owner",
          "type": "address"
        },
        {
          "internalType": "address",
          "name": "spender",
          "type": "address"
        }
      ],
      "name": "allowance",
      "outputs": [
        {
          "internalType": "uint256",
          "name": "",
          "type": "uint256"
        }
      ],
      "stateMutability": "view",
      "type": "function"
    },
    {
      "inputs": [
        {
          "internalType": "address",
          "name": "spender",
          "type": "address"
        },
        {
          "internalType": "uint256",
          "name": "amount",
          "type": "uint256"
        }
      ],
      "name": "approve",
      "outputs": [
        {
          "internalType": "bool",
          "name": "",
          "type": "bool"
        }
      ],
      "stateMutability": "nonpayable",
      "type": "function"
    },
    {
      "inputs": [
        {
          "internalType": "address",
          "name": "account",
          "type": "address"
        }
      ],
      "name": "balanceOf",
      "outputs": [
        {
          "internalType": "uint256",
          "name": "",
          "type": "uint256"
        }
      ],
      "stateMutability": "view",
      "type": "function"
    },
    {
      "inputs": [],
      "name": "decimals",
      "outputs": [
        {
          "internalType": "uint8",
          "name": "",
          "type": "uint8"
        }
      ],
      "stateMutability": "view",
      "type": "function"
    },
    {
      "inputs": [
        {
          "internalType": "address",
          "name": "spender",
          "type": "address"
        },
        {
          "internalType": "uint256",
          "name": "subtractedValue",
          "type": "uint256"
        }
      ],
      "name": "decreaseAllowance",
      "outputs": [
        {
          "internalType": "bool",
          "name": "",
          "type": "bool"
        }
      ],
      "stateMutability": "nonpayable",
      "type": "function"
    },
    {
      "inputs": [
        {
          "internalType": "bytes32",
          "name": "role",
          "type": "bytes32"
        }
      ],
      "name": "getRoleAdmin",
      "outputs": [
        {
          "internalType": "bytes32",
          "name": "",
          "type": "bytes32"
        }
      ],
      "stateMutability": "view",
      "type": "function"
    },
    {
      "inputs": [
        {
          "internalType": "bytes32",
          "name": "role",
          "type": "bytes32"
        },
        {
          "internalType": "address",
          "name": "account",
          "type": "address"
        }
      ],
      "name": "grantRole",
      "outputs": [],
      "stateMutability": "nonpayable",
      "type": "function"
    },
    {
      "inputs": [
        {
          "internalType": "bytes32",
          "name": "role",
          "type": "bytes32"
        },
        {
          "internalType": "address",
          "name": "account",
          "type": "address"
        }
      ],
      "name": "hasRole",
      "outputs": [
        {
          "internalType": "bool",
          "name": "",
          "type": "bool"
        }
      ],
      "stateMutability": "view",
      "type": "function"
    },
    {
      "inputs": [
        {
          "internalType": "address",
          "name": "spender",
          "type": "address"
        },
        {
          "internalType": "uint256",
          "name": "addedValue",
          "type": "uint256"
        }
      ],
      "name": "increaseAllowance",
      "outputs": [
        {
          "internalType": "bool",
          "name": "",
          "type": "bool"
        }
      ],
      "stateMutability": "nonpayable",
      "type": "function"
    },
    {
      "inputs": [],
      "name": "initialize",
      "outputs": [],
      "stateMutability": "nonpayable",
      "type": "function"
    },
    {
      "inputs": [
        {
          "internalType": "address",
          "name": "account",
          "type": "address"
        }
      ],
      "name": "isMinter",
      "outputs": [
        {
          "internalType": "bool",
          "name": "",
          "type": "bool"
        }
      ],
      "stateMutability": "view",
      "type": "function"
    },
    {
      "inputs": [
        {
          "internalType": "address",
          "name": "to",
          "type": "address"
        },
        {
          "internalType": "uint256",
          "name": "amount",
          "type": "uint256"
        }
      ],
      "name": "mint",
      "outputs": [],
      "stateMutability": "nonpayable",
      "type": "function"
    },
    {
      "inputs": [],
      "name": "name",
      "outputs": [
        {
          "internalType": "string",
          "name": "",
          "type": "string"
        }
      ],
      "stateMutability": "view",
      "type": "function"
    },
    {
      "inputs": [
        {
          "internalType": "bytes32",
          "name": "role",
          "type": "bytes32"
        },
        {
          "internalType": "address",
          "name": "account",
          "type": "address"
        }
      ],
      "name": "renounceRole",
      "outputs": [],
      "stateMutability": "nonpayable",
      "type": "function"
    },
    {
      "inputs": [
        {
          "internalType": "bytes32",
          "name": "role",
          "type": "bytes32"
        },
        {
          "internalType": "address",
          "name": "account",
          "type": "address"
        }
      ],
      "name": "revokeRole",
      "outputs": [],
      "stateMutability": "nonpayable",
      "type": "function"
    },
    {
      "inputs": [
        {
          "internalType": "bytes4",
          "name": "interfaceId",
          "type": "bytes4"
        }
      ],
      "name": "supportsInterface",
      "outputs": [
        {
          "internalType": "bool",
          "name": "",
          "type": "bool"
        }
      ],
      "stateMutability": "view",
      "type": "function"
    },
    {
      "inputs": [],
      "name": "symbol",
      "outputs": [
        {
          "internalType": "string",
          "name": "",
          "type": "string"
        }
      ],
      "stateMutability": "view",
      "type": "function"
    },
    {
      "inputs": [],
      "name": "totalSupply",
      "outputs": [
        {
          "internalType": "uint256",
          "name": "",
          "type": "uint256"
        }
      ],
      "stateMutability": "view",
      "type": "function"
    },
    {
      "inputs": [
        {
          "internalType": "address",
          "name": "recipient",
          "type": "address"
        },
        {
          "internalType": "uint256",
          "name": "amount",
          "type": "uint256"
        }
      ],
      "name": "transfer",
      "outputs": [
        {
          "internalType": "bool",
          "name": "",
          "type": "bool"
        }
      ],
      "stateMutability": "nonpayable",
      "type": "function"
    },
    {
      "inputs": [
        {
          "internalType": "address",
          "name": "to",
          "type": "address"
        },
        {
          "internalType": "uint256",
          "name": "value",
          "type": "uint256"
        },
        {
          "internalType": "bytes",
          "name": "data",
          "type": "bytes"
        }
      ],
      "name": "transferAndCall",
      "outputs": [
        {
          "internalType": "bool",
          "name": "success",
          "type": "bool"
        }
      ],
      "stateMutability": "nonpayable",
      "type": "function"
    },
    {
      "inputs": [
        {
          "internalType": "address",
          "name": "sender",
          "type": "address"
        },
        {
          "internalType": "address",
          "name": "recipient",
          "type": "address"
        },
        {
          "internalType": "uint256",
          "name": "amount",
          "type": "uint256"
        }
      ],
      "name": "transferFrom",
      "outputs": [
        {
          "internalType": "bool",
          "name": "",
          "type": "bool"
        }
      ],
      "stateMutability": "nonpayable",
      "type": "function"
    }
  ],
  "bytecode": "0x608060405234801561001057600080fd5b50611821806100206000396000f3fe608060405234801561001057600080fd5b506004361061014d5760003560e01c806340c10f19116100c3578063a457c2d71161007c578063a457c2d714610292578063a9059cbb146102a5578063aa271e1a146102b8578063d5391393146102cb578063d547741f146102d3578063dd62ed3e146102e65761014d565b806340c10f191461024157806370a08231146102545780638129fc1c1461026757806391d148541461026f57806395d89b4114610282578063a217fddf1461028a5761014d565b8063248a9ca311610115578063248a9ca3146101cb5780632f2ff15d146101de578063313ce567146101f357806336568abe14610208578063395093511461021b5780634000aea01461022e5761014d565b806301ffc9a71461015257806306fdde031461017b578063095ea7b31461019057806318160ddd146101a357806323b872dd146101b8575b600080fd5b6101656101603660046112bd565b6102f9565b60405161017291906113b6565b60405180910390f35b610183610326565b60405161017291906113ca565b61016561019e36600461119d565b6103b8565b6101ab6103d5565b60405161017291906113c1565b6101656101c6366004611162565b6103db565b6101ab6101d9366004611283565b61047b565b6101f16101ec36600461129b565b610490565b005b6101fb6104b9565b604051610172919061170a565b6101f161021636600461129b565b6104be565b61016561022936600461119d565b610504565b61016561023c3660046111c6565b610553565b6101f161024f36600461119d565b6105d7565b6101ab610262366004611116565b610608565b6101f1610623565b61016561027d36600461129b565b610713565b61018361073e565b6101ab61074d565b6101656102a036600461119d565b610752565b6101656102b336600461119d565b6107c3565b6101656102c6366004611116565b6107d7565b6101ab610803565b6101f16102e136600461129b565b610827565b6101ab6102f4366004611130565b610846565b60006001600160e01b03198216637965db0b60e01b148061031e575061031e82610871565b90505b919050565b606060368054610335906117ad565b80601f0160208091040260200160405190810160405280929190818152602001828054610361906117ad565b80156103ae5780601f10610383576101008083540402835291602001916103ae565b820191906000526020600020905b81548152906001019060200180831161039157829003601f168201915b5050505050905090565b60006103cc6103c561088a565b848461088e565b50600192915050565b60355490565b60006103e8848484610942565b6001600160a01b03841660009081526034602052604081208161040961088a565b6001600160a01b03166001600160a01b03168152602001908152602001600020549050828110156104555760405162461bcd60e51b815260040161044c9061152b565b60405180910390fd5b6104708561046161088a565b61046b868561174f565b61088e565b506001949350505050565b60009081526097602052604090206001015490565b6104998261047b565b6104aa816104a561088a565b610a6a565b6104b48383610ace565b505050565b601290565b6104c661088a565b6001600160a01b0316816001600160a01b0316146104f65760405162461bcd60e51b815260040161044c90611684565b6105008282610b55565b5050565b60006103cc61051161088a565b84846034600061051f61088a565b6001600160a01b03908116825260208083019390935260409182016000908120918b168152925290205461046b9190611718565b600061055f84846107c3565b50836001600160a01b0316336001600160a01b03167fddf252ad1be2c89b69c2b068fc378daa952ba7f163c4a11628f55a4df523b3ef856040516105a391906113c1565b60405180910390a36105bd846001600160a01b0316610bda565b156105cd576105cd848484610be0565b5060019392505050565b6105e26102c661088a565b6105fe5760405162461bcd60e51b815260040161044c90611573565b6105008282610c4a565b6001600160a01b031660009081526033602052604090205490565b600054610100900460ff168061063c575060005460ff16155b6106585760405162461bcd60e51b815260040161044c906114dd565b600054610100900460ff16158015610683576000805460ff1961ff0019909116610100171660011790555b6106cd6040518060400160405280600d81526020016c4c696e6b546f6b656e4d6f636b60981b815250604051806040016040528060038152602001624c544d60e81b815250610d0a565b6106fe7f9f2df0fed2c77648de5860a4cc508cd0818c85b8b8a1ab4ceeef8d981c8956a66106f961088a565b610d92565b8015610710576000805461ff00191690555b50565b60009182526097602090815260408084206001600160a01b0393909316845291905290205460ff1690565b606060378054610335906117ad565b600081565b6000806034600061076161088a565b6001600160a01b03908116825260208083019390935260409182016000908120918816815292529020549050828110156107ad5760405162461bcd60e51b815260040161044c9061163f565b6105cd6107b861088a565b8561046b868561174f565b60006103cc6107d061088a565b8484610942565b600061031e7f9f2df0fed2c77648de5860a4cc508cd0818c85b8b8a1ab4ceeef8d981c8956a683610713565b7f9f2df0fed2c77648de5860a4cc508cd0818c85b8b8a1ab4ceeef8d981c8956a681565b6108308261047b565b61083c816104a561088a565b6104b48383610b55565b6001600160a01b03918216600090815260346020908152604080832093909416825291909152205490565b6001600160e01b031981166301ffc9a760e01b14919050565b3390565b6001600160a01b0383166108b45760405162461bcd60e51b815260040161044c906115fb565b6001600160a01b0382166108da5760405162461bcd60e51b815260040161044c90611455565b6001600160a01b0380841660008181526034602090815260408083209487168084529490915290819020849055517f8c5be1e5ebec7d5bd14f71427d1e84f3dd0314c0f7b2291e5b200ac8c7c3b925906109359085906113c1565b60405180910390a3505050565b6001600160a01b0383166109685760405162461bcd60e51b815260040161044c906115b6565b6001600160a01b03821661098e5760405162461bcd60e51b815260040161044c90611412565b6109998383836104b4565b6001600160a01b038316600090815260336020526040902054818110156109d25760405162461bcd60e51b815260040161044c90611497565b6109dc828261174f565b6001600160a01b038086166000908152603360205260408082209390935590851681529081208054849290610a12908490611718565b92505081905550826001600160a01b0316846001600160a01b03167fddf252ad1be2c89b69c2b068fc378daa952ba7f163c4a11628f55a4df523b3ef84604051610a5c91906113c1565b60405180910390a350505050565b610a748282610713565b61050057610a8c816001600160a01b03166014610d9c565b610a97836020610d9c565b604051602001610aa8929190611311565b60408051601f198184030181529082905262461bcd60e51b825261044c916004016113ca565b610ad88282610713565b6105005760008281526097602090815260408083206001600160a01b03851684529091529020805460ff19166001179055610b1161088a565b6001600160a01b0316816001600160a01b0316837f2f8788117e7eff1d82e926ec794901d17c78024a50270940304540a733656f0d60405160405180910390a45050565b610b5f8282610713565b156105005760008281526097602090815260408083206001600160a01b03851684529091529020805460ff19169055610b9661088a565b6001600160a01b0316816001600160a01b0316837ff6391f5c32d9c69d2a47ea670b442974b53935d1edc7fd64eb21e047a839171b60405160405180910390a45050565b3b151590565b604051635260769b60e11b815283906001600160a01b0382169063a4c0ed3690610c1290339087908790600401611386565b600060405180830381600087803b158015610c2c57600080fd5b505af1158015610c40573d6000803e3d6000fd5b5050505050505050565b6001600160a01b038216610c705760405162461bcd60e51b815260040161044c906116d3565b610c7c600083836104b4565b8060356000828254610c8e9190611718565b90915550506001600160a01b03821660009081526033602052604081208054839290610cbb908490611718565b90915550506040516001600160a01b038316906000907fddf252ad1be2c89b69c2b068fc378daa952ba7f163c4a11628f55a4df523b3ef90610cfe9085906113c1565b60405180910390a35050565b600054610100900460ff1680610d23575060005460ff16155b610d3f5760405162461bcd60e51b815260040161044c906114dd565b600054610100900460ff16158015610d6a576000805460ff1961ff0019909116610100171660011790555b610d72610f55565b610d7c8383610fc8565b80156104b4576000805461ff0019169055505050565b6105008282610ace565b60606000610dab836002611730565b610db6906002611718565b67ffffffffffffffff811115610ddc57634e487b7160e01b600052604160045260246000fd5b6040519080825280601f01601f191660200182016040528015610e06576020820181803683370190505b509050600360fc1b81600081518110610e2f57634e487b7160e01b600052603260045260246000fd5b60200101906001600160f81b031916908160001a905350600f60fb1b81600181518110610e6c57634e487b7160e01b600052603260045260246000fd5b60200101906001600160f81b031916908160001a9053506000610e90846002611730565b610e9b906001611718565b90505b6001811115610f2f576f181899199a1a9b1b9c1cb0b131b232b360811b85600f1660108110610edd57634e487b7160e01b600052603260045260246000fd5b1a60f81b828281518110610f0157634e487b7160e01b600052603260045260246000fd5b60200101906001600160f81b031916908160001a90535060049490941c93610f2881611796565b9050610e9e565b508315610f4e5760405162461bcd60e51b815260040161044c906113dd565b9392505050565b600054610100900460ff1680610f6e575060005460ff16155b610f8a5760405162461bcd60e51b815260040161044c906114dd565b600054610100900460ff161580156106fe576000805460ff1961ff0019909116610100171660011790558015610710576000805461ff001916905550565b600054610100900460ff1680610fe1575060005460ff16155b610ffd5760405162461bcd60e51b815260040161044c906114dd565b600054610100900460ff16158015611028576000805460ff1961ff0019909116610100171660011790555b825161103b906036906020860190611066565b50815161104f906037906020850190611066565b5080156104b4576000805461ff0019169055505050565b828054611072906117ad565b90600052602060002090601f01602090048101928261109457600085556110da565b82601f106110ad57805160ff19168380011785556110da565b828001600101855582156110da579182015b828111156110da5782518255916020019190600101906110bf565b506110e69291506110ea565b5090565b5b808211156110e657600081556001016110eb565b80356001600160a01b038116811461032157600080fd5b600060208284031215611127578081fd5b610f4e826110ff565b60008060408385031215611142578081fd5b61114b836110ff565b9150611159602084016110ff565b90509250929050565b600080600060608486031215611176578081fd5b61117f846110ff565b925061118d602085016110ff565b9150604084013590509250925092565b600080604083850312156111af578182fd5b6111b8836110ff565b946020939093013593505050565b6000806000606084860312156111da578283fd5b6111e3846110ff565b92506020808501359250604085013567ffffffffffffffff80821115611207578384fd5b818701915087601f83011261121a578384fd5b81358181111561122c5761122c6117fe565b604051601f8201601f191681018501838111828210171561124f5761124f6117fe565b60405281815283820185018a1015611265578586fd5b81858501868301378585838301015280955050505050509250925092565b600060208284031215611294578081fd5b5035919050565b600080604083850312156112ad578182fd5b82359150611159602084016110ff565b6000602082840312156112ce578081fd5b81356001600160e01b031981168114610f4e578182fd5b600081518084526112fd816020860160208601611766565b601f01601f19169290920160200192915050565b60007f416363657373436f6e74726f6c3a206163636f756e742000000000000000000082528351611349816017850160208801611766565b7001034b99036b4b9b9b4b733903937b6329607d1b601791840191820152835161137a816028840160208801611766565b01602801949350505050565b600060018060a01b0385168252836020830152606060408301526113ad60608301846112e5565b95945050505050565b901515815260200190565b90815260200190565b600060208252610f4e60208301846112e5565b6020808252818101527f537472696e67733a20686578206c656e67746820696e73756666696369656e74604082015260600190565b60208082526023908201527f45524332303a207472616e7366657220746f20746865207a65726f206164647260408201526265737360e81b606082015260800190565b60208082526022908201527f45524332303a20617070726f766520746f20746865207a65726f206164647265604082015261737360f01b606082015260800190565b60208082526026908201527f45524332303a207472616e7366657220616d6f756e7420657863656564732062604082015265616c616e636560d01b606082015260800190565b6020808252602e908201527f496e697469616c697a61626c653a20636f6e747261637420697320616c72656160408201526d191e481a5b9a5d1a585b1a5e995960921b606082015260800190565b60208082526028908201527f45524332303a207472616e7366657220616d6f756e74206578636565647320616040820152676c6c6f77616e636560c01b606082015260800190565b60208082526023908201527f4c696e6b546f6b656e4d6f636b3a2043414c4c45525f49535f4e4f545f4d494e6040820152622a22a960e91b606082015260800190565b60208082526025908201527f45524332303a207472616e736665722066726f6d20746865207a65726f206164604082015264647265737360d81b606082015260800190565b60208082526024908201527f45524332303a20617070726f76652066726f6d20746865207a65726f206164646040820152637265737360e01b606082015260800190565b60208082526025908201527f45524332303a2064656372656173656420616c6c6f77616e63652062656c6f77604082015264207a65726f60d81b606082015260800190565b6020808252602f908201527f416363657373436f6e74726f6c3a2063616e206f6e6c792072656e6f756e636560408201526e103937b632b9903337b91039b2b63360891b606082015260800190565b6020808252601f908201527f45524332303a206d696e7420746f20746865207a65726f206164647265737300604082015260600190565b60ff91909116815260200190565b6000821982111561172b5761172b6117e8565b500190565b600081600019048311821515161561174a5761174a6117e8565b500290565b600082821015611761576117616117e8565b500390565b60005b83811015611781578181015183820152602001611769565b83811115611790576000848401525b50505050565b6000816117a5576117a56117e8565b506000190190565b6002810460018216806117c157607f821691505b602082108114156117e257634e487b7160e01b600052602260045260246000fd5b50919050565b634e487b7160e01b600052601160045260246000fd5b634e487b7160e01b600052604160045260246000fdfea164736f6c6343000800000a",
  "linkReferences": {},
  "deployedLinkReferences": {}
}