{
  "_format": "hh-sol-artifact-1",
  "contractName": "LTOCustody",
  "sourceName": "contracts/marketplace/LTOCustody.sol",
  "abi": [
    {
      "inputs": [],
      "name": "InvalidBuyer",
      "type": "error"
    },
    {
      "inputs": [],
      "name": "InvalidLTOId",
      "type": "error"
    },
    {
      "inputs": [],
      "name": "InvalidOrder",
      "type": "error"
    },
    {
      "inputs": [],
      "name": "InvalidRecipient",
      "type": "error"
    },
    {
      "inputs": [],
      "name": "InvalidSeller",
      "type": "error"
    },
    {
      "inputs": [],
      "name": "InvalidSignature",
      "type": "error"
    },
    {
      "inputs": [],
      "name": "LTOAlreadyInitiated",
      "type": "error"
    },
    {
      "inputs": [],
      "name": "LTONotInitiated",
      "type": "error"
    },
    {
      "inputs": [],
      "name": "OrderIsNotFulfilled",
      "type": "error"
    },
    {
      "inputs": [],
      "name": "TokenAlreadyInLTO",
      "type": "error"
    },
    {
      "inputs": [],
      "name": "Unauthorized",
      "type": "error"
    },
    {
      "anonymous": false,
      "inputs": [
        {
          "indexed": true,
          "internalType": "uint256",
          "name": "ltoId",
          "type": "uint256"
        },
        {
          "indexed": false,
          "internalType": "address",
          "name": "buyer",
          "type": "address"
        }
      ],
      "name": "AssetBuyerChanged",
      "type": "event"
    },
    {
      "anonymous": false,
      "inputs": [
        {
          "indexed": true,
          "internalType": "uint256",
          "name": "ltoId",
          "type": "uint256"
        },
        {
          "indexed": true,
          "internalType": "uint256",
          "name": "tokenId",
          "type": "uint256"
        },
        {
          "indexed": false,
          "internalType": "address",
          "name": "seller",
          "type": "address"
        },
        {
          "indexed": false,
          "internalType": "address",
          "name": "buyer",
          "type": "address"
        }
      ],
      "name": "AssetDeposited",
      "type": "event"
    },
    {
      "anonymous": false,
      "inputs": [
        {
          "indexed": true,
          "internalType": "uint256",
          "name": "ltoId",
          "type": "uint256"
        },
        {
          "indexed": true,
          "internalType": "uint256",
          "name": "tokenId",
          "type": "uint256"
        },
        {
          "indexed": false,
          "internalType": "address",
          "name": "to",
          "type": "address"
        }
      ],
      "name": "AssetReleased",
      "type": "event"
    },
    {
      "anonymous": false,
      "inputs": [
        {
          "indexed": true,
          "internalType": "uint256",
          "name": "ltoId",
          "type": "uint256"
        },
        {
          "indexed": false,
          "internalType": "address",
          "name": "seller",
          "type": "address"
        }
      ],
      "name": "AssetSellerChanged",
      "type": "event"
    },
    {
      "anonymous": false,
      "inputs": [
        {
          "indexed": true,
          "internalType": "address",
          "name": "account",
          "type": "address"
        }
      ],
      "name": "CustodyAdminAdded",
      "type": "event"
    },
    {
      "anonymous": false,
      "inputs": [
        {
          "indexed": true,
          "internalType": "address",
          "name": "account",
          "type": "address"
        }
      ],
      "name": "CustodyAdminRemoved",
      "type": "event"
    },
    {
      "anonymous": false,
      "inputs": [
        {
          "indexed": false,
          "internalType": "uint8",
          "name": "version",
          "type": "uint8"
        }
      ],
      "name": "Initialized",
      "type": "event"
    },
    {
      "anonymous": false,
      "inputs": [
        {
          "indexed": true,
          "internalType": "address",
          "name": "previousOwner",
          "type": "address"
        },
        {
          "indexed": true,
          "internalType": "address",
          "name": "newOwner",
          "type": "address"
        }
      ],
      "name": "OwnershipTransferred",
      "type": "event"
    },
    {
      "anonymous": false,
      "inputs": [
        {
          "indexed": false,
          "internalType": "address",
          "name": "account",
          "type": "address"
        }
      ],
      "name": "Paused",
      "type": "event"
    },
    {
      "anonymous": false,
      "inputs": [
        {
          "indexed": true,
          "internalType": "bytes32",
          "name": "role",
          "type": "bytes32"
        },
        {
          "indexed": true,
          "internalType": "bytes32",
          "name": "previousAdminRole",
          "type": "bytes32"
        },
        {
          "indexed": true,
          "internalType": "bytes32",
          "name": "newAdminRole",
          "type": "bytes32"
        }
      ],
      "name": "RoleAdminChanged",
      "type": "event"
    },
    {
      "anonymous": false,
      "inputs": [
        {
          "indexed": true,
          "internalType": "bytes32",
          "name": "role",
          "type": "bytes32"
        },
        {
          "indexed": true,
          "internalType": "address",
          "name": "account",
          "type": "address"
        },
        {
          "indexed": true,
          "internalType": "address",
          "name": "sender",
          "type": "address"
        }
      ],
      "name": "RoleGranted",
      "type": "event"
    },
    {
      "anonymous": false,
      "inputs": [
        {
          "indexed": true,
          "internalType": "bytes32",
          "name": "role",
          "type": "bytes32"
        },
        {
          "indexed": true,
          "internalType": "address",
          "name": "account",
          "type": "address"
        },
        {
          "indexed": true,
          "internalType": "address",
          "name": "sender",
          "type": "address"
        }
      ],
      "name": "RoleRevoked",
      "type": "event"
    },
    {
      "anonymous": false,
      "inputs": [
        {
          "indexed": false,
          "internalType": "address",
          "name": "account",
          "type": "address"
        }
      ],
      "name": "Unpaused",
      "type": "event"
    },
    {
      "inputs": [],
      "name": "CUSTODY_ADMIN_ROLE",
      "outputs": [
        {
          "internalType": "bytes32",
          "name": "",
          "type": "bytes32"
        }
      ],
      "stateMutability": "view",
      "type": "function"
    },
    {
      "inputs": [],
      "name": "DEFAULT_ADMIN_ROLE",
      "outputs": [
        {
          "internalType": "bytes32",
          "name": "",
          "type": "bytes32"
        }
      ],
      "stateMutability": "view",
      "type": "function"
    },
    {
      "inputs": [
        {
          "internalType": "address",
          "name": "account",
          "type": "address"
        }
      ],
      "name": "addAdmin",
      "outputs": [],
      "stateMutability": "nonpayable",
      "type": "function"
    },
    {
      "inputs": [
        {
          "internalType": "address",
          "name": "account",
          "type": "address"
        }
      ],
      "name": "addCustodyAdmin",
      "outputs": [],
      "stateMutability": "nonpayable",
      "type": "function"
    },
    {
      "inputs": [
        {
          "internalType": "uint256",
          "name": "ltoId",
          "type": "uint256"
        }
      ],
      "name": "cancel",
      "outputs": [],
      "stateMutability": "nonpayable",
      "type": "function"
    },
    {
      "inputs": [
        {
          "internalType": "uint256",
          "name": "ltoId",
          "type": "uint256"
        }
      ],
      "name": "complete",
      "outputs": [],
      "stateMutability": "nonpayable",
      "type": "function"
    },
    {
      "inputs": [
        {
          "components": [
            {
              "internalType": "address",
              "name": "from",
              "type": "address"
            },
            {
              "internalType": "uint256",
              "name": "nonce",
              "type": "uint256"
            },
            {
              "internalType": "uint256",
              "name": "tokenId",
              "type": "uint256"
            },
            {
              "internalType": "bytes",
              "name": "data",
              "type": "bytes"
            }
          ],
          "internalType": "struct IForwarder.ForwardRequest",
          "name": "req",
          "type": "tuple"
        },
        {
          "internalType": "bytes",
          "name": "signature",
          "type": "bytes"
        }
      ],
      "name": "execute",
      "outputs": [
        {
          "internalType": "bytes",
          "name": "",
          "type": "bytes"
        }
      ],
      "stateMutability": "nonpayable",
      "type": "function"
    },
    {
      "inputs": [
        {
          "internalType": "uint256",
          "name": "ltoId",
          "type": "uint256"
        }
      ],
      "name": "getLTOData",
      "outputs": [
        {
          "internalType": "address",
          "name": "seller",
          "type": "address"
        },
        {
          "internalType": "address",
          "name": "buyer",
          "type": "address"
        },
        {
          "internalType": "uint256",
          "name": "tokenId",
          "type": "uint256"
        },
        {
          "internalType": "bool",
          "name": "isFinalized",
          "type": "bool"
        }
      ],
      "stateMutability": "view",
      "type": "function"
    },
    {
      "inputs": [
        {
          "internalType": "bytes32",
          "name": "role",
          "type": "bytes32"
        }
      ],
      "name": "getRoleAdmin",
      "outputs": [
        {
          "internalType": "bytes32",
          "name": "",
          "type": "bytes32"
        }
      ],
      "stateMutability": "view",
      "type": "function"
    },
    {
      "inputs": [
        {
          "internalType": "uint256",
          "name": "tokenId",
          "type": "uint256"
        }
      ],
      "name": "getTokenLTO",
      "outputs": [
        {
          "internalType": "uint256",
          "name": "ltoId",
          "type": "uint256"
        }
      ],
      "stateMutability": "view",
      "type": "function"
    },
    {
      "inputs": [
        {
          "internalType": "bytes32",
          "name": "role",
          "type": "bytes32"
        },
        {
          "internalType": "address",
          "name": "account",
          "type": "address"
        }
      ],
      "name": "grantRole",
      "outputs": [],
      "stateMutability": "nonpayable",
      "type": "function"
    },
    {
      "inputs": [
        {
          "internalType": "bytes32",
          "name": "role",
          "type": "bytes32"
        },
        {
          "internalType": "address",
          "name": "account",
          "type": "address"
        }
      ],
      "name": "hasRole",
      "outputs": [
        {
          "internalType": "bool",
          "name": "",
          "type": "bool"
        }
      ],
      "stateMutability": "view",
      "type": "function"
    },
    {
      "inputs": [
        {
          "internalType": "contract IUNSRegistry",
          "name": "_registry",
          "type": "address"
        },
        {
          "internalType": "contract SeaportProxyBuyer",
          "name": "_seaportProxyBuyer",
          "type": "address"
        }
      ],
      "name": "initialize",
      "outputs": [],
      "stateMutability": "nonpayable",
      "type": "function"
    },
    {
      "inputs": [
        {
          "internalType": "uint256",
          "name": "ltoId",
          "type": "uint256"
        },
        {
          "internalType": "address",
          "name": "seller",
          "type": "address"
        },
        {
          "internalType": "address",
          "name": "buyer",
          "type": "address"
        },
        {
          "internalType": "uint256",
          "name": "tokenId",
          "type": "uint256"
        }
      ],
      "name": "initiateLTO",
      "outputs": [],
      "stateMutability": "nonpayable",
      "type": "function"
    },
    {
      "inputs": [
        {
          "internalType": "uint256",
          "name": "ltoId",
          "type": "uint256"
        },
        {
          "components": [
            {
              "components": [
                {
                  "internalType": "address",
                  "name": "offerer",
                  "type": "address"
                },
                {
                  "internalType": "address",
                  "name": "zone",
                  "type": "address"
                },
                {
                  "components": [
                    {
                      "internalType": "enum ItemType",
                      "name": "itemType",
                      "type": "uint8"
                    },
                    {
                      "internalType": "address",
                      "name": "token",
                      "type": "address"
                    },
                    {
                      "internalType": "uint256",
                      "name": "identifierOrCriteria",
                      "type": "uint256"
                    },
                    {
                      "internalType": "uint256",
                      "name": "startAmount",
                      "type": "uint256"
                    },
                    {
                      "internalType": "uint256",
                      "name": "endAmount",
                      "type": "uint256"
                    }
                  ],
                  "internalType": "struct OfferItem[]",
                  "name": "offer",
                  "type": "tuple[]"
                },
                {
                  "components": [
                    {
                      "internalType": "enum ItemType",
                      "name": "itemType",
                      "type": "uint8"
                    },
                    {
                      "internalType": "address",
                      "name": "token",
                      "type": "address"
                    },
                    {
                      "internalType": "uint256",
                      "name": "identifierOrCriteria",
                      "type": "uint256"
                    },
                    {
                      "internalType": "uint256",
                      "name": "startAmount",
                      "type": "uint256"
                    },
                    {
                      "internalType": "uint256",
                      "name": "endAmount",
                      "type": "uint256"
                    },
                    {
                      "internalType": "address payable",
                      "name": "recipient",
                      "type": "address"
                    }
                  ],
                  "internalType": "struct ConsiderationItem[]",
                  "name": "consideration",
                  "type": "tuple[]"
                },
                {
                  "internalType": "enum OrderType",
                  "name": "orderType",
                  "type": "uint8"
                },
                {
                  "internalType": "uint256",
                  "name": "startTime",
                  "type": "uint256"
                },
                {
                  "internalType": "uint256",
                  "name": "endTime",
                  "type": "uint256"
                },
                {
                  "internalType": "bytes32",
                  "name": "zoneHash",
                  "type": "bytes32"
                },
                {
                  "internalType": "uint256",
                  "name": "salt",
                  "type": "uint256"
                },
                {
                  "internalType": "bytes32",
                  "name": "conduitKey",
                  "type": "bytes32"
                },
                {
                  "internalType": "uint256",
                  "name": "totalOriginalConsiderationItems",
                  "type": "uint256"
                }
              ],
              "internalType": "struct OrderParameters",
              "name": "parameters",
              "type": "tuple"
            },
            {
              "internalType": "uint120",
              "name": "numerator",
              "type": "uint120"
            },
            {
              "internalType": "uint120",
              "name": "denominator",
              "type": "uint120"
            },
            {
              "internalType": "bytes",
              "name": "signature",
              "type": "bytes"
            },
            {
              "internalType": "bytes",
              "name": "extraData",
              "type": "bytes"
            }
          ],
          "internalType": "struct AdvancedOrder",
          "name": "advancedOrder",
          "type": "tuple"
        },
        {
          "components": [
            {
              "internalType": "uint256",
              "name": "orderIndex",
              "type": "uint256"
            },
            {
              "internalType": "enum Side",
              "name": "side",
              "type": "uint8"
            },
            {
              "internalType": "uint256",
              "name": "index",
              "type": "uint256"
            },
            {
              "internalType": "uint256",
              "name": "identifier",
              "type": "uint256"
            },
            {
              "internalType": "bytes32[]",
              "name": "criteriaProof",
              "type": "bytes32[]"
            }
          ],
          "internalType": "struct CriteriaResolver[]",
          "name": "criteriaResolvers",
          "type": "tuple[]"
        },
        {
          "internalType": "bytes32",
          "name": "fulfillerConduitKey",
          "type": "bytes32"
        },
        {
          "internalType": "address",
          "name": "recipient",
          "type": "address"
        }
      ],
      "name": "initiateLTOFromOrder",
      "outputs": [],
      "stateMutability": "nonpayable",
      "type": "function"
    },
    {
      "inputs": [
        {
          "internalType": "address",
          "name": "account",
          "type": "address"
        }
      ],
      "name": "isAdmin",
      "outputs": [
        {
          "internalType": "bool",
          "name": "",
          "type": "bool"
        }
      ],
      "stateMutability": "view",
      "type": "function"
    },
    {
      "inputs": [
        {
          "internalType": "address",
          "name": "account",
          "type": "address"
        }
      ],
      "name": "isCustodyAdmin",
      "outputs": [
        {
          "internalType": "bool",
          "name": "",
          "type": "bool"
        }
      ],
      "stateMutability": "view",
      "type": "function"
    },
    {
      "inputs": [
        {
          "internalType": "uint256",
          "name": "ltoId",
          "type": "uint256"
        }
      ],
      "name": "isLTOInitiated",
      "outputs": [
        {
          "internalType": "bool",
          "name": "",
          "type": "bool"
        }
      ],
      "stateMutability": "view",
      "type": "function"
    },
    {
      "inputs": [
        {
          "internalType": "address",
          "name": "forwarder",
          "type": "address"
        }
      ],
      "name": "isTrustedForwarder",
      "outputs": [
        {
          "internalType": "bool",
          "name": "",
          "type": "bool"
        }
      ],
      "stateMutability": "view",
      "type": "function"
    },
    {
      "inputs": [
        {
          "internalType": "uint256",
          "name": "",
          "type": "uint256"
        }
      ],
      "name": "ltoAssets",
      "outputs": [
        {
          "internalType": "address",
          "name": "seller",
          "type": "address"
        },
        {
          "internalType": "address",
          "name": "buyer",
          "type": "address"
        },
        {
          "internalType": "uint256",
          "name": "tokenId",
          "type": "uint256"
        },
        {
          "internalType": "bool",
          "name": "isFinalized",
          "type": "bool"
        }
      ],
      "stateMutability": "view",
      "type": "function"
    },
    {
      "inputs": [
        {
          "internalType": "uint256",
          "name": "tokenId",
          "type": "uint256"
        }
      ],
      "name": "nonceOf",
      "outputs": [
        {
          "internalType": "uint256",
          "name": "",
          "type": "uint256"
        }
      ],
      "stateMutability": "view",
      "type": "function"
    },
    {
      "inputs": [],
      "name": "owner",
      "outputs": [
        {
          "internalType": "address",
          "name": "",
          "type": "address"
        }
      ],
      "stateMutability": "view",
      "type": "function"
    },
    {
      "inputs": [],
      "name": "pause",
      "outputs": [],
      "stateMutability": "nonpayable",
      "type": "function"
    },
    {
      "inputs": [],
      "name": "paused",
      "outputs": [
        {
          "internalType": "bool",
          "name": "",
          "type": "bool"
        }
      ],
      "stateMutability": "view",
      "type": "function"
    },
    {
      "inputs": [],
      "name": "registry",
      "outputs": [
        {
          "internalType": "contract IUNSRegistry",
          "name": "",
          "type": "address"
        }
      ],
      "stateMutability": "view",
      "type": "function"
    },
    {
      "inputs": [
        {
          "internalType": "uint256",
          "name": "ltoId",
          "type": "uint256"
        },
        {
          "internalType": "address",
          "name": "to",
          "type": "address"
        }
      ],
      "name": "releaseAsset",
      "outputs": [],
      "stateMutability": "nonpayable",
      "type": "function"
    },
    {
      "inputs": [
        {
          "internalType": "address",
          "name": "account",
          "type": "address"
        }
      ],
      "name": "removeAdmin",
      "outputs": [],
      "stateMutability": "nonpayable",
      "type": "function"
    },
    {
      "inputs": [
        {
          "internalType": "address",
          "name": "account",
          "type": "address"
        }
      ],
      "name": "removeCustodyAdmin",
      "outputs": [],
      "stateMutability": "nonpayable",
      "type": "function"
    },
    {
      "inputs": [],
      "name": "renounceAdmin",
      "outputs": [],
      "stateMutability": "nonpayable",
      "type": "function"
    },
    {
      "inputs": [],
      "name": "renounceOwnership",
      "outputs": [],
      "stateMutability": "nonpayable",
      "type": "function"
    },
    {
      "inputs": [
        {
          "internalType": "bytes32",
          "name": "role",
          "type": "bytes32"
        },
        {
          "internalType": "address",
          "name": "account",
          "type": "address"
        }
      ],
      "name": "renounceRole",
      "outputs": [],
      "stateMutability": "nonpayable",
      "type": "function"
    },
    {
      "inputs": [
        {
          "internalType": "bytes32",
          "name": "role",
          "type": "bytes32"
        },
        {
          "internalType": "address",
          "name": "account",
          "type": "address"
        }
      ],
      "name": "revokeRole",
      "outputs": [],
      "stateMutability": "nonpayable",
      "type": "function"
    },
    {
      "inputs": [
        {
          "internalType": "address",
          "name": "newAdmin",
          "type": "address"
        }
      ],
      "name": "rotateAdmin",
      "outputs": [],
      "stateMutability": "nonpayable",
      "type": "function"
    },
    {
      "inputs": [],
      "name": "seaportProxyBuyer",
      "outputs": [
        {
          "internalType": "contract SeaportProxyBuyer",
          "name": "",
          "type": "address"
        }
      ],
      "stateMutability": "view",
      "type": "function"
    },
    {
      "inputs": [
        {
          "internalType": "uint256",
          "name": "ltoId",
          "type": "uint256"
        },
        {
          "internalType": "string[]",
          "name": "keys",
          "type": "string[]"
        },
        {
          "internalType": "string[]",
          "name": "values",
          "type": "string[]"
        }
      ],
      "name": "setMany",
      "outputs": [],
      "stateMutability": "nonpayable",
      "type": "function"
    },
    {
      "inputs": [
        {
          "internalType": "bytes4",
          "name": "interfaceId",
          "type": "bytes4"
        }
      ],
      "name": "supportsInterface",
      "outputs": [
        {
          "internalType": "bool",
          "name": "",
          "type": "bool"
        }
      ],
      "stateMutability": "view",
      "type": "function"
    },
    {
      "inputs": [
        {
          "internalType": "uint256",
          "name": "",
          "type": "uint256"
        }
      ],
      "name": "tokenLTOs",
      "outputs": [
        {
          "internalType": "uint256",
          "name": "",
          "type": "uint256"
        }
      ],
      "stateMutability": "view",
      "type": "function"
    },
    {
      "inputs": [
        {
          "internalType": "uint256",
          "name": "ltoId",
          "type": "uint256"
        },
        {
          "internalType": "address",
          "name": "buyer",
          "type": "address"
        }
      ],
      "name": "transferBuyer",
      "outputs": [],
      "stateMutability": "nonpayable",
      "type": "function"
    },
    {
      "inputs": [
        {
          "internalType": "address",
          "name": "newOwner",
          "type": "address"
        }
      ],
      "name": "transferOwnership",
      "outputs": [],
      "stateMutability": "nonpayable",
      "type": "function"
    },
    {
      "inputs": [
        {
          "internalType": "uint256",
          "name": "ltoId",
          "type": "uint256"
        },
        {
          "internalType": "address",
          "name": "seller",
          "type": "address"
        }
      ],
      "name": "transferSeller",
      "outputs": [],
      "stateMutability": "nonpayable",
      "type": "function"
    },
    {
      "inputs": [],
      "name": "unpause",
      "outputs": [],
      "stateMutability": "nonpayable",
      "type": "function"
    },
    {
      "inputs": [
        {
          "components": [
            {
              "internalType": "address",
              "name": "from",
              "type": "address"
            },
            {
              "internalType": "uint256",
              "name": "nonce",
              "type": "uint256"
            },
            {
              "internalType": "uint256",
              "name": "tokenId",
              "type": "uint256"
            },
            {
              "internalType": "bytes",
              "name": "data",
              "type": "bytes"
            }
          ],
          "internalType": "struct IForwarder.ForwardRequest",
          "name": "req",
          "type": "tuple"
        },
        {
          "internalType": "bytes",
          "name": "signature",
          "type": "bytes"
        }
      ],
      "name": "verify",
      "outputs": [
        {
          "internalType": "bool",
          "name": "",
          "type": "bool"
        }
      ],
      "stateMutability": "view",
      "type": "function"
    }
  ],
  "bytecode": "0x608060405234801561000f575f80fd5b506131568061001d5f395ff3fe608060405234801561000f575f80fd5b5060043610610255575f3560e01c80637048027511610140578063a217fddf116100bf578063cd42426011610084578063cd42426014610594578063d547741f146105a8578063ec01fdca146105bb578063f2fde38b146105db578063f5383497146105ee578063f5a7406a14610601575f80fd5b8063a217fddf14610541578063a424740014610548578063b6240e5b1461055b578063c642c9c91461056e578063ca73f88914610581575f80fd5b80638da5cb5b116101055780638da5cb5b1461048557806391d1485414610496578063971d852f146104a9578063980a6748146104bc5780639efd1b131461052e575f80fd5b80637048027514610446578063715018a6146104595780637b103999146104615780638456cb59146104755780638bad0c0a1461047d575f80fd5b80632f2ff15d116101d75780634f724db01161019c5780634f724db0146103c657806354f22238146103e6578063572b6c05146103f95780635c975abb1461041557806367ce591f146104205780636ccbae5f14610433575f80fd5b80632f2ff15d1461037257806336568abe146103855780633f4ba83a1461039857806340e58ee5146103a0578063485cc955146103b3575f80fd5b80631bf7e13e1161021d5780631bf7e13e146102e8578063248a9ca31461030857806324d7806c146103395780632b5816951461034c5780632ccec6a01461035f575f80fd5b806301ffc9a7146102595780630ea6d2f3146102815780630f1201cc146102ad57806311156dfc146102c05780631785f53c146102d5575b5f80fd5b61026c6102673660046123a1565b61066c565b60405190151581526020015b60405180910390f35b61019254610295906001600160a01b031681565b6040516001600160a01b039091168152602001610278565b61026c6102bb3660046123c8565b6106a2565b6102d36102ce36600461241f565b6106d7565b005b6102d36102e33660046124b6565b6107ef565b6102fb6102f63660046124d1565b610804565b60405161027891906125b3565b61032b6103163660046123c8565b5f90815261012d602052604090206001015490565b604051908152602001610278565b61026c6103473660046124b6565b6108cd565b6102d361035a3660046125c5565b6108d8565b6102d361036d3660046124b6565b610a43565b6102d361038036600461260a565b610a61565b6102d361039336600461260a565b610a8b565b6102d3610b1e565b6102d36103ae3660046123c8565b610b30565b6102d36103c1366004612638565b610b82565b61032b6103d43660046123c8565b6101946020525f908152604090205481565b6102d36103f4366004612664565b610ce8565b61026c6104073660046124b6565b6001600160a01b0316301490565b60975460ff1661026c565b6102d361042e3660046124b6565b610e8d565b61032b6104413660046123c8565b610ee1565b6102d36104543660046124b6565b610f3a565b6102d3610f4c565b61019154610295906001600160a01b031681565b6102d3610f5d565b6102d3610f6d565b60c9546001600160a01b0316610295565b61026c6104a436600461260a565b610f79565b6102d36104b73660046123c8565b610fa4565b6105016104ca3660046123c8565b6101936020525f908152604090208054600182015460028301546003909301546001600160a01b0392831693919092169160ff1684565b604080516001600160a01b0395861681529490931660208501529183015215156060820152608001610278565b6102d361053c36600461260a565b610ff9565b61032b5f81565b61026c6105563660046124d1565b6110dd565b61026c6105693660046124b6565b61112e565b6102d361057c36600461260a565b611146565b6102d361058f36600461260a565b611301565b61032b5f8051602061312a83398151915281565b6102d36105b636600461260a565b6113da565b61032b6105c93660046123c8565b5f908152610194602052604090205490565b6102d36105e93660046124b6565b6113ff565b6102d36105fc3660046124b6565b611475565b61050161060f3660046123c8565b5f9081526101936020908152604091829020825160808101845281546001600160a01b039081168083526001840154909116938201849052600283015494820185905260039092015460ff16151560609091018190529093919291565b5f6001600160e01b03198216637965db0b60e01b148061069c57506301ffc9a760e01b6001600160e01b03198316145b92915050565b5f81815261019360205260408120600201541580159061069c5750505f908152610193602052604090206003015460ff161590565b846106e1816106a2565b6106fe57604051633f030d6d60e01b815260040160405180910390fd5b6107066114ca565b5f82815261019360205260409020600101546001600160a01b03908116911614610742576040516282b42960e81b815260040160405180910390fd5b61074a6114d8565b610753866106a2565b61077057604051633f030d6d60e01b815260040160405180910390fd5b610191545f878152610193602052604090819020600201549051636749599f60e11b81526001600160a01b039092169163ce92b33e916107ba9189918991899189916004016127bc565b5f604051808303815f87803b1580156107d1575f80fd5b505af11580156107e3573d5f803e3d5ffd5b50505050505050505050565b6107f761151e565b6108015f826113da565b50565b60605f5a90506108158585856110dd565b61083257604051638baa579f60e01b815260040160405180910390fd5b6108c261084260208701876124b6565b3060408801358461085660608b018b6127f5565b8080601f0160208091040260200160405190810160405280939291908181526020018383808284375f9201919091525050604080516020601f8e018190048102820181019092528c815292508c91508b90819084018382808284375f9201919091525061159792505050565b9150505b9392505050565b5f61069c8183610f79565b6108e36105696114ca565b6108ff576040516282b42960e81b815260040160405180910390fd5b6109076114d8565b61091384848484611675565b610191546040516331a9108f60e11b81526004810183905230916001600160a01b031690636352211e90602401602060405180830381865afa15801561095b573d5f803e3d5ffd5b505050506040513d601f19601f8201168201806040525081019061097f9190612837565b6001600160a01b0316146109f657610191546040516323b872dd60e01b81526001600160a01b03858116600483015230602483015260448201849052909116906323b872dd906064015f604051808303815f87803b1580156109df575f80fd5b505af11580156109f1573d5f803e3d5ffd5b505050505b604080516001600160a01b03808616825284166020820152829186917fd33e100d324477d0c48d17ab70e096443fc9dd28775952e65f3806b7253467d1910160405180910390a350505050565b610a4b61151e565b610a555f826117c9565b6108015f6103936114ca565b5f82815261012d6020526040902060010154610a7c816117d3565b610a8683836117e4565b505050565b610a936114ca565b6001600160a01b0316816001600160a01b031614610b105760405162461bcd60e51b815260206004820152602f60248201527f416363657373436f6e74726f6c3a2063616e206f6e6c792072656e6f756e636560448201526e103937b632b9903337b91039b2b63360891b60648201526084015b60405180910390fd5b610b1a828261186b565b5050565b610b2661151e565b610b2e6118f0565b565b610b3b6105696114ca565b610b57576040516282b42960e81b815260040160405180910390fd5b610b5f6114d8565b5f81815261019360205260409020546108019082906001600160a01b0316611146565b5f54610100900460ff1615808015610ba057505f54600160ff909116105b80610bb95750303b158015610bb957505f5460ff166001145b610c1c5760405162461bcd60e51b815260206004820152602e60248201527f496e697469616c697a61626c653a20636f6e747261637420697320616c72656160448201526d191e481a5b9a5d1a585b1a5e995960921b6064820152608401610b07565b5f805460ff191660011790558015610c3d575f805461ff0019166101001790555b610c45611948565b610c4d61196e565b610c556119a4565b610c5d6119db565b610c65611a08565b610c6d611948565b61019180546001600160a01b038086166001600160a01b0319928316179092556101928054928516929091169190911790558015610a86575f805461ff0019169055604051600181527f7f26b83ff96e1f2b6a682f133852f6798a09c465da95921460cefb38474024989060200160405180910390a1505050565b610cf36105696114ca565b610d0f576040516282b42960e81b815260040160405180910390fd5b5f805f610d1c8885611a3a565b925092509250610d2e89848484611675565b610192546040516339eb2ac960e21b81526001600160a01b039091169063e7acab2490610d67908b908b908b908b903090600401612b5c565b6020604051808303815f875af1158015610d83573d5f803e3d5ffd5b505050506040513d601f19601f82011682018060405250810190610da79190612d32565b50610191546040516331a9108f60e11b81526004810183905230916001600160a01b031690636352211e90602401602060405180830381865afa158015610df0573d5f803e3d5ffd5b505050506040513d601f19601f82011682018060405250810190610e149190612837565b6001600160a01b031614610e3b5760405163098904ef60e41b815260040160405180910390fd5b604080516001600160a01b0380861682528416602082015282918b917fd33e100d324477d0c48d17ab70e096443fc9dd28775952e65f3806b7253467d1910160405180910390a3505050505050505050565b610e9561151e565b610eac5f8051602061312a833981519152826117c9565b6040516001600160a01b038216907eabe768b82800e7d5614169467c9ce6a18df23b00ea0c3536791f7c6ff5c0d0905f90a250565b604080517f1ee5d87a048b728f67073f282321992c260e5be4fa651d08665c5b4ee7a8381560208201529081018290525f90610f33906060016040516020818303038152906040528051906020012090565b5492915050565b610f4261151e565b6108015f826117c9565b610f5461151e565b610b2e5f611c4b565b610f6561151e565b610b2e611c9c565b610b2e5f6103936114ca565b5f91825261012d602090815260408084206001600160a01b0393909316845291905290205460ff1690565b610faf6105696114ca565b610fcb576040516282b42960e81b815260040160405180910390fd5b610fd36114d8565b5f81815261019360205260409020600101546108019082906001600160a01b0316611146565b6110046105696114ca565b611020576040516282b42960e81b815260040160405180910390fd5b6110286114d8565b611031826106a2565b61104e57604051633f030d6d60e01b815260040160405180910390fd5b6001600160a01b038116611075576040516358ef870360e11b815260040160405180910390fd5b5f828152610193602090815260409182902060010180546001600160a01b0319166001600160a01b038516908117909155915191825283917ff92b34d7c01f8cf2b457fb33321c0392c514bf4b1f5edc9f78bfcedd16d4915e91015b60405180910390a25050565b5f6111266110ea85612dbd565b3085858080601f0160208091040260200160405190810160405280939291908181526020018383808284375f92019190915250611cda92505050565b949350505050565b5f61069c5f8051602061312a83398151915283610f79565b6111516105696114ca565b61116d576040516282b42960e81b815260040160405180910390fd5b6002606554036111bf5760405162461bcd60e51b815260206004820152601f60248201527f5265656e7472616e637947756172643a207265656e7472616e742063616c6c006044820152606401610b07565b60026065556111cc6114d8565b6111d5826106a2565b6111f257604051633f030d6d60e01b815260040160405180910390fd5b6001600160a01b03811661121957604051634e46966960e11b815260040160405180910390fd5b5f8281526101936020908152604080832060038101805460ff1916600117905560020154808452610194909252808320929092556101915491516323b872dd60e01b81523060048201526001600160a01b03848116602483015260448201839052919291909116906323b872dd906064015f604051808303815f87803b1580156112a1575f80fd5b505af11580156112b3573d5f803e3d5ffd5b50506040516001600160a01b03851681528392508591507f71f3f9a8aef7f77c5f9ddfd8c83f383ffa885f16dc7ab97046f9f70f4a4959e49060200160405180910390a35050600160655550565b61130c6105696114ca565b611328576040516282b42960e81b815260040160405180910390fd5b6113306114d8565b611339826106a2565b61135657604051633f030d6d60e01b815260040160405180910390fd5b6001600160a01b03811661137d5760405163bab7ca3560e01b815260040160405180910390fd5b5f828152610193602090815260409182902080546001600160a01b0319166001600160a01b038516908117909155915191825283917fe3ece063b84a0e16e6080f268ec65ce9c2af3f48ad754f332a34c1eec29dcd9391016110d1565b5f82815261012d60205260409020600101546113f5816117d3565b610a86838361186b565b61140761151e565b6001600160a01b03811661146c5760405162461bcd60e51b815260206004820152602660248201527f4f776e61626c653a206e6577206f776e657220697320746865207a65726f206160448201526564647265737360d01b6064820152608401610b07565b61080181611c4b565b61147d61151e565b6114945f8051602061312a833981519152826113da565b6040516001600160a01b038216907f7ec703108af80ed3dd35e047e5ca6c6d465aa7adab3855dfdb91686333ed584a905f90a250565b5f6114d3611e15565b905090565b60975460ff1615610b2e5760405162461bcd60e51b815260206004820152601060248201526f14185d5cd8589b194e881c185d5cd95960821b6044820152606401610b07565b6115266114ca565b6001600160a01b031661154160c9546001600160a01b031690565b6001600160a01b031614610b2e5760405162461bcd60e51b815260206004820181905260248201527f4f776e61626c653a2063616c6c6572206973206e6f7420746865206f776e65726044820152606401610b07565b60606115a285611e2f565b5f80876001600160a01b0316866115bb8b8a8989611e94565b6040516115c89190612e79565b5f604051808303815f8787f1925050503d805f8114611602576040519150601f19603f3d011682016040523d82523d5f602084013e611607565b606091505b509092509050611618603f87612ea8565b5a1161162657611626612ec7565b61166682826040518060400160405280601a81526020017f42617365466f727761726465723a2043414c4c5f4641494c4544000000000000815250611ec4565b925050505b9695505050505050565b6001600160a01b03831661169c5760405163bab7ca3560e01b815260040160405180910390fd5b6001600160a01b0382166116c3576040516358ef870360e11b815260040160405180910390fd5b835f036116e357604051635f2508e160e01b815260040160405180910390fd5b6116ec846106a2565b1561170a5760405163154781ad60e01b815260040160405180910390fd5b5f81815261019460205260409020541561173757604051634517741560e01b815260040160405180910390fd5b604080516080810182526001600160a01b03948516815292841660208085019182528483018481525f606087018181528982526101938452858220975188546001600160a01b0319908116918b16919091178955945160018901805490961699169890981790935551600286015594516003909401805460ff1916941515949094179093559082526101949092522055565b610b1a82826117e4565b610801816117df6114ca565b611efd565b6117ee8282610f79565b610b1a575f82815261012d602090815260408083206001600160a01b03851684529091529020805460ff191660011790556118276114ca565b6001600160a01b0316816001600160a01b0316837f2f8788117e7eff1d82e926ec794901d17c78024a50270940304540a733656f0d60405160405180910390a45050565b6118758282610f79565b15610b1a575f82815261012d602090815260408083206001600160a01b03851684529091529020805460ff191690556118ac6114ca565b6001600160a01b0316816001600160a01b0316837ff6391f5c32d9c69d2a47ea670b442974b53935d1edc7fd64eb21e047a839171b60405160405180910390a45050565b6118f8611f61565b6097805460ff191690557f5db9ee0a495bf2e6ff9c91a7834c1ba4fdd244a5e8aa4e537bd38aeae4b073aa61192b6114ca565b6040516001600160a01b03909116815260200160405180910390a1565b5f54610100900460ff16610b2e5760405162461bcd60e51b8152600401610b0790612edb565b5f54610100900460ff166119945760405162461bcd60e51b8152600401610b0790612edb565b610b2e61199f6114ca565b611c4b565b5f54610100900460ff166119ca5760405162461bcd60e51b8152600401610b0790612edb565b610b2e5f6119d66114ca565b6117c9565b5f54610100900460ff16611a015760405162461bcd60e51b8152600401610b0790612edb565b6001606555565b5f54610100900460ff16611a2e5760405162461bcd60e51b8152600401610b0790612edb565b6097805460ff19169055565b5f80806002611a498680612f26565b611a5a9060a0810190608001612f3b565b6004811115611a6b57611a6b6128a4565b141580611a8f5750611a7d8580612f26565b611a8b906060810190612f54565b1590505b80611ab15750611a9f8580612f26565b611aad906040810190612f98565b1590505b15611acf5760405163af61069360e01b815260040160405180910390fd5b36611ada8680612f26565b611ae8906040810190612f98565b5f818110611af857611af8612fdc565b60a00291909101915060029050611b126020830183612ff0565b6005811115611b2357611b236128a4565b148015611b535750610191546001600160a01b0316611b4860408301602084016124b6565b6001600160a01b0316145b15611b8057611b628680612f26565b611b709060208101906124b6565b9350849250604001359050611c44565b36611b8b8780612f26565b611b99906060810190612f54565b5f818110611ba957611ba9612fdc565b60c00291909101915060029050611bc36020830183612ff0565b6005811115611bd457611bd46128a4565b148015611c045750610191546001600160a01b0316611bf960408301602084016124b6565b6001600160a01b0316145b15611c2b57611c1960c0820160a083016124b6565b9450859350604001359150611c449050565b60405163af61069360e01b815260040160405180910390fd5b9250925092565b60c980546001600160a01b038381166001600160a01b0319831681179093556040519116919082907f8be0079c531659141344cd1fd0a4f28419497f9722a3daafe3b4186f6b6457e0905f90a35050565b611ca46114d8565b6097805460ff191660011790557f62e78cea01bee320cd4e420270b5ea74000d11b0c9f74754ebdbfc544b05a25861192b6114ca565b6040838101519051636ccbae5f60e01b815260048101919091525f9081903090636ccbae5f90602401602060405180830381865afa158015611d1e573d5f803e3d5ffd5b505050506040513d601f19601f82011682018060405250810190611d429190613009565b90505f611def866060015180519060200120868860200151604051602001611d8f9392919092835260609190911b6bffffffffffffffffffffffff19166020830152603482015260540190565b60408051601f1981840301815282825280516020918201207f19457468657265756d205369676e6564204d6573736167653a0a33320000000084830152603c8085019190915282518085039091018152605c909301909152815191012090565b905081866020015114801561166b5750855161166b906001600160a01b03168286611faa565b5f303303611e2a575060331936013560601c90565b503390565b604080517f1ee5d87a048b728f67073f282321992c260e5be4fa651d08665c5b4ee7a8381560208201529081018290525f90606001604051602081830303815290604052805190602001209050611e838190565b54611e8f906001613020565b905550565b6060828585604051602001611eab93929190613033565b6040516020818303038152906040529050949350505050565b60608315611ed35750816108c6565b825115611ee35782518084602001fd5b8160405162461bcd60e51b8152600401610b0791906125b3565b611f078282610f79565b610b1a57611f1f816001600160a01b031660146120e5565b611f2a8360206120e5565b604051602001611f3b929190613071565b60408051601f198184030181529082905262461bcd60e51b8252610b07916004016125b3565b60975460ff16610b2e5760405162461bcd60e51b815260206004820152601460248201527314185d5cd8589b194e881b9bdd081c185d5cd95960621b6044820152606401610b07565b5f805f611fb7858561227a565b90925090505f816004811115611fcf57611fcf6128a4565b148015611fed5750856001600160a01b0316826001600160a01b0316145b15611ffd576001925050506108c6565b5f80876001600160a01b0316631626ba7e60e01b88886040516024016120249291906130e5565b60408051601f198184030181529181526020820180516001600160e01b03166001600160e01b03199094169390931790925290516120629190612e79565b5f60405180830381855afa9150503d805f811461209a576040519150601f19603f3d011682016040523d82523d5f602084013e61209f565b606091505b50915091508180156120b2575080516020145b80156120d957508051630b135d3f60e11b906120d79083016020908101908401613009565b145b98975050505050505050565b60605f6120f38360026130fd565b6120fe906002613020565b6001600160401b0381111561211557612115612d51565b6040519080825280601f01601f19166020018201604052801561213f576020820181803683370190505b509050600360fc1b815f8151811061215957612159612fdc565b60200101906001600160f81b03191690815f1a905350600f60fb1b8160018151811061218757612187612fdc565b60200101906001600160f81b03191690815f1a9053505f6121a98460026130fd565b6121b4906001613020565b90505b600181111561222b576f181899199a1a9b1b9c1cb0b131b232b360811b85600f16601081106121e8576121e8612fdc565b1a60f81b8282815181106121fe576121fe612fdc565b60200101906001600160f81b03191690815f1a90535060049490941c9361222481613114565b90506121b7565b5083156108c65760405162461bcd60e51b815260206004820181905260248201527f537472696e67733a20686578206c656e67746820696e73756666696369656e746044820152606401610b07565b5f8082516041036122ae576020830151604084015160608501515f1a6122a2878285856122bc565b945094505050506122b5565b505f905060025b9250929050565b5f807f7fffffffffffffffffffffffffffffff5d576e7357a4501ddfe92f46681b20a08311156122f157505f90506003612398565b8460ff16601b1415801561230957508460ff16601c14155b1561231957505f90506004612398565b604080515f8082526020820180845289905260ff881692820192909252606081018690526080810185905260019060a0016020604051602081039080840390855afa15801561236a573d5f803e3d5ffd5b5050604051601f1901519150506001600160a01b038116612392575f60019250925050612398565b91505f90505b94509492505050565b5f602082840312156123b1575f80fd5b81356001600160e01b0319811681146108c6575f80fd5b5f602082840312156123d8575f80fd5b5035919050565b5f8083601f8401126123ef575f80fd5b5081356001600160401b03811115612405575f80fd5b6020830191508360208260051b85010111156122b5575f80fd5b5f805f805f60608688031215612433575f80fd5b8535945060208601356001600160401b0380821115612450575f80fd5b61245c89838a016123df565b90965094506040880135915080821115612474575f80fd5b50612481888289016123df565b969995985093965092949392505050565b6001600160a01b0381168114610801575f80fd5b80356124b181612492565b919050565b5f602082840312156124c6575f80fd5b81356108c681612492565b5f805f604084860312156124e3575f80fd5b83356001600160401b03808211156124f9575f80fd5b908501906080828803121561250c575f80fd5b90935060208501359080821115612521575f80fd5b818601915086601f830112612534575f80fd5b813581811115612542575f80fd5b876020828501011115612553575f80fd5b6020830194508093505050509250925092565b5f5b83811015612580578181015183820152602001612568565b50505f910152565b5f815180845261259f816020860160208601612566565b601f01601f19169290920160200192915050565b602081525f6108c66020830184612588565b5f805f80608085870312156125d8575f80fd5b8435935060208501356125ea81612492565b925060408501356125fa81612492565b9396929550929360600135925050565b5f806040838503121561261b575f80fd5b82359150602083013561262d81612492565b809150509250929050565b5f8060408385031215612649575f80fd5b823561265481612492565b9150602083013561262d81612492565b5f805f805f8060a08789031215612679575f80fd5b8635955060208701356001600160401b0380821115612696575f80fd5b9088019060a0828b0312156126a9575f80fd5b909550604088013590808211156126be575f80fd5b506126cb89828a016123df565b9095509350506060870135915060808701356126e681612492565b809150509295509295509295565b81835281816020850137505f828201602090810191909152601f909101601f19169091010190565b5f808335601e19843603018112612731575f80fd5b83016020810192503590506001600160401b0381111561274f575f80fd5b8036038213156122b5575f80fd5b5f838385526020808601955060208560051b830101845f5b878110156127af57848303601f19018952612790828861271c565b61279b8582846126f4565b9a86019a9450505090830190600101612775565b5090979650505050505050565b606081525f6127cf60608301878961275d565b82810360208401526127e281868861275d565b9150508260408301529695505050505050565b5f808335601e1984360301811261280a575f80fd5b8301803591506001600160401b03821115612823575f80fd5b6020019150368190038213156122b5575f80fd5b5f60208284031215612847575f80fd5b81516108c681612492565b5f808335601e19843603018112612867575f80fd5b83016020810192503590506001600160401b03811115612885575f80fd5b60a0810236038213156122b5575f80fd5b8035600681106124b1575f80fd5b634e487b7160e01b5f52602160045260245ffd5b600681106128c8576128c86128a4565b9052565b8183525f60208085019450825f5b8581101561293e576128f4876128ef84612896565b6128b8565b8282013561290181612492565b6001600160a01b03168388015260408281013590880152606080830135908801526080808301359088015260a096870196909101906001016128da565b509495945050505050565b5f808335601e1984360301811261295e575f80fd5b83016020810192503590506001600160401b0381111561297c575f80fd5b60c0810236038213156122b5575f80fd5b8183525f60208085019450825f5b8581101561293e576129b0876128ef84612896565b828201356129bd81612492565b6001600160a01b039081168885015260408381013590890152606080840135908901526080808401359089015260a090838201356129fa81612492565b169088015260c096870196919091019060010161299b565b8035600581106124b1575f80fd5b600581106128c8576128c86128a4565b80356001600160781b03811681146124b1575f80fd5b8183525f6001600160fb1b03831115612a5d575f80fd5b8260051b80836020870137939093016020019392505050565b8183526020808401935f91600585811b8301820185855b88811015612b4e57858303601f19018a52813536899003609e19018112612ab2575f80fd5b88018035845260a08682013560028110612aca575f80fd5b85880152604082810135908601526060808301359086015260808083013536849003601e19018112612afa575f80fd5b9092018781019290356001600160401b03811115612b16575f80fd5b80881b3603841315612b26575f80fd5b8282880152612b388388018286612a46565b9d89019d96505050928601925050600101612a8d565b509098975050505050505050565b608081525f610120873561015e19893603018112612b78575f80fd5b60a060808501528801612b9d828501612b90836124a6565b6001600160a01b03169052565b612ba9602082016124a6565b610140612bc0818701836001600160a01b03169052565b612bcd6040840184612852565b610160888101529250612be5610280880184836128cc565b925050612bf56060840184612949565b87840361011f1901610180890152612c0e84828461298d565b93505050612c1e60808401612a12565b612c2c6101a0880182612a20565b5060a08301356101c087015260c08301356101e087015260e0830135610200870152610100808401356102208801528484013561024088015281840135610260880152612c7b60208d01612a30565b6001600160781b03811660a08901529450612c9860408d01612a30565b6001600160781b03811660c08901529450612cb660608d018d61271c565b95509350607f199150818784030160e0880152612cd48386866126f4565b9450612ce360808d018d61271c565b945092508187860301818801525050612cfd8383836126f4565b925050508281036020840152612d14818789612a76565b91505083604083015261166b60608301846001600160a01b03169052565b5f60208284031215612d42575f80fd5b815180151581146108c6575f80fd5b634e487b7160e01b5f52604160045260245ffd5b604051608081016001600160401b0381118282101715612d8757612d87612d51565b60405290565b604051601f8201601f191681016001600160401b0381118282101715612db557612db5612d51565b604052919050565b5f60808236031215612dcd575f80fd5b612dd5612d65565b8235612de081612492565b8152602083810135818301526040808501359083015260608401356001600160401b0380821115612e0f575f80fd5b9085019036601f830112612e21575f80fd5b813581811115612e3357612e33612d51565b612e45601f8201601f19168501612d8d565b91508082523684828501011115612e5a575f80fd5b80848401858401375f9082019093019290925250606082015292915050565b5f8251612e8a818460208701612566565b9190910192915050565b634e487b7160e01b5f52601160045260245ffd5b5f82612ec257634e487b7160e01b5f52601260045260245ffd5b500490565b634e487b7160e01b5f52600160045260245ffd5b6020808252602b908201527f496e697469616c697a61626c653a20636f6e7472616374206973206e6f74206960408201526a6e697469616c697a696e6760a81b606082015260800190565b5f823561015e19833603018112612e8a575f80fd5b5f60208284031215612f4b575f80fd5b6108c682612a12565b5f808335601e19843603018112612f69575f80fd5b8301803591506001600160401b03821115612f82575f80fd5b602001915060c0810236038213156122b5575f80fd5b5f808335601e19843603018112612fad575f80fd5b8301803591506001600160401b03821115612fc6575f80fd5b602001915060a0810236038213156122b5575f80fd5b634e487b7160e01b5f52603260045260245ffd5b5f60208284031215613000575f80fd5b6108c682612896565b5f60208284031215613019575f80fd5b5051919050565b8082018082111561069c5761069c612e94565b5f8451613044818460208901612566565b60609490941b6bffffffffffffffffffffffff191691909301908152601481019190915260340192915050565b7f416363657373436f6e74726f6c3a206163636f756e742000000000000000000081525f83516130a8816017850160208801612566565b7001034b99036b4b9b9b4b733903937b6329607d1b60179184019182015283516130d9816028840160208801612566565b01602801949350505050565b828152604060208201525f6111266040830184612588565b808202811582820484141761069c5761069c612e94565b5f8161312257613122612e94565b505f19019056fee42a2a81871991b348b461cd4ff9825352fd011597c5280ce35326126d53efbca164736f6c6343000818000a",
  "linkReferences": {},
  "deployedLinkReferences": {}
}