{
  "_format": "hh-sol-artifact-1",
  "contractName": "LTOCustody",
  "sourceName": "contracts/marketplace/LTOCustody.sol",
  "abi": [
    {
      "inputs": [],
      "stateMutability": "nonpayable",
      "type": "constructor"
    },
    {
      "inputs": [],
      "name": "InvalidBuyer",
      "type": "error"
    },
    {
      "inputs": [],
      "name": "InvalidOrder",
      "type": "error"
    },
    {
      "inputs": [],
      "name": "InvalidRecipient",
      "type": "error"
    },
    {
      "inputs": [],
      "name": "InvalidSeller",
      "type": "error"
    },
    {
      "inputs": [],
      "name": "InvalidSignature",
      "type": "error"
    },
    {
      "inputs": [],
      "name": "LTOAlreadyInitiated",
      "type": "error"
    },
    {
      "inputs": [],
      "name": "LTONotInitiated",
      "type": "error"
    },
    {
      "inputs": [],
      "name": "OrderIsNotFulfilled",
      "type": "error"
    },
    {
      "inputs": [],
      "name": "TokenAlreadyInLTO",
      "type": "error"
    },
    {
      "inputs": [],
      "name": "Unauthorized",
      "type": "error"
    },
    {
      "anonymous": false,
      "inputs": [
        {
          "indexed": true,
          "internalType": "uint256",
          "name": "ltoId",
          "type": "uint256"
        },
        {
          "indexed": false,
          "internalType": "address",
          "name": "buyer",
          "type": "address"
        }
      ],
      "name": "AssetBuyerChanged",
      "type": "event"
    },
    {
      "anonymous": false,
      "inputs": [
        {
          "indexed": true,
          "internalType": "uint256",
          "name": "ltoId",
          "type": "uint256"
        },
        {
          "indexed": true,
          "internalType": "uint256",
          "name": "tokenId",
          "type": "uint256"
        },
        {
          "indexed": false,
          "internalType": "address",
          "name": "seller",
          "type": "address"
        },
        {
          "indexed": false,
          "internalType": "address",
          "name": "buyer",
          "type": "address"
        }
      ],
      "name": "AssetDeposited",
      "type": "event"
    },
    {
      "anonymous": false,
      "inputs": [
        {
          "indexed": true,
          "internalType": "uint256",
          "name": "ltoId",
          "type": "uint256"
        },
        {
          "indexed": true,
          "internalType": "uint256",
          "name": "tokenId",
          "type": "uint256"
        },
        {
          "indexed": false,
          "internalType": "address",
          "name": "to",
          "type": "address"
        }
      ],
      "name": "AssetReleased",
      "type": "event"
    },
    {
      "anonymous": false,
      "inputs": [
        {
          "indexed": true,
          "internalType": "uint256",
          "name": "ltoId",
          "type": "uint256"
        },
        {
          "indexed": false,
          "internalType": "address",
          "name": "seller",
          "type": "address"
        }
      ],
      "name": "AssetSellerChanged",
      "type": "event"
    },
    {
      "anonymous": false,
      "inputs": [
        {
          "indexed": true,
          "internalType": "address",
          "name": "account",
          "type": "address"
        }
      ],
      "name": "CustodyAdminAdded",
      "type": "event"
    },
    {
      "anonymous": false,
      "inputs": [
        {
          "indexed": true,
          "internalType": "address",
          "name": "account",
          "type": "address"
        }
      ],
      "name": "CustodyAdminRemoved",
      "type": "event"
    },
    {
      "anonymous": false,
      "inputs": [
        {
          "indexed": false,
          "internalType": "uint8",
          "name": "version",
          "type": "uint8"
        }
      ],
      "name": "Initialized",
      "type": "event"
    },
    {
      "anonymous": false,
      "inputs": [
        {
          "indexed": true,
          "internalType": "address",
          "name": "previousOwner",
          "type": "address"
        },
        {
          "indexed": true,
          "internalType": "address",
          "name": "newOwner",
          "type": "address"
        }
      ],
      "name": "OwnershipTransferred",
      "type": "event"
    },
    {
      "anonymous": false,
      "inputs": [
        {
          "indexed": false,
          "internalType": "address",
          "name": "account",
          "type": "address"
        }
      ],
      "name": "Paused",
      "type": "event"
    },
    {
      "anonymous": false,
      "inputs": [
        {
          "indexed": true,
          "internalType": "bytes32",
          "name": "role",
          "type": "bytes32"
        },
        {
          "indexed": true,
          "internalType": "bytes32",
          "name": "previousAdminRole",
          "type": "bytes32"
        },
        {
          "indexed": true,
          "internalType": "bytes32",
          "name": "newAdminRole",
          "type": "bytes32"
        }
      ],
      "name": "RoleAdminChanged",
      "type": "event"
    },
    {
      "anonymous": false,
      "inputs": [
        {
          "indexed": true,
          "internalType": "bytes32",
          "name": "role",
          "type": "bytes32"
        },
        {
          "indexed": true,
          "internalType": "address",
          "name": "account",
          "type": "address"
        },
        {
          "indexed": true,
          "internalType": "address",
          "name": "sender",
          "type": "address"
        }
      ],
      "name": "RoleGranted",
      "type": "event"
    },
    {
      "anonymous": false,
      "inputs": [
        {
          "indexed": true,
          "internalType": "bytes32",
          "name": "role",
          "type": "bytes32"
        },
        {
          "indexed": true,
          "internalType": "address",
          "name": "account",
          "type": "address"
        },
        {
          "indexed": true,
          "internalType": "address",
          "name": "sender",
          "type": "address"
        }
      ],
      "name": "RoleRevoked",
      "type": "event"
    },
    {
      "anonymous": false,
      "inputs": [
        {
          "indexed": false,
          "internalType": "address",
          "name": "account",
          "type": "address"
        }
      ],
      "name": "Unpaused",
      "type": "event"
    },
    {
      "inputs": [],
      "name": "CUSTODY_ADMIN_ROLE",
      "outputs": [
        {
          "internalType": "bytes32",
          "name": "",
          "type": "bytes32"
        }
      ],
      "stateMutability": "view",
      "type": "function"
    },
    {
      "inputs": [],
      "name": "DEFAULT_ADMIN_ROLE",
      "outputs": [
        {
          "internalType": "bytes32",
          "name": "",
          "type": "bytes32"
        }
      ],
      "stateMutability": "view",
      "type": "function"
    },
    {
      "inputs": [
        {
          "internalType": "address",
          "name": "account",
          "type": "address"
        }
      ],
      "name": "addCustodyAdmin",
      "outputs": [],
      "stateMutability": "nonpayable",
      "type": "function"
    },
    {
      "inputs": [
        {
          "internalType": "uint256",
          "name": "ltoId",
          "type": "uint256"
        }
      ],
      "name": "cancel",
      "outputs": [],
      "stateMutability": "nonpayable",
      "type": "function"
    },
    {
      "inputs": [
        {
          "internalType": "uint256",
          "name": "ltoId",
          "type": "uint256"
        }
      ],
      "name": "complete",
      "outputs": [],
      "stateMutability": "nonpayable",
      "type": "function"
    },
    {
      "inputs": [
        {
          "components": [
            {
              "internalType": "address",
              "name": "from",
              "type": "address"
            },
            {
              "internalType": "uint256",
              "name": "nonce",
              "type": "uint256"
            },
            {
              "internalType": "uint256",
              "name": "tokenId",
              "type": "uint256"
            },
            {
              "internalType": "bytes",
              "name": "data",
              "type": "bytes"
            }
          ],
          "internalType": "struct IForwarder.ForwardRequest",
          "name": "req",
          "type": "tuple"
        },
        {
          "internalType": "bytes",
          "name": "signature",
          "type": "bytes"
        }
      ],
      "name": "execute",
      "outputs": [
        {
          "internalType": "bytes",
          "name": "",
          "type": "bytes"
        }
      ],
      "stateMutability": "nonpayable",
      "type": "function"
    },
    {
      "inputs": [
        {
          "internalType": "address",
          "name": "seller",
          "type": "address"
        },
        {
          "internalType": "address",
          "name": "buyer",
          "type": "address"
        },
        {
          "internalType": "uint256",
          "name": "tokenId",
          "type": "uint256"
        },
        {
          "internalType": "uint256",
          "name": "counter",
          "type": "uint256"
        }
      ],
      "name": "getLtoCustodyId",
      "outputs": [
        {
          "internalType": "uint256",
          "name": "",
          "type": "uint256"
        }
      ],
      "stateMutability": "pure",
      "type": "function"
    },
    {
      "inputs": [
        {
          "internalType": "bytes32",
          "name": "role",
          "type": "bytes32"
        }
      ],
      "name": "getRoleAdmin",
      "outputs": [
        {
          "internalType": "bytes32",
          "name": "",
          "type": "bytes32"
        }
      ],
      "stateMutability": "view",
      "type": "function"
    },
    {
      "inputs": [
        {
          "internalType": "bytes32",
          "name": "role",
          "type": "bytes32"
        },
        {
          "internalType": "address",
          "name": "account",
          "type": "address"
        }
      ],
      "name": "grantRole",
      "outputs": [],
      "stateMutability": "nonpayable",
      "type": "function"
    },
    {
      "inputs": [
        {
          "internalType": "bytes32",
          "name": "role",
          "type": "bytes32"
        },
        {
          "internalType": "address",
          "name": "account",
          "type": "address"
        }
      ],
      "name": "hasRole",
      "outputs": [
        {
          "internalType": "bool",
          "name": "",
          "type": "bool"
        }
      ],
      "stateMutability": "view",
      "type": "function"
    },
    {
      "inputs": [
        {
          "internalType": "contract IUNSRegistry",
          "name": "_registry",
          "type": "address"
        },
        {
          "internalType": "contract IMintingManager",
          "name": "_mintingManager",
          "type": "address"
        },
        {
          "internalType": "contract SeaportProxyBuyer",
          "name": "_seaportProxyBuyer",
          "type": "address"
        }
      ],
      "name": "initialize",
      "outputs": [],
      "stateMutability": "nonpayable",
      "type": "function"
    },
    {
      "inputs": [
        {
          "internalType": "address",
          "name": "seller",
          "type": "address"
        },
        {
          "internalType": "address",
          "name": "buyer",
          "type": "address"
        },
        {
          "internalType": "uint256",
          "name": "tokenId",
          "type": "uint256"
        }
      ],
      "name": "initiateLTO",
      "outputs": [],
      "stateMutability": "nonpayable",
      "type": "function"
    },
    {
      "inputs": [
        {
          "components": [
            {
              "components": [
                {
                  "internalType": "address",
                  "name": "offerer",
                  "type": "address"
                },
                {
                  "internalType": "address",
                  "name": "zone",
                  "type": "address"
                },
                {
                  "components": [
                    {
                      "internalType": "enum ItemType",
                      "name": "itemType",
                      "type": "uint8"
                    },
                    {
                      "internalType": "address",
                      "name": "token",
                      "type": "address"
                    },
                    {
                      "internalType": "uint256",
                      "name": "identifierOrCriteria",
                      "type": "uint256"
                    },
                    {
                      "internalType": "uint256",
                      "name": "startAmount",
                      "type": "uint256"
                    },
                    {
                      "internalType": "uint256",
                      "name": "endAmount",
                      "type": "uint256"
                    }
                  ],
                  "internalType": "struct OfferItem[]",
                  "name": "offer",
                  "type": "tuple[]"
                },
                {
                  "components": [
                    {
                      "internalType": "enum ItemType",
                      "name": "itemType",
                      "type": "uint8"
                    },
                    {
                      "internalType": "address",
                      "name": "token",
                      "type": "address"
                    },
                    {
                      "internalType": "uint256",
                      "name": "identifierOrCriteria",
                      "type": "uint256"
                    },
                    {
                      "internalType": "uint256",
                      "name": "startAmount",
                      "type": "uint256"
                    },
                    {
                      "internalType": "uint256",
                      "name": "endAmount",
                      "type": "uint256"
                    },
                    {
                      "internalType": "address payable",
                      "name": "recipient",
                      "type": "address"
                    }
                  ],
                  "internalType": "struct ConsiderationItem[]",
                  "name": "consideration",
                  "type": "tuple[]"
                },
                {
                  "internalType": "enum OrderType",
                  "name": "orderType",
                  "type": "uint8"
                },
                {
                  "internalType": "uint256",
                  "name": "startTime",
                  "type": "uint256"
                },
                {
                  "internalType": "uint256",
                  "name": "endTime",
                  "type": "uint256"
                },
                {
                  "internalType": "bytes32",
                  "name": "zoneHash",
                  "type": "bytes32"
                },
                {
                  "internalType": "uint256",
                  "name": "salt",
                  "type": "uint256"
                },
                {
                  "internalType": "bytes32",
                  "name": "conduitKey",
                  "type": "bytes32"
                },
                {
                  "internalType": "uint256",
                  "name": "totalOriginalConsiderationItems",
                  "type": "uint256"
                }
              ],
              "internalType": "struct OrderParameters",
              "name": "parameters",
              "type": "tuple"
            },
            {
              "internalType": "uint120",
              "name": "numerator",
              "type": "uint120"
            },
            {
              "internalType": "uint120",
              "name": "denominator",
              "type": "uint120"
            },
            {
              "internalType": "bytes",
              "name": "signature",
              "type": "bytes"
            },
            {
              "internalType": "bytes",
              "name": "extraData",
              "type": "bytes"
            }
          ],
          "internalType": "struct AdvancedOrder",
          "name": "advancedOrder",
          "type": "tuple"
        },
        {
          "components": [
            {
              "internalType": "uint256",
              "name": "orderIndex",
              "type": "uint256"
            },
            {
              "internalType": "enum Side",
              "name": "side",
              "type": "uint8"
            },
            {
              "internalType": "uint256",
              "name": "index",
              "type": "uint256"
            },
            {
              "internalType": "uint256",
              "name": "identifier",
              "type": "uint256"
            },
            {
              "internalType": "bytes32[]",
              "name": "criteriaProof",
              "type": "bytes32[]"
            }
          ],
          "internalType": "struct CriteriaResolver[]",
          "name": "criteriaResolvers",
          "type": "tuple[]"
        },
        {
          "internalType": "bytes32",
          "name": "fulfillerConduitKey",
          "type": "bytes32"
        },
        {
          "internalType": "address",
          "name": "recipient",
          "type": "address"
        }
      ],
      "name": "initiateLTOFromOrder",
      "outputs": [],
      "stateMutability": "nonpayable",
      "type": "function"
    },
    {
      "inputs": [
        {
          "internalType": "address",
          "name": "account",
          "type": "address"
        }
      ],
      "name": "isCustodyAdmin",
      "outputs": [
        {
          "internalType": "bool",
          "name": "",
          "type": "bool"
        }
      ],
      "stateMutability": "view",
      "type": "function"
    },
    {
      "inputs": [
        {
          "internalType": "uint256",
          "name": "ltoId",
          "type": "uint256"
        }
      ],
      "name": "isLTOInitiated",
      "outputs": [
        {
          "internalType": "bool",
          "name": "",
          "type": "bool"
        }
      ],
      "stateMutability": "view",
      "type": "function"
    },
    {
      "inputs": [
        {
          "internalType": "address",
          "name": "forwarder",
          "type": "address"
        }
      ],
      "name": "isTrustedForwarder",
      "outputs": [
        {
          "internalType": "bool",
          "name": "",
          "type": "bool"
        }
      ],
      "stateMutability": "view",
      "type": "function"
    },
    {
      "inputs": [
        {
          "internalType": "uint256",
          "name": "",
          "type": "uint256"
        }
      ],
      "name": "ltoAssets",
      "outputs": [
        {
          "internalType": "address",
          "name": "seller",
          "type": "address"
        },
        {
          "internalType": "address",
          "name": "buyer",
          "type": "address"
        },
        {
          "internalType": "uint256",
          "name": "tokenId",
          "type": "uint256"
        },
        {
          "internalType": "bool",
          "name": "isFinalized",
          "type": "bool"
        }
      ],
      "stateMutability": "view",
      "type": "function"
    },
    {
      "inputs": [],
      "name": "mintingManager",
      "outputs": [
        {
          "internalType": "contract IMintingManager",
          "name": "",
          "type": "address"
        }
      ],
      "stateMutability": "view",
      "type": "function"
    },
    {
      "inputs": [
        {
          "internalType": "uint256",
          "name": "tokenId",
          "type": "uint256"
        }
      ],
      "name": "nonceOf",
      "outputs": [
        {
          "internalType": "uint256",
          "name": "",
          "type": "uint256"
        }
      ],
      "stateMutability": "view",
      "type": "function"
    },
    {
      "inputs": [],
      "name": "owner",
      "outputs": [
        {
          "internalType": "address",
          "name": "",
          "type": "address"
        }
      ],
      "stateMutability": "view",
      "type": "function"
    },
    {
      "inputs": [],
      "name": "pause",
      "outputs": [],
      "stateMutability": "nonpayable",
      "type": "function"
    },
    {
      "inputs": [],
      "name": "paused",
      "outputs": [
        {
          "internalType": "bool",
          "name": "",
          "type": "bool"
        }
      ],
      "stateMutability": "view",
      "type": "function"
    },
    {
      "inputs": [],
      "name": "registry",
      "outputs": [
        {
          "internalType": "contract IUNSRegistry",
          "name": "",
          "type": "address"
        }
      ],
      "stateMutability": "view",
      "type": "function"
    },
    {
      "inputs": [
        {
          "internalType": "address",
          "name": "account",
          "type": "address"
        }
      ],
      "name": "removeCustodyAdmin",
      "outputs": [],
      "stateMutability": "nonpayable",
      "type": "function"
    },
    {
      "inputs": [],
      "name": "renounceOwnership",
      "outputs": [],
      "stateMutability": "nonpayable",
      "type": "function"
    },
    {
      "inputs": [
        {
          "internalType": "bytes32",
          "name": "role",
          "type": "bytes32"
        },
        {
          "internalType": "address",
          "name": "account",
          "type": "address"
        }
      ],
      "name": "renounceRole",
      "outputs": [],
      "stateMutability": "nonpayable",
      "type": "function"
    },
    {
      "inputs": [
        {
          "internalType": "uint256",
          "name": "tokenId",
          "type": "uint256"
        }
      ],
      "name": "revokeAsset",
      "outputs": [],
      "stateMutability": "nonpayable",
      "type": "function"
    },
    {
      "inputs": [
        {
          "internalType": "bytes32",
          "name": "role",
          "type": "bytes32"
        },
        {
          "internalType": "address",
          "name": "account",
          "type": "address"
        }
      ],
      "name": "revokeRole",
      "outputs": [],
      "stateMutability": "nonpayable",
      "type": "function"
    },
    {
      "inputs": [],
      "name": "seaportProxyBuyer",
      "outputs": [
        {
          "internalType": "contract SeaportProxyBuyer",
          "name": "",
          "type": "address"
        }
      ],
      "stateMutability": "view",
      "type": "function"
    },
    {
      "inputs": [
        {
          "internalType": "string[]",
          "name": "keys",
          "type": "string[]"
        },
        {
          "internalType": "string[]",
          "name": "values",
          "type": "string[]"
        },
        {
          "internalType": "uint256",
          "name": "tokenId",
          "type": "uint256"
        }
      ],
      "name": "setRecords",
      "outputs": [],
      "stateMutability": "nonpayable",
      "type": "function"
    },
    {
      "inputs": [
        {
          "internalType": "bytes4",
          "name": "interfaceId",
          "type": "bytes4"
        }
      ],
      "name": "supportsInterface",
      "outputs": [
        {
          "internalType": "bool",
          "name": "",
          "type": "bool"
        }
      ],
      "stateMutability": "view",
      "type": "function"
    },
    {
      "inputs": [
        {
          "internalType": "uint256",
          "name": "",
          "type": "uint256"
        }
      ],
      "name": "tokenLTOs",
      "outputs": [
        {
          "internalType": "uint256",
          "name": "",
          "type": "uint256"
        }
      ],
      "stateMutability": "view",
      "type": "function"
    },
    {
      "inputs": [
        {
          "internalType": "uint256",
          "name": "",
          "type": "uint256"
        }
      ],
      "name": "tokenLtoIdCounter",
      "outputs": [
        {
          "internalType": "uint256",
          "name": "",
          "type": "uint256"
        }
      ],
      "stateMutability": "view",
      "type": "function"
    },
    {
      "inputs": [
        {
          "internalType": "uint256",
          "name": "ltoId",
          "type": "uint256"
        },
        {
          "internalType": "address",
          "name": "buyer",
          "type": "address"
        }
      ],
      "name": "transferBuyer",
      "outputs": [],
      "stateMutability": "nonpayable",
      "type": "function"
    },
    {
      "inputs": [
        {
          "internalType": "address",
          "name": "newOwner",
          "type": "address"
        }
      ],
      "name": "transferOwnership",
      "outputs": [],
      "stateMutability": "nonpayable",
      "type": "function"
    },
    {
      "inputs": [
        {
          "internalType": "uint256",
          "name": "ltoId",
          "type": "uint256"
        },
        {
          "internalType": "address",
          "name": "seller",
          "type": "address"
        }
      ],
      "name": "transferSeller",
      "outputs": [],
      "stateMutability": "nonpayable",
      "type": "function"
    },
    {
      "inputs": [],
      "name": "unpause",
      "outputs": [],
      "stateMutability": "nonpayable",
      "type": "function"
    },
    {
      "inputs": [
        {
          "components": [
            {
              "internalType": "address",
              "name": "from",
              "type": "address"
            },
            {
              "internalType": "uint256",
              "name": "nonce",
              "type": "uint256"
            },
            {
              "internalType": "uint256",
              "name": "tokenId",
              "type": "uint256"
            },
            {
              "internalType": "bytes",
              "name": "data",
              "type": "bytes"
            }
          ],
          "internalType": "struct IForwarder.ForwardRequest",
          "name": "req",
          "type": "tuple"
        },
        {
          "internalType": "bytes",
          "name": "signature",
          "type": "bytes"
        }
      ],
      "name": "verify",
      "outputs": [
        {
          "internalType": "bool",
          "name": "",
          "type": "bool"
        }
      ],
      "stateMutability": "view",
      "type": "function"
    }
  ],
  "bytecode": "0x608060405234801562000010575f80fd5b506200001b62000021565b620000e0565b5f54610100900460ff16156200008d5760405162461bcd60e51b815260206004820152602760248201527f496e697469616c697a61626c653a20636f6e747261637420697320696e697469604482015266616c697a696e6760c81b606482015260840160405180910390fd5b5f5460ff9081161015620000de575f805460ff191660ff9081179091556040519081527f7f26b83ff96e1f2b6a682f133852f6798a09c465da95921460cefb38474024989060200160405180910390a15b565b61304080620000ee5f395ff3fe608060405234801561000f575f80fd5b5060043610610229575f3560e01c80638456cb591161012a578063c0c53b8b116100b4578063e716612311610079578063e71661231461053c578063ecdb813d1461054f578063f2fde38b1461056f578063f3555b2014610582578063f538349714610595575f80fd5b8063c0c53b8b146104dc578063c2ed6bc5146104ef578063ca73f88914610502578063cd42426014610515578063d547741f14610529575f80fd5b8063980a6748116100fa578063980a67481461042a5780639efd1b131461049c578063a217fddf146104af578063a4247400146104b6578063b6240e5b146104c9575f80fd5b80638456cb59146103eb5780638da5cb5b146103f357806391d1485414610404578063971d852f14610417575f80fd5b80634f724db0116101b657806366ad0b521161017b57806366ad0b521461039657806367ce591f146103a95780636ccbae5f146103bc578063715018a6146103cf5780637b103999146103d7575f80fd5b80634f724db014610328578063572b6c051461034857806358884432146103645780635c975abb14610378578063657d114414610383575f80fd5b8063248a9ca3116101fc578063248a9ca3146102b45780632f2ff15d146102e557806336568abe146102fa5780633f4ba83a1461030d57806340e58ee514610315575f80fd5b806301ffc9a71461022d5780630ea6d2f3146102555780630f1201cc146102815780631bf7e13e14610294575b5f80fd5b61024061023b36600461224f565b6105a8565b60405190151581526020015b60405180910390f35b61019254610269906001600160a01b031681565b6040516001600160a01b03909116815260200161024c565b61024061028f366004612276565b6105de565b6102a76102a236600461228d565b610613565b60405161024c919061236f565b6102d76102c2366004612276565b5f90815261012d602052604090206001015490565b60405190815260200161024c565b6102f86102f33660046123a5565b6106dc565b005b6102f86103083660046123a5565b610706565b6102f8610799565b6102f8610323366004612276565b6107ab565b6102d7610336366004612276565b6101956020525f908152604090205481565b6102406103563660046123d3565b6001600160a01b0316301490565b61019354610269906001600160a01b031681565b60975460ff16610240565b6102f8610391366004612276565b6108e6565b6102f86103a43660046123ee565b61098d565b6102f86103b73660046123d3565b610b29565b6102d76103ca366004612276565b610b7d565b6102f8610bd6565b61019154610269906001600160a01b031681565b6102f8610be7565b60c9546001600160a01b0316610269565b6102406104123660046123a5565b610bf7565b6102f8610425366004612276565b610c22565b61046f610438366004612276565b6101946020525f908152604090208054600182015460028301546003909301546001600160a01b0392831693919092169160ff1684565b604080516001600160a01b039586168152949093166020850152918301521515606082015260800161024c565b6102f86104aa3660046123a5565b610c9d565b6102d75f81565b6102406104c436600461228d565b610d81565b6102406104d73660046123d3565b610dd2565b6102f86104ea36600461242c565b610dea565b6102f86104fd3660046124b4565b610f68565b6102f86105103660046123a5565b6110af565b6102d75f8051602061301483398151915281565b6102f86105373660046123a5565b611188565b6102f861054a36600461253c565b6111ad565b6102d761055d366004612276565b6101966020525f908152604090205481565b6102f861057d3660046123d3565b61129c565b6102d76105903660046125a9565b611312565b6102f86105a33660046123d3565b61135c565b5f6001600160e01b03198216637965db0b60e01b14806105d857506301ffc9a760e01b6001600160e01b03198316145b92915050565b5f8181526101946020526040812060020154158015906105d85750505f908152610194602052604090206003015460ff161590565b60605f5a9050610624858585610d81565b61064157604051638baa579f60e01b815260040160405180910390fd5b6106d161065160208701876123d3565b3060408801358461066560608b018b6125ec565b8080601f0160208091040260200160405190810160405280939291908181526020018383808284375f9201919091525050604080516020601f8e018190048102820181019092528c815292508c91508b90819084018382808284375f920191909152506113b192505050565b9150505b9392505050565b5f82815261012d60205260409020600101546106f78161148f565b61070183836114a0565b505050565b61070e611527565b6001600160a01b0316816001600160a01b03161461078b5760405162461bcd60e51b815260206004820152602f60248201527f416363657373436f6e74726f6c3a2063616e206f6e6c792072656e6f756e636560448201526e103937b632b9903337b91039b2b63360891b60648201526084015b60405180910390fd5b6107958282611535565b5050565b6107a16115ba565b6107a9611633565b565b6107b66104d7611527565b6107d2576040516282b42960e81b815260040160405180910390fd5b6107da61168b565b6107e3816105de565b61080057604051633f030d6d60e01b815260040160405180910390fd5b610191545f8281526101946020526040908190206002015490516331a9108f60e11b8152600481019190915230916001600160a01b031690636352211e90602401602060405180830381865afa15801561085c573d5f803e3d5ffd5b505050506040513d601f19601f82011682018060405250810190610880919061262e565b6001600160a01b0316036108b4575f81815261019460205260409020546108b19082906001600160a01b03166116d1565b50565b5f8181526101946020908152604080832060038101805460ff1916600117905560020154835261019590915281205550565b6108f16104d7611527565b61090d576040516282b42960e81b815260040160405180910390fd5b60026065540361092f5760405162461bcd60e51b815260040161078290612649565b600260655561093c61168b565b5f81815261019560205260408120549081900361096c57604051633f030d6d60e01b815260040160405180910390fd5b610193546109849082906001600160a01b03166116d1565b50506001606555565b6002606554036109af5760405162461bcd60e51b815260040161078290612649565b60026065556109bf6104d7611527565b6109db576040516282b42960e81b815260040160405180910390fd5b6109e361168b565b5f6109ef8484846117b4565b610191546040516331a9108f60e11b81526004810185905291925030916001600160a01b0390911690636352211e90602401602060405180830381865afa158015610a3c573d5f803e3d5ffd5b505050506040513d601f19601f82011682018060405250810190610a60919061262e565b6001600160a01b031614610ad757610191546040516323b872dd60e01b81526001600160a01b03868116600483015230602483015260448201859052909116906323b872dd906064015f604051808303815f87803b158015610ac0575f80fd5b505af1158015610ad2573d5f803e3d5ffd5b505050505b604080516001600160a01b03808716825285166020820152839183917fd33e100d324477d0c48d17ab70e096443fc9dd28775952e65f3806b7253467d1910160405180910390a3505060016065555050565b610b316115ba565b610b485f8051602061301483398151915282611906565b6040516001600160a01b038216907eabe768b82800e7d5614169467c9ce6a18df23b00ea0c3536791f7c6ff5c0d0905f90a250565b604080517f1ee5d87a048b728f67073f282321992c260e5be4fa651d08665c5b4ee7a8381560208201529081018290525f90610bcf906060016040516020818303038152906040528051906020012090565b5492915050565b610bde6115ba565b6107a95f611910565b610bef6115ba565b6107a9611961565b5f91825261012d602090815260408084206001600160a01b0393909316845291905290205460ff1690565b610c2d6104d7611527565b610c49576040516282b42960e81b815260040160405180910390fd5b610c5161168b565b610c5a816105de565b610c7757604051633f030d6d60e01b815260040160405180910390fd5b5f81815261019460205260409020600101546108b19082906001600160a01b03166116d1565b610ca86104d7611527565b610cc4576040516282b42960e81b815260040160405180910390fd5b610ccc61168b565b610cd5826105de565b610cf257604051633f030d6d60e01b815260040160405180910390fd5b6001600160a01b038116610d19576040516358ef870360e11b815260040160405180910390fd5b5f828152610194602090815260409182902060010180546001600160a01b0319166001600160a01b038516908117909155915191825283917ff92b34d7c01f8cf2b457fb33321c0392c514bf4b1f5edc9f78bfcedd16d4915e91015b60405180910390a25050565b5f610dca610d8e856126ec565b3085858080601f0160208091040260200160405190810160405280939291908181526020018383808284375f9201919091525061199f92505050565b949350505050565b5f6105d85f8051602061301483398151915283610bf7565b5f54610100900460ff1615808015610e0857505f54600160ff909116105b80610e215750303b158015610e2157505f5460ff166001145b610e845760405162461bcd60e51b815260206004820152602e60248201527f496e697469616c697a61626c653a20636f6e747261637420697320616c72656160448201526d191e481a5b9a5d1a585b1a5e995960921b6064820152608401610782565b5f805460ff191660011790558015610ea5575f805461ff0019166101001790555b610ead611ada565b610eb5611b00565b610ebd611ada565b610ec5611b36565b610ecd611b6d565b610ed5611b9a565b610edd611ada565b61019180546001600160a01b038087166001600160a01b03199283161790925561019380548684169083161790556101928054928516929091169190911790558015610f62575f805461ff0019169055604051600181527f7f26b83ff96e1f2b6a682f133852f6798a09c465da95921460cefb38474024989060200160405180910390a15b50505050565b600260655403610f8a5760405162461bcd60e51b815260040161078290612649565b6002606555610f9a6104d7611527565b610fb6576040516282b42960e81b815260040160405180910390fd5b610fbe61168b565b5f805f610fcb8885611bcc565b9250925092505f610fdd8484846117b4565b610192546040516339eb2ac960e21b81529192506001600160a01b03169063e7acab2490611017908c908c908c908c903090600401612b1b565b6020604051808303815f875af1158015611033573d5f803e3d5ffd5b505050506040513d601f19601f820116820180604052508101906110579190612cf1565b50604080516001600160a01b03808716825285166020820152839183917fd33e100d324477d0c48d17ab70e096443fc9dd28775952e65f3806b7253467d1910160405180910390a35050600160655550505050505050565b6110ba6104d7611527565b6110d6576040516282b42960e81b815260040160405180910390fd5b6110de61168b565b6110e7826105de565b61110457604051633f030d6d60e01b815260040160405180910390fd5b6001600160a01b03811661112b5760405163bab7ca3560e01b815260040160405180910390fd5b5f828152610194602090815260409182902080546001600160a01b0319166001600160a01b038516908117909155915191825283917fe3ece063b84a0e16e6080f268ec65ce9c2af3f48ad754f332a34c1eec29dcd939101610d75565b5f82815261012d60205260409020600101546111a38161148f565b6107018383611535565b5f81815261019560205260409020546111c5816105de565b6111e257604051633f030d6d60e01b815260040160405180910390fd5b6111ea611527565b5f82815261019460205260409020600101546001600160a01b03908116911614611226576040516282b42960e81b815260040160405180910390fd5b61122e61168b565b61019154604051636749599f60e11b81526001600160a01b039091169063ce92b33e906112679089908990899089908990600401612d6f565b5f604051808303815f87803b15801561127e575f80fd5b505af1158015611290573d5f803e3d5ffd5b50505050505050505050565b6112a46115ba565b6001600160a01b0381166113095760405162461bcd60e51b815260206004820152602660248201527f4f776e61626c653a206e6577206f776e657220697320746865207a65726f206160448201526564647265737360d01b6064820152608401610782565b6108b181611910565b604080516001600160a01b03958616602080830191909152949095168582015260608501929092526080808501919091528151808503909101815260a09093019052815191012090565b6113646115ba565b61137b5f8051602061301483398151915282611188565b6040516001600160a01b038216907f7ec703108af80ed3dd35e047e5ca6c6d465aa7adab3855dfdb91686333ed584a905f90a250565b60606113bc85611cc3565b5f80876001600160a01b0316866113d58b8a8989611d28565b6040516113e29190612da8565b5f604051808303815f8787f1925050503d805f811461141c576040519150601f19603f3d011682016040523d82523d5f602084013e611421565b606091505b509092509050611432603f87612dd7565b5a1161144057611440612df6565b61148082826040518060400160405280601a81526020017f42617365466f727761726465723a2043414c4c5f4641494c4544000000000000815250611d58565b925050505b9695505050505050565b6108b18161149b611527565b611d91565b6114aa8282610bf7565b610795575f82815261012d602090815260408083206001600160a01b03851684529091529020805460ff191660011790556114e3611527565b6001600160a01b0316816001600160a01b0316837f2f8788117e7eff1d82e926ec794901d17c78024a50270940304540a733656f0d60405160405180910390a45050565b5f611530611df5565b905090565b61153f8282610bf7565b15610795575f82815261012d602090815260408083206001600160a01b03851684529091529020805460ff19169055611576611527565b6001600160a01b0316816001600160a01b0316837ff6391f5c32d9c69d2a47ea670b442974b53935d1edc7fd64eb21e047a839171b60405160405180910390a45050565b6115c2611527565b6001600160a01b03166115dd60c9546001600160a01b031690565b6001600160a01b0316146107a95760405162461bcd60e51b815260206004820181905260248201527f4f776e61626c653a2063616c6c6572206973206e6f7420746865206f776e65726044820152606401610782565b61163b611e0f565b6097805460ff191690557f5db9ee0a495bf2e6ff9c91a7834c1ba4fdd244a5e8aa4e537bd38aeae4b073aa61166e611527565b6040516001600160a01b03909116815260200160405180910390a1565b60975460ff16156107a95760405162461bcd60e51b815260206004820152601060248201526f14185d5cd8589b194e881c185d5cd95960821b6044820152606401610782565b5f8281526101946020908152604080832060038101805460ff1916600117905560020154808452610195909252808320929092556101915491516323b872dd60e01b81523060048201526001600160a01b03848116602483015260448201839052919291909116906323b872dd906064015f604051808303815f87803b158015611759575f80fd5b505af115801561176b573d5f803e3d5ffd5b50506040516001600160a01b03851681528392508591507f71f3f9a8aef7f77c5f9ddfd8c83f383ffa885f16dc7ab97046f9f70f4a4959e49060200160405180910390a3505050565b5f6001600160a01b0384166117dc5760405163bab7ca3560e01b815260040160405180910390fd5b6001600160a01b038316611803576040516358ef870360e11b815260040160405180910390fd5b5f82815261019560205260409020541561183057604051634517741560e01b815260040160405180910390fd5b5f828152610196602052604081205461184e90869086908690611312565b604080516080810182526001600160a01b03888116825287811660208084019182528385018981525f606086018181528882526101948452878220965187546001600160a01b0319908116918816919091178855945160018801805490961696169590951790935551600285015591516003909301805460ff191693151593909317909255868252610195815282822084905561019690529081208054929350906118f883612e0a565b909155509095945050505050565b61079582826114a0565b60c980546001600160a01b038381166001600160a01b0319831681179093556040519116919082907f8be0079c531659141344cd1fd0a4f28419497f9722a3daafe3b4186f6b6457e0905f90a35050565b61196961168b565b6097805460ff191660011790557f62e78cea01bee320cd4e420270b5ea74000d11b0c9f74754ebdbfc544b05a25861166e611527565b6040838101519051636ccbae5f60e01b815260048101919091525f9081903090636ccbae5f90602401602060405180830381865afa1580156119e3573d5f803e3d5ffd5b505050506040513d601f19601f82011682018060405250810190611a079190612e22565b90505f611ab4866060015180519060200120868860200151604051602001611a549392919092835260609190911b6bffffffffffffffffffffffff19166020830152603482015260540190565b60408051601f1981840301815282825280516020918201207f19457468657265756d205369676e6564204d6573736167653a0a33320000000084830152603c8085019190915282518085039091018152605c909301909152815191012090565b905081866020015114801561148557508551611485906001600160a01b03168286611e58565b5f54610100900460ff166107a95760405162461bcd60e51b815260040161078290612e39565b5f54610100900460ff16611b265760405162461bcd60e51b815260040161078290612e39565b6107a9611b31611527565b611910565b5f54610100900460ff16611b5c5760405162461bcd60e51b815260040161078290612e39565b6107a95f611b68611527565b611906565b5f54610100900460ff16611b935760405162461bcd60e51b815260040161078290612e39565b6001606555565b5f54610100900460ff16611bc05760405162461bcd60e51b815260040161078290612e39565b6097805460ff19169055565b5f8080611bd98580612e84565b611be7906040810190612e99565b9050600103611ca35736611bfb8680612e84565b611c09906040810190612e99565b5f818110611c1957611c19612edd565b60a00291909101915060029050611c336020830183612ef1565b6005811115611c4457611c446127fa565b148015611c745750610191546001600160a01b0316611c6960408301602084016123d3565b6001600160a01b0316145b15611ca157611c838680612e84565b611c919060208101906123d3565b9350849250604001359050611cbc565b505b60405163af61069360e01b815260040160405180910390fd5b9250925092565b604080517f1ee5d87a048b728f67073f282321992c260e5be4fa651d08665c5b4ee7a8381560208201529081018290525f90606001604051602081830303815290604052805190602001209050611d178190565b54611d23906001612f0a565b905550565b6060828585604051602001611d3f93929190612f1d565b6040516020818303038152906040529050949350505050565b60608315611d675750816106d5565b825115611d775782518084602001fd5b8160405162461bcd60e51b8152600401610782919061236f565b611d9b8282610bf7565b61079557611db3816001600160a01b03166014611f93565b611dbe836020611f93565b604051602001611dcf929190612f5b565b60408051601f198184030181529082905262461bcd60e51b82526107829160040161236f565b5f303303611e0a575060331936013560601c90565b503390565b60975460ff166107a95760405162461bcd60e51b815260206004820152601460248201527314185d5cd8589b194e881b9bdd081c185d5cd95960621b6044820152606401610782565b5f805f611e658585612128565b90925090505f816004811115611e7d57611e7d6127fa565b148015611e9b5750856001600160a01b0316826001600160a01b0316145b15611eab576001925050506106d5565b5f80876001600160a01b0316631626ba7e60e01b8888604051602401611ed2929190612fcf565b60408051601f198184030181529181526020820180516001600160e01b03166001600160e01b0319909416939093179092529051611f109190612da8565b5f60405180830381855afa9150503d805f8114611f48576040519150601f19603f3d011682016040523d82523d5f602084013e611f4d565b606091505b5091509150818015611f60575080516020145b8015611f8757508051630b135d3f60e11b90611f859083016020908101908401612e22565b145b98975050505050505050565b60605f611fa1836002612fe7565b611fac906002612f0a565b6001600160401b03811115611fc357611fc3612680565b6040519080825280601f01601f191660200182016040528015611fed576020820181803683370190505b509050600360fc1b815f8151811061200757612007612edd565b60200101906001600160f81b03191690815f1a905350600f60fb1b8160018151811061203557612035612edd565b60200101906001600160f81b03191690815f1a9053505f612057846002612fe7565b612062906001612f0a565b90505b60018111156120d9576f181899199a1a9b1b9c1cb0b131b232b360811b85600f166010811061209657612096612edd565b1a60f81b8282815181106120ac576120ac612edd565b60200101906001600160f81b03191690815f1a90535060049490941c936120d281612ffe565b9050612065565b5083156106d55760405162461bcd60e51b815260206004820181905260248201527f537472696e67733a20686578206c656e67746820696e73756666696369656e746044820152606401610782565b5f80825160410361215c576020830151604084015160608501515f1a6121508782858561216a565b94509450505050612163565b505f905060025b9250929050565b5f807f7fffffffffffffffffffffffffffffff5d576e7357a4501ddfe92f46681b20a083111561219f57505f90506003612246565b8460ff16601b141580156121b757508460ff16601c14155b156121c757505f90506004612246565b604080515f8082526020820180845289905260ff881692820192909252606081018690526080810185905260019060a0016020604051602081039080840390855afa158015612218573d5f803e3d5ffd5b5050604051601f1901519150506001600160a01b038116612240575f60019250925050612246565b91505f90505b94509492505050565b5f6020828403121561225f575f80fd5b81356001600160e01b0319811681146106d5575f80fd5b5f60208284031215612286575f80fd5b5035919050565b5f805f6040848603121561229f575f80fd5b83356001600160401b03808211156122b5575f80fd5b90850190608082880312156122c8575f80fd5b909350602085013590808211156122dd575f80fd5b818601915086601f8301126122f0575f80fd5b8135818111156122fe575f80fd5b87602082850101111561230f575f80fd5b6020830194508093505050509250925092565b5f5b8381101561233c578181015183820152602001612324565b50505f910152565b5f815180845261235b816020860160208601612322565b601f01601f19169290920160200192915050565b602081525f6106d56020830184612344565b6001600160a01b03811681146108b1575f80fd5b80356123a081612381565b919050565b5f80604083850312156123b6575f80fd5b8235915060208301356123c881612381565b809150509250929050565b5f602082840312156123e3575f80fd5b81356106d581612381565b5f805f60608486031215612400575f80fd5b833561240b81612381565b9250602084013561241b81612381565b929592945050506040919091013590565b5f805f6060848603121561243e575f80fd5b833561244981612381565b9250602084013561245981612381565b9150604084013561246981612381565b809150509250925092565b5f8083601f840112612484575f80fd5b5081356001600160401b0381111561249a575f80fd5b6020830191508360208260051b8501011115612163575f80fd5b5f805f805f608086880312156124c8575f80fd5b85356001600160401b03808211156124de575f80fd5b9087019060a0828a0312156124f1575f80fd5b90955060208701359080821115612506575f80fd5b5061251388828901612474565b90955093505060408601359150606086013561252e81612381565b809150509295509295909350565b5f805f805f60608688031215612550575f80fd5b85356001600160401b0380821115612566575f80fd5b61257289838a01612474565b9097509550602088013591508082111561258a575f80fd5b5061259788828901612474565b96999598509660400135949350505050565b5f805f80608085870312156125bc575f80fd5b84356125c781612381565b935060208501356125d781612381565b93969395505050506040820135916060013590565b5f808335601e19843603018112612601575f80fd5b8301803591506001600160401b0382111561261a575f80fd5b602001915036819003821315612163575f80fd5b5f6020828403121561263e575f80fd5b81516106d581612381565b6020808252601f908201527f5265656e7472616e637947756172643a207265656e7472616e742063616c6c00604082015260600190565b634e487b7160e01b5f52604160045260245ffd5b604051608081016001600160401b03811182821017156126b6576126b6612680565b60405290565b604051601f8201601f191681016001600160401b03811182821017156126e4576126e4612680565b604052919050565b5f608082360312156126fc575f80fd5b612704612694565b823561270f81612381565b8152602083810135818301526040808501359083015260608401356001600160401b038082111561273e575f80fd5b9085019036601f830112612750575f80fd5b81358181111561276257612762612680565b612774601f8201601f191685016126bc565b91508082523684828501011115612789575f80fd5b80848401858401375f9082019093019290925250606082015292915050565b5f808335601e198436030181126127bd575f80fd5b83016020810192503590506001600160401b038111156127db575f80fd5b60a081023603821315612163575f80fd5b8035600681106123a0575f80fd5b634e487b7160e01b5f52602160045260245ffd5b6006811061281e5761281e6127fa565b9052565b8183525f60208085019450825f5b858110156128945761284a87612845846127ec565b61280e565b8282013561285781612381565b6001600160a01b03168388015260408281013590880152606080830135908801526080808301359088015260a09687019690910190600101612830565b509495945050505050565b5f808335601e198436030181126128b4575f80fd5b83016020810192503590506001600160401b038111156128d2575f80fd5b60c081023603821315612163575f80fd5b8183525f60208085019450825f5b858110156128945761290687612845846127ec565b8282013561291381612381565b6001600160a01b039081168885015260408381013590890152606080840135908901526080808401359089015260a0908382013561295081612381565b169088015260c09687019691909101906001016128f1565b8035600581106123a0575f80fd5b6005811061281e5761281e6127fa565b80356001600160781b03811681146123a0575f80fd5b5f808335601e198436030181126129b1575f80fd5b83016020810192503590506001600160401b038111156129cf575f80fd5b803603821315612163575f80fd5b81835281816020850137505f828201602090810191909152601f909101601f19169091010190565b8183525f6001600160fb1b03831115612a1c575f80fd5b8260051b80836020870137939093016020019392505050565b8183526020808401935f91600585811b8301820185855b88811015612b0d57858303601f19018a52813536899003609e19018112612a71575f80fd5b88018035845260a08682013560028110612a89575f80fd5b85880152604082810135908601526060808301359086015260808083013536849003601e19018112612ab9575f80fd5b9092018781019290356001600160401b03811115612ad5575f80fd5b80881b3603841315612ae5575f80fd5b8282880152612af78388018286612a05565b9d89019d96505050928601925050600101612a4c565b509098975050505050505050565b608081525f610120873561015e19893603018112612b37575f80fd5b60a060808501528801612b5c828501612b4f83612395565b6001600160a01b03169052565b612b6860208201612395565b610140612b7f818701836001600160a01b03169052565b612b8c60408401846127a8565b610160888101529250612ba461028088018483612822565b925050612bb4606084018461289f565b87840361011f1901610180890152612bcd8482846128e3565b93505050612bdd60808401612968565b612beb6101a0880182612976565b5060a08301356101c087015260c08301356101e087015260e0830135610200870152610100808401356102208801528484013561024088015281840135610260880152612c3a60208d01612986565b6001600160781b03811660a08901529450612c5760408d01612986565b6001600160781b03811660c08901529450612c7560608d018d61299c565b95509350607f199150818784030160e0880152612c938386866129dd565b9450612ca260808d018d61299c565b945092508187860301818801525050612cbc8383836129dd565b925050508281036020840152612cd3818789612a35565b91505083604083015261148560608301846001600160a01b03169052565b5f60208284031215612d01575f80fd5b815180151581146106d5575f80fd5b5f838385526020808601955060208560051b830101845f5b87811015612d6257848303601f19018952612d43828861299c565b612d4e8582846129dd565b9a86019a9450505090830190600101612d28565b5090979650505050505050565b606081525f612d82606083018789612d10565b8281036020840152612d95818688612d10565b9150508260408301529695505050505050565b5f8251612db9818460208701612322565b9190910192915050565b634e487b7160e01b5f52601160045260245ffd5b5f82612df157634e487b7160e01b5f52601260045260245ffd5b500490565b634e487b7160e01b5f52600160045260245ffd5b5f60018201612e1b57612e1b612dc3565b5060010190565b5f60208284031215612e32575f80fd5b5051919050565b6020808252602b908201527f496e697469616c697a61626c653a20636f6e7472616374206973206e6f74206960408201526a6e697469616c697a696e6760a81b606082015260800190565b5f823561015e19833603018112612db9575f80fd5b5f808335601e19843603018112612eae575f80fd5b8301803591506001600160401b03821115612ec7575f80fd5b602001915060a081023603821315612163575f80fd5b634e487b7160e01b5f52603260045260245ffd5b5f60208284031215612f01575f80fd5b6106d5826127ec565b808201808211156105d8576105d8612dc3565b5f8451612f2e818460208901612322565b60609490941b6bffffffffffffffffffffffff191691909301908152601481019190915260340192915050565b7f416363657373436f6e74726f6c3a206163636f756e742000000000000000000081525f8351612f92816017850160208801612322565b7001034b99036b4b9b9b4b733903937b6329607d1b6017918401918201528351612fc3816028840160208801612322565b01602801949350505050565b828152604060208201525f610dca6040830184612344565b80820281158282048414176105d8576105d8612dc3565b5f8161300c5761300c612dc3565b505f19019056fee42a2a81871991b348b461cd4ff9825352fd011597c5280ce35326126d53efbca164736f6c6343000818000a",
  "linkReferences": {},
  "deployedLinkReferences": {}
}