{
  "_format": "hh-sol-artifact-1",
  "contractName": "LTOCustody",
  "sourceName": "contracts/marketplace/LTOCustody.sol",
  "abi": [
    {
      "inputs": [],
      "name": "InvalidBuyer",
      "type": "error"
    },
    {
      "inputs": [],
      "name": "InvalidLTOId",
      "type": "error"
    },
    {
      "inputs": [],
      "name": "InvalidRecipient",
      "type": "error"
    },
    {
      "inputs": [],
      "name": "InvalidSeller",
      "type": "error"
    },
    {
      "inputs": [],
      "name": "InvalidSignature",
      "type": "error"
    },
    {
      "inputs": [],
      "name": "LTOAlreadyInitiated",
      "type": "error"
    },
    {
      "inputs": [],
      "name": "LTONotInitiated",
      "type": "error"
    },
    {
      "inputs": [],
      "name": "OrderIsNotFulfilled",
      "type": "error"
    },
    {
      "inputs": [],
      "name": "TokenAlreadyInLTO",
      "type": "error"
    },
    {
      "inputs": [],
      "name": "Unauthorized",
      "type": "error"
    },
    {
      "anonymous": false,
      "inputs": [
        {
          "indexed": true,
          "internalType": "uint256",
          "name": "ltoId",
          "type": "uint256"
        },
        {
          "indexed": false,
          "internalType": "address",
          "name": "buyer",
          "type": "address"
        }
      ],
      "name": "AssetBuyerChanged",
      "type": "event"
    },
    {
      "anonymous": false,
      "inputs": [
        {
          "indexed": true,
          "internalType": "uint256",
          "name": "ltoId",
          "type": "uint256"
        },
        {
          "indexed": true,
          "internalType": "uint256",
          "name": "tokenId",
          "type": "uint256"
        },
        {
          "indexed": false,
          "internalType": "address",
          "name": "seller",
          "type": "address"
        },
        {
          "indexed": false,
          "internalType": "address",
          "name": "buyer",
          "type": "address"
        }
      ],
      "name": "AssetDeposited",
      "type": "event"
    },
    {
      "anonymous": false,
      "inputs": [
        {
          "indexed": true,
          "internalType": "uint256",
          "name": "ltoId",
          "type": "uint256"
        },
        {
          "indexed": true,
          "internalType": "uint256",
          "name": "tokenId",
          "type": "uint256"
        },
        {
          "indexed": false,
          "internalType": "address",
          "name": "to",
          "type": "address"
        }
      ],
      "name": "AssetReleased",
      "type": "event"
    },
    {
      "anonymous": false,
      "inputs": [
        {
          "indexed": true,
          "internalType": "uint256",
          "name": "ltoId",
          "type": "uint256"
        },
        {
          "indexed": false,
          "internalType": "address",
          "name": "seller",
          "type": "address"
        }
      ],
      "name": "AssetSellerChanged",
      "type": "event"
    },
    {
      "anonymous": false,
      "inputs": [
        {
          "indexed": true,
          "internalType": "address",
          "name": "account",
          "type": "address"
        }
      ],
      "name": "CustodyAdminAdded",
      "type": "event"
    },
    {
      "anonymous": false,
      "inputs": [
        {
          "indexed": true,
          "internalType": "address",
          "name": "account",
          "type": "address"
        }
      ],
      "name": "CustodyAdminRemoved",
      "type": "event"
    },
    {
      "anonymous": false,
      "inputs": [
        {
          "indexed": false,
          "internalType": "uint8",
          "name": "version",
          "type": "uint8"
        }
      ],
      "name": "Initialized",
      "type": "event"
    },
    {
      "anonymous": false,
      "inputs": [
        {
          "indexed": true,
          "internalType": "address",
          "name": "previousOwner",
          "type": "address"
        },
        {
          "indexed": true,
          "internalType": "address",
          "name": "newOwner",
          "type": "address"
        }
      ],
      "name": "OwnershipTransferred",
      "type": "event"
    },
    {
      "anonymous": false,
      "inputs": [
        {
          "indexed": false,
          "internalType": "address",
          "name": "account",
          "type": "address"
        }
      ],
      "name": "Paused",
      "type": "event"
    },
    {
      "anonymous": false,
      "inputs": [
        {
          "indexed": true,
          "internalType": "bytes32",
          "name": "role",
          "type": "bytes32"
        },
        {
          "indexed": true,
          "internalType": "bytes32",
          "name": "previousAdminRole",
          "type": "bytes32"
        },
        {
          "indexed": true,
          "internalType": "bytes32",
          "name": "newAdminRole",
          "type": "bytes32"
        }
      ],
      "name": "RoleAdminChanged",
      "type": "event"
    },
    {
      "anonymous": false,
      "inputs": [
        {
          "indexed": true,
          "internalType": "bytes32",
          "name": "role",
          "type": "bytes32"
        },
        {
          "indexed": true,
          "internalType": "address",
          "name": "account",
          "type": "address"
        },
        {
          "indexed": true,
          "internalType": "address",
          "name": "sender",
          "type": "address"
        }
      ],
      "name": "RoleGranted",
      "type": "event"
    },
    {
      "anonymous": false,
      "inputs": [
        {
          "indexed": true,
          "internalType": "bytes32",
          "name": "role",
          "type": "bytes32"
        },
        {
          "indexed": true,
          "internalType": "address",
          "name": "account",
          "type": "address"
        },
        {
          "indexed": true,
          "internalType": "address",
          "name": "sender",
          "type": "address"
        }
      ],
      "name": "RoleRevoked",
      "type": "event"
    },
    {
      "anonymous": false,
      "inputs": [
        {
          "indexed": false,
          "internalType": "address",
          "name": "account",
          "type": "address"
        }
      ],
      "name": "Unpaused",
      "type": "event"
    },
    {
      "inputs": [],
      "name": "CUSTODY_ADMIN_ROLE",
      "outputs": [
        {
          "internalType": "bytes32",
          "name": "",
          "type": "bytes32"
        }
      ],
      "stateMutability": "view",
      "type": "function"
    },
    {
      "inputs": [],
      "name": "DEFAULT_ADMIN_ROLE",
      "outputs": [
        {
          "internalType": "bytes32",
          "name": "",
          "type": "bytes32"
        }
      ],
      "stateMutability": "view",
      "type": "function"
    },
    {
      "inputs": [
        {
          "internalType": "address",
          "name": "account",
          "type": "address"
        }
      ],
      "name": "addAdmin",
      "outputs": [],
      "stateMutability": "nonpayable",
      "type": "function"
    },
    {
      "inputs": [
        {
          "internalType": "address",
          "name": "account",
          "type": "address"
        }
      ],
      "name": "addCustodyAdmin",
      "outputs": [],
      "stateMutability": "nonpayable",
      "type": "function"
    },
    {
      "inputs": [
        {
          "internalType": "uint256",
          "name": "ltoId",
          "type": "uint256"
        }
      ],
      "name": "cancel",
      "outputs": [],
      "stateMutability": "nonpayable",
      "type": "function"
    },
    {
      "inputs": [
        {
          "internalType": "uint256",
          "name": "ltoId",
          "type": "uint256"
        }
      ],
      "name": "complete",
      "outputs": [],
      "stateMutability": "nonpayable",
      "type": "function"
    },
    {
      "inputs": [
        {
          "components": [
            {
              "internalType": "address",
              "name": "from",
              "type": "address"
            },
            {
              "internalType": "uint256",
              "name": "nonce",
              "type": "uint256"
            },
            {
              "internalType": "uint256",
              "name": "tokenId",
              "type": "uint256"
            },
            {
              "internalType": "bytes",
              "name": "data",
              "type": "bytes"
            }
          ],
          "internalType": "struct IForwarder.ForwardRequest",
          "name": "req",
          "type": "tuple"
        },
        {
          "internalType": "bytes",
          "name": "signature",
          "type": "bytes"
        }
      ],
      "name": "execute",
      "outputs": [
        {
          "internalType": "bytes",
          "name": "",
          "type": "bytes"
        }
      ],
      "stateMutability": "nonpayable",
      "type": "function"
    },
    {
      "inputs": [
        {
          "internalType": "uint256",
          "name": "ltoId",
          "type": "uint256"
        }
      ],
      "name": "getLTOData",
      "outputs": [
        {
          "internalType": "address",
          "name": "seller",
          "type": "address"
        },
        {
          "internalType": "address",
          "name": "buyer",
          "type": "address"
        },
        {
          "internalType": "uint256",
          "name": "tokenId",
          "type": "uint256"
        },
        {
          "internalType": "bool",
          "name": "isFinalized",
          "type": "bool"
        }
      ],
      "stateMutability": "view",
      "type": "function"
    },
    {
      "inputs": [
        {
          "internalType": "bytes32",
          "name": "role",
          "type": "bytes32"
        }
      ],
      "name": "getRoleAdmin",
      "outputs": [
        {
          "internalType": "bytes32",
          "name": "",
          "type": "bytes32"
        }
      ],
      "stateMutability": "view",
      "type": "function"
    },
    {
      "inputs": [
        {
          "internalType": "uint256",
          "name": "tokenId",
          "type": "uint256"
        }
      ],
      "name": "getTokenLTO",
      "outputs": [
        {
          "internalType": "uint256",
          "name": "ltoId",
          "type": "uint256"
        }
      ],
      "stateMutability": "view",
      "type": "function"
    },
    {
      "inputs": [
        {
          "internalType": "bytes32",
          "name": "role",
          "type": "bytes32"
        },
        {
          "internalType": "address",
          "name": "account",
          "type": "address"
        }
      ],
      "name": "grantRole",
      "outputs": [],
      "stateMutability": "nonpayable",
      "type": "function"
    },
    {
      "inputs": [
        {
          "internalType": "bytes32",
          "name": "role",
          "type": "bytes32"
        },
        {
          "internalType": "address",
          "name": "account",
          "type": "address"
        }
      ],
      "name": "hasRole",
      "outputs": [
        {
          "internalType": "bool",
          "name": "",
          "type": "bool"
        }
      ],
      "stateMutability": "view",
      "type": "function"
    },
    {
      "inputs": [
        {
          "internalType": "contract IUNSRegistry",
          "name": "_registry",
          "type": "address"
        },
        {
          "internalType": "contract SeaportProxyBuyer",
          "name": "_seaportProxyBuyer",
          "type": "address"
        }
      ],
      "name": "initialize",
      "outputs": [],
      "stateMutability": "nonpayable",
      "type": "function"
    },
    {
      "inputs": [
        {
          "internalType": "uint256",
          "name": "ltoId",
          "type": "uint256"
        },
        {
          "internalType": "address",
          "name": "seller",
          "type": "address"
        },
        {
          "internalType": "address",
          "name": "buyer",
          "type": "address"
        },
        {
          "internalType": "uint256",
          "name": "tokenId",
          "type": "uint256"
        }
      ],
      "name": "initiateLTO",
      "outputs": [],
      "stateMutability": "nonpayable",
      "type": "function"
    },
    {
      "inputs": [
        {
          "internalType": "uint256",
          "name": "ltoId",
          "type": "uint256"
        },
        {
          "components": [
            {
              "components": [
                {
                  "internalType": "address",
                  "name": "offerer",
                  "type": "address"
                },
                {
                  "internalType": "address",
                  "name": "zone",
                  "type": "address"
                },
                {
                  "components": [
                    {
                      "internalType": "enum ItemType",
                      "name": "itemType",
                      "type": "uint8"
                    },
                    {
                      "internalType": "address",
                      "name": "token",
                      "type": "address"
                    },
                    {
                      "internalType": "uint256",
                      "name": "identifierOrCriteria",
                      "type": "uint256"
                    },
                    {
                      "internalType": "uint256",
                      "name": "startAmount",
                      "type": "uint256"
                    },
                    {
                      "internalType": "uint256",
                      "name": "endAmount",
                      "type": "uint256"
                    }
                  ],
                  "internalType": "struct OfferItem[]",
                  "name": "offer",
                  "type": "tuple[]"
                },
                {
                  "components": [
                    {
                      "internalType": "enum ItemType",
                      "name": "itemType",
                      "type": "uint8"
                    },
                    {
                      "internalType": "address",
                      "name": "token",
                      "type": "address"
                    },
                    {
                      "internalType": "uint256",
                      "name": "identifierOrCriteria",
                      "type": "uint256"
                    },
                    {
                      "internalType": "uint256",
                      "name": "startAmount",
                      "type": "uint256"
                    },
                    {
                      "internalType": "uint256",
                      "name": "endAmount",
                      "type": "uint256"
                    },
                    {
                      "internalType": "address payable",
                      "name": "recipient",
                      "type": "address"
                    }
                  ],
                  "internalType": "struct ConsiderationItem[]",
                  "name": "consideration",
                  "type": "tuple[]"
                },
                {
                  "internalType": "enum OrderType",
                  "name": "orderType",
                  "type": "uint8"
                },
                {
                  "internalType": "uint256",
                  "name": "startTime",
                  "type": "uint256"
                },
                {
                  "internalType": "uint256",
                  "name": "endTime",
                  "type": "uint256"
                },
                {
                  "internalType": "bytes32",
                  "name": "zoneHash",
                  "type": "bytes32"
                },
                {
                  "internalType": "uint256",
                  "name": "salt",
                  "type": "uint256"
                },
                {
                  "internalType": "bytes32",
                  "name": "conduitKey",
                  "type": "bytes32"
                },
                {
                  "internalType": "uint256",
                  "name": "totalOriginalConsiderationItems",
                  "type": "uint256"
                }
              ],
              "internalType": "struct OrderParameters",
              "name": "parameters",
              "type": "tuple"
            },
            {
              "internalType": "uint120",
              "name": "numerator",
              "type": "uint120"
            },
            {
              "internalType": "uint120",
              "name": "denominator",
              "type": "uint120"
            },
            {
              "internalType": "bytes",
              "name": "signature",
              "type": "bytes"
            },
            {
              "internalType": "bytes",
              "name": "extraData",
              "type": "bytes"
            }
          ],
          "internalType": "struct AdvancedOrder",
          "name": "advancedOrder",
          "type": "tuple"
        },
        {
          "components": [
            {
              "internalType": "uint256",
              "name": "orderIndex",
              "type": "uint256"
            },
            {
              "internalType": "enum Side",
              "name": "side",
              "type": "uint8"
            },
            {
              "internalType": "uint256",
              "name": "index",
              "type": "uint256"
            },
            {
              "internalType": "uint256",
              "name": "identifier",
              "type": "uint256"
            },
            {
              "internalType": "bytes32[]",
              "name": "criteriaProof",
              "type": "bytes32[]"
            }
          ],
          "internalType": "struct CriteriaResolver[]",
          "name": "criteriaResolvers",
          "type": "tuple[]"
        },
        {
          "internalType": "bytes32",
          "name": "fulfillerConduitKey",
          "type": "bytes32"
        },
        {
          "internalType": "address",
          "name": "recipient",
          "type": "address"
        }
      ],
      "name": "initiateLTOFromOrder",
      "outputs": [],
      "stateMutability": "nonpayable",
      "type": "function"
    },
    {
      "inputs": [
        {
          "internalType": "address",
          "name": "account",
          "type": "address"
        }
      ],
      "name": "isAdmin",
      "outputs": [
        {
          "internalType": "bool",
          "name": "",
          "type": "bool"
        }
      ],
      "stateMutability": "view",
      "type": "function"
    },
    {
      "inputs": [
        {
          "internalType": "address",
          "name": "account",
          "type": "address"
        }
      ],
      "name": "isCustodyAdmin",
      "outputs": [
        {
          "internalType": "bool",
          "name": "",
          "type": "bool"
        }
      ],
      "stateMutability": "view",
      "type": "function"
    },
    {
      "inputs": [
        {
          "internalType": "uint256",
          "name": "ltoId",
          "type": "uint256"
        }
      ],
      "name": "isLTOInitiated",
      "outputs": [
        {
          "internalType": "bool",
          "name": "",
          "type": "bool"
        }
      ],
      "stateMutability": "view",
      "type": "function"
    },
    {
      "inputs": [
        {
          "internalType": "uint256",
          "name": "",
          "type": "uint256"
        }
      ],
      "name": "ltoAssets",
      "outputs": [
        {
          "internalType": "address",
          "name": "seller",
          "type": "address"
        },
        {
          "internalType": "address",
          "name": "buyer",
          "type": "address"
        },
        {
          "internalType": "uint256",
          "name": "tokenId",
          "type": "uint256"
        },
        {
          "internalType": "bool",
          "name": "isFinalized",
          "type": "bool"
        }
      ],
      "stateMutability": "view",
      "type": "function"
    },
    {
      "inputs": [
        {
          "internalType": "uint256",
          "name": "tokenId",
          "type": "uint256"
        }
      ],
      "name": "nonceOf",
      "outputs": [
        {
          "internalType": "uint256",
          "name": "",
          "type": "uint256"
        }
      ],
      "stateMutability": "view",
      "type": "function"
    },
    {
      "inputs": [],
      "name": "owner",
      "outputs": [
        {
          "internalType": "address",
          "name": "",
          "type": "address"
        }
      ],
      "stateMutability": "view",
      "type": "function"
    },
    {
      "inputs": [],
      "name": "paused",
      "outputs": [
        {
          "internalType": "bool",
          "name": "",
          "type": "bool"
        }
      ],
      "stateMutability": "view",
      "type": "function"
    },
    {
      "inputs": [],
      "name": "registry",
      "outputs": [
        {
          "internalType": "contract IUNSRegistry",
          "name": "",
          "type": "address"
        }
      ],
      "stateMutability": "view",
      "type": "function"
    },
    {
      "inputs": [
        {
          "internalType": "uint256",
          "name": "ltoId",
          "type": "uint256"
        },
        {
          "internalType": "address",
          "name": "to",
          "type": "address"
        }
      ],
      "name": "releaseAsset",
      "outputs": [],
      "stateMutability": "nonpayable",
      "type": "function"
    },
    {
      "inputs": [
        {
          "internalType": "address",
          "name": "account",
          "type": "address"
        }
      ],
      "name": "removeAdmin",
      "outputs": [],
      "stateMutability": "nonpayable",
      "type": "function"
    },
    {
      "inputs": [
        {
          "internalType": "address",
          "name": "account",
          "type": "address"
        }
      ],
      "name": "removeCustodyAdmin",
      "outputs": [],
      "stateMutability": "nonpayable",
      "type": "function"
    },
    {
      "inputs": [],
      "name": "renounceAdmin",
      "outputs": [],
      "stateMutability": "nonpayable",
      "type": "function"
    },
    {
      "inputs": [],
      "name": "renounceOwnership",
      "outputs": [],
      "stateMutability": "nonpayable",
      "type": "function"
    },
    {
      "inputs": [
        {
          "internalType": "bytes32",
          "name": "role",
          "type": "bytes32"
        },
        {
          "internalType": "address",
          "name": "account",
          "type": "address"
        }
      ],
      "name": "renounceRole",
      "outputs": [],
      "stateMutability": "nonpayable",
      "type": "function"
    },
    {
      "inputs": [
        {
          "internalType": "bytes32",
          "name": "role",
          "type": "bytes32"
        },
        {
          "internalType": "address",
          "name": "account",
          "type": "address"
        }
      ],
      "name": "revokeRole",
      "outputs": [],
      "stateMutability": "nonpayable",
      "type": "function"
    },
    {
      "inputs": [
        {
          "internalType": "address",
          "name": "newAdmin",
          "type": "address"
        }
      ],
      "name": "rotateAdmin",
      "outputs": [],
      "stateMutability": "nonpayable",
      "type": "function"
    },
    {
      "inputs": [],
      "name": "seaportProxyBuyer",
      "outputs": [
        {
          "internalType": "contract SeaportProxyBuyer",
          "name": "",
          "type": "address"
        }
      ],
      "stateMutability": "view",
      "type": "function"
    },
    {
      "inputs": [
        {
          "internalType": "uint256",
          "name": "ltoId",
          "type": "uint256"
        },
        {
          "internalType": "string[]",
          "name": "keys",
          "type": "string[]"
        },
        {
          "internalType": "string[]",
          "name": "values",
          "type": "string[]"
        }
      ],
      "name": "setMany",
      "outputs": [],
      "stateMutability": "nonpayable",
      "type": "function"
    },
    {
      "inputs": [
        {
          "internalType": "bytes4",
          "name": "interfaceId",
          "type": "bytes4"
        }
      ],
      "name": "supportsInterface",
      "outputs": [
        {
          "internalType": "bool",
          "name": "",
          "type": "bool"
        }
      ],
      "stateMutability": "view",
      "type": "function"
    },
    {
      "inputs": [
        {
          "internalType": "uint256",
          "name": "",
          "type": "uint256"
        }
      ],
      "name": "tokenLTOs",
      "outputs": [
        {
          "internalType": "uint256",
          "name": "",
          "type": "uint256"
        }
      ],
      "stateMutability": "view",
      "type": "function"
    },
    {
      "inputs": [
        {
          "internalType": "uint256",
          "name": "ltoId",
          "type": "uint256"
        },
        {
          "internalType": "address",
          "name": "buyer",
          "type": "address"
        }
      ],
      "name": "transferBuyer",
      "outputs": [],
      "stateMutability": "nonpayable",
      "type": "function"
    },
    {
      "inputs": [
        {
          "internalType": "address",
          "name": "newOwner",
          "type": "address"
        }
      ],
      "name": "transferOwnership",
      "outputs": [],
      "stateMutability": "nonpayable",
      "type": "function"
    },
    {
      "inputs": [
        {
          "internalType": "uint256",
          "name": "ltoId",
          "type": "uint256"
        },
        {
          "internalType": "address",
          "name": "seller",
          "type": "address"
        }
      ],
      "name": "transferSeller",
      "outputs": [],
      "stateMutability": "nonpayable",
      "type": "function"
    },
    {
      "inputs": [
        {
          "components": [
            {
              "internalType": "address",
              "name": "from",
              "type": "address"
            },
            {
              "internalType": "uint256",
              "name": "nonce",
              "type": "uint256"
            },
            {
              "internalType": "uint256",
              "name": "tokenId",
              "type": "uint256"
            },
            {
              "internalType": "bytes",
              "name": "data",
              "type": "bytes"
            }
          ],
          "internalType": "struct IForwarder.ForwardRequest",
          "name": "req",
          "type": "tuple"
        },
        {
          "internalType": "bytes",
          "name": "signature",
          "type": "bytes"
        }
      ],
      "name": "verify",
      "outputs": [
        {
          "internalType": "bool",
          "name": "",
          "type": "bool"
        }
      ],
      "stateMutability": "view",
      "type": "function"
    }
  ],
  "bytecode": "0x608060405234801561000f575f80fd5b50612cf38061001d5f395ff3fe608060405234801561000f575f80fd5b5060043610610234575f3560e01c80637048027511610135578063a4247400116100b4578063d547741f11610079578063d547741f1461055b578063ec01fdca1461056e578063f2fde38b1461058e578063f5383497146105a1578063f5a7406a146105b4575f80fd5b8063a4247400146104fb578063b6240e5b1461050e578063c642c9c914610521578063ca73f88914610534578063cd42426014610547575f80fd5b806391d14854116100fa57806391d1485414610449578063971d852f1461045c578063980a67481461046f5780639efd1b13146104e1578063a217fddf146104f4575f80fd5b80637048027514610401578063715018a6146104145780637b1039991461041c5780638bad0c0a146104305780638da5cb5b14610438575f80fd5b80632ccec6a0116101c15780634f724db0116101865780634f724db01461039c57806354f22238146103bc5780635c975abb146103cf57806367ce591f146103db5780636ccbae5f146103ee575f80fd5b80632ccec6a01461033d5780632f2ff15d1461035057806336568abe1461036357806340e58ee514610376578063485cc95514610389575f80fd5b80631785f53c116102075780631785f53c146102b45780631bf7e13e146102c7578063248a9ca3146102e757806324d7806c146103175780632b5816951461032a575f80fd5b806301ffc9a7146102385780630ea6d2f3146102605780630f1201cc1461028c57806311156dfc1461029f575b5f80fd5b61024b610246366004611fb4565b61061f565b60405190151581526020015b60405180910390f35b61016054610274906001600160a01b031681565b6040516001600160a01b039091168152602001610257565b61024b61029a366004611fdb565b610655565b6102b26102ad366004612032565b61068a565b005b6102b26102c23660046120c9565b610797565b6102da6102d53660046120e4565b6107ac565b60405161025791906121c6565b6103096102f5366004611fdb565b5f9081526097602052604090206001015490565b604051908152602001610257565b61024b6103253660046120c9565b610875565b6102b26103383660046121d8565b610880565b6102b261034b3660046120c9565b6109e9565b6102b261035e36600461221d565b610a05565b6102b261037136600461221d565b610a2e565b6102b2610384366004611fdb565b610ab1565b6102b261039736600461224b565b610b01565b6103096103aa366004611fdb565b6101626020525f908152604090205481565b6102b26103ca366004612277565b610c57565b61012d5460ff1661024b565b6102b26103e93660046120c9565b610e58565b6103096103fc366004611fdb565b610eac565b6102b261040f3660046120c9565b610f05565b6102b2610f17565b61015f54610274906001600160a01b031681565b6102b2610f2a565b6033546001600160a01b0316610274565b61024b61045736600461221d565b610f34565b6102b261046a366004611fdb565b610f5e565b6104b461047d366004611fdb565b6101616020525f908152604090208054600182015460028301546003909301546001600160a01b0392831693919092169160ff1684565b604080516001600160a01b0395861681529490931660208501529183015215156060820152608001610257565b6102b26104ef36600461221d565b610fb1565b6103095f81565b61024b6105093660046120e4565b611093565b61024b61051c3660046120c9565b6110e4565b6102b261052f36600461221d565b6110fc565b6102b261054236600461221d565b6112b5565b6103095f80516020612cc783398151915281565b6102b261056936600461221d565b61138c565b61030961057c366004611fdb565b5f908152610162602052604090205490565b6102b261059c3660046120c9565b6113b0565b6102b26105af3660046120c9565b611426565b6104b46105c2366004611fdb565b5f9081526101616020908152604091829020825160808101845281546001600160a01b039081168083526001840154909116938201849052600283015494820185905260039092015460ff16151560609091018190529093919291565b5f6001600160e01b03198216637965db0b60e01b148061064f57506301ffc9a760e01b6001600160e01b03198316145b92915050565b5f81815261016160205260408120600201541580159061064f5750505f908152610161602052604090206003015460ff161590565b8461069481610655565b6106b157604051633f030d6d60e01b815260040160405180910390fd5b5f81815261016160205260409020600101546001600160a01b031633146106ea576040516282b42960e81b815260040160405180910390fd5b6106f261147b565b6106fb86610655565b61071857604051633f030d6d60e01b815260040160405180910390fd5b61015f545f878152610161602052604090819020600201549051636749599f60e11b81526001600160a01b039092169163ce92b33e916107629189918991899189916004016123cf565b5f604051808303815f87803b158015610779575f80fd5b505af115801561078b573d5f803e3d5ffd5b50505050505050505050565b61079f6114c2565b6107a95f8261138c565b50565b60605f5a90506107bd858585611093565b6107da57604051638baa579f60e01b815260040160405180910390fd5b61086a6107ea60208701876120c9565b306040880135846107fe60608b018b612408565b8080601f0160208091040260200160405190810160405280939291908181526020018383808284375f9201919091525050604080516020601f8e018190048102820181019092528c815292508c91508b90819084018382808284375f9201919091525061151c92505050565b9150505b9392505050565b5f61064f8183610f34565b610889336110e4565b6108a5576040516282b42960e81b815260040160405180910390fd5b6108ad61147b565b6108b9848484846115fa565b61015f546040516331a9108f60e11b81526004810183905230916001600160a01b031690636352211e90602401602060405180830381865afa158015610901573d5f803e3d5ffd5b505050506040513d601f19601f82011682018060405250810190610925919061244a565b6001600160a01b03161461099c5761015f546040516323b872dd60e01b81526001600160a01b03858116600483015230602483015260448201849052909116906323b872dd906064015f604051808303815f87803b158015610985575f80fd5b505af1158015610997573d5f803e3d5ffd5b505050505b604080516001600160a01b03808616825284166020820152829186917fd33e100d324477d0c48d17ab70e096443fc9dd28775952e65f3806b7253467d1910160405180910390a350505050565b6109f16114c2565b6109fb5f8261174e565b6107a95f33610a2e565b5f82815260976020526040902060010154610a1f81611758565b610a298383611762565b505050565b6001600160a01b0381163314610aa35760405162461bcd60e51b815260206004820152602f60248201527f416363657373436f6e74726f6c3a2063616e206f6e6c792072656e6f756e636560448201526e103937b632b9903337b91039b2b63360891b60648201526084015b60405180910390fd5b610aad82826117e7565b5050565b610aba336110e4565b610ad6576040516282b42960e81b815260040160405180910390fd5b610ade61147b565b5f81815261016160205260409020546107a99082906001600160a01b03166110fc565b5f54610100900460ff1615808015610b1f57505f54600160ff909116105b80610b385750303b158015610b3857505f5460ff166001145b610b9b5760405162461bcd60e51b815260206004820152602e60248201527f496e697469616c697a61626c653a20636f6e747261637420697320616c72656160448201526d191e481a5b9a5d1a585b1a5e995960921b6064820152608401610a9a565b5f805460ff191660011790558015610bbc575f805461ff0019166101001790555b610bc461184d565b610bcc611873565b610bd46118a2565b610bdc6118d2565b61015f80546001600160a01b038086166001600160a01b0319928316179092556101608054928516929091169190911790558015610a29575f805461ff0019169055604051600181527f7f26b83ff96e1f2b6a682f133852f6798a09c465da95921460cefb38474024989060200160405180910390a1505050565b610c60336110e4565b610c7c576040516282b42960e81b815260040160405180910390fd5b5f610c878680612465565b610c959060208101906120c9565b9050815f610ca38880612465565b610cb1906040810190612484565b5f818110610cc157610cc16124c8565b905060a00201604001359050610cd9898484846115fa565b610160546040516339eb2ac960e21b81525f916001600160a01b03169063e7acab2490610d12908c908c908c908c9030906004016127e6565b6020604051808303815f875af1158015610d2e573d5f803e3d5ffd5b505050506040513d601f19601f82011682018060405250810190610d5291906129bc565b905080610d725760405163098904ef60e41b815260040160405180910390fd5b61015f546040516331a9108f60e11b81526004810184905230916001600160a01b031690636352211e90602401602060405180830381865afa158015610dba573d5f803e3d5ffd5b505050506040513d601f19601f82011682018060405250810190610dde919061244a565b6001600160a01b031614610e055760405163098904ef60e41b815260040160405180910390fd5b604080516001600160a01b0380871682528516602082015283918c917fd33e100d324477d0c48d17ab70e096443fc9dd28775952e65f3806b7253467d1910160405180910390a350505050505050505050565b610e606114c2565b610e775f80516020612cc78339815191528261174e565b6040516001600160a01b038216907eabe768b82800e7d5614169467c9ce6a18df23b00ea0c3536791f7c6ff5c0d0905f90a250565b604080517f1ee5d87a048b728f67073f282321992c260e5be4fa651d08665c5b4ee7a8381560208201529081018290525f90610efe906060016040516020818303038152906040528051906020012090565b5492915050565b610f0d6114c2565b6107a95f8261174e565b610f1f6114c2565b610f285f6118ff565b565b610f285f33610a2e565b5f9182526097602090815260408084206001600160a01b0393909316845291905290205460ff1690565b610f67336110e4565b610f83576040516282b42960e81b815260040160405180910390fd5b610f8b61147b565b5f81815261016160205260409020600101546107a99082906001600160a01b03166110fc565b610fba336110e4565b610fd6576040516282b42960e81b815260040160405180910390fd5b610fde61147b565b610fe782610655565b61100457604051633f030d6d60e01b815260040160405180910390fd5b6001600160a01b03811661102b576040516358ef870360e11b815260040160405180910390fd5b5f828152610161602090815260409182902060010180546001600160a01b0319166001600160a01b038516908117909155915191825283917ff92b34d7c01f8cf2b457fb33321c0392c514bf4b1f5edc9f78bfcedd16d4915e91015b60405180910390a25050565b5f6110dc6110a085612a47565b3085858080601f0160208091040260200160405190810160405280939291908181526020018383808284375f9201919091525061195092505050565b949350505050565b5f61064f5f80516020612cc783398151915283610f34565b611105336110e4565b611121576040516282b42960e81b815260040160405180910390fd5b600260fb54036111735760405162461bcd60e51b815260206004820152601f60248201527f5265656e7472616e637947756172643a207265656e7472616e742063616c6c006044820152606401610a9a565b600260fb5561118061147b565b61118982610655565b6111a657604051633f030d6d60e01b815260040160405180910390fd5b6001600160a01b0381166111cd57604051634e46966960e11b815260040160405180910390fd5b5f82815261016160205260409081902060038101805460ff1916600117905561015f5460029091015491516323b872dd60e01b81523060048201526001600160a01b03848116602483015260448201939093529116906323b872dd906064015f604051808303815f87803b158015611243575f80fd5b505af1158015611255573d5f803e3d5ffd5b5050505f83815261016160209081526040918290206002015491516001600160a01b038516815291925084917f71f3f9a8aef7f77c5f9ddfd8c83f383ffa885f16dc7ab97046f9f70f4a4959e4910160405180910390a35050600160fb55565b6112be336110e4565b6112da576040516282b42960e81b815260040160405180910390fd5b6112e261147b565b6112eb82610655565b61130857604051633f030d6d60e01b815260040160405180910390fd5b6001600160a01b03811661132f5760405163bab7ca3560e01b815260040160405180910390fd5b5f828152610161602090815260409182902080546001600160a01b0319166001600160a01b038516908117909155915191825283917fe3ece063b84a0e16e6080f268ec65ce9c2af3f48ad754f332a34c1eec29dcd939101611087565b5f828152609760205260409020600101546113a681611758565b610a2983836117e7565b6113b86114c2565b6001600160a01b03811661141d5760405162461bcd60e51b815260206004820152602660248201527f4f776e61626c653a206e6577206f776e657220697320746865207a65726f206160448201526564647265737360d01b6064820152608401610a9a565b6107a9816118ff565b61142e6114c2565b6114455f80516020612cc78339815191528261138c565b6040516001600160a01b038216907f7ec703108af80ed3dd35e047e5ca6c6d465aa7adab3855dfdb91686333ed584a905f90a250565b61012d5460ff1615610f285760405162461bcd60e51b815260206004820152601060248201526f14185d5cd8589b194e881c185d5cd95960821b6044820152606401610a9a565b6033546001600160a01b03163314610f285760405162461bcd60e51b815260206004820181905260248201527f4f776e61626c653a2063616c6c6572206973206e6f7420746865206f776e65726044820152606401610a9a565b606061152785611a8b565b5f80876001600160a01b0316866115408b8a8989611af0565b60405161154d9190612b03565b5f604051808303815f8787f1925050503d805f8114611587576040519150601f19603f3d011682016040523d82523d5f602084013e61158c565b606091505b50909250905061159d603f87612b28565b5a116115ab576115ab612b47565b6115eb82826040518060400160405280601a81526020017f42617365466f727761726465723a2043414c4c5f4641494c4544000000000000815250611b20565b925050505b9695505050505050565b6001600160a01b0383166116215760405163bab7ca3560e01b815260040160405180910390fd5b6001600160a01b038216611648576040516358ef870360e11b815260040160405180910390fd5b835f0361166857604051635f2508e160e01b815260040160405180910390fd5b61167184610655565b1561168f5760405163154781ad60e01b815260040160405180910390fd5b5f8181526101626020526040902054156116bc57604051634517741560e01b815260040160405180910390fd5b604080516080810182526001600160a01b03948516815292841660208085019182528483018481525f606087018181528982526101618452858220975188546001600160a01b0319908116918b16919091178955945160018901805490961699169890981790935551600286015594516003909401805460ff1916941515949094179093559082526101629092522055565b610aad8282611762565b6107a98133611b59565b61176c8282610f34565b610aad575f8281526097602090815260408083206001600160a01b03851684529091529020805460ff191660011790556117a33390565b6001600160a01b0316816001600160a01b0316837f2f8788117e7eff1d82e926ec794901d17c78024a50270940304540a733656f0d60405160405180910390a45050565b6117f18282610f34565b15610aad575f8281526097602090815260408083206001600160a01b0385168085529252808320805460ff1916905551339285917ff6391f5c32d9c69d2a47ea670b442974b53935d1edc7fd64eb21e047a839171b9190a45050565b5f54610100900460ff16610f285760405162461bcd60e51b8152600401610a9a90612b5b565b5f54610100900460ff166118995760405162461bcd60e51b8152600401610a9a90612b5b565b610f28336118ff565b5f54610100900460ff166118c85760405162461bcd60e51b8152600401610a9a90612b5b565b610f285f3361174e565b5f54610100900460ff166118f85760405162461bcd60e51b8152600401610a9a90612b5b565b600160fb55565b603380546001600160a01b038381166001600160a01b0319831681179093556040519116919082907f8be0079c531659141344cd1fd0a4f28419497f9722a3daafe3b4186f6b6457e0905f90a35050565b6040838101519051636ccbae5f60e01b815260048101919091525f9081903090636ccbae5f90602401602060405180830381865afa158015611994573d5f803e3d5ffd5b505050506040513d601f19601f820116820180604052508101906119b89190612ba6565b90505f611a65866060015180519060200120868860200151604051602001611a059392919092835260609190911b6bffffffffffffffffffffffff19166020830152603482015260540190565b60408051601f1981840301815282825280516020918201207f19457468657265756d205369676e6564204d6573736167653a0a33320000000084830152603c8085019190915282518085039091018152605c909301909152815191012090565b90508186602001511480156115f0575085516115f0906001600160a01b03168286611bbd565b604080517f1ee5d87a048b728f67073f282321992c260e5be4fa651d08665c5b4ee7a8381560208201529081018290525f90606001604051602081830303815290604052805190602001209050611adf8190565b54611aeb906001612bbd565b905550565b6060828585604051602001611b0793929190612bd0565b6040516020818303038152906040529050949350505050565b60608315611b2f57508161086e565b825115611b3f5782518084602001fd5b8160405162461bcd60e51b8152600401610a9a91906121c6565b611b638282610f34565b610aad57611b7b816001600160a01b03166014611cf8565b611b86836020611cf8565b604051602001611b97929190612c0e565b60408051601f198184030181529082905262461bcd60e51b8252610a9a916004016121c6565b5f805f611bca8585611e8d565b90925090505f816004811115611be257611be261252e565b148015611c005750856001600160a01b0316826001600160a01b0316145b15611c105760019250505061086e565b5f80876001600160a01b0316631626ba7e60e01b8888604051602401611c37929190612c82565b60408051601f198184030181529181526020820180516001600160e01b03166001600160e01b0319909416939093179092529051611c759190612b03565b5f60405180830381855afa9150503d805f8114611cad576040519150601f19603f3d011682016040523d82523d5f602084013e611cb2565b606091505b5091509150818015611cc5575080516020145b8015611cec57508051630b135d3f60e11b90611cea9083016020908101908401612ba6565b145b98975050505050505050565b60605f611d06836002612c9a565b611d11906002612bbd565b6001600160401b03811115611d2857611d286129db565b6040519080825280601f01601f191660200182016040528015611d52576020820181803683370190505b509050600360fc1b815f81518110611d6c57611d6c6124c8565b60200101906001600160f81b03191690815f1a905350600f60fb1b81600181518110611d9a57611d9a6124c8565b60200101906001600160f81b03191690815f1a9053505f611dbc846002612c9a565b611dc7906001612bbd565b90505b6001811115611e3e576f181899199a1a9b1b9c1cb0b131b232b360811b85600f1660108110611dfb57611dfb6124c8565b1a60f81b828281518110611e1157611e116124c8565b60200101906001600160f81b03191690815f1a90535060049490941c93611e3781612cb1565b9050611dca565b50831561086e5760405162461bcd60e51b815260206004820181905260248201527f537472696e67733a20686578206c656e67746820696e73756666696369656e746044820152606401610a9a565b5f808251604103611ec1576020830151604084015160608501515f1a611eb587828585611ecf565b94509450505050611ec8565b505f905060025b9250929050565b5f807f7fffffffffffffffffffffffffffffff5d576e7357a4501ddfe92f46681b20a0831115611f0457505f90506003611fab565b8460ff16601b14158015611f1c57508460ff16601c14155b15611f2c57505f90506004611fab565b604080515f8082526020820180845289905260ff881692820192909252606081018690526080810185905260019060a0016020604051602081039080840390855afa158015611f7d573d5f803e3d5ffd5b5050604051601f1901519150506001600160a01b038116611fa5575f60019250925050611fab565b91505f90505b94509492505050565b5f60208284031215611fc4575f80fd5b81356001600160e01b03198116811461086e575f80fd5b5f60208284031215611feb575f80fd5b5035919050565b5f8083601f840112612002575f80fd5b5081356001600160401b03811115612018575f80fd5b6020830191508360208260051b8501011115611ec8575f80fd5b5f805f805f60608688031215612046575f80fd5b8535945060208601356001600160401b0380821115612063575f80fd5b61206f89838a01611ff2565b90965094506040880135915080821115612087575f80fd5b5061209488828901611ff2565b969995985093965092949392505050565b6001600160a01b03811681146107a9575f80fd5b80356120c4816120a5565b919050565b5f602082840312156120d9575f80fd5b813561086e816120a5565b5f805f604084860312156120f6575f80fd5b83356001600160401b038082111561210c575f80fd5b908501906080828803121561211f575f80fd5b90935060208501359080821115612134575f80fd5b818601915086601f830112612147575f80fd5b813581811115612155575f80fd5b876020828501011115612166575f80fd5b6020830194508093505050509250925092565b5f5b8381101561219357818101518382015260200161217b565b50505f910152565b5f81518084526121b2816020860160208601612179565b601f01601f19169290920160200192915050565b602081525f61086e602083018461219b565b5f805f80608085870312156121eb575f80fd5b8435935060208501356121fd816120a5565b9250604085013561220d816120a5565b9396929550929360600135925050565b5f806040838503121561222e575f80fd5b823591506020830135612240816120a5565b809150509250929050565b5f806040838503121561225c575f80fd5b8235612267816120a5565b91506020830135612240816120a5565b5f805f805f8060a0878903121561228c575f80fd5b8635955060208701356001600160401b03808211156122a9575f80fd5b9088019060a0828b0312156122bc575f80fd5b909550604088013590808211156122d1575f80fd5b506122de89828a01611ff2565b9095509350506060870135915060808701356122f9816120a5565b809150509295509295509295565b81835281816020850137505f828201602090810191909152601f909101601f19169091010190565b5f808335601e19843603018112612344575f80fd5b83016020810192503590506001600160401b03811115612362575f80fd5b803603821315611ec8575f80fd5b5f838385526020808601955060208560051b830101845f5b878110156123c257848303601f190189526123a3828861232f565b6123ae858284612307565b9a86019a9450505090830190600101612388565b5090979650505050505050565b606081525f6123e2606083018789612370565b82810360208401526123f5818688612370565b9150508260408301529695505050505050565b5f808335601e1984360301811261241d575f80fd5b8301803591506001600160401b03821115612436575f80fd5b602001915036819003821315611ec8575f80fd5b5f6020828403121561245a575f80fd5b815161086e816120a5565b5f823561015e1983360301811261247a575f80fd5b9190910192915050565b5f808335601e19843603018112612499575f80fd5b8301803591506001600160401b038211156124b2575f80fd5b602001915060a081023603821315611ec8575f80fd5b634e487b7160e01b5f52603260045260245ffd5b5f808335601e198436030181126124f1575f80fd5b83016020810192503590506001600160401b0381111561250f575f80fd5b60a081023603821315611ec8575f80fd5b8035600681106120c4575f80fd5b634e487b7160e01b5f52602160045260245ffd5b600681106125525761255261252e565b9052565b8183525f60208085019450825f5b858110156125c85761257e8761257984612520565b612542565b8282013561258b816120a5565b6001600160a01b03168388015260408281013590880152606080830135908801526080808301359088015260a09687019690910190600101612564565b509495945050505050565b5f808335601e198436030181126125e8575f80fd5b83016020810192503590506001600160401b03811115612606575f80fd5b60c081023603821315611ec8575f80fd5b8183525f60208085019450825f5b858110156125c85761263a8761257984612520565b82820135612647816120a5565b6001600160a01b039081168885015260408381013590890152606080840135908901526080808401359089015260a09083820135612684816120a5565b169088015260c0968701969190910190600101612625565b8035600581106120c4575f80fd5b600581106125525761255261252e565b80356001600160781b03811681146120c4575f80fd5b8183525f6001600160fb1b038311156126e7575f80fd5b8260051b80836020870137939093016020019392505050565b8183526020808401935f91600585811b8301820185855b888110156127d857858303601f19018a52813536899003609e1901811261273c575f80fd5b88018035845260a08682013560028110612754575f80fd5b85880152604082810135908601526060808301359086015260808083013536849003601e19018112612784575f80fd5b9092018781019290356001600160401b038111156127a0575f80fd5b80881b36038413156127b0575f80fd5b82828801526127c283880182866126d0565b9d89019d96505050928601925050600101612717565b509098975050505050505050565b608081525f610120873561015e19893603018112612802575f80fd5b60a06080850152880161282782850161281a836120b9565b6001600160a01b03169052565b612833602082016120b9565b61014061284a818701836001600160a01b03169052565b61285760408401846124dc565b61016088810152925061286f61028088018483612556565b92505061287f60608401846125d3565b87840361011f1901610180890152612898848284612617565b935050506128a86080840161269c565b6128b66101a08801826126aa565b5060a08301356101c087015260c08301356101e087015260e083013561020087015261010080840135610220880152848401356102408801528184013561026088015261290560208d016126ba565b6001600160781b03811660a0890152945061292260408d016126ba565b6001600160781b03811660c0890152945061294060608d018d61232f565b95509350607f199150818784030160e088015261295e838686612307565b945061296d60808d018d61232f565b945092508187860301818801525050612987838383612307565b92505050828103602084015261299e818789612700565b9150508360408301526115f060608301846001600160a01b03169052565b5f602082840312156129cc575f80fd5b8151801515811461086e575f80fd5b634e487b7160e01b5f52604160045260245ffd5b604051608081016001600160401b0381118282101715612a1157612a116129db565b60405290565b604051601f8201601f191681016001600160401b0381118282101715612a3f57612a3f6129db565b604052919050565b5f60808236031215612a57575f80fd5b612a5f6129ef565b8235612a6a816120a5565b8152602083810135818301526040808501359083015260608401356001600160401b0380821115612a99575f80fd5b9085019036601f830112612aab575f80fd5b813581811115612abd57612abd6129db565b612acf601f8201601f19168501612a17565b91508082523684828501011115612ae4575f80fd5b80848401858401375f9082019093019290925250606082015292915050565b5f825161247a818460208701612179565b634e487b7160e01b5f52601160045260245ffd5b5f82612b4257634e487b7160e01b5f52601260045260245ffd5b500490565b634e487b7160e01b5f52600160045260245ffd5b6020808252602b908201527f496e697469616c697a61626c653a20636f6e7472616374206973206e6f74206960408201526a6e697469616c697a696e6760a81b606082015260800190565b5f60208284031215612bb6575f80fd5b5051919050565b8082018082111561064f5761064f612b14565b5f8451612be1818460208901612179565b60609490941b6bffffffffffffffffffffffff191691909301908152601481019190915260340192915050565b7f416363657373436f6e74726f6c3a206163636f756e742000000000000000000081525f8351612c45816017850160208801612179565b7001034b99036b4b9b9b4b733903937b6329607d1b6017918401918201528351612c76816028840160208801612179565b01602801949350505050565b828152604060208201525f6110dc604083018461219b565b808202811582820484141761064f5761064f612b14565b5f81612cbf57612cbf612b14565b505f19019056fee42a2a81871991b348b461cd4ff9825352fd011597c5280ce35326126d53efbca164736f6c6343000818000a",
  "linkReferences": {},
  "deployedLinkReferences": {}
}