{
  "_format": "hh-sol-artifact-1",
  "contractName": "LTOCustody",
  "sourceName": "contracts/marketplace/LTOCustody.sol",
  "abi": [
    {
      "inputs": [],
      "name": "InvalidBuyer",
      "type": "error"
    },
    {
      "inputs": [],
      "name": "InvalidLTOId",
      "type": "error"
    },
    {
      "inputs": [],
      "name": "InvalidOrder",
      "type": "error"
    },
    {
      "inputs": [],
      "name": "InvalidRecipient",
      "type": "error"
    },
    {
      "inputs": [],
      "name": "InvalidSeller",
      "type": "error"
    },
    {
      "inputs": [],
      "name": "InvalidSignature",
      "type": "error"
    },
    {
      "inputs": [],
      "name": "LTOAlreadyInitiated",
      "type": "error"
    },
    {
      "inputs": [],
      "name": "LTONotInitiated",
      "type": "error"
    },
    {
      "inputs": [],
      "name": "OrderIsNotFulfilled",
      "type": "error"
    },
    {
      "inputs": [],
      "name": "TokenAlreadyInLTO",
      "type": "error"
    },
    {
      "inputs": [],
      "name": "Unauthorized",
      "type": "error"
    },
    {
      "anonymous": false,
      "inputs": [
        {
          "indexed": true,
          "internalType": "uint256",
          "name": "ltoId",
          "type": "uint256"
        },
        {
          "indexed": false,
          "internalType": "address",
          "name": "buyer",
          "type": "address"
        }
      ],
      "name": "AssetBuyerChanged",
      "type": "event"
    },
    {
      "anonymous": false,
      "inputs": [
        {
          "indexed": true,
          "internalType": "uint256",
          "name": "ltoId",
          "type": "uint256"
        },
        {
          "indexed": true,
          "internalType": "uint256",
          "name": "tokenId",
          "type": "uint256"
        },
        {
          "indexed": false,
          "internalType": "address",
          "name": "seller",
          "type": "address"
        },
        {
          "indexed": false,
          "internalType": "address",
          "name": "buyer",
          "type": "address"
        }
      ],
      "name": "AssetDeposited",
      "type": "event"
    },
    {
      "anonymous": false,
      "inputs": [
        {
          "indexed": true,
          "internalType": "uint256",
          "name": "ltoId",
          "type": "uint256"
        },
        {
          "indexed": true,
          "internalType": "uint256",
          "name": "tokenId",
          "type": "uint256"
        },
        {
          "indexed": false,
          "internalType": "address",
          "name": "to",
          "type": "address"
        }
      ],
      "name": "AssetReleased",
      "type": "event"
    },
    {
      "anonymous": false,
      "inputs": [
        {
          "indexed": true,
          "internalType": "uint256",
          "name": "ltoId",
          "type": "uint256"
        },
        {
          "indexed": false,
          "internalType": "address",
          "name": "seller",
          "type": "address"
        }
      ],
      "name": "AssetSellerChanged",
      "type": "event"
    },
    {
      "anonymous": false,
      "inputs": [
        {
          "indexed": true,
          "internalType": "address",
          "name": "account",
          "type": "address"
        }
      ],
      "name": "CustodyAdminAdded",
      "type": "event"
    },
    {
      "anonymous": false,
      "inputs": [
        {
          "indexed": true,
          "internalType": "address",
          "name": "account",
          "type": "address"
        }
      ],
      "name": "CustodyAdminRemoved",
      "type": "event"
    },
    {
      "anonymous": false,
      "inputs": [
        {
          "indexed": false,
          "internalType": "uint8",
          "name": "version",
          "type": "uint8"
        }
      ],
      "name": "Initialized",
      "type": "event"
    },
    {
      "anonymous": false,
      "inputs": [
        {
          "indexed": true,
          "internalType": "address",
          "name": "previousOwner",
          "type": "address"
        },
        {
          "indexed": true,
          "internalType": "address",
          "name": "newOwner",
          "type": "address"
        }
      ],
      "name": "OwnershipTransferred",
      "type": "event"
    },
    {
      "anonymous": false,
      "inputs": [
        {
          "indexed": false,
          "internalType": "address",
          "name": "account",
          "type": "address"
        }
      ],
      "name": "Paused",
      "type": "event"
    },
    {
      "anonymous": false,
      "inputs": [
        {
          "indexed": true,
          "internalType": "bytes32",
          "name": "role",
          "type": "bytes32"
        },
        {
          "indexed": true,
          "internalType": "bytes32",
          "name": "previousAdminRole",
          "type": "bytes32"
        },
        {
          "indexed": true,
          "internalType": "bytes32",
          "name": "newAdminRole",
          "type": "bytes32"
        }
      ],
      "name": "RoleAdminChanged",
      "type": "event"
    },
    {
      "anonymous": false,
      "inputs": [
        {
          "indexed": true,
          "internalType": "bytes32",
          "name": "role",
          "type": "bytes32"
        },
        {
          "indexed": true,
          "internalType": "address",
          "name": "account",
          "type": "address"
        },
        {
          "indexed": true,
          "internalType": "address",
          "name": "sender",
          "type": "address"
        }
      ],
      "name": "RoleGranted",
      "type": "event"
    },
    {
      "anonymous": false,
      "inputs": [
        {
          "indexed": true,
          "internalType": "bytes32",
          "name": "role",
          "type": "bytes32"
        },
        {
          "indexed": true,
          "internalType": "address",
          "name": "account",
          "type": "address"
        },
        {
          "indexed": true,
          "internalType": "address",
          "name": "sender",
          "type": "address"
        }
      ],
      "name": "RoleRevoked",
      "type": "event"
    },
    {
      "anonymous": false,
      "inputs": [
        {
          "indexed": false,
          "internalType": "address",
          "name": "account",
          "type": "address"
        }
      ],
      "name": "Unpaused",
      "type": "event"
    },
    {
      "inputs": [],
      "name": "CUSTODY_ADMIN_ROLE",
      "outputs": [
        {
          "internalType": "bytes32",
          "name": "",
          "type": "bytes32"
        }
      ],
      "stateMutability": "view",
      "type": "function"
    },
    {
      "inputs": [],
      "name": "DEFAULT_ADMIN_ROLE",
      "outputs": [
        {
          "internalType": "bytes32",
          "name": "",
          "type": "bytes32"
        }
      ],
      "stateMutability": "view",
      "type": "function"
    },
    {
      "inputs": [
        {
          "internalType": "address",
          "name": "account",
          "type": "address"
        }
      ],
      "name": "addAdmin",
      "outputs": [],
      "stateMutability": "nonpayable",
      "type": "function"
    },
    {
      "inputs": [
        {
          "internalType": "address",
          "name": "account",
          "type": "address"
        }
      ],
      "name": "addCustodyAdmin",
      "outputs": [],
      "stateMutability": "nonpayable",
      "type": "function"
    },
    {
      "inputs": [
        {
          "internalType": "uint256",
          "name": "ltoId",
          "type": "uint256"
        }
      ],
      "name": "cancel",
      "outputs": [],
      "stateMutability": "nonpayable",
      "type": "function"
    },
    {
      "inputs": [
        {
          "internalType": "uint256",
          "name": "ltoId",
          "type": "uint256"
        }
      ],
      "name": "complete",
      "outputs": [],
      "stateMutability": "nonpayable",
      "type": "function"
    },
    {
      "inputs": [
        {
          "components": [
            {
              "internalType": "address",
              "name": "from",
              "type": "address"
            },
            {
              "internalType": "uint256",
              "name": "nonce",
              "type": "uint256"
            },
            {
              "internalType": "uint256",
              "name": "tokenId",
              "type": "uint256"
            },
            {
              "internalType": "bytes",
              "name": "data",
              "type": "bytes"
            }
          ],
          "internalType": "struct IForwarder.ForwardRequest",
          "name": "req",
          "type": "tuple"
        },
        {
          "internalType": "bytes",
          "name": "signature",
          "type": "bytes"
        }
      ],
      "name": "execute",
      "outputs": [
        {
          "internalType": "bytes",
          "name": "",
          "type": "bytes"
        }
      ],
      "stateMutability": "nonpayable",
      "type": "function"
    },
    {
      "inputs": [
        {
          "internalType": "uint256",
          "name": "ltoId",
          "type": "uint256"
        }
      ],
      "name": "getLTOData",
      "outputs": [
        {
          "internalType": "address",
          "name": "seller",
          "type": "address"
        },
        {
          "internalType": "address",
          "name": "buyer",
          "type": "address"
        },
        {
          "internalType": "uint256",
          "name": "tokenId",
          "type": "uint256"
        },
        {
          "internalType": "bool",
          "name": "isFinalized",
          "type": "bool"
        }
      ],
      "stateMutability": "view",
      "type": "function"
    },
    {
      "inputs": [
        {
          "internalType": "bytes32",
          "name": "role",
          "type": "bytes32"
        }
      ],
      "name": "getRoleAdmin",
      "outputs": [
        {
          "internalType": "bytes32",
          "name": "",
          "type": "bytes32"
        }
      ],
      "stateMutability": "view",
      "type": "function"
    },
    {
      "inputs": [
        {
          "internalType": "uint256",
          "name": "tokenId",
          "type": "uint256"
        }
      ],
      "name": "getTokenLTO",
      "outputs": [
        {
          "internalType": "uint256",
          "name": "ltoId",
          "type": "uint256"
        }
      ],
      "stateMutability": "view",
      "type": "function"
    },
    {
      "inputs": [
        {
          "internalType": "bytes32",
          "name": "role",
          "type": "bytes32"
        },
        {
          "internalType": "address",
          "name": "account",
          "type": "address"
        }
      ],
      "name": "grantRole",
      "outputs": [],
      "stateMutability": "nonpayable",
      "type": "function"
    },
    {
      "inputs": [
        {
          "internalType": "bytes32",
          "name": "role",
          "type": "bytes32"
        },
        {
          "internalType": "address",
          "name": "account",
          "type": "address"
        }
      ],
      "name": "hasRole",
      "outputs": [
        {
          "internalType": "bool",
          "name": "",
          "type": "bool"
        }
      ],
      "stateMutability": "view",
      "type": "function"
    },
    {
      "inputs": [
        {
          "internalType": "contract IUNSRegistry",
          "name": "_registry",
          "type": "address"
        },
        {
          "internalType": "contract SeaportProxyBuyer",
          "name": "_seaportProxyBuyer",
          "type": "address"
        }
      ],
      "name": "initialize",
      "outputs": [],
      "stateMutability": "nonpayable",
      "type": "function"
    },
    {
      "inputs": [
        {
          "internalType": "uint256",
          "name": "ltoId",
          "type": "uint256"
        },
        {
          "internalType": "address",
          "name": "seller",
          "type": "address"
        },
        {
          "internalType": "address",
          "name": "buyer",
          "type": "address"
        },
        {
          "internalType": "uint256",
          "name": "tokenId",
          "type": "uint256"
        }
      ],
      "name": "initiateLTO",
      "outputs": [],
      "stateMutability": "nonpayable",
      "type": "function"
    },
    {
      "inputs": [
        {
          "internalType": "uint256",
          "name": "ltoId",
          "type": "uint256"
        },
        {
          "components": [
            {
              "components": [
                {
                  "internalType": "address",
                  "name": "offerer",
                  "type": "address"
                },
                {
                  "internalType": "address",
                  "name": "zone",
                  "type": "address"
                },
                {
                  "components": [
                    {
                      "internalType": "enum ItemType",
                      "name": "itemType",
                      "type": "uint8"
                    },
                    {
                      "internalType": "address",
                      "name": "token",
                      "type": "address"
                    },
                    {
                      "internalType": "uint256",
                      "name": "identifierOrCriteria",
                      "type": "uint256"
                    },
                    {
                      "internalType": "uint256",
                      "name": "startAmount",
                      "type": "uint256"
                    },
                    {
                      "internalType": "uint256",
                      "name": "endAmount",
                      "type": "uint256"
                    }
                  ],
                  "internalType": "struct OfferItem[]",
                  "name": "offer",
                  "type": "tuple[]"
                },
                {
                  "components": [
                    {
                      "internalType": "enum ItemType",
                      "name": "itemType",
                      "type": "uint8"
                    },
                    {
                      "internalType": "address",
                      "name": "token",
                      "type": "address"
                    },
                    {
                      "internalType": "uint256",
                      "name": "identifierOrCriteria",
                      "type": "uint256"
                    },
                    {
                      "internalType": "uint256",
                      "name": "startAmount",
                      "type": "uint256"
                    },
                    {
                      "internalType": "uint256",
                      "name": "endAmount",
                      "type": "uint256"
                    },
                    {
                      "internalType": "address payable",
                      "name": "recipient",
                      "type": "address"
                    }
                  ],
                  "internalType": "struct ConsiderationItem[]",
                  "name": "consideration",
                  "type": "tuple[]"
                },
                {
                  "internalType": "enum OrderType",
                  "name": "orderType",
                  "type": "uint8"
                },
                {
                  "internalType": "uint256",
                  "name": "startTime",
                  "type": "uint256"
                },
                {
                  "internalType": "uint256",
                  "name": "endTime",
                  "type": "uint256"
                },
                {
                  "internalType": "bytes32",
                  "name": "zoneHash",
                  "type": "bytes32"
                },
                {
                  "internalType": "uint256",
                  "name": "salt",
                  "type": "uint256"
                },
                {
                  "internalType": "bytes32",
                  "name": "conduitKey",
                  "type": "bytes32"
                },
                {
                  "internalType": "uint256",
                  "name": "totalOriginalConsiderationItems",
                  "type": "uint256"
                }
              ],
              "internalType": "struct OrderParameters",
              "name": "parameters",
              "type": "tuple"
            },
            {
              "internalType": "uint120",
              "name": "numerator",
              "type": "uint120"
            },
            {
              "internalType": "uint120",
              "name": "denominator",
              "type": "uint120"
            },
            {
              "internalType": "bytes",
              "name": "signature",
              "type": "bytes"
            },
            {
              "internalType": "bytes",
              "name": "extraData",
              "type": "bytes"
            }
          ],
          "internalType": "struct AdvancedOrder",
          "name": "advancedOrder",
          "type": "tuple"
        },
        {
          "components": [
            {
              "internalType": "uint256",
              "name": "orderIndex",
              "type": "uint256"
            },
            {
              "internalType": "enum Side",
              "name": "side",
              "type": "uint8"
            },
            {
              "internalType": "uint256",
              "name": "index",
              "type": "uint256"
            },
            {
              "internalType": "uint256",
              "name": "identifier",
              "type": "uint256"
            },
            {
              "internalType": "bytes32[]",
              "name": "criteriaProof",
              "type": "bytes32[]"
            }
          ],
          "internalType": "struct CriteriaResolver[]",
          "name": "criteriaResolvers",
          "type": "tuple[]"
        },
        {
          "internalType": "bytes32",
          "name": "fulfillerConduitKey",
          "type": "bytes32"
        },
        {
          "internalType": "address",
          "name": "recipient",
          "type": "address"
        }
      ],
      "name": "initiateLTOFromOrder",
      "outputs": [],
      "stateMutability": "nonpayable",
      "type": "function"
    },
    {
      "inputs": [
        {
          "internalType": "address",
          "name": "account",
          "type": "address"
        }
      ],
      "name": "isAdmin",
      "outputs": [
        {
          "internalType": "bool",
          "name": "",
          "type": "bool"
        }
      ],
      "stateMutability": "view",
      "type": "function"
    },
    {
      "inputs": [
        {
          "internalType": "address",
          "name": "account",
          "type": "address"
        }
      ],
      "name": "isCustodyAdmin",
      "outputs": [
        {
          "internalType": "bool",
          "name": "",
          "type": "bool"
        }
      ],
      "stateMutability": "view",
      "type": "function"
    },
    {
      "inputs": [
        {
          "internalType": "uint256",
          "name": "ltoId",
          "type": "uint256"
        }
      ],
      "name": "isLTOInitiated",
      "outputs": [
        {
          "internalType": "bool",
          "name": "",
          "type": "bool"
        }
      ],
      "stateMutability": "view",
      "type": "function"
    },
    {
      "inputs": [
        {
          "internalType": "address",
          "name": "forwarder",
          "type": "address"
        }
      ],
      "name": "isTrustedForwarder",
      "outputs": [
        {
          "internalType": "bool",
          "name": "",
          "type": "bool"
        }
      ],
      "stateMutability": "view",
      "type": "function"
    },
    {
      "inputs": [
        {
          "internalType": "uint256",
          "name": "",
          "type": "uint256"
        }
      ],
      "name": "ltoAssets",
      "outputs": [
        {
          "internalType": "address",
          "name": "seller",
          "type": "address"
        },
        {
          "internalType": "address",
          "name": "buyer",
          "type": "address"
        },
        {
          "internalType": "uint256",
          "name": "tokenId",
          "type": "uint256"
        },
        {
          "internalType": "bool",
          "name": "isFinalized",
          "type": "bool"
        }
      ],
      "stateMutability": "view",
      "type": "function"
    },
    {
      "inputs": [
        {
          "internalType": "uint256",
          "name": "tokenId",
          "type": "uint256"
        }
      ],
      "name": "nonceOf",
      "outputs": [
        {
          "internalType": "uint256",
          "name": "",
          "type": "uint256"
        }
      ],
      "stateMutability": "view",
      "type": "function"
    },
    {
      "inputs": [],
      "name": "owner",
      "outputs": [
        {
          "internalType": "address",
          "name": "",
          "type": "address"
        }
      ],
      "stateMutability": "view",
      "type": "function"
    },
    {
      "inputs": [],
      "name": "pause",
      "outputs": [],
      "stateMutability": "nonpayable",
      "type": "function"
    },
    {
      "inputs": [],
      "name": "paused",
      "outputs": [
        {
          "internalType": "bool",
          "name": "",
          "type": "bool"
        }
      ],
      "stateMutability": "view",
      "type": "function"
    },
    {
      "inputs": [],
      "name": "registry",
      "outputs": [
        {
          "internalType": "contract IUNSRegistry",
          "name": "",
          "type": "address"
        }
      ],
      "stateMutability": "view",
      "type": "function"
    },
    {
      "inputs": [
        {
          "internalType": "uint256",
          "name": "ltoId",
          "type": "uint256"
        },
        {
          "internalType": "address",
          "name": "to",
          "type": "address"
        }
      ],
      "name": "releaseAsset",
      "outputs": [],
      "stateMutability": "nonpayable",
      "type": "function"
    },
    {
      "inputs": [
        {
          "internalType": "address",
          "name": "account",
          "type": "address"
        }
      ],
      "name": "removeAdmin",
      "outputs": [],
      "stateMutability": "nonpayable",
      "type": "function"
    },
    {
      "inputs": [
        {
          "internalType": "address",
          "name": "account",
          "type": "address"
        }
      ],
      "name": "removeCustodyAdmin",
      "outputs": [],
      "stateMutability": "nonpayable",
      "type": "function"
    },
    {
      "inputs": [],
      "name": "renounceAdmin",
      "outputs": [],
      "stateMutability": "nonpayable",
      "type": "function"
    },
    {
      "inputs": [],
      "name": "renounceOwnership",
      "outputs": [],
      "stateMutability": "nonpayable",
      "type": "function"
    },
    {
      "inputs": [
        {
          "internalType": "bytes32",
          "name": "role",
          "type": "bytes32"
        },
        {
          "internalType": "address",
          "name": "account",
          "type": "address"
        }
      ],
      "name": "renounceRole",
      "outputs": [],
      "stateMutability": "nonpayable",
      "type": "function"
    },
    {
      "inputs": [
        {
          "internalType": "bytes32",
          "name": "role",
          "type": "bytes32"
        },
        {
          "internalType": "address",
          "name": "account",
          "type": "address"
        }
      ],
      "name": "revokeRole",
      "outputs": [],
      "stateMutability": "nonpayable",
      "type": "function"
    },
    {
      "inputs": [
        {
          "internalType": "address",
          "name": "newAdmin",
          "type": "address"
        }
      ],
      "name": "rotateAdmin",
      "outputs": [],
      "stateMutability": "nonpayable",
      "type": "function"
    },
    {
      "inputs": [],
      "name": "seaportProxyBuyer",
      "outputs": [
        {
          "internalType": "contract SeaportProxyBuyer",
          "name": "",
          "type": "address"
        }
      ],
      "stateMutability": "view",
      "type": "function"
    },
    {
      "inputs": [
        {
          "internalType": "uint256",
          "name": "ltoId",
          "type": "uint256"
        },
        {
          "internalType": "string[]",
          "name": "keys",
          "type": "string[]"
        },
        {
          "internalType": "string[]",
          "name": "values",
          "type": "string[]"
        }
      ],
      "name": "setMany",
      "outputs": [],
      "stateMutability": "nonpayable",
      "type": "function"
    },
    {
      "inputs": [
        {
          "internalType": "bytes4",
          "name": "interfaceId",
          "type": "bytes4"
        }
      ],
      "name": "supportsInterface",
      "outputs": [
        {
          "internalType": "bool",
          "name": "",
          "type": "bool"
        }
      ],
      "stateMutability": "view",
      "type": "function"
    },
    {
      "inputs": [
        {
          "internalType": "uint256",
          "name": "",
          "type": "uint256"
        }
      ],
      "name": "tokenLTOs",
      "outputs": [
        {
          "internalType": "uint256",
          "name": "",
          "type": "uint256"
        }
      ],
      "stateMutability": "view",
      "type": "function"
    },
    {
      "inputs": [
        {
          "internalType": "uint256",
          "name": "ltoId",
          "type": "uint256"
        },
        {
          "internalType": "address",
          "name": "buyer",
          "type": "address"
        }
      ],
      "name": "transferBuyer",
      "outputs": [],
      "stateMutability": "nonpayable",
      "type": "function"
    },
    {
      "inputs": [
        {
          "internalType": "address",
          "name": "newOwner",
          "type": "address"
        }
      ],
      "name": "transferOwnership",
      "outputs": [],
      "stateMutability": "nonpayable",
      "type": "function"
    },
    {
      "inputs": [
        {
          "internalType": "uint256",
          "name": "ltoId",
          "type": "uint256"
        },
        {
          "internalType": "address",
          "name": "seller",
          "type": "address"
        }
      ],
      "name": "transferSeller",
      "outputs": [],
      "stateMutability": "nonpayable",
      "type": "function"
    },
    {
      "inputs": [],
      "name": "unpause",
      "outputs": [],
      "stateMutability": "nonpayable",
      "type": "function"
    },
    {
      "inputs": [
        {
          "components": [
            {
              "internalType": "address",
              "name": "from",
              "type": "address"
            },
            {
              "internalType": "uint256",
              "name": "nonce",
              "type": "uint256"
            },
            {
              "internalType": "uint256",
              "name": "tokenId",
              "type": "uint256"
            },
            {
              "internalType": "bytes",
              "name": "data",
              "type": "bytes"
            }
          ],
          "internalType": "struct IForwarder.ForwardRequest",
          "name": "req",
          "type": "tuple"
        },
        {
          "internalType": "bytes",
          "name": "signature",
          "type": "bytes"
        }
      ],
      "name": "verify",
      "outputs": [
        {
          "internalType": "bool",
          "name": "",
          "type": "bool"
        }
      ],
      "stateMutability": "view",
      "type": "function"
    }
  ],
  "bytecode": "0x608060405234801561000f575f80fd5b5061312d8061001d5f395ff3fe608060405234801561000f575f80fd5b5060043610610255575f3560e01c80637048027511610140578063a217fddf116100bf578063cd42426011610084578063cd42426014610594578063d547741f146105a8578063ec01fdca146105bb578063f2fde38b146105db578063f5383497146105ee578063f5a7406a14610601575f80fd5b8063a217fddf14610541578063a424740014610548578063b6240e5b1461055b578063c642c9c91461056e578063ca73f88914610581575f80fd5b80638da5cb5b116101055780638da5cb5b1461048557806391d1485414610496578063971d852f146104a9578063980a6748146104bc5780639efd1b131461052e575f80fd5b80637048027514610446578063715018a6146104595780637b103999146104615780638456cb59146104755780638bad0c0a1461047d575f80fd5b80632f2ff15d116101d75780634f724db01161019c5780634f724db0146103c657806354f22238146103e6578063572b6c05146103f95780635c975abb1461041557806367ce591f146104205780636ccbae5f14610433575f80fd5b80632f2ff15d1461037257806336568abe146103855780633f4ba83a1461039857806340e58ee5146103a0578063485cc955146103b3575f80fd5b80631bf7e13e1161021d5780631bf7e13e146102e8578063248a9ca31461030857806324d7806c146103395780632b5816951461034c5780632ccec6a01461035f575f80fd5b806301ffc9a7146102595780630ea6d2f3146102815780630f1201cc146102ad57806311156dfc146102c05780631785f53c146102d5575b5f80fd5b61026c61026736600461235a565b61066c565b60405190151581526020015b60405180910390f35b61019254610295906001600160a01b031681565b6040516001600160a01b039091168152602001610278565b61026c6102bb366004612381565b6106a2565b6102d36102ce3660046123d8565b6106d7565b005b6102d36102e336600461246f565b6107c9565b6102fb6102f636600461248a565b6107de565b604051610278919061256c565b61032b610316366004612381565b5f90815261012d602052604090206001015490565b604051908152602001610278565b61026c61034736600461246f565b6108a7565b6102d361035a36600461257e565b6108b2565b6102d361036d36600461246f565b610a52565b6102d36103803660046125c3565b610a70565b6102d36103933660046125c3565b610a9a565b6102d3610b28565b6102d36103ae366004612381565b610b3a565b6102d36103c13660046125f1565b610b8c565b61032b6103d4366004612381565b6101946020525f908152604090205481565b6102d36103f436600461261d565b610cfa565b61026c61040736600461246f565b6001600160a01b0316301490565b60975460ff1661026c565b6102d361042e36600461246f565b610ed8565b61032b610441366004612381565b610f2c565b6102d361045436600461246f565b610f85565b6102d3610f97565b61019154610295906001600160a01b031681565b6102d3610fa8565b6102d3610fb8565b60c9546001600160a01b0316610295565b61026c6104a43660046125c3565b610fc4565b6102d36104b7366004612381565b610fef565b6105016104ca366004612381565b6101936020525f908152604090208054600182015460028301546003909301546001600160a01b0392831693919092169160ff1684565b604080516001600160a01b0395861681529490931660208501529183015215156060820152608001610278565b6102d361053c3660046125c3565b611044565b61032b5f81565b61026c61055636600461248a565b611128565b61026c61056936600461246f565b611179565b6102d361057c3660046125c3565b611191565b6102d361058f3660046125c3565b61131c565b61032b5f8051602061310183398151915281565b6102d36105b63660046125c3565b6113f5565b61032b6105c9366004612381565b5f908152610194602052604090205490565b6102d36105e936600461246f565b61141a565b6102d36105fc36600461246f565b611490565b61050161060f366004612381565b5f9081526101936020908152604091829020825160808101845281546001600160a01b039081168083526001840154909116938201849052600283015494820185905260039092015460ff16151560609091018190529093919291565b5f6001600160e01b03198216637965db0b60e01b148061069c57506301ffc9a760e01b6001600160e01b03198316145b92915050565b5f81815261019360205260408120600201541580159061069c5750505f908152610193602052604090206003015460ff161590565b846106e1816106a2565b6106fe57604051633f030d6d60e01b815260040160405180910390fd5b6107066114e5565b5f82815261019360205260409020600101546001600160a01b03908116911614610742576040516282b42960e81b815260040160405180910390fd5b61074a6114f3565b610191545f878152610193602052604090819020600201549051636749599f60e11b81526001600160a01b039092169163ce92b33e91610794918991899189918991600401612775565b5f604051808303815f87803b1580156107ab575f80fd5b505af11580156107bd573d5f803e3d5ffd5b50505050505050505050565b6107d1611539565b6107db5f826113f5565b50565b60605f5a90506107ef858585611128565b61080c57604051638baa579f60e01b815260040160405180910390fd5b61089c61081c602087018761246f565b3060408801358461083060608b018b6127ae565b8080601f0160208091040260200160405190810160405280939291908181526020018383808284375f9201919091525050604080516020601f8e018190048102820181019092528c815292508c91508b90819084018382808284375f920191909152506115b292505050565b9150505b9392505050565b5f61069c8183610fc4565b6002606554036108dd5760405162461bcd60e51b81526004016108d4906127f0565b60405180910390fd5b60026065556108ed6105696114e5565b610909576040516282b42960e81b815260040160405180910390fd5b6109116114f3565b61091d84848484611690565b610191546040516331a9108f60e11b81526004810183905230916001600160a01b031690636352211e90602401602060405180830381865afa158015610965573d5f803e3d5ffd5b505050506040513d601f19601f820116820180604052508101906109899190612827565b6001600160a01b031614610a0057610191546040516323b872dd60e01b81526001600160a01b03858116600483015230602483015260448201849052909116906323b872dd906064015f604051808303815f87803b1580156109e9575f80fd5b505af11580156109fb573d5f803e3d5ffd5b505050505b604080516001600160a01b03808616825284166020820152829186917fd33e100d324477d0c48d17ab70e096443fc9dd28775952e65f3806b7253467d1910160405180910390a3505060016065555050565b610a5a611539565b610a645f826117e4565b6107db5f6103936114e5565b5f82815261012d6020526040902060010154610a8b816117ee565b610a9583836117ff565b505050565b610aa26114e5565b6001600160a01b0316816001600160a01b031614610b1a5760405162461bcd60e51b815260206004820152602f60248201527f416363657373436f6e74726f6c3a2063616e206f6e6c792072656e6f756e636560448201526e103937b632b9903337b91039b2b63360891b60648201526084016108d4565b610b248282611886565b5050565b610b30611539565b610b3861190b565b565b610b456105696114e5565b610b61576040516282b42960e81b815260040160405180910390fd5b610b696114f3565b5f81815261019360205260409020546107db9082906001600160a01b0316611191565b5f54610100900460ff1615808015610baa57505f54600160ff909116105b80610bc35750303b158015610bc357505f5460ff166001145b610c265760405162461bcd60e51b815260206004820152602e60248201527f496e697469616c697a61626c653a20636f6e747261637420697320616c72656160448201526d191e481a5b9a5d1a585b1a5e995960921b60648201526084016108d4565b5f805460ff191660011790558015610c47575f805461ff0019166101001790555b610c4f611963565b610c57611989565b610c5f611963565b610c676119bf565b610c6f6119f6565b610c77611a23565b610c7f611963565b61019180546001600160a01b038086166001600160a01b0319928316179092556101928054928516929091169190911790558015610a95575f805461ff0019169055604051600181527f7f26b83ff96e1f2b6a682f133852f6798a09c465da95921460cefb38474024989060200160405180910390a1505050565b600260655403610d1c5760405162461bcd60e51b81526004016108d4906127f0565b6002606555610d2c6105696114e5565b610d48576040516282b42960e81b815260040160405180910390fd5b5f805f610d558885611a55565b925092509250610d6789848484611690565b610192546040516339eb2ac960e21b81525f916001600160a01b03169063e7acab2490610da0908c908c908c908c903090600401612b4c565b6020604051808303815f875af1158015610dbc573d5f803e3d5ffd5b505050506040513d601f19601f82011682018060405250810190610de09190612d22565b9050801580610e625750610191546040516331a9108f60e11b81526004810184905230916001600160a01b031690636352211e90602401602060405180830381865afa158015610e32573d5f803e3d5ffd5b505050506040513d601f19601f82011682018060405250810190610e569190612827565b6001600160a01b031614155b15610e805760405163098904ef60e41b815260040160405180910390fd5b604080516001600160a01b0380871682528516602082015283918c917fd33e100d324477d0c48d17ab70e096443fc9dd28775952e65f3806b7253467d1910160405180910390a3505060016065555050505050505050565b610ee0611539565b610ef75f80516020613101833981519152826117e4565b6040516001600160a01b038216907eabe768b82800e7d5614169467c9ce6a18df23b00ea0c3536791f7c6ff5c0d0905f90a250565b604080517f1ee5d87a048b728f67073f282321992c260e5be4fa651d08665c5b4ee7a8381560208201529081018290525f90610f7e906060016040516020818303038152906040528051906020012090565b5492915050565b610f8d611539565b6107db5f826117e4565b610f9f611539565b610b385f611c04565b610fb0611539565b610b38611c55565b610b385f6103936114e5565b5f91825261012d602090815260408084206001600160a01b0393909316845291905290205460ff1690565b610ffa6105696114e5565b611016576040516282b42960e81b815260040160405180910390fd5b61101e6114f3565b5f81815261019360205260409020600101546107db9082906001600160a01b0316611191565b61104f6105696114e5565b61106b576040516282b42960e81b815260040160405180910390fd5b6110736114f3565b61107c826106a2565b61109957604051633f030d6d60e01b815260040160405180910390fd5b6001600160a01b0381166110c0576040516358ef870360e11b815260040160405180910390fd5b5f828152610193602090815260409182902060010180546001600160a01b0319166001600160a01b038516908117909155915191825283917ff92b34d7c01f8cf2b457fb33321c0392c514bf4b1f5edc9f78bfcedd16d4915e91015b60405180910390a25050565b5f61117161113585612dad565b3085858080601f0160208091040260200160405190810160405280939291908181526020018383808284375f92019190915250611c9392505050565b949350505050565b5f61069c5f8051602061310183398151915283610fc4565b61119c6105696114e5565b6111b8576040516282b42960e81b815260040160405180910390fd5b6002606554036111da5760405162461bcd60e51b81526004016108d4906127f0565b60026065556111e76114f3565b6111f0826106a2565b61120d57604051633f030d6d60e01b815260040160405180910390fd5b6001600160a01b03811661123457604051634e46966960e11b815260040160405180910390fd5b5f8281526101936020908152604080832060038101805460ff1916600117905560020154808452610194909252808320929092556101915491516323b872dd60e01b81523060048201526001600160a01b03848116602483015260448201839052919291909116906323b872dd906064015f604051808303815f87803b1580156112bc575f80fd5b505af11580156112ce573d5f803e3d5ffd5b50506040516001600160a01b03851681528392508591507f71f3f9a8aef7f77c5f9ddfd8c83f383ffa885f16dc7ab97046f9f70f4a4959e49060200160405180910390a35050600160655550565b6113276105696114e5565b611343576040516282b42960e81b815260040160405180910390fd5b61134b6114f3565b611354826106a2565b61137157604051633f030d6d60e01b815260040160405180910390fd5b6001600160a01b0381166113985760405163bab7ca3560e01b815260040160405180910390fd5b5f828152610193602090815260409182902080546001600160a01b0319166001600160a01b038516908117909155915191825283917fe3ece063b84a0e16e6080f268ec65ce9c2af3f48ad754f332a34c1eec29dcd93910161111c565b5f82815261012d6020526040902060010154611410816117ee565b610a958383611886565b611422611539565b6001600160a01b0381166114875760405162461bcd60e51b815260206004820152602660248201527f4f776e61626c653a206e6577206f776e657220697320746865207a65726f206160448201526564647265737360d01b60648201526084016108d4565b6107db81611c04565b611498611539565b6114af5f80516020613101833981519152826113f5565b6040516001600160a01b038216907f7ec703108af80ed3dd35e047e5ca6c6d465aa7adab3855dfdb91686333ed584a905f90a250565b5f6114ee611dce565b905090565b60975460ff1615610b385760405162461bcd60e51b815260206004820152601060248201526f14185d5cd8589b194e881c185d5cd95960821b60448201526064016108d4565b6115416114e5565b6001600160a01b031661155c60c9546001600160a01b031690565b6001600160a01b031614610b385760405162461bcd60e51b815260206004820181905260248201527f4f776e61626c653a2063616c6c6572206973206e6f7420746865206f776e657260448201526064016108d4565b60606115bd85611de8565b5f80876001600160a01b0316866115d68b8a8989611e4d565b6040516115e39190612e69565b5f604051808303815f8787f1925050503d805f811461161d576040519150601f19603f3d011682016040523d82523d5f602084013e611622565b606091505b509092509050611633603f87612e98565b5a1161164157611641612eb7565b61168182826040518060400160405280601a81526020017f42617365466f727761726465723a2043414c4c5f4641494c4544000000000000815250611e7d565b925050505b9695505050505050565b6001600160a01b0383166116b75760405163bab7ca3560e01b815260040160405180910390fd5b6001600160a01b0382166116de576040516358ef870360e11b815260040160405180910390fd5b835f036116fe57604051635f2508e160e01b815260040160405180910390fd5b611707846106a2565b156117255760405163154781ad60e01b815260040160405180910390fd5b5f81815261019460205260409020541561175257604051634517741560e01b815260040160405180910390fd5b604080516080810182526001600160a01b03948516815292841660208085019182528483018481525f606087018181528982526101938452858220975188546001600160a01b0319908116918b16919091178955945160018901805490961699169890981790935551600286015594516003909401805460ff1916941515949094179093559082526101949092522055565b610b2482826117ff565b6107db816117fa6114e5565b611eb6565b6118098282610fc4565b610b24575f82815261012d602090815260408083206001600160a01b03851684529091529020805460ff191660011790556118426114e5565b6001600160a01b0316816001600160a01b0316837f2f8788117e7eff1d82e926ec794901d17c78024a50270940304540a733656f0d60405160405180910390a45050565b6118908282610fc4565b15610b24575f82815261012d602090815260408083206001600160a01b03851684529091529020805460ff191690556118c76114e5565b6001600160a01b0316816001600160a01b0316837ff6391f5c32d9c69d2a47ea670b442974b53935d1edc7fd64eb21e047a839171b60405160405180910390a45050565b611913611f1a565b6097805460ff191690557f5db9ee0a495bf2e6ff9c91a7834c1ba4fdd244a5e8aa4e537bd38aeae4b073aa6119466114e5565b6040516001600160a01b03909116815260200160405180910390a1565b5f54610100900460ff16610b385760405162461bcd60e51b81526004016108d490612ecb565b5f54610100900460ff166119af5760405162461bcd60e51b81526004016108d490612ecb565b610b386119ba6114e5565b611c04565b5f54610100900460ff166119e55760405162461bcd60e51b81526004016108d490612ecb565b610b385f6119f16114e5565b6117e4565b5f54610100900460ff16611a1c5760405162461bcd60e51b81526004016108d490612ecb565b6001606555565b5f54610100900460ff16611a495760405162461bcd60e51b81526004016108d490612ecb565b6097805460ff19169055565b5f8080611a628580612f16565b611a70906040810190612f2b565b159050611b2a5736611a828680612f16565b611a90906040810190612f2b565b5f818110611aa057611aa0612f6f565b60a00291909101915060029050611aba6020830183612f83565b6005811115611acb57611acb612894565b148015611afb5750610191546001600160a01b0316611af0604083016020840161246f565b6001600160a01b0316145b15611b2857611b0a8680612f16565b611b1890602081019061246f565b9350849250604001359050611bfd565b505b611b348580612f16565b611b42906060810190612f9c565b159050611be45736611b548680612f16565b611b62906060810190612f9c565b5f818110611b7257611b72612f6f565b60c00291909101915060029050611b8c6020830183612f83565b6005811115611b9d57611b9d612894565b148015611bcd5750610191546001600160a01b0316611bc2604083016020840161246f565b6001600160a01b0316145b15611be257611b1860c0820160a0830161246f565b505b60405163af61069360e01b815260040160405180910390fd5b9250925092565b60c980546001600160a01b038381166001600160a01b0319831681179093556040519116919082907f8be0079c531659141344cd1fd0a4f28419497f9722a3daafe3b4186f6b6457e0905f90a35050565b611c5d6114f3565b6097805460ff191660011790557f62e78cea01bee320cd4e420270b5ea74000d11b0c9f74754ebdbfc544b05a2586119466114e5565b6040838101519051636ccbae5f60e01b815260048101919091525f9081903090636ccbae5f90602401602060405180830381865afa158015611cd7573d5f803e3d5ffd5b505050506040513d601f19601f82011682018060405250810190611cfb9190612fe0565b90505f611da8866060015180519060200120868860200151604051602001611d489392919092835260609190911b6bffffffffffffffffffffffff19166020830152603482015260540190565b60408051601f1981840301815282825280516020918201207f19457468657265756d205369676e6564204d6573736167653a0a33320000000084830152603c8085019190915282518085039091018152605c909301909152815191012090565b905081866020015114801561168657508551611686906001600160a01b03168286611f63565b5f303303611de3575060331936013560601c90565b503390565b604080517f1ee5d87a048b728f67073f282321992c260e5be4fa651d08665c5b4ee7a8381560208201529081018290525f90606001604051602081830303815290604052805190602001209050611e3c8190565b54611e48906001612ff7565b905550565b6060828585604051602001611e649392919061300a565b6040516020818303038152906040529050949350505050565b60608315611e8c5750816108a0565b825115611e9c5782518084602001fd5b8160405162461bcd60e51b81526004016108d4919061256c565b611ec08282610fc4565b610b2457611ed8816001600160a01b0316601461209e565b611ee383602061209e565b604051602001611ef4929190613048565b60408051601f198184030181529082905262461bcd60e51b82526108d49160040161256c565b60975460ff16610b385760405162461bcd60e51b815260206004820152601460248201527314185d5cd8589b194e881b9bdd081c185d5cd95960621b60448201526064016108d4565b5f805f611f708585612233565b90925090505f816004811115611f8857611f88612894565b148015611fa65750856001600160a01b0316826001600160a01b0316145b15611fb6576001925050506108a0565b5f80876001600160a01b0316631626ba7e60e01b8888604051602401611fdd9291906130bc565b60408051601f198184030181529181526020820180516001600160e01b03166001600160e01b031990941693909317909252905161201b9190612e69565b5f60405180830381855afa9150503d805f8114612053576040519150601f19603f3d011682016040523d82523d5f602084013e612058565b606091505b509150915081801561206b575080516020145b801561209257508051630b135d3f60e11b906120909083016020908101908401612fe0565b145b98975050505050505050565b60605f6120ac8360026130d4565b6120b7906002612ff7565b6001600160401b038111156120ce576120ce612d41565b6040519080825280601f01601f1916602001820160405280156120f8576020820181803683370190505b509050600360fc1b815f8151811061211257612112612f6f565b60200101906001600160f81b03191690815f1a905350600f60fb1b8160018151811061214057612140612f6f565b60200101906001600160f81b03191690815f1a9053505f6121628460026130d4565b61216d906001612ff7565b90505b60018111156121e4576f181899199a1a9b1b9c1cb0b131b232b360811b85600f16601081106121a1576121a1612f6f565b1a60f81b8282815181106121b7576121b7612f6f565b60200101906001600160f81b03191690815f1a90535060049490941c936121dd816130eb565b9050612170565b5083156108a05760405162461bcd60e51b815260206004820181905260248201527f537472696e67733a20686578206c656e67746820696e73756666696369656e7460448201526064016108d4565b5f808251604103612267576020830151604084015160608501515f1a61225b87828585612275565b9450945050505061226e565b505f905060025b9250929050565b5f807f7fffffffffffffffffffffffffffffff5d576e7357a4501ddfe92f46681b20a08311156122aa57505f90506003612351565b8460ff16601b141580156122c257508460ff16601c14155b156122d257505f90506004612351565b604080515f8082526020820180845289905260ff881692820192909252606081018690526080810185905260019060a0016020604051602081039080840390855afa158015612323573d5f803e3d5ffd5b5050604051601f1901519150506001600160a01b03811661234b575f60019250925050612351565b91505f90505b94509492505050565b5f6020828403121561236a575f80fd5b81356001600160e01b0319811681146108a0575f80fd5b5f60208284031215612391575f80fd5b5035919050565b5f8083601f8401126123a8575f80fd5b5081356001600160401b038111156123be575f80fd5b6020830191508360208260051b850101111561226e575f80fd5b5f805f805f606086880312156123ec575f80fd5b8535945060208601356001600160401b0380821115612409575f80fd5b61241589838a01612398565b9096509450604088013591508082111561242d575f80fd5b5061243a88828901612398565b969995985093965092949392505050565b6001600160a01b03811681146107db575f80fd5b803561246a8161244b565b919050565b5f6020828403121561247f575f80fd5b81356108a08161244b565b5f805f6040848603121561249c575f80fd5b83356001600160401b03808211156124b2575f80fd5b90850190608082880312156124c5575f80fd5b909350602085013590808211156124da575f80fd5b818601915086601f8301126124ed575f80fd5b8135818111156124fb575f80fd5b87602082850101111561250c575f80fd5b6020830194508093505050509250925092565b5f5b83811015612539578181015183820152602001612521565b50505f910152565b5f815180845261255881602086016020860161251f565b601f01601f19169290920160200192915050565b602081525f6108a06020830184612541565b5f805f8060808587031215612591575f80fd5b8435935060208501356125a38161244b565b925060408501356125b38161244b565b9396929550929360600135925050565b5f80604083850312156125d4575f80fd5b8235915060208301356125e68161244b565b809150509250929050565b5f8060408385031215612602575f80fd5b823561260d8161244b565b915060208301356125e68161244b565b5f805f805f8060a08789031215612632575f80fd5b8635955060208701356001600160401b038082111561264f575f80fd5b9088019060a0828b031215612662575f80fd5b90955060408801359080821115612677575f80fd5b5061268489828a01612398565b90955093505060608701359150608087013561269f8161244b565b809150509295509295509295565b81835281816020850137505f828201602090810191909152601f909101601f19169091010190565b5f808335601e198436030181126126ea575f80fd5b83016020810192503590506001600160401b03811115612708575f80fd5b80360382131561226e575f80fd5b5f838385526020808601955060208560051b830101845f5b8781101561276857848303601f1901895261274982886126d5565b6127548582846126ad565b9a86019a945050509083019060010161272e565b5090979650505050505050565b606081525f612788606083018789612716565b828103602084015261279b818688612716565b9150508260408301529695505050505050565b5f808335601e198436030181126127c3575f80fd5b8301803591506001600160401b038211156127dc575f80fd5b60200191503681900382131561226e575f80fd5b6020808252601f908201527f5265656e7472616e637947756172643a207265656e7472616e742063616c6c00604082015260600190565b5f60208284031215612837575f80fd5b81516108a08161244b565b5f808335601e19843603018112612857575f80fd5b83016020810192503590506001600160401b03811115612875575f80fd5b60a08102360382131561226e575f80fd5b80356006811061246a575f80fd5b634e487b7160e01b5f52602160045260245ffd5b600681106128b8576128b8612894565b9052565b8183525f60208085019450825f5b8581101561292e576128e4876128df84612886565b6128a8565b828201356128f18161244b565b6001600160a01b03168388015260408281013590880152606080830135908801526080808301359088015260a096870196909101906001016128ca565b509495945050505050565b5f808335601e1984360301811261294e575f80fd5b83016020810192503590506001600160401b0381111561296c575f80fd5b60c08102360382131561226e575f80fd5b8183525f60208085019450825f5b8581101561292e576129a0876128df84612886565b828201356129ad8161244b565b6001600160a01b039081168885015260408381013590890152606080840135908901526080808401359089015260a090838201356129ea8161244b565b169088015260c096870196919091019060010161298b565b80356005811061246a575f80fd5b600581106128b8576128b8612894565b80356001600160781b038116811461246a575f80fd5b8183525f6001600160fb1b03831115612a4d575f80fd5b8260051b80836020870137939093016020019392505050565b8183526020808401935f91600585811b8301820185855b88811015612b3e57858303601f19018a52813536899003609e19018112612aa2575f80fd5b88018035845260a08682013560028110612aba575f80fd5b85880152604082810135908601526060808301359086015260808083013536849003601e19018112612aea575f80fd5b9092018781019290356001600160401b03811115612b06575f80fd5b80881b3603841315612b16575f80fd5b8282880152612b288388018286612a36565b9d89019d96505050928601925050600101612a7d565b509098975050505050505050565b608081525f610120873561015e19893603018112612b68575f80fd5b60a060808501528801612b8d828501612b808361245f565b6001600160a01b03169052565b612b996020820161245f565b610140612bb0818701836001600160a01b03169052565b612bbd6040840184612842565b610160888101529250612bd5610280880184836128bc565b925050612be56060840184612939565b87840361011f1901610180890152612bfe84828461297d565b93505050612c0e60808401612a02565b612c1c6101a0880182612a10565b5060a08301356101c087015260c08301356101e087015260e0830135610200870152610100808401356102208801528484013561024088015281840135610260880152612c6b60208d01612a20565b6001600160781b03811660a08901529450612c8860408d01612a20565b6001600160781b03811660c08901529450612ca660608d018d6126d5565b95509350607f199150818784030160e0880152612cc48386866126ad565b9450612cd360808d018d6126d5565b945092508187860301818801525050612ced8383836126ad565b925050508281036020840152612d04818789612a66565b91505083604083015261168660608301846001600160a01b03169052565b5f60208284031215612d32575f80fd5b815180151581146108a0575f80fd5b634e487b7160e01b5f52604160045260245ffd5b604051608081016001600160401b0381118282101715612d7757612d77612d41565b60405290565b604051601f8201601f191681016001600160401b0381118282101715612da557612da5612d41565b604052919050565b5f60808236031215612dbd575f80fd5b612dc5612d55565b8235612dd08161244b565b8152602083810135818301526040808501359083015260608401356001600160401b0380821115612dff575f80fd5b9085019036601f830112612e11575f80fd5b813581811115612e2357612e23612d41565b612e35601f8201601f19168501612d7d565b91508082523684828501011115612e4a575f80fd5b80848401858401375f9082019093019290925250606082015292915050565b5f8251612e7a81846020870161251f565b9190910192915050565b634e487b7160e01b5f52601160045260245ffd5b5f82612eb257634e487b7160e01b5f52601260045260245ffd5b500490565b634e487b7160e01b5f52600160045260245ffd5b6020808252602b908201527f496e697469616c697a61626c653a20636f6e7472616374206973206e6f74206960408201526a6e697469616c697a696e6760a81b606082015260800190565b5f823561015e19833603018112612e7a575f80fd5b5f808335601e19843603018112612f40575f80fd5b8301803591506001600160401b03821115612f59575f80fd5b602001915060a08102360382131561226e575f80fd5b634e487b7160e01b5f52603260045260245ffd5b5f60208284031215612f93575f80fd5b6108a082612886565b5f808335601e19843603018112612fb1575f80fd5b8301803591506001600160401b03821115612fca575f80fd5b602001915060c08102360382131561226e575f80fd5b5f60208284031215612ff0575f80fd5b5051919050565b8082018082111561069c5761069c612e84565b5f845161301b81846020890161251f565b60609490941b6bffffffffffffffffffffffff191691909301908152601481019190915260340192915050565b7f416363657373436f6e74726f6c3a206163636f756e742000000000000000000081525f835161307f81601785016020880161251f565b7001034b99036b4b9b9b4b733903937b6329607d1b60179184019182015283516130b081602884016020880161251f565b01602801949350505050565b828152604060208201525f6111716040830184612541565b808202811582820484141761069c5761069c612e84565b5f816130f9576130f9612e84565b505f19019056fee42a2a81871991b348b461cd4ff9825352fd011597c5280ce35326126d53efbca164736f6c6343000818000a",
  "linkReferences": {},
  "deployedLinkReferences": {}
}