{
  "_format": "hh-sol-artifact-1",
  "contractName": "MintingManager",
  "sourceName": "contracts/MintingManager.sol",
  "abi": [
    {
      "anonymous": false,
      "inputs": [
        {
          "indexed": false,
          "internalType": "uint256",
          "name": "tokenId",
          "type": "uint256"
        }
      ],
      "name": "Blocked",
      "type": "event"
    },
    {
      "anonymous": false,
      "inputs": [
        {
          "indexed": false,
          "internalType": "address",
          "name": "account",
          "type": "address"
        }
      ],
      "name": "BlocklistDisabled",
      "type": "event"
    },
    {
      "anonymous": false,
      "inputs": [
        {
          "indexed": false,
          "internalType": "address",
          "name": "account",
          "type": "address"
        }
      ],
      "name": "BlocklistEnabled",
      "type": "event"
    },
    {
      "anonymous": false,
      "inputs": [
        {
          "indexed": true,
          "internalType": "uint256",
          "name": "tokenId",
          "type": "uint256"
        },
        {
          "indexed": false,
          "internalType": "string",
          "name": "tld",
          "type": "string"
        }
      ],
      "name": "NewTld",
      "type": "event"
    },
    {
      "anonymous": false,
      "inputs": [
        {
          "indexed": true,
          "internalType": "address",
          "name": "previousOwner",
          "type": "address"
        },
        {
          "indexed": true,
          "internalType": "address",
          "name": "newOwner",
          "type": "address"
        }
      ],
      "name": "OwnershipTransferred",
      "type": "event"
    },
    {
      "anonymous": false,
      "inputs": [
        {
          "indexed": false,
          "internalType": "address",
          "name": "account",
          "type": "address"
        }
      ],
      "name": "Paused",
      "type": "event"
    },
    {
      "anonymous": false,
      "inputs": [
        {
          "indexed": true,
          "internalType": "address",
          "name": "sender",
          "type": "address"
        },
        {
          "indexed": true,
          "internalType": "address",
          "name": "signer",
          "type": "address"
        },
        {
          "indexed": true,
          "internalType": "bytes4",
          "name": "selector",
          "type": "bytes4"
        },
        {
          "indexed": false,
          "internalType": "bytes32",
          "name": "digest",
          "type": "bytes32"
        }
      ],
      "name": "Relayed",
      "type": "event"
    },
    {
      "anonymous": false,
      "inputs": [
        {
          "indexed": true,
          "internalType": "bytes32",
          "name": "role",
          "type": "bytes32"
        },
        {
          "indexed": true,
          "internalType": "bytes32",
          "name": "previousAdminRole",
          "type": "bytes32"
        },
        {
          "indexed": true,
          "internalType": "bytes32",
          "name": "newAdminRole",
          "type": "bytes32"
        }
      ],
      "name": "RoleAdminChanged",
      "type": "event"
    },
    {
      "anonymous": false,
      "inputs": [
        {
          "indexed": true,
          "internalType": "bytes32",
          "name": "role",
          "type": "bytes32"
        },
        {
          "indexed": true,
          "internalType": "address",
          "name": "account",
          "type": "address"
        },
        {
          "indexed": true,
          "internalType": "address",
          "name": "sender",
          "type": "address"
        }
      ],
      "name": "RoleGranted",
      "type": "event"
    },
    {
      "anonymous": false,
      "inputs": [
        {
          "indexed": true,
          "internalType": "bytes32",
          "name": "role",
          "type": "bytes32"
        },
        {
          "indexed": true,
          "internalType": "address",
          "name": "account",
          "type": "address"
        },
        {
          "indexed": true,
          "internalType": "address",
          "name": "sender",
          "type": "address"
        }
      ],
      "name": "RoleRevoked",
      "type": "event"
    },
    {
      "anonymous": false,
      "inputs": [
        {
          "indexed": false,
          "internalType": "address",
          "name": "account",
          "type": "address"
        }
      ],
      "name": "Unpaused",
      "type": "event"
    },
    {
      "inputs": [],
      "name": "DEFAULT_ADMIN_ROLE",
      "outputs": [
        {
          "internalType": "bytes32",
          "name": "",
          "type": "bytes32"
        }
      ],
      "stateMutability": "view",
      "type": "function"
    },
    {
      "inputs": [],
      "name": "MINTER_ROLE",
      "outputs": [
        {
          "internalType": "bytes32",
          "name": "",
          "type": "bytes32"
        }
      ],
      "stateMutability": "view",
      "type": "function"
    },
    {
      "inputs": [],
      "name": "NAME",
      "outputs": [
        {
          "internalType": "string",
          "name": "",
          "type": "string"
        }
      ],
      "stateMutability": "view",
      "type": "function"
    },
    {
      "inputs": [],
      "name": "VERSION",
      "outputs": [
        {
          "internalType": "string",
          "name": "",
          "type": "string"
        }
      ],
      "stateMutability": "view",
      "type": "function"
    },
    {
      "inputs": [
        {
          "internalType": "address",
          "name": "account",
          "type": "address"
        }
      ],
      "name": "addMinter",
      "outputs": [],
      "stateMutability": "nonpayable",
      "type": "function"
    },
    {
      "inputs": [
        {
          "internalType": "address[]",
          "name": "accounts",
          "type": "address[]"
        }
      ],
      "name": "addMinters",
      "outputs": [],
      "stateMutability": "nonpayable",
      "type": "function"
    },
    {
      "inputs": [
        {
          "internalType": "string",
          "name": "tld",
          "type": "string"
        }
      ],
      "name": "addTld",
      "outputs": [],
      "stateMutability": "nonpayable",
      "type": "function"
    },
    {
      "inputs": [
        {
          "internalType": "uint256[]",
          "name": "tokenIds",
          "type": "uint256[]"
        }
      ],
      "name": "areBlocked",
      "outputs": [
        {
          "internalType": "bool[]",
          "name": "values",
          "type": "bool[]"
        }
      ],
      "stateMutability": "view",
      "type": "function"
    },
    {
      "inputs": [
        {
          "internalType": "uint256",
          "name": "tokenId",
          "type": "uint256"
        }
      ],
      "name": "blocklist",
      "outputs": [],
      "stateMutability": "nonpayable",
      "type": "function"
    },
    {
      "inputs": [
        {
          "internalType": "uint256[]",
          "name": "tokenIds",
          "type": "uint256[]"
        }
      ],
      "name": "blocklistAll",
      "outputs": [],
      "stateMutability": "nonpayable",
      "type": "function"
    },
    {
      "inputs": [
        {
          "internalType": "uint256",
          "name": "tld",
          "type": "uint256"
        },
        {
          "internalType": "string",
          "name": "label",
          "type": "string"
        }
      ],
      "name": "claim",
      "outputs": [],
      "stateMutability": "nonpayable",
      "type": "function"
    },
    {
      "inputs": [
        {
          "internalType": "address",
          "name": "to",
          "type": "address"
        },
        {
          "internalType": "uint256",
          "name": "tld",
          "type": "uint256"
        },
        {
          "internalType": "string",
          "name": "label",
          "type": "string"
        }
      ],
      "name": "claimTo",
      "outputs": [],
      "stateMutability": "nonpayable",
      "type": "function"
    },
    {
      "inputs": [
        {
          "internalType": "address",
          "name": "to",
          "type": "address"
        },
        {
          "internalType": "uint256",
          "name": "tld",
          "type": "uint256"
        },
        {
          "internalType": "string",
          "name": "label",
          "type": "string"
        },
        {
          "internalType": "string[]",
          "name": "keys",
          "type": "string[]"
        },
        {
          "internalType": "string[]",
          "name": "values",
          "type": "string[]"
        }
      ],
      "name": "claimToWithRecords",
      "outputs": [],
      "stateMutability": "nonpayable",
      "type": "function"
    },
    {
      "inputs": [
        {
          "internalType": "address payable",
          "name": "receiver",
          "type": "address"
        }
      ],
      "name": "closeMinter",
      "outputs": [],
      "stateMutability": "payable",
      "type": "function"
    },
    {
      "inputs": [],
      "name": "cnsMintingController",
      "outputs": [
        {
          "internalType": "contract IMintingController",
          "name": "",
          "type": "address"
        }
      ],
      "stateMutability": "view",
      "type": "function"
    },
    {
      "inputs": [],
      "name": "cnsResolver",
      "outputs": [
        {
          "internalType": "contract IResolver",
          "name": "",
          "type": "address"
        }
      ],
      "stateMutability": "view",
      "type": "function"
    },
    {
      "inputs": [],
      "name": "cnsSignatureController",
      "outputs": [
        {
          "internalType": "contract ISignatureController",
          "name": "",
          "type": "address"
        }
      ],
      "stateMutability": "view",
      "type": "function"
    },
    {
      "inputs": [],
      "name": "cnsURIPrefixController",
      "outputs": [
        {
          "internalType": "contract IURIPrefixController",
          "name": "",
          "type": "address"
        }
      ],
      "stateMutability": "view",
      "type": "function"
    },
    {
      "inputs": [],
      "name": "disableBlocklist",
      "outputs": [],
      "stateMutability": "nonpayable",
      "type": "function"
    },
    {
      "inputs": [],
      "name": "enableBlocklist",
      "outputs": [],
      "stateMutability": "nonpayable",
      "type": "function"
    },
    {
      "inputs": [
        {
          "internalType": "bytes32",
          "name": "role",
          "type": "bytes32"
        }
      ],
      "name": "getRoleAdmin",
      "outputs": [
        {
          "internalType": "bytes32",
          "name": "",
          "type": "bytes32"
        }
      ],
      "stateMutability": "view",
      "type": "function"
    },
    {
      "inputs": [
        {
          "internalType": "bytes32",
          "name": "role",
          "type": "bytes32"
        },
        {
          "internalType": "address",
          "name": "account",
          "type": "address"
        }
      ],
      "name": "grantRole",
      "outputs": [],
      "stateMutability": "nonpayable",
      "type": "function"
    },
    {
      "inputs": [
        {
          "internalType": "bytes32",
          "name": "role",
          "type": "bytes32"
        },
        {
          "internalType": "address",
          "name": "account",
          "type": "address"
        }
      ],
      "name": "hasRole",
      "outputs": [
        {
          "internalType": "bool",
          "name": "",
          "type": "bool"
        }
      ],
      "stateMutability": "view",
      "type": "function"
    },
    {
      "inputs": [
        {
          "internalType": "contract IUNSRegistry",
          "name": "unsRegistry_",
          "type": "address"
        },
        {
          "internalType": "contract IMintingController",
          "name": "cnsMintingController_",
          "type": "address"
        },
        {
          "internalType": "contract IURIPrefixController",
          "name": "cnsURIPrefixController_",
          "type": "address"
        },
        {
          "internalType": "contract ISignatureController",
          "name": "cnsSignatureController_",
          "type": "address"
        },
        {
          "internalType": "contract IResolver",
          "name": "cnsResolver_",
          "type": "address"
        },
        {
          "internalType": "address",
          "name": "forwarder",
          "type": "address"
        }
      ],
      "name": "initialize",
      "outputs": [],
      "stateMutability": "nonpayable",
      "type": "function"
    },
    {
      "inputs": [
        {
          "internalType": "uint256",
          "name": "tokenId",
          "type": "uint256"
        }
      ],
      "name": "isBlocked",
      "outputs": [
        {
          "internalType": "bool",
          "name": "",
          "type": "bool"
        }
      ],
      "stateMutability": "view",
      "type": "function"
    },
    {
      "inputs": [],
      "name": "isBlocklistDisabled",
      "outputs": [
        {
          "internalType": "bool",
          "name": "",
          "type": "bool"
        }
      ],
      "stateMutability": "view",
      "type": "function"
    },
    {
      "inputs": [
        {
          "internalType": "address",
          "name": "account",
          "type": "address"
        }
      ],
      "name": "isMinter",
      "outputs": [
        {
          "internalType": "bool",
          "name": "",
          "type": "bool"
        }
      ],
      "stateMutability": "view",
      "type": "function"
    },
    {
      "inputs": [
        {
          "internalType": "address",
          "name": "forwarder",
          "type": "address"
        }
      ],
      "name": "isTrustedForwarder",
      "outputs": [
        {
          "internalType": "bool",
          "name": "",
          "type": "bool"
        }
      ],
      "stateMutability": "view",
      "type": "function"
    },
    {
      "inputs": [
        {
          "internalType": "address",
          "name": "to",
          "type": "address"
        },
        {
          "internalType": "uint256",
          "name": "tld",
          "type": "uint256"
        },
        {
          "internalType": "string",
          "name": "label",
          "type": "string"
        }
      ],
      "name": "mintSLD",
      "outputs": [],
      "stateMutability": "nonpayable",
      "type": "function"
    },
    {
      "inputs": [
        {
          "internalType": "address",
          "name": "to",
          "type": "address"
        },
        {
          "internalType": "uint256",
          "name": "tld",
          "type": "uint256"
        },
        {
          "internalType": "string",
          "name": "label",
          "type": "string"
        },
        {
          "internalType": "string[]",
          "name": "keys",
          "type": "string[]"
        },
        {
          "internalType": "string[]",
          "name": "values",
          "type": "string[]"
        }
      ],
      "name": "mintSLDWithRecords",
      "outputs": [],
      "stateMutability": "nonpayable",
      "type": "function"
    },
    {
      "inputs": [],
      "name": "owner",
      "outputs": [
        {
          "internalType": "address",
          "name": "",
          "type": "address"
        }
      ],
      "stateMutability": "view",
      "type": "function"
    },
    {
      "inputs": [],
      "name": "pause",
      "outputs": [],
      "stateMutability": "nonpayable",
      "type": "function"
    },
    {
      "inputs": [],
      "name": "paused",
      "outputs": [
        {
          "internalType": "bool",
          "name": "",
          "type": "bool"
        }
      ],
      "stateMutability": "view",
      "type": "function"
    },
    {
      "inputs": [
        {
          "internalType": "bytes",
          "name": "data",
          "type": "bytes"
        },
        {
          "internalType": "bytes",
          "name": "signature",
          "type": "bytes"
        }
      ],
      "name": "relay",
      "outputs": [
        {
          "internalType": "bytes",
          "name": "",
          "type": "bytes"
        }
      ],
      "stateMutability": "nonpayable",
      "type": "function"
    },
    {
      "inputs": [
        {
          "internalType": "address",
          "name": "account",
          "type": "address"
        }
      ],
      "name": "removeMinter",
      "outputs": [],
      "stateMutability": "nonpayable",
      "type": "function"
    },
    {
      "inputs": [
        {
          "internalType": "address[]",
          "name": "accounts",
          "type": "address[]"
        }
      ],
      "name": "removeMinters",
      "outputs": [],
      "stateMutability": "nonpayable",
      "type": "function"
    },
    {
      "inputs": [],
      "name": "renounceMinter",
      "outputs": [],
      "stateMutability": "nonpayable",
      "type": "function"
    },
    {
      "inputs": [],
      "name": "renounceOwnership",
      "outputs": [],
      "stateMutability": "nonpayable",
      "type": "function"
    },
    {
      "inputs": [
        {
          "internalType": "bytes32",
          "name": "role",
          "type": "bytes32"
        },
        {
          "internalType": "address",
          "name": "account",
          "type": "address"
        }
      ],
      "name": "renounceRole",
      "outputs": [],
      "stateMutability": "nonpayable",
      "type": "function"
    },
    {
      "inputs": [
        {
          "internalType": "bytes32",
          "name": "role",
          "type": "bytes32"
        },
        {
          "internalType": "address",
          "name": "account",
          "type": "address"
        }
      ],
      "name": "revokeRole",
      "outputs": [],
      "stateMutability": "nonpayable",
      "type": "function"
    },
    {
      "inputs": [
        {
          "internalType": "address payable",
          "name": "receiver",
          "type": "address"
        }
      ],
      "name": "rotateMinter",
      "outputs": [],
      "stateMutability": "payable",
      "type": "function"
    },
    {
      "inputs": [
        {
          "internalType": "address",
          "name": "to",
          "type": "address"
        },
        {
          "internalType": "uint256",
          "name": "tld",
          "type": "uint256"
        },
        {
          "internalType": "string",
          "name": "label",
          "type": "string"
        }
      ],
      "name": "safeMintSLD",
      "outputs": [],
      "stateMutability": "nonpayable",
      "type": "function"
    },
    {
      "inputs": [
        {
          "internalType": "address",
          "name": "to",
          "type": "address"
        },
        {
          "internalType": "uint256",
          "name": "tld",
          "type": "uint256"
        },
        {
          "internalType": "string",
          "name": "label",
          "type": "string"
        },
        {
          "internalType": "bytes",
          "name": "data",
          "type": "bytes"
        }
      ],
      "name": "safeMintSLD",
      "outputs": [],
      "stateMutability": "nonpayable",
      "type": "function"
    },
    {
      "inputs": [
        {
          "internalType": "address",
          "name": "to",
          "type": "address"
        },
        {
          "internalType": "uint256",
          "name": "tld",
          "type": "uint256"
        },
        {
          "internalType": "string",
          "name": "label",
          "type": "string"
        },
        {
          "internalType": "string[]",
          "name": "keys",
          "type": "string[]"
        },
        {
          "internalType": "string[]",
          "name": "values",
          "type": "string[]"
        }
      ],
      "name": "safeMintSLDWithRecords",
      "outputs": [],
      "stateMutability": "nonpayable",
      "type": "function"
    },
    {
      "inputs": [
        {
          "internalType": "address",
          "name": "to",
          "type": "address"
        },
        {
          "internalType": "uint256",
          "name": "tld",
          "type": "uint256"
        },
        {
          "internalType": "string",
          "name": "label",
          "type": "string"
        },
        {
          "internalType": "string[]",
          "name": "keys",
          "type": "string[]"
        },
        {
          "internalType": "string[]",
          "name": "values",
          "type": "string[]"
        },
        {
          "internalType": "bytes",
          "name": "data",
          "type": "bytes"
        }
      ],
      "name": "safeMintSLDWithRecords",
      "outputs": [],
      "stateMutability": "nonpayable",
      "type": "function"
    },
    {
      "inputs": [
        {
          "internalType": "address",
          "name": "forwarder",
          "type": "address"
        }
      ],
      "name": "setForwarder",
      "outputs": [],
      "stateMutability": "nonpayable",
      "type": "function"
    },
    {
      "inputs": [
        {
          "internalType": "address",
          "name": "resolver",
          "type": "address"
        }
      ],
      "name": "setResolver",
      "outputs": [],
      "stateMutability": "nonpayable",
      "type": "function"
    },
    {
      "inputs": [
        {
          "internalType": "string",
          "name": "prefix",
          "type": "string"
        }
      ],
      "name": "setTokenURIPrefix",
      "outputs": [],
      "stateMutability": "nonpayable",
      "type": "function"
    },
    {
      "inputs": [
        {
          "internalType": "bytes4",
          "name": "interfaceId",
          "type": "bytes4"
        }
      ],
      "name": "supportsInterface",
      "outputs": [
        {
          "internalType": "bool",
          "name": "",
          "type": "bool"
        }
      ],
      "stateMutability": "view",
      "type": "function"
    },
    {
      "inputs": [
        {
          "internalType": "address",
          "name": "newOwner",
          "type": "address"
        }
      ],
      "name": "transferOwnership",
      "outputs": [],
      "stateMutability": "nonpayable",
      "type": "function"
    },
    {
      "inputs": [],
      "name": "unpause",
      "outputs": [],
      "stateMutability": "nonpayable",
      "type": "function"
    },
    {
      "inputs": [],
      "name": "unsRegistry",
      "outputs": [
        {
          "internalType": "contract IUNSRegistry",
          "name": "",
          "type": "address"
        }
      ],
      "stateMutability": "view",
      "type": "function"
    },
    {
      "inputs": [
        {
          "internalType": "uint256",
          "name": "tld",
          "type": "uint256"
        },
        {
          "internalType": "string",
          "name": "label",
          "type": "string"
        }
      ],
      "name": "upgradeCnsToPolygon",
      "outputs": [],
      "stateMutability": "nonpayable",
      "type": "function"
    },
    {
      "inputs": [
        {
          "internalType": "uint256",
          "name": "tld",
          "type": "uint256"
        },
        {
          "internalType": "string",
          "name": "label",
          "type": "string"
        },
        {
          "internalType": "bytes",
          "name": "signature",
          "type": "bytes"
        }
      ],
      "name": "upgradeCnsToPolygonFor",
      "outputs": [],
      "stateMutability": "nonpayable",
      "type": "function"
    }
  ],
  "bytecode": "0x608060405234801561001057600080fd5b50614d3c806100206000396000f3fe6080604052600436106103355760003560e01c806371e2a657116101ab578063a849d65c116100f7578063cc2c3fc411610095578063d547741f1161006f578063d547741f146108f1578063e47d6cc614610911578063f2fde38b14610931578063ffa1ad741461095157610335565b8063cc2c3fc4146108a7578063ceeb4f50146108bc578063d5391393146108dc57610335565b8063b0aa98c7116100d1578063b0aa98c714610827578063b9998a2414610847578063c3a3bc0014610867578063cc2a9a5b1461088757610335565b8063a849d65c146107d2578063aa271e1a146107e7578063ae2ad9031461080757610335565b806391d148541161016457806399e0dd7c1161013e57806399e0dd7c14610768578063a217fddf14610788578063a3f4df7e1461079d578063a76998f1146107b257610335565b806391d1485414610713578063983b2d5614610733578063986502751461075357610335565b806371e2a6571461068157806381c81d35146106a15780638456cb59146106b45780638da5cb5b146106c9578063906cecc1146106de57806390dbdb5a146106fe57610335565b80633f4ba83a116102855780635b6fa8db116102235780636279238b116101fd5780636279238b14610624578063634486da146106395780636a2d22561461064c578063715018a61461066c57610335565b80635b6fa8db146105da5780635c975abb146105ef5780635fc1964f1461060457610335565b80634e543b261161025f5780634e543b261461054d578063564a51581461056d578063572b6c051461059a57806358839d6b146105ba57610335565b80633f4ba83a146104f8578063463c4bcb1461050d5780634c1819e01461052d57610335565b806327bbd225116102f25780633092afd5116102cc5780633092afd51461047657806336568abe1461049657806339ccf4d0146104b65780633f41b614146104d657610335565b806327bbd225146104215780632eff1a95146104415780632f2ff15d1461045657610335565b806301ffc9a71461033a5780630e36a87d1461037057806310921f121461039d5780631fb4d564146103b2578063248a9ca3146103d4578063268b15ed14610401575b600080fd5b34801561034657600080fd5b5061035a610355366004613ee2565b610966565b6040516103679190614633565b60405180910390f35b34801561037c57600080fd5b5061039061038b366004613e3c565b610993565b60405161036791906145b3565b3480156103a957600080fd5b5061035a610a6a565b3480156103be57600080fd5b506103d26103cd366004614063565b610a8d565b005b3480156103e057600080fd5b506103f46103ef366004613e9b565b610d77565b604051610367919061463e565b34801561040d57600080fd5b506103d261041c36600461401a565b610d8c565b34801561042d57600080fd5b506103d261043c366004613b68565b610e0e565b34801561044d57600080fd5b506103d2610ef6565b34801561046257600080fd5b506103d2610471366004613eb3565b610f3f565b34801561048257600080fd5b506103d2610491366004613ad7565b610f68565b3480156104a257600080fd5b506103d26104b1366004613eb3565b610fb3565b3480156104c257600080fd5b506103d26104d1366004613b68565b610ff9565b3480156104e257600080fd5b506104eb6110c8565b604051610367919061439e565b34801561050457600080fd5b506103d26110d7565b34801561051957600080fd5b506103d2610528366004613e9b565b61111e565b34801561053957600080fd5b506103d2610548366004613b0f565b61114e565b34801561055957600080fd5b506103d2610568366004613ad7565b6111f9565b34801561057957600080fd5b5061058d610588366004613f0a565b61125a565b6040516103679190614665565b3480156105a657600080fd5b5061035a6105b5366004613ad7565b611425565b3480156105c657600080fd5b506103d26105d5366004613cf4565b611466565b3480156105e657600080fd5b506104eb61153a565b3480156105fb57600080fd5b5061035a611549565b34801561061057600080fd5b506103d261061f366004613d7c565b611562565b34801561063057600080fd5b506104eb6115ef565b6103d2610647366004613ad7565b6115fe565b34801561065857600080fd5b506103d2610667366004613c19565b611691565b34801561067857600080fd5b506103d26117a3565b34801561068d57600080fd5b506103d261069c366004613d7c565b61182c565b6103d26106af366004613ad7565b6118b9565b3480156106c057600080fd5b506103d2611906565b3480156106d557600080fd5b506104eb61194d565b3480156106ea57600080fd5b506103d26106f9366004613b0f565b61195c565b34801561070a57600080fd5b506103d26119cc565b34801561071f57600080fd5b5061035a61072e366004613eb3565b611a13565b34801561073f57600080fd5b506103d261074e366004613ad7565b611a3e565b34801561075f57600080fd5b506103d2611a86565b34801561077457600080fd5b506103d2610783366004613fe7565b611aa0565b34801561079457600080fd5b506103f4611bbe565b3480156107a957600080fd5b5061058d611bc3565b3480156107be57600080fd5b506103d26107cd36600461401a565b611bf3565b3480156107de57600080fd5b506104eb611ebf565b3480156107f357600080fd5b5061035a610802366004613ad7565b611ece565b34801561081357600080fd5b506103d2610822366004613b0f565b611ee8565b34801561083357600080fd5b5061035a610842366004613e9b565b611fb1565b34801561085357600080fd5b506103d2610862366004613ad7565b61201f565b34801561087357600080fd5b506103d2610882366004613fe7565b612067565b34801561089357600080fd5b506103d26108a2366004613f66565b6120e5565b3480156108b357600080fd5b506104eb61234b565b3480156108c857600080fd5b506103d26108d7366004613b68565b61235a565b3480156108e857600080fd5b506103f46123d3565b3480156108fd57600080fd5b506103d261090c366004613eb3565b6123e5565b34801561091d57600080fd5b506103d261092c366004613e3c565b612404565b34801561093d57600080fd5b506103d261094c366004613ad7565b612435565b34801561095d57600080fd5b5061058d612488565b60006001600160e01b03198216637965db0b60e01b148061098b575061098b826124a9565b90505b919050565b6060816001600160401b038111156109bb57634e487b7160e01b600052604160045260246000fd5b6040519080825280602002602001820160405280156109e4578160200160208202803683370190505b50905060005b82811015610a6357610a21848483818110610a1557634e487b7160e01b600052603260045260246000fd5b90506020020135611fb1565b828281518110610a4157634e487b7160e01b600052603260045260246000fd5b9115156020928302919091019091015280610a5b81614c73565b9150506109ea565b5092915050565b6000610a83600080516020614cf0833981519152610a8a565b5460ff1690505b90565b600085815260ce60205260408120805487929190610aaa90614c38565b905011610ad25760405162461bcd60e51b8152600401610ac990614b07565b60405180910390fd5b857f0f4a10a4f46c288cea365fcf45cccf0e9d901b945b9829ccdb54c10dc3cb7a6f14610b115760405162461bcd60e51b8152600401610ac990614a6f565b6000610b538787878080601f0160208091040260200160405190810160405280939291908181526020018383808284376000920191909152506124c292505050565b9050600060ca60009054906101000a90046001600160a01b03166001600160a01b0316637b1039996040518163ffffffff1660e01b815260040160206040518083038186803b158015610ba557600080fd5b505afa158015610bb9573d6000803e3d6000fd5b505050506040513d601f19601f82011682018060405250810190610bdd9190613af3565b90506000816001600160a01b0316636352211e846040518263ffffffff1660e01b8152600401610c0d919061463e565b60206040518083038186803b158015610c2557600080fd5b505afa158015610c39573d6000803e3d6000fd5b505050506040513d601f19601f82011682018060405250810190610c5d9190613af3565b60cc546040516361603dd960e01b81529192506001600160a01b0316906361603dd990610c929086908a908a90600401614b98565b600060405180830381600087803b158015610cac57600080fd5b505af1158015610cc0573d6000803e3d6000fd5b505060c954604080516020601f8d018190048102820181019092528b81526001600160a01b03909216935063e6a0d54f925084918791610d1c918f918f908f908190840183828082843760009201919091525061253e92505050565b6040518463ffffffff1660e01b8152600401610d3a93929190614479565b600060405180830381600087803b158015610d5457600080fd5b505af1158015610d68573d6000803e3d6000fd5b50505050505050505050505050565b60009081526097602052604090206001015490565b600083815260ce60205260408120805485929190610da990614c38565b905011610dc85760405162461bcd60e51b8152600401610ac990614b07565b610dd0611549565b15610ded5760405162461bcd60e51b8152600401610ac990614aa6565b610e08610df8612578565b85610e038686612587565b61259c565b50505050565b610e19610802612578565b610e355760405162461bcd60e51b8152600401610ac99061497f565b600087815260ce60205260408120805489929190610e5290614c38565b905011610e715760405162461bcd60e51b8152600401610ac990614b07565b610e79611549565b15610e965760405162461bcd60e51b8152600401610ac990614aa6565b610eeb898989898080601f016020809104026020016040519081016040528093929190818152602001838380828437600092018290525060408051602081019091529081528c93508b92508a915089906126a2565b505050505050505050565b610efe612578565b6001600160a01b0316610f0f61194d565b6001600160a01b031614610f355760405162461bcd60e51b8152600401610ac990614a3a565b610f3d6127ef565b565b610f4882610d77565b610f5981610f54612578565b61287c565b610f6383836128e0565b505050565b610f70612578565b6001600160a01b0316610f8161194d565b6001600160a01b031614610fa75760405162461bcd60e51b8152600401610ac990614a3a565b610fb081612967565b50565b610fbb612578565b6001600160a01b0316816001600160a01b031614610feb5760405162461bcd60e51b8152600401610ac990614b49565b610ff5828261297f565b5050565b611004610802612578565b6110205760405162461bcd60e51b8152600401610ac99061497f565b600087815260ce6020526040812080548992919061103d90614c38565b90501161105c5760405162461bcd60e51b8152600401610ac990614b07565b611064611549565b156110815760405162461bcd60e51b8152600401610ac990614aa6565b610eeb898989898080601f0160208091040260200160405190810160405280939291908181526020018383808284376000920191909152508b92508a915089905088612a04565b60c9546001600160a01b031681565b6110df612578565b6001600160a01b03166110f061194d565b6001600160a01b0316146111165760405162461bcd60e51b8152600401610ac990614a3a565b610f3d612b89565b611129610802612578565b6111455760405162461bcd60e51b8152600401610ac99061497f565b610fb081612bfe565b611159610802612578565b6111755760405162461bcd60e51b8152600401610ac99061497f565b600083815260ce6020526040812080548592919061119290614c38565b9050116111b15760405162461bcd60e51b8152600401610ac990614b07565b6111b9611549565b156111d65760405162461bcd60e51b8152600401610ac990614aa6565b6111f28585858560405180602001604052806000815250612ca8565b5050505050565b611201612578565b6001600160a01b031661121261194d565b6001600160a01b0316146112385760405162461bcd60e51b8152600401610ac990614a3a565b60cd80546001600160a01b0319166001600160a01b0392909216919091179055565b60606000858560405161126e9291906141e7565b6040518091039020905060006112eb85858080601f016020809104026020016040519081016040528093929190818152602001838380828437600092019190915250506040516112e592506112ca9150869030906020016141b9565b60405160208183030381529060405280519060200120612e28565b90612e58565b905060008088888080601f01602080910402602001604051908101604052809392919081815260200183838082843760009201919091525050505060208101519250905061133883612ede565b611343828a8a612f0c565b600080306001600160a01b03168b8b6040516113609291906141e7565b6000604051808303816000865af19150503d806000811461139d576040519150601f19603f3d011682016040523d82523d6000602084013e6113a2565b606091505b509092509050816113ba576040513d806000833e8082fd5b6001600160e01b031984166001600160a01b0386166113d7612578565b6001600160a01b03167f9490f91465d0d2c12728b9ad47d5f1dd2ac3ef39394796e54a48b94db0b337258960405161140f919061463e565b60405180910390a49a9950505050505050505050565b60006114507f893ef2ea16c023f61d4f55d3e6ee3fc3f2fbfd478461323dbc2fbf919047086e610a8a565b546001600160a01b038381169116149050919050565b611471610802612578565b61148d5760405162461bcd60e51b8152600401610ac99061497f565b600085815260ce602052604081208054879291906114aa90614c38565b9050116114c95760405162461bcd60e51b8152600401610ac990614b07565b6114d1611549565b156114ee5760405162461bcd60e51b8152600401610ac990614aa6565b6115318787878787878080601f016020809104026020016040519081016040528093929190818152602001838380828437600092019190915250612ca892505050565b50505050505050565b60cd546001600160a01b031681565b6000610a83600080516020614cd0833981519152610a8a565b61156a612578565b6001600160a01b031661157b61194d565b6001600160a01b0316146115a15760405162461bcd60e51b8152600401610ac990614a3a565b60005b8151811015610ff5576115dd8282815181106115d057634e487b7160e01b600052603260045260246000fd5b6020026020010151612967565b806115e781614c73565b9150506115a4565b60cc546001600160a01b031681565b611609610802612578565b6116255760405162461bcd60e51b8152600401610ac99061497f565b6001600160a01b03811661164b5760405162461bcd60e51b8152600401610ac990614853565b61165481612fc8565b61165c611a86565b6040516001600160a01b038216903480156108fc02916000818181858888f19350505050158015610ff5573d6000803e3d6000fd5b61169c610802612578565b6116b85760405162461bcd60e51b8152600401610ac99061497f565b600089815260ce6020526040812080548b9291906116d590614c38565b9050116116f45760405162461bcd60e51b8152600401610ac990614b07565b6116fc611549565b156117195760405162461bcd60e51b8152600401610ac990614aa6565b6117968b8b8b8b8080601f01602080910402602001604051908101604052809392919081815260200183838082843760009201919091525050604080516020601f8b018190048102820181019092528981528e93508d92508c918c91908c908c90819084018382808284376000920191909152506126a292505050565b5050505050505050505050565b6117ab612578565b6001600160a01b03166117bc61194d565b6001600160a01b0316146117e25760405162461bcd60e51b8152600401610ac990614a3a565b6033546040516000916001600160a01b0316907f8be0079c531659141344cd1fd0a4f28419497f9722a3daafe3b4186f6b6457e0908390a3603380546001600160a01b0319169055565b611834612578565b6001600160a01b031661184561194d565b6001600160a01b03161461186b5760405162461bcd60e51b8152600401610ac990614a3a565b60005b8151811015610ff5576118a782828151811061189a57634e487b7160e01b600052603260045260246000fd5b6020026020010151612fc8565b806118b181614c73565b91505061186e565b6118c4610802612578565b6118e05760405162461bcd60e51b8152600401610ac99061497f565b6001600160a01b0381166116545760405162461bcd60e51b8152600401610ac990614853565b61190e612578565b6001600160a01b031661191f61194d565b6001600160a01b0316146119455760405162461bcd60e51b8152600401610ac990614a3a565b610f3d612fe0565b6033546001600160a01b031690565b600083815260ce6020526040812080548592919061197990614c38565b9050116119985760405162461bcd60e51b8152600401610ac990614b07565b6119a0611549565b156119bd5760405162461bcd60e51b8152600401610ac990614aa6565b6111f28585610e038686612587565b6119d4612578565b6001600160a01b03166119e561194d565b6001600160a01b031614611a0b5760405162461bcd60e51b8152600401610ac990614a3a565b610f3d613056565b60009182526097602090815260408084206001600160a01b0393909316845291905290205460ff1690565b611a46612578565b6001600160a01b0316611a5761194d565b6001600160a01b031614611a7d5760405162461bcd60e51b8152600401610ac990614a3a565b610fb081612fc8565b610f3d600080516020614d108339815191526104b1612578565b611aa8612578565b6001600160a01b0316611ab961194d565b6001600160a01b031614611adf5760405162461bcd60e51b8152600401610ac990614a3a565b60c954604051632678375f60e21b81526001600160a01b03909116906399e0dd7c90611b119085908590600401614678565b600060405180830381600087803b158015611b2b57600080fd5b505af1158015611b3f573d6000803e3d6000fd5b505060cb546001600160a01b0316159150610ff590505760cb54604051632678375f60e21b81526001600160a01b03909116906399e0dd7c90611b889085908590600401614678565b600060405180830381600087803b158015611ba257600080fd5b505af1158015611bb6573d6000803e3d6000fd5b505050505050565b600081565b604051806040016040528060148152602001732aa7299d1026b4b73a34b7339026b0b730b3b2b960611b81525081565b600083815260ce60205260408120805485929190611c1090614c38565b905011611c2f5760405162461bcd60e51b8152600401610ac990614b07565b837f0f4a10a4f46c288cea365fcf45cccf0e9d901b945b9829ccdb54c10dc3cb7a6f14611c6e5760405162461bcd60e51b8152600401610ac990614a6f565b6000611cb08585858080601f0160208091040260200160405190810160405280939291908181526020018383808284376000920191909152506124c292505050565b9050600060ca60009054906101000a90046001600160a01b03166001600160a01b0316637b1039996040518163ffffffff1660e01b815260040160206040518083038186803b158015611d0257600080fd5b505afa158015611d16573d6000803e3d6000fd5b505050506040513d601f19601f82011682018060405250810190611d3a9190613af3565b90506000816001600160a01b0316636352211e846040518263ffffffff1660e01b8152600401611d6a919061463e565b60206040518083038186803b158015611d8257600080fd5b505afa158015611d96573d6000803e3d6000fd5b505050506040513d601f19601f82011682018060405250810190611dba9190613af3565b604051630852cd8d60e31b81529091506001600160a01b038316906342966c6890611de990869060040161463e565b600060405180830381600087803b158015611e0357600080fd5b505af1158015611e17573d6000803e3d6000fd5b505060c954604080516020601f8b018190048102820181019092528981526001600160a01b03909216935063e6a0d54f925084918791611e73918d918d908d908190840183828082843760009201919091525061253e92505050565b6040518463ffffffff1660e01b8152600401611e9193929190614479565b600060405180830381600087803b158015611eab57600080fd5b505af1158015611796573d6000803e3d6000fd5b60cb546001600160a01b031681565b600061098b600080516020614d1083398151915283611a13565b611ef3610802612578565b611f0f5760405162461bcd60e51b8152600401610ac99061497f565b600083815260ce60205260408120805485929190611f2c90614c38565b905011611f4b5760405162461bcd60e51b8152600401610ac990614b07565b611f53611549565b15611f705760405162461bcd60e51b8152600401610ac990614aa6565b6111f2858585858080601f01602080910402602001604051908101604052809392919081815260200183838082843760009201919091525061259c92505050565b6000611fbb610a6a565b15801561098b575060405161201590611ffa907f1ec047073e2c8b15660901dbfdb6e3ff6365bd699dd9f95dcc6eab5448bebd699085906020016141d9565b60405160208183030381529060405280519060200120610a8a565b5460ff1692915050565b612027612578565b6001600160a01b031661203861194d565b6001600160a01b03161461205e5760405162461bcd60e51b8152600401610ac990614a3a565b610fb0816130cb565b61206f612578565b6001600160a01b031661208061194d565b6001600160a01b0316146120a65760405162461bcd60e51b8152600401610ac990614a3a565b610ff582828080601f01602080910402602001604051908101604052809392919081815260200183838082843760009201919091525061311692505050565b600054610100900460ff16806120fe575060005460ff16155b61211a5760405162461bcd60e51b8152600401610ac990614931565b600054610100900460ff16158015612145576000805460ff1961ff0019909116610100171660011790555b60c980546001600160a01b03199081166001600160a01b038a81169190911790925560ca8054821689841617905560cb8054821688841617905560cc8054821687841617905560cd80549091169185169190911790556121a361323a565b6121ab613306565b6121b48261338c565b6121bc61340a565b6121c46134a6565b6121cd30612fc8565b6040805161016081018252600661012082018181526563727970746f60d01b610140840152825282518084018452908152651dd85b1b195d60d21b6020828101919091528083019190915282518084018452600481526331b7b4b760e11b81830152828401528251808401845260018152600f60fb1b818301526060830152825180840184526003808252621b999d60ea1b82840152608084019190915283518085018552600a815269313637b1b5b1b430b4b760b11b8184015260a08401528351808501855260078152663134ba31b7b4b760c91b8184015260c0840152835180850185528181526207070760eb1b8184015260e0840152835180850190945283526264616f60e81b9083015261010081019190915260005b600981101561232f5761231d82826009811061231357634e487b7160e01b600052603260045260246000fd5b6020020151613116565b8061232781614c73565b9150506122e7565b50508015611531576000805461ff001916905550505050505050565b60ca546001600160a01b031681565b600087815260ce6020526040812080548992919061237790614c38565b9050116123965760405162461bcd60e51b8152600401610ac990614b07565b61239e611549565b156123bb5760405162461bcd60e51b8152600401610ac990614aa6565b610eeb89896123ca8a8a612587565b88888888612a04565b600080516020614d1083398151915281565b6123ee82610d77565b6123fa81610f54612578565b610f63838361297f565b61240f610802612578565b61242b5760405162461bcd60e51b8152600401610ac99061497f565b610ff5828261351f565b61243d612578565b6001600160a01b031661244e61194d565b6001600160a01b0316146124745760405162461bcd60e51b8152600401610ac990614a3a565b61247d8161356b565b610fb060008261362c565b604051806040016040528060058152602001640302e322e360dc1b81525081565b6001600160e01b031981166301ffc9a760e01b14919050565b60008151600014156124e65760405162461bcd60e51b8152600401610ac990614ad0565b82826040516020016124f891906141f7565b6040516020818303038152906040528051906020012060405160200161251f9291906141d9565b60408051601f1981840301815291905280516020909101209392505050565b600082815260ce6020908152604091829020915160609261256192859201614213565b604051602081830303815290604052905092915050565b6000612582613636565b905090565b60608282604051602001612561929190614303565b60006125a883836124c2565b90506125b381613664565b6125bc83613696565b1561262f5760ca5460cd5460405163c36c212560e01b81526001600160a01b039283169263c36c2125926125f8928992889216906004016143fc565b600060405180830381600087803b15801561261257600080fd5b505af1158015612626573d6000803e3d6000fd5b50505050610e08565b60c9546001600160a01b031663d3fc9864858361264c878761253e565b6040518463ffffffff1660e01b815260040161266a93929190614479565b600060405180830381600087803b15801561268457600080fd5b505af1158015612698573d6000803e3d6000fd5b5050505050505050565b60006126ae88886124c2565b90506126b981613664565b6126c288613696565b156127aa5760ca5460cd54604051630f95e75b60e31b81526001600160a01b0392831692637caf3ad892612700928e928d9216908890600401614431565b600060405180830381600087803b15801561271a57600080fd5b505af115801561272e573d6000803e3d6000fd5b5050861591506127a590505760cd54604051633a0deb9d60e21b81526001600160a01b039091169063e837ae749061277290899089908990899088906004016145f9565b600060405180830381600087803b15801561278c57600080fd5b505af11580156127a0573d6000803e3d6000fd5b505050505b610eeb565b60c9546001600160a01b031663efda4d3e8a836127c78c8c61253e565b8a8a8a8a8a6040518963ffffffff1660e01b8152600401610d3a9897969594939291906144fd565b6127f7610a6a565b156128145760405162461bcd60e51b8152600401610ac9906146cb565b600161282d600080516020614cf0833981519152610a8a565b805460ff19169115159190911790557f079c4efaefd9fc7ddb28144b9b0140c03f42922d28d0e226369d607092158166612865612578565b604051612872919061439e565b60405180910390a1565b6128868282611a13565b610ff55761289e816001600160a01b031660146136d4565b6128a98360206136d4565b6040516020016128ba929190614329565b60408051601f198184030181529082905262461bcd60e51b8252610ac991600401614665565b6128ea8282611a13565b610ff55760008281526097602090815260408083206001600160a01b03851684529091529020805460ff19166001179055612923612578565b6001600160a01b0316816001600160a01b0316837f2f8788117e7eff1d82e926ec794901d17c78024a50270940304540a733656f0d60405160405180910390a45050565b610fb0600080516020614d10833981519152826123e5565b6129898282611a13565b15610ff55760008281526097602090815260408083206001600160a01b03851684529091529020805460ff191690556129c0612578565b6001600160a01b0316816001600160a01b0316837ff6391f5c32d9c69d2a47ea670b442974b53935d1edc7fd64eb21e047a839171b60405160405180910390a45050565b6000612a1087876124c2565b9050612a1b81613664565b612a2487613696565b15612b0a5760ca5460cd5460405163c36c212560e01b81526001600160a01b039283169263c36c212592612a60928d928c9216906004016143fc565b600060405180830381600087803b158015612a7a57600080fd5b505af1158015612a8e573d6000803e3d6000fd5b505085159150612b0590505760cd54604051633a0deb9d60e21b81526001600160a01b039091169063e837ae7490612ad290889088908890889088906004016145f9565b600060405180830381600087803b158015612aec57600080fd5b505af1158015612b00573d6000803e3d6000fd5b505050505b612698565b60c9546001600160a01b031663b0f591778983612b278b8b61253e565b898989896040518863ffffffff1660e01b8152600401612b4d97969594939291906144a0565b600060405180830381600087803b158015612b6757600080fd5b505af1158015612b7b573d6000803e3d6000fd5b505050505050505050505050565b612b91611549565b612bad5760405162461bcd60e51b8152600401610ac99061488a565b6000612bc6600080516020614cd0833981519152610a8a565b805460ff19169115159190911790557f5db9ee0a495bf2e6ff9c91a7834c1ba4fdd244a5e8aa4e537bd38aeae4b073aa612865612578565b612c06610a6a565b15612c235760405162461bcd60e51b8152600401610ac9906146cb565b6001612c5e7f1ec047073e2c8b15660901dbfdb6e3ff6365bd699dd9f95dcc6eab5448bebd6960001b83604051602001611ffa9291906141d9565b805460ff19169115159190911790556040517f2ce5d9351b1d590d5a066db0d2dc7602d55f092506a83a7ee8c4d78ee357d75a90612c9d90839061463e565b60405180910390a150565b6000612cea8585858080601f0160208091040260200160405190810160405280939291908181526020018383808284376000920191909152506124c292505050565b9050612cf581613664565b612cfe85613696565b15612d765760ca5460cd54604051630f95e75b60e31b81526001600160a01b0392831692637caf3ad892612d3f928b928a928a9291169089906004016143b2565b600060405180830381600087803b158015612d5957600080fd5b505af1158015612d6d573d6000803e3d6000fd5b50505050611bb6565b60c954604080516020601f87018190048102820181019092528581526001600160a01b039092169163b55bc6179189918591612dce918b918b908b908190840183828082843760009201919091525061253e92505050565b866040518563ffffffff1660e01b8152600401612dee949392919061456f565b600060405180830381600087803b158015612e0857600080fd5b505af1158015612e1c573d6000803e3d6000fd5b50505050505050505050565b600081604051602001612e3b91906142d2565b604051602081830303815290604052805190602001209050919050565b600080600080845160411415612e825750505060208201516040830151606084015160001a612ec8565b845160401415612eb05750505060408201516020830151906001600160ff1b0381169060ff1c601b01612ec8565b60405162461bcd60e51b8152600401610ac990614773565b612ed48682858561388c565b9695505050505050565b612ee781613982565b612ef081611ece565b610fb05760405162461bcd60e51b8152600401610ac9906149f6565b60006001600160e01b0319841663ae2ad90360e01b1480612f3d57506001600160e01b03198416630260c0cf60e51b145b80612f5857506001600160e01b031984166358839d6b60e01b145b80612f7357506001600160e01b0319841663039ccf4d60e41b145b80612f8e57506001600160e01b031984166327bbd22560e01b145b80612fa957506001600160e01b03198416633516912b60e11b145b905080610e085760405162461bcd60e51b8152600401610ac99061472d565b610fb0600080516020614d108339815191528261362c565b612fe8611549565b156130055760405162461bcd60e51b8152600401610ac990614aa6565b600161301e600080516020614cd0833981519152610a8a565b805460ff19169115159190911790557f62e78cea01bee320cd4e420270b5ea74000d11b0c9f74754ebdbfc544b05a258612865612578565b61305e610a6a565b61307a5760405162461bcd60e51b8152600401610ac9906147aa565b6000613093600080516020614cf0833981519152610a8a565b805460ff19169115159190911790557f316c4cec74b9568f102eda30781a2fe8cd5172329bf1401e804cb8c5131715c4612865612578565b806130f57f893ef2ea16c023f61d4f55d3e6ee3fc3f2fbfd478461323dbc2fbf919047086e610a8a565b80546001600160a01b0319166001600160a01b039290921691909117905550565b60006131236000836124c2565b600081815260ce6020908152604090912084519293506131479290918501906139ac565b50807f4fce6f6e172b04eaa80325d8e3b0180a34945000f3e214605039e8420fdf8980836040516131789190614665565b60405180910390a260c954604051634f558e7960e01b81526001600160a01b0390911690634f558e79906131b090849060040161463e565b60206040518083038186803b1580156131c857600080fd5b505afa1580156131dc573d6000803e3d6000fd5b505050506040513d601f19601f820116820180604052508101906132009190613e7b565b610ff55760c9546040516334ff261960e21b81526001600160a01b039091169063d3fc986490611b889061dead9085908790600401614479565b600054610100900460ff1680613253575060005460ff16155b61326f5760405162461bcd60e51b8152600401610ac990614931565b600054610100900460ff1615801561329a576000805460ff1961ff0019909116610100171660011790555b60006132a4612578565b603380546001600160a01b0319166001600160a01b038316908117909155604051919250906000907f8be0079c531659141344cd1fd0a4f28419497f9722a3daafe3b4186f6b6457e0908290a3508015610fb0576000805461ff001916905550565b600054610100900460ff168061331f575060005460ff16155b61333b5760405162461bcd60e51b8152600401610ac990614931565b600054610100900460ff16158015613366576000805460ff1961ff0019909116610100171660011790555b6133786000613373612578565b61362c565b8015610fb0576000805461ff001916905550565b600054610100900460ff16806133a5575060005460ff16155b6133c15760405162461bcd60e51b8152600401610ac990614931565b600054610100900460ff161580156133ec576000805460ff1961ff0019909116610100171660011790555b6133f5826130cb565b8015610ff5576000805461ff00191690555050565b600054610100900460ff1680613423575060005460ff16155b61343f5760405162461bcd60e51b8152600401610ac990614931565b600054610100900460ff1615801561346a576000805460ff1961ff0019909116610100171660011790555b6000613483600080516020614cf0833981519152610a8a565b805460ff19169115159190911790558015610fb0576000805461ff001916905550565b600054610100900460ff16806134bf575060005460ff16155b6134db5760405162461bcd60e51b8152600401610ac990614931565b600054610100900460ff16158015613506576000805460ff1961ff0019909116610100171660011790555b6000613483600080516020614cd0833981519152610a8a565b60005b81811015610f635761355983838381811061354d57634e487b7160e01b600052603260045260246000fd5b90506020020135612bfe565b8061356381614c73565b915050613522565b613573612578565b6001600160a01b031661358461194d565b6001600160a01b0316146135aa5760405162461bcd60e51b8152600401610ac990614a3a565b6001600160a01b0381166135d05760405162461bcd60e51b8152600401610ac9906147d6565b6033546040516001600160a01b038084169216907f8be0079c531659141344cd1fd0a4f28419497f9722a3daafe3b4186f6b6457e090600090a3603380546001600160a01b0319166001600160a01b0392909216919091179055565b610ff582826128e0565b600061364133611425565b15613655575060331936013560601c610a8a565b61365d6139a8565b9050610a8a565b61366c610a6a565b610fb05761367981611fb1565b156111455760405162461bcd60e51b8152600401610ac9906148fa565b60ca546000906001600160a01b03161580159061098b5750507f0f4a10a4f46c288cea365fcf45cccf0e9d901b945b9829ccdb54c10dc3cb7a6f1490565b606060006136e3836002614bd6565b6136ee906002614bbe565b6001600160401b0381111561371357634e487b7160e01b600052604160045260246000fd5b6040519080825280601f01601f19166020018201604052801561373d576020820181803683370190505b509050600360fc1b8160008151811061376657634e487b7160e01b600052603260045260246000fd5b60200101906001600160f81b031916908160001a905350600f60fb1b816001815181106137a357634e487b7160e01b600052603260045260246000fd5b60200101906001600160f81b031916908160001a90535060006137c7846002614bd6565b6137d2906001614bbe565b90505b6001811115613866576f181899199a1a9b1b9c1cb0b131b232b360811b85600f166010811061381457634e487b7160e01b600052603260045260246000fd5b1a60f81b82828151811061383857634e487b7160e01b600052603260045260246000fd5b60200101906001600160f81b031916908160001a90535060049490941c9361385f81614c21565b90506137d5565b5083156138855760405162461bcd60e51b8152600401610ac9906146f8565b9392505050565b60007f7fffffffffffffffffffffffffffffff5d576e7357a4501ddfe92f46681b20a08211156138ce5760405162461bcd60e51b8152600401610ac9906148b8565b8360ff16601b14806138e357508360ff16601c145b6138ff5760405162461bcd60e51b8152600401610ac9906149b4565b6000600186868686604051600081526020016040526040516139249493929190614647565b6020604051602081039080840390855afa158015613946573d6000803e3d6000fd5b5050604051601f1901519150506001600160a01b0381166139795760405162461bcd60e51b8152600401610ac990614694565b95945050505050565b6001600160a01b038116610fb05760405162461bcd60e51b8152600401610ac99061481c565b3390565b8280546139b890614c38565b90600052602060002090601f0160209004810192826139da5760008555613a20565b82601f106139f357805160ff1916838001178555613a20565b82800160010185558215613a20579182015b82811115613a20578251825591602001919060010190613a05565b50613a2c929150613a30565b5090565b5b80821115613a2c5760008155600101613a31565b803561098e81614cba565b60008083601f840112613a61578182fd5b5081356001600160401b03811115613a77578182fd5b6020830191508360208083028501011115613a9157600080fd5b9250929050565b60008083601f840112613aa9578182fd5b5081356001600160401b03811115613abf578182fd5b602083019150836020828501011115613a9157600080fd5b600060208284031215613ae8578081fd5b813561388581614cba565b600060208284031215613b04578081fd5b815161388581614cba565b60008060008060608587031215613b24578283fd5b8435613b2f81614cba565b93506020850135925060408501356001600160401b03811115613b50578283fd5b613b5c87828801613a98565b95989497509550505050565b60008060008060008060008060a0898b031215613b83578384fd5b8835613b8e81614cba565b97506020890135965060408901356001600160401b0380821115613bb0578586fd5b613bbc8c838d01613a98565b909850965060608b0135915080821115613bd4578586fd5b613be08c838d01613a50565b909650945060808b0135915080821115613bf8578384fd5b50613c058b828c01613a50565b999c989b5096995094979396929594505050565b60008060008060008060008060008060c08b8d031215613c37578182fd5b613c408b613a45565b995060208b0135985060408b01356001600160401b0380821115613c62578384fd5b613c6e8e838f01613a98565b909a50985060608d0135915080821115613c86578384fd5b613c928e838f01613a50565b909850965060808d0135915080821115613caa578384fd5b613cb68e838f01613a50565b909650945060a08d0135915080821115613cce578384fd5b50613cdb8d828e01613a98565b915080935050809150509295989b9194979a5092959850565b60008060008060008060808789031215613d0c578384fd5b8635613d1781614cba565b95506020870135945060408701356001600160401b0380821115613d39578586fd5b613d458a838b01613a98565b90965094506060890135915080821115613d5d578384fd5b50613d6a89828a01613a98565b979a9699509497509295939492505050565b60006020808385031215613d8e578182fd5b82356001600160401b0380821115613da4578384fd5b818501915085601f830112613db7578384fd5b813581811115613dc957613dc9614ca4565b83810260405185828201018181108582111715613de857613de8614ca4565b604052828152858101935084860182860187018a1015613e06578788fd5b8795505b83861015613e2f57613e1b81613a45565b855260019590950194938601938601613e0a565b5098975050505050505050565b60008060208385031215613e4e578182fd5b82356001600160401b03811115613e63578283fd5b613e6f85828601613a50565b90969095509350505050565b600060208284031215613e8c578081fd5b81518015158114613885578182fd5b600060208284031215613eac578081fd5b5035919050565b60008060408385031215613ec5578182fd5b823591506020830135613ed781614cba565b809150509250929050565b600060208284031215613ef3578081fd5b81356001600160e01b031981168114613885578182fd5b60008060008060408587031215613f1f578182fd5b84356001600160401b0380821115613f35578384fd5b613f4188838901613a98565b90965094506020870135915080821115613f59578384fd5b50613b5c87828801613a98565b60008060008060008060c08789031215613f7e578384fd5b8635613f8981614cba565b95506020870135613f9981614cba565b94506040870135613fa981614cba565b93506060870135613fb981614cba565b92506080870135613fc981614cba565b915060a0870135613fd981614cba565b809150509295509295509295565b60008060208385031215613ff9578182fd5b82356001600160401b0381111561400e578283fd5b613e6f85828601613a98565b60008060006040848603121561402e578081fd5b8335925060208401356001600160401b0381111561404a578182fd5b61405686828701613a98565b9497909650939450505050565b60008060008060006060868803121561407a578283fd5b8535945060208601356001600160401b0380821115614097578485fd5b6140a389838a01613a98565b909650945060408801359150808211156140bb578283fd5b506140c888828901613a98565b969995985093965092949392505050565b818352602080840193600091908185020181018584845b878110156141565782840389528135601e19883603018112614110578687fd5b870180356001600160401b03811115614127578788fd5b803603891315614135578788fd5b6141428682898501614163565b9a87019a95505050908401906001016140f0565b5091979650505050505050565b60008284528282602086013780602084860101526020601f19601f85011685010190509392505050565b600081518084526141a5816020860160208601614bf5565b601f01601f19169290920160200192915050565b91825260601b6bffffffffffffffffffffffff1916602082015260340190565b918252602082015260400190565b6000828483379101908152919050565b60008251614209818460208701614bf5565b9190910192915050565b6000835160206142268285838901614bf5565b601760f91b91840191825284546001908490600281048184168061424b57607f821691505b85821081141561426957634e487b7160e01b88526022600452602488fd5b80801561427d5760018114614292576142c2565b60ff19841688870152828801860194506142c2565b61429b8b614bb2565b895b848110156142b85781548a820189015290870190880161429d565b5050858389010194505b50929a9950505050505050505050565b7f19457468657265756d205369676e6564204d6573736167653a0a3332000000008152601c810191909152603c0190565b6000697564746573746465762d60b01b82528284600a8401379101600a01908152919050565b60007f416363657373436f6e74726f6c3a206163636f756e742000000000000000000082528351614361816017850160208801614bf5565b7001034b99036b4b9b9b4b733903937b6329607d1b6017918401918201528351614392816028840160208801614bf5565b01602801949350505050565b6001600160a01b0391909116815260200190565b600060018060a01b038088168352608060208401526143d5608084018789614163565b818616604085015283810360608501526143ef818661418d565b9998505050505050505050565b600060018060a01b0380861683526060602084015261441e606084018661418d565b9150808416604084015250949350505050565b600060018060a01b03808716835260806020840152614453608084018761418d565b8186166040850152838103606085015261446d818661418d565b98975050505050505050565b600060018060a01b038516825283602083015260606040830152613979606083018461418d565b600060018060a01b038916825287602083015260a060408301526144c760a083018861418d565b82810360608401526144da8187896140d9565b905082810360808401526144ef8185876140d9565b9a9950505050505050505050565b600060018060a01b038a16825288602083015260c0604083015261452460c083018961418d565b828103606084015261453781888a6140d9565b9050828103608084015261454c8186886140d9565b905082810360a0840152614560818561418d565b9b9a5050505050505050505050565b600060018060a01b038616825284602083015260806040830152614596608083018561418d565b82810360608401526145a8818561418d565b979650505050505050565b6020808252825182820181905260009190848201906040850190845b818110156145ed5783511515835292840192918401916001016145cf565b50909695505050505050565b60006060825261460d6060830187896140d9565b82810360208401526146208186886140d9565b9150508260408301529695505050505050565b901515815260200190565b90815260200190565b93845260ff9290921660208401526040830152606082015260800190565b600060208252613885602083018461418d565b60006020825261468c602083018486614163565b949350505050565b60208082526018908201527f45434453413a20696e76616c6964207369676e61747572650000000000000000604082015260600190565b602080825260139082015272109b1bd8dadb1a5cdd0e88111254d050931151606a1b604082015260600190565b6020808252818101527f537472696e67733a20686578206c656e67746820696e73756666696369656e74604082015260600190565b60208082526026908201527f4d696e74696e674d616e616765723a20554e535550504f525445445f52454c416040820152651657d0d0531360d21b606082015260800190565b6020808252601f908201527f45434453413a20696e76616c6964207369676e6174757265206c656e67746800604082015260600190565b602080825260129082015271109b1bd8dadb1a5cdd0e881153905093115160721b604082015260600190565b60208082526026908201527f4f776e61626c653a206e6577206f776e657220697320746865207a65726f206160408201526564647265737360d01b606082015260800190565b6020808252601d908201527f52656c617965723a205349474e41545552455f49535f494e56414c4944000000604082015260600190565b6020808252601d908201527f4d696e746572526f6c653a2052454345495645525f49535f454d505459000000604082015260600190565b60208082526014908201527314185d5cd8589b194e881393d517d4105554d15160621b604082015260600190565b60208082526022908201527f45434453413a20696e76616c6964207369676e6174757265202773272076616c604082015261756560f01b606082015260800190565b6020808252601d908201527f4d696e74696e674d616e616765723a20544f4b454e5f424c4f434b4544000000604082015260600190565b6020808252602e908201527f496e697469616c697a61626c653a20636f6e747261637420697320616c72656160408201526d191e481a5b9a5d1a585b1a5e995960921b606082015260800190565b6020808252818101527f4d696e746572526f6c653a2043414c4c45525f49535f4e4f545f4d494e544552604082015260600190565b60208082526022908201527f45434453413a20696e76616c6964207369676e6174757265202776272076616c604082015261756560f01b606082015260800190565b60208082526024908201527f4d696e74696e674d616e616765723a205349474e45525f49535f4e4f545f4d49604082015263272a22a960e11b606082015260800190565b6020808252818101527f4f776e61626c653a2063616c6c6572206973206e6f7420746865206f776e6572604082015260600190565b6020808252601f908201527f4d696e74696e674d616e616765723a2043525950544f5f544c445f4f4e4c5900604082015260600190565b60208082526010908201526f14185d5cd8589b194e8814105554d15160821b604082015260600190565b6020808252601b908201527f4d696e74696e674d616e616765723a204c4142454c5f454d5054590000000000604082015260600190565b60208082526022908201527f4d696e74696e674d616e616765723a20544c445f4e4f545f5245474953544552604082015261115160f21b606082015260800190565b6020808252602f908201527f416363657373436f6e74726f6c3a2063616e206f6e6c792072656e6f756e636560408201526e103937b632b9903337b91039b2b63360891b606082015260800190565b600084825260406020830152613979604083018486614163565b60009081526020902090565b60008219821115614bd157614bd1614c8e565b500190565b6000816000190483118215151615614bf057614bf0614c8e565b500290565b60005b83811015614c10578181015183820152602001614bf8565b83811115610e085750506000910152565b600081614c3057614c30614c8e565b506000190190565b600281046001821680614c4c57607f821691505b60208210811415614c6d57634e487b7160e01b600052602260045260246000fd5b50919050565b6000600019821415614c8757614c87614c8e565b5060010190565b634e487b7160e01b600052601160045260246000fd5b634e487b7160e01b600052604160045260246000fd5b6001600160a01b0381168114610fb057600080fdfe5496787fc1ebdfeba375028c1865f13fbb1d63c0caa356ccc1b29a80f3ebd622a85b8425a460dd344a297bd4a82e287385f0fc558cb3e78867b0489f43df24709f2df0fed2c77648de5860a4cc508cd0818c85b8b8a1ab4ceeef8d981c8956a6a164736f6c6343000800000a",
  "linkReferences": {},
  "deployedLinkReferences": {}
}