{
  "_format": "hh-sol-artifact-1",
  "contractName": "MintingManager",
  "sourceName": "contracts/MintingManager.sol",
  "abi": [
    {
      "anonymous": false,
      "inputs": [
        {
          "indexed": false,
          "internalType": "address",
          "name": "previousAdmin",
          "type": "address"
        },
        {
          "indexed": false,
          "internalType": "address",
          "name": "newAdmin",
          "type": "address"
        }
      ],
      "name": "AdminChanged",
      "type": "event"
    },
    {
      "anonymous": false,
      "inputs": [
        {
          "indexed": false,
          "internalType": "uint256",
          "name": "tokenId",
          "type": "uint256"
        }
      ],
      "name": "Blocked",
      "type": "event"
    },
    {
      "anonymous": false,
      "inputs": [
        {
          "indexed": false,
          "internalType": "address",
          "name": "account",
          "type": "address"
        }
      ],
      "name": "BlocklistDisabled",
      "type": "event"
    },
    {
      "anonymous": false,
      "inputs": [
        {
          "indexed": false,
          "internalType": "address",
          "name": "account",
          "type": "address"
        }
      ],
      "name": "BlocklistEnabled",
      "type": "event"
    },
    {
      "anonymous": false,
      "inputs": [
        {
          "indexed": false,
          "internalType": "uint8",
          "name": "version",
          "type": "uint8"
        }
      ],
      "name": "Initialized",
      "type": "event"
    },
    {
      "anonymous": false,
      "inputs": [
        {
          "indexed": true,
          "internalType": "uint256",
          "name": "tokenId",
          "type": "uint256"
        },
        {
          "indexed": false,
          "internalType": "string",
          "name": "tld",
          "type": "string"
        }
      ],
      "name": "NewTld",
      "type": "event"
    },
    {
      "anonymous": false,
      "inputs": [
        {
          "indexed": true,
          "internalType": "address",
          "name": "previousOwner",
          "type": "address"
        },
        {
          "indexed": true,
          "internalType": "address",
          "name": "newOwner",
          "type": "address"
        }
      ],
      "name": "OwnershipTransferred",
      "type": "event"
    },
    {
      "anonymous": false,
      "inputs": [
        {
          "indexed": false,
          "internalType": "address",
          "name": "account",
          "type": "address"
        }
      ],
      "name": "Paused",
      "type": "event"
    },
    {
      "anonymous": false,
      "inputs": [
        {
          "indexed": true,
          "internalType": "uint256",
          "name": "tokenId",
          "type": "uint256"
        }
      ],
      "name": "RemoveTld",
      "type": "event"
    },
    {
      "anonymous": false,
      "inputs": [
        {
          "indexed": true,
          "internalType": "bytes32",
          "name": "role",
          "type": "bytes32"
        },
        {
          "indexed": true,
          "internalType": "bytes32",
          "name": "previousAdminRole",
          "type": "bytes32"
        },
        {
          "indexed": true,
          "internalType": "bytes32",
          "name": "newAdminRole",
          "type": "bytes32"
        }
      ],
      "name": "RoleAdminChanged",
      "type": "event"
    },
    {
      "anonymous": false,
      "inputs": [
        {
          "indexed": true,
          "internalType": "bytes32",
          "name": "role",
          "type": "bytes32"
        },
        {
          "indexed": true,
          "internalType": "address",
          "name": "account",
          "type": "address"
        },
        {
          "indexed": true,
          "internalType": "address",
          "name": "sender",
          "type": "address"
        }
      ],
      "name": "RoleGranted",
      "type": "event"
    },
    {
      "anonymous": false,
      "inputs": [
        {
          "indexed": true,
          "internalType": "bytes32",
          "name": "role",
          "type": "bytes32"
        },
        {
          "indexed": true,
          "internalType": "address",
          "name": "account",
          "type": "address"
        },
        {
          "indexed": true,
          "internalType": "address",
          "name": "sender",
          "type": "address"
        }
      ],
      "name": "RoleRevoked",
      "type": "event"
    },
    {
      "anonymous": false,
      "inputs": [
        {
          "indexed": false,
          "internalType": "address",
          "name": "account",
          "type": "address"
        }
      ],
      "name": "Unpaused",
      "type": "event"
    },
    {
      "anonymous": false,
      "inputs": [
        {
          "indexed": true,
          "internalType": "address",
          "name": "implementation",
          "type": "address"
        }
      ],
      "name": "Upgraded",
      "type": "event"
    },
    {
      "inputs": [],
      "name": "DEFAULT_ADMIN_ROLE",
      "outputs": [
        {
          "internalType": "bytes32",
          "name": "",
          "type": "bytes32"
        }
      ],
      "stateMutability": "view",
      "type": "function"
    },
    {
      "inputs": [],
      "name": "MINTER_ROLE",
      "outputs": [
        {
          "internalType": "bytes32",
          "name": "",
          "type": "bytes32"
        }
      ],
      "stateMutability": "view",
      "type": "function"
    },
    {
      "inputs": [],
      "name": "NAME",
      "outputs": [
        {
          "internalType": "string",
          "name": "",
          "type": "string"
        }
      ],
      "stateMutability": "view",
      "type": "function"
    },
    {
      "inputs": [],
      "name": "VERSION",
      "outputs": [
        {
          "internalType": "string",
          "name": "",
          "type": "string"
        }
      ],
      "stateMutability": "view",
      "type": "function"
    },
    {
      "inputs": [
        {
          "internalType": "address",
          "name": "account",
          "type": "address"
        }
      ],
      "name": "addMinter",
      "outputs": [],
      "stateMutability": "nonpayable",
      "type": "function"
    },
    {
      "inputs": [
        {
          "internalType": "address[]",
          "name": "accounts",
          "type": "address[]"
        }
      ],
      "name": "addMinters",
      "outputs": [],
      "stateMutability": "nonpayable",
      "type": "function"
    },
    {
      "inputs": [
        {
          "internalType": "address[]",
          "name": "addrs",
          "type": "address[]"
        }
      ],
      "name": "addProxyReaders",
      "outputs": [],
      "stateMutability": "nonpayable",
      "type": "function"
    },
    {
      "inputs": [
        {
          "internalType": "string",
          "name": "tld",
          "type": "string"
        }
      ],
      "name": "addTld",
      "outputs": [],
      "stateMutability": "nonpayable",
      "type": "function"
    },
    {
      "inputs": [
        {
          "internalType": "uint256[]",
          "name": "tokenIds",
          "type": "uint256[]"
        }
      ],
      "name": "areBlocked",
      "outputs": [
        {
          "internalType": "bool[]",
          "name": "values",
          "type": "bool[]"
        }
      ],
      "stateMutability": "view",
      "type": "function"
    },
    {
      "inputs": [
        {
          "internalType": "uint256",
          "name": "tokenId",
          "type": "uint256"
        }
      ],
      "name": "blocklist",
      "outputs": [],
      "stateMutability": "nonpayable",
      "type": "function"
    },
    {
      "inputs": [
        {
          "internalType": "uint256[]",
          "name": "tokenIds",
          "type": "uint256[]"
        }
      ],
      "name": "blocklistAll",
      "outputs": [],
      "stateMutability": "nonpayable",
      "type": "function"
    },
    {
      "inputs": [
        {
          "internalType": "uint256",
          "name": "tld",
          "type": "uint256"
        },
        {
          "internalType": "string",
          "name": "label",
          "type": "string"
        }
      ],
      "name": "claim",
      "outputs": [],
      "stateMutability": "nonpayable",
      "type": "function"
    },
    {
      "inputs": [
        {
          "internalType": "address",
          "name": "to",
          "type": "address"
        },
        {
          "internalType": "uint256",
          "name": "tld",
          "type": "uint256"
        },
        {
          "internalType": "string",
          "name": "label",
          "type": "string"
        }
      ],
      "name": "claimTo",
      "outputs": [],
      "stateMutability": "nonpayable",
      "type": "function"
    },
    {
      "inputs": [
        {
          "internalType": "address",
          "name": "to",
          "type": "address"
        },
        {
          "internalType": "uint256",
          "name": "tld",
          "type": "uint256"
        },
        {
          "internalType": "string",
          "name": "label",
          "type": "string"
        },
        {
          "internalType": "string[]",
          "name": "keys",
          "type": "string[]"
        },
        {
          "internalType": "string[]",
          "name": "values",
          "type": "string[]"
        }
      ],
      "name": "claimToWithRecords",
      "outputs": [],
      "stateMutability": "nonpayable",
      "type": "function"
    },
    {
      "inputs": [
        {
          "internalType": "address payable",
          "name": "receiver",
          "type": "address"
        }
      ],
      "name": "closeMinter",
      "outputs": [],
      "stateMutability": "payable",
      "type": "function"
    },
    {
      "inputs": [],
      "name": "cnsMintingController",
      "outputs": [
        {
          "internalType": "contract IMintingController",
          "name": "",
          "type": "address"
        }
      ],
      "stateMutability": "view",
      "type": "function"
    },
    {
      "inputs": [],
      "name": "cnsResolver",
      "outputs": [
        {
          "internalType": "contract IResolver",
          "name": "",
          "type": "address"
        }
      ],
      "stateMutability": "view",
      "type": "function"
    },
    {
      "inputs": [],
      "name": "cnsURIPrefixController",
      "outputs": [
        {
          "internalType": "contract IURIPrefixController",
          "name": "",
          "type": "address"
        }
      ],
      "stateMutability": "view",
      "type": "function"
    },
    {
      "inputs": [],
      "name": "disableBlocklist",
      "outputs": [],
      "stateMutability": "nonpayable",
      "type": "function"
    },
    {
      "inputs": [],
      "name": "enableBlocklist",
      "outputs": [],
      "stateMutability": "nonpayable",
      "type": "function"
    },
    {
      "inputs": [
        {
          "internalType": "bytes32",
          "name": "role",
          "type": "bytes32"
        }
      ],
      "name": "getRoleAdmin",
      "outputs": [
        {
          "internalType": "bytes32",
          "name": "",
          "type": "bytes32"
        }
      ],
      "stateMutability": "view",
      "type": "function"
    },
    {
      "inputs": [
        {
          "internalType": "bytes32",
          "name": "role",
          "type": "bytes32"
        },
        {
          "internalType": "address",
          "name": "account",
          "type": "address"
        }
      ],
      "name": "grantRole",
      "outputs": [],
      "stateMutability": "nonpayable",
      "type": "function"
    },
    {
      "inputs": [
        {
          "internalType": "bytes32",
          "name": "role",
          "type": "bytes32"
        },
        {
          "internalType": "address",
          "name": "account",
          "type": "address"
        }
      ],
      "name": "hasRole",
      "outputs": [
        {
          "internalType": "bool",
          "name": "",
          "type": "bool"
        }
      ],
      "stateMutability": "view",
      "type": "function"
    },
    {
      "inputs": [
        {
          "internalType": "contract IUNSRegistry",
          "name": "unsRegistry_",
          "type": "address"
        },
        {
          "internalType": "contract IMintingController",
          "name": "cnsMintingController_",
          "type": "address"
        },
        {
          "internalType": "contract IURIPrefixController",
          "name": "cnsURIPrefixController_",
          "type": "address"
        },
        {
          "internalType": "contract IResolver",
          "name": "cnsResolver_",
          "type": "address"
        },
        {
          "internalType": "address",
          "name": "forwarder",
          "type": "address"
        }
      ],
      "name": "initialize",
      "outputs": [],
      "stateMutability": "nonpayable",
      "type": "function"
    },
    {
      "inputs": [
        {
          "internalType": "uint256",
          "name": "tokenId",
          "type": "uint256"
        }
      ],
      "name": "isBlocked",
      "outputs": [
        {
          "internalType": "bool",
          "name": "",
          "type": "bool"
        }
      ],
      "stateMutability": "view",
      "type": "function"
    },
    {
      "inputs": [],
      "name": "isBlocklistDisabled",
      "outputs": [
        {
          "internalType": "bool",
          "name": "",
          "type": "bool"
        }
      ],
      "stateMutability": "view",
      "type": "function"
    },
    {
      "inputs": [
        {
          "internalType": "address",
          "name": "account",
          "type": "address"
        }
      ],
      "name": "isMinter",
      "outputs": [
        {
          "internalType": "bool",
          "name": "",
          "type": "bool"
        }
      ],
      "stateMutability": "view",
      "type": "function"
    },
    {
      "inputs": [
        {
          "internalType": "address",
          "name": "forwarder",
          "type": "address"
        }
      ],
      "name": "isTrustedForwarder",
      "outputs": [
        {
          "internalType": "bool",
          "name": "",
          "type": "bool"
        }
      ],
      "stateMutability": "view",
      "type": "function"
    },
    {
      "inputs": [
        {
          "internalType": "address",
          "name": "to",
          "type": "address"
        },
        {
          "internalType": "uint256",
          "name": "tld",
          "type": "uint256"
        },
        {
          "internalType": "string",
          "name": "label",
          "type": "string"
        }
      ],
      "name": "mintSLD",
      "outputs": [],
      "stateMutability": "nonpayable",
      "type": "function"
    },
    {
      "inputs": [
        {
          "internalType": "address",
          "name": "to",
          "type": "address"
        },
        {
          "internalType": "uint256",
          "name": "tld",
          "type": "uint256"
        },
        {
          "internalType": "string",
          "name": "label",
          "type": "string"
        },
        {
          "internalType": "string[]",
          "name": "keys",
          "type": "string[]"
        },
        {
          "internalType": "string[]",
          "name": "values",
          "type": "string[]"
        }
      ],
      "name": "mintSLDWithRecords",
      "outputs": [],
      "stateMutability": "nonpayable",
      "type": "function"
    },
    {
      "inputs": [],
      "name": "owner",
      "outputs": [
        {
          "internalType": "address",
          "name": "",
          "type": "address"
        }
      ],
      "stateMutability": "view",
      "type": "function"
    },
    {
      "inputs": [],
      "name": "pause",
      "outputs": [],
      "stateMutability": "nonpayable",
      "type": "function"
    },
    {
      "inputs": [],
      "name": "paused",
      "outputs": [
        {
          "internalType": "bool",
          "name": "",
          "type": "bool"
        }
      ],
      "stateMutability": "view",
      "type": "function"
    },
    {
      "inputs": [
        {
          "internalType": "address",
          "name": "account",
          "type": "address"
        }
      ],
      "name": "removeMinter",
      "outputs": [],
      "stateMutability": "nonpayable",
      "type": "function"
    },
    {
      "inputs": [
        {
          "internalType": "address[]",
          "name": "accounts",
          "type": "address[]"
        }
      ],
      "name": "removeMinters",
      "outputs": [],
      "stateMutability": "nonpayable",
      "type": "function"
    },
    {
      "inputs": [
        {
          "internalType": "uint256",
          "name": "tld",
          "type": "uint256"
        }
      ],
      "name": "removeTld",
      "outputs": [],
      "stateMutability": "nonpayable",
      "type": "function"
    },
    {
      "inputs": [],
      "name": "renounceMinter",
      "outputs": [],
      "stateMutability": "nonpayable",
      "type": "function"
    },
    {
      "inputs": [],
      "name": "renounceOwnership",
      "outputs": [],
      "stateMutability": "nonpayable",
      "type": "function"
    },
    {
      "inputs": [
        {
          "internalType": "bytes32",
          "name": "role",
          "type": "bytes32"
        },
        {
          "internalType": "address",
          "name": "account",
          "type": "address"
        }
      ],
      "name": "renounceRole",
      "outputs": [],
      "stateMutability": "nonpayable",
      "type": "function"
    },
    {
      "inputs": [
        {
          "internalType": "bytes32",
          "name": "role",
          "type": "bytes32"
        },
        {
          "internalType": "address",
          "name": "account",
          "type": "address"
        }
      ],
      "name": "revokeRole",
      "outputs": [],
      "stateMutability": "nonpayable",
      "type": "function"
    },
    {
      "inputs": [
        {
          "internalType": "address payable",
          "name": "receiver",
          "type": "address"
        }
      ],
      "name": "rotateMinter",
      "outputs": [],
      "stateMutability": "payable",
      "type": "function"
    },
    {
      "inputs": [
        {
          "internalType": "address",
          "name": "to",
          "type": "address"
        },
        {
          "internalType": "uint256",
          "name": "tld",
          "type": "uint256"
        },
        {
          "internalType": "string",
          "name": "label",
          "type": "string"
        }
      ],
      "name": "safeMintSLD",
      "outputs": [],
      "stateMutability": "nonpayable",
      "type": "function"
    },
    {
      "inputs": [
        {
          "internalType": "address",
          "name": "to",
          "type": "address"
        },
        {
          "internalType": "uint256",
          "name": "tld",
          "type": "uint256"
        },
        {
          "internalType": "string",
          "name": "label",
          "type": "string"
        },
        {
          "internalType": "bytes",
          "name": "data",
          "type": "bytes"
        }
      ],
      "name": "safeMintSLD",
      "outputs": [],
      "stateMutability": "nonpayable",
      "type": "function"
    },
    {
      "inputs": [
        {
          "internalType": "address",
          "name": "to",
          "type": "address"
        },
        {
          "internalType": "uint256",
          "name": "tld",
          "type": "uint256"
        },
        {
          "internalType": "string",
          "name": "label",
          "type": "string"
        },
        {
          "internalType": "string[]",
          "name": "keys",
          "type": "string[]"
        },
        {
          "internalType": "string[]",
          "name": "values",
          "type": "string[]"
        }
      ],
      "name": "safeMintSLDWithRecords",
      "outputs": [],
      "stateMutability": "nonpayable",
      "type": "function"
    },
    {
      "inputs": [
        {
          "internalType": "address",
          "name": "to",
          "type": "address"
        },
        {
          "internalType": "uint256",
          "name": "tld",
          "type": "uint256"
        },
        {
          "internalType": "string",
          "name": "label",
          "type": "string"
        },
        {
          "internalType": "string[]",
          "name": "keys",
          "type": "string[]"
        },
        {
          "internalType": "string[]",
          "name": "values",
          "type": "string[]"
        },
        {
          "internalType": "bytes",
          "name": "data",
          "type": "bytes"
        }
      ],
      "name": "safeMintSLDWithRecords",
      "outputs": [],
      "stateMutability": "nonpayable",
      "type": "function"
    },
    {
      "inputs": [
        {
          "internalType": "address",
          "name": "forwarder",
          "type": "address"
        }
      ],
      "name": "setForwarder",
      "outputs": [],
      "stateMutability": "nonpayable",
      "type": "function"
    },
    {
      "inputs": [
        {
          "internalType": "address",
          "name": "resolver",
          "type": "address"
        }
      ],
      "name": "setResolver",
      "outputs": [],
      "stateMutability": "nonpayable",
      "type": "function"
    },
    {
      "inputs": [
        {
          "internalType": "string",
          "name": "prefix",
          "type": "string"
        }
      ],
      "name": "setTokenURIPrefix",
      "outputs": [],
      "stateMutability": "nonpayable",
      "type": "function"
    },
    {
      "inputs": [
        {
          "internalType": "bytes4",
          "name": "interfaceId",
          "type": "bytes4"
        }
      ],
      "name": "supportsInterface",
      "outputs": [
        {
          "internalType": "bool",
          "name": "",
          "type": "bool"
        }
      ],
      "stateMutability": "view",
      "type": "function"
    },
    {
      "inputs": [
        {
          "internalType": "address",
          "name": "newOwner",
          "type": "address"
        }
      ],
      "name": "transferOwnership",
      "outputs": [],
      "stateMutability": "nonpayable",
      "type": "function"
    },
    {
      "inputs": [],
      "name": "unpause",
      "outputs": [],
      "stateMutability": "nonpayable",
      "type": "function"
    },
    {
      "inputs": [],
      "name": "unsRegistry",
      "outputs": [
        {
          "internalType": "contract IUNSRegistry",
          "name": "",
          "type": "address"
        }
      ],
      "stateMutability": "view",
      "type": "function"
    },
    {
      "inputs": [
        {
          "internalType": "uint256[]",
          "name": "tokenIds",
          "type": "uint256[]"
        }
      ],
      "name": "upgradeAll",
      "outputs": [],
      "stateMutability": "nonpayable",
      "type": "function"
    }
  ],
  "bytecode": "0x608060405234801561001057600080fd5b506140ea806100206000396000f3fe60806040526004361061031a5760003560e01c806381c81d35116101ab578063ae2ad903116100f7578063d1f5692c11610095578063e47d6cc61161006f578063e47d6cc614610977578063ec52738914610997578063f2fde38b146109b7578063ffa1ad74146109d757600080fd5b8063d1f5692c14610915578063d539139314610935578063d547741f1461095757600080fd5b8063b9998a24116100d1578063b9998a2414610895578063c3a3bc00146108b5578063cc2c3fc4146108d5578063ceeb4f50146108f557600080fd5b8063ae2ad90314610835578063ae31844a14610855578063b0aa98c71461087557600080fd5b8063983b2d5611610164578063a217fddf1161013e578063a217fddf14610793578063a3f4df7e146107a8578063a849d65c146107f5578063aa271e1a1461081557600080fd5b8063983b2d561461073e578063986502751461075e57806399e0dd7c1461077357600080fd5b806381c81d35146106a35780638456cb59146106b65780638da5cb5b146106cb578063906cecc1146106e957806390dbdb5a1461070957806391d148541461071e57600080fd5b80633f4ba83a1161026a5780635b6fa8db11610223578063634486da116101fd578063634486da1461063b5780636a2d22561461064e578063715018a61461066e57806371e2a6571461068357600080fd5b80635b6fa8db146105e65780635c975abb146106065780635fc1964f1461061b57600080fd5b80633f4ba83a14610503578063463c4bcb146105185780634c1819e0146105385780634e543b2614610558578063572b6c051461057857806358839d6b146105c657600080fd5b806327bbd225116102d75780633092afd5116102b15780633092afd51461046b57806336568abe1461048b57806339ccf4d0146104ab5780633f41b614146104cb57600080fd5b806327bbd225146104165780632eff1a95146104365780632f2ff15d1461044b57600080fd5b806301ffc9a71461031f5780630e36a87d1461035457806310921f12146103815780631459457a14610396578063248a9ca3146103b8578063268b15ed146103f6575b600080fd5b34801561032b57600080fd5b5061033f61033a366004613832565b610a08565b60405190151581526020015b60405180910390f35b34801561036057600080fd5b5061037461036f3660046136c6565b610a3f565b60405161034b9190613da8565b34801561038d57600080fd5b5061033f610b16565b3480156103a257600080fd5b506103b66103b136600461385a565b610b31565b005b3480156103c457600080fd5b506103e86103d33660046137eb565b60009081526097602052604090206001015490565b60405190815260200161034b565b34801561040257600080fd5b506103b66104113660046138fd565b610e64565b34801561042257600080fd5b506103b66104313660046134b2565b610f66565b34801561044257600080fd5b506103b66110ca565b34801561045757600080fd5b506103b6610466366004613803565b6110dc565b34801561047757600080fd5b506103b661048636600461343d565b611106565b34801561049757600080fd5b506103b66104a6366004613803565b61111a565b3480156104b757600080fd5b506103b66104c63660046134b2565b6111a8565b3480156104d757600080fd5b5060c9546104eb906001600160a01b031681565b6040516001600160a01b03909116815260200161034b565b34801561050f57600080fd5b506103b66112f1565b34801561052457600080fd5b506103b66105333660046137eb565b611301565b34801561054457600080fd5b506103b6610553366004613459565b611331565b34801561056457600080fd5b506103b661057336600461343d565b611458565b34801561058457600080fd5b5061033f61059336600461343d565b7f893ef2ea16c023f61d4f55d3e6ee3fc3f2fbfd478461323dbc2fbf919047086e546001600160a01b0390811691161490565b3480156105d257600080fd5b506103b66105e136600461363e565b611482565b3480156105f257600080fd5b5060cc546104eb906001600160a01b031681565b34801561061257600080fd5b5061033f6115d2565b34801561062757600080fd5b506103b6610636366004613705565b6115e8565b6103b661064936600461343d565b61163e565b34801561065a57600080fd5b506103b6610669366004613563565b6116e6565b34801561067a57600080fd5b506103b6611881565b34801561068f57600080fd5b506103b661069e366004613705565b611893565b6103b66106b136600461343d565b6118e9565b3480156106c257600080fd5b506103b661194b565b3480156106d757600080fd5b506033546001600160a01b03166104eb565b3480156106f557600080fd5b506103b6610704366004613459565b61195b565b34801561071557600080fd5b506103b6611a45565b34801561072a57600080fd5b5061033f610739366004613803565b611a55565b34801561074a57600080fd5b506103b661075936600461343d565b611a80565b34801561076a57600080fd5b506103b6611a91565b34801561077f57600080fd5b506103b661078e3660046138ca565b611aab565b34801561079f57600080fd5b506103e8600081565b3480156107b457600080fd5b506107e8604051806040016040528060148152602001732aa7299d1026b4b73a34b7339026b0b730b3b2b960611b81525081565b60405161034b9190613e7e565b34801561080157600080fd5b5060cb546104eb906001600160a01b031681565b34801561082157600080fd5b5061033f61083036600461343d565b611b8a565b34801561084157600080fd5b506103b6610850366004613459565b611ba4565b34801561086157600080fd5b506103b66108703660046136c6565b611ce7565b34801561088157600080fd5b5061033f6108903660046137eb565b611d40565b3480156108a157600080fd5b506103b66108b036600461343d565b611dad565b3480156108c157600080fd5b506103b66108d03660046138ca565b611df2565b3480156108e157600080fd5b5060ca546104eb906001600160a01b031681565b34801561090157600080fd5b506103b66109103660046134b2565b611e39565b34801561092157600080fd5b506103b66109303660046136c6565b611f2c565b34801561094157600080fd5b506103e86000805160206140be83398151915281565b34801561096357600080fd5b506103b6610972366004613803565b611ff1565b34801561098357600080fd5b506103b66109923660046136c6565b612016565b3480156109a357600080fd5b506103b66109b23660046137eb565b612047565b3480156109c357600080fd5b506103b66109d236600461343d565b6120b9565b3480156109e357600080fd5b506107e8604051806040016040528060058152602001640c0b8ccb8d60da1b81525081565b60006001600160e01b03198216637965db0b60e01b1480610a3957506301ffc9a760e01b6001600160e01b03198316145b92915050565b6060816001600160401b03811115610a6757634e487b7160e01b600052604160045260246000fd5b604051908082528060200260200182016040528015610a90578160200160208202803683370190505b50905060005b82811015610b0f57610acd848483818110610ac157634e487b7160e01b600052603260045260246000fd5b90506020020135611d40565b828281518110610aed57634e487b7160e01b600052603260045260246000fd5b9115156020928302919091019091015280610b0781614001565b915050610a96565b5092915050565b600060008051602061407e8339815191525b5460ff16919050565b600054610100900460ff1615808015610b515750600054600160ff909116105b80610b6b5750303b158015610b6b575060005460ff166001145b610bd35760405162461bcd60e51b815260206004820152602e60248201527f496e697469616c697a61626c653a20636f6e747261637420697320616c72656160448201526d191e481a5b9a5d1a585b1a5e995960921b60648201526084015b60405180910390fd5b6000805460ff191660011790558015610bf6576000805461ff0019166101001790555b60c980546001600160a01b038089166001600160a01b03199283161790925560ca805488841690831617905560cb805487841690831617905560cc805492861692909116919091179055610c486120d5565b610c5061210c565b610c5982612145565b610c6161216c565b610c696121b6565b604080516101a081018252600661016082018181526563727970746f60d01b610180840152825282518084018452908152651dd85b1b195d60d21b602082810191909152808301919091528251808401845260018152600f60fb1b8183015282840152825180840184526003808252621b999d60ea1b82840152606084019190915283518085018552600a815269313637b1b5b1b430b4b760b11b818401526080840152835180850185526007808252663134ba31b7b4b760c91b8285015260a0850191909152845180860186528281526207070760eb1b8185015260c0850152845180860186528281526264616f60e81b8185015260e085015284518086018652918252621e9a5b60ea1b8284015261010084019190915283518085018552908152663837b63cb3b7b760c91b818301526101208301528251808401909352600b83526a756e73746f707061626c6560a81b9083015261014081019190915260005b600b811015610e1457610e028282600b8110610df857634e487b7160e01b600052603260045260246000fd5b60200201516121f3565b80610e0c81614001565b915050610dcc565b50508015610e5c576000805461ff0019169055604051600181527f7f26b83ff96e1f2b6a682f133852f6798a09c465da95921460cefb38474024989060200160405180910390a15b505050505050565b8282828080601f016020809104026020016040519081016040528093929190818152602001838380828437600092019190915250610ea792508491506123139050565b610ec35760405162461bcd60e51b8152600401610bca90613ead565b6000610ece82612339565b9050600a81600001511115610f2657610ef9610eed826000600a612366565b80516020909101512090565b60008051602061409e8339815191521415610f265760405162461bcd60e51b8152600401610bca90613ec9565b610f2e6115d2565b15610f4b5760405162461bcd60e51b8152600401610bca90613f30565b610e5c610f566123a5565b87610f6188886123b4565b6123e0565b610f716108306123a5565b610f8d5760405162461bcd60e51b8152600401610bca90613e91565b8686868080601f016020809104026020016040519081016040528093929190818152602001838380828437600092019190915250610fd092508491506123139050565b610fec5760405162461bcd60e51b8152600401610bca90613ead565b6000610ff782612339565b9050600a8160000151111561104357611016610eed826000600a612366565b60008051602061409e83398151915214156110435760405162461bcd60e51b8152600401610bca90613ec9565b61104b6115d2565b156110685760405162461bcd60e51b8152600401610bca90613f30565b6110bd8b8b8b8b8080601f016020809104026020016040519081016040528093929190818152602001838380828437600092018290525060408051602081019091529081528e93508d92508c91508b906124e7565b5050505050505050505050565b6110d2612662565b6110da6126db565b565b6000828152609760205260409020600101546110f781612775565b6111018383612786565b505050565b61110e612662565b6111178161280d565b50565b6111226123a5565b6001600160a01b0316816001600160a01b03161461119a5760405162461bcd60e51b815260206004820152602f60248201527f416363657373436f6e74726f6c3a2063616e206f6e6c792072656e6f756e636560448201526e103937b632b9903337b91039b2b63360891b6064820152608401610bca565b6111a48282612825565b5050565b6111b36108306123a5565b6111cf5760405162461bcd60e51b8152600401610bca90613e91565b8686868080601f01602080910402602001604051908101604052809392919081815260200183838082843760009201919091525061121292508491506123139050565b61122e5760405162461bcd60e51b8152600401610bca90613ead565b600061123982612339565b9050600a8160000151111561128557611258610eed826000600a612366565b60008051602061409e83398151915214156112855760405162461bcd60e51b8152600401610bca90613ec9565b61128d6115d2565b156112aa5760405162461bcd60e51b8152600401610bca90613f30565b6110bd8b8b8b8b8080601f0160208091040260200160405190810160405280939291908181526020018383808284376000920191909152508d92508c91508b90508a6128aa565b6112f9612662565b6110da612a2f565b61130c6108306123a5565b6113285760405162461bcd60e51b8152600401610bca90613e91565b61111781612aa8565b61133c6108306123a5565b6113585760405162461bcd60e51b8152600401610bca90613e91565b8282828080601f01602080910402602001604051908101604052809392919081815260200183838082843760009201919091525061139b92508491506123139050565b6113b75760405162461bcd60e51b8152600401610bca90613ead565b60006113c282612339565b9050600a8160000151111561140e576113e1610eed826000600a612366565b60008051602061409e833981519152141561140e5760405162461bcd60e51b8152600401610bca90613ec9565b6114166115d2565b156114335760405162461bcd60e51b8152600401610bca90613f30565b61144f8787878760405180602001604052806000815250612b66565b50505050505050565b611460612662565b60cc80546001600160a01b0319166001600160a01b0392909216919091179055565b61148d6108306123a5565b6114a95760405162461bcd60e51b8152600401610bca90613e91565b8484848080601f0160208091040260200160405190810160405280939291908181526020018383808284376000920191909152506114ec92508491506123139050565b6115085760405162461bcd60e51b8152600401610bca90613ead565b600061151382612339565b9050600a8160000151111561155f57611532610eed826000600a612366565b60008051602061409e833981519152141561155f5760405162461bcd60e51b8152600401610bca90613ec9565b6115676115d2565b156115845760405162461bcd60e51b8152600401610bca90613f30565b6115c78989898989898080601f016020809104026020016040519081016040528093929190818152602001838380828437600092019190915250612b6692505050565b505050505050505050565b600060008051602061405e833981519152610b28565b6115f0612662565b60005b81518110156111a45761162c82828151811061161f57634e487b7160e01b600052603260045260246000fd5b602002602001015161280d565b8061163681614001565b9150506115f3565b6116496108306123a5565b6116655760405162461bcd60e51b8152600401610bca90613e91565b6001600160a01b0381166116a05760405162461bcd60e51b8152602060048201526002602482015261353560f01b6044820152606401610bca565b6116a981612ce6565b6116b1611a91565b6040516001600160a01b038216903480156108fc02916000818181858888f193505050501580156111a4573d6000803e3d6000fd5b6116f16108306123a5565b61170d5760405162461bcd60e51b8152600401610bca90613e91565b8888888080601f01602080910402602001604051908101604052809392919081815260200183838082843760009201919091525061175092508491506123139050565b61176c5760405162461bcd60e51b8152600401610bca90613ead565b600061177782612339565b9050600a816000015111156117c357611796610eed826000600a612366565b60008051602061409e83398151915214156117c35760405162461bcd60e51b8152600401610bca90613ec9565b6117cb6115d2565b156117e85760405162461bcd60e51b8152600401610bca90613f30565b6118728d8d8d8d8080601f016020809104026020016040519081016040528093929190818152602001838380828437600081840152601f19601f820116905080830192505050505050508c8c8c8c8c8c8080601f0160208091040260200160405190810160405280939291908181526020018383808284376000920191909152506124e792505050565b50505050505050505050505050565b611889612662565b6110da6000612cfe565b61189b612662565b60005b81518110156111a4576118d78282815181106118ca57634e487b7160e01b600052603260045260246000fd5b6020026020010151612ce6565b806118e181614001565b91505061189e565b6118f46108306123a5565b6119105760405162461bcd60e51b8152600401610bca90613e91565b6001600160a01b0381166116a95760405162461bcd60e51b8152602060048201526002602482015261353560f01b6044820152606401610bca565b611953612662565b6110da612d50565b8282828080601f01602080910402602001604051908101604052809392919081815260200183838082843760009201919091525061199e92508491506123139050565b6119ba5760405162461bcd60e51b8152600401610bca90613ead565b60006119c582612339565b9050600a81600001511115611a11576119e4610eed826000600a612366565b60008051602061409e8339815191521415611a115760405162461bcd60e51b8152600401610bca90613ec9565b611a196115d2565b15611a365760405162461bcd60e51b8152600401610bca90613f30565b61144f8787610f6188886123b4565b611a4d612662565b6110da612db8565b60009182526097602090815260408084206001600160a01b0393909316845291905290205460ff1690565b611a88612662565b61111781612ce6565b6110da6000805160206140be8339815191526104a66123a5565b611ab3612662565b60c954604051632678375f60e21b81526001600160a01b03909116906399e0dd7c90611ae59085908590600401613e62565b600060405180830381600087803b158015611aff57600080fd5b505af1158015611b13573d6000803e3d6000fd5b505060cb546001600160a01b03161591506111a490505760cb54604051632678375f60e21b81526001600160a01b03909116906399e0dd7c90611b5c9085908590600401613e62565b600060405180830381600087803b158015611b7657600080fd5b505af1158015610e5c573d6000803e3d6000fd5b6000610a396000805160206140be83398151915283611a55565b611baf6108306123a5565b611bcb5760405162461bcd60e51b8152600401610bca90613e91565b8282828080601f016020809104026020016040519081016040528093929190818152602001838380828437600092019190915250611c0e92508491506123139050565b611c2a5760405162461bcd60e51b8152600401610bca90613ead565b6000611c3582612339565b9050600a81600001511115611c8157611c54610eed826000600a612366565b60008051602061409e8339815191521415611c815760405162461bcd60e51b8152600401610bca90613ec9565b611c896115d2565b15611ca65760405162461bcd60e51b8152600401610bca90613f30565b61144f878787878080601f0160208091040260200160405190810160405280939291908181526020018383808284376000920191909152506123e092505050565b611cf26108306123a5565b611d0e5760405162461bcd60e51b8152600401610bca90613e91565b60c954604051635718c22560e11b81526001600160a01b039091169063ae31844a90611b5c9085908590600401613e28565b6000611d4a610b16565b158015610a395750604080517f1ec047073e2c8b15660901dbfdb6e3ff6365bd699dd9f95dcc6eab5448bebd696020820152908101839052611da3906060015b6040516020818303038152906040528051906020012090565b5460ff1692915050565b611db5612662565b7f893ef2ea16c023f61d4f55d3e6ee3fc3f2fbfd478461323dbc2fbf919047086e80546001600160a01b0319166001600160a01b03831617905550565b611dfa612662565b6111a482828080601f0160208091040260200160405190810160405280939291908181526020018383808284376000920191909152506121f392505050565b8686868080601f016020809104026020016040519081016040528093929190818152602001838380828437600092019190915250611e7c92508491506123139050565b611e985760405162461bcd60e51b8152600401610bca90613ead565b6000611ea382612339565b9050600a81600001511115611eef57611ec2610eed826000600a612366565b60008051602061409e8339815191521415611eef5760405162461bcd60e51b8152600401610bca90613ec9565b611ef76115d2565b15611f145760405162461bcd60e51b8152600401610bca90613f30565b6110bd8b8b611f238c8c6123b4565b8a8a8a8a6128aa565b611f34612662565b60005b818110156111015760c9546001600160a01b03166350960239848484818110611f7057634e487b7160e01b600052603260045260246000fd5b9050602002016020810190611f85919061343d565b6040516001600160e01b031960e084901b1681526001600160a01b039091166004820152602401600060405180830381600087803b158015611fc657600080fd5b505af1158015611fda573d6000803e3d6000fd5b505050508080611fe990614001565b915050611f37565b60008281526097602052604090206001015461200c81612775565b6111018383612825565b6120216108306123a5565b61203d5760405162461bcd60e51b8152600401610bca90613e91565b6111a48282612e31565b61204f612662565b61205881612313565b6120745760405162461bcd60e51b8152600401610bca90613ead565b600081815260cd6020526040812061208b916132d2565b60405181907f0aa1aff0f830e739d86baf0e6624d6763da02f7733575e0e463886cd062dea6a90600090a250565b6120c1612662565b6120ca81612e7d565b611117600082612ef3565b600054610100900460ff166120fc5760405162461bcd60e51b8152600401610bca90613ee5565b6110da6121076123a5565b612cfe565b600054610100900460ff166121335760405162461bcd60e51b8152600401610bca90613ee5565b6110da60006121406123a5565b612ef3565b600054610100900460ff16611db55760405162461bcd60e51b8152600401610bca90613ee5565b600054610100900460ff166121935760405162461bcd60e51b8152600401610bca90613ee5565b600060008051602061407e8339815191525b805460ff1916911515919091179055565b600054610100900460ff166121dd5760405162461bcd60e51b8152600401610bca90613ee5565b600060008051602061405e8339815191526121a5565b6000612200600083612efd565b600081815260cd60209081526040909120845192935061222492909185019061330c565b50807f4fce6f6e172b04eaa80325d8e3b0180a34945000f3e214605039e8420fdf8980836040516122559190613e7e565b60405180910390a260c954604051634f558e7960e01b8152600481018390526001600160a01b0390911690634f558e799060240160206040518083038186803b1580156122a157600080fd5b505afa1580156122b5573d6000803e3d6000fd5b505050506040513d601f19601f820116820180604052508101906122d991906137cb565b6111a45760c9546040516334ff261960e21b81526001600160a01b039091169063d3fc986490611b5c9061dead9085908790600401613c65565b600081815260cd60205260408120805482919061232f90613fc6565b9050119050919050565b60408051808201825260008082526020918201528151808301909252825182529182019181019190915290565b6040805180820190915260008082526020820152604051806040016040528083815260200184866020015161239b9190613f4c565b9052949350505050565b60006123af612f97565b905090565b606082826040516020016123c9929190613b01565b604051602081830303815290604052905092915050565b60006123ec8383612efd565b90506123f781612fde565b61240083613025565b156124735760ca5460cc5460405163c36c212560e01b81526001600160a01b039283169263c36c21259261243c92899288921690600401613be8565b600060405180830381600087803b15801561245657600080fd5b505af115801561246a573d6000803e3d6000fd5b505050506124e1565b60c9546001600160a01b031663d3fc986485836124908787613063565b6040518463ffffffff1660e01b81526004016124ae93929190613c65565b600060405180830381600087803b1580156124c857600080fd5b505af11580156124dc573d6000803e3d6000fd5b505050505b50505050565b60006124f38888612efd565b90506124fe81612fde565b61250788613025565b156125ef5760ca5460cc54604051630f95e75b60e31b81526001600160a01b0392831692637caf3ad892612545928e928d9216908890600401613c1d565b600060405180830381600087803b15801561255f57600080fd5b505af1158015612573573d6000803e3d6000fd5b5050861591506125ea90505760cc54604051633a0deb9d60e21b81526001600160a01b039091169063e837ae74906125b79089908990899089908890600401613dee565b600060405180830381600087803b1580156125d157600080fd5b505af11580156125e5573d6000803e3d6000fd5b505050505b6115c7565b60c9546001600160a01b031663efda4d3e8a8361260c8c8c613063565b8a8a8a8a8a6040518963ffffffff1660e01b8152600401612634989796959493929190613cf2565b600060405180830381600087803b15801561264e57600080fd5b505af1158015611872573d6000803e3d6000fd5b61266a6123a5565b6001600160a01b03166126856033546001600160a01b031690565b6001600160a01b0316146110da5760405162461bcd60e51b815260206004820181905260248201527f4f776e61626c653a2063616c6c6572206973206e6f7420746865206f776e65726044820152606401610bca565b6126e3610b16565b156127155760405162461bcd60e51b8152602060048201526002602482015261363560f01b6044820152606401610bca565b60008051602061407e833981519152805460ff191660011790557f079c4efaefd9fc7ddb28144b9b0140c03f42922d28d0e226369d6070921581666127586123a5565b6040516001600160a01b03909116815260200160405180910390a1565b611117816127816123a5565b613086565b6127908282611a55565b6111a45760008281526097602090815260408083206001600160a01b03851684529091529020805460ff191660011790556127c96123a5565b6001600160a01b0316816001600160a01b0316837f2f8788117e7eff1d82e926ec794901d17c78024a50270940304540a733656f0d60405160405180910390a45050565b6111176000805160206140be83398151915282611ff1565b61282f8282611a55565b156111a45760008281526097602090815260408083206001600160a01b03851684529091529020805460ff191690556128666123a5565b6001600160a01b0316816001600160a01b0316837ff6391f5c32d9c69d2a47ea670b442974b53935d1edc7fd64eb21e047a839171b60405160405180910390a45050565b60006128b68787612efd565b90506128c181612fde565b6128ca87613025565b156129b05760ca5460cc5460405163c36c212560e01b81526001600160a01b039283169263c36c212592612906928d928c921690600401613be8565b600060405180830381600087803b15801561292057600080fd5b505af1158015612934573d6000803e3d6000fd5b5050851591506129ab90505760cc54604051633a0deb9d60e21b81526001600160a01b039091169063e837ae74906129789088908890889088908890600401613dee565b600060405180830381600087803b15801561299257600080fd5b505af11580156129a6573d6000803e3d6000fd5b505050505b6124dc565b60c9546001600160a01b031663b0f5917789836129cd8b8b613063565b898989896040518863ffffffff1660e01b81526004016129f39796959493929190613c95565b600060405180830381600087803b158015612a0d57600080fd5b505af1158015612a21573d6000803e3d6000fd5b505050505050505050505050565b612a376115d2565b612a685760405162461bcd60e51b8152602060048201526002602482015261373760f01b6044820152606401610bca565b60008051602061405e833981519152805460ff191690557f5db9ee0a495bf2e6ff9c91a7834c1ba4fdd244a5e8aa4e537bd38aeae4b073aa6127586123a5565b612ab0610b16565b15612ae25760405162461bcd60e51b8152602060048201526002602482015261363560f01b6044820152606401610bca565b604080517f1ec047073e2c8b15660901dbfdb6e3ff6365bd699dd9f95dcc6eab5448bebd696020820152908101829052600190612b2190606001611d8a565b805460ff19169115159190911790556040518181527f2ce5d9351b1d590d5a066db0d2dc7602d55f092506a83a7ee8c4d78ee357d75a9060200160405180910390a150565b6000612ba88585858080601f016020809104026020016040519081016040528093929190818152602001838380828437600092019190915250612efd92505050565b9050612bb381612fde565b612bbc85613025565b15612c345760ca5460cc54604051630f95e75b60e31b81526001600160a01b0392831692637caf3ad892612bfd928b928a928a929116908990600401613b9e565b600060405180830381600087803b158015612c1757600080fd5b505af1158015612c2b573d6000803e3d6000fd5b50505050610e5c565b60c954604080516020601f87018190048102820181019092528581526001600160a01b039092169163b55bc6179189918591612c8c918b918b908b908190840183828082843760009201919091525061306392505050565b866040518563ffffffff1660e01b8152600401612cac9493929190613d64565b600060405180830381600087803b158015612cc657600080fd5b505af1158015612cda573d6000803e3d6000fd5b50505050505050505050565b6111176000805160206140be83398151915282612ef3565b603380546001600160a01b038381166001600160a01b0319831681179093556040519116919082907f8be0079c531659141344cd1fd0a4f28419497f9722a3daafe3b4186f6b6457e090600090a35050565b612d586115d2565b15612d755760405162461bcd60e51b8152600401610bca90613f30565b60008051602061405e833981519152805460ff191660011790557f62e78cea01bee320cd4e420270b5ea74000d11b0c9f74754ebdbfc544b05a2586127586123a5565b612dc0610b16565b612df15760405162461bcd60e51b81526020600482015260026024820152611b1b60f11b6044820152606401610bca565b60008051602061407e833981519152805460ff191690557f316c4cec74b9568f102eda30781a2fe8cd5172329bf1401e804cb8c5131715c46127586123a5565b60005b8181101561110157612e6b838383818110612e5f57634e487b7160e01b600052603260045260246000fd5b90506020020135612aa8565b80612e7581614001565b915050612e34565b612e85612662565b6001600160a01b038116612eea5760405162461bcd60e51b815260206004820152602660248201527f4f776e61626c653a206e6577206f776e657220697320746865207a65726f206160448201526564647265737360d01b6064820152608401610bca565b61111781612cfe565b6111a48282612786565b6000815160001415612f365760405162461bcd60e51b8152602060048201526002602482015261343360f01b6044820152606401610bca565b8282604051602001612f489190613a27565b60405160208183030381529060405280519060200120604051602001612f78929190918252602082015260400190565b60408051601f1981840301815291905280516020909101209392505050565b7f893ef2ea16c023f61d4f55d3e6ee3fc3f2fbfd478461323dbc2fbf919047086e546000906001600160a01b0316331415612fd9575060331936013560601c90565b503390565b612fe6610b16565b61111757612ff381611d40565b156113285760405162461bcd60e51b81526020600482015260026024820152610d0d60f21b6044820152606401610bca565b60ca546000906001600160a01b031615801590610a395750507f0f4a10a4f46c288cea365fcf45cccf0e9d901b945b9829ccdb54c10dc3cb7a6f1490565b600082815260cd602090815260409182902091516060926123c992859201613a43565b6130908282611a55565b6111a4576130a8816001600160a01b031660146130ea565b6130b38360206130ea565b6040516020016130c4929190613b29565b60408051601f198184030181529082905262461bcd60e51b8252610bca91600401613e7e565b606060006130f9836002613f64565b613104906002613f4c565b6001600160401b0381111561312957634e487b7160e01b600052604160045260246000fd5b6040519080825280601f01601f191660200182016040528015613153576020820181803683370190505b509050600360fc1b8160008151811061317c57634e487b7160e01b600052603260045260246000fd5b60200101906001600160f81b031916908160001a905350600f60fb1b816001815181106131b957634e487b7160e01b600052603260045260246000fd5b60200101906001600160f81b031916908160001a90535060006131dd846002613f64565b6131e8906001613f4c565b90505b600181111561327c576f181899199a1a9b1b9c1cb0b131b232b360811b85600f166010811061322a57634e487b7160e01b600052603260045260246000fd5b1a60f81b82828151811061324e57634e487b7160e01b600052603260045260246000fd5b60200101906001600160f81b031916908160001a90535060049490941c9361327581613faf565b90506131eb565b5083156132cb5760405162461bcd60e51b815260206004820181905260248201527f537472696e67733a20686578206c656e67746820696e73756666696369656e746044820152606401610bca565b9392505050565b5080546132de90613fc6565b6000825580601f106132ee575050565b601f0160209004906000526020600020908101906111179190613390565b82805461331890613fc6565b90600052602060002090601f01602090048101928261333a5760008555613380565b82601f1061335357805160ff1916838001178555613380565b82800160010185558215613380579182015b82811115613380578251825591602001919060010190613365565b5061338c929150613390565b5090565b5b8082111561338c5760008155600101613391565b80356133b081614048565b919050565b60008083601f8401126133c6578081fd5b5081356001600160401b038111156133dc578182fd5b6020830191508360208260051b85010111156133f757600080fd5b9250929050565b60008083601f84011261340f578182fd5b5081356001600160401b03811115613425578182fd5b6020830191508360208285010111156133f757600080fd5b60006020828403121561344e578081fd5b81356132cb81614048565b6000806000806060858703121561346e578283fd5b843561347981614048565b93506020850135925060408501356001600160401b0381111561349a578283fd5b6134a6878288016133fe565b95989497509550505050565b60008060008060008060008060a0898b0312156134cd578384fd5b88356134d881614048565b97506020890135965060408901356001600160401b03808211156134fa578586fd5b6135068c838d016133fe565b909850965060608b013591508082111561351e578586fd5b61352a8c838d016133b5565b909650945060808b0135915080821115613542578384fd5b5061354f8b828c016133b5565b999c989b5096995094979396929594505050565b60008060008060008060008060008060c08b8d031215613581578182fd5b61358a8b6133a5565b995060208b0135985060408b01356001600160401b03808211156135ac578384fd5b6135b88e838f016133fe565b909a50985060608d01359150808211156135d0578384fd5b6135dc8e838f016133b5565b909850965060808d01359150808211156135f4578384fd5b6136008e838f016133b5565b909650945060a08d0135915080821115613618578384fd5b506136258d828e016133fe565b915080935050809150509295989b9194979a5092959850565b60008060008060008060808789031215613656578182fd5b863561366181614048565b95506020870135945060408701356001600160401b0380821115613683578384fd5b61368f8a838b016133fe565b909650945060608901359150808211156136a7578384fd5b506136b489828a016133fe565b979a9699509497509295939492505050565b600080602083850312156136d8578182fd5b82356001600160401b038111156136ed578283fd5b6136f9858286016133b5565b90969095509350505050565b60006020808385031215613717578182fd5b82356001600160401b038082111561372d578384fd5b818501915085601f830112613740578384fd5b81358181111561375257613752614032565b8060051b604051601f19603f8301168101818110858211171561377757613777614032565b604052828152858101935084860182860187018a1015613795578788fd5b8795505b838610156137be576137aa816133a5565b855260019590950194938601938601613799565b5098975050505050505050565b6000602082840312156137dc578081fd5b815180151581146132cb578182fd5b6000602082840312156137fc578081fd5b5035919050565b60008060408385031215613815578182fd5b82359150602083013561382781614048565b809150509250929050565b600060208284031215613843578081fd5b81356001600160e01b0319811681146132cb578182fd5b600080600080600060a08688031215613871578283fd5b853561387c81614048565b9450602086013561388c81614048565b9350604086013561389c81614048565b925060608601356138ac81614048565b915060808601356138bc81614048565b809150509295509295909350565b600080602083850312156138dc578182fd5b82356001600160401b038111156138f1578283fd5b6136f9858286016133fe565b600080600060408486031215613911578081fd5b8335925060208401356001600160401b0381111561392d578182fd5b613939868287016133fe565b9497909650939450505050565b81835260006020808501808196508560051b8101915084845b878110156139c55782840389528135601e1988360301811261397f578687fd5b870180356001600160401b03811115613996578788fd5b8036038913156139a4578788fd5b6139b186828985016139fe565b9a87019a955050509084019060010161395f565b5091979650505050505050565b600081518084526139ea816020860160208601613f83565b601f01601f19169290920160200192915050565b81835281816020850137506000828201602090810191909152601f909101601f19169091010190565b60008251613a39818460208701613f83565b9190910192915050565b600083516020613a568285838901613f83565b601760f91b9184019182528454600190849080831c81841680613a7a57607f821691505b858210811415613a9857634e487b7160e01b88526022600452602488fd5b808015613aac5760018114613ac157613af1565b60ff1984168887015282880186019450613af1565b60008b815260209020895b84811015613ae75781548a8201890152908701908801613acc565b5050858389010194505b50929a9950505050505050505050565b6b756e732d646576746573742d60a01b81528183600c83013760009101600c01908152919050565b7f416363657373436f6e74726f6c3a206163636f756e7420000000000000000000815260008351613b61816017850160208801613f83565b7001034b99036b4b9b9b4b733903937b6329607d1b6017918401918201528351613b92816028840160208801613f83565b01602801949350505050565b600060018060a01b03808816835260806020840152613bc16080840187896139fe565b81861660408501528381036060850152613bdb81866139d2565b9998505050505050505050565b600060018060a01b03808616835260606020840152613c0a60608401866139d2565b9150808416604084015250949350505050565b600060018060a01b03808716835260806020840152613c3f60808401876139d2565b81861660408501528381036060850152613c5981866139d2565b98975050505050505050565b60018060a01b0384168152826020820152606060408201526000613c8c60608301846139d2565b95945050505050565b60018060a01b038816815286602082015260a060408201526000613cbc60a08301886139d2565b8281036060840152613ccf818789613946565b90508281036080840152613ce4818587613946565b9a9950505050505050505050565b60018060a01b038916815287602082015260c060408201526000613d1960c08301896139d2565b8281036060840152613d2c81888a613946565b90508281036080840152613d41818688613946565b905082810360a0840152613d5581856139d2565b9b9a5050505050505050505050565b60018060a01b0385168152836020820152608060408201526000613d8b60808301856139d2565b8281036060840152613d9d81856139d2565b979650505050505050565b6020808252825182820181905260009190848201906040850190845b81811015613de2578351151583529284019291840191600101613dc4565b50909695505050505050565b606081526000613e02606083018789613946565b8281036020840152613e15818688613946565b9150508260408301529695505050505050565b6020808252810182905260006001600160fb1b03831115613e47578081fd5b8260051b808560408501379190910160400190815292915050565b602081526000613e766020830184866139fe565b949350505050565b6020815260006132cb60208301846139d2565b6020808252600290820152610d4d60f21b604082015260600190565b602080825260029082015261343160f01b604082015260600190565b6020808252600290820152611a1960f11b604082015260600190565b6020808252602b908201527f496e697469616c697a61626c653a20636f6e7472616374206973206e6f74206960408201526a6e697469616c697a696e6760a81b606082015260800190565b6020808252600290820152611b9b60f11b604082015260600190565b60008219821115613f5f57613f5f61401c565b500190565b6000816000190483118215151615613f7e57613f7e61401c565b500290565b60005b83811015613f9e578181015183820152602001613f86565b838111156124e15750506000910152565b600081613fbe57613fbe61401c565b506000190190565b600181811c90821680613fda57607f821691505b60208210811415613ffb57634e487b7160e01b600052602260045260246000fd5b50919050565b60006000198214156140155761401561401c565b5060010190565b634e487b7160e01b600052601160045260246000fd5b634e487b7160e01b600052604160045260246000fd5b6001600160a01b038116811461111757600080fdfe5496787fc1ebdfeba375028c1865f13fbb1d63c0caa356ccc1b29a80f3ebd622a85b8425a460dd344a297bd4a82e287385f0fc558cb3e78867b0489f43df2470b551e0305c8163b812374b8e78b577c77f226f6f10c5ad03e52699578fbc34b89f2df0fed2c77648de5860a4cc508cd0818c85b8b8a1ab4ceeef8d981c8956a6a164736f6c6343000804000a",
  "linkReferences": {},
  "deployedLinkReferences": {}
}