{
  "_format": "hh-sol-artifact-1",
  "contractName": "MintingManager",
  "sourceName": "contracts/MintingManager.sol",
  "abi": [
    {
      "anonymous": false,
      "inputs": [
        {
          "indexed": true,
          "internalType": "address",
          "name": "previousOwner",
          "type": "address"
        },
        {
          "indexed": true,
          "internalType": "address",
          "name": "newOwner",
          "type": "address"
        }
      ],
      "name": "OwnershipTransferred",
      "type": "event"
    },
    {
      "anonymous": false,
      "inputs": [
        {
          "indexed": true,
          "internalType": "address",
          "name": "sender",
          "type": "address"
        },
        {
          "indexed": true,
          "internalType": "address",
          "name": "signer",
          "type": "address"
        },
        {
          "indexed": true,
          "internalType": "bytes4",
          "name": "funcSig",
          "type": "bytes4"
        },
        {
          "indexed": false,
          "internalType": "bytes32",
          "name": "digest",
          "type": "bytes32"
        }
      ],
      "name": "Relayed",
      "type": "event"
    },
    {
      "anonymous": false,
      "inputs": [
        {
          "indexed": true,
          "internalType": "bytes32",
          "name": "role",
          "type": "bytes32"
        },
        {
          "indexed": true,
          "internalType": "bytes32",
          "name": "previousAdminRole",
          "type": "bytes32"
        },
        {
          "indexed": true,
          "internalType": "bytes32",
          "name": "newAdminRole",
          "type": "bytes32"
        }
      ],
      "name": "RoleAdminChanged",
      "type": "event"
    },
    {
      "anonymous": false,
      "inputs": [
        {
          "indexed": true,
          "internalType": "bytes32",
          "name": "role",
          "type": "bytes32"
        },
        {
          "indexed": true,
          "internalType": "address",
          "name": "account",
          "type": "address"
        },
        {
          "indexed": true,
          "internalType": "address",
          "name": "sender",
          "type": "address"
        }
      ],
      "name": "RoleGranted",
      "type": "event"
    },
    {
      "anonymous": false,
      "inputs": [
        {
          "indexed": true,
          "internalType": "bytes32",
          "name": "role",
          "type": "bytes32"
        },
        {
          "indexed": true,
          "internalType": "address",
          "name": "account",
          "type": "address"
        },
        {
          "indexed": true,
          "internalType": "address",
          "name": "sender",
          "type": "address"
        }
      ],
      "name": "RoleRevoked",
      "type": "event"
    },
    {
      "inputs": [],
      "name": "DEFAULT_ADMIN_ROLE",
      "outputs": [
        {
          "internalType": "bytes32",
          "name": "",
          "type": "bytes32"
        }
      ],
      "stateMutability": "view",
      "type": "function"
    },
    {
      "inputs": [],
      "name": "MINTER_ROLE",
      "outputs": [
        {
          "internalType": "bytes32",
          "name": "",
          "type": "bytes32"
        }
      ],
      "stateMutability": "view",
      "type": "function"
    },
    {
      "inputs": [],
      "name": "NAME",
      "outputs": [
        {
          "internalType": "string",
          "name": "",
          "type": "string"
        }
      ],
      "stateMutability": "view",
      "type": "function"
    },
    {
      "inputs": [],
      "name": "VERSION",
      "outputs": [
        {
          "internalType": "string",
          "name": "",
          "type": "string"
        }
      ],
      "stateMutability": "view",
      "type": "function"
    },
    {
      "inputs": [
        {
          "internalType": "address",
          "name": "account",
          "type": "address"
        }
      ],
      "name": "addMinter",
      "outputs": [],
      "stateMutability": "nonpayable",
      "type": "function"
    },
    {
      "inputs": [
        {
          "internalType": "address[]",
          "name": "accounts",
          "type": "address[]"
        }
      ],
      "name": "addMinters",
      "outputs": [],
      "stateMutability": "nonpayable",
      "type": "function"
    },
    {
      "inputs": [
        {
          "internalType": "uint256",
          "name": "tld",
          "type": "uint256"
        },
        {
          "internalType": "string",
          "name": "label",
          "type": "string"
        }
      ],
      "name": "claim",
      "outputs": [],
      "stateMutability": "nonpayable",
      "type": "function"
    },
    {
      "inputs": [
        {
          "internalType": "address",
          "name": "to",
          "type": "address"
        },
        {
          "internalType": "uint256",
          "name": "tld",
          "type": "uint256"
        },
        {
          "internalType": "string",
          "name": "label",
          "type": "string"
        }
      ],
      "name": "claimTo",
      "outputs": [],
      "stateMutability": "nonpayable",
      "type": "function"
    },
    {
      "inputs": [
        {
          "internalType": "address",
          "name": "to",
          "type": "address"
        },
        {
          "internalType": "uint256",
          "name": "tld",
          "type": "uint256"
        },
        {
          "internalType": "string",
          "name": "label",
          "type": "string"
        },
        {
          "internalType": "string[]",
          "name": "keys",
          "type": "string[]"
        },
        {
          "internalType": "string[]",
          "name": "values",
          "type": "string[]"
        }
      ],
      "name": "claimToWithRecords",
      "outputs": [],
      "stateMutability": "nonpayable",
      "type": "function"
    },
    {
      "inputs": [
        {
          "internalType": "address payable",
          "name": "receiver",
          "type": "address"
        }
      ],
      "name": "closeMinter",
      "outputs": [],
      "stateMutability": "payable",
      "type": "function"
    },
    {
      "inputs": [],
      "name": "cnsMintingController",
      "outputs": [
        {
          "internalType": "contract IMintingController",
          "name": "",
          "type": "address"
        }
      ],
      "stateMutability": "view",
      "type": "function"
    },
    {
      "inputs": [],
      "name": "cnsResolver",
      "outputs": [
        {
          "internalType": "contract IResolver",
          "name": "",
          "type": "address"
        }
      ],
      "stateMutability": "view",
      "type": "function"
    },
    {
      "inputs": [],
      "name": "cnsURIPrefixController",
      "outputs": [
        {
          "internalType": "contract IURIPrefixController",
          "name": "",
          "type": "address"
        }
      ],
      "stateMutability": "view",
      "type": "function"
    },
    {
      "inputs": [
        {
          "internalType": "bytes32",
          "name": "role",
          "type": "bytes32"
        }
      ],
      "name": "getRoleAdmin",
      "outputs": [
        {
          "internalType": "bytes32",
          "name": "",
          "type": "bytes32"
        }
      ],
      "stateMutability": "view",
      "type": "function"
    },
    {
      "inputs": [
        {
          "internalType": "bytes32",
          "name": "role",
          "type": "bytes32"
        },
        {
          "internalType": "address",
          "name": "account",
          "type": "address"
        }
      ],
      "name": "grantRole",
      "outputs": [],
      "stateMutability": "nonpayable",
      "type": "function"
    },
    {
      "inputs": [
        {
          "internalType": "bytes32",
          "name": "role",
          "type": "bytes32"
        },
        {
          "internalType": "address",
          "name": "account",
          "type": "address"
        }
      ],
      "name": "hasRole",
      "outputs": [
        {
          "internalType": "bool",
          "name": "",
          "type": "bool"
        }
      ],
      "stateMutability": "view",
      "type": "function"
    },
    {
      "inputs": [],
      "name": "initAdmin",
      "outputs": [],
      "stateMutability": "nonpayable",
      "type": "function"
    },
    {
      "inputs": [
        {
          "internalType": "contract IUNSRegistry",
          "name": "unsRegistry_",
          "type": "address"
        },
        {
          "internalType": "contract IMintingController",
          "name": "cnsMintingController_",
          "type": "address"
        },
        {
          "internalType": "contract IURIPrefixController",
          "name": "cnsURIPrefixController_",
          "type": "address"
        },
        {
          "internalType": "contract IResolver",
          "name": "cnsResolver_",
          "type": "address"
        }
      ],
      "name": "initialize",
      "outputs": [],
      "stateMutability": "nonpayable",
      "type": "function"
    },
    {
      "inputs": [
        {
          "internalType": "address",
          "name": "account",
          "type": "address"
        }
      ],
      "name": "isMinter",
      "outputs": [
        {
          "internalType": "bool",
          "name": "",
          "type": "bool"
        }
      ],
      "stateMutability": "view",
      "type": "function"
    },
    {
      "inputs": [
        {
          "internalType": "address",
          "name": "to",
          "type": "address"
        },
        {
          "internalType": "uint256",
          "name": "tld",
          "type": "uint256"
        },
        {
          "internalType": "string",
          "name": "label",
          "type": "string"
        }
      ],
      "name": "mintSLD",
      "outputs": [],
      "stateMutability": "nonpayable",
      "type": "function"
    },
    {
      "inputs": [
        {
          "internalType": "address",
          "name": "to",
          "type": "address"
        },
        {
          "internalType": "uint256",
          "name": "tld",
          "type": "uint256"
        },
        {
          "internalType": "string",
          "name": "label",
          "type": "string"
        },
        {
          "internalType": "string[]",
          "name": "keys",
          "type": "string[]"
        },
        {
          "internalType": "string[]",
          "name": "values",
          "type": "string[]"
        }
      ],
      "name": "mintSLDWithRecords",
      "outputs": [],
      "stateMutability": "nonpayable",
      "type": "function"
    },
    {
      "inputs": [],
      "name": "owner",
      "outputs": [
        {
          "internalType": "address",
          "name": "",
          "type": "address"
        }
      ],
      "stateMutability": "view",
      "type": "function"
    },
    {
      "inputs": [
        {
          "internalType": "bytes",
          "name": "data",
          "type": "bytes"
        },
        {
          "internalType": "bytes",
          "name": "signature",
          "type": "bytes"
        }
      ],
      "name": "relay",
      "outputs": [
        {
          "internalType": "bytes",
          "name": "",
          "type": "bytes"
        }
      ],
      "stateMutability": "nonpayable",
      "type": "function"
    },
    {
      "inputs": [
        {
          "internalType": "address",
          "name": "account",
          "type": "address"
        }
      ],
      "name": "removeMinter",
      "outputs": [],
      "stateMutability": "nonpayable",
      "type": "function"
    },
    {
      "inputs": [
        {
          "internalType": "address[]",
          "name": "accounts",
          "type": "address[]"
        }
      ],
      "name": "removeMinters",
      "outputs": [],
      "stateMutability": "nonpayable",
      "type": "function"
    },
    {
      "inputs": [],
      "name": "renounceMinter",
      "outputs": [],
      "stateMutability": "nonpayable",
      "type": "function"
    },
    {
      "inputs": [],
      "name": "renounceOwnership",
      "outputs": [],
      "stateMutability": "nonpayable",
      "type": "function"
    },
    {
      "inputs": [
        {
          "internalType": "bytes32",
          "name": "role",
          "type": "bytes32"
        },
        {
          "internalType": "address",
          "name": "account",
          "type": "address"
        }
      ],
      "name": "renounceRole",
      "outputs": [],
      "stateMutability": "nonpayable",
      "type": "function"
    },
    {
      "inputs": [
        {
          "internalType": "bytes32",
          "name": "role",
          "type": "bytes32"
        },
        {
          "internalType": "address",
          "name": "account",
          "type": "address"
        }
      ],
      "name": "revokeRole",
      "outputs": [],
      "stateMutability": "nonpayable",
      "type": "function"
    },
    {
      "inputs": [
        {
          "internalType": "address payable",
          "name": "receiver",
          "type": "address"
        }
      ],
      "name": "rotateMinter",
      "outputs": [],
      "stateMutability": "payable",
      "type": "function"
    },
    {
      "inputs": [
        {
          "internalType": "address",
          "name": "to",
          "type": "address"
        },
        {
          "internalType": "uint256",
          "name": "tld",
          "type": "uint256"
        },
        {
          "internalType": "string",
          "name": "label",
          "type": "string"
        }
      ],
      "name": "safeMintSLD",
      "outputs": [],
      "stateMutability": "nonpayable",
      "type": "function"
    },
    {
      "inputs": [
        {
          "internalType": "address",
          "name": "to",
          "type": "address"
        },
        {
          "internalType": "uint256",
          "name": "tld",
          "type": "uint256"
        },
        {
          "internalType": "string",
          "name": "label",
          "type": "string"
        },
        {
          "internalType": "bytes",
          "name": "data",
          "type": "bytes"
        }
      ],
      "name": "safeMintSLD",
      "outputs": [],
      "stateMutability": "nonpayable",
      "type": "function"
    },
    {
      "inputs": [
        {
          "internalType": "address",
          "name": "to",
          "type": "address"
        },
        {
          "internalType": "uint256",
          "name": "tld",
          "type": "uint256"
        },
        {
          "internalType": "string",
          "name": "label",
          "type": "string"
        },
        {
          "internalType": "string[]",
          "name": "keys",
          "type": "string[]"
        },
        {
          "internalType": "string[]",
          "name": "values",
          "type": "string[]"
        }
      ],
      "name": "safeMintSLDWithRecords",
      "outputs": [],
      "stateMutability": "nonpayable",
      "type": "function"
    },
    {
      "inputs": [
        {
          "internalType": "address",
          "name": "to",
          "type": "address"
        },
        {
          "internalType": "uint256",
          "name": "tld",
          "type": "uint256"
        },
        {
          "internalType": "string",
          "name": "label",
          "type": "string"
        },
        {
          "internalType": "string[]",
          "name": "keys",
          "type": "string[]"
        },
        {
          "internalType": "string[]",
          "name": "values",
          "type": "string[]"
        },
        {
          "internalType": "bytes",
          "name": "data",
          "type": "bytes"
        }
      ],
      "name": "safeMintSLDWithRecords",
      "outputs": [],
      "stateMutability": "nonpayable",
      "type": "function"
    },
    {
      "inputs": [
        {
          "internalType": "address",
          "name": "resolver",
          "type": "address"
        }
      ],
      "name": "setResolver",
      "outputs": [],
      "stateMutability": "nonpayable",
      "type": "function"
    },
    {
      "inputs": [
        {
          "internalType": "string",
          "name": "prefix",
          "type": "string"
        }
      ],
      "name": "setTokenURIPrefix",
      "outputs": [],
      "stateMutability": "nonpayable",
      "type": "function"
    },
    {
      "inputs": [
        {
          "internalType": "bytes4",
          "name": "interfaceId",
          "type": "bytes4"
        }
      ],
      "name": "supportsInterface",
      "outputs": [
        {
          "internalType": "bool",
          "name": "",
          "type": "bool"
        }
      ],
      "stateMutability": "view",
      "type": "function"
    },
    {
      "inputs": [
        {
          "internalType": "address",
          "name": "newOwner",
          "type": "address"
        }
      ],
      "name": "transferOwnership",
      "outputs": [],
      "stateMutability": "nonpayable",
      "type": "function"
    },
    {
      "inputs": [],
      "name": "unsRegistry",
      "outputs": [
        {
          "internalType": "contract IUNSRegistry",
          "name": "",
          "type": "address"
        }
      ],
      "stateMutability": "view",
      "type": "function"
    }
  ],
  "bytecode": "0x608060405234801561001057600080fd5b5061386e806100206000396000f3fe6080604052600436106102305760003560e01c806381c81d351161012e578063aa271e1a116100ab578063d53913931161006f578063d53913931461062c578063d547741f14610641578063f2fde38b14610661578063f8c8765e14610681578063ffa1ad74146106a157610230565b8063aa271e1a146105a2578063ad2c41bb146105c2578063ae2ad903146105d7578063cc2c3fc4146105f7578063ceeb4f501461060c57610230565b806398650275116100f2578063986502751461052e57806399e0dd7c14610543578063a217fddf14610563578063a3f4df7e14610578578063a849d65c1461058d57610230565b806381c81d35146104a65780638da5cb5b146104b9578063906cecc1146104ce57806391d14854146104ee578063983b2d561461050e57610230565b80634c1819e0116101bc5780635fc1964f116101805780635fc1964f1461041e578063634486da1461043e5780636a2d225614610451578063715018a61461047157806371e2a6571461048657610230565b80634c1819e01461037c5780634e543b261461039c578063564a5158146103bc57806358839d6b146103e95780635b6fa8db1461040957610230565b80632f2ff15d116102035780632f2ff15d146102da5780633092afd5146102fa57806336568abe1461031a57806339ccf4d01461033a5780633f41b6141461035a57610230565b806301ffc9a714610235578063248a9ca31461026b578063268b15ed1461029857806327bbd225146102ba575b600080fd5b34801561024157600080fd5b50610255610250366004612c16565b6106b6565b6040516102629190613295565b60405180910390f35b34801561027757600080fd5b5061028b610286366004612bcf565b6106e3565b60405161026291906132a0565b3480156102a457600080fd5b506102b86102b3366004612d36565b6106f8565b005b3480156102c657600080fd5b506102b86102d53660046128d7565b61075e565b3480156102e657600080fd5b506102b86102f5366004612be7565b610821565b34801561030657600080fd5b506102b8610315366004612861565b61084a565b34801561032657600080fd5b506102b8610335366004612be7565b610895565b34801561034657600080fd5b506102b86103553660046128d7565b6108db565b34801561036657600080fd5b5061036f610985565b6040516102629190613046565b34801561038857600080fd5b506102b861039736600461287d565b610994565b3480156103a857600080fd5b506102b86103b7366004612861565b610a1a565b3480156103c857600080fd5b506103dc6103d7366004612c3e565b610a7b565b60405161026291906132c7565b3480156103f557600080fd5b506102b8610404366004612a65565b610c46565b34801561041557600080fd5b5061036f610cf5565b34801561042a57600080fd5b506102b8610439366004612aee565b610d04565b6102b861044c366004612861565b610d91565b34801561045d57600080fd5b506102b861046c366004612989565b610e24565b34801561047d57600080fd5b506102b8610f11565b34801561049257600080fd5b506102b86104a1366004612aee565b610f9a565b6102b86104b4366004612861565b611027565b3480156104c557600080fd5b5061036f611074565b3480156104da57600080fd5b506102b86104e936600461287d565b611083565b3480156104fa57600080fd5b50610255610509366004612be7565b6110ce565b34801561051a57600080fd5b506102b8610529366004612861565b6110f9565b34801561053a57600080fd5b506102b8611141565b34801561054f57600080fd5b506102b861055e366004612cf6565b61115d565b34801561056f57600080fd5b5061028b61127b565b34801561058457600080fd5b506103dc611280565b34801561059957600080fd5b5061036f6112b0565b3480156105ae57600080fd5b506102556105bd366004612861565b6112bf565b3480156105ce57600080fd5b506102b86112d9565b3480156105e357600080fd5b506102b86105f236600461287d565b61132a565b34801561060357600080fd5b5061036f6113ce565b34801561061857600080fd5b506102b86106273660046128d7565b6113dd565b34801561063857600080fd5b5061028b611431565b34801561064d57600080fd5b506102b861065c366004612be7565b611443565b34801561066d57600080fd5b506102b861067c366004612861565b611462565b34801561068d57600080fd5b506102b861069c366004612c9b565b611523565b3480156106ad57600080fd5b506103dc611951565b60006001600160e01b03198216637965db0b60e01b14806106db57506106db82611972565b90505b919050565b60009081526097602052604090206001015490565b600083815260cd6020526040812080548592919061071590613761565b90501161073d5760405162461bcd60e51b81526004016107349061364a565b60405180910390fd5b61075861074861198b565b85610753868661198f565b6119bb565b50505050565b6107696105bd61198b565b6107855760405162461bcd60e51b815260040161073490613523565b600087815260cd602052604081208054899291906107a290613761565b9050116107c15760405162461bcd60e51b81526004016107349061364a565b610816898989898080601f016020809104026020016040519081016040528093929190818152602001838380828437600092018290525060408051602081019091529081528c93508b92508a91508990611ab1565b505050505050505050565b61082a826106e3565b61083b8161083661198b565b611c3a565b6108458383611c9e565b505050565b61085261198b565b6001600160a01b0316610863611074565b6001600160a01b0316146108895760405162461bcd60e51b8152600401610734906135de565b61089281611d25565b50565b61089d61198b565b6001600160a01b0316816001600160a01b0316146108cd5760405162461bcd60e51b81526004016107349061368c565b6108d78282611d3d565b5050565b6108e66105bd61198b565b6109025760405162461bcd60e51b815260040161073490613523565b600087815260cd6020526040812080548992919061091f90613761565b90501161093e5760405162461bcd60e51b81526004016107349061364a565b610816898989898080601f0160208091040260200160405190810160405280939291908181526020018383808284376000920191909152508b92508a915089905088611dc2565b60c9546001600160a01b031681565b61099f6105bd61198b565b6109bb5760405162461bcd60e51b815260040161073490613523565b600083815260cd602052604081208054859291906109d890613761565b9050116109f75760405162461bcd60e51b81526004016107349061364a565b610a138585858560405180602001604052806000815250611f47565b5050505050565b610a2261198b565b6001600160a01b0316610a33611074565b6001600160a01b031614610a595760405162461bcd60e51b8152600401610734906135de565b60cc80546001600160a01b0319166001600160a01b0392909216919091179055565b606060008585604051610a8f929190612e81565b604051809103902090506000610b0c85858080601f01602080910402602001604051908101604052809392919081815260200183838082843760009201919091525050604051610b069250610aeb915086903090602001612e61565b604051602081830303815290604052805190602001206120b5565b906120e5565b905060008088888080601f016020809104026020016040519081016040528093929190818152602001838380828437600092019190915250505050602081015192509050610b598361216b565b610b64828a8a612199565b600080306001600160a01b03168b8b604051610b81929190612e81565b6000604051808303816000865af19150503d8060008114610bbe576040519150601f19603f3d011682016040523d82523d6000602084013e610bc3565b606091505b50909250905081610bdb576040513d806000833e8082fd5b6001600160e01b031984166001600160a01b038616610bf861198b565b6001600160a01b03167f9490f91465d0d2c12728b9ad47d5f1dd2ac3ef39394796e54a48b94db0b3372589604051610c3091906132a0565b60405180910390a49a9950505050505050505050565b610c516105bd61198b565b610c6d5760405162461bcd60e51b815260040161073490613523565b600085815260cd60205260408120805487929190610c8a90613761565b905011610ca95760405162461bcd60e51b81526004016107349061364a565b610cec8787878787878080601f016020809104026020016040519081016040528093929190818152602001838380828437600092019190915250611f4792505050565b50505050505050565b60cc546001600160a01b031681565b610d0c61198b565b6001600160a01b0316610d1d611074565b6001600160a01b031614610d435760405162461bcd60e51b8152600401610734906135de565b60005b81518110156108d757610d7f828281518110610d7257634e487b7160e01b600052603260045260246000fd5b6020026020010151611d25565b80610d898161379c565b915050610d46565b610d9c6105bd61198b565b610db85760405162461bcd60e51b815260040161073490613523565b6001600160a01b038116610dde5760405162461bcd60e51b81526004016107349061345c565b610de781612255565b610def611141565b6040516001600160a01b038216903480156108fc02916000818181858888f193505050501580156108d7573d6000803e3d6000fd5b610e2f6105bd61198b565b610e4b5760405162461bcd60e51b815260040161073490613523565b600089815260cd6020526040812080548b929190610e6890613761565b905011610e875760405162461bcd60e51b81526004016107349061364a565b610f048b8b8b8b8080601f01602080910402602001604051908101604052809392919081815260200183838082843760009201919091525050604080516020601f8b018190048102820181019092528981528e93508d92508c918c91908c908c9081908401838280828437600092019190915250611ab192505050565b5050505050505050505050565b610f1961198b565b6001600160a01b0316610f2a611074565b6001600160a01b031614610f505760405162461bcd60e51b8152600401610734906135de565b6033546040516000916001600160a01b0316907f8be0079c531659141344cd1fd0a4f28419497f9722a3daafe3b4186f6b6457e0908390a3603380546001600160a01b0319169055565b610fa261198b565b6001600160a01b0316610fb3611074565b6001600160a01b031614610fd95760405162461bcd60e51b8152600401610734906135de565b60005b81518110156108d75761101582828151811061100857634e487b7160e01b600052603260045260246000fd5b6020026020010151612255565b8061101f8161379c565b915050610fdc565b6110326105bd61198b565b61104e5760405162461bcd60e51b815260040161073490613523565b6001600160a01b038116610de75760405162461bcd60e51b81526004016107349061345c565b6033546001600160a01b031690565b600083815260cd602052604081208054859291906110a090613761565b9050116110bf5760405162461bcd60e51b81526004016107349061364a565b610a138585610753868661198f565b60009182526097602090815260408084206001600160a01b0393909316845291905290205460ff1690565b61110161198b565b6001600160a01b0316611112611074565b6001600160a01b0316146111385760405162461bcd60e51b8152600401610734906135de565b61089281612255565b61115b6000805160206137f983398151915261033561198b565b565b61116561198b565b6001600160a01b0316611176611074565b6001600160a01b03161461119c5760405162461bcd60e51b8152600401610734906135de565b60c954604051632678375f60e21b81526001600160a01b03909116906399e0dd7c906111ce90859085906004016132da565b600060405180830381600087803b1580156111e857600080fd5b505af11580156111fc573d6000803e3d6000fd5b505060cb546001600160a01b03161591506108d790505760cb54604051632678375f60e21b81526001600160a01b03909116906399e0dd7c9061124590859085906004016132da565b600060405180830381600087803b15801561125f57600080fd5b505af1158015611273573d6000803e3d6000fd5b505050505050565b600081565b604051806040016040528060148152602001732aa7299d1026b4b73a34b7339026b0b730b3b2b960611b81525081565b60cb546001600160a01b031681565b60006106db6000805160206137f9833981519152836110ce565b6112e161198b565b6001600160a01b03166112f2611074565b6001600160a01b0316146113185760405162461bcd60e51b8152600401610734906135de565b61115b600061132561198b565b612269565b6113356105bd61198b565b6113515760405162461bcd60e51b815260040161073490613523565b600083815260cd6020526040812080548592919061136e90613761565b90501161138d5760405162461bcd60e51b81526004016107349061364a565b610a13858585858080601f0160208091040260200160405190810160405280939291908181526020018383808284376000920191909152506119bb92505050565b60ca546001600160a01b031681565b600087815260cd602052604081208054899291906113fa90613761565b9050116114195760405162461bcd60e51b81526004016107349061364a565b61081689896114288a8a61198f565b88888888611dc2565b6000805160206137f983398151915281565b61144c826106e3565b6114588161083661198b565b6108458383611d3d565b61146a61198b565b6001600160a01b031661147b611074565b6001600160a01b0316146114a15760405162461bcd60e51b8152600401610734906135de565b6001600160a01b0381166114c75760405162461bcd60e51b8152600401610734906133df565b6033546040516001600160a01b038084169216907f8be0079c531659141344cd1fd0a4f28419497f9722a3daafe3b4186f6b6457e090600090a3603380546001600160a01b0319166001600160a01b0392909216919091179055565b600054610100900460ff168061153c575060005460ff16155b6115585760405162461bcd60e51b8152600401610734906134d5565b600054610100900460ff16158015611583576000805460ff1961ff0019909116610100171660011790555b60c980546001600160a01b038088166001600160a01b03199283161790925560ca805487841690831617905560cb805486841690831617905560cc8054928516929091169190911790556115d5612273565b6115dd61233f565b6115e630612255565b60408051808201909152600681526563727970746f60d01b602080830191825260008051602061381983398151915260005260cd90529051611649917f9535d3ea47c5e1398d3405b4fadc73de6b1b1e6a66f674a8886ab7a6c873a39091612734565b50604080516101408101825260066101008201908152651dd85b1b195d60d21b610120830152815281518083018352600481526331b7b4b760e11b602082810191909152808301919091528251808401845260018152600f60fb1b8183015282840152825180840184526003808252621b999d60ea1b82840152606084019190915283518085018552600a815269313637b1b5b1b430b4b760b11b8184015260808401528351808501855260078152663134ba31b7b4b760c91b8184015260a0840152835180850185528181526207070760eb1b8184015260c0840152835180850190945283526264616f60e81b9083015260e081019190915260005b60088110156119375760008083836008811061177257634e487b7160e01b600052603260045260246000fd5b60200201516040516020016117879190612e91565b604051602081830303815290604052805190602001206040516020016117ae929190613038565b6040516020818303038152906040528051906020012060001c90508282600881106117e957634e487b7160e01b600052603260045260246000fd5b602002015160cd60008381526020019081526020016000209080519060200190611814929190612734565b5060c954604051634f558e7960e01b81526001600160a01b0390911690634f558e79906118459084906004016132a0565b60206040518083038186803b15801561185d57600080fd5b505afa158015611871573d6000803e3d6000fd5b505050506040513d601f19601f820116820180604052508101906118959190612baf565b6119245760c9546001600160a01b031663d3fc986461dead838686600881106118ce57634e487b7160e01b600052603260045260246000fd5b60200201516040518463ffffffff1660e01b81526004016118f193929190613121565b600060405180830381600087803b15801561190b57600080fd5b505af115801561191f573d6000803e3d6000fd5b505050505b508061192f8161379c565b915050611746565b50508015610a13576000805461ff00191690555050505050565b60405180604001604052806005815260200164302e312e3160d81b81525081565b6001600160e01b031981166301ffc9a760e01b14919050565b3390565b606082826040516020016119a4929190612f9d565b604051602081830303815290604052905092915050565b816000805160206138198339815191521415611a3f5760ca5460cc5460405163c36c212560e01b81526001600160a01b039283169263c36c212592611a08928892879216906004016130a4565b600060405180830381600087803b158015611a2257600080fd5b505af1158015611a36573d6000803e3d6000fd5b50505050610845565b60c9546001600160a01b031663d3fc986484611a5b85856123c0565b611a65868661243c565b6040518463ffffffff1660e01b8152600401611a8393929190613121565b600060405180830381600087803b158015611a9d57600080fd5b505af1158015610cec573d6000803e3d6000fd5b6000611abd88886123c0565b9050876000805160206138198339815191521415611bb85760ca5460cc54604051630f95e75b60e31b81526001600160a01b0392831692637caf3ad892611b0e928e928d92169088906004016130d9565b600060405180830381600087803b158015611b2857600080fd5b505af1158015611b3c573d6000803e3d6000fd5b505086159150611bb390505760cc54604051633a0deb9d60e21b81526001600160a01b039091169063e837ae7490611b80908990899089908990889060040161325b565b600060405180830381600087803b158015611b9a57600080fd5b505af1158015611bae573d6000803e3d6000fd5b505050505b610816565b60c9546001600160a01b031663efda4d3e8a83611bd58c8c61243c565b8a8a8a8a8a6040518963ffffffff1660e01b8152600401611bfd9897969594939291906131a5565b600060405180830381600087803b158015611c1757600080fd5b505af1158015611c2b573d6000803e3d6000fd5b50505050505050505050505050565b611c4482826110ce565b6108d757611c5c816001600160a01b0316601461245f565b611c6783602061245f565b604051602001611c78929190612fc3565b60408051601f198184030181529082905262461bcd60e51b8252610734916004016132c7565b611ca882826110ce565b6108d75760008281526097602090815260408083206001600160a01b03851684529091529020805460ff19166001179055611ce161198b565b6001600160a01b0316816001600160a01b0316837f2f8788117e7eff1d82e926ec794901d17c78024a50270940304540a733656f0d60405160405180910390a45050565b6108926000805160206137f983398151915282611443565b611d4782826110ce565b156108d75760008281526097602090815260408083206001600160a01b03851684529091529020805460ff19169055611d7e61198b565b6001600160a01b0316816001600160a01b0316837ff6391f5c32d9c69d2a47ea670b442974b53935d1edc7fd64eb21e047a839171b60405160405180910390a45050565b6000611dce87876123c0565b9050866000805160206138198339815191521415611ec75760ca5460cc5460405163c36c212560e01b81526001600160a01b039283169263c36c212592611e1d928d928c9216906004016130a4565b600060405180830381600087803b158015611e3757600080fd5b505af1158015611e4b573d6000803e3d6000fd5b505085159150611ec290505760cc54604051633a0deb9d60e21b81526001600160a01b039091169063e837ae7490611e8f908890889088908890889060040161325b565b600060405180830381600087803b158015611ea957600080fd5b505af1158015611ebd573d6000803e3d6000fd5b505050505b611f3d565b60c9546001600160a01b031663b0f591778983611ee48b8b61243c565b898989896040518863ffffffff1660e01b8152600401611f0a9796959493929190613148565b600060405180830381600087803b158015611f2457600080fd5b505af1158015611f38573d6000803e3d6000fd5b505050505b5050505050505050565b836000805160206138198339815191521415611fd05760ca5460cc54604051630f95e75b60e31b81526001600160a01b0392831692637caf3ad892611f99928a9289928992911690889060040161305a565b600060405180830381600087803b158015611fb357600080fd5b505af1158015611fc7573d6000803e3d6000fd5b50505050610a13565b60c954604080516020601f86018190048102820181019092528481526001600160a01b039092169163b55bc6179188916120279189919089908990819084018382808284376000920191909152506123c092505050565b6120678888888080601f01602080910402602001604051908101604052809392919081815260200183838082843760009201919091525061243c92505050565b856040518563ffffffff1660e01b81526004016120879493929190613217565b600060405180830381600087803b1580156120a157600080fd5b505af1158015610816573d6000803e3d6000fd5b6000816040516020016120c89190612f6c565b604051602081830303815290604052805190602001209050919050565b60008060008084516041141561210f5750505060208201516040830151606084015160001a612155565b84516040141561213d5750505060408201516020830151906001600160ff1b0381169060ff1c601b01612155565b60405162461bcd60e51b8152600401610734906133a8565b61216186828585612618565b9695505050505050565b6121748161270e565b61217d816112bf565b6108925760405162461bcd60e51b81526004016107349061359a565b60006001600160e01b0319841663ae2ad90360e01b14806121ca57506001600160e01b03198416630260c0cf60e51b145b806121e557506001600160e01b031984166358839d6b60e01b145b8061220057506001600160e01b0319841663039ccf4d60e41b145b8061221b57506001600160e01b031984166327bbd22560e01b145b8061223657506001600160e01b03198416633516912b60e11b145b9050806107585760405162461bcd60e51b815260040161073490613362565b6108926000805160206137f9833981519152825b6108d78282611c9e565b600054610100900460ff168061228c575060005460ff16155b6122a85760405162461bcd60e51b8152600401610734906134d5565b600054610100900460ff161580156122d3576000805460ff1961ff0019909116610100171660011790555b60006122dd61198b565b603380546001600160a01b0319166001600160a01b038316908117909155604051919250906000907f8be0079c531659141344cd1fd0a4f28419497f9722a3daafe3b4186f6b6457e0908290a3508015610892576000805461ff001916905550565b600054610100900460ff1680612358575060005460ff16155b6123745760405162461bcd60e51b8152600401610734906134d5565b600054610100900460ff1615801561239f576000805460ff1961ff0019909116610100171660011790555b6123ac600061132561198b565b8015610892576000805461ff001916905550565b60008151600014156123e45760405162461bcd60e51b815260040161073490613613565b82826040516020016123f69190612e91565b6040516020818303038152906040528051906020012060405160200161241d929190613038565b60408051601f1981840301815291905280516020909101209392505050565b600082815260cd602090815260409182902091516060926119a492859201612ead565b6060600061246e8360026136ff565b6124799060026136e7565b67ffffffffffffffff81111561249f57634e487b7160e01b600052604160045260246000fd5b6040519080825280601f01601f1916602001820160405280156124c9576020820181803683370190505b509050600360fc1b816000815181106124f257634e487b7160e01b600052603260045260246000fd5b60200101906001600160f81b031916908160001a905350600f60fb1b8160018151811061252f57634e487b7160e01b600052603260045260246000fd5b60200101906001600160f81b031916908160001a90535060006125538460026136ff565b61255e9060016136e7565b90505b60018111156125f2576f181899199a1a9b1b9c1cb0b131b232b360811b85600f16601081106125a057634e487b7160e01b600052603260045260246000fd5b1a60f81b8282815181106125c457634e487b7160e01b600052603260045260246000fd5b60200101906001600160f81b031916908160001a90535060049490941c936125eb8161374a565b9050612561565b5083156126115760405162461bcd60e51b81526004016107349061332d565b9392505050565b60007f7fffffffffffffffffffffffffffffff5d576e7357a4501ddfe92f46681b20a082111561265a5760405162461bcd60e51b815260040161073490613493565b8360ff16601b148061266f57508360ff16601c145b61268b5760405162461bcd60e51b815260040161073490613558565b6000600186868686604051600081526020016040526040516126b094939291906132a9565b6020604051602081039080840390855afa1580156126d2573d6000803e3d6000fd5b5050604051601f1901519150506001600160a01b0381166127055760405162461bcd60e51b8152600401610734906132f6565b95945050505050565b6001600160a01b0381166108925760405162461bcd60e51b815260040161073490613425565b82805461274090613761565b90600052602060002090601f01602090048101928261276257600085556127a8565b82601f1061277b57805160ff19168380011785556127a8565b828001600101855582156127a8579182015b828111156127a857825182559160200191906001019061278d565b506127b49291506127b8565b5090565b5b808211156127b457600081556001016127b9565b80356106de816137e3565b60008083601f8401126127e9578182fd5b50813567ffffffffffffffff811115612800578182fd5b602083019150836020808302850101111561281a57600080fd5b9250929050565b60008083601f840112612832578182fd5b50813567ffffffffffffffff811115612849578182fd5b60208301915083602082850101111561281a57600080fd5b600060208284031215612872578081fd5b8135612611816137e3565b60008060008060608587031215612892578283fd5b843561289d816137e3565b935060208501359250604085013567ffffffffffffffff8111156128bf578283fd5b6128cb87828801612821565b95989497509550505050565b60008060008060008060008060a0898b0312156128f2578384fd5b88356128fd816137e3565b975060208901359650604089013567ffffffffffffffff80821115612920578586fd5b61292c8c838d01612821565b909850965060608b0135915080821115612944578586fd5b6129508c838d016127d8565b909650945060808b0135915080821115612968578384fd5b506129758b828c016127d8565b999c989b5096995094979396929594505050565b60008060008060008060008060008060c08b8d0312156129a7578182fd5b6129b08b6127cd565b995060208b0135985060408b013567ffffffffffffffff808211156129d3578384fd5b6129df8e838f01612821565b909a50985060608d01359150808211156129f7578384fd5b612a038e838f016127d8565b909850965060808d0135915080821115612a1b578384fd5b612a278e838f016127d8565b909650945060a08d0135915080821115612a3f578384fd5b50612a4c8d828e01612821565b915080935050809150509295989b9194979a5092959850565b60008060008060008060808789031215612a7d578182fd5b8635612a88816137e3565b955060208701359450604087013567ffffffffffffffff80821115612aab578384fd5b612ab78a838b01612821565b90965094506060890135915080821115612acf578384fd5b50612adc89828a01612821565b979a9699509497509295939492505050565b60006020808385031215612b00578182fd5b823567ffffffffffffffff80821115612b17578384fd5b818501915085601f830112612b2a578384fd5b813581811115612b3c57612b3c6137cd565b83810260405185828201018181108582111715612b5b57612b5b6137cd565b604052828152858101935084860182860187018a1015612b79578788fd5b8795505b83861015612ba257612b8e816127cd565b855260019590950194938601938601612b7d565b5098975050505050505050565b600060208284031215612bc0578081fd5b81518015158114612611578182fd5b600060208284031215612be0578081fd5b5035919050565b60008060408385031215612bf9578182fd5b823591506020830135612c0b816137e3565b809150509250929050565b600060208284031215612c27578081fd5b81356001600160e01b031981168114612611578182fd5b60008060008060408587031215612c53578182fd5b843567ffffffffffffffff80821115612c6a578384fd5b612c7688838901612821565b90965094506020870135915080821115612c8e578384fd5b506128cb87828801612821565b60008060008060808587031215612cb0578182fd5b8435612cbb816137e3565b93506020850135612ccb816137e3565b92506040850135612cdb816137e3565b91506060850135612ceb816137e3565b939692955090935050565b60008060208385031215612d08578182fd5b823567ffffffffffffffff811115612d1e578283fd5b612d2a85828601612821565b90969095509350505050565b600080600060408486031215612d4a578081fd5b83359250602084013567ffffffffffffffff811115612d67578182fd5b612d7386828701612821565b9497909650939450505050565b818352602080840193600091908185020181018584845b87811015612dfe5782840389528135601e19883603018112612db7578687fd5b8701803567ffffffffffffffff811115612dcf578788fd5b803603891315612ddd578788fd5b612dea8682898501612e37565b9a87019a9550505090840190600101612d97565b5091979650505050505050565b60008151808452612e2381602086016020860161371e565b601f01601f19169290920160200192915050565b60008284528282602086013780602084860101526020601f19601f85011685010190509392505050565b91825260601b6bffffffffffffffffffffffff1916602082015260340190565b6000828483379101908152919050565b60008251612ea381846020870161371e565b9190910192915050565b600083516020612ec0828583890161371e565b601760f91b918401918252845460019084906002810481841680612ee557607f821691505b858210811415612f0357634e487b7160e01b88526022600452602488fd5b808015612f175760018114612f2c57612f5c565b60ff1984168887015282880186019450612f5c565b612f358b6136db565b895b84811015612f525781548a8201890152908701908801612f37565b5050858389010194505b50929a9950505050505050505050565b7f19457468657265756d205369676e6564204d6573736167653a0a3332000000008152601c810191909152603c0190565b6000697564746573746465762d60b01b82528284600a8401379101600a01908152919050565b60007f416363657373436f6e74726f6c3a206163636f756e742000000000000000000082528351612ffb81601785016020880161371e565b7001034b99036b4b9b9b4b733903937b6329607d1b601791840191820152835161302c81602884016020880161371e565b01602801949350505050565b918252602082015260400190565b6001600160a01b0391909116815260200190565b600060018060a01b0380881683526080602084015261307d608084018789612e37565b818616604085015283810360608501526130978186612e0b565b9998505050505050505050565b600060018060a01b038086168352606060208401526130c66060840186612e0b565b9150808416604084015250949350505050565b600060018060a01b038087168352608060208401526130fb6080840187612e0b565b818616604085015283810360608501526131158186612e0b565b98975050505050505050565b600060018060a01b0385168252836020830152606060408301526127056060830184612e0b565b600060018060a01b038916825287602083015260a0604083015261316f60a0830188612e0b565b8281036060840152613182818789612d80565b90508281036080840152613197818587612d80565b9a9950505050505050505050565b600060018060a01b038a16825288602083015260c060408301526131cc60c0830189612e0b565b82810360608401526131df81888a612d80565b905082810360808401526131f4818688612d80565b905082810360a08401526132088185612e0b565b9b9a5050505050505050505050565b600060018060a01b03861682528460208301526080604083015261323e6080830185612e0b565b82810360608401526132508185612e0b565b979650505050505050565b60006060825261326f606083018789612d80565b8281036020840152613282818688612d80565b9150508260408301529695505050505050565b901515815260200190565b90815260200190565b93845260ff9290921660208401526040830152606082015260800190565b6000602082526126116020830184612e0b565b6000602082526132ee602083018486612e37565b949350505050565b60208082526018908201527f45434453413a20696e76616c6964207369676e61747572650000000000000000604082015260600190565b6020808252818101527f537472696e67733a20686578206c656e67746820696e73756666696369656e74604082015260600190565b60208082526026908201527f4d696e74696e674d616e616765723a20554e535550504f525445445f52454c416040820152651657d0d0531360d21b606082015260800190565b6020808252601f908201527f45434453413a20696e76616c6964207369676e6174757265206c656e67746800604082015260600190565b60208082526026908201527f4f776e61626c653a206e6577206f776e657220697320746865207a65726f206160408201526564647265737360d01b606082015260800190565b6020808252601d908201527f52656c617965723a205349474e41545552455f49535f494e56414c4944000000604082015260600190565b6020808252601d908201527f4d696e746572526f6c653a2052454345495645525f49535f454d505459000000604082015260600190565b60208082526022908201527f45434453413a20696e76616c6964207369676e6174757265202773272076616c604082015261756560f01b606082015260800190565b6020808252602e908201527f496e697469616c697a61626c653a20636f6e747261637420697320616c72656160408201526d191e481a5b9a5d1a585b1a5e995960921b606082015260800190565b6020808252818101527f4d696e746572526f6c653a2043414c4c45525f49535f4e4f545f4d494e544552604082015260600190565b60208082526022908201527f45434453413a20696e76616c6964207369676e6174757265202776272076616c604082015261756560f01b606082015260800190565b60208082526024908201527f4d696e74696e674d616e616765723a205349474e45525f49535f4e4f545f4d49604082015263272a22a960e11b606082015260800190565b6020808252818101527f4f776e61626c653a2063616c6c6572206973206e6f7420746865206f776e6572604082015260600190565b6020808252601b908201527f4d696e74696e674d616e616765723a204c4142454c5f454d5054590000000000604082015260600190565b60208082526022908201527f4d696e74696e674d616e616765723a20544c445f4e4f545f5245474953544552604082015261115160f21b606082015260800190565b6020808252602f908201527f416363657373436f6e74726f6c3a2063616e206f6e6c792072656e6f756e636560408201526e103937b632b9903337b91039b2b63360891b606082015260800190565b60009081526020902090565b600082198211156136fa576136fa6137b7565b500190565b6000816000190483118215151615613719576137196137b7565b500290565b60005b83811015613739578181015183820152602001613721565b838111156107585750506000910152565b600081613759576137596137b7565b506000190190565b60028104600182168061377557607f821691505b6020821081141561379657634e487b7160e01b600052602260045260246000fd5b50919050565b60006000198214156137b0576137b06137b7565b5060010190565b634e487b7160e01b600052601160045260246000fd5b634e487b7160e01b600052604160045260246000fd5b6001600160a01b038116811461089257600080fdfe9f2df0fed2c77648de5860a4cc508cd0818c85b8b8a1ab4ceeef8d981c8956a60f4a10a4f46c288cea365fcf45cccf0e9d901b945b9829ccdb54c10dc3cb7a6fa264697066735822122015b63e0f51dcb31eb2c280d16933fdb824df8335fdf363398d6bb5f9bcef5ed564736f6c63430008000033",
  "linkReferences": {},
  "deployedLinkReferences": {}
}