{
  "_format": "hh-sol-artifact-1",
  "contractName": "MintingManager",
  "sourceName": "contracts/MintingManager.sol",
  "abi": [
    {
      "anonymous": false,
      "inputs": [
        {
          "indexed": false,
          "internalType": "address",
          "name": "previousAdmin",
          "type": "address"
        },
        {
          "indexed": false,
          "internalType": "address",
          "name": "newAdmin",
          "type": "address"
        }
      ],
      "name": "AdminChanged",
      "type": "event"
    },
    {
      "anonymous": false,
      "inputs": [
        {
          "indexed": false,
          "internalType": "uint256",
          "name": "tokenId",
          "type": "uint256"
        }
      ],
      "name": "Blocked",
      "type": "event"
    },
    {
      "anonymous": false,
      "inputs": [
        {
          "indexed": false,
          "internalType": "address",
          "name": "account",
          "type": "address"
        }
      ],
      "name": "BlocklistDisabled",
      "type": "event"
    },
    {
      "anonymous": false,
      "inputs": [
        {
          "indexed": false,
          "internalType": "address",
          "name": "account",
          "type": "address"
        }
      ],
      "name": "BlocklistEnabled",
      "type": "event"
    },
    {
      "anonymous": false,
      "inputs": [
        {
          "indexed": true,
          "internalType": "uint256",
          "name": "tokenId",
          "type": "uint256"
        },
        {
          "indexed": false,
          "internalType": "string",
          "name": "tld",
          "type": "string"
        }
      ],
      "name": "NewTld",
      "type": "event"
    },
    {
      "anonymous": false,
      "inputs": [
        {
          "indexed": true,
          "internalType": "address",
          "name": "previousOwner",
          "type": "address"
        },
        {
          "indexed": true,
          "internalType": "address",
          "name": "newOwner",
          "type": "address"
        }
      ],
      "name": "OwnershipTransferred",
      "type": "event"
    },
    {
      "anonymous": false,
      "inputs": [
        {
          "indexed": false,
          "internalType": "address",
          "name": "account",
          "type": "address"
        }
      ],
      "name": "Paused",
      "type": "event"
    },
    {
      "anonymous": false,
      "inputs": [
        {
          "indexed": true,
          "internalType": "bytes32",
          "name": "role",
          "type": "bytes32"
        },
        {
          "indexed": true,
          "internalType": "bytes32",
          "name": "previousAdminRole",
          "type": "bytes32"
        },
        {
          "indexed": true,
          "internalType": "bytes32",
          "name": "newAdminRole",
          "type": "bytes32"
        }
      ],
      "name": "RoleAdminChanged",
      "type": "event"
    },
    {
      "anonymous": false,
      "inputs": [
        {
          "indexed": true,
          "internalType": "bytes32",
          "name": "role",
          "type": "bytes32"
        },
        {
          "indexed": true,
          "internalType": "address",
          "name": "account",
          "type": "address"
        },
        {
          "indexed": true,
          "internalType": "address",
          "name": "sender",
          "type": "address"
        }
      ],
      "name": "RoleGranted",
      "type": "event"
    },
    {
      "anonymous": false,
      "inputs": [
        {
          "indexed": true,
          "internalType": "bytes32",
          "name": "role",
          "type": "bytes32"
        },
        {
          "indexed": true,
          "internalType": "address",
          "name": "account",
          "type": "address"
        },
        {
          "indexed": true,
          "internalType": "address",
          "name": "sender",
          "type": "address"
        }
      ],
      "name": "RoleRevoked",
      "type": "event"
    },
    {
      "anonymous": false,
      "inputs": [
        {
          "indexed": false,
          "internalType": "address",
          "name": "account",
          "type": "address"
        }
      ],
      "name": "Unpaused",
      "type": "event"
    },
    {
      "anonymous": false,
      "inputs": [
        {
          "indexed": true,
          "internalType": "address",
          "name": "implementation",
          "type": "address"
        }
      ],
      "name": "Upgraded",
      "type": "event"
    },
    {
      "inputs": [],
      "name": "DEFAULT_ADMIN_ROLE",
      "outputs": [
        {
          "internalType": "bytes32",
          "name": "",
          "type": "bytes32"
        }
      ],
      "stateMutability": "view",
      "type": "function"
    },
    {
      "inputs": [],
      "name": "MINTER_ROLE",
      "outputs": [
        {
          "internalType": "bytes32",
          "name": "",
          "type": "bytes32"
        }
      ],
      "stateMutability": "view",
      "type": "function"
    },
    {
      "inputs": [],
      "name": "NAME",
      "outputs": [
        {
          "internalType": "string",
          "name": "",
          "type": "string"
        }
      ],
      "stateMutability": "view",
      "type": "function"
    },
    {
      "inputs": [],
      "name": "VERSION",
      "outputs": [
        {
          "internalType": "string",
          "name": "",
          "type": "string"
        }
      ],
      "stateMutability": "view",
      "type": "function"
    },
    {
      "inputs": [
        {
          "internalType": "address",
          "name": "account",
          "type": "address"
        }
      ],
      "name": "addMinter",
      "outputs": [],
      "stateMutability": "nonpayable",
      "type": "function"
    },
    {
      "inputs": [
        {
          "internalType": "address[]",
          "name": "accounts",
          "type": "address[]"
        }
      ],
      "name": "addMinters",
      "outputs": [],
      "stateMutability": "nonpayable",
      "type": "function"
    },
    {
      "inputs": [
        {
          "internalType": "string",
          "name": "tld",
          "type": "string"
        }
      ],
      "name": "addTld",
      "outputs": [],
      "stateMutability": "nonpayable",
      "type": "function"
    },
    {
      "inputs": [
        {
          "internalType": "uint256[]",
          "name": "tokenIds",
          "type": "uint256[]"
        }
      ],
      "name": "areBlocked",
      "outputs": [
        {
          "internalType": "bool[]",
          "name": "values",
          "type": "bool[]"
        }
      ],
      "stateMutability": "view",
      "type": "function"
    },
    {
      "inputs": [
        {
          "internalType": "uint256",
          "name": "tokenId",
          "type": "uint256"
        }
      ],
      "name": "blocklist",
      "outputs": [],
      "stateMutability": "nonpayable",
      "type": "function"
    },
    {
      "inputs": [
        {
          "internalType": "uint256[]",
          "name": "tokenIds",
          "type": "uint256[]"
        }
      ],
      "name": "blocklistAll",
      "outputs": [],
      "stateMutability": "nonpayable",
      "type": "function"
    },
    {
      "inputs": [
        {
          "internalType": "uint256",
          "name": "tld",
          "type": "uint256"
        },
        {
          "internalType": "string",
          "name": "label",
          "type": "string"
        }
      ],
      "name": "claim",
      "outputs": [],
      "stateMutability": "nonpayable",
      "type": "function"
    },
    {
      "inputs": [
        {
          "internalType": "address",
          "name": "to",
          "type": "address"
        },
        {
          "internalType": "uint256",
          "name": "tld",
          "type": "uint256"
        },
        {
          "internalType": "string",
          "name": "label",
          "type": "string"
        }
      ],
      "name": "claimTo",
      "outputs": [],
      "stateMutability": "nonpayable",
      "type": "function"
    },
    {
      "inputs": [
        {
          "internalType": "address",
          "name": "to",
          "type": "address"
        },
        {
          "internalType": "uint256",
          "name": "tld",
          "type": "uint256"
        },
        {
          "internalType": "string",
          "name": "label",
          "type": "string"
        },
        {
          "internalType": "string[]",
          "name": "keys",
          "type": "string[]"
        },
        {
          "internalType": "string[]",
          "name": "values",
          "type": "string[]"
        }
      ],
      "name": "claimToWithRecords",
      "outputs": [],
      "stateMutability": "nonpayable",
      "type": "function"
    },
    {
      "inputs": [
        {
          "internalType": "address payable",
          "name": "receiver",
          "type": "address"
        }
      ],
      "name": "closeMinter",
      "outputs": [],
      "stateMutability": "payable",
      "type": "function"
    },
    {
      "inputs": [],
      "name": "cnsMintingController",
      "outputs": [
        {
          "internalType": "contract IMintingController",
          "name": "",
          "type": "address"
        }
      ],
      "stateMutability": "view",
      "type": "function"
    },
    {
      "inputs": [],
      "name": "cnsResolver",
      "outputs": [
        {
          "internalType": "contract IResolver",
          "name": "",
          "type": "address"
        }
      ],
      "stateMutability": "view",
      "type": "function"
    },
    {
      "inputs": [],
      "name": "cnsURIPrefixController",
      "outputs": [
        {
          "internalType": "contract IURIPrefixController",
          "name": "",
          "type": "address"
        }
      ],
      "stateMutability": "view",
      "type": "function"
    },
    {
      "inputs": [],
      "name": "disableBlocklist",
      "outputs": [],
      "stateMutability": "nonpayable",
      "type": "function"
    },
    {
      "inputs": [],
      "name": "enableBlocklist",
      "outputs": [],
      "stateMutability": "nonpayable",
      "type": "function"
    },
    {
      "inputs": [
        {
          "internalType": "bytes32",
          "name": "role",
          "type": "bytes32"
        }
      ],
      "name": "getRoleAdmin",
      "outputs": [
        {
          "internalType": "bytes32",
          "name": "",
          "type": "bytes32"
        }
      ],
      "stateMutability": "view",
      "type": "function"
    },
    {
      "inputs": [
        {
          "internalType": "bytes32",
          "name": "role",
          "type": "bytes32"
        },
        {
          "internalType": "address",
          "name": "account",
          "type": "address"
        }
      ],
      "name": "grantRole",
      "outputs": [],
      "stateMutability": "nonpayable",
      "type": "function"
    },
    {
      "inputs": [
        {
          "internalType": "bytes32",
          "name": "role",
          "type": "bytes32"
        },
        {
          "internalType": "address",
          "name": "account",
          "type": "address"
        }
      ],
      "name": "hasRole",
      "outputs": [
        {
          "internalType": "bool",
          "name": "",
          "type": "bool"
        }
      ],
      "stateMutability": "view",
      "type": "function"
    },
    {
      "inputs": [
        {
          "internalType": "contract IUNSRegistry",
          "name": "unsRegistry_",
          "type": "address"
        },
        {
          "internalType": "contract IMintingController",
          "name": "cnsMintingController_",
          "type": "address"
        },
        {
          "internalType": "contract IURIPrefixController",
          "name": "cnsURIPrefixController_",
          "type": "address"
        },
        {
          "internalType": "contract IResolver",
          "name": "cnsResolver_",
          "type": "address"
        },
        {
          "internalType": "address",
          "name": "forwarder",
          "type": "address"
        }
      ],
      "name": "initialize",
      "outputs": [],
      "stateMutability": "nonpayable",
      "type": "function"
    },
    {
      "inputs": [
        {
          "internalType": "uint256",
          "name": "tokenId",
          "type": "uint256"
        }
      ],
      "name": "isBlocked",
      "outputs": [
        {
          "internalType": "bool",
          "name": "",
          "type": "bool"
        }
      ],
      "stateMutability": "view",
      "type": "function"
    },
    {
      "inputs": [],
      "name": "isBlocklistDisabled",
      "outputs": [
        {
          "internalType": "bool",
          "name": "",
          "type": "bool"
        }
      ],
      "stateMutability": "view",
      "type": "function"
    },
    {
      "inputs": [
        {
          "internalType": "address",
          "name": "account",
          "type": "address"
        }
      ],
      "name": "isMinter",
      "outputs": [
        {
          "internalType": "bool",
          "name": "",
          "type": "bool"
        }
      ],
      "stateMutability": "view",
      "type": "function"
    },
    {
      "inputs": [
        {
          "internalType": "address",
          "name": "forwarder",
          "type": "address"
        }
      ],
      "name": "isTrustedForwarder",
      "outputs": [
        {
          "internalType": "bool",
          "name": "",
          "type": "bool"
        }
      ],
      "stateMutability": "view",
      "type": "function"
    },
    {
      "inputs": [
        {
          "internalType": "address",
          "name": "to",
          "type": "address"
        },
        {
          "internalType": "uint256",
          "name": "tld",
          "type": "uint256"
        },
        {
          "internalType": "string",
          "name": "label",
          "type": "string"
        }
      ],
      "name": "mintSLD",
      "outputs": [],
      "stateMutability": "nonpayable",
      "type": "function"
    },
    {
      "inputs": [
        {
          "internalType": "address",
          "name": "to",
          "type": "address"
        },
        {
          "internalType": "uint256",
          "name": "tld",
          "type": "uint256"
        },
        {
          "internalType": "string",
          "name": "label",
          "type": "string"
        },
        {
          "internalType": "string[]",
          "name": "keys",
          "type": "string[]"
        },
        {
          "internalType": "string[]",
          "name": "values",
          "type": "string[]"
        }
      ],
      "name": "mintSLDWithRecords",
      "outputs": [],
      "stateMutability": "nonpayable",
      "type": "function"
    },
    {
      "inputs": [],
      "name": "owner",
      "outputs": [
        {
          "internalType": "address",
          "name": "",
          "type": "address"
        }
      ],
      "stateMutability": "view",
      "type": "function"
    },
    {
      "inputs": [],
      "name": "pause",
      "outputs": [],
      "stateMutability": "nonpayable",
      "type": "function"
    },
    {
      "inputs": [],
      "name": "paused",
      "outputs": [
        {
          "internalType": "bool",
          "name": "",
          "type": "bool"
        }
      ],
      "stateMutability": "view",
      "type": "function"
    },
    {
      "inputs": [
        {
          "internalType": "address",
          "name": "account",
          "type": "address"
        }
      ],
      "name": "removeMinter",
      "outputs": [],
      "stateMutability": "nonpayable",
      "type": "function"
    },
    {
      "inputs": [
        {
          "internalType": "address[]",
          "name": "accounts",
          "type": "address[]"
        }
      ],
      "name": "removeMinters",
      "outputs": [],
      "stateMutability": "nonpayable",
      "type": "function"
    },
    {
      "inputs": [],
      "name": "renounceMinter",
      "outputs": [],
      "stateMutability": "nonpayable",
      "type": "function"
    },
    {
      "inputs": [],
      "name": "renounceOwnership",
      "outputs": [],
      "stateMutability": "nonpayable",
      "type": "function"
    },
    {
      "inputs": [
        {
          "internalType": "bytes32",
          "name": "role",
          "type": "bytes32"
        },
        {
          "internalType": "address",
          "name": "account",
          "type": "address"
        }
      ],
      "name": "renounceRole",
      "outputs": [],
      "stateMutability": "nonpayable",
      "type": "function"
    },
    {
      "inputs": [
        {
          "internalType": "bytes32",
          "name": "role",
          "type": "bytes32"
        },
        {
          "internalType": "address",
          "name": "account",
          "type": "address"
        }
      ],
      "name": "revokeRole",
      "outputs": [],
      "stateMutability": "nonpayable",
      "type": "function"
    },
    {
      "inputs": [
        {
          "internalType": "address payable",
          "name": "receiver",
          "type": "address"
        }
      ],
      "name": "rotateMinter",
      "outputs": [],
      "stateMutability": "payable",
      "type": "function"
    },
    {
      "inputs": [
        {
          "internalType": "address",
          "name": "to",
          "type": "address"
        },
        {
          "internalType": "uint256",
          "name": "tld",
          "type": "uint256"
        },
        {
          "internalType": "string",
          "name": "label",
          "type": "string"
        }
      ],
      "name": "safeMintSLD",
      "outputs": [],
      "stateMutability": "nonpayable",
      "type": "function"
    },
    {
      "inputs": [
        {
          "internalType": "address",
          "name": "to",
          "type": "address"
        },
        {
          "internalType": "uint256",
          "name": "tld",
          "type": "uint256"
        },
        {
          "internalType": "string",
          "name": "label",
          "type": "string"
        },
        {
          "internalType": "bytes",
          "name": "data",
          "type": "bytes"
        }
      ],
      "name": "safeMintSLD",
      "outputs": [],
      "stateMutability": "nonpayable",
      "type": "function"
    },
    {
      "inputs": [
        {
          "internalType": "address",
          "name": "to",
          "type": "address"
        },
        {
          "internalType": "uint256",
          "name": "tld",
          "type": "uint256"
        },
        {
          "internalType": "string",
          "name": "label",
          "type": "string"
        },
        {
          "internalType": "string[]",
          "name": "keys",
          "type": "string[]"
        },
        {
          "internalType": "string[]",
          "name": "values",
          "type": "string[]"
        }
      ],
      "name": "safeMintSLDWithRecords",
      "outputs": [],
      "stateMutability": "nonpayable",
      "type": "function"
    },
    {
      "inputs": [
        {
          "internalType": "address",
          "name": "to",
          "type": "address"
        },
        {
          "internalType": "uint256",
          "name": "tld",
          "type": "uint256"
        },
        {
          "internalType": "string",
          "name": "label",
          "type": "string"
        },
        {
          "internalType": "string[]",
          "name": "keys",
          "type": "string[]"
        },
        {
          "internalType": "string[]",
          "name": "values",
          "type": "string[]"
        },
        {
          "internalType": "bytes",
          "name": "data",
          "type": "bytes"
        }
      ],
      "name": "safeMintSLDWithRecords",
      "outputs": [],
      "stateMutability": "nonpayable",
      "type": "function"
    },
    {
      "inputs": [
        {
          "internalType": "address",
          "name": "forwarder",
          "type": "address"
        }
      ],
      "name": "setForwarder",
      "outputs": [],
      "stateMutability": "nonpayable",
      "type": "function"
    },
    {
      "inputs": [
        {
          "internalType": "address",
          "name": "resolver",
          "type": "address"
        }
      ],
      "name": "setResolver",
      "outputs": [],
      "stateMutability": "nonpayable",
      "type": "function"
    },
    {
      "inputs": [
        {
          "internalType": "string",
          "name": "prefix",
          "type": "string"
        }
      ],
      "name": "setTokenURIPrefix",
      "outputs": [],
      "stateMutability": "nonpayable",
      "type": "function"
    },
    {
      "inputs": [
        {
          "internalType": "bytes4",
          "name": "interfaceId",
          "type": "bytes4"
        }
      ],
      "name": "supportsInterface",
      "outputs": [
        {
          "internalType": "bool",
          "name": "",
          "type": "bool"
        }
      ],
      "stateMutability": "view",
      "type": "function"
    },
    {
      "inputs": [
        {
          "internalType": "address",
          "name": "newOwner",
          "type": "address"
        }
      ],
      "name": "transferOwnership",
      "outputs": [],
      "stateMutability": "nonpayable",
      "type": "function"
    },
    {
      "inputs": [],
      "name": "unpause",
      "outputs": [],
      "stateMutability": "nonpayable",
      "type": "function"
    },
    {
      "inputs": [],
      "name": "unsRegistry",
      "outputs": [
        {
          "internalType": "contract IUNSRegistry",
          "name": "",
          "type": "address"
        }
      ],
      "stateMutability": "view",
      "type": "function"
    }
  ],
  "bytecode": "0x608060405234801561001057600080fd5b50614485806100206000396000f3fe6080604052600436106102c95760003560e01c806371e2a65711610175578063a849d65c116100dc578063cc2c3fc411610095578063d547741f1161006f578063d547741f14610810578063e47d6cc614610830578063f2fde38b14610850578063ffa1ad7414610870576102c9565b8063cc2c3fc4146107c6578063ceeb4f50146107db578063d5391393146107fb576102c9565b8063a849d65c14610711578063aa271e1a14610726578063ae2ad90314610746578063b0aa98c714610766578063b9998a2414610786578063c3a3bc00146107a6576102c9565b806391d148541161012e57806391d1485414610665578063983b2d561461068557806398650275146106a557806399e0dd7c146106ba578063a217fddf146106da578063a3f4df7e146106ef576102c9565b806371e2a657146105d357806381c81d35146105f35780638456cb59146106065780638da5cb5b1461061b578063906cecc11461063057806390dbdb5a14610650576102c9565b80633f41b6141161023457806358839d6b116101ed5780635fc1964f116101c75780635fc1964f1461056b578063634486da1461058b5780636a2d22561461059e578063715018a6146105be576102c9565b806358839d6b146105215780635b6fa8db146105415780635c975abb14610556576102c9565b80633f41b6141461046a5780633f4ba83a1461048c578063463c4bcb146104a15780634c1819e0146104c15780634e543b26146104e1578063572b6c0514610501576102c9565b806327bbd2251161028657806327bbd225146103b55780632eff1a95146103d55780632f2ff15d146103ea5780633092afd51461040a57806336568abe1461042a57806339ccf4d01461044a576102c9565b806301ffc9a7146102ce5780630e36a87d1461030457806310921f12146103315780631459457a14610346578063248a9ca314610368578063268b15ed14610395575b600080fd5b3480156102da57600080fd5b506102ee6102e9366004613920565b610885565b6040516102fb9190613f38565b60405180910390f35b34801561031057600080fd5b5061032461031f36600461387a565b6108b2565b6040516102fb9190613eb8565b34801561033d57600080fd5b506102ee610989565b34801561035257600080fd5b50610366610361366004613948565b6109ac565b005b34801561037457600080fd5b506103886103833660046138d9565b610c06565b6040516102fb9190613f43565b3480156103a157600080fd5b506103666103b03660046139eb565b610c1b565b3480156103c157600080fd5b506103666103d03660046135a6565b610d26565b3480156103e157600080fd5b50610366610e9a565b3480156103f657600080fd5b506103666104053660046138f1565b610ee3565b34801561041657600080fd5b50610366610425366004613531565b610f0c565b34801561043657600080fd5b506103666104453660046138f1565b610f57565b34801561045657600080fd5b506103666104653660046135a6565b610f9d565b34801561047657600080fd5b5061047f6110f6565b6040516102fb9190613c9a565b34801561049857600080fd5b50610366611105565b3480156104ad57600080fd5b506103666104bc3660046138d9565b61114c565b3480156104cd57600080fd5b506103666104dc36600461354d565b61117c565b3480156104ed57600080fd5b506103666104fc366004613531565b6112b3565b34801561050d57600080fd5b506102ee61051c366004613531565b611314565b34801561052d57600080fd5b5061036661053c366004613732565b611355565b34801561054d57600080fd5b5061047f6114b5565b34801561056257600080fd5b506102ee6114c4565b34801561057757600080fd5b506103666105863660046137ba565b6114dd565b610366610599366004613531565b61156a565b3480156105aa57600080fd5b506103666105b9366004613657565b6115fd565b3480156105ca57600080fd5b506103666117a8565b3480156105df57600080fd5b506103666105ee3660046137ba565b611831565b610366610601366004613531565b6118be565b34801561061257600080fd5b5061036661190b565b34801561062757600080fd5b5061047f611952565b34801561063c57600080fd5b5061036661064b36600461354d565b611961565b34801561065c57600080fd5b50610366611a5b565b34801561067157600080fd5b506102ee6106803660046138f1565b611aa2565b34801561069157600080fd5b506103666106a0366004613531565b611acd565b3480156106b157600080fd5b50610366611b15565b3480156106c657600080fd5b506103666106d53660046139b8565b611b2f565b3480156106e657600080fd5b50610388611c45565b3480156106fb57600080fd5b50610704611c4a565b6040516102fb9190613f68565b34801561071d57600080fd5b5061047f611c7a565b34801561073257600080fd5b506102ee610741366004613531565b611c89565b34801561075257600080fd5b5061036661076136600461354d565b611ca3565b34801561077257600080fd5b506102ee6107813660046138d9565b611df6565b34801561079257600080fd5b506103666107a1366004613531565b611e64565b3480156107b257600080fd5b506103666107c13660046139b8565b611eac565b3480156107d257600080fd5b5061047f611f2a565b3480156107e757600080fd5b506103666107f63660046135a6565b611f39565b34801561080757600080fd5b5061038861203c565b34801561081c57600080fd5b5061036661082b3660046138f1565b61204e565b34801561083c57600080fd5b5061036661084b36600461387a565b61206d565b34801561085c57600080fd5b5061036661086b366004613531565b61209e565b34801561087c57600080fd5b506107046120f1565b60006001600160e01b03198216637965db0b60e01b14806108aa57506108aa82612112565b90505b919050565b6060816001600160401b038111156108da57634e487b7160e01b600052604160045260246000fd5b604051908082528060200260200182016040528015610903578160200160208202803683370190505b50905060005b828110156109825761094084848381811061093457634e487b7160e01b600052603260045260246000fd5b90506020020135611df6565b82828151811061096057634e487b7160e01b600052603260045260246000fd5b911515602092830291909101909101528061097a8161439c565b915050610909565b5092915050565b60006109a26000805160206144198339815191526109a9565b5460ff1690505b90565b600054610100900460ff16806109c5575060005460ff16155b6109ea5760405162461bcd60e51b81526004016109e1906140eb565b60405180910390fd5b600054610100900460ff16158015610a15576000805460ff1961ff0019909116610100171660011790555b60c980546001600160a01b038089166001600160a01b03199283161790925560ca805488841690831617905560cb805487841690831617905560cc805492861692909116919091179055610a6761212b565b610a6f6121f7565b610a788261227d565b610a806122fb565b610a88612397565b6040805161016081018252600661012082018181526563727970746f60d01b610140840152825282518084018452908152651dd85b1b195d60d21b6020828101919091528083019190915282518084018452600481526331b7b4b760e11b81830152828401528251808401845260018152600f60fb1b818301526060830152825180840184526003808252621b999d60ea1b82840152608084019190915283518085018552600a815269313637b1b5b1b430b4b760b11b8184015260a08401528351808501855260078152663134ba31b7b4b760c91b8184015260c0840152835180850185528181526207070760eb1b8184015260e0840152835180850190945283526264616f60e81b9083015261010081019190915260005b6009811015610bea57610bd8828260098110610bce57634e487b7160e01b600052603260045260246000fd5b6020020151612410565b80610be28161439c565b915050610ba2565b50508015610bfe576000805461ff00191690555b505050505050565b60009081526097602052604090206001015490565b8282828080601f016020809104026020016040519081016040528093929190818152602001838380828437600092018290525085815260cd6020526040812080549194509250610c6b9150614361565b905011610c8a5760405162461bcd60e51b81526004016109e19061424a565b6000610c9582612534565b9050600a81600001511115610ce657610cb9610cb4826000600a612559565b61258c565b6000805160206144398339815191521415610ce65760405162461bcd60e51b81526004016109e190614139565b610cee6114c4565b15610d0b5760405162461bcd60e51b81526004016109e1906141e9565b610bfe610d16612598565b87610d2188886125a7565b6125d3565b610d31610741612598565b610d4d5760405162461bcd60e51b81526004016109e19061417f565b8686868080601f016020809104026020016040519081016040528093929190818152602001838380828437600092018290525085815260cd6020526040812080549194509250610d9d9150614361565b905011610dbc5760405162461bcd60e51b81526004016109e19061424a565b6000610dc782612534565b9050600a81600001511115610e1357610de6610cb4826000600a612559565b6000805160206144398339815191521415610e135760405162461bcd60e51b81526004016109e190614139565b610e1b6114c4565b15610e385760405162461bcd60e51b81526004016109e1906141e9565b610e8d8b8b8b8b8080601f016020809104026020016040519081016040528093929190818152602001838380828437600092018290525060408051602081019091529081528e93508d92508c91508b906126da565b5050505050505050505050565b610ea2612598565b6001600160a01b0316610eb3611952565b6001600160a01b031614610ed95760405162461bcd60e51b81526004016109e1906141b4565b610ee1612855565b565b610eec82610c06565b610efd81610ef8612598565b6128e2565b610f078383612946565b505050565b610f14612598565b6001600160a01b0316610f25611952565b6001600160a01b031614610f4b5760405162461bcd60e51b81526004016109e1906141b4565b610f54816129cd565b50565b610f5f612598565b6001600160a01b0316816001600160a01b031614610f8f5760405162461bcd60e51b81526004016109e19061428c565b610f9982826129e5565b5050565b610fa8610741612598565b610fc45760405162461bcd60e51b81526004016109e19061417f565b8686868080601f016020809104026020016040519081016040528093929190818152602001838380828437600092018290525085815260cd60205260408120805491945092506110149150614361565b9050116110335760405162461bcd60e51b81526004016109e19061424a565b600061103e82612534565b9050600a8160000151111561108a5761105d610cb4826000600a612559565b600080516020614439833981519152141561108a5760405162461bcd60e51b81526004016109e190614139565b6110926114c4565b156110af5760405162461bcd60e51b81526004016109e1906141e9565b610e8d8b8b8b8b8080601f0160208091040260200160405190810160405280939291908181526020018383808284376000920191909152508d92508c91508b90508a612a6a565b60c9546001600160a01b031681565b61110d612598565b6001600160a01b031661111e611952565b6001600160a01b0316146111445760405162461bcd60e51b81526004016109e1906141b4565b610ee1612bef565b611157610741612598565b6111735760405162461bcd60e51b81526004016109e19061417f565b610f5481612c64565b611187610741612598565b6111a35760405162461bcd60e51b81526004016109e19061417f565b8282828080601f016020809104026020016040519081016040528093929190818152602001838380828437600092018290525085815260cd60205260408120805491945092506111f39150614361565b9050116112125760405162461bcd60e51b81526004016109e19061424a565b600061121d82612534565b9050600a816000015111156112695761123c610cb4826000600a612559565b60008051602061443983398151915214156112695760405162461bcd60e51b81526004016109e190614139565b6112716114c4565b1561128e5760405162461bcd60e51b81526004016109e1906141e9565b6112aa8787878760405180602001604052806000815250612d0e565b50505050505050565b6112bb612598565b6001600160a01b03166112cc611952565b6001600160a01b0316146112f25760405162461bcd60e51b81526004016109e1906141b4565b60cc80546001600160a01b0319166001600160a01b0392909216919091179055565b600061133f7f893ef2ea16c023f61d4f55d3e6ee3fc3f2fbfd478461323dbc2fbf919047086e6109a9565b546001600160a01b038381169116149050919050565b611360610741612598565b61137c5760405162461bcd60e51b81526004016109e19061417f565b8484848080601f016020809104026020016040519081016040528093929190818152602001838380828437600092018290525085815260cd60205260408120805491945092506113cc9150614361565b9050116113eb5760405162461bcd60e51b81526004016109e19061424a565b60006113f682612534565b9050600a8160000151111561144257611415610cb4826000600a612559565b60008051602061443983398151915214156114425760405162461bcd60e51b81526004016109e190614139565b61144a6114c4565b156114675760405162461bcd60e51b81526004016109e1906141e9565b6114aa8989898989898080601f016020809104026020016040519081016040528093929190818152602001838380828437600092019190915250612d0e92505050565b505050505050505050565b60cc546001600160a01b031681565b60006109a26000805160206143f98339815191526109a9565b6114e5612598565b6001600160a01b03166114f6611952565b6001600160a01b03161461151c5760405162461bcd60e51b81526004016109e1906141b4565b60005b8151811015610f995761155882828151811061154b57634e487b7160e01b600052603260045260246000fd5b60200260200101516129cd565b806115628161439c565b91505061151f565b611575610741612598565b6115915760405162461bcd60e51b81526004016109e19061417f565b6001600160a01b0381166115b75760405162461bcd60e51b81526004016109e19061404f565b6115c081612e8e565b6115c8611b15565b6040516001600160a01b038216903480156108fc02916000818181858888f19350505050158015610f99573d6000803e3d6000fd5b611608610741612598565b6116245760405162461bcd60e51b81526004016109e19061417f565b8888888080601f016020809104026020016040519081016040528093929190818152602001838380828437600092018290525085815260cd60205260408120805491945092506116749150614361565b9050116116935760405162461bcd60e51b81526004016109e19061424a565b600061169e82612534565b9050600a816000015111156116ea576116bd610cb4826000600a612559565b60008051602061443983398151915214156116ea5760405162461bcd60e51b81526004016109e190614139565b6116f26114c4565b1561170f5760405162461bcd60e51b81526004016109e1906141e9565b6117998d8d8d8d8080601f016020809104026020016040519081016040528093929190818152602001838380828437600081840152601f19601f820116905080830192505050505050508c8c8c8c8c8c8080601f0160208091040260200160405190810160405280939291908181526020018383808284376000920191909152506126da92505050565b50505050505050505050505050565b6117b0612598565b6001600160a01b03166117c1611952565b6001600160a01b0316146117e75760405162461bcd60e51b81526004016109e1906141b4565b6033546040516000916001600160a01b0316907f8be0079c531659141344cd1fd0a4f28419497f9722a3daafe3b4186f6b6457e0908390a3603380546001600160a01b0319169055565b611839612598565b6001600160a01b031661184a611952565b6001600160a01b0316146118705760405162461bcd60e51b81526004016109e1906141b4565b60005b8151811015610f99576118ac82828151811061189f57634e487b7160e01b600052603260045260246000fd5b6020026020010151612e8e565b806118b68161439c565b915050611873565b6118c9610741612598565b6118e55760405162461bcd60e51b81526004016109e19061417f565b6001600160a01b0381166115c05760405162461bcd60e51b81526004016109e19061404f565b611913612598565b6001600160a01b0316611924611952565b6001600160a01b03161461194a5760405162461bcd60e51b81526004016109e1906141b4565b610ee1612ea6565b6033546001600160a01b031690565b8282828080601f016020809104026020016040519081016040528093929190818152602001838380828437600092018290525085815260cd60205260408120805491945092506119b19150614361565b9050116119d05760405162461bcd60e51b81526004016109e19061424a565b60006119db82612534565b9050600a81600001511115611a27576119fa610cb4826000600a612559565b6000805160206144398339815191521415611a275760405162461bcd60e51b81526004016109e190614139565b611a2f6114c4565b15611a4c5760405162461bcd60e51b81526004016109e1906141e9565b6112aa8787610d2188886125a7565b611a63612598565b6001600160a01b0316611a74611952565b6001600160a01b031614611a9a5760405162461bcd60e51b81526004016109e1906141b4565b610ee1612f1c565b60009182526097602090815260408084206001600160a01b0393909316845291905290205460ff1690565b611ad5612598565b6001600160a01b0316611ae6611952565b6001600160a01b031614611b0c5760405162461bcd60e51b81526004016109e1906141b4565b610f5481612e8e565b610ee1600080516020614459833981519152610445612598565b611b37612598565b6001600160a01b0316611b48611952565b6001600160a01b031614611b6e5760405162461bcd60e51b81526004016109e1906141b4565b60c954604051632678375f60e21b81526001600160a01b03909116906399e0dd7c90611ba09085908590600401613f4c565b600060405180830381600087803b158015611bba57600080fd5b505af1158015611bce573d6000803e3d6000fd5b505060cb546001600160a01b0316159150610f9990505760cb54604051632678375f60e21b81526001600160a01b03909116906399e0dd7c90611c179085908590600401613f4c565b600060405180830381600087803b158015611c3157600080fd5b505af1158015610bfe573d6000803e3d6000fd5b600081565b604051806040016040528060148152602001732aa7299d1026b4b73a34b7339026b0b730b3b2b960611b81525081565b60cb546001600160a01b031681565b60006108aa60008051602061445983398151915283611aa2565b611cae610741612598565b611cca5760405162461bcd60e51b81526004016109e19061417f565b8282828080601f016020809104026020016040519081016040528093929190818152602001838380828437600092018290525085815260cd6020526040812080549194509250611d1a9150614361565b905011611d395760405162461bcd60e51b81526004016109e19061424a565b6000611d4482612534565b9050600a81600001511115611d9057611d63610cb4826000600a612559565b6000805160206144398339815191521415611d905760405162461bcd60e51b81526004016109e190614139565b611d986114c4565b15611db55760405162461bcd60e51b81526004016109e1906141e9565b6112aa878787878080601f0160208091040260200160405190810160405280939291908181526020018383808284376000920191909152506125d392505050565b6000611e00610989565b1580156108aa5750604051611e5a90611e3f907f1ec047073e2c8b15660901dbfdb6e3ff6365bd699dd9f95dcc6eab5448bebd69908590602001613b14565b604051602081830303815290604052805190602001206109a9565b5460ff1692915050565b611e6c612598565b6001600160a01b0316611e7d611952565b6001600160a01b031614611ea35760405162461bcd60e51b81526004016109e1906141b4565b610f5481612f91565b611eb4612598565b6001600160a01b0316611ec5611952565b6001600160a01b031614611eeb5760405162461bcd60e51b81526004016109e1906141b4565b610f9982828080601f01602080910402602001604051908101604052809392919081815260200183838082843760009201919091525061241092505050565b60ca546001600160a01b031681565b8686868080601f016020809104026020016040519081016040528093929190818152602001838380828437600092018290525085815260cd6020526040812080549194509250611f899150614361565b905011611fa85760405162461bcd60e51b81526004016109e19061424a565b6000611fb382612534565b9050600a81600001511115611fff57611fd2610cb4826000600a612559565b6000805160206144398339815191521415611fff5760405162461bcd60e51b81526004016109e190614139565b6120076114c4565b156120245760405162461bcd60e51b81526004016109e1906141e9565b610e8d8b8b6120338c8c6125a7565b8a8a8a8a612a6a565b60008051602061445983398151915281565b61205782610c06565b61206381610ef8612598565b610f0783836129e5565b612078610741612598565b6120945760405162461bcd60e51b81526004016109e19061417f565b610f998282612fdc565b6120a6612598565b6001600160a01b03166120b7611952565b6001600160a01b0316146120dd5760405162461bcd60e51b81526004016109e1906141b4565b6120e681613028565b610f546000826130e9565b604051806040016040528060058152602001640302e332e360dc1b81525081565b6001600160e01b031981166301ffc9a760e01b14919050565b600054610100900460ff1680612144575060005460ff16155b6121605760405162461bcd60e51b81526004016109e1906140eb565b600054610100900460ff1615801561218b576000805460ff1961ff0019909116610100171660011790555b6000612195612598565b603380546001600160a01b0319166001600160a01b038316908117909155604051919250906000907f8be0079c531659141344cd1fd0a4f28419497f9722a3daafe3b4186f6b6457e0908290a3508015610f54576000805461ff001916905550565b600054610100900460ff1680612210575060005460ff16155b61222c5760405162461bcd60e51b81526004016109e1906140eb565b600054610100900460ff16158015612257576000805460ff1961ff0019909116610100171660011790555b6122696000612264612598565b6130e9565b8015610f54576000805461ff001916905550565b600054610100900460ff1680612296575060005460ff16155b6122b25760405162461bcd60e51b81526004016109e1906140eb565b600054610100900460ff161580156122dd576000805460ff1961ff0019909116610100171660011790555b6122e682612f91565b8015610f99576000805461ff00191690555050565b600054610100900460ff1680612314575060005460ff16155b6123305760405162461bcd60e51b81526004016109e1906140eb565b600054610100900460ff1615801561235b576000805460ff1961ff0019909116610100171660011790555b60006123746000805160206144198339815191526109a9565b805460ff19169115159190911790558015610f54576000805461ff001916905550565b600054610100900460ff16806123b0575060005460ff16155b6123cc5760405162461bcd60e51b81526004016109e1906140eb565b600054610100900460ff161580156123f7576000805460ff1961ff0019909116610100171660011790555b60006123746000805160206143f98339815191526109a9565b600061241d6000836130f3565b600081815260cd6020908152604090912084519293506124419290918501906133ec565b50807f4fce6f6e172b04eaa80325d8e3b0180a34945000f3e214605039e8420fdf8980836040516124729190613f68565b60405180910390a260c954604051634f558e7960e01b81526001600160a01b0390911690634f558e79906124aa908490600401613f43565b60206040518083038186803b1580156124c257600080fd5b505afa1580156124d6573d6000803e3d6000fd5b505050506040513d601f19601f820116820180604052508101906124fa91906138b9565b610f995760c9546040516334ff261960e21b81526001600160a01b039091169063d3fc986490611c179061dead9085908790600401613d75565b61253c613470565b506040805180820190915281518152602082810190820152919050565b612561613470565b604051806040016040528083815260200184866020015161258291906142e7565b9052949350505050565b80516020909101512090565b60006125a261316f565b905090565b606082826040516020016125bc929190613bfd565b604051602081830303815290604052905092915050565b60006125df83836130f3565b90506125ea8161319d565b6125f3836131cf565b156126665760ca5460cc5460405163c36c212560e01b81526001600160a01b039283169263c36c21259261262f92899288921690600401613cf8565b600060405180830381600087803b15801561264957600080fd5b505af115801561265d573d6000803e3d6000fd5b505050506126d4565b60c9546001600160a01b031663d3fc98648583612683878761320d565b6040518463ffffffff1660e01b81526004016126a193929190613d75565b600060405180830381600087803b1580156126bb57600080fd5b505af11580156126cf573d6000803e3d6000fd5b505050505b50505050565b60006126e688886130f3565b90506126f18161319d565b6126fa886131cf565b156127e25760ca5460cc54604051630f95e75b60e31b81526001600160a01b0392831692637caf3ad892612738928e928d9216908890600401613d2d565b600060405180830381600087803b15801561275257600080fd5b505af1158015612766573d6000803e3d6000fd5b5050861591506127dd90505760cc54604051633a0deb9d60e21b81526001600160a01b039091169063e837ae74906127aa9089908990899089908890600401613efe565b600060405180830381600087803b1580156127c457600080fd5b505af11580156127d8573d6000803e3d6000fd5b505050505b6114aa565b60c9546001600160a01b031663efda4d3e8a836127ff8c8c61320d565b8a8a8a8a8a6040518963ffffffff1660e01b8152600401612827989796959493929190613e02565b600060405180830381600087803b15801561284157600080fd5b505af1158015611799573d6000803e3d6000fd5b61285d610989565b1561287a5760405162461bcd60e51b81526004016109e190613f7b565b60016128936000805160206144198339815191526109a9565b805460ff19169115159190911790557f079c4efaefd9fc7ddb28144b9b0140c03f42922d28d0e226369d6070921581666128cb612598565b6040516128d89190613c9a565b60405180910390a1565b6128ec8282611aa2565b610f9957612904816001600160a01b03166014613230565b61290f836020613230565b604051602001612920929190613c25565b60408051601f198184030181529082905262461bcd60e51b82526109e191600401613f68565b6129508282611aa2565b610f995760008281526097602090815260408083206001600160a01b03851684529091529020805460ff19166001179055612989612598565b6001600160a01b0316816001600160a01b0316837f2f8788117e7eff1d82e926ec794901d17c78024a50270940304540a733656f0d60405160405180910390a45050565b610f546000805160206144598339815191528261204e565b6129ef8282611aa2565b15610f995760008281526097602090815260408083206001600160a01b03851684529091529020805460ff19169055612a26612598565b6001600160a01b0316816001600160a01b0316837ff6391f5c32d9c69d2a47ea670b442974b53935d1edc7fd64eb21e047a839171b60405160405180910390a45050565b6000612a7687876130f3565b9050612a818161319d565b612a8a876131cf565b15612b705760ca5460cc5460405163c36c212560e01b81526001600160a01b039283169263c36c212592612ac6928d928c921690600401613cf8565b600060405180830381600087803b158015612ae057600080fd5b505af1158015612af4573d6000803e3d6000fd5b505085159150612b6b90505760cc54604051633a0deb9d60e21b81526001600160a01b039091169063e837ae7490612b389088908890889088908890600401613efe565b600060405180830381600087803b158015612b5257600080fd5b505af1158015612b66573d6000803e3d6000fd5b505050505b6126cf565b60c9546001600160a01b031663b0f591778983612b8d8b8b61320d565b898989896040518863ffffffff1660e01b8152600401612bb39796959493929190613da5565b600060405180830381600087803b158015612bcd57600080fd5b505af1158015612be1573d6000803e3d6000fd5b505050505050505050505050565b612bf76114c4565b612c135760405162461bcd60e51b81526004016109e190614086565b6000612c2c6000805160206143f98339815191526109a9565b805460ff19169115159190911790557f5db9ee0a495bf2e6ff9c91a7834c1ba4fdd244a5e8aa4e537bd38aeae4b073aa6128cb612598565b612c6c610989565b15612c895760405162461bcd60e51b81526004016109e190613f7b565b6001612cc47f1ec047073e2c8b15660901dbfdb6e3ff6365bd699dd9f95dcc6eab5448bebd6960001b83604051602001611e3f929190613b14565b805460ff19169115159190911790556040517f2ce5d9351b1d590d5a066db0d2dc7602d55f092506a83a7ee8c4d78ee357d75a90612d03908390613f43565b60405180910390a150565b6000612d508585858080601f0160208091040260200160405190810160405280939291908181526020018383808284376000920191909152506130f392505050565b9050612d5b8161319d565b612d64856131cf565b15612ddc5760ca5460cc54604051630f95e75b60e31b81526001600160a01b0392831692637caf3ad892612da5928b928a928a929116908990600401613cae565b600060405180830381600087803b158015612dbf57600080fd5b505af1158015612dd3573d6000803e3d6000fd5b50505050610bfe565b60c954604080516020601f87018190048102820181019092528581526001600160a01b039092169163b55bc6179189918591612e34918b918b908b908190840183828082843760009201919091525061320d92505050565b866040518563ffffffff1660e01b8152600401612e549493929190613e74565b600060405180830381600087803b158015612e6e57600080fd5b505af1158015612e82573d6000803e3d6000fd5b50505050505050505050565b610f54600080516020614459833981519152826130e9565b612eae6114c4565b15612ecb5760405162461bcd60e51b81526004016109e1906141e9565b6001612ee46000805160206143f98339815191526109a9565b805460ff19169115159190911790557f62e78cea01bee320cd4e420270b5ea74000d11b0c9f74754ebdbfc544b05a2586128cb612598565b612f24610989565b612f405760405162461bcd60e51b81526004016109e190613fdd565b6000612f596000805160206144198339815191526109a9565b805460ff19169115159190911790557f316c4cec74b9568f102eda30781a2fe8cd5172329bf1401e804cb8c5131715c46128cb612598565b80612fbb7f893ef2ea16c023f61d4f55d3e6ee3fc3f2fbfd478461323dbc2fbf919047086e6109a9565b80546001600160a01b0319166001600160a01b039290921691909117905550565b60005b81811015610f075761301683838381811061300a57634e487b7160e01b600052603260045260246000fd5b90506020020135612c64565b806130208161439c565b915050612fdf565b613030612598565b6001600160a01b0316613041611952565b6001600160a01b0316146130675760405162461bcd60e51b81526004016109e1906141b4565b6001600160a01b03811661308d5760405162461bcd60e51b81526004016109e190614009565b6033546040516001600160a01b038084169216907f8be0079c531659141344cd1fd0a4f28419497f9722a3daafe3b4186f6b6457e090600090a3603380546001600160a01b0319166001600160a01b0392909216919091179055565b610f998282612946565b60008151600014156131175760405162461bcd60e51b81526004016109e190614213565b82826040516020016131299190613b22565b60405160208183030381529060405280519060200120604051602001613150929190613b14565b60408051601f1981840301815291905280516020909101209392505050565b600061317a33611314565b1561318e575060331936013560601c6109a9565b6131966133e8565b90506109a9565b6131a5610989565b610f54576131b281611df6565b156111735760405162461bcd60e51b81526004016109e1906140b4565b60ca546000906001600160a01b0316158015906108aa5750507f0f4a10a4f46c288cea365fcf45cccf0e9d901b945b9829ccdb54c10dc3cb7a6f1490565b600082815260cd602090815260409182902091516060926125bc92859201613b3e565b6060600061323f8360026142ff565b61324a9060026142e7565b6001600160401b0381111561326f57634e487b7160e01b600052604160045260246000fd5b6040519080825280601f01601f191660200182016040528015613299576020820181803683370190505b509050600360fc1b816000815181106132c257634e487b7160e01b600052603260045260246000fd5b60200101906001600160f81b031916908160001a905350600f60fb1b816001815181106132ff57634e487b7160e01b600052603260045260246000fd5b60200101906001600160f81b031916908160001a90535060006133238460026142ff565b61332e9060016142e7565b90505b60018111156133c2576f181899199a1a9b1b9c1cb0b131b232b360811b85600f166010811061337057634e487b7160e01b600052603260045260246000fd5b1a60f81b82828151811061339457634e487b7160e01b600052603260045260246000fd5b60200101906001600160f81b031916908160001a90535060049490941c936133bb8161434a565b9050613331565b5083156133e15760405162461bcd60e51b81526004016109e190613fa8565b9392505050565b3390565b8280546133f890614361565b90600052602060002090601f01602090048101928261341a5760008555613460565b82601f1061343357805160ff1916838001178555613460565b82800160010185558215613460579182015b82811115613460578251825591602001919060010190613445565b5061346c92915061348a565b5090565b604051806040016040528060008152602001600081525090565b5b8082111561346c576000815560010161348b565b80356108ad816143e3565b60008083601f8401126134bb578182fd5b5081356001600160401b038111156134d1578182fd5b60208301915083602080830285010111156134eb57600080fd5b9250929050565b60008083601f840112613503578182fd5b5081356001600160401b03811115613519578182fd5b6020830191508360208285010111156134eb57600080fd5b600060208284031215613542578081fd5b81356133e1816143e3565b60008060008060608587031215613562578283fd5b843561356d816143e3565b93506020850135925060408501356001600160401b0381111561358e578283fd5b61359a878288016134f2565b95989497509550505050565b60008060008060008060008060a0898b0312156135c1578384fd5b88356135cc816143e3565b97506020890135965060408901356001600160401b03808211156135ee578586fd5b6135fa8c838d016134f2565b909850965060608b0135915080821115613612578586fd5b61361e8c838d016134aa565b909650945060808b0135915080821115613636578384fd5b506136438b828c016134aa565b999c989b5096995094979396929594505050565b60008060008060008060008060008060c08b8d031215613675578182fd5b61367e8b61349f565b995060208b0135985060408b01356001600160401b03808211156136a0578384fd5b6136ac8e838f016134f2565b909a50985060608d01359150808211156136c4578384fd5b6136d08e838f016134aa565b909850965060808d01359150808211156136e8578384fd5b6136f48e838f016134aa565b909650945060a08d013591508082111561370c578384fd5b506137198d828e016134f2565b915080935050809150509295989b9194979a5092959850565b6000806000806000806080878903121561374a578182fd5b8635613755816143e3565b95506020870135945060408701356001600160401b0380821115613777578384fd5b6137838a838b016134f2565b9096509450606089013591508082111561379b578384fd5b506137a889828a016134f2565b979a9699509497509295939492505050565b600060208083850312156137cc578182fd5b82356001600160401b03808211156137e2578384fd5b818501915085601f8301126137f5578384fd5b813581811115613807576138076143cd565b83810260405185828201018181108582111715613826576138266143cd565b604052828152858101935084860182860187018a1015613844578788fd5b8795505b8386101561386d576138598161349f565b855260019590950194938601938601613848565b5098975050505050505050565b6000806020838503121561388c578182fd5b82356001600160401b038111156138a1578283fd5b6138ad858286016134aa565b90969095509350505050565b6000602082840312156138ca578081fd5b815180151581146133e1578182fd5b6000602082840312156138ea578081fd5b5035919050565b60008060408385031215613903578182fd5b823591506020830135613915816143e3565b809150509250929050565b600060208284031215613931578081fd5b81356001600160e01b0319811681146133e1578182fd5b600080600080600060a0868803121561395f578283fd5b853561396a816143e3565b9450602086013561397a816143e3565b9350604086013561398a816143e3565b9250606086013561399a816143e3565b915060808601356139aa816143e3565b809150509295509295909350565b600080602083850312156139ca578182fd5b82356001600160401b038111156139df578283fd5b6138ad858286016134f2565b6000806000604084860312156139ff578081fd5b8335925060208401356001600160401b03811115613a1b578182fd5b613a27868287016134f2565b9497909650939450505050565b818352602080840193600091908185020181018584845b87811015613ab15782840389528135601e19883603018112613a6b578687fd5b870180356001600160401b03811115613a82578788fd5b803603891315613a90578788fd5b613a9d8682898501613aea565b9a87019a9550505090840190600101613a4b565b5091979650505050505050565b60008151808452613ad681602086016020860161431e565b601f01601f19169290920160200192915050565b60008284528282602086013780602084860101526020601f19601f85011685010190509392505050565b918252602082015260400190565b60008251613b3481846020870161431e565b9190910192915050565b600083516020613b51828583890161431e565b601760f91b918401918252845460019084906002810481841680613b7657607f821691505b858210811415613b9457634e487b7160e01b88526022600452602488fd5b808015613ba85760018114613bbd57613bed565b60ff1984168887015282880186019450613bed565b613bc68b6142db565b895b84811015613be35781548a8201890152908701908801613bc8565b5050858389010194505b50929a9950505050505050505050565b60006b756e732d646576746573742d60a01b82528284600c8401379101600c01908152919050565b60007f416363657373436f6e74726f6c3a206163636f756e742000000000000000000082528351613c5d81601785016020880161431e565b7001034b99036b4b9b9b4b733903937b6329607d1b6017918401918201528351613c8e81602884016020880161431e565b01602801949350505050565b6001600160a01b0391909116815260200190565b600060018060a01b03808816835260806020840152613cd1608084018789613aea565b81861660408501528381036060850152613ceb8186613abe565b9998505050505050505050565b600060018060a01b03808616835260606020840152613d1a6060840186613abe565b9150808416604084015250949350505050565b600060018060a01b03808716835260806020840152613d4f6080840187613abe565b81861660408501528381036060850152613d698186613abe565b98975050505050505050565b600060018060a01b038516825283602083015260606040830152613d9c6060830184613abe565b95945050505050565b600060018060a01b038916825287602083015260a06040830152613dcc60a0830188613abe565b8281036060840152613ddf818789613a34565b90508281036080840152613df4818587613a34565b9a9950505050505050505050565b600060018060a01b038a16825288602083015260c06040830152613e2960c0830189613abe565b8281036060840152613e3c81888a613a34565b90508281036080840152613e51818688613a34565b905082810360a0840152613e658185613abe565b9b9a5050505050505050505050565b600060018060a01b038616825284602083015260806040830152613e9b6080830185613abe565b8281036060840152613ead8185613abe565b979650505050505050565b6020808252825182820181905260009190848201906040850190845b81811015613ef2578351151583529284019291840191600101613ed4565b50909695505050505050565b600060608252613f12606083018789613a34565b8281036020840152613f25818688613a34565b9150508260408301529695505050505050565b901515815260200190565b90815260200190565b600060208252613f60602083018486613aea565b949350505050565b6000602082526133e16020830184613abe565b602080825260139082015272109b1bd8dadb1a5cdd0e88111254d050931151606a1b604082015260600190565b6020808252818101527f537472696e67733a20686578206c656e67746820696e73756666696369656e74604082015260600190565b602080825260129082015271109b1bd8dadb1a5cdd0e881153905093115160721b604082015260600190565b60208082526026908201527f4f776e61626c653a206e6577206f776e657220697320746865207a65726f206160408201526564647265737360d01b606082015260800190565b6020808252601d908201527f4d696e746572526f6c653a2052454345495645525f49535f454d505459000000604082015260600190565b60208082526014908201527314185d5cd8589b194e881393d517d4105554d15160621b604082015260600190565b6020808252601d908201527f4d696e74696e674d616e616765723a20544f4b454e5f424c4f434b4544000000604082015260600190565b6020808252602e908201527f496e697469616c697a61626c653a20636f6e747261637420697320616c72656160408201526d191e481a5b9a5d1a585b1a5e995960921b606082015260800190565b60208082526026908201527f4d696e74696e674d616e616765723a20544f4b454e5f4c4142454c5f50524f4860408201526512509255115160d21b606082015260800190565b6020808252818101527f4d696e746572526f6c653a2043414c4c45525f49535f4e4f545f4d494e544552604082015260600190565b6020808252818101527f4f776e61626c653a2063616c6c6572206973206e6f7420746865206f776e6572604082015260600190565b60208082526010908201526f14185d5cd8589b194e8814105554d15160821b604082015260600190565b6020808252601b908201527f4d696e74696e674d616e616765723a204c4142454c5f454d5054590000000000604082015260600190565b60208082526022908201527f4d696e74696e674d616e616765723a20544c445f4e4f545f5245474953544552604082015261115160f21b606082015260800190565b6020808252602f908201527f416363657373436f6e74726f6c3a2063616e206f6e6c792072656e6f756e636560408201526e103937b632b9903337b91039b2b63360891b606082015260800190565b60009081526020902090565b600082198211156142fa576142fa6143b7565b500190565b6000816000190483118215151615614319576143196143b7565b500290565b60005b83811015614339578181015183820152602001614321565b838111156126d45750506000910152565b600081614359576143596143b7565b506000190190565b60028104600182168061437557607f821691505b6020821081141561439657634e487b7160e01b600052602260045260246000fd5b50919050565b60006000198214156143b0576143b06143b7565b5060010190565b634e487b7160e01b600052601160045260246000fd5b634e487b7160e01b600052604160045260246000fd5b6001600160a01b0381168114610f5457600080fdfe5496787fc1ebdfeba375028c1865f13fbb1d63c0caa356ccc1b29a80f3ebd622a85b8425a460dd344a297bd4a82e287385f0fc558cb3e78867b0489f43df2470b551e0305c8163b812374b8e78b577c77f226f6f10c5ad03e52699578fbc34b89f2df0fed2c77648de5860a4cc508cd0818c85b8b8a1ab4ceeef8d981c8956a6a164736f6c6343000800000a",
  "linkReferences": {},
  "deployedLinkReferences": {}
}