{
  "_format": "hh-sol-artifact-1",
  "contractName": "MintingManager",
  "sourceName": "contracts/MintingManager.sol",
  "abi": [
    {
      "anonymous": false,
      "inputs": [
        {
          "indexed": false,
          "internalType": "uint256",
          "name": "tokenId",
          "type": "uint256"
        }
      ],
      "name": "Blocked",
      "type": "event"
    },
    {
      "anonymous": false,
      "inputs": [
        {
          "indexed": false,
          "internalType": "bool",
          "name": "state",
          "type": "bool"
        }
      ],
      "name": "BlocklistPaused",
      "type": "event"
    },
    {
      "anonymous": false,
      "inputs": [
        {
          "indexed": true,
          "internalType": "uint256",
          "name": "namehash",
          "type": "uint256"
        },
        {
          "indexed": false,
          "internalType": "string",
          "name": "tld",
          "type": "string"
        }
      ],
      "name": "NewTld",
      "type": "event"
    },
    {
      "anonymous": false,
      "inputs": [
        {
          "indexed": true,
          "internalType": "address",
          "name": "previousOwner",
          "type": "address"
        },
        {
          "indexed": true,
          "internalType": "address",
          "name": "newOwner",
          "type": "address"
        }
      ],
      "name": "OwnershipTransferred",
      "type": "event"
    },
    {
      "anonymous": false,
      "inputs": [
        {
          "indexed": false,
          "internalType": "address",
          "name": "account",
          "type": "address"
        }
      ],
      "name": "Paused",
      "type": "event"
    },
    {
      "anonymous": false,
      "inputs": [
        {
          "indexed": true,
          "internalType": "address",
          "name": "sender",
          "type": "address"
        },
        {
          "indexed": true,
          "internalType": "address",
          "name": "signer",
          "type": "address"
        },
        {
          "indexed": true,
          "internalType": "bytes4",
          "name": "funcSig",
          "type": "bytes4"
        },
        {
          "indexed": false,
          "internalType": "bytes32",
          "name": "digest",
          "type": "bytes32"
        }
      ],
      "name": "Relayed",
      "type": "event"
    },
    {
      "anonymous": false,
      "inputs": [
        {
          "indexed": true,
          "internalType": "bytes32",
          "name": "role",
          "type": "bytes32"
        },
        {
          "indexed": true,
          "internalType": "bytes32",
          "name": "previousAdminRole",
          "type": "bytes32"
        },
        {
          "indexed": true,
          "internalType": "bytes32",
          "name": "newAdminRole",
          "type": "bytes32"
        }
      ],
      "name": "RoleAdminChanged",
      "type": "event"
    },
    {
      "anonymous": false,
      "inputs": [
        {
          "indexed": true,
          "internalType": "bytes32",
          "name": "role",
          "type": "bytes32"
        },
        {
          "indexed": true,
          "internalType": "address",
          "name": "account",
          "type": "address"
        },
        {
          "indexed": true,
          "internalType": "address",
          "name": "sender",
          "type": "address"
        }
      ],
      "name": "RoleGranted",
      "type": "event"
    },
    {
      "anonymous": false,
      "inputs": [
        {
          "indexed": true,
          "internalType": "bytes32",
          "name": "role",
          "type": "bytes32"
        },
        {
          "indexed": true,
          "internalType": "address",
          "name": "account",
          "type": "address"
        },
        {
          "indexed": true,
          "internalType": "address",
          "name": "sender",
          "type": "address"
        }
      ],
      "name": "RoleRevoked",
      "type": "event"
    },
    {
      "anonymous": false,
      "inputs": [
        {
          "indexed": false,
          "internalType": "address",
          "name": "account",
          "type": "address"
        }
      ],
      "name": "Unpaused",
      "type": "event"
    },
    {
      "inputs": [],
      "name": "DEFAULT_ADMIN_ROLE",
      "outputs": [
        {
          "internalType": "bytes32",
          "name": "",
          "type": "bytes32"
        }
      ],
      "stateMutability": "view",
      "type": "function"
    },
    {
      "inputs": [],
      "name": "MINTER_ROLE",
      "outputs": [
        {
          "internalType": "bytes32",
          "name": "",
          "type": "bytes32"
        }
      ],
      "stateMutability": "view",
      "type": "function"
    },
    {
      "inputs": [],
      "name": "NAME",
      "outputs": [
        {
          "internalType": "string",
          "name": "",
          "type": "string"
        }
      ],
      "stateMutability": "view",
      "type": "function"
    },
    {
      "inputs": [],
      "name": "VERSION",
      "outputs": [
        {
          "internalType": "string",
          "name": "",
          "type": "string"
        }
      ],
      "stateMutability": "view",
      "type": "function"
    },
    {
      "inputs": [
        {
          "internalType": "address",
          "name": "account",
          "type": "address"
        }
      ],
      "name": "addMinter",
      "outputs": [],
      "stateMutability": "nonpayable",
      "type": "function"
    },
    {
      "inputs": [
        {
          "internalType": "address[]",
          "name": "accounts",
          "type": "address[]"
        }
      ],
      "name": "addMinters",
      "outputs": [],
      "stateMutability": "nonpayable",
      "type": "function"
    },
    {
      "inputs": [
        {
          "internalType": "string",
          "name": "tld",
          "type": "string"
        }
      ],
      "name": "addTld",
      "outputs": [],
      "stateMutability": "nonpayable",
      "type": "function"
    },
    {
      "inputs": [
        {
          "internalType": "uint256[]",
          "name": "tokenIds",
          "type": "uint256[]"
        }
      ],
      "name": "areBlocked",
      "outputs": [
        {
          "internalType": "bool[]",
          "name": "values",
          "type": "bool[]"
        }
      ],
      "stateMutability": "view",
      "type": "function"
    },
    {
      "inputs": [
        {
          "internalType": "uint256",
          "name": "tokenId",
          "type": "uint256"
        }
      ],
      "name": "blocklist",
      "outputs": [],
      "stateMutability": "nonpayable",
      "type": "function"
    },
    {
      "inputs": [
        {
          "internalType": "uint256[]",
          "name": "tokenIds",
          "type": "uint256[]"
        }
      ],
      "name": "blocklistAll",
      "outputs": [],
      "stateMutability": "nonpayable",
      "type": "function"
    },
    {
      "inputs": [
        {
          "internalType": "uint256",
          "name": "tld",
          "type": "uint256"
        },
        {
          "internalType": "string",
          "name": "label",
          "type": "string"
        }
      ],
      "name": "claim",
      "outputs": [],
      "stateMutability": "nonpayable",
      "type": "function"
    },
    {
      "inputs": [
        {
          "internalType": "address",
          "name": "to",
          "type": "address"
        },
        {
          "internalType": "uint256",
          "name": "tld",
          "type": "uint256"
        },
        {
          "internalType": "string",
          "name": "label",
          "type": "string"
        }
      ],
      "name": "claimTo",
      "outputs": [],
      "stateMutability": "nonpayable",
      "type": "function"
    },
    {
      "inputs": [
        {
          "internalType": "address",
          "name": "to",
          "type": "address"
        },
        {
          "internalType": "uint256",
          "name": "tld",
          "type": "uint256"
        },
        {
          "internalType": "string",
          "name": "label",
          "type": "string"
        },
        {
          "internalType": "string[]",
          "name": "keys",
          "type": "string[]"
        },
        {
          "internalType": "string[]",
          "name": "values",
          "type": "string[]"
        }
      ],
      "name": "claimToWithRecords",
      "outputs": [],
      "stateMutability": "nonpayable",
      "type": "function"
    },
    {
      "inputs": [
        {
          "internalType": "address payable",
          "name": "receiver",
          "type": "address"
        }
      ],
      "name": "closeMinter",
      "outputs": [],
      "stateMutability": "payable",
      "type": "function"
    },
    {
      "inputs": [],
      "name": "cnsMintingController",
      "outputs": [
        {
          "internalType": "contract IMintingController",
          "name": "",
          "type": "address"
        }
      ],
      "stateMutability": "view",
      "type": "function"
    },
    {
      "inputs": [],
      "name": "cnsResolver",
      "outputs": [
        {
          "internalType": "contract IResolver",
          "name": "",
          "type": "address"
        }
      ],
      "stateMutability": "view",
      "type": "function"
    },
    {
      "inputs": [],
      "name": "cnsURIPrefixController",
      "outputs": [
        {
          "internalType": "contract IURIPrefixController",
          "name": "",
          "type": "address"
        }
      ],
      "stateMutability": "view",
      "type": "function"
    },
    {
      "inputs": [
        {
          "internalType": "bytes32",
          "name": "role",
          "type": "bytes32"
        }
      ],
      "name": "getRoleAdmin",
      "outputs": [
        {
          "internalType": "bytes32",
          "name": "",
          "type": "bytes32"
        }
      ],
      "stateMutability": "view",
      "type": "function"
    },
    {
      "inputs": [
        {
          "internalType": "bytes32",
          "name": "role",
          "type": "bytes32"
        },
        {
          "internalType": "address",
          "name": "account",
          "type": "address"
        }
      ],
      "name": "grantRole",
      "outputs": [],
      "stateMutability": "nonpayable",
      "type": "function"
    },
    {
      "inputs": [
        {
          "internalType": "bytes32",
          "name": "role",
          "type": "bytes32"
        },
        {
          "internalType": "address",
          "name": "account",
          "type": "address"
        }
      ],
      "name": "hasRole",
      "outputs": [
        {
          "internalType": "bool",
          "name": "",
          "type": "bool"
        }
      ],
      "stateMutability": "view",
      "type": "function"
    },
    {
      "inputs": [
        {
          "internalType": "contract IUNSRegistry",
          "name": "unsRegistry_",
          "type": "address"
        },
        {
          "internalType": "contract IMintingController",
          "name": "cnsMintingController_",
          "type": "address"
        },
        {
          "internalType": "contract IURIPrefixController",
          "name": "cnsURIPrefixController_",
          "type": "address"
        },
        {
          "internalType": "contract IResolver",
          "name": "cnsResolver_",
          "type": "address"
        },
        {
          "internalType": "address",
          "name": "forwarder",
          "type": "address"
        }
      ],
      "name": "initialize",
      "outputs": [],
      "stateMutability": "nonpayable",
      "type": "function"
    },
    {
      "inputs": [
        {
          "internalType": "uint256",
          "name": "tokenId",
          "type": "uint256"
        }
      ],
      "name": "isBlocked",
      "outputs": [
        {
          "internalType": "bool",
          "name": "",
          "type": "bool"
        }
      ],
      "stateMutability": "view",
      "type": "function"
    },
    {
      "inputs": [
        {
          "internalType": "address",
          "name": "account",
          "type": "address"
        }
      ],
      "name": "isMinter",
      "outputs": [
        {
          "internalType": "bool",
          "name": "",
          "type": "bool"
        }
      ],
      "stateMutability": "view",
      "type": "function"
    },
    {
      "inputs": [
        {
          "internalType": "address",
          "name": "forwarder",
          "type": "address"
        }
      ],
      "name": "isTrustedForwarder",
      "outputs": [
        {
          "internalType": "bool",
          "name": "",
          "type": "bool"
        }
      ],
      "stateMutability": "view",
      "type": "function"
    },
    {
      "inputs": [
        {
          "internalType": "address",
          "name": "to",
          "type": "address"
        },
        {
          "internalType": "uint256",
          "name": "tld",
          "type": "uint256"
        },
        {
          "internalType": "string",
          "name": "label",
          "type": "string"
        }
      ],
      "name": "mintSLD",
      "outputs": [],
      "stateMutability": "nonpayable",
      "type": "function"
    },
    {
      "inputs": [
        {
          "internalType": "address",
          "name": "to",
          "type": "address"
        },
        {
          "internalType": "uint256",
          "name": "tld",
          "type": "uint256"
        },
        {
          "internalType": "string",
          "name": "label",
          "type": "string"
        },
        {
          "internalType": "string[]",
          "name": "keys",
          "type": "string[]"
        },
        {
          "internalType": "string[]",
          "name": "values",
          "type": "string[]"
        }
      ],
      "name": "mintSLDWithRecords",
      "outputs": [],
      "stateMutability": "nonpayable",
      "type": "function"
    },
    {
      "inputs": [],
      "name": "owner",
      "outputs": [
        {
          "internalType": "address",
          "name": "",
          "type": "address"
        }
      ],
      "stateMutability": "view",
      "type": "function"
    },
    {
      "inputs": [],
      "name": "pause",
      "outputs": [],
      "stateMutability": "nonpayable",
      "type": "function"
    },
    {
      "inputs": [
        {
          "internalType": "bool",
          "name": "state",
          "type": "bool"
        }
      ],
      "name": "pauseBlocklist",
      "outputs": [],
      "stateMutability": "nonpayable",
      "type": "function"
    },
    {
      "inputs": [],
      "name": "paused",
      "outputs": [
        {
          "internalType": "bool",
          "name": "",
          "type": "bool"
        }
      ],
      "stateMutability": "view",
      "type": "function"
    },
    {
      "inputs": [
        {
          "internalType": "bytes",
          "name": "data",
          "type": "bytes"
        },
        {
          "internalType": "bytes",
          "name": "signature",
          "type": "bytes"
        }
      ],
      "name": "relay",
      "outputs": [
        {
          "internalType": "bytes",
          "name": "",
          "type": "bytes"
        }
      ],
      "stateMutability": "nonpayable",
      "type": "function"
    },
    {
      "inputs": [
        {
          "internalType": "address",
          "name": "account",
          "type": "address"
        }
      ],
      "name": "removeMinter",
      "outputs": [],
      "stateMutability": "nonpayable",
      "type": "function"
    },
    {
      "inputs": [
        {
          "internalType": "address[]",
          "name": "accounts",
          "type": "address[]"
        }
      ],
      "name": "removeMinters",
      "outputs": [],
      "stateMutability": "nonpayable",
      "type": "function"
    },
    {
      "inputs": [],
      "name": "renounceMinter",
      "outputs": [],
      "stateMutability": "nonpayable",
      "type": "function"
    },
    {
      "inputs": [],
      "name": "renounceOwnership",
      "outputs": [],
      "stateMutability": "nonpayable",
      "type": "function"
    },
    {
      "inputs": [
        {
          "internalType": "bytes32",
          "name": "role",
          "type": "bytes32"
        },
        {
          "internalType": "address",
          "name": "account",
          "type": "address"
        }
      ],
      "name": "renounceRole",
      "outputs": [],
      "stateMutability": "nonpayable",
      "type": "function"
    },
    {
      "inputs": [
        {
          "internalType": "bytes32",
          "name": "role",
          "type": "bytes32"
        },
        {
          "internalType": "address",
          "name": "account",
          "type": "address"
        }
      ],
      "name": "revokeRole",
      "outputs": [],
      "stateMutability": "nonpayable",
      "type": "function"
    },
    {
      "inputs": [
        {
          "internalType": "address payable",
          "name": "receiver",
          "type": "address"
        }
      ],
      "name": "rotateMinter",
      "outputs": [],
      "stateMutability": "payable",
      "type": "function"
    },
    {
      "inputs": [
        {
          "internalType": "address",
          "name": "to",
          "type": "address"
        },
        {
          "internalType": "uint256",
          "name": "tld",
          "type": "uint256"
        },
        {
          "internalType": "string",
          "name": "label",
          "type": "string"
        }
      ],
      "name": "safeMintSLD",
      "outputs": [],
      "stateMutability": "nonpayable",
      "type": "function"
    },
    {
      "inputs": [
        {
          "internalType": "address",
          "name": "to",
          "type": "address"
        },
        {
          "internalType": "uint256",
          "name": "tld",
          "type": "uint256"
        },
        {
          "internalType": "string",
          "name": "label",
          "type": "string"
        },
        {
          "internalType": "bytes",
          "name": "data",
          "type": "bytes"
        }
      ],
      "name": "safeMintSLD",
      "outputs": [],
      "stateMutability": "nonpayable",
      "type": "function"
    },
    {
      "inputs": [
        {
          "internalType": "address",
          "name": "to",
          "type": "address"
        },
        {
          "internalType": "uint256",
          "name": "tld",
          "type": "uint256"
        },
        {
          "internalType": "string",
          "name": "label",
          "type": "string"
        },
        {
          "internalType": "string[]",
          "name": "keys",
          "type": "string[]"
        },
        {
          "internalType": "string[]",
          "name": "values",
          "type": "string[]"
        }
      ],
      "name": "safeMintSLDWithRecords",
      "outputs": [],
      "stateMutability": "nonpayable",
      "type": "function"
    },
    {
      "inputs": [
        {
          "internalType": "address",
          "name": "to",
          "type": "address"
        },
        {
          "internalType": "uint256",
          "name": "tld",
          "type": "uint256"
        },
        {
          "internalType": "string",
          "name": "label",
          "type": "string"
        },
        {
          "internalType": "string[]",
          "name": "keys",
          "type": "string[]"
        },
        {
          "internalType": "string[]",
          "name": "values",
          "type": "string[]"
        },
        {
          "internalType": "bytes",
          "name": "data",
          "type": "bytes"
        }
      ],
      "name": "safeMintSLDWithRecords",
      "outputs": [],
      "stateMutability": "nonpayable",
      "type": "function"
    },
    {
      "inputs": [
        {
          "internalType": "address",
          "name": "forwarder",
          "type": "address"
        }
      ],
      "name": "setForwarder",
      "outputs": [],
      "stateMutability": "nonpayable",
      "type": "function"
    },
    {
      "inputs": [
        {
          "internalType": "address",
          "name": "resolver",
          "type": "address"
        }
      ],
      "name": "setResolver",
      "outputs": [],
      "stateMutability": "nonpayable",
      "type": "function"
    },
    {
      "inputs": [
        {
          "internalType": "string",
          "name": "prefix",
          "type": "string"
        }
      ],
      "name": "setTokenURIPrefix",
      "outputs": [],
      "stateMutability": "nonpayable",
      "type": "function"
    },
    {
      "inputs": [
        {
          "internalType": "bytes4",
          "name": "interfaceId",
          "type": "bytes4"
        }
      ],
      "name": "supportsInterface",
      "outputs": [
        {
          "internalType": "bool",
          "name": "",
          "type": "bool"
        }
      ],
      "stateMutability": "view",
      "type": "function"
    },
    {
      "inputs": [
        {
          "internalType": "address",
          "name": "newOwner",
          "type": "address"
        }
      ],
      "name": "transferOwnership",
      "outputs": [],
      "stateMutability": "nonpayable",
      "type": "function"
    },
    {
      "inputs": [],
      "name": "unpause",
      "outputs": [],
      "stateMutability": "nonpayable",
      "type": "function"
    },
    {
      "inputs": [],
      "name": "unsRegistry",
      "outputs": [
        {
          "internalType": "contract IUNSRegistry",
          "name": "",
          "type": "address"
        }
      ],
      "stateMutability": "view",
      "type": "function"
    }
  ],
  "bytecode": "0x608060405234801561001057600080fd5b506144aa806100206000396000f3fe6080604052600436106102ae5760003560e01c806371e2a65711610175578063a849d65c116100dc578063cc2c3fc411610095578063d547741f1161006f578063d547741f146107f6578063e47d6cc614610816578063f2fde38b14610836578063ffa1ad7414610856576102ae565b8063cc2c3fc4146107ac578063ceeb4f50146107c1578063d5391393146107e1576102ae565b8063a849d65c146106f7578063aa271e1a1461070c578063ae2ad9031461072c578063b0aa98c71461074c578063b9998a241461076c578063c3a3bc001461078c576102ae565b806391d148541161012e57806391d1485414610658578063983b2d5614610678578063986502751461069857806399e0dd7c146106ad578063a217fddf146106cd578063a3f4df7e146106e2576102ae565b806371e2a657146105bb57806381c81d35146105db5780638456cb59146105ee5780638bef6039146106035780638da5cb5b14610623578063906cecc114610638576102ae565b8063463c4bcb116102195780635b6fa8db116101d25780635b6fa8db146105295780635c975abb1461053e5780635fc1964f14610553578063634486da146105735780636a2d225614610586578063715018a6146105a6576102ae565b8063463c4bcb1461045c5780634c1819e01461047c5780634e543b261461049c578063564a5158146104bc578063572b6c05146104e957806358839d6b14610509576102ae565b80632f2ff15d1161026b5780632f2ff15d146103a55780633092afd5146103c557806336568abe146103e557806339ccf4d0146104055780633f41b614146104255780633f4ba83a14610447576102ae565b806301ffc9a7146102b35780630e36a87d146102e95780631459457a14610316578063248a9ca314610338578063268b15ed1461036557806327bbd22514610385575b600080fd5b3480156102bf57600080fd5b506102d36102ce36600461375c565b61086b565b6040516102e09190613e26565b60405180910390f35b3480156102f557600080fd5b5061030961030436600461369e565b610898565b6040516102e09190613da6565b34801561032257600080fd5b506103366103313660046137e0565b61096f565b005b34801561034457600080fd5b50610358610353366004613715565b610bca565b6040516102e09190613e31565b34801561037157600080fd5b50610336610380366004613883565b610bdf565b34801561039157600080fd5b506103366103a03660046133ca565b610c61565b3480156103b157600080fd5b506103366103c036600461372d565b610d49565b3480156103d157600080fd5b506103366103e0366004613355565b610d72565b3480156103f157600080fd5b5061033661040036600461372d565b610dbd565b34801561041157600080fd5b506103366104203660046133ca565b610e03565b34801561043157600080fd5b5061043a610ed2565b6040516102e09190613b91565b34801561045357600080fd5b50610336610ee1565b34801561046857600080fd5b50610336610477366004613715565b610f2a565b34801561048857600080fd5b50610336610497366004613371565b610f5a565b3480156104a857600080fd5b506103366104b7366004613355565b611005565b3480156104c857600080fd5b506104dc6104d7366004613784565b611066565b6040516102e09190613e58565b3480156104f557600080fd5b506102d3610504366004613355565b611231565b34801561051557600080fd5b50610336610524366004613556565b611272565b34801561053557600080fd5b5061043a611346565b34801561054a57600080fd5b506102d3611355565b34801561055f57600080fd5b5061033661056e3660046135de565b611378565b610336610581366004613355565b611405565b34801561059257600080fd5b506103366105a136600461347b565b611498565b3480156105b257600080fd5b506103366115aa565b3480156105c757600080fd5b506103366105d63660046135de565b611633565b6103366105e9366004613355565b6116c0565b3480156105fa57600080fd5b5061033661170d565b34801561060f57600080fd5b5061033661061e3660046136dd565b611754565b34801561062f57600080fd5b5061043a61179c565b34801561064457600080fd5b50610336610653366004613371565b6117ab565b34801561066457600080fd5b506102d361067336600461372d565b61181b565b34801561068457600080fd5b50610336610693366004613355565b611846565b3480156106a457600080fd5b5061033661188e565b3480156106b957600080fd5b506103366106c8366004613850565b6118a8565b3480156106d957600080fd5b506103586119be565b3480156106ee57600080fd5b506104dc6119c3565b34801561070357600080fd5b5061043a6119f3565b34801561071857600080fd5b506102d3610727366004613355565b611a02565b34801561073857600080fd5b50610336610747366004613371565b611a1c565b34801561075857600080fd5b506102d3610767366004613715565b611ae5565b34801561077857600080fd5b50610336610787366004613355565b611b53565b34801561079857600080fd5b506103366107a7366004613850565b611b9b565b3480156107b857600080fd5b5061043a611c19565b3480156107cd57600080fd5b506103366107dc3660046133ca565b611c28565b3480156107ed57600080fd5b50610358611ca1565b34801561080257600080fd5b5061033661081136600461372d565b611cb3565b34801561082257600080fd5b5061033661083136600461369e565b611cd2565b34801561084257600080fd5b50610336610851366004613355565b611d03565b34801561086257600080fd5b506104dc611d56565b60006001600160e01b03198216637965db0b60e01b1480610890575061089082611d77565b90505b919050565b6060816001600160401b038111156108c057634e487b7160e01b600052604160045260246000fd5b6040519080825280602002602001820160405280156108e9578160200160208202803683370190505b50905060005b828110156109685761092684848381811061091a57634e487b7160e01b600052603260045260246000fd5b90506020020135611ae5565b82828151811061094657634e487b7160e01b600052603260045260246000fd5b9115156020928302919091019091015280610960816143f3565b9150506108ef565b5092915050565b600054610100900460ff1680610988575060005460ff16155b6109ad5760405162461bcd60e51b81526004016109a49061412c565b60405180910390fd5b600054610100900460ff161580156109d8576000805460ff1961ff0019909116610100171660011790555b60c980546001600160a01b038089166001600160a01b03199283161790925560ca805488841690831617905560cb805487841690831617905560cc805492861692909116919091179055610a2a611d90565b610a32611e5c565b610a3b82611ee2565b610a43611f60565b610a4c30611ffc565b6040805161016081018252600661012082018181526563727970746f60d01b610140840152825282518084018452908152651dd85b1b195d60d21b6020828101919091528083019190915282518084018452600481526331b7b4b760e11b81830152828401528251808401845260018152600f60fb1b818301526060830152825180840184526003808252621b999d60ea1b82840152608084019190915283518085018552600a815269313637b1b5b1b430b4b760b11b8184015260a08401528351808501855260078152663134ba31b7b4b760c91b8184015260c0840152835180850185528181526207070760eb1b8184015260e0840152835180850190945283526264616f60e81b9083015261010081019190915260005b6009811015610bae57610b9c828260098110610b9257634e487b7160e01b600052603260045260246000fd5b6020020151612014565b80610ba6816143f3565b915050610b66565b50508015610bc2576000805461ff00191690555b505050505050565b60009081526097602052604090206001015490565b600083815260cd60205260408120805485929190610bfc906143b8565b905011610c1b5760405162461bcd60e51b81526004016109a4906142a1565b610c23611355565b15610c405760405162461bcd60e51b81526004016109a4906140cb565b610c5b610c4b61217b565b85610c56868661218a565b6121b6565b50505050565b610c6c61072761217b565b610c885760405162461bcd60e51b81526004016109a49061417a565b600087815260cd60205260408120805489929190610ca5906143b8565b905011610cc45760405162461bcd60e51b81526004016109a4906142a1565b610ccc611355565b15610ce95760405162461bcd60e51b81526004016109a4906140cb565b610d3e898989898080601f016020809104026020016040519081016040528093929190818152602001838380828437600092018290525060408051602081019091529081528c93508b92508a915089906122bc565b505050505050505050565b610d5282610bca565b610d6381610d5e61217b565b612446565b610d6d83836124aa565b505050565b610d7a61217b565b6001600160a01b0316610d8b61179c565b6001600160a01b031614610db15760405162461bcd60e51b81526004016109a490614235565b610dba81612531565b50565b610dc561217b565b6001600160a01b0316816001600160a01b031614610df55760405162461bcd60e51b81526004016109a4906142e3565b610dff8282612549565b5050565b610e0e61072761217b565b610e2a5760405162461bcd60e51b81526004016109a49061417a565b600087815260cd60205260408120805489929190610e47906143b8565b905011610e665760405162461bcd60e51b81526004016109a4906142a1565b610e6e611355565b15610e8b5760405162461bcd60e51b81526004016109a4906140cb565b610d3e898989898080601f0160208091040260200160405190810160405280939291908181526020018383808284376000920191909152508b92508a9150899050886125ce565b60c9546001600160a01b031681565b610ee961217b565b6001600160a01b0316610efa61179c565b6001600160a01b031614610f205760405162461bcd60e51b81526004016109a490614235565b610f28612753565b565b610f3561072761217b565b610f515760405162461bcd60e51b81526004016109a49061417a565b610dba816127df565b610f6561072761217b565b610f815760405162461bcd60e51b81526004016109a49061417a565b600083815260cd60205260408120805485929190610f9e906143b8565b905011610fbd5760405162461bcd60e51b81526004016109a4906142a1565b610fc5611355565b15610fe25760405162461bcd60e51b81526004016109a4906140cb565b610ffe8585858560405180602001604052806000815250612889565b5050505050565b61100d61217b565b6001600160a01b031661101e61179c565b6001600160a01b0316146110445760405162461bcd60e51b81526004016109a490614235565b60cc80546001600160a01b0319166001600160a01b0392909216919091179055565b60606000858560405161107a9291906139da565b6040518091039020905060006110f785858080601f016020809104026020016040519081016040528093929190818152602001838380828437600092019190915250506040516110f192506110d69150869030906020016139ac565b60405160208183030381529060405280519060200120612a09565b90612a39565b905060008088888080601f01602080910402602001604051908101604052809392919081815260200183838082843760009201919091525050505060208101519250905061114483612abf565b61114f828a8a612aed565b600080306001600160a01b03168b8b60405161116c9291906139da565b6000604051808303816000865af19150503d80600081146111a9576040519150601f19603f3d011682016040523d82523d6000602084013e6111ae565b606091505b509092509050816111c6576040513d806000833e8082fd5b6001600160e01b031984166001600160a01b0386166111e361217b565b6001600160a01b03167f9490f91465d0d2c12728b9ad47d5f1dd2ac3ef39394796e54a48b94db0b337258960405161121b9190613e31565b60405180910390a49a9950505050505050505050565b600061125c7f893ef2ea16c023f61d4f55d3e6ee3fc3f2fbfd478461323dbc2fbf919047086e611375565b546001600160a01b038381169116149050919050565b61127d61072761217b565b6112995760405162461bcd60e51b81526004016109a49061417a565b600085815260cd602052604081208054879291906112b6906143b8565b9050116112d55760405162461bcd60e51b81526004016109a4906142a1565b6112dd611355565b156112fa5760405162461bcd60e51b81526004016109a4906140cb565b61133d8787878787878080601f01602080910402602001604051908101604052809392919081815260200183838082843760009201919091525061288992505050565b50505050505050565b60cc546001600160a01b031681565b600061136e60008051602061445e833981519152611375565b5460ff1690505b90565b61138061217b565b6001600160a01b031661139161179c565b6001600160a01b0316146113b75760405162461bcd60e51b81526004016109a490614235565b60005b8151811015610dff576113f38282815181106113e657634e487b7160e01b600052603260045260246000fd5b6020026020010151612531565b806113fd816143f3565b9150506113ba565b61141061072761217b565b61142c5760405162461bcd60e51b81526004016109a49061417a565b6001600160a01b0381166114525760405162461bcd60e51b81526004016109a49061401b565b61145b81611ffc565b61146361188e565b6040516001600160a01b038216903480156108fc02916000818181858888f19350505050158015610dff573d6000803e3d6000fd5b6114a361072761217b565b6114bf5760405162461bcd60e51b81526004016109a49061417a565b600089815260cd6020526040812080548b9291906114dc906143b8565b9050116114fb5760405162461bcd60e51b81526004016109a4906142a1565b611503611355565b156115205760405162461bcd60e51b81526004016109a4906140cb565b61159d8b8b8b8b8080601f01602080910402602001604051908101604052809392919081815260200183838082843760009201919091525050604080516020601f8b018190048102820181019092528981528e93508d92508c918c91908c908c90819084018382808284376000920191909152506122bc92505050565b5050505050505050505050565b6115b261217b565b6001600160a01b03166115c361179c565b6001600160a01b0316146115e95760405162461bcd60e51b81526004016109a490614235565b6033546040516000916001600160a01b0316907f8be0079c531659141344cd1fd0a4f28419497f9722a3daafe3b4186f6b6457e0908390a3603380546001600160a01b0319169055565b61163b61217b565b6001600160a01b031661164c61179c565b6001600160a01b0316146116725760405162461bcd60e51b81526004016109a490614235565b60005b8151811015610dff576116ae8282815181106116a157634e487b7160e01b600052603260045260246000fd5b6020026020010151611ffc565b806116b8816143f3565b915050611675565b6116cb61072761217b565b6116e75760405162461bcd60e51b81526004016109a49061417a565b6001600160a01b03811661145b5760405162461bcd60e51b81526004016109a49061401b565b61171561217b565b6001600160a01b031661172661179c565b6001600160a01b03161461174c5760405162461bcd60e51b81526004016109a490614235565b610f28612ba9565b61175c61217b565b6001600160a01b031661176d61179c565b6001600160a01b0316146117935760405162461bcd60e51b81526004016109a490614235565b610dba81612c1f565b6033546001600160a01b031690565b600083815260cd602052604081208054859291906117c8906143b8565b9050116117e75760405162461bcd60e51b81526004016109a4906142a1565b6117ef611355565b1561180c5760405162461bcd60e51b81526004016109a4906140cb565b610ffe8585610c56868661218a565b60009182526097602090815260408084206001600160a01b0393909316845291905290205460ff1690565b61184e61217b565b6001600160a01b031661185f61179c565b6001600160a01b0316146118855760405162461bcd60e51b81526004016109a490614235565b610dba81611ffc565b610f2860008051602061447e83398151915261040061217b565b6118b061217b565b6001600160a01b03166118c161179c565b6001600160a01b0316146118e75760405162461bcd60e51b81526004016109a490614235565b60c954604051632678375f60e21b81526001600160a01b03909116906399e0dd7c906119199085908590600401613e6b565b600060405180830381600087803b15801561193357600080fd5b505af1158015611947573d6000803e3d6000fd5b505060cb546001600160a01b0316159150610dff90505760cb54604051632678375f60e21b81526001600160a01b03909116906399e0dd7c906119909085908590600401613e6b565b600060405180830381600087803b1580156119aa57600080fd5b505af1158015610bc2573d6000803e3d6000fd5b600081565b604051806040016040528060148152602001732aa7299d1026b4b73a34b7339026b0b730b3b2b960611b81525081565b60cb546001600160a01b031681565b600061089060008051602061447e8339815191528361181b565b611a2761072761217b565b611a435760405162461bcd60e51b81526004016109a49061417a565b600083815260cd60205260408120805485929190611a60906143b8565b905011611a7f5760405162461bcd60e51b81526004016109a4906142a1565b611a87611355565b15611aa45760405162461bcd60e51b81526004016109a4906140cb565b610ffe858585858080601f0160208091040260200160405190810160405280939291908181526020018383808284376000920191909152506121b692505050565b6000611aef612c88565b1580156108905750604051611b4990611b2e907f1ec047073e2c8b15660901dbfdb6e3ff6365bd699dd9f95dcc6eab5448bebd699085906020016139cc565b60405160208183030381529060405280519060200120611375565b5460ff1692915050565b611b5b61217b565b6001600160a01b0316611b6c61179c565b6001600160a01b031614611b925760405162461bcd60e51b81526004016109a490614235565b610dba81612cb3565b611ba361217b565b6001600160a01b0316611bb461179c565b6001600160a01b031614611bda5760405162461bcd60e51b81526004016109a490614235565b610dff82828080601f01602080910402602001604051908101604052809392919081815260200183838082843760009201919091525061201492505050565b60ca546001600160a01b031681565b600087815260cd60205260408120805489929190611c45906143b8565b905011611c645760405162461bcd60e51b81526004016109a4906142a1565b611c6c611355565b15611c895760405162461bcd60e51b81526004016109a4906140cb565b610d3e8989611c988a8a61218a565b888888886125ce565b60008051602061447e83398151915281565b611cbc82610bca565b611cc881610d5e61217b565b610d6d8383612549565b611cdd61072761217b565b611cf95760405162461bcd60e51b81526004016109a49061417a565b610dff8282612cfe565b611d0b61217b565b6001600160a01b0316611d1c61179c565b6001600160a01b031614611d425760405162461bcd60e51b81526004016109a490614235565b611d4b81612d4a565b610dba600082612e0b565b604051806040016040528060058152602001640302e322e360dc1b81525081565b6001600160e01b031981166301ffc9a760e01b14919050565b600054610100900460ff1680611da9575060005460ff16155b611dc55760405162461bcd60e51b81526004016109a49061412c565b600054610100900460ff16158015611df0576000805460ff1961ff0019909116610100171660011790555b6000611dfa61217b565b603380546001600160a01b0319166001600160a01b038316908117909155604051919250906000907f8be0079c531659141344cd1fd0a4f28419497f9722a3daafe3b4186f6b6457e0908290a3508015610dba576000805461ff001916905550565b600054610100900460ff1680611e75575060005460ff16155b611e915760405162461bcd60e51b81526004016109a49061412c565b600054610100900460ff16158015611ebc576000805460ff1961ff0019909116610100171660011790555b611ece6000611ec961217b565b612e0b565b8015610dba576000805461ff001916905550565b600054610100900460ff1680611efb575060005460ff16155b611f175760405162461bcd60e51b81526004016109a49061412c565b600054610100900460ff16158015611f42576000805460ff1961ff0019909116610100171660011790555b611f4b82612cb3565b8015610dff576000805461ff00191690555050565b600054610100900460ff1680611f79575060005460ff16155b611f955760405162461bcd60e51b81526004016109a49061412c565b600054610100900460ff16158015611fc0576000805460ff1961ff0019909116610100171660011790555b6000611fd960008051602061445e833981519152611375565b805460ff19169115159190911790558015610dba576000805461ff001916905550565b610dba60008051602061447e83398151915282612e0b565b6000808260405160200161202891906139ea565b6040516020818303038152906040528051906020012060405160200161204f9291906139cc565b60408051601f198184030181529181528151602092830120600081815260cd84529190912084519193506120889290919085019061322a565b50807f4fce6f6e172b04eaa80325d8e3b0180a34945000f3e214605039e8420fdf8980836040516120b99190613e58565b60405180910390a260c954604051634f558e7960e01b81526001600160a01b0390911690634f558e79906120f1908490600401613e31565b60206040518083038186803b15801561210957600080fd5b505afa15801561211d573d6000803e3d6000fd5b505050506040513d601f19601f8201168201806040525081019061214191906136f9565b610dff5760c9546040516334ff261960e21b81526001600160a01b039091169063d3fc9864906119909061dead9085908790600401613c6c565b6000612185612e15565b905090565b6060828260405160200161219f929190613af6565b604051602081830303815290604052905092915050565b60006121c28383612e43565b90506121cd81612ebf565b6121d683612ef1565b156122495760ca5460cc5460405163c36c212560e01b81526001600160a01b039283169263c36c21259261221292899288921690600401613bef565b600060405180830381600087803b15801561222c57600080fd5b505af1158015612240573d6000803e3d6000fd5b50505050610c5b565b60c9546001600160a01b031663d3fc986485836122668787612f2f565b6040518463ffffffff1660e01b815260040161228493929190613c6c565b600060405180830381600087803b15801561229e57600080fd5b505af11580156122b2573d6000803e3d6000fd5b5050505050505050565b60006122c88888612e43565b90506122d381612ebf565b6122dc88612ef1565b156123c45760ca5460cc54604051630f95e75b60e31b81526001600160a01b0392831692637caf3ad89261231a928e928d9216908890600401613c24565b600060405180830381600087803b15801561233457600080fd5b505af1158015612348573d6000803e3d6000fd5b5050861591506123bf90505760cc54604051633a0deb9d60e21b81526001600160a01b039091169063e837ae749061238c9089908990899089908890600401613dec565b600060405180830381600087803b1580156123a657600080fd5b505af11580156123ba573d6000803e3d6000fd5b505050505b610d3e565b60c9546001600160a01b031663efda4d3e8a836123e18c8c612f2f565b8a8a8a8a8a6040518963ffffffff1660e01b8152600401612409989796959493929190613cf0565b600060405180830381600087803b15801561242357600080fd5b505af1158015612437573d6000803e3d6000fd5b50505050505050505050505050565b612450828261181b565b610dff57612468816001600160a01b03166014612f52565b612473836020612f52565b604051602001612484929190613b1c565b60408051601f198184030181529082905262461bcd60e51b82526109a491600401613e58565b6124b4828261181b565b610dff5760008281526097602090815260408083206001600160a01b03851684529091529020805460ff191660011790556124ed61217b565b6001600160a01b0316816001600160a01b0316837f2f8788117e7eff1d82e926ec794901d17c78024a50270940304540a733656f0d60405160405180910390a45050565b610dba60008051602061447e83398151915282611cb3565b612553828261181b565b15610dff5760008281526097602090815260408083206001600160a01b03851684529091529020805460ff1916905561258a61217b565b6001600160a01b0316816001600160a01b0316837ff6391f5c32d9c69d2a47ea670b442974b53935d1edc7fd64eb21e047a839171b60405160405180910390a45050565b60006125da8787612e43565b90506125e581612ebf565b6125ee87612ef1565b156126d45760ca5460cc5460405163c36c212560e01b81526001600160a01b039283169263c36c21259261262a928d928c921690600401613bef565b600060405180830381600087803b15801561264457600080fd5b505af1158015612658573d6000803e3d6000fd5b5050851591506126cf90505760cc54604051633a0deb9d60e21b81526001600160a01b039091169063e837ae749061269c9088908890889088908890600401613dec565b600060405180830381600087803b1580156126b657600080fd5b505af11580156126ca573d6000803e3d6000fd5b505050505b6122b2565b60c9546001600160a01b031663b0f5917789836126f18b8b612f2f565b898989896040518863ffffffff1660e01b81526004016127179796959493929190613c93565b600060405180830381600087803b15801561273157600080fd5b505af1158015612745573d6000803e3d6000fd5b505050505050505050505050565b61275b611355565b6127775760405162461bcd60e51b81526004016109a490613ef3565b600061279060008051602061445e833981519152611375565b805460ff19169115159190911790557f5db9ee0a495bf2e6ff9c91a7834c1ba4fdd244a5e8aa4e537bd38aeae4b073aa6127c861217b565b6040516127d59190613b91565b60405180910390a1565b6127e7612c88565b156128045760405162461bcd60e51b81526004016109a4906140f5565b600161283f7f1ec047073e2c8b15660901dbfdb6e3ff6365bd699dd9f95dcc6eab5448bebd6960001b83604051602001611b2e9291906139cc565b805460ff19169115159190911790556040517f2ce5d9351b1d590d5a066db0d2dc7602d55f092506a83a7ee8c4d78ee357d75a9061287e908390613e31565b60405180910390a150565b60006128cb8585858080601f016020809104026020016040519081016040528093929190818152602001838380828437600092019190915250612e4392505050565b90506128d681612ebf565b6128df85612ef1565b156129575760ca5460cc54604051630f95e75b60e31b81526001600160a01b0392831692637caf3ad892612920928b928a928a929116908990600401613ba5565b600060405180830381600087803b15801561293a57600080fd5b505af115801561294e573d6000803e3d6000fd5b50505050610bc2565b60c954604080516020601f87018190048102820181019092528581526001600160a01b039092169163b55bc61791899185916129af918b918b908b9081908401838280828437600092019190915250612f2f92505050565b866040518563ffffffff1660e01b81526004016129cf9493929190613d62565b600060405180830381600087803b1580156129e957600080fd5b505af11580156129fd573d6000803e3d6000fd5b50505050505050505050565b600081604051602001612a1c9190613ac5565b604051602081830303815290604052805190602001209050919050565b600080600080845160411415612a635750505060208201516040830151606084015160001a612aa9565b845160401415612a915750505060408201516020830151906001600160ff1b0381169060ff1c601b01612aa9565b60405162461bcd60e51b81526004016109a490613f67565b612ab58682858561310a565b9695505050505050565b612ac881613200565b612ad181611a02565b610dba5760405162461bcd60e51b81526004016109a4906141f1565b60006001600160e01b0319841663ae2ad90360e01b1480612b1e57506001600160e01b03198416630260c0cf60e51b145b80612b3957506001600160e01b031984166358839d6b60e01b145b80612b5457506001600160e01b0319841663039ccf4d60e41b145b80612b6f57506001600160e01b031984166327bbd22560e01b145b80612b8a57506001600160e01b03198416633516912b60e11b145b905080610c5b5760405162461bcd60e51b81526004016109a490613f21565b612bb1611355565b15612bce5760405162461bcd60e51b81526004016109a4906140cb565b6001612be760008051602061445e833981519152611375565b805460ff19169115159190911790557f62e78cea01bee320cd4e420270b5ea74000d11b0c9f74754ebdbfc544b05a2586127c861217b565b80612c497fa0dcf6b78c18ae45967a4073fd9dc39d22b4a768f709ae0d04de58f0a1de3c6b611375565b805460ff19169115159190911790556040517ffd57a948ceab31332ee84de15f1ea4015cbb0331716a688e0879ffa6b2b4436e9061287e908390613e26565b600061136e7fa0dcf6b78c18ae45967a4073fd9dc39d22b4a768f709ae0d04de58f0a1de3c6b611375565b80612cdd7f893ef2ea16c023f61d4f55d3e6ee3fc3f2fbfd478461323dbc2fbf919047086e611375565b80546001600160a01b0319166001600160a01b039290921691909117905550565b60005b81811015610d6d57612d38838383818110612d2c57634e487b7160e01b600052603260045260246000fd5b905060200201356127df565b80612d42816143f3565b915050612d01565b612d5261217b565b6001600160a01b0316612d6361179c565b6001600160a01b031614612d895760405162461bcd60e51b81526004016109a490614235565b6001600160a01b038116612daf5760405162461bcd60e51b81526004016109a490613f9e565b6033546040516001600160a01b038084169216907f8be0079c531659141344cd1fd0a4f28419497f9722a3daafe3b4186f6b6457e090600090a3603380546001600160a01b0319166001600160a01b0392909216919091179055565b610dff82826124aa565b6000612e2033611231565b15612e34575060331936013560601c611375565b612e3c613226565b9050611375565b6000815160001415612e675760405162461bcd60e51b81526004016109a49061426a565b8282604051602001612e7991906139ea565b60405160208183030381529060405280519060200120604051602001612ea09291906139cc565b60408051601f1981840301815291905280516020909101209392505050565b612ec7612c88565b610dba57612ed481611ae5565b15610f515760405162461bcd60e51b81526004016109a490614094565b60ca546000906001600160a01b0316158015906108905750507f0f4a10a4f46c288cea365fcf45cccf0e9d901b945b9829ccdb54c10dc3cb7a6f1490565b600082815260cd6020908152604091829020915160609261219f92859201613a06565b60606000612f61836002614356565b612f6c90600261433e565b6001600160401b03811115612f9157634e487b7160e01b600052604160045260246000fd5b6040519080825280601f01601f191660200182016040528015612fbb576020820181803683370190505b509050600360fc1b81600081518110612fe457634e487b7160e01b600052603260045260246000fd5b60200101906001600160f81b031916908160001a905350600f60fb1b8160018151811061302157634e487b7160e01b600052603260045260246000fd5b60200101906001600160f81b031916908160001a9053506000613045846002614356565b61305090600161433e565b90505b60018111156130e4576f181899199a1a9b1b9c1cb0b131b232b360811b85600f166010811061309257634e487b7160e01b600052603260045260246000fd5b1a60f81b8282815181106130b657634e487b7160e01b600052603260045260246000fd5b60200101906001600160f81b031916908160001a90535060049490941c936130dd816143a1565b9050613053565b5083156131035760405162461bcd60e51b81526004016109a490613ebe565b9392505050565b60007f7fffffffffffffffffffffffffffffff5d576e7357a4501ddfe92f46681b20a082111561314c5760405162461bcd60e51b81526004016109a490614052565b8360ff16601b148061316157508360ff16601c145b61317d5760405162461bcd60e51b81526004016109a4906141af565b6000600186868686604051600081526020016040526040516131a29493929190613e3a565b6020604051602081039080840390855afa1580156131c4573d6000803e3d6000fd5b5050604051601f1901519150506001600160a01b0381166131f75760405162461bcd60e51b81526004016109a490613e87565b95945050505050565b6001600160a01b038116610dba5760405162461bcd60e51b81526004016109a490613fe4565b3390565b828054613236906143b8565b90600052602060002090601f016020900481019282613258576000855561329e565b82601f1061327157805160ff191683800117855561329e565b8280016001018555821561329e579182015b8281111561329e578251825591602001919060010190613283565b506132aa9291506132ae565b5090565b5b808211156132aa57600081556001016132af565b80356108938161443a565b60008083601f8401126132df578182fd5b5081356001600160401b038111156132f5578182fd5b602083019150836020808302850101111561330f57600080fd5b9250929050565b60008083601f840112613327578182fd5b5081356001600160401b0381111561333d578182fd5b60208301915083602082850101111561330f57600080fd5b600060208284031215613366578081fd5b81356131038161443a565b60008060008060608587031215613386578283fd5b84356133918161443a565b93506020850135925060408501356001600160401b038111156133b2578283fd5b6133be87828801613316565b95989497509550505050565b60008060008060008060008060a0898b0312156133e5578384fd5b88356133f08161443a565b97506020890135965060408901356001600160401b0380821115613412578586fd5b61341e8c838d01613316565b909850965060608b0135915080821115613436578586fd5b6134428c838d016132ce565b909650945060808b013591508082111561345a578384fd5b506134678b828c016132ce565b999c989b5096995094979396929594505050565b60008060008060008060008060008060c08b8d031215613499578182fd5b6134a28b6132c3565b995060208b0135985060408b01356001600160401b03808211156134c4578384fd5b6134d08e838f01613316565b909a50985060608d01359150808211156134e8578384fd5b6134f48e838f016132ce565b909850965060808d013591508082111561350c578384fd5b6135188e838f016132ce565b909650945060a08d0135915080821115613530578384fd5b5061353d8d828e01613316565b915080935050809150509295989b9194979a5092959850565b6000806000806000806080878903121561356e578182fd5b86356135798161443a565b95506020870135945060408701356001600160401b038082111561359b578384fd5b6135a78a838b01613316565b909650945060608901359150808211156135bf578384fd5b506135cc89828a01613316565b979a9699509497509295939492505050565b600060208083850312156135f0578182fd5b82356001600160401b0380821115613606578384fd5b818501915085601f830112613619578384fd5b81358181111561362b5761362b614424565b8381026040518582820101818110858211171561364a5761364a614424565b604052828152858101935084860182860187018a1015613668578788fd5b8795505b838610156136915761367d816132c3565b85526001959095019493860193860161366c565b5098975050505050505050565b600080602083850312156136b0578182fd5b82356001600160401b038111156136c5578283fd5b6136d1858286016132ce565b90969095509350505050565b6000602082840312156136ee578081fd5b81356131038161444f565b60006020828403121561370a578081fd5b81516131038161444f565b600060208284031215613726578081fd5b5035919050565b6000806040838503121561373f578182fd5b8235915060208301356137518161443a565b809150509250929050565b60006020828403121561376d578081fd5b81356001600160e01b031981168114613103578182fd5b60008060008060408587031215613799578182fd5b84356001600160401b03808211156137af578384fd5b6137bb88838901613316565b909650945060208701359150808211156137d3578384fd5b506133be87828801613316565b600080600080600060a086880312156137f7578283fd5b85356138028161443a565b945060208601356138128161443a565b935060408601356138228161443a565b925060608601356138328161443a565b915060808601356138428161443a565b809150509295509295909350565b60008060208385031215613862578182fd5b82356001600160401b03811115613877578283fd5b6136d185828601613316565b600080600060408486031215613897578081fd5b8335925060208401356001600160401b038111156138b3578182fd5b6138bf86828701613316565b9497909650939450505050565b818352602080840193600091908185020181018584845b878110156139495782840389528135601e19883603018112613903578687fd5b870180356001600160401b0381111561391a578788fd5b803603891315613928578788fd5b6139358682898501613982565b9a87019a95505050908401906001016138e3565b5091979650505050505050565b6000815180845261396e816020860160208601614375565b601f01601f19169290920160200192915050565b60008284528282602086013780602084860101526020601f19601f85011685010190509392505050565b91825260601b6bffffffffffffffffffffffff1916602082015260340190565b918252602082015260400190565b6000828483379101908152919050565b600082516139fc818460208701614375565b9190910192915050565b600083516020613a198285838901614375565b601760f91b918401918252845460019084906002810481841680613a3e57607f821691505b858210811415613a5c57634e487b7160e01b88526022600452602488fd5b808015613a705760018114613a8557613ab5565b60ff1984168887015282880186019450613ab5565b613a8e8b614332565b895b84811015613aab5781548a8201890152908701908801613a90565b5050858389010194505b50929a9950505050505050505050565b7f19457468657265756d205369676e6564204d6573736167653a0a3332000000008152601c810191909152603c0190565b6000697564746573746465762d60b01b82528284600a8401379101600a01908152919050565b60007f416363657373436f6e74726f6c3a206163636f756e742000000000000000000082528351613b54816017850160208801614375565b7001034b99036b4b9b9b4b733903937b6329607d1b6017918401918201528351613b85816028840160208801614375565b01602801949350505050565b6001600160a01b0391909116815260200190565b600060018060a01b03808816835260806020840152613bc8608084018789613982565b81861660408501528381036060850152613be28186613956565b9998505050505050505050565b600060018060a01b03808616835260606020840152613c116060840186613956565b9150808416604084015250949350505050565b600060018060a01b03808716835260806020840152613c466080840187613956565b81861660408501528381036060850152613c608186613956565b98975050505050505050565b600060018060a01b0385168252836020830152606060408301526131f76060830184613956565b600060018060a01b038916825287602083015260a06040830152613cba60a0830188613956565b8281036060840152613ccd8187896138cc565b90508281036080840152613ce28185876138cc565b9a9950505050505050505050565b600060018060a01b038a16825288602083015260c06040830152613d1760c0830189613956565b8281036060840152613d2a81888a6138cc565b90508281036080840152613d3f8186886138cc565b905082810360a0840152613d538185613956565b9b9a5050505050505050505050565b600060018060a01b038616825284602083015260806040830152613d896080830185613956565b8281036060840152613d9b8185613956565b979650505050505050565b6020808252825182820181905260009190848201906040850190845b81811015613de0578351151583529284019291840191600101613dc2565b50909695505050505050565b600060608252613e006060830187896138cc565b8281036020840152613e138186886138cc565b9150508260408301529695505050505050565b901515815260200190565b90815260200190565b93845260ff9290921660208401526040830152606082015260800190565b6000602082526131036020830184613956565b600060208252613e7f602083018486613982565b949350505050565b60208082526018908201527f45434453413a20696e76616c6964207369676e61747572650000000000000000604082015260600190565b6020808252818101527f537472696e67733a20686578206c656e67746820696e73756666696369656e74604082015260600190565b60208082526014908201527314185d5cd8589b194e881b9bdd081c185d5cd95960621b604082015260600190565b60208082526026908201527f4d696e74696e674d616e616765723a20554e535550504f525445445f52454c416040820152651657d0d0531360d21b606082015260800190565b6020808252601f908201527f45434453413a20696e76616c6964207369676e6174757265206c656e67746800604082015260600190565b60208082526026908201527f4f776e61626c653a206e6577206f776e657220697320746865207a65726f206160408201526564647265737360d01b606082015260800190565b6020808252601d908201527f52656c617965723a205349474e41545552455f49535f494e56414c4944000000604082015260600190565b6020808252601d908201527f4d696e746572526f6c653a2052454345495645525f49535f454d505459000000604082015260600190565b60208082526022908201527f45434453413a20696e76616c6964207369676e6174757265202773272076616c604082015261756560f01b606082015260800190565b6020808252601d908201527f4d696e74696e674d616e616765723a20544f4b454e5f424c4f434b4544000000604082015260600190565b60208082526010908201526f14185d5cd8589b194e881c185d5cd95960821b604082015260600190565b60208082526018908201527f426c6f636b6c69737453746f726167653a205041555345440000000000000000604082015260600190565b6020808252602e908201527f496e697469616c697a61626c653a20636f6e747261637420697320616c72656160408201526d191e481a5b9a5d1a585b1a5e995960921b606082015260800190565b6020808252818101527f4d696e746572526f6c653a2043414c4c45525f49535f4e4f545f4d494e544552604082015260600190565b60208082526022908201527f45434453413a20696e76616c6964207369676e6174757265202776272076616c604082015261756560f01b606082015260800190565b60208082526024908201527f4d696e74696e674d616e616765723a205349474e45525f49535f4e4f545f4d49604082015263272a22a960e11b606082015260800190565b6020808252818101527f4f776e61626c653a2063616c6c6572206973206e6f7420746865206f776e6572604082015260600190565b6020808252601b908201527f4d696e74696e674d616e616765723a204c4142454c5f454d5054590000000000604082015260600190565b60208082526022908201527f4d696e74696e674d616e616765723a20544c445f4e4f545f5245474953544552604082015261115160f21b606082015260800190565b6020808252602f908201527f416363657373436f6e74726f6c3a2063616e206f6e6c792072656e6f756e636560408201526e103937b632b9903337b91039b2b63360891b606082015260800190565b60009081526020902090565b600082198211156143515761435161440e565b500190565b60008160001904831182151516156143705761437061440e565b500290565b60005b83811015614390578181015183820152602001614378565b83811115610c5b5750506000910152565b6000816143b0576143b061440e565b506000190190565b6002810460018216806143cc57607f821691505b602082108114156143ed57634e487b7160e01b600052602260045260246000fd5b50919050565b60006000198214156144075761440761440e565b5060010190565b634e487b7160e01b600052601160045260246000fd5b634e487b7160e01b600052604160045260246000fd5b6001600160a01b0381168114610dba57600080fd5b8015158114610dba57600080fdfe5496787fc1ebdfeba375028c1865f13fbb1d63c0caa356ccc1b29a80f3ebd6229f2df0fed2c77648de5860a4cc508cd0818c85b8b8a1ab4ceeef8d981c8956a6a164736f6c6343000800000a",
  "linkReferences": {},
  "deployedLinkReferences": {}
}