{
  "_format": "hh-sol-artifact-1",
  "contractName": "MintingManager",
  "sourceName": "contracts/MintingManager.sol",
  "abi": [
    {
      "anonymous": false,
      "inputs": [
        {
          "indexed": false,
          "internalType": "uint256",
          "name": "tokenId",
          "type": "uint256"
        }
      ],
      "name": "Blocked",
      "type": "event"
    },
    {
      "anonymous": false,
      "inputs": [
        {
          "indexed": false,
          "internalType": "address",
          "name": "account",
          "type": "address"
        }
      ],
      "name": "BlocklistDisabled",
      "type": "event"
    },
    {
      "anonymous": false,
      "inputs": [
        {
          "indexed": false,
          "internalType": "address",
          "name": "account",
          "type": "address"
        }
      ],
      "name": "BlocklistEnabled",
      "type": "event"
    },
    {
      "anonymous": false,
      "inputs": [
        {
          "indexed": true,
          "internalType": "uint256",
          "name": "tokenId",
          "type": "uint256"
        },
        {
          "indexed": false,
          "internalType": "string",
          "name": "tld",
          "type": "string"
        }
      ],
      "name": "NewTld",
      "type": "event"
    },
    {
      "anonymous": false,
      "inputs": [
        {
          "indexed": true,
          "internalType": "address",
          "name": "previousOwner",
          "type": "address"
        },
        {
          "indexed": true,
          "internalType": "address",
          "name": "newOwner",
          "type": "address"
        }
      ],
      "name": "OwnershipTransferred",
      "type": "event"
    },
    {
      "anonymous": false,
      "inputs": [
        {
          "indexed": false,
          "internalType": "address",
          "name": "account",
          "type": "address"
        }
      ],
      "name": "Paused",
      "type": "event"
    },
    {
      "anonymous": false,
      "inputs": [
        {
          "indexed": true,
          "internalType": "address",
          "name": "sender",
          "type": "address"
        },
        {
          "indexed": true,
          "internalType": "address",
          "name": "signer",
          "type": "address"
        },
        {
          "indexed": true,
          "internalType": "bytes4",
          "name": "selector",
          "type": "bytes4"
        },
        {
          "indexed": false,
          "internalType": "bytes32",
          "name": "digest",
          "type": "bytes32"
        }
      ],
      "name": "Relayed",
      "type": "event"
    },
    {
      "anonymous": false,
      "inputs": [
        {
          "indexed": true,
          "internalType": "bytes32",
          "name": "role",
          "type": "bytes32"
        },
        {
          "indexed": true,
          "internalType": "bytes32",
          "name": "previousAdminRole",
          "type": "bytes32"
        },
        {
          "indexed": true,
          "internalType": "bytes32",
          "name": "newAdminRole",
          "type": "bytes32"
        }
      ],
      "name": "RoleAdminChanged",
      "type": "event"
    },
    {
      "anonymous": false,
      "inputs": [
        {
          "indexed": true,
          "internalType": "bytes32",
          "name": "role",
          "type": "bytes32"
        },
        {
          "indexed": true,
          "internalType": "address",
          "name": "account",
          "type": "address"
        },
        {
          "indexed": true,
          "internalType": "address",
          "name": "sender",
          "type": "address"
        }
      ],
      "name": "RoleGranted",
      "type": "event"
    },
    {
      "anonymous": false,
      "inputs": [
        {
          "indexed": true,
          "internalType": "bytes32",
          "name": "role",
          "type": "bytes32"
        },
        {
          "indexed": true,
          "internalType": "address",
          "name": "account",
          "type": "address"
        },
        {
          "indexed": true,
          "internalType": "address",
          "name": "sender",
          "type": "address"
        }
      ],
      "name": "RoleRevoked",
      "type": "event"
    },
    {
      "anonymous": false,
      "inputs": [
        {
          "indexed": false,
          "internalType": "address",
          "name": "account",
          "type": "address"
        }
      ],
      "name": "Unpaused",
      "type": "event"
    },
    {
      "inputs": [],
      "name": "DEFAULT_ADMIN_ROLE",
      "outputs": [
        {
          "internalType": "bytes32",
          "name": "",
          "type": "bytes32"
        }
      ],
      "stateMutability": "view",
      "type": "function"
    },
    {
      "inputs": [],
      "name": "MINTER_ROLE",
      "outputs": [
        {
          "internalType": "bytes32",
          "name": "",
          "type": "bytes32"
        }
      ],
      "stateMutability": "view",
      "type": "function"
    },
    {
      "inputs": [],
      "name": "NAME",
      "outputs": [
        {
          "internalType": "string",
          "name": "",
          "type": "string"
        }
      ],
      "stateMutability": "view",
      "type": "function"
    },
    {
      "inputs": [],
      "name": "VERSION",
      "outputs": [
        {
          "internalType": "string",
          "name": "",
          "type": "string"
        }
      ],
      "stateMutability": "view",
      "type": "function"
    },
    {
      "inputs": [
        {
          "internalType": "address",
          "name": "account",
          "type": "address"
        }
      ],
      "name": "addMinter",
      "outputs": [],
      "stateMutability": "nonpayable",
      "type": "function"
    },
    {
      "inputs": [
        {
          "internalType": "address[]",
          "name": "accounts",
          "type": "address[]"
        }
      ],
      "name": "addMinters",
      "outputs": [],
      "stateMutability": "nonpayable",
      "type": "function"
    },
    {
      "inputs": [
        {
          "internalType": "string",
          "name": "tld",
          "type": "string"
        }
      ],
      "name": "addTld",
      "outputs": [],
      "stateMutability": "nonpayable",
      "type": "function"
    },
    {
      "inputs": [
        {
          "internalType": "uint256[]",
          "name": "tokenIds",
          "type": "uint256[]"
        }
      ],
      "name": "areBlocked",
      "outputs": [
        {
          "internalType": "bool[]",
          "name": "values",
          "type": "bool[]"
        }
      ],
      "stateMutability": "view",
      "type": "function"
    },
    {
      "inputs": [
        {
          "internalType": "uint256",
          "name": "tokenId",
          "type": "uint256"
        }
      ],
      "name": "blocklist",
      "outputs": [],
      "stateMutability": "nonpayable",
      "type": "function"
    },
    {
      "inputs": [
        {
          "internalType": "uint256[]",
          "name": "tokenIds",
          "type": "uint256[]"
        }
      ],
      "name": "blocklistAll",
      "outputs": [],
      "stateMutability": "nonpayable",
      "type": "function"
    },
    {
      "inputs": [
        {
          "internalType": "uint256",
          "name": "tld",
          "type": "uint256"
        },
        {
          "internalType": "string",
          "name": "label",
          "type": "string"
        }
      ],
      "name": "claim",
      "outputs": [],
      "stateMutability": "nonpayable",
      "type": "function"
    },
    {
      "inputs": [
        {
          "internalType": "address",
          "name": "to",
          "type": "address"
        },
        {
          "internalType": "uint256",
          "name": "tld",
          "type": "uint256"
        },
        {
          "internalType": "string",
          "name": "label",
          "type": "string"
        }
      ],
      "name": "claimTo",
      "outputs": [],
      "stateMutability": "nonpayable",
      "type": "function"
    },
    {
      "inputs": [
        {
          "internalType": "address",
          "name": "to",
          "type": "address"
        },
        {
          "internalType": "uint256",
          "name": "tld",
          "type": "uint256"
        },
        {
          "internalType": "string",
          "name": "label",
          "type": "string"
        },
        {
          "internalType": "string[]",
          "name": "keys",
          "type": "string[]"
        },
        {
          "internalType": "string[]",
          "name": "values",
          "type": "string[]"
        }
      ],
      "name": "claimToWithRecords",
      "outputs": [],
      "stateMutability": "nonpayable",
      "type": "function"
    },
    {
      "inputs": [
        {
          "internalType": "address payable",
          "name": "receiver",
          "type": "address"
        }
      ],
      "name": "closeMinter",
      "outputs": [],
      "stateMutability": "payable",
      "type": "function"
    },
    {
      "inputs": [],
      "name": "cnsMintingController",
      "outputs": [
        {
          "internalType": "contract IMintingController",
          "name": "",
          "type": "address"
        }
      ],
      "stateMutability": "view",
      "type": "function"
    },
    {
      "inputs": [],
      "name": "cnsResolver",
      "outputs": [
        {
          "internalType": "contract IResolver",
          "name": "",
          "type": "address"
        }
      ],
      "stateMutability": "view",
      "type": "function"
    },
    {
      "inputs": [],
      "name": "cnsURIPrefixController",
      "outputs": [
        {
          "internalType": "contract IURIPrefixController",
          "name": "",
          "type": "address"
        }
      ],
      "stateMutability": "view",
      "type": "function"
    },
    {
      "inputs": [],
      "name": "disableBlocklist",
      "outputs": [],
      "stateMutability": "nonpayable",
      "type": "function"
    },
    {
      "inputs": [],
      "name": "enableBlocklist",
      "outputs": [],
      "stateMutability": "nonpayable",
      "type": "function"
    },
    {
      "inputs": [
        {
          "internalType": "bytes32",
          "name": "role",
          "type": "bytes32"
        }
      ],
      "name": "getRoleAdmin",
      "outputs": [
        {
          "internalType": "bytes32",
          "name": "",
          "type": "bytes32"
        }
      ],
      "stateMutability": "view",
      "type": "function"
    },
    {
      "inputs": [
        {
          "internalType": "bytes32",
          "name": "role",
          "type": "bytes32"
        },
        {
          "internalType": "address",
          "name": "account",
          "type": "address"
        }
      ],
      "name": "grantRole",
      "outputs": [],
      "stateMutability": "nonpayable",
      "type": "function"
    },
    {
      "inputs": [
        {
          "internalType": "bytes32",
          "name": "role",
          "type": "bytes32"
        },
        {
          "internalType": "address",
          "name": "account",
          "type": "address"
        }
      ],
      "name": "hasRole",
      "outputs": [
        {
          "internalType": "bool",
          "name": "",
          "type": "bool"
        }
      ],
      "stateMutability": "view",
      "type": "function"
    },
    {
      "inputs": [
        {
          "internalType": "contract IUNSRegistry",
          "name": "unsRegistry_",
          "type": "address"
        },
        {
          "internalType": "contract IMintingController",
          "name": "cnsMintingController_",
          "type": "address"
        },
        {
          "internalType": "contract IURIPrefixController",
          "name": "cnsURIPrefixController_",
          "type": "address"
        },
        {
          "internalType": "contract IResolver",
          "name": "cnsResolver_",
          "type": "address"
        },
        {
          "internalType": "address",
          "name": "forwarder",
          "type": "address"
        }
      ],
      "name": "initialize",
      "outputs": [],
      "stateMutability": "nonpayable",
      "type": "function"
    },
    {
      "inputs": [
        {
          "internalType": "uint256",
          "name": "tokenId",
          "type": "uint256"
        }
      ],
      "name": "isBlocked",
      "outputs": [
        {
          "internalType": "bool",
          "name": "",
          "type": "bool"
        }
      ],
      "stateMutability": "view",
      "type": "function"
    },
    {
      "inputs": [],
      "name": "isBlocklistDisabled",
      "outputs": [
        {
          "internalType": "bool",
          "name": "",
          "type": "bool"
        }
      ],
      "stateMutability": "view",
      "type": "function"
    },
    {
      "inputs": [
        {
          "internalType": "address",
          "name": "account",
          "type": "address"
        }
      ],
      "name": "isMinter",
      "outputs": [
        {
          "internalType": "bool",
          "name": "",
          "type": "bool"
        }
      ],
      "stateMutability": "view",
      "type": "function"
    },
    {
      "inputs": [
        {
          "internalType": "address",
          "name": "forwarder",
          "type": "address"
        }
      ],
      "name": "isTrustedForwarder",
      "outputs": [
        {
          "internalType": "bool",
          "name": "",
          "type": "bool"
        }
      ],
      "stateMutability": "view",
      "type": "function"
    },
    {
      "inputs": [
        {
          "internalType": "address",
          "name": "to",
          "type": "address"
        },
        {
          "internalType": "uint256",
          "name": "tld",
          "type": "uint256"
        },
        {
          "internalType": "string",
          "name": "label",
          "type": "string"
        }
      ],
      "name": "mintSLD",
      "outputs": [],
      "stateMutability": "nonpayable",
      "type": "function"
    },
    {
      "inputs": [
        {
          "internalType": "address",
          "name": "to",
          "type": "address"
        },
        {
          "internalType": "uint256",
          "name": "tld",
          "type": "uint256"
        },
        {
          "internalType": "string",
          "name": "label",
          "type": "string"
        },
        {
          "internalType": "string[]",
          "name": "keys",
          "type": "string[]"
        },
        {
          "internalType": "string[]",
          "name": "values",
          "type": "string[]"
        }
      ],
      "name": "mintSLDWithRecords",
      "outputs": [],
      "stateMutability": "nonpayable",
      "type": "function"
    },
    {
      "inputs": [],
      "name": "owner",
      "outputs": [
        {
          "internalType": "address",
          "name": "",
          "type": "address"
        }
      ],
      "stateMutability": "view",
      "type": "function"
    },
    {
      "inputs": [],
      "name": "pause",
      "outputs": [],
      "stateMutability": "nonpayable",
      "type": "function"
    },
    {
      "inputs": [],
      "name": "paused",
      "outputs": [
        {
          "internalType": "bool",
          "name": "",
          "type": "bool"
        }
      ],
      "stateMutability": "view",
      "type": "function"
    },
    {
      "inputs": [
        {
          "internalType": "bytes",
          "name": "data",
          "type": "bytes"
        },
        {
          "internalType": "bytes",
          "name": "signature",
          "type": "bytes"
        }
      ],
      "name": "relay",
      "outputs": [
        {
          "internalType": "bytes",
          "name": "",
          "type": "bytes"
        }
      ],
      "stateMutability": "nonpayable",
      "type": "function"
    },
    {
      "inputs": [
        {
          "internalType": "address",
          "name": "account",
          "type": "address"
        }
      ],
      "name": "removeMinter",
      "outputs": [],
      "stateMutability": "nonpayable",
      "type": "function"
    },
    {
      "inputs": [
        {
          "internalType": "address[]",
          "name": "accounts",
          "type": "address[]"
        }
      ],
      "name": "removeMinters",
      "outputs": [],
      "stateMutability": "nonpayable",
      "type": "function"
    },
    {
      "inputs": [],
      "name": "renounceMinter",
      "outputs": [],
      "stateMutability": "nonpayable",
      "type": "function"
    },
    {
      "inputs": [],
      "name": "renounceOwnership",
      "outputs": [],
      "stateMutability": "nonpayable",
      "type": "function"
    },
    {
      "inputs": [
        {
          "internalType": "bytes32",
          "name": "role",
          "type": "bytes32"
        },
        {
          "internalType": "address",
          "name": "account",
          "type": "address"
        }
      ],
      "name": "renounceRole",
      "outputs": [],
      "stateMutability": "nonpayable",
      "type": "function"
    },
    {
      "inputs": [
        {
          "internalType": "bytes32",
          "name": "role",
          "type": "bytes32"
        },
        {
          "internalType": "address",
          "name": "account",
          "type": "address"
        }
      ],
      "name": "revokeRole",
      "outputs": [],
      "stateMutability": "nonpayable",
      "type": "function"
    },
    {
      "inputs": [
        {
          "internalType": "address payable",
          "name": "receiver",
          "type": "address"
        }
      ],
      "name": "rotateMinter",
      "outputs": [],
      "stateMutability": "payable",
      "type": "function"
    },
    {
      "inputs": [
        {
          "internalType": "address",
          "name": "to",
          "type": "address"
        },
        {
          "internalType": "uint256",
          "name": "tld",
          "type": "uint256"
        },
        {
          "internalType": "string",
          "name": "label",
          "type": "string"
        }
      ],
      "name": "safeMintSLD",
      "outputs": [],
      "stateMutability": "nonpayable",
      "type": "function"
    },
    {
      "inputs": [
        {
          "internalType": "address",
          "name": "to",
          "type": "address"
        },
        {
          "internalType": "uint256",
          "name": "tld",
          "type": "uint256"
        },
        {
          "internalType": "string",
          "name": "label",
          "type": "string"
        },
        {
          "internalType": "bytes",
          "name": "data",
          "type": "bytes"
        }
      ],
      "name": "safeMintSLD",
      "outputs": [],
      "stateMutability": "nonpayable",
      "type": "function"
    },
    {
      "inputs": [
        {
          "internalType": "address",
          "name": "to",
          "type": "address"
        },
        {
          "internalType": "uint256",
          "name": "tld",
          "type": "uint256"
        },
        {
          "internalType": "string",
          "name": "label",
          "type": "string"
        },
        {
          "internalType": "string[]",
          "name": "keys",
          "type": "string[]"
        },
        {
          "internalType": "string[]",
          "name": "values",
          "type": "string[]"
        }
      ],
      "name": "safeMintSLDWithRecords",
      "outputs": [],
      "stateMutability": "nonpayable",
      "type": "function"
    },
    {
      "inputs": [
        {
          "internalType": "address",
          "name": "to",
          "type": "address"
        },
        {
          "internalType": "uint256",
          "name": "tld",
          "type": "uint256"
        },
        {
          "internalType": "string",
          "name": "label",
          "type": "string"
        },
        {
          "internalType": "string[]",
          "name": "keys",
          "type": "string[]"
        },
        {
          "internalType": "string[]",
          "name": "values",
          "type": "string[]"
        },
        {
          "internalType": "bytes",
          "name": "data",
          "type": "bytes"
        }
      ],
      "name": "safeMintSLDWithRecords",
      "outputs": [],
      "stateMutability": "nonpayable",
      "type": "function"
    },
    {
      "inputs": [
        {
          "internalType": "address",
          "name": "forwarder",
          "type": "address"
        }
      ],
      "name": "setForwarder",
      "outputs": [],
      "stateMutability": "nonpayable",
      "type": "function"
    },
    {
      "inputs": [
        {
          "internalType": "address",
          "name": "resolver",
          "type": "address"
        }
      ],
      "name": "setResolver",
      "outputs": [],
      "stateMutability": "nonpayable",
      "type": "function"
    },
    {
      "inputs": [
        {
          "internalType": "string",
          "name": "prefix",
          "type": "string"
        }
      ],
      "name": "setTokenURIPrefix",
      "outputs": [],
      "stateMutability": "nonpayable",
      "type": "function"
    },
    {
      "inputs": [
        {
          "internalType": "bytes4",
          "name": "interfaceId",
          "type": "bytes4"
        }
      ],
      "name": "supportsInterface",
      "outputs": [
        {
          "internalType": "bool",
          "name": "",
          "type": "bool"
        }
      ],
      "stateMutability": "view",
      "type": "function"
    },
    {
      "inputs": [
        {
          "internalType": "address",
          "name": "newOwner",
          "type": "address"
        }
      ],
      "name": "transferOwnership",
      "outputs": [],
      "stateMutability": "nonpayable",
      "type": "function"
    },
    {
      "inputs": [],
      "name": "unpause",
      "outputs": [],
      "stateMutability": "nonpayable",
      "type": "function"
    },
    {
      "inputs": [],
      "name": "unsRegistry",
      "outputs": [
        {
          "internalType": "contract IUNSRegistry",
          "name": "",
          "type": "address"
        }
      ],
      "stateMutability": "view",
      "type": "function"
    },
    {
      "inputs": [
        {
          "internalType": "uint256",
          "name": "tld",
          "type": "uint256"
        },
        {
          "internalType": "string",
          "name": "label",
          "type": "string"
        }
      ],
      "name": "upgradeCnsToPolygon",
      "outputs": [],
      "stateMutability": "nonpayable",
      "type": "function"
    }
  ],
  "bytecode": "0x608060405234801561001057600080fd5b50614969806100206000396000f3fe6080604052600436106102ff5760003560e01c806371e2a65711610190578063a849d65c116100dc578063cc2c3fc411610095578063d547741f1161006f578063d547741f14610886578063e47d6cc6146108a6578063f2fde38b146108c6578063ffa1ad74146108e6576102ff565b8063cc2c3fc41461083c578063ceeb4f5014610851578063d539139314610871576102ff565b8063a849d65c14610787578063aa271e1a1461079c578063ae2ad903146107bc578063b0aa98c7146107dc578063b9998a24146107fc578063c3a3bc001461081c576102ff565b806391d148541161014957806399e0dd7c1161012357806399e0dd7c1461071d578063a217fddf1461073d578063a3f4df7e14610752578063a76998f114610767576102ff565b806391d14854146106c8578063983b2d56146106e85780639865027514610708576102ff565b806371e2a6571461063657806381c81d35146106565780638456cb59146106695780638da5cb5b1461067e578063906cecc11461069357806390dbdb5a146106b3576102ff565b80633f4ba83a1161024f57806358839d6b116102085780635fc1964f116101e25780635fc1964f146105ce578063634486da146105ee5780636a2d225614610601578063715018a614610621576102ff565b806358839d6b146105845780635b6fa8db146105a45780635c975abb146105b9576102ff565b80633f4ba83a146104c2578063463c4bcb146104d75780634c1819e0146104f75780634e543b2614610517578063564a515814610537578063572b6c0514610564576102ff565b806327bbd225116102bc5780633092afd5116102965780633092afd51461044057806336568abe1461046057806339ccf4d0146104805780633f41b614146104a0576102ff565b806327bbd225146103eb5780632eff1a951461040b5780632f2ff15d14610420576102ff565b806301ffc9a7146103045780630e36a87d1461033a57806310921f12146103675780631459457a1461037c578063248a9ca31461039e578063268b15ed146103cb575b600080fd5b34801561031057600080fd5b5061032461031f366004613bb0565b6108fb565b604051610331919061427a565b60405180910390f35b34801561034657600080fd5b5061035a610355366004613b0a565b610928565b60405161033191906141fa565b34801561037357600080fd5b506103246109ff565b34801561038857600080fd5b5061039c610397366004613c34565b610a22565b005b3480156103aa57600080fd5b506103be6103b9366004613b69565b610c85565b6040516103319190614285565b3480156103d757600080fd5b5061039c6103e6366004613cd7565b610c9a565b3480156103f757600080fd5b5061039c610406366004613836565b610d1c565b34801561041757600080fd5b5061039c610e04565b34801561042c57600080fd5b5061039c61043b366004613b81565b610e4d565b34801561044c57600080fd5b5061039c61045b3660046137a5565b610e76565b34801561046c57600080fd5b5061039c61047b366004613b81565b610ec1565b34801561048c57600080fd5b5061039c61049b366004613836565b610f07565b3480156104ac57600080fd5b506104b5610fd6565b6040516103319190613fe5565b3480156104ce57600080fd5b5061039c610fe5565b3480156104e357600080fd5b5061039c6104f2366004613b69565b61102c565b34801561050357600080fd5b5061039c6105123660046137dd565b61105c565b34801561052357600080fd5b5061039c6105323660046137a5565b611107565b34801561054357600080fd5b50610557610552366004613bd8565b611168565b60405161033191906142ac565b34801561057057600080fd5b5061032461057f3660046137a5565b611333565b34801561059057600080fd5b5061039c61059f3660046139c2565b611374565b3480156105b057600080fd5b506104b5611448565b3480156105c557600080fd5b50610324611457565b3480156105da57600080fd5b5061039c6105e9366004613a4a565b611470565b61039c6105fc3660046137a5565b6114fd565b34801561060d57600080fd5b5061039c61061c3660046138e7565b611590565b34801561062d57600080fd5b5061039c6116a2565b34801561064257600080fd5b5061039c610651366004613a4a565b61172b565b61039c6106643660046137a5565b6117b8565b34801561067557600080fd5b5061039c611805565b34801561068a57600080fd5b506104b561184c565b34801561069f57600080fd5b5061039c6106ae3660046137dd565b61185b565b3480156106bf57600080fd5b5061039c6118cb565b3480156106d457600080fd5b506103246106e3366004613b81565b611912565b3480156106f457600080fd5b5061039c6107033660046137a5565b61193d565b34801561071457600080fd5b5061039c611985565b34801561072957600080fd5b5061039c610738366004613ca4565b61199f565b34801561074957600080fd5b506103be611ab5565b34801561075e57600080fd5b50610557611aba565b34801561077357600080fd5b5061039c610782366004613cd7565b611aea565b34801561079357600080fd5b506104b5611db6565b3480156107a857600080fd5b506103246107b73660046137a5565b611dc5565b3480156107c857600080fd5b5061039c6107d73660046137dd565b611ddf565b3480156107e857600080fd5b506103246107f7366004613b69565b611ea8565b34801561080857600080fd5b5061039c6108173660046137a5565b611f16565b34801561082857600080fd5b5061039c610837366004613ca4565b611f5e565b34801561084857600080fd5b506104b5611fdc565b34801561085d57600080fd5b5061039c61086c366004613836565b611feb565b34801561087d57600080fd5b506103be612064565b34801561089257600080fd5b5061039c6108a1366004613b81565b612076565b3480156108b257600080fd5b5061039c6108c1366004613b0a565b612095565b3480156108d257600080fd5b5061039c6108e13660046137a5565b6120c6565b3480156108f257600080fd5b50610557612119565b60006001600160e01b03198216637965db0b60e01b148061092057506109208261213a565b90505b919050565b6060816001600160401b0381111561095057634e487b7160e01b600052604160045260246000fd5b604051908082528060200260200182016040528015610979578160200160208202803683370190505b50905060005b828110156109f8576109b68484838181106109aa57634e487b7160e01b600052603260045260246000fd5b90506020020135611ea8565b8282815181106109d657634e487b7160e01b600052603260045260246000fd5b91151560209283029190910190910152806109f0816148a0565b91505061097f565b5092915050565b6000610a1860008051602061491d833981519152610a1f565b5460ff1690505b90565b600054610100900460ff1680610a3b575060005460ff16155b610a605760405162461bcd60e51b8152600401610a5790614578565b60405180910390fd5b600054610100900460ff16158015610a8b576000805460ff1961ff0019909116610100171660011790555b60c980546001600160a01b038089166001600160a01b03199283161790925560ca805488841690831617905560cb805487841690831617905560cc805492861692909116919091179055610add612153565b610ae561221f565b610aee826122a5565b610af6612323565b610afe6123bf565b610b0730612438565b6040805161016081018252600661012082018181526563727970746f60d01b610140840152825282518084018452908152651dd85b1b195d60d21b6020828101919091528083019190915282518084018452600481526331b7b4b760e11b81830152828401528251808401845260018152600f60fb1b818301526060830152825180840184526003808252621b999d60ea1b82840152608084019190915283518085018552600a815269313637b1b5b1b430b4b760b11b8184015260a08401528351808501855260078152663134ba31b7b4b760c91b8184015260c0840152835180850185528181526207070760eb1b8184015260e0840152835180850190945283526264616f60e81b9083015261010081019190915260005b6009811015610c6957610c57828260098110610c4d57634e487b7160e01b600052603260045260246000fd5b6020020151612450565b80610c61816148a0565b915050610c21565b50508015610c7d576000805461ff00191690555b505050505050565b60009081526097602052604090206001015490565b600083815260cd60205260408120805485929190610cb790614865565b905011610cd65760405162461bcd60e51b8152600401610a579061474e565b610cde611457565b15610cfb5760405162461bcd60e51b8152600401610a57906146ed565b610d16610d06612574565b85610d118686612583565b6125af565b50505050565b610d276107b7612574565b610d435760405162461bcd60e51b8152600401610a57906145c6565b600087815260cd60205260408120805489929190610d6090614865565b905011610d7f5760405162461bcd60e51b8152600401610a579061474e565b610d87611457565b15610da45760405162461bcd60e51b8152600401610a57906146ed565b610df9898989898080601f016020809104026020016040519081016040528093929190818152602001838380828437600092018290525060408051602081019091529081528c93508b92508a915089906126b5565b505050505050505050565b610e0c612574565b6001600160a01b0316610e1d61184c565b6001600160a01b031614610e435760405162461bcd60e51b8152600401610a5790614681565b610e4b61283f565b565b610e5682610c85565b610e6781610e62612574565b6128cc565b610e718383612930565b505050565b610e7e612574565b6001600160a01b0316610e8f61184c565b6001600160a01b031614610eb55760405162461bcd60e51b8152600401610a5790614681565b610ebe816129b7565b50565b610ec9612574565b6001600160a01b0316816001600160a01b031614610ef95760405162461bcd60e51b8152600401610a5790614790565b610f0382826129cf565b5050565b610f126107b7612574565b610f2e5760405162461bcd60e51b8152600401610a57906145c6565b600087815260cd60205260408120805489929190610f4b90614865565b905011610f6a5760405162461bcd60e51b8152600401610a579061474e565b610f72611457565b15610f8f5760405162461bcd60e51b8152600401610a57906146ed565b610df9898989898080601f0160208091040260200160405190810160405280939291908181526020018383808284376000920191909152508b92508a915089905088612a54565b60c9546001600160a01b031681565b610fed612574565b6001600160a01b0316610ffe61184c565b6001600160a01b0316146110245760405162461bcd60e51b8152600401610a5790614681565b610e4b612bd9565b6110376107b7612574565b6110535760405162461bcd60e51b8152600401610a57906145c6565b610ebe81612c4e565b6110676107b7612574565b6110835760405162461bcd60e51b8152600401610a57906145c6565b600083815260cd602052604081208054859291906110a090614865565b9050116110bf5760405162461bcd60e51b8152600401610a579061474e565b6110c7611457565b156110e45760405162461bcd60e51b8152600401610a57906146ed565b6111008585858560405180602001604052806000815250612cf8565b5050505050565b61110f612574565b6001600160a01b031661112061184c565b6001600160a01b0316146111465760405162461bcd60e51b8152600401610a5790614681565b60cc80546001600160a01b0319166001600160a01b0392909216919091179055565b60606000858560405161117c929190613e2e565b6040518091039020905060006111f985858080601f016020809104026020016040519081016040528093929190818152602001838380828437600092019190915250506040516111f392506111d8915086903090602001613e00565b60405160208183030381529060405280519060200120612e78565b90612ea8565b905060008088888080601f01602080910402602001604051908101604052809392919081815260200183838082843760009201919091525050505060208101519250905061124683612f2e565b611251828a8a612f5c565b600080306001600160a01b03168b8b60405161126e929190613e2e565b6000604051808303816000865af19150503d80600081146112ab576040519150601f19603f3d011682016040523d82523d6000602084013e6112b0565b606091505b509092509050816112c8576040513d806000833e8082fd5b6001600160e01b031984166001600160a01b0386166112e5612574565b6001600160a01b03167f9490f91465d0d2c12728b9ad47d5f1dd2ac3ef39394796e54a48b94db0b337258960405161131d9190614285565b60405180910390a49a9950505050505050505050565b600061135e7f893ef2ea16c023f61d4f55d3e6ee3fc3f2fbfd478461323dbc2fbf919047086e610a1f565b546001600160a01b038381169116149050919050565b61137f6107b7612574565b61139b5760405162461bcd60e51b8152600401610a57906145c6565b600085815260cd602052604081208054879291906113b890614865565b9050116113d75760405162461bcd60e51b8152600401610a579061474e565b6113df611457565b156113fc5760405162461bcd60e51b8152600401610a57906146ed565b61143f8787878787878080601f016020809104026020016040519081016040528093929190818152602001838380828437600092019190915250612cf892505050565b50505050505050565b60cc546001600160a01b031681565b6000610a186000805160206148fd833981519152610a1f565b611478612574565b6001600160a01b031661148961184c565b6001600160a01b0316146114af5760405162461bcd60e51b8152600401610a5790614681565b60005b8151811015610f03576114eb8282815181106114de57634e487b7160e01b600052603260045260246000fd5b60200260200101516129b7565b806114f5816148a0565b9150506114b2565b6115086107b7612574565b6115245760405162461bcd60e51b8152600401610a57906145c6565b6001600160a01b03811661154a5760405162461bcd60e51b8152600401610a579061449a565b61155381612438565b61155b611985565b6040516001600160a01b038216903480156108fc02916000818181858888f19350505050158015610f03573d6000803e3d6000fd5b61159b6107b7612574565b6115b75760405162461bcd60e51b8152600401610a57906145c6565b600089815260cd6020526040812080548b9291906115d490614865565b9050116115f35760405162461bcd60e51b8152600401610a579061474e565b6115fb611457565b156116185760405162461bcd60e51b8152600401610a57906146ed565b6116958b8b8b8b8080601f01602080910402602001604051908101604052809392919081815260200183838082843760009201919091525050604080516020601f8b018190048102820181019092528981528e93508d92508c918c91908c908c90819084018382808284376000920191909152506126b592505050565b5050505050505050505050565b6116aa612574565b6001600160a01b03166116bb61184c565b6001600160a01b0316146116e15760405162461bcd60e51b8152600401610a5790614681565b6033546040516000916001600160a01b0316907f8be0079c531659141344cd1fd0a4f28419497f9722a3daafe3b4186f6b6457e0908390a3603380546001600160a01b0319169055565b611733612574565b6001600160a01b031661174461184c565b6001600160a01b03161461176a5760405162461bcd60e51b8152600401610a5790614681565b60005b8151811015610f03576117a682828151811061179957634e487b7160e01b600052603260045260246000fd5b6020026020010151612438565b806117b0816148a0565b91505061176d565b6117c36107b7612574565b6117df5760405162461bcd60e51b8152600401610a57906145c6565b6001600160a01b0381166115535760405162461bcd60e51b8152600401610a579061449a565b61180d612574565b6001600160a01b031661181e61184c565b6001600160a01b0316146118445760405162461bcd60e51b8152600401610a5790614681565b610e4b613018565b6033546001600160a01b031690565b600083815260cd6020526040812080548592919061187890614865565b9050116118975760405162461bcd60e51b8152600401610a579061474e565b61189f611457565b156118bc5760405162461bcd60e51b8152600401610a57906146ed565b6111008585610d118686612583565b6118d3612574565b6001600160a01b03166118e461184c565b6001600160a01b03161461190a5760405162461bcd60e51b8152600401610a5790614681565b610e4b61308e565b60009182526097602090815260408084206001600160a01b0393909316845291905290205460ff1690565b611945612574565b6001600160a01b031661195661184c565b6001600160a01b03161461197c5760405162461bcd60e51b8152600401610a5790614681565b610ebe81612438565b610e4b60008051602061493d83398151915261047b612574565b6119a7612574565b6001600160a01b03166119b861184c565b6001600160a01b0316146119de5760405162461bcd60e51b8152600401610a5790614681565b60c954604051632678375f60e21b81526001600160a01b03909116906399e0dd7c90611a1090859085906004016142bf565b600060405180830381600087803b158015611a2a57600080fd5b505af1158015611a3e573d6000803e3d6000fd5b505060cb546001600160a01b0316159150610f0390505760cb54604051632678375f60e21b81526001600160a01b03909116906399e0dd7c90611a8790859085906004016142bf565b600060405180830381600087803b158015611aa157600080fd5b505af1158015610c7d573d6000803e3d6000fd5b600081565b604051806040016040528060148152602001732aa7299d1026b4b73a34b7339026b0b730b3b2b960611b81525081565b600083815260cd60205260408120805485929190611b0790614865565b905011611b265760405162461bcd60e51b8152600401610a579061474e565b837f0f4a10a4f46c288cea365fcf45cccf0e9d901b945b9829ccdb54c10dc3cb7a6f14611b655760405162461bcd60e51b8152600401610a57906146b6565b6000611ba78585858080601f01602080910402602001604051908101604052809392919081815260200183838082843760009201919091525061310392505050565b9050600060ca60009054906101000a90046001600160a01b03166001600160a01b0316637b1039996040518163ffffffff1660e01b815260040160206040518083038186803b158015611bf957600080fd5b505afa158015611c0d573d6000803e3d6000fd5b505050506040513d601f19601f82011682018060405250810190611c3191906137c1565b90506000816001600160a01b0316636352211e846040518263ffffffff1660e01b8152600401611c619190614285565b60206040518083038186803b158015611c7957600080fd5b505afa158015611c8d573d6000803e3d6000fd5b505050506040513d601f19601f82011682018060405250810190611cb191906137c1565b604051630852cd8d60e31b81529091506001600160a01b038316906342966c6890611ce0908690600401614285565b600060405180830381600087803b158015611cfa57600080fd5b505af1158015611d0e573d6000803e3d6000fd5b505060c954604080516020601f8b018190048102820181019092528981526001600160a01b03909216935063e6a0d54f925084918791611d6a918d918d908d908190840183828082843760009201919091525061317f92505050565b6040518463ffffffff1660e01b8152600401611d88939291906140c0565b600060405180830381600087803b158015611da257600080fd5b505af1158015611695573d6000803e3d6000fd5b60cb546001600160a01b031681565b600061092060008051602061493d83398151915283611912565b611dea6107b7612574565b611e065760405162461bcd60e51b8152600401610a57906145c6565b600083815260cd60205260408120805485929190611e2390614865565b905011611e425760405162461bcd60e51b8152600401610a579061474e565b611e4a611457565b15611e675760405162461bcd60e51b8152600401610a57906146ed565b611100858585858080601f0160208091040260200160405190810160405280939291908181526020018383808284376000920191909152506125af92505050565b6000611eb26109ff565b1580156109205750604051611f0c90611ef1907f1ec047073e2c8b15660901dbfdb6e3ff6365bd699dd9f95dcc6eab5448bebd69908590602001613e20565b60405160208183030381529060405280519060200120610a1f565b5460ff1692915050565b611f1e612574565b6001600160a01b0316611f2f61184c565b6001600160a01b031614611f555760405162461bcd60e51b8152600401610a5790614681565b610ebe816131a2565b611f66612574565b6001600160a01b0316611f7761184c565b6001600160a01b031614611f9d5760405162461bcd60e51b8152600401610a5790614681565b610f0382828080601f01602080910402602001604051908101604052809392919081815260200183838082843760009201919091525061245092505050565b60ca546001600160a01b031681565b600087815260cd6020526040812080548992919061200890614865565b9050116120275760405162461bcd60e51b8152600401610a579061474e565b61202f611457565b1561204c5760405162461bcd60e51b8152600401610a57906146ed565b610df9898961205b8a8a612583565b88888888612a54565b60008051602061493d83398151915281565b61207f82610c85565b61208b81610e62612574565b610e7183836129cf565b6120a06107b7612574565b6120bc5760405162461bcd60e51b8152600401610a57906145c6565b610f0382826131ed565b6120ce612574565b6001600160a01b03166120df61184c565b6001600160a01b0316146121055760405162461bcd60e51b8152600401610a5790614681565b61210e81613239565b610ebe6000826132fa565b604051806040016040528060058152602001640302e322e360dc1b81525081565b6001600160e01b031981166301ffc9a760e01b14919050565b600054610100900460ff168061216c575060005460ff16155b6121885760405162461bcd60e51b8152600401610a5790614578565b600054610100900460ff161580156121b3576000805460ff1961ff0019909116610100171660011790555b60006121bd612574565b603380546001600160a01b0319166001600160a01b038316908117909155604051919250906000907f8be0079c531659141344cd1fd0a4f28419497f9722a3daafe3b4186f6b6457e0908290a3508015610ebe576000805461ff001916905550565b600054610100900460ff1680612238575060005460ff16155b6122545760405162461bcd60e51b8152600401610a5790614578565b600054610100900460ff1615801561227f576000805460ff1961ff0019909116610100171660011790555b612291600061228c612574565b6132fa565b8015610ebe576000805461ff001916905550565b600054610100900460ff16806122be575060005460ff16155b6122da5760405162461bcd60e51b8152600401610a5790614578565b600054610100900460ff16158015612305576000805460ff1961ff0019909116610100171660011790555b61230e826131a2565b8015610f03576000805461ff00191690555050565b600054610100900460ff168061233c575060005460ff16155b6123585760405162461bcd60e51b8152600401610a5790614578565b600054610100900460ff16158015612383576000805460ff1961ff0019909116610100171660011790555b600061239c60008051602061491d833981519152610a1f565b805460ff19169115159190911790558015610ebe576000805461ff001916905550565b600054610100900460ff16806123d8575060005460ff16155b6123f45760405162461bcd60e51b8152600401610a5790614578565b600054610100900460ff1615801561241f576000805460ff1961ff0019909116610100171660011790555b600061239c6000805160206148fd833981519152610a1f565b610ebe60008051602061493d833981519152826132fa565b600061245d600083613103565b600081815260cd60209081526040909120845192935061248192909185019061367a565b50807f4fce6f6e172b04eaa80325d8e3b0180a34945000f3e214605039e8420fdf8980836040516124b291906142ac565b60405180910390a260c954604051634f558e7960e01b81526001600160a01b0390911690634f558e79906124ea908490600401614285565b60206040518083038186803b15801561250257600080fd5b505afa158015612516573d6000803e3d6000fd5b505050506040513d601f19601f8201168201806040525081019061253a9190613b49565b610f035760c9546040516334ff261960e21b81526001600160a01b039091169063d3fc986490611a879061dead90859087906004016140c0565b600061257e613304565b905090565b60608282604051602001612598929190613f4a565b604051602081830303815290604052905092915050565b60006125bb8383613103565b90506125c681613332565b6125cf83613364565b156126425760ca5460cc5460405163c36c212560e01b81526001600160a01b039283169263c36c21259261260b92899288921690600401614043565b600060405180830381600087803b15801561262557600080fd5b505af1158015612639573d6000803e3d6000fd5b50505050610d16565b60c9546001600160a01b031663d3fc9864858361265f878761317f565b6040518463ffffffff1660e01b815260040161267d939291906140c0565b600060405180830381600087803b15801561269757600080fd5b505af11580156126ab573d6000803e3d6000fd5b5050505050505050565b60006126c18888613103565b90506126cc81613332565b6126d588613364565b156127bd5760ca5460cc54604051630f95e75b60e31b81526001600160a01b0392831692637caf3ad892612713928e928d9216908890600401614078565b600060405180830381600087803b15801561272d57600080fd5b505af1158015612741573d6000803e3d6000fd5b5050861591506127b890505760cc54604051633a0deb9d60e21b81526001600160a01b039091169063e837ae74906127859089908990899089908890600401614240565b600060405180830381600087803b15801561279f57600080fd5b505af11580156127b3573d6000803e3d6000fd5b505050505b610df9565b60c9546001600160a01b031663efda4d3e8a836127da8c8c61317f565b8a8a8a8a8a6040518963ffffffff1660e01b8152600401612802989796959493929190614144565b600060405180830381600087803b15801561281c57600080fd5b505af1158015612830573d6000803e3d6000fd5b50505050505050505050505050565b6128476109ff565b156128645760405162461bcd60e51b8152600401610a5790614312565b600161287d60008051602061491d833981519152610a1f565b805460ff19169115159190911790557f079c4efaefd9fc7ddb28144b9b0140c03f42922d28d0e226369d6070921581666128b5612574565b6040516128c29190613fe5565b60405180910390a1565b6128d68282611912565b610f03576128ee816001600160a01b031660146133a2565b6128f98360206133a2565b60405160200161290a929190613f70565b60408051601f198184030181529082905262461bcd60e51b8252610a57916004016142ac565b61293a8282611912565b610f035760008281526097602090815260408083206001600160a01b03851684529091529020805460ff19166001179055612973612574565b6001600160a01b0316816001600160a01b0316837f2f8788117e7eff1d82e926ec794901d17c78024a50270940304540a733656f0d60405160405180910390a45050565b610ebe60008051602061493d83398151915282612076565b6129d98282611912565b15610f035760008281526097602090815260408083206001600160a01b03851684529091529020805460ff19169055612a10612574565b6001600160a01b0316816001600160a01b0316837ff6391f5c32d9c69d2a47ea670b442974b53935d1edc7fd64eb21e047a839171b60405160405180910390a45050565b6000612a608787613103565b9050612a6b81613332565b612a7487613364565b15612b5a5760ca5460cc5460405163c36c212560e01b81526001600160a01b039283169263c36c212592612ab0928d928c921690600401614043565b600060405180830381600087803b158015612aca57600080fd5b505af1158015612ade573d6000803e3d6000fd5b505085159150612b5590505760cc54604051633a0deb9d60e21b81526001600160a01b039091169063e837ae7490612b229088908890889088908890600401614240565b600060405180830381600087803b158015612b3c57600080fd5b505af1158015612b50573d6000803e3d6000fd5b505050505b6126ab565b60c9546001600160a01b031663b0f591778983612b778b8b61317f565b898989896040518863ffffffff1660e01b8152600401612b9d97969594939291906140e7565b600060405180830381600087803b158015612bb757600080fd5b505af1158015612bcb573d6000803e3d6000fd5b505050505050505050505050565b612be1611457565b612bfd5760405162461bcd60e51b8152600401610a57906144d1565b6000612c166000805160206148fd833981519152610a1f565b805460ff19169115159190911790557f5db9ee0a495bf2e6ff9c91a7834c1ba4fdd244a5e8aa4e537bd38aeae4b073aa6128b5612574565b612c566109ff565b15612c735760405162461bcd60e51b8152600401610a5790614312565b6001612cae7f1ec047073e2c8b15660901dbfdb6e3ff6365bd699dd9f95dcc6eab5448bebd6960001b83604051602001611ef1929190613e20565b805460ff19169115159190911790556040517f2ce5d9351b1d590d5a066db0d2dc7602d55f092506a83a7ee8c4d78ee357d75a90612ced908390614285565b60405180910390a150565b6000612d3a8585858080601f01602080910402602001604051908101604052809392919081815260200183838082843760009201919091525061310392505050565b9050612d4581613332565b612d4e85613364565b15612dc65760ca5460cc54604051630f95e75b60e31b81526001600160a01b0392831692637caf3ad892612d8f928b928a928a929116908990600401613ff9565b600060405180830381600087803b158015612da957600080fd5b505af1158015612dbd573d6000803e3d6000fd5b50505050610c7d565b60c954604080516020601f87018190048102820181019092528581526001600160a01b039092169163b55bc6179189918591612e1e918b918b908b908190840183828082843760009201919091525061317f92505050565b866040518563ffffffff1660e01b8152600401612e3e94939291906141b6565b600060405180830381600087803b158015612e5857600080fd5b505af1158015612e6c573d6000803e3d6000fd5b50505050505050505050565b600081604051602001612e8b9190613f19565b604051602081830303815290604052805190602001209050919050565b600080600080845160411415612ed25750505060208201516040830151606084015160001a612f18565b845160401415612f005750505060408201516020830151906001600160ff1b0381169060ff1c601b01612f18565b60405162461bcd60e51b8152600401610a57906143ba565b612f248682858561355a565b9695505050505050565b612f3781613650565b612f4081611dc5565b610ebe5760405162461bcd60e51b8152600401610a579061463d565b60006001600160e01b0319841663ae2ad90360e01b1480612f8d57506001600160e01b03198416630260c0cf60e51b145b80612fa857506001600160e01b031984166358839d6b60e01b145b80612fc357506001600160e01b0319841663039ccf4d60e41b145b80612fde57506001600160e01b031984166327bbd22560e01b145b80612ff957506001600160e01b03198416633516912b60e11b145b905080610d165760405162461bcd60e51b8152600401610a5790614374565b613020611457565b1561303d5760405162461bcd60e51b8152600401610a57906146ed565b60016130566000805160206148fd833981519152610a1f565b805460ff19169115159190911790557f62e78cea01bee320cd4e420270b5ea74000d11b0c9f74754ebdbfc544b05a2586128b5612574565b6130966109ff565b6130b25760405162461bcd60e51b8152600401610a57906143f1565b60006130cb60008051602061491d833981519152610a1f565b805460ff19169115159190911790557f316c4cec74b9568f102eda30781a2fe8cd5172329bf1401e804cb8c5131715c46128b5612574565b60008151600014156131275760405162461bcd60e51b8152600401610a5790614717565b82826040516020016131399190613e3e565b60405160208183030381529060405280519060200120604051602001613160929190613e20565b60408051601f1981840301815291905280516020909101209392505050565b600082815260cd6020908152604091829020915160609261259892859201613e5a565b806131cc7f893ef2ea16c023f61d4f55d3e6ee3fc3f2fbfd478461323dbc2fbf919047086e610a1f565b80546001600160a01b0319166001600160a01b039290921691909117905550565b60005b81811015610e715761322783838381811061321b57634e487b7160e01b600052603260045260246000fd5b90506020020135612c4e565b80613231816148a0565b9150506131f0565b613241612574565b6001600160a01b031661325261184c565b6001600160a01b0316146132785760405162461bcd60e51b8152600401610a5790614681565b6001600160a01b03811661329e5760405162461bcd60e51b8152600401610a579061441d565b6033546040516001600160a01b038084169216907f8be0079c531659141344cd1fd0a4f28419497f9722a3daafe3b4186f6b6457e090600090a3603380546001600160a01b0319166001600160a01b0392909216919091179055565b610f038282612930565b600061330f33611333565b15613323575060331936013560601c610a1f565b61332b613676565b9050610a1f565b61333a6109ff565b610ebe5761334781611ea8565b156110535760405162461bcd60e51b8152600401610a5790614541565b60ca546000906001600160a01b0316158015906109205750507f0f4a10a4f46c288cea365fcf45cccf0e9d901b945b9829ccdb54c10dc3cb7a6f1490565b606060006133b1836002614803565b6133bc9060026147eb565b6001600160401b038111156133e157634e487b7160e01b600052604160045260246000fd5b6040519080825280601f01601f19166020018201604052801561340b576020820181803683370190505b509050600360fc1b8160008151811061343457634e487b7160e01b600052603260045260246000fd5b60200101906001600160f81b031916908160001a905350600f60fb1b8160018151811061347157634e487b7160e01b600052603260045260246000fd5b60200101906001600160f81b031916908160001a9053506000613495846002614803565b6134a09060016147eb565b90505b6001811115613534576f181899199a1a9b1b9c1cb0b131b232b360811b85600f16601081106134e257634e487b7160e01b600052603260045260246000fd5b1a60f81b82828151811061350657634e487b7160e01b600052603260045260246000fd5b60200101906001600160f81b031916908160001a90535060049490941c9361352d8161484e565b90506134a3565b5083156135535760405162461bcd60e51b8152600401610a579061433f565b9392505050565b60007f7fffffffffffffffffffffffffffffff5d576e7357a4501ddfe92f46681b20a082111561359c5760405162461bcd60e51b8152600401610a57906144ff565b8360ff16601b14806135b157508360ff16601c145b6135cd5760405162461bcd60e51b8152600401610a57906145fb565b6000600186868686604051600081526020016040526040516135f2949392919061428e565b6020604051602081039080840390855afa158015613614573d6000803e3d6000fd5b5050604051601f1901519150506001600160a01b0381166136475760405162461bcd60e51b8152600401610a57906142db565b95945050505050565b6001600160a01b038116610ebe5760405162461bcd60e51b8152600401610a5790614463565b3390565b82805461368690614865565b90600052602060002090601f0160209004810192826136a857600085556136ee565b82601f106136c157805160ff19168380011785556136ee565b828001600101855582156136ee579182015b828111156136ee5782518255916020019190600101906136d3565b506136fa9291506136fe565b5090565b5b808211156136fa57600081556001016136ff565b8035610923816148e7565b60008083601f84011261372f578182fd5b5081356001600160401b03811115613745578182fd5b602083019150836020808302850101111561375f57600080fd5b9250929050565b60008083601f840112613777578182fd5b5081356001600160401b0381111561378d578182fd5b60208301915083602082850101111561375f57600080fd5b6000602082840312156137b6578081fd5b8135613553816148e7565b6000602082840312156137d2578081fd5b8151613553816148e7565b600080600080606085870312156137f2578283fd5b84356137fd816148e7565b93506020850135925060408501356001600160401b0381111561381e578283fd5b61382a87828801613766565b95989497509550505050565b60008060008060008060008060a0898b031215613851578384fd5b883561385c816148e7565b97506020890135965060408901356001600160401b038082111561387e578586fd5b61388a8c838d01613766565b909850965060608b01359150808211156138a2578586fd5b6138ae8c838d0161371e565b909650945060808b01359150808211156138c6578384fd5b506138d38b828c0161371e565b999c989b5096995094979396929594505050565b60008060008060008060008060008060c08b8d031215613905578182fd5b61390e8b613713565b995060208b0135985060408b01356001600160401b0380821115613930578384fd5b61393c8e838f01613766565b909a50985060608d0135915080821115613954578384fd5b6139608e838f0161371e565b909850965060808d0135915080821115613978578384fd5b6139848e838f0161371e565b909650945060a08d013591508082111561399c578384fd5b506139a98d828e01613766565b915080935050809150509295989b9194979a5092959850565b600080600080600080608087890312156139da578182fd5b86356139e5816148e7565b95506020870135945060408701356001600160401b0380821115613a07578384fd5b613a138a838b01613766565b90965094506060890135915080821115613a2b578384fd5b50613a3889828a01613766565b979a9699509497509295939492505050565b60006020808385031215613a5c578182fd5b82356001600160401b0380821115613a72578384fd5b818501915085601f830112613a85578384fd5b813581811115613a9757613a976148d1565b83810260405185828201018181108582111715613ab657613ab66148d1565b604052828152858101935084860182860187018a1015613ad4578788fd5b8795505b83861015613afd57613ae981613713565b855260019590950194938601938601613ad8565b5098975050505050505050565b60008060208385031215613b1c578182fd5b82356001600160401b03811115613b31578283fd5b613b3d8582860161371e565b90969095509350505050565b600060208284031215613b5a578081fd5b81518015158114613553578182fd5b600060208284031215613b7a578081fd5b5035919050565b60008060408385031215613b93578182fd5b823591506020830135613ba5816148e7565b809150509250929050565b600060208284031215613bc1578081fd5b81356001600160e01b031981168114613553578182fd5b60008060008060408587031215613bed578182fd5b84356001600160401b0380821115613c03578384fd5b613c0f88838901613766565b90965094506020870135915080821115613c27578384fd5b5061382a87828801613766565b600080600080600060a08688031215613c4b578283fd5b8535613c56816148e7565b94506020860135613c66816148e7565b93506040860135613c76816148e7565b92506060860135613c86816148e7565b91506080860135613c96816148e7565b809150509295509295909350565b60008060208385031215613cb6578182fd5b82356001600160401b03811115613ccb578283fd5b613b3d85828601613766565b600080600060408486031215613ceb578081fd5b8335925060208401356001600160401b03811115613d07578182fd5b613d1386828701613766565b9497909650939450505050565b818352602080840193600091908185020181018584845b87811015613d9d5782840389528135601e19883603018112613d57578687fd5b870180356001600160401b03811115613d6e578788fd5b803603891315613d7c578788fd5b613d898682898501613dd6565b9a87019a9550505090840190600101613d37565b5091979650505050505050565b60008151808452613dc2816020860160208601614822565b601f01601f19169290920160200192915050565b60008284528282602086013780602084860101526020601f19601f85011685010190509392505050565b91825260601b6bffffffffffffffffffffffff1916602082015260340190565b918252602082015260400190565b6000828483379101908152919050565b60008251613e50818460208701614822565b9190910192915050565b600083516020613e6d8285838901614822565b601760f91b918401918252845460019084906002810481841680613e9257607f821691505b858210811415613eb057634e487b7160e01b88526022600452602488fd5b808015613ec45760018114613ed957613f09565b60ff1984168887015282880186019450613f09565b613ee28b6147df565b895b84811015613eff5781548a8201890152908701908801613ee4565b5050858389010194505b50929a9950505050505050505050565b7f19457468657265756d205369676e6564204d6573736167653a0a3332000000008152601c810191909152603c0190565b6000697564746573746465762d60b01b82528284600a8401379101600a01908152919050565b60007f416363657373436f6e74726f6c3a206163636f756e742000000000000000000082528351613fa8816017850160208801614822565b7001034b99036b4b9b9b4b733903937b6329607d1b6017918401918201528351613fd9816028840160208801614822565b01602801949350505050565b6001600160a01b0391909116815260200190565b600060018060a01b0380881683526080602084015261401c608084018789613dd6565b818616604085015283810360608501526140368186613daa565b9998505050505050505050565b600060018060a01b038086168352606060208401526140656060840186613daa565b9150808416604084015250949350505050565b600060018060a01b0380871683526080602084015261409a6080840187613daa565b818616604085015283810360608501526140b48186613daa565b98975050505050505050565b600060018060a01b0385168252836020830152606060408301526136476060830184613daa565b600060018060a01b038916825287602083015260a0604083015261410e60a0830188613daa565b8281036060840152614121818789613d20565b90508281036080840152614136818587613d20565b9a9950505050505050505050565b600060018060a01b038a16825288602083015260c0604083015261416b60c0830189613daa565b828103606084015261417e81888a613d20565b90508281036080840152614193818688613d20565b905082810360a08401526141a78185613daa565b9b9a5050505050505050505050565b600060018060a01b0386168252846020830152608060408301526141dd6080830185613daa565b82810360608401526141ef8185613daa565b979650505050505050565b6020808252825182820181905260009190848201906040850190845b81811015614234578351151583529284019291840191600101614216565b50909695505050505050565b600060608252614254606083018789613d20565b8281036020840152614267818688613d20565b9150508260408301529695505050505050565b901515815260200190565b90815260200190565b93845260ff9290921660208401526040830152606082015260800190565b6000602082526135536020830184613daa565b6000602082526142d3602083018486613dd6565b949350505050565b60208082526018908201527f45434453413a20696e76616c6964207369676e61747572650000000000000000604082015260600190565b602080825260139082015272109b1bd8dadb1a5cdd0e88111254d050931151606a1b604082015260600190565b6020808252818101527f537472696e67733a20686578206c656e67746820696e73756666696369656e74604082015260600190565b60208082526026908201527f4d696e74696e674d616e616765723a20554e535550504f525445445f52454c416040820152651657d0d0531360d21b606082015260800190565b6020808252601f908201527f45434453413a20696e76616c6964207369676e6174757265206c656e67746800604082015260600190565b602080825260129082015271109b1bd8dadb1a5cdd0e881153905093115160721b604082015260600190565b60208082526026908201527f4f776e61626c653a206e6577206f776e657220697320746865207a65726f206160408201526564647265737360d01b606082015260800190565b6020808252601d908201527f52656c617965723a205349474e41545552455f49535f494e56414c4944000000604082015260600190565b6020808252601d908201527f4d696e746572526f6c653a2052454345495645525f49535f454d505459000000604082015260600190565b60208082526014908201527314185d5cd8589b194e881393d517d4105554d15160621b604082015260600190565b60208082526022908201527f45434453413a20696e76616c6964207369676e6174757265202773272076616c604082015261756560f01b606082015260800190565b6020808252601d908201527f4d696e74696e674d616e616765723a20544f4b454e5f424c4f434b4544000000604082015260600190565b6020808252602e908201527f496e697469616c697a61626c653a20636f6e747261637420697320616c72656160408201526d191e481a5b9a5d1a585b1a5e995960921b606082015260800190565b6020808252818101527f4d696e746572526f6c653a2043414c4c45525f49535f4e4f545f4d494e544552604082015260600190565b60208082526022908201527f45434453413a20696e76616c6964207369676e6174757265202776272076616c604082015261756560f01b606082015260800190565b60208082526024908201527f4d696e74696e674d616e616765723a205349474e45525f49535f4e4f545f4d49604082015263272a22a960e11b606082015260800190565b6020808252818101527f4f776e61626c653a2063616c6c6572206973206e6f7420746865206f776e6572604082015260600190565b6020808252601f908201527f4d696e74696e674d616e616765723a2043525950544f5f544c445f4f4e4c5900604082015260600190565b60208082526010908201526f14185d5cd8589b194e8814105554d15160821b604082015260600190565b6020808252601b908201527f4d696e74696e674d616e616765723a204c4142454c5f454d5054590000000000604082015260600190565b60208082526022908201527f4d696e74696e674d616e616765723a20544c445f4e4f545f5245474953544552604082015261115160f21b606082015260800190565b6020808252602f908201527f416363657373436f6e74726f6c3a2063616e206f6e6c792072656e6f756e636560408201526e103937b632b9903337b91039b2b63360891b606082015260800190565b60009081526020902090565b600082198211156147fe576147fe6148bb565b500190565b600081600019048311821515161561481d5761481d6148bb565b500290565b60005b8381101561483d578181015183820152602001614825565b83811115610d165750506000910152565b60008161485d5761485d6148bb565b506000190190565b60028104600182168061487957607f821691505b6020821081141561489a57634e487b7160e01b600052602260045260246000fd5b50919050565b60006000198214156148b4576148b46148bb565b5060010190565b634e487b7160e01b600052601160045260246000fd5b634e487b7160e01b600052604160045260246000fd5b6001600160a01b0381168114610ebe57600080fdfe5496787fc1ebdfeba375028c1865f13fbb1d63c0caa356ccc1b29a80f3ebd622a85b8425a460dd344a297bd4a82e287385f0fc558cb3e78867b0489f43df24709f2df0fed2c77648de5860a4cc508cd0818c85b8b8a1ab4ceeef8d981c8956a6a164736f6c6343000800000a",
  "linkReferences": {},
  "deployedLinkReferences": {}
}