{
  "_format": "hh-sol-artifact-1",
  "contractName": "MintingManager",
  "sourceName": "contracts/MintingManager.sol",
  "abi": [
    {
      "anonymous": false,
      "inputs": [
        {
          "indexed": false,
          "internalType": "address",
          "name": "previousAdmin",
          "type": "address"
        },
        {
          "indexed": false,
          "internalType": "address",
          "name": "newAdmin",
          "type": "address"
        }
      ],
      "name": "AdminChanged",
      "type": "event"
    },
    {
      "anonymous": false,
      "inputs": [
        {
          "indexed": false,
          "internalType": "uint256",
          "name": "tokenId",
          "type": "uint256"
        }
      ],
      "name": "Blocked",
      "type": "event"
    },
    {
      "anonymous": false,
      "inputs": [
        {
          "indexed": false,
          "internalType": "address",
          "name": "account",
          "type": "address"
        }
      ],
      "name": "BlocklistDisabled",
      "type": "event"
    },
    {
      "anonymous": false,
      "inputs": [
        {
          "indexed": false,
          "internalType": "address",
          "name": "account",
          "type": "address"
        }
      ],
      "name": "BlocklistEnabled",
      "type": "event"
    },
    {
      "anonymous": false,
      "inputs": [
        {
          "indexed": true,
          "internalType": "uint256",
          "name": "tokenId",
          "type": "uint256"
        },
        {
          "indexed": true,
          "internalType": "address",
          "name": "sender",
          "type": "address"
        },
        {
          "indexed": true,
          "internalType": "address",
          "name": "owner",
          "type": "address"
        },
        {
          "indexed": false,
          "internalType": "uint256",
          "name": "price",
          "type": "uint256"
        },
        {
          "indexed": false,
          "internalType": "address",
          "name": "token",
          "type": "address"
        }
      ],
      "name": "DomainPurchase",
      "type": "event"
    },
    {
      "anonymous": false,
      "inputs": [
        {
          "indexed": false,
          "internalType": "uint8",
          "name": "version",
          "type": "uint8"
        }
      ],
      "name": "Initialized",
      "type": "event"
    },
    {
      "anonymous": false,
      "inputs": [
        {
          "indexed": true,
          "internalType": "uint256",
          "name": "tokenId",
          "type": "uint256"
        },
        {
          "indexed": false,
          "internalType": "string",
          "name": "tld",
          "type": "string"
        }
      ],
      "name": "NewTld",
      "type": "event"
    },
    {
      "anonymous": false,
      "inputs": [
        {
          "indexed": true,
          "internalType": "address",
          "name": "previousOwner",
          "type": "address"
        },
        {
          "indexed": true,
          "internalType": "address",
          "name": "newOwner",
          "type": "address"
        }
      ],
      "name": "OwnershipTransferred",
      "type": "event"
    },
    {
      "anonymous": false,
      "inputs": [
        {
          "indexed": false,
          "internalType": "address",
          "name": "account",
          "type": "address"
        }
      ],
      "name": "Paused",
      "type": "event"
    },
    {
      "anonymous": false,
      "inputs": [
        {
          "indexed": true,
          "internalType": "uint256",
          "name": "tokenId",
          "type": "uint256"
        }
      ],
      "name": "RemoveTld",
      "type": "event"
    },
    {
      "anonymous": false,
      "inputs": [
        {
          "indexed": true,
          "internalType": "bytes32",
          "name": "role",
          "type": "bytes32"
        },
        {
          "indexed": true,
          "internalType": "bytes32",
          "name": "previousAdminRole",
          "type": "bytes32"
        },
        {
          "indexed": true,
          "internalType": "bytes32",
          "name": "newAdminRole",
          "type": "bytes32"
        }
      ],
      "name": "RoleAdminChanged",
      "type": "event"
    },
    {
      "anonymous": false,
      "inputs": [
        {
          "indexed": true,
          "internalType": "bytes32",
          "name": "role",
          "type": "bytes32"
        },
        {
          "indexed": true,
          "internalType": "address",
          "name": "account",
          "type": "address"
        },
        {
          "indexed": true,
          "internalType": "address",
          "name": "sender",
          "type": "address"
        }
      ],
      "name": "RoleGranted",
      "type": "event"
    },
    {
      "anonymous": false,
      "inputs": [
        {
          "indexed": true,
          "internalType": "bytes32",
          "name": "role",
          "type": "bytes32"
        },
        {
          "indexed": true,
          "internalType": "address",
          "name": "account",
          "type": "address"
        },
        {
          "indexed": true,
          "internalType": "address",
          "name": "sender",
          "type": "address"
        }
      ],
      "name": "RoleRevoked",
      "type": "event"
    },
    {
      "anonymous": false,
      "inputs": [
        {
          "indexed": false,
          "internalType": "address",
          "name": "account",
          "type": "address"
        }
      ],
      "name": "Unpaused",
      "type": "event"
    },
    {
      "anonymous": false,
      "inputs": [
        {
          "indexed": true,
          "internalType": "address",
          "name": "implementation",
          "type": "address"
        }
      ],
      "name": "Upgraded",
      "type": "event"
    },
    {
      "anonymous": false,
      "inputs": [
        {
          "indexed": false,
          "internalType": "address",
          "name": "recepient",
          "type": "address"
        },
        {
          "indexed": false,
          "internalType": "uint256",
          "name": "value",
          "type": "uint256"
        },
        {
          "indexed": false,
          "internalType": "address",
          "name": "token",
          "type": "address"
        }
      ],
      "name": "Withdrawal",
      "type": "event"
    },
    {
      "inputs": [],
      "name": "DEFAULT_ADMIN_ROLE",
      "outputs": [
        {
          "internalType": "bytes32",
          "name": "",
          "type": "bytes32"
        }
      ],
      "stateMutability": "view",
      "type": "function"
    },
    {
      "inputs": [],
      "name": "MINTER_ROLE",
      "outputs": [
        {
          "internalType": "bytes32",
          "name": "",
          "type": "bytes32"
        }
      ],
      "stateMutability": "view",
      "type": "function"
    },
    {
      "inputs": [],
      "name": "NAME",
      "outputs": [
        {
          "internalType": "string",
          "name": "",
          "type": "string"
        }
      ],
      "stateMutability": "view",
      "type": "function"
    },
    {
      "inputs": [],
      "name": "VERSION",
      "outputs": [
        {
          "internalType": "string",
          "name": "",
          "type": "string"
        }
      ],
      "stateMutability": "view",
      "type": "function"
    },
    {
      "inputs": [
        {
          "internalType": "address",
          "name": "account",
          "type": "address"
        }
      ],
      "name": "addMinter",
      "outputs": [],
      "stateMutability": "nonpayable",
      "type": "function"
    },
    {
      "inputs": [
        {
          "internalType": "address[]",
          "name": "accounts",
          "type": "address[]"
        }
      ],
      "name": "addMinters",
      "outputs": [],
      "stateMutability": "nonpayable",
      "type": "function"
    },
    {
      "inputs": [
        {
          "internalType": "address[]",
          "name": "addrs",
          "type": "address[]"
        }
      ],
      "name": "addProxyReaders",
      "outputs": [],
      "stateMutability": "nonpayable",
      "type": "function"
    },
    {
      "inputs": [
        {
          "internalType": "string",
          "name": "tld",
          "type": "string"
        },
        {
          "internalType": "bool",
          "name": "isExpirable",
          "type": "bool"
        }
      ],
      "name": "addTld",
      "outputs": [],
      "stateMutability": "nonpayable",
      "type": "function"
    },
    {
      "inputs": [
        {
          "internalType": "address",
          "name": "owner",
          "type": "address"
        },
        {
          "internalType": "string[]",
          "name": "labels",
          "type": "string[]"
        },
        {
          "internalType": "string[]",
          "name": "keys",
          "type": "string[]"
        },
        {
          "internalType": "string[]",
          "name": "values",
          "type": "string[]"
        },
        {
          "internalType": "uint64",
          "name": "expiry",
          "type": "uint64"
        },
        {
          "internalType": "uint256",
          "name": "price",
          "type": "uint256"
        },
        {
          "internalType": "bytes",
          "name": "signature",
          "type": "bytes"
        }
      ],
      "name": "buy",
      "outputs": [],
      "stateMutability": "payable",
      "type": "function"
    },
    {
      "inputs": [
        {
          "internalType": "address",
          "name": "owner",
          "type": "address"
        },
        {
          "internalType": "string[]",
          "name": "labels",
          "type": "string[]"
        },
        {
          "internalType": "string[]",
          "name": "keys",
          "type": "string[]"
        },
        {
          "internalType": "string[]",
          "name": "values",
          "type": "string[]"
        },
        {
          "internalType": "uint64",
          "name": "expiry",
          "type": "uint64"
        },
        {
          "internalType": "address",
          "name": "token",
          "type": "address"
        },
        {
          "internalType": "uint256",
          "name": "price",
          "type": "uint256"
        },
        {
          "internalType": "bytes",
          "name": "signature",
          "type": "bytes"
        }
      ],
      "name": "buyForErc20",
      "outputs": [],
      "stateMutability": "nonpayable",
      "type": "function"
    },
    {
      "inputs": [
        {
          "internalType": "uint256",
          "name": "tld",
          "type": "uint256"
        },
        {
          "internalType": "string",
          "name": "label",
          "type": "string"
        }
      ],
      "name": "claim",
      "outputs": [],
      "stateMutability": "nonpayable",
      "type": "function"
    },
    {
      "inputs": [
        {
          "internalType": "address",
          "name": "to",
          "type": "address"
        },
        {
          "internalType": "uint256",
          "name": "tld",
          "type": "uint256"
        },
        {
          "internalType": "string",
          "name": "label",
          "type": "string"
        }
      ],
      "name": "claimTo",
      "outputs": [],
      "stateMutability": "nonpayable",
      "type": "function"
    },
    {
      "inputs": [
        {
          "internalType": "address",
          "name": "to",
          "type": "address"
        },
        {
          "internalType": "uint256",
          "name": "tld",
          "type": "uint256"
        },
        {
          "internalType": "string",
          "name": "label",
          "type": "string"
        },
        {
          "internalType": "string[]",
          "name": "keys",
          "type": "string[]"
        },
        {
          "internalType": "string[]",
          "name": "values",
          "type": "string[]"
        }
      ],
      "name": "claimToWithRecords",
      "outputs": [],
      "stateMutability": "nonpayable",
      "type": "function"
    },
    {
      "inputs": [
        {
          "internalType": "address payable",
          "name": "receiver",
          "type": "address"
        }
      ],
      "name": "closeMinter",
      "outputs": [],
      "stateMutability": "payable",
      "type": "function"
    },
    {
      "inputs": [],
      "name": "cnsMintingController",
      "outputs": [
        {
          "internalType": "contract IMintingController",
          "name": "",
          "type": "address"
        }
      ],
      "stateMutability": "view",
      "type": "function"
    },
    {
      "inputs": [],
      "name": "cnsResolver",
      "outputs": [
        {
          "internalType": "contract IResolver",
          "name": "",
          "type": "address"
        }
      ],
      "stateMutability": "view",
      "type": "function"
    },
    {
      "inputs": [],
      "name": "cnsURIPrefixController",
      "outputs": [
        {
          "internalType": "contract IURIPrefixController",
          "name": "",
          "type": "address"
        }
      ],
      "stateMutability": "view",
      "type": "function"
    },
    {
      "inputs": [
        {
          "internalType": "bytes32",
          "name": "role",
          "type": "bytes32"
        }
      ],
      "name": "getRoleAdmin",
      "outputs": [
        {
          "internalType": "bytes32",
          "name": "",
          "type": "bytes32"
        }
      ],
      "stateMutability": "view",
      "type": "function"
    },
    {
      "inputs": [
        {
          "internalType": "bytes32",
          "name": "role",
          "type": "bytes32"
        },
        {
          "internalType": "address",
          "name": "account",
          "type": "address"
        }
      ],
      "name": "grantRole",
      "outputs": [],
      "stateMutability": "nonpayable",
      "type": "function"
    },
    {
      "inputs": [
        {
          "internalType": "bytes32",
          "name": "role",
          "type": "bytes32"
        },
        {
          "internalType": "address",
          "name": "account",
          "type": "address"
        }
      ],
      "name": "hasRole",
      "outputs": [
        {
          "internalType": "bool",
          "name": "",
          "type": "bool"
        }
      ],
      "stateMutability": "view",
      "type": "function"
    },
    {
      "inputs": [
        {
          "internalType": "contract IUNSRegistry",
          "name": "unsRegistry_",
          "type": "address"
        },
        {
          "internalType": "contract IMintingController",
          "name": "cnsMintingController_",
          "type": "address"
        },
        {
          "internalType": "contract IURIPrefixController",
          "name": "cnsURIPrefixController_",
          "type": "address"
        },
        {
          "internalType": "contract IResolver",
          "name": "cnsResolver_",
          "type": "address"
        },
        {
          "internalType": "address",
          "name": "unsOperator_",
          "type": "address"
        },
        {
          "internalType": "address",
          "name": "forwarder",
          "type": "address"
        }
      ],
      "name": "initialize",
      "outputs": [],
      "stateMutability": "nonpayable",
      "type": "function"
    },
    {
      "inputs": [
        {
          "internalType": "uint256",
          "name": "tokenId",
          "type": "uint256"
        }
      ],
      "name": "isBlocked",
      "outputs": [
        {
          "internalType": "bool",
          "name": "",
          "type": "bool"
        }
      ],
      "stateMutability": "view",
      "type": "function"
    },
    {
      "inputs": [
        {
          "internalType": "address",
          "name": "account",
          "type": "address"
        }
      ],
      "name": "isMinter",
      "outputs": [
        {
          "internalType": "bool",
          "name": "",
          "type": "bool"
        }
      ],
      "stateMutability": "view",
      "type": "function"
    },
    {
      "inputs": [
        {
          "internalType": "address",
          "name": "forwarder",
          "type": "address"
        }
      ],
      "name": "isTrustedForwarder",
      "outputs": [
        {
          "internalType": "bool",
          "name": "",
          "type": "bool"
        }
      ],
      "stateMutability": "view",
      "type": "function"
    },
    {
      "inputs": [
        {
          "internalType": "address",
          "name": "to",
          "type": "address"
        },
        {
          "internalType": "string[]",
          "name": "labels",
          "type": "string[]"
        },
        {
          "internalType": "string[]",
          "name": "keys",
          "type": "string[]"
        },
        {
          "internalType": "string[]",
          "name": "values",
          "type": "string[]"
        },
        {
          "internalType": "uint64",
          "name": "expiry",
          "type": "uint64"
        },
        {
          "internalType": "bool",
          "name": "withReverse",
          "type": "bool"
        }
      ],
      "name": "issueExpirableWithRecords",
      "outputs": [],
      "stateMutability": "nonpayable",
      "type": "function"
    },
    {
      "inputs": [
        {
          "internalType": "address",
          "name": "to",
          "type": "address"
        },
        {
          "internalType": "string[]",
          "name": "labels",
          "type": "string[]"
        },
        {
          "internalType": "string[]",
          "name": "keys",
          "type": "string[]"
        },
        {
          "internalType": "string[]",
          "name": "values",
          "type": "string[]"
        },
        {
          "internalType": "bool",
          "name": "withReverse",
          "type": "bool"
        }
      ],
      "name": "issueWithRecords",
      "outputs": [],
      "stateMutability": "nonpayable",
      "type": "function"
    },
    {
      "inputs": [],
      "name": "owner",
      "outputs": [
        {
          "internalType": "address",
          "name": "",
          "type": "address"
        }
      ],
      "stateMutability": "view",
      "type": "function"
    },
    {
      "inputs": [],
      "name": "pause",
      "outputs": [],
      "stateMutability": "nonpayable",
      "type": "function"
    },
    {
      "inputs": [],
      "name": "paused",
      "outputs": [
        {
          "internalType": "bool",
          "name": "",
          "type": "bool"
        }
      ],
      "stateMutability": "view",
      "type": "function"
    },
    {
      "inputs": [
        {
          "internalType": "address",
          "name": "account",
          "type": "address"
        }
      ],
      "name": "removeMinter",
      "outputs": [],
      "stateMutability": "nonpayable",
      "type": "function"
    },
    {
      "inputs": [
        {
          "internalType": "address[]",
          "name": "accounts",
          "type": "address[]"
        }
      ],
      "name": "removeMinters",
      "outputs": [],
      "stateMutability": "nonpayable",
      "type": "function"
    },
    {
      "inputs": [
        {
          "internalType": "uint256",
          "name": "tld",
          "type": "uint256"
        }
      ],
      "name": "removeTld",
      "outputs": [],
      "stateMutability": "nonpayable",
      "type": "function"
    },
    {
      "inputs": [
        {
          "internalType": "uint64",
          "name": "expiry",
          "type": "uint64"
        },
        {
          "internalType": "uint256",
          "name": "tokenId",
          "type": "uint256"
        }
      ],
      "name": "renew",
      "outputs": [],
      "stateMutability": "nonpayable",
      "type": "function"
    },
    {
      "inputs": [],
      "name": "renounceMinter",
      "outputs": [],
      "stateMutability": "nonpayable",
      "type": "function"
    },
    {
      "inputs": [],
      "name": "renounceOwnership",
      "outputs": [],
      "stateMutability": "nonpayable",
      "type": "function"
    },
    {
      "inputs": [
        {
          "internalType": "bytes32",
          "name": "role",
          "type": "bytes32"
        },
        {
          "internalType": "address",
          "name": "account",
          "type": "address"
        }
      ],
      "name": "renounceRole",
      "outputs": [],
      "stateMutability": "nonpayable",
      "type": "function"
    },
    {
      "inputs": [
        {
          "internalType": "uint256",
          "name": "tokenId",
          "type": "uint256"
        }
      ],
      "name": "revoke",
      "outputs": [],
      "stateMutability": "nonpayable",
      "type": "function"
    },
    {
      "inputs": [
        {
          "internalType": "bytes32",
          "name": "role",
          "type": "bytes32"
        },
        {
          "internalType": "address",
          "name": "account",
          "type": "address"
        }
      ],
      "name": "revokeRole",
      "outputs": [],
      "stateMutability": "nonpayable",
      "type": "function"
    },
    {
      "inputs": [
        {
          "internalType": "address payable",
          "name": "receiver",
          "type": "address"
        }
      ],
      "name": "rotateMinter",
      "outputs": [],
      "stateMutability": "payable",
      "type": "function"
    },
    {
      "inputs": [
        {
          "internalType": "address",
          "name": "forwarder",
          "type": "address"
        }
      ],
      "name": "setForwarder",
      "outputs": [],
      "stateMutability": "nonpayable",
      "type": "function"
    },
    {
      "inputs": [
        {
          "internalType": "address",
          "name": "operator",
          "type": "address"
        }
      ],
      "name": "setOperator",
      "outputs": [],
      "stateMutability": "nonpayable",
      "type": "function"
    },
    {
      "inputs": [
        {
          "internalType": "string",
          "name": "prefix",
          "type": "string"
        }
      ],
      "name": "setTokenURIPrefix",
      "outputs": [],
      "stateMutability": "nonpayable",
      "type": "function"
    },
    {
      "inputs": [
        {
          "internalType": "bytes4",
          "name": "interfaceId",
          "type": "bytes4"
        }
      ],
      "name": "supportsInterface",
      "outputs": [
        {
          "internalType": "bool",
          "name": "",
          "type": "bool"
        }
      ],
      "stateMutability": "view",
      "type": "function"
    },
    {
      "inputs": [
        {
          "internalType": "address",
          "name": "newOwner",
          "type": "address"
        }
      ],
      "name": "transferOwnership",
      "outputs": [],
      "stateMutability": "nonpayable",
      "type": "function"
    },
    {
      "inputs": [],
      "name": "unpause",
      "outputs": [],
      "stateMutability": "nonpayable",
      "type": "function"
    },
    {
      "inputs": [],
      "name": "unsOperator",
      "outputs": [
        {
          "internalType": "address",
          "name": "",
          "type": "address"
        }
      ],
      "stateMutability": "view",
      "type": "function"
    },
    {
      "inputs": [],
      "name": "unsRegistry",
      "outputs": [
        {
          "internalType": "contract IUNSRegistry",
          "name": "",
          "type": "address"
        }
      ],
      "stateMutability": "view",
      "type": "function"
    },
    {
      "inputs": [
        {
          "internalType": "address",
          "name": "recepient",
          "type": "address"
        }
      ],
      "name": "withdraw",
      "outputs": [],
      "stateMutability": "nonpayable",
      "type": "function"
    },
    {
      "inputs": [
        {
          "internalType": "address",
          "name": "token",
          "type": "address"
        },
        {
          "internalType": "address",
          "name": "recepient",
          "type": "address"
        }
      ],
      "name": "withdraw",
      "outputs": [],
      "stateMutability": "nonpayable",
      "type": "function"
    }
  ],
  "bytecode": "0x608060405234801561000f575f80fd5b50614d348061001d5f395ff3fe6080604052600436106102a5575f3560e01c8063906cecc11161016f578063b9998a24116100d8578063d547741f11610092578063f2fde38b1161006d578063f2fde38b1461085b578063f5243bc41461087a578063f940e38514610899578063ffa1ad74146108b8575f80fd5b8063d547741f1461080a578063d7db74c714610829578063ec5273891461083c575f80fd5b8063b9998a241461074f578063cc2a9a5b1461076e578063cc2c3fc41461078d578063ceeb4f50146107ac578063d1f5692c146107cb578063d5391393146107ea575f80fd5b8063a3a3f7f611610129578063a3a3f7f614610668578063a3f4df7e14610687578063a849d65c146106d3578063aa271e1a146106f2578063b0aa98c714610711578063b3ab15fb14610730575f80fd5b8063906cecc1146105c557806391d14854146105e4578063983b2d5614610603578063986502751461062257806399e0dd7c14610636578063a217fddf14610655575f80fd5b80635b6fa8db11610211578063715018a6116101cb578063715018a61461052f57806371e2a6571461054357806377a2a5891461056257806381c81d35146105815780638456cb59146105945780638da5cb5b146105a8575f80fd5b80635b6fa8db1461048c5780635c975abb146104ab5780635cd7e3b3146104bf5780635e22cd86146104de5780635fc1964f146104fd578063634486da1461051c575f80fd5b80633092afd5116102625780633092afd51461039757806336568abe146103b65780633f41b614146103d55780633f4ba83a1461040c57806351cff8d914610420578063572b6c051461043f575f80fd5b806301ffc9a7146102a95780631edb948e146102dd57806320c5429b146102fe578063248a9ca31461031d578063268b15ed146103595780632f2ff15d14610378575b5f80fd5b3480156102b4575f80fd5b506102c86102c3366004613c82565b6108e8565b60405190151581526020015b60405180910390f35b3480156102e8575f80fd5b506102fc6102f7366004613ccd565b61091e565b005b348015610309575f80fd5b506102fc610318366004613cf7565b610abe565b348015610328575f80fd5b5061034b610337366004613cf7565b5f9081526097602052604090206001015490565b6040519081526020016102d4565b348015610364575f80fd5b506102fc610373366004613d4b565b610bd9565b348015610383575f80fd5b506102fc610392366004613db1565b610c6a565b3480156103a2575f80fd5b506102fc6103b1366004613ddf565b610c93565b3480156103c1575f80fd5b506102fc6103d0366004613db1565b610ca7565b3480156103e0575f80fd5b5060c9546103f4906001600160a01b031681565b6040516001600160a01b0390911681526020016102d4565b348015610417575f80fd5b506102fc610d35565b34801561042b575f80fd5b506102fc61043a366004613ddf565b610d47565b34801561044a575f80fd5b506102c8610459366004613ddf565b7f893ef2ea16c023f61d4f55d3e6ee3fc3f2fbfd478461323dbc2fbf919047086e546001600160a01b0390811691161490565b348015610497575f80fd5b5060cc546103f4906001600160a01b031681565b3480156104b6575f80fd5b506102c8610de2565b3480156104ca575f80fd5b506102fc6104d9366004613e47565b610df7565b3480156104e9575f80fd5b506102fc6104f8366004613efe565b611052565b348015610508575f80fd5b506102fc61051736600461402c565b611291565b6102fc61052a366004613ddf565b6112ce565b34801561053a575f80fd5b506102fc61138e565b34801561054e575f80fd5b506102fc61055d36600461402c565b61139f565b34801561056d575f80fd5b5060ce546103f4906001600160a01b031681565b6102fc61058f366004613ddf565b6113dc565b34801561059f575f80fd5b506102fc611459565b3480156105b3575f80fd5b506033546001600160a01b03166103f4565b3480156105d0575f80fd5b506102fc6105df3660046140c5565b611469565b3480156105ef575f80fd5b506102c86105fe366004613db1565b6114ee565b34801561060e575f80fd5b506102fc61061d366004613ddf565b611518565b34801561062d575f80fd5b506102fc611529565b348015610641575f80fd5b506102fc61065036600461411c565b611542565b348015610660575f80fd5b5061034b5f81565b348015610673575f80fd5b506102fc61068236600461415a565b61161f565b348015610692575f80fd5b506106c6604051806040016040528060148152602001732aa7299d1026b4b73a34b7339026b0b730b3b2b960611b81525081565b6040516102d491906141f9565b3480156106de575f80fd5b5060cb546103f4906001600160a01b031681565b3480156106fd575f80fd5b506102c861070c366004613ddf565b611667565b34801561071c575f80fd5b506102c861072b366004613cf7565b61167f565b34801561073b575f80fd5b506102fc61074a366004613ddf565b6116dc565b34801561075a575f80fd5b506102fc610769366004613ddf565b611706565b348015610779575f80fd5b506102fc61078836600461420b565b61174b565b348015610798575f80fd5b5060ca546103f4906001600160a01b031681565b3480156107b7575f80fd5b506102fc6107c6366004614289565b611c30565b3480156107d6575f80fd5b506102fc6107e5366004614336565b611cd2565b3480156107f5575f80fd5b5061034b5f80516020614d0883398151915281565b348015610815575f80fd5b506102fc610824366004613db1565b611d7c565b6102fc610837366004614368565b611da0565b348015610847575f80fd5b506102fc610856366004613cf7565b611f28565b348015610866575f80fd5b506102fc610875366004613ddf565b611f98565b348015610885575f80fd5b506102fc610894366004614452565b611fb3565b3480156108a4575f80fd5b506102fc6108b336600461455f565b61215f565b3480156108c3575f80fd5b506106c660405180604001604052806005815260200164302e352e3160d81b81525081565b5f6001600160e01b03198216637965db0b60e01b148061091857506301ffc9a760e01b6001600160e01b03198316145b92915050565b61092961070c6122d5565b61094e5760405162461bcd60e51b81526004016109459061458b565b60405180910390fd5b60c95460405163baef73e960e01b8152600481018390525f916001600160a01b03169063baef73e990602401602060405180830381865afa158015610995573d5f803e3d5ffd5b505050506040513d601f19601f820116820180604052508101906109b991906145c0565b9050806001600160401b03165f036109e35760405162461bcd60e51b8152600401610945906145db565b806001600160401b0316836001600160401b031611610a505760405162461bcd60e51b815260206004820152602360248201527f4d696e74696e674d616e616765723a204558504952595f4e4f545f455854454e60448201526211115160ea1b6064820152608401610945565b60c954604051631fb9763760e11b81526001600160401b0385166004820152602481018490526001600160a01b0390911690633f72ec6e906044015b5f604051808303815f87803b158015610aa3575f80fd5b505af1158015610ab5573d5f803e3d5ffd5b50505050505050565b610ac961070c6122d5565b610ae55760405162461bcd60e51b81526004016109459061458b565b60c95460405163baef73e960e01b8152600481018390526001600160a01b039091169063baef73e990602401602060405180830381865afa158015610b2c573d5f803e3d5ffd5b505050506040513d601f19601f82011682018060405250810190610b5091906145c0565b6001600160401b03165f03610b775760405162461bcd60e51b8152600401610945906145db565b60c954604051637eee288d60e01b8152306004820152602481018390526001600160a01b0390911690637eee288d906044015f604051808303815f87803b158015610bc0575f80fd5b505af1158015610bd2573d5f803e3d5ffd5b5050505050565b8282828080601f0160208091040260200160405190810160405280939291908181526020018383808284375f920182905250610c1b93508592508491506122e3565b610c23610de2565b15610c405760405162461bcd60e51b81526004016109459061461e565b6060610ab5610c4d6122d5565b610c6088610c5b89896124b5565b6124e1565b83845f60016125ec565b5f82815260976020526040902060010154610c8481612b1b565b610c8e8383612b2c565b505050565b610c9b612bb2565b610ca481612c2b565b50565b610caf6122d5565b6001600160a01b0316816001600160a01b031614610d275760405162461bcd60e51b815260206004820152602f60248201527f416363657373436f6e74726f6c3a2063616e206f6e6c792072656e6f756e636560448201526e103937b632b9903337b91039b2b63360891b6064820152608401610945565b610d318282612c42565b5050565b610d3d612bb2565b610d45612cc6565b565b610d4f612bb2565b6001600160a01b038116610d61575f80fd5b60405147906001600160a01b0383169082156108fc029083905f818181858888f19350505050158015610d96573d5f803e3d5ffd5b50604080516001600160a01b0384168152602081018390525f8183015290517e1a143d5b175701cb3246058ffac3d63945192075a926ff73a19930f09d587a9181900360600190a15050565b5f80516020614ce88339815191525460ff1690565b610e018688614648565b8051600203610e3657610e1561070c6122d5565b610e315760405162461bcd60e51b815260040161094590614707565b610f76565b5f610e4082612d6d565b60c9549092506001600160a01b0316905063430c2081610e5e6122d5565b6040516001600160e01b031960e084901b1681526001600160a01b03909116600482015260248101849052604401602060405180830381865afa158015610ea7573d5f803e3d5ffd5b505050506040513d601f19601f82011682018060405250810190610ecb919061474b565b80610f58575060c95460ce5460405163430c208160e01b81526001600160a01b0391821660048201526024810184905291169063430c208190604401602060405180830381865afa158015610f22573d5f803e3d5ffd5b505050506040513d601f19601f82011682018060405250810190610f46919061474b565b8015610f585750610f5861070c6122d5565b610f745760405162461bcd60e51b815260040161094590614766565b505b610f808789614648565b5f600282511015610fa35760405162461bcd60e51b8152600401610945906147b5565b610ff6610fd65f8460018651610fb9919061480e565b81518110610fc957610fc9614821565b6020026020010151612da7565b835f81518110610fe857610fe8614821565b6020026020010151836122e3565b610ffe610de2565b1561101b5760405162461bcd60e51b81526004016109459061461e565b6110448b6110298b8d614648565b6110338a8c614648565b61103d898b614648565b5f896125ec565b505050505050505050505050565b61105c8789614648565b80516002036110915761107061070c6122d5565b61108c5760405162461bcd60e51b815260040161094590614707565b6111d1565b5f61109b82612d6d565b60c9549092506001600160a01b0316905063430c20816110b96122d5565b6040516001600160e01b031960e084901b1681526001600160a01b03909116600482015260248101849052604401602060405180830381865afa158015611102573d5f803e3d5ffd5b505050506040513d601f19601f82011682018060405250810190611126919061474b565b806111b3575060c95460ce5460405163430c208160e01b81526001600160a01b0391821660048201526024810184905291169063430c208190604401602060405180830381865afa15801561117d573d5f803e3d5ffd5b505050506040513d601f19601f820116820180604052508101906111a1919061474b565b80156111b357506111b361070c6122d5565b6111cf5760405162461bcd60e51b815260040161094590614766565b505b6111db888a614648565b836002825110156111fe5760405162461bcd60e51b8152600401610945906147b5565b611214610fd65f8460018651610fb9919061480e565b61121c610de2565b156112395760405162461bcd60e51b81526004016109459061461e565b60028a146112595760405162461bcd60e51b815260040161094590614835565b6112828c6112678c8e614648565b6112718b8d614648565b61127b8a8c614648565b89896125ec565b50505050505050505050505050565b611299612bb2565b5f5b8151811015610d31576112c68282815181106112b9576112b9614821565b6020026020010151612c2b565b60010161129b565b6112d961070c6122d5565b6112f55760405162461bcd60e51b81526004016109459061458b565b6001600160a01b03811661134b5760405162461bcd60e51b815260206004820152601d60248201527f4d696e746572526f6c653a2052454345495645525f49535f454d5054590000006044820152606401610945565b61135481612e59565b61135c611529565b6040516001600160a01b038216903480156108fc02915f818181858888f19350505050158015610d31573d5f803e3d5ffd5b611396612bb2565b610d455f612e70565b6113a7612bb2565b5f5b8151811015610d31576113d48282815181106113c7576113c7614821565b6020026020010151612e59565b6001016113a9565b6113e761070c6122d5565b6114035760405162461bcd60e51b81526004016109459061458b565b6001600160a01b0381166113545760405162461bcd60e51b815260206004820152601d60248201527f4d696e746572526f6c653a2052454345495645525f49535f454d5054590000006044820152606401610945565b611461612bb2565b610d45612ec1565b8282828080601f0160208091040260200160405190810160405280939291908181526020018383808284375f9201829052506114ab93508592508491506122e3565b6114b3610de2565b156114d05760405162461bcd60e51b81526004016109459061461e565b60606114e487610c6088610c5b89896124b5565b5050505050505050565b5f9182526097602090815260408084206001600160a01b0393909316845291905290205460ff1690565b611520612bb2565b610ca481612e59565b610d455f80516020614d088339815191526103d06122d5565b61154a612bb2565b60c954604051632678375f60e21b81526001600160a01b03909116906399e0dd7c9061157c908590859060040161487b565b5f604051808303815f87803b158015611593575f80fd5b505af11580156115a5573d5f803e3d5ffd5b505060cb546001600160a01b0316159150610d3190505760cb54604051632678375f60e21b81526001600160a01b03909116906399e0dd7c906115ee908590859060040161487b565b5f604051808303815f87803b158015611605575f80fd5b505af1158015611617573d5f803e3d5ffd5b505050505050565b611627612bb2565b610c8e83838080601f0160208091040260200160405190810160405280939291908181526020018383808284375f92019190915250859250612f28915050565b5f6109185f80516020614d08833981519152836114ee565b604080517f1ec047073e2c8b15660901dbfdb6e3ff6365bd699dd9f95dcc6eab5448bebd6960208201529081018290525f906116d2906060015b6040516020818303038152906040528051906020012090565b5460ff1692915050565b6116e4612bb2565b60ce80546001600160a01b0319166001600160a01b0392909216919091179055565b61170e612bb2565b7f893ef2ea16c023f61d4f55d3e6ee3fc3f2fbfd478461323dbc2fbf919047086e80546001600160a01b0319166001600160a01b03831617905550565b5f54610100900460ff161580801561176957505f54600160ff909116105b806117825750303b15801561178257505f5460ff166001145b6117e55760405162461bcd60e51b815260206004820152602e60248201527f496e697469616c697a61626c653a20636f6e747261637420697320616c72656160448201526d191e481a5b9a5d1a585b1a5e995960921b6064820152608401610945565b5f805460ff191660011790558015611806575f805461ff0019166101001790555b60c980546001600160a01b03199081166001600160a01b038a81169190911790925560ca8054821689841617905560cb8054821688841617905560cc8054821687841617905560ce8054909116918516919091179055611864613042565b61186c613078565b611875826130af565b61187d6130d5565b6040805161036081018252600661032082018181526563727970746f60d01b610340840152825282518084018452818152651dd85b1b195d60d21b602082810191909152808401919091528351808501855260018152600f60fb1b8183015283850152835180850185526003808252621b999d60ea1b82840152606085019190915284518086018652600a815269313637b1b5b1b430b4b760b11b818401526080850152845180860186526007808252663134ba31b7b4b760c91b8285015260a0860191909152855180870187528281526207070760eb1b8185015260c0860152855180870187528281526264616f60e81b8185015260e086015285518087018752828152621e9a5b60ea1b8185015261010086015285518087018752908152663837b63cb3b7b760c91b8184015261012085015284518086018652600b81526a756e73746f707061626c6560a81b81840152610140850152845180860186528381526535b632bb32b960d11b8184015261016085015284518086018652600280825261686960f01b8285015261018086019190915285518087018752848152656b726573757360d01b818501526101a086015285518087018752600580825264616e696d6560d81b828601526101c087019190915286518088018852818152646d616e676160d81b818601526101e087015286518088018852600981526862696e616e6365757360b81b8186015261020087015286518088018852818152647265616c6d60d81b818601526102208701528651808801885291825261676f60f01b82850152610240860191909152855180870187526008815267185b1d1a5b5a5cdd60c21b818501526102608601528551808701875290815264707564677960d81b81840152610280850152845180860186528381526530bab9ba34b760d11b818401526102a08501528451808601865292835265189a5d19d95d60d21b838301526102c08401929092528351808501855291825262706f6760e81b828201526102e083019190915282518084019093526004835263636c617960e01b908301526103008101919091525f5b6019811015611bbb57611bb3828260198110611ba857611ba8614821565b60200201515f612f28565b600101611b8a565b50611be260405180604001604052806003815260200162636f6d60e81b8152506001612f28565b508015610ab5575f805461ff0019169055604051600181527f7f26b83ff96e1f2b6a682f133852f6798a09c465da95921460cefb38474024989060200160405180910390a150505050505050565b8686868080601f0160208091040260200160405190810160405280939291908181526020018383808284375f920182905250611c7293508592508491506122e3565b611c7a610de2565b15611c975760405162461bcd60e51b81526004016109459061461e565b611cc58a611ca98b610c5b8c8c6124b5565b611cb3888a614648565b611cbd8789614648565b5f60016125ec565b5050505050505050505050565b611cda612bb2565b5f5b81811015610c8e5760c9546001600160a01b03166350960239848484818110611d0757611d07614821565b9050602002016020810190611d1c9190613ddf565b6040516001600160e01b031960e084901b1681526001600160a01b0390911660048201526024015f604051808303815f87803b158015611d5a575f80fd5b505af1158015611d6c573d5f803e3d5ffd5b505060019092019150611cdc9050565b5f82815260976020526040902060010154611d9681612b1b565b610c8e8383612c42565b611daa898b614648565b5f600282511015611dcd5760405162461bcd60e51b8152600401610945906147b5565b611de3610fd65f8460018651610fb9919061480e565b611deb610de2565b15611e085760405162461bcd60e51b81526004016109459061461e565b60028b14611e285760405162461bcd60e51b815260040161094590614835565b611e6c8d8d8d89895f8a8a8080601f0160208091040260200160405190810160405280939291908181526020018383808284375f9201919091525061311392505050565b84341015611ebc5760405162461bcd60e51b815260206004820181905260248201527f4d696e74696e674d616e616765723a204e4f545f454e4f5547485f46554e44536044820152606401610945565b611ecd8d8d8d8d8d8d8d8c5f6132d0565b8434111561128257611edd6122d5565b6001600160a01b03166108fc611ef3873461480e565b6040518115909202915f818181858888f19350505050158015611f18573d5f803e3d5ffd5b5050505050505050505050505050565b611f30612bb2565b611f398161338a565b611f555760405162461bcd60e51b8152600401610945906148a9565b5f81815260cd60205260408120611f6b91613c38565b60405181907f0aa1aff0f830e739d86baf0e6624d6763da02f7733575e0e463886cd062dea6a905f90a250565b611fa0612bb2565b611fa9816133af565b610ca45f82613425565b611fbd8a8c614648565b5f600282511015611fe05760405162461bcd60e51b8152600401610945906147b5565b611ff6610fd65f8460018651610fb9919061480e565b611ffe610de2565b1561201b5760405162461bcd60e51b81526004016109459061461e565b60028c1461203b5760405162461bcd60e51b815260040161094590614835565b61207f8e8e8e8a898b8a8a8080601f0160208091040260200160405190810160405280939291908181526020018383808284375f9201919091525061311392505050565b856001600160a01b03166323b872dd6120966122d5565b6040516001600160e01b031960e084901b1681526001600160a01b039091166004820152306024820152604481018890526064016020604051808303815f875af11580156120e6573d5f803e3d5ffd5b505050506040513d601f19601f8201168201806040525081019061210a919061474b565b61214e5760405162461bcd60e51b8152602060048201526015602482015274115490cc8c0e881313d5d7d31155915317d1905253605a1b6044820152606401610945565b611f188e8e8e8e8e8e8e8c8e6132d0565b612167612bb2565b6040516370a0823160e01b81523060048201525f906001600160a01b038416906370a0823190602401602060405180830381865afa1580156121ab573d5f803e3d5ffd5b505050506040513d601f19601f820116820180604052508101906121cf91906148eb565b60405163a9059cbb60e01b81526001600160a01b038481166004830152602482018390529192509084169063a9059cbb906044016020604051808303815f875af115801561221f573d5f803e3d5ffd5b505050506040513d601f19601f82011682018060405250810190612243919061474b565b6122875760405162461bcd60e51b8152602060048201526015602482015274115490cc8c0e881313d5d7d31155915317d1905253605a1b6044820152606401610945565b604080516001600160a01b0384811682526020820184905285168183015290517e1a143d5b175701cb3246058ffac3d63945192075a926ff73a19930f09d587a9181900360600190a1505050565b5f6122de61342f565b905090565b6122ec8361338a565b6123085760405162461bcd60e51b8152600401610945906148a9565b5f83815260cf602052604090205460ff1615156001600160401b0382161515146123835760405162461bcd60e51b815260206004820152602660248201527f4d696e74696e674d616e616765723a20544c445f455850495241424c455f4d496044820152650a69a82a886960d31b6064820152608401610945565b5f6123b4836040805180820182525f8082526020918201528151808301909252825182529182019181019190915290565b9050600a815f0151111561245a576123dd6123d1825f600a613474565b80516020909101512090565b7fb551e0305c8163b812374b8e78b577c77f226f6f10c5ad03e52699578fbc34b80361245a5760405162461bcd60e51b815260206004820152602660248201527f4d696e74696e674d616e616765723a20544f4b454e5f4c4142454c5f50524f4860448201526512509255115160d21b6064820152608401610945565b612463836134b2565b6124af5760405162461bcd60e51b815260206004820152601d60248201527f4d696e74696e674d616e616765723a204c4142454c5f494e56414c49440000006044820152606401610945565b50505050565b606082826040516020016124ca929190614902565b604051602081830303815290604052905092915050565b60408051600280825260608281019093525f9190816020015b60608152602001906001900390816124fa57905050905082815f8151811061252457612524614821565b602002602001018190525060cd5f8581526020019081526020015f20805461254b90614929565b80601f016020809104026020016040519081016040528092919081815260200182805461257790614929565b80156125c25780601f10612599576101008083540402835291602001916125c2565b820191905f5260205f20905b8154815290600101906020018083116125a557829003601f168201915b5050505050816001815181106125da576125da614821565b60209081029190910101529392505050565b5f805f6125f888612d6d565b9150915083801561260a575060028851115b801561268a575060c9546040516331a9108f60e11b8152600481018390526001600160a01b038b8116921690636352211e90602401602060405180830381865afa15801561265a573d5f803e3d5ffd5b505050506040513d601f19601f8201168201806040525081019061267e9190614961565b6001600160a01b031614155b156126ea5760405162461bcd60e51b815260206004820152602a60248201527f4d696e74696e674d616e616765723a20524556455253455f5245434f52445f4e60448201526913d517d0531313d5d15160b21b6064820152608401610945565b60c954604051634f558e7960e01b8152600481018490526001600160a01b0390911690634f558e7990602401602060405180830381865afa158015612731573d5f803e3d5ffd5b505050506040513d601f19601f82011682018060405250810190612755919061474b565b8015612842575060c9546040516331a9108f60e11b81526004810184905230916001600160a01b031690636352211e90602401602060405180830381865afa1580156127a3573d5f803e3d5ffd5b505050506040513d601f19601f820116820180604052508101906127c79190614961565b6001600160a01b03161480612842575060c95460405163d9548e5360e01b8152600481018490526001600160a01b039091169063d9548e5390602401602060405180830381865afa15801561281e573d5f803e3d5ffd5b505050506040513d601f19601f82011682018060405250810190612842919061474b565b15612929576001600160401b038516156128bf5760c954604051631fb9763760e11b81526001600160401b0387166004820152602481018490526001600160a01b0390911690633f72ec6e906044015f604051808303815f87803b1580156128a8575f80fd5b505af11580156128ba573d5f803e3d5ffd5b505050505b60c954604051630fb8df0360e11b81526001600160a01b0390911690631f71be06906128f7908c908c908c908c908b906004016149d4565b5f604051808303815f87803b15801561290e575f80fd5b505af1158015612920573d5f803e3d5ffd5b50505050612b0f565b61293282613606565b61293b88613665565b8015612948575087516002145b801561295b57506001600160401b038516155b15612a325760ca5488516001600160a01b039091169063c36c2125908b908b905f9061298957612989614821565b602090810291909101015160cc546040516001600160e01b031960e086901b1681526129c39392916001600160a01b031690600401614a32565b5f604051808303815f87803b1580156129da575f80fd5b505af11580156129ec573d5f803e3d5ffd5b505050505f87511115612a2d5760cc54604051633a0deb9d60e21b81526001600160a01b039091169063e837ae74906128f7908a908a908790600401614a66565b612b0f565b60c95460405163ba5d40b760e01b81526001600160a01b039091169063ba5d40b790612a6a908c908c908c908c908b906004016149d4565b5f604051808303815f87803b158015612a81575f80fd5b505af1158015612a93573d5f803e3d5ffd5b505050506001600160401b03851615612b0f5760c954604051631fb9763760e11b81526001600160401b0387166004820152602481018490526001600160a01b0390911690633f72ec6e906044015f604051808303815f87803b158015612af8575f80fd5b505af1158015612b0a573d5f803e3d5ffd5b505050505b50979650505050505050565b610ca481612b276122d5565b6136bd565b612b3682826114ee565b610d31575f8281526097602090815260408083206001600160a01b03851684529091529020805460ff19166001179055612b6e6122d5565b6001600160a01b0316816001600160a01b0316837f2f8788117e7eff1d82e926ec794901d17c78024a50270940304540a733656f0d60405160405180910390a45050565b612bba6122d5565b6001600160a01b0316612bd56033546001600160a01b031690565b6001600160a01b031614610d455760405162461bcd60e51b815260206004820181905260248201527f4f776e61626c653a2063616c6c6572206973206e6f7420746865206f776e65726044820152606401610945565b610ca45f80516020614d0883398151915282611d7c565b612c4c82826114ee565b15610d31575f8281526097602090815260408083206001600160a01b03851684529091529020805460ff19169055612c826122d5565b6001600160a01b0316816001600160a01b0316837ff6391f5c32d9c69d2a47ea670b442974b53935d1edc7fd64eb21e047a839171b60405160405180910390a45050565b612cce610de2565b612d115760405162461bcd60e51b815260206004820152601460248201527314185d5cd8589b194e881393d517d4105554d15160621b6044820152606401610945565b5f80516020614ce8833981519152805460ff191690557f5db9ee0a495bf2e6ff9c91a7834c1ba4fdd244a5e8aa4e537bd38aeae4b073aa612d506122d5565b6040516001600160a01b03909116815260200160405180910390a1565b80515f9081905b8015612da157829150612d8d8285610fb960018561480e565b925080612d9981614a9b565b915050612d74565b50915091565b5f81515f03612df85760405162461bcd60e51b815260206004820152601b60248201527f4d696e74696e674d616e616765723a204c4142454c5f454d50545900000000006044820152606401610945565b8282604051602001612e0a9190614ab0565b60405160208183030381529060405280519060200120604051602001612e3a929190918252602082015260400190565b60408051601f1981840301815291905280516020909101209392505050565b610ca45f80516020614d0883398151915282613425565b603380546001600160a01b038381166001600160a01b0319831681179093556040519116919082907f8be0079c531659141344cd1fd0a4f28419497f9722a3daafe3b4186f6b6457e0905f90a35050565b612ec9610de2565b15612ee65760405162461bcd60e51b81526004016109459061461e565b5f80516020614ce8833981519152805460ff191660011790557f62e78cea01bee320cd4e420270b5ea74000d11b0c9f74754ebdbfc544b05a258612d506122d5565b5f612f335f84612da7565b5f81815260cd60205260409020909150612f4d8482614b0f565b505f81815260cf602052604090819020805460ff19168415151790555181907f4fce6f6e172b04eaa80325d8e3b0180a34945000f3e214605039e8420fdf898090612f999086906141f9565b60405180910390a260c954604051634f558e7960e01b8152600481018390526001600160a01b0390911690634f558e7990602401602060405180830381865afa158015612fe8573d5f803e3d5ffd5b505050506040513d601f19601f8201168201806040525081019061300c919061474b565b610c8e5760c9546040516307befae360e51b81526001600160a01b039091169063f7df5c6090610a8c9084908790600401614bca565b5f54610100900460ff166130685760405162461bcd60e51b815260040161094590614bea565b610d456130736122d5565b612e70565b5f54610100900460ff1661309e5760405162461bcd60e51b815260040161094590614bea565b610d455f6130aa6122d5565b613425565b5f54610100900460ff1661170e5760405162461bcd60e51b815260040161094590614bea565b5f54610100900460ff166130fb5760405162461bcd60e51b815260040161094590614bea565b5f80516020614ce8833981519152805460ff19169055565b5f6131266131218789614648565b612d6d565b506040516bffffffffffffffffffffffff1930606090811b821660208401524660348401528b811b82166054840152606883018490526001600160c01b031960c08a901b1660888401526090830188905286901b1660b08201529091505f906132009084906131fa9060c401604051602081830303815290604052805190602001206040517f19457468657265756d205369676e6564204d6573736167653a0a3332000000006020820152603c81018290525f90605c01604051602081830303815290604052805190602001209050919050565b90613721565b905061320b81611667565b6132635760405162461bcd60e51b8152602060048201526024808201527f4d696e74696e674d616e616765723a205349474e45525f49535f4e4f545f4d49604482015263272a22a960e11b6064820152608401610945565b42866001600160401b0316116132c55760405162461bcd60e51b815260206004820152602160248201527f4d696e74696e674d616e616765723a20455850495245445f5349474e415455526044820152604560f81b6064820152608401610945565b505050505050505050565b5f6133158a6132df8a8c614648565b6132e9898b614648565b6132f3888a614648565b5f8f6001600160a01b03166133066122d5565b6001600160a01b0316146125ec565b9050896001600160a01b03166133296122d5565b6001600160a01b0316827fa545b6fd3355e8d57f8c8147bafe740545bd3ea1f94bef2576a6d532a7c3b60586866040516133769291909182526001600160a01b0316602082015260400190565b60405180910390a450505050505050505050565b5f81815260cd6020526040812080548291906133a590614929565b9050119050919050565b6133b7612bb2565b6001600160a01b03811661341c5760405162461bcd60e51b815260206004820152602660248201527f4f776e61626c653a206e6577206f776e657220697320746865207a65726f206160448201526564647265737360d01b6064820152608401610945565b610ca481612e70565b610d318282612b2c565b7f893ef2ea16c023f61d4f55d3e6ee3fc3f2fbfd478461323dbc2fbf919047086e545f906001600160a01b0316330361346f575060331936013560601c90565b503390565b604080518082019091525f808252602082015260405180604001604052808381526020018486602001516134a89190614c35565b9052949350505050565b5f81515f036134c257505f919050565b60208201805160f81c603081108015906134e0575060398160ff1611155b158015613502575060618160ff16101580156135005750607a8160ff1611155b155b1561351057505f9392505050565b8351600181111561357d576135328361352a60018461480e565b015160f81c90565b915060308260ff161015801561354c575060398260ff1611155b15801561356e575060618260ff161015801561356c5750607a8260ff1611155b155b1561357d57505f949350505050565b60015b61358b60018361480e565b8110156135fa578381015160f81c9250602d83148015906135c1575060308360ff16101580156135bf575060398360ff1611155b155b80156135e2575060618360ff16101580156135e05750607a8360ff1611155b155b156135f257505f95945050505050565b600101613580565b50600195945050505050565b61360f8161167f565b1561365c5760405162461bcd60e51b815260206004820152601d60248201527f4d696e74696e674d616e616765723a20544f4b454e5f424c4f434b45440000006044820152606401610945565b610ca481613743565b5f8061367a5f8460018651610fb9919061480e565b60ca549091506001600160a01b0316158015906136b65750807f0f4a10a4f46c288cea365fcf45cccf0e9d901b945b9829ccdb54c10dc3cb7a6f145b9392505050565b6136c782826114ee565b610d31576136df816001600160a01b031660146137c7565b6136ea8360206137c7565b6040516020016136fb929190614c48565b60408051601f198184030181529082905262461bcd60e51b8252610945916004016141f9565b5f805f61372e858561395c565b9150915061373b8161399e565b509392505050565b604080517f1ec047073e2c8b15660901dbfdb6e3ff6365bd699dd9f95dcc6eab5448bebd696020820152908101829052600190613782906060016116b9565b805460ff19169115159190911790556040518181527f2ce5d9351b1d590d5a066db0d2dc7602d55f092506a83a7ee8c4d78ee357d75a9060200160405180910390a150565b60605f6137d5836002614cbc565b6137e0906002614c35565b6001600160401b038111156137f7576137f7613fc6565b6040519080825280601f01601f191660200182016040528015613821576020820181803683370190505b509050600360fc1b815f8151811061383b5761383b614821565b60200101906001600160f81b03191690815f1a905350600f60fb1b8160018151811061386957613869614821565b60200101906001600160f81b03191690815f1a9053505f61388b846002614cbc565b613896906001614c35565b90505b600181111561390d576f181899199a1a9b1b9c1cb0b131b232b360811b85600f16601081106138ca576138ca614821565b1a60f81b8282815181106138e0576138e0614821565b60200101906001600160f81b03191690815f1a90535060049490941c9361390681614a9b565b9050613899565b5083156136b65760405162461bcd60e51b815260206004820181905260248201527f537472696e67733a20686578206c656e67746820696e73756666696369656e746044820152606401610945565b5f808251604103613990576020830151604084015160608501515f1a61398487828585613b53565b94509450505050613997565b505f905060025b9250929050565b5f8160048111156139b1576139b1614cd3565b036139b95750565b60018160048111156139cd576139cd614cd3565b03613a1a5760405162461bcd60e51b815260206004820152601860248201527f45434453413a20696e76616c6964207369676e617475726500000000000000006044820152606401610945565b6002816004811115613a2e57613a2e614cd3565b03613a7b5760405162461bcd60e51b815260206004820152601f60248201527f45434453413a20696e76616c6964207369676e6174757265206c656e677468006044820152606401610945565b6003816004811115613a8f57613a8f614cd3565b03613ae75760405162461bcd60e51b815260206004820152602260248201527f45434453413a20696e76616c6964207369676e6174757265202773272076616c604482015261756560f01b6064820152608401610945565b6004816004811115613afb57613afb614cd3565b03610ca45760405162461bcd60e51b815260206004820152602260248201527f45434453413a20696e76616c6964207369676e6174757265202776272076616c604482015261756560f01b6064820152608401610945565b5f807f7fffffffffffffffffffffffffffffff5d576e7357a4501ddfe92f46681b20a0831115613b8857505f90506003613c2f565b8460ff16601b14158015613ba057508460ff16601c14155b15613bb057505f90506004613c2f565b604080515f8082526020820180845289905260ff881692820192909252606081018690526080810185905260019060a0016020604051602081039080840390855afa158015613c01573d5f803e3d5ffd5b5050604051601f1901519150506001600160a01b038116613c29575f60019250925050613c2f565b91505f90505b94509492505050565b508054613c4490614929565b5f825580601f10613c53575050565b601f0160209004905f5260205f2090810190610ca491905b80821115613c7e575f8155600101613c6b565b5090565b5f60208284031215613c92575f80fd5b81356001600160e01b0319811681146136b6575f80fd5b6001600160401b0381168114610ca4575f80fd5b8035613cc881613ca9565b919050565b5f8060408385031215613cde575f80fd5b8235613ce981613ca9565b946020939093013593505050565b5f60208284031215613d07575f80fd5b5035919050565b5f8083601f840112613d1e575f80fd5b5081356001600160401b03811115613d34575f80fd5b602083019150836020828501011115613997575f80fd5b5f805f60408486031215613d5d575f80fd5b8335925060208401356001600160401b03811115613d79575f80fd5b613d8586828701613d0e565b9497909650939450505050565b6001600160a01b0381168114610ca4575f80fd5b8035613cc881613d92565b5f8060408385031215613dc2575f80fd5b823591506020830135613dd481613d92565b809150509250929050565b5f60208284031215613def575f80fd5b81356136b681613d92565b5f8083601f840112613e0a575f80fd5b5081356001600160401b03811115613e20575f80fd5b6020830191508360208260051b8501011115613997575f80fd5b8015158114610ca4575f80fd5b5f805f805f805f8060a0898b031215613e5e575f80fd5b8835613e6981613d92565b975060208901356001600160401b0380821115613e84575f80fd5b613e908c838d01613dfa565b909950975060408b0135915080821115613ea8575f80fd5b613eb48c838d01613dfa565b909750955060608b0135915080821115613ecc575f80fd5b50613ed98b828c01613dfa565b9094509250506080890135613eed81613e3a565b809150509295985092959890939650565b5f805f805f805f805f60c08a8c031215613f16575f80fd5b8935613f2181613d92565b985060208a01356001600160401b0380821115613f3c575f80fd5b613f488d838e01613dfa565b909a50985060408c0135915080821115613f60575f80fd5b613f6c8d838e01613dfa565b909850965060608c0135915080821115613f84575f80fd5b50613f918c828d01613dfa565b90955093505060808a0135613fa581613ca9565b915060a08a0135613fb581613e3a565b809150509295985092959850929598565b634e487b7160e01b5f52604160045260245ffd5b604051601f8201601f191681016001600160401b038111828210171561400257614002613fc6565b604052919050565b5f6001600160401b0382111561402257614022613fc6565b5060051b60200190565b5f602080838503121561403d575f80fd5b82356001600160401b03811115614052575f80fd5b8301601f81018513614062575f80fd5b80356140756140708261400a565b613fda565b81815260059190911b82018301908381019087831115614093575f80fd5b928401925b828410156140ba5783356140ab81613d92565b82529284019290840190614098565b979650505050505050565b5f805f80606085870312156140d8575f80fd5b84356140e381613d92565b93506020850135925060408501356001600160401b03811115614104575f80fd5b61411087828801613d0e565b95989497509550505050565b5f806020838503121561412d575f80fd5b82356001600160401b03811115614142575f80fd5b61414e85828601613d0e565b90969095509350505050565b5f805f6040848603121561416c575f80fd5b83356001600160401b03811115614181575f80fd5b61418d86828701613d0e565b90945092505060208401356141a181613e3a565b809150509250925092565b5f5b838110156141c65781810151838201526020016141ae565b50505f910152565b5f81518084526141e58160208601602086016141ac565b601f01601f19169290920160200192915050565b602081525f6136b660208301846141ce565b5f805f805f8060c08789031215614220575f80fd5b863561422b81613d92565b9550602087013561423b81613d92565b9450604087013561424b81613d92565b9350606087013561425b81613d92565b9250608087013561426b81613d92565b915060a087013561427b81613d92565b809150509295509295509295565b5f805f805f805f8060a0898b0312156142a0575f80fd5b88356142ab81613d92565b97506020890135965060408901356001600160401b03808211156142cd575f80fd5b6142d98c838d01613d0e565b909850965060608b01359150808211156142f1575f80fd5b6142fd8c838d01613dfa565b909650945060808b0135915080821115614315575f80fd5b506143228b828c01613dfa565b999c989b5096995094979396929594505050565b5f8060208385031215614347575f80fd5b82356001600160401b0381111561435c575f80fd5b61414e85828601613dfa565b5f805f805f805f805f805f60e08c8e031215614382575f80fd5b61438b8c613da6565b9a506001600160401b038060208e013511156143a5575f80fd5b6143b58e60208f01358f01613dfa565b909b50995060408d01358110156143ca575f80fd5b6143da8e60408f01358f01613dfa565b909950975060608d01358110156143ef575f80fd5b6143ff8e60608f01358f01613dfa565b909750955061441060808e01613cbd565b945060a08d013593508060c08e01351115614429575f80fd5b5061443a8d60c08e01358e01613d0e565b81935080925050509295989b509295989b9093969950565b5f805f805f805f805f805f806101008d8f03121561446e575f80fd5b6144778d613da6565b9b506001600160401b0360208e01351115614490575f80fd5b6144a08e60208f01358f01613dfa565b909b5099506001600160401b0360408e013511156144bc575f80fd5b6144cc8e60408f01358f01613dfa565b90995097506001600160401b0360608e013511156144e8575f80fd5b6144f88e60608f01358f01613dfa565b909750955061450960808e01613cbd565b945061451760a08e01613da6565b935060c08d013592506001600160401b0360e08e01351115614537575f80fd5b6145478e60e08f01358f01613d0e565b81935080925050509295989b509295989b509295989b565b5f8060408385031215614570575f80fd5b823561457b81613d92565b91506020830135613dd481613d92565b6020808252818101527f4d696e746572526f6c653a2043414c4c45525f49535f4e4f545f4d494e544552604082015260600190565b5f602082840312156145d0575f80fd5b81516136b681613ca9565b60208082526023908201527f4d696e74696e674d616e616765723a20544f4b454e5f4e4f545f455850495241604082015262424c4560e81b606082015260800190565b60208082526010908201526f14185d5cd8589b194e8814105554d15160821b604082015260600190565b5f6146556140708461400a565b80848252602080830192508560051b850136811115614672575f80fd5b855b818110156146fb5780356001600160401b0380821115614692575f80fd5b90880190601f36818401126146a5575f80fd5b8235828111156146b7576146b7613fc6565b6146c8818301601f19168801613fda565b925080835236878286010111156146dd575f80fd5b80878501888501375f90830187015250865250938201938201614674565b50919695505050505050565b60208082526024908201527f4d696e74696e674d616e616765723a2043414c4c45525f49535f4e4f545f4d49604082015263272a22a960e11b606082015260800190565b5f6020828403121561475b575f80fd5b81516136b681613e3a565b6020808252602f908201527f4d696e74696e674d616e616765723a2053454e4445525f49535f4e4f545f415060408201526e282927ab22a22fa7a92fa7aba722a960891b606082015260800190565b60208082526025908201527f4d696e74696e674d616e616765723a204c4142454c535f4c454e4754485f42456040820152642627abaf9960d91b606082015260800190565b634e487b7160e01b5f52601160045260245ffd5b81810381811115610918576109186147fa565b634e487b7160e01b5f52603260045260245ffd5b60208082526026908201527f4d696e74696e674d616e616765723a20535542444f4d41494e535f4e4f545f41604082015265131313d5d15160d21b606082015260800190565b60208152816020820152818360408301375f818301604090810191909152601f909201601f19160101919050565b60208082526022908201527f4d696e74696e674d616e616765723a20544c445f4e4f545f5245474953544552604082015261115160f21b606082015260800190565b5f602082840312156148fb575f80fd5b5051919050565b6b756e732d646576746573742d60a01b81528183600c8301375f9101600c01908152919050565b600181811c9082168061493d57607f821691505b60208210810361495b57634e487b7160e01b5f52602260045260245ffd5b50919050565b5f60208284031215614971575f80fd5b81516136b681613d92565b5f8282518085526020808601955060208260051b840101602086015f5b848110156149c757601f198684030189526149b58383516141ce565b98840198925090830190600101614999565b5090979650505050505050565b6001600160a01b038616815260a0602082018190525f906149f79083018761497c565b8281036040840152614a09818761497c565b90508281036060840152614a1d818661497c565b91505082151560808301529695505050505050565b5f60018060a01b03808616835260606020840152614a5360608401866141ce565b9150808416604084015250949350505050565b606081525f614a78606083018661497c565b8281036020840152614a8a818661497c565b915050826040830152949350505050565b5f81614aa957614aa96147fa565b505f190190565b5f8251614ac18184602087016141ac565b9190910192915050565b601f821115610c8e57805f5260205f20601f840160051c81016020851015614af05750805b601f840160051c820191505b81811015610bd2575f8155600101614afc565b81516001600160401b03811115614b2857614b28613fc6565b614b3c81614b368454614929565b84614acb565b602080601f831160018114614b6f575f8415614b585750858301515b5f19600386901b1c1916600185901b178555611617565b5f85815260208120601f198616915b82811015614b9d57888601518255948401946001909101908401614b7e565b5085821015614bba57878501515f19600388901b60f8161c191681555b5050505050600190811b01905550565b828152604060208201525f614be260408301846141ce565b949350505050565b6020808252602b908201527f496e697469616c697a61626c653a20636f6e7472616374206973206e6f74206960408201526a6e697469616c697a696e6760a81b606082015260800190565b80820180821115610918576109186147fa565b7f416363657373436f6e74726f6c3a206163636f756e742000000000000000000081525f8351614c7f8160178501602088016141ac565b7001034b99036b4b9b9b4b733903937b6329607d1b6017918401918201528351614cb08160288401602088016141ac565b01602801949350505050565b8082028115828204841417610918576109186147fa565b634e487b7160e01b5f52602160045260245ffdfe5496787fc1ebdfeba375028c1865f13fbb1d63c0caa356ccc1b29a80f3ebd6229f2df0fed2c77648de5860a4cc508cd0818c85b8b8a1ab4ceeef8d981c8956a6a164736f6c6343000818000a",
  "linkReferences": {},
  "deployedLinkReferences": {}
}