{
  "_format": "hh-sol-artifact-1",
  "contractName": "MintingManagerForwarder",
  "sourceName": "contracts/metatx/MintingManagerForwarder.sol",
  "abi": [
    {
      "inputs": [
        {
          "internalType": "address",
          "name": "mintingManager",
          "type": "address"
        }
      ],
      "stateMutability": "nonpayable",
      "type": "constructor"
    },
    {
      "inputs": [
        {
          "components": [
            {
              "internalType": "address",
              "name": "from",
              "type": "address"
            },
            {
              "internalType": "uint256",
              "name": "nonce",
              "type": "uint256"
            },
            {
              "internalType": "uint256",
              "name": "tokenId",
              "type": "uint256"
            },
            {
              "internalType": "bytes",
              "name": "data",
              "type": "bytes"
            }
          ],
          "internalType": "struct IForwarder.ForwardRequest",
          "name": "req",
          "type": "tuple"
        },
        {
          "internalType": "bytes",
          "name": "signature",
          "type": "bytes"
        }
      ],
      "name": "execute",
      "outputs": [
        {
          "internalType": "bytes",
          "name": "",
          "type": "bytes"
        }
      ],
      "stateMutability": "nonpayable",
      "type": "function"
    },
    {
      "inputs": [
        {
          "internalType": "uint256",
          "name": "tokenId",
          "type": "uint256"
        }
      ],
      "name": "nonceOf",
      "outputs": [
        {
          "internalType": "uint256",
          "name": "",
          "type": "uint256"
        }
      ],
      "stateMutability": "view",
      "type": "function"
    },
    {
      "inputs": [
        {
          "components": [
            {
              "internalType": "address",
              "name": "from",
              "type": "address"
            },
            {
              "internalType": "uint256",
              "name": "nonce",
              "type": "uint256"
            },
            {
              "internalType": "uint256",
              "name": "tokenId",
              "type": "uint256"
            },
            {
              "internalType": "bytes",
              "name": "data",
              "type": "bytes"
            }
          ],
          "internalType": "struct IForwarder.ForwardRequest",
          "name": "req",
          "type": "tuple"
        },
        {
          "internalType": "bytes",
          "name": "signature",
          "type": "bytes"
        }
      ],
      "name": "verify",
      "outputs": [
        {
          "internalType": "bool",
          "name": "",
          "type": "bool"
        }
      ],
      "stateMutability": "view",
      "type": "function"
    }
  ],
  "bytecode": "0x608060405234801561001057600080fd5b50604051610b85380380610b8583398101604081905261002f91610054565b600080546001600160a01b0319166001600160a01b0392909216919091179055610082565b600060208284031215610065578081fd5b81516001600160a01b038116811461007b578182fd5b9392505050565b610af4806100916000396000f3fe608060405234801561001057600080fd5b50600436106100415760003560e01c80631bf7e13e146100465780636ccbae5f1461006f578063a42474001461009d575b600080fd5b6100596100543660046107a2565b6100c0565b60405161006691906108f2565b60405180910390f35b61008f61007d36600461083a565b60009081526001602052604090205490565b604051908152602001610066565b6100b06100ab3660046107a2565b6101b0565b6040519015158152602001610066565b606060005a90506100d28585856101b0565b6101085760405162461bcd60e51b8152602060048201526002602482015261333160f01b60448201526064015b60405180910390fd5b6101a56101186020870187610770565b6000546001600160a01b031660408801358461013760608b018b610905565b8080601f01602080910402602001604051908101604052809392919081815260200183838082843760009201919091525050604080516020601f8e018190048102820181019092528c815292508c91508b908190840183828082843760009201919091525061020f92505050565b9150505b9392505050565b60006102076101be856109e8565b600054604080516020601f88018190048102820181019092528681526001600160a01b03909216919087908790819084018382808284376000920191909152506102e392505050565b949350505050565b606061021a8561043b565b600080876001600160a01b0316866102348b8a8989610468565b604051610241919061087e565b60006040518083038160008787f1925050503d806000811461027f576040519150601f19603f3d011682016040523d82523d6000602084013e610284565b606091505b509092509050610295603f876109c8565b5a116102b157634e487b7160e01b600052600160045260246000fd5b6102d6828260405180604001604052806002815260200161064760f31b815250610498565b9998505050505050505050565b6040838101519051636ccbae5f60e01b8152600481019190915260009081903090636ccbae5f9060240160206040518083038186803b15801561032557600080fd5b505afa158015610339573d6000803e3d6000fd5b505050506040513d601f19601f8201168201806040525081019061035d919061078a565b9050600061040b8660600151805190602001208688602001516040516020016103ab9392919092835260609190911b6bffffffffffffffffffffffff19166020830152603482015260540190565b60408051601f1981840301815282825280516020918201207f19457468657265756d205369676e6564204d6573736167653a0a33320000000084830152603c8085019190915282518085039091018152605c909301909152815191012090565b905081866020015114801561043157508551610431906001600160a01b031682866104d1565b9695505050505050565b600081815260016020819052604090912054610456916109a4565b60009182526001602052604090912055565b606082858560405160200161047f9392919061089a565b6040516020818303038152906040529050949350505050565b606083156104a75750816101a9565b8251156104b75782518084602001fd5b8160405162461bcd60e51b81526004016100ff91906108f2565b60008060006104e08585610621565b9092509050600081600481111561050757634e487b7160e01b600052602160045260246000fd5b1480156105255750856001600160a01b0316826001600160a01b0316145b15610535576001925050506101a9565b600080876001600160a01b0316631626ba7e60e01b888860405160240161055d9291906108d9565b60408051601f198184030181529181526020820180516001600160e01b03166001600160e01b031990941693909317909252905161059b919061087e565b600060405180830381855afa9150503d80600081146105d6576040519150601f19603f3d011682016040523d82523d6000602084013e6105db565b606091505b50915091508180156105ee575080516020145b801561061557508051630b135d3f60e11b90610613908301602090810190840161078a565b145b98975050505050505050565b6000808251604114156106585760208301516040840151606085015160001a61064c87828585610667565b94509450505050610660565b506000905060025b9250929050565b6000807f7fffffffffffffffffffffffffffffff5d576e7357a4501ddfe92f46681b20a083111561069e575060009050600361074b565b8460ff16601b141580156106b657508460ff16601c14155b156106c7575060009050600461074b565b6040805160008082526020820180845289905260ff881692820192909252606081018690526080810185905260019060a0016020604051602081039080840390855afa15801561071b573d6000803e3d6000fd5b5050604051601f1901519150506001600160a01b0381166107445760006001925092505061074b565b9150600090505b94509492505050565b80356001600160a01b038116811461076b57600080fd5b919050565b600060208284031215610781578081fd5b6101a982610754565b60006020828403121561079b578081fd5b5051919050565b6000806000604084860312156107b6578182fd5b833567ffffffffffffffff808211156107cd578384fd5b90850190608082880312156107e0578384fd5b909350602085013590808211156107f5578384fd5b818601915086601f830112610808578384fd5b813581811115610816578485fd5b876020828501011115610827578485fd5b6020830194508093505050509250925092565b60006020828403121561084b578081fd5b5035919050565b6000815180845261086a816020860160208601610aa1565b601f01601f19169290920160200192915050565b60008251610890818460208701610aa1565b9190910192915050565b600084516108ac818460208901610aa1565b60609490941b6bffffffffffffffffffffffff191691909301908152601481019190915260340192915050565b8281526040602082015260006102076040830184610852565b6020815260006101a96020830184610852565b6000808335601e1984360301811261091b578283fd5b83018035915067ffffffffffffffff821115610935578283fd5b60200191503681900382131561066057600080fd5b6040516080810167ffffffffffffffff8111828210171561096d5761096d610ad1565b60405290565b604051601f8201601f1916810167ffffffffffffffff8111828210171561099c5761099c610ad1565b604052919050565b600082198211156109c357634e487b7160e01b81526011600452602481fd5b500190565b6000826109e357634e487b7160e01b81526012600452602481fd5b500490565b6000608082360312156109f9578081fd5b610a0161094a565b610a0a83610754565b81526020808401358183015260408401356040830152606084013567ffffffffffffffff80821115610a3a578485fd5b9085019036601f830112610a4c578485fd5b813581811115610a5e57610a5e610ad1565b610a70601f8201601f19168501610973565b91508082523684828501011115610a85578586fd5b8084840185840137810190920193909352606082015292915050565b60005b83811015610abc578181015183820152602001610aa4565b83811115610acb576000848401525b50505050565b634e487b7160e01b600052604160045260246000fdfea164736f6c6343000804000a",
  "linkReferences": {},
  "deployedLinkReferences": {}
}