{
  "_format": "hh-sol-artifact-1",
  "contractName": "MintingManager",
  "sourceName": "contracts/MintingManager.sol",
  "abi": [
    {
      "anonymous": false,
      "inputs": [
        {
          "indexed": false,
          "internalType": "address",
          "name": "previousAdmin",
          "type": "address"
        },
        {
          "indexed": false,
          "internalType": "address",
          "name": "newAdmin",
          "type": "address"
        }
      ],
      "name": "AdminChanged",
      "type": "event"
    },
    {
      "anonymous": false,
      "inputs": [
        {
          "indexed": false,
          "internalType": "uint256",
          "name": "tokenId",
          "type": "uint256"
        }
      ],
      "name": "Blocked",
      "type": "event"
    },
    {
      "anonymous": false,
      "inputs": [
        {
          "indexed": false,
          "internalType": "address",
          "name": "account",
          "type": "address"
        }
      ],
      "name": "BlocklistDisabled",
      "type": "event"
    },
    {
      "anonymous": false,
      "inputs": [
        {
          "indexed": false,
          "internalType": "address",
          "name": "account",
          "type": "address"
        }
      ],
      "name": "BlocklistEnabled",
      "type": "event"
    },
    {
      "anonymous": false,
      "inputs": [
        {
          "indexed": false,
          "internalType": "uint8",
          "name": "version",
          "type": "uint8"
        }
      ],
      "name": "Initialized",
      "type": "event"
    },
    {
      "anonymous": false,
      "inputs": [
        {
          "indexed": true,
          "internalType": "uint256",
          "name": "tokenId",
          "type": "uint256"
        },
        {
          "indexed": false,
          "internalType": "string",
          "name": "tld",
          "type": "string"
        }
      ],
      "name": "NewTld",
      "type": "event"
    },
    {
      "anonymous": false,
      "inputs": [
        {
          "indexed": true,
          "internalType": "address",
          "name": "previousOwner",
          "type": "address"
        },
        {
          "indexed": true,
          "internalType": "address",
          "name": "newOwner",
          "type": "address"
        }
      ],
      "name": "OwnershipTransferred",
      "type": "event"
    },
    {
      "anonymous": false,
      "inputs": [
        {
          "indexed": false,
          "internalType": "address",
          "name": "account",
          "type": "address"
        }
      ],
      "name": "Paused",
      "type": "event"
    },
    {
      "anonymous": false,
      "inputs": [
        {
          "indexed": true,
          "internalType": "uint256",
          "name": "tokenId",
          "type": "uint256"
        }
      ],
      "name": "RemoveTld",
      "type": "event"
    },
    {
      "anonymous": false,
      "inputs": [
        {
          "indexed": true,
          "internalType": "bytes32",
          "name": "role",
          "type": "bytes32"
        },
        {
          "indexed": true,
          "internalType": "bytes32",
          "name": "previousAdminRole",
          "type": "bytes32"
        },
        {
          "indexed": true,
          "internalType": "bytes32",
          "name": "newAdminRole",
          "type": "bytes32"
        }
      ],
      "name": "RoleAdminChanged",
      "type": "event"
    },
    {
      "anonymous": false,
      "inputs": [
        {
          "indexed": true,
          "internalType": "bytes32",
          "name": "role",
          "type": "bytes32"
        },
        {
          "indexed": true,
          "internalType": "address",
          "name": "account",
          "type": "address"
        },
        {
          "indexed": true,
          "internalType": "address",
          "name": "sender",
          "type": "address"
        }
      ],
      "name": "RoleGranted",
      "type": "event"
    },
    {
      "anonymous": false,
      "inputs": [
        {
          "indexed": true,
          "internalType": "bytes32",
          "name": "role",
          "type": "bytes32"
        },
        {
          "indexed": true,
          "internalType": "address",
          "name": "account",
          "type": "address"
        },
        {
          "indexed": true,
          "internalType": "address",
          "name": "sender",
          "type": "address"
        }
      ],
      "name": "RoleRevoked",
      "type": "event"
    },
    {
      "anonymous": false,
      "inputs": [
        {
          "indexed": false,
          "internalType": "address",
          "name": "account",
          "type": "address"
        }
      ],
      "name": "Unpaused",
      "type": "event"
    },
    {
      "anonymous": false,
      "inputs": [
        {
          "indexed": true,
          "internalType": "address",
          "name": "implementation",
          "type": "address"
        }
      ],
      "name": "Upgraded",
      "type": "event"
    },
    {
      "inputs": [],
      "name": "DEFAULT_ADMIN_ROLE",
      "outputs": [
        {
          "internalType": "bytes32",
          "name": "",
          "type": "bytes32"
        }
      ],
      "stateMutability": "view",
      "type": "function"
    },
    {
      "inputs": [],
      "name": "MINTER_ROLE",
      "outputs": [
        {
          "internalType": "bytes32",
          "name": "",
          "type": "bytes32"
        }
      ],
      "stateMutability": "view",
      "type": "function"
    },
    {
      "inputs": [],
      "name": "NAME",
      "outputs": [
        {
          "internalType": "string",
          "name": "",
          "type": "string"
        }
      ],
      "stateMutability": "view",
      "type": "function"
    },
    {
      "inputs": [],
      "name": "VERSION",
      "outputs": [
        {
          "internalType": "string",
          "name": "",
          "type": "string"
        }
      ],
      "stateMutability": "view",
      "type": "function"
    },
    {
      "inputs": [
        {
          "internalType": "address",
          "name": "account",
          "type": "address"
        }
      ],
      "name": "addMinter",
      "outputs": [],
      "stateMutability": "nonpayable",
      "type": "function"
    },
    {
      "inputs": [
        {
          "internalType": "address[]",
          "name": "accounts",
          "type": "address[]"
        }
      ],
      "name": "addMinters",
      "outputs": [],
      "stateMutability": "nonpayable",
      "type": "function"
    },
    {
      "inputs": [
        {
          "internalType": "address[]",
          "name": "addrs",
          "type": "address[]"
        }
      ],
      "name": "addProxyReaders",
      "outputs": [],
      "stateMutability": "nonpayable",
      "type": "function"
    },
    {
      "inputs": [
        {
          "internalType": "string",
          "name": "tld",
          "type": "string"
        }
      ],
      "name": "addTld",
      "outputs": [],
      "stateMutability": "nonpayable",
      "type": "function"
    },
    {
      "inputs": [
        {
          "internalType": "uint256[]",
          "name": "tokenIds",
          "type": "uint256[]"
        }
      ],
      "name": "areBlocked",
      "outputs": [
        {
          "internalType": "bool[]",
          "name": "values",
          "type": "bool[]"
        }
      ],
      "stateMutability": "view",
      "type": "function"
    },
    {
      "inputs": [
        {
          "internalType": "uint256",
          "name": "tokenId",
          "type": "uint256"
        }
      ],
      "name": "blocklist",
      "outputs": [],
      "stateMutability": "nonpayable",
      "type": "function"
    },
    {
      "inputs": [
        {
          "internalType": "uint256[]",
          "name": "tokenIds",
          "type": "uint256[]"
        }
      ],
      "name": "blocklistAll",
      "outputs": [],
      "stateMutability": "nonpayable",
      "type": "function"
    },
    {
      "inputs": [
        {
          "internalType": "uint256",
          "name": "tld",
          "type": "uint256"
        },
        {
          "internalType": "string",
          "name": "label",
          "type": "string"
        }
      ],
      "name": "claim",
      "outputs": [],
      "stateMutability": "nonpayable",
      "type": "function"
    },
    {
      "inputs": [
        {
          "internalType": "address",
          "name": "to",
          "type": "address"
        },
        {
          "internalType": "uint256",
          "name": "tld",
          "type": "uint256"
        },
        {
          "internalType": "string",
          "name": "label",
          "type": "string"
        }
      ],
      "name": "claimTo",
      "outputs": [],
      "stateMutability": "nonpayable",
      "type": "function"
    },
    {
      "inputs": [
        {
          "internalType": "address",
          "name": "to",
          "type": "address"
        },
        {
          "internalType": "uint256",
          "name": "tld",
          "type": "uint256"
        },
        {
          "internalType": "string",
          "name": "label",
          "type": "string"
        },
        {
          "internalType": "string[]",
          "name": "keys",
          "type": "string[]"
        },
        {
          "internalType": "string[]",
          "name": "values",
          "type": "string[]"
        }
      ],
      "name": "claimToWithRecords",
      "outputs": [],
      "stateMutability": "nonpayable",
      "type": "function"
    },
    {
      "inputs": [
        {
          "internalType": "address payable",
          "name": "receiver",
          "type": "address"
        }
      ],
      "name": "closeMinter",
      "outputs": [],
      "stateMutability": "payable",
      "type": "function"
    },
    {
      "inputs": [],
      "name": "cnsMintingController",
      "outputs": [
        {
          "internalType": "contract IMintingController",
          "name": "",
          "type": "address"
        }
      ],
      "stateMutability": "view",
      "type": "function"
    },
    {
      "inputs": [],
      "name": "cnsResolver",
      "outputs": [
        {
          "internalType": "contract IResolver",
          "name": "",
          "type": "address"
        }
      ],
      "stateMutability": "view",
      "type": "function"
    },
    {
      "inputs": [],
      "name": "cnsURIPrefixController",
      "outputs": [
        {
          "internalType": "contract IURIPrefixController",
          "name": "",
          "type": "address"
        }
      ],
      "stateMutability": "view",
      "type": "function"
    },
    {
      "inputs": [],
      "name": "disableBlocklist",
      "outputs": [],
      "stateMutability": "nonpayable",
      "type": "function"
    },
    {
      "inputs": [],
      "name": "enableBlocklist",
      "outputs": [],
      "stateMutability": "nonpayable",
      "type": "function"
    },
    {
      "inputs": [
        {
          "internalType": "bytes32",
          "name": "role",
          "type": "bytes32"
        }
      ],
      "name": "getRoleAdmin",
      "outputs": [
        {
          "internalType": "bytes32",
          "name": "",
          "type": "bytes32"
        }
      ],
      "stateMutability": "view",
      "type": "function"
    },
    {
      "inputs": [
        {
          "internalType": "bytes32",
          "name": "role",
          "type": "bytes32"
        },
        {
          "internalType": "address",
          "name": "account",
          "type": "address"
        }
      ],
      "name": "grantRole",
      "outputs": [],
      "stateMutability": "nonpayable",
      "type": "function"
    },
    {
      "inputs": [
        {
          "internalType": "bytes32",
          "name": "role",
          "type": "bytes32"
        },
        {
          "internalType": "address",
          "name": "account",
          "type": "address"
        }
      ],
      "name": "hasRole",
      "outputs": [
        {
          "internalType": "bool",
          "name": "",
          "type": "bool"
        }
      ],
      "stateMutability": "view",
      "type": "function"
    },
    {
      "inputs": [
        {
          "internalType": "contract IUNSRegistry",
          "name": "unsRegistry_",
          "type": "address"
        },
        {
          "internalType": "contract IMintingController",
          "name": "cnsMintingController_",
          "type": "address"
        },
        {
          "internalType": "contract IURIPrefixController",
          "name": "cnsURIPrefixController_",
          "type": "address"
        },
        {
          "internalType": "contract IResolver",
          "name": "cnsResolver_",
          "type": "address"
        },
        {
          "internalType": "address",
          "name": "forwarder",
          "type": "address"
        }
      ],
      "name": "initialize",
      "outputs": [],
      "stateMutability": "nonpayable",
      "type": "function"
    },
    {
      "inputs": [
        {
          "internalType": "uint256",
          "name": "tokenId",
          "type": "uint256"
        }
      ],
      "name": "isBlocked",
      "outputs": [
        {
          "internalType": "bool",
          "name": "",
          "type": "bool"
        }
      ],
      "stateMutability": "view",
      "type": "function"
    },
    {
      "inputs": [],
      "name": "isBlocklistDisabled",
      "outputs": [
        {
          "internalType": "bool",
          "name": "",
          "type": "bool"
        }
      ],
      "stateMutability": "view",
      "type": "function"
    },
    {
      "inputs": [
        {
          "internalType": "address",
          "name": "account",
          "type": "address"
        }
      ],
      "name": "isMinter",
      "outputs": [
        {
          "internalType": "bool",
          "name": "",
          "type": "bool"
        }
      ],
      "stateMutability": "view",
      "type": "function"
    },
    {
      "inputs": [
        {
          "internalType": "address",
          "name": "forwarder",
          "type": "address"
        }
      ],
      "name": "isTrustedForwarder",
      "outputs": [
        {
          "internalType": "bool",
          "name": "",
          "type": "bool"
        }
      ],
      "stateMutability": "view",
      "type": "function"
    },
    {
      "inputs": [
        {
          "internalType": "address",
          "name": "to",
          "type": "address"
        },
        {
          "internalType": "string[]",
          "name": "labels",
          "type": "string[]"
        },
        {
          "internalType": "string[]",
          "name": "keys",
          "type": "string[]"
        },
        {
          "internalType": "string[]",
          "name": "values",
          "type": "string[]"
        }
      ],
      "name": "issueWithRecords",
      "outputs": [],
      "stateMutability": "nonpayable",
      "type": "function"
    },
    {
      "inputs": [
        {
          "internalType": "address",
          "name": "to",
          "type": "address"
        },
        {
          "internalType": "uint256",
          "name": "tld",
          "type": "uint256"
        },
        {
          "internalType": "string",
          "name": "label",
          "type": "string"
        },
        {
          "internalType": "string[]",
          "name": "keys",
          "type": "string[]"
        },
        {
          "internalType": "string[]",
          "name": "values",
          "type": "string[]"
        }
      ],
      "name": "mintSLDWithRecords",
      "outputs": [],
      "stateMutability": "nonpayable",
      "type": "function"
    },
    {
      "inputs": [],
      "name": "owner",
      "outputs": [
        {
          "internalType": "address",
          "name": "",
          "type": "address"
        }
      ],
      "stateMutability": "view",
      "type": "function"
    },
    {
      "inputs": [],
      "name": "pause",
      "outputs": [],
      "stateMutability": "nonpayable",
      "type": "function"
    },
    {
      "inputs": [],
      "name": "paused",
      "outputs": [
        {
          "internalType": "bool",
          "name": "",
          "type": "bool"
        }
      ],
      "stateMutability": "view",
      "type": "function"
    },
    {
      "inputs": [
        {
          "internalType": "address",
          "name": "account",
          "type": "address"
        }
      ],
      "name": "removeMinter",
      "outputs": [],
      "stateMutability": "nonpayable",
      "type": "function"
    },
    {
      "inputs": [
        {
          "internalType": "address[]",
          "name": "accounts",
          "type": "address[]"
        }
      ],
      "name": "removeMinters",
      "outputs": [],
      "stateMutability": "nonpayable",
      "type": "function"
    },
    {
      "inputs": [
        {
          "internalType": "uint256",
          "name": "tld",
          "type": "uint256"
        }
      ],
      "name": "removeTld",
      "outputs": [],
      "stateMutability": "nonpayable",
      "type": "function"
    },
    {
      "inputs": [],
      "name": "renounceMinter",
      "outputs": [],
      "stateMutability": "nonpayable",
      "type": "function"
    },
    {
      "inputs": [],
      "name": "renounceOwnership",
      "outputs": [],
      "stateMutability": "nonpayable",
      "type": "function"
    },
    {
      "inputs": [
        {
          "internalType": "bytes32",
          "name": "role",
          "type": "bytes32"
        },
        {
          "internalType": "address",
          "name": "account",
          "type": "address"
        }
      ],
      "name": "renounceRole",
      "outputs": [],
      "stateMutability": "nonpayable",
      "type": "function"
    },
    {
      "inputs": [
        {
          "internalType": "bytes32",
          "name": "role",
          "type": "bytes32"
        },
        {
          "internalType": "address",
          "name": "account",
          "type": "address"
        }
      ],
      "name": "revokeRole",
      "outputs": [],
      "stateMutability": "nonpayable",
      "type": "function"
    },
    {
      "inputs": [
        {
          "internalType": "address payable",
          "name": "receiver",
          "type": "address"
        }
      ],
      "name": "rotateMinter",
      "outputs": [],
      "stateMutability": "payable",
      "type": "function"
    },
    {
      "inputs": [
        {
          "internalType": "address",
          "name": "forwarder",
          "type": "address"
        }
      ],
      "name": "setForwarder",
      "outputs": [],
      "stateMutability": "nonpayable",
      "type": "function"
    },
    {
      "inputs": [
        {
          "internalType": "address",
          "name": "resolver",
          "type": "address"
        }
      ],
      "name": "setResolver",
      "outputs": [],
      "stateMutability": "nonpayable",
      "type": "function"
    },
    {
      "inputs": [
        {
          "internalType": "string",
          "name": "prefix",
          "type": "string"
        }
      ],
      "name": "setTokenURIPrefix",
      "outputs": [],
      "stateMutability": "nonpayable",
      "type": "function"
    },
    {
      "inputs": [
        {
          "internalType": "bytes4",
          "name": "interfaceId",
          "type": "bytes4"
        }
      ],
      "name": "supportsInterface",
      "outputs": [
        {
          "internalType": "bool",
          "name": "",
          "type": "bool"
        }
      ],
      "stateMutability": "view",
      "type": "function"
    },
    {
      "inputs": [
        {
          "internalType": "address",
          "name": "newOwner",
          "type": "address"
        }
      ],
      "name": "transferOwnership",
      "outputs": [],
      "stateMutability": "nonpayable",
      "type": "function"
    },
    {
      "inputs": [],
      "name": "unpause",
      "outputs": [],
      "stateMutability": "nonpayable",
      "type": "function"
    },
    {
      "inputs": [],
      "name": "unsRegistry",
      "outputs": [
        {
          "internalType": "contract IUNSRegistry",
          "name": "",
          "type": "address"
        }
      ],
      "stateMutability": "view",
      "type": "function"
    }
  ],
  "bytecode": "0x608060405234801561001057600080fd5b506139e3806100206000396000f3fe6080604052600436106102935760003560e01c80638da5cb5b1161015a578063b9998a24116100c1578063d53913931161007a578063d53913931461080e578063d547741f14610830578063e47d6cc614610850578063ec52738914610870578063f2fde38b14610890578063ffa1ad74146108b057600080fd5b8063b9998a241461074e578063c3a3bc001461076e578063cc2c3fc41461078e578063ceeb4f50146107ae578063d1f5692c146107ce578063d4a32ad6146107ee57600080fd5b806399e0dd7c1161011357806399e0dd7c1461066c578063a217fddf1461068c578063a3f4df7e146106a1578063a849d65c146106ee578063aa271e1a1461070e578063b0aa98c71461072e57600080fd5b80638da5cb5b146105c4578063906cecc1146105e257806390dbdb5a1461060257806391d1485414610617578063983b2d5614610637578063986502751461065757600080fd5b80633f4ba83a116101fe5780635fc1964f116101b75780635fc1964f14610534578063634486da14610554578063715018a61461056757806371e2a6571461057c57806381c81d351461059c5780638456cb59146105af57600080fd5b80633f4ba83a1461045c578063463c4bcb146104715780634e543b2614610491578063572b6c05146104b15780635b6fa8db146104ff5780635c975abb1461051f57600080fd5b80632eff1a95116102505780632eff1a951461038f5780632f2ff15d146103a45780633092afd5146103c457806336568abe146103e457806339ccf4d0146104045780633f41b6141461042457600080fd5b806301ffc9a7146102985780630e36a87d146102cd57806310921f12146102fa5780631459457a1461030f578063248a9ca314610331578063268b15ed1461036f575b600080fd5b3480156102a457600080fd5b506102b86102b33660046131ee565b6108e1565b60405190151581526020015b60405180910390f35b3480156102d957600080fd5b506102ed6102e83660046130a8565b610918565b6040516102c49190613501565b34801561030657600080fd5b506102b86109ef565b34801561031b57600080fd5b5061032f61032a366004613216565b610a0a565b005b34801561033d57600080fd5b5061036161034c3660046131a7565b60009081526097602052604090206001015490565b6040519081526020016102c4565b34801561037b57600080fd5b5061032f61038a3660046132b9565b610d5b565b34801561039b57600080fd5b5061032f610e65565b3480156103b057600080fd5b5061032f6103bf3660046131bf565b610e77565b3480156103d057600080fd5b5061032f6103df366004612ebe565b610ea1565b3480156103f057600080fd5b5061032f6103ff3660046131bf565b610eb5565b34801561041057600080fd5b5061032f61041f366004612ff7565b610f43565b34801561043057600080fd5b5060c954610444906001600160a01b031681565b6040516001600160a01b0390911681526020016102c4565b34801561046857600080fd5b5061032f6110af565b34801561047d57600080fd5b5061032f61048c3660046131a7565b6110bf565b34801561049d57600080fd5b5061032f6104ac366004612ebe565b6110ef565b3480156104bd57600080fd5b506102b86104cc366004612ebe565b7f893ef2ea16c023f61d4f55d3e6ee3fc3f2fbfd478461323dbc2fbf919047086e546001600160a01b0390811691161490565b34801561050b57600080fd5b5060cc54610444906001600160a01b031681565b34801561052b57600080fd5b506102b8611119565b34801561054057600080fd5b5061032f61054f3660046130e7565b61112f565b61032f610562366004612ebe565b611185565b34801561057357600080fd5b5061032f611248565b34801561058857600080fd5b5061032f6105973660046130e7565b61125a565b61032f6105aa366004612ebe565b6112b0565b3480156105bb57600080fd5b5061032f61132d565b3480156105d057600080fd5b506033546001600160a01b0316610444565b3480156105ee57600080fd5b5061032f6105fd366004612f9e565b61133d565b34801561060e57600080fd5b5061032f611433565b34801561062357600080fd5b506102b86106323660046131bf565b611443565b34801561064357600080fd5b5061032f610652366004612ebe565b61146e565b34801561066357600080fd5b5061032f61147f565b34801561067857600080fd5b5061032f610687366004613286565b611499565b34801561069857600080fd5b50610361600081565b3480156106ad57600080fd5b506106e1604051806040016040528060148152602001732aa7299d1026b4b73a34b7339026b0b730b3b2b960611b81525081565b6040516102c491906135ac565b3480156106fa57600080fd5b5060cb54610444906001600160a01b031681565b34801561071a57600080fd5b506102b8610729366004612ebe565b611578565b34801561073a57600080fd5b506102b86107493660046131a7565b611592565b34801561075a57600080fd5b5061032f610769366004612ebe565b6115ff565b34801561077a57600080fd5b5061032f610789366004613286565b611644565b34801561079a57600080fd5b5060ca54610444906001600160a01b031681565b3480156107ba57600080fd5b5061032f6107c9366004612ff7565b61168b565b3480156107da57600080fd5b5061032f6107e93660046130a8565b611778565b3480156107fa57600080fd5b5061032f610809366004612ef6565b61183d565b34801561081a57600080fd5b506103616000805160206139b783398151915281565b34801561083c57600080fd5b5061032f61084b3660046131bf565b611b53565b34801561085c57600080fd5b5061032f61086b3660046130a8565b611b78565b34801561087c57600080fd5b5061032f61088b3660046131a7565b611ba9565b34801561089c57600080fd5b5061032f6108ab366004612ebe565b611c1b565b3480156108bc57600080fd5b506106e1604051806040016040528060058152602001640302e342e360dc1b81525081565b60006001600160e01b03198216637965db0b60e01b148061091257506301ffc9a760e01b6001600160e01b03198316145b92915050565b6060816001600160401b0381111561094057634e487b7160e01b600052604160045260246000fd5b604051908082528060200260200182016040528015610969578160200160208202803683370190505b50905060005b828110156109e8576109a684848381811061099a57634e487b7160e01b600052603260045260246000fd5b90506020020135611592565b8282815181106109c657634e487b7160e01b600052603260045260246000fd5b91151560209283029190910190910152806109e0816138fa565b91505061096f565b5092915050565b60006000805160206139778339815191525b5460ff16919050565b600054610100900460ff1615808015610a2a5750600054600160ff909116105b80610a445750303b158015610a44575060005460ff166001145b610aac5760405162461bcd60e51b815260206004820152602e60248201527f496e697469616c697a61626c653a20636f6e747261637420697320616c72656160448201526d191e481a5b9a5d1a585b1a5e995960921b60648201526084015b60405180910390fd5b6000805460ff191660011790558015610acf576000805461ff0019166101001790555b60c980546001600160a01b038089166001600160a01b03199283161790925560ca805488841690831617905560cb805487841690831617905560cc805492861692909116919091179055610b21611c37565b610b29611c6e565b610b3282611ca7565b610b3a611cce565b610b42611d18565b604080516101c081018252600661018082018181526563727970746f60d01b6101a0840152825282518084018452818152651dd85b1b195d60d21b602082810191909152808401919091528351808501855260018152600f60fb1b8183015283850152835180850185526003808252621b999d60ea1b82840152606085019190915284518086018652600a815269313637b1b5b1b430b4b760b11b818401526080850152845180860186526007808252663134ba31b7b4b760c91b8285015260a0860191909152855180870187528281526207070760eb1b8185015260c0860152855180870187528281526264616f60e81b8185015260e086015285518087018752918252621e9a5b60ea1b8284015261010085019190915284518086018652908152663837b63cb3b7b760c91b8183015261012084015283518085018552600b81526a756e73746f707061626c6560a81b8183015261014084015283518085019094529083526535b632bb32b960d11b9083015261016081019190915260005b600c811015610d0b57610cf98282600c8110610cef57634e487b7160e01b600052603260045260246000fd5b6020020151611d55565b80610d03816138fa565b915050610cc3565b50508015610d53576000805461ff0019169055604051600181527f7f26b83ff96e1f2b6a682f133852f6798a09c465da95921460cefb38474024989060200160405180910390a15b505050505050565b8282828080601f016020809104026020016040519081016040528093929190818152602001838380828437600092019190915250610d9e9250849150611e719050565b610dba5760405162461bcd60e51b8152600401610aa390613664565b6000610dc582611e97565b9050600a81600001511115610e1d57610df0610de4826000600a611ec4565b80516020909101512090565b6000805160206139978339815191521415610e1d5760405162461bcd60e51b8152600401610aa3906135bf565b610e25611119565b15610e425760405162461bcd60e51b8152600401610aa39061363a565b610d53610e4d611f03565b610e6088610e5b8989611f12565b611f3e565b61206b565b610e6d612079565b610e756120f2565b565b600082815260976020526040902060010154610e928161219d565b610e9c83836121ae565b505050565b610ea9612079565b610eb281612235565b50565b610ebd611f03565b6001600160a01b0316816001600160a01b031614610f355760405162461bcd60e51b815260206004820152602f60248201527f416363657373436f6e74726f6c3a2063616e206f6e6c792072656e6f756e636560448201526e103937b632b9903337b91039b2b63360891b6064820152608401610aa3565b610f3f828261224d565b5050565b610f4e610729611f03565b610f6a5760405162461bcd60e51b8152600401610aa390613605565b8686868080601f016020809104026020016040519081016040528093929190818152602001838380828437600092019190915250610fad9250849150611e719050565b610fc95760405162461bcd60e51b8152600401610aa390613664565b6000610fd482611e97565b9050600a8160000151111561102057610ff3610de4826000600a611ec4565b60008051602061399783398151915214156110205760405162461bcd60e51b8152600401610aa3906135bf565b611028611119565b156110455760405162461bcd60e51b8152600401610aa39061363a565b6110a28b6110898c8c8c8080601f016020809104026020016040519081016040528093929190818152602001838380828437600092019190915250611f3e92505050565b611093898b6137b3565b61109d888a6137b3565b6122d2565b5050505050505050505050565b6110b7612079565b610e756124e1565b6110ca610729611f03565b6110e65760405162461bcd60e51b8152600401610aa390613605565b610eb28161256c565b6110f7612079565b60cc80546001600160a01b0319166001600160a01b0392909216919091179055565b6000600080516020613957833981519152610a01565b611137612079565b60005b8151811015610f3f5761117382828151811061116657634e487b7160e01b600052603260045260246000fd5b6020026020010151612235565b8061117d816138fa565b91505061113a565b611190610729611f03565b6111ac5760405162461bcd60e51b8152600401610aa390613605565b6001600160a01b0381166112025760405162461bcd60e51b815260206004820152601d60248201527f4d696e746572526f6c653a2052454345495645525f49535f454d5054590000006044820152606401610aa3565b61120b8161263b565b61121361147f565b6040516001600160a01b038216903480156108fc02916000818181858888f19350505050158015610f3f573d6000803e3d6000fd5b611250612079565b610e756000612653565b611262612079565b60005b8151811015610f3f5761129e82828151811061129157634e487b7160e01b600052603260045260246000fd5b602002602001015161263b565b806112a8816138fa565b915050611265565b6112bb610729611f03565b6112d75760405162461bcd60e51b8152600401610aa390613605565b6001600160a01b03811661120b5760405162461bcd60e51b815260206004820152601d60248201527f4d696e746572526f6c653a2052454345495645525f49535f454d5054590000006044820152606401610aa3565b611335612079565b610e756126a5565b8282828080601f0160208091040260200160405190810160405280939291908181526020018383808284376000920191909152506113809250849150611e719050565b61139c5760405162461bcd60e51b8152600401610aa390613664565b60006113a782611e97565b9050600a816000015111156113f3576113c6610de4826000600a611ec4565b60008051602061399783398151915214156113f35760405162461bcd60e51b8152600401610aa3906135bf565b6113fb611119565b156114185760405162461bcd60e51b8152600401610aa39061363a565b61142a87610e6088610e5b8989611f12565b50505050505050565b61143b612079565b610e7561270d565b60009182526097602090815260408084206001600160a01b0393909316845291905290205460ff1690565b611476612079565b610eb28161263b565b610e756000805160206139b78339815191526103ff611f03565b6114a1612079565b60c954604051632678375f60e21b81526001600160a01b03909116906399e0dd7c906114d3908590859060040161357d565b600060405180830381600087803b1580156114ed57600080fd5b505af1158015611501573d6000803e3d6000fd5b505060cb546001600160a01b0316159150610f3f90505760cb54604051632678375f60e21b81526001600160a01b03909116906399e0dd7c9061154a908590859060040161357d565b600060405180830381600087803b15801561156457600080fd5b505af1158015610d53573d6000803e3d6000fd5b60006109126000805160206139b783398151915283611443565b600061159c6109ef565b1580156109125750604080517f1ec047073e2c8b15660901dbfdb6e3ff6365bd699dd9f95dcc6eab5448bebd6960208201529081018390526115f5906060015b6040516020818303038152906040528051906020012090565b5460ff1692915050565b611607612079565b7f893ef2ea16c023f61d4f55d3e6ee3fc3f2fbfd478461323dbc2fbf919047086e80546001600160a01b0319166001600160a01b03831617905550565b61164c612079565b610f3f82828080601f016020809104026020016040519081016040528093929190818152602001838380828437600092019190915250611d5592505050565b8686868080601f0160208091040260200160405190810160405280939291908181526020018383808284376000920191909152506116ce9250849150611e719050565b6116ea5760405162461bcd60e51b8152600401610aa390613664565b60006116f582611e97565b9050600a8160000151111561174157611714610de4826000600a611ec4565b60008051602061399783398151915214156117415760405162461bcd60e51b8152600401610aa3906135bf565b611749611119565b156117665760405162461bcd60e51b8152600401610aa39061363a565b6110a28b6110898c610e5b8d8d611f12565b611780612079565b60005b81811015610e9c5760c9546001600160a01b031663509602398484848181106117bc57634e487b7160e01b600052603260045260246000fd5b90506020020160208101906117d19190612ebe565b6040516001600160e01b031960e084901b1681526001600160a01b039091166004820152602401600060405180830381600087803b15801561181257600080fd5b505af1158015611826573d6000803e3d6000fd5b505050508080611835906138fa565b915050611783565b61184785876137b3565b8051600214156118b95761185c610729611f03565b6118b45760405162461bcd60e51b8152602060048201526024808201527f4d696e74696e674d616e616765723a2043414c4c45525f49535f4e4f545f4d49604482015263272a22a960e11b6064820152608401610aa3565b6119c6565b60006118c482612796565b60c9549092506001600160a01b0316905063430c20816118e2611f03565b6040516001600160e01b031960e084901b1681526001600160a01b0390911660048201526024810184905260440160206040518083038186803b15801561192857600080fd5b505afa15801561193c573d6000803e3d6000fd5b505050506040513d601f19601f820116820180604052508101906119609190613187565b6119c45760405162461bcd60e51b815260206004820152602f60248201527f4d696e74696e674d616e616765723a2053454e4445525f49535f4e4f545f415060448201526e282927ab22a22fa7a92fa7aba722a960891b6064820152608401610aa3565b505b6119d086886137b3565b600281511015611a305760405162461bcd60e51b815260206004820152602560248201527f4d696e74696e674d616e616765723a204c4142454c535f4c454e4754485f42456044820152642627abaf9960d91b6064820152608401610aa3565b611a6d8160018351611a42919061379c565b81518110611a6057634e487b7160e01b600052603260045260246000fd5b60200260200101516127fc565b611a895760405162461bcd60e51b8152600401610aa390613664565b6000611ac88260028451611a9d919061379c565b81518110611abb57634e487b7160e01b600052603260045260246000fd5b6020026020010151611e97565b9050600a81600001511115611b1457611ae7610de4826000600a611ec4565b6000805160206139978339815191521415611b145760405162461bcd60e51b8152600401610aa3906135bf565b611b1c611119565b15611b395760405162461bcd60e51b8152600401610aa39061363a565b611b478a6110898a8c6137b3565b50505050505050505050565b600082815260976020526040902060010154611b6e8161219d565b610e9c838361224d565b611b83610729611f03565b611b9f5760405162461bcd60e51b8152600401610aa390613605565b610f3f828261281c565b611bb1612079565b611bba81611e71565b611bd65760405162461bcd60e51b8152600401610aa390613664565b600081815260cd60205260408120611bed91612d63565b60405181907f0aa1aff0f830e739d86baf0e6624d6763da02f7733575e0e463886cd062dea6a90600090a250565b611c23612079565b611c2c81612868565b610eb26000826128de565b600054610100900460ff16611c5e5760405162461bcd60e51b8152600401610aa3906136a6565b610e75611c69611f03565b612653565b600054610100900460ff16611c955760405162461bcd60e51b8152600401610aa3906136a6565b610e756000611ca2611f03565b6128de565b600054610100900460ff166116075760405162461bcd60e51b8152600401610aa3906136a6565b600054610100900460ff16611cf55760405162461bcd60e51b8152600401610aa3906136a6565b60006000805160206139778339815191525b805460ff1916911515919091179055565b600054610100900460ff16611d3f5760405162461bcd60e51b8152600401610aa3906136a6565b6000600080516020613957833981519152611d07565b6000611d626000836128e8565b600081815260cd602090815260409091208451929350611d86929091850190612d9d565b50807f4fce6f6e172b04eaa80325d8e3b0180a34945000f3e214605039e8420fdf898083604051611db791906135ac565b60405180910390a260c954604051634f558e7960e01b8152600481018390526001600160a01b0390911690634f558e799060240160206040518083038186803b158015611e0357600080fd5b505afa158015611e17573d6000803e3d6000fd5b505050506040513d601f19601f82011682018060405250810190611e3b9190613187565b610f3f5760c9546040516307befae360e51b81526001600160a01b039091169063f7df5c609061154a90849086906004016136f1565b600081815260cd602052604081208054829190611e8d906138bf565b9050119050919050565b60408051808201825260008082526020918201528151808301909252825182529182019181019190915290565b60408051808201909152600080825260208201526040518060400160405280838152602001848660200151611ef99190613765565b9052949350505050565b6000611f0d61299d565b905090565b60608282604051602001611f279291906133a1565b604051602081830303815290604052905092915050565b604080516002808252606082810190935260009190816020015b6060815260200190600190039081611f585790505090508281600081518110611f9157634e487b7160e01b600052603260045260246000fd5b602002602001018190525060cd60008581526020019081526020016000208054611fba906138bf565b80601f0160208091040260200160405190810160405280929190818152602001828054611fe6906138bf565b80156120335780601f1061200857610100808354040283529160200191612033565b820191906000526020600020905b81548152906001019060200180831161201657829003601f168201915b50505050508160018151811061205957634e487b7160e01b600052603260045260246000fd5b60209081029190910101529392505050565b6060610e9c838383846122d2565b612081611f03565b6001600160a01b031661209c6033546001600160a01b031690565b6001600160a01b031614610e755760405162461bcd60e51b815260206004820181905260248201527f4f776e61626c653a2063616c6c6572206973206e6f7420746865206f776e65726044820152606401610aa3565b6120fa6109ef565b1561213d5760405162461bcd60e51b8152602060048201526013602482015272109b1bd8dadb1a5cdd0e88111254d050931151606a1b6044820152606401610aa3565b600080516020613977833981519152805460ff191660011790557f079c4efaefd9fc7ddb28144b9b0140c03f42922d28d0e226369d607092158166612180611f03565b6040516001600160a01b03909116815260200160405180910390a1565b610eb2816121a9611f03565b6129e4565b6121b88282611443565b610f3f5760008281526097602090815260408083206001600160a01b03851684529091529020805460ff191660011790556121f1611f03565b6001600160a01b0316816001600160a01b0316837f2f8788117e7eff1d82e926ec794901d17c78024a50270940304540a733656f0d60405160405180910390a45050565b610eb26000805160206139b783398151915282611b53565b6122578282611443565b15610f3f5760008281526097602090815260408083206001600160a01b03851684529091529020805460ff1916905561228e611f03565b6001600160a01b0316816001600160a01b0316837ff6391f5c32d9c69d2a47ea670b442974b53935d1edc7fd64eb21e047a839171b60405160405180910390a45050565b60006122dd84612796565b509050306122ea82612a48565b6001600160a01b031614156123665760c95460405163037b8ed760e21b81526001600160a01b0390911690630dee3b5c9061232f9088908590889088906004016134c8565b600060405180830381600087803b15801561234957600080fd5b505af115801561235d573d6000803e3d6000fd5b505050506124da565b61236f81612ac9565b61237884612b2b565b8015612385575083516002145b156124715760ca5484516001600160a01b039091169063c36c212590879087906000906123c257634e487b7160e01b600052603260045260246000fd5b602090810291909101015160cc546040516001600160e01b031960e086901b1681526123fc9392916001600160a01b031690600401613493565b600060405180830381600087803b15801561241657600080fd5b505af115801561242a573d6000803e3d6000fd5b5050505060008351111561246c5760cc54604051633a0deb9d60e21b81526001600160a01b039091169063e837ae749061232f90869086908690600401613547565b6124da565b60c954604051637d67df6360e01b81526001600160a01b0390911690637d67df63906124a790889088908890889060040161343e565b600060405180830381600087803b1580156124c157600080fd5b505af11580156124d5573d6000803e3d6000fd5b505050505b5050505050565b6124e9611119565b61252c5760405162461bcd60e51b815260206004820152601460248201527314185d5cd8589b194e881393d517d4105554d15160621b6044820152606401610aa3565b600080516020613957833981519152805460ff191690557f5db9ee0a495bf2e6ff9c91a7834c1ba4fdd244a5e8aa4e537bd38aeae4b073aa612180611f03565b6125746109ef565b156125b75760405162461bcd60e51b8152602060048201526013602482015272109b1bd8dadb1a5cdd0e88111254d050931151606a1b6044820152606401610aa3565b604080517f1ec047073e2c8b15660901dbfdb6e3ff6365bd699dd9f95dcc6eab5448bebd6960208201529081018290526001906125f6906060016115dc565b805460ff19169115159190911790556040518181527f2ce5d9351b1d590d5a066db0d2dc7602d55f092506a83a7ee8c4d78ee357d75a9060200160405180910390a150565b610eb26000805160206139b7833981519152826128de565b603380546001600160a01b038381166001600160a01b0319831681179093556040519116919082907f8be0079c531659141344cd1fd0a4f28419497f9722a3daafe3b4186f6b6457e090600090a35050565b6126ad611119565b156126ca5760405162461bcd60e51b8152600401610aa39061363a565b600080516020613957833981519152805460ff191660011790557f62e78cea01bee320cd4e420270b5ea74000d11b0c9f74754ebdbfc544b05a258612180611f03565b6127156109ef565b6127565760405162461bcd60e51b8152602060048201526012602482015271109b1bd8dadb1a5cdd0e881153905093115160721b6044820152606401610aa3565b600080516020613977833981519152805460ff191690557f316c4cec74b9568f102eda30781a2fe8cd5172329bf1401e804cb8c5131715c4612180611f03565b805160009081905b80156127f6578291506127e282856127b760018561379c565b815181106127d557634e487b7160e01b600052603260045260246000fd5b60200260200101516128e8565b9250806127ee816138a8565b91505061279e565b50915091565b60008061280a6000846128e8565b905061281581611e71565b9392505050565b60005b81811015610e9c5761285683838381811061284a57634e487b7160e01b600052603260045260246000fd5b9050602002013561256c565b80612860816138fa565b91505061281f565b612870612079565b6001600160a01b0381166128d55760405162461bcd60e51b815260206004820152602660248201527f4f776e61626c653a206e6577206f776e657220697320746865207a65726f206160448201526564647265737360d01b6064820152608401610aa3565b610eb281612653565b610f3f82826121ae565b600081516000141561293c5760405162461bcd60e51b815260206004820152601b60248201527f4d696e74696e674d616e616765723a204c4142454c5f454d50545900000000006044820152606401610aa3565b828260405160200161294e9190613385565b6040516020818303038152906040528051906020012060405160200161297e929190918252602082015260400190565b60408051601f1981840301815291905280516020909101209392505050565b7f893ef2ea16c023f61d4f55d3e6ee3fc3f2fbfd478461323dbc2fbf919047086e546000906001600160a01b03163314156129df575060331936013560601c90565b503390565b6129ee8282611443565b610f3f57612a06816001600160a01b03166014612b82565b612a11836020612b82565b604051602001612a229291906133c9565b60408051601f198184030181529082905262461bcd60e51b8252610aa3916004016135ac565b60c9546040516331a9108f60e11b8152600481018390526000916001600160a01b031690636352211e9060240160206040518083038186803b158015612a8d57600080fd5b505afa925050508015612abd575060408051601f3d908101601f19168201909252612aba91810190612eda565b60015b61091257506000919050565b612ad16109ef565b610eb257612ade81611592565b156110e65760405162461bcd60e51b815260206004820152601d60248201527f4d696e74696e674d616e616765723a20544f4b454e5f424c4f434b45440000006044820152606401610aa3565b600080612b42600084600186516127b7919061379c565b60ca549091506001600160a01b03161580159061281557507f0f4a10a4f46c288cea365fcf45cccf0e9d901b945b9829ccdb54c10dc3cb7a6f1492915050565b60606000612b9183600261377d565b612b9c906002613765565b6001600160401b03811115612bc157634e487b7160e01b600052604160045260246000fd5b6040519080825280601f01601f191660200182016040528015612beb576020820181803683370190505b509050600360fc1b81600081518110612c1457634e487b7160e01b600052603260045260246000fd5b60200101906001600160f81b031916908160001a905350600f60fb1b81600181518110612c5157634e487b7160e01b600052603260045260246000fd5b60200101906001600160f81b031916908160001a9053506000612c7584600261377d565b612c80906001613765565b90505b6001811115612d14576f181899199a1a9b1b9c1cb0b131b232b360811b85600f1660108110612cc257634e487b7160e01b600052603260045260246000fd5b1a60f81b828281518110612ce657634e487b7160e01b600052603260045260246000fd5b60200101906001600160f81b031916908160001a90535060049490941c93612d0d816138a8565b9050612c83565b5083156128155760405162461bcd60e51b815260206004820181905260248201527f537472696e67733a20686578206c656e67746820696e73756666696369656e746044820152606401610aa3565b508054612d6f906138bf565b6000825580601f10612d7f575050565b601f016020900490600052602060002090810190610eb29190612e21565b828054612da9906138bf565b90600052602060002090601f016020900481019282612dcb5760008555612e11565b82601f10612de457805160ff1916838001178555612e11565b82800160010185558215612e11579182015b82811115612e11578251825591602001919060010190612df6565b50612e1d929150612e21565b5090565b5b80821115612e1d5760008155600101612e22565b60008083601f840112612e47578182fd5b5081356001600160401b03811115612e5d578182fd5b6020830191508360208260051b8501011115612e7857600080fd5b9250929050565b60008083601f840112612e90578182fd5b5081356001600160401b03811115612ea6578182fd5b602083019150836020828501011115612e7857600080fd5b600060208284031215612ecf578081fd5b813561281581613941565b600060208284031215612eeb578081fd5b815161281581613941565b60008060008060008060006080888a031215612f10578283fd5b8735612f1b81613941565b965060208801356001600160401b0380821115612f36578485fd5b612f428b838c01612e36565b909850965060408a0135915080821115612f5a578485fd5b612f668b838c01612e36565b909650945060608a0135915080821115612f7e578384fd5b50612f8b8a828b01612e36565b989b979a50959850939692959293505050565b60008060008060608587031215612fb3578384fd5b8435612fbe81613941565b93506020850135925060408501356001600160401b03811115612fdf578283fd5b612feb87828801612e7f565b95989497509550505050565b60008060008060008060008060a0898b031215613012578182fd5b883561301d81613941565b97506020890135965060408901356001600160401b038082111561303f578384fd5b61304b8c838d01612e7f565b909850965060608b0135915080821115613063578384fd5b61306f8c838d01612e36565b909650945060808b0135915080821115613087578384fd5b506130948b828c01612e36565b999c989b5096995094979396929594505050565b600080602083850312156130ba578182fd5b82356001600160401b038111156130cf578283fd5b6130db85828601612e36565b90969095509350505050565b600060208083850312156130f9578182fd5b82356001600160401b0381111561310e578283fd5b8301601f8101851361311e578283fd5b803561313161312c82613742565b613712565b80828252848201915084840188868560051b8701011115613150578687fd5b8694505b8385101561317b57803561316781613941565b835260019490940193918501918501613154565b50979650505050505050565b600060208284031215613198578081fd5b81518015158114612815578182fd5b6000602082840312156131b8578081fd5b5035919050565b600080604083850312156131d1578182fd5b8235915060208301356131e381613941565b809150509250929050565b6000602082840312156131ff578081fd5b81356001600160e01b031981168114612815578182fd5b600080600080600060a0868803121561322d578283fd5b853561323881613941565b9450602086013561324881613941565b9350604086013561325881613941565b9250606086013561326881613941565b9150608086013561327881613941565b809150509295509295909350565b60008060208385031215613298578182fd5b82356001600160401b038111156132ad578283fd5b6130db85828601612e7f565b6000806000604084860312156132cd578081fd5b8335925060208401356001600160401b038111156132e9578182fd5b6132f586828701612e7f565b9497909650939450505050565b600082825180855260208086019550808260051b840101818601855b8481101561334c57601f1986840301895261333a838351613359565b9884019892509083019060010161331e565b5090979650505050505050565b60008151808452613371816020860160208601613878565b601f01601f19169290920160200192915050565b60008251613397818460208701613878565b9190910192915050565b6b756e732d646576746573742d60a01b81528183600c83013760009101600c01908152919050565b7f416363657373436f6e74726f6c3a206163636f756e7420000000000000000000815260008351613401816017850160208801613878565b7001034b99036b4b9b9b4b733903937b6329607d1b6017918401918201528351613432816028840160208801613878565b01602801949350505050565b6001600160a01b038516815260806020820181905260009061346290830186613302565b82810360408401526134748186613302565b905082810360608401526134888185613302565b979650505050505050565b600060018060a01b038086168352606060208401526134b56060840186613359565b9150808416604084015250949350505050565b60018060a01b03851681528360208201526080604082015260006134ef6080830185613302565b82810360608401526134888185613302565b6020808252825182820181905260009190848201906040850190845b8181101561353b57835115158352928401929184019160010161351d565b50909695505050505050565b60608152600061355a6060830186613302565b828103602084015261356c8186613302565b915050826040830152949350505050565b60208152816020820152818360408301376000818301604090810191909152601f909201601f19160101919050565b6020815260006128156020830184613359565b60208082526026908201527f4d696e74696e674d616e616765723a20544f4b454e5f4c4142454c5f50524f4860408201526512509255115160d21b606082015260800190565b6020808252818101527f4d696e746572526f6c653a2043414c4c45525f49535f4e4f545f4d494e544552604082015260600190565b60208082526010908201526f14185d5cd8589b194e8814105554d15160821b604082015260600190565b60208082526022908201527f4d696e74696e674d616e616765723a20544c445f4e4f545f5245474953544552604082015261115160f21b606082015260800190565b6020808252602b908201527f496e697469616c697a61626c653a20636f6e7472616374206973206e6f74206960408201526a6e697469616c697a696e6760a81b606082015260800190565b82815260406020820152600061370a6040830184613359565b949350505050565b604051601f8201601f191681016001600160401b038111828210171561373a5761373a61392b565b604052919050565b60006001600160401b0382111561375b5761375b61392b565b5060051b60200190565b6000821982111561377857613778613915565b500190565b600081600019048311821515161561379757613797613915565b500290565b6000828210156137ae576137ae613915565b500390565b60006137c161312c84613742565b808482526020808301925084368760051b870111156137de578485fd5b845b8781101561386c5781356001600160401b03808211156137fe578788fd5b90880190601f3681840112613811578889fd5b8235828111156138235761382361392b565b613834818301601f19168801613712565b9250808352368782860101111561384957898afd5b8087850188850137820186018990525086525093820193908201906001016137e0565b50919695505050505050565b60005b8381101561389357818101518382015260200161387b565b838111156138a2576000848401525b50505050565b6000816138b7576138b7613915565b506000190190565b600181811c908216806138d357607f821691505b602082108114156138f457634e487b7160e01b600052602260045260246000fd5b50919050565b600060001982141561390e5761390e613915565b5060010190565b634e487b7160e01b600052601160045260246000fd5b634e487b7160e01b600052604160045260246000fd5b6001600160a01b0381168114610eb257600080fdfe5496787fc1ebdfeba375028c1865f13fbb1d63c0caa356ccc1b29a80f3ebd622a85b8425a460dd344a297bd4a82e287385f0fc558cb3e78867b0489f43df2470b551e0305c8163b812374b8e78b577c77f226f6f10c5ad03e52699578fbc34b89f2df0fed2c77648de5860a4cc508cd0818c85b8b8a1ab4ceeef8d981c8956a6a164736f6c6343000804000a",
  "linkReferences": {},
  "deployedLinkReferences": {}
}