{
  "_format": "hh-sol-artifact-1",
  "contractName": "MintingManager",
  "sourceName": "contracts/MintingManager.sol",
  "abi": [
    {
      "anonymous": false,
      "inputs": [
        {
          "indexed": false,
          "internalType": "address",
          "name": "previousAdmin",
          "type": "address"
        },
        {
          "indexed": false,
          "internalType": "address",
          "name": "newAdmin",
          "type": "address"
        }
      ],
      "name": "AdminChanged",
      "type": "event"
    },
    {
      "anonymous": false,
      "inputs": [
        {
          "indexed": false,
          "internalType": "uint256",
          "name": "tokenId",
          "type": "uint256"
        }
      ],
      "name": "Blocked",
      "type": "event"
    },
    {
      "anonymous": false,
      "inputs": [
        {
          "indexed": false,
          "internalType": "address",
          "name": "account",
          "type": "address"
        }
      ],
      "name": "BlocklistDisabled",
      "type": "event"
    },
    {
      "anonymous": false,
      "inputs": [
        {
          "indexed": false,
          "internalType": "address",
          "name": "account",
          "type": "address"
        }
      ],
      "name": "BlocklistEnabled",
      "type": "event"
    },
    {
      "anonymous": false,
      "inputs": [
        {
          "indexed": false,
          "internalType": "uint8",
          "name": "version",
          "type": "uint8"
        }
      ],
      "name": "Initialized",
      "type": "event"
    },
    {
      "anonymous": false,
      "inputs": [
        {
          "indexed": true,
          "internalType": "uint256",
          "name": "tokenId",
          "type": "uint256"
        },
        {
          "indexed": false,
          "internalType": "string",
          "name": "tld",
          "type": "string"
        }
      ],
      "name": "NewTld",
      "type": "event"
    },
    {
      "anonymous": false,
      "inputs": [
        {
          "indexed": true,
          "internalType": "address",
          "name": "previousOwner",
          "type": "address"
        },
        {
          "indexed": true,
          "internalType": "address",
          "name": "newOwner",
          "type": "address"
        }
      ],
      "name": "OwnershipTransferred",
      "type": "event"
    },
    {
      "anonymous": false,
      "inputs": [
        {
          "indexed": false,
          "internalType": "address",
          "name": "account",
          "type": "address"
        }
      ],
      "name": "Paused",
      "type": "event"
    },
    {
      "anonymous": false,
      "inputs": [
        {
          "indexed": true,
          "internalType": "uint256",
          "name": "tokenId",
          "type": "uint256"
        }
      ],
      "name": "RemoveTld",
      "type": "event"
    },
    {
      "anonymous": false,
      "inputs": [
        {
          "indexed": true,
          "internalType": "bytes32",
          "name": "role",
          "type": "bytes32"
        },
        {
          "indexed": true,
          "internalType": "bytes32",
          "name": "previousAdminRole",
          "type": "bytes32"
        },
        {
          "indexed": true,
          "internalType": "bytes32",
          "name": "newAdminRole",
          "type": "bytes32"
        }
      ],
      "name": "RoleAdminChanged",
      "type": "event"
    },
    {
      "anonymous": false,
      "inputs": [
        {
          "indexed": true,
          "internalType": "bytes32",
          "name": "role",
          "type": "bytes32"
        },
        {
          "indexed": true,
          "internalType": "address",
          "name": "account",
          "type": "address"
        },
        {
          "indexed": true,
          "internalType": "address",
          "name": "sender",
          "type": "address"
        }
      ],
      "name": "RoleGranted",
      "type": "event"
    },
    {
      "anonymous": false,
      "inputs": [
        {
          "indexed": true,
          "internalType": "bytes32",
          "name": "role",
          "type": "bytes32"
        },
        {
          "indexed": true,
          "internalType": "address",
          "name": "account",
          "type": "address"
        },
        {
          "indexed": true,
          "internalType": "address",
          "name": "sender",
          "type": "address"
        }
      ],
      "name": "RoleRevoked",
      "type": "event"
    },
    {
      "anonymous": false,
      "inputs": [
        {
          "indexed": false,
          "internalType": "address",
          "name": "account",
          "type": "address"
        }
      ],
      "name": "Unpaused",
      "type": "event"
    },
    {
      "anonymous": false,
      "inputs": [
        {
          "indexed": true,
          "internalType": "address",
          "name": "implementation",
          "type": "address"
        }
      ],
      "name": "Upgraded",
      "type": "event"
    },
    {
      "inputs": [],
      "name": "DEFAULT_ADMIN_ROLE",
      "outputs": [
        {
          "internalType": "bytes32",
          "name": "",
          "type": "bytes32"
        }
      ],
      "stateMutability": "view",
      "type": "function"
    },
    {
      "inputs": [],
      "name": "MINTER_ROLE",
      "outputs": [
        {
          "internalType": "bytes32",
          "name": "",
          "type": "bytes32"
        }
      ],
      "stateMutability": "view",
      "type": "function"
    },
    {
      "inputs": [],
      "name": "NAME",
      "outputs": [
        {
          "internalType": "string",
          "name": "",
          "type": "string"
        }
      ],
      "stateMutability": "view",
      "type": "function"
    },
    {
      "inputs": [],
      "name": "VERSION",
      "outputs": [
        {
          "internalType": "string",
          "name": "",
          "type": "string"
        }
      ],
      "stateMutability": "view",
      "type": "function"
    },
    {
      "inputs": [
        {
          "internalType": "address",
          "name": "account",
          "type": "address"
        }
      ],
      "name": "addMinter",
      "outputs": [],
      "stateMutability": "nonpayable",
      "type": "function"
    },
    {
      "inputs": [
        {
          "internalType": "address[]",
          "name": "accounts",
          "type": "address[]"
        }
      ],
      "name": "addMinters",
      "outputs": [],
      "stateMutability": "nonpayable",
      "type": "function"
    },
    {
      "inputs": [
        {
          "internalType": "address[]",
          "name": "addrs",
          "type": "address[]"
        }
      ],
      "name": "addProxyReaders",
      "outputs": [],
      "stateMutability": "nonpayable",
      "type": "function"
    },
    {
      "inputs": [
        {
          "internalType": "string",
          "name": "tld",
          "type": "string"
        }
      ],
      "name": "addTld",
      "outputs": [],
      "stateMutability": "nonpayable",
      "type": "function"
    },
    {
      "inputs": [
        {
          "internalType": "uint256[]",
          "name": "tokenIds",
          "type": "uint256[]"
        }
      ],
      "name": "areBlocked",
      "outputs": [
        {
          "internalType": "bool[]",
          "name": "values",
          "type": "bool[]"
        }
      ],
      "stateMutability": "view",
      "type": "function"
    },
    {
      "inputs": [
        {
          "internalType": "uint256",
          "name": "tokenId",
          "type": "uint256"
        }
      ],
      "name": "blocklist",
      "outputs": [],
      "stateMutability": "nonpayable",
      "type": "function"
    },
    {
      "inputs": [
        {
          "internalType": "uint256[]",
          "name": "tokenIds",
          "type": "uint256[]"
        }
      ],
      "name": "blocklistAll",
      "outputs": [],
      "stateMutability": "nonpayable",
      "type": "function"
    },
    {
      "inputs": [
        {
          "internalType": "uint256",
          "name": "tld",
          "type": "uint256"
        },
        {
          "internalType": "string",
          "name": "label",
          "type": "string"
        }
      ],
      "name": "claim",
      "outputs": [],
      "stateMutability": "nonpayable",
      "type": "function"
    },
    {
      "inputs": [
        {
          "internalType": "address",
          "name": "to",
          "type": "address"
        },
        {
          "internalType": "uint256",
          "name": "tld",
          "type": "uint256"
        },
        {
          "internalType": "string",
          "name": "label",
          "type": "string"
        }
      ],
      "name": "claimTo",
      "outputs": [],
      "stateMutability": "nonpayable",
      "type": "function"
    },
    {
      "inputs": [
        {
          "internalType": "address",
          "name": "to",
          "type": "address"
        },
        {
          "internalType": "uint256",
          "name": "tld",
          "type": "uint256"
        },
        {
          "internalType": "string",
          "name": "label",
          "type": "string"
        },
        {
          "internalType": "string[]",
          "name": "keys",
          "type": "string[]"
        },
        {
          "internalType": "string[]",
          "name": "values",
          "type": "string[]"
        }
      ],
      "name": "claimToWithRecords",
      "outputs": [],
      "stateMutability": "nonpayable",
      "type": "function"
    },
    {
      "inputs": [
        {
          "internalType": "address payable",
          "name": "receiver",
          "type": "address"
        }
      ],
      "name": "closeMinter",
      "outputs": [],
      "stateMutability": "payable",
      "type": "function"
    },
    {
      "inputs": [],
      "name": "cnsMintingController",
      "outputs": [
        {
          "internalType": "contract IMintingController",
          "name": "",
          "type": "address"
        }
      ],
      "stateMutability": "view",
      "type": "function"
    },
    {
      "inputs": [],
      "name": "cnsResolver",
      "outputs": [
        {
          "internalType": "contract IResolver",
          "name": "",
          "type": "address"
        }
      ],
      "stateMutability": "view",
      "type": "function"
    },
    {
      "inputs": [],
      "name": "cnsURIPrefixController",
      "outputs": [
        {
          "internalType": "contract IURIPrefixController",
          "name": "",
          "type": "address"
        }
      ],
      "stateMutability": "view",
      "type": "function"
    },
    {
      "inputs": [],
      "name": "disableBlocklist",
      "outputs": [],
      "stateMutability": "nonpayable",
      "type": "function"
    },
    {
      "inputs": [],
      "name": "enableBlocklist",
      "outputs": [],
      "stateMutability": "nonpayable",
      "type": "function"
    },
    {
      "inputs": [
        {
          "internalType": "bytes32",
          "name": "role",
          "type": "bytes32"
        }
      ],
      "name": "getRoleAdmin",
      "outputs": [
        {
          "internalType": "bytes32",
          "name": "",
          "type": "bytes32"
        }
      ],
      "stateMutability": "view",
      "type": "function"
    },
    {
      "inputs": [
        {
          "internalType": "bytes32",
          "name": "role",
          "type": "bytes32"
        },
        {
          "internalType": "address",
          "name": "account",
          "type": "address"
        }
      ],
      "name": "grantRole",
      "outputs": [],
      "stateMutability": "nonpayable",
      "type": "function"
    },
    {
      "inputs": [
        {
          "internalType": "bytes32",
          "name": "role",
          "type": "bytes32"
        },
        {
          "internalType": "address",
          "name": "account",
          "type": "address"
        }
      ],
      "name": "hasRole",
      "outputs": [
        {
          "internalType": "bool",
          "name": "",
          "type": "bool"
        }
      ],
      "stateMutability": "view",
      "type": "function"
    },
    {
      "inputs": [
        {
          "internalType": "contract IUNSRegistry",
          "name": "unsRegistry_",
          "type": "address"
        },
        {
          "internalType": "contract IMintingController",
          "name": "cnsMintingController_",
          "type": "address"
        },
        {
          "internalType": "contract IURIPrefixController",
          "name": "cnsURIPrefixController_",
          "type": "address"
        },
        {
          "internalType": "contract IResolver",
          "name": "cnsResolver_",
          "type": "address"
        },
        {
          "internalType": "address",
          "name": "forwarder",
          "type": "address"
        }
      ],
      "name": "initialize",
      "outputs": [],
      "stateMutability": "nonpayable",
      "type": "function"
    },
    {
      "inputs": [
        {
          "internalType": "uint256",
          "name": "tokenId",
          "type": "uint256"
        }
      ],
      "name": "isBlocked",
      "outputs": [
        {
          "internalType": "bool",
          "name": "",
          "type": "bool"
        }
      ],
      "stateMutability": "view",
      "type": "function"
    },
    {
      "inputs": [],
      "name": "isBlocklistDisabled",
      "outputs": [
        {
          "internalType": "bool",
          "name": "",
          "type": "bool"
        }
      ],
      "stateMutability": "view",
      "type": "function"
    },
    {
      "inputs": [
        {
          "internalType": "address",
          "name": "account",
          "type": "address"
        }
      ],
      "name": "isMinter",
      "outputs": [
        {
          "internalType": "bool",
          "name": "",
          "type": "bool"
        }
      ],
      "stateMutability": "view",
      "type": "function"
    },
    {
      "inputs": [
        {
          "internalType": "address",
          "name": "forwarder",
          "type": "address"
        }
      ],
      "name": "isTrustedForwarder",
      "outputs": [
        {
          "internalType": "bool",
          "name": "",
          "type": "bool"
        }
      ],
      "stateMutability": "view",
      "type": "function"
    },
    {
      "inputs": [
        {
          "internalType": "address",
          "name": "to",
          "type": "address"
        },
        {
          "internalType": "string[]",
          "name": "labels",
          "type": "string[]"
        },
        {
          "internalType": "string[]",
          "name": "keys",
          "type": "string[]"
        },
        {
          "internalType": "string[]",
          "name": "values",
          "type": "string[]"
        }
      ],
      "name": "issueWithRecords",
      "outputs": [],
      "stateMutability": "nonpayable",
      "type": "function"
    },
    {
      "inputs": [
        {
          "internalType": "address",
          "name": "to",
          "type": "address"
        },
        {
          "internalType": "uint256",
          "name": "tld",
          "type": "uint256"
        },
        {
          "internalType": "string",
          "name": "label",
          "type": "string"
        }
      ],
      "name": "mintSLD",
      "outputs": [],
      "stateMutability": "nonpayable",
      "type": "function"
    },
    {
      "inputs": [
        {
          "internalType": "address",
          "name": "to",
          "type": "address"
        },
        {
          "internalType": "uint256",
          "name": "tld",
          "type": "uint256"
        },
        {
          "internalType": "string",
          "name": "label",
          "type": "string"
        },
        {
          "internalType": "string[]",
          "name": "keys",
          "type": "string[]"
        },
        {
          "internalType": "string[]",
          "name": "values",
          "type": "string[]"
        }
      ],
      "name": "mintSLDWithRecords",
      "outputs": [],
      "stateMutability": "nonpayable",
      "type": "function"
    },
    {
      "inputs": [],
      "name": "owner",
      "outputs": [
        {
          "internalType": "address",
          "name": "",
          "type": "address"
        }
      ],
      "stateMutability": "view",
      "type": "function"
    },
    {
      "inputs": [],
      "name": "pause",
      "outputs": [],
      "stateMutability": "nonpayable",
      "type": "function"
    },
    {
      "inputs": [],
      "name": "paused",
      "outputs": [
        {
          "internalType": "bool",
          "name": "",
          "type": "bool"
        }
      ],
      "stateMutability": "view",
      "type": "function"
    },
    {
      "inputs": [
        {
          "internalType": "address",
          "name": "account",
          "type": "address"
        }
      ],
      "name": "removeMinter",
      "outputs": [],
      "stateMutability": "nonpayable",
      "type": "function"
    },
    {
      "inputs": [
        {
          "internalType": "address[]",
          "name": "accounts",
          "type": "address[]"
        }
      ],
      "name": "removeMinters",
      "outputs": [],
      "stateMutability": "nonpayable",
      "type": "function"
    },
    {
      "inputs": [
        {
          "internalType": "uint256",
          "name": "tld",
          "type": "uint256"
        }
      ],
      "name": "removeTld",
      "outputs": [],
      "stateMutability": "nonpayable",
      "type": "function"
    },
    {
      "inputs": [],
      "name": "renounceMinter",
      "outputs": [],
      "stateMutability": "nonpayable",
      "type": "function"
    },
    {
      "inputs": [],
      "name": "renounceOwnership",
      "outputs": [],
      "stateMutability": "nonpayable",
      "type": "function"
    },
    {
      "inputs": [
        {
          "internalType": "bytes32",
          "name": "role",
          "type": "bytes32"
        },
        {
          "internalType": "address",
          "name": "account",
          "type": "address"
        }
      ],
      "name": "renounceRole",
      "outputs": [],
      "stateMutability": "nonpayable",
      "type": "function"
    },
    {
      "inputs": [
        {
          "internalType": "bytes32",
          "name": "role",
          "type": "bytes32"
        },
        {
          "internalType": "address",
          "name": "account",
          "type": "address"
        }
      ],
      "name": "revokeRole",
      "outputs": [],
      "stateMutability": "nonpayable",
      "type": "function"
    },
    {
      "inputs": [
        {
          "internalType": "address payable",
          "name": "receiver",
          "type": "address"
        }
      ],
      "name": "rotateMinter",
      "outputs": [],
      "stateMutability": "payable",
      "type": "function"
    },
    {
      "inputs": [
        {
          "internalType": "address",
          "name": "forwarder",
          "type": "address"
        }
      ],
      "name": "setForwarder",
      "outputs": [],
      "stateMutability": "nonpayable",
      "type": "function"
    },
    {
      "inputs": [
        {
          "internalType": "address",
          "name": "resolver",
          "type": "address"
        }
      ],
      "name": "setResolver",
      "outputs": [],
      "stateMutability": "nonpayable",
      "type": "function"
    },
    {
      "inputs": [
        {
          "internalType": "string",
          "name": "prefix",
          "type": "string"
        }
      ],
      "name": "setTokenURIPrefix",
      "outputs": [],
      "stateMutability": "nonpayable",
      "type": "function"
    },
    {
      "inputs": [
        {
          "internalType": "bytes4",
          "name": "interfaceId",
          "type": "bytes4"
        }
      ],
      "name": "supportsInterface",
      "outputs": [
        {
          "internalType": "bool",
          "name": "",
          "type": "bool"
        }
      ],
      "stateMutability": "view",
      "type": "function"
    },
    {
      "inputs": [
        {
          "internalType": "address",
          "name": "newOwner",
          "type": "address"
        }
      ],
      "name": "transferOwnership",
      "outputs": [],
      "stateMutability": "nonpayable",
      "type": "function"
    },
    {
      "inputs": [],
      "name": "unpause",
      "outputs": [],
      "stateMutability": "nonpayable",
      "type": "function"
    },
    {
      "inputs": [],
      "name": "unsRegistry",
      "outputs": [
        {
          "internalType": "contract IUNSRegistry",
          "name": "",
          "type": "address"
        }
      ],
      "stateMutability": "view",
      "type": "function"
    },
    {
      "inputs": [
        {
          "internalType": "uint256[]",
          "name": "tokenIds",
          "type": "uint256[]"
        }
      ],
      "name": "upgradeAll",
      "outputs": [],
      "stateMutability": "nonpayable",
      "type": "function"
    }
  ],
  "bytecode": "0x608060405234801561001057600080fd5b50613c14806100206000396000f3fe6080604052600436106102c95760003560e01c8063906cecc111610175578063b0aa98c7116100dc578063d4a32ad611610095578063e47d6cc61161006f578063e47d6cc6146108c6578063ec527389146108e6578063f2fde38b14610906578063ffa1ad741461092657600080fd5b8063d4a32ad614610864578063d539139314610884578063d547741f146108a657600080fd5b8063b0aa98c7146107a4578063b9998a24146107c4578063c3a3bc00146107e4578063cc2c3fc414610804578063ceeb4f5014610824578063d1f5692c1461084457600080fd5b8063a217fddf1161012e578063a217fddf146106c2578063a3f4df7e146106d7578063a849d65c14610724578063aa271e1a14610744578063ae2ad90314610764578063ae31844a1461078457600080fd5b8063906cecc11461061857806390dbdb5a1461063857806391d148541461064d578063983b2d561461066d578063986502751461068d57806399e0dd7c146106a257600080fd5b80633f4ba83a116102345780635fc1964f116101ed57806371e2a657116101c757806371e2a657146105b257806381c81d35146105d25780638456cb59146105e55780638da5cb5b146105fa57600080fd5b80635fc1964f1461056a578063634486da1461058a578063715018a61461059d57600080fd5b80633f4ba83a14610492578063463c4bcb146104a75780634e543b26146104c7578063572b6c05146104e75780635b6fa8db146105355780635c975abb1461055557600080fd5b80632eff1a95116102865780632eff1a95146103c55780632f2ff15d146103da5780633092afd5146103fa57806336568abe1461041a57806339ccf4d01461043a5780633f41b6141461045a57600080fd5b806301ffc9a7146102ce5780630e36a87d1461030357806310921f12146103305780631459457a14610345578063248a9ca314610367578063268b15ed146103a5575b600080fd5b3480156102da57600080fd5b506102ee6102e9366004613421565b610957565b60405190151581526020015b60405180910390f35b34801561030f57600080fd5b5061032361031e3660046132db565b61098e565b6040516102fa91906136f8565b34801561033c57600080fd5b506102ee610a65565b34801561035157600080fd5b50610365610360366004613449565b610a80565b005b34801561037357600080fd5b506103976103823660046133da565b60009081526097602052604090206001015490565b6040519081526020016102fa565b3480156103b157600080fd5b506103656103c03660046134ec565b610db3565b3480156103d157600080fd5b50610365610ebd565b3480156103e657600080fd5b506103656103f53660046133f2565b610ecf565b34801561040657600080fd5b506103656104153660046130f1565b610ef9565b34801561042657600080fd5b506103656104353660046133f2565b610f0d565b34801561044657600080fd5b5061036561045536600461322a565b610f9b565b34801561046657600080fd5b5060c95461047a906001600160a01b031681565b6040516001600160a01b0390911681526020016102fa565b34801561049e57600080fd5b50610365611107565b3480156104b357600080fd5b506103656104c23660046133da565b611117565b3480156104d357600080fd5b506103656104e23660046130f1565b611147565b3480156104f357600080fd5b506102ee6105023660046130f1565b7f893ef2ea16c023f61d4f55d3e6ee3fc3f2fbfd478461323dbc2fbf919047086e546001600160a01b0390811691161490565b34801561054157600080fd5b5060cc5461047a906001600160a01b031681565b34801561056157600080fd5b506102ee611171565b34801561057657600080fd5b5061036561058536600461331a565b611187565b6103656105983660046130f1565b6111dd565b3480156105a957600080fd5b506103656112a0565b3480156105be57600080fd5b506103656105cd36600461331a565b6112b2565b6103656105e03660046130f1565b611308565b3480156105f157600080fd5b50610365611385565b34801561060657600080fd5b506033546001600160a01b031661047a565b34801561062457600080fd5b506103656106333660046131d1565b611395565b34801561064457600080fd5b5061036561148b565b34801561065957600080fd5b506102ee6106683660046133f2565b61149b565b34801561067957600080fd5b506103656106883660046130f1565b6114c6565b34801561069957600080fd5b506103656114d7565b3480156106ae57600080fd5b506103656106bd3660046134b9565b6114f1565b3480156106ce57600080fd5b50610397600081565b3480156106e357600080fd5b50610717604051806040016040528060148152602001732aa7299d1026b4b73a34b7339026b0b730b3b2b960611b81525081565b6040516102fa91906137dd565b34801561073057600080fd5b5060cb5461047a906001600160a01b031681565b34801561075057600080fd5b506102ee61075f3660046130f1565b6115d0565b34801561077057600080fd5b5061036561077f3660046131d1565b6115ea565b34801561079057600080fd5b5061036561079f3660046132db565b611730565b3480156107b057600080fd5b506102ee6107bf3660046133da565b611789565b3480156107d057600080fd5b506103656107df3660046130f1565b6117f6565b3480156107f057600080fd5b506103656107ff3660046134b9565b61183b565b34801561081057600080fd5b5060ca5461047a906001600160a01b031681565b34801561083057600080fd5b5061036561083f36600461322a565b611882565b34801561085057600080fd5b5061036561085f3660046132db565b61196f565b34801561087057600080fd5b5061036561087f366004613129565b611a34565b34801561089057600080fd5b50610397600080516020613be883398151915281565b3480156108b257600080fd5b506103656108c13660046133f2565b611bfb565b3480156108d257600080fd5b506103656108e13660046132db565b611c20565b3480156108f257600080fd5b506103656109013660046133da565b611c51565b34801561091257600080fd5b506103656109213660046130f1565b611cc3565b34801561093257600080fd5b50610717604051806040016040528060058152602001640c0b8ccb8d60da1b81525081565b60006001600160e01b03198216637965db0b60e01b148061098857506301ffc9a760e01b6001600160e01b03198316145b92915050565b6060816001600160401b038111156109b657634e487b7160e01b600052604160045260246000fd5b6040519080825280602002602001820160405280156109df578160200160208202803683370190505b50905060005b82811015610a5e57610a1c848483818110610a1057634e487b7160e01b600052603260045260246000fd5b90506020020135611789565b828281518110610a3c57634e487b7160e01b600052603260045260246000fd5b9115156020928302919091019091015280610a5681613b2b565b9150506109e5565b5092915050565b6000600080516020613ba88339815191525b5460ff16919050565b600054610100900460ff1615808015610aa05750600054600160ff909116105b80610aba5750303b158015610aba575060005460ff166001145b610b225760405162461bcd60e51b815260206004820152602e60248201527f496e697469616c697a61626c653a20636f6e747261637420697320616c72656160448201526d191e481a5b9a5d1a585b1a5e995960921b60648201526084015b60405180910390fd5b6000805460ff191660011790558015610b45576000805461ff0019166101001790555b60c980546001600160a01b038089166001600160a01b03199283161790925560ca805488841690831617905560cb805487841690831617905560cc805492861692909116919091179055610b97611cdf565b610b9f611d16565b610ba882611d4f565b610bb0611d76565b610bb8611dc0565b604080516101a081018252600661016082018181526563727970746f60d01b610180840152825282518084018452908152651dd85b1b195d60d21b602082810191909152808301919091528251808401845260018152600f60fb1b8183015282840152825180840184526003808252621b999d60ea1b82840152606084019190915283518085018552600a815269313637b1b5b1b430b4b760b11b818401526080840152835180850185526007808252663134ba31b7b4b760c91b8285015260a0850191909152845180860186528281526207070760eb1b8185015260c0850152845180860186528281526264616f60e81b8185015260e085015284518086018652918252621e9a5b60ea1b8284015261010084019190915283518085018552908152663837b63cb3b7b760c91b818301526101208301528251808401909352600b83526a756e73746f707061626c6560a81b9083015261014081019190915260005b600b811015610d6357610d518282600b8110610d4757634e487b7160e01b600052603260045260246000fd5b6020020151611dfd565b80610d5b81613b2b565b915050610d1b565b50508015610dab576000805461ff0019169055604051600181527f7f26b83ff96e1f2b6a682f133852f6798a09c465da95921460cefb38474024989060200160405180910390a15b505050505050565b8282828080601f016020809104026020016040519081016040528093929190818152602001838380828437600092019190915250610df69250849150611f199050565b610e125760405162461bcd60e51b8152600401610b1990613895565b6000610e1d82611f3f565b9050600a81600001511115610e7557610e48610e3c826000600a611f6c565b80516020909101512090565b600080516020613bc88339815191521415610e755760405162461bcd60e51b8152600401610b19906137f0565b610e7d611171565b15610e9a5760405162461bcd60e51b8152600401610b199061386b565b610dab610ea5611fab565b610eb888610eb38989611fba565b611fe6565b612113565b610ec5612121565b610ecd61219a565b565b600082815260976020526040902060010154610eea81612245565b610ef48383612256565b505050565b610f01612121565b610f0a816122dd565b50565b610f15611fab565b6001600160a01b0316816001600160a01b031614610f8d5760405162461bcd60e51b815260206004820152602f60248201527f416363657373436f6e74726f6c3a2063616e206f6e6c792072656e6f756e636560448201526e103937b632b9903337b91039b2b63360891b6064820152608401610b19565b610f9782826122f5565b5050565b610fa661075f611fab565b610fc25760405162461bcd60e51b8152600401610b1990613836565b8686868080601f0160208091040260200160405190810160405280939291908181526020018383808284376000920191909152506110059250849150611f199050565b6110215760405162461bcd60e51b8152600401610b1990613895565b600061102c82611f3f565b9050600a816000015111156110785761104b610e3c826000600a611f6c565b600080516020613bc883398151915214156110785760405162461bcd60e51b8152600401610b19906137f0565b611080611171565b1561109d5760405162461bcd60e51b8152600401610b199061386b565b6110fa8b6110e18c8c8c8080601f016020809104026020016040519081016040528093929190818152602001838380828437600092019190915250611fe692505050565b6110eb898b6139e4565b6110f5888a6139e4565b61237a565b5050505050505050505050565b61110f612121565b610ecd612795565b61112261075f611fab565b61113e5760405162461bcd60e51b8152600401610b1990613836565b610f0a81612820565b61114f612121565b60cc80546001600160a01b0319166001600160a01b0392909216919091179055565b6000600080516020613b88833981519152610a77565b61118f612121565b60005b8151811015610f97576111cb8282815181106111be57634e487b7160e01b600052603260045260246000fd5b60200260200101516122dd565b806111d581613b2b565b915050611192565b6111e861075f611fab565b6112045760405162461bcd60e51b8152600401610b1990613836565b6001600160a01b03811661125a5760405162461bcd60e51b815260206004820152601d60248201527f4d696e746572526f6c653a2052454345495645525f49535f454d5054590000006044820152606401610b19565b611263816128ef565b61126b6114d7565b6040516001600160a01b038216903480156108fc02916000818181858888f19350505050158015610f97573d6000803e3d6000fd5b6112a8612121565b610ecd6000612907565b6112ba612121565b60005b8151811015610f97576112f68282815181106112e957634e487b7160e01b600052603260045260246000fd5b60200260200101516128ef565b8061130081613b2b565b9150506112bd565b61131361075f611fab565b61132f5760405162461bcd60e51b8152600401610b1990613836565b6001600160a01b0381166112635760405162461bcd60e51b815260206004820152601d60248201527f4d696e746572526f6c653a2052454345495645525f49535f454d5054590000006044820152606401610b19565b61138d612121565b610ecd612959565b8282828080601f0160208091040260200160405190810160405280939291908181526020018383808284376000920191909152506113d89250849150611f199050565b6113f45760405162461bcd60e51b8152600401610b1990613895565b60006113ff82611f3f565b9050600a8160000151111561144b5761141e610e3c826000600a611f6c565b600080516020613bc8833981519152141561144b5760405162461bcd60e51b8152600401610b19906137f0565b611453611171565b156114705760405162461bcd60e51b8152600401610b199061386b565b61148287610eb888610eb38989611fba565b50505050505050565b611493612121565b610ecd6129c1565b60009182526097602090815260408084206001600160a01b0393909316845291905290205460ff1690565b6114ce612121565b610f0a816128ef565b610ecd600080516020613be8833981519152610435611fab565b6114f9612121565b60c954604051632678375f60e21b81526001600160a01b03909116906399e0dd7c9061152b90859085906004016137ae565b600060405180830381600087803b15801561154557600080fd5b505af1158015611559573d6000803e3d6000fd5b505060cb546001600160a01b0316159150610f9790505760cb54604051632678375f60e21b81526001600160a01b03909116906399e0dd7c906115a290859085906004016137ae565b600060405180830381600087803b1580156115bc57600080fd5b505af1158015610dab573d6000803e3d6000fd5b6000610988600080516020613be88339815191528361149b565b6115f561075f611fab565b6116115760405162461bcd60e51b8152600401610b1990613836565b8282828080601f0160208091040260200160405190810160405280939291908181526020018383808284376000920191909152506116549250849150611f199050565b6116705760405162461bcd60e51b8152600401610b1990613895565b600061167b82611f3f565b9050600a816000015111156116c75761169a610e3c826000600a611f6c565b600080516020613bc883398151915214156116c75760405162461bcd60e51b8152600401610b19906137f0565b6116cf611171565b156116ec5760405162461bcd60e51b8152600401610b199061386b565b61148287610eb88888888080601f016020809104026020016040519081016040528093929190818152602001838380828437600092019190915250611fe692505050565b61173b61075f611fab565b6117575760405162461bcd60e51b8152600401610b1990613836565b60c954604051635718c22560e11b81526001600160a01b039091169063ae31844a906115a29085908590600401613774565b6000611793610a65565b1580156109885750604080517f1ec047073e2c8b15660901dbfdb6e3ff6365bd699dd9f95dcc6eab5448bebd6960208201529081018390526117ec906060015b6040516020818303038152906040528051906020012090565b5460ff1692915050565b6117fe612121565b7f893ef2ea16c023f61d4f55d3e6ee3fc3f2fbfd478461323dbc2fbf919047086e80546001600160a01b0319166001600160a01b03831617905550565b611843612121565b610f9782828080601f016020809104026020016040519081016040528093929190818152602001838380828437600092019190915250611dfd92505050565b8686868080601f0160208091040260200160405190810160405280939291908181526020018383808284376000920191909152506118c59250849150611f199050565b6118e15760405162461bcd60e51b8152600401610b1990613895565b60006118ec82611f3f565b9050600a816000015111156119385761190b610e3c826000600a611f6c565b600080516020613bc883398151915214156119385760405162461bcd60e51b8152600401610b19906137f0565b611940611171565b1561195d5760405162461bcd60e51b8152600401610b199061386b565b6110fa8b6110e18c610eb38d8d611fba565b611977612121565b60005b81811015610ef45760c9546001600160a01b031663509602398484848181106119b357634e487b7160e01b600052603260045260246000fd5b90506020020160208101906119c891906130f1565b6040516001600160e01b031960e084901b1681526001600160a01b039091166004820152602401600060405180830381600087803b158015611a0957600080fd5b505af1158015611a1d573d6000803e3d6000fd5b505050508080611a2c90613b2b565b91505061197a565b611a3f61075f611fab565b611a5b5760405162461bcd60e51b8152600401610b1990613836565b611a6585876139e4565b600281511015611ac55760405162461bcd60e51b815260206004820152602560248201527f4d696e74696e674d616e616765723a204c4142454c535f4c454e4754485f42456044820152642627abaf9960d91b6064820152608401610b19565b611b028160018351611ad791906139cd565b81518110611af557634e487b7160e01b600052603260045260246000fd5b6020026020010151612a4a565b611b1e5760405162461bcd60e51b8152600401610b1990613895565b6000611b5d8260028451611b3291906139cd565b81518110611b5057634e487b7160e01b600052603260045260246000fd5b6020026020010151611f3f565b9050600a81600001511115611ba957611b7c610e3c826000600a611f6c565b600080516020613bc88339815191521415611ba95760405162461bcd60e51b8152600401610b19906137f0565b611bb1611171565b15611bce5760405162461bcd60e51b8152600401610b199061386b565b611bf089611bdc898b6139e4565b611be6888a6139e4565b6110f587896139e4565b505050505050505050565b600082815260976020526040902060010154611c1681612245565b610ef483836122f5565b611c2b61075f611fab565b611c475760405162461bcd60e51b8152600401610b1990613836565b610f978282612a6a565b611c59612121565b611c6281611f19565b611c7e5760405162461bcd60e51b8152600401610b1990613895565b600081815260cd60205260408120611c9591612f96565b60405181907f0aa1aff0f830e739d86baf0e6624d6763da02f7733575e0e463886cd062dea6a90600090a250565b611ccb612121565b611cd481612ab6565b610f0a600082612b2c565b600054610100900460ff16611d065760405162461bcd60e51b8152600401610b19906138d7565b610ecd611d11611fab565b612907565b600054610100900460ff16611d3d5760405162461bcd60e51b8152600401610b19906138d7565b610ecd6000611d4a611fab565b612b2c565b600054610100900460ff166117fe5760405162461bcd60e51b8152600401610b19906138d7565b600054610100900460ff16611d9d5760405162461bcd60e51b8152600401610b19906138d7565b6000600080516020613ba88339815191525b805460ff1916911515919091179055565b600054610100900460ff16611de75760405162461bcd60e51b8152600401610b19906138d7565b6000600080516020613b88833981519152611daf565b6000611e0a600083612b36565b600081815260cd602090815260409091208451929350611e2e929091850190612fd0565b50807f4fce6f6e172b04eaa80325d8e3b0180a34945000f3e214605039e8420fdf898083604051611e5f91906137dd565b60405180910390a260c954604051634f558e7960e01b8152600481018390526001600160a01b0390911690634f558e799060240160206040518083038186803b158015611eab57600080fd5b505afa158015611ebf573d6000803e3d6000fd5b505050506040513d601f19601f82011682018060405250810190611ee391906133ba565b610f975760c9546040516307befae360e51b81526001600160a01b039091169063f7df5c60906115a29084908690600401613922565b600081815260cd602052604081208054829190611f3590613af0565b9050119050919050565b60408051808201825260008082526020918201528151808301909252825182529182019181019190915290565b60408051808201909152600080825260208201526040518060400160405280838152602001848660200151611fa19190613996565b9052949350505050565b6000611fb5612beb565b905090565b60608282604051602001611fcf9291906135d1565b604051602081830303815290604052905092915050565b604080516002808252606082810190935260009190816020015b6060815260200190600190039081612000579050509050828160008151811061203957634e487b7160e01b600052603260045260246000fd5b602002602001018190525060cd6000858152602001908152602001600020805461206290613af0565b80601f016020809104026020016040519081016040528092919081815260200182805461208e90613af0565b80156120db5780601f106120b0576101008083540402835291602001916120db565b820191906000526020600020905b8154815290600101906020018083116120be57829003601f168201915b50505050508160018151811061210157634e487b7160e01b600052603260045260246000fd5b60209081029190910101529392505050565b6060610ef48383838461237a565b612129611fab565b6001600160a01b03166121446033546001600160a01b031690565b6001600160a01b031614610ecd5760405162461bcd60e51b815260206004820181905260248201527f4f776e61626c653a2063616c6c6572206973206e6f7420746865206f776e65726044820152606401610b19565b6121a2610a65565b156121e55760405162461bcd60e51b8152602060048201526013602482015272109b1bd8dadb1a5cdd0e88111254d050931151606a1b6044820152606401610b19565b600080516020613ba8833981519152805460ff191660011790557f079c4efaefd9fc7ddb28144b9b0140c03f42922d28d0e226369d607092158166612228611fab565b6040516001600160a01b03909116815260200160405180910390a1565b610f0a81612251611fab565b612c32565b612260828261149b565b610f975760008281526097602090815260408083206001600160a01b03851684529091529020805460ff19166001179055612299611fab565b6001600160a01b0316816001600160a01b0316837f2f8788117e7eff1d82e926ec794901d17c78024a50270940304540a733656f0d60405160405180910390a45050565b610f0a600080516020613be883398151915282611bfb565b6122ff828261149b565b15610f975760008281526097602090815260408083206001600160a01b03851684529091529020805460ff19169055612336611fab565b6001600160a01b0316816001600160a01b0316837ff6391f5c32d9c69d2a47ea670b442974b53935d1edc7fd64eb21e047a839171b60405160405180910390a45050565b600061238584612c96565b60c954604051634f558e7960e01b8152600481018390529192506001600160a01b031690634f558e799060240160206040518083038186803b1580156123ca57600080fd5b505afa1580156123de573d6000803e3d6000fd5b505050506040513d601f19601f8201168201806040525081019061240291906133ba565b1561261f5760c9546040516331a9108f60e11b81526004810183905230916001600160a01b031690636352211e9060240160206040518083038186803b15801561244b57600080fd5b505afa15801561245f573d6000803e3d6000fd5b505050506040513d601f19601f82011682018060405250810190612483919061310d565b6001600160a01b0316146124e75760405162461bcd60e51b815260206004820152602560248201527f4d696e74696e674d616e616765723a2049535355494e475f554e4f574e45445f6044820152642a27a5a2a760d91b6064820152608401610b19565b60c9546040516376094f7560e11b81526001600160a01b039091169063ec129eea9061251b9086908690869060040161373e565b600060405180830381600087803b15801561253557600080fd5b505af1158015612549573d6000803e3d6000fd5b505060c95460405163743dbf1160e11b81526001600160a01b03898116600483015260248201869052909116925063e87b7e229150604401600060405180830381600087803b15801561259b57600080fd5b505af11580156125af573d6000803e3d6000fd5b505060c95460405163559dc3ff60e11b81526001600160a01b03898116600483015260248201869052909116925063ab3b87fe91506044015b600060405180830381600087803b15801561260257600080fd5b505af1158015612616573d6000803e3d6000fd5b5050505061278e565b61262881612cf3565b61263184612d55565b801561263e575083516002145b1561272a5760ca5484516001600160a01b039091169063c36c2125908790879060009061267b57634e487b7160e01b600052603260045260246000fd5b602090810291909101015160cc546040516001600160e01b031960e086901b1681526126b59392916001600160a01b0316906004016136c3565b600060405180830381600087803b1580156126cf57600080fd5b505af11580156126e3573d6000803e3d6000fd5b505050506000835111156127255760cc54604051633a0deb9d60e21b81526001600160a01b039091169063e837ae74906125e89086908690869060040161373e565b61278e565b60c954604051637d67df6360e01b81526001600160a01b0390911690637d67df639061276090889088908890889060040161366e565b600060405180830381600087803b15801561277a57600080fd5b505af1158015611bf0573d6000803e3d6000fd5b5050505050565b61279d611171565b6127e05760405162461bcd60e51b815260206004820152601460248201527314185d5cd8589b194e881393d517d4105554d15160621b6044820152606401610b19565b600080516020613b88833981519152805460ff191690557f5db9ee0a495bf2e6ff9c91a7834c1ba4fdd244a5e8aa4e537bd38aeae4b073aa612228611fab565b612828610a65565b1561286b5760405162461bcd60e51b8152602060048201526013602482015272109b1bd8dadb1a5cdd0e88111254d050931151606a1b6044820152606401610b19565b604080517f1ec047073e2c8b15660901dbfdb6e3ff6365bd699dd9f95dcc6eab5448bebd6960208201529081018290526001906128aa906060016117d3565b805460ff19169115159190911790556040518181527f2ce5d9351b1d590d5a066db0d2dc7602d55f092506a83a7ee8c4d78ee357d75a9060200160405180910390a150565b610f0a600080516020613be883398151915282612b2c565b603380546001600160a01b038381166001600160a01b0319831681179093556040519116919082907f8be0079c531659141344cd1fd0a4f28419497f9722a3daafe3b4186f6b6457e090600090a35050565b612961611171565b1561297e5760405162461bcd60e51b8152600401610b199061386b565b600080516020613b88833981519152805460ff191660011790557f62e78cea01bee320cd4e420270b5ea74000d11b0c9f74754ebdbfc544b05a258612228611fab565b6129c9610a65565b612a0a5760405162461bcd60e51b8152602060048201526012602482015271109b1bd8dadb1a5cdd0e881153905093115160721b6044820152606401610b19565b600080516020613ba8833981519152805460ff191690557f316c4cec74b9568f102eda30781a2fe8cd5172329bf1401e804cb8c5131715c4612228611fab565b600080612a58600084612b36565b9050612a6381611f19565b9392505050565b60005b81811015610ef457612aa4838383818110612a9857634e487b7160e01b600052603260045260246000fd5b90506020020135612820565b80612aae81613b2b565b915050612a6d565b612abe612121565b6001600160a01b038116612b235760405162461bcd60e51b815260206004820152602660248201527f4f776e61626c653a206e6577206f776e657220697320746865207a65726f206160448201526564647265737360d01b6064820152608401610b19565b610f0a81612907565b610f978282612256565b6000815160001415612b8a5760405162461bcd60e51b815260206004820152601b60248201527f4d696e74696e674d616e616765723a204c4142454c5f454d50545900000000006044820152606401610b19565b8282604051602001612b9c91906135b5565b60405160208183030381529060405280519060200120604051602001612bcc929190918252602082015260400190565b60408051601f1981840301815291905280516020909101209392505050565b7f893ef2ea16c023f61d4f55d3e6ee3fc3f2fbfd478461323dbc2fbf919047086e546000906001600160a01b0316331415612c2d575060331936013560601c90565b503390565b612c3c828261149b565b610f9757612c54816001600160a01b03166014612d77565b612c5f836020612d77565b604051602001612c709291906135f9565b60408051601f198184030181529082905262461bcd60e51b8252610b19916004016137dd565b805160009081905b8015610a5e57612cdf8285612cb46001856139cd565b81518110612cd257634e487b7160e01b600052603260045260246000fd5b6020026020010151612b36565b915080612ceb81613ad9565b915050612c9e565b612cfb610a65565b610f0a57612d0881611789565b1561113e5760405162461bcd60e51b815260206004820152601d60248201527f4d696e74696e674d616e616765723a20544f4b454e5f424c4f434b45440000006044820152606401610b19565b600080612d6c60008460018651612cb491906139cd565b9050612a6381612f58565b60606000612d868360026139ae565b612d91906002613996565b6001600160401b03811115612db657634e487b7160e01b600052604160045260246000fd5b6040519080825280601f01601f191660200182016040528015612de0576020820181803683370190505b509050600360fc1b81600081518110612e0957634e487b7160e01b600052603260045260246000fd5b60200101906001600160f81b031916908160001a905350600f60fb1b81600181518110612e4657634e487b7160e01b600052603260045260246000fd5b60200101906001600160f81b031916908160001a9053506000612e6a8460026139ae565b612e75906001613996565b90505b6001811115612f09576f181899199a1a9b1b9c1cb0b131b232b360811b85600f1660108110612eb757634e487b7160e01b600052603260045260246000fd5b1a60f81b828281518110612edb57634e487b7160e01b600052603260045260246000fd5b60200101906001600160f81b031916908160001a90535060049490941c93612f0281613ad9565b9050612e78565b508315612a635760405162461bcd60e51b815260206004820181905260248201527f537472696e67733a20686578206c656e67746820696e73756666696369656e746044820152606401610b19565b60ca546000906001600160a01b0316158015906109885750507f0f4a10a4f46c288cea365fcf45cccf0e9d901b945b9829ccdb54c10dc3cb7a6f1490565b508054612fa290613af0565b6000825580601f10612fb2575050565b601f016020900490600052602060002090810190610f0a9190613054565b828054612fdc90613af0565b90600052602060002090601f016020900481019282612ffe5760008555613044565b82601f1061301757805160ff1916838001178555613044565b82800160010185558215613044579182015b82811115613044578251825591602001919060010190613029565b50613050929150613054565b5090565b5b808211156130505760008155600101613055565b60008083601f84011261307a578182fd5b5081356001600160401b03811115613090578182fd5b6020830191508360208260051b85010111156130ab57600080fd5b9250929050565b60008083601f8401126130c3578182fd5b5081356001600160401b038111156130d9578182fd5b6020830191508360208285010111156130ab57600080fd5b600060208284031215613102578081fd5b8135612a6381613b72565b60006020828403121561311e578081fd5b8151612a6381613b72565b60008060008060008060006080888a031215613143578283fd5b873561314e81613b72565b965060208801356001600160401b0380821115613169578485fd5b6131758b838c01613069565b909850965060408a013591508082111561318d578485fd5b6131998b838c01613069565b909650945060608a01359150808211156131b1578384fd5b506131be8a828b01613069565b989b979a50959850939692959293505050565b600080600080606085870312156131e6578384fd5b84356131f181613b72565b93506020850135925060408501356001600160401b03811115613212578283fd5b61321e878288016130b2565b95989497509550505050565b60008060008060008060008060a0898b031215613245578182fd5b883561325081613b72565b97506020890135965060408901356001600160401b0380821115613272578384fd5b61327e8c838d016130b2565b909850965060608b0135915080821115613296578384fd5b6132a28c838d01613069565b909650945060808b01359150808211156132ba578384fd5b506132c78b828c01613069565b999c989b5096995094979396929594505050565b600080602083850312156132ed578182fd5b82356001600160401b03811115613302578283fd5b61330e85828601613069565b90969095509350505050565b6000602080838503121561332c578182fd5b82356001600160401b03811115613341578283fd5b8301601f81018513613351578283fd5b803561336461335f82613973565b613943565b80828252848201915084840188868560051b8701011115613383578687fd5b8694505b838510156133ae57803561339a81613b72565b835260019490940193918501918501613387565b50979650505050505050565b6000602082840312156133cb578081fd5b81518015158114612a63578182fd5b6000602082840312156133eb578081fd5b5035919050565b60008060408385031215613404578182fd5b82359150602083013561341681613b72565b809150509250929050565b600060208284031215613432578081fd5b81356001600160e01b031981168114612a63578182fd5b600080600080600060a08688031215613460578283fd5b853561346b81613b72565b9450602086013561347b81613b72565b9350604086013561348b81613b72565b9250606086013561349b81613b72565b915060808601356134ab81613b72565b809150509295509295909350565b600080602083850312156134cb578182fd5b82356001600160401b038111156134e0578283fd5b61330e858286016130b2565b600080600060408486031215613500578081fd5b8335925060208401356001600160401b0381111561351c578182fd5b613528868287016130b2565b9497909650939450505050565b600081518084526020808501808196508360051b81019150828601855b8581101561357c57828403895261356a848351613589565b98850198935090840190600101613552565b5091979650505050505050565b600081518084526135a1816020860160208601613aa9565b601f01601f19169290920160200192915050565b600082516135c7818460208701613aa9565b9190910192915050565b6b756e732d646576746573742d60a01b81528183600c83013760009101600c01908152919050565b7f416363657373436f6e74726f6c3a206163636f756e7420000000000000000000815260008351613631816017850160208801613aa9565b7001034b99036b4b9b9b4b733903937b6329607d1b6017918401918201528351613662816028840160208801613aa9565b01602801949350505050565b6001600160a01b038516815260806020820181905260009061369290830186613535565b82810360408401526136a48186613535565b905082810360608401526136b88185613535565b979650505050505050565b600060018060a01b038086168352606060208401526136e56060840186613589565b9150808416604084015250949350505050565b6020808252825182820181905260009190848201906040850190845b81811015613732578351151583529284019291840191600101613714565b50909695505050505050565b6060815260006137516060830186613535565b82810360208401526137638186613535565b915050826040830152949350505050565b6020808252810182905260006001600160fb1b03831115613793578081fd5b8260051b808560408501379190910160400190815292915050565b60208152816020820152818360408301376000818301604090810191909152601f909201601f19160101919050565b602081526000612a636020830184613589565b60208082526026908201527f4d696e74696e674d616e616765723a20544f4b454e5f4c4142454c5f50524f4860408201526512509255115160d21b606082015260800190565b6020808252818101527f4d696e746572526f6c653a2043414c4c45525f49535f4e4f545f4d494e544552604082015260600190565b60208082526010908201526f14185d5cd8589b194e8814105554d15160821b604082015260600190565b60208082526022908201527f4d696e74696e674d616e616765723a20544c445f4e4f545f5245474953544552604082015261115160f21b606082015260800190565b6020808252602b908201527f496e697469616c697a61626c653a20636f6e7472616374206973206e6f74206960408201526a6e697469616c697a696e6760a81b606082015260800190565b82815260406020820152600061393b6040830184613589565b949350505050565b604051601f8201601f191681016001600160401b038111828210171561396b5761396b613b5c565b604052919050565b60006001600160401b0382111561398c5761398c613b5c565b5060051b60200190565b600082198211156139a9576139a9613b46565b500190565b60008160001904831182151516156139c8576139c8613b46565b500290565b6000828210156139df576139df613b46565b500390565b60006139f261335f84613973565b808482526020808301925084368760051b87011115613a0f578485fd5b845b87811015613a9d5781356001600160401b0380821115613a2f578788fd5b90880190601f3681840112613a42578889fd5b823582811115613a5457613a54613b5c565b613a65818301601f19168801613943565b92508083523687828601011115613a7a57898afd5b808785018885013782018601899052508652509382019390820190600101613a11565b50919695505050505050565b60005b83811015613ac4578181015183820152602001613aac565b83811115613ad3576000848401525b50505050565b600081613ae857613ae8613b46565b506000190190565b600181811c90821680613b0457607f821691505b60208210811415613b2557634e487b7160e01b600052602260045260246000fd5b50919050565b6000600019821415613b3f57613b3f613b46565b5060010190565b634e487b7160e01b600052601160045260246000fd5b634e487b7160e01b600052604160045260246000fd5b6001600160a01b0381168114610f0a57600080fdfe5496787fc1ebdfeba375028c1865f13fbb1d63c0caa356ccc1b29a80f3ebd622a85b8425a460dd344a297bd4a82e287385f0fc558cb3e78867b0489f43df2470b551e0305c8163b812374b8e78b577c77f226f6f10c5ad03e52699578fbc34b89f2df0fed2c77648de5860a4cc508cd0818c85b8b8a1ab4ceeef8d981c8956a6a164736f6c6343000804000a",
  "linkReferences": {},
  "deployedLinkReferences": {}
}