{
  "_format": "hh-sol-artifact-1",
  "contractName": "MintingManager",
  "sourceName": "contracts/MintingManager.sol",
  "abi": [
    {
      "anonymous": false,
      "inputs": [
        {
          "indexed": false,
          "internalType": "address",
          "name": "previousAdmin",
          "type": "address"
        },
        {
          "indexed": false,
          "internalType": "address",
          "name": "newAdmin",
          "type": "address"
        }
      ],
      "name": "AdminChanged",
      "type": "event"
    },
    {
      "anonymous": false,
      "inputs": [
        {
          "indexed": false,
          "internalType": "uint256",
          "name": "tokenId",
          "type": "uint256"
        }
      ],
      "name": "Blocked",
      "type": "event"
    },
    {
      "anonymous": false,
      "inputs": [
        {
          "indexed": false,
          "internalType": "address",
          "name": "account",
          "type": "address"
        }
      ],
      "name": "BlocklistDisabled",
      "type": "event"
    },
    {
      "anonymous": false,
      "inputs": [
        {
          "indexed": false,
          "internalType": "address",
          "name": "account",
          "type": "address"
        }
      ],
      "name": "BlocklistEnabled",
      "type": "event"
    },
    {
      "anonymous": false,
      "inputs": [
        {
          "indexed": false,
          "internalType": "uint8",
          "name": "version",
          "type": "uint8"
        }
      ],
      "name": "Initialized",
      "type": "event"
    },
    {
      "anonymous": false,
      "inputs": [
        {
          "indexed": true,
          "internalType": "uint256",
          "name": "tokenId",
          "type": "uint256"
        },
        {
          "indexed": false,
          "internalType": "string",
          "name": "tld",
          "type": "string"
        }
      ],
      "name": "NewTld",
      "type": "event"
    },
    {
      "anonymous": false,
      "inputs": [
        {
          "indexed": true,
          "internalType": "address",
          "name": "previousOwner",
          "type": "address"
        },
        {
          "indexed": true,
          "internalType": "address",
          "name": "newOwner",
          "type": "address"
        }
      ],
      "name": "OwnershipTransferred",
      "type": "event"
    },
    {
      "anonymous": false,
      "inputs": [
        {
          "indexed": false,
          "internalType": "address",
          "name": "account",
          "type": "address"
        }
      ],
      "name": "Paused",
      "type": "event"
    },
    {
      "anonymous": false,
      "inputs": [
        {
          "indexed": true,
          "internalType": "uint256",
          "name": "tokenId",
          "type": "uint256"
        },
        {
          "indexed": false,
          "internalType": "string",
          "name": "tld",
          "type": "string"
        }
      ],
      "name": "RemoveTld",
      "type": "event"
    },
    {
      "anonymous": false,
      "inputs": [
        {
          "indexed": true,
          "internalType": "bytes32",
          "name": "role",
          "type": "bytes32"
        },
        {
          "indexed": true,
          "internalType": "bytes32",
          "name": "previousAdminRole",
          "type": "bytes32"
        },
        {
          "indexed": true,
          "internalType": "bytes32",
          "name": "newAdminRole",
          "type": "bytes32"
        }
      ],
      "name": "RoleAdminChanged",
      "type": "event"
    },
    {
      "anonymous": false,
      "inputs": [
        {
          "indexed": true,
          "internalType": "bytes32",
          "name": "role",
          "type": "bytes32"
        },
        {
          "indexed": true,
          "internalType": "address",
          "name": "account",
          "type": "address"
        },
        {
          "indexed": true,
          "internalType": "address",
          "name": "sender",
          "type": "address"
        }
      ],
      "name": "RoleGranted",
      "type": "event"
    },
    {
      "anonymous": false,
      "inputs": [
        {
          "indexed": true,
          "internalType": "bytes32",
          "name": "role",
          "type": "bytes32"
        },
        {
          "indexed": true,
          "internalType": "address",
          "name": "account",
          "type": "address"
        },
        {
          "indexed": true,
          "internalType": "address",
          "name": "sender",
          "type": "address"
        }
      ],
      "name": "RoleRevoked",
      "type": "event"
    },
    {
      "anonymous": false,
      "inputs": [
        {
          "indexed": false,
          "internalType": "address",
          "name": "account",
          "type": "address"
        }
      ],
      "name": "Unpaused",
      "type": "event"
    },
    {
      "anonymous": false,
      "inputs": [
        {
          "indexed": true,
          "internalType": "address",
          "name": "implementation",
          "type": "address"
        }
      ],
      "name": "Upgraded",
      "type": "event"
    },
    {
      "inputs": [],
      "name": "DEFAULT_ADMIN_ROLE",
      "outputs": [
        {
          "internalType": "bytes32",
          "name": "",
          "type": "bytes32"
        }
      ],
      "stateMutability": "view",
      "type": "function"
    },
    {
      "inputs": [],
      "name": "MINTER_ROLE",
      "outputs": [
        {
          "internalType": "bytes32",
          "name": "",
          "type": "bytes32"
        }
      ],
      "stateMutability": "view",
      "type": "function"
    },
    {
      "inputs": [],
      "name": "NAME",
      "outputs": [
        {
          "internalType": "string",
          "name": "",
          "type": "string"
        }
      ],
      "stateMutability": "view",
      "type": "function"
    },
    {
      "inputs": [],
      "name": "VERSION",
      "outputs": [
        {
          "internalType": "string",
          "name": "",
          "type": "string"
        }
      ],
      "stateMutability": "view",
      "type": "function"
    },
    {
      "inputs": [
        {
          "internalType": "address",
          "name": "account",
          "type": "address"
        }
      ],
      "name": "addMinter",
      "outputs": [],
      "stateMutability": "nonpayable",
      "type": "function"
    },
    {
      "inputs": [
        {
          "internalType": "address[]",
          "name": "accounts",
          "type": "address[]"
        }
      ],
      "name": "addMinters",
      "outputs": [],
      "stateMutability": "nonpayable",
      "type": "function"
    },
    {
      "inputs": [
        {
          "internalType": "string",
          "name": "tld",
          "type": "string"
        }
      ],
      "name": "addTld",
      "outputs": [],
      "stateMutability": "nonpayable",
      "type": "function"
    },
    {
      "inputs": [
        {
          "internalType": "uint256[]",
          "name": "tokenIds",
          "type": "uint256[]"
        }
      ],
      "name": "areBlocked",
      "outputs": [
        {
          "internalType": "bool[]",
          "name": "values",
          "type": "bool[]"
        }
      ],
      "stateMutability": "view",
      "type": "function"
    },
    {
      "inputs": [
        {
          "internalType": "uint256",
          "name": "tokenId",
          "type": "uint256"
        }
      ],
      "name": "blocklist",
      "outputs": [],
      "stateMutability": "nonpayable",
      "type": "function"
    },
    {
      "inputs": [
        {
          "internalType": "uint256[]",
          "name": "tokenIds",
          "type": "uint256[]"
        }
      ],
      "name": "blocklistAll",
      "outputs": [],
      "stateMutability": "nonpayable",
      "type": "function"
    },
    {
      "inputs": [
        {
          "internalType": "uint256",
          "name": "tld",
          "type": "uint256"
        },
        {
          "internalType": "string",
          "name": "label",
          "type": "string"
        }
      ],
      "name": "claim",
      "outputs": [],
      "stateMutability": "nonpayable",
      "type": "function"
    },
    {
      "inputs": [
        {
          "internalType": "address",
          "name": "to",
          "type": "address"
        },
        {
          "internalType": "uint256",
          "name": "tld",
          "type": "uint256"
        },
        {
          "internalType": "string",
          "name": "label",
          "type": "string"
        }
      ],
      "name": "claimTo",
      "outputs": [],
      "stateMutability": "nonpayable",
      "type": "function"
    },
    {
      "inputs": [
        {
          "internalType": "address",
          "name": "to",
          "type": "address"
        },
        {
          "internalType": "uint256",
          "name": "tld",
          "type": "uint256"
        },
        {
          "internalType": "string",
          "name": "label",
          "type": "string"
        },
        {
          "internalType": "string[]",
          "name": "keys",
          "type": "string[]"
        },
        {
          "internalType": "string[]",
          "name": "values",
          "type": "string[]"
        }
      ],
      "name": "claimToWithRecords",
      "outputs": [],
      "stateMutability": "nonpayable",
      "type": "function"
    },
    {
      "inputs": [
        {
          "internalType": "address payable",
          "name": "receiver",
          "type": "address"
        }
      ],
      "name": "closeMinter",
      "outputs": [],
      "stateMutability": "payable",
      "type": "function"
    },
    {
      "inputs": [],
      "name": "cnsMintingController",
      "outputs": [
        {
          "internalType": "contract IMintingController",
          "name": "",
          "type": "address"
        }
      ],
      "stateMutability": "view",
      "type": "function"
    },
    {
      "inputs": [],
      "name": "cnsResolver",
      "outputs": [
        {
          "internalType": "contract IResolver",
          "name": "",
          "type": "address"
        }
      ],
      "stateMutability": "view",
      "type": "function"
    },
    {
      "inputs": [],
      "name": "cnsURIPrefixController",
      "outputs": [
        {
          "internalType": "contract IURIPrefixController",
          "name": "",
          "type": "address"
        }
      ],
      "stateMutability": "view",
      "type": "function"
    },
    {
      "inputs": [
        {
          "internalType": "uint256[]",
          "name": "tokenIds",
          "type": "uint256[]"
        }
      ],
      "name": "deprecateTokens",
      "outputs": [],
      "stateMutability": "nonpayable",
      "type": "function"
    },
    {
      "inputs": [],
      "name": "disableBlocklist",
      "outputs": [],
      "stateMutability": "nonpayable",
      "type": "function"
    },
    {
      "inputs": [],
      "name": "enableBlocklist",
      "outputs": [],
      "stateMutability": "nonpayable",
      "type": "function"
    },
    {
      "inputs": [
        {
          "internalType": "bytes32",
          "name": "role",
          "type": "bytes32"
        }
      ],
      "name": "getRoleAdmin",
      "outputs": [
        {
          "internalType": "bytes32",
          "name": "",
          "type": "bytes32"
        }
      ],
      "stateMutability": "view",
      "type": "function"
    },
    {
      "inputs": [
        {
          "internalType": "bytes32",
          "name": "role",
          "type": "bytes32"
        },
        {
          "internalType": "address",
          "name": "account",
          "type": "address"
        }
      ],
      "name": "grantRole",
      "outputs": [],
      "stateMutability": "nonpayable",
      "type": "function"
    },
    {
      "inputs": [
        {
          "internalType": "bytes32",
          "name": "role",
          "type": "bytes32"
        },
        {
          "internalType": "address",
          "name": "account",
          "type": "address"
        }
      ],
      "name": "hasRole",
      "outputs": [
        {
          "internalType": "bool",
          "name": "",
          "type": "bool"
        }
      ],
      "stateMutability": "view",
      "type": "function"
    },
    {
      "inputs": [
        {
          "internalType": "contract IUNSRegistry",
          "name": "unsRegistry_",
          "type": "address"
        },
        {
          "internalType": "contract IMintingController",
          "name": "cnsMintingController_",
          "type": "address"
        },
        {
          "internalType": "contract IURIPrefixController",
          "name": "cnsURIPrefixController_",
          "type": "address"
        },
        {
          "internalType": "contract IResolver",
          "name": "cnsResolver_",
          "type": "address"
        },
        {
          "internalType": "address",
          "name": "forwarder",
          "type": "address"
        }
      ],
      "name": "initialize",
      "outputs": [],
      "stateMutability": "nonpayable",
      "type": "function"
    },
    {
      "inputs": [
        {
          "internalType": "uint256",
          "name": "tokenId",
          "type": "uint256"
        }
      ],
      "name": "isBlocked",
      "outputs": [
        {
          "internalType": "bool",
          "name": "",
          "type": "bool"
        }
      ],
      "stateMutability": "view",
      "type": "function"
    },
    {
      "inputs": [],
      "name": "isBlocklistDisabled",
      "outputs": [
        {
          "internalType": "bool",
          "name": "",
          "type": "bool"
        }
      ],
      "stateMutability": "view",
      "type": "function"
    },
    {
      "inputs": [
        {
          "internalType": "address",
          "name": "account",
          "type": "address"
        }
      ],
      "name": "isMinter",
      "outputs": [
        {
          "internalType": "bool",
          "name": "",
          "type": "bool"
        }
      ],
      "stateMutability": "view",
      "type": "function"
    },
    {
      "inputs": [
        {
          "internalType": "address",
          "name": "forwarder",
          "type": "address"
        }
      ],
      "name": "isTrustedForwarder",
      "outputs": [
        {
          "internalType": "bool",
          "name": "",
          "type": "bool"
        }
      ],
      "stateMutability": "view",
      "type": "function"
    },
    {
      "inputs": [
        {
          "internalType": "address",
          "name": "to",
          "type": "address"
        },
        {
          "internalType": "uint256",
          "name": "tld",
          "type": "uint256"
        },
        {
          "internalType": "string",
          "name": "label",
          "type": "string"
        }
      ],
      "name": "mintSLD",
      "outputs": [],
      "stateMutability": "nonpayable",
      "type": "function"
    },
    {
      "inputs": [
        {
          "internalType": "address",
          "name": "to",
          "type": "address"
        },
        {
          "internalType": "uint256",
          "name": "tld",
          "type": "uint256"
        },
        {
          "internalType": "string",
          "name": "label",
          "type": "string"
        },
        {
          "internalType": "string[]",
          "name": "keys",
          "type": "string[]"
        },
        {
          "internalType": "string[]",
          "name": "values",
          "type": "string[]"
        }
      ],
      "name": "mintSLDWithRecords",
      "outputs": [],
      "stateMutability": "nonpayable",
      "type": "function"
    },
    {
      "inputs": [],
      "name": "owner",
      "outputs": [
        {
          "internalType": "address",
          "name": "",
          "type": "address"
        }
      ],
      "stateMutability": "view",
      "type": "function"
    },
    {
      "inputs": [],
      "name": "pause",
      "outputs": [],
      "stateMutability": "nonpayable",
      "type": "function"
    },
    {
      "inputs": [],
      "name": "paused",
      "outputs": [
        {
          "internalType": "bool",
          "name": "",
          "type": "bool"
        }
      ],
      "stateMutability": "view",
      "type": "function"
    },
    {
      "inputs": [
        {
          "internalType": "address",
          "name": "account",
          "type": "address"
        }
      ],
      "name": "removeMinter",
      "outputs": [],
      "stateMutability": "nonpayable",
      "type": "function"
    },
    {
      "inputs": [
        {
          "internalType": "address[]",
          "name": "accounts",
          "type": "address[]"
        }
      ],
      "name": "removeMinters",
      "outputs": [],
      "stateMutability": "nonpayable",
      "type": "function"
    },
    {
      "inputs": [
        {
          "internalType": "uint256",
          "name": "tld",
          "type": "uint256"
        }
      ],
      "name": "removeTld",
      "outputs": [],
      "stateMutability": "nonpayable",
      "type": "function"
    },
    {
      "inputs": [],
      "name": "renounceMinter",
      "outputs": [],
      "stateMutability": "nonpayable",
      "type": "function"
    },
    {
      "inputs": [],
      "name": "renounceOwnership",
      "outputs": [],
      "stateMutability": "nonpayable",
      "type": "function"
    },
    {
      "inputs": [
        {
          "internalType": "bytes32",
          "name": "role",
          "type": "bytes32"
        },
        {
          "internalType": "address",
          "name": "account",
          "type": "address"
        }
      ],
      "name": "renounceRole",
      "outputs": [],
      "stateMutability": "nonpayable",
      "type": "function"
    },
    {
      "inputs": [
        {
          "internalType": "bytes32",
          "name": "role",
          "type": "bytes32"
        },
        {
          "internalType": "address",
          "name": "account",
          "type": "address"
        }
      ],
      "name": "revokeRole",
      "outputs": [],
      "stateMutability": "nonpayable",
      "type": "function"
    },
    {
      "inputs": [
        {
          "internalType": "address payable",
          "name": "receiver",
          "type": "address"
        }
      ],
      "name": "rotateMinter",
      "outputs": [],
      "stateMutability": "payable",
      "type": "function"
    },
    {
      "inputs": [
        {
          "internalType": "address",
          "name": "to",
          "type": "address"
        },
        {
          "internalType": "uint256",
          "name": "tld",
          "type": "uint256"
        },
        {
          "internalType": "string",
          "name": "label",
          "type": "string"
        }
      ],
      "name": "safeMintSLD",
      "outputs": [],
      "stateMutability": "nonpayable",
      "type": "function"
    },
    {
      "inputs": [
        {
          "internalType": "address",
          "name": "to",
          "type": "address"
        },
        {
          "internalType": "uint256",
          "name": "tld",
          "type": "uint256"
        },
        {
          "internalType": "string",
          "name": "label",
          "type": "string"
        },
        {
          "internalType": "bytes",
          "name": "data",
          "type": "bytes"
        }
      ],
      "name": "safeMintSLD",
      "outputs": [],
      "stateMutability": "nonpayable",
      "type": "function"
    },
    {
      "inputs": [
        {
          "internalType": "address",
          "name": "to",
          "type": "address"
        },
        {
          "internalType": "uint256",
          "name": "tld",
          "type": "uint256"
        },
        {
          "internalType": "string",
          "name": "label",
          "type": "string"
        },
        {
          "internalType": "string[]",
          "name": "keys",
          "type": "string[]"
        },
        {
          "internalType": "string[]",
          "name": "values",
          "type": "string[]"
        }
      ],
      "name": "safeMintSLDWithRecords",
      "outputs": [],
      "stateMutability": "nonpayable",
      "type": "function"
    },
    {
      "inputs": [
        {
          "internalType": "address",
          "name": "to",
          "type": "address"
        },
        {
          "internalType": "uint256",
          "name": "tld",
          "type": "uint256"
        },
        {
          "internalType": "string",
          "name": "label",
          "type": "string"
        },
        {
          "internalType": "string[]",
          "name": "keys",
          "type": "string[]"
        },
        {
          "internalType": "string[]",
          "name": "values",
          "type": "string[]"
        },
        {
          "internalType": "bytes",
          "name": "data",
          "type": "bytes"
        }
      ],
      "name": "safeMintSLDWithRecords",
      "outputs": [],
      "stateMutability": "nonpayable",
      "type": "function"
    },
    {
      "inputs": [
        {
          "internalType": "address",
          "name": "forwarder",
          "type": "address"
        }
      ],
      "name": "setForwarder",
      "outputs": [],
      "stateMutability": "nonpayable",
      "type": "function"
    },
    {
      "inputs": [
        {
          "internalType": "address",
          "name": "resolver",
          "type": "address"
        }
      ],
      "name": "setResolver",
      "outputs": [],
      "stateMutability": "nonpayable",
      "type": "function"
    },
    {
      "inputs": [
        {
          "internalType": "string",
          "name": "prefix",
          "type": "string"
        }
      ],
      "name": "setTokenURIPrefix",
      "outputs": [],
      "stateMutability": "nonpayable",
      "type": "function"
    },
    {
      "inputs": [
        {
          "internalType": "bytes4",
          "name": "interfaceId",
          "type": "bytes4"
        }
      ],
      "name": "supportsInterface",
      "outputs": [
        {
          "internalType": "bool",
          "name": "",
          "type": "bool"
        }
      ],
      "stateMutability": "view",
      "type": "function"
    },
    {
      "inputs": [
        {
          "internalType": "address",
          "name": "newOwner",
          "type": "address"
        }
      ],
      "name": "transferOwnership",
      "outputs": [],
      "stateMutability": "nonpayable",
      "type": "function"
    },
    {
      "inputs": [],
      "name": "unpause",
      "outputs": [],
      "stateMutability": "nonpayable",
      "type": "function"
    },
    {
      "inputs": [],
      "name": "unsRegistry",
      "outputs": [
        {
          "internalType": "contract IUNSRegistry",
          "name": "",
          "type": "address"
        }
      ],
      "stateMutability": "view",
      "type": "function"
    }
  ],
  "bytecode": "0x608060405234801561001057600080fd5b5061416e806100206000396000f3fe6080604052600436106102ff5760003560e01c806381c81d3511610190578063ad3b9adc116100dc578063ceeb4f5011610095578063e47d6cc61161006f578063e47d6cc61461093c578063ec5273891461095c578063f2fde38b1461097c578063ffa1ad741461099c57600080fd5b8063ceeb4f50146108da578063d5391393146108fa578063d547741f1461091c57600080fd5b8063ad3b9adc1461081a578063ae2ad9031461083a578063b0aa98c71461085a578063b9998a241461087a578063c3a3bc001461089a578063cc2c3fc4146108ba57600080fd5b8063983b2d5611610149578063a217fddf11610123578063a217fddf14610778578063a3f4df7e1461078d578063a849d65c146107da578063aa271e1a146107fa57600080fd5b8063983b2d5614610723578063986502751461074357806399e0dd7c1461075857600080fd5b806381c81d35146106885780638456cb591461069b5780638da5cb5b146106b0578063906cecc1146106ce57806390dbdb5a146106ee57806391d148541461070357600080fd5b80633f4ba83a1161024f5780635b6fa8db11610208578063634486da116101e2578063634486da146106205780636a2d225614610633578063715018a61461065357806371e2a6571461066857600080fd5b80635b6fa8db146105cb5780635c975abb146105eb5780635fc1964f1461060057600080fd5b80633f4ba83a146104e8578063463c4bcb146104fd5780634c1819e01461051d5780634e543b261461053d578063572b6c051461055d57806358839d6b146105ab57600080fd5b806327bbd225116102bc5780633092afd5116102965780633092afd51461045057806336568abe1461047057806339ccf4d0146104905780633f41b614146104b057600080fd5b806327bbd225146103fb5780632eff1a951461041b5780632f2ff15d1461043057600080fd5b806301ffc9a7146103045780630e36a87d1461033957806310921f12146103665780631459457a1461037b578063248a9ca31461039d578063268b15ed146103db575b600080fd5b34801561031057600080fd5b5061032461031f3660046137e4565b6109cd565b60405190151581526020015b60405180910390f35b34801561034557600080fd5b5061035961035436600461373e565b610a04565b6040516103309190613d34565b34801561037257600080fd5b50610324610adb565b34801561038757600080fd5b5061039b61039636600461380c565b610af6565b005b3480156103a957600080fd5b506103cd6103b836600461379d565b60009081526097602052604090206001015490565b604051908152602001610330565b3480156103e757600080fd5b5061039b6103f63660046138af565b610e29565b34801561040757600080fd5b5061039b610416366004613464565b610f2b565b34801561042757600080fd5b5061039b61108f565b34801561043c57600080fd5b5061039b61044b3660046137b5565b6110a1565b34801561045c57600080fd5b5061039b61046b3660046133ef565b6110cb565b34801561047c57600080fd5b5061039b61048b3660046137b5565b6110df565b34801561049c57600080fd5b5061039b6104ab366004613464565b61116d565b3480156104bc57600080fd5b5060c9546104d0906001600160a01b031681565b6040516001600160a01b039091168152602001610330565b3480156104f457600080fd5b5061039b6112b6565b34801561050957600080fd5b5061039b61051836600461379d565b6112c6565b34801561052957600080fd5b5061039b61053836600461340b565b6112f6565b34801561054957600080fd5b5061039b6105583660046133ef565b61141d565b34801561056957600080fd5b506103246105783660046133ef565b7f893ef2ea16c023f61d4f55d3e6ee3fc3f2fbfd478461323dbc2fbf919047086e546001600160a01b0390811691161490565b3480156105b757600080fd5b5061039b6105c63660046135f0565b611447565b3480156105d757600080fd5b5060cc546104d0906001600160a01b031681565b3480156105f757600080fd5b50610324611597565b34801561060c57600080fd5b5061039b61061b366004613678565b6115ad565b61039b61062e3660046133ef565b611603565b34801561063f57600080fd5b5061039b61064e366004613515565b6116c6565b34801561065f57600080fd5b5061039b611861565b34801561067457600080fd5b5061039b610683366004613678565b611873565b61039b6106963660046133ef565b6118c9565b3480156106a757600080fd5b5061039b611946565b3480156106bc57600080fd5b506033546001600160a01b03166104d0565b3480156106da57600080fd5b5061039b6106e936600461340b565b611956565b3480156106fa57600080fd5b5061039b611a40565b34801561070f57600080fd5b5061032461071e3660046137b5565b611a50565b34801561072f57600080fd5b5061039b61073e3660046133ef565b611a7b565b34801561074f57600080fd5b5061039b611a8c565b34801561076457600080fd5b5061039b61077336600461387c565b611aa6565b34801561078457600080fd5b506103cd600081565b34801561079957600080fd5b506107cd604051806040016040528060148152602001732aa7299d1026b4b73a34b7339026b0b730b3b2b960611b81525081565b6040516103309190613e0a565b3480156107e657600080fd5b5060cb546104d0906001600160a01b031681565b34801561080657600080fd5b506103246108153660046133ef565b611b85565b34801561082657600080fd5b5061039b61083536600461373e565b611b9f565b34801561084657600080fd5b5061039b61085536600461340b565b611bd9565b34801561086657600080fd5b5061032461087536600461379d565b611d1c565b34801561088657600080fd5b5061039b6108953660046133ef565b611d89565b3480156108a657600080fd5b5061039b6108b536600461387c565b611dce565b3480156108c657600080fd5b5060ca546104d0906001600160a01b031681565b3480156108e657600080fd5b5061039b6108f5366004613464565b611e15565b34801561090657600080fd5b506103cd60008051602061414283398151915281565b34801561092857600080fd5b5061039b6109373660046137b5565b611f08565b34801561094857600080fd5b5061039b61095736600461373e565b611f2d565b34801561096857600080fd5b5061039b61097736600461379d565b611f5e565b34801561098857600080fd5b5061039b6109973660046133ef565b611f6f565b3480156109a857600080fd5b506107cd60405180604001604052806005815260200164302e332e3360d81b81525081565b60006001600160e01b03198216637965db0b60e01b14806109fe57506301ffc9a760e01b6001600160e01b03198316145b92915050565b6060816001600160401b03811115610a2c57634e487b7160e01b600052604160045260246000fd5b604051908082528060200260200182016040528015610a55578160200160208202803683370190505b50905060005b82811015610ad457610a92848483818110610a8657634e487b7160e01b600052603260045260246000fd5b90506020020135611d1c565b828281518110610ab257634e487b7160e01b600052603260045260246000fd5b9115156020928302919091019091015280610acc81614085565b915050610a5b565b5092915050565b60006000805160206141028339815191525b5460ff16919050565b600054610100900460ff1615808015610b165750600054600160ff909116105b80610b305750303b158015610b30575060005460ff166001145b610b985760405162461bcd60e51b815260206004820152602e60248201527f496e697469616c697a61626c653a20636f6e747261637420697320616c72656160448201526d191e481a5b9a5d1a585b1a5e995960921b60648201526084015b60405180910390fd5b6000805460ff191660011790558015610bbb576000805461ff0019166101001790555b60c980546001600160a01b038089166001600160a01b03199283161790925560ca805488841690831617905560cb805487841690831617905560cc805492861692909116919091179055610c0d611f8b565b610c15611fc2565b610c1e82611ffb565b610c26612022565b610c2e61206c565b604080516101a081018252600661016082018181526563727970746f60d01b610180840152825282518084018452908152651dd85b1b195d60d21b602082810191909152808301919091528251808401845260018152600f60fb1b8183015282840152825180840184526003808252621b999d60ea1b82840152606084019190915283518085018552600a815269313637b1b5b1b430b4b760b11b818401526080840152835180850185526007808252663134ba31b7b4b760c91b8285015260a0850191909152845180860186528281526207070760eb1b8185015260c0850152845180860186528281526264616f60e81b8185015260e085015284518086018652918252621e9a5b60ea1b8284015261010084019190915283518085018552908152663837b63cb3b7b760c91b818301526101208301528251808401909352600b83526a756e73746f707061626c6560a81b9083015261014081019190915260005b600b811015610dd957610dc78282600b8110610dbd57634e487b7160e01b600052603260045260246000fd5b60200201516120a9565b80610dd181614085565b915050610d91565b50508015610e21576000805461ff0019169055604051600181527f7f26b83ff96e1f2b6a682f133852f6798a09c465da95921460cefb38474024989060200160405180910390a15b505050505050565b8282828080601f016020809104026020016040519081016040528093929190818152602001838380828437600092019190915250610e6c92508491506121c99050565b610e885760405162461bcd60e51b8152600401610b8f90613f43565b6000610e93826121ef565b9050600a81600001511115610eeb57610ebe610eb2826000600a61221c565b80516020909101512090565b6000805160206141228339815191521415610eeb5760405162461bcd60e51b8152600401610b8f90613e9e565b610ef3611597565b15610f105760405162461bcd60e51b8152600401610b8f90613f19565b610e21610f1b61225b565b87610f26888861226a565b612296565b610f3661081561225b565b610f525760405162461bcd60e51b8152600401610b8f90613ee4565b8686868080601f016020809104026020016040519081016040528093929190818152602001838380828437600092019190915250610f9592508491506121c99050565b610fb15760405162461bcd60e51b8152600401610b8f90613f43565b6000610fbc826121ef565b9050600a8160000151111561100857610fdb610eb2826000600a61221c565b60008051602061412283398151915214156110085760405162461bcd60e51b8152600401610b8f90613e9e565b611010611597565b1561102d5760405162461bcd60e51b8152600401610b8f90613f19565b6110828b8b8b8b8080601f016020809104026020016040519081016040528093929190818152602001838380828437600092018290525060408051602081019091529081528e93508d92508c91508b9061239d565b5050505050505050505050565b611097612518565b61109f612591565b565b6000828152609760205260409020600101546110bc8161263c565b6110c6838361264d565b505050565b6110d3612518565b6110dc816126d4565b50565b6110e761225b565b6001600160a01b0316816001600160a01b03161461115f5760405162461bcd60e51b815260206004820152602f60248201527f416363657373436f6e74726f6c3a2063616e206f6e6c792072656e6f756e636560448201526e103937b632b9903337b91039b2b63360891b6064820152608401610b8f565b61116982826126ec565b5050565b61117861081561225b565b6111945760405162461bcd60e51b8152600401610b8f90613ee4565b8686868080601f0160208091040260200160405190810160405280939291908181526020018383808284376000920191909152506111d792508491506121c99050565b6111f35760405162461bcd60e51b8152600401610b8f90613f43565b60006111fe826121ef565b9050600a8160000151111561124a5761121d610eb2826000600a61221c565b600080516020614122833981519152141561124a5760405162461bcd60e51b8152600401610b8f90613e9e565b611252611597565b1561126f5760405162461bcd60e51b8152600401610b8f90613f19565b6110828b8b8b8b8080601f0160208091040260200160405190810160405280939291908181526020018383808284376000920191909152508d92508c91508b90508a612771565b6112be612518565b61109f6128f6565b6112d161081561225b565b6112ed5760405162461bcd60e51b8152600401610b8f90613ee4565b6110dc81612981565b61130161081561225b565b61131d5760405162461bcd60e51b8152600401610b8f90613ee4565b8282828080601f01602080910402602001604051908101604052809392919081815260200183838082843760009201919091525061136092508491506121c99050565b61137c5760405162461bcd60e51b8152600401610b8f90613f43565b6000611387826121ef565b9050600a816000015111156113d3576113a6610eb2826000600a61221c565b60008051602061412283398151915214156113d35760405162461bcd60e51b8152600401610b8f90613e9e565b6113db611597565b156113f85760405162461bcd60e51b8152600401610b8f90613f19565b6114148787878760405180602001604052806000815250612a50565b50505050505050565b611425612518565b60cc80546001600160a01b0319166001600160a01b0392909216919091179055565b61145261081561225b565b61146e5760405162461bcd60e51b8152600401610b8f90613ee4565b8484848080601f0160208091040260200160405190810160405280939291908181526020018383808284376000920191909152506114b192508491506121c99050565b6114cd5760405162461bcd60e51b8152600401610b8f90613f43565b60006114d8826121ef565b9050600a81600001511115611524576114f7610eb2826000600a61221c565b60008051602061412283398151915214156115245760405162461bcd60e51b8152600401610b8f90613e9e565b61152c611597565b156115495760405162461bcd60e51b8152600401610b8f90613f19565b61158c8989898989898080601f016020809104026020016040519081016040528093929190818152602001838380828437600092019190915250612a5092505050565b505050505050505050565b60006000805160206140e2833981519152610aed565b6115b5612518565b60005b8151811015611169576115f18282815181106115e457634e487b7160e01b600052603260045260246000fd5b60200260200101516126d4565b806115fb81614085565b9150506115b8565b61160e61081561225b565b61162a5760405162461bcd60e51b8152600401610b8f90613ee4565b6001600160a01b0381166116805760405162461bcd60e51b815260206004820152601d60248201527f4d696e746572526f6c653a2052454345495645525f49535f454d5054590000006044820152606401610b8f565b61168981612bd0565b611691611a8c565b6040516001600160a01b038216903480156108fc02916000818181858888f19350505050158015611169573d6000803e3d6000fd5b6116d161081561225b565b6116ed5760405162461bcd60e51b8152600401610b8f90613ee4565b8888888080601f01602080910402602001604051908101604052809392919081815260200183838082843760009201919091525061173092508491506121c99050565b61174c5760405162461bcd60e51b8152600401610b8f90613f43565b6000611757826121ef565b9050600a816000015111156117a357611776610eb2826000600a61221c565b60008051602061412283398151915214156117a35760405162461bcd60e51b8152600401610b8f90613e9e565b6117ab611597565b156117c85760405162461bcd60e51b8152600401610b8f90613f19565b6118528d8d8d8d8080601f016020809104026020016040519081016040528093929190818152602001838380828437600081840152601f19601f820116905080830192505050505050508c8c8c8c8c8c8080601f01602080910402602001604051908101604052809392919081815260200183838082843760009201919091525061239d92505050565b50505050505050505050505050565b611869612518565b61109f6000612be8565b61187b612518565b60005b8151811015611169576118b78282815181106118aa57634e487b7160e01b600052603260045260246000fd5b6020026020010151612bd0565b806118c181614085565b91505061187e565b6118d461081561225b565b6118f05760405162461bcd60e51b8152600401610b8f90613ee4565b6001600160a01b0381166116895760405162461bcd60e51b815260206004820152601d60248201527f4d696e746572526f6c653a2052454345495645525f49535f454d5054590000006044820152606401610b8f565b61194e612518565b61109f612c3a565b8282828080601f01602080910402602001604051908101604052809392919081815260200183838082843760009201919091525061199992508491506121c99050565b6119b55760405162461bcd60e51b8152600401610b8f90613f43565b60006119c0826121ef565b9050600a81600001511115611a0c576119df610eb2826000600a61221c565b6000805160206141228339815191521415611a0c5760405162461bcd60e51b8152600401610b8f90613e9e565b611a14611597565b15611a315760405162461bcd60e51b8152600401610b8f90613f19565b6114148787610f26888861226a565b611a48612518565b61109f612ca2565b60009182526097602090815260408084206001600160a01b0393909316845291905290205460ff1690565b611a83612518565b6110dc81612bd0565b61109f60008051602061414283398151915261048b61225b565b611aae612518565b60c954604051632678375f60e21b81526001600160a01b03909116906399e0dd7c90611ae09085908590600401613dee565b600060405180830381600087803b158015611afa57600080fd5b505af1158015611b0e573d6000803e3d6000fd5b505060cb546001600160a01b031615915061116990505760cb54604051632678375f60e21b81526001600160a01b03909116906399e0dd7c90611b579085908590600401613dee565b600060405180830381600087803b158015611b7157600080fd5b505af1158015610e21573d6000803e3d6000fd5b60006109fe60008051602061414283398151915283611a50565b611ba7612518565b60c954604051632b4ee6b760e21b81526001600160a01b039091169063ad3b9adc90611b579085908590600401613db4565b611be461081561225b565b611c005760405162461bcd60e51b8152600401610b8f90613ee4565b8282828080601f016020809104026020016040519081016040528093929190818152602001838380828437600092019190915250611c4392508491506121c99050565b611c5f5760405162461bcd60e51b8152600401610b8f90613f43565b6000611c6a826121ef565b9050600a81600001511115611cb657611c89610eb2826000600a61221c565b6000805160206141228339815191521415611cb65760405162461bcd60e51b8152600401610b8f90613e9e565b611cbe611597565b15611cdb5760405162461bcd60e51b8152600401610b8f90613f19565b611414878787878080601f01602080910402602001604051908101604052809392919081815260200183838082843760009201919091525061229692505050565b6000611d26610adb565b1580156109fe5750604080517f1ec047073e2c8b15660901dbfdb6e3ff6365bd699dd9f95dcc6eab5448bebd696020820152908101839052611d7f906060015b6040516020818303038152906040528051906020012090565b5460ff1692915050565b611d91612518565b7f893ef2ea16c023f61d4f55d3e6ee3fc3f2fbfd478461323dbc2fbf919047086e80546001600160a01b0319166001600160a01b03831617905550565b611dd6612518565b61116982828080601f0160208091040260200160405190810160405280939291908181526020018383808284376000920191909152506120a992505050565b8686868080601f016020809104026020016040519081016040528093929190818152602001838380828437600092019190915250611e5892508491506121c99050565b611e745760405162461bcd60e51b8152600401610b8f90613f43565b6000611e7f826121ef565b9050600a81600001511115611ecb57611e9e610eb2826000600a61221c565b6000805160206141228339815191521415611ecb5760405162461bcd60e51b8152600401610b8f90613e9e565b611ed3611597565b15611ef05760405162461bcd60e51b8152600401610b8f90613f19565b6110828b8b611eff8c8c61226a565b8a8a8a8a612771565b600082815260976020526040902060010154611f238161263c565b6110c683836126ec565b611f3861081561225b565b611f545760405162461bcd60e51b8152600401610b8f90613ee4565b6111698282612d2b565b611f66612518565b6110dc81612d77565b611f77612518565b611f8081612dfd565b6110dc600082612e73565b600054610100900460ff16611fb25760405162461bcd60e51b8152600401610b8f90613f85565b61109f611fbd61225b565b612be8565b600054610100900460ff16611fe95760405162461bcd60e51b8152600401610b8f90613f85565b61109f6000611ff661225b565b612e73565b600054610100900460ff16611d915760405162461bcd60e51b8152600401610b8f90613f85565b600054610100900460ff166120495760405162461bcd60e51b8152600401610b8f90613f85565b60006000805160206141028339815191525b805460ff1916911515919091179055565b600054610100900460ff166120935760405162461bcd60e51b8152600401610b8f90613f85565b60006000805160206140e283398151915261205b565b60006120b6600083612e7d565b600081815260cd6020908152604090912084519293506120da929091850190613288565b50807f4fce6f6e172b04eaa80325d8e3b0180a34945000f3e214605039e8420fdf89808360405161210b9190613e0a565b60405180910390a260c954604051634f558e7960e01b8152600481018390526001600160a01b0390911690634f558e799060240160206040518083038186803b15801561215757600080fd5b505afa15801561216b573d6000803e3d6000fd5b505050506040513d601f19601f8201168201806040525081019061218f919061377d565b6111695760c9546040516334ff261960e21b81526001600160a01b039091169063d3fc986490611b579061dead9085908790600401613bf1565b600081815260cd6020526040812080548291906121e59061404a565b9050119050919050565b60408051808201825260008082526020918201528151808301909252825182529182019181019190915290565b604080518082019091526000808252602082015260405180604001604052808381526020018486602001516122519190613fd0565b9052949350505050565b6000612265612f32565b905090565b6060828260405160200161227f929190613a8d565b604051602081830303815290604052905092915050565b60006122a28383612e7d565b90506122ad81612f79565b6122b683612fdb565b156123295760ca5460cc5460405163c36c212560e01b81526001600160a01b039283169263c36c2125926122f292899288921690600401613b74565b600060405180830381600087803b15801561230c57600080fd5b505af1158015612320573d6000803e3d6000fd5b50505050612397565b60c9546001600160a01b031663d3fc986485836123468787613019565b6040518463ffffffff1660e01b815260040161236493929190613bf1565b600060405180830381600087803b15801561237e57600080fd5b505af1158015612392573d6000803e3d6000fd5b505050505b50505050565b60006123a98888612e7d565b90506123b481612f79565b6123bd88612fdb565b156124a55760ca5460cc54604051630f95e75b60e31b81526001600160a01b0392831692637caf3ad8926123fb928e928d9216908890600401613ba9565b600060405180830381600087803b15801561241557600080fd5b505af1158015612429573d6000803e3d6000fd5b5050861591506124a090505760cc54604051633a0deb9d60e21b81526001600160a01b039091169063e837ae749061246d9089908990899089908890600401613d7a565b600060405180830381600087803b15801561248757600080fd5b505af115801561249b573d6000803e3d6000fd5b505050505b61158c565b60c9546001600160a01b031663efda4d3e8a836124c28c8c613019565b8a8a8a8a8a6040518963ffffffff1660e01b81526004016124ea989796959493929190613c7e565b600060405180830381600087803b15801561250457600080fd5b505af1158015611852573d6000803e3d6000fd5b61252061225b565b6001600160a01b031661253b6033546001600160a01b031690565b6001600160a01b03161461109f5760405162461bcd60e51b815260206004820181905260248201527f4f776e61626c653a2063616c6c6572206973206e6f7420746865206f776e65726044820152606401610b8f565b612599610adb565b156125dc5760405162461bcd60e51b8152602060048201526013602482015272109b1bd8dadb1a5cdd0e88111254d050931151606a1b6044820152606401610b8f565b600080516020614102833981519152805460ff191660011790557f079c4efaefd9fc7ddb28144b9b0140c03f42922d28d0e226369d60709215816661261f61225b565b6040516001600160a01b03909116815260200160405180910390a1565b6110dc8161264861225b565b61303c565b6126578282611a50565b6111695760008281526097602090815260408083206001600160a01b03851684529091529020805460ff1916600117905561269061225b565b6001600160a01b0316816001600160a01b0316837f2f8788117e7eff1d82e926ec794901d17c78024a50270940304540a733656f0d60405160405180910390a45050565b6110dc60008051602061414283398151915282611f08565b6126f68282611a50565b156111695760008281526097602090815260408083206001600160a01b03851684529091529020805460ff1916905561272d61225b565b6001600160a01b0316816001600160a01b0316837ff6391f5c32d9c69d2a47ea670b442974b53935d1edc7fd64eb21e047a839171b60405160405180910390a45050565b600061277d8787612e7d565b905061278881612f79565b61279187612fdb565b156128775760ca5460cc5460405163c36c212560e01b81526001600160a01b039283169263c36c2125926127cd928d928c921690600401613b74565b600060405180830381600087803b1580156127e757600080fd5b505af11580156127fb573d6000803e3d6000fd5b50508515915061287290505760cc54604051633a0deb9d60e21b81526001600160a01b039091169063e837ae749061283f9088908890889088908890600401613d7a565b600060405180830381600087803b15801561285957600080fd5b505af115801561286d573d6000803e3d6000fd5b505050505b612392565b60c9546001600160a01b031663b0f5917789836128948b8b613019565b898989896040518863ffffffff1660e01b81526004016128ba9796959493929190613c21565b600060405180830381600087803b1580156128d457600080fd5b505af11580156128e8573d6000803e3d6000fd5b505050505050505050505050565b6128fe611597565b6129415760405162461bcd60e51b815260206004820152601460248201527314185d5cd8589b194e881393d517d4105554d15160621b6044820152606401610b8f565b6000805160206140e2833981519152805460ff191690557f5db9ee0a495bf2e6ff9c91a7834c1ba4fdd244a5e8aa4e537bd38aeae4b073aa61261f61225b565b612989610adb565b156129cc5760405162461bcd60e51b8152602060048201526013602482015272109b1bd8dadb1a5cdd0e88111254d050931151606a1b6044820152606401610b8f565b604080517f1ec047073e2c8b15660901dbfdb6e3ff6365bd699dd9f95dcc6eab5448bebd696020820152908101829052600190612a0b90606001611d66565b805460ff19169115159190911790556040518181527f2ce5d9351b1d590d5a066db0d2dc7602d55f092506a83a7ee8c4d78ee357d75a9060200160405180910390a150565b6000612a928585858080601f016020809104026020016040519081016040528093929190818152602001838380828437600092019190915250612e7d92505050565b9050612a9d81612f79565b612aa685612fdb565b15612b1e5760ca5460cc54604051630f95e75b60e31b81526001600160a01b0392831692637caf3ad892612ae7928b928a928a929116908990600401613b2a565b600060405180830381600087803b158015612b0157600080fd5b505af1158015612b15573d6000803e3d6000fd5b50505050610e21565b60c954604080516020601f87018190048102820181019092528581526001600160a01b039092169163b55bc6179189918591612b76918b918b908b908190840183828082843760009201919091525061301992505050565b866040518563ffffffff1660e01b8152600401612b969493929190613cf0565b600060405180830381600087803b158015612bb057600080fd5b505af1158015612bc4573d6000803e3d6000fd5b50505050505050505050565b6110dc60008051602061414283398151915282612e73565b603380546001600160a01b038381166001600160a01b0319831681179093556040519116919082907f8be0079c531659141344cd1fd0a4f28419497f9722a3daafe3b4186f6b6457e090600090a35050565b612c42611597565b15612c5f5760405162461bcd60e51b8152600401610b8f90613f19565b6000805160206140e2833981519152805460ff191660011790557f62e78cea01bee320cd4e420270b5ea74000d11b0c9f74754ebdbfc544b05a25861261f61225b565b612caa610adb565b612ceb5760405162461bcd60e51b8152602060048201526012602482015271109b1bd8dadb1a5cdd0e881153905093115160721b6044820152606401610b8f565b600080516020614102833981519152805460ff191690557f316c4cec74b9568f102eda30781a2fe8cd5172329bf1401e804cb8c5131715c461261f61225b565b60005b818110156110c657612d65838383818110612d5957634e487b7160e01b600052603260045260246000fd5b90506020020135612981565b80612d6f81614085565b915050612d2e565b612d80816121c9565b612d9c5760405162461bcd60e51b8152600401610b8f90613f43565b807ffc5c8945ae90ac0d332d5f2099538d13d0ff7cc61e20635b95676c6fba08473060cd6000848152602001908152602001600020604051612dde9190613e1d565b60405180910390a2600081815260cd602052604081206110dc9161330c565b612e05612518565b6001600160a01b038116612e6a5760405162461bcd60e51b815260206004820152602660248201527f4f776e61626c653a206e6577206f776e657220697320746865207a65726f206160448201526564647265737360d01b6064820152608401610b8f565b6110dc81612be8565b611169828261264d565b6000815160001415612ed15760405162461bcd60e51b815260206004820152601b60248201527f4d696e74696e674d616e616765723a204c4142454c5f454d50545900000000006044820152606401610b8f565b8282604051602001612ee391906139dd565b60405160208183030381529060405280519060200120604051602001612f13929190918252602082015260400190565b60408051601f1981840301815291905280516020909101209392505050565b7f893ef2ea16c023f61d4f55d3e6ee3fc3f2fbfd478461323dbc2fbf919047086e546000906001600160a01b0316331415612f74575060331936013560601c90565b503390565b612f81610adb565b6110dc57612f8e81611d1c565b156112ed5760405162461bcd60e51b815260206004820152601d60248201527f4d696e74696e674d616e616765723a20544f4b454e5f424c4f434b45440000006044820152606401610b8f565b60ca546000906001600160a01b0316158015906109fe5750507f0f4a10a4f46c288cea365fcf45cccf0e9d901b945b9829ccdb54c10dc3cb7a6f1490565b600082815260cd6020908152604091829020915160609261227f928592016139f9565b6130468282611a50565b6111695761305e816001600160a01b031660146130a0565b6130698360206130a0565b60405160200161307a929190613ab5565b60408051601f198184030181529082905262461bcd60e51b8252610b8f91600401613e0a565b606060006130af836002613fe8565b6130ba906002613fd0565b6001600160401b038111156130df57634e487b7160e01b600052604160045260246000fd5b6040519080825280601f01601f191660200182016040528015613109576020820181803683370190505b509050600360fc1b8160008151811061313257634e487b7160e01b600052603260045260246000fd5b60200101906001600160f81b031916908160001a905350600f60fb1b8160018151811061316f57634e487b7160e01b600052603260045260246000fd5b60200101906001600160f81b031916908160001a9053506000613193846002613fe8565b61319e906001613fd0565b90505b6001811115613232576f181899199a1a9b1b9c1cb0b131b232b360811b85600f16601081106131e057634e487b7160e01b600052603260045260246000fd5b1a60f81b82828151811061320457634e487b7160e01b600052603260045260246000fd5b60200101906001600160f81b031916908160001a90535060049490941c9361322b81614033565b90506131a1565b5083156132815760405162461bcd60e51b815260206004820181905260248201527f537472696e67733a20686578206c656e67746820696e73756666696369656e746044820152606401610b8f565b9392505050565b8280546132949061404a565b90600052602060002090601f0160209004810192826132b657600085556132fc565b82601f106132cf57805160ff19168380011785556132fc565b828001600101855582156132fc579182015b828111156132fc5782518255916020019190600101906132e1565b50613308929150613342565b5090565b5080546133189061404a565b6000825580601f10613328575050565b601f0160209004906000526020600020908101906110dc91905b5b808211156133085760008155600101613343565b8035613362816140cc565b919050565b60008083601f840112613378578182fd5b5081356001600160401b0381111561338e578182fd5b6020830191508360208260051b85010111156133a957600080fd5b9250929050565b60008083601f8401126133c1578182fd5b5081356001600160401b038111156133d7578182fd5b6020830191508360208285010111156133a957600080fd5b600060208284031215613400578081fd5b8135613281816140cc565b60008060008060608587031215613420578283fd5b843561342b816140cc565b93506020850135925060408501356001600160401b0381111561344c578283fd5b613458878288016133b0565b95989497509550505050565b60008060008060008060008060a0898b03121561347f578384fd5b883561348a816140cc565b97506020890135965060408901356001600160401b03808211156134ac578586fd5b6134b88c838d016133b0565b909850965060608b01359150808211156134d0578586fd5b6134dc8c838d01613367565b909650945060808b01359150808211156134f4578384fd5b506135018b828c01613367565b999c989b5096995094979396929594505050565b60008060008060008060008060008060c08b8d031215613533578182fd5b61353c8b613357565b995060208b0135985060408b01356001600160401b038082111561355e578384fd5b61356a8e838f016133b0565b909a50985060608d0135915080821115613582578384fd5b61358e8e838f01613367565b909850965060808d01359150808211156135a6578384fd5b6135b28e838f01613367565b909650945060a08d01359150808211156135ca578384fd5b506135d78d828e016133b0565b915080935050809150509295989b9194979a5092959850565b60008060008060008060808789031215613608578182fd5b8635613613816140cc565b95506020870135945060408701356001600160401b0380821115613635578384fd5b6136418a838b016133b0565b90965094506060890135915080821115613659578384fd5b5061366689828a016133b0565b979a9699509497509295939492505050565b6000602080838503121561368a578182fd5b82356001600160401b03808211156136a0578384fd5b818501915085601f8301126136b3578384fd5b8135818111156136c5576136c56140b6565b8060051b604051601f19603f830116810181811085821117156136ea576136ea6140b6565b604052828152858101935084860182860187018a1015613708578788fd5b8795505b838610156137315761371d81613357565b85526001959095019493860193860161370c565b5098975050505050505050565b60008060208385031215613750578182fd5b82356001600160401b03811115613765578283fd5b61377185828601613367565b90969095509350505050565b60006020828403121561378e578081fd5b81518015158114613281578182fd5b6000602082840312156137ae578081fd5b5035919050565b600080604083850312156137c7578182fd5b8235915060208301356137d9816140cc565b809150509250929050565b6000602082840312156137f5578081fd5b81356001600160e01b031981168114613281578182fd5b600080600080600060a08688031215613823578283fd5b853561382e816140cc565b9450602086013561383e816140cc565b9350604086013561384e816140cc565b9250606086013561385e816140cc565b9150608086013561386e816140cc565b809150509295509295909350565b6000806020838503121561388e578182fd5b82356001600160401b038111156138a3578283fd5b613771858286016133b0565b6000806000604084860312156138c3578081fd5b8335925060208401356001600160401b038111156138df578182fd5b6138eb868287016133b0565b9497909650939450505050565b60008383855260208086019550808560051b83010184845b8781101561397b57848303601f19018952813536889003601e19018112613935578687fd5b870180356001600160401b0381111561394c578788fd5b80360389131561395a578788fd5b61396785828885016139b4565b9a86019a9450505090830190600101613910565b5090979650505050505050565b600081518084526139a0816020860160208601614007565b601f01601f19169290920160200192915050565b81835281816020850137506000828201602090810191909152601f909101601f19169091010190565b600082516139ef818460208701614007565b9190910192915050565b600083516020613a0c8285838901614007565b8184019150601760f91b82526001838654613a268161404a565b8184168015613a3c5760018114613a5157613a7e565b60ff1983168786015281870185019350613a7e565b898852858820885b83811015613a74578154898201880152908601908701613a59565b5050848288010193505b50919998505050505050505050565b6b756e732d646576746573742d60a01b81528183600c83013760009101600c01908152919050565b7f416363657373436f6e74726f6c3a206163636f756e7420000000000000000000815260008351613aed816017850160208801614007565b7001034b99036b4b9b9b4b733903937b6329607d1b6017918401918201528351613b1e816028840160208801614007565b01602801949350505050565b600060018060a01b03808816835260806020840152613b4d6080840187896139b4565b81861660408501528381036060850152613b678186613988565b9998505050505050505050565b600060018060a01b03808616835260606020840152613b966060840186613988565b9150808416604084015250949350505050565b600060018060a01b03808716835260806020840152613bcb6080840187613988565b81861660408501528381036060850152613be58186613988565b98975050505050505050565b60018060a01b0384168152826020820152606060408201526000613c186060830184613988565b95945050505050565b60018060a01b038816815286602082015260a060408201526000613c4860a0830188613988565b8281036060840152613c5b8187896138f8565b90508281036080840152613c708185876138f8565b9a9950505050505050505050565b60018060a01b038916815287602082015260c060408201526000613ca560c0830189613988565b8281036060840152613cb881888a6138f8565b90508281036080840152613ccd8186886138f8565b905082810360a0840152613ce18185613988565b9b9a5050505050505050505050565b60018060a01b0385168152836020820152608060408201526000613d176080830185613988565b8281036060840152613d298185613988565b979650505050505050565b6020808252825182820181905260009190848201906040850190845b81811015613d6e578351151583529284019291840191600101613d50565b50909695505050505050565b606081526000613d8e6060830187896138f8565b8281036020840152613da18186886138f8565b9150508260408301529695505050505050565b6020808252810182905260006001600160fb1b03831115613dd3578081fd5b8260051b808560408501379190910160400190815292915050565b602081526000613e026020830184866139b4565b949350505050565b6020815260006132816020830184613988565b60006020808352818454613e308161404a565b80848701526040600180841660008114613e515760018114613e6557613e90565b60ff19851689840152606089019550613e90565b898852868820885b85811015613e885781548b8201860152908301908801613e6d565b8a0184019650505b509398975050505050505050565b60208082526026908201527f4d696e74696e674d616e616765723a20544f4b454e5f4c4142454c5f50524f4860408201526512509255115160d21b606082015260800190565b6020808252818101527f4d696e746572526f6c653a2043414c4c45525f49535f4e4f545f4d494e544552604082015260600190565b60208082526010908201526f14185d5cd8589b194e8814105554d15160821b604082015260600190565b60208082526022908201527f4d696e74696e674d616e616765723a20544c445f4e4f545f5245474953544552604082015261115160f21b606082015260800190565b6020808252602b908201527f496e697469616c697a61626c653a20636f6e7472616374206973206e6f74206960408201526a6e697469616c697a696e6760a81b606082015260800190565b60008219821115613fe357613fe36140a0565b500190565b6000816000190483118215151615614002576140026140a0565b500290565b60005b8381101561402257818101518382015260200161400a565b838111156123975750506000910152565b600081614042576140426140a0565b506000190190565b600181811c9082168061405e57607f821691505b6020821081141561407f57634e487b7160e01b600052602260045260246000fd5b50919050565b6000600019821415614099576140996140a0565b5060010190565b634e487b7160e01b600052601160045260246000fd5b634e487b7160e01b600052604160045260246000fd5b6001600160a01b03811681146110dc57600080fdfe5496787fc1ebdfeba375028c1865f13fbb1d63c0caa356ccc1b29a80f3ebd622a85b8425a460dd344a297bd4a82e287385f0fc558cb3e78867b0489f43df2470b551e0305c8163b812374b8e78b577c77f226f6f10c5ad03e52699578fbc34b89f2df0fed2c77648de5860a4cc508cd0818c85b8b8a1ab4ceeef8d981c8956a6a164736f6c6343000804000a",
  "linkReferences": {},
  "deployedLinkReferences": {}
}