{
  "_format": "hh-sol-artifact-1",
  "contractName": "MintingManager",
  "sourceName": "contracts/MintingManager.sol",
  "abi": [
    {
      "anonymous": false,
      "inputs": [
        {
          "indexed": false,
          "internalType": "address",
          "name": "previousAdmin",
          "type": "address"
        },
        {
          "indexed": false,
          "internalType": "address",
          "name": "newAdmin",
          "type": "address"
        }
      ],
      "name": "AdminChanged",
      "type": "event"
    },
    {
      "anonymous": false,
      "inputs": [
        {
          "indexed": false,
          "internalType": "uint256",
          "name": "tokenId",
          "type": "uint256"
        }
      ],
      "name": "Blocked",
      "type": "event"
    },
    {
      "anonymous": false,
      "inputs": [
        {
          "indexed": false,
          "internalType": "address",
          "name": "account",
          "type": "address"
        }
      ],
      "name": "BlocklistDisabled",
      "type": "event"
    },
    {
      "anonymous": false,
      "inputs": [
        {
          "indexed": false,
          "internalType": "address",
          "name": "account",
          "type": "address"
        }
      ],
      "name": "BlocklistEnabled",
      "type": "event"
    },
    {
      "anonymous": false,
      "inputs": [
        {
          "indexed": false,
          "internalType": "uint8",
          "name": "version",
          "type": "uint8"
        }
      ],
      "name": "Initialized",
      "type": "event"
    },
    {
      "anonymous": false,
      "inputs": [
        {
          "indexed": true,
          "internalType": "uint256",
          "name": "tokenId",
          "type": "uint256"
        },
        {
          "indexed": false,
          "internalType": "string",
          "name": "tld",
          "type": "string"
        }
      ],
      "name": "NewTld",
      "type": "event"
    },
    {
      "anonymous": false,
      "inputs": [
        {
          "indexed": true,
          "internalType": "address",
          "name": "previousOwner",
          "type": "address"
        },
        {
          "indexed": true,
          "internalType": "address",
          "name": "newOwner",
          "type": "address"
        }
      ],
      "name": "OwnershipTransferred",
      "type": "event"
    },
    {
      "anonymous": false,
      "inputs": [
        {
          "indexed": false,
          "internalType": "address",
          "name": "account",
          "type": "address"
        }
      ],
      "name": "Paused",
      "type": "event"
    },
    {
      "anonymous": false,
      "inputs": [
        {
          "indexed": true,
          "internalType": "uint256",
          "name": "tokenId",
          "type": "uint256"
        }
      ],
      "name": "RemoveTld",
      "type": "event"
    },
    {
      "anonymous": false,
      "inputs": [
        {
          "indexed": true,
          "internalType": "bytes32",
          "name": "role",
          "type": "bytes32"
        },
        {
          "indexed": true,
          "internalType": "bytes32",
          "name": "previousAdminRole",
          "type": "bytes32"
        },
        {
          "indexed": true,
          "internalType": "bytes32",
          "name": "newAdminRole",
          "type": "bytes32"
        }
      ],
      "name": "RoleAdminChanged",
      "type": "event"
    },
    {
      "anonymous": false,
      "inputs": [
        {
          "indexed": true,
          "internalType": "bytes32",
          "name": "role",
          "type": "bytes32"
        },
        {
          "indexed": true,
          "internalType": "address",
          "name": "account",
          "type": "address"
        },
        {
          "indexed": true,
          "internalType": "address",
          "name": "sender",
          "type": "address"
        }
      ],
      "name": "RoleGranted",
      "type": "event"
    },
    {
      "anonymous": false,
      "inputs": [
        {
          "indexed": true,
          "internalType": "bytes32",
          "name": "role",
          "type": "bytes32"
        },
        {
          "indexed": true,
          "internalType": "address",
          "name": "account",
          "type": "address"
        },
        {
          "indexed": true,
          "internalType": "address",
          "name": "sender",
          "type": "address"
        }
      ],
      "name": "RoleRevoked",
      "type": "event"
    },
    {
      "anonymous": false,
      "inputs": [
        {
          "indexed": false,
          "internalType": "address",
          "name": "account",
          "type": "address"
        }
      ],
      "name": "Unpaused",
      "type": "event"
    },
    {
      "anonymous": false,
      "inputs": [
        {
          "indexed": true,
          "internalType": "address",
          "name": "implementation",
          "type": "address"
        }
      ],
      "name": "Upgraded",
      "type": "event"
    },
    {
      "inputs": [],
      "name": "DEFAULT_ADMIN_ROLE",
      "outputs": [
        {
          "internalType": "bytes32",
          "name": "",
          "type": "bytes32"
        }
      ],
      "stateMutability": "view",
      "type": "function"
    },
    {
      "inputs": [],
      "name": "MINTER_ROLE",
      "outputs": [
        {
          "internalType": "bytes32",
          "name": "",
          "type": "bytes32"
        }
      ],
      "stateMutability": "view",
      "type": "function"
    },
    {
      "inputs": [],
      "name": "NAME",
      "outputs": [
        {
          "internalType": "string",
          "name": "",
          "type": "string"
        }
      ],
      "stateMutability": "view",
      "type": "function"
    },
    {
      "inputs": [],
      "name": "VERSION",
      "outputs": [
        {
          "internalType": "string",
          "name": "",
          "type": "string"
        }
      ],
      "stateMutability": "view",
      "type": "function"
    },
    {
      "inputs": [
        {
          "internalType": "address",
          "name": "account",
          "type": "address"
        }
      ],
      "name": "addMinter",
      "outputs": [],
      "stateMutability": "nonpayable",
      "type": "function"
    },
    {
      "inputs": [
        {
          "internalType": "address[]",
          "name": "accounts",
          "type": "address[]"
        }
      ],
      "name": "addMinters",
      "outputs": [],
      "stateMutability": "nonpayable",
      "type": "function"
    },
    {
      "inputs": [
        {
          "internalType": "address[]",
          "name": "addrs",
          "type": "address[]"
        }
      ],
      "name": "addProxyReaders",
      "outputs": [],
      "stateMutability": "nonpayable",
      "type": "function"
    },
    {
      "inputs": [
        {
          "internalType": "string",
          "name": "tld",
          "type": "string"
        }
      ],
      "name": "addTld",
      "outputs": [],
      "stateMutability": "nonpayable",
      "type": "function"
    },
    {
      "inputs": [
        {
          "internalType": "string[][]",
          "name": "domains",
          "type": "string[][]"
        }
      ],
      "name": "backfillReverseNames",
      "outputs": [],
      "stateMutability": "nonpayable",
      "type": "function"
    },
    {
      "inputs": [
        {
          "internalType": "uint256",
          "name": "tld",
          "type": "uint256"
        },
        {
          "internalType": "string",
          "name": "label",
          "type": "string"
        }
      ],
      "name": "claim",
      "outputs": [],
      "stateMutability": "nonpayable",
      "type": "function"
    },
    {
      "inputs": [
        {
          "internalType": "address",
          "name": "to",
          "type": "address"
        },
        {
          "internalType": "uint256",
          "name": "tld",
          "type": "uint256"
        },
        {
          "internalType": "string",
          "name": "label",
          "type": "string"
        }
      ],
      "name": "claimTo",
      "outputs": [],
      "stateMutability": "nonpayable",
      "type": "function"
    },
    {
      "inputs": [
        {
          "internalType": "address",
          "name": "to",
          "type": "address"
        },
        {
          "internalType": "uint256",
          "name": "tld",
          "type": "uint256"
        },
        {
          "internalType": "string",
          "name": "label",
          "type": "string"
        },
        {
          "internalType": "string[]",
          "name": "keys",
          "type": "string[]"
        },
        {
          "internalType": "string[]",
          "name": "values",
          "type": "string[]"
        }
      ],
      "name": "claimToWithRecords",
      "outputs": [],
      "stateMutability": "nonpayable",
      "type": "function"
    },
    {
      "inputs": [
        {
          "internalType": "address payable",
          "name": "receiver",
          "type": "address"
        }
      ],
      "name": "closeMinter",
      "outputs": [],
      "stateMutability": "payable",
      "type": "function"
    },
    {
      "inputs": [],
      "name": "cnsMintingController",
      "outputs": [
        {
          "internalType": "contract IMintingController",
          "name": "",
          "type": "address"
        }
      ],
      "stateMutability": "view",
      "type": "function"
    },
    {
      "inputs": [],
      "name": "cnsResolver",
      "outputs": [
        {
          "internalType": "contract IResolver",
          "name": "",
          "type": "address"
        }
      ],
      "stateMutability": "view",
      "type": "function"
    },
    {
      "inputs": [],
      "name": "cnsURIPrefixController",
      "outputs": [
        {
          "internalType": "contract IURIPrefixController",
          "name": "",
          "type": "address"
        }
      ],
      "stateMutability": "view",
      "type": "function"
    },
    {
      "inputs": [
        {
          "internalType": "bytes32",
          "name": "role",
          "type": "bytes32"
        }
      ],
      "name": "getRoleAdmin",
      "outputs": [
        {
          "internalType": "bytes32",
          "name": "",
          "type": "bytes32"
        }
      ],
      "stateMutability": "view",
      "type": "function"
    },
    {
      "inputs": [
        {
          "internalType": "bytes32",
          "name": "role",
          "type": "bytes32"
        },
        {
          "internalType": "address",
          "name": "account",
          "type": "address"
        }
      ],
      "name": "grantRole",
      "outputs": [],
      "stateMutability": "nonpayable",
      "type": "function"
    },
    {
      "inputs": [
        {
          "internalType": "bytes32",
          "name": "role",
          "type": "bytes32"
        },
        {
          "internalType": "address",
          "name": "account",
          "type": "address"
        }
      ],
      "name": "hasRole",
      "outputs": [
        {
          "internalType": "bool",
          "name": "",
          "type": "bool"
        }
      ],
      "stateMutability": "view",
      "type": "function"
    },
    {
      "inputs": [
        {
          "internalType": "contract IUNSRegistry",
          "name": "unsRegistry_",
          "type": "address"
        },
        {
          "internalType": "contract IMintingController",
          "name": "cnsMintingController_",
          "type": "address"
        },
        {
          "internalType": "contract IURIPrefixController",
          "name": "cnsURIPrefixController_",
          "type": "address"
        },
        {
          "internalType": "contract IResolver",
          "name": "cnsResolver_",
          "type": "address"
        },
        {
          "internalType": "address",
          "name": "unsOperator_",
          "type": "address"
        },
        {
          "internalType": "address",
          "name": "forwarder",
          "type": "address"
        }
      ],
      "name": "initialize",
      "outputs": [],
      "stateMutability": "nonpayable",
      "type": "function"
    },
    {
      "inputs": [
        {
          "internalType": "uint256",
          "name": "tokenId",
          "type": "uint256"
        }
      ],
      "name": "isBlocked",
      "outputs": [
        {
          "internalType": "bool",
          "name": "",
          "type": "bool"
        }
      ],
      "stateMutability": "view",
      "type": "function"
    },
    {
      "inputs": [
        {
          "internalType": "address",
          "name": "account",
          "type": "address"
        }
      ],
      "name": "isMinter",
      "outputs": [
        {
          "internalType": "bool",
          "name": "",
          "type": "bool"
        }
      ],
      "stateMutability": "view",
      "type": "function"
    },
    {
      "inputs": [
        {
          "internalType": "address",
          "name": "forwarder",
          "type": "address"
        }
      ],
      "name": "isTrustedForwarder",
      "outputs": [
        {
          "internalType": "bool",
          "name": "",
          "type": "bool"
        }
      ],
      "stateMutability": "view",
      "type": "function"
    },
    {
      "inputs": [
        {
          "internalType": "address",
          "name": "to",
          "type": "address"
        },
        {
          "internalType": "string[]",
          "name": "labels",
          "type": "string[]"
        },
        {
          "internalType": "string[]",
          "name": "keys",
          "type": "string[]"
        },
        {
          "internalType": "string[]",
          "name": "values",
          "type": "string[]"
        },
        {
          "internalType": "bool",
          "name": "withReverse",
          "type": "bool"
        }
      ],
      "name": "issueWithRecords",
      "outputs": [],
      "stateMutability": "nonpayable",
      "type": "function"
    },
    {
      "inputs": [],
      "name": "owner",
      "outputs": [
        {
          "internalType": "address",
          "name": "",
          "type": "address"
        }
      ],
      "stateMutability": "view",
      "type": "function"
    },
    {
      "inputs": [],
      "name": "pause",
      "outputs": [],
      "stateMutability": "nonpayable",
      "type": "function"
    },
    {
      "inputs": [],
      "name": "paused",
      "outputs": [
        {
          "internalType": "bool",
          "name": "",
          "type": "bool"
        }
      ],
      "stateMutability": "view",
      "type": "function"
    },
    {
      "inputs": [
        {
          "internalType": "address",
          "name": "account",
          "type": "address"
        }
      ],
      "name": "removeMinter",
      "outputs": [],
      "stateMutability": "nonpayable",
      "type": "function"
    },
    {
      "inputs": [
        {
          "internalType": "address[]",
          "name": "accounts",
          "type": "address[]"
        }
      ],
      "name": "removeMinters",
      "outputs": [],
      "stateMutability": "nonpayable",
      "type": "function"
    },
    {
      "inputs": [
        {
          "internalType": "uint256",
          "name": "tld",
          "type": "uint256"
        }
      ],
      "name": "removeTld",
      "outputs": [],
      "stateMutability": "nonpayable",
      "type": "function"
    },
    {
      "inputs": [],
      "name": "renounceMinter",
      "outputs": [],
      "stateMutability": "nonpayable",
      "type": "function"
    },
    {
      "inputs": [],
      "name": "renounceOwnership",
      "outputs": [],
      "stateMutability": "nonpayable",
      "type": "function"
    },
    {
      "inputs": [
        {
          "internalType": "bytes32",
          "name": "role",
          "type": "bytes32"
        },
        {
          "internalType": "address",
          "name": "account",
          "type": "address"
        }
      ],
      "name": "renounceRole",
      "outputs": [],
      "stateMutability": "nonpayable",
      "type": "function"
    },
    {
      "inputs": [
        {
          "internalType": "bytes32",
          "name": "role",
          "type": "bytes32"
        },
        {
          "internalType": "address",
          "name": "account",
          "type": "address"
        }
      ],
      "name": "revokeRole",
      "outputs": [],
      "stateMutability": "nonpayable",
      "type": "function"
    },
    {
      "inputs": [
        {
          "internalType": "address payable",
          "name": "receiver",
          "type": "address"
        }
      ],
      "name": "rotateMinter",
      "outputs": [],
      "stateMutability": "payable",
      "type": "function"
    },
    {
      "inputs": [
        {
          "internalType": "address",
          "name": "forwarder",
          "type": "address"
        }
      ],
      "name": "setForwarder",
      "outputs": [],
      "stateMutability": "nonpayable",
      "type": "function"
    },
    {
      "inputs": [
        {
          "internalType": "address",
          "name": "operator",
          "type": "address"
        }
      ],
      "name": "setOperator",
      "outputs": [],
      "stateMutability": "nonpayable",
      "type": "function"
    },
    {
      "inputs": [
        {
          "internalType": "string",
          "name": "prefix",
          "type": "string"
        }
      ],
      "name": "setTokenURIPrefix",
      "outputs": [],
      "stateMutability": "nonpayable",
      "type": "function"
    },
    {
      "inputs": [
        {
          "internalType": "bytes4",
          "name": "interfaceId",
          "type": "bytes4"
        }
      ],
      "name": "supportsInterface",
      "outputs": [
        {
          "internalType": "bool",
          "name": "",
          "type": "bool"
        }
      ],
      "stateMutability": "view",
      "type": "function"
    },
    {
      "inputs": [
        {
          "internalType": "address",
          "name": "newOwner",
          "type": "address"
        }
      ],
      "name": "transferOwnership",
      "outputs": [],
      "stateMutability": "nonpayable",
      "type": "function"
    },
    {
      "inputs": [],
      "name": "unpause",
      "outputs": [],
      "stateMutability": "nonpayable",
      "type": "function"
    },
    {
      "inputs": [],
      "name": "unsOperator",
      "outputs": [
        {
          "internalType": "address",
          "name": "",
          "type": "address"
        }
      ],
      "stateMutability": "view",
      "type": "function"
    },
    {
      "inputs": [],
      "name": "unsRegistry",
      "outputs": [
        {
          "internalType": "contract IUNSRegistry",
          "name": "",
          "type": "address"
        }
      ],
      "stateMutability": "view",
      "type": "function"
    }
  ],
  "bytecode": "0x608060405234801561001057600080fd5b5061379f806100206000396000f3fe60806040526004361061025c5760003560e01c8063906cecc111610144578063b9998a24116100b6578063d1f5692c1161007a578063d1f5692c1461074b578063d53913931461076b578063d547741f1461078d578063ec527389146107ad578063f2fde38b146107cd578063ffa1ad74146107ed57600080fd5b8063b9998a24146106ab578063c3a3bc00146106cb578063cc2a9a5b146106eb578063cc2c3fc41461070b578063ceeb4f501461072b57600080fd5b8063a217fddf11610108578063a217fddf146105c9578063a3f4df7e146105de578063a849d65c1461062b578063aa271e1a1461064b578063b0aa98c71461066b578063b3ab15fb1461068b57600080fd5b8063906cecc11461053457806391d1485414610554578063983b2d5614610574578063986502751461059457806399e0dd7c146105a957600080fd5b80635b6fa8db116101dd578063715018a6116101a1578063715018a61461049957806371e2a657146104ae57806377a2a589146104ce57806381c81d35146104ee5780638456cb59146105015780638da5cb5b1461051657600080fd5b80635b6fa8db146104115780635c975abb146104315780635cd7e3b3146104465780635fc1964f14610466578063634486da1461048657600080fd5b806336568abe1161022457806336568abe146103365780633f41b614146103565780633f4ba83a1461038e57806344d5f66c146103a3578063572b6c05146103c357600080fd5b806301ffc9a714610261578063248a9ca314610296578063268b15ed146102d45780632f2ff15d146102f65780633092afd514610316575b600080fd5b34801561026d57600080fd5b5061028161027c36600461306e565b61081f565b60405190151581526020015b60405180910390f35b3480156102a257600080fd5b506102c66102b1366004613027565b60009081526097602052604090206001015490565b60405190815260200161028d565b3480156102e057600080fd5b506102f46102ef36600461314a565b610856565b005b34801561030257600080fd5b506102f461031136600461303f565b6108f9565b34801561032257600080fd5b506102f4610331366004612c71565b610923565b34801561034257600080fd5b506102f461035136600461303f565b610937565b34801561036257600080fd5b5060c954610376906001600160a01b031681565b6040516001600160a01b03909116815260200161028d565b34801561039a57600080fd5b506102f46109c5565b3480156103af57600080fd5b506102f46103be366004612f48565b6109d7565b3480156103cf57600080fd5b506102816103de366004612c71565b7f893ef2ea16c023f61d4f55d3e6ee3fc3f2fbfd478461323dbc2fbf919047086e546001600160a01b0390811691161490565b34801561041d57600080fd5b5060cc54610376906001600160a01b031681565b34801561043d57600080fd5b50610281610a63565b34801561045257600080fd5b506102f4610461366004612ca9565b610a79565b34801561047257600080fd5b506102f4610481366004612ead565b610d97565b6102f4610494366004612c71565b610ded565b3480156104a557600080fd5b506102f4610ee0565b3480156104ba57600080fd5b506102f46104c9366004612ead565b610ef2565b3480156104da57600080fd5b5060ce54610376906001600160a01b031681565b6102f46104fc366004612c71565b610f48565b34801561050d57600080fd5b506102f4610ff5565b34801561052257600080fd5b506033546001600160a01b0316610376565b34801561054057600080fd5b506102f461054f366004612d64565b611005565b34801561056057600080fd5b5061028161056f36600461303f565b61108b565b34801561058057600080fd5b506102f461058f366004612c71565b6110b6565b3480156105a057600080fd5b506102f46110c7565b3480156105b557600080fd5b506102f46105c4366004613117565b6110e1565b3480156105d557600080fd5b506102c6600081565b3480156105ea57600080fd5b5061061e604051806040016040528060148152602001732aa7299d1026b4b73a34b7339026b0b730b3b2b960611b81525081565b60405161028d9190613489565b34801561063757600080fd5b5060cb54610376906001600160a01b031681565b34801561065757600080fd5b50610281610666366004612c71565b6111c0565b34801561067757600080fd5b50610281610686366004613027565b6111da565b34801561069757600080fd5b506102f46106a6366004612c71565b611238565b3480156106b757600080fd5b506102f46106c6366004612c71565b611262565b3480156106d757600080fd5b506102f46106e6366004613117565b6112a7565b3480156106f757600080fd5b506102f4610706366004613096565b6112ee565b34801561071757600080fd5b5060ca54610376906001600160a01b031681565b34801561073757600080fd5b506102f4610746366004612dbd565b61165c565b34801561075757600080fd5b506102f4610766366004612e6e565b6116f2565b34801561077757600080fd5b506102c660008051602061377383398151915281565b34801561079957600080fd5b506102f46107a836600461303f565b6117b7565b3480156107b957600080fd5b506102f46107c8366004613027565b6117dc565b3480156107d957600080fd5b506102f46107e8366004612c71565b61184e565b3480156107f957600080fd5b5061061e60405180604001604052806006815260200165302e342e313160d01b81525081565b60006001600160e01b03198216637965db0b60e01b148061085057506301ffc9a760e01b6001600160e01b03198316145b92915050565b8282828080601f01602080910402602001604051908101604052809392919081815260200183838082843760009201919091525061089a925084915083905061186a565b6108a2610a63565b156108c85760405162461bcd60e51b81526004016108bf9061349c565b60405180910390fd5b60606108f16108d56119c0565b6108e8886108e389896119cf565b6119fb565b83846001611b28565b505050505050565b60008281526097602052604090206001015461091481611e26565b61091e8383611e37565b505050565b61092b611ebe565b61093481611f37565b50565b61093f6119c0565b6001600160a01b0316816001600160a01b0316146109b75760405162461bcd60e51b815260206004820152602f60248201527f416363657373436f6e74726f6c3a2063616e206f6e6c792072656e6f756e636560448201526e103937b632b9903337b91039b2b63360891b60648201526084016108bf565b6109c18282611f4f565b5050565b6109cd611ebe565b6109d5611fd4565b565b6109e26106666119c0565b6109fe5760405162461bcd60e51b81526004016108bf906134c6565b60c9546040516311357d9b60e21b81526001600160a01b03909116906344d5f66c90610a2e9084906004016133c3565b600060405180830381600087803b158015610a4857600080fd5b505af1158015610a5c573d6000803e3d6000fd5b5050505050565b6000805160206137538339815191525460ff1690565b610a838688613659565b805160021415610ab957610a986106666119c0565b610ab45760405162461bcd60e51b81526004016108bf906134c6565b610c64565b6000610ac48261207c565b60c9549092506001600160a01b0316905063430c2081610ae26119c0565b6040516001600160e01b031960e084901b1681526001600160a01b0390911660048201526024810184905260440160206040518083038186803b158015610b2857600080fd5b505afa158015610b3c573d6000803e3d6000fd5b505050506040513d601f19601f82011682018060405250810190610b60919061300b565b80610bfe575060c95460ce5460405163430c208160e01b81526001600160a01b0391821660048201526024810184905291169063430c20819060440160206040518083038186803b158015610bb457600080fd5b505afa158015610bc8573d6000803e3d6000fd5b505050506040513d601f19601f82011682018060405250810190610bec919061300b565b8015610bfe5750610bfe6106666119c0565b610c625760405162461bcd60e51b815260206004820152602f60248201527f4d696e74696e674d616e616765723a2053454e4445525f49535f4e4f545f415060448201526e282927ab22a22fa7a92fa7aba722a960891b60648201526084016108bf565b505b610c6e8789613659565b600281511015610cce5760405162461bcd60e51b815260206004820152602560248201527f4d696e74696e674d616e616765723a204c4142454c535f4c454e4754485f42456044820152642627abaf9960d91b60648201526084016108bf565b610d3e610d1060008360018551610ce59190613642565b81518110610d0357634e487b7160e01b600052603260045260246000fd5b60200260200101516120b7565b82600081518110610d3157634e487b7160e01b600052603260045260246000fd5b602002602001015161186a565b610d46610a63565b15610d635760405162461bcd60e51b81526004016108bf9061349c565b610d8b8a610d718a8c613659565b610d7b898b613659565b610d85888a613659565b87611b28565b50505050505050505050565b610d9f611ebe565b60005b81518110156109c157610ddb828281518110610dce57634e487b7160e01b600052603260045260246000fd5b6020026020010151611f37565b80610de5816136e8565b915050610da2565b610df86106666119c0565b610e445760405162461bcd60e51b815260206004820181905260248201527f4d696e746572526f6c653a2043414c4c45525f49535f4e4f545f4d494e54455260448201526064016108bf565b6001600160a01b038116610e9a5760405162461bcd60e51b815260206004820152601d60248201527f4d696e746572526f6c653a2052454345495645525f49535f454d50545900000060448201526064016108bf565b610ea38161216c565b610eab6110c7565b6040516001600160a01b038216903480156108fc02916000818181858888f193505050501580156109c1573d6000803e3d6000fd5b610ee8611ebe565b6109d56000612184565b610efa611ebe565b60005b81518110156109c157610f36828281518110610f2957634e487b7160e01b600052603260045260246000fd5b602002602001015161216c565b80610f40816136e8565b915050610efd565b610f536106666119c0565b610f9f5760405162461bcd60e51b815260206004820181905260248201527f4d696e746572526f6c653a2043414c4c45525f49535f4e4f545f4d494e54455260448201526064016108bf565b6001600160a01b038116610ea35760405162461bcd60e51b815260206004820152601d60248201527f4d696e746572526f6c653a2052454345495645525f49535f454d50545900000060448201526064016108bf565b610ffd611ebe565b6109d56121d6565b8282828080601f016020809104026020016040519081016040528093929190818152602001838380828437600092019190915250611049925084915083905061186a565b611051610a63565b1561106e5760405162461bcd60e51b81526004016108bf9061349c565b6060611082876108e8886108e389896119cf565b50505050505050565b60009182526097602090815260408084206001600160a01b0393909316845291905290205460ff1690565b6110be611ebe565b6109348161216c565b6109d56000805160206137738339815191526103516119c0565b6110e9611ebe565b60c954604051632678375f60e21b81526001600160a01b03909116906399e0dd7c9061111b908590859060040161345a565b600060405180830381600087803b15801561113557600080fd5b505af1158015611149573d6000803e3d6000fd5b505060cb546001600160a01b03161591506109c190505760cb54604051632678375f60e21b81526001600160a01b03909116906399e0dd7c90611192908590859060040161345a565b600060405180830381600087803b1580156111ac57600080fd5b505af11580156108f1573d6000803e3d6000fd5b60006108506000805160206137738339815191528361108b565b604080517f1ec047073e2c8b15660901dbfdb6e3ff6365bd699dd9f95dcc6eab5448bebd69602082015290810182905260009061122e906060015b6040516020818303038152906040528051906020012090565b5460ff1692915050565b611240611ebe565b60ce80546001600160a01b0319166001600160a01b0392909216919091179055565b61126a611ebe565b7f893ef2ea16c023f61d4f55d3e6ee3fc3f2fbfd478461323dbc2fbf919047086e80546001600160a01b0319166001600160a01b03831617905550565b6112af611ebe565b6109c182828080601f01602080910402602001604051908101604052809392919081815260200183838082843760009201919091525061223e92505050565b600054610100900460ff161580801561130e5750600054600160ff909116105b806113285750303b158015611328575060005460ff166001145b61138b5760405162461bcd60e51b815260206004820152602e60248201527f496e697469616c697a61626c653a20636f6e747261637420697320616c72656160448201526d191e481a5b9a5d1a585b1a5e995960921b60648201526084016108bf565b6000805460ff1916600117905580156113ae576000805461ff0019166101001790555b60c980546001600160a01b03199081166001600160a01b038a81169190911790925560ca8054821689841617905560cb8054821688841617905560cc8054821687841617905560ce805490911691851691909117905561140c61235a565b611414612391565b61141d826123ca565b6114256123f1565b604080516101e08101825260066101a082018181526563727970746f60d01b6101c0840152825282518084018452818152651dd85b1b195d60d21b602082810191909152808401919091528351808501855260018152600f60fb1b8183015283850152835180850185526003808252621b999d60ea1b82840152606085019190915284518086018652600a815269313637b1b5b1b430b4b760b11b818401526080850152845180860186526007808252663134ba31b7b4b760c91b8285015260a0860191909152855180870187528281526207070760eb1b8185015260c0860152855180870187528281526264616f60e81b8185015260e086015285518087018752918252621e9a5b60ea1b8284015261010085019190915284518086018652908152663837b63cb3b7b760c91b8183015261012084015283518085018552600b81526a756e73746f707061626c6560a81b81830152610140840152835180850185529182526535b632bb32b960d11b8282015261016083019190915282518084019093526002835261686960f01b9083015261018081019190915260005b600d81101561160c576115fa8282600d81106115f057634e487b7160e01b600052603260045260246000fd5b602002015161223e565b80611604816136e8565b9150506115c4565b50508015611082576000805461ff0019169055604051600181527f7f26b83ff96e1f2b6a682f133852f6798a09c465da95921460cefb38474024989060200160405180910390a150505050505050565b8686868080601f0160208091040260200160405190810160405280939291908181526020018383808284376000920191909152506116a0925084915083905061186a565b6116a8610a63565b156116c55760405162461bcd60e51b81526004016108bf9061349c565b610d8b8a6116d78b6108e38c8c6119cf565b6116e1888a613659565b6116eb8789613659565b6001611b28565b6116fa611ebe565b60005b8181101561091e5760c9546001600160a01b0316635096023984848481811061173657634e487b7160e01b600052603260045260246000fd5b905060200201602081019061174b9190612c71565b6040516001600160e01b031960e084901b1681526001600160a01b039091166004820152602401600060405180830381600087803b15801561178c57600080fd5b505af11580156117a0573d6000803e3d6000fd5b5050505080806117af906136e8565b9150506116fd565b6000828152609760205260409020600101546117d281611e26565b61091e8383611f4f565b6117e4611ebe565b6117ed81612431565b6118095760405162461bcd60e51b81526004016108bf9061350a565b600081815260cd6020526040812061182091612a44565b60405181907f0aa1aff0f830e739d86baf0e6624d6763da02f7733575e0e463886cd062dea6a90600090a250565b611856611ebe565b61185f81612457565b6109346000826124cd565b61187382612431565b61188f5760405162461bcd60e51b81526004016108bf9061350a565b60006118c28260408051808201825260008082526020918201528151808301909252825182529182019181019190915290565b9050600a8160000151111561196b576118ed6118e1826000600a6124d7565b80516020909101512090565b7fb551e0305c8163b812374b8e78b577c77f226f6f10c5ad03e52699578fbc34b8141561196b5760405162461bcd60e51b815260206004820152602660248201527f4d696e74696e674d616e616765723a20544f4b454e5f4c4142454c5f50524f4860448201526512509255115160d21b60648201526084016108bf565b61197482612516565b61091e5760405162461bcd60e51b815260206004820152601d60248201527f4d696e74696e674d616e616765723a204c4142454c5f494e56414c494400000060448201526064016108bf565b60006119ca61267b565b905090565b606082826040516020016119e492919061322f565b604051602081830303815290604052905092915050565b604080516002808252606082810190935260009190816020015b6060815260200190600190039081611a155790505090508281600081518110611a4e57634e487b7160e01b600052603260045260246000fd5b602002602001018190525060cd60008581526020019081526020016000208054611a77906136ad565b80601f0160208091040260200160405190810160405280929190818152602001828054611aa3906136ad565b8015611af05780601f10611ac557610100808354040283529160200191611af0565b820191906000526020600020905b815481529060010190602001808311611ad357829003601f168201915b505050505081600181518110611b1657634e487b7160e01b600052603260045260246000fd5b60209081029190910101529392505050565b6000611b338561207c565b5060c954604051634f558e7960e01b8152600481018390529192506001600160a01b031690634f558e799060240160206040518083038186803b158015611b7957600080fd5b505afa158015611b8d573d6000803e3d6000fd5b505050506040513d601f19601f82011682018060405250810190611bb1919061300b565b8015611c3f575060c9546040516331a9108f60e11b81526004810183905230916001600160a01b031690636352211e9060240160206040518083038186803b158015611bfc57600080fd5b505afa158015611c10573d6000803e3d6000fd5b505050506040513d601f19601f82011682018060405250810190611c349190612c8d565b6001600160a01b0316145b15611cb55760c9546040516384442b5160e01b81526001600160a01b03909116906384442b5190611c7e90899085908a908a908a908a90600401613360565b600060405180830381600087803b158015611c9857600080fd5b505af1158015611cac573d6000803e3d6000fd5b505050506108f1565b611cbe816126c2565b611cc785612721565b8015611cd4575084516002145b15611dc05760ca5485516001600160a01b039091169063c36c21259088908890600090611d1157634e487b7160e01b600052603260045260246000fd5b602090810291909101015160cc546040516001600160e01b031960e086901b168152611d4b9392916001600160a01b03169060040161332b565b600060405180830381600087803b158015611d6557600080fd5b505af1158015611d79573d6000803e3d6000fd5b50505050600084511115611dbb5760cc54604051633a0deb9d60e21b81526001600160a01b039091169063e837ae7490611c7e90879087908690600401613424565b6108f1565b60c95460405163ba5d40b760e01b81526001600160a01b039091169063ba5d40b790611df890899089908990899089906004016132cc565b600060405180830381600087803b158015611e1257600080fd5b505af1158015610d8b573d6000803e3d6000fd5b61093481611e326119c0565b61277b565b611e41828261108b565b6109c15760008281526097602090815260408083206001600160a01b03851684529091529020805460ff19166001179055611e7a6119c0565b6001600160a01b0316816001600160a01b0316837f2f8788117e7eff1d82e926ec794901d17c78024a50270940304540a733656f0d60405160405180910390a45050565b611ec66119c0565b6001600160a01b0316611ee16033546001600160a01b031690565b6001600160a01b0316146109d55760405162461bcd60e51b815260206004820181905260248201527f4f776e61626c653a2063616c6c6572206973206e6f7420746865206f776e657260448201526064016108bf565b610934600080516020613773833981519152826117b7565b611f59828261108b565b156109c15760008281526097602090815260408083206001600160a01b03851684529091529020805460ff19169055611f906119c0565b6001600160a01b0316816001600160a01b0316837ff6391f5c32d9c69d2a47ea670b442974b53935d1edc7fd64eb21e047a839171b60405160405180910390a45050565b611fdc610a63565b61201f5760405162461bcd60e51b815260206004820152601460248201527314185d5cd8589b194e881393d517d4105554d15160621b60448201526064016108bf565b600080516020613753833981519152805460ff191690557f5db9ee0a495bf2e6ff9c91a7834c1ba4fdd244a5e8aa4e537bd38aeae4b073aa61205f6119c0565b6040516001600160a01b03909116815260200160405180910390a1565b805160009081905b80156120b15782915061209d8285610ce5600185613642565b9250806120a981613696565b915050612084565b50915091565b600081516000141561210b5760405162461bcd60e51b815260206004820152601b60248201527f4d696e74696e674d616e616765723a204c4142454c5f454d505459000000000060448201526064016108bf565b828260405160200161211d9190613213565b6040516020818303038152906040528051906020012060405160200161214d929190918252602082015260400190565b60408051601f1981840301815291905280516020909101209392505050565b610934600080516020613773833981519152826124cd565b603380546001600160a01b038381166001600160a01b0319831681179093556040519116919082907f8be0079c531659141344cd1fd0a4f28419497f9722a3daafe3b4186f6b6457e090600090a35050565b6121de610a63565b156121fb5760405162461bcd60e51b81526004016108bf9061349c565b600080516020613753833981519152805460ff191660011790557f62e78cea01bee320cd4e420270b5ea74000d11b0c9f74754ebdbfc544b05a25861205f6119c0565b600061224b6000836120b7565b600081815260cd60209081526040909120845192935061226f929091850190612a7e565b50807f4fce6f6e172b04eaa80325d8e3b0180a34945000f3e214605039e8420fdf8980836040516122a09190613489565b60405180910390a260c954604051634f558e7960e01b8152600481018390526001600160a01b0390911690634f558e799060240160206040518083038186803b1580156122ec57600080fd5b505afa158015612300573d6000803e3d6000fd5b505050506040513d601f19601f82011682018060405250810190612324919061300b565b6109c15760c9546040516307befae360e51b81526001600160a01b039091169063f7df5c60906111929084908690600401613597565b600054610100900460ff166123815760405162461bcd60e51b81526004016108bf9061354c565b6109d561238c6119c0565b612184565b600054610100900460ff166123b85760405162461bcd60e51b81526004016108bf9061354c565b6109d560006123c56119c0565b6124cd565b600054610100900460ff1661126a5760405162461bcd60e51b81526004016108bf9061354c565b600054610100900460ff166124185760405162461bcd60e51b81526004016108bf9061354c565b600080516020613753833981519152805460ff19169055565b600081815260cd60205260408120805482919061244d906136ad565b9050119050919050565b61245f611ebe565b6001600160a01b0381166124c45760405162461bcd60e51b815260206004820152602660248201527f4f776e61626c653a206e6577206f776e657220697320746865207a65726f206160448201526564647265737360d01b60648201526084016108bf565b61093481612184565b6109c18282611e37565b6040805180820190915260008082526020820152604051806040016040528083815260200184866020015161250c919061360b565b9052949350505050565b600081516000141561252a57506000919050565b60208201805160f81c60308110801590612548575060398160ff1611155b15801561256a575060618160ff16101580156125685750607a8160ff1611155b155b15612579575060009392505050565b835160018111156125e75761259b83612593600184613642565b015160f81c90565b915060308260ff16101580156125b5575060398260ff1611155b1580156125d7575060618260ff16101580156125d55750607a8260ff1611155b155b156125e757506000949350505050565b60015b6125f5600183613642565b81101561266f578381015160f81c9250602d831480159061262b575060308360ff1610158015612629575060398360ff1611155b155b801561264c575060618360ff161015801561264a5750607a8360ff1611155b155b1561265d5750600095945050505050565b80612667816136e8565b9150506125ea565b50600195945050505050565b7f893ef2ea16c023f61d4f55d3e6ee3fc3f2fbfd478461323dbc2fbf919047086e546000906001600160a01b03163314156126bd575060331936013560601c90565b503390565b6126cb816111da565b156127185760405162461bcd60e51b815260206004820152601d60248201527f4d696e74696e674d616e616765723a20544f4b454e5f424c4f434b454400000060448201526064016108bf565b610934816127df565b60008061273860008460018651610ce59190613642565b60ca549091506001600160a01b0316158015906127745750807f0f4a10a4f46c288cea365fcf45cccf0e9d901b945b9829ccdb54c10dc3cb7a6f145b9392505050565b612785828261108b565b6109c15761279d816001600160a01b03166014612863565b6127a8836020612863565b6040516020016127b9929190613257565b60408051601f198184030181529082905262461bcd60e51b82526108bf91600401613489565b604080517f1ec047073e2c8b15660901dbfdb6e3ff6365bd699dd9f95dcc6eab5448bebd69602082015290810182905260019061281e90606001611215565b805460ff19169115159190911790556040518181527f2ce5d9351b1d590d5a066db0d2dc7602d55f092506a83a7ee8c4d78ee357d75a9060200160405180910390a150565b60606000612872836002613623565b61287d90600261360b565b6001600160401b038111156128a257634e487b7160e01b600052604160045260246000fd5b6040519080825280601f01601f1916602001820160405280156128cc576020820181803683370190505b509050600360fc1b816000815181106128f557634e487b7160e01b600052603260045260246000fd5b60200101906001600160f81b031916908160001a905350600f60fb1b8160018151811061293257634e487b7160e01b600052603260045260246000fd5b60200101906001600160f81b031916908160001a9053506000612956846002613623565b61296190600161360b565b90505b60018111156129f5576f181899199a1a9b1b9c1cb0b131b232b360811b85600f16601081106129a357634e487b7160e01b600052603260045260246000fd5b1a60f81b8282815181106129c757634e487b7160e01b600052603260045260246000fd5b60200101906001600160f81b031916908160001a90535060049490941c936129ee81613696565b9050612964565b5083156127745760405162461bcd60e51b815260206004820181905260248201527f537472696e67733a20686578206c656e67746820696e73756666696369656e7460448201526064016108bf565b508054612a50906136ad565b6000825580601f10612a60575050565b601f0160209004906000526020600020908101906109349190612b02565b828054612a8a906136ad565b90600052602060002090601f016020900481019282612aac5760008555612af2565b82601f10612ac557805160ff1916838001178555612af2565b82800160010185558215612af2579182015b82811115612af2578251825591602001919060010190612ad7565b50612afe929150612b02565b5090565b5b80821115612afe5760008155600101612b03565b6000612b2a612b25846135e8565b6135b8565b9050808382526020808301915083868660051b86011115612b4a57600080fd5b60005b86811015612bde5781356001600160401b0380821115612b6c57600080fd5b8188019150601f8a81840112612b8157600080fd5b823582811115612b9357612b93613719565b612ba4818301601f191688016135b8565b92508083528b87828601011115612bba57600080fd5b80878501888501376000908301870152508552509282019290820190600101612b4d565b505050509392505050565b60008083601f840112612bfa578182fd5b5081356001600160401b03811115612c10578182fd5b6020830191508360208260051b8501011115612c2b57600080fd5b9250929050565b60008083601f840112612c43578182fd5b5081356001600160401b03811115612c59578182fd5b602083019150836020828501011115612c2b57600080fd5b600060208284031215612c82578081fd5b81356127748161372f565b600060208284031215612c9e578081fd5b81516127748161372f565b60008060008060008060008060a0898b031215612cc4578384fd5b8835612ccf8161372f565b975060208901356001600160401b0380821115612cea578586fd5b612cf68c838d01612be9565b909950975060408b0135915080821115612d0e578586fd5b612d1a8c838d01612be9565b909750955060608b0135915080821115612d32578485fd5b50612d3f8b828c01612be9565b9094509250506080890135612d5381613744565b809150509295985092959890939650565b60008060008060608587031215612d79578182fd5b8435612d848161372f565b93506020850135925060408501356001600160401b03811115612da5578283fd5b612db187828801612c32565b95989497509550505050565b60008060008060008060008060a0898b031215612dd8578182fd5b8835612de38161372f565b97506020890135965060408901356001600160401b0380821115612e05578384fd5b612e118c838d01612c32565b909850965060608b0135915080821115612e29578384fd5b612e358c838d01612be9565b909650945060808b0135915080821115612e4d578384fd5b50612e5a8b828c01612be9565b999c989b5096995094979396929594505050565b60008060208385031215612e80578182fd5b82356001600160401b03811115612e95578283fd5b612ea185828601612be9565b90969095509350505050565b60006020808385031215612ebf578182fd5b82356001600160401b03811115612ed4578283fd5b8301601f81018513612ee4578283fd5b8035612ef2612b25826135e8565b80828252848201915084840188868560051b8701011115612f11578687fd5b8694505b83851015612f3c578035612f288161372f565b835260019490940193918501918501612f15565b50979650505050505050565b60006020808385031215612f5a578182fd5b82356001600160401b0380821115612f70578384fd5b818501915085601f830112612f83578384fd5b8135612f91612b25826135e8565b80828252858201915085850189878560051b8801011115612fb0578788fd5b875b84811015612ffc57813586811115612fc857898afd5b8701603f81018c13612fd857898afd5b612fe98c8a83013560408401612b17565b8552509287019290870190600101612fb2565b50909998505050505050505050565b60006020828403121561301c578081fd5b815161277481613744565b600060208284031215613038578081fd5b5035919050565b60008060408385031215613051578182fd5b8235915060208301356130638161372f565b809150509250929050565b60006020828403121561307f578081fd5b81356001600160e01b031981168114612774578182fd5b60008060008060008060c087890312156130ae578384fd5b86356130b98161372f565b955060208701356130c98161372f565b945060408701356130d98161372f565b935060608701356130e98161372f565b925060808701356130f98161372f565b915060a08701356131098161372f565b809150509295509295509295565b60008060208385031215613129578182fd5b82356001600160401b0381111561313e578283fd5b612ea185828601612c32565b60008060006040848603121561315e578081fd5b8335925060208401356001600160401b0381111561317a578182fd5b61318686828701612c32565b9497909650939450505050565b600081518084526020808501808196508360051b81019150828601855b858110156131da5782840389526131c88483516131e7565b988501989350908401906001016131b0565b5091979650505050505050565b600081518084526131ff816020860160208601613666565b601f01601f19169290920160200192915050565b60008251613225818460208701613666565b9190910192915050565b6b756e732d646576746573742d60a01b81528183600c83013760009101600c01908152919050565b7f416363657373436f6e74726f6c3a206163636f756e742000000000000000000081526000835161328f816017850160208801613666565b7001034b99036b4b9b9b4b733903937b6329607d1b60179184019182015283516132c0816028840160208801613666565b01602801949350505050565b6001600160a01b038616815260a0602082018190526000906132f090830187613193565b82810360408401526133028187613193565b905082810360608401526133168186613193565b91505082151560808301529695505050505050565b600060018060a01b0380861683526060602084015261334d60608401866131e7565b9150808416604084015250949350505050565b60018060a01b038716815285602082015260c06040820152600061338760c0830187613193565b82810360608401526133998187613193565b905082810360808401526133ad8186613193565b91505082151560a0830152979650505050505050565b6000602080830181845280855180835260408601915060408160051b8701019250838701855b8281101561341757603f19888603018452613405858351613193565b945092850192908501906001016133e9565b5092979650505050505050565b6060815260006134376060830186613193565b82810360208401526134498186613193565b915050826040830152949350505050565b60208152816020820152818360408301376000818301604090810191909152601f909201601f19160101919050565b60208152600061277460208301846131e7565b60208082526010908201526f14185d5cd8589b194e8814105554d15160821b604082015260600190565b60208082526024908201527f4d696e74696e674d616e616765723a2043414c4c45525f49535f4e4f545f4d49604082015263272a22a960e11b606082015260800190565b60208082526022908201527f4d696e74696e674d616e616765723a20544c445f4e4f545f5245474953544552604082015261115160f21b606082015260800190565b6020808252602b908201527f496e697469616c697a61626c653a20636f6e7472616374206973206e6f74206960408201526a6e697469616c697a696e6760a81b606082015260800190565b8281526040602082015260006135b060408301846131e7565b949350505050565b604051601f8201601f191681016001600160401b03811182821017156135e0576135e0613719565b604052919050565b60006001600160401b0382111561360157613601613719565b5060051b60200190565b6000821982111561361e5761361e613703565b500190565b600081600019048311821515161561363d5761363d613703565b500290565b60008282101561365457613654613703565b500390565b6000612774368484612b17565b60005b83811015613681578181015183820152602001613669565b83811115613690576000848401525b50505050565b6000816136a5576136a5613703565b506000190190565b600181811c908216806136c157607f821691505b602082108114156136e257634e487b7160e01b600052602260045260246000fd5b50919050565b60006000198214156136fc576136fc613703565b5060010190565b634e487b7160e01b600052601160045260246000fd5b634e487b7160e01b600052604160045260246000fd5b6001600160a01b038116811461093457600080fd5b801515811461093457600080fdfe5496787fc1ebdfeba375028c1865f13fbb1d63c0caa356ccc1b29a80f3ebd6229f2df0fed2c77648de5860a4cc508cd0818c85b8b8a1ab4ceeef8d981c8956a6a164736f6c6343000804000a",
  "linkReferences": {},
  "deployedLinkReferences": {}
}