{
  "_format": "hh-sol-artifact-1",
  "contractName": "MintingManager",
  "sourceName": "contracts/MintingManager.sol",
  "abi": [
    {
      "anonymous": false,
      "inputs": [
        {
          "indexed": false,
          "internalType": "uint256",
          "name": "tokenId",
          "type": "uint256"
        }
      ],
      "name": "Blocked",
      "type": "event"
    },
    {
      "anonymous": false,
      "inputs": [
        {
          "indexed": false,
          "internalType": "bool",
          "name": "state",
          "type": "bool"
        }
      ],
      "name": "BlocklistPaused",
      "type": "event"
    },
    {
      "anonymous": false,
      "inputs": [
        {
          "indexed": true,
          "internalType": "address",
          "name": "previousOwner",
          "type": "address"
        },
        {
          "indexed": true,
          "internalType": "address",
          "name": "newOwner",
          "type": "address"
        }
      ],
      "name": "OwnershipTransferred",
      "type": "event"
    },
    {
      "anonymous": false,
      "inputs": [
        {
          "indexed": true,
          "internalType": "address",
          "name": "sender",
          "type": "address"
        },
        {
          "indexed": true,
          "internalType": "address",
          "name": "signer",
          "type": "address"
        },
        {
          "indexed": true,
          "internalType": "bytes4",
          "name": "funcSig",
          "type": "bytes4"
        },
        {
          "indexed": false,
          "internalType": "bytes32",
          "name": "digest",
          "type": "bytes32"
        }
      ],
      "name": "Relayed",
      "type": "event"
    },
    {
      "anonymous": false,
      "inputs": [
        {
          "indexed": true,
          "internalType": "bytes32",
          "name": "role",
          "type": "bytes32"
        },
        {
          "indexed": true,
          "internalType": "bytes32",
          "name": "previousAdminRole",
          "type": "bytes32"
        },
        {
          "indexed": true,
          "internalType": "bytes32",
          "name": "newAdminRole",
          "type": "bytes32"
        }
      ],
      "name": "RoleAdminChanged",
      "type": "event"
    },
    {
      "anonymous": false,
      "inputs": [
        {
          "indexed": true,
          "internalType": "bytes32",
          "name": "role",
          "type": "bytes32"
        },
        {
          "indexed": true,
          "internalType": "address",
          "name": "account",
          "type": "address"
        },
        {
          "indexed": true,
          "internalType": "address",
          "name": "sender",
          "type": "address"
        }
      ],
      "name": "RoleGranted",
      "type": "event"
    },
    {
      "anonymous": false,
      "inputs": [
        {
          "indexed": true,
          "internalType": "bytes32",
          "name": "role",
          "type": "bytes32"
        },
        {
          "indexed": true,
          "internalType": "address",
          "name": "account",
          "type": "address"
        },
        {
          "indexed": true,
          "internalType": "address",
          "name": "sender",
          "type": "address"
        }
      ],
      "name": "RoleRevoked",
      "type": "event"
    },
    {
      "inputs": [],
      "name": "DEFAULT_ADMIN_ROLE",
      "outputs": [
        {
          "internalType": "bytes32",
          "name": "",
          "type": "bytes32"
        }
      ],
      "stateMutability": "view",
      "type": "function"
    },
    {
      "inputs": [],
      "name": "MINTER_ROLE",
      "outputs": [
        {
          "internalType": "bytes32",
          "name": "",
          "type": "bytes32"
        }
      ],
      "stateMutability": "view",
      "type": "function"
    },
    {
      "inputs": [],
      "name": "NAME",
      "outputs": [
        {
          "internalType": "string",
          "name": "",
          "type": "string"
        }
      ],
      "stateMutability": "view",
      "type": "function"
    },
    {
      "inputs": [],
      "name": "VERSION",
      "outputs": [
        {
          "internalType": "string",
          "name": "",
          "type": "string"
        }
      ],
      "stateMutability": "view",
      "type": "function"
    },
    {
      "inputs": [
        {
          "internalType": "address",
          "name": "account",
          "type": "address"
        }
      ],
      "name": "addMinter",
      "outputs": [],
      "stateMutability": "nonpayable",
      "type": "function"
    },
    {
      "inputs": [
        {
          "internalType": "address[]",
          "name": "accounts",
          "type": "address[]"
        }
      ],
      "name": "addMinters",
      "outputs": [],
      "stateMutability": "nonpayable",
      "type": "function"
    },
    {
      "inputs": [
        {
          "internalType": "uint256[]",
          "name": "tokenIds",
          "type": "uint256[]"
        }
      ],
      "name": "areBlocked",
      "outputs": [
        {
          "internalType": "bool[]",
          "name": "values",
          "type": "bool[]"
        }
      ],
      "stateMutability": "view",
      "type": "function"
    },
    {
      "inputs": [
        {
          "internalType": "uint256",
          "name": "tokenId",
          "type": "uint256"
        }
      ],
      "name": "blocklist",
      "outputs": [],
      "stateMutability": "nonpayable",
      "type": "function"
    },
    {
      "inputs": [
        {
          "internalType": "uint256[]",
          "name": "tokenIds",
          "type": "uint256[]"
        }
      ],
      "name": "blocklistAll",
      "outputs": [],
      "stateMutability": "nonpayable",
      "type": "function"
    },
    {
      "inputs": [
        {
          "internalType": "uint256",
          "name": "tld",
          "type": "uint256"
        },
        {
          "internalType": "string",
          "name": "label",
          "type": "string"
        }
      ],
      "name": "claim",
      "outputs": [],
      "stateMutability": "nonpayable",
      "type": "function"
    },
    {
      "inputs": [
        {
          "internalType": "address",
          "name": "to",
          "type": "address"
        },
        {
          "internalType": "uint256",
          "name": "tld",
          "type": "uint256"
        },
        {
          "internalType": "string",
          "name": "label",
          "type": "string"
        }
      ],
      "name": "claimTo",
      "outputs": [],
      "stateMutability": "nonpayable",
      "type": "function"
    },
    {
      "inputs": [
        {
          "internalType": "address",
          "name": "to",
          "type": "address"
        },
        {
          "internalType": "uint256",
          "name": "tld",
          "type": "uint256"
        },
        {
          "internalType": "string",
          "name": "label",
          "type": "string"
        },
        {
          "internalType": "string[]",
          "name": "keys",
          "type": "string[]"
        },
        {
          "internalType": "string[]",
          "name": "values",
          "type": "string[]"
        }
      ],
      "name": "claimToWithRecords",
      "outputs": [],
      "stateMutability": "nonpayable",
      "type": "function"
    },
    {
      "inputs": [
        {
          "internalType": "address payable",
          "name": "receiver",
          "type": "address"
        }
      ],
      "name": "closeMinter",
      "outputs": [],
      "stateMutability": "payable",
      "type": "function"
    },
    {
      "inputs": [],
      "name": "cnsMintingController",
      "outputs": [
        {
          "internalType": "contract IMintingController",
          "name": "",
          "type": "address"
        }
      ],
      "stateMutability": "view",
      "type": "function"
    },
    {
      "inputs": [],
      "name": "cnsResolver",
      "outputs": [
        {
          "internalType": "contract IResolver",
          "name": "",
          "type": "address"
        }
      ],
      "stateMutability": "view",
      "type": "function"
    },
    {
      "inputs": [],
      "name": "cnsURIPrefixController",
      "outputs": [
        {
          "internalType": "contract IURIPrefixController",
          "name": "",
          "type": "address"
        }
      ],
      "stateMutability": "view",
      "type": "function"
    },
    {
      "inputs": [
        {
          "internalType": "bytes32",
          "name": "role",
          "type": "bytes32"
        }
      ],
      "name": "getRoleAdmin",
      "outputs": [
        {
          "internalType": "bytes32",
          "name": "",
          "type": "bytes32"
        }
      ],
      "stateMutability": "view",
      "type": "function"
    },
    {
      "inputs": [
        {
          "internalType": "bytes32",
          "name": "role",
          "type": "bytes32"
        },
        {
          "internalType": "address",
          "name": "account",
          "type": "address"
        }
      ],
      "name": "grantRole",
      "outputs": [],
      "stateMutability": "nonpayable",
      "type": "function"
    },
    {
      "inputs": [
        {
          "internalType": "bytes32",
          "name": "role",
          "type": "bytes32"
        },
        {
          "internalType": "address",
          "name": "account",
          "type": "address"
        }
      ],
      "name": "hasRole",
      "outputs": [
        {
          "internalType": "bool",
          "name": "",
          "type": "bool"
        }
      ],
      "stateMutability": "view",
      "type": "function"
    },
    {
      "inputs": [
        {
          "internalType": "contract IUNSRegistry",
          "name": "unsRegistry_",
          "type": "address"
        },
        {
          "internalType": "contract IMintingController",
          "name": "cnsMintingController_",
          "type": "address"
        },
        {
          "internalType": "contract IURIPrefixController",
          "name": "cnsURIPrefixController_",
          "type": "address"
        },
        {
          "internalType": "contract IResolver",
          "name": "cnsResolver_",
          "type": "address"
        },
        {
          "internalType": "address",
          "name": "forwarder",
          "type": "address"
        }
      ],
      "name": "initialize",
      "outputs": [],
      "stateMutability": "nonpayable",
      "type": "function"
    },
    {
      "inputs": [
        {
          "internalType": "uint256",
          "name": "tokenId",
          "type": "uint256"
        }
      ],
      "name": "isBlocked",
      "outputs": [
        {
          "internalType": "bool",
          "name": "",
          "type": "bool"
        }
      ],
      "stateMutability": "view",
      "type": "function"
    },
    {
      "inputs": [
        {
          "internalType": "address",
          "name": "account",
          "type": "address"
        }
      ],
      "name": "isMinter",
      "outputs": [
        {
          "internalType": "bool",
          "name": "",
          "type": "bool"
        }
      ],
      "stateMutability": "view",
      "type": "function"
    },
    {
      "inputs": [
        {
          "internalType": "address",
          "name": "forwarder",
          "type": "address"
        }
      ],
      "name": "isTrustedForwarder",
      "outputs": [
        {
          "internalType": "bool",
          "name": "",
          "type": "bool"
        }
      ],
      "stateMutability": "view",
      "type": "function"
    },
    {
      "inputs": [
        {
          "internalType": "address",
          "name": "to",
          "type": "address"
        },
        {
          "internalType": "uint256",
          "name": "tld",
          "type": "uint256"
        },
        {
          "internalType": "string",
          "name": "label",
          "type": "string"
        }
      ],
      "name": "mintSLD",
      "outputs": [],
      "stateMutability": "nonpayable",
      "type": "function"
    },
    {
      "inputs": [
        {
          "internalType": "address",
          "name": "to",
          "type": "address"
        },
        {
          "internalType": "uint256",
          "name": "tld",
          "type": "uint256"
        },
        {
          "internalType": "string",
          "name": "label",
          "type": "string"
        },
        {
          "internalType": "string[]",
          "name": "keys",
          "type": "string[]"
        },
        {
          "internalType": "string[]",
          "name": "values",
          "type": "string[]"
        }
      ],
      "name": "mintSLDWithRecords",
      "outputs": [],
      "stateMutability": "nonpayable",
      "type": "function"
    },
    {
      "inputs": [],
      "name": "owner",
      "outputs": [
        {
          "internalType": "address",
          "name": "",
          "type": "address"
        }
      ],
      "stateMutability": "view",
      "type": "function"
    },
    {
      "inputs": [
        {
          "internalType": "bool",
          "name": "state",
          "type": "bool"
        }
      ],
      "name": "pauseBlocklist",
      "outputs": [],
      "stateMutability": "nonpayable",
      "type": "function"
    },
    {
      "inputs": [
        {
          "internalType": "bytes",
          "name": "data",
          "type": "bytes"
        },
        {
          "internalType": "bytes",
          "name": "signature",
          "type": "bytes"
        }
      ],
      "name": "relay",
      "outputs": [
        {
          "internalType": "bytes",
          "name": "",
          "type": "bytes"
        }
      ],
      "stateMutability": "nonpayable",
      "type": "function"
    },
    {
      "inputs": [
        {
          "internalType": "address",
          "name": "account",
          "type": "address"
        }
      ],
      "name": "removeMinter",
      "outputs": [],
      "stateMutability": "nonpayable",
      "type": "function"
    },
    {
      "inputs": [
        {
          "internalType": "address[]",
          "name": "accounts",
          "type": "address[]"
        }
      ],
      "name": "removeMinters",
      "outputs": [],
      "stateMutability": "nonpayable",
      "type": "function"
    },
    {
      "inputs": [],
      "name": "renounceMinter",
      "outputs": [],
      "stateMutability": "nonpayable",
      "type": "function"
    },
    {
      "inputs": [],
      "name": "renounceOwnership",
      "outputs": [],
      "stateMutability": "nonpayable",
      "type": "function"
    },
    {
      "inputs": [
        {
          "internalType": "bytes32",
          "name": "role",
          "type": "bytes32"
        },
        {
          "internalType": "address",
          "name": "account",
          "type": "address"
        }
      ],
      "name": "renounceRole",
      "outputs": [],
      "stateMutability": "nonpayable",
      "type": "function"
    },
    {
      "inputs": [
        {
          "internalType": "bytes32",
          "name": "role",
          "type": "bytes32"
        },
        {
          "internalType": "address",
          "name": "account",
          "type": "address"
        }
      ],
      "name": "revokeRole",
      "outputs": [],
      "stateMutability": "nonpayable",
      "type": "function"
    },
    {
      "inputs": [
        {
          "internalType": "address payable",
          "name": "receiver",
          "type": "address"
        }
      ],
      "name": "rotateMinter",
      "outputs": [],
      "stateMutability": "payable",
      "type": "function"
    },
    {
      "inputs": [
        {
          "internalType": "address",
          "name": "to",
          "type": "address"
        },
        {
          "internalType": "uint256",
          "name": "tld",
          "type": "uint256"
        },
        {
          "internalType": "string",
          "name": "label",
          "type": "string"
        }
      ],
      "name": "safeMintSLD",
      "outputs": [],
      "stateMutability": "nonpayable",
      "type": "function"
    },
    {
      "inputs": [
        {
          "internalType": "address",
          "name": "to",
          "type": "address"
        },
        {
          "internalType": "uint256",
          "name": "tld",
          "type": "uint256"
        },
        {
          "internalType": "string",
          "name": "label",
          "type": "string"
        },
        {
          "internalType": "bytes",
          "name": "data",
          "type": "bytes"
        }
      ],
      "name": "safeMintSLD",
      "outputs": [],
      "stateMutability": "nonpayable",
      "type": "function"
    },
    {
      "inputs": [
        {
          "internalType": "address",
          "name": "to",
          "type": "address"
        },
        {
          "internalType": "uint256",
          "name": "tld",
          "type": "uint256"
        },
        {
          "internalType": "string",
          "name": "label",
          "type": "string"
        },
        {
          "internalType": "string[]",
          "name": "keys",
          "type": "string[]"
        },
        {
          "internalType": "string[]",
          "name": "values",
          "type": "string[]"
        }
      ],
      "name": "safeMintSLDWithRecords",
      "outputs": [],
      "stateMutability": "nonpayable",
      "type": "function"
    },
    {
      "inputs": [
        {
          "internalType": "address",
          "name": "to",
          "type": "address"
        },
        {
          "internalType": "uint256",
          "name": "tld",
          "type": "uint256"
        },
        {
          "internalType": "string",
          "name": "label",
          "type": "string"
        },
        {
          "internalType": "string[]",
          "name": "keys",
          "type": "string[]"
        },
        {
          "internalType": "string[]",
          "name": "values",
          "type": "string[]"
        },
        {
          "internalType": "bytes",
          "name": "data",
          "type": "bytes"
        }
      ],
      "name": "safeMintSLDWithRecords",
      "outputs": [],
      "stateMutability": "nonpayable",
      "type": "function"
    },
    {
      "inputs": [
        {
          "internalType": "address",
          "name": "forwarder",
          "type": "address"
        }
      ],
      "name": "setForwarder",
      "outputs": [],
      "stateMutability": "nonpayable",
      "type": "function"
    },
    {
      "inputs": [
        {
          "internalType": "address",
          "name": "resolver",
          "type": "address"
        }
      ],
      "name": "setResolver",
      "outputs": [],
      "stateMutability": "nonpayable",
      "type": "function"
    },
    {
      "inputs": [
        {
          "internalType": "string",
          "name": "prefix",
          "type": "string"
        }
      ],
      "name": "setTokenURIPrefix",
      "outputs": [],
      "stateMutability": "nonpayable",
      "type": "function"
    },
    {
      "inputs": [
        {
          "internalType": "bytes4",
          "name": "interfaceId",
          "type": "bytes4"
        }
      ],
      "name": "supportsInterface",
      "outputs": [
        {
          "internalType": "bool",
          "name": "",
          "type": "bool"
        }
      ],
      "stateMutability": "view",
      "type": "function"
    },
    {
      "inputs": [
        {
          "internalType": "address",
          "name": "newOwner",
          "type": "address"
        }
      ],
      "name": "transferOwnership",
      "outputs": [],
      "stateMutability": "nonpayable",
      "type": "function"
    },
    {
      "inputs": [],
      "name": "unsRegistry",
      "outputs": [
        {
          "internalType": "contract IUNSRegistry",
          "name": "",
          "type": "address"
        }
      ],
      "stateMutability": "view",
      "type": "function"
    }
  ],
  "bytecode": "0x608060405234801561001057600080fd5b50613fea806100206000396000f3fe6080604052600436106102725760003560e01c806371e2a6571161014f578063a849d65c116100c1578063ceeb4f501161007a578063ceeb4f5014610726578063d539139314610746578063d547741f1461075b578063e47d6cc61461077b578063f2fde38b1461079b578063ffa1ad74146107bb57610272565b8063a849d65c1461067c578063aa271e1a14610691578063ae2ad903146106b1578063b0aa98c7146106d1578063b9998a24146106f1578063cc2c3fc41461071157610272565b806391d148541161011357806391d14854146105dd578063983b2d56146105fd578063986502751461061d57806399e0dd7c14610632578063a217fddf14610652578063a3f4df7e1461066757610272565b806371e2a6571461055557806381c81d35146105755780638bef6039146105885780638da5cb5b146105a8578063906cecc1146105bd57610272565b8063463c4bcb116101e857806358839d6b116101ac57806358839d6b146104b85780635b6fa8db146104d85780635fc1964f146104ed578063634486da1461050d5780636a2d225614610520578063715018a61461054057610272565b8063463c4bcb1461040b5780634c1819e01461042b5780634e543b261461044b578063564a51581461046b578063572b6c051461049857610272565b806327bbd2251161023a57806327bbd225146103495780632f2ff15d146103695780633092afd51461038957806336568abe146103a957806339ccf4d0146103c95780633f41b614146103e957610272565b806301ffc9a7146102775780630e36a87d146102ad5780631459457a146102da578063248a9ca3146102fc578063268b15ed14610329575b600080fd5b34801561028357600080fd5b506102976102923660046132eb565b6107d0565b6040516102a491906139b5565b60405180910390f35b3480156102b957600080fd5b506102cd6102c836600461322d565b6107fd565b6040516102a49190613935565b3480156102e657600080fd5b506102fa6102f536600461336f565b6108d4565b005b34801561030857600080fd5b5061031c6103173660046132a4565b610cd0565b6040516102a491906139c0565b34801561033557600080fd5b506102fa610344366004613412565b610ce5565b34801561035557600080fd5b506102fa610364366004612f59565b610d42565b34801561037557600080fd5b506102fa6103843660046132bc565b610e05565b34801561039557600080fd5b506102fa6103a4366004612ee4565b610e2e565b3480156103b557600080fd5b506102fa6103c43660046132bc565b610e79565b3480156103d557600080fd5b506102fa6103e4366004612f59565b610ebf565b3480156103f557600080fd5b506103fe610f69565b6040516102a49190613720565b34801561041757600080fd5b506102fa6104263660046132a4565b610f78565b34801561043757600080fd5b506102fa610446366004612f00565b610fa8565b34801561045757600080fd5b506102fa610466366004612ee4565b61102e565b34801561047757600080fd5b5061048b610486366004613313565b61108f565b6040516102a491906139e7565b3480156104a457600080fd5b506102976104b3366004612ee4565b61125a565b3480156104c457600080fd5b506102fa6104d33660046130e5565b61129b565b3480156104e457600080fd5b506103fe61134a565b3480156104f957600080fd5b506102fa61050836600461316d565b611359565b6102fa61051b366004612ee4565b6113e6565b34801561052c57600080fd5b506102fa61053b36600461300a565b611479565b34801561054c57600080fd5b506102fa611566565b34801561056157600080fd5b506102fa61057036600461316d565b6115ef565b6102fa610583366004612ee4565b61167c565b34801561059457600080fd5b506102fa6105a336600461326c565b6116c9565b3480156105b457600080fd5b506103fe611711565b3480156105c957600080fd5b506102fa6105d8366004612f00565b611721565b3480156105e957600080fd5b506102976105f83660046132bc565b61176c565b34801561060957600080fd5b506102fa610618366004612ee4565b611797565b34801561062957600080fd5b506102fa6117df565b34801561063e57600080fd5b506102fa61064d3660046133df565b6117fb565b34801561065e57600080fd5b5061031c611911565b34801561067357600080fd5b5061048b611916565b34801561068857600080fd5b506103fe611946565b34801561069d57600080fd5b506102976106ac366004612ee4565b611955565b3480156106bd57600080fd5b506102fa6106cc366004612f00565b61196f565b3480156106dd57600080fd5b506102976106ec3660046132a4565b611a13565b3480156106fd57600080fd5b506102fa61070c366004612ee4565b611a81565b34801561071d57600080fd5b506103fe611ac9565b34801561073257600080fd5b506102fa610741366004612f59565b611ad8565b34801561075257600080fd5b5061031c611b2c565b34801561076757600080fd5b506102fa6107763660046132bc565b611b3e565b34801561078757600080fd5b506102fa61079636600461322d565b611b5d565b3480156107a757600080fd5b506102fa6107b6366004612ee4565b611b8e565b3480156107c757600080fd5b5061048b611be1565b60006001600160e01b03198216637965db0b60e01b14806107f557506107f582611c02565b90505b919050565b6060816001600160401b0381111561082557634e487b7160e01b600052604160045260246000fd5b60405190808252806020026020018201604052801561084e578160200160208202803683370190505b50905060005b828110156108cd5761088b84848381811061087f57634e487b7160e01b600052603260045260246000fd5b90506020020135611a13565b8282815181106108ab57634e487b7160e01b600052603260045260246000fd5b91151560209283029190910190910152806108c581613f2a565b915050610854565b5092915050565b600054610100900460ff16806108ed575060005460ff16155b6109125760405162461bcd60e51b815260040161090990613c63565b60405180910390fd5b600054610100900460ff1615801561093d576000805460ff1961ff0019909116610100171660011790555b60c980546001600160a01b038089166001600160a01b03199283161790925560ca805488841690831617905560cb805487841690831617905560cc80549286169290911691909117905561098f611c1b565b610997611ce7565b6109a082611d6d565b6109a930611deb565b6040805161016081018252600661012082018181526563727970746f60d01b610140840152825282518084018452908152651dd85b1b195d60d21b6020828101919091528083019190915282518084018452600481526331b7b4b760e11b81830152828401528251808401845260018152600f60fb1b818301526060830152825180840184526003808252621b999d60ea1b82840152608084019190915283518085018552600a815269313637b1b5b1b430b4b760b11b8184015260a08401528351808501855260078152663134ba31b7b4b760c91b8184015260c0840152835180850185528181526207070760eb1b8184015260e0840152835180850190945283526264616f60e81b9083015261010081019190915260005b6009811015610cb457600080838360098110610aef57634e487b7160e01b600052603260045260246000fd5b6020020151604051602001610b049190613579565b60405160208183030381529060405280519060200120604051602001610b2b92919061355b565b6040516020818303038152906040528051906020012060001c9050828260098110610b6657634e487b7160e01b600052603260045260246000fd5b602002015160cd60008381526020019081526020016000209080519060200190610b91929190612db9565b5060c954604051634f558e7960e01b81526001600160a01b0390911690634f558e7990610bc29084906004016139c0565b60206040518083038186803b158015610bda57600080fd5b505afa158015610bee573d6000803e3d6000fd5b505050506040513d601f19601f82011682018060405250810190610c129190613288565b610ca15760c9546001600160a01b031663d3fc986461dead83868660098110610c4b57634e487b7160e01b600052603260045260246000fd5b60200201516040518463ffffffff1660e01b8152600401610c6e939291906137fb565b600060405180830381600087803b158015610c8857600080fd5b505af1158015610c9c573d6000803e3d6000fd5b505050505b5080610cac81613f2a565b915050610ac3565b50508015610cc8576000805461ff00191690555b505050505050565b60009081526097602052604090206001015490565b600083815260cd60205260408120805485929190610d0290613eef565b905011610d215760405162461bcd60e51b815260040161090990613dd8565b610d3c610d2c611e03565b85610d378686611e12565b611e3e565b50505050565b610d4d6106ac611e03565b610d695760405162461bcd60e51b815260040161090990613cb1565b600087815260cd60205260408120805489929190610d8690613eef565b905011610da55760405162461bcd60e51b815260040161090990613dd8565b610dfa898989898080601f016020809104026020016040519081016040528093929190818152602001838380828437600092018290525060408051602081019091529081528c93508b92508a91508990611f44565b505050505050505050565b610e0e82610cd0565b610e1f81610e1a611e03565b6120ce565b610e298383612132565b505050565b610e36611e03565b6001600160a01b0316610e47611711565b6001600160a01b031614610e6d5760405162461bcd60e51b815260040161090990613d6c565b610e76816121b9565b50565b610e81611e03565b6001600160a01b0316816001600160a01b031614610eb15760405162461bcd60e51b815260040161090990613e1a565b610ebb82826121d1565b5050565b610eca6106ac611e03565b610ee65760405162461bcd60e51b815260040161090990613cb1565b600087815260cd60205260408120805489929190610f0390613eef565b905011610f225760405162461bcd60e51b815260040161090990613dd8565b610dfa898989898080601f0160208091040260200160405190810160405280939291908181526020018383808284376000920191909152508b92508a915089905088612256565b60c9546001600160a01b031681565b610f836106ac611e03565b610f9f5760405162461bcd60e51b815260040161090990613cb1565b610e76816123db565b610fb36106ac611e03565b610fcf5760405162461bcd60e51b815260040161090990613cb1565b600083815260cd60205260408120805485929190610fec90613eef565b90501161100b5760405162461bcd60e51b815260040161090990613dd8565b6110278585858560405180602001604052806000815250612485565b5050505050565b611036611e03565b6001600160a01b0316611047611711565b6001600160a01b03161461106d5760405162461bcd60e51b815260040161090990613d6c565b60cc80546001600160a01b0319166001600160a01b0392909216919091179055565b6060600085856040516110a3929190613569565b60405180910390209050600061112085858080601f0160208091040260200160405190810160405280939291908181526020018383808284376000920191909152505060405161111a92506110ff91508690309060200161353b565b60405160208183030381529060405280519060200120612605565b90612635565b905060008088888080601f01602080910402602001604051908101604052809392919081815260200183838082843760009201919091525050505060208101519250905061116d836126bb565b611178828a8a6126e9565b600080306001600160a01b03168b8b604051611195929190613569565b6000604051808303816000865af19150503d80600081146111d2576040519150601f19603f3d011682016040523d82523d6000602084013e6111d7565b606091505b509092509050816111ef576040513d806000833e8082fd5b6001600160e01b031984166001600160a01b03861661120c611e03565b6001600160a01b03167f9490f91465d0d2c12728b9ad47d5f1dd2ac3ef39394796e54a48b94db0b337258960405161124491906139c0565b60405180910390a49a9950505050505050505050565b60006112857f893ef2ea16c023f61d4f55d3e6ee3fc3f2fbfd478461323dbc2fbf919047086e61171e565b546001600160a01b038381169116149050919050565b6112a66106ac611e03565b6112c25760405162461bcd60e51b815260040161090990613cb1565b600085815260cd602052604081208054879291906112df90613eef565b9050116112fe5760405162461bcd60e51b815260040161090990613dd8565b6113418787878787878080601f01602080910402602001604051908101604052809392919081815260200183838082843760009201919091525061248592505050565b50505050505050565b60cc546001600160a01b031681565b611361611e03565b6001600160a01b0316611372611711565b6001600160a01b0316146113985760405162461bcd60e51b815260040161090990613d6c565b60005b8151811015610ebb576113d48282815181106113c757634e487b7160e01b600052603260045260246000fd5b60200260200101516121b9565b806113de81613f2a565b91505061139b565b6113f16106ac611e03565b61140d5760405162461bcd60e51b815260040161090990613cb1565b6001600160a01b0381166114335760405162461bcd60e51b815260040161090990613b7c565b61143c81611deb565b6114446117df565b6040516001600160a01b038216903480156108fc02916000818181858888f19350505050158015610ebb573d6000803e3d6000fd5b6114846106ac611e03565b6114a05760405162461bcd60e51b815260040161090990613cb1565b600089815260cd6020526040812080548b9291906114bd90613eef565b9050116114dc5760405162461bcd60e51b815260040161090990613dd8565b6115598b8b8b8b8080601f01602080910402602001604051908101604052809392919081815260200183838082843760009201919091525050604080516020601f8b018190048102820181019092528981528e93508d92508c918c91908c908c9081908401838280828437600092019190915250611f4492505050565b5050505050505050505050565b61156e611e03565b6001600160a01b031661157f611711565b6001600160a01b0316146115a55760405162461bcd60e51b815260040161090990613d6c565b6033546040516000916001600160a01b0316907f8be0079c531659141344cd1fd0a4f28419497f9722a3daafe3b4186f6b6457e0908390a3603380546001600160a01b0319169055565b6115f7611e03565b6001600160a01b0316611608611711565b6001600160a01b03161461162e5760405162461bcd60e51b815260040161090990613d6c565b60005b8151811015610ebb5761166a82828151811061165d57634e487b7160e01b600052603260045260246000fd5b6020026020010151611deb565b8061167481613f2a565b915050611631565b6116876106ac611e03565b6116a35760405162461bcd60e51b815260040161090990613cb1565b6001600160a01b03811661143c5760405162461bcd60e51b815260040161090990613b7c565b6116d1611e03565b6001600160a01b03166116e2611711565b6001600160a01b0316146117085760405162461bcd60e51b815260040161090990613d6c565b610e76816127a5565b6033546001600160a01b03165b90565b600083815260cd6020526040812080548592919061173e90613eef565b90501161175d5760405162461bcd60e51b815260040161090990613dd8565b6110278585610d378686611e12565b60009182526097602090815260408084206001600160a01b0393909316845291905290205460ff1690565b61179f611e03565b6001600160a01b03166117b0611711565b6001600160a01b0316146117d65760405162461bcd60e51b815260040161090990613d6c565b610e7681611deb565b6117f9600080516020613f958339815191526103c4611e03565b565b611803611e03565b6001600160a01b0316611814611711565b6001600160a01b03161461183a5760405162461bcd60e51b815260040161090990613d6c565b60c954604051632678375f60e21b81526001600160a01b03909116906399e0dd7c9061186c90859085906004016139fa565b600060405180830381600087803b15801561188657600080fd5b505af115801561189a573d6000803e3d6000fd5b505060cb546001600160a01b0316159150610ebb90505760cb54604051632678375f60e21b81526001600160a01b03909116906399e0dd7c906118e390859085906004016139fa565b600060405180830381600087803b1580156118fd57600080fd5b505af1158015610cc8573d6000803e3d6000fd5b600081565b604051806040016040528060148152602001732aa7299d1026b4b73a34b7339026b0b730b3b2b960611b81525081565b60cb546001600160a01b031681565b60006107f5600080516020613f958339815191528361176c565b61197a6106ac611e03565b6119965760405162461bcd60e51b815260040161090990613cb1565b600083815260cd602052604081208054859291906119b390613eef565b9050116119d25760405162461bcd60e51b815260040161090990613dd8565b611027858585858080601f016020809104026020016040519081016040528093929190818152602001838380828437600092019190915250611e3e92505050565b6000611a1d61280e565b1580156107f55750604051611a7790611a5c907f1ec047073e2c8b15660901dbfdb6e3ff6365bd699dd9f95dcc6eab5448bebd6990859060200161355b565b6040516020818303038152906040528051906020012061171e565b5460ff1692915050565b611a89611e03565b6001600160a01b0316611a9a611711565b6001600160a01b031614611ac05760405162461bcd60e51b815260040161090990613d6c565b610e7681612842565b60ca546001600160a01b031681565b600087815260cd60205260408120805489929190611af590613eef565b905011611b145760405162461bcd60e51b815260040161090990613dd8565b610dfa8989611b238a8a611e12565b88888888612256565b600080516020613f9583398151915281565b611b4782610cd0565b611b5381610e1a611e03565b610e2983836121d1565b611b686106ac611e03565b611b845760405162461bcd60e51b815260040161090990613cb1565b610ebb828261288d565b611b96611e03565b6001600160a01b0316611ba7611711565b6001600160a01b031614611bcd5760405162461bcd60e51b815260040161090990613d6c565b611bd6816128d9565b610e7660008261299a565b604051806040016040528060058152602001640302e322e360dc1b81525081565b6001600160e01b031981166301ffc9a760e01b14919050565b600054610100900460ff1680611c34575060005460ff16155b611c505760405162461bcd60e51b815260040161090990613c63565b600054610100900460ff16158015611c7b576000805460ff1961ff0019909116610100171660011790555b6000611c85611e03565b603380546001600160a01b0319166001600160a01b038316908117909155604051919250906000907f8be0079c531659141344cd1fd0a4f28419497f9722a3daafe3b4186f6b6457e0908290a3508015610e76576000805461ff001916905550565b600054610100900460ff1680611d00575060005460ff16155b611d1c5760405162461bcd60e51b815260040161090990613c63565b600054610100900460ff16158015611d47576000805460ff1961ff0019909116610100171660011790555b611d596000611d54611e03565b61299a565b8015610e76576000805461ff001916905550565b600054610100900460ff1680611d86575060005460ff16155b611da25760405162461bcd60e51b815260040161090990613c63565b600054610100900460ff16158015611dcd576000805460ff1961ff0019909116610100171660011790555b611dd682612842565b8015610ebb576000805461ff00191690555050565b610e76600080516020613f958339815191528261299a565b6000611e0d6129a4565b905090565b60608282604051602001611e27929190613685565b604051602081830303815290604052905092915050565b6000611e4a83836129d2565b9050611e5581612a4e565b611e5e83612a80565b15611ed15760ca5460cc5460405163c36c212560e01b81526001600160a01b039283169263c36c212592611e9a9289928892169060040161377e565b600060405180830381600087803b158015611eb457600080fd5b505af1158015611ec8573d6000803e3d6000fd5b50505050610d3c565b60c9546001600160a01b031663d3fc98648583611eee8787612abe565b6040518463ffffffff1660e01b8152600401611f0c939291906137fb565b600060405180830381600087803b158015611f2657600080fd5b505af1158015611f3a573d6000803e3d6000fd5b5050505050505050565b6000611f5088886129d2565b9050611f5b81612a4e565b611f6488612a80565b1561204c5760ca5460cc54604051630f95e75b60e31b81526001600160a01b0392831692637caf3ad892611fa2928e928d92169088906004016137b3565b600060405180830381600087803b158015611fbc57600080fd5b505af1158015611fd0573d6000803e3d6000fd5b50508615915061204790505760cc54604051633a0deb9d60e21b81526001600160a01b039091169063e837ae7490612014908990899089908990889060040161397b565b600060405180830381600087803b15801561202e57600080fd5b505af1158015612042573d6000803e3d6000fd5b505050505b610dfa565b60c9546001600160a01b031663efda4d3e8a836120698c8c612abe565b8a8a8a8a8a6040518963ffffffff1660e01b815260040161209198979695949392919061387f565b600060405180830381600087803b1580156120ab57600080fd5b505af11580156120bf573d6000803e3d6000fd5b50505050505050505050505050565b6120d8828261176c565b610ebb576120f0816001600160a01b03166014612ae1565b6120fb836020612ae1565b60405160200161210c9291906136ab565b60408051601f198184030181529082905262461bcd60e51b8252610909916004016139e7565b61213c828261176c565b610ebb5760008281526097602090815260408083206001600160a01b03851684529091529020805460ff19166001179055612175611e03565b6001600160a01b0316816001600160a01b0316837f2f8788117e7eff1d82e926ec794901d17c78024a50270940304540a733656f0d60405160405180910390a45050565b610e76600080516020613f9583398151915282611b3e565b6121db828261176c565b15610ebb5760008281526097602090815260408083206001600160a01b03851684529091529020805460ff19169055612212611e03565b6001600160a01b0316816001600160a01b0316837ff6391f5c32d9c69d2a47ea670b442974b53935d1edc7fd64eb21e047a839171b60405160405180910390a45050565b600061226287876129d2565b905061226d81612a4e565b61227687612a80565b1561235c5760ca5460cc5460405163c36c212560e01b81526001600160a01b039283169263c36c2125926122b2928d928c92169060040161377e565b600060405180830381600087803b1580156122cc57600080fd5b505af11580156122e0573d6000803e3d6000fd5b50508515915061235790505760cc54604051633a0deb9d60e21b81526001600160a01b039091169063e837ae7490612324908890889088908890889060040161397b565b600060405180830381600087803b15801561233e57600080fd5b505af1158015612352573d6000803e3d6000fd5b505050505b611f3a565b60c9546001600160a01b031663b0f5917789836123798b8b612abe565b898989896040518863ffffffff1660e01b815260040161239f9796959493929190613822565b600060405180830381600087803b1580156123b957600080fd5b505af11580156123cd573d6000803e3d6000fd5b505050505050505050505050565b6123e361280e565b156124005760405162461bcd60e51b815260040161090990613c2c565b600161243b7f1ec047073e2c8b15660901dbfdb6e3ff6365bd699dd9f95dcc6eab5448bebd6960001b83604051602001611a5c92919061355b565b805460ff19169115159190911790556040517f2ce5d9351b1d590d5a066db0d2dc7602d55f092506a83a7ee8c4d78ee357d75a9061247a9083906139c0565b60405180910390a150565b60006124c78585858080601f0160208091040260200160405190810160405280939291908181526020018383808284376000920191909152506129d292505050565b90506124d281612a4e565b6124db85612a80565b156125535760ca5460cc54604051630f95e75b60e31b81526001600160a01b0392831692637caf3ad89261251c928b928a928a929116908990600401613734565b600060405180830381600087803b15801561253657600080fd5b505af115801561254a573d6000803e3d6000fd5b50505050610cc8565b60c954604080516020601f87018190048102820181019092528581526001600160a01b039092169163b55bc61791899185916125ab918b918b908b9081908401838280828437600092019190915250612abe92505050565b866040518563ffffffff1660e01b81526004016125cb94939291906138f1565b600060405180830381600087803b1580156125e557600080fd5b505af11580156125f9573d6000803e3d6000fd5b50505050505050505050565b6000816040516020016126189190613654565b604051602081830303815290604052805190602001209050919050565b60008060008084516041141561265f5750505060208201516040830151606084015160001a6126a5565b84516040141561268d5750505060408201516020830151906001600160ff1b0381169060ff1c601b016126a5565b60405162461bcd60e51b815260040161090990613ac8565b6126b186828585612c99565b9695505050505050565b6126c481612d8f565b6126cd81611955565b610e765760405162461bcd60e51b815260040161090990613d28565b60006001600160e01b0319841663ae2ad90360e01b148061271a57506001600160e01b03198416630260c0cf60e51b145b8061273557506001600160e01b031984166358839d6b60e01b145b8061275057506001600160e01b0319841663039ccf4d60e41b145b8061276b57506001600160e01b031984166327bbd22560e01b145b8061278657506001600160e01b03198416633516912b60e11b145b905080610d3c5760405162461bcd60e51b815260040161090990613a82565b806127cf7fa0dcf6b78c18ae45967a4073fd9dc39d22b4a768f709ae0d04de58f0a1de3c6b61171e565b805460ff19169115159190911790556040517ffd57a948ceab31332ee84de15f1ea4015cbb0331716a688e0879ffa6b2b4436e9061247a9083906139b5565b60006128397fa0dcf6b78c18ae45967a4073fd9dc39d22b4a768f709ae0d04de58f0a1de3c6b61171e565b5460ff16905090565b8061286c7f893ef2ea16c023f61d4f55d3e6ee3fc3f2fbfd478461323dbc2fbf919047086e61171e565b80546001600160a01b0319166001600160a01b039290921691909117905550565b60005b81811015610e29576128c78383838181106128bb57634e487b7160e01b600052603260045260246000fd5b905060200201356123db565b806128d181613f2a565b915050612890565b6128e1611e03565b6001600160a01b03166128f2611711565b6001600160a01b0316146129185760405162461bcd60e51b815260040161090990613d6c565b6001600160a01b03811661293e5760405162461bcd60e51b815260040161090990613aff565b6033546040516001600160a01b038084169216907f8be0079c531659141344cd1fd0a4f28419497f9722a3daafe3b4186f6b6457e090600090a3603380546001600160a01b0319166001600160a01b0392909216919091179055565b610ebb8282612132565b60006129af3361125a565b156129c3575060331936013560601c61171e565b6129cb612db5565b905061171e565b60008151600014156129f65760405162461bcd60e51b815260040161090990613da1565b8282604051602001612a089190613579565b60405160208183030381529060405280519060200120604051602001612a2f92919061355b565b60408051601f1981840301815291905280516020909101209392505050565b612a5661280e565b610e7657612a6381611a13565b15610f9f5760405162461bcd60e51b815260040161090990613bf5565b60ca546000906001600160a01b0316158015906107f55750507f0f4a10a4f46c288cea365fcf45cccf0e9d901b945b9829ccdb54c10dc3cb7a6f1490565b600082815260cd60209081526040918290209151606092611e2792859201613595565b60606000612af0836002613e8d565b612afb906002613e75565b6001600160401b03811115612b2057634e487b7160e01b600052604160045260246000fd5b6040519080825280601f01601f191660200182016040528015612b4a576020820181803683370190505b509050600360fc1b81600081518110612b7357634e487b7160e01b600052603260045260246000fd5b60200101906001600160f81b031916908160001a905350600f60fb1b81600181518110612bb057634e487b7160e01b600052603260045260246000fd5b60200101906001600160f81b031916908160001a9053506000612bd4846002613e8d565b612bdf906001613e75565b90505b6001811115612c73576f181899199a1a9b1b9c1cb0b131b232b360811b85600f1660108110612c2157634e487b7160e01b600052603260045260246000fd5b1a60f81b828281518110612c4557634e487b7160e01b600052603260045260246000fd5b60200101906001600160f81b031916908160001a90535060049490941c93612c6c81613ed8565b9050612be2565b508315612c925760405162461bcd60e51b815260040161090990613a4d565b9392505050565b60007f7fffffffffffffffffffffffffffffff5d576e7357a4501ddfe92f46681b20a0821115612cdb5760405162461bcd60e51b815260040161090990613bb3565b8360ff16601b1480612cf057508360ff16601c145b612d0c5760405162461bcd60e51b815260040161090990613ce6565b600060018686868660405160008152602001604052604051612d3194939291906139c9565b6020604051602081039080840390855afa158015612d53573d6000803e3d6000fd5b5050604051601f1901519150506001600160a01b038116612d865760405162461bcd60e51b815260040161090990613a16565b95945050505050565b6001600160a01b038116610e765760405162461bcd60e51b815260040161090990613b45565b3390565b828054612dc590613eef565b90600052602060002090601f016020900481019282612de75760008555612e2d565b82601f10612e0057805160ff1916838001178555612e2d565b82800160010185558215612e2d579182015b82811115612e2d578251825591602001919060010190612e12565b50612e39929150612e3d565b5090565b5b80821115612e395760008155600101612e3e565b80356107f881613f71565b60008083601f840112612e6e578182fd5b5081356001600160401b03811115612e84578182fd5b6020830191508360208083028501011115612e9e57600080fd5b9250929050565b60008083601f840112612eb6578182fd5b5081356001600160401b03811115612ecc578182fd5b602083019150836020828501011115612e9e57600080fd5b600060208284031215612ef5578081fd5b8135612c9281613f71565b60008060008060608587031215612f15578283fd5b8435612f2081613f71565b93506020850135925060408501356001600160401b03811115612f41578283fd5b612f4d87828801612ea5565b95989497509550505050565b60008060008060008060008060a0898b031215612f74578384fd5b8835612f7f81613f71565b97506020890135965060408901356001600160401b0380821115612fa1578586fd5b612fad8c838d01612ea5565b909850965060608b0135915080821115612fc5578586fd5b612fd18c838d01612e5d565b909650945060808b0135915080821115612fe9578384fd5b50612ff68b828c01612e5d565b999c989b5096995094979396929594505050565b60008060008060008060008060008060c08b8d031215613028578182fd5b6130318b612e52565b995060208b0135985060408b01356001600160401b0380821115613053578384fd5b61305f8e838f01612ea5565b909a50985060608d0135915080821115613077578384fd5b6130838e838f01612e5d565b909850965060808d013591508082111561309b578384fd5b6130a78e838f01612e5d565b909650945060a08d01359150808211156130bf578384fd5b506130cc8d828e01612ea5565b915080935050809150509295989b9194979a5092959850565b600080600080600080608087890312156130fd578182fd5b863561310881613f71565b95506020870135945060408701356001600160401b038082111561312a578384fd5b6131368a838b01612ea5565b9096509450606089013591508082111561314e578384fd5b5061315b89828a01612ea5565b979a9699509497509295939492505050565b6000602080838503121561317f578182fd5b82356001600160401b0380821115613195578384fd5b818501915085601f8301126131a8578384fd5b8135818111156131ba576131ba613f5b565b838102604051858282010181811085821117156131d9576131d9613f5b565b604052828152858101935084860182860187018a10156131f7578788fd5b8795505b838610156132205761320c81612e52565b8552600195909501949386019386016131fb565b5098975050505050505050565b6000806020838503121561323f578182fd5b82356001600160401b03811115613254578283fd5b61326085828601612e5d565b90969095509350505050565b60006020828403121561327d578081fd5b8135612c9281613f86565b600060208284031215613299578081fd5b8151612c9281613f86565b6000602082840312156132b5578081fd5b5035919050565b600080604083850312156132ce578182fd5b8235915060208301356132e081613f71565b809150509250929050565b6000602082840312156132fc578081fd5b81356001600160e01b031981168114612c92578182fd5b60008060008060408587031215613328578182fd5b84356001600160401b038082111561333e578384fd5b61334a88838901612ea5565b90965094506020870135915080821115613362578384fd5b50612f4d87828801612ea5565b600080600080600060a08688031215613386578283fd5b853561339181613f71565b945060208601356133a181613f71565b935060408601356133b181613f71565b925060608601356133c181613f71565b915060808601356133d181613f71565b809150509295509295909350565b600080602083850312156133f1578182fd5b82356001600160401b03811115613406578283fd5b61326085828601612ea5565b600080600060408486031215613426578081fd5b8335925060208401356001600160401b03811115613442578182fd5b61344e86828701612ea5565b9497909650939450505050565b818352602080840193600091908185020181018584845b878110156134d85782840389528135601e19883603018112613492578687fd5b870180356001600160401b038111156134a9578788fd5b8036038913156134b7578788fd5b6134c48682898501613511565b9a87019a9550505090840190600101613472565b5091979650505050505050565b600081518084526134fd816020860160208601613eac565b601f01601f19169290920160200192915050565b60008284528282602086013780602084860101526020601f19601f85011685010190509392505050565b91825260601b6bffffffffffffffffffffffff1916602082015260340190565b918252602082015260400190565b6000828483379101908152919050565b6000825161358b818460208701613eac565b9190910192915050565b6000835160206135a88285838901613eac565b601760f91b9184019182528454600190849060028104818416806135cd57607f821691505b8582108114156135eb57634e487b7160e01b88526022600452602488fd5b8080156135ff576001811461361457613644565b60ff1984168887015282880186019450613644565b61361d8b613e69565b895b8481101561363a5781548a820189015290870190880161361f565b5050858389010194505b50929a9950505050505050505050565b7f19457468657265756d205369676e6564204d6573736167653a0a3332000000008152601c810191909152603c0190565b6000697564746573746465762d60b01b82528284600a8401379101600a01908152919050565b60007f416363657373436f6e74726f6c3a206163636f756e7420000000000000000000825283516136e3816017850160208801613eac565b7001034b99036b4b9b9b4b733903937b6329607d1b6017918401918201528351613714816028840160208801613eac565b01602801949350505050565b6001600160a01b0391909116815260200190565b600060018060a01b03808816835260806020840152613757608084018789613511565b8186166040850152838103606085015261377181866134e5565b9998505050505050505050565b600060018060a01b038086168352606060208401526137a060608401866134e5565b9150808416604084015250949350505050565b600060018060a01b038087168352608060208401526137d560808401876134e5565b818616604085015283810360608501526137ef81866134e5565b98975050505050505050565b600060018060a01b038516825283602083015260606040830152612d8660608301846134e5565b600060018060a01b038916825287602083015260a0604083015261384960a08301886134e5565b828103606084015261385c81878961345b565b9050828103608084015261387181858761345b565b9a9950505050505050505050565b600060018060a01b038a16825288602083015260c060408301526138a660c08301896134e5565b82810360608401526138b981888a61345b565b905082810360808401526138ce81868861345b565b905082810360a08401526138e281856134e5565b9b9a5050505050505050505050565b600060018060a01b03861682528460208301526080604083015261391860808301856134e5565b828103606084015261392a81856134e5565b979650505050505050565b6020808252825182820181905260009190848201906040850190845b8181101561396f578351151583529284019291840191600101613951565b50909695505050505050565b60006060825261398f60608301878961345b565b82810360208401526139a281868861345b565b9150508260408301529695505050505050565b901515815260200190565b90815260200190565b93845260ff9290921660208401526040830152606082015260800190565b600060208252612c9260208301846134e5565b600060208252613a0e602083018486613511565b949350505050565b60208082526018908201527f45434453413a20696e76616c6964207369676e61747572650000000000000000604082015260600190565b6020808252818101527f537472696e67733a20686578206c656e67746820696e73756666696369656e74604082015260600190565b60208082526026908201527f4d696e74696e674d616e616765723a20554e535550504f525445445f52454c416040820152651657d0d0531360d21b606082015260800190565b6020808252601f908201527f45434453413a20696e76616c6964207369676e6174757265206c656e67746800604082015260600190565b60208082526026908201527f4f776e61626c653a206e6577206f776e657220697320746865207a65726f206160408201526564647265737360d01b606082015260800190565b6020808252601d908201527f52656c617965723a205349474e41545552455f49535f494e56414c4944000000604082015260600190565b6020808252601d908201527f4d696e746572526f6c653a2052454345495645525f49535f454d505459000000604082015260600190565b60208082526022908201527f45434453413a20696e76616c6964207369676e6174757265202773272076616c604082015261756560f01b606082015260800190565b6020808252601d908201527f4d696e74696e674d616e616765723a20544f4b454e5f424c4f434b4544000000604082015260600190565b60208082526018908201527f426c6f636b6c69737453746f726167653a205041555345440000000000000000604082015260600190565b6020808252602e908201527f496e697469616c697a61626c653a20636f6e747261637420697320616c72656160408201526d191e481a5b9a5d1a585b1a5e995960921b606082015260800190565b6020808252818101527f4d696e746572526f6c653a2043414c4c45525f49535f4e4f545f4d494e544552604082015260600190565b60208082526022908201527f45434453413a20696e76616c6964207369676e6174757265202776272076616c604082015261756560f01b606082015260800190565b60208082526024908201527f4d696e74696e674d616e616765723a205349474e45525f49535f4e4f545f4d49604082015263272a22a960e11b606082015260800190565b6020808252818101527f4f776e61626c653a2063616c6c6572206973206e6f7420746865206f776e6572604082015260600190565b6020808252601b908201527f4d696e74696e674d616e616765723a204c4142454c5f454d5054590000000000604082015260600190565b60208082526022908201527f4d696e74696e674d616e616765723a20544c445f4e4f545f5245474953544552604082015261115160f21b606082015260800190565b6020808252602f908201527f416363657373436f6e74726f6c3a2063616e206f6e6c792072656e6f756e636560408201526e103937b632b9903337b91039b2b63360891b606082015260800190565b60009081526020902090565b60008219821115613e8857613e88613f45565b500190565b6000816000190483118215151615613ea757613ea7613f45565b500290565b60005b83811015613ec7578181015183820152602001613eaf565b83811115610d3c5750506000910152565b600081613ee757613ee7613f45565b506000190190565b600281046001821680613f0357607f821691505b60208210811415613f2457634e487b7160e01b600052602260045260246000fd5b50919050565b6000600019821415613f3e57613f3e613f45565b5060010190565b634e487b7160e01b600052601160045260246000fd5b634e487b7160e01b600052604160045260246000fd5b6001600160a01b0381168114610e7657600080fd5b8015158114610e7657600080fdfe9f2df0fed2c77648de5860a4cc508cd0818c85b8b8a1ab4ceeef8d981c8956a6a2646970667358221220cc3cef2bfe1189f56cf1fa12eeda1038c59975216c6d7c69498651a9fc0bb79564736f6c63430008000033",
  "linkReferences": {},
  "deployedLinkReferences": {}
}