{
  "_format": "hh-sol-artifact-1",
  "contractName": "MintingManager",
  "sourceName": "contracts/MintingManager.sol",
  "abi": [
    {
      "anonymous": false,
      "inputs": [
        {
          "indexed": false,
          "internalType": "address",
          "name": "previousAdmin",
          "type": "address"
        },
        {
          "indexed": false,
          "internalType": "address",
          "name": "newAdmin",
          "type": "address"
        }
      ],
      "name": "AdminChanged",
      "type": "event"
    },
    {
      "anonymous": false,
      "inputs": [
        {
          "indexed": false,
          "internalType": "uint256",
          "name": "tokenId",
          "type": "uint256"
        }
      ],
      "name": "Blocked",
      "type": "event"
    },
    {
      "anonymous": false,
      "inputs": [
        {
          "indexed": false,
          "internalType": "address",
          "name": "account",
          "type": "address"
        }
      ],
      "name": "BlocklistDisabled",
      "type": "event"
    },
    {
      "anonymous": false,
      "inputs": [
        {
          "indexed": false,
          "internalType": "address",
          "name": "account",
          "type": "address"
        }
      ],
      "name": "BlocklistEnabled",
      "type": "event"
    },
    {
      "anonymous": false,
      "inputs": [
        {
          "indexed": false,
          "internalType": "uint8",
          "name": "version",
          "type": "uint8"
        }
      ],
      "name": "Initialized",
      "type": "event"
    },
    {
      "anonymous": false,
      "inputs": [
        {
          "indexed": true,
          "internalType": "uint256",
          "name": "tokenId",
          "type": "uint256"
        },
        {
          "indexed": false,
          "internalType": "string",
          "name": "tld",
          "type": "string"
        }
      ],
      "name": "NewTld",
      "type": "event"
    },
    {
      "anonymous": false,
      "inputs": [
        {
          "indexed": true,
          "internalType": "address",
          "name": "previousOwner",
          "type": "address"
        },
        {
          "indexed": true,
          "internalType": "address",
          "name": "newOwner",
          "type": "address"
        }
      ],
      "name": "OwnershipTransferred",
      "type": "event"
    },
    {
      "anonymous": false,
      "inputs": [
        {
          "indexed": false,
          "internalType": "address",
          "name": "account",
          "type": "address"
        }
      ],
      "name": "Paused",
      "type": "event"
    },
    {
      "anonymous": false,
      "inputs": [
        {
          "indexed": true,
          "internalType": "uint256",
          "name": "tokenId",
          "type": "uint256"
        }
      ],
      "name": "RemoveTld",
      "type": "event"
    },
    {
      "anonymous": false,
      "inputs": [
        {
          "indexed": true,
          "internalType": "bytes32",
          "name": "role",
          "type": "bytes32"
        },
        {
          "indexed": true,
          "internalType": "bytes32",
          "name": "previousAdminRole",
          "type": "bytes32"
        },
        {
          "indexed": true,
          "internalType": "bytes32",
          "name": "newAdminRole",
          "type": "bytes32"
        }
      ],
      "name": "RoleAdminChanged",
      "type": "event"
    },
    {
      "anonymous": false,
      "inputs": [
        {
          "indexed": true,
          "internalType": "bytes32",
          "name": "role",
          "type": "bytes32"
        },
        {
          "indexed": true,
          "internalType": "address",
          "name": "account",
          "type": "address"
        },
        {
          "indexed": true,
          "internalType": "address",
          "name": "sender",
          "type": "address"
        }
      ],
      "name": "RoleGranted",
      "type": "event"
    },
    {
      "anonymous": false,
      "inputs": [
        {
          "indexed": true,
          "internalType": "bytes32",
          "name": "role",
          "type": "bytes32"
        },
        {
          "indexed": true,
          "internalType": "address",
          "name": "account",
          "type": "address"
        },
        {
          "indexed": true,
          "internalType": "address",
          "name": "sender",
          "type": "address"
        }
      ],
      "name": "RoleRevoked",
      "type": "event"
    },
    {
      "anonymous": false,
      "inputs": [
        {
          "indexed": false,
          "internalType": "address",
          "name": "account",
          "type": "address"
        }
      ],
      "name": "Unpaused",
      "type": "event"
    },
    {
      "anonymous": false,
      "inputs": [
        {
          "indexed": true,
          "internalType": "address",
          "name": "implementation",
          "type": "address"
        }
      ],
      "name": "Upgraded",
      "type": "event"
    },
    {
      "inputs": [],
      "name": "DEFAULT_ADMIN_ROLE",
      "outputs": [
        {
          "internalType": "bytes32",
          "name": "",
          "type": "bytes32"
        }
      ],
      "stateMutability": "view",
      "type": "function"
    },
    {
      "inputs": [],
      "name": "MINTER_ROLE",
      "outputs": [
        {
          "internalType": "bytes32",
          "name": "",
          "type": "bytes32"
        }
      ],
      "stateMutability": "view",
      "type": "function"
    },
    {
      "inputs": [],
      "name": "NAME",
      "outputs": [
        {
          "internalType": "string",
          "name": "",
          "type": "string"
        }
      ],
      "stateMutability": "view",
      "type": "function"
    },
    {
      "inputs": [],
      "name": "VERSION",
      "outputs": [
        {
          "internalType": "string",
          "name": "",
          "type": "string"
        }
      ],
      "stateMutability": "view",
      "type": "function"
    },
    {
      "inputs": [
        {
          "internalType": "address",
          "name": "account",
          "type": "address"
        }
      ],
      "name": "addMinter",
      "outputs": [],
      "stateMutability": "nonpayable",
      "type": "function"
    },
    {
      "inputs": [
        {
          "internalType": "address[]",
          "name": "accounts",
          "type": "address[]"
        }
      ],
      "name": "addMinters",
      "outputs": [],
      "stateMutability": "nonpayable",
      "type": "function"
    },
    {
      "inputs": [
        {
          "internalType": "address[]",
          "name": "addrs",
          "type": "address[]"
        }
      ],
      "name": "addProxyReaders",
      "outputs": [],
      "stateMutability": "nonpayable",
      "type": "function"
    },
    {
      "inputs": [
        {
          "internalType": "string",
          "name": "tld",
          "type": "string"
        }
      ],
      "name": "addTld",
      "outputs": [],
      "stateMutability": "nonpayable",
      "type": "function"
    },
    {
      "inputs": [
        {
          "internalType": "uint256",
          "name": "tld",
          "type": "uint256"
        },
        {
          "internalType": "string",
          "name": "label",
          "type": "string"
        }
      ],
      "name": "claim",
      "outputs": [],
      "stateMutability": "nonpayable",
      "type": "function"
    },
    {
      "inputs": [
        {
          "internalType": "address",
          "name": "to",
          "type": "address"
        },
        {
          "internalType": "uint256",
          "name": "tld",
          "type": "uint256"
        },
        {
          "internalType": "string",
          "name": "label",
          "type": "string"
        }
      ],
      "name": "claimTo",
      "outputs": [],
      "stateMutability": "nonpayable",
      "type": "function"
    },
    {
      "inputs": [
        {
          "internalType": "address",
          "name": "to",
          "type": "address"
        },
        {
          "internalType": "uint256",
          "name": "tld",
          "type": "uint256"
        },
        {
          "internalType": "string",
          "name": "label",
          "type": "string"
        },
        {
          "internalType": "string[]",
          "name": "keys",
          "type": "string[]"
        },
        {
          "internalType": "string[]",
          "name": "values",
          "type": "string[]"
        }
      ],
      "name": "claimToWithRecords",
      "outputs": [],
      "stateMutability": "nonpayable",
      "type": "function"
    },
    {
      "inputs": [
        {
          "internalType": "address payable",
          "name": "receiver",
          "type": "address"
        }
      ],
      "name": "closeMinter",
      "outputs": [],
      "stateMutability": "payable",
      "type": "function"
    },
    {
      "inputs": [],
      "name": "cnsMintingController",
      "outputs": [
        {
          "internalType": "contract IMintingController",
          "name": "",
          "type": "address"
        }
      ],
      "stateMutability": "view",
      "type": "function"
    },
    {
      "inputs": [],
      "name": "cnsResolver",
      "outputs": [
        {
          "internalType": "contract IResolver",
          "name": "",
          "type": "address"
        }
      ],
      "stateMutability": "view",
      "type": "function"
    },
    {
      "inputs": [],
      "name": "cnsURIPrefixController",
      "outputs": [
        {
          "internalType": "contract IURIPrefixController",
          "name": "",
          "type": "address"
        }
      ],
      "stateMutability": "view",
      "type": "function"
    },
    {
      "inputs": [
        {
          "internalType": "bytes32",
          "name": "role",
          "type": "bytes32"
        }
      ],
      "name": "getRoleAdmin",
      "outputs": [
        {
          "internalType": "bytes32",
          "name": "",
          "type": "bytes32"
        }
      ],
      "stateMutability": "view",
      "type": "function"
    },
    {
      "inputs": [
        {
          "internalType": "bytes32",
          "name": "role",
          "type": "bytes32"
        },
        {
          "internalType": "address",
          "name": "account",
          "type": "address"
        }
      ],
      "name": "grantRole",
      "outputs": [],
      "stateMutability": "nonpayable",
      "type": "function"
    },
    {
      "inputs": [
        {
          "internalType": "bytes32",
          "name": "role",
          "type": "bytes32"
        },
        {
          "internalType": "address",
          "name": "account",
          "type": "address"
        }
      ],
      "name": "hasRole",
      "outputs": [
        {
          "internalType": "bool",
          "name": "",
          "type": "bool"
        }
      ],
      "stateMutability": "view",
      "type": "function"
    },
    {
      "inputs": [
        {
          "internalType": "contract IUNSRegistry",
          "name": "unsRegistry_",
          "type": "address"
        },
        {
          "internalType": "contract IMintingController",
          "name": "cnsMintingController_",
          "type": "address"
        },
        {
          "internalType": "contract IURIPrefixController",
          "name": "cnsURIPrefixController_",
          "type": "address"
        },
        {
          "internalType": "contract IResolver",
          "name": "cnsResolver_",
          "type": "address"
        },
        {
          "internalType": "address",
          "name": "unsOperator_",
          "type": "address"
        },
        {
          "internalType": "address",
          "name": "forwarder",
          "type": "address"
        }
      ],
      "name": "initialize",
      "outputs": [],
      "stateMutability": "nonpayable",
      "type": "function"
    },
    {
      "inputs": [
        {
          "internalType": "uint256",
          "name": "tokenId",
          "type": "uint256"
        }
      ],
      "name": "isBlocked",
      "outputs": [
        {
          "internalType": "bool",
          "name": "",
          "type": "bool"
        }
      ],
      "stateMutability": "view",
      "type": "function"
    },
    {
      "inputs": [
        {
          "internalType": "address",
          "name": "account",
          "type": "address"
        }
      ],
      "name": "isMinter",
      "outputs": [
        {
          "internalType": "bool",
          "name": "",
          "type": "bool"
        }
      ],
      "stateMutability": "view",
      "type": "function"
    },
    {
      "inputs": [
        {
          "internalType": "address",
          "name": "forwarder",
          "type": "address"
        }
      ],
      "name": "isTrustedForwarder",
      "outputs": [
        {
          "internalType": "bool",
          "name": "",
          "type": "bool"
        }
      ],
      "stateMutability": "view",
      "type": "function"
    },
    {
      "inputs": [
        {
          "internalType": "address",
          "name": "to",
          "type": "address"
        },
        {
          "internalType": "string[]",
          "name": "labels",
          "type": "string[]"
        },
        {
          "internalType": "string[]",
          "name": "keys",
          "type": "string[]"
        },
        {
          "internalType": "string[]",
          "name": "values",
          "type": "string[]"
        },
        {
          "internalType": "bool",
          "name": "withReverse",
          "type": "bool"
        }
      ],
      "name": "issueWithRecords",
      "outputs": [],
      "stateMutability": "nonpayable",
      "type": "function"
    },
    {
      "inputs": [],
      "name": "owner",
      "outputs": [
        {
          "internalType": "address",
          "name": "",
          "type": "address"
        }
      ],
      "stateMutability": "view",
      "type": "function"
    },
    {
      "inputs": [],
      "name": "pause",
      "outputs": [],
      "stateMutability": "nonpayable",
      "type": "function"
    },
    {
      "inputs": [],
      "name": "paused",
      "outputs": [
        {
          "internalType": "bool",
          "name": "",
          "type": "bool"
        }
      ],
      "stateMutability": "view",
      "type": "function"
    },
    {
      "inputs": [
        {
          "internalType": "address",
          "name": "account",
          "type": "address"
        }
      ],
      "name": "removeMinter",
      "outputs": [],
      "stateMutability": "nonpayable",
      "type": "function"
    },
    {
      "inputs": [
        {
          "internalType": "address[]",
          "name": "accounts",
          "type": "address[]"
        }
      ],
      "name": "removeMinters",
      "outputs": [],
      "stateMutability": "nonpayable",
      "type": "function"
    },
    {
      "inputs": [
        {
          "internalType": "uint256",
          "name": "tld",
          "type": "uint256"
        }
      ],
      "name": "removeTld",
      "outputs": [],
      "stateMutability": "nonpayable",
      "type": "function"
    },
    {
      "inputs": [],
      "name": "renounceMinter",
      "outputs": [],
      "stateMutability": "nonpayable",
      "type": "function"
    },
    {
      "inputs": [],
      "name": "renounceOwnership",
      "outputs": [],
      "stateMutability": "nonpayable",
      "type": "function"
    },
    {
      "inputs": [
        {
          "internalType": "bytes32",
          "name": "role",
          "type": "bytes32"
        },
        {
          "internalType": "address",
          "name": "account",
          "type": "address"
        }
      ],
      "name": "renounceRole",
      "outputs": [],
      "stateMutability": "nonpayable",
      "type": "function"
    },
    {
      "inputs": [
        {
          "internalType": "bytes32",
          "name": "role",
          "type": "bytes32"
        },
        {
          "internalType": "address",
          "name": "account",
          "type": "address"
        }
      ],
      "name": "revokeRole",
      "outputs": [],
      "stateMutability": "nonpayable",
      "type": "function"
    },
    {
      "inputs": [
        {
          "internalType": "address payable",
          "name": "receiver",
          "type": "address"
        }
      ],
      "name": "rotateMinter",
      "outputs": [],
      "stateMutability": "payable",
      "type": "function"
    },
    {
      "inputs": [
        {
          "internalType": "address",
          "name": "forwarder",
          "type": "address"
        }
      ],
      "name": "setForwarder",
      "outputs": [],
      "stateMutability": "nonpayable",
      "type": "function"
    },
    {
      "inputs": [
        {
          "internalType": "address",
          "name": "operator",
          "type": "address"
        }
      ],
      "name": "setOperator",
      "outputs": [],
      "stateMutability": "nonpayable",
      "type": "function"
    },
    {
      "inputs": [
        {
          "internalType": "string",
          "name": "prefix",
          "type": "string"
        }
      ],
      "name": "setTokenURIPrefix",
      "outputs": [],
      "stateMutability": "nonpayable",
      "type": "function"
    },
    {
      "inputs": [
        {
          "internalType": "bytes4",
          "name": "interfaceId",
          "type": "bytes4"
        }
      ],
      "name": "supportsInterface",
      "outputs": [
        {
          "internalType": "bool",
          "name": "",
          "type": "bool"
        }
      ],
      "stateMutability": "view",
      "type": "function"
    },
    {
      "inputs": [
        {
          "internalType": "address",
          "name": "newOwner",
          "type": "address"
        }
      ],
      "name": "transferOwnership",
      "outputs": [],
      "stateMutability": "nonpayable",
      "type": "function"
    },
    {
      "inputs": [],
      "name": "unpause",
      "outputs": [],
      "stateMutability": "nonpayable",
      "type": "function"
    },
    {
      "inputs": [],
      "name": "unsOperator",
      "outputs": [
        {
          "internalType": "address",
          "name": "",
          "type": "address"
        }
      ],
      "stateMutability": "view",
      "type": "function"
    },
    {
      "inputs": [],
      "name": "unsRegistry",
      "outputs": [
        {
          "internalType": "contract IUNSRegistry",
          "name": "",
          "type": "address"
        }
      ],
      "stateMutability": "view",
      "type": "function"
    }
  ],
  "bytecode": "0x608060405234801561001057600080fd5b506135a7806100206000396000f3fe6080604052600436106102515760003560e01c806391d1485411610139578063b9998a24116100b6578063d1f5692c1161007a578063d1f5692c14610720578063d539139314610740578063d547741f14610762578063ec52738914610782578063f2fde38b146107a2578063ffa1ad74146107c257600080fd5b8063b9998a2414610680578063c3a3bc00146106a0578063cc2a9a5b146106c0578063cc2c3fc4146106e0578063ceeb4f501461070057600080fd5b8063a3f4df7e116100fd578063a3f4df7e146105b3578063a849d65c14610600578063aa271e1a14610620578063b0aa98c714610640578063b3ab15fb1461066057600080fd5b806391d1485414610529578063983b2d5614610549578063986502751461056957806399e0dd7c1461057e578063a217fddf1461059e57600080fd5b80635c975abb116101d257806371e2a6571161019657806371e2a6571461048357806377a2a589146104a357806381c81d35146104c35780638456cb59146104d65780638da5cb5b146104eb578063906cecc11461050957600080fd5b80635c975abb146104065780635cd7e3b31461041b5780635fc1964f1461043b578063634486da1461045b578063715018a61461046e57600080fd5b806336568abe1161021957806336568abe1461032b5780633f41b6141461034b5780633f4ba83a14610383578063572b6c05146103985780635b6fa8db146103e657600080fd5b806301ffc9a714610256578063248a9ca31461028b578063268b15ed146102c95780632f2ff15d146102eb5780633092afd51461030b575b600080fd5b34801561026257600080fd5b50610276610271366004612e63565b6107f4565b60405190151581526020015b60405180910390f35b34801561029757600080fd5b506102bb6102a6366004612e1c565b60009081526097602052604090206001015490565b604051908152602001610282565b3480156102d557600080fd5b506102e96102e4366004612f3f565b61082b565b005b3480156102f757600080fd5b506102e9610306366004612e34565b6108ce565b34801561031757600080fd5b506102e9610326366004612b24565b6108f8565b34801561033757600080fd5b506102e9610346366004612e34565b61090c565b34801561035757600080fd5b5060c95461036b906001600160a01b031681565b6040516001600160a01b039091168152602001610282565b34801561038f57600080fd5b506102e961099a565b3480156103a457600080fd5b506102766103b3366004612b24565b7f893ef2ea16c023f61d4f55d3e6ee3fc3f2fbfd478461323dbc2fbf919047086e546001600160a01b0390811691161490565b3480156103f257600080fd5b5060cc5461036b906001600160a01b031681565b34801561041257600080fd5b506102766109ac565b34801561042757600080fd5b506102e9610436366004612b5c565b6109c2565b34801561044757600080fd5b506102e9610456366004612d60565b610d1c565b6102e9610469366004612b24565b610d72565b34801561047a57600080fd5b506102e9610e65565b34801561048f57600080fd5b506102e961049e366004612d60565b610e77565b3480156104af57600080fd5b5060ce5461036b906001600160a01b031681565b6102e96104d1366004612b24565b610ecd565b3480156104e257600080fd5b506102e9610f7a565b3480156104f757600080fd5b506033546001600160a01b031661036b565b34801561051557600080fd5b506102e9610524366004612c17565b610f8a565b34801561053557600080fd5b50610276610544366004612e34565b611010565b34801561055557600080fd5b506102e9610564366004612b24565b61103b565b34801561057557600080fd5b506102e961104c565b34801561058a57600080fd5b506102e9610599366004612f0c565b611066565b3480156105aa57600080fd5b506102bb600081565b3480156105bf57600080fd5b506105f3604051806040016040528060148152602001732aa7299d1026b4b73a34b7339026b0b730b3b2b960611b81525081565b604051610282919061321d565b34801561060c57600080fd5b5060cb5461036b906001600160a01b031681565b34801561062c57600080fd5b5061027661063b366004612b24565b611145565b34801561064c57600080fd5b5061027661065b366004612e1c565b61115f565b34801561066c57600080fd5b506102e961067b366004612b24565b6111bd565b34801561068c57600080fd5b506102e961069b366004612b24565b6111e7565b3480156106ac57600080fd5b506102e96106bb366004612f0c565b61122c565b3480156106cc57600080fd5b506102e96106db366004612e8b565b611273565b3480156106ec57600080fd5b5060ca5461036b906001600160a01b031681565b34801561070c57600080fd5b506102e961071b366004612c70565b6115e1565b34801561072c57600080fd5b506102e961073b366004612d21565b611677565b34801561074c57600080fd5b506102bb60008051602061357b83398151915281565b34801561076e57600080fd5b506102e961077d366004612e34565b61173c565b34801561078e57600080fd5b506102e961079d366004612e1c565b611761565b3480156107ae57600080fd5b506102e96107bd366004612b24565b6117d3565b3480156107ce57600080fd5b506105f360405180604001604052806006815260200165302e342e313160d01b81525081565b60006001600160e01b03198216637965db0b60e01b148061082557506301ffc9a760e01b6001600160e01b03198316145b92915050565b8282828080601f01602080910402602001604051908101604052809392919081815260200183838082843760009201919091525061086f92508491508390506117ef565b6108776109ac565b1561089d5760405162461bcd60e51b815260040161089490613230565b60405180910390fd5b60606108c66108aa611945565b6108bd886108b88989611954565b611980565b83846001611aad565b505050505050565b6000828152609760205260409020600101546108e981611dab565b6108f38383611dbc565b505050565b610900611e43565b61090981611ebc565b50565b610914611945565b6001600160a01b0316816001600160a01b03161461098c5760405162461bcd60e51b815260206004820152602f60248201527f416363657373436f6e74726f6c3a2063616e206f6e6c792072656e6f756e636560448201526e103937b632b9903337b91039b2b63360891b6064820152608401610894565b6109968282611ed4565b5050565b6109a2611e43565b6109aa611f59565b565b60008051602061355b8339815191525460ff1690565b6109cc86886133a9565b805160021415610a3e576109e161063b611945565b610a395760405162461bcd60e51b8152602060048201526024808201527f4d696e74696e674d616e616765723a2043414c4c45525f49535f4e4f545f4d49604482015263272a22a960e11b6064820152608401610894565b610be9565b6000610a4982612001565b60c9549092506001600160a01b0316905063430c2081610a67611945565b6040516001600160e01b031960e084901b1681526001600160a01b0390911660048201526024810184905260440160206040518083038186803b158015610aad57600080fd5b505afa158015610ac1573d6000803e3d6000fd5b505050506040513d601f19601f82011682018060405250810190610ae59190612e00565b80610b83575060c95460ce5460405163430c208160e01b81526001600160a01b0391821660048201526024810184905291169063430c20819060440160206040518083038186803b158015610b3957600080fd5b505afa158015610b4d573d6000803e3d6000fd5b505050506040513d601f19601f82011682018060405250810190610b719190612e00565b8015610b835750610b8361063b611945565b610be75760405162461bcd60e51b815260206004820152602f60248201527f4d696e74696e674d616e616765723a2053454e4445525f49535f4e4f545f415060448201526e282927ab22a22fa7a92fa7aba722a960891b6064820152608401610894565b505b610bf387896133a9565b600281511015610c535760405162461bcd60e51b815260206004820152602560248201527f4d696e74696e674d616e616765723a204c4142454c535f4c454e4754485f42456044820152642627abaf9960d91b6064820152608401610894565b610cc3610c9560008360018551610c6a9190613392565b81518110610c8857634e487b7160e01b600052603260045260246000fd5b602002602001015161203c565b82600081518110610cb657634e487b7160e01b600052603260045260246000fd5b60200260200101516117ef565b610ccb6109ac565b15610ce85760405162461bcd60e51b815260040161089490613230565b610d108a610cf68a8c6133a9565b610d00898b6133a9565b610d0a888a6133a9565b87611aad565b50505050505050505050565b610d24611e43565b60005b815181101561099657610d60828281518110610d5357634e487b7160e01b600052603260045260246000fd5b6020026020010151611ebc565b80610d6a816134f0565b915050610d27565b610d7d61063b611945565b610dc95760405162461bcd60e51b815260206004820181905260248201527f4d696e746572526f6c653a2043414c4c45525f49535f4e4f545f4d494e5445526044820152606401610894565b6001600160a01b038116610e1f5760405162461bcd60e51b815260206004820152601d60248201527f4d696e746572526f6c653a2052454345495645525f49535f454d5054590000006044820152606401610894565b610e28816120f1565b610e3061104c565b6040516001600160a01b038216903480156108fc02916000818181858888f19350505050158015610996573d6000803e3d6000fd5b610e6d611e43565b6109aa6000612109565b610e7f611e43565b60005b815181101561099657610ebb828281518110610eae57634e487b7160e01b600052603260045260246000fd5b60200260200101516120f1565b80610ec5816134f0565b915050610e82565b610ed861063b611945565b610f245760405162461bcd60e51b815260206004820181905260248201527f4d696e746572526f6c653a2043414c4c45525f49535f4e4f545f4d494e5445526044820152606401610894565b6001600160a01b038116610e285760405162461bcd60e51b815260206004820152601d60248201527f4d696e746572526f6c653a2052454345495645525f49535f454d5054590000006044820152606401610894565b610f82611e43565b6109aa61215b565b8282828080601f016020809104026020016040519081016040528093929190818152602001838380828437600092019190915250610fce92508491508390506117ef565b610fd66109ac565b15610ff35760405162461bcd60e51b815260040161089490613230565b6060611007876108bd886108b88989611954565b50505050505050565b60009182526097602090815260408084206001600160a01b0393909316845291905290205460ff1690565b611043611e43565b610909816120f1565b6109aa60008051602061357b833981519152610346611945565b61106e611e43565b60c954604051632678375f60e21b81526001600160a01b03909116906399e0dd7c906110a090859085906004016131ee565b600060405180830381600087803b1580156110ba57600080fd5b505af11580156110ce573d6000803e3d6000fd5b505060cb546001600160a01b031615915061099690505760cb54604051632678375f60e21b81526001600160a01b03909116906399e0dd7c9061111790859085906004016131ee565b600060405180830381600087803b15801561113157600080fd5b505af11580156108c6573d6000803e3d6000fd5b600061082560008051602061357b83398151915283611010565b604080517f1ec047073e2c8b15660901dbfdb6e3ff6365bd699dd9f95dcc6eab5448bebd6960208201529081018290526000906111b3906060015b6040516020818303038152906040528051906020012090565b5460ff1692915050565b6111c5611e43565b60ce80546001600160a01b0319166001600160a01b0392909216919091179055565b6111ef611e43565b7f893ef2ea16c023f61d4f55d3e6ee3fc3f2fbfd478461323dbc2fbf919047086e80546001600160a01b0319166001600160a01b03831617905550565b611234611e43565b61099682828080601f0160208091040260200160405190810160405280939291908181526020018383808284376000920191909152506121c392505050565b600054610100900460ff16158080156112935750600054600160ff909116105b806112ad5750303b1580156112ad575060005460ff166001145b6113105760405162461bcd60e51b815260206004820152602e60248201527f496e697469616c697a61626c653a20636f6e747261637420697320616c72656160448201526d191e481a5b9a5d1a585b1a5e995960921b6064820152608401610894565b6000805460ff191660011790558015611333576000805461ff0019166101001790555b60c980546001600160a01b03199081166001600160a01b038a81169190911790925560ca8054821689841617905560cb8054821688841617905560cc8054821687841617905560ce80549091169185169190911790556113916122df565b611399612316565b6113a28261234f565b6113aa612376565b604080516101e08101825260066101a082018181526563727970746f60d01b6101c0840152825282518084018452818152651dd85b1b195d60d21b602082810191909152808401919091528351808501855260018152600f60fb1b8183015283850152835180850185526003808252621b999d60ea1b82840152606085019190915284518086018652600a815269313637b1b5b1b430b4b760b11b818401526080850152845180860186526007808252663134ba31b7b4b760c91b8285015260a0860191909152855180870187528281526207070760eb1b8185015260c0860152855180870187528281526264616f60e81b8185015260e086015285518087018752918252621e9a5b60ea1b8284015261010085019190915284518086018652908152663837b63cb3b7b760c91b8183015261012084015283518085018552600b81526a756e73746f707061626c6560a81b81830152610140840152835180850185529182526535b632bb32b960d11b8282015261016083019190915282518084019093526002835261686960f01b9083015261018081019190915260005b600d8110156115915761157f8282600d811061157557634e487b7160e01b600052603260045260246000fd5b60200201516121c3565b80611589816134f0565b915050611549565b50508015611007576000805461ff0019169055604051600181527f7f26b83ff96e1f2b6a682f133852f6798a09c465da95921460cefb38474024989060200160405180910390a150505050505050565b8686868080601f01602080910402602001604051908101604052809392919081815260200183838082843760009201919091525061162592508491508390506117ef565b61162d6109ac565b1561164a5760405162461bcd60e51b815260040161089490613230565b610d108a61165c8b6108b88c8c611954565b611666888a6133a9565b61167087896133a9565b6001611aad565b61167f611e43565b60005b818110156108f35760c9546001600160a01b031663509602398484848181106116bb57634e487b7160e01b600052603260045260246000fd5b90506020020160208101906116d09190612b24565b6040516001600160e01b031960e084901b1681526001600160a01b039091166004820152602401600060405180830381600087803b15801561171157600080fd5b505af1158015611725573d6000803e3d6000fd5b505050508080611734906134f0565b915050611682565b60008281526097602052604090206001015461175781611dab565b6108f38383611ed4565b611769611e43565b611772816123b6565b61178e5760405162461bcd60e51b81526004016108949061325a565b600081815260cd602052604081206117a5916129c9565b60405181907f0aa1aff0f830e739d86baf0e6624d6763da02f7733575e0e463886cd062dea6a90600090a250565b6117db611e43565b6117e4816123dc565b610909600082612452565b6117f8826123b6565b6118145760405162461bcd60e51b81526004016108949061325a565b60006118478260408051808201825260008082526020918201528151808301909252825182529182019181019190915290565b9050600a816000015111156118f057611872611866826000600a61245c565b80516020909101512090565b7fb551e0305c8163b812374b8e78b577c77f226f6f10c5ad03e52699578fbc34b814156118f05760405162461bcd60e51b815260206004820152602660248201527f4d696e74696e674d616e616765723a20544f4b454e5f4c4142454c5f50524f4860448201526512509255115160d21b6064820152608401610894565b6118f98261249b565b6108f35760405162461bcd60e51b815260206004820152601d60248201527f4d696e74696e674d616e616765723a204c4142454c5f494e56414c49440000006044820152606401610894565b600061194f612600565b905090565b60608282604051602001611969929190613024565b604051602081830303815290604052905092915050565b604080516002808252606082810190935260009190816020015b606081526020019060019003908161199a57905050905082816000815181106119d357634e487b7160e01b600052603260045260246000fd5b602002602001018190525060cd600085815260200190815260200160002080546119fc906134b5565b80601f0160208091040260200160405190810160405280929190818152602001828054611a28906134b5565b8015611a755780601f10611a4a57610100808354040283529160200191611a75565b820191906000526020600020905b815481529060010190602001808311611a5857829003601f168201915b505050505081600181518110611a9b57634e487b7160e01b600052603260045260246000fd5b60209081029190910101529392505050565b6000611ab885612001565b5060c954604051634f558e7960e01b8152600481018390529192506001600160a01b031690634f558e799060240160206040518083038186803b158015611afe57600080fd5b505afa158015611b12573d6000803e3d6000fd5b505050506040513d601f19601f82011682018060405250810190611b369190612e00565b8015611bc4575060c9546040516331a9108f60e11b81526004810183905230916001600160a01b031690636352211e9060240160206040518083038186803b158015611b8157600080fd5b505afa158015611b95573d6000803e3d6000fd5b505050506040513d601f19601f82011682018060405250810190611bb99190612b40565b6001600160a01b0316145b15611c3a5760c9546040516384442b5160e01b81526001600160a01b03909116906384442b5190611c0390899085908a908a908a908a90600401613155565b600060405180830381600087803b158015611c1d57600080fd5b505af1158015611c31573d6000803e3d6000fd5b505050506108c6565b611c4381612647565b611c4c856126a6565b8015611c59575084516002145b15611d455760ca5485516001600160a01b039091169063c36c21259088908890600090611c9657634e487b7160e01b600052603260045260246000fd5b602090810291909101015160cc546040516001600160e01b031960e086901b168152611cd09392916001600160a01b031690600401613120565b600060405180830381600087803b158015611cea57600080fd5b505af1158015611cfe573d6000803e3d6000fd5b50505050600084511115611d405760cc54604051633a0deb9d60e21b81526001600160a01b039091169063e837ae7490611c03908790879086906004016131b8565b6108c6565b60c95460405163ba5d40b760e01b81526001600160a01b039091169063ba5d40b790611d7d90899089908990899089906004016130c1565b600060405180830381600087803b158015611d9757600080fd5b505af1158015610d10573d6000803e3d6000fd5b61090981611db7611945565b612700565b611dc68282611010565b6109965760008281526097602090815260408083206001600160a01b03851684529091529020805460ff19166001179055611dff611945565b6001600160a01b0316816001600160a01b0316837f2f8788117e7eff1d82e926ec794901d17c78024a50270940304540a733656f0d60405160405180910390a45050565b611e4b611945565b6001600160a01b0316611e666033546001600160a01b031690565b6001600160a01b0316146109aa5760405162461bcd60e51b815260206004820181905260248201527f4f776e61626c653a2063616c6c6572206973206e6f7420746865206f776e65726044820152606401610894565b61090960008051602061357b8339815191528261173c565b611ede8282611010565b156109965760008281526097602090815260408083206001600160a01b03851684529091529020805460ff19169055611f15611945565b6001600160a01b0316816001600160a01b0316837ff6391f5c32d9c69d2a47ea670b442974b53935d1edc7fd64eb21e047a839171b60405160405180910390a45050565b611f616109ac565b611fa45760405162461bcd60e51b815260206004820152601460248201527314185d5cd8589b194e881393d517d4105554d15160621b6044820152606401610894565b60008051602061355b833981519152805460ff191690557f5db9ee0a495bf2e6ff9c91a7834c1ba4fdd244a5e8aa4e537bd38aeae4b073aa611fe4611945565b6040516001600160a01b03909116815260200160405180910390a1565b805160009081905b8015612036578291506120228285610c6a600185613392565b92508061202e8161349e565b915050612009565b50915091565b60008151600014156120905760405162461bcd60e51b815260206004820152601b60248201527f4d696e74696e674d616e616765723a204c4142454c5f454d50545900000000006044820152606401610894565b82826040516020016120a29190613008565b604051602081830303815290604052805190602001206040516020016120d2929190918252602082015260400190565b60408051601f1981840301815291905280516020909101209392505050565b61090960008051602061357b83398151915282612452565b603380546001600160a01b038381166001600160a01b0319831681179093556040519116919082907f8be0079c531659141344cd1fd0a4f28419497f9722a3daafe3b4186f6b6457e090600090a35050565b6121636109ac565b156121805760405162461bcd60e51b815260040161089490613230565b60008051602061355b833981519152805460ff191660011790557f62e78cea01bee320cd4e420270b5ea74000d11b0c9f74754ebdbfc544b05a258611fe4611945565b60006121d060008361203c565b600081815260cd6020908152604090912084519293506121f4929091850190612a03565b50807f4fce6f6e172b04eaa80325d8e3b0180a34945000f3e214605039e8420fdf898083604051612225919061321d565b60405180910390a260c954604051634f558e7960e01b8152600481018390526001600160a01b0390911690634f558e799060240160206040518083038186803b15801561227157600080fd5b505afa158015612285573d6000803e3d6000fd5b505050506040513d601f19601f820116820180604052508101906122a99190612e00565b6109965760c9546040516307befae360e51b81526001600160a01b039091169063f7df5c609061111790849086906004016132e7565b600054610100900460ff166123065760405162461bcd60e51b81526004016108949061329c565b6109aa612311611945565b612109565b600054610100900460ff1661233d5760405162461bcd60e51b81526004016108949061329c565b6109aa600061234a611945565b612452565b600054610100900460ff166111ef5760405162461bcd60e51b81526004016108949061329c565b600054610100900460ff1661239d5760405162461bcd60e51b81526004016108949061329c565b60008051602061355b833981519152805460ff19169055565b600081815260cd6020526040812080548291906123d2906134b5565b9050119050919050565b6123e4611e43565b6001600160a01b0381166124495760405162461bcd60e51b815260206004820152602660248201527f4f776e61626c653a206e6577206f776e657220697320746865207a65726f206160448201526564647265737360d01b6064820152608401610894565b61090981612109565b6109968282611dbc565b60408051808201909152600080825260208201526040518060400160405280838152602001848660200151612491919061335b565b9052949350505050565b60008151600014156124af57506000919050565b60208201805160f81c603081108015906124cd575060398160ff1611155b1580156124ef575060618160ff16101580156124ed5750607a8160ff1611155b155b156124fe575060009392505050565b8351600181111561256c5761252083612518600184613392565b015160f81c90565b915060308260ff161015801561253a575060398260ff1611155b15801561255c575060618260ff161015801561255a5750607a8260ff1611155b155b1561256c57506000949350505050565b60015b61257a600183613392565b8110156125f4578381015160f81c9250602d83148015906125b0575060308360ff16101580156125ae575060398360ff1611155b155b80156125d1575060618360ff16101580156125cf5750607a8360ff1611155b155b156125e25750600095945050505050565b806125ec816134f0565b91505061256f565b50600195945050505050565b7f893ef2ea16c023f61d4f55d3e6ee3fc3f2fbfd478461323dbc2fbf919047086e546000906001600160a01b0316331415612642575060331936013560601c90565b503390565b6126508161115f565b1561269d5760405162461bcd60e51b815260206004820152601d60248201527f4d696e74696e674d616e616765723a20544f4b454e5f424c4f434b45440000006044820152606401610894565b61090981612764565b6000806126bd60008460018651610c6a9190613392565b60ca549091506001600160a01b0316158015906126f95750807f0f4a10a4f46c288cea365fcf45cccf0e9d901b945b9829ccdb54c10dc3cb7a6f145b9392505050565b61270a8282611010565b61099657612722816001600160a01b031660146127e8565b61272d8360206127e8565b60405160200161273e92919061304c565b60408051601f198184030181529082905262461bcd60e51b82526108949160040161321d565b604080517f1ec047073e2c8b15660901dbfdb6e3ff6365bd699dd9f95dcc6eab5448bebd6960208201529081018290526001906127a39060600161119a565b805460ff19169115159190911790556040518181527f2ce5d9351b1d590d5a066db0d2dc7602d55f092506a83a7ee8c4d78ee357d75a9060200160405180910390a150565b606060006127f7836002613373565b61280290600261335b565b6001600160401b0381111561282757634e487b7160e01b600052604160045260246000fd5b6040519080825280601f01601f191660200182016040528015612851576020820181803683370190505b509050600360fc1b8160008151811061287a57634e487b7160e01b600052603260045260246000fd5b60200101906001600160f81b031916908160001a905350600f60fb1b816001815181106128b757634e487b7160e01b600052603260045260246000fd5b60200101906001600160f81b031916908160001a90535060006128db846002613373565b6128e690600161335b565b90505b600181111561297a576f181899199a1a9b1b9c1cb0b131b232b360811b85600f166010811061292857634e487b7160e01b600052603260045260246000fd5b1a60f81b82828151811061294c57634e487b7160e01b600052603260045260246000fd5b60200101906001600160f81b031916908160001a90535060049490941c936129738161349e565b90506128e9565b5083156126f95760405162461bcd60e51b815260206004820181905260248201527f537472696e67733a20686578206c656e67746820696e73756666696369656e746044820152606401610894565b5080546129d5906134b5565b6000825580601f106129e5575050565b601f0160209004906000526020600020908101906109099190612a87565b828054612a0f906134b5565b90600052602060002090601f016020900481019282612a315760008555612a77565b82601f10612a4a57805160ff1916838001178555612a77565b82800160010185558215612a77579182015b82811115612a77578251825591602001919060010190612a5c565b50612a83929150612a87565b5090565b5b80821115612a835760008155600101612a88565b60008083601f840112612aad578182fd5b5081356001600160401b03811115612ac3578182fd5b6020830191508360208260051b8501011115612ade57600080fd5b9250929050565b60008083601f840112612af6578182fd5b5081356001600160401b03811115612b0c578182fd5b602083019150836020828501011115612ade57600080fd5b600060208284031215612b35578081fd5b81356126f981613537565b600060208284031215612b51578081fd5b81516126f981613537565b60008060008060008060008060a0898b031215612b77578384fd5b8835612b8281613537565b975060208901356001600160401b0380821115612b9d578586fd5b612ba98c838d01612a9c565b909950975060408b0135915080821115612bc1578586fd5b612bcd8c838d01612a9c565b909750955060608b0135915080821115612be5578485fd5b50612bf28b828c01612a9c565b9094509250506080890135612c068161354c565b809150509295985092959890939650565b60008060008060608587031215612c2c578384fd5b8435612c3781613537565b93506020850135925060408501356001600160401b03811115612c58578283fd5b612c6487828801612ae5565b95989497509550505050565b60008060008060008060008060a0898b031215612c8b578182fd5b8835612c9681613537565b97506020890135965060408901356001600160401b0380821115612cb8578384fd5b612cc48c838d01612ae5565b909850965060608b0135915080821115612cdc578384fd5b612ce88c838d01612a9c565b909650945060808b0135915080821115612d00578384fd5b50612d0d8b828c01612a9c565b999c989b5096995094979396929594505050565b60008060208385031215612d33578182fd5b82356001600160401b03811115612d48578283fd5b612d5485828601612a9c565b90969095509350505050565b60006020808385031215612d72578182fd5b82356001600160401b03811115612d87578283fd5b8301601f81018513612d97578283fd5b8035612daa612da582613338565b613308565b80828252848201915084840188868560051b8701011115612dc9578687fd5b8694505b83851015612df4578035612de081613537565b835260019490940193918501918501612dcd565b50979650505050505050565b600060208284031215612e11578081fd5b81516126f98161354c565b600060208284031215612e2d578081fd5b5035919050565b60008060408385031215612e46578182fd5b823591506020830135612e5881613537565b809150509250929050565b600060208284031215612e74578081fd5b81356001600160e01b0319811681146126f9578182fd5b60008060008060008060c08789031215612ea3578384fd5b8635612eae81613537565b95506020870135612ebe81613537565b94506040870135612ece81613537565b93506060870135612ede81613537565b92506080870135612eee81613537565b915060a0870135612efe81613537565b809150509295509295509295565b60008060208385031215612f1e578182fd5b82356001600160401b03811115612f33578283fd5b612d5485828601612ae5565b600080600060408486031215612f53578081fd5b8335925060208401356001600160401b03811115612f6f578182fd5b612f7b86828701612ae5565b9497909650939450505050565b600081518084526020808501808196508360051b81019150828601855b85811015612fcf578284038952612fbd848351612fdc565b98850198935090840190600101612fa5565b5091979650505050505050565b60008151808452612ff481602086016020860161346e565b601f01601f19169290920160200192915050565b6000825161301a81846020870161346e565b9190910192915050565b6b756e732d646576746573742d60a01b81528183600c83013760009101600c01908152919050565b7f416363657373436f6e74726f6c3a206163636f756e742000000000000000000081526000835161308481601785016020880161346e565b7001034b99036b4b9b9b4b733903937b6329607d1b60179184019182015283516130b581602884016020880161346e565b01602801949350505050565b6001600160a01b038616815260a0602082018190526000906130e590830187612f88565b82810360408401526130f78187612f88565b9050828103606084015261310b8186612f88565b91505082151560808301529695505050505050565b600060018060a01b038086168352606060208401526131426060840186612fdc565b9150808416604084015250949350505050565b60018060a01b038716815285602082015260c06040820152600061317c60c0830187612f88565b828103606084015261318e8187612f88565b905082810360808401526131a28186612f88565b91505082151560a0830152979650505050505050565b6060815260006131cb6060830186612f88565b82810360208401526131dd8186612f88565b915050826040830152949350505050565b60208152816020820152818360408301376000818301604090810191909152601f909201601f19160101919050565b6020815260006126f96020830184612fdc565b60208082526010908201526f14185d5cd8589b194e8814105554d15160821b604082015260600190565b60208082526022908201527f4d696e74696e674d616e616765723a20544c445f4e4f545f5245474953544552604082015261115160f21b606082015260800190565b6020808252602b908201527f496e697469616c697a61626c653a20636f6e7472616374206973206e6f74206960408201526a6e697469616c697a696e6760a81b606082015260800190565b8281526040602082015260006133006040830184612fdc565b949350505050565b604051601f8201601f191681016001600160401b038111828210171561333057613330613521565b604052919050565b60006001600160401b0382111561335157613351613521565b5060051b60200190565b6000821982111561336e5761336e61350b565b500190565b600081600019048311821515161561338d5761338d61350b565b500290565b6000828210156133a4576133a461350b565b500390565b60006133b7612da584613338565b808482526020808301925084368760051b870111156133d4578485fd5b845b878110156134625781356001600160401b03808211156133f4578788fd5b90880190601f3681840112613407578889fd5b82358281111561341957613419613521565b61342a818301601f19168801613308565b9250808352368782860101111561343f57898afd5b8087850188850137820186018990525086525093820193908201906001016133d6565b50919695505050505050565b60005b83811015613489578181015183820152602001613471565b83811115613498576000848401525b50505050565b6000816134ad576134ad61350b565b506000190190565b600181811c908216806134c957607f821691505b602082108114156134ea57634e487b7160e01b600052602260045260246000fd5b50919050565b60006000198214156135045761350461350b565b5060010190565b634e487b7160e01b600052601160045260246000fd5b634e487b7160e01b600052604160045260246000fd5b6001600160a01b038116811461090957600080fd5b801515811461090957600080fdfe5496787fc1ebdfeba375028c1865f13fbb1d63c0caa356ccc1b29a80f3ebd6229f2df0fed2c77648de5860a4cc508cd0818c85b8b8a1ab4ceeef8d981c8956a6a164736f6c6343000804000a",
  "linkReferences": {},
  "deployedLinkReferences": {}
}