{
  "_format": "hh-sol-artifact-1",
  "contractName": "MintingManager",
  "sourceName": "contracts/MintingManager.sol",
  "abi": [
    {
      "anonymous": false,
      "inputs": [
        {
          "indexed": false,
          "internalType": "address",
          "name": "previousAdmin",
          "type": "address"
        },
        {
          "indexed": false,
          "internalType": "address",
          "name": "newAdmin",
          "type": "address"
        }
      ],
      "name": "AdminChanged",
      "type": "event"
    },
    {
      "anonymous": false,
      "inputs": [
        {
          "indexed": false,
          "internalType": "uint256",
          "name": "tokenId",
          "type": "uint256"
        }
      ],
      "name": "Blocked",
      "type": "event"
    },
    {
      "anonymous": false,
      "inputs": [
        {
          "indexed": false,
          "internalType": "address",
          "name": "account",
          "type": "address"
        }
      ],
      "name": "BlocklistDisabled",
      "type": "event"
    },
    {
      "anonymous": false,
      "inputs": [
        {
          "indexed": false,
          "internalType": "address",
          "name": "account",
          "type": "address"
        }
      ],
      "name": "BlocklistEnabled",
      "type": "event"
    },
    {
      "anonymous": false,
      "inputs": [
        {
          "indexed": true,
          "internalType": "uint256",
          "name": "tokenId",
          "type": "uint256"
        },
        {
          "indexed": false,
          "internalType": "uint256",
          "name": "price",
          "type": "uint256"
        },
        {
          "indexed": false,
          "internalType": "address",
          "name": "token",
          "type": "address"
        }
      ],
      "name": "DomainPurchase",
      "type": "event"
    },
    {
      "anonymous": false,
      "inputs": [
        {
          "indexed": false,
          "internalType": "uint8",
          "name": "version",
          "type": "uint8"
        }
      ],
      "name": "Initialized",
      "type": "event"
    },
    {
      "anonymous": false,
      "inputs": [
        {
          "indexed": true,
          "internalType": "uint256",
          "name": "tokenId",
          "type": "uint256"
        },
        {
          "indexed": false,
          "internalType": "string",
          "name": "tld",
          "type": "string"
        }
      ],
      "name": "NewTld",
      "type": "event"
    },
    {
      "anonymous": false,
      "inputs": [
        {
          "indexed": true,
          "internalType": "address",
          "name": "previousOwner",
          "type": "address"
        },
        {
          "indexed": true,
          "internalType": "address",
          "name": "newOwner",
          "type": "address"
        }
      ],
      "name": "OwnershipTransferred",
      "type": "event"
    },
    {
      "anonymous": false,
      "inputs": [
        {
          "indexed": false,
          "internalType": "address",
          "name": "account",
          "type": "address"
        }
      ],
      "name": "Paused",
      "type": "event"
    },
    {
      "anonymous": false,
      "inputs": [
        {
          "indexed": true,
          "internalType": "uint256",
          "name": "tokenId",
          "type": "uint256"
        }
      ],
      "name": "RemoveTld",
      "type": "event"
    },
    {
      "anonymous": false,
      "inputs": [
        {
          "indexed": true,
          "internalType": "bytes32",
          "name": "role",
          "type": "bytes32"
        },
        {
          "indexed": true,
          "internalType": "bytes32",
          "name": "previousAdminRole",
          "type": "bytes32"
        },
        {
          "indexed": true,
          "internalType": "bytes32",
          "name": "newAdminRole",
          "type": "bytes32"
        }
      ],
      "name": "RoleAdminChanged",
      "type": "event"
    },
    {
      "anonymous": false,
      "inputs": [
        {
          "indexed": true,
          "internalType": "bytes32",
          "name": "role",
          "type": "bytes32"
        },
        {
          "indexed": true,
          "internalType": "address",
          "name": "account",
          "type": "address"
        },
        {
          "indexed": true,
          "internalType": "address",
          "name": "sender",
          "type": "address"
        }
      ],
      "name": "RoleGranted",
      "type": "event"
    },
    {
      "anonymous": false,
      "inputs": [
        {
          "indexed": true,
          "internalType": "bytes32",
          "name": "role",
          "type": "bytes32"
        },
        {
          "indexed": true,
          "internalType": "address",
          "name": "account",
          "type": "address"
        },
        {
          "indexed": true,
          "internalType": "address",
          "name": "sender",
          "type": "address"
        }
      ],
      "name": "RoleRevoked",
      "type": "event"
    },
    {
      "anonymous": false,
      "inputs": [
        {
          "indexed": false,
          "internalType": "address",
          "name": "account",
          "type": "address"
        }
      ],
      "name": "Unpaused",
      "type": "event"
    },
    {
      "anonymous": false,
      "inputs": [
        {
          "indexed": true,
          "internalType": "address",
          "name": "implementation",
          "type": "address"
        }
      ],
      "name": "Upgraded",
      "type": "event"
    },
    {
      "inputs": [],
      "name": "DEFAULT_ADMIN_ROLE",
      "outputs": [
        {
          "internalType": "bytes32",
          "name": "",
          "type": "bytes32"
        }
      ],
      "stateMutability": "view",
      "type": "function"
    },
    {
      "inputs": [],
      "name": "MINTER_ROLE",
      "outputs": [
        {
          "internalType": "bytes32",
          "name": "",
          "type": "bytes32"
        }
      ],
      "stateMutability": "view",
      "type": "function"
    },
    {
      "inputs": [],
      "name": "NAME",
      "outputs": [
        {
          "internalType": "string",
          "name": "",
          "type": "string"
        }
      ],
      "stateMutability": "view",
      "type": "function"
    },
    {
      "inputs": [],
      "name": "VERSION",
      "outputs": [
        {
          "internalType": "string",
          "name": "",
          "type": "string"
        }
      ],
      "stateMutability": "view",
      "type": "function"
    },
    {
      "inputs": [
        {
          "internalType": "address",
          "name": "account",
          "type": "address"
        }
      ],
      "name": "addMinter",
      "outputs": [],
      "stateMutability": "nonpayable",
      "type": "function"
    },
    {
      "inputs": [
        {
          "internalType": "address[]",
          "name": "accounts",
          "type": "address[]"
        }
      ],
      "name": "addMinters",
      "outputs": [],
      "stateMutability": "nonpayable",
      "type": "function"
    },
    {
      "inputs": [
        {
          "internalType": "address[]",
          "name": "addrs",
          "type": "address[]"
        }
      ],
      "name": "addProxyReaders",
      "outputs": [],
      "stateMutability": "nonpayable",
      "type": "function"
    },
    {
      "inputs": [
        {
          "internalType": "string",
          "name": "tld",
          "type": "string"
        }
      ],
      "name": "addTld",
      "outputs": [],
      "stateMutability": "nonpayable",
      "type": "function"
    },
    {
      "inputs": [
        {
          "internalType": "address",
          "name": "owner",
          "type": "address"
        },
        {
          "internalType": "string[]",
          "name": "labels",
          "type": "string[]"
        },
        {
          "internalType": "string[]",
          "name": "keys",
          "type": "string[]"
        },
        {
          "internalType": "string[]",
          "name": "values",
          "type": "string[]"
        },
        {
          "internalType": "uint64",
          "name": "expiry",
          "type": "uint64"
        },
        {
          "internalType": "uint256",
          "name": "price",
          "type": "uint256"
        },
        {
          "internalType": "bytes",
          "name": "signature",
          "type": "bytes"
        }
      ],
      "name": "buy",
      "outputs": [],
      "stateMutability": "payable",
      "type": "function"
    },
    {
      "inputs": [
        {
          "internalType": "address",
          "name": "owner",
          "type": "address"
        },
        {
          "internalType": "string[]",
          "name": "labels",
          "type": "string[]"
        },
        {
          "internalType": "string[]",
          "name": "keys",
          "type": "string[]"
        },
        {
          "internalType": "string[]",
          "name": "values",
          "type": "string[]"
        },
        {
          "internalType": "uint64",
          "name": "expiry",
          "type": "uint64"
        },
        {
          "internalType": "address",
          "name": "token",
          "type": "address"
        },
        {
          "internalType": "uint256",
          "name": "price",
          "type": "uint256"
        },
        {
          "internalType": "bytes",
          "name": "signature",
          "type": "bytes"
        }
      ],
      "name": "buyForErc20",
      "outputs": [],
      "stateMutability": "nonpayable",
      "type": "function"
    },
    {
      "inputs": [
        {
          "internalType": "uint256",
          "name": "tld",
          "type": "uint256"
        },
        {
          "internalType": "string",
          "name": "label",
          "type": "string"
        }
      ],
      "name": "claim",
      "outputs": [],
      "stateMutability": "nonpayable",
      "type": "function"
    },
    {
      "inputs": [
        {
          "internalType": "address",
          "name": "to",
          "type": "address"
        },
        {
          "internalType": "uint256",
          "name": "tld",
          "type": "uint256"
        },
        {
          "internalType": "string",
          "name": "label",
          "type": "string"
        }
      ],
      "name": "claimTo",
      "outputs": [],
      "stateMutability": "nonpayable",
      "type": "function"
    },
    {
      "inputs": [
        {
          "internalType": "address",
          "name": "to",
          "type": "address"
        },
        {
          "internalType": "uint256",
          "name": "tld",
          "type": "uint256"
        },
        {
          "internalType": "string",
          "name": "label",
          "type": "string"
        },
        {
          "internalType": "string[]",
          "name": "keys",
          "type": "string[]"
        },
        {
          "internalType": "string[]",
          "name": "values",
          "type": "string[]"
        }
      ],
      "name": "claimToWithRecords",
      "outputs": [],
      "stateMutability": "nonpayable",
      "type": "function"
    },
    {
      "inputs": [
        {
          "internalType": "address payable",
          "name": "receiver",
          "type": "address"
        }
      ],
      "name": "closeMinter",
      "outputs": [],
      "stateMutability": "payable",
      "type": "function"
    },
    {
      "inputs": [],
      "name": "cnsMintingController",
      "outputs": [
        {
          "internalType": "contract IMintingController",
          "name": "",
          "type": "address"
        }
      ],
      "stateMutability": "view",
      "type": "function"
    },
    {
      "inputs": [],
      "name": "cnsResolver",
      "outputs": [
        {
          "internalType": "contract IResolver",
          "name": "",
          "type": "address"
        }
      ],
      "stateMutability": "view",
      "type": "function"
    },
    {
      "inputs": [],
      "name": "cnsURIPrefixController",
      "outputs": [
        {
          "internalType": "contract IURIPrefixController",
          "name": "",
          "type": "address"
        }
      ],
      "stateMutability": "view",
      "type": "function"
    },
    {
      "inputs": [
        {
          "internalType": "bytes32",
          "name": "role",
          "type": "bytes32"
        }
      ],
      "name": "getRoleAdmin",
      "outputs": [
        {
          "internalType": "bytes32",
          "name": "",
          "type": "bytes32"
        }
      ],
      "stateMutability": "view",
      "type": "function"
    },
    {
      "inputs": [
        {
          "internalType": "bytes32",
          "name": "role",
          "type": "bytes32"
        },
        {
          "internalType": "address",
          "name": "account",
          "type": "address"
        }
      ],
      "name": "grantRole",
      "outputs": [],
      "stateMutability": "nonpayable",
      "type": "function"
    },
    {
      "inputs": [
        {
          "internalType": "bytes32",
          "name": "role",
          "type": "bytes32"
        },
        {
          "internalType": "address",
          "name": "account",
          "type": "address"
        }
      ],
      "name": "hasRole",
      "outputs": [
        {
          "internalType": "bool",
          "name": "",
          "type": "bool"
        }
      ],
      "stateMutability": "view",
      "type": "function"
    },
    {
      "inputs": [
        {
          "internalType": "contract IUNSRegistry",
          "name": "unsRegistry_",
          "type": "address"
        },
        {
          "internalType": "contract IMintingController",
          "name": "cnsMintingController_",
          "type": "address"
        },
        {
          "internalType": "contract IURIPrefixController",
          "name": "cnsURIPrefixController_",
          "type": "address"
        },
        {
          "internalType": "contract IResolver",
          "name": "cnsResolver_",
          "type": "address"
        },
        {
          "internalType": "address",
          "name": "unsOperator_",
          "type": "address"
        },
        {
          "internalType": "address",
          "name": "forwarder",
          "type": "address"
        }
      ],
      "name": "initialize",
      "outputs": [],
      "stateMutability": "nonpayable",
      "type": "function"
    },
    {
      "inputs": [
        {
          "internalType": "uint256",
          "name": "tokenId",
          "type": "uint256"
        }
      ],
      "name": "isBlocked",
      "outputs": [
        {
          "internalType": "bool",
          "name": "",
          "type": "bool"
        }
      ],
      "stateMutability": "view",
      "type": "function"
    },
    {
      "inputs": [
        {
          "internalType": "address",
          "name": "account",
          "type": "address"
        }
      ],
      "name": "isMinter",
      "outputs": [
        {
          "internalType": "bool",
          "name": "",
          "type": "bool"
        }
      ],
      "stateMutability": "view",
      "type": "function"
    },
    {
      "inputs": [
        {
          "internalType": "address",
          "name": "forwarder",
          "type": "address"
        }
      ],
      "name": "isTrustedForwarder",
      "outputs": [
        {
          "internalType": "bool",
          "name": "",
          "type": "bool"
        }
      ],
      "stateMutability": "view",
      "type": "function"
    },
    {
      "inputs": [
        {
          "internalType": "address",
          "name": "to",
          "type": "address"
        },
        {
          "internalType": "string[]",
          "name": "labels",
          "type": "string[]"
        },
        {
          "internalType": "string[]",
          "name": "keys",
          "type": "string[]"
        },
        {
          "internalType": "string[]",
          "name": "values",
          "type": "string[]"
        },
        {
          "internalType": "bool",
          "name": "withReverse",
          "type": "bool"
        }
      ],
      "name": "issueWithRecords",
      "outputs": [],
      "stateMutability": "nonpayable",
      "type": "function"
    },
    {
      "inputs": [],
      "name": "owner",
      "outputs": [
        {
          "internalType": "address",
          "name": "",
          "type": "address"
        }
      ],
      "stateMutability": "view",
      "type": "function"
    },
    {
      "inputs": [],
      "name": "pause",
      "outputs": [],
      "stateMutability": "nonpayable",
      "type": "function"
    },
    {
      "inputs": [],
      "name": "paused",
      "outputs": [
        {
          "internalType": "bool",
          "name": "",
          "type": "bool"
        }
      ],
      "stateMutability": "view",
      "type": "function"
    },
    {
      "inputs": [
        {
          "internalType": "address",
          "name": "account",
          "type": "address"
        }
      ],
      "name": "removeMinter",
      "outputs": [],
      "stateMutability": "nonpayable",
      "type": "function"
    },
    {
      "inputs": [
        {
          "internalType": "address[]",
          "name": "accounts",
          "type": "address[]"
        }
      ],
      "name": "removeMinters",
      "outputs": [],
      "stateMutability": "nonpayable",
      "type": "function"
    },
    {
      "inputs": [
        {
          "internalType": "uint256",
          "name": "tld",
          "type": "uint256"
        }
      ],
      "name": "removeTld",
      "outputs": [],
      "stateMutability": "nonpayable",
      "type": "function"
    },
    {
      "inputs": [],
      "name": "renounceMinter",
      "outputs": [],
      "stateMutability": "nonpayable",
      "type": "function"
    },
    {
      "inputs": [],
      "name": "renounceOwnership",
      "outputs": [],
      "stateMutability": "nonpayable",
      "type": "function"
    },
    {
      "inputs": [
        {
          "internalType": "bytes32",
          "name": "role",
          "type": "bytes32"
        },
        {
          "internalType": "address",
          "name": "account",
          "type": "address"
        }
      ],
      "name": "renounceRole",
      "outputs": [],
      "stateMutability": "nonpayable",
      "type": "function"
    },
    {
      "inputs": [
        {
          "internalType": "bytes32",
          "name": "role",
          "type": "bytes32"
        },
        {
          "internalType": "address",
          "name": "account",
          "type": "address"
        }
      ],
      "name": "revokeRole",
      "outputs": [],
      "stateMutability": "nonpayable",
      "type": "function"
    },
    {
      "inputs": [
        {
          "internalType": "address payable",
          "name": "receiver",
          "type": "address"
        }
      ],
      "name": "rotateMinter",
      "outputs": [],
      "stateMutability": "payable",
      "type": "function"
    },
    {
      "inputs": [
        {
          "internalType": "address",
          "name": "forwarder",
          "type": "address"
        }
      ],
      "name": "setForwarder",
      "outputs": [],
      "stateMutability": "nonpayable",
      "type": "function"
    },
    {
      "inputs": [
        {
          "internalType": "address",
          "name": "operator",
          "type": "address"
        }
      ],
      "name": "setOperator",
      "outputs": [],
      "stateMutability": "nonpayable",
      "type": "function"
    },
    {
      "inputs": [
        {
          "internalType": "string",
          "name": "prefix",
          "type": "string"
        }
      ],
      "name": "setTokenURIPrefix",
      "outputs": [],
      "stateMutability": "nonpayable",
      "type": "function"
    },
    {
      "inputs": [
        {
          "internalType": "bytes4",
          "name": "interfaceId",
          "type": "bytes4"
        }
      ],
      "name": "supportsInterface",
      "outputs": [
        {
          "internalType": "bool",
          "name": "",
          "type": "bool"
        }
      ],
      "stateMutability": "view",
      "type": "function"
    },
    {
      "inputs": [
        {
          "internalType": "address",
          "name": "newOwner",
          "type": "address"
        }
      ],
      "name": "transferOwnership",
      "outputs": [],
      "stateMutability": "nonpayable",
      "type": "function"
    },
    {
      "inputs": [],
      "name": "unpause",
      "outputs": [],
      "stateMutability": "nonpayable",
      "type": "function"
    },
    {
      "inputs": [],
      "name": "unsOperator",
      "outputs": [
        {
          "internalType": "address",
          "name": "",
          "type": "address"
        }
      ],
      "stateMutability": "view",
      "type": "function"
    },
    {
      "inputs": [],
      "name": "unsRegistry",
      "outputs": [
        {
          "internalType": "contract IUNSRegistry",
          "name": "",
          "type": "address"
        }
      ],
      "stateMutability": "view",
      "type": "function"
    },
    {
      "inputs": [
        {
          "internalType": "address",
          "name": "recepient",
          "type": "address"
        }
      ],
      "name": "withdraw",
      "outputs": [],
      "stateMutability": "nonpayable",
      "type": "function"
    },
    {
      "inputs": [
        {
          "internalType": "address",
          "name": "token",
          "type": "address"
        },
        {
          "internalType": "address",
          "name": "recepient",
          "type": "address"
        }
      ],
      "name": "withdraw",
      "outputs": [],
      "stateMutability": "nonpayable",
      "type": "function"
    }
  ],
  "bytecode": "0x608060405234801561001057600080fd5b50614403806100206000396000f3fe60806040526004361061027d5760003560e01c8063983b2d561161014f578063cc2a9a5b116100c1578063d7db74c71161007a578063d7db74c7146107ce578063ec527389146107e1578063f2fde38b14610801578063f5243bc414610821578063f940e38514610841578063ffa1ad741461086157600080fd5b8063cc2a9a5b1461070c578063cc2c3fc41461072c578063ceeb4f501461074c578063d1f5692c1461076c578063d53913931461078c578063d547741f146107ae57600080fd5b8063a849d65c11610113578063a849d65c1461064c578063aa271e1a1461066c578063b0aa98c71461068c578063b3ab15fb146106ac578063b9998a24146106cc578063c3a3bc00146106ec57600080fd5b8063983b2d561461059557806398650275146105b557806399e0dd7c146105ca578063a217fddf146105ea578063a3f4df7e146105ff57600080fd5b80635c975abb116101f357806377a2a589116101ac57806377a2a589146104ef57806381c81d351461050f5780638456cb59146105225780638da5cb5b14610537578063906cecc11461055557806391d148541461057557600080fd5b80635c975abb146104525780635cd7e3b3146104675780635fc1964f14610487578063634486da146104a7578063715018a6146104ba57806371e2a657146104cf57600080fd5b806336568abe1161024557806336568abe146103575780633f41b614146103775780633f4ba83a146103af57806351cff8d9146103c4578063572b6c05146103e45780635b6fa8db1461043257600080fd5b806301ffc9a714610282578063248a9ca3146102b7578063268b15ed146102f55780632f2ff15d146103175780633092afd514610337575b600080fd5b34801561028e57600080fd5b506102a261029d36600461352b565b610893565b60405190151581526020015b60405180910390f35b3480156102c357600080fd5b506102e76102d2366004613555565b60009081526097602052604090206001015490565b6040519081526020016102ae565b34801561030157600080fd5b506103156103103660046135af565b6108ca565b005b34801561032357600080fd5b5061031561033236600461361f565b61096d565b34801561034357600080fd5b5061031561035236600461364f565b610997565b34801561036357600080fd5b5061031561037236600461361f565b6109ab565b34801561038357600080fd5b5060c954610397906001600160a01b031681565b6040516001600160a01b0390911681526020016102ae565b3480156103bb57600080fd5b50610315610a39565b3480156103d057600080fd5b506103156103df36600461364f565b610a4b565b3480156103f057600080fd5b506102a26103ff36600461364f565b7f893ef2ea16c023f61d4f55d3e6ee3fc3f2fbfd478461323dbc2fbf919047086e546001600160a01b0390811691161490565b34801561043e57600080fd5b5060cc54610397906001600160a01b031681565b34801561045e57600080fd5b506102a2610a88565b34801561047357600080fd5b506103156104823660046136be565b610a9e565b34801561049357600080fd5b506103156104a23660046137e6565b610d7f565b6103156104b536600461364f565b610dc7565b3480156104c657600080fd5b50610315610eba565b3480156104db57600080fd5b506103156104ea3660046137e6565b610ecc565b3480156104fb57600080fd5b5060ce54610397906001600160a01b031681565b61031561051d36600461364f565b610f14565b34801561052e57600080fd5b50610315610fc1565b34801561054357600080fd5b506033546001600160a01b0316610397565b34801561056157600080fd5b50610315610570366004613884565b610fd1565b34801561058157600080fd5b506102a261059036600461361f565b611057565b3480156105a157600080fd5b506103156105b036600461364f565b611082565b3480156105c157600080fd5b50610315611093565b3480156105d657600080fd5b506103156105e53660046138df565b6110ad565b3480156105f657600080fd5b506102e7600081565b34801561060b57600080fd5b5061063f604051806040016040528060148152602001732aa7299d1026b4b73a34b7339026b0b730b3b2b960611b81525081565b6040516102ae9190613970565b34801561065857600080fd5b5060cb54610397906001600160a01b031681565b34801561067857600080fd5b506102a261068736600461364f565b61118c565b34801561069857600080fd5b506102a26106a7366004613555565b6111a6565b3480156106b857600080fd5b506103156106c736600461364f565b611204565b3480156106d857600080fd5b506103156106e736600461364f565b61122e565b3480156106f857600080fd5b506103156107073660046138df565b611273565b34801561071857600080fd5b50610315610727366004613983565b6112ba565b34801561073857600080fd5b5060ca54610397906001600160a01b031681565b34801561075857600080fd5b50610315610767366004613a05565b6116d4565b34801561077857600080fd5b50610315610787366004613aba565b61176a565b34801561079857600080fd5b506102e76000805160206143d783398151915281565b3480156107ba57600080fd5b506103156107c936600461361f565b611821565b6103156107dc366004613b06565b611846565b3480156107ed57600080fd5b506103156107fc366004613555565b611a35565b34801561080d57600080fd5b5061031561081c36600461364f565b611aa7565b34801561082d57600080fd5b5061031561083c366004613bfb565b611ac3565b34801561084d57600080fd5b5061031561085c366004613d13565b611cea565b34801561086d57600080fd5b5061063f60405180604001604052806006815260200165302e342e313760d01b81525081565b60006001600160e01b03198216637965db0b60e01b14806108c457506301ffc9a760e01b6001600160e01b03198316145b92915050565b8282828080601f01602080910402602001604051908101604052809392919081815260200183838082843760009201919091525061090e9250849150839050611e17565b610916610a88565b1561093c5760405162461bcd60e51b815260040161093390613d41565b60405180910390fd5b6060610965610949611f6c565b61095c886109578989611f7b565b611fa7565b838460016120b8565b505050505050565b60008281526097602052604090206001015461098881612488565b6109928383612499565b505050565b61099f612520565b6109a881612599565b50565b6109b3611f6c565b6001600160a01b0316816001600160a01b031614610a2b5760405162461bcd60e51b815260206004820152602f60248201527f416363657373436f6e74726f6c3a2063616e206f6e6c792072656e6f756e636560448201526e103937b632b9903337b91039b2b63360891b6064820152608401610933565b610a3582826125b1565b5050565b610a41612520565b610a49612636565b565b610a53612520565b6040516001600160a01b038216904780156108fc02916000818181858888f19350505050158015610a35573d6000803e3d6000fd5b6000805160206143b78339815191525460ff1690565b610aa88688613d6b565b8051600203610b1957610abc610687611f6c565b610b145760405162461bcd60e51b8152602060048201526024808201527f4d696e74696e674d616e616765723a2043414c4c45525f49535f4e4f545f4d49604482015263272a22a960e11b6064820152608401610933565b610ca6565b6000610b24826126de565b60c9549092506001600160a01b0316905063430c2081610b42611f6c565b6040516001600160e01b031960e084901b1681526001600160a01b03909116600482015260248101849052604401602060405180830381865afa158015610b8d573d6000803e3d6000fd5b505050506040513d601f19601f82011682018060405250810190610bb19190613e35565b80610c40575060c95460ce5460405163430c208160e01b81526001600160a01b0391821660048201526024810184905291169063430c208190604401602060405180830381865afa158015610c0a573d6000803e3d6000fd5b505050506040513d601f19601f82011682018060405250810190610c2e9190613e35565b8015610c405750610c40610687611f6c565b610ca45760405162461bcd60e51b815260206004820152602f60248201527f4d696e74696e674d616e616765723a2053454e4445525f49535f4e4f545f415060448201526e282927ab22a22fa7a92fa7aba722a960891b6064820152608401610933565b505b610cb08789613d6b565b600281511015610cd25760405162461bcd60e51b815260040161093390613e52565b610d26610d0660008360018551610ce99190613ead565b81518110610cf957610cf9613ec0565b6020026020010151612719565b82600081518110610d1957610d19613ec0565b6020026020010151611e17565b610d2e610a88565b15610d4b5760405162461bcd60e51b815260040161093390613d41565b610d738a610d598a8c613d6b565b610d63898b613d6b565b610d6d888a613d6b565b876120b8565b50505050505050505050565b610d87612520565b60005b8151811015610a3557610db5828281518110610da857610da8613ec0565b6020026020010151612599565b80610dbf81613ed6565b915050610d8a565b610dd2610687611f6c565b610e1e5760405162461bcd60e51b815260206004820181905260248201527f4d696e746572526f6c653a2043414c4c45525f49535f4e4f545f4d494e5445526044820152606401610933565b6001600160a01b038116610e745760405162461bcd60e51b815260206004820152601d60248201527f4d696e746572526f6c653a2052454345495645525f49535f454d5054590000006044820152606401610933565b610e7d816127cd565b610e85611093565b6040516001600160a01b038216903480156108fc02916000818181858888f19350505050158015610a35573d6000803e3d6000fd5b610ec2612520565b610a4960006127e5565b610ed4612520565b60005b8151811015610a3557610f02828281518110610ef557610ef5613ec0565b60200260200101516127cd565b80610f0c81613ed6565b915050610ed7565b610f1f610687611f6c565b610f6b5760405162461bcd60e51b815260206004820181905260248201527f4d696e746572526f6c653a2043414c4c45525f49535f4e4f545f4d494e5445526044820152606401610933565b6001600160a01b038116610e7d5760405162461bcd60e51b815260206004820152601d60248201527f4d696e746572526f6c653a2052454345495645525f49535f454d5054590000006044820152606401610933565b610fc9612520565b610a49612837565b8282828080601f0160208091040260200160405190810160405280939291908181526020018383808284376000920191909152506110159250849150839050611e17565b61101d610a88565b1561103a5760405162461bcd60e51b815260040161093390613d41565b606061104e8761095c886109578989611f7b565b50505050505050565b60009182526097602090815260408084206001600160a01b0393909316845291905290205460ff1690565b61108a612520565b6109a8816127cd565b610a496000805160206143d7833981519152610372611f6c565b6110b5612520565b60c954604051632678375f60e21b81526001600160a01b03909116906399e0dd7c906110e79085908590600401613eef565b600060405180830381600087803b15801561110157600080fd5b505af1158015611115573d6000803e3d6000fd5b505060cb546001600160a01b0316159150610a3590505760cb54604051632678375f60e21b81526001600160a01b03909116906399e0dd7c9061115e9085908590600401613eef565b600060405180830381600087803b15801561117857600080fd5b505af1158015610965573d6000803e3d6000fd5b60006108c46000805160206143d783398151915283611057565b604080517f1ec047073e2c8b15660901dbfdb6e3ff6365bd699dd9f95dcc6eab5448bebd6960208201529081018290526000906111fa906060015b6040516020818303038152906040528051906020012090565b5460ff1692915050565b61120c612520565b60ce80546001600160a01b0319166001600160a01b0392909216919091179055565b611236612520565b7f893ef2ea16c023f61d4f55d3e6ee3fc3f2fbfd478461323dbc2fbf919047086e80546001600160a01b0319166001600160a01b03831617905550565b61127b612520565b610a3582828080601f01602080910402602001604051908101604052809392919081815260200183838082843760009201919091525061289f92505050565b600054610100900460ff16158080156112da5750600054600160ff909116105b806112f45750303b1580156112f4575060005460ff166001145b6113575760405162461bcd60e51b815260206004820152602e60248201527f496e697469616c697a61626c653a20636f6e747261637420697320616c72656160448201526d191e481a5b9a5d1a585b1a5e995960921b6064820152608401610933565b6000805460ff19166001179055801561137a576000805461ff0019166101001790555b60c980546001600160a01b03199081166001600160a01b038a81169190911790925560ca8054821689841617905560cb8054821688841617905560cc8054821687841617905560ce80549091169185169190911790556113d86129a3565b6113e06129da565b6113e982612a13565b6113f1612a3a565b604080516102a081018252600661026082018181526563727970746f60d01b610280840152825282518084018452818152651dd85b1b195d60d21b602082810191909152808401919091528351808501855260018152600f60fb1b8183015283850152835180850185526003808252621b999d60ea1b82840152606085019190915284518086018652600a815269313637b1b5b1b430b4b760b11b818401526080850152845180860186526007808252663134ba31b7b4b760c91b8285015260a0860191909152855180870187528281526207070760eb1b8185015260c0860152855180870187528281526264616f60e81b8185015260e086015285518087018752918252621e9a5b60ea1b8284015261010085019190915284518086018652908152663837b63cb3b7b760c91b8183015261012084015283518085018552600b81526a756e73746f707061626c6560a81b81830152610140840152835180850185528281526535b632bb32b960d11b8183015261016084015283518085018552600280825261686960f01b8284015261018085019190915284518086018652928352656b726573757360d01b838301526101a084019290925283518085018552600580825264616e696d6560d81b828401526101c085019190915284518086018652818152646d616e676160d81b818401526101e085015284518086018652600981526862696e616e6365757360b81b8184015261020085015284518086018652908152647265616c6d60d81b81830152610220840152835180850190945290835261676f60f01b9083015261024081019190915260005b60138110156116845761167282826013811061166857611668613ec0565b602002015161289f565b8061167c81613ed6565b91505061164a565b5050801561104e576000805461ff0019169055604051600181527f7f26b83ff96e1f2b6a682f133852f6798a09c465da95921460cefb38474024989060200160405180910390a150505050505050565b8686868080601f0160208091040260200160405190810160405280939291908181526020018383808284376000920191909152506117189250849150839050611e17565b611720610a88565b1561173d5760405162461bcd60e51b815260040161093390613d41565b610d738a61174f8b6109578c8c611f7b565b611759888a613d6b565b6117638789613d6b565b60016120b8565b611772612520565b60005b818110156109925760c9546001600160a01b031663509602398484848181106117a0576117a0613ec0565b90506020020160208101906117b5919061364f565b6040516001600160e01b031960e084901b1681526001600160a01b039091166004820152602401600060405180830381600087803b1580156117f657600080fd5b505af115801561180a573d6000803e3d6000fd5b50505050808061181990613ed6565b915050611775565b60008281526097602052604090206001015461183c81612488565b61099283836125b1565b611850898b613d6b565b6002815110156118725760405162461bcd60e51b815260040161093390613e52565b611889610d0660008360018551610ce99190613ead565b611891610a88565b156118ae5760405162461bcd60e51b815260040161093390613d41565b60028a146118ce5760405162461bcd60e51b815260040161093390613f1e565b60006118e26118dd8c8e613d6b565b6126de565b50905061192a8d828888600089898080601f016020809104026020016040519081016040528093929190818152602001838380828437600092019190915250612a7a92505050565b8434101561197a5760405162461bcd60e51b815260206004820181905260248201527f4d696e74696e674d616e616765723a204e4f545f454e4f5547485f46554e44536044820152606401610933565b61199c8d6119888d8f613d6b565b6119928c8e613d6b565b6117638b8d613d6b565b604080518681526000602082015282917eeb0f6577f12bc439c487cc8ddd16a9d2da7bd33541821dfdc09a9b2750135b910160405180910390a284341115611a26576119e6611f6c565b6001600160a01b03166108fc6119fc8734613ead565b6040518115909202916000818181858888f19350505050158015611a24573d6000803e3d6000fd5b505b50505050505050505050505050565b611a3d612520565b611a4681612c06565b611a625760405162461bcd60e51b815260040161093390613f64565b600081815260cd60205260408120611a79916134dd565b60405181907f0aa1aff0f830e739d86baf0e6624d6763da02f7733575e0e463886cd062dea6a90600090a250565b611aaf612520565b611ab881612c2c565b6109a8600082612ca2565b611acd8a8c613d6b565b600281511015611aef5760405162461bcd60e51b815260040161093390613e52565b611b06610d0660008360018551610ce99190613ead565b611b0e610a88565b15611b2b5760405162461bcd60e51b815260040161093390613d41565b60028b14611b4b5760405162461bcd60e51b815260040161093390613f1e565b6000611b5a6118dd8d8f613d6b565b509050611ba18e8289888a89898080601f016020809104026020016040519081016040528093929190818152602001838380828437600092019190915250612a7a92505050565b856001600160a01b03166323b872dd611bb8611f6c565b6040516001600160e01b031960e084901b1681526001600160a01b039091166004820152306024820152604481018890526064016020604051808303816000875af1158015611c0b573d6000803e3d6000fd5b505050506040513d601f19601f82011682018060405250810190611c2f9190613e35565b611c735760405162461bcd60e51b8152602060048201526015602482015274115490cc8c0e881313d5d7d31155915317d1905253605a1b6044820152606401610933565b611c988e8e8e90611c849190613d6b565b611c8e8d8f613d6b565b6117638c8e613d6b565b604080518681526001600160a01b038816602082015282917eeb0f6577f12bc439c487cc8ddd16a9d2da7bd33541821dfdc09a9b2750135b910160405180910390a25050505050505050505050505050565b611cf2612520565b6040516370a0823160e01b81523060048201526001600160a01b0383169063a9059cbb90839083906370a0823190602401602060405180830381865afa158015611d40573d6000803e3d6000fd5b505050506040513d601f19601f82011682018060405250810190611d649190613fa6565b6040516001600160e01b031960e085901b1681526001600160a01b03909216600483015260248201526044016020604051808303816000875af1158015611daf573d6000803e3d6000fd5b505050506040513d601f19601f82011682018060405250810190611dd39190613e35565b610a355760405162461bcd60e51b8152602060048201526015602482015274115490cc8c0e881313d5d7d31155915317d1905253605a1b6044820152606401610933565b611e2082612c06565b611e3c5760405162461bcd60e51b815260040161093390613f64565b6000611e6f8260408051808201825260008082526020918201528151808301909252825182529182019181019190915290565b9050600a81600001511115611f1757611e9a611e8e826000600a612cac565b80516020909101512090565b7fb551e0305c8163b812374b8e78b577c77f226f6f10c5ad03e52699578fbc34b803611f175760405162461bcd60e51b815260206004820152602660248201527f4d696e74696e674d616e616765723a20544f4b454e5f4c4142454c5f50524f4860448201526512509255115160d21b6064820152608401610933565b611f2082612ceb565b6109925760405162461bcd60e51b815260206004820152601d60248201527f4d696e74696e674d616e616765723a204c4142454c5f494e56414c49440000006044820152606401610933565b6000611f76612e4f565b905090565b60608282604051602001611f90929190613fbf565b604051602081830303815290604052905092915050565b604080516002808252606082810190935260009190816020015b6060815260200190600190039081611fc15790505090508281600081518110611fec57611fec613ec0565b602002602001018190525060cd6000858152602001908152602001600020805461201590613fe7565b80601f016020809104026020016040519081016040528092919081815260200182805461204190613fe7565b801561208e5780601f106120635761010080835404028352916020019161208e565b820191906000526020600020905b81548152906001019060200180831161207157829003601f168201915b5050505050816001815181106120a6576120a6613ec0565b60209081029190910101529392505050565b6000806120c4866126de565b915091508280156120d6575060028651115b8015612158575060c9546040516331a9108f60e11b8152600481018390526001600160a01b03898116921690636352211e90602401602060405180830381865afa158015612128573d6000803e3d6000fd5b505050506040513d601f19601f8201168201806040525081019061214c9190614021565b6001600160a01b031614155b156121b85760405162461bcd60e51b815260206004820152602a60248201527f4d696e74696e674d616e616765723a20524556455253455f5245434f52445f4e60448201526913d517d0531313d5d15160b21b6064820152608401610933565b60c954604051634f558e7960e01b8152600481018490526001600160a01b0390911690634f558e7990602401602060405180830381865afa158015612201573d6000803e3d6000fd5b505050506040513d601f19601f820116820180604052508101906122259190613e35565b80156122a4575060c9546040516331a9108f60e11b81526004810184905230916001600160a01b031690636352211e90602401602060405180830381865afa158015612275573d6000803e3d6000fd5b505050506040513d601f19601f820116820180604052508101906122999190614021565b6001600160a01b0316145b156123185760c954604051630fb8df0360e11b81526001600160a01b0390911690631f71be06906122e1908a908a908a908a908a90600401614093565b600060405180830381600087803b1580156122fb57600080fd5b505af115801561230f573d6000803e3d6000fd5b5050505061104e565b61232182612e95565b61232a86612ef4565b8015612337575085516002145b156124155760ca5486516001600160a01b039091169063c36c2125908990899060009061236657612366613ec0565b602090810291909101015160cc546040516001600160e01b031960e086901b1681526123a09392916001600160a01b0316906004016140f2565b600060405180830381600087803b1580156123ba57600080fd5b505af11580156123ce573d6000803e3d6000fd5b505050506000855111156124105760cc54604051633a0deb9d60e21b81526001600160a01b039091169063e837ae74906122e190889088908790600401614127565b61104e565b60c95460405163ba5d40b760e01b81526001600160a01b039091169063ba5d40b79061244d908a908a908a908a908a90600401614093565b600060405180830381600087803b15801561246757600080fd5b505af115801561247b573d6000803e3d6000fd5b5050505050505050505050565b6109a881612494611f6c565b612f4e565b6124a38282611057565b610a355760008281526097602090815260408083206001600160a01b03851684529091529020805460ff191660011790556124dc611f6c565b6001600160a01b0316816001600160a01b0316837f2f8788117e7eff1d82e926ec794901d17c78024a50270940304540a733656f0d60405160405180910390a45050565b612528611f6c565b6001600160a01b03166125436033546001600160a01b031690565b6001600160a01b031614610a495760405162461bcd60e51b815260206004820181905260248201527f4f776e61626c653a2063616c6c6572206973206e6f7420746865206f776e65726044820152606401610933565b6109a86000805160206143d783398151915282611821565b6125bb8282611057565b15610a355760008281526097602090815260408083206001600160a01b03851684529091529020805460ff191690556125f2611f6c565b6001600160a01b0316816001600160a01b0316837ff6391f5c32d9c69d2a47ea670b442974b53935d1edc7fd64eb21e047a839171b60405160405180910390a45050565b61263e610a88565b6126815760405162461bcd60e51b815260206004820152601460248201527314185d5cd8589b194e881393d517d4105554d15160621b6044820152606401610933565b6000805160206143b7833981519152805460ff191690557f5db9ee0a495bf2e6ff9c91a7834c1ba4fdd244a5e8aa4e537bd38aeae4b073aa6126c1611f6c565b6040516001600160a01b03909116815260200160405180910390a1565b805160009081905b8015612713578291506126ff8285610ce9600185613ead565b92508061270b8161415d565b9150506126e6565b50915091565b6000815160000361276c5760405162461bcd60e51b815260206004820152601b60248201527f4d696e74696e674d616e616765723a204c4142454c5f454d50545900000000006044820152606401610933565b828260405160200161277e9190614174565b604051602081830303815290604052805190602001206040516020016127ae929190918252602082015260400190565b60408051601f1981840301815291905280516020909101209392505050565b6109a86000805160206143d783398151915282612ca2565b603380546001600160a01b038381166001600160a01b0319831681179093556040519116919082907f8be0079c531659141344cd1fd0a4f28419497f9722a3daafe3b4186f6b6457e090600090a35050565b61283f610a88565b1561285c5760405162461bcd60e51b815260040161093390613d41565b6000805160206143b7833981519152805460ff191660011790557f62e78cea01bee320cd4e420270b5ea74000d11b0c9f74754ebdbfc544b05a2586126c1611f6c565b60006128ac600083612719565b600081815260cd602052604090209091506128c783826141d6565b50807f4fce6f6e172b04eaa80325d8e3b0180a34945000f3e214605039e8420fdf8980836040516128f89190613970565b60405180910390a260c954604051634f558e7960e01b8152600481018390526001600160a01b0390911690634f558e7990602401602060405180830381865afa158015612949573d6000803e3d6000fd5b505050506040513d601f19601f8201168201806040525081019061296d9190613e35565b610a355760c9546040516307befae360e51b81526001600160a01b039091169063f7df5c609061115e9084908690600401614295565b600054610100900460ff166129ca5760405162461bcd60e51b8152600401610933906142b6565b610a496129d5611f6c565b6127e5565b600054610100900460ff16612a015760405162461bcd60e51b8152600401610933906142b6565b610a496000612a0e611f6c565b612ca2565b600054610100900460ff166112365760405162461bcd60e51b8152600401610933906142b6565b600054610100900460ff16612a615760405162461bcd60e51b8152600401610933906142b6565b6000805160206143b7833981519152805460ff19169055565b6040516bffffffffffffffffffffffff19606088811b82166020840152603483018890526001600160c01b031960c088901b166054840152605c830186905284901b16607c820152600090612b41908390612b3b90609001604051602081830303815290604052805190602001206040517f19457468657265756d205369676e6564204d6573736167653a0a3332000000006020820152603c8101829052600090605c01604051602081830303815290604052805190602001209050919050565b90612fb2565b9050612b4c8161118c565b612ba45760405162461bcd60e51b8152602060048201526024808201527f4d696e74696e674d616e616765723a205349474e45525f49535f4e4f545f4d49604482015263272a22a960e11b6064820152608401610933565b42856001600160401b03161161104e5760405162461bcd60e51b815260206004820152602160248201527f4d696e74696e674d616e616765723a20455850495245445f5349474e415455526044820152604560f81b6064820152608401610933565b600081815260cd602052604081208054829190612c2290613fe7565b9050119050919050565b612c34612520565b6001600160a01b038116612c995760405162461bcd60e51b815260206004820152602660248201527f4f776e61626c653a206e6577206f776e657220697320746865207a65726f206160448201526564647265737360d01b6064820152608401610933565b6109a8816127e5565b610a358282612499565b60408051808201909152600080825260208201526040518060400160405280838152602001848660200151612ce19190614301565b9052949350505050565b60008151600003612cfe57506000919050565b60208201805160f81c60308110801590612d1c575060398160ff1611155b158015612d3e575060618160ff1610158015612d3c5750607a8160ff1611155b155b15612d4d575060009392505050565b83516001811115612dbb57612d6f83612d67600184613ead565b015160f81c90565b915060308260ff1610158015612d89575060398260ff1611155b158015612dab575060618260ff1610158015612da95750607a8260ff1611155b155b15612dbb57506000949350505050565b60015b612dc9600183613ead565b811015612e43578381015160f81c9250602d8314801590612dff575060308360ff1610158015612dfd575060398360ff1611155b155b8015612e20575060618360ff1610158015612e1e5750607a8360ff1611155b155b15612e315750600095945050505050565b80612e3b81613ed6565b915050612dbe565b50600195945050505050565b7f893ef2ea16c023f61d4f55d3e6ee3fc3f2fbfd478461323dbc2fbf919047086e546000906001600160a01b03163303612e90575060331936013560601c90565b503390565b612e9e816111a6565b15612eeb5760405162461bcd60e51b815260206004820152601d60248201527f4d696e74696e674d616e616765723a20544f4b454e5f424c4f434b45440000006044820152606401610933565b6109a881612fd6565b600080612f0b60008460018651610ce99190613ead565b60ca549091506001600160a01b031615801590612f475750807f0f4a10a4f46c288cea365fcf45cccf0e9d901b945b9829ccdb54c10dc3cb7a6f145b9392505050565b612f588282611057565b610a3557612f70816001600160a01b0316601461305a565b612f7b83602061305a565b604051602001612f8c929190614314565b60408051601f198184030181529082905262461bcd60e51b825261093391600401613970565b6000806000612fc185856131f5565b91509150612fce8161323a565b509392505050565b604080517f1ec047073e2c8b15660901dbfdb6e3ff6365bd699dd9f95dcc6eab5448bebd696020820152908101829052600190613015906060016111e1565b805460ff19169115159190911790556040518181527f2ce5d9351b1d590d5a066db0d2dc7602d55f092506a83a7ee8c4d78ee357d75a9060200160405180910390a150565b60606000613069836002614389565b613074906002614301565b6001600160401b0381111561308b5761308b61377d565b6040519080825280601f01601f1916602001820160405280156130b5576020820181803683370190505b509050600360fc1b816000815181106130d0576130d0613ec0565b60200101906001600160f81b031916908160001a905350600f60fb1b816001815181106130ff576130ff613ec0565b60200101906001600160f81b031916908160001a9053506000613123846002614389565b61312e906001614301565b90505b60018111156131a6576f181899199a1a9b1b9c1cb0b131b232b360811b85600f166010811061316257613162613ec0565b1a60f81b82828151811061317857613178613ec0565b60200101906001600160f81b031916908160001a90535060049490941c9361319f8161415d565b9050613131565b508315612f475760405162461bcd60e51b815260206004820181905260248201527f537472696e67733a20686578206c656e67746820696e73756666696369656e746044820152606401610933565b600080825160410361322b5760208301516040840151606085015160001a61321f878285856133f0565b94509450505050613233565b506000905060025b9250929050565b600081600481111561324e5761324e6143a0565b036132565750565b600181600481111561326a5761326a6143a0565b036132b75760405162461bcd60e51b815260206004820152601860248201527f45434453413a20696e76616c6964207369676e617475726500000000000000006044820152606401610933565b60028160048111156132cb576132cb6143a0565b036133185760405162461bcd60e51b815260206004820152601f60248201527f45434453413a20696e76616c6964207369676e6174757265206c656e677468006044820152606401610933565b600381600481111561332c5761332c6143a0565b036133845760405162461bcd60e51b815260206004820152602260248201527f45434453413a20696e76616c6964207369676e6174757265202773272076616c604482015261756560f01b6064820152608401610933565b6004816004811115613398576133986143a0565b036109a85760405162461bcd60e51b815260206004820152602260248201527f45434453413a20696e76616c6964207369676e6174757265202776272076616c604482015261756560f01b6064820152608401610933565b6000807f7fffffffffffffffffffffffffffffff5d576e7357a4501ddfe92f46681b20a083111561342757506000905060036134d4565b8460ff16601b1415801561343f57508460ff16601c14155b1561345057506000905060046134d4565b6040805160008082526020820180845289905260ff881692820192909252606081018690526080810185905260019060a0016020604051602081039080840390855afa1580156134a4573d6000803e3d6000fd5b5050604051601f1901519150506001600160a01b0381166134cd576000600192509250506134d4565b9150600090505b94509492505050565b5080546134e990613fe7565b6000825580601f106134f9575050565b601f0160209004906000526020600020908101906109a891905b808211156135275760008155600101613513565b5090565b60006020828403121561353d57600080fd5b81356001600160e01b031981168114612f4757600080fd5b60006020828403121561356757600080fd5b5035919050565b60008083601f84011261358057600080fd5b5081356001600160401b0381111561359757600080fd5b60208301915083602082850101111561323357600080fd5b6000806000604084860312156135c457600080fd5b8335925060208401356001600160401b038111156135e157600080fd5b6135ed8682870161356e565b9497909650939450505050565b6001600160a01b03811681146109a857600080fd5b803561361a816135fa565b919050565b6000806040838503121561363257600080fd5b823591506020830135613644816135fa565b809150509250929050565b60006020828403121561366157600080fd5b8135612f47816135fa565b60008083601f84011261367e57600080fd5b5081356001600160401b0381111561369557600080fd5b6020830191508360208260051b850101111561323357600080fd5b80151581146109a857600080fd5b60008060008060008060008060a0898b0312156136da57600080fd5b88356136e5816135fa565b975060208901356001600160401b038082111561370157600080fd5b61370d8c838d0161366c565b909950975060408b013591508082111561372657600080fd5b6137328c838d0161366c565b909750955060608b013591508082111561374b57600080fd5b506137588b828c0161366c565b909450925050608089013561376c816136b0565b809150509295985092959890939650565b634e487b7160e01b600052604160045260246000fd5b604051601f8201601f191681016001600160401b03811182821017156137bb576137bb61377d565b604052919050565b60006001600160401b038211156137dc576137dc61377d565b5060051b60200190565b600060208083850312156137f957600080fd5b82356001600160401b0381111561380f57600080fd5b8301601f8101851361382057600080fd5b803561383361382e826137c3565b613793565b81815260059190911b8201830190838101908783111561385257600080fd5b928401925b8284101561387957833561386a816135fa565b82529284019290840190613857565b979650505050505050565b6000806000806060858703121561389a57600080fd5b84356138a5816135fa565b93506020850135925060408501356001600160401b038111156138c757600080fd5b6138d38782880161356e565b95989497509550505050565b600080602083850312156138f257600080fd5b82356001600160401b0381111561390857600080fd5b6139148582860161356e565b90969095509350505050565b60005b8381101561393b578181015183820152602001613923565b50506000910152565b6000815180845261395c816020860160208601613920565b601f01601f19169290920160200192915050565b602081526000612f476020830184613944565b60008060008060008060c0878903121561399c57600080fd5b86356139a7816135fa565b955060208701356139b7816135fa565b945060408701356139c7816135fa565b935060608701356139d7816135fa565b925060808701356139e7816135fa565b915060a08701356139f7816135fa565b809150509295509295509295565b60008060008060008060008060a0898b031215613a2157600080fd5b8835613a2c816135fa565b97506020890135965060408901356001600160401b0380821115613a4f57600080fd5b613a5b8c838d0161356e565b909850965060608b0135915080821115613a7457600080fd5b613a808c838d0161366c565b909650945060808b0135915080821115613a9957600080fd5b50613aa68b828c0161366c565b999c989b5096995094979396929594505050565b60008060208385031215613acd57600080fd5b82356001600160401b03811115613ae357600080fd5b6139148582860161366c565b80356001600160401b038116811461361a57600080fd5b600080600080600080600080600080600060e08c8e031215613b2757600080fd5b613b308c61360f565b9a506001600160401b038060208e01351115613b4b57600080fd5b613b5b8e60208f01358f0161366c565b909b50995060408d0135811015613b7157600080fd5b613b818e60408f01358f0161366c565b909950975060608d0135811015613b9757600080fd5b613ba78e60608f01358f0161366c565b9097509550613bb860808e01613aef565b945060a08d013593508060c08e01351115613bd257600080fd5b50613be38d60c08e01358e0161356e565b81935080925050509295989b509295989b9093969950565b6000806000806000806000806000806000806101008d8f031215613c1e57600080fd5b613c278d61360f565b9b506001600160401b0360208e01351115613c4157600080fd5b613c518e60208f01358f0161366c565b909b5099506001600160401b0360408e01351115613c6e57600080fd5b613c7e8e60408f01358f0161366c565b90995097506001600160401b0360608e01351115613c9b57600080fd5b613cab8e60608f01358f0161366c565b9097509550613cbc60808e01613aef565b9450613cca60a08e0161360f565b935060c08d013592506001600160401b0360e08e01351115613ceb57600080fd5b613cfb8e60e08f01358f0161356e565b81935080925050509295989b509295989b509295989b565b60008060408385031215613d2657600080fd5b8235613d31816135fa565b91506020830135613644816135fa565b60208082526010908201526f14185d5cd8589b194e8814105554d15160821b604082015260600190565b6000613d7961382e846137c3565b80848252602080830192508560051b850136811115613d9757600080fd5b855b81811015613e295780356001600160401b0380821115613db95760008081fd5b90880190601f3681840112613dce5760008081fd5b823582811115613de057613de061377d565b613df1818301601f19168801613793565b92508083523687828601011115613e0a57600091508182fd5b8087850188850137600090830187015250865250938201938201613d99565b50919695505050505050565b600060208284031215613e4757600080fd5b8151612f47816136b0565b60208082526025908201527f4d696e74696e674d616e616765723a204c4142454c535f4c454e4754485f42456040820152642627abaf9960d91b606082015260800190565b634e487b7160e01b600052601160045260246000fd5b818103818111156108c4576108c4613e97565b634e487b7160e01b600052603260045260246000fd5b600060018201613ee857613ee8613e97565b5060010190565b60208152816020820152818360408301376000818301604090810191909152601f909201601f19160101919050565b60208082526026908201527f4d696e74696e674d616e616765723a20535542444f4d41494e535f4e4f545f41604082015265131313d5d15160d21b606082015260800190565b60208082526022908201527f4d696e74696e674d616e616765723a20544c445f4e4f545f5245474953544552604082015261115160f21b606082015260800190565b600060208284031215613fb857600080fd5b5051919050565b6b756e732d646576746573742d60a01b81528183600c83013760009101600c01908152919050565b600181811c90821680613ffb57607f821691505b60208210810361401b57634e487b7160e01b600052602260045260246000fd5b50919050565b60006020828403121561403357600080fd5b8151612f47816135fa565b600081518084526020808501808196508360051b8101915082860160005b85811015614086578284038952614074848351613944565b9885019893509084019060010161405c565b5091979650505050505050565b6001600160a01b038616815260a0602082018190526000906140b79083018761403e565b82810360408401526140c9818761403e565b905082810360608401526140dd818661403e565b91505082151560808301529695505050505050565b600060018060a01b038086168352606060208401526141146060840186613944565b9150808416604084015250949350505050565b60608152600061413a606083018661403e565b828103602084015261414c818661403e565b915050826040830152949350505050565b60008161416c5761416c613e97565b506000190190565b60008251614186818460208701613920565b9190910192915050565b601f82111561099257600081815260208120601f850160051c810160208610156141b75750805b601f850160051c820191505b81811015610965578281556001016141c3565b81516001600160401b038111156141ef576141ef61377d565b614203816141fd8454613fe7565b84614190565b602080601f83116001811461423857600084156142205750858301515b600019600386901b1c1916600185901b178555610965565b600085815260208120601f198616915b8281101561426757888601518255948401946001909101908401614248565b50858210156142855787850151600019600388901b60f8161c191681555b5050505050600190811b01905550565b8281526040602082015260006142ae6040830184613944565b949350505050565b6020808252602b908201527f496e697469616c697a61626c653a20636f6e7472616374206973206e6f74206960408201526a6e697469616c697a696e6760a81b606082015260800190565b808201808211156108c4576108c4613e97565b7f416363657373436f6e74726f6c3a206163636f756e742000000000000000000081526000835161434c816017850160208801613920565b7001034b99036b4b9b9b4b733903937b6329607d1b601791840191820152835161437d816028840160208801613920565b01602801949350505050565b80820281158282048414176108c4576108c4613e97565b634e487b7160e01b600052602160045260246000fdfe5496787fc1ebdfeba375028c1865f13fbb1d63c0caa356ccc1b29a80f3ebd6229f2df0fed2c77648de5860a4cc508cd0818c85b8b8a1ab4ceeef8d981c8956a6a164736f6c6343000811000a",
  "linkReferences": {},
  "deployedLinkReferences": {}
}