{
  "_format": "hh-sol-artifact-1",
  "contractName": "MintingManager",
  "sourceName": "contracts/MintingManager.sol",
  "abi": [
    {
      "anonymous": false,
      "inputs": [
        {
          "indexed": true,
          "internalType": "address",
          "name": "previousOwner",
          "type": "address"
        },
        {
          "indexed": true,
          "internalType": "address",
          "name": "newOwner",
          "type": "address"
        }
      ],
      "name": "OwnershipTransferred",
      "type": "event"
    },
    {
      "anonymous": false,
      "inputs": [
        {
          "indexed": true,
          "internalType": "address",
          "name": "sender",
          "type": "address"
        },
        {
          "indexed": true,
          "internalType": "address",
          "name": "signer",
          "type": "address"
        },
        {
          "indexed": true,
          "internalType": "bytes4",
          "name": "funcSig",
          "type": "bytes4"
        },
        {
          "indexed": false,
          "internalType": "bytes32",
          "name": "digest",
          "type": "bytes32"
        }
      ],
      "name": "Relayed",
      "type": "event"
    },
    {
      "anonymous": false,
      "inputs": [
        {
          "indexed": true,
          "internalType": "bytes32",
          "name": "role",
          "type": "bytes32"
        },
        {
          "indexed": true,
          "internalType": "bytes32",
          "name": "previousAdminRole",
          "type": "bytes32"
        },
        {
          "indexed": true,
          "internalType": "bytes32",
          "name": "newAdminRole",
          "type": "bytes32"
        }
      ],
      "name": "RoleAdminChanged",
      "type": "event"
    },
    {
      "anonymous": false,
      "inputs": [
        {
          "indexed": true,
          "internalType": "bytes32",
          "name": "role",
          "type": "bytes32"
        },
        {
          "indexed": true,
          "internalType": "address",
          "name": "account",
          "type": "address"
        },
        {
          "indexed": true,
          "internalType": "address",
          "name": "sender",
          "type": "address"
        }
      ],
      "name": "RoleGranted",
      "type": "event"
    },
    {
      "anonymous": false,
      "inputs": [
        {
          "indexed": true,
          "internalType": "bytes32",
          "name": "role",
          "type": "bytes32"
        },
        {
          "indexed": true,
          "internalType": "address",
          "name": "account",
          "type": "address"
        },
        {
          "indexed": true,
          "internalType": "address",
          "name": "sender",
          "type": "address"
        }
      ],
      "name": "RoleRevoked",
      "type": "event"
    },
    {
      "inputs": [],
      "name": "DEFAULT_ADMIN_ROLE",
      "outputs": [
        {
          "internalType": "bytes32",
          "name": "",
          "type": "bytes32"
        }
      ],
      "stateMutability": "view",
      "type": "function"
    },
    {
      "inputs": [],
      "name": "MINTER_ROLE",
      "outputs": [
        {
          "internalType": "bytes32",
          "name": "",
          "type": "bytes32"
        }
      ],
      "stateMutability": "view",
      "type": "function"
    },
    {
      "inputs": [],
      "name": "NAME",
      "outputs": [
        {
          "internalType": "string",
          "name": "",
          "type": "string"
        }
      ],
      "stateMutability": "view",
      "type": "function"
    },
    {
      "inputs": [],
      "name": "VERSION",
      "outputs": [
        {
          "internalType": "string",
          "name": "",
          "type": "string"
        }
      ],
      "stateMutability": "view",
      "type": "function"
    },
    {
      "inputs": [
        {
          "internalType": "address",
          "name": "account",
          "type": "address"
        }
      ],
      "name": "addMinter",
      "outputs": [],
      "stateMutability": "nonpayable",
      "type": "function"
    },
    {
      "inputs": [
        {
          "internalType": "address[]",
          "name": "accounts",
          "type": "address[]"
        }
      ],
      "name": "addMinters",
      "outputs": [],
      "stateMutability": "nonpayable",
      "type": "function"
    },
    {
      "inputs": [
        {
          "internalType": "uint256",
          "name": "tld",
          "type": "uint256"
        },
        {
          "internalType": "string",
          "name": "label",
          "type": "string"
        }
      ],
      "name": "claim",
      "outputs": [],
      "stateMutability": "nonpayable",
      "type": "function"
    },
    {
      "inputs": [
        {
          "internalType": "address",
          "name": "to",
          "type": "address"
        },
        {
          "internalType": "uint256",
          "name": "tld",
          "type": "uint256"
        },
        {
          "internalType": "string",
          "name": "label",
          "type": "string"
        }
      ],
      "name": "claimTo",
      "outputs": [],
      "stateMutability": "nonpayable",
      "type": "function"
    },
    {
      "inputs": [
        {
          "internalType": "address",
          "name": "to",
          "type": "address"
        },
        {
          "internalType": "uint256",
          "name": "tld",
          "type": "uint256"
        },
        {
          "internalType": "string",
          "name": "label",
          "type": "string"
        },
        {
          "internalType": "string[]",
          "name": "keys",
          "type": "string[]"
        },
        {
          "internalType": "string[]",
          "name": "values",
          "type": "string[]"
        }
      ],
      "name": "claimToWithRecords",
      "outputs": [],
      "stateMutability": "nonpayable",
      "type": "function"
    },
    {
      "inputs": [
        {
          "internalType": "address payable",
          "name": "receiver",
          "type": "address"
        }
      ],
      "name": "closeMinter",
      "outputs": [],
      "stateMutability": "payable",
      "type": "function"
    },
    {
      "inputs": [],
      "name": "cnsMintingController",
      "outputs": [
        {
          "internalType": "contract IMintingController",
          "name": "",
          "type": "address"
        }
      ],
      "stateMutability": "view",
      "type": "function"
    },
    {
      "inputs": [],
      "name": "cnsResolver",
      "outputs": [
        {
          "internalType": "contract IResolver",
          "name": "",
          "type": "address"
        }
      ],
      "stateMutability": "view",
      "type": "function"
    },
    {
      "inputs": [],
      "name": "cnsURIPrefixController",
      "outputs": [
        {
          "internalType": "contract IURIPrefixController",
          "name": "",
          "type": "address"
        }
      ],
      "stateMutability": "view",
      "type": "function"
    },
    {
      "inputs": [
        {
          "internalType": "bytes32",
          "name": "role",
          "type": "bytes32"
        }
      ],
      "name": "getRoleAdmin",
      "outputs": [
        {
          "internalType": "bytes32",
          "name": "",
          "type": "bytes32"
        }
      ],
      "stateMutability": "view",
      "type": "function"
    },
    {
      "inputs": [
        {
          "internalType": "bytes32",
          "name": "role",
          "type": "bytes32"
        },
        {
          "internalType": "address",
          "name": "account",
          "type": "address"
        }
      ],
      "name": "grantRole",
      "outputs": [],
      "stateMutability": "nonpayable",
      "type": "function"
    },
    {
      "inputs": [
        {
          "internalType": "bytes32",
          "name": "role",
          "type": "bytes32"
        },
        {
          "internalType": "address",
          "name": "account",
          "type": "address"
        }
      ],
      "name": "hasRole",
      "outputs": [
        {
          "internalType": "bool",
          "name": "",
          "type": "bool"
        }
      ],
      "stateMutability": "view",
      "type": "function"
    },
    {
      "inputs": [
        {
          "internalType": "contract IUNSRegistry",
          "name": "unsRegistry_",
          "type": "address"
        },
        {
          "internalType": "contract IMintingController",
          "name": "cnsMintingController_",
          "type": "address"
        },
        {
          "internalType": "contract IURIPrefixController",
          "name": "cnsURIPrefixController_",
          "type": "address"
        },
        {
          "internalType": "contract IResolver",
          "name": "cnsResolver_",
          "type": "address"
        }
      ],
      "name": "initialize",
      "outputs": [],
      "stateMutability": "nonpayable",
      "type": "function"
    },
    {
      "inputs": [
        {
          "internalType": "address",
          "name": "account",
          "type": "address"
        }
      ],
      "name": "isMinter",
      "outputs": [
        {
          "internalType": "bool",
          "name": "",
          "type": "bool"
        }
      ],
      "stateMutability": "view",
      "type": "function"
    },
    {
      "inputs": [
        {
          "internalType": "address",
          "name": "to",
          "type": "address"
        },
        {
          "internalType": "uint256",
          "name": "tld",
          "type": "uint256"
        },
        {
          "internalType": "string",
          "name": "label",
          "type": "string"
        }
      ],
      "name": "mintSLD",
      "outputs": [],
      "stateMutability": "nonpayable",
      "type": "function"
    },
    {
      "inputs": [
        {
          "internalType": "address",
          "name": "to",
          "type": "address"
        },
        {
          "internalType": "uint256",
          "name": "tld",
          "type": "uint256"
        },
        {
          "internalType": "string",
          "name": "label",
          "type": "string"
        },
        {
          "internalType": "string[]",
          "name": "keys",
          "type": "string[]"
        },
        {
          "internalType": "string[]",
          "name": "values",
          "type": "string[]"
        }
      ],
      "name": "mintSLDWithRecords",
      "outputs": [],
      "stateMutability": "nonpayable",
      "type": "function"
    },
    {
      "inputs": [],
      "name": "owner",
      "outputs": [
        {
          "internalType": "address",
          "name": "",
          "type": "address"
        }
      ],
      "stateMutability": "view",
      "type": "function"
    },
    {
      "inputs": [
        {
          "internalType": "bytes",
          "name": "data",
          "type": "bytes"
        },
        {
          "internalType": "bytes",
          "name": "signature",
          "type": "bytes"
        }
      ],
      "name": "relay",
      "outputs": [
        {
          "internalType": "bytes",
          "name": "",
          "type": "bytes"
        }
      ],
      "stateMutability": "nonpayable",
      "type": "function"
    },
    {
      "inputs": [
        {
          "internalType": "address",
          "name": "account",
          "type": "address"
        }
      ],
      "name": "removeMinter",
      "outputs": [],
      "stateMutability": "nonpayable",
      "type": "function"
    },
    {
      "inputs": [
        {
          "internalType": "address[]",
          "name": "accounts",
          "type": "address[]"
        }
      ],
      "name": "removeMinters",
      "outputs": [],
      "stateMutability": "nonpayable",
      "type": "function"
    },
    {
      "inputs": [],
      "name": "renounceMinter",
      "outputs": [],
      "stateMutability": "nonpayable",
      "type": "function"
    },
    {
      "inputs": [],
      "name": "renounceOwnership",
      "outputs": [],
      "stateMutability": "nonpayable",
      "type": "function"
    },
    {
      "inputs": [
        {
          "internalType": "bytes32",
          "name": "role",
          "type": "bytes32"
        },
        {
          "internalType": "address",
          "name": "account",
          "type": "address"
        }
      ],
      "name": "renounceRole",
      "outputs": [],
      "stateMutability": "nonpayable",
      "type": "function"
    },
    {
      "inputs": [
        {
          "internalType": "bytes32",
          "name": "role",
          "type": "bytes32"
        },
        {
          "internalType": "address",
          "name": "account",
          "type": "address"
        }
      ],
      "name": "revokeRole",
      "outputs": [],
      "stateMutability": "nonpayable",
      "type": "function"
    },
    {
      "inputs": [
        {
          "internalType": "address payable",
          "name": "receiver",
          "type": "address"
        }
      ],
      "name": "rotateMinter",
      "outputs": [],
      "stateMutability": "payable",
      "type": "function"
    },
    {
      "inputs": [
        {
          "internalType": "address",
          "name": "to",
          "type": "address"
        },
        {
          "internalType": "uint256",
          "name": "tld",
          "type": "uint256"
        },
        {
          "internalType": "string",
          "name": "label",
          "type": "string"
        }
      ],
      "name": "safeMintSLD",
      "outputs": [],
      "stateMutability": "nonpayable",
      "type": "function"
    },
    {
      "inputs": [
        {
          "internalType": "address",
          "name": "to",
          "type": "address"
        },
        {
          "internalType": "uint256",
          "name": "tld",
          "type": "uint256"
        },
        {
          "internalType": "string",
          "name": "label",
          "type": "string"
        },
        {
          "internalType": "bytes",
          "name": "data",
          "type": "bytes"
        }
      ],
      "name": "safeMintSLD",
      "outputs": [],
      "stateMutability": "nonpayable",
      "type": "function"
    },
    {
      "inputs": [
        {
          "internalType": "address",
          "name": "to",
          "type": "address"
        },
        {
          "internalType": "uint256",
          "name": "tld",
          "type": "uint256"
        },
        {
          "internalType": "string",
          "name": "label",
          "type": "string"
        },
        {
          "internalType": "string[]",
          "name": "keys",
          "type": "string[]"
        },
        {
          "internalType": "string[]",
          "name": "values",
          "type": "string[]"
        }
      ],
      "name": "safeMintSLDWithRecords",
      "outputs": [],
      "stateMutability": "nonpayable",
      "type": "function"
    },
    {
      "inputs": [
        {
          "internalType": "address",
          "name": "to",
          "type": "address"
        },
        {
          "internalType": "uint256",
          "name": "tld",
          "type": "uint256"
        },
        {
          "internalType": "string",
          "name": "label",
          "type": "string"
        },
        {
          "internalType": "string[]",
          "name": "keys",
          "type": "string[]"
        },
        {
          "internalType": "string[]",
          "name": "values",
          "type": "string[]"
        },
        {
          "internalType": "bytes",
          "name": "data",
          "type": "bytes"
        }
      ],
      "name": "safeMintSLDWithRecords",
      "outputs": [],
      "stateMutability": "nonpayable",
      "type": "function"
    },
    {
      "inputs": [
        {
          "internalType": "address",
          "name": "resolver",
          "type": "address"
        }
      ],
      "name": "setResolver",
      "outputs": [],
      "stateMutability": "nonpayable",
      "type": "function"
    },
    {
      "inputs": [
        {
          "internalType": "string",
          "name": "prefix",
          "type": "string"
        }
      ],
      "name": "setTokenURIPrefix",
      "outputs": [],
      "stateMutability": "nonpayable",
      "type": "function"
    },
    {
      "inputs": [
        {
          "internalType": "bytes4",
          "name": "interfaceId",
          "type": "bytes4"
        }
      ],
      "name": "supportsInterface",
      "outputs": [
        {
          "internalType": "bool",
          "name": "",
          "type": "bool"
        }
      ],
      "stateMutability": "view",
      "type": "function"
    },
    {
      "inputs": [
        {
          "internalType": "address",
          "name": "newOwner",
          "type": "address"
        }
      ],
      "name": "transferOwnership",
      "outputs": [],
      "stateMutability": "nonpayable",
      "type": "function"
    },
    {
      "inputs": [],
      "name": "unsRegistry",
      "outputs": [
        {
          "internalType": "contract IUNSRegistry",
          "name": "",
          "type": "address"
        }
      ],
      "stateMutability": "view",
      "type": "function"
    }
  ],
  "bytecode": "0x608060405234801561001057600080fd5b50613859806100206000396000f3fe6080604052600436106102255760003560e01c806381c81d3511610123578063a849d65c116100ab578063d53913931161006f578063d53913931461060c578063d547741f14610621578063f2fde38b14610641578063f8c8765e14610661578063ffa1ad741461068157610225565b8063a849d65c14610582578063aa271e1a14610597578063ae2ad903146105b7578063cc2c3fc4146105d7578063ceeb4f50146105ec57610225565b8063983b2d56116100f2578063983b2d5614610503578063986502751461052357806399e0dd7c14610538578063a217fddf14610558578063a3f4df7e1461056d57610225565b806381c81d351461049b5780638da5cb5b146104ae578063906cecc1146104c357806391d14854146104e357610225565b80634c1819e0116101b15780635fc1964f116101755780635fc1964f14610413578063634486da146104335780636a2d225614610446578063715018a61461046657806371e2a6571461047b57610225565b80634c1819e0146103715780634e543b2614610391578063564a5158146103b157806358839d6b146103de5780635b6fa8db146103fe57610225565b80632f2ff15d116101f85780632f2ff15d146102cf5780633092afd5146102ef57806336568abe1461030f57806339ccf4d01461032f5780633f41b6141461034f57610225565b806301ffc9a71461022a578063248a9ca314610260578063268b15ed1461028d57806327bbd225146102af575b600080fd5b34801561023657600080fd5b5061024a610245366004612c01565b610696565b6040516102579190613280565b60405180910390f35b34801561026c57600080fd5b5061028061027b366004612bba565b6106c3565b604051610257919061328b565b34801561029957600080fd5b506102ad6102a8366004612d21565b6106d8565b005b3480156102bb57600080fd5b506102ad6102ca3660046128c2565b61073e565b3480156102db57600080fd5b506102ad6102ea366004612bd2565b610801565b3480156102fb57600080fd5b506102ad61030a36600461284c565b61082a565b34801561031b57600080fd5b506102ad61032a366004612bd2565b610875565b34801561033b57600080fd5b506102ad61034a3660046128c2565b6108bb565b34801561035b57600080fd5b50610364610965565b6040516102579190613031565b34801561037d57600080fd5b506102ad61038c366004612868565b610974565b34801561039d57600080fd5b506102ad6103ac36600461284c565b6109fa565b3480156103bd57600080fd5b506103d16103cc366004612c29565b610a5b565b60405161025791906132b2565b3480156103ea57600080fd5b506102ad6103f9366004612a50565b610c26565b34801561040a57600080fd5b50610364610cd5565b34801561041f57600080fd5b506102ad61042e366004612ad9565b610ce4565b6102ad61044136600461284c565b610d71565b34801561045257600080fd5b506102ad610461366004612974565b610e04565b34801561047257600080fd5b506102ad610ef1565b34801561048757600080fd5b506102ad610496366004612ad9565b610f7a565b6102ad6104a936600461284c565b611007565b3480156104ba57600080fd5b50610364611054565b3480156104cf57600080fd5b506102ad6104de366004612868565b611063565b3480156104ef57600080fd5b5061024a6104fe366004612bd2565b6110ae565b34801561050f57600080fd5b506102ad61051e36600461284c565b6110d9565b34801561052f57600080fd5b506102ad611121565b34801561054457600080fd5b506102ad610553366004612ce1565b61113d565b34801561056457600080fd5b5061028061125b565b34801561057957600080fd5b506103d1611260565b34801561058e57600080fd5b50610364611290565b3480156105a357600080fd5b5061024a6105b236600461284c565b61129f565b3480156105c357600080fd5b506102ad6105d2366004612868565b6112b9565b3480156105e357600080fd5b5061036461135d565b3480156105f857600080fd5b506102ad6106073660046128c2565b61136c565b34801561061857600080fd5b506102806113c0565b34801561062d57600080fd5b506102ad61063c366004612bd2565b6113d2565b34801561064d57600080fd5b506102ad61065c36600461284c565b6113f1565b34801561066d57600080fd5b506102ad61067c366004612c86565b611444565b34801561068d57600080fd5b506103d1611872565b60006001600160e01b03198216637965db0b60e01b14806106bb57506106bb82611893565b90505b919050565b60009081526097602052604090206001015490565b600083815260cd602052604081208054859291906106f59061374c565b90501161071d5760405162461bcd60e51b815260040161071490613635565b60405180910390fd5b6107386107286118ac565b8561073386866118b0565b6118dc565b50505050565b6107496105b26118ac565b6107655760405162461bcd60e51b81526004016107149061350e565b600087815260cd602052604081208054899291906107829061374c565b9050116107a15760405162461bcd60e51b815260040161071490613635565b6107f6898989898080601f016020809104026020016040519081016040528093929190818152602001838380828437600092018290525060408051602081019091529081528c93508b92508a915089906119d2565b505050505050505050565b61080a826106c3565b61081b816108166118ac565b611b5b565b6108258383611bbf565b505050565b6108326118ac565b6001600160a01b0316610843611054565b6001600160a01b0316146108695760405162461bcd60e51b8152600401610714906135c9565b61087281611c46565b50565b61087d6118ac565b6001600160a01b0316816001600160a01b0316146108ad5760405162461bcd60e51b815260040161071490613677565b6108b78282611c5e565b5050565b6108c66105b26118ac565b6108e25760405162461bcd60e51b81526004016107149061350e565b600087815260cd602052604081208054899291906108ff9061374c565b90501161091e5760405162461bcd60e51b815260040161071490613635565b6107f6898989898080601f0160208091040260200160405190810160405280939291908181526020018383808284376000920191909152508b92508a915089905088611ce3565b60c9546001600160a01b031681565b61097f6105b26118ac565b61099b5760405162461bcd60e51b81526004016107149061350e565b600083815260cd602052604081208054859291906109b89061374c565b9050116109d75760405162461bcd60e51b815260040161071490613635565b6109f38585858560405180602001604052806000815250611e68565b5050505050565b610a026118ac565b6001600160a01b0316610a13611054565b6001600160a01b031614610a395760405162461bcd60e51b8152600401610714906135c9565b60cc80546001600160a01b0319166001600160a01b0392909216919091179055565b606060008585604051610a6f929190612e6c565b604051809103902090506000610aec85858080601f01602080910402602001604051908101604052809392919081815260200183838082843760009201919091525050604051610ae69250610acb915086903090602001612e4c565b60405160208183030381529060405280519060200120611fd6565b90612006565b905060008088888080601f016020809104026020016040519081016040528093929190818152602001838380828437600092019190915250505050602081015192509050610b398361208c565b610b44828a8a6120ba565b600080306001600160a01b03168b8b604051610b61929190612e6c565b6000604051808303816000865af19150503d8060008114610b9e576040519150601f19603f3d011682016040523d82523d6000602084013e610ba3565b606091505b50909250905081610bbb576040513d806000833e8082fd5b6001600160e01b031984166001600160a01b038616610bd86118ac565b6001600160a01b03167f9490f91465d0d2c12728b9ad47d5f1dd2ac3ef39394796e54a48b94db0b3372589604051610c10919061328b565b60405180910390a49a9950505050505050505050565b610c316105b26118ac565b610c4d5760405162461bcd60e51b81526004016107149061350e565b600085815260cd60205260408120805487929190610c6a9061374c565b905011610c895760405162461bcd60e51b815260040161071490613635565b610ccc8787878787878080601f016020809104026020016040519081016040528093929190818152602001838380828437600092019190915250611e6892505050565b50505050505050565b60cc546001600160a01b031681565b610cec6118ac565b6001600160a01b0316610cfd611054565b6001600160a01b031614610d235760405162461bcd60e51b8152600401610714906135c9565b60005b81518110156108b757610d5f828281518110610d5257634e487b7160e01b600052603260045260246000fd5b6020026020010151611c46565b80610d6981613787565b915050610d26565b610d7c6105b26118ac565b610d985760405162461bcd60e51b81526004016107149061350e565b6001600160a01b038116610dbe5760405162461bcd60e51b815260040161071490613447565b610dc781612176565b610dcf611121565b6040516001600160a01b038216903480156108fc02916000818181858888f193505050501580156108b7573d6000803e3d6000fd5b610e0f6105b26118ac565b610e2b5760405162461bcd60e51b81526004016107149061350e565b600089815260cd6020526040812080548b929190610e489061374c565b905011610e675760405162461bcd60e51b815260040161071490613635565b610ee48b8b8b8b8080601f01602080910402602001604051908101604052809392919081815260200183838082843760009201919091525050604080516020601f8b018190048102820181019092528981528e93508d92508c918c91908c908c90819084018382808284376000920191909152506119d292505050565b5050505050505050505050565b610ef96118ac565b6001600160a01b0316610f0a611054565b6001600160a01b031614610f305760405162461bcd60e51b8152600401610714906135c9565b6033546040516000916001600160a01b0316907f8be0079c531659141344cd1fd0a4f28419497f9722a3daafe3b4186f6b6457e0908390a3603380546001600160a01b0319169055565b610f826118ac565b6001600160a01b0316610f93611054565b6001600160a01b031614610fb95760405162461bcd60e51b8152600401610714906135c9565b60005b81518110156108b757610ff5828281518110610fe857634e487b7160e01b600052603260045260246000fd5b6020026020010151612176565b80610fff81613787565b915050610fbc565b6110126105b26118ac565b61102e5760405162461bcd60e51b81526004016107149061350e565b6001600160a01b038116610dc75760405162461bcd60e51b815260040161071490613447565b6033546001600160a01b031690565b600083815260cd602052604081208054859291906110809061374c565b90501161109f5760405162461bcd60e51b815260040161071490613635565b6109f3858561073386866118b0565b60009182526097602090815260408084206001600160a01b0393909316845291905290205460ff1690565b6110e16118ac565b6001600160a01b03166110f2611054565b6001600160a01b0316146111185760405162461bcd60e51b8152600401610714906135c9565b61087281612176565b61113b6000805160206137e483398151915261032a6118ac565b565b6111456118ac565b6001600160a01b0316611156611054565b6001600160a01b03161461117c5760405162461bcd60e51b8152600401610714906135c9565b60c954604051632678375f60e21b81526001600160a01b03909116906399e0dd7c906111ae90859085906004016132c5565b600060405180830381600087803b1580156111c857600080fd5b505af11580156111dc573d6000803e3d6000fd5b505060cb546001600160a01b03161591506108b790505760cb54604051632678375f60e21b81526001600160a01b03909116906399e0dd7c9061122590859085906004016132c5565b600060405180830381600087803b15801561123f57600080fd5b505af1158015611253573d6000803e3d6000fd5b505050505050565b600081565b604051806040016040528060148152602001732aa7299d1026b4b73a34b7339026b0b730b3b2b960611b81525081565b60cb546001600160a01b031681565b60006106bb6000805160206137e4833981519152836110ae565b6112c46105b26118ac565b6112e05760405162461bcd60e51b81526004016107149061350e565b600083815260cd602052604081208054859291906112fd9061374c565b90501161131c5760405162461bcd60e51b815260040161071490613635565b6109f3858585858080601f0160208091040260200160405190810160405280939291908181526020018383808284376000920191909152506118dc92505050565b60ca546001600160a01b031681565b600087815260cd602052604081208054899291906113899061374c565b9050116113a85760405162461bcd60e51b815260040161071490613635565b6107f689896113b78a8a6118b0565b88888888611ce3565b6000805160206137e483398151915281565b6113db826106c3565b6113e7816108166118ac565b6108258383611c5e565b6113f96118ac565b6001600160a01b031661140a611054565b6001600160a01b0316146114305760405162461bcd60e51b8152600401610714906135c9565b6114398161218e565b61087260008261224f565b600054610100900460ff168061145d575060005460ff16155b6114795760405162461bcd60e51b8152600401610714906134c0565b600054610100900460ff161580156114a4576000805460ff1961ff0019909116610100171660011790555b60c980546001600160a01b038088166001600160a01b03199283161790925560ca805487841690831617905560cb805486841690831617905560cc8054928516929091169190911790556114f6612259565b6114fe612325565b61150730612176565b60408051808201909152600681526563727970746f60d01b602080830191825260008051602061380483398151915260005260cd9052905161156a917f9535d3ea47c5e1398d3405b4fadc73de6b1b1e6a66f674a8886ab7a6c873a3909161271f565b50604080516101408101825260066101008201908152651dd85b1b195d60d21b610120830152815281518083018352600481526331b7b4b760e11b602082810191909152808301919091528251808401845260018152600f60fb1b8183015282840152825180840184526003808252621b999d60ea1b82840152606084019190915283518085018552600a815269313637b1b5b1b430b4b760b11b8184015260808401528351808501855260078152663134ba31b7b4b760c91b8184015260a0840152835180850185528181526207070760eb1b8184015260c0840152835180850190945283526264616f60e81b9083015260e081019190915260005b60088110156118585760008083836008811061169357634e487b7160e01b600052603260045260246000fd5b60200201516040516020016116a89190612e7c565b604051602081830303815290604052805190602001206040516020016116cf929190613023565b6040516020818303038152906040528051906020012060001c905082826008811061170a57634e487b7160e01b600052603260045260246000fd5b602002015160cd6000838152602001908152602001600020908051906020019061173592919061271f565b5060c954604051634f558e7960e01b81526001600160a01b0390911690634f558e799061176690849060040161328b565b60206040518083038186803b15801561177e57600080fd5b505afa158015611792573d6000803e3d6000fd5b505050506040513d601f19601f820116820180604052508101906117b69190612b9a565b6118455760c9546001600160a01b031663d3fc986461dead838686600881106117ef57634e487b7160e01b600052603260045260246000fd5b60200201516040518463ffffffff1660e01b81526004016118129392919061310c565b600060405180830381600087803b15801561182c57600080fd5b505af1158015611840573d6000803e3d6000fd5b505050505b508061185081613787565b915050611667565b505080156109f3576000805461ff00191690555050505050565b604051806040016040528060058152602001640302e322e360dc1b81525081565b6001600160e01b031981166301ffc9a760e01b14919050565b3390565b606082826040516020016118c5929190612f88565b604051602081830303815290604052905092915050565b8160008051602061380483398151915214156119605760ca5460cc5460405163c36c212560e01b81526001600160a01b039283169263c36c2125926119299288928792169060040161308f565b600060405180830381600087803b15801561194357600080fd5b505af1158015611957573d6000803e3d6000fd5b50505050610825565b60c9546001600160a01b031663d3fc98648461197c85856123ab565b6119868686612427565b6040518463ffffffff1660e01b81526004016119a49392919061310c565b600060405180830381600087803b1580156119be57600080fd5b505af1158015610ccc573d6000803e3d6000fd5b60006119de88886123ab565b9050876000805160206138048339815191521415611ad95760ca5460cc54604051630f95e75b60e31b81526001600160a01b0392831692637caf3ad892611a2f928e928d92169088906004016130c4565b600060405180830381600087803b158015611a4957600080fd5b505af1158015611a5d573d6000803e3d6000fd5b505086159150611ad490505760cc54604051633a0deb9d60e21b81526001600160a01b039091169063e837ae7490611aa19089908990899089908890600401613246565b600060405180830381600087803b158015611abb57600080fd5b505af1158015611acf573d6000803e3d6000fd5b505050505b6107f6565b60c9546001600160a01b031663efda4d3e8a83611af68c8c612427565b8a8a8a8a8a6040518963ffffffff1660e01b8152600401611b1e989796959493929190613190565b600060405180830381600087803b158015611b3857600080fd5b505af1158015611b4c573d6000803e3d6000fd5b50505050505050505050505050565b611b6582826110ae565b6108b757611b7d816001600160a01b0316601461244a565b611b8883602061244a565b604051602001611b99929190612fae565b60408051601f198184030181529082905262461bcd60e51b8252610714916004016132b2565b611bc982826110ae565b6108b75760008281526097602090815260408083206001600160a01b03851684529091529020805460ff19166001179055611c026118ac565b6001600160a01b0316816001600160a01b0316837f2f8788117e7eff1d82e926ec794901d17c78024a50270940304540a733656f0d60405160405180910390a45050565b6108726000805160206137e4833981519152826113d2565b611c6882826110ae565b156108b75760008281526097602090815260408083206001600160a01b03851684529091529020805460ff19169055611c9f6118ac565b6001600160a01b0316816001600160a01b0316837ff6391f5c32d9c69d2a47ea670b442974b53935d1edc7fd64eb21e047a839171b60405160405180910390a45050565b6000611cef87876123ab565b9050866000805160206138048339815191521415611de85760ca5460cc5460405163c36c212560e01b81526001600160a01b039283169263c36c212592611d3e928d928c92169060040161308f565b600060405180830381600087803b158015611d5857600080fd5b505af1158015611d6c573d6000803e3d6000fd5b505085159150611de390505760cc54604051633a0deb9d60e21b81526001600160a01b039091169063e837ae7490611db09088908890889088908890600401613246565b600060405180830381600087803b158015611dca57600080fd5b505af1158015611dde573d6000803e3d6000fd5b505050505b611e5e565b60c9546001600160a01b031663b0f591778983611e058b8b612427565b898989896040518863ffffffff1660e01b8152600401611e2b9796959493929190613133565b600060405180830381600087803b158015611e4557600080fd5b505af1158015611e59573d6000803e3d6000fd5b505050505b5050505050505050565b836000805160206138048339815191521415611ef15760ca5460cc54604051630f95e75b60e31b81526001600160a01b0392831692637caf3ad892611eba928a92899289929116908890600401613045565b600060405180830381600087803b158015611ed457600080fd5b505af1158015611ee8573d6000803e3d6000fd5b505050506109f3565b60c954604080516020601f86018190048102820181019092528481526001600160a01b039092169163b55bc617918891611f489189919089908990819084018382808284376000920191909152506123ab92505050565b611f888888888080601f01602080910402602001604051908101604052809392919081815260200183838082843760009201919091525061242792505050565b856040518563ffffffff1660e01b8152600401611fa89493929190613202565b600060405180830381600087803b158015611fc257600080fd5b505af11580156107f6573d6000803e3d6000fd5b600081604051602001611fe99190612f57565b604051602081830303815290604052805190602001209050919050565b6000806000808451604114156120305750505060208201516040830151606084015160001a612076565b84516040141561205e5750505060408201516020830151906001600160ff1b0381169060ff1c601b01612076565b60405162461bcd60e51b815260040161071490613393565b61208286828585612603565b9695505050505050565b612095816126f9565b61209e8161129f565b6108725760405162461bcd60e51b815260040161071490613585565b60006001600160e01b0319841663ae2ad90360e01b14806120eb57506001600160e01b03198416630260c0cf60e51b145b8061210657506001600160e01b031984166358839d6b60e01b145b8061212157506001600160e01b0319841663039ccf4d60e41b145b8061213c57506001600160e01b031984166327bbd22560e01b145b8061215757506001600160e01b03198416633516912b60e11b145b9050806107385760405162461bcd60e51b81526004016107149061334d565b6108726000805160206137e48339815191528261224f565b6121966118ac565b6001600160a01b03166121a7611054565b6001600160a01b0316146121cd5760405162461bcd60e51b8152600401610714906135c9565b6001600160a01b0381166121f35760405162461bcd60e51b8152600401610714906133ca565b6033546040516001600160a01b038084169216907f8be0079c531659141344cd1fd0a4f28419497f9722a3daafe3b4186f6b6457e090600090a3603380546001600160a01b0319166001600160a01b0392909216919091179055565b6108b78282611bbf565b600054610100900460ff1680612272575060005460ff16155b61228e5760405162461bcd60e51b8152600401610714906134c0565b600054610100900460ff161580156122b9576000805460ff1961ff0019909116610100171660011790555b60006122c36118ac565b603380546001600160a01b0319166001600160a01b038316908117909155604051919250906000907f8be0079c531659141344cd1fd0a4f28419497f9722a3daafe3b4186f6b6457e0908290a3508015610872576000805461ff001916905550565b600054610100900460ff168061233e575060005460ff16155b61235a5760405162461bcd60e51b8152600401610714906134c0565b600054610100900460ff16158015612385576000805460ff1961ff0019909116610100171660011790555b61239760006123926118ac565b61224f565b8015610872576000805461ff001916905550565b60008151600014156123cf5760405162461bcd60e51b8152600401610714906135fe565b82826040516020016123e19190612e7c565b60405160208183030381529060405280519060200120604051602001612408929190613023565b60408051601f1981840301815291905280516020909101209392505050565b600082815260cd602090815260409182902091516060926118c592859201612e98565b606060006124598360026136ea565b6124649060026136d2565b67ffffffffffffffff81111561248a57634e487b7160e01b600052604160045260246000fd5b6040519080825280601f01601f1916602001820160405280156124b4576020820181803683370190505b509050600360fc1b816000815181106124dd57634e487b7160e01b600052603260045260246000fd5b60200101906001600160f81b031916908160001a905350600f60fb1b8160018151811061251a57634e487b7160e01b600052603260045260246000fd5b60200101906001600160f81b031916908160001a905350600061253e8460026136ea565b6125499060016136d2565b90505b60018111156125dd576f181899199a1a9b1b9c1cb0b131b232b360811b85600f166010811061258b57634e487b7160e01b600052603260045260246000fd5b1a60f81b8282815181106125af57634e487b7160e01b600052603260045260246000fd5b60200101906001600160f81b031916908160001a90535060049490941c936125d681613735565b905061254c565b5083156125fc5760405162461bcd60e51b815260040161071490613318565b9392505050565b60007f7fffffffffffffffffffffffffffffff5d576e7357a4501ddfe92f46681b20a08211156126455760405162461bcd60e51b81526004016107149061347e565b8360ff16601b148061265a57508360ff16601c145b6126765760405162461bcd60e51b815260040161071490613543565b60006001868686866040516000815260200160405260405161269b9493929190613294565b6020604051602081039080840390855afa1580156126bd573d6000803e3d6000fd5b5050604051601f1901519150506001600160a01b0381166126f05760405162461bcd60e51b8152600401610714906132e1565b95945050505050565b6001600160a01b0381166108725760405162461bcd60e51b815260040161071490613410565b82805461272b9061374c565b90600052602060002090601f01602090048101928261274d5760008555612793565b82601f1061276657805160ff1916838001178555612793565b82800160010185558215612793579182015b82811115612793578251825591602001919060010190612778565b5061279f9291506127a3565b5090565b5b8082111561279f57600081556001016127a4565b80356106be816137ce565b60008083601f8401126127d4578182fd5b50813567ffffffffffffffff8111156127eb578182fd5b602083019150836020808302850101111561280557600080fd5b9250929050565b60008083601f84011261281d578182fd5b50813567ffffffffffffffff811115612834578182fd5b60208301915083602082850101111561280557600080fd5b60006020828403121561285d578081fd5b81356125fc816137ce565b6000806000806060858703121561287d578283fd5b8435612888816137ce565b935060208501359250604085013567ffffffffffffffff8111156128aa578283fd5b6128b68782880161280c565b95989497509550505050565b60008060008060008060008060a0898b0312156128dd578384fd5b88356128e8816137ce565b975060208901359650604089013567ffffffffffffffff8082111561290b578586fd5b6129178c838d0161280c565b909850965060608b013591508082111561292f578586fd5b61293b8c838d016127c3565b909650945060808b0135915080821115612953578384fd5b506129608b828c016127c3565b999c989b5096995094979396929594505050565b60008060008060008060008060008060c08b8d031215612992578182fd5b61299b8b6127b8565b995060208b0135985060408b013567ffffffffffffffff808211156129be578384fd5b6129ca8e838f0161280c565b909a50985060608d01359150808211156129e2578384fd5b6129ee8e838f016127c3565b909850965060808d0135915080821115612a06578384fd5b612a128e838f016127c3565b909650945060a08d0135915080821115612a2a578384fd5b50612a378d828e0161280c565b915080935050809150509295989b9194979a5092959850565b60008060008060008060808789031215612a68578182fd5b8635612a73816137ce565b955060208701359450604087013567ffffffffffffffff80821115612a96578384fd5b612aa28a838b0161280c565b90965094506060890135915080821115612aba578384fd5b50612ac789828a0161280c565b979a9699509497509295939492505050565b60006020808385031215612aeb578182fd5b823567ffffffffffffffff80821115612b02578384fd5b818501915085601f830112612b15578384fd5b813581811115612b2757612b276137b8565b83810260405185828201018181108582111715612b4657612b466137b8565b604052828152858101935084860182860187018a1015612b64578788fd5b8795505b83861015612b8d57612b79816127b8565b855260019590950194938601938601612b68565b5098975050505050505050565b600060208284031215612bab578081fd5b815180151581146125fc578182fd5b600060208284031215612bcb578081fd5b5035919050565b60008060408385031215612be4578182fd5b823591506020830135612bf6816137ce565b809150509250929050565b600060208284031215612c12578081fd5b81356001600160e01b0319811681146125fc578182fd5b60008060008060408587031215612c3e578182fd5b843567ffffffffffffffff80821115612c55578384fd5b612c618883890161280c565b90965094506020870135915080821115612c79578384fd5b506128b68782880161280c565b60008060008060808587031215612c9b578182fd5b8435612ca6816137ce565b93506020850135612cb6816137ce565b92506040850135612cc6816137ce565b91506060850135612cd6816137ce565b939692955090935050565b60008060208385031215612cf3578182fd5b823567ffffffffffffffff811115612d09578283fd5b612d158582860161280c565b90969095509350505050565b600080600060408486031215612d35578081fd5b83359250602084013567ffffffffffffffff811115612d52578182fd5b612d5e8682870161280c565b9497909650939450505050565b818352602080840193600091908185020181018584845b87811015612de95782840389528135601e19883603018112612da2578687fd5b8701803567ffffffffffffffff811115612dba578788fd5b803603891315612dc8578788fd5b612dd58682898501612e22565b9a87019a9550505090840190600101612d82565b5091979650505050505050565b60008151808452612e0e816020860160208601613709565b601f01601f19169290920160200192915050565b60008284528282602086013780602084860101526020601f19601f85011685010190509392505050565b91825260601b6bffffffffffffffffffffffff1916602082015260340190565b6000828483379101908152919050565b60008251612e8e818460208701613709565b9190910192915050565b600083516020612eab8285838901613709565b601760f91b918401918252845460019084906002810481841680612ed057607f821691505b858210811415612eee57634e487b7160e01b88526022600452602488fd5b808015612f025760018114612f1757612f47565b60ff1984168887015282880186019450612f47565b612f208b6136c6565b895b84811015612f3d5781548a8201890152908701908801612f22565b5050858389010194505b50929a9950505050505050505050565b7f19457468657265756d205369676e6564204d6573736167653a0a3332000000008152601c810191909152603c0190565b6000697564746573746465762d60b01b82528284600a8401379101600a01908152919050565b60007f416363657373436f6e74726f6c3a206163636f756e742000000000000000000082528351612fe6816017850160208801613709565b7001034b99036b4b9b9b4b733903937b6329607d1b6017918401918201528351613017816028840160208801613709565b01602801949350505050565b918252602082015260400190565b6001600160a01b0391909116815260200190565b600060018060a01b03808816835260806020840152613068608084018789612e22565b818616604085015283810360608501526130828186612df6565b9998505050505050505050565b600060018060a01b038086168352606060208401526130b16060840186612df6565b9150808416604084015250949350505050565b600060018060a01b038087168352608060208401526130e66080840187612df6565b818616604085015283810360608501526131008186612df6565b98975050505050505050565b600060018060a01b0385168252836020830152606060408301526126f06060830184612df6565b600060018060a01b038916825287602083015260a0604083015261315a60a0830188612df6565b828103606084015261316d818789612d6b565b90508281036080840152613182818587612d6b565b9a9950505050505050505050565b600060018060a01b038a16825288602083015260c060408301526131b760c0830189612df6565b82810360608401526131ca81888a612d6b565b905082810360808401526131df818688612d6b565b905082810360a08401526131f38185612df6565b9b9a5050505050505050505050565b600060018060a01b0386168252846020830152608060408301526132296080830185612df6565b828103606084015261323b8185612df6565b979650505050505050565b60006060825261325a606083018789612d6b565b828103602084015261326d818688612d6b565b9150508260408301529695505050505050565b901515815260200190565b90815260200190565b93845260ff9290921660208401526040830152606082015260800190565b6000602082526125fc6020830184612df6565b6000602082526132d9602083018486612e22565b949350505050565b60208082526018908201527f45434453413a20696e76616c6964207369676e61747572650000000000000000604082015260600190565b6020808252818101527f537472696e67733a20686578206c656e67746820696e73756666696369656e74604082015260600190565b60208082526026908201527f4d696e74696e674d616e616765723a20554e535550504f525445445f52454c416040820152651657d0d0531360d21b606082015260800190565b6020808252601f908201527f45434453413a20696e76616c6964207369676e6174757265206c656e67746800604082015260600190565b60208082526026908201527f4f776e61626c653a206e6577206f776e657220697320746865207a65726f206160408201526564647265737360d01b606082015260800190565b6020808252601d908201527f52656c617965723a205349474e41545552455f49535f494e56414c4944000000604082015260600190565b6020808252601d908201527f4d696e746572526f6c653a2052454345495645525f49535f454d505459000000604082015260600190565b60208082526022908201527f45434453413a20696e76616c6964207369676e6174757265202773272076616c604082015261756560f01b606082015260800190565b6020808252602e908201527f496e697469616c697a61626c653a20636f6e747261637420697320616c72656160408201526d191e481a5b9a5d1a585b1a5e995960921b606082015260800190565b6020808252818101527f4d696e746572526f6c653a2043414c4c45525f49535f4e4f545f4d494e544552604082015260600190565b60208082526022908201527f45434453413a20696e76616c6964207369676e6174757265202776272076616c604082015261756560f01b606082015260800190565b60208082526024908201527f4d696e74696e674d616e616765723a205349474e45525f49535f4e4f545f4d49604082015263272a22a960e11b606082015260800190565b6020808252818101527f4f776e61626c653a2063616c6c6572206973206e6f7420746865206f776e6572604082015260600190565b6020808252601b908201527f4d696e74696e674d616e616765723a204c4142454c5f454d5054590000000000604082015260600190565b60208082526022908201527f4d696e74696e674d616e616765723a20544c445f4e4f545f5245474953544552604082015261115160f21b606082015260800190565b6020808252602f908201527f416363657373436f6e74726f6c3a2063616e206f6e6c792072656e6f756e636560408201526e103937b632b9903337b91039b2b63360891b606082015260800190565b60009081526020902090565b600082198211156136e5576136e56137a2565b500190565b6000816000190483118215151615613704576137046137a2565b500290565b60005b8381101561372457818101518382015260200161370c565b838111156107385750506000910152565b600081613744576137446137a2565b506000190190565b60028104600182168061376057607f821691505b6020821081141561378157634e487b7160e01b600052602260045260246000fd5b50919050565b600060001982141561379b5761379b6137a2565b5060010190565b634e487b7160e01b600052601160045260246000fd5b634e487b7160e01b600052604160045260246000fd5b6001600160a01b038116811461087257600080fdfe9f2df0fed2c77648de5860a4cc508cd0818c85b8b8a1ab4ceeef8d981c8956a60f4a10a4f46c288cea365fcf45cccf0e9d901b945b9829ccdb54c10dc3cb7a6fa2646970667358221220e49b0b6829007c2c6956c0666acb71b5a7575a07de4b34bcf622cdde782292d464736f6c63430008000033",
  "linkReferences": {},
  "deployedLinkReferences": {}
}