{
  "_format": "hh-sol-artifact-1",
  "contractName": "MintingManager",
  "sourceName": "contracts/MintingManager.sol",
  "abi": [
    {
      "anonymous": false,
      "inputs": [
        {
          "indexed": false,
          "internalType": "uint256",
          "name": "tokenId",
          "type": "uint256"
        }
      ],
      "name": "Blocked",
      "type": "event"
    },
    {
      "anonymous": false,
      "inputs": [
        {
          "indexed": true,
          "internalType": "address",
          "name": "previousOwner",
          "type": "address"
        },
        {
          "indexed": true,
          "internalType": "address",
          "name": "newOwner",
          "type": "address"
        }
      ],
      "name": "OwnershipTransferred",
      "type": "event"
    },
    {
      "anonymous": false,
      "inputs": [
        {
          "indexed": true,
          "internalType": "address",
          "name": "sender",
          "type": "address"
        },
        {
          "indexed": true,
          "internalType": "address",
          "name": "signer",
          "type": "address"
        },
        {
          "indexed": true,
          "internalType": "bytes4",
          "name": "funcSig",
          "type": "bytes4"
        },
        {
          "indexed": false,
          "internalType": "bytes32",
          "name": "digest",
          "type": "bytes32"
        }
      ],
      "name": "Relayed",
      "type": "event"
    },
    {
      "anonymous": false,
      "inputs": [
        {
          "indexed": true,
          "internalType": "bytes32",
          "name": "role",
          "type": "bytes32"
        },
        {
          "indexed": true,
          "internalType": "bytes32",
          "name": "previousAdminRole",
          "type": "bytes32"
        },
        {
          "indexed": true,
          "internalType": "bytes32",
          "name": "newAdminRole",
          "type": "bytes32"
        }
      ],
      "name": "RoleAdminChanged",
      "type": "event"
    },
    {
      "anonymous": false,
      "inputs": [
        {
          "indexed": true,
          "internalType": "bytes32",
          "name": "role",
          "type": "bytes32"
        },
        {
          "indexed": true,
          "internalType": "address",
          "name": "account",
          "type": "address"
        },
        {
          "indexed": true,
          "internalType": "address",
          "name": "sender",
          "type": "address"
        }
      ],
      "name": "RoleGranted",
      "type": "event"
    },
    {
      "anonymous": false,
      "inputs": [
        {
          "indexed": true,
          "internalType": "bytes32",
          "name": "role",
          "type": "bytes32"
        },
        {
          "indexed": true,
          "internalType": "address",
          "name": "account",
          "type": "address"
        },
        {
          "indexed": true,
          "internalType": "address",
          "name": "sender",
          "type": "address"
        }
      ],
      "name": "RoleRevoked",
      "type": "event"
    },
    {
      "inputs": [],
      "name": "DEFAULT_ADMIN_ROLE",
      "outputs": [
        {
          "internalType": "bytes32",
          "name": "",
          "type": "bytes32"
        }
      ],
      "stateMutability": "view",
      "type": "function"
    },
    {
      "inputs": [],
      "name": "MINTER_ROLE",
      "outputs": [
        {
          "internalType": "bytes32",
          "name": "",
          "type": "bytes32"
        }
      ],
      "stateMutability": "view",
      "type": "function"
    },
    {
      "inputs": [],
      "name": "NAME",
      "outputs": [
        {
          "internalType": "string",
          "name": "",
          "type": "string"
        }
      ],
      "stateMutability": "view",
      "type": "function"
    },
    {
      "inputs": [],
      "name": "VERSION",
      "outputs": [
        {
          "internalType": "string",
          "name": "",
          "type": "string"
        }
      ],
      "stateMutability": "view",
      "type": "function"
    },
    {
      "inputs": [
        {
          "internalType": "address",
          "name": "account",
          "type": "address"
        }
      ],
      "name": "addMinter",
      "outputs": [],
      "stateMutability": "nonpayable",
      "type": "function"
    },
    {
      "inputs": [
        {
          "internalType": "address[]",
          "name": "accounts",
          "type": "address[]"
        }
      ],
      "name": "addMinters",
      "outputs": [],
      "stateMutability": "nonpayable",
      "type": "function"
    },
    {
      "inputs": [
        {
          "internalType": "uint256[]",
          "name": "tokenIds",
          "type": "uint256[]"
        }
      ],
      "name": "areBlocked",
      "outputs": [
        {
          "internalType": "bool[]",
          "name": "values",
          "type": "bool[]"
        }
      ],
      "stateMutability": "view",
      "type": "function"
    },
    {
      "inputs": [
        {
          "internalType": "uint256",
          "name": "tokenId",
          "type": "uint256"
        }
      ],
      "name": "blocklist",
      "outputs": [],
      "stateMutability": "nonpayable",
      "type": "function"
    },
    {
      "inputs": [
        {
          "internalType": "uint256[]",
          "name": "tokenIds",
          "type": "uint256[]"
        }
      ],
      "name": "blocklistAll",
      "outputs": [],
      "stateMutability": "nonpayable",
      "type": "function"
    },
    {
      "inputs": [
        {
          "internalType": "uint256",
          "name": "tld",
          "type": "uint256"
        },
        {
          "internalType": "string",
          "name": "label",
          "type": "string"
        }
      ],
      "name": "claim",
      "outputs": [],
      "stateMutability": "nonpayable",
      "type": "function"
    },
    {
      "inputs": [
        {
          "internalType": "address",
          "name": "to",
          "type": "address"
        },
        {
          "internalType": "uint256",
          "name": "tld",
          "type": "uint256"
        },
        {
          "internalType": "string",
          "name": "label",
          "type": "string"
        }
      ],
      "name": "claimTo",
      "outputs": [],
      "stateMutability": "nonpayable",
      "type": "function"
    },
    {
      "inputs": [
        {
          "internalType": "address",
          "name": "to",
          "type": "address"
        },
        {
          "internalType": "uint256",
          "name": "tld",
          "type": "uint256"
        },
        {
          "internalType": "string",
          "name": "label",
          "type": "string"
        },
        {
          "internalType": "string[]",
          "name": "keys",
          "type": "string[]"
        },
        {
          "internalType": "string[]",
          "name": "values",
          "type": "string[]"
        }
      ],
      "name": "claimToWithRecords",
      "outputs": [],
      "stateMutability": "nonpayable",
      "type": "function"
    },
    {
      "inputs": [
        {
          "internalType": "address payable",
          "name": "receiver",
          "type": "address"
        }
      ],
      "name": "closeMinter",
      "outputs": [],
      "stateMutability": "payable",
      "type": "function"
    },
    {
      "inputs": [],
      "name": "cnsMintingController",
      "outputs": [
        {
          "internalType": "contract IMintingController",
          "name": "",
          "type": "address"
        }
      ],
      "stateMutability": "view",
      "type": "function"
    },
    {
      "inputs": [],
      "name": "cnsResolver",
      "outputs": [
        {
          "internalType": "contract IResolver",
          "name": "",
          "type": "address"
        }
      ],
      "stateMutability": "view",
      "type": "function"
    },
    {
      "inputs": [],
      "name": "cnsURIPrefixController",
      "outputs": [
        {
          "internalType": "contract IURIPrefixController",
          "name": "",
          "type": "address"
        }
      ],
      "stateMutability": "view",
      "type": "function"
    },
    {
      "inputs": [
        {
          "internalType": "bytes32",
          "name": "role",
          "type": "bytes32"
        }
      ],
      "name": "getRoleAdmin",
      "outputs": [
        {
          "internalType": "bytes32",
          "name": "",
          "type": "bytes32"
        }
      ],
      "stateMutability": "view",
      "type": "function"
    },
    {
      "inputs": [
        {
          "internalType": "bytes32",
          "name": "role",
          "type": "bytes32"
        },
        {
          "internalType": "address",
          "name": "account",
          "type": "address"
        }
      ],
      "name": "grantRole",
      "outputs": [],
      "stateMutability": "nonpayable",
      "type": "function"
    },
    {
      "inputs": [
        {
          "internalType": "bytes32",
          "name": "role",
          "type": "bytes32"
        },
        {
          "internalType": "address",
          "name": "account",
          "type": "address"
        }
      ],
      "name": "hasRole",
      "outputs": [
        {
          "internalType": "bool",
          "name": "",
          "type": "bool"
        }
      ],
      "stateMutability": "view",
      "type": "function"
    },
    {
      "inputs": [
        {
          "internalType": "contract IUNSRegistry",
          "name": "unsRegistry_",
          "type": "address"
        },
        {
          "internalType": "contract IMintingController",
          "name": "cnsMintingController_",
          "type": "address"
        },
        {
          "internalType": "contract IURIPrefixController",
          "name": "cnsURIPrefixController_",
          "type": "address"
        },
        {
          "internalType": "contract IResolver",
          "name": "cnsResolver_",
          "type": "address"
        },
        {
          "internalType": "address",
          "name": "forwarder",
          "type": "address"
        }
      ],
      "name": "initialize",
      "outputs": [],
      "stateMutability": "nonpayable",
      "type": "function"
    },
    {
      "inputs": [
        {
          "internalType": "uint256",
          "name": "tokenId",
          "type": "uint256"
        }
      ],
      "name": "isBlocked",
      "outputs": [
        {
          "internalType": "bool",
          "name": "",
          "type": "bool"
        }
      ],
      "stateMutability": "view",
      "type": "function"
    },
    {
      "inputs": [
        {
          "internalType": "address",
          "name": "account",
          "type": "address"
        }
      ],
      "name": "isMinter",
      "outputs": [
        {
          "internalType": "bool",
          "name": "",
          "type": "bool"
        }
      ],
      "stateMutability": "view",
      "type": "function"
    },
    {
      "inputs": [
        {
          "internalType": "address",
          "name": "forwarder",
          "type": "address"
        }
      ],
      "name": "isTrustedForwarder",
      "outputs": [
        {
          "internalType": "bool",
          "name": "",
          "type": "bool"
        }
      ],
      "stateMutability": "view",
      "type": "function"
    },
    {
      "inputs": [
        {
          "internalType": "address",
          "name": "to",
          "type": "address"
        },
        {
          "internalType": "uint256",
          "name": "tld",
          "type": "uint256"
        },
        {
          "internalType": "string",
          "name": "label",
          "type": "string"
        }
      ],
      "name": "mintSLD",
      "outputs": [],
      "stateMutability": "nonpayable",
      "type": "function"
    },
    {
      "inputs": [
        {
          "internalType": "address",
          "name": "to",
          "type": "address"
        },
        {
          "internalType": "uint256",
          "name": "tld",
          "type": "uint256"
        },
        {
          "internalType": "string",
          "name": "label",
          "type": "string"
        },
        {
          "internalType": "string[]",
          "name": "keys",
          "type": "string[]"
        },
        {
          "internalType": "string[]",
          "name": "values",
          "type": "string[]"
        }
      ],
      "name": "mintSLDWithRecords",
      "outputs": [],
      "stateMutability": "nonpayable",
      "type": "function"
    },
    {
      "inputs": [],
      "name": "owner",
      "outputs": [
        {
          "internalType": "address",
          "name": "",
          "type": "address"
        }
      ],
      "stateMutability": "view",
      "type": "function"
    },
    {
      "inputs": [
        {
          "internalType": "bytes",
          "name": "data",
          "type": "bytes"
        },
        {
          "internalType": "bytes",
          "name": "signature",
          "type": "bytes"
        }
      ],
      "name": "relay",
      "outputs": [
        {
          "internalType": "bytes",
          "name": "",
          "type": "bytes"
        }
      ],
      "stateMutability": "nonpayable",
      "type": "function"
    },
    {
      "inputs": [
        {
          "internalType": "address",
          "name": "account",
          "type": "address"
        }
      ],
      "name": "removeMinter",
      "outputs": [],
      "stateMutability": "nonpayable",
      "type": "function"
    },
    {
      "inputs": [
        {
          "internalType": "address[]",
          "name": "accounts",
          "type": "address[]"
        }
      ],
      "name": "removeMinters",
      "outputs": [],
      "stateMutability": "nonpayable",
      "type": "function"
    },
    {
      "inputs": [],
      "name": "renounceMinter",
      "outputs": [],
      "stateMutability": "nonpayable",
      "type": "function"
    },
    {
      "inputs": [],
      "name": "renounceOwnership",
      "outputs": [],
      "stateMutability": "nonpayable",
      "type": "function"
    },
    {
      "inputs": [
        {
          "internalType": "bytes32",
          "name": "role",
          "type": "bytes32"
        },
        {
          "internalType": "address",
          "name": "account",
          "type": "address"
        }
      ],
      "name": "renounceRole",
      "outputs": [],
      "stateMutability": "nonpayable",
      "type": "function"
    },
    {
      "inputs": [
        {
          "internalType": "bytes32",
          "name": "role",
          "type": "bytes32"
        },
        {
          "internalType": "address",
          "name": "account",
          "type": "address"
        }
      ],
      "name": "revokeRole",
      "outputs": [],
      "stateMutability": "nonpayable",
      "type": "function"
    },
    {
      "inputs": [
        {
          "internalType": "address payable",
          "name": "receiver",
          "type": "address"
        }
      ],
      "name": "rotateMinter",
      "outputs": [],
      "stateMutability": "payable",
      "type": "function"
    },
    {
      "inputs": [
        {
          "internalType": "address",
          "name": "to",
          "type": "address"
        },
        {
          "internalType": "uint256",
          "name": "tld",
          "type": "uint256"
        },
        {
          "internalType": "string",
          "name": "label",
          "type": "string"
        }
      ],
      "name": "safeMintSLD",
      "outputs": [],
      "stateMutability": "nonpayable",
      "type": "function"
    },
    {
      "inputs": [
        {
          "internalType": "address",
          "name": "to",
          "type": "address"
        },
        {
          "internalType": "uint256",
          "name": "tld",
          "type": "uint256"
        },
        {
          "internalType": "string",
          "name": "label",
          "type": "string"
        },
        {
          "internalType": "bytes",
          "name": "data",
          "type": "bytes"
        }
      ],
      "name": "safeMintSLD",
      "outputs": [],
      "stateMutability": "nonpayable",
      "type": "function"
    },
    {
      "inputs": [
        {
          "internalType": "address",
          "name": "to",
          "type": "address"
        },
        {
          "internalType": "uint256",
          "name": "tld",
          "type": "uint256"
        },
        {
          "internalType": "string",
          "name": "label",
          "type": "string"
        },
        {
          "internalType": "string[]",
          "name": "keys",
          "type": "string[]"
        },
        {
          "internalType": "string[]",
          "name": "values",
          "type": "string[]"
        }
      ],
      "name": "safeMintSLDWithRecords",
      "outputs": [],
      "stateMutability": "nonpayable",
      "type": "function"
    },
    {
      "inputs": [
        {
          "internalType": "address",
          "name": "to",
          "type": "address"
        },
        {
          "internalType": "uint256",
          "name": "tld",
          "type": "uint256"
        },
        {
          "internalType": "string",
          "name": "label",
          "type": "string"
        },
        {
          "internalType": "string[]",
          "name": "keys",
          "type": "string[]"
        },
        {
          "internalType": "string[]",
          "name": "values",
          "type": "string[]"
        },
        {
          "internalType": "bytes",
          "name": "data",
          "type": "bytes"
        }
      ],
      "name": "safeMintSLDWithRecords",
      "outputs": [],
      "stateMutability": "nonpayable",
      "type": "function"
    },
    {
      "inputs": [
        {
          "internalType": "address",
          "name": "forwarder",
          "type": "address"
        }
      ],
      "name": "setForwarder",
      "outputs": [],
      "stateMutability": "nonpayable",
      "type": "function"
    },
    {
      "inputs": [
        {
          "internalType": "address",
          "name": "resolver",
          "type": "address"
        }
      ],
      "name": "setResolver",
      "outputs": [],
      "stateMutability": "nonpayable",
      "type": "function"
    },
    {
      "inputs": [
        {
          "internalType": "string",
          "name": "prefix",
          "type": "string"
        }
      ],
      "name": "setTokenURIPrefix",
      "outputs": [],
      "stateMutability": "nonpayable",
      "type": "function"
    },
    {
      "inputs": [
        {
          "internalType": "bytes4",
          "name": "interfaceId",
          "type": "bytes4"
        }
      ],
      "name": "supportsInterface",
      "outputs": [
        {
          "internalType": "bool",
          "name": "",
          "type": "bool"
        }
      ],
      "stateMutability": "view",
      "type": "function"
    },
    {
      "inputs": [
        {
          "internalType": "address",
          "name": "newOwner",
          "type": "address"
        }
      ],
      "name": "transferOwnership",
      "outputs": [],
      "stateMutability": "nonpayable",
      "type": "function"
    },
    {
      "inputs": [],
      "name": "unsRegistry",
      "outputs": [
        {
          "internalType": "contract IUNSRegistry",
          "name": "",
          "type": "address"
        }
      ],
      "stateMutability": "view",
      "type": "function"
    }
  ],
  "bytecode": "0x608060405234801561001057600080fd5b50613e7c806100206000396000f3fe6080604052600436106102675760003560e01c806371e2a65711610144578063aa271e1a116100b6578063ceeb4f501161007a578063ceeb4f50146106fb578063d53913931461071b578063d547741f14610730578063e47d6cc614610750578063f2fde38b14610770578063ffa1ad741461079057610267565b8063aa271e1a14610666578063ae2ad90314610686578063b0aa98c7146106a6578063b9998a24146106c6578063cc2c3fc4146106e657610267565b8063983b2d5611610108578063983b2d56146105d257806398650275146105f257806399e0dd7c14610607578063a217fddf14610627578063a3f4df7e1461063c578063a849d65c1461065157610267565b806371e2a6571461054a57806381c81d351461056a5780638da5cb5b1461057d578063906cecc11461059257806391d14854146105b257610267565b8063463c4bcb116101dd57806358839d6b116101a157806358839d6b146104ad5780635b6fa8db146104cd5780635fc1964f146104e2578063634486da146105025780636a2d225614610515578063715018a61461053557610267565b8063463c4bcb146104005780634c1819e0146104205780634e543b2614610440578063564a515814610460578063572b6c051461048d57610267565b806327bbd2251161022f57806327bbd2251461033e5780632f2ff15d1461035e5780633092afd51461037e57806336568abe1461039e57806339ccf4d0146103be5780633f41b614146103de57610267565b806301ffc9a71461026c5780630e36a87d146102a25780631459457a146102cf578063248a9ca3146102f1578063268b15ed1461031e575b600080fd5b34801561027857600080fd5b5061028c6102873660046131a2565b6107a5565b604051610299919061386c565b60405180910390f35b3480156102ae57600080fd5b506102c26102bd3660046130fc565b6107d2565b60405161029991906137ec565b3480156102db57600080fd5b506102ef6102ea366004613226565b6108a9565b005b3480156102fd57600080fd5b5061031161030c36600461315b565b610ceb565b6040516102999190613877565b34801561032a57600080fd5b506102ef6103393660046132c9565b610d00565b34801561034a57600080fd5b506102ef610359366004612e28565b610d5d565b34801561036a57600080fd5b506102ef610379366004613173565b610e20565b34801561038a57600080fd5b506102ef610399366004612db3565b610e49565b3480156103aa57600080fd5b506102ef6103b9366004613173565b610e94565b3480156103ca57600080fd5b506102ef6103d9366004612e28565b610eda565b3480156103ea57600080fd5b506103f3610f84565b60405161029991906135d7565b34801561040c57600080fd5b506102ef61041b36600461315b565b610f93565b34801561042c57600080fd5b506102ef61043b366004612dcf565b610fc3565b34801561044c57600080fd5b506102ef61045b366004612db3565b611049565b34801561046c57600080fd5b5061048061047b3660046131ca565b6110aa565b604051610299919061389e565b34801561049957600080fd5b5061028c6104a8366004612db3565b611275565b3480156104b957600080fd5b506102ef6104c8366004612fb4565b6112b6565b3480156104d957600080fd5b506103f3611365565b3480156104ee57600080fd5b506102ef6104fd36600461303c565b611374565b6102ef610510366004612db3565b611401565b34801561052157600080fd5b506102ef610530366004612ed9565b611494565b34801561054157600080fd5b506102ef611581565b34801561055657600080fd5b506102ef61056536600461303c565b61160a565b6102ef610578366004612db3565b611697565b34801561058957600080fd5b506103f36116e4565b34801561059e57600080fd5b506102ef6105ad366004612dcf565b6116f4565b3480156105be57600080fd5b5061028c6105cd366004613173565b61173f565b3480156105de57600080fd5b506102ef6105ed366004612db3565b61176a565b3480156105fe57600080fd5b506102ef6117b2565b34801561061357600080fd5b506102ef610622366004613296565b6117ce565b34801561063357600080fd5b506103116118e4565b34801561064857600080fd5b506104806118e9565b34801561065d57600080fd5b506103f3611919565b34801561067257600080fd5b5061028c610681366004612db3565b611928565b34801561069257600080fd5b506102ef6106a1366004612dcf565b611942565b3480156106b257600080fd5b5061028c6106c136600461315b565b6119e6565b3480156106d257600080fd5b506102ef6106e1366004612db3565b611a46565b3480156106f257600080fd5b506103f3611a8e565b34801561070757600080fd5b506102ef610716366004612e28565b611a9d565b34801561072757600080fd5b50610311611af1565b34801561073c57600080fd5b506102ef61074b366004613173565b611b03565b34801561075c57600080fd5b506102ef61076b3660046130fc565b611b22565b34801561077c57600080fd5b506102ef61078b366004612db3565b611b95565b34801561079c57600080fd5b50610480611be8565b60006001600160e01b03198216637965db0b60e01b14806107ca57506107ca82611c09565b90505b919050565b6060816001600160401b038111156107fa57634e487b7160e01b600052604160045260246000fd5b604051908082528060200260200182016040528015610823578160200160208202803683370190505b50905060005b828110156108a25761086084848381811061085457634e487b7160e01b600052603260045260246000fd5b905060200201356119e6565b82828151811061088057634e487b7160e01b600052603260045260246000fd5b911515602092830291909101909101528061089a81613daa565b915050610829565b5092915050565b600054610100900460ff16806108c2575060005460ff16155b6108e75760405162461bcd60e51b81526004016108de90613ae3565b60405180910390fd5b600054610100900460ff16158015610912576000805460ff1961ff0019909116610100171660011790555b60c980546001600160a01b038089166001600160a01b03199283161790925560ca805488841690831617905560cb805487841690831617905560cc805492861692909116919091179055610964611c22565b61096c611cee565b61097582611d74565b61097e30611df2565b60408051808201909152600681526563727970746f60d01b6020808301918252600080516020613e2783398151915260005260cd905290516109e1917f9535d3ea47c5e1398d3405b4fadc73de6b1b1e6a66f674a8886ab7a6c873a39091612c88565b50604080516101408101825260066101008201908152651dd85b1b195d60d21b610120830152815281518083018352600481526331b7b4b760e11b602082810191909152808301919091528251808401845260018152600f60fb1b8183015282840152825180840184526003808252621b999d60ea1b82840152606084019190915283518085018552600a815269313637b1b5b1b430b4b760b11b8184015260808401528351808501855260078152663134ba31b7b4b760c91b8184015260a0840152835180850185528181526207070760eb1b8184015260c0840152835180850190945283526264616f60e81b9083015260e081019190915260005b6008811015610ccf57600080838360088110610b0a57634e487b7160e01b600052603260045260246000fd5b6020020151604051602001610b1f9190613430565b60405160208183030381529060405280519060200120604051602001610b46929190613412565b6040516020818303038152906040528051906020012060001c9050828260088110610b8157634e487b7160e01b600052603260045260246000fd5b602002015160cd60008381526020019081526020016000209080519060200190610bac929190612c88565b5060c954604051634f558e7960e01b81526001600160a01b0390911690634f558e7990610bdd908490600401613877565b60206040518083038186803b158015610bf557600080fd5b505afa158015610c09573d6000803e3d6000fd5b505050506040513d601f19601f82011682018060405250810190610c2d919061313b565b610cbc5760c9546001600160a01b031663d3fc986461dead83868660088110610c6657634e487b7160e01b600052603260045260246000fd5b60200201516040518463ffffffff1660e01b8152600401610c89939291906136b2565b600060405180830381600087803b158015610ca357600080fd5b505af1158015610cb7573d6000803e3d6000fd5b505050505b5080610cc781613daa565b915050610ade565b50508015610ce3576000805461ff00191690555b505050505050565b60009081526097602052604090206001015490565b600083815260cd60205260408120805485929190610d1d90613d6f565b905011610d3c5760405162461bcd60e51b81526004016108de90613c58565b610d57610d47611e0a565b85610d528686611e19565b611e45565b50505050565b610d68610681611e0a565b610d845760405162461bcd60e51b81526004016108de90613b31565b600087815260cd60205260408120805489929190610da190613d6f565b905011610dc05760405162461bcd60e51b81526004016108de90613c58565b610e15898989898080601f016020809104026020016040519081016040528093929190818152602001838380828437600092018290525060408051602081019091529081528c93508b92508a91508990611f53565b505050505050505050565b610e2982610ceb565b610e3a81610e35611e0a565b6120e5565b610e448383612149565b505050565b610e51611e0a565b6001600160a01b0316610e626116e4565b6001600160a01b031614610e885760405162461bcd60e51b81526004016108de90613bec565b610e91816121d0565b50565b610e9c611e0a565b6001600160a01b0316816001600160a01b031614610ecc5760405162461bcd60e51b81526004016108de90613c9a565b610ed682826121e8565b5050565b610ee5610681611e0a565b610f015760405162461bcd60e51b81526004016108de90613b31565b600087815260cd60205260408120805489929190610f1e90613d6f565b905011610f3d5760405162461bcd60e51b81526004016108de90613c58565b610e15898989898080601f0160208091040260200160405190810160405280939291908181526020018383808284376000920191909152508b92508a91508990508861226d565b60c9546001600160a01b031681565b610f9e610681611e0a565b610fba5760405162461bcd60e51b81526004016108de90613b31565b610e91816123fa565b610fce610681611e0a565b610fea5760405162461bcd60e51b81526004016108de90613b31565b600083815260cd6020526040812080548592919061100790613d6f565b9050116110265760405162461bcd60e51b81526004016108de90613c58565b611042858585856040518060200160405280600081525061247f565b5050505050565b611051611e0a565b6001600160a01b03166110626116e4565b6001600160a01b0316146110885760405162461bcd60e51b81526004016108de90613bec565b60cc80546001600160a01b0319166001600160a01b0392909216919091179055565b6060600085856040516110be929190613420565b60405180910390209050600061113b85858080601f01602080910402602001604051908101604052809392919081815260200183838082843760009201919091525050604051611135925061111a9150869030906020016133f2565b60405160208183030381529060405280519060200120612607565b90612637565b905060008088888080601f016020809104026020016040519081016040528093929190818152602001838380828437600092019190915250505050602081015192509050611188836126bd565b611193828a8a6126eb565b600080306001600160a01b03168b8b6040516111b0929190613420565b6000604051808303816000865af19150503d80600081146111ed576040519150601f19603f3d011682016040523d82523d6000602084013e6111f2565b606091505b5090925090508161120a576040513d806000833e8082fd5b6001600160e01b031984166001600160a01b038616611227611e0a565b6001600160a01b03167f9490f91465d0d2c12728b9ad47d5f1dd2ac3ef39394796e54a48b94db0b337258960405161125f9190613877565b60405180910390a49a9950505050505050505050565b60006112a07f893ef2ea16c023f61d4f55d3e6ee3fc3f2fbfd478461323dbc2fbf919047086e6116f1565b546001600160a01b038381169116149050919050565b6112c1610681611e0a565b6112dd5760405162461bcd60e51b81526004016108de90613b31565b600085815260cd602052604081208054879291906112fa90613d6f565b9050116113195760405162461bcd60e51b81526004016108de90613c58565b61135c8787878787878080601f01602080910402602001604051908101604052809392919081815260200183838082843760009201919091525061247f92505050565b50505050505050565b60cc546001600160a01b031681565b61137c611e0a565b6001600160a01b031661138d6116e4565b6001600160a01b0316146113b35760405162461bcd60e51b81526004016108de90613bec565b60005b8151811015610ed6576113ef8282815181106113e257634e487b7160e01b600052603260045260246000fd5b60200260200101516121d0565b806113f981613daa565b9150506113b6565b61140c610681611e0a565b6114285760405162461bcd60e51b81526004016108de90613b31565b6001600160a01b03811661144e5760405162461bcd60e51b81526004016108de90613a33565b61145781611df2565b61145f6117b2565b6040516001600160a01b038216903480156108fc02916000818181858888f19350505050158015610ed6573d6000803e3d6000fd5b61149f610681611e0a565b6114bb5760405162461bcd60e51b81526004016108de90613b31565b600089815260cd6020526040812080548b9291906114d890613d6f565b9050116114f75760405162461bcd60e51b81526004016108de90613c58565b6115748b8b8b8b8080601f01602080910402602001604051908101604052809392919081815260200183838082843760009201919091525050604080516020601f8b018190048102820181019092528981528e93508d92508c918c91908c908c9081908401838280828437600092019190915250611f5392505050565b5050505050505050505050565b611589611e0a565b6001600160a01b031661159a6116e4565b6001600160a01b0316146115c05760405162461bcd60e51b81526004016108de90613bec565b6033546040516000916001600160a01b0316907f8be0079c531659141344cd1fd0a4f28419497f9722a3daafe3b4186f6b6457e0908390a3603380546001600160a01b0319169055565b611612611e0a565b6001600160a01b03166116236116e4565b6001600160a01b0316146116495760405162461bcd60e51b81526004016108de90613bec565b60005b8151811015610ed65761168582828151811061167857634e487b7160e01b600052603260045260246000fd5b6020026020010151611df2565b8061168f81613daa565b91505061164c565b6116a2610681611e0a565b6116be5760405162461bcd60e51b81526004016108de90613b31565b6001600160a01b0381166114575760405162461bcd60e51b81526004016108de90613a33565b6033546001600160a01b03165b90565b600083815260cd6020526040812080548592919061171190613d6f565b9050116117305760405162461bcd60e51b81526004016108de90613c58565b6110428585610d528686611e19565b60009182526097602090815260408084206001600160a01b0393909316845291905290205460ff1690565b611772611e0a565b6001600160a01b03166117836116e4565b6001600160a01b0316146117a95760405162461bcd60e51b81526004016108de90613bec565b610e9181611df2565b6117cc600080516020613e078339815191526103b9611e0a565b565b6117d6611e0a565b6001600160a01b03166117e76116e4565b6001600160a01b03161461180d5760405162461bcd60e51b81526004016108de90613bec565b60c954604051632678375f60e21b81526001600160a01b03909116906399e0dd7c9061183f90859085906004016138b1565b600060405180830381600087803b15801561185957600080fd5b505af115801561186d573d6000803e3d6000fd5b505060cb546001600160a01b0316159150610ed690505760cb54604051632678375f60e21b81526001600160a01b03909116906399e0dd7c906118b690859085906004016138b1565b600060405180830381600087803b1580156118d057600080fd5b505af1158015610ce3573d6000803e3d6000fd5b600081565b604051806040016040528060148152602001732aa7299d1026b4b73a34b7339026b0b730b3b2b960611b81525081565b60cb546001600160a01b031681565b60006107ca600080516020613e078339815191528361173f565b61194d610681611e0a565b6119695760405162461bcd60e51b81526004016108de90613b31565b600083815260cd6020526040812080548592919061198690613d6f565b9050116119a55760405162461bcd60e51b81526004016108de90613c58565b611042858585858080601f016020809104026020016040519081016040528093929190818152602001838380828437600092019190915250611e4592505050565b6000611a3c7f1ec047073e2c8b15660901dbfdb6e3ff6365bd699dd9f95dcc6eab5448bebd6960001b83604051602001611a21929190613412565b604051602081830303815290604052805190602001206116f1565b5460ff1692915050565b611a4e611e0a565b6001600160a01b0316611a5f6116e4565b6001600160a01b031614611a855760405162461bcd60e51b81526004016108de90613bec565b610e91816127a7565b60ca546001600160a01b031681565b600087815260cd60205260408120805489929190611aba90613d6f565b905011611ad95760405162461bcd60e51b81526004016108de90613c58565b610e158989611ae88a8a611e19565b8888888861226d565b600080516020613e0783398151915281565b611b0c82610ceb565b611b1881610e35611e0a565b610e4483836121e8565b611b2d610681611e0a565b611b495760405162461bcd60e51b81526004016108de90613b31565b60005b81811015610e4457611b83838383818110611b7757634e487b7160e01b600052603260045260246000fd5b905060200201356123fa565b80611b8d81613daa565b915050611b4c565b611b9d611e0a565b6001600160a01b0316611bae6116e4565b6001600160a01b031614611bd45760405162461bcd60e51b81526004016108de90613bec565b611bdd816127f2565b610e916000826128b3565b604051806040016040528060058152602001640302e322e360dc1b81525081565b6001600160e01b031981166301ffc9a760e01b14919050565b600054610100900460ff1680611c3b575060005460ff16155b611c575760405162461bcd60e51b81526004016108de90613ae3565b600054610100900460ff16158015611c82576000805460ff1961ff0019909116610100171660011790555b6000611c8c611e0a565b603380546001600160a01b0319166001600160a01b038316908117909155604051919250906000907f8be0079c531659141344cd1fd0a4f28419497f9722a3daafe3b4186f6b6457e0908290a3508015610e91576000805461ff001916905550565b600054610100900460ff1680611d07575060005460ff16155b611d235760405162461bcd60e51b81526004016108de90613ae3565b600054610100900460ff16158015611d4e576000805460ff1961ff0019909116610100171660011790555b611d606000611d5b611e0a565b6128b3565b8015610e91576000805461ff001916905550565b600054610100900460ff1680611d8d575060005460ff16155b611da95760405162461bcd60e51b81526004016108de90613ae3565b600054610100900460ff16158015611dd4576000805460ff1961ff0019909116610100171660011790555b611ddd826127a7565b8015610ed6576000805461ff00191690555050565b610e91600080516020613e07833981519152826128b3565b6000611e146128bd565b905090565b60608282604051602001611e2e92919061353c565b604051602081830303815290604052905092915050565b6000611e5183836128eb565b9050611e5c81612967565b82600080516020613e278339815191521415611ee05760ca5460cc5460405163c36c212560e01b81526001600160a01b039283169263c36c212592611ea992899288921690600401613635565b600060405180830381600087803b158015611ec357600080fd5b505af1158015611ed7573d6000803e3d6000fd5b50505050610d57565b60c9546001600160a01b031663d3fc98648583611efd878761298d565b6040518463ffffffff1660e01b8152600401611f1b939291906136b2565b600060405180830381600087803b158015611f3557600080fd5b505af1158015611f49573d6000803e3d6000fd5b5050505050505050565b6000611f5f88886128eb565b9050611f6a81612967565b87600080516020613e2783398151915214156120635760ca5460cc54604051630f95e75b60e31b81526001600160a01b0392831692637caf3ad892611fb9928e928d921690889060040161366a565b600060405180830381600087803b158015611fd357600080fd5b505af1158015611fe7573d6000803e3d6000fd5b50508615915061205e90505760cc54604051633a0deb9d60e21b81526001600160a01b039091169063e837ae749061202b9089908990899089908890600401613832565b600060405180830381600087803b15801561204557600080fd5b505af1158015612059573d6000803e3d6000fd5b505050505b610e15565b60c9546001600160a01b031663efda4d3e8a836120808c8c61298d565b8a8a8a8a8a6040518963ffffffff1660e01b81526004016120a8989796959493929190613736565b600060405180830381600087803b1580156120c257600080fd5b505af11580156120d6573d6000803e3d6000fd5b50505050505050505050505050565b6120ef828261173f565b610ed657612107816001600160a01b031660146129b0565b6121128360206129b0565b604051602001612123929190613562565b60408051601f198184030181529082905262461bcd60e51b82526108de9160040161389e565b612153828261173f565b610ed65760008281526097602090815260408083206001600160a01b03851684529091529020805460ff1916600117905561218c611e0a565b6001600160a01b0316816001600160a01b0316837f2f8788117e7eff1d82e926ec794901d17c78024a50270940304540a733656f0d60405160405180910390a45050565b610e91600080516020613e0783398151915282611b03565b6121f2828261173f565b15610ed65760008281526097602090815260408083206001600160a01b03851684529091529020805460ff19169055612229611e0a565b6001600160a01b0316816001600160a01b0316837ff6391f5c32d9c69d2a47ea670b442974b53935d1edc7fd64eb21e047a839171b60405160405180910390a45050565b600061227987876128eb565b905061228481612967565b86600080516020613e27833981519152141561237b5760ca5460cc5460405163c36c212560e01b81526001600160a01b039283169263c36c2125926122d1928d928c921690600401613635565b600060405180830381600087803b1580156122eb57600080fd5b505af11580156122ff573d6000803e3d6000fd5b50508515915061237690505760cc54604051633a0deb9d60e21b81526001600160a01b039091169063e837ae74906123439088908890889088908890600401613832565b600060405180830381600087803b15801561235d57600080fd5b505af1158015612371573d6000803e3d6000fd5b505050505b611f49565b60c9546001600160a01b031663b0f5917789836123988b8b61298d565b898989896040518863ffffffff1660e01b81526004016123be97969594939291906136d9565b600060405180830381600087803b1580156123d857600080fd5b505af11580156123ec573d6000803e3d6000fd5b505050505050505050505050565b60016124357f1ec047073e2c8b15660901dbfdb6e3ff6365bd699dd9f95dcc6eab5448bebd6960001b83604051602001611a21929190613412565b805460ff19169115159190911790556040517f2ce5d9351b1d590d5a066db0d2dc7602d55f092506a83a7ee8c4d78ee357d75a90612474908390613877565b60405180910390a150565b60006124c18585858080601f0160208091040260200160405190810160405280939291908181526020018383808284376000920191909152506128eb92505050565b90506124cc81612967565b84600080516020613e2783398151915214156125555760ca5460cc54604051630f95e75b60e31b81526001600160a01b0392831692637caf3ad89261251e928b928a928a9291169089906004016135eb565b600060405180830381600087803b15801561253857600080fd5b505af115801561254c573d6000803e3d6000fd5b50505050610ce3565b60c954604080516020601f87018190048102820181019092528581526001600160a01b039092169163b55bc61791899185916125ad918b918b908b908190840183828082843760009201919091525061298d92505050565b866040518563ffffffff1660e01b81526004016125cd94939291906137a8565b600060405180830381600087803b1580156125e757600080fd5b505af11580156125fb573d6000803e3d6000fd5b50505050505050505050565b60008160405160200161261a919061350b565b604051602081830303815290604052805190602001209050919050565b6000806000808451604114156126615750505060208201516040830151606084015160001a6126a7565b84516040141561268f5750505060408201516020830151906001600160ff1b0381169060ff1c601b016126a7565b60405162461bcd60e51b81526004016108de9061397f565b6126b386828585612b68565b9695505050505050565b6126c681612c5e565b6126cf81611928565b610e915760405162461bcd60e51b81526004016108de90613ba8565b60006001600160e01b0319841663ae2ad90360e01b148061271c57506001600160e01b03198416630260c0cf60e51b145b8061273757506001600160e01b031984166358839d6b60e01b145b8061275257506001600160e01b0319841663039ccf4d60e41b145b8061276d57506001600160e01b031984166327bbd22560e01b145b8061278857506001600160e01b03198416633516912b60e11b145b905080610d575760405162461bcd60e51b81526004016108de90613939565b806127d17f893ef2ea16c023f61d4f55d3e6ee3fc3f2fbfd478461323dbc2fbf919047086e6116f1565b80546001600160a01b0319166001600160a01b039290921691909117905550565b6127fa611e0a565b6001600160a01b031661280b6116e4565b6001600160a01b0316146128315760405162461bcd60e51b81526004016108de90613bec565b6001600160a01b0381166128575760405162461bcd60e51b81526004016108de906139b6565b6033546040516001600160a01b038084169216907f8be0079c531659141344cd1fd0a4f28419497f9722a3daafe3b4186f6b6457e090600090a3603380546001600160a01b0319166001600160a01b0392909216919091179055565b610ed68282612149565b60006128c833611275565b156128dc575060331936013560601c6116f1565b6128e4612c84565b90506116f1565b600081516000141561290f5760405162461bcd60e51b81526004016108de90613c21565b82826040516020016129219190613430565b60405160208183030381529060405280519060200120604051602001612948929190613412565b60408051601f1981840301815291905280516020909101209392505050565b612970816119e6565b15610fba5760405162461bcd60e51b81526004016108de90613aac565b600082815260cd60209081526040918290209151606092611e2e9285920161344c565b606060006129bf836002613d0d565b6129ca906002613cf5565b6001600160401b038111156129ef57634e487b7160e01b600052604160045260246000fd5b6040519080825280601f01601f191660200182016040528015612a19576020820181803683370190505b509050600360fc1b81600081518110612a4257634e487b7160e01b600052603260045260246000fd5b60200101906001600160f81b031916908160001a905350600f60fb1b81600181518110612a7f57634e487b7160e01b600052603260045260246000fd5b60200101906001600160f81b031916908160001a9053506000612aa3846002613d0d565b612aae906001613cf5565b90505b6001811115612b42576f181899199a1a9b1b9c1cb0b131b232b360811b85600f1660108110612af057634e487b7160e01b600052603260045260246000fd5b1a60f81b828281518110612b1457634e487b7160e01b600052603260045260246000fd5b60200101906001600160f81b031916908160001a90535060049490941c93612b3b81613d58565b9050612ab1565b508315612b615760405162461bcd60e51b81526004016108de90613904565b9392505050565b60007f7fffffffffffffffffffffffffffffff5d576e7357a4501ddfe92f46681b20a0821115612baa5760405162461bcd60e51b81526004016108de90613a6a565b8360ff16601b1480612bbf57508360ff16601c145b612bdb5760405162461bcd60e51b81526004016108de90613b66565b600060018686868660405160008152602001604052604051612c009493929190613880565b6020604051602081039080840390855afa158015612c22573d6000803e3d6000fd5b5050604051601f1901519150506001600160a01b038116612c555760405162461bcd60e51b81526004016108de906138cd565b95945050505050565b6001600160a01b038116610e915760405162461bcd60e51b81526004016108de906139fc565b3390565b828054612c9490613d6f565b90600052602060002090601f016020900481019282612cb65760008555612cfc565b82601f10612ccf57805160ff1916838001178555612cfc565b82800160010185558215612cfc579182015b82811115612cfc578251825591602001919060010190612ce1565b50612d08929150612d0c565b5090565b5b80821115612d085760008155600101612d0d565b80356107cd81613df1565b60008083601f840112612d3d578182fd5b5081356001600160401b03811115612d53578182fd5b6020830191508360208083028501011115612d6d57600080fd5b9250929050565b60008083601f840112612d85578182fd5b5081356001600160401b03811115612d9b578182fd5b602083019150836020828501011115612d6d57600080fd5b600060208284031215612dc4578081fd5b8135612b6181613df1565b60008060008060608587031215612de4578283fd5b8435612def81613df1565b93506020850135925060408501356001600160401b03811115612e10578283fd5b612e1c87828801612d74565b95989497509550505050565b60008060008060008060008060a0898b031215612e43578384fd5b8835612e4e81613df1565b97506020890135965060408901356001600160401b0380821115612e70578586fd5b612e7c8c838d01612d74565b909850965060608b0135915080821115612e94578586fd5b612ea08c838d01612d2c565b909650945060808b0135915080821115612eb8578384fd5b50612ec58b828c01612d2c565b999c989b5096995094979396929594505050565b60008060008060008060008060008060c08b8d031215612ef7578182fd5b612f008b612d21565b995060208b0135985060408b01356001600160401b0380821115612f22578384fd5b612f2e8e838f01612d74565b909a50985060608d0135915080821115612f46578384fd5b612f528e838f01612d2c565b909850965060808d0135915080821115612f6a578384fd5b612f768e838f01612d2c565b909650945060a08d0135915080821115612f8e578384fd5b50612f9b8d828e01612d74565b915080935050809150509295989b9194979a5092959850565b60008060008060008060808789031215612fcc578182fd5b8635612fd781613df1565b95506020870135945060408701356001600160401b0380821115612ff9578384fd5b6130058a838b01612d74565b9096509450606089013591508082111561301d578384fd5b5061302a89828a01612d74565b979a9699509497509295939492505050565b6000602080838503121561304e578182fd5b82356001600160401b0380821115613064578384fd5b818501915085601f830112613077578384fd5b81358181111561308957613089613ddb565b838102604051858282010181811085821117156130a8576130a8613ddb565b604052828152858101935084860182860187018a10156130c6578788fd5b8795505b838610156130ef576130db81612d21565b8552600195909501949386019386016130ca565b5098975050505050505050565b6000806020838503121561310e578182fd5b82356001600160401b03811115613123578283fd5b61312f85828601612d2c565b90969095509350505050565b60006020828403121561314c578081fd5b81518015158114612b61578182fd5b60006020828403121561316c578081fd5b5035919050565b60008060408385031215613185578182fd5b82359150602083013561319781613df1565b809150509250929050565b6000602082840312156131b3578081fd5b81356001600160e01b031981168114612b61578182fd5b600080600080604085870312156131df578182fd5b84356001600160401b03808211156131f5578384fd5b61320188838901612d74565b90965094506020870135915080821115613219578384fd5b50612e1c87828801612d74565b600080600080600060a0868803121561323d578283fd5b853561324881613df1565b9450602086013561325881613df1565b9350604086013561326881613df1565b9250606086013561327881613df1565b9150608086013561328881613df1565b809150509295509295909350565b600080602083850312156132a8578182fd5b82356001600160401b038111156132bd578283fd5b61312f85828601612d74565b6000806000604084860312156132dd578081fd5b8335925060208401356001600160401b038111156132f9578182fd5b61330586828701612d74565b9497909650939450505050565b818352602080840193600091908185020181018584845b8781101561338f5782840389528135601e19883603018112613349578687fd5b870180356001600160401b03811115613360578788fd5b80360389131561336e578788fd5b61337b86828985016133c8565b9a87019a9550505090840190600101613329565b5091979650505050505050565b600081518084526133b4816020860160208601613d2c565b601f01601f19169290920160200192915050565b60008284528282602086013780602084860101526020601f19601f85011685010190509392505050565b91825260601b6bffffffffffffffffffffffff1916602082015260340190565b918252602082015260400190565b6000828483379101908152919050565b60008251613442818460208701613d2c565b9190910192915050565b60008351602061345f8285838901613d2c565b601760f91b91840191825284546001908490600281048184168061348457607f821691505b8582108114156134a257634e487b7160e01b88526022600452602488fd5b8080156134b657600181146134cb576134fb565b60ff19841688870152828801860194506134fb565b6134d48b613ce9565b895b848110156134f15781548a82018901529087019088016134d6565b5050858389010194505b50929a9950505050505050505050565b7f19457468657265756d205369676e6564204d6573736167653a0a3332000000008152601c810191909152603c0190565b6000697564746573746465762d60b01b82528284600a8401379101600a01908152919050565b60007f416363657373436f6e74726f6c3a206163636f756e74200000000000000000008252835161359a816017850160208801613d2c565b7001034b99036b4b9b9b4b733903937b6329607d1b60179184019182015283516135cb816028840160208801613d2c565b01602801949350505050565b6001600160a01b0391909116815260200190565b600060018060a01b0380881683526080602084015261360e6080840187896133c8565b81861660408501528381036060850152613628818661339c565b9998505050505050505050565b600060018060a01b03808616835260606020840152613657606084018661339c565b9150808416604084015250949350505050565b600060018060a01b0380871683526080602084015261368c608084018761339c565b818616604085015283810360608501526136a6818661339c565b98975050505050505050565b600060018060a01b038516825283602083015260606040830152612c55606083018461339c565b600060018060a01b038916825287602083015260a0604083015261370060a083018861339c565b8281036060840152613713818789613312565b90508281036080840152613728818587613312565b9a9950505050505050505050565b600060018060a01b038a16825288602083015260c0604083015261375d60c083018961339c565b828103606084015261377081888a613312565b90508281036080840152613785818688613312565b905082810360a0840152613799818561339c565b9b9a5050505050505050505050565b600060018060a01b0386168252846020830152608060408301526137cf608083018561339c565b82810360608401526137e1818561339c565b979650505050505050565b6020808252825182820181905260009190848201906040850190845b81811015613826578351151583529284019291840191600101613808565b50909695505050505050565b600060608252613846606083018789613312565b8281036020840152613859818688613312565b9150508260408301529695505050505050565b901515815260200190565b90815260200190565b93845260ff9290921660208401526040830152606082015260800190565b600060208252612b61602083018461339c565b6000602082526138c56020830184866133c8565b949350505050565b60208082526018908201527f45434453413a20696e76616c6964207369676e61747572650000000000000000604082015260600190565b6020808252818101527f537472696e67733a20686578206c656e67746820696e73756666696369656e74604082015260600190565b60208082526026908201527f4d696e74696e674d616e616765723a20554e535550504f525445445f52454c416040820152651657d0d0531360d21b606082015260800190565b6020808252601f908201527f45434453413a20696e76616c6964207369676e6174757265206c656e67746800604082015260600190565b60208082526026908201527f4f776e61626c653a206e6577206f776e657220697320746865207a65726f206160408201526564647265737360d01b606082015260800190565b6020808252601d908201527f52656c617965723a205349474e41545552455f49535f494e56414c4944000000604082015260600190565b6020808252601d908201527f4d696e746572526f6c653a2052454345495645525f49535f454d505459000000604082015260600190565b60208082526022908201527f45434453413a20696e76616c6964207369676e6174757265202773272076616c604082015261756560f01b606082015260800190565b6020808252601d908201527f4d696e74696e674d616e616765723a20544f4b454e5f424c4f434b4544000000604082015260600190565b6020808252602e908201527f496e697469616c697a61626c653a20636f6e747261637420697320616c72656160408201526d191e481a5b9a5d1a585b1a5e995960921b606082015260800190565b6020808252818101527f4d696e746572526f6c653a2043414c4c45525f49535f4e4f545f4d494e544552604082015260600190565b60208082526022908201527f45434453413a20696e76616c6964207369676e6174757265202776272076616c604082015261756560f01b606082015260800190565b60208082526024908201527f4d696e74696e674d616e616765723a205349474e45525f49535f4e4f545f4d49604082015263272a22a960e11b606082015260800190565b6020808252818101527f4f776e61626c653a2063616c6c6572206973206e6f7420746865206f776e6572604082015260600190565b6020808252601b908201527f4d696e74696e674d616e616765723a204c4142454c5f454d5054590000000000604082015260600190565b60208082526022908201527f4d696e74696e674d616e616765723a20544c445f4e4f545f5245474953544552604082015261115160f21b606082015260800190565b6020808252602f908201527f416363657373436f6e74726f6c3a2063616e206f6e6c792072656e6f756e636560408201526e103937b632b9903337b91039b2b63360891b606082015260800190565b60009081526020902090565b60008219821115613d0857613d08613dc5565b500190565b6000816000190483118215151615613d2757613d27613dc5565b500290565b60005b83811015613d47578181015183820152602001613d2f565b83811115610d575750506000910152565b600081613d6757613d67613dc5565b506000190190565b600281046001821680613d8357607f821691505b60208210811415613da457634e487b7160e01b600052602260045260246000fd5b50919050565b6000600019821415613dbe57613dbe613dc5565b5060010190565b634e487b7160e01b600052601160045260246000fd5b634e487b7160e01b600052604160045260246000fd5b6001600160a01b0381168114610e9157600080fdfe9f2df0fed2c77648de5860a4cc508cd0818c85b8b8a1ab4ceeef8d981c8956a60f4a10a4f46c288cea365fcf45cccf0e9d901b945b9829ccdb54c10dc3cb7a6fa26469706673582212208064d8ea43a6950d1e6c0f8a83938743ddb4b3b9dfa1df50f6f23d7e6dc6321764736f6c63430008000033",
  "linkReferences": {},
  "deployedLinkReferences": {}
}