{
  "_format": "hh-sol-artifact-1",
  "contractName": "MintingManager",
  "sourceName": "contracts/MintingManager.sol",
  "abi": [
    {
      "anonymous": false,
      "inputs": [
        {
          "indexed": false,
          "internalType": "address",
          "name": "previousAdmin",
          "type": "address"
        },
        {
          "indexed": false,
          "internalType": "address",
          "name": "newAdmin",
          "type": "address"
        }
      ],
      "name": "AdminChanged",
      "type": "event"
    },
    {
      "anonymous": false,
      "inputs": [
        {
          "indexed": false,
          "internalType": "uint256",
          "name": "tokenId",
          "type": "uint256"
        }
      ],
      "name": "Blocked",
      "type": "event"
    },
    {
      "anonymous": false,
      "inputs": [
        {
          "indexed": false,
          "internalType": "address",
          "name": "account",
          "type": "address"
        }
      ],
      "name": "BlocklistDisabled",
      "type": "event"
    },
    {
      "anonymous": false,
      "inputs": [
        {
          "indexed": false,
          "internalType": "address",
          "name": "account",
          "type": "address"
        }
      ],
      "name": "BlocklistEnabled",
      "type": "event"
    },
    {
      "anonymous": false,
      "inputs": [
        {
          "indexed": true,
          "internalType": "uint256",
          "name": "tokenId",
          "type": "uint256"
        },
        {
          "indexed": true,
          "internalType": "address",
          "name": "sender",
          "type": "address"
        },
        {
          "indexed": true,
          "internalType": "address",
          "name": "owner",
          "type": "address"
        },
        {
          "indexed": false,
          "internalType": "uint256",
          "name": "price",
          "type": "uint256"
        },
        {
          "indexed": false,
          "internalType": "address",
          "name": "token",
          "type": "address"
        }
      ],
      "name": "DomainPurchase",
      "type": "event"
    },
    {
      "anonymous": false,
      "inputs": [
        {
          "indexed": false,
          "internalType": "uint8",
          "name": "version",
          "type": "uint8"
        }
      ],
      "name": "Initialized",
      "type": "event"
    },
    {
      "anonymous": false,
      "inputs": [
        {
          "indexed": true,
          "internalType": "uint256",
          "name": "tokenId",
          "type": "uint256"
        },
        {
          "indexed": false,
          "internalType": "string",
          "name": "tld",
          "type": "string"
        }
      ],
      "name": "NewTld",
      "type": "event"
    },
    {
      "anonymous": false,
      "inputs": [
        {
          "indexed": true,
          "internalType": "address",
          "name": "previousOwner",
          "type": "address"
        },
        {
          "indexed": true,
          "internalType": "address",
          "name": "newOwner",
          "type": "address"
        }
      ],
      "name": "OwnershipTransferred",
      "type": "event"
    },
    {
      "anonymous": false,
      "inputs": [
        {
          "indexed": false,
          "internalType": "address",
          "name": "account",
          "type": "address"
        }
      ],
      "name": "Paused",
      "type": "event"
    },
    {
      "anonymous": false,
      "inputs": [
        {
          "indexed": true,
          "internalType": "uint256",
          "name": "tokenId",
          "type": "uint256"
        }
      ],
      "name": "RemoveTld",
      "type": "event"
    },
    {
      "anonymous": false,
      "inputs": [
        {
          "indexed": true,
          "internalType": "bytes32",
          "name": "role",
          "type": "bytes32"
        },
        {
          "indexed": true,
          "internalType": "bytes32",
          "name": "previousAdminRole",
          "type": "bytes32"
        },
        {
          "indexed": true,
          "internalType": "bytes32",
          "name": "newAdminRole",
          "type": "bytes32"
        }
      ],
      "name": "RoleAdminChanged",
      "type": "event"
    },
    {
      "anonymous": false,
      "inputs": [
        {
          "indexed": true,
          "internalType": "bytes32",
          "name": "role",
          "type": "bytes32"
        },
        {
          "indexed": true,
          "internalType": "address",
          "name": "account",
          "type": "address"
        },
        {
          "indexed": true,
          "internalType": "address",
          "name": "sender",
          "type": "address"
        }
      ],
      "name": "RoleGranted",
      "type": "event"
    },
    {
      "anonymous": false,
      "inputs": [
        {
          "indexed": true,
          "internalType": "bytes32",
          "name": "role",
          "type": "bytes32"
        },
        {
          "indexed": true,
          "internalType": "address",
          "name": "account",
          "type": "address"
        },
        {
          "indexed": true,
          "internalType": "address",
          "name": "sender",
          "type": "address"
        }
      ],
      "name": "RoleRevoked",
      "type": "event"
    },
    {
      "anonymous": false,
      "inputs": [
        {
          "indexed": false,
          "internalType": "address",
          "name": "account",
          "type": "address"
        }
      ],
      "name": "Unpaused",
      "type": "event"
    },
    {
      "anonymous": false,
      "inputs": [
        {
          "indexed": true,
          "internalType": "address",
          "name": "implementation",
          "type": "address"
        }
      ],
      "name": "Upgraded",
      "type": "event"
    },
    {
      "anonymous": false,
      "inputs": [
        {
          "indexed": false,
          "internalType": "address",
          "name": "recepient",
          "type": "address"
        },
        {
          "indexed": false,
          "internalType": "uint256",
          "name": "value",
          "type": "uint256"
        },
        {
          "indexed": false,
          "internalType": "address",
          "name": "token",
          "type": "address"
        }
      ],
      "name": "Withdrawal",
      "type": "event"
    },
    {
      "inputs": [],
      "name": "DEFAULT_ADMIN_ROLE",
      "outputs": [
        {
          "internalType": "bytes32",
          "name": "",
          "type": "bytes32"
        }
      ],
      "stateMutability": "view",
      "type": "function"
    },
    {
      "inputs": [],
      "name": "MINTER_ROLE",
      "outputs": [
        {
          "internalType": "bytes32",
          "name": "",
          "type": "bytes32"
        }
      ],
      "stateMutability": "view",
      "type": "function"
    },
    {
      "inputs": [],
      "name": "NAME",
      "outputs": [
        {
          "internalType": "string",
          "name": "",
          "type": "string"
        }
      ],
      "stateMutability": "view",
      "type": "function"
    },
    {
      "inputs": [],
      "name": "VERSION",
      "outputs": [
        {
          "internalType": "string",
          "name": "",
          "type": "string"
        }
      ],
      "stateMutability": "view",
      "type": "function"
    },
    {
      "inputs": [],
      "name": "ZIL_TLD_TOKEN_ID",
      "outputs": [
        {
          "internalType": "uint256",
          "name": "",
          "type": "uint256"
        }
      ],
      "stateMutability": "view",
      "type": "function"
    },
    {
      "inputs": [
        {
          "internalType": "address",
          "name": "account",
          "type": "address"
        }
      ],
      "name": "addMinter",
      "outputs": [],
      "stateMutability": "nonpayable",
      "type": "function"
    },
    {
      "inputs": [
        {
          "internalType": "address[]",
          "name": "accounts",
          "type": "address[]"
        }
      ],
      "name": "addMinters",
      "outputs": [],
      "stateMutability": "nonpayable",
      "type": "function"
    },
    {
      "inputs": [
        {
          "internalType": "address[]",
          "name": "addrs",
          "type": "address[]"
        }
      ],
      "name": "addProxyReaders",
      "outputs": [],
      "stateMutability": "nonpayable",
      "type": "function"
    },
    {
      "inputs": [
        {
          "internalType": "string",
          "name": "tld",
          "type": "string"
        }
      ],
      "name": "addTld",
      "outputs": [],
      "stateMutability": "nonpayable",
      "type": "function"
    },
    {
      "inputs": [
        {
          "internalType": "address",
          "name": "owner",
          "type": "address"
        },
        {
          "internalType": "string[]",
          "name": "labels",
          "type": "string[]"
        },
        {
          "internalType": "string[]",
          "name": "keys",
          "type": "string[]"
        },
        {
          "internalType": "string[]",
          "name": "values",
          "type": "string[]"
        },
        {
          "internalType": "uint64",
          "name": "expiry",
          "type": "uint64"
        },
        {
          "internalType": "uint256",
          "name": "price",
          "type": "uint256"
        },
        {
          "internalType": "bytes",
          "name": "signature",
          "type": "bytes"
        }
      ],
      "name": "buy",
      "outputs": [],
      "stateMutability": "payable",
      "type": "function"
    },
    {
      "inputs": [
        {
          "internalType": "address",
          "name": "owner",
          "type": "address"
        },
        {
          "internalType": "string[]",
          "name": "labels",
          "type": "string[]"
        },
        {
          "internalType": "string[]",
          "name": "keys",
          "type": "string[]"
        },
        {
          "internalType": "string[]",
          "name": "values",
          "type": "string[]"
        },
        {
          "internalType": "uint64",
          "name": "expiry",
          "type": "uint64"
        },
        {
          "internalType": "address",
          "name": "token",
          "type": "address"
        },
        {
          "internalType": "uint256",
          "name": "price",
          "type": "uint256"
        },
        {
          "internalType": "bytes",
          "name": "signature",
          "type": "bytes"
        }
      ],
      "name": "buyForErc20",
      "outputs": [],
      "stateMutability": "nonpayable",
      "type": "function"
    },
    {
      "inputs": [
        {
          "internalType": "uint256",
          "name": "tld",
          "type": "uint256"
        },
        {
          "internalType": "string",
          "name": "label",
          "type": "string"
        }
      ],
      "name": "claim",
      "outputs": [],
      "stateMutability": "nonpayable",
      "type": "function"
    },
    {
      "inputs": [
        {
          "internalType": "address",
          "name": "to",
          "type": "address"
        },
        {
          "internalType": "uint256",
          "name": "tld",
          "type": "uint256"
        },
        {
          "internalType": "string",
          "name": "label",
          "type": "string"
        }
      ],
      "name": "claimTo",
      "outputs": [],
      "stateMutability": "nonpayable",
      "type": "function"
    },
    {
      "inputs": [
        {
          "internalType": "address",
          "name": "to",
          "type": "address"
        },
        {
          "internalType": "uint256",
          "name": "tld",
          "type": "uint256"
        },
        {
          "internalType": "string",
          "name": "label",
          "type": "string"
        },
        {
          "internalType": "string[]",
          "name": "keys",
          "type": "string[]"
        },
        {
          "internalType": "string[]",
          "name": "values",
          "type": "string[]"
        }
      ],
      "name": "claimToWithRecords",
      "outputs": [],
      "stateMutability": "nonpayable",
      "type": "function"
    },
    {
      "inputs": [
        {
          "internalType": "address payable",
          "name": "receiver",
          "type": "address"
        }
      ],
      "name": "closeMinter",
      "outputs": [],
      "stateMutability": "payable",
      "type": "function"
    },
    {
      "inputs": [],
      "name": "cnsMintingController",
      "outputs": [
        {
          "internalType": "contract IMintingController",
          "name": "",
          "type": "address"
        }
      ],
      "stateMutability": "view",
      "type": "function"
    },
    {
      "inputs": [],
      "name": "cnsResolver",
      "outputs": [
        {
          "internalType": "contract IResolver",
          "name": "",
          "type": "address"
        }
      ],
      "stateMutability": "view",
      "type": "function"
    },
    {
      "inputs": [],
      "name": "cnsURIPrefixController",
      "outputs": [
        {
          "internalType": "contract IURIPrefixController",
          "name": "",
          "type": "address"
        }
      ],
      "stateMutability": "view",
      "type": "function"
    },
    {
      "inputs": [
        {
          "internalType": "bytes32",
          "name": "role",
          "type": "bytes32"
        }
      ],
      "name": "getRoleAdmin",
      "outputs": [
        {
          "internalType": "bytes32",
          "name": "",
          "type": "bytes32"
        }
      ],
      "stateMutability": "view",
      "type": "function"
    },
    {
      "inputs": [
        {
          "internalType": "bytes32",
          "name": "role",
          "type": "bytes32"
        },
        {
          "internalType": "address",
          "name": "account",
          "type": "address"
        }
      ],
      "name": "grantRole",
      "outputs": [],
      "stateMutability": "nonpayable",
      "type": "function"
    },
    {
      "inputs": [
        {
          "internalType": "bytes32",
          "name": "role",
          "type": "bytes32"
        },
        {
          "internalType": "address",
          "name": "account",
          "type": "address"
        }
      ],
      "name": "hasRole",
      "outputs": [
        {
          "internalType": "bool",
          "name": "",
          "type": "bool"
        }
      ],
      "stateMutability": "view",
      "type": "function"
    },
    {
      "inputs": [
        {
          "internalType": "contract IUNSRegistry",
          "name": "unsRegistry_",
          "type": "address"
        },
        {
          "internalType": "contract IMintingController",
          "name": "cnsMintingController_",
          "type": "address"
        },
        {
          "internalType": "contract IURIPrefixController",
          "name": "cnsURIPrefixController_",
          "type": "address"
        },
        {
          "internalType": "contract IResolver",
          "name": "cnsResolver_",
          "type": "address"
        },
        {
          "internalType": "address",
          "name": "unsOperator_",
          "type": "address"
        },
        {
          "internalType": "address",
          "name": "forwarder",
          "type": "address"
        }
      ],
      "name": "initialize",
      "outputs": [],
      "stateMutability": "nonpayable",
      "type": "function"
    },
    {
      "inputs": [
        {
          "internalType": "uint256",
          "name": "tokenId",
          "type": "uint256"
        }
      ],
      "name": "isBlocked",
      "outputs": [
        {
          "internalType": "bool",
          "name": "",
          "type": "bool"
        }
      ],
      "stateMutability": "view",
      "type": "function"
    },
    {
      "inputs": [
        {
          "internalType": "address",
          "name": "account",
          "type": "address"
        }
      ],
      "name": "isMinter",
      "outputs": [
        {
          "internalType": "bool",
          "name": "",
          "type": "bool"
        }
      ],
      "stateMutability": "view",
      "type": "function"
    },
    {
      "inputs": [
        {
          "internalType": "address",
          "name": "forwarder",
          "type": "address"
        }
      ],
      "name": "isTrustedForwarder",
      "outputs": [
        {
          "internalType": "bool",
          "name": "",
          "type": "bool"
        }
      ],
      "stateMutability": "view",
      "type": "function"
    },
    {
      "inputs": [
        {
          "internalType": "address",
          "name": "to",
          "type": "address"
        },
        {
          "internalType": "string[]",
          "name": "labels",
          "type": "string[]"
        },
        {
          "internalType": "string[]",
          "name": "keys",
          "type": "string[]"
        },
        {
          "internalType": "string[]",
          "name": "values",
          "type": "string[]"
        },
        {
          "internalType": "bool",
          "name": "withReverse",
          "type": "bool"
        }
      ],
      "name": "issueWithRecords",
      "outputs": [],
      "stateMutability": "nonpayable",
      "type": "function"
    },
    {
      "inputs": [
        {
          "internalType": "address",
          "name": "to",
          "type": "address"
        },
        {
          "internalType": "bytes",
          "name": "publicKey",
          "type": "bytes"
        },
        {
          "internalType": "string",
          "name": "label",
          "type": "string"
        },
        {
          "internalType": "string[]",
          "name": "keys",
          "type": "string[]"
        },
        {
          "internalType": "string[]",
          "name": "values",
          "type": "string[]"
        },
        {
          "internalType": "bool",
          "name": "withReverse",
          "type": "bool"
        }
      ],
      "name": "issueZns",
      "outputs": [],
      "stateMutability": "nonpayable",
      "type": "function"
    },
    {
      "inputs": [],
      "name": "owner",
      "outputs": [
        {
          "internalType": "address",
          "name": "",
          "type": "address"
        }
      ],
      "stateMutability": "view",
      "type": "function"
    },
    {
      "inputs": [],
      "name": "pause",
      "outputs": [],
      "stateMutability": "nonpayable",
      "type": "function"
    },
    {
      "inputs": [],
      "name": "paused",
      "outputs": [
        {
          "internalType": "bool",
          "name": "",
          "type": "bool"
        }
      ],
      "stateMutability": "view",
      "type": "function"
    },
    {
      "inputs": [
        {
          "internalType": "address",
          "name": "account",
          "type": "address"
        }
      ],
      "name": "removeMinter",
      "outputs": [],
      "stateMutability": "nonpayable",
      "type": "function"
    },
    {
      "inputs": [
        {
          "internalType": "address[]",
          "name": "accounts",
          "type": "address[]"
        }
      ],
      "name": "removeMinters",
      "outputs": [],
      "stateMutability": "nonpayable",
      "type": "function"
    },
    {
      "inputs": [
        {
          "internalType": "uint256",
          "name": "tld",
          "type": "uint256"
        }
      ],
      "name": "removeTld",
      "outputs": [],
      "stateMutability": "nonpayable",
      "type": "function"
    },
    {
      "inputs": [],
      "name": "renounceMinter",
      "outputs": [],
      "stateMutability": "nonpayable",
      "type": "function"
    },
    {
      "inputs": [],
      "name": "renounceOwnership",
      "outputs": [],
      "stateMutability": "nonpayable",
      "type": "function"
    },
    {
      "inputs": [
        {
          "internalType": "bytes32",
          "name": "role",
          "type": "bytes32"
        },
        {
          "internalType": "address",
          "name": "account",
          "type": "address"
        }
      ],
      "name": "renounceRole",
      "outputs": [],
      "stateMutability": "nonpayable",
      "type": "function"
    },
    {
      "inputs": [
        {
          "internalType": "bytes32",
          "name": "role",
          "type": "bytes32"
        },
        {
          "internalType": "address",
          "name": "account",
          "type": "address"
        }
      ],
      "name": "revokeRole",
      "outputs": [],
      "stateMutability": "nonpayable",
      "type": "function"
    },
    {
      "inputs": [
        {
          "internalType": "address payable",
          "name": "receiver",
          "type": "address"
        }
      ],
      "name": "rotateMinter",
      "outputs": [],
      "stateMutability": "payable",
      "type": "function"
    },
    {
      "inputs": [
        {
          "internalType": "address",
          "name": "forwarder",
          "type": "address"
        }
      ],
      "name": "setForwarder",
      "outputs": [],
      "stateMutability": "nonpayable",
      "type": "function"
    },
    {
      "inputs": [
        {
          "internalType": "address",
          "name": "operator",
          "type": "address"
        }
      ],
      "name": "setOperator",
      "outputs": [],
      "stateMutability": "nonpayable",
      "type": "function"
    },
    {
      "inputs": [
        {
          "internalType": "string",
          "name": "prefix",
          "type": "string"
        }
      ],
      "name": "setTokenURIPrefix",
      "outputs": [],
      "stateMutability": "nonpayable",
      "type": "function"
    },
    {
      "inputs": [
        {
          "internalType": "bytes4",
          "name": "interfaceId",
          "type": "bytes4"
        }
      ],
      "name": "supportsInterface",
      "outputs": [
        {
          "internalType": "bool",
          "name": "",
          "type": "bool"
        }
      ],
      "stateMutability": "view",
      "type": "function"
    },
    {
      "inputs": [
        {
          "internalType": "address",
          "name": "newOwner",
          "type": "address"
        }
      ],
      "name": "transferOwnership",
      "outputs": [],
      "stateMutability": "nonpayable",
      "type": "function"
    },
    {
      "inputs": [],
      "name": "unpause",
      "outputs": [],
      "stateMutability": "nonpayable",
      "type": "function"
    },
    {
      "inputs": [],
      "name": "unsOperator",
      "outputs": [
        {
          "internalType": "address",
          "name": "",
          "type": "address"
        }
      ],
      "stateMutability": "view",
      "type": "function"
    },
    {
      "inputs": [],
      "name": "unsRegistry",
      "outputs": [
        {
          "internalType": "contract IUNSRegistry",
          "name": "",
          "type": "address"
        }
      ],
      "stateMutability": "view",
      "type": "function"
    },
    {
      "inputs": [
        {
          "internalType": "address",
          "name": "recepient",
          "type": "address"
        }
      ],
      "name": "withdraw",
      "outputs": [],
      "stateMutability": "nonpayable",
      "type": "function"
    },
    {
      "inputs": [
        {
          "internalType": "address",
          "name": "token",
          "type": "address"
        },
        {
          "internalType": "address",
          "name": "recepient",
          "type": "address"
        }
      ],
      "name": "withdraw",
      "outputs": [],
      "stateMutability": "nonpayable",
      "type": "function"
    },
    {
      "inputs": [
        {
          "internalType": "uint256",
          "name": "",
          "type": "uint256"
        }
      ],
      "name": "znsOwners",
      "outputs": [
        {
          "internalType": "address",
          "name": "",
          "type": "address"
        }
      ],
      "stateMutability": "view",
      "type": "function"
    }
  ],
  "bytecode": "0x608060405234801561001057600080fd5b50614b38806100206000396000f3fe6080604052600436106102ae5760003560e01c80639865027511610175578063cc2a9a5b116100dc578063d7db74c711610095578063f2fde38b1161006f578063f2fde38b146108aa578063f5243bc4146108ca578063f940e385146108ea578063ffa1ad741461090a57600080fd5b8063d7db74c714610841578063ec52738914610854578063ed4eb8cc1461087457600080fd5b8063cc2a9a5b1461077f578063cc2c3fc41461079f578063ceeb4f50146107bf578063d1f5692c146107df578063d5391393146107ff578063d547741f1461082157600080fd5b8063abe7d9fc1161012e578063abe7d9fc146106bd578063b0aa98c7146106dd578063b3ab15fb146106fd578063b9998a241461071d578063c3a3bc001461073d578063cafc31491461075d57600080fd5b806398650275146105e657806399e0dd7c146105fb578063a217fddf1461061b578063a3f4df7e14610630578063a849d65c1461067d578063aa271e1a1461069d57600080fd5b80635cd7e3b31161021957806381c81d35116101d257806381c81d35146105405780638456cb59146105535780638da5cb5b14610568578063906cecc11461058657806391d14854146105a6578063983b2d56146105c657600080fd5b80635cd7e3b3146104985780635fc1964f146104b8578063634486da146104d8578063715018a6146104eb57806371e2a6571461050057806377a2a5891461052057600080fd5b80633f41b6141161026b5780633f41b614146103a85780633f4ba83a146103e057806351cff8d9146103f5578063572b6c05146104155780635b6fa8db146104635780635c975abb1461048357600080fd5b806301ffc9a7146102b3578063248a9ca3146102e8578063268b15ed146103265780632f2ff15d146103485780633092afd51461036857806336568abe14610388575b600080fd5b3480156102bf57600080fd5b506102d36102ce366004613afd565b61093c565b60405190151581526020015b60405180910390f35b3480156102f457600080fd5b50610318610303366004613b27565b60009081526097602052604090206001015490565b6040519081526020016102df565b34801561033257600080fd5b50610346610341366004613b81565b610973565b005b34801561035457600080fd5b50610346610363366004613bf1565b610a17565b34801561037457600080fd5b50610346610383366004613c21565b610a41565b34801561039457600080fd5b506103466103a3366004613bf1565b610a55565b3480156103b457600080fd5b5060c9546103c8906001600160a01b031681565b6040516001600160a01b0390911681526020016102df565b3480156103ec57600080fd5b50610346610ae3565b34801561040157600080fd5b50610346610410366004613c21565b610af5565b34801561042157600080fd5b506102d3610430366004613c21565b7f893ef2ea16c023f61d4f55d3e6ee3fc3f2fbfd478461323dbc2fbf919047086e546001600160a01b0390811691161490565b34801561046f57600080fd5b5060cc546103c8906001600160a01b031681565b34801561048f57600080fd5b506102d3610b95565b3480156104a457600080fd5b506103466104b3366004613c9b565b610bab565b3480156104c457600080fd5b506103466104d3366004613dc3565b610f77565b6103466104e6366004613c21565b610fbf565b3480156104f757600080fd5b506103466110b2565b34801561050c57600080fd5b5061034661051b366004613dc3565b6110c4565b34801561052c57600080fd5b5060ce546103c8906001600160a01b031681565b61034661054e366004613c21565b61110c565b34801561055f57600080fd5b506103466111b9565b34801561057457600080fd5b506033546001600160a01b03166103c8565b34801561059257600080fd5b506103466105a1366004613e61565b6111c9565b3480156105b257600080fd5b506102d36105c1366004613bf1565b611250565b3480156105d257600080fd5b506103466105e1366004613c21565b61127b565b3480156105f257600080fd5b5061034661128c565b34801561060757600080fd5b50610346610616366004613ebc565b6112a6565b34801561062757600080fd5b50610318600081565b34801561063c57600080fd5b50610670604051806040016040528060148152602001732aa7299d1026b4b73a34b7339026b0b730b3b2b960611b81525081565b6040516102df9190613f4d565b34801561068957600080fd5b5060cb546103c8906001600160a01b031681565b3480156106a957600080fd5b506102d36106b8366004613c21565b61138d565b3480156106c957600080fd5b506103466106d8366004613f60565b6113a7565b3480156106e957600080fd5b506102d36106f8366004613b27565b61160b565b34801561070957600080fd5b50610346610718366004613c21565b611669565b34801561072957600080fd5b50610346610738366004613c21565b611693565b34801561074957600080fd5b50610346610758366004613ebc565b6116d8565b34801561076957600080fd5b50610318600080516020614aec83398151915281565b34801561078b57600080fd5b5061034661079a366004614044565b61171f565b3480156107ab57600080fd5b5060ca546103c8906001600160a01b031681565b3480156107cb57600080fd5b506103466107da3660046140c6565b611b39565b3480156107eb57600080fd5b506103466107fa36600461417b565b611bcf565b34801561080b57600080fd5b50610318600080516020614b0c83398151915281565b34801561082d57600080fd5b5061034661083c366004613bf1565b611c86565b61034661084f3660046141c7565b611cab565b34801561086057600080fd5b5061034661086f366004613b27565b611e38565b34801561088057600080fd5b506103c861088f366004613b27565b60cf602052600090815260409020546001600160a01b031681565b3480156108b657600080fd5b506103466108c5366004613c21565b611eaa565b3480156108d657600080fd5b506103466108e53660046142bc565b611ec6565b3480156108f657600080fd5b506103466109053660046143d4565b612076565b34801561091657600080fd5b50610670604051806040016040528060068152602001650605c685c62760d31b81525081565b60006001600160e01b03198216637965db0b60e01b148061096d57506301ffc9a760e01b6001600160e01b03198316145b92915050565b8282828080601f0160208091040260200160405190810160405280939291908181526020018383808284376000920191909152506109b792508491508390506121f2565b6109bf610b95565b156109e55760405162461bcd60e51b81526004016109dc90614402565b60405180910390fd5b6060610a0e6109f2612347565b610a0588610a008989612356565b612382565b83846001612493565b50505050505050565b600082815260976020526040902060010154610a3281612868565b610a3c8383612879565b505050565b610a49612900565b610a5281612979565b50565b610a5d612347565b6001600160a01b0316816001600160a01b031614610ad55760405162461bcd60e51b815260206004820152602f60248201527f416363657373436f6e74726f6c3a2063616e206f6e6c792072656e6f756e636560448201526e103937b632b9903337b91039b2b63360891b60648201526084016109dc565b610adf8282612991565b5050565b610aeb612900565b610af3612a16565b565b610afd612900565b6001600160a01b038116610b1057600080fd5b60405147906001600160a01b0383169082156108fc029083906000818181858888f19350505050158015610b48573d6000803e3d6000fd5b50604080516001600160a01b03841681526020810183905260008183015290517e1a143d5b175701cb3246058ffac3d63945192075a926ff73a19930f09d587a9181900360600190a15050565b600080516020614acc8339815191525460ff1690565b610bb5868861442c565b8051600203610d1057600081600081518110610bd357610bd36144f6565b60200260200101519050600080516020614aec83398151915260001c82600081518110610c0257610c026144f6565b60200260200101518051906020012060001c03610ca7576000610c2483612abe565b50600081815260cf60205260409020549091506001600160a01b031615610ca15760405162461bcd60e51b815260206004820152602b60248201527f4d696e74696e674d616e616765723a20544f4b454e5f52455155495245535f5a60448201526a4e535f5245434f5645525960a81b60648201526084016109dc565b50610d0a565b610cb26106b8612347565b610d0a5760405162461bcd60e51b8152602060048201526024808201527f4d696e74696e674d616e616765723a2043414c4c45525f49535f4e4f545f4d49604482015263272a22a960e11b60648201526084016109dc565b50610e9d565b6000610d1b82612abe565b60c9549092506001600160a01b0316905063430c2081610d39612347565b6040516001600160e01b031960e084901b1681526001600160a01b03909116600482015260248101849052604401602060405180830381865afa158015610d84573d6000803e3d6000fd5b505050506040513d601f19601f82011682018060405250810190610da8919061450c565b80610e37575060c95460ce5460405163430c208160e01b81526001600160a01b0391821660048201526024810184905291169063430c208190604401602060405180830381865afa158015610e01573d6000803e3d6000fd5b505050506040513d601f19601f82011682018060405250810190610e25919061450c565b8015610e375750610e376106b8612347565b610e9b5760405162461bcd60e51b815260206004820152602f60248201527f4d696e74696e674d616e616765723a2053454e4445525f49535f4e4f545f415060448201526e282927ab22a22fa7a92fa7aba722a960891b60648201526084016109dc565b505b610ea7878961442c565b600281511015610ec95760405162461bcd60e51b81526004016109dc90614529565b610f1d610efd60008360018551610ee09190614584565b81518110610ef057610ef06144f6565b6020026020010151612af9565b82600081518110610f1057610f106144f6565b60200260200101516121f2565b610f25610b95565b15610f425760405162461bcd60e51b81526004016109dc90614402565b610f6a8a610f508a8c61442c565b610f5a898b61442c565b610f64888a61442c565b87612493565b5050505050505050505050565b610f7f612900565b60005b8151811015610adf57610fad828281518110610fa057610fa06144f6565b6020026020010151612979565b80610fb781614597565b915050610f82565b610fca6106b8612347565b6110165760405162461bcd60e51b815260206004820181905260248201527f4d696e746572526f6c653a2043414c4c45525f49535f4e4f545f4d494e54455260448201526064016109dc565b6001600160a01b03811661106c5760405162461bcd60e51b815260206004820152601d60248201527f4d696e746572526f6c653a2052454345495645525f49535f454d50545900000060448201526064016109dc565b61107581612bad565b61107d61128c565b6040516001600160a01b038216903480156108fc02916000818181858888f19350505050158015610adf573d6000803e3d6000fd5b6110ba612900565b610af36000612bc5565b6110cc612900565b60005b8151811015610adf576110fa8282815181106110ed576110ed6144f6565b6020026020010151612bad565b8061110481614597565b9150506110cf565b6111176106b8612347565b6111635760405162461bcd60e51b815260206004820181905260248201527f4d696e746572526f6c653a2043414c4c45525f49535f4e4f545f4d494e54455260448201526064016109dc565b6001600160a01b0381166110755760405162461bcd60e51b815260206004820152601d60248201527f4d696e746572526f6c653a2052454345495645525f49535f454d50545900000060448201526064016109dc565b6111c1612900565b610af3612c17565b8282828080601f01602080910402602001604051908101604052809392919081815260200183838082843760009201919091525061120d92508491508390506121f2565b611215610b95565b156112325760405162461bcd60e51b81526004016109dc90614402565b606061124687610a0588610a008989612356565b5050505050505050565b60009182526097602090815260408084206001600160a01b0393909316845291905290205460ff1690565b611283612900565b610a5281612bad565b610af3600080516020614b0c8339815191526103a3612347565b6112ae612900565b60c954604051632678375f60e21b81526001600160a01b03909116906399e0dd7c906112e090859085906004016145b0565b600060405180830381600087803b1580156112fa57600080fd5b505af115801561130e573d6000803e3d6000fd5b505060cb546001600160a01b0316159150610adf90505760cb54604051632678375f60e21b81526001600160a01b03909116906399e0dd7c9061135790859085906004016145b0565b600060405180830381600087803b15801561137157600080fd5b505af1158015611385573d6000803e3d6000fd5b505050505050565b600061096d600080516020614b0c83398151915283611250565b60006113fa600080516020614aec83398151915260001c89898080601f016020809104026020016040519081016040528093929190818152602001838380828437600092019190915250612af992505050565b905061143b8a8a8080601f016020809104026020016040519081016040528093929190818152602001838380828437600092019190915250612c7f92505050565b6001600160a01b031661144c612347565b6001600160a01b0316146114c85760405162461bcd60e51b815260206004820152603860248201527f4d696e67696e674d616e616765723a205055424c49435f4b45595f444f45535f60448201527f4e4f545f4d415443485f53454e4445525f41444452455353000000000000000060648201526084016109dc565b6115078a8a8080601f016020809104026020016040519081016040528093929190818152602001838380828437600092019190915250612c8a92505050565b600082815260cf60205260409020546001600160a01b0390811691161461158e5760405162461bcd60e51b815260206004820152603560248201527f4d696e67696e674d616e616765723a205055424c49435f4b45595f444f45535f6044820152744e4f545f4d415443485f5a494c5f4144445245535360581b60648201526084016109dc565b6115fd8b6115e3600080516020614aec83398151915260001c8b8b8080601f01602080910402602001604051908101604052809392919081815260200183838082843760009201919091525061238292505050565b6115ed888a61442c565b6115f7878961442c565b86612493565b505050505050505050505050565b604080517f1ec047073e2c8b15660901dbfdb6e3ff6365bd699dd9f95dcc6eab5448bebd69602082015290810182905260009061165f906060015b6040516020818303038152906040528051906020012090565b5460ff1692915050565b611671612900565b60ce80546001600160a01b0319166001600160a01b0392909216919091179055565b61169b612900565b7f893ef2ea16c023f61d4f55d3e6ee3fc3f2fbfd478461323dbc2fbf919047086e80546001600160a01b0319166001600160a01b03831617905550565b6116e0612900565b610adf82828080601f016020809104026020016040519081016040528093929190818152602001838380828437600092019190915250612ce492505050565b600054610100900460ff161580801561173f5750600054600160ff909116105b806117595750303b158015611759575060005460ff166001145b6117bc5760405162461bcd60e51b815260206004820152602e60248201527f496e697469616c697a61626c653a20636f6e747261637420697320616c72656160448201526d191e481a5b9a5d1a585b1a5e995960921b60648201526084016109dc565b6000805460ff1916600117905580156117df576000805461ff0019166101001790555b60c980546001600160a01b03199081166001600160a01b038a81169190911790925560ca8054821689841617905560cb8054821688841617905560cc8054821687841617905560ce805490911691851691909117905561183d612de8565b611845612e1f565b61184e82612e58565b611856612e7f565b604080516102a081018252600661026082018181526563727970746f60d01b610280840152825282518084018452818152651dd85b1b195d60d21b602082810191909152808401919091528351808501855260018152600f60fb1b8183015283850152835180850185526003808252621b999d60ea1b82840152606085019190915284518086018652600a815269313637b1b5b1b430b4b760b11b818401526080850152845180860186526007808252663134ba31b7b4b760c91b8285015260a0860191909152855180870187528281526207070760eb1b8185015260c0860152855180870187528281526264616f60e81b8185015260e086015285518087018752918252621e9a5b60ea1b8284015261010085019190915284518086018652908152663837b63cb3b7b760c91b8183015261012084015283518085018552600b81526a756e73746f707061626c6560a81b81830152610140840152835180850185528281526535b632bb32b960d11b8183015261016084015283518085018552600280825261686960f01b8284015261018085019190915284518086018652928352656b726573757360d01b838301526101a084019290925283518085018552600580825264616e696d6560d81b828401526101c085019190915284518086018652818152646d616e676160d81b818401526101e085015284518086018652600981526862696e616e6365757360b81b8184015261020085015284518086018652908152647265616c6d60d81b81830152610220840152835180850190945290835261676f60f01b9083015261024081019190915260005b6013811015611ae957611ad7828260138110611acd57611acd6144f6565b6020020151612ce4565b80611ae181614597565b915050611aaf565b50508015610a0e576000805461ff0019169055604051600181527f7f26b83ff96e1f2b6a682f133852f6798a09c465da95921460cefb38474024989060200160405180910390a150505050505050565b8686868080601f016020809104026020016040519081016040528093929190818152602001838380828437600092019190915250611b7d92508491508390506121f2565b611b85610b95565b15611ba25760405162461bcd60e51b81526004016109dc90614402565b610f6a8a611bb48b610a008c8c612356565b611bbe888a61442c565b611bc8878961442c565b6001612493565b611bd7612900565b60005b81811015610a3c5760c9546001600160a01b03166350960239848484818110611c0557611c056144f6565b9050602002016020810190611c1a9190613c21565b6040516001600160e01b031960e084901b1681526001600160a01b039091166004820152602401600060405180830381600087803b158015611c5b57600080fd5b505af1158015611c6f573d6000803e3d6000fd5b505050508080611c7e90614597565b915050611bda565b600082815260976020526040902060010154611ca181612868565b610a3c8383612991565b611cb5898b61442c565b600281511015611cd75760405162461bcd60e51b81526004016109dc90614529565b611cee610efd60008360018551610ee09190614584565b611cf6610b95565b15611d135760405162461bcd60e51b81526004016109dc90614402565b60028a14611d335760405162461bcd60e51b81526004016109dc906145df565b611d798c8c8c8888600089898080601f016020809104026020016040519081016040528093929190818152602001838380828437600092019190915250612ebf92505050565b83341015611dc95760405162461bcd60e51b815260206004820181905260248201527f4d696e74696e674d616e616765723a204e4f545f454e4f5547485f46554e445360448201526064016109dc565b611ddb8c8c8c8c8c8c8c8b600061307f565b833411156115fd57611deb612347565b6001600160a01b03166108fc611e018634614584565b6040518115909202916000818181858888f19350505050158015611e29573d6000803e3d6000fd5b50505050505050505050505050565b611e40612900565b611e4981613139565b611e655760405162461bcd60e51b81526004016109dc90614625565b600081815260cd60205260408120611e7c91613aaf565b60405181907f0aa1aff0f830e739d86baf0e6624d6763da02f7733575e0e463886cd062dea6a90600090a250565b611eb2612900565b611ebb8161315f565b610a526000826131d5565b611ed08a8c61442c565b600281511015611ef25760405162461bcd60e51b81526004016109dc90614529565b611f09610efd60008360018551610ee09190614584565b611f11610b95565b15611f2e5760405162461bcd60e51b81526004016109dc90614402565b60028b14611f4e5760405162461bcd60e51b81526004016109dc906145df565b611f938d8d8d89888a89898080601f016020809104026020016040519081016040528093929190818152602001838380828437600092019190915250612ebf92505050565b846001600160a01b03166323b872dd611faa612347565b6040516001600160e01b031960e084901b1681526001600160a01b039091166004820152306024820152604481018790526064016020604051808303816000875af1158015611ffd573d6000803e3d6000fd5b505050506040513d601f19601f82011682018060405250810190612021919061450c565b6120655760405162461bcd60e51b8152602060048201526015602482015274115490cc8c0e881313d5d7d31155915317d1905253605a1b60448201526064016109dc565b611e298d8d8d8d8d8d8d8b8d61307f565b61207e612900565b6040516370a0823160e01b81523060048201526000906001600160a01b038416906370a0823190602401602060405180830381865afa1580156120c5573d6000803e3d6000fd5b505050506040513d601f19601f820116820180604052508101906120e99190614667565b60405163a9059cbb60e01b81526001600160a01b038481166004830152602482018390529192509084169063a9059cbb906044016020604051808303816000875af115801561213c573d6000803e3d6000fd5b505050506040513d601f19601f82011682018060405250810190612160919061450c565b6121a45760405162461bcd60e51b8152602060048201526015602482015274115490cc8c0e881313d5d7d31155915317d1905253605a1b60448201526064016109dc565b604080516001600160a01b0384811682526020820184905285168183015290517e1a143d5b175701cb3246058ffac3d63945192075a926ff73a19930f09d587a9181900360600190a1505050565b6121fb82613139565b6122175760405162461bcd60e51b81526004016109dc90614625565b600061224a8260408051808201825260008082526020918201528151808301909252825182529182019181019190915290565b9050600a816000015111156122f257612275612269826000600a6131df565b80516020909101512090565b7fb551e0305c8163b812374b8e78b577c77f226f6f10c5ad03e52699578fbc34b8036122f25760405162461bcd60e51b815260206004820152602660248201527f4d696e74696e674d616e616765723a20544f4b454e5f4c4142454c5f50524f4860448201526512509255115160d21b60648201526084016109dc565b6122fb8261321e565b610a3c5760405162461bcd60e51b815260206004820152601d60248201527f4d696e74696e674d616e616765723a204c4142454c5f494e56414c494400000060448201526064016109dc565b6000612351613382565b905090565b6060828260405160200161236b929190614680565b604051602081830303815290604052905092915050565b604080516002808252606082810190935260009190816020015b606081526020019060019003908161239c57905050905082816000815181106123c7576123c76144f6565b602002602001018190525060cd600085815260200190815260200160002080546123f0906146a8565b80601f016020809104026020016040519081016040528092919081815260200182805461241c906146a8565b80156124695780601f1061243e57610100808354040283529160200191612469565b820191906000526020600020905b81548152906001019060200180831161244c57829003601f168201915b505050505081600181518110612481576124816144f6565b60209081029190910101529392505050565b60008060006124a187612abe565b915091508380156124b3575060028751115b8015612535575060c9546040516331a9108f60e11b8152600481018390526001600160a01b038a8116921690636352211e90602401602060405180830381865afa158015612505573d6000803e3d6000fd5b505050506040513d601f19601f8201168201806040525081019061252991906146e2565b6001600160a01b031614155b156125955760405162461bcd60e51b815260206004820152602a60248201527f4d696e74696e674d616e616765723a20524556455253455f5245434f52445f4e60448201526913d517d0531313d5d15160b21b60648201526084016109dc565b60c954604051634f558e7960e01b8152600481018490526001600160a01b0390911690634f558e7990602401602060405180830381865afa1580156125de573d6000803e3d6000fd5b505050506040513d601f19601f82011682018060405250810190612602919061450c565b8015612681575060c9546040516331a9108f60e11b81526004810184905230916001600160a01b031690636352211e90602401602060405180830381865afa158015612652573d6000803e3d6000fd5b505050506040513d601f19601f8201168201806040525081019061267691906146e2565b6001600160a01b0316145b156126f55760c954604051630fb8df0360e11b81526001600160a01b0390911690631f71be06906126be908b908b908b908b908b90600401614754565b600060405180830381600087803b1580156126d857600080fd5b505af11580156126ec573d6000803e3d6000fd5b5050505061285d565b6126fe826133c8565b61270787613427565b8015612714575086516002145b156127f25760ca5487516001600160a01b039091169063c36c2125908a908a90600090612743576127436144f6565b602090810291909101015160cc546040516001600160e01b031960e086901b16815261277d9392916001600160a01b0316906004016147b3565b600060405180830381600087803b15801561279757600080fd5b505af11580156127ab573d6000803e3d6000fd5b505050506000865111156127ed5760cc54604051633a0deb9d60e21b81526001600160a01b039091169063e837ae74906126be908990899087906004016147e8565b61285d565b60c95460405163ba5d40b760e01b81526001600160a01b039091169063ba5d40b79061282a908b908b908b908b908b90600401614754565b600060405180830381600087803b15801561284457600080fd5b505af1158015612858573d6000803e3d6000fd5b505050505b509695505050505050565b610a5281612874612347565b613481565b6128838282611250565b610adf5760008281526097602090815260408083206001600160a01b03851684529091529020805460ff191660011790556128bc612347565b6001600160a01b0316816001600160a01b0316837f2f8788117e7eff1d82e926ec794901d17c78024a50270940304540a733656f0d60405160405180910390a45050565b612908612347565b6001600160a01b03166129236033546001600160a01b031690565b6001600160a01b031614610af35760405162461bcd60e51b815260206004820181905260248201527f4f776e61626c653a2063616c6c6572206973206e6f7420746865206f776e657260448201526064016109dc565b610a52600080516020614b0c83398151915282611c86565b61299b8282611250565b15610adf5760008281526097602090815260408083206001600160a01b03851684529091529020805460ff191690556129d2612347565b6001600160a01b0316816001600160a01b0316837ff6391f5c32d9c69d2a47ea670b442974b53935d1edc7fd64eb21e047a839171b60405160405180910390a45050565b612a1e610b95565b612a615760405162461bcd60e51b815260206004820152601460248201527314185d5cd8589b194e881393d517d4105554d15160621b60448201526064016109dc565b600080516020614acc833981519152805460ff191690557f5db9ee0a495bf2e6ff9c91a7834c1ba4fdd244a5e8aa4e537bd38aeae4b073aa612aa1612347565b6040516001600160a01b03909116815260200160405180910390a1565b805160009081905b8015612af357829150612adf8285610ee0600185614584565b925080612aeb8161481e565b915050612ac6565b50915091565b60008151600003612b4c5760405162461bcd60e51b815260206004820152601b60248201527f4d696e74696e674d616e616765723a204c4142454c5f454d505459000000000060448201526064016109dc565b8282604051602001612b5e9190614835565b60405160208183030381529060405280519060200120604051602001612b8e929190918252602082015260400190565b60408051601f1981840301815291905280516020909101209392505050565b610a52600080516020614b0c833981519152826131d5565b603380546001600160a01b038381166001600160a01b0319831681179093556040519116919082907f8be0079c531659141344cd1fd0a4f28419497f9722a3daafe3b4186f6b6457e090600090a35050565b612c1f610b95565b15612c3c5760405162461bcd60e51b81526004016109dc90614402565b600080516020614acc833981519152805460ff191660011790557f62e78cea01bee320cd4e420270b5ea74000d11b0c9f74754ebdbfc544b05a258612aa1612347565b805160209091012090565b60006002612c97836134e5565b604051612ca49190614835565b602060405180830381855afa158015612cc1573d6000803e3d6000fd5b5050506040513d601f19601f8201168201806040525081019061096d9190614667565b6000612cf1600083612af9565b600081815260cd60205260409020909150612d0c8382614897565b50807f4fce6f6e172b04eaa80325d8e3b0180a34945000f3e214605039e8420fdf898083604051612d3d9190613f4d565b60405180910390a260c954604051634f558e7960e01b8152600481018390526001600160a01b0390911690634f558e7990602401602060405180830381865afa158015612d8e573d6000803e3d6000fd5b505050506040513d601f19601f82011682018060405250810190612db2919061450c565b610adf5760c9546040516307befae360e51b81526001600160a01b039091169063f7df5c60906113579084908690600401614956565b600054610100900460ff16612e0f5760405162461bcd60e51b81526004016109dc90614977565b610af3612e1a612347565b612bc5565b600054610100900460ff16612e465760405162461bcd60e51b81526004016109dc90614977565b610af36000612e53612347565b6131d5565b600054610100900460ff1661169b5760405162461bcd60e51b81526004016109dc90614977565b600054610100900460ff16612ea65760405162461bcd60e51b81526004016109dc90614977565b600080516020614acc833981519152805460ff19169055565b6000612ed3612ece878961442c565b612abe565b506040516bffffffffffffffffffffffff1930606090811b821660208401524660348401528b811b82166054840152606883018490526001600160c01b031960c08a901b1660888401526090830188905286901b1660b0820152909150600090612faf908490612fa99060c401604051602081830303815290604052805190602001206040517f19457468657265756d205369676e6564204d6573736167653a0a3332000000006020820152603c8101829052600090605c01604051602081830303815290604052805190602001209050919050565b90613584565b9050612fba8161138d565b6130125760405162461bcd60e51b8152602060048201526024808201527f4d696e74696e674d616e616765723a205349474e45525f49535f4e4f545f4d49604482015263272a22a960e11b60648201526084016109dc565b42866001600160401b0316116130745760405162461bcd60e51b815260206004820152602160248201527f4d696e74696e674d616e616765723a20455850495245445f5349474e415455526044820152604560f81b60648201526084016109dc565b505050505050505050565b60006130c48a61308f8a8c61442c565b613099898b61442c565b6130a3888a61442c565b8e6001600160a01b03166130b5612347565b6001600160a01b031614612493565b9050896001600160a01b03166130d8612347565b6001600160a01b0316827fa545b6fd3355e8d57f8c8147bafe740545bd3ea1f94bef2576a6d532a7c3b60586866040516131259291909182526001600160a01b0316602082015260400190565b60405180910390a450505050505050505050565b600081815260cd602052604081208054829190613155906146a8565b9050119050919050565b613167612900565b6001600160a01b0381166131cc5760405162461bcd60e51b815260206004820152602660248201527f4f776e61626c653a206e6577206f776e657220697320746865207a65726f206160448201526564647265737360d01b60648201526084016109dc565b610a5281612bc5565b610adf8282612879565b6040805180820190915260008082526020820152604051806040016040528083815260200184866020015161321491906149c2565b9052949350505050565b6000815160000361323157506000919050565b60208201805160f81c6030811080159061324f575060398160ff1611155b158015613271575060618160ff161015801561326f5750607a8160ff1611155b155b15613280575060009392505050565b835160018111156132ee576132a28361329a600184614584565b015160f81c90565b915060308260ff16101580156132bc575060398260ff1611155b1580156132de575060618260ff16101580156132dc5750607a8260ff1611155b155b156132ee57506000949350505050565b60015b6132fc600183614584565b811015613376578381015160f81c9250602d8314801590613332575060308360ff1610158015613330575060398360ff1611155b155b8015613353575060618360ff16101580156133515750607a8360ff1611155b155b156133645750600095945050505050565b8061336e81614597565b9150506132f1565b50600195945050505050565b7f893ef2ea16c023f61d4f55d3e6ee3fc3f2fbfd478461323dbc2fbf919047086e546000906001600160a01b031633036133c3575060331936013560601c90565b503390565b6133d18161160b565b1561341e5760405162461bcd60e51b815260206004820152601d60248201527f4d696e74696e674d616e616765723a20544f4b454e5f424c4f434b454400000060448201526064016109dc565b610a52816135a8565b60008061343e60008460018651610ee09190614584565b60ca549091506001600160a01b03161580159061347a5750807f0f4a10a4f46c288cea365fcf45cccf0e9d901b945b9829ccdb54c10dc3cb7a6f145b9392505050565b61348b8282611250565b610adf576134a3816001600160a01b0316601461362c565b6134ae83602061362c565b6040516020016134bf9291906149d5565b60408051601f198184030181529082905262461bcd60e51b82526109dc91600401613f4d565b606060006134f283614a4a565b9050600083600185516135059190614584565b81518110613515576135156144f6565b016020015160f81c9050600061352c600283614a6e565b60ff161590508061353e576003613541565b60025b8360405160200161356b92919060f89290921b6001600160f81b0319168252600182015260210190565b6040516020818303038152906040529350505050919050565b600080600061359385856137c7565b915091506135a08161380c565b509392505050565b604080517f1ec047073e2c8b15660901dbfdb6e3ff6365bd699dd9f95dcc6eab5448bebd6960208201529081018290526001906135e790606001611646565b805460ff19169115159190911790556040518181527f2ce5d9351b1d590d5a066db0d2dc7602d55f092506a83a7ee8c4d78ee357d75a9060200160405180910390a150565b6060600061363b836002614a9e565b6136469060026149c2565b6001600160401b0381111561365d5761365d613d5a565b6040519080825280601f01601f191660200182016040528015613687576020820181803683370190505b509050600360fc1b816000815181106136a2576136a26144f6565b60200101906001600160f81b031916908160001a905350600f60fb1b816001815181106136d1576136d16144f6565b60200101906001600160f81b031916908160001a90535060006136f5846002614a9e565b6137009060016149c2565b90505b6001811115613778576f181899199a1a9b1b9c1cb0b131b232b360811b85600f1660108110613734576137346144f6565b1a60f81b82828151811061374a5761374a6144f6565b60200101906001600160f81b031916908160001a90535060049490941c936137718161481e565b9050613703565b50831561347a5760405162461bcd60e51b815260206004820181905260248201527f537472696e67733a20686578206c656e67746820696e73756666696369656e7460448201526064016109dc565b60008082516041036137fd5760208301516040840151606085015160001a6137f1878285856139c2565b94509450505050613805565b506000905060025b9250929050565b600081600481111561382057613820614ab5565b036138285750565b600181600481111561383c5761383c614ab5565b036138895760405162461bcd60e51b815260206004820152601860248201527f45434453413a20696e76616c6964207369676e6174757265000000000000000060448201526064016109dc565b600281600481111561389d5761389d614ab5565b036138ea5760405162461bcd60e51b815260206004820152601f60248201527f45434453413a20696e76616c6964207369676e6174757265206c656e6774680060448201526064016109dc565b60038160048111156138fe576138fe614ab5565b036139565760405162461bcd60e51b815260206004820152602260248201527f45434453413a20696e76616c6964207369676e6174757265202773272076616c604482015261756560f01b60648201526084016109dc565b600481600481111561396a5761396a614ab5565b03610a525760405162461bcd60e51b815260206004820152602260248201527f45434453413a20696e76616c6964207369676e6174757265202776272076616c604482015261756560f01b60648201526084016109dc565b6000807f7fffffffffffffffffffffffffffffff5d576e7357a4501ddfe92f46681b20a08311156139f95750600090506003613aa6565b8460ff16601b14158015613a1157508460ff16601c14155b15613a225750600090506004613aa6565b6040805160008082526020820180845289905260ff881692820192909252606081018690526080810185905260019060a0016020604051602081039080840390855afa158015613a76573d6000803e3d6000fd5b5050604051601f1901519150506001600160a01b038116613a9f57600060019250925050613aa6565b9150600090505b94509492505050565b508054613abb906146a8565b6000825580601f10613acb575050565b601f016020900490600052602060002090810190610a5291905b80821115613af95760008155600101613ae5565b5090565b600060208284031215613b0f57600080fd5b81356001600160e01b03198116811461347a57600080fd5b600060208284031215613b3957600080fd5b5035919050565b60008083601f840112613b5257600080fd5b5081356001600160401b03811115613b6957600080fd5b60208301915083602082850101111561380557600080fd5b600080600060408486031215613b9657600080fd5b8335925060208401356001600160401b03811115613bb357600080fd5b613bbf86828701613b40565b9497909650939450505050565b6001600160a01b0381168114610a5257600080fd5b8035613bec81613bcc565b919050565b60008060408385031215613c0457600080fd5b823591506020830135613c1681613bcc565b809150509250929050565b600060208284031215613c3357600080fd5b813561347a81613bcc565b60008083601f840112613c5057600080fd5b5081356001600160401b03811115613c6757600080fd5b6020830191508360208260051b850101111561380557600080fd5b8015158114610a5257600080fd5b8035613bec81613c82565b60008060008060008060008060a0898b031215613cb757600080fd5b8835613cc281613bcc565b975060208901356001600160401b0380821115613cde57600080fd5b613cea8c838d01613c3e565b909950975060408b0135915080821115613d0357600080fd5b613d0f8c838d01613c3e565b909750955060608b0135915080821115613d2857600080fd5b50613d358b828c01613c3e565b9094509250506080890135613d4981613c82565b809150509295985092959890939650565b634e487b7160e01b600052604160045260246000fd5b604051601f8201601f191681016001600160401b0381118282101715613d9857613d98613d5a565b604052919050565b60006001600160401b03821115613db957613db9613d5a565b5060051b60200190565b60006020808385031215613dd657600080fd5b82356001600160401b03811115613dec57600080fd5b8301601f81018513613dfd57600080fd5b8035613e10613e0b82613da0565b613d70565b81815260059190911b82018301908381019087831115613e2f57600080fd5b928401925b82841015613e56578335613e4781613bcc565b82529284019290840190613e34565b979650505050505050565b60008060008060608587031215613e7757600080fd5b8435613e8281613bcc565b93506020850135925060408501356001600160401b03811115613ea457600080fd5b613eb087828801613b40565b95989497509550505050565b60008060208385031215613ecf57600080fd5b82356001600160401b03811115613ee557600080fd5b613ef185828601613b40565b90969095509350505050565b60005b83811015613f18578181015183820152602001613f00565b50506000910152565b60008151808452613f39816020860160208601613efd565b601f01601f19169290920160200192915050565b60208152600061347a6020830184613f21565b60008060008060008060008060008060c08b8d031215613f7f57600080fd5b613f888b613be1565b995060208b01356001600160401b0380821115613fa457600080fd5b613fb08e838f01613b40565b909b50995060408d0135915080821115613fc957600080fd5b613fd58e838f01613b40565b909950975060608d0135915080821115613fee57600080fd5b613ffa8e838f01613c3e565b909750955060808d013591508082111561401357600080fd5b506140208d828e01613c3e565b9094509250614033905060a08c01613c90565b90509295989b9194979a5092959850565b60008060008060008060c0878903121561405d57600080fd5b863561406881613bcc565b9550602087013561407881613bcc565b9450604087013561408881613bcc565b9350606087013561409881613bcc565b925060808701356140a881613bcc565b915060a08701356140b881613bcc565b809150509295509295509295565b60008060008060008060008060a0898b0312156140e257600080fd5b88356140ed81613bcc565b97506020890135965060408901356001600160401b038082111561411057600080fd5b61411c8c838d01613b40565b909850965060608b013591508082111561413557600080fd5b6141418c838d01613c3e565b909650945060808b013591508082111561415a57600080fd5b506141678b828c01613c3e565b999c989b5096995094979396929594505050565b6000806020838503121561418e57600080fd5b82356001600160401b038111156141a457600080fd5b613ef185828601613c3e565b80356001600160401b0381168114613bec57600080fd5b600080600080600080600080600080600060e08c8e0312156141e857600080fd5b6141f18c613be1565b9a506001600160401b038060208e0135111561420c57600080fd5b61421c8e60208f01358f01613c3e565b909b50995060408d013581101561423257600080fd5b6142428e60408f01358f01613c3e565b909950975060608d013581101561425857600080fd5b6142688e60608f01358f01613c3e565b909750955061427960808e016141b0565b945060a08d013593508060c08e0135111561429357600080fd5b506142a48d60c08e01358e01613b40565b81935080925050509295989b509295989b9093969950565b6000806000806000806000806000806000806101008d8f0312156142df57600080fd5b6142e88d613be1565b9b506001600160401b0360208e0135111561430257600080fd5b6143128e60208f01358f01613c3e565b909b5099506001600160401b0360408e0135111561432f57600080fd5b61433f8e60408f01358f01613c3e565b90995097506001600160401b0360608e0135111561435c57600080fd5b61436c8e60608f01358f01613c3e565b909750955061437d60808e016141b0565b945061438b60a08e01613be1565b935060c08d013592506001600160401b0360e08e013511156143ac57600080fd5b6143bc8e60e08f01358f01613b40565b81935080925050509295989b509295989b509295989b565b600080604083850312156143e757600080fd5b82356143f281613bcc565b91506020830135613c1681613bcc565b60208082526010908201526f14185d5cd8589b194e8814105554d15160821b604082015260600190565b600061443a613e0b84613da0565b80848252602080830192508560051b85013681111561445857600080fd5b855b818110156144ea5780356001600160401b038082111561447a5760008081fd5b90880190601f368184011261448f5760008081fd5b8235828111156144a1576144a1613d5a565b6144b2818301601f19168801613d70565b925080835236878286010111156144cb57600091508182fd5b808785018885013760009083018701525086525093820193820161445a565b50919695505050505050565b634e487b7160e01b600052603260045260246000fd5b60006020828403121561451e57600080fd5b815161347a81613c82565b60208082526025908201527f4d696e74696e674d616e616765723a204c4142454c535f4c454e4754485f42456040820152642627abaf9960d91b606082015260800190565b634e487b7160e01b600052601160045260246000fd5b8181038181111561096d5761096d61456e565b6000600182016145a9576145a961456e565b5060010190565b60208152816020820152818360408301376000818301604090810191909152601f909201601f19160101919050565b60208082526026908201527f4d696e74696e674d616e616765723a20535542444f4d41494e535f4e4f545f41604082015265131313d5d15160d21b606082015260800190565b60208082526022908201527f4d696e74696e674d616e616765723a20544c445f4e4f545f5245474953544552604082015261115160f21b606082015260800190565b60006020828403121561467957600080fd5b5051919050565b6b756e732d646576746573742d60a01b81528183600c83013760009101600c01908152919050565b600181811c908216806146bc57607f821691505b6020821081036146dc57634e487b7160e01b600052602260045260246000fd5b50919050565b6000602082840312156146f457600080fd5b815161347a81613bcc565b600081518084526020808501808196508360051b8101915082860160005b85811015614747578284038952614735848351613f21565b9885019893509084019060010161471d565b5091979650505050505050565b6001600160a01b038616815260a060208201819052600090614778908301876146ff565b828103604084015261478a81876146ff565b9050828103606084015261479e81866146ff565b91505082151560808301529695505050505050565b600060018060a01b038086168352606060208401526147d56060840186613f21565b9150808416604084015250949350505050565b6060815260006147fb60608301866146ff565b828103602084015261480d81866146ff565b915050826040830152949350505050565b60008161482d5761482d61456e565b506000190190565b60008251614847818460208701613efd565b9190910192915050565b601f821115610a3c57600081815260208120601f850160051c810160208610156148785750805b601f850160051c820191505b8181101561138557828155600101614884565b81516001600160401b038111156148b0576148b0613d5a565b6148c4816148be84546146a8565b84614851565b602080601f8311600181146148f957600084156148e15750858301515b600019600386901b1c1916600185901b178555611385565b600085815260208120601f198616915b8281101561492857888601518255948401946001909101908401614909565b50858210156149465787850151600019600388901b60f8161c191681555b5050505050600190811b01905550565b82815260406020820152600061496f6040830184613f21565b949350505050565b6020808252602b908201527f496e697469616c697a61626c653a20636f6e7472616374206973206e6f74206960408201526a6e697469616c697a696e6760a81b606082015260800190565b8082018082111561096d5761096d61456e565b7f416363657373436f6e74726f6c3a206163636f756e7420000000000000000000815260008351614a0d816017850160208801613efd565b7001034b99036b4b9b9b4b733903937b6329607d1b6017918401918201528351614a3e816028840160208801613efd565b01602801949350505050565b805160208083015191908110156146dc5760001960209190910360031b1b16919050565b600060ff831680614a8f57634e487b7160e01b600052601260045260246000fd5b8060ff84160691505092915050565b808202811582820484141761096d5761096d61456e565b634e487b7160e01b600052602160045260246000fdfe5496787fc1ebdfeba375028c1865f13fbb1d63c0caa356ccc1b29a80f3ebd62206d71f6efaab3f35ae1a9fb83d87d6558c958cfa1f7936bf1244e0033f5cad009f2df0fed2c77648de5860a4cc508cd0818c85b8b8a1ab4ceeef8d981c8956a6a164736f6c6343000811000a",
  "linkReferences": {},
  "deployedLinkReferences": {}
}