{
  "_format": "hh-sol-artifact-1",
  "contractName": "MintingManager",
  "sourceName": "contracts/MintingManager.sol",
  "abi": [
    {
      "anonymous": false,
      "inputs": [
        {
          "indexed": false,
          "internalType": "address",
          "name": "previousAdmin",
          "type": "address"
        },
        {
          "indexed": false,
          "internalType": "address",
          "name": "newAdmin",
          "type": "address"
        }
      ],
      "name": "AdminChanged",
      "type": "event"
    },
    {
      "anonymous": false,
      "inputs": [
        {
          "indexed": false,
          "internalType": "uint256",
          "name": "tokenId",
          "type": "uint256"
        }
      ],
      "name": "Blocked",
      "type": "event"
    },
    {
      "anonymous": false,
      "inputs": [
        {
          "indexed": false,
          "internalType": "address",
          "name": "account",
          "type": "address"
        }
      ],
      "name": "BlocklistDisabled",
      "type": "event"
    },
    {
      "anonymous": false,
      "inputs": [
        {
          "indexed": false,
          "internalType": "address",
          "name": "account",
          "type": "address"
        }
      ],
      "name": "BlocklistEnabled",
      "type": "event"
    },
    {
      "anonymous": false,
      "inputs": [
        {
          "indexed": false,
          "internalType": "uint8",
          "name": "version",
          "type": "uint8"
        }
      ],
      "name": "Initialized",
      "type": "event"
    },
    {
      "anonymous": false,
      "inputs": [
        {
          "indexed": true,
          "internalType": "uint256",
          "name": "tokenId",
          "type": "uint256"
        },
        {
          "indexed": false,
          "internalType": "string",
          "name": "tld",
          "type": "string"
        }
      ],
      "name": "NewTld",
      "type": "event"
    },
    {
      "anonymous": false,
      "inputs": [
        {
          "indexed": true,
          "internalType": "address",
          "name": "previousOwner",
          "type": "address"
        },
        {
          "indexed": true,
          "internalType": "address",
          "name": "newOwner",
          "type": "address"
        }
      ],
      "name": "OwnershipTransferred",
      "type": "event"
    },
    {
      "anonymous": false,
      "inputs": [
        {
          "indexed": false,
          "internalType": "address",
          "name": "account",
          "type": "address"
        }
      ],
      "name": "Paused",
      "type": "event"
    },
    {
      "anonymous": false,
      "inputs": [
        {
          "indexed": true,
          "internalType": "uint256",
          "name": "tokenId",
          "type": "uint256"
        }
      ],
      "name": "RemoveTld",
      "type": "event"
    },
    {
      "anonymous": false,
      "inputs": [
        {
          "indexed": true,
          "internalType": "bytes32",
          "name": "role",
          "type": "bytes32"
        },
        {
          "indexed": true,
          "internalType": "bytes32",
          "name": "previousAdminRole",
          "type": "bytes32"
        },
        {
          "indexed": true,
          "internalType": "bytes32",
          "name": "newAdminRole",
          "type": "bytes32"
        }
      ],
      "name": "RoleAdminChanged",
      "type": "event"
    },
    {
      "anonymous": false,
      "inputs": [
        {
          "indexed": true,
          "internalType": "bytes32",
          "name": "role",
          "type": "bytes32"
        },
        {
          "indexed": true,
          "internalType": "address",
          "name": "account",
          "type": "address"
        },
        {
          "indexed": true,
          "internalType": "address",
          "name": "sender",
          "type": "address"
        }
      ],
      "name": "RoleGranted",
      "type": "event"
    },
    {
      "anonymous": false,
      "inputs": [
        {
          "indexed": true,
          "internalType": "bytes32",
          "name": "role",
          "type": "bytes32"
        },
        {
          "indexed": true,
          "internalType": "address",
          "name": "account",
          "type": "address"
        },
        {
          "indexed": true,
          "internalType": "address",
          "name": "sender",
          "type": "address"
        }
      ],
      "name": "RoleRevoked",
      "type": "event"
    },
    {
      "anonymous": false,
      "inputs": [
        {
          "indexed": false,
          "internalType": "address",
          "name": "account",
          "type": "address"
        }
      ],
      "name": "Unpaused",
      "type": "event"
    },
    {
      "anonymous": false,
      "inputs": [
        {
          "indexed": true,
          "internalType": "address",
          "name": "implementation",
          "type": "address"
        }
      ],
      "name": "Upgraded",
      "type": "event"
    },
    {
      "inputs": [],
      "name": "DEFAULT_ADMIN_ROLE",
      "outputs": [
        {
          "internalType": "bytes32",
          "name": "",
          "type": "bytes32"
        }
      ],
      "stateMutability": "view",
      "type": "function"
    },
    {
      "inputs": [],
      "name": "MINTER_ROLE",
      "outputs": [
        {
          "internalType": "bytes32",
          "name": "",
          "type": "bytes32"
        }
      ],
      "stateMutability": "view",
      "type": "function"
    },
    {
      "inputs": [],
      "name": "NAME",
      "outputs": [
        {
          "internalType": "string",
          "name": "",
          "type": "string"
        }
      ],
      "stateMutability": "view",
      "type": "function"
    },
    {
      "inputs": [],
      "name": "VERSION",
      "outputs": [
        {
          "internalType": "string",
          "name": "",
          "type": "string"
        }
      ],
      "stateMutability": "view",
      "type": "function"
    },
    {
      "inputs": [
        {
          "internalType": "address",
          "name": "account",
          "type": "address"
        }
      ],
      "name": "addMinter",
      "outputs": [],
      "stateMutability": "nonpayable",
      "type": "function"
    },
    {
      "inputs": [
        {
          "internalType": "address[]",
          "name": "accounts",
          "type": "address[]"
        }
      ],
      "name": "addMinters",
      "outputs": [],
      "stateMutability": "nonpayable",
      "type": "function"
    },
    {
      "inputs": [
        {
          "internalType": "address[]",
          "name": "addrs",
          "type": "address[]"
        }
      ],
      "name": "addProxyReaders",
      "outputs": [],
      "stateMutability": "nonpayable",
      "type": "function"
    },
    {
      "inputs": [
        {
          "internalType": "string",
          "name": "tld",
          "type": "string"
        }
      ],
      "name": "addTld",
      "outputs": [],
      "stateMutability": "nonpayable",
      "type": "function"
    },
    {
      "inputs": [
        {
          "internalType": "uint256[]",
          "name": "tokenIds",
          "type": "uint256[]"
        }
      ],
      "name": "areBlocked",
      "outputs": [
        {
          "internalType": "bool[]",
          "name": "values",
          "type": "bool[]"
        }
      ],
      "stateMutability": "view",
      "type": "function"
    },
    {
      "inputs": [
        {
          "internalType": "uint256",
          "name": "tokenId",
          "type": "uint256"
        }
      ],
      "name": "blocklist",
      "outputs": [],
      "stateMutability": "nonpayable",
      "type": "function"
    },
    {
      "inputs": [
        {
          "internalType": "uint256[]",
          "name": "tokenIds",
          "type": "uint256[]"
        }
      ],
      "name": "blocklistAll",
      "outputs": [],
      "stateMutability": "nonpayable",
      "type": "function"
    },
    {
      "inputs": [
        {
          "internalType": "uint256",
          "name": "tld",
          "type": "uint256"
        },
        {
          "internalType": "string",
          "name": "label",
          "type": "string"
        }
      ],
      "name": "claim",
      "outputs": [],
      "stateMutability": "nonpayable",
      "type": "function"
    },
    {
      "inputs": [
        {
          "internalType": "address",
          "name": "to",
          "type": "address"
        },
        {
          "internalType": "uint256",
          "name": "tld",
          "type": "uint256"
        },
        {
          "internalType": "string",
          "name": "label",
          "type": "string"
        }
      ],
      "name": "claimTo",
      "outputs": [],
      "stateMutability": "nonpayable",
      "type": "function"
    },
    {
      "inputs": [
        {
          "internalType": "address",
          "name": "to",
          "type": "address"
        },
        {
          "internalType": "uint256",
          "name": "tld",
          "type": "uint256"
        },
        {
          "internalType": "string",
          "name": "label",
          "type": "string"
        },
        {
          "internalType": "string[]",
          "name": "keys",
          "type": "string[]"
        },
        {
          "internalType": "string[]",
          "name": "values",
          "type": "string[]"
        }
      ],
      "name": "claimToWithRecords",
      "outputs": [],
      "stateMutability": "nonpayable",
      "type": "function"
    },
    {
      "inputs": [
        {
          "internalType": "address payable",
          "name": "receiver",
          "type": "address"
        }
      ],
      "name": "closeMinter",
      "outputs": [],
      "stateMutability": "payable",
      "type": "function"
    },
    {
      "inputs": [],
      "name": "cnsMintingController",
      "outputs": [
        {
          "internalType": "contract IMintingController",
          "name": "",
          "type": "address"
        }
      ],
      "stateMutability": "view",
      "type": "function"
    },
    {
      "inputs": [],
      "name": "cnsResolver",
      "outputs": [
        {
          "internalType": "contract IResolver",
          "name": "",
          "type": "address"
        }
      ],
      "stateMutability": "view",
      "type": "function"
    },
    {
      "inputs": [],
      "name": "cnsURIPrefixController",
      "outputs": [
        {
          "internalType": "contract IURIPrefixController",
          "name": "",
          "type": "address"
        }
      ],
      "stateMutability": "view",
      "type": "function"
    },
    {
      "inputs": [],
      "name": "disableBlocklist",
      "outputs": [],
      "stateMutability": "nonpayable",
      "type": "function"
    },
    {
      "inputs": [],
      "name": "enableBlocklist",
      "outputs": [],
      "stateMutability": "nonpayable",
      "type": "function"
    },
    {
      "inputs": [
        {
          "internalType": "bytes32",
          "name": "role",
          "type": "bytes32"
        }
      ],
      "name": "getRoleAdmin",
      "outputs": [
        {
          "internalType": "bytes32",
          "name": "",
          "type": "bytes32"
        }
      ],
      "stateMutability": "view",
      "type": "function"
    },
    {
      "inputs": [
        {
          "internalType": "bytes32",
          "name": "role",
          "type": "bytes32"
        },
        {
          "internalType": "address",
          "name": "account",
          "type": "address"
        }
      ],
      "name": "grantRole",
      "outputs": [],
      "stateMutability": "nonpayable",
      "type": "function"
    },
    {
      "inputs": [
        {
          "internalType": "bytes32",
          "name": "role",
          "type": "bytes32"
        },
        {
          "internalType": "address",
          "name": "account",
          "type": "address"
        }
      ],
      "name": "hasRole",
      "outputs": [
        {
          "internalType": "bool",
          "name": "",
          "type": "bool"
        }
      ],
      "stateMutability": "view",
      "type": "function"
    },
    {
      "inputs": [
        {
          "internalType": "contract IUNSRegistry",
          "name": "unsRegistry_",
          "type": "address"
        },
        {
          "internalType": "contract IMintingController",
          "name": "cnsMintingController_",
          "type": "address"
        },
        {
          "internalType": "contract IURIPrefixController",
          "name": "cnsURIPrefixController_",
          "type": "address"
        },
        {
          "internalType": "contract IResolver",
          "name": "cnsResolver_",
          "type": "address"
        },
        {
          "internalType": "address",
          "name": "forwarder",
          "type": "address"
        }
      ],
      "name": "initialize",
      "outputs": [],
      "stateMutability": "nonpayable",
      "type": "function"
    },
    {
      "inputs": [
        {
          "internalType": "uint256",
          "name": "tokenId",
          "type": "uint256"
        }
      ],
      "name": "isBlocked",
      "outputs": [
        {
          "internalType": "bool",
          "name": "",
          "type": "bool"
        }
      ],
      "stateMutability": "view",
      "type": "function"
    },
    {
      "inputs": [],
      "name": "isBlocklistDisabled",
      "outputs": [
        {
          "internalType": "bool",
          "name": "",
          "type": "bool"
        }
      ],
      "stateMutability": "view",
      "type": "function"
    },
    {
      "inputs": [
        {
          "internalType": "address",
          "name": "account",
          "type": "address"
        }
      ],
      "name": "isMinter",
      "outputs": [
        {
          "internalType": "bool",
          "name": "",
          "type": "bool"
        }
      ],
      "stateMutability": "view",
      "type": "function"
    },
    {
      "inputs": [
        {
          "internalType": "address",
          "name": "forwarder",
          "type": "address"
        }
      ],
      "name": "isTrustedForwarder",
      "outputs": [
        {
          "internalType": "bool",
          "name": "",
          "type": "bool"
        }
      ],
      "stateMutability": "view",
      "type": "function"
    },
    {
      "inputs": [
        {
          "internalType": "address",
          "name": "to",
          "type": "address"
        },
        {
          "internalType": "string[]",
          "name": "labels",
          "type": "string[]"
        },
        {
          "internalType": "string[]",
          "name": "keys",
          "type": "string[]"
        },
        {
          "internalType": "string[]",
          "name": "values",
          "type": "string[]"
        }
      ],
      "name": "issueWithRecords",
      "outputs": [],
      "stateMutability": "nonpayable",
      "type": "function"
    },
    {
      "inputs": [
        {
          "internalType": "address",
          "name": "to",
          "type": "address"
        },
        {
          "internalType": "uint256",
          "name": "tld",
          "type": "uint256"
        },
        {
          "internalType": "string",
          "name": "label",
          "type": "string"
        }
      ],
      "name": "mintSLD",
      "outputs": [],
      "stateMutability": "nonpayable",
      "type": "function"
    },
    {
      "inputs": [
        {
          "internalType": "address",
          "name": "to",
          "type": "address"
        },
        {
          "internalType": "uint256",
          "name": "tld",
          "type": "uint256"
        },
        {
          "internalType": "string",
          "name": "label",
          "type": "string"
        },
        {
          "internalType": "string[]",
          "name": "keys",
          "type": "string[]"
        },
        {
          "internalType": "string[]",
          "name": "values",
          "type": "string[]"
        }
      ],
      "name": "mintSLDWithRecords",
      "outputs": [],
      "stateMutability": "nonpayable",
      "type": "function"
    },
    {
      "inputs": [],
      "name": "owner",
      "outputs": [
        {
          "internalType": "address",
          "name": "",
          "type": "address"
        }
      ],
      "stateMutability": "view",
      "type": "function"
    },
    {
      "inputs": [],
      "name": "pause",
      "outputs": [],
      "stateMutability": "nonpayable",
      "type": "function"
    },
    {
      "inputs": [],
      "name": "paused",
      "outputs": [
        {
          "internalType": "bool",
          "name": "",
          "type": "bool"
        }
      ],
      "stateMutability": "view",
      "type": "function"
    },
    {
      "inputs": [
        {
          "internalType": "address",
          "name": "account",
          "type": "address"
        }
      ],
      "name": "removeMinter",
      "outputs": [],
      "stateMutability": "nonpayable",
      "type": "function"
    },
    {
      "inputs": [
        {
          "internalType": "address[]",
          "name": "accounts",
          "type": "address[]"
        }
      ],
      "name": "removeMinters",
      "outputs": [],
      "stateMutability": "nonpayable",
      "type": "function"
    },
    {
      "inputs": [
        {
          "internalType": "uint256",
          "name": "tld",
          "type": "uint256"
        }
      ],
      "name": "removeTld",
      "outputs": [],
      "stateMutability": "nonpayable",
      "type": "function"
    },
    {
      "inputs": [],
      "name": "renounceMinter",
      "outputs": [],
      "stateMutability": "nonpayable",
      "type": "function"
    },
    {
      "inputs": [],
      "name": "renounceOwnership",
      "outputs": [],
      "stateMutability": "nonpayable",
      "type": "function"
    },
    {
      "inputs": [
        {
          "internalType": "bytes32",
          "name": "role",
          "type": "bytes32"
        },
        {
          "internalType": "address",
          "name": "account",
          "type": "address"
        }
      ],
      "name": "renounceRole",
      "outputs": [],
      "stateMutability": "nonpayable",
      "type": "function"
    },
    {
      "inputs": [
        {
          "internalType": "bytes32",
          "name": "role",
          "type": "bytes32"
        },
        {
          "internalType": "address",
          "name": "account",
          "type": "address"
        }
      ],
      "name": "revokeRole",
      "outputs": [],
      "stateMutability": "nonpayable",
      "type": "function"
    },
    {
      "inputs": [
        {
          "internalType": "address payable",
          "name": "receiver",
          "type": "address"
        }
      ],
      "name": "rotateMinter",
      "outputs": [],
      "stateMutability": "payable",
      "type": "function"
    },
    {
      "inputs": [
        {
          "internalType": "address",
          "name": "forwarder",
          "type": "address"
        }
      ],
      "name": "setForwarder",
      "outputs": [],
      "stateMutability": "nonpayable",
      "type": "function"
    },
    {
      "inputs": [
        {
          "internalType": "address",
          "name": "resolver",
          "type": "address"
        }
      ],
      "name": "setResolver",
      "outputs": [],
      "stateMutability": "nonpayable",
      "type": "function"
    },
    {
      "inputs": [
        {
          "internalType": "string",
          "name": "prefix",
          "type": "string"
        }
      ],
      "name": "setTokenURIPrefix",
      "outputs": [],
      "stateMutability": "nonpayable",
      "type": "function"
    },
    {
      "inputs": [
        {
          "internalType": "bytes4",
          "name": "interfaceId",
          "type": "bytes4"
        }
      ],
      "name": "supportsInterface",
      "outputs": [
        {
          "internalType": "bool",
          "name": "",
          "type": "bool"
        }
      ],
      "stateMutability": "view",
      "type": "function"
    },
    {
      "inputs": [
        {
          "internalType": "address",
          "name": "newOwner",
          "type": "address"
        }
      ],
      "name": "transferOwnership",
      "outputs": [],
      "stateMutability": "nonpayable",
      "type": "function"
    },
    {
      "inputs": [],
      "name": "unpause",
      "outputs": [],
      "stateMutability": "nonpayable",
      "type": "function"
    },
    {
      "inputs": [],
      "name": "unsRegistry",
      "outputs": [
        {
          "internalType": "contract IUNSRegistry",
          "name": "",
          "type": "address"
        }
      ],
      "stateMutability": "view",
      "type": "function"
    },
    {
      "inputs": [
        {
          "internalType": "uint256[]",
          "name": "tokenIds",
          "type": "uint256[]"
        }
      ],
      "name": "upgradeAll",
      "outputs": [],
      "stateMutability": "nonpayable",
      "type": "function"
    }
  ],
  "bytecode": "0x608060405234801561001057600080fd5b50613bae806100206000396000f3fe6080604052600436106102c95760003560e01c8063906cecc111610175578063b0aa98c7116100dc578063d4a32ad611610095578063e47d6cc61161006f578063e47d6cc6146108c6578063ec527389146108e6578063f2fde38b14610906578063ffa1ad741461092657600080fd5b8063d4a32ad614610864578063d539139314610884578063d547741f146108a657600080fd5b8063b0aa98c7146107a4578063b9998a24146107c4578063c3a3bc00146107e4578063cc2c3fc414610804578063ceeb4f5014610824578063d1f5692c1461084457600080fd5b8063a217fddf1161012e578063a217fddf146106c2578063a3f4df7e146106d7578063a849d65c14610724578063aa271e1a14610744578063ae2ad90314610764578063ae31844a1461078457600080fd5b8063906cecc11461061857806390dbdb5a1461063857806391d148541461064d578063983b2d561461066d578063986502751461068d57806399e0dd7c146106a257600080fd5b80633f4ba83a116102345780635fc1964f116101ed57806371e2a657116101c757806371e2a657146105b257806381c81d35146105d25780638456cb59146105e55780638da5cb5b146105fa57600080fd5b80635fc1964f1461056a578063634486da1461058a578063715018a61461059d57600080fd5b80633f4ba83a14610492578063463c4bcb146104a75780634e543b26146104c7578063572b6c05146104e75780635b6fa8db146105355780635c975abb1461055557600080fd5b80632eff1a95116102865780632eff1a95146103c55780632f2ff15d146103da5780633092afd5146103fa57806336568abe1461041a57806339ccf4d01461043a5780633f41b6141461045a57600080fd5b806301ffc9a7146102ce5780630e36a87d1461030357806310921f12146103305780631459457a14610345578063248a9ca314610367578063268b15ed146103a5575b600080fd5b3480156102da57600080fd5b506102ee6102e93660046133bb565b610957565b60405190151581526020015b60405180910390f35b34801561030f57600080fd5b5061032361031e366004613275565b61098e565b6040516102fa9190613692565b34801561033c57600080fd5b506102ee610a65565b34801561035157600080fd5b506103656103603660046133e3565b610a80565b005b34801561037357600080fd5b50610397610382366004613374565b60009081526097602052604090206001015490565b6040519081526020016102fa565b3480156103b157600080fd5b506103656103c0366004613486565b610db3565b3480156103d157600080fd5b50610365610ebd565b3480156103e657600080fd5b506103656103f536600461338c565b610ecf565b34801561040657600080fd5b5061036561041536600461308b565b610ef9565b34801561042657600080fd5b5061036561043536600461338c565b610f0d565b34801561044657600080fd5b506103656104553660046131c4565b610f9b565b34801561046657600080fd5b5060c95461047a906001600160a01b031681565b6040516001600160a01b0390911681526020016102fa565b34801561049e57600080fd5b50610365611107565b3480156104b357600080fd5b506103656104c2366004613374565b611117565b3480156104d357600080fd5b506103656104e236600461308b565b611147565b3480156104f357600080fd5b506102ee61050236600461308b565b7f893ef2ea16c023f61d4f55d3e6ee3fc3f2fbfd478461323dbc2fbf919047086e546001600160a01b0390811691161490565b34801561054157600080fd5b5060cc5461047a906001600160a01b031681565b34801561056157600080fd5b506102ee611171565b34801561057657600080fd5b506103656105853660046132b4565b611187565b61036561059836600461308b565b6111dd565b3480156105a957600080fd5b506103656112a0565b3480156105be57600080fd5b506103656105cd3660046132b4565b6112b2565b6103656105e036600461308b565b611308565b3480156105f157600080fd5b50610365611385565b34801561060657600080fd5b506033546001600160a01b031661047a565b34801561062457600080fd5b5061036561063336600461316b565b611395565b34801561064457600080fd5b5061036561148b565b34801561065957600080fd5b506102ee61066836600461338c565b61149b565b34801561067957600080fd5b5061036561068836600461308b565b6114c6565b34801561069957600080fd5b506103656114d7565b3480156106ae57600080fd5b506103656106bd366004613453565b6114f1565b3480156106ce57600080fd5b50610397600081565b3480156106e357600080fd5b50610717604051806040016040528060148152602001732aa7299d1026b4b73a34b7339026b0b730b3b2b960611b81525081565b6040516102fa9190613777565b34801561073057600080fd5b5060cb5461047a906001600160a01b031681565b34801561075057600080fd5b506102ee61075f36600461308b565b6115d0565b34801561077057600080fd5b5061036561077f36600461316b565b6115ea565b34801561079057600080fd5b5061036561079f366004613275565b611730565b3480156107b057600080fd5b506102ee6107bf366004613374565b611789565b3480156107d057600080fd5b506103656107df36600461308b565b6117f6565b3480156107f057600080fd5b506103656107ff366004613453565b61183b565b34801561081057600080fd5b5060ca5461047a906001600160a01b031681565b34801561083057600080fd5b5061036561083f3660046131c4565b611882565b34801561085057600080fd5b5061036561085f366004613275565b61196f565b34801561087057600080fd5b5061036561087f3660046130c3565b611a34565b34801561089057600080fd5b50610397600080516020613b8283398151915281565b3480156108b257600080fd5b506103656108c136600461338c565b611bfb565b3480156108d257600080fd5b506103656108e1366004613275565b611c20565b3480156108f257600080fd5b50610365610901366004613374565b611c51565b34801561091257600080fd5b5061036561092136600461308b565b611cc3565b34801561093257600080fd5b50610717604051806040016040528060058152602001640c0b8ccb8d60da1b81525081565b60006001600160e01b03198216637965db0b60e01b148061098857506301ffc9a760e01b6001600160e01b03198316145b92915050565b6060816001600160401b038111156109b657634e487b7160e01b600052604160045260246000fd5b6040519080825280602002602001820160405280156109df578160200160208202803683370190505b50905060005b82811015610a5e57610a1c848483818110610a1057634e487b7160e01b600052603260045260246000fd5b90506020020135611789565b828281518110610a3c57634e487b7160e01b600052603260045260246000fd5b9115156020928302919091019091015280610a5681613ac5565b9150506109e5565b5092915050565b6000600080516020613b428339815191525b5460ff16919050565b600054610100900460ff1615808015610aa05750600054600160ff909116105b80610aba5750303b158015610aba575060005460ff166001145b610b225760405162461bcd60e51b815260206004820152602e60248201527f496e697469616c697a61626c653a20636f6e747261637420697320616c72656160448201526d191e481a5b9a5d1a585b1a5e995960921b60648201526084015b60405180910390fd5b6000805460ff191660011790558015610b45576000805461ff0019166101001790555b60c980546001600160a01b038089166001600160a01b03199283161790925560ca805488841690831617905560cb805487841690831617905560cc805492861692909116919091179055610b97611cdf565b610b9f611d16565b610ba882611d4f565b610bb0611d76565b610bb8611dc0565b604080516101a081018252600661016082018181526563727970746f60d01b610180840152825282518084018452908152651dd85b1b195d60d21b602082810191909152808301919091528251808401845260018152600f60fb1b8183015282840152825180840184526003808252621b999d60ea1b82840152606084019190915283518085018552600a815269313637b1b5b1b430b4b760b11b818401526080840152835180850185526007808252663134ba31b7b4b760c91b8285015260a0850191909152845180860186528281526207070760eb1b8185015260c0850152845180860186528281526264616f60e81b8185015260e085015284518086018652918252621e9a5b60ea1b8284015261010084019190915283518085018552908152663837b63cb3b7b760c91b818301526101208301528251808401909352600b83526a756e73746f707061626c6560a81b9083015261014081019190915260005b600b811015610d6357610d518282600b8110610d4757634e487b7160e01b600052603260045260246000fd5b6020020151611dfd565b80610d5b81613ac5565b915050610d1b565b50508015610dab576000805461ff0019169055604051600181527f7f26b83ff96e1f2b6a682f133852f6798a09c465da95921460cefb38474024989060200160405180910390a15b505050505050565b8282828080601f016020809104026020016040519081016040528093929190818152602001838380828437600092019190915250610df69250849150611f199050565b610e125760405162461bcd60e51b8152600401610b199061382f565b6000610e1d82611f3f565b9050600a81600001511115610e7557610e48610e3c826000600a611f6c565b80516020909101512090565b600080516020613b628339815191521415610e755760405162461bcd60e51b8152600401610b199061378a565b610e7d611171565b15610e9a5760405162461bcd60e51b8152600401610b1990613805565b610dab610ea5611fab565b610eb888610eb38989611fba565b611fe6565b612113565b610ec5612121565b610ecd61219a565b565b600082815260976020526040902060010154610eea81612245565b610ef48383612256565b505050565b610f01612121565b610f0a816122dd565b50565b610f15611fab565b6001600160a01b0316816001600160a01b031614610f8d5760405162461bcd60e51b815260206004820152602f60248201527f416363657373436f6e74726f6c3a2063616e206f6e6c792072656e6f756e636560448201526e103937b632b9903337b91039b2b63360891b6064820152608401610b19565b610f9782826122f5565b5050565b610fa661075f611fab565b610fc25760405162461bcd60e51b8152600401610b19906137d0565b8686868080601f0160208091040260200160405190810160405280939291908181526020018383808284376000920191909152506110059250849150611f199050565b6110215760405162461bcd60e51b8152600401610b199061382f565b600061102c82611f3f565b9050600a816000015111156110785761104b610e3c826000600a611f6c565b600080516020613b6283398151915214156110785760405162461bcd60e51b8152600401610b199061378a565b611080611171565b1561109d5760405162461bcd60e51b8152600401610b1990613805565b6110fa8b6110e18c8c8c8080601f016020809104026020016040519081016040528093929190818152602001838380828437600092019190915250611fe692505050565b6110eb898b61397e565b6110f5888a61397e565b61237a565b5050505050505050505050565b61110f612121565b610ecd61272f565b61112261075f611fab565b61113e5760405162461bcd60e51b8152600401610b19906137d0565b610f0a816127ba565b61114f612121565b60cc80546001600160a01b0319166001600160a01b0392909216919091179055565b6000600080516020613b22833981519152610a77565b61118f612121565b60005b8151811015610f97576111cb8282815181106111be57634e487b7160e01b600052603260045260246000fd5b60200260200101516122dd565b806111d581613ac5565b915050611192565b6111e861075f611fab565b6112045760405162461bcd60e51b8152600401610b19906137d0565b6001600160a01b03811661125a5760405162461bcd60e51b815260206004820152601d60248201527f4d696e746572526f6c653a2052454345495645525f49535f454d5054590000006044820152606401610b19565b61126381612889565b61126b6114d7565b6040516001600160a01b038216903480156108fc02916000818181858888f19350505050158015610f97573d6000803e3d6000fd5b6112a8612121565b610ecd60006128a1565b6112ba612121565b60005b8151811015610f97576112f68282815181106112e957634e487b7160e01b600052603260045260246000fd5b6020026020010151612889565b8061130081613ac5565b9150506112bd565b61131361075f611fab565b61132f5760405162461bcd60e51b8152600401610b19906137d0565b6001600160a01b0381166112635760405162461bcd60e51b815260206004820152601d60248201527f4d696e746572526f6c653a2052454345495645525f49535f454d5054590000006044820152606401610b19565b61138d612121565b610ecd6128f3565b8282828080601f0160208091040260200160405190810160405280939291908181526020018383808284376000920191909152506113d89250849150611f199050565b6113f45760405162461bcd60e51b8152600401610b199061382f565b60006113ff82611f3f565b9050600a8160000151111561144b5761141e610e3c826000600a611f6c565b600080516020613b62833981519152141561144b5760405162461bcd60e51b8152600401610b199061378a565b611453611171565b156114705760405162461bcd60e51b8152600401610b1990613805565b61148287610eb888610eb38989611fba565b50505050505050565b611493612121565b610ecd61295b565b60009182526097602090815260408084206001600160a01b0393909316845291905290205460ff1690565b6114ce612121565b610f0a81612889565b610ecd600080516020613b82833981519152610435611fab565b6114f9612121565b60c954604051632678375f60e21b81526001600160a01b03909116906399e0dd7c9061152b9085908590600401613748565b600060405180830381600087803b15801561154557600080fd5b505af1158015611559573d6000803e3d6000fd5b505060cb546001600160a01b0316159150610f9790505760cb54604051632678375f60e21b81526001600160a01b03909116906399e0dd7c906115a29085908590600401613748565b600060405180830381600087803b1580156115bc57600080fd5b505af1158015610dab573d6000803e3d6000fd5b6000610988600080516020613b828339815191528361149b565b6115f561075f611fab565b6116115760405162461bcd60e51b8152600401610b19906137d0565b8282828080601f0160208091040260200160405190810160405280939291908181526020018383808284376000920191909152506116549250849150611f199050565b6116705760405162461bcd60e51b8152600401610b199061382f565b600061167b82611f3f565b9050600a816000015111156116c75761169a610e3c826000600a611f6c565b600080516020613b6283398151915214156116c75760405162461bcd60e51b8152600401610b199061378a565b6116cf611171565b156116ec5760405162461bcd60e51b8152600401610b1990613805565b61148287610eb88888888080601f016020809104026020016040519081016040528093929190818152602001838380828437600092019190915250611fe692505050565b61173b61075f611fab565b6117575760405162461bcd60e51b8152600401610b19906137d0565b60c954604051635718c22560e11b81526001600160a01b039091169063ae31844a906115a2908590859060040161370e565b6000611793610a65565b1580156109885750604080517f1ec047073e2c8b15660901dbfdb6e3ff6365bd699dd9f95dcc6eab5448bebd6960208201529081018390526117ec906060015b6040516020818303038152906040528051906020012090565b5460ff1692915050565b6117fe612121565b7f893ef2ea16c023f61d4f55d3e6ee3fc3f2fbfd478461323dbc2fbf919047086e80546001600160a01b0319166001600160a01b03831617905550565b611843612121565b610f9782828080601f016020809104026020016040519081016040528093929190818152602001838380828437600092019190915250611dfd92505050565b8686868080601f0160208091040260200160405190810160405280939291908181526020018383808284376000920191909152506118c59250849150611f199050565b6118e15760405162461bcd60e51b8152600401610b199061382f565b60006118ec82611f3f565b9050600a816000015111156119385761190b610e3c826000600a611f6c565b600080516020613b6283398151915214156119385760405162461bcd60e51b8152600401610b199061378a565b611940611171565b1561195d5760405162461bcd60e51b8152600401610b1990613805565b6110fa8b6110e18c610eb38d8d611fba565b611977612121565b60005b81811015610ef45760c9546001600160a01b031663509602398484848181106119b357634e487b7160e01b600052603260045260246000fd5b90506020020160208101906119c8919061308b565b6040516001600160e01b031960e084901b1681526001600160a01b039091166004820152602401600060405180830381600087803b158015611a0957600080fd5b505af1158015611a1d573d6000803e3d6000fd5b505050508080611a2c90613ac5565b91505061197a565b611a3f61075f611fab565b611a5b5760405162461bcd60e51b8152600401610b19906137d0565b611a65858761397e565b600281511015611ac55760405162461bcd60e51b815260206004820152602560248201527f4d696e74696e674d616e616765723a204c4142454c535f4c454e4754485f42456044820152642627abaf9960d91b6064820152608401610b19565b611b028160018351611ad79190613967565b81518110611af557634e487b7160e01b600052603260045260246000fd5b60200260200101516129e4565b611b1e5760405162461bcd60e51b8152600401610b199061382f565b6000611b5d8260028451611b329190613967565b81518110611b5057634e487b7160e01b600052603260045260246000fd5b6020026020010151611f3f565b9050600a81600001511115611ba957611b7c610e3c826000600a611f6c565b600080516020613b628339815191521415611ba95760405162461bcd60e51b8152600401610b199061378a565b611bb1611171565b15611bce5760405162461bcd60e51b8152600401610b1990613805565b611bf089611bdc898b61397e565b611be6888a61397e565b6110f5878961397e565b505050505050505050565b600082815260976020526040902060010154611c1681612245565b610ef483836122f5565b611c2b61075f611fab565b611c475760405162461bcd60e51b8152600401610b19906137d0565b610f978282612a04565b611c59612121565b611c6281611f19565b611c7e5760405162461bcd60e51b8152600401610b199061382f565b600081815260cd60205260408120611c9591612f30565b60405181907f0aa1aff0f830e739d86baf0e6624d6763da02f7733575e0e463886cd062dea6a90600090a250565b611ccb612121565b611cd481612a50565b610f0a600082612ac6565b600054610100900460ff16611d065760405162461bcd60e51b8152600401610b1990613871565b610ecd611d11611fab565b6128a1565b600054610100900460ff16611d3d5760405162461bcd60e51b8152600401610b1990613871565b610ecd6000611d4a611fab565b612ac6565b600054610100900460ff166117fe5760405162461bcd60e51b8152600401610b1990613871565b600054610100900460ff16611d9d5760405162461bcd60e51b8152600401610b1990613871565b6000600080516020613b428339815191525b805460ff1916911515919091179055565b600054610100900460ff16611de75760405162461bcd60e51b8152600401610b1990613871565b6000600080516020613b22833981519152611daf565b6000611e0a600083612ad0565b600081815260cd602090815260409091208451929350611e2e929091850190612f6a565b50807f4fce6f6e172b04eaa80325d8e3b0180a34945000f3e214605039e8420fdf898083604051611e5f9190613777565b60405180910390a260c954604051634f558e7960e01b8152600481018390526001600160a01b0390911690634f558e799060240160206040518083038186803b158015611eab57600080fd5b505afa158015611ebf573d6000803e3d6000fd5b505050506040513d601f19601f82011682018060405250810190611ee39190613354565b610f975760c9546040516307befae360e51b81526001600160a01b039091169063f7df5c60906115a290849086906004016138bc565b600081815260cd602052604081208054829190611f3590613a8a565b9050119050919050565b60408051808201825260008082526020918201528151808301909252825182529182019181019190915290565b60408051808201909152600080825260208201526040518060400160405280838152602001848660200151611fa19190613930565b9052949350505050565b6000611fb5612b85565b905090565b60608282604051602001611fcf92919061356b565b604051602081830303815290604052905092915050565b604080516002808252606082810190935260009190816020015b6060815260200190600190039081612000579050509050828160008151811061203957634e487b7160e01b600052603260045260246000fd5b602002602001018190525060cd6000858152602001908152602001600020805461206290613a8a565b80601f016020809104026020016040519081016040528092919081815260200182805461208e90613a8a565b80156120db5780601f106120b0576101008083540402835291602001916120db565b820191906000526020600020905b8154815290600101906020018083116120be57829003601f168201915b50505050508160018151811061210157634e487b7160e01b600052603260045260246000fd5b60209081029190910101529392505050565b6060610ef48383838461237a565b612129611fab565b6001600160a01b03166121446033546001600160a01b031690565b6001600160a01b031614610ecd5760405162461bcd60e51b815260206004820181905260248201527f4f776e61626c653a2063616c6c6572206973206e6f7420746865206f776e65726044820152606401610b19565b6121a2610a65565b156121e55760405162461bcd60e51b8152602060048201526013602482015272109b1bd8dadb1a5cdd0e88111254d050931151606a1b6044820152606401610b19565b600080516020613b42833981519152805460ff191660011790557f079c4efaefd9fc7ddb28144b9b0140c03f42922d28d0e226369d607092158166612228611fab565b6040516001600160a01b03909116815260200160405180910390a1565b610f0a81612251611fab565b612bcc565b612260828261149b565b610f975760008281526097602090815260408083206001600160a01b03851684529091529020805460ff19166001179055612299611fab565b6001600160a01b0316816001600160a01b0316837f2f8788117e7eff1d82e926ec794901d17c78024a50270940304540a733656f0d60405160405180910390a45050565b610f0a600080516020613b8283398151915282611bfb565b6122ff828261149b565b15610f975760008281526097602090815260408083206001600160a01b03851684529091529020805460ff19169055612336611fab565b6001600160a01b0316816001600160a01b0316837ff6391f5c32d9c69d2a47ea670b442974b53935d1edc7fd64eb21e047a839171b60405160405180910390a45050565b600061238584612c30565b60c954604051634f558e7960e01b8152600481018390529192506001600160a01b031690634f558e799060240160206040518083038186803b1580156123ca57600080fd5b505afa1580156123de573d6000803e3d6000fd5b505050506040513d601f19601f820116820180604052508101906124029190613354565b156125b95760c9546040516331a9108f60e11b81526004810183905230916001600160a01b031690636352211e9060240160206040518083038186803b15801561244b57600080fd5b505afa15801561245f573d6000803e3d6000fd5b505050506040513d601f19601f8201168201806040525081019061248391906130a7565b6001600160a01b0316146124e75760405162461bcd60e51b815260206004820152602560248201527f4d696e74696e674d616e616765723a2049535355494e475f554e4f574e45445f6044820152642a27a5a2a760d91b6064820152608401610b19565b60c9546040516376094f7560e11b81526001600160a01b039091169063ec129eea9061251b908690869086906004016136d8565b600060405180830381600087803b15801561253557600080fd5b505af1158015612549573d6000803e3d6000fd5b505060c95460405163559dc3ff60e11b81526001600160a01b03898116600483015260248201869052909116925063ab3b87fe91506044015b600060405180830381600087803b15801561259c57600080fd5b505af11580156125b0573d6000803e3d6000fd5b50505050612728565b6125c281612c8d565b6125cb84612cef565b80156125d8575083516002145b156126c45760ca5484516001600160a01b039091169063c36c2125908790879060009061261557634e487b7160e01b600052603260045260246000fd5b602090810291909101015160cc546040516001600160e01b031960e086901b16815261264f9392916001600160a01b03169060040161365d565b600060405180830381600087803b15801561266957600080fd5b505af115801561267d573d6000803e3d6000fd5b505050506000835111156126bf5760cc54604051633a0deb9d60e21b81526001600160a01b039091169063e837ae7490612582908690869086906004016136d8565b612728565b60c954604051637d67df6360e01b81526001600160a01b0390911690637d67df63906126fa908890889088908890600401613608565b600060405180830381600087803b15801561271457600080fd5b505af1158015611bf0573d6000803e3d6000fd5b5050505050565b612737611171565b61277a5760405162461bcd60e51b815260206004820152601460248201527314185d5cd8589b194e881393d517d4105554d15160621b6044820152606401610b19565b600080516020613b22833981519152805460ff191690557f5db9ee0a495bf2e6ff9c91a7834c1ba4fdd244a5e8aa4e537bd38aeae4b073aa612228611fab565b6127c2610a65565b156128055760405162461bcd60e51b8152602060048201526013602482015272109b1bd8dadb1a5cdd0e88111254d050931151606a1b6044820152606401610b19565b604080517f1ec047073e2c8b15660901dbfdb6e3ff6365bd699dd9f95dcc6eab5448bebd696020820152908101829052600190612844906060016117d3565b805460ff19169115159190911790556040518181527f2ce5d9351b1d590d5a066db0d2dc7602d55f092506a83a7ee8c4d78ee357d75a9060200160405180910390a150565b610f0a600080516020613b8283398151915282612ac6565b603380546001600160a01b038381166001600160a01b0319831681179093556040519116919082907f8be0079c531659141344cd1fd0a4f28419497f9722a3daafe3b4186f6b6457e090600090a35050565b6128fb611171565b156129185760405162461bcd60e51b8152600401610b1990613805565b600080516020613b22833981519152805460ff191660011790557f62e78cea01bee320cd4e420270b5ea74000d11b0c9f74754ebdbfc544b05a258612228611fab565b612963610a65565b6129a45760405162461bcd60e51b8152602060048201526012602482015271109b1bd8dadb1a5cdd0e881153905093115160721b6044820152606401610b19565b600080516020613b42833981519152805460ff191690557f316c4cec74b9568f102eda30781a2fe8cd5172329bf1401e804cb8c5131715c4612228611fab565b6000806129f2600084612ad0565b90506129fd81611f19565b9392505050565b60005b81811015610ef457612a3e838383818110612a3257634e487b7160e01b600052603260045260246000fd5b905060200201356127ba565b80612a4881613ac5565b915050612a07565b612a58612121565b6001600160a01b038116612abd5760405162461bcd60e51b815260206004820152602660248201527f4f776e61626c653a206e6577206f776e657220697320746865207a65726f206160448201526564647265737360d01b6064820152608401610b19565b610f0a816128a1565b610f978282612256565b6000815160001415612b245760405162461bcd60e51b815260206004820152601b60248201527f4d696e74696e674d616e616765723a204c4142454c5f454d50545900000000006044820152606401610b19565b8282604051602001612b36919061354f565b60405160208183030381529060405280519060200120604051602001612b66929190918252602082015260400190565b60408051601f1981840301815291905280516020909101209392505050565b7f893ef2ea16c023f61d4f55d3e6ee3fc3f2fbfd478461323dbc2fbf919047086e546000906001600160a01b0316331415612bc7575060331936013560601c90565b503390565b612bd6828261149b565b610f9757612bee816001600160a01b03166014612d11565b612bf9836020612d11565b604051602001612c0a929190613593565b60408051601f198184030181529082905262461bcd60e51b8252610b1991600401613777565b805160009081905b8015610a5e57612c798285612c4e600185613967565b81518110612c6c57634e487b7160e01b600052603260045260246000fd5b6020026020010151612ad0565b915080612c8581613a73565b915050612c38565b612c95610a65565b610f0a57612ca281611789565b1561113e5760405162461bcd60e51b815260206004820152601d60248201527f4d696e74696e674d616e616765723a20544f4b454e5f424c4f434b45440000006044820152606401610b19565b600080612d0660008460018651612c4e9190613967565b90506129fd81612ef2565b60606000612d20836002613948565b612d2b906002613930565b6001600160401b03811115612d5057634e487b7160e01b600052604160045260246000fd5b6040519080825280601f01601f191660200182016040528015612d7a576020820181803683370190505b509050600360fc1b81600081518110612da357634e487b7160e01b600052603260045260246000fd5b60200101906001600160f81b031916908160001a905350600f60fb1b81600181518110612de057634e487b7160e01b600052603260045260246000fd5b60200101906001600160f81b031916908160001a9053506000612e04846002613948565b612e0f906001613930565b90505b6001811115612ea3576f181899199a1a9b1b9c1cb0b131b232b360811b85600f1660108110612e5157634e487b7160e01b600052603260045260246000fd5b1a60f81b828281518110612e7557634e487b7160e01b600052603260045260246000fd5b60200101906001600160f81b031916908160001a90535060049490941c93612e9c81613a73565b9050612e12565b5083156129fd5760405162461bcd60e51b815260206004820181905260248201527f537472696e67733a20686578206c656e67746820696e73756666696369656e746044820152606401610b19565b60ca546000906001600160a01b0316158015906109885750507f0f4a10a4f46c288cea365fcf45cccf0e9d901b945b9829ccdb54c10dc3cb7a6f1490565b508054612f3c90613a8a565b6000825580601f10612f4c575050565b601f016020900490600052602060002090810190610f0a9190612fee565b828054612f7690613a8a565b90600052602060002090601f016020900481019282612f985760008555612fde565b82601f10612fb157805160ff1916838001178555612fde565b82800160010185558215612fde579182015b82811115612fde578251825591602001919060010190612fc3565b50612fea929150612fee565b5090565b5b80821115612fea5760008155600101612fef565b60008083601f840112613014578182fd5b5081356001600160401b0381111561302a578182fd5b6020830191508360208260051b850101111561304557600080fd5b9250929050565b60008083601f84011261305d578182fd5b5081356001600160401b03811115613073578182fd5b60208301915083602082850101111561304557600080fd5b60006020828403121561309c578081fd5b81356129fd81613b0c565b6000602082840312156130b8578081fd5b81516129fd81613b0c565b60008060008060008060006080888a0312156130dd578283fd5b87356130e881613b0c565b965060208801356001600160401b0380821115613103578485fd5b61310f8b838c01613003565b909850965060408a0135915080821115613127578485fd5b6131338b838c01613003565b909650945060608a013591508082111561314b578384fd5b506131588a828b01613003565b989b979a50959850939692959293505050565b60008060008060608587031215613180578384fd5b843561318b81613b0c565b93506020850135925060408501356001600160401b038111156131ac578283fd5b6131b88782880161304c565b95989497509550505050565b60008060008060008060008060a0898b0312156131df578182fd5b88356131ea81613b0c565b97506020890135965060408901356001600160401b038082111561320c578384fd5b6132188c838d0161304c565b909850965060608b0135915080821115613230578384fd5b61323c8c838d01613003565b909650945060808b0135915080821115613254578384fd5b506132618b828c01613003565b999c989b5096995094979396929594505050565b60008060208385031215613287578182fd5b82356001600160401b0381111561329c578283fd5b6132a885828601613003565b90969095509350505050565b600060208083850312156132c6578182fd5b82356001600160401b038111156132db578283fd5b8301601f810185136132eb578283fd5b80356132fe6132f98261390d565b6138dd565b80828252848201915084840188868560051b870101111561331d578687fd5b8694505b8385101561334857803561333481613b0c565b835260019490940193918501918501613321565b50979650505050505050565b600060208284031215613365578081fd5b815180151581146129fd578182fd5b600060208284031215613385578081fd5b5035919050565b6000806040838503121561339e578182fd5b8235915060208301356133b081613b0c565b809150509250929050565b6000602082840312156133cc578081fd5b81356001600160e01b0319811681146129fd578182fd5b600080600080600060a086880312156133fa578283fd5b853561340581613b0c565b9450602086013561341581613b0c565b9350604086013561342581613b0c565b9250606086013561343581613b0c565b9150608086013561344581613b0c565b809150509295509295909350565b60008060208385031215613465578182fd5b82356001600160401b0381111561347a578283fd5b6132a88582860161304c565b60008060006040848603121561349a578081fd5b8335925060208401356001600160401b038111156134b6578182fd5b6134c28682870161304c565b9497909650939450505050565b600081518084526020808501808196508360051b81019150828601855b85811015613516578284038952613504848351613523565b988501989350908401906001016134ec565b5091979650505050505050565b6000815180845261353b816020860160208601613a43565b601f01601f19169290920160200192915050565b60008251613561818460208701613a43565b9190910192915050565b6b756e732d646576746573742d60a01b81528183600c83013760009101600c01908152919050565b7f416363657373436f6e74726f6c3a206163636f756e74200000000000000000008152600083516135cb816017850160208801613a43565b7001034b99036b4b9b9b4b733903937b6329607d1b60179184019182015283516135fc816028840160208801613a43565b01602801949350505050565b6001600160a01b038516815260806020820181905260009061362c908301866134cf565b828103604084015261363e81866134cf565b9050828103606084015261365281856134cf565b979650505050505050565b600060018060a01b0380861683526060602084015261367f6060840186613523565b9150808416604084015250949350505050565b6020808252825182820181905260009190848201906040850190845b818110156136cc5783511515835292840192918401916001016136ae565b50909695505050505050565b6060815260006136eb60608301866134cf565b82810360208401526136fd81866134cf565b915050826040830152949350505050565b6020808252810182905260006001600160fb1b0383111561372d578081fd5b8260051b808560408501379190910160400190815292915050565b60208152816020820152818360408301376000818301604090810191909152601f909201601f19160101919050565b6020815260006129fd6020830184613523565b60208082526026908201527f4d696e74696e674d616e616765723a20544f4b454e5f4c4142454c5f50524f4860408201526512509255115160d21b606082015260800190565b6020808252818101527f4d696e746572526f6c653a2043414c4c45525f49535f4e4f545f4d494e544552604082015260600190565b60208082526010908201526f14185d5cd8589b194e8814105554d15160821b604082015260600190565b60208082526022908201527f4d696e74696e674d616e616765723a20544c445f4e4f545f5245474953544552604082015261115160f21b606082015260800190565b6020808252602b908201527f496e697469616c697a61626c653a20636f6e7472616374206973206e6f74206960408201526a6e697469616c697a696e6760a81b606082015260800190565b8281526040602082015260006138d56040830184613523565b949350505050565b604051601f8201601f191681016001600160401b038111828210171561390557613905613af6565b604052919050565b60006001600160401b0382111561392657613926613af6565b5060051b60200190565b6000821982111561394357613943613ae0565b500190565b600081600019048311821515161561396257613962613ae0565b500290565b60008282101561397957613979613ae0565b500390565b600061398c6132f98461390d565b808482526020808301925084368760051b870111156139a9578485fd5b845b87811015613a375781356001600160401b03808211156139c9578788fd5b90880190601f36818401126139dc578889fd5b8235828111156139ee576139ee613af6565b6139ff818301601f191688016138dd565b92508083523687828601011115613a1457898afd5b8087850188850137820186018990525086525093820193908201906001016139ab565b50919695505050505050565b60005b83811015613a5e578181015183820152602001613a46565b83811115613a6d576000848401525b50505050565b600081613a8257613a82613ae0565b506000190190565b600181811c90821680613a9e57607f821691505b60208210811415613abf57634e487b7160e01b600052602260045260246000fd5b50919050565b6000600019821415613ad957613ad9613ae0565b5060010190565b634e487b7160e01b600052601160045260246000fd5b634e487b7160e01b600052604160045260246000fd5b6001600160a01b0381168114610f0a57600080fdfe5496787fc1ebdfeba375028c1865f13fbb1d63c0caa356ccc1b29a80f3ebd622a85b8425a460dd344a297bd4a82e287385f0fc558cb3e78867b0489f43df2470b551e0305c8163b812374b8e78b577c77f226f6f10c5ad03e52699578fbc34b89f2df0fed2c77648de5860a4cc508cd0818c85b8b8a1ab4ceeef8d981c8956a6a164736f6c6343000804000a",
  "linkReferences": {},
  "deployedLinkReferences": {}
}