{
  "_format": "hh-sol-artifact-1",
  "contractName": "MintingManager",
  "sourceName": "contracts/MintingManager.sol",
  "abi": [
    {
      "anonymous": false,
      "inputs": [
        {
          "indexed": true,
          "internalType": "address",
          "name": "previousOwner",
          "type": "address"
        },
        {
          "indexed": true,
          "internalType": "address",
          "name": "newOwner",
          "type": "address"
        }
      ],
      "name": "OwnershipTransferred",
      "type": "event"
    },
    {
      "anonymous": false,
      "inputs": [
        {
          "indexed": true,
          "internalType": "address",
          "name": "sender",
          "type": "address"
        },
        {
          "indexed": true,
          "internalType": "address",
          "name": "signer",
          "type": "address"
        },
        {
          "indexed": true,
          "internalType": "bytes4",
          "name": "funcSig",
          "type": "bytes4"
        },
        {
          "indexed": false,
          "internalType": "bytes32",
          "name": "digest",
          "type": "bytes32"
        }
      ],
      "name": "Relayed",
      "type": "event"
    },
    {
      "anonymous": false,
      "inputs": [
        {
          "indexed": true,
          "internalType": "bytes32",
          "name": "role",
          "type": "bytes32"
        },
        {
          "indexed": true,
          "internalType": "bytes32",
          "name": "previousAdminRole",
          "type": "bytes32"
        },
        {
          "indexed": true,
          "internalType": "bytes32",
          "name": "newAdminRole",
          "type": "bytes32"
        }
      ],
      "name": "RoleAdminChanged",
      "type": "event"
    },
    {
      "anonymous": false,
      "inputs": [
        {
          "indexed": true,
          "internalType": "bytes32",
          "name": "role",
          "type": "bytes32"
        },
        {
          "indexed": true,
          "internalType": "address",
          "name": "account",
          "type": "address"
        },
        {
          "indexed": true,
          "internalType": "address",
          "name": "sender",
          "type": "address"
        }
      ],
      "name": "RoleGranted",
      "type": "event"
    },
    {
      "anonymous": false,
      "inputs": [
        {
          "indexed": true,
          "internalType": "bytes32",
          "name": "role",
          "type": "bytes32"
        },
        {
          "indexed": true,
          "internalType": "address",
          "name": "account",
          "type": "address"
        },
        {
          "indexed": true,
          "internalType": "address",
          "name": "sender",
          "type": "address"
        }
      ],
      "name": "RoleRevoked",
      "type": "event"
    },
    {
      "inputs": [],
      "name": "DEFAULT_ADMIN_ROLE",
      "outputs": [
        {
          "internalType": "bytes32",
          "name": "",
          "type": "bytes32"
        }
      ],
      "stateMutability": "view",
      "type": "function"
    },
    {
      "inputs": [],
      "name": "MINTER_ROLE",
      "outputs": [
        {
          "internalType": "bytes32",
          "name": "",
          "type": "bytes32"
        }
      ],
      "stateMutability": "view",
      "type": "function"
    },
    {
      "inputs": [],
      "name": "NAME",
      "outputs": [
        {
          "internalType": "string",
          "name": "",
          "type": "string"
        }
      ],
      "stateMutability": "view",
      "type": "function"
    },
    {
      "inputs": [],
      "name": "VERSION",
      "outputs": [
        {
          "internalType": "string",
          "name": "",
          "type": "string"
        }
      ],
      "stateMutability": "view",
      "type": "function"
    },
    {
      "inputs": [
        {
          "internalType": "address",
          "name": "account",
          "type": "address"
        }
      ],
      "name": "addMinter",
      "outputs": [],
      "stateMutability": "nonpayable",
      "type": "function"
    },
    {
      "inputs": [
        {
          "internalType": "address[]",
          "name": "accounts",
          "type": "address[]"
        }
      ],
      "name": "addMinters",
      "outputs": [],
      "stateMutability": "nonpayable",
      "type": "function"
    },
    {
      "inputs": [
        {
          "internalType": "uint256",
          "name": "tld",
          "type": "uint256"
        },
        {
          "internalType": "string",
          "name": "label",
          "type": "string"
        }
      ],
      "name": "claim",
      "outputs": [],
      "stateMutability": "nonpayable",
      "type": "function"
    },
    {
      "inputs": [
        {
          "internalType": "address",
          "name": "to",
          "type": "address"
        },
        {
          "internalType": "uint256",
          "name": "tld",
          "type": "uint256"
        },
        {
          "internalType": "string",
          "name": "label",
          "type": "string"
        }
      ],
      "name": "claimTo",
      "outputs": [],
      "stateMutability": "nonpayable",
      "type": "function"
    },
    {
      "inputs": [
        {
          "internalType": "address",
          "name": "to",
          "type": "address"
        },
        {
          "internalType": "uint256",
          "name": "tld",
          "type": "uint256"
        },
        {
          "internalType": "string",
          "name": "label",
          "type": "string"
        },
        {
          "internalType": "string[]",
          "name": "keys",
          "type": "string[]"
        },
        {
          "internalType": "string[]",
          "name": "values",
          "type": "string[]"
        }
      ],
      "name": "claimToWithRecords",
      "outputs": [],
      "stateMutability": "nonpayable",
      "type": "function"
    },
    {
      "inputs": [
        {
          "internalType": "address payable",
          "name": "receiver",
          "type": "address"
        }
      ],
      "name": "closeMinter",
      "outputs": [],
      "stateMutability": "payable",
      "type": "function"
    },
    {
      "inputs": [],
      "name": "cnsMintingController",
      "outputs": [
        {
          "internalType": "contract IMintingController",
          "name": "",
          "type": "address"
        }
      ],
      "stateMutability": "view",
      "type": "function"
    },
    {
      "inputs": [],
      "name": "cnsResolver",
      "outputs": [
        {
          "internalType": "contract IResolver",
          "name": "",
          "type": "address"
        }
      ],
      "stateMutability": "view",
      "type": "function"
    },
    {
      "inputs": [],
      "name": "cnsURIPrefixController",
      "outputs": [
        {
          "internalType": "contract IURIPrefixController",
          "name": "",
          "type": "address"
        }
      ],
      "stateMutability": "view",
      "type": "function"
    },
    {
      "inputs": [
        {
          "internalType": "bytes32",
          "name": "role",
          "type": "bytes32"
        }
      ],
      "name": "getRoleAdmin",
      "outputs": [
        {
          "internalType": "bytes32",
          "name": "",
          "type": "bytes32"
        }
      ],
      "stateMutability": "view",
      "type": "function"
    },
    {
      "inputs": [
        {
          "internalType": "bytes32",
          "name": "role",
          "type": "bytes32"
        },
        {
          "internalType": "address",
          "name": "account",
          "type": "address"
        }
      ],
      "name": "grantRole",
      "outputs": [],
      "stateMutability": "nonpayable",
      "type": "function"
    },
    {
      "inputs": [
        {
          "internalType": "bytes32",
          "name": "role",
          "type": "bytes32"
        },
        {
          "internalType": "address",
          "name": "account",
          "type": "address"
        }
      ],
      "name": "hasRole",
      "outputs": [
        {
          "internalType": "bool",
          "name": "",
          "type": "bool"
        }
      ],
      "stateMutability": "view",
      "type": "function"
    },
    {
      "inputs": [
        {
          "internalType": "contract IUNSRegistry",
          "name": "unsRegistry_",
          "type": "address"
        },
        {
          "internalType": "contract IMintingController",
          "name": "cnsMintingController_",
          "type": "address"
        },
        {
          "internalType": "contract IURIPrefixController",
          "name": "cnsURIPrefixController_",
          "type": "address"
        },
        {
          "internalType": "contract IResolver",
          "name": "cnsResolver_",
          "type": "address"
        },
        {
          "internalType": "address",
          "name": "forwarder",
          "type": "address"
        }
      ],
      "name": "initialize",
      "outputs": [],
      "stateMutability": "nonpayable",
      "type": "function"
    },
    {
      "inputs": [
        {
          "internalType": "address",
          "name": "account",
          "type": "address"
        }
      ],
      "name": "isMinter",
      "outputs": [
        {
          "internalType": "bool",
          "name": "",
          "type": "bool"
        }
      ],
      "stateMutability": "view",
      "type": "function"
    },
    {
      "inputs": [
        {
          "internalType": "address",
          "name": "forwarder",
          "type": "address"
        }
      ],
      "name": "isTrustedForwarder",
      "outputs": [
        {
          "internalType": "bool",
          "name": "",
          "type": "bool"
        }
      ],
      "stateMutability": "view",
      "type": "function"
    },
    {
      "inputs": [
        {
          "internalType": "address",
          "name": "to",
          "type": "address"
        },
        {
          "internalType": "uint256",
          "name": "tld",
          "type": "uint256"
        },
        {
          "internalType": "string",
          "name": "label",
          "type": "string"
        }
      ],
      "name": "mintSLD",
      "outputs": [],
      "stateMutability": "nonpayable",
      "type": "function"
    },
    {
      "inputs": [
        {
          "internalType": "address",
          "name": "to",
          "type": "address"
        },
        {
          "internalType": "uint256",
          "name": "tld",
          "type": "uint256"
        },
        {
          "internalType": "string",
          "name": "label",
          "type": "string"
        },
        {
          "internalType": "string[]",
          "name": "keys",
          "type": "string[]"
        },
        {
          "internalType": "string[]",
          "name": "values",
          "type": "string[]"
        }
      ],
      "name": "mintSLDWithRecords",
      "outputs": [],
      "stateMutability": "nonpayable",
      "type": "function"
    },
    {
      "inputs": [],
      "name": "owner",
      "outputs": [
        {
          "internalType": "address",
          "name": "",
          "type": "address"
        }
      ],
      "stateMutability": "view",
      "type": "function"
    },
    {
      "inputs": [
        {
          "internalType": "bytes",
          "name": "data",
          "type": "bytes"
        },
        {
          "internalType": "bytes",
          "name": "signature",
          "type": "bytes"
        }
      ],
      "name": "relay",
      "outputs": [
        {
          "internalType": "bytes",
          "name": "",
          "type": "bytes"
        }
      ],
      "stateMutability": "nonpayable",
      "type": "function"
    },
    {
      "inputs": [
        {
          "internalType": "address",
          "name": "account",
          "type": "address"
        }
      ],
      "name": "removeMinter",
      "outputs": [],
      "stateMutability": "nonpayable",
      "type": "function"
    },
    {
      "inputs": [
        {
          "internalType": "address[]",
          "name": "accounts",
          "type": "address[]"
        }
      ],
      "name": "removeMinters",
      "outputs": [],
      "stateMutability": "nonpayable",
      "type": "function"
    },
    {
      "inputs": [],
      "name": "renounceMinter",
      "outputs": [],
      "stateMutability": "nonpayable",
      "type": "function"
    },
    {
      "inputs": [],
      "name": "renounceOwnership",
      "outputs": [],
      "stateMutability": "nonpayable",
      "type": "function"
    },
    {
      "inputs": [
        {
          "internalType": "bytes32",
          "name": "role",
          "type": "bytes32"
        },
        {
          "internalType": "address",
          "name": "account",
          "type": "address"
        }
      ],
      "name": "renounceRole",
      "outputs": [],
      "stateMutability": "nonpayable",
      "type": "function"
    },
    {
      "inputs": [
        {
          "internalType": "bytes32",
          "name": "role",
          "type": "bytes32"
        },
        {
          "internalType": "address",
          "name": "account",
          "type": "address"
        }
      ],
      "name": "revokeRole",
      "outputs": [],
      "stateMutability": "nonpayable",
      "type": "function"
    },
    {
      "inputs": [
        {
          "internalType": "address payable",
          "name": "receiver",
          "type": "address"
        }
      ],
      "name": "rotateMinter",
      "outputs": [],
      "stateMutability": "payable",
      "type": "function"
    },
    {
      "inputs": [
        {
          "internalType": "address",
          "name": "to",
          "type": "address"
        },
        {
          "internalType": "uint256",
          "name": "tld",
          "type": "uint256"
        },
        {
          "internalType": "string",
          "name": "label",
          "type": "string"
        }
      ],
      "name": "safeMintSLD",
      "outputs": [],
      "stateMutability": "nonpayable",
      "type": "function"
    },
    {
      "inputs": [
        {
          "internalType": "address",
          "name": "to",
          "type": "address"
        },
        {
          "internalType": "uint256",
          "name": "tld",
          "type": "uint256"
        },
        {
          "internalType": "string",
          "name": "label",
          "type": "string"
        },
        {
          "internalType": "bytes",
          "name": "data",
          "type": "bytes"
        }
      ],
      "name": "safeMintSLD",
      "outputs": [],
      "stateMutability": "nonpayable",
      "type": "function"
    },
    {
      "inputs": [
        {
          "internalType": "address",
          "name": "to",
          "type": "address"
        },
        {
          "internalType": "uint256",
          "name": "tld",
          "type": "uint256"
        },
        {
          "internalType": "string",
          "name": "label",
          "type": "string"
        },
        {
          "internalType": "string[]",
          "name": "keys",
          "type": "string[]"
        },
        {
          "internalType": "string[]",
          "name": "values",
          "type": "string[]"
        }
      ],
      "name": "safeMintSLDWithRecords",
      "outputs": [],
      "stateMutability": "nonpayable",
      "type": "function"
    },
    {
      "inputs": [
        {
          "internalType": "address",
          "name": "to",
          "type": "address"
        },
        {
          "internalType": "uint256",
          "name": "tld",
          "type": "uint256"
        },
        {
          "internalType": "string",
          "name": "label",
          "type": "string"
        },
        {
          "internalType": "string[]",
          "name": "keys",
          "type": "string[]"
        },
        {
          "internalType": "string[]",
          "name": "values",
          "type": "string[]"
        },
        {
          "internalType": "bytes",
          "name": "data",
          "type": "bytes"
        }
      ],
      "name": "safeMintSLDWithRecords",
      "outputs": [],
      "stateMutability": "nonpayable",
      "type": "function"
    },
    {
      "inputs": [
        {
          "internalType": "address",
          "name": "forwarder",
          "type": "address"
        }
      ],
      "name": "setForwarder",
      "outputs": [],
      "stateMutability": "nonpayable",
      "type": "function"
    },
    {
      "inputs": [
        {
          "internalType": "address",
          "name": "resolver",
          "type": "address"
        }
      ],
      "name": "setResolver",
      "outputs": [],
      "stateMutability": "nonpayable",
      "type": "function"
    },
    {
      "inputs": [
        {
          "internalType": "string",
          "name": "prefix",
          "type": "string"
        }
      ],
      "name": "setTokenURIPrefix",
      "outputs": [],
      "stateMutability": "nonpayable",
      "type": "function"
    },
    {
      "inputs": [
        {
          "internalType": "bytes4",
          "name": "interfaceId",
          "type": "bytes4"
        }
      ],
      "name": "supportsInterface",
      "outputs": [
        {
          "internalType": "bool",
          "name": "",
          "type": "bool"
        }
      ],
      "stateMutability": "view",
      "type": "function"
    },
    {
      "inputs": [
        {
          "internalType": "address",
          "name": "newOwner",
          "type": "address"
        }
      ],
      "name": "transferOwnership",
      "outputs": [],
      "stateMutability": "nonpayable",
      "type": "function"
    },
    {
      "inputs": [],
      "name": "unsRegistry",
      "outputs": [
        {
          "internalType": "contract IUNSRegistry",
          "name": "",
          "type": "address"
        }
      ],
      "stateMutability": "view",
      "type": "function"
    }
  ],
  "bytecode": "0x608060405234801561001057600080fd5b50613a57806100206000396000f3fe60806040526004361061023b5760003560e01c806371e2a6571161012e578063a849d65c116100ab578063ceeb4f501161006f578063ceeb4f5014610662578063d539139314610682578063d547741f14610697578063f2fde38b146106b7578063ffa1ad74146106d75761023b565b8063a849d65c146105d8578063aa271e1a146105ed578063ae2ad9031461060d578063b9998a241461062d578063cc2c3fc41461064d5761023b565b8063983b2d56116100f2578063983b2d5614610559578063986502751461057957806399e0dd7c1461058e578063a217fddf146105ae578063a3f4df7e146105c35761023b565b806371e2a657146104d157806381c81d35146104f15780638da5cb5b14610504578063906cecc11461051957806391d14854146105395761023b565b80634c1819e0116101bc5780635b6fa8db116101805780635b6fa8db146104545780635fc1964f14610469578063634486da146104895780636a2d22561461049c578063715018a6146104bc5761023b565b80634c1819e0146103a75780634e543b26146103c7578063564a5158146103e7578063572b6c051461041457806358839d6b146104345761023b565b80632f2ff15d116102035780632f2ff15d146103055780633092afd51461032557806336568abe1461034557806339ccf4d0146103655780633f41b614146103855761023b565b806301ffc9a7146102405780631459457a14610276578063248a9ca314610298578063268b15ed146102c557806327bbd225146102e5575b600080fd5b34801561024c57600080fd5b5061026061025b366004612dea565b6106ec565b60405161026d919061347e565b60405180910390f35b34801561028257600080fd5b50610296610291366004612e6f565b610719565b005b3480156102a457600080fd5b506102b86102b3366004612da3565b610b5b565b60405161026d9190613489565b3480156102d157600080fd5b506102966102e0366004612f1f565b610b70565b3480156102f157600080fd5b50610296610300366004612aab565b610bcd565b34801561031157600080fd5b50610296610320366004612dbb565b610c90565b34801561033157600080fd5b50610296610340366004612a35565b610cb9565b34801561035157600080fd5b50610296610360366004612dbb565b610d04565b34801561037157600080fd5b50610296610380366004612aab565b610d4a565b34801561039157600080fd5b5061039a610df4565b60405161026d919061322f565b3480156103b357600080fd5b506102966103c2366004612a51565b610e03565b3480156103d357600080fd5b506102966103e2366004612a35565b610e89565b3480156103f357600080fd5b50610407610402366004612e12565b610eea565b60405161026d91906134b0565b34801561042057600080fd5b5061026061042f366004612a35565b6110b5565b34801561044057600080fd5b5061029661044f366004612c39565b6110f6565b34801561046057600080fd5b5061039a6111a5565b34801561047557600080fd5b50610296610484366004612cc2565b6111b4565b610296610497366004612a35565b611241565b3480156104a857600080fd5b506102966104b7366004612b5d565b6112d4565b3480156104c857600080fd5b506102966113c1565b3480156104dd57600080fd5b506102966104ec366004612cc2565b61144a565b6102966104ff366004612a35565b6114d7565b34801561051057600080fd5b5061039a611524565b34801561052557600080fd5b50610296610534366004612a51565b611534565b34801561054557600080fd5b50610260610554366004612dbb565b61157f565b34801561056557600080fd5b50610296610574366004612a35565b6115aa565b34801561058557600080fd5b506102966115f2565b34801561059a57600080fd5b506102966105a9366004612edf565b61160e565b3480156105ba57600080fd5b506102b8611724565b3480156105cf57600080fd5b50610407611729565b3480156105e457600080fd5b5061039a611759565b3480156105f957600080fd5b50610260610608366004612a35565b611768565b34801561061957600080fd5b50610296610628366004612a51565b611782565b34801561063957600080fd5b50610296610648366004612a35565b611826565b34801561065957600080fd5b5061039a61186e565b34801561066e57600080fd5b5061029661067d366004612aab565b61187d565b34801561068e57600080fd5b506102b86118d1565b3480156106a357600080fd5b506102966106b2366004612dbb565b6118e3565b3480156106c357600080fd5b506102966106d2366004612a35565b611902565b3480156106e357600080fd5b50610407611955565b60006001600160e01b03198216637965db0b60e01b1480610711575061071182611976565b90505b919050565b600054610100900460ff1680610732575060005460ff16155b6107575760405162461bcd60e51b815260040161074e906136be565b60405180910390fd5b600054610100900460ff16158015610782576000805460ff1961ff0019909116610100171660011790555b60c980546001600160a01b038089166001600160a01b03199283161790925560ca805488841690831617905560cb805487841690831617905560cc8054928616929091169190911790556107d461198f565b6107dc611a5b565b6107e582611ae1565b6107ee30611b5f565b60408051808201909152600681526563727970746f60d01b6020808301918252600080516020613a0283398151915260005260cd90529051610851917f9535d3ea47c5e1398d3405b4fadc73de6b1b1e6a66f674a8886ab7a6c873a39091612908565b50604080516101408101825260066101008201908152651dd85b1b195d60d21b610120830152815281518083018352600481526331b7b4b760e11b602082810191909152808301919091528251808401845260018152600f60fb1b8183015282840152825180840184526003808252621b999d60ea1b82840152606084019190915283518085018552600a815269313637b1b5b1b430b4b760b11b8184015260808401528351808501855260078152663134ba31b7b4b760c91b8184015260a0840152835180850185528181526207070760eb1b8184015260c0840152835180850190945283526264616f60e81b9083015260e081019190915260005b6008811015610b3f5760008083836008811061097a57634e487b7160e01b600052603260045260246000fd5b602002015160405160200161098f919061307a565b604051602081830303815290604052805190602001206040516020016109b6929190613221565b6040516020818303038152906040528051906020012060001c90508282600881106109f157634e487b7160e01b600052603260045260246000fd5b602002015160cd60008381526020019081526020016000209080519060200190610a1c929190612908565b5060c954604051634f558e7960e01b81526001600160a01b0390911690634f558e7990610a4d908490600401613489565b60206040518083038186803b158015610a6557600080fd5b505afa158015610a79573d6000803e3d6000fd5b505050506040513d601f19601f82011682018060405250810190610a9d9190612d83565b610b2c5760c9546001600160a01b031663d3fc986461dead83868660088110610ad657634e487b7160e01b600052603260045260246000fd5b60200201516040518463ffffffff1660e01b8152600401610af99392919061330a565b600060405180830381600087803b158015610b1357600080fd5b505af1158015610b27573d6000803e3d6000fd5b505050505b5080610b3781613985565b91505061094e565b50508015610b53576000805461ff00191690555b505050505050565b60009081526097602052604090206001015490565b600083815260cd60205260408120805485929190610b8d9061394a565b905011610bac5760405162461bcd60e51b815260040161074e90613833565b610bc7610bb7611b77565b85610bc28686611b86565b611bb2565b50505050565b610bd8610608611b77565b610bf45760405162461bcd60e51b815260040161074e9061370c565b600087815260cd60205260408120805489929190610c119061394a565b905011610c305760405162461bcd60e51b815260040161074e90613833565b610c85898989898080601f016020809104026020016040519081016040528093929190818152602001838380828437600092018290525060408051602081019091529081528c93508b92508a91508990611ca8565b505050505050505050565b610c9982610b5b565b610caa81610ca5611b77565b611e31565b610cb48383611e95565b505050565b610cc1611b77565b6001600160a01b0316610cd2611524565b6001600160a01b031614610cf85760405162461bcd60e51b815260040161074e906137c7565b610d0181611f1c565b50565b610d0c611b77565b6001600160a01b0316816001600160a01b031614610d3c5760405162461bcd60e51b815260040161074e90613875565b610d468282611f34565b5050565b610d55610608611b77565b610d715760405162461bcd60e51b815260040161074e9061370c565b600087815260cd60205260408120805489929190610d8e9061394a565b905011610dad5760405162461bcd60e51b815260040161074e90613833565b610c85898989898080601f0160208091040260200160405190810160405280939291908181526020018383808284376000920191909152508b92508a915089905088611fb9565b60c9546001600160a01b031681565b610e0e610608611b77565b610e2a5760405162461bcd60e51b815260040161074e9061370c565b600083815260cd60205260408120805485929190610e479061394a565b905011610e665760405162461bcd60e51b815260040161074e90613833565b610e82858585856040518060200160405280600081525061213e565b5050505050565b610e91611b77565b6001600160a01b0316610ea2611524565b6001600160a01b031614610ec85760405162461bcd60e51b815260040161074e906137c7565b60cc80546001600160a01b0319166001600160a01b0392909216919091179055565b606060008585604051610efe92919061306a565b604051809103902090506000610f7b85858080601f01602080910402602001604051908101604052809392919081815260200183838082843760009201919091525050604051610f759250610f5a91508690309060200161304a565b604051602081830303815290604052805190602001206122ac565b906122dc565b905060008088888080601f016020809104026020016040519081016040528093929190818152602001838380828437600092019190915250505050602081015192509050610fc883612362565b610fd3828a8a612390565b600080306001600160a01b03168b8b604051610ff092919061306a565b6000604051808303816000865af19150503d806000811461102d576040519150601f19603f3d011682016040523d82523d6000602084013e611032565b606091505b5090925090508161104a576040513d806000833e8082fd5b6001600160e01b031984166001600160a01b038616611067611b77565b6001600160a01b03167f9490f91465d0d2c12728b9ad47d5f1dd2ac3ef39394796e54a48b94db0b337258960405161109f9190613489565b60405180910390a49a9950505050505050505050565b60006110e07f893ef2ea16c023f61d4f55d3e6ee3fc3f2fbfd478461323dbc2fbf919047086e611531565b546001600160a01b038381169116149050919050565b611101610608611b77565b61111d5760405162461bcd60e51b815260040161074e9061370c565b600085815260cd6020526040812080548792919061113a9061394a565b9050116111595760405162461bcd60e51b815260040161074e90613833565b61119c8787878787878080601f01602080910402602001604051908101604052809392919081815260200183838082843760009201919091525061213e92505050565b50505050505050565b60cc546001600160a01b031681565b6111bc611b77565b6001600160a01b03166111cd611524565b6001600160a01b0316146111f35760405162461bcd60e51b815260040161074e906137c7565b60005b8151811015610d465761122f82828151811061122257634e487b7160e01b600052603260045260246000fd5b6020026020010151611f1c565b8061123981613985565b9150506111f6565b61124c610608611b77565b6112685760405162461bcd60e51b815260040161074e9061370c565b6001600160a01b03811661128e5760405162461bcd60e51b815260040161074e90613645565b61129781611b5f565b61129f6115f2565b6040516001600160a01b038216903480156108fc02916000818181858888f19350505050158015610d46573d6000803e3d6000fd5b6112df610608611b77565b6112fb5760405162461bcd60e51b815260040161074e9061370c565b600089815260cd6020526040812080548b9291906113189061394a565b9050116113375760405162461bcd60e51b815260040161074e90613833565b6113b48b8b8b8b8080601f01602080910402602001604051908101604052809392919081815260200183838082843760009201919091525050604080516020601f8b018190048102820181019092528981528e93508d92508c918c91908c908c9081908401838280828437600092019190915250611ca892505050565b5050505050505050505050565b6113c9611b77565b6001600160a01b03166113da611524565b6001600160a01b0316146114005760405162461bcd60e51b815260040161074e906137c7565b6033546040516000916001600160a01b0316907f8be0079c531659141344cd1fd0a4f28419497f9722a3daafe3b4186f6b6457e0908390a3603380546001600160a01b0319169055565b611452611b77565b6001600160a01b0316611463611524565b6001600160a01b0316146114895760405162461bcd60e51b815260040161074e906137c7565b60005b8151811015610d46576114c58282815181106114b857634e487b7160e01b600052603260045260246000fd5b6020026020010151611b5f565b806114cf81613985565b91505061148c565b6114e2610608611b77565b6114fe5760405162461bcd60e51b815260040161074e9061370c565b6001600160a01b0381166112975760405162461bcd60e51b815260040161074e90613645565b6033546001600160a01b03165b90565b600083815260cd602052604081208054859291906115519061394a565b9050116115705760405162461bcd60e51b815260040161074e90613833565b610e828585610bc28686611b86565b60009182526097602090815260408084206001600160a01b0393909316845291905290205460ff1690565b6115b2611b77565b6001600160a01b03166115c3611524565b6001600160a01b0316146115e95760405162461bcd60e51b815260040161074e906137c7565b610d0181611b5f565b61160c6000805160206139e2833981519152610360611b77565b565b611616611b77565b6001600160a01b0316611627611524565b6001600160a01b03161461164d5760405162461bcd60e51b815260040161074e906137c7565b60c954604051632678375f60e21b81526001600160a01b03909116906399e0dd7c9061167f90859085906004016134c3565b600060405180830381600087803b15801561169957600080fd5b505af11580156116ad573d6000803e3d6000fd5b505060cb546001600160a01b0316159150610d4690505760cb54604051632678375f60e21b81526001600160a01b03909116906399e0dd7c906116f690859085906004016134c3565b600060405180830381600087803b15801561171057600080fd5b505af1158015610b53573d6000803e3d6000fd5b600081565b604051806040016040528060148152602001732aa7299d1026b4b73a34b7339026b0b730b3b2b960611b81525081565b60cb546001600160a01b031681565b60006107116000805160206139e28339815191528361157f565b61178d610608611b77565b6117a95760405162461bcd60e51b815260040161074e9061370c565b600083815260cd602052604081208054859291906117c69061394a565b9050116117e55760405162461bcd60e51b815260040161074e90613833565b610e82858585858080601f016020809104026020016040519081016040528093929190818152602001838380828437600092019190915250611bb292505050565b61182e611b77565b6001600160a01b031661183f611524565b6001600160a01b0316146118655760405162461bcd60e51b815260040161074e906137c7565b610d018161244c565b60ca546001600160a01b031681565b600087815260cd6020526040812080548992919061189a9061394a565b9050116118b95760405162461bcd60e51b815260040161074e90613833565b610c8589896118c88a8a611b86565b88888888611fb9565b6000805160206139e283398151915281565b6118ec82610b5b565b6118f881610ca5611b77565b610cb48383611f34565b61190a611b77565b6001600160a01b031661191b611524565b6001600160a01b0316146119415760405162461bcd60e51b815260040161074e906137c7565b61194a81612497565b610d01600082612558565b604051806040016040528060058152602001640302e322e360dc1b81525081565b6001600160e01b031981166301ffc9a760e01b14919050565b600054610100900460ff16806119a8575060005460ff16155b6119c45760405162461bcd60e51b815260040161074e906136be565b600054610100900460ff161580156119ef576000805460ff1961ff0019909116610100171660011790555b60006119f9611b77565b603380546001600160a01b0319166001600160a01b038316908117909155604051919250906000907f8be0079c531659141344cd1fd0a4f28419497f9722a3daafe3b4186f6b6457e0908290a3508015610d01576000805461ff001916905550565b600054610100900460ff1680611a74575060005460ff16155b611a905760405162461bcd60e51b815260040161074e906136be565b600054610100900460ff16158015611abb576000805460ff1961ff0019909116610100171660011790555b611acd6000611ac8611b77565b612558565b8015610d01576000805461ff001916905550565b600054610100900460ff1680611afa575060005460ff16155b611b165760405162461bcd60e51b815260040161074e906136be565b600054610100900460ff16158015611b41576000805460ff1961ff0019909116610100171660011790555b611b4a8261244c565b8015610d46576000805461ff00191690555050565b610d016000805160206139e283398151915282612558565b6000611b81612562565b905090565b60608282604051602001611b9b929190613186565b604051602081830303815290604052905092915050565b81600080516020613a028339815191521415611c365760ca5460cc5460405163c36c212560e01b81526001600160a01b039283169263c36c212592611bff9288928792169060040161328d565b600060405180830381600087803b158015611c1957600080fd5b505af1158015611c2d573d6000803e3d6000fd5b50505050610cb4565b60c9546001600160a01b031663d3fc986484611c528585612590565b611c5c868661260c565b6040518463ffffffff1660e01b8152600401611c7a9392919061330a565b600060405180830381600087803b158015611c9457600080fd5b505af115801561119c573d6000803e3d6000fd5b6000611cb48888612590565b905087600080516020613a028339815191521415611daf5760ca5460cc54604051630f95e75b60e31b81526001600160a01b0392831692637caf3ad892611d05928e928d92169088906004016132c2565b600060405180830381600087803b158015611d1f57600080fd5b505af1158015611d33573d6000803e3d6000fd5b505086159150611daa90505760cc54604051633a0deb9d60e21b81526001600160a01b039091169063e837ae7490611d779089908990899089908890600401613444565b600060405180830381600087803b158015611d9157600080fd5b505af1158015611da5573d6000803e3d6000fd5b505050505b610c85565b60c9546001600160a01b031663efda4d3e8a83611dcc8c8c61260c565b8a8a8a8a8a6040518963ffffffff1660e01b8152600401611df498979695949392919061338e565b600060405180830381600087803b158015611e0e57600080fd5b505af1158015611e22573d6000803e3d6000fd5b50505050505050505050505050565b611e3b828261157f565b610d4657611e53816001600160a01b0316601461262f565b611e5e83602061262f565b604051602001611e6f9291906131ac565b60408051601f198184030181529082905262461bcd60e51b825261074e916004016134b0565b611e9f828261157f565b610d465760008281526097602090815260408083206001600160a01b03851684529091529020805460ff19166001179055611ed8611b77565b6001600160a01b0316816001600160a01b0316837f2f8788117e7eff1d82e926ec794901d17c78024a50270940304540a733656f0d60405160405180910390a45050565b610d016000805160206139e2833981519152826118e3565b611f3e828261157f565b15610d465760008281526097602090815260408083206001600160a01b03851684529091529020805460ff19169055611f75611b77565b6001600160a01b0316816001600160a01b0316837ff6391f5c32d9c69d2a47ea670b442974b53935d1edc7fd64eb21e047a839171b60405160405180910390a45050565b6000611fc58787612590565b905086600080516020613a0283398151915214156120be5760ca5460cc5460405163c36c212560e01b81526001600160a01b039283169263c36c212592612014928d928c92169060040161328d565b600060405180830381600087803b15801561202e57600080fd5b505af1158015612042573d6000803e3d6000fd5b5050851591506120b990505760cc54604051633a0deb9d60e21b81526001600160a01b039091169063e837ae74906120869088908890889088908890600401613444565b600060405180830381600087803b1580156120a057600080fd5b505af11580156120b4573d6000803e3d6000fd5b505050505b612134565b60c9546001600160a01b031663b0f5917789836120db8b8b61260c565b898989896040518863ffffffff1660e01b81526004016121019796959493929190613331565b600060405180830381600087803b15801561211b57600080fd5b505af115801561212f573d6000803e3d6000fd5b505050505b5050505050505050565b83600080516020613a0283398151915214156121c75760ca5460cc54604051630f95e75b60e31b81526001600160a01b0392831692637caf3ad892612190928a92899289929116908890600401613243565b600060405180830381600087803b1580156121aa57600080fd5b505af11580156121be573d6000803e3d6000fd5b50505050610e82565b60c954604080516020601f86018190048102820181019092528481526001600160a01b039092169163b55bc61791889161221e91899190899089908190840183828082843760009201919091525061259092505050565b61225e8888888080601f01602080910402602001604051908101604052809392919081815260200183838082843760009201919091525061260c92505050565b856040518563ffffffff1660e01b815260040161227e9493929190613400565b600060405180830381600087803b15801561229857600080fd5b505af1158015610c85573d6000803e3d6000fd5b6000816040516020016122bf9190613155565b604051602081830303815290604052805190602001209050919050565b6000806000808451604114156123065750505060208201516040830151606084015160001a61234c565b8451604014156123345750505060408201516020830151906001600160ff1b0381169060ff1c601b0161234c565b60405162461bcd60e51b815260040161074e90613591565b612358868285856127e8565b9695505050505050565b61236b816128de565b61237481611768565b610d015760405162461bcd60e51b815260040161074e90613783565b60006001600160e01b0319841663ae2ad90360e01b14806123c157506001600160e01b03198416630260c0cf60e51b145b806123dc57506001600160e01b031984166358839d6b60e01b145b806123f757506001600160e01b0319841663039ccf4d60e41b145b8061241257506001600160e01b031984166327bbd22560e01b145b8061242d57506001600160e01b03198416633516912b60e11b145b905080610bc75760405162461bcd60e51b815260040161074e9061354b565b806124767f893ef2ea16c023f61d4f55d3e6ee3fc3f2fbfd478461323dbc2fbf919047086e611531565b80546001600160a01b0319166001600160a01b039290921691909117905550565b61249f611b77565b6001600160a01b03166124b0611524565b6001600160a01b0316146124d65760405162461bcd60e51b815260040161074e906137c7565b6001600160a01b0381166124fc5760405162461bcd60e51b815260040161074e906135c8565b6033546040516001600160a01b038084169216907f8be0079c531659141344cd1fd0a4f28419497f9722a3daafe3b4186f6b6457e090600090a3603380546001600160a01b0319166001600160a01b0392909216919091179055565b610d468282611e95565b600061256d336110b5565b15612581575060331936013560601c611531565b612589612904565b9050611531565b60008151600014156125b45760405162461bcd60e51b815260040161074e906137fc565b82826040516020016125c6919061307a565b604051602081830303815290604052805190602001206040516020016125ed929190613221565b60408051601f1981840301815291905280516020909101209392505050565b600082815260cd60209081526040918290209151606092611b9b92859201613096565b6060600061263e8360026138e8565b6126499060026138d0565b67ffffffffffffffff81111561266f57634e487b7160e01b600052604160045260246000fd5b6040519080825280601f01601f191660200182016040528015612699576020820181803683370190505b509050600360fc1b816000815181106126c257634e487b7160e01b600052603260045260246000fd5b60200101906001600160f81b031916908160001a905350600f60fb1b816001815181106126ff57634e487b7160e01b600052603260045260246000fd5b60200101906001600160f81b031916908160001a90535060006127238460026138e8565b61272e9060016138d0565b90505b60018111156127c2576f181899199a1a9b1b9c1cb0b131b232b360811b85600f166010811061277057634e487b7160e01b600052603260045260246000fd5b1a60f81b82828151811061279457634e487b7160e01b600052603260045260246000fd5b60200101906001600160f81b031916908160001a90535060049490941c936127bb81613933565b9050612731565b5083156127e15760405162461bcd60e51b815260040161074e90613516565b9392505050565b60007f7fffffffffffffffffffffffffffffff5d576e7357a4501ddfe92f46681b20a082111561282a5760405162461bcd60e51b815260040161074e9061367c565b8360ff16601b148061283f57508360ff16601c145b61285b5760405162461bcd60e51b815260040161074e90613741565b6000600186868686604051600081526020016040526040516128809493929190613492565b6020604051602081039080840390855afa1580156128a2573d6000803e3d6000fd5b5050604051601f1901519150506001600160a01b0381166128d55760405162461bcd60e51b815260040161074e906134df565b95945050505050565b6001600160a01b038116610d015760405162461bcd60e51b815260040161074e9061360e565b3390565b8280546129149061394a565b90600052602060002090601f016020900481019282612936576000855561297c565b82601f1061294f57805160ff191683800117855561297c565b8280016001018555821561297c579182015b8281111561297c578251825591602001919060010190612961565b5061298892915061298c565b5090565b5b80821115612988576000815560010161298d565b8035610714816139cc565b60008083601f8401126129bd578182fd5b50813567ffffffffffffffff8111156129d4578182fd5b60208301915083602080830285010111156129ee57600080fd5b9250929050565b60008083601f840112612a06578182fd5b50813567ffffffffffffffff811115612a1d578182fd5b6020830191508360208285010111156129ee57600080fd5b600060208284031215612a46578081fd5b81356127e1816139cc565b60008060008060608587031215612a66578283fd5b8435612a71816139cc565b935060208501359250604085013567ffffffffffffffff811115612a93578283fd5b612a9f878288016129f5565b95989497509550505050565b60008060008060008060008060a0898b031215612ac6578384fd5b8835612ad1816139cc565b975060208901359650604089013567ffffffffffffffff80821115612af4578586fd5b612b008c838d016129f5565b909850965060608b0135915080821115612b18578586fd5b612b248c838d016129ac565b909650945060808b0135915080821115612b3c578384fd5b50612b498b828c016129ac565b999c989b5096995094979396929594505050565b60008060008060008060008060008060c08b8d031215612b7b578182fd5b612b848b6129a1565b995060208b0135985060408b013567ffffffffffffffff80821115612ba7578384fd5b612bb38e838f016129f5565b909a50985060608d0135915080821115612bcb578384fd5b612bd78e838f016129ac565b909850965060808d0135915080821115612bef578384fd5b612bfb8e838f016129ac565b909650945060a08d0135915080821115612c13578384fd5b50612c208d828e016129f5565b915080935050809150509295989b9194979a5092959850565b60008060008060008060808789031215612c51578182fd5b8635612c5c816139cc565b955060208701359450604087013567ffffffffffffffff80821115612c7f578384fd5b612c8b8a838b016129f5565b90965094506060890135915080821115612ca3578384fd5b50612cb089828a016129f5565b979a9699509497509295939492505050565b60006020808385031215612cd4578182fd5b823567ffffffffffffffff80821115612ceb578384fd5b818501915085601f830112612cfe578384fd5b813581811115612d1057612d106139b6565b83810260405185828201018181108582111715612d2f57612d2f6139b6565b604052828152858101935084860182860187018a1015612d4d578788fd5b8795505b83861015612d7657612d62816129a1565b855260019590950194938601938601612d51565b5098975050505050505050565b600060208284031215612d94578081fd5b815180151581146127e1578182fd5b600060208284031215612db4578081fd5b5035919050565b60008060408385031215612dcd578182fd5b823591506020830135612ddf816139cc565b809150509250929050565b600060208284031215612dfb578081fd5b81356001600160e01b0319811681146127e1578182fd5b60008060008060408587031215612e27578182fd5b843567ffffffffffffffff80821115612e3e578384fd5b612e4a888389016129f5565b90965094506020870135915080821115612e62578384fd5b50612a9f878288016129f5565b600080600080600060a08688031215612e86578283fd5b8535612e91816139cc565b94506020860135612ea1816139cc565b93506040860135612eb1816139cc565b92506060860135612ec1816139cc565b91506080860135612ed1816139cc565b809150509295509295909350565b60008060208385031215612ef1578182fd5b823567ffffffffffffffff811115612f07578283fd5b612f13858286016129f5565b90969095509350505050565b600080600060408486031215612f33578081fd5b83359250602084013567ffffffffffffffff811115612f50578182fd5b612f5c868287016129f5565b9497909650939450505050565b818352602080840193600091908185020181018584845b87811015612fe75782840389528135601e19883603018112612fa0578687fd5b8701803567ffffffffffffffff811115612fb8578788fd5b803603891315612fc6578788fd5b612fd38682898501613020565b9a87019a9550505090840190600101612f80565b5091979650505050505050565b6000815180845261300c816020860160208601613907565b601f01601f19169290920160200192915050565b60008284528282602086013780602084860101526020601f19601f85011685010190509392505050565b91825260601b6bffffffffffffffffffffffff1916602082015260340190565b6000828483379101908152919050565b6000825161308c818460208701613907565b9190910192915050565b6000835160206130a98285838901613907565b601760f91b9184019182528454600190849060028104818416806130ce57607f821691505b8582108114156130ec57634e487b7160e01b88526022600452602488fd5b808015613100576001811461311557613145565b60ff1984168887015282880186019450613145565b61311e8b6138c4565b895b8481101561313b5781548a8201890152908701908801613120565b5050858389010194505b50929a9950505050505050505050565b7f19457468657265756d205369676e6564204d6573736167653a0a3332000000008152601c810191909152603c0190565b6000697564746573746465762d60b01b82528284600a8401379101600a01908152919050565b60007f416363657373436f6e74726f6c3a206163636f756e7420000000000000000000825283516131e4816017850160208801613907565b7001034b99036b4b9b9b4b733903937b6329607d1b6017918401918201528351613215816028840160208801613907565b01602801949350505050565b918252602082015260400190565b6001600160a01b0391909116815260200190565b600060018060a01b03808816835260806020840152613266608084018789613020565b818616604085015283810360608501526132808186612ff4565b9998505050505050505050565b600060018060a01b038086168352606060208401526132af6060840186612ff4565b9150808416604084015250949350505050565b600060018060a01b038087168352608060208401526132e46080840187612ff4565b818616604085015283810360608501526132fe8186612ff4565b98975050505050505050565b600060018060a01b0385168252836020830152606060408301526128d56060830184612ff4565b600060018060a01b038916825287602083015260a0604083015261335860a0830188612ff4565b828103606084015261336b818789612f69565b90508281036080840152613380818587612f69565b9a9950505050505050505050565b600060018060a01b038a16825288602083015260c060408301526133b560c0830189612ff4565b82810360608401526133c881888a612f69565b905082810360808401526133dd818688612f69565b905082810360a08401526133f18185612ff4565b9b9a5050505050505050505050565b600060018060a01b0386168252846020830152608060408301526134276080830185612ff4565b82810360608401526134398185612ff4565b979650505050505050565b600060608252613458606083018789612f69565b828103602084015261346b818688612f69565b9150508260408301529695505050505050565b901515815260200190565b90815260200190565b93845260ff9290921660208401526040830152606082015260800190565b6000602082526127e16020830184612ff4565b6000602082526134d7602083018486613020565b949350505050565b60208082526018908201527f45434453413a20696e76616c6964207369676e61747572650000000000000000604082015260600190565b6020808252818101527f537472696e67733a20686578206c656e67746820696e73756666696369656e74604082015260600190565b60208082526026908201527f4d696e74696e674d616e616765723a20554e535550504f525445445f52454c416040820152651657d0d0531360d21b606082015260800190565b6020808252601f908201527f45434453413a20696e76616c6964207369676e6174757265206c656e67746800604082015260600190565b60208082526026908201527f4f776e61626c653a206e6577206f776e657220697320746865207a65726f206160408201526564647265737360d01b606082015260800190565b6020808252601d908201527f52656c617965723a205349474e41545552455f49535f494e56414c4944000000604082015260600190565b6020808252601d908201527f4d696e746572526f6c653a2052454345495645525f49535f454d505459000000604082015260600190565b60208082526022908201527f45434453413a20696e76616c6964207369676e6174757265202773272076616c604082015261756560f01b606082015260800190565b6020808252602e908201527f496e697469616c697a61626c653a20636f6e747261637420697320616c72656160408201526d191e481a5b9a5d1a585b1a5e995960921b606082015260800190565b6020808252818101527f4d696e746572526f6c653a2043414c4c45525f49535f4e4f545f4d494e544552604082015260600190565b60208082526022908201527f45434453413a20696e76616c6964207369676e6174757265202776272076616c604082015261756560f01b606082015260800190565b60208082526024908201527f4d696e74696e674d616e616765723a205349474e45525f49535f4e4f545f4d49604082015263272a22a960e11b606082015260800190565b6020808252818101527f4f776e61626c653a2063616c6c6572206973206e6f7420746865206f776e6572604082015260600190565b6020808252601b908201527f4d696e74696e674d616e616765723a204c4142454c5f454d5054590000000000604082015260600190565b60208082526022908201527f4d696e74696e674d616e616765723a20544c445f4e4f545f5245474953544552604082015261115160f21b606082015260800190565b6020808252602f908201527f416363657373436f6e74726f6c3a2063616e206f6e6c792072656e6f756e636560408201526e103937b632b9903337b91039b2b63360891b606082015260800190565b60009081526020902090565b600082198211156138e3576138e36139a0565b500190565b6000816000190483118215151615613902576139026139a0565b500290565b60005b8381101561392257818101518382015260200161390a565b83811115610bc75750506000910152565b600081613942576139426139a0565b506000190190565b60028104600182168061395e57607f821691505b6020821081141561397f57634e487b7160e01b600052602260045260246000fd5b50919050565b6000600019821415613999576139996139a0565b5060010190565b634e487b7160e01b600052601160045260246000fd5b634e487b7160e01b600052604160045260246000fd5b6001600160a01b0381168114610d0157600080fdfe9f2df0fed2c77648de5860a4cc508cd0818c85b8b8a1ab4ceeef8d981c8956a60f4a10a4f46c288cea365fcf45cccf0e9d901b945b9829ccdb54c10dc3cb7a6fa264697066735822122048d97e3b171b3ca44c07535f20b9bb68ce0c43a3850ce847021fe1bfb0402b6664736f6c63430008000033",
  "linkReferences": {},
  "deployedLinkReferences": {}
}