{
  "_format": "hh-sol-artifact-1",
  "contractName": "MintingManager",
  "sourceName": "contracts/MintingManager.sol",
  "abi": [
    {
      "anonymous": false,
      "inputs": [
        {
          "indexed": false,
          "internalType": "address",
          "name": "previousAdmin",
          "type": "address"
        },
        {
          "indexed": false,
          "internalType": "address",
          "name": "newAdmin",
          "type": "address"
        }
      ],
      "name": "AdminChanged",
      "type": "event"
    },
    {
      "anonymous": false,
      "inputs": [
        {
          "indexed": false,
          "internalType": "uint256",
          "name": "tokenId",
          "type": "uint256"
        }
      ],
      "name": "Blocked",
      "type": "event"
    },
    {
      "anonymous": false,
      "inputs": [
        {
          "indexed": false,
          "internalType": "address",
          "name": "account",
          "type": "address"
        }
      ],
      "name": "BlocklistDisabled",
      "type": "event"
    },
    {
      "anonymous": false,
      "inputs": [
        {
          "indexed": false,
          "internalType": "address",
          "name": "account",
          "type": "address"
        }
      ],
      "name": "BlocklistEnabled",
      "type": "event"
    },
    {
      "anonymous": false,
      "inputs": [
        {
          "indexed": false,
          "internalType": "uint8",
          "name": "version",
          "type": "uint8"
        }
      ],
      "name": "Initialized",
      "type": "event"
    },
    {
      "anonymous": false,
      "inputs": [
        {
          "indexed": true,
          "internalType": "uint256",
          "name": "tokenId",
          "type": "uint256"
        },
        {
          "indexed": false,
          "internalType": "string",
          "name": "tld",
          "type": "string"
        }
      ],
      "name": "NewTld",
      "type": "event"
    },
    {
      "anonymous": false,
      "inputs": [
        {
          "indexed": true,
          "internalType": "address",
          "name": "previousOwner",
          "type": "address"
        },
        {
          "indexed": true,
          "internalType": "address",
          "name": "newOwner",
          "type": "address"
        }
      ],
      "name": "OwnershipTransferred",
      "type": "event"
    },
    {
      "anonymous": false,
      "inputs": [
        {
          "indexed": false,
          "internalType": "address",
          "name": "account",
          "type": "address"
        }
      ],
      "name": "Paused",
      "type": "event"
    },
    {
      "anonymous": false,
      "inputs": [
        {
          "indexed": true,
          "internalType": "uint256",
          "name": "tokenId",
          "type": "uint256"
        }
      ],
      "name": "RemoveTld",
      "type": "event"
    },
    {
      "anonymous": false,
      "inputs": [
        {
          "indexed": true,
          "internalType": "bytes32",
          "name": "role",
          "type": "bytes32"
        },
        {
          "indexed": true,
          "internalType": "bytes32",
          "name": "previousAdminRole",
          "type": "bytes32"
        },
        {
          "indexed": true,
          "internalType": "bytes32",
          "name": "newAdminRole",
          "type": "bytes32"
        }
      ],
      "name": "RoleAdminChanged",
      "type": "event"
    },
    {
      "anonymous": false,
      "inputs": [
        {
          "indexed": true,
          "internalType": "bytes32",
          "name": "role",
          "type": "bytes32"
        },
        {
          "indexed": true,
          "internalType": "address",
          "name": "account",
          "type": "address"
        },
        {
          "indexed": true,
          "internalType": "address",
          "name": "sender",
          "type": "address"
        }
      ],
      "name": "RoleGranted",
      "type": "event"
    },
    {
      "anonymous": false,
      "inputs": [
        {
          "indexed": true,
          "internalType": "bytes32",
          "name": "role",
          "type": "bytes32"
        },
        {
          "indexed": true,
          "internalType": "address",
          "name": "account",
          "type": "address"
        },
        {
          "indexed": true,
          "internalType": "address",
          "name": "sender",
          "type": "address"
        }
      ],
      "name": "RoleRevoked",
      "type": "event"
    },
    {
      "anonymous": false,
      "inputs": [
        {
          "indexed": false,
          "internalType": "address",
          "name": "account",
          "type": "address"
        }
      ],
      "name": "Unpaused",
      "type": "event"
    },
    {
      "anonymous": false,
      "inputs": [
        {
          "indexed": true,
          "internalType": "address",
          "name": "implementation",
          "type": "address"
        }
      ],
      "name": "Upgraded",
      "type": "event"
    },
    {
      "inputs": [],
      "name": "DEFAULT_ADMIN_ROLE",
      "outputs": [
        {
          "internalType": "bytes32",
          "name": "",
          "type": "bytes32"
        }
      ],
      "stateMutability": "view",
      "type": "function"
    },
    {
      "inputs": [],
      "name": "MINTER_ROLE",
      "outputs": [
        {
          "internalType": "bytes32",
          "name": "",
          "type": "bytes32"
        }
      ],
      "stateMutability": "view",
      "type": "function"
    },
    {
      "inputs": [],
      "name": "NAME",
      "outputs": [
        {
          "internalType": "string",
          "name": "",
          "type": "string"
        }
      ],
      "stateMutability": "view",
      "type": "function"
    },
    {
      "inputs": [],
      "name": "VERSION",
      "outputs": [
        {
          "internalType": "string",
          "name": "",
          "type": "string"
        }
      ],
      "stateMutability": "view",
      "type": "function"
    },
    {
      "inputs": [
        {
          "internalType": "address",
          "name": "account",
          "type": "address"
        }
      ],
      "name": "addMinter",
      "outputs": [],
      "stateMutability": "nonpayable",
      "type": "function"
    },
    {
      "inputs": [
        {
          "internalType": "address[]",
          "name": "accounts",
          "type": "address[]"
        }
      ],
      "name": "addMinters",
      "outputs": [],
      "stateMutability": "nonpayable",
      "type": "function"
    },
    {
      "inputs": [
        {
          "internalType": "address[]",
          "name": "addrs",
          "type": "address[]"
        }
      ],
      "name": "addProxyReaders",
      "outputs": [],
      "stateMutability": "nonpayable",
      "type": "function"
    },
    {
      "inputs": [
        {
          "internalType": "string",
          "name": "tld",
          "type": "string"
        }
      ],
      "name": "addTld",
      "outputs": [],
      "stateMutability": "nonpayable",
      "type": "function"
    },
    {
      "inputs": [
        {
          "internalType": "uint256[]",
          "name": "tokenIds",
          "type": "uint256[]"
        }
      ],
      "name": "areBlocked",
      "outputs": [
        {
          "internalType": "bool[]",
          "name": "values",
          "type": "bool[]"
        }
      ],
      "stateMutability": "view",
      "type": "function"
    },
    {
      "inputs": [
        {
          "internalType": "uint256",
          "name": "tokenId",
          "type": "uint256"
        }
      ],
      "name": "blocklist",
      "outputs": [],
      "stateMutability": "nonpayable",
      "type": "function"
    },
    {
      "inputs": [
        {
          "internalType": "uint256[]",
          "name": "tokenIds",
          "type": "uint256[]"
        }
      ],
      "name": "blocklistAll",
      "outputs": [],
      "stateMutability": "nonpayable",
      "type": "function"
    },
    {
      "inputs": [
        {
          "internalType": "uint256[]",
          "name": "tokenIds",
          "type": "uint256[]"
        }
      ],
      "name": "burnTLDL1",
      "outputs": [],
      "stateMutability": "nonpayable",
      "type": "function"
    },
    {
      "inputs": [
        {
          "internalType": "uint256",
          "name": "tld",
          "type": "uint256"
        },
        {
          "internalType": "string",
          "name": "label",
          "type": "string"
        }
      ],
      "name": "claim",
      "outputs": [],
      "stateMutability": "nonpayable",
      "type": "function"
    },
    {
      "inputs": [
        {
          "internalType": "address",
          "name": "to",
          "type": "address"
        },
        {
          "internalType": "uint256",
          "name": "tld",
          "type": "uint256"
        },
        {
          "internalType": "string",
          "name": "label",
          "type": "string"
        }
      ],
      "name": "claimTo",
      "outputs": [],
      "stateMutability": "nonpayable",
      "type": "function"
    },
    {
      "inputs": [
        {
          "internalType": "address",
          "name": "to",
          "type": "address"
        },
        {
          "internalType": "uint256",
          "name": "tld",
          "type": "uint256"
        },
        {
          "internalType": "string",
          "name": "label",
          "type": "string"
        },
        {
          "internalType": "string[]",
          "name": "keys",
          "type": "string[]"
        },
        {
          "internalType": "string[]",
          "name": "values",
          "type": "string[]"
        }
      ],
      "name": "claimToWithRecords",
      "outputs": [],
      "stateMutability": "nonpayable",
      "type": "function"
    },
    {
      "inputs": [
        {
          "internalType": "address payable",
          "name": "receiver",
          "type": "address"
        }
      ],
      "name": "closeMinter",
      "outputs": [],
      "stateMutability": "payable",
      "type": "function"
    },
    {
      "inputs": [],
      "name": "cnsMintingController",
      "outputs": [
        {
          "internalType": "contract IMintingController",
          "name": "",
          "type": "address"
        }
      ],
      "stateMutability": "view",
      "type": "function"
    },
    {
      "inputs": [],
      "name": "cnsResolver",
      "outputs": [
        {
          "internalType": "contract IResolver",
          "name": "",
          "type": "address"
        }
      ],
      "stateMutability": "view",
      "type": "function"
    },
    {
      "inputs": [],
      "name": "cnsURIPrefixController",
      "outputs": [
        {
          "internalType": "contract IURIPrefixController",
          "name": "",
          "type": "address"
        }
      ],
      "stateMutability": "view",
      "type": "function"
    },
    {
      "inputs": [],
      "name": "disableBlocklist",
      "outputs": [],
      "stateMutability": "nonpayable",
      "type": "function"
    },
    {
      "inputs": [],
      "name": "enableBlocklist",
      "outputs": [],
      "stateMutability": "nonpayable",
      "type": "function"
    },
    {
      "inputs": [
        {
          "internalType": "bytes32",
          "name": "role",
          "type": "bytes32"
        }
      ],
      "name": "getRoleAdmin",
      "outputs": [
        {
          "internalType": "bytes32",
          "name": "",
          "type": "bytes32"
        }
      ],
      "stateMutability": "view",
      "type": "function"
    },
    {
      "inputs": [
        {
          "internalType": "bytes32",
          "name": "role",
          "type": "bytes32"
        },
        {
          "internalType": "address",
          "name": "account",
          "type": "address"
        }
      ],
      "name": "grantRole",
      "outputs": [],
      "stateMutability": "nonpayable",
      "type": "function"
    },
    {
      "inputs": [
        {
          "internalType": "bytes32",
          "name": "role",
          "type": "bytes32"
        },
        {
          "internalType": "address",
          "name": "account",
          "type": "address"
        }
      ],
      "name": "hasRole",
      "outputs": [
        {
          "internalType": "bool",
          "name": "",
          "type": "bool"
        }
      ],
      "stateMutability": "view",
      "type": "function"
    },
    {
      "inputs": [
        {
          "internalType": "contract IUNSRegistry",
          "name": "unsRegistry_",
          "type": "address"
        },
        {
          "internalType": "contract IMintingController",
          "name": "cnsMintingController_",
          "type": "address"
        },
        {
          "internalType": "contract IURIPrefixController",
          "name": "cnsURIPrefixController_",
          "type": "address"
        },
        {
          "internalType": "contract IResolver",
          "name": "cnsResolver_",
          "type": "address"
        },
        {
          "internalType": "address",
          "name": "forwarder",
          "type": "address"
        }
      ],
      "name": "initialize",
      "outputs": [],
      "stateMutability": "nonpayable",
      "type": "function"
    },
    {
      "inputs": [
        {
          "internalType": "uint256",
          "name": "tokenId",
          "type": "uint256"
        }
      ],
      "name": "isBlocked",
      "outputs": [
        {
          "internalType": "bool",
          "name": "",
          "type": "bool"
        }
      ],
      "stateMutability": "view",
      "type": "function"
    },
    {
      "inputs": [],
      "name": "isBlocklistDisabled",
      "outputs": [
        {
          "internalType": "bool",
          "name": "",
          "type": "bool"
        }
      ],
      "stateMutability": "view",
      "type": "function"
    },
    {
      "inputs": [
        {
          "internalType": "address",
          "name": "account",
          "type": "address"
        }
      ],
      "name": "isMinter",
      "outputs": [
        {
          "internalType": "bool",
          "name": "",
          "type": "bool"
        }
      ],
      "stateMutability": "view",
      "type": "function"
    },
    {
      "inputs": [
        {
          "internalType": "address",
          "name": "forwarder",
          "type": "address"
        }
      ],
      "name": "isTrustedForwarder",
      "outputs": [
        {
          "internalType": "bool",
          "name": "",
          "type": "bool"
        }
      ],
      "stateMutability": "view",
      "type": "function"
    },
    {
      "inputs": [
        {
          "internalType": "address",
          "name": "to",
          "type": "address"
        },
        {
          "internalType": "string[]",
          "name": "labels",
          "type": "string[]"
        },
        {
          "internalType": "string[]",
          "name": "keys",
          "type": "string[]"
        },
        {
          "internalType": "string[]",
          "name": "values",
          "type": "string[]"
        }
      ],
      "name": "issueWithRecords",
      "outputs": [],
      "stateMutability": "nonpayable",
      "type": "function"
    },
    {
      "inputs": [
        {
          "internalType": "address",
          "name": "to",
          "type": "address"
        },
        {
          "internalType": "uint256",
          "name": "tld",
          "type": "uint256"
        },
        {
          "internalType": "string",
          "name": "label",
          "type": "string"
        },
        {
          "internalType": "string[]",
          "name": "keys",
          "type": "string[]"
        },
        {
          "internalType": "string[]",
          "name": "values",
          "type": "string[]"
        }
      ],
      "name": "mintSLDWithRecords",
      "outputs": [],
      "stateMutability": "nonpayable",
      "type": "function"
    },
    {
      "inputs": [
        {
          "internalType": "uint256[]",
          "name": "tokenIds",
          "type": "uint256[]"
        }
      ],
      "name": "moveTLDOwnershipL2",
      "outputs": [],
      "stateMutability": "nonpayable",
      "type": "function"
    },
    {
      "inputs": [],
      "name": "owner",
      "outputs": [
        {
          "internalType": "address",
          "name": "",
          "type": "address"
        }
      ],
      "stateMutability": "view",
      "type": "function"
    },
    {
      "inputs": [],
      "name": "pause",
      "outputs": [],
      "stateMutability": "nonpayable",
      "type": "function"
    },
    {
      "inputs": [],
      "name": "paused",
      "outputs": [
        {
          "internalType": "bool",
          "name": "",
          "type": "bool"
        }
      ],
      "stateMutability": "view",
      "type": "function"
    },
    {
      "inputs": [
        {
          "internalType": "address",
          "name": "account",
          "type": "address"
        }
      ],
      "name": "removeMinter",
      "outputs": [],
      "stateMutability": "nonpayable",
      "type": "function"
    },
    {
      "inputs": [
        {
          "internalType": "address[]",
          "name": "accounts",
          "type": "address[]"
        }
      ],
      "name": "removeMinters",
      "outputs": [],
      "stateMutability": "nonpayable",
      "type": "function"
    },
    {
      "inputs": [
        {
          "internalType": "uint256",
          "name": "tld",
          "type": "uint256"
        }
      ],
      "name": "removeTld",
      "outputs": [],
      "stateMutability": "nonpayable",
      "type": "function"
    },
    {
      "inputs": [],
      "name": "renounceMinter",
      "outputs": [],
      "stateMutability": "nonpayable",
      "type": "function"
    },
    {
      "inputs": [],
      "name": "renounceOwnership",
      "outputs": [],
      "stateMutability": "nonpayable",
      "type": "function"
    },
    {
      "inputs": [
        {
          "internalType": "bytes32",
          "name": "role",
          "type": "bytes32"
        },
        {
          "internalType": "address",
          "name": "account",
          "type": "address"
        }
      ],
      "name": "renounceRole",
      "outputs": [],
      "stateMutability": "nonpayable",
      "type": "function"
    },
    {
      "inputs": [
        {
          "internalType": "bytes32",
          "name": "role",
          "type": "bytes32"
        },
        {
          "internalType": "address",
          "name": "account",
          "type": "address"
        }
      ],
      "name": "revokeRole",
      "outputs": [],
      "stateMutability": "nonpayable",
      "type": "function"
    },
    {
      "inputs": [
        {
          "internalType": "address payable",
          "name": "receiver",
          "type": "address"
        }
      ],
      "name": "rotateMinter",
      "outputs": [],
      "stateMutability": "payable",
      "type": "function"
    },
    {
      "inputs": [
        {
          "internalType": "address",
          "name": "forwarder",
          "type": "address"
        }
      ],
      "name": "setForwarder",
      "outputs": [],
      "stateMutability": "nonpayable",
      "type": "function"
    },
    {
      "inputs": [
        {
          "internalType": "address",
          "name": "resolver",
          "type": "address"
        }
      ],
      "name": "setResolver",
      "outputs": [],
      "stateMutability": "nonpayable",
      "type": "function"
    },
    {
      "inputs": [
        {
          "internalType": "string",
          "name": "prefix",
          "type": "string"
        }
      ],
      "name": "setTokenURIPrefix",
      "outputs": [],
      "stateMutability": "nonpayable",
      "type": "function"
    },
    {
      "inputs": [
        {
          "internalType": "bytes4",
          "name": "interfaceId",
          "type": "bytes4"
        }
      ],
      "name": "supportsInterface",
      "outputs": [
        {
          "internalType": "bool",
          "name": "",
          "type": "bool"
        }
      ],
      "stateMutability": "view",
      "type": "function"
    },
    {
      "inputs": [
        {
          "internalType": "address",
          "name": "newOwner",
          "type": "address"
        }
      ],
      "name": "transferOwnership",
      "outputs": [],
      "stateMutability": "nonpayable",
      "type": "function"
    },
    {
      "inputs": [],
      "name": "unpause",
      "outputs": [],
      "stateMutability": "nonpayable",
      "type": "function"
    },
    {
      "inputs": [],
      "name": "unsRegistry",
      "outputs": [
        {
          "internalType": "contract IUNSRegistry",
          "name": "",
          "type": "address"
        }
      ],
      "stateMutability": "view",
      "type": "function"
    },
    {
      "inputs": [
        {
          "internalType": "uint256[]",
          "name": "tokenIds",
          "type": "uint256[]"
        }
      ],
      "name": "upgradeAll",
      "outputs": [],
      "stateMutability": "nonpayable",
      "type": "function"
    }
  ],
  "bytecode": "0x608060405234801561001057600080fd5b50613d9a806100206000396000f3fe6080604052600436106102e45760003560e01c80638456cb5911610190578063b0aa98c7116100dc578063d4a32ad611610095578063e47d6cc61161006f578063e47d6cc614610901578063ec52738914610921578063f2fde38b14610941578063ffa1ad741461096157600080fd5b8063d4a32ad61461089f578063d5391393146108bf578063d547741f146108e157600080fd5b8063b0aa98c7146107df578063b9998a24146107ff578063c3a3bc001461081f578063cc2c3fc41461083f578063ceeb4f501461085f578063d1f5692c1461087f57600080fd5b80639865027511610149578063a3f4df7e11610123578063a3f4df7e14610732578063a849d65c1461077f578063aa271e1a1461079f578063ae31844a146107bf57600080fd5b806398650275146106e857806399e0dd7c146106fd578063a217fddf1461071d57600080fd5b80638456cb59146106405780638da5cb5b14610655578063906cecc11461067357806390dbdb5a1461069357806391d14854146106a8578063983b2d56146106c857600080fd5b80633f41b6141161024f5780635c975abb116102085780636bfdcbf4116101e25780636bfdcbf4146105d8578063715018a6146105f857806371e2a6571461060d57806381c81d351461062d57600080fd5b80635c975abb146105905780635fc1964f146105a5578063634486da146105c557600080fd5b80633f41b614146104955780633f4ba83a146104cd578063463c4bcb146104e25780634e543b2614610502578063572b6c05146105225780635b6fa8db1461057057600080fd5b8063268b15ed116102a1578063268b15ed146103e05780632eff1a95146104005780632f2ff15d146104155780633092afd51461043557806336568abe1461045557806339ccf4d01461047557600080fd5b806301ffc9a7146102e95780630ca48a411461031e5780630e36a87d1461034057806310921f121461036d5780631459457a14610382578063248a9ca3146103a2575b600080fd5b3480156102f557600080fd5b506103096103043660046135a7565b610992565b60405190151581526020015b60405180910390f35b34801561032a57600080fd5b5061033e610339366004613461565b6109c9565b005b34801561034c57600080fd5b5061036061035b366004613461565b610afc565b604051610315919061387e565b34801561037957600080fd5b50610309610bd3565b34801561038e57600080fd5b5061033e61039d3660046135cf565b610bee565b3480156103ae57600080fd5b506103d26103bd366004613560565b60009081526097602052604090206001015490565b604051908152602001610315565b3480156103ec57600080fd5b5061033e6103fb366004613672565b610f1c565b34801561040c57600080fd5b5061033e611026565b34801561042157600080fd5b5061033e610430366004613578565b611038565b34801561044157600080fd5b5061033e610450366004613277565b61105d565b34801561046157600080fd5b5061033e610470366004613578565b611071565b34801561048157600080fd5b5061033e6104903660046133b0565b6110ff565b3480156104a157600080fd5b5060c9546104b5906001600160a01b031681565b6040516001600160a01b039091168152602001610315565b3480156104d957600080fd5b5061033e61126b565b3480156104ee57600080fd5b5061033e6104fd366004613560565b61127b565b34801561050e57600080fd5b5061033e61051d366004613277565b6112ab565b34801561052e57600080fd5b5061030961053d366004613277565b7f893ef2ea16c023f61d4f55d3e6ee3fc3f2fbfd478461323dbc2fbf919047086e546001600160a01b0390811691161490565b34801561057c57600080fd5b5060cc546104b5906001600160a01b031681565b34801561059c57600080fd5b506103096112d5565b3480156105b157600080fd5b5061033e6105c03660046134a0565b6112eb565b61033e6105d3366004613277565b611341565b3480156105e457600080fd5b5061033e6105f3366004613461565b611404565b34801561060457600080fd5b5061033e611521565b34801561061957600080fd5b5061033e6106283660046134a0565b611533565b61033e61063b366004613277565b611589565b34801561064c57600080fd5b5061033e611606565b34801561066157600080fd5b506033546001600160a01b03166104b5565b34801561067f57600080fd5b5061033e61068e366004613357565b611616565b34801561069f57600080fd5b5061033e61170c565b3480156106b457600080fd5b506103096106c3366004613578565b61171c565b3480156106d457600080fd5b5061033e6106e3366004613277565b611747565b3480156106f457600080fd5b5061033e611758565b34801561070957600080fd5b5061033e61071836600461363f565b611772565b34801561072957600080fd5b506103d2600081565b34801561073e57600080fd5b50610772604051806040016040528060148152602001732aa7299d1026b4b73a34b7339026b0b730b3b2b960611b81525081565b6040516103159190613963565b34801561078b57600080fd5b5060cb546104b5906001600160a01b031681565b3480156107ab57600080fd5b506103096107ba366004613277565b611851565b3480156107cb57600080fd5b5061033e6107da366004613461565b61186b565b3480156107eb57600080fd5b506103096107fa366004613560565b6118c4565b34801561080b57600080fd5b5061033e61081a366004613277565b611931565b34801561082b57600080fd5b5061033e61083a36600461363f565b611976565b34801561084b57600080fd5b5060ca546104b5906001600160a01b031681565b34801561086b57600080fd5b5061033e61087a3660046133b0565b6119bd565b34801561088b57600080fd5b5061033e61089a366004613461565b611aaa565b3480156108ab57600080fd5b5061033e6108ba3660046132af565b611b6f565b3480156108cb57600080fd5b506103d2600080516020613d6e83398151915281565b3480156108ed57600080fd5b5061033e6108fc366004613578565b611d36565b34801561090d57600080fd5b5061033e61091c366004613461565b611d5b565b34801561092d57600080fd5b5061033e61093c366004613560565b611d8c565b34801561094d57600080fd5b5061033e61095c366004613277565b611dfe565b34801561096d57600080fd5b5061077260405180604001604052806005815260200164302e332e3560d81b81525081565b60006001600160e01b03198216637965db0b60e01b14806109c357506301ffc9a760e01b6001600160e01b03198316145b92915050565b6109d1611e1a565b60005b81811015610af757610a0b8383838181106109ff57634e487b7160e01b600052603260045260246000fd5b90506020020135611e93565b610a5c5760405162461bcd60e51b815260206004820181905260248201527f4d696e74696e674d616e616765723a20544f4b454e5f49445f4e4f545f544c4460448201526064015b60405180910390fd5b60c9546001600160a01b031663df454285848484818110610a8d57634e487b7160e01b600052603260045260246000fd5b905060200201356040518263ffffffff1660e01b8152600401610ab291815260200190565b600060405180830381600087803b158015610acc57600080fd5b505af1158015610ae0573d6000803e3d6000fd5b505050508080610aef90613cb1565b9150506109d4565b505050565b6060816001600160401b03811115610b2457634e487b7160e01b600052604160045260246000fd5b604051908082528060200260200182016040528015610b4d578160200160208202803683370190505b50905060005b82811015610bcc57610b8a848483818110610b7e57634e487b7160e01b600052603260045260246000fd5b905060200201356118c4565b828281518110610baa57634e487b7160e01b600052603260045260246000fd5b9115156020928302919091019091015280610bc481613cb1565b915050610b53565b5092915050565b6000600080516020613d2e8339815191525b5460ff16919050565b600054610100900460ff1615808015610c0e5750600054600160ff909116105b80610c285750303b158015610c28575060005460ff166001145b610c8b5760405162461bcd60e51b815260206004820152602e60248201527f496e697469616c697a61626c653a20636f6e747261637420697320616c72656160448201526d191e481a5b9a5d1a585b1a5e995960921b6064820152608401610a53565b6000805460ff191660011790558015610cae576000805461ff0019166101001790555b60c980546001600160a01b038089166001600160a01b03199283161790925560ca805488841690831617905560cb805487841690831617905560cc805492861692909116919091179055610d00611ede565b610d08611f15565b610d1182611f4e565b610d19611f75565b610d21611fbf565b604080516101a081018252600661016082018181526563727970746f60d01b610180840152825282518084018452908152651dd85b1b195d60d21b602082810191909152808301919091528251808401845260018152600f60fb1b8183015282840152825180840184526003808252621b999d60ea1b82840152606084019190915283518085018552600a815269313637b1b5b1b430b4b760b11b818401526080840152835180850185526007808252663134ba31b7b4b760c91b8285015260a0850191909152845180860186528281526207070760eb1b8185015260c0850152845180860186528281526264616f60e81b8185015260e085015284518086018652918252621e9a5b60ea1b8284015261010084019190915283518085018552908152663837b63cb3b7b760c91b818301526101208301528251808401909352600b83526a756e73746f707061626c6560a81b9083015261014081019190915260005b600b811015610ecc57610eba8282600b8110610eb057634e487b7160e01b600052603260045260246000fd5b6020020151611ffc565b80610ec481613cb1565b915050610e84565b50508015610f14576000805461ff0019169055604051600181527f7f26b83ff96e1f2b6a682f133852f6798a09c465da95921460cefb38474024989060200160405180910390a15b505050505050565b8282828080601f016020809104026020016040519081016040528093929190818152602001838380828437600092019190915250610f5f92508491506121189050565b610f7b5760405162461bcd60e51b8152600401610a5390613a1b565b6000610f868261213e565b9050600a81600001511115610fde57610fb1610fa5826000600a61216b565b80516020909101512090565b600080516020613d4e8339815191521415610fde5760405162461bcd60e51b8152600401610a5390613976565b610fe66112d5565b156110035760405162461bcd60e51b8152600401610a53906139f1565b610f1461100e6121aa565b6110218861101c89896121b9565b6121e5565b612312565b61102e611e1a565b611036612320565b565b600082815260976020526040902060010154611053816123cb565b610af783836123dc565b611065611e1a565b61106e81612463565b50565b6110796121aa565b6001600160a01b0316816001600160a01b0316146110f15760405162461bcd60e51b815260206004820152602f60248201527f416363657373436f6e74726f6c3a2063616e206f6e6c792072656e6f756e636560448201526e103937b632b9903337b91039b2b63360891b6064820152608401610a53565b6110fb828261247b565b5050565b61110a6107ba6121aa565b6111265760405162461bcd60e51b8152600401610a53906139bc565b8686868080601f01602080910402602001604051908101604052809392919081815260200183838082843760009201919091525061116992508491506121189050565b6111855760405162461bcd60e51b8152600401610a5390613a1b565b60006111908261213e565b9050600a816000015111156111dc576111af610fa5826000600a61216b565b600080516020613d4e83398151915214156111dc5760405162461bcd60e51b8152600401610a5390613976565b6111e46112d5565b156112015760405162461bcd60e51b8152600401610a53906139f1565b61125e8b6112458c8c8c8080601f0160208091040260200160405190810160405280939291908181526020018383808284376000920191909152506121e592505050565b61124f898b613b6a565b611259888a613b6a565b612500565b5050505050505050505050565b611273611e1a565b61103661291b565b6112866107ba6121aa565b6112a25760405162461bcd60e51b8152600401610a53906139bc565b61106e816129a6565b6112b3611e1a565b60cc80546001600160a01b0319166001600160a01b0392909216919091179055565b6000600080516020613d0e833981519152610be5565b6112f3611e1a565b60005b81518110156110fb5761132f82828151811061132257634e487b7160e01b600052603260045260246000fd5b6020026020010151612463565b8061133981613cb1565b9150506112f6565b61134c6107ba6121aa565b6113685760405162461bcd60e51b8152600401610a53906139bc565b6001600160a01b0381166113be5760405162461bcd60e51b815260206004820152601d60248201527f4d696e746572526f6c653a2052454345495645525f49535f454d5054590000006044820152606401610a53565b6113c781612a75565b6113cf611758565b6040516001600160a01b038216903480156108fc02916000818181858888f193505050501580156110fb573d6000803e3d6000fd5b61140c611e1a565b60005b81811015610af75761143a8383838181106109ff57634e487b7160e01b600052603260045260246000fd5b6114865760405162461bcd60e51b815260206004820181905260248201527f4d696e74696e674d616e616765723a20544f4b454e5f49445f4e4f545f544c446044820152606401610a53565b60c9546001600160a01b031663d0bc28d78484848181106114b757634e487b7160e01b600052603260045260246000fd5b905060200201356040518263ffffffff1660e01b81526004016114dc91815260200190565b600060405180830381600087803b1580156114f657600080fd5b505af115801561150a573d6000803e3d6000fd5b50505050808061151990613cb1565b91505061140f565b611529611e1a565b6110366000612a8d565b61153b611e1a565b60005b81518110156110fb5761157782828151811061156a57634e487b7160e01b600052603260045260246000fd5b6020026020010151612a75565b8061158181613cb1565b91505061153e565b6115946107ba6121aa565b6115b05760405162461bcd60e51b8152600401610a53906139bc565b6001600160a01b0381166113c75760405162461bcd60e51b815260206004820152601d60248201527f4d696e746572526f6c653a2052454345495645525f49535f454d5054590000006044820152606401610a53565b61160e611e1a565b611036612adf565b8282828080601f01602080910402602001604051908101604052809392919081815260200183838082843760009201919091525061165992508491506121189050565b6116755760405162461bcd60e51b8152600401610a5390613a1b565b60006116808261213e565b9050600a816000015111156116cc5761169f610fa5826000600a61216b565b600080516020613d4e83398151915214156116cc5760405162461bcd60e51b8152600401610a5390613976565b6116d46112d5565b156116f15760405162461bcd60e51b8152600401610a53906139f1565b611703876110218861101c89896121b9565b50505050505050565b611714611e1a565b611036612b47565b60009182526097602090815260408084206001600160a01b0393909316845291905290205460ff1690565b61174f611e1a565b61106e81612a75565b611036600080516020613d6e8339815191526104706121aa565b61177a611e1a565b60c954604051632678375f60e21b81526001600160a01b03909116906399e0dd7c906117ac9085908590600401613934565b600060405180830381600087803b1580156117c657600080fd5b505af11580156117da573d6000803e3d6000fd5b505060cb546001600160a01b03161591506110fb90505760cb54604051632678375f60e21b81526001600160a01b03909116906399e0dd7c906118239085908590600401613934565b600060405180830381600087803b15801561183d57600080fd5b505af1158015610f14573d6000803e3d6000fd5b60006109c3600080516020613d6e8339815191528361171c565b6118766107ba6121aa565b6118925760405162461bcd60e51b8152600401610a53906139bc565b60c954604051635718c22560e11b81526001600160a01b039091169063ae31844a9061182390859085906004016138fa565b60006118ce610bd3565b1580156109c35750604080517f1ec047073e2c8b15660901dbfdb6e3ff6365bd699dd9f95dcc6eab5448bebd696020820152908101839052611927906060015b6040516020818303038152906040528051906020012090565b5460ff1692915050565b611939611e1a565b7f893ef2ea16c023f61d4f55d3e6ee3fc3f2fbfd478461323dbc2fbf919047086e80546001600160a01b0319166001600160a01b03831617905550565b61197e611e1a565b6110fb82828080601f016020809104026020016040519081016040528093929190818152602001838380828437600092019190915250611ffc92505050565b8686868080601f016020809104026020016040519081016040528093929190818152602001838380828437600092019190915250611a0092508491506121189050565b611a1c5760405162461bcd60e51b8152600401610a5390613a1b565b6000611a278261213e565b9050600a81600001511115611a7357611a46610fa5826000600a61216b565b600080516020613d4e8339815191521415611a735760405162461bcd60e51b8152600401610a5390613976565b611a7b6112d5565b15611a985760405162461bcd60e51b8152600401610a53906139f1565b61125e8b6112458c61101c8d8d6121b9565b611ab2611e1a565b60005b81811015610af75760c9546001600160a01b03166350960239848484818110611aee57634e487b7160e01b600052603260045260246000fd5b9050602002016020810190611b039190613277565b6040516001600160e01b031960e084901b1681526001600160a01b039091166004820152602401600060405180830381600087803b158015611b4457600080fd5b505af1158015611b58573d6000803e3d6000fd5b505050508080611b6790613cb1565b915050611ab5565b611b7a6107ba6121aa565b611b965760405162461bcd60e51b8152600401610a53906139bc565b611ba08587613b6a565b600281511015611c005760405162461bcd60e51b815260206004820152602560248201527f4d696e74696e674d616e616765723a204c4142454c535f4c454e4754485f42456044820152642627abaf9960d91b6064820152608401610a53565b611c3d8160018351611c129190613b53565b81518110611c3057634e487b7160e01b600052603260045260246000fd5b6020026020010151612bd0565b611c595760405162461bcd60e51b8152600401610a5390613a1b565b6000611c988260028451611c6d9190613b53565b81518110611c8b57634e487b7160e01b600052603260045260246000fd5b602002602001015161213e565b9050600a81600001511115611ce457611cb7610fa5826000600a61216b565b600080516020613d4e8339815191521415611ce45760405162461bcd60e51b8152600401610a5390613976565b611cec6112d5565b15611d095760405162461bcd60e51b8152600401610a53906139f1565b611d2b89611d17898b613b6a565b611d21888a613b6a565b6112598789613b6a565b505050505050505050565b600082815260976020526040902060010154611d51816123cb565b610af7838361247b565b611d666107ba6121aa565b611d825760405162461bcd60e51b8152600401610a53906139bc565b6110fb8282612bf0565b611d94611e1a565b611d9d81612118565b611db95760405162461bcd60e51b8152600401610a5390613a1b565b600081815260cd60205260408120611dd09161311c565b60405181907f0aa1aff0f830e739d86baf0e6624d6763da02f7733575e0e463886cd062dea6a90600090a250565b611e06611e1a565b611e0f81612c3c565b61106e600082612cb2565b611e226121aa565b6001600160a01b0316611e3d6033546001600160a01b031690565b6001600160a01b0316146110365760405162461bcd60e51b815260206004820181905260248201527f4f776e61626c653a2063616c6c6572206973206e6f7420746865206f776e65726044820152606401610a53565b600081815260cd602052604081208054829190611eaf90613c76565b905011806109c35750507f7674e7282552c15f203b9c4a6025aeaf28176ef7f5451b280f9bada3f8bc98e21490565b600054610100900460ff16611f055760405162461bcd60e51b8152600401610a5390613a5d565b611036611f106121aa565b612a8d565b600054610100900460ff16611f3c5760405162461bcd60e51b8152600401610a5390613a5d565b6110366000611f496121aa565b612cb2565b600054610100900460ff166119395760405162461bcd60e51b8152600401610a5390613a5d565b600054610100900460ff16611f9c5760405162461bcd60e51b8152600401610a5390613a5d565b6000600080516020613d2e8339815191525b805460ff1916911515919091179055565b600054610100900460ff16611fe65760405162461bcd60e51b8152600401610a5390613a5d565b6000600080516020613d0e833981519152611fae565b6000612009600083612cbc565b600081815260cd60209081526040909120845192935061202d929091850190613156565b50807f4fce6f6e172b04eaa80325d8e3b0180a34945000f3e214605039e8420fdf89808360405161205e9190613963565b60405180910390a260c954604051634f558e7960e01b8152600481018390526001600160a01b0390911690634f558e799060240160206040518083038186803b1580156120aa57600080fd5b505afa1580156120be573d6000803e3d6000fd5b505050506040513d601f19601f820116820180604052508101906120e29190613540565b6110fb5760c9546040516307befae360e51b81526001600160a01b039091169063f7df5c60906118239084908690600401613aa8565b600081815260cd60205260408120805482919061213490613c76565b9050119050919050565b60408051808201825260008082526020918201528151808301909252825182529182019181019190915290565b604080518082019091526000808252602082015260405180604001604052808381526020018486602001516121a09190613b1c565b9052949350505050565b60006121b4612d71565b905090565b606082826040516020016121ce929190613757565b604051602081830303815290604052905092915050565b604080516002808252606082810190935260009190816020015b60608152602001906001900390816121ff579050509050828160008151811061223857634e487b7160e01b600052603260045260246000fd5b602002602001018190525060cd6000858152602001908152602001600020805461226190613c76565b80601f016020809104026020016040519081016040528092919081815260200182805461228d90613c76565b80156122da5780601f106122af576101008083540402835291602001916122da565b820191906000526020600020905b8154815290600101906020018083116122bd57829003601f168201915b50505050508160018151811061230057634e487b7160e01b600052603260045260246000fd5b60209081029190910101529392505050565b6060610af783838384612500565b612328610bd3565b1561236b5760405162461bcd60e51b8152602060048201526013602482015272109b1bd8dadb1a5cdd0e88111254d050931151606a1b6044820152606401610a53565b600080516020613d2e833981519152805460ff191660011790557f079c4efaefd9fc7ddb28144b9b0140c03f42922d28d0e226369d6070921581666123ae6121aa565b6040516001600160a01b03909116815260200160405180910390a1565b61106e816123d76121aa565b612db8565b6123e6828261171c565b6110fb5760008281526097602090815260408083206001600160a01b03851684529091529020805460ff1916600117905561241f6121aa565b6001600160a01b0316816001600160a01b0316837f2f8788117e7eff1d82e926ec794901d17c78024a50270940304540a733656f0d60405160405180910390a45050565b61106e600080516020613d6e83398151915282611d36565b612485828261171c565b156110fb5760008281526097602090815260408083206001600160a01b03851684529091529020805460ff191690556124bc6121aa565b6001600160a01b0316816001600160a01b0316837ff6391f5c32d9c69d2a47ea670b442974b53935d1edc7fd64eb21e047a839171b60405160405180910390a45050565b600061250b84612e1c565b60c954604051634f558e7960e01b8152600481018390529192506001600160a01b031690634f558e799060240160206040518083038186803b15801561255057600080fd5b505afa158015612564573d6000803e3d6000fd5b505050506040513d601f19601f820116820180604052508101906125889190613540565b156127a55760c9546040516331a9108f60e11b81526004810183905230916001600160a01b031690636352211e9060240160206040518083038186803b1580156125d157600080fd5b505afa1580156125e5573d6000803e3d6000fd5b505050506040513d601f19601f820116820180604052508101906126099190613293565b6001600160a01b03161461266d5760405162461bcd60e51b815260206004820152602560248201527f4d696e74696e674d616e616765723a2049535355494e475f554e4f574e45445f6044820152642a27a5a2a760d91b6064820152608401610a53565b60c9546040516376094f7560e11b81526001600160a01b039091169063ec129eea906126a1908690869086906004016138c4565b600060405180830381600087803b1580156126bb57600080fd5b505af11580156126cf573d6000803e3d6000fd5b505060c95460405163743dbf1160e11b81526001600160a01b03898116600483015260248201869052909116925063e87b7e229150604401600060405180830381600087803b15801561272157600080fd5b505af1158015612735573d6000803e3d6000fd5b505060c95460405163559dc3ff60e11b81526001600160a01b03898116600483015260248201869052909116925063ab3b87fe91506044015b600060405180830381600087803b15801561278857600080fd5b505af115801561279c573d6000803e3d6000fd5b50505050612914565b6127ae81612e79565b6127b784612edb565b80156127c4575083516002145b156128b05760ca5484516001600160a01b039091169063c36c2125908790879060009061280157634e487b7160e01b600052603260045260246000fd5b602090810291909101015160cc546040516001600160e01b031960e086901b16815261283b9392916001600160a01b031690600401613849565b600060405180830381600087803b15801561285557600080fd5b505af1158015612869573d6000803e3d6000fd5b505050506000835111156128ab5760cc54604051633a0deb9d60e21b81526001600160a01b039091169063e837ae749061276e908690869086906004016138c4565b612914565b60c954604051637d67df6360e01b81526001600160a01b0390911690637d67df63906128e69088908890889088906004016137f4565b600060405180830381600087803b15801561290057600080fd5b505af1158015611d2b573d6000803e3d6000fd5b5050505050565b6129236112d5565b6129665760405162461bcd60e51b815260206004820152601460248201527314185d5cd8589b194e881393d517d4105554d15160621b6044820152606401610a53565b600080516020613d0e833981519152805460ff191690557f5db9ee0a495bf2e6ff9c91a7834c1ba4fdd244a5e8aa4e537bd38aeae4b073aa6123ae6121aa565b6129ae610bd3565b156129f15760405162461bcd60e51b8152602060048201526013602482015272109b1bd8dadb1a5cdd0e88111254d050931151606a1b6044820152606401610a53565b604080517f1ec047073e2c8b15660901dbfdb6e3ff6365bd699dd9f95dcc6eab5448bebd696020820152908101829052600190612a309060600161190e565b805460ff19169115159190911790556040518181527f2ce5d9351b1d590d5a066db0d2dc7602d55f092506a83a7ee8c4d78ee357d75a9060200160405180910390a150565b61106e600080516020613d6e83398151915282612cb2565b603380546001600160a01b038381166001600160a01b0319831681179093556040519116919082907f8be0079c531659141344cd1fd0a4f28419497f9722a3daafe3b4186f6b6457e090600090a35050565b612ae76112d5565b15612b045760405162461bcd60e51b8152600401610a53906139f1565b600080516020613d0e833981519152805460ff191660011790557f62e78cea01bee320cd4e420270b5ea74000d11b0c9f74754ebdbfc544b05a2586123ae6121aa565b612b4f610bd3565b612b905760405162461bcd60e51b8152602060048201526012602482015271109b1bd8dadb1a5cdd0e881153905093115160721b6044820152606401610a53565b600080516020613d2e833981519152805460ff191690557f316c4cec74b9568f102eda30781a2fe8cd5172329bf1401e804cb8c5131715c46123ae6121aa565b600080612bde600084612cbc565b9050612be981612118565b9392505050565b60005b81811015610af757612c2a838383818110612c1e57634e487b7160e01b600052603260045260246000fd5b905060200201356129a6565b80612c3481613cb1565b915050612bf3565b612c44611e1a565b6001600160a01b038116612ca95760405162461bcd60e51b815260206004820152602660248201527f4f776e61626c653a206e6577206f776e657220697320746865207a65726f206160448201526564647265737360d01b6064820152608401610a53565b61106e81612a8d565b6110fb82826123dc565b6000815160001415612d105760405162461bcd60e51b815260206004820152601b60248201527f4d696e74696e674d616e616765723a204c4142454c5f454d50545900000000006044820152606401610a53565b8282604051602001612d22919061373b565b60405160208183030381529060405280519060200120604051602001612d52929190918252602082015260400190565b60408051601f1981840301815291905280516020909101209392505050565b7f893ef2ea16c023f61d4f55d3e6ee3fc3f2fbfd478461323dbc2fbf919047086e546000906001600160a01b0316331415612db3575060331936013560601c90565b503390565b612dc2828261171c565b6110fb57612dda816001600160a01b03166014612efd565b612de5836020612efd565b604051602001612df692919061377f565b60408051601f198184030181529082905262461bcd60e51b8252610a5391600401613963565b805160009081905b8015610bcc57612e658285612e3a600185613b53565b81518110612e5857634e487b7160e01b600052603260045260246000fd5b6020026020010151612cbc565b915080612e7181613c5f565b915050612e24565b612e81610bd3565b61106e57612e8e816118c4565b156112a25760405162461bcd60e51b815260206004820152601d60248201527f4d696e74696e674d616e616765723a20544f4b454e5f424c4f434b45440000006044820152606401610a53565b600080612ef260008460018651612e3a9190613b53565b9050612be9816130de565b60606000612f0c836002613b34565b612f17906002613b1c565b6001600160401b03811115612f3c57634e487b7160e01b600052604160045260246000fd5b6040519080825280601f01601f191660200182016040528015612f66576020820181803683370190505b509050600360fc1b81600081518110612f8f57634e487b7160e01b600052603260045260246000fd5b60200101906001600160f81b031916908160001a905350600f60fb1b81600181518110612fcc57634e487b7160e01b600052603260045260246000fd5b60200101906001600160f81b031916908160001a9053506000612ff0846002613b34565b612ffb906001613b1c565b90505b600181111561308f576f181899199a1a9b1b9c1cb0b131b232b360811b85600f166010811061303d57634e487b7160e01b600052603260045260246000fd5b1a60f81b82828151811061306157634e487b7160e01b600052603260045260246000fd5b60200101906001600160f81b031916908160001a90535060049490941c9361308881613c5f565b9050612ffe565b508315612be95760405162461bcd60e51b815260206004820181905260248201527f537472696e67733a20686578206c656e67746820696e73756666696369656e746044820152606401610a53565b60ca546000906001600160a01b0316158015906109c35750507f0f4a10a4f46c288cea365fcf45cccf0e9d901b945b9829ccdb54c10dc3cb7a6f1490565b50805461312890613c76565b6000825580601f10613138575050565b601f01602090049060005260206000209081019061106e91906131da565b82805461316290613c76565b90600052602060002090601f01602090048101928261318457600085556131ca565b82601f1061319d57805160ff19168380011785556131ca565b828001600101855582156131ca579182015b828111156131ca5782518255916020019190600101906131af565b506131d69291506131da565b5090565b5b808211156131d657600081556001016131db565b60008083601f840112613200578182fd5b5081356001600160401b03811115613216578182fd5b6020830191508360208260051b850101111561323157600080fd5b9250929050565b60008083601f840112613249578182fd5b5081356001600160401b0381111561325f578182fd5b60208301915083602082850101111561323157600080fd5b600060208284031215613288578081fd5b8135612be981613cf8565b6000602082840312156132a4578081fd5b8151612be981613cf8565b60008060008060008060006080888a0312156132c9578283fd5b87356132d481613cf8565b965060208801356001600160401b03808211156132ef578485fd5b6132fb8b838c016131ef565b909850965060408a0135915080821115613313578485fd5b61331f8b838c016131ef565b909650945060608a0135915080821115613337578384fd5b506133448a828b016131ef565b989b979a50959850939692959293505050565b6000806000806060858703121561336c578384fd5b843561337781613cf8565b93506020850135925060408501356001600160401b03811115613398578283fd5b6133a487828801613238565b95989497509550505050565b60008060008060008060008060a0898b0312156133cb578182fd5b88356133d681613cf8565b97506020890135965060408901356001600160401b03808211156133f8578384fd5b6134048c838d01613238565b909850965060608b013591508082111561341c578384fd5b6134288c838d016131ef565b909650945060808b0135915080821115613440578384fd5b5061344d8b828c016131ef565b999c989b5096995094979396929594505050565b60008060208385031215613473578182fd5b82356001600160401b03811115613488578283fd5b613494858286016131ef565b90969095509350505050565b600060208083850312156134b2578182fd5b82356001600160401b038111156134c7578283fd5b8301601f810185136134d7578283fd5b80356134ea6134e582613af9565b613ac9565b80828252848201915084840188868560051b8701011115613509578687fd5b8694505b8385101561353457803561352081613cf8565b83526001949094019391850191850161350d565b50979650505050505050565b600060208284031215613551578081fd5b81518015158114612be9578182fd5b600060208284031215613571578081fd5b5035919050565b6000806040838503121561358a578182fd5b82359150602083013561359c81613cf8565b809150509250929050565b6000602082840312156135b8578081fd5b81356001600160e01b031981168114612be9578182fd5b600080600080600060a086880312156135e6578283fd5b85356135f181613cf8565b9450602086013561360181613cf8565b9350604086013561361181613cf8565b9250606086013561362181613cf8565b9150608086013561363181613cf8565b809150509295509295909350565b60008060208385031215613651578182fd5b82356001600160401b03811115613666578283fd5b61349485828601613238565b600080600060408486031215613686578081fd5b8335925060208401356001600160401b038111156136a2578182fd5b6136ae86828701613238565b9497909650939450505050565b600081518084526020808501808196508360051b81019150828601855b858110156137025782840389526136f084835161370f565b988501989350908401906001016136d8565b5091979650505050505050565b60008151808452613727816020860160208601613c2f565b601f01601f19169290920160200192915050565b6000825161374d818460208701613c2f565b9190910192915050565b6b756e732d646576746573742d60a01b81528183600c83013760009101600c01908152919050565b7f416363657373436f6e74726f6c3a206163636f756e74200000000000000000008152600083516137b7816017850160208801613c2f565b7001034b99036b4b9b9b4b733903937b6329607d1b60179184019182015283516137e8816028840160208801613c2f565b01602801949350505050565b6001600160a01b0385168152608060208201819052600090613818908301866136bb565b828103604084015261382a81866136bb565b9050828103606084015261383e81856136bb565b979650505050505050565b600060018060a01b0380861683526060602084015261386b606084018661370f565b9150808416604084015250949350505050565b6020808252825182820181905260009190848201906040850190845b818110156138b857835115158352928401929184019160010161389a565b50909695505050505050565b6060815260006138d760608301866136bb565b82810360208401526138e981866136bb565b915050826040830152949350505050565b6020808252810182905260006001600160fb1b03831115613919578081fd5b8260051b808560408501379190910160400190815292915050565b60208152816020820152818360408301376000818301604090810191909152601f909201601f19160101919050565b602081526000612be9602083018461370f565b60208082526026908201527f4d696e74696e674d616e616765723a20544f4b454e5f4c4142454c5f50524f4860408201526512509255115160d21b606082015260800190565b6020808252818101527f4d696e746572526f6c653a2043414c4c45525f49535f4e4f545f4d494e544552604082015260600190565b60208082526010908201526f14185d5cd8589b194e8814105554d15160821b604082015260600190565b60208082526022908201527f4d696e74696e674d616e616765723a20544c445f4e4f545f5245474953544552604082015261115160f21b606082015260800190565b6020808252602b908201527f496e697469616c697a61626c653a20636f6e7472616374206973206e6f74206960408201526a6e697469616c697a696e6760a81b606082015260800190565b828152604060208201526000613ac1604083018461370f565b949350505050565b604051601f8201601f191681016001600160401b0381118282101715613af157613af1613ce2565b604052919050565b60006001600160401b03821115613b1257613b12613ce2565b5060051b60200190565b60008219821115613b2f57613b2f613ccc565b500190565b6000816000190483118215151615613b4e57613b4e613ccc565b500290565b600082821015613b6557613b65613ccc565b500390565b6000613b786134e584613af9565b808482526020808301925084368760051b87011115613b95578485fd5b845b87811015613c235781356001600160401b0380821115613bb5578788fd5b90880190601f3681840112613bc8578889fd5b823582811115613bda57613bda613ce2565b613beb818301601f19168801613ac9565b92508083523687828601011115613c0057898afd5b808785018885013782018601899052508652509382019390820190600101613b97565b50919695505050505050565b60005b83811015613c4a578181015183820152602001613c32565b83811115613c59576000848401525b50505050565b600081613c6e57613c6e613ccc565b506000190190565b600181811c90821680613c8a57607f821691505b60208210811415613cab57634e487b7160e01b600052602260045260246000fd5b50919050565b6000600019821415613cc557613cc5613ccc565b5060010190565b634e487b7160e01b600052601160045260246000fd5b634e487b7160e01b600052604160045260246000fd5b6001600160a01b038116811461106e57600080fdfe5496787fc1ebdfeba375028c1865f13fbb1d63c0caa356ccc1b29a80f3ebd622a85b8425a460dd344a297bd4a82e287385f0fc558cb3e78867b0489f43df2470b551e0305c8163b812374b8e78b577c77f226f6f10c5ad03e52699578fbc34b89f2df0fed2c77648de5860a4cc508cd0818c85b8b8a1ab4ceeef8d981c8956a6a164736f6c6343000804000a",
  "linkReferences": {},
  "deployedLinkReferences": {}
}