{
  "_format": "hh-sol-artifact-1",
  "contractName": "MintingManagerV01",
  "sourceName": "contracts/history/MintingManagerV01.sol",
  "abi": [
    {
      "anonymous": false,
      "inputs": [
        {
          "indexed": true,
          "internalType": "address",
          "name": "previousOwner",
          "type": "address"
        },
        {
          "indexed": true,
          "internalType": "address",
          "name": "newOwner",
          "type": "address"
        }
      ],
      "name": "OwnershipTransferred",
      "type": "event"
    },
    {
      "anonymous": false,
      "inputs": [
        {
          "indexed": true,
          "internalType": "address",
          "name": "sender",
          "type": "address"
        },
        {
          "indexed": true,
          "internalType": "address",
          "name": "signer",
          "type": "address"
        },
        {
          "indexed": true,
          "internalType": "bytes4",
          "name": "funcSig",
          "type": "bytes4"
        },
        {
          "indexed": false,
          "internalType": "bytes32",
          "name": "digest",
          "type": "bytes32"
        }
      ],
      "name": "Relayed",
      "type": "event"
    },
    {
      "anonymous": false,
      "inputs": [
        {
          "indexed": true,
          "internalType": "bytes32",
          "name": "role",
          "type": "bytes32"
        },
        {
          "indexed": true,
          "internalType": "bytes32",
          "name": "previousAdminRole",
          "type": "bytes32"
        },
        {
          "indexed": true,
          "internalType": "bytes32",
          "name": "newAdminRole",
          "type": "bytes32"
        }
      ],
      "name": "RoleAdminChanged",
      "type": "event"
    },
    {
      "anonymous": false,
      "inputs": [
        {
          "indexed": true,
          "internalType": "bytes32",
          "name": "role",
          "type": "bytes32"
        },
        {
          "indexed": true,
          "internalType": "address",
          "name": "account",
          "type": "address"
        },
        {
          "indexed": true,
          "internalType": "address",
          "name": "sender",
          "type": "address"
        }
      ],
      "name": "RoleGranted",
      "type": "event"
    },
    {
      "anonymous": false,
      "inputs": [
        {
          "indexed": true,
          "internalType": "bytes32",
          "name": "role",
          "type": "bytes32"
        },
        {
          "indexed": true,
          "internalType": "address",
          "name": "account",
          "type": "address"
        },
        {
          "indexed": true,
          "internalType": "address",
          "name": "sender",
          "type": "address"
        }
      ],
      "name": "RoleRevoked",
      "type": "event"
    },
    {
      "inputs": [],
      "name": "DEFAULT_ADMIN_ROLE",
      "outputs": [
        {
          "internalType": "bytes32",
          "name": "",
          "type": "bytes32"
        }
      ],
      "stateMutability": "view",
      "type": "function"
    },
    {
      "inputs": [],
      "name": "MINTER_ROLE",
      "outputs": [
        {
          "internalType": "bytes32",
          "name": "",
          "type": "bytes32"
        }
      ],
      "stateMutability": "view",
      "type": "function"
    },
    {
      "inputs": [],
      "name": "NAME",
      "outputs": [
        {
          "internalType": "string",
          "name": "",
          "type": "string"
        }
      ],
      "stateMutability": "view",
      "type": "function"
    },
    {
      "inputs": [],
      "name": "VERSION",
      "outputs": [
        {
          "internalType": "string",
          "name": "",
          "type": "string"
        }
      ],
      "stateMutability": "view",
      "type": "function"
    },
    {
      "inputs": [
        {
          "internalType": "address",
          "name": "account",
          "type": "address"
        }
      ],
      "name": "addMinter",
      "outputs": [],
      "stateMutability": "nonpayable",
      "type": "function"
    },
    {
      "inputs": [
        {
          "internalType": "address[]",
          "name": "accounts",
          "type": "address[]"
        }
      ],
      "name": "addMinters",
      "outputs": [],
      "stateMutability": "nonpayable",
      "type": "function"
    },
    {
      "inputs": [
        {
          "internalType": "uint256",
          "name": "tld",
          "type": "uint256"
        },
        {
          "internalType": "string",
          "name": "label",
          "type": "string"
        }
      ],
      "name": "claim",
      "outputs": [],
      "stateMutability": "nonpayable",
      "type": "function"
    },
    {
      "inputs": [
        {
          "internalType": "address",
          "name": "to",
          "type": "address"
        },
        {
          "internalType": "uint256",
          "name": "tld",
          "type": "uint256"
        },
        {
          "internalType": "string",
          "name": "label",
          "type": "string"
        }
      ],
      "name": "claimTo",
      "outputs": [],
      "stateMutability": "nonpayable",
      "type": "function"
    },
    {
      "inputs": [
        {
          "internalType": "address",
          "name": "to",
          "type": "address"
        },
        {
          "internalType": "uint256",
          "name": "tld",
          "type": "uint256"
        },
        {
          "internalType": "string",
          "name": "label",
          "type": "string"
        },
        {
          "internalType": "string[]",
          "name": "keys",
          "type": "string[]"
        },
        {
          "internalType": "string[]",
          "name": "values",
          "type": "string[]"
        }
      ],
      "name": "claimToWithRecords",
      "outputs": [],
      "stateMutability": "nonpayable",
      "type": "function"
    },
    {
      "inputs": [
        {
          "internalType": "address payable",
          "name": "receiver",
          "type": "address"
        }
      ],
      "name": "closeMinter",
      "outputs": [],
      "stateMutability": "payable",
      "type": "function"
    },
    {
      "inputs": [],
      "name": "cnsMintingController",
      "outputs": [
        {
          "internalType": "contract IMintingController",
          "name": "",
          "type": "address"
        }
      ],
      "stateMutability": "view",
      "type": "function"
    },
    {
      "inputs": [],
      "name": "cnsResolver",
      "outputs": [
        {
          "internalType": "contract IResolver",
          "name": "",
          "type": "address"
        }
      ],
      "stateMutability": "view",
      "type": "function"
    },
    {
      "inputs": [],
      "name": "cnsURIPrefixController",
      "outputs": [
        {
          "internalType": "contract IURIPrefixController",
          "name": "",
          "type": "address"
        }
      ],
      "stateMutability": "view",
      "type": "function"
    },
    {
      "inputs": [
        {
          "internalType": "bytes32",
          "name": "role",
          "type": "bytes32"
        }
      ],
      "name": "getRoleAdmin",
      "outputs": [
        {
          "internalType": "bytes32",
          "name": "",
          "type": "bytes32"
        }
      ],
      "stateMutability": "view",
      "type": "function"
    },
    {
      "inputs": [
        {
          "internalType": "bytes32",
          "name": "role",
          "type": "bytes32"
        },
        {
          "internalType": "address",
          "name": "account",
          "type": "address"
        }
      ],
      "name": "grantRole",
      "outputs": [],
      "stateMutability": "nonpayable",
      "type": "function"
    },
    {
      "inputs": [
        {
          "internalType": "bytes32",
          "name": "role",
          "type": "bytes32"
        },
        {
          "internalType": "address",
          "name": "account",
          "type": "address"
        }
      ],
      "name": "hasRole",
      "outputs": [
        {
          "internalType": "bool",
          "name": "",
          "type": "bool"
        }
      ],
      "stateMutability": "view",
      "type": "function"
    },
    {
      "inputs": [
        {
          "internalType": "contract IUNSRegistry",
          "name": "unsRegistry_",
          "type": "address"
        },
        {
          "internalType": "contract IMintingController",
          "name": "cnsMintingController_",
          "type": "address"
        },
        {
          "internalType": "contract IURIPrefixController",
          "name": "cnsURIPrefixController_",
          "type": "address"
        },
        {
          "internalType": "contract IResolver",
          "name": "cnsResolver_",
          "type": "address"
        }
      ],
      "name": "initialize",
      "outputs": [],
      "stateMutability": "nonpayable",
      "type": "function"
    },
    {
      "inputs": [
        {
          "internalType": "address",
          "name": "account",
          "type": "address"
        }
      ],
      "name": "isMinter",
      "outputs": [
        {
          "internalType": "bool",
          "name": "",
          "type": "bool"
        }
      ],
      "stateMutability": "view",
      "type": "function"
    },
    {
      "inputs": [
        {
          "internalType": "address",
          "name": "to",
          "type": "address"
        },
        {
          "internalType": "uint256",
          "name": "tld",
          "type": "uint256"
        },
        {
          "internalType": "string",
          "name": "label",
          "type": "string"
        }
      ],
      "name": "mintSLD",
      "outputs": [],
      "stateMutability": "nonpayable",
      "type": "function"
    },
    {
      "inputs": [
        {
          "internalType": "address",
          "name": "to",
          "type": "address"
        },
        {
          "internalType": "uint256",
          "name": "tld",
          "type": "uint256"
        },
        {
          "internalType": "string",
          "name": "label",
          "type": "string"
        },
        {
          "internalType": "string[]",
          "name": "keys",
          "type": "string[]"
        },
        {
          "internalType": "string[]",
          "name": "values",
          "type": "string[]"
        }
      ],
      "name": "mintSLDWithRecords",
      "outputs": [],
      "stateMutability": "nonpayable",
      "type": "function"
    },
    {
      "inputs": [],
      "name": "owner",
      "outputs": [
        {
          "internalType": "address",
          "name": "",
          "type": "address"
        }
      ],
      "stateMutability": "view",
      "type": "function"
    },
    {
      "inputs": [
        {
          "internalType": "bytes",
          "name": "data",
          "type": "bytes"
        },
        {
          "internalType": "bytes",
          "name": "signature",
          "type": "bytes"
        }
      ],
      "name": "relay",
      "outputs": [
        {
          "internalType": "bytes",
          "name": "",
          "type": "bytes"
        }
      ],
      "stateMutability": "nonpayable",
      "type": "function"
    },
    {
      "inputs": [
        {
          "internalType": "address",
          "name": "account",
          "type": "address"
        }
      ],
      "name": "removeMinter",
      "outputs": [],
      "stateMutability": "nonpayable",
      "type": "function"
    },
    {
      "inputs": [
        {
          "internalType": "address[]",
          "name": "accounts",
          "type": "address[]"
        }
      ],
      "name": "removeMinters",
      "outputs": [],
      "stateMutability": "nonpayable",
      "type": "function"
    },
    {
      "inputs": [],
      "name": "renounceMinter",
      "outputs": [],
      "stateMutability": "nonpayable",
      "type": "function"
    },
    {
      "inputs": [],
      "name": "renounceOwnership",
      "outputs": [],
      "stateMutability": "nonpayable",
      "type": "function"
    },
    {
      "inputs": [
        {
          "internalType": "bytes32",
          "name": "role",
          "type": "bytes32"
        },
        {
          "internalType": "address",
          "name": "account",
          "type": "address"
        }
      ],
      "name": "renounceRole",
      "outputs": [],
      "stateMutability": "nonpayable",
      "type": "function"
    },
    {
      "inputs": [
        {
          "internalType": "bytes32",
          "name": "role",
          "type": "bytes32"
        },
        {
          "internalType": "address",
          "name": "account",
          "type": "address"
        }
      ],
      "name": "revokeRole",
      "outputs": [],
      "stateMutability": "nonpayable",
      "type": "function"
    },
    {
      "inputs": [
        {
          "internalType": "address payable",
          "name": "receiver",
          "type": "address"
        }
      ],
      "name": "rotateMinter",
      "outputs": [],
      "stateMutability": "payable",
      "type": "function"
    },
    {
      "inputs": [
        {
          "internalType": "address",
          "name": "to",
          "type": "address"
        },
        {
          "internalType": "uint256",
          "name": "tld",
          "type": "uint256"
        },
        {
          "internalType": "string",
          "name": "label",
          "type": "string"
        }
      ],
      "name": "safeMintSLD",
      "outputs": [],
      "stateMutability": "nonpayable",
      "type": "function"
    },
    {
      "inputs": [
        {
          "internalType": "address",
          "name": "to",
          "type": "address"
        },
        {
          "internalType": "uint256",
          "name": "tld",
          "type": "uint256"
        },
        {
          "internalType": "string",
          "name": "label",
          "type": "string"
        },
        {
          "internalType": "bytes",
          "name": "data",
          "type": "bytes"
        }
      ],
      "name": "safeMintSLD",
      "outputs": [],
      "stateMutability": "nonpayable",
      "type": "function"
    },
    {
      "inputs": [
        {
          "internalType": "address",
          "name": "to",
          "type": "address"
        },
        {
          "internalType": "uint256",
          "name": "tld",
          "type": "uint256"
        },
        {
          "internalType": "string",
          "name": "label",
          "type": "string"
        },
        {
          "internalType": "string[]",
          "name": "keys",
          "type": "string[]"
        },
        {
          "internalType": "string[]",
          "name": "values",
          "type": "string[]"
        }
      ],
      "name": "safeMintSLDWithRecords",
      "outputs": [],
      "stateMutability": "nonpayable",
      "type": "function"
    },
    {
      "inputs": [
        {
          "internalType": "address",
          "name": "to",
          "type": "address"
        },
        {
          "internalType": "uint256",
          "name": "tld",
          "type": "uint256"
        },
        {
          "internalType": "string",
          "name": "label",
          "type": "string"
        },
        {
          "internalType": "string[]",
          "name": "keys",
          "type": "string[]"
        },
        {
          "internalType": "string[]",
          "name": "values",
          "type": "string[]"
        },
        {
          "internalType": "bytes",
          "name": "data",
          "type": "bytes"
        }
      ],
      "name": "safeMintSLDWithRecords",
      "outputs": [],
      "stateMutability": "nonpayable",
      "type": "function"
    },
    {
      "inputs": [
        {
          "internalType": "address",
          "name": "resolver",
          "type": "address"
        }
      ],
      "name": "setResolver",
      "outputs": [],
      "stateMutability": "nonpayable",
      "type": "function"
    },
    {
      "inputs": [
        {
          "internalType": "string",
          "name": "prefix",
          "type": "string"
        }
      ],
      "name": "setTokenURIPrefix",
      "outputs": [],
      "stateMutability": "nonpayable",
      "type": "function"
    },
    {
      "inputs": [
        {
          "internalType": "bytes4",
          "name": "interfaceId",
          "type": "bytes4"
        }
      ],
      "name": "supportsInterface",
      "outputs": [
        {
          "internalType": "bool",
          "name": "",
          "type": "bool"
        }
      ],
      "stateMutability": "view",
      "type": "function"
    },
    {
      "inputs": [
        {
          "internalType": "address",
          "name": "newOwner",
          "type": "address"
        }
      ],
      "name": "transferOwnership",
      "outputs": [],
      "stateMutability": "nonpayable",
      "type": "function"
    },
    {
      "inputs": [],
      "name": "unsRegistry",
      "outputs": [
        {
          "internalType": "contract IUNSRegistry",
          "name": "",
          "type": "address"
        }
      ],
      "stateMutability": "view",
      "type": "function"
    }
  ],
  "bytecode": "0x608060405234801561001057600080fd5b506137c1806100206000396000f3fe6080604052600436106102255760003560e01c806381c81d3511610123578063a849d65c116100ab578063d53913931161006f578063d53913931461060c578063d547741f14610621578063f2fde38b14610641578063f8c8765e14610661578063ffa1ad741461068157610225565b8063a849d65c14610582578063aa271e1a14610597578063ae2ad903146105b7578063cc2c3fc4146105d7578063ceeb4f50146105ec57610225565b8063983b2d56116100f2578063983b2d5614610503578063986502751461052357806399e0dd7c14610538578063a217fddf14610558578063a3f4df7e1461056d57610225565b806381c81d351461049b5780638da5cb5b146104ae578063906cecc1146104c357806391d14854146104e357610225565b80634c1819e0116101b15780635fc1964f116101755780635fc1964f14610413578063634486da146104335780636a2d225614610446578063715018a61461046657806371e2a6571461047b57610225565b80634c1819e0146103715780634e543b2614610391578063564a5158146103b157806358839d6b146103de5780635b6fa8db146103fe57610225565b80632f2ff15d116101f85780632f2ff15d146102cf5780633092afd5146102ef57806336568abe1461030f57806339ccf4d01461032f5780633f41b6141461034f57610225565b806301ffc9a71461022a578063248a9ca314610260578063268b15ed1461028d57806327bbd225146102af575b600080fd5b34801561023657600080fd5b5061024a610245366004612b92565b610696565b6040516102579190613211565b60405180910390f35b34801561026c57600080fd5b5061028061027b366004612b4b565b6106c3565b604051610257919061321c565b34801561029957600080fd5b506102ad6102a8366004612cb2565b6106d8565b005b3480156102bb57600080fd5b506102ad6102ca366004612853565b61073e565b3480156102db57600080fd5b506102ad6102ea366004612b63565b610801565b3480156102fb57600080fd5b506102ad61030a3660046127dd565b61082a565b34801561031b57600080fd5b506102ad61032a366004612b63565b610875565b34801561033b57600080fd5b506102ad61034a366004612853565b6108bb565b34801561035b57600080fd5b50610364610965565b6040516102579190612fc2565b34801561037d57600080fd5b506102ad61038c3660046127f9565b610974565b34801561039d57600080fd5b506102ad6103ac3660046127dd565b6109fa565b3480156103bd57600080fd5b506103d16103cc366004612bba565b610a5b565b6040516102579190613243565b3480156103ea57600080fd5b506102ad6103f93660046129e1565b610c26565b34801561040a57600080fd5b50610364610cd5565b34801561041f57600080fd5b506102ad61042e366004612a6a565b610ce4565b6102ad6104413660046127dd565b610d71565b34801561045257600080fd5b506102ad610461366004612905565b610e04565b34801561047257600080fd5b506102ad610ef1565b34801561048757600080fd5b506102ad610496366004612a6a565b610f7a565b6102ad6104a93660046127dd565b611007565b3480156104ba57600080fd5b50610364611054565b3480156104cf57600080fd5b506102ad6104de3660046127f9565b611063565b3480156104ef57600080fd5b5061024a6104fe366004612b63565b6110ae565b34801561050f57600080fd5b506102ad61051e3660046127dd565b6110d9565b34801561052f57600080fd5b506102ad611121565b34801561054457600080fd5b506102ad610553366004612c72565b611133565b34801561056457600080fd5b50610280611251565b34801561057957600080fd5b506103d1611256565b34801561058e57600080fd5b50610364611286565b3480156105a357600080fd5b5061024a6105b23660046127dd565b611295565b3480156105c357600080fd5b506102ad6105d23660046127f9565b6112af565b3480156105e357600080fd5b50610364611353565b3480156105f857600080fd5b506102ad610607366004612853565b611362565b34801561061857600080fd5b506102806113b6565b34801561062d57600080fd5b506102ad61063c366004612b63565b6113c8565b34801561064d57600080fd5b506102ad61065c3660046127dd565b6113e7565b34801561066d57600080fd5b506102ad61067c366004612c17565b6114a8565b34801561068d57600080fd5b506103d16118d6565b60006001600160e01b03198216637965db0b60e01b14806106bb57506106bb826118f7565b90505b919050565b60009081526097602052604090206001015490565b600083815260cd602052604081208054859291906106f5906136dd565b90501161071d5760405162461bcd60e51b8152600401610714906135c6565b60405180910390fd5b610738610728611910565b856107338686611914565b611940565b50505050565b6107496105b2611910565b6107655760405162461bcd60e51b81526004016107149061349f565b600087815260cd60205260408120805489929190610782906136dd565b9050116107a15760405162461bcd60e51b8152600401610714906135c6565b6107f6898989898080601f016020809104026020016040519081016040528093929190818152602001838380828437600092018290525060408051602081019091529081528c93508b92508a91508990611a36565b505050505050505050565b61080a826106c3565b61081b81610816611910565b611bbf565b6108258383611c23565b505050565b610832611910565b6001600160a01b0316610843611054565b6001600160a01b0316146108695760405162461bcd60e51b81526004016107149061355a565b61087281611caa565b50565b61087d611910565b6001600160a01b0316816001600160a01b0316146108ad5760405162461bcd60e51b815260040161071490613608565b6108b78282611cc2565b5050565b6108c66105b2611910565b6108e25760405162461bcd60e51b81526004016107149061349f565b600087815260cd602052604081208054899291906108ff906136dd565b90501161091e5760405162461bcd60e51b8152600401610714906135c6565b6107f6898989898080601f0160208091040260200160405190810160405280939291908181526020018383808284376000920191909152508b92508a915089905088611d47565b60c9546001600160a01b031681565b61097f6105b2611910565b61099b5760405162461bcd60e51b81526004016107149061349f565b600083815260cd602052604081208054859291906109b8906136dd565b9050116109d75760405162461bcd60e51b8152600401610714906135c6565b6109f38585858560405180602001604052806000815250611ecc565b5050505050565b610a02611910565b6001600160a01b0316610a13611054565b6001600160a01b031614610a395760405162461bcd60e51b81526004016107149061355a565b60cc80546001600160a01b0319166001600160a01b0392909216919091179055565b606060008585604051610a6f929190612dfd565b604051809103902090506000610aec85858080601f01602080910402602001604051908101604052809392919081815260200183838082843760009201919091525050604051610ae69250610acb915086903090602001612ddd565b6040516020818303038152906040528051906020012061203a565b9061206a565b905060008088888080601f016020809104026020016040519081016040528093929190818152602001838380828437600092019190915250505050602081015192509050610b39836120f0565b610b44828a8a61211e565b600080306001600160a01b03168b8b604051610b61929190612dfd565b6000604051808303816000865af19150503d8060008114610b9e576040519150601f19603f3d011682016040523d82523d6000602084013e610ba3565b606091505b50909250905081610bbb576040513d806000833e8082fd5b6001600160e01b031984166001600160a01b038616610bd8611910565b6001600160a01b03167f9490f91465d0d2c12728b9ad47d5f1dd2ac3ef39394796e54a48b94db0b3372589604051610c10919061321c565b60405180910390a49a9950505050505050505050565b610c316105b2611910565b610c4d5760405162461bcd60e51b81526004016107149061349f565b600085815260cd60205260408120805487929190610c6a906136dd565b905011610c895760405162461bcd60e51b8152600401610714906135c6565b610ccc8787878787878080601f016020809104026020016040519081016040528093929190818152602001838380828437600092019190915250611ecc92505050565b50505050505050565b60cc546001600160a01b031681565b610cec611910565b6001600160a01b0316610cfd611054565b6001600160a01b031614610d235760405162461bcd60e51b81526004016107149061355a565b60005b81518110156108b757610d5f828281518110610d5257634e487b7160e01b600052603260045260246000fd5b6020026020010151611caa565b80610d6981613718565b915050610d26565b610d7c6105b2611910565b610d985760405162461bcd60e51b81526004016107149061349f565b6001600160a01b038116610dbe5760405162461bcd60e51b8152600401610714906133d8565b610dc7816121da565b610dcf611121565b6040516001600160a01b038216903480156108fc02916000818181858888f193505050501580156108b7573d6000803e3d6000fd5b610e0f6105b2611910565b610e2b5760405162461bcd60e51b81526004016107149061349f565b600089815260cd6020526040812080548b929190610e48906136dd565b905011610e675760405162461bcd60e51b8152600401610714906135c6565b610ee48b8b8b8b8080601f01602080910402602001604051908101604052809392919081815260200183838082843760009201919091525050604080516020601f8b018190048102820181019092528981528e93508d92508c918c91908c908c9081908401838280828437600092019190915250611a3692505050565b5050505050505050505050565b610ef9611910565b6001600160a01b0316610f0a611054565b6001600160a01b031614610f305760405162461bcd60e51b81526004016107149061355a565b6033546040516000916001600160a01b0316907f8be0079c531659141344cd1fd0a4f28419497f9722a3daafe3b4186f6b6457e0908390a3603380546001600160a01b0319169055565b610f82611910565b6001600160a01b0316610f93611054565b6001600160a01b031614610fb95760405162461bcd60e51b81526004016107149061355a565b60005b81518110156108b757610ff5828281518110610fe857634e487b7160e01b600052603260045260246000fd5b60200260200101516121da565b80610fff81613718565b915050610fbc565b6110126105b2611910565b61102e5760405162461bcd60e51b81526004016107149061349f565b6001600160a01b038116610dc75760405162461bcd60e51b8152600401610714906133d8565b6033546001600160a01b031690565b600083815260cd60205260408120805485929190611080906136dd565b90501161109f5760405162461bcd60e51b8152600401610714906135c6565b6109f385856107338686611914565b60009182526097602090815260408084206001600160a01b0393909316845291905290205460ff1690565b6110e1611910565b6001600160a01b03166110f2611054565b6001600160a01b0316146111185760405162461bcd60e51b81526004016107149061355a565b610872816121da565b61113161112c611910565b611caa565b565b61113b611910565b6001600160a01b031661114c611054565b6001600160a01b0316146111725760405162461bcd60e51b81526004016107149061355a565b60c954604051632678375f60e21b81526001600160a01b03909116906399e0dd7c906111a49085908590600401613256565b600060405180830381600087803b1580156111be57600080fd5b505af11580156111d2573d6000803e3d6000fd5b505060cb546001600160a01b03161591506108b790505760cb54604051632678375f60e21b81526001600160a01b03909116906399e0dd7c9061121b9085908590600401613256565b600060405180830381600087803b15801561123557600080fd5b505af1158015611249573d6000803e3d6000fd5b505050505050565b600081565b604051806040016040528060148152602001732aa7299d1026b4b73a34b7339026b0b730b3b2b960611b81525081565b60cb546001600160a01b031681565b60006106bb600080516020613775833981519152836110ae565b6112ba6105b2611910565b6112d65760405162461bcd60e51b81526004016107149061349f565b600083815260cd602052604081208054859291906112f3906136dd565b9050116113125760405162461bcd60e51b8152600401610714906135c6565b6109f3858585858080601f01602080910402602001604051908101604052809392919081815260200183838082843760009201919091525061194092505050565b60ca546001600160a01b031681565b600087815260cd6020526040812080548992919061137f906136dd565b90501161139e5760405162461bcd60e51b8152600401610714906135c6565b6107f689896113ad8a8a611914565b88888888611d47565b60008051602061377583398151915281565b6113d1826106c3565b6113dd81610816611910565b6108258383611cc2565b6113ef611910565b6001600160a01b0316611400611054565b6001600160a01b0316146114265760405162461bcd60e51b81526004016107149061355a565b6001600160a01b03811661144c5760405162461bcd60e51b81526004016107149061335b565b6033546040516001600160a01b038084169216907f8be0079c531659141344cd1fd0a4f28419497f9722a3daafe3b4186f6b6457e090600090a3603380546001600160a01b0319166001600160a01b0392909216919091179055565b600054610100900460ff16806114c1575060005460ff16155b6114dd5760405162461bcd60e51b815260040161071490613451565b600054610100900460ff16158015611508576000805460ff1961ff0019909116610100171660011790555b60c980546001600160a01b038088166001600160a01b03199283161790925560ca805487841690831617905560cb805486841690831617905560cc80549285169290911691909117905561155a6121f2565b6115626122be565b61156b306121da565b60408051808201909152600681526563727970746f60d01b602080830191825260008051602061379583398151915260005260cd905290516115ce917f9535d3ea47c5e1398d3405b4fadc73de6b1b1e6a66f674a8886ab7a6c873a390916126b0565b50604080516101408101825260066101008201908152651dd85b1b195d60d21b610120830152815281518083018352600481526331b7b4b760e11b602082810191909152808301919091528251808401845260018152600f60fb1b8183015282840152825180840184526003808252621b999d60ea1b82840152606084019190915283518085018552600a815269313637b1b5b1b430b4b760b11b8184015260808401528351808501855260078152663134ba31b7b4b760c91b8184015260a0840152835180850185528181526207070760eb1b8184015260c0840152835180850190945283526264616f60e81b9083015260e081019190915260005b60088110156118bc576000808383600881106116f757634e487b7160e01b600052603260045260246000fd5b602002015160405160200161170c9190612e0d565b60405160208183030381529060405280519060200120604051602001611733929190612fb4565b6040516020818303038152906040528051906020012060001c905082826008811061176e57634e487b7160e01b600052603260045260246000fd5b602002015160cd600083815260200190815260200160002090805190602001906117999291906126b0565b5060c954604051634f558e7960e01b81526001600160a01b0390911690634f558e79906117ca90849060040161321c565b60206040518083038186803b1580156117e257600080fd5b505afa1580156117f6573d6000803e3d6000fd5b505050506040513d601f19601f8201168201806040525081019061181a9190612b2b565b6118a95760c9546001600160a01b031663d3fc986461dead8386866008811061185357634e487b7160e01b600052603260045260246000fd5b60200201516040518463ffffffff1660e01b81526004016118769392919061309d565b600060405180830381600087803b15801561189057600080fd5b505af11580156118a4573d6000803e3d6000fd5b505050505b50806118b481613718565b9150506116cb565b505080156109f3576000805461ff00191690555050505050565b604051806040016040528060058152602001640302e312e360dc1b81525081565b6001600160e01b031981166301ffc9a760e01b14919050565b3390565b60608282604051602001611929929190612f19565b604051602081830303815290604052905092915050565b8160008051602061379583398151915214156119c45760ca5460cc5460405163c36c212560e01b81526001600160a01b039283169263c36c21259261198d92889287921690600401613020565b600060405180830381600087803b1580156119a757600080fd5b505af11580156119bb573d6000803e3d6000fd5b50505050610825565b60c9546001600160a01b031663d3fc9864846119e08585612332565b6119ea86866123ae565b6040518463ffffffff1660e01b8152600401611a089392919061309d565b600060405180830381600087803b158015611a2257600080fd5b505af1158015610ccc573d6000803e3d6000fd5b6000611a428888612332565b9050876000805160206137958339815191521415611b3d5760ca5460cc54604051630f95e75b60e31b81526001600160a01b0392831692637caf3ad892611a93928e928d9216908890600401613055565b600060405180830381600087803b158015611aad57600080fd5b505af1158015611ac1573d6000803e3d6000fd5b505086159150611b3890505760cc54604051633a0deb9d60e21b81526001600160a01b039091169063e837ae7490611b0590899089908990899088906004016131d7565b600060405180830381600087803b158015611b1f57600080fd5b505af1158015611b33573d6000803e3d6000fd5b505050505b6107f6565b60c9546001600160a01b031663efda4d3e8a83611b5a8c8c6123ae565b8a8a8a8a8a6040518963ffffffff1660e01b8152600401611b82989796959493929190613121565b600060405180830381600087803b158015611b9c57600080fd5b505af1158015611bb0573d6000803e3d6000fd5b50505050505050505050505050565b611bc982826110ae565b6108b757611be1816001600160a01b031660146123d1565b611bec8360206123d1565b604051602001611bfd929190612f3f565b60408051601f198184030181529082905262461bcd60e51b825261071491600401613243565b611c2d82826110ae565b6108b75760008281526097602090815260408083206001600160a01b03851684529091529020805460ff19166001179055611c66611910565b6001600160a01b0316816001600160a01b0316837f2f8788117e7eff1d82e926ec794901d17c78024a50270940304540a733656f0d60405160405180910390a45050565b61087260008051602061377583398151915282610875565b611ccc82826110ae565b156108b75760008281526097602090815260408083206001600160a01b03851684529091529020805460ff19169055611d03611910565b6001600160a01b0316816001600160a01b0316837ff6391f5c32d9c69d2a47ea670b442974b53935d1edc7fd64eb21e047a839171b60405160405180910390a45050565b6000611d538787612332565b9050866000805160206137958339815191521415611e4c5760ca5460cc5460405163c36c212560e01b81526001600160a01b039283169263c36c212592611da2928d928c921690600401613020565b600060405180830381600087803b158015611dbc57600080fd5b505af1158015611dd0573d6000803e3d6000fd5b505085159150611e4790505760cc54604051633a0deb9d60e21b81526001600160a01b039091169063e837ae7490611e1490889088908890889088906004016131d7565b600060405180830381600087803b158015611e2e57600080fd5b505af1158015611e42573d6000803e3d6000fd5b505050505b611ec2565b60c9546001600160a01b031663b0f591778983611e698b8b6123ae565b898989896040518863ffffffff1660e01b8152600401611e8f97969594939291906130c4565b600060405180830381600087803b158015611ea957600080fd5b505af1158015611ebd573d6000803e3d6000fd5b505050505b5050505050505050565b836000805160206137958339815191521415611f555760ca5460cc54604051630f95e75b60e31b81526001600160a01b0392831692637caf3ad892611f1e928a92899289929116908890600401612fd6565b600060405180830381600087803b158015611f3857600080fd5b505af1158015611f4c573d6000803e3d6000fd5b505050506109f3565b60c954604080516020601f86018190048102820181019092528481526001600160a01b039092169163b55bc617918891611fac91899190899089908190840183828082843760009201919091525061233292505050565b611fec8888888080601f0160208091040260200160405190810160405280939291908181526020018383808284376000920191909152506123ae92505050565b856040518563ffffffff1660e01b815260040161200c9493929190613193565b600060405180830381600087803b15801561202657600080fd5b505af11580156107f6573d6000803e3d6000fd5b60008160405160200161204d9190612ee8565b604051602081830303815290604052805190602001209050919050565b6000806000808451604114156120945750505060208201516040830151606084015160001a6120da565b8451604014156120c25750505060408201516020830151906001600160ff1b0381169060ff1c601b016120da565b60405162461bcd60e51b815260040161071490613324565b6120e68682858561258a565b9695505050505050565b6120f981612680565b61210281611295565b6108725760405162461bcd60e51b815260040161071490613516565b60006001600160e01b0319841663ae2ad90360e01b148061214f57506001600160e01b03198416630260c0cf60e51b145b8061216a57506001600160e01b031984166358839d6b60e01b145b8061218557506001600160e01b0319841663039ccf4d60e41b145b806121a057506001600160e01b031984166327bbd22560e01b145b806121bb57506001600160e01b03198416633516912b60e11b145b9050806107385760405162461bcd60e51b8152600401610714906132de565b610872600080516020613775833981519152826126a6565b600054610100900460ff168061220b575060005460ff16155b6122275760405162461bcd60e51b815260040161071490613451565b600054610100900460ff16158015612252576000805460ff1961ff0019909116610100171660011790555b600061225c611910565b603380546001600160a01b0319166001600160a01b038316908117909155604051919250906000907f8be0079c531659141344cd1fd0a4f28419497f9722a3daafe3b4186f6b6457e0908290a3508015610872576000805461ff001916905550565b600054610100900460ff16806122d7575060005460ff16155b6122f35760405162461bcd60e51b815260040161071490613451565b600054610100900460ff1615801561231e576000805460ff1961ff0019909116610100171660011790555b8015610872576000805461ff001916905550565b60008151600014156123565760405162461bcd60e51b81526004016107149061358f565b82826040516020016123689190612e0d565b6040516020818303038152906040528051906020012060405160200161238f929190612fb4565b60408051601f1981840301815291905280516020909101209392505050565b600082815260cd6020908152604091829020915160609261192992859201612e29565b606060006123e083600261367b565b6123eb906002613663565b67ffffffffffffffff81111561241157634e487b7160e01b600052604160045260246000fd5b6040519080825280601f01601f19166020018201604052801561243b576020820181803683370190505b509050600360fc1b8160008151811061246457634e487b7160e01b600052603260045260246000fd5b60200101906001600160f81b031916908160001a905350600f60fb1b816001815181106124a157634e487b7160e01b600052603260045260246000fd5b60200101906001600160f81b031916908160001a90535060006124c584600261367b565b6124d0906001613663565b90505b6001811115612564576f181899199a1a9b1b9c1cb0b131b232b360811b85600f166010811061251257634e487b7160e01b600052603260045260246000fd5b1a60f81b82828151811061253657634e487b7160e01b600052603260045260246000fd5b60200101906001600160f81b031916908160001a90535060049490941c9361255d816136c6565b90506124d3565b5083156125835760405162461bcd60e51b8152600401610714906132a9565b9392505050565b60007f7fffffffffffffffffffffffffffffff5d576e7357a4501ddfe92f46681b20a08211156125cc5760405162461bcd60e51b81526004016107149061340f565b8360ff16601b14806125e157508360ff16601c145b6125fd5760405162461bcd60e51b8152600401610714906134d4565b6000600186868686604051600081526020016040526040516126229493929190613225565b6020604051602081039080840390855afa158015612644573d6000803e3d6000fd5b5050604051601f1901519150506001600160a01b0381166126775760405162461bcd60e51b815260040161071490613272565b95945050505050565b6001600160a01b0381166108725760405162461bcd60e51b8152600401610714906133a1565b6108b78282611c23565b8280546126bc906136dd565b90600052602060002090601f0160209004810192826126de5760008555612724565b82601f106126f757805160ff1916838001178555612724565b82800160010185558215612724579182015b82811115612724578251825591602001919060010190612709565b50612730929150612734565b5090565b5b808211156127305760008155600101612735565b80356106be8161375f565b60008083601f840112612765578182fd5b50813567ffffffffffffffff81111561277c578182fd5b602083019150836020808302850101111561279657600080fd5b9250929050565b60008083601f8401126127ae578182fd5b50813567ffffffffffffffff8111156127c5578182fd5b60208301915083602082850101111561279657600080fd5b6000602082840312156127ee578081fd5b81356125838161375f565b6000806000806060858703121561280e578283fd5b84356128198161375f565b935060208501359250604085013567ffffffffffffffff81111561283b578283fd5b6128478782880161279d565b95989497509550505050565b60008060008060008060008060a0898b03121561286e578384fd5b88356128798161375f565b975060208901359650604089013567ffffffffffffffff8082111561289c578586fd5b6128a88c838d0161279d565b909850965060608b01359150808211156128c0578586fd5b6128cc8c838d01612754565b909650945060808b01359150808211156128e4578384fd5b506128f18b828c01612754565b999c989b5096995094979396929594505050565b60008060008060008060008060008060c08b8d031215612923578182fd5b61292c8b612749565b995060208b0135985060408b013567ffffffffffffffff8082111561294f578384fd5b61295b8e838f0161279d565b909a50985060608d0135915080821115612973578384fd5b61297f8e838f01612754565b909850965060808d0135915080821115612997578384fd5b6129a38e838f01612754565b909650945060a08d01359150808211156129bb578384fd5b506129c88d828e0161279d565b915080935050809150509295989b9194979a5092959850565b600080600080600080608087890312156129f9578182fd5b8635612a048161375f565b955060208701359450604087013567ffffffffffffffff80821115612a27578384fd5b612a338a838b0161279d565b90965094506060890135915080821115612a4b578384fd5b50612a5889828a0161279d565b979a9699509497509295939492505050565b60006020808385031215612a7c578182fd5b823567ffffffffffffffff80821115612a93578384fd5b818501915085601f830112612aa6578384fd5b813581811115612ab857612ab8613749565b83810260405185828201018181108582111715612ad757612ad7613749565b604052828152858101935084860182860187018a1015612af5578788fd5b8795505b83861015612b1e57612b0a81612749565b855260019590950194938601938601612af9565b5098975050505050505050565b600060208284031215612b3c578081fd5b81518015158114612583578182fd5b600060208284031215612b5c578081fd5b5035919050565b60008060408385031215612b75578182fd5b823591506020830135612b878161375f565b809150509250929050565b600060208284031215612ba3578081fd5b81356001600160e01b031981168114612583578182fd5b60008060008060408587031215612bcf578182fd5b843567ffffffffffffffff80821115612be6578384fd5b612bf28883890161279d565b90965094506020870135915080821115612c0a578384fd5b506128478782880161279d565b60008060008060808587031215612c2c578182fd5b8435612c378161375f565b93506020850135612c478161375f565b92506040850135612c578161375f565b91506060850135612c678161375f565b939692955090935050565b60008060208385031215612c84578182fd5b823567ffffffffffffffff811115612c9a578283fd5b612ca68582860161279d565b90969095509350505050565b600080600060408486031215612cc6578081fd5b83359250602084013567ffffffffffffffff811115612ce3578182fd5b612cef8682870161279d565b9497909650939450505050565b818352602080840193600091908185020181018584845b87811015612d7a5782840389528135601e19883603018112612d33578687fd5b8701803567ffffffffffffffff811115612d4b578788fd5b803603891315612d59578788fd5b612d668682898501612db3565b9a87019a9550505090840190600101612d13565b5091979650505050505050565b60008151808452612d9f81602086016020860161369a565b601f01601f19169290920160200192915050565b60008284528282602086013780602084860101526020601f19601f85011685010190509392505050565b91825260601b6bffffffffffffffffffffffff1916602082015260340190565b6000828483379101908152919050565b60008251612e1f81846020870161369a565b9190910192915050565b600083516020612e3c828583890161369a565b601760f91b918401918252845460019084906002810481841680612e6157607f821691505b858210811415612e7f57634e487b7160e01b88526022600452602488fd5b808015612e935760018114612ea857612ed8565b60ff1984168887015282880186019450612ed8565b612eb18b613657565b895b84811015612ece5781548a8201890152908701908801612eb3565b5050858389010194505b50929a9950505050505050505050565b7f19457468657265756d205369676e6564204d6573736167653a0a3332000000008152601c810191909152603c0190565b6000697564746573746465762d60b01b82528284600a8401379101600a01908152919050565b60007f416363657373436f6e74726f6c3a206163636f756e742000000000000000000082528351612f7781601785016020880161369a565b7001034b99036b4b9b9b4b733903937b6329607d1b6017918401918201528351612fa881602884016020880161369a565b01602801949350505050565b918252602082015260400190565b6001600160a01b0391909116815260200190565b600060018060a01b03808816835260806020840152612ff9608084018789612db3565b818616604085015283810360608501526130138186612d87565b9998505050505050505050565b600060018060a01b038086168352606060208401526130426060840186612d87565b9150808416604084015250949350505050565b600060018060a01b038087168352608060208401526130776080840187612d87565b818616604085015283810360608501526130918186612d87565b98975050505050505050565b600060018060a01b0385168252836020830152606060408301526126776060830184612d87565b600060018060a01b038916825287602083015260a060408301526130eb60a0830188612d87565b82810360608401526130fe818789612cfc565b90508281036080840152613113818587612cfc565b9a9950505050505050505050565b600060018060a01b038a16825288602083015260c0604083015261314860c0830189612d87565b828103606084015261315b81888a612cfc565b90508281036080840152613170818688612cfc565b905082810360a08401526131848185612d87565b9b9a5050505050505050505050565b600060018060a01b0386168252846020830152608060408301526131ba6080830185612d87565b82810360608401526131cc8185612d87565b979650505050505050565b6000606082526131eb606083018789612cfc565b82810360208401526131fe818688612cfc565b9150508260408301529695505050505050565b901515815260200190565b90815260200190565b93845260ff9290921660208401526040830152606082015260800190565b6000602082526125836020830184612d87565b60006020825261326a602083018486612db3565b949350505050565b60208082526018908201527f45434453413a20696e76616c6964207369676e61747572650000000000000000604082015260600190565b6020808252818101527f537472696e67733a20686578206c656e67746820696e73756666696369656e74604082015260600190565b60208082526026908201527f4d696e74696e674d616e616765723a20554e535550504f525445445f52454c416040820152651657d0d0531360d21b606082015260800190565b6020808252601f908201527f45434453413a20696e76616c6964207369676e6174757265206c656e67746800604082015260600190565b60208082526026908201527f4f776e61626c653a206e6577206f776e657220697320746865207a65726f206160408201526564647265737360d01b606082015260800190565b6020808252601d908201527f52656c617965723a205349474e41545552455f49535f494e56414c4944000000604082015260600190565b6020808252601d908201527f4d696e746572526f6c653a2052454345495645525f49535f454d505459000000604082015260600190565b60208082526022908201527f45434453413a20696e76616c6964207369676e6174757265202773272076616c604082015261756560f01b606082015260800190565b6020808252602e908201527f496e697469616c697a61626c653a20636f6e747261637420697320616c72656160408201526d191e481a5b9a5d1a585b1a5e995960921b606082015260800190565b6020808252818101527f4d696e746572526f6c653a2043414c4c45525f49535f4e4f545f4d494e544552604082015260600190565b60208082526022908201527f45434453413a20696e76616c6964207369676e6174757265202776272076616c604082015261756560f01b606082015260800190565b60208082526024908201527f4d696e74696e674d616e616765723a205349474e45525f49535f4e4f545f4d49604082015263272a22a960e11b606082015260800190565b6020808252818101527f4f776e61626c653a2063616c6c6572206973206e6f7420746865206f776e6572604082015260600190565b6020808252601b908201527f4d696e74696e674d616e616765723a204c4142454c5f454d5054590000000000604082015260600190565b60208082526022908201527f4d696e74696e674d616e616765723a20544c445f4e4f545f5245474953544552604082015261115160f21b606082015260800190565b6020808252602f908201527f416363657373436f6e74726f6c3a2063616e206f6e6c792072656e6f756e636560408201526e103937b632b9903337b91039b2b63360891b606082015260800190565b60009081526020902090565b6000821982111561367657613676613733565b500190565b600081600019048311821515161561369557613695613733565b500290565b60005b838110156136b557818101518382015260200161369d565b838111156107385750506000910152565b6000816136d5576136d5613733565b506000190190565b6002810460018216806136f157607f821691505b6020821081141561371257634e487b7160e01b600052602260045260246000fd5b50919050565b600060001982141561372c5761372c613733565b5060010190565b634e487b7160e01b600052601160045260246000fd5b634e487b7160e01b600052604160045260246000fd5b6001600160a01b038116811461087257600080fdfe9f2df0fed2c77648de5860a4cc508cd0818c85b8b8a1ab4ceeef8d981c8956a60f4a10a4f46c288cea365fcf45cccf0e9d901b945b9829ccdb54c10dc3cb7a6fa164736f6c6343000800000a",
  "linkReferences": {},
  "deployedLinkReferences": {}
}