{
  "_format": "hh-sol-artifact-1",
  "contractName": "MintingManager",
  "sourceName": "contracts/MintingManager.sol",
  "abi": [
    {
      "anonymous": false,
      "inputs": [
        {
          "indexed": false,
          "internalType": "address",
          "name": "previousAdmin",
          "type": "address"
        },
        {
          "indexed": false,
          "internalType": "address",
          "name": "newAdmin",
          "type": "address"
        }
      ],
      "name": "AdminChanged",
      "type": "event"
    },
    {
      "anonymous": false,
      "inputs": [
        {
          "indexed": false,
          "internalType": "uint256",
          "name": "tokenId",
          "type": "uint256"
        }
      ],
      "name": "Blocked",
      "type": "event"
    },
    {
      "anonymous": false,
      "inputs": [
        {
          "indexed": false,
          "internalType": "address",
          "name": "account",
          "type": "address"
        }
      ],
      "name": "BlocklistDisabled",
      "type": "event"
    },
    {
      "anonymous": false,
      "inputs": [
        {
          "indexed": false,
          "internalType": "address",
          "name": "account",
          "type": "address"
        }
      ],
      "name": "BlocklistEnabled",
      "type": "event"
    },
    {
      "anonymous": false,
      "inputs": [
        {
          "indexed": false,
          "internalType": "uint8",
          "name": "version",
          "type": "uint8"
        }
      ],
      "name": "Initialized",
      "type": "event"
    },
    {
      "anonymous": false,
      "inputs": [
        {
          "indexed": true,
          "internalType": "uint256",
          "name": "tokenId",
          "type": "uint256"
        },
        {
          "indexed": false,
          "internalType": "string",
          "name": "tld",
          "type": "string"
        }
      ],
      "name": "NewTld",
      "type": "event"
    },
    {
      "anonymous": false,
      "inputs": [
        {
          "indexed": true,
          "internalType": "address",
          "name": "previousOwner",
          "type": "address"
        },
        {
          "indexed": true,
          "internalType": "address",
          "name": "newOwner",
          "type": "address"
        }
      ],
      "name": "OwnershipTransferred",
      "type": "event"
    },
    {
      "anonymous": false,
      "inputs": [
        {
          "indexed": false,
          "internalType": "address",
          "name": "account",
          "type": "address"
        }
      ],
      "name": "Paused",
      "type": "event"
    },
    {
      "anonymous": false,
      "inputs": [
        {
          "indexed": true,
          "internalType": "uint256",
          "name": "tokenId",
          "type": "uint256"
        },
        {
          "indexed": false,
          "internalType": "string",
          "name": "tld",
          "type": "string"
        }
      ],
      "name": "RemoveTld",
      "type": "event"
    },
    {
      "anonymous": false,
      "inputs": [
        {
          "indexed": true,
          "internalType": "bytes32",
          "name": "role",
          "type": "bytes32"
        },
        {
          "indexed": true,
          "internalType": "bytes32",
          "name": "previousAdminRole",
          "type": "bytes32"
        },
        {
          "indexed": true,
          "internalType": "bytes32",
          "name": "newAdminRole",
          "type": "bytes32"
        }
      ],
      "name": "RoleAdminChanged",
      "type": "event"
    },
    {
      "anonymous": false,
      "inputs": [
        {
          "indexed": true,
          "internalType": "bytes32",
          "name": "role",
          "type": "bytes32"
        },
        {
          "indexed": true,
          "internalType": "address",
          "name": "account",
          "type": "address"
        },
        {
          "indexed": true,
          "internalType": "address",
          "name": "sender",
          "type": "address"
        }
      ],
      "name": "RoleGranted",
      "type": "event"
    },
    {
      "anonymous": false,
      "inputs": [
        {
          "indexed": true,
          "internalType": "bytes32",
          "name": "role",
          "type": "bytes32"
        },
        {
          "indexed": true,
          "internalType": "address",
          "name": "account",
          "type": "address"
        },
        {
          "indexed": true,
          "internalType": "address",
          "name": "sender",
          "type": "address"
        }
      ],
      "name": "RoleRevoked",
      "type": "event"
    },
    {
      "anonymous": false,
      "inputs": [
        {
          "indexed": false,
          "internalType": "address",
          "name": "account",
          "type": "address"
        }
      ],
      "name": "Unpaused",
      "type": "event"
    },
    {
      "anonymous": false,
      "inputs": [
        {
          "indexed": true,
          "internalType": "address",
          "name": "implementation",
          "type": "address"
        }
      ],
      "name": "Upgraded",
      "type": "event"
    },
    {
      "inputs": [],
      "name": "DEFAULT_ADMIN_ROLE",
      "outputs": [
        {
          "internalType": "bytes32",
          "name": "",
          "type": "bytes32"
        }
      ],
      "stateMutability": "view",
      "type": "function"
    },
    {
      "inputs": [],
      "name": "MINTER_ROLE",
      "outputs": [
        {
          "internalType": "bytes32",
          "name": "",
          "type": "bytes32"
        }
      ],
      "stateMutability": "view",
      "type": "function"
    },
    {
      "inputs": [],
      "name": "NAME",
      "outputs": [
        {
          "internalType": "string",
          "name": "",
          "type": "string"
        }
      ],
      "stateMutability": "view",
      "type": "function"
    },
    {
      "inputs": [],
      "name": "VERSION",
      "outputs": [
        {
          "internalType": "string",
          "name": "",
          "type": "string"
        }
      ],
      "stateMutability": "view",
      "type": "function"
    },
    {
      "inputs": [
        {
          "internalType": "address",
          "name": "account",
          "type": "address"
        }
      ],
      "name": "addMinter",
      "outputs": [],
      "stateMutability": "nonpayable",
      "type": "function"
    },
    {
      "inputs": [
        {
          "internalType": "address[]",
          "name": "accounts",
          "type": "address[]"
        }
      ],
      "name": "addMinters",
      "outputs": [],
      "stateMutability": "nonpayable",
      "type": "function"
    },
    {
      "inputs": [
        {
          "internalType": "string",
          "name": "tld",
          "type": "string"
        }
      ],
      "name": "addTld",
      "outputs": [],
      "stateMutability": "nonpayable",
      "type": "function"
    },
    {
      "inputs": [
        {
          "internalType": "uint256[]",
          "name": "tokenIds",
          "type": "uint256[]"
        }
      ],
      "name": "areBlocked",
      "outputs": [
        {
          "internalType": "bool[]",
          "name": "values",
          "type": "bool[]"
        }
      ],
      "stateMutability": "view",
      "type": "function"
    },
    {
      "inputs": [
        {
          "internalType": "uint256",
          "name": "tokenId",
          "type": "uint256"
        }
      ],
      "name": "blocklist",
      "outputs": [],
      "stateMutability": "nonpayable",
      "type": "function"
    },
    {
      "inputs": [
        {
          "internalType": "uint256[]",
          "name": "tokenIds",
          "type": "uint256[]"
        }
      ],
      "name": "blocklistAll",
      "outputs": [],
      "stateMutability": "nonpayable",
      "type": "function"
    },
    {
      "inputs": [
        {
          "internalType": "uint256",
          "name": "tld",
          "type": "uint256"
        },
        {
          "internalType": "string",
          "name": "label",
          "type": "string"
        }
      ],
      "name": "claim",
      "outputs": [],
      "stateMutability": "nonpayable",
      "type": "function"
    },
    {
      "inputs": [
        {
          "internalType": "address",
          "name": "to",
          "type": "address"
        },
        {
          "internalType": "uint256",
          "name": "tld",
          "type": "uint256"
        },
        {
          "internalType": "string",
          "name": "label",
          "type": "string"
        }
      ],
      "name": "claimTo",
      "outputs": [],
      "stateMutability": "nonpayable",
      "type": "function"
    },
    {
      "inputs": [
        {
          "internalType": "address",
          "name": "to",
          "type": "address"
        },
        {
          "internalType": "uint256",
          "name": "tld",
          "type": "uint256"
        },
        {
          "internalType": "string",
          "name": "label",
          "type": "string"
        },
        {
          "internalType": "string[]",
          "name": "keys",
          "type": "string[]"
        },
        {
          "internalType": "string[]",
          "name": "values",
          "type": "string[]"
        }
      ],
      "name": "claimToWithRecords",
      "outputs": [],
      "stateMutability": "nonpayable",
      "type": "function"
    },
    {
      "inputs": [
        {
          "internalType": "address payable",
          "name": "receiver",
          "type": "address"
        }
      ],
      "name": "closeMinter",
      "outputs": [],
      "stateMutability": "payable",
      "type": "function"
    },
    {
      "inputs": [],
      "name": "cnsMintingController",
      "outputs": [
        {
          "internalType": "contract IMintingController",
          "name": "",
          "type": "address"
        }
      ],
      "stateMutability": "view",
      "type": "function"
    },
    {
      "inputs": [],
      "name": "cnsResolver",
      "outputs": [
        {
          "internalType": "contract IResolver",
          "name": "",
          "type": "address"
        }
      ],
      "stateMutability": "view",
      "type": "function"
    },
    {
      "inputs": [],
      "name": "cnsURIPrefixController",
      "outputs": [
        {
          "internalType": "contract IURIPrefixController",
          "name": "",
          "type": "address"
        }
      ],
      "stateMutability": "view",
      "type": "function"
    },
    {
      "inputs": [
        {
          "internalType": "uint256[]",
          "name": "tokenIds",
          "type": "uint256[]"
        }
      ],
      "name": "deprecateAll",
      "outputs": [],
      "stateMutability": "nonpayable",
      "type": "function"
    },
    {
      "inputs": [],
      "name": "disableBlocklist",
      "outputs": [],
      "stateMutability": "nonpayable",
      "type": "function"
    },
    {
      "inputs": [],
      "name": "enableBlocklist",
      "outputs": [],
      "stateMutability": "nonpayable",
      "type": "function"
    },
    {
      "inputs": [
        {
          "internalType": "bytes32",
          "name": "role",
          "type": "bytes32"
        }
      ],
      "name": "getRoleAdmin",
      "outputs": [
        {
          "internalType": "bytes32",
          "name": "",
          "type": "bytes32"
        }
      ],
      "stateMutability": "view",
      "type": "function"
    },
    {
      "inputs": [
        {
          "internalType": "bytes32",
          "name": "role",
          "type": "bytes32"
        },
        {
          "internalType": "address",
          "name": "account",
          "type": "address"
        }
      ],
      "name": "grantRole",
      "outputs": [],
      "stateMutability": "nonpayable",
      "type": "function"
    },
    {
      "inputs": [
        {
          "internalType": "bytes32",
          "name": "role",
          "type": "bytes32"
        },
        {
          "internalType": "address",
          "name": "account",
          "type": "address"
        }
      ],
      "name": "hasRole",
      "outputs": [
        {
          "internalType": "bool",
          "name": "",
          "type": "bool"
        }
      ],
      "stateMutability": "view",
      "type": "function"
    },
    {
      "inputs": [
        {
          "internalType": "contract IUNSRegistry",
          "name": "unsRegistry_",
          "type": "address"
        },
        {
          "internalType": "contract IMintingController",
          "name": "cnsMintingController_",
          "type": "address"
        },
        {
          "internalType": "contract IURIPrefixController",
          "name": "cnsURIPrefixController_",
          "type": "address"
        },
        {
          "internalType": "contract IResolver",
          "name": "cnsResolver_",
          "type": "address"
        },
        {
          "internalType": "address",
          "name": "forwarder",
          "type": "address"
        }
      ],
      "name": "initialize",
      "outputs": [],
      "stateMutability": "nonpayable",
      "type": "function"
    },
    {
      "inputs": [
        {
          "internalType": "uint256",
          "name": "tokenId",
          "type": "uint256"
        }
      ],
      "name": "isBlocked",
      "outputs": [
        {
          "internalType": "bool",
          "name": "",
          "type": "bool"
        }
      ],
      "stateMutability": "view",
      "type": "function"
    },
    {
      "inputs": [],
      "name": "isBlocklistDisabled",
      "outputs": [
        {
          "internalType": "bool",
          "name": "",
          "type": "bool"
        }
      ],
      "stateMutability": "view",
      "type": "function"
    },
    {
      "inputs": [
        {
          "internalType": "address",
          "name": "account",
          "type": "address"
        }
      ],
      "name": "isMinter",
      "outputs": [
        {
          "internalType": "bool",
          "name": "",
          "type": "bool"
        }
      ],
      "stateMutability": "view",
      "type": "function"
    },
    {
      "inputs": [
        {
          "internalType": "address",
          "name": "forwarder",
          "type": "address"
        }
      ],
      "name": "isTrustedForwarder",
      "outputs": [
        {
          "internalType": "bool",
          "name": "",
          "type": "bool"
        }
      ],
      "stateMutability": "view",
      "type": "function"
    },
    {
      "inputs": [
        {
          "internalType": "address",
          "name": "to",
          "type": "address"
        },
        {
          "internalType": "uint256",
          "name": "tld",
          "type": "uint256"
        },
        {
          "internalType": "string",
          "name": "label",
          "type": "string"
        }
      ],
      "name": "mintSLD",
      "outputs": [],
      "stateMutability": "nonpayable",
      "type": "function"
    },
    {
      "inputs": [
        {
          "internalType": "address",
          "name": "to",
          "type": "address"
        },
        {
          "internalType": "uint256",
          "name": "tld",
          "type": "uint256"
        },
        {
          "internalType": "string",
          "name": "label",
          "type": "string"
        },
        {
          "internalType": "string[]",
          "name": "keys",
          "type": "string[]"
        },
        {
          "internalType": "string[]",
          "name": "values",
          "type": "string[]"
        }
      ],
      "name": "mintSLDWithRecords",
      "outputs": [],
      "stateMutability": "nonpayable",
      "type": "function"
    },
    {
      "inputs": [],
      "name": "owner",
      "outputs": [
        {
          "internalType": "address",
          "name": "",
          "type": "address"
        }
      ],
      "stateMutability": "view",
      "type": "function"
    },
    {
      "inputs": [],
      "name": "pause",
      "outputs": [],
      "stateMutability": "nonpayable",
      "type": "function"
    },
    {
      "inputs": [],
      "name": "paused",
      "outputs": [
        {
          "internalType": "bool",
          "name": "",
          "type": "bool"
        }
      ],
      "stateMutability": "view",
      "type": "function"
    },
    {
      "inputs": [
        {
          "internalType": "address",
          "name": "account",
          "type": "address"
        }
      ],
      "name": "removeMinter",
      "outputs": [],
      "stateMutability": "nonpayable",
      "type": "function"
    },
    {
      "inputs": [
        {
          "internalType": "address[]",
          "name": "accounts",
          "type": "address[]"
        }
      ],
      "name": "removeMinters",
      "outputs": [],
      "stateMutability": "nonpayable",
      "type": "function"
    },
    {
      "inputs": [
        {
          "internalType": "uint256",
          "name": "tld",
          "type": "uint256"
        }
      ],
      "name": "removeTld",
      "outputs": [],
      "stateMutability": "nonpayable",
      "type": "function"
    },
    {
      "inputs": [],
      "name": "renounceMinter",
      "outputs": [],
      "stateMutability": "nonpayable",
      "type": "function"
    },
    {
      "inputs": [],
      "name": "renounceOwnership",
      "outputs": [],
      "stateMutability": "nonpayable",
      "type": "function"
    },
    {
      "inputs": [
        {
          "internalType": "bytes32",
          "name": "role",
          "type": "bytes32"
        },
        {
          "internalType": "address",
          "name": "account",
          "type": "address"
        }
      ],
      "name": "renounceRole",
      "outputs": [],
      "stateMutability": "nonpayable",
      "type": "function"
    },
    {
      "inputs": [
        {
          "internalType": "bytes32",
          "name": "role",
          "type": "bytes32"
        },
        {
          "internalType": "address",
          "name": "account",
          "type": "address"
        }
      ],
      "name": "revokeRole",
      "outputs": [],
      "stateMutability": "nonpayable",
      "type": "function"
    },
    {
      "inputs": [
        {
          "internalType": "address payable",
          "name": "receiver",
          "type": "address"
        }
      ],
      "name": "rotateMinter",
      "outputs": [],
      "stateMutability": "payable",
      "type": "function"
    },
    {
      "inputs": [
        {
          "internalType": "address",
          "name": "to",
          "type": "address"
        },
        {
          "internalType": "uint256",
          "name": "tld",
          "type": "uint256"
        },
        {
          "internalType": "string",
          "name": "label",
          "type": "string"
        }
      ],
      "name": "safeMintSLD",
      "outputs": [],
      "stateMutability": "nonpayable",
      "type": "function"
    },
    {
      "inputs": [
        {
          "internalType": "address",
          "name": "to",
          "type": "address"
        },
        {
          "internalType": "uint256",
          "name": "tld",
          "type": "uint256"
        },
        {
          "internalType": "string",
          "name": "label",
          "type": "string"
        },
        {
          "internalType": "bytes",
          "name": "data",
          "type": "bytes"
        }
      ],
      "name": "safeMintSLD",
      "outputs": [],
      "stateMutability": "nonpayable",
      "type": "function"
    },
    {
      "inputs": [
        {
          "internalType": "address",
          "name": "to",
          "type": "address"
        },
        {
          "internalType": "uint256",
          "name": "tld",
          "type": "uint256"
        },
        {
          "internalType": "string",
          "name": "label",
          "type": "string"
        },
        {
          "internalType": "string[]",
          "name": "keys",
          "type": "string[]"
        },
        {
          "internalType": "string[]",
          "name": "values",
          "type": "string[]"
        }
      ],
      "name": "safeMintSLDWithRecords",
      "outputs": [],
      "stateMutability": "nonpayable",
      "type": "function"
    },
    {
      "inputs": [
        {
          "internalType": "address",
          "name": "to",
          "type": "address"
        },
        {
          "internalType": "uint256",
          "name": "tld",
          "type": "uint256"
        },
        {
          "internalType": "string",
          "name": "label",
          "type": "string"
        },
        {
          "internalType": "string[]",
          "name": "keys",
          "type": "string[]"
        },
        {
          "internalType": "string[]",
          "name": "values",
          "type": "string[]"
        },
        {
          "internalType": "bytes",
          "name": "data",
          "type": "bytes"
        }
      ],
      "name": "safeMintSLDWithRecords",
      "outputs": [],
      "stateMutability": "nonpayable",
      "type": "function"
    },
    {
      "inputs": [
        {
          "internalType": "address",
          "name": "forwarder",
          "type": "address"
        }
      ],
      "name": "setForwarder",
      "outputs": [],
      "stateMutability": "nonpayable",
      "type": "function"
    },
    {
      "inputs": [
        {
          "internalType": "address",
          "name": "resolver",
          "type": "address"
        }
      ],
      "name": "setResolver",
      "outputs": [],
      "stateMutability": "nonpayable",
      "type": "function"
    },
    {
      "inputs": [
        {
          "internalType": "string",
          "name": "prefix",
          "type": "string"
        }
      ],
      "name": "setTokenURIPrefix",
      "outputs": [],
      "stateMutability": "nonpayable",
      "type": "function"
    },
    {
      "inputs": [
        {
          "internalType": "bytes4",
          "name": "interfaceId",
          "type": "bytes4"
        }
      ],
      "name": "supportsInterface",
      "outputs": [
        {
          "internalType": "bool",
          "name": "",
          "type": "bool"
        }
      ],
      "stateMutability": "view",
      "type": "function"
    },
    {
      "inputs": [
        {
          "internalType": "address",
          "name": "newOwner",
          "type": "address"
        }
      ],
      "name": "transferOwnership",
      "outputs": [],
      "stateMutability": "nonpayable",
      "type": "function"
    },
    {
      "inputs": [],
      "name": "unpause",
      "outputs": [],
      "stateMutability": "nonpayable",
      "type": "function"
    },
    {
      "inputs": [],
      "name": "unsRegistry",
      "outputs": [
        {
          "internalType": "contract IUNSRegistry",
          "name": "",
          "type": "address"
        }
      ],
      "stateMutability": "view",
      "type": "function"
    }
  ],
  "bytecode": "0x608060405234801561001057600080fd5b50614169806100206000396000f3fe6080604052600436106102ff5760003560e01c806371e2a65711610190578063aa271e1a116100dc578063ceeb4f5011610095578063e47d6cc61161006f578063e47d6cc61461093c578063ec5273891461095c578063f2fde38b1461097c578063ffa1ad741461099c57600080fd5b8063ceeb4f50146108da578063d5391393146108fa578063d547741f1461091c57600080fd5b8063aa271e1a1461081a578063ae2ad9031461083a578063b0aa98c71461085a578063b9998a241461087a578063c3a3bc001461089a578063cc2c3fc4146108ba57600080fd5b806391d148541161014957806399e0dd7c1161012357806399e0dd7c14610778578063a217fddf14610798578063a3f4df7e146107ad578063a849d65c146107fa57600080fd5b806391d1485414610723578063983b2d5614610743578063986502751461076357600080fd5b806371e2a6571461068857806381c81d35146106a85780638456cb59146106bb5780638da5cb5b146106d0578063906cecc1146106ee57806390dbdb5a1461070e57600080fd5b80633f4ba83a1161024f57806358839d6b116102085780635fc1964f116101e25780635fc1964f14610620578063634486da146106405780636a2d225614610653578063715018a61461067357600080fd5b806358839d6b146105cb5780635b6fa8db146105eb5780635c975abb1461060b57600080fd5b80633f4ba83a146104e8578063463c4bcb146104fd5780634c1819e01461051d5780634e543b261461053d5780634f76ae3c1461055d578063572b6c051461057d57600080fd5b806327bbd225116102bc5780633092afd5116102965780633092afd51461045057806336568abe1461047057806339ccf4d0146104905780633f41b614146104b057600080fd5b806327bbd225146103fb5780632eff1a951461041b5780632f2ff15d1461043057600080fd5b806301ffc9a7146103045780630e36a87d1461033957806310921f12146103665780631459457a1461037b578063248a9ca31461039d578063268b15ed146103db575b600080fd5b34801561031057600080fd5b5061032461031f3660046137df565b6109cd565b60405190151581526020015b60405180910390f35b34801561034557600080fd5b50610359610354366004613739565b610a04565b6040516103309190613d2f565b34801561037257600080fd5b50610324610adb565b34801561038757600080fd5b5061039b610396366004613807565b610af6565b005b3480156103a957600080fd5b506103cd6103b8366004613798565b60009081526097602052604090206001015490565b604051908152602001610330565b3480156103e757600080fd5b5061039b6103f63660046138aa565b610e29565b34801561040757600080fd5b5061039b61041636600461345f565b610f2b565b34801561042757600080fd5b5061039b61108f565b34801561043c57600080fd5b5061039b61044b3660046137b0565b6110a1565b34801561045c57600080fd5b5061039b61046b3660046133ea565b6110cb565b34801561047c57600080fd5b5061039b61048b3660046137b0565b6110df565b34801561049c57600080fd5b5061039b6104ab36600461345f565b61116d565b3480156104bc57600080fd5b5060c9546104d0906001600160a01b031681565b6040516001600160a01b039091168152602001610330565b3480156104f457600080fd5b5061039b6112b6565b34801561050957600080fd5b5061039b610518366004613798565b6112c6565b34801561052957600080fd5b5061039b610538366004613406565b6112f6565b34801561054957600080fd5b5061039b6105583660046133ea565b61141d565b34801561056957600080fd5b5061039b610578366004613739565b611447565b34801561058957600080fd5b506103246105983660046133ea565b7f893ef2ea16c023f61d4f55d3e6ee3fc3f2fbfd478461323dbc2fbf919047086e546001600160a01b0390811691161490565b3480156105d757600080fd5b5061039b6105e63660046135eb565b6114af565b3480156105f757600080fd5b5060cc546104d0906001600160a01b031681565b34801561061757600080fd5b506103246115ff565b34801561062c57600080fd5b5061039b61063b366004613673565b611615565b61039b61064e3660046133ea565b61166b565b34801561065f57600080fd5b5061039b61066e366004613510565b61172e565b34801561067f57600080fd5b5061039b6118c9565b34801561069457600080fd5b5061039b6106a3366004613673565b6118db565b61039b6106b63660046133ea565b611931565b3480156106c757600080fd5b5061039b6119ae565b3480156106dc57600080fd5b506033546001600160a01b03166104d0565b3480156106fa57600080fd5b5061039b610709366004613406565b6119be565b34801561071a57600080fd5b5061039b611aa8565b34801561072f57600080fd5b5061032461073e3660046137b0565b611ab8565b34801561074f57600080fd5b5061039b61075e3660046133ea565b611ae3565b34801561076f57600080fd5b5061039b611af4565b34801561078457600080fd5b5061039b610793366004613877565b611b0e565b3480156107a457600080fd5b506103cd600081565b3480156107b957600080fd5b506107ed604051806040016040528060148152602001732aa7299d1026b4b73a34b7339026b0b730b3b2b960611b81525081565b6040516103309190613e05565b34801561080657600080fd5b5060cb546104d0906001600160a01b031681565b34801561082657600080fd5b506103246108353660046133ea565b611bbf565b34801561084657600080fd5b5061039b610855366004613406565b611bd9565b34801561086657600080fd5b50610324610875366004613798565b611d1c565b34801561088657600080fd5b5061039b6108953660046133ea565b611d89565b3480156108a657600080fd5b5061039b6108b5366004613877565b611dce565b3480156108c657600080fd5b5060ca546104d0906001600160a01b031681565b3480156108e657600080fd5b5061039b6108f536600461345f565b611e15565b34801561090657600080fd5b506103cd60008051602061413d83398151915281565b34801561092857600080fd5b5061039b6109373660046137b0565b611f08565b34801561094857600080fd5b5061039b610957366004613739565b611f2d565b34801561096857600080fd5b5061039b610977366004613798565b611f5e565b34801561098857600080fd5b5061039b6109973660046133ea565b611fec565b3480156109a857600080fd5b506107ed604051806040016040528060058152602001640c0b8ccb8d60da1b81525081565b60006001600160e01b03198216637965db0b60e01b14806109fe57506301ffc9a760e01b6001600160e01b03198316145b92915050565b6060816001600160401b03811115610a2c57634e487b7160e01b600052604160045260246000fd5b604051908082528060200260200182016040528015610a55578160200160208202803683370190505b50905060005b82811015610ad457610a92848483818110610a8657634e487b7160e01b600052603260045260246000fd5b90506020020135611d1c565b828281518110610ab257634e487b7160e01b600052603260045260246000fd5b9115156020928302919091019091015280610acc81614080565b915050610a5b565b5092915050565b60006000805160206140fd8339815191525b5460ff16919050565b600054610100900460ff1615808015610b165750600054600160ff909116105b80610b305750303b158015610b30575060005460ff166001145b610b985760405162461bcd60e51b815260206004820152602e60248201527f496e697469616c697a61626c653a20636f6e747261637420697320616c72656160448201526d191e481a5b9a5d1a585b1a5e995960921b60648201526084015b60405180910390fd5b6000805460ff191660011790558015610bbb576000805461ff0019166101001790555b60c980546001600160a01b038089166001600160a01b03199283161790925560ca805488841690831617905560cb805487841690831617905560cc805492861692909116919091179055610c0d612008565b610c1561203f565b610c1e82612078565b610c2661209f565b610c2e6120e9565b604080516101a081018252600661016082018181526563727970746f60d01b610180840152825282518084018452908152651dd85b1b195d60d21b602082810191909152808301919091528251808401845260018152600f60fb1b8183015282840152825180840184526003808252621b999d60ea1b82840152606084019190915283518085018552600a815269313637b1b5b1b430b4b760b11b818401526080840152835180850185526007808252663134ba31b7b4b760c91b8285015260a0850191909152845180860186528281526207070760eb1b8185015260c0850152845180860186528281526264616f60e81b8185015260e085015284518086018652918252621e9a5b60ea1b8284015261010084019190915283518085018552908152663837b63cb3b7b760c91b818301526101208301528251808401909352600b83526a756e73746f707061626c6560a81b9083015261014081019190915260005b600b811015610dd957610dc78282600b8110610dbd57634e487b7160e01b600052603260045260246000fd5b6020020151612126565b80610dd181614080565b915050610d91565b50508015610e21576000805461ff0019169055604051600181527f7f26b83ff96e1f2b6a682f133852f6798a09c465da95921460cefb38474024989060200160405180910390a15b505050505050565b8282828080601f016020809104026020016040519081016040528093929190818152602001838380828437600092019190915250610e6c92508491506122469050565b610e885760405162461bcd60e51b8152600401610b8f90613f3e565b6000610e938261226c565b9050600a81600001511115610eeb57610ebe610eb2826000600a612299565b80516020909101512090565b60008051602061411d8339815191521415610eeb5760405162461bcd60e51b8152600401610b8f90613e99565b610ef36115ff565b15610f105760405162461bcd60e51b8152600401610b8f90613f14565b610e21610f1b6122d8565b87610f2688886122e7565b612313565b610f366108356122d8565b610f525760405162461bcd60e51b8152600401610b8f90613edf565b8686868080601f016020809104026020016040519081016040528093929190818152602001838380828437600092019190915250610f9592508491506122469050565b610fb15760405162461bcd60e51b8152600401610b8f90613f3e565b6000610fbc8261226c565b9050600a8160000151111561100857610fdb610eb2826000600a612299565b60008051602061411d83398151915214156110085760405162461bcd60e51b8152600401610b8f90613e99565b6110106115ff565b1561102d5760405162461bcd60e51b8152600401610b8f90613f14565b6110828b8b8b8b8080601f016020809104026020016040519081016040528093929190818152602001838380828437600092018290525060408051602081019091529081528e93508d92508c91508b9061241a565b5050505050505050505050565b611097612595565b61109f61260e565b565b6000828152609760205260409020600101546110bc816126b9565b6110c683836126ca565b505050565b6110d3612595565b6110dc81612751565b50565b6110e76122d8565b6001600160a01b0316816001600160a01b03161461115f5760405162461bcd60e51b815260206004820152602f60248201527f416363657373436f6e74726f6c3a2063616e206f6e6c792072656e6f756e636560448201526e103937b632b9903337b91039b2b63360891b6064820152608401610b8f565b6111698282612769565b5050565b6111786108356122d8565b6111945760405162461bcd60e51b8152600401610b8f90613edf565b8686868080601f0160208091040260200160405190810160405280939291908181526020018383808284376000920191909152506111d792508491506122469050565b6111f35760405162461bcd60e51b8152600401610b8f90613f3e565b60006111fe8261226c565b9050600a8160000151111561124a5761121d610eb2826000600a612299565b60008051602061411d833981519152141561124a5760405162461bcd60e51b8152600401610b8f90613e99565b6112526115ff565b1561126f5760405162461bcd60e51b8152600401610b8f90613f14565b6110828b8b8b8b8080601f0160208091040260200160405190810160405280939291908181526020018383808284376000920191909152508d92508c91508b90508a6127ee565b6112be612595565b61109f612973565b6112d16108356122d8565b6112ed5760405162461bcd60e51b8152600401610b8f90613edf565b6110dc816129fe565b6113016108356122d8565b61131d5760405162461bcd60e51b8152600401610b8f90613edf565b8282828080601f01602080910402602001604051908101604052809392919081815260200183838082843760009201919091525061136092508491506122469050565b61137c5760405162461bcd60e51b8152600401610b8f90613f3e565b60006113878261226c565b9050600a816000015111156113d3576113a6610eb2826000600a612299565b60008051602061411d83398151915214156113d35760405162461bcd60e51b8152600401610b8f90613e99565b6113db6115ff565b156113f85760405162461bcd60e51b8152600401610b8f90613f14565b6114148787878760405180602001604052806000815250612acd565b50505050505050565b611425612595565b60cc80546001600160a01b0319166001600160a01b0392909216919091179055565b61144f612595565b60c9546040516313ddab8f60e21b81526001600160a01b0390911690634f76ae3c906114819085908590600401613daf565b600060405180830381600087803b15801561149b57600080fd5b505af1158015610e21573d6000803e3d6000fd5b6114ba6108356122d8565b6114d65760405162461bcd60e51b8152600401610b8f90613edf565b8484848080601f01602080910402602001604051908101604052809392919081815260200183838082843760009201919091525061151992508491506122469050565b6115355760405162461bcd60e51b8152600401610b8f90613f3e565b60006115408261226c565b9050600a8160000151111561158c5761155f610eb2826000600a612299565b60008051602061411d833981519152141561158c5760405162461bcd60e51b8152600401610b8f90613e99565b6115946115ff565b156115b15760405162461bcd60e51b8152600401610b8f90613f14565b6115f48989898989898080601f016020809104026020016040519081016040528093929190818152602001838380828437600092019190915250612acd92505050565b505050505050505050565b60006000805160206140dd833981519152610aed565b61161d612595565b60005b81518110156111695761165982828151811061164c57634e487b7160e01b600052603260045260246000fd5b6020026020010151612751565b8061166381614080565b915050611620565b6116766108356122d8565b6116925760405162461bcd60e51b8152600401610b8f90613edf565b6001600160a01b0381166116e85760405162461bcd60e51b815260206004820152601d60248201527f4d696e746572526f6c653a2052454345495645525f49535f454d5054590000006044820152606401610b8f565b6116f181612c4d565b6116f9611af4565b6040516001600160a01b038216903480156108fc02916000818181858888f19350505050158015611169573d6000803e3d6000fd5b6117396108356122d8565b6117555760405162461bcd60e51b8152600401610b8f90613edf565b8888888080601f01602080910402602001604051908101604052809392919081815260200183838082843760009201919091525061179892508491506122469050565b6117b45760405162461bcd60e51b8152600401610b8f90613f3e565b60006117bf8261226c565b9050600a8160000151111561180b576117de610eb2826000600a612299565b60008051602061411d833981519152141561180b5760405162461bcd60e51b8152600401610b8f90613e99565b6118136115ff565b156118305760405162461bcd60e51b8152600401610b8f90613f14565b6118ba8d8d8d8d8080601f016020809104026020016040519081016040528093929190818152602001838380828437600081840152601f19601f820116905080830192505050505050508c8c8c8c8c8c8080601f01602080910402602001604051908101604052809392919081815260200183838082843760009201919091525061241a92505050565b50505050505050505050505050565b6118d1612595565b61109f6000612c65565b6118e3612595565b60005b81518110156111695761191f82828151811061191257634e487b7160e01b600052603260045260246000fd5b6020026020010151612c4d565b8061192981614080565b9150506118e6565b61193c6108356122d8565b6119585760405162461bcd60e51b8152600401610b8f90613edf565b6001600160a01b0381166116f15760405162461bcd60e51b815260206004820152601d60248201527f4d696e746572526f6c653a2052454345495645525f49535f454d5054590000006044820152606401610b8f565b6119b6612595565b61109f612cb7565b8282828080601f016020809104026020016040519081016040528093929190818152602001838380828437600092019190915250611a0192508491506122469050565b611a1d5760405162461bcd60e51b8152600401610b8f90613f3e565b6000611a288261226c565b9050600a81600001511115611a7457611a47610eb2826000600a612299565b60008051602061411d8339815191521415611a745760405162461bcd60e51b8152600401610b8f90613e99565b611a7c6115ff565b15611a995760405162461bcd60e51b8152600401610b8f90613f14565b6114148787610f2688886122e7565b611ab0612595565b61109f612d1f565b60009182526097602090815260408084206001600160a01b0393909316845291905290205460ff1690565b611aeb612595565b6110dc81612c4d565b61109f60008051602061413d83398151915261048b6122d8565b611b16612595565b60c954604051632678375f60e21b81526001600160a01b03909116906399e0dd7c90611b489085908590600401613de9565b600060405180830381600087803b158015611b6257600080fd5b505af1158015611b76573d6000803e3d6000fd5b505060cb546001600160a01b031615915061116990505760cb54604051632678375f60e21b81526001600160a01b03909116906399e0dd7c906114819085908590600401613de9565b60006109fe60008051602061413d83398151915283611ab8565b611be46108356122d8565b611c005760405162461bcd60e51b8152600401610b8f90613edf565b8282828080601f016020809104026020016040519081016040528093929190818152602001838380828437600092019190915250611c4392508491506122469050565b611c5f5760405162461bcd60e51b8152600401610b8f90613f3e565b6000611c6a8261226c565b9050600a81600001511115611cb657611c89610eb2826000600a612299565b60008051602061411d8339815191521415611cb65760405162461bcd60e51b8152600401610b8f90613e99565b611cbe6115ff565b15611cdb5760405162461bcd60e51b8152600401610b8f90613f14565b611414878787878080601f01602080910402602001604051908101604052809392919081815260200183838082843760009201919091525061231392505050565b6000611d26610adb565b1580156109fe5750604080517f1ec047073e2c8b15660901dbfdb6e3ff6365bd699dd9f95dcc6eab5448bebd696020820152908101839052611d7f906060015b6040516020818303038152906040528051906020012090565b5460ff1692915050565b611d91612595565b7f893ef2ea16c023f61d4f55d3e6ee3fc3f2fbfd478461323dbc2fbf919047086e80546001600160a01b0319166001600160a01b03831617905550565b611dd6612595565b61116982828080601f01602080910402602001604051908101604052809392919081815260200183838082843760009201919091525061212692505050565b8686868080601f016020809104026020016040519081016040528093929190818152602001838380828437600092019190915250611e5892508491506122469050565b611e745760405162461bcd60e51b8152600401610b8f90613f3e565b6000611e7f8261226c565b9050600a81600001511115611ecb57611e9e610eb2826000600a612299565b60008051602061411d8339815191521415611ecb5760405162461bcd60e51b8152600401610b8f90613e99565b611ed36115ff565b15611ef05760405162461bcd60e51b8152600401610b8f90613f14565b6110828b8b611eff8c8c6122e7565b8a8a8a8a6127ee565b600082815260976020526040902060010154611f23816126b9565b6110c68383612769565b611f386108356122d8565b611f545760405162461bcd60e51b8152600401610b8f90613edf565b6111698282612da8565b611f66612595565b611f6f81612246565b611f8b5760405162461bcd60e51b8152600401610b8f90613f3e565b807ffc5c8945ae90ac0d332d5f2099538d13d0ff7cc61e20635b95676c6fba08473060cd6000848152602001908152602001600020604051611fcd9190613e18565b60405180910390a2600081815260cd602052604081206110dc9161327f565b611ff4612595565b611ffd81612df4565b6110dc600082612e6a565b600054610100900460ff1661202f5760405162461bcd60e51b8152600401610b8f90613f80565b61109f61203a6122d8565b612c65565b600054610100900460ff166120665760405162461bcd60e51b8152600401610b8f90613f80565b61109f60006120736122d8565b612e6a565b600054610100900460ff16611d915760405162461bcd60e51b8152600401610b8f90613f80565b600054610100900460ff166120c65760405162461bcd60e51b8152600401610b8f90613f80565b60006000805160206140fd8339815191525b805460ff1916911515919091179055565b600054610100900460ff166121105760405162461bcd60e51b8152600401610b8f90613f80565b60006000805160206140dd8339815191526120d8565b6000612133600083612e74565b600081815260cd6020908152604090912084519293506121579290918501906132b9565b50807f4fce6f6e172b04eaa80325d8e3b0180a34945000f3e214605039e8420fdf8980836040516121889190613e05565b60405180910390a260c954604051634f558e7960e01b8152600481018390526001600160a01b0390911690634f558e799060240160206040518083038186803b1580156121d457600080fd5b505afa1580156121e8573d6000803e3d6000fd5b505050506040513d601f19601f8201168201806040525081019061220c9190613778565b6111695760c9546040516334ff261960e21b81526001600160a01b039091169063d3fc9864906114819061dead9085908790600401613bec565b600081815260cd60205260408120805482919061226290614045565b9050119050919050565b60408051808201825260008082526020918201528151808301909252825182529182019181019190915290565b604080518082019091526000808252602082015260405180604001604052808381526020018486602001516122ce9190613fcb565b9052949350505050565b60006122e2612f29565b905090565b606082826040516020016122fc929190613a88565b604051602081830303815290604052905092915050565b600061231f8383612e74565b905061232a81612f70565b61233383612fd2565b156123a65760ca5460cc5460405163c36c212560e01b81526001600160a01b039283169263c36c21259261236f92899288921690600401613b6f565b600060405180830381600087803b15801561238957600080fd5b505af115801561239d573d6000803e3d6000fd5b50505050612414565b60c9546001600160a01b031663d3fc986485836123c38787613010565b6040518463ffffffff1660e01b81526004016123e193929190613bec565b600060405180830381600087803b1580156123fb57600080fd5b505af115801561240f573d6000803e3d6000fd5b505050505b50505050565b60006124268888612e74565b905061243181612f70565b61243a88612fd2565b156125225760ca5460cc54604051630f95e75b60e31b81526001600160a01b0392831692637caf3ad892612478928e928d9216908890600401613ba4565b600060405180830381600087803b15801561249257600080fd5b505af11580156124a6573d6000803e3d6000fd5b50508615915061251d90505760cc54604051633a0deb9d60e21b81526001600160a01b039091169063e837ae74906124ea9089908990899089908890600401613d75565b600060405180830381600087803b15801561250457600080fd5b505af1158015612518573d6000803e3d6000fd5b505050505b6115f4565b60c9546001600160a01b031663efda4d3e8a8361253f8c8c613010565b8a8a8a8a8a6040518963ffffffff1660e01b8152600401612567989796959493929190613c79565b600060405180830381600087803b15801561258157600080fd5b505af11580156118ba573d6000803e3d6000fd5b61259d6122d8565b6001600160a01b03166125b86033546001600160a01b031690565b6001600160a01b03161461109f5760405162461bcd60e51b815260206004820181905260248201527f4f776e61626c653a2063616c6c6572206973206e6f7420746865206f776e65726044820152606401610b8f565b612616610adb565b156126595760405162461bcd60e51b8152602060048201526013602482015272109b1bd8dadb1a5cdd0e88111254d050931151606a1b6044820152606401610b8f565b6000805160206140fd833981519152805460ff191660011790557f079c4efaefd9fc7ddb28144b9b0140c03f42922d28d0e226369d60709215816661269c6122d8565b6040516001600160a01b03909116815260200160405180910390a1565b6110dc816126c56122d8565b613033565b6126d48282611ab8565b6111695760008281526097602090815260408083206001600160a01b03851684529091529020805460ff1916600117905561270d6122d8565b6001600160a01b0316816001600160a01b0316837f2f8788117e7eff1d82e926ec794901d17c78024a50270940304540a733656f0d60405160405180910390a45050565b6110dc60008051602061413d83398151915282611f08565b6127738282611ab8565b156111695760008281526097602090815260408083206001600160a01b03851684529091529020805460ff191690556127aa6122d8565b6001600160a01b0316816001600160a01b0316837ff6391f5c32d9c69d2a47ea670b442974b53935d1edc7fd64eb21e047a839171b60405160405180910390a45050565b60006127fa8787612e74565b905061280581612f70565b61280e87612fd2565b156128f45760ca5460cc5460405163c36c212560e01b81526001600160a01b039283169263c36c21259261284a928d928c921690600401613b6f565b600060405180830381600087803b15801561286457600080fd5b505af1158015612878573d6000803e3d6000fd5b5050851591506128ef90505760cc54604051633a0deb9d60e21b81526001600160a01b039091169063e837ae74906128bc9088908890889088908890600401613d75565b600060405180830381600087803b1580156128d657600080fd5b505af11580156128ea573d6000803e3d6000fd5b505050505b61240f565b60c9546001600160a01b031663b0f5917789836129118b8b613010565b898989896040518863ffffffff1660e01b81526004016129379796959493929190613c1c565b600060405180830381600087803b15801561295157600080fd5b505af1158015612965573d6000803e3d6000fd5b505050505050505050505050565b61297b6115ff565b6129be5760405162461bcd60e51b815260206004820152601460248201527314185d5cd8589b194e881393d517d4105554d15160621b6044820152606401610b8f565b6000805160206140dd833981519152805460ff191690557f5db9ee0a495bf2e6ff9c91a7834c1ba4fdd244a5e8aa4e537bd38aeae4b073aa61269c6122d8565b612a06610adb565b15612a495760405162461bcd60e51b8152602060048201526013602482015272109b1bd8dadb1a5cdd0e88111254d050931151606a1b6044820152606401610b8f565b604080517f1ec047073e2c8b15660901dbfdb6e3ff6365bd699dd9f95dcc6eab5448bebd696020820152908101829052600190612a8890606001611d66565b805460ff19169115159190911790556040518181527f2ce5d9351b1d590d5a066db0d2dc7602d55f092506a83a7ee8c4d78ee357d75a9060200160405180910390a150565b6000612b0f8585858080601f016020809104026020016040519081016040528093929190818152602001838380828437600092019190915250612e7492505050565b9050612b1a81612f70565b612b2385612fd2565b15612b9b5760ca5460cc54604051630f95e75b60e31b81526001600160a01b0392831692637caf3ad892612b64928b928a928a929116908990600401613b25565b600060405180830381600087803b158015612b7e57600080fd5b505af1158015612b92573d6000803e3d6000fd5b50505050610e21565b60c954604080516020601f87018190048102820181019092528581526001600160a01b039092169163b55bc6179189918591612bf3918b918b908b908190840183828082843760009201919091525061301092505050565b866040518563ffffffff1660e01b8152600401612c139493929190613ceb565b600060405180830381600087803b158015612c2d57600080fd5b505af1158015612c41573d6000803e3d6000fd5b50505050505050505050565b6110dc60008051602061413d83398151915282612e6a565b603380546001600160a01b038381166001600160a01b0319831681179093556040519116919082907f8be0079c531659141344cd1fd0a4f28419497f9722a3daafe3b4186f6b6457e090600090a35050565b612cbf6115ff565b15612cdc5760405162461bcd60e51b8152600401610b8f90613f14565b6000805160206140dd833981519152805460ff191660011790557f62e78cea01bee320cd4e420270b5ea74000d11b0c9f74754ebdbfc544b05a25861269c6122d8565b612d27610adb565b612d685760405162461bcd60e51b8152602060048201526012602482015271109b1bd8dadb1a5cdd0e881153905093115160721b6044820152606401610b8f565b6000805160206140fd833981519152805460ff191690557f316c4cec74b9568f102eda30781a2fe8cd5172329bf1401e804cb8c5131715c461269c6122d8565b60005b818110156110c657612de2838383818110612dd657634e487b7160e01b600052603260045260246000fd5b905060200201356129fe565b80612dec81614080565b915050612dab565b612dfc612595565b6001600160a01b038116612e615760405162461bcd60e51b815260206004820152602660248201527f4f776e61626c653a206e6577206f776e657220697320746865207a65726f206160448201526564647265737360d01b6064820152608401610b8f565b6110dc81612c65565b61116982826126ca565b6000815160001415612ec85760405162461bcd60e51b815260206004820152601b60248201527f4d696e74696e674d616e616765723a204c4142454c5f454d50545900000000006044820152606401610b8f565b8282604051602001612eda91906139d8565b60405160208183030381529060405280519060200120604051602001612f0a929190918252602082015260400190565b60408051601f1981840301815291905280516020909101209392505050565b7f893ef2ea16c023f61d4f55d3e6ee3fc3f2fbfd478461323dbc2fbf919047086e546000906001600160a01b0316331415612f6b575060331936013560601c90565b503390565b612f78610adb565b6110dc57612f8581611d1c565b156112ed5760405162461bcd60e51b815260206004820152601d60248201527f4d696e74696e674d616e616765723a20544f4b454e5f424c4f434b45440000006044820152606401610b8f565b60ca546000906001600160a01b0316158015906109fe5750507f0f4a10a4f46c288cea365fcf45cccf0e9d901b945b9829ccdb54c10dc3cb7a6f1490565b600082815260cd602090815260409182902091516060926122fc928592016139f4565b61303d8282611ab8565b61116957613055816001600160a01b03166014613097565b613060836020613097565b604051602001613071929190613ab0565b60408051601f198184030181529082905262461bcd60e51b8252610b8f91600401613e05565b606060006130a6836002613fe3565b6130b1906002613fcb565b6001600160401b038111156130d657634e487b7160e01b600052604160045260246000fd5b6040519080825280601f01601f191660200182016040528015613100576020820181803683370190505b509050600360fc1b8160008151811061312957634e487b7160e01b600052603260045260246000fd5b60200101906001600160f81b031916908160001a905350600f60fb1b8160018151811061316657634e487b7160e01b600052603260045260246000fd5b60200101906001600160f81b031916908160001a905350600061318a846002613fe3565b613195906001613fcb565b90505b6001811115613229576f181899199a1a9b1b9c1cb0b131b232b360811b85600f16601081106131d757634e487b7160e01b600052603260045260246000fd5b1a60f81b8282815181106131fb57634e487b7160e01b600052603260045260246000fd5b60200101906001600160f81b031916908160001a90535060049490941c936132228161402e565b9050613198565b5083156132785760405162461bcd60e51b815260206004820181905260248201527f537472696e67733a20686578206c656e67746820696e73756666696369656e746044820152606401610b8f565b9392505050565b50805461328b90614045565b6000825580601f1061329b575050565b601f0160209004906000526020600020908101906110dc919061333d565b8280546132c590614045565b90600052602060002090601f0160209004810192826132e7576000855561332d565b82601f1061330057805160ff191683800117855561332d565b8280016001018555821561332d579182015b8281111561332d578251825591602001919060010190613312565b5061333992915061333d565b5090565b5b80821115613339576000815560010161333e565b803561335d816140c7565b919050565b60008083601f840112613373578182fd5b5081356001600160401b03811115613389578182fd5b6020830191508360208260051b85010111156133a457600080fd5b9250929050565b60008083601f8401126133bc578182fd5b5081356001600160401b038111156133d2578182fd5b6020830191508360208285010111156133a457600080fd5b6000602082840312156133fb578081fd5b8135613278816140c7565b6000806000806060858703121561341b578283fd5b8435613426816140c7565b93506020850135925060408501356001600160401b03811115613447578283fd5b613453878288016133ab565b95989497509550505050565b60008060008060008060008060a0898b03121561347a578384fd5b8835613485816140c7565b97506020890135965060408901356001600160401b03808211156134a7578586fd5b6134b38c838d016133ab565b909850965060608b01359150808211156134cb578586fd5b6134d78c838d01613362565b909650945060808b01359150808211156134ef578384fd5b506134fc8b828c01613362565b999c989b5096995094979396929594505050565b60008060008060008060008060008060c08b8d03121561352e578182fd5b6135378b613352565b995060208b0135985060408b01356001600160401b0380821115613559578384fd5b6135658e838f016133ab565b909a50985060608d013591508082111561357d578384fd5b6135898e838f01613362565b909850965060808d01359150808211156135a1578384fd5b6135ad8e838f01613362565b909650945060a08d01359150808211156135c5578384fd5b506135d28d828e016133ab565b915080935050809150509295989b9194979a5092959850565b60008060008060008060808789031215613603578182fd5b863561360e816140c7565b95506020870135945060408701356001600160401b0380821115613630578384fd5b61363c8a838b016133ab565b90965094506060890135915080821115613654578384fd5b5061366189828a016133ab565b979a9699509497509295939492505050565b60006020808385031215613685578182fd5b82356001600160401b038082111561369b578384fd5b818501915085601f8301126136ae578384fd5b8135818111156136c0576136c06140b1565b8060051b604051601f19603f830116810181811085821117156136e5576136e56140b1565b604052828152858101935084860182860187018a1015613703578788fd5b8795505b8386101561372c5761371881613352565b855260019590950194938601938601613707565b5098975050505050505050565b6000806020838503121561374b578182fd5b82356001600160401b03811115613760578283fd5b61376c85828601613362565b90969095509350505050565b600060208284031215613789578081fd5b81518015158114613278578182fd5b6000602082840312156137a9578081fd5b5035919050565b600080604083850312156137c2578182fd5b8235915060208301356137d4816140c7565b809150509250929050565b6000602082840312156137f0578081fd5b81356001600160e01b031981168114613278578182fd5b600080600080600060a0868803121561381e578283fd5b8535613829816140c7565b94506020860135613839816140c7565b93506040860135613849816140c7565b92506060860135613859816140c7565b91506080860135613869816140c7565b809150509295509295909350565b60008060208385031215613889578182fd5b82356001600160401b0381111561389e578283fd5b61376c858286016133ab565b6000806000604084860312156138be578081fd5b8335925060208401356001600160401b038111156138da578182fd5b6138e6868287016133ab565b9497909650939450505050565b60008383855260208086019550808560051b83010184845b8781101561397657848303601f19018952813536889003601e19018112613930578687fd5b870180356001600160401b03811115613947578788fd5b803603891315613955578788fd5b61396285828885016139af565b9a86019a945050509083019060010161390b565b5090979650505050505050565b6000815180845261399b816020860160208601614002565b601f01601f19169290920160200192915050565b81835281816020850137506000828201602090810191909152601f909101601f19169091010190565b600082516139ea818460208701614002565b9190910192915050565b600083516020613a078285838901614002565b8184019150601760f91b82526001838654613a2181614045565b8184168015613a375760018114613a4c57613a79565b60ff1983168786015281870185019350613a79565b898852858820885b83811015613a6f578154898201880152908601908701613a54565b5050848288010193505b50919998505050505050505050565b6b756e732d646576746573742d60a01b81528183600c83013760009101600c01908152919050565b7f416363657373436f6e74726f6c3a206163636f756e7420000000000000000000815260008351613ae8816017850160208801614002565b7001034b99036b4b9b9b4b733903937b6329607d1b6017918401918201528351613b19816028840160208801614002565b01602801949350505050565b600060018060a01b03808816835260806020840152613b486080840187896139af565b81861660408501528381036060850152613b628186613983565b9998505050505050505050565b600060018060a01b03808616835260606020840152613b916060840186613983565b9150808416604084015250949350505050565b600060018060a01b03808716835260806020840152613bc66080840187613983565b81861660408501528381036060850152613be08186613983565b98975050505050505050565b60018060a01b0384168152826020820152606060408201526000613c136060830184613983565b95945050505050565b60018060a01b038816815286602082015260a060408201526000613c4360a0830188613983565b8281036060840152613c568187896138f3565b90508281036080840152613c6b8185876138f3565b9a9950505050505050505050565b60018060a01b038916815287602082015260c060408201526000613ca060c0830189613983565b8281036060840152613cb381888a6138f3565b90508281036080840152613cc88186886138f3565b905082810360a0840152613cdc8185613983565b9b9a5050505050505050505050565b60018060a01b0385168152836020820152608060408201526000613d126080830185613983565b8281036060840152613d248185613983565b979650505050505050565b6020808252825182820181905260009190848201906040850190845b81811015613d69578351151583529284019291840191600101613d4b565b50909695505050505050565b606081526000613d896060830187896138f3565b8281036020840152613d9c8186886138f3565b9150508260408301529695505050505050565b6020808252810182905260006001600160fb1b03831115613dce578081fd5b8260051b808560408501379190910160400190815292915050565b602081526000613dfd6020830184866139af565b949350505050565b6020815260006132786020830184613983565b60006020808352818454613e2b81614045565b80848701526040600180841660008114613e4c5760018114613e6057613e8b565b60ff19851689840152606089019550613e8b565b898852868820885b85811015613e835781548b8201860152908301908801613e68565b8a0184019650505b509398975050505050505050565b60208082526026908201527f4d696e74696e674d616e616765723a20544f4b454e5f4c4142454c5f50524f4860408201526512509255115160d21b606082015260800190565b6020808252818101527f4d696e746572526f6c653a2043414c4c45525f49535f4e4f545f4d494e544552604082015260600190565b60208082526010908201526f14185d5cd8589b194e8814105554d15160821b604082015260600190565b60208082526022908201527f4d696e74696e674d616e616765723a20544c445f4e4f545f5245474953544552604082015261115160f21b606082015260800190565b6020808252602b908201527f496e697469616c697a61626c653a20636f6e7472616374206973206e6f74206960408201526a6e697469616c697a696e6760a81b606082015260800190565b60008219821115613fde57613fde61409b565b500190565b6000816000190483118215151615613ffd57613ffd61409b565b500290565b60005b8381101561401d578181015183820152602001614005565b838111156124145750506000910152565b60008161403d5761403d61409b565b506000190190565b600181811c9082168061405957607f821691505b6020821081141561407a57634e487b7160e01b600052602260045260246000fd5b50919050565b60006000198214156140945761409461409b565b5060010190565b634e487b7160e01b600052601160045260246000fd5b634e487b7160e01b600052604160045260246000fd5b6001600160a01b03811681146110dc57600080fdfe5496787fc1ebdfeba375028c1865f13fbb1d63c0caa356ccc1b29a80f3ebd622a85b8425a460dd344a297bd4a82e287385f0fc558cb3e78867b0489f43df2470b551e0305c8163b812374b8e78b577c77f226f6f10c5ad03e52699578fbc34b89f2df0fed2c77648de5860a4cc508cd0818c85b8b8a1ab4ceeef8d981c8956a6a164736f6c6343000804000a",
  "linkReferences": {},
  "deployedLinkReferences": {}
}