{
  "_format": "hh-sol-artifact-1",
  "contractName": "MintingManager",
  "sourceName": "contracts/MintingManager.sol",
  "abi": [
    {
      "anonymous": false,
      "inputs": [
        {
          "indexed": false,
          "internalType": "address",
          "name": "previousAdmin",
          "type": "address"
        },
        {
          "indexed": false,
          "internalType": "address",
          "name": "newAdmin",
          "type": "address"
        }
      ],
      "name": "AdminChanged",
      "type": "event"
    },
    {
      "anonymous": false,
      "inputs": [
        {
          "indexed": false,
          "internalType": "uint256",
          "name": "tokenId",
          "type": "uint256"
        }
      ],
      "name": "Blocked",
      "type": "event"
    },
    {
      "anonymous": false,
      "inputs": [
        {
          "indexed": false,
          "internalType": "address",
          "name": "account",
          "type": "address"
        }
      ],
      "name": "BlocklistDisabled",
      "type": "event"
    },
    {
      "anonymous": false,
      "inputs": [
        {
          "indexed": false,
          "internalType": "address",
          "name": "account",
          "type": "address"
        }
      ],
      "name": "BlocklistEnabled",
      "type": "event"
    },
    {
      "anonymous": false,
      "inputs": [
        {
          "indexed": false,
          "internalType": "uint8",
          "name": "version",
          "type": "uint8"
        }
      ],
      "name": "Initialized",
      "type": "event"
    },
    {
      "anonymous": false,
      "inputs": [
        {
          "indexed": true,
          "internalType": "uint256",
          "name": "tokenId",
          "type": "uint256"
        },
        {
          "indexed": false,
          "internalType": "string",
          "name": "tld",
          "type": "string"
        }
      ],
      "name": "NewTld",
      "type": "event"
    },
    {
      "anonymous": false,
      "inputs": [
        {
          "indexed": true,
          "internalType": "address",
          "name": "previousOwner",
          "type": "address"
        },
        {
          "indexed": true,
          "internalType": "address",
          "name": "newOwner",
          "type": "address"
        }
      ],
      "name": "OwnershipTransferred",
      "type": "event"
    },
    {
      "anonymous": false,
      "inputs": [
        {
          "indexed": false,
          "internalType": "address",
          "name": "account",
          "type": "address"
        }
      ],
      "name": "Paused",
      "type": "event"
    },
    {
      "anonymous": false,
      "inputs": [
        {
          "indexed": true,
          "internalType": "uint256",
          "name": "tokenId",
          "type": "uint256"
        },
        {
          "indexed": false,
          "internalType": "string",
          "name": "tld",
          "type": "string"
        }
      ],
      "name": "RemoveTld",
      "type": "event"
    },
    {
      "anonymous": false,
      "inputs": [
        {
          "indexed": true,
          "internalType": "bytes32",
          "name": "role",
          "type": "bytes32"
        },
        {
          "indexed": true,
          "internalType": "bytes32",
          "name": "previousAdminRole",
          "type": "bytes32"
        },
        {
          "indexed": true,
          "internalType": "bytes32",
          "name": "newAdminRole",
          "type": "bytes32"
        }
      ],
      "name": "RoleAdminChanged",
      "type": "event"
    },
    {
      "anonymous": false,
      "inputs": [
        {
          "indexed": true,
          "internalType": "bytes32",
          "name": "role",
          "type": "bytes32"
        },
        {
          "indexed": true,
          "internalType": "address",
          "name": "account",
          "type": "address"
        },
        {
          "indexed": true,
          "internalType": "address",
          "name": "sender",
          "type": "address"
        }
      ],
      "name": "RoleGranted",
      "type": "event"
    },
    {
      "anonymous": false,
      "inputs": [
        {
          "indexed": true,
          "internalType": "bytes32",
          "name": "role",
          "type": "bytes32"
        },
        {
          "indexed": true,
          "internalType": "address",
          "name": "account",
          "type": "address"
        },
        {
          "indexed": true,
          "internalType": "address",
          "name": "sender",
          "type": "address"
        }
      ],
      "name": "RoleRevoked",
      "type": "event"
    },
    {
      "anonymous": false,
      "inputs": [
        {
          "indexed": false,
          "internalType": "address",
          "name": "account",
          "type": "address"
        }
      ],
      "name": "Unpaused",
      "type": "event"
    },
    {
      "anonymous": false,
      "inputs": [
        {
          "indexed": true,
          "internalType": "address",
          "name": "implementation",
          "type": "address"
        }
      ],
      "name": "Upgraded",
      "type": "event"
    },
    {
      "inputs": [],
      "name": "DEFAULT_ADMIN_ROLE",
      "outputs": [
        {
          "internalType": "bytes32",
          "name": "",
          "type": "bytes32"
        }
      ],
      "stateMutability": "view",
      "type": "function"
    },
    {
      "inputs": [],
      "name": "MINTER_ROLE",
      "outputs": [
        {
          "internalType": "bytes32",
          "name": "",
          "type": "bytes32"
        }
      ],
      "stateMutability": "view",
      "type": "function"
    },
    {
      "inputs": [],
      "name": "NAME",
      "outputs": [
        {
          "internalType": "string",
          "name": "",
          "type": "string"
        }
      ],
      "stateMutability": "view",
      "type": "function"
    },
    {
      "inputs": [],
      "name": "VERSION",
      "outputs": [
        {
          "internalType": "string",
          "name": "",
          "type": "string"
        }
      ],
      "stateMutability": "view",
      "type": "function"
    },
    {
      "inputs": [
        {
          "internalType": "address",
          "name": "account",
          "type": "address"
        }
      ],
      "name": "addMinter",
      "outputs": [],
      "stateMutability": "nonpayable",
      "type": "function"
    },
    {
      "inputs": [
        {
          "internalType": "address[]",
          "name": "accounts",
          "type": "address[]"
        }
      ],
      "name": "addMinters",
      "outputs": [],
      "stateMutability": "nonpayable",
      "type": "function"
    },
    {
      "inputs": [
        {
          "internalType": "string",
          "name": "tld",
          "type": "string"
        }
      ],
      "name": "addTld",
      "outputs": [],
      "stateMutability": "nonpayable",
      "type": "function"
    },
    {
      "inputs": [
        {
          "internalType": "uint256[]",
          "name": "tokenIds",
          "type": "uint256[]"
        }
      ],
      "name": "areBlocked",
      "outputs": [
        {
          "internalType": "bool[]",
          "name": "values",
          "type": "bool[]"
        }
      ],
      "stateMutability": "view",
      "type": "function"
    },
    {
      "inputs": [
        {
          "internalType": "uint256",
          "name": "tokenId",
          "type": "uint256"
        }
      ],
      "name": "blocklist",
      "outputs": [],
      "stateMutability": "nonpayable",
      "type": "function"
    },
    {
      "inputs": [
        {
          "internalType": "uint256[]",
          "name": "tokenIds",
          "type": "uint256[]"
        }
      ],
      "name": "blocklistAll",
      "outputs": [],
      "stateMutability": "nonpayable",
      "type": "function"
    },
    {
      "inputs": [
        {
          "internalType": "uint256",
          "name": "tld",
          "type": "uint256"
        },
        {
          "internalType": "string",
          "name": "label",
          "type": "string"
        }
      ],
      "name": "claim",
      "outputs": [],
      "stateMutability": "nonpayable",
      "type": "function"
    },
    {
      "inputs": [
        {
          "internalType": "address",
          "name": "to",
          "type": "address"
        },
        {
          "internalType": "uint256",
          "name": "tld",
          "type": "uint256"
        },
        {
          "internalType": "string",
          "name": "label",
          "type": "string"
        }
      ],
      "name": "claimTo",
      "outputs": [],
      "stateMutability": "nonpayable",
      "type": "function"
    },
    {
      "inputs": [
        {
          "internalType": "address",
          "name": "to",
          "type": "address"
        },
        {
          "internalType": "uint256",
          "name": "tld",
          "type": "uint256"
        },
        {
          "internalType": "string",
          "name": "label",
          "type": "string"
        },
        {
          "internalType": "string[]",
          "name": "keys",
          "type": "string[]"
        },
        {
          "internalType": "string[]",
          "name": "values",
          "type": "string[]"
        }
      ],
      "name": "claimToWithRecords",
      "outputs": [],
      "stateMutability": "nonpayable",
      "type": "function"
    },
    {
      "inputs": [
        {
          "internalType": "address payable",
          "name": "receiver",
          "type": "address"
        }
      ],
      "name": "closeMinter",
      "outputs": [],
      "stateMutability": "payable",
      "type": "function"
    },
    {
      "inputs": [],
      "name": "cnsMintingController",
      "outputs": [
        {
          "internalType": "contract IMintingController",
          "name": "",
          "type": "address"
        }
      ],
      "stateMutability": "view",
      "type": "function"
    },
    {
      "inputs": [],
      "name": "cnsResolver",
      "outputs": [
        {
          "internalType": "contract IResolver",
          "name": "",
          "type": "address"
        }
      ],
      "stateMutability": "view",
      "type": "function"
    },
    {
      "inputs": [],
      "name": "cnsURIPrefixController",
      "outputs": [
        {
          "internalType": "contract IURIPrefixController",
          "name": "",
          "type": "address"
        }
      ],
      "stateMutability": "view",
      "type": "function"
    },
    {
      "inputs": [],
      "name": "disableBlocklist",
      "outputs": [],
      "stateMutability": "nonpayable",
      "type": "function"
    },
    {
      "inputs": [],
      "name": "enableBlocklist",
      "outputs": [],
      "stateMutability": "nonpayable",
      "type": "function"
    },
    {
      "inputs": [
        {
          "internalType": "bytes32",
          "name": "role",
          "type": "bytes32"
        }
      ],
      "name": "getRoleAdmin",
      "outputs": [
        {
          "internalType": "bytes32",
          "name": "",
          "type": "bytes32"
        }
      ],
      "stateMutability": "view",
      "type": "function"
    },
    {
      "inputs": [
        {
          "internalType": "bytes32",
          "name": "role",
          "type": "bytes32"
        },
        {
          "internalType": "address",
          "name": "account",
          "type": "address"
        }
      ],
      "name": "grantRole",
      "outputs": [],
      "stateMutability": "nonpayable",
      "type": "function"
    },
    {
      "inputs": [
        {
          "internalType": "bytes32",
          "name": "role",
          "type": "bytes32"
        },
        {
          "internalType": "address",
          "name": "account",
          "type": "address"
        }
      ],
      "name": "hasRole",
      "outputs": [
        {
          "internalType": "bool",
          "name": "",
          "type": "bool"
        }
      ],
      "stateMutability": "view",
      "type": "function"
    },
    {
      "inputs": [
        {
          "internalType": "contract IUNSRegistry",
          "name": "unsRegistry_",
          "type": "address"
        },
        {
          "internalType": "contract IMintingController",
          "name": "cnsMintingController_",
          "type": "address"
        },
        {
          "internalType": "contract IURIPrefixController",
          "name": "cnsURIPrefixController_",
          "type": "address"
        },
        {
          "internalType": "contract IResolver",
          "name": "cnsResolver_",
          "type": "address"
        },
        {
          "internalType": "address",
          "name": "forwarder",
          "type": "address"
        }
      ],
      "name": "initialize",
      "outputs": [],
      "stateMutability": "nonpayable",
      "type": "function"
    },
    {
      "inputs": [
        {
          "internalType": "uint256",
          "name": "tokenId",
          "type": "uint256"
        }
      ],
      "name": "isBlocked",
      "outputs": [
        {
          "internalType": "bool",
          "name": "",
          "type": "bool"
        }
      ],
      "stateMutability": "view",
      "type": "function"
    },
    {
      "inputs": [],
      "name": "isBlocklistDisabled",
      "outputs": [
        {
          "internalType": "bool",
          "name": "",
          "type": "bool"
        }
      ],
      "stateMutability": "view",
      "type": "function"
    },
    {
      "inputs": [
        {
          "internalType": "address",
          "name": "account",
          "type": "address"
        }
      ],
      "name": "isMinter",
      "outputs": [
        {
          "internalType": "bool",
          "name": "",
          "type": "bool"
        }
      ],
      "stateMutability": "view",
      "type": "function"
    },
    {
      "inputs": [
        {
          "internalType": "address",
          "name": "forwarder",
          "type": "address"
        }
      ],
      "name": "isTrustedForwarder",
      "outputs": [
        {
          "internalType": "bool",
          "name": "",
          "type": "bool"
        }
      ],
      "stateMutability": "view",
      "type": "function"
    },
    {
      "inputs": [
        {
          "internalType": "address",
          "name": "to",
          "type": "address"
        },
        {
          "internalType": "uint256",
          "name": "tld",
          "type": "uint256"
        },
        {
          "internalType": "string",
          "name": "label",
          "type": "string"
        }
      ],
      "name": "mintSLD",
      "outputs": [],
      "stateMutability": "nonpayable",
      "type": "function"
    },
    {
      "inputs": [
        {
          "internalType": "address",
          "name": "to",
          "type": "address"
        },
        {
          "internalType": "uint256",
          "name": "tld",
          "type": "uint256"
        },
        {
          "internalType": "string",
          "name": "label",
          "type": "string"
        },
        {
          "internalType": "string[]",
          "name": "keys",
          "type": "string[]"
        },
        {
          "internalType": "string[]",
          "name": "values",
          "type": "string[]"
        }
      ],
      "name": "mintSLDWithRecords",
      "outputs": [],
      "stateMutability": "nonpayable",
      "type": "function"
    },
    {
      "inputs": [],
      "name": "owner",
      "outputs": [
        {
          "internalType": "address",
          "name": "",
          "type": "address"
        }
      ],
      "stateMutability": "view",
      "type": "function"
    },
    {
      "inputs": [],
      "name": "pause",
      "outputs": [],
      "stateMutability": "nonpayable",
      "type": "function"
    },
    {
      "inputs": [],
      "name": "paused",
      "outputs": [
        {
          "internalType": "bool",
          "name": "",
          "type": "bool"
        }
      ],
      "stateMutability": "view",
      "type": "function"
    },
    {
      "inputs": [
        {
          "internalType": "address",
          "name": "account",
          "type": "address"
        }
      ],
      "name": "removeMinter",
      "outputs": [],
      "stateMutability": "nonpayable",
      "type": "function"
    },
    {
      "inputs": [
        {
          "internalType": "address[]",
          "name": "accounts",
          "type": "address[]"
        }
      ],
      "name": "removeMinters",
      "outputs": [],
      "stateMutability": "nonpayable",
      "type": "function"
    },
    {
      "inputs": [
        {
          "internalType": "uint256",
          "name": "tld",
          "type": "uint256"
        }
      ],
      "name": "removeTld",
      "outputs": [],
      "stateMutability": "nonpayable",
      "type": "function"
    },
    {
      "inputs": [],
      "name": "renounceMinter",
      "outputs": [],
      "stateMutability": "nonpayable",
      "type": "function"
    },
    {
      "inputs": [],
      "name": "renounceOwnership",
      "outputs": [],
      "stateMutability": "nonpayable",
      "type": "function"
    },
    {
      "inputs": [
        {
          "internalType": "bytes32",
          "name": "role",
          "type": "bytes32"
        },
        {
          "internalType": "address",
          "name": "account",
          "type": "address"
        }
      ],
      "name": "renounceRole",
      "outputs": [],
      "stateMutability": "nonpayable",
      "type": "function"
    },
    {
      "inputs": [
        {
          "internalType": "bytes32",
          "name": "role",
          "type": "bytes32"
        },
        {
          "internalType": "address",
          "name": "account",
          "type": "address"
        }
      ],
      "name": "revokeRole",
      "outputs": [],
      "stateMutability": "nonpayable",
      "type": "function"
    },
    {
      "inputs": [
        {
          "internalType": "address payable",
          "name": "receiver",
          "type": "address"
        }
      ],
      "name": "rotateMinter",
      "outputs": [],
      "stateMutability": "payable",
      "type": "function"
    },
    {
      "inputs": [
        {
          "internalType": "address",
          "name": "to",
          "type": "address"
        },
        {
          "internalType": "uint256",
          "name": "tld",
          "type": "uint256"
        },
        {
          "internalType": "string",
          "name": "label",
          "type": "string"
        }
      ],
      "name": "safeMintSLD",
      "outputs": [],
      "stateMutability": "nonpayable",
      "type": "function"
    },
    {
      "inputs": [
        {
          "internalType": "address",
          "name": "to",
          "type": "address"
        },
        {
          "internalType": "uint256",
          "name": "tld",
          "type": "uint256"
        },
        {
          "internalType": "string",
          "name": "label",
          "type": "string"
        },
        {
          "internalType": "bytes",
          "name": "data",
          "type": "bytes"
        }
      ],
      "name": "safeMintSLD",
      "outputs": [],
      "stateMutability": "nonpayable",
      "type": "function"
    },
    {
      "inputs": [
        {
          "internalType": "address",
          "name": "to",
          "type": "address"
        },
        {
          "internalType": "uint256",
          "name": "tld",
          "type": "uint256"
        },
        {
          "internalType": "string",
          "name": "label",
          "type": "string"
        },
        {
          "internalType": "string[]",
          "name": "keys",
          "type": "string[]"
        },
        {
          "internalType": "string[]",
          "name": "values",
          "type": "string[]"
        }
      ],
      "name": "safeMintSLDWithRecords",
      "outputs": [],
      "stateMutability": "nonpayable",
      "type": "function"
    },
    {
      "inputs": [
        {
          "internalType": "address",
          "name": "to",
          "type": "address"
        },
        {
          "internalType": "uint256",
          "name": "tld",
          "type": "uint256"
        },
        {
          "internalType": "string",
          "name": "label",
          "type": "string"
        },
        {
          "internalType": "string[]",
          "name": "keys",
          "type": "string[]"
        },
        {
          "internalType": "string[]",
          "name": "values",
          "type": "string[]"
        },
        {
          "internalType": "bytes",
          "name": "data",
          "type": "bytes"
        }
      ],
      "name": "safeMintSLDWithRecords",
      "outputs": [],
      "stateMutability": "nonpayable",
      "type": "function"
    },
    {
      "inputs": [
        {
          "internalType": "address",
          "name": "forwarder",
          "type": "address"
        }
      ],
      "name": "setForwarder",
      "outputs": [],
      "stateMutability": "nonpayable",
      "type": "function"
    },
    {
      "inputs": [
        {
          "internalType": "address",
          "name": "resolver",
          "type": "address"
        }
      ],
      "name": "setResolver",
      "outputs": [],
      "stateMutability": "nonpayable",
      "type": "function"
    },
    {
      "inputs": [
        {
          "internalType": "string",
          "name": "prefix",
          "type": "string"
        }
      ],
      "name": "setTokenURIPrefix",
      "outputs": [],
      "stateMutability": "nonpayable",
      "type": "function"
    },
    {
      "inputs": [
        {
          "internalType": "bytes4",
          "name": "interfaceId",
          "type": "bytes4"
        }
      ],
      "name": "supportsInterface",
      "outputs": [
        {
          "internalType": "bool",
          "name": "",
          "type": "bool"
        }
      ],
      "stateMutability": "view",
      "type": "function"
    },
    {
      "inputs": [
        {
          "internalType": "address",
          "name": "newOwner",
          "type": "address"
        }
      ],
      "name": "transferOwnership",
      "outputs": [],
      "stateMutability": "nonpayable",
      "type": "function"
    },
    {
      "inputs": [],
      "name": "unpause",
      "outputs": [],
      "stateMutability": "nonpayable",
      "type": "function"
    },
    {
      "inputs": [],
      "name": "unsRegistry",
      "outputs": [
        {
          "internalType": "contract IUNSRegistry",
          "name": "",
          "type": "address"
        }
      ],
      "stateMutability": "view",
      "type": "function"
    },
    {
      "inputs": [
        {
          "internalType": "uint256[]",
          "name": "tokenIds",
          "type": "uint256[]"
        }
      ],
      "name": "upgradeAll",
      "outputs": [],
      "stateMutability": "nonpayable",
      "type": "function"
    }
  ],
  "bytecode": "0x608060405234801561001057600080fd5b50614188806100206000396000f3fe6080604052600436106102ff5760003560e01c806381c81d3511610190578063ae2ad903116100dc578063ceeb4f5011610095578063e47d6cc61161006f578063e47d6cc61461093c578063ec5273891461095c578063f2fde38b1461097c578063ffa1ad741461099c57600080fd5b8063ceeb4f50146108da578063d5391393146108fa578063d547741f1461091c57600080fd5b8063ae2ad9031461081a578063ae31844a1461083a578063b0aa98c71461085a578063b9998a241461087a578063c3a3bc001461089a578063cc2c3fc4146108ba57600080fd5b8063983b2d5611610149578063a217fddf11610123578063a217fddf14610778578063a3f4df7e1461078d578063a849d65c146107da578063aa271e1a146107fa57600080fd5b8063983b2d5614610723578063986502751461074357806399e0dd7c1461075857600080fd5b806381c81d35146106885780638456cb591461069b5780638da5cb5b146106b0578063906cecc1146106ce57806390dbdb5a146106ee57806391d148541461070357600080fd5b80633f4ba83a1161024f5780635b6fa8db11610208578063634486da116101e2578063634486da146106205780636a2d225614610633578063715018a61461065357806371e2a6571461066857600080fd5b80635b6fa8db146105cb5780635c975abb146105eb5780635fc1964f1461060057600080fd5b80633f4ba83a146104e8578063463c4bcb146104fd5780634c1819e01461051d5780634e543b261461053d578063572b6c051461055d57806358839d6b146105ab57600080fd5b806327bbd225116102bc5780633092afd5116102965780633092afd51461045057806336568abe1461047057806339ccf4d0146104905780633f41b614146104b057600080fd5b806327bbd225146103fb5780632eff1a951461041b5780632f2ff15d1461043057600080fd5b806301ffc9a7146103045780630e36a87d1461033957806310921f12146103665780631459457a1461037b578063248a9ca31461039d578063268b15ed146103db575b600080fd5b34801561031057600080fd5b5061032461031f3660046137fe565b6109cd565b60405190151581526020015b60405180910390f35b34801561034557600080fd5b50610359610354366004613758565b610a04565b6040516103309190613d4e565b34801561037257600080fd5b50610324610adb565b34801561038757600080fd5b5061039b610396366004613826565b610af6565b005b3480156103a957600080fd5b506103cd6103b83660046137b7565b60009081526097602052604090206001015490565b604051908152602001610330565b3480156103e757600080fd5b5061039b6103f63660046138c9565b610e29565b34801561040757600080fd5b5061039b61041636600461347e565b610f2b565b34801561042757600080fd5b5061039b61108f565b34801561043c57600080fd5b5061039b61044b3660046137cf565b6110a1565b34801561045c57600080fd5b5061039b61046b366004613409565b6110cb565b34801561047c57600080fd5b5061039b61048b3660046137cf565b6110df565b34801561049c57600080fd5b5061039b6104ab36600461347e565b61116d565b3480156104bc57600080fd5b5060c9546104d0906001600160a01b031681565b6040516001600160a01b039091168152602001610330565b3480156104f457600080fd5b5061039b6112b6565b34801561050957600080fd5b5061039b6105183660046137b7565b6112c6565b34801561052957600080fd5b5061039b610538366004613425565b6112f6565b34801561054957600080fd5b5061039b610558366004613409565b61141d565b34801561056957600080fd5b50610324610578366004613409565b7f893ef2ea16c023f61d4f55d3e6ee3fc3f2fbfd478461323dbc2fbf919047086e546001600160a01b0390811691161490565b3480156105b757600080fd5b5061039b6105c636600461360a565b611447565b3480156105d757600080fd5b5060cc546104d0906001600160a01b031681565b3480156105f757600080fd5b50610324611597565b34801561060c57600080fd5b5061039b61061b366004613692565b6115ad565b61039b61062e366004613409565b611603565b34801561063f57600080fd5b5061039b61064e36600461352f565b6116c6565b34801561065f57600080fd5b5061039b611861565b34801561067457600080fd5b5061039b610683366004613692565b611873565b61039b610696366004613409565b6118c9565b3480156106a757600080fd5b5061039b611946565b3480156106bc57600080fd5b506033546001600160a01b03166104d0565b3480156106da57600080fd5b5061039b6106e9366004613425565b611956565b3480156106fa57600080fd5b5061039b611a40565b34801561070f57600080fd5b5061032461071e3660046137cf565b611a50565b34801561072f57600080fd5b5061039b61073e366004613409565b611a7b565b34801561074f57600080fd5b5061039b611a8c565b34801561076457600080fd5b5061039b610773366004613896565b611aa6565b34801561078457600080fd5b506103cd600081565b34801561079957600080fd5b506107cd604051806040016040528060148152602001732aa7299d1026b4b73a34b7339026b0b730b3b2b960611b81525081565b6040516103309190613e24565b3480156107e657600080fd5b5060cb546104d0906001600160a01b031681565b34801561080657600080fd5b50610324610815366004613409565b611b85565b34801561082657600080fd5b5061039b610835366004613425565b611b9f565b34801561084657600080fd5b5061039b610855366004613758565b611ce2565b34801561086657600080fd5b506103246108753660046137b7565b611d3b565b34801561088657600080fd5b5061039b610895366004613409565b611da8565b3480156108a657600080fd5b5061039b6108b5366004613896565b611ded565b3480156108c657600080fd5b5060ca546104d0906001600160a01b031681565b3480156108e657600080fd5b5061039b6108f536600461347e565b611e34565b34801561090657600080fd5b506103cd60008051602061415c83398151915281565b34801561092857600080fd5b5061039b6109373660046137cf565b611f27565b34801561094857600080fd5b5061039b610957366004613758565b611f4c565b34801561096857600080fd5b5061039b6109773660046137b7565b611f7d565b34801561098857600080fd5b5061039b610997366004613409565b61200b565b3480156109a857600080fd5b506107cd604051806040016040528060058152602001640c0b8ccb8d60da1b81525081565b60006001600160e01b03198216637965db0b60e01b14806109fe57506301ffc9a760e01b6001600160e01b03198316145b92915050565b6060816001600160401b03811115610a2c57634e487b7160e01b600052604160045260246000fd5b604051908082528060200260200182016040528015610a55578160200160208202803683370190505b50905060005b82811015610ad457610a92848483818110610a8657634e487b7160e01b600052603260045260246000fd5b90506020020135611d3b565b828281518110610ab257634e487b7160e01b600052603260045260246000fd5b9115156020928302919091019091015280610acc8161409f565b915050610a5b565b5092915050565b600060008051602061411c8339815191525b5460ff16919050565b600054610100900460ff1615808015610b165750600054600160ff909116105b80610b305750303b158015610b30575060005460ff166001145b610b985760405162461bcd60e51b815260206004820152602e60248201527f496e697469616c697a61626c653a20636f6e747261637420697320616c72656160448201526d191e481a5b9a5d1a585b1a5e995960921b60648201526084015b60405180910390fd5b6000805460ff191660011790558015610bbb576000805461ff0019166101001790555b60c980546001600160a01b038089166001600160a01b03199283161790925560ca805488841690831617905560cb805487841690831617905560cc805492861692909116919091179055610c0d612027565b610c1561205e565b610c1e82612097565b610c266120be565b610c2e612108565b604080516101a081018252600661016082018181526563727970746f60d01b610180840152825282518084018452908152651dd85b1b195d60d21b602082810191909152808301919091528251808401845260018152600f60fb1b8183015282840152825180840184526003808252621b999d60ea1b82840152606084019190915283518085018552600a815269313637b1b5b1b430b4b760b11b818401526080840152835180850185526007808252663134ba31b7b4b760c91b8285015260a0850191909152845180860186528281526207070760eb1b8185015260c0850152845180860186528281526264616f60e81b8185015260e085015284518086018652918252621e9a5b60ea1b8284015261010084019190915283518085018552908152663837b63cb3b7b760c91b818301526101208301528251808401909352600b83526a756e73746f707061626c6560a81b9083015261014081019190915260005b600b811015610dd957610dc78282600b8110610dbd57634e487b7160e01b600052603260045260246000fd5b6020020151612145565b80610dd18161409f565b915050610d91565b50508015610e21576000805461ff0019169055604051600181527f7f26b83ff96e1f2b6a682f133852f6798a09c465da95921460cefb38474024989060200160405180910390a15b505050505050565b8282828080601f016020809104026020016040519081016040528093929190818152602001838380828437600092019190915250610e6c92508491506122659050565b610e885760405162461bcd60e51b8152600401610b8f90613f5d565b6000610e938261228b565b9050600a81600001511115610eeb57610ebe610eb2826000600a6122b8565b80516020909101512090565b60008051602061413c8339815191521415610eeb5760405162461bcd60e51b8152600401610b8f90613eb8565b610ef3611597565b15610f105760405162461bcd60e51b8152600401610b8f90613f33565b610e21610f1b6122f7565b87610f268888612306565b612332565b610f366108156122f7565b610f525760405162461bcd60e51b8152600401610b8f90613efe565b8686868080601f016020809104026020016040519081016040528093929190818152602001838380828437600092019190915250610f9592508491506122659050565b610fb15760405162461bcd60e51b8152600401610b8f90613f5d565b6000610fbc8261228b565b9050600a8160000151111561100857610fdb610eb2826000600a6122b8565b60008051602061413c83398151915214156110085760405162461bcd60e51b8152600401610b8f90613eb8565b611010611597565b1561102d5760405162461bcd60e51b8152600401610b8f90613f33565b6110828b8b8b8b8080601f016020809104026020016040519081016040528093929190818152602001838380828437600092018290525060408051602081019091529081528e93508d92508c91508b90612439565b5050505050505050505050565b6110976125b4565b61109f61262d565b565b6000828152609760205260409020600101546110bc816126d8565b6110c683836126e9565b505050565b6110d36125b4565b6110dc81612770565b50565b6110e76122f7565b6001600160a01b0316816001600160a01b03161461115f5760405162461bcd60e51b815260206004820152602f60248201527f416363657373436f6e74726f6c3a2063616e206f6e6c792072656e6f756e636560448201526e103937b632b9903337b91039b2b63360891b6064820152608401610b8f565b6111698282612788565b5050565b6111786108156122f7565b6111945760405162461bcd60e51b8152600401610b8f90613efe565b8686868080601f0160208091040260200160405190810160405280939291908181526020018383808284376000920191909152506111d792508491506122659050565b6111f35760405162461bcd60e51b8152600401610b8f90613f5d565b60006111fe8261228b565b9050600a8160000151111561124a5761121d610eb2826000600a6122b8565b60008051602061413c833981519152141561124a5760405162461bcd60e51b8152600401610b8f90613eb8565b611252611597565b1561126f5760405162461bcd60e51b8152600401610b8f90613f33565b6110828b8b8b8b8080601f0160208091040260200160405190810160405280939291908181526020018383808284376000920191909152508d92508c91508b90508a61280d565b6112be6125b4565b61109f612992565b6112d16108156122f7565b6112ed5760405162461bcd60e51b8152600401610b8f90613efe565b6110dc81612a1d565b6113016108156122f7565b61131d5760405162461bcd60e51b8152600401610b8f90613efe565b8282828080601f01602080910402602001604051908101604052809392919081815260200183838082843760009201919091525061136092508491506122659050565b61137c5760405162461bcd60e51b8152600401610b8f90613f5d565b60006113878261228b565b9050600a816000015111156113d3576113a6610eb2826000600a6122b8565b60008051602061413c83398151915214156113d35760405162461bcd60e51b8152600401610b8f90613eb8565b6113db611597565b156113f85760405162461bcd60e51b8152600401610b8f90613f33565b6114148787878760405180602001604052806000815250612aec565b50505050505050565b6114256125b4565b60cc80546001600160a01b0319166001600160a01b0392909216919091179055565b6114526108156122f7565b61146e5760405162461bcd60e51b8152600401610b8f90613efe565b8484848080601f0160208091040260200160405190810160405280939291908181526020018383808284376000920191909152506114b192508491506122659050565b6114cd5760405162461bcd60e51b8152600401610b8f90613f5d565b60006114d88261228b565b9050600a81600001511115611524576114f7610eb2826000600a6122b8565b60008051602061413c83398151915214156115245760405162461bcd60e51b8152600401610b8f90613eb8565b61152c611597565b156115495760405162461bcd60e51b8152600401610b8f90613f33565b61158c8989898989898080601f016020809104026020016040519081016040528093929190818152602001838380828437600092019190915250612aec92505050565b505050505050505050565b60006000805160206140fc833981519152610aed565b6115b56125b4565b60005b8151811015611169576115f18282815181106115e457634e487b7160e01b600052603260045260246000fd5b6020026020010151612770565b806115fb8161409f565b9150506115b8565b61160e6108156122f7565b61162a5760405162461bcd60e51b8152600401610b8f90613efe565b6001600160a01b0381166116805760405162461bcd60e51b815260206004820152601d60248201527f4d696e746572526f6c653a2052454345495645525f49535f454d5054590000006044820152606401610b8f565b61168981612c6c565b611691611a8c565b6040516001600160a01b038216903480156108fc02916000818181858888f19350505050158015611169573d6000803e3d6000fd5b6116d16108156122f7565b6116ed5760405162461bcd60e51b8152600401610b8f90613efe565b8888888080601f01602080910402602001604051908101604052809392919081815260200183838082843760009201919091525061173092508491506122659050565b61174c5760405162461bcd60e51b8152600401610b8f90613f5d565b60006117578261228b565b9050600a816000015111156117a357611776610eb2826000600a6122b8565b60008051602061413c83398151915214156117a35760405162461bcd60e51b8152600401610b8f90613eb8565b6117ab611597565b156117c85760405162461bcd60e51b8152600401610b8f90613f33565b6118528d8d8d8d8080601f016020809104026020016040519081016040528093929190818152602001838380828437600081840152601f19601f820116905080830192505050505050508c8c8c8c8c8c8080601f01602080910402602001604051908101604052809392919081815260200183838082843760009201919091525061243992505050565b50505050505050505050505050565b6118696125b4565b61109f6000612c84565b61187b6125b4565b60005b8151811015611169576118b78282815181106118aa57634e487b7160e01b600052603260045260246000fd5b6020026020010151612c6c565b806118c18161409f565b91505061187e565b6118d46108156122f7565b6118f05760405162461bcd60e51b8152600401610b8f90613efe565b6001600160a01b0381166116895760405162461bcd60e51b815260206004820152601d60248201527f4d696e746572526f6c653a2052454345495645525f49535f454d5054590000006044820152606401610b8f565b61194e6125b4565b61109f612cd6565b8282828080601f01602080910402602001604051908101604052809392919081815260200183838082843760009201919091525061199992508491506122659050565b6119b55760405162461bcd60e51b8152600401610b8f90613f5d565b60006119c08261228b565b9050600a81600001511115611a0c576119df610eb2826000600a6122b8565b60008051602061413c8339815191521415611a0c5760405162461bcd60e51b8152600401610b8f90613eb8565b611a14611597565b15611a315760405162461bcd60e51b8152600401610b8f90613f33565b6114148787610f268888612306565b611a486125b4565b61109f612d3e565b60009182526097602090815260408084206001600160a01b0393909316845291905290205460ff1690565b611a836125b4565b6110dc81612c6c565b61109f60008051602061415c83398151915261048b6122f7565b611aae6125b4565b60c954604051632678375f60e21b81526001600160a01b03909116906399e0dd7c90611ae09085908590600401613e08565b600060405180830381600087803b158015611afa57600080fd5b505af1158015611b0e573d6000803e3d6000fd5b505060cb546001600160a01b031615915061116990505760cb54604051632678375f60e21b81526001600160a01b03909116906399e0dd7c90611b579085908590600401613e08565b600060405180830381600087803b158015611b7157600080fd5b505af1158015610e21573d6000803e3d6000fd5b60006109fe60008051602061415c83398151915283611a50565b611baa6108156122f7565b611bc65760405162461bcd60e51b8152600401610b8f90613efe565b8282828080601f016020809104026020016040519081016040528093929190818152602001838380828437600092019190915250611c0992508491506122659050565b611c255760405162461bcd60e51b8152600401610b8f90613f5d565b6000611c308261228b565b9050600a81600001511115611c7c57611c4f610eb2826000600a6122b8565b60008051602061413c8339815191521415611c7c5760405162461bcd60e51b8152600401610b8f90613eb8565b611c84611597565b15611ca15760405162461bcd60e51b8152600401610b8f90613f33565b611414878787878080601f01602080910402602001604051908101604052809392919081815260200183838082843760009201919091525061233292505050565b611ced6108156122f7565b611d095760405162461bcd60e51b8152600401610b8f90613efe565b60c954604051635718c22560e11b81526001600160a01b039091169063ae31844a90611b579085908590600401613dce565b6000611d45610adb565b1580156109fe5750604080517f1ec047073e2c8b15660901dbfdb6e3ff6365bd699dd9f95dcc6eab5448bebd696020820152908101839052611d9e906060015b6040516020818303038152906040528051906020012090565b5460ff1692915050565b611db06125b4565b7f893ef2ea16c023f61d4f55d3e6ee3fc3f2fbfd478461323dbc2fbf919047086e80546001600160a01b0319166001600160a01b03831617905550565b611df56125b4565b61116982828080601f01602080910402602001604051908101604052809392919081815260200183838082843760009201919091525061214592505050565b8686868080601f016020809104026020016040519081016040528093929190818152602001838380828437600092019190915250611e7792508491506122659050565b611e935760405162461bcd60e51b8152600401610b8f90613f5d565b6000611e9e8261228b565b9050600a81600001511115611eea57611ebd610eb2826000600a6122b8565b60008051602061413c8339815191521415611eea5760405162461bcd60e51b8152600401610b8f90613eb8565b611ef2611597565b15611f0f5760405162461bcd60e51b8152600401610b8f90613f33565b6110828b8b611f1e8c8c612306565b8a8a8a8a61280d565b600082815260976020526040902060010154611f42816126d8565b6110c68383612788565b611f576108156122f7565b611f735760405162461bcd60e51b8152600401610b8f90613efe565b6111698282612dc7565b611f856125b4565b611f8e81612265565b611faa5760405162461bcd60e51b8152600401610b8f90613f5d565b807ffc5c8945ae90ac0d332d5f2099538d13d0ff7cc61e20635b95676c6fba08473060cd6000848152602001908152602001600020604051611fec9190613e37565b60405180910390a2600081815260cd602052604081206110dc9161329e565b6120136125b4565b61201c81612e13565b6110dc600082612e89565b600054610100900460ff1661204e5760405162461bcd60e51b8152600401610b8f90613f9f565b61109f6120596122f7565b612c84565b600054610100900460ff166120855760405162461bcd60e51b8152600401610b8f90613f9f565b61109f60006120926122f7565b612e89565b600054610100900460ff16611db05760405162461bcd60e51b8152600401610b8f90613f9f565b600054610100900460ff166120e55760405162461bcd60e51b8152600401610b8f90613f9f565b600060008051602061411c8339815191525b805460ff1916911515919091179055565b600054610100900460ff1661212f5760405162461bcd60e51b8152600401610b8f90613f9f565b60006000805160206140fc8339815191526120f7565b6000612152600083612e93565b600081815260cd6020908152604090912084519293506121769290918501906132d8565b50807f4fce6f6e172b04eaa80325d8e3b0180a34945000f3e214605039e8420fdf8980836040516121a79190613e24565b60405180910390a260c954604051634f558e7960e01b8152600481018390526001600160a01b0390911690634f558e799060240160206040518083038186803b1580156121f357600080fd5b505afa158015612207573d6000803e3d6000fd5b505050506040513d601f19601f8201168201806040525081019061222b9190613797565b6111695760c9546040516334ff261960e21b81526001600160a01b039091169063d3fc986490611b579061dead9085908790600401613c0b565b600081815260cd60205260408120805482919061228190614064565b9050119050919050565b60408051808201825260008082526020918201528151808301909252825182529182019181019190915290565b604080518082019091526000808252602082015260405180604001604052808381526020018486602001516122ed9190613fea565b9052949350505050565b6000612301612f48565b905090565b6060828260405160200161231b929190613aa7565b604051602081830303815290604052905092915050565b600061233e8383612e93565b905061234981612f8f565b61235283612ff1565b156123c55760ca5460cc5460405163c36c212560e01b81526001600160a01b039283169263c36c21259261238e92899288921690600401613b8e565b600060405180830381600087803b1580156123a857600080fd5b505af11580156123bc573d6000803e3d6000fd5b50505050612433565b60c9546001600160a01b031663d3fc986485836123e2878761302f565b6040518463ffffffff1660e01b815260040161240093929190613c0b565b600060405180830381600087803b15801561241a57600080fd5b505af115801561242e573d6000803e3d6000fd5b505050505b50505050565b60006124458888612e93565b905061245081612f8f565b61245988612ff1565b156125415760ca5460cc54604051630f95e75b60e31b81526001600160a01b0392831692637caf3ad892612497928e928d9216908890600401613bc3565b600060405180830381600087803b1580156124b157600080fd5b505af11580156124c5573d6000803e3d6000fd5b50508615915061253c90505760cc54604051633a0deb9d60e21b81526001600160a01b039091169063e837ae74906125099089908990899089908890600401613d94565b600060405180830381600087803b15801561252357600080fd5b505af1158015612537573d6000803e3d6000fd5b505050505b61158c565b60c9546001600160a01b031663efda4d3e8a8361255e8c8c61302f565b8a8a8a8a8a6040518963ffffffff1660e01b8152600401612586989796959493929190613c98565b600060405180830381600087803b1580156125a057600080fd5b505af1158015611852573d6000803e3d6000fd5b6125bc6122f7565b6001600160a01b03166125d76033546001600160a01b031690565b6001600160a01b03161461109f5760405162461bcd60e51b815260206004820181905260248201527f4f776e61626c653a2063616c6c6572206973206e6f7420746865206f776e65726044820152606401610b8f565b612635610adb565b156126785760405162461bcd60e51b8152602060048201526013602482015272109b1bd8dadb1a5cdd0e88111254d050931151606a1b6044820152606401610b8f565b60008051602061411c833981519152805460ff191660011790557f079c4efaefd9fc7ddb28144b9b0140c03f42922d28d0e226369d6070921581666126bb6122f7565b6040516001600160a01b03909116815260200160405180910390a1565b6110dc816126e46122f7565b613052565b6126f38282611a50565b6111695760008281526097602090815260408083206001600160a01b03851684529091529020805460ff1916600117905561272c6122f7565b6001600160a01b0316816001600160a01b0316837f2f8788117e7eff1d82e926ec794901d17c78024a50270940304540a733656f0d60405160405180910390a45050565b6110dc60008051602061415c83398151915282611f27565b6127928282611a50565b156111695760008281526097602090815260408083206001600160a01b03851684529091529020805460ff191690556127c96122f7565b6001600160a01b0316816001600160a01b0316837ff6391f5c32d9c69d2a47ea670b442974b53935d1edc7fd64eb21e047a839171b60405160405180910390a45050565b60006128198787612e93565b905061282481612f8f565b61282d87612ff1565b156129135760ca5460cc5460405163c36c212560e01b81526001600160a01b039283169263c36c212592612869928d928c921690600401613b8e565b600060405180830381600087803b15801561288357600080fd5b505af1158015612897573d6000803e3d6000fd5b50508515915061290e90505760cc54604051633a0deb9d60e21b81526001600160a01b039091169063e837ae74906128db9088908890889088908890600401613d94565b600060405180830381600087803b1580156128f557600080fd5b505af1158015612909573d6000803e3d6000fd5b505050505b61242e565b60c9546001600160a01b031663b0f5917789836129308b8b61302f565b898989896040518863ffffffff1660e01b81526004016129569796959493929190613c3b565b600060405180830381600087803b15801561297057600080fd5b505af1158015612984573d6000803e3d6000fd5b505050505050505050505050565b61299a611597565b6129dd5760405162461bcd60e51b815260206004820152601460248201527314185d5cd8589b194e881393d517d4105554d15160621b6044820152606401610b8f565b6000805160206140fc833981519152805460ff191690557f5db9ee0a495bf2e6ff9c91a7834c1ba4fdd244a5e8aa4e537bd38aeae4b073aa6126bb6122f7565b612a25610adb565b15612a685760405162461bcd60e51b8152602060048201526013602482015272109b1bd8dadb1a5cdd0e88111254d050931151606a1b6044820152606401610b8f565b604080517f1ec047073e2c8b15660901dbfdb6e3ff6365bd699dd9f95dcc6eab5448bebd696020820152908101829052600190612aa790606001611d85565b805460ff19169115159190911790556040518181527f2ce5d9351b1d590d5a066db0d2dc7602d55f092506a83a7ee8c4d78ee357d75a9060200160405180910390a150565b6000612b2e8585858080601f016020809104026020016040519081016040528093929190818152602001838380828437600092019190915250612e9392505050565b9050612b3981612f8f565b612b4285612ff1565b15612bba5760ca5460cc54604051630f95e75b60e31b81526001600160a01b0392831692637caf3ad892612b83928b928a928a929116908990600401613b44565b600060405180830381600087803b158015612b9d57600080fd5b505af1158015612bb1573d6000803e3d6000fd5b50505050610e21565b60c954604080516020601f87018190048102820181019092528581526001600160a01b039092169163b55bc6179189918591612c12918b918b908b908190840183828082843760009201919091525061302f92505050565b866040518563ffffffff1660e01b8152600401612c329493929190613d0a565b600060405180830381600087803b158015612c4c57600080fd5b505af1158015612c60573d6000803e3d6000fd5b50505050505050505050565b6110dc60008051602061415c83398151915282612e89565b603380546001600160a01b038381166001600160a01b0319831681179093556040519116919082907f8be0079c531659141344cd1fd0a4f28419497f9722a3daafe3b4186f6b6457e090600090a35050565b612cde611597565b15612cfb5760405162461bcd60e51b8152600401610b8f90613f33565b6000805160206140fc833981519152805460ff191660011790557f62e78cea01bee320cd4e420270b5ea74000d11b0c9f74754ebdbfc544b05a2586126bb6122f7565b612d46610adb565b612d875760405162461bcd60e51b8152602060048201526012602482015271109b1bd8dadb1a5cdd0e881153905093115160721b6044820152606401610b8f565b60008051602061411c833981519152805460ff191690557f316c4cec74b9568f102eda30781a2fe8cd5172329bf1401e804cb8c5131715c46126bb6122f7565b60005b818110156110c657612e01838383818110612df557634e487b7160e01b600052603260045260246000fd5b90506020020135612a1d565b80612e0b8161409f565b915050612dca565b612e1b6125b4565b6001600160a01b038116612e805760405162461bcd60e51b815260206004820152602660248201527f4f776e61626c653a206e6577206f776e657220697320746865207a65726f206160448201526564647265737360d01b6064820152608401610b8f565b6110dc81612c84565b61116982826126e9565b6000815160001415612ee75760405162461bcd60e51b815260206004820152601b60248201527f4d696e74696e674d616e616765723a204c4142454c5f454d50545900000000006044820152606401610b8f565b8282604051602001612ef991906139f7565b60405160208183030381529060405280519060200120604051602001612f29929190918252602082015260400190565b60408051601f1981840301815291905280516020909101209392505050565b7f893ef2ea16c023f61d4f55d3e6ee3fc3f2fbfd478461323dbc2fbf919047086e546000906001600160a01b0316331415612f8a575060331936013560601c90565b503390565b612f97610adb565b6110dc57612fa481611d3b565b156112ed5760405162461bcd60e51b815260206004820152601d60248201527f4d696e74696e674d616e616765723a20544f4b454e5f424c4f434b45440000006044820152606401610b8f565b60ca546000906001600160a01b0316158015906109fe5750507f0f4a10a4f46c288cea365fcf45cccf0e9d901b945b9829ccdb54c10dc3cb7a6f1490565b600082815260cd6020908152604091829020915160609261231b92859201613a13565b61305c8282611a50565b61116957613074816001600160a01b031660146130b6565b61307f8360206130b6565b604051602001613090929190613acf565b60408051601f198184030181529082905262461bcd60e51b8252610b8f91600401613e24565b606060006130c5836002614002565b6130d0906002613fea565b6001600160401b038111156130f557634e487b7160e01b600052604160045260246000fd5b6040519080825280601f01601f19166020018201604052801561311f576020820181803683370190505b509050600360fc1b8160008151811061314857634e487b7160e01b600052603260045260246000fd5b60200101906001600160f81b031916908160001a905350600f60fb1b8160018151811061318557634e487b7160e01b600052603260045260246000fd5b60200101906001600160f81b031916908160001a90535060006131a9846002614002565b6131b4906001613fea565b90505b6001811115613248576f181899199a1a9b1b9c1cb0b131b232b360811b85600f16601081106131f657634e487b7160e01b600052603260045260246000fd5b1a60f81b82828151811061321a57634e487b7160e01b600052603260045260246000fd5b60200101906001600160f81b031916908160001a90535060049490941c936132418161404d565b90506131b7565b5083156132975760405162461bcd60e51b815260206004820181905260248201527f537472696e67733a20686578206c656e67746820696e73756666696369656e746044820152606401610b8f565b9392505050565b5080546132aa90614064565b6000825580601f106132ba575050565b601f0160209004906000526020600020908101906110dc919061335c565b8280546132e490614064565b90600052602060002090601f016020900481019282613306576000855561334c565b82601f1061331f57805160ff191683800117855561334c565b8280016001018555821561334c579182015b8281111561334c578251825591602001919060010190613331565b5061335892915061335c565b5090565b5b80821115613358576000815560010161335d565b803561337c816140e6565b919050565b60008083601f840112613392578182fd5b5081356001600160401b038111156133a8578182fd5b6020830191508360208260051b85010111156133c357600080fd5b9250929050565b60008083601f8401126133db578182fd5b5081356001600160401b038111156133f1578182fd5b6020830191508360208285010111156133c357600080fd5b60006020828403121561341a578081fd5b8135613297816140e6565b6000806000806060858703121561343a578283fd5b8435613445816140e6565b93506020850135925060408501356001600160401b03811115613466578283fd5b613472878288016133ca565b95989497509550505050565b60008060008060008060008060a0898b031215613499578384fd5b88356134a4816140e6565b97506020890135965060408901356001600160401b03808211156134c6578586fd5b6134d28c838d016133ca565b909850965060608b01359150808211156134ea578586fd5b6134f68c838d01613381565b909650945060808b013591508082111561350e578384fd5b5061351b8b828c01613381565b999c989b5096995094979396929594505050565b60008060008060008060008060008060c08b8d03121561354d578182fd5b6135568b613371565b995060208b0135985060408b01356001600160401b0380821115613578578384fd5b6135848e838f016133ca565b909a50985060608d013591508082111561359c578384fd5b6135a88e838f01613381565b909850965060808d01359150808211156135c0578384fd5b6135cc8e838f01613381565b909650945060a08d01359150808211156135e4578384fd5b506135f18d828e016133ca565b915080935050809150509295989b9194979a5092959850565b60008060008060008060808789031215613622578182fd5b863561362d816140e6565b95506020870135945060408701356001600160401b038082111561364f578384fd5b61365b8a838b016133ca565b90965094506060890135915080821115613673578384fd5b5061368089828a016133ca565b979a9699509497509295939492505050565b600060208083850312156136a4578182fd5b82356001600160401b03808211156136ba578384fd5b818501915085601f8301126136cd578384fd5b8135818111156136df576136df6140d0565b8060051b604051601f19603f83011681018181108582111715613704576137046140d0565b604052828152858101935084860182860187018a1015613722578788fd5b8795505b8386101561374b5761373781613371565b855260019590950194938601938601613726565b5098975050505050505050565b6000806020838503121561376a578182fd5b82356001600160401b0381111561377f578283fd5b61378b85828601613381565b90969095509350505050565b6000602082840312156137a8578081fd5b81518015158114613297578182fd5b6000602082840312156137c8578081fd5b5035919050565b600080604083850312156137e1578182fd5b8235915060208301356137f3816140e6565b809150509250929050565b60006020828403121561380f578081fd5b81356001600160e01b031981168114613297578182fd5b600080600080600060a0868803121561383d578283fd5b8535613848816140e6565b94506020860135613858816140e6565b93506040860135613868816140e6565b92506060860135613878816140e6565b91506080860135613888816140e6565b809150509295509295909350565b600080602083850312156138a8578182fd5b82356001600160401b038111156138bd578283fd5b61378b858286016133ca565b6000806000604084860312156138dd578081fd5b8335925060208401356001600160401b038111156138f9578182fd5b613905868287016133ca565b9497909650939450505050565b60008383855260208086019550808560051b83010184845b8781101561399557848303601f19018952813536889003601e1901811261394f578687fd5b870180356001600160401b03811115613966578788fd5b803603891315613974578788fd5b61398185828885016139ce565b9a86019a945050509083019060010161392a565b5090979650505050505050565b600081518084526139ba816020860160208601614021565b601f01601f19169290920160200192915050565b81835281816020850137506000828201602090810191909152601f909101601f19169091010190565b60008251613a09818460208701614021565b9190910192915050565b600083516020613a268285838901614021565b8184019150601760f91b82526001838654613a4081614064565b8184168015613a565760018114613a6b57613a98565b60ff1983168786015281870185019350613a98565b898852858820885b83811015613a8e578154898201880152908601908701613a73565b5050848288010193505b50919998505050505050505050565b6b756e732d646576746573742d60a01b81528183600c83013760009101600c01908152919050565b7f416363657373436f6e74726f6c3a206163636f756e7420000000000000000000815260008351613b07816017850160208801614021565b7001034b99036b4b9b9b4b733903937b6329607d1b6017918401918201528351613b38816028840160208801614021565b01602801949350505050565b600060018060a01b03808816835260806020840152613b676080840187896139ce565b81861660408501528381036060850152613b8181866139a2565b9998505050505050505050565b600060018060a01b03808616835260606020840152613bb060608401866139a2565b9150808416604084015250949350505050565b600060018060a01b03808716835260806020840152613be560808401876139a2565b81861660408501528381036060850152613bff81866139a2565b98975050505050505050565b60018060a01b0384168152826020820152606060408201526000613c3260608301846139a2565b95945050505050565b60018060a01b038816815286602082015260a060408201526000613c6260a08301886139a2565b8281036060840152613c75818789613912565b90508281036080840152613c8a818587613912565b9a9950505050505050505050565b60018060a01b038916815287602082015260c060408201526000613cbf60c08301896139a2565b8281036060840152613cd281888a613912565b90508281036080840152613ce7818688613912565b905082810360a0840152613cfb81856139a2565b9b9a5050505050505050505050565b60018060a01b0385168152836020820152608060408201526000613d3160808301856139a2565b8281036060840152613d4381856139a2565b979650505050505050565b6020808252825182820181905260009190848201906040850190845b81811015613d88578351151583529284019291840191600101613d6a565b50909695505050505050565b606081526000613da8606083018789613912565b8281036020840152613dbb818688613912565b9150508260408301529695505050505050565b6020808252810182905260006001600160fb1b03831115613ded578081fd5b8260051b808560408501379190910160400190815292915050565b602081526000613e1c6020830184866139ce565b949350505050565b60208152600061329760208301846139a2565b60006020808352818454613e4a81614064565b80848701526040600180841660008114613e6b5760018114613e7f57613eaa565b60ff19851689840152606089019550613eaa565b898852868820885b85811015613ea25781548b8201860152908301908801613e87565b8a0184019650505b509398975050505050505050565b60208082526026908201527f4d696e74696e674d616e616765723a20544f4b454e5f4c4142454c5f50524f4860408201526512509255115160d21b606082015260800190565b6020808252818101527f4d696e746572526f6c653a2043414c4c45525f49535f4e4f545f4d494e544552604082015260600190565b60208082526010908201526f14185d5cd8589b194e8814105554d15160821b604082015260600190565b60208082526022908201527f4d696e74696e674d616e616765723a20544c445f4e4f545f5245474953544552604082015261115160f21b606082015260800190565b6020808252602b908201527f496e697469616c697a61626c653a20636f6e7472616374206973206e6f74206960408201526a6e697469616c697a696e6760a81b606082015260800190565b60008219821115613ffd57613ffd6140ba565b500190565b600081600019048311821515161561401c5761401c6140ba565b500290565b60005b8381101561403c578181015183820152602001614024565b838111156124335750506000910152565b60008161405c5761405c6140ba565b506000190190565b600181811c9082168061407857607f821691505b6020821081141561409957634e487b7160e01b600052602260045260246000fd5b50919050565b60006000198214156140b3576140b36140ba565b5060010190565b634e487b7160e01b600052601160045260246000fd5b634e487b7160e01b600052604160045260246000fd5b6001600160a01b03811681146110dc57600080fdfe5496787fc1ebdfeba375028c1865f13fbb1d63c0caa356ccc1b29a80f3ebd622a85b8425a460dd344a297bd4a82e287385f0fc558cb3e78867b0489f43df2470b551e0305c8163b812374b8e78b577c77f226f6f10c5ad03e52699578fbc34b89f2df0fed2c77648de5860a4cc508cd0818c85b8b8a1ab4ceeef8d981c8956a6a164736f6c6343000804000a",
  "linkReferences": {},
  "deployedLinkReferences": {}
}