{
  "_format": "hh-sol-artifact-1",
  "contractName": "MintingManager",
  "sourceName": "contracts/MintingManager.sol",
  "abi": [
    {
      "anonymous": false,
      "inputs": [
        {
          "indexed": false,
          "internalType": "uint256",
          "name": "tokenId",
          "type": "uint256"
        }
      ],
      "name": "Blocked",
      "type": "event"
    },
    {
      "anonymous": false,
      "inputs": [
        {
          "indexed": true,
          "internalType": "address",
          "name": "previousOwner",
          "type": "address"
        },
        {
          "indexed": true,
          "internalType": "address",
          "name": "newOwner",
          "type": "address"
        }
      ],
      "name": "OwnershipTransferred",
      "type": "event"
    },
    {
      "anonymous": false,
      "inputs": [
        {
          "indexed": true,
          "internalType": "address",
          "name": "sender",
          "type": "address"
        },
        {
          "indexed": true,
          "internalType": "address",
          "name": "signer",
          "type": "address"
        },
        {
          "indexed": true,
          "internalType": "bytes4",
          "name": "funcSig",
          "type": "bytes4"
        },
        {
          "indexed": false,
          "internalType": "bytes32",
          "name": "digest",
          "type": "bytes32"
        }
      ],
      "name": "Relayed",
      "type": "event"
    },
    {
      "anonymous": false,
      "inputs": [
        {
          "indexed": true,
          "internalType": "bytes32",
          "name": "role",
          "type": "bytes32"
        },
        {
          "indexed": true,
          "internalType": "bytes32",
          "name": "previousAdminRole",
          "type": "bytes32"
        },
        {
          "indexed": true,
          "internalType": "bytes32",
          "name": "newAdminRole",
          "type": "bytes32"
        }
      ],
      "name": "RoleAdminChanged",
      "type": "event"
    },
    {
      "anonymous": false,
      "inputs": [
        {
          "indexed": true,
          "internalType": "bytes32",
          "name": "role",
          "type": "bytes32"
        },
        {
          "indexed": true,
          "internalType": "address",
          "name": "account",
          "type": "address"
        },
        {
          "indexed": true,
          "internalType": "address",
          "name": "sender",
          "type": "address"
        }
      ],
      "name": "RoleGranted",
      "type": "event"
    },
    {
      "anonymous": false,
      "inputs": [
        {
          "indexed": true,
          "internalType": "bytes32",
          "name": "role",
          "type": "bytes32"
        },
        {
          "indexed": true,
          "internalType": "address",
          "name": "account",
          "type": "address"
        },
        {
          "indexed": true,
          "internalType": "address",
          "name": "sender",
          "type": "address"
        }
      ],
      "name": "RoleRevoked",
      "type": "event"
    },
    {
      "inputs": [],
      "name": "DEFAULT_ADMIN_ROLE",
      "outputs": [
        {
          "internalType": "bytes32",
          "name": "",
          "type": "bytes32"
        }
      ],
      "stateMutability": "view",
      "type": "function"
    },
    {
      "inputs": [],
      "name": "MINTER_ROLE",
      "outputs": [
        {
          "internalType": "bytes32",
          "name": "",
          "type": "bytes32"
        }
      ],
      "stateMutability": "view",
      "type": "function"
    },
    {
      "inputs": [],
      "name": "NAME",
      "outputs": [
        {
          "internalType": "string",
          "name": "",
          "type": "string"
        }
      ],
      "stateMutability": "view",
      "type": "function"
    },
    {
      "inputs": [],
      "name": "VERSION",
      "outputs": [
        {
          "internalType": "string",
          "name": "",
          "type": "string"
        }
      ],
      "stateMutability": "view",
      "type": "function"
    },
    {
      "inputs": [
        {
          "internalType": "address",
          "name": "account",
          "type": "address"
        }
      ],
      "name": "addMinter",
      "outputs": [],
      "stateMutability": "nonpayable",
      "type": "function"
    },
    {
      "inputs": [
        {
          "internalType": "address[]",
          "name": "accounts",
          "type": "address[]"
        }
      ],
      "name": "addMinters",
      "outputs": [],
      "stateMutability": "nonpayable",
      "type": "function"
    },
    {
      "inputs": [
        {
          "internalType": "uint256[]",
          "name": "tokenIds",
          "type": "uint256[]"
        }
      ],
      "name": "areBlocked",
      "outputs": [
        {
          "internalType": "bool[]",
          "name": "values",
          "type": "bool[]"
        }
      ],
      "stateMutability": "view",
      "type": "function"
    },
    {
      "inputs": [
        {
          "internalType": "uint256",
          "name": "tokenId",
          "type": "uint256"
        }
      ],
      "name": "blocklist",
      "outputs": [],
      "stateMutability": "nonpayable",
      "type": "function"
    },
    {
      "inputs": [
        {
          "internalType": "uint256[]",
          "name": "tokenIds",
          "type": "uint256[]"
        }
      ],
      "name": "blocklistAll",
      "outputs": [],
      "stateMutability": "nonpayable",
      "type": "function"
    },
    {
      "inputs": [
        {
          "internalType": "uint256",
          "name": "tld",
          "type": "uint256"
        },
        {
          "internalType": "string",
          "name": "label",
          "type": "string"
        }
      ],
      "name": "claim",
      "outputs": [],
      "stateMutability": "nonpayable",
      "type": "function"
    },
    {
      "inputs": [
        {
          "internalType": "address",
          "name": "to",
          "type": "address"
        },
        {
          "internalType": "uint256",
          "name": "tld",
          "type": "uint256"
        },
        {
          "internalType": "string",
          "name": "label",
          "type": "string"
        }
      ],
      "name": "claimTo",
      "outputs": [],
      "stateMutability": "nonpayable",
      "type": "function"
    },
    {
      "inputs": [
        {
          "internalType": "address",
          "name": "to",
          "type": "address"
        },
        {
          "internalType": "uint256",
          "name": "tld",
          "type": "uint256"
        },
        {
          "internalType": "string",
          "name": "label",
          "type": "string"
        },
        {
          "internalType": "string[]",
          "name": "keys",
          "type": "string[]"
        },
        {
          "internalType": "string[]",
          "name": "values",
          "type": "string[]"
        }
      ],
      "name": "claimToWithRecords",
      "outputs": [],
      "stateMutability": "nonpayable",
      "type": "function"
    },
    {
      "inputs": [
        {
          "internalType": "address payable",
          "name": "receiver",
          "type": "address"
        }
      ],
      "name": "closeMinter",
      "outputs": [],
      "stateMutability": "payable",
      "type": "function"
    },
    {
      "inputs": [],
      "name": "cnsMintingController",
      "outputs": [
        {
          "internalType": "contract IMintingController",
          "name": "",
          "type": "address"
        }
      ],
      "stateMutability": "view",
      "type": "function"
    },
    {
      "inputs": [],
      "name": "cnsResolver",
      "outputs": [
        {
          "internalType": "contract IResolver",
          "name": "",
          "type": "address"
        }
      ],
      "stateMutability": "view",
      "type": "function"
    },
    {
      "inputs": [],
      "name": "cnsURIPrefixController",
      "outputs": [
        {
          "internalType": "contract IURIPrefixController",
          "name": "",
          "type": "address"
        }
      ],
      "stateMutability": "view",
      "type": "function"
    },
    {
      "inputs": [
        {
          "internalType": "bytes32",
          "name": "role",
          "type": "bytes32"
        }
      ],
      "name": "getRoleAdmin",
      "outputs": [
        {
          "internalType": "bytes32",
          "name": "",
          "type": "bytes32"
        }
      ],
      "stateMutability": "view",
      "type": "function"
    },
    {
      "inputs": [
        {
          "internalType": "bytes32",
          "name": "role",
          "type": "bytes32"
        },
        {
          "internalType": "address",
          "name": "account",
          "type": "address"
        }
      ],
      "name": "grantRole",
      "outputs": [],
      "stateMutability": "nonpayable",
      "type": "function"
    },
    {
      "inputs": [
        {
          "internalType": "bytes32",
          "name": "role",
          "type": "bytes32"
        },
        {
          "internalType": "address",
          "name": "account",
          "type": "address"
        }
      ],
      "name": "hasRole",
      "outputs": [
        {
          "internalType": "bool",
          "name": "",
          "type": "bool"
        }
      ],
      "stateMutability": "view",
      "type": "function"
    },
    {
      "inputs": [
        {
          "internalType": "contract IUNSRegistry",
          "name": "unsRegistry_",
          "type": "address"
        },
        {
          "internalType": "contract IMintingController",
          "name": "cnsMintingController_",
          "type": "address"
        },
        {
          "internalType": "contract IURIPrefixController",
          "name": "cnsURIPrefixController_",
          "type": "address"
        },
        {
          "internalType": "contract IResolver",
          "name": "cnsResolver_",
          "type": "address"
        },
        {
          "internalType": "address",
          "name": "forwarder",
          "type": "address"
        }
      ],
      "name": "initialize",
      "outputs": [],
      "stateMutability": "nonpayable",
      "type": "function"
    },
    {
      "inputs": [
        {
          "internalType": "uint256",
          "name": "tokenId",
          "type": "uint256"
        }
      ],
      "name": "isBlocked",
      "outputs": [
        {
          "internalType": "bool",
          "name": "",
          "type": "bool"
        }
      ],
      "stateMutability": "view",
      "type": "function"
    },
    {
      "inputs": [
        {
          "internalType": "address",
          "name": "account",
          "type": "address"
        }
      ],
      "name": "isMinter",
      "outputs": [
        {
          "internalType": "bool",
          "name": "",
          "type": "bool"
        }
      ],
      "stateMutability": "view",
      "type": "function"
    },
    {
      "inputs": [
        {
          "internalType": "address",
          "name": "forwarder",
          "type": "address"
        }
      ],
      "name": "isTrustedForwarder",
      "outputs": [
        {
          "internalType": "bool",
          "name": "",
          "type": "bool"
        }
      ],
      "stateMutability": "view",
      "type": "function"
    },
    {
      "inputs": [
        {
          "internalType": "address",
          "name": "to",
          "type": "address"
        },
        {
          "internalType": "uint256",
          "name": "tld",
          "type": "uint256"
        },
        {
          "internalType": "string",
          "name": "label",
          "type": "string"
        }
      ],
      "name": "mintSLD",
      "outputs": [],
      "stateMutability": "nonpayable",
      "type": "function"
    },
    {
      "inputs": [
        {
          "internalType": "address",
          "name": "to",
          "type": "address"
        },
        {
          "internalType": "uint256",
          "name": "tld",
          "type": "uint256"
        },
        {
          "internalType": "string",
          "name": "label",
          "type": "string"
        },
        {
          "internalType": "string[]",
          "name": "keys",
          "type": "string[]"
        },
        {
          "internalType": "string[]",
          "name": "values",
          "type": "string[]"
        }
      ],
      "name": "mintSLDWithRecords",
      "outputs": [],
      "stateMutability": "nonpayable",
      "type": "function"
    },
    {
      "inputs": [],
      "name": "owner",
      "outputs": [
        {
          "internalType": "address",
          "name": "",
          "type": "address"
        }
      ],
      "stateMutability": "view",
      "type": "function"
    },
    {
      "inputs": [
        {
          "internalType": "bytes",
          "name": "data",
          "type": "bytes"
        },
        {
          "internalType": "bytes",
          "name": "signature",
          "type": "bytes"
        }
      ],
      "name": "relay",
      "outputs": [
        {
          "internalType": "bytes",
          "name": "",
          "type": "bytes"
        }
      ],
      "stateMutability": "nonpayable",
      "type": "function"
    },
    {
      "inputs": [
        {
          "internalType": "address",
          "name": "account",
          "type": "address"
        }
      ],
      "name": "removeMinter",
      "outputs": [],
      "stateMutability": "nonpayable",
      "type": "function"
    },
    {
      "inputs": [
        {
          "internalType": "address[]",
          "name": "accounts",
          "type": "address[]"
        }
      ],
      "name": "removeMinters",
      "outputs": [],
      "stateMutability": "nonpayable",
      "type": "function"
    },
    {
      "inputs": [],
      "name": "renounceMinter",
      "outputs": [],
      "stateMutability": "nonpayable",
      "type": "function"
    },
    {
      "inputs": [],
      "name": "renounceOwnership",
      "outputs": [],
      "stateMutability": "nonpayable",
      "type": "function"
    },
    {
      "inputs": [
        {
          "internalType": "bytes32",
          "name": "role",
          "type": "bytes32"
        },
        {
          "internalType": "address",
          "name": "account",
          "type": "address"
        }
      ],
      "name": "renounceRole",
      "outputs": [],
      "stateMutability": "nonpayable",
      "type": "function"
    },
    {
      "inputs": [
        {
          "internalType": "bytes32",
          "name": "role",
          "type": "bytes32"
        },
        {
          "internalType": "address",
          "name": "account",
          "type": "address"
        }
      ],
      "name": "revokeRole",
      "outputs": [],
      "stateMutability": "nonpayable",
      "type": "function"
    },
    {
      "inputs": [
        {
          "internalType": "address payable",
          "name": "receiver",
          "type": "address"
        }
      ],
      "name": "rotateMinter",
      "outputs": [],
      "stateMutability": "payable",
      "type": "function"
    },
    {
      "inputs": [
        {
          "internalType": "address",
          "name": "to",
          "type": "address"
        },
        {
          "internalType": "uint256",
          "name": "tld",
          "type": "uint256"
        },
        {
          "internalType": "string",
          "name": "label",
          "type": "string"
        }
      ],
      "name": "safeMintSLD",
      "outputs": [],
      "stateMutability": "nonpayable",
      "type": "function"
    },
    {
      "inputs": [
        {
          "internalType": "address",
          "name": "to",
          "type": "address"
        },
        {
          "internalType": "uint256",
          "name": "tld",
          "type": "uint256"
        },
        {
          "internalType": "string",
          "name": "label",
          "type": "string"
        },
        {
          "internalType": "bytes",
          "name": "data",
          "type": "bytes"
        }
      ],
      "name": "safeMintSLD",
      "outputs": [],
      "stateMutability": "nonpayable",
      "type": "function"
    },
    {
      "inputs": [
        {
          "internalType": "address",
          "name": "to",
          "type": "address"
        },
        {
          "internalType": "uint256",
          "name": "tld",
          "type": "uint256"
        },
        {
          "internalType": "string",
          "name": "label",
          "type": "string"
        },
        {
          "internalType": "string[]",
          "name": "keys",
          "type": "string[]"
        },
        {
          "internalType": "string[]",
          "name": "values",
          "type": "string[]"
        }
      ],
      "name": "safeMintSLDWithRecords",
      "outputs": [],
      "stateMutability": "nonpayable",
      "type": "function"
    },
    {
      "inputs": [
        {
          "internalType": "address",
          "name": "to",
          "type": "address"
        },
        {
          "internalType": "uint256",
          "name": "tld",
          "type": "uint256"
        },
        {
          "internalType": "string",
          "name": "label",
          "type": "string"
        },
        {
          "internalType": "string[]",
          "name": "keys",
          "type": "string[]"
        },
        {
          "internalType": "string[]",
          "name": "values",
          "type": "string[]"
        },
        {
          "internalType": "bytes",
          "name": "data",
          "type": "bytes"
        }
      ],
      "name": "safeMintSLDWithRecords",
      "outputs": [],
      "stateMutability": "nonpayable",
      "type": "function"
    },
    {
      "inputs": [
        {
          "internalType": "address",
          "name": "forwarder",
          "type": "address"
        }
      ],
      "name": "setForwarder",
      "outputs": [],
      "stateMutability": "nonpayable",
      "type": "function"
    },
    {
      "inputs": [
        {
          "internalType": "address",
          "name": "resolver",
          "type": "address"
        }
      ],
      "name": "setResolver",
      "outputs": [],
      "stateMutability": "nonpayable",
      "type": "function"
    },
    {
      "inputs": [
        {
          "internalType": "string",
          "name": "prefix",
          "type": "string"
        }
      ],
      "name": "setTokenURIPrefix",
      "outputs": [],
      "stateMutability": "nonpayable",
      "type": "function"
    },
    {
      "inputs": [
        {
          "internalType": "bytes4",
          "name": "interfaceId",
          "type": "bytes4"
        }
      ],
      "name": "supportsInterface",
      "outputs": [
        {
          "internalType": "bool",
          "name": "",
          "type": "bool"
        }
      ],
      "stateMutability": "view",
      "type": "function"
    },
    {
      "inputs": [
        {
          "internalType": "address",
          "name": "newOwner",
          "type": "address"
        }
      ],
      "name": "transferOwnership",
      "outputs": [],
      "stateMutability": "nonpayable",
      "type": "function"
    },
    {
      "inputs": [],
      "name": "unsRegistry",
      "outputs": [
        {
          "internalType": "contract IUNSRegistry",
          "name": "",
          "type": "address"
        }
      ],
      "stateMutability": "view",
      "type": "function"
    }
  ],
  "bytecode": "0x608060405234801561001057600080fd5b50613e86806100206000396000f3fe6080604052600436106102675760003560e01c806371e2a65711610144578063aa271e1a116100b6578063ceeb4f501161007a578063ceeb4f50146106fb578063d53913931461071b578063d547741f14610730578063e47d6cc614610750578063f2fde38b14610770578063ffa1ad741461079057610267565b8063aa271e1a14610666578063ae2ad90314610686578063b0aa98c7146106a6578063b9998a24146106c6578063cc2c3fc4146106e657610267565b8063983b2d5611610108578063983b2d56146105d257806398650275146105f257806399e0dd7c14610607578063a217fddf14610627578063a3f4df7e1461063c578063a849d65c1461065157610267565b806371e2a6571461054a57806381c81d351461056a5780638da5cb5b1461057d578063906cecc11461059257806391d14854146105b257610267565b8063463c4bcb116101dd57806358839d6b116101a157806358839d6b146104ad5780635b6fa8db146104cd5780635fc1964f146104e2578063634486da146105025780636a2d225614610515578063715018a61461053557610267565b8063463c4bcb146104005780634c1819e0146104205780634e543b2614610440578063564a515814610460578063572b6c051461048d57610267565b806327bbd2251161022f57806327bbd2251461033e5780632f2ff15d1461035e5780633092afd51461037e57806336568abe1461039e57806339ccf4d0146103be5780633f41b614146103de57610267565b806301ffc9a71461026c5780630e36a87d146102a25780631459457a146102cf578063248a9ca3146102f1578063268b15ed1461031e575b600080fd5b34801561027857600080fd5b5061028c6102873660046131ac565b6107a5565b6040516102999190613876565b60405180910390f35b3480156102ae57600080fd5b506102c26102bd366004613106565b6107d2565b60405161029991906137f6565b3480156102db57600080fd5b506102ef6102ea366004613230565b6108a9565b005b3480156102fd57600080fd5b5061031161030c366004613165565b610ceb565b6040516102999190613881565b34801561032a57600080fd5b506102ef6103393660046132d3565b610d00565b34801561034a57600080fd5b506102ef610359366004612e32565b610d5d565b34801561036a57600080fd5b506102ef61037936600461317d565b610e20565b34801561038a57600080fd5b506102ef610399366004612dbd565b610e49565b3480156103aa57600080fd5b506102ef6103b936600461317d565b610e94565b3480156103ca57600080fd5b506102ef6103d9366004612e32565b610eda565b3480156103ea57600080fd5b506103f3610f84565b60405161029991906135e1565b34801561040c57600080fd5b506102ef61041b366004613165565b610f93565b34801561042c57600080fd5b506102ef61043b366004612dd9565b610fc3565b34801561044c57600080fd5b506102ef61045b366004612dbd565b611049565b34801561046c57600080fd5b5061048061047b3660046131d4565b6110aa565b60405161029991906138a8565b34801561049957600080fd5b5061028c6104a8366004612dbd565b611275565b3480156104b957600080fd5b506102ef6104c8366004612fbe565b6112b6565b3480156104d957600080fd5b506103f3611365565b3480156104ee57600080fd5b506102ef6104fd366004613046565b611374565b6102ef610510366004612dbd565b611401565b34801561052157600080fd5b506102ef610530366004612ee3565b611494565b34801561054157600080fd5b506102ef611581565b34801561055657600080fd5b506102ef610565366004613046565b61160a565b6102ef610578366004612dbd565b611697565b34801561058957600080fd5b506103f36116e4565b34801561059e57600080fd5b506102ef6105ad366004612dd9565b6116f4565b3480156105be57600080fd5b5061028c6105cd36600461317d565b61173f565b3480156105de57600080fd5b506102ef6105ed366004612dbd565b61176a565b3480156105fe57600080fd5b506102ef6117b2565b34801561061357600080fd5b506102ef6106223660046132a0565b6117ce565b34801561063357600080fd5b506103116118e4565b34801561064857600080fd5b506104806118e9565b34801561065d57600080fd5b506103f3611919565b34801561067257600080fd5b5061028c610681366004612dbd565b611928565b34801561069257600080fd5b506102ef6106a1366004612dd9565b611942565b3480156106b257600080fd5b5061028c6106c1366004613165565b6119e6565b3480156106d257600080fd5b506102ef6106e1366004612dbd565b611a46565b3480156106f257600080fd5b506103f3611a8e565b34801561070757600080fd5b506102ef610716366004612e32565b611a9d565b34801561072757600080fd5b50610311611af1565b34801561073c57600080fd5b506102ef61074b36600461317d565b611b03565b34801561075c57600080fd5b506102ef61076b366004613106565b611b22565b34801561077c57600080fd5b506102ef61078b366004612dbd565b611b53565b34801561079c57600080fd5b50610480611ba6565b60006001600160e01b03198216637965db0b60e01b14806107ca57506107ca82611bc7565b90505b919050565b6060816001600160401b038111156107fa57634e487b7160e01b600052604160045260246000fd5b604051908082528060200260200182016040528015610823578160200160208202803683370190505b50905060005b828110156108a25761086084848381811061085457634e487b7160e01b600052603260045260246000fd5b905060200201356119e6565b82828151811061088057634e487b7160e01b600052603260045260246000fd5b911515602092830291909101909101528061089a81613db4565b915050610829565b5092915050565b600054610100900460ff16806108c2575060005460ff16155b6108e75760405162461bcd60e51b81526004016108de90613aed565b60405180910390fd5b600054610100900460ff16158015610912576000805460ff1961ff0019909116610100171660011790555b60c980546001600160a01b038089166001600160a01b03199283161790925560ca805488841690831617905560cb805487841690831617905560cc805492861692909116919091179055610964611be0565b61096c611cac565b61097582611d32565b61097e30611db0565b60408051808201909152600681526563727970746f60d01b6020808301918252600080516020613e3183398151915260005260cd905290516109e1917f9535d3ea47c5e1398d3405b4fadc73de6b1b1e6a66f674a8886ab7a6c873a39091612c92565b50604080516101408101825260066101008201908152651dd85b1b195d60d21b610120830152815281518083018352600481526331b7b4b760e11b602082810191909152808301919091528251808401845260018152600f60fb1b8183015282840152825180840184526003808252621b999d60ea1b82840152606084019190915283518085018552600a815269313637b1b5b1b430b4b760b11b8184015260808401528351808501855260078152663134ba31b7b4b760c91b8184015260a0840152835180850185528181526207070760eb1b8184015260c0840152835180850190945283526264616f60e81b9083015260e081019190915260005b6008811015610ccf57600080838360088110610b0a57634e487b7160e01b600052603260045260246000fd5b6020020151604051602001610b1f919061343a565b60405160208183030381529060405280519060200120604051602001610b4692919061341c565b6040516020818303038152906040528051906020012060001c9050828260088110610b8157634e487b7160e01b600052603260045260246000fd5b602002015160cd60008381526020019081526020016000209080519060200190610bac929190612c92565b5060c954604051634f558e7960e01b81526001600160a01b0390911690634f558e7990610bdd908490600401613881565b60206040518083038186803b158015610bf557600080fd5b505afa158015610c09573d6000803e3d6000fd5b505050506040513d601f19601f82011682018060405250810190610c2d9190613145565b610cbc5760c9546001600160a01b031663d3fc986461dead83868660088110610c6657634e487b7160e01b600052603260045260246000fd5b60200201516040518463ffffffff1660e01b8152600401610c89939291906136bc565b600060405180830381600087803b158015610ca357600080fd5b505af1158015610cb7573d6000803e3d6000fd5b505050505b5080610cc781613db4565b915050610ade565b50508015610ce3576000805461ff00191690555b505050505050565b60009081526097602052604090206001015490565b600083815260cd60205260408120805485929190610d1d90613d79565b905011610d3c5760405162461bcd60e51b81526004016108de90613c62565b610d57610d47611dc8565b85610d528686611dd7565b611e03565b50505050565b610d68610681611dc8565b610d845760405162461bcd60e51b81526004016108de90613b3b565b600087815260cd60205260408120805489929190610da190613d79565b905011610dc05760405162461bcd60e51b81526004016108de90613c62565b610e15898989898080601f016020809104026020016040519081016040528093929190818152602001838380828437600092018290525060408051602081019091529081528c93508b92508a91508990611f11565b505050505050505050565b610e2982610ceb565b610e3a81610e35611dc8565b6120a3565b610e448383612107565b505050565b610e51611dc8565b6001600160a01b0316610e626116e4565b6001600160a01b031614610e885760405162461bcd60e51b81526004016108de90613bf6565b610e918161218e565b50565b610e9c611dc8565b6001600160a01b0316816001600160a01b031614610ecc5760405162461bcd60e51b81526004016108de90613ca4565b610ed682826121a6565b5050565b610ee5610681611dc8565b610f015760405162461bcd60e51b81526004016108de90613b3b565b600087815260cd60205260408120805489929190610f1e90613d79565b905011610f3d5760405162461bcd60e51b81526004016108de90613c62565b610e15898989898080601f0160208091040260200160405190810160405280939291908181526020018383808284376000920191909152508b92508a91508990508861222b565b60c9546001600160a01b031681565b610f9e610681611dc8565b610fba5760405162461bcd60e51b81526004016108de90613b3b565b610e91816123b8565b610fce610681611dc8565b610fea5760405162461bcd60e51b81526004016108de90613b3b565b600083815260cd6020526040812080548592919061100790613d79565b9050116110265760405162461bcd60e51b81526004016108de90613c62565b611042858585856040518060200160405280600081525061243d565b5050505050565b611051611dc8565b6001600160a01b03166110626116e4565b6001600160a01b0316146110885760405162461bcd60e51b81526004016108de90613bf6565b60cc80546001600160a01b0319166001600160a01b0392909216919091179055565b6060600085856040516110be92919061342a565b60405180910390209050600061113b85858080601f01602080910402602001604051908101604052809392919081815260200183838082843760009201919091525050604051611135925061111a9150869030906020016133fc565b604051602081830303815290604052805190602001206125c5565b906125f5565b905060008088888080601f0160208091040260200160405190810160405280939291908181526020018383808284376000920191909152505050506020810151925090506111888361267b565b611193828a8a6126a9565b600080306001600160a01b03168b8b6040516111b092919061342a565b6000604051808303816000865af19150503d80600081146111ed576040519150601f19603f3d011682016040523d82523d6000602084013e6111f2565b606091505b5090925090508161120a576040513d806000833e8082fd5b6001600160e01b031984166001600160a01b038616611227611dc8565b6001600160a01b03167f9490f91465d0d2c12728b9ad47d5f1dd2ac3ef39394796e54a48b94db0b337258960405161125f9190613881565b60405180910390a49a9950505050505050505050565b60006112a07f893ef2ea16c023f61d4f55d3e6ee3fc3f2fbfd478461323dbc2fbf919047086e6116f1565b546001600160a01b038381169116149050919050565b6112c1610681611dc8565b6112dd5760405162461bcd60e51b81526004016108de90613b3b565b600085815260cd602052604081208054879291906112fa90613d79565b9050116113195760405162461bcd60e51b81526004016108de90613c62565b61135c8787878787878080601f01602080910402602001604051908101604052809392919081815260200183838082843760009201919091525061243d92505050565b50505050505050565b60cc546001600160a01b031681565b61137c611dc8565b6001600160a01b031661138d6116e4565b6001600160a01b0316146113b35760405162461bcd60e51b81526004016108de90613bf6565b60005b8151811015610ed6576113ef8282815181106113e257634e487b7160e01b600052603260045260246000fd5b602002602001015161218e565b806113f981613db4565b9150506113b6565b61140c610681611dc8565b6114285760405162461bcd60e51b81526004016108de90613b3b565b6001600160a01b03811661144e5760405162461bcd60e51b81526004016108de90613a3d565b61145781611db0565b61145f6117b2565b6040516001600160a01b038216903480156108fc02916000818181858888f19350505050158015610ed6573d6000803e3d6000fd5b61149f610681611dc8565b6114bb5760405162461bcd60e51b81526004016108de90613b3b565b600089815260cd6020526040812080548b9291906114d890613d79565b9050116114f75760405162461bcd60e51b81526004016108de90613c62565b6115748b8b8b8b8080601f01602080910402602001604051908101604052809392919081815260200183838082843760009201919091525050604080516020601f8b018190048102820181019092528981528e93508d92508c918c91908c908c9081908401838280828437600092019190915250611f1192505050565b5050505050505050505050565b611589611dc8565b6001600160a01b031661159a6116e4565b6001600160a01b0316146115c05760405162461bcd60e51b81526004016108de90613bf6565b6033546040516000916001600160a01b0316907f8be0079c531659141344cd1fd0a4f28419497f9722a3daafe3b4186f6b6457e0908390a3603380546001600160a01b0319169055565b611612611dc8565b6001600160a01b03166116236116e4565b6001600160a01b0316146116495760405162461bcd60e51b81526004016108de90613bf6565b60005b8151811015610ed65761168582828151811061167857634e487b7160e01b600052603260045260246000fd5b6020026020010151611db0565b8061168f81613db4565b91505061164c565b6116a2610681611dc8565b6116be5760405162461bcd60e51b81526004016108de90613b3b565b6001600160a01b0381166114575760405162461bcd60e51b81526004016108de90613a3d565b6033546001600160a01b03165b90565b600083815260cd6020526040812080548592919061171190613d79565b9050116117305760405162461bcd60e51b81526004016108de90613c62565b6110428585610d528686611dd7565b60009182526097602090815260408084206001600160a01b0393909316845291905290205460ff1690565b611772611dc8565b6001600160a01b03166117836116e4565b6001600160a01b0316146117a95760405162461bcd60e51b81526004016108de90613bf6565b610e9181611db0565b6117cc600080516020613e118339815191526103b9611dc8565b565b6117d6611dc8565b6001600160a01b03166117e76116e4565b6001600160a01b03161461180d5760405162461bcd60e51b81526004016108de90613bf6565b60c954604051632678375f60e21b81526001600160a01b03909116906399e0dd7c9061183f90859085906004016138bb565b600060405180830381600087803b15801561185957600080fd5b505af115801561186d573d6000803e3d6000fd5b505060cb546001600160a01b0316159150610ed690505760cb54604051632678375f60e21b81526001600160a01b03909116906399e0dd7c906118b690859085906004016138bb565b600060405180830381600087803b1580156118d057600080fd5b505af1158015610ce3573d6000803e3d6000fd5b600081565b604051806040016040528060148152602001732aa7299d1026b4b73a34b7339026b0b730b3b2b960611b81525081565b60cb546001600160a01b031681565b60006107ca600080516020613e118339815191528361173f565b61194d610681611dc8565b6119695760405162461bcd60e51b81526004016108de90613b3b565b600083815260cd6020526040812080548592919061198690613d79565b9050116119a55760405162461bcd60e51b81526004016108de90613c62565b611042858585858080601f016020809104026020016040519081016040528093929190818152602001838380828437600092019190915250611e0392505050565b6000611a3c7f1ec047073e2c8b15660901dbfdb6e3ff6365bd699dd9f95dcc6eab5448bebd6960001b83604051602001611a2192919061341c565b604051602081830303815290604052805190602001206116f1565b5460ff1692915050565b611a4e611dc8565b6001600160a01b0316611a5f6116e4565b6001600160a01b031614611a855760405162461bcd60e51b81526004016108de90613bf6565b610e9181612765565b60ca546001600160a01b031681565b600087815260cd60205260408120805489929190611aba90613d79565b905011611ad95760405162461bcd60e51b81526004016108de90613c62565b610e158989611ae88a8a611dd7565b8888888861222b565b600080516020613e1183398151915281565b611b0c82610ceb565b611b1881610e35611dc8565b610e4483836121a6565b611b2d610681611dc8565b611b495760405162461bcd60e51b81526004016108de90613b3b565b610ed682826127b0565b611b5b611dc8565b6001600160a01b0316611b6c6116e4565b6001600160a01b031614611b925760405162461bcd60e51b81526004016108de90613bf6565b611b9b816127fc565b610e916000826128bd565b604051806040016040528060058152602001640302e322e360dc1b81525081565b6001600160e01b031981166301ffc9a760e01b14919050565b600054610100900460ff1680611bf9575060005460ff16155b611c155760405162461bcd60e51b81526004016108de90613aed565b600054610100900460ff16158015611c40576000805460ff1961ff0019909116610100171660011790555b6000611c4a611dc8565b603380546001600160a01b0319166001600160a01b038316908117909155604051919250906000907f8be0079c531659141344cd1fd0a4f28419497f9722a3daafe3b4186f6b6457e0908290a3508015610e91576000805461ff001916905550565b600054610100900460ff1680611cc5575060005460ff16155b611ce15760405162461bcd60e51b81526004016108de90613aed565b600054610100900460ff16158015611d0c576000805460ff1961ff0019909116610100171660011790555b611d1e6000611d19611dc8565b6128bd565b8015610e91576000805461ff001916905550565b600054610100900460ff1680611d4b575060005460ff16155b611d675760405162461bcd60e51b81526004016108de90613aed565b600054610100900460ff16158015611d92576000805460ff1961ff0019909116610100171660011790555b611d9b82612765565b8015610ed6576000805461ff00191690555050565b610e91600080516020613e11833981519152826128bd565b6000611dd26128c7565b905090565b60608282604051602001611dec929190613546565b604051602081830303815290604052905092915050565b6000611e0f83836128f5565b9050611e1a81612971565b82600080516020613e318339815191521415611e9e5760ca5460cc5460405163c36c212560e01b81526001600160a01b039283169263c36c212592611e679289928892169060040161363f565b600060405180830381600087803b158015611e8157600080fd5b505af1158015611e95573d6000803e3d6000fd5b50505050610d57565b60c9546001600160a01b031663d3fc98648583611ebb8787612997565b6040518463ffffffff1660e01b8152600401611ed9939291906136bc565b600060405180830381600087803b158015611ef357600080fd5b505af1158015611f07573d6000803e3d6000fd5b5050505050505050565b6000611f1d88886128f5565b9050611f2881612971565b87600080516020613e3183398151915214156120215760ca5460cc54604051630f95e75b60e31b81526001600160a01b0392831692637caf3ad892611f77928e928d9216908890600401613674565b600060405180830381600087803b158015611f9157600080fd5b505af1158015611fa5573d6000803e3d6000fd5b50508615915061201c90505760cc54604051633a0deb9d60e21b81526001600160a01b039091169063e837ae7490611fe9908990899089908990889060040161383c565b600060405180830381600087803b15801561200357600080fd5b505af1158015612017573d6000803e3d6000fd5b505050505b610e15565b60c9546001600160a01b031663efda4d3e8a8361203e8c8c612997565b8a8a8a8a8a6040518963ffffffff1660e01b8152600401612066989796959493929190613740565b600060405180830381600087803b15801561208057600080fd5b505af1158015612094573d6000803e3d6000fd5b50505050505050505050505050565b6120ad828261173f565b610ed6576120c5816001600160a01b031660146129ba565b6120d08360206129ba565b6040516020016120e192919061356c565b60408051601f198184030181529082905262461bcd60e51b82526108de916004016138a8565b612111828261173f565b610ed65760008281526097602090815260408083206001600160a01b03851684529091529020805460ff1916600117905561214a611dc8565b6001600160a01b0316816001600160a01b0316837f2f8788117e7eff1d82e926ec794901d17c78024a50270940304540a733656f0d60405160405180910390a45050565b610e91600080516020613e1183398151915282611b03565b6121b0828261173f565b15610ed65760008281526097602090815260408083206001600160a01b03851684529091529020805460ff191690556121e7611dc8565b6001600160a01b0316816001600160a01b0316837ff6391f5c32d9c69d2a47ea670b442974b53935d1edc7fd64eb21e047a839171b60405160405180910390a45050565b600061223787876128f5565b905061224281612971565b86600080516020613e3183398151915214156123395760ca5460cc5460405163c36c212560e01b81526001600160a01b039283169263c36c21259261228f928d928c92169060040161363f565b600060405180830381600087803b1580156122a957600080fd5b505af11580156122bd573d6000803e3d6000fd5b50508515915061233490505760cc54604051633a0deb9d60e21b81526001600160a01b039091169063e837ae7490612301908890889088908890889060040161383c565b600060405180830381600087803b15801561231b57600080fd5b505af115801561232f573d6000803e3d6000fd5b505050505b611f07565b60c9546001600160a01b031663b0f5917789836123568b8b612997565b898989896040518863ffffffff1660e01b815260040161237c97969594939291906136e3565b600060405180830381600087803b15801561239657600080fd5b505af11580156123aa573d6000803e3d6000fd5b505050505050505050505050565b60016123f37f1ec047073e2c8b15660901dbfdb6e3ff6365bd699dd9f95dcc6eab5448bebd6960001b83604051602001611a2192919061341c565b805460ff19169115159190911790556040517f2ce5d9351b1d590d5a066db0d2dc7602d55f092506a83a7ee8c4d78ee357d75a90612432908390613881565b60405180910390a150565b600061247f8585858080601f0160208091040260200160405190810160405280939291908181526020018383808284376000920191909152506128f592505050565b905061248a81612971565b84600080516020613e3183398151915214156125135760ca5460cc54604051630f95e75b60e31b81526001600160a01b0392831692637caf3ad8926124dc928b928a928a9291169089906004016135f5565b600060405180830381600087803b1580156124f657600080fd5b505af115801561250a573d6000803e3d6000fd5b50505050610ce3565b60c954604080516020601f87018190048102820181019092528581526001600160a01b039092169163b55bc617918991859161256b918b918b908b908190840183828082843760009201919091525061299792505050565b866040518563ffffffff1660e01b815260040161258b94939291906137b2565b600060405180830381600087803b1580156125a557600080fd5b505af11580156125b9573d6000803e3d6000fd5b50505050505050505050565b6000816040516020016125d89190613515565b604051602081830303815290604052805190602001209050919050565b60008060008084516041141561261f5750505060208201516040830151606084015160001a612665565b84516040141561264d5750505060408201516020830151906001600160ff1b0381169060ff1c601b01612665565b60405162461bcd60e51b81526004016108de90613989565b61267186828585612b72565b9695505050505050565b61268481612c68565b61268d81611928565b610e915760405162461bcd60e51b81526004016108de90613bb2565b60006001600160e01b0319841663ae2ad90360e01b14806126da57506001600160e01b03198416630260c0cf60e51b145b806126f557506001600160e01b031984166358839d6b60e01b145b8061271057506001600160e01b0319841663039ccf4d60e41b145b8061272b57506001600160e01b031984166327bbd22560e01b145b8061274657506001600160e01b03198416633516912b60e11b145b905080610d575760405162461bcd60e51b81526004016108de90613943565b8061278f7f893ef2ea16c023f61d4f55d3e6ee3fc3f2fbfd478461323dbc2fbf919047086e6116f1565b80546001600160a01b0319166001600160a01b039290921691909117905550565b60005b81811015610e44576127ea8383838181106127de57634e487b7160e01b600052603260045260246000fd5b905060200201356123b8565b806127f481613db4565b9150506127b3565b612804611dc8565b6001600160a01b03166128156116e4565b6001600160a01b03161461283b5760405162461bcd60e51b81526004016108de90613bf6565b6001600160a01b0381166128615760405162461bcd60e51b81526004016108de906139c0565b6033546040516001600160a01b038084169216907f8be0079c531659141344cd1fd0a4f28419497f9722a3daafe3b4186f6b6457e090600090a3603380546001600160a01b0319166001600160a01b0392909216919091179055565b610ed68282612107565b60006128d233611275565b156128e6575060331936013560601c6116f1565b6128ee612c8e565b90506116f1565b60008151600014156129195760405162461bcd60e51b81526004016108de90613c2b565b828260405160200161292b919061343a565b6040516020818303038152906040528051906020012060405160200161295292919061341c565b60408051601f1981840301815291905280516020909101209392505050565b61297a816119e6565b15610fba5760405162461bcd60e51b81526004016108de90613ab6565b600082815260cd60209081526040918290209151606092611dec92859201613456565b606060006129c9836002613d17565b6129d4906002613cff565b6001600160401b038111156129f957634e487b7160e01b600052604160045260246000fd5b6040519080825280601f01601f191660200182016040528015612a23576020820181803683370190505b509050600360fc1b81600081518110612a4c57634e487b7160e01b600052603260045260246000fd5b60200101906001600160f81b031916908160001a905350600f60fb1b81600181518110612a8957634e487b7160e01b600052603260045260246000fd5b60200101906001600160f81b031916908160001a9053506000612aad846002613d17565b612ab8906001613cff565b90505b6001811115612b4c576f181899199a1a9b1b9c1cb0b131b232b360811b85600f1660108110612afa57634e487b7160e01b600052603260045260246000fd5b1a60f81b828281518110612b1e57634e487b7160e01b600052603260045260246000fd5b60200101906001600160f81b031916908160001a90535060049490941c93612b4581613d62565b9050612abb565b508315612b6b5760405162461bcd60e51b81526004016108de9061390e565b9392505050565b60007f7fffffffffffffffffffffffffffffff5d576e7357a4501ddfe92f46681b20a0821115612bb45760405162461bcd60e51b81526004016108de90613a74565b8360ff16601b1480612bc957508360ff16601c145b612be55760405162461bcd60e51b81526004016108de90613b70565b600060018686868660405160008152602001604052604051612c0a949392919061388a565b6020604051602081039080840390855afa158015612c2c573d6000803e3d6000fd5b5050604051601f1901519150506001600160a01b038116612c5f5760405162461bcd60e51b81526004016108de906138d7565b95945050505050565b6001600160a01b038116610e915760405162461bcd60e51b81526004016108de90613a06565b3390565b828054612c9e90613d79565b90600052602060002090601f016020900481019282612cc05760008555612d06565b82601f10612cd957805160ff1916838001178555612d06565b82800160010185558215612d06579182015b82811115612d06578251825591602001919060010190612ceb565b50612d12929150612d16565b5090565b5b80821115612d125760008155600101612d17565b80356107cd81613dfb565b60008083601f840112612d47578182fd5b5081356001600160401b03811115612d5d578182fd5b6020830191508360208083028501011115612d7757600080fd5b9250929050565b60008083601f840112612d8f578182fd5b5081356001600160401b03811115612da5578182fd5b602083019150836020828501011115612d7757600080fd5b600060208284031215612dce578081fd5b8135612b6b81613dfb565b60008060008060608587031215612dee578283fd5b8435612df981613dfb565b93506020850135925060408501356001600160401b03811115612e1a578283fd5b612e2687828801612d7e565b95989497509550505050565b60008060008060008060008060a0898b031215612e4d578384fd5b8835612e5881613dfb565b97506020890135965060408901356001600160401b0380821115612e7a578586fd5b612e868c838d01612d7e565b909850965060608b0135915080821115612e9e578586fd5b612eaa8c838d01612d36565b909650945060808b0135915080821115612ec2578384fd5b50612ecf8b828c01612d36565b999c989b5096995094979396929594505050565b60008060008060008060008060008060c08b8d031215612f01578182fd5b612f0a8b612d2b565b995060208b0135985060408b01356001600160401b0380821115612f2c578384fd5b612f388e838f01612d7e565b909a50985060608d0135915080821115612f50578384fd5b612f5c8e838f01612d36565b909850965060808d0135915080821115612f74578384fd5b612f808e838f01612d36565b909650945060a08d0135915080821115612f98578384fd5b50612fa58d828e01612d7e565b915080935050809150509295989b9194979a5092959850565b60008060008060008060808789031215612fd6578182fd5b8635612fe181613dfb565b95506020870135945060408701356001600160401b0380821115613003578384fd5b61300f8a838b01612d7e565b90965094506060890135915080821115613027578384fd5b5061303489828a01612d7e565b979a9699509497509295939492505050565b60006020808385031215613058578182fd5b82356001600160401b038082111561306e578384fd5b818501915085601f830112613081578384fd5b81358181111561309357613093613de5565b838102604051858282010181811085821117156130b2576130b2613de5565b604052828152858101935084860182860187018a10156130d0578788fd5b8795505b838610156130f9576130e581612d2b565b8552600195909501949386019386016130d4565b5098975050505050505050565b60008060208385031215613118578182fd5b82356001600160401b0381111561312d578283fd5b61313985828601612d36565b90969095509350505050565b600060208284031215613156578081fd5b81518015158114612b6b578182fd5b600060208284031215613176578081fd5b5035919050565b6000806040838503121561318f578182fd5b8235915060208301356131a181613dfb565b809150509250929050565b6000602082840312156131bd578081fd5b81356001600160e01b031981168114612b6b578182fd5b600080600080604085870312156131e9578182fd5b84356001600160401b03808211156131ff578384fd5b61320b88838901612d7e565b90965094506020870135915080821115613223578384fd5b50612e2687828801612d7e565b600080600080600060a08688031215613247578283fd5b853561325281613dfb565b9450602086013561326281613dfb565b9350604086013561327281613dfb565b9250606086013561328281613dfb565b9150608086013561329281613dfb565b809150509295509295909350565b600080602083850312156132b2578182fd5b82356001600160401b038111156132c7578283fd5b61313985828601612d7e565b6000806000604084860312156132e7578081fd5b8335925060208401356001600160401b03811115613303578182fd5b61330f86828701612d7e565b9497909650939450505050565b818352602080840193600091908185020181018584845b878110156133995782840389528135601e19883603018112613353578687fd5b870180356001600160401b0381111561336a578788fd5b803603891315613378578788fd5b61338586828985016133d2565b9a87019a9550505090840190600101613333565b5091979650505050505050565b600081518084526133be816020860160208601613d36565b601f01601f19169290920160200192915050565b60008284528282602086013780602084860101526020601f19601f85011685010190509392505050565b91825260601b6bffffffffffffffffffffffff1916602082015260340190565b918252602082015260400190565b6000828483379101908152919050565b6000825161344c818460208701613d36565b9190910192915050565b6000835160206134698285838901613d36565b601760f91b91840191825284546001908490600281048184168061348e57607f821691505b8582108114156134ac57634e487b7160e01b88526022600452602488fd5b8080156134c057600181146134d557613505565b60ff1984168887015282880186019450613505565b6134de8b613cf3565b895b848110156134fb5781548a82018901529087019088016134e0565b5050858389010194505b50929a9950505050505050505050565b7f19457468657265756d205369676e6564204d6573736167653a0a3332000000008152601c810191909152603c0190565b6000697564746573746465762d60b01b82528284600a8401379101600a01908152919050565b60007f416363657373436f6e74726f6c3a206163636f756e7420000000000000000000825283516135a4816017850160208801613d36565b7001034b99036b4b9b9b4b733903937b6329607d1b60179184019182015283516135d5816028840160208801613d36565b01602801949350505050565b6001600160a01b0391909116815260200190565b600060018060a01b038088168352608060208401526136186080840187896133d2565b8186166040850152838103606085015261363281866133a6565b9998505050505050505050565b600060018060a01b0380861683526060602084015261366160608401866133a6565b9150808416604084015250949350505050565b600060018060a01b0380871683526080602084015261369660808401876133a6565b818616604085015283810360608501526136b081866133a6565b98975050505050505050565b600060018060a01b038516825283602083015260606040830152612c5f60608301846133a6565b600060018060a01b038916825287602083015260a0604083015261370a60a08301886133a6565b828103606084015261371d81878961331c565b9050828103608084015261373281858761331c565b9a9950505050505050505050565b600060018060a01b038a16825288602083015260c0604083015261376760c08301896133a6565b828103606084015261377a81888a61331c565b9050828103608084015261378f81868861331c565b905082810360a08401526137a381856133a6565b9b9a5050505050505050505050565b600060018060a01b0386168252846020830152608060408301526137d960808301856133a6565b82810360608401526137eb81856133a6565b979650505050505050565b6020808252825182820181905260009190848201906040850190845b81811015613830578351151583529284019291840191600101613812565b50909695505050505050565b60006060825261385060608301878961331c565b828103602084015261386381868861331c565b9150508260408301529695505050505050565b901515815260200190565b90815260200190565b93845260ff9290921660208401526040830152606082015260800190565b600060208252612b6b60208301846133a6565b6000602082526138cf6020830184866133d2565b949350505050565b60208082526018908201527f45434453413a20696e76616c6964207369676e61747572650000000000000000604082015260600190565b6020808252818101527f537472696e67733a20686578206c656e67746820696e73756666696369656e74604082015260600190565b60208082526026908201527f4d696e74696e674d616e616765723a20554e535550504f525445445f52454c416040820152651657d0d0531360d21b606082015260800190565b6020808252601f908201527f45434453413a20696e76616c6964207369676e6174757265206c656e67746800604082015260600190565b60208082526026908201527f4f776e61626c653a206e6577206f776e657220697320746865207a65726f206160408201526564647265737360d01b606082015260800190565b6020808252601d908201527f52656c617965723a205349474e41545552455f49535f494e56414c4944000000604082015260600190565b6020808252601d908201527f4d696e746572526f6c653a2052454345495645525f49535f454d505459000000604082015260600190565b60208082526022908201527f45434453413a20696e76616c6964207369676e6174757265202773272076616c604082015261756560f01b606082015260800190565b6020808252601d908201527f4d696e74696e674d616e616765723a20544f4b454e5f424c4f434b4544000000604082015260600190565b6020808252602e908201527f496e697469616c697a61626c653a20636f6e747261637420697320616c72656160408201526d191e481a5b9a5d1a585b1a5e995960921b606082015260800190565b6020808252818101527f4d696e746572526f6c653a2043414c4c45525f49535f4e4f545f4d494e544552604082015260600190565b60208082526022908201527f45434453413a20696e76616c6964207369676e6174757265202776272076616c604082015261756560f01b606082015260800190565b60208082526024908201527f4d696e74696e674d616e616765723a205349474e45525f49535f4e4f545f4d49604082015263272a22a960e11b606082015260800190565b6020808252818101527f4f776e61626c653a2063616c6c6572206973206e6f7420746865206f776e6572604082015260600190565b6020808252601b908201527f4d696e74696e674d616e616765723a204c4142454c5f454d5054590000000000604082015260600190565b60208082526022908201527f4d696e74696e674d616e616765723a20544c445f4e4f545f5245474953544552604082015261115160f21b606082015260800190565b6020808252602f908201527f416363657373436f6e74726f6c3a2063616e206f6e6c792072656e6f756e636560408201526e103937b632b9903337b91039b2b63360891b606082015260800190565b60009081526020902090565b60008219821115613d1257613d12613dcf565b500190565b6000816000190483118215151615613d3157613d31613dcf565b500290565b60005b83811015613d51578181015183820152602001613d39565b83811115610d575750506000910152565b600081613d7157613d71613dcf565b506000190190565b600281046001821680613d8d57607f821691505b60208210811415613dae57634e487b7160e01b600052602260045260246000fd5b50919050565b6000600019821415613dc857613dc8613dcf565b5060010190565b634e487b7160e01b600052601160045260246000fd5b634e487b7160e01b600052604160045260246000fd5b6001600160a01b0381168114610e9157600080fdfe9f2df0fed2c77648de5860a4cc508cd0818c85b8b8a1ab4ceeef8d981c8956a60f4a10a4f46c288cea365fcf45cccf0e9d901b945b9829ccdb54c10dc3cb7a6fa2646970667358221220cba625bb2e24a6501f18cee0e8317847997d6102e7466a0258de5021988ba48864736f6c63430008000033",
  "linkReferences": {},
  "deployedLinkReferences": {}
}