{
  "_format": "hh-sol-artifact-1",
  "contractName": "MintingManager",
  "sourceName": "contracts/MintingManager.sol",
  "abi": [
    {
      "anonymous": false,
      "inputs": [
        {
          "indexed": false,
          "internalType": "address",
          "name": "previousAdmin",
          "type": "address"
        },
        {
          "indexed": false,
          "internalType": "address",
          "name": "newAdmin",
          "type": "address"
        }
      ],
      "name": "AdminChanged",
      "type": "event"
    },
    {
      "anonymous": false,
      "inputs": [
        {
          "indexed": false,
          "internalType": "uint256",
          "name": "tokenId",
          "type": "uint256"
        }
      ],
      "name": "Blocked",
      "type": "event"
    },
    {
      "anonymous": false,
      "inputs": [
        {
          "indexed": false,
          "internalType": "address",
          "name": "account",
          "type": "address"
        }
      ],
      "name": "BlocklistDisabled",
      "type": "event"
    },
    {
      "anonymous": false,
      "inputs": [
        {
          "indexed": false,
          "internalType": "address",
          "name": "account",
          "type": "address"
        }
      ],
      "name": "BlocklistEnabled",
      "type": "event"
    },
    {
      "anonymous": false,
      "inputs": [
        {
          "indexed": false,
          "internalType": "uint8",
          "name": "version",
          "type": "uint8"
        }
      ],
      "name": "Initialized",
      "type": "event"
    },
    {
      "anonymous": false,
      "inputs": [
        {
          "indexed": true,
          "internalType": "uint256",
          "name": "tokenId",
          "type": "uint256"
        },
        {
          "indexed": false,
          "internalType": "string",
          "name": "tld",
          "type": "string"
        }
      ],
      "name": "NewTld",
      "type": "event"
    },
    {
      "anonymous": false,
      "inputs": [
        {
          "indexed": true,
          "internalType": "address",
          "name": "previousOwner",
          "type": "address"
        },
        {
          "indexed": true,
          "internalType": "address",
          "name": "newOwner",
          "type": "address"
        }
      ],
      "name": "OwnershipTransferred",
      "type": "event"
    },
    {
      "anonymous": false,
      "inputs": [
        {
          "indexed": false,
          "internalType": "address",
          "name": "account",
          "type": "address"
        }
      ],
      "name": "Paused",
      "type": "event"
    },
    {
      "anonymous": false,
      "inputs": [
        {
          "indexed": true,
          "internalType": "uint256",
          "name": "tokenId",
          "type": "uint256"
        }
      ],
      "name": "RemoveTld",
      "type": "event"
    },
    {
      "anonymous": false,
      "inputs": [
        {
          "indexed": true,
          "internalType": "bytes32",
          "name": "role",
          "type": "bytes32"
        },
        {
          "indexed": true,
          "internalType": "bytes32",
          "name": "previousAdminRole",
          "type": "bytes32"
        },
        {
          "indexed": true,
          "internalType": "bytes32",
          "name": "newAdminRole",
          "type": "bytes32"
        }
      ],
      "name": "RoleAdminChanged",
      "type": "event"
    },
    {
      "anonymous": false,
      "inputs": [
        {
          "indexed": true,
          "internalType": "bytes32",
          "name": "role",
          "type": "bytes32"
        },
        {
          "indexed": true,
          "internalType": "address",
          "name": "account",
          "type": "address"
        },
        {
          "indexed": true,
          "internalType": "address",
          "name": "sender",
          "type": "address"
        }
      ],
      "name": "RoleGranted",
      "type": "event"
    },
    {
      "anonymous": false,
      "inputs": [
        {
          "indexed": true,
          "internalType": "bytes32",
          "name": "role",
          "type": "bytes32"
        },
        {
          "indexed": true,
          "internalType": "address",
          "name": "account",
          "type": "address"
        },
        {
          "indexed": true,
          "internalType": "address",
          "name": "sender",
          "type": "address"
        }
      ],
      "name": "RoleRevoked",
      "type": "event"
    },
    {
      "anonymous": false,
      "inputs": [
        {
          "indexed": false,
          "internalType": "address",
          "name": "account",
          "type": "address"
        }
      ],
      "name": "Unpaused",
      "type": "event"
    },
    {
      "anonymous": false,
      "inputs": [
        {
          "indexed": true,
          "internalType": "address",
          "name": "implementation",
          "type": "address"
        }
      ],
      "name": "Upgraded",
      "type": "event"
    },
    {
      "inputs": [],
      "name": "DEFAULT_ADMIN_ROLE",
      "outputs": [
        {
          "internalType": "bytes32",
          "name": "",
          "type": "bytes32"
        }
      ],
      "stateMutability": "view",
      "type": "function"
    },
    {
      "inputs": [],
      "name": "MINTER_ROLE",
      "outputs": [
        {
          "internalType": "bytes32",
          "name": "",
          "type": "bytes32"
        }
      ],
      "stateMutability": "view",
      "type": "function"
    },
    {
      "inputs": [],
      "name": "NAME",
      "outputs": [
        {
          "internalType": "string",
          "name": "",
          "type": "string"
        }
      ],
      "stateMutability": "view",
      "type": "function"
    },
    {
      "inputs": [],
      "name": "VERSION",
      "outputs": [
        {
          "internalType": "string",
          "name": "",
          "type": "string"
        }
      ],
      "stateMutability": "view",
      "type": "function"
    },
    {
      "inputs": [
        {
          "internalType": "address",
          "name": "account",
          "type": "address"
        }
      ],
      "name": "addMinter",
      "outputs": [],
      "stateMutability": "nonpayable",
      "type": "function"
    },
    {
      "inputs": [
        {
          "internalType": "address[]",
          "name": "accounts",
          "type": "address[]"
        }
      ],
      "name": "addMinters",
      "outputs": [],
      "stateMutability": "nonpayable",
      "type": "function"
    },
    {
      "inputs": [
        {
          "internalType": "address[]",
          "name": "addrs",
          "type": "address[]"
        }
      ],
      "name": "addProxyReaders",
      "outputs": [],
      "stateMutability": "nonpayable",
      "type": "function"
    },
    {
      "inputs": [
        {
          "internalType": "string",
          "name": "tld",
          "type": "string"
        }
      ],
      "name": "addTld",
      "outputs": [],
      "stateMutability": "nonpayable",
      "type": "function"
    },
    {
      "inputs": [
        {
          "components": [
            {
              "internalType": "address",
              "name": "to",
              "type": "address"
            },
            {
              "internalType": "string",
              "name": "label",
              "type": "string"
            },
            {
              "internalType": "uint256",
              "name": "tld",
              "type": "uint256"
            }
          ],
          "internalType": "struct IMintingManager.BulkSLDIssueRequest[]",
          "name": "requests",
          "type": "tuple[]"
        }
      ],
      "name": "bulkIssue",
      "outputs": [],
      "stateMutability": "nonpayable",
      "type": "function"
    },
    {
      "inputs": [
        {
          "internalType": "uint256",
          "name": "tld",
          "type": "uint256"
        },
        {
          "internalType": "string",
          "name": "label",
          "type": "string"
        }
      ],
      "name": "claim",
      "outputs": [],
      "stateMutability": "nonpayable",
      "type": "function"
    },
    {
      "inputs": [
        {
          "internalType": "address",
          "name": "to",
          "type": "address"
        },
        {
          "internalType": "uint256",
          "name": "tld",
          "type": "uint256"
        },
        {
          "internalType": "string",
          "name": "label",
          "type": "string"
        }
      ],
      "name": "claimTo",
      "outputs": [],
      "stateMutability": "nonpayable",
      "type": "function"
    },
    {
      "inputs": [
        {
          "internalType": "address",
          "name": "to",
          "type": "address"
        },
        {
          "internalType": "uint256",
          "name": "tld",
          "type": "uint256"
        },
        {
          "internalType": "string",
          "name": "label",
          "type": "string"
        },
        {
          "internalType": "string[]",
          "name": "keys",
          "type": "string[]"
        },
        {
          "internalType": "string[]",
          "name": "values",
          "type": "string[]"
        }
      ],
      "name": "claimToWithRecords",
      "outputs": [],
      "stateMutability": "nonpayable",
      "type": "function"
    },
    {
      "inputs": [
        {
          "internalType": "address payable",
          "name": "receiver",
          "type": "address"
        }
      ],
      "name": "closeMinter",
      "outputs": [],
      "stateMutability": "payable",
      "type": "function"
    },
    {
      "inputs": [],
      "name": "cnsMintingController",
      "outputs": [
        {
          "internalType": "contract IMintingController",
          "name": "",
          "type": "address"
        }
      ],
      "stateMutability": "view",
      "type": "function"
    },
    {
      "inputs": [],
      "name": "cnsResolver",
      "outputs": [
        {
          "internalType": "contract IResolver",
          "name": "",
          "type": "address"
        }
      ],
      "stateMutability": "view",
      "type": "function"
    },
    {
      "inputs": [],
      "name": "cnsURIPrefixController",
      "outputs": [
        {
          "internalType": "contract IURIPrefixController",
          "name": "",
          "type": "address"
        }
      ],
      "stateMutability": "view",
      "type": "function"
    },
    {
      "inputs": [
        {
          "internalType": "bytes32",
          "name": "role",
          "type": "bytes32"
        }
      ],
      "name": "getRoleAdmin",
      "outputs": [
        {
          "internalType": "bytes32",
          "name": "",
          "type": "bytes32"
        }
      ],
      "stateMutability": "view",
      "type": "function"
    },
    {
      "inputs": [
        {
          "internalType": "bytes32",
          "name": "role",
          "type": "bytes32"
        },
        {
          "internalType": "address",
          "name": "account",
          "type": "address"
        }
      ],
      "name": "grantRole",
      "outputs": [],
      "stateMutability": "nonpayable",
      "type": "function"
    },
    {
      "inputs": [
        {
          "internalType": "bytes32",
          "name": "role",
          "type": "bytes32"
        },
        {
          "internalType": "address",
          "name": "account",
          "type": "address"
        }
      ],
      "name": "hasRole",
      "outputs": [
        {
          "internalType": "bool",
          "name": "",
          "type": "bool"
        }
      ],
      "stateMutability": "view",
      "type": "function"
    },
    {
      "inputs": [
        {
          "internalType": "contract IUNSRegistry",
          "name": "unsRegistry_",
          "type": "address"
        },
        {
          "internalType": "contract IMintingController",
          "name": "cnsMintingController_",
          "type": "address"
        },
        {
          "internalType": "contract IURIPrefixController",
          "name": "cnsURIPrefixController_",
          "type": "address"
        },
        {
          "internalType": "contract IResolver",
          "name": "cnsResolver_",
          "type": "address"
        },
        {
          "internalType": "address",
          "name": "unsOperator_",
          "type": "address"
        },
        {
          "internalType": "address",
          "name": "forwarder",
          "type": "address"
        }
      ],
      "name": "initialize",
      "outputs": [],
      "stateMutability": "nonpayable",
      "type": "function"
    },
    {
      "inputs": [
        {
          "internalType": "uint256",
          "name": "tokenId",
          "type": "uint256"
        }
      ],
      "name": "isBlocked",
      "outputs": [
        {
          "internalType": "bool",
          "name": "",
          "type": "bool"
        }
      ],
      "stateMutability": "view",
      "type": "function"
    },
    {
      "inputs": [
        {
          "internalType": "address",
          "name": "account",
          "type": "address"
        }
      ],
      "name": "isMinter",
      "outputs": [
        {
          "internalType": "bool",
          "name": "",
          "type": "bool"
        }
      ],
      "stateMutability": "view",
      "type": "function"
    },
    {
      "inputs": [
        {
          "internalType": "address",
          "name": "forwarder",
          "type": "address"
        }
      ],
      "name": "isTrustedForwarder",
      "outputs": [
        {
          "internalType": "bool",
          "name": "",
          "type": "bool"
        }
      ],
      "stateMutability": "view",
      "type": "function"
    },
    {
      "inputs": [
        {
          "internalType": "address",
          "name": "to",
          "type": "address"
        },
        {
          "internalType": "string[]",
          "name": "labels",
          "type": "string[]"
        },
        {
          "internalType": "string[]",
          "name": "keys",
          "type": "string[]"
        },
        {
          "internalType": "string[]",
          "name": "values",
          "type": "string[]"
        },
        {
          "internalType": "bool",
          "name": "withReverse",
          "type": "bool"
        }
      ],
      "name": "issueWithRecords",
      "outputs": [],
      "stateMutability": "nonpayable",
      "type": "function"
    },
    {
      "inputs": [],
      "name": "owner",
      "outputs": [
        {
          "internalType": "address",
          "name": "",
          "type": "address"
        }
      ],
      "stateMutability": "view",
      "type": "function"
    },
    {
      "inputs": [],
      "name": "pause",
      "outputs": [],
      "stateMutability": "nonpayable",
      "type": "function"
    },
    {
      "inputs": [],
      "name": "paused",
      "outputs": [
        {
          "internalType": "bool",
          "name": "",
          "type": "bool"
        }
      ],
      "stateMutability": "view",
      "type": "function"
    },
    {
      "inputs": [
        {
          "internalType": "address",
          "name": "account",
          "type": "address"
        }
      ],
      "name": "removeMinter",
      "outputs": [],
      "stateMutability": "nonpayable",
      "type": "function"
    },
    {
      "inputs": [
        {
          "internalType": "address[]",
          "name": "accounts",
          "type": "address[]"
        }
      ],
      "name": "removeMinters",
      "outputs": [],
      "stateMutability": "nonpayable",
      "type": "function"
    },
    {
      "inputs": [
        {
          "internalType": "uint256",
          "name": "tld",
          "type": "uint256"
        }
      ],
      "name": "removeTld",
      "outputs": [],
      "stateMutability": "nonpayable",
      "type": "function"
    },
    {
      "inputs": [],
      "name": "renounceMinter",
      "outputs": [],
      "stateMutability": "nonpayable",
      "type": "function"
    },
    {
      "inputs": [],
      "name": "renounceOwnership",
      "outputs": [],
      "stateMutability": "nonpayable",
      "type": "function"
    },
    {
      "inputs": [
        {
          "internalType": "bytes32",
          "name": "role",
          "type": "bytes32"
        },
        {
          "internalType": "address",
          "name": "account",
          "type": "address"
        }
      ],
      "name": "renounceRole",
      "outputs": [],
      "stateMutability": "nonpayable",
      "type": "function"
    },
    {
      "inputs": [
        {
          "internalType": "bytes32",
          "name": "role",
          "type": "bytes32"
        },
        {
          "internalType": "address",
          "name": "account",
          "type": "address"
        }
      ],
      "name": "revokeRole",
      "outputs": [],
      "stateMutability": "nonpayable",
      "type": "function"
    },
    {
      "inputs": [
        {
          "internalType": "address payable",
          "name": "receiver",
          "type": "address"
        }
      ],
      "name": "rotateMinter",
      "outputs": [],
      "stateMutability": "payable",
      "type": "function"
    },
    {
      "inputs": [
        {
          "internalType": "address",
          "name": "forwarder",
          "type": "address"
        }
      ],
      "name": "setForwarder",
      "outputs": [],
      "stateMutability": "nonpayable",
      "type": "function"
    },
    {
      "inputs": [
        {
          "internalType": "address",
          "name": "operator",
          "type": "address"
        }
      ],
      "name": "setOperator",
      "outputs": [],
      "stateMutability": "nonpayable",
      "type": "function"
    },
    {
      "inputs": [
        {
          "internalType": "string",
          "name": "prefix",
          "type": "string"
        }
      ],
      "name": "setTokenURIPrefix",
      "outputs": [],
      "stateMutability": "nonpayable",
      "type": "function"
    },
    {
      "inputs": [
        {
          "internalType": "bytes4",
          "name": "interfaceId",
          "type": "bytes4"
        }
      ],
      "name": "supportsInterface",
      "outputs": [
        {
          "internalType": "bool",
          "name": "",
          "type": "bool"
        }
      ],
      "stateMutability": "view",
      "type": "function"
    },
    {
      "inputs": [
        {
          "internalType": "address",
          "name": "newOwner",
          "type": "address"
        }
      ],
      "name": "transferOwnership",
      "outputs": [],
      "stateMutability": "nonpayable",
      "type": "function"
    },
    {
      "inputs": [],
      "name": "unpause",
      "outputs": [],
      "stateMutability": "nonpayable",
      "type": "function"
    },
    {
      "inputs": [],
      "name": "unsOperator",
      "outputs": [
        {
          "internalType": "address",
          "name": "",
          "type": "address"
        }
      ],
      "stateMutability": "view",
      "type": "function"
    },
    {
      "inputs": [],
      "name": "unsRegistry",
      "outputs": [
        {
          "internalType": "contract IUNSRegistry",
          "name": "",
          "type": "address"
        }
      ],
      "stateMutability": "view",
      "type": "function"
    },
    {
      "inputs": [
        {
          "internalType": "uint256[]",
          "name": "tokenIds",
          "type": "uint256[]"
        }
      ],
      "name": "upgradeAll",
      "outputs": [],
      "stateMutability": "nonpayable",
      "type": "function"
    }
  ],
  "bytecode": "0x608060405234801561001057600080fd5b50613a65806100206000396000f3fe6080604052600436106102675760003560e01c8063983b2d5611610144578063c3a3bc00116100b6578063d53913931161007a578063d539139314610776578063d547741f14610798578063d6ab22ed146107b8578063ec527389146107d8578063f2fde38b146107f8578063ffa1ad741461081857600080fd5b8063c3a3bc00146106d6578063cc2a9a5b146106f6578063cc2c3fc414610716578063ceeb4f5014610736578063d1f5692c1461075657600080fd5b8063a849d65c11610108578063a849d65c14610616578063aa271e1a14610636578063ae31844a14610656578063b0aa98c714610676578063b3ab15fb14610696578063b9998a24146106b657600080fd5b8063983b2d561461055f578063986502751461057f57806399e0dd7c14610594578063a217fddf146105b4578063a3f4df7e146105c957600080fd5b80635cd7e3b3116101dd57806377a2a589116101a157806377a2a589146104b957806381c81d35146104d95780638456cb59146104ec5780638da5cb5b14610501578063906cecc11461051f57806391d148541461053f57600080fd5b80635cd7e3b3146104315780635fc1964f14610451578063634486da14610471578063715018a61461048457806371e2a6571461049957600080fd5b806336568abe1161022f57806336568abe146103415780633f41b614146103615780633f4ba83a14610399578063572b6c05146103ae5780635b6fa8db146103fc5780635c975abb1461041c57600080fd5b806301ffc9a71461026c578063248a9ca3146102a1578063268b15ed146102df5780632f2ff15d146103015780633092afd514610321575b600080fd5b34801561027857600080fd5b5061028c6102873660046132c0565b61084a565b60405190151581526020015b60405180910390f35b3480156102ad57600080fd5b506102d16102bc366004613279565b60009081526097602052604090206001015490565b604051908152602001610298565b3480156102eb57600080fd5b506102ff6102fa36600461339c565b610881565b005b34801561030d57600080fd5b506102ff61031c366004613291565b610926565b34801561032d57600080fd5b506102ff61033c366004612f81565b610950565b34801561034d57600080fd5b506102ff61035c366004613291565b610964565b34801561036d57600080fd5b5060c954610381906001600160a01b031681565b6040516001600160a01b039091168152602001610298565b3480156103a557600080fd5b506102ff6109f2565b3480156103ba57600080fd5b5061028c6103c9366004612f81565b7f893ef2ea16c023f61d4f55d3e6ee3fc3f2fbfd478461323dbc2fbf919047086e546001600160a01b0390811691161490565b34801561040857600080fd5b5060cc54610381906001600160a01b031681565b34801561042857600080fd5b5061028c610a04565b34801561043d57600080fd5b506102ff61044c366004612fb9565b610a1a565b34801561045d57600080fd5b506102ff61046c3660046131bd565b610d76565b6102ff61047f366004612f81565b610dcc565b34801561049057600080fd5b506102ff610e8f565b3480156104a557600080fd5b506102ff6104b43660046131bd565b610ea1565b3480156104c557600080fd5b5060ce54610381906001600160a01b031681565b6102ff6104e7366004612f81565b610ef7565b3480156104f857600080fd5b506102ff610f74565b34801561050d57600080fd5b506033546001600160a01b0316610381565b34801561052b57600080fd5b506102ff61053a366004613074565b610f84565b34801561054b57600080fd5b5061028c61055a366004613291565b61100c565b34801561056b57600080fd5b506102ff61057a366004612f81565b611037565b34801561058b57600080fd5b506102ff611048565b3480156105a057600080fd5b506102ff6105af366004613369565b611062565b3480156105c057600080fd5b506102d1600081565b3480156105d557600080fd5b50610609604051806040016040528060148152602001732aa7299d1026b4b73a34b7339026b0b730b3b2b960611b81525081565b6040516102989190613651565b34801561062257600080fd5b5060cb54610381906001600160a01b031681565b34801561064257600080fd5b5061028c610651366004612f81565b611141565b34801561066257600080fd5b506102ff61067136600461317e565b61115b565b34801561068257600080fd5b5061028c610691366004613279565b6111b4565b3480156106a257600080fd5b506102ff6106b1366004612f81565b611212565b3480156106c257600080fd5b506102ff6106d1366004612f81565b61123c565b3480156106e257600080fd5b506102ff6106f1366004613369565b611281565b34801561070257600080fd5b506102ff6107113660046132e8565b6112c8565b34801561072257600080fd5b5060ca54610381906001600160a01b031681565b34801561074257600080fd5b506102ff6107513660046130cd565b611692565b34801561076257600080fd5b506102ff61077136600461317e565b61172a565b34801561078257600080fd5b506102d1600080516020613a3983398151915281565b3480156107a457600080fd5b506102ff6107b3366004613291565b6117ef565b3480156107c457600080fd5b506102ff6107d336600461317e565b611814565b3480156107e457600080fd5b506102ff6107f3366004613279565b611aa3565b34801561080457600080fd5b506102ff610813366004612f81565b611b15565b34801561082457600080fd5b5061060960405180604001604052806006815260200165302e342e313360d01b81525081565b60006001600160e01b03198216637965db0b60e01b148061087b57506301ffc9a760e01b6001600160e01b03198316145b92915050565b8282828080601f0160208091040260200160405190810160405280939291908181526020018383808284376000920191909152506108c792508491508390506001611b31565b6108cf610a04565b156108f55760405162461bcd60e51b81526004016108ec90613699565b60405180910390fd5b606061091e610902611c95565b610915886109108989611ca4565b611cd0565b83846001611dfd565b505050505050565b60008281526097602052604090206001015461094181612208565b61094b8383612219565b505050565b6109586122a0565b61096181612319565b50565b61096c611c95565b6001600160a01b0316816001600160a01b0316146109e45760405162461bcd60e51b815260206004820152602f60248201527f416363657373436f6e74726f6c3a2063616e206f6e6c792072656e6f756e636560448201526e103937b632b9903337b91039b2b63360891b60648201526084016108ec565b6109ee8282612331565b5050565b6109fa6122a0565b610a026123b6565b565b600080516020613a198339815191525460ff1690565b610a24868861386b565b805160021415610a9657610a39610651611c95565b610a915760405162461bcd60e51b8152602060048201526024808201527f4d696e74696e674d616e616765723a2043414c4c45525f49535f4e4f545f4d49604482015263272a22a960e11b60648201526084016108ec565b610c41565b6000610aa18261245e565b60c9549092506001600160a01b0316905063430c2081610abf611c95565b6040516001600160e01b031960e084901b1681526001600160a01b0390911660048201526024810184905260440160206040518083038186803b158015610b0557600080fd5b505afa158015610b19573d6000803e3d6000fd5b505050506040513d601f19601f82011682018060405250810190610b3d919061325d565b80610bdb575060c95460ce5460405163430c208160e01b81526001600160a01b0391821660048201526024810184905291169063430c20819060440160206040518083038186803b158015610b9157600080fd5b505afa158015610ba5573d6000803e3d6000fd5b505050506040513d601f19601f82011682018060405250810190610bc9919061325d565b8015610bdb5750610bdb610651611c95565b610c3f5760405162461bcd60e51b815260206004820152602f60248201527f4d696e74696e674d616e616765723a2053454e4445525f49535f4e4f545f415060448201526e282927ab22a22fa7a92fa7aba722a960891b60648201526084016108ec565b505b610c4b878961386b565b600281511015610cab5760405162461bcd60e51b815260206004820152602560248201527f4d696e74696e674d616e616765723a204c4142454c535f4c454e4754485f42456044820152642627abaf9960d91b60648201526084016108ec565b610d1d610ced60008360018551610cc29190613854565b81518110610ce057634e487b7160e01b600052603260045260246000fd5b6020026020010151612499565b82600081518110610d0e57634e487b7160e01b600052603260045260246000fd5b60200260200101516001611b31565b610d25610a04565b15610d425760405162461bcd60e51b81526004016108ec90613699565b610d6a8a610d508a8c61386b565b610d5a898b61386b565b610d64888a61386b565b87611dfd565b50505050505050505050565b610d7e6122a0565b60005b81518110156109ee57610dba828281518110610dad57634e487b7160e01b600052603260045260246000fd5b6020026020010151612319565b80610dc4816139ae565b915050610d81565b610dd7610651611c95565b610df35760405162461bcd60e51b81526004016108ec90613664565b6001600160a01b038116610e495760405162461bcd60e51b815260206004820152601d60248201527f4d696e746572526f6c653a2052454345495645525f49535f454d50545900000060448201526064016108ec565b610e528161254e565b610e5a611048565b6040516001600160a01b038216903480156108fc02916000818181858888f193505050501580156109ee573d6000803e3d6000fd5b610e976122a0565b610a026000612566565b610ea96122a0565b60005b81518110156109ee57610ee5828281518110610ed857634e487b7160e01b600052603260045260246000fd5b602002602001015161254e565b80610eef816139ae565b915050610eac565b610f02610651611c95565b610f1e5760405162461bcd60e51b81526004016108ec90613664565b6001600160a01b038116610e525760405162461bcd60e51b815260206004820152601d60248201527f4d696e746572526f6c653a2052454345495645525f49535f454d50545900000060448201526064016108ec565b610f7c6122a0565b610a026125b8565b8282828080601f016020809104026020016040519081016040528093929190818152602001838380828437600092019190915250610fca92508491508390506001611b31565b610fd2610a04565b15610fef5760405162461bcd60e51b81526004016108ec90613699565b606061100387610915886109108989611ca4565b50505050505050565b60009182526097602090815260408084206001600160a01b0393909316845291905290205460ff1690565b61103f6122a0565b6109618161254e565b610a02600080516020613a3983398151915261035c611c95565b61106a6122a0565b60c954604051632678375f60e21b81526001600160a01b03909116906399e0dd7c9061109c9085908590600401613622565b600060405180830381600087803b1580156110b657600080fd5b505af11580156110ca573d6000803e3d6000fd5b505060cb546001600160a01b03161591506109ee90505760cb54604051632678375f60e21b81526001600160a01b03909116906399e0dd7c906111139085908590600401613622565b600060405180830381600087803b15801561112d57600080fd5b505af115801561091e573d6000803e3d6000fd5b600061087b600080516020613a398339815191528361100c565b611166610651611c95565b6111825760405162461bcd60e51b81526004016108ec90613664565b60c954604051635718c22560e11b81526001600160a01b039091169063ae31844a9061111390859085906004016135e8565b604080517f1ec047073e2c8b15660901dbfdb6e3ff6365bd699dd9f95dcc6eab5448bebd696020820152908101829052600090611208906060015b6040516020818303038152906040528051906020012090565b5460ff1692915050565b61121a6122a0565b60ce80546001600160a01b0319166001600160a01b0392909216919091179055565b6112446122a0565b7f893ef2ea16c023f61d4f55d3e6ee3fc3f2fbfd478461323dbc2fbf919047086e80546001600160a01b0319166001600160a01b03831617905550565b6112896122a0565b6109ee82828080601f01602080910402602001604051908101604052809392919081815260200183838082843760009201919091525061262092505050565b600054610100900460ff16158080156112e85750600054600160ff909116105b806113025750303b158015611302575060005460ff166001145b6113655760405162461bcd60e51b815260206004820152602e60248201527f496e697469616c697a61626c653a20636f6e747261637420697320616c72656160448201526d191e481a5b9a5d1a585b1a5e995960921b60648201526084016108ec565b6000805460ff191660011790558015611388576000805461ff0019166101001790555b60c980546001600160a01b03199081166001600160a01b038a81169190911790925560ca8054821689841617905560cb8054821688841617905560cc8054821687841617905560ce80549091169185169190911790556113e661273c565b6113ee612773565b6113f7826127ac565b6113ff6127d3565b6040805161024081018252600661020082018181526563727970746f60d01b610220840152825282518084018452818152651dd85b1b195d60d21b602082810191909152808401919091528351808501855260018152600f60fb1b8183015283850152835180850185526003808252621b999d60ea1b82840152606085019190915284518086018652600a815269313637b1b5b1b430b4b760b11b818401526080850152845180860186526007808252663134ba31b7b4b760c91b8285015260a0860191909152855180870187528281526207070760eb1b8185015260c0860152855180870187528281526264616f60e81b8185015260e086015285518087018752918252621e9a5b60ea1b8284015261010085019190915284518086018652908152663837b63cb3b7b760c91b8183015261012084015283518085018552600b81526a756e73746f707061626c6560a81b81830152610140840152835180850185528281526535b632bb32b960d11b81830152610160840152835180850185526002815261686960f01b8183015261018084015283518085018552918252656b726573757360d01b828201526101a083019190915282518084018452600580825264616e696d6560d81b828401526101c084019190915283518085019094528352646d616e676160d81b908301526101e081019190915260005b60108110156116425761163082826010811061162657634e487b7160e01b600052603260045260246000fd5b6020020151612620565b8061163a816139ae565b9150506115fa565b50508015611003576000805461ff0019169055604051600181527f7f26b83ff96e1f2b6a682f133852f6798a09c465da95921460cefb38474024989060200160405180910390a150505050505050565b8686868080601f0160208091040260200160405190810160405280939291908181526020018383808284376000920191909152506116d892508491508390506001611b31565b6116e0610a04565b156116fd5760405162461bcd60e51b81526004016108ec90613699565b610d6a8a61170f8b6109108c8c611ca4565b611719888a61386b565b611723878961386b565b6001611dfd565b6117326122a0565b60005b8181101561094b5760c9546001600160a01b0316635096023984848481811061176e57634e487b7160e01b600052603260045260246000fd5b90506020020160208101906117839190612f81565b6040516001600160e01b031960e084901b1681526001600160a01b039091166004820152602401600060405180830381600087803b1580156117c457600080fd5b505af11580156117d8573d6000803e3d6000fd5b5050505080806117e7906139ae565b915050611735565b60008281526097602052604090206001015461180a81612208565b61094b8383612331565b61181f610651611c95565b61183b5760405162461bcd60e51b81526004016108ec90613664565b60005b8181101561094b576118f983838381811061186957634e487b7160e01b600052603260045260246000fd5b905060200281019061187b91906137b5565b6040013584848481811061189f57634e487b7160e01b600052603260045260246000fd5b90506020028101906118b191906137b5565b6118bf906020810190613771565b8080601f01602080910402602001604051908101604052809392919081815260200183838082843760009201829052509250611b31915050565b60006119ae84848481811061191e57634e487b7160e01b600052603260045260246000fd5b905060200281019061193091906137b5565b6040013585858581811061195457634e487b7160e01b600052603260045260246000fd5b905060200281019061196691906137b5565b611974906020810190613771565b8080601f016020809104026020016040519081016040528093929190818152602001838380828437600092019190915250611cd092505050565b905060006119bb8261245e565b5060c954604051634f558e7960e01b8152600481018390529192506001600160a01b031690634f558e799060240160206040518083038186803b158015611a0157600080fd5b505afa158015611a15573d6000803e3d6000fd5b505050506040513d601f19601f82011682018060405250810190611a39919061325d565b611a8e576060611a8c868686818110611a6257634e487b7160e01b600052603260045260246000fd5b9050602002810190611a7491906137b5565b611a82906020810190612f81565b8483846000611dfd565b505b50508080611a9b906139ae565b91505061183e565b611aab6122a0565b611ab481612813565b611ad05760405162461bcd60e51b81526004016108ec906136c3565b600081815260cd60205260408120611ae791612e26565b60405181907f0aa1aff0f830e739d86baf0e6624d6763da02f7733575e0e463886cd062dea6a90600090a250565b611b1d6122a0565b611b2681612839565b6109616000826128af565b611b3a83612813565b611b565760405162461bcd60e51b81526004016108ec906136c3565b6000611b898360408051808201825260008082526020918201528151808301909252825182529182019181019190915290565b9050600a81600001511115611c3257611bb4611ba8826000600a6128b9565b80516020909101512090565b7fb551e0305c8163b812374b8e78b577c77f226f6f10c5ad03e52699578fbc34b81415611c325760405162461bcd60e51b815260206004820152602660248201527f4d696e74696e674d616e616765723a20544f4b454e5f4c4142454c5f50524f4860448201526512509255115160d21b60648201526084016108ec565b811580611c435750611c43836128f8565b611c8f5760405162461bcd60e51b815260206004820152601d60248201527f4d696e74696e674d616e616765723a204c4142454c5f494e56414c494400000060448201526064016108ec565b50505050565b6000611c9f612a5d565b905090565b60608282604051602001611cb9929190613481565b604051602081830303815290604052905092915050565b604080516002808252606082810190935260009190816020015b6060815260200190600190039081611cea5790505090508281600081518110611d2357634e487b7160e01b600052603260045260246000fd5b602002602001018190525060cd60008581526020019081526020016000208054611d4c90613973565b80601f0160208091040260200160405190810160405280929190818152602001828054611d7890613973565b8015611dc55780601f10611d9a57610100808354040283529160200191611dc5565b820191906000526020600020905b815481529060010190602001808311611da857829003601f168201915b505050505081600181518110611deb57634e487b7160e01b600052603260045260246000fd5b60209081029190910101529392505050565b600080611e098661245e565b91509150828015611e1b575060028651115b8015611eac575060c9546040516331a9108f60e11b8152600481018390526001600160a01b03898116921690636352211e9060240160206040518083038186803b158015611e6857600080fd5b505afa158015611e7c573d6000803e3d6000fd5b505050506040513d601f19601f82011682018060405250810190611ea09190612f9d565b6001600160a01b031614155b15611f0c5760405162461bcd60e51b815260206004820152602a60248201527f4d696e74696e674d616e616765723a20524556455253455f5245434f52445f4e60448201526913d517d0531313d5d15160b21b60648201526084016108ec565b60c954604051634f558e7960e01b8152600481018490526001600160a01b0390911690634f558e799060240160206040518083038186803b158015611f5057600080fd5b505afa158015611f64573d6000803e3d6000fd5b505050506040513d601f19601f82011682018060405250810190611f88919061325d565b8015612016575060c9546040516331a9108f60e11b81526004810184905230916001600160a01b031690636352211e9060240160206040518083038186803b158015611fd357600080fd5b505afa158015611fe7573d6000803e3d6000fd5b505050506040513d601f19601f8201168201806040525081019061200b9190612f9d565b6001600160a01b0316145b1561208a5760c954604051630fb8df0360e11b81526001600160a01b0390911690631f71be0690612053908a908a908a908a908a9060040161351e565b600060405180830381600087803b15801561206d57600080fd5b505af1158015612081573d6000803e3d6000fd5b50505050611003565b61209382612aa4565b61209c86612b03565b80156120a9575085516002145b156121955760ca5486516001600160a01b039091169063c36c212590899089906000906120e657634e487b7160e01b600052603260045260246000fd5b602090810291909101015160cc546040516001600160e01b031960e086901b1681526121209392916001600160a01b03169060040161357d565b600060405180830381600087803b15801561213a57600080fd5b505af115801561214e573d6000803e3d6000fd5b505050506000855111156121905760cc54604051633a0deb9d60e21b81526001600160a01b039091169063e837ae7490612053908890889087906004016135b2565b611003565b60c95460405163ba5d40b760e01b81526001600160a01b039091169063ba5d40b7906121cd908a908a908a908a908a9060040161351e565b600060405180830381600087803b1580156121e757600080fd5b505af11580156121fb573d6000803e3d6000fd5b5050505050505050505050565b61096181612214611c95565b612b5d565b612223828261100c565b6109ee5760008281526097602090815260408083206001600160a01b03851684529091529020805460ff1916600117905561225c611c95565b6001600160a01b0316816001600160a01b0316837f2f8788117e7eff1d82e926ec794901d17c78024a50270940304540a733656f0d60405160405180910390a45050565b6122a8611c95565b6001600160a01b03166122c36033546001600160a01b031690565b6001600160a01b031614610a025760405162461bcd60e51b815260206004820181905260248201527f4f776e61626c653a2063616c6c6572206973206e6f7420746865206f776e657260448201526064016108ec565b610961600080516020613a39833981519152826117ef565b61233b828261100c565b156109ee5760008281526097602090815260408083206001600160a01b03851684529091529020805460ff19169055612372611c95565b6001600160a01b0316816001600160a01b0316837ff6391f5c32d9c69d2a47ea670b442974b53935d1edc7fd64eb21e047a839171b60405160405180910390a45050565b6123be610a04565b6124015760405162461bcd60e51b815260206004820152601460248201527314185d5cd8589b194e881393d517d4105554d15160621b60448201526064016108ec565b600080516020613a19833981519152805460ff191690557f5db9ee0a495bf2e6ff9c91a7834c1ba4fdd244a5e8aa4e537bd38aeae4b073aa612441611c95565b6040516001600160a01b03909116815260200160405180910390a1565b805160009081905b80156124935782915061247f8285610cc2600185613854565b92508061248b8161395c565b915050612466565b50915091565b60008151600014156124ed5760405162461bcd60e51b815260206004820152601b60248201527f4d696e74696e674d616e616765723a204c4142454c5f454d505459000000000060448201526064016108ec565b82826040516020016124ff9190613465565b6040516020818303038152906040528051906020012060405160200161252f929190918252602082015260400190565b60408051601f1981840301815291905280516020909101209392505050565b610961600080516020613a39833981519152826128af565b603380546001600160a01b038381166001600160a01b0319831681179093556040519116919082907f8be0079c531659141344cd1fd0a4f28419497f9722a3daafe3b4186f6b6457e090600090a35050565b6125c0610a04565b156125dd5760405162461bcd60e51b81526004016108ec90613699565b600080516020613a19833981519152805460ff191660011790557f62e78cea01bee320cd4e420270b5ea74000d11b0c9f74754ebdbfc544b05a258612441611c95565b600061262d600083612499565b600081815260cd602090815260409091208451929350612651929091850190612e60565b50807f4fce6f6e172b04eaa80325d8e3b0180a34945000f3e214605039e8420fdf8980836040516126829190613651565b60405180910390a260c954604051634f558e7960e01b8152600481018390526001600160a01b0390911690634f558e799060240160206040518083038186803b1580156126ce57600080fd5b505afa1580156126e2573d6000803e3d6000fd5b505050506040513d601f19601f82011682018060405250810190612706919061325d565b6109ee5760c9546040516307befae360e51b81526001600160a01b039091169063f7df5c60906111139084908690600401613750565b600054610100900460ff166127635760405162461bcd60e51b81526004016108ec90613705565b610a0261276e611c95565b612566565b600054610100900460ff1661279a5760405162461bcd60e51b81526004016108ec90613705565b610a0260006127a7611c95565b6128af565b600054610100900460ff166112445760405162461bcd60e51b81526004016108ec90613705565b600054610100900460ff166127fa5760405162461bcd60e51b81526004016108ec90613705565b600080516020613a19833981519152805460ff19169055565b600081815260cd60205260408120805482919061282f90613973565b9050119050919050565b6128416122a0565b6001600160a01b0381166128a65760405162461bcd60e51b815260206004820152602660248201527f4f776e61626c653a206e6577206f776e657220697320746865207a65726f206160448201526564647265737360d01b60648201526084016108ec565b61096181612566565b6109ee8282612219565b604080518082019091526000808252602082015260405180604001604052808381526020018486602001516128ee919061381d565b9052949350505050565b600081516000141561290c57506000919050565b60208201805160f81c6030811080159061292a575060398160ff1611155b15801561294c575060618160ff161015801561294a5750607a8160ff1611155b155b1561295b575060009392505050565b835160018111156129c95761297d83612975600184613854565b015160f81c90565b915060308260ff1610158015612997575060398260ff1611155b1580156129b9575060618260ff16101580156129b75750607a8260ff1611155b155b156129c957506000949350505050565b60015b6129d7600183613854565b811015612a51578381015160f81c9250602d8314801590612a0d575060308360ff1610158015612a0b575060398360ff1611155b155b8015612a2e575060618360ff1610158015612a2c5750607a8360ff1611155b155b15612a3f5750600095945050505050565b80612a49816139ae565b9150506129cc565b50600195945050505050565b7f893ef2ea16c023f61d4f55d3e6ee3fc3f2fbfd478461323dbc2fbf919047086e546000906001600160a01b0316331415612a9f575060331936013560601c90565b503390565b612aad816111b4565b15612afa5760405162461bcd60e51b815260206004820152601d60248201527f4d696e74696e674d616e616765723a20544f4b454e5f424c4f434b454400000060448201526064016108ec565b61096181612bc1565b600080612b1a60008460018651610cc29190613854565b60ca549091506001600160a01b031615801590612b565750807f0f4a10a4f46c288cea365fcf45cccf0e9d901b945b9829ccdb54c10dc3cb7a6f145b9392505050565b612b67828261100c565b6109ee57612b7f816001600160a01b03166014612c45565b612b8a836020612c45565b604051602001612b9b9291906134a9565b60408051601f198184030181529082905262461bcd60e51b82526108ec91600401613651565b604080517f1ec047073e2c8b15660901dbfdb6e3ff6365bd699dd9f95dcc6eab5448bebd696020820152908101829052600190612c00906060016111ef565b805460ff19169115159190911790556040518181527f2ce5d9351b1d590d5a066db0d2dc7602d55f092506a83a7ee8c4d78ee357d75a9060200160405180910390a150565b60606000612c54836002613835565b612c5f90600261381d565b6001600160401b03811115612c8457634e487b7160e01b600052604160045260246000fd5b6040519080825280601f01601f191660200182016040528015612cae576020820181803683370190505b509050600360fc1b81600081518110612cd757634e487b7160e01b600052603260045260246000fd5b60200101906001600160f81b031916908160001a905350600f60fb1b81600181518110612d1457634e487b7160e01b600052603260045260246000fd5b60200101906001600160f81b031916908160001a9053506000612d38846002613835565b612d4390600161381d565b90505b6001811115612dd7576f181899199a1a9b1b9c1cb0b131b232b360811b85600f1660108110612d8557634e487b7160e01b600052603260045260246000fd5b1a60f81b828281518110612da957634e487b7160e01b600052603260045260246000fd5b60200101906001600160f81b031916908160001a90535060049490941c93612dd08161395c565b9050612d46565b508315612b565760405162461bcd60e51b815260206004820181905260248201527f537472696e67733a20686578206c656e67746820696e73756666696369656e7460448201526064016108ec565b508054612e3290613973565b6000825580601f10612e42575050565b601f0160209004906000526020600020908101906109619190612ee4565b828054612e6c90613973565b90600052602060002090601f016020900481019282612e8e5760008555612ed4565b82601f10612ea757805160ff1916838001178555612ed4565b82800160010185558215612ed4579182015b82811115612ed4578251825591602001919060010190612eb9565b50612ee0929150612ee4565b5090565b5b80821115612ee05760008155600101612ee5565b60008083601f840112612f0a578182fd5b5081356001600160401b03811115612f20578182fd5b6020830191508360208260051b8501011115612f3b57600080fd5b9250929050565b60008083601f840112612f53578182fd5b5081356001600160401b03811115612f69578182fd5b602083019150836020828501011115612f3b57600080fd5b600060208284031215612f92578081fd5b8135612b56816139f5565b600060208284031215612fae578081fd5b8151612b56816139f5565b60008060008060008060008060a0898b031215612fd4578384fd5b8835612fdf816139f5565b975060208901356001600160401b0380821115612ffa578586fd5b6130068c838d01612ef9565b909950975060408b013591508082111561301e578586fd5b61302a8c838d01612ef9565b909750955060608b0135915080821115613042578485fd5b5061304f8b828c01612ef9565b909450925050608089013561306381613a0a565b809150509295985092959890939650565b60008060008060608587031215613089578384fd5b8435613094816139f5565b93506020850135925060408501356001600160401b038111156130b5578283fd5b6130c187828801612f42565b95989497509550505050565b60008060008060008060008060a0898b0312156130e8578182fd5b88356130f3816139f5565b97506020890135965060408901356001600160401b0380821115613115578384fd5b6131218c838d01612f42565b909850965060608b0135915080821115613139578384fd5b6131458c838d01612ef9565b909650945060808b013591508082111561315d578384fd5b5061316a8b828c01612ef9565b999c989b5096995094979396929594505050565b60008060208385031215613190578182fd5b82356001600160401b038111156131a5578283fd5b6131b185828601612ef9565b90969095509350505050565b600060208083850312156131cf578182fd5b82356001600160401b038111156131e4578283fd5b8301601f810185136131f4578283fd5b8035613207613202826137fa565b6137ca565b80828252848201915084840188868560051b8701011115613226578687fd5b8694505b8385101561325157803561323d816139f5565b83526001949094019391850191850161322a565b50979650505050505050565b60006020828403121561326e578081fd5b8151612b5681613a0a565b60006020828403121561328a578081fd5b5035919050565b600080604083850312156132a3578182fd5b8235915060208301356132b5816139f5565b809150509250929050565b6000602082840312156132d1578081fd5b81356001600160e01b031981168114612b56578182fd5b60008060008060008060c08789031215613300578384fd5b863561330b816139f5565b9550602087013561331b816139f5565b9450604087013561332b816139f5565b9350606087013561333b816139f5565b9250608087013561334b816139f5565b915060a087013561335b816139f5565b809150509295509295509295565b6000806020838503121561337b578182fd5b82356001600160401b03811115613390578283fd5b6131b185828601612f42565b6000806000604084860312156133b0578081fd5b8335925060208401356001600160401b038111156133cc578182fd5b6133d886828701612f42565b9497909650939450505050565b600081518084526020808501808196508360051b81019150828601855b8581101561342c57828403895261341a848351613439565b98850198935090840190600101613402565b5091979650505050505050565b60008151808452613451816020860160208601613930565b601f01601f19169290920160200192915050565b60008251613477818460208701613930565b9190910192915050565b6b756e732d646576746573742d60a01b81528183600c83013760009101600c01908152919050565b7f416363657373436f6e74726f6c3a206163636f756e74200000000000000000008152600083516134e1816017850160208801613930565b7001034b99036b4b9b9b4b733903937b6329607d1b6017918401918201528351613512816028840160208801613930565b01602801949350505050565b6001600160a01b038616815260a060208201819052600090613542908301876133e5565b828103604084015261355481876133e5565b9050828103606084015261356881866133e5565b91505082151560808301529695505050505050565b600060018060a01b0380861683526060602084015261359f6060840186613439565b9150808416604084015250949350505050565b6060815260006135c560608301866133e5565b82810360208401526135d781866133e5565b915050826040830152949350505050565b6020808252810182905260006001600160fb1b03831115613607578081fd5b8260051b808560408501379190910160400190815292915050565b60208152816020820152818360408301376000818301604090810191909152601f909201601f19160101919050565b602081526000612b566020830184613439565b6020808252818101527f4d696e746572526f6c653a2043414c4c45525f49535f4e4f545f4d494e544552604082015260600190565b60208082526010908201526f14185d5cd8589b194e8814105554d15160821b604082015260600190565b60208082526022908201527f4d696e74696e674d616e616765723a20544c445f4e4f545f5245474953544552604082015261115160f21b606082015260800190565b6020808252602b908201527f496e697469616c697a61626c653a20636f6e7472616374206973206e6f74206960408201526a6e697469616c697a696e6760a81b606082015260800190565b8281526040602082015260006137696040830184613439565b949350505050565b6000808335601e19843603018112613787578283fd5b8301803591506001600160401b038211156137a0578283fd5b602001915036819003821315612f3b57600080fd5b60008235605e19833603018112613477578182fd5b604051601f8201601f191681016001600160401b03811182821017156137f2576137f26139df565b604052919050565b60006001600160401b03821115613813576138136139df565b5060051b60200190565b60008219821115613830576138306139c9565b500190565b600081600019048311821515161561384f5761384f6139c9565b500290565b600082821015613866576138666139c9565b500390565b6000613879613202846137fa565b808482526020808301925084368760051b87011115613896578485fd5b845b878110156139245781356001600160401b03808211156138b6578788fd5b90880190601f36818401126138c9578889fd5b8235828111156138db576138db6139df565b6138ec818301601f191688016137ca565b9250808352368782860101111561390157898afd5b808785018885013782018601899052508652509382019390820190600101613898565b50919695505050505050565b60005b8381101561394b578181015183820152602001613933565b83811115611c8f5750506000910152565b60008161396b5761396b6139c9565b506000190190565b600181811c9082168061398757607f821691505b602082108114156139a857634e487b7160e01b600052602260045260246000fd5b50919050565b60006000198214156139c2576139c26139c9565b5060010190565b634e487b7160e01b600052601160045260246000fd5b634e487b7160e01b600052604160045260246000fd5b6001600160a01b038116811461096157600080fd5b801515811461096157600080fdfe5496787fc1ebdfeba375028c1865f13fbb1d63c0caa356ccc1b29a80f3ebd6229f2df0fed2c77648de5860a4cc508cd0818c85b8b8a1ab4ceeef8d981c8956a6a164736f6c6343000804000a",
  "linkReferences": {},
  "deployedLinkReferences": {}
}