{
  "_format": "hh-sol-artifact-1",
  "contractName": "MintingManager",
  "sourceName": "contracts/MintingManager.sol",
  "abi": [
    {
      "anonymous": false,
      "inputs": [
        {
          "indexed": false,
          "internalType": "uint256",
          "name": "tokenId",
          "type": "uint256"
        }
      ],
      "name": "Blocked",
      "type": "event"
    },
    {
      "anonymous": false,
      "inputs": [
        {
          "indexed": false,
          "internalType": "bool",
          "name": "state",
          "type": "bool"
        }
      ],
      "name": "BlocklistPaused",
      "type": "event"
    },
    {
      "anonymous": false,
      "inputs": [
        {
          "indexed": true,
          "internalType": "address",
          "name": "previousOwner",
          "type": "address"
        },
        {
          "indexed": true,
          "internalType": "address",
          "name": "newOwner",
          "type": "address"
        }
      ],
      "name": "OwnershipTransferred",
      "type": "event"
    },
    {
      "anonymous": false,
      "inputs": [
        {
          "indexed": true,
          "internalType": "address",
          "name": "sender",
          "type": "address"
        },
        {
          "indexed": true,
          "internalType": "address",
          "name": "signer",
          "type": "address"
        },
        {
          "indexed": true,
          "internalType": "bytes4",
          "name": "funcSig",
          "type": "bytes4"
        },
        {
          "indexed": false,
          "internalType": "bytes32",
          "name": "digest",
          "type": "bytes32"
        }
      ],
      "name": "Relayed",
      "type": "event"
    },
    {
      "anonymous": false,
      "inputs": [
        {
          "indexed": true,
          "internalType": "bytes32",
          "name": "role",
          "type": "bytes32"
        },
        {
          "indexed": true,
          "internalType": "bytes32",
          "name": "previousAdminRole",
          "type": "bytes32"
        },
        {
          "indexed": true,
          "internalType": "bytes32",
          "name": "newAdminRole",
          "type": "bytes32"
        }
      ],
      "name": "RoleAdminChanged",
      "type": "event"
    },
    {
      "anonymous": false,
      "inputs": [
        {
          "indexed": true,
          "internalType": "bytes32",
          "name": "role",
          "type": "bytes32"
        },
        {
          "indexed": true,
          "internalType": "address",
          "name": "account",
          "type": "address"
        },
        {
          "indexed": true,
          "internalType": "address",
          "name": "sender",
          "type": "address"
        }
      ],
      "name": "RoleGranted",
      "type": "event"
    },
    {
      "anonymous": false,
      "inputs": [
        {
          "indexed": true,
          "internalType": "bytes32",
          "name": "role",
          "type": "bytes32"
        },
        {
          "indexed": true,
          "internalType": "address",
          "name": "account",
          "type": "address"
        },
        {
          "indexed": true,
          "internalType": "address",
          "name": "sender",
          "type": "address"
        }
      ],
      "name": "RoleRevoked",
      "type": "event"
    },
    {
      "inputs": [],
      "name": "DEFAULT_ADMIN_ROLE",
      "outputs": [
        {
          "internalType": "bytes32",
          "name": "",
          "type": "bytes32"
        }
      ],
      "stateMutability": "view",
      "type": "function"
    },
    {
      "inputs": [],
      "name": "MINTER_ROLE",
      "outputs": [
        {
          "internalType": "bytes32",
          "name": "",
          "type": "bytes32"
        }
      ],
      "stateMutability": "view",
      "type": "function"
    },
    {
      "inputs": [],
      "name": "NAME",
      "outputs": [
        {
          "internalType": "string",
          "name": "",
          "type": "string"
        }
      ],
      "stateMutability": "view",
      "type": "function"
    },
    {
      "inputs": [],
      "name": "VERSION",
      "outputs": [
        {
          "internalType": "string",
          "name": "",
          "type": "string"
        }
      ],
      "stateMutability": "view",
      "type": "function"
    },
    {
      "inputs": [
        {
          "internalType": "address",
          "name": "account",
          "type": "address"
        }
      ],
      "name": "addMinter",
      "outputs": [],
      "stateMutability": "nonpayable",
      "type": "function"
    },
    {
      "inputs": [
        {
          "internalType": "address[]",
          "name": "accounts",
          "type": "address[]"
        }
      ],
      "name": "addMinters",
      "outputs": [],
      "stateMutability": "nonpayable",
      "type": "function"
    },
    {
      "inputs": [
        {
          "internalType": "uint256[]",
          "name": "tokenIds",
          "type": "uint256[]"
        }
      ],
      "name": "areBlocked",
      "outputs": [
        {
          "internalType": "bool[]",
          "name": "values",
          "type": "bool[]"
        }
      ],
      "stateMutability": "view",
      "type": "function"
    },
    {
      "inputs": [
        {
          "internalType": "uint256",
          "name": "tokenId",
          "type": "uint256"
        }
      ],
      "name": "blocklist",
      "outputs": [],
      "stateMutability": "nonpayable",
      "type": "function"
    },
    {
      "inputs": [
        {
          "internalType": "uint256[]",
          "name": "tokenIds",
          "type": "uint256[]"
        }
      ],
      "name": "blocklistAll",
      "outputs": [],
      "stateMutability": "nonpayable",
      "type": "function"
    },
    {
      "inputs": [
        {
          "internalType": "uint256",
          "name": "tld",
          "type": "uint256"
        },
        {
          "internalType": "string",
          "name": "label",
          "type": "string"
        }
      ],
      "name": "claim",
      "outputs": [],
      "stateMutability": "nonpayable",
      "type": "function"
    },
    {
      "inputs": [
        {
          "internalType": "address",
          "name": "to",
          "type": "address"
        },
        {
          "internalType": "uint256",
          "name": "tld",
          "type": "uint256"
        },
        {
          "internalType": "string",
          "name": "label",
          "type": "string"
        }
      ],
      "name": "claimTo",
      "outputs": [],
      "stateMutability": "nonpayable",
      "type": "function"
    },
    {
      "inputs": [
        {
          "internalType": "address",
          "name": "to",
          "type": "address"
        },
        {
          "internalType": "uint256",
          "name": "tld",
          "type": "uint256"
        },
        {
          "internalType": "string",
          "name": "label",
          "type": "string"
        },
        {
          "internalType": "string[]",
          "name": "keys",
          "type": "string[]"
        },
        {
          "internalType": "string[]",
          "name": "values",
          "type": "string[]"
        }
      ],
      "name": "claimToWithRecords",
      "outputs": [],
      "stateMutability": "nonpayable",
      "type": "function"
    },
    {
      "inputs": [
        {
          "internalType": "address payable",
          "name": "receiver",
          "type": "address"
        }
      ],
      "name": "closeMinter",
      "outputs": [],
      "stateMutability": "payable",
      "type": "function"
    },
    {
      "inputs": [],
      "name": "cnsMintingController",
      "outputs": [
        {
          "internalType": "contract IMintingController",
          "name": "",
          "type": "address"
        }
      ],
      "stateMutability": "view",
      "type": "function"
    },
    {
      "inputs": [],
      "name": "cnsResolver",
      "outputs": [
        {
          "internalType": "contract IResolver",
          "name": "",
          "type": "address"
        }
      ],
      "stateMutability": "view",
      "type": "function"
    },
    {
      "inputs": [],
      "name": "cnsURIPrefixController",
      "outputs": [
        {
          "internalType": "contract IURIPrefixController",
          "name": "",
          "type": "address"
        }
      ],
      "stateMutability": "view",
      "type": "function"
    },
    {
      "inputs": [
        {
          "internalType": "bytes32",
          "name": "role",
          "type": "bytes32"
        }
      ],
      "name": "getRoleAdmin",
      "outputs": [
        {
          "internalType": "bytes32",
          "name": "",
          "type": "bytes32"
        }
      ],
      "stateMutability": "view",
      "type": "function"
    },
    {
      "inputs": [
        {
          "internalType": "bytes32",
          "name": "role",
          "type": "bytes32"
        },
        {
          "internalType": "address",
          "name": "account",
          "type": "address"
        }
      ],
      "name": "grantRole",
      "outputs": [],
      "stateMutability": "nonpayable",
      "type": "function"
    },
    {
      "inputs": [
        {
          "internalType": "bytes32",
          "name": "role",
          "type": "bytes32"
        },
        {
          "internalType": "address",
          "name": "account",
          "type": "address"
        }
      ],
      "name": "hasRole",
      "outputs": [
        {
          "internalType": "bool",
          "name": "",
          "type": "bool"
        }
      ],
      "stateMutability": "view",
      "type": "function"
    },
    {
      "inputs": [
        {
          "internalType": "contract IUNSRegistry",
          "name": "unsRegistry_",
          "type": "address"
        },
        {
          "internalType": "contract IMintingController",
          "name": "cnsMintingController_",
          "type": "address"
        },
        {
          "internalType": "contract IURIPrefixController",
          "name": "cnsURIPrefixController_",
          "type": "address"
        },
        {
          "internalType": "contract IResolver",
          "name": "cnsResolver_",
          "type": "address"
        },
        {
          "internalType": "address",
          "name": "forwarder",
          "type": "address"
        }
      ],
      "name": "initialize",
      "outputs": [],
      "stateMutability": "nonpayable",
      "type": "function"
    },
    {
      "inputs": [
        {
          "internalType": "uint256",
          "name": "tokenId",
          "type": "uint256"
        }
      ],
      "name": "isBlocked",
      "outputs": [
        {
          "internalType": "bool",
          "name": "",
          "type": "bool"
        }
      ],
      "stateMutability": "view",
      "type": "function"
    },
    {
      "inputs": [
        {
          "internalType": "address",
          "name": "account",
          "type": "address"
        }
      ],
      "name": "isMinter",
      "outputs": [
        {
          "internalType": "bool",
          "name": "",
          "type": "bool"
        }
      ],
      "stateMutability": "view",
      "type": "function"
    },
    {
      "inputs": [
        {
          "internalType": "address",
          "name": "forwarder",
          "type": "address"
        }
      ],
      "name": "isTrustedForwarder",
      "outputs": [
        {
          "internalType": "bool",
          "name": "",
          "type": "bool"
        }
      ],
      "stateMutability": "view",
      "type": "function"
    },
    {
      "inputs": [
        {
          "internalType": "address",
          "name": "to",
          "type": "address"
        },
        {
          "internalType": "uint256",
          "name": "tld",
          "type": "uint256"
        },
        {
          "internalType": "string",
          "name": "label",
          "type": "string"
        }
      ],
      "name": "mintSLD",
      "outputs": [],
      "stateMutability": "nonpayable",
      "type": "function"
    },
    {
      "inputs": [
        {
          "internalType": "address",
          "name": "to",
          "type": "address"
        },
        {
          "internalType": "uint256",
          "name": "tld",
          "type": "uint256"
        },
        {
          "internalType": "string",
          "name": "label",
          "type": "string"
        },
        {
          "internalType": "string[]",
          "name": "keys",
          "type": "string[]"
        },
        {
          "internalType": "string[]",
          "name": "values",
          "type": "string[]"
        }
      ],
      "name": "mintSLDWithRecords",
      "outputs": [],
      "stateMutability": "nonpayable",
      "type": "function"
    },
    {
      "inputs": [],
      "name": "owner",
      "outputs": [
        {
          "internalType": "address",
          "name": "",
          "type": "address"
        }
      ],
      "stateMutability": "view",
      "type": "function"
    },
    {
      "inputs": [
        {
          "internalType": "bool",
          "name": "state",
          "type": "bool"
        }
      ],
      "name": "pauseBlocklist",
      "outputs": [],
      "stateMutability": "nonpayable",
      "type": "function"
    },
    {
      "inputs": [
        {
          "internalType": "bytes",
          "name": "data",
          "type": "bytes"
        },
        {
          "internalType": "bytes",
          "name": "signature",
          "type": "bytes"
        }
      ],
      "name": "relay",
      "outputs": [
        {
          "internalType": "bytes",
          "name": "",
          "type": "bytes"
        }
      ],
      "stateMutability": "nonpayable",
      "type": "function"
    },
    {
      "inputs": [
        {
          "internalType": "address",
          "name": "account",
          "type": "address"
        }
      ],
      "name": "removeMinter",
      "outputs": [],
      "stateMutability": "nonpayable",
      "type": "function"
    },
    {
      "inputs": [
        {
          "internalType": "address[]",
          "name": "accounts",
          "type": "address[]"
        }
      ],
      "name": "removeMinters",
      "outputs": [],
      "stateMutability": "nonpayable",
      "type": "function"
    },
    {
      "inputs": [],
      "name": "renounceMinter",
      "outputs": [],
      "stateMutability": "nonpayable",
      "type": "function"
    },
    {
      "inputs": [],
      "name": "renounceOwnership",
      "outputs": [],
      "stateMutability": "nonpayable",
      "type": "function"
    },
    {
      "inputs": [
        {
          "internalType": "bytes32",
          "name": "role",
          "type": "bytes32"
        },
        {
          "internalType": "address",
          "name": "account",
          "type": "address"
        }
      ],
      "name": "renounceRole",
      "outputs": [],
      "stateMutability": "nonpayable",
      "type": "function"
    },
    {
      "inputs": [
        {
          "internalType": "bytes32",
          "name": "role",
          "type": "bytes32"
        },
        {
          "internalType": "address",
          "name": "account",
          "type": "address"
        }
      ],
      "name": "revokeRole",
      "outputs": [],
      "stateMutability": "nonpayable",
      "type": "function"
    },
    {
      "inputs": [
        {
          "internalType": "address payable",
          "name": "receiver",
          "type": "address"
        }
      ],
      "name": "rotateMinter",
      "outputs": [],
      "stateMutability": "payable",
      "type": "function"
    },
    {
      "inputs": [
        {
          "internalType": "address",
          "name": "to",
          "type": "address"
        },
        {
          "internalType": "uint256",
          "name": "tld",
          "type": "uint256"
        },
        {
          "internalType": "string",
          "name": "label",
          "type": "string"
        }
      ],
      "name": "safeMintSLD",
      "outputs": [],
      "stateMutability": "nonpayable",
      "type": "function"
    },
    {
      "inputs": [
        {
          "internalType": "address",
          "name": "to",
          "type": "address"
        },
        {
          "internalType": "uint256",
          "name": "tld",
          "type": "uint256"
        },
        {
          "internalType": "string",
          "name": "label",
          "type": "string"
        },
        {
          "internalType": "bytes",
          "name": "data",
          "type": "bytes"
        }
      ],
      "name": "safeMintSLD",
      "outputs": [],
      "stateMutability": "nonpayable",
      "type": "function"
    },
    {
      "inputs": [
        {
          "internalType": "address",
          "name": "to",
          "type": "address"
        },
        {
          "internalType": "uint256",
          "name": "tld",
          "type": "uint256"
        },
        {
          "internalType": "string",
          "name": "label",
          "type": "string"
        },
        {
          "internalType": "string[]",
          "name": "keys",
          "type": "string[]"
        },
        {
          "internalType": "string[]",
          "name": "values",
          "type": "string[]"
        }
      ],
      "name": "safeMintSLDWithRecords",
      "outputs": [],
      "stateMutability": "nonpayable",
      "type": "function"
    },
    {
      "inputs": [
        {
          "internalType": "address",
          "name": "to",
          "type": "address"
        },
        {
          "internalType": "uint256",
          "name": "tld",
          "type": "uint256"
        },
        {
          "internalType": "string",
          "name": "label",
          "type": "string"
        },
        {
          "internalType": "string[]",
          "name": "keys",
          "type": "string[]"
        },
        {
          "internalType": "string[]",
          "name": "values",
          "type": "string[]"
        },
        {
          "internalType": "bytes",
          "name": "data",
          "type": "bytes"
        }
      ],
      "name": "safeMintSLDWithRecords",
      "outputs": [],
      "stateMutability": "nonpayable",
      "type": "function"
    },
    {
      "inputs": [
        {
          "internalType": "address",
          "name": "forwarder",
          "type": "address"
        }
      ],
      "name": "setForwarder",
      "outputs": [],
      "stateMutability": "nonpayable",
      "type": "function"
    },
    {
      "inputs": [
        {
          "internalType": "address",
          "name": "resolver",
          "type": "address"
        }
      ],
      "name": "setResolver",
      "outputs": [],
      "stateMutability": "nonpayable",
      "type": "function"
    },
    {
      "inputs": [
        {
          "internalType": "string",
          "name": "prefix",
          "type": "string"
        }
      ],
      "name": "setTokenURIPrefix",
      "outputs": [],
      "stateMutability": "nonpayable",
      "type": "function"
    },
    {
      "inputs": [
        {
          "internalType": "bytes4",
          "name": "interfaceId",
          "type": "bytes4"
        }
      ],
      "name": "supportsInterface",
      "outputs": [
        {
          "internalType": "bool",
          "name": "",
          "type": "bool"
        }
      ],
      "stateMutability": "view",
      "type": "function"
    },
    {
      "inputs": [
        {
          "internalType": "address",
          "name": "newOwner",
          "type": "address"
        }
      ],
      "name": "transferOwnership",
      "outputs": [],
      "stateMutability": "nonpayable",
      "type": "function"
    },
    {
      "inputs": [],
      "name": "unsRegistry",
      "outputs": [
        {
          "internalType": "contract IUNSRegistry",
          "name": "",
          "type": "address"
        }
      ],
      "stateMutability": "view",
      "type": "function"
    }
  ],
  "bytecode": "0x608060405234801561001057600080fd5b50614032806100206000396000f3fe6080604052600436106102725760003560e01c806371e2a6571161014f578063a849d65c116100c1578063ceeb4f501161007a578063ceeb4f5014610726578063d539139314610746578063d547741f1461075b578063e47d6cc61461077b578063f2fde38b1461079b578063ffa1ad74146107bb57610272565b8063a849d65c1461067c578063aa271e1a14610691578063ae2ad903146106b1578063b0aa98c7146106d1578063b9998a24146106f1578063cc2c3fc41461071157610272565b806391d148541161011357806391d14854146105dd578063983b2d56146105fd578063986502751461061d57806399e0dd7c14610632578063a217fddf14610652578063a3f4df7e1461066757610272565b806371e2a6571461055557806381c81d35146105755780638bef6039146105885780638da5cb5b146105a8578063906cecc1146105bd57610272565b8063463c4bcb116101e857806358839d6b116101ac57806358839d6b146104b85780635b6fa8db146104d85780635fc1964f146104ed578063634486da1461050d5780636a2d225614610520578063715018a61461054057610272565b8063463c4bcb1461040b5780634c1819e01461042b5780634e543b261461044b578063564a51581461046b578063572b6c051461049857610272565b806327bbd2251161023a57806327bbd225146103495780632f2ff15d146103695780633092afd51461038957806336568abe146103a957806339ccf4d0146103c95780633f41b614146103e957610272565b806301ffc9a7146102775780630e36a87d146102ad5780631459457a146102da578063248a9ca3146102fc578063268b15ed14610329575b600080fd5b34801561028357600080fd5b50610297610292366004613313565b6107d0565b6040516102a491906139dd565b60405180910390f35b3480156102b957600080fd5b506102cd6102c8366004613255565b6107fd565b6040516102a4919061395d565b3480156102e657600080fd5b506102fa6102f5366004613397565b6108d4565b005b34801561030857600080fd5b5061031c6103173660046132cc565b610d16565b6040516102a491906139e8565b34801561033557600080fd5b506102fa61034436600461343a565b610d2b565b34801561035557600080fd5b506102fa610364366004612f81565b610d88565b34801561037557600080fd5b506102fa6103843660046132e4565b610e4b565b34801561039557600080fd5b506102fa6103a4366004612f0c565b610e74565b3480156103b557600080fd5b506102fa6103c43660046132e4565b610ebf565b3480156103d557600080fd5b506102fa6103e4366004612f81565b610f05565b3480156103f557600080fd5b506103fe610faf565b6040516102a49190613748565b34801561041757600080fd5b506102fa6104263660046132cc565b610fbe565b34801561043757600080fd5b506102fa610446366004612f28565b610fee565b34801561045757600080fd5b506102fa610466366004612f0c565b611074565b34801561047757600080fd5b5061048b61048636600461333b565b6110d5565b6040516102a49190613a0f565b3480156104a457600080fd5b506102976104b3366004612f0c565b6112a0565b3480156104c457600080fd5b506102fa6104d336600461310d565b6112e1565b3480156104e457600080fd5b506103fe611390565b3480156104f957600080fd5b506102fa610508366004613195565b61139f565b6102fa61051b366004612f0c565b61142c565b34801561052c57600080fd5b506102fa61053b366004613032565b6114bf565b34801561054c57600080fd5b506102fa6115ac565b34801561056157600080fd5b506102fa610570366004613195565b611635565b6102fa610583366004612f0c565b6116c2565b34801561059457600080fd5b506102fa6105a3366004613294565b61170f565b3480156105b457600080fd5b506103fe611757565b3480156105c957600080fd5b506102fa6105d8366004612f28565b611767565b3480156105e957600080fd5b506102976105f83660046132e4565b6117b2565b34801561060957600080fd5b506102fa610618366004612f0c565b6117dd565b34801561062957600080fd5b506102fa611825565b34801561063e57600080fd5b506102fa61064d366004613407565b611841565b34801561065e57600080fd5b5061031c611957565b34801561067357600080fd5b5061048b61195c565b34801561068857600080fd5b506103fe61198c565b34801561069d57600080fd5b506102976106ac366004612f0c565b61199b565b3480156106bd57600080fd5b506102fa6106cc366004612f28565b6119b5565b3480156106dd57600080fd5b506102976106ec3660046132cc565b611a59565b3480156106fd57600080fd5b506102fa61070c366004612f0c565b611ac7565b34801561071d57600080fd5b506103fe611b0f565b34801561073257600080fd5b506102fa610741366004612f81565b611b1e565b34801561075257600080fd5b5061031c611b72565b34801561076757600080fd5b506102fa6107763660046132e4565b611b84565b34801561078757600080fd5b506102fa610796366004613255565b611ba3565b3480156107a757600080fd5b506102fa6107b6366004612f0c565b611bd4565b3480156107c757600080fd5b5061048b611c27565b60006001600160e01b03198216637965db0b60e01b14806107f557506107f582611c48565b90505b919050565b6060816001600160401b0381111561082557634e487b7160e01b600052604160045260246000fd5b60405190808252806020026020018201604052801561084e578160200160208202803683370190505b50905060005b828110156108cd5761088b84848381811061087f57634e487b7160e01b600052603260045260246000fd5b90506020020135611a59565b8282815181106108ab57634e487b7160e01b600052603260045260246000fd5b91151560209283029190910190910152806108c581613f52565b915050610854565b5092915050565b600054610100900460ff16806108ed575060005460ff16155b6109125760405162461bcd60e51b815260040161090990613c8b565b60405180910390fd5b600054610100900460ff1615801561093d576000805460ff1961ff0019909116610100171660011790555b60c980546001600160a01b038089166001600160a01b03199283161790925560ca805488841690831617905560cb805487841690831617905560cc80549286169290911691909117905561098f611c61565b610997611d2d565b6109a082611db3565b6109a930611e31565b60408051808201909152600681526563727970746f60d01b6020808301918252600080516020613fdd83398151915260005260cd90529051610a0c917f9535d3ea47c5e1398d3405b4fadc73de6b1b1e6a66f674a8886ab7a6c873a39091612de1565b50604080516101408101825260066101008201908152651dd85b1b195d60d21b610120830152815281518083018352600481526331b7b4b760e11b602082810191909152808301919091528251808401845260018152600f60fb1b8183015282840152825180840184526003808252621b999d60ea1b82840152606084019190915283518085018552600a815269313637b1b5b1b430b4b760b11b8184015260808401528351808501855260078152663134ba31b7b4b760c91b8184015260a0840152835180850185528181526207070760eb1b8184015260c0840152835180850190945283526264616f60e81b9083015260e081019190915260005b6008811015610cfa57600080838360088110610b3557634e487b7160e01b600052603260045260246000fd5b6020020151604051602001610b4a91906135a1565b60405160208183030381529060405280519060200120604051602001610b71929190613583565b6040516020818303038152906040528051906020012060001c9050828260088110610bac57634e487b7160e01b600052603260045260246000fd5b602002015160cd60008381526020019081526020016000209080519060200190610bd7929190612de1565b5060c954604051634f558e7960e01b81526001600160a01b0390911690634f558e7990610c089084906004016139e8565b60206040518083038186803b158015610c2057600080fd5b505afa158015610c34573d6000803e3d6000fd5b505050506040513d601f19601f82011682018060405250810190610c5891906132b0565b610ce75760c9546001600160a01b031663d3fc986461dead83868660088110610c9157634e487b7160e01b600052603260045260246000fd5b60200201516040518463ffffffff1660e01b8152600401610cb493929190613823565b600060405180830381600087803b158015610cce57600080fd5b505af1158015610ce2573d6000803e3d6000fd5b505050505b5080610cf281613f52565b915050610b09565b50508015610d0e576000805461ff00191690555b505050505050565b60009081526097602052604090206001015490565b600083815260cd60205260408120805485929190610d4890613f17565b905011610d675760405162461bcd60e51b815260040161090990613e00565b610d82610d72611e49565b85610d7d8686611e58565b611e84565b50505050565b610d936106ac611e49565b610daf5760405162461bcd60e51b815260040161090990613cd9565b600087815260cd60205260408120805489929190610dcc90613f17565b905011610deb5760405162461bcd60e51b815260040161090990613e00565b610e40898989898080601f016020809104026020016040519081016040528093929190818152602001838380828437600092018290525060408051602081019091529081528c93508b92508a91508990611f92565b505050505050505050565b610e5482610d16565b610e6581610e60611e49565b612124565b610e6f8383612188565b505050565b610e7c611e49565b6001600160a01b0316610e8d611757565b6001600160a01b031614610eb35760405162461bcd60e51b815260040161090990613d94565b610ebc8161220f565b50565b610ec7611e49565b6001600160a01b0316816001600160a01b031614610ef75760405162461bcd60e51b815260040161090990613e42565b610f018282612227565b5050565b610f106106ac611e49565b610f2c5760405162461bcd60e51b815260040161090990613cd9565b600087815260cd60205260408120805489929190610f4990613f17565b905011610f685760405162461bcd60e51b815260040161090990613e00565b610e40898989898080601f0160208091040260200160405190810160405280939291908181526020018383808284376000920191909152508b92508a9150899050886122ac565b60c9546001600160a01b031681565b610fc96106ac611e49565b610fe55760405162461bcd60e51b815260040161090990613cd9565b610ebc81612439565b610ff96106ac611e49565b6110155760405162461bcd60e51b815260040161090990613cd9565b600083815260cd6020526040812080548592919061103290613f17565b9050116110515760405162461bcd60e51b815260040161090990613e00565b61106d85858585604051806020016040528060008152506124e3565b5050505050565b61107c611e49565b6001600160a01b031661108d611757565b6001600160a01b0316146110b35760405162461bcd60e51b815260040161090990613d94565b60cc80546001600160a01b0319166001600160a01b0392909216919091179055565b6060600085856040516110e9929190613591565b60405180910390209050600061116685858080601f016020809104026020016040519081016040528093929190818152602001838380828437600092019190915250506040516111609250611145915086903090602001613563565b6040516020818303038152906040528051906020012061266b565b9061269b565b905060008088888080601f0160208091040260200160405190810160405280939291908181526020018383808284376000920191909152505050506020810151925090506111b383612721565b6111be828a8a61274f565b600080306001600160a01b03168b8b6040516111db929190613591565b6000604051808303816000865af19150503d8060008114611218576040519150601f19603f3d011682016040523d82523d6000602084013e61121d565b606091505b50909250905081611235576040513d806000833e8082fd5b6001600160e01b031984166001600160a01b038616611252611e49565b6001600160a01b03167f9490f91465d0d2c12728b9ad47d5f1dd2ac3ef39394796e54a48b94db0b337258960405161128a91906139e8565b60405180910390a49a9950505050505050505050565b60006112cb7f893ef2ea16c023f61d4f55d3e6ee3fc3f2fbfd478461323dbc2fbf919047086e611764565b546001600160a01b038381169116149050919050565b6112ec6106ac611e49565b6113085760405162461bcd60e51b815260040161090990613cd9565b600085815260cd6020526040812080548792919061132590613f17565b9050116113445760405162461bcd60e51b815260040161090990613e00565b6113878787878787878080601f0160208091040260200160405190810160405280939291908181526020018383808284376000920191909152506124e392505050565b50505050505050565b60cc546001600160a01b031681565b6113a7611e49565b6001600160a01b03166113b8611757565b6001600160a01b0316146113de5760405162461bcd60e51b815260040161090990613d94565b60005b8151811015610f015761141a82828151811061140d57634e487b7160e01b600052603260045260246000fd5b602002602001015161220f565b8061142481613f52565b9150506113e1565b6114376106ac611e49565b6114535760405162461bcd60e51b815260040161090990613cd9565b6001600160a01b0381166114795760405162461bcd60e51b815260040161090990613ba4565b61148281611e31565b61148a611825565b6040516001600160a01b038216903480156108fc02916000818181858888f19350505050158015610f01573d6000803e3d6000fd5b6114ca6106ac611e49565b6114e65760405162461bcd60e51b815260040161090990613cd9565b600089815260cd6020526040812080548b92919061150390613f17565b9050116115225760405162461bcd60e51b815260040161090990613e00565b61159f8b8b8b8b8080601f01602080910402602001604051908101604052809392919081815260200183838082843760009201919091525050604080516020601f8b018190048102820181019092528981528e93508d92508c918c91908c908c9081908401838280828437600092019190915250611f9292505050565b5050505050505050505050565b6115b4611e49565b6001600160a01b03166115c5611757565b6001600160a01b0316146115eb5760405162461bcd60e51b815260040161090990613d94565b6033546040516000916001600160a01b0316907f8be0079c531659141344cd1fd0a4f28419497f9722a3daafe3b4186f6b6457e0908390a3603380546001600160a01b0319169055565b61163d611e49565b6001600160a01b031661164e611757565b6001600160a01b0316146116745760405162461bcd60e51b815260040161090990613d94565b60005b8151811015610f01576116b08282815181106116a357634e487b7160e01b600052603260045260246000fd5b6020026020010151611e31565b806116ba81613f52565b915050611677565b6116cd6106ac611e49565b6116e95760405162461bcd60e51b815260040161090990613cd9565b6001600160a01b0381166114825760405162461bcd60e51b815260040161090990613ba4565b611717611e49565b6001600160a01b0316611728611757565b6001600160a01b03161461174e5760405162461bcd60e51b815260040161090990613d94565b610ebc8161280b565b6033546001600160a01b03165b90565b600083815260cd6020526040812080548592919061178490613f17565b9050116117a35760405162461bcd60e51b815260040161090990613e00565b61106d8585610d7d8686611e58565b60009182526097602090815260408084206001600160a01b0393909316845291905290205460ff1690565b6117e5611e49565b6001600160a01b03166117f6611757565b6001600160a01b03161461181c5760405162461bcd60e51b815260040161090990613d94565b610ebc81611e31565b61183f600080516020613fbd8339815191526103c4611e49565b565b611849611e49565b6001600160a01b031661185a611757565b6001600160a01b0316146118805760405162461bcd60e51b815260040161090990613d94565b60c954604051632678375f60e21b81526001600160a01b03909116906399e0dd7c906118b29085908590600401613a22565b600060405180830381600087803b1580156118cc57600080fd5b505af11580156118e0573d6000803e3d6000fd5b505060cb546001600160a01b0316159150610f0190505760cb54604051632678375f60e21b81526001600160a01b03909116906399e0dd7c906119299085908590600401613a22565b600060405180830381600087803b15801561194357600080fd5b505af1158015610d0e573d6000803e3d6000fd5b600081565b604051806040016040528060148152602001732aa7299d1026b4b73a34b7339026b0b730b3b2b960611b81525081565b60cb546001600160a01b031681565b60006107f5600080516020613fbd833981519152836117b2565b6119c06106ac611e49565b6119dc5760405162461bcd60e51b815260040161090990613cd9565b600083815260cd602052604081208054859291906119f990613f17565b905011611a185760405162461bcd60e51b815260040161090990613e00565b61106d858585858080601f016020809104026020016040519081016040528093929190818152602001838380828437600092019190915250611e8492505050565b6000611a63612874565b1580156107f55750604051611abd90611aa2907f1ec047073e2c8b15660901dbfdb6e3ff6365bd699dd9f95dcc6eab5448bebd69908590602001613583565b60405160208183030381529060405280519060200120611764565b5460ff1692915050565b611acf611e49565b6001600160a01b0316611ae0611757565b6001600160a01b031614611b065760405162461bcd60e51b815260040161090990613d94565b610ebc816128a8565b60ca546001600160a01b031681565b600087815260cd60205260408120805489929190611b3b90613f17565b905011611b5a5760405162461bcd60e51b815260040161090990613e00565b610e408989611b698a8a611e58565b888888886122ac565b600080516020613fbd83398151915281565b611b8d82610d16565b611b9981610e60611e49565b610e6f8383612227565b611bae6106ac611e49565b611bca5760405162461bcd60e51b815260040161090990613cd9565b610f0182826128f3565b611bdc611e49565b6001600160a01b0316611bed611757565b6001600160a01b031614611c135760405162461bcd60e51b815260040161090990613d94565b611c1c8161293f565b610ebc600082612a00565b604051806040016040528060058152602001640302e322e360dc1b81525081565b6001600160e01b031981166301ffc9a760e01b14919050565b600054610100900460ff1680611c7a575060005460ff16155b611c965760405162461bcd60e51b815260040161090990613c8b565b600054610100900460ff16158015611cc1576000805460ff1961ff0019909116610100171660011790555b6000611ccb611e49565b603380546001600160a01b0319166001600160a01b038316908117909155604051919250906000907f8be0079c531659141344cd1fd0a4f28419497f9722a3daafe3b4186f6b6457e0908290a3508015610ebc576000805461ff001916905550565b600054610100900460ff1680611d46575060005460ff16155b611d625760405162461bcd60e51b815260040161090990613c8b565b600054610100900460ff16158015611d8d576000805460ff1961ff0019909116610100171660011790555b611d9f6000611d9a611e49565b612a00565b8015610ebc576000805461ff001916905550565b600054610100900460ff1680611dcc575060005460ff16155b611de85760405162461bcd60e51b815260040161090990613c8b565b600054610100900460ff16158015611e13576000805460ff1961ff0019909116610100171660011790555b611e1c826128a8565b8015610f01576000805461ff00191690555050565b610ebc600080516020613fbd83398151915282612a00565b6000611e53612a0a565b905090565b60608282604051602001611e6d9291906136ad565b604051602081830303815290604052905092915050565b6000611e908383612a38565b9050611e9b81612ab4565b82600080516020613fdd8339815191521415611f1f5760ca5460cc5460405163c36c212560e01b81526001600160a01b039283169263c36c212592611ee8928992889216906004016137a6565b600060405180830381600087803b158015611f0257600080fd5b505af1158015611f16573d6000803e3d6000fd5b50505050610d82565b60c9546001600160a01b031663d3fc98648583611f3c8787612ae6565b6040518463ffffffff1660e01b8152600401611f5a93929190613823565b600060405180830381600087803b158015611f7457600080fd5b505af1158015611f88573d6000803e3d6000fd5b5050505050505050565b6000611f9e8888612a38565b9050611fa981612ab4565b87600080516020613fdd83398151915214156120a25760ca5460cc54604051630f95e75b60e31b81526001600160a01b0392831692637caf3ad892611ff8928e928d92169088906004016137db565b600060405180830381600087803b15801561201257600080fd5b505af1158015612026573d6000803e3d6000fd5b50508615915061209d90505760cc54604051633a0deb9d60e21b81526001600160a01b039091169063e837ae749061206a90899089908990899088906004016139a3565b600060405180830381600087803b15801561208457600080fd5b505af1158015612098573d6000803e3d6000fd5b505050505b610e40565b60c9546001600160a01b031663efda4d3e8a836120bf8c8c612ae6565b8a8a8a8a8a6040518963ffffffff1660e01b81526004016120e79897969594939291906138a7565b600060405180830381600087803b15801561210157600080fd5b505af1158015612115573d6000803e3d6000fd5b50505050505050505050505050565b61212e82826117b2565b610f0157612146816001600160a01b03166014612b09565b612151836020612b09565b6040516020016121629291906136d3565b60408051601f198184030181529082905262461bcd60e51b825261090991600401613a0f565b61219282826117b2565b610f015760008281526097602090815260408083206001600160a01b03851684529091529020805460ff191660011790556121cb611e49565b6001600160a01b0316816001600160a01b0316837f2f8788117e7eff1d82e926ec794901d17c78024a50270940304540a733656f0d60405160405180910390a45050565b610ebc600080516020613fbd83398151915282611b84565b61223182826117b2565b15610f015760008281526097602090815260408083206001600160a01b03851684529091529020805460ff19169055612268611e49565b6001600160a01b0316816001600160a01b0316837ff6391f5c32d9c69d2a47ea670b442974b53935d1edc7fd64eb21e047a839171b60405160405180910390a45050565b60006122b88787612a38565b90506122c381612ab4565b86600080516020613fdd83398151915214156123ba5760ca5460cc5460405163c36c212560e01b81526001600160a01b039283169263c36c212592612310928d928c9216906004016137a6565b600060405180830381600087803b15801561232a57600080fd5b505af115801561233e573d6000803e3d6000fd5b5050851591506123b590505760cc54604051633a0deb9d60e21b81526001600160a01b039091169063e837ae749061238290889088908890889088906004016139a3565b600060405180830381600087803b15801561239c57600080fd5b505af11580156123b0573d6000803e3d6000fd5b505050505b611f88565b60c9546001600160a01b031663b0f5917789836123d78b8b612ae6565b898989896040518863ffffffff1660e01b81526004016123fd979695949392919061384a565b600060405180830381600087803b15801561241757600080fd5b505af115801561242b573d6000803e3d6000fd5b505050505050505050505050565b612441612874565b1561245e5760405162461bcd60e51b815260040161090990613c54565b60016124997f1ec047073e2c8b15660901dbfdb6e3ff6365bd699dd9f95dcc6eab5448bebd6960001b83604051602001611aa2929190613583565b805460ff19169115159190911790556040517f2ce5d9351b1d590d5a066db0d2dc7602d55f092506a83a7ee8c4d78ee357d75a906124d89083906139e8565b60405180910390a150565b60006125258585858080601f016020809104026020016040519081016040528093929190818152602001838380828437600092019190915250612a3892505050565b905061253081612ab4565b84600080516020613fdd83398151915214156125b95760ca5460cc54604051630f95e75b60e31b81526001600160a01b0392831692637caf3ad892612582928b928a928a92911690899060040161375c565b600060405180830381600087803b15801561259c57600080fd5b505af11580156125b0573d6000803e3d6000fd5b50505050610d0e565b60c954604080516020601f87018190048102820181019092528581526001600160a01b039092169163b55bc6179189918591612611918b918b908b9081908401838280828437600092019190915250612ae692505050565b866040518563ffffffff1660e01b81526004016126319493929190613919565b600060405180830381600087803b15801561264b57600080fd5b505af115801561265f573d6000803e3d6000fd5b50505050505050505050565b60008160405160200161267e919061367c565b604051602081830303815290604052805190602001209050919050565b6000806000808451604114156126c55750505060208201516040830151606084015160001a61270b565b8451604014156126f35750505060408201516020830151906001600160ff1b0381169060ff1c601b0161270b565b60405162461bcd60e51b815260040161090990613af0565b61271786828585612cc1565b9695505050505050565b61272a81612db7565b6127338161199b565b610ebc5760405162461bcd60e51b815260040161090990613d50565b60006001600160e01b0319841663ae2ad90360e01b148061278057506001600160e01b03198416630260c0cf60e51b145b8061279b57506001600160e01b031984166358839d6b60e01b145b806127b657506001600160e01b0319841663039ccf4d60e41b145b806127d157506001600160e01b031984166327bbd22560e01b145b806127ec57506001600160e01b03198416633516912b60e11b145b905080610d825760405162461bcd60e51b815260040161090990613aaa565b806128357fa0dcf6b78c18ae45967a4073fd9dc39d22b4a768f709ae0d04de58f0a1de3c6b611764565b805460ff19169115159190911790556040517ffd57a948ceab31332ee84de15f1ea4015cbb0331716a688e0879ffa6b2b4436e906124d89083906139dd565b600061289f7fa0dcf6b78c18ae45967a4073fd9dc39d22b4a768f709ae0d04de58f0a1de3c6b611764565b5460ff16905090565b806128d27f893ef2ea16c023f61d4f55d3e6ee3fc3f2fbfd478461323dbc2fbf919047086e611764565b80546001600160a01b0319166001600160a01b039290921691909117905550565b60005b81811015610e6f5761292d83838381811061292157634e487b7160e01b600052603260045260246000fd5b90506020020135612439565b8061293781613f52565b9150506128f6565b612947611e49565b6001600160a01b0316612958611757565b6001600160a01b03161461297e5760405162461bcd60e51b815260040161090990613d94565b6001600160a01b0381166129a45760405162461bcd60e51b815260040161090990613b27565b6033546040516001600160a01b038084169216907f8be0079c531659141344cd1fd0a4f28419497f9722a3daafe3b4186f6b6457e090600090a3603380546001600160a01b0319166001600160a01b0392909216919091179055565b610f018282612188565b6000612a15336112a0565b15612a29575060331936013560601c611764565b612a31612ddd565b9050611764565b6000815160001415612a5c5760405162461bcd60e51b815260040161090990613dc9565b8282604051602001612a6e91906135a1565b60405160208183030381529060405280519060200120604051602001612a95929190613583565b60408051601f1981840301815291905280516020909101209392505050565b612abc612874565b610ebc57612ac981611a59565b15610fe55760405162461bcd60e51b815260040161090990613c1d565b600082815260cd60209081526040918290209151606092611e6d928592016135bd565b60606000612b18836002613eb5565b612b23906002613e9d565b6001600160401b03811115612b4857634e487b7160e01b600052604160045260246000fd5b6040519080825280601f01601f191660200182016040528015612b72576020820181803683370190505b509050600360fc1b81600081518110612b9b57634e487b7160e01b600052603260045260246000fd5b60200101906001600160f81b031916908160001a905350600f60fb1b81600181518110612bd857634e487b7160e01b600052603260045260246000fd5b60200101906001600160f81b031916908160001a9053506000612bfc846002613eb5565b612c07906001613e9d565b90505b6001811115612c9b576f181899199a1a9b1b9c1cb0b131b232b360811b85600f1660108110612c4957634e487b7160e01b600052603260045260246000fd5b1a60f81b828281518110612c6d57634e487b7160e01b600052603260045260246000fd5b60200101906001600160f81b031916908160001a90535060049490941c93612c9481613f00565b9050612c0a565b508315612cba5760405162461bcd60e51b815260040161090990613a75565b9392505050565b60007f7fffffffffffffffffffffffffffffff5d576e7357a4501ddfe92f46681b20a0821115612d035760405162461bcd60e51b815260040161090990613bdb565b8360ff16601b1480612d1857508360ff16601c145b612d345760405162461bcd60e51b815260040161090990613d0e565b600060018686868660405160008152602001604052604051612d5994939291906139f1565b6020604051602081039080840390855afa158015612d7b573d6000803e3d6000fd5b5050604051601f1901519150506001600160a01b038116612dae5760405162461bcd60e51b815260040161090990613a3e565b95945050505050565b6001600160a01b038116610ebc5760405162461bcd60e51b815260040161090990613b6d565b3390565b828054612ded90613f17565b90600052602060002090601f016020900481019282612e0f5760008555612e55565b82601f10612e2857805160ff1916838001178555612e55565b82800160010185558215612e55579182015b82811115612e55578251825591602001919060010190612e3a565b50612e61929150612e65565b5090565b5b80821115612e615760008155600101612e66565b80356107f881613f99565b60008083601f840112612e96578182fd5b5081356001600160401b03811115612eac578182fd5b6020830191508360208083028501011115612ec657600080fd5b9250929050565b60008083601f840112612ede578182fd5b5081356001600160401b03811115612ef4578182fd5b602083019150836020828501011115612ec657600080fd5b600060208284031215612f1d578081fd5b8135612cba81613f99565b60008060008060608587031215612f3d578283fd5b8435612f4881613f99565b93506020850135925060408501356001600160401b03811115612f69578283fd5b612f7587828801612ecd565b95989497509550505050565b60008060008060008060008060a0898b031215612f9c578384fd5b8835612fa781613f99565b97506020890135965060408901356001600160401b0380821115612fc9578586fd5b612fd58c838d01612ecd565b909850965060608b0135915080821115612fed578586fd5b612ff98c838d01612e85565b909650945060808b0135915080821115613011578384fd5b5061301e8b828c01612e85565b999c989b5096995094979396929594505050565b60008060008060008060008060008060c08b8d031215613050578182fd5b6130598b612e7a565b995060208b0135985060408b01356001600160401b038082111561307b578384fd5b6130878e838f01612ecd565b909a50985060608d013591508082111561309f578384fd5b6130ab8e838f01612e85565b909850965060808d01359150808211156130c3578384fd5b6130cf8e838f01612e85565b909650945060a08d01359150808211156130e7578384fd5b506130f48d828e01612ecd565b915080935050809150509295989b9194979a5092959850565b60008060008060008060808789031215613125578182fd5b863561313081613f99565b95506020870135945060408701356001600160401b0380821115613152578384fd5b61315e8a838b01612ecd565b90965094506060890135915080821115613176578384fd5b5061318389828a01612ecd565b979a9699509497509295939492505050565b600060208083850312156131a7578182fd5b82356001600160401b03808211156131bd578384fd5b818501915085601f8301126131d0578384fd5b8135818111156131e2576131e2613f83565b8381026040518582820101818110858211171561320157613201613f83565b604052828152858101935084860182860187018a101561321f578788fd5b8795505b838610156132485761323481612e7a565b855260019590950194938601938601613223565b5098975050505050505050565b60008060208385031215613267578182fd5b82356001600160401b0381111561327c578283fd5b61328885828601612e85565b90969095509350505050565b6000602082840312156132a5578081fd5b8135612cba81613fae565b6000602082840312156132c1578081fd5b8151612cba81613fae565b6000602082840312156132dd578081fd5b5035919050565b600080604083850312156132f6578182fd5b82359150602083013561330881613f99565b809150509250929050565b600060208284031215613324578081fd5b81356001600160e01b031981168114612cba578182fd5b60008060008060408587031215613350578182fd5b84356001600160401b0380821115613366578384fd5b61337288838901612ecd565b9096509450602087013591508082111561338a578384fd5b50612f7587828801612ecd565b600080600080600060a086880312156133ae578283fd5b85356133b981613f99565b945060208601356133c981613f99565b935060408601356133d981613f99565b925060608601356133e981613f99565b915060808601356133f981613f99565b809150509295509295909350565b60008060208385031215613419578182fd5b82356001600160401b0381111561342e578283fd5b61328885828601612ecd565b60008060006040848603121561344e578081fd5b8335925060208401356001600160401b0381111561346a578182fd5b61347686828701612ecd565b9497909650939450505050565b818352602080840193600091908185020181018584845b878110156135005782840389528135601e198836030181126134ba578687fd5b870180356001600160401b038111156134d1578788fd5b8036038913156134df578788fd5b6134ec8682898501613539565b9a87019a955050509084019060010161349a565b5091979650505050505050565b60008151808452613525816020860160208601613ed4565b601f01601f19169290920160200192915050565b60008284528282602086013780602084860101526020601f19601f85011685010190509392505050565b91825260601b6bffffffffffffffffffffffff1916602082015260340190565b918252602082015260400190565b6000828483379101908152919050565b600082516135b3818460208701613ed4565b9190910192915050565b6000835160206135d08285838901613ed4565b601760f91b9184019182528454600190849060028104818416806135f557607f821691505b85821081141561361357634e487b7160e01b88526022600452602488fd5b808015613627576001811461363c5761366c565b60ff198416888701528288018601945061366c565b6136458b613e91565b895b848110156136625781548a8201890152908701908801613647565b5050858389010194505b50929a9950505050505050505050565b7f19457468657265756d205369676e6564204d6573736167653a0a3332000000008152601c810191909152603c0190565b6000697564746573746465762d60b01b82528284600a8401379101600a01908152919050565b60007f416363657373436f6e74726f6c3a206163636f756e74200000000000000000008252835161370b816017850160208801613ed4565b7001034b99036b4b9b9b4b733903937b6329607d1b601791840191820152835161373c816028840160208801613ed4565b01602801949350505050565b6001600160a01b0391909116815260200190565b600060018060a01b0380881683526080602084015261377f608084018789613539565b81861660408501528381036060850152613799818661350d565b9998505050505050505050565b600060018060a01b038086168352606060208401526137c8606084018661350d565b9150808416604084015250949350505050565b600060018060a01b038087168352608060208401526137fd608084018761350d565b81861660408501528381036060850152613817818661350d565b98975050505050505050565b600060018060a01b038516825283602083015260606040830152612dae606083018461350d565b600060018060a01b038916825287602083015260a0604083015261387160a083018861350d565b8281036060840152613884818789613483565b90508281036080840152613899818587613483565b9a9950505050505050505050565b600060018060a01b038a16825288602083015260c060408301526138ce60c083018961350d565b82810360608401526138e181888a613483565b905082810360808401526138f6818688613483565b905082810360a084015261390a818561350d565b9b9a5050505050505050505050565b600060018060a01b038616825284602083015260806040830152613940608083018561350d565b8281036060840152613952818561350d565b979650505050505050565b6020808252825182820181905260009190848201906040850190845b81811015613997578351151583529284019291840191600101613979565b50909695505050505050565b6000606082526139b7606083018789613483565b82810360208401526139ca818688613483565b9150508260408301529695505050505050565b901515815260200190565b90815260200190565b93845260ff9290921660208401526040830152606082015260800190565b600060208252612cba602083018461350d565b600060208252613a36602083018486613539565b949350505050565b60208082526018908201527f45434453413a20696e76616c6964207369676e61747572650000000000000000604082015260600190565b6020808252818101527f537472696e67733a20686578206c656e67746820696e73756666696369656e74604082015260600190565b60208082526026908201527f4d696e74696e674d616e616765723a20554e535550504f525445445f52454c416040820152651657d0d0531360d21b606082015260800190565b6020808252601f908201527f45434453413a20696e76616c6964207369676e6174757265206c656e67746800604082015260600190565b60208082526026908201527f4f776e61626c653a206e6577206f776e657220697320746865207a65726f206160408201526564647265737360d01b606082015260800190565b6020808252601d908201527f52656c617965723a205349474e41545552455f49535f494e56414c4944000000604082015260600190565b6020808252601d908201527f4d696e746572526f6c653a2052454345495645525f49535f454d505459000000604082015260600190565b60208082526022908201527f45434453413a20696e76616c6964207369676e6174757265202773272076616c604082015261756560f01b606082015260800190565b6020808252601d908201527f4d696e74696e674d616e616765723a20544f4b454e5f424c4f434b4544000000604082015260600190565b60208082526018908201527f426c6f636b6c69737453746f726167653a205041555345440000000000000000604082015260600190565b6020808252602e908201527f496e697469616c697a61626c653a20636f6e747261637420697320616c72656160408201526d191e481a5b9a5d1a585b1a5e995960921b606082015260800190565b6020808252818101527f4d696e746572526f6c653a2043414c4c45525f49535f4e4f545f4d494e544552604082015260600190565b60208082526022908201527f45434453413a20696e76616c6964207369676e6174757265202776272076616c604082015261756560f01b606082015260800190565b60208082526024908201527f4d696e74696e674d616e616765723a205349474e45525f49535f4e4f545f4d49604082015263272a22a960e11b606082015260800190565b6020808252818101527f4f776e61626c653a2063616c6c6572206973206e6f7420746865206f776e6572604082015260600190565b6020808252601b908201527f4d696e74696e674d616e616765723a204c4142454c5f454d5054590000000000604082015260600190565b60208082526022908201527f4d696e74696e674d616e616765723a20544c445f4e4f545f5245474953544552604082015261115160f21b606082015260800190565b6020808252602f908201527f416363657373436f6e74726f6c3a2063616e206f6e6c792072656e6f756e636560408201526e103937b632b9903337b91039b2b63360891b606082015260800190565b60009081526020902090565b60008219821115613eb057613eb0613f6d565b500190565b6000816000190483118215151615613ecf57613ecf613f6d565b500290565b60005b83811015613eef578181015183820152602001613ed7565b83811115610d825750506000910152565b600081613f0f57613f0f613f6d565b506000190190565b600281046001821680613f2b57607f821691505b60208210811415613f4c57634e487b7160e01b600052602260045260246000fd5b50919050565b6000600019821415613f6657613f66613f6d565b5060010190565b634e487b7160e01b600052601160045260246000fd5b634e487b7160e01b600052604160045260246000fd5b6001600160a01b0381168114610ebc57600080fd5b8015158114610ebc57600080fdfe9f2df0fed2c77648de5860a4cc508cd0818c85b8b8a1ab4ceeef8d981c8956a60f4a10a4f46c288cea365fcf45cccf0e9d901b945b9829ccdb54c10dc3cb7a6fa2646970667358221220162361c963ecdacd6ddd41418f6a5e56a7120d8fde54351d1984de537403a5f664736f6c63430008000033",
  "linkReferences": {},
  "deployedLinkReferences": {}
}