{
  "_format": "hh-sol-artifact-1",
  "contractName": "MintingManager",
  "sourceName": "contracts/MintingManager.sol",
  "abi": [
    {
      "anonymous": false,
      "inputs": [
        {
          "indexed": false,
          "internalType": "uint256",
          "name": "tokenId",
          "type": "uint256"
        }
      ],
      "name": "Blocked",
      "type": "event"
    },
    {
      "anonymous": false,
      "inputs": [
        {
          "indexed": false,
          "internalType": "bool",
          "name": "state",
          "type": "bool"
        }
      ],
      "name": "BlocklistPaused",
      "type": "event"
    },
    {
      "anonymous": false,
      "inputs": [
        {
          "indexed": true,
          "internalType": "uint256",
          "name": "namehash",
          "type": "uint256"
        },
        {
          "indexed": false,
          "internalType": "string",
          "name": "tld",
          "type": "string"
        }
      ],
      "name": "NewTld",
      "type": "event"
    },
    {
      "anonymous": false,
      "inputs": [
        {
          "indexed": true,
          "internalType": "address",
          "name": "previousOwner",
          "type": "address"
        },
        {
          "indexed": true,
          "internalType": "address",
          "name": "newOwner",
          "type": "address"
        }
      ],
      "name": "OwnershipTransferred",
      "type": "event"
    },
    {
      "anonymous": false,
      "inputs": [
        {
          "indexed": true,
          "internalType": "address",
          "name": "sender",
          "type": "address"
        },
        {
          "indexed": true,
          "internalType": "address",
          "name": "signer",
          "type": "address"
        },
        {
          "indexed": true,
          "internalType": "bytes4",
          "name": "funcSig",
          "type": "bytes4"
        },
        {
          "indexed": false,
          "internalType": "bytes32",
          "name": "digest",
          "type": "bytes32"
        }
      ],
      "name": "Relayed",
      "type": "event"
    },
    {
      "anonymous": false,
      "inputs": [
        {
          "indexed": true,
          "internalType": "bytes32",
          "name": "role",
          "type": "bytes32"
        },
        {
          "indexed": true,
          "internalType": "bytes32",
          "name": "previousAdminRole",
          "type": "bytes32"
        },
        {
          "indexed": true,
          "internalType": "bytes32",
          "name": "newAdminRole",
          "type": "bytes32"
        }
      ],
      "name": "RoleAdminChanged",
      "type": "event"
    },
    {
      "anonymous": false,
      "inputs": [
        {
          "indexed": true,
          "internalType": "bytes32",
          "name": "role",
          "type": "bytes32"
        },
        {
          "indexed": true,
          "internalType": "address",
          "name": "account",
          "type": "address"
        },
        {
          "indexed": true,
          "internalType": "address",
          "name": "sender",
          "type": "address"
        }
      ],
      "name": "RoleGranted",
      "type": "event"
    },
    {
      "anonymous": false,
      "inputs": [
        {
          "indexed": true,
          "internalType": "bytes32",
          "name": "role",
          "type": "bytes32"
        },
        {
          "indexed": true,
          "internalType": "address",
          "name": "account",
          "type": "address"
        },
        {
          "indexed": true,
          "internalType": "address",
          "name": "sender",
          "type": "address"
        }
      ],
      "name": "RoleRevoked",
      "type": "event"
    },
    {
      "inputs": [],
      "name": "DEFAULT_ADMIN_ROLE",
      "outputs": [
        {
          "internalType": "bytes32",
          "name": "",
          "type": "bytes32"
        }
      ],
      "stateMutability": "view",
      "type": "function"
    },
    {
      "inputs": [],
      "name": "MINTER_ROLE",
      "outputs": [
        {
          "internalType": "bytes32",
          "name": "",
          "type": "bytes32"
        }
      ],
      "stateMutability": "view",
      "type": "function"
    },
    {
      "inputs": [],
      "name": "NAME",
      "outputs": [
        {
          "internalType": "string",
          "name": "",
          "type": "string"
        }
      ],
      "stateMutability": "view",
      "type": "function"
    },
    {
      "inputs": [],
      "name": "VERSION",
      "outputs": [
        {
          "internalType": "string",
          "name": "",
          "type": "string"
        }
      ],
      "stateMutability": "view",
      "type": "function"
    },
    {
      "inputs": [
        {
          "internalType": "address",
          "name": "account",
          "type": "address"
        }
      ],
      "name": "addMinter",
      "outputs": [],
      "stateMutability": "nonpayable",
      "type": "function"
    },
    {
      "inputs": [
        {
          "internalType": "address[]",
          "name": "accounts",
          "type": "address[]"
        }
      ],
      "name": "addMinters",
      "outputs": [],
      "stateMutability": "nonpayable",
      "type": "function"
    },
    {
      "inputs": [
        {
          "internalType": "string",
          "name": "tld",
          "type": "string"
        }
      ],
      "name": "addTld",
      "outputs": [],
      "stateMutability": "nonpayable",
      "type": "function"
    },
    {
      "inputs": [
        {
          "internalType": "uint256[]",
          "name": "tokenIds",
          "type": "uint256[]"
        }
      ],
      "name": "areBlocked",
      "outputs": [
        {
          "internalType": "bool[]",
          "name": "values",
          "type": "bool[]"
        }
      ],
      "stateMutability": "view",
      "type": "function"
    },
    {
      "inputs": [
        {
          "internalType": "uint256",
          "name": "tokenId",
          "type": "uint256"
        }
      ],
      "name": "blocklist",
      "outputs": [],
      "stateMutability": "nonpayable",
      "type": "function"
    },
    {
      "inputs": [
        {
          "internalType": "uint256[]",
          "name": "tokenIds",
          "type": "uint256[]"
        }
      ],
      "name": "blocklistAll",
      "outputs": [],
      "stateMutability": "nonpayable",
      "type": "function"
    },
    {
      "inputs": [
        {
          "internalType": "uint256",
          "name": "tld",
          "type": "uint256"
        },
        {
          "internalType": "string",
          "name": "label",
          "type": "string"
        }
      ],
      "name": "claim",
      "outputs": [],
      "stateMutability": "nonpayable",
      "type": "function"
    },
    {
      "inputs": [
        {
          "internalType": "address",
          "name": "to",
          "type": "address"
        },
        {
          "internalType": "uint256",
          "name": "tld",
          "type": "uint256"
        },
        {
          "internalType": "string",
          "name": "label",
          "type": "string"
        }
      ],
      "name": "claimTo",
      "outputs": [],
      "stateMutability": "nonpayable",
      "type": "function"
    },
    {
      "inputs": [
        {
          "internalType": "address",
          "name": "to",
          "type": "address"
        },
        {
          "internalType": "uint256",
          "name": "tld",
          "type": "uint256"
        },
        {
          "internalType": "string",
          "name": "label",
          "type": "string"
        },
        {
          "internalType": "string[]",
          "name": "keys",
          "type": "string[]"
        },
        {
          "internalType": "string[]",
          "name": "values",
          "type": "string[]"
        }
      ],
      "name": "claimToWithRecords",
      "outputs": [],
      "stateMutability": "nonpayable",
      "type": "function"
    },
    {
      "inputs": [
        {
          "internalType": "address payable",
          "name": "receiver",
          "type": "address"
        }
      ],
      "name": "closeMinter",
      "outputs": [],
      "stateMutability": "payable",
      "type": "function"
    },
    {
      "inputs": [],
      "name": "cnsMintingController",
      "outputs": [
        {
          "internalType": "contract IMintingController",
          "name": "",
          "type": "address"
        }
      ],
      "stateMutability": "view",
      "type": "function"
    },
    {
      "inputs": [],
      "name": "cnsResolver",
      "outputs": [
        {
          "internalType": "contract IResolver",
          "name": "",
          "type": "address"
        }
      ],
      "stateMutability": "view",
      "type": "function"
    },
    {
      "inputs": [],
      "name": "cnsURIPrefixController",
      "outputs": [
        {
          "internalType": "contract IURIPrefixController",
          "name": "",
          "type": "address"
        }
      ],
      "stateMutability": "view",
      "type": "function"
    },
    {
      "inputs": [
        {
          "internalType": "bytes32",
          "name": "role",
          "type": "bytes32"
        }
      ],
      "name": "getRoleAdmin",
      "outputs": [
        {
          "internalType": "bytes32",
          "name": "",
          "type": "bytes32"
        }
      ],
      "stateMutability": "view",
      "type": "function"
    },
    {
      "inputs": [
        {
          "internalType": "bytes32",
          "name": "role",
          "type": "bytes32"
        },
        {
          "internalType": "address",
          "name": "account",
          "type": "address"
        }
      ],
      "name": "grantRole",
      "outputs": [],
      "stateMutability": "nonpayable",
      "type": "function"
    },
    {
      "inputs": [
        {
          "internalType": "bytes32",
          "name": "role",
          "type": "bytes32"
        },
        {
          "internalType": "address",
          "name": "account",
          "type": "address"
        }
      ],
      "name": "hasRole",
      "outputs": [
        {
          "internalType": "bool",
          "name": "",
          "type": "bool"
        }
      ],
      "stateMutability": "view",
      "type": "function"
    },
    {
      "inputs": [
        {
          "internalType": "contract IUNSRegistry",
          "name": "unsRegistry_",
          "type": "address"
        },
        {
          "internalType": "contract IMintingController",
          "name": "cnsMintingController_",
          "type": "address"
        },
        {
          "internalType": "contract IURIPrefixController",
          "name": "cnsURIPrefixController_",
          "type": "address"
        },
        {
          "internalType": "contract IResolver",
          "name": "cnsResolver_",
          "type": "address"
        },
        {
          "internalType": "address",
          "name": "forwarder",
          "type": "address"
        }
      ],
      "name": "initialize",
      "outputs": [],
      "stateMutability": "nonpayable",
      "type": "function"
    },
    {
      "inputs": [
        {
          "internalType": "uint256",
          "name": "tokenId",
          "type": "uint256"
        }
      ],
      "name": "isBlocked",
      "outputs": [
        {
          "internalType": "bool",
          "name": "",
          "type": "bool"
        }
      ],
      "stateMutability": "view",
      "type": "function"
    },
    {
      "inputs": [
        {
          "internalType": "address",
          "name": "account",
          "type": "address"
        }
      ],
      "name": "isMinter",
      "outputs": [
        {
          "internalType": "bool",
          "name": "",
          "type": "bool"
        }
      ],
      "stateMutability": "view",
      "type": "function"
    },
    {
      "inputs": [
        {
          "internalType": "address",
          "name": "forwarder",
          "type": "address"
        }
      ],
      "name": "isTrustedForwarder",
      "outputs": [
        {
          "internalType": "bool",
          "name": "",
          "type": "bool"
        }
      ],
      "stateMutability": "view",
      "type": "function"
    },
    {
      "inputs": [
        {
          "internalType": "address",
          "name": "to",
          "type": "address"
        },
        {
          "internalType": "uint256",
          "name": "tld",
          "type": "uint256"
        },
        {
          "internalType": "string",
          "name": "label",
          "type": "string"
        }
      ],
      "name": "mintSLD",
      "outputs": [],
      "stateMutability": "nonpayable",
      "type": "function"
    },
    {
      "inputs": [
        {
          "internalType": "address",
          "name": "to",
          "type": "address"
        },
        {
          "internalType": "uint256",
          "name": "tld",
          "type": "uint256"
        },
        {
          "internalType": "string",
          "name": "label",
          "type": "string"
        },
        {
          "internalType": "string[]",
          "name": "keys",
          "type": "string[]"
        },
        {
          "internalType": "string[]",
          "name": "values",
          "type": "string[]"
        }
      ],
      "name": "mintSLDWithRecords",
      "outputs": [],
      "stateMutability": "nonpayable",
      "type": "function"
    },
    {
      "inputs": [],
      "name": "owner",
      "outputs": [
        {
          "internalType": "address",
          "name": "",
          "type": "address"
        }
      ],
      "stateMutability": "view",
      "type": "function"
    },
    {
      "inputs": [
        {
          "internalType": "bool",
          "name": "state",
          "type": "bool"
        }
      ],
      "name": "pauseBlocklist",
      "outputs": [],
      "stateMutability": "nonpayable",
      "type": "function"
    },
    {
      "inputs": [
        {
          "internalType": "bytes",
          "name": "data",
          "type": "bytes"
        },
        {
          "internalType": "bytes",
          "name": "signature",
          "type": "bytes"
        }
      ],
      "name": "relay",
      "outputs": [
        {
          "internalType": "bytes",
          "name": "",
          "type": "bytes"
        }
      ],
      "stateMutability": "nonpayable",
      "type": "function"
    },
    {
      "inputs": [
        {
          "internalType": "address",
          "name": "account",
          "type": "address"
        }
      ],
      "name": "removeMinter",
      "outputs": [],
      "stateMutability": "nonpayable",
      "type": "function"
    },
    {
      "inputs": [
        {
          "internalType": "address[]",
          "name": "accounts",
          "type": "address[]"
        }
      ],
      "name": "removeMinters",
      "outputs": [],
      "stateMutability": "nonpayable",
      "type": "function"
    },
    {
      "inputs": [],
      "name": "renounceMinter",
      "outputs": [],
      "stateMutability": "nonpayable",
      "type": "function"
    },
    {
      "inputs": [],
      "name": "renounceOwnership",
      "outputs": [],
      "stateMutability": "nonpayable",
      "type": "function"
    },
    {
      "inputs": [
        {
          "internalType": "bytes32",
          "name": "role",
          "type": "bytes32"
        },
        {
          "internalType": "address",
          "name": "account",
          "type": "address"
        }
      ],
      "name": "renounceRole",
      "outputs": [],
      "stateMutability": "nonpayable",
      "type": "function"
    },
    {
      "inputs": [
        {
          "internalType": "bytes32",
          "name": "role",
          "type": "bytes32"
        },
        {
          "internalType": "address",
          "name": "account",
          "type": "address"
        }
      ],
      "name": "revokeRole",
      "outputs": [],
      "stateMutability": "nonpayable",
      "type": "function"
    },
    {
      "inputs": [
        {
          "internalType": "address payable",
          "name": "receiver",
          "type": "address"
        }
      ],
      "name": "rotateMinter",
      "outputs": [],
      "stateMutability": "payable",
      "type": "function"
    },
    {
      "inputs": [
        {
          "internalType": "address",
          "name": "to",
          "type": "address"
        },
        {
          "internalType": "uint256",
          "name": "tld",
          "type": "uint256"
        },
        {
          "internalType": "string",
          "name": "label",
          "type": "string"
        }
      ],
      "name": "safeMintSLD",
      "outputs": [],
      "stateMutability": "nonpayable",
      "type": "function"
    },
    {
      "inputs": [
        {
          "internalType": "address",
          "name": "to",
          "type": "address"
        },
        {
          "internalType": "uint256",
          "name": "tld",
          "type": "uint256"
        },
        {
          "internalType": "string",
          "name": "label",
          "type": "string"
        },
        {
          "internalType": "bytes",
          "name": "data",
          "type": "bytes"
        }
      ],
      "name": "safeMintSLD",
      "outputs": [],
      "stateMutability": "nonpayable",
      "type": "function"
    },
    {
      "inputs": [
        {
          "internalType": "address",
          "name": "to",
          "type": "address"
        },
        {
          "internalType": "uint256",
          "name": "tld",
          "type": "uint256"
        },
        {
          "internalType": "string",
          "name": "label",
          "type": "string"
        },
        {
          "internalType": "string[]",
          "name": "keys",
          "type": "string[]"
        },
        {
          "internalType": "string[]",
          "name": "values",
          "type": "string[]"
        }
      ],
      "name": "safeMintSLDWithRecords",
      "outputs": [],
      "stateMutability": "nonpayable",
      "type": "function"
    },
    {
      "inputs": [
        {
          "internalType": "address",
          "name": "to",
          "type": "address"
        },
        {
          "internalType": "uint256",
          "name": "tld",
          "type": "uint256"
        },
        {
          "internalType": "string",
          "name": "label",
          "type": "string"
        },
        {
          "internalType": "string[]",
          "name": "keys",
          "type": "string[]"
        },
        {
          "internalType": "string[]",
          "name": "values",
          "type": "string[]"
        },
        {
          "internalType": "bytes",
          "name": "data",
          "type": "bytes"
        }
      ],
      "name": "safeMintSLDWithRecords",
      "outputs": [],
      "stateMutability": "nonpayable",
      "type": "function"
    },
    {
      "inputs": [
        {
          "internalType": "address",
          "name": "forwarder",
          "type": "address"
        }
      ],
      "name": "setForwarder",
      "outputs": [],
      "stateMutability": "nonpayable",
      "type": "function"
    },
    {
      "inputs": [
        {
          "internalType": "address",
          "name": "resolver",
          "type": "address"
        }
      ],
      "name": "setResolver",
      "outputs": [],
      "stateMutability": "nonpayable",
      "type": "function"
    },
    {
      "inputs": [
        {
          "internalType": "string",
          "name": "prefix",
          "type": "string"
        }
      ],
      "name": "setTokenURIPrefix",
      "outputs": [],
      "stateMutability": "nonpayable",
      "type": "function"
    },
    {
      "inputs": [
        {
          "internalType": "bytes4",
          "name": "interfaceId",
          "type": "bytes4"
        }
      ],
      "name": "supportsInterface",
      "outputs": [
        {
          "internalType": "bool",
          "name": "",
          "type": "bool"
        }
      ],
      "stateMutability": "view",
      "type": "function"
    },
    {
      "inputs": [
        {
          "internalType": "address",
          "name": "newOwner",
          "type": "address"
        }
      ],
      "name": "transferOwnership",
      "outputs": [],
      "stateMutability": "nonpayable",
      "type": "function"
    },
    {
      "inputs": [],
      "name": "unsRegistry",
      "outputs": [
        {
          "internalType": "contract IUNSRegistry",
          "name": "",
          "type": "address"
        }
      ],
      "stateMutability": "view",
      "type": "function"
    }
  ],
  "bytecode": "0x608060405234801561001057600080fd5b50614051806100206000396000f3fe60806040526004361061027d5760003560e01c806381c81d351161014f578063aa271e1a116100c1578063ceeb4f501161007a578063ceeb4f5014610751578063d539139314610771578063d547741f14610786578063e47d6cc6146107a6578063f2fde38b146107c6578063ffa1ad74146107e65761027d565b8063aa271e1a1461069c578063ae2ad903146106bc578063b0aa98c7146106dc578063b9998a24146106fc578063c3a3bc001461071c578063cc2c3fc41461073c5761027d565b8063983b2d5611610113578063983b2d5614610608578063986502751461062857806399e0dd7c1461063d578063a217fddf1461065d578063a3f4df7e14610672578063a849d65c146106875761027d565b806381c81d35146105805780638bef6039146105935780638da5cb5b146105b3578063906cecc1146105c857806391d14854146105e85761027d565b8063463c4bcb116101f35780635b6fa8db116101ac5780635b6fa8db146104e35780635fc1964f146104f8578063634486da146105185780636a2d22561461052b578063715018a61461054b57806371e2a657146105605761027d565b8063463c4bcb146104165780634c1819e0146104365780634e543b2614610456578063564a515814610476578063572b6c05146104a357806358839d6b146104c35761027d565b806327bbd2251161024557806327bbd225146103545780632f2ff15d146103745780633092afd51461039457806336568abe146103b457806339ccf4d0146103d45780633f41b614146103f45761027d565b806301ffc9a7146102825780630e36a87d146102b85780631459457a146102e5578063248a9ca314610307578063268b15ed14610334575b600080fd5b34801561028e57600080fd5b506102a261029d366004613352565b6107fb565b6040516102af9190613a1c565b60405180910390f35b3480156102c457600080fd5b506102d86102d3366004613294565b610828565b6040516102af919061399c565b3480156102f157600080fd5b506103056103003660046133d6565b6108ff565b005b34801561031357600080fd5b5061032761032236600461330b565b610b52565b6040516102af9190613a27565b34801561034057600080fd5b5061030561034f366004613479565b610b67565b34801561036057600080fd5b5061030561036f366004612fc0565b610bc4565b34801561038057600080fd5b5061030561038f366004613323565b610c87565b3480156103a057600080fd5b506103056103af366004612f4b565b610cb0565b3480156103c057600080fd5b506103056103cf366004613323565b610cfb565b3480156103e057600080fd5b506103056103ef366004612fc0565b610d41565b34801561040057600080fd5b50610409610deb565b6040516102af9190613787565b34801561042257600080fd5b5061030561043136600461330b565b610dfa565b34801561044257600080fd5b50610305610451366004612f67565b610e2a565b34801561046257600080fd5b50610305610471366004612f4b565b610eb0565b34801561048257600080fd5b5061049661049136600461337a565b610f11565b6040516102af9190613a4e565b3480156104af57600080fd5b506102a26104be366004612f4b565b6110dc565b3480156104cf57600080fd5b506103056104de36600461314c565b61111d565b3480156104ef57600080fd5b506104096111cc565b34801561050457600080fd5b506103056105133660046131d4565b6111db565b610305610526366004612f4b565b611268565b34801561053757600080fd5b50610305610546366004613071565b6112fb565b34801561055757600080fd5b506103056113e8565b34801561056c57600080fd5b5061030561057b3660046131d4565b611471565b61030561058e366004612f4b565b6114fe565b34801561059f57600080fd5b506103056105ae3660046132d3565b61154b565b3480156105bf57600080fd5b50610409611593565b3480156105d457600080fd5b506103056105e3366004612f67565b6115a3565b3480156105f457600080fd5b506102a2610603366004613323565b6115ee565b34801561061457600080fd5b50610305610623366004612f4b565b611619565b34801561063457600080fd5b50610305611661565b34801561064957600080fd5b50610305610658366004613446565b61167d565b34801561066957600080fd5b50610327611793565b34801561067e57600080fd5b50610496611798565b34801561069357600080fd5b506104096117c8565b3480156106a857600080fd5b506102a26106b7366004612f4b565b6117d7565b3480156106c857600080fd5b506103056106d7366004612f67565b6117f1565b3480156106e857600080fd5b506102a26106f736600461330b565b611895565b34801561070857600080fd5b50610305610717366004612f4b565b611903565b34801561072857600080fd5b50610305610737366004613446565b61194b565b34801561074857600080fd5b506104096119c9565b34801561075d57600080fd5b5061030561076c366004612fc0565b6119d8565b34801561077d57600080fd5b50610327611a2c565b34801561079257600080fd5b506103056107a1366004613323565b611a3e565b3480156107b257600080fd5b506103056107c1366004613294565b611a5d565b3480156107d257600080fd5b506103056107e1366004612f4b565b611a8e565b3480156107f257600080fd5b50610496611ae1565b60006001600160e01b03198216637965db0b60e01b1480610820575061082082611b02565b90505b919050565b6060816001600160401b0381111561085057634e487b7160e01b600052604160045260246000fd5b604051908082528060200260200182016040528015610879578160200160208202803683370190505b50905060005b828110156108f8576108b68484838181106108aa57634e487b7160e01b600052603260045260246000fd5b90506020020135611895565b8282815181106108d657634e487b7160e01b600052603260045260246000fd5b91151560209283029190910190910152806108f081613f91565b91505061087f565b5092915050565b600054610100900460ff1680610918575060005460ff16155b61093d5760405162461bcd60e51b815260040161093490613cca565b60405180910390fd5b600054610100900460ff16158015610968576000805460ff1961ff0019909116610100171660011790555b60c980546001600160a01b038089166001600160a01b03199283161790925560ca805488841690831617905560cb805487841690831617905560cc8054928616929091169190911790556109ba611b1b565b6109c2611be7565b6109cb82611c6d565b6109d430611ceb565b6040805161016081018252600661012082018181526563727970746f60d01b610140840152825282518084018452908152651dd85b1b195d60d21b6020828101919091528083019190915282518084018452600481526331b7b4b760e11b81830152828401528251808401845260018152600f60fb1b818301526060830152825180840184526003808252621b999d60ea1b82840152608084019190915283518085018552600a815269313637b1b5b1b430b4b760b11b8184015260a08401528351808501855260078152663134ba31b7b4b760c91b8184015260c0840152835180850185528181526207070760eb1b8184015260e0840152835180850190945283526264616f60e81b9083015261010081019190915260005b6009811015610b3657610b24828260098110610b1a57634e487b7160e01b600052603260045260246000fd5b6020020151611d03565b80610b2e81613f91565b915050610aee565b50508015610b4a576000805461ff00191690555b505050505050565b60009081526097602052604090206001015490565b600083815260cd60205260408120805485929190610b8490613f56565b905011610ba35760405162461bcd60e51b815260040161093490613e3f565b610bbe610bae611e6a565b85610bb98686611e79565b611ea5565b50505050565b610bcf6106b7611e6a565b610beb5760405162461bcd60e51b815260040161093490613d18565b600087815260cd60205260408120805489929190610c0890613f56565b905011610c275760405162461bcd60e51b815260040161093490613e3f565b610c7c898989898080601f016020809104026020016040519081016040528093929190818152602001838380828437600092018290525060408051602081019091529081528c93508b92508a91508990611fab565b505050505050505050565b610c9082610b52565b610ca181610c9c611e6a565b612135565b610cab8383612199565b505050565b610cb8611e6a565b6001600160a01b0316610cc9611593565b6001600160a01b031614610cef5760405162461bcd60e51b815260040161093490613dd3565b610cf881612220565b50565b610d03611e6a565b6001600160a01b0316816001600160a01b031614610d335760405162461bcd60e51b815260040161093490613e81565b610d3d8282612238565b5050565b610d4c6106b7611e6a565b610d685760405162461bcd60e51b815260040161093490613d18565b600087815260cd60205260408120805489929190610d8590613f56565b905011610da45760405162461bcd60e51b815260040161093490613e3f565b610c7c898989898080601f0160208091040260200160405190810160405280939291908181526020018383808284376000920191909152508b92508a9150899050886122bd565b60c9546001600160a01b031681565b610e056106b7611e6a565b610e215760405162461bcd60e51b815260040161093490613d18565b610cf881612442565b610e356106b7611e6a565b610e515760405162461bcd60e51b815260040161093490613d18565b600083815260cd60205260408120805485929190610e6e90613f56565b905011610e8d5760405162461bcd60e51b815260040161093490613e3f565b610ea985858585604051806020016040528060008152506124ec565b5050505050565b610eb8611e6a565b6001600160a01b0316610ec9611593565b6001600160a01b031614610eef5760405162461bcd60e51b815260040161093490613dd3565b60cc80546001600160a01b0319166001600160a01b0392909216919091179055565b606060008585604051610f259291906135d0565b604051809103902090506000610fa285858080601f01602080910402602001604051908101604052809392919081815260200183838082843760009201919091525050604051610f9c9250610f819150869030906020016135a2565b6040516020818303038152906040528051906020012061266c565b9061269c565b905060008088888080601f016020809104026020016040519081016040528093929190818152602001838380828437600092019190915250505050602081015192509050610fef83612722565b610ffa828a8a612750565b600080306001600160a01b03168b8b6040516110179291906135d0565b6000604051808303816000865af19150503d8060008114611054576040519150601f19603f3d011682016040523d82523d6000602084013e611059565b606091505b50909250905081611071576040513d806000833e8082fd5b6001600160e01b031984166001600160a01b03861661108e611e6a565b6001600160a01b03167f9490f91465d0d2c12728b9ad47d5f1dd2ac3ef39394796e54a48b94db0b33725896040516110c69190613a27565b60405180910390a49a9950505050505050505050565b60006111077f893ef2ea16c023f61d4f55d3e6ee3fc3f2fbfd478461323dbc2fbf919047086e6115a0565b546001600160a01b038381169116149050919050565b6111286106b7611e6a565b6111445760405162461bcd60e51b815260040161093490613d18565b600085815260cd6020526040812080548792919061116190613f56565b9050116111805760405162461bcd60e51b815260040161093490613e3f565b6111c38787878787878080601f0160208091040260200160405190810160405280939291908181526020018383808284376000920191909152506124ec92505050565b50505050505050565b60cc546001600160a01b031681565b6111e3611e6a565b6001600160a01b03166111f4611593565b6001600160a01b03161461121a5760405162461bcd60e51b815260040161093490613dd3565b60005b8151811015610d3d5761125682828151811061124957634e487b7160e01b600052603260045260246000fd5b6020026020010151612220565b8061126081613f91565b91505061121d565b6112736106b7611e6a565b61128f5760405162461bcd60e51b815260040161093490613d18565b6001600160a01b0381166112b55760405162461bcd60e51b815260040161093490613be3565b6112be81611ceb565b6112c6611661565b6040516001600160a01b038216903480156108fc02916000818181858888f19350505050158015610d3d573d6000803e3d6000fd5b6113066106b7611e6a565b6113225760405162461bcd60e51b815260040161093490613d18565b600089815260cd6020526040812080548b92919061133f90613f56565b90501161135e5760405162461bcd60e51b815260040161093490613e3f565b6113db8b8b8b8b8080601f01602080910402602001604051908101604052809392919081815260200183838082843760009201919091525050604080516020601f8b018190048102820181019092528981528e93508d92508c918c91908c908c9081908401838280828437600092019190915250611fab92505050565b5050505050505050505050565b6113f0611e6a565b6001600160a01b0316611401611593565b6001600160a01b0316146114275760405162461bcd60e51b815260040161093490613dd3565b6033546040516000916001600160a01b0316907f8be0079c531659141344cd1fd0a4f28419497f9722a3daafe3b4186f6b6457e0908390a3603380546001600160a01b0319169055565b611479611e6a565b6001600160a01b031661148a611593565b6001600160a01b0316146114b05760405162461bcd60e51b815260040161093490613dd3565b60005b8151811015610d3d576114ec8282815181106114df57634e487b7160e01b600052603260045260246000fd5b6020026020010151611ceb565b806114f681613f91565b9150506114b3565b6115096106b7611e6a565b6115255760405162461bcd60e51b815260040161093490613d18565b6001600160a01b0381166112be5760405162461bcd60e51b815260040161093490613be3565b611553611e6a565b6001600160a01b0316611564611593565b6001600160a01b03161461158a5760405162461bcd60e51b815260040161093490613dd3565b610cf88161280c565b6033546001600160a01b03165b90565b600083815260cd602052604081208054859291906115c090613f56565b9050116115df5760405162461bcd60e51b815260040161093490613e3f565b610ea98585610bb98686611e79565b60009182526097602090815260408084206001600160a01b0393909316845291905290205460ff1690565b611621611e6a565b6001600160a01b0316611632611593565b6001600160a01b0316146116585760405162461bcd60e51b815260040161093490613dd3565b610cf881611ceb565b61167b600080516020613ffc8339815191526103cf611e6a565b565b611685611e6a565b6001600160a01b0316611696611593565b6001600160a01b0316146116bc5760405162461bcd60e51b815260040161093490613dd3565b60c954604051632678375f60e21b81526001600160a01b03909116906399e0dd7c906116ee9085908590600401613a61565b600060405180830381600087803b15801561170857600080fd5b505af115801561171c573d6000803e3d6000fd5b505060cb546001600160a01b0316159150610d3d90505760cb54604051632678375f60e21b81526001600160a01b03909116906399e0dd7c906117659085908590600401613a61565b600060405180830381600087803b15801561177f57600080fd5b505af1158015610b4a573d6000803e3d6000fd5b600081565b604051806040016040528060148152602001732aa7299d1026b4b73a34b7339026b0b730b3b2b960611b81525081565b60cb546001600160a01b031681565b6000610820600080516020613ffc833981519152836115ee565b6117fc6106b7611e6a565b6118185760405162461bcd60e51b815260040161093490613d18565b600083815260cd6020526040812080548592919061183590613f56565b9050116118545760405162461bcd60e51b815260040161093490613e3f565b610ea9858585858080601f016020809104026020016040519081016040528093929190818152602001838380828437600092019190915250611ea592505050565b600061189f612875565b15801561082057506040516118f9906118de907f1ec047073e2c8b15660901dbfdb6e3ff6365bd699dd9f95dcc6eab5448bebd699085906020016135c2565b604051602081830303815290604052805190602001206115a0565b5460ff1692915050565b61190b611e6a565b6001600160a01b031661191c611593565b6001600160a01b0316146119425760405162461bcd60e51b815260040161093490613dd3565b610cf8816128a9565b611953611e6a565b6001600160a01b0316611964611593565b6001600160a01b03161461198a5760405162461bcd60e51b815260040161093490613dd3565b610d3d82828080601f016020809104026020016040519081016040528093929190818152602001838380828437600092019190915250611d0392505050565b60ca546001600160a01b031681565b600087815260cd602052604081208054899291906119f590613f56565b905011611a145760405162461bcd60e51b815260040161093490613e3f565b610c7c8989611a238a8a611e79565b888888886122bd565b600080516020613ffc83398151915281565b611a4782610b52565b611a5381610c9c611e6a565b610cab8383612238565b611a686106b7611e6a565b611a845760405162461bcd60e51b815260040161093490613d18565b610d3d82826128f4565b611a96611e6a565b6001600160a01b0316611aa7611593565b6001600160a01b031614611acd5760405162461bcd60e51b815260040161093490613dd3565b611ad681612940565b610cf8600082612a01565b604051806040016040528060058152602001640302e322e360dc1b81525081565b6001600160e01b031981166301ffc9a760e01b14919050565b600054610100900460ff1680611b34575060005460ff16155b611b505760405162461bcd60e51b815260040161093490613cca565b600054610100900460ff16158015611b7b576000805460ff1961ff0019909116610100171660011790555b6000611b85611e6a565b603380546001600160a01b0319166001600160a01b038316908117909155604051919250906000907f8be0079c531659141344cd1fd0a4f28419497f9722a3daafe3b4186f6b6457e0908290a3508015610cf8576000805461ff001916905550565b600054610100900460ff1680611c00575060005460ff16155b611c1c5760405162461bcd60e51b815260040161093490613cca565b600054610100900460ff16158015611c47576000805460ff1961ff0019909116610100171660011790555b611c596000611c54611e6a565b612a01565b8015610cf8576000805461ff001916905550565b600054610100900460ff1680611c86575060005460ff16155b611ca25760405162461bcd60e51b815260040161093490613cca565b600054610100900460ff16158015611ccd576000805460ff1961ff0019909116610100171660011790555b611cd6826128a9565b8015610d3d576000805461ff00191690555050565b610cf8600080516020613ffc83398151915282612a01565b60008082604051602001611d1791906135e0565b60405160208183030381529060405280519060200120604051602001611d3e9291906135c2565b60408051601f198184030181529181528151602092830120600081815260cd8452919091208451919350611d7792909190850190612e20565b50807f4fce6f6e172b04eaa80325d8e3b0180a34945000f3e214605039e8420fdf898083604051611da89190613a4e565b60405180910390a260c954604051634f558e7960e01b81526001600160a01b0390911690634f558e7990611de0908490600401613a27565b60206040518083038186803b158015611df857600080fd5b505afa158015611e0c573d6000803e3d6000fd5b505050506040513d601f19601f82011682018060405250810190611e3091906132ef565b610d3d5760c9546040516334ff261960e21b81526001600160a01b039091169063d3fc9864906117659061dead9085908790600401613862565b6000611e74612a0b565b905090565b60608282604051602001611e8e9291906136ec565b604051602081830303815290604052905092915050565b6000611eb18383612a39565b9050611ebc81612ab5565b611ec583612ae7565b15611f385760ca5460cc5460405163c36c212560e01b81526001600160a01b039283169263c36c212592611f01928992889216906004016137e5565b600060405180830381600087803b158015611f1b57600080fd5b505af1158015611f2f573d6000803e3d6000fd5b50505050610bbe565b60c9546001600160a01b031663d3fc98648583611f558787612b25565b6040518463ffffffff1660e01b8152600401611f7393929190613862565b600060405180830381600087803b158015611f8d57600080fd5b505af1158015611fa1573d6000803e3d6000fd5b5050505050505050565b6000611fb78888612a39565b9050611fc281612ab5565b611fcb88612ae7565b156120b35760ca5460cc54604051630f95e75b60e31b81526001600160a01b0392831692637caf3ad892612009928e928d921690889060040161381a565b600060405180830381600087803b15801561202357600080fd5b505af1158015612037573d6000803e3d6000fd5b5050861591506120ae90505760cc54604051633a0deb9d60e21b81526001600160a01b039091169063e837ae749061207b90899089908990899088906004016139e2565b600060405180830381600087803b15801561209557600080fd5b505af11580156120a9573d6000803e3d6000fd5b505050505b610c7c565b60c9546001600160a01b031663efda4d3e8a836120d08c8c612b25565b8a8a8a8a8a6040518963ffffffff1660e01b81526004016120f89897969594939291906138e6565b600060405180830381600087803b15801561211257600080fd5b505af1158015612126573d6000803e3d6000fd5b50505050505050505050505050565b61213f82826115ee565b610d3d57612157816001600160a01b03166014612b48565b612162836020612b48565b604051602001612173929190613712565b60408051601f198184030181529082905262461bcd60e51b825261093491600401613a4e565b6121a382826115ee565b610d3d5760008281526097602090815260408083206001600160a01b03851684529091529020805460ff191660011790556121dc611e6a565b6001600160a01b0316816001600160a01b0316837f2f8788117e7eff1d82e926ec794901d17c78024a50270940304540a733656f0d60405160405180910390a45050565b610cf8600080516020613ffc83398151915282611a3e565b61224282826115ee565b15610d3d5760008281526097602090815260408083206001600160a01b03851684529091529020805460ff19169055612279611e6a565b6001600160a01b0316816001600160a01b0316837ff6391f5c32d9c69d2a47ea670b442974b53935d1edc7fd64eb21e047a839171b60405160405180910390a45050565b60006122c98787612a39565b90506122d481612ab5565b6122dd87612ae7565b156123c35760ca5460cc5460405163c36c212560e01b81526001600160a01b039283169263c36c212592612319928d928c9216906004016137e5565b600060405180830381600087803b15801561233357600080fd5b505af1158015612347573d6000803e3d6000fd5b5050851591506123be90505760cc54604051633a0deb9d60e21b81526001600160a01b039091169063e837ae749061238b90889088908890889088906004016139e2565b600060405180830381600087803b1580156123a557600080fd5b505af11580156123b9573d6000803e3d6000fd5b505050505b611fa1565b60c9546001600160a01b031663b0f5917789836123e08b8b612b25565b898989896040518863ffffffff1660e01b81526004016124069796959493929190613889565b600060405180830381600087803b15801561242057600080fd5b505af1158015612434573d6000803e3d6000fd5b505050505050505050505050565b61244a612875565b156124675760405162461bcd60e51b815260040161093490613c93565b60016124a27f1ec047073e2c8b15660901dbfdb6e3ff6365bd699dd9f95dcc6eab5448bebd6960001b836040516020016118de9291906135c2565b805460ff19169115159190911790556040517f2ce5d9351b1d590d5a066db0d2dc7602d55f092506a83a7ee8c4d78ee357d75a906124e1908390613a27565b60405180910390a150565b600061252e8585858080601f016020809104026020016040519081016040528093929190818152602001838380828437600092019190915250612a3992505050565b905061253981612ab5565b61254285612ae7565b156125ba5760ca5460cc54604051630f95e75b60e31b81526001600160a01b0392831692637caf3ad892612583928b928a928a92911690899060040161379b565b600060405180830381600087803b15801561259d57600080fd5b505af11580156125b1573d6000803e3d6000fd5b50505050610b4a565b60c954604080516020601f87018190048102820181019092528581526001600160a01b039092169163b55bc6179189918591612612918b918b908b9081908401838280828437600092019190915250612b2592505050565b866040518563ffffffff1660e01b81526004016126329493929190613958565b600060405180830381600087803b15801561264c57600080fd5b505af1158015612660573d6000803e3d6000fd5b50505050505050505050565b60008160405160200161267f91906136bb565b604051602081830303815290604052805190602001209050919050565b6000806000808451604114156126c65750505060208201516040830151606084015160001a61270c565b8451604014156126f45750505060408201516020830151906001600160ff1b0381169060ff1c601b0161270c565b60405162461bcd60e51b815260040161093490613b2f565b61271886828585612d00565b9695505050505050565b61272b81612df6565b612734816117d7565b610cf85760405162461bcd60e51b815260040161093490613d8f565b60006001600160e01b0319841663ae2ad90360e01b148061278157506001600160e01b03198416630260c0cf60e51b145b8061279c57506001600160e01b031984166358839d6b60e01b145b806127b757506001600160e01b0319841663039ccf4d60e41b145b806127d257506001600160e01b031984166327bbd22560e01b145b806127ed57506001600160e01b03198416633516912b60e11b145b905080610bbe5760405162461bcd60e51b815260040161093490613ae9565b806128367fa0dcf6b78c18ae45967a4073fd9dc39d22b4a768f709ae0d04de58f0a1de3c6b6115a0565b805460ff19169115159190911790556040517ffd57a948ceab31332ee84de15f1ea4015cbb0331716a688e0879ffa6b2b4436e906124e1908390613a1c565b60006128a07fa0dcf6b78c18ae45967a4073fd9dc39d22b4a768f709ae0d04de58f0a1de3c6b6115a0565b5460ff16905090565b806128d37f893ef2ea16c023f61d4f55d3e6ee3fc3f2fbfd478461323dbc2fbf919047086e6115a0565b80546001600160a01b0319166001600160a01b039290921691909117905550565b60005b81811015610cab5761292e83838381811061292257634e487b7160e01b600052603260045260246000fd5b90506020020135612442565b8061293881613f91565b9150506128f7565b612948611e6a565b6001600160a01b0316612959611593565b6001600160a01b03161461297f5760405162461bcd60e51b815260040161093490613dd3565b6001600160a01b0381166129a55760405162461bcd60e51b815260040161093490613b66565b6033546040516001600160a01b038084169216907f8be0079c531659141344cd1fd0a4f28419497f9722a3daafe3b4186f6b6457e090600090a3603380546001600160a01b0319166001600160a01b0392909216919091179055565b610d3d8282612199565b6000612a16336110dc565b15612a2a575060331936013560601c6115a0565b612a32612e1c565b90506115a0565b6000815160001415612a5d5760405162461bcd60e51b815260040161093490613e08565b8282604051602001612a6f91906135e0565b60405160208183030381529060405280519060200120604051602001612a969291906135c2565b60408051601f1981840301815291905280516020909101209392505050565b612abd612875565b610cf857612aca81611895565b15610e215760405162461bcd60e51b815260040161093490613c5c565b60ca546000906001600160a01b0316158015906108205750507f0f4a10a4f46c288cea365fcf45cccf0e9d901b945b9829ccdb54c10dc3cb7a6f1490565b600082815260cd60209081526040918290209151606092611e8e928592016135fc565b60606000612b57836002613ef4565b612b62906002613edc565b6001600160401b03811115612b8757634e487b7160e01b600052604160045260246000fd5b6040519080825280601f01601f191660200182016040528015612bb1576020820181803683370190505b509050600360fc1b81600081518110612bda57634e487b7160e01b600052603260045260246000fd5b60200101906001600160f81b031916908160001a905350600f60fb1b81600181518110612c1757634e487b7160e01b600052603260045260246000fd5b60200101906001600160f81b031916908160001a9053506000612c3b846002613ef4565b612c46906001613edc565b90505b6001811115612cda576f181899199a1a9b1b9c1cb0b131b232b360811b85600f1660108110612c8857634e487b7160e01b600052603260045260246000fd5b1a60f81b828281518110612cac57634e487b7160e01b600052603260045260246000fd5b60200101906001600160f81b031916908160001a90535060049490941c93612cd381613f3f565b9050612c49565b508315612cf95760405162461bcd60e51b815260040161093490613ab4565b9392505050565b60007f7fffffffffffffffffffffffffffffff5d576e7357a4501ddfe92f46681b20a0821115612d425760405162461bcd60e51b815260040161093490613c1a565b8360ff16601b1480612d5757508360ff16601c145b612d735760405162461bcd60e51b815260040161093490613d4d565b600060018686868660405160008152602001604052604051612d989493929190613a30565b6020604051602081039080840390855afa158015612dba573d6000803e3d6000fd5b5050604051601f1901519150506001600160a01b038116612ded5760405162461bcd60e51b815260040161093490613a7d565b95945050505050565b6001600160a01b038116610cf85760405162461bcd60e51b815260040161093490613bac565b3390565b828054612e2c90613f56565b90600052602060002090601f016020900481019282612e4e5760008555612e94565b82601f10612e6757805160ff1916838001178555612e94565b82800160010185558215612e94579182015b82811115612e94578251825591602001919060010190612e79565b50612ea0929150612ea4565b5090565b5b80821115612ea05760008155600101612ea5565b803561082381613fd8565b60008083601f840112612ed5578182fd5b5081356001600160401b03811115612eeb578182fd5b6020830191508360208083028501011115612f0557600080fd5b9250929050565b60008083601f840112612f1d578182fd5b5081356001600160401b03811115612f33578182fd5b602083019150836020828501011115612f0557600080fd5b600060208284031215612f5c578081fd5b8135612cf981613fd8565b60008060008060608587031215612f7c578283fd5b8435612f8781613fd8565b93506020850135925060408501356001600160401b03811115612fa8578283fd5b612fb487828801612f0c565b95989497509550505050565b60008060008060008060008060a0898b031215612fdb578384fd5b8835612fe681613fd8565b97506020890135965060408901356001600160401b0380821115613008578586fd5b6130148c838d01612f0c565b909850965060608b013591508082111561302c578586fd5b6130388c838d01612ec4565b909650945060808b0135915080821115613050578384fd5b5061305d8b828c01612ec4565b999c989b5096995094979396929594505050565b60008060008060008060008060008060c08b8d03121561308f578182fd5b6130988b612eb9565b995060208b0135985060408b01356001600160401b03808211156130ba578384fd5b6130c68e838f01612f0c565b909a50985060608d01359150808211156130de578384fd5b6130ea8e838f01612ec4565b909850965060808d0135915080821115613102578384fd5b61310e8e838f01612ec4565b909650945060a08d0135915080821115613126578384fd5b506131338d828e01612f0c565b915080935050809150509295989b9194979a5092959850565b60008060008060008060808789031215613164578182fd5b863561316f81613fd8565b95506020870135945060408701356001600160401b0380821115613191578384fd5b61319d8a838b01612f0c565b909650945060608901359150808211156131b5578384fd5b506131c289828a01612f0c565b979a9699509497509295939492505050565b600060208083850312156131e6578182fd5b82356001600160401b03808211156131fc578384fd5b818501915085601f83011261320f578384fd5b81358181111561322157613221613fc2565b8381026040518582820101818110858211171561324057613240613fc2565b604052828152858101935084860182860187018a101561325e578788fd5b8795505b838610156132875761327381612eb9565b855260019590950194938601938601613262565b5098975050505050505050565b600080602083850312156132a6578182fd5b82356001600160401b038111156132bb578283fd5b6132c785828601612ec4565b90969095509350505050565b6000602082840312156132e4578081fd5b8135612cf981613fed565b600060208284031215613300578081fd5b8151612cf981613fed565b60006020828403121561331c578081fd5b5035919050565b60008060408385031215613335578182fd5b82359150602083013561334781613fd8565b809150509250929050565b600060208284031215613363578081fd5b81356001600160e01b031981168114612cf9578182fd5b6000806000806040858703121561338f578182fd5b84356001600160401b03808211156133a5578384fd5b6133b188838901612f0c565b909650945060208701359150808211156133c9578384fd5b50612fb487828801612f0c565b600080600080600060a086880312156133ed578283fd5b85356133f881613fd8565b9450602086013561340881613fd8565b9350604086013561341881613fd8565b9250606086013561342881613fd8565b9150608086013561343881613fd8565b809150509295509295909350565b60008060208385031215613458578182fd5b82356001600160401b0381111561346d578283fd5b6132c785828601612f0c565b60008060006040848603121561348d578081fd5b8335925060208401356001600160401b038111156134a9578182fd5b6134b586828701612f0c565b9497909650939450505050565b818352602080840193600091908185020181018584845b8781101561353f5782840389528135601e198836030181126134f9578687fd5b870180356001600160401b03811115613510578788fd5b80360389131561351e578788fd5b61352b8682898501613578565b9a87019a95505050908401906001016134d9565b5091979650505050505050565b60008151808452613564816020860160208601613f13565b601f01601f19169290920160200192915050565b60008284528282602086013780602084860101526020601f19601f85011685010190509392505050565b91825260601b6bffffffffffffffffffffffff1916602082015260340190565b918252602082015260400190565b6000828483379101908152919050565b600082516135f2818460208701613f13565b9190910192915050565b60008351602061360f8285838901613f13565b601760f91b91840191825284546001908490600281048184168061363457607f821691505b85821081141561365257634e487b7160e01b88526022600452602488fd5b808015613666576001811461367b576136ab565b60ff19841688870152828801860194506136ab565b6136848b613ed0565b895b848110156136a15781548a8201890152908701908801613686565b5050858389010194505b50929a9950505050505050505050565b7f19457468657265756d205369676e6564204d6573736167653a0a3332000000008152601c810191909152603c0190565b6000697564746573746465762d60b01b82528284600a8401379101600a01908152919050565b60007f416363657373436f6e74726f6c3a206163636f756e74200000000000000000008252835161374a816017850160208801613f13565b7001034b99036b4b9b9b4b733903937b6329607d1b601791840191820152835161377b816028840160208801613f13565b01602801949350505050565b6001600160a01b0391909116815260200190565b600060018060a01b038088168352608060208401526137be608084018789613578565b818616604085015283810360608501526137d8818661354c565b9998505050505050505050565b600060018060a01b03808616835260606020840152613807606084018661354c565b9150808416604084015250949350505050565b600060018060a01b0380871683526080602084015261383c608084018761354c565b81861660408501528381036060850152613856818661354c565b98975050505050505050565b600060018060a01b038516825283602083015260606040830152612ded606083018461354c565b600060018060a01b038916825287602083015260a060408301526138b060a083018861354c565b82810360608401526138c38187896134c2565b905082810360808401526138d88185876134c2565b9a9950505050505050505050565b600060018060a01b038a16825288602083015260c0604083015261390d60c083018961354c565b828103606084015261392081888a6134c2565b905082810360808401526139358186886134c2565b905082810360a0840152613949818561354c565b9b9a5050505050505050505050565b600060018060a01b03861682528460208301526080604083015261397f608083018561354c565b8281036060840152613991818561354c565b979650505050505050565b6020808252825182820181905260009190848201906040850190845b818110156139d65783511515835292840192918401916001016139b8565b50909695505050505050565b6000606082526139f66060830187896134c2565b8281036020840152613a098186886134c2565b9150508260408301529695505050505050565b901515815260200190565b90815260200190565b93845260ff9290921660208401526040830152606082015260800190565b600060208252612cf9602083018461354c565b600060208252613a75602083018486613578565b949350505050565b60208082526018908201527f45434453413a20696e76616c6964207369676e61747572650000000000000000604082015260600190565b6020808252818101527f537472696e67733a20686578206c656e67746820696e73756666696369656e74604082015260600190565b60208082526026908201527f4d696e74696e674d616e616765723a20554e535550504f525445445f52454c416040820152651657d0d0531360d21b606082015260800190565b6020808252601f908201527f45434453413a20696e76616c6964207369676e6174757265206c656e67746800604082015260600190565b60208082526026908201527f4f776e61626c653a206e6577206f776e657220697320746865207a65726f206160408201526564647265737360d01b606082015260800190565b6020808252601d908201527f52656c617965723a205349474e41545552455f49535f494e56414c4944000000604082015260600190565b6020808252601d908201527f4d696e746572526f6c653a2052454345495645525f49535f454d505459000000604082015260600190565b60208082526022908201527f45434453413a20696e76616c6964207369676e6174757265202773272076616c604082015261756560f01b606082015260800190565b6020808252601d908201527f4d696e74696e674d616e616765723a20544f4b454e5f424c4f434b4544000000604082015260600190565b60208082526018908201527f426c6f636b6c69737453746f726167653a205041555345440000000000000000604082015260600190565b6020808252602e908201527f496e697469616c697a61626c653a20636f6e747261637420697320616c72656160408201526d191e481a5b9a5d1a585b1a5e995960921b606082015260800190565b6020808252818101527f4d696e746572526f6c653a2043414c4c45525f49535f4e4f545f4d494e544552604082015260600190565b60208082526022908201527f45434453413a20696e76616c6964207369676e6174757265202776272076616c604082015261756560f01b606082015260800190565b60208082526024908201527f4d696e74696e674d616e616765723a205349474e45525f49535f4e4f545f4d49604082015263272a22a960e11b606082015260800190565b6020808252818101527f4f776e61626c653a2063616c6c6572206973206e6f7420746865206f776e6572604082015260600190565b6020808252601b908201527f4d696e74696e674d616e616765723a204c4142454c5f454d5054590000000000604082015260600190565b60208082526022908201527f4d696e74696e674d616e616765723a20544c445f4e4f545f5245474953544552604082015261115160f21b606082015260800190565b6020808252602f908201527f416363657373436f6e74726f6c3a2063616e206f6e6c792072656e6f756e636560408201526e103937b632b9903337b91039b2b63360891b606082015260800190565b60009081526020902090565b60008219821115613eef57613eef613fac565b500190565b6000816000190483118215151615613f0e57613f0e613fac565b500290565b60005b83811015613f2e578181015183820152602001613f16565b83811115610bbe5750506000910152565b600081613f4e57613f4e613fac565b506000190190565b600281046001821680613f6a57607f821691505b60208210811415613f8b57634e487b7160e01b600052602260045260246000fd5b50919050565b6000600019821415613fa557613fa5613fac565b5060010190565b634e487b7160e01b600052601160045260246000fd5b634e487b7160e01b600052604160045260246000fd5b6001600160a01b0381168114610cf857600080fd5b8015158114610cf857600080fdfe9f2df0fed2c77648de5860a4cc508cd0818c85b8b8a1ab4ceeef8d981c8956a6a26469706673582212209490ccb213db1775f6d41dfd59002792a26f9656b19a7b8d4a33afe2d893fb4464736f6c63430008000033",
  "linkReferences": {},
  "deployedLinkReferences": {}
}