{
  "_format": "hh-sol-artifact-1",
  "contractName": "MintingManager",
  "sourceName": "contracts/MintingManager.sol",
  "abi": [
    {
      "anonymous": false,
      "inputs": [
        {
          "indexed": false,
          "internalType": "address",
          "name": "previousAdmin",
          "type": "address"
        },
        {
          "indexed": false,
          "internalType": "address",
          "name": "newAdmin",
          "type": "address"
        }
      ],
      "name": "AdminChanged",
      "type": "event"
    },
    {
      "anonymous": false,
      "inputs": [
        {
          "indexed": false,
          "internalType": "uint256",
          "name": "tokenId",
          "type": "uint256"
        }
      ],
      "name": "Blocked",
      "type": "event"
    },
    {
      "anonymous": false,
      "inputs": [
        {
          "indexed": false,
          "internalType": "address",
          "name": "account",
          "type": "address"
        }
      ],
      "name": "BlocklistDisabled",
      "type": "event"
    },
    {
      "anonymous": false,
      "inputs": [
        {
          "indexed": false,
          "internalType": "address",
          "name": "account",
          "type": "address"
        }
      ],
      "name": "BlocklistEnabled",
      "type": "event"
    },
    {
      "anonymous": false,
      "inputs": [
        {
          "indexed": false,
          "internalType": "uint8",
          "name": "version",
          "type": "uint8"
        }
      ],
      "name": "Initialized",
      "type": "event"
    },
    {
      "anonymous": false,
      "inputs": [
        {
          "indexed": true,
          "internalType": "uint256",
          "name": "tokenId",
          "type": "uint256"
        },
        {
          "indexed": false,
          "internalType": "string",
          "name": "tld",
          "type": "string"
        }
      ],
      "name": "NewTld",
      "type": "event"
    },
    {
      "anonymous": false,
      "inputs": [
        {
          "indexed": true,
          "internalType": "address",
          "name": "previousOwner",
          "type": "address"
        },
        {
          "indexed": true,
          "internalType": "address",
          "name": "newOwner",
          "type": "address"
        }
      ],
      "name": "OwnershipTransferred",
      "type": "event"
    },
    {
      "anonymous": false,
      "inputs": [
        {
          "indexed": false,
          "internalType": "address",
          "name": "account",
          "type": "address"
        }
      ],
      "name": "Paused",
      "type": "event"
    },
    {
      "anonymous": false,
      "inputs": [
        {
          "indexed": true,
          "internalType": "uint256",
          "name": "tokenId",
          "type": "uint256"
        }
      ],
      "name": "RemoveTld",
      "type": "event"
    },
    {
      "anonymous": false,
      "inputs": [
        {
          "indexed": true,
          "internalType": "bytes32",
          "name": "role",
          "type": "bytes32"
        },
        {
          "indexed": true,
          "internalType": "bytes32",
          "name": "previousAdminRole",
          "type": "bytes32"
        },
        {
          "indexed": true,
          "internalType": "bytes32",
          "name": "newAdminRole",
          "type": "bytes32"
        }
      ],
      "name": "RoleAdminChanged",
      "type": "event"
    },
    {
      "anonymous": false,
      "inputs": [
        {
          "indexed": true,
          "internalType": "bytes32",
          "name": "role",
          "type": "bytes32"
        },
        {
          "indexed": true,
          "internalType": "address",
          "name": "account",
          "type": "address"
        },
        {
          "indexed": true,
          "internalType": "address",
          "name": "sender",
          "type": "address"
        }
      ],
      "name": "RoleGranted",
      "type": "event"
    },
    {
      "anonymous": false,
      "inputs": [
        {
          "indexed": true,
          "internalType": "bytes32",
          "name": "role",
          "type": "bytes32"
        },
        {
          "indexed": true,
          "internalType": "address",
          "name": "account",
          "type": "address"
        },
        {
          "indexed": true,
          "internalType": "address",
          "name": "sender",
          "type": "address"
        }
      ],
      "name": "RoleRevoked",
      "type": "event"
    },
    {
      "anonymous": false,
      "inputs": [
        {
          "indexed": false,
          "internalType": "address",
          "name": "account",
          "type": "address"
        }
      ],
      "name": "Unpaused",
      "type": "event"
    },
    {
      "anonymous": false,
      "inputs": [
        {
          "indexed": true,
          "internalType": "address",
          "name": "implementation",
          "type": "address"
        }
      ],
      "name": "Upgraded",
      "type": "event"
    },
    {
      "inputs": [],
      "name": "DEFAULT_ADMIN_ROLE",
      "outputs": [
        {
          "internalType": "bytes32",
          "name": "",
          "type": "bytes32"
        }
      ],
      "stateMutability": "view",
      "type": "function"
    },
    {
      "inputs": [],
      "name": "MINTER_ROLE",
      "outputs": [
        {
          "internalType": "bytes32",
          "name": "",
          "type": "bytes32"
        }
      ],
      "stateMutability": "view",
      "type": "function"
    },
    {
      "inputs": [],
      "name": "NAME",
      "outputs": [
        {
          "internalType": "string",
          "name": "",
          "type": "string"
        }
      ],
      "stateMutability": "view",
      "type": "function"
    },
    {
      "inputs": [],
      "name": "VERSION",
      "outputs": [
        {
          "internalType": "string",
          "name": "",
          "type": "string"
        }
      ],
      "stateMutability": "view",
      "type": "function"
    },
    {
      "inputs": [
        {
          "internalType": "address",
          "name": "account",
          "type": "address"
        }
      ],
      "name": "addMinter",
      "outputs": [],
      "stateMutability": "nonpayable",
      "type": "function"
    },
    {
      "inputs": [
        {
          "internalType": "address[]",
          "name": "accounts",
          "type": "address[]"
        }
      ],
      "name": "addMinters",
      "outputs": [],
      "stateMutability": "nonpayable",
      "type": "function"
    },
    {
      "inputs": [
        {
          "internalType": "address[]",
          "name": "addrs",
          "type": "address[]"
        }
      ],
      "name": "addProxyReaders",
      "outputs": [],
      "stateMutability": "nonpayable",
      "type": "function"
    },
    {
      "inputs": [
        {
          "internalType": "string",
          "name": "tld",
          "type": "string"
        }
      ],
      "name": "addTld",
      "outputs": [],
      "stateMutability": "nonpayable",
      "type": "function"
    },
    {
      "inputs": [
        {
          "internalType": "uint256[]",
          "name": "tokenIds",
          "type": "uint256[]"
        }
      ],
      "name": "areBlocked",
      "outputs": [
        {
          "internalType": "bool[]",
          "name": "values",
          "type": "bool[]"
        }
      ],
      "stateMutability": "view",
      "type": "function"
    },
    {
      "inputs": [
        {
          "internalType": "uint256",
          "name": "tokenId",
          "type": "uint256"
        }
      ],
      "name": "blocklist",
      "outputs": [],
      "stateMutability": "nonpayable",
      "type": "function"
    },
    {
      "inputs": [
        {
          "internalType": "uint256[]",
          "name": "tokenIds",
          "type": "uint256[]"
        }
      ],
      "name": "blocklistAll",
      "outputs": [],
      "stateMutability": "nonpayable",
      "type": "function"
    },
    {
      "inputs": [
        {
          "internalType": "uint256",
          "name": "tld",
          "type": "uint256"
        },
        {
          "internalType": "string",
          "name": "label",
          "type": "string"
        }
      ],
      "name": "claim",
      "outputs": [],
      "stateMutability": "nonpayable",
      "type": "function"
    },
    {
      "inputs": [
        {
          "internalType": "address",
          "name": "to",
          "type": "address"
        },
        {
          "internalType": "uint256",
          "name": "tld",
          "type": "uint256"
        },
        {
          "internalType": "string",
          "name": "label",
          "type": "string"
        }
      ],
      "name": "claimTo",
      "outputs": [],
      "stateMutability": "nonpayable",
      "type": "function"
    },
    {
      "inputs": [
        {
          "internalType": "address",
          "name": "to",
          "type": "address"
        },
        {
          "internalType": "uint256",
          "name": "tld",
          "type": "uint256"
        },
        {
          "internalType": "string",
          "name": "label",
          "type": "string"
        },
        {
          "internalType": "string[]",
          "name": "keys",
          "type": "string[]"
        },
        {
          "internalType": "string[]",
          "name": "values",
          "type": "string[]"
        }
      ],
      "name": "claimToWithRecords",
      "outputs": [],
      "stateMutability": "nonpayable",
      "type": "function"
    },
    {
      "inputs": [
        {
          "internalType": "address payable",
          "name": "receiver",
          "type": "address"
        }
      ],
      "name": "closeMinter",
      "outputs": [],
      "stateMutability": "payable",
      "type": "function"
    },
    {
      "inputs": [],
      "name": "cnsMintingController",
      "outputs": [
        {
          "internalType": "contract IMintingController",
          "name": "",
          "type": "address"
        }
      ],
      "stateMutability": "view",
      "type": "function"
    },
    {
      "inputs": [],
      "name": "cnsResolver",
      "outputs": [
        {
          "internalType": "contract IResolver",
          "name": "",
          "type": "address"
        }
      ],
      "stateMutability": "view",
      "type": "function"
    },
    {
      "inputs": [],
      "name": "cnsURIPrefixController",
      "outputs": [
        {
          "internalType": "contract IURIPrefixController",
          "name": "",
          "type": "address"
        }
      ],
      "stateMutability": "view",
      "type": "function"
    },
    {
      "inputs": [],
      "name": "disableBlocklist",
      "outputs": [],
      "stateMutability": "nonpayable",
      "type": "function"
    },
    {
      "inputs": [],
      "name": "enableBlocklist",
      "outputs": [],
      "stateMutability": "nonpayable",
      "type": "function"
    },
    {
      "inputs": [
        {
          "internalType": "bytes32",
          "name": "role",
          "type": "bytes32"
        }
      ],
      "name": "getRoleAdmin",
      "outputs": [
        {
          "internalType": "bytes32",
          "name": "",
          "type": "bytes32"
        }
      ],
      "stateMutability": "view",
      "type": "function"
    },
    {
      "inputs": [
        {
          "internalType": "bytes32",
          "name": "role",
          "type": "bytes32"
        },
        {
          "internalType": "address",
          "name": "account",
          "type": "address"
        }
      ],
      "name": "grantRole",
      "outputs": [],
      "stateMutability": "nonpayable",
      "type": "function"
    },
    {
      "inputs": [
        {
          "internalType": "bytes32",
          "name": "role",
          "type": "bytes32"
        },
        {
          "internalType": "address",
          "name": "account",
          "type": "address"
        }
      ],
      "name": "hasRole",
      "outputs": [
        {
          "internalType": "bool",
          "name": "",
          "type": "bool"
        }
      ],
      "stateMutability": "view",
      "type": "function"
    },
    {
      "inputs": [
        {
          "internalType": "contract IUNSRegistry",
          "name": "unsRegistry_",
          "type": "address"
        },
        {
          "internalType": "contract IMintingController",
          "name": "cnsMintingController_",
          "type": "address"
        },
        {
          "internalType": "contract IURIPrefixController",
          "name": "cnsURIPrefixController_",
          "type": "address"
        },
        {
          "internalType": "contract IResolver",
          "name": "cnsResolver_",
          "type": "address"
        },
        {
          "internalType": "address",
          "name": "forwarder",
          "type": "address"
        }
      ],
      "name": "initialize",
      "outputs": [],
      "stateMutability": "nonpayable",
      "type": "function"
    },
    {
      "inputs": [
        {
          "internalType": "uint256",
          "name": "tokenId",
          "type": "uint256"
        }
      ],
      "name": "isBlocked",
      "outputs": [
        {
          "internalType": "bool",
          "name": "",
          "type": "bool"
        }
      ],
      "stateMutability": "view",
      "type": "function"
    },
    {
      "inputs": [],
      "name": "isBlocklistDisabled",
      "outputs": [
        {
          "internalType": "bool",
          "name": "",
          "type": "bool"
        }
      ],
      "stateMutability": "view",
      "type": "function"
    },
    {
      "inputs": [
        {
          "internalType": "address",
          "name": "account",
          "type": "address"
        }
      ],
      "name": "isMinter",
      "outputs": [
        {
          "internalType": "bool",
          "name": "",
          "type": "bool"
        }
      ],
      "stateMutability": "view",
      "type": "function"
    },
    {
      "inputs": [
        {
          "internalType": "address",
          "name": "forwarder",
          "type": "address"
        }
      ],
      "name": "isTrustedForwarder",
      "outputs": [
        {
          "internalType": "bool",
          "name": "",
          "type": "bool"
        }
      ],
      "stateMutability": "view",
      "type": "function"
    },
    {
      "inputs": [
        {
          "internalType": "address",
          "name": "to",
          "type": "address"
        },
        {
          "internalType": "uint256",
          "name": "tld",
          "type": "uint256"
        },
        {
          "internalType": "string",
          "name": "label",
          "type": "string"
        }
      ],
      "name": "mintSLD",
      "outputs": [],
      "stateMutability": "nonpayable",
      "type": "function"
    },
    {
      "inputs": [
        {
          "internalType": "address",
          "name": "to",
          "type": "address"
        },
        {
          "internalType": "uint256",
          "name": "tld",
          "type": "uint256"
        },
        {
          "internalType": "string",
          "name": "label",
          "type": "string"
        },
        {
          "internalType": "string[]",
          "name": "keys",
          "type": "string[]"
        },
        {
          "internalType": "string[]",
          "name": "values",
          "type": "string[]"
        }
      ],
      "name": "mintSLDWithRecords",
      "outputs": [],
      "stateMutability": "nonpayable",
      "type": "function"
    },
    {
      "inputs": [],
      "name": "owner",
      "outputs": [
        {
          "internalType": "address",
          "name": "",
          "type": "address"
        }
      ],
      "stateMutability": "view",
      "type": "function"
    },
    {
      "inputs": [],
      "name": "pause",
      "outputs": [],
      "stateMutability": "nonpayable",
      "type": "function"
    },
    {
      "inputs": [],
      "name": "paused",
      "outputs": [
        {
          "internalType": "bool",
          "name": "",
          "type": "bool"
        }
      ],
      "stateMutability": "view",
      "type": "function"
    },
    {
      "inputs": [
        {
          "internalType": "address",
          "name": "account",
          "type": "address"
        }
      ],
      "name": "removeMinter",
      "outputs": [],
      "stateMutability": "nonpayable",
      "type": "function"
    },
    {
      "inputs": [
        {
          "internalType": "address[]",
          "name": "accounts",
          "type": "address[]"
        }
      ],
      "name": "removeMinters",
      "outputs": [],
      "stateMutability": "nonpayable",
      "type": "function"
    },
    {
      "inputs": [
        {
          "internalType": "uint256",
          "name": "tld",
          "type": "uint256"
        }
      ],
      "name": "removeTld",
      "outputs": [],
      "stateMutability": "nonpayable",
      "type": "function"
    },
    {
      "inputs": [],
      "name": "renounceMinter",
      "outputs": [],
      "stateMutability": "nonpayable",
      "type": "function"
    },
    {
      "inputs": [],
      "name": "renounceOwnership",
      "outputs": [],
      "stateMutability": "nonpayable",
      "type": "function"
    },
    {
      "inputs": [
        {
          "internalType": "bytes32",
          "name": "role",
          "type": "bytes32"
        },
        {
          "internalType": "address",
          "name": "account",
          "type": "address"
        }
      ],
      "name": "renounceRole",
      "outputs": [],
      "stateMutability": "nonpayable",
      "type": "function"
    },
    {
      "inputs": [
        {
          "internalType": "bytes32",
          "name": "role",
          "type": "bytes32"
        },
        {
          "internalType": "address",
          "name": "account",
          "type": "address"
        }
      ],
      "name": "revokeRole",
      "outputs": [],
      "stateMutability": "nonpayable",
      "type": "function"
    },
    {
      "inputs": [
        {
          "internalType": "address payable",
          "name": "receiver",
          "type": "address"
        }
      ],
      "name": "rotateMinter",
      "outputs": [],
      "stateMutability": "payable",
      "type": "function"
    },
    {
      "inputs": [
        {
          "internalType": "address",
          "name": "to",
          "type": "address"
        },
        {
          "internalType": "uint256",
          "name": "tld",
          "type": "uint256"
        },
        {
          "internalType": "string",
          "name": "label",
          "type": "string"
        }
      ],
      "name": "safeMintSLD",
      "outputs": [],
      "stateMutability": "nonpayable",
      "type": "function"
    },
    {
      "inputs": [
        {
          "internalType": "address",
          "name": "to",
          "type": "address"
        },
        {
          "internalType": "uint256",
          "name": "tld",
          "type": "uint256"
        },
        {
          "internalType": "string",
          "name": "label",
          "type": "string"
        },
        {
          "internalType": "bytes",
          "name": "data",
          "type": "bytes"
        }
      ],
      "name": "safeMintSLD",
      "outputs": [],
      "stateMutability": "nonpayable",
      "type": "function"
    },
    {
      "inputs": [
        {
          "internalType": "address",
          "name": "to",
          "type": "address"
        },
        {
          "internalType": "uint256",
          "name": "tld",
          "type": "uint256"
        },
        {
          "internalType": "string",
          "name": "label",
          "type": "string"
        },
        {
          "internalType": "string[]",
          "name": "keys",
          "type": "string[]"
        },
        {
          "internalType": "string[]",
          "name": "values",
          "type": "string[]"
        }
      ],
      "name": "safeMintSLDWithRecords",
      "outputs": [],
      "stateMutability": "nonpayable",
      "type": "function"
    },
    {
      "inputs": [
        {
          "internalType": "address",
          "name": "to",
          "type": "address"
        },
        {
          "internalType": "uint256",
          "name": "tld",
          "type": "uint256"
        },
        {
          "internalType": "string",
          "name": "label",
          "type": "string"
        },
        {
          "internalType": "string[]",
          "name": "keys",
          "type": "string[]"
        },
        {
          "internalType": "string[]",
          "name": "values",
          "type": "string[]"
        },
        {
          "internalType": "bytes",
          "name": "data",
          "type": "bytes"
        }
      ],
      "name": "safeMintSLDWithRecords",
      "outputs": [],
      "stateMutability": "nonpayable",
      "type": "function"
    },
    {
      "inputs": [
        {
          "internalType": "address",
          "name": "forwarder",
          "type": "address"
        }
      ],
      "name": "setForwarder",
      "outputs": [],
      "stateMutability": "nonpayable",
      "type": "function"
    },
    {
      "inputs": [
        {
          "internalType": "address",
          "name": "resolver",
          "type": "address"
        }
      ],
      "name": "setResolver",
      "outputs": [],
      "stateMutability": "nonpayable",
      "type": "function"
    },
    {
      "inputs": [
        {
          "internalType": "string",
          "name": "prefix",
          "type": "string"
        }
      ],
      "name": "setTokenURIPrefix",
      "outputs": [],
      "stateMutability": "nonpayable",
      "type": "function"
    },
    {
      "inputs": [
        {
          "internalType": "bytes4",
          "name": "interfaceId",
          "type": "bytes4"
        }
      ],
      "name": "supportsInterface",
      "outputs": [
        {
          "internalType": "bool",
          "name": "",
          "type": "bool"
        }
      ],
      "stateMutability": "view",
      "type": "function"
    },
    {
      "inputs": [
        {
          "internalType": "address",
          "name": "newOwner",
          "type": "address"
        }
      ],
      "name": "transferOwnership",
      "outputs": [],
      "stateMutability": "nonpayable",
      "type": "function"
    },
    {
      "inputs": [],
      "name": "unpause",
      "outputs": [],
      "stateMutability": "nonpayable",
      "type": "function"
    },
    {
      "inputs": [],
      "name": "unsRegistry",
      "outputs": [
        {
          "internalType": "contract IUNSRegistry",
          "name": "",
          "type": "address"
        }
      ],
      "stateMutability": "view",
      "type": "function"
    },
    {
      "inputs": [
        {
          "internalType": "uint256[]",
          "name": "tokenIds",
          "type": "uint256[]"
        }
      ],
      "name": "upgradeAll",
      "outputs": [],
      "stateMutability": "nonpayable",
      "type": "function"
    }
  ],
  "bytecode": "0x608060405234801561001057600080fd5b50614211806100206000396000f3fe60806040526004361061031a5760003560e01c806381c81d35116101ab578063ae2ad903116100f7578063d1f5692c11610095578063e47d6cc61161006f578063e47d6cc614610977578063ec52738914610997578063f2fde38b146109b7578063ffa1ad74146109d757600080fd5b8063d1f5692c14610915578063d539139314610935578063d547741f1461095757600080fd5b8063b9998a24116100d1578063b9998a2414610895578063c3a3bc00146108b5578063cc2c3fc4146108d5578063ceeb4f50146108f557600080fd5b8063ae2ad90314610835578063ae31844a14610855578063b0aa98c71461087557600080fd5b8063983b2d5611610164578063a217fddf1161013e578063a217fddf14610793578063a3f4df7e146107a8578063a849d65c146107f5578063aa271e1a1461081557600080fd5b8063983b2d561461073e578063986502751461075e57806399e0dd7c1461077357600080fd5b806381c81d35146106a35780638456cb59146106b65780638da5cb5b146106cb578063906cecc1146106e957806390dbdb5a1461070957806391d148541461071e57600080fd5b80633f4ba83a1161026a5780635b6fa8db11610223578063634486da116101fd578063634486da1461063b5780636a2d22561461064e578063715018a61461066e57806371e2a6571461068357600080fd5b80635b6fa8db146105e65780635c975abb146106065780635fc1964f1461061b57600080fd5b80633f4ba83a14610503578063463c4bcb146105185780634c1819e0146105385780634e543b2614610558578063572b6c051461057857806358839d6b146105c657600080fd5b806327bbd225116102d75780633092afd5116102b15780633092afd51461046b57806336568abe1461048b57806339ccf4d0146104ab5780633f41b614146104cb57600080fd5b806327bbd225146104165780632eff1a95146104365780632f2ff15d1461044b57600080fd5b806301ffc9a71461031f5780630e36a87d1461035457806310921f12146103815780631459457a14610396578063248a9ca3146103b8578063268b15ed146103f6575b600080fd5b34801561032b57600080fd5b5061033f61033a3660046138e2565b610a08565b60405190151581526020015b60405180910390f35b34801561036057600080fd5b5061037461036f366004613776565b610a3f565b60405161034b9190613e58565b34801561038d57600080fd5b5061033f610b16565b3480156103a257600080fd5b506103b66103b136600461390a565b610b31565b005b3480156103c457600080fd5b506103e86103d336600461389b565b60009081526097602052604090206001015490565b60405190815260200161034b565b34801561040257600080fd5b506103b66104113660046139ad565b610e64565b34801561042257600080fd5b506103b6610431366004613562565b610f66565b34801561044257600080fd5b506103b66110ca565b34801561045757600080fd5b506103b66104663660046138b3565b6110dc565b34801561047757600080fd5b506103b66104863660046134ed565b611106565b34801561049757600080fd5b506103b66104a63660046138b3565b61111a565b3480156104b757600080fd5b506103b66104c6366004613562565b6111a8565b3480156104d757600080fd5b5060c9546104eb906001600160a01b031681565b6040516001600160a01b03909116815260200161034b565b34801561050f57600080fd5b506103b66112f1565b34801561052457600080fd5b506103b661053336600461389b565b611301565b34801561054457600080fd5b506103b6610553366004613509565b611331565b34801561056457600080fd5b506103b66105733660046134ed565b611458565b34801561058457600080fd5b5061033f6105933660046134ed565b7f893ef2ea16c023f61d4f55d3e6ee3fc3f2fbfd478461323dbc2fbf919047086e546001600160a01b0390811691161490565b3480156105d257600080fd5b506103b66105e13660046136ee565b611482565b3480156105f257600080fd5b5060cc546104eb906001600160a01b031681565b34801561061257600080fd5b5061033f6115d2565b34801561062757600080fd5b506103b66106363660046137b5565b6115e8565b6103b66106493660046134ed565b61163e565b34801561065a57600080fd5b506103b6610669366004613613565b611701565b34801561067a57600080fd5b506103b661189c565b34801561068f57600080fd5b506103b661069e3660046137b5565b6118ae565b6103b66106b13660046134ed565b611904565b3480156106c257600080fd5b506103b6611981565b3480156106d757600080fd5b506033546001600160a01b03166104eb565b3480156106f557600080fd5b506103b6610704366004613509565b611991565b34801561071557600080fd5b506103b6611a7b565b34801561072a57600080fd5b5061033f6107393660046138b3565b611a8b565b34801561074a57600080fd5b506103b66107593660046134ed565b611ab6565b34801561076a57600080fd5b506103b6611ac7565b34801561077f57600080fd5b506103b661078e36600461397a565b611ae1565b34801561079f57600080fd5b506103e8600081565b3480156107b457600080fd5b506107e8604051806040016040528060148152602001732aa7299d1026b4b73a34b7339026b0b730b3b2b960611b81525081565b60405161034b9190613f2e565b34801561080157600080fd5b5060cb546104eb906001600160a01b031681565b34801561082157600080fd5b5061033f6108303660046134ed565b611bc0565b34801561084157600080fd5b506103b6610850366004613509565b611bda565b34801561086157600080fd5b506103b6610870366004613776565b611d1d565b34801561088157600080fd5b5061033f61089036600461389b565b611d76565b3480156108a157600080fd5b506103b66108b03660046134ed565b611de3565b3480156108c157600080fd5b506103b66108d036600461397a565b611e28565b3480156108e157600080fd5b5060ca546104eb906001600160a01b031681565b34801561090157600080fd5b506103b6610910366004613562565b611e6f565b34801561092157600080fd5b506103b6610930366004613776565b611f62565b34801561094157600080fd5b506103e86000805160206141e583398151915281565b34801561096357600080fd5b506103b66109723660046138b3565b612027565b34801561098357600080fd5b506103b6610992366004613776565b61204c565b3480156109a357600080fd5b506103b66109b236600461389b565b61207d565b3480156109c357600080fd5b506103b66109d23660046134ed565b6120ef565b3480156109e357600080fd5b506107e8604051806040016040528060058152602001640c0b8ccb8d60da1b81525081565b60006001600160e01b03198216637965db0b60e01b1480610a3957506301ffc9a760e01b6001600160e01b03198316145b92915050565b6060816001600160401b03811115610a6757634e487b7160e01b600052604160045260246000fd5b604051908082528060200260200182016040528015610a90578160200160208202803683370190505b50905060005b82811015610b0f57610acd848483818110610ac157634e487b7160e01b600052603260045260246000fd5b90506020020135611d76565b828281518110610aed57634e487b7160e01b600052603260045260246000fd5b9115156020928302919091019091015280610b0781614128565b915050610a96565b5092915050565b60006000805160206141a58339815191525b5460ff16919050565b600054610100900460ff1615808015610b515750600054600160ff909116105b80610b6b5750303b158015610b6b575060005460ff166001145b610bd35760405162461bcd60e51b815260206004820152602e60248201527f496e697469616c697a61626c653a20636f6e747261637420697320616c72656160448201526d191e481a5b9a5d1a585b1a5e995960921b60648201526084015b60405180910390fd5b6000805460ff191660011790558015610bf6576000805461ff0019166101001790555b60c980546001600160a01b038089166001600160a01b03199283161790925560ca805488841690831617905560cb805487841690831617905560cc805492861692909116919091179055610c4861210b565b610c50612142565b610c598261217b565b610c616121a2565b610c696121ec565b604080516101a081018252600661016082018181526563727970746f60d01b610180840152825282518084018452908152651dd85b1b195d60d21b602082810191909152808301919091528251808401845260018152600f60fb1b8183015282840152825180840184526003808252621b999d60ea1b82840152606084019190915283518085018552600a815269313637b1b5b1b430b4b760b11b818401526080840152835180850185526007808252663134ba31b7b4b760c91b8285015260a0850191909152845180860186528281526207070760eb1b8185015260c0850152845180860186528281526264616f60e81b8185015260e085015284518086018652918252621e9a5b60ea1b8284015261010084019190915283518085018552908152663837b63cb3b7b760c91b818301526101208301528251808401909352600b83526a756e73746f707061626c6560a81b9083015261014081019190915260005b600b811015610e1457610e028282600b8110610df857634e487b7160e01b600052603260045260246000fd5b6020020151612229565b80610e0c81614128565b915050610dcc565b50508015610e5c576000805461ff0019169055604051600181527f7f26b83ff96e1f2b6a682f133852f6798a09c465da95921460cefb38474024989060200160405180910390a15b505050505050565b8282828080601f016020809104026020016040519081016040528093929190818152602001838380828437600092019190915250610ea792508491506123499050565b610ec35760405162461bcd60e51b8152600401610bca90613fe6565b6000610ece8261236f565b9050600a81600001511115610f2657610ef9610eed826000600a61239c565b80516020909101512090565b6000805160206141c58339815191521415610f265760405162461bcd60e51b8152600401610bca90613f41565b610f2e6115d2565b15610f4b5760405162461bcd60e51b8152600401610bca90613fbc565b610e5c610f566123db565b87610f6188886123ea565b612416565b610f716108306123db565b610f8d5760405162461bcd60e51b8152600401610bca90613f87565b8686868080601f016020809104026020016040519081016040528093929190818152602001838380828437600092019190915250610fd092508491506123499050565b610fec5760405162461bcd60e51b8152600401610bca90613fe6565b6000610ff78261236f565b9050600a8160000151111561104357611016610eed826000600a61239c565b6000805160206141c583398151915214156110435760405162461bcd60e51b8152600401610bca90613f41565b61104b6115d2565b156110685760405162461bcd60e51b8152600401610bca90613fbc565b6110bd8b8b8b8b8080601f016020809104026020016040519081016040528093929190818152602001838380828437600092018290525060408051602081019091529081528e93508d92508c91508b9061251d565b5050505050505050505050565b6110d2612698565b6110da612711565b565b6000828152609760205260409020600101546110f7816127bc565b61110183836127cd565b505050565b61110e612698565b61111781612854565b50565b6111226123db565b6001600160a01b0316816001600160a01b03161461119a5760405162461bcd60e51b815260206004820152602f60248201527f416363657373436f6e74726f6c3a2063616e206f6e6c792072656e6f756e636560448201526e103937b632b9903337b91039b2b63360891b6064820152608401610bca565b6111a4828261286c565b5050565b6111b36108306123db565b6111cf5760405162461bcd60e51b8152600401610bca90613f87565b8686868080601f01602080910402602001604051908101604052809392919081815260200183838082843760009201919091525061121292508491506123499050565b61122e5760405162461bcd60e51b8152600401610bca90613fe6565b60006112398261236f565b9050600a8160000151111561128557611258610eed826000600a61239c565b6000805160206141c583398151915214156112855760405162461bcd60e51b8152600401610bca90613f41565b61128d6115d2565b156112aa5760405162461bcd60e51b8152600401610bca90613fbc565b6110bd8b8b8b8b8080601f0160208091040260200160405190810160405280939291908181526020018383808284376000920191909152508d92508c91508b90508a6128f1565b6112f9612698565b6110da612a76565b61130c6108306123db565b6113285760405162461bcd60e51b8152600401610bca90613f87565b61111781612b01565b61133c6108306123db565b6113585760405162461bcd60e51b8152600401610bca90613f87565b8282828080601f01602080910402602001604051908101604052809392919081815260200183838082843760009201919091525061139b92508491506123499050565b6113b75760405162461bcd60e51b8152600401610bca90613fe6565b60006113c28261236f565b9050600a8160000151111561140e576113e1610eed826000600a61239c565b6000805160206141c5833981519152141561140e5760405162461bcd60e51b8152600401610bca90613f41565b6114166115d2565b156114335760405162461bcd60e51b8152600401610bca90613fbc565b61144f8787878760405180602001604052806000815250612bd0565b50505050505050565b611460612698565b60cc80546001600160a01b0319166001600160a01b0392909216919091179055565b61148d6108306123db565b6114a95760405162461bcd60e51b8152600401610bca90613f87565b8484848080601f0160208091040260200160405190810160405280939291908181526020018383808284376000920191909152506114ec92508491506123499050565b6115085760405162461bcd60e51b8152600401610bca90613fe6565b60006115138261236f565b9050600a8160000151111561155f57611532610eed826000600a61239c565b6000805160206141c5833981519152141561155f5760405162461bcd60e51b8152600401610bca90613f41565b6115676115d2565b156115845760405162461bcd60e51b8152600401610bca90613fbc565b6115c78989898989898080601f016020809104026020016040519081016040528093929190818152602001838380828437600092019190915250612bd092505050565b505050505050505050565b6000600080516020614185833981519152610b28565b6115f0612698565b60005b81518110156111a45761162c82828151811061161f57634e487b7160e01b600052603260045260246000fd5b6020026020010151612854565b8061163681614128565b9150506115f3565b6116496108306123db565b6116655760405162461bcd60e51b8152600401610bca90613f87565b6001600160a01b0381166116bb5760405162461bcd60e51b815260206004820152601d60248201527f4d696e746572526f6c653a2052454345495645525f49535f454d5054590000006044820152606401610bca565b6116c481612d50565b6116cc611ac7565b6040516001600160a01b038216903480156108fc02916000818181858888f193505050501580156111a4573d6000803e3d6000fd5b61170c6108306123db565b6117285760405162461bcd60e51b8152600401610bca90613f87565b8888888080601f01602080910402602001604051908101604052809392919081815260200183838082843760009201919091525061176b92508491506123499050565b6117875760405162461bcd60e51b8152600401610bca90613fe6565b60006117928261236f565b9050600a816000015111156117de576117b1610eed826000600a61239c565b6000805160206141c583398151915214156117de5760405162461bcd60e51b8152600401610bca90613f41565b6117e66115d2565b156118035760405162461bcd60e51b8152600401610bca90613fbc565b61188d8d8d8d8d8080601f016020809104026020016040519081016040528093929190818152602001838380828437600081840152601f19601f820116905080830192505050505050508c8c8c8c8c8c8080601f01602080910402602001604051908101604052809392919081815260200183838082843760009201919091525061251d92505050565b50505050505050505050505050565b6118a4612698565b6110da6000612d68565b6118b6612698565b60005b81518110156111a4576118f28282815181106118e557634e487b7160e01b600052603260045260246000fd5b6020026020010151612d50565b806118fc81614128565b9150506118b9565b61190f6108306123db565b61192b5760405162461bcd60e51b8152600401610bca90613f87565b6001600160a01b0381166116c45760405162461bcd60e51b815260206004820152601d60248201527f4d696e746572526f6c653a2052454345495645525f49535f454d5054590000006044820152606401610bca565b611989612698565b6110da612dba565b8282828080601f0160208091040260200160405190810160405280939291908181526020018383808284376000920191909152506119d492508491506123499050565b6119f05760405162461bcd60e51b8152600401610bca90613fe6565b60006119fb8261236f565b9050600a81600001511115611a4757611a1a610eed826000600a61239c565b6000805160206141c58339815191521415611a475760405162461bcd60e51b8152600401610bca90613f41565b611a4f6115d2565b15611a6c5760405162461bcd60e51b8152600401610bca90613fbc565b61144f8787610f6188886123ea565b611a83612698565b6110da612e22565b60009182526097602090815260408084206001600160a01b0393909316845291905290205460ff1690565b611abe612698565b61111781612d50565b6110da6000805160206141e58339815191526104a66123db565b611ae9612698565b60c954604051632678375f60e21b81526001600160a01b03909116906399e0dd7c90611b1b9085908590600401613f12565b600060405180830381600087803b158015611b3557600080fd5b505af1158015611b49573d6000803e3d6000fd5b505060cb546001600160a01b03161591506111a490505760cb54604051632678375f60e21b81526001600160a01b03909116906399e0dd7c90611b929085908590600401613f12565b600060405180830381600087803b158015611bac57600080fd5b505af1158015610e5c573d6000803e3d6000fd5b6000610a396000805160206141e583398151915283611a8b565b611be56108306123db565b611c015760405162461bcd60e51b8152600401610bca90613f87565b8282828080601f016020809104026020016040519081016040528093929190818152602001838380828437600092019190915250611c4492508491506123499050565b611c605760405162461bcd60e51b8152600401610bca90613fe6565b6000611c6b8261236f565b9050600a81600001511115611cb757611c8a610eed826000600a61239c565b6000805160206141c58339815191521415611cb75760405162461bcd60e51b8152600401610bca90613f41565b611cbf6115d2565b15611cdc5760405162461bcd60e51b8152600401610bca90613fbc565b61144f878787878080601f01602080910402602001604051908101604052809392919081815260200183838082843760009201919091525061241692505050565b611d286108306123db565b611d445760405162461bcd60e51b8152600401610bca90613f87565b60c954604051635718c22560e11b81526001600160a01b039091169063ae31844a90611b929085908590600401613ed8565b6000611d80610b16565b158015610a395750604080517f1ec047073e2c8b15660901dbfdb6e3ff6365bd699dd9f95dcc6eab5448bebd696020820152908101839052611dd9906060015b6040516020818303038152906040528051906020012090565b5460ff1692915050565b611deb612698565b7f893ef2ea16c023f61d4f55d3e6ee3fc3f2fbfd478461323dbc2fbf919047086e80546001600160a01b0319166001600160a01b03831617905550565b611e30612698565b6111a482828080601f01602080910402602001604051908101604052809392919081815260200183838082843760009201919091525061222992505050565b8686868080601f016020809104026020016040519081016040528093929190818152602001838380828437600092019190915250611eb292508491506123499050565b611ece5760405162461bcd60e51b8152600401610bca90613fe6565b6000611ed98261236f565b9050600a81600001511115611f2557611ef8610eed826000600a61239c565b6000805160206141c58339815191521415611f255760405162461bcd60e51b8152600401610bca90613f41565b611f2d6115d2565b15611f4a5760405162461bcd60e51b8152600401610bca90613fbc565b6110bd8b8b611f598c8c6123ea565b8a8a8a8a6128f1565b611f6a612698565b60005b818110156111015760c9546001600160a01b03166350960239848484818110611fa657634e487b7160e01b600052603260045260246000fd5b9050602002016020810190611fbb91906134ed565b6040516001600160e01b031960e084901b1681526001600160a01b039091166004820152602401600060405180830381600087803b158015611ffc57600080fd5b505af1158015612010573d6000803e3d6000fd5b50505050808061201f90614128565b915050611f6d565b600082815260976020526040902060010154612042816127bc565b611101838361286c565b6120576108306123db565b6120735760405162461bcd60e51b8152600401610bca90613f87565b6111a48282612eab565b612085612698565b61208e81612349565b6120aa5760405162461bcd60e51b8152600401610bca90613fe6565b600081815260cd602052604081206120c191613382565b60405181907f0aa1aff0f830e739d86baf0e6624d6763da02f7733575e0e463886cd062dea6a90600090a250565b6120f7612698565b61210081612ef7565b611117600082612f6d565b600054610100900460ff166121325760405162461bcd60e51b8152600401610bca90614028565b6110da61213d6123db565b612d68565b600054610100900460ff166121695760405162461bcd60e51b8152600401610bca90614028565b6110da60006121766123db565b612f6d565b600054610100900460ff16611deb5760405162461bcd60e51b8152600401610bca90614028565b600054610100900460ff166121c95760405162461bcd60e51b8152600401610bca90614028565b60006000805160206141a58339815191525b805460ff1916911515919091179055565b600054610100900460ff166122135760405162461bcd60e51b8152600401610bca90614028565b60006000805160206141858339815191526121db565b6000612236600083612f77565b600081815260cd60209081526040909120845192935061225a9290918501906133bc565b50807f4fce6f6e172b04eaa80325d8e3b0180a34945000f3e214605039e8420fdf89808360405161228b9190613f2e565b60405180910390a260c954604051634f558e7960e01b8152600481018390526001600160a01b0390911690634f558e799060240160206040518083038186803b1580156122d757600080fd5b505afa1580156122eb573d6000803e3d6000fd5b505050506040513d601f19601f8201168201806040525081019061230f919061387b565b6111a45760c9546040516334ff261960e21b81526001600160a01b039091169063d3fc986490611b929061dead9085908790600401613d15565b600081815260cd602052604081208054829190612365906140ed565b9050119050919050565b60408051808201825260008082526020918201528151808301909252825182529182019181019190915290565b604080518082019091526000808252602082015260405180604001604052808381526020018486602001516123d19190614073565b9052949350505050565b60006123e561302c565b905090565b606082826040516020016123ff929190613bb1565b604051602081830303815290604052905092915050565b60006124228383612f77565b905061242d81613073565b612436836130d5565b156124a95760ca5460cc5460405163c36c212560e01b81526001600160a01b039283169263c36c21259261247292899288921690600401613c98565b600060405180830381600087803b15801561248c57600080fd5b505af11580156124a0573d6000803e3d6000fd5b50505050612517565b60c9546001600160a01b031663d3fc986485836124c68787613113565b6040518463ffffffff1660e01b81526004016124e493929190613d15565b600060405180830381600087803b1580156124fe57600080fd5b505af1158015612512573d6000803e3d6000fd5b505050505b50505050565b60006125298888612f77565b905061253481613073565b61253d886130d5565b156126255760ca5460cc54604051630f95e75b60e31b81526001600160a01b0392831692637caf3ad89261257b928e928d9216908890600401613ccd565b600060405180830381600087803b15801561259557600080fd5b505af11580156125a9573d6000803e3d6000fd5b50508615915061262090505760cc54604051633a0deb9d60e21b81526001600160a01b039091169063e837ae74906125ed9089908990899089908890600401613e9e565b600060405180830381600087803b15801561260757600080fd5b505af115801561261b573d6000803e3d6000fd5b505050505b6115c7565b60c9546001600160a01b031663efda4d3e8a836126428c8c613113565b8a8a8a8a8a6040518963ffffffff1660e01b815260040161266a989796959493929190613da2565b600060405180830381600087803b15801561268457600080fd5b505af115801561188d573d6000803e3d6000fd5b6126a06123db565b6001600160a01b03166126bb6033546001600160a01b031690565b6001600160a01b0316146110da5760405162461bcd60e51b815260206004820181905260248201527f4f776e61626c653a2063616c6c6572206973206e6f7420746865206f776e65726044820152606401610bca565b612719610b16565b1561275c5760405162461bcd60e51b8152602060048201526013602482015272109b1bd8dadb1a5cdd0e88111254d050931151606a1b6044820152606401610bca565b6000805160206141a5833981519152805460ff191660011790557f079c4efaefd9fc7ddb28144b9b0140c03f42922d28d0e226369d60709215816661279f6123db565b6040516001600160a01b03909116815260200160405180910390a1565b611117816127c86123db565b613136565b6127d78282611a8b565b6111a45760008281526097602090815260408083206001600160a01b03851684529091529020805460ff191660011790556128106123db565b6001600160a01b0316816001600160a01b0316837f2f8788117e7eff1d82e926ec794901d17c78024a50270940304540a733656f0d60405160405180910390a45050565b6111176000805160206141e583398151915282612027565b6128768282611a8b565b156111a45760008281526097602090815260408083206001600160a01b03851684529091529020805460ff191690556128ad6123db565b6001600160a01b0316816001600160a01b0316837ff6391f5c32d9c69d2a47ea670b442974b53935d1edc7fd64eb21e047a839171b60405160405180910390a45050565b60006128fd8787612f77565b905061290881613073565b612911876130d5565b156129f75760ca5460cc5460405163c36c212560e01b81526001600160a01b039283169263c36c21259261294d928d928c921690600401613c98565b600060405180830381600087803b15801561296757600080fd5b505af115801561297b573d6000803e3d6000fd5b5050851591506129f290505760cc54604051633a0deb9d60e21b81526001600160a01b039091169063e837ae74906129bf9088908890889088908890600401613e9e565b600060405180830381600087803b1580156129d957600080fd5b505af11580156129ed573d6000803e3d6000fd5b505050505b612512565b60c9546001600160a01b031663b0f591778983612a148b8b613113565b898989896040518863ffffffff1660e01b8152600401612a3a9796959493929190613d45565b600060405180830381600087803b158015612a5457600080fd5b505af1158015612a68573d6000803e3d6000fd5b505050505050505050505050565b612a7e6115d2565b612ac15760405162461bcd60e51b815260206004820152601460248201527314185d5cd8589b194e881393d517d4105554d15160621b6044820152606401610bca565b600080516020614185833981519152805460ff191690557f5db9ee0a495bf2e6ff9c91a7834c1ba4fdd244a5e8aa4e537bd38aeae4b073aa61279f6123db565b612b09610b16565b15612b4c5760405162461bcd60e51b8152602060048201526013602482015272109b1bd8dadb1a5cdd0e88111254d050931151606a1b6044820152606401610bca565b604080517f1ec047073e2c8b15660901dbfdb6e3ff6365bd699dd9f95dcc6eab5448bebd696020820152908101829052600190612b8b90606001611dc0565b805460ff19169115159190911790556040518181527f2ce5d9351b1d590d5a066db0d2dc7602d55f092506a83a7ee8c4d78ee357d75a9060200160405180910390a150565b6000612c128585858080601f016020809104026020016040519081016040528093929190818152602001838380828437600092019190915250612f7792505050565b9050612c1d81613073565b612c26856130d5565b15612c9e5760ca5460cc54604051630f95e75b60e31b81526001600160a01b0392831692637caf3ad892612c67928b928a928a929116908990600401613c4e565b600060405180830381600087803b158015612c8157600080fd5b505af1158015612c95573d6000803e3d6000fd5b50505050610e5c565b60c954604080516020601f87018190048102820181019092528581526001600160a01b039092169163b55bc6179189918591612cf6918b918b908b908190840183828082843760009201919091525061311392505050565b866040518563ffffffff1660e01b8152600401612d169493929190613e14565b600060405180830381600087803b158015612d3057600080fd5b505af1158015612d44573d6000803e3d6000fd5b50505050505050505050565b6111176000805160206141e583398151915282612f6d565b603380546001600160a01b038381166001600160a01b0319831681179093556040519116919082907f8be0079c531659141344cd1fd0a4f28419497f9722a3daafe3b4186f6b6457e090600090a35050565b612dc26115d2565b15612ddf5760405162461bcd60e51b8152600401610bca90613fbc565b600080516020614185833981519152805460ff191660011790557f62e78cea01bee320cd4e420270b5ea74000d11b0c9f74754ebdbfc544b05a25861279f6123db565b612e2a610b16565b612e6b5760405162461bcd60e51b8152602060048201526012602482015271109b1bd8dadb1a5cdd0e881153905093115160721b6044820152606401610bca565b6000805160206141a5833981519152805460ff191690557f316c4cec74b9568f102eda30781a2fe8cd5172329bf1401e804cb8c5131715c461279f6123db565b60005b8181101561110157612ee5838383818110612ed957634e487b7160e01b600052603260045260246000fd5b90506020020135612b01565b80612eef81614128565b915050612eae565b612eff612698565b6001600160a01b038116612f645760405162461bcd60e51b815260206004820152602660248201527f4f776e61626c653a206e6577206f776e657220697320746865207a65726f206160448201526564647265737360d01b6064820152608401610bca565b61111781612d68565b6111a482826127cd565b6000815160001415612fcb5760405162461bcd60e51b815260206004820152601b60248201527f4d696e74696e674d616e616765723a204c4142454c5f454d50545900000000006044820152606401610bca565b8282604051602001612fdd9190613ad7565b6040516020818303038152906040528051906020012060405160200161300d929190918252602082015260400190565b60408051601f1981840301815291905280516020909101209392505050565b7f893ef2ea16c023f61d4f55d3e6ee3fc3f2fbfd478461323dbc2fbf919047086e546000906001600160a01b031633141561306e575060331936013560601c90565b503390565b61307b610b16565b6111175761308881611d76565b156113285760405162461bcd60e51b815260206004820152601d60248201527f4d696e74696e674d616e616765723a20544f4b454e5f424c4f434b45440000006044820152606401610bca565b60ca546000906001600160a01b031615801590610a395750507f0f4a10a4f46c288cea365fcf45cccf0e9d901b945b9829ccdb54c10dc3cb7a6f1490565b600082815260cd602090815260409182902091516060926123ff92859201613af3565b6131408282611a8b565b6111a457613158816001600160a01b0316601461319a565b61316383602061319a565b604051602001613174929190613bd9565b60408051601f198184030181529082905262461bcd60e51b8252610bca91600401613f2e565b606060006131a983600261408b565b6131b4906002614073565b6001600160401b038111156131d957634e487b7160e01b600052604160045260246000fd5b6040519080825280601f01601f191660200182016040528015613203576020820181803683370190505b509050600360fc1b8160008151811061322c57634e487b7160e01b600052603260045260246000fd5b60200101906001600160f81b031916908160001a905350600f60fb1b8160018151811061326957634e487b7160e01b600052603260045260246000fd5b60200101906001600160f81b031916908160001a905350600061328d84600261408b565b613298906001614073565b90505b600181111561332c576f181899199a1a9b1b9c1cb0b131b232b360811b85600f16601081106132da57634e487b7160e01b600052603260045260246000fd5b1a60f81b8282815181106132fe57634e487b7160e01b600052603260045260246000fd5b60200101906001600160f81b031916908160001a90535060049490941c93613325816140d6565b905061329b565b50831561337b5760405162461bcd60e51b815260206004820181905260248201527f537472696e67733a20686578206c656e67746820696e73756666696369656e746044820152606401610bca565b9392505050565b50805461338e906140ed565b6000825580601f1061339e575050565b601f0160209004906000526020600020908101906111179190613440565b8280546133c8906140ed565b90600052602060002090601f0160209004810192826133ea5760008555613430565b82601f1061340357805160ff1916838001178555613430565b82800160010185558215613430579182015b82811115613430578251825591602001919060010190613415565b5061343c929150613440565b5090565b5b8082111561343c5760008155600101613441565b80356134608161416f565b919050565b60008083601f840112613476578081fd5b5081356001600160401b0381111561348c578182fd5b6020830191508360208260051b85010111156134a757600080fd5b9250929050565b60008083601f8401126134bf578182fd5b5081356001600160401b038111156134d5578182fd5b6020830191508360208285010111156134a757600080fd5b6000602082840312156134fe578081fd5b813561337b8161416f565b6000806000806060858703121561351e578283fd5b84356135298161416f565b93506020850135925060408501356001600160401b0381111561354a578283fd5b613556878288016134ae565b95989497509550505050565b60008060008060008060008060a0898b03121561357d578384fd5b88356135888161416f565b97506020890135965060408901356001600160401b03808211156135aa578586fd5b6135b68c838d016134ae565b909850965060608b01359150808211156135ce578586fd5b6135da8c838d01613465565b909650945060808b01359150808211156135f2578384fd5b506135ff8b828c01613465565b999c989b5096995094979396929594505050565b60008060008060008060008060008060c08b8d031215613631578182fd5b61363a8b613455565b995060208b0135985060408b01356001600160401b038082111561365c578384fd5b6136688e838f016134ae565b909a50985060608d0135915080821115613680578384fd5b61368c8e838f01613465565b909850965060808d01359150808211156136a4578384fd5b6136b08e838f01613465565b909650945060a08d01359150808211156136c8578384fd5b506136d58d828e016134ae565b915080935050809150509295989b9194979a5092959850565b60008060008060008060808789031215613706578182fd5b86356137118161416f565b95506020870135945060408701356001600160401b0380821115613733578384fd5b61373f8a838b016134ae565b90965094506060890135915080821115613757578384fd5b5061376489828a016134ae565b979a9699509497509295939492505050565b60008060208385031215613788578182fd5b82356001600160401b0381111561379d578283fd5b6137a985828601613465565b90969095509350505050565b600060208083850312156137c7578182fd5b82356001600160401b03808211156137dd578384fd5b818501915085601f8301126137f0578384fd5b81358181111561380257613802614159565b8060051b604051601f19603f8301168101818110858211171561382757613827614159565b604052828152858101935084860182860187018a1015613845578788fd5b8795505b8386101561386e5761385a81613455565b855260019590950194938601938601613849565b5098975050505050505050565b60006020828403121561388c578081fd5b8151801515811461337b578182fd5b6000602082840312156138ac578081fd5b5035919050565b600080604083850312156138c5578182fd5b8235915060208301356138d78161416f565b809150509250929050565b6000602082840312156138f3578081fd5b81356001600160e01b03198116811461337b578182fd5b600080600080600060a08688031215613921578283fd5b853561392c8161416f565b9450602086013561393c8161416f565b9350604086013561394c8161416f565b9250606086013561395c8161416f565b9150608086013561396c8161416f565b809150509295509295909350565b6000806020838503121561398c578182fd5b82356001600160401b038111156139a1578283fd5b6137a9858286016134ae565b6000806000604084860312156139c1578081fd5b8335925060208401356001600160401b038111156139dd578182fd5b6139e9868287016134ae565b9497909650939450505050565b81835260006020808501808196508560051b8101915084845b87811015613a755782840389528135601e19883603018112613a2f578687fd5b870180356001600160401b03811115613a46578788fd5b803603891315613a54578788fd5b613a618682898501613aae565b9a87019a9550505090840190600101613a0f565b5091979650505050505050565b60008151808452613a9a8160208601602086016140aa565b601f01601f19169290920160200192915050565b81835281816020850137506000828201602090810191909152601f909101601f19169091010190565b60008251613ae98184602087016140aa565b9190910192915050565b600083516020613b0682858389016140aa565b601760f91b9184019182528454600190849080831c81841680613b2a57607f821691505b858210811415613b4857634e487b7160e01b88526022600452602488fd5b808015613b5c5760018114613b7157613ba1565b60ff1984168887015282880186019450613ba1565b60008b815260209020895b84811015613b975781548a8201890152908701908801613b7c565b5050858389010194505b50929a9950505050505050505050565b6b756e732d646576746573742d60a01b81528183600c83013760009101600c01908152919050565b7f416363657373436f6e74726f6c3a206163636f756e7420000000000000000000815260008351613c118160178501602088016140aa565b7001034b99036b4b9b9b4b733903937b6329607d1b6017918401918201528351613c428160288401602088016140aa565b01602801949350505050565b600060018060a01b03808816835260806020840152613c71608084018789613aae565b81861660408501528381036060850152613c8b8186613a82565b9998505050505050505050565b600060018060a01b03808616835260606020840152613cba6060840186613a82565b9150808416604084015250949350505050565b600060018060a01b03808716835260806020840152613cef6080840187613a82565b81861660408501528381036060850152613d098186613a82565b98975050505050505050565b60018060a01b0384168152826020820152606060408201526000613d3c6060830184613a82565b95945050505050565b60018060a01b038816815286602082015260a060408201526000613d6c60a0830188613a82565b8281036060840152613d7f8187896139f6565b90508281036080840152613d948185876139f6565b9a9950505050505050505050565b60018060a01b038916815287602082015260c060408201526000613dc960c0830189613a82565b8281036060840152613ddc81888a6139f6565b90508281036080840152613df18186886139f6565b905082810360a0840152613e058185613a82565b9b9a5050505050505050505050565b60018060a01b0385168152836020820152608060408201526000613e3b6080830185613a82565b8281036060840152613e4d8185613a82565b979650505050505050565b6020808252825182820181905260009190848201906040850190845b81811015613e92578351151583529284019291840191600101613e74565b50909695505050505050565b606081526000613eb26060830187896139f6565b8281036020840152613ec58186886139f6565b9150508260408301529695505050505050565b6020808252810182905260006001600160fb1b03831115613ef7578081fd5b8260051b808560408501379190910160400190815292915050565b602081526000613f26602083018486613aae565b949350505050565b60208152600061337b6020830184613a82565b60208082526026908201527f4d696e74696e674d616e616765723a20544f4b454e5f4c4142454c5f50524f4860408201526512509255115160d21b606082015260800190565b6020808252818101527f4d696e746572526f6c653a2043414c4c45525f49535f4e4f545f4d494e544552604082015260600190565b60208082526010908201526f14185d5cd8589b194e8814105554d15160821b604082015260600190565b60208082526022908201527f4d696e74696e674d616e616765723a20544c445f4e4f545f5245474953544552604082015261115160f21b606082015260800190565b6020808252602b908201527f496e697469616c697a61626c653a20636f6e7472616374206973206e6f74206960408201526a6e697469616c697a696e6760a81b606082015260800190565b6000821982111561408657614086614143565b500190565b60008160001904831182151516156140a5576140a5614143565b500290565b60005b838110156140c55781810151838201526020016140ad565b838111156125175750506000910152565b6000816140e5576140e5614143565b506000190190565b600181811c9082168061410157607f821691505b6020821081141561412257634e487b7160e01b600052602260045260246000fd5b50919050565b600060001982141561413c5761413c614143565b5060010190565b634e487b7160e01b600052601160045260246000fd5b634e487b7160e01b600052604160045260246000fd5b6001600160a01b038116811461111757600080fdfe5496787fc1ebdfeba375028c1865f13fbb1d63c0caa356ccc1b29a80f3ebd622a85b8425a460dd344a297bd4a82e287385f0fc558cb3e78867b0489f43df2470b551e0305c8163b812374b8e78b577c77f226f6f10c5ad03e52699578fbc34b89f2df0fed2c77648de5860a4cc508cd0818c85b8b8a1ab4ceeef8d981c8956a6a164736f6c6343000804000a",
  "linkReferences": {},
  "deployedLinkReferences": {}
}