{
  "_format": "hh-sol-artifact-1",
  "contractName": "MintingManager",
  "sourceName": "contracts/MintingManager.sol",
  "abi": [
    {
      "anonymous": false,
      "inputs": [
        {
          "indexed": false,
          "internalType": "address",
          "name": "previousAdmin",
          "type": "address"
        },
        {
          "indexed": false,
          "internalType": "address",
          "name": "newAdmin",
          "type": "address"
        }
      ],
      "name": "AdminChanged",
      "type": "event"
    },
    {
      "anonymous": false,
      "inputs": [
        {
          "indexed": false,
          "internalType": "uint256",
          "name": "tokenId",
          "type": "uint256"
        }
      ],
      "name": "Blocked",
      "type": "event"
    },
    {
      "anonymous": false,
      "inputs": [
        {
          "indexed": false,
          "internalType": "address",
          "name": "account",
          "type": "address"
        }
      ],
      "name": "BlocklistDisabled",
      "type": "event"
    },
    {
      "anonymous": false,
      "inputs": [
        {
          "indexed": false,
          "internalType": "address",
          "name": "account",
          "type": "address"
        }
      ],
      "name": "BlocklistEnabled",
      "type": "event"
    },
    {
      "anonymous": false,
      "inputs": [
        {
          "indexed": false,
          "internalType": "uint8",
          "name": "version",
          "type": "uint8"
        }
      ],
      "name": "Initialized",
      "type": "event"
    },
    {
      "anonymous": false,
      "inputs": [
        {
          "indexed": true,
          "internalType": "uint256",
          "name": "tokenId",
          "type": "uint256"
        },
        {
          "indexed": false,
          "internalType": "string",
          "name": "tld",
          "type": "string"
        }
      ],
      "name": "NewTld",
      "type": "event"
    },
    {
      "anonymous": false,
      "inputs": [
        {
          "indexed": true,
          "internalType": "address",
          "name": "previousOwner",
          "type": "address"
        },
        {
          "indexed": true,
          "internalType": "address",
          "name": "newOwner",
          "type": "address"
        }
      ],
      "name": "OwnershipTransferred",
      "type": "event"
    },
    {
      "anonymous": false,
      "inputs": [
        {
          "indexed": false,
          "internalType": "address",
          "name": "account",
          "type": "address"
        }
      ],
      "name": "Paused",
      "type": "event"
    },
    {
      "anonymous": false,
      "inputs": [
        {
          "indexed": true,
          "internalType": "uint256",
          "name": "tokenId",
          "type": "uint256"
        }
      ],
      "name": "RemoveTld",
      "type": "event"
    },
    {
      "anonymous": false,
      "inputs": [
        {
          "indexed": true,
          "internalType": "bytes32",
          "name": "role",
          "type": "bytes32"
        },
        {
          "indexed": true,
          "internalType": "bytes32",
          "name": "previousAdminRole",
          "type": "bytes32"
        },
        {
          "indexed": true,
          "internalType": "bytes32",
          "name": "newAdminRole",
          "type": "bytes32"
        }
      ],
      "name": "RoleAdminChanged",
      "type": "event"
    },
    {
      "anonymous": false,
      "inputs": [
        {
          "indexed": true,
          "internalType": "bytes32",
          "name": "role",
          "type": "bytes32"
        },
        {
          "indexed": true,
          "internalType": "address",
          "name": "account",
          "type": "address"
        },
        {
          "indexed": true,
          "internalType": "address",
          "name": "sender",
          "type": "address"
        }
      ],
      "name": "RoleGranted",
      "type": "event"
    },
    {
      "anonymous": false,
      "inputs": [
        {
          "indexed": true,
          "internalType": "bytes32",
          "name": "role",
          "type": "bytes32"
        },
        {
          "indexed": true,
          "internalType": "address",
          "name": "account",
          "type": "address"
        },
        {
          "indexed": true,
          "internalType": "address",
          "name": "sender",
          "type": "address"
        }
      ],
      "name": "RoleRevoked",
      "type": "event"
    },
    {
      "anonymous": false,
      "inputs": [
        {
          "indexed": false,
          "internalType": "address",
          "name": "account",
          "type": "address"
        }
      ],
      "name": "Unpaused",
      "type": "event"
    },
    {
      "anonymous": false,
      "inputs": [
        {
          "indexed": true,
          "internalType": "address",
          "name": "implementation",
          "type": "address"
        }
      ],
      "name": "Upgraded",
      "type": "event"
    },
    {
      "inputs": [],
      "name": "DEFAULT_ADMIN_ROLE",
      "outputs": [
        {
          "internalType": "bytes32",
          "name": "",
          "type": "bytes32"
        }
      ],
      "stateMutability": "view",
      "type": "function"
    },
    {
      "inputs": [],
      "name": "MINTER_ROLE",
      "outputs": [
        {
          "internalType": "bytes32",
          "name": "",
          "type": "bytes32"
        }
      ],
      "stateMutability": "view",
      "type": "function"
    },
    {
      "inputs": [],
      "name": "NAME",
      "outputs": [
        {
          "internalType": "string",
          "name": "",
          "type": "string"
        }
      ],
      "stateMutability": "view",
      "type": "function"
    },
    {
      "inputs": [],
      "name": "VERSION",
      "outputs": [
        {
          "internalType": "string",
          "name": "",
          "type": "string"
        }
      ],
      "stateMutability": "view",
      "type": "function"
    },
    {
      "inputs": [
        {
          "internalType": "address",
          "name": "account",
          "type": "address"
        }
      ],
      "name": "addMinter",
      "outputs": [],
      "stateMutability": "nonpayable",
      "type": "function"
    },
    {
      "inputs": [
        {
          "internalType": "address[]",
          "name": "accounts",
          "type": "address[]"
        }
      ],
      "name": "addMinters",
      "outputs": [],
      "stateMutability": "nonpayable",
      "type": "function"
    },
    {
      "inputs": [
        {
          "internalType": "string",
          "name": "tld",
          "type": "string"
        }
      ],
      "name": "addTld",
      "outputs": [],
      "stateMutability": "nonpayable",
      "type": "function"
    },
    {
      "inputs": [
        {
          "internalType": "uint256[]",
          "name": "tokenIds",
          "type": "uint256[]"
        }
      ],
      "name": "areBlocked",
      "outputs": [
        {
          "internalType": "bool[]",
          "name": "values",
          "type": "bool[]"
        }
      ],
      "stateMutability": "view",
      "type": "function"
    },
    {
      "inputs": [
        {
          "internalType": "uint256",
          "name": "tokenId",
          "type": "uint256"
        }
      ],
      "name": "blocklist",
      "outputs": [],
      "stateMutability": "nonpayable",
      "type": "function"
    },
    {
      "inputs": [
        {
          "internalType": "uint256[]",
          "name": "tokenIds",
          "type": "uint256[]"
        }
      ],
      "name": "blocklistAll",
      "outputs": [],
      "stateMutability": "nonpayable",
      "type": "function"
    },
    {
      "inputs": [
        {
          "internalType": "uint256",
          "name": "tld",
          "type": "uint256"
        },
        {
          "internalType": "string",
          "name": "label",
          "type": "string"
        }
      ],
      "name": "claim",
      "outputs": [],
      "stateMutability": "nonpayable",
      "type": "function"
    },
    {
      "inputs": [
        {
          "internalType": "address",
          "name": "to",
          "type": "address"
        },
        {
          "internalType": "uint256",
          "name": "tld",
          "type": "uint256"
        },
        {
          "internalType": "string",
          "name": "label",
          "type": "string"
        }
      ],
      "name": "claimTo",
      "outputs": [],
      "stateMutability": "nonpayable",
      "type": "function"
    },
    {
      "inputs": [
        {
          "internalType": "address",
          "name": "to",
          "type": "address"
        },
        {
          "internalType": "uint256",
          "name": "tld",
          "type": "uint256"
        },
        {
          "internalType": "string",
          "name": "label",
          "type": "string"
        },
        {
          "internalType": "string[]",
          "name": "keys",
          "type": "string[]"
        },
        {
          "internalType": "string[]",
          "name": "values",
          "type": "string[]"
        }
      ],
      "name": "claimToWithRecords",
      "outputs": [],
      "stateMutability": "nonpayable",
      "type": "function"
    },
    {
      "inputs": [
        {
          "internalType": "address payable",
          "name": "receiver",
          "type": "address"
        }
      ],
      "name": "closeMinter",
      "outputs": [],
      "stateMutability": "payable",
      "type": "function"
    },
    {
      "inputs": [],
      "name": "cnsMintingController",
      "outputs": [
        {
          "internalType": "contract IMintingController",
          "name": "",
          "type": "address"
        }
      ],
      "stateMutability": "view",
      "type": "function"
    },
    {
      "inputs": [],
      "name": "cnsResolver",
      "outputs": [
        {
          "internalType": "contract IResolver",
          "name": "",
          "type": "address"
        }
      ],
      "stateMutability": "view",
      "type": "function"
    },
    {
      "inputs": [],
      "name": "cnsURIPrefixController",
      "outputs": [
        {
          "internalType": "contract IURIPrefixController",
          "name": "",
          "type": "address"
        }
      ],
      "stateMutability": "view",
      "type": "function"
    },
    {
      "inputs": [],
      "name": "disableBlocklist",
      "outputs": [],
      "stateMutability": "nonpayable",
      "type": "function"
    },
    {
      "inputs": [],
      "name": "enableBlocklist",
      "outputs": [],
      "stateMutability": "nonpayable",
      "type": "function"
    },
    {
      "inputs": [
        {
          "internalType": "bytes32",
          "name": "role",
          "type": "bytes32"
        }
      ],
      "name": "getRoleAdmin",
      "outputs": [
        {
          "internalType": "bytes32",
          "name": "",
          "type": "bytes32"
        }
      ],
      "stateMutability": "view",
      "type": "function"
    },
    {
      "inputs": [
        {
          "internalType": "bytes32",
          "name": "role",
          "type": "bytes32"
        },
        {
          "internalType": "address",
          "name": "account",
          "type": "address"
        }
      ],
      "name": "grantRole",
      "outputs": [],
      "stateMutability": "nonpayable",
      "type": "function"
    },
    {
      "inputs": [
        {
          "internalType": "bytes32",
          "name": "role",
          "type": "bytes32"
        },
        {
          "internalType": "address",
          "name": "account",
          "type": "address"
        }
      ],
      "name": "hasRole",
      "outputs": [
        {
          "internalType": "bool",
          "name": "",
          "type": "bool"
        }
      ],
      "stateMutability": "view",
      "type": "function"
    },
    {
      "inputs": [
        {
          "internalType": "contract IUNSRegistry",
          "name": "unsRegistry_",
          "type": "address"
        },
        {
          "internalType": "contract IMintingController",
          "name": "cnsMintingController_",
          "type": "address"
        },
        {
          "internalType": "contract IURIPrefixController",
          "name": "cnsURIPrefixController_",
          "type": "address"
        },
        {
          "internalType": "contract IResolver",
          "name": "cnsResolver_",
          "type": "address"
        },
        {
          "internalType": "address",
          "name": "forwarder",
          "type": "address"
        }
      ],
      "name": "initialize",
      "outputs": [],
      "stateMutability": "nonpayable",
      "type": "function"
    },
    {
      "inputs": [
        {
          "internalType": "uint256",
          "name": "tokenId",
          "type": "uint256"
        }
      ],
      "name": "isBlocked",
      "outputs": [
        {
          "internalType": "bool",
          "name": "",
          "type": "bool"
        }
      ],
      "stateMutability": "view",
      "type": "function"
    },
    {
      "inputs": [],
      "name": "isBlocklistDisabled",
      "outputs": [
        {
          "internalType": "bool",
          "name": "",
          "type": "bool"
        }
      ],
      "stateMutability": "view",
      "type": "function"
    },
    {
      "inputs": [
        {
          "internalType": "address",
          "name": "account",
          "type": "address"
        }
      ],
      "name": "isMinter",
      "outputs": [
        {
          "internalType": "bool",
          "name": "",
          "type": "bool"
        }
      ],
      "stateMutability": "view",
      "type": "function"
    },
    {
      "inputs": [
        {
          "internalType": "address",
          "name": "forwarder",
          "type": "address"
        }
      ],
      "name": "isTrustedForwarder",
      "outputs": [
        {
          "internalType": "bool",
          "name": "",
          "type": "bool"
        }
      ],
      "stateMutability": "view",
      "type": "function"
    },
    {
      "inputs": [
        {
          "internalType": "address",
          "name": "to",
          "type": "address"
        },
        {
          "internalType": "uint256",
          "name": "tld",
          "type": "uint256"
        },
        {
          "internalType": "string",
          "name": "label",
          "type": "string"
        }
      ],
      "name": "mintSLD",
      "outputs": [],
      "stateMutability": "nonpayable",
      "type": "function"
    },
    {
      "inputs": [
        {
          "internalType": "address",
          "name": "to",
          "type": "address"
        },
        {
          "internalType": "uint256",
          "name": "tld",
          "type": "uint256"
        },
        {
          "internalType": "string",
          "name": "label",
          "type": "string"
        },
        {
          "internalType": "string[]",
          "name": "keys",
          "type": "string[]"
        },
        {
          "internalType": "string[]",
          "name": "values",
          "type": "string[]"
        }
      ],
      "name": "mintSLDWithRecords",
      "outputs": [],
      "stateMutability": "nonpayable",
      "type": "function"
    },
    {
      "inputs": [],
      "name": "owner",
      "outputs": [
        {
          "internalType": "address",
          "name": "",
          "type": "address"
        }
      ],
      "stateMutability": "view",
      "type": "function"
    },
    {
      "inputs": [],
      "name": "pause",
      "outputs": [],
      "stateMutability": "nonpayable",
      "type": "function"
    },
    {
      "inputs": [],
      "name": "paused",
      "outputs": [
        {
          "internalType": "bool",
          "name": "",
          "type": "bool"
        }
      ],
      "stateMutability": "view",
      "type": "function"
    },
    {
      "inputs": [
        {
          "internalType": "address",
          "name": "account",
          "type": "address"
        }
      ],
      "name": "removeMinter",
      "outputs": [],
      "stateMutability": "nonpayable",
      "type": "function"
    },
    {
      "inputs": [
        {
          "internalType": "address[]",
          "name": "accounts",
          "type": "address[]"
        }
      ],
      "name": "removeMinters",
      "outputs": [],
      "stateMutability": "nonpayable",
      "type": "function"
    },
    {
      "inputs": [
        {
          "internalType": "uint256",
          "name": "tld",
          "type": "uint256"
        }
      ],
      "name": "removeTld",
      "outputs": [],
      "stateMutability": "nonpayable",
      "type": "function"
    },
    {
      "inputs": [],
      "name": "renounceMinter",
      "outputs": [],
      "stateMutability": "nonpayable",
      "type": "function"
    },
    {
      "inputs": [],
      "name": "renounceOwnership",
      "outputs": [],
      "stateMutability": "nonpayable",
      "type": "function"
    },
    {
      "inputs": [
        {
          "internalType": "bytes32",
          "name": "role",
          "type": "bytes32"
        },
        {
          "internalType": "address",
          "name": "account",
          "type": "address"
        }
      ],
      "name": "renounceRole",
      "outputs": [],
      "stateMutability": "nonpayable",
      "type": "function"
    },
    {
      "inputs": [
        {
          "internalType": "bytes32",
          "name": "role",
          "type": "bytes32"
        },
        {
          "internalType": "address",
          "name": "account",
          "type": "address"
        }
      ],
      "name": "revokeRole",
      "outputs": [],
      "stateMutability": "nonpayable",
      "type": "function"
    },
    {
      "inputs": [
        {
          "internalType": "address payable",
          "name": "receiver",
          "type": "address"
        }
      ],
      "name": "rotateMinter",
      "outputs": [],
      "stateMutability": "payable",
      "type": "function"
    },
    {
      "inputs": [
        {
          "internalType": "address",
          "name": "to",
          "type": "address"
        },
        {
          "internalType": "uint256",
          "name": "tld",
          "type": "uint256"
        },
        {
          "internalType": "string",
          "name": "label",
          "type": "string"
        }
      ],
      "name": "safeMintSLD",
      "outputs": [],
      "stateMutability": "nonpayable",
      "type": "function"
    },
    {
      "inputs": [
        {
          "internalType": "address",
          "name": "to",
          "type": "address"
        },
        {
          "internalType": "uint256",
          "name": "tld",
          "type": "uint256"
        },
        {
          "internalType": "string",
          "name": "label",
          "type": "string"
        },
        {
          "internalType": "bytes",
          "name": "data",
          "type": "bytes"
        }
      ],
      "name": "safeMintSLD",
      "outputs": [],
      "stateMutability": "nonpayable",
      "type": "function"
    },
    {
      "inputs": [
        {
          "internalType": "address",
          "name": "to",
          "type": "address"
        },
        {
          "internalType": "uint256",
          "name": "tld",
          "type": "uint256"
        },
        {
          "internalType": "string",
          "name": "label",
          "type": "string"
        },
        {
          "internalType": "string[]",
          "name": "keys",
          "type": "string[]"
        },
        {
          "internalType": "string[]",
          "name": "values",
          "type": "string[]"
        }
      ],
      "name": "safeMintSLDWithRecords",
      "outputs": [],
      "stateMutability": "nonpayable",
      "type": "function"
    },
    {
      "inputs": [
        {
          "internalType": "address",
          "name": "to",
          "type": "address"
        },
        {
          "internalType": "uint256",
          "name": "tld",
          "type": "uint256"
        },
        {
          "internalType": "string",
          "name": "label",
          "type": "string"
        },
        {
          "internalType": "string[]",
          "name": "keys",
          "type": "string[]"
        },
        {
          "internalType": "string[]",
          "name": "values",
          "type": "string[]"
        },
        {
          "internalType": "bytes",
          "name": "data",
          "type": "bytes"
        }
      ],
      "name": "safeMintSLDWithRecords",
      "outputs": [],
      "stateMutability": "nonpayable",
      "type": "function"
    },
    {
      "inputs": [
        {
          "internalType": "address",
          "name": "forwarder",
          "type": "address"
        }
      ],
      "name": "setForwarder",
      "outputs": [],
      "stateMutability": "nonpayable",
      "type": "function"
    },
    {
      "inputs": [
        {
          "internalType": "address",
          "name": "resolver",
          "type": "address"
        }
      ],
      "name": "setResolver",
      "outputs": [],
      "stateMutability": "nonpayable",
      "type": "function"
    },
    {
      "inputs": [
        {
          "internalType": "string",
          "name": "prefix",
          "type": "string"
        }
      ],
      "name": "setTokenURIPrefix",
      "outputs": [],
      "stateMutability": "nonpayable",
      "type": "function"
    },
    {
      "inputs": [
        {
          "internalType": "bytes4",
          "name": "interfaceId",
          "type": "bytes4"
        }
      ],
      "name": "supportsInterface",
      "outputs": [
        {
          "internalType": "bool",
          "name": "",
          "type": "bool"
        }
      ],
      "stateMutability": "view",
      "type": "function"
    },
    {
      "inputs": [
        {
          "internalType": "address",
          "name": "newOwner",
          "type": "address"
        }
      ],
      "name": "transferOwnership",
      "outputs": [],
      "stateMutability": "nonpayable",
      "type": "function"
    },
    {
      "inputs": [],
      "name": "unpause",
      "outputs": [],
      "stateMutability": "nonpayable",
      "type": "function"
    },
    {
      "inputs": [],
      "name": "unsRegistry",
      "outputs": [
        {
          "internalType": "contract IUNSRegistry",
          "name": "",
          "type": "address"
        }
      ],
      "stateMutability": "view",
      "type": "function"
    },
    {
      "inputs": [
        {
          "internalType": "uint256[]",
          "name": "tokenIds",
          "type": "uint256[]"
        }
      ],
      "name": "upgradeAll",
      "outputs": [],
      "stateMutability": "nonpayable",
      "type": "function"
    }
  ],
  "bytecode": "0x608060405234801561001057600080fd5b50614111806100206000396000f3fe6080604052600436106102ff5760003560e01c806381c81d3511610190578063ae2ad903116100dc578063ceeb4f5011610095578063e47d6cc61161006f578063e47d6cc61461093c578063ec5273891461095c578063f2fde38b1461097c578063ffa1ad741461099c57600080fd5b8063ceeb4f50146108da578063d5391393146108fa578063d547741f1461091c57600080fd5b8063ae2ad9031461081a578063ae31844a1461083a578063b0aa98c71461085a578063b9998a241461087a578063c3a3bc001461089a578063cc2c3fc4146108ba57600080fd5b8063983b2d5611610149578063a217fddf11610123578063a217fddf14610778578063a3f4df7e1461078d578063a849d65c146107da578063aa271e1a146107fa57600080fd5b8063983b2d5614610723578063986502751461074357806399e0dd7c1461075857600080fd5b806381c81d35146106885780638456cb591461069b5780638da5cb5b146106b0578063906cecc1146106ce57806390dbdb5a146106ee57806391d148541461070357600080fd5b80633f4ba83a1161024f5780635b6fa8db11610208578063634486da116101e2578063634486da146106205780636a2d225614610633578063715018a61461065357806371e2a6571461066857600080fd5b80635b6fa8db146105cb5780635c975abb146105eb5780635fc1964f1461060057600080fd5b80633f4ba83a146104e8578063463c4bcb146104fd5780634c1819e01461051d5780634e543b261461053d578063572b6c051461055d57806358839d6b146105ab57600080fd5b806327bbd225116102bc5780633092afd5116102965780633092afd51461045057806336568abe1461047057806339ccf4d0146104905780633f41b614146104b057600080fd5b806327bbd225146103fb5780632eff1a951461041b5780632f2ff15d1461043057600080fd5b806301ffc9a7146103045780630e36a87d1461033957806310921f12146103665780631459457a1461037b578063248a9ca31461039d578063268b15ed146103db575b600080fd5b34801561031057600080fd5b5061032461031f3660046137e2565b6109cd565b60405190151581526020015b60405180910390f35b34801561034557600080fd5b5061035961035436600461373c565b610a04565b6040516103309190613d58565b34801561037257600080fd5b50610324610adb565b34801561038757600080fd5b5061039b61039636600461380a565b610af6565b005b3480156103a957600080fd5b506103cd6103b836600461379b565b60009081526097602052604090206001015490565b604051908152602001610330565b3480156103e757600080fd5b5061039b6103f63660046138ad565b610e29565b34801561040757600080fd5b5061039b610416366004613462565b610f2b565b34801561042757600080fd5b5061039b61108f565b34801561043c57600080fd5b5061039b61044b3660046137b3565b6110a1565b34801561045c57600080fd5b5061039b61046b3660046133ed565b6110cb565b34801561047c57600080fd5b5061039b61048b3660046137b3565b6110df565b34801561049c57600080fd5b5061039b6104ab366004613462565b61116d565b3480156104bc57600080fd5b5060c9546104d0906001600160a01b031681565b6040516001600160a01b039091168152602001610330565b3480156104f457600080fd5b5061039b6112b6565b34801561050957600080fd5b5061039b61051836600461379b565b6112c6565b34801561052957600080fd5b5061039b610538366004613409565b6112f6565b34801561054957600080fd5b5061039b6105583660046133ed565b61141d565b34801561056957600080fd5b506103246105783660046133ed565b7f893ef2ea16c023f61d4f55d3e6ee3fc3f2fbfd478461323dbc2fbf919047086e546001600160a01b0390811691161490565b3480156105b757600080fd5b5061039b6105c63660046135ee565b611447565b3480156105d757600080fd5b5060cc546104d0906001600160a01b031681565b3480156105f757600080fd5b50610324611597565b34801561060c57600080fd5b5061039b61061b366004613676565b6115ad565b61039b61062e3660046133ed565b611603565b34801561063f57600080fd5b5061039b61064e366004613513565b6116c6565b34801561065f57600080fd5b5061039b611861565b34801561067457600080fd5b5061039b610683366004613676565b611873565b61039b6106963660046133ed565b6118c9565b3480156106a757600080fd5b5061039b611946565b3480156106bc57600080fd5b506033546001600160a01b03166104d0565b3480156106da57600080fd5b5061039b6106e9366004613409565b611956565b3480156106fa57600080fd5b5061039b611a40565b34801561070f57600080fd5b5061032461071e3660046137b3565b611a50565b34801561072f57600080fd5b5061039b61073e3660046133ed565b611a7b565b34801561074f57600080fd5b5061039b611a8c565b34801561076457600080fd5b5061039b61077336600461387a565b611aa6565b34801561078457600080fd5b506103cd600081565b34801561079957600080fd5b506107cd604051806040016040528060148152602001732aa7299d1026b4b73a34b7339026b0b730b3b2b960611b81525081565b6040516103309190613e2e565b3480156107e657600080fd5b5060cb546104d0906001600160a01b031681565b34801561080657600080fd5b506103246108153660046133ed565b611b85565b34801561082657600080fd5b5061039b610835366004613409565b611b9f565b34801561084657600080fd5b5061039b61085536600461373c565b611ce2565b34801561086657600080fd5b5061032461087536600461379b565b611d3b565b34801561088657600080fd5b5061039b6108953660046133ed565b611da8565b3480156108a657600080fd5b5061039b6108b536600461387a565b611ded565b3480156108c657600080fd5b5060ca546104d0906001600160a01b031681565b3480156108e657600080fd5b5061039b6108f5366004613462565b611e34565b34801561090657600080fd5b506103cd6000805160206140e583398151915281565b34801561092857600080fd5b5061039b6109373660046137b3565b611f27565b34801561094857600080fd5b5061039b61095736600461373c565b611f4c565b34801561096857600080fd5b5061039b61097736600461379b565b611f7d565b34801561098857600080fd5b5061039b6109973660046133ed565b611fef565b3480156109a857600080fd5b506107cd604051806040016040528060058152602001640c0b8ccb8d60da1b81525081565b60006001600160e01b03198216637965db0b60e01b14806109fe57506301ffc9a760e01b6001600160e01b03198316145b92915050565b6060816001600160401b03811115610a2c57634e487b7160e01b600052604160045260246000fd5b604051908082528060200260200182016040528015610a55578160200160208202803683370190505b50905060005b82811015610ad457610a92848483818110610a8657634e487b7160e01b600052603260045260246000fd5b90506020020135611d3b565b828281518110610ab257634e487b7160e01b600052603260045260246000fd5b9115156020928302919091019091015280610acc81614028565b915050610a5b565b5092915050565b60006000805160206140a58339815191525b5460ff16919050565b600054610100900460ff1615808015610b165750600054600160ff909116105b80610b305750303b158015610b30575060005460ff166001145b610b985760405162461bcd60e51b815260206004820152602e60248201527f496e697469616c697a61626c653a20636f6e747261637420697320616c72656160448201526d191e481a5b9a5d1a585b1a5e995960921b60648201526084015b60405180910390fd5b6000805460ff191660011790558015610bbb576000805461ff0019166101001790555b60c980546001600160a01b038089166001600160a01b03199283161790925560ca805488841690831617905560cb805487841690831617905560cc805492861692909116919091179055610c0d61200b565b610c15612042565b610c1e8261207b565b610c266120a2565b610c2e6120ec565b604080516101a081018252600661016082018181526563727970746f60d01b610180840152825282518084018452908152651dd85b1b195d60d21b602082810191909152808301919091528251808401845260018152600f60fb1b8183015282840152825180840184526003808252621b999d60ea1b82840152606084019190915283518085018552600a815269313637b1b5b1b430b4b760b11b818401526080840152835180850185526007808252663134ba31b7b4b760c91b8285015260a0850191909152845180860186528281526207070760eb1b8185015260c0850152845180860186528281526264616f60e81b8185015260e085015284518086018652918252621e9a5b60ea1b8284015261010084019190915283518085018552908152663837b63cb3b7b760c91b818301526101208301528251808401909352600b83526a756e73746f707061626c6560a81b9083015261014081019190915260005b600b811015610dd957610dc78282600b8110610dbd57634e487b7160e01b600052603260045260246000fd5b6020020151612129565b80610dd181614028565b915050610d91565b50508015610e21576000805461ff0019169055604051600181527f7f26b83ff96e1f2b6a682f133852f6798a09c465da95921460cefb38474024989060200160405180910390a15b505050505050565b8282828080601f016020809104026020016040519081016040528093929190818152602001838380828437600092019190915250610e6c92508491506122499050565b610e885760405162461bcd60e51b8152600401610b8f90613ee6565b6000610e938261226f565b9050600a81600001511115610eeb57610ebe610eb2826000600a61229c565b80516020909101512090565b6000805160206140c58339815191521415610eeb5760405162461bcd60e51b8152600401610b8f90613e41565b610ef3611597565b15610f105760405162461bcd60e51b8152600401610b8f90613ebc565b610e21610f1b6122db565b87610f2688886122ea565b612316565b610f366108156122db565b610f525760405162461bcd60e51b8152600401610b8f90613e87565b8686868080601f016020809104026020016040519081016040528093929190818152602001838380828437600092019190915250610f9592508491506122499050565b610fb15760405162461bcd60e51b8152600401610b8f90613ee6565b6000610fbc8261226f565b9050600a8160000151111561100857610fdb610eb2826000600a61229c565b6000805160206140c583398151915214156110085760405162461bcd60e51b8152600401610b8f90613e41565b611010611597565b1561102d5760405162461bcd60e51b8152600401610b8f90613ebc565b6110828b8b8b8b8080601f016020809104026020016040519081016040528093929190818152602001838380828437600092018290525060408051602081019091529081528e93508d92508c91508b9061241d565b5050505050505050505050565b611097612598565b61109f612611565b565b6000828152609760205260409020600101546110bc816126bc565b6110c683836126cd565b505050565b6110d3612598565b6110dc81612754565b50565b6110e76122db565b6001600160a01b0316816001600160a01b03161461115f5760405162461bcd60e51b815260206004820152602f60248201527f416363657373436f6e74726f6c3a2063616e206f6e6c792072656e6f756e636560448201526e103937b632b9903337b91039b2b63360891b6064820152608401610b8f565b611169828261276c565b5050565b6111786108156122db565b6111945760405162461bcd60e51b8152600401610b8f90613e87565b8686868080601f0160208091040260200160405190810160405280939291908181526020018383808284376000920191909152506111d792508491506122499050565b6111f35760405162461bcd60e51b8152600401610b8f90613ee6565b60006111fe8261226f565b9050600a8160000151111561124a5761121d610eb2826000600a61229c565b6000805160206140c5833981519152141561124a5760405162461bcd60e51b8152600401610b8f90613e41565b611252611597565b1561126f5760405162461bcd60e51b8152600401610b8f90613ebc565b6110828b8b8b8b8080601f0160208091040260200160405190810160405280939291908181526020018383808284376000920191909152508d92508c91508b90508a6127f1565b6112be612598565b61109f612976565b6112d16108156122db565b6112ed5760405162461bcd60e51b8152600401610b8f90613e87565b6110dc81612a01565b6113016108156122db565b61131d5760405162461bcd60e51b8152600401610b8f90613e87565b8282828080601f01602080910402602001604051908101604052809392919081815260200183838082843760009201919091525061136092508491506122499050565b61137c5760405162461bcd60e51b8152600401610b8f90613ee6565b60006113878261226f565b9050600a816000015111156113d3576113a6610eb2826000600a61229c565b6000805160206140c583398151915214156113d35760405162461bcd60e51b8152600401610b8f90613e41565b6113db611597565b156113f85760405162461bcd60e51b8152600401610b8f90613ebc565b6114148787878760405180602001604052806000815250612ad0565b50505050505050565b611425612598565b60cc80546001600160a01b0319166001600160a01b0392909216919091179055565b6114526108156122db565b61146e5760405162461bcd60e51b8152600401610b8f90613e87565b8484848080601f0160208091040260200160405190810160405280939291908181526020018383808284376000920191909152506114b192508491506122499050565b6114cd5760405162461bcd60e51b8152600401610b8f90613ee6565b60006114d88261226f565b9050600a81600001511115611524576114f7610eb2826000600a61229c565b6000805160206140c583398151915214156115245760405162461bcd60e51b8152600401610b8f90613e41565b61152c611597565b156115495760405162461bcd60e51b8152600401610b8f90613ebc565b61158c8989898989898080601f016020809104026020016040519081016040528093929190818152602001838380828437600092019190915250612ad092505050565b505050505050505050565b6000600080516020614085833981519152610aed565b6115b5612598565b60005b8151811015611169576115f18282815181106115e457634e487b7160e01b600052603260045260246000fd5b6020026020010151612754565b806115fb81614028565b9150506115b8565b61160e6108156122db565b61162a5760405162461bcd60e51b8152600401610b8f90613e87565b6001600160a01b0381166116805760405162461bcd60e51b815260206004820152601d60248201527f4d696e746572526f6c653a2052454345495645525f49535f454d5054590000006044820152606401610b8f565b61168981612c50565b611691611a8c565b6040516001600160a01b038216903480156108fc02916000818181858888f19350505050158015611169573d6000803e3d6000fd5b6116d16108156122db565b6116ed5760405162461bcd60e51b8152600401610b8f90613e87565b8888888080601f01602080910402602001604051908101604052809392919081815260200183838082843760009201919091525061173092508491506122499050565b61174c5760405162461bcd60e51b8152600401610b8f90613ee6565b60006117578261226f565b9050600a816000015111156117a357611776610eb2826000600a61229c565b6000805160206140c583398151915214156117a35760405162461bcd60e51b8152600401610b8f90613e41565b6117ab611597565b156117c85760405162461bcd60e51b8152600401610b8f90613ebc565b6118528d8d8d8d8080601f016020809104026020016040519081016040528093929190818152602001838380828437600081840152601f19601f820116905080830192505050505050508c8c8c8c8c8c8080601f01602080910402602001604051908101604052809392919081815260200183838082843760009201919091525061241d92505050565b50505050505050505050505050565b611869612598565b61109f6000612c68565b61187b612598565b60005b8151811015611169576118b78282815181106118aa57634e487b7160e01b600052603260045260246000fd5b6020026020010151612c50565b806118c181614028565b91505061187e565b6118d46108156122db565b6118f05760405162461bcd60e51b8152600401610b8f90613e87565b6001600160a01b0381166116895760405162461bcd60e51b815260206004820152601d60248201527f4d696e746572526f6c653a2052454345495645525f49535f454d5054590000006044820152606401610b8f565b61194e612598565b61109f612cba565b8282828080601f01602080910402602001604051908101604052809392919081815260200183838082843760009201919091525061199992508491506122499050565b6119b55760405162461bcd60e51b8152600401610b8f90613ee6565b60006119c08261226f565b9050600a81600001511115611a0c576119df610eb2826000600a61229c565b6000805160206140c58339815191521415611a0c5760405162461bcd60e51b8152600401610b8f90613e41565b611a14611597565b15611a315760405162461bcd60e51b8152600401610b8f90613ebc565b6114148787610f2688886122ea565b611a48612598565b61109f612d22565b60009182526097602090815260408084206001600160a01b0393909316845291905290205460ff1690565b611a83612598565b6110dc81612c50565b61109f6000805160206140e583398151915261048b6122db565b611aae612598565b60c954604051632678375f60e21b81526001600160a01b03909116906399e0dd7c90611ae09085908590600401613e12565b600060405180830381600087803b158015611afa57600080fd5b505af1158015611b0e573d6000803e3d6000fd5b505060cb546001600160a01b031615915061116990505760cb54604051632678375f60e21b81526001600160a01b03909116906399e0dd7c90611b579085908590600401613e12565b600060405180830381600087803b158015611b7157600080fd5b505af1158015610e21573d6000803e3d6000fd5b60006109fe6000805160206140e583398151915283611a50565b611baa6108156122db565b611bc65760405162461bcd60e51b8152600401610b8f90613e87565b8282828080601f016020809104026020016040519081016040528093929190818152602001838380828437600092019190915250611c0992508491506122499050565b611c255760405162461bcd60e51b8152600401610b8f90613ee6565b6000611c308261226f565b9050600a81600001511115611c7c57611c4f610eb2826000600a61229c565b6000805160206140c58339815191521415611c7c5760405162461bcd60e51b8152600401610b8f90613e41565b611c84611597565b15611ca15760405162461bcd60e51b8152600401610b8f90613ebc565b611414878787878080601f01602080910402602001604051908101604052809392919081815260200183838082843760009201919091525061231692505050565b611ced6108156122db565b611d095760405162461bcd60e51b8152600401610b8f90613e87565b60c954604051635718c22560e11b81526001600160a01b039091169063ae31844a90611b579085908590600401613dd8565b6000611d45610adb565b1580156109fe5750604080517f1ec047073e2c8b15660901dbfdb6e3ff6365bd699dd9f95dcc6eab5448bebd696020820152908101839052611d9e906060015b6040516020818303038152906040528051906020012090565b5460ff1692915050565b611db0612598565b7f893ef2ea16c023f61d4f55d3e6ee3fc3f2fbfd478461323dbc2fbf919047086e80546001600160a01b0319166001600160a01b03831617905550565b611df5612598565b61116982828080601f01602080910402602001604051908101604052809392919081815260200183838082843760009201919091525061212992505050565b8686868080601f016020809104026020016040519081016040528093929190818152602001838380828437600092019190915250611e7792508491506122499050565b611e935760405162461bcd60e51b8152600401610b8f90613ee6565b6000611e9e8261226f565b9050600a81600001511115611eea57611ebd610eb2826000600a61229c565b6000805160206140c58339815191521415611eea5760405162461bcd60e51b8152600401610b8f90613e41565b611ef2611597565b15611f0f5760405162461bcd60e51b8152600401610b8f90613ebc565b6110828b8b611f1e8c8c6122ea565b8a8a8a8a6127f1565b600082815260976020526040902060010154611f42816126bc565b6110c6838361276c565b611f576108156122db565b611f735760405162461bcd60e51b8152600401610b8f90613e87565b6111698282612dab565b611f85612598565b611f8e81612249565b611faa5760405162461bcd60e51b8152600401610b8f90613ee6565b600081815260cd60205260408120611fc191613282565b60405181907f0aa1aff0f830e739d86baf0e6624d6763da02f7733575e0e463886cd062dea6a90600090a250565b611ff7612598565b61200081612df7565b6110dc600082612e6d565b600054610100900460ff166120325760405162461bcd60e51b8152600401610b8f90613f28565b61109f61203d6122db565b612c68565b600054610100900460ff166120695760405162461bcd60e51b8152600401610b8f90613f28565b61109f60006120766122db565b612e6d565b600054610100900460ff16611db05760405162461bcd60e51b8152600401610b8f90613f28565b600054610100900460ff166120c95760405162461bcd60e51b8152600401610b8f90613f28565b60006000805160206140a58339815191525b805460ff1916911515919091179055565b600054610100900460ff166121135760405162461bcd60e51b8152600401610b8f90613f28565b60006000805160206140858339815191526120db565b6000612136600083612e77565b600081815260cd60209081526040909120845192935061215a9290918501906132bc565b50807f4fce6f6e172b04eaa80325d8e3b0180a34945000f3e214605039e8420fdf89808360405161218b9190613e2e565b60405180910390a260c954604051634f558e7960e01b8152600481018390526001600160a01b0390911690634f558e799060240160206040518083038186803b1580156121d757600080fd5b505afa1580156121eb573d6000803e3d6000fd5b505050506040513d601f19601f8201168201806040525081019061220f919061377b565b6111695760c9546040516334ff261960e21b81526001600160a01b039091169063d3fc986490611b579061dead9085908790600401613c15565b600081815260cd60205260408120805482919061226590613fed565b9050119050919050565b60408051808201825260008082526020918201528151808301909252825182529182019181019190915290565b604080518082019091526000808252602082015260405180604001604052808381526020018486602001516122d19190613f73565b9052949350505050565b60006122e5612f2c565b905090565b606082826040516020016122ff929190613ab1565b604051602081830303815290604052905092915050565b60006123228383612e77565b905061232d81612f73565b61233683612fd5565b156123a95760ca5460cc5460405163c36c212560e01b81526001600160a01b039283169263c36c21259261237292899288921690600401613b98565b600060405180830381600087803b15801561238c57600080fd5b505af11580156123a0573d6000803e3d6000fd5b50505050612417565b60c9546001600160a01b031663d3fc986485836123c68787613013565b6040518463ffffffff1660e01b81526004016123e493929190613c15565b600060405180830381600087803b1580156123fe57600080fd5b505af1158015612412573d6000803e3d6000fd5b505050505b50505050565b60006124298888612e77565b905061243481612f73565b61243d88612fd5565b156125255760ca5460cc54604051630f95e75b60e31b81526001600160a01b0392831692637caf3ad89261247b928e928d9216908890600401613bcd565b600060405180830381600087803b15801561249557600080fd5b505af11580156124a9573d6000803e3d6000fd5b50508615915061252090505760cc54604051633a0deb9d60e21b81526001600160a01b039091169063e837ae74906124ed9089908990899089908890600401613d9e565b600060405180830381600087803b15801561250757600080fd5b505af115801561251b573d6000803e3d6000fd5b505050505b61158c565b60c9546001600160a01b031663efda4d3e8a836125428c8c613013565b8a8a8a8a8a6040518963ffffffff1660e01b815260040161256a989796959493929190613ca2565b600060405180830381600087803b15801561258457600080fd5b505af1158015611852573d6000803e3d6000fd5b6125a06122db565b6001600160a01b03166125bb6033546001600160a01b031690565b6001600160a01b03161461109f5760405162461bcd60e51b815260206004820181905260248201527f4f776e61626c653a2063616c6c6572206973206e6f7420746865206f776e65726044820152606401610b8f565b612619610adb565b1561265c5760405162461bcd60e51b8152602060048201526013602482015272109b1bd8dadb1a5cdd0e88111254d050931151606a1b6044820152606401610b8f565b6000805160206140a5833981519152805460ff191660011790557f079c4efaefd9fc7ddb28144b9b0140c03f42922d28d0e226369d60709215816661269f6122db565b6040516001600160a01b03909116815260200160405180910390a1565b6110dc816126c86122db565b613036565b6126d78282611a50565b6111695760008281526097602090815260408083206001600160a01b03851684529091529020805460ff191660011790556127106122db565b6001600160a01b0316816001600160a01b0316837f2f8788117e7eff1d82e926ec794901d17c78024a50270940304540a733656f0d60405160405180910390a45050565b6110dc6000805160206140e583398151915282611f27565b6127768282611a50565b156111695760008281526097602090815260408083206001600160a01b03851684529091529020805460ff191690556127ad6122db565b6001600160a01b0316816001600160a01b0316837ff6391f5c32d9c69d2a47ea670b442974b53935d1edc7fd64eb21e047a839171b60405160405180910390a45050565b60006127fd8787612e77565b905061280881612f73565b61281187612fd5565b156128f75760ca5460cc5460405163c36c212560e01b81526001600160a01b039283169263c36c21259261284d928d928c921690600401613b98565b600060405180830381600087803b15801561286757600080fd5b505af115801561287b573d6000803e3d6000fd5b5050851591506128f290505760cc54604051633a0deb9d60e21b81526001600160a01b039091169063e837ae74906128bf9088908890889088908890600401613d9e565b600060405180830381600087803b1580156128d957600080fd5b505af11580156128ed573d6000803e3d6000fd5b505050505b612412565b60c9546001600160a01b031663b0f5917789836129148b8b613013565b898989896040518863ffffffff1660e01b815260040161293a9796959493929190613c45565b600060405180830381600087803b15801561295457600080fd5b505af1158015612968573d6000803e3d6000fd5b505050505050505050505050565b61297e611597565b6129c15760405162461bcd60e51b815260206004820152601460248201527314185d5cd8589b194e881393d517d4105554d15160621b6044820152606401610b8f565b600080516020614085833981519152805460ff191690557f5db9ee0a495bf2e6ff9c91a7834c1ba4fdd244a5e8aa4e537bd38aeae4b073aa61269f6122db565b612a09610adb565b15612a4c5760405162461bcd60e51b8152602060048201526013602482015272109b1bd8dadb1a5cdd0e88111254d050931151606a1b6044820152606401610b8f565b604080517f1ec047073e2c8b15660901dbfdb6e3ff6365bd699dd9f95dcc6eab5448bebd696020820152908101829052600190612a8b90606001611d85565b805460ff19169115159190911790556040518181527f2ce5d9351b1d590d5a066db0d2dc7602d55f092506a83a7ee8c4d78ee357d75a9060200160405180910390a150565b6000612b128585858080601f016020809104026020016040519081016040528093929190818152602001838380828437600092019190915250612e7792505050565b9050612b1d81612f73565b612b2685612fd5565b15612b9e5760ca5460cc54604051630f95e75b60e31b81526001600160a01b0392831692637caf3ad892612b67928b928a928a929116908990600401613b4e565b600060405180830381600087803b158015612b8157600080fd5b505af1158015612b95573d6000803e3d6000fd5b50505050610e21565b60c954604080516020601f87018190048102820181019092528581526001600160a01b039092169163b55bc6179189918591612bf6918b918b908b908190840183828082843760009201919091525061301392505050565b866040518563ffffffff1660e01b8152600401612c169493929190613d14565b600060405180830381600087803b158015612c3057600080fd5b505af1158015612c44573d6000803e3d6000fd5b50505050505050505050565b6110dc6000805160206140e583398151915282612e6d565b603380546001600160a01b038381166001600160a01b0319831681179093556040519116919082907f8be0079c531659141344cd1fd0a4f28419497f9722a3daafe3b4186f6b6457e090600090a35050565b612cc2611597565b15612cdf5760405162461bcd60e51b8152600401610b8f90613ebc565b600080516020614085833981519152805460ff191660011790557f62e78cea01bee320cd4e420270b5ea74000d11b0c9f74754ebdbfc544b05a25861269f6122db565b612d2a610adb565b612d6b5760405162461bcd60e51b8152602060048201526012602482015271109b1bd8dadb1a5cdd0e881153905093115160721b6044820152606401610b8f565b6000805160206140a5833981519152805460ff191690557f316c4cec74b9568f102eda30781a2fe8cd5172329bf1401e804cb8c5131715c461269f6122db565b60005b818110156110c657612de5838383818110612dd957634e487b7160e01b600052603260045260246000fd5b90506020020135612a01565b80612def81614028565b915050612dae565b612dff612598565b6001600160a01b038116612e645760405162461bcd60e51b815260206004820152602660248201527f4f776e61626c653a206e6577206f776e657220697320746865207a65726f206160448201526564647265737360d01b6064820152608401610b8f565b6110dc81612c68565b61116982826126cd565b6000815160001415612ecb5760405162461bcd60e51b815260206004820152601b60248201527f4d696e74696e674d616e616765723a204c4142454c5f454d50545900000000006044820152606401610b8f565b8282604051602001612edd91906139d7565b60405160208183030381529060405280519060200120604051602001612f0d929190918252602082015260400190565b60408051601f1981840301815291905280516020909101209392505050565b7f893ef2ea16c023f61d4f55d3e6ee3fc3f2fbfd478461323dbc2fbf919047086e546000906001600160a01b0316331415612f6e575060331936013560601c90565b503390565b612f7b610adb565b6110dc57612f8881611d3b565b156112ed5760405162461bcd60e51b815260206004820152601d60248201527f4d696e74696e674d616e616765723a20544f4b454e5f424c4f434b45440000006044820152606401610b8f565b60ca546000906001600160a01b0316158015906109fe5750507f0f4a10a4f46c288cea365fcf45cccf0e9d901b945b9829ccdb54c10dc3cb7a6f1490565b600082815260cd602090815260409182902091516060926122ff928592016139f3565b6130408282611a50565b61116957613058816001600160a01b0316601461309a565b61306383602061309a565b604051602001613074929190613ad9565b60408051601f198184030181529082905262461bcd60e51b8252610b8f91600401613e2e565b606060006130a9836002613f8b565b6130b4906002613f73565b6001600160401b038111156130d957634e487b7160e01b600052604160045260246000fd5b6040519080825280601f01601f191660200182016040528015613103576020820181803683370190505b509050600360fc1b8160008151811061312c57634e487b7160e01b600052603260045260246000fd5b60200101906001600160f81b031916908160001a905350600f60fb1b8160018151811061316957634e487b7160e01b600052603260045260246000fd5b60200101906001600160f81b031916908160001a905350600061318d846002613f8b565b613198906001613f73565b90505b600181111561322c576f181899199a1a9b1b9c1cb0b131b232b360811b85600f16601081106131da57634e487b7160e01b600052603260045260246000fd5b1a60f81b8282815181106131fe57634e487b7160e01b600052603260045260246000fd5b60200101906001600160f81b031916908160001a90535060049490941c9361322581613fd6565b905061319b565b50831561327b5760405162461bcd60e51b815260206004820181905260248201527f537472696e67733a20686578206c656e67746820696e73756666696369656e746044820152606401610b8f565b9392505050565b50805461328e90613fed565b6000825580601f1061329e575050565b601f0160209004906000526020600020908101906110dc9190613340565b8280546132c890613fed565b90600052602060002090601f0160209004810192826132ea5760008555613330565b82601f1061330357805160ff1916838001178555613330565b82800160010185558215613330579182015b82811115613330578251825591602001919060010190613315565b5061333c929150613340565b5090565b5b8082111561333c5760008155600101613341565b80356133608161406f565b919050565b60008083601f840112613376578182fd5b5081356001600160401b0381111561338c578182fd5b6020830191508360208260051b85010111156133a757600080fd5b9250929050565b60008083601f8401126133bf578182fd5b5081356001600160401b038111156133d5578182fd5b6020830191508360208285010111156133a757600080fd5b6000602082840312156133fe578081fd5b813561327b8161406f565b6000806000806060858703121561341e578283fd5b84356134298161406f565b93506020850135925060408501356001600160401b0381111561344a578283fd5b613456878288016133ae565b95989497509550505050565b60008060008060008060008060a0898b03121561347d578384fd5b88356134888161406f565b97506020890135965060408901356001600160401b03808211156134aa578586fd5b6134b68c838d016133ae565b909850965060608b01359150808211156134ce578586fd5b6134da8c838d01613365565b909650945060808b01359150808211156134f2578384fd5b506134ff8b828c01613365565b999c989b5096995094979396929594505050565b60008060008060008060008060008060c08b8d031215613531578182fd5b61353a8b613355565b995060208b0135985060408b01356001600160401b038082111561355c578384fd5b6135688e838f016133ae565b909a50985060608d0135915080821115613580578384fd5b61358c8e838f01613365565b909850965060808d01359150808211156135a4578384fd5b6135b08e838f01613365565b909650945060a08d01359150808211156135c8578384fd5b506135d58d828e016133ae565b915080935050809150509295989b9194979a5092959850565b60008060008060008060808789031215613606578182fd5b86356136118161406f565b95506020870135945060408701356001600160401b0380821115613633578384fd5b61363f8a838b016133ae565b90965094506060890135915080821115613657578384fd5b5061366489828a016133ae565b979a9699509497509295939492505050565b60006020808385031215613688578182fd5b82356001600160401b038082111561369e578384fd5b818501915085601f8301126136b1578384fd5b8135818111156136c3576136c3614059565b8060051b604051601f19603f830116810181811085821117156136e8576136e8614059565b604052828152858101935084860182860187018a1015613706578788fd5b8795505b8386101561372f5761371b81613355565b85526001959095019493860193860161370a565b5098975050505050505050565b6000806020838503121561374e578182fd5b82356001600160401b03811115613763578283fd5b61376f85828601613365565b90969095509350505050565b60006020828403121561378c578081fd5b8151801515811461327b578182fd5b6000602082840312156137ac578081fd5b5035919050565b600080604083850312156137c5578182fd5b8235915060208301356137d78161406f565b809150509250929050565b6000602082840312156137f3578081fd5b81356001600160e01b03198116811461327b578182fd5b600080600080600060a08688031215613821578283fd5b853561382c8161406f565b9450602086013561383c8161406f565b9350604086013561384c8161406f565b9250606086013561385c8161406f565b9150608086013561386c8161406f565b809150509295509295909350565b6000806020838503121561388c578182fd5b82356001600160401b038111156138a1578283fd5b61376f858286016133ae565b6000806000604084860312156138c1578081fd5b8335925060208401356001600160401b038111156138dd578182fd5b6138e9868287016133ae565b9497909650939450505050565b81835260006020808501808196508560051b8101915084845b878110156139755782840389528135601e1988360301811261392f578687fd5b870180356001600160401b03811115613946578788fd5b803603891315613954578788fd5b61396186828985016139ae565b9a87019a955050509084019060010161390f565b5091979650505050505050565b6000815180845261399a816020860160208601613faa565b601f01601f19169290920160200192915050565b81835281816020850137506000828201602090810191909152601f909101601f19169091010190565b600082516139e9818460208701613faa565b9190910192915050565b600083516020613a068285838901613faa565b601760f91b9184019182528454600190849080831c81841680613a2a57607f821691505b858210811415613a4857634e487b7160e01b88526022600452602488fd5b808015613a5c5760018114613a7157613aa1565b60ff1984168887015282880186019450613aa1565b60008b815260209020895b84811015613a975781548a8201890152908701908801613a7c565b5050858389010194505b50929a9950505050505050505050565b6b756e732d646576746573742d60a01b81528183600c83013760009101600c01908152919050565b7f416363657373436f6e74726f6c3a206163636f756e7420000000000000000000815260008351613b11816017850160208801613faa565b7001034b99036b4b9b9b4b733903937b6329607d1b6017918401918201528351613b42816028840160208801613faa565b01602801949350505050565b600060018060a01b03808816835260806020840152613b716080840187896139ae565b81861660408501528381036060850152613b8b8186613982565b9998505050505050505050565b600060018060a01b03808616835260606020840152613bba6060840186613982565b9150808416604084015250949350505050565b600060018060a01b03808716835260806020840152613bef6080840187613982565b81861660408501528381036060850152613c098186613982565b98975050505050505050565b60018060a01b0384168152826020820152606060408201526000613c3c6060830184613982565b95945050505050565b60018060a01b038816815286602082015260a060408201526000613c6c60a0830188613982565b8281036060840152613c7f8187896138f6565b90508281036080840152613c948185876138f6565b9a9950505050505050505050565b60018060a01b038916815287602082015260c060408201526000613cc960c0830189613982565b8281036060840152613cdc81888a6138f6565b90508281036080840152613cf18186886138f6565b905082810360a0840152613d058185613982565b9b9a5050505050505050505050565b60018060a01b0385168152836020820152608060408201526000613d3b6080830185613982565b8281036060840152613d4d8185613982565b979650505050505050565b6020808252825182820181905260009190848201906040850190845b81811015613d92578351151583529284019291840191600101613d74565b50909695505050505050565b606081526000613db26060830187896138f6565b8281036020840152613dc58186886138f6565b9150508260408301529695505050505050565b6020808252810182905260006001600160fb1b03831115613df7578081fd5b8260051b808560408501379190910160400190815292915050565b602081526000613e266020830184866139ae565b949350505050565b60208152600061327b6020830184613982565b60208082526026908201527f4d696e74696e674d616e616765723a20544f4b454e5f4c4142454c5f50524f4860408201526512509255115160d21b606082015260800190565b6020808252818101527f4d696e746572526f6c653a2043414c4c45525f49535f4e4f545f4d494e544552604082015260600190565b60208082526010908201526f14185d5cd8589b194e8814105554d15160821b604082015260600190565b60208082526022908201527f4d696e74696e674d616e616765723a20544c445f4e4f545f5245474953544552604082015261115160f21b606082015260800190565b6020808252602b908201527f496e697469616c697a61626c653a20636f6e7472616374206973206e6f74206960408201526a6e697469616c697a696e6760a81b606082015260800190565b60008219821115613f8657613f86614043565b500190565b6000816000190483118215151615613fa557613fa5614043565b500290565b60005b83811015613fc5578181015183820152602001613fad565b838111156124175750506000910152565b600081613fe557613fe5614043565b506000190190565b600181811c9082168061400157607f821691505b6020821081141561402257634e487b7160e01b600052602260045260246000fd5b50919050565b600060001982141561403c5761403c614043565b5060010190565b634e487b7160e01b600052601160045260246000fd5b634e487b7160e01b600052604160045260246000fd5b6001600160a01b03811681146110dc57600080fdfe5496787fc1ebdfeba375028c1865f13fbb1d63c0caa356ccc1b29a80f3ebd622a85b8425a460dd344a297bd4a82e287385f0fc558cb3e78867b0489f43df2470b551e0305c8163b812374b8e78b577c77f226f6f10c5ad03e52699578fbc34b89f2df0fed2c77648de5860a4cc508cd0818c85b8b8a1ab4ceeef8d981c8956a6a164736f6c6343000804000a",
  "linkReferences": {},
  "deployedLinkReferences": {}
}