{
  "_format": "hh-sol-artifact-1",
  "contractName": "MintingManagerForwarder",
  "sourceName": "contracts/metatx/MintingManagerForwarder.sol",
  "abi": [
    {
      "inputs": [
        {
          "components": [
            {
              "internalType": "address",
              "name": "from",
              "type": "address"
            },
            {
              "internalType": "uint256",
              "name": "nonce",
              "type": "uint256"
            },
            {
              "internalType": "uint256",
              "name": "tokenId",
              "type": "uint256"
            },
            {
              "internalType": "bytes",
              "name": "data",
              "type": "bytes"
            }
          ],
          "internalType": "struct IForwarder.ForwardRequest",
          "name": "req",
          "type": "tuple"
        },
        {
          "internalType": "bytes",
          "name": "signature",
          "type": "bytes"
        }
      ],
      "name": "execute",
      "outputs": [
        {
          "internalType": "bytes",
          "name": "",
          "type": "bytes"
        }
      ],
      "stateMutability": "nonpayable",
      "type": "function"
    },
    {
      "inputs": [
        {
          "internalType": "address",
          "name": "mintingManager",
          "type": "address"
        }
      ],
      "name": "initialize",
      "outputs": [],
      "stateMutability": "nonpayable",
      "type": "function"
    },
    {
      "inputs": [
        {
          "internalType": "uint256",
          "name": "",
          "type": "uint256"
        }
      ],
      "name": "nonceOf",
      "outputs": [
        {
          "internalType": "uint256",
          "name": "",
          "type": "uint256"
        }
      ],
      "stateMutability": "pure",
      "type": "function"
    },
    {
      "inputs": [
        {
          "components": [
            {
              "internalType": "address",
              "name": "from",
              "type": "address"
            },
            {
              "internalType": "uint256",
              "name": "nonce",
              "type": "uint256"
            },
            {
              "internalType": "uint256",
              "name": "tokenId",
              "type": "uint256"
            },
            {
              "internalType": "bytes",
              "name": "data",
              "type": "bytes"
            }
          ],
          "internalType": "struct IForwarder.ForwardRequest",
          "name": "req",
          "type": "tuple"
        },
        {
          "internalType": "bytes",
          "name": "signature",
          "type": "bytes"
        }
      ],
      "name": "verify",
      "outputs": [
        {
          "internalType": "bool",
          "name": "",
          "type": "bool"
        }
      ],
      "stateMutability": "view",
      "type": "function"
    }
  ],
  "bytecode": "0x608060405234801561001057600080fd5b50610bb5806100206000396000f3fe608060405234801561001057600080fd5b506004361061004c5760003560e01c80631bf7e13e146100515780636ccbae5f1461007a578063a42474001461009a578063c4d66de8146100ba575b600080fd5b61006461005f3660046106bf565b6100cf565b6040516100719190610890565b60405180910390f35b61008d610088366004610757565b610184565b60405161007191906109e3565b6100ad6100a83660046106bf565b61018c565b6040516100719190610867565b6100cd6100c83660046106a5565b6101f4565b005b606060005a90506101796100e660208701876106a5565b6000546201000090046001600160a01b031660408801358461010b60608b018b6109ec565b8080601f01602080910402602001604051908101604052809392919081815260200183838082843760009201919091525050604080516020601f8e018190048102820181019092528c815292508c91508b908190840183828082843760009201919091525061029592505050565b9150505b9392505050565b60005b919050565b60006101ec61019a85610a58565b600060029054906101000a90046001600160a01b031685858080601f01602080910402602001604051908101604052809392919081815260200183838082843760009201919091525061038492505050565b949350505050565b600054610100900460ff168061020d575060005460ff16155b6102325760405162461bcd60e51b815260040161022990610953565b60405180910390fd5b600054610100900460ff1615801561025d576000805460ff1961ff0019909116610100171660011790555b6000805462010000600160b01b031916620100006001600160a01b038516021790558015610291576000805461ff00191690555b5050565b60606102a085610446565b600080876001600160a01b0316866102ba8b8a8989610449565b6040516102c791906107db565b60006040518083038160008787f1925050503d8060008114610305576040519150601f19603f3d011682016040523d82523d6000602084013e61030a565b606091505b50909250905061031b603f87610a38565b5a1161033757634e487b7160e01b600052600160045260246000fd5b61037782826040518060400160405280601a81526020017f42617365466f727761726465723a2043414c4c5f4641494c4544000000000000815250610479565b9998505050505050505050565b6040808401519051636ccbae5f60e01b815260009182913091636ccbae5f916103b091906004016109e3565b60206040518083038186803b1580156103c857600080fd5b505afa1580156103dc573d6000803e3d6000fd5b505050506040513d601f19601f82011682018060405250810190610400919061076f565b9050600061041b8660600151805190602001208684876104b2565b905085602001518214801561043c575085516001600160a01b038281169116145b9695505050505050565b50565b6060828585604051602001610460939291906107f7565b6040516020818303038152906040529050949350505050565b6060831561048857508161017d565b8251156104985782518084602001fd5b8160405162461bcd60e51b81526004016102299190610890565b60006104f1826104eb8787876040516020016104d0939291906107b3565b604051602081830303815290604052805190602001206104fa565b9061052a565b95945050505050565b60008160405160200161050d9190610836565b604051602081830303815290604052805190602001209050919050565b6000806000808451604114156105545750505060208201516040830151606084015160001a61059a565b8451604014156105825750505060408201516020830151906001600160ff1b0381169060ff1c601b0161059a565b60405162461bcd60e51b8152600401610229906108da565b61043c8682858560007f7fffffffffffffffffffffffffffffff5d576e7357a4501ddfe92f46681b20a08211156105e35760405162461bcd60e51b815260040161022990610911565b8360ff16601b14806105f857508360ff16601c145b6106145760405162461bcd60e51b8152600401610229906109a1565b6000600186868686604051600081526020016040526040516106399493929190610872565b6020604051602081039080840390855afa15801561065b573d6000803e3d6000fd5b5050604051601f1901519150506001600160a01b0381166104f15760405162461bcd60e51b8152600401610229906108a3565b80356001600160a01b038116811461018757600080fd5b6000602082840312156106b6578081fd5b61017d8261068e565b6000806000604084860312156106d3578182fd5b833567ffffffffffffffff808211156106ea578384fd5b90850190608082880312156106fd578384fd5b90935060208501359080821115610712578384fd5b818601915086601f830112610725578384fd5b813581811115610733578485fd5b876020828501011115610744578485fd5b6020830194508093505050509250925092565b600060208284031215610768578081fd5b5035919050565b600060208284031215610780578081fd5b5051919050565b6000815180845261079f816020860160208601610b39565b601f01601f19169290920160200192915050565b92835260609190911b6bffffffffffffffffffffffff19166020830152603482015260540190565b600082516107ed818460208701610b39565b9190910192915050565b60008451610809818460208901610b39565b60609490941b6bffffffffffffffffffffffff191691909301908152601481019190915260340192915050565b7f19457468657265756d205369676e6564204d6573736167653a0a3332000000008152601c810191909152603c0190565b901515815260200190565b93845260ff9290921660208401526040830152606082015260800190565b60006020825261017d6020830184610787565b60208082526018908201527f45434453413a20696e76616c6964207369676e61747572650000000000000000604082015260600190565b6020808252601f908201527f45434453413a20696e76616c6964207369676e6174757265206c656e67746800604082015260600190565b60208082526022908201527f45434453413a20696e76616c6964207369676e6174757265202773272076616c604082015261756560f01b606082015260800190565b6020808252602e908201527f496e697469616c697a61626c653a20636f6e747261637420697320616c72656160408201526d191e481a5b9a5d1a585b1a5e995960921b606082015260800190565b60208082526022908201527f45434453413a20696e76616c6964207369676e6174757265202776272076616c604082015261756560f01b606082015260800190565b90815260200190565b6000808335601e19843603018112610a02578283fd5b83018035915067ffffffffffffffff821115610a1c578283fd5b602001915036819003821315610a3157600080fd5b9250929050565b600082610a5357634e487b7160e01b81526012600452602481fd5b500490565b600060808236031215610a69578081fd5b604080516080810167ffffffffffffffff8282108183111715610a8e57610a8e610b69565b818452610a9a8661068e565b83526020915081860135828401528386013584840152606086013581811115610ac1578586fd5b860136601f820112610ad1578586fd5b803582811115610ae357610ae3610b69565b8551601f8201601f1916810185018481118282101715610b0557610b05610b69565b87528181523683830186011115610b1a578788fd5b8185840186830137908101909301959095525060608201529392505050565b60005b83811015610b54578181015183820152602001610b3c565b83811115610b63576000848401525b50505050565b634e487b7160e01b600052604160045260246000fdfea2646970667358221220740c6ab53843d696d2f7d60a8b8674511d90cc30610b5a7d6c5c282012e5d89264736f6c63430008000033",
  "linkReferences": {},
  "deployedLinkReferences": {}
}