{
  "_format": "hh-sol-artifact-1",
  "contractName": "MintingManager",
  "sourceName": "contracts/MintingManager.sol",
  "abi": [
    {
      "anonymous": false,
      "inputs": [
        {
          "indexed": false,
          "internalType": "address",
          "name": "previousAdmin",
          "type": "address"
        },
        {
          "indexed": false,
          "internalType": "address",
          "name": "newAdmin",
          "type": "address"
        }
      ],
      "name": "AdminChanged",
      "type": "event"
    },
    {
      "anonymous": false,
      "inputs": [
        {
          "indexed": false,
          "internalType": "uint256",
          "name": "tokenId",
          "type": "uint256"
        }
      ],
      "name": "Blocked",
      "type": "event"
    },
    {
      "anonymous": false,
      "inputs": [
        {
          "indexed": false,
          "internalType": "address",
          "name": "account",
          "type": "address"
        }
      ],
      "name": "BlocklistDisabled",
      "type": "event"
    },
    {
      "anonymous": false,
      "inputs": [
        {
          "indexed": false,
          "internalType": "address",
          "name": "account",
          "type": "address"
        }
      ],
      "name": "BlocklistEnabled",
      "type": "event"
    },
    {
      "anonymous": false,
      "inputs": [
        {
          "indexed": false,
          "internalType": "uint8",
          "name": "version",
          "type": "uint8"
        }
      ],
      "name": "Initialized",
      "type": "event"
    },
    {
      "anonymous": false,
      "inputs": [
        {
          "indexed": true,
          "internalType": "uint256",
          "name": "tokenId",
          "type": "uint256"
        },
        {
          "indexed": false,
          "internalType": "string",
          "name": "tld",
          "type": "string"
        }
      ],
      "name": "NewTld",
      "type": "event"
    },
    {
      "anonymous": false,
      "inputs": [
        {
          "indexed": true,
          "internalType": "address",
          "name": "previousOwner",
          "type": "address"
        },
        {
          "indexed": true,
          "internalType": "address",
          "name": "newOwner",
          "type": "address"
        }
      ],
      "name": "OwnershipTransferred",
      "type": "event"
    },
    {
      "anonymous": false,
      "inputs": [
        {
          "indexed": false,
          "internalType": "address",
          "name": "account",
          "type": "address"
        }
      ],
      "name": "Paused",
      "type": "event"
    },
    {
      "anonymous": false,
      "inputs": [
        {
          "indexed": true,
          "internalType": "uint256",
          "name": "tokenId",
          "type": "uint256"
        }
      ],
      "name": "RemoveTld",
      "type": "event"
    },
    {
      "anonymous": false,
      "inputs": [
        {
          "indexed": true,
          "internalType": "bytes32",
          "name": "role",
          "type": "bytes32"
        },
        {
          "indexed": true,
          "internalType": "bytes32",
          "name": "previousAdminRole",
          "type": "bytes32"
        },
        {
          "indexed": true,
          "internalType": "bytes32",
          "name": "newAdminRole",
          "type": "bytes32"
        }
      ],
      "name": "RoleAdminChanged",
      "type": "event"
    },
    {
      "anonymous": false,
      "inputs": [
        {
          "indexed": true,
          "internalType": "bytes32",
          "name": "role",
          "type": "bytes32"
        },
        {
          "indexed": true,
          "internalType": "address",
          "name": "account",
          "type": "address"
        },
        {
          "indexed": true,
          "internalType": "address",
          "name": "sender",
          "type": "address"
        }
      ],
      "name": "RoleGranted",
      "type": "event"
    },
    {
      "anonymous": false,
      "inputs": [
        {
          "indexed": true,
          "internalType": "bytes32",
          "name": "role",
          "type": "bytes32"
        },
        {
          "indexed": true,
          "internalType": "address",
          "name": "account",
          "type": "address"
        },
        {
          "indexed": true,
          "internalType": "address",
          "name": "sender",
          "type": "address"
        }
      ],
      "name": "RoleRevoked",
      "type": "event"
    },
    {
      "anonymous": false,
      "inputs": [
        {
          "indexed": false,
          "internalType": "address",
          "name": "account",
          "type": "address"
        }
      ],
      "name": "Unpaused",
      "type": "event"
    },
    {
      "anonymous": false,
      "inputs": [
        {
          "indexed": true,
          "internalType": "address",
          "name": "implementation",
          "type": "address"
        }
      ],
      "name": "Upgraded",
      "type": "event"
    },
    {
      "inputs": [],
      "name": "DEFAULT_ADMIN_ROLE",
      "outputs": [
        {
          "internalType": "bytes32",
          "name": "",
          "type": "bytes32"
        }
      ],
      "stateMutability": "view",
      "type": "function"
    },
    {
      "inputs": [],
      "name": "MINTER_ROLE",
      "outputs": [
        {
          "internalType": "bytes32",
          "name": "",
          "type": "bytes32"
        }
      ],
      "stateMutability": "view",
      "type": "function"
    },
    {
      "inputs": [],
      "name": "NAME",
      "outputs": [
        {
          "internalType": "string",
          "name": "",
          "type": "string"
        }
      ],
      "stateMutability": "view",
      "type": "function"
    },
    {
      "inputs": [],
      "name": "VERSION",
      "outputs": [
        {
          "internalType": "string",
          "name": "",
          "type": "string"
        }
      ],
      "stateMutability": "view",
      "type": "function"
    },
    {
      "inputs": [
        {
          "internalType": "address",
          "name": "account",
          "type": "address"
        }
      ],
      "name": "addMinter",
      "outputs": [],
      "stateMutability": "nonpayable",
      "type": "function"
    },
    {
      "inputs": [
        {
          "internalType": "address[]",
          "name": "accounts",
          "type": "address[]"
        }
      ],
      "name": "addMinters",
      "outputs": [],
      "stateMutability": "nonpayable",
      "type": "function"
    },
    {
      "inputs": [
        {
          "internalType": "address[]",
          "name": "addrs",
          "type": "address[]"
        }
      ],
      "name": "addProxyReaders",
      "outputs": [],
      "stateMutability": "nonpayable",
      "type": "function"
    },
    {
      "inputs": [
        {
          "internalType": "string",
          "name": "tld",
          "type": "string"
        }
      ],
      "name": "addTld",
      "outputs": [],
      "stateMutability": "nonpayable",
      "type": "function"
    },
    {
      "inputs": [
        {
          "internalType": "uint256",
          "name": "tld",
          "type": "uint256"
        },
        {
          "internalType": "string",
          "name": "label",
          "type": "string"
        }
      ],
      "name": "claim",
      "outputs": [],
      "stateMutability": "nonpayable",
      "type": "function"
    },
    {
      "inputs": [
        {
          "internalType": "address",
          "name": "to",
          "type": "address"
        },
        {
          "internalType": "uint256",
          "name": "tld",
          "type": "uint256"
        },
        {
          "internalType": "string",
          "name": "label",
          "type": "string"
        }
      ],
      "name": "claimTo",
      "outputs": [],
      "stateMutability": "nonpayable",
      "type": "function"
    },
    {
      "inputs": [
        {
          "internalType": "address",
          "name": "to",
          "type": "address"
        },
        {
          "internalType": "uint256",
          "name": "tld",
          "type": "uint256"
        },
        {
          "internalType": "string",
          "name": "label",
          "type": "string"
        },
        {
          "internalType": "string[]",
          "name": "keys",
          "type": "string[]"
        },
        {
          "internalType": "string[]",
          "name": "values",
          "type": "string[]"
        }
      ],
      "name": "claimToWithRecords",
      "outputs": [],
      "stateMutability": "nonpayable",
      "type": "function"
    },
    {
      "inputs": [
        {
          "internalType": "address payable",
          "name": "receiver",
          "type": "address"
        }
      ],
      "name": "closeMinter",
      "outputs": [],
      "stateMutability": "payable",
      "type": "function"
    },
    {
      "inputs": [],
      "name": "cnsMintingController",
      "outputs": [
        {
          "internalType": "contract IMintingController",
          "name": "",
          "type": "address"
        }
      ],
      "stateMutability": "view",
      "type": "function"
    },
    {
      "inputs": [],
      "name": "cnsResolver",
      "outputs": [
        {
          "internalType": "contract IResolver",
          "name": "",
          "type": "address"
        }
      ],
      "stateMutability": "view",
      "type": "function"
    },
    {
      "inputs": [],
      "name": "cnsURIPrefixController",
      "outputs": [
        {
          "internalType": "contract IURIPrefixController",
          "name": "",
          "type": "address"
        }
      ],
      "stateMutability": "view",
      "type": "function"
    },
    {
      "inputs": [
        {
          "internalType": "bytes32",
          "name": "role",
          "type": "bytes32"
        }
      ],
      "name": "getRoleAdmin",
      "outputs": [
        {
          "internalType": "bytes32",
          "name": "",
          "type": "bytes32"
        }
      ],
      "stateMutability": "view",
      "type": "function"
    },
    {
      "inputs": [
        {
          "internalType": "bytes32",
          "name": "role",
          "type": "bytes32"
        },
        {
          "internalType": "address",
          "name": "account",
          "type": "address"
        }
      ],
      "name": "grantRole",
      "outputs": [],
      "stateMutability": "nonpayable",
      "type": "function"
    },
    {
      "inputs": [
        {
          "internalType": "bytes32",
          "name": "role",
          "type": "bytes32"
        },
        {
          "internalType": "address",
          "name": "account",
          "type": "address"
        }
      ],
      "name": "hasRole",
      "outputs": [
        {
          "internalType": "bool",
          "name": "",
          "type": "bool"
        }
      ],
      "stateMutability": "view",
      "type": "function"
    },
    {
      "inputs": [
        {
          "internalType": "contract IUNSRegistry",
          "name": "unsRegistry_",
          "type": "address"
        },
        {
          "internalType": "contract IMintingController",
          "name": "cnsMintingController_",
          "type": "address"
        },
        {
          "internalType": "contract IURIPrefixController",
          "name": "cnsURIPrefixController_",
          "type": "address"
        },
        {
          "internalType": "contract IResolver",
          "name": "cnsResolver_",
          "type": "address"
        },
        {
          "internalType": "address",
          "name": "unsOperator_",
          "type": "address"
        },
        {
          "internalType": "address",
          "name": "forwarder",
          "type": "address"
        }
      ],
      "name": "initialize",
      "outputs": [],
      "stateMutability": "nonpayable",
      "type": "function"
    },
    {
      "inputs": [
        {
          "internalType": "uint256",
          "name": "tokenId",
          "type": "uint256"
        }
      ],
      "name": "isBlocked",
      "outputs": [
        {
          "internalType": "bool",
          "name": "",
          "type": "bool"
        }
      ],
      "stateMutability": "view",
      "type": "function"
    },
    {
      "inputs": [
        {
          "internalType": "address",
          "name": "account",
          "type": "address"
        }
      ],
      "name": "isMinter",
      "outputs": [
        {
          "internalType": "bool",
          "name": "",
          "type": "bool"
        }
      ],
      "stateMutability": "view",
      "type": "function"
    },
    {
      "inputs": [
        {
          "internalType": "address",
          "name": "forwarder",
          "type": "address"
        }
      ],
      "name": "isTrustedForwarder",
      "outputs": [
        {
          "internalType": "bool",
          "name": "",
          "type": "bool"
        }
      ],
      "stateMutability": "view",
      "type": "function"
    },
    {
      "inputs": [
        {
          "internalType": "address",
          "name": "to",
          "type": "address"
        },
        {
          "internalType": "string[]",
          "name": "labels",
          "type": "string[]"
        },
        {
          "internalType": "string[]",
          "name": "keys",
          "type": "string[]"
        },
        {
          "internalType": "string[]",
          "name": "values",
          "type": "string[]"
        },
        {
          "internalType": "bool",
          "name": "withReverse",
          "type": "bool"
        }
      ],
      "name": "issueWithRecords",
      "outputs": [],
      "stateMutability": "nonpayable",
      "type": "function"
    },
    {
      "inputs": [],
      "name": "owner",
      "outputs": [
        {
          "internalType": "address",
          "name": "",
          "type": "address"
        }
      ],
      "stateMutability": "view",
      "type": "function"
    },
    {
      "inputs": [],
      "name": "pause",
      "outputs": [],
      "stateMutability": "nonpayable",
      "type": "function"
    },
    {
      "inputs": [],
      "name": "paused",
      "outputs": [
        {
          "internalType": "bool",
          "name": "",
          "type": "bool"
        }
      ],
      "stateMutability": "view",
      "type": "function"
    },
    {
      "inputs": [
        {
          "internalType": "address",
          "name": "account",
          "type": "address"
        }
      ],
      "name": "removeMinter",
      "outputs": [],
      "stateMutability": "nonpayable",
      "type": "function"
    },
    {
      "inputs": [
        {
          "internalType": "address[]",
          "name": "accounts",
          "type": "address[]"
        }
      ],
      "name": "removeMinters",
      "outputs": [],
      "stateMutability": "nonpayable",
      "type": "function"
    },
    {
      "inputs": [
        {
          "internalType": "uint256",
          "name": "tld",
          "type": "uint256"
        }
      ],
      "name": "removeTld",
      "outputs": [],
      "stateMutability": "nonpayable",
      "type": "function"
    },
    {
      "inputs": [],
      "name": "renounceMinter",
      "outputs": [],
      "stateMutability": "nonpayable",
      "type": "function"
    },
    {
      "inputs": [],
      "name": "renounceOwnership",
      "outputs": [],
      "stateMutability": "nonpayable",
      "type": "function"
    },
    {
      "inputs": [
        {
          "internalType": "bytes32",
          "name": "role",
          "type": "bytes32"
        },
        {
          "internalType": "address",
          "name": "account",
          "type": "address"
        }
      ],
      "name": "renounceRole",
      "outputs": [],
      "stateMutability": "nonpayable",
      "type": "function"
    },
    {
      "inputs": [
        {
          "internalType": "bytes32",
          "name": "role",
          "type": "bytes32"
        },
        {
          "internalType": "address",
          "name": "account",
          "type": "address"
        }
      ],
      "name": "revokeRole",
      "outputs": [],
      "stateMutability": "nonpayable",
      "type": "function"
    },
    {
      "inputs": [
        {
          "internalType": "address payable",
          "name": "receiver",
          "type": "address"
        }
      ],
      "name": "rotateMinter",
      "outputs": [],
      "stateMutability": "payable",
      "type": "function"
    },
    {
      "inputs": [
        {
          "internalType": "address",
          "name": "forwarder",
          "type": "address"
        }
      ],
      "name": "setForwarder",
      "outputs": [],
      "stateMutability": "nonpayable",
      "type": "function"
    },
    {
      "inputs": [
        {
          "internalType": "address",
          "name": "operator",
          "type": "address"
        }
      ],
      "name": "setOperator",
      "outputs": [],
      "stateMutability": "nonpayable",
      "type": "function"
    },
    {
      "inputs": [
        {
          "internalType": "string",
          "name": "prefix",
          "type": "string"
        }
      ],
      "name": "setTokenURIPrefix",
      "outputs": [],
      "stateMutability": "nonpayable",
      "type": "function"
    },
    {
      "inputs": [
        {
          "internalType": "bytes4",
          "name": "interfaceId",
          "type": "bytes4"
        }
      ],
      "name": "supportsInterface",
      "outputs": [
        {
          "internalType": "bool",
          "name": "",
          "type": "bool"
        }
      ],
      "stateMutability": "view",
      "type": "function"
    },
    {
      "inputs": [
        {
          "internalType": "address",
          "name": "newOwner",
          "type": "address"
        }
      ],
      "name": "transferOwnership",
      "outputs": [],
      "stateMutability": "nonpayable",
      "type": "function"
    },
    {
      "inputs": [],
      "name": "unpause",
      "outputs": [],
      "stateMutability": "nonpayable",
      "type": "function"
    },
    {
      "inputs": [],
      "name": "unsOperator",
      "outputs": [
        {
          "internalType": "address",
          "name": "",
          "type": "address"
        }
      ],
      "stateMutability": "view",
      "type": "function"
    },
    {
      "inputs": [],
      "name": "unsRegistry",
      "outputs": [
        {
          "internalType": "contract IUNSRegistry",
          "name": "",
          "type": "address"
        }
      ],
      "stateMutability": "view",
      "type": "function"
    }
  ],
  "bytecode": "0x608060405234801561001057600080fd5b50613604806100206000396000f3fe6080604052600436106102515760003560e01c806391d1485411610139578063b9998a24116100b6578063d1f5692c1161007a578063d1f5692c14610720578063d539139314610740578063d547741f14610762578063ec52738914610782578063f2fde38b146107a2578063ffa1ad74146107c257600080fd5b8063b9998a2414610680578063c3a3bc00146106a0578063cc2a9a5b146106c0578063cc2c3fc4146106e0578063ceeb4f501461070057600080fd5b8063a3f4df7e116100fd578063a3f4df7e146105b3578063a849d65c14610600578063aa271e1a14610620578063b0aa98c714610640578063b3ab15fb1461066057600080fd5b806391d1485414610529578063983b2d5614610549578063986502751461056957806399e0dd7c1461057e578063a217fddf1461059e57600080fd5b80635c975abb116101d257806371e2a6571161019657806371e2a6571461048357806377a2a589146104a357806381c81d35146104c35780638456cb59146104d65780638da5cb5b146104eb578063906cecc11461050957600080fd5b80635c975abb146104065780635cd7e3b31461041b5780635fc1964f1461043b578063634486da1461045b578063715018a61461046e57600080fd5b806336568abe1161021957806336568abe1461032b5780633f41b6141461034b5780633f4ba83a14610383578063572b6c05146103985780635b6fa8db146103e657600080fd5b806301ffc9a714610256578063248a9ca31461028b578063268b15ed146102c95780632f2ff15d146102eb5780633092afd51461030b575b600080fd5b34801561026257600080fd5b50610276610271366004612b26565b6107f4565b60405190151581526020015b60405180910390f35b34801561029757600080fd5b506102bb6102a6366004612b50565b60009081526097602052604090206001015490565b604051908152602001610282565b3480156102d557600080fd5b506102e96102e4366004612bb1565b61082b565b005b3480156102f757600080fd5b506102e9610306366004612c11565b6108ce565b34801561031757600080fd5b506102e9610326366004612c41565b6108f8565b34801561033757600080fd5b506102e9610346366004612c11565b61090c565b34801561035757600080fd5b5060c95461036b906001600160a01b031681565b6040516001600160a01b039091168152602001610282565b34801561038f57600080fd5b506102e961099a565b3480156103a457600080fd5b506102766103b3366004612c41565b7f893ef2ea16c023f61d4f55d3e6ee3fc3f2fbfd478461323dbc2fbf919047086e546001600160a01b0390811691161490565b3480156103f257600080fd5b5060cc5461036b906001600160a01b031681565b34801561041257600080fd5b506102766109ac565b34801561042757600080fd5b506102e9610436366004612cb0565b6109c2565b34801561044757600080fd5b506102e9610456366004612dd8565b610ce2565b6102e9610469366004612c41565b610d2a565b34801561047a57600080fd5b506102e9610e1d565b34801561048f57600080fd5b506102e961049e366004612dd8565b610e2f565b3480156104af57600080fd5b5060ce5461036b906001600160a01b031681565b6102e96104d1366004612c41565b610e77565b3480156104e257600080fd5b506102e9610f24565b3480156104f757600080fd5b506033546001600160a01b031661036b565b34801561051557600080fd5b506102e9610524366004612e76565b610f34565b34801561053557600080fd5b50610276610544366004612c11565b610fba565b34801561055557600080fd5b506102e9610564366004612c41565b610fe5565b34801561057557600080fd5b506102e9610ff6565b34801561058a57600080fd5b506102e9610599366004612ed1565b611010565b3480156105aa57600080fd5b506102bb600081565b3480156105bf57600080fd5b506105f3604051806040016040528060148152602001732aa7299d1026b4b73a34b7339026b0b730b3b2b960611b81525081565b6040516102829190612f6e565b34801561060c57600080fd5b5060cb5461036b906001600160a01b031681565b34801561062c57600080fd5b5061027661063b366004612c41565b6110ef565b34801561064c57600080fd5b5061027661065b366004612b50565b611109565b34801561066c57600080fd5b506102e961067b366004612c41565b611167565b34801561068c57600080fd5b506102e961069b366004612c41565b611191565b3480156106ac57600080fd5b506102e96106bb366004612ed1565b6111d6565b3480156106cc57600080fd5b506102e96106db366004612f81565b61121d565b3480156106ec57600080fd5b5060ca5461036b906001600160a01b031681565b34801561070c57600080fd5b506102e961071b366004613003565b611618565b34801561072c57600080fd5b506102e961073b3660046130b8565b6116ae565b34801561074c57600080fd5b506102bb6000805160206135d883398151915281565b34801561076e57600080fd5b506102e961077d366004612c11565b611765565b34801561078e57600080fd5b506102e961079d366004612b50565b61178a565b3480156107ae57600080fd5b506102e96107bd366004612c41565b6117fc565b3480156107ce57600080fd5b506105f36040518060400160405280600681526020016518171a17189b60d11b81525081565b60006001600160e01b03198216637965db0b60e01b148061082557506301ffc9a760e01b6001600160e01b03198316145b92915050565b8282828080601f01602080910402602001604051908101604052809392919081815260200183838082843760009201919091525061086f9250849150839050611818565b6108776109ac565b1561089d5760405162461bcd60e51b8152600401610894906130ed565b60405180910390fd5b60606108c66108aa61196e565b6108bd886108b8898961197d565b6119a9565b83846001611aba565b505050505050565b6000828152609760205260409020600101546108e981611e8a565b6108f38383611e9b565b505050565b610900611f22565b61090981611f9b565b50565b61091461196e565b6001600160a01b0316816001600160a01b03161461098c5760405162461bcd60e51b815260206004820152602f60248201527f416363657373436f6e74726f6c3a2063616e206f6e6c792072656e6f756e636560448201526e103937b632b9903337b91039b2b63360891b6064820152608401610894565b6109968282611fb3565b5050565b6109a2611f22565b6109aa612038565b565b6000805160206135b88339815191525460ff1690565b6109cc8688613117565b805160021415610a3e576109e161063b61196e565b610a395760405162461bcd60e51b8152602060048201526024808201527f4d696e74696e674d616e616765723a2043414c4c45525f49535f4e4f545f4d49604482015263272a22a960e11b6064820152608401610894565b610bcb565b6000610a49826120e0565b60c9549092506001600160a01b0316905063430c2081610a6761196e565b6040516001600160e01b031960e084901b1681526001600160a01b03909116600482015260248101849052604401602060405180830381865afa158015610ab2573d6000803e3d6000fd5b505050506040513d601f19601f82011682018060405250810190610ad691906131e1565b80610b65575060c95460ce5460405163430c208160e01b81526001600160a01b0391821660048201526024810184905291169063430c208190604401602060405180830381865afa158015610b2f573d6000803e3d6000fd5b505050506040513d601f19601f82011682018060405250810190610b5391906131e1565b8015610b655750610b6561063b61196e565b610bc95760405162461bcd60e51b815260206004820152602f60248201527f4d696e74696e674d616e616765723a2053454e4445525f49535f4e4f545f415060448201526e282927ab22a22fa7a92fa7aba722a960891b6064820152608401610894565b505b610bd58789613117565b600281511015610c355760405162461bcd60e51b815260206004820152602560248201527f4d696e74696e674d616e616765723a204c4142454c535f4c454e4754485f42456044820152642627abaf9960d91b6064820152608401610894565b610c89610c6960008360018551610c4c9190613214565b81518110610c5c57610c5c61322b565b602002602001015161211b565b82600081518110610c7c57610c7c61322b565b6020026020010151611818565b610c916109ac565b15610cae5760405162461bcd60e51b8152600401610894906130ed565b610cd68a610cbc8a8c613117565b610cc6898b613117565b610cd0888a613117565b87611aba565b50505050505050505050565b610cea611f22565b60005b815181101561099657610d18828281518110610d0b57610d0b61322b565b6020026020010151611f9b565b80610d2281613241565b915050610ced565b610d3561063b61196e565b610d815760405162461bcd60e51b815260206004820181905260248201527f4d696e746572526f6c653a2043414c4c45525f49535f4e4f545f4d494e5445526044820152606401610894565b6001600160a01b038116610dd75760405162461bcd60e51b815260206004820152601d60248201527f4d696e746572526f6c653a2052454345495645525f49535f454d5054590000006044820152606401610894565b610de0816121d0565b610de8610ff6565b6040516001600160a01b038216903480156108fc02916000818181858888f19350505050158015610996573d6000803e3d6000fd5b610e25611f22565b6109aa60006121e8565b610e37611f22565b60005b815181101561099657610e65828281518110610e5857610e5861322b565b60200260200101516121d0565b80610e6f81613241565b915050610e3a565b610e8261063b61196e565b610ece5760405162461bcd60e51b815260206004820181905260248201527f4d696e746572526f6c653a2043414c4c45525f49535f4e4f545f4d494e5445526044820152606401610894565b6001600160a01b038116610de05760405162461bcd60e51b815260206004820152601d60248201527f4d696e746572526f6c653a2052454345495645525f49535f454d5054590000006044820152606401610894565b610f2c611f22565b6109aa61223a565b8282828080601f016020809104026020016040519081016040528093929190818152602001838380828437600092019190915250610f789250849150839050611818565b610f806109ac565b15610f9d5760405162461bcd60e51b8152600401610894906130ed565b6060610fb1876108bd886108b8898961197d565b50505050505050565b60009182526097602090815260408084206001600160a01b0393909316845291905290205460ff1690565b610fed611f22565b610909816121d0565b6109aa6000805160206135d883398151915261034661196e565b611018611f22565b60c954604051632678375f60e21b81526001600160a01b03909116906399e0dd7c9061104a908590859060040161325c565b600060405180830381600087803b15801561106457600080fd5b505af1158015611078573d6000803e3d6000fd5b505060cb546001600160a01b031615915061099690505760cb54604051632678375f60e21b81526001600160a01b03909116906399e0dd7c906110c1908590859060040161325c565b600060405180830381600087803b1580156110db57600080fd5b505af11580156108c6573d6000803e3d6000fd5b60006108256000805160206135d883398151915283610fba565b604080517f1ec047073e2c8b15660901dbfdb6e3ff6365bd699dd9f95dcc6eab5448bebd69602082015290810182905260009061115d906060015b6040516020818303038152906040528051906020012090565b5460ff1692915050565b61116f611f22565b60ce80546001600160a01b0319166001600160a01b0392909216919091179055565b611199611f22565b7f893ef2ea16c023f61d4f55d3e6ee3fc3f2fbfd478461323dbc2fbf919047086e80546001600160a01b0319166001600160a01b03831617905550565b6111de611f22565b61099682828080601f0160208091040260200160405190810160405280939291908181526020018383808284376000920191909152506122a292505050565b600054610100900460ff161580801561123d5750600054600160ff909116105b806112575750303b158015611257575060005460ff166001145b6112ba5760405162461bcd60e51b815260206004820152602e60248201527f496e697469616c697a61626c653a20636f6e747261637420697320616c72656160448201526d191e481a5b9a5d1a585b1a5e995960921b6064820152608401610894565b6000805460ff1916600117905580156112dd576000805461ff0019166101001790555b60c980546001600160a01b03199081166001600160a01b038a81169190911790925560ca8054821689841617905560cb8054821688841617905560cc8054821687841617905560ce805490911691851691909117905561133b6123af565b6113436123e6565b61134c8261241f565b611354612446565b6040805161028081018252600661024082018181526563727970746f60d01b610260840152825282518084018452818152651dd85b1b195d60d21b602082810191909152808401919091528351808501855260018152600f60fb1b8183015283850152835180850185526003808252621b999d60ea1b82840152606085019190915284518086018652600a815269313637b1b5b1b430b4b760b11b818401526080850152845180860186526007808252663134ba31b7b4b760c91b8285015260a0860191909152855180870187528281526207070760eb1b8185015260c0860152855180870187528281526264616f60e81b8185015260e086015285518087018752918252621e9a5b60ea1b8284015261010085019190915284518086018652908152663837b63cb3b7b760c91b8183015261012084015283518085018552600b81526a756e73746f707061626c6560a81b81830152610140840152835180850185528281526535b632bb32b960d11b81830152610160840152835180850185526002815261686960f01b8183015261018084015283518085018552918252656b726573757360d01b828201526101a083019190915282518084018452600580825264616e696d6560d81b828401526101c084019190915283518085018552818152646d616e676160d81b818401526101e084015283518085018552600981526862696e616e6365757360b81b8184015261020084015283518085019094528352647265616c6d60d81b9083015261022081019190915260005b60128110156115c8576115b68282601281106115ac576115ac61322b565b60200201516122a2565b806115c081613241565b91505061158e565b50508015610fb1576000805461ff0019169055604051600181527f7f26b83ff96e1f2b6a682f133852f6798a09c465da95921460cefb38474024989060200160405180910390a150505050505050565b8686868080601f01602080910402602001604051908101604052809392919081815260200183838082843760009201919091525061165c9250849150839050611818565b6116646109ac565b156116815760405162461bcd60e51b8152600401610894906130ed565b610cd68a6116938b6108b88c8c61197d565b61169d888a613117565b6116a78789613117565b6001611aba565b6116b6611f22565b60005b818110156108f35760c9546001600160a01b031663509602398484848181106116e4576116e461322b565b90506020020160208101906116f99190612c41565b6040516001600160e01b031960e084901b1681526001600160a01b039091166004820152602401600060405180830381600087803b15801561173a57600080fd5b505af115801561174e573d6000803e3d6000fd5b50505050808061175d90613241565b9150506116b9565b60008281526097602052604090206001015461178081611e8a565b6108f38383611fb3565b611792611f22565b61179b81612486565b6117b75760405162461bcd60e51b81526004016108949061328b565b600081815260cd602052604081206117ce91612a53565b60405181907f0aa1aff0f830e739d86baf0e6624d6763da02f7733575e0e463886cd062dea6a90600090a250565b611804611f22565b61180d816124ac565b610909600082612522565b61182182612486565b61183d5760405162461bcd60e51b81526004016108949061328b565b60006118708260408051808201825260008082526020918201528151808301909252825182529182019181019190915290565b9050600a816000015111156119195761189b61188f826000600a61252c565b80516020909101512090565b7fb551e0305c8163b812374b8e78b577c77f226f6f10c5ad03e52699578fbc34b814156119195760405162461bcd60e51b815260206004820152602660248201527f4d696e74696e674d616e616765723a20544f4b454e5f4c4142454c5f50524f4860448201526512509255115160d21b6064820152608401610894565b6119228261256b565b6108f35760405162461bcd60e51b815260206004820152601d60248201527f4d696e74696e674d616e616765723a204c4142454c5f494e56414c49440000006044820152606401610894565b60006119786126d0565b905090565b606082826040516020016119929291906132cd565b604051602081830303815290604052905092915050565b604080516002808252606082810190935260009190816020015b60608152602001906001900390816119c357905050905082816000815181106119ee576119ee61322b565b602002602001018190525060cd60008581526020019081526020016000208054611a17906132f5565b80601f0160208091040260200160405190810160405280929190818152602001828054611a43906132f5565b8015611a905780601f10611a6557610100808354040283529160200191611a90565b820191906000526020600020905b815481529060010190602001808311611a7357829003601f168201915b505050505081600181518110611aa857611aa861322b565b60209081029190910101529392505050565b600080611ac6866120e0565b91509150828015611ad8575060028651115b8015611b5a575060c9546040516331a9108f60e11b8152600481018390526001600160a01b03898116921690636352211e90602401602060405180830381865afa158015611b2a573d6000803e3d6000fd5b505050506040513d601f19601f82011682018060405250810190611b4e9190613330565b6001600160a01b031614155b15611bba5760405162461bcd60e51b815260206004820152602a60248201527f4d696e74696e674d616e616765723a20524556455253455f5245434f52445f4e60448201526913d517d0531313d5d15160b21b6064820152608401610894565b60c954604051634f558e7960e01b8152600481018490526001600160a01b0390911690634f558e7990602401602060405180830381865afa158015611c03573d6000803e3d6000fd5b505050506040513d601f19601f82011682018060405250810190611c2791906131e1565b8015611ca6575060c9546040516331a9108f60e11b81526004810184905230916001600160a01b031690636352211e90602401602060405180830381865afa158015611c77573d6000803e3d6000fd5b505050506040513d601f19601f82011682018060405250810190611c9b9190613330565b6001600160a01b0316145b15611d1a5760c954604051630fb8df0360e11b81526001600160a01b0390911690631f71be0690611ce3908a908a908a908a908a906004016133a2565b600060405180830381600087803b158015611cfd57600080fd5b505af1158015611d11573d6000803e3d6000fd5b50505050610fb1565b611d2382612717565b611d2c86612776565b8015611d39575085516002145b15611e175760ca5486516001600160a01b039091169063c36c21259089908990600090611d6857611d6861322b565b602090810291909101015160cc546040516001600160e01b031960e086901b168152611da29392916001600160a01b031690600401613401565b600060405180830381600087803b158015611dbc57600080fd5b505af1158015611dd0573d6000803e3d6000fd5b50505050600085511115611e125760cc54604051633a0deb9d60e21b81526001600160a01b039091169063e837ae7490611ce390889088908790600401613436565b610fb1565b60c95460405163ba5d40b760e01b81526001600160a01b039091169063ba5d40b790611e4f908a908a908a908a908a906004016133a2565b600060405180830381600087803b158015611e6957600080fd5b505af1158015611e7d573d6000803e3d6000fd5b5050505050505050505050565b61090981611e9661196e565b6127d0565b611ea58282610fba565b6109965760008281526097602090815260408083206001600160a01b03851684529091529020805460ff19166001179055611ede61196e565b6001600160a01b0316816001600160a01b0316837f2f8788117e7eff1d82e926ec794901d17c78024a50270940304540a733656f0d60405160405180910390a45050565b611f2a61196e565b6001600160a01b0316611f456033546001600160a01b031690565b6001600160a01b0316146109aa5760405162461bcd60e51b815260206004820181905260248201527f4f776e61626c653a2063616c6c6572206973206e6f7420746865206f776e65726044820152606401610894565b6109096000805160206135d883398151915282611765565b611fbd8282610fba565b156109965760008281526097602090815260408083206001600160a01b03851684529091529020805460ff19169055611ff461196e565b6001600160a01b0316816001600160a01b0316837ff6391f5c32d9c69d2a47ea670b442974b53935d1edc7fd64eb21e047a839171b60405160405180910390a45050565b6120406109ac565b6120835760405162461bcd60e51b815260206004820152601460248201527314185d5cd8589b194e881393d517d4105554d15160621b6044820152606401610894565b6000805160206135b8833981519152805460ff191690557f5db9ee0a495bf2e6ff9c91a7834c1ba4fdd244a5e8aa4e537bd38aeae4b073aa6120c361196e565b6040516001600160a01b03909116815260200160405180910390a1565b805160009081905b8015612115578291506121018285610c4c600185613214565b92508061210d8161346c565b9150506120e8565b50915091565b600081516000141561216f5760405162461bcd60e51b815260206004820152601b60248201527f4d696e74696e674d616e616765723a204c4142454c5f454d50545900000000006044820152606401610894565b82826040516020016121819190613483565b604051602081830303815290604052805190602001206040516020016121b1929190918252602082015260400190565b60408051601f1981840301815291905280516020909101209392505050565b6109096000805160206135d883398151915282612522565b603380546001600160a01b038381166001600160a01b0319831681179093556040519116919082907f8be0079c531659141344cd1fd0a4f28419497f9722a3daafe3b4186f6b6457e090600090a35050565b6122426109ac565b1561225f5760405162461bcd60e51b8152600401610894906130ed565b6000805160206135b8833981519152805460ff191660011790557f62e78cea01bee320cd4e420270b5ea74000d11b0c9f74754ebdbfc544b05a2586120c361196e565b60006122af60008361211b565b600081815260cd6020908152604090912084519293506122d3929091850190612a8d565b50807f4fce6f6e172b04eaa80325d8e3b0180a34945000f3e214605039e8420fdf8980836040516123049190612f6e565b60405180910390a260c954604051634f558e7960e01b8152600481018390526001600160a01b0390911690634f558e7990602401602060405180830381865afa158015612355573d6000803e3d6000fd5b505050506040513d601f19601f8201168201806040525081019061237991906131e1565b6109965760c9546040516307befae360e51b81526001600160a01b039091169063f7df5c60906110c1908490869060040161349f565b600054610100900460ff166123d65760405162461bcd60e51b8152600401610894906134c0565b6109aa6123e161196e565b6121e8565b600054610100900460ff1661240d5760405162461bcd60e51b8152600401610894906134c0565b6109aa600061241a61196e565b612522565b600054610100900460ff166111995760405162461bcd60e51b8152600401610894906134c0565b600054610100900460ff1661246d5760405162461bcd60e51b8152600401610894906134c0565b6000805160206135b8833981519152805460ff19169055565b600081815260cd6020526040812080548291906124a2906132f5565b9050119050919050565b6124b4611f22565b6001600160a01b0381166125195760405162461bcd60e51b815260206004820152602660248201527f4f776e61626c653a206e6577206f776e657220697320746865207a65726f206160448201526564647265737360d01b6064820152608401610894565b610909816121e8565b6109968282611e9b565b60408051808201909152600080825260208201526040518060400160405280838152602001848660200151612561919061350b565b9052949350505050565b600081516000141561257f57506000919050565b60208201805160f81c6030811080159061259d575060398160ff1611155b1580156125bf575060618160ff16101580156125bd5750607a8160ff1611155b155b156125ce575060009392505050565b8351600181111561263c576125f0836125e8600184613214565b015160f81c90565b915060308260ff161015801561260a575060398260ff1611155b15801561262c575060618260ff161015801561262a5750607a8260ff1611155b155b1561263c57506000949350505050565b60015b61264a600183613214565b8110156126c4578381015160f81c9250602d8314801590612680575060308360ff161015801561267e575060398360ff1611155b155b80156126a1575060618360ff161015801561269f5750607a8360ff1611155b155b156126b25750600095945050505050565b806126bc81613241565b91505061263f565b50600195945050505050565b7f893ef2ea16c023f61d4f55d3e6ee3fc3f2fbfd478461323dbc2fbf919047086e546000906001600160a01b0316331415612712575060331936013560601c90565b503390565b61272081611109565b1561276d5760405162461bcd60e51b815260206004820152601d60248201527f4d696e74696e674d616e616765723a20544f4b454e5f424c4f434b45440000006044820152606401610894565b61090981612834565b60008061278d60008460018651610c4c9190613214565b60ca549091506001600160a01b0316158015906127c95750807f0f4a10a4f46c288cea365fcf45cccf0e9d901b945b9829ccdb54c10dc3cb7a6f145b9392505050565b6127da8282610fba565b610996576127f2816001600160a01b031660146128b8565b6127fd8360206128b8565b60405160200161280e929190613523565b60408051601f198184030181529082905262461bcd60e51b825261089491600401612f6e565b604080517f1ec047073e2c8b15660901dbfdb6e3ff6365bd699dd9f95dcc6eab5448bebd69602082015290810182905260019061287390606001611144565b805460ff19169115159190911790556040518181527f2ce5d9351b1d590d5a066db0d2dc7602d55f092506a83a7ee8c4d78ee357d75a9060200160405180910390a150565b606060006128c7836002613598565b6128d290600261350b565b6001600160401b038111156128e9576128e9612d6f565b6040519080825280601f01601f191660200182016040528015612913576020820181803683370190505b509050600360fc1b8160008151811061292e5761292e61322b565b60200101906001600160f81b031916908160001a905350600f60fb1b8160018151811061295d5761295d61322b565b60200101906001600160f81b031916908160001a9053506000612981846002613598565b61298c90600161350b565b90505b6001811115612a04576f181899199a1a9b1b9c1cb0b131b232b360811b85600f16601081106129c0576129c061322b565b1a60f81b8282815181106129d6576129d661322b565b60200101906001600160f81b031916908160001a90535060049490941c936129fd8161346c565b905061298f565b5083156127c95760405162461bcd60e51b815260206004820181905260248201527f537472696e67733a20686578206c656e67746820696e73756666696369656e746044820152606401610894565b508054612a5f906132f5565b6000825580601f10612a6f575050565b601f0160209004906000526020600020908101906109099190612b11565b828054612a99906132f5565b90600052602060002090601f016020900481019282612abb5760008555612b01565b82601f10612ad457805160ff1916838001178555612b01565b82800160010185558215612b01579182015b82811115612b01578251825591602001919060010190612ae6565b50612b0d929150612b11565b5090565b5b80821115612b0d5760008155600101612b12565b600060208284031215612b3857600080fd5b81356001600160e01b0319811681146127c957600080fd5b600060208284031215612b6257600080fd5b5035919050565b60008083601f840112612b7b57600080fd5b5081356001600160401b03811115612b9257600080fd5b602083019150836020828501011115612baa57600080fd5b9250929050565b600080600060408486031215612bc657600080fd5b8335925060208401356001600160401b03811115612be357600080fd5b612bef86828701612b69565b9497909650939450505050565b6001600160a01b038116811461090957600080fd5b60008060408385031215612c2457600080fd5b823591506020830135612c3681612bfc565b809150509250929050565b600060208284031215612c5357600080fd5b81356127c981612bfc565b60008083601f840112612c7057600080fd5b5081356001600160401b03811115612c8757600080fd5b6020830191508360208260051b8501011115612baa57600080fd5b801515811461090957600080fd5b60008060008060008060008060a0898b031215612ccc57600080fd5b8835612cd781612bfc565b975060208901356001600160401b0380821115612cf357600080fd5b612cff8c838d01612c5e565b909950975060408b0135915080821115612d1857600080fd5b612d248c838d01612c5e565b909750955060608b0135915080821115612d3d57600080fd5b50612d4a8b828c01612c5e565b9094509250506080890135612d5e81612ca2565b809150509295985092959890939650565b634e487b7160e01b600052604160045260246000fd5b604051601f8201601f191681016001600160401b0381118282101715612dad57612dad612d6f565b604052919050565b60006001600160401b03821115612dce57612dce612d6f565b5060051b60200190565b60006020808385031215612deb57600080fd5b82356001600160401b03811115612e0157600080fd5b8301601f81018513612e1257600080fd5b8035612e25612e2082612db5565b612d85565b81815260059190911b82018301908381019087831115612e4457600080fd5b928401925b82841015612e6b578335612e5c81612bfc565b82529284019290840190612e49565b979650505050505050565b60008060008060608587031215612e8c57600080fd5b8435612e9781612bfc565b93506020850135925060408501356001600160401b03811115612eb957600080fd5b612ec587828801612b69565b95989497509550505050565b60008060208385031215612ee457600080fd5b82356001600160401b03811115612efa57600080fd5b612f0685828601612b69565b90969095509350505050565b60005b83811015612f2d578181015183820152602001612f15565b83811115612f3c576000848401525b50505050565b60008151808452612f5a816020860160208601612f12565b601f01601f19169290920160200192915050565b6020815260006127c96020830184612f42565b60008060008060008060c08789031215612f9a57600080fd5b8635612fa581612bfc565b95506020870135612fb581612bfc565b94506040870135612fc581612bfc565b93506060870135612fd581612bfc565b92506080870135612fe581612bfc565b915060a0870135612ff581612bfc565b809150509295509295509295565b60008060008060008060008060a0898b03121561301f57600080fd5b883561302a81612bfc565b97506020890135965060408901356001600160401b038082111561304d57600080fd5b6130598c838d01612b69565b909850965060608b013591508082111561307257600080fd5b61307e8c838d01612c5e565b909650945060808b013591508082111561309757600080fd5b506130a48b828c01612c5e565b999c989b5096995094979396929594505050565b600080602083850312156130cb57600080fd5b82356001600160401b038111156130e157600080fd5b612f0685828601612c5e565b60208082526010908201526f14185d5cd8589b194e8814105554d15160821b604082015260600190565b6000613125612e2084612db5565b80848252602080830192508560051b85013681111561314357600080fd5b855b818110156131d55780356001600160401b03808211156131655760008081fd5b90880190601f368184011261317a5760008081fd5b82358281111561318c5761318c612d6f565b61319d818301601f19168801612d85565b925080835236878286010111156131b657600091508182fd5b8087850188850137600090830187015250865250938201938201613145565b50919695505050505050565b6000602082840312156131f357600080fd5b81516127c981612ca2565b634e487b7160e01b600052601160045260246000fd5b600082821015613226576132266131fe565b500390565b634e487b7160e01b600052603260045260246000fd5b6000600019821415613255576132556131fe565b5060010190565b60208152816020820152818360408301376000818301604090810191909152601f909201601f19160101919050565b60208082526022908201527f4d696e74696e674d616e616765723a20544c445f4e4f545f5245474953544552604082015261115160f21b606082015260800190565b6b756e732d646576746573742d60a01b81528183600c83013760009101600c01908152919050565b600181811c9082168061330957607f821691505b6020821081141561332a57634e487b7160e01b600052602260045260246000fd5b50919050565b60006020828403121561334257600080fd5b81516127c981612bfc565b600081518084526020808501808196508360051b8101915082860160005b85811015613395578284038952613383848351612f42565b9885019893509084019060010161336b565b5091979650505050505050565b6001600160a01b038616815260a0602082018190526000906133c69083018761334d565b82810360408401526133d8818761334d565b905082810360608401526133ec818661334d565b91505082151560808301529695505050505050565b600060018060a01b038086168352606060208401526134236060840186612f42565b9150808416604084015250949350505050565b606081526000613449606083018661334d565b828103602084015261345b818661334d565b915050826040830152949350505050565b60008161347b5761347b6131fe565b506000190190565b60008251613495818460208701612f12565b9190910192915050565b8281526040602082015260006134b86040830184612f42565b949350505050565b6020808252602b908201527f496e697469616c697a61626c653a20636f6e7472616374206973206e6f74206960408201526a6e697469616c697a696e6760a81b606082015260800190565b6000821982111561351e5761351e6131fe565b500190565b7f416363657373436f6e74726f6c3a206163636f756e742000000000000000000081526000835161355b816017850160208801612f12565b7001034b99036b4b9b9b4b733903937b6329607d1b601791840191820152835161358c816028840160208801612f12565b01602801949350505050565b60008160001904831182151516156135b2576135b26131fe565b50029056fe5496787fc1ebdfeba375028c1865f13fbb1d63c0caa356ccc1b29a80f3ebd6229f2df0fed2c77648de5860a4cc508cd0818c85b8b8a1ab4ceeef8d981c8956a6a164736f6c634300080c000a",
  "linkReferences": {},
  "deployedLinkReferences": {}
}