{
  "_format": "hh-sol-artifact-1",
  "contractName": "MintingManager",
  "sourceName": "contracts/MintingManager.sol",
  "abi": [
    {
      "anonymous": false,
      "inputs": [
        {
          "indexed": false,
          "internalType": "address",
          "name": "previousAdmin",
          "type": "address"
        },
        {
          "indexed": false,
          "internalType": "address",
          "name": "newAdmin",
          "type": "address"
        }
      ],
      "name": "AdminChanged",
      "type": "event"
    },
    {
      "anonymous": false,
      "inputs": [
        {
          "indexed": false,
          "internalType": "uint256",
          "name": "tokenId",
          "type": "uint256"
        }
      ],
      "name": "Blocked",
      "type": "event"
    },
    {
      "anonymous": false,
      "inputs": [
        {
          "indexed": false,
          "internalType": "address",
          "name": "account",
          "type": "address"
        }
      ],
      "name": "BlocklistDisabled",
      "type": "event"
    },
    {
      "anonymous": false,
      "inputs": [
        {
          "indexed": false,
          "internalType": "address",
          "name": "account",
          "type": "address"
        }
      ],
      "name": "BlocklistEnabled",
      "type": "event"
    },
    {
      "anonymous": false,
      "inputs": [
        {
          "indexed": false,
          "internalType": "uint8",
          "name": "version",
          "type": "uint8"
        }
      ],
      "name": "Initialized",
      "type": "event"
    },
    {
      "anonymous": false,
      "inputs": [
        {
          "indexed": true,
          "internalType": "uint256",
          "name": "tokenId",
          "type": "uint256"
        },
        {
          "indexed": false,
          "internalType": "string",
          "name": "tld",
          "type": "string"
        }
      ],
      "name": "NewTld",
      "type": "event"
    },
    {
      "anonymous": false,
      "inputs": [
        {
          "indexed": true,
          "internalType": "address",
          "name": "previousOwner",
          "type": "address"
        },
        {
          "indexed": true,
          "internalType": "address",
          "name": "newOwner",
          "type": "address"
        }
      ],
      "name": "OwnershipTransferred",
      "type": "event"
    },
    {
      "anonymous": false,
      "inputs": [
        {
          "indexed": false,
          "internalType": "address",
          "name": "account",
          "type": "address"
        }
      ],
      "name": "Paused",
      "type": "event"
    },
    {
      "anonymous": false,
      "inputs": [
        {
          "indexed": true,
          "internalType": "uint256",
          "name": "tokenId",
          "type": "uint256"
        }
      ],
      "name": "RemoveTld",
      "type": "event"
    },
    {
      "anonymous": false,
      "inputs": [
        {
          "indexed": true,
          "internalType": "bytes32",
          "name": "role",
          "type": "bytes32"
        },
        {
          "indexed": true,
          "internalType": "bytes32",
          "name": "previousAdminRole",
          "type": "bytes32"
        },
        {
          "indexed": true,
          "internalType": "bytes32",
          "name": "newAdminRole",
          "type": "bytes32"
        }
      ],
      "name": "RoleAdminChanged",
      "type": "event"
    },
    {
      "anonymous": false,
      "inputs": [
        {
          "indexed": true,
          "internalType": "bytes32",
          "name": "role",
          "type": "bytes32"
        },
        {
          "indexed": true,
          "internalType": "address",
          "name": "account",
          "type": "address"
        },
        {
          "indexed": true,
          "internalType": "address",
          "name": "sender",
          "type": "address"
        }
      ],
      "name": "RoleGranted",
      "type": "event"
    },
    {
      "anonymous": false,
      "inputs": [
        {
          "indexed": true,
          "internalType": "bytes32",
          "name": "role",
          "type": "bytes32"
        },
        {
          "indexed": true,
          "internalType": "address",
          "name": "account",
          "type": "address"
        },
        {
          "indexed": true,
          "internalType": "address",
          "name": "sender",
          "type": "address"
        }
      ],
      "name": "RoleRevoked",
      "type": "event"
    },
    {
      "anonymous": false,
      "inputs": [
        {
          "indexed": false,
          "internalType": "address",
          "name": "account",
          "type": "address"
        }
      ],
      "name": "Unpaused",
      "type": "event"
    },
    {
      "anonymous": false,
      "inputs": [
        {
          "indexed": true,
          "internalType": "address",
          "name": "implementation",
          "type": "address"
        }
      ],
      "name": "Upgraded",
      "type": "event"
    },
    {
      "inputs": [],
      "name": "DEFAULT_ADMIN_ROLE",
      "outputs": [
        {
          "internalType": "bytes32",
          "name": "",
          "type": "bytes32"
        }
      ],
      "stateMutability": "view",
      "type": "function"
    },
    {
      "inputs": [],
      "name": "MINTER_ROLE",
      "outputs": [
        {
          "internalType": "bytes32",
          "name": "",
          "type": "bytes32"
        }
      ],
      "stateMutability": "view",
      "type": "function"
    },
    {
      "inputs": [],
      "name": "NAME",
      "outputs": [
        {
          "internalType": "string",
          "name": "",
          "type": "string"
        }
      ],
      "stateMutability": "view",
      "type": "function"
    },
    {
      "inputs": [],
      "name": "VERSION",
      "outputs": [
        {
          "internalType": "string",
          "name": "",
          "type": "string"
        }
      ],
      "stateMutability": "view",
      "type": "function"
    },
    {
      "inputs": [
        {
          "internalType": "address",
          "name": "account",
          "type": "address"
        }
      ],
      "name": "addMinter",
      "outputs": [],
      "stateMutability": "nonpayable",
      "type": "function"
    },
    {
      "inputs": [
        {
          "internalType": "address[]",
          "name": "accounts",
          "type": "address[]"
        }
      ],
      "name": "addMinters",
      "outputs": [],
      "stateMutability": "nonpayable",
      "type": "function"
    },
    {
      "inputs": [
        {
          "internalType": "address[]",
          "name": "addrs",
          "type": "address[]"
        }
      ],
      "name": "addProxyReaders",
      "outputs": [],
      "stateMutability": "nonpayable",
      "type": "function"
    },
    {
      "inputs": [
        {
          "internalType": "string",
          "name": "tld",
          "type": "string"
        }
      ],
      "name": "addTld",
      "outputs": [],
      "stateMutability": "nonpayable",
      "type": "function"
    },
    {
      "inputs": [
        {
          "internalType": "uint256[]",
          "name": "tokenIds",
          "type": "uint256[]"
        }
      ],
      "name": "areBlocked",
      "outputs": [
        {
          "internalType": "bool[]",
          "name": "values",
          "type": "bool[]"
        }
      ],
      "stateMutability": "view",
      "type": "function"
    },
    {
      "inputs": [
        {
          "internalType": "uint256",
          "name": "tokenId",
          "type": "uint256"
        }
      ],
      "name": "blocklist",
      "outputs": [],
      "stateMutability": "nonpayable",
      "type": "function"
    },
    {
      "inputs": [
        {
          "internalType": "uint256[]",
          "name": "tokenIds",
          "type": "uint256[]"
        }
      ],
      "name": "blocklistAll",
      "outputs": [],
      "stateMutability": "nonpayable",
      "type": "function"
    },
    {
      "inputs": [
        {
          "internalType": "uint256[]",
          "name": "tokenIds",
          "type": "uint256[]"
        }
      ],
      "name": "burnTLDL1",
      "outputs": [],
      "stateMutability": "nonpayable",
      "type": "function"
    },
    {
      "inputs": [
        {
          "internalType": "uint256",
          "name": "tld",
          "type": "uint256"
        },
        {
          "internalType": "string",
          "name": "label",
          "type": "string"
        }
      ],
      "name": "claim",
      "outputs": [],
      "stateMutability": "nonpayable",
      "type": "function"
    },
    {
      "inputs": [
        {
          "internalType": "address",
          "name": "to",
          "type": "address"
        },
        {
          "internalType": "uint256",
          "name": "tld",
          "type": "uint256"
        },
        {
          "internalType": "string",
          "name": "label",
          "type": "string"
        }
      ],
      "name": "claimTo",
      "outputs": [],
      "stateMutability": "nonpayable",
      "type": "function"
    },
    {
      "inputs": [
        {
          "internalType": "address",
          "name": "to",
          "type": "address"
        },
        {
          "internalType": "uint256",
          "name": "tld",
          "type": "uint256"
        },
        {
          "internalType": "string",
          "name": "label",
          "type": "string"
        },
        {
          "internalType": "string[]",
          "name": "keys",
          "type": "string[]"
        },
        {
          "internalType": "string[]",
          "name": "values",
          "type": "string[]"
        }
      ],
      "name": "claimToWithRecords",
      "outputs": [],
      "stateMutability": "nonpayable",
      "type": "function"
    },
    {
      "inputs": [
        {
          "internalType": "address payable",
          "name": "receiver",
          "type": "address"
        }
      ],
      "name": "closeMinter",
      "outputs": [],
      "stateMutability": "payable",
      "type": "function"
    },
    {
      "inputs": [],
      "name": "cnsMintingController",
      "outputs": [
        {
          "internalType": "contract IMintingController",
          "name": "",
          "type": "address"
        }
      ],
      "stateMutability": "view",
      "type": "function"
    },
    {
      "inputs": [],
      "name": "cnsResolver",
      "outputs": [
        {
          "internalType": "contract IResolver",
          "name": "",
          "type": "address"
        }
      ],
      "stateMutability": "view",
      "type": "function"
    },
    {
      "inputs": [],
      "name": "cnsURIPrefixController",
      "outputs": [
        {
          "internalType": "contract IURIPrefixController",
          "name": "",
          "type": "address"
        }
      ],
      "stateMutability": "view",
      "type": "function"
    },
    {
      "inputs": [],
      "name": "disableBlocklist",
      "outputs": [],
      "stateMutability": "nonpayable",
      "type": "function"
    },
    {
      "inputs": [],
      "name": "enableBlocklist",
      "outputs": [],
      "stateMutability": "nonpayable",
      "type": "function"
    },
    {
      "inputs": [
        {
          "internalType": "bytes32",
          "name": "role",
          "type": "bytes32"
        }
      ],
      "name": "getRoleAdmin",
      "outputs": [
        {
          "internalType": "bytes32",
          "name": "",
          "type": "bytes32"
        }
      ],
      "stateMutability": "view",
      "type": "function"
    },
    {
      "inputs": [
        {
          "internalType": "bytes32",
          "name": "role",
          "type": "bytes32"
        },
        {
          "internalType": "address",
          "name": "account",
          "type": "address"
        }
      ],
      "name": "grantRole",
      "outputs": [],
      "stateMutability": "nonpayable",
      "type": "function"
    },
    {
      "inputs": [
        {
          "internalType": "bytes32",
          "name": "role",
          "type": "bytes32"
        },
        {
          "internalType": "address",
          "name": "account",
          "type": "address"
        }
      ],
      "name": "hasRole",
      "outputs": [
        {
          "internalType": "bool",
          "name": "",
          "type": "bool"
        }
      ],
      "stateMutability": "view",
      "type": "function"
    },
    {
      "inputs": [
        {
          "internalType": "contract IUNSRegistry",
          "name": "unsRegistry_",
          "type": "address"
        },
        {
          "internalType": "contract IMintingController",
          "name": "cnsMintingController_",
          "type": "address"
        },
        {
          "internalType": "contract IURIPrefixController",
          "name": "cnsURIPrefixController_",
          "type": "address"
        },
        {
          "internalType": "contract IResolver",
          "name": "cnsResolver_",
          "type": "address"
        },
        {
          "internalType": "address",
          "name": "forwarder",
          "type": "address"
        }
      ],
      "name": "initialize",
      "outputs": [],
      "stateMutability": "nonpayable",
      "type": "function"
    },
    {
      "inputs": [
        {
          "internalType": "uint256",
          "name": "tokenId",
          "type": "uint256"
        }
      ],
      "name": "isBlocked",
      "outputs": [
        {
          "internalType": "bool",
          "name": "",
          "type": "bool"
        }
      ],
      "stateMutability": "view",
      "type": "function"
    },
    {
      "inputs": [],
      "name": "isBlocklistDisabled",
      "outputs": [
        {
          "internalType": "bool",
          "name": "",
          "type": "bool"
        }
      ],
      "stateMutability": "view",
      "type": "function"
    },
    {
      "inputs": [
        {
          "internalType": "address",
          "name": "account",
          "type": "address"
        }
      ],
      "name": "isMinter",
      "outputs": [
        {
          "internalType": "bool",
          "name": "",
          "type": "bool"
        }
      ],
      "stateMutability": "view",
      "type": "function"
    },
    {
      "inputs": [
        {
          "internalType": "address",
          "name": "forwarder",
          "type": "address"
        }
      ],
      "name": "isTrustedForwarder",
      "outputs": [
        {
          "internalType": "bool",
          "name": "",
          "type": "bool"
        }
      ],
      "stateMutability": "view",
      "type": "function"
    },
    {
      "inputs": [
        {
          "internalType": "address",
          "name": "to",
          "type": "address"
        },
        {
          "internalType": "uint256",
          "name": "tld",
          "type": "uint256"
        },
        {
          "internalType": "string",
          "name": "label",
          "type": "string"
        }
      ],
      "name": "mintSLD",
      "outputs": [],
      "stateMutability": "nonpayable",
      "type": "function"
    },
    {
      "inputs": [
        {
          "internalType": "address",
          "name": "to",
          "type": "address"
        },
        {
          "internalType": "uint256",
          "name": "tld",
          "type": "uint256"
        },
        {
          "internalType": "string",
          "name": "label",
          "type": "string"
        },
        {
          "internalType": "string[]",
          "name": "keys",
          "type": "string[]"
        },
        {
          "internalType": "string[]",
          "name": "values",
          "type": "string[]"
        }
      ],
      "name": "mintSLDWithRecords",
      "outputs": [],
      "stateMutability": "nonpayable",
      "type": "function"
    },
    {
      "inputs": [
        {
          "internalType": "uint256[]",
          "name": "tokenIds",
          "type": "uint256[]"
        }
      ],
      "name": "moveTLDOwnershipL2",
      "outputs": [],
      "stateMutability": "nonpayable",
      "type": "function"
    },
    {
      "inputs": [],
      "name": "owner",
      "outputs": [
        {
          "internalType": "address",
          "name": "",
          "type": "address"
        }
      ],
      "stateMutability": "view",
      "type": "function"
    },
    {
      "inputs": [],
      "name": "pause",
      "outputs": [],
      "stateMutability": "nonpayable",
      "type": "function"
    },
    {
      "inputs": [],
      "name": "paused",
      "outputs": [
        {
          "internalType": "bool",
          "name": "",
          "type": "bool"
        }
      ],
      "stateMutability": "view",
      "type": "function"
    },
    {
      "inputs": [
        {
          "internalType": "address",
          "name": "account",
          "type": "address"
        }
      ],
      "name": "removeMinter",
      "outputs": [],
      "stateMutability": "nonpayable",
      "type": "function"
    },
    {
      "inputs": [
        {
          "internalType": "address[]",
          "name": "accounts",
          "type": "address[]"
        }
      ],
      "name": "removeMinters",
      "outputs": [],
      "stateMutability": "nonpayable",
      "type": "function"
    },
    {
      "inputs": [
        {
          "internalType": "uint256",
          "name": "tld",
          "type": "uint256"
        }
      ],
      "name": "removeTld",
      "outputs": [],
      "stateMutability": "nonpayable",
      "type": "function"
    },
    {
      "inputs": [],
      "name": "renounceMinter",
      "outputs": [],
      "stateMutability": "nonpayable",
      "type": "function"
    },
    {
      "inputs": [],
      "name": "renounceOwnership",
      "outputs": [],
      "stateMutability": "nonpayable",
      "type": "function"
    },
    {
      "inputs": [
        {
          "internalType": "bytes32",
          "name": "role",
          "type": "bytes32"
        },
        {
          "internalType": "address",
          "name": "account",
          "type": "address"
        }
      ],
      "name": "renounceRole",
      "outputs": [],
      "stateMutability": "nonpayable",
      "type": "function"
    },
    {
      "inputs": [
        {
          "internalType": "bytes32",
          "name": "role",
          "type": "bytes32"
        },
        {
          "internalType": "address",
          "name": "account",
          "type": "address"
        }
      ],
      "name": "revokeRole",
      "outputs": [],
      "stateMutability": "nonpayable",
      "type": "function"
    },
    {
      "inputs": [
        {
          "internalType": "address payable",
          "name": "receiver",
          "type": "address"
        }
      ],
      "name": "rotateMinter",
      "outputs": [],
      "stateMutability": "payable",
      "type": "function"
    },
    {
      "inputs": [
        {
          "internalType": "address",
          "name": "to",
          "type": "address"
        },
        {
          "internalType": "uint256",
          "name": "tld",
          "type": "uint256"
        },
        {
          "internalType": "string",
          "name": "label",
          "type": "string"
        }
      ],
      "name": "safeMintSLD",
      "outputs": [],
      "stateMutability": "nonpayable",
      "type": "function"
    },
    {
      "inputs": [
        {
          "internalType": "address",
          "name": "to",
          "type": "address"
        },
        {
          "internalType": "uint256",
          "name": "tld",
          "type": "uint256"
        },
        {
          "internalType": "string",
          "name": "label",
          "type": "string"
        },
        {
          "internalType": "bytes",
          "name": "data",
          "type": "bytes"
        }
      ],
      "name": "safeMintSLD",
      "outputs": [],
      "stateMutability": "nonpayable",
      "type": "function"
    },
    {
      "inputs": [
        {
          "internalType": "address",
          "name": "to",
          "type": "address"
        },
        {
          "internalType": "uint256",
          "name": "tld",
          "type": "uint256"
        },
        {
          "internalType": "string",
          "name": "label",
          "type": "string"
        },
        {
          "internalType": "string[]",
          "name": "keys",
          "type": "string[]"
        },
        {
          "internalType": "string[]",
          "name": "values",
          "type": "string[]"
        }
      ],
      "name": "safeMintSLDWithRecords",
      "outputs": [],
      "stateMutability": "nonpayable",
      "type": "function"
    },
    {
      "inputs": [
        {
          "internalType": "address",
          "name": "to",
          "type": "address"
        },
        {
          "internalType": "uint256",
          "name": "tld",
          "type": "uint256"
        },
        {
          "internalType": "string",
          "name": "label",
          "type": "string"
        },
        {
          "internalType": "string[]",
          "name": "keys",
          "type": "string[]"
        },
        {
          "internalType": "string[]",
          "name": "values",
          "type": "string[]"
        },
        {
          "internalType": "bytes",
          "name": "data",
          "type": "bytes"
        }
      ],
      "name": "safeMintSLDWithRecords",
      "outputs": [],
      "stateMutability": "nonpayable",
      "type": "function"
    },
    {
      "inputs": [
        {
          "internalType": "address",
          "name": "forwarder",
          "type": "address"
        }
      ],
      "name": "setForwarder",
      "outputs": [],
      "stateMutability": "nonpayable",
      "type": "function"
    },
    {
      "inputs": [
        {
          "internalType": "address",
          "name": "resolver",
          "type": "address"
        }
      ],
      "name": "setResolver",
      "outputs": [],
      "stateMutability": "nonpayable",
      "type": "function"
    },
    {
      "inputs": [
        {
          "internalType": "string",
          "name": "prefix",
          "type": "string"
        }
      ],
      "name": "setTokenURIPrefix",
      "outputs": [],
      "stateMutability": "nonpayable",
      "type": "function"
    },
    {
      "inputs": [
        {
          "internalType": "bytes4",
          "name": "interfaceId",
          "type": "bytes4"
        }
      ],
      "name": "supportsInterface",
      "outputs": [
        {
          "internalType": "bool",
          "name": "",
          "type": "bool"
        }
      ],
      "stateMutability": "view",
      "type": "function"
    },
    {
      "inputs": [
        {
          "internalType": "address",
          "name": "newOwner",
          "type": "address"
        }
      ],
      "name": "transferOwnership",
      "outputs": [],
      "stateMutability": "nonpayable",
      "type": "function"
    },
    {
      "inputs": [],
      "name": "unpause",
      "outputs": [],
      "stateMutability": "nonpayable",
      "type": "function"
    },
    {
      "inputs": [],
      "name": "unsRegistry",
      "outputs": [
        {
          "internalType": "contract IUNSRegistry",
          "name": "",
          "type": "address"
        }
      ],
      "stateMutability": "view",
      "type": "function"
    },
    {
      "inputs": [
        {
          "internalType": "uint256[]",
          "name": "tokenIds",
          "type": "uint256[]"
        }
      ],
      "name": "upgradeAll",
      "outputs": [],
      "stateMutability": "nonpayable",
      "type": "function"
    }
  ],
  "bytecode": "0x608060405234801561001057600080fd5b50614518806100206000396000f3fe6080604052600436106103505760003560e01c806371e2a657116101c6578063ae2ad903116100f7578063d1f5692c11610095578063e47d6cc61161006f578063e47d6cc6146109ed578063ec52738914610a0d578063f2fde38b14610a2d578063ffa1ad7414610a4d57600080fd5b8063d1f5692c1461098b578063d5391393146109ab578063d547741f146109cd57600080fd5b8063b9998a24116100d1578063b9998a241461090b578063c3a3bc001461092b578063cc2c3fc41461094b578063ceeb4f501461096b57600080fd5b8063ae2ad903146108ab578063ae31844a146108cb578063b0aa98c7146108eb57600080fd5b8063983b2d5611610164578063a217fddf1161013e578063a217fddf14610809578063a3f4df7e1461081e578063a849d65c1461086b578063aa271e1a1461088b57600080fd5b8063983b2d56146107b457806398650275146107d457806399e0dd7c146107e957600080fd5b80638da5cb5b116101a05780638da5cb5b14610741578063906cecc11461075f57806390dbdb5a1461077f57806391d148541461079457600080fd5b806371e2a657146106f957806381c81d35146107195780638456cb591461072c57600080fd5b80633f41b614116102a05780635b6fa8db1161023e578063634486da11610218578063634486da146106915780636a2d2256146106a45780636bfdcbf4146106c4578063715018a6146106e457600080fd5b80635b6fa8db1461063c5780635c975abb1461065c5780635fc1964f1461067157600080fd5b80634c1819e01161027a5780634c1819e01461058e5780634e543b26146105ae578063572b6c05146105ce57806358839d6b1461061c57600080fd5b80633f41b614146105215780633f4ba83a14610559578063463c4bcb1461056e57600080fd5b8063268b15ed1161030d5780632f2ff15d116102e75780632f2ff15d146104a15780633092afd5146104c157806336568abe146104e157806339ccf4d01461050157600080fd5b8063268b15ed1461044c57806327bbd2251461046c5780632eff1a951461048c57600080fd5b806301ffc9a7146103555780630ca48a411461038a5780630e36a87d146103ac57806310921f12146103d95780631459457a146103ee578063248a9ca31461040e575b600080fd5b34801561036157600080fd5b50610375610370366004613be9565b610a7e565b60405190151581526020015b60405180910390f35b34801561039657600080fd5b506103aa6103a5366004613a7d565b610ab5565b005b3480156103b857600080fd5b506103cc6103c7366004613a7d565b610be8565b604051610381919061415f565b3480156103e557600080fd5b50610375610cbf565b3480156103fa57600080fd5b506103aa610409366004613c11565b610cda565b34801561041a57600080fd5b5061043e610429366004613ba2565b60009081526097602052604090206001015490565b604051908152602001610381565b34801561045857600080fd5b506103aa610467366004613cb4565b611008565b34801561047857600080fd5b506103aa610487366004613869565b61110a565b34801561049857600080fd5b506103aa61126e565b3480156104ad57600080fd5b506103aa6104bc366004613bba565b611280565b3480156104cd57600080fd5b506103aa6104dc3660046137f4565b6112a5565b3480156104ed57600080fd5b506103aa6104fc366004613bba565b6112b9565b34801561050d57600080fd5b506103aa61051c366004613869565b611347565b34801561052d57600080fd5b5060c954610541906001600160a01b031681565b6040516001600160a01b039091168152602001610381565b34801561056557600080fd5b506103aa611490565b34801561057a57600080fd5b506103aa610589366004613ba2565b6114a0565b34801561059a57600080fd5b506103aa6105a9366004613810565b6114d0565b3480156105ba57600080fd5b506103aa6105c93660046137f4565b6115f7565b3480156105da57600080fd5b506103756105e93660046137f4565b7f893ef2ea16c023f61d4f55d3e6ee3fc3f2fbfd478461323dbc2fbf919047086e546001600160a01b0390811691161490565b34801561062857600080fd5b506103aa6106373660046139f5565b611621565b34801561064857600080fd5b5060cc54610541906001600160a01b031681565b34801561066857600080fd5b50610375611771565b34801561067d57600080fd5b506103aa61068c366004613abc565b611787565b6103aa61069f3660046137f4565b6117dd565b3480156106b057600080fd5b506103aa6106bf36600461391a565b6118a0565b3480156106d057600080fd5b506103aa6106df366004613a7d565b611a3b565b3480156106f057600080fd5b506103aa611b58565b34801561070557600080fd5b506103aa610714366004613abc565b611b6a565b6103aa6107273660046137f4565b611bc0565b34801561073857600080fd5b506103aa611c3d565b34801561074d57600080fd5b506033546001600160a01b0316610541565b34801561076b57600080fd5b506103aa61077a366004613810565b611c4d565b34801561078b57600080fd5b506103aa611d37565b3480156107a057600080fd5b506103756107af366004613bba565b611d47565b3480156107c057600080fd5b506103aa6107cf3660046137f4565b611d72565b3480156107e057600080fd5b506103aa611d83565b3480156107f557600080fd5b506103aa610804366004613c81565b611d9d565b34801561081557600080fd5b5061043e600081565b34801561082a57600080fd5b5061085e604051806040016040528060148152602001732aa7299d1026b4b73a34b7339026b0b730b3b2b960611b81525081565b6040516103819190614235565b34801561087757600080fd5b5060cb54610541906001600160a01b031681565b34801561089757600080fd5b506103756108a63660046137f4565b611e7c565b3480156108b757600080fd5b506103aa6108c6366004613810565b611e96565b3480156108d757600080fd5b506103aa6108e6366004613a7d565b611fd9565b3480156108f757600080fd5b50610375610906366004613ba2565b612032565b34801561091757600080fd5b506103aa6109263660046137f4565b61209f565b34801561093757600080fd5b506103aa610946366004613c81565b6120e4565b34801561095757600080fd5b5060ca54610541906001600160a01b031681565b34801561097757600080fd5b506103aa610986366004613869565b61212b565b34801561099757600080fd5b506103aa6109a6366004613a7d565b61221e565b3480156109b757600080fd5b5061043e6000805160206144ec83398151915281565b3480156109d957600080fd5b506103aa6109e8366004613bba565b6122e3565b3480156109f957600080fd5b506103aa610a08366004613a7d565b612308565b348015610a1957600080fd5b506103aa610a28366004613ba2565b612339565b348015610a3957600080fd5b506103aa610a483660046137f4565b6123ab565b348015610a5957600080fd5b5061085e60405180604001604052806005815260200164302e332e3560d81b81525081565b60006001600160e01b03198216637965db0b60e01b1480610aaf57506301ffc9a760e01b6001600160e01b03198316145b92915050565b610abd6123c7565b60005b81811015610be357610af7838383818110610aeb57634e487b7160e01b600052603260045260246000fd5b90506020020135612440565b610b485760405162461bcd60e51b815260206004820181905260248201527f4d696e74696e674d616e616765723a20544f4b454e5f49445f4e4f545f544c4460448201526064015b60405180910390fd5b60c9546001600160a01b031663df454285848484818110610b7957634e487b7160e01b600052603260045260246000fd5b905060200201356040518263ffffffff1660e01b8152600401610b9e91815260200190565b600060405180830381600087803b158015610bb857600080fd5b505af1158015610bcc573d6000803e3d6000fd5b505050508080610bdb9061442f565b915050610ac0565b505050565b6060816001600160401b03811115610c1057634e487b7160e01b600052604160045260246000fd5b604051908082528060200260200182016040528015610c39578160200160208202803683370190505b50905060005b82811015610cb857610c76848483818110610c6a57634e487b7160e01b600052603260045260246000fd5b90506020020135612032565b828281518110610c9657634e487b7160e01b600052603260045260246000fd5b9115156020928302919091019091015280610cb08161442f565b915050610c3f565b5092915050565b60006000805160206144ac8339815191525b5460ff16919050565b600054610100900460ff1615808015610cfa5750600054600160ff909116105b80610d145750303b158015610d14575060005460ff166001145b610d775760405162461bcd60e51b815260206004820152602e60248201527f496e697469616c697a61626c653a20636f6e747261637420697320616c72656160448201526d191e481a5b9a5d1a585b1a5e995960921b6064820152608401610b3f565b6000805460ff191660011790558015610d9a576000805461ff0019166101001790555b60c980546001600160a01b038089166001600160a01b03199283161790925560ca805488841690831617905560cb805487841690831617905560cc805492861692909116919091179055610dec61248b565b610df46124c2565b610dfd826124fb565b610e05612522565b610e0d61256c565b604080516101a081018252600661016082018181526563727970746f60d01b610180840152825282518084018452908152651dd85b1b195d60d21b602082810191909152808301919091528251808401845260018152600f60fb1b8183015282840152825180840184526003808252621b999d60ea1b82840152606084019190915283518085018552600a815269313637b1b5b1b430b4b760b11b818401526080840152835180850185526007808252663134ba31b7b4b760c91b8285015260a0850191909152845180860186528281526207070760eb1b8185015260c0850152845180860186528281526264616f60e81b8185015260e085015284518086018652918252621e9a5b60ea1b8284015261010084019190915283518085018552908152663837b63cb3b7b760c91b818301526101208301528251808401909352600b83526a756e73746f707061626c6560a81b9083015261014081019190915260005b600b811015610fb857610fa68282600b8110610f9c57634e487b7160e01b600052603260045260246000fd5b60200201516125a9565b80610fb08161442f565b915050610f70565b50508015611000576000805461ff0019169055604051600181527f7f26b83ff96e1f2b6a682f133852f6798a09c465da95921460cefb38474024989060200160405180910390a15b505050505050565b8282828080601f01602080910402602001604051908101604052809392919081815260200183838082843760009201919091525061104b92508491506126c99050565b6110675760405162461bcd60e51b8152600401610b3f906142ed565b6000611072826126ef565b9050600a816000015111156110ca5761109d611091826000600a61271c565b80516020909101512090565b6000805160206144cc83398151915214156110ca5760405162461bcd60e51b8152600401610b3f90614248565b6110d2611771565b156110ef5760405162461bcd60e51b8152600401610b3f906142c3565b6110006110fa61275b565b87611105888861276a565b612796565b6111156108a661275b565b6111315760405162461bcd60e51b8152600401610b3f9061428e565b8686868080601f01602080910402602001604051908101604052809392919081815260200183838082843760009201919091525061117492508491506126c99050565b6111905760405162461bcd60e51b8152600401610b3f906142ed565b600061119b826126ef565b9050600a816000015111156111e7576111ba611091826000600a61271c565b6000805160206144cc83398151915214156111e75760405162461bcd60e51b8152600401610b3f90614248565b6111ef611771565b1561120c5760405162461bcd60e51b8152600401610b3f906142c3565b6112618b8b8b8b8080601f016020809104026020016040519081016040528093929190818152602001838380828437600092018290525060408051602081019091529081528e93508d92508c91508b9061289d565b5050505050505050505050565b6112766123c7565b61127e612a18565b565b60008281526097602052604090206001015461129b81612ac3565b610be38383612ad4565b6112ad6123c7565b6112b681612b5b565b50565b6112c161275b565b6001600160a01b0316816001600160a01b0316146113395760405162461bcd60e51b815260206004820152602f60248201527f416363657373436f6e74726f6c3a2063616e206f6e6c792072656e6f756e636560448201526e103937b632b9903337b91039b2b63360891b6064820152608401610b3f565b6113438282612b73565b5050565b6113526108a661275b565b61136e5760405162461bcd60e51b8152600401610b3f9061428e565b8686868080601f0160208091040260200160405190810160405280939291908181526020018383808284376000920191909152506113b192508491506126c99050565b6113cd5760405162461bcd60e51b8152600401610b3f906142ed565b60006113d8826126ef565b9050600a81600001511115611424576113f7611091826000600a61271c565b6000805160206144cc83398151915214156114245760405162461bcd60e51b8152600401610b3f90614248565b61142c611771565b156114495760405162461bcd60e51b8152600401610b3f906142c3565b6112618b8b8b8b8080601f0160208091040260200160405190810160405280939291908181526020018383808284376000920191909152508d92508c91508b90508a612bf8565b6114986123c7565b61127e612d7d565b6114ab6108a661275b565b6114c75760405162461bcd60e51b8152600401610b3f9061428e565b6112b681612e08565b6114db6108a661275b565b6114f75760405162461bcd60e51b8152600401610b3f9061428e565b8282828080601f01602080910402602001604051908101604052809392919081815260200183838082843760009201919091525061153a92508491506126c99050565b6115565760405162461bcd60e51b8152600401610b3f906142ed565b6000611561826126ef565b9050600a816000015111156115ad57611580611091826000600a61271c565b6000805160206144cc83398151915214156115ad5760405162461bcd60e51b8152600401610b3f90614248565b6115b5611771565b156115d25760405162461bcd60e51b8152600401610b3f906142c3565b6115ee8787878760405180602001604052806000815250612ed7565b50505050505050565b6115ff6123c7565b60cc80546001600160a01b0319166001600160a01b0392909216919091179055565b61162c6108a661275b565b6116485760405162461bcd60e51b8152600401610b3f9061428e565b8484848080601f01602080910402602001604051908101604052809392919081815260200183838082843760009201919091525061168b92508491506126c99050565b6116a75760405162461bcd60e51b8152600401610b3f906142ed565b60006116b2826126ef565b9050600a816000015111156116fe576116d1611091826000600a61271c565b6000805160206144cc83398151915214156116fe5760405162461bcd60e51b8152600401610b3f90614248565b611706611771565b156117235760405162461bcd60e51b8152600401610b3f906142c3565b6117668989898989898080601f016020809104026020016040519081016040528093929190818152602001838380828437600092019190915250612ed792505050565b505050505050505050565b600060008051602061448c833981519152610cd1565b61178f6123c7565b60005b8151811015611343576117cb8282815181106117be57634e487b7160e01b600052603260045260246000fd5b6020026020010151612b5b565b806117d58161442f565b915050611792565b6117e86108a661275b565b6118045760405162461bcd60e51b8152600401610b3f9061428e565b6001600160a01b03811661185a5760405162461bcd60e51b815260206004820152601d60248201527f4d696e746572526f6c653a2052454345495645525f49535f454d5054590000006044820152606401610b3f565b61186381613057565b61186b611d83565b6040516001600160a01b038216903480156108fc02916000818181858888f19350505050158015611343573d6000803e3d6000fd5b6118ab6108a661275b565b6118c75760405162461bcd60e51b8152600401610b3f9061428e565b8888888080601f01602080910402602001604051908101604052809392919081815260200183838082843760009201919091525061190a92508491506126c99050565b6119265760405162461bcd60e51b8152600401610b3f906142ed565b6000611931826126ef565b9050600a8160000151111561197d57611950611091826000600a61271c565b6000805160206144cc833981519152141561197d5760405162461bcd60e51b8152600401610b3f90614248565b611985611771565b156119a25760405162461bcd60e51b8152600401610b3f906142c3565b611a2c8d8d8d8d8080601f016020809104026020016040519081016040528093929190818152602001838380828437600081840152601f19601f820116905080830192505050505050508c8c8c8c8c8c8080601f01602080910402602001604051908101604052809392919081815260200183838082843760009201919091525061289d92505050565b50505050505050505050505050565b611a436123c7565b60005b81811015610be357611a71838383818110610aeb57634e487b7160e01b600052603260045260246000fd5b611abd5760405162461bcd60e51b815260206004820181905260248201527f4d696e74696e674d616e616765723a20544f4b454e5f49445f4e4f545f544c446044820152606401610b3f565b60c9546001600160a01b031663d0bc28d7848484818110611aee57634e487b7160e01b600052603260045260246000fd5b905060200201356040518263ffffffff1660e01b8152600401611b1391815260200190565b600060405180830381600087803b158015611b2d57600080fd5b505af1158015611b41573d6000803e3d6000fd5b505050508080611b509061442f565b915050611a46565b611b606123c7565b61127e600061306f565b611b726123c7565b60005b815181101561134357611bae828281518110611ba157634e487b7160e01b600052603260045260246000fd5b6020026020010151613057565b80611bb88161442f565b915050611b75565b611bcb6108a661275b565b611be75760405162461bcd60e51b8152600401610b3f9061428e565b6001600160a01b0381166118635760405162461bcd60e51b815260206004820152601d60248201527f4d696e746572526f6c653a2052454345495645525f49535f454d5054590000006044820152606401610b3f565b611c456123c7565b61127e6130c1565b8282828080601f016020809104026020016040519081016040528093929190818152602001838380828437600092019190915250611c9092508491506126c99050565b611cac5760405162461bcd60e51b8152600401610b3f906142ed565b6000611cb7826126ef565b9050600a81600001511115611d0357611cd6611091826000600a61271c565b6000805160206144cc8339815191521415611d035760405162461bcd60e51b8152600401610b3f90614248565b611d0b611771565b15611d285760405162461bcd60e51b8152600401610b3f906142c3565b6115ee8787611105888861276a565b611d3f6123c7565b61127e613129565b60009182526097602090815260408084206001600160a01b0393909316845291905290205460ff1690565b611d7a6123c7565b6112b681613057565b61127e6000805160206144ec8339815191526104fc61275b565b611da56123c7565b60c954604051632678375f60e21b81526001600160a01b03909116906399e0dd7c90611dd79085908590600401614219565b600060405180830381600087803b158015611df157600080fd5b505af1158015611e05573d6000803e3d6000fd5b505060cb546001600160a01b031615915061134390505760cb54604051632678375f60e21b81526001600160a01b03909116906399e0dd7c90611e4e9085908590600401614219565b600060405180830381600087803b158015611e6857600080fd5b505af1158015611000573d6000803e3d6000fd5b6000610aaf6000805160206144ec83398151915283611d47565b611ea16108a661275b565b611ebd5760405162461bcd60e51b8152600401610b3f9061428e565b8282828080601f016020809104026020016040519081016040528093929190818152602001838380828437600092019190915250611f0092508491506126c99050565b611f1c5760405162461bcd60e51b8152600401610b3f906142ed565b6000611f27826126ef565b9050600a81600001511115611f7357611f46611091826000600a61271c565b6000805160206144cc8339815191521415611f735760405162461bcd60e51b8152600401610b3f90614248565b611f7b611771565b15611f985760405162461bcd60e51b8152600401610b3f906142c3565b6115ee878787878080601f01602080910402602001604051908101604052809392919081815260200183838082843760009201919091525061279692505050565b611fe46108a661275b565b6120005760405162461bcd60e51b8152600401610b3f9061428e565b60c954604051635718c22560e11b81526001600160a01b039091169063ae31844a90611e4e90859085906004016141df565b600061203c610cbf565b158015610aaf5750604080517f1ec047073e2c8b15660901dbfdb6e3ff6365bd699dd9f95dcc6eab5448bebd696020820152908101839052612095906060015b6040516020818303038152906040528051906020012090565b5460ff1692915050565b6120a76123c7565b7f893ef2ea16c023f61d4f55d3e6ee3fc3f2fbfd478461323dbc2fbf919047086e80546001600160a01b0319166001600160a01b03831617905550565b6120ec6123c7565b61134382828080601f0160208091040260200160405190810160405280939291908181526020018383808284376000920191909152506125a992505050565b8686868080601f01602080910402602001604051908101604052809392919081815260200183838082843760009201919091525061216e92508491506126c99050565b61218a5760405162461bcd60e51b8152600401610b3f906142ed565b6000612195826126ef565b9050600a816000015111156121e1576121b4611091826000600a61271c565b6000805160206144cc83398151915214156121e15760405162461bcd60e51b8152600401610b3f90614248565b6121e9611771565b156122065760405162461bcd60e51b8152600401610b3f906142c3565b6112618b8b6122158c8c61276a565b8a8a8a8a612bf8565b6122266123c7565b60005b81811015610be35760c9546001600160a01b0316635096023984848481811061226257634e487b7160e01b600052603260045260246000fd5b905060200201602081019061227791906137f4565b6040516001600160e01b031960e084901b1681526001600160a01b039091166004820152602401600060405180830381600087803b1580156122b857600080fd5b505af11580156122cc573d6000803e3d6000fd5b5050505080806122db9061442f565b915050612229565b6000828152609760205260409020600101546122fe81612ac3565b610be38383612b73565b6123136108a661275b565b61232f5760405162461bcd60e51b8152600401610b3f9061428e565b61134382826131b2565b6123416123c7565b61234a816126c9565b6123665760405162461bcd60e51b8152600401610b3f906142ed565b600081815260cd6020526040812061237d91613689565b60405181907f0aa1aff0f830e739d86baf0e6624d6763da02f7733575e0e463886cd062dea6a90600090a250565b6123b36123c7565b6123bc816131fe565b6112b6600082613274565b6123cf61275b565b6001600160a01b03166123ea6033546001600160a01b031690565b6001600160a01b03161461127e5760405162461bcd60e51b815260206004820181905260248201527f4f776e61626c653a2063616c6c6572206973206e6f7420746865206f776e65726044820152606401610b3f565b600081815260cd60205260408120805482919061245c906143f4565b90501180610aaf5750507f7674e7282552c15f203b9c4a6025aeaf28176ef7f5451b280f9bada3f8bc98e21490565b600054610100900460ff166124b25760405162461bcd60e51b8152600401610b3f9061432f565b61127e6124bd61275b565b61306f565b600054610100900460ff166124e95760405162461bcd60e51b8152600401610b3f9061432f565b61127e60006124f661275b565b613274565b600054610100900460ff166120a75760405162461bcd60e51b8152600401610b3f9061432f565b600054610100900460ff166125495760405162461bcd60e51b8152600401610b3f9061432f565b60006000805160206144ac8339815191525b805460ff1916911515919091179055565b600054610100900460ff166125935760405162461bcd60e51b8152600401610b3f9061432f565b600060008051602061448c83398151915261255b565b60006125b660008361327e565b600081815260cd6020908152604090912084519293506125da9290918501906136c3565b50807f4fce6f6e172b04eaa80325d8e3b0180a34945000f3e214605039e8420fdf89808360405161260b9190614235565b60405180910390a260c954604051634f558e7960e01b8152600481018390526001600160a01b0390911690634f558e799060240160206040518083038186803b15801561265757600080fd5b505afa15801561266b573d6000803e3d6000fd5b505050506040513d601f19601f8201168201806040525081019061268f9190613b82565b6113435760c9546040516334ff261960e21b81526001600160a01b039091169063d3fc986490611e4e9061dead908590879060040161401c565b600081815260cd6020526040812080548291906126e5906143f4565b9050119050919050565b60408051808201825260008082526020918201528151808301909252825182529182019181019190915290565b60408051808201909152600080825260208201526040518060400160405280838152602001848660200151612751919061437a565b9052949350505050565b6000612765613333565b905090565b6060828260405160200161277f929190613eb8565b604051602081830303815290604052905092915050565b60006127a2838361327e565b90506127ad8161337a565b6127b6836133dc565b156128295760ca5460cc5460405163c36c212560e01b81526001600160a01b039283169263c36c2125926127f292899288921690600401613f9f565b600060405180830381600087803b15801561280c57600080fd5b505af1158015612820573d6000803e3d6000fd5b50505050612897565b60c9546001600160a01b031663d3fc98648583612846878761341a565b6040518463ffffffff1660e01b81526004016128649392919061401c565b600060405180830381600087803b15801561287e57600080fd5b505af1158015612892573d6000803e3d6000fd5b505050505b50505050565b60006128a9888861327e565b90506128b48161337a565b6128bd886133dc565b156129a55760ca5460cc54604051630f95e75b60e31b81526001600160a01b0392831692637caf3ad8926128fb928e928d9216908890600401613fd4565b600060405180830381600087803b15801561291557600080fd5b505af1158015612929573d6000803e3d6000fd5b5050861591506129a090505760cc54604051633a0deb9d60e21b81526001600160a01b039091169063e837ae749061296d90899089908990899088906004016141a5565b600060405180830381600087803b15801561298757600080fd5b505af115801561299b573d6000803e3d6000fd5b505050505b611766565b60c9546001600160a01b031663efda4d3e8a836129c28c8c61341a565b8a8a8a8a8a6040518963ffffffff1660e01b81526004016129ea9897969594939291906140a9565b600060405180830381600087803b158015612a0457600080fd5b505af1158015611a2c573d6000803e3d6000fd5b612a20610cbf565b15612a635760405162461bcd60e51b8152602060048201526013602482015272109b1bd8dadb1a5cdd0e88111254d050931151606a1b6044820152606401610b3f565b6000805160206144ac833981519152805460ff191660011790557f079c4efaefd9fc7ddb28144b9b0140c03f42922d28d0e226369d607092158166612aa661275b565b6040516001600160a01b03909116815260200160405180910390a1565b6112b681612acf61275b565b61343d565b612ade8282611d47565b6113435760008281526097602090815260408083206001600160a01b03851684529091529020805460ff19166001179055612b1761275b565b6001600160a01b0316816001600160a01b0316837f2f8788117e7eff1d82e926ec794901d17c78024a50270940304540a733656f0d60405160405180910390a45050565b6112b66000805160206144ec833981519152826122e3565b612b7d8282611d47565b156113435760008281526097602090815260408083206001600160a01b03851684529091529020805460ff19169055612bb461275b565b6001600160a01b0316816001600160a01b0316837ff6391f5c32d9c69d2a47ea670b442974b53935d1edc7fd64eb21e047a839171b60405160405180910390a45050565b6000612c04878761327e565b9050612c0f8161337a565b612c18876133dc565b15612cfe5760ca5460cc5460405163c36c212560e01b81526001600160a01b039283169263c36c212592612c54928d928c921690600401613f9f565b600060405180830381600087803b158015612c6e57600080fd5b505af1158015612c82573d6000803e3d6000fd5b505085159150612cf990505760cc54604051633a0deb9d60e21b81526001600160a01b039091169063e837ae7490612cc690889088908890889088906004016141a5565b600060405180830381600087803b158015612ce057600080fd5b505af1158015612cf4573d6000803e3d6000fd5b505050505b612892565b60c9546001600160a01b031663b0f591778983612d1b8b8b61341a565b898989896040518863ffffffff1660e01b8152600401612d41979695949392919061404c565b600060405180830381600087803b158015612d5b57600080fd5b505af1158015612d6f573d6000803e3d6000fd5b505050505050505050505050565b612d85611771565b612dc85760405162461bcd60e51b815260206004820152601460248201527314185d5cd8589b194e881393d517d4105554d15160621b6044820152606401610b3f565b60008051602061448c833981519152805460ff191690557f5db9ee0a495bf2e6ff9c91a7834c1ba4fdd244a5e8aa4e537bd38aeae4b073aa612aa661275b565b612e10610cbf565b15612e535760405162461bcd60e51b8152602060048201526013602482015272109b1bd8dadb1a5cdd0e88111254d050931151606a1b6044820152606401610b3f565b604080517f1ec047073e2c8b15660901dbfdb6e3ff6365bd699dd9f95dcc6eab5448bebd696020820152908101829052600190612e929060600161207c565b805460ff19169115159190911790556040518181527f2ce5d9351b1d590d5a066db0d2dc7602d55f092506a83a7ee8c4d78ee357d75a9060200160405180910390a150565b6000612f198585858080601f01602080910402602001604051908101604052809392919081815260200183838082843760009201919091525061327e92505050565b9050612f248161337a565b612f2d856133dc565b15612fa55760ca5460cc54604051630f95e75b60e31b81526001600160a01b0392831692637caf3ad892612f6e928b928a928a929116908990600401613f55565b600060405180830381600087803b158015612f8857600080fd5b505af1158015612f9c573d6000803e3d6000fd5b50505050611000565b60c954604080516020601f87018190048102820181019092528581526001600160a01b039092169163b55bc6179189918591612ffd918b918b908b908190840183828082843760009201919091525061341a92505050565b866040518563ffffffff1660e01b815260040161301d949392919061411b565b600060405180830381600087803b15801561303757600080fd5b505af115801561304b573d6000803e3d6000fd5b50505050505050505050565b6112b66000805160206144ec83398151915282613274565b603380546001600160a01b038381166001600160a01b0319831681179093556040519116919082907f8be0079c531659141344cd1fd0a4f28419497f9722a3daafe3b4186f6b6457e090600090a35050565b6130c9611771565b156130e65760405162461bcd60e51b8152600401610b3f906142c3565b60008051602061448c833981519152805460ff191660011790557f62e78cea01bee320cd4e420270b5ea74000d11b0c9f74754ebdbfc544b05a258612aa661275b565b613131610cbf565b6131725760405162461bcd60e51b8152602060048201526012602482015271109b1bd8dadb1a5cdd0e881153905093115160721b6044820152606401610b3f565b6000805160206144ac833981519152805460ff191690557f316c4cec74b9568f102eda30781a2fe8cd5172329bf1401e804cb8c5131715c4612aa661275b565b60005b81811015610be3576131ec8383838181106131e057634e487b7160e01b600052603260045260246000fd5b90506020020135612e08565b806131f68161442f565b9150506131b5565b6132066123c7565b6001600160a01b03811661326b5760405162461bcd60e51b815260206004820152602660248201527f4f776e61626c653a206e6577206f776e657220697320746865207a65726f206160448201526564647265737360d01b6064820152608401610b3f565b6112b68161306f565b6113438282612ad4565b60008151600014156132d25760405162461bcd60e51b815260206004820152601b60248201527f4d696e74696e674d616e616765723a204c4142454c5f454d50545900000000006044820152606401610b3f565b82826040516020016132e49190613dde565b60405160208183030381529060405280519060200120604051602001613314929190918252602082015260400190565b60408051601f1981840301815291905280516020909101209392505050565b7f893ef2ea16c023f61d4f55d3e6ee3fc3f2fbfd478461323dbc2fbf919047086e546000906001600160a01b0316331415613375575060331936013560601c90565b503390565b613382610cbf565b6112b65761338f81612032565b156114c75760405162461bcd60e51b815260206004820152601d60248201527f4d696e74696e674d616e616765723a20544f4b454e5f424c4f434b45440000006044820152606401610b3f565b60ca546000906001600160a01b031615801590610aaf5750507f0f4a10a4f46c288cea365fcf45cccf0e9d901b945b9829ccdb54c10dc3cb7a6f1490565b600082815260cd6020908152604091829020915160609261277f92859201613dfa565b6134478282611d47565b6113435761345f816001600160a01b031660146134a1565b61346a8360206134a1565b60405160200161347b929190613ee0565b60408051601f198184030181529082905262461bcd60e51b8252610b3f91600401614235565b606060006134b0836002614392565b6134bb90600261437a565b6001600160401b038111156134e057634e487b7160e01b600052604160045260246000fd5b6040519080825280601f01601f19166020018201604052801561350a576020820181803683370190505b509050600360fc1b8160008151811061353357634e487b7160e01b600052603260045260246000fd5b60200101906001600160f81b031916908160001a905350600f60fb1b8160018151811061357057634e487b7160e01b600052603260045260246000fd5b60200101906001600160f81b031916908160001a9053506000613594846002614392565b61359f90600161437a565b90505b6001811115613633576f181899199a1a9b1b9c1cb0b131b232b360811b85600f16601081106135e157634e487b7160e01b600052603260045260246000fd5b1a60f81b82828151811061360557634e487b7160e01b600052603260045260246000fd5b60200101906001600160f81b031916908160001a90535060049490941c9361362c816143dd565b90506135a2565b5083156136825760405162461bcd60e51b815260206004820181905260248201527f537472696e67733a20686578206c656e67746820696e73756666696369656e746044820152606401610b3f565b9392505050565b508054613695906143f4565b6000825580601f106136a5575050565b601f0160209004906000526020600020908101906112b69190613747565b8280546136cf906143f4565b90600052602060002090601f0160209004810192826136f15760008555613737565b82601f1061370a57805160ff1916838001178555613737565b82800160010185558215613737579182015b8281111561373757825182559160200191906001019061371c565b50613743929150613747565b5090565b5b808211156137435760008155600101613748565b803561376781614476565b919050565b60008083601f84011261377d578081fd5b5081356001600160401b03811115613793578182fd5b6020830191508360208260051b85010111156137ae57600080fd5b9250929050565b60008083601f8401126137c6578182fd5b5081356001600160401b038111156137dc578182fd5b6020830191508360208285010111156137ae57600080fd5b600060208284031215613805578081fd5b813561368281614476565b60008060008060608587031215613825578283fd5b843561383081614476565b93506020850135925060408501356001600160401b03811115613851578283fd5b61385d878288016137b5565b95989497509550505050565b60008060008060008060008060a0898b031215613884578384fd5b883561388f81614476565b97506020890135965060408901356001600160401b03808211156138b1578586fd5b6138bd8c838d016137b5565b909850965060608b01359150808211156138d5578586fd5b6138e18c838d0161376c565b909650945060808b01359150808211156138f9578384fd5b506139068b828c0161376c565b999c989b5096995094979396929594505050565b60008060008060008060008060008060c08b8d031215613938578182fd5b6139418b61375c565b995060208b0135985060408b01356001600160401b0380821115613963578384fd5b61396f8e838f016137b5565b909a50985060608d0135915080821115613987578384fd5b6139938e838f0161376c565b909850965060808d01359150808211156139ab578384fd5b6139b78e838f0161376c565b909650945060a08d01359150808211156139cf578384fd5b506139dc8d828e016137b5565b915080935050809150509295989b9194979a5092959850565b60008060008060008060808789031215613a0d578182fd5b8635613a1881614476565b95506020870135945060408701356001600160401b0380821115613a3a578384fd5b613a468a838b016137b5565b90965094506060890135915080821115613a5e578384fd5b50613a6b89828a016137b5565b979a9699509497509295939492505050565b60008060208385031215613a8f578182fd5b82356001600160401b03811115613aa4578283fd5b613ab08582860161376c565b90969095509350505050565b60006020808385031215613ace578182fd5b82356001600160401b0380821115613ae4578384fd5b818501915085601f830112613af7578384fd5b813581811115613b0957613b09614460565b8060051b604051601f19603f83011681018181108582111715613b2e57613b2e614460565b604052828152858101935084860182860187018a1015613b4c578788fd5b8795505b83861015613b7557613b618161375c565b855260019590950194938601938601613b50565b5098975050505050505050565b600060208284031215613b93578081fd5b81518015158114613682578182fd5b600060208284031215613bb3578081fd5b5035919050565b60008060408385031215613bcc578182fd5b823591506020830135613bde81614476565b809150509250929050565b600060208284031215613bfa578081fd5b81356001600160e01b031981168114613682578182fd5b600080600080600060a08688031215613c28578283fd5b8535613c3381614476565b94506020860135613c4381614476565b93506040860135613c5381614476565b92506060860135613c6381614476565b91506080860135613c7381614476565b809150509295509295909350565b60008060208385031215613c93578182fd5b82356001600160401b03811115613ca8578283fd5b613ab0858286016137b5565b600080600060408486031215613cc8578081fd5b8335925060208401356001600160401b03811115613ce4578182fd5b613cf0868287016137b5565b9497909650939450505050565b81835260006020808501808196508560051b8101915084845b87811015613d7c5782840389528135601e19883603018112613d36578687fd5b870180356001600160401b03811115613d4d578788fd5b803603891315613d5b578788fd5b613d688682898501613db5565b9a87019a9550505090840190600101613d16565b5091979650505050505050565b60008151808452613da18160208601602086016143b1565b601f01601f19169290920160200192915050565b81835281816020850137506000828201602090810191909152601f909101601f19169091010190565b60008251613df08184602087016143b1565b9190910192915050565b600083516020613e0d82858389016143b1565b601760f91b9184019182528454600190849080831c81841680613e3157607f821691505b858210811415613e4f57634e487b7160e01b88526022600452602488fd5b808015613e635760018114613e7857613ea8565b60ff1984168887015282880186019450613ea8565b60008b815260209020895b84811015613e9e5781548a8201890152908701908801613e83565b5050858389010194505b50929a9950505050505050505050565b6b756e732d646576746573742d60a01b81528183600c83013760009101600c01908152919050565b7f416363657373436f6e74726f6c3a206163636f756e7420000000000000000000815260008351613f188160178501602088016143b1565b7001034b99036b4b9b9b4b733903937b6329607d1b6017918401918201528351613f498160288401602088016143b1565b01602801949350505050565b600060018060a01b03808816835260806020840152613f78608084018789613db5565b81861660408501528381036060850152613f928186613d89565b9998505050505050505050565b600060018060a01b03808616835260606020840152613fc16060840186613d89565b9150808416604084015250949350505050565b600060018060a01b03808716835260806020840152613ff66080840187613d89565b818616604085015283810360608501526140108186613d89565b98975050505050505050565b60018060a01b03841681528260208201526060604082015260006140436060830184613d89565b95945050505050565b60018060a01b038816815286602082015260a06040820152600061407360a0830188613d89565b8281036060840152614086818789613cfd565b9050828103608084015261409b818587613cfd565b9a9950505050505050505050565b60018060a01b038916815287602082015260c0604082015260006140d060c0830189613d89565b82810360608401526140e381888a613cfd565b905082810360808401526140f8818688613cfd565b905082810360a084015261410c8185613d89565b9b9a5050505050505050505050565b60018060a01b03851681528360208201526080604082015260006141426080830185613d89565b82810360608401526141548185613d89565b979650505050505050565b6020808252825182820181905260009190848201906040850190845b8181101561419957835115158352928401929184019160010161417b565b50909695505050505050565b6060815260006141b9606083018789613cfd565b82810360208401526141cc818688613cfd565b9150508260408301529695505050505050565b6020808252810182905260006001600160fb1b038311156141fe578081fd5b8260051b808560408501379190910160400190815292915050565b60208152600061422d602083018486613db5565b949350505050565b6020815260006136826020830184613d89565b60208082526026908201527f4d696e74696e674d616e616765723a20544f4b454e5f4c4142454c5f50524f4860408201526512509255115160d21b606082015260800190565b6020808252818101527f4d696e746572526f6c653a2043414c4c45525f49535f4e4f545f4d494e544552604082015260600190565b60208082526010908201526f14185d5cd8589b194e8814105554d15160821b604082015260600190565b60208082526022908201527f4d696e74696e674d616e616765723a20544c445f4e4f545f5245474953544552604082015261115160f21b606082015260800190565b6020808252602b908201527f496e697469616c697a61626c653a20636f6e7472616374206973206e6f74206960408201526a6e697469616c697a696e6760a81b606082015260800190565b6000821982111561438d5761438d61444a565b500190565b60008160001904831182151516156143ac576143ac61444a565b500290565b60005b838110156143cc5781810151838201526020016143b4565b838111156128975750506000910152565b6000816143ec576143ec61444a565b506000190190565b600181811c9082168061440857607f821691505b6020821081141561442957634e487b7160e01b600052602260045260246000fd5b50919050565b60006000198214156144435761444361444a565b5060010190565b634e487b7160e01b600052601160045260246000fd5b634e487b7160e01b600052604160045260246000fd5b6001600160a01b03811681146112b657600080fdfe5496787fc1ebdfeba375028c1865f13fbb1d63c0caa356ccc1b29a80f3ebd622a85b8425a460dd344a297bd4a82e287385f0fc558cb3e78867b0489f43df2470b551e0305c8163b812374b8e78b577c77f226f6f10c5ad03e52699578fbc34b89f2df0fed2c77648de5860a4cc508cd0818c85b8b8a1ab4ceeef8d981c8956a6a164736f6c6343000804000a",
  "linkReferences": {},
  "deployedLinkReferences": {}
}