{
  "_format": "hh-sol-artifact-1",
  "contractName": "MintingManager",
  "sourceName": "contracts/MintingManager.sol",
  "abi": [
    {
      "anonymous": false,
      "inputs": [
        {
          "indexed": false,
          "internalType": "address",
          "name": "previousAdmin",
          "type": "address"
        },
        {
          "indexed": false,
          "internalType": "address",
          "name": "newAdmin",
          "type": "address"
        }
      ],
      "name": "AdminChanged",
      "type": "event"
    },
    {
      "anonymous": false,
      "inputs": [
        {
          "indexed": false,
          "internalType": "uint256",
          "name": "tokenId",
          "type": "uint256"
        }
      ],
      "name": "Blocked",
      "type": "event"
    },
    {
      "anonymous": false,
      "inputs": [
        {
          "indexed": false,
          "internalType": "address",
          "name": "account",
          "type": "address"
        }
      ],
      "name": "BlocklistDisabled",
      "type": "event"
    },
    {
      "anonymous": false,
      "inputs": [
        {
          "indexed": false,
          "internalType": "address",
          "name": "account",
          "type": "address"
        }
      ],
      "name": "BlocklistEnabled",
      "type": "event"
    },
    {
      "anonymous": false,
      "inputs": [
        {
          "indexed": false,
          "internalType": "uint8",
          "name": "version",
          "type": "uint8"
        }
      ],
      "name": "Initialized",
      "type": "event"
    },
    {
      "anonymous": false,
      "inputs": [
        {
          "indexed": true,
          "internalType": "uint256",
          "name": "tokenId",
          "type": "uint256"
        },
        {
          "indexed": false,
          "internalType": "string",
          "name": "tld",
          "type": "string"
        }
      ],
      "name": "NewTld",
      "type": "event"
    },
    {
      "anonymous": false,
      "inputs": [
        {
          "indexed": true,
          "internalType": "address",
          "name": "previousOwner",
          "type": "address"
        },
        {
          "indexed": true,
          "internalType": "address",
          "name": "newOwner",
          "type": "address"
        }
      ],
      "name": "OwnershipTransferred",
      "type": "event"
    },
    {
      "anonymous": false,
      "inputs": [
        {
          "indexed": false,
          "internalType": "address",
          "name": "account",
          "type": "address"
        }
      ],
      "name": "Paused",
      "type": "event"
    },
    {
      "anonymous": false,
      "inputs": [
        {
          "indexed": true,
          "internalType": "uint256",
          "name": "tokenId",
          "type": "uint256"
        }
      ],
      "name": "RemoveTld",
      "type": "event"
    },
    {
      "anonymous": false,
      "inputs": [
        {
          "indexed": true,
          "internalType": "bytes32",
          "name": "role",
          "type": "bytes32"
        },
        {
          "indexed": true,
          "internalType": "bytes32",
          "name": "previousAdminRole",
          "type": "bytes32"
        },
        {
          "indexed": true,
          "internalType": "bytes32",
          "name": "newAdminRole",
          "type": "bytes32"
        }
      ],
      "name": "RoleAdminChanged",
      "type": "event"
    },
    {
      "anonymous": false,
      "inputs": [
        {
          "indexed": true,
          "internalType": "bytes32",
          "name": "role",
          "type": "bytes32"
        },
        {
          "indexed": true,
          "internalType": "address",
          "name": "account",
          "type": "address"
        },
        {
          "indexed": true,
          "internalType": "address",
          "name": "sender",
          "type": "address"
        }
      ],
      "name": "RoleGranted",
      "type": "event"
    },
    {
      "anonymous": false,
      "inputs": [
        {
          "indexed": true,
          "internalType": "bytes32",
          "name": "role",
          "type": "bytes32"
        },
        {
          "indexed": true,
          "internalType": "address",
          "name": "account",
          "type": "address"
        },
        {
          "indexed": true,
          "internalType": "address",
          "name": "sender",
          "type": "address"
        }
      ],
      "name": "RoleRevoked",
      "type": "event"
    },
    {
      "anonymous": false,
      "inputs": [
        {
          "indexed": false,
          "internalType": "address",
          "name": "account",
          "type": "address"
        }
      ],
      "name": "Unpaused",
      "type": "event"
    },
    {
      "anonymous": false,
      "inputs": [
        {
          "indexed": true,
          "internalType": "address",
          "name": "implementation",
          "type": "address"
        }
      ],
      "name": "Upgraded",
      "type": "event"
    },
    {
      "inputs": [],
      "name": "DEFAULT_ADMIN_ROLE",
      "outputs": [
        {
          "internalType": "bytes32",
          "name": "",
          "type": "bytes32"
        }
      ],
      "stateMutability": "view",
      "type": "function"
    },
    {
      "inputs": [],
      "name": "MINTER_ROLE",
      "outputs": [
        {
          "internalType": "bytes32",
          "name": "",
          "type": "bytes32"
        }
      ],
      "stateMutability": "view",
      "type": "function"
    },
    {
      "inputs": [],
      "name": "NAME",
      "outputs": [
        {
          "internalType": "string",
          "name": "",
          "type": "string"
        }
      ],
      "stateMutability": "view",
      "type": "function"
    },
    {
      "inputs": [],
      "name": "VERSION",
      "outputs": [
        {
          "internalType": "string",
          "name": "",
          "type": "string"
        }
      ],
      "stateMutability": "view",
      "type": "function"
    },
    {
      "inputs": [
        {
          "internalType": "address",
          "name": "account",
          "type": "address"
        }
      ],
      "name": "addMinter",
      "outputs": [],
      "stateMutability": "nonpayable",
      "type": "function"
    },
    {
      "inputs": [
        {
          "internalType": "address[]",
          "name": "accounts",
          "type": "address[]"
        }
      ],
      "name": "addMinters",
      "outputs": [],
      "stateMutability": "nonpayable",
      "type": "function"
    },
    {
      "inputs": [
        {
          "internalType": "address[]",
          "name": "addrs",
          "type": "address[]"
        }
      ],
      "name": "addProxyReaders",
      "outputs": [],
      "stateMutability": "nonpayable",
      "type": "function"
    },
    {
      "inputs": [
        {
          "internalType": "string",
          "name": "tld",
          "type": "string"
        }
      ],
      "name": "addTld",
      "outputs": [],
      "stateMutability": "nonpayable",
      "type": "function"
    },
    {
      "inputs": [
        {
          "internalType": "uint256[]",
          "name": "tokenIds",
          "type": "uint256[]"
        }
      ],
      "name": "areBlocked",
      "outputs": [
        {
          "internalType": "bool[]",
          "name": "values",
          "type": "bool[]"
        }
      ],
      "stateMutability": "view",
      "type": "function"
    },
    {
      "inputs": [
        {
          "internalType": "uint256",
          "name": "tokenId",
          "type": "uint256"
        }
      ],
      "name": "blocklist",
      "outputs": [],
      "stateMutability": "nonpayable",
      "type": "function"
    },
    {
      "inputs": [
        {
          "internalType": "uint256[]",
          "name": "tokenIds",
          "type": "uint256[]"
        }
      ],
      "name": "blocklistAll",
      "outputs": [],
      "stateMutability": "nonpayable",
      "type": "function"
    },
    {
      "inputs": [
        {
          "internalType": "uint256",
          "name": "tld",
          "type": "uint256"
        },
        {
          "internalType": "string",
          "name": "label",
          "type": "string"
        }
      ],
      "name": "claim",
      "outputs": [],
      "stateMutability": "nonpayable",
      "type": "function"
    },
    {
      "inputs": [
        {
          "internalType": "address",
          "name": "to",
          "type": "address"
        },
        {
          "internalType": "uint256",
          "name": "tld",
          "type": "uint256"
        },
        {
          "internalType": "string",
          "name": "label",
          "type": "string"
        }
      ],
      "name": "claimTo",
      "outputs": [],
      "stateMutability": "nonpayable",
      "type": "function"
    },
    {
      "inputs": [
        {
          "internalType": "address",
          "name": "to",
          "type": "address"
        },
        {
          "internalType": "uint256",
          "name": "tld",
          "type": "uint256"
        },
        {
          "internalType": "string",
          "name": "label",
          "type": "string"
        },
        {
          "internalType": "string[]",
          "name": "keys",
          "type": "string[]"
        },
        {
          "internalType": "string[]",
          "name": "values",
          "type": "string[]"
        }
      ],
      "name": "claimToWithRecords",
      "outputs": [],
      "stateMutability": "nonpayable",
      "type": "function"
    },
    {
      "inputs": [
        {
          "internalType": "address payable",
          "name": "receiver",
          "type": "address"
        }
      ],
      "name": "closeMinter",
      "outputs": [],
      "stateMutability": "payable",
      "type": "function"
    },
    {
      "inputs": [],
      "name": "cnsMintingController",
      "outputs": [
        {
          "internalType": "contract IMintingController",
          "name": "",
          "type": "address"
        }
      ],
      "stateMutability": "view",
      "type": "function"
    },
    {
      "inputs": [],
      "name": "cnsResolver",
      "outputs": [
        {
          "internalType": "contract IResolver",
          "name": "",
          "type": "address"
        }
      ],
      "stateMutability": "view",
      "type": "function"
    },
    {
      "inputs": [],
      "name": "cnsURIPrefixController",
      "outputs": [
        {
          "internalType": "contract IURIPrefixController",
          "name": "",
          "type": "address"
        }
      ],
      "stateMutability": "view",
      "type": "function"
    },
    {
      "inputs": [],
      "name": "disableBlocklist",
      "outputs": [],
      "stateMutability": "nonpayable",
      "type": "function"
    },
    {
      "inputs": [],
      "name": "enableBlocklist",
      "outputs": [],
      "stateMutability": "nonpayable",
      "type": "function"
    },
    {
      "inputs": [
        {
          "internalType": "bytes32",
          "name": "role",
          "type": "bytes32"
        }
      ],
      "name": "getRoleAdmin",
      "outputs": [
        {
          "internalType": "bytes32",
          "name": "",
          "type": "bytes32"
        }
      ],
      "stateMutability": "view",
      "type": "function"
    },
    {
      "inputs": [
        {
          "internalType": "bytes32",
          "name": "role",
          "type": "bytes32"
        },
        {
          "internalType": "address",
          "name": "account",
          "type": "address"
        }
      ],
      "name": "grantRole",
      "outputs": [],
      "stateMutability": "nonpayable",
      "type": "function"
    },
    {
      "inputs": [
        {
          "internalType": "bytes32",
          "name": "role",
          "type": "bytes32"
        },
        {
          "internalType": "address",
          "name": "account",
          "type": "address"
        }
      ],
      "name": "hasRole",
      "outputs": [
        {
          "internalType": "bool",
          "name": "",
          "type": "bool"
        }
      ],
      "stateMutability": "view",
      "type": "function"
    },
    {
      "inputs": [
        {
          "internalType": "contract IUNSRegistry",
          "name": "unsRegistry_",
          "type": "address"
        },
        {
          "internalType": "contract IMintingController",
          "name": "cnsMintingController_",
          "type": "address"
        },
        {
          "internalType": "contract IURIPrefixController",
          "name": "cnsURIPrefixController_",
          "type": "address"
        },
        {
          "internalType": "contract IResolver",
          "name": "cnsResolver_",
          "type": "address"
        },
        {
          "internalType": "address",
          "name": "forwarder",
          "type": "address"
        }
      ],
      "name": "initialize",
      "outputs": [],
      "stateMutability": "nonpayable",
      "type": "function"
    },
    {
      "inputs": [
        {
          "internalType": "uint256",
          "name": "tokenId",
          "type": "uint256"
        }
      ],
      "name": "isBlocked",
      "outputs": [
        {
          "internalType": "bool",
          "name": "",
          "type": "bool"
        }
      ],
      "stateMutability": "view",
      "type": "function"
    },
    {
      "inputs": [],
      "name": "isBlocklistDisabled",
      "outputs": [
        {
          "internalType": "bool",
          "name": "",
          "type": "bool"
        }
      ],
      "stateMutability": "view",
      "type": "function"
    },
    {
      "inputs": [
        {
          "internalType": "address",
          "name": "account",
          "type": "address"
        }
      ],
      "name": "isMinter",
      "outputs": [
        {
          "internalType": "bool",
          "name": "",
          "type": "bool"
        }
      ],
      "stateMutability": "view",
      "type": "function"
    },
    {
      "inputs": [
        {
          "internalType": "address",
          "name": "forwarder",
          "type": "address"
        }
      ],
      "name": "isTrustedForwarder",
      "outputs": [
        {
          "internalType": "bool",
          "name": "",
          "type": "bool"
        }
      ],
      "stateMutability": "view",
      "type": "function"
    },
    {
      "inputs": [
        {
          "internalType": "address",
          "name": "to",
          "type": "address"
        },
        {
          "internalType": "string[]",
          "name": "labels",
          "type": "string[]"
        },
        {
          "internalType": "string[]",
          "name": "keys",
          "type": "string[]"
        },
        {
          "internalType": "string[]",
          "name": "values",
          "type": "string[]"
        }
      ],
      "name": "issueWithRecords",
      "outputs": [],
      "stateMutability": "nonpayable",
      "type": "function"
    },
    {
      "inputs": [
        {
          "internalType": "address",
          "name": "to",
          "type": "address"
        },
        {
          "internalType": "uint256",
          "name": "tld",
          "type": "uint256"
        },
        {
          "internalType": "string",
          "name": "label",
          "type": "string"
        },
        {
          "internalType": "string[]",
          "name": "keys",
          "type": "string[]"
        },
        {
          "internalType": "string[]",
          "name": "values",
          "type": "string[]"
        }
      ],
      "name": "mintSLDWithRecords",
      "outputs": [],
      "stateMutability": "nonpayable",
      "type": "function"
    },
    {
      "inputs": [],
      "name": "owner",
      "outputs": [
        {
          "internalType": "address",
          "name": "",
          "type": "address"
        }
      ],
      "stateMutability": "view",
      "type": "function"
    },
    {
      "inputs": [],
      "name": "pause",
      "outputs": [],
      "stateMutability": "nonpayable",
      "type": "function"
    },
    {
      "inputs": [],
      "name": "paused",
      "outputs": [
        {
          "internalType": "bool",
          "name": "",
          "type": "bool"
        }
      ],
      "stateMutability": "view",
      "type": "function"
    },
    {
      "inputs": [
        {
          "internalType": "address",
          "name": "account",
          "type": "address"
        }
      ],
      "name": "removeMinter",
      "outputs": [],
      "stateMutability": "nonpayable",
      "type": "function"
    },
    {
      "inputs": [
        {
          "internalType": "address[]",
          "name": "accounts",
          "type": "address[]"
        }
      ],
      "name": "removeMinters",
      "outputs": [],
      "stateMutability": "nonpayable",
      "type": "function"
    },
    {
      "inputs": [
        {
          "internalType": "uint256",
          "name": "tld",
          "type": "uint256"
        }
      ],
      "name": "removeTld",
      "outputs": [],
      "stateMutability": "nonpayable",
      "type": "function"
    },
    {
      "inputs": [],
      "name": "renounceMinter",
      "outputs": [],
      "stateMutability": "nonpayable",
      "type": "function"
    },
    {
      "inputs": [],
      "name": "renounceOwnership",
      "outputs": [],
      "stateMutability": "nonpayable",
      "type": "function"
    },
    {
      "inputs": [
        {
          "internalType": "bytes32",
          "name": "role",
          "type": "bytes32"
        },
        {
          "internalType": "address",
          "name": "account",
          "type": "address"
        }
      ],
      "name": "renounceRole",
      "outputs": [],
      "stateMutability": "nonpayable",
      "type": "function"
    },
    {
      "inputs": [
        {
          "internalType": "bytes32",
          "name": "role",
          "type": "bytes32"
        },
        {
          "internalType": "address",
          "name": "account",
          "type": "address"
        }
      ],
      "name": "revokeRole",
      "outputs": [],
      "stateMutability": "nonpayable",
      "type": "function"
    },
    {
      "inputs": [
        {
          "internalType": "address payable",
          "name": "receiver",
          "type": "address"
        }
      ],
      "name": "rotateMinter",
      "outputs": [],
      "stateMutability": "payable",
      "type": "function"
    },
    {
      "inputs": [
        {
          "internalType": "address",
          "name": "forwarder",
          "type": "address"
        }
      ],
      "name": "setForwarder",
      "outputs": [],
      "stateMutability": "nonpayable",
      "type": "function"
    },
    {
      "inputs": [
        {
          "internalType": "address",
          "name": "resolver",
          "type": "address"
        }
      ],
      "name": "setResolver",
      "outputs": [],
      "stateMutability": "nonpayable",
      "type": "function"
    },
    {
      "inputs": [
        {
          "internalType": "string",
          "name": "prefix",
          "type": "string"
        }
      ],
      "name": "setTokenURIPrefix",
      "outputs": [],
      "stateMutability": "nonpayable",
      "type": "function"
    },
    {
      "inputs": [
        {
          "internalType": "bytes4",
          "name": "interfaceId",
          "type": "bytes4"
        }
      ],
      "name": "supportsInterface",
      "outputs": [
        {
          "internalType": "bool",
          "name": "",
          "type": "bool"
        }
      ],
      "stateMutability": "view",
      "type": "function"
    },
    {
      "inputs": [
        {
          "internalType": "address",
          "name": "newOwner",
          "type": "address"
        }
      ],
      "name": "transferOwnership",
      "outputs": [],
      "stateMutability": "nonpayable",
      "type": "function"
    },
    {
      "inputs": [],
      "name": "unpause",
      "outputs": [],
      "stateMutability": "nonpayable",
      "type": "function"
    },
    {
      "inputs": [],
      "name": "unsRegistry",
      "outputs": [
        {
          "internalType": "contract IUNSRegistry",
          "name": "",
          "type": "address"
        }
      ],
      "stateMutability": "view",
      "type": "function"
    },
    {
      "inputs": [
        {
          "internalType": "uint256[]",
          "name": "tokenIds",
          "type": "uint256[]"
        }
      ],
      "name": "upgradeAll",
      "outputs": [],
      "stateMutability": "nonpayable",
      "type": "function"
    }
  ],
  "bytecode": "0x608060405234801561001057600080fd5b50613a93806100206000396000f3fe6080604052600436106102ae5760003560e01c80638da5cb5b11610175578063b0aa98c7116100dc578063d4a32ad611610095578063e47d6cc61161006f578063e47d6cc61461088b578063ec527389146108ab578063f2fde38b146108cb578063ffa1ad74146108eb57600080fd5b8063d4a32ad614610829578063d539139314610849578063d547741f1461086b57600080fd5b8063b0aa98c714610769578063b9998a2414610789578063c3a3bc00146107a9578063cc2c3fc4146107c9578063ceeb4f50146107e9578063d1f5692c1461080957600080fd5b806399e0dd7c1161012e57806399e0dd7c14610687578063a217fddf146106a7578063a3f4df7e146106bc578063a849d65c14610709578063aa271e1a14610729578063ae31844a1461074957600080fd5b80638da5cb5b146105df578063906cecc1146105fd57806390dbdb5a1461061d57806391d1485414610632578063983b2d5614610652578063986502751461067257600080fd5b80633f4ba83a116102195780635fc1964f116101d25780635fc1964f1461054f578063634486da1461056f578063715018a61461058257806371e2a6571461059757806381c81d35146105b75780638456cb59146105ca57600080fd5b80633f4ba83a14610477578063463c4bcb1461048c5780634e543b26146104ac578063572b6c05146104cc5780635b6fa8db1461051a5780635c975abb1461053a57600080fd5b80632eff1a951161026b5780632eff1a95146103aa5780632f2ff15d146103bf5780633092afd5146103df57806336568abe146103ff57806339ccf4d01461041f5780633f41b6141461043f57600080fd5b806301ffc9a7146102b35780630e36a87d146102e857806310921f12146103155780631459457a1461032a578063248a9ca31461034c578063268b15ed1461038a575b600080fd5b3480156102bf57600080fd5b506102d36102ce3660046132a0565b61091c565b60405190151581526020015b60405180910390f35b3480156102f457600080fd5b5061030861030336600461315a565b610953565b6040516102df9190613577565b34801561032157600080fd5b506102d3610a2a565b34801561033657600080fd5b5061034a6103453660046132c8565b610a45565b005b34801561035857600080fd5b5061037c610367366004613259565b60009081526097602052604090206001015490565b6040519081526020016102df565b34801561039657600080fd5b5061034a6103a536600461336b565b610d78565b3480156103b657600080fd5b5061034a610e82565b3480156103cb57600080fd5b5061034a6103da366004613271565b610e94565b3480156103eb57600080fd5b5061034a6103fa366004612f70565b610ebe565b34801561040b57600080fd5b5061034a61041a366004613271565b610ed2565b34801561042b57600080fd5b5061034a61043a3660046130a9565b610f60565b34801561044b57600080fd5b5060c95461045f906001600160a01b031681565b6040516001600160a01b0390911681526020016102df565b34801561048357600080fd5b5061034a6110cc565b34801561049857600080fd5b5061034a6104a7366004613259565b6110dc565b3480156104b857600080fd5b5061034a6104c7366004612f70565b61110c565b3480156104d857600080fd5b506102d36104e7366004612f70565b7f893ef2ea16c023f61d4f55d3e6ee3fc3f2fbfd478461323dbc2fbf919047086e546001600160a01b0390811691161490565b34801561052657600080fd5b5060cc5461045f906001600160a01b031681565b34801561054657600080fd5b506102d3611136565b34801561055b57600080fd5b5061034a61056a366004613199565b61114c565b61034a61057d366004612f70565b6111a2565b34801561058e57600080fd5b5061034a611265565b3480156105a357600080fd5b5061034a6105b2366004613199565b611277565b61034a6105c5366004612f70565b6112cd565b3480156105d657600080fd5b5061034a61134a565b3480156105eb57600080fd5b506033546001600160a01b031661045f565b34801561060957600080fd5b5061034a610618366004613050565b61135a565b34801561062957600080fd5b5061034a611450565b34801561063e57600080fd5b506102d361064d366004613271565b611460565b34801561065e57600080fd5b5061034a61066d366004612f70565b61148b565b34801561067e57600080fd5b5061034a61149c565b34801561069357600080fd5b5061034a6106a2366004613338565b6114b6565b3480156106b357600080fd5b5061037c600081565b3480156106c857600080fd5b506106fc604051806040016040528060148152602001732aa7299d1026b4b73a34b7339026b0b730b3b2b960611b81525081565b6040516102df919061365c565b34801561071557600080fd5b5060cb5461045f906001600160a01b031681565b34801561073557600080fd5b506102d3610744366004612f70565b611595565b34801561075557600080fd5b5061034a61076436600461315a565b6115af565b34801561077557600080fd5b506102d3610784366004613259565b611608565b34801561079557600080fd5b5061034a6107a4366004612f70565b611675565b3480156107b557600080fd5b5061034a6107c4366004613338565b6116ba565b3480156107d557600080fd5b5060ca5461045f906001600160a01b031681565b3480156107f557600080fd5b5061034a6108043660046130a9565b611701565b34801561081557600080fd5b5061034a61082436600461315a565b6117ee565b34801561083557600080fd5b5061034a610844366004612fa8565b6118b3565b34801561085557600080fd5b5061037c600080516020613a6783398151915281565b34801561087757600080fd5b5061034a610886366004613271565b611a7a565b34801561089757600080fd5b5061034a6108a636600461315a565b611a9f565b3480156108b757600080fd5b5061034a6108c6366004613259565b611ad0565b3480156108d757600080fd5b5061034a6108e6366004612f70565b611b42565b3480156108f757600080fd5b506106fc604051806040016040528060058152602001640c0b8ccb8d60da1b81525081565b60006001600160e01b03198216637965db0b60e01b148061094d57506301ffc9a760e01b6001600160e01b03198316145b92915050565b6060816001600160401b0381111561097b57634e487b7160e01b600052604160045260246000fd5b6040519080825280602002602001820160405280156109a4578160200160208202803683370190505b50905060005b82811015610a23576109e18484838181106109d557634e487b7160e01b600052603260045260246000fd5b90506020020135611608565b828281518110610a0157634e487b7160e01b600052603260045260246000fd5b9115156020928302919091019091015280610a1b816139aa565b9150506109aa565b5092915050565b6000600080516020613a278339815191525b5460ff16919050565b600054610100900460ff1615808015610a655750600054600160ff909116105b80610a7f5750303b158015610a7f575060005460ff166001145b610ae75760405162461bcd60e51b815260206004820152602e60248201527f496e697469616c697a61626c653a20636f6e747261637420697320616c72656160448201526d191e481a5b9a5d1a585b1a5e995960921b60648201526084015b60405180910390fd5b6000805460ff191660011790558015610b0a576000805461ff0019166101001790555b60c980546001600160a01b038089166001600160a01b03199283161790925560ca805488841690831617905560cb805487841690831617905560cc805492861692909116919091179055610b5c611b5e565b610b64611b95565b610b6d82611bce565b610b75611bf5565b610b7d611c3f565b604080516101a081018252600661016082018181526563727970746f60d01b610180840152825282518084018452908152651dd85b1b195d60d21b602082810191909152808301919091528251808401845260018152600f60fb1b8183015282840152825180840184526003808252621b999d60ea1b82840152606084019190915283518085018552600a815269313637b1b5b1b430b4b760b11b818401526080840152835180850185526007808252663134ba31b7b4b760c91b8285015260a0850191909152845180860186528281526207070760eb1b8185015260c0850152845180860186528281526264616f60e81b8185015260e085015284518086018652918252621e9a5b60ea1b8284015261010084019190915283518085018552908152663837b63cb3b7b760c91b818301526101208301528251808401909352600b83526a756e73746f707061626c6560a81b9083015261014081019190915260005b600b811015610d2857610d168282600b8110610d0c57634e487b7160e01b600052603260045260246000fd5b6020020151611c7c565b80610d20816139aa565b915050610ce0565b50508015610d70576000805461ff0019169055604051600181527f7f26b83ff96e1f2b6a682f133852f6798a09c465da95921460cefb38474024989060200160405180910390a15b505050505050565b8282828080601f016020809104026020016040519081016040528093929190818152602001838380828437600092019190915250610dbb9250849150611d989050565b610dd75760405162461bcd60e51b8152600401610ade90613714565b6000610de282611dbe565b9050600a81600001511115610e3a57610e0d610e01826000600a611deb565b80516020909101512090565b600080516020613a478339815191521415610e3a5760405162461bcd60e51b8152600401610ade9061366f565b610e42611136565b15610e5f5760405162461bcd60e51b8152600401610ade906136ea565b610d70610e6a611e2a565b610e7d88610e788989611e39565b611e65565b611f92565b610e8a611fa0565b610e92612019565b565b600082815260976020526040902060010154610eaf816120c4565b610eb983836120d5565b505050565b610ec6611fa0565b610ecf8161215c565b50565b610eda611e2a565b6001600160a01b0316816001600160a01b031614610f525760405162461bcd60e51b815260206004820152602f60248201527f416363657373436f6e74726f6c3a2063616e206f6e6c792072656e6f756e636560448201526e103937b632b9903337b91039b2b63360891b6064820152608401610ade565b610f5c8282612174565b5050565b610f6b610744611e2a565b610f875760405162461bcd60e51b8152600401610ade906136b5565b8686868080601f016020809104026020016040519081016040528093929190818152602001838380828437600092019190915250610fca9250849150611d989050565b610fe65760405162461bcd60e51b8152600401610ade90613714565b6000610ff182611dbe565b9050600a8160000151111561103d57611010610e01826000600a611deb565b600080516020613a47833981519152141561103d5760405162461bcd60e51b8152600401610ade9061366f565b611045611136565b156110625760405162461bcd60e51b8152600401610ade906136ea565b6110bf8b6110a68c8c8c8080601f016020809104026020016040519081016040528093929190818152602001838380828437600092019190915250611e6592505050565b6110b0898b613863565b6110ba888a613863565b6121f9565b5050505050505050505050565b6110d4611fa0565b610e92612614565b6110e7610744611e2a565b6111035760405162461bcd60e51b8152600401610ade906136b5565b610ecf8161269f565b611114611fa0565b60cc80546001600160a01b0319166001600160a01b0392909216919091179055565b6000600080516020613a07833981519152610a3c565b611154611fa0565b60005b8151811015610f5c5761119082828151811061118357634e487b7160e01b600052603260045260246000fd5b602002602001015161215c565b8061119a816139aa565b915050611157565b6111ad610744611e2a565b6111c95760405162461bcd60e51b8152600401610ade906136b5565b6001600160a01b03811661121f5760405162461bcd60e51b815260206004820152601d60248201527f4d696e746572526f6c653a2052454345495645525f49535f454d5054590000006044820152606401610ade565b6112288161276e565b61123061149c565b6040516001600160a01b038216903480156108fc02916000818181858888f19350505050158015610f5c573d6000803e3d6000fd5b61126d611fa0565b610e926000612786565b61127f611fa0565b60005b8151811015610f5c576112bb8282815181106112ae57634e487b7160e01b600052603260045260246000fd5b602002602001015161276e565b806112c5816139aa565b915050611282565b6112d8610744611e2a565b6112f45760405162461bcd60e51b8152600401610ade906136b5565b6001600160a01b0381166112285760405162461bcd60e51b815260206004820152601d60248201527f4d696e746572526f6c653a2052454345495645525f49535f454d5054590000006044820152606401610ade565b611352611fa0565b610e926127d8565b8282828080601f01602080910402602001604051908101604052809392919081815260200183838082843760009201919091525061139d9250849150611d989050565b6113b95760405162461bcd60e51b8152600401610ade90613714565b60006113c482611dbe565b9050600a81600001511115611410576113e3610e01826000600a611deb565b600080516020613a4783398151915214156114105760405162461bcd60e51b8152600401610ade9061366f565b611418611136565b156114355760405162461bcd60e51b8152600401610ade906136ea565b61144787610e7d88610e788989611e39565b50505050505050565b611458611fa0565b610e92612840565b60009182526097602090815260408084206001600160a01b0393909316845291905290205460ff1690565b611493611fa0565b610ecf8161276e565b610e92600080516020613a6783398151915261041a611e2a565b6114be611fa0565b60c954604051632678375f60e21b81526001600160a01b03909116906399e0dd7c906114f0908590859060040161362d565b600060405180830381600087803b15801561150a57600080fd5b505af115801561151e573d6000803e3d6000fd5b505060cb546001600160a01b0316159150610f5c90505760cb54604051632678375f60e21b81526001600160a01b03909116906399e0dd7c90611567908590859060040161362d565b600060405180830381600087803b15801561158157600080fd5b505af1158015610d70573d6000803e3d6000fd5b600061094d600080516020613a6783398151915283611460565b6115ba610744611e2a565b6115d65760405162461bcd60e51b8152600401610ade906136b5565b60c954604051635718c22560e11b81526001600160a01b039091169063ae31844a9061156790859085906004016135f3565b6000611612610a2a565b15801561094d5750604080517f1ec047073e2c8b15660901dbfdb6e3ff6365bd699dd9f95dcc6eab5448bebd69602082015290810183905261166b906060015b6040516020818303038152906040528051906020012090565b5460ff1692915050565b61167d611fa0565b7f893ef2ea16c023f61d4f55d3e6ee3fc3f2fbfd478461323dbc2fbf919047086e80546001600160a01b0319166001600160a01b03831617905550565b6116c2611fa0565b610f5c82828080601f016020809104026020016040519081016040528093929190818152602001838380828437600092019190915250611c7c92505050565b8686868080601f0160208091040260200160405190810160405280939291908181526020018383808284376000920191909152506117449250849150611d989050565b6117605760405162461bcd60e51b8152600401610ade90613714565b600061176b82611dbe565b9050600a816000015111156117b75761178a610e01826000600a611deb565b600080516020613a4783398151915214156117b75760405162461bcd60e51b8152600401610ade9061366f565b6117bf611136565b156117dc5760405162461bcd60e51b8152600401610ade906136ea565b6110bf8b6110a68c610e788d8d611e39565b6117f6611fa0565b60005b81811015610eb95760c9546001600160a01b0316635096023984848481811061183257634e487b7160e01b600052603260045260246000fd5b90506020020160208101906118479190612f70565b6040516001600160e01b031960e084901b1681526001600160a01b039091166004820152602401600060405180830381600087803b15801561188857600080fd5b505af115801561189c573d6000803e3d6000fd5b5050505080806118ab906139aa565b9150506117f9565b6118be610744611e2a565b6118da5760405162461bcd60e51b8152600401610ade906136b5565b6118e48587613863565b6002815110156119445760405162461bcd60e51b815260206004820152602560248201527f4d696e74696e674d616e616765723a204c4142454c535f4c454e4754485f42456044820152642627abaf9960d91b6064820152608401610ade565b6119818160018351611956919061384c565b8151811061197457634e487b7160e01b600052603260045260246000fd5b60200260200101516128c9565b61199d5760405162461bcd60e51b8152600401610ade90613714565b60006119dc82600284516119b1919061384c565b815181106119cf57634e487b7160e01b600052603260045260246000fd5b6020026020010151611dbe565b9050600a81600001511115611a28576119fb610e01826000600a611deb565b600080516020613a478339815191521415611a285760405162461bcd60e51b8152600401610ade9061366f565b611a30611136565b15611a4d5760405162461bcd60e51b8152600401610ade906136ea565b611a6f89611a5b898b613863565b611a65888a613863565b6110ba8789613863565b505050505050505050565b600082815260976020526040902060010154611a95816120c4565b610eb98383612174565b611aaa610744611e2a565b611ac65760405162461bcd60e51b8152600401610ade906136b5565b610f5c82826128e9565b611ad8611fa0565b611ae181611d98565b611afd5760405162461bcd60e51b8152600401610ade90613714565b600081815260cd60205260408120611b1491612e15565b60405181907f0aa1aff0f830e739d86baf0e6624d6763da02f7733575e0e463886cd062dea6a90600090a250565b611b4a611fa0565b611b5381612935565b610ecf6000826129ab565b600054610100900460ff16611b855760405162461bcd60e51b8152600401610ade90613756565b610e92611b90611e2a565b612786565b600054610100900460ff16611bbc5760405162461bcd60e51b8152600401610ade90613756565b610e926000611bc9611e2a565b6129ab565b600054610100900460ff1661167d5760405162461bcd60e51b8152600401610ade90613756565b600054610100900460ff16611c1c5760405162461bcd60e51b8152600401610ade90613756565b6000600080516020613a278339815191525b805460ff1916911515919091179055565b600054610100900460ff16611c665760405162461bcd60e51b8152600401610ade90613756565b6000600080516020613a07833981519152611c2e565b6000611c896000836129b5565b600081815260cd602090815260409091208451929350611cad929091850190612e4f565b50807f4fce6f6e172b04eaa80325d8e3b0180a34945000f3e214605039e8420fdf898083604051611cde919061365c565b60405180910390a260c954604051634f558e7960e01b8152600481018390526001600160a01b0390911690634f558e799060240160206040518083038186803b158015611d2a57600080fd5b505afa158015611d3e573d6000803e3d6000fd5b505050506040513d601f19601f82011682018060405250810190611d629190613239565b610f5c5760c9546040516307befae360e51b81526001600160a01b039091169063f7df5c609061156790849086906004016137a1565b600081815260cd602052604081208054829190611db49061396f565b9050119050919050565b60408051808201825260008082526020918201528151808301909252825182529182019181019190915290565b60408051808201909152600080825260208201526040518060400160405280838152602001848660200151611e209190613815565b9052949350505050565b6000611e34612a6a565b905090565b60608282604051602001611e4e929190613450565b604051602081830303815290604052905092915050565b604080516002808252606082810190935260009190816020015b6060815260200190600190039081611e7f5790505090508281600081518110611eb857634e487b7160e01b600052603260045260246000fd5b602002602001018190525060cd60008581526020019081526020016000208054611ee19061396f565b80601f0160208091040260200160405190810160405280929190818152602001828054611f0d9061396f565b8015611f5a5780601f10611f2f57610100808354040283529160200191611f5a565b820191906000526020600020905b815481529060010190602001808311611f3d57829003601f168201915b505050505081600181518110611f8057634e487b7160e01b600052603260045260246000fd5b60209081029190910101529392505050565b6060610eb9838383846121f9565b611fa8611e2a565b6001600160a01b0316611fc36033546001600160a01b031690565b6001600160a01b031614610e925760405162461bcd60e51b815260206004820181905260248201527f4f776e61626c653a2063616c6c6572206973206e6f7420746865206f776e65726044820152606401610ade565b612021610a2a565b156120645760405162461bcd60e51b8152602060048201526013602482015272109b1bd8dadb1a5cdd0e88111254d050931151606a1b6044820152606401610ade565b600080516020613a27833981519152805460ff191660011790557f079c4efaefd9fc7ddb28144b9b0140c03f42922d28d0e226369d6070921581666120a7611e2a565b6040516001600160a01b03909116815260200160405180910390a1565b610ecf816120d0611e2a565b612ab1565b6120df8282611460565b610f5c5760008281526097602090815260408083206001600160a01b03851684529091529020805460ff19166001179055612118611e2a565b6001600160a01b0316816001600160a01b0316837f2f8788117e7eff1d82e926ec794901d17c78024a50270940304540a733656f0d60405160405180910390a45050565b610ecf600080516020613a6783398151915282611a7a565b61217e8282611460565b15610f5c5760008281526097602090815260408083206001600160a01b03851684529091529020805460ff191690556121b5611e2a565b6001600160a01b0316816001600160a01b0316837ff6391f5c32d9c69d2a47ea670b442974b53935d1edc7fd64eb21e047a839171b60405160405180910390a45050565b600061220484612b15565b60c954604051634f558e7960e01b8152600481018390529192506001600160a01b031690634f558e799060240160206040518083038186803b15801561224957600080fd5b505afa15801561225d573d6000803e3d6000fd5b505050506040513d601f19601f820116820180604052508101906122819190613239565b1561249e5760c9546040516331a9108f60e11b81526004810183905230916001600160a01b031690636352211e9060240160206040518083038186803b1580156122ca57600080fd5b505afa1580156122de573d6000803e3d6000fd5b505050506040513d601f19601f820116820180604052508101906123029190612f8c565b6001600160a01b0316146123665760405162461bcd60e51b815260206004820152602560248201527f4d696e74696e674d616e616765723a2049535355494e475f554e4f574e45445f6044820152642a27a5a2a760d91b6064820152608401610ade565b60c9546040516376094f7560e11b81526001600160a01b039091169063ec129eea9061239a908690869086906004016135bd565b600060405180830381600087803b1580156123b457600080fd5b505af11580156123c8573d6000803e3d6000fd5b505060c95460405163743dbf1160e11b81526001600160a01b03898116600483015260248201869052909116925063e87b7e229150604401600060405180830381600087803b15801561241a57600080fd5b505af115801561242e573d6000803e3d6000fd5b505060c95460405163559dc3ff60e11b81526001600160a01b03898116600483015260248201869052909116925063ab3b87fe91506044015b600060405180830381600087803b15801561248157600080fd5b505af1158015612495573d6000803e3d6000fd5b5050505061260d565b6124a781612b72565b6124b084612bd4565b80156124bd575083516002145b156125a95760ca5484516001600160a01b039091169063c36c212590879087906000906124fa57634e487b7160e01b600052603260045260246000fd5b602090810291909101015160cc546040516001600160e01b031960e086901b1681526125349392916001600160a01b031690600401613542565b600060405180830381600087803b15801561254e57600080fd5b505af1158015612562573d6000803e3d6000fd5b505050506000835111156125a45760cc54604051633a0deb9d60e21b81526001600160a01b039091169063e837ae7490612467908690869086906004016135bd565b61260d565b60c954604051637d67df6360e01b81526001600160a01b0390911690637d67df63906125df9088908890889088906004016134ed565b600060405180830381600087803b1580156125f957600080fd5b505af1158015611a6f573d6000803e3d6000fd5b5050505050565b61261c611136565b61265f5760405162461bcd60e51b815260206004820152601460248201527314185d5cd8589b194e881393d517d4105554d15160621b6044820152606401610ade565b600080516020613a07833981519152805460ff191690557f5db9ee0a495bf2e6ff9c91a7834c1ba4fdd244a5e8aa4e537bd38aeae4b073aa6120a7611e2a565b6126a7610a2a565b156126ea5760405162461bcd60e51b8152602060048201526013602482015272109b1bd8dadb1a5cdd0e88111254d050931151606a1b6044820152606401610ade565b604080517f1ec047073e2c8b15660901dbfdb6e3ff6365bd699dd9f95dcc6eab5448bebd69602082015290810182905260019061272990606001611652565b805460ff19169115159190911790556040518181527f2ce5d9351b1d590d5a066db0d2dc7602d55f092506a83a7ee8c4d78ee357d75a9060200160405180910390a150565b610ecf600080516020613a67833981519152826129ab565b603380546001600160a01b038381166001600160a01b0319831681179093556040519116919082907f8be0079c531659141344cd1fd0a4f28419497f9722a3daafe3b4186f6b6457e090600090a35050565b6127e0611136565b156127fd5760405162461bcd60e51b8152600401610ade906136ea565b600080516020613a07833981519152805460ff191660011790557f62e78cea01bee320cd4e420270b5ea74000d11b0c9f74754ebdbfc544b05a2586120a7611e2a565b612848610a2a565b6128895760405162461bcd60e51b8152602060048201526012602482015271109b1bd8dadb1a5cdd0e881153905093115160721b6044820152606401610ade565b600080516020613a27833981519152805460ff191690557f316c4cec74b9568f102eda30781a2fe8cd5172329bf1401e804cb8c5131715c46120a7611e2a565b6000806128d76000846129b5565b90506128e281611d98565b9392505050565b60005b81811015610eb95761292383838381811061291757634e487b7160e01b600052603260045260246000fd5b9050602002013561269f565b8061292d816139aa565b9150506128ec565b61293d611fa0565b6001600160a01b0381166129a25760405162461bcd60e51b815260206004820152602660248201527f4f776e61626c653a206e6577206f776e657220697320746865207a65726f206160448201526564647265737360d01b6064820152608401610ade565b610ecf81612786565b610f5c82826120d5565b6000815160001415612a095760405162461bcd60e51b815260206004820152601b60248201527f4d696e74696e674d616e616765723a204c4142454c5f454d50545900000000006044820152606401610ade565b8282604051602001612a1b9190613434565b60405160208183030381529060405280519060200120604051602001612a4b929190918252602082015260400190565b60408051601f1981840301815291905280516020909101209392505050565b7f893ef2ea16c023f61d4f55d3e6ee3fc3f2fbfd478461323dbc2fbf919047086e546000906001600160a01b0316331415612aac575060331936013560601c90565b503390565b612abb8282611460565b610f5c57612ad3816001600160a01b03166014612bf6565b612ade836020612bf6565b604051602001612aef929190613478565b60408051601f198184030181529082905262461bcd60e51b8252610ade9160040161365c565b805160009081905b8015610a2357612b5e8285612b3360018561384c565b81518110612b5157634e487b7160e01b600052603260045260246000fd5b60200260200101516129b5565b915080612b6a81613958565b915050612b1d565b612b7a610a2a565b610ecf57612b8781611608565b156111035760405162461bcd60e51b815260206004820152601d60248201527f4d696e74696e674d616e616765723a20544f4b454e5f424c4f434b45440000006044820152606401610ade565b600080612beb60008460018651612b33919061384c565b90506128e281612dd7565b60606000612c0583600261382d565b612c10906002613815565b6001600160401b03811115612c3557634e487b7160e01b600052604160045260246000fd5b6040519080825280601f01601f191660200182016040528015612c5f576020820181803683370190505b509050600360fc1b81600081518110612c8857634e487b7160e01b600052603260045260246000fd5b60200101906001600160f81b031916908160001a905350600f60fb1b81600181518110612cc557634e487b7160e01b600052603260045260246000fd5b60200101906001600160f81b031916908160001a9053506000612ce984600261382d565b612cf4906001613815565b90505b6001811115612d88576f181899199a1a9b1b9c1cb0b131b232b360811b85600f1660108110612d3657634e487b7160e01b600052603260045260246000fd5b1a60f81b828281518110612d5a57634e487b7160e01b600052603260045260246000fd5b60200101906001600160f81b031916908160001a90535060049490941c93612d8181613958565b9050612cf7565b5083156128e25760405162461bcd60e51b815260206004820181905260248201527f537472696e67733a20686578206c656e67746820696e73756666696369656e746044820152606401610ade565b60ca546000906001600160a01b03161580159061094d5750507f0f4a10a4f46c288cea365fcf45cccf0e9d901b945b9829ccdb54c10dc3cb7a6f1490565b508054612e219061396f565b6000825580601f10612e31575050565b601f016020900490600052602060002090810190610ecf9190612ed3565b828054612e5b9061396f565b90600052602060002090601f016020900481019282612e7d5760008555612ec3565b82601f10612e9657805160ff1916838001178555612ec3565b82800160010185558215612ec3579182015b82811115612ec3578251825591602001919060010190612ea8565b50612ecf929150612ed3565b5090565b5b80821115612ecf5760008155600101612ed4565b60008083601f840112612ef9578182fd5b5081356001600160401b03811115612f0f578182fd5b6020830191508360208260051b8501011115612f2a57600080fd5b9250929050565b60008083601f840112612f42578182fd5b5081356001600160401b03811115612f58578182fd5b602083019150836020828501011115612f2a57600080fd5b600060208284031215612f81578081fd5b81356128e2816139f1565b600060208284031215612f9d578081fd5b81516128e2816139f1565b60008060008060008060006080888a031215612fc2578283fd5b8735612fcd816139f1565b965060208801356001600160401b0380821115612fe8578485fd5b612ff48b838c01612ee8565b909850965060408a013591508082111561300c578485fd5b6130188b838c01612ee8565b909650945060608a0135915080821115613030578384fd5b5061303d8a828b01612ee8565b989b979a50959850939692959293505050565b60008060008060608587031215613065578384fd5b8435613070816139f1565b93506020850135925060408501356001600160401b03811115613091578283fd5b61309d87828801612f31565b95989497509550505050565b60008060008060008060008060a0898b0312156130c4578182fd5b88356130cf816139f1565b97506020890135965060408901356001600160401b03808211156130f1578384fd5b6130fd8c838d01612f31565b909850965060608b0135915080821115613115578384fd5b6131218c838d01612ee8565b909650945060808b0135915080821115613139578384fd5b506131468b828c01612ee8565b999c989b5096995094979396929594505050565b6000806020838503121561316c578182fd5b82356001600160401b03811115613181578283fd5b61318d85828601612ee8565b90969095509350505050565b600060208083850312156131ab578182fd5b82356001600160401b038111156131c0578283fd5b8301601f810185136131d0578283fd5b80356131e36131de826137f2565b6137c2565b80828252848201915084840188868560051b8701011115613202578687fd5b8694505b8385101561322d578035613219816139f1565b835260019490940193918501918501613206565b50979650505050505050565b60006020828403121561324a578081fd5b815180151581146128e2578182fd5b60006020828403121561326a578081fd5b5035919050565b60008060408385031215613283578182fd5b823591506020830135613295816139f1565b809150509250929050565b6000602082840312156132b1578081fd5b81356001600160e01b0319811681146128e2578182fd5b600080600080600060a086880312156132df578283fd5b85356132ea816139f1565b945060208601356132fa816139f1565b9350604086013561330a816139f1565b9250606086013561331a816139f1565b9150608086013561332a816139f1565b809150509295509295909350565b6000806020838503121561334a578182fd5b82356001600160401b0381111561335f578283fd5b61318d85828601612f31565b60008060006040848603121561337f578081fd5b8335925060208401356001600160401b0381111561339b578182fd5b6133a786828701612f31565b9497909650939450505050565b600081518084526020808501808196508360051b81019150828601855b858110156133fb5782840389526133e9848351613408565b988501989350908401906001016133d1565b5091979650505050505050565b60008151808452613420816020860160208601613928565b601f01601f19169290920160200192915050565b60008251613446818460208701613928565b9190910192915050565b6b756e732d646576746573742d60a01b81528183600c83013760009101600c01908152919050565b7f416363657373436f6e74726f6c3a206163636f756e74200000000000000000008152600083516134b0816017850160208801613928565b7001034b99036b4b9b9b4b733903937b6329607d1b60179184019182015283516134e1816028840160208801613928565b01602801949350505050565b6001600160a01b0385168152608060208201819052600090613511908301866133b4565b828103604084015261352381866133b4565b9050828103606084015261353781856133b4565b979650505050505050565b600060018060a01b038086168352606060208401526135646060840186613408565b9150808416604084015250949350505050565b6020808252825182820181905260009190848201906040850190845b818110156135b1578351151583529284019291840191600101613593565b50909695505050505050565b6060815260006135d060608301866133b4565b82810360208401526135e281866133b4565b915050826040830152949350505050565b6020808252810182905260006001600160fb1b03831115613612578081fd5b8260051b808560408501379190910160400190815292915050565b60208152816020820152818360408301376000818301604090810191909152601f909201601f19160101919050565b6020815260006128e26020830184613408565b60208082526026908201527f4d696e74696e674d616e616765723a20544f4b454e5f4c4142454c5f50524f4860408201526512509255115160d21b606082015260800190565b6020808252818101527f4d696e746572526f6c653a2043414c4c45525f49535f4e4f545f4d494e544552604082015260600190565b60208082526010908201526f14185d5cd8589b194e8814105554d15160821b604082015260600190565b60208082526022908201527f4d696e74696e674d616e616765723a20544c445f4e4f545f5245474953544552604082015261115160f21b606082015260800190565b6020808252602b908201527f496e697469616c697a61626c653a20636f6e7472616374206973206e6f74206960408201526a6e697469616c697a696e6760a81b606082015260800190565b8281526040602082015260006137ba6040830184613408565b949350505050565b604051601f8201601f191681016001600160401b03811182821017156137ea576137ea6139db565b604052919050565b60006001600160401b0382111561380b5761380b6139db565b5060051b60200190565b60008219821115613828576138286139c5565b500190565b6000816000190483118215151615613847576138476139c5565b500290565b60008282101561385e5761385e6139c5565b500390565b60006138716131de846137f2565b808482526020808301925084368760051b8701111561388e578485fd5b845b8781101561391c5781356001600160401b03808211156138ae578788fd5b90880190601f36818401126138c1578889fd5b8235828111156138d3576138d36139db565b6138e4818301601f191688016137c2565b925080835236878286010111156138f957898afd5b808785018885013782018601899052508652509382019390820190600101613890565b50919695505050505050565b60005b8381101561394357818101518382015260200161392b565b83811115613952576000848401525b50505050565b600081613967576139676139c5565b506000190190565b600181811c9082168061398357607f821691505b602082108114156139a457634e487b7160e01b600052602260045260246000fd5b50919050565b60006000198214156139be576139be6139c5565b5060010190565b634e487b7160e01b600052601160045260246000fd5b634e487b7160e01b600052604160045260246000fd5b6001600160a01b0381168114610ecf57600080fdfe5496787fc1ebdfeba375028c1865f13fbb1d63c0caa356ccc1b29a80f3ebd622a85b8425a460dd344a297bd4a82e287385f0fc558cb3e78867b0489f43df2470b551e0305c8163b812374b8e78b577c77f226f6f10c5ad03e52699578fbc34b89f2df0fed2c77648de5860a4cc508cd0818c85b8b8a1ab4ceeef8d981c8956a6a164736f6c6343000804000a",
  "linkReferences": {},
  "deployedLinkReferences": {}
}