{
  "_format": "hh-sol-artifact-1",
  "contractName": "MintingManager",
  "sourceName": "contracts/MintingManager.sol",
  "abi": [
    {
      "anonymous": false,
      "inputs": [
        {
          "indexed": false,
          "internalType": "address",
          "name": "previousAdmin",
          "type": "address"
        },
        {
          "indexed": false,
          "internalType": "address",
          "name": "newAdmin",
          "type": "address"
        }
      ],
      "name": "AdminChanged",
      "type": "event"
    },
    {
      "anonymous": false,
      "inputs": [
        {
          "indexed": false,
          "internalType": "uint256",
          "name": "tokenId",
          "type": "uint256"
        }
      ],
      "name": "Blocked",
      "type": "event"
    },
    {
      "anonymous": false,
      "inputs": [
        {
          "indexed": false,
          "internalType": "address",
          "name": "account",
          "type": "address"
        }
      ],
      "name": "BlocklistDisabled",
      "type": "event"
    },
    {
      "anonymous": false,
      "inputs": [
        {
          "indexed": false,
          "internalType": "address",
          "name": "account",
          "type": "address"
        }
      ],
      "name": "BlocklistEnabled",
      "type": "event"
    },
    {
      "anonymous": false,
      "inputs": [
        {
          "indexed": true,
          "internalType": "uint256",
          "name": "tokenId",
          "type": "uint256"
        },
        {
          "indexed": false,
          "internalType": "string",
          "name": "tld",
          "type": "string"
        }
      ],
      "name": "NewTld",
      "type": "event"
    },
    {
      "anonymous": false,
      "inputs": [
        {
          "indexed": true,
          "internalType": "address",
          "name": "previousOwner",
          "type": "address"
        },
        {
          "indexed": true,
          "internalType": "address",
          "name": "newOwner",
          "type": "address"
        }
      ],
      "name": "OwnershipTransferred",
      "type": "event"
    },
    {
      "anonymous": false,
      "inputs": [
        {
          "indexed": false,
          "internalType": "address",
          "name": "account",
          "type": "address"
        }
      ],
      "name": "Paused",
      "type": "event"
    },
    {
      "anonymous": false,
      "inputs": [
        {
          "indexed": true,
          "internalType": "bytes32",
          "name": "role",
          "type": "bytes32"
        },
        {
          "indexed": true,
          "internalType": "bytes32",
          "name": "previousAdminRole",
          "type": "bytes32"
        },
        {
          "indexed": true,
          "internalType": "bytes32",
          "name": "newAdminRole",
          "type": "bytes32"
        }
      ],
      "name": "RoleAdminChanged",
      "type": "event"
    },
    {
      "anonymous": false,
      "inputs": [
        {
          "indexed": true,
          "internalType": "bytes32",
          "name": "role",
          "type": "bytes32"
        },
        {
          "indexed": true,
          "internalType": "address",
          "name": "account",
          "type": "address"
        },
        {
          "indexed": true,
          "internalType": "address",
          "name": "sender",
          "type": "address"
        }
      ],
      "name": "RoleGranted",
      "type": "event"
    },
    {
      "anonymous": false,
      "inputs": [
        {
          "indexed": true,
          "internalType": "bytes32",
          "name": "role",
          "type": "bytes32"
        },
        {
          "indexed": true,
          "internalType": "address",
          "name": "account",
          "type": "address"
        },
        {
          "indexed": true,
          "internalType": "address",
          "name": "sender",
          "type": "address"
        }
      ],
      "name": "RoleRevoked",
      "type": "event"
    },
    {
      "anonymous": false,
      "inputs": [
        {
          "indexed": false,
          "internalType": "address",
          "name": "account",
          "type": "address"
        }
      ],
      "name": "Unpaused",
      "type": "event"
    },
    {
      "anonymous": false,
      "inputs": [
        {
          "indexed": true,
          "internalType": "address",
          "name": "implementation",
          "type": "address"
        }
      ],
      "name": "Upgraded",
      "type": "event"
    },
    {
      "inputs": [],
      "name": "DEFAULT_ADMIN_ROLE",
      "outputs": [
        {
          "internalType": "bytes32",
          "name": "",
          "type": "bytes32"
        }
      ],
      "stateMutability": "view",
      "type": "function"
    },
    {
      "inputs": [],
      "name": "MINTER_ROLE",
      "outputs": [
        {
          "internalType": "bytes32",
          "name": "",
          "type": "bytes32"
        }
      ],
      "stateMutability": "view",
      "type": "function"
    },
    {
      "inputs": [],
      "name": "NAME",
      "outputs": [
        {
          "internalType": "string",
          "name": "",
          "type": "string"
        }
      ],
      "stateMutability": "view",
      "type": "function"
    },
    {
      "inputs": [],
      "name": "VERSION",
      "outputs": [
        {
          "internalType": "string",
          "name": "",
          "type": "string"
        }
      ],
      "stateMutability": "view",
      "type": "function"
    },
    {
      "inputs": [
        {
          "internalType": "address",
          "name": "account",
          "type": "address"
        }
      ],
      "name": "addMinter",
      "outputs": [],
      "stateMutability": "nonpayable",
      "type": "function"
    },
    {
      "inputs": [
        {
          "internalType": "address[]",
          "name": "accounts",
          "type": "address[]"
        }
      ],
      "name": "addMinters",
      "outputs": [],
      "stateMutability": "nonpayable",
      "type": "function"
    },
    {
      "inputs": [
        {
          "internalType": "string",
          "name": "tld",
          "type": "string"
        }
      ],
      "name": "addTld",
      "outputs": [],
      "stateMutability": "nonpayable",
      "type": "function"
    },
    {
      "inputs": [
        {
          "internalType": "uint256[]",
          "name": "tokenIds",
          "type": "uint256[]"
        }
      ],
      "name": "areBlocked",
      "outputs": [
        {
          "internalType": "bool[]",
          "name": "values",
          "type": "bool[]"
        }
      ],
      "stateMutability": "view",
      "type": "function"
    },
    {
      "inputs": [
        {
          "internalType": "uint256",
          "name": "tokenId",
          "type": "uint256"
        }
      ],
      "name": "blocklist",
      "outputs": [],
      "stateMutability": "nonpayable",
      "type": "function"
    },
    {
      "inputs": [
        {
          "internalType": "uint256[]",
          "name": "tokenIds",
          "type": "uint256[]"
        }
      ],
      "name": "blocklistAll",
      "outputs": [],
      "stateMutability": "nonpayable",
      "type": "function"
    },
    {
      "inputs": [
        {
          "internalType": "uint256",
          "name": "tld",
          "type": "uint256"
        },
        {
          "internalType": "string",
          "name": "label",
          "type": "string"
        }
      ],
      "name": "claim",
      "outputs": [],
      "stateMutability": "nonpayable",
      "type": "function"
    },
    {
      "inputs": [
        {
          "internalType": "address",
          "name": "to",
          "type": "address"
        },
        {
          "internalType": "uint256",
          "name": "tld",
          "type": "uint256"
        },
        {
          "internalType": "string",
          "name": "label",
          "type": "string"
        }
      ],
      "name": "claimTo",
      "outputs": [],
      "stateMutability": "nonpayable",
      "type": "function"
    },
    {
      "inputs": [
        {
          "internalType": "address",
          "name": "to",
          "type": "address"
        },
        {
          "internalType": "uint256",
          "name": "tld",
          "type": "uint256"
        },
        {
          "internalType": "string",
          "name": "label",
          "type": "string"
        },
        {
          "internalType": "string[]",
          "name": "keys",
          "type": "string[]"
        },
        {
          "internalType": "string[]",
          "name": "values",
          "type": "string[]"
        }
      ],
      "name": "claimToWithRecords",
      "outputs": [],
      "stateMutability": "nonpayable",
      "type": "function"
    },
    {
      "inputs": [
        {
          "internalType": "address payable",
          "name": "receiver",
          "type": "address"
        }
      ],
      "name": "closeMinter",
      "outputs": [],
      "stateMutability": "payable",
      "type": "function"
    },
    {
      "inputs": [],
      "name": "cnsMintingController",
      "outputs": [
        {
          "internalType": "contract IMintingController",
          "name": "",
          "type": "address"
        }
      ],
      "stateMutability": "view",
      "type": "function"
    },
    {
      "inputs": [],
      "name": "cnsResolver",
      "outputs": [
        {
          "internalType": "contract IResolver",
          "name": "",
          "type": "address"
        }
      ],
      "stateMutability": "view",
      "type": "function"
    },
    {
      "inputs": [],
      "name": "cnsURIPrefixController",
      "outputs": [
        {
          "internalType": "contract IURIPrefixController",
          "name": "",
          "type": "address"
        }
      ],
      "stateMutability": "view",
      "type": "function"
    },
    {
      "inputs": [],
      "name": "disableBlocklist",
      "outputs": [],
      "stateMutability": "nonpayable",
      "type": "function"
    },
    {
      "inputs": [],
      "name": "enableBlocklist",
      "outputs": [],
      "stateMutability": "nonpayable",
      "type": "function"
    },
    {
      "inputs": [
        {
          "internalType": "bytes32",
          "name": "role",
          "type": "bytes32"
        }
      ],
      "name": "getRoleAdmin",
      "outputs": [
        {
          "internalType": "bytes32",
          "name": "",
          "type": "bytes32"
        }
      ],
      "stateMutability": "view",
      "type": "function"
    },
    {
      "inputs": [
        {
          "internalType": "bytes32",
          "name": "role",
          "type": "bytes32"
        },
        {
          "internalType": "address",
          "name": "account",
          "type": "address"
        }
      ],
      "name": "grantRole",
      "outputs": [],
      "stateMutability": "nonpayable",
      "type": "function"
    },
    {
      "inputs": [
        {
          "internalType": "bytes32",
          "name": "role",
          "type": "bytes32"
        },
        {
          "internalType": "address",
          "name": "account",
          "type": "address"
        }
      ],
      "name": "hasRole",
      "outputs": [
        {
          "internalType": "bool",
          "name": "",
          "type": "bool"
        }
      ],
      "stateMutability": "view",
      "type": "function"
    },
    {
      "inputs": [
        {
          "internalType": "contract IUNSRegistry",
          "name": "unsRegistry_",
          "type": "address"
        },
        {
          "internalType": "contract IMintingController",
          "name": "cnsMintingController_",
          "type": "address"
        },
        {
          "internalType": "contract IURIPrefixController",
          "name": "cnsURIPrefixController_",
          "type": "address"
        },
        {
          "internalType": "contract IResolver",
          "name": "cnsResolver_",
          "type": "address"
        },
        {
          "internalType": "address",
          "name": "forwarder",
          "type": "address"
        }
      ],
      "name": "initialize",
      "outputs": [],
      "stateMutability": "nonpayable",
      "type": "function"
    },
    {
      "inputs": [
        {
          "internalType": "uint256",
          "name": "tokenId",
          "type": "uint256"
        }
      ],
      "name": "isBlocked",
      "outputs": [
        {
          "internalType": "bool",
          "name": "",
          "type": "bool"
        }
      ],
      "stateMutability": "view",
      "type": "function"
    },
    {
      "inputs": [],
      "name": "isBlocklistDisabled",
      "outputs": [
        {
          "internalType": "bool",
          "name": "",
          "type": "bool"
        }
      ],
      "stateMutability": "view",
      "type": "function"
    },
    {
      "inputs": [
        {
          "internalType": "address",
          "name": "account",
          "type": "address"
        }
      ],
      "name": "isMinter",
      "outputs": [
        {
          "internalType": "bool",
          "name": "",
          "type": "bool"
        }
      ],
      "stateMutability": "view",
      "type": "function"
    },
    {
      "inputs": [
        {
          "internalType": "address",
          "name": "forwarder",
          "type": "address"
        }
      ],
      "name": "isTrustedForwarder",
      "outputs": [
        {
          "internalType": "bool",
          "name": "",
          "type": "bool"
        }
      ],
      "stateMutability": "view",
      "type": "function"
    },
    {
      "inputs": [
        {
          "internalType": "address",
          "name": "to",
          "type": "address"
        },
        {
          "internalType": "uint256",
          "name": "tld",
          "type": "uint256"
        },
        {
          "internalType": "string",
          "name": "label",
          "type": "string"
        }
      ],
      "name": "mintSLD",
      "outputs": [],
      "stateMutability": "nonpayable",
      "type": "function"
    },
    {
      "inputs": [
        {
          "internalType": "address",
          "name": "to",
          "type": "address"
        },
        {
          "internalType": "uint256",
          "name": "tld",
          "type": "uint256"
        },
        {
          "internalType": "string",
          "name": "label",
          "type": "string"
        },
        {
          "internalType": "string[]",
          "name": "keys",
          "type": "string[]"
        },
        {
          "internalType": "string[]",
          "name": "values",
          "type": "string[]"
        }
      ],
      "name": "mintSLDWithRecords",
      "outputs": [],
      "stateMutability": "nonpayable",
      "type": "function"
    },
    {
      "inputs": [],
      "name": "owner",
      "outputs": [
        {
          "internalType": "address",
          "name": "",
          "type": "address"
        }
      ],
      "stateMutability": "view",
      "type": "function"
    },
    {
      "inputs": [],
      "name": "pause",
      "outputs": [],
      "stateMutability": "nonpayable",
      "type": "function"
    },
    {
      "inputs": [],
      "name": "paused",
      "outputs": [
        {
          "internalType": "bool",
          "name": "",
          "type": "bool"
        }
      ],
      "stateMutability": "view",
      "type": "function"
    },
    {
      "inputs": [
        {
          "internalType": "address",
          "name": "account",
          "type": "address"
        }
      ],
      "name": "removeMinter",
      "outputs": [],
      "stateMutability": "nonpayable",
      "type": "function"
    },
    {
      "inputs": [
        {
          "internalType": "address[]",
          "name": "accounts",
          "type": "address[]"
        }
      ],
      "name": "removeMinters",
      "outputs": [],
      "stateMutability": "nonpayable",
      "type": "function"
    },
    {
      "inputs": [],
      "name": "renounceMinter",
      "outputs": [],
      "stateMutability": "nonpayable",
      "type": "function"
    },
    {
      "inputs": [],
      "name": "renounceOwnership",
      "outputs": [],
      "stateMutability": "nonpayable",
      "type": "function"
    },
    {
      "inputs": [
        {
          "internalType": "bytes32",
          "name": "role",
          "type": "bytes32"
        },
        {
          "internalType": "address",
          "name": "account",
          "type": "address"
        }
      ],
      "name": "renounceRole",
      "outputs": [],
      "stateMutability": "nonpayable",
      "type": "function"
    },
    {
      "inputs": [
        {
          "internalType": "bytes32",
          "name": "role",
          "type": "bytes32"
        },
        {
          "internalType": "address",
          "name": "account",
          "type": "address"
        }
      ],
      "name": "revokeRole",
      "outputs": [],
      "stateMutability": "nonpayable",
      "type": "function"
    },
    {
      "inputs": [
        {
          "internalType": "address payable",
          "name": "receiver",
          "type": "address"
        }
      ],
      "name": "rotateMinter",
      "outputs": [],
      "stateMutability": "payable",
      "type": "function"
    },
    {
      "inputs": [
        {
          "internalType": "address",
          "name": "to",
          "type": "address"
        },
        {
          "internalType": "uint256",
          "name": "tld",
          "type": "uint256"
        },
        {
          "internalType": "string",
          "name": "label",
          "type": "string"
        }
      ],
      "name": "safeMintSLD",
      "outputs": [],
      "stateMutability": "nonpayable",
      "type": "function"
    },
    {
      "inputs": [
        {
          "internalType": "address",
          "name": "to",
          "type": "address"
        },
        {
          "internalType": "uint256",
          "name": "tld",
          "type": "uint256"
        },
        {
          "internalType": "string",
          "name": "label",
          "type": "string"
        },
        {
          "internalType": "bytes",
          "name": "data",
          "type": "bytes"
        }
      ],
      "name": "safeMintSLD",
      "outputs": [],
      "stateMutability": "nonpayable",
      "type": "function"
    },
    {
      "inputs": [
        {
          "internalType": "address",
          "name": "to",
          "type": "address"
        },
        {
          "internalType": "uint256",
          "name": "tld",
          "type": "uint256"
        },
        {
          "internalType": "string",
          "name": "label",
          "type": "string"
        },
        {
          "internalType": "string[]",
          "name": "keys",
          "type": "string[]"
        },
        {
          "internalType": "string[]",
          "name": "values",
          "type": "string[]"
        }
      ],
      "name": "safeMintSLDWithRecords",
      "outputs": [],
      "stateMutability": "nonpayable",
      "type": "function"
    },
    {
      "inputs": [
        {
          "internalType": "address",
          "name": "to",
          "type": "address"
        },
        {
          "internalType": "uint256",
          "name": "tld",
          "type": "uint256"
        },
        {
          "internalType": "string",
          "name": "label",
          "type": "string"
        },
        {
          "internalType": "string[]",
          "name": "keys",
          "type": "string[]"
        },
        {
          "internalType": "string[]",
          "name": "values",
          "type": "string[]"
        },
        {
          "internalType": "bytes",
          "name": "data",
          "type": "bytes"
        }
      ],
      "name": "safeMintSLDWithRecords",
      "outputs": [],
      "stateMutability": "nonpayable",
      "type": "function"
    },
    {
      "inputs": [
        {
          "internalType": "address",
          "name": "forwarder",
          "type": "address"
        }
      ],
      "name": "setForwarder",
      "outputs": [],
      "stateMutability": "nonpayable",
      "type": "function"
    },
    {
      "inputs": [
        {
          "internalType": "address",
          "name": "resolver",
          "type": "address"
        }
      ],
      "name": "setResolver",
      "outputs": [],
      "stateMutability": "nonpayable",
      "type": "function"
    },
    {
      "inputs": [
        {
          "internalType": "string",
          "name": "prefix",
          "type": "string"
        }
      ],
      "name": "setTokenURIPrefix",
      "outputs": [],
      "stateMutability": "nonpayable",
      "type": "function"
    },
    {
      "inputs": [
        {
          "internalType": "bytes4",
          "name": "interfaceId",
          "type": "bytes4"
        }
      ],
      "name": "supportsInterface",
      "outputs": [
        {
          "internalType": "bool",
          "name": "",
          "type": "bool"
        }
      ],
      "stateMutability": "view",
      "type": "function"
    },
    {
      "inputs": [
        {
          "internalType": "address",
          "name": "newOwner",
          "type": "address"
        }
      ],
      "name": "transferOwnership",
      "outputs": [],
      "stateMutability": "nonpayable",
      "type": "function"
    },
    {
      "inputs": [],
      "name": "unpause",
      "outputs": [],
      "stateMutability": "nonpayable",
      "type": "function"
    },
    {
      "inputs": [],
      "name": "unsRegistry",
      "outputs": [
        {
          "internalType": "contract IUNSRegistry",
          "name": "",
          "type": "address"
        }
      ],
      "stateMutability": "view",
      "type": "function"
    }
  ],
  "bytecode": "0x608060405234801561001057600080fd5b506144c6806100206000396000f3fe6080604052600436106102c95760003560e01c806371e2a65711610175578063a849d65c116100dc578063cc2c3fc411610095578063d547741f1161006f578063d547741f14610810578063e47d6cc614610830578063f2fde38b14610850578063ffa1ad7414610870576102c9565b8063cc2c3fc4146107c6578063ceeb4f50146107db578063d5391393146107fb576102c9565b8063a849d65c14610711578063aa271e1a14610726578063ae2ad90314610746578063b0aa98c714610766578063b9998a2414610786578063c3a3bc00146107a6576102c9565b806391d148541161012e57806391d1485414610665578063983b2d561461068557806398650275146106a557806399e0dd7c146106ba578063a217fddf146106da578063a3f4df7e146106ef576102c9565b806371e2a657146105d357806381c81d35146105f35780638456cb59146106065780638da5cb5b1461061b578063906cecc11461063057806390dbdb5a14610650576102c9565b80633f41b6141161023457806358839d6b116101ed5780635fc1964f116101c75780635fc1964f1461056b578063634486da1461058b5780636a2d22561461059e578063715018a6146105be576102c9565b806358839d6b146105215780635b6fa8db146105415780635c975abb14610556576102c9565b80633f41b6141461046a5780633f4ba83a1461048c578063463c4bcb146104a15780634c1819e0146104c15780634e543b26146104e1578063572b6c0514610501576102c9565b806327bbd2251161028657806327bbd225146103b55780632eff1a95146103d55780632f2ff15d146103ea5780633092afd51461040a57806336568abe1461042a57806339ccf4d01461044a576102c9565b806301ffc9a7146102ce5780630e36a87d1461030457806310921f12146103315780631459457a14610346578063248a9ca314610368578063268b15ed14610395575b600080fd5b3480156102da57600080fd5b506102ee6102e9366004613961565b610885565b6040516102fb9190613f79565b60405180910390f35b34801561031057600080fd5b5061032461031f3660046138bb565b6108b2565b6040516102fb9190613ef9565b34801561033d57600080fd5b506102ee610989565b34801561035257600080fd5b50610366610361366004613989565b6109ac565b005b34801561037457600080fd5b5061038861038336600461391a565b610c47565b6040516102fb9190613f84565b3480156103a157600080fd5b506103666103b0366004613a2c565b610c5c565b3480156103c157600080fd5b506103666103d03660046135e7565b610d67565b3480156103e157600080fd5b50610366610edb565b3480156103f657600080fd5b50610366610405366004613932565b610f24565b34801561041657600080fd5b50610366610425366004613572565b610f4d565b34801561043657600080fd5b50610366610445366004613932565b610f98565b34801561045657600080fd5b506103666104653660046135e7565b610fde565b34801561047657600080fd5b5061047f611137565b6040516102fb9190613cdb565b34801561049857600080fd5b50610366611146565b3480156104ad57600080fd5b506103666104bc36600461391a565b61118d565b3480156104cd57600080fd5b506103666104dc36600461358e565b6111bd565b3480156104ed57600080fd5b506103666104fc366004613572565b6112f4565b34801561050d57600080fd5b506102ee61051c366004613572565b611355565b34801561052d57600080fd5b5061036661053c366004613773565b611396565b34801561054d57600080fd5b5061047f6114f6565b34801561056257600080fd5b506102ee611505565b34801561057757600080fd5b506103666105863660046137fb565b61151e565b610366610599366004613572565b6115ab565b3480156105aa57600080fd5b506103666105b9366004613698565b61163e565b3480156105ca57600080fd5b506103666117e9565b3480156105df57600080fd5b506103666105ee3660046137fb565b611872565b610366610601366004613572565b6118ff565b34801561061257600080fd5b5061036661194c565b34801561062757600080fd5b5061047f611993565b34801561063c57600080fd5b5061036661064b36600461358e565b6119a2565b34801561065c57600080fd5b50610366611a9c565b34801561067157600080fd5b506102ee610680366004613932565b611ae3565b34801561069157600080fd5b506103666106a0366004613572565b611b0e565b3480156106b157600080fd5b50610366611b56565b3480156106c657600080fd5b506103666106d53660046139f9565b611b70565b3480156106e657600080fd5b50610388611c86565b3480156106fb57600080fd5b50610704611c8b565b6040516102fb9190613fa9565b34801561071d57600080fd5b5061047f611cbb565b34801561073257600080fd5b506102ee610741366004613572565b611cca565b34801561075257600080fd5b5061036661076136600461358e565b611ce4565b34801561077257600080fd5b506102ee61078136600461391a565b611e37565b34801561079257600080fd5b506103666107a1366004613572565b611ea5565b3480156107b257600080fd5b506103666107c13660046139f9565b611eed565b3480156107d257600080fd5b5061047f611f6b565b3480156107e757600080fd5b506103666107f63660046135e7565b611f7a565b34801561080757600080fd5b5061038861207d565b34801561081c57600080fd5b5061036661082b366004613932565b61208f565b34801561083c57600080fd5b5061036661084b3660046138bb565b6120ae565b34801561085c57600080fd5b5061036661086b366004613572565b6120df565b34801561087c57600080fd5b50610704612132565b60006001600160e01b03198216637965db0b60e01b14806108aa57506108aa82612153565b90505b919050565b6060816001600160401b038111156108da57634e487b7160e01b600052604160045260246000fd5b604051908082528060200260200182016040528015610903578160200160208202803683370190505b50905060005b828110156109825761094084848381811061093457634e487b7160e01b600052603260045260246000fd5b90506020020135611e37565b82828151811061096057634e487b7160e01b600052603260045260246000fd5b911515602092830291909101909101528061097a816143dd565b915050610909565b5092915050565b60006109a260008051602061445a8339815191526109a9565b5460ff1690505b90565b600054610100900460ff16806109c5575060005460ff16155b6109ea5760405162461bcd60e51b81526004016109e19061412c565b60405180910390fd5b600054610100900460ff16158015610a15576000805460ff1961ff0019909116610100171660011790555b60c980546001600160a01b038089166001600160a01b03199283161790925560ca805488841690831617905560cb805487841690831617905560cc805492861692909116919091179055610a6761216c565b610a6f612238565b610a78826122be565b610a8061233c565b610a886123d8565b604080516101a081018252600661016082018181526563727970746f60d01b610180840152825282518084018452908152651dd85b1b195d60d21b6020828101919091528083019190915282518084018452600481526331b7b4b760e11b81830152828401528251808401845260018152600f60fb1b818301526060830152825180840184526003808252621b999d60ea1b82840152608084019190915283518085018552600a815269313637b1b5b1b430b4b760b11b8184015260a0840152835180850185526007808252663134ba31b7b4b760c91b8285015260c0850191909152845180860186528281526207070760eb1b8185015260e0850152845180860186528281526264616f60e81b8185015261010085015284518086018652918252621e9a5b60ea1b8284015261012084019190915283518085019094528352663837b63cb3b7b760c91b9083015261014081019190915260005b600b811015610c2b57610c198282600b8110610c0f57634e487b7160e01b600052603260045260246000fd5b6020020151612451565b80610c23816143dd565b915050610be3565b50508015610c3f576000805461ff00191690555b505050505050565b60009081526097602052604090206001015490565b8282828080601f016020809104026020016040519081016040528093929190818152602001838380828437600092018290525085815260cd6020526040812080549194509250610cac91506143a2565b905011610ccb5760405162461bcd60e51b81526004016109e19061428b565b6000610cd682612575565b9050600a81600001511115610d2757610cfa610cf5826000600a61259a565b6125cd565b60008051602061447a8339815191521415610d275760405162461bcd60e51b81526004016109e19061417a565b610d2f611505565b15610d4c5760405162461bcd60e51b81526004016109e19061422a565b610c3f610d576125d9565b87610d6288886125e8565b612614565b610d726107416125d9565b610d8e5760405162461bcd60e51b81526004016109e1906141c0565b8686868080601f016020809104026020016040519081016040528093929190818152602001838380828437600092018290525085815260cd6020526040812080549194509250610dde91506143a2565b905011610dfd5760405162461bcd60e51b81526004016109e19061428b565b6000610e0882612575565b9050600a81600001511115610e5457610e27610cf5826000600a61259a565b60008051602061447a8339815191521415610e545760405162461bcd60e51b81526004016109e19061417a565b610e5c611505565b15610e795760405162461bcd60e51b81526004016109e19061422a565b610ece8b8b8b8b8080601f016020809104026020016040519081016040528093929190818152602001838380828437600092018290525060408051602081019091529081528e93508d92508c91508b9061271b565b5050505050505050505050565b610ee36125d9565b6001600160a01b0316610ef4611993565b6001600160a01b031614610f1a5760405162461bcd60e51b81526004016109e1906141f5565b610f22612896565b565b610f2d82610c47565b610f3e81610f396125d9565b612923565b610f488383612987565b505050565b610f556125d9565b6001600160a01b0316610f66611993565b6001600160a01b031614610f8c5760405162461bcd60e51b81526004016109e1906141f5565b610f9581612a0e565b50565b610fa06125d9565b6001600160a01b0316816001600160a01b031614610fd05760405162461bcd60e51b81526004016109e1906142cd565b610fda8282612a26565b5050565b610fe96107416125d9565b6110055760405162461bcd60e51b81526004016109e1906141c0565b8686868080601f016020809104026020016040519081016040528093929190818152602001838380828437600092018290525085815260cd602052604081208054919450925061105591506143a2565b9050116110745760405162461bcd60e51b81526004016109e19061428b565b600061107f82612575565b9050600a816000015111156110cb5761109e610cf5826000600a61259a565b60008051602061447a83398151915214156110cb5760405162461bcd60e51b81526004016109e19061417a565b6110d3611505565b156110f05760405162461bcd60e51b81526004016109e19061422a565b610ece8b8b8b8b8080601f0160208091040260200160405190810160405280939291908181526020018383808284376000920191909152508d92508c91508b90508a612aab565b60c9546001600160a01b031681565b61114e6125d9565b6001600160a01b031661115f611993565b6001600160a01b0316146111855760405162461bcd60e51b81526004016109e1906141f5565b610f22612c30565b6111986107416125d9565b6111b45760405162461bcd60e51b81526004016109e1906141c0565b610f9581612ca5565b6111c86107416125d9565b6111e45760405162461bcd60e51b81526004016109e1906141c0565b8282828080601f016020809104026020016040519081016040528093929190818152602001838380828437600092018290525085815260cd602052604081208054919450925061123491506143a2565b9050116112535760405162461bcd60e51b81526004016109e19061428b565b600061125e82612575565b9050600a816000015111156112aa5761127d610cf5826000600a61259a565b60008051602061447a83398151915214156112aa5760405162461bcd60e51b81526004016109e19061417a565b6112b2611505565b156112cf5760405162461bcd60e51b81526004016109e19061422a565b6112eb8787878760405180602001604052806000815250612d4f565b50505050505050565b6112fc6125d9565b6001600160a01b031661130d611993565b6001600160a01b0316146113335760405162461bcd60e51b81526004016109e1906141f5565b60cc80546001600160a01b0319166001600160a01b0392909216919091179055565b60006113807f893ef2ea16c023f61d4f55d3e6ee3fc3f2fbfd478461323dbc2fbf919047086e6109a9565b546001600160a01b038381169116149050919050565b6113a16107416125d9565b6113bd5760405162461bcd60e51b81526004016109e1906141c0565b8484848080601f016020809104026020016040519081016040528093929190818152602001838380828437600092018290525085815260cd602052604081208054919450925061140d91506143a2565b90501161142c5760405162461bcd60e51b81526004016109e19061428b565b600061143782612575565b9050600a8160000151111561148357611456610cf5826000600a61259a565b60008051602061447a83398151915214156114835760405162461bcd60e51b81526004016109e19061417a565b61148b611505565b156114a85760405162461bcd60e51b81526004016109e19061422a565b6114eb8989898989898080601f016020809104026020016040519081016040528093929190818152602001838380828437600092019190915250612d4f92505050565b505050505050505050565b60cc546001600160a01b031681565b60006109a260008051602061443a8339815191526109a9565b6115266125d9565b6001600160a01b0316611537611993565b6001600160a01b03161461155d5760405162461bcd60e51b81526004016109e1906141f5565b60005b8151811015610fda5761159982828151811061158c57634e487b7160e01b600052603260045260246000fd5b6020026020010151612a0e565b806115a3816143dd565b915050611560565b6115b66107416125d9565b6115d25760405162461bcd60e51b81526004016109e1906141c0565b6001600160a01b0381166115f85760405162461bcd60e51b81526004016109e190614090565b61160181612ecf565b611609611b56565b6040516001600160a01b038216903480156108fc02916000818181858888f19350505050158015610fda573d6000803e3d6000fd5b6116496107416125d9565b6116655760405162461bcd60e51b81526004016109e1906141c0565b8888888080601f016020809104026020016040519081016040528093929190818152602001838380828437600092018290525085815260cd60205260408120805491945092506116b591506143a2565b9050116116d45760405162461bcd60e51b81526004016109e19061428b565b60006116df82612575565b9050600a8160000151111561172b576116fe610cf5826000600a61259a565b60008051602061447a833981519152141561172b5760405162461bcd60e51b81526004016109e19061417a565b611733611505565b156117505760405162461bcd60e51b81526004016109e19061422a565b6117da8d8d8d8d8080601f016020809104026020016040519081016040528093929190818152602001838380828437600081840152601f19601f820116905080830192505050505050508c8c8c8c8c8c8080601f01602080910402602001604051908101604052809392919081815260200183838082843760009201919091525061271b92505050565b50505050505050505050505050565b6117f16125d9565b6001600160a01b0316611802611993565b6001600160a01b0316146118285760405162461bcd60e51b81526004016109e1906141f5565b6033546040516000916001600160a01b0316907f8be0079c531659141344cd1fd0a4f28419497f9722a3daafe3b4186f6b6457e0908390a3603380546001600160a01b0319169055565b61187a6125d9565b6001600160a01b031661188b611993565b6001600160a01b0316146118b15760405162461bcd60e51b81526004016109e1906141f5565b60005b8151811015610fda576118ed8282815181106118e057634e487b7160e01b600052603260045260246000fd5b6020026020010151612ecf565b806118f7816143dd565b9150506118b4565b61190a6107416125d9565b6119265760405162461bcd60e51b81526004016109e1906141c0565b6001600160a01b0381166116015760405162461bcd60e51b81526004016109e190614090565b6119546125d9565b6001600160a01b0316611965611993565b6001600160a01b03161461198b5760405162461bcd60e51b81526004016109e1906141f5565b610f22612ee7565b6033546001600160a01b031690565b8282828080601f016020809104026020016040519081016040528093929190818152602001838380828437600092018290525085815260cd60205260408120805491945092506119f291506143a2565b905011611a115760405162461bcd60e51b81526004016109e19061428b565b6000611a1c82612575565b9050600a81600001511115611a6857611a3b610cf5826000600a61259a565b60008051602061447a8339815191521415611a685760405162461bcd60e51b81526004016109e19061417a565b611a70611505565b15611a8d5760405162461bcd60e51b81526004016109e19061422a565b6112eb8787610d6288886125e8565b611aa46125d9565b6001600160a01b0316611ab5611993565b6001600160a01b031614611adb5760405162461bcd60e51b81526004016109e1906141f5565b610f22612f5d565b60009182526097602090815260408084206001600160a01b0393909316845291905290205460ff1690565b611b166125d9565b6001600160a01b0316611b27611993565b6001600160a01b031614611b4d5760405162461bcd60e51b81526004016109e1906141f5565b610f9581612ecf565b610f2260008051602061449a8339815191526104456125d9565b611b786125d9565b6001600160a01b0316611b89611993565b6001600160a01b031614611baf5760405162461bcd60e51b81526004016109e1906141f5565b60c954604051632678375f60e21b81526001600160a01b03909116906399e0dd7c90611be19085908590600401613f8d565b600060405180830381600087803b158015611bfb57600080fd5b505af1158015611c0f573d6000803e3d6000fd5b505060cb546001600160a01b0316159150610fda90505760cb54604051632678375f60e21b81526001600160a01b03909116906399e0dd7c90611c589085908590600401613f8d565b600060405180830381600087803b158015611c7257600080fd5b505af1158015610c3f573d6000803e3d6000fd5b600081565b604051806040016040528060148152602001732aa7299d1026b4b73a34b7339026b0b730b3b2b960611b81525081565b60cb546001600160a01b031681565b60006108aa60008051602061449a83398151915283611ae3565b611cef6107416125d9565b611d0b5760405162461bcd60e51b81526004016109e1906141c0565b8282828080601f016020809104026020016040519081016040528093929190818152602001838380828437600092018290525085815260cd6020526040812080549194509250611d5b91506143a2565b905011611d7a5760405162461bcd60e51b81526004016109e19061428b565b6000611d8582612575565b9050600a81600001511115611dd157611da4610cf5826000600a61259a565b60008051602061447a8339815191521415611dd15760405162461bcd60e51b81526004016109e19061417a565b611dd9611505565b15611df65760405162461bcd60e51b81526004016109e19061422a565b6112eb878787878080601f01602080910402602001604051908101604052809392919081815260200183838082843760009201919091525061261492505050565b6000611e41610989565b1580156108aa5750604051611e9b90611e80907f1ec047073e2c8b15660901dbfdb6e3ff6365bd699dd9f95dcc6eab5448bebd69908590602001613b55565b604051602081830303815290604052805190602001206109a9565b5460ff1692915050565b611ead6125d9565b6001600160a01b0316611ebe611993565b6001600160a01b031614611ee45760405162461bcd60e51b81526004016109e1906141f5565b610f9581612fd2565b611ef56125d9565b6001600160a01b0316611f06611993565b6001600160a01b031614611f2c5760405162461bcd60e51b81526004016109e1906141f5565b610fda82828080601f01602080910402602001604051908101604052809392919081815260200183838082843760009201919091525061245192505050565b60ca546001600160a01b031681565b8686868080601f016020809104026020016040519081016040528093929190818152602001838380828437600092018290525085815260cd6020526040812080549194509250611fca91506143a2565b905011611fe95760405162461bcd60e51b81526004016109e19061428b565b6000611ff482612575565b9050600a8160000151111561204057612013610cf5826000600a61259a565b60008051602061447a83398151915214156120405760405162461bcd60e51b81526004016109e19061417a565b612048611505565b156120655760405162461bcd60e51b81526004016109e19061422a565b610ece8b8b6120748c8c6125e8565b8a8a8a8a612aab565b60008051602061449a83398151915281565b61209882610c47565b6120a481610f396125d9565b610f488383612a26565b6120b96107416125d9565b6120d55760405162461bcd60e51b81526004016109e1906141c0565b610fda828261301d565b6120e76125d9565b6001600160a01b03166120f8611993565b6001600160a01b03161461211e5760405162461bcd60e51b81526004016109e1906141f5565b61212781613069565b610f9560008261312a565b604051806040016040528060058152602001640302e332e360dc1b81525081565b6001600160e01b031981166301ffc9a760e01b14919050565b600054610100900460ff1680612185575060005460ff16155b6121a15760405162461bcd60e51b81526004016109e19061412c565b600054610100900460ff161580156121cc576000805460ff1961ff0019909116610100171660011790555b60006121d66125d9565b603380546001600160a01b0319166001600160a01b038316908117909155604051919250906000907f8be0079c531659141344cd1fd0a4f28419497f9722a3daafe3b4186f6b6457e0908290a3508015610f95576000805461ff001916905550565b600054610100900460ff1680612251575060005460ff16155b61226d5760405162461bcd60e51b81526004016109e19061412c565b600054610100900460ff16158015612298576000805460ff1961ff0019909116610100171660011790555b6122aa60006122a56125d9565b61312a565b8015610f95576000805461ff001916905550565b600054610100900460ff16806122d7575060005460ff16155b6122f35760405162461bcd60e51b81526004016109e19061412c565b600054610100900460ff1615801561231e576000805460ff1961ff0019909116610100171660011790555b61232782612fd2565b8015610fda576000805461ff00191690555050565b600054610100900460ff1680612355575060005460ff16155b6123715760405162461bcd60e51b81526004016109e19061412c565b600054610100900460ff1615801561239c576000805460ff1961ff0019909116610100171660011790555b60006123b560008051602061445a8339815191526109a9565b805460ff19169115159190911790558015610f95576000805461ff001916905550565b600054610100900460ff16806123f1575060005460ff16155b61240d5760405162461bcd60e51b81526004016109e19061412c565b600054610100900460ff16158015612438576000805460ff1961ff0019909116610100171660011790555b60006123b560008051602061443a8339815191526109a9565b600061245e600083613134565b600081815260cd60209081526040909120845192935061248292909185019061342d565b50807f4fce6f6e172b04eaa80325d8e3b0180a34945000f3e214605039e8420fdf8980836040516124b39190613fa9565b60405180910390a260c954604051634f558e7960e01b81526001600160a01b0390911690634f558e79906124eb908490600401613f84565b60206040518083038186803b15801561250357600080fd5b505afa158015612517573d6000803e3d6000fd5b505050506040513d601f19601f8201168201806040525081019061253b91906138fa565b610fda5760c9546040516334ff261960e21b81526001600160a01b039091169063d3fc986490611c589061dead9085908790600401613db6565b61257d6134b1565b506040805180820190915281518152602082810190820152919050565b6125a26134b1565b60405180604001604052808381526020018486602001516125c39190614328565b9052949350505050565b80516020909101512090565b60006125e36131b0565b905090565b606082826040516020016125fd929190613c3e565b604051602081830303815290604052905092915050565b60006126208383613134565b905061262b816131de565b61263483613210565b156126a75760ca5460cc5460405163c36c212560e01b81526001600160a01b039283169263c36c21259261267092899288921690600401613d39565b600060405180830381600087803b15801561268a57600080fd5b505af115801561269e573d6000803e3d6000fd5b50505050612715565b60c9546001600160a01b031663d3fc986485836126c4878761324e565b6040518463ffffffff1660e01b81526004016126e293929190613db6565b600060405180830381600087803b1580156126fc57600080fd5b505af1158015612710573d6000803e3d6000fd5b505050505b50505050565b60006127278888613134565b9050612732816131de565b61273b88613210565b156128235760ca5460cc54604051630f95e75b60e31b81526001600160a01b0392831692637caf3ad892612779928e928d9216908890600401613d6e565b600060405180830381600087803b15801561279357600080fd5b505af11580156127a7573d6000803e3d6000fd5b50508615915061281e90505760cc54604051633a0deb9d60e21b81526001600160a01b039091169063e837ae74906127eb9089908990899089908890600401613f3f565b600060405180830381600087803b15801561280557600080fd5b505af1158015612819573d6000803e3d6000fd5b505050505b6114eb565b60c9546001600160a01b031663efda4d3e8a836128408c8c61324e565b8a8a8a8a8a6040518963ffffffff1660e01b8152600401612868989796959493929190613e43565b600060405180830381600087803b15801561288257600080fd5b505af11580156117da573d6000803e3d6000fd5b61289e610989565b156128bb5760405162461bcd60e51b81526004016109e190613fbc565b60016128d460008051602061445a8339815191526109a9565b805460ff19169115159190911790557f079c4efaefd9fc7ddb28144b9b0140c03f42922d28d0e226369d60709215816661290c6125d9565b6040516129199190613cdb565b60405180910390a1565b61292d8282611ae3565b610fda57612945816001600160a01b03166014613271565b612950836020613271565b604051602001612961929190613c66565b60408051601f198184030181529082905262461bcd60e51b82526109e191600401613fa9565b6129918282611ae3565b610fda5760008281526097602090815260408083206001600160a01b03851684529091529020805460ff191660011790556129ca6125d9565b6001600160a01b0316816001600160a01b0316837f2f8788117e7eff1d82e926ec794901d17c78024a50270940304540a733656f0d60405160405180910390a45050565b610f9560008051602061449a8339815191528261208f565b612a308282611ae3565b15610fda5760008281526097602090815260408083206001600160a01b03851684529091529020805460ff19169055612a676125d9565b6001600160a01b0316816001600160a01b0316837ff6391f5c32d9c69d2a47ea670b442974b53935d1edc7fd64eb21e047a839171b60405160405180910390a45050565b6000612ab78787613134565b9050612ac2816131de565b612acb87613210565b15612bb15760ca5460cc5460405163c36c212560e01b81526001600160a01b039283169263c36c212592612b07928d928c921690600401613d39565b600060405180830381600087803b158015612b2157600080fd5b505af1158015612b35573d6000803e3d6000fd5b505085159150612bac90505760cc54604051633a0deb9d60e21b81526001600160a01b039091169063e837ae7490612b799088908890889088908890600401613f3f565b600060405180830381600087803b158015612b9357600080fd5b505af1158015612ba7573d6000803e3d6000fd5b505050505b612710565b60c9546001600160a01b031663b0f591778983612bce8b8b61324e565b898989896040518863ffffffff1660e01b8152600401612bf49796959493929190613de6565b600060405180830381600087803b158015612c0e57600080fd5b505af1158015612c22573d6000803e3d6000fd5b505050505050505050505050565b612c38611505565b612c545760405162461bcd60e51b81526004016109e1906140c7565b6000612c6d60008051602061443a8339815191526109a9565b805460ff19169115159190911790557f5db9ee0a495bf2e6ff9c91a7834c1ba4fdd244a5e8aa4e537bd38aeae4b073aa61290c6125d9565b612cad610989565b15612cca5760405162461bcd60e51b81526004016109e190613fbc565b6001612d057f1ec047073e2c8b15660901dbfdb6e3ff6365bd699dd9f95dcc6eab5448bebd6960001b83604051602001611e80929190613b55565b805460ff19169115159190911790556040517f2ce5d9351b1d590d5a066db0d2dc7602d55f092506a83a7ee8c4d78ee357d75a90612d44908390613f84565b60405180910390a150565b6000612d918585858080601f01602080910402602001604051908101604052809392919081815260200183838082843760009201919091525061313492505050565b9050612d9c816131de565b612da585613210565b15612e1d5760ca5460cc54604051630f95e75b60e31b81526001600160a01b0392831692637caf3ad892612de6928b928a928a929116908990600401613cef565b600060405180830381600087803b158015612e0057600080fd5b505af1158015612e14573d6000803e3d6000fd5b50505050610c3f565b60c954604080516020601f87018190048102820181019092528581526001600160a01b039092169163b55bc6179189918591612e75918b918b908b908190840183828082843760009201919091525061324e92505050565b866040518563ffffffff1660e01b8152600401612e959493929190613eb5565b600060405180830381600087803b158015612eaf57600080fd5b505af1158015612ec3573d6000803e3d6000fd5b50505050505050505050565b610f9560008051602061449a8339815191528261312a565b612eef611505565b15612f0c5760405162461bcd60e51b81526004016109e19061422a565b6001612f2560008051602061443a8339815191526109a9565b805460ff19169115159190911790557f62e78cea01bee320cd4e420270b5ea74000d11b0c9f74754ebdbfc544b05a25861290c6125d9565b612f65610989565b612f815760405162461bcd60e51b81526004016109e19061401e565b6000612f9a60008051602061445a8339815191526109a9565b805460ff19169115159190911790557f316c4cec74b9568f102eda30781a2fe8cd5172329bf1401e804cb8c5131715c461290c6125d9565b80612ffc7f893ef2ea16c023f61d4f55d3e6ee3fc3f2fbfd478461323dbc2fbf919047086e6109a9565b80546001600160a01b0319166001600160a01b039290921691909117905550565b60005b81811015610f485761305783838381811061304b57634e487b7160e01b600052603260045260246000fd5b90506020020135612ca5565b80613061816143dd565b915050613020565b6130716125d9565b6001600160a01b0316613082611993565b6001600160a01b0316146130a85760405162461bcd60e51b81526004016109e1906141f5565b6001600160a01b0381166130ce5760405162461bcd60e51b81526004016109e19061404a565b6033546040516001600160a01b038084169216907f8be0079c531659141344cd1fd0a4f28419497f9722a3daafe3b4186f6b6457e090600090a3603380546001600160a01b0319166001600160a01b0392909216919091179055565b610fda8282612987565b60008151600014156131585760405162461bcd60e51b81526004016109e190614254565b828260405160200161316a9190613b63565b60405160208183030381529060405280519060200120604051602001613191929190613b55565b60408051601f1981840301815291905280516020909101209392505050565b60006131bb33611355565b156131cf575060331936013560601c6109a9565b6131d7613429565b90506109a9565b6131e6610989565b610f95576131f381611e37565b156111b45760405162461bcd60e51b81526004016109e1906140f5565b60ca546000906001600160a01b0316158015906108aa5750507f0f4a10a4f46c288cea365fcf45cccf0e9d901b945b9829ccdb54c10dc3cb7a6f1490565b600082815260cd602090815260409182902091516060926125fd92859201613b7f565b60606000613280836002614340565b61328b906002614328565b6001600160401b038111156132b057634e487b7160e01b600052604160045260246000fd5b6040519080825280601f01601f1916602001820160405280156132da576020820181803683370190505b509050600360fc1b8160008151811061330357634e487b7160e01b600052603260045260246000fd5b60200101906001600160f81b031916908160001a905350600f60fb1b8160018151811061334057634e487b7160e01b600052603260045260246000fd5b60200101906001600160f81b031916908160001a9053506000613364846002614340565b61336f906001614328565b90505b6001811115613403576f181899199a1a9b1b9c1cb0b131b232b360811b85600f16601081106133b157634e487b7160e01b600052603260045260246000fd5b1a60f81b8282815181106133d557634e487b7160e01b600052603260045260246000fd5b60200101906001600160f81b031916908160001a90535060049490941c936133fc8161438b565b9050613372565b5083156134225760405162461bcd60e51b81526004016109e190613fe9565b9392505050565b3390565b828054613439906143a2565b90600052602060002090601f01602090048101928261345b57600085556134a1565b82601f1061347457805160ff19168380011785556134a1565b828001600101855582156134a1579182015b828111156134a1578251825591602001919060010190613486565b506134ad9291506134cb565b5090565b604051806040016040528060008152602001600081525090565b5b808211156134ad57600081556001016134cc565b80356108ad81614424565b60008083601f8401126134fc578182fd5b5081356001600160401b03811115613512578182fd5b602083019150836020808302850101111561352c57600080fd5b9250929050565b60008083601f840112613544578182fd5b5081356001600160401b0381111561355a578182fd5b60208301915083602082850101111561352c57600080fd5b600060208284031215613583578081fd5b813561342281614424565b600080600080606085870312156135a3578283fd5b84356135ae81614424565b93506020850135925060408501356001600160401b038111156135cf578283fd5b6135db87828801613533565b95989497509550505050565b60008060008060008060008060a0898b031215613602578384fd5b883561360d81614424565b97506020890135965060408901356001600160401b038082111561362f578586fd5b61363b8c838d01613533565b909850965060608b0135915080821115613653578586fd5b61365f8c838d016134eb565b909650945060808b0135915080821115613677578384fd5b506136848b828c016134eb565b999c989b5096995094979396929594505050565b60008060008060008060008060008060c08b8d0312156136b6578182fd5b6136bf8b6134e0565b995060208b0135985060408b01356001600160401b03808211156136e1578384fd5b6136ed8e838f01613533565b909a50985060608d0135915080821115613705578384fd5b6137118e838f016134eb565b909850965060808d0135915080821115613729578384fd5b6137358e838f016134eb565b909650945060a08d013591508082111561374d578384fd5b5061375a8d828e01613533565b915080935050809150509295989b9194979a5092959850565b6000806000806000806080878903121561378b578182fd5b863561379681614424565b95506020870135945060408701356001600160401b03808211156137b8578384fd5b6137c48a838b01613533565b909650945060608901359150808211156137dc578384fd5b506137e989828a01613533565b979a9699509497509295939492505050565b6000602080838503121561380d578182fd5b82356001600160401b0380821115613823578384fd5b818501915085601f830112613836578384fd5b8135818111156138485761384861440e565b838102604051858282010181811085821117156138675761386761440e565b604052828152858101935084860182860187018a1015613885578788fd5b8795505b838610156138ae5761389a816134e0565b855260019590950194938601938601613889565b5098975050505050505050565b600080602083850312156138cd578182fd5b82356001600160401b038111156138e2578283fd5b6138ee858286016134eb565b90969095509350505050565b60006020828403121561390b578081fd5b81518015158114613422578182fd5b60006020828403121561392b578081fd5b5035919050565b60008060408385031215613944578182fd5b82359150602083013561395681614424565b809150509250929050565b600060208284031215613972578081fd5b81356001600160e01b031981168114613422578182fd5b600080600080600060a086880312156139a0578283fd5b85356139ab81614424565b945060208601356139bb81614424565b935060408601356139cb81614424565b925060608601356139db81614424565b915060808601356139eb81614424565b809150509295509295909350565b60008060208385031215613a0b578182fd5b82356001600160401b03811115613a20578283fd5b6138ee85828601613533565b600080600060408486031215613a40578081fd5b8335925060208401356001600160401b03811115613a5c578182fd5b613a6886828701613533565b9497909650939450505050565b818352602080840193600091908185020181018584845b87811015613af25782840389528135601e19883603018112613aac578687fd5b870180356001600160401b03811115613ac3578788fd5b803603891315613ad1578788fd5b613ade8682898501613b2b565b9a87019a9550505090840190600101613a8c565b5091979650505050505050565b60008151808452613b1781602086016020860161435f565b601f01601f19169290920160200192915050565b60008284528282602086013780602084860101526020601f19601f85011685010190509392505050565b918252602082015260400190565b60008251613b7581846020870161435f565b9190910192915050565b600083516020613b92828583890161435f565b601760f91b918401918252845460019084906002810481841680613bb757607f821691505b858210811415613bd557634e487b7160e01b88526022600452602488fd5b808015613be95760018114613bfe57613c2e565b60ff1984168887015282880186019450613c2e565b613c078b61431c565b895b84811015613c245781548a8201890152908701908801613c09565b5050858389010194505b50929a9950505050505050505050565b60006b756e732d646576746573742d60a01b82528284600c8401379101600c01908152919050565b60007f416363657373436f6e74726f6c3a206163636f756e742000000000000000000082528351613c9e81601785016020880161435f565b7001034b99036b4b9b9b4b733903937b6329607d1b6017918401918201528351613ccf81602884016020880161435f565b01602801949350505050565b6001600160a01b0391909116815260200190565b600060018060a01b03808816835260806020840152613d12608084018789613b2b565b81861660408501528381036060850152613d2c8186613aff565b9998505050505050505050565b600060018060a01b03808616835260606020840152613d5b6060840186613aff565b9150808416604084015250949350505050565b600060018060a01b03808716835260806020840152613d906080840187613aff565b81861660408501528381036060850152613daa8186613aff565b98975050505050505050565b600060018060a01b038516825283602083015260606040830152613ddd6060830184613aff565b95945050505050565b600060018060a01b038916825287602083015260a06040830152613e0d60a0830188613aff565b8281036060840152613e20818789613a75565b90508281036080840152613e35818587613a75565b9a9950505050505050505050565b600060018060a01b038a16825288602083015260c06040830152613e6a60c0830189613aff565b8281036060840152613e7d81888a613a75565b90508281036080840152613e92818688613a75565b905082810360a0840152613ea68185613aff565b9b9a5050505050505050505050565b600060018060a01b038616825284602083015260806040830152613edc6080830185613aff565b8281036060840152613eee8185613aff565b979650505050505050565b6020808252825182820181905260009190848201906040850190845b81811015613f33578351151583529284019291840191600101613f15565b50909695505050505050565b600060608252613f53606083018789613a75565b8281036020840152613f66818688613a75565b9150508260408301529695505050505050565b901515815260200190565b90815260200190565b600060208252613fa1602083018486613b2b565b949350505050565b6000602082526134226020830184613aff565b602080825260139082015272109b1bd8dadb1a5cdd0e88111254d050931151606a1b604082015260600190565b6020808252818101527f537472696e67733a20686578206c656e67746820696e73756666696369656e74604082015260600190565b602080825260129082015271109b1bd8dadb1a5cdd0e881153905093115160721b604082015260600190565b60208082526026908201527f4f776e61626c653a206e6577206f776e657220697320746865207a65726f206160408201526564647265737360d01b606082015260800190565b6020808252601d908201527f4d696e746572526f6c653a2052454345495645525f49535f454d505459000000604082015260600190565b60208082526014908201527314185d5cd8589b194e881393d517d4105554d15160621b604082015260600190565b6020808252601d908201527f4d696e74696e674d616e616765723a20544f4b454e5f424c4f434b4544000000604082015260600190565b6020808252602e908201527f496e697469616c697a61626c653a20636f6e747261637420697320616c72656160408201526d191e481a5b9a5d1a585b1a5e995960921b606082015260800190565b60208082526026908201527f4d696e74696e674d616e616765723a20544f4b454e5f4c4142454c5f50524f4860408201526512509255115160d21b606082015260800190565b6020808252818101527f4d696e746572526f6c653a2043414c4c45525f49535f4e4f545f4d494e544552604082015260600190565b6020808252818101527f4f776e61626c653a2063616c6c6572206973206e6f7420746865206f776e6572604082015260600190565b60208082526010908201526f14185d5cd8589b194e8814105554d15160821b604082015260600190565b6020808252601b908201527f4d696e74696e674d616e616765723a204c4142454c5f454d5054590000000000604082015260600190565b60208082526022908201527f4d696e74696e674d616e616765723a20544c445f4e4f545f5245474953544552604082015261115160f21b606082015260800190565b6020808252602f908201527f416363657373436f6e74726f6c3a2063616e206f6e6c792072656e6f756e636560408201526e103937b632b9903337b91039b2b63360891b606082015260800190565b60009081526020902090565b6000821982111561433b5761433b6143f8565b500190565b600081600019048311821515161561435a5761435a6143f8565b500290565b60005b8381101561437a578181015183820152602001614362565b838111156127155750506000910152565b60008161439a5761439a6143f8565b506000190190565b6002810460018216806143b657607f821691505b602082108114156143d757634e487b7160e01b600052602260045260246000fd5b50919050565b60006000198214156143f1576143f16143f8565b5060010190565b634e487b7160e01b600052601160045260246000fd5b634e487b7160e01b600052604160045260246000fd5b6001600160a01b0381168114610f9557600080fdfe5496787fc1ebdfeba375028c1865f13fbb1d63c0caa356ccc1b29a80f3ebd622a85b8425a460dd344a297bd4a82e287385f0fc558cb3e78867b0489f43df2470b551e0305c8163b812374b8e78b577c77f226f6f10c5ad03e52699578fbc34b89f2df0fed2c77648de5860a4cc508cd0818c85b8b8a1ab4ceeef8d981c8956a6a164736f6c6343000800000a",
  "linkReferences": {},
  "deployedLinkReferences": {}
}