{
  "_format": "hh-sol-artifact-1",
  "contractName": "MintingManager",
  "sourceName": "contracts/MintingManager.sol",
  "abi": [
    {
      "anonymous": false,
      "inputs": [
        {
          "indexed": false,
          "internalType": "address",
          "name": "previousAdmin",
          "type": "address"
        },
        {
          "indexed": false,
          "internalType": "address",
          "name": "newAdmin",
          "type": "address"
        }
      ],
      "name": "AdminChanged",
      "type": "event"
    },
    {
      "anonymous": false,
      "inputs": [
        {
          "indexed": false,
          "internalType": "uint256",
          "name": "tokenId",
          "type": "uint256"
        }
      ],
      "name": "Blocked",
      "type": "event"
    },
    {
      "anonymous": false,
      "inputs": [
        {
          "indexed": false,
          "internalType": "address",
          "name": "account",
          "type": "address"
        }
      ],
      "name": "BlocklistDisabled",
      "type": "event"
    },
    {
      "anonymous": false,
      "inputs": [
        {
          "indexed": false,
          "internalType": "address",
          "name": "account",
          "type": "address"
        }
      ],
      "name": "BlocklistEnabled",
      "type": "event"
    },
    {
      "anonymous": false,
      "inputs": [
        {
          "indexed": false,
          "internalType": "uint8",
          "name": "version",
          "type": "uint8"
        }
      ],
      "name": "Initialized",
      "type": "event"
    },
    {
      "anonymous": false,
      "inputs": [
        {
          "indexed": true,
          "internalType": "uint256",
          "name": "tokenId",
          "type": "uint256"
        },
        {
          "indexed": false,
          "internalType": "string",
          "name": "tld",
          "type": "string"
        }
      ],
      "name": "NewTld",
      "type": "event"
    },
    {
      "anonymous": false,
      "inputs": [
        {
          "indexed": true,
          "internalType": "address",
          "name": "previousOwner",
          "type": "address"
        },
        {
          "indexed": true,
          "internalType": "address",
          "name": "newOwner",
          "type": "address"
        }
      ],
      "name": "OwnershipTransferred",
      "type": "event"
    },
    {
      "anonymous": false,
      "inputs": [
        {
          "indexed": false,
          "internalType": "address",
          "name": "account",
          "type": "address"
        }
      ],
      "name": "Paused",
      "type": "event"
    },
    {
      "anonymous": false,
      "inputs": [
        {
          "indexed": true,
          "internalType": "uint256",
          "name": "tokenId",
          "type": "uint256"
        }
      ],
      "name": "RemoveTld",
      "type": "event"
    },
    {
      "anonymous": false,
      "inputs": [
        {
          "indexed": true,
          "internalType": "bytes32",
          "name": "role",
          "type": "bytes32"
        },
        {
          "indexed": true,
          "internalType": "bytes32",
          "name": "previousAdminRole",
          "type": "bytes32"
        },
        {
          "indexed": true,
          "internalType": "bytes32",
          "name": "newAdminRole",
          "type": "bytes32"
        }
      ],
      "name": "RoleAdminChanged",
      "type": "event"
    },
    {
      "anonymous": false,
      "inputs": [
        {
          "indexed": true,
          "internalType": "bytes32",
          "name": "role",
          "type": "bytes32"
        },
        {
          "indexed": true,
          "internalType": "address",
          "name": "account",
          "type": "address"
        },
        {
          "indexed": true,
          "internalType": "address",
          "name": "sender",
          "type": "address"
        }
      ],
      "name": "RoleGranted",
      "type": "event"
    },
    {
      "anonymous": false,
      "inputs": [
        {
          "indexed": true,
          "internalType": "bytes32",
          "name": "role",
          "type": "bytes32"
        },
        {
          "indexed": true,
          "internalType": "address",
          "name": "account",
          "type": "address"
        },
        {
          "indexed": true,
          "internalType": "address",
          "name": "sender",
          "type": "address"
        }
      ],
      "name": "RoleRevoked",
      "type": "event"
    },
    {
      "anonymous": false,
      "inputs": [
        {
          "indexed": false,
          "internalType": "address",
          "name": "account",
          "type": "address"
        }
      ],
      "name": "Unpaused",
      "type": "event"
    },
    {
      "anonymous": false,
      "inputs": [
        {
          "indexed": true,
          "internalType": "address",
          "name": "implementation",
          "type": "address"
        }
      ],
      "name": "Upgraded",
      "type": "event"
    },
    {
      "inputs": [],
      "name": "DEFAULT_ADMIN_ROLE",
      "outputs": [
        {
          "internalType": "bytes32",
          "name": "",
          "type": "bytes32"
        }
      ],
      "stateMutability": "view",
      "type": "function"
    },
    {
      "inputs": [],
      "name": "MINTER_ROLE",
      "outputs": [
        {
          "internalType": "bytes32",
          "name": "",
          "type": "bytes32"
        }
      ],
      "stateMutability": "view",
      "type": "function"
    },
    {
      "inputs": [],
      "name": "NAME",
      "outputs": [
        {
          "internalType": "string",
          "name": "",
          "type": "string"
        }
      ],
      "stateMutability": "view",
      "type": "function"
    },
    {
      "inputs": [],
      "name": "VERSION",
      "outputs": [
        {
          "internalType": "string",
          "name": "",
          "type": "string"
        }
      ],
      "stateMutability": "view",
      "type": "function"
    },
    {
      "inputs": [
        {
          "internalType": "address",
          "name": "account",
          "type": "address"
        }
      ],
      "name": "addMinter",
      "outputs": [],
      "stateMutability": "nonpayable",
      "type": "function"
    },
    {
      "inputs": [
        {
          "internalType": "address[]",
          "name": "accounts",
          "type": "address[]"
        }
      ],
      "name": "addMinters",
      "outputs": [],
      "stateMutability": "nonpayable",
      "type": "function"
    },
    {
      "inputs": [
        {
          "internalType": "address[]",
          "name": "addrs",
          "type": "address[]"
        }
      ],
      "name": "addProxyReaders",
      "outputs": [],
      "stateMutability": "nonpayable",
      "type": "function"
    },
    {
      "inputs": [
        {
          "internalType": "string",
          "name": "tld",
          "type": "string"
        }
      ],
      "name": "addTld",
      "outputs": [],
      "stateMutability": "nonpayable",
      "type": "function"
    },
    {
      "inputs": [
        {
          "internalType": "uint256[]",
          "name": "tokenIds",
          "type": "uint256[]"
        }
      ],
      "name": "areBlocked",
      "outputs": [
        {
          "internalType": "bool[]",
          "name": "values",
          "type": "bool[]"
        }
      ],
      "stateMutability": "view",
      "type": "function"
    },
    {
      "inputs": [
        {
          "internalType": "uint256",
          "name": "tokenId",
          "type": "uint256"
        }
      ],
      "name": "blocklist",
      "outputs": [],
      "stateMutability": "nonpayable",
      "type": "function"
    },
    {
      "inputs": [
        {
          "internalType": "uint256[]",
          "name": "tokenIds",
          "type": "uint256[]"
        }
      ],
      "name": "blocklistAll",
      "outputs": [],
      "stateMutability": "nonpayable",
      "type": "function"
    },
    {
      "inputs": [
        {
          "internalType": "uint256[]",
          "name": "tokenIds",
          "type": "uint256[]"
        }
      ],
      "name": "burnTLDL1",
      "outputs": [],
      "stateMutability": "nonpayable",
      "type": "function"
    },
    {
      "inputs": [
        {
          "internalType": "uint256",
          "name": "tld",
          "type": "uint256"
        },
        {
          "internalType": "string",
          "name": "label",
          "type": "string"
        }
      ],
      "name": "claim",
      "outputs": [],
      "stateMutability": "nonpayable",
      "type": "function"
    },
    {
      "inputs": [
        {
          "internalType": "address",
          "name": "to",
          "type": "address"
        },
        {
          "internalType": "uint256",
          "name": "tld",
          "type": "uint256"
        },
        {
          "internalType": "string",
          "name": "label",
          "type": "string"
        }
      ],
      "name": "claimTo",
      "outputs": [],
      "stateMutability": "nonpayable",
      "type": "function"
    },
    {
      "inputs": [
        {
          "internalType": "address",
          "name": "to",
          "type": "address"
        },
        {
          "internalType": "uint256",
          "name": "tld",
          "type": "uint256"
        },
        {
          "internalType": "string",
          "name": "label",
          "type": "string"
        },
        {
          "internalType": "string[]",
          "name": "keys",
          "type": "string[]"
        },
        {
          "internalType": "string[]",
          "name": "values",
          "type": "string[]"
        }
      ],
      "name": "claimToWithRecords",
      "outputs": [],
      "stateMutability": "nonpayable",
      "type": "function"
    },
    {
      "inputs": [
        {
          "internalType": "address payable",
          "name": "receiver",
          "type": "address"
        }
      ],
      "name": "closeMinter",
      "outputs": [],
      "stateMutability": "payable",
      "type": "function"
    },
    {
      "inputs": [],
      "name": "cnsMintingController",
      "outputs": [
        {
          "internalType": "contract IMintingController",
          "name": "",
          "type": "address"
        }
      ],
      "stateMutability": "view",
      "type": "function"
    },
    {
      "inputs": [],
      "name": "cnsResolver",
      "outputs": [
        {
          "internalType": "contract IResolver",
          "name": "",
          "type": "address"
        }
      ],
      "stateMutability": "view",
      "type": "function"
    },
    {
      "inputs": [],
      "name": "cnsURIPrefixController",
      "outputs": [
        {
          "internalType": "contract IURIPrefixController",
          "name": "",
          "type": "address"
        }
      ],
      "stateMutability": "view",
      "type": "function"
    },
    {
      "inputs": [],
      "name": "disableBlocklist",
      "outputs": [],
      "stateMutability": "nonpayable",
      "type": "function"
    },
    {
      "inputs": [],
      "name": "enableBlocklist",
      "outputs": [],
      "stateMutability": "nonpayable",
      "type": "function"
    },
    {
      "inputs": [
        {
          "internalType": "bytes32",
          "name": "role",
          "type": "bytes32"
        }
      ],
      "name": "getRoleAdmin",
      "outputs": [
        {
          "internalType": "bytes32",
          "name": "",
          "type": "bytes32"
        }
      ],
      "stateMutability": "view",
      "type": "function"
    },
    {
      "inputs": [
        {
          "internalType": "bytes32",
          "name": "role",
          "type": "bytes32"
        },
        {
          "internalType": "address",
          "name": "account",
          "type": "address"
        }
      ],
      "name": "grantRole",
      "outputs": [],
      "stateMutability": "nonpayable",
      "type": "function"
    },
    {
      "inputs": [
        {
          "internalType": "bytes32",
          "name": "role",
          "type": "bytes32"
        },
        {
          "internalType": "address",
          "name": "account",
          "type": "address"
        }
      ],
      "name": "hasRole",
      "outputs": [
        {
          "internalType": "bool",
          "name": "",
          "type": "bool"
        }
      ],
      "stateMutability": "view",
      "type": "function"
    },
    {
      "inputs": [
        {
          "internalType": "contract IUNSRegistry",
          "name": "unsRegistry_",
          "type": "address"
        },
        {
          "internalType": "contract IMintingController",
          "name": "cnsMintingController_",
          "type": "address"
        },
        {
          "internalType": "contract IURIPrefixController",
          "name": "cnsURIPrefixController_",
          "type": "address"
        },
        {
          "internalType": "contract IResolver",
          "name": "cnsResolver_",
          "type": "address"
        },
        {
          "internalType": "address",
          "name": "forwarder",
          "type": "address"
        }
      ],
      "name": "initialize",
      "outputs": [],
      "stateMutability": "nonpayable",
      "type": "function"
    },
    {
      "inputs": [
        {
          "internalType": "uint256",
          "name": "tokenId",
          "type": "uint256"
        }
      ],
      "name": "isBlocked",
      "outputs": [
        {
          "internalType": "bool",
          "name": "",
          "type": "bool"
        }
      ],
      "stateMutability": "view",
      "type": "function"
    },
    {
      "inputs": [],
      "name": "isBlocklistDisabled",
      "outputs": [
        {
          "internalType": "bool",
          "name": "",
          "type": "bool"
        }
      ],
      "stateMutability": "view",
      "type": "function"
    },
    {
      "inputs": [
        {
          "internalType": "address",
          "name": "account",
          "type": "address"
        }
      ],
      "name": "isMinter",
      "outputs": [
        {
          "internalType": "bool",
          "name": "",
          "type": "bool"
        }
      ],
      "stateMutability": "view",
      "type": "function"
    },
    {
      "inputs": [
        {
          "internalType": "address",
          "name": "forwarder",
          "type": "address"
        }
      ],
      "name": "isTrustedForwarder",
      "outputs": [
        {
          "internalType": "bool",
          "name": "",
          "type": "bool"
        }
      ],
      "stateMutability": "view",
      "type": "function"
    },
    {
      "inputs": [
        {
          "internalType": "address",
          "name": "to",
          "type": "address"
        },
        {
          "internalType": "string[]",
          "name": "labels",
          "type": "string[]"
        },
        {
          "internalType": "string[]",
          "name": "keys",
          "type": "string[]"
        },
        {
          "internalType": "string[]",
          "name": "values",
          "type": "string[]"
        }
      ],
      "name": "issueWithRecords",
      "outputs": [],
      "stateMutability": "nonpayable",
      "type": "function"
    },
    {
      "inputs": [
        {
          "internalType": "address",
          "name": "to",
          "type": "address"
        },
        {
          "internalType": "uint256",
          "name": "tld",
          "type": "uint256"
        },
        {
          "internalType": "string",
          "name": "label",
          "type": "string"
        },
        {
          "internalType": "string[]",
          "name": "keys",
          "type": "string[]"
        },
        {
          "internalType": "string[]",
          "name": "values",
          "type": "string[]"
        }
      ],
      "name": "mintSLDWithRecords",
      "outputs": [],
      "stateMutability": "nonpayable",
      "type": "function"
    },
    {
      "inputs": [
        {
          "internalType": "uint256[]",
          "name": "tokenIds",
          "type": "uint256[]"
        }
      ],
      "name": "moveTLDOwnershipL2",
      "outputs": [],
      "stateMutability": "nonpayable",
      "type": "function"
    },
    {
      "inputs": [],
      "name": "owner",
      "outputs": [
        {
          "internalType": "address",
          "name": "",
          "type": "address"
        }
      ],
      "stateMutability": "view",
      "type": "function"
    },
    {
      "inputs": [],
      "name": "pause",
      "outputs": [],
      "stateMutability": "nonpayable",
      "type": "function"
    },
    {
      "inputs": [],
      "name": "paused",
      "outputs": [
        {
          "internalType": "bool",
          "name": "",
          "type": "bool"
        }
      ],
      "stateMutability": "view",
      "type": "function"
    },
    {
      "inputs": [
        {
          "internalType": "address",
          "name": "account",
          "type": "address"
        }
      ],
      "name": "removeMinter",
      "outputs": [],
      "stateMutability": "nonpayable",
      "type": "function"
    },
    {
      "inputs": [
        {
          "internalType": "address[]",
          "name": "accounts",
          "type": "address[]"
        }
      ],
      "name": "removeMinters",
      "outputs": [],
      "stateMutability": "nonpayable",
      "type": "function"
    },
    {
      "inputs": [
        {
          "internalType": "uint256",
          "name": "tld",
          "type": "uint256"
        }
      ],
      "name": "removeTld",
      "outputs": [],
      "stateMutability": "nonpayable",
      "type": "function"
    },
    {
      "inputs": [],
      "name": "renounceMinter",
      "outputs": [],
      "stateMutability": "nonpayable",
      "type": "function"
    },
    {
      "inputs": [],
      "name": "renounceOwnership",
      "outputs": [],
      "stateMutability": "nonpayable",
      "type": "function"
    },
    {
      "inputs": [
        {
          "internalType": "bytes32",
          "name": "role",
          "type": "bytes32"
        },
        {
          "internalType": "address",
          "name": "account",
          "type": "address"
        }
      ],
      "name": "renounceRole",
      "outputs": [],
      "stateMutability": "nonpayable",
      "type": "function"
    },
    {
      "inputs": [
        {
          "internalType": "bytes32",
          "name": "role",
          "type": "bytes32"
        },
        {
          "internalType": "address",
          "name": "account",
          "type": "address"
        }
      ],
      "name": "revokeRole",
      "outputs": [],
      "stateMutability": "nonpayable",
      "type": "function"
    },
    {
      "inputs": [
        {
          "internalType": "address payable",
          "name": "receiver",
          "type": "address"
        }
      ],
      "name": "rotateMinter",
      "outputs": [],
      "stateMutability": "payable",
      "type": "function"
    },
    {
      "inputs": [
        {
          "internalType": "address",
          "name": "forwarder",
          "type": "address"
        }
      ],
      "name": "setForwarder",
      "outputs": [],
      "stateMutability": "nonpayable",
      "type": "function"
    },
    {
      "inputs": [
        {
          "internalType": "address",
          "name": "resolver",
          "type": "address"
        }
      ],
      "name": "setResolver",
      "outputs": [],
      "stateMutability": "nonpayable",
      "type": "function"
    },
    {
      "inputs": [
        {
          "internalType": "string",
          "name": "prefix",
          "type": "string"
        }
      ],
      "name": "setTokenURIPrefix",
      "outputs": [],
      "stateMutability": "nonpayable",
      "type": "function"
    },
    {
      "inputs": [
        {
          "internalType": "bytes4",
          "name": "interfaceId",
          "type": "bytes4"
        }
      ],
      "name": "supportsInterface",
      "outputs": [
        {
          "internalType": "bool",
          "name": "",
          "type": "bool"
        }
      ],
      "stateMutability": "view",
      "type": "function"
    },
    {
      "inputs": [
        {
          "internalType": "address",
          "name": "newOwner",
          "type": "address"
        }
      ],
      "name": "transferOwnership",
      "outputs": [],
      "stateMutability": "nonpayable",
      "type": "function"
    },
    {
      "inputs": [],
      "name": "unpause",
      "outputs": [],
      "stateMutability": "nonpayable",
      "type": "function"
    },
    {
      "inputs": [],
      "name": "unsRegistry",
      "outputs": [
        {
          "internalType": "contract IUNSRegistry",
          "name": "",
          "type": "address"
        }
      ],
      "stateMutability": "view",
      "type": "function"
    },
    {
      "inputs": [
        {
          "internalType": "uint256[]",
          "name": "tokenIds",
          "type": "uint256[]"
        }
      ],
      "name": "upgradeAll",
      "outputs": [],
      "stateMutability": "nonpayable",
      "type": "function"
    }
  ],
  "bytecode": "0x608060405234801561001057600080fd5b50613db8806100206000396000f3fe6080604052600436106102e45760003560e01c80638456cb5911610190578063b0aa98c7116100dc578063d4a32ad611610095578063e47d6cc61161006f578063e47d6cc614610901578063ec52738914610921578063f2fde38b14610941578063ffa1ad741461096157600080fd5b8063d4a32ad61461089f578063d5391393146108bf578063d547741f146108e157600080fd5b8063b0aa98c7146107df578063b9998a24146107ff578063c3a3bc001461081f578063cc2c3fc41461083f578063ceeb4f501461085f578063d1f5692c1461087f57600080fd5b80639865027511610149578063a3f4df7e11610123578063a3f4df7e14610732578063a849d65c1461077f578063aa271e1a1461079f578063ae31844a146107bf57600080fd5b806398650275146106e857806399e0dd7c146106fd578063a217fddf1461071d57600080fd5b80638456cb59146106405780638da5cb5b14610655578063906cecc11461067357806390dbdb5a1461069357806391d14854146106a8578063983b2d56146106c857600080fd5b80633f41b6141161024f5780635c975abb116102085780636bfdcbf4116101e25780636bfdcbf4146105d8578063715018a6146105f857806371e2a6571461060d57806381c81d351461062d57600080fd5b80635c975abb146105905780635fc1964f146105a5578063634486da146105c557600080fd5b80633f41b614146104955780633f4ba83a146104cd578063463c4bcb146104e25780634e543b2614610502578063572b6c05146105225780635b6fa8db1461057057600080fd5b8063268b15ed116102a1578063268b15ed146103e05780632eff1a95146104005780632f2ff15d146104155780633092afd51461043557806336568abe1461045557806339ccf4d01461047557600080fd5b806301ffc9a7146102e95780630ca48a411461031e5780630e36a87d1461034057806310921f121461036d5780631459457a14610382578063248a9ca3146103a2575b600080fd5b3480156102f557600080fd5b50610309610304366004613589565b610992565b60405190151581526020015b60405180910390f35b34801561032a57600080fd5b5061033e610339366004613443565b6109c9565b005b34801561034c57600080fd5b5061036061035b366004613443565b610afc565b604051610315919061389c565b34801561037957600080fd5b50610309610bd3565b34801561038e57600080fd5b5061033e61039d3660046135b1565b610bee565b3480156103ae57600080fd5b506103d26103bd366004613542565b60009081526097602052604090206001015490565b604051908152602001610315565b3480156103ec57600080fd5b5061033e6103fb366004613654565b610f3a565b34801561040c57600080fd5b5061033e611044565b34801561042157600080fd5b5061033e61043036600461355a565b611056565b34801561044157600080fd5b5061033e610450366004613259565b61107b565b34801561046157600080fd5b5061033e61047036600461355a565b61108f565b34801561048157600080fd5b5061033e610490366004613392565b61111d565b3480156104a157600080fd5b5060c9546104b5906001600160a01b031681565b6040516001600160a01b039091168152602001610315565b3480156104d957600080fd5b5061033e611289565b3480156104ee57600080fd5b5061033e6104fd366004613542565b611299565b34801561050e57600080fd5b5061033e61051d366004613259565b6112c9565b34801561052e57600080fd5b5061030961053d366004613259565b7f893ef2ea16c023f61d4f55d3e6ee3fc3f2fbfd478461323dbc2fbf919047086e546001600160a01b0390811691161490565b34801561057c57600080fd5b5060cc546104b5906001600160a01b031681565b34801561059c57600080fd5b506103096112f3565b3480156105b157600080fd5b5061033e6105c0366004613482565b611309565b61033e6105d3366004613259565b61135f565b3480156105e457600080fd5b5061033e6105f3366004613443565b611422565b34801561060457600080fd5b5061033e61153f565b34801561061957600080fd5b5061033e610628366004613482565b611551565b61033e61063b366004613259565b6115a7565b34801561064c57600080fd5b5061033e611624565b34801561066157600080fd5b506033546001600160a01b03166104b5565b34801561067f57600080fd5b5061033e61068e366004613339565b611634565b34801561069f57600080fd5b5061033e61172a565b3480156106b457600080fd5b506103096106c336600461355a565b61173a565b3480156106d457600080fd5b5061033e6106e3366004613259565b611765565b3480156106f457600080fd5b5061033e611776565b34801561070957600080fd5b5061033e610718366004613621565b611790565b34801561072957600080fd5b506103d2600081565b34801561073e57600080fd5b50610772604051806040016040528060148152602001732aa7299d1026b4b73a34b7339026b0b730b3b2b960611b81525081565b6040516103159190613981565b34801561078b57600080fd5b5060cb546104b5906001600160a01b031681565b3480156107ab57600080fd5b506103096107ba366004613259565b61186f565b3480156107cb57600080fd5b5061033e6107da366004613443565b611889565b3480156107eb57600080fd5b506103096107fa366004613542565b6118e2565b34801561080b57600080fd5b5061033e61081a366004613259565b61194f565b34801561082b57600080fd5b5061033e61083a366004613621565b611994565b34801561084b57600080fd5b5060ca546104b5906001600160a01b031681565b34801561086b57600080fd5b5061033e61087a366004613392565b6119db565b34801561088b57600080fd5b5061033e61089a366004613443565b611ac8565b3480156108ab57600080fd5b5061033e6108ba366004613291565b611b8d565b3480156108cb57600080fd5b506103d2600080516020613d8c83398151915281565b3480156108ed57600080fd5b5061033e6108fc36600461355a565b611ea3565b34801561090d57600080fd5b5061033e61091c366004613443565b611ec8565b34801561092d57600080fd5b5061033e61093c366004613542565b611ef9565b34801561094d57600080fd5b5061033e61095c366004613259565b611f6b565b34801561096d57600080fd5b50610772604051806040016040528060058152602001640302e342e360dc1b81525081565b60006001600160e01b03198216637965db0b60e01b14806109c357506301ffc9a760e01b6001600160e01b03198316145b92915050565b6109d1611f87565b60005b81811015610af757610a0b8383838181106109ff57634e487b7160e01b600052603260045260246000fd5b90506020020135612000565b610a5c5760405162461bcd60e51b815260206004820181905260248201527f4d696e74696e674d616e616765723a20544f4b454e5f49445f4e4f545f544c4460448201526064015b60405180910390fd5b60c9546001600160a01b031663df454285848484818110610a8d57634e487b7160e01b600052603260045260246000fd5b905060200201356040518263ffffffff1660e01b8152600401610ab291815260200190565b600060405180830381600087803b158015610acc57600080fd5b505af1158015610ae0573d6000803e3d6000fd5b505050508080610aef90613ccf565b9150506109d4565b505050565b6060816001600160401b03811115610b2457634e487b7160e01b600052604160045260246000fd5b604051908082528060200260200182016040528015610b4d578160200160208202803683370190505b50905060005b82811015610bcc57610b8a848483818110610b7e57634e487b7160e01b600052603260045260246000fd5b905060200201356118e2565b828281518110610baa57634e487b7160e01b600052603260045260246000fd5b9115156020928302919091019091015280610bc481613ccf565b915050610b53565b5092915050565b6000600080516020613d4c8339815191525b5460ff16919050565b600054610100900460ff1615808015610c0e5750600054600160ff909116105b80610c285750303b158015610c28575060005460ff166001145b610c8b5760405162461bcd60e51b815260206004820152602e60248201527f496e697469616c697a61626c653a20636f6e747261637420697320616c72656160448201526d191e481a5b9a5d1a585b1a5e995960921b6064820152608401610a53565b6000805460ff191660011790558015610cae576000805461ff0019166101001790555b60c980546001600160a01b038089166001600160a01b03199283161790925560ca805488841690831617905560cb805487841690831617905560cc805492861692909116919091179055610d0061204b565b610d08612082565b610d11826120bb565b610d196120e2565b610d2161212c565b604080516101c081018252600661018082018181526563727970746f60d01b6101a0840152825282518084018452818152651dd85b1b195d60d21b602082810191909152808401919091528351808501855260018152600f60fb1b8183015283850152835180850185526003808252621b999d60ea1b82840152606085019190915284518086018652600a815269313637b1b5b1b430b4b760b11b818401526080850152845180860186526007808252663134ba31b7b4b760c91b8285015260a0860191909152855180870187528281526207070760eb1b8185015260c0860152855180870187528281526264616f60e81b8185015260e086015285518087018752918252621e9a5b60ea1b8284015261010085019190915284518086018652908152663837b63cb3b7b760c91b8183015261012084015283518085018552600b81526a756e73746f707061626c6560a81b8183015261014084015283518085019094529083526535b632bb32b960d11b9083015261016081019190915260005b600c811015610eea57610ed88282600c8110610ece57634e487b7160e01b600052603260045260246000fd5b6020020151612169565b80610ee281613ccf565b915050610ea2565b50508015610f32576000805461ff0019169055604051600181527f7f26b83ff96e1f2b6a682f133852f6798a09c465da95921460cefb38474024989060200160405180910390a15b505050505050565b8282828080601f016020809104026020016040519081016040528093929190818152602001838380828437600092019190915250610f7d92508491506122859050565b610f995760405162461bcd60e51b8152600401610a5390613a39565b6000610fa4826122ab565b9050600a81600001511115610ffc57610fcf610fc3826000600a6122d8565b80516020909101512090565b600080516020613d6c8339815191521415610ffc5760405162461bcd60e51b8152600401610a5390613994565b6110046112f3565b156110215760405162461bcd60e51b8152600401610a5390613a0f565b610f3261102c612317565b61103f8861103a8989612326565b612352565b61247f565b61104c611f87565b61105461248d565b565b60008281526097602052604090206001015461107181612538565b610af78383612549565b611083611f87565b61108c816125d0565b50565b611097612317565b6001600160a01b0316816001600160a01b03161461110f5760405162461bcd60e51b815260206004820152602f60248201527f416363657373436f6e74726f6c3a2063616e206f6e6c792072656e6f756e636560448201526e103937b632b9903337b91039b2b63360891b6064820152608401610a53565b61111982826125e8565b5050565b6111286107ba612317565b6111445760405162461bcd60e51b8152600401610a53906139da565b8686868080601f01602080910402602001604051908101604052809392919081815260200183838082843760009201919091525061118792508491506122859050565b6111a35760405162461bcd60e51b8152600401610a5390613a39565b60006111ae826122ab565b9050600a816000015111156111fa576111cd610fc3826000600a6122d8565b600080516020613d6c83398151915214156111fa5760405162461bcd60e51b8152600401610a5390613994565b6112026112f3565b1561121f5760405162461bcd60e51b8152600401610a5390613a0f565b61127c8b6112638c8c8c8080601f01602080910402602001604051908101604052809392919081815260200183838082843760009201919091525061235292505050565b61126d898b613b88565b611277888a613b88565b61266d565b5050505050505050505050565b611291611f87565b61105461287c565b6112a46107ba612317565b6112c05760405162461bcd60e51b8152600401610a53906139da565b61108c81612907565b6112d1611f87565b60cc80546001600160a01b0319166001600160a01b0392909216919091179055565b6000600080516020613d2c833981519152610be5565b611311611f87565b60005b81518110156111195761134d82828151811061134057634e487b7160e01b600052603260045260246000fd5b60200260200101516125d0565b8061135781613ccf565b915050611314565b61136a6107ba612317565b6113865760405162461bcd60e51b8152600401610a53906139da565b6001600160a01b0381166113dc5760405162461bcd60e51b815260206004820152601d60248201527f4d696e746572526f6c653a2052454345495645525f49535f454d5054590000006044820152606401610a53565b6113e5816129d6565b6113ed611776565b6040516001600160a01b038216903480156108fc02916000818181858888f19350505050158015611119573d6000803e3d6000fd5b61142a611f87565b60005b81811015610af7576114588383838181106109ff57634e487b7160e01b600052603260045260246000fd5b6114a45760405162461bcd60e51b815260206004820181905260248201527f4d696e74696e674d616e616765723a20544f4b454e5f49445f4e4f545f544c446044820152606401610a53565b60c9546001600160a01b031663d0bc28d78484848181106114d557634e487b7160e01b600052603260045260246000fd5b905060200201356040518263ffffffff1660e01b81526004016114fa91815260200190565b600060405180830381600087803b15801561151457600080fd5b505af1158015611528573d6000803e3d6000fd5b50505050808061153790613ccf565b91505061142d565b611547611f87565b61105460006129ee565b611559611f87565b60005b81518110156111195761159582828151811061158857634e487b7160e01b600052603260045260246000fd5b60200260200101516129d6565b8061159f81613ccf565b91505061155c565b6115b26107ba612317565b6115ce5760405162461bcd60e51b8152600401610a53906139da565b6001600160a01b0381166113e55760405162461bcd60e51b815260206004820152601d60248201527f4d696e746572526f6c653a2052454345495645525f49535f454d5054590000006044820152606401610a53565b61162c611f87565b611054612a40565b8282828080601f01602080910402602001604051908101604052809392919081815260200183838082843760009201919091525061167792508491506122859050565b6116935760405162461bcd60e51b8152600401610a5390613a39565b600061169e826122ab565b9050600a816000015111156116ea576116bd610fc3826000600a6122d8565b600080516020613d6c83398151915214156116ea5760405162461bcd60e51b8152600401610a5390613994565b6116f26112f3565b1561170f5760405162461bcd60e51b8152600401610a5390613a0f565b6117218761103f8861103a8989612326565b50505050505050565b611732611f87565b611054612aa8565b60009182526097602090815260408084206001600160a01b0393909316845291905290205460ff1690565b61176d611f87565b61108c816129d6565b611054600080516020613d8c833981519152610470612317565b611798611f87565b60c954604051632678375f60e21b81526001600160a01b03909116906399e0dd7c906117ca9085908590600401613952565b600060405180830381600087803b1580156117e457600080fd5b505af11580156117f8573d6000803e3d6000fd5b505060cb546001600160a01b031615915061111990505760cb54604051632678375f60e21b81526001600160a01b03909116906399e0dd7c906118419085908590600401613952565b600060405180830381600087803b15801561185b57600080fd5b505af1158015610f32573d6000803e3d6000fd5b60006109c3600080516020613d8c8339815191528361173a565b6118946107ba612317565b6118b05760405162461bcd60e51b8152600401610a53906139da565b60c954604051635718c22560e11b81526001600160a01b039091169063ae31844a906118419085908590600401613918565b60006118ec610bd3565b1580156109c35750604080517f1ec047073e2c8b15660901dbfdb6e3ff6365bd699dd9f95dcc6eab5448bebd696020820152908101839052611945906060015b6040516020818303038152906040528051906020012090565b5460ff1692915050565b611957611f87565b7f893ef2ea16c023f61d4f55d3e6ee3fc3f2fbfd478461323dbc2fbf919047086e80546001600160a01b0319166001600160a01b03831617905550565b61199c611f87565b61111982828080601f01602080910402602001604051908101604052809392919081815260200183838082843760009201919091525061216992505050565b8686868080601f016020809104026020016040519081016040528093929190818152602001838380828437600092019190915250611a1e92508491506122859050565b611a3a5760405162461bcd60e51b8152600401610a5390613a39565b6000611a45826122ab565b9050600a81600001511115611a9157611a64610fc3826000600a6122d8565b600080516020613d6c8339815191521415611a915760405162461bcd60e51b8152600401610a5390613994565b611a996112f3565b15611ab65760405162461bcd60e51b8152600401610a5390613a0f565b61127c8b6112638c61103a8d8d612326565b611ad0611f87565b60005b81811015610af75760c9546001600160a01b03166350960239848484818110611b0c57634e487b7160e01b600052603260045260246000fd5b9050602002016020810190611b219190613259565b6040516001600160e01b031960e084901b1681526001600160a01b039091166004820152602401600060405180830381600087803b158015611b6257600080fd5b505af1158015611b76573d6000803e3d6000fd5b505050508080611b8590613ccf565b915050611ad3565b611b978587613b88565b805160021415611c0957611bac6107ba612317565b611c045760405162461bcd60e51b8152602060048201526024808201527f4d696e74696e674d616e616765723a2043414c4c45525f49535f4e4f545f4d49604482015263272a22a960e11b6064820152608401610a53565b611d16565b6000611c1482612b31565b60c9549092506001600160a01b0316905063430c2081611c32612317565b6040516001600160e01b031960e084901b1681526001600160a01b0390911660048201526024810184905260440160206040518083038186803b158015611c7857600080fd5b505afa158015611c8c573d6000803e3d6000fd5b505050506040513d601f19601f82011682018060405250810190611cb09190613522565b611d145760405162461bcd60e51b815260206004820152602f60248201527f4d696e74696e674d616e616765723a2053454e4445525f49535f4e4f545f415060448201526e282927ab22a22fa7a92fa7aba722a960891b6064820152608401610a53565b505b611d208688613b88565b600281511015611d805760405162461bcd60e51b815260206004820152602560248201527f4d696e74696e674d616e616765723a204c4142454c535f4c454e4754485f42456044820152642627abaf9960d91b6064820152608401610a53565b611dbd8160018351611d929190613b71565b81518110611db057634e487b7160e01b600052603260045260246000fd5b6020026020010151612b97565b611dd95760405162461bcd60e51b8152600401610a5390613a39565b6000611e188260028451611ded9190613b71565b81518110611e0b57634e487b7160e01b600052603260045260246000fd5b60200260200101516122ab565b9050600a81600001511115611e6457611e37610fc3826000600a6122d8565b600080516020613d6c8339815191521415611e645760405162461bcd60e51b8152600401610a5390613994565b611e6c6112f3565b15611e895760405162461bcd60e51b8152600401610a5390613a0f565b611e978a6112638a8c613b88565b50505050505050505050565b600082815260976020526040902060010154611ebe81612538565b610af783836125e8565b611ed36107ba612317565b611eef5760405162461bcd60e51b8152600401610a53906139da565b6111198282612bb7565b611f01611f87565b611f0a81612285565b611f265760405162461bcd60e51b8152600401610a5390613a39565b600081815260cd60205260408120611f3d916130fe565b60405181907f0aa1aff0f830e739d86baf0e6624d6763da02f7733575e0e463886cd062dea6a90600090a250565b611f73611f87565b611f7c81612c03565b61108c600082612c79565b611f8f612317565b6001600160a01b0316611faa6033546001600160a01b031690565b6001600160a01b0316146110545760405162461bcd60e51b815260206004820181905260248201527f4f776e61626c653a2063616c6c6572206973206e6f7420746865206f776e65726044820152606401610a53565b600081815260cd60205260408120805482919061201c90613c94565b905011806109c35750507f7674e7282552c15f203b9c4a6025aeaf28176ef7f5451b280f9bada3f8bc98e21490565b600054610100900460ff166120725760405162461bcd60e51b8152600401610a5390613a7b565b61105461207d612317565b6129ee565b600054610100900460ff166120a95760405162461bcd60e51b8152600401610a5390613a7b565b61105460006120b6612317565b612c79565b600054610100900460ff166119575760405162461bcd60e51b8152600401610a5390613a7b565b600054610100900460ff166121095760405162461bcd60e51b8152600401610a5390613a7b565b6000600080516020613d4c8339815191525b805460ff1916911515919091179055565b600054610100900460ff166121535760405162461bcd60e51b8152600401610a5390613a7b565b6000600080516020613d2c83398151915261211b565b6000612176600083612c83565b600081815260cd60209081526040909120845192935061219a929091850190613138565b50807f4fce6f6e172b04eaa80325d8e3b0180a34945000f3e214605039e8420fdf8980836040516121cb9190613981565b60405180910390a260c954604051634f558e7960e01b8152600481018390526001600160a01b0390911690634f558e799060240160206040518083038186803b15801561221757600080fd5b505afa15801561222b573d6000803e3d6000fd5b505050506040513d601f19601f8201168201806040525081019061224f9190613522565b6111195760c9546040516307befae360e51b81526001600160a01b039091169063f7df5c60906118419084908690600401613ac6565b600081815260cd6020526040812080548291906122a190613c94565b9050119050919050565b60408051808201825260008082526020918201528151808301909252825182529182019181019190915290565b6040805180820190915260008082526020820152604051806040016040528083815260200184866020015161230d9190613b3a565b9052949350505050565b6000612321612d38565b905090565b6060828260405160200161233b92919061373c565b604051602081830303815290604052905092915050565b604080516002808252606082810190935260009190816020015b606081526020019060019003908161236c57905050905082816000815181106123a557634e487b7160e01b600052603260045260246000fd5b602002602001018190525060cd600085815260200190815260200160002080546123ce90613c94565b80601f01602080910402602001604051908101604052809291908181526020018280546123fa90613c94565b80156124475780601f1061241c57610100808354040283529160200191612447565b820191906000526020600020905b81548152906001019060200180831161242a57829003601f168201915b50505050508160018151811061246d57634e487b7160e01b600052603260045260246000fd5b60209081029190910101529392505050565b6060610af78383838461266d565b612495610bd3565b156124d85760405162461bcd60e51b8152602060048201526013602482015272109b1bd8dadb1a5cdd0e88111254d050931151606a1b6044820152606401610a53565b600080516020613d4c833981519152805460ff191660011790557f079c4efaefd9fc7ddb28144b9b0140c03f42922d28d0e226369d60709215816661251b612317565b6040516001600160a01b03909116815260200160405180910390a1565b61108c81612544612317565b612d7f565b612553828261173a565b6111195760008281526097602090815260408083206001600160a01b03851684529091529020805460ff1916600117905561258c612317565b6001600160a01b0316816001600160a01b0316837f2f8788117e7eff1d82e926ec794901d17c78024a50270940304540a733656f0d60405160405180910390a45050565b61108c600080516020613d8c83398151915282611ea3565b6125f2828261173a565b156111195760008281526097602090815260408083206001600160a01b03851684529091529020805460ff19169055612629612317565b6001600160a01b0316816001600160a01b0316837ff6391f5c32d9c69d2a47ea670b442974b53935d1edc7fd64eb21e047a839171b60405160405180910390a45050565b600061267884612b31565b5090503061268582612de3565b6001600160a01b031614156127015760c95460405163037b8ed760e21b81526001600160a01b0390911690630dee3b5c906126ca908890859088908890600401613863565b600060405180830381600087803b1580156126e457600080fd5b505af11580156126f8573d6000803e3d6000fd5b50505050612875565b61270a81612e64565b61271384612ec6565b8015612720575083516002145b1561280c5760ca5484516001600160a01b039091169063c36c2125908790879060009061275d57634e487b7160e01b600052603260045260246000fd5b602090810291909101015160cc546040516001600160e01b031960e086901b1681526127979392916001600160a01b03169060040161382e565b600060405180830381600087803b1580156127b157600080fd5b505af11580156127c5573d6000803e3d6000fd5b505050506000835111156128075760cc54604051633a0deb9d60e21b81526001600160a01b039091169063e837ae74906126ca908690869086906004016138e2565b612875565b60c954604051637d67df6360e01b81526001600160a01b0390911690637d67df63906128429088908890889088906004016137d9565b600060405180830381600087803b15801561285c57600080fd5b505af1158015612870573d6000803e3d6000fd5b505050505b5050505050565b6128846112f3565b6128c75760405162461bcd60e51b815260206004820152601460248201527314185d5cd8589b194e881393d517d4105554d15160621b6044820152606401610a53565b600080516020613d2c833981519152805460ff191690557f5db9ee0a495bf2e6ff9c91a7834c1ba4fdd244a5e8aa4e537bd38aeae4b073aa61251b612317565b61290f610bd3565b156129525760405162461bcd60e51b8152602060048201526013602482015272109b1bd8dadb1a5cdd0e88111254d050931151606a1b6044820152606401610a53565b604080517f1ec047073e2c8b15660901dbfdb6e3ff6365bd699dd9f95dcc6eab5448bebd6960208201529081018290526001906129919060600161192c565b805460ff19169115159190911790556040518181527f2ce5d9351b1d590d5a066db0d2dc7602d55f092506a83a7ee8c4d78ee357d75a9060200160405180910390a150565b61108c600080516020613d8c83398151915282612c79565b603380546001600160a01b038381166001600160a01b0319831681179093556040519116919082907f8be0079c531659141344cd1fd0a4f28419497f9722a3daafe3b4186f6b6457e090600090a35050565b612a486112f3565b15612a655760405162461bcd60e51b8152600401610a5390613a0f565b600080516020613d2c833981519152805460ff191660011790557f62e78cea01bee320cd4e420270b5ea74000d11b0c9f74754ebdbfc544b05a25861251b612317565b612ab0610bd3565b612af15760405162461bcd60e51b8152602060048201526012602482015271109b1bd8dadb1a5cdd0e881153905093115160721b6044820152606401610a53565b600080516020613d4c833981519152805460ff191690557f316c4cec74b9568f102eda30781a2fe8cd5172329bf1401e804cb8c5131715c461251b612317565b805160009081905b8015612b9157829150612b7d8285612b52600185613b71565b81518110612b7057634e487b7160e01b600052603260045260246000fd5b6020026020010151612c83565b925080612b8981613c7d565b915050612b39565b50915091565b600080612ba5600084612c83565b9050612bb081612285565b9392505050565b60005b81811015610af757612bf1838383818110612be557634e487b7160e01b600052603260045260246000fd5b90506020020135612907565b80612bfb81613ccf565b915050612bba565b612c0b611f87565b6001600160a01b038116612c705760405162461bcd60e51b815260206004820152602660248201527f4f776e61626c653a206e6577206f776e657220697320746865207a65726f206160448201526564647265737360d01b6064820152608401610a53565b61108c816129ee565b6111198282612549565b6000815160001415612cd75760405162461bcd60e51b815260206004820152601b60248201527f4d696e74696e674d616e616765723a204c4142454c5f454d50545900000000006044820152606401610a53565b8282604051602001612ce99190613720565b60405160208183030381529060405280519060200120604051602001612d19929190918252602082015260400190565b60408051601f1981840301815291905280516020909101209392505050565b7f893ef2ea16c023f61d4f55d3e6ee3fc3f2fbfd478461323dbc2fbf919047086e546000906001600160a01b0316331415612d7a575060331936013560601c90565b503390565b612d89828261173a565b61111957612da1816001600160a01b03166014612f1d565b612dac836020612f1d565b604051602001612dbd929190613764565b60408051601f198184030181529082905262461bcd60e51b8252610a5391600401613981565b60c9546040516331a9108f60e11b8152600481018390526000916001600160a01b031690636352211e9060240160206040518083038186803b158015612e2857600080fd5b505afa925050508015612e58575060408051601f3d908101601f19168201909252612e5591810190613275565b60015b6109c357506000919050565b612e6c610bd3565b61108c57612e79816118e2565b156112c05760405162461bcd60e51b815260206004820152601d60248201527f4d696e74696e674d616e616765723a20544f4b454e5f424c4f434b45440000006044820152606401610a53565b600080612edd60008460018651612b529190613b71565b60ca549091506001600160a01b031615801590612bb057507f0f4a10a4f46c288cea365fcf45cccf0e9d901b945b9829ccdb54c10dc3cb7a6f1492915050565b60606000612f2c836002613b52565b612f37906002613b3a565b6001600160401b03811115612f5c57634e487b7160e01b600052604160045260246000fd5b6040519080825280601f01601f191660200182016040528015612f86576020820181803683370190505b509050600360fc1b81600081518110612faf57634e487b7160e01b600052603260045260246000fd5b60200101906001600160f81b031916908160001a905350600f60fb1b81600181518110612fec57634e487b7160e01b600052603260045260246000fd5b60200101906001600160f81b031916908160001a9053506000613010846002613b52565b61301b906001613b3a565b90505b60018111156130af576f181899199a1a9b1b9c1cb0b131b232b360811b85600f166010811061305d57634e487b7160e01b600052603260045260246000fd5b1a60f81b82828151811061308157634e487b7160e01b600052603260045260246000fd5b60200101906001600160f81b031916908160001a90535060049490941c936130a881613c7d565b905061301e565b508315612bb05760405162461bcd60e51b815260206004820181905260248201527f537472696e67733a20686578206c656e67746820696e73756666696369656e746044820152606401610a53565b50805461310a90613c94565b6000825580601f1061311a575050565b601f01602090049060005260206000209081019061108c91906131bc565b82805461314490613c94565b90600052602060002090601f01602090048101928261316657600085556131ac565b82601f1061317f57805160ff19168380011785556131ac565b828001600101855582156131ac579182015b828111156131ac578251825591602001919060010190613191565b506131b89291506131bc565b5090565b5b808211156131b857600081556001016131bd565b60008083601f8401126131e2578182fd5b5081356001600160401b038111156131f8578182fd5b6020830191508360208260051b850101111561321357600080fd5b9250929050565b60008083601f84011261322b578182fd5b5081356001600160401b03811115613241578182fd5b60208301915083602082850101111561321357600080fd5b60006020828403121561326a578081fd5b8135612bb081613d16565b600060208284031215613286578081fd5b8151612bb081613d16565b60008060008060008060006080888a0312156132ab578283fd5b87356132b681613d16565b965060208801356001600160401b03808211156132d1578485fd5b6132dd8b838c016131d1565b909850965060408a01359150808211156132f5578485fd5b6133018b838c016131d1565b909650945060608a0135915080821115613319578384fd5b506133268a828b016131d1565b989b979a50959850939692959293505050565b6000806000806060858703121561334e578384fd5b843561335981613d16565b93506020850135925060408501356001600160401b0381111561337a578283fd5b6133868782880161321a565b95989497509550505050565b60008060008060008060008060a0898b0312156133ad578182fd5b88356133b881613d16565b97506020890135965060408901356001600160401b03808211156133da578384fd5b6133e68c838d0161321a565b909850965060608b01359150808211156133fe578384fd5b61340a8c838d016131d1565b909650945060808b0135915080821115613422578384fd5b5061342f8b828c016131d1565b999c989b5096995094979396929594505050565b60008060208385031215613455578182fd5b82356001600160401b0381111561346a578283fd5b613476858286016131d1565b90969095509350505050565b60006020808385031215613494578182fd5b82356001600160401b038111156134a9578283fd5b8301601f810185136134b9578283fd5b80356134cc6134c782613b17565b613ae7565b80828252848201915084840188868560051b87010111156134eb578687fd5b8694505b8385101561351657803561350281613d16565b8352600194909401939185019185016134ef565b50979650505050505050565b600060208284031215613533578081fd5b81518015158114612bb0578182fd5b600060208284031215613553578081fd5b5035919050565b6000806040838503121561356c578182fd5b82359150602083013561357e81613d16565b809150509250929050565b60006020828403121561359a578081fd5b81356001600160e01b031981168114612bb0578182fd5b600080600080600060a086880312156135c8578283fd5b85356135d381613d16565b945060208601356135e381613d16565b935060408601356135f381613d16565b9250606086013561360381613d16565b9150608086013561361381613d16565b809150509295509295909350565b60008060208385031215613633578182fd5b82356001600160401b03811115613648578283fd5b6134768582860161321a565b600080600060408486031215613668578081fd5b8335925060208401356001600160401b03811115613684578182fd5b6136908682870161321a565b9497909650939450505050565b600082825180855260208086019550808260051b840101818601855b848110156136e757601f198684030189526136d58383516136f4565b988401989250908301906001016136b9565b5090979650505050505050565b6000815180845261370c816020860160208601613c4d565b601f01601f19169290920160200192915050565b60008251613732818460208701613c4d565b9190910192915050565b6b756e732d646576746573742d60a01b81528183600c83013760009101600c01908152919050565b7f416363657373436f6e74726f6c3a206163636f756e742000000000000000000081526000835161379c816017850160208801613c4d565b7001034b99036b4b9b9b4b733903937b6329607d1b60179184019182015283516137cd816028840160208801613c4d565b01602801949350505050565b6001600160a01b03851681526080602082018190526000906137fd9083018661369d565b828103604084015261380f818661369d565b90508281036060840152613823818561369d565b979650505050505050565b600060018060a01b0380861683526060602084015261385060608401866136f4565b9150808416604084015250949350505050565b60018060a01b038516815283602082015260806040820152600061388a608083018561369d565b8281036060840152613823818561369d565b6020808252825182820181905260009190848201906040850190845b818110156138d65783511515835292840192918401916001016138b8565b50909695505050505050565b6060815260006138f5606083018661369d565b8281036020840152613907818661369d565b915050826040830152949350505050565b6020808252810182905260006001600160fb1b03831115613937578081fd5b8260051b808560408501379190910160400190815292915050565b60208152816020820152818360408301376000818301604090810191909152601f909201601f19160101919050565b602081526000612bb060208301846136f4565b60208082526026908201527f4d696e74696e674d616e616765723a20544f4b454e5f4c4142454c5f50524f4860408201526512509255115160d21b606082015260800190565b6020808252818101527f4d696e746572526f6c653a2043414c4c45525f49535f4e4f545f4d494e544552604082015260600190565b60208082526010908201526f14185d5cd8589b194e8814105554d15160821b604082015260600190565b60208082526022908201527f4d696e74696e674d616e616765723a20544c445f4e4f545f5245474953544552604082015261115160f21b606082015260800190565b6020808252602b908201527f496e697469616c697a61626c653a20636f6e7472616374206973206e6f74206960408201526a6e697469616c697a696e6760a81b606082015260800190565b828152604060208201526000613adf60408301846136f4565b949350505050565b604051601f8201601f191681016001600160401b0381118282101715613b0f57613b0f613d00565b604052919050565b60006001600160401b03821115613b3057613b30613d00565b5060051b60200190565b60008219821115613b4d57613b4d613cea565b500190565b6000816000190483118215151615613b6c57613b6c613cea565b500290565b600082821015613b8357613b83613cea565b500390565b6000613b966134c784613b17565b808482526020808301925084368760051b87011115613bb3578485fd5b845b87811015613c415781356001600160401b0380821115613bd3578788fd5b90880190601f3681840112613be6578889fd5b823582811115613bf857613bf8613d00565b613c09818301601f19168801613ae7565b92508083523687828601011115613c1e57898afd5b808785018885013782018601899052508652509382019390820190600101613bb5565b50919695505050505050565b60005b83811015613c68578181015183820152602001613c50565b83811115613c77576000848401525b50505050565b600081613c8c57613c8c613cea565b506000190190565b600181811c90821680613ca857607f821691505b60208210811415613cc957634e487b7160e01b600052602260045260246000fd5b50919050565b6000600019821415613ce357613ce3613cea565b5060010190565b634e487b7160e01b600052601160045260246000fd5b634e487b7160e01b600052604160045260246000fd5b6001600160a01b038116811461108c57600080fdfe5496787fc1ebdfeba375028c1865f13fbb1d63c0caa356ccc1b29a80f3ebd622a85b8425a460dd344a297bd4a82e287385f0fc558cb3e78867b0489f43df2470b551e0305c8163b812374b8e78b577c77f226f6f10c5ad03e52699578fbc34b89f2df0fed2c77648de5860a4cc508cd0818c85b8b8a1ab4ceeef8d981c8956a6a164736f6c6343000804000a",
  "linkReferences": {},
  "deployedLinkReferences": {}
}