{
  "_format": "hh-sol-artifact-1",
  "contractName": "MintingManager",
  "sourceName": "contracts/MintingManager.sol",
  "abi": [
    {
      "anonymous": false,
      "inputs": [
        {
          "indexed": false,
          "internalType": "uint256",
          "name": "tokenId",
          "type": "uint256"
        }
      ],
      "name": "Blocked",
      "type": "event"
    },
    {
      "anonymous": false,
      "inputs": [
        {
          "indexed": false,
          "internalType": "address",
          "name": "account",
          "type": "address"
        }
      ],
      "name": "BlocklistDisabled",
      "type": "event"
    },
    {
      "anonymous": false,
      "inputs": [
        {
          "indexed": false,
          "internalType": "address",
          "name": "account",
          "type": "address"
        }
      ],
      "name": "BlocklistEnabled",
      "type": "event"
    },
    {
      "anonymous": false,
      "inputs": [
        {
          "indexed": true,
          "internalType": "uint256",
          "name": "namehash",
          "type": "uint256"
        },
        {
          "indexed": false,
          "internalType": "string",
          "name": "tld",
          "type": "string"
        }
      ],
      "name": "NewTld",
      "type": "event"
    },
    {
      "anonymous": false,
      "inputs": [
        {
          "indexed": true,
          "internalType": "address",
          "name": "previousOwner",
          "type": "address"
        },
        {
          "indexed": true,
          "internalType": "address",
          "name": "newOwner",
          "type": "address"
        }
      ],
      "name": "OwnershipTransferred",
      "type": "event"
    },
    {
      "anonymous": false,
      "inputs": [
        {
          "indexed": false,
          "internalType": "address",
          "name": "account",
          "type": "address"
        }
      ],
      "name": "Paused",
      "type": "event"
    },
    {
      "anonymous": false,
      "inputs": [
        {
          "indexed": true,
          "internalType": "address",
          "name": "sender",
          "type": "address"
        },
        {
          "indexed": true,
          "internalType": "address",
          "name": "signer",
          "type": "address"
        },
        {
          "indexed": true,
          "internalType": "bytes4",
          "name": "selector",
          "type": "bytes4"
        },
        {
          "indexed": false,
          "internalType": "bytes32",
          "name": "digest",
          "type": "bytes32"
        }
      ],
      "name": "Relayed",
      "type": "event"
    },
    {
      "anonymous": false,
      "inputs": [
        {
          "indexed": true,
          "internalType": "bytes32",
          "name": "role",
          "type": "bytes32"
        },
        {
          "indexed": true,
          "internalType": "bytes32",
          "name": "previousAdminRole",
          "type": "bytes32"
        },
        {
          "indexed": true,
          "internalType": "bytes32",
          "name": "newAdminRole",
          "type": "bytes32"
        }
      ],
      "name": "RoleAdminChanged",
      "type": "event"
    },
    {
      "anonymous": false,
      "inputs": [
        {
          "indexed": true,
          "internalType": "bytes32",
          "name": "role",
          "type": "bytes32"
        },
        {
          "indexed": true,
          "internalType": "address",
          "name": "account",
          "type": "address"
        },
        {
          "indexed": true,
          "internalType": "address",
          "name": "sender",
          "type": "address"
        }
      ],
      "name": "RoleGranted",
      "type": "event"
    },
    {
      "anonymous": false,
      "inputs": [
        {
          "indexed": true,
          "internalType": "bytes32",
          "name": "role",
          "type": "bytes32"
        },
        {
          "indexed": true,
          "internalType": "address",
          "name": "account",
          "type": "address"
        },
        {
          "indexed": true,
          "internalType": "address",
          "name": "sender",
          "type": "address"
        }
      ],
      "name": "RoleRevoked",
      "type": "event"
    },
    {
      "anonymous": false,
      "inputs": [
        {
          "indexed": false,
          "internalType": "address",
          "name": "account",
          "type": "address"
        }
      ],
      "name": "Unpaused",
      "type": "event"
    },
    {
      "inputs": [],
      "name": "DEFAULT_ADMIN_ROLE",
      "outputs": [
        {
          "internalType": "bytes32",
          "name": "",
          "type": "bytes32"
        }
      ],
      "stateMutability": "view",
      "type": "function"
    },
    {
      "inputs": [],
      "name": "MINTER_ROLE",
      "outputs": [
        {
          "internalType": "bytes32",
          "name": "",
          "type": "bytes32"
        }
      ],
      "stateMutability": "view",
      "type": "function"
    },
    {
      "inputs": [],
      "name": "NAME",
      "outputs": [
        {
          "internalType": "string",
          "name": "",
          "type": "string"
        }
      ],
      "stateMutability": "view",
      "type": "function"
    },
    {
      "inputs": [],
      "name": "VERSION",
      "outputs": [
        {
          "internalType": "string",
          "name": "",
          "type": "string"
        }
      ],
      "stateMutability": "view",
      "type": "function"
    },
    {
      "inputs": [
        {
          "internalType": "address",
          "name": "account",
          "type": "address"
        }
      ],
      "name": "addMinter",
      "outputs": [],
      "stateMutability": "nonpayable",
      "type": "function"
    },
    {
      "inputs": [
        {
          "internalType": "address[]",
          "name": "accounts",
          "type": "address[]"
        }
      ],
      "name": "addMinters",
      "outputs": [],
      "stateMutability": "nonpayable",
      "type": "function"
    },
    {
      "inputs": [
        {
          "internalType": "string",
          "name": "tld",
          "type": "string"
        }
      ],
      "name": "addTld",
      "outputs": [],
      "stateMutability": "nonpayable",
      "type": "function"
    },
    {
      "inputs": [
        {
          "internalType": "uint256[]",
          "name": "tokenIds",
          "type": "uint256[]"
        }
      ],
      "name": "areBlocked",
      "outputs": [
        {
          "internalType": "bool[]",
          "name": "values",
          "type": "bool[]"
        }
      ],
      "stateMutability": "view",
      "type": "function"
    },
    {
      "inputs": [
        {
          "internalType": "uint256",
          "name": "tokenId",
          "type": "uint256"
        }
      ],
      "name": "blocklist",
      "outputs": [],
      "stateMutability": "nonpayable",
      "type": "function"
    },
    {
      "inputs": [
        {
          "internalType": "uint256[]",
          "name": "tokenIds",
          "type": "uint256[]"
        }
      ],
      "name": "blocklistAll",
      "outputs": [],
      "stateMutability": "nonpayable",
      "type": "function"
    },
    {
      "inputs": [
        {
          "internalType": "uint256",
          "name": "tld",
          "type": "uint256"
        },
        {
          "internalType": "string",
          "name": "label",
          "type": "string"
        }
      ],
      "name": "claim",
      "outputs": [],
      "stateMutability": "nonpayable",
      "type": "function"
    },
    {
      "inputs": [
        {
          "internalType": "address",
          "name": "to",
          "type": "address"
        },
        {
          "internalType": "uint256",
          "name": "tld",
          "type": "uint256"
        },
        {
          "internalType": "string",
          "name": "label",
          "type": "string"
        }
      ],
      "name": "claimTo",
      "outputs": [],
      "stateMutability": "nonpayable",
      "type": "function"
    },
    {
      "inputs": [
        {
          "internalType": "address",
          "name": "to",
          "type": "address"
        },
        {
          "internalType": "uint256",
          "name": "tld",
          "type": "uint256"
        },
        {
          "internalType": "string",
          "name": "label",
          "type": "string"
        },
        {
          "internalType": "string[]",
          "name": "keys",
          "type": "string[]"
        },
        {
          "internalType": "string[]",
          "name": "values",
          "type": "string[]"
        }
      ],
      "name": "claimToWithRecords",
      "outputs": [],
      "stateMutability": "nonpayable",
      "type": "function"
    },
    {
      "inputs": [
        {
          "internalType": "address payable",
          "name": "receiver",
          "type": "address"
        }
      ],
      "name": "closeMinter",
      "outputs": [],
      "stateMutability": "payable",
      "type": "function"
    },
    {
      "inputs": [],
      "name": "cnsMintingController",
      "outputs": [
        {
          "internalType": "contract IMintingController",
          "name": "",
          "type": "address"
        }
      ],
      "stateMutability": "view",
      "type": "function"
    },
    {
      "inputs": [],
      "name": "cnsResolver",
      "outputs": [
        {
          "internalType": "contract IResolver",
          "name": "",
          "type": "address"
        }
      ],
      "stateMutability": "view",
      "type": "function"
    },
    {
      "inputs": [],
      "name": "cnsURIPrefixController",
      "outputs": [
        {
          "internalType": "contract IURIPrefixController",
          "name": "",
          "type": "address"
        }
      ],
      "stateMutability": "view",
      "type": "function"
    },
    {
      "inputs": [],
      "name": "disableBlocklist",
      "outputs": [],
      "stateMutability": "nonpayable",
      "type": "function"
    },
    {
      "inputs": [],
      "name": "enableBlocklist",
      "outputs": [],
      "stateMutability": "nonpayable",
      "type": "function"
    },
    {
      "inputs": [
        {
          "internalType": "bytes32",
          "name": "role",
          "type": "bytes32"
        }
      ],
      "name": "getRoleAdmin",
      "outputs": [
        {
          "internalType": "bytes32",
          "name": "",
          "type": "bytes32"
        }
      ],
      "stateMutability": "view",
      "type": "function"
    },
    {
      "inputs": [
        {
          "internalType": "bytes32",
          "name": "role",
          "type": "bytes32"
        },
        {
          "internalType": "address",
          "name": "account",
          "type": "address"
        }
      ],
      "name": "grantRole",
      "outputs": [],
      "stateMutability": "nonpayable",
      "type": "function"
    },
    {
      "inputs": [
        {
          "internalType": "bytes32",
          "name": "role",
          "type": "bytes32"
        },
        {
          "internalType": "address",
          "name": "account",
          "type": "address"
        }
      ],
      "name": "hasRole",
      "outputs": [
        {
          "internalType": "bool",
          "name": "",
          "type": "bool"
        }
      ],
      "stateMutability": "view",
      "type": "function"
    },
    {
      "inputs": [
        {
          "internalType": "contract IUNSRegistry",
          "name": "unsRegistry_",
          "type": "address"
        },
        {
          "internalType": "contract IMintingController",
          "name": "cnsMintingController_",
          "type": "address"
        },
        {
          "internalType": "contract IURIPrefixController",
          "name": "cnsURIPrefixController_",
          "type": "address"
        },
        {
          "internalType": "contract IResolver",
          "name": "cnsResolver_",
          "type": "address"
        },
        {
          "internalType": "address",
          "name": "forwarder",
          "type": "address"
        }
      ],
      "name": "initialize",
      "outputs": [],
      "stateMutability": "nonpayable",
      "type": "function"
    },
    {
      "inputs": [
        {
          "internalType": "uint256",
          "name": "tokenId",
          "type": "uint256"
        }
      ],
      "name": "isBlocked",
      "outputs": [
        {
          "internalType": "bool",
          "name": "",
          "type": "bool"
        }
      ],
      "stateMutability": "view",
      "type": "function"
    },
    {
      "inputs": [],
      "name": "isBlocklistDisabled",
      "outputs": [
        {
          "internalType": "bool",
          "name": "",
          "type": "bool"
        }
      ],
      "stateMutability": "view",
      "type": "function"
    },
    {
      "inputs": [
        {
          "internalType": "address",
          "name": "account",
          "type": "address"
        }
      ],
      "name": "isMinter",
      "outputs": [
        {
          "internalType": "bool",
          "name": "",
          "type": "bool"
        }
      ],
      "stateMutability": "view",
      "type": "function"
    },
    {
      "inputs": [
        {
          "internalType": "address",
          "name": "forwarder",
          "type": "address"
        }
      ],
      "name": "isTrustedForwarder",
      "outputs": [
        {
          "internalType": "bool",
          "name": "",
          "type": "bool"
        }
      ],
      "stateMutability": "view",
      "type": "function"
    },
    {
      "inputs": [
        {
          "internalType": "address",
          "name": "to",
          "type": "address"
        },
        {
          "internalType": "uint256",
          "name": "tld",
          "type": "uint256"
        },
        {
          "internalType": "string",
          "name": "label",
          "type": "string"
        }
      ],
      "name": "mintSLD",
      "outputs": [],
      "stateMutability": "nonpayable",
      "type": "function"
    },
    {
      "inputs": [
        {
          "internalType": "address",
          "name": "to",
          "type": "address"
        },
        {
          "internalType": "uint256",
          "name": "tld",
          "type": "uint256"
        },
        {
          "internalType": "string",
          "name": "label",
          "type": "string"
        },
        {
          "internalType": "string[]",
          "name": "keys",
          "type": "string[]"
        },
        {
          "internalType": "string[]",
          "name": "values",
          "type": "string[]"
        }
      ],
      "name": "mintSLDWithRecords",
      "outputs": [],
      "stateMutability": "nonpayable",
      "type": "function"
    },
    {
      "inputs": [],
      "name": "owner",
      "outputs": [
        {
          "internalType": "address",
          "name": "",
          "type": "address"
        }
      ],
      "stateMutability": "view",
      "type": "function"
    },
    {
      "inputs": [],
      "name": "pause",
      "outputs": [],
      "stateMutability": "nonpayable",
      "type": "function"
    },
    {
      "inputs": [],
      "name": "paused",
      "outputs": [
        {
          "internalType": "bool",
          "name": "",
          "type": "bool"
        }
      ],
      "stateMutability": "view",
      "type": "function"
    },
    {
      "inputs": [
        {
          "internalType": "bytes",
          "name": "data",
          "type": "bytes"
        },
        {
          "internalType": "bytes",
          "name": "signature",
          "type": "bytes"
        }
      ],
      "name": "relay",
      "outputs": [
        {
          "internalType": "bytes",
          "name": "",
          "type": "bytes"
        }
      ],
      "stateMutability": "nonpayable",
      "type": "function"
    },
    {
      "inputs": [
        {
          "internalType": "address",
          "name": "account",
          "type": "address"
        }
      ],
      "name": "removeMinter",
      "outputs": [],
      "stateMutability": "nonpayable",
      "type": "function"
    },
    {
      "inputs": [
        {
          "internalType": "address[]",
          "name": "accounts",
          "type": "address[]"
        }
      ],
      "name": "removeMinters",
      "outputs": [],
      "stateMutability": "nonpayable",
      "type": "function"
    },
    {
      "inputs": [],
      "name": "renounceMinter",
      "outputs": [],
      "stateMutability": "nonpayable",
      "type": "function"
    },
    {
      "inputs": [],
      "name": "renounceOwnership",
      "outputs": [],
      "stateMutability": "nonpayable",
      "type": "function"
    },
    {
      "inputs": [
        {
          "internalType": "bytes32",
          "name": "role",
          "type": "bytes32"
        },
        {
          "internalType": "address",
          "name": "account",
          "type": "address"
        }
      ],
      "name": "renounceRole",
      "outputs": [],
      "stateMutability": "nonpayable",
      "type": "function"
    },
    {
      "inputs": [
        {
          "internalType": "bytes32",
          "name": "role",
          "type": "bytes32"
        },
        {
          "internalType": "address",
          "name": "account",
          "type": "address"
        }
      ],
      "name": "revokeRole",
      "outputs": [],
      "stateMutability": "nonpayable",
      "type": "function"
    },
    {
      "inputs": [
        {
          "internalType": "address payable",
          "name": "receiver",
          "type": "address"
        }
      ],
      "name": "rotateMinter",
      "outputs": [],
      "stateMutability": "payable",
      "type": "function"
    },
    {
      "inputs": [
        {
          "internalType": "address",
          "name": "to",
          "type": "address"
        },
        {
          "internalType": "uint256",
          "name": "tld",
          "type": "uint256"
        },
        {
          "internalType": "string",
          "name": "label",
          "type": "string"
        }
      ],
      "name": "safeMintSLD",
      "outputs": [],
      "stateMutability": "nonpayable",
      "type": "function"
    },
    {
      "inputs": [
        {
          "internalType": "address",
          "name": "to",
          "type": "address"
        },
        {
          "internalType": "uint256",
          "name": "tld",
          "type": "uint256"
        },
        {
          "internalType": "string",
          "name": "label",
          "type": "string"
        },
        {
          "internalType": "bytes",
          "name": "data",
          "type": "bytes"
        }
      ],
      "name": "safeMintSLD",
      "outputs": [],
      "stateMutability": "nonpayable",
      "type": "function"
    },
    {
      "inputs": [
        {
          "internalType": "address",
          "name": "to",
          "type": "address"
        },
        {
          "internalType": "uint256",
          "name": "tld",
          "type": "uint256"
        },
        {
          "internalType": "string",
          "name": "label",
          "type": "string"
        },
        {
          "internalType": "string[]",
          "name": "keys",
          "type": "string[]"
        },
        {
          "internalType": "string[]",
          "name": "values",
          "type": "string[]"
        }
      ],
      "name": "safeMintSLDWithRecords",
      "outputs": [],
      "stateMutability": "nonpayable",
      "type": "function"
    },
    {
      "inputs": [
        {
          "internalType": "address",
          "name": "to",
          "type": "address"
        },
        {
          "internalType": "uint256",
          "name": "tld",
          "type": "uint256"
        },
        {
          "internalType": "string",
          "name": "label",
          "type": "string"
        },
        {
          "internalType": "string[]",
          "name": "keys",
          "type": "string[]"
        },
        {
          "internalType": "string[]",
          "name": "values",
          "type": "string[]"
        },
        {
          "internalType": "bytes",
          "name": "data",
          "type": "bytes"
        }
      ],
      "name": "safeMintSLDWithRecords",
      "outputs": [],
      "stateMutability": "nonpayable",
      "type": "function"
    },
    {
      "inputs": [
        {
          "internalType": "address",
          "name": "forwarder",
          "type": "address"
        }
      ],
      "name": "setForwarder",
      "outputs": [],
      "stateMutability": "nonpayable",
      "type": "function"
    },
    {
      "inputs": [
        {
          "internalType": "address",
          "name": "resolver",
          "type": "address"
        }
      ],
      "name": "setResolver",
      "outputs": [],
      "stateMutability": "nonpayable",
      "type": "function"
    },
    {
      "inputs": [
        {
          "internalType": "string",
          "name": "prefix",
          "type": "string"
        }
      ],
      "name": "setTokenURIPrefix",
      "outputs": [],
      "stateMutability": "nonpayable",
      "type": "function"
    },
    {
      "inputs": [
        {
          "internalType": "bytes4",
          "name": "interfaceId",
          "type": "bytes4"
        }
      ],
      "name": "supportsInterface",
      "outputs": [
        {
          "internalType": "bool",
          "name": "",
          "type": "bool"
        }
      ],
      "stateMutability": "view",
      "type": "function"
    },
    {
      "inputs": [
        {
          "internalType": "address",
          "name": "newOwner",
          "type": "address"
        }
      ],
      "name": "transferOwnership",
      "outputs": [],
      "stateMutability": "nonpayable",
      "type": "function"
    },
    {
      "inputs": [],
      "name": "unpause",
      "outputs": [],
      "stateMutability": "nonpayable",
      "type": "function"
    },
    {
      "inputs": [],
      "name": "unsRegistry",
      "outputs": [
        {
          "internalType": "contract IUNSRegistry",
          "name": "",
          "type": "address"
        }
      ],
      "stateMutability": "view",
      "type": "function"
    }
  ],
  "bytecode": "0x608060405234801561001057600080fd5b50614652806100206000396000f3fe6080604052600436106102e45760003560e01c8063715018a611610190578063a849d65c116100dc578063cc2c3fc411610095578063d547741f1161006f578063d547741f1461084b578063e47d6cc61461086b578063f2fde38b1461088b578063ffa1ad74146108ab576102e4565b8063cc2c3fc414610801578063ceeb4f5014610816578063d539139314610836576102e4565b8063a849d65c1461074c578063aa271e1a14610761578063ae2ad90314610781578063b0aa98c7146107a1578063b9998a24146107c1578063c3a3bc00146107e1576102e4565b806390dbdb5a11610149578063986502751161012357806398650275146106ed57806399e0dd7c14610702578063a217fddf14610722578063a3f4df7e14610737576102e4565b806390dbdb5a1461069857806391d14854146106ad578063983b2d56146106cd576102e4565b8063715018a61461060657806371e2a6571461061b57806381c81d351461063b5780638456cb591461064e5780638da5cb5b14610663578063906cecc114610678576102e4565b80633f41b6141161024f578063572b6c05116102085780635c975abb116101e25780635c975abb1461059e5780635fc1964f146105b3578063634486da146105d35780636a2d2256146105e6576102e4565b8063572b6c051461054957806358839d6b146105695780635b6fa8db14610589576102e4565b80633f41b614146104855780633f4ba83a146104a7578063463c4bcb146104bc5780634c1819e0146104dc5780634e543b26146104fc578063564a51581461051c576102e4565b806327bbd225116102a157806327bbd225146103d05780632eff1a95146103f05780632f2ff15d146104055780633092afd51461042557806336568abe1461044557806339ccf4d014610465576102e4565b806301ffc9a7146102e95780630e36a87d1461031f57806310921f121461034c5780631459457a14610361578063248a9ca314610383578063268b15ed146103b0575b600080fd5b3480156102f557600080fd5b506103096103043660046138d0565b6108c0565b6040516103169190613f9a565b60405180910390f35b34801561032b57600080fd5b5061033f61033a36600461382a565b6108ed565b6040516103169190613f1a565b34801561035857600080fd5b506103096109c4565b34801561036d57600080fd5b5061038161037c366004613954565b6109e7565b005b34801561038f57600080fd5b506103a361039e366004613889565b610c4a565b6040516103169190613fa5565b3480156103bc57600080fd5b506103816103cb3660046139f7565b610c5f565b3480156103dc57600080fd5b506103816103eb366004613556565b610ce1565b3480156103fc57600080fd5b50610381610dc9565b34801561041157600080fd5b506103816104203660046138a1565b610e12565b34801561043157600080fd5b506103816104403660046134e1565b610e3b565b34801561045157600080fd5b506103816104603660046138a1565b610e86565b34801561047157600080fd5b50610381610480366004613556565b610ecc565b34801561049157600080fd5b5061049a610f9b565b6040516103169190613d05565b3480156104b357600080fd5b50610381610faa565b3480156104c857600080fd5b506103816104d7366004613889565b610ff1565b3480156104e857600080fd5b506103816104f73660046134fd565b611021565b34801561050857600080fd5b506103816105173660046134e1565b6110cc565b34801561052857600080fd5b5061053c6105373660046138f8565b61112d565b6040516103169190613fcc565b34801561055557600080fd5b506103096105643660046134e1565b6112f8565b34801561057557600080fd5b506103816105843660046136e2565b611339565b34801561059557600080fd5b5061049a61140d565b3480156105aa57600080fd5b5061030961141c565b3480156105bf57600080fd5b506103816105ce36600461376a565b611435565b6103816105e13660046134e1565b6114c2565b3480156105f257600080fd5b50610381610601366004613607565b611555565b34801561061257600080fd5b50610381611667565b34801561062757600080fd5b5061038161063636600461376a565b6116f0565b6103816106493660046134e1565b61177d565b34801561065a57600080fd5b506103816117ca565b34801561066f57600080fd5b5061049a611811565b34801561068457600080fd5b506103816106933660046134fd565b611820565b3480156106a457600080fd5b50610381611890565b3480156106b957600080fd5b506103096106c83660046138a1565b6118d7565b3480156106d957600080fd5b506103816106e83660046134e1565b611902565b3480156106f957600080fd5b5061038161194a565b34801561070e57600080fd5b5061038161071d3660046139c4565b611964565b34801561072e57600080fd5b506103a3611a7a565b34801561074357600080fd5b5061053c611a7f565b34801561075857600080fd5b5061049a611aaf565b34801561076d57600080fd5b5061030961077c3660046134e1565b611abe565b34801561078d57600080fd5b5061038161079c3660046134fd565b611ad8565b3480156107ad57600080fd5b506103096107bc366004613889565b611ba1565b3480156107cd57600080fd5b506103816107dc3660046134e1565b611c0f565b3480156107ed57600080fd5b506103816107fc3660046139c4565b611c57565b34801561080d57600080fd5b5061049a611cd5565b34801561082257600080fd5b50610381610831366004613556565b611ce4565b34801561084257600080fd5b506103a3611d5d565b34801561085757600080fd5b506103816108663660046138a1565b611d6f565b34801561087757600080fd5b5061038161088636600461382a565b611d8e565b34801561089757600080fd5b506103816108a63660046134e1565b611dbf565b3480156108b757600080fd5b5061053c611e12565b60006001600160e01b03198216637965db0b60e01b14806108e557506108e582611e33565b90505b919050565b6060816001600160401b0381111561091557634e487b7160e01b600052604160045260246000fd5b60405190808252806020026020018201604052801561093e578160200160208202803683370190505b50905060005b828110156109bd5761097b84848381811061096f57634e487b7160e01b600052603260045260246000fd5b90506020020135611ba1565b82828151811061099b57634e487b7160e01b600052603260045260246000fd5b91151560209283029190910190910152806109b581614589565b915050610944565b5092915050565b60006109dd6000805160206146068339815191526109e4565b5460ff1690505b90565b600054610100900460ff1680610a00575060005460ff16155b610a255760405162461bcd60e51b8152600401610a1c90614298565b60405180910390fd5b600054610100900460ff16158015610a50576000805460ff1961ff0019909116610100171660011790555b60c980546001600160a01b038089166001600160a01b03199283161790925560ca805488841690831617905560cb805487841690831617905560cc805492861692909116919091179055610aa2611e4c565b610aaa611f18565b610ab382611f9e565b610abb61201c565b610ac36120b8565b610acc30612131565b6040805161016081018252600661012082018181526563727970746f60d01b610140840152825282518084018452908152651dd85b1b195d60d21b6020828101919091528083019190915282518084018452600481526331b7b4b760e11b81830152828401528251808401845260018152600f60fb1b818301526060830152825180840184526003808252621b999d60ea1b82840152608084019190915283518085018552600a815269313637b1b5b1b430b4b760b11b8184015260a08401528351808501855260078152663134ba31b7b4b760c91b8184015260c0840152835180850185528181526207070760eb1b8184015260e0840152835180850190945283526264616f60e81b9083015261010081019190915260005b6009811015610c2e57610c1c828260098110610c1257634e487b7160e01b600052603260045260246000fd5b6020020151612149565b80610c2681614589565b915050610be6565b50508015610c42576000805461ff00191690555b505050505050565b60009081526097602052604090206001015490565b600083815260cd60205260408120805485929190610c7c9061454e565b905011610c9b5760405162461bcd60e51b8152600401610a1c90614437565b610ca361141c565b15610cc05760405162461bcd60e51b8152600401610a1c906143d6565b610cdb610ccb6122b0565b85610cd686866122bf565b6122eb565b50505050565b610cec61077c6122b0565b610d085760405162461bcd60e51b8152600401610a1c906142e6565b600087815260cd60205260408120805489929190610d259061454e565b905011610d445760405162461bcd60e51b8152600401610a1c90614437565b610d4c61141c565b15610d695760405162461bcd60e51b8152600401610a1c906143d6565b610dbe898989898080601f016020809104026020016040519081016040528093929190818152602001838380828437600092018290525060408051602081019091529081528c93508b92508a915089906123f1565b505050505050505050565b610dd16122b0565b6001600160a01b0316610de2611811565b6001600160a01b031614610e085760405162461bcd60e51b8152600401610a1c906143a1565b610e1061257b565b565b610e1b82610c4a565b610e2c81610e276122b0565b612608565b610e36838361266c565b505050565b610e436122b0565b6001600160a01b0316610e54611811565b6001600160a01b031614610e7a5760405162461bcd60e51b8152600401610a1c906143a1565b610e83816126f3565b50565b610e8e6122b0565b6001600160a01b0316816001600160a01b031614610ebe5760405162461bcd60e51b8152600401610a1c90614479565b610ec8828261270b565b5050565b610ed761077c6122b0565b610ef35760405162461bcd60e51b8152600401610a1c906142e6565b600087815260cd60205260408120805489929190610f109061454e565b905011610f2f5760405162461bcd60e51b8152600401610a1c90614437565b610f3761141c565b15610f545760405162461bcd60e51b8152600401610a1c906143d6565b610dbe898989898080601f0160208091040260200160405190810160405280939291908181526020018383808284376000920191909152508b92508a915089905088612790565b60c9546001600160a01b031681565b610fb26122b0565b6001600160a01b0316610fc3611811565b6001600160a01b031614610fe95760405162461bcd60e51b8152600401610a1c906143a1565b610e10612915565b610ffc61077c6122b0565b6110185760405162461bcd60e51b8152600401610a1c906142e6565b610e838161298a565b61102c61077c6122b0565b6110485760405162461bcd60e51b8152600401610a1c906142e6565b600083815260cd602052604081208054859291906110659061454e565b9050116110845760405162461bcd60e51b8152600401610a1c90614437565b61108c61141c565b156110a95760405162461bcd60e51b8152600401610a1c906143d6565b6110c58585858560405180602001604052806000815250612a34565b5050505050565b6110d46122b0565b6001600160a01b03166110e5611811565b6001600160a01b03161461110b5760405162461bcd60e51b8152600401610a1c906143a1565b60cc80546001600160a01b0319166001600160a01b0392909216919091179055565b606060008585604051611141929190613b4e565b6040518091039020905060006111be85858080601f016020809104026020016040519081016040528093929190818152602001838380828437600092019190915250506040516111b8925061119d915086903090602001613b20565b60405160208183030381529060405280519060200120612bb4565b90612be4565b905060008088888080601f01602080910402602001604051908101604052809392919081815260200183838082843760009201919091525050505060208101519250905061120b83612c6a565b611216828a8a612c98565b600080306001600160a01b03168b8b604051611233929190613b4e565b6000604051808303816000865af19150503d8060008114611270576040519150601f19603f3d011682016040523d82523d6000602084013e611275565b606091505b5090925090508161128d576040513d806000833e8082fd5b6001600160e01b031984166001600160a01b0386166112aa6122b0565b6001600160a01b03167f9490f91465d0d2c12728b9ad47d5f1dd2ac3ef39394796e54a48b94db0b33725896040516112e29190613fa5565b60405180910390a49a9950505050505050505050565b60006113237f893ef2ea16c023f61d4f55d3e6ee3fc3f2fbfd478461323dbc2fbf919047086e6109e4565b546001600160a01b038381169116149050919050565b61134461077c6122b0565b6113605760405162461bcd60e51b8152600401610a1c906142e6565b600085815260cd6020526040812080548792919061137d9061454e565b90501161139c5760405162461bcd60e51b8152600401610a1c90614437565b6113a461141c565b156113c15760405162461bcd60e51b8152600401610a1c906143d6565b6114048787878787878080601f016020809104026020016040519081016040528093929190818152602001838380828437600092019190915250612a3492505050565b50505050505050565b60cc546001600160a01b031681565b60006109dd6000805160206145e68339815191526109e4565b61143d6122b0565b6001600160a01b031661144e611811565b6001600160a01b0316146114745760405162461bcd60e51b8152600401610a1c906143a1565b60005b8151811015610ec8576114b08282815181106114a357634e487b7160e01b600052603260045260246000fd5b60200260200101516126f3565b806114ba81614589565b915050611477565b6114cd61077c6122b0565b6114e95760405162461bcd60e51b8152600401610a1c906142e6565b6001600160a01b03811661150f5760405162461bcd60e51b8152600401610a1c906141ba565b61151881612131565b61152061194a565b6040516001600160a01b038216903480156108fc02916000818181858888f19350505050158015610ec8573d6000803e3d6000fd5b61156061077c6122b0565b61157c5760405162461bcd60e51b8152600401610a1c906142e6565b600089815260cd6020526040812080548b9291906115999061454e565b9050116115b85760405162461bcd60e51b8152600401610a1c90614437565b6115c061141c565b156115dd5760405162461bcd60e51b8152600401610a1c906143d6565b61165a8b8b8b8b8080601f01602080910402602001604051908101604052809392919081815260200183838082843760009201919091525050604080516020601f8b018190048102820181019092528981528e93508d92508c918c91908c908c90819084018382808284376000920191909152506123f192505050565b5050505050505050505050565b61166f6122b0565b6001600160a01b0316611680611811565b6001600160a01b0316146116a65760405162461bcd60e51b8152600401610a1c906143a1565b6033546040516000916001600160a01b0316907f8be0079c531659141344cd1fd0a4f28419497f9722a3daafe3b4186f6b6457e0908390a3603380546001600160a01b0319169055565b6116f86122b0565b6001600160a01b0316611709611811565b6001600160a01b03161461172f5760405162461bcd60e51b8152600401610a1c906143a1565b60005b8151811015610ec85761176b82828151811061175e57634e487b7160e01b600052603260045260246000fd5b6020026020010151612131565b8061177581614589565b915050611732565b61178861077c6122b0565b6117a45760405162461bcd60e51b8152600401610a1c906142e6565b6001600160a01b0381166115185760405162461bcd60e51b8152600401610a1c906141ba565b6117d26122b0565b6001600160a01b03166117e3611811565b6001600160a01b0316146118095760405162461bcd60e51b8152600401610a1c906143a1565b610e10612d54565b6033546001600160a01b031690565b600083815260cd6020526040812080548592919061183d9061454e565b90501161185c5760405162461bcd60e51b8152600401610a1c90614437565b61186461141c565b156118815760405162461bcd60e51b8152600401610a1c906143d6565b6110c58585610cd686866122bf565b6118986122b0565b6001600160a01b03166118a9611811565b6001600160a01b0316146118cf5760405162461bcd60e51b8152600401610a1c906143a1565b610e10612dca565b60009182526097602090815260408084206001600160a01b0393909316845291905290205460ff1690565b61190a6122b0565b6001600160a01b031661191b611811565b6001600160a01b0316146119415760405162461bcd60e51b8152600401610a1c906143a1565b610e8381612131565b610e106000805160206146268339815191526104606122b0565b61196c6122b0565b6001600160a01b031661197d611811565b6001600160a01b0316146119a35760405162461bcd60e51b8152600401610a1c906143a1565b60c954604051632678375f60e21b81526001600160a01b03909116906399e0dd7c906119d59085908590600401613fdf565b600060405180830381600087803b1580156119ef57600080fd5b505af1158015611a03573d6000803e3d6000fd5b505060cb546001600160a01b0316159150610ec890505760cb54604051632678375f60e21b81526001600160a01b03909116906399e0dd7c90611a4c9085908590600401613fdf565b600060405180830381600087803b158015611a6657600080fd5b505af1158015610c42573d6000803e3d6000fd5b600081565b604051806040016040528060148152602001732aa7299d1026b4b73a34b7339026b0b730b3b2b960611b81525081565b60cb546001600160a01b031681565b60006108e5600080516020614626833981519152836118d7565b611ae361077c6122b0565b611aff5760405162461bcd60e51b8152600401610a1c906142e6565b600083815260cd60205260408120805485929190611b1c9061454e565b905011611b3b5760405162461bcd60e51b8152600401610a1c90614437565b611b4361141c565b15611b605760405162461bcd60e51b8152600401610a1c906143d6565b6110c5858585858080601f0160208091040260200160405190810160405280939291908181526020018383808284376000920191909152506122eb92505050565b6000611bab6109c4565b1580156108e55750604051611c0590611bea907f1ec047073e2c8b15660901dbfdb6e3ff6365bd699dd9f95dcc6eab5448bebd69908590602001613b40565b604051602081830303815290604052805190602001206109e4565b5460ff1692915050565b611c176122b0565b6001600160a01b0316611c28611811565b6001600160a01b031614611c4e5760405162461bcd60e51b8152600401610a1c906143a1565b610e8381612e3f565b611c5f6122b0565b6001600160a01b0316611c70611811565b6001600160a01b031614611c965760405162461bcd60e51b8152600401610a1c906143a1565b610ec882828080601f01602080910402602001604051908101604052809392919081815260200183838082843760009201919091525061214992505050565b60ca546001600160a01b031681565b600087815260cd60205260408120805489929190611d019061454e565b905011611d205760405162461bcd60e51b8152600401610a1c90614437565b611d2861141c565b15611d455760405162461bcd60e51b8152600401610a1c906143d6565b610dbe8989611d548a8a6122bf565b88888888612790565b60008051602061462683398151915281565b611d7882610c4a565b611d8481610e276122b0565b610e36838361270b565b611d9961077c6122b0565b611db55760405162461bcd60e51b8152600401610a1c906142e6565b610ec88282612e8a565b611dc76122b0565b6001600160a01b0316611dd8611811565b6001600160a01b031614611dfe5760405162461bcd60e51b8152600401610a1c906143a1565b611e0781612ed6565b610e83600082612f97565b604051806040016040528060058152602001640302e322e360dc1b81525081565b6001600160e01b031981166301ffc9a760e01b14919050565b600054610100900460ff1680611e65575060005460ff16155b611e815760405162461bcd60e51b8152600401610a1c90614298565b600054610100900460ff16158015611eac576000805460ff1961ff0019909116610100171660011790555b6000611eb66122b0565b603380546001600160a01b0319166001600160a01b038316908117909155604051919250906000907f8be0079c531659141344cd1fd0a4f28419497f9722a3daafe3b4186f6b6457e0908290a3508015610e83576000805461ff001916905550565b600054610100900460ff1680611f31575060005460ff16155b611f4d5760405162461bcd60e51b8152600401610a1c90614298565b600054610100900460ff16158015611f78576000805460ff1961ff0019909116610100171660011790555b611f8a6000611f856122b0565b612f97565b8015610e83576000805461ff001916905550565b600054610100900460ff1680611fb7575060005460ff16155b611fd35760405162461bcd60e51b8152600401610a1c90614298565b600054610100900460ff16158015611ffe576000805460ff1961ff0019909116610100171660011790555b61200782612e3f565b8015610ec8576000805461ff00191690555050565b600054610100900460ff1680612035575060005460ff16155b6120515760405162461bcd60e51b8152600401610a1c90614298565b600054610100900460ff1615801561207c576000805460ff1961ff0019909116610100171660011790555b60006120956000805160206146068339815191526109e4565b805460ff19169115159190911790558015610e83576000805461ff001916905550565b600054610100900460ff16806120d1575060005460ff16155b6120ed5760405162461bcd60e51b8152600401610a1c90614298565b600054610100900460ff16158015612118576000805460ff1961ff0019909116610100171660011790555b60006120956000805160206145e68339815191526109e4565b610e8360008051602061462683398151915282612f97565b6000808260405160200161215d9190613b5e565b60405160208183030381529060405280519060200120604051602001612184929190613b40565b60408051601f198184030181529181528151602092830120600081815260cd84529190912084519193506121bd929091908501906133b6565b50807f4fce6f6e172b04eaa80325d8e3b0180a34945000f3e214605039e8420fdf8980836040516121ee9190613fcc565b60405180910390a260c954604051634f558e7960e01b81526001600160a01b0390911690634f558e7990612226908490600401613fa5565b60206040518083038186803b15801561223e57600080fd5b505afa158015612252573d6000803e3d6000fd5b505050506040513d601f19601f820116820180604052508101906122769190613869565b610ec85760c9546040516334ff261960e21b81526001600160a01b039091169063d3fc986490611a4c9061dead9085908790600401613de0565b60006122ba612fa1565b905090565b606082826040516020016122d4929190613c6a565b604051602081830303815290604052905092915050565b60006122f78383612fcf565b90506123028161304b565b61230b8361307d565b1561237e5760ca5460cc5460405163c36c212560e01b81526001600160a01b039283169263c36c21259261234792899288921690600401613d63565b600060405180830381600087803b15801561236157600080fd5b505af1158015612375573d6000803e3d6000fd5b50505050610cdb565b60c9546001600160a01b031663d3fc9864858361239b87876130bb565b6040518463ffffffff1660e01b81526004016123b993929190613de0565b600060405180830381600087803b1580156123d357600080fd5b505af11580156123e7573d6000803e3d6000fd5b5050505050505050565b60006123fd8888612fcf565b90506124088161304b565b6124118861307d565b156124f95760ca5460cc54604051630f95e75b60e31b81526001600160a01b0392831692637caf3ad89261244f928e928d9216908890600401613d98565b600060405180830381600087803b15801561246957600080fd5b505af115801561247d573d6000803e3d6000fd5b5050861591506124f490505760cc54604051633a0deb9d60e21b81526001600160a01b039091169063e837ae74906124c19089908990899089908890600401613f60565b600060405180830381600087803b1580156124db57600080fd5b505af11580156124ef573d6000803e3d6000fd5b505050505b610dbe565b60c9546001600160a01b031663efda4d3e8a836125168c8c6130bb565b8a8a8a8a8a6040518963ffffffff1660e01b815260040161253e989796959493929190613e64565b600060405180830381600087803b15801561255857600080fd5b505af115801561256c573d6000803e3d6000fd5b50505050505050505050505050565b6125836109c4565b156125a05760405162461bcd60e51b8152600401610a1c90614032565b60016125b96000805160206146068339815191526109e4565b805460ff19169115159190911790557f079c4efaefd9fc7ddb28144b9b0140c03f42922d28d0e226369d6070921581666125f16122b0565b6040516125fe9190613d05565b60405180910390a1565b61261282826118d7565b610ec85761262a816001600160a01b031660146130de565b6126358360206130de565b604051602001612646929190613c90565b60408051601f198184030181529082905262461bcd60e51b8252610a1c91600401613fcc565b61267682826118d7565b610ec85760008281526097602090815260408083206001600160a01b03851684529091529020805460ff191660011790556126af6122b0565b6001600160a01b0316816001600160a01b0316837f2f8788117e7eff1d82e926ec794901d17c78024a50270940304540a733656f0d60405160405180910390a45050565b610e8360008051602061462683398151915282611d6f565b61271582826118d7565b15610ec85760008281526097602090815260408083206001600160a01b03851684529091529020805460ff1916905561274c6122b0565b6001600160a01b0316816001600160a01b0316837ff6391f5c32d9c69d2a47ea670b442974b53935d1edc7fd64eb21e047a839171b60405160405180910390a45050565b600061279c8787612fcf565b90506127a78161304b565b6127b08761307d565b156128965760ca5460cc5460405163c36c212560e01b81526001600160a01b039283169263c36c2125926127ec928d928c921690600401613d63565b600060405180830381600087803b15801561280657600080fd5b505af115801561281a573d6000803e3d6000fd5b50508515915061289190505760cc54604051633a0deb9d60e21b81526001600160a01b039091169063e837ae749061285e9088908890889088908890600401613f60565b600060405180830381600087803b15801561287857600080fd5b505af115801561288c573d6000803e3d6000fd5b505050505b6123e7565b60c9546001600160a01b031663b0f5917789836128b38b8b6130bb565b898989896040518863ffffffff1660e01b81526004016128d99796959493929190613e07565b600060405180830381600087803b1580156128f357600080fd5b505af1158015612907573d6000803e3d6000fd5b505050505050505050505050565b61291d61141c565b6129395760405162461bcd60e51b8152600401610a1c906141f1565b60006129526000805160206145e68339815191526109e4565b805460ff19169115159190911790557f5db9ee0a495bf2e6ff9c91a7834c1ba4fdd244a5e8aa4e537bd38aeae4b073aa6125f16122b0565b6129926109c4565b156129af5760405162461bcd60e51b8152600401610a1c90614032565b60016129ea7f1ec047073e2c8b15660901dbfdb6e3ff6365bd699dd9f95dcc6eab5448bebd6960001b83604051602001611bea929190613b40565b805460ff19169115159190911790556040517f2ce5d9351b1d590d5a066db0d2dc7602d55f092506a83a7ee8c4d78ee357d75a90612a29908390613fa5565b60405180910390a150565b6000612a768585858080601f016020809104026020016040519081016040528093929190818152602001838380828437600092019190915250612fcf92505050565b9050612a818161304b565b612a8a8561307d565b15612b025760ca5460cc54604051630f95e75b60e31b81526001600160a01b0392831692637caf3ad892612acb928b928a928a929116908990600401613d19565b600060405180830381600087803b158015612ae557600080fd5b505af1158015612af9573d6000803e3d6000fd5b50505050610c42565b60c954604080516020601f87018190048102820181019092528581526001600160a01b039092169163b55bc6179189918591612b5a918b918b908b90819084018382808284376000920191909152506130bb92505050565b866040518563ffffffff1660e01b8152600401612b7a9493929190613ed6565b600060405180830381600087803b158015612b9457600080fd5b505af1158015612ba8573d6000803e3d6000fd5b50505050505050505050565b600081604051602001612bc79190613c39565b604051602081830303815290604052805190602001209050919050565b600080600080845160411415612c0e5750505060208201516040830151606084015160001a612c54565b845160401415612c3c5750505060408201516020830151906001600160ff1b0381169060ff1c601b01612c54565b60405162461bcd60e51b8152600401610a1c906140da565b612c6086828585613296565b9695505050505050565b612c738161338c565b612c7c81611abe565b610e835760405162461bcd60e51b8152600401610a1c9061435d565b60006001600160e01b0319841663ae2ad90360e01b1480612cc957506001600160e01b03198416630260c0cf60e51b145b80612ce457506001600160e01b031984166358839d6b60e01b145b80612cff57506001600160e01b0319841663039ccf4d60e41b145b80612d1a57506001600160e01b031984166327bbd22560e01b145b80612d3557506001600160e01b03198416633516912b60e11b145b905080610cdb5760405162461bcd60e51b8152600401610a1c90614094565b612d5c61141c565b15612d795760405162461bcd60e51b8152600401610a1c906143d6565b6001612d926000805160206145e68339815191526109e4565b805460ff19169115159190911790557f62e78cea01bee320cd4e420270b5ea74000d11b0c9f74754ebdbfc544b05a2586125f16122b0565b612dd26109c4565b612dee5760405162461bcd60e51b8152600401610a1c90614111565b6000612e076000805160206146068339815191526109e4565b805460ff19169115159190911790557f316c4cec74b9568f102eda30781a2fe8cd5172329bf1401e804cb8c5131715c46125f16122b0565b80612e697f893ef2ea16c023f61d4f55d3e6ee3fc3f2fbfd478461323dbc2fbf919047086e6109e4565b80546001600160a01b0319166001600160a01b039290921691909117905550565b60005b81811015610e3657612ec4838383818110612eb857634e487b7160e01b600052603260045260246000fd5b9050602002013561298a565b80612ece81614589565b915050612e8d565b612ede6122b0565b6001600160a01b0316612eef611811565b6001600160a01b031614612f155760405162461bcd60e51b8152600401610a1c906143a1565b6001600160a01b038116612f3b5760405162461bcd60e51b8152600401610a1c9061413d565b6033546040516001600160a01b038084169216907f8be0079c531659141344cd1fd0a4f28419497f9722a3daafe3b4186f6b6457e090600090a3603380546001600160a01b0319166001600160a01b0392909216919091179055565b610ec8828261266c565b6000612fac336112f8565b15612fc0575060331936013560601c6109e4565b612fc86133b2565b90506109e4565b6000815160001415612ff35760405162461bcd60e51b8152600401610a1c90614400565b82826040516020016130059190613b5e565b6040516020818303038152906040528051906020012060405160200161302c929190613b40565b60408051601f1981840301815291905280516020909101209392505050565b6130536109c4565b610e835761306081611ba1565b156110185760405162461bcd60e51b8152600401610a1c90614261565b60ca546000906001600160a01b0316158015906108e55750507f0f4a10a4f46c288cea365fcf45cccf0e9d901b945b9829ccdb54c10dc3cb7a6f1490565b600082815260cd602090815260409182902091516060926122d492859201613b7a565b606060006130ed8360026144ec565b6130f89060026144d4565b6001600160401b0381111561311d57634e487b7160e01b600052604160045260246000fd5b6040519080825280601f01601f191660200182016040528015613147576020820181803683370190505b509050600360fc1b8160008151811061317057634e487b7160e01b600052603260045260246000fd5b60200101906001600160f81b031916908160001a905350600f60fb1b816001815181106131ad57634e487b7160e01b600052603260045260246000fd5b60200101906001600160f81b031916908160001a90535060006131d18460026144ec565b6131dc9060016144d4565b90505b6001811115613270576f181899199a1a9b1b9c1cb0b131b232b360811b85600f166010811061321e57634e487b7160e01b600052603260045260246000fd5b1a60f81b82828151811061324257634e487b7160e01b600052603260045260246000fd5b60200101906001600160f81b031916908160001a90535060049490941c9361326981614537565b90506131df565b50831561328f5760405162461bcd60e51b8152600401610a1c9061405f565b9392505050565b60007f7fffffffffffffffffffffffffffffff5d576e7357a4501ddfe92f46681b20a08211156132d85760405162461bcd60e51b8152600401610a1c9061421f565b8360ff16601b14806132ed57508360ff16601c145b6133095760405162461bcd60e51b8152600401610a1c9061431b565b60006001868686866040516000815260200160405260405161332e9493929190613fae565b6020604051602081039080840390855afa158015613350573d6000803e3d6000fd5b5050604051601f1901519150506001600160a01b0381166133835760405162461bcd60e51b8152600401610a1c90613ffb565b95945050505050565b6001600160a01b038116610e835760405162461bcd60e51b8152600401610a1c90614183565b3390565b8280546133c29061454e565b90600052602060002090601f0160209004810192826133e4576000855561342a565b82601f106133fd57805160ff191683800117855561342a565b8280016001018555821561342a579182015b8281111561342a57825182559160200191906001019061340f565b5061343692915061343a565b5090565b5b80821115613436576000815560010161343b565b80356108e8816145d0565b60008083601f84011261346b578182fd5b5081356001600160401b03811115613481578182fd5b602083019150836020808302850101111561349b57600080fd5b9250929050565b60008083601f8401126134b3578182fd5b5081356001600160401b038111156134c9578182fd5b60208301915083602082850101111561349b57600080fd5b6000602082840312156134f2578081fd5b813561328f816145d0565b60008060008060608587031215613512578283fd5b843561351d816145d0565b93506020850135925060408501356001600160401b0381111561353e578283fd5b61354a878288016134a2565b95989497509550505050565b60008060008060008060008060a0898b031215613571578384fd5b883561357c816145d0565b97506020890135965060408901356001600160401b038082111561359e578586fd5b6135aa8c838d016134a2565b909850965060608b01359150808211156135c2578586fd5b6135ce8c838d0161345a565b909650945060808b01359150808211156135e6578384fd5b506135f38b828c0161345a565b999c989b5096995094979396929594505050565b60008060008060008060008060008060c08b8d031215613625578182fd5b61362e8b61344f565b995060208b0135985060408b01356001600160401b0380821115613650578384fd5b61365c8e838f016134a2565b909a50985060608d0135915080821115613674578384fd5b6136808e838f0161345a565b909850965060808d0135915080821115613698578384fd5b6136a48e838f0161345a565b909650945060a08d01359150808211156136bc578384fd5b506136c98d828e016134a2565b915080935050809150509295989b9194979a5092959850565b600080600080600080608087890312156136fa578182fd5b8635613705816145d0565b95506020870135945060408701356001600160401b0380821115613727578384fd5b6137338a838b016134a2565b9096509450606089013591508082111561374b578384fd5b5061375889828a016134a2565b979a9699509497509295939492505050565b6000602080838503121561377c578182fd5b82356001600160401b0380821115613792578384fd5b818501915085601f8301126137a5578384fd5b8135818111156137b7576137b76145ba565b838102604051858282010181811085821117156137d6576137d66145ba565b604052828152858101935084860182860187018a10156137f4578788fd5b8795505b8386101561381d576138098161344f565b8552600195909501949386019386016137f8565b5098975050505050505050565b6000806020838503121561383c578182fd5b82356001600160401b03811115613851578283fd5b61385d8582860161345a565b90969095509350505050565b60006020828403121561387a578081fd5b8151801515811461328f578182fd5b60006020828403121561389a578081fd5b5035919050565b600080604083850312156138b3578182fd5b8235915060208301356138c5816145d0565b809150509250929050565b6000602082840312156138e1578081fd5b81356001600160e01b03198116811461328f578182fd5b6000806000806040858703121561390d578182fd5b84356001600160401b0380821115613923578384fd5b61392f888389016134a2565b90965094506020870135915080821115613947578384fd5b5061354a878288016134a2565b600080600080600060a0868803121561396b578283fd5b8535613976816145d0565b94506020860135613986816145d0565b93506040860135613996816145d0565b925060608601356139a6816145d0565b915060808601356139b6816145d0565b809150509295509295909350565b600080602083850312156139d6578182fd5b82356001600160401b038111156139eb578283fd5b61385d858286016134a2565b600080600060408486031215613a0b578081fd5b8335925060208401356001600160401b03811115613a27578182fd5b613a33868287016134a2565b9497909650939450505050565b818352602080840193600091908185020181018584845b87811015613abd5782840389528135601e19883603018112613a77578687fd5b870180356001600160401b03811115613a8e578788fd5b803603891315613a9c578788fd5b613aa98682898501613af6565b9a87019a9550505090840190600101613a57565b5091979650505050505050565b60008151808452613ae281602086016020860161450b565b601f01601f19169290920160200192915050565b60008284528282602086013780602084860101526020601f19601f85011685010190509392505050565b91825260601b6bffffffffffffffffffffffff1916602082015260340190565b918252602082015260400190565b6000828483379101908152919050565b60008251613b7081846020870161450b565b9190910192915050565b600083516020613b8d828583890161450b565b601760f91b918401918252845460019084906002810481841680613bb257607f821691505b858210811415613bd057634e487b7160e01b88526022600452602488fd5b808015613be45760018114613bf957613c29565b60ff1984168887015282880186019450613c29565b613c028b6144c8565b895b84811015613c1f5781548a8201890152908701908801613c04565b5050858389010194505b50929a9950505050505050505050565b7f19457468657265756d205369676e6564204d6573736167653a0a3332000000008152601c810191909152603c0190565b6000697564746573746465762d60b01b82528284600a8401379101600a01908152919050565b60007f416363657373436f6e74726f6c3a206163636f756e742000000000000000000082528351613cc881601785016020880161450b565b7001034b99036b4b9b9b4b733903937b6329607d1b6017918401918201528351613cf981602884016020880161450b565b01602801949350505050565b6001600160a01b0391909116815260200190565b600060018060a01b03808816835260806020840152613d3c608084018789613af6565b81861660408501528381036060850152613d568186613aca565b9998505050505050505050565b600060018060a01b03808616835260606020840152613d856060840186613aca565b9150808416604084015250949350505050565b600060018060a01b03808716835260806020840152613dba6080840187613aca565b81861660408501528381036060850152613dd48186613aca565b98975050505050505050565b600060018060a01b0385168252836020830152606060408301526133836060830184613aca565b600060018060a01b038916825287602083015260a06040830152613e2e60a0830188613aca565b8281036060840152613e41818789613a40565b90508281036080840152613e56818587613a40565b9a9950505050505050505050565b600060018060a01b038a16825288602083015260c06040830152613e8b60c0830189613aca565b8281036060840152613e9e81888a613a40565b90508281036080840152613eb3818688613a40565b905082810360a0840152613ec78185613aca565b9b9a5050505050505050505050565b600060018060a01b038616825284602083015260806040830152613efd6080830185613aca565b8281036060840152613f0f8185613aca565b979650505050505050565b6020808252825182820181905260009190848201906040850190845b81811015613f54578351151583529284019291840191600101613f36565b50909695505050505050565b600060608252613f74606083018789613a40565b8281036020840152613f87818688613a40565b9150508260408301529695505050505050565b901515815260200190565b90815260200190565b93845260ff9290921660208401526040830152606082015260800190565b60006020825261328f6020830184613aca565b600060208252613ff3602083018486613af6565b949350505050565b60208082526018908201527f45434453413a20696e76616c6964207369676e61747572650000000000000000604082015260600190565b602080825260139082015272109b1bd8dadb1a5cdd0e88111254d050931151606a1b604082015260600190565b6020808252818101527f537472696e67733a20686578206c656e67746820696e73756666696369656e74604082015260600190565b60208082526026908201527f4d696e74696e674d616e616765723a20554e535550504f525445445f52454c416040820152651657d0d0531360d21b606082015260800190565b6020808252601f908201527f45434453413a20696e76616c6964207369676e6174757265206c656e67746800604082015260600190565b602080825260129082015271109b1bd8dadb1a5cdd0e881153905093115160721b604082015260600190565b60208082526026908201527f4f776e61626c653a206e6577206f776e657220697320746865207a65726f206160408201526564647265737360d01b606082015260800190565b6020808252601d908201527f52656c617965723a205349474e41545552455f49535f494e56414c4944000000604082015260600190565b6020808252601d908201527f4d696e746572526f6c653a2052454345495645525f49535f454d505459000000604082015260600190565b60208082526014908201527314185d5cd8589b194e881393d517d4105554d15160621b604082015260600190565b60208082526022908201527f45434453413a20696e76616c6964207369676e6174757265202773272076616c604082015261756560f01b606082015260800190565b6020808252601d908201527f4d696e74696e674d616e616765723a20544f4b454e5f424c4f434b4544000000604082015260600190565b6020808252602e908201527f496e697469616c697a61626c653a20636f6e747261637420697320616c72656160408201526d191e481a5b9a5d1a585b1a5e995960921b606082015260800190565b6020808252818101527f4d696e746572526f6c653a2043414c4c45525f49535f4e4f545f4d494e544552604082015260600190565b60208082526022908201527f45434453413a20696e76616c6964207369676e6174757265202776272076616c604082015261756560f01b606082015260800190565b60208082526024908201527f4d696e74696e674d616e616765723a205349474e45525f49535f4e4f545f4d49604082015263272a22a960e11b606082015260800190565b6020808252818101527f4f776e61626c653a2063616c6c6572206973206e6f7420746865206f776e6572604082015260600190565b60208082526010908201526f14185d5cd8589b194e8814105554d15160821b604082015260600190565b6020808252601b908201527f4d696e74696e674d616e616765723a204c4142454c5f454d5054590000000000604082015260600190565b60208082526022908201527f4d696e74696e674d616e616765723a20544c445f4e4f545f5245474953544552604082015261115160f21b606082015260800190565b6020808252602f908201527f416363657373436f6e74726f6c3a2063616e206f6e6c792072656e6f756e636560408201526e103937b632b9903337b91039b2b63360891b606082015260800190565b60009081526020902090565b600082198211156144e7576144e76145a4565b500190565b6000816000190483118215151615614506576145066145a4565b500290565b60005b8381101561452657818101518382015260200161450e565b83811115610cdb5750506000910152565b600081614546576145466145a4565b506000190190565b60028104600182168061456257607f821691505b6020821081141561458357634e487b7160e01b600052602260045260246000fd5b50919050565b600060001982141561459d5761459d6145a4565b5060010190565b634e487b7160e01b600052601160045260246000fd5b634e487b7160e01b600052604160045260246000fd5b6001600160a01b0381168114610e8357600080fdfe5496787fc1ebdfeba375028c1865f13fbb1d63c0caa356ccc1b29a80f3ebd622a85b8425a460dd344a297bd4a82e287385f0fc558cb3e78867b0489f43df24709f2df0fed2c77648de5860a4cc508cd0818c85b8b8a1ab4ceeef8d981c8956a6a164736f6c6343000800000a",
  "linkReferences": {},
  "deployedLinkReferences": {}
}