{
  "_format": "hh-sol-artifact-1",
  "contractName": "MinterRoleMock",
  "sourceName": "contracts/mocks/MinterRoleMock.sol",
  "abi": [
    {
      "anonymous": false,
      "inputs": [
        {
          "indexed": true,
          "internalType": "address",
          "name": "previousOwner",
          "type": "address"
        },
        {
          "indexed": true,
          "internalType": "address",
          "name": "newOwner",
          "type": "address"
        }
      ],
      "name": "OwnershipTransferred",
      "type": "event"
    },
    {
      "anonymous": false,
      "inputs": [
        {
          "indexed": true,
          "internalType": "bytes32",
          "name": "role",
          "type": "bytes32"
        },
        {
          "indexed": true,
          "internalType": "bytes32",
          "name": "previousAdminRole",
          "type": "bytes32"
        },
        {
          "indexed": true,
          "internalType": "bytes32",
          "name": "newAdminRole",
          "type": "bytes32"
        }
      ],
      "name": "RoleAdminChanged",
      "type": "event"
    },
    {
      "anonymous": false,
      "inputs": [
        {
          "indexed": true,
          "internalType": "bytes32",
          "name": "role",
          "type": "bytes32"
        },
        {
          "indexed": true,
          "internalType": "address",
          "name": "account",
          "type": "address"
        },
        {
          "indexed": true,
          "internalType": "address",
          "name": "sender",
          "type": "address"
        }
      ],
      "name": "RoleGranted",
      "type": "event"
    },
    {
      "anonymous": false,
      "inputs": [
        {
          "indexed": true,
          "internalType": "bytes32",
          "name": "role",
          "type": "bytes32"
        },
        {
          "indexed": true,
          "internalType": "address",
          "name": "account",
          "type": "address"
        },
        {
          "indexed": true,
          "internalType": "address",
          "name": "sender",
          "type": "address"
        }
      ],
      "name": "RoleRevoked",
      "type": "event"
    },
    {
      "inputs": [],
      "name": "DEFAULT_ADMIN_ROLE",
      "outputs": [
        {
          "internalType": "bytes32",
          "name": "",
          "type": "bytes32"
        }
      ],
      "stateMutability": "view",
      "type": "function"
    },
    {
      "inputs": [],
      "name": "MINTER_ROLE",
      "outputs": [
        {
          "internalType": "bytes32",
          "name": "",
          "type": "bytes32"
        }
      ],
      "stateMutability": "view",
      "type": "function"
    },
    {
      "inputs": [
        {
          "internalType": "address",
          "name": "account",
          "type": "address"
        }
      ],
      "name": "addMinter",
      "outputs": [],
      "stateMutability": "nonpayable",
      "type": "function"
    },
    {
      "inputs": [
        {
          "internalType": "address[]",
          "name": "accounts",
          "type": "address[]"
        }
      ],
      "name": "addMinters",
      "outputs": [],
      "stateMutability": "nonpayable",
      "type": "function"
    },
    {
      "inputs": [
        {
          "internalType": "address payable",
          "name": "receiver",
          "type": "address"
        }
      ],
      "name": "closeMinter",
      "outputs": [],
      "stateMutability": "payable",
      "type": "function"
    },
    {
      "inputs": [
        {
          "internalType": "bytes32",
          "name": "role",
          "type": "bytes32"
        }
      ],
      "name": "getRoleAdmin",
      "outputs": [
        {
          "internalType": "bytes32",
          "name": "",
          "type": "bytes32"
        }
      ],
      "stateMutability": "view",
      "type": "function"
    },
    {
      "inputs": [
        {
          "internalType": "bytes32",
          "name": "role",
          "type": "bytes32"
        },
        {
          "internalType": "address",
          "name": "account",
          "type": "address"
        }
      ],
      "name": "grantRole",
      "outputs": [],
      "stateMutability": "nonpayable",
      "type": "function"
    },
    {
      "inputs": [
        {
          "internalType": "bytes32",
          "name": "role",
          "type": "bytes32"
        },
        {
          "internalType": "address",
          "name": "account",
          "type": "address"
        }
      ],
      "name": "hasRole",
      "outputs": [
        {
          "internalType": "bool",
          "name": "",
          "type": "bool"
        }
      ],
      "stateMutability": "view",
      "type": "function"
    },
    {
      "inputs": [],
      "name": "initialize",
      "outputs": [],
      "stateMutability": "nonpayable",
      "type": "function"
    },
    {
      "inputs": [
        {
          "internalType": "address",
          "name": "account",
          "type": "address"
        }
      ],
      "name": "isMinter",
      "outputs": [
        {
          "internalType": "bool",
          "name": "",
          "type": "bool"
        }
      ],
      "stateMutability": "view",
      "type": "function"
    },
    {
      "inputs": [],
      "name": "olnyMinterFunc",
      "outputs": [],
      "stateMutability": "nonpayable",
      "type": "function"
    },
    {
      "inputs": [],
      "name": "owner",
      "outputs": [
        {
          "internalType": "address",
          "name": "",
          "type": "address"
        }
      ],
      "stateMutability": "view",
      "type": "function"
    },
    {
      "inputs": [
        {
          "internalType": "address",
          "name": "account",
          "type": "address"
        }
      ],
      "name": "removeMinter",
      "outputs": [],
      "stateMutability": "nonpayable",
      "type": "function"
    },
    {
      "inputs": [
        {
          "internalType": "address[]",
          "name": "accounts",
          "type": "address[]"
        }
      ],
      "name": "removeMinters",
      "outputs": [],
      "stateMutability": "nonpayable",
      "type": "function"
    },
    {
      "inputs": [],
      "name": "renounceMinter",
      "outputs": [],
      "stateMutability": "nonpayable",
      "type": "function"
    },
    {
      "inputs": [],
      "name": "renounceOwnership",
      "outputs": [],
      "stateMutability": "nonpayable",
      "type": "function"
    },
    {
      "inputs": [
        {
          "internalType": "bytes32",
          "name": "role",
          "type": "bytes32"
        },
        {
          "internalType": "address",
          "name": "account",
          "type": "address"
        }
      ],
      "name": "renounceRole",
      "outputs": [],
      "stateMutability": "nonpayable",
      "type": "function"
    },
    {
      "inputs": [
        {
          "internalType": "bytes32",
          "name": "role",
          "type": "bytes32"
        },
        {
          "internalType": "address",
          "name": "account",
          "type": "address"
        }
      ],
      "name": "revokeRole",
      "outputs": [],
      "stateMutability": "nonpayable",
      "type": "function"
    },
    {
      "inputs": [
        {
          "internalType": "address payable",
          "name": "receiver",
          "type": "address"
        }
      ],
      "name": "rotateMinter",
      "outputs": [],
      "stateMutability": "payable",
      "type": "function"
    },
    {
      "inputs": [
        {
          "internalType": "bytes4",
          "name": "interfaceId",
          "type": "bytes4"
        }
      ],
      "name": "supportsInterface",
      "outputs": [
        {
          "internalType": "bool",
          "name": "",
          "type": "bool"
        }
      ],
      "stateMutability": "view",
      "type": "function"
    },
    {
      "inputs": [
        {
          "internalType": "address",
          "name": "newOwner",
          "type": "address"
        }
      ],
      "name": "transferOwnership",
      "outputs": [],
      "stateMutability": "nonpayable",
      "type": "function"
    }
  ],
  "bytecode": "0x608060405234801561001057600080fd5b50611457806100206000396000f3fe60806040526004361061012a5760003560e01c806381c81d35116100ab578063a217fddf1161006f578063a217fddf146102fb578063aa271e1a14610310578063d539139314610330578063d547741f14610345578063ecfdcfb814610365578063f2fde38b1461037a5761012a565b806381c81d35146102715780638da5cb5b1461028457806391d14854146102a6578063983b2d56146102c657806398650275146102e65761012a565b80635fc1964f116100f25780635fc1964f146101f4578063634486da14610214578063715018a61461022757806371e2a6571461023c5780638129fc1c1461025c5761012a565b806301ffc9a71461012f578063248a9ca3146101655780632f2ff15d146101925780633092afd5146101b457806336568abe146101d4575b600080fd5b34801561013b57600080fd5b5061014f61014a36600461109f565b61039a565b60405161015c9190611150565b60405180910390f35b34801561017157600080fd5b50610185610180366004611058565b6103c7565b60405161015c919061115b565b34801561019e57600080fd5b506101b26101ad366004611070565b6103dc565b005b3480156101c057600080fd5b506101b26101cf366004610f7b565b610405565b3480156101e057600080fd5b506101b26101ef366004611070565b610459565b34801561020057600080fd5b506101b261020f366004610f97565b61049f565b6101b2610222366004610f7b565b61052c565b34801561023357600080fd5b506101b26105bf565b34801561024857600080fd5b506101b2610257366004610f97565b610648565b34801561026857600080fd5b506101b26106d5565b6101b261027f366004610f7b565b610751565b34801561029057600080fd5b5061029961079e565b60405161015c919061113c565b3480156102b257600080fd5b5061014f6102c1366004611070565b6107ad565b3480156102d257600080fd5b506101b26102e1366004610f7b565b6107d8565b3480156102f257600080fd5b506101b2610820565b34801561030757600080fd5b5061018561083c565b34801561031c57600080fd5b5061014f61032b366004610f7b565b610841565b34801561033c57600080fd5b5061018561085b565b34801561035157600080fd5b506101b2610360366004611070565b61086d565b34801561037157600080fd5b506101b261088c565b34801561038657600080fd5b506101b2610395366004610f7b565b6108b3565b60006001600160e01b03198216637965db0b60e01b14806103bf57506103bf82610906565b90505b919050565b60009081526097602052604090206001015490565b6103e5826103c7565b6103f6816103f161091f565b610923565b6104008383610987565b505050565b61040d61091f565b6001600160a01b031661041e61079e565b6001600160a01b03161461044d5760405162461bcd60e51b8152600401610444906112cc565b60405180910390fd5b61045681610a0e565b50565b61046161091f565b6001600160a01b0316816001600160a01b0316146104915760405162461bcd60e51b815260040161044490611301565b61049b8282610a26565b5050565b6104a761091f565b6001600160a01b03166104b861079e565b6001600160a01b0316146104de5760405162461bcd60e51b8152600401610444906112cc565b60005b815181101561049b5761051a82828151811061050d57634e487b7160e01b600052603260045260246000fd5b6020026020010151610a0e565b80610524816113ce565b9150506104e1565b61053761032b61091f565b6105535760405162461bcd60e51b815260040161044490611297565b6001600160a01b0381166105795760405162461bcd60e51b815260040161044490611212565b61058281610aab565b61058a610820565b6040516001600160a01b038216903480156108fc02916000818181858888f1935050505015801561049b573d6000803e3d6000fd5b6105c761091f565b6001600160a01b03166105d861079e565b6001600160a01b0316146105fe5760405162461bcd60e51b8152600401610444906112cc565b6033546040516000916001600160a01b0316907f8be0079c531659141344cd1fd0a4f28419497f9722a3daafe3b4186f6b6457e0908390a3603380546001600160a01b0319169055565b61065061091f565b6001600160a01b031661066161079e565b6001600160a01b0316146106875760405162461bcd60e51b8152600401610444906112cc565b60005b815181101561049b576106c38282815181106106b657634e487b7160e01b600052603260045260246000fd5b6020026020010151610aab565b806106cd816113ce565b91505061068a565b600054610100900460ff16806106ee575060005460ff16155b61070a5760405162461bcd60e51b815260040161044490611249565b600054610100900460ff16158015610735576000805460ff1961ff0019909116610100171660011790555b61073d610ac3565b8015610456576000805461ff001916905550565b61075c61032b61091f565b6107785760405162461bcd60e51b815260040161044490611297565b6001600160a01b0381166105825760405162461bcd60e51b815260040161044490611212565b6033546001600160a01b031690565b60009182526097602090815260408084206001600160a01b0393909316845291905290205460ff1690565b6107e061091f565b6001600160a01b03166107f161079e565b6001600160a01b0316146108175760405162461bcd60e51b8152600401610444906112cc565b61045681610aab565b61083a60008051602061142b8339815191526101ef61091f565b565b600081565b60006103bf60008051602061142b833981519152836107ad565b60008051602061142b83398151915281565b610876826103c7565b610882816103f161091f565b6104008383610a26565b61089761032b61091f565b61083a5760405162461bcd60e51b815260040161044490611297565b6108bb61091f565b6001600160a01b03166108cc61079e565b6001600160a01b0316146108f25760405162461bcd60e51b8152600401610444906112cc565b6108fb81610b3b565b610456600082610bfc565b6001600160e01b031981166301ffc9a760e01b14919050565b3390565b61092d82826107ad565b61049b57610945816001600160a01b03166014610c06565b610950836020610c06565b6040516020016109619291906110c7565b60408051601f198184030181529082905262461bcd60e51b825261044491600401611164565b61099182826107ad565b61049b5760008281526097602090815260408083206001600160a01b03851684529091529020805460ff191660011790556109ca61091f565b6001600160a01b0316816001600160a01b0316837f2f8788117e7eff1d82e926ec794901d17c78024a50270940304540a733656f0d60405160405180910390a45050565b61045660008051602061142b8339815191528261086d565b610a3082826107ad565b1561049b5760008281526097602090815260408083206001600160a01b03851684529091529020805460ff19169055610a6761091f565b6001600160a01b0316816001600160a01b0316837ff6391f5c32d9c69d2a47ea670b442974b53935d1edc7fd64eb21e047a839171b60405160405180910390a45050565b61045660008051602061142b83398151915282610bfc565b600054610100900460ff1680610adc575060005460ff16155b610af85760405162461bcd60e51b815260040161044490611249565b600054610100900460ff16158015610b23576000805460ff1961ff0019909116610100171660011790555b610b2b610dbf565b610b33610e8b565b61073d610efe565b610b4361091f565b6001600160a01b0316610b5461079e565b6001600160a01b031614610b7a5760405162461bcd60e51b8152600401610444906112cc565b6001600160a01b038116610ba05760405162461bcd60e51b8152600401610444906111cc565b6033546040516001600160a01b038084169216907f8be0079c531659141344cd1fd0a4f28419497f9722a3daafe3b4186f6b6457e090600090a3603380546001600160a01b0319166001600160a01b0392909216919091179055565b61049b8282610987565b60606000610c15836002611368565b610c20906002611350565b67ffffffffffffffff811115610c4657634e487b7160e01b600052604160045260246000fd5b6040519080825280601f01601f191660200182016040528015610c70576020820181803683370190505b509050600360fc1b81600081518110610c9957634e487b7160e01b600052603260045260246000fd5b60200101906001600160f81b031916908160001a905350600f60fb1b81600181518110610cd657634e487b7160e01b600052603260045260246000fd5b60200101906001600160f81b031916908160001a9053506000610cfa846002611368565b610d05906001611350565b90505b6001811115610d99576f181899199a1a9b1b9c1cb0b131b232b360811b85600f1660108110610d4757634e487b7160e01b600052603260045260246000fd5b1a60f81b828281518110610d6b57634e487b7160e01b600052603260045260246000fd5b60200101906001600160f81b031916908160001a90535060049490941c93610d92816113b7565b9050610d08565b508315610db85760405162461bcd60e51b815260040161044490611197565b9392505050565b600054610100900460ff1680610dd8575060005460ff16155b610df45760405162461bcd60e51b815260040161044490611249565b600054610100900460ff16158015610e1f576000805460ff1961ff0019909116610100171660011790555b6000610e2961091f565b603380546001600160a01b0319166001600160a01b038316908117909155604051919250906000907f8be0079c531659141344cd1fd0a4f28419497f9722a3daafe3b4186f6b6457e0908290a3508015610456576000805461ff001916905550565b600054610100900460ff1680610ea4575060005460ff16155b610ec05760405162461bcd60e51b815260040161044490611249565b600054610100900460ff1615801561073d576000805460ff1961ff0019909116610100171660011790558015610456576000805461ff001916905550565b600054610100900460ff1680610f17575060005460ff16155b610f335760405162461bcd60e51b815260040161044490611249565b600054610100900460ff16158015610f5e576000805460ff1961ff0019909116610100171660011790555b61073d6000610f6b61091f565b610bfc565b80356103c281611415565b600060208284031215610f8c578081fd5b8135610db881611415565b60006020808385031215610fa9578182fd5b823567ffffffffffffffff80821115610fc0578384fd5b818501915085601f830112610fd3578384fd5b813581811115610fe557610fe56113ff565b83810260405185828201018181108582111715611004576110046113ff565b604052828152858101935084860182860187018a1015611022578788fd5b8795505b8386101561104b5761103781610f70565b855260019590950194938601938601611026565b5098975050505050505050565b600060208284031215611069578081fd5b5035919050565b60008060408385031215611082578081fd5b82359150602083013561109481611415565b809150509250929050565b6000602082840312156110b0578081fd5b81356001600160e01b031981168114610db8578182fd5b60007f416363657373436f6e74726f6c3a206163636f756e7420000000000000000000825283516110ff816017850160208801611387565b7001034b99036b4b9b9b4b733903937b6329607d1b6017918401918201528351611130816028840160208801611387565b01602801949350505050565b6001600160a01b0391909116815260200190565b901515815260200190565b90815260200190565b6000602082528251806020840152611183816040850160208701611387565b601f01601f19169190910160400192915050565b6020808252818101527f537472696e67733a20686578206c656e67746820696e73756666696369656e74604082015260600190565b60208082526026908201527f4f776e61626c653a206e6577206f776e657220697320746865207a65726f206160408201526564647265737360d01b606082015260800190565b6020808252601d908201527f4d696e746572526f6c653a2052454345495645525f49535f454d505459000000604082015260600190565b6020808252602e908201527f496e697469616c697a61626c653a20636f6e747261637420697320616c72656160408201526d191e481a5b9a5d1a585b1a5e995960921b606082015260800190565b6020808252818101527f4d696e746572526f6c653a2043414c4c45525f49535f4e4f545f4d494e544552604082015260600190565b6020808252818101527f4f776e61626c653a2063616c6c6572206973206e6f7420746865206f776e6572604082015260600190565b6020808252602f908201527f416363657373436f6e74726f6c3a2063616e206f6e6c792072656e6f756e636560408201526e103937b632b9903337b91039b2b63360891b606082015260800190565b60008219821115611363576113636113e9565b500190565b6000816000190483118215151615611382576113826113e9565b500290565b60005b838110156113a257818101518382015260200161138a565b838111156113b1576000848401525b50505050565b6000816113c6576113c66113e9565b506000190190565b60006000198214156113e2576113e26113e9565b5060010190565b634e487b7160e01b600052601160045260246000fd5b634e487b7160e01b600052604160045260246000fd5b6001600160a01b038116811461045657600080fdfe9f2df0fed2c77648de5860a4cc508cd0818c85b8b8a1ab4ceeef8d981c8956a6a164736f6c6343000800000a",
  "linkReferences": {},
  "deployedLinkReferences": {}
}