{
  "_format": "hh-sol-artifact-1",
  "contractName": "MintingManager",
  "sourceName": "contracts/MintingManager.sol",
  "abi": [
    {
      "anonymous": false,
      "inputs": [
        {
          "indexed": false,
          "internalType": "address",
          "name": "previousAdmin",
          "type": "address"
        },
        {
          "indexed": false,
          "internalType": "address",
          "name": "newAdmin",
          "type": "address"
        }
      ],
      "name": "AdminChanged",
      "type": "event"
    },
    {
      "anonymous": false,
      "inputs": [
        {
          "indexed": false,
          "internalType": "uint256",
          "name": "tokenId",
          "type": "uint256"
        }
      ],
      "name": "Blocked",
      "type": "event"
    },
    {
      "anonymous": false,
      "inputs": [
        {
          "indexed": false,
          "internalType": "address",
          "name": "account",
          "type": "address"
        }
      ],
      "name": "BlocklistDisabled",
      "type": "event"
    },
    {
      "anonymous": false,
      "inputs": [
        {
          "indexed": false,
          "internalType": "address",
          "name": "account",
          "type": "address"
        }
      ],
      "name": "BlocklistEnabled",
      "type": "event"
    },
    {
      "anonymous": false,
      "inputs": [
        {
          "indexed": false,
          "internalType": "uint8",
          "name": "version",
          "type": "uint8"
        }
      ],
      "name": "Initialized",
      "type": "event"
    },
    {
      "anonymous": false,
      "inputs": [
        {
          "indexed": true,
          "internalType": "uint256",
          "name": "tokenId",
          "type": "uint256"
        },
        {
          "indexed": false,
          "internalType": "string",
          "name": "tld",
          "type": "string"
        }
      ],
      "name": "NewTld",
      "type": "event"
    },
    {
      "anonymous": false,
      "inputs": [
        {
          "indexed": true,
          "internalType": "address",
          "name": "previousOwner",
          "type": "address"
        },
        {
          "indexed": true,
          "internalType": "address",
          "name": "newOwner",
          "type": "address"
        }
      ],
      "name": "OwnershipTransferred",
      "type": "event"
    },
    {
      "anonymous": false,
      "inputs": [
        {
          "indexed": false,
          "internalType": "address",
          "name": "account",
          "type": "address"
        }
      ],
      "name": "Paused",
      "type": "event"
    },
    {
      "anonymous": false,
      "inputs": [
        {
          "indexed": true,
          "internalType": "uint256",
          "name": "tokenId",
          "type": "uint256"
        }
      ],
      "name": "RemoveTld",
      "type": "event"
    },
    {
      "anonymous": false,
      "inputs": [
        {
          "indexed": true,
          "internalType": "bytes32",
          "name": "role",
          "type": "bytes32"
        },
        {
          "indexed": true,
          "internalType": "bytes32",
          "name": "previousAdminRole",
          "type": "bytes32"
        },
        {
          "indexed": true,
          "internalType": "bytes32",
          "name": "newAdminRole",
          "type": "bytes32"
        }
      ],
      "name": "RoleAdminChanged",
      "type": "event"
    },
    {
      "anonymous": false,
      "inputs": [
        {
          "indexed": true,
          "internalType": "bytes32",
          "name": "role",
          "type": "bytes32"
        },
        {
          "indexed": true,
          "internalType": "address",
          "name": "account",
          "type": "address"
        },
        {
          "indexed": true,
          "internalType": "address",
          "name": "sender",
          "type": "address"
        }
      ],
      "name": "RoleGranted",
      "type": "event"
    },
    {
      "anonymous": false,
      "inputs": [
        {
          "indexed": true,
          "internalType": "bytes32",
          "name": "role",
          "type": "bytes32"
        },
        {
          "indexed": true,
          "internalType": "address",
          "name": "account",
          "type": "address"
        },
        {
          "indexed": true,
          "internalType": "address",
          "name": "sender",
          "type": "address"
        }
      ],
      "name": "RoleRevoked",
      "type": "event"
    },
    {
      "anonymous": false,
      "inputs": [
        {
          "indexed": false,
          "internalType": "address",
          "name": "account",
          "type": "address"
        }
      ],
      "name": "Unpaused",
      "type": "event"
    },
    {
      "anonymous": false,
      "inputs": [
        {
          "indexed": true,
          "internalType": "address",
          "name": "implementation",
          "type": "address"
        }
      ],
      "name": "Upgraded",
      "type": "event"
    },
    {
      "inputs": [],
      "name": "DEFAULT_ADMIN_ROLE",
      "outputs": [
        {
          "internalType": "bytes32",
          "name": "",
          "type": "bytes32"
        }
      ],
      "stateMutability": "view",
      "type": "function"
    },
    {
      "inputs": [],
      "name": "MINTER_ROLE",
      "outputs": [
        {
          "internalType": "bytes32",
          "name": "",
          "type": "bytes32"
        }
      ],
      "stateMutability": "view",
      "type": "function"
    },
    {
      "inputs": [],
      "name": "NAME",
      "outputs": [
        {
          "internalType": "string",
          "name": "",
          "type": "string"
        }
      ],
      "stateMutability": "view",
      "type": "function"
    },
    {
      "inputs": [],
      "name": "VERSION",
      "outputs": [
        {
          "internalType": "string",
          "name": "",
          "type": "string"
        }
      ],
      "stateMutability": "view",
      "type": "function"
    },
    {
      "inputs": [
        {
          "internalType": "address",
          "name": "account",
          "type": "address"
        }
      ],
      "name": "addMinter",
      "outputs": [],
      "stateMutability": "nonpayable",
      "type": "function"
    },
    {
      "inputs": [
        {
          "internalType": "address[]",
          "name": "accounts",
          "type": "address[]"
        }
      ],
      "name": "addMinters",
      "outputs": [],
      "stateMutability": "nonpayable",
      "type": "function"
    },
    {
      "inputs": [
        {
          "internalType": "address[]",
          "name": "addrs",
          "type": "address[]"
        }
      ],
      "name": "addProxyReaders",
      "outputs": [],
      "stateMutability": "nonpayable",
      "type": "function"
    },
    {
      "inputs": [
        {
          "internalType": "string",
          "name": "tld",
          "type": "string"
        }
      ],
      "name": "addTld",
      "outputs": [],
      "stateMutability": "nonpayable",
      "type": "function"
    },
    {
      "inputs": [
        {
          "internalType": "uint256[]",
          "name": "tokenIds",
          "type": "uint256[]"
        }
      ],
      "name": "areBlocked",
      "outputs": [
        {
          "internalType": "bool[]",
          "name": "values",
          "type": "bool[]"
        }
      ],
      "stateMutability": "view",
      "type": "function"
    },
    {
      "inputs": [
        {
          "internalType": "uint256",
          "name": "tokenId",
          "type": "uint256"
        }
      ],
      "name": "blocklist",
      "outputs": [],
      "stateMutability": "nonpayable",
      "type": "function"
    },
    {
      "inputs": [
        {
          "internalType": "uint256[]",
          "name": "tokenIds",
          "type": "uint256[]"
        }
      ],
      "name": "blocklistAll",
      "outputs": [],
      "stateMutability": "nonpayable",
      "type": "function"
    },
    {
      "inputs": [
        {
          "internalType": "uint256[]",
          "name": "tokenIds",
          "type": "uint256[]"
        }
      ],
      "name": "burnTLDL1",
      "outputs": [],
      "stateMutability": "nonpayable",
      "type": "function"
    },
    {
      "inputs": [
        {
          "internalType": "uint256",
          "name": "tld",
          "type": "uint256"
        },
        {
          "internalType": "string",
          "name": "label",
          "type": "string"
        }
      ],
      "name": "claim",
      "outputs": [],
      "stateMutability": "nonpayable",
      "type": "function"
    },
    {
      "inputs": [
        {
          "internalType": "address",
          "name": "to",
          "type": "address"
        },
        {
          "internalType": "uint256",
          "name": "tld",
          "type": "uint256"
        },
        {
          "internalType": "string",
          "name": "label",
          "type": "string"
        }
      ],
      "name": "claimTo",
      "outputs": [],
      "stateMutability": "nonpayable",
      "type": "function"
    },
    {
      "inputs": [
        {
          "internalType": "address",
          "name": "to",
          "type": "address"
        },
        {
          "internalType": "uint256",
          "name": "tld",
          "type": "uint256"
        },
        {
          "internalType": "string",
          "name": "label",
          "type": "string"
        },
        {
          "internalType": "string[]",
          "name": "keys",
          "type": "string[]"
        },
        {
          "internalType": "string[]",
          "name": "values",
          "type": "string[]"
        }
      ],
      "name": "claimToWithRecords",
      "outputs": [],
      "stateMutability": "nonpayable",
      "type": "function"
    },
    {
      "inputs": [
        {
          "internalType": "address payable",
          "name": "receiver",
          "type": "address"
        }
      ],
      "name": "closeMinter",
      "outputs": [],
      "stateMutability": "payable",
      "type": "function"
    },
    {
      "inputs": [],
      "name": "cnsMintingController",
      "outputs": [
        {
          "internalType": "contract IMintingController",
          "name": "",
          "type": "address"
        }
      ],
      "stateMutability": "view",
      "type": "function"
    },
    {
      "inputs": [],
      "name": "cnsResolver",
      "outputs": [
        {
          "internalType": "contract IResolver",
          "name": "",
          "type": "address"
        }
      ],
      "stateMutability": "view",
      "type": "function"
    },
    {
      "inputs": [],
      "name": "cnsURIPrefixController",
      "outputs": [
        {
          "internalType": "contract IURIPrefixController",
          "name": "",
          "type": "address"
        }
      ],
      "stateMutability": "view",
      "type": "function"
    },
    {
      "inputs": [],
      "name": "disableBlocklist",
      "outputs": [],
      "stateMutability": "nonpayable",
      "type": "function"
    },
    {
      "inputs": [],
      "name": "enableBlocklist",
      "outputs": [],
      "stateMutability": "nonpayable",
      "type": "function"
    },
    {
      "inputs": [
        {
          "internalType": "bytes32",
          "name": "role",
          "type": "bytes32"
        }
      ],
      "name": "getRoleAdmin",
      "outputs": [
        {
          "internalType": "bytes32",
          "name": "",
          "type": "bytes32"
        }
      ],
      "stateMutability": "view",
      "type": "function"
    },
    {
      "inputs": [
        {
          "internalType": "bytes32",
          "name": "role",
          "type": "bytes32"
        },
        {
          "internalType": "address",
          "name": "account",
          "type": "address"
        }
      ],
      "name": "grantRole",
      "outputs": [],
      "stateMutability": "nonpayable",
      "type": "function"
    },
    {
      "inputs": [
        {
          "internalType": "bytes32",
          "name": "role",
          "type": "bytes32"
        },
        {
          "internalType": "address",
          "name": "account",
          "type": "address"
        }
      ],
      "name": "hasRole",
      "outputs": [
        {
          "internalType": "bool",
          "name": "",
          "type": "bool"
        }
      ],
      "stateMutability": "view",
      "type": "function"
    },
    {
      "inputs": [
        {
          "internalType": "contract IUNSRegistry",
          "name": "unsRegistry_",
          "type": "address"
        },
        {
          "internalType": "contract IMintingController",
          "name": "cnsMintingController_",
          "type": "address"
        },
        {
          "internalType": "contract IURIPrefixController",
          "name": "cnsURIPrefixController_",
          "type": "address"
        },
        {
          "internalType": "contract IResolver",
          "name": "cnsResolver_",
          "type": "address"
        },
        {
          "internalType": "address",
          "name": "forwarder",
          "type": "address"
        }
      ],
      "name": "initialize",
      "outputs": [],
      "stateMutability": "nonpayable",
      "type": "function"
    },
    {
      "inputs": [
        {
          "internalType": "uint256",
          "name": "tokenId",
          "type": "uint256"
        }
      ],
      "name": "isBlocked",
      "outputs": [
        {
          "internalType": "bool",
          "name": "",
          "type": "bool"
        }
      ],
      "stateMutability": "view",
      "type": "function"
    },
    {
      "inputs": [],
      "name": "isBlocklistDisabled",
      "outputs": [
        {
          "internalType": "bool",
          "name": "",
          "type": "bool"
        }
      ],
      "stateMutability": "view",
      "type": "function"
    },
    {
      "inputs": [
        {
          "internalType": "address",
          "name": "account",
          "type": "address"
        }
      ],
      "name": "isMinter",
      "outputs": [
        {
          "internalType": "bool",
          "name": "",
          "type": "bool"
        }
      ],
      "stateMutability": "view",
      "type": "function"
    },
    {
      "inputs": [
        {
          "internalType": "address",
          "name": "forwarder",
          "type": "address"
        }
      ],
      "name": "isTrustedForwarder",
      "outputs": [
        {
          "internalType": "bool",
          "name": "",
          "type": "bool"
        }
      ],
      "stateMutability": "view",
      "type": "function"
    },
    {
      "inputs": [
        {
          "internalType": "address",
          "name": "to",
          "type": "address"
        },
        {
          "internalType": "uint256",
          "name": "tld",
          "type": "uint256"
        },
        {
          "internalType": "string",
          "name": "label",
          "type": "string"
        }
      ],
      "name": "mintSLD",
      "outputs": [],
      "stateMutability": "nonpayable",
      "type": "function"
    },
    {
      "inputs": [
        {
          "internalType": "address",
          "name": "to",
          "type": "address"
        },
        {
          "internalType": "uint256",
          "name": "tld",
          "type": "uint256"
        },
        {
          "internalType": "string",
          "name": "label",
          "type": "string"
        },
        {
          "internalType": "string[]",
          "name": "keys",
          "type": "string[]"
        },
        {
          "internalType": "string[]",
          "name": "values",
          "type": "string[]"
        }
      ],
      "name": "mintSLDWithRecords",
      "outputs": [],
      "stateMutability": "nonpayable",
      "type": "function"
    },
    {
      "inputs": [
        {
          "internalType": "uint256[]",
          "name": "tokenIds",
          "type": "uint256[]"
        }
      ],
      "name": "moveTLDOwnershipL2",
      "outputs": [],
      "stateMutability": "nonpayable",
      "type": "function"
    },
    {
      "inputs": [],
      "name": "owner",
      "outputs": [
        {
          "internalType": "address",
          "name": "",
          "type": "address"
        }
      ],
      "stateMutability": "view",
      "type": "function"
    },
    {
      "inputs": [],
      "name": "pause",
      "outputs": [],
      "stateMutability": "nonpayable",
      "type": "function"
    },
    {
      "inputs": [],
      "name": "paused",
      "outputs": [
        {
          "internalType": "bool",
          "name": "",
          "type": "bool"
        }
      ],
      "stateMutability": "view",
      "type": "function"
    },
    {
      "inputs": [
        {
          "internalType": "address",
          "name": "account",
          "type": "address"
        }
      ],
      "name": "removeMinter",
      "outputs": [],
      "stateMutability": "nonpayable",
      "type": "function"
    },
    {
      "inputs": [
        {
          "internalType": "address[]",
          "name": "accounts",
          "type": "address[]"
        }
      ],
      "name": "removeMinters",
      "outputs": [],
      "stateMutability": "nonpayable",
      "type": "function"
    },
    {
      "inputs": [
        {
          "internalType": "uint256",
          "name": "tld",
          "type": "uint256"
        }
      ],
      "name": "removeTld",
      "outputs": [],
      "stateMutability": "nonpayable",
      "type": "function"
    },
    {
      "inputs": [],
      "name": "renounceMinter",
      "outputs": [],
      "stateMutability": "nonpayable",
      "type": "function"
    },
    {
      "inputs": [],
      "name": "renounceOwnership",
      "outputs": [],
      "stateMutability": "nonpayable",
      "type": "function"
    },
    {
      "inputs": [
        {
          "internalType": "bytes32",
          "name": "role",
          "type": "bytes32"
        },
        {
          "internalType": "address",
          "name": "account",
          "type": "address"
        }
      ],
      "name": "renounceRole",
      "outputs": [],
      "stateMutability": "nonpayable",
      "type": "function"
    },
    {
      "inputs": [
        {
          "internalType": "bytes32",
          "name": "role",
          "type": "bytes32"
        },
        {
          "internalType": "address",
          "name": "account",
          "type": "address"
        }
      ],
      "name": "revokeRole",
      "outputs": [],
      "stateMutability": "nonpayable",
      "type": "function"
    },
    {
      "inputs": [
        {
          "internalType": "address payable",
          "name": "receiver",
          "type": "address"
        }
      ],
      "name": "rotateMinter",
      "outputs": [],
      "stateMutability": "payable",
      "type": "function"
    },
    {
      "inputs": [
        {
          "internalType": "address",
          "name": "to",
          "type": "address"
        },
        {
          "internalType": "uint256",
          "name": "tld",
          "type": "uint256"
        },
        {
          "internalType": "string",
          "name": "label",
          "type": "string"
        }
      ],
      "name": "safeMintSLD",
      "outputs": [],
      "stateMutability": "nonpayable",
      "type": "function"
    },
    {
      "inputs": [
        {
          "internalType": "address",
          "name": "to",
          "type": "address"
        },
        {
          "internalType": "uint256",
          "name": "tld",
          "type": "uint256"
        },
        {
          "internalType": "string",
          "name": "label",
          "type": "string"
        },
        {
          "internalType": "bytes",
          "name": "data",
          "type": "bytes"
        }
      ],
      "name": "safeMintSLD",
      "outputs": [],
      "stateMutability": "nonpayable",
      "type": "function"
    },
    {
      "inputs": [
        {
          "internalType": "address",
          "name": "to",
          "type": "address"
        },
        {
          "internalType": "uint256",
          "name": "tld",
          "type": "uint256"
        },
        {
          "internalType": "string",
          "name": "label",
          "type": "string"
        },
        {
          "internalType": "string[]",
          "name": "keys",
          "type": "string[]"
        },
        {
          "internalType": "string[]",
          "name": "values",
          "type": "string[]"
        }
      ],
      "name": "safeMintSLDWithRecords",
      "outputs": [],
      "stateMutability": "nonpayable",
      "type": "function"
    },
    {
      "inputs": [
        {
          "internalType": "address",
          "name": "to",
          "type": "address"
        },
        {
          "internalType": "uint256",
          "name": "tld",
          "type": "uint256"
        },
        {
          "internalType": "string",
          "name": "label",
          "type": "string"
        },
        {
          "internalType": "string[]",
          "name": "keys",
          "type": "string[]"
        },
        {
          "internalType": "string[]",
          "name": "values",
          "type": "string[]"
        },
        {
          "internalType": "bytes",
          "name": "data",
          "type": "bytes"
        }
      ],
      "name": "safeMintSLDWithRecords",
      "outputs": [],
      "stateMutability": "nonpayable",
      "type": "function"
    },
    {
      "inputs": [
        {
          "internalType": "address",
          "name": "forwarder",
          "type": "address"
        }
      ],
      "name": "setForwarder",
      "outputs": [],
      "stateMutability": "nonpayable",
      "type": "function"
    },
    {
      "inputs": [
        {
          "internalType": "address",
          "name": "resolver",
          "type": "address"
        }
      ],
      "name": "setResolver",
      "outputs": [],
      "stateMutability": "nonpayable",
      "type": "function"
    },
    {
      "inputs": [
        {
          "internalType": "string",
          "name": "prefix",
          "type": "string"
        }
      ],
      "name": "setTokenURIPrefix",
      "outputs": [],
      "stateMutability": "nonpayable",
      "type": "function"
    },
    {
      "inputs": [
        {
          "internalType": "bytes4",
          "name": "interfaceId",
          "type": "bytes4"
        }
      ],
      "name": "supportsInterface",
      "outputs": [
        {
          "internalType": "bool",
          "name": "",
          "type": "bool"
        }
      ],
      "stateMutability": "view",
      "type": "function"
    },
    {
      "inputs": [
        {
          "internalType": "address",
          "name": "newOwner",
          "type": "address"
        }
      ],
      "name": "transferOwnership",
      "outputs": [],
      "stateMutability": "nonpayable",
      "type": "function"
    },
    {
      "inputs": [],
      "name": "unpause",
      "outputs": [],
      "stateMutability": "nonpayable",
      "type": "function"
    },
    {
      "inputs": [],
      "name": "unsRegistry",
      "outputs": [
        {
          "internalType": "contract IUNSRegistry",
          "name": "",
          "type": "address"
        }
      ],
      "stateMutability": "view",
      "type": "function"
    },
    {
      "inputs": [
        {
          "internalType": "uint256[]",
          "name": "tokenIds",
          "type": "uint256[]"
        }
      ],
      "name": "upgradeAll",
      "outputs": [],
      "stateMutability": "nonpayable",
      "type": "function"
    }
  ],
  "bytecode": "0x608060405234801561001057600080fd5b5061455a806100206000396000f3fe6080604052600436106103505760003560e01c806371e2a657116101c6578063ae2ad903116100f7578063d1f5692c11610095578063e47d6cc61161006f578063e47d6cc6146109ed578063ec52738914610a0d578063f2fde38b14610a2d578063ffa1ad7414610a4d57600080fd5b8063d1f5692c1461098b578063d5391393146109ab578063d547741f146109cd57600080fd5b8063b9998a24116100d1578063b9998a241461090b578063c3a3bc001461092b578063cc2c3fc41461094b578063ceeb4f501461096b57600080fd5b8063ae2ad903146108ab578063ae31844a146108cb578063b0aa98c7146108eb57600080fd5b8063983b2d5611610164578063a217fddf1161013e578063a217fddf14610809578063a3f4df7e1461081e578063a849d65c1461086b578063aa271e1a1461088b57600080fd5b8063983b2d56146107b457806398650275146107d457806399e0dd7c146107e957600080fd5b80638da5cb5b116101a05780638da5cb5b14610741578063906cecc11461075f57806390dbdb5a1461077f57806391d148541461079457600080fd5b806371e2a657146106f957806381c81d35146107195780638456cb591461072c57600080fd5b80633f41b614116102a05780635b6fa8db1161023e578063634486da11610218578063634486da146106915780636a2d2256146106a45780636bfdcbf4146106c4578063715018a6146106e457600080fd5b80635b6fa8db1461063c5780635c975abb1461065c5780635fc1964f1461067157600080fd5b80634c1819e01161027a5780634c1819e01461058e5780634e543b26146105ae578063572b6c05146105ce57806358839d6b1461061c57600080fd5b80633f41b614146105215780633f4ba83a14610559578063463c4bcb1461056e57600080fd5b8063268b15ed1161030d5780632f2ff15d116102e75780632f2ff15d146104a15780633092afd5146104c157806336568abe146104e157806339ccf4d01461050157600080fd5b8063268b15ed1461044c57806327bbd2251461046c5780632eff1a951461048c57600080fd5b806301ffc9a7146103555780630ca48a411461038a5780630e36a87d146103ac57806310921f12146103d95780631459457a146103ee578063248a9ca31461040e575b600080fd5b34801561036157600080fd5b50610375610370366004613c2b565b610a7e565b60405190151581526020015b60405180910390f35b34801561039657600080fd5b506103aa6103a5366004613abf565b610ab5565b005b3480156103b857600080fd5b506103cc6103c7366004613abf565b610c0b565b60405161038191906141a1565b3480156103e557600080fd5b50610375610ce2565b3480156103fa57600080fd5b506103aa610409366004613c53565b610cfd565b34801561041a57600080fd5b5061043e610429366004613be4565b60009081526097602052604090206001015490565b604051908152602001610381565b34801561045857600080fd5b506103aa610467366004613cf6565b61102b565b34801561047857600080fd5b506103aa6104873660046138ab565b61112d565b34801561049857600080fd5b506103aa611291565b3480156104ad57600080fd5b506103aa6104bc366004613bfc565b6112a3565b3480156104cd57600080fd5b506103aa6104dc366004613836565b6112c8565b3480156104ed57600080fd5b506103aa6104fc366004613bfc565b6112dc565b34801561050d57600080fd5b506103aa61051c3660046138ab565b61136a565b34801561052d57600080fd5b5060c954610541906001600160a01b031681565b6040516001600160a01b039091168152602001610381565b34801561056557600080fd5b506103aa6114b3565b34801561057a57600080fd5b506103aa610589366004613be4565b6114c3565b34801561059a57600080fd5b506103aa6105a9366004613852565b6114f3565b3480156105ba57600080fd5b506103aa6105c9366004613836565b61161a565b3480156105da57600080fd5b506103756105e9366004613836565b7f893ef2ea16c023f61d4f55d3e6ee3fc3f2fbfd478461323dbc2fbf919047086e546001600160a01b0390811691161490565b34801561062857600080fd5b506103aa610637366004613a37565b611644565b34801561064857600080fd5b5060cc54610541906001600160a01b031681565b34801561066857600080fd5b50610375611794565b34801561067d57600080fd5b506103aa61068c366004613afe565b6117aa565b6103aa61069f366004613836565b611800565b3480156106b057600080fd5b506103aa6106bf36600461395c565b6118c3565b3480156106d057600080fd5b506103aa6106df366004613abf565b611a5e565b3480156106f057600080fd5b506103aa611b9a565b34801561070557600080fd5b506103aa610714366004613afe565b611bac565b6103aa610727366004613836565b611c02565b34801561073857600080fd5b506103aa611c7f565b34801561074d57600080fd5b506033546001600160a01b0316610541565b34801561076b57600080fd5b506103aa61077a366004613852565b611c8f565b34801561078b57600080fd5b506103aa611d79565b3480156107a057600080fd5b506103756107af366004613bfc565b611d89565b3480156107c057600080fd5b506103aa6107cf366004613836565b611db4565b3480156107e057600080fd5b506103aa611dc5565b3480156107f557600080fd5b506103aa610804366004613cc3565b611ddf565b34801561081557600080fd5b5061043e600081565b34801561082a57600080fd5b5061085e604051806040016040528060148152602001732aa7299d1026b4b73a34b7339026b0b730b3b2b960611b81525081565b6040516103819190614277565b34801561087757600080fd5b5060cb54610541906001600160a01b031681565b34801561089757600080fd5b506103756108a6366004613836565b611ebe565b3480156108b757600080fd5b506103aa6108c6366004613852565b611ed8565b3480156108d757600080fd5b506103aa6108e6366004613abf565b61201b565b3480156108f757600080fd5b50610375610906366004613be4565b612074565b34801561091757600080fd5b506103aa610926366004613836565b6120e1565b34801561093757600080fd5b506103aa610946366004613cc3565b612126565b34801561095757600080fd5b5060ca54610541906001600160a01b031681565b34801561097757600080fd5b506103aa6109863660046138ab565b61216d565b34801561099757600080fd5b506103aa6109a6366004613abf565b612260565b3480156109b757600080fd5b5061043e60008051602061452e83398151915281565b3480156109d957600080fd5b506103aa6109e8366004613bfc565b612325565b3480156109f957600080fd5b506103aa610a08366004613abf565b61234a565b348015610a1957600080fd5b506103aa610a28366004613be4565b61237b565b348015610a3957600080fd5b506103aa610a48366004613836565b6123ed565b348015610a5957600080fd5b5061085e604051806040016040528060058152602001640c0b8ccb8d60da1b81525081565b60006001600160e01b03198216637965db0b60e01b1480610aaf57506301ffc9a760e01b6001600160e01b03198316145b92915050565b610ac06108a6612409565b610ae55760405162461bcd60e51b8152600401610adc906142d0565b60405180910390fd5b60005b81811015610c0657610b1f838383818110610b1357634e487b7160e01b600052603260045260246000fd5b90506020020135612418565b610b6b5760405162461bcd60e51b815260206004820181905260248201527f4d696e74696e674d616e616765723a20544f4b454e5f49445f4e4f545f544c446044820152606401610adc565b60c9546001600160a01b031663df454285848484818110610b9c57634e487b7160e01b600052603260045260246000fd5b905060200201356040518263ffffffff1660e01b8152600401610bc191815260200190565b600060405180830381600087803b158015610bdb57600080fd5b505af1158015610bef573d6000803e3d6000fd5b505050508080610bfe90614471565b915050610ae8565b505050565b6060816001600160401b03811115610c3357634e487b7160e01b600052604160045260246000fd5b604051908082528060200260200182016040528015610c5c578160200160208202803683370190505b50905060005b82811015610cdb57610c99848483818110610c8d57634e487b7160e01b600052603260045260246000fd5b90506020020135612074565b828281518110610cb957634e487b7160e01b600052603260045260246000fd5b9115156020928302919091019091015280610cd381614471565b915050610c62565b5092915050565b60006000805160206144ee8339815191525b5460ff16919050565b600054610100900460ff1615808015610d1d5750600054600160ff909116105b80610d375750303b158015610d37575060005460ff166001145b610d9a5760405162461bcd60e51b815260206004820152602e60248201527f496e697469616c697a61626c653a20636f6e747261637420697320616c72656160448201526d191e481a5b9a5d1a585b1a5e995960921b6064820152608401610adc565b6000805460ff191660011790558015610dbd576000805461ff0019166101001790555b60c980546001600160a01b038089166001600160a01b03199283161790925560ca805488841690831617905560cb805487841690831617905560cc805492861692909116919091179055610e0f612463565b610e1761249a565b610e20826124d3565b610e286124fa565b610e30612544565b604080516101a081018252600661016082018181526563727970746f60d01b610180840152825282518084018452908152651dd85b1b195d60d21b602082810191909152808301919091528251808401845260018152600f60fb1b8183015282840152825180840184526003808252621b999d60ea1b82840152606084019190915283518085018552600a815269313637b1b5b1b430b4b760b11b818401526080840152835180850185526007808252663134ba31b7b4b760c91b8285015260a0850191909152845180860186528281526207070760eb1b8185015260c0850152845180860186528281526264616f60e81b8185015260e085015284518086018652918252621e9a5b60ea1b8284015261010084019190915283518085018552908152663837b63cb3b7b760c91b818301526101208301528251808401909352600b83526a756e73746f707061626c6560a81b9083015261014081019190915260005b600b811015610fdb57610fc98282600b8110610fbf57634e487b7160e01b600052603260045260246000fd5b6020020151612581565b80610fd381614471565b915050610f93565b50508015611023576000805461ff0019169055604051600181527f7f26b83ff96e1f2b6a682f133852f6798a09c465da95921460cefb38474024989060200160405180910390a15b505050505050565b8282828080601f01602080910402602001604051908101604052809392919081815260200183838082843760009201919091525061106e92508491506126a19050565b61108a5760405162461bcd60e51b8152600401610adc9061432f565b6000611095826126c7565b9050600a816000015111156110ed576110c06110b4826000600a6126f4565b80516020909101512090565b60008051602061450e83398151915214156110ed5760405162461bcd60e51b8152600401610adc9061428a565b6110f5611794565b156111125760405162461bcd60e51b8152600401610adc90614305565b61102361111d612409565b876111288888612733565b61275f565b6111386108a6612409565b6111545760405162461bcd60e51b8152600401610adc906142d0565b8686868080601f01602080910402602001604051908101604052809392919081815260200183838082843760009201919091525061119792508491506126a19050565b6111b35760405162461bcd60e51b8152600401610adc9061432f565b60006111be826126c7565b9050600a8160000151111561120a576111dd6110b4826000600a6126f4565b60008051602061450e833981519152141561120a5760405162461bcd60e51b8152600401610adc9061428a565b611212611794565b1561122f5760405162461bcd60e51b8152600401610adc90614305565b6112848b8b8b8b8080601f016020809104026020016040519081016040528093929190818152602001838380828437600092018290525060408051602081019091529081528e93508d92508c91508b90612866565b5050505050505050505050565b6112996129e1565b6112a1612a5a565b565b6000828152609760205260409020600101546112be81612b05565b610c068383612b16565b6112d06129e1565b6112d981612b9d565b50565b6112e4612409565b6001600160a01b0316816001600160a01b03161461135c5760405162461bcd60e51b815260206004820152602f60248201527f416363657373436f6e74726f6c3a2063616e206f6e6c792072656e6f756e636560448201526e103937b632b9903337b91039b2b63360891b6064820152608401610adc565b6113668282612bb5565b5050565b6113756108a6612409565b6113915760405162461bcd60e51b8152600401610adc906142d0565b8686868080601f0160208091040260200160405190810160405280939291908181526020018383808284376000920191909152506113d492508491506126a19050565b6113f05760405162461bcd60e51b8152600401610adc9061432f565b60006113fb826126c7565b9050600a816000015111156114475761141a6110b4826000600a6126f4565b60008051602061450e83398151915214156114475760405162461bcd60e51b8152600401610adc9061428a565b61144f611794565b1561146c5760405162461bcd60e51b8152600401610adc90614305565b6112848b8b8b8b8080601f0160208091040260200160405190810160405280939291908181526020018383808284376000920191909152508d92508c91508b90508a612c3a565b6114bb6129e1565b6112a1612dbf565b6114ce6108a6612409565b6114ea5760405162461bcd60e51b8152600401610adc906142d0565b6112d981612e4a565b6114fe6108a6612409565b61151a5760405162461bcd60e51b8152600401610adc906142d0565b8282828080601f01602080910402602001604051908101604052809392919081815260200183838082843760009201919091525061155d92508491506126a19050565b6115795760405162461bcd60e51b8152600401610adc9061432f565b6000611584826126c7565b9050600a816000015111156115d0576115a36110b4826000600a6126f4565b60008051602061450e83398151915214156115d05760405162461bcd60e51b8152600401610adc9061428a565b6115d8611794565b156115f55760405162461bcd60e51b8152600401610adc90614305565b6116118787878760405180602001604052806000815250612f19565b50505050505050565b6116226129e1565b60cc80546001600160a01b0319166001600160a01b0392909216919091179055565b61164f6108a6612409565b61166b5760405162461bcd60e51b8152600401610adc906142d0565b8484848080601f0160208091040260200160405190810160405280939291908181526020018383808284376000920191909152506116ae92508491506126a19050565b6116ca5760405162461bcd60e51b8152600401610adc9061432f565b60006116d5826126c7565b9050600a81600001511115611721576116f46110b4826000600a6126f4565b60008051602061450e83398151915214156117215760405162461bcd60e51b8152600401610adc9061428a565b611729611794565b156117465760405162461bcd60e51b8152600401610adc90614305565b6117898989898989898080601f016020809104026020016040519081016040528093929190818152602001838380828437600092019190915250612f1992505050565b505050505050505050565b60006000805160206144ce833981519152610cf4565b6117b26129e1565b60005b8151811015611366576117ee8282815181106117e157634e487b7160e01b600052603260045260246000fd5b6020026020010151612b9d565b806117f881614471565b9150506117b5565b61180b6108a6612409565b6118275760405162461bcd60e51b8152600401610adc906142d0565b6001600160a01b03811661187d5760405162461bcd60e51b815260206004820152601d60248201527f4d696e746572526f6c653a2052454345495645525f49535f454d5054590000006044820152606401610adc565b61188681613099565b61188e611dc5565b6040516001600160a01b038216903480156108fc02916000818181858888f19350505050158015611366573d6000803e3d6000fd5b6118ce6108a6612409565b6118ea5760405162461bcd60e51b8152600401610adc906142d0565b8888888080601f01602080910402602001604051908101604052809392919081815260200183838082843760009201919091525061192d92508491506126a19050565b6119495760405162461bcd60e51b8152600401610adc9061432f565b6000611954826126c7565b9050600a816000015111156119a0576119736110b4826000600a6126f4565b60008051602061450e83398151915214156119a05760405162461bcd60e51b8152600401610adc9061428a565b6119a8611794565b156119c55760405162461bcd60e51b8152600401610adc90614305565b611a4f8d8d8d8d8080601f016020809104026020016040519081016040528093929190818152602001838380828437600081840152601f19601f820116905080830192505050505050508c8c8c8c8c8c8080601f01602080910402602001604051908101604052809392919081815260200183838082843760009201919091525061286692505050565b50505050505050505050505050565b611a696108a6612409565b611a855760405162461bcd60e51b8152600401610adc906142d0565b60005b81811015610c0657611ab3838383818110610b1357634e487b7160e01b600052603260045260246000fd5b611aff5760405162461bcd60e51b815260206004820181905260248201527f4d696e74696e674d616e616765723a20544f4b454e5f49445f4e4f545f544c446044820152606401610adc565b60c9546001600160a01b031663d0bc28d7848484818110611b3057634e487b7160e01b600052603260045260246000fd5b905060200201356040518263ffffffff1660e01b8152600401611b5591815260200190565b600060405180830381600087803b158015611b6f57600080fd5b505af1158015611b83573d6000803e3d6000fd5b505050508080611b9290614471565b915050611a88565b611ba26129e1565b6112a160006130b1565b611bb46129e1565b60005b815181101561136657611bf0828281518110611be357634e487b7160e01b600052603260045260246000fd5b6020026020010151613099565b80611bfa81614471565b915050611bb7565b611c0d6108a6612409565b611c295760405162461bcd60e51b8152600401610adc906142d0565b6001600160a01b0381166118865760405162461bcd60e51b815260206004820152601d60248201527f4d696e746572526f6c653a2052454345495645525f49535f454d5054590000006044820152606401610adc565b611c876129e1565b6112a1613103565b8282828080601f016020809104026020016040519081016040528093929190818152602001838380828437600092019190915250611cd292508491506126a19050565b611cee5760405162461bcd60e51b8152600401610adc9061432f565b6000611cf9826126c7565b9050600a81600001511115611d4557611d186110b4826000600a6126f4565b60008051602061450e8339815191521415611d455760405162461bcd60e51b8152600401610adc9061428a565b611d4d611794565b15611d6a5760405162461bcd60e51b8152600401610adc90614305565b61161187876111288888612733565b611d816129e1565b6112a161316b565b60009182526097602090815260408084206001600160a01b0393909316845291905290205460ff1690565b611dbc6129e1565b6112d981613099565b6112a160008051602061452e8339815191526104fc612409565b611de76129e1565b60c954604051632678375f60e21b81526001600160a01b03909116906399e0dd7c90611e19908590859060040161425b565b600060405180830381600087803b158015611e3357600080fd5b505af1158015611e47573d6000803e3d6000fd5b505060cb546001600160a01b031615915061136690505760cb54604051632678375f60e21b81526001600160a01b03909116906399e0dd7c90611e90908590859060040161425b565b600060405180830381600087803b158015611eaa57600080fd5b505af1158015611023573d6000803e3d6000fd5b6000610aaf60008051602061452e83398151915283611d89565b611ee36108a6612409565b611eff5760405162461bcd60e51b8152600401610adc906142d0565b8282828080601f016020809104026020016040519081016040528093929190818152602001838380828437600092019190915250611f4292508491506126a19050565b611f5e5760405162461bcd60e51b8152600401610adc9061432f565b6000611f69826126c7565b9050600a81600001511115611fb557611f886110b4826000600a6126f4565b60008051602061450e8339815191521415611fb55760405162461bcd60e51b8152600401610adc9061428a565b611fbd611794565b15611fda5760405162461bcd60e51b8152600401610adc90614305565b611611878787878080601f01602080910402602001604051908101604052809392919081815260200183838082843760009201919091525061275f92505050565b6120266108a6612409565b6120425760405162461bcd60e51b8152600401610adc906142d0565b60c954604051635718c22560e11b81526001600160a01b039091169063ae31844a90611e909085908590600401614221565b600061207e610ce2565b158015610aaf5750604080517f1ec047073e2c8b15660901dbfdb6e3ff6365bd699dd9f95dcc6eab5448bebd6960208201529081018390526120d7906060015b6040516020818303038152906040528051906020012090565b5460ff1692915050565b6120e96129e1565b7f893ef2ea16c023f61d4f55d3e6ee3fc3f2fbfd478461323dbc2fbf919047086e80546001600160a01b0319166001600160a01b03831617905550565b61212e6129e1565b61136682828080601f01602080910402602001604051908101604052809392919081815260200183838082843760009201919091525061258192505050565b8686868080601f0160208091040260200160405190810160405280939291908181526020018383808284376000920191909152506121b092508491506126a19050565b6121cc5760405162461bcd60e51b8152600401610adc9061432f565b60006121d7826126c7565b9050600a81600001511115612223576121f66110b4826000600a6126f4565b60008051602061450e83398151915214156122235760405162461bcd60e51b8152600401610adc9061428a565b61222b611794565b156122485760405162461bcd60e51b8152600401610adc90614305565b6112848b8b6122578c8c612733565b8a8a8a8a612c3a565b6122686129e1565b60005b81811015610c065760c9546001600160a01b031663509602398484848181106122a457634e487b7160e01b600052603260045260246000fd5b90506020020160208101906122b99190613836565b6040516001600160e01b031960e084901b1681526001600160a01b039091166004820152602401600060405180830381600087803b1580156122fa57600080fd5b505af115801561230e573d6000803e3d6000fd5b50505050808061231d90614471565b91505061226b565b60008281526097602052604090206001015461234081612b05565b610c068383612bb5565b6123556108a6612409565b6123715760405162461bcd60e51b8152600401610adc906142d0565b61136682826131f4565b6123836129e1565b61238c816126a1565b6123a85760405162461bcd60e51b8152600401610adc9061432f565b600081815260cd602052604081206123bf916136cb565b60405181907f0aa1aff0f830e739d86baf0e6624d6763da02f7733575e0e463886cd062dea6a90600090a250565b6123f56129e1565b6123fe81613240565b6112d96000826132b6565b60006124136132c0565b905090565b600081815260cd60205260408120805482919061243490614436565b90501180610aaf5750507f7674e7282552c15f203b9c4a6025aeaf28176ef7f5451b280f9bada3f8bc98e21490565b600054610100900460ff1661248a5760405162461bcd60e51b8152600401610adc90614371565b6112a1612495612409565b6130b1565b600054610100900460ff166124c15760405162461bcd60e51b8152600401610adc90614371565b6112a160006124ce612409565b6132b6565b600054610100900460ff166120e95760405162461bcd60e51b8152600401610adc90614371565b600054610100900460ff166125215760405162461bcd60e51b8152600401610adc90614371565b60006000805160206144ee8339815191525b805460ff1916911515919091179055565b600054610100900460ff1661256b5760405162461bcd60e51b8152600401610adc90614371565b60006000805160206144ce833981519152612533565b600061258e600083613307565b600081815260cd6020908152604090912084519293506125b2929091850190613705565b50807f4fce6f6e172b04eaa80325d8e3b0180a34945000f3e214605039e8420fdf8980836040516125e39190614277565b60405180910390a260c954604051634f558e7960e01b8152600481018390526001600160a01b0390911690634f558e799060240160206040518083038186803b15801561262f57600080fd5b505afa158015612643573d6000803e3d6000fd5b505050506040513d601f19601f820116820180604052508101906126679190613bc4565b6113665760c9546040516334ff261960e21b81526001600160a01b039091169063d3fc986490611e909061dead908590879060040161405e565b600081815260cd6020526040812080548291906126bd90614436565b9050119050919050565b60408051808201825260008082526020918201528151808301909252825182529182019181019190915290565b6040805180820190915260008082526020820152604051806040016040528083815260200184866020015161272991906143bc565b9052949350505050565b60608282604051602001612748929190613efa565b604051602081830303815290604052905092915050565b600061276b8383613307565b9050612776816133bc565b61277f8361341e565b156127f25760ca5460cc5460405163c36c212560e01b81526001600160a01b039283169263c36c2125926127bb92899288921690600401613fe1565b600060405180830381600087803b1580156127d557600080fd5b505af11580156127e9573d6000803e3d6000fd5b50505050612860565b60c9546001600160a01b031663d3fc9864858361280f878761345c565b6040518463ffffffff1660e01b815260040161282d9392919061405e565b600060405180830381600087803b15801561284757600080fd5b505af115801561285b573d6000803e3d6000fd5b505050505b50505050565b60006128728888613307565b905061287d816133bc565b6128868861341e565b1561296e5760ca5460cc54604051630f95e75b60e31b81526001600160a01b0392831692637caf3ad8926128c4928e928d9216908890600401614016565b600060405180830381600087803b1580156128de57600080fd5b505af11580156128f2573d6000803e3d6000fd5b50508615915061296990505760cc54604051633a0deb9d60e21b81526001600160a01b039091169063e837ae749061293690899089908990899088906004016141e7565b600060405180830381600087803b15801561295057600080fd5b505af1158015612964573d6000803e3d6000fd5b505050505b611789565b60c9546001600160a01b031663efda4d3e8a8361298b8c8c61345c565b8a8a8a8a8a6040518963ffffffff1660e01b81526004016129b39897969594939291906140eb565b600060405180830381600087803b1580156129cd57600080fd5b505af1158015611a4f573d6000803e3d6000fd5b6129e9612409565b6001600160a01b0316612a046033546001600160a01b031690565b6001600160a01b0316146112a15760405162461bcd60e51b815260206004820181905260248201527f4f776e61626c653a2063616c6c6572206973206e6f7420746865206f776e65726044820152606401610adc565b612a62610ce2565b15612aa55760405162461bcd60e51b8152602060048201526013602482015272109b1bd8dadb1a5cdd0e88111254d050931151606a1b6044820152606401610adc565b6000805160206144ee833981519152805460ff191660011790557f079c4efaefd9fc7ddb28144b9b0140c03f42922d28d0e226369d607092158166612ae8612409565b6040516001600160a01b03909116815260200160405180910390a1565b6112d981612b11612409565b61347f565b612b208282611d89565b6113665760008281526097602090815260408083206001600160a01b03851684529091529020805460ff19166001179055612b59612409565b6001600160a01b0316816001600160a01b0316837f2f8788117e7eff1d82e926ec794901d17c78024a50270940304540a733656f0d60405160405180910390a45050565b6112d960008051602061452e83398151915282612325565b612bbf8282611d89565b156113665760008281526097602090815260408083206001600160a01b03851684529091529020805460ff19169055612bf6612409565b6001600160a01b0316816001600160a01b0316837ff6391f5c32d9c69d2a47ea670b442974b53935d1edc7fd64eb21e047a839171b60405160405180910390a45050565b6000612c468787613307565b9050612c51816133bc565b612c5a8761341e565b15612d405760ca5460cc5460405163c36c212560e01b81526001600160a01b039283169263c36c212592612c96928d928c921690600401613fe1565b600060405180830381600087803b158015612cb057600080fd5b505af1158015612cc4573d6000803e3d6000fd5b505085159150612d3b90505760cc54604051633a0deb9d60e21b81526001600160a01b039091169063e837ae7490612d0890889088908890889088906004016141e7565b600060405180830381600087803b158015612d2257600080fd5b505af1158015612d36573d6000803e3d6000fd5b505050505b61285b565b60c9546001600160a01b031663b0f591778983612d5d8b8b61345c565b898989896040518863ffffffff1660e01b8152600401612d83979695949392919061408e565b600060405180830381600087803b158015612d9d57600080fd5b505af1158015612db1573d6000803e3d6000fd5b505050505050505050505050565b612dc7611794565b612e0a5760405162461bcd60e51b815260206004820152601460248201527314185d5cd8589b194e881393d517d4105554d15160621b6044820152606401610adc565b6000805160206144ce833981519152805460ff191690557f5db9ee0a495bf2e6ff9c91a7834c1ba4fdd244a5e8aa4e537bd38aeae4b073aa612ae8612409565b612e52610ce2565b15612e955760405162461bcd60e51b8152602060048201526013602482015272109b1bd8dadb1a5cdd0e88111254d050931151606a1b6044820152606401610adc565b604080517f1ec047073e2c8b15660901dbfdb6e3ff6365bd699dd9f95dcc6eab5448bebd696020820152908101829052600190612ed4906060016120be565b805460ff19169115159190911790556040518181527f2ce5d9351b1d590d5a066db0d2dc7602d55f092506a83a7ee8c4d78ee357d75a9060200160405180910390a150565b6000612f5b8585858080601f01602080910402602001604051908101604052809392919081815260200183838082843760009201919091525061330792505050565b9050612f66816133bc565b612f6f8561341e565b15612fe75760ca5460cc54604051630f95e75b60e31b81526001600160a01b0392831692637caf3ad892612fb0928b928a928a929116908990600401613f97565b600060405180830381600087803b158015612fca57600080fd5b505af1158015612fde573d6000803e3d6000fd5b50505050611023565b60c954604080516020601f87018190048102820181019092528581526001600160a01b039092169163b55bc617918991859161303f918b918b908b908190840183828082843760009201919091525061345c92505050565b866040518563ffffffff1660e01b815260040161305f949392919061415d565b600060405180830381600087803b15801561307957600080fd5b505af115801561308d573d6000803e3d6000fd5b50505050505050505050565b6112d960008051602061452e833981519152826132b6565b603380546001600160a01b038381166001600160a01b0319831681179093556040519116919082907f8be0079c531659141344cd1fd0a4f28419497f9722a3daafe3b4186f6b6457e090600090a35050565b61310b611794565b156131285760405162461bcd60e51b8152600401610adc90614305565b6000805160206144ce833981519152805460ff191660011790557f62e78cea01bee320cd4e420270b5ea74000d11b0c9f74754ebdbfc544b05a258612ae8612409565b613173610ce2565b6131b45760405162461bcd60e51b8152602060048201526012602482015271109b1bd8dadb1a5cdd0e881153905093115160721b6044820152606401610adc565b6000805160206144ee833981519152805460ff191690557f316c4cec74b9568f102eda30781a2fe8cd5172329bf1401e804cb8c5131715c4612ae8612409565b60005b81811015610c065761322e83838381811061322257634e487b7160e01b600052603260045260246000fd5b90506020020135612e4a565b8061323881614471565b9150506131f7565b6132486129e1565b6001600160a01b0381166132ad5760405162461bcd60e51b815260206004820152602660248201527f4f776e61626c653a206e6577206f776e657220697320746865207a65726f206160448201526564647265737360d01b6064820152608401610adc565b6112d9816130b1565b6113668282612b16565b7f893ef2ea16c023f61d4f55d3e6ee3fc3f2fbfd478461323dbc2fbf919047086e546000906001600160a01b0316331415613302575060331936013560601c90565b503390565b600081516000141561335b5760405162461bcd60e51b815260206004820152601b60248201527f4d696e74696e674d616e616765723a204c4142454c5f454d50545900000000006044820152606401610adc565b828260405160200161336d9190613e20565b6040516020818303038152906040528051906020012060405160200161339d929190918252602082015260400190565b60408051601f1981840301815291905280516020909101209392505050565b6133c4610ce2565b6112d9576133d181612074565b156114ea5760405162461bcd60e51b815260206004820152601d60248201527f4d696e74696e674d616e616765723a20544f4b454e5f424c4f434b45440000006044820152606401610adc565b60ca546000906001600160a01b031615801590610aaf5750507f0f4a10a4f46c288cea365fcf45cccf0e9d901b945b9829ccdb54c10dc3cb7a6f1490565b600082815260cd6020908152604091829020915160609261274892859201613e3c565b6134898282611d89565b611366576134a1816001600160a01b031660146134e3565b6134ac8360206134e3565b6040516020016134bd929190613f22565b60408051601f198184030181529082905262461bcd60e51b8252610adc91600401614277565b606060006134f28360026143d4565b6134fd9060026143bc565b6001600160401b0381111561352257634e487b7160e01b600052604160045260246000fd5b6040519080825280601f01601f19166020018201604052801561354c576020820181803683370190505b509050600360fc1b8160008151811061357557634e487b7160e01b600052603260045260246000fd5b60200101906001600160f81b031916908160001a905350600f60fb1b816001815181106135b257634e487b7160e01b600052603260045260246000fd5b60200101906001600160f81b031916908160001a90535060006135d68460026143d4565b6135e19060016143bc565b90505b6001811115613675576f181899199a1a9b1b9c1cb0b131b232b360811b85600f166010811061362357634e487b7160e01b600052603260045260246000fd5b1a60f81b82828151811061364757634e487b7160e01b600052603260045260246000fd5b60200101906001600160f81b031916908160001a90535060049490941c9361366e8161441f565b90506135e4565b5083156136c45760405162461bcd60e51b815260206004820181905260248201527f537472696e67733a20686578206c656e67746820696e73756666696369656e746044820152606401610adc565b9392505050565b5080546136d790614436565b6000825580601f106136e7575050565b601f0160209004906000526020600020908101906112d99190613789565b82805461371190614436565b90600052602060002090601f0160209004810192826137335760008555613779565b82601f1061374c57805160ff1916838001178555613779565b82800160010185558215613779579182015b8281111561377957825182559160200191906001019061375e565b50613785929150613789565b5090565b5b80821115613785576000815560010161378a565b80356137a9816144b8565b919050565b60008083601f8401126137bf578081fd5b5081356001600160401b038111156137d5578182fd5b6020830191508360208260051b85010111156137f057600080fd5b9250929050565b60008083601f840112613808578182fd5b5081356001600160401b0381111561381e578182fd5b6020830191508360208285010111156137f057600080fd5b600060208284031215613847578081fd5b81356136c4816144b8565b60008060008060608587031215613867578283fd5b8435613872816144b8565b93506020850135925060408501356001600160401b03811115613893578283fd5b61389f878288016137f7565b95989497509550505050565b60008060008060008060008060a0898b0312156138c6578384fd5b88356138d1816144b8565b97506020890135965060408901356001600160401b03808211156138f3578586fd5b6138ff8c838d016137f7565b909850965060608b0135915080821115613917578586fd5b6139238c838d016137ae565b909650945060808b013591508082111561393b578384fd5b506139488b828c016137ae565b999c989b5096995094979396929594505050565b60008060008060008060008060008060c08b8d03121561397a578182fd5b6139838b61379e565b995060208b0135985060408b01356001600160401b03808211156139a5578384fd5b6139b18e838f016137f7565b909a50985060608d01359150808211156139c9578384fd5b6139d58e838f016137ae565b909850965060808d01359150808211156139ed578384fd5b6139f98e838f016137ae565b909650945060a08d0135915080821115613a11578384fd5b50613a1e8d828e016137f7565b915080935050809150509295989b9194979a5092959850565b60008060008060008060808789031215613a4f578182fd5b8635613a5a816144b8565b95506020870135945060408701356001600160401b0380821115613a7c578384fd5b613a888a838b016137f7565b90965094506060890135915080821115613aa0578384fd5b50613aad89828a016137f7565b979a9699509497509295939492505050565b60008060208385031215613ad1578182fd5b82356001600160401b03811115613ae6578283fd5b613af2858286016137ae565b90969095509350505050565b60006020808385031215613b10578182fd5b82356001600160401b0380821115613b26578384fd5b818501915085601f830112613b39578384fd5b813581811115613b4b57613b4b6144a2565b8060051b604051601f19603f83011681018181108582111715613b7057613b706144a2565b604052828152858101935084860182860187018a1015613b8e578788fd5b8795505b83861015613bb757613ba38161379e565b855260019590950194938601938601613b92565b5098975050505050505050565b600060208284031215613bd5578081fd5b815180151581146136c4578182fd5b600060208284031215613bf5578081fd5b5035919050565b60008060408385031215613c0e578182fd5b823591506020830135613c20816144b8565b809150509250929050565b600060208284031215613c3c578081fd5b81356001600160e01b0319811681146136c4578182fd5b600080600080600060a08688031215613c6a578283fd5b8535613c75816144b8565b94506020860135613c85816144b8565b93506040860135613c95816144b8565b92506060860135613ca5816144b8565b91506080860135613cb5816144b8565b809150509295509295909350565b60008060208385031215613cd5578182fd5b82356001600160401b03811115613cea578283fd5b613af2858286016137f7565b600080600060408486031215613d0a578081fd5b8335925060208401356001600160401b03811115613d26578182fd5b613d32868287016137f7565b9497909650939450505050565b81835260006020808501808196508560051b8101915084845b87811015613dbe5782840389528135601e19883603018112613d78578687fd5b870180356001600160401b03811115613d8f578788fd5b803603891315613d9d578788fd5b613daa8682898501613df7565b9a87019a9550505090840190600101613d58565b5091979650505050505050565b60008151808452613de38160208601602086016143f3565b601f01601f19169290920160200192915050565b81835281816020850137506000828201602090810191909152601f909101601f19169091010190565b60008251613e328184602087016143f3565b9190910192915050565b600083516020613e4f82858389016143f3565b601760f91b9184019182528454600190849080831c81841680613e7357607f821691505b858210811415613e9157634e487b7160e01b88526022600452602488fd5b808015613ea55760018114613eba57613eea565b60ff1984168887015282880186019450613eea565b60008b815260209020895b84811015613ee05781548a8201890152908701908801613ec5565b5050858389010194505b50929a9950505050505050505050565b6b756e732d646576746573742d60a01b81528183600c83013760009101600c01908152919050565b7f416363657373436f6e74726f6c3a206163636f756e7420000000000000000000815260008351613f5a8160178501602088016143f3565b7001034b99036b4b9b9b4b733903937b6329607d1b6017918401918201528351613f8b8160288401602088016143f3565b01602801949350505050565b600060018060a01b03808816835260806020840152613fba608084018789613df7565b81861660408501528381036060850152613fd48186613dcb565b9998505050505050505050565b600060018060a01b038086168352606060208401526140036060840186613dcb565b9150808416604084015250949350505050565b600060018060a01b038087168352608060208401526140386080840187613dcb565b818616604085015283810360608501526140528186613dcb565b98975050505050505050565b60018060a01b03841681528260208201526060604082015260006140856060830184613dcb565b95945050505050565b60018060a01b038816815286602082015260a0604082015260006140b560a0830188613dcb565b82810360608401526140c8818789613d3f565b905082810360808401526140dd818587613d3f565b9a9950505050505050505050565b60018060a01b038916815287602082015260c06040820152600061411260c0830189613dcb565b828103606084015261412581888a613d3f565b9050828103608084015261413a818688613d3f565b905082810360a084015261414e8185613dcb565b9b9a5050505050505050505050565b60018060a01b03851681528360208201526080604082015260006141846080830185613dcb565b82810360608401526141968185613dcb565b979650505050505050565b6020808252825182820181905260009190848201906040850190845b818110156141db5783511515835292840192918401916001016141bd565b50909695505050505050565b6060815260006141fb606083018789613d3f565b828103602084015261420e818688613d3f565b9150508260408301529695505050505050565b6020808252810182905260006001600160fb1b03831115614240578081fd5b8260051b808560408501379190910160400190815292915050565b60208152600061426f602083018486613df7565b949350505050565b6020815260006136c46020830184613dcb565b60208082526026908201527f4d696e74696e674d616e616765723a20544f4b454e5f4c4142454c5f50524f4860408201526512509255115160d21b606082015260800190565b6020808252818101527f4d696e746572526f6c653a2043414c4c45525f49535f4e4f545f4d494e544552604082015260600190565b60208082526010908201526f14185d5cd8589b194e8814105554d15160821b604082015260600190565b60208082526022908201527f4d696e74696e674d616e616765723a20544c445f4e4f545f5245474953544552604082015261115160f21b606082015260800190565b6020808252602b908201527f496e697469616c697a61626c653a20636f6e7472616374206973206e6f74206960408201526a6e697469616c697a696e6760a81b606082015260800190565b600082198211156143cf576143cf61448c565b500190565b60008160001904831182151516156143ee576143ee61448c565b500290565b60005b8381101561440e5781810151838201526020016143f6565b838111156128605750506000910152565b60008161442e5761442e61448c565b506000190190565b600181811c9082168061444a57607f821691505b6020821081141561446b57634e487b7160e01b600052602260045260246000fd5b50919050565b60006000198214156144855761448561448c565b5060010190565b634e487b7160e01b600052601160045260246000fd5b634e487b7160e01b600052604160045260246000fd5b6001600160a01b03811681146112d957600080fdfe5496787fc1ebdfeba375028c1865f13fbb1d63c0caa356ccc1b29a80f3ebd622a85b8425a460dd344a297bd4a82e287385f0fc558cb3e78867b0489f43df2470b551e0305c8163b812374b8e78b577c77f226f6f10c5ad03e52699578fbc34b89f2df0fed2c77648de5860a4cc508cd0818c85b8b8a1ab4ceeef8d981c8956a6a164736f6c6343000804000a",
  "linkReferences": {},
  "deployedLinkReferences": {}
}