{
  "_format": "hh-sol-artifact-1",
  "contractName": "MintingManager",
  "sourceName": "contracts/MintingManager.sol",
  "abi": [
    {
      "anonymous": false,
      "inputs": [
        {
          "indexed": true,
          "internalType": "address",
          "name": "previousOwner",
          "type": "address"
        },
        {
          "indexed": true,
          "internalType": "address",
          "name": "newOwner",
          "type": "address"
        }
      ],
      "name": "OwnershipTransferred",
      "type": "event"
    },
    {
      "anonymous": false,
      "inputs": [
        {
          "indexed": true,
          "internalType": "address",
          "name": "sender",
          "type": "address"
        },
        {
          "indexed": true,
          "internalType": "address",
          "name": "signer",
          "type": "address"
        },
        {
          "indexed": true,
          "internalType": "bytes4",
          "name": "funcSig",
          "type": "bytes4"
        },
        {
          "indexed": false,
          "internalType": "bytes32",
          "name": "digest",
          "type": "bytes32"
        }
      ],
      "name": "Relayed",
      "type": "event"
    },
    {
      "anonymous": false,
      "inputs": [
        {
          "indexed": true,
          "internalType": "bytes32",
          "name": "role",
          "type": "bytes32"
        },
        {
          "indexed": true,
          "internalType": "bytes32",
          "name": "previousAdminRole",
          "type": "bytes32"
        },
        {
          "indexed": true,
          "internalType": "bytes32",
          "name": "newAdminRole",
          "type": "bytes32"
        }
      ],
      "name": "RoleAdminChanged",
      "type": "event"
    },
    {
      "anonymous": false,
      "inputs": [
        {
          "indexed": true,
          "internalType": "bytes32",
          "name": "role",
          "type": "bytes32"
        },
        {
          "indexed": true,
          "internalType": "address",
          "name": "account",
          "type": "address"
        },
        {
          "indexed": true,
          "internalType": "address",
          "name": "sender",
          "type": "address"
        }
      ],
      "name": "RoleGranted",
      "type": "event"
    },
    {
      "anonymous": false,
      "inputs": [
        {
          "indexed": true,
          "internalType": "bytes32",
          "name": "role",
          "type": "bytes32"
        },
        {
          "indexed": true,
          "internalType": "address",
          "name": "account",
          "type": "address"
        },
        {
          "indexed": true,
          "internalType": "address",
          "name": "sender",
          "type": "address"
        }
      ],
      "name": "RoleRevoked",
      "type": "event"
    },
    {
      "inputs": [],
      "name": "DEFAULT_ADMIN_ROLE",
      "outputs": [
        {
          "internalType": "bytes32",
          "name": "",
          "type": "bytes32"
        }
      ],
      "stateMutability": "view",
      "type": "function"
    },
    {
      "inputs": [],
      "name": "MINTER_ROLE",
      "outputs": [
        {
          "internalType": "bytes32",
          "name": "",
          "type": "bytes32"
        }
      ],
      "stateMutability": "view",
      "type": "function"
    },
    {
      "inputs": [],
      "name": "NAME",
      "outputs": [
        {
          "internalType": "string",
          "name": "",
          "type": "string"
        }
      ],
      "stateMutability": "view",
      "type": "function"
    },
    {
      "inputs": [],
      "name": "VERSION",
      "outputs": [
        {
          "internalType": "string",
          "name": "",
          "type": "string"
        }
      ],
      "stateMutability": "view",
      "type": "function"
    },
    {
      "inputs": [
        {
          "internalType": "address",
          "name": "account",
          "type": "address"
        }
      ],
      "name": "addMinter",
      "outputs": [],
      "stateMutability": "nonpayable",
      "type": "function"
    },
    {
      "inputs": [
        {
          "internalType": "address[]",
          "name": "accounts",
          "type": "address[]"
        }
      ],
      "name": "addMinters",
      "outputs": [],
      "stateMutability": "nonpayable",
      "type": "function"
    },
    {
      "inputs": [
        {
          "internalType": "uint256",
          "name": "tld",
          "type": "uint256"
        },
        {
          "internalType": "string",
          "name": "label",
          "type": "string"
        }
      ],
      "name": "claim",
      "outputs": [],
      "stateMutability": "nonpayable",
      "type": "function"
    },
    {
      "inputs": [
        {
          "internalType": "address",
          "name": "to",
          "type": "address"
        },
        {
          "internalType": "uint256",
          "name": "tld",
          "type": "uint256"
        },
        {
          "internalType": "string",
          "name": "label",
          "type": "string"
        }
      ],
      "name": "claimTo",
      "outputs": [],
      "stateMutability": "nonpayable",
      "type": "function"
    },
    {
      "inputs": [
        {
          "internalType": "address",
          "name": "to",
          "type": "address"
        },
        {
          "internalType": "uint256",
          "name": "tld",
          "type": "uint256"
        },
        {
          "internalType": "string",
          "name": "label",
          "type": "string"
        },
        {
          "internalType": "string[]",
          "name": "keys",
          "type": "string[]"
        },
        {
          "internalType": "string[]",
          "name": "values",
          "type": "string[]"
        }
      ],
      "name": "claimToWithRecords",
      "outputs": [],
      "stateMutability": "nonpayable",
      "type": "function"
    },
    {
      "inputs": [
        {
          "internalType": "address payable",
          "name": "receiver",
          "type": "address"
        }
      ],
      "name": "closeMinter",
      "outputs": [],
      "stateMutability": "payable",
      "type": "function"
    },
    {
      "inputs": [],
      "name": "cnsMintingController",
      "outputs": [
        {
          "internalType": "contract IMintingController",
          "name": "",
          "type": "address"
        }
      ],
      "stateMutability": "view",
      "type": "function"
    },
    {
      "inputs": [],
      "name": "cnsResolver",
      "outputs": [
        {
          "internalType": "contract IResolver",
          "name": "",
          "type": "address"
        }
      ],
      "stateMutability": "view",
      "type": "function"
    },
    {
      "inputs": [],
      "name": "cnsURIPrefixController",
      "outputs": [
        {
          "internalType": "contract IURIPrefixController",
          "name": "",
          "type": "address"
        }
      ],
      "stateMutability": "view",
      "type": "function"
    },
    {
      "inputs": [
        {
          "internalType": "bytes32",
          "name": "role",
          "type": "bytes32"
        }
      ],
      "name": "getRoleAdmin",
      "outputs": [
        {
          "internalType": "bytes32",
          "name": "",
          "type": "bytes32"
        }
      ],
      "stateMutability": "view",
      "type": "function"
    },
    {
      "inputs": [
        {
          "internalType": "bytes32",
          "name": "role",
          "type": "bytes32"
        },
        {
          "internalType": "address",
          "name": "account",
          "type": "address"
        }
      ],
      "name": "grantRole",
      "outputs": [],
      "stateMutability": "nonpayable",
      "type": "function"
    },
    {
      "inputs": [
        {
          "internalType": "bytes32",
          "name": "role",
          "type": "bytes32"
        },
        {
          "internalType": "address",
          "name": "account",
          "type": "address"
        }
      ],
      "name": "hasRole",
      "outputs": [
        {
          "internalType": "bool",
          "name": "",
          "type": "bool"
        }
      ],
      "stateMutability": "view",
      "type": "function"
    },
    {
      "inputs": [],
      "name": "initAdmin",
      "outputs": [],
      "stateMutability": "nonpayable",
      "type": "function"
    },
    {
      "inputs": [
        {
          "internalType": "contract IUNSRegistry",
          "name": "unsRegistry_",
          "type": "address"
        },
        {
          "internalType": "contract IMintingController",
          "name": "cnsMintingController_",
          "type": "address"
        },
        {
          "internalType": "contract IURIPrefixController",
          "name": "cnsURIPrefixController_",
          "type": "address"
        },
        {
          "internalType": "contract IResolver",
          "name": "cnsResolver_",
          "type": "address"
        }
      ],
      "name": "initialize",
      "outputs": [],
      "stateMutability": "nonpayable",
      "type": "function"
    },
    {
      "inputs": [
        {
          "internalType": "address",
          "name": "account",
          "type": "address"
        }
      ],
      "name": "isMinter",
      "outputs": [
        {
          "internalType": "bool",
          "name": "",
          "type": "bool"
        }
      ],
      "stateMutability": "view",
      "type": "function"
    },
    {
      "inputs": [
        {
          "internalType": "address",
          "name": "to",
          "type": "address"
        },
        {
          "internalType": "uint256",
          "name": "tld",
          "type": "uint256"
        },
        {
          "internalType": "string",
          "name": "label",
          "type": "string"
        }
      ],
      "name": "mintSLD",
      "outputs": [],
      "stateMutability": "nonpayable",
      "type": "function"
    },
    {
      "inputs": [
        {
          "internalType": "address",
          "name": "to",
          "type": "address"
        },
        {
          "internalType": "uint256",
          "name": "tld",
          "type": "uint256"
        },
        {
          "internalType": "string",
          "name": "label",
          "type": "string"
        },
        {
          "internalType": "string[]",
          "name": "keys",
          "type": "string[]"
        },
        {
          "internalType": "string[]",
          "name": "values",
          "type": "string[]"
        }
      ],
      "name": "mintSLDWithRecords",
      "outputs": [],
      "stateMutability": "nonpayable",
      "type": "function"
    },
    {
      "inputs": [],
      "name": "owner",
      "outputs": [
        {
          "internalType": "address",
          "name": "",
          "type": "address"
        }
      ],
      "stateMutability": "view",
      "type": "function"
    },
    {
      "inputs": [
        {
          "internalType": "bytes",
          "name": "data",
          "type": "bytes"
        },
        {
          "internalType": "bytes",
          "name": "signature",
          "type": "bytes"
        }
      ],
      "name": "relay",
      "outputs": [
        {
          "internalType": "bytes",
          "name": "",
          "type": "bytes"
        }
      ],
      "stateMutability": "nonpayable",
      "type": "function"
    },
    {
      "inputs": [
        {
          "internalType": "address",
          "name": "account",
          "type": "address"
        }
      ],
      "name": "removeMinter",
      "outputs": [],
      "stateMutability": "nonpayable",
      "type": "function"
    },
    {
      "inputs": [
        {
          "internalType": "address[]",
          "name": "accounts",
          "type": "address[]"
        }
      ],
      "name": "removeMinters",
      "outputs": [],
      "stateMutability": "nonpayable",
      "type": "function"
    },
    {
      "inputs": [],
      "name": "renounceMinter",
      "outputs": [],
      "stateMutability": "nonpayable",
      "type": "function"
    },
    {
      "inputs": [],
      "name": "renounceOwnership",
      "outputs": [],
      "stateMutability": "nonpayable",
      "type": "function"
    },
    {
      "inputs": [
        {
          "internalType": "bytes32",
          "name": "role",
          "type": "bytes32"
        },
        {
          "internalType": "address",
          "name": "account",
          "type": "address"
        }
      ],
      "name": "renounceRole",
      "outputs": [],
      "stateMutability": "nonpayable",
      "type": "function"
    },
    {
      "inputs": [
        {
          "internalType": "bytes32",
          "name": "role",
          "type": "bytes32"
        },
        {
          "internalType": "address",
          "name": "account",
          "type": "address"
        }
      ],
      "name": "revokeRole",
      "outputs": [],
      "stateMutability": "nonpayable",
      "type": "function"
    },
    {
      "inputs": [
        {
          "internalType": "address payable",
          "name": "receiver",
          "type": "address"
        }
      ],
      "name": "rotateMinter",
      "outputs": [],
      "stateMutability": "payable",
      "type": "function"
    },
    {
      "inputs": [
        {
          "internalType": "address",
          "name": "to",
          "type": "address"
        },
        {
          "internalType": "uint256",
          "name": "tld",
          "type": "uint256"
        },
        {
          "internalType": "string",
          "name": "label",
          "type": "string"
        }
      ],
      "name": "safeMintSLD",
      "outputs": [],
      "stateMutability": "nonpayable",
      "type": "function"
    },
    {
      "inputs": [
        {
          "internalType": "address",
          "name": "to",
          "type": "address"
        },
        {
          "internalType": "uint256",
          "name": "tld",
          "type": "uint256"
        },
        {
          "internalType": "string",
          "name": "label",
          "type": "string"
        },
        {
          "internalType": "bytes",
          "name": "data",
          "type": "bytes"
        }
      ],
      "name": "safeMintSLD",
      "outputs": [],
      "stateMutability": "nonpayable",
      "type": "function"
    },
    {
      "inputs": [
        {
          "internalType": "address",
          "name": "to",
          "type": "address"
        },
        {
          "internalType": "uint256",
          "name": "tld",
          "type": "uint256"
        },
        {
          "internalType": "string",
          "name": "label",
          "type": "string"
        },
        {
          "internalType": "string[]",
          "name": "keys",
          "type": "string[]"
        },
        {
          "internalType": "string[]",
          "name": "values",
          "type": "string[]"
        }
      ],
      "name": "safeMintSLDWithRecords",
      "outputs": [],
      "stateMutability": "nonpayable",
      "type": "function"
    },
    {
      "inputs": [
        {
          "internalType": "address",
          "name": "to",
          "type": "address"
        },
        {
          "internalType": "uint256",
          "name": "tld",
          "type": "uint256"
        },
        {
          "internalType": "string",
          "name": "label",
          "type": "string"
        },
        {
          "internalType": "string[]",
          "name": "keys",
          "type": "string[]"
        },
        {
          "internalType": "string[]",
          "name": "values",
          "type": "string[]"
        },
        {
          "internalType": "bytes",
          "name": "data",
          "type": "bytes"
        }
      ],
      "name": "safeMintSLDWithRecords",
      "outputs": [],
      "stateMutability": "nonpayable",
      "type": "function"
    },
    {
      "inputs": [
        {
          "internalType": "address",
          "name": "resolver",
          "type": "address"
        }
      ],
      "name": "setResolver",
      "outputs": [],
      "stateMutability": "nonpayable",
      "type": "function"
    },
    {
      "inputs": [
        {
          "internalType": "string",
          "name": "prefix",
          "type": "string"
        }
      ],
      "name": "setTokenURIPrefix",
      "outputs": [],
      "stateMutability": "nonpayable",
      "type": "function"
    },
    {
      "inputs": [
        {
          "internalType": "bytes4",
          "name": "interfaceId",
          "type": "bytes4"
        }
      ],
      "name": "supportsInterface",
      "outputs": [
        {
          "internalType": "bool",
          "name": "",
          "type": "bool"
        }
      ],
      "stateMutability": "view",
      "type": "function"
    },
    {
      "inputs": [
        {
          "internalType": "address",
          "name": "newOwner",
          "type": "address"
        }
      ],
      "name": "transferOwnership",
      "outputs": [],
      "stateMutability": "nonpayable",
      "type": "function"
    },
    {
      "inputs": [],
      "name": "unsRegistry",
      "outputs": [
        {
          "internalType": "contract IUNSRegistry",
          "name": "",
          "type": "address"
        }
      ],
      "stateMutability": "view",
      "type": "function"
    }
  ],
  "bytecode": "0x608060405234801561001057600080fd5b506138ca806100206000396000f3fe6080604052600436106102305760003560e01c806381c81d351161012e578063aa271e1a116100ab578063d53913931161006f578063d53913931461062c578063d547741f14610641578063f2fde38b14610661578063f8c8765e14610681578063ffa1ad74146106a157610230565b8063aa271e1a146105a2578063ad2c41bb146105c2578063ae2ad903146105d7578063cc2c3fc4146105f7578063ceeb4f501461060c57610230565b806398650275116100f2578063986502751461052e57806399e0dd7c14610543578063a217fddf14610563578063a3f4df7e14610578578063a849d65c1461058d57610230565b806381c81d35146104a65780638da5cb5b146104b9578063906cecc1146104ce57806391d14854146104ee578063983b2d561461050e57610230565b80634c1819e0116101bc5780635fc1964f116101805780635fc1964f1461041e578063634486da1461043e5780636a2d225614610451578063715018a61461047157806371e2a6571461048657610230565b80634c1819e01461037c5780634e543b261461039c578063564a5158146103bc57806358839d6b146103e95780635b6fa8db1461040957610230565b80632f2ff15d116102035780632f2ff15d146102da5780633092afd5146102fa57806336568abe1461031a57806339ccf4d01461033a5780633f41b6141461035a57610230565b806301ffc9a714610235578063248a9ca31461026b578063268b15ed1461029857806327bbd225146102ba575b600080fd5b34801561024157600080fd5b50610255610250366004612c72565b6106b6565b60405161026291906132f1565b60405180910390f35b34801561027757600080fd5b5061028b610286366004612c2b565b6106e3565b60405161026291906132fc565b3480156102a457600080fd5b506102b86102b3366004612d92565b6106f8565b005b3480156102c657600080fd5b506102b86102d5366004612933565b61075e565b3480156102e657600080fd5b506102b86102f5366004612c43565b610821565b34801561030657600080fd5b506102b86103153660046128bd565b61084a565b34801561032657600080fd5b506102b8610335366004612c43565b610895565b34801561034657600080fd5b506102b8610355366004612933565b6108db565b34801561036657600080fd5b5061036f610985565b60405161026291906130a2565b34801561038857600080fd5b506102b86103973660046128d9565b610994565b3480156103a857600080fd5b506102b86103b73660046128bd565b610a1a565b3480156103c857600080fd5b506103dc6103d7366004612c9a565b610a7b565b6040516102629190613323565b3480156103f557600080fd5b506102b8610404366004612ac1565b610c46565b34801561041557600080fd5b5061036f610cf5565b34801561042a57600080fd5b506102b8610439366004612b4a565b610d04565b6102b861044c3660046128bd565b610d91565b34801561045d57600080fd5b506102b861046c3660046129e5565b610e24565b34801561047d57600080fd5b506102b8610f11565b34801561049257600080fd5b506102b86104a1366004612b4a565b610f9a565b6102b86104b43660046128bd565b611027565b3480156104c557600080fd5b5061036f611074565b3480156104da57600080fd5b506102b86104e93660046128d9565b611083565b3480156104fa57600080fd5b50610255610509366004612c43565b6110ce565b34801561051a57600080fd5b506102b86105293660046128bd565b6110f9565b34801561053a57600080fd5b506102b8611141565b34801561054f57600080fd5b506102b861055e366004612d52565b61115d565b34801561056f57600080fd5b5061028b61127b565b34801561058457600080fd5b506103dc611280565b34801561059957600080fd5b5061036f6112b0565b3480156105ae57600080fd5b506102556105bd3660046128bd565b6112bf565b3480156105ce57600080fd5b506102b86112d9565b3480156105e357600080fd5b506102b86105f23660046128d9565b61132a565b34801561060357600080fd5b5061036f6113ce565b34801561061857600080fd5b506102b8610627366004612933565b6113dd565b34801561063857600080fd5b5061028b611431565b34801561064d57600080fd5b506102b861065c366004612c43565b611443565b34801561066d57600080fd5b506102b861067c3660046128bd565b611462565b34801561068d57600080fd5b506102b861069c366004612cf7565b61146b565b3480156106ad57600080fd5b506103dc611899565b60006001600160e01b03198216637965db0b60e01b14806106db57506106db826118ba565b90505b919050565b60009081526097602052604090206001015490565b600083815260cd60205260408120805485929190610715906137bd565b90501161073d5760405162461bcd60e51b8152600401610734906136a6565b60405180910390fd5b6107586107486118d3565b8561075386866118d7565b611903565b50505050565b6107696105bd6118d3565b6107855760405162461bcd60e51b81526004016107349061357f565b600087815260cd602052604081208054899291906107a2906137bd565b9050116107c15760405162461bcd60e51b8152600401610734906136a6565b610816898989898080601f016020809104026020016040519081016040528093929190818152602001838380828437600092018290525060408051602081019091529081528c93508b92508a915089906119f9565b505050505050505050565b61082a826106e3565b61083b816108366118d3565b611b82565b6108458383611be6565b505050565b6108526118d3565b6001600160a01b0316610863611074565b6001600160a01b0316146108895760405162461bcd60e51b81526004016107349061363a565b61089281611c6d565b50565b61089d6118d3565b6001600160a01b0316816001600160a01b0316146108cd5760405162461bcd60e51b8152600401610734906136e8565b6108d78282611c85565b5050565b6108e66105bd6118d3565b6109025760405162461bcd60e51b81526004016107349061357f565b600087815260cd6020526040812080548992919061091f906137bd565b90501161093e5760405162461bcd60e51b8152600401610734906136a6565b610816898989898080601f0160208091040260200160405190810160405280939291908181526020018383808284376000920191909152508b92508a915089905088611d0a565b60c9546001600160a01b031681565b61099f6105bd6118d3565b6109bb5760405162461bcd60e51b81526004016107349061357f565b600083815260cd602052604081208054859291906109d8906137bd565b9050116109f75760405162461bcd60e51b8152600401610734906136a6565b610a138585858560405180602001604052806000815250611e8f565b5050505050565b610a226118d3565b6001600160a01b0316610a33611074565b6001600160a01b031614610a595760405162461bcd60e51b81526004016107349061363a565b60cc80546001600160a01b0319166001600160a01b0392909216919091179055565b606060008585604051610a8f929190612edd565b604051809103902090506000610b0c85858080601f01602080910402602001604051908101604052809392919081815260200183838082843760009201919091525050604051610b069250610aeb915086903090602001612ebd565b60405160208183030381529060405280519060200120611ffd565b9061202d565b905060008088888080601f016020809104026020016040519081016040528093929190818152602001838380828437600092019190915250505050602081015192509050610b59836120b3565b610b64828a8a6120e1565b600080306001600160a01b03168b8b604051610b81929190612edd565b6000604051808303816000865af19150503d8060008114610bbe576040519150601f19603f3d011682016040523d82523d6000602084013e610bc3565b606091505b50909250905081610bdb576040513d806000833e8082fd5b6001600160e01b031984166001600160a01b038616610bf86118d3565b6001600160a01b03167f9490f91465d0d2c12728b9ad47d5f1dd2ac3ef39394796e54a48b94db0b3372589604051610c3091906132fc565b60405180910390a49a9950505050505050505050565b610c516105bd6118d3565b610c6d5760405162461bcd60e51b81526004016107349061357f565b600085815260cd60205260408120805487929190610c8a906137bd565b905011610ca95760405162461bcd60e51b8152600401610734906136a6565b610cec8787878787878080601f016020809104026020016040519081016040528093929190818152602001838380828437600092019190915250611e8f92505050565b50505050505050565b60cc546001600160a01b031681565b610d0c6118d3565b6001600160a01b0316610d1d611074565b6001600160a01b031614610d435760405162461bcd60e51b81526004016107349061363a565b60005b81518110156108d757610d7f828281518110610d7257634e487b7160e01b600052603260045260246000fd5b6020026020010151611c6d565b80610d89816137f8565b915050610d46565b610d9c6105bd6118d3565b610db85760405162461bcd60e51b81526004016107349061357f565b6001600160a01b038116610dde5760405162461bcd60e51b8152600401610734906134b8565b610de78161219d565b610def611141565b6040516001600160a01b038216903480156108fc02916000818181858888f193505050501580156108d7573d6000803e3d6000fd5b610e2f6105bd6118d3565b610e4b5760405162461bcd60e51b81526004016107349061357f565b600089815260cd6020526040812080548b929190610e68906137bd565b905011610e875760405162461bcd60e51b8152600401610734906136a6565b610f048b8b8b8b8080601f01602080910402602001604051908101604052809392919081815260200183838082843760009201919091525050604080516020601f8b018190048102820181019092528981528e93508d92508c918c91908c908c90819084018382808284376000920191909152506119f992505050565b5050505050505050505050565b610f196118d3565b6001600160a01b0316610f2a611074565b6001600160a01b031614610f505760405162461bcd60e51b81526004016107349061363a565b6033546040516000916001600160a01b0316907f8be0079c531659141344cd1fd0a4f28419497f9722a3daafe3b4186f6b6457e0908390a3603380546001600160a01b0319169055565b610fa26118d3565b6001600160a01b0316610fb3611074565b6001600160a01b031614610fd95760405162461bcd60e51b81526004016107349061363a565b60005b81518110156108d75761101582828151811061100857634e487b7160e01b600052603260045260246000fd5b602002602001015161219d565b8061101f816137f8565b915050610fdc565b6110326105bd6118d3565b61104e5760405162461bcd60e51b81526004016107349061357f565b6001600160a01b038116610de75760405162461bcd60e51b8152600401610734906134b8565b6033546001600160a01b031690565b600083815260cd602052604081208054859291906110a0906137bd565b9050116110bf5760405162461bcd60e51b8152600401610734906136a6565b610a13858561075386866118d7565b60009182526097602090815260408084206001600160a01b0393909316845291905290205460ff1690565b6111016118d3565b6001600160a01b0316611112611074565b6001600160a01b0316146111385760405162461bcd60e51b81526004016107349061363a565b6108928161219d565b61115b6000805160206138558339815191526103356118d3565b565b6111656118d3565b6001600160a01b0316611176611074565b6001600160a01b03161461119c5760405162461bcd60e51b81526004016107349061363a565b60c954604051632678375f60e21b81526001600160a01b03909116906399e0dd7c906111ce9085908590600401613336565b600060405180830381600087803b1580156111e857600080fd5b505af11580156111fc573d6000803e3d6000fd5b505060cb546001600160a01b03161591506108d790505760cb54604051632678375f60e21b81526001600160a01b03909116906399e0dd7c906112459085908590600401613336565b600060405180830381600087803b15801561125f57600080fd5b505af1158015611273573d6000803e3d6000fd5b505050505050565b600081565b604051806040016040528060148152602001732aa7299d1026b4b73a34b7339026b0b730b3b2b960611b81525081565b60cb546001600160a01b031681565b60006106db600080516020613855833981519152836110ce565b6112e16118d3565b6001600160a01b03166112f2611074565b6001600160a01b0316146113185760405162461bcd60e51b81526004016107349061363a565b61115b60006113256118d3565b6121b1565b6113356105bd6118d3565b6113515760405162461bcd60e51b81526004016107349061357f565b600083815260cd6020526040812080548592919061136e906137bd565b90501161138d5760405162461bcd60e51b8152600401610734906136a6565b610a13858585858080601f01602080910402602001604051908101604052809392919081815260200183838082843760009201919091525061190392505050565b60ca546001600160a01b031681565b600087815260cd602052604081208054899291906113fa906137bd565b9050116114195760405162461bcd60e51b8152600401610734906136a6565b61081689896114288a8a6118d7565b88888888611d0a565b60008051602061385583398151915281565b61144c826106e3565b611458816108366118d3565b6108458383611c85565b610892816121bb565b600054610100900460ff1680611484575060005460ff16155b6114a05760405162461bcd60e51b815260040161073490613531565b600054610100900460ff161580156114cb576000805460ff1961ff0019909116610100171660011790555b60c980546001600160a01b038088166001600160a01b03199283161790925560ca805487841690831617905560cb805486841690831617905560cc80549285169290911691909117905561151d61220e565b6115256122da565b61152e3061219d565b60408051808201909152600681526563727970746f60d01b602080830191825260008051602061387583398151915260005260cd90529051611591917f9535d3ea47c5e1398d3405b4fadc73de6b1b1e6a66f674a8886ab7a6c873a39091612790565b50604080516101408101825260066101008201908152651dd85b1b195d60d21b610120830152815281518083018352600481526331b7b4b760e11b602082810191909152808301919091528251808401845260018152600f60fb1b8183015282840152825180840184526003808252621b999d60ea1b82840152606084019190915283518085018552600a815269313637b1b5b1b430b4b760b11b8184015260808401528351808501855260078152663134ba31b7b4b760c91b8184015260a0840152835180850185528181526207070760eb1b8184015260c0840152835180850190945283526264616f60e81b9083015260e081019190915260005b600881101561187f576000808383600881106116ba57634e487b7160e01b600052603260045260246000fd5b60200201516040516020016116cf9190612eed565b604051602081830303815290604052805190602001206040516020016116f6929190613094565b6040516020818303038152906040528051906020012060001c905082826008811061173157634e487b7160e01b600052603260045260246000fd5b602002015160cd6000838152602001908152602001600020908051906020019061175c929190612790565b5060c954604051634f558e7960e01b81526001600160a01b0390911690634f558e799061178d9084906004016132fc565b60206040518083038186803b1580156117a557600080fd5b505afa1580156117b9573d6000803e3d6000fd5b505050506040513d601f19601f820116820180604052508101906117dd9190612c0b565b61186c5760c9546001600160a01b031663d3fc986461dead8386866008811061181657634e487b7160e01b600052603260045260246000fd5b60200201516040518463ffffffff1660e01b81526004016118399392919061317d565b600060405180830381600087803b15801561185357600080fd5b505af1158015611867573d6000803e3d6000fd5b505050505b5080611877816137f8565b91505061168e565b50508015610a13576000805461ff00191690555050505050565b60405180604001604052806005815260200164302e312e3160d81b81525081565b6001600160e01b031981166301ffc9a760e01b14919050565b3390565b606082826040516020016118ec929190612ff9565b604051602081830303815290604052905092915050565b8160008051602061387583398151915214156119875760ca5460cc5460405163c36c212560e01b81526001600160a01b039283169263c36c21259261195092889287921690600401613100565b600060405180830381600087803b15801561196a57600080fd5b505af115801561197e573d6000803e3d6000fd5b50505050610845565b60c9546001600160a01b031663d3fc9864846119a3858561235b565b6119ad86866123d7565b6040518463ffffffff1660e01b81526004016119cb9392919061317d565b600060405180830381600087803b1580156119e557600080fd5b505af1158015610cec573d6000803e3d6000fd5b6000611a05888861235b565b9050876000805160206138758339815191521415611b005760ca5460cc54604051630f95e75b60e31b81526001600160a01b0392831692637caf3ad892611a56928e928d9216908890600401613135565b600060405180830381600087803b158015611a7057600080fd5b505af1158015611a84573d6000803e3d6000fd5b505086159150611afb90505760cc54604051633a0deb9d60e21b81526001600160a01b039091169063e837ae7490611ac890899089908990899088906004016132b7565b600060405180830381600087803b158015611ae257600080fd5b505af1158015611af6573d6000803e3d6000fd5b505050505b610816565b60c9546001600160a01b031663efda4d3e8a83611b1d8c8c6123d7565b8a8a8a8a8a6040518963ffffffff1660e01b8152600401611b45989796959493929190613201565b600060405180830381600087803b158015611b5f57600080fd5b505af1158015611b73573d6000803e3d6000fd5b50505050505050505050505050565b611b8c82826110ce565b6108d757611ba4816001600160a01b031660146123fa565b611baf8360206123fa565b604051602001611bc092919061301f565b60408051601f198184030181529082905262461bcd60e51b825261073491600401613323565b611bf082826110ce565b6108d75760008281526097602090815260408083206001600160a01b03851684529091529020805460ff19166001179055611c296118d3565b6001600160a01b0316816001600160a01b0316837f2f8788117e7eff1d82e926ec794901d17c78024a50270940304540a733656f0d60405160405180910390a45050565b61089260008051602061385583398151915282611443565b611c8f82826110ce565b156108d75760008281526097602090815260408083206001600160a01b03851684529091529020805460ff19169055611cc66118d3565b6001600160a01b0316816001600160a01b0316837ff6391f5c32d9c69d2a47ea670b442974b53935d1edc7fd64eb21e047a839171b60405160405180910390a45050565b6000611d16878761235b565b9050866000805160206138758339815191521415611e0f5760ca5460cc5460405163c36c212560e01b81526001600160a01b039283169263c36c212592611d65928d928c921690600401613100565b600060405180830381600087803b158015611d7f57600080fd5b505af1158015611d93573d6000803e3d6000fd5b505085159150611e0a90505760cc54604051633a0deb9d60e21b81526001600160a01b039091169063e837ae7490611dd790889088908890889088906004016132b7565b600060405180830381600087803b158015611df157600080fd5b505af1158015611e05573d6000803e3d6000fd5b505050505b611e85565b60c9546001600160a01b031663b0f591778983611e2c8b8b6123d7565b898989896040518863ffffffff1660e01b8152600401611e5297969594939291906131a4565b600060405180830381600087803b158015611e6c57600080fd5b505af1158015611e80573d6000803e3d6000fd5b505050505b5050505050505050565b836000805160206138758339815191521415611f185760ca5460cc54604051630f95e75b60e31b81526001600160a01b0392831692637caf3ad892611ee1928a928992899291169088906004016130b6565b600060405180830381600087803b158015611efb57600080fd5b505af1158015611f0f573d6000803e3d6000fd5b50505050610a13565b60c954604080516020601f86018190048102820181019092528481526001600160a01b039092169163b55bc617918891611f6f91899190899089908190840183828082843760009201919091525061235b92505050565b611faf8888888080601f0160208091040260200160405190810160405280939291908181526020018383808284376000920191909152506123d792505050565b856040518563ffffffff1660e01b8152600401611fcf9493929190613273565b600060405180830381600087803b158015611fe957600080fd5b505af1158015610816573d6000803e3d6000fd5b6000816040516020016120109190612fc8565b604051602081830303815290604052805190602001209050919050565b6000806000808451604114156120575750505060208201516040830151606084015160001a61209d565b8451604014156120855750505060408201516020830151906001600160ff1b0381169060ff1c601b0161209d565b60405162461bcd60e51b815260040161073490613404565b6120a9868285856125b3565b9695505050505050565b6120bc816126a9565b6120c5816112bf565b6108925760405162461bcd60e51b8152600401610734906135f6565b60006001600160e01b0319841663ae2ad90360e01b148061211257506001600160e01b03198416630260c0cf60e51b145b8061212d57506001600160e01b031984166358839d6b60e01b145b8061214857506001600160e01b0319841663039ccf4d60e41b145b8061216357506001600160e01b031984166327bbd22560e01b145b8061217e57506001600160e01b03198416633516912b60e11b145b9050806107585760405162461bcd60e51b8152600401610734906133be565b610892600080516020613855833981519152825b6108d78282611be6565b6121c36118d3565b6001600160a01b03166121d4611074565b6001600160a01b0316146121fa5760405162461bcd60e51b81526004016107349061363a565b612203816126cf565b6108926000826121b1565b600054610100900460ff1680612227575060005460ff16155b6122435760405162461bcd60e51b815260040161073490613531565b600054610100900460ff1615801561226e576000805460ff1961ff0019909116610100171660011790555b60006122786118d3565b603380546001600160a01b0319166001600160a01b038316908117909155604051919250906000907f8be0079c531659141344cd1fd0a4f28419497f9722a3daafe3b4186f6b6457e0908290a3508015610892576000805461ff001916905550565b600054610100900460ff16806122f3575060005460ff16155b61230f5760405162461bcd60e51b815260040161073490613531565b600054610100900460ff1615801561233a576000805460ff1961ff0019909116610100171660011790555b61234760006113256118d3565b8015610892576000805461ff001916905550565b600081516000141561237f5760405162461bcd60e51b81526004016107349061366f565b82826040516020016123919190612eed565b604051602081830303815290604052805190602001206040516020016123b8929190613094565b60408051601f1981840301815291905280516020909101209392505050565b600082815260cd602090815260409182902091516060926118ec92859201612f09565b6060600061240983600261375b565b612414906002613743565b67ffffffffffffffff81111561243a57634e487b7160e01b600052604160045260246000fd5b6040519080825280601f01601f191660200182016040528015612464576020820181803683370190505b509050600360fc1b8160008151811061248d57634e487b7160e01b600052603260045260246000fd5b60200101906001600160f81b031916908160001a905350600f60fb1b816001815181106124ca57634e487b7160e01b600052603260045260246000fd5b60200101906001600160f81b031916908160001a90535060006124ee84600261375b565b6124f9906001613743565b90505b600181111561258d576f181899199a1a9b1b9c1cb0b131b232b360811b85600f166010811061253b57634e487b7160e01b600052603260045260246000fd5b1a60f81b82828151811061255f57634e487b7160e01b600052603260045260246000fd5b60200101906001600160f81b031916908160001a90535060049490941c93612586816137a6565b90506124fc565b5083156125ac5760405162461bcd60e51b815260040161073490613389565b9392505050565b60007f7fffffffffffffffffffffffffffffff5d576e7357a4501ddfe92f46681b20a08211156125f55760405162461bcd60e51b8152600401610734906134ef565b8360ff16601b148061260a57508360ff16601c145b6126265760405162461bcd60e51b8152600401610734906135b4565b60006001868686866040516000815260200160405260405161264b9493929190613305565b6020604051602081039080840390855afa15801561266d573d6000803e3d6000fd5b5050604051601f1901519150506001600160a01b0381166126a05760405162461bcd60e51b815260040161073490613352565b95945050505050565b6001600160a01b0381166108925760405162461bcd60e51b815260040161073490613481565b6126d76118d3565b6001600160a01b03166126e8611074565b6001600160a01b03161461270e5760405162461bcd60e51b81526004016107349061363a565b6001600160a01b0381166127345760405162461bcd60e51b81526004016107349061343b565b6033546040516001600160a01b038084169216907f8be0079c531659141344cd1fd0a4f28419497f9722a3daafe3b4186f6b6457e090600090a3603380546001600160a01b0319166001600160a01b0392909216919091179055565b82805461279c906137bd565b90600052602060002090601f0160209004810192826127be5760008555612804565b82601f106127d757805160ff1916838001178555612804565b82800160010185558215612804579182015b828111156128045782518255916020019190600101906127e9565b50612810929150612814565b5090565b5b808211156128105760008155600101612815565b80356106de8161383f565b60008083601f840112612845578182fd5b50813567ffffffffffffffff81111561285c578182fd5b602083019150836020808302850101111561287657600080fd5b9250929050565b60008083601f84011261288e578182fd5b50813567ffffffffffffffff8111156128a5578182fd5b60208301915083602082850101111561287657600080fd5b6000602082840312156128ce578081fd5b81356125ac8161383f565b600080600080606085870312156128ee578283fd5b84356128f98161383f565b935060208501359250604085013567ffffffffffffffff81111561291b578283fd5b6129278782880161287d565b95989497509550505050565b60008060008060008060008060a0898b03121561294e578384fd5b88356129598161383f565b975060208901359650604089013567ffffffffffffffff8082111561297c578586fd5b6129888c838d0161287d565b909850965060608b01359150808211156129a0578586fd5b6129ac8c838d01612834565b909650945060808b01359150808211156129c4578384fd5b506129d18b828c01612834565b999c989b5096995094979396929594505050565b60008060008060008060008060008060c08b8d031215612a03578182fd5b612a0c8b612829565b995060208b0135985060408b013567ffffffffffffffff80821115612a2f578384fd5b612a3b8e838f0161287d565b909a50985060608d0135915080821115612a53578384fd5b612a5f8e838f01612834565b909850965060808d0135915080821115612a77578384fd5b612a838e838f01612834565b909650945060a08d0135915080821115612a9b578384fd5b50612aa88d828e0161287d565b915080935050809150509295989b9194979a5092959850565b60008060008060008060808789031215612ad9578182fd5b8635612ae48161383f565b955060208701359450604087013567ffffffffffffffff80821115612b07578384fd5b612b138a838b0161287d565b90965094506060890135915080821115612b2b578384fd5b50612b3889828a0161287d565b979a9699509497509295939492505050565b60006020808385031215612b5c578182fd5b823567ffffffffffffffff80821115612b73578384fd5b818501915085601f830112612b86578384fd5b813581811115612b9857612b98613829565b83810260405185828201018181108582111715612bb757612bb7613829565b604052828152858101935084860182860187018a1015612bd5578788fd5b8795505b83861015612bfe57612bea81612829565b855260019590950194938601938601612bd9565b5098975050505050505050565b600060208284031215612c1c578081fd5b815180151581146125ac578182fd5b600060208284031215612c3c578081fd5b5035919050565b60008060408385031215612c55578182fd5b823591506020830135612c678161383f565b809150509250929050565b600060208284031215612c83578081fd5b81356001600160e01b0319811681146125ac578182fd5b60008060008060408587031215612caf578182fd5b843567ffffffffffffffff80821115612cc6578384fd5b612cd28883890161287d565b90965094506020870135915080821115612cea578384fd5b506129278782880161287d565b60008060008060808587031215612d0c578182fd5b8435612d178161383f565b93506020850135612d278161383f565b92506040850135612d378161383f565b91506060850135612d478161383f565b939692955090935050565b60008060208385031215612d64578182fd5b823567ffffffffffffffff811115612d7a578283fd5b612d868582860161287d565b90969095509350505050565b600080600060408486031215612da6578081fd5b83359250602084013567ffffffffffffffff811115612dc3578182fd5b612dcf8682870161287d565b9497909650939450505050565b818352602080840193600091908185020181018584845b87811015612e5a5782840389528135601e19883603018112612e13578687fd5b8701803567ffffffffffffffff811115612e2b578788fd5b803603891315612e39578788fd5b612e468682898501612e93565b9a87019a9550505090840190600101612df3565b5091979650505050505050565b60008151808452612e7f81602086016020860161377a565b601f01601f19169290920160200192915050565b60008284528282602086013780602084860101526020601f19601f85011685010190509392505050565b91825260601b6bffffffffffffffffffffffff1916602082015260340190565b6000828483379101908152919050565b60008251612eff81846020870161377a565b9190910192915050565b600083516020612f1c828583890161377a565b601760f91b918401918252845460019084906002810481841680612f4157607f821691505b858210811415612f5f57634e487b7160e01b88526022600452602488fd5b808015612f735760018114612f8857612fb8565b60ff1984168887015282880186019450612fb8565b612f918b613737565b895b84811015612fae5781548a8201890152908701908801612f93565b5050858389010194505b50929a9950505050505050505050565b7f19457468657265756d205369676e6564204d6573736167653a0a3332000000008152601c810191909152603c0190565b6000697564746573746465762d60b01b82528284600a8401379101600a01908152919050565b60007f416363657373436f6e74726f6c3a206163636f756e74200000000000000000008252835161305781601785016020880161377a565b7001034b99036b4b9b9b4b733903937b6329607d1b601791840191820152835161308881602884016020880161377a565b01602801949350505050565b918252602082015260400190565b6001600160a01b0391909116815260200190565b600060018060a01b038088168352608060208401526130d9608084018789612e93565b818616604085015283810360608501526130f38186612e67565b9998505050505050505050565b600060018060a01b038086168352606060208401526131226060840186612e67565b9150808416604084015250949350505050565b600060018060a01b038087168352608060208401526131576080840187612e67565b818616604085015283810360608501526131718186612e67565b98975050505050505050565b600060018060a01b0385168252836020830152606060408301526126a06060830184612e67565b600060018060a01b038916825287602083015260a060408301526131cb60a0830188612e67565b82810360608401526131de818789612ddc565b905082810360808401526131f3818587612ddc565b9a9950505050505050505050565b600060018060a01b038a16825288602083015260c0604083015261322860c0830189612e67565b828103606084015261323b81888a612ddc565b90508281036080840152613250818688612ddc565b905082810360a08401526132648185612e67565b9b9a5050505050505050505050565b600060018060a01b03861682528460208301526080604083015261329a6080830185612e67565b82810360608401526132ac8185612e67565b979650505050505050565b6000606082526132cb606083018789612ddc565b82810360208401526132de818688612ddc565b9150508260408301529695505050505050565b901515815260200190565b90815260200190565b93845260ff9290921660208401526040830152606082015260800190565b6000602082526125ac6020830184612e67565b60006020825261334a602083018486612e93565b949350505050565b60208082526018908201527f45434453413a20696e76616c6964207369676e61747572650000000000000000604082015260600190565b6020808252818101527f537472696e67733a20686578206c656e67746820696e73756666696369656e74604082015260600190565b60208082526026908201527f4d696e74696e674d616e616765723a20554e535550504f525445445f52454c416040820152651657d0d0531360d21b606082015260800190565b6020808252601f908201527f45434453413a20696e76616c6964207369676e6174757265206c656e67746800604082015260600190565b60208082526026908201527f4f776e61626c653a206e6577206f776e657220697320746865207a65726f206160408201526564647265737360d01b606082015260800190565b6020808252601d908201527f52656c617965723a205349474e41545552455f49535f494e56414c4944000000604082015260600190565b6020808252601d908201527f4d696e746572526f6c653a2052454345495645525f49535f454d505459000000604082015260600190565b60208082526022908201527f45434453413a20696e76616c6964207369676e6174757265202773272076616c604082015261756560f01b606082015260800190565b6020808252602e908201527f496e697469616c697a61626c653a20636f6e747261637420697320616c72656160408201526d191e481a5b9a5d1a585b1a5e995960921b606082015260800190565b6020808252818101527f4d696e746572526f6c653a2043414c4c45525f49535f4e4f545f4d494e544552604082015260600190565b60208082526022908201527f45434453413a20696e76616c6964207369676e6174757265202776272076616c604082015261756560f01b606082015260800190565b60208082526024908201527f4d696e74696e674d616e616765723a205349474e45525f49535f4e4f545f4d49604082015263272a22a960e11b606082015260800190565b6020808252818101527f4f776e61626c653a2063616c6c6572206973206e6f7420746865206f776e6572604082015260600190565b6020808252601b908201527f4d696e74696e674d616e616765723a204c4142454c5f454d5054590000000000604082015260600190565b60208082526022908201527f4d696e74696e674d616e616765723a20544c445f4e4f545f5245474953544552604082015261115160f21b606082015260800190565b6020808252602f908201527f416363657373436f6e74726f6c3a2063616e206f6e6c792072656e6f756e636560408201526e103937b632b9903337b91039b2b63360891b606082015260800190565b60009081526020902090565b6000821982111561375657613756613813565b500190565b600081600019048311821515161561377557613775613813565b500290565b60005b8381101561379557818101518382015260200161377d565b838111156107585750506000910152565b6000816137b5576137b5613813565b506000190190565b6002810460018216806137d157607f821691505b602082108114156137f257634e487b7160e01b600052602260045260246000fd5b50919050565b600060001982141561380c5761380c613813565b5060010190565b634e487b7160e01b600052601160045260246000fd5b634e487b7160e01b600052604160045260246000fd5b6001600160a01b038116811461089257600080fdfe9f2df0fed2c77648de5860a4cc508cd0818c85b8b8a1ab4ceeef8d981c8956a60f4a10a4f46c288cea365fcf45cccf0e9d901b945b9829ccdb54c10dc3cb7a6fa26469706673582212202289837fd807de2735fc3082622d394ba406a006d9fd8a85e55b82730701b6b164736f6c63430008000033",
  "linkReferences": {},
  "deployedLinkReferences": {}
}