{
  "_format": "hh-sol-artifact-1",
  "contractName": "MintingManager",
  "sourceName": "contracts/MintingManager.sol",
  "abi": [
    {
      "anonymous": false,
      "inputs": [
        {
          "indexed": true,
          "internalType": "address",
          "name": "previousOwner",
          "type": "address"
        },
        {
          "indexed": true,
          "internalType": "address",
          "name": "newOwner",
          "type": "address"
        }
      ],
      "name": "OwnershipTransferred",
      "type": "event"
    },
    {
      "anonymous": false,
      "inputs": [
        {
          "indexed": true,
          "internalType": "address",
          "name": "sender",
          "type": "address"
        },
        {
          "indexed": true,
          "internalType": "address",
          "name": "signer",
          "type": "address"
        },
        {
          "indexed": true,
          "internalType": "bytes4",
          "name": "funcSig",
          "type": "bytes4"
        },
        {
          "indexed": false,
          "internalType": "bytes32",
          "name": "digest",
          "type": "bytes32"
        }
      ],
      "name": "Relayed",
      "type": "event"
    },
    {
      "anonymous": false,
      "inputs": [
        {
          "indexed": true,
          "internalType": "bytes32",
          "name": "role",
          "type": "bytes32"
        },
        {
          "indexed": true,
          "internalType": "bytes32",
          "name": "previousAdminRole",
          "type": "bytes32"
        },
        {
          "indexed": true,
          "internalType": "bytes32",
          "name": "newAdminRole",
          "type": "bytes32"
        }
      ],
      "name": "RoleAdminChanged",
      "type": "event"
    },
    {
      "anonymous": false,
      "inputs": [
        {
          "indexed": true,
          "internalType": "bytes32",
          "name": "role",
          "type": "bytes32"
        },
        {
          "indexed": true,
          "internalType": "address",
          "name": "account",
          "type": "address"
        },
        {
          "indexed": true,
          "internalType": "address",
          "name": "sender",
          "type": "address"
        }
      ],
      "name": "RoleGranted",
      "type": "event"
    },
    {
      "anonymous": false,
      "inputs": [
        {
          "indexed": true,
          "internalType": "bytes32",
          "name": "role",
          "type": "bytes32"
        },
        {
          "indexed": true,
          "internalType": "address",
          "name": "account",
          "type": "address"
        },
        {
          "indexed": true,
          "internalType": "address",
          "name": "sender",
          "type": "address"
        }
      ],
      "name": "RoleRevoked",
      "type": "event"
    },
    {
      "inputs": [],
      "name": "DEFAULT_ADMIN_ROLE",
      "outputs": [
        {
          "internalType": "bytes32",
          "name": "",
          "type": "bytes32"
        }
      ],
      "stateMutability": "view",
      "type": "function"
    },
    {
      "inputs": [],
      "name": "MINTER_ROLE",
      "outputs": [
        {
          "internalType": "bytes32",
          "name": "",
          "type": "bytes32"
        }
      ],
      "stateMutability": "view",
      "type": "function"
    },
    {
      "inputs": [],
      "name": "NAME",
      "outputs": [
        {
          "internalType": "string",
          "name": "",
          "type": "string"
        }
      ],
      "stateMutability": "view",
      "type": "function"
    },
    {
      "inputs": [],
      "name": "VERSION",
      "outputs": [
        {
          "internalType": "string",
          "name": "",
          "type": "string"
        }
      ],
      "stateMutability": "view",
      "type": "function"
    },
    {
      "inputs": [
        {
          "internalType": "address",
          "name": "account",
          "type": "address"
        }
      ],
      "name": "addMinter",
      "outputs": [],
      "stateMutability": "nonpayable",
      "type": "function"
    },
    {
      "inputs": [
        {
          "internalType": "address[]",
          "name": "accounts",
          "type": "address[]"
        }
      ],
      "name": "addMinters",
      "outputs": [],
      "stateMutability": "nonpayable",
      "type": "function"
    },
    {
      "inputs": [
        {
          "internalType": "uint256",
          "name": "tld",
          "type": "uint256"
        },
        {
          "internalType": "string",
          "name": "label",
          "type": "string"
        }
      ],
      "name": "claim",
      "outputs": [],
      "stateMutability": "nonpayable",
      "type": "function"
    },
    {
      "inputs": [
        {
          "internalType": "address",
          "name": "to",
          "type": "address"
        },
        {
          "internalType": "uint256",
          "name": "tld",
          "type": "uint256"
        },
        {
          "internalType": "string",
          "name": "label",
          "type": "string"
        }
      ],
      "name": "claimTo",
      "outputs": [],
      "stateMutability": "nonpayable",
      "type": "function"
    },
    {
      "inputs": [
        {
          "internalType": "address",
          "name": "to",
          "type": "address"
        },
        {
          "internalType": "uint256",
          "name": "tld",
          "type": "uint256"
        },
        {
          "internalType": "string",
          "name": "label",
          "type": "string"
        },
        {
          "internalType": "string[]",
          "name": "keys",
          "type": "string[]"
        },
        {
          "internalType": "string[]",
          "name": "values",
          "type": "string[]"
        }
      ],
      "name": "claimToWithRecords",
      "outputs": [],
      "stateMutability": "nonpayable",
      "type": "function"
    },
    {
      "inputs": [
        {
          "internalType": "address payable",
          "name": "receiver",
          "type": "address"
        }
      ],
      "name": "closeMinter",
      "outputs": [],
      "stateMutability": "payable",
      "type": "function"
    },
    {
      "inputs": [],
      "name": "cnsMintingController",
      "outputs": [
        {
          "internalType": "contract IMintingController",
          "name": "",
          "type": "address"
        }
      ],
      "stateMutability": "view",
      "type": "function"
    },
    {
      "inputs": [],
      "name": "cnsResolver",
      "outputs": [
        {
          "internalType": "contract IResolver",
          "name": "",
          "type": "address"
        }
      ],
      "stateMutability": "view",
      "type": "function"
    },
    {
      "inputs": [],
      "name": "cnsURIPrefixController",
      "outputs": [
        {
          "internalType": "contract IURIPrefixController",
          "name": "",
          "type": "address"
        }
      ],
      "stateMutability": "view",
      "type": "function"
    },
    {
      "inputs": [
        {
          "internalType": "bytes32",
          "name": "role",
          "type": "bytes32"
        }
      ],
      "name": "getRoleAdmin",
      "outputs": [
        {
          "internalType": "bytes32",
          "name": "",
          "type": "bytes32"
        }
      ],
      "stateMutability": "view",
      "type": "function"
    },
    {
      "inputs": [
        {
          "internalType": "bytes32",
          "name": "role",
          "type": "bytes32"
        },
        {
          "internalType": "address",
          "name": "account",
          "type": "address"
        }
      ],
      "name": "grantRole",
      "outputs": [],
      "stateMutability": "nonpayable",
      "type": "function"
    },
    {
      "inputs": [
        {
          "internalType": "bytes32",
          "name": "role",
          "type": "bytes32"
        },
        {
          "internalType": "address",
          "name": "account",
          "type": "address"
        }
      ],
      "name": "hasRole",
      "outputs": [
        {
          "internalType": "bool",
          "name": "",
          "type": "bool"
        }
      ],
      "stateMutability": "view",
      "type": "function"
    },
    {
      "inputs": [
        {
          "internalType": "contract IUNSRegistry",
          "name": "unsRegistry_",
          "type": "address"
        },
        {
          "internalType": "contract IMintingController",
          "name": "cnsMintingController_",
          "type": "address"
        },
        {
          "internalType": "contract IURIPrefixController",
          "name": "cnsURIPrefixController_",
          "type": "address"
        },
        {
          "internalType": "contract IResolver",
          "name": "cnsResolver_",
          "type": "address"
        },
        {
          "internalType": "address",
          "name": "forwarder",
          "type": "address"
        }
      ],
      "name": "initialize",
      "outputs": [],
      "stateMutability": "nonpayable",
      "type": "function"
    },
    {
      "inputs": [
        {
          "internalType": "address",
          "name": "account",
          "type": "address"
        }
      ],
      "name": "isMinter",
      "outputs": [
        {
          "internalType": "bool",
          "name": "",
          "type": "bool"
        }
      ],
      "stateMutability": "view",
      "type": "function"
    },
    {
      "inputs": [
        {
          "internalType": "address",
          "name": "forwarder",
          "type": "address"
        }
      ],
      "name": "isTrustedForwarder",
      "outputs": [
        {
          "internalType": "bool",
          "name": "",
          "type": "bool"
        }
      ],
      "stateMutability": "view",
      "type": "function"
    },
    {
      "inputs": [
        {
          "internalType": "address",
          "name": "to",
          "type": "address"
        },
        {
          "internalType": "uint256",
          "name": "tld",
          "type": "uint256"
        },
        {
          "internalType": "string",
          "name": "label",
          "type": "string"
        }
      ],
      "name": "mintSLD",
      "outputs": [],
      "stateMutability": "nonpayable",
      "type": "function"
    },
    {
      "inputs": [
        {
          "internalType": "address",
          "name": "to",
          "type": "address"
        },
        {
          "internalType": "uint256",
          "name": "tld",
          "type": "uint256"
        },
        {
          "internalType": "string",
          "name": "label",
          "type": "string"
        },
        {
          "internalType": "string[]",
          "name": "keys",
          "type": "string[]"
        },
        {
          "internalType": "string[]",
          "name": "values",
          "type": "string[]"
        }
      ],
      "name": "mintSLDWithRecords",
      "outputs": [],
      "stateMutability": "nonpayable",
      "type": "function"
    },
    {
      "inputs": [],
      "name": "owner",
      "outputs": [
        {
          "internalType": "address",
          "name": "",
          "type": "address"
        }
      ],
      "stateMutability": "view",
      "type": "function"
    },
    {
      "inputs": [
        {
          "internalType": "bytes",
          "name": "data",
          "type": "bytes"
        },
        {
          "internalType": "bytes",
          "name": "signature",
          "type": "bytes"
        }
      ],
      "name": "relay",
      "outputs": [
        {
          "internalType": "bytes",
          "name": "",
          "type": "bytes"
        }
      ],
      "stateMutability": "nonpayable",
      "type": "function"
    },
    {
      "inputs": [
        {
          "internalType": "address",
          "name": "account",
          "type": "address"
        }
      ],
      "name": "removeMinter",
      "outputs": [],
      "stateMutability": "nonpayable",
      "type": "function"
    },
    {
      "inputs": [
        {
          "internalType": "address[]",
          "name": "accounts",
          "type": "address[]"
        }
      ],
      "name": "removeMinters",
      "outputs": [],
      "stateMutability": "nonpayable",
      "type": "function"
    },
    {
      "inputs": [],
      "name": "renounceMinter",
      "outputs": [],
      "stateMutability": "nonpayable",
      "type": "function"
    },
    {
      "inputs": [],
      "name": "renounceOwnership",
      "outputs": [],
      "stateMutability": "nonpayable",
      "type": "function"
    },
    {
      "inputs": [
        {
          "internalType": "bytes32",
          "name": "role",
          "type": "bytes32"
        },
        {
          "internalType": "address",
          "name": "account",
          "type": "address"
        }
      ],
      "name": "renounceRole",
      "outputs": [],
      "stateMutability": "nonpayable",
      "type": "function"
    },
    {
      "inputs": [
        {
          "internalType": "bytes32",
          "name": "role",
          "type": "bytes32"
        },
        {
          "internalType": "address",
          "name": "account",
          "type": "address"
        }
      ],
      "name": "revokeRole",
      "outputs": [],
      "stateMutability": "nonpayable",
      "type": "function"
    },
    {
      "inputs": [
        {
          "internalType": "address payable",
          "name": "receiver",
          "type": "address"
        }
      ],
      "name": "rotateMinter",
      "outputs": [],
      "stateMutability": "payable",
      "type": "function"
    },
    {
      "inputs": [
        {
          "internalType": "address",
          "name": "to",
          "type": "address"
        },
        {
          "internalType": "uint256",
          "name": "tld",
          "type": "uint256"
        },
        {
          "internalType": "string",
          "name": "label",
          "type": "string"
        }
      ],
      "name": "safeMintSLD",
      "outputs": [],
      "stateMutability": "nonpayable",
      "type": "function"
    },
    {
      "inputs": [
        {
          "internalType": "address",
          "name": "to",
          "type": "address"
        },
        {
          "internalType": "uint256",
          "name": "tld",
          "type": "uint256"
        },
        {
          "internalType": "string",
          "name": "label",
          "type": "string"
        },
        {
          "internalType": "bytes",
          "name": "data",
          "type": "bytes"
        }
      ],
      "name": "safeMintSLD",
      "outputs": [],
      "stateMutability": "nonpayable",
      "type": "function"
    },
    {
      "inputs": [
        {
          "internalType": "address",
          "name": "to",
          "type": "address"
        },
        {
          "internalType": "uint256",
          "name": "tld",
          "type": "uint256"
        },
        {
          "internalType": "string",
          "name": "label",
          "type": "string"
        },
        {
          "internalType": "string[]",
          "name": "keys",
          "type": "string[]"
        },
        {
          "internalType": "string[]",
          "name": "values",
          "type": "string[]"
        }
      ],
      "name": "safeMintSLDWithRecords",
      "outputs": [],
      "stateMutability": "nonpayable",
      "type": "function"
    },
    {
      "inputs": [
        {
          "internalType": "address",
          "name": "to",
          "type": "address"
        },
        {
          "internalType": "uint256",
          "name": "tld",
          "type": "uint256"
        },
        {
          "internalType": "string",
          "name": "label",
          "type": "string"
        },
        {
          "internalType": "string[]",
          "name": "keys",
          "type": "string[]"
        },
        {
          "internalType": "string[]",
          "name": "values",
          "type": "string[]"
        },
        {
          "internalType": "bytes",
          "name": "data",
          "type": "bytes"
        }
      ],
      "name": "safeMintSLDWithRecords",
      "outputs": [],
      "stateMutability": "nonpayable",
      "type": "function"
    },
    {
      "inputs": [
        {
          "internalType": "address",
          "name": "forwarder",
          "type": "address"
        }
      ],
      "name": "setForwarder",
      "outputs": [],
      "stateMutability": "nonpayable",
      "type": "function"
    },
    {
      "inputs": [
        {
          "internalType": "address",
          "name": "resolver",
          "type": "address"
        }
      ],
      "name": "setResolver",
      "outputs": [],
      "stateMutability": "nonpayable",
      "type": "function"
    },
    {
      "inputs": [
        {
          "internalType": "string",
          "name": "prefix",
          "type": "string"
        }
      ],
      "name": "setTokenURIPrefix",
      "outputs": [],
      "stateMutability": "nonpayable",
      "type": "function"
    },
    {
      "inputs": [
        {
          "internalType": "bytes4",
          "name": "interfaceId",
          "type": "bytes4"
        }
      ],
      "name": "supportsInterface",
      "outputs": [
        {
          "internalType": "bool",
          "name": "",
          "type": "bool"
        }
      ],
      "stateMutability": "view",
      "type": "function"
    },
    {
      "inputs": [
        {
          "internalType": "address",
          "name": "newOwner",
          "type": "address"
        }
      ],
      "name": "transferOwnership",
      "outputs": [],
      "stateMutability": "nonpayable",
      "type": "function"
    },
    {
      "inputs": [],
      "name": "unsRegistry",
      "outputs": [
        {
          "internalType": "contract IUNSRegistry",
          "name": "",
          "type": "address"
        }
      ],
      "stateMutability": "view",
      "type": "function"
    }
  ],
  "bytecode": "0x608060405234801561001057600080fd5b50613a75806100206000396000f3fe60806040526004361061023b5760003560e01c806371e2a6571161012e578063a849d65c116100ab578063ceeb4f501161006f578063ceeb4f5014610662578063d539139314610682578063d547741f14610697578063f2fde38b146106b7578063ffa1ad74146106d75761023b565b8063a849d65c146105d8578063aa271e1a146105ed578063ae2ad9031461060d578063b9998a241461062d578063cc2c3fc41461064d5761023b565b8063983b2d56116100f2578063983b2d5614610559578063986502751461057957806399e0dd7c1461058e578063a217fddf146105ae578063a3f4df7e146105c35761023b565b806371e2a657146104d157806381c81d35146104f15780638da5cb5b14610504578063906cecc11461051957806391d14854146105395761023b565b80634c1819e0116101bc5780635b6fa8db116101805780635b6fa8db146104545780635fc1964f14610469578063634486da146104895780636a2d22561461049c578063715018a6146104bc5761023b565b80634c1819e0146103a75780634e543b26146103c7578063564a5158146103e7578063572b6c051461041457806358839d6b146104345761023b565b80632f2ff15d116102035780632f2ff15d146103055780633092afd51461032557806336568abe1461034557806339ccf4d0146103655780633f41b614146103855761023b565b806301ffc9a7146102405780631459457a14610276578063248a9ca314610298578063268b15ed146102c557806327bbd225146102e5575b600080fd5b34801561024c57600080fd5b5061026061025b366004612e08565b6106ec565b60405161026d919061349c565b60405180910390f35b34801561028257600080fd5b50610296610291366004612e8d565b610719565b005b3480156102a457600080fd5b506102b86102b3366004612dc1565b610b5b565b60405161026d91906134a7565b3480156102d157600080fd5b506102966102e0366004612f3d565b610b70565b3480156102f157600080fd5b50610296610300366004612ac9565b610bcd565b34801561031157600080fd5b50610296610320366004612dd9565b610c90565b34801561033157600080fd5b50610296610340366004612a53565b610cb9565b34801561035157600080fd5b50610296610360366004612dd9565b610d04565b34801561037157600080fd5b50610296610380366004612ac9565b610d4a565b34801561039157600080fd5b5061039a610df4565b60405161026d919061324d565b3480156103b357600080fd5b506102966103c2366004612a6f565b610e03565b3480156103d357600080fd5b506102966103e2366004612a53565b610e89565b3480156103f357600080fd5b50610407610402366004612e30565b610eea565b60405161026d91906134ce565b34801561042057600080fd5b5061026061042f366004612a53565b6110b5565b34801561044057600080fd5b5061029661044f366004612c57565b6110da565b34801561046057600080fd5b5061039a611189565b34801561047557600080fd5b50610296610484366004612ce0565b611198565b610296610497366004612a53565b611225565b3480156104a857600080fd5b506102966104b7366004612b7b565b6112b8565b3480156104c857600080fd5b506102966113a5565b3480156104dd57600080fd5b506102966104ec366004612ce0565b61142e565b6102966104ff366004612a53565b6114bb565b34801561051057600080fd5b5061039a611508565b34801561052557600080fd5b50610296610534366004612a6f565b611518565b34801561054557600080fd5b50610260610554366004612dd9565b611563565b34801561056557600080fd5b50610296610574366004612a53565b61158e565b34801561058557600080fd5b506102966115d6565b34801561059a57600080fd5b506102966105a9366004612efd565b6115f2565b3480156105ba57600080fd5b506102b8611708565b3480156105cf57600080fd5b5061040761170d565b3480156105e457600080fd5b5061039a61173d565b3480156105f957600080fd5b50610260610608366004612a53565b61174c565b34801561061957600080fd5b50610296610628366004612a6f565b611766565b34801561063957600080fd5b50610296610648366004612a53565b61180a565b34801561065957600080fd5b5061039a611852565b34801561066e57600080fd5b5061029661067d366004612ac9565b611861565b34801561068e57600080fd5b506102b86118b5565b3480156106a357600080fd5b506102966106b2366004612dd9565b6118c7565b3480156106c357600080fd5b506102966106d2366004612a53565b6118e6565b3480156106e357600080fd5b50610407611939565b60006001600160e01b03198216637965db0b60e01b148061071157506107118261195a565b90505b919050565b600054610100900460ff1680610732575060005460ff16155b6107575760405162461bcd60e51b815260040161074e906136dc565b60405180910390fd5b600054610100900460ff16158015610782576000805460ff1961ff0019909116610100171660011790555b60c980546001600160a01b038089166001600160a01b03199283161790925560ca805488841690831617905560cb805487841690831617905560cc8054928616929091169190911790556107d4611973565b6107dc611a3f565b6107e582611ac5565b6107ee30611b43565b60408051808201909152600681526563727970746f60d01b6020808301918252600080516020613a2083398151915260005260cd90529051610851917f9535d3ea47c5e1398d3405b4fadc73de6b1b1e6a66f674a8886ab7a6c873a39091612926565b50604080516101408101825260066101008201908152651dd85b1b195d60d21b610120830152815281518083018352600481526331b7b4b760e11b602082810191909152808301919091528251808401845260018152600f60fb1b8183015282840152825180840184526003808252621b999d60ea1b82840152606084019190915283518085018552600a815269313637b1b5b1b430b4b760b11b8184015260808401528351808501855260078152663134ba31b7b4b760c91b8184015260a0840152835180850185528181526207070760eb1b8184015260c0840152835180850190945283526264616f60e81b9083015260e081019190915260005b6008811015610b3f5760008083836008811061097a57634e487b7160e01b600052603260045260246000fd5b602002015160405160200161098f9190613098565b604051602081830303815290604052805190602001206040516020016109b692919061323f565b6040516020818303038152906040528051906020012060001c90508282600881106109f157634e487b7160e01b600052603260045260246000fd5b602002015160cd60008381526020019081526020016000209080519060200190610a1c929190612926565b5060c954604051634f558e7960e01b81526001600160a01b0390911690634f558e7990610a4d9084906004016134a7565b60206040518083038186803b158015610a6557600080fd5b505afa158015610a79573d6000803e3d6000fd5b505050506040513d601f19601f82011682018060405250810190610a9d9190612da1565b610b2c5760c9546001600160a01b031663d3fc986461dead83868660088110610ad657634e487b7160e01b600052603260045260246000fd5b60200201516040518463ffffffff1660e01b8152600401610af993929190613328565b600060405180830381600087803b158015610b1357600080fd5b505af1158015610b27573d6000803e3d6000fd5b505050505b5080610b37816139a3565b91505061094e565b50508015610b53576000805461ff00191690555b505050505050565b60009081526097602052604090206001015490565b600083815260cd60205260408120805485929190610b8d90613968565b905011610bac5760405162461bcd60e51b815260040161074e90613851565b610bc7610bb7611b5b565b85610bc28686611b6a565b611b96565b50505050565b610bd8610608611b5b565b610bf45760405162461bcd60e51b815260040161074e9061372a565b600087815260cd60205260408120805489929190610c1190613968565b905011610c305760405162461bcd60e51b815260040161074e90613851565b610c85898989898080601f016020809104026020016040519081016040528093929190818152602001838380828437600092018290525060408051602081019091529081528c93508b92508a91508990611c8c565b505050505050505050565b610c9982610b5b565b610caa81610ca5611b5b565b611e15565b610cb48383611e79565b505050565b610cc1611b5b565b6001600160a01b0316610cd2611508565b6001600160a01b031614610cf85760405162461bcd60e51b815260040161074e906137e5565b610d0181611f00565b50565b610d0c611b5b565b6001600160a01b0316816001600160a01b031614610d3c5760405162461bcd60e51b815260040161074e90613893565b610d468282611f18565b5050565b610d55610608611b5b565b610d715760405162461bcd60e51b815260040161074e9061372a565b600087815260cd60205260408120805489929190610d8e90613968565b905011610dad5760405162461bcd60e51b815260040161074e90613851565b610c85898989898080601f0160208091040260200160405190810160405280939291908181526020018383808284376000920191909152508b92508a915089905088611f9d565b60c9546001600160a01b031681565b610e0e610608611b5b565b610e2a5760405162461bcd60e51b815260040161074e9061372a565b600083815260cd60205260408120805485929190610e4790613968565b905011610e665760405162461bcd60e51b815260040161074e90613851565b610e828585858560405180602001604052806000815250612122565b5050505050565b610e91611b5b565b6001600160a01b0316610ea2611508565b6001600160a01b031614610ec85760405162461bcd60e51b815260040161074e906137e5565b60cc80546001600160a01b0319166001600160a01b0392909216919091179055565b606060008585604051610efe929190613088565b604051809103902090506000610f7b85858080601f01602080910402602001604051908101604052809392919081815260200183838082843760009201919091525050604051610f759250610f5a915086903090602001613068565b60405160208183030381529060405280519060200120612290565b906122c0565b905060008088888080601f016020809104026020016040519081016040528093929190818152602001838380828437600092019190915250505050602081015192509050610fc883612346565b610fd3828a8a612374565b600080306001600160a01b03168b8b604051610ff0929190613088565b6000604051808303816000865af19150503d806000811461102d576040519150601f19603f3d011682016040523d82523d6000602084013e611032565b606091505b5090925090508161104a576040513d806000833e8082fd5b6001600160e01b031984166001600160a01b038616611067611b5b565b6001600160a01b03167f9490f91465d0d2c12728b9ad47d5f1dd2ac3ef39394796e54a48b94db0b337258960405161109f91906134a7565b60405180910390a49a9950505050505050505050565b60006110bf612430565b6001600160a01b0316826001600160a01b0316149050919050565b6110e5610608611b5b565b6111015760405162461bcd60e51b815260040161074e9061372a565b600085815260cd6020526040812080548792919061111e90613968565b90501161113d5760405162461bcd60e51b815260040161074e90613851565b6111808787878787878080601f01602080910402602001604051908101604052809392919081815260200183838082843760009201919091525061212292505050565b50505050505050565b60cc546001600160a01b031681565b6111a0611b5b565b6001600160a01b03166111b1611508565b6001600160a01b0316146111d75760405162461bcd60e51b815260040161074e906137e5565b60005b8151811015610d465761121382828151811061120657634e487b7160e01b600052603260045260246000fd5b6020026020010151611f00565b8061121d816139a3565b9150506111da565b611230610608611b5b565b61124c5760405162461bcd60e51b815260040161074e9061372a565b6001600160a01b0381166112725760405162461bcd60e51b815260040161074e90613663565b61127b81611b43565b6112836115d6565b6040516001600160a01b038216903480156108fc02916000818181858888f19350505050158015610d46573d6000803e3d6000fd5b6112c3610608611b5b565b6112df5760405162461bcd60e51b815260040161074e9061372a565b600089815260cd6020526040812080548b9291906112fc90613968565b90501161131b5760405162461bcd60e51b815260040161074e90613851565b6113988b8b8b8b8080601f01602080910402602001604051908101604052809392919081815260200183838082843760009201919091525050604080516020601f8b018190048102820181019092528981528e93508d92508c918c91908c908c9081908401838280828437600092019190915250611c8c92505050565b5050505050505050505050565b6113ad611b5b565b6001600160a01b03166113be611508565b6001600160a01b0316146113e45760405162461bcd60e51b815260040161074e906137e5565b6033546040516000916001600160a01b0316907f8be0079c531659141344cd1fd0a4f28419497f9722a3daafe3b4186f6b6457e0908390a3603380546001600160a01b0319169055565b611436611b5b565b6001600160a01b0316611447611508565b6001600160a01b03161461146d5760405162461bcd60e51b815260040161074e906137e5565b60005b8151811015610d46576114a982828151811061149c57634e487b7160e01b600052603260045260246000fd5b6020026020010151611b43565b806114b3816139a3565b915050611470565b6114c6610608611b5b565b6114e25760405162461bcd60e51b815260040161074e9061372a565b6001600160a01b03811661127b5760405162461bcd60e51b815260040161074e90613663565b6033546001600160a01b03165b90565b600083815260cd6020526040812080548592919061153590613968565b9050116115545760405162461bcd60e51b815260040161074e90613851565b610e828585610bc28686611b6a565b60009182526097602090815260408084206001600160a01b0393909316845291905290205460ff1690565b611596611b5b565b6001600160a01b03166115a7611508565b6001600160a01b0316146115cd5760405162461bcd60e51b815260040161074e906137e5565b610d0181611b43565b6115f0600080516020613a00833981519152610360611b5b565b565b6115fa611b5b565b6001600160a01b031661160b611508565b6001600160a01b0316146116315760405162461bcd60e51b815260040161074e906137e5565b60c954604051632678375f60e21b81526001600160a01b03909116906399e0dd7c9061166390859085906004016134e1565b600060405180830381600087803b15801561167d57600080fd5b505af1158015611691573d6000803e3d6000fd5b505060cb546001600160a01b0316159150610d4690505760cb54604051632678375f60e21b81526001600160a01b03909116906399e0dd7c906116da90859085906004016134e1565b600060405180830381600087803b1580156116f457600080fd5b505af1158015610b53573d6000803e3d6000fd5b600081565b604051806040016040528060148152602001732aa7299d1026b4b73a34b7339026b0b730b3b2b960611b81525081565b60cb546001600160a01b031681565b6000610711600080516020613a0083398151915283611563565b611771610608611b5b565b61178d5760405162461bcd60e51b815260040161074e9061372a565b600083815260cd602052604081208054859291906117aa90613968565b9050116117c95760405162461bcd60e51b815260040161074e90613851565b610e82858585858080601f016020809104026020016040519081016040528093929190818152602001838380828437600092019190915250611b9692505050565b611812611b5b565b6001600160a01b0316611823611508565b6001600160a01b0316146118495760405162461bcd60e51b815260040161074e906137e5565b610d018161246a565b60ca546001600160a01b031681565b600087815260cd6020526040812080548992919061187e90613968565b90501161189d5760405162461bcd60e51b815260040161074e90613851565b610c8589896118ac8a8a611b6a565b88888888611f9d565b600080516020613a0083398151915281565b6118d082610b5b565b6118dc81610ca5611b5b565b610cb48383611f18565b6118ee611b5b565b6001600160a01b03166118ff611508565b6001600160a01b0316146119255760405162461bcd60e51b815260040161074e906137e5565b61192e816124b5565b610d01600082612576565b604051806040016040528060058152602001640302e322e360dc1b81525081565b6001600160e01b031981166301ffc9a760e01b14919050565b600054610100900460ff168061198c575060005460ff16155b6119a85760405162461bcd60e51b815260040161074e906136dc565b600054610100900460ff161580156119d3576000805460ff1961ff0019909116610100171660011790555b60006119dd611b5b565b603380546001600160a01b0319166001600160a01b038316908117909155604051919250906000907f8be0079c531659141344cd1fd0a4f28419497f9722a3daafe3b4186f6b6457e0908290a3508015610d01576000805461ff001916905550565b600054610100900460ff1680611a58575060005460ff16155b611a745760405162461bcd60e51b815260040161074e906136dc565b600054610100900460ff16158015611a9f576000805460ff1961ff0019909116610100171660011790555b611ab16000611aac611b5b565b612576565b8015610d01576000805461ff001916905550565b600054610100900460ff1680611ade575060005460ff16155b611afa5760405162461bcd60e51b815260040161074e906136dc565b600054610100900460ff16158015611b25576000805460ff1961ff0019909116610100171660011790555b611b2e8261246a565b8015610d46576000805461ff00191690555050565b610d01600080516020613a0083398151915282612576565b6000611b65612580565b905090565b60608282604051602001611b7f9291906131a4565b604051602081830303815290604052905092915050565b81600080516020613a208339815191521415611c1a5760ca5460cc5460405163c36c212560e01b81526001600160a01b039283169263c36c212592611be3928892879216906004016132ab565b600060405180830381600087803b158015611bfd57600080fd5b505af1158015611c11573d6000803e3d6000fd5b50505050610cb4565b60c9546001600160a01b031663d3fc986484611c3685856125ae565b611c40868661262a565b6040518463ffffffff1660e01b8152600401611c5e93929190613328565b600060405180830381600087803b158015611c7857600080fd5b505af1158015611180573d6000803e3d6000fd5b6000611c9888886125ae565b905087600080516020613a208339815191521415611d935760ca5460cc54604051630f95e75b60e31b81526001600160a01b0392831692637caf3ad892611ce9928e928d92169088906004016132e0565b600060405180830381600087803b158015611d0357600080fd5b505af1158015611d17573d6000803e3d6000fd5b505086159150611d8e90505760cc54604051633a0deb9d60e21b81526001600160a01b039091169063e837ae7490611d5b9089908990899089908890600401613462565b600060405180830381600087803b158015611d7557600080fd5b505af1158015611d89573d6000803e3d6000fd5b505050505b610c85565b60c9546001600160a01b031663efda4d3e8a83611db08c8c61262a565b8a8a8a8a8a6040518963ffffffff1660e01b8152600401611dd89897969594939291906133ac565b600060405180830381600087803b158015611df257600080fd5b505af1158015611e06573d6000803e3d6000fd5b50505050505050505050505050565b611e1f8282611563565b610d4657611e37816001600160a01b0316601461264d565b611e4283602061264d565b604051602001611e539291906131ca565b60408051601f198184030181529082905262461bcd60e51b825261074e916004016134ce565b611e838282611563565b610d465760008281526097602090815260408083206001600160a01b03851684529091529020805460ff19166001179055611ebc611b5b565b6001600160a01b0316816001600160a01b0316837f2f8788117e7eff1d82e926ec794901d17c78024a50270940304540a733656f0d60405160405180910390a45050565b610d01600080516020613a00833981519152826118c7565b611f228282611563565b15610d465760008281526097602090815260408083206001600160a01b03851684529091529020805460ff19169055611f59611b5b565b6001600160a01b0316816001600160a01b0316837ff6391f5c32d9c69d2a47ea670b442974b53935d1edc7fd64eb21e047a839171b60405160405180910390a45050565b6000611fa987876125ae565b905086600080516020613a2083398151915214156120a25760ca5460cc5460405163c36c212560e01b81526001600160a01b039283169263c36c212592611ff8928d928c9216906004016132ab565b600060405180830381600087803b15801561201257600080fd5b505af1158015612026573d6000803e3d6000fd5b50508515915061209d90505760cc54604051633a0deb9d60e21b81526001600160a01b039091169063e837ae749061206a9088908890889088908890600401613462565b600060405180830381600087803b15801561208457600080fd5b505af1158015612098573d6000803e3d6000fd5b505050505b612118565b60c9546001600160a01b031663b0f5917789836120bf8b8b61262a565b898989896040518863ffffffff1660e01b81526004016120e5979695949392919061334f565b600060405180830381600087803b1580156120ff57600080fd5b505af1158015612113573d6000803e3d6000fd5b505050505b5050505050505050565b83600080516020613a2083398151915214156121ab5760ca5460cc54604051630f95e75b60e31b81526001600160a01b0392831692637caf3ad892612174928a92899289929116908890600401613261565b600060405180830381600087803b15801561218e57600080fd5b505af11580156121a2573d6000803e3d6000fd5b50505050610e82565b60c954604080516020601f86018190048102820181019092528481526001600160a01b039092169163b55bc6179188916122029189919089908990819084018382808284376000920191909152506125ae92505050565b6122428888888080601f01602080910402602001604051908101604052809392919081815260200183838082843760009201919091525061262a92505050565b856040518563ffffffff1660e01b8152600401612262949392919061341e565b600060405180830381600087803b15801561227c57600080fd5b505af1158015610c85573d6000803e3d6000fd5b6000816040516020016122a39190613173565b604051602081830303815290604052805190602001209050919050565b6000806000808451604114156122ea5750505060208201516040830151606084015160001a612330565b8451604014156123185750505060408201516020830151906001600160ff1b0381169060ff1c601b01612330565b60405162461bcd60e51b815260040161074e906135af565b61233c86828585612806565b9695505050505050565b61234f816128fc565b6123588161174c565b610d015760405162461bcd60e51b815260040161074e906137a1565b60006001600160e01b0319841663ae2ad90360e01b14806123a557506001600160e01b03198416630260c0cf60e51b145b806123c057506001600160e01b031984166358839d6b60e01b145b806123db57506001600160e01b0319841663039ccf4d60e41b145b806123f657506001600160e01b031984166327bbd22560e01b145b8061241157506001600160e01b03198416633516912b60e11b145b905080610bc75760405162461bcd60e51b815260040161074e90613569565b600061245b7f893ef2ea16c023f61d4f55d3e6ee3fc3f2fbfd478461323dbc2fbf919047086e611515565b546001600160a01b0316905090565b806124947f893ef2ea16c023f61d4f55d3e6ee3fc3f2fbfd478461323dbc2fbf919047086e611515565b80546001600160a01b0319166001600160a01b039290921691909117905550565b6124bd611b5b565b6001600160a01b03166124ce611508565b6001600160a01b0316146124f45760405162461bcd60e51b815260040161074e906137e5565b6001600160a01b03811661251a5760405162461bcd60e51b815260040161074e906135e6565b6033546040516001600160a01b038084169216907f8be0079c531659141344cd1fd0a4f28419497f9722a3daafe3b4186f6b6457e090600090a3603380546001600160a01b0319166001600160a01b0392909216919091179055565b610d468282611e79565b600061258b336110b5565b1561259f575060331936013560601c611515565b6125a7612922565b9050611515565b60008151600014156125d25760405162461bcd60e51b815260040161074e9061381a565b82826040516020016125e49190613098565b6040516020818303038152906040528051906020012060405160200161260b92919061323f565b60408051601f1981840301815291905280516020909101209392505050565b600082815260cd60209081526040918290209151606092611b7f928592016130b4565b6060600061265c836002613906565b6126679060026138ee565b67ffffffffffffffff81111561268d57634e487b7160e01b600052604160045260246000fd5b6040519080825280601f01601f1916602001820160405280156126b7576020820181803683370190505b509050600360fc1b816000815181106126e057634e487b7160e01b600052603260045260246000fd5b60200101906001600160f81b031916908160001a905350600f60fb1b8160018151811061271d57634e487b7160e01b600052603260045260246000fd5b60200101906001600160f81b031916908160001a9053506000612741846002613906565b61274c9060016138ee565b90505b60018111156127e0576f181899199a1a9b1b9c1cb0b131b232b360811b85600f166010811061278e57634e487b7160e01b600052603260045260246000fd5b1a60f81b8282815181106127b257634e487b7160e01b600052603260045260246000fd5b60200101906001600160f81b031916908160001a90535060049490941c936127d981613951565b905061274f565b5083156127ff5760405162461bcd60e51b815260040161074e90613534565b9392505050565b60007f7fffffffffffffffffffffffffffffff5d576e7357a4501ddfe92f46681b20a08211156128485760405162461bcd60e51b815260040161074e9061369a565b8360ff16601b148061285d57508360ff16601c145b6128795760405162461bcd60e51b815260040161074e9061375f565b60006001868686866040516000815260200160405260405161289e94939291906134b0565b6020604051602081039080840390855afa1580156128c0573d6000803e3d6000fd5b5050604051601f1901519150506001600160a01b0381166128f35760405162461bcd60e51b815260040161074e906134fd565b95945050505050565b6001600160a01b038116610d015760405162461bcd60e51b815260040161074e9061362c565b3390565b82805461293290613968565b90600052602060002090601f016020900481019282612954576000855561299a565b82601f1061296d57805160ff191683800117855561299a565b8280016001018555821561299a579182015b8281111561299a57825182559160200191906001019061297f565b506129a69291506129aa565b5090565b5b808211156129a657600081556001016129ab565b8035610714816139ea565b60008083601f8401126129db578182fd5b50813567ffffffffffffffff8111156129f2578182fd5b6020830191508360208083028501011115612a0c57600080fd5b9250929050565b60008083601f840112612a24578182fd5b50813567ffffffffffffffff811115612a3b578182fd5b602083019150836020828501011115612a0c57600080fd5b600060208284031215612a64578081fd5b81356127ff816139ea565b60008060008060608587031215612a84578283fd5b8435612a8f816139ea565b935060208501359250604085013567ffffffffffffffff811115612ab1578283fd5b612abd87828801612a13565b95989497509550505050565b60008060008060008060008060a0898b031215612ae4578384fd5b8835612aef816139ea565b975060208901359650604089013567ffffffffffffffff80821115612b12578586fd5b612b1e8c838d01612a13565b909850965060608b0135915080821115612b36578586fd5b612b428c838d016129ca565b909650945060808b0135915080821115612b5a578384fd5b50612b678b828c016129ca565b999c989b5096995094979396929594505050565b60008060008060008060008060008060c08b8d031215612b99578182fd5b612ba28b6129bf565b995060208b0135985060408b013567ffffffffffffffff80821115612bc5578384fd5b612bd18e838f01612a13565b909a50985060608d0135915080821115612be9578384fd5b612bf58e838f016129ca565b909850965060808d0135915080821115612c0d578384fd5b612c198e838f016129ca565b909650945060a08d0135915080821115612c31578384fd5b50612c3e8d828e01612a13565b915080935050809150509295989b9194979a5092959850565b60008060008060008060808789031215612c6f578182fd5b8635612c7a816139ea565b955060208701359450604087013567ffffffffffffffff80821115612c9d578384fd5b612ca98a838b01612a13565b90965094506060890135915080821115612cc1578384fd5b50612cce89828a01612a13565b979a9699509497509295939492505050565b60006020808385031215612cf2578182fd5b823567ffffffffffffffff80821115612d09578384fd5b818501915085601f830112612d1c578384fd5b813581811115612d2e57612d2e6139d4565b83810260405185828201018181108582111715612d4d57612d4d6139d4565b604052828152858101935084860182860187018a1015612d6b578788fd5b8795505b83861015612d9457612d80816129bf565b855260019590950194938601938601612d6f565b5098975050505050505050565b600060208284031215612db2578081fd5b815180151581146127ff578182fd5b600060208284031215612dd2578081fd5b5035919050565b60008060408385031215612deb578182fd5b823591506020830135612dfd816139ea565b809150509250929050565b600060208284031215612e19578081fd5b81356001600160e01b0319811681146127ff578182fd5b60008060008060408587031215612e45578182fd5b843567ffffffffffffffff80821115612e5c578384fd5b612e6888838901612a13565b90965094506020870135915080821115612e80578384fd5b50612abd87828801612a13565b600080600080600060a08688031215612ea4578283fd5b8535612eaf816139ea565b94506020860135612ebf816139ea565b93506040860135612ecf816139ea565b92506060860135612edf816139ea565b91506080860135612eef816139ea565b809150509295509295909350565b60008060208385031215612f0f578182fd5b823567ffffffffffffffff811115612f25578283fd5b612f3185828601612a13565b90969095509350505050565b600080600060408486031215612f51578081fd5b83359250602084013567ffffffffffffffff811115612f6e578182fd5b612f7a86828701612a13565b9497909650939450505050565b818352602080840193600091908185020181018584845b878110156130055782840389528135601e19883603018112612fbe578687fd5b8701803567ffffffffffffffff811115612fd6578788fd5b803603891315612fe4578788fd5b612ff1868289850161303e565b9a87019a9550505090840190600101612f9e565b5091979650505050505050565b6000815180845261302a816020860160208601613925565b601f01601f19169290920160200192915050565b60008284528282602086013780602084860101526020601f19601f85011685010190509392505050565b91825260601b6bffffffffffffffffffffffff1916602082015260340190565b6000828483379101908152919050565b600082516130aa818460208701613925565b9190910192915050565b6000835160206130c78285838901613925565b601760f91b9184019182528454600190849060028104818416806130ec57607f821691505b85821081141561310a57634e487b7160e01b88526022600452602488fd5b80801561311e576001811461313357613163565b60ff1984168887015282880186019450613163565b61313c8b6138e2565b895b848110156131595781548a820189015290870190880161313e565b5050858389010194505b50929a9950505050505050505050565b7f19457468657265756d205369676e6564204d6573736167653a0a3332000000008152601c810191909152603c0190565b6000697564746573746465762d60b01b82528284600a8401379101600a01908152919050565b60007f416363657373436f6e74726f6c3a206163636f756e742000000000000000000082528351613202816017850160208801613925565b7001034b99036b4b9b9b4b733903937b6329607d1b6017918401918201528351613233816028840160208801613925565b01602801949350505050565b918252602082015260400190565b6001600160a01b0391909116815260200190565b600060018060a01b0380881683526080602084015261328460808401878961303e565b8186166040850152838103606085015261329e8186613012565b9998505050505050505050565b600060018060a01b038086168352606060208401526132cd6060840186613012565b9150808416604084015250949350505050565b600060018060a01b038087168352608060208401526133026080840187613012565b8186166040850152838103606085015261331c8186613012565b98975050505050505050565b600060018060a01b0385168252836020830152606060408301526128f36060830184613012565b600060018060a01b038916825287602083015260a0604083015261337660a0830188613012565b8281036060840152613389818789612f87565b9050828103608084015261339e818587612f87565b9a9950505050505050505050565b600060018060a01b038a16825288602083015260c060408301526133d360c0830189613012565b82810360608401526133e681888a612f87565b905082810360808401526133fb818688612f87565b905082810360a084015261340f8185613012565b9b9a5050505050505050505050565b600060018060a01b0386168252846020830152608060408301526134456080830185613012565b82810360608401526134578185613012565b979650505050505050565b600060608252613476606083018789612f87565b8281036020840152613489818688612f87565b9150508260408301529695505050505050565b901515815260200190565b90815260200190565b93845260ff9290921660208401526040830152606082015260800190565b6000602082526127ff6020830184613012565b6000602082526134f560208301848661303e565b949350505050565b60208082526018908201527f45434453413a20696e76616c6964207369676e61747572650000000000000000604082015260600190565b6020808252818101527f537472696e67733a20686578206c656e67746820696e73756666696369656e74604082015260600190565b60208082526026908201527f4d696e74696e674d616e616765723a20554e535550504f525445445f52454c416040820152651657d0d0531360d21b606082015260800190565b6020808252601f908201527f45434453413a20696e76616c6964207369676e6174757265206c656e67746800604082015260600190565b60208082526026908201527f4f776e61626c653a206e6577206f776e657220697320746865207a65726f206160408201526564647265737360d01b606082015260800190565b6020808252601d908201527f52656c617965723a205349474e41545552455f49535f494e56414c4944000000604082015260600190565b6020808252601d908201527f4d696e746572526f6c653a2052454345495645525f49535f454d505459000000604082015260600190565b60208082526022908201527f45434453413a20696e76616c6964207369676e6174757265202773272076616c604082015261756560f01b606082015260800190565b6020808252602e908201527f496e697469616c697a61626c653a20636f6e747261637420697320616c72656160408201526d191e481a5b9a5d1a585b1a5e995960921b606082015260800190565b6020808252818101527f4d696e746572526f6c653a2043414c4c45525f49535f4e4f545f4d494e544552604082015260600190565b60208082526022908201527f45434453413a20696e76616c6964207369676e6174757265202776272076616c604082015261756560f01b606082015260800190565b60208082526024908201527f4d696e74696e674d616e616765723a205349474e45525f49535f4e4f545f4d49604082015263272a22a960e11b606082015260800190565b6020808252818101527f4f776e61626c653a2063616c6c6572206973206e6f7420746865206f776e6572604082015260600190565b6020808252601b908201527f4d696e74696e674d616e616765723a204c4142454c5f454d5054590000000000604082015260600190565b60208082526022908201527f4d696e74696e674d616e616765723a20544c445f4e4f545f5245474953544552604082015261115160f21b606082015260800190565b6020808252602f908201527f416363657373436f6e74726f6c3a2063616e206f6e6c792072656e6f756e636560408201526e103937b632b9903337b91039b2b63360891b606082015260800190565b60009081526020902090565b60008219821115613901576139016139be565b500190565b6000816000190483118215151615613920576139206139be565b500290565b60005b83811015613940578181015183820152602001613928565b83811115610bc75750506000910152565b600081613960576139606139be565b506000190190565b60028104600182168061397c57607f821691505b6020821081141561399d57634e487b7160e01b600052602260045260246000fd5b50919050565b60006000198214156139b7576139b76139be565b5060010190565b634e487b7160e01b600052601160045260246000fd5b634e487b7160e01b600052604160045260246000fd5b6001600160a01b0381168114610d0157600080fdfe9f2df0fed2c77648de5860a4cc508cd0818c85b8b8a1ab4ceeef8d981c8956a60f4a10a4f46c288cea365fcf45cccf0e9d901b945b9829ccdb54c10dc3cb7a6fa2646970667358221220a7f7fcbfed98932877bf39fe61f1355f2fe9a5ac0b64588bfbd333dbffc75d6064736f6c63430008000033",
  "linkReferences": {},
  "deployedLinkReferences": {}
}