{
  "_format": "hh-sol-artifact-1",
  "contractName": "ProxyReader",
  "sourceName": "contracts/ProxyReader.sol",
  "abi": [
    {
      "inputs": [
        {
          "internalType": "contract IUNSRegistry",
          "name": "unsRegistry",
          "type": "address"
        },
        {
          "internalType": "contract ICNSRegistry",
          "name": "cnsRegistry",
          "type": "address"
        }
      ],
      "stateMutability": "nonpayable",
      "type": "constructor"
    },
    {
      "inputs": [],
      "name": "NAME",
      "outputs": [
        {
          "internalType": "string",
          "name": "",
          "type": "string"
        }
      ],
      "stateMutability": "view",
      "type": "function"
    },
    {
      "inputs": [],
      "name": "VERSION",
      "outputs": [
        {
          "internalType": "string",
          "name": "",
          "type": "string"
        }
      ],
      "stateMutability": "view",
      "type": "function"
    },
    {
      "inputs": [
        {
          "internalType": "address",
          "name": "owner",
          "type": "address"
        }
      ],
      "name": "balanceOf",
      "outputs": [
        {
          "internalType": "uint256",
          "name": "",
          "type": "uint256"
        }
      ],
      "stateMutability": "view",
      "type": "function"
    },
    {
      "inputs": [
        {
          "internalType": "uint256",
          "name": "tokenId",
          "type": "uint256"
        },
        {
          "internalType": "string",
          "name": "label",
          "type": "string"
        }
      ],
      "name": "childIdOf",
      "outputs": [
        {
          "internalType": "uint256",
          "name": "",
          "type": "uint256"
        }
      ],
      "stateMutability": "view",
      "type": "function"
    },
    {
      "inputs": [
        {
          "internalType": "uint256",
          "name": "tokenId",
          "type": "uint256"
        }
      ],
      "name": "exists",
      "outputs": [
        {
          "internalType": "bool",
          "name": "",
          "type": "bool"
        }
      ],
      "stateMutability": "view",
      "type": "function"
    },
    {
      "inputs": [
        {
          "internalType": "string",
          "name": "key",
          "type": "string"
        },
        {
          "internalType": "uint256",
          "name": "tokenId",
          "type": "uint256"
        }
      ],
      "name": "get",
      "outputs": [
        {
          "internalType": "string",
          "name": "value",
          "type": "string"
        }
      ],
      "stateMutability": "view",
      "type": "function"
    },
    {
      "inputs": [
        {
          "internalType": "uint256",
          "name": "tokenId",
          "type": "uint256"
        }
      ],
      "name": "getApproved",
      "outputs": [
        {
          "internalType": "address",
          "name": "",
          "type": "address"
        }
      ],
      "stateMutability": "view",
      "type": "function"
    },
    {
      "inputs": [
        {
          "internalType": "uint256",
          "name": "keyHash",
          "type": "uint256"
        },
        {
          "internalType": "uint256",
          "name": "tokenId",
          "type": "uint256"
        }
      ],
      "name": "getByHash",
      "outputs": [
        {
          "internalType": "string",
          "name": "key",
          "type": "string"
        },
        {
          "internalType": "string",
          "name": "value",
          "type": "string"
        }
      ],
      "stateMutability": "view",
      "type": "function"
    },
    {
      "inputs": [
        {
          "internalType": "string[]",
          "name": "keys",
          "type": "string[]"
        },
        {
          "internalType": "uint256",
          "name": "tokenId",
          "type": "uint256"
        }
      ],
      "name": "getData",
      "outputs": [
        {
          "internalType": "address",
          "name": "resolver",
          "type": "address"
        },
        {
          "internalType": "address",
          "name": "owner",
          "type": "address"
        },
        {
          "internalType": "string[]",
          "name": "values",
          "type": "string[]"
        }
      ],
      "stateMutability": "view",
      "type": "function"
    },
    {
      "inputs": [
        {
          "internalType": "uint256[]",
          "name": "keyHashes",
          "type": "uint256[]"
        },
        {
          "internalType": "uint256",
          "name": "tokenId",
          "type": "uint256"
        }
      ],
      "name": "getDataByHash",
      "outputs": [
        {
          "internalType": "address",
          "name": "resolver",
          "type": "address"
        },
        {
          "internalType": "address",
          "name": "owner",
          "type": "address"
        },
        {
          "internalType": "string[]",
          "name": "keys",
          "type": "string[]"
        },
        {
          "internalType": "string[]",
          "name": "values",
          "type": "string[]"
        }
      ],
      "stateMutability": "view",
      "type": "function"
    },
    {
      "inputs": [
        {
          "internalType": "uint256[]",
          "name": "keyHashes",
          "type": "uint256[]"
        },
        {
          "internalType": "uint256[]",
          "name": "tokenIds",
          "type": "uint256[]"
        }
      ],
      "name": "getDataByHashForMany",
      "outputs": [
        {
          "internalType": "address[]",
          "name": "resolvers",
          "type": "address[]"
        },
        {
          "internalType": "address[]",
          "name": "owners",
          "type": "address[]"
        },
        {
          "internalType": "string[][]",
          "name": "keys",
          "type": "string[][]"
        },
        {
          "internalType": "string[][]",
          "name": "values",
          "type": "string[][]"
        }
      ],
      "stateMutability": "view",
      "type": "function"
    },
    {
      "inputs": [
        {
          "internalType": "string[]",
          "name": "keys",
          "type": "string[]"
        },
        {
          "internalType": "uint256[]",
          "name": "tokenIds",
          "type": "uint256[]"
        }
      ],
      "name": "getDataForMany",
      "outputs": [
        {
          "internalType": "address[]",
          "name": "resolvers",
          "type": "address[]"
        },
        {
          "internalType": "address[]",
          "name": "owners",
          "type": "address[]"
        },
        {
          "internalType": "string[][]",
          "name": "values",
          "type": "string[][]"
        }
      ],
      "stateMutability": "view",
      "type": "function"
    },
    {
      "inputs": [
        {
          "internalType": "string[]",
          "name": "keys",
          "type": "string[]"
        },
        {
          "internalType": "uint256",
          "name": "tokenId",
          "type": "uint256"
        }
      ],
      "name": "getMany",
      "outputs": [
        {
          "internalType": "string[]",
          "name": "values",
          "type": "string[]"
        }
      ],
      "stateMutability": "view",
      "type": "function"
    },
    {
      "inputs": [
        {
          "internalType": "uint256[]",
          "name": "keyHashes",
          "type": "uint256[]"
        },
        {
          "internalType": "uint256",
          "name": "tokenId",
          "type": "uint256"
        }
      ],
      "name": "getManyByHash",
      "outputs": [
        {
          "internalType": "string[]",
          "name": "keys",
          "type": "string[]"
        },
        {
          "internalType": "string[]",
          "name": "values",
          "type": "string[]"
        }
      ],
      "stateMutability": "view",
      "type": "function"
    },
    {
      "inputs": [
        {
          "internalType": "address",
          "name": "",
          "type": "address"
        },
        {
          "internalType": "address",
          "name": "",
          "type": "address"
        }
      ],
      "name": "isApprovedForAll",
      "outputs": [
        {
          "internalType": "bool",
          "name": "",
          "type": "bool"
        }
      ],
      "stateMutability": "pure",
      "type": "function"
    },
    {
      "inputs": [
        {
          "internalType": "address",
          "name": "spender",
          "type": "address"
        },
        {
          "internalType": "uint256",
          "name": "tokenId",
          "type": "uint256"
        }
      ],
      "name": "isApprovedOrOwner",
      "outputs": [
        {
          "internalType": "bool",
          "name": "",
          "type": "bool"
        }
      ],
      "stateMutability": "view",
      "type": "function"
    },
    {
      "inputs": [
        {
          "internalType": "bytes[]",
          "name": "data",
          "type": "bytes[]"
        }
      ],
      "name": "multicall",
      "outputs": [
        {
          "internalType": "bytes[]",
          "name": "results",
          "type": "bytes[]"
        }
      ],
      "stateMutability": "nonpayable",
      "type": "function"
    },
    {
      "inputs": [
        {
          "internalType": "uint256",
          "name": "tokenId",
          "type": "uint256"
        }
      ],
      "name": "ownerOf",
      "outputs": [
        {
          "internalType": "address",
          "name": "",
          "type": "address"
        }
      ],
      "stateMutability": "view",
      "type": "function"
    },
    {
      "inputs": [
        {
          "internalType": "uint256[]",
          "name": "tokenIds",
          "type": "uint256[]"
        }
      ],
      "name": "ownerOfForMany",
      "outputs": [
        {
          "internalType": "address[]",
          "name": "owners",
          "type": "address[]"
        }
      ],
      "stateMutability": "view",
      "type": "function"
    },
    {
      "inputs": [
        {
          "internalType": "uint256",
          "name": "tokenId",
          "type": "uint256"
        }
      ],
      "name": "registryOf",
      "outputs": [
        {
          "internalType": "address",
          "name": "",
          "type": "address"
        }
      ],
      "stateMutability": "view",
      "type": "function"
    },
    {
      "inputs": [
        {
          "internalType": "uint256",
          "name": "tokenId",
          "type": "uint256"
        }
      ],
      "name": "resolverOf",
      "outputs": [
        {
          "internalType": "address",
          "name": "",
          "type": "address"
        }
      ],
      "stateMutability": "view",
      "type": "function"
    },
    {
      "inputs": [
        {
          "internalType": "bytes4",
          "name": "interfaceId",
          "type": "bytes4"
        }
      ],
      "name": "supportsInterface",
      "outputs": [
        {
          "internalType": "bool",
          "name": "",
          "type": "bool"
        }
      ],
      "stateMutability": "view",
      "type": "function"
    },
    {
      "inputs": [
        {
          "internalType": "uint256",
          "name": "tokenId",
          "type": "uint256"
        }
      ],
      "name": "tokenURI",
      "outputs": [
        {
          "internalType": "string",
          "name": "",
          "type": "string"
        }
      ],
      "stateMutability": "view",
      "type": "function"
    }
  ],
  "bytecode": "0x60c06040523480156200001157600080fd5b506040516200319a3803806200319a8339810160408190526200003491620000e4565b6001600160601b0319606083811b821660805282901b1660a0526200005862000060565b505062000186565b600054610100900460ff16806200007a575060005460ff16155b620000a25760405162461bcd60e51b8152600401620000999062000122565b60405180910390fd5b600054610100900460ff16158015620000ce576000805460ff1961ff0019909116610100171660011790555b8015620000e1576000805461ff00191690555b50565b60008060408385031215620000f7578182fd5b8251620001048162000170565b6020840151909250620001178162000170565b809150509250929050565b6020808252602e908201527f496e697469616c697a61626c653a20636f6e747261637420697320616c72656160408201526d191e481a5b9a5d1a585b1a5e995960921b606082015260800190565b6001600160a01b0381168114620000e157600080fd5b60805160601c60a05160601c612f24620002766000396000818161045b015281816108d101528181610d8d01528181610dd1015281816113d901528181611429015281816115990152818161195301528181611dcf01528181611e640152611f140152600081816104fc01528181610604015281816107800152818161097401528181610a3c01528181610af401528181610c5901528181610cef01528181611326015281816113b3015281816115e5015281816116fa015281816119f301528181611bbc01528181611c6601528181611e1501528181611ff00152818161209a01526122c40152612f246000f3fe608060405234801561001057600080fd5b506004361061014d5760003560e01c8063869b8884116100c3578063b3f9e4cb1161007c578063b3f9e4cb1461032d578063b85afd2814610340578063c15ae7cf14610361578063c87b56dd14610381578063e985e9c514610394578063ffa1ad74146103a75761014d565b8063869b88841461028b57806391015f6b146102ae578063933c051d146102d0578063a3f4df7e146102f2578063a81ce6f9146102fa578063ac9650d81461030d5761014d565b8063430c208111610115578063430c2081146101fe5780634f558e79146102115780636352211e14610224578063672b9f811461023757806368b62d321461025857806370a08231146102785761014d565b806301ffc9a714610152578063032807551461017b578063081812fc1461019e5780631bd8cc1a146101be5780631be5e7ed146101de575b600080fd5b610165610160366004612742565b6103af565b6040516101729190612cc7565b60405180910390f35b61018e6101893660046126f9565b610412565b6040516101729493929190612a4f565b6101b16101ac366004612827565b610435565b6040516101729190612a0f565b6101d16101cc3660046125cf565b610581565b6040516101729190612c4e565b6101f16101ec36600461276a565b610759565b6040516101729190612cf6565b61016561020c3660046124fd565b6108ab565b61016561021f366004612827565b6109fb565b6101b1610232366004612827565b610ac1565b61024a6102453660046128a0565b610acc565b604051610172929190612d09565b61026b610266366004612857565b610c3f565b6040516101729190612dab565b61026b61028636600461248d565b610cea565b61029e6102993660046126aa565b610e60565b6040516101729493929190612b07565b6102c16102bc3660046125cf565b6110d4565b60405161017293929190612a23565b6102e36102de366004612567565b6110f4565b60405161017293929190612ac4565b6101f16112df565b6101b1610308366004612827565b61130c565b61032061031b366004612528565b611455565b6040516101729190612b54565b6101b161033b366004612827565b611573565b61035361034e3660046126f9565b61161a565b604051610172929190612c61565b61037461036f366004612528565b611855565b6040516101729190612ab1565b6101f161038f366004612827565b61192d565b6101656103a23660046124c5565b611a7c565b6101f1611a9f565b60006001600160e01b0319821663768134e560e11b14806103e057506001600160e01b03198216636fa624af60e11b145b806103fb57506001600160e01b031982166308da864d60e31b145b8061040a575061040a82611ac0565b90505b919050565b600080606080610423878787611ad9565b93509350935093505b93509350935093565b600061044082611dcb565b6104e55760405163020604bf60e21b81526001600160a01b037f0000000000000000000000000000000000000000000000000000000000000000169063081812fc90610490908590600401612dab565b60206040518083038186803b1580156104a857600080fd5b505afa1580156104bc573d6000803e3d6000fd5b505050506040513d601f19601f820116820180604052508101906104e091906124a9565b61040a565b60405163020604bf60e21b81526001600160a01b037f0000000000000000000000000000000000000000000000000000000000000000169063081812fc90610531908590600401612dab565b60206040518083038186803b15801561054957600080fd5b505afa15801561055d573d6000803e3d6000fd5b505050506040513d601f19601f8201168201806040525081019061040a91906124a9565b6060826001600160401b038111156105a957634e487b7160e01b600052604160045260246000fd5b6040519080825280602002602001820160405280156105dc57816020015b60608152602001906001900390816105c75790505b5090506105e882611dcb565b1561069857604051630dec660d60e11b81526001600160a01b037f00000000000000000000000000000000000000000000000000000000000000001690631bd8cc1a9061063d90879087908790600401612bb4565b60006040518083038186803b15801561065557600080fd5b505afa158015610669573d6000803e3d6000fd5b505050506040513d6000823e601f3d908101601f191682016040526106919190810190612618565b9050610752565b60006106a383611e4a565b90506106b7816001600160a01b0316611ef4565b80156106c257508315155b1561075057604051630dec660d60e11b81526001600160a01b03821690631bd8cc1a906106f790889088908890600401612bb4565b60006040518083038186803b15801561070f57600080fd5b505afa92505050801561074457506040513d6000823e601f3d908101601f191682016040526107419190810190612618565b60015b61074d57610750565b91505b505b9392505050565b606061076482611dcb565b1561080d57604051631be5e7ed60e01b81526001600160a01b037f00000000000000000000000000000000000000000000000000000000000000001690631be5e7ed906107b990879087908790600401612cd2565b60006040518083038186803b1580156107d157600080fd5b505afa1580156107e5573d6000803e3d6000fd5b505050506040513d6000823e601f3d908101601f19168201604052610691919081019061279f565b600061081883611e4a565b905061082c816001600160a01b0316611ef4565b1561075057604051631be5e7ed60e01b81526001600160a01b03821690631be5e7ed9061086190889088908890600401612cd2565b60006040518083038186803b15801561087957600080fd5b505afa92505050801561074457506040513d6000823e601f3d908101601f19168201604052610741919081019061279f565b60006108b682611dcb565b61095d5760405163430c208160e01b81526001600160a01b037f0000000000000000000000000000000000000000000000000000000000000000169063430c2081906109089086908690600401612a98565b60206040518083038186803b15801561092057600080fd5b505afa158015610934573d6000803e3d6000fd5b505050506040513d601f19601f820116820180604052508101906109589190612722565b610752565b60405163430c208160e01b81526001600160a01b037f0000000000000000000000000000000000000000000000000000000000000000169063430c2081906109ab9086908690600401612a98565b60206040518083038186803b1580156109c357600080fd5b505afa1580156109d7573d6000803e3d6000fd5b505050506040513d601f19601f820116820180604052508101906107529190612722565b6000610a0682611dcb565b610a25576000610a1583611efa565b6001600160a01b0316141561040a565b604051634f558e7960e01b81526001600160a01b037f00000000000000000000000000000000000000000000000000000000000000001690634f558e7990610a71908590600401612dab565b60206040518083038186803b158015610a8957600080fd5b505afa158015610a9d573d6000803e3d6000fd5b505050506040513d601f19601f8201168201806040525081019061040a9190612722565b600061040a82611f49565b606080610ad883611dcb565b15610b885760405163672b9f8160e01b81526001600160a01b037f0000000000000000000000000000000000000000000000000000000000000000169063672b9f8190610b2b9087908790600401612dce565b60006040518083038186803b158015610b4357600080fd5b505afa158015610b57573d6000803e3d6000fd5b505050506040513d6000823e601f3d908101601f19168201604052610b7f91908101906127d1565b91509150610c38565b6000610b9384611e4a565b9050610ba7816001600160a01b0316611ef4565b15610c365760405163672b9f8160e01b81526001600160a01b0382169063672b9f8190610bda9088908890600401612dce565b60006040518083038186803b158015610bf257600080fd5b505afa925050508015610c2757506040513d6000823e601f3d908101601f19168201604052610c2491908101906127d1565b60015b610c3057610c36565b90935091505b505b9250929050565b60405163345b169960e11b81526000906001600160a01b037f000000000000000000000000000000000000000000000000000000000000000016906368b62d3290610c9290879087908790600401612db4565b60206040518083038186803b158015610caa57600080fd5b505afa158015610cbe573d6000803e3d6000fd5b505050506040513d601f19601f82011682018060405250810190610ce2919061283f565b949350505050565b6000807f00000000000000000000000000000000000000000000000000000000000000006001600160a01b03166370a08231846040518263ffffffff1660e01b8152600401610d399190612a0f565b60206040518083038186803b158015610d5157600080fd5b505afa158015610d65573d6000803e3d6000fd5b505050506040513d601f19601f82011682018060405250810190610d89919061283f565b90507f00000000000000000000000000000000000000000000000000000000000000006001600160a01b03161561040a576040516370a0823160e01b81526001600160a01b037f000000000000000000000000000000000000000000000000000000000000000016906370a0823190610e06908690600401612a0f565b60206040518083038186803b158015610e1e57600080fd5b505afa158015610e32573d6000803e3d6000fd5b505050506040513d601f19601f82011682018060405250810190610e56919061283f565b6107529082612e49565b6060808080846001600160401b03811115610e8b57634e487b7160e01b600052604160045260246000fd5b604051908082528060200260200182016040528015610eb4578160200160208202803683370190505b509350846001600160401b03811115610edd57634e487b7160e01b600052604160045260246000fd5b604051908082528060200260200182016040528015610f06578160200160208202803683370190505b509250846001600160401b03811115610f2f57634e487b7160e01b600052604160045260246000fd5b604051908082528060200260200182016040528015610f6257816020015b6060815260200190600190039081610f4d5790505b509150846001600160401b03811115610f8b57634e487b7160e01b600052604160045260246000fd5b604051908082528060200260200182016040528015610fbe57816020015b6060815260200190600190039081610fa95790505b50905060005b858110156110c857610ffd8989898985818110610ff157634e487b7160e01b600052603260045260246000fd5b90506020020135611ad9565b88858151811061101d57634e487b7160e01b600052603260045260246000fd5b6020026020010188868151811061104457634e487b7160e01b600052603260045260246000fd5b6020026020010188878151811061106b57634e487b7160e01b600052603260045260246000fd5b6020026020010188888151811061109257634e487b7160e01b600052603260045260246000fd5b6020908102919091010193909352929091526001600160a01b0392831690915291169052806110c081612e91565b915050610fc4565b50945094509450949050565b60008060606110e4868686611f6a565b9250925092505b93509350939050565b60608080836001600160401b0381111561111e57634e487b7160e01b600052604160045260246000fd5b604051908082528060200260200182016040528015611147578160200160208202803683370190505b509250836001600160401b0381111561117057634e487b7160e01b600052604160045260246000fd5b604051908082528060200260200182016040528015611199578160200160208202803683370190505b509150836001600160401b038111156111c257634e487b7160e01b600052604160045260246000fd5b6040519080825280602002602001820160405280156111f557816020015b60608152602001906001900390816111e05790505b50905060005b848110156112d457611234888888888581811061122857634e487b7160e01b600052603260045260246000fd5b90506020020135611f6a565b86848151811061125457634e487b7160e01b600052603260045260246000fd5b6020026020010186858151811061127b57634e487b7160e01b600052603260045260246000fd5b602002602001018686815181106112a257634e487b7160e01b600052603260045260246000fd5b60209081029190910101929092526001600160a01b0392831690915291169052806112cc81612e91565b9150506111fb565b509450945094915050565b604051806040016040528060118152602001702aa7299d10283937bc3c902932b0b232b960791b81525081565b604051634f558e7960e01b81526000906001600160a01b037f00000000000000000000000000000000000000000000000000000000000000001690634f558e799061135b908590600401612dab565b60206040518083038186803b15801561137357600080fd5b505afa158015611387573d6000803e3d6000fd5b505050506040513d601f19601f820116820180604052508101906113ab9190612722565b156113d757507f000000000000000000000000000000000000000000000000000000000000000061040d565b7f00000000000000000000000000000000000000000000000000000000000000006001600160a01b0316158015906114215750600061141583611efa565b6001600160a01b031614155b1561144d57507f000000000000000000000000000000000000000000000000000000000000000061040d565b506000919050565b6060816001600160401b0381111561147d57634e487b7160e01b600052604160045260246000fd5b6040519080825280602002602001820160405280156114b057816020015b606081526020019060019003908161149b5790505b50905060005b8281101561156c5761152e308585848181106114e257634e487b7160e01b600052603260045260246000fd5b90506020028101906114f49190612ddc565b8080601f0160208091040260200160405190810160405280939291908181526020018383808284376000920191909152506121f792505050565b82828151811061154e57634e487b7160e01b600052603260045260246000fd5b6020026020010181905250808061156490612e91565b9150506114b6565b5092915050565b600061157e82611dcb565b6115ce5760405163b3f9e4cb60e01b81526001600160a01b037f0000000000000000000000000000000000000000000000000000000000000000169063b3f9e4cb90610490908590600401612dab565b60405163b3f9e4cb60e01b81526001600160a01b037f0000000000000000000000000000000000000000000000000000000000000000169063b3f9e4cb90610531908590600401612dab565b606080836001600160401b0381111561164357634e487b7160e01b600052604160045260246000fd5b60405190808252806020026020018201604052801561167657816020015b60608152602001906001900390816116615790505b509150836001600160401b0381111561169f57634e487b7160e01b600052604160045260246000fd5b6040519080825280602002602001820160405280156116d257816020015b60608152602001906001900390816116bd5790505b5090506116de83611dcb565b156117905760405163170b5fa560e31b81526001600160a01b037f0000000000000000000000000000000000000000000000000000000000000000169063b85afd289061173390889088908890600401612c86565b60006040518083038186803b15801561174b57600080fd5b505afa15801561175f573d6000803e3d6000fd5b505050506040513d6000823e601f3d908101601f19168201604052611787919081019061264a565b9150915061184d565b600061179b84611e4a565b90506117af816001600160a01b0316611ef4565b80156117ba57508415155b1561184b5760405163170b5fa560e31b81526001600160a01b0382169063b85afd28906117ef90899089908990600401612c86565b60006040518083038186803b15801561180757600080fd5b505afa92505050801561183c57506040513d6000823e601f3d908101601f19168201604052611839919081019061264a565b60015b6118455761184b565b90935091505b505b935093915050565b6060816001600160401b0381111561187d57634e487b7160e01b600052604160045260246000fd5b6040519080825280602002602001820160405280156118a6578160200160208202803683370190505b50905060005b8281101561156c576118e38484838181106118d757634e487b7160e01b600052603260045260246000fd5b90506020020135611f49565b82828151811061190357634e487b7160e01b600052603260045260246000fd5b6001600160a01b03909216602092830291909101909101528061192581612e91565b9150506118ac565b606061193882611dcb565b6119dc5760405163c87b56dd60e01b81526001600160a01b037f0000000000000000000000000000000000000000000000000000000000000000169063c87b56dd90611988908590600401612dab565b60006040518083038186803b1580156119a057600080fd5b505afa1580156119b4573d6000803e3d6000fd5b505050506040513d6000823e601f3d908101601f191682016040526104e0919081019061279f565b60405163c87b56dd60e01b81526001600160a01b037f0000000000000000000000000000000000000000000000000000000000000000169063c87b56dd90611a28908590600401612dab565b60006040518083038186803b158015611a4057600080fd5b505afa158015611a54573d6000803e3d6000fd5b505050506040513d6000823e601f3d908101601f1916820160405261040a919081019061279f565b600060405162461bcd60e51b8152600401611a9690612d2e565b60405180910390fd5b60405180604001604052806005815260200164302e322e3160d81b81525081565b6001600160e01b031981166301ffc9a760e01b14919050565b600080606080856001600160401b03811115611b0557634e487b7160e01b600052604160045260246000fd5b604051908082528060200260200182016040528015611b3857816020015b6060815260200190600190039081611b235790505b509150856001600160401b03811115611b6157634e487b7160e01b600052604160045260246000fd5b604051908082528060200260200182016040528015611b9457816020015b6060815260200190600190039081611b7f5790505b509050611ba085611dcb565b15611cfd5760405163b3f9e4cb60e01b81526001600160a01b037f0000000000000000000000000000000000000000000000000000000000000000169063b3f9e4cb90611bf1908890600401612dab565b60206040518083038186803b158015611c0957600080fd5b505afa158015611c1d573d6000803e3d6000fd5b505050506040513d601f19601f82011682018060405250810190611c4191906124a9565b9350611c4c856122aa565b60405163170b5fa560e31b81529093506001600160a01b037f0000000000000000000000000000000000000000000000000000000000000000169063b85afd2890611c9f908a908a908a90600401612c86565b60006040518083038186803b158015611cb757600080fd5b505afa158015611ccb573d6000803e3d6000fd5b505050506040513d6000823e601f3d908101601f19168201604052611cf3919081019061264a565b909250905061042c565b611d0685611e4a565b9350611d1185611efa565b9250611d25846001600160a01b0316611ef4565b8015611d32575060008251115b1561042c5760405163170b5fa560e31b81526001600160a01b0385169063b85afd2890611d67908a908a908a90600401612c86565b60006040518083038186803b158015611d7f57600080fd5b505afa925050508015611db457506040513d6000823e601f3d908101601f19168201604052611db1919081019061264a565b60015b611dbd5761042c565b909250905093509350935093565b60007f00000000000000000000000000000000000000000000000000000000000000006001600160a01b0316158061040a5750604051634f558e7960e01b81526001600160a01b037f00000000000000000000000000000000000000000000000000000000000000001690634f558e7990610a71908590600401612dab565b60405163b3f9e4cb60e01b81526000906001600160a01b037f0000000000000000000000000000000000000000000000000000000000000000169063b3f9e4cb90611e99908590600401612dab565b60206040518083038186803b158015611eb157600080fd5b505afa925050508015611ee1575060408051601f3d908101601f19168201909252611ede918101906124a9565b60015b611eed5750600061040d565b905061040d565b3b151590565b6040516331a9108f60e11b81526000906001600160a01b037f00000000000000000000000000000000000000000000000000000000000000001690636352211e90611e99908590600401612dab565b6000611f5482611dcb565b611f61576104e082611efa565b61040a826122aa565b6000806060846001600160401b03811115611f9557634e487b7160e01b600052604160045260246000fd5b604051908082528060200260200182016040528015611fc857816020015b6060815260200190600190039081611fb35790505b509050611fd484611dcb565b1561212e5760405163b3f9e4cb60e01b81526001600160a01b037f0000000000000000000000000000000000000000000000000000000000000000169063b3f9e4cb90612025908790600401612dab565b60206040518083038186803b15801561203d57600080fd5b505afa158015612051573d6000803e3d6000fd5b505050506040513d601f19601f8201168201806040525081019061207591906124a9565b9250612080846122aa565b604051630dec660d60e11b81529092506001600160a01b037f00000000000000000000000000000000000000000000000000000000000000001690631bd8cc1a906120d390899089908990600401612bb4565b60006040518083038186803b1580156120eb57600080fd5b505afa1580156120ff573d6000803e3d6000fd5b505050506040513d6000823e601f3d908101601f191682016040526121279190810190612618565b90506110eb565b61213784611e4a565b925061214284611efa565b9150612156836001600160a01b0316611ef4565b801561216157508415155b156110eb57604051630dec660d60e11b81526001600160a01b03841690631bd8cc1a9061219690899089908990600401612bb4565b60006040518083038186803b1580156121ae57600080fd5b505afa9250505080156121e357506040513d6000823e601f3d908101601f191682016040526121e09190810190612618565b60015b6121ec576110eb565b905093509350939050565b606061220283611ef4565b61221e5760405162461bcd60e51b8152600401611a9690612d65565b600080846001600160a01b03168460405161223991906129f3565b600060405180830381855af49150503d8060008114612274576040519150601f19603f3d011682016040523d82523d6000602084013e612279565b606091505b50915091506122a18282604051806060016040528060278152602001612ef1602791396122f9565b95945050505050565b6040516331a9108f60e11b81526000906001600160a01b037f00000000000000000000000000000000000000000000000000000000000000001690636352211e90611e99908590600401612dab565b60608315612308575081610752565b8251156123185782518084602001fd5b8160405162461bcd60e51b8152600401611a969190612cf6565b60008083601f840112612343578182fd5b5081356001600160401b03811115612359578182fd5b6020830191508360208083028501011115610c3857600080fd5b600082601f830112612383578081fd5b815160206001600160401b0382111561239e5761239e612ec2565b6123ab8182840201612e20565b82815281810190858301855b858110156123e0576123ce898684518b010161242c565b845292840192908401906001016123b7565b5090979650505050505050565b60008083601f8401126123fe578182fd5b5081356001600160401b03811115612414578182fd5b602083019150836020828501011115610c3857600080fd5b600082601f83011261243c578081fd5b81516001600160401b0381111561245557612455612ec2565b612468601f8201601f1916602001612e20565b81815284602083860101111561247c578283fd5b610ce2826020830160208701612e61565b60006020828403121561249e578081fd5b813561075281612ed8565b6000602082840312156124ba578081fd5b815161075281612ed8565b600080604083850312156124d7578081fd5b82356124e281612ed8565b915060208301356124f281612ed8565b809150509250929050565b6000806040838503121561250f578182fd5b823561251a81612ed8565b946020939093013593505050565b6000806020838503121561253a578182fd5b82356001600160401b0381111561254f578283fd5b61255b85828601612332565b90969095509350505050565b6000806000806040858703121561257c578182fd5b84356001600160401b0380821115612592578384fd5b61259e88838901612332565b909650945060208701359150808211156125b6578384fd5b506125c387828801612332565b95989497509550505050565b6000806000604084860312156125e3578283fd5b83356001600160401b038111156125f8578384fd5b61260486828701612332565b909790965060209590950135949350505050565b600060208284031215612629578081fd5b81516001600160401b0381111561263e578182fd5b610ce284828501612373565b6000806040838503121561265c578182fd5b82516001600160401b0380821115612672578384fd5b61267e86838701612373565b93506020850151915080821115612693578283fd5b506126a085828601612373565b9150509250929050565b600080600080604085870312156126bf578081fd5b84356001600160401b03808211156126d5578283fd5b6126e188838901612332565b909650945060208701359150808211156125b6578283fd5b60008060006040848603121561270d578081fd5b83356001600160401b038111156125f8578182fd5b600060208284031215612733578081fd5b81518015158114610752578182fd5b600060208284031215612753578081fd5b81356001600160e01b031981168114610752578182fd5b60008060006040848603121561277e578081fd5b83356001600160401b03811115612793578182fd5b612604868287016123ed565b6000602082840312156127b0578081fd5b81516001600160401b038111156127c5578182fd5b610ce28482850161242c565b600080604083850312156127e3578182fd5b82516001600160401b03808211156127f9578384fd5b6128058683870161242c565b9350602085015191508082111561281a578283fd5b506126a08582860161242c565b600060208284031215612838578081fd5b5035919050565b600060208284031215612850578081fd5b5051919050565b60008060006040848603121561286b578081fd5b8335925060208401356001600160401b03811115612887578182fd5b612893868287016123ed565b9497909650939450505050565b600080604083850312156128b2578182fd5b50508035926020909101359150565b6000815180845260208085019450808401835b838110156128f95781516001600160a01b0316875295820195908201906001016128d4565b509495945050505050565b6000815180845260208085018081965082840281019150828601855b8581101561294a578284038952612938848351612957565b98850198935090840190600101612920565b5091979650505050505050565b6000815180845260208085018081965082840281019150828601855b8581101561294a57828403895261298b84835161299d565b98850198935090840190600101612973565b600081518084526129b5816020860160208601612e61565b601f01601f19169290920160200192915050565b60008284528282602086013780602084860101526020601f19601f85011685010190509392505050565b60008251612a05818460208701612e61565b9190910192915050565b6001600160a01b0391909116815260200190565b6001600160a01b038481168252831660208201526060604082018190526000906122a190830184612957565b6001600160a01b03858116825284166020820152608060408201819052600090612a7b90830185612957565b8281036060840152612a8d8185612957565b979650505050505050565b6001600160a01b03929092168252602082015260400190565b60006020825261075260208301846128c1565b600060608252612ad760608301866128c1565b8281036020840152612ae981866128c1565b90508281036040840152612afd8185612904565b9695505050505050565b600060808252612b1a60808301876128c1565b8281036020840152612b2c81876128c1565b90508281036040840152612b408186612904565b90508281036060840152612a8d8185612904565b6000602080830181845280855180835260408601915060408482028701019250838701855b82811015612ba757603f19888603018452612b9585835161299d565b94509285019290850190600101612b79565b5092979650505050505050565b604080825281018390526000602060608084019082870285010187845b88811015612c3c57868303605f190184528135368b9003601e19018112612bf6578687fd5b8a0180356001600160401b03811115612c0d578788fd5b8036038c1315612c1b578788fd5b612c2885828985016129c9565b958701959450505090840190600101612bd1565b50509390910193909352509392505050565b6000602082526107526020830184612957565b600060408252612c746040830185612957565b82810360208401526122a18185612957565b6040808252810183905260006001600160fb1b03841115612ca5578081fd5b6020840280866060850137820160600190815260209091019190915292915050565b901515815260200190565b600060408252612ce66040830185876129c9565b9050826020830152949350505050565b600060208252610752602083018461299d565b600060408252612d1c604083018561299d565b82810360208401526122a1818561299d565b6020808252601f908201527f50726f78795265616465723a20554e535550504f525445445f4d4554484f4400604082015260600190565b60208082526026908201527f416464726573733a2064656c65676174652063616c6c20746f206e6f6e2d636f6040820152651b9d1c9858dd60d21b606082015260800190565b90815260200190565b6000848252604060208301526122a16040830184866129c9565b918252602082015260400190565b6000808335601e19843603018112612df2578283fd5b8301803591506001600160401b03821115612e0b578283fd5b602001915036819003821315610c3857600080fd5b6040518181016001600160401b0381118282101715612e4157612e41612ec2565b604052919050565b60008219821115612e5c57612e5c612eac565b500190565b60005b83811015612e7c578181015183820152602001612e64565b83811115612e8b576000848401525b50505050565b6000600019821415612ea557612ea5612eac565b5060010190565b634e487b7160e01b600052601160045260246000fd5b634e487b7160e01b600052604160045260246000fd5b6001600160a01b0381168114612eed57600080fd5b5056fe416464726573733a206c6f772d6c6576656c2064656c65676174652063616c6c206661696c6564a164736f6c6343000800000a",
  "linkReferences": {},
  "deployedLinkReferences": {}
}