{
  "_format": "hh-sol-artifact-1",
  "contractName": "ProxyReader",
  "sourceName": "contracts/ProxyReader.sol",
  "abi": [
    {
      "anonymous": false,
      "inputs": [
        {
          "indexed": false,
          "internalType": "uint8",
          "name": "version",
          "type": "uint8"
        }
      ],
      "name": "Initialized",
      "type": "event"
    },
    {
      "anonymous": false,
      "inputs": [
        {
          "indexed": true,
          "internalType": "address",
          "name": "previousOwner",
          "type": "address"
        },
        {
          "indexed": true,
          "internalType": "address",
          "name": "newOwner",
          "type": "address"
        }
      ],
      "name": "OwnershipTransferred",
      "type": "event"
    },
    {
      "inputs": [],
      "name": "NAME",
      "outputs": [
        {
          "internalType": "string",
          "name": "",
          "type": "string"
        }
      ],
      "stateMutability": "view",
      "type": "function"
    },
    {
      "inputs": [],
      "name": "VERSION",
      "outputs": [
        {
          "internalType": "string",
          "name": "",
          "type": "string"
        }
      ],
      "stateMutability": "view",
      "type": "function"
    },
    {
      "inputs": [
        {
          "internalType": "string[]",
          "name": "networks",
          "type": "string[]"
        },
        {
          "internalType": "string[]",
          "name": "families",
          "type": "string[]"
        }
      ],
      "name": "addBlockchainNetworksV1",
      "outputs": [],
      "stateMutability": "nonpayable",
      "type": "function"
    },
    {
      "inputs": [
        {
          "internalType": "string[]",
          "name": "networks",
          "type": "string[]"
        },
        {
          "internalType": "string",
          "name": "family",
          "type": "string"
        }
      ],
      "name": "addBlockchainNetworksV2",
      "outputs": [],
      "stateMutability": "nonpayable",
      "type": "function"
    },
    {
      "inputs": [
        {
          "internalType": "string[]",
          "name": "keys",
          "type": "string[]"
        },
        {
          "internalType": "string[][]",
          "name": "legacyKeys",
          "type": "string[][]"
        }
      ],
      "name": "addLegacyRecords",
      "outputs": [],
      "stateMutability": "nonpayable",
      "type": "function"
    },
    {
      "inputs": [
        {
          "internalType": "address",
          "name": "owner",
          "type": "address"
        }
      ],
      "name": "balanceOf",
      "outputs": [
        {
          "internalType": "uint256",
          "name": "",
          "type": "uint256"
        }
      ],
      "stateMutability": "view",
      "type": "function"
    },
    {
      "inputs": [
        {
          "internalType": "uint256",
          "name": "tokenId",
          "type": "uint256"
        }
      ],
      "name": "exists",
      "outputs": [
        {
          "internalType": "bool",
          "name": "",
          "type": "bool"
        }
      ],
      "stateMutability": "view",
      "type": "function"
    },
    {
      "inputs": [
        {
          "internalType": "string",
          "name": "key",
          "type": "string"
        },
        {
          "internalType": "uint256",
          "name": "tokenId",
          "type": "uint256"
        }
      ],
      "name": "get",
      "outputs": [
        {
          "internalType": "string",
          "name": "value",
          "type": "string"
        }
      ],
      "stateMutability": "view",
      "type": "function"
    },
    {
      "inputs": [
        {
          "internalType": "string",
          "name": "network",
          "type": "string"
        },
        {
          "internalType": "string",
          "name": "token",
          "type": "string"
        },
        {
          "internalType": "uint256",
          "name": "tokenId",
          "type": "uint256"
        }
      ],
      "name": "getAddress",
      "outputs": [
        {
          "internalType": "string",
          "name": "addr",
          "type": "string"
        }
      ],
      "stateMutability": "view",
      "type": "function"
    },
    {
      "inputs": [
        {
          "internalType": "string",
          "name": "network",
          "type": "string"
        },
        {
          "internalType": "string",
          "name": "token",
          "type": "string"
        },
        {
          "internalType": "uint256",
          "name": "tokenId",
          "type": "uint256"
        }
      ],
      "name": "getAddressKey",
      "outputs": [
        {
          "internalType": "string",
          "name": "key",
          "type": "string"
        }
      ],
      "stateMutability": "view",
      "type": "function"
    },
    {
      "inputs": [
        {
          "internalType": "string",
          "name": "network",
          "type": "string"
        },
        {
          "internalType": "string",
          "name": "token",
          "type": "string"
        }
      ],
      "name": "getAddressKeys",
      "outputs": [
        {
          "internalType": "string[]",
          "name": "keys",
          "type": "string[]"
        }
      ],
      "stateMutability": "view",
      "type": "function"
    },
    {
      "inputs": [
        {
          "internalType": "uint256",
          "name": "tokenId",
          "type": "uint256"
        }
      ],
      "name": "getApproved",
      "outputs": [
        {
          "internalType": "address",
          "name": "",
          "type": "address"
        }
      ],
      "stateMutability": "view",
      "type": "function"
    },
    {
      "inputs": [
        {
          "internalType": "uint256",
          "name": "keyHash",
          "type": "uint256"
        },
        {
          "internalType": "uint256",
          "name": "tokenId",
          "type": "uint256"
        }
      ],
      "name": "getByHash",
      "outputs": [
        {
          "internalType": "string",
          "name": "key",
          "type": "string"
        },
        {
          "internalType": "string",
          "name": "value",
          "type": "string"
        }
      ],
      "stateMutability": "view",
      "type": "function"
    },
    {
      "inputs": [
        {
          "internalType": "string[]",
          "name": "keys",
          "type": "string[]"
        },
        {
          "internalType": "uint256",
          "name": "tokenId",
          "type": "uint256"
        }
      ],
      "name": "getData",
      "outputs": [
        {
          "internalType": "address",
          "name": "resolver",
          "type": "address"
        },
        {
          "internalType": "address",
          "name": "owner",
          "type": "address"
        },
        {
          "internalType": "string[]",
          "name": "values",
          "type": "string[]"
        }
      ],
      "stateMutability": "view",
      "type": "function"
    },
    {
      "inputs": [
        {
          "internalType": "uint256[]",
          "name": "keyHashes",
          "type": "uint256[]"
        },
        {
          "internalType": "uint256",
          "name": "tokenId",
          "type": "uint256"
        }
      ],
      "name": "getDataByHash",
      "outputs": [
        {
          "internalType": "address",
          "name": "resolver",
          "type": "address"
        },
        {
          "internalType": "address",
          "name": "owner",
          "type": "address"
        },
        {
          "internalType": "string[]",
          "name": "keys",
          "type": "string[]"
        },
        {
          "internalType": "string[]",
          "name": "values",
          "type": "string[]"
        }
      ],
      "stateMutability": "view",
      "type": "function"
    },
    {
      "inputs": [
        {
          "internalType": "uint256[]",
          "name": "keyHashes",
          "type": "uint256[]"
        },
        {
          "internalType": "uint256[]",
          "name": "tokenIds",
          "type": "uint256[]"
        }
      ],
      "name": "getDataByHashForMany",
      "outputs": [
        {
          "internalType": "address[]",
          "name": "resolvers",
          "type": "address[]"
        },
        {
          "internalType": "address[]",
          "name": "owners",
          "type": "address[]"
        },
        {
          "internalType": "string[][]",
          "name": "keys",
          "type": "string[][]"
        },
        {
          "internalType": "string[][]",
          "name": "values",
          "type": "string[][]"
        }
      ],
      "stateMutability": "view",
      "type": "function"
    },
    {
      "inputs": [
        {
          "internalType": "string[]",
          "name": "keys",
          "type": "string[]"
        },
        {
          "internalType": "uint256[]",
          "name": "tokenIds",
          "type": "uint256[]"
        }
      ],
      "name": "getDataForMany",
      "outputs": [
        {
          "internalType": "address[]",
          "name": "resolvers",
          "type": "address[]"
        },
        {
          "internalType": "address[]",
          "name": "owners",
          "type": "address[]"
        },
        {
          "internalType": "string[][]",
          "name": "values",
          "type": "string[][]"
        }
      ],
      "stateMutability": "view",
      "type": "function"
    },
    {
      "inputs": [
        {
          "internalType": "string[]",
          "name": "keys",
          "type": "string[]"
        },
        {
          "internalType": "uint256",
          "name": "tokenId",
          "type": "uint256"
        }
      ],
      "name": "getMany",
      "outputs": [
        {
          "internalType": "string[]",
          "name": "values",
          "type": "string[]"
        }
      ],
      "stateMutability": "view",
      "type": "function"
    },
    {
      "inputs": [
        {
          "internalType": "uint256[]",
          "name": "keyHashes",
          "type": "uint256[]"
        },
        {
          "internalType": "uint256",
          "name": "tokenId",
          "type": "uint256"
        }
      ],
      "name": "getManyByHash",
      "outputs": [
        {
          "internalType": "string[]",
          "name": "keys",
          "type": "string[]"
        },
        {
          "internalType": "string[]",
          "name": "values",
          "type": "string[]"
        }
      ],
      "stateMutability": "view",
      "type": "function"
    },
    {
      "inputs": [
        {
          "internalType": "contract IUNSRegistry",
          "name": "unsRegistry",
          "type": "address"
        },
        {
          "internalType": "contract ICNSRegistry",
          "name": "cnsRegistry",
          "type": "address"
        }
      ],
      "name": "initialize",
      "outputs": [],
      "stateMutability": "nonpayable",
      "type": "function"
    },
    {
      "inputs": [
        {
          "internalType": "address",
          "name": "",
          "type": "address"
        },
        {
          "internalType": "address",
          "name": "",
          "type": "address"
        }
      ],
      "name": "isApprovedForAll",
      "outputs": [
        {
          "internalType": "bool",
          "name": "",
          "type": "bool"
        }
      ],
      "stateMutability": "pure",
      "type": "function"
    },
    {
      "inputs": [
        {
          "internalType": "address",
          "name": "spender",
          "type": "address"
        },
        {
          "internalType": "uint256",
          "name": "tokenId",
          "type": "uint256"
        }
      ],
      "name": "isApprovedOrOwner",
      "outputs": [
        {
          "internalType": "bool",
          "name": "",
          "type": "bool"
        }
      ],
      "stateMutability": "view",
      "type": "function"
    },
    {
      "inputs": [
        {
          "internalType": "bytes[]",
          "name": "data",
          "type": "bytes[]"
        }
      ],
      "name": "multicall",
      "outputs": [
        {
          "internalType": "bytes[]",
          "name": "results",
          "type": "bytes[]"
        }
      ],
      "stateMutability": "nonpayable",
      "type": "function"
    },
    {
      "inputs": [
        {
          "internalType": "string[]",
          "name": "labels",
          "type": "string[]"
        }
      ],
      "name": "namehash",
      "outputs": [
        {
          "internalType": "uint256",
          "name": "",
          "type": "uint256"
        }
      ],
      "stateMutability": "view",
      "type": "function"
    },
    {
      "inputs": [],
      "name": "owner",
      "outputs": [
        {
          "internalType": "address",
          "name": "",
          "type": "address"
        }
      ],
      "stateMutability": "view",
      "type": "function"
    },
    {
      "inputs": [
        {
          "internalType": "uint256",
          "name": "tokenId",
          "type": "uint256"
        }
      ],
      "name": "ownerOf",
      "outputs": [
        {
          "internalType": "address",
          "name": "",
          "type": "address"
        }
      ],
      "stateMutability": "view",
      "type": "function"
    },
    {
      "inputs": [
        {
          "internalType": "uint256[]",
          "name": "tokenIds",
          "type": "uint256[]"
        }
      ],
      "name": "ownerOfForMany",
      "outputs": [
        {
          "internalType": "address[]",
          "name": "owners",
          "type": "address[]"
        }
      ],
      "stateMutability": "view",
      "type": "function"
    },
    {
      "inputs": [
        {
          "internalType": "uint256",
          "name": "tokenId",
          "type": "uint256"
        }
      ],
      "name": "registryOf",
      "outputs": [
        {
          "internalType": "address",
          "name": "",
          "type": "address"
        }
      ],
      "stateMutability": "view",
      "type": "function"
    },
    {
      "inputs": [],
      "name": "renounceOwnership",
      "outputs": [],
      "stateMutability": "nonpayable",
      "type": "function"
    },
    {
      "inputs": [
        {
          "internalType": "uint256",
          "name": "tokenId",
          "type": "uint256"
        }
      ],
      "name": "resolverOf",
      "outputs": [
        {
          "internalType": "address",
          "name": "",
          "type": "address"
        }
      ],
      "stateMutability": "view",
      "type": "function"
    },
    {
      "inputs": [
        {
          "internalType": "address",
          "name": "addr",
          "type": "address"
        }
      ],
      "name": "reverseNameOf",
      "outputs": [
        {
          "internalType": "string",
          "name": "",
          "type": "string"
        }
      ],
      "stateMutability": "view",
      "type": "function"
    },
    {
      "inputs": [
        {
          "internalType": "address",
          "name": "addr",
          "type": "address"
        }
      ],
      "name": "reverseOf",
      "outputs": [
        {
          "internalType": "uint256",
          "name": "",
          "type": "uint256"
        }
      ],
      "stateMutability": "view",
      "type": "function"
    },
    {
      "inputs": [
        {
          "internalType": "address",
          "name": "addr",
          "type": "address"
        }
      ],
      "name": "setOwner",
      "outputs": [],
      "stateMutability": "nonpayable",
      "type": "function"
    },
    {
      "inputs": [
        {
          "internalType": "bytes4",
          "name": "interfaceId",
          "type": "bytes4"
        }
      ],
      "name": "supportsInterface",
      "outputs": [
        {
          "internalType": "bool",
          "name": "",
          "type": "bool"
        }
      ],
      "stateMutability": "view",
      "type": "function"
    },
    {
      "inputs": [
        {
          "internalType": "uint256",
          "name": "tokenId",
          "type": "uint256"
        }
      ],
      "name": "tokenURI",
      "outputs": [
        {
          "internalType": "string",
          "name": "",
          "type": "string"
        }
      ],
      "stateMutability": "view",
      "type": "function"
    },
    {
      "inputs": [
        {
          "internalType": "address",
          "name": "newOwner",
          "type": "address"
        }
      ],
      "name": "transferOwnership",
      "outputs": [],
      "stateMutability": "nonpayable",
      "type": "function"
    }
  ],
  "bytecode": "0x608060405234801561001057600080fd5b50613b39806100206000396000f3fe608060405234801561001057600080fd5b506004361061021c5760003560e01c806383caffbe11610125578063b85afd28116100ad578063c15ae7cf1161007c578063c15ae7cf14610533578063c87b56dd14610553578063e985e9c514610566578063f2fde38b14610579578063ffa1ad741461058c57600080fd5b8063b85afd28146104d9578063b98b3526146104fa578063bebec6b41461050d578063bfc5429b1461052057600080fd5b8063933c051d116100f4578063933c051d14610441578063a3f4df7e14610463578063a81ce6f914610493578063ac9650d8146104a6578063b3f9e4cb146104c657600080fd5b806383caffbe146103e1578063869b8884146103f45780638da5cb5b1461041757806391015f6b1461041f57600080fd5b8063430c2081116101a85780636352211e116101775780636352211e1461037f578063672b9f811461039257806370a08231146103b3578063715018a6146103c65780637e37479e146103ce57600080fd5b8063430c208114610333578063485cc955146103465780634bd79ed0146103595780634f558e791461036c57600080fd5b806313af4035116101ef57806313af4035146102ac5780631bd8cc1a146102bf5780631be5e7ed146102df57806321b7c7d9146102ff578063276fabb11461031257600080fd5b8063011438b41461022157806301ffc9a714610236578063032807551461025e578063081812fc14610281575b600080fd5b61023461022f366004612c72565b6105b0565b005b610249610244366004612cdd565b610659565b60405190151581526020015b60405180910390f35b61027161026c366004612d07565b6106e1565b6040516102559493929190612e06565b61029461028f366004612e44565b610704565b6040516001600160a01b039091168152602001610255565b6102346102ba366004612e72565b610809565b6102d26102cd366004612d07565b61087a565b6040516102559190612e8f565b6102f26102ed366004612ee3565b610899565b6040516102559190612f1a565b61023461030d366004612f2d565b6109c8565b610325610320366004612f8c565b610a3e565b604051908152602001610255565b610249610341366004612fcd565b610ab2565b610234610354366004612ff9565b610bc5565b610234610367366004612c72565b610d18565b61024961037a366004612e44565b610e7f565b61029461038d366004612e44565b610e8a565b6103a56103a0366004613032565b610e95565b604051610255929190613054565b6103256103c1366004612e72565b610fc9565b6102346110c7565b6103256103dc366004612e72565b6110db565b6102d26103ef366004613079565b61114a565b610407610402366004612c72565b611523565b604051610255949392919061318b565b610294611719565b61043261042d366004612d07565b611747565b604051610255939291906131d8565b61045461044f366004612c72565b611767565b60405161025593929190613204565b6102f2604051806040016040528060118152602001702aa7299d10283937bc3c902932b0b232b960791b81525081565b6102946104a1366004612e44565b6118f0565b6104b96104b4366004612f8c565b6119be565b6040516102559190613247565b6102946104d4366004612e44565b611ab2565b6104ec6104e7366004612d07565b611b38565b6040516102559291906132a9565b6102f26105083660046132ce565b611d18565b6102f261051b366004612e72565b611d32565b6102f261052e3660046132ce565b611da6565b610546610541366004612f8c565b611dc0565b6040516102559190613341565b6102f2610561366004612e44565b611e6e565b610249610574366004612ff9565b611f40565b610234610587366004612e72565b611f8b565b6102f2604051806040016040528060058152602001640302e352e360dc1b81525081565b6105b8611ff8565b6105c28382612057565b60005b83811015610652578282828181106105df576105df613354565b90506020028101906105f1919061336a565b606787878581811061060557610605613354565b9050602002810190610617919061336a565b6040516106259291906133b0565b90815260405190819003602001902061063f929091612b20565b508061064a816133d6565b9150506105c5565b5050505050565b60006001600160e01b031982166362526e6360e01b148061068a57506001600160e01b03198216636fa624af60e11b145b806106a557506001600160e01b031982166308da864d60e31b145b806106c057506001600160e01b03198216638584880360e01b145b806106db57506301ffc9a760e01b6001600160e01b03198316145b92915050565b6000806060806106f28787876120aa565b93509350935093505b93509350935093565b600061070f82612310565b61071b57506000919050565b610724826123a8565b61079b5760665460405163020604bf60e21b8152600481018490526001600160a01b039091169063081812fc906024015b602060405180830381865afa158015610772573d6000803e3d6000fd5b505050506040513d601f19601f8201168201806040525081019061079691906133f1565b6106db565b60655460405163020604bf60e21b8152600481018490526001600160a01b039091169063081812fc906024015b602060405180830381865afa1580156107e5573d6000803e3d6000fd5b505050506040513d601f19601f820116820180604052508101906106db91906133f1565b6000610813611719565b6001600160a01b03161461086e5760405162461bcd60e51b815260206004820152601e60248201527f50726f78795265616465723a204f574e45525f414c52454144595f534554000060448201526064015b60405180910390fd5b610877816123ef565b50565b606061088f610889848661349e565b8361246b565b90505b9392505050565b60606108a4826123a8565b1561092957606554604051631be5e7ed60e01b81526001600160a01b0390911690631be5e7ed906108dd9087908790879060040161357b565b600060405180830381865afa1580156108fa573d6000803e3d6000fd5b505050506040513d6000823e601f3d908101601f1916820160405261092291908101906135e4565b9050610892565b6000610934836125e9565b90506001600160a01b0381163b156109c057604051631be5e7ed60e01b81526001600160a01b03821690631be5e7ed906109769088908890889060040161357b565b600060405180830381865afa9250505080156109b457506040513d6000823e601f3d908101601f191682016040526109b191908101906135e4565b60015b6109bd576109c0565b91505b509392505050565b6109d0611ff8565b60005b8381101561065257828260678787858181106109f1576109f1613354565b9050602002810190610a03919061336a565b604051610a119291906133b0565b908152604051908190036020019020610a2b929091612b20565b5080610a36816133d6565b9150506109d3565b60655460405163276fabb160e01b81526000916001600160a01b03169063276fabb190610a71908690869060040161369f565b602060405180830381865afa158015610a8e573d6000803e3d6000fd5b505050506040513d601f19601f8201168201806040525081019061089291906136b3565b6000610abd82612310565b610ac9575060006106db565b610ad2826123a8565b610b505760665460405163430c208160e01b81526001600160a01b038581166004830152602482018590529091169063430c208190604401602060405180830381865afa158015610b27573d6000803e3d6000fd5b505050506040513d601f19601f82011682018060405250810190610b4b91906136cc565b610892565b60655460405163430c208160e01b81526001600160a01b038581166004830152602482018590529091169063430c208190604401602060405180830381865afa158015610ba1573d6000803e3d6000fd5b505050506040513d601f19601f8201168201806040525081019061089291906136cc565b600054610100900460ff1615808015610be55750600054600160ff909116105b80610bff5750303b158015610bff575060005460ff166001145b610c625760405162461bcd60e51b815260206004820152602e60248201527f496e697469616c697a61626c653a20636f6e747261637420697320616c72656160448201526d191e481a5b9a5d1a585b1a5e995960921b6064820152608401610865565b6000805460ff191660011790558015610c85576000805461ff0019166101001790555b606580546001600160a01b038086166001600160a01b0319928316179092556066805492851692909116919091179055610cbd61265c565b610cc561265c565b610ccd612683565b8015610d13576000805461ff0019169055604051600181527f7f26b83ff96e1f2b6a682f133852f6798a09c465da95921460cefb38474024989060200160405180910390a15b505050565b610d20611ff8565b610d2a8382612057565b60005b83811015610652576068858583818110610d4957610d49613354565b9050602002810190610d5b919061336a565b604051610d699291906133b0565b90815260200160405180910390206000610d839190612ba4565b60005b838383818110610d9857610d98613354565b9050602002810190610daa91906136ee565b9050811015610e6c576068868684818110610dc757610dc7613354565b9050602002810190610dd9919061336a565b604051610de79291906133b0565b9081526020016040518091039020848484818110610e0757610e07613354565b9050602002810190610e1991906136ee565b83818110610e2957610e29613354565b9050602002810190610e3b919061336a565b825460018101845560009384526020909320610e5993019190612b20565b5080610e64816133d6565b915050610d86565b5080610e77816133d6565b915050610d2d565b60006106db82612310565b60006106db826126b3565b606080610ea1836123a8565b15610f275760655460405163672b9f8160e01b815260048101869052602481018590526001600160a01b039091169063672b9f8190604401600060405180830381865afa158015610ef6573d6000803e3d6000fd5b505050506040513d6000823e601f3d908101601f19168201604052610f1e9190810190613737565b91509150610fc2565b6000610f32846125e9565b90506001600160a01b0381163b15610fc05760405163672b9f8160e01b815260048101869052602481018590526001600160a01b0382169063672b9f8190604401600060405180830381865afa925050508015610fb157506040513d6000823e601f3d908101601f19168201604052610fae9190810190613737565b60015b610fba57610fc0565b90935091505b505b9250929050565b6065546040516370a0823160e01b81526001600160a01b03838116600483015260009283929116906370a0823190602401602060405180830381865afa158015611017573d6000803e3d6000fd5b505050506040513d601f19601f8201168201806040525081019061103b91906136b3565b6066549091506001600160a01b0316156106db576066546040516370a0823160e01b81526001600160a01b038581166004830152909116906370a0823190602401602060405180830381865afa158015611099573d6000803e3d6000fd5b505050506040513d601f19601f820116820180604052508101906110bd91906136b3565b610892908261379a565b6110cf611ff8565b6110d960006123ef565b565b606554604051633f1ba3cf60e11b81526001600160a01b0383811660048301526000921690637e37479e90602401602060405180830381865afa158015611126573d6000803e3d6000fd5b505050506040513d601f19601f820116820180604052508101906106db91906136b3565b60606000606786866040516111609291906133b0565b90815260200160405180910390208054611179906137b2565b80601f01602080910402602001604051908101604052809291908181526020018280546111a5906137b2565b80156111f25780601f106111c7576101008083540402835291602001916111f2565b820191906000526020600020905b8154815290600101906020018083116111d557829003601f168201915b50505050509050805160001415611209575061151b565b6000604051806040016040528060068152602001653a37b5b2b71760d11b81525090506000604051806040016040528060088152602001672e6164647265737360c01b81525090506000604051806040016040528060018152602001601760f91b815250905060008385838c8c868d8d8a604051602001611292999897969594939291906137ed565b604051602081830303815290604052905060006068826040516112b59190613870565b9081526020016040518091039020805480602002602001604051908101604052809291908181526020016000905b8282101561138f578382906000526020600020018054611302906137b2565b80601f016020809104026020016040519081016040528092919081815260200182805461132e906137b2565b801561137b5780601f106113505761010080835404028352916020019161137b565b820191906000526020600020905b81548152906001019060200180831161135e57829003601f168201915b5050505050815260200190600101906112e3565b505050509050805160036113a3919061379a565b6001600160401b038111156113ba576113ba61340e565b6040519080825280602002602001820160405280156113ed57816020015b60608152602001906001900390816113d85790505b509650818760008151811061140457611404613354565b602002602001018190525060005b81518110156114715781818151811061142d5761142d613354565b602002602001015188826001611443919061379a565b8151811061145357611453613354565b60200260200101819052508080611469906133d6565b915050611412565b508486848d8d8860405160200161148d9695949392919061388c565b60405160208183030381529060405287825160016114ab919061379a565b815181106114bb576114bb613354565b60200260200101819052508486856040516020016114db939291906138ef565b60405160208183030381529060405287825160026114f9919061379a565b8151811061150957611509613354565b60200260200101819052505050505050505b949350505050565b6060808080846001600160401b038111156115405761154061340e565b604051908082528060200260200182016040528015611569578160200160208202803683370190505b509350846001600160401b038111156115845761158461340e565b6040519080825280602002602001820160405280156115ad578160200160208202803683370190505b509250846001600160401b038111156115c8576115c861340e565b6040519080825280602002602001820160405280156115fb57816020015b60608152602001906001900390816115e65790505b509150846001600160401b038111156116165761161661340e565b60405190808252806020026020018201604052801561164957816020015b60608152602001906001900390816116345790505b50905060005b8581101561170d5761167a898989898581811061166e5761166e613354565b905060200201356120aa565b88858151811061168c5761168c613354565b602002602001018886815181106116a5576116a5613354565b602002602001018887815181106116be576116be613354565b602002602001018888815181106116d7576116d7613354565b6020908102919091010193909352929091526001600160a01b039283169091529116905280611705816133d6565b91505061164f565b50945094509450949050565b7fe1b9c5b9c6f25fc6c03fdb76829a7257b1cdb10ff4bc4f62e0a94358c8121905546001600160a01b031690565b60008060606117578686866126d4565b9250925092505b93509350939050565b60608080836001600160401b038111156117835761178361340e565b6040519080825280602002602001820160405280156117ac578160200160208202803683370190505b509250836001600160401b038111156117c7576117c761340e565b6040519080825280602002602001820160405280156117f0578160200160208202803683370190505b509150836001600160401b0381111561180b5761180b61340e565b60405190808252806020026020018201604052801561183e57816020015b60608152602001906001900390816118295790505b50905060005b848110156118e55761186f888888888581811061186357611863613354565b905060200201356126d4565b86848151811061188157611881613354565b6020026020010186858151811061189a5761189a613354565b602002602001018686815181106118b3576118b3613354565b60209081029190910101929092526001600160a01b0392831690915291169052806118dd816133d6565b915050611844565b509450945094915050565b606554604051634f558e7960e01b8152600481018390526000916001600160a01b031690634f558e7990602401602060405180830381865afa15801561193a573d6000803e3d6000fd5b505050506040513d601f19601f8201168201806040525081019061195e91906136cc565b156119745750506065546001600160a01b031690565b6066546001600160a01b0316158015906119a057506000611994836128e3565b6001600160a01b031614155b156119b65750506066546001600160a01b031690565b506000919050565b6060816001600160401b038111156119d8576119d861340e565b604051908082528060200260200182016040528015611a0b57816020015b60608152602001906001900390816119f65790505b50905060005b82811015611aab57611a7b30858584818110611a2f57611a2f613354565b9050602002810190611a41919061336a565b8080601f01602080910402602001604051908101604052809392919081815260200183838082843760009201919091525061291592505050565b828281518110611a8d57611a8d613354565b60200260200101819052508080611aa3906133d6565b915050611a11565b5092915050565b6000611abd82612310565b611ac957506000919050565b611ad2826123a8565b611b075760665460405163b3f9e4cb60e01b8152600481018490526001600160a01b039091169063b3f9e4cb90602401610755565b60655460405163b3f9e4cb60e01b8152600481018490526001600160a01b039091169063b3f9e4cb906024016107c8565b606080836001600160401b03811115611b5357611b5361340e565b604051908082528060200260200182016040528015611b8657816020015b6060815260200190600190039081611b715790505b509150836001600160401b03811115611ba157611ba161340e565b604051908082528060200260200182016040528015611bd457816020015b6060815260200190600190039081611bbf5790505b509050611be0836123a8565b15611c675760655460405163170b5fa560e31b81526001600160a01b039091169063b85afd2890611c1990889088908890600401613932565b600060405180830381865afa158015611c36573d6000803e3d6000fd5b505050506040513d6000823e601f3d908101601f19168201604052611c5e91908101906139f7565b91509150611d10565b6000611c72846125e9565b90506001600160a01b0381163b15158015611c8c57508415155b15611d0e5760405163170b5fa560e31b81526001600160a01b0382169063b85afd2890611cc190899089908990600401613932565b600060405180830381865afa925050508015611cff57506040513d6000823e601f3d908101601f19168201604052611cfc91908101906139f7565b60015b611d0857611d0e565b90935091505b505b935093915050565b6060611d278686868686612a09565b979650505050505050565b606554604051632fafb1ad60e21b81526001600160a01b038381166004830152606092169063bebec6b4906024015b600060405180830381865afa158015611d7e573d6000803e3d6000fd5b505050506040513d6000823e601f3d908101601f191682016040526106db91908101906135e4565b6060611db58686868686612a09565b509695505050505050565b6060816001600160401b03811115611dda57611dda61340e565b604051908082528060200260200182016040528015611e03578160200160208202803683370190505b50905060005b82811015611aab57611e32848483818110611e2657611e26613354565b905060200201356126b3565b828281518110611e4457611e44613354565b6001600160a01b039092166020928302919091019091015280611e66816133d6565b915050611e09565b6060611e7982612310565b611e9157505060408051602081019091526000815290565b611e9a826123a8565b611f0f5760665460405163c87b56dd60e01b8152600481018490526001600160a01b039091169063c87b56dd90602401600060405180830381865afa158015611ee7573d6000803e3d6000fd5b505050506040513d6000823e601f3d908101601f1916820160405261079691908101906135e4565b60655460405163c87b56dd60e01b8152600481018490526001600160a01b039091169063c87b56dd90602401611d61565b60405162461bcd60e51b815260206004820152601f60248201527f50726f78795265616465723a20554e535550504f525445445f4d4554484f44006044820152600090606401610865565b611f93611ff8565b6001600160a01b03811661086e5760405162461bcd60e51b815260206004820152602660248201527f4f776e61626c653a206e6577206f776e657220697320746865207a65726f206160448201526564647265737360d01b6064820152608401610865565b33612001611719565b6001600160a01b0316146110d95760405162461bcd60e51b815260206004820181905260248201527f4f776e61626c653a2063616c6c6572206973206e6f7420746865206f776e65726044820152606401610865565b8082146120a65760405162461bcd60e51b815260206004820152601d60248201527f50726f78795265616465723a204c454e4754485f4e4f545f455155414c0000006044820152606401610865565b5050565b600080606080856001600160401b038111156120c8576120c861340e565b6040519080825280602002602001820160405280156120fb57816020015b60608152602001906001900390816120e65790505b509150856001600160401b038111156121165761211661340e565b60405190808252806020026020018201604052801561214957816020015b60608152602001906001900390816121345790505b509050612155856123a8565b156122565760655460405163b3f9e4cb60e01b8152600481018790526001600160a01b039091169063b3f9e4cb90602401602060405180830381865afa1580156121a3573d6000803e3d6000fd5b505050506040513d601f19601f820116820180604052508101906121c791906133f1565b93506121d285612ab5565b60655460405163170b5fa560e31b81529194506001600160a01b03169063b85afd2890612207908a908a908a90600401613932565b600060405180830381865afa158015612224573d6000803e3d6000fd5b505050506040513d6000823e601f3d908101601f1916820160405261224c91908101906139f7565b90925090506106fb565b61225f856125e9565b935061226a856128e3565b92506001600160a01b0384163b15158015612286575060008251115b156106fb5760405163170b5fa560e31b81526001600160a01b0385169063b85afd28906122bb908a908a908a90600401613932565b600060405180830381865afa9250505080156122f957506040513d6000823e601f3d908101601f191682016040526122f691908101906139f7565b60015b612302576106fb565b909250905093509350935093565b600061231b826123a8565b61233a57600061232a836128e3565b6001600160a01b031614156106db565b606554604051634f558e7960e01b8152600481018490526001600160a01b0390911690634f558e79906024015b602060405180830381865afa158015612384573d6000803e3d6000fd5b505050506040513d601f19601f820116820180604052508101906106db91906136cc565b6066546000906001600160a01b031615806106db5750606554604051634f558e7960e01b8152600481018490526001600160a01b0390911690634f558e7990602401612367565b60006123f9611719565b9050817fe1b9c5b9c6f25fc6c03fdb76829a7257b1cdb10ff4bc4f62e0a94358c812190580546001600160a01b0319166001600160a01b03928316179055604051838216918316907f8be0079c531659141344cd1fd0a4f28419497f9722a3daafe3b4186f6b6457e090600090a35050565b606082516001600160401b038111156124865761248661340e565b6040519080825280602002602001820160405280156124b957816020015b60608152602001906001900390816124a45790505b5090506124c5826123a8565b1561254857606554604051630dec660d60e11b81526001600160a01b0390911690631bd8cc1a906124fc9086908690600401613a50565b600060405180830381865afa158015612519573d6000803e3d6000fd5b505050506040513d6000823e601f3d908101601f191682016040526125419190810190613a72565b90506106db565b6000612553836125e9565b90506001600160a01b0381163b1515801561256f575060008451115b15611aab57604051630dec660d60e11b81526001600160a01b03821690631bd8cc1a906125a29087908790600401613a50565b600060405180830381865afa9250505080156125e057506040513d6000823e601f3d908101601f191682016040526125dd9190810190613a72565b60015b61151b57611aab565b60665460405163b3f9e4cb60e01b8152600481018390526000916001600160a01b03169063b3f9e4cb906024015b602060405180830381865afa925050508015612650575060408051601f3d908101601f1916820190925261264d918101906133f1565b60015b6106db57506000919050565b600054610100900460ff166110d95760405162461bcd60e51b815260040161086590613aa6565b600054610100900460ff166126aa5760405162461bcd60e51b815260040161086590613aa6565b6110d9336123ef565b60006126be826123a8565b6126cb57610796826128e3565b6106db82612ab5565b6000806060846001600160401b038111156126f1576126f161340e565b60405190808252806020026020018201604052801561272457816020015b606081526020019060019003908161270f5790505b509050612730846123a8565b1561282e5760655460405163b3f9e4cb60e01b8152600481018690526001600160a01b039091169063b3f9e4cb90602401602060405180830381865afa15801561277e573d6000803e3d6000fd5b505050506040513d601f19601f820116820180604052508101906127a291906133f1565b92506127ad84612ab5565b606554604051630dec660d60e11b81529193506001600160a01b031690631bd8cc1a906127e290899089908990600401613af1565b600060405180830381865afa1580156127ff573d6000803e3d6000fd5b505050506040513d6000823e601f3d908101601f191682016040526128279190810190613a72565b905061175e565b612837846125e9565b9250612842846128e3565b91506001600160a01b0383163b1515801561285c57508415155b1561175e57604051630dec660d60e11b81526001600160a01b03841690631bd8cc1a9061289190899089908990600401613af1565b600060405180830381865afa9250505080156128cf57506040513d6000823e601f3d908101601f191682016040526128cc9190810190613a72565b60015b6128d85761175e565b905093509350939050565b6066546040516331a9108f60e11b8152600481018390526000916001600160a01b031690636352211e90602401612617565b60606001600160a01b0383163b61297d5760405162461bcd60e51b815260206004820152602660248201527f416464726573733a2064656c65676174652063616c6c20746f206e6f6e2d636f6044820152651b9d1c9858dd60d21b6064820152608401610865565b600080846001600160a01b0316846040516129989190613870565b600060405180830381855af49150503d80600081146129d3576040519150601f19603f3d011682016040523d82523d6000602084013e6129d8565b606091505b5091509150612a008282604051806060016040528060278152602001613b0660279139612ae7565b95945050505050565b6060806000612a1a8888888861114a565b90506000612a28828661246b565b905060005b8151811015612aa8576000828281518110612a4a57612a4a613354565b6020026020010151511115612a9657828181518110612a6b57612a6b613354565b60200260200101519350818181518110612a8757612a87613354565b60200260200101519450612aa8565b80612aa0816133d6565b915050612a2d565b5050509550959350505050565b6065546040516331a9108f60e11b8152600481018390526000916001600160a01b031690636352211e90602401612617565b60608315612af6575081610892565b825115612b065782518084602001fd5b8160405162461bcd60e51b81526004016108659190612f1a565b828054612b2c906137b2565b90600052602060002090601f016020900481019282612b4e5760008555612b94565b82601f10612b675782800160ff19823516178555612b94565b82800160010185558215612b94579182015b82811115612b94578235825591602001919060010190612b79565b50612ba0929150612bc2565b5090565b50805460008255906000526020600020908101906108779190612bd7565b5b80821115612ba05760008155600101612bc3565b80821115612ba0576000612beb8282612bf4565b50600101612bd7565b508054612c00906137b2565b6000825580601f10612c10575050565b601f0160209004906000526020600020908101906108779190612bc2565b60008083601f840112612c4057600080fd5b5081356001600160401b03811115612c5757600080fd5b6020830191508360208260051b8501011115610fc257600080fd5b60008060008060408587031215612c8857600080fd5b84356001600160401b0380821115612c9f57600080fd5b612cab88838901612c2e565b90965094506020870135915080821115612cc457600080fd5b50612cd187828801612c2e565b95989497509550505050565b600060208284031215612cef57600080fd5b81356001600160e01b03198116811461089257600080fd5b600080600060408486031215612d1c57600080fd5b83356001600160401b03811115612d3257600080fd5b612d3e86828701612c2e565b909790965060209590950135949350505050565b60005b83811015612d6d578181015183820152602001612d55565b83811115612d7c576000848401525b50505050565b60008151808452612d9a816020860160208601612d52565b601f01601f19169290920160200192915050565b600082825180855260208086019550808260051b84010181860160005b84811015612df957601f19868403018952612de7838351612d82565b98840198925090830190600101612dcb565b5090979650505050505050565b6001600160a01b03858116825284166020820152608060408201819052600090612e3290830185612dae565b8281036060840152611d278185612dae565b600060208284031215612e5657600080fd5b5035919050565b6001600160a01b038116811461087757600080fd5b600060208284031215612e8457600080fd5b813561089281612e5d565b6020815260006108926020830184612dae565b60008083601f840112612eb457600080fd5b5081356001600160401b03811115612ecb57600080fd5b602083019150836020828501011115610fc257600080fd5b600080600060408486031215612ef857600080fd5b83356001600160401b03811115612f0e57600080fd5b612d3e86828701612ea2565b6020815260006108926020830184612d82565b60008060008060408587031215612f4357600080fd5b84356001600160401b0380821115612f5a57600080fd5b612f6688838901612c2e565b90965094506020870135915080821115612f7f57600080fd5b50612cd187828801612ea2565b60008060208385031215612f9f57600080fd5b82356001600160401b03811115612fb557600080fd5b612fc185828601612c2e565b90969095509350505050565b60008060408385031215612fe057600080fd5b8235612feb81612e5d565b946020939093013593505050565b6000806040838503121561300c57600080fd5b823561301781612e5d565b9150602083013561302781612e5d565b809150509250929050565b6000806040838503121561304557600080fd5b50508035926020909101359150565b6040815260006130676040830185612d82565b8281036020840152612a008185612d82565b6000806000806040858703121561308f57600080fd5b84356001600160401b03808211156130a657600080fd5b612f6688838901612ea2565b600081518084526020808501945080840160005b838110156130eb5781516001600160a01b0316875295820195908201906001016130c6565b509495945050505050565b600081518084526020808501945084600583811b87018387016000805b8781101561317c578584038b5282518051808652908801908886019080881b87018a01855b8281101561316657601f19898303018452613154828651612d82565b948c0194938c01939150600101613138565b509d8a019d965050509287019250600101613113565b50919998505050505050505050565b60808152600061319e60808301876130b2565b82810360208401526131b081876130b2565b905082810360408401526131c481866130f6565b90508281036060840152611d2781856130f6565b6001600160a01b03848116825283166020820152606060408201819052600090612a0090830184612dae565b60608152600061321760608301866130b2565b828103602084015261322981866130b2565b9050828103604084015261323d81856130f6565b9695505050505050565b6000602080830181845280855180835260408601915060408160051b870101925083870160005b8281101561329c57603f1988860301845261328a858351612d82565b9450928501929085019060010161326e565b5092979650505050505050565b6040815260006132bc6040830185612dae565b8281036020840152612a008185612dae565b6000806000806000606086880312156132e657600080fd5b85356001600160401b03808211156132fd57600080fd5b61330989838a01612ea2565b9097509550602088013591508082111561332257600080fd5b5061332f88828901612ea2565b96999598509660400135949350505050565b60208152600061089260208301846130b2565b634e487b7160e01b600052603260045260246000fd5b6000808335601e1984360301811261338157600080fd5b8301803591506001600160401b0382111561339b57600080fd5b602001915036819003821315610fc257600080fd5b8183823760009101908152919050565b634e487b7160e01b600052601160045260246000fd5b60006000198214156133ea576133ea6133c0565b5060010190565b60006020828403121561340357600080fd5b815161089281612e5d565b634e487b7160e01b600052604160045260246000fd5b604051601f8201601f191681016001600160401b038111828210171561344c5761344c61340e565b604052919050565b60006001600160401b0382111561346d5761346d61340e565b5060051b60200190565b60006001600160401b038211156134905761349061340e565b50601f01601f191660200190565b60006134b16134ac84613454565b613424565b80848252602080830192508560051b8501368111156134cf57600080fd5b855b818110156135465780356001600160401b038111156134f05760008081fd5b870136601f8201126135025760008081fd5b80356135106134ac82613477565b81815236868385010111156135255760008081fd5b818684018783013760009181018601919091528652509382019382016134d1565b50919695505050505050565b81835281816020850137506000828201602090810191909152601f909101601f19169091010190565b60408152600061358f604083018587613552565b9050826020830152949350505050565b600082601f8301126135b057600080fd5b81516135be6134ac82613477565b8181528460208386010111156135d357600080fd5b61151b826020830160208701612d52565b6000602082840312156135f657600080fd5b81516001600160401b0381111561360c57600080fd5b61151b8482850161359f565b60008383855260208086019550808560051b8301018460005b87811015612df957848303601f19018952813536889003601e1901811261365757600080fd5b870180356001600160401b0381111561366f57600080fd5b80360389131561367e57600080fd5b61368b8582888501613552565b9a86019a9450505090830190600101613631565b60208152600061088f602083018486613618565b6000602082840312156136c557600080fd5b5051919050565b6000602082840312156136de57600080fd5b8151801515811461089257600080fd5b6000808335601e1984360301811261370557600080fd5b8301803591506001600160401b0382111561371f57600080fd5b6020019150600581901b3603821315610fc257600080fd5b6000806040838503121561374a57600080fd5b82516001600160401b038082111561376157600080fd5b61376d8683870161359f565b9350602085015191508082111561378357600080fd5b506137908582860161359f565b9150509250929050565b600082198211156137ad576137ad6133c0565b500190565b600181811c908216806137c657607f821691505b602082108114156137e757634e487b7160e01b600052602260045260246000fd5b50919050565b60008a516137ff818460208f01612d52565b8a5190830190613813818360208f01612d52565b8a51910190613826818360208e01612d52565b018789823760009088019081528651613843818360208b01612d52565b018486823760009085019081528351613860818360208801612d52565b019b9a5050505050505050505050565b60008251613882818460208701612d52565b9190910192915050565b6000875161389e818460208c01612d52565b8751908301906138b2818360208c01612d52565b87519101906138c5818360208b01612d52565b0184868237600090850190815283516138e2818360208801612d52565b0198975050505050505050565b60008451613901818460208901612d52565b845190830190613915818360208901612d52565b8451910190613928818360208801612d52565b0195945050505050565b6040808252810183905260006001600160fb1b0384111561395257600080fd5b8360051b8086606085013760009083016060019081526020909201929092529392505050565b600082601f83011261398957600080fd5b815160206139996134ac83613454565b82815260059290921b840181019181810190868411156139b857600080fd5b8286015b84811015611db55780516001600160401b038111156139db5760008081fd5b6139e98986838b010161359f565b8452509183019183016139bc565b60008060408385031215613a0a57600080fd5b82516001600160401b0380821115613a2157600080fd5b613a2d86838701613978565b93506020850151915080821115613a4357600080fd5b5061379085828601613978565b604081526000613a636040830185612dae565b90508260208301529392505050565b600060208284031215613a8457600080fd5b81516001600160401b03811115613a9a57600080fd5b61151b84828501613978565b6020808252602b908201527f496e697469616c697a61626c653a20636f6e7472616374206973206e6f74206960408201526a6e697469616c697a696e6760a81b606082015260800190565b60408152600061358f60408301858761361856fe416464726573733a206c6f772d6c6576656c2064656c65676174652063616c6c206661696c6564a164736f6c634300080c000a",
  "linkReferences": {},
  "deployedLinkReferences": {}
}