{
  "_format": "hh-sol-artifact-1",
  "contractName": "ProxyReader",
  "sourceName": "contracts/ProxyReader.sol",
  "abi": [
    {
      "inputs": [
        {
          "internalType": "contract IUNSRegistry",
          "name": "unsRegistry",
          "type": "address"
        },
        {
          "internalType": "contract ICNSRegistry",
          "name": "cnsRegistry",
          "type": "address"
        }
      ],
      "stateMutability": "nonpayable",
      "type": "constructor"
    },
    {
      "anonymous": false,
      "inputs": [
        {
          "indexed": false,
          "internalType": "uint8",
          "name": "version",
          "type": "uint8"
        }
      ],
      "name": "Initialized",
      "type": "event"
    },
    {
      "inputs": [],
      "name": "NAME",
      "outputs": [
        {
          "internalType": "string",
          "name": "",
          "type": "string"
        }
      ],
      "stateMutability": "view",
      "type": "function"
    },
    {
      "inputs": [],
      "name": "VERSION",
      "outputs": [
        {
          "internalType": "string",
          "name": "",
          "type": "string"
        }
      ],
      "stateMutability": "view",
      "type": "function"
    },
    {
      "inputs": [
        {
          "internalType": "address",
          "name": "owner",
          "type": "address"
        }
      ],
      "name": "balanceOf",
      "outputs": [
        {
          "internalType": "uint256",
          "name": "",
          "type": "uint256"
        }
      ],
      "stateMutability": "view",
      "type": "function"
    },
    {
      "inputs": [
        {
          "internalType": "uint256",
          "name": "tokenId",
          "type": "uint256"
        }
      ],
      "name": "exists",
      "outputs": [
        {
          "internalType": "bool",
          "name": "",
          "type": "bool"
        }
      ],
      "stateMutability": "view",
      "type": "function"
    },
    {
      "inputs": [
        {
          "internalType": "string",
          "name": "key",
          "type": "string"
        },
        {
          "internalType": "uint256",
          "name": "tokenId",
          "type": "uint256"
        }
      ],
      "name": "get",
      "outputs": [
        {
          "internalType": "string",
          "name": "value",
          "type": "string"
        }
      ],
      "stateMutability": "view",
      "type": "function"
    },
    {
      "inputs": [
        {
          "internalType": "uint256",
          "name": "tokenId",
          "type": "uint256"
        }
      ],
      "name": "getApproved",
      "outputs": [
        {
          "internalType": "address",
          "name": "",
          "type": "address"
        }
      ],
      "stateMutability": "view",
      "type": "function"
    },
    {
      "inputs": [
        {
          "internalType": "uint256",
          "name": "keyHash",
          "type": "uint256"
        },
        {
          "internalType": "uint256",
          "name": "tokenId",
          "type": "uint256"
        }
      ],
      "name": "getByHash",
      "outputs": [
        {
          "internalType": "string",
          "name": "key",
          "type": "string"
        },
        {
          "internalType": "string",
          "name": "value",
          "type": "string"
        }
      ],
      "stateMutability": "view",
      "type": "function"
    },
    {
      "inputs": [
        {
          "internalType": "string[]",
          "name": "keys",
          "type": "string[]"
        },
        {
          "internalType": "uint256",
          "name": "tokenId",
          "type": "uint256"
        }
      ],
      "name": "getData",
      "outputs": [
        {
          "internalType": "address",
          "name": "resolver",
          "type": "address"
        },
        {
          "internalType": "address",
          "name": "owner",
          "type": "address"
        },
        {
          "internalType": "string[]",
          "name": "values",
          "type": "string[]"
        }
      ],
      "stateMutability": "view",
      "type": "function"
    },
    {
      "inputs": [
        {
          "internalType": "uint256[]",
          "name": "keyHashes",
          "type": "uint256[]"
        },
        {
          "internalType": "uint256",
          "name": "tokenId",
          "type": "uint256"
        }
      ],
      "name": "getDataByHash",
      "outputs": [
        {
          "internalType": "address",
          "name": "resolver",
          "type": "address"
        },
        {
          "internalType": "address",
          "name": "owner",
          "type": "address"
        },
        {
          "internalType": "string[]",
          "name": "keys",
          "type": "string[]"
        },
        {
          "internalType": "string[]",
          "name": "values",
          "type": "string[]"
        }
      ],
      "stateMutability": "view",
      "type": "function"
    },
    {
      "inputs": [
        {
          "internalType": "uint256[]",
          "name": "keyHashes",
          "type": "uint256[]"
        },
        {
          "internalType": "uint256[]",
          "name": "tokenIds",
          "type": "uint256[]"
        }
      ],
      "name": "getDataByHashForMany",
      "outputs": [
        {
          "internalType": "address[]",
          "name": "resolvers",
          "type": "address[]"
        },
        {
          "internalType": "address[]",
          "name": "owners",
          "type": "address[]"
        },
        {
          "internalType": "string[][]",
          "name": "keys",
          "type": "string[][]"
        },
        {
          "internalType": "string[][]",
          "name": "values",
          "type": "string[][]"
        }
      ],
      "stateMutability": "view",
      "type": "function"
    },
    {
      "inputs": [
        {
          "internalType": "string[]",
          "name": "keys",
          "type": "string[]"
        },
        {
          "internalType": "uint256[]",
          "name": "tokenIds",
          "type": "uint256[]"
        }
      ],
      "name": "getDataForMany",
      "outputs": [
        {
          "internalType": "address[]",
          "name": "resolvers",
          "type": "address[]"
        },
        {
          "internalType": "address[]",
          "name": "owners",
          "type": "address[]"
        },
        {
          "internalType": "string[][]",
          "name": "values",
          "type": "string[][]"
        }
      ],
      "stateMutability": "view",
      "type": "function"
    },
    {
      "inputs": [
        {
          "internalType": "string[]",
          "name": "keys",
          "type": "string[]"
        },
        {
          "internalType": "uint256",
          "name": "tokenId",
          "type": "uint256"
        }
      ],
      "name": "getMany",
      "outputs": [
        {
          "internalType": "string[]",
          "name": "values",
          "type": "string[]"
        }
      ],
      "stateMutability": "view",
      "type": "function"
    },
    {
      "inputs": [
        {
          "internalType": "uint256[]",
          "name": "keyHashes",
          "type": "uint256[]"
        },
        {
          "internalType": "uint256",
          "name": "tokenId",
          "type": "uint256"
        }
      ],
      "name": "getManyByHash",
      "outputs": [
        {
          "internalType": "string[]",
          "name": "keys",
          "type": "string[]"
        },
        {
          "internalType": "string[]",
          "name": "values",
          "type": "string[]"
        }
      ],
      "stateMutability": "view",
      "type": "function"
    },
    {
      "inputs": [
        {
          "internalType": "address",
          "name": "",
          "type": "address"
        },
        {
          "internalType": "address",
          "name": "",
          "type": "address"
        }
      ],
      "name": "isApprovedForAll",
      "outputs": [
        {
          "internalType": "bool",
          "name": "",
          "type": "bool"
        }
      ],
      "stateMutability": "pure",
      "type": "function"
    },
    {
      "inputs": [
        {
          "internalType": "address",
          "name": "spender",
          "type": "address"
        },
        {
          "internalType": "uint256",
          "name": "tokenId",
          "type": "uint256"
        }
      ],
      "name": "isApprovedOrOwner",
      "outputs": [
        {
          "internalType": "bool",
          "name": "",
          "type": "bool"
        }
      ],
      "stateMutability": "view",
      "type": "function"
    },
    {
      "inputs": [
        {
          "internalType": "bytes[]",
          "name": "data",
          "type": "bytes[]"
        }
      ],
      "name": "multicall",
      "outputs": [
        {
          "internalType": "bytes[]",
          "name": "results",
          "type": "bytes[]"
        }
      ],
      "stateMutability": "nonpayable",
      "type": "function"
    },
    {
      "inputs": [
        {
          "internalType": "string[]",
          "name": "labels",
          "type": "string[]"
        }
      ],
      "name": "namehash",
      "outputs": [
        {
          "internalType": "uint256",
          "name": "",
          "type": "uint256"
        }
      ],
      "stateMutability": "view",
      "type": "function"
    },
    {
      "inputs": [
        {
          "internalType": "uint256",
          "name": "tokenId",
          "type": "uint256"
        }
      ],
      "name": "ownerOf",
      "outputs": [
        {
          "internalType": "address",
          "name": "",
          "type": "address"
        }
      ],
      "stateMutability": "view",
      "type": "function"
    },
    {
      "inputs": [
        {
          "internalType": "uint256[]",
          "name": "tokenIds",
          "type": "uint256[]"
        }
      ],
      "name": "ownerOfForMany",
      "outputs": [
        {
          "internalType": "address[]",
          "name": "owners",
          "type": "address[]"
        }
      ],
      "stateMutability": "view",
      "type": "function"
    },
    {
      "inputs": [
        {
          "internalType": "uint256",
          "name": "tokenId",
          "type": "uint256"
        }
      ],
      "name": "registryOf",
      "outputs": [
        {
          "internalType": "address",
          "name": "",
          "type": "address"
        }
      ],
      "stateMutability": "view",
      "type": "function"
    },
    {
      "inputs": [
        {
          "internalType": "uint256",
          "name": "tokenId",
          "type": "uint256"
        }
      ],
      "name": "resolverOf",
      "outputs": [
        {
          "internalType": "address",
          "name": "",
          "type": "address"
        }
      ],
      "stateMutability": "view",
      "type": "function"
    },
    {
      "inputs": [
        {
          "internalType": "address",
          "name": "addr",
          "type": "address"
        }
      ],
      "name": "reverseOf",
      "outputs": [
        {
          "internalType": "uint256",
          "name": "",
          "type": "uint256"
        }
      ],
      "stateMutability": "view",
      "type": "function"
    },
    {
      "inputs": [
        {
          "internalType": "bytes4",
          "name": "interfaceId",
          "type": "bytes4"
        }
      ],
      "name": "supportsInterface",
      "outputs": [
        {
          "internalType": "bool",
          "name": "",
          "type": "bool"
        }
      ],
      "stateMutability": "view",
      "type": "function"
    },
    {
      "inputs": [
        {
          "internalType": "uint256",
          "name": "tokenId",
          "type": "uint256"
        }
      ],
      "name": "tokenURI",
      "outputs": [
        {
          "internalType": "string",
          "name": "",
          "type": "string"
        }
      ],
      "stateMutability": "view",
      "type": "function"
    }
  ],
  "bytecode": "0x60c06040523480156200001157600080fd5b50604051620030bc380380620030bc833981016040819052620000349162000053565b6001600160601b0319606092831b8116608052911b1660a052620000aa565b6000806040838503121562000066578182fd5b8251620000738162000091565b6020840151909250620000868162000091565b809150509250929050565b6001600160a01b0381168114620000a757600080fd5b50565b60805160601c60a05160601c612f1b620001a1600039600081816104e601528181610a1001528181610d5501528181610da10152818161140b0152818161145b015281816115df015281816119b701528181611ed901528181611f6e01526122b30152600081816105840152818161068a015281816108010152818161093f01528181610ab501528181610b7301528181610cd701528181610e470152818161135b015281816113e50152818161162c0152818161174301528181611a5301528181611c0b01528181611cb201528181611e5201528181611f1e0152818161209b0152818161214201526123f70152612f1b6000f3fe608060405234801561001057600080fd5b50600436106101585760003560e01c8063869b8884116100c3578063b3f9e4cb1161007c578063b3f9e4cb1461037e578063b85afd2814610391578063c15ae7cf146103b2578063c87b56dd146103d2578063e985e9c5146103e5578063ffa1ad74146103f857600080fd5b8063869b8884146102b457806391015f6b146102d7578063933c051d146102f9578063a3f4df7e1461031b578063a81ce6f91461034b578063ac9650d81461035e57600080fd5b8063430c208111610115578063430c2081146102345780634f558e79146102475780636352211e1461025a578063672b9f811461026d57806370a082311461028e5780637e37479e146102a157600080fd5b806301ffc9a71461015d5780630328075514610185578063081812fc146101a85780631bd8cc1a146101d35780631be5e7ed146101f3578063276fabb114610213575b600080fd5b61017061016b366004612817565b61041c565b60405190151581526020015b60405180910390f35b6101986101933660046127ce565b610489565b60405161017c9493929190612b82565b6101bb6101b6366004612939565b6104ac565b6040516001600160a01b03909116815260200161017c565b6101e66101e13660046126f3565b610607565b60405161017c9190612d07565b61020661020136600461283f565b6107da565b60405161017c9190612d94565b61022661022136600461264c565b610925565b60405190815260200161017c565b610170610242366004612621565b6109c6565b610170610255366004612939565b610b2f565b6101bb610268366004612939565b610b3a565b61028061027b366004612969565b610b45565b60405161017c929190612da7565b61022661029c3660046125b1565b610cb3565b6102266102af3660046125b1565b610e25565b6102c76102c236600461268b565b610ec3565b60405161017c9493929190612c21565b6102ea6102e53660046126f3565b611137565b60405161017c93929190612b56565b61030c61030736600461268b565b611157565b60405161017c93929190612bde565b610206604051806040016040528060118152602001702aa7299d10283937bc3c902932b0b232b960791b81525081565b6101bb610359366004612939565b611342565b61037161036c36600461264c565b611487565b60405161017c9190612c6e565b6101bb61038c366004612939565b6115a5565b6103a461039f3660046127ce565b611663565b60405161017c929190612d1a565b6103c56103c036600461264c565b611899565b60405161017c9190612bcb565b6102066103e0366004612939565b611971565b6101706103f33660046125e9565b611ad9565b610206604051806040016040528060058152602001640c0b8c8b8d60da1b81525081565b60006001600160e01b0319821663dceca8d760e01b148061044d57506001600160e01b03198216636fa624af60e11b145b8061046857506001600160e01b031982166308da864d60e31b145b8061048357506301ffc9a760e01b6001600160e01b03198316145b92915050565b60008060608061049a878787611b29565b93509350935093505b93509350935093565b60006104b782611e12565b6104c357506000919050565b6104cc82611ed5565b61056e5760405163020604bf60e21b8152600481018390527f00000000000000000000000000000000000000000000000000000000000000006001600160a01b03169063081812fc906024015b60206040518083038186803b15801561053157600080fd5b505afa158015610545573d6000803e3d6000fd5b505050506040513d601f19601f8201168201806040525081019061056991906125cd565b610483565b60405163020604bf60e21b8152600481018390527f00000000000000000000000000000000000000000000000000000000000000006001600160a01b03169063081812fc906024015b60206040518083038186803b1580156105cf57600080fd5b505afa1580156105e3573d6000803e3d6000fd5b505050506040513d601f19601f8201168201806040525081019061048391906125cd565b6060826001600160401b0381111561062f57634e487b7160e01b600052604160045260246000fd5b60405190808252806020026020018201604052801561066257816020015b606081526020019060019003908161064d5790505b50905061066e82611ed5565b1561071e57604051630dec660d60e11b81526001600160a01b037f00000000000000000000000000000000000000000000000000000000000000001690631bd8cc1a906106c390879087908790600401612ce3565b60006040518083038186803b1580156106db57600080fd5b505afa1580156106ef573d6000803e3d6000fd5b505050506040513d6000823e601f3d908101601f19168201604052610717919081019061273c565b90506107d3565b600061072983611f55565b90506001600160a01b0381163b1515801561074357508315155b156107d157604051630dec660d60e11b81526001600160a01b03821690631bd8cc1a9061077890889088908890600401612ce3565b60006040518083038186803b15801561079057600080fd5b505afa9250505080156107c557506040513d6000823e601f3d908101601f191682016040526107c2919081019061273c565b60015b6107ce576107d1565b91505b505b9392505050565b60606107e582611ed5565b1561088e57604051631be5e7ed60e01b81526001600160a01b037f00000000000000000000000000000000000000000000000000000000000000001690631be5e7ed9061083a90879087908790600401612d80565b60006040518083038186803b15801561085257600080fd5b505afa158015610866573d6000803e3d6000fd5b505050506040513d6000823e601f3d908101601f1916820160405261071791908101906128b1565b600061089983611f55565b90506001600160a01b0381163b156107d157604051631be5e7ed60e01b81526001600160a01b03821690631be5e7ed906108db90889088908890600401612d80565b60006040518083038186803b1580156108f357600080fd5b505afa9250505080156107c557506040513d6000823e601f3d908101601f191682016040526107c291908101906128b1565b60405163276fabb160e01b81526000906001600160a01b037f0000000000000000000000000000000000000000000000000000000000000000169063276fabb1906109769086908690600401612ccf565b60206040518083038186803b15801561098e57600080fd5b505afa1580156109a2573d6000803e3d6000fd5b505050506040513d601f19601f820116820180604052508101906107d39190612951565b60006109d182611e12565b6109dd57506000610483565b6109e682611ed5565b610a8f5760405163430c208160e01b81526001600160a01b038481166004830152602482018490527f0000000000000000000000000000000000000000000000000000000000000000169063430c20819060440160206040518083038186803b158015610a5257600080fd5b505afa158015610a66573d6000803e3d6000fd5b505050506040513d601f19601f82011682018060405250810190610a8a91906127f7565b6107d3565b60405163430c208160e01b81526001600160a01b038481166004830152602482018490527f0000000000000000000000000000000000000000000000000000000000000000169063430c20819060440160206040518083038186803b158015610af757600080fd5b505afa158015610b0b573d6000803e3d6000fd5b505050506040513d601f19601f820116820180604052508101906107d391906127f7565b600061048382611e12565b600061048382611ff5565b606080610b5183611ed5565b15610c025760405163672b9f8160e01b815260048101859052602481018490527f00000000000000000000000000000000000000000000000000000000000000006001600160a01b03169063672b9f819060440160006040518083038186803b158015610bbd57600080fd5b505afa158015610bd1573d6000803e3d6000fd5b505050506040513d6000823e601f3d908101601f19168201604052610bf991908101906128e3565b91509150610cac565b6000610c0d84611f55565b90506001600160a01b0381163b15610caa5760405163672b9f8160e01b815260048101869052602481018590526001600160a01b0382169063672b9f819060440160006040518083038186803b158015610c6657600080fd5b505afa925050508015610c9b57506040513d6000823e601f3d908101601f19168201604052610c9891908101906128e3565b60015b610ca457610caa565b90935091505b505b9250929050565b6040516370a0823160e01b81526001600160a01b03828116600483015260009182917f000000000000000000000000000000000000000000000000000000000000000016906370a082319060240160206040518083038186803b158015610d1957600080fd5b505afa158015610d2d573d6000803e3d6000fd5b505050506040513d601f19601f82011682018060405250810190610d519190612951565b90507f00000000000000000000000000000000000000000000000000000000000000006001600160a01b031615610483576040516370a0823160e01b81526001600160a01b0384811660048301527f000000000000000000000000000000000000000000000000000000000000000016906370a082319060240160206040518083038186803b158015610de357600080fd5b505afa158015610df7573d6000803e3d6000fd5b505050506040513d601f19601f82011682018060405250810190610e1b9190612951565b6107d39082612e40565b604051633f1ba3cf60e11b81526001600160a01b0382811660048301526000917f000000000000000000000000000000000000000000000000000000000000000090911690637e37479e9060240160206040518083038186803b158015610e8b57600080fd5b505afa158015610e9f573d6000803e3d6000fd5b505050506040513d601f19601f820116820180604052508101906104839190612951565b6060808080846001600160401b03811115610eee57634e487b7160e01b600052604160045260246000fd5b604051908082528060200260200182016040528015610f17578160200160208202803683370190505b509350846001600160401b03811115610f4057634e487b7160e01b600052604160045260246000fd5b604051908082528060200260200182016040528015610f69578160200160208202803683370190505b509250846001600160401b03811115610f9257634e487b7160e01b600052604160045260246000fd5b604051908082528060200260200182016040528015610fc557816020015b6060815260200190600190039081610fb05790505b509150846001600160401b03811115610fee57634e487b7160e01b600052604160045260246000fd5b60405190808252806020026020018201604052801561102157816020015b606081526020019060019003908161100c5790505b50905060005b8581101561112b57611060898989898581811061105457634e487b7160e01b600052603260045260246000fd5b90506020020135611b29565b88858151811061108057634e487b7160e01b600052603260045260246000fd5b602002602001018886815181106110a757634e487b7160e01b600052603260045260246000fd5b602002602001018887815181106110ce57634e487b7160e01b600052603260045260246000fd5b602002602001018888815181106110f557634e487b7160e01b600052603260045260246000fd5b6020908102919091010193909352929091526001600160a01b03928316909152911690528061112381612e88565b915050611027565b50945094509450949050565b6000806060611147868686612016565b9250925092505b93509350939050565b60608080836001600160401b0381111561118157634e487b7160e01b600052604160045260246000fd5b6040519080825280602002602001820160405280156111aa578160200160208202803683370190505b509250836001600160401b038111156111d357634e487b7160e01b600052604160045260246000fd5b6040519080825280602002602001820160405280156111fc578160200160208202803683370190505b509150836001600160401b0381111561122557634e487b7160e01b600052604160045260246000fd5b60405190808252806020026020018201604052801561125857816020015b60608152602001906001900390816112435790505b50905060005b8481101561133757611297888888888581811061128b57634e487b7160e01b600052603260045260246000fd5b90506020020135612016565b8684815181106112b757634e487b7160e01b600052603260045260246000fd5b602002602001018685815181106112de57634e487b7160e01b600052603260045260246000fd5b6020026020010186868151811061130557634e487b7160e01b600052603260045260246000fd5b60209081029190910101929092526001600160a01b03928316909152911690528061132f81612e88565b91505061125e565b509450945094915050565b604051634f558e7960e01b8152600481018290526000907f00000000000000000000000000000000000000000000000000000000000000006001600160a01b031690634f558e799060240160206040518083038186803b1580156113a557600080fd5b505afa1580156113b9573d6000803e3d6000fd5b505050506040513d601f19601f820116820180604052508101906113dd91906127f7565b1561140957507f0000000000000000000000000000000000000000000000000000000000000000919050565b7f00000000000000000000000000000000000000000000000000000000000000006001600160a01b031615801590611453575060006114478361229a565b6001600160a01b031614155b1561147f57507f0000000000000000000000000000000000000000000000000000000000000000919050565b506000919050565b6060816001600160401b038111156114af57634e487b7160e01b600052604160045260246000fd5b6040519080825280602002602001820160405280156114e257816020015b60608152602001906001900390816114cd5790505b50905060005b8281101561159e576115603085858481811061151457634e487b7160e01b600052603260045260246000fd5b90506020028101906115269190612dcc565b8080601f0160208091040260200160405190810160405280939291908181526020018383808284376000920191909152506122ea92505050565b82828151811061158057634e487b7160e01b600052603260045260246000fd5b6020026020010181905250808061159690612e88565b9150506114e8565b5092915050565b60006115b082611e12565b6115bc57506000919050565b6115c582611ed5565b6116165760405163b3f9e4cb60e01b8152600481018390527f00000000000000000000000000000000000000000000000000000000000000006001600160a01b03169063b3f9e4cb90602401610519565b60405163b3f9e4cb60e01b8152600481018390527f00000000000000000000000000000000000000000000000000000000000000006001600160a01b03169063b3f9e4cb906024016105b7565b606080836001600160401b0381111561168c57634e487b7160e01b600052604160045260246000fd5b6040519080825280602002602001820160405280156116bf57816020015b60608152602001906001900390816116aa5790505b509150836001600160401b038111156116e857634e487b7160e01b600052604160045260246000fd5b60405190808252806020026020018201604052801561171b57816020015b60608152602001906001900390816117065790505b50905061172783611ed5565b156117d95760405163170b5fa560e31b81526001600160a01b037f0000000000000000000000000000000000000000000000000000000000000000169063b85afd289061177c90889088908890600401612d3f565b60006040518083038186803b15801561179457600080fd5b505afa1580156117a8573d6000803e3d6000fd5b505050506040513d6000823e601f3d908101601f191682016040526117d0919081019061276e565b91509150611891565b60006117e484611f55565b90506001600160a01b0381163b151580156117fe57508415155b1561188f5760405163170b5fa560e31b81526001600160a01b0382169063b85afd289061183390899089908990600401612d3f565b60006040518083038186803b15801561184b57600080fd5b505afa92505050801561188057506040513d6000823e601f3d908101601f1916820160405261187d919081019061276e565b60015b6118895761188f565b90935091505b505b935093915050565b6060816001600160401b038111156118c157634e487b7160e01b600052604160045260246000fd5b6040519080825280602002602001820160405280156118ea578160200160208202803683370190505b50905060005b8281101561159e5761192784848381811061191b57634e487b7160e01b600052603260045260246000fd5b90506020020135611ff5565b82828151811061194757634e487b7160e01b600052603260045260246000fd5b6001600160a01b03909216602092830291909101909101528061196981612e88565b9150506118f0565b606061197c82611e12565b61199457505060408051602081019091526000815290565b61199d82611ed5565b611a3d5760405163c87b56dd60e01b8152600481018390527f00000000000000000000000000000000000000000000000000000000000000006001600160a01b03169063c87b56dd9060240160006040518083038186803b158015611a0157600080fd5b505afa158015611a15573d6000803e3d6000fd5b505050506040513d6000823e601f3d908101601f1916820160405261056991908101906128b1565b60405163c87b56dd60e01b8152600481018390527f00000000000000000000000000000000000000000000000000000000000000006001600160a01b03169063c87b56dd9060240160006040518083038186803b158015611a9d57600080fd5b505afa158015611ab1573d6000803e3d6000fd5b505050506040513d6000823e601f3d908101601f1916820160405261048391908101906128b1565b60405162461bcd60e51b815260206004820152601f60248201527f50726f78795265616465723a20554e535550504f525445445f4d4554484f440060448201526000906064015b60405180910390fd5b600080606080856001600160401b03811115611b5557634e487b7160e01b600052604160045260246000fd5b604051908082528060200260200182016040528015611b8857816020015b6060815260200190600190039081611b735790505b509150856001600160401b03811115611bb157634e487b7160e01b600052604160045260246000fd5b604051908082528060200260200182016040528015611be457816020015b6060815260200190600190039081611bcf5790505b509050611bf085611ed5565b15611d495760405163b3f9e4cb60e01b8152600481018690527f00000000000000000000000000000000000000000000000000000000000000006001600160a01b03169063b3f9e4cb9060240160206040518083038186803b158015611c5557600080fd5b505afa158015611c69573d6000803e3d6000fd5b505050506040513d601f19601f82011682018060405250810190611c8d91906125cd565b9350611c98856123de565b60405163170b5fa560e31b81529093506001600160a01b037f0000000000000000000000000000000000000000000000000000000000000000169063b85afd2890611ceb908a908a908a90600401612d3f565b60006040518083038186803b158015611d0357600080fd5b505afa158015611d17573d6000803e3d6000fd5b505050506040513d6000823e601f3d908101601f19168201604052611d3f919081019061276e565b90925090506104a3565b611d5285611f55565b9350611d5d8561229a565b92506001600160a01b0384163b15158015611d79575060008251115b156104a35760405163170b5fa560e31b81526001600160a01b0385169063b85afd2890611dae908a908a908a90600401612d3f565b60006040518083038186803b158015611dc657600080fd5b505afa925050508015611dfb57506040513d6000823e601f3d908101601f19168201604052611df8919081019061276e565b60015b611e04576104a3565b909250905093509350935093565b6000611e1d82611ed5565b611e3c576000611e2c8361229a565b6001600160a01b03161415610483565b604051634f558e7960e01b8152600481018390527f00000000000000000000000000000000000000000000000000000000000000006001600160a01b031690634f558e79906024015b60206040518083038186803b158015611e9d57600080fd5b505afa158015611eb1573d6000803e3d6000fd5b505050506040513d601f19601f8201168201806040525081019061048391906127f7565b60007f00000000000000000000000000000000000000000000000000000000000000006001600160a01b031615806104835750604051634f558e7960e01b8152600481018390527f00000000000000000000000000000000000000000000000000000000000000006001600160a01b031690634f558e7990602401611e85565b60405163b3f9e4cb60e01b8152600481018290526000907f00000000000000000000000000000000000000000000000000000000000000006001600160a01b03169063b3f9e4cb906024015b60206040518083038186803b158015611fb957600080fd5b505afa925050508015611fe9575060408051601f3d908101601f19168201909252611fe6918101906125cd565b60015b61048357506000919050565b600061200082611ed5565b61200d576105698261229a565b610483826123de565b6000806060846001600160401b0381111561204157634e487b7160e01b600052604160045260246000fd5b60405190808252806020026020018201604052801561207457816020015b606081526020019060019003908161205f5790505b50905061208084611ed5565b156121d65760405163b3f9e4cb60e01b8152600481018590527f00000000000000000000000000000000000000000000000000000000000000006001600160a01b03169063b3f9e4cb9060240160206040518083038186803b1580156120e557600080fd5b505afa1580156120f9573d6000803e3d6000fd5b505050506040513d601f19601f8201168201806040525081019061211d91906125cd565b9250612128846123de565b604051630dec660d60e11b81529092506001600160a01b037f00000000000000000000000000000000000000000000000000000000000000001690631bd8cc1a9061217b90899089908990600401612ce3565b60006040518083038186803b15801561219357600080fd5b505afa1580156121a7573d6000803e3d6000fd5b505050506040513d6000823e601f3d908101601f191682016040526121cf919081019061273c565b905061114e565b6121df84611f55565b92506121ea8461229a565b91506001600160a01b0383163b1515801561220457508415155b1561114e57604051630dec660d60e11b81526001600160a01b03841690631bd8cc1a9061223990899089908990600401612ce3565b60006040518083038186803b15801561225157600080fd5b505afa92505050801561228657506040513d6000823e601f3d908101601f19168201604052612283919081019061273c565b60015b61228f5761114e565b905093509350939050565b6040516331a9108f60e11b8152600481018290526000907f00000000000000000000000000000000000000000000000000000000000000006001600160a01b031690636352211e90602401611fa1565b60606001600160a01b0383163b6123525760405162461bcd60e51b815260206004820152602660248201527f416464726573733a2064656c65676174652063616c6c20746f206e6f6e2d636f6044820152651b9d1c9858dd60d21b6064820152608401611b20565b600080846001600160a01b03168460405161236d9190612b3a565b600060405180830381855af49150503d80600081146123a8576040519150601f19603f3d011682016040523d82523d6000602084013e6123ad565b606091505b50915091506123d58282604051806060016040528060278152602001612ee86027913961242e565b95945050505050565b6040516331a9108f60e11b8152600481018290526000907f00000000000000000000000000000000000000000000000000000000000000006001600160a01b031690636352211e90602401611fa1565b6060831561243d5750816107d3565b82511561244d5782518084602001fd5b8160405162461bcd60e51b8152600401611b209190612d94565b60008083601f840112612478578182fd5b5081356001600160401b0381111561248e578182fd5b6020830191508360208260051b8501011115610cac57600080fd5b600082601f8301126124b9578081fd5b815160206001600160401b03808311156124d5576124d5612eb9565b8260051b6124e4838201612e10565b8481528381019087850183890186018a10156124fe578788fd5b8793505b8684101561253b57805185811115612518578889fd5b6125268b88838d0101612548565b84525060019390930192918501918501612502565b5098975050505050505050565b600082601f830112612558578081fd5b81516001600160401b0381111561257157612571612eb9565b612584601f8201601f1916602001612e10565b818152846020838601011115612598578283fd5b6125a9826020830160208701612e58565b949350505050565b6000602082840312156125c2578081fd5b81356107d381612ecf565b6000602082840312156125de578081fd5b81516107d381612ecf565b600080604083850312156125fb578081fd5b823561260681612ecf565b9150602083013561261681612ecf565b809150509250929050565b60008060408385031215612633578182fd5b823561263e81612ecf565b946020939093013593505050565b6000806020838503121561265e578182fd5b82356001600160401b03811115612673578283fd5b61267f85828601612467565b90969095509350505050565b600080600080604085870312156126a0578182fd5b84356001600160401b03808211156126b6578384fd5b6126c288838901612467565b909650945060208701359150808211156126da578384fd5b506126e787828801612467565b95989497509550505050565b600080600060408486031215612707578283fd5b83356001600160401b0381111561271c578384fd5b61272886828701612467565b909790965060209590950135949350505050565b60006020828403121561274d578081fd5b81516001600160401b03811115612762578182fd5b6125a9848285016124a9565b60008060408385031215612780578182fd5b82516001600160401b0380821115612796578384fd5b6127a2868387016124a9565b935060208501519150808211156127b7578283fd5b506127c4858286016124a9565b9150509250929050565b6000806000604084860312156127e2578081fd5b83356001600160401b0381111561271c578182fd5b600060208284031215612808578081fd5b815180151581146107d3578182fd5b600060208284031215612828578081fd5b81356001600160e01b0319811681146107d3578182fd5b600080600060408486031215612853578081fd5b83356001600160401b0380821115612869578283fd5b818601915086601f83011261287c578283fd5b81358181111561288a578384fd5b87602082850101111561289b578384fd5b6020928301989097509590910135949350505050565b6000602082840312156128c2578081fd5b81516001600160401b038111156128d7578182fd5b6125a984828501612548565b600080604083850312156128f5578182fd5b82516001600160401b038082111561290b578384fd5b61291786838701612548565b9350602085015191508082111561292c578283fd5b506127c485828601612548565b60006020828403121561294a578081fd5b5035919050565b600060208284031215612962578081fd5b5051919050565b6000806040838503121561297b578182fd5b50508035926020909101359150565b6000815180845260208085019450808401835b838110156129c25781516001600160a01b03168752958201959082019060010161299d565b509495945050505050565b6000815180845260208085019450848260051b8601828601855b85811015612a115783830389526129ff838351612aa1565b988501989250908401906001016129e7565b5090979650505050505050565b60008383855260208086019550808560051b83010184845b87811015612a1157848303601f19018952813536889003601e19018112612a5b578687fd5b870180356001600160401b03811115612a72578788fd5b803603891315612a80578788fd5b612a8d8582888501612b11565b9a86019a9450505090830190600101612a36565b6000815180845260208085019450848260051b8601828601855b85811015612a11578383038952612ad3838351612ae5565b98850198925090840190600101612abb565b60008151808452612afd816020860160208601612e58565b601f01601f19169290920160200192915050565b81835281816020850137506000828201602090810191909152601f909101601f19169091010190565b60008251612b4c818460208701612e58565b9190910192915050565b6001600160a01b038481168252831660208201526060604082018190526000906123d590830184612aa1565b6001600160a01b03858116825284166020820152608060408201819052600090612bae90830185612aa1565b8281036060840152612bc08185612aa1565b979650505050505050565b6020815260006107d3602083018461298a565b606081526000612bf1606083018661298a565b8281036020840152612c03818661298a565b90508281036040840152612c1781856129cd565b9695505050505050565b608081526000612c34608083018761298a565b8281036020840152612c46818761298a565b90508281036040840152612c5a81866129cd565b90508281036060840152612bc081856129cd565b6000602080830181845280855180835260408601915060408160051b8701019250838701855b82811015612cc257603f19888603018452612cb0858351612ae5565b94509285019290850190600101612c94565b5092979650505050505050565b6020815260006125a9602083018486612a1e565b604081526000612cf7604083018587612a1e565b9050826020830152949350505050565b6020815260006107d36020830184612aa1565b604081526000612d2d6040830185612aa1565b82810360208401526123d58185612aa1565b6040808252810183905260006001600160fb1b03841115612d5e578081fd5b8360051b80866060850137820160600190815260209091019190915292915050565b604081526000612cf7604083018587612b11565b6020815260006107d36020830184612ae5565b604081526000612dba6040830185612ae5565b82810360208401526123d58185612ae5565b6000808335601e19843603018112612de2578283fd5b8301803591506001600160401b03821115612dfb578283fd5b602001915036819003821315610cac57600080fd5b604051601f8201601f191681016001600160401b0381118282101715612e3857612e38612eb9565b604052919050565b60008219821115612e5357612e53612ea3565b500190565b60005b83811015612e73578181015183820152602001612e5b565b83811115612e82576000848401525b50505050565b6000600019821415612e9c57612e9c612ea3565b5060010190565b634e487b7160e01b600052601160045260246000fd5b634e487b7160e01b600052604160045260246000fd5b6001600160a01b0381168114612ee457600080fd5b5056fe416464726573733a206c6f772d6c6576656c2064656c65676174652063616c6c206661696c6564a164736f6c6343000804000a",
  "linkReferences": {},
  "deployedLinkReferences": {}
}