{
  "_format": "hh-sol-artifact-1",
  "contractName": "ProxyReader",
  "sourceName": "contracts/ProxyReader.sol",
  "abi": [
    {
      "inputs": [
        {
          "internalType": "contract IUNSRegistry",
          "name": "unsRegistry",
          "type": "address"
        },
        {
          "internalType": "contract ICNSRegistry",
          "name": "cnsRegistry",
          "type": "address"
        }
      ],
      "stateMutability": "nonpayable",
      "type": "constructor"
    },
    {
      "inputs": [],
      "name": "NAME",
      "outputs": [
        {
          "internalType": "string",
          "name": "",
          "type": "string"
        }
      ],
      "stateMutability": "view",
      "type": "function"
    },
    {
      "inputs": [],
      "name": "VERSION",
      "outputs": [
        {
          "internalType": "string",
          "name": "",
          "type": "string"
        }
      ],
      "stateMutability": "view",
      "type": "function"
    },
    {
      "inputs": [
        {
          "internalType": "address",
          "name": "owner",
          "type": "address"
        }
      ],
      "name": "balanceOf",
      "outputs": [
        {
          "internalType": "uint256",
          "name": "",
          "type": "uint256"
        }
      ],
      "stateMutability": "view",
      "type": "function"
    },
    {
      "inputs": [
        {
          "internalType": "uint256",
          "name": "tokenId",
          "type": "uint256"
        },
        {
          "internalType": "string",
          "name": "label",
          "type": "string"
        }
      ],
      "name": "childIdOf",
      "outputs": [
        {
          "internalType": "uint256",
          "name": "",
          "type": "uint256"
        }
      ],
      "stateMutability": "view",
      "type": "function"
    },
    {
      "inputs": [
        {
          "internalType": "uint256",
          "name": "tokenId",
          "type": "uint256"
        }
      ],
      "name": "exists",
      "outputs": [
        {
          "internalType": "bool",
          "name": "",
          "type": "bool"
        }
      ],
      "stateMutability": "view",
      "type": "function"
    },
    {
      "inputs": [
        {
          "internalType": "string",
          "name": "key",
          "type": "string"
        },
        {
          "internalType": "uint256",
          "name": "tokenId",
          "type": "uint256"
        }
      ],
      "name": "get",
      "outputs": [
        {
          "internalType": "string",
          "name": "value",
          "type": "string"
        }
      ],
      "stateMutability": "view",
      "type": "function"
    },
    {
      "inputs": [
        {
          "internalType": "uint256",
          "name": "tokenId",
          "type": "uint256"
        }
      ],
      "name": "getApproved",
      "outputs": [
        {
          "internalType": "address",
          "name": "",
          "type": "address"
        }
      ],
      "stateMutability": "view",
      "type": "function"
    },
    {
      "inputs": [
        {
          "internalType": "uint256",
          "name": "keyHash",
          "type": "uint256"
        },
        {
          "internalType": "uint256",
          "name": "tokenId",
          "type": "uint256"
        }
      ],
      "name": "getByHash",
      "outputs": [
        {
          "internalType": "string",
          "name": "key",
          "type": "string"
        },
        {
          "internalType": "string",
          "name": "value",
          "type": "string"
        }
      ],
      "stateMutability": "view",
      "type": "function"
    },
    {
      "inputs": [
        {
          "internalType": "string[]",
          "name": "keys",
          "type": "string[]"
        },
        {
          "internalType": "uint256",
          "name": "tokenId",
          "type": "uint256"
        }
      ],
      "name": "getData",
      "outputs": [
        {
          "internalType": "address",
          "name": "resolver",
          "type": "address"
        },
        {
          "internalType": "address",
          "name": "owner",
          "type": "address"
        },
        {
          "internalType": "string[]",
          "name": "values",
          "type": "string[]"
        }
      ],
      "stateMutability": "view",
      "type": "function"
    },
    {
      "inputs": [
        {
          "internalType": "uint256[]",
          "name": "keyHashes",
          "type": "uint256[]"
        },
        {
          "internalType": "uint256",
          "name": "tokenId",
          "type": "uint256"
        }
      ],
      "name": "getDataByHash",
      "outputs": [
        {
          "internalType": "address",
          "name": "resolver",
          "type": "address"
        },
        {
          "internalType": "address",
          "name": "owner",
          "type": "address"
        },
        {
          "internalType": "string[]",
          "name": "keys",
          "type": "string[]"
        },
        {
          "internalType": "string[]",
          "name": "values",
          "type": "string[]"
        }
      ],
      "stateMutability": "view",
      "type": "function"
    },
    {
      "inputs": [
        {
          "internalType": "uint256[]",
          "name": "keyHashes",
          "type": "uint256[]"
        },
        {
          "internalType": "uint256[]",
          "name": "tokenIds",
          "type": "uint256[]"
        }
      ],
      "name": "getDataByHashForMany",
      "outputs": [
        {
          "internalType": "address[]",
          "name": "resolvers",
          "type": "address[]"
        },
        {
          "internalType": "address[]",
          "name": "owners",
          "type": "address[]"
        },
        {
          "internalType": "string[][]",
          "name": "keys",
          "type": "string[][]"
        },
        {
          "internalType": "string[][]",
          "name": "values",
          "type": "string[][]"
        }
      ],
      "stateMutability": "view",
      "type": "function"
    },
    {
      "inputs": [
        {
          "internalType": "string[]",
          "name": "keys",
          "type": "string[]"
        },
        {
          "internalType": "uint256[]",
          "name": "tokenIds",
          "type": "uint256[]"
        }
      ],
      "name": "getDataForMany",
      "outputs": [
        {
          "internalType": "address[]",
          "name": "resolvers",
          "type": "address[]"
        },
        {
          "internalType": "address[]",
          "name": "owners",
          "type": "address[]"
        },
        {
          "internalType": "string[][]",
          "name": "values",
          "type": "string[][]"
        }
      ],
      "stateMutability": "view",
      "type": "function"
    },
    {
      "inputs": [
        {
          "internalType": "string[]",
          "name": "keys",
          "type": "string[]"
        },
        {
          "internalType": "uint256",
          "name": "tokenId",
          "type": "uint256"
        }
      ],
      "name": "getMany",
      "outputs": [
        {
          "internalType": "string[]",
          "name": "values",
          "type": "string[]"
        }
      ],
      "stateMutability": "view",
      "type": "function"
    },
    {
      "inputs": [
        {
          "internalType": "uint256[]",
          "name": "keyHashes",
          "type": "uint256[]"
        },
        {
          "internalType": "uint256",
          "name": "tokenId",
          "type": "uint256"
        }
      ],
      "name": "getManyByHash",
      "outputs": [
        {
          "internalType": "string[]",
          "name": "keys",
          "type": "string[]"
        },
        {
          "internalType": "string[]",
          "name": "values",
          "type": "string[]"
        }
      ],
      "stateMutability": "view",
      "type": "function"
    },
    {
      "inputs": [
        {
          "internalType": "address",
          "name": "",
          "type": "address"
        },
        {
          "internalType": "address",
          "name": "",
          "type": "address"
        }
      ],
      "name": "isApprovedForAll",
      "outputs": [
        {
          "internalType": "bool",
          "name": "",
          "type": "bool"
        }
      ],
      "stateMutability": "pure",
      "type": "function"
    },
    {
      "inputs": [
        {
          "internalType": "address",
          "name": "spender",
          "type": "address"
        },
        {
          "internalType": "uint256",
          "name": "tokenId",
          "type": "uint256"
        }
      ],
      "name": "isApprovedOrOwner",
      "outputs": [
        {
          "internalType": "bool",
          "name": "",
          "type": "bool"
        }
      ],
      "stateMutability": "view",
      "type": "function"
    },
    {
      "inputs": [
        {
          "internalType": "uint256",
          "name": "tokenId",
          "type": "uint256"
        }
      ],
      "name": "ownerOf",
      "outputs": [
        {
          "internalType": "address",
          "name": "",
          "type": "address"
        }
      ],
      "stateMutability": "view",
      "type": "function"
    },
    {
      "inputs": [
        {
          "internalType": "uint256[]",
          "name": "tokenIds",
          "type": "uint256[]"
        }
      ],
      "name": "ownerOfForMany",
      "outputs": [
        {
          "internalType": "address[]",
          "name": "owners",
          "type": "address[]"
        }
      ],
      "stateMutability": "view",
      "type": "function"
    },
    {
      "inputs": [
        {
          "internalType": "uint256",
          "name": "tokenId",
          "type": "uint256"
        }
      ],
      "name": "registryOf",
      "outputs": [
        {
          "internalType": "address",
          "name": "",
          "type": "address"
        }
      ],
      "stateMutability": "view",
      "type": "function"
    },
    {
      "inputs": [
        {
          "internalType": "uint256",
          "name": "tokenId",
          "type": "uint256"
        }
      ],
      "name": "resolverOf",
      "outputs": [
        {
          "internalType": "address",
          "name": "",
          "type": "address"
        }
      ],
      "stateMutability": "view",
      "type": "function"
    },
    {
      "inputs": [
        {
          "internalType": "bytes4",
          "name": "interfaceId",
          "type": "bytes4"
        }
      ],
      "name": "supportsInterface",
      "outputs": [
        {
          "internalType": "bool",
          "name": "",
          "type": "bool"
        }
      ],
      "stateMutability": "view",
      "type": "function"
    },
    {
      "inputs": [
        {
          "internalType": "uint256",
          "name": "tokenId",
          "type": "uint256"
        }
      ],
      "name": "tokenURI",
      "outputs": [
        {
          "internalType": "string",
          "name": "",
          "type": "string"
        }
      ],
      "stateMutability": "view",
      "type": "function"
    }
  ],
  "bytecode": "0x60c06040523480156200001157600080fd5b506040516200330338038062003303833981016040819052620000349162000053565b6001600160601b0319606092831b8116608052911b1660a052620000aa565b6000806040838503121562000066578182fd5b8251620000738162000091565b6020840151909250620000868162000091565b809150509250929050565b6001600160a01b0381168114620000a757600080fd5b50565b60805160601c60a05160601c61312a620001d96000396000818161056801528181610b4901528181610f00015281816115cf0152818161170201528181611c38015281816120f60152612199015260008181610424015281816104c501528181610613015281816106b40152818161081b015281816108bc01528181610a0301528181610aa401528181610ba001528181610c5701528181610d0d01528181610e6801528181610fb1015281816115020152818161158f01528181611615015281816116b60152818161180a015281816118ab01528181611af701528181611b9801528181611da001528181611e4101528181611ee001528181611f7f015281816121e8015281816122890152818161234c015281816123ed0152818161248c015261252b015261312a6000f3fe608060405234801561001057600080fd5b50600436106101425760003560e01c8063869b8884116100b8578063b3f9e4cb1161007c578063b3f9e4cb14610302578063b85afd2814610315578063c15ae7cf14610336578063c87b56dd14610356578063e985e9c514610369578063ffa1ad741461037c57610142565b8063869b88841461028057806391015f6b146102a3578063933c051d146102c5578063a3f4df7e146102e7578063a81ce6f9146102ef57610142565b8063430c20811161010a578063430c2081146101f35780634f558e79146102065780636352211e14610219578063672b9f811461022c57806368b62d321461024d57806370a082311461026d57610142565b806301ffc9a7146101475780630328075514610170578063081812fc146101935780631bd8cc1a146101b35780631be5e7ed146101d3575b600080fd5b61015a610155366004612a43565b610384565b6040516101679190612f55565b60405180910390f35b61018361017e3660046128de565b6103e7565b6040516101679493929190612d3d565b6101a66101a1366004612b28565b61040a565b6040516101679190612cf4565b6101c66101c13660046128de565b61059d565b6040516101679190612edc565b6101e66101e1366004612a6b565b610801565b6040516101679190612f84565b61015a61020136600461284b565b6109e9565b61015a610214366004612b28565b610b86565b6101a6610227366004612b28565b610c47565b61023f61023a366004612ba1565b610c52565b604051610167929190612f97565b61026061025b366004612b58565b610e4e565b6040516101679190612ff3565b61026061027b3660046127db565b610ef9565b61029361028e3660046129f8565b61103c565b6040516101679493929190612df5565b6102b66102b13660046128de565b6112b0565b60405161016793929190612d08565b6102d86102d3366004612876565b6112d0565b60405161016793929190612db2565b6101e66114bb565b6101a66102fd366004612b28565b6114e8565b6101a6610310366004612b28565b6115fb565b6103286103233660046128de565b611737565b604051610167929190612eef565b6103496103443660046129b9565b6119fe565b6040516101679190612d9f565b6101e6610364366004612b28565b611add565b61015a610377366004612813565b611c6d565b6101e6611c90565b60006001600160e01b0319821663768134e560e11b14806103b557506001600160e01b03198216636fa624af60e11b145b806103d057506001600160e01b031982166308da864d60e31b145b806103df57506103df82611cb1565b90505b919050565b6000806060806103f8878787611cca565b93509350935093505b93509350935093565b604051634f558e7960e01b81526000906001600160a01b037f00000000000000000000000000000000000000000000000000000000000000001690634f558e7990610459908590600401612ff3565b60206040518083038186803b15801561047157600080fd5b505afa158015610485573d6000803e3d6000fd5b505050506040513d601f19601f820116820180604052508101906104a99190612a23565b156105515760405163020604bf60e21b81526001600160a01b037f0000000000000000000000000000000000000000000000000000000000000000169063081812fc906104fa908590600401612ff3565b60206040518083038186803b15801561051257600080fd5b505afa158015610526573d6000803e3d6000fd5b505050506040513d601f19601f8201168201806040525081019061054a91906127f7565b90506103e2565b60405163020604bf60e21b81526001600160a01b037f0000000000000000000000000000000000000000000000000000000000000000169063081812fc906104fa908590600401612ff3565b6060826001600160401b038111156105c557634e487b7160e01b600052604160045260246000fd5b6040519080825280602002602001820160405280156105f857816020015b60608152602001906001900390816105e35790505b50604051634f558e7960e01b81529091506001600160a01b037f00000000000000000000000000000000000000000000000000000000000000001690634f558e7990610648908590600401612ff3565b60206040518083038186803b15801561066057600080fd5b505afa158015610674573d6000803e3d6000fd5b505050506040513d601f19601f820116820180604052508101906106989190612a23565b1561074857604051630dec660d60e11b81526001600160a01b037f00000000000000000000000000000000000000000000000000000000000000001690631bd8cc1a906106ed90879087908790600401612e42565b60006040518083038186803b15801561070557600080fd5b505afa158015610719573d6000803e3d6000fd5b505050506040513d6000823e601f3d908101601f191682016040526107419190810190612927565b90506107fa565b6000610753836120dc565b90506001600160a01b0381161580159061076c57508315155b156107f857604051630dec660d60e11b81526001600160a01b03821690631bd8cc1a906107a190889088908890600401612e42565b60006040518083038186803b1580156107b957600080fd5b505afa1580156107cd573d6000803e3d6000fd5b505050506040513d6000823e601f3d908101601f191682016040526107f59190810190612927565b91505b505b9392505050565b604051634f558e7960e01b81526060906001600160a01b037f00000000000000000000000000000000000000000000000000000000000000001690634f558e7990610850908590600401612ff3565b60206040518083038186803b15801561086857600080fd5b505afa15801561087c573d6000803e3d6000fd5b505050506040513d601f19601f820116820180604052508101906108a09190612a23565b1561094957604051631be5e7ed60e01b81526001600160a01b037f00000000000000000000000000000000000000000000000000000000000000001690631be5e7ed906108f590879087908790600401612f60565b60006040518083038186803b15801561090d57600080fd5b505afa158015610921573d6000803e3d6000fd5b505050506040513d6000823e601f3d908101601f191682016040526107419190810190612aa0565b6000610954836120dc565b90506001600160a01b038116156107f857604051631be5e7ed60e01b81526001600160a01b03821690631be5e7ed9061099590889088908890600401612f60565b60006040518083038186803b1580156109ad57600080fd5b505afa1580156109c1573d6000803e3d6000fd5b505050506040513d6000823e601f3d908101601f191682016040526107f59190810190612aa0565b604051634f558e7960e01b81526000906001600160a01b037f00000000000000000000000000000000000000000000000000000000000000001690634f558e7990610a38908590600401612ff3565b60206040518083038186803b158015610a5057600080fd5b505afa158015610a64573d6000803e3d6000fd5b505050506040513d601f19601f82011682018060405250810190610a889190612a23565b15610b325760405163430c208160e01b81526001600160a01b037f0000000000000000000000000000000000000000000000000000000000000000169063430c208190610adb9086908690600401612d86565b60206040518083038186803b158015610af357600080fd5b505afa158015610b07573d6000803e3d6000fd5b505050506040513d601f19601f82011682018060405250810190610b2b9190612a23565b9050610b80565b60405163430c208160e01b81526001600160a01b037f0000000000000000000000000000000000000000000000000000000000000000169063430c208190610adb9086908690600401612d86565b92915050565b604051634f558e7960e01b81526000906001600160a01b037f00000000000000000000000000000000000000000000000000000000000000001690634f558e7990610bd5908590600401612ff3565b60206040518083038186803b158015610bed57600080fd5b505afa158015610c01573d6000803e3d6000fd5b505050506040513d601f19601f82011682018060405250810190610c259190612a23565b806103df57506000610c368361217f565b6001600160a01b0316141592915050565b60006103df826121ce565b6060807f00000000000000000000000000000000000000000000000000000000000000006001600160a01b0316634f558e79846040518263ffffffff1660e01b8152600401610ca19190612ff3565b60206040518083038186803b158015610cb957600080fd5b505afa158015610ccd573d6000803e3d6000fd5b505050506040513d601f19601f82011682018060405250810190610cf19190612a23565b15610da15760405163672b9f8160e01b81526001600160a01b037f0000000000000000000000000000000000000000000000000000000000000000169063672b9f8190610d449087908790600401613016565b60006040518083038186803b158015610d5c57600080fd5b505afa158015610d70573d6000803e3d6000fd5b505050506040513d6000823e601f3d908101601f19168201604052610d989190810190612ad2565b91509150610e47565b6000610dac846120dc565b90506001600160a01b03811615610e455760405163672b9f8160e01b81526001600160a01b0382169063672b9f8190610deb9088908890600401613016565b60006040518083038186803b158015610e0357600080fd5b505afa158015610e17573d6000803e3d6000fd5b505050506040513d6000823e601f3d908101601f19168201604052610e3f9190810190612ad2565b90935091505b505b9250929050565b60405163345b169960e11b81526000906001600160a01b037f000000000000000000000000000000000000000000000000000000000000000016906368b62d3290610ea190879087908790600401612ffc565b60206040518083038186803b158015610eb957600080fd5b505afa158015610ecd573d6000803e3d6000fd5b505050506040513d601f19601f82011682018060405250810190610ef19190612b40565b949350505050565b60006103df7f00000000000000000000000000000000000000000000000000000000000000006001600160a01b03166370a08231846040518263ffffffff1660e01b8152600401610f4a9190612cf4565b60206040518083038186803b158015610f6257600080fd5b505afa158015610f76573d6000803e3d6000fd5b505050506040513d601f19601f82011682018060405250810190610f9a9190612b40565b6040516370a0823160e01b81526001600160a01b037f000000000000000000000000000000000000000000000000000000000000000016906370a0823190610fe6908790600401612cf4565b60206040518083038186803b158015610ffe57600080fd5b505afa158015611012573d6000803e3d6000fd5b505050506040513d601f19601f820116820180604052508101906110369190612b40565b906122c7565b6060808080846001600160401b0381111561106757634e487b7160e01b600052604160045260246000fd5b604051908082528060200260200182016040528015611090578160200160208202803683370190505b509350846001600160401b038111156110b957634e487b7160e01b600052604160045260246000fd5b6040519080825280602002602001820160405280156110e2578160200160208202803683370190505b509250846001600160401b0381111561110b57634e487b7160e01b600052604160045260246000fd5b60405190808252806020026020018201604052801561113e57816020015b60608152602001906001900390816111295790505b509150846001600160401b0381111561116757634e487b7160e01b600052604160045260246000fd5b60405190808252806020026020018201604052801561119a57816020015b60608152602001906001900390816111855790505b50905060005b858110156112a4576111d989898989858181106111cd57634e487b7160e01b600052603260045260246000fd5b90506020020135611cca565b8885815181106111f957634e487b7160e01b600052603260045260246000fd5b6020026020010188868151811061122057634e487b7160e01b600052603260045260246000fd5b6020026020010188878151811061124757634e487b7160e01b600052603260045260246000fd5b6020026020010188888151811061126e57634e487b7160e01b600052603260045260246000fd5b6020908102919091010193909352929091526001600160a01b03928316909152911690528061129c81613095565b9150506111a0565b50945094509450949050565b60008060606112c08686866122d3565b9250925092505b93509350939050565b60608080836001600160401b038111156112fa57634e487b7160e01b600052604160045260246000fd5b604051908082528060200260200182016040528015611323578160200160208202803683370190505b509250836001600160401b0381111561134c57634e487b7160e01b600052604160045260246000fd5b604051908082528060200260200182016040528015611375578160200160208202803683370190505b509150836001600160401b0381111561139e57634e487b7160e01b600052604160045260246000fd5b6040519080825280602002602001820160405280156113d157816020015b60608152602001906001900390816113bc5790505b50905060005b848110156114b057611410888888888581811061140457634e487b7160e01b600052603260045260246000fd5b905060200201356122d3565b86848151811061143057634e487b7160e01b600052603260045260246000fd5b6020026020010186858151811061145757634e487b7160e01b600052603260045260246000fd5b6020026020010186868151811061147e57634e487b7160e01b600052603260045260246000fd5b60209081029190910101929092526001600160a01b0392831690915291169052806114a881613095565b9150506113d7565b509450945094915050565b604051806040016040528060118152602001702aa7299d10283937bc3c902932b0b232b960791b81525081565b604051634f558e7960e01b81526000906001600160a01b037f00000000000000000000000000000000000000000000000000000000000000001690634f558e7990611537908590600401612ff3565b60206040518083038186803b15801561154f57600080fd5b505afa158015611563573d6000803e3d6000fd5b505050506040513d601f19601f820116820180604052508101906115879190612a23565b156115b357507f00000000000000000000000000000000000000000000000000000000000000006103e2565b60006115be8361217f565b6001600160a01b0316146115f357507f00000000000000000000000000000000000000000000000000000000000000006103e2565b506000919050565b604051634f558e7960e01b81526000906001600160a01b037f00000000000000000000000000000000000000000000000000000000000000001690634f558e799061164a908590600401612ff3565b60206040518083038186803b15801561166257600080fd5b505afa158015611676573d6000803e3d6000fd5b505050506040513d601f19601f8201168201806040525081019061169a9190612a23565b156116eb5760405163b3f9e4cb60e01b81526001600160a01b037f0000000000000000000000000000000000000000000000000000000000000000169063b3f9e4cb906104fa908590600401612ff3565b60405163b3f9e4cb60e01b81526001600160a01b037f0000000000000000000000000000000000000000000000000000000000000000169063b3f9e4cb906104fa908590600401612ff3565b606080836001600160401b0381111561176057634e487b7160e01b600052604160045260246000fd5b60405190808252806020026020018201604052801561179357816020015b606081526020019060019003908161177e5790505b509150836001600160401b038111156117bc57634e487b7160e01b600052604160045260246000fd5b6040519080825280602002602001820160405280156117ef57816020015b60608152602001906001900390816117da5790505b50604051634f558e7960e01b81529091506001600160a01b037f00000000000000000000000000000000000000000000000000000000000000001690634f558e799061183f908690600401612ff3565b60206040518083038186803b15801561185757600080fd5b505afa15801561186b573d6000803e3d6000fd5b505050506040513d601f19601f8201168201806040525081019061188f9190612a23565b156119415760405163170b5fa560e31b81526001600160a01b037f0000000000000000000000000000000000000000000000000000000000000000169063b85afd28906118e490889088908890600401612f14565b60006040518083038186803b1580156118fc57600080fd5b505afa158015611910573d6000803e3d6000fd5b505050506040513d6000823e601f3d908101601f191682016040526119389190810190612959565b915091506119f6565b600061194c846120dc565b90506001600160a01b0381161580159061196557508415155b156119f45760405163170b5fa560e31b81526001600160a01b0382169063b85afd289061199a90899089908990600401612f14565b60006040518083038186803b1580156119b257600080fd5b505afa1580156119c6573d6000803e3d6000fd5b505050506040513d6000823e601f3d908101601f191682016040526119ee9190810190612959565b90935091505b505b935093915050565b6060816001600160401b03811115611a2657634e487b7160e01b600052604160045260246000fd5b604051908082528060200260200182016040528015611a4f578160200160208202803683370190505b50905060005b82811015611ad657611a8c848483818110611a8057634e487b7160e01b600052603260045260246000fd5b905060200201356121ce565b828281518110611aac57634e487b7160e01b600052603260045260246000fd5b6001600160a01b039092166020928302919091019091015280611ace81613095565b915050611a55565b5092915050565b604051634f558e7960e01b81526060906001600160a01b037f00000000000000000000000000000000000000000000000000000000000000001690634f558e7990611b2c908590600401612ff3565b60206040518083038186803b158015611b4457600080fd5b505afa158015611b58573d6000803e3d6000fd5b505050506040513d601f19601f82011682018060405250810190611b7c9190612a23565b15611c215760405163c87b56dd60e01b81526001600160a01b037f0000000000000000000000000000000000000000000000000000000000000000169063c87b56dd90611bcd908590600401612ff3565b60006040518083038186803b158015611be557600080fd5b505afa158015611bf9573d6000803e3d6000fd5b505050506040513d6000823e601f3d908101601f1916820160405261054a9190810190612aa0565b60405163c87b56dd60e01b81526001600160a01b037f0000000000000000000000000000000000000000000000000000000000000000169063c87b56dd90611bcd908590600401612ff3565b600060405162461bcd60e51b8152600401611c8790612fbc565b60405180910390fd5b604051806040016040528060058152602001640302e312e360dc1b81525081565b6001600160e01b031981166301ffc9a760e01b14919050565b600080606080856001600160401b03811115611cf657634e487b7160e01b600052604160045260246000fd5b604051908082528060200260200182016040528015611d2957816020015b6060815260200190600190039081611d145790505b509150856001600160401b03811115611d5257634e487b7160e01b600052604160045260246000fd5b604051908082528060200260200182016040528015611d8557816020015b6060815260200190600190039081611d705790505b50604051634f558e7960e01b81529091506001600160a01b037f00000000000000000000000000000000000000000000000000000000000000001690634f558e7990611dd5908890600401612ff3565b60206040518083038186803b158015611ded57600080fd5b505afa158015611e01573d6000803e3d6000fd5b505050506040513d601f19601f82011682018060405250810190611e259190612a23565b156120165760405163b3f9e4cb60e01b81526001600160a01b037f0000000000000000000000000000000000000000000000000000000000000000169063b3f9e4cb90611e76908890600401612ff3565b60206040518083038186803b158015611e8e57600080fd5b505afa158015611ea2573d6000803e3d6000fd5b505050506040513d601f19601f82011682018060405250810190611ec691906127f7565b6040516331a9108f60e11b81529094506001600160a01b037f00000000000000000000000000000000000000000000000000000000000000001690636352211e90611f15908890600401612ff3565b60206040518083038186803b158015611f2d57600080fd5b505afa158015611f41573d6000803e3d6000fd5b505050506040513d601f19601f82011682018060405250810190611f6591906127f7565b60405163170b5fa560e31b81529093506001600160a01b037f0000000000000000000000000000000000000000000000000000000000000000169063b85afd2890611fb8908a908a908a90600401612f14565b60006040518083038186803b158015611fd057600080fd5b505afa158015611fe4573d6000803e3d6000fd5b505050506040513d6000823e601f3d908101601f1916820160405261200c9190810190612959565b9092509050610401565b61201f856120dc565b935061202a8561217f565b92506001600160a01b03841615801590612045575060008251115b156104015760405163170b5fa560e31b81526001600160a01b0385169063b85afd289061207a908a908a908a90600401612f14565b60006040518083038186803b15801561209257600080fd5b505afa1580156120a6573d6000803e3d6000fd5b505050506040513d6000823e601f3d908101601f191682016040526120ce9190810190612959565b909250905093509350935093565b60405163b3f9e4cb60e01b81526000906001600160a01b037f0000000000000000000000000000000000000000000000000000000000000000169063b3f9e4cb9061212b908590600401612ff3565b60206040518083038186803b15801561214357600080fd5b505afa925050508015612173575060408051601f3d908101601f19168201909252612170918101906127f7565b60015b61054a575060006103e2565b6040516331a9108f60e11b81526000906001600160a01b037f00000000000000000000000000000000000000000000000000000000000000001690636352211e9061212b908590600401612ff3565b604051634f558e7960e01b81526000906001600160a01b037f00000000000000000000000000000000000000000000000000000000000000001690634f558e799061221d908590600401612ff3565b60206040518083038186803b15801561223557600080fd5b505afa158015612249573d6000803e3d6000fd5b505050506040513d601f19601f8201168201806040525081019061226d9190612a23565b156122be576040516331a9108f60e11b81526001600160a01b037f00000000000000000000000000000000000000000000000000000000000000001690636352211e906104fa908590600401612ff3565b61054a8261217f565b60006107fa828461304d565b6000806060846001600160401b038111156122fe57634e487b7160e01b600052604160045260246000fd5b60405190808252806020026020018201604052801561233157816020015b606081526020019060019003908161231c5790505b50604051634f558e7960e01b81529091506001600160a01b037f00000000000000000000000000000000000000000000000000000000000000001690634f558e7990612381908790600401612ff3565b60206040518083038186803b15801561239957600080fd5b505afa1580156123ad573d6000803e3d6000fd5b505050506040513d601f19601f820116820180604052508101906123d19190612a23565b156125bf5760405163b3f9e4cb60e01b81526001600160a01b037f0000000000000000000000000000000000000000000000000000000000000000169063b3f9e4cb90612422908790600401612ff3565b60206040518083038186803b15801561243a57600080fd5b505afa15801561244e573d6000803e3d6000fd5b505050506040513d601f19601f8201168201806040525081019061247291906127f7565b6040516331a9108f60e11b81529093506001600160a01b037f00000000000000000000000000000000000000000000000000000000000000001690636352211e906124c1908790600401612ff3565b60206040518083038186803b1580156124d957600080fd5b505afa1580156124ed573d6000803e3d6000fd5b505050506040513d601f19601f8201168201806040525081019061251191906127f7565b604051630dec660d60e11b81529092506001600160a01b037f00000000000000000000000000000000000000000000000000000000000000001690631bd8cc1a9061256490899089908990600401612e42565b60006040518083038186803b15801561257c57600080fd5b505afa158015612590573d6000803e3d6000fd5b505050506040513d6000823e601f3d908101601f191682016040526125b89190810190612927565b90506112c7565b6125c8846120dc565b92506125d38461217f565b91506001600160a01b038316158015906125ec57508415155b156112c757604051630dec660d60e11b81526001600160a01b03841690631bd8cc1a9061262190899089908990600401612e42565b60006040518083038186803b15801561263957600080fd5b505afa15801561264d573d6000803e3d6000fd5b505050506040513d6000823e601f3d908101601f191682016040526126759190810190612927565b905093509350939050565b60008083601f840112612691578182fd5b5081356001600160401b038111156126a7578182fd5b6020830191508360208083028501011115610e4757600080fd5b600082601f8301126126d1578081fd5b815160206001600160401b038211156126ec576126ec6130c6565b6126f98182840201613024565b82815281810190858301855b8581101561272e5761271c898684518b010161277a565b84529284019290840190600101612705565b5090979650505050505050565b60008083601f84011261274c578182fd5b5081356001600160401b03811115612762578182fd5b602083019150836020828501011115610e4757600080fd5b600082601f83011261278a578081fd5b81516001600160401b038111156127a3576127a36130c6565b6127b6601f8201601f1916602001613024565b8181528460208386010111156127ca578283fd5b610ef1826020830160208701613065565b6000602082840312156127ec578081fd5b81356107fa816130dc565b600060208284031215612808578081fd5b81516107fa816130dc565b60008060408385031215612825578081fd5b8235612830816130dc565b91506020830135612840816130dc565b809150509250929050565b6000806040838503121561285d578182fd5b8235612868816130dc565b946020939093013593505050565b6000806000806040858703121561288b578182fd5b84356001600160401b03808211156128a1578384fd5b6128ad88838901612680565b909650945060208701359150808211156128c5578384fd5b506128d287828801612680565b95989497509550505050565b6000806000604084860312156128f2578283fd5b83356001600160401b03811115612907578384fd5b61291386828701612680565b909790965060209590950135949350505050565b600060208284031215612938578081fd5b81516001600160401b0381111561294d578182fd5b610ef1848285016126c1565b6000806040838503121561296b578182fd5b82516001600160401b0380821115612981578384fd5b61298d868387016126c1565b935060208501519150808211156129a2578283fd5b506129af858286016126c1565b9150509250929050565b600080602083850312156129cb578182fd5b82356001600160401b038111156129e0578283fd5b6129ec85828601612680565b90969095509350505050565b60008060008060408587031215612a0d578384fd5b84356001600160401b03808211156128a1578586fd5b600060208284031215612a34578081fd5b815180151581146107fa578182fd5b600060208284031215612a54578081fd5b81356001600160e01b0319811681146107fa578182fd5b600080600060408486031215612a7f578081fd5b83356001600160401b03811115612a94578182fd5b6129138682870161273b565b600060208284031215612ab1578081fd5b81516001600160401b03811115612ac6578182fd5b610ef18482850161277a565b60008060408385031215612ae4578182fd5b82516001600160401b0380821115612afa578384fd5b612b068683870161277a565b93506020850151915080821115612b1b578283fd5b506129af8582860161277a565b600060208284031215612b39578081fd5b5035919050565b600060208284031215612b51578081fd5b5051919050565b600080600060408486031215612b6c578081fd5b8335925060208401356001600160401b03811115612b88578182fd5b612b948682870161273b565b9497909650939450505050565b60008060408385031215612bb3578182fd5b50508035926020909101359150565b6000815180845260208085019450808401835b83811015612bfa5781516001600160a01b031687529582019590820190600101612bd5565b509495945050505050565b6000815180845260208085018081965082840281019150828601855b85811015612c4b578284038952612c39848351612c58565b98850198935090840190600101612c21565b5091979650505050505050565b6000815180845260208085018081965082840281019150828601855b85811015612c4b578284038952612c8c848351612cc8565b98850198935090840190600101612c74565b60008284528282602086013780602084860101526020601f19601f85011685010190509392505050565b60008151808452612ce0816020860160208601613065565b601f01601f19169290920160200192915050565b6001600160a01b0391909116815260200190565b6001600160a01b03848116825283166020820152606060408201819052600090612d3490830184612c58565b95945050505050565b6001600160a01b03858116825284166020820152608060408201819052600090612d6990830185612c58565b8281036060840152612d7b8185612c58565b979650505050505050565b6001600160a01b03929092168252602082015260400190565b6000602082526107fa6020830184612bc2565b600060608252612dc56060830186612bc2565b8281036020840152612dd78186612bc2565b90508281036040840152612deb8185612c05565b9695505050505050565b600060808252612e086080830187612bc2565b8281036020840152612e1a8187612bc2565b90508281036040840152612e2e8186612c05565b90508281036060840152612d7b8185612c05565b604080825281018390526000602060608084019082870285010187845b88811015612eca57868303605f190184528135368b9003601e19018112612e84578687fd5b8a0180356001600160401b03811115612e9b578788fd5b8036038c1315612ea9578788fd5b612eb68582898501612c9e565b958701959450505090840190600101612e5f565b50509390910193909352509392505050565b6000602082526107fa6020830184612c58565b600060408252612f026040830185612c58565b82810360208401526107f58185612c58565b6040808252810183905260006001600160fb1b03841115612f33578081fd5b6020840280866060850137820160600190815260209091019190915292915050565b901515815260200190565b600060408252612f74604083018587612c9e565b9050826020830152949350505050565b6000602082526107fa6020830184612cc8565b600060408252612faa6040830185612cc8565b82810360208401526107f58185612cc8565b6020808252601f908201527f50726f78795265616465723a20554e535550504f525445445f4d4554484f4400604082015260600190565b90815260200190565b600084825260406020830152612d34604083018486612c9e565b918252602082015260400190565b6040518181016001600160401b0381118282101715613045576130456130c6565b604052919050565b60008219821115613060576130606130b0565b500190565b60005b83811015613080578181015183820152602001613068565b8381111561308f576000848401525b50505050565b60006000198214156130a9576130a96130b0565b5060010190565b634e487b7160e01b600052601160045260246000fd5b634e487b7160e01b600052604160045260246000fd5b6001600160a01b03811681146130f157600080fd5b5056fea2646970667358221220e756784d94aee1c7b3ece6c445f294180b125436ebe593c2575f4ed44022567564736f6c63430008000033",
  "linkReferences": {},
  "deployedLinkReferences": {}
}