{
  "_format": "hh-sol-artifact-1",
  "contractName": "ProxyReader",
  "sourceName": "contracts/ProxyReader.sol",
  "abi": [
    {
      "inputs": [
        {
          "internalType": "contract IUNSRegistry",
          "name": "unsRegistry",
          "type": "address"
        },
        {
          "internalType": "contract ICNSRegistry",
          "name": "cnsRegistry",
          "type": "address"
        }
      ],
      "stateMutability": "nonpayable",
      "type": "constructor"
    },
    {
      "inputs": [],
      "name": "NAME",
      "outputs": [
        {
          "internalType": "string",
          "name": "",
          "type": "string"
        }
      ],
      "stateMutability": "view",
      "type": "function"
    },
    {
      "inputs": [],
      "name": "VERSION",
      "outputs": [
        {
          "internalType": "string",
          "name": "",
          "type": "string"
        }
      ],
      "stateMutability": "view",
      "type": "function"
    },
    {
      "inputs": [
        {
          "internalType": "address",
          "name": "owner",
          "type": "address"
        }
      ],
      "name": "balanceOf",
      "outputs": [
        {
          "internalType": "uint256",
          "name": "",
          "type": "uint256"
        }
      ],
      "stateMutability": "view",
      "type": "function"
    },
    {
      "inputs": [
        {
          "internalType": "uint256",
          "name": "tokenId",
          "type": "uint256"
        },
        {
          "internalType": "string",
          "name": "label",
          "type": "string"
        }
      ],
      "name": "childIdOf",
      "outputs": [
        {
          "internalType": "uint256",
          "name": "",
          "type": "uint256"
        }
      ],
      "stateMutability": "view",
      "type": "function"
    },
    {
      "inputs": [
        {
          "internalType": "uint256",
          "name": "tokenId",
          "type": "uint256"
        }
      ],
      "name": "exists",
      "outputs": [
        {
          "internalType": "bool",
          "name": "",
          "type": "bool"
        }
      ],
      "stateMutability": "view",
      "type": "function"
    },
    {
      "inputs": [
        {
          "internalType": "string",
          "name": "key",
          "type": "string"
        },
        {
          "internalType": "uint256",
          "name": "tokenId",
          "type": "uint256"
        }
      ],
      "name": "get",
      "outputs": [
        {
          "internalType": "string",
          "name": "value",
          "type": "string"
        }
      ],
      "stateMutability": "view",
      "type": "function"
    },
    {
      "inputs": [
        {
          "internalType": "uint256",
          "name": "tokenId",
          "type": "uint256"
        }
      ],
      "name": "getApproved",
      "outputs": [
        {
          "internalType": "address",
          "name": "",
          "type": "address"
        }
      ],
      "stateMutability": "view",
      "type": "function"
    },
    {
      "inputs": [
        {
          "internalType": "uint256",
          "name": "keyHash",
          "type": "uint256"
        },
        {
          "internalType": "uint256",
          "name": "tokenId",
          "type": "uint256"
        }
      ],
      "name": "getByHash",
      "outputs": [
        {
          "internalType": "string",
          "name": "key",
          "type": "string"
        },
        {
          "internalType": "string",
          "name": "value",
          "type": "string"
        }
      ],
      "stateMutability": "view",
      "type": "function"
    },
    {
      "inputs": [
        {
          "internalType": "string[]",
          "name": "keys",
          "type": "string[]"
        },
        {
          "internalType": "uint256",
          "name": "tokenId",
          "type": "uint256"
        }
      ],
      "name": "getData",
      "outputs": [
        {
          "internalType": "address",
          "name": "resolver",
          "type": "address"
        },
        {
          "internalType": "address",
          "name": "owner",
          "type": "address"
        },
        {
          "internalType": "string[]",
          "name": "values",
          "type": "string[]"
        }
      ],
      "stateMutability": "view",
      "type": "function"
    },
    {
      "inputs": [
        {
          "internalType": "uint256[]",
          "name": "keyHashes",
          "type": "uint256[]"
        },
        {
          "internalType": "uint256",
          "name": "tokenId",
          "type": "uint256"
        }
      ],
      "name": "getDataByHash",
      "outputs": [
        {
          "internalType": "address",
          "name": "resolver",
          "type": "address"
        },
        {
          "internalType": "address",
          "name": "owner",
          "type": "address"
        },
        {
          "internalType": "string[]",
          "name": "keys",
          "type": "string[]"
        },
        {
          "internalType": "string[]",
          "name": "values",
          "type": "string[]"
        }
      ],
      "stateMutability": "view",
      "type": "function"
    },
    {
      "inputs": [
        {
          "internalType": "uint256[]",
          "name": "keyHashes",
          "type": "uint256[]"
        },
        {
          "internalType": "uint256[]",
          "name": "tokenIds",
          "type": "uint256[]"
        }
      ],
      "name": "getDataByHashForMany",
      "outputs": [
        {
          "internalType": "address[]",
          "name": "resolvers",
          "type": "address[]"
        },
        {
          "internalType": "address[]",
          "name": "owners",
          "type": "address[]"
        },
        {
          "internalType": "string[][]",
          "name": "keys",
          "type": "string[][]"
        },
        {
          "internalType": "string[][]",
          "name": "values",
          "type": "string[][]"
        }
      ],
      "stateMutability": "view",
      "type": "function"
    },
    {
      "inputs": [
        {
          "internalType": "string[]",
          "name": "keys",
          "type": "string[]"
        },
        {
          "internalType": "uint256[]",
          "name": "tokenIds",
          "type": "uint256[]"
        }
      ],
      "name": "getDataForMany",
      "outputs": [
        {
          "internalType": "address[]",
          "name": "resolvers",
          "type": "address[]"
        },
        {
          "internalType": "address[]",
          "name": "owners",
          "type": "address[]"
        },
        {
          "internalType": "string[][]",
          "name": "values",
          "type": "string[][]"
        }
      ],
      "stateMutability": "view",
      "type": "function"
    },
    {
      "inputs": [
        {
          "internalType": "string[]",
          "name": "keys",
          "type": "string[]"
        },
        {
          "internalType": "uint256",
          "name": "tokenId",
          "type": "uint256"
        }
      ],
      "name": "getMany",
      "outputs": [
        {
          "internalType": "string[]",
          "name": "values",
          "type": "string[]"
        }
      ],
      "stateMutability": "view",
      "type": "function"
    },
    {
      "inputs": [
        {
          "internalType": "uint256[]",
          "name": "keyHashes",
          "type": "uint256[]"
        },
        {
          "internalType": "uint256",
          "name": "tokenId",
          "type": "uint256"
        }
      ],
      "name": "getManyByHash",
      "outputs": [
        {
          "internalType": "string[]",
          "name": "keys",
          "type": "string[]"
        },
        {
          "internalType": "string[]",
          "name": "values",
          "type": "string[]"
        }
      ],
      "stateMutability": "view",
      "type": "function"
    },
    {
      "inputs": [
        {
          "internalType": "address",
          "name": "",
          "type": "address"
        },
        {
          "internalType": "address",
          "name": "",
          "type": "address"
        }
      ],
      "name": "isApprovedForAll",
      "outputs": [
        {
          "internalType": "bool",
          "name": "",
          "type": "bool"
        }
      ],
      "stateMutability": "pure",
      "type": "function"
    },
    {
      "inputs": [
        {
          "internalType": "address",
          "name": "spender",
          "type": "address"
        },
        {
          "internalType": "uint256",
          "name": "tokenId",
          "type": "uint256"
        }
      ],
      "name": "isApprovedOrOwner",
      "outputs": [
        {
          "internalType": "bool",
          "name": "",
          "type": "bool"
        }
      ],
      "stateMutability": "view",
      "type": "function"
    },
    {
      "inputs": [
        {
          "internalType": "uint256",
          "name": "tokenId",
          "type": "uint256"
        }
      ],
      "name": "ownerOf",
      "outputs": [
        {
          "internalType": "address",
          "name": "",
          "type": "address"
        }
      ],
      "stateMutability": "view",
      "type": "function"
    },
    {
      "inputs": [
        {
          "internalType": "uint256[]",
          "name": "tokenIds",
          "type": "uint256[]"
        }
      ],
      "name": "ownerOfForMany",
      "outputs": [
        {
          "internalType": "address[]",
          "name": "owners",
          "type": "address[]"
        }
      ],
      "stateMutability": "view",
      "type": "function"
    },
    {
      "inputs": [
        {
          "internalType": "uint256",
          "name": "tokenId",
          "type": "uint256"
        }
      ],
      "name": "registryOf",
      "outputs": [
        {
          "internalType": "address",
          "name": "",
          "type": "address"
        }
      ],
      "stateMutability": "view",
      "type": "function"
    },
    {
      "inputs": [
        {
          "internalType": "uint256",
          "name": "tokenId",
          "type": "uint256"
        }
      ],
      "name": "resolverOf",
      "outputs": [
        {
          "internalType": "address",
          "name": "",
          "type": "address"
        }
      ],
      "stateMutability": "view",
      "type": "function"
    },
    {
      "inputs": [
        {
          "internalType": "bytes4",
          "name": "interfaceId",
          "type": "bytes4"
        }
      ],
      "name": "supportsInterface",
      "outputs": [
        {
          "internalType": "bool",
          "name": "",
          "type": "bool"
        }
      ],
      "stateMutability": "view",
      "type": "function"
    },
    {
      "inputs": [
        {
          "internalType": "uint256",
          "name": "tokenId",
          "type": "uint256"
        }
      ],
      "name": "tokenURI",
      "outputs": [
        {
          "internalType": "string",
          "name": "",
          "type": "string"
        }
      ],
      "stateMutability": "view",
      "type": "function"
    }
  ],
  "bytecode": "0x60c06040523480156200001157600080fd5b5060405162002d1a38038062002d1a833981016040819052620000349162000053565b6001600160601b0319606092831b8116608052911b1660a052620000aa565b6000806040838503121562000066578182fd5b8251620000738162000091565b6020840151909250620000868162000091565b809150509250929050565b6001600160a01b0381168114620000a757600080fd5b50565b60805160601c60a05160601c612b806200019a60003960008181610430015281816108a001528181610d5201528181610d960152818161139e015281816113ee01528181611440015281816117f901528181611c6d01528181611d020152611dac0152600081816104d1015281816105d90152818161074d0152818161094301528181610a0b01528181610ac301528181610c1e01528181610cb4015281816112eb015281816113780152818161148c015281816115a10152818161189901528181611a6201528181611b0c01528181611cb301528181611e8801528181611f3201526120a10152612b806000f3fe608060405234801561001057600080fd5b50600436106101425760003560e01c8063869b8884116100b8578063b3f9e4cb1161007c578063b3f9e4cb14610302578063b85afd2814610315578063c15ae7cf14610336578063c87b56dd14610356578063e985e9c514610369578063ffa1ad741461037c57610142565b8063869b88841461028057806391015f6b146102a3578063933c051d146102c5578063a3f4df7e146102e7578063a81ce6f9146102ef57610142565b8063430c20811161010a578063430c2081146101f35780634f558e79146102065780636352211e14610219578063672b9f811461022c57806368b62d321461024d57806370a082311461026d57610142565b806301ffc9a7146101475780630328075514610170578063081812fc146101935780631bd8cc1a146101b35780631be5e7ed146101d3575b600080fd5b61015a610155366004612499565b610384565b60405161016791906129ab565b60405180910390f35b61018361017e366004612334565b6103e7565b6040516101679493929190612793565b6101a66101a136600461257e565b61040a565b604051610167919061274a565b6101c66101c1366004612334565b610556565b6040516101679190612932565b6101e66101e13660046124c1565b610726565b60405161016791906129da565b61015a6102013660046122a1565b61087a565b61015a61021436600461257e565b6109ca565b6101a661022736600461257e565b610a90565b61023f61023a3660046125f7565b610a9b565b6040516101679291906129ed565b61026061025b3660046125ae565b610c04565b6040516101679190612a49565b61026061027b366004612231565b610caf565b61029361028e36600461244e565b610e25565b604051610167949392919061284b565b6102b66102b1366004612334565b611099565b6040516101679392919061275e565b6102d86102d33660046122cc565b6110b9565b60405161016793929190612808565b6101e66112a4565b6101a66102fd36600461257e565b6112d1565b6101a661031036600461257e565b61141a565b610328610323366004612334565b6114c1565b604051610167929190612945565b61034961034436600461240f565b6116f4565b60405161016791906127f5565b6101e661036436600461257e565b6117d3565b61015a610377366004612269565b611922565b6101e6611945565b60006001600160e01b0319821663768134e560e11b14806103b557506001600160e01b03198216636fa624af60e11b145b806103d057506001600160e01b031982166308da864d60e31b145b806103df57506103df82611966565b90505b919050565b6000806060806103f887878761197f565b93509350935093505b93509350935093565b600061041582611c69565b6104ba5760405163020604bf60e21b81526001600160a01b037f0000000000000000000000000000000000000000000000000000000000000000169063081812fc90610465908590600401612a49565b60206040518083038186803b15801561047d57600080fd5b505afa158015610491573d6000803e3d6000fd5b505050506040513d601f19601f820116820180604052508101906104b5919061224d565b6103df565b60405163020604bf60e21b81526001600160a01b037f0000000000000000000000000000000000000000000000000000000000000000169063081812fc90610506908590600401612a49565b60206040518083038186803b15801561051e57600080fd5b505afa158015610532573d6000803e3d6000fd5b505050506040513d601f19601f820116820180604052508101906103df919061224d565b6060826001600160401b0381111561057e57634e487b7160e01b600052604160045260246000fd5b6040519080825280602002602001820160405280156105b157816020015b606081526020019060019003908161059c5790505b5090506105bd82611c69565b1561066d57604051630dec660d60e11b81526001600160a01b037f00000000000000000000000000000000000000000000000000000000000000001690631bd8cc1a9061061290879087908790600401612898565b60006040518083038186803b15801561062a57600080fd5b505afa15801561063e573d6000803e3d6000fd5b505050506040513d6000823e601f3d908101601f19168201604052610666919081019061237d565b905061071f565b600061067883611ce8565b90506001600160a01b0381161580159061069157508315155b1561071d57604051630dec660d60e11b81526001600160a01b03821690631bd8cc1a906106c690889088908890600401612898565b60006040518083038186803b1580156106de57600080fd5b505afa1580156106f2573d6000803e3d6000fd5b505050506040513d6000823e601f3d908101601f1916820160405261071a919081019061237d565b91505b505b9392505050565b606061073182611c69565b156107da57604051631be5e7ed60e01b81526001600160a01b037f00000000000000000000000000000000000000000000000000000000000000001690631be5e7ed90610786908790879087906004016129b6565b60006040518083038186803b15801561079e57600080fd5b505afa1580156107b2573d6000803e3d6000fd5b505050506040513d6000823e601f3d908101601f1916820160405261066691908101906124f6565b60006107e583611ce8565b90506001600160a01b0381161561071d57604051631be5e7ed60e01b81526001600160a01b03821690631be5e7ed90610826908890889088906004016129b6565b60006040518083038186803b15801561083e57600080fd5b505afa158015610852573d6000803e3d6000fd5b505050506040513d6000823e601f3d908101601f1916820160405261071a91908101906124f6565b600061088582611c69565b61092c5760405163430c208160e01b81526001600160a01b037f0000000000000000000000000000000000000000000000000000000000000000169063430c2081906108d790869086906004016127dc565b60206040518083038186803b1580156108ef57600080fd5b505afa158015610903573d6000803e3d6000fd5b505050506040513d601f19601f820116820180604052508101906109279190612479565b61071f565b60405163430c208160e01b81526001600160a01b037f0000000000000000000000000000000000000000000000000000000000000000169063430c20819061097a90869086906004016127dc565b60206040518083038186803b15801561099257600080fd5b505afa1580156109a6573d6000803e3d6000fd5b505050506040513d601f19601f8201168201806040525081019061071f9190612479565b60006109d582611c69565b6109f45760006109e483611d92565b6001600160a01b031614156103df565b604051634f558e7960e01b81526001600160a01b037f00000000000000000000000000000000000000000000000000000000000000001690634f558e7990610a40908590600401612a49565b60206040518083038186803b158015610a5857600080fd5b505afa158015610a6c573d6000803e3d6000fd5b505050506040513d601f19601f820116820180604052508101906103df9190612479565b60006103df82611de1565b606080610aa783611c69565b15610b575760405163672b9f8160e01b81526001600160a01b037f0000000000000000000000000000000000000000000000000000000000000000169063672b9f8190610afa9087908790600401612a6c565b60006040518083038186803b158015610b1257600080fd5b505afa158015610b26573d6000803e3d6000fd5b505050506040513d6000823e601f3d908101601f19168201604052610b4e9190810190612528565b91509150610bfd565b6000610b6284611ce8565b90506001600160a01b03811615610bfb5760405163672b9f8160e01b81526001600160a01b0382169063672b9f8190610ba19088908890600401612a6c565b60006040518083038186803b158015610bb957600080fd5b505afa158015610bcd573d6000803e3d6000fd5b505050506040513d6000823e601f3d908101601f19168201604052610bf59190810190612528565b90935091505b505b9250929050565b60405163345b169960e11b81526000906001600160a01b037f000000000000000000000000000000000000000000000000000000000000000016906368b62d3290610c5790879087908790600401612a52565b60206040518083038186803b158015610c6f57600080fd5b505afa158015610c83573d6000803e3d6000fd5b505050506040513d601f19601f82011682018060405250810190610ca79190612596565b949350505050565b6000807f00000000000000000000000000000000000000000000000000000000000000006001600160a01b03166370a08231846040518263ffffffff1660e01b8152600401610cfe919061274a565b60206040518083038186803b158015610d1657600080fd5b505afa158015610d2a573d6000803e3d6000fd5b505050506040513d601f19601f82011682018060405250810190610d4e9190612596565b90507f00000000000000000000000000000000000000000000000000000000000000006001600160a01b0316156103df576040516370a0823160e01b81526001600160a01b037f000000000000000000000000000000000000000000000000000000000000000016906370a0823190610dcb90869060040161274a565b60206040518083038186803b158015610de357600080fd5b505afa158015610df7573d6000803e3d6000fd5b505050506040513d601f19601f82011682018060405250810190610e1b9190612596565b61071f9082612aa3565b6060808080846001600160401b03811115610e5057634e487b7160e01b600052604160045260246000fd5b604051908082528060200260200182016040528015610e79578160200160208202803683370190505b509350846001600160401b03811115610ea257634e487b7160e01b600052604160045260246000fd5b604051908082528060200260200182016040528015610ecb578160200160208202803683370190505b509250846001600160401b03811115610ef457634e487b7160e01b600052604160045260246000fd5b604051908082528060200260200182016040528015610f2757816020015b6060815260200190600190039081610f125790505b509150846001600160401b03811115610f5057634e487b7160e01b600052604160045260246000fd5b604051908082528060200260200182016040528015610f8357816020015b6060815260200190600190039081610f6e5790505b50905060005b8581101561108d57610fc28989898985818110610fb657634e487b7160e01b600052603260045260246000fd5b9050602002013561197f565b888581518110610fe257634e487b7160e01b600052603260045260246000fd5b6020026020010188868151811061100957634e487b7160e01b600052603260045260246000fd5b6020026020010188878151811061103057634e487b7160e01b600052603260045260246000fd5b6020026020010188888151811061105757634e487b7160e01b600052603260045260246000fd5b6020908102919091010193909352929091526001600160a01b03928316909152911690528061108581612aeb565b915050610f89565b50945094509450949050565b60008060606110a9868686611e02565b9250925092505b93509350939050565b60608080836001600160401b038111156110e357634e487b7160e01b600052604160045260246000fd5b60405190808252806020026020018201604052801561110c578160200160208202803683370190505b509250836001600160401b0381111561113557634e487b7160e01b600052604160045260246000fd5b60405190808252806020026020018201604052801561115e578160200160208202803683370190505b509150836001600160401b0381111561118757634e487b7160e01b600052604160045260246000fd5b6040519080825280602002602001820160405280156111ba57816020015b60608152602001906001900390816111a55790505b50905060005b84811015611299576111f988888888858181106111ed57634e487b7160e01b600052603260045260246000fd5b90506020020135611e02565b86848151811061121957634e487b7160e01b600052603260045260246000fd5b6020026020010186858151811061124057634e487b7160e01b600052603260045260246000fd5b6020026020010186868151811061126757634e487b7160e01b600052603260045260246000fd5b60209081029190910101929092526001600160a01b03928316909152911690528061129181612aeb565b9150506111c0565b509450945094915050565b604051806040016040528060118152602001702aa7299d10283937bc3c902932b0b232b960791b81525081565b604051634f558e7960e01b81526000906001600160a01b037f00000000000000000000000000000000000000000000000000000000000000001690634f558e7990611320908590600401612a49565b60206040518083038186803b15801561133857600080fd5b505afa15801561134c573d6000803e3d6000fd5b505050506040513d601f19601f820116820180604052508101906113709190612479565b1561139c57507f00000000000000000000000000000000000000000000000000000000000000006103e2565b7f00000000000000000000000000000000000000000000000000000000000000006001600160a01b0316158015906113e6575060006113da83611d92565b6001600160a01b031614155b1561141257507f00000000000000000000000000000000000000000000000000000000000000006103e2565b506000919050565b600061142582611c69565b6114755760405163b3f9e4cb60e01b81526001600160a01b037f0000000000000000000000000000000000000000000000000000000000000000169063b3f9e4cb90610465908590600401612a49565b60405163b3f9e4cb60e01b81526001600160a01b037f0000000000000000000000000000000000000000000000000000000000000000169063b3f9e4cb90610506908590600401612a49565b606080836001600160401b038111156114ea57634e487b7160e01b600052604160045260246000fd5b60405190808252806020026020018201604052801561151d57816020015b60608152602001906001900390816115085790505b509150836001600160401b0381111561154657634e487b7160e01b600052604160045260246000fd5b60405190808252806020026020018201604052801561157957816020015b60608152602001906001900390816115645790505b50905061158583611c69565b156116375760405163170b5fa560e31b81526001600160a01b037f0000000000000000000000000000000000000000000000000000000000000000169063b85afd28906115da9088908890889060040161296a565b60006040518083038186803b1580156115f257600080fd5b505afa158015611606573d6000803e3d6000fd5b505050506040513d6000823e601f3d908101601f1916820160405261162e91908101906123af565b915091506116ec565b600061164284611ce8565b90506001600160a01b0381161580159061165b57508415155b156116ea5760405163170b5fa560e31b81526001600160a01b0382169063b85afd28906116909089908990899060040161296a565b60006040518083038186803b1580156116a857600080fd5b505afa1580156116bc573d6000803e3d6000fd5b505050506040513d6000823e601f3d908101601f191682016040526116e491908101906123af565b90935091505b505b935093915050565b6060816001600160401b0381111561171c57634e487b7160e01b600052604160045260246000fd5b604051908082528060200260200182016040528015611745578160200160208202803683370190505b50905060005b828110156117cc5761178284848381811061177657634e487b7160e01b600052603260045260246000fd5b90506020020135611de1565b8282815181106117a257634e487b7160e01b600052603260045260246000fd5b6001600160a01b0390921660209283029190910190910152806117c481612aeb565b91505061174b565b5092915050565b60606117de82611c69565b6118825760405163c87b56dd60e01b81526001600160a01b037f0000000000000000000000000000000000000000000000000000000000000000169063c87b56dd9061182e908590600401612a49565b60006040518083038186803b15801561184657600080fd5b505afa15801561185a573d6000803e3d6000fd5b505050506040513d6000823e601f3d908101601f191682016040526104b591908101906124f6565b60405163c87b56dd60e01b81526001600160a01b037f0000000000000000000000000000000000000000000000000000000000000000169063c87b56dd906118ce908590600401612a49565b60006040518083038186803b1580156118e657600080fd5b505afa1580156118fa573d6000803e3d6000fd5b505050506040513d6000823e601f3d908101601f191682016040526103df91908101906124f6565b600060405162461bcd60e51b815260040161193c90612a12565b60405180910390fd5b60405180604001604052806005815260200164302e312e3160d81b81525081565b6001600160e01b031981166301ffc9a760e01b14919050565b600080606080856001600160401b038111156119ab57634e487b7160e01b600052604160045260246000fd5b6040519080825280602002602001820160405280156119de57816020015b60608152602001906001900390816119c95790505b509150856001600160401b03811115611a0757634e487b7160e01b600052604160045260246000fd5b604051908082528060200260200182016040528015611a3a57816020015b6060815260200190600190039081611a255790505b509050611a4685611c69565b15611ba35760405163b3f9e4cb60e01b81526001600160a01b037f0000000000000000000000000000000000000000000000000000000000000000169063b3f9e4cb90611a97908890600401612a49565b60206040518083038186803b158015611aaf57600080fd5b505afa158015611ac3573d6000803e3d6000fd5b505050506040513d601f19601f82011682018060405250810190611ae7919061224d565b9350611af285612087565b60405163170b5fa560e31b81529093506001600160a01b037f0000000000000000000000000000000000000000000000000000000000000000169063b85afd2890611b45908a908a908a9060040161296a565b60006040518083038186803b158015611b5d57600080fd5b505afa158015611b71573d6000803e3d6000fd5b505050506040513d6000823e601f3d908101601f19168201604052611b9991908101906123af565b9092509050610401565b611bac85611ce8565b9350611bb785611d92565b92506001600160a01b03841615801590611bd2575060008251115b156104015760405163170b5fa560e31b81526001600160a01b0385169063b85afd2890611c07908a908a908a9060040161296a565b60006040518083038186803b158015611c1f57600080fd5b505afa158015611c33573d6000803e3d6000fd5b505050506040513d6000823e601f3d908101601f19168201604052611c5b91908101906123af565b909250905093509350935093565b60007f00000000000000000000000000000000000000000000000000000000000000006001600160a01b031615806103df5750604051634f558e7960e01b81526001600160a01b037f00000000000000000000000000000000000000000000000000000000000000001690634f558e7990610a40908590600401612a49565b60405163b3f9e4cb60e01b81526000906001600160a01b037f0000000000000000000000000000000000000000000000000000000000000000169063b3f9e4cb90611d37908590600401612a49565b60206040518083038186803b158015611d4f57600080fd5b505afa925050508015611d7f575060408051601f3d908101601f19168201909252611d7c9181019061224d565b60015b611d8b575060006103e2565b90506103e2565b6040516331a9108f60e11b81526000906001600160a01b037f00000000000000000000000000000000000000000000000000000000000000001690636352211e90611d37908590600401612a49565b6000611dec82611c69565b611df9576104b582611d92565b6103df82612087565b6000806060846001600160401b03811115611e2d57634e487b7160e01b600052604160045260246000fd5b604051908082528060200260200182016040528015611e6057816020015b6060815260200190600190039081611e4b5790505b509050611e6c84611c69565b15611fc65760405163b3f9e4cb60e01b81526001600160a01b037f0000000000000000000000000000000000000000000000000000000000000000169063b3f9e4cb90611ebd908790600401612a49565b60206040518083038186803b158015611ed557600080fd5b505afa158015611ee9573d6000803e3d6000fd5b505050506040513d601f19601f82011682018060405250810190611f0d919061224d565b9250611f1884612087565b604051630dec660d60e11b81529092506001600160a01b037f00000000000000000000000000000000000000000000000000000000000000001690631bd8cc1a90611f6b90899089908990600401612898565b60006040518083038186803b158015611f8357600080fd5b505afa158015611f97573d6000803e3d6000fd5b505050506040513d6000823e601f3d908101601f19168201604052611fbf919081019061237d565b90506110b0565b611fcf84611ce8565b9250611fda84611d92565b91506001600160a01b03831615801590611ff357508415155b156110b057604051630dec660d60e11b81526001600160a01b03841690631bd8cc1a9061202890899089908990600401612898565b60006040518083038186803b15801561204057600080fd5b505afa158015612054573d6000803e3d6000fd5b505050506040513d6000823e601f3d908101601f1916820160405261207c919081019061237d565b905093509350939050565b6040516331a9108f60e11b81526000906001600160a01b037f00000000000000000000000000000000000000000000000000000000000000001690636352211e90611d37908590600401612a49565b60008083601f8401126120e7578182fd5b5081356001600160401b038111156120fd578182fd5b6020830191508360208083028501011115610bfd57600080fd5b600082601f830112612127578081fd5b815160206001600160401b0382111561214257612142612b1c565b61214f8182840201612a7a565b82815281810190858301855b8581101561218457612172898684518b01016121d0565b8452928401929084019060010161215b565b5090979650505050505050565b60008083601f8401126121a2578182fd5b5081356001600160401b038111156121b8578182fd5b602083019150836020828501011115610bfd57600080fd5b600082601f8301126121e0578081fd5b81516001600160401b038111156121f9576121f9612b1c565b61220c601f8201601f1916602001612a7a565b818152846020838601011115612220578283fd5b610ca7826020830160208701612abb565b600060208284031215612242578081fd5b813561071f81612b32565b60006020828403121561225e578081fd5b815161071f81612b32565b6000806040838503121561227b578081fd5b823561228681612b32565b9150602083013561229681612b32565b809150509250929050565b600080604083850312156122b3578182fd5b82356122be81612b32565b946020939093013593505050565b600080600080604085870312156122e1578182fd5b84356001600160401b03808211156122f7578384fd5b612303888389016120d6565b9096509450602087013591508082111561231b578384fd5b50612328878288016120d6565b95989497509550505050565b600080600060408486031215612348578283fd5b83356001600160401b0381111561235d578384fd5b612369868287016120d6565b909790965060209590950135949350505050565b60006020828403121561238e578081fd5b81516001600160401b038111156123a3578182fd5b610ca784828501612117565b600080604083850312156123c1578182fd5b82516001600160401b03808211156123d7578384fd5b6123e386838701612117565b935060208501519150808211156123f8578283fd5b5061240585828601612117565b9150509250929050565b60008060208385031215612421578182fd5b82356001600160401b03811115612436578283fd5b612442858286016120d6565b90969095509350505050565b60008060008060408587031215612463578384fd5b84356001600160401b03808211156122f7578586fd5b60006020828403121561248a578081fd5b8151801515811461071f578182fd5b6000602082840312156124aa578081fd5b81356001600160e01b03198116811461071f578182fd5b6000806000604084860312156124d5578081fd5b83356001600160401b038111156124ea578182fd5b61236986828701612191565b600060208284031215612507578081fd5b81516001600160401b0381111561251c578182fd5b610ca7848285016121d0565b6000806040838503121561253a578182fd5b82516001600160401b0380821115612550578384fd5b61255c868387016121d0565b93506020850151915080821115612571578283fd5b50612405858286016121d0565b60006020828403121561258f578081fd5b5035919050565b6000602082840312156125a7578081fd5b5051919050565b6000806000604084860312156125c2578081fd5b8335925060208401356001600160401b038111156125de578182fd5b6125ea86828701612191565b9497909650939450505050565b60008060408385031215612609578182fd5b50508035926020909101359150565b6000815180845260208085019450808401835b838110156126505781516001600160a01b03168752958201959082019060010161262b565b509495945050505050565b6000815180845260208085018081965082840281019150828601855b858110156126a157828403895261268f8483516126ae565b98850198935090840190600101612677565b5091979650505050505050565b6000815180845260208085018081965082840281019150828601855b858110156126a15782840389526126e284835161271e565b988501989350908401906001016126ca565b60008284528282602086013780602084860101526020601f19601f85011685010190509392505050565b60008151808452612736816020860160208601612abb565b601f01601f19169290920160200192915050565b6001600160a01b0391909116815260200190565b6001600160a01b0384811682528316602082015260606040820181905260009061278a908301846126ae565b95945050505050565b6001600160a01b038581168252841660208201526080604082018190526000906127bf908301856126ae565b82810360608401526127d181856126ae565b979650505050505050565b6001600160a01b03929092168252602082015260400190565b60006020825261071f6020830184612618565b60006060825261281b6060830186612618565b828103602084015261282d8186612618565b90508281036040840152612841818561265b565b9695505050505050565b60006080825261285e6080830187612618565b82810360208401526128708187612618565b90508281036040840152612884818661265b565b905082810360608401526127d1818561265b565b604080825281018390526000602060608084019082870285010187845b8881101561292057868303605f190184528135368b9003601e190181126128da578687fd5b8a0180356001600160401b038111156128f1578788fd5b8036038c13156128ff578788fd5b61290c85828985016126f4565b9587019594505050908401906001016128b5565b50509390910193909352509392505050565b60006020825261071f60208301846126ae565b60006040825261295860408301856126ae565b828103602084015261071a81856126ae565b6040808252810183905260006001600160fb1b03841115612989578081fd5b6020840280866060850137820160600190815260209091019190915292915050565b901515815260200190565b6000604082526129ca6040830185876126f4565b9050826020830152949350505050565b60006020825261071f602083018461271e565b600060408252612a00604083018561271e565b828103602084015261071a818561271e565b6020808252601f908201527f50726f78795265616465723a20554e535550504f525445445f4d4554484f4400604082015260600190565b90815260200190565b60008482526040602083015261278a6040830184866126f4565b918252602082015260400190565b6040518181016001600160401b0381118282101715612a9b57612a9b612b1c565b604052919050565b60008219821115612ab657612ab6612b06565b500190565b60005b83811015612ad6578181015183820152602001612abe565b83811115612ae5576000848401525b50505050565b6000600019821415612aff57612aff612b06565b5060010190565b634e487b7160e01b600052601160045260246000fd5b634e487b7160e01b600052604160045260246000fd5b6001600160a01b0381168114612b4757600080fd5b5056fea2646970667358221220c48d30fc31b4e90924d931213b627e1bcd00090d7e8e421a09f98cc07bdcb64664736f6c63430008000033",
  "linkReferences": {},
  "deployedLinkReferences": {}
}