{
  "_format": "hh-sol-artifact-1",
  "contractName": "ProxyReaderV04",
  "sourceName": "contracts/history/ProxyReaderV04.sol",
  "abi": [
    {
      "anonymous": false,
      "inputs": [
        {
          "indexed": false,
          "internalType": "uint8",
          "name": "version",
          "type": "uint8"
        }
      ],
      "name": "Initialized",
      "type": "event"
    },
    {
      "inputs": [],
      "name": "NAME",
      "outputs": [
        {
          "internalType": "string",
          "name": "",
          "type": "string"
        }
      ],
      "stateMutability": "view",
      "type": "function"
    },
    {
      "inputs": [],
      "name": "VERSION",
      "outputs": [
        {
          "internalType": "string",
          "name": "",
          "type": "string"
        }
      ],
      "stateMutability": "view",
      "type": "function"
    },
    {
      "inputs": [
        {
          "internalType": "address",
          "name": "owner",
          "type": "address"
        }
      ],
      "name": "balanceOf",
      "outputs": [
        {
          "internalType": "uint256",
          "name": "",
          "type": "uint256"
        }
      ],
      "stateMutability": "view",
      "type": "function"
    },
    {
      "inputs": [
        {
          "internalType": "uint256",
          "name": "tokenId",
          "type": "uint256"
        }
      ],
      "name": "exists",
      "outputs": [
        {
          "internalType": "bool",
          "name": "",
          "type": "bool"
        }
      ],
      "stateMutability": "view",
      "type": "function"
    },
    {
      "inputs": [
        {
          "internalType": "string",
          "name": "key",
          "type": "string"
        },
        {
          "internalType": "uint256",
          "name": "tokenId",
          "type": "uint256"
        }
      ],
      "name": "get",
      "outputs": [
        {
          "internalType": "string",
          "name": "value",
          "type": "string"
        }
      ],
      "stateMutability": "view",
      "type": "function"
    },
    {
      "inputs": [
        {
          "internalType": "uint256",
          "name": "tokenId",
          "type": "uint256"
        }
      ],
      "name": "getApproved",
      "outputs": [
        {
          "internalType": "address",
          "name": "",
          "type": "address"
        }
      ],
      "stateMutability": "view",
      "type": "function"
    },
    {
      "inputs": [
        {
          "internalType": "uint256",
          "name": "keyHash",
          "type": "uint256"
        },
        {
          "internalType": "uint256",
          "name": "tokenId",
          "type": "uint256"
        }
      ],
      "name": "getByHash",
      "outputs": [
        {
          "internalType": "string",
          "name": "key",
          "type": "string"
        },
        {
          "internalType": "string",
          "name": "value",
          "type": "string"
        }
      ],
      "stateMutability": "view",
      "type": "function"
    },
    {
      "inputs": [
        {
          "internalType": "string[]",
          "name": "keys",
          "type": "string[]"
        },
        {
          "internalType": "uint256",
          "name": "tokenId",
          "type": "uint256"
        }
      ],
      "name": "getData",
      "outputs": [
        {
          "internalType": "address",
          "name": "resolver",
          "type": "address"
        },
        {
          "internalType": "address",
          "name": "owner",
          "type": "address"
        },
        {
          "internalType": "string[]",
          "name": "values",
          "type": "string[]"
        }
      ],
      "stateMutability": "view",
      "type": "function"
    },
    {
      "inputs": [
        {
          "internalType": "uint256[]",
          "name": "keyHashes",
          "type": "uint256[]"
        },
        {
          "internalType": "uint256",
          "name": "tokenId",
          "type": "uint256"
        }
      ],
      "name": "getDataByHash",
      "outputs": [
        {
          "internalType": "address",
          "name": "resolver",
          "type": "address"
        },
        {
          "internalType": "address",
          "name": "owner",
          "type": "address"
        },
        {
          "internalType": "string[]",
          "name": "keys",
          "type": "string[]"
        },
        {
          "internalType": "string[]",
          "name": "values",
          "type": "string[]"
        }
      ],
      "stateMutability": "view",
      "type": "function"
    },
    {
      "inputs": [
        {
          "internalType": "uint256[]",
          "name": "keyHashes",
          "type": "uint256[]"
        },
        {
          "internalType": "uint256[]",
          "name": "tokenIds",
          "type": "uint256[]"
        }
      ],
      "name": "getDataByHashForMany",
      "outputs": [
        {
          "internalType": "address[]",
          "name": "resolvers",
          "type": "address[]"
        },
        {
          "internalType": "address[]",
          "name": "owners",
          "type": "address[]"
        },
        {
          "internalType": "string[][]",
          "name": "keys",
          "type": "string[][]"
        },
        {
          "internalType": "string[][]",
          "name": "values",
          "type": "string[][]"
        }
      ],
      "stateMutability": "view",
      "type": "function"
    },
    {
      "inputs": [
        {
          "internalType": "string[]",
          "name": "keys",
          "type": "string[]"
        },
        {
          "internalType": "uint256[]",
          "name": "tokenIds",
          "type": "uint256[]"
        }
      ],
      "name": "getDataForMany",
      "outputs": [
        {
          "internalType": "address[]",
          "name": "resolvers",
          "type": "address[]"
        },
        {
          "internalType": "address[]",
          "name": "owners",
          "type": "address[]"
        },
        {
          "internalType": "string[][]",
          "name": "values",
          "type": "string[][]"
        }
      ],
      "stateMutability": "view",
      "type": "function"
    },
    {
      "inputs": [
        {
          "internalType": "string[]",
          "name": "keys",
          "type": "string[]"
        },
        {
          "internalType": "uint256",
          "name": "tokenId",
          "type": "uint256"
        }
      ],
      "name": "getMany",
      "outputs": [
        {
          "internalType": "string[]",
          "name": "values",
          "type": "string[]"
        }
      ],
      "stateMutability": "view",
      "type": "function"
    },
    {
      "inputs": [
        {
          "internalType": "uint256[]",
          "name": "keyHashes",
          "type": "uint256[]"
        },
        {
          "internalType": "uint256",
          "name": "tokenId",
          "type": "uint256"
        }
      ],
      "name": "getManyByHash",
      "outputs": [
        {
          "internalType": "string[]",
          "name": "keys",
          "type": "string[]"
        },
        {
          "internalType": "string[]",
          "name": "values",
          "type": "string[]"
        }
      ],
      "stateMutability": "view",
      "type": "function"
    },
    {
      "inputs": [
        {
          "internalType": "contract IUNSRegistry",
          "name": "unsRegistry",
          "type": "address"
        },
        {
          "internalType": "contract ICNSRegistry",
          "name": "cnsRegistry",
          "type": "address"
        }
      ],
      "name": "initialize",
      "outputs": [],
      "stateMutability": "nonpayable",
      "type": "function"
    },
    {
      "inputs": [
        {
          "internalType": "address",
          "name": "",
          "type": "address"
        },
        {
          "internalType": "address",
          "name": "",
          "type": "address"
        }
      ],
      "name": "isApprovedForAll",
      "outputs": [
        {
          "internalType": "bool",
          "name": "",
          "type": "bool"
        }
      ],
      "stateMutability": "pure",
      "type": "function"
    },
    {
      "inputs": [
        {
          "internalType": "address",
          "name": "spender",
          "type": "address"
        },
        {
          "internalType": "uint256",
          "name": "tokenId",
          "type": "uint256"
        }
      ],
      "name": "isApprovedOrOwner",
      "outputs": [
        {
          "internalType": "bool",
          "name": "",
          "type": "bool"
        }
      ],
      "stateMutability": "view",
      "type": "function"
    },
    {
      "inputs": [
        {
          "internalType": "bytes[]",
          "name": "data",
          "type": "bytes[]"
        }
      ],
      "name": "multicall",
      "outputs": [
        {
          "internalType": "bytes[]",
          "name": "results",
          "type": "bytes[]"
        }
      ],
      "stateMutability": "nonpayable",
      "type": "function"
    },
    {
      "inputs": [
        {
          "internalType": "string[]",
          "name": "labels",
          "type": "string[]"
        }
      ],
      "name": "namehash",
      "outputs": [
        {
          "internalType": "uint256",
          "name": "",
          "type": "uint256"
        }
      ],
      "stateMutability": "view",
      "type": "function"
    },
    {
      "inputs": [
        {
          "internalType": "uint256",
          "name": "tokenId",
          "type": "uint256"
        }
      ],
      "name": "ownerOf",
      "outputs": [
        {
          "internalType": "address",
          "name": "",
          "type": "address"
        }
      ],
      "stateMutability": "view",
      "type": "function"
    },
    {
      "inputs": [
        {
          "internalType": "uint256[]",
          "name": "tokenIds",
          "type": "uint256[]"
        }
      ],
      "name": "ownerOfForMany",
      "outputs": [
        {
          "internalType": "address[]",
          "name": "owners",
          "type": "address[]"
        }
      ],
      "stateMutability": "view",
      "type": "function"
    },
    {
      "inputs": [
        {
          "internalType": "uint256",
          "name": "tokenId",
          "type": "uint256"
        }
      ],
      "name": "registryOf",
      "outputs": [
        {
          "internalType": "address",
          "name": "",
          "type": "address"
        }
      ],
      "stateMutability": "view",
      "type": "function"
    },
    {
      "inputs": [
        {
          "internalType": "uint256",
          "name": "tokenId",
          "type": "uint256"
        }
      ],
      "name": "resolverOf",
      "outputs": [
        {
          "internalType": "address",
          "name": "",
          "type": "address"
        }
      ],
      "stateMutability": "view",
      "type": "function"
    },
    {
      "inputs": [
        {
          "internalType": "address",
          "name": "addr",
          "type": "address"
        }
      ],
      "name": "reverseNameOf",
      "outputs": [
        {
          "internalType": "string",
          "name": "",
          "type": "string"
        }
      ],
      "stateMutability": "view",
      "type": "function"
    },
    {
      "inputs": [
        {
          "internalType": "address",
          "name": "addr",
          "type": "address"
        }
      ],
      "name": "reverseOf",
      "outputs": [
        {
          "internalType": "uint256",
          "name": "",
          "type": "uint256"
        }
      ],
      "stateMutability": "view",
      "type": "function"
    },
    {
      "inputs": [
        {
          "internalType": "bytes4",
          "name": "interfaceId",
          "type": "bytes4"
        }
      ],
      "name": "supportsInterface",
      "outputs": [
        {
          "internalType": "bool",
          "name": "",
          "type": "bool"
        }
      ],
      "stateMutability": "view",
      "type": "function"
    },
    {
      "inputs": [
        {
          "internalType": "uint256",
          "name": "tokenId",
          "type": "uint256"
        }
      ],
      "name": "tokenURI",
      "outputs": [
        {
          "internalType": "string",
          "name": "",
          "type": "string"
        }
      ],
      "stateMutability": "view",
      "type": "function"
    }
  ],
  "bytecode": "0x608060405234801561001057600080fd5b50612c69806100206000396000f3fe608060405234801561001057600080fd5b506004361061018e5760003560e01c8063869b8884116100de578063b3f9e4cb11610097578063c15ae7cf11610071578063c15ae7cf14610410578063c87b56dd14610430578063e985e9c514610443578063ffa1ad741461045657600080fd5b8063b3f9e4cb146103c9578063b85afd28146103dc578063bebec6b4146103fd57600080fd5b8063869b8884146102ff57806391015f6b14610322578063933c051d14610344578063a3f4df7e14610366578063a81ce6f914610396578063ac9650d8146103a957600080fd5b8063430c20811161014b5780636352211e116101255780636352211e146102a5578063672b9f81146102b857806370a08231146102d95780637e37479e146102ec57600080fd5b8063430c20811461026a578063485cc9551461027d5780634f558e791461029257600080fd5b806301ffc9a71461019357806303280755146101bb578063081812fc146101de5780631bd8cc1a146102095780631be5e7ed14610229578063276fabb114610249575b600080fd5b6101a66101a136600461205d565b61047a565b60405190151581526020015b60405180910390f35b6101ce6101c93660046120cb565b6104e7565b6040516101b294939291906121c7565b6101f16101ec366004612210565b61050a565b6040516001600160a01b0390911681526020016101b2565b61021c6102173660046120cb565b61060f565b6040516101b29190612229565b61023c61023736600461223c565b61062e565b6040516101b291906122b3565b61025c6102573660046122c6565b61075d565b6040519081526020016101b2565b6101a661027836600461231f565b6107d1565b61029061028b36600461234b565b6108e4565b005b6101a66102a0366004612210565b610a34565b6101f16102b3366004612210565b610a3f565b6102cb6102c6366004612384565b610a4a565b6040516101b29291906123a6565b61025c6102e73660046123cb565b610b7e565b61025c6102fa3660046123cb565b610c7c565b61031261030d3660046123e8565b610ceb565b6040516101b2949392919061252f565b6103356103303660046120cb565b610ee1565b6040516101b29392919061257c565b6103576103523660046123e8565b610f01565b6040516101b2939291906125a8565b61023c604051806040016040528060118152602001702aa7299d10283937bc3c902932b0b232b960791b81525081565b6101f16103a4366004612210565b61108a565b6103bc6103b73660046122c6565b611158565b6040516101b291906125eb565b6101f16103d7366004612210565b61124c565b6103ef6103ea3660046120cb565b6112d2565b6040516101b292919061264d565b61023c61040b3660046123cb565b6114b2565b61042361041e3660046122c6565b611526565b6040516101b29190612672565b61023c61043e366004612210565b6115d4565b6101a661045136600461234b565b6116a6565b61023c60405180604001604052806005815260200164302e342e3160d81b81525081565b60006001600160e01b031982166362526e6360e01b14806104ab57506001600160e01b03198216636fa624af60e11b145b806104c657506001600160e01b031982166308da864d60e31b145b806104e157506301ffc9a760e01b6001600160e01b03198316145b92915050565b6000806060806104f88787876116f1565b93509350935093505b93509350935093565b600061051582611957565b61052157506000919050565b61052a826119ef565b6105a15760665460405163020604bf60e21b8152600481018490526001600160a01b039091169063081812fc906024015b602060405180830381865afa158015610578573d6000803e3d6000fd5b505050506040513d601f19601f8201168201806040525081019061059c9190612685565b6104e1565b60655460405163020604bf60e21b8152600481018490526001600160a01b039091169063081812fc906024015b602060405180830381865afa1580156105eb573d6000803e3d6000fd5b505050506040513d601f19601f820116820180604052508101906104e19190612685565b606061062461061e8486612732565b83611a36565b90505b9392505050565b6060610639826119ef565b156106be57606554604051631be5e7ed60e01b81526001600160a01b0390911690631be5e7ed906106729087908790879060040161280f565b600060405180830381865afa15801561068f573d6000803e3d6000fd5b505050506040513d6000823e601f3d908101601f191682016040526106b79190810190612878565b9050610627565b60006106c983611bbc565b90506001600160a01b0381163b1561075557604051631be5e7ed60e01b81526001600160a01b03821690631be5e7ed9061070b9088908890889060040161280f565b600060405180830381865afa92505050801561074957506040513d6000823e601f3d908101601f191682016040526107469190810190612878565b60015b61075257610755565b91505b509392505050565b60655460405163276fabb160e01b81526000916001600160a01b03169063276fabb190610790908690869060040161292f565b602060405180830381865afa1580156107ad573d6000803e3d6000fd5b505050506040513d601f19601f820116820180604052508101906106279190612943565b60006107dc82611957565b6107e8575060006104e1565b6107f1826119ef565b61086f5760665460405163430c208160e01b81526001600160a01b038581166004830152602482018590529091169063430c208190604401602060405180830381865afa158015610846573d6000803e3d6000fd5b505050506040513d601f19601f8201168201806040525081019061086a919061295c565b610627565b60655460405163430c208160e01b81526001600160a01b038581166004830152602482018590529091169063430c208190604401602060405180830381865afa1580156108c0573d6000803e3d6000fd5b505050506040513d601f19601f82011682018060405250810190610627919061295c565b600054610100900460ff16158080156109045750600054600160ff909116105b8061091e5750303b15801561091e575060005460ff166001145b6109865760405162461bcd60e51b815260206004820152602e60248201527f496e697469616c697a61626c653a20636f6e747261637420697320616c72656160448201526d191e481a5b9a5d1a585b1a5e995960921b60648201526084015b60405180910390fd5b6000805460ff1916600117905580156109a9576000805461ff0019166101001790555b606580546001600160a01b038086166001600160a01b03199283161790925560668054928516929091169190911790556109e1611c2f565b6109e9611c2f565b8015610a2f576000805461ff0019169055604051600181527f7f26b83ff96e1f2b6a682f133852f6798a09c465da95921460cefb38474024989060200160405180910390a15b505050565b60006104e182611957565b60006104e182611c9c565b606080610a56836119ef565b15610adc5760655460405163672b9f8160e01b815260048101869052602481018590526001600160a01b039091169063672b9f8190604401600060405180830381865afa158015610aab573d6000803e3d6000fd5b505050506040513d6000823e601f3d908101601f19168201604052610ad3919081019061297e565b91509150610b77565b6000610ae784611bbc565b90506001600160a01b0381163b15610b755760405163672b9f8160e01b815260048101869052602481018590526001600160a01b0382169063672b9f8190604401600060405180830381865afa925050508015610b6657506040513d6000823e601f3d908101601f19168201604052610b63919081019061297e565b60015b610b6f57610b75565b90935091505b505b9250929050565b6065546040516370a0823160e01b81526001600160a01b03838116600483015260009283929116906370a0823190602401602060405180830381865afa158015610bcc573d6000803e3d6000fd5b505050506040513d601f19601f82011682018060405250810190610bf09190612943565b6066549091506001600160a01b0316156104e1576066546040516370a0823160e01b81526001600160a01b038581166004830152909116906370a0823190602401602060405180830381865afa158015610c4e573d6000803e3d6000fd5b505050506040513d601f19601f82011682018060405250810190610c729190612943565b61062790826129f7565b606554604051633f1ba3cf60e11b81526001600160a01b0383811660048301526000921690637e37479e90602401602060405180830381865afa158015610cc7573d6000803e3d6000fd5b505050506040513d601f19601f820116820180604052508101906104e19190612943565b6060808080846001600160401b03811115610d0857610d086126a2565b604051908082528060200260200182016040528015610d31578160200160208202803683370190505b509350846001600160401b03811115610d4c57610d4c6126a2565b604051908082528060200260200182016040528015610d75578160200160208202803683370190505b509250846001600160401b03811115610d9057610d906126a2565b604051908082528060200260200182016040528015610dc357816020015b6060815260200190600190039081610dae5790505b509150846001600160401b03811115610dde57610dde6126a2565b604051908082528060200260200182016040528015610e1157816020015b6060815260200190600190039081610dfc5790505b50905060005b85811015610ed557610e428989898985818110610e3657610e36612a0f565b905060200201356116f1565b888581518110610e5457610e54612a0f565b60200260200101888681518110610e6d57610e6d612a0f565b60200260200101888781518110610e8657610e86612a0f565b60200260200101888881518110610e9f57610e9f612a0f565b6020908102919091010193909352929091526001600160a01b039283169091529116905280610ecd81612a25565b915050610e17565b50945094509450949050565b6000806060610ef1868686611cbd565b9250925092505b93509350939050565b60608080836001600160401b03811115610f1d57610f1d6126a2565b604051908082528060200260200182016040528015610f46578160200160208202803683370190505b509250836001600160401b03811115610f6157610f616126a2565b604051908082528060200260200182016040528015610f8a578160200160208202803683370190505b509150836001600160401b03811115610fa557610fa56126a2565b604051908082528060200260200182016040528015610fd857816020015b6060815260200190600190039081610fc35790505b50905060005b8481101561107f576110098888888885818110610ffd57610ffd612a0f565b90506020020135611cbd565b86848151811061101b5761101b612a0f565b6020026020010186858151811061103457611034612a0f565b6020026020010186868151811061104d5761104d612a0f565b60209081029190910101929092526001600160a01b03928316909152911690528061107781612a25565b915050610fde565b509450945094915050565b606554604051634f558e7960e01b8152600481018390526000916001600160a01b031690634f558e7990602401602060405180830381865afa1580156110d4573d6000803e3d6000fd5b505050506040513d601f19601f820116820180604052508101906110f8919061295c565b1561110e5750506065546001600160a01b031690565b6066546001600160a01b03161580159061113a5750600061112e83611ecc565b6001600160a01b031614155b156111505750506066546001600160a01b031690565b506000919050565b6060816001600160401b03811115611172576111726126a2565b6040519080825280602002602001820160405280156111a557816020015b60608152602001906001900390816111905790505b50905060005b8281101561124557611215308585848181106111c9576111c9612a0f565b90506020028101906111db9190612a40565b8080601f016020809104026020016040519081016040528093929190818152602001838380828437600092019190915250611efe92505050565b82828151811061122757611227612a0f565b6020026020010181905250808061123d90612a25565b9150506111ab565b5092915050565b600061125782611957565b61126357506000919050565b61126c826119ef565b6112a15760665460405163b3f9e4cb60e01b8152600481018490526001600160a01b039091169063b3f9e4cb9060240161055b565b60655460405163b3f9e4cb60e01b8152600481018490526001600160a01b039091169063b3f9e4cb906024016105ce565b606080836001600160401b038111156112ed576112ed6126a2565b60405190808252806020026020018201604052801561132057816020015b606081526020019060019003908161130b5790505b509150836001600160401b0381111561133b5761133b6126a2565b60405190808252806020026020018201604052801561136e57816020015b60608152602001906001900390816113595790505b50905061137a836119ef565b156114015760655460405163170b5fa560e31b81526001600160a01b039091169063b85afd28906113b390889088908890600401612a86565b600060405180830381865afa1580156113d0573d6000803e3d6000fd5b505050506040513d6000823e601f3d908101601f191682016040526113f89190810190612b56565b915091506114aa565b600061140c84611bbc565b90506001600160a01b0381163b1515801561142657508415155b156114a85760405163170b5fa560e31b81526001600160a01b0382169063b85afd289061145b90899089908990600401612a86565b600060405180830381865afa92505050801561149957506040513d6000823e601f3d908101601f191682016040526114969190810190612b56565b60015b6114a2576114a8565b90935091505b505b935093915050565b606554604051632fafb1ad60e21b81526001600160a01b038381166004830152606092169063bebec6b4906024015b600060405180830381865afa1580156114fe573d6000803e3d6000fd5b505050506040513d6000823e601f3d908101601f191682016040526104e19190810190612878565b6060816001600160401b03811115611540576115406126a2565b604051908082528060200260200182016040528015611569578160200160208202803683370190505b50905060005b828110156112455761159884848381811061158c5761158c612a0f565b90506020020135611c9c565b8282815181106115aa576115aa612a0f565b6001600160a01b0390921660209283029190910190910152806115cc81612a25565b91505061156f565b60606115df82611957565b6115f757505060408051602081019091526000815290565b611600826119ef565b6116755760665460405163c87b56dd60e01b8152600481018490526001600160a01b039091169063c87b56dd90602401600060405180830381865afa15801561164d573d6000803e3d6000fd5b505050506040513d6000823e601f3d908101601f1916820160405261059c9190810190612878565b60655460405163c87b56dd60e01b8152600481018490526001600160a01b039091169063c87b56dd906024016114e1565b60405162461bcd60e51b815260206004820152601f60248201527f50726f78795265616465723a20554e535550504f525445445f4d4554484f4400604482015260009060640161097d565b600080606080856001600160401b0381111561170f5761170f6126a2565b60405190808252806020026020018201604052801561174257816020015b606081526020019060019003908161172d5790505b509150856001600160401b0381111561175d5761175d6126a2565b60405190808252806020026020018201604052801561179057816020015b606081526020019060019003908161177b5790505b50905061179c856119ef565b1561189d5760655460405163b3f9e4cb60e01b8152600481018790526001600160a01b039091169063b3f9e4cb90602401602060405180830381865afa1580156117ea573d6000803e3d6000fd5b505050506040513d601f19601f8201168201806040525081019061180e9190612685565b935061181985611ff2565b60655460405163170b5fa560e31b81529194506001600160a01b03169063b85afd289061184e908a908a908a90600401612a86565b600060405180830381865afa15801561186b573d6000803e3d6000fd5b505050506040513d6000823e601f3d908101601f191682016040526118939190810190612b56565b9092509050610501565b6118a685611bbc565b93506118b185611ecc565b92506001600160a01b0384163b151580156118cd575060008251115b156105015760405163170b5fa560e31b81526001600160a01b0385169063b85afd2890611902908a908a908a90600401612a86565b600060405180830381865afa92505050801561194057506040513d6000823e601f3d908101601f1916820160405261193d9190810190612b56565b60015b61194957610501565b909250905093509350935093565b6000611962826119ef565b61198157600061197183611ecc565b6001600160a01b031614156104e1565b606554604051634f558e7960e01b8152600481018490526001600160a01b0390911690634f558e79906024015b602060405180830381865afa1580156119cb573d6000803e3d6000fd5b505050506040513d601f19601f820116820180604052508101906104e1919061295c565b6066546000906001600160a01b031615806104e15750606554604051634f558e7960e01b8152600481018490526001600160a01b0390911690634f558e79906024016119ae565b606082516001600160401b03811115611a5157611a516126a2565b604051908082528060200260200182016040528015611a8457816020015b6060815260200190600190039081611a6f5790505b509050611a90826119ef565b15611b1357606554604051630dec660d60e11b81526001600160a01b0390911690631bd8cc1a90611ac79086908690600401612baf565b600060405180830381865afa158015611ae4573d6000803e3d6000fd5b505050506040513d6000823e601f3d908101601f19168201604052611b0c9190810190612bd1565b90506104e1565b6000611b1e83611bbc565b90506001600160a01b0381163b15158015611b3a575060008451115b1561124557604051630dec660d60e11b81526001600160a01b03821690631bd8cc1a90611b6d9087908790600401612baf565b600060405180830381865afa925050508015611bab57506040513d6000823e601f3d908101601f19168201604052611ba89190810190612bd1565b60015b611bb457611245565b949350505050565b60665460405163b3f9e4cb60e01b8152600481018390526000916001600160a01b03169063b3f9e4cb906024015b602060405180830381865afa925050508015611c23575060408051601f3d908101601f19168201909252611c2091810190612685565b60015b6104e157506000919050565b600054610100900460ff16611c9a5760405162461bcd60e51b815260206004820152602b60248201527f496e697469616c697a61626c653a20636f6e7472616374206973206e6f74206960448201526a6e697469616c697a696e6760a81b606482015260840161097d565b565b6000611ca7826119ef565b611cb45761059c82611ecc565b6104e182611ff2565b6000806060846001600160401b03811115611cda57611cda6126a2565b604051908082528060200260200182016040528015611d0d57816020015b6060815260200190600190039081611cf85790505b509050611d19846119ef565b15611e175760655460405163b3f9e4cb60e01b8152600481018690526001600160a01b039091169063b3f9e4cb90602401602060405180830381865afa158015611d67573d6000803e3d6000fd5b505050506040513d601f19601f82011682018060405250810190611d8b9190612685565b9250611d9684611ff2565b606554604051630dec660d60e11b81529193506001600160a01b031690631bd8cc1a90611dcb90899089908990600401612c05565b600060405180830381865afa158015611de8573d6000803e3d6000fd5b505050506040513d6000823e601f3d908101601f19168201604052611e109190810190612bd1565b9050610ef8565b611e2084611bbc565b9250611e2b84611ecc565b91506001600160a01b0383163b15158015611e4557508415155b15610ef857604051630dec660d60e11b81526001600160a01b03841690631bd8cc1a90611e7a90899089908990600401612c05565b600060405180830381865afa925050508015611eb857506040513d6000823e601f3d908101601f19168201604052611eb59190810190612bd1565b60015b611ec157610ef8565b905093509350939050565b6066546040516331a9108f60e11b8152600481018390526000916001600160a01b031690636352211e90602401611bea565b60606001600160a01b0383163b611f665760405162461bcd60e51b815260206004820152602660248201527f416464726573733a2064656c65676174652063616c6c20746f206e6f6e2d636f6044820152651b9d1c9858dd60d21b606482015260840161097d565b600080846001600160a01b031684604051611f819190612c19565b600060405180830381855af49150503d8060008114611fbc576040519150601f19603f3d011682016040523d82523d6000602084013e611fc1565b606091505b5091509150611fe98282604051806060016040528060278152602001612c3660279139612024565b95945050505050565b6065546040516331a9108f60e11b8152600481018390526000916001600160a01b031690636352211e90602401611bea565b60608315612033575081610627565b8251156120435782518084602001fd5b8160405162461bcd60e51b815260040161097d91906122b3565b60006020828403121561206f57600080fd5b81356001600160e01b03198116811461062757600080fd5b60008083601f84011261209957600080fd5b5081356001600160401b038111156120b057600080fd5b6020830191508360208260051b8501011115610b7757600080fd5b6000806000604084860312156120e057600080fd5b83356001600160401b038111156120f657600080fd5b61210286828701612087565b909790965060209590950135949350505050565b60005b83811015612131578181015183820152602001612119565b83811115612140576000848401525b50505050565b6000815180845261215e816020860160208601612116565b601f01601f19169290920160200192915050565b600081518084526020808501808196508360051b8101915082860160005b858110156121ba5782840389526121a8848351612146565b98850198935090840190600101612190565b5091979650505050505050565b6001600160a01b038581168252841660208201526080604082018190526000906121f390830185612172565b82810360608401526122058185612172565b979650505050505050565b60006020828403121561222257600080fd5b5035919050565b6020815260006106276020830184612172565b60008060006040848603121561225157600080fd5b83356001600160401b038082111561226857600080fd5b818601915086601f83011261227c57600080fd5b81358181111561228b57600080fd5b87602082850101111561229d57600080fd5b6020928301989097509590910135949350505050565b6020815260006106276020830184612146565b600080602083850312156122d957600080fd5b82356001600160401b038111156122ef57600080fd5b6122fb85828601612087565b90969095509350505050565b6001600160a01b038116811461231c57600080fd5b50565b6000806040838503121561233257600080fd5b823561233d81612307565b946020939093013593505050565b6000806040838503121561235e57600080fd5b823561236981612307565b9150602083013561237981612307565b809150509250929050565b6000806040838503121561239757600080fd5b50508035926020909101359150565b6040815260006123b96040830185612146565b8281036020840152611fe98185612146565b6000602082840312156123dd57600080fd5b813561062781612307565b600080600080604085870312156123fe57600080fd5b84356001600160401b038082111561241557600080fd5b61242188838901612087565b9096509450602087013591508082111561243a57600080fd5b5061244787828801612087565b95989497509550505050565b600081518084526020808501945080840160005b8381101561248c5781516001600160a01b031687529582019590820190600101612467565b509495945050505050565b600081518084526020808501808196506005915083821b81018387016000805b87811015612520578484038b5282518051808652908801908886019080891b87018a01855b8281101561250a57601f198983030184526124f8828651612146565b948c0194938c019391506001016124dc565b509d8a019d9650505092870192506001016124b7565b50919998505050505050505050565b6080815260006125426080830187612453565b82810360208401526125548187612453565b905082810360408401526125688186612497565b905082810360608401526122058185612497565b6001600160a01b03848116825283166020820152606060408201819052600090611fe990830184612172565b6060815260006125bb6060830186612453565b82810360208401526125cd8186612453565b905082810360408401526125e18185612497565b9695505050505050565b6000602080830181845280855180835260408601915060408160051b870101925083870160005b8281101561264057603f1988860301845261262e858351612146565b94509285019290850190600101612612565b5092979650505050505050565b6040815260006126606040830185612172565b8281036020840152611fe98185612172565b6020815260006106276020830184612453565b60006020828403121561269757600080fd5b815161062781612307565b634e487b7160e01b600052604160045260246000fd5b604051601f8201601f191681016001600160401b03811182821017156126e0576126e06126a2565b604052919050565b60006001600160401b03821115612701576127016126a2565b5060051b60200190565b60006001600160401b03821115612724576127246126a2565b50601f01601f191660200190565b6000612745612740846126e8565b6126b8565b80848252602080830192508560051b85013681111561276357600080fd5b855b818110156127da5780356001600160401b038111156127845760008081fd5b870136601f8201126127965760008081fd5b80356127a46127408261270b565b81815236868385010111156127b95760008081fd5b81868401878301376000918101860191909152865250938201938201612765565b50919695505050505050565b81835281816020850137506000828201602090810191909152601f909101601f19169091010190565b6040815260006128236040830185876127e6565b9050826020830152949350505050565b600082601f83011261284457600080fd5b81516128526127408261270b565b81815284602083860101111561286757600080fd5b611bb4826020830160208701612116565b60006020828403121561288a57600080fd5b81516001600160401b038111156128a057600080fd5b611bb484828501612833565b81835260006020808501808196508560051b810191508460005b878110156121ba5782840389528135601e198836030181126128e757600080fd5b870180356001600160401b038111156128ff57600080fd5b80360389131561290e57600080fd5b61291b86828985016127e6565b9a87019a95505050908401906001016128c6565b6020815260006106246020830184866128ac565b60006020828403121561295557600080fd5b5051919050565b60006020828403121561296e57600080fd5b8151801515811461062757600080fd5b6000806040838503121561299157600080fd5b82516001600160401b03808211156129a857600080fd5b6129b486838701612833565b935060208501519150808211156129ca57600080fd5b506129d785828601612833565b9150509250929050565b634e487b7160e01b600052601160045260246000fd5b60008219821115612a0a57612a0a6129e1565b500190565b634e487b7160e01b600052603260045260246000fd5b6000600019821415612a3957612a396129e1565b5060010190565b6000808335601e19843603018112612a5757600080fd5b8301803591506001600160401b03821115612a7157600080fd5b602001915036819003821315610b7757600080fd5b6040808252810183905260006001600160fb1b03841115612aa657600080fd5b8360051b8086606085013760009083016060019081526020909201929092529392505050565b600082601f830112612add57600080fd5b81516020612aed612740836126e8565b82815260059290921b84018101918181019086841115612b0c57600080fd5b8286015b84811015612b4b5780516001600160401b03811115612b2f5760008081fd5b612b3d8986838b0101612833565b845250918301918301612b10565b509695505050505050565b60008060408385031215612b6957600080fd5b82516001600160401b0380821115612b8057600080fd5b612b8c86838701612acc565b93506020850151915080821115612ba257600080fd5b506129d785828601612acc565b604081526000612bc26040830185612172565b90508260208301529392505050565b600060208284031215612be357600080fd5b81516001600160401b03811115612bf957600080fd5b611bb484828501612acc565b6040815260006128236040830185876128ac565b60008251612c2b818460208701612116565b919091019291505056fe416464726573733a206c6f772d6c6576656c2064656c65676174652063616c6c206661696c6564a164736f6c634300080c000a",
  "linkReferences": {},
  "deployedLinkReferences": {}
}