{
  "_format": "hh-sol-artifact-1",
  "contractName": "ProxyReader",
  "sourceName": "contracts/ProxyReader.sol",
  "abi": [
    {
      "inputs": [
        {
          "internalType": "contract IUNSRegistry",
          "name": "unsRegistry",
          "type": "address"
        },
        {
          "internalType": "contract ICNSRegistry",
          "name": "cnsRegistry",
          "type": "address"
        }
      ],
      "stateMutability": "nonpayable",
      "type": "constructor"
    },
    {
      "inputs": [],
      "name": "NAME",
      "outputs": [
        {
          "internalType": "string",
          "name": "",
          "type": "string"
        }
      ],
      "stateMutability": "view",
      "type": "function"
    },
    {
      "inputs": [],
      "name": "VERSION",
      "outputs": [
        {
          "internalType": "string",
          "name": "",
          "type": "string"
        }
      ],
      "stateMutability": "view",
      "type": "function"
    },
    {
      "inputs": [
        {
          "internalType": "address",
          "name": "owner",
          "type": "address"
        }
      ],
      "name": "balanceOf",
      "outputs": [
        {
          "internalType": "uint256",
          "name": "",
          "type": "uint256"
        }
      ],
      "stateMutability": "view",
      "type": "function"
    },
    {
      "inputs": [
        {
          "internalType": "uint256",
          "name": "tokenId",
          "type": "uint256"
        },
        {
          "internalType": "string",
          "name": "label",
          "type": "string"
        }
      ],
      "name": "childIdOf",
      "outputs": [
        {
          "internalType": "uint256",
          "name": "",
          "type": "uint256"
        }
      ],
      "stateMutability": "view",
      "type": "function"
    },
    {
      "inputs": [
        {
          "internalType": "uint256",
          "name": "tokenId",
          "type": "uint256"
        }
      ],
      "name": "exists",
      "outputs": [
        {
          "internalType": "bool",
          "name": "",
          "type": "bool"
        }
      ],
      "stateMutability": "view",
      "type": "function"
    },
    {
      "inputs": [
        {
          "internalType": "string",
          "name": "key",
          "type": "string"
        },
        {
          "internalType": "uint256",
          "name": "tokenId",
          "type": "uint256"
        }
      ],
      "name": "get",
      "outputs": [
        {
          "internalType": "string",
          "name": "value",
          "type": "string"
        }
      ],
      "stateMutability": "view",
      "type": "function"
    },
    {
      "inputs": [
        {
          "internalType": "uint256",
          "name": "tokenId",
          "type": "uint256"
        }
      ],
      "name": "getApproved",
      "outputs": [
        {
          "internalType": "address",
          "name": "",
          "type": "address"
        }
      ],
      "stateMutability": "view",
      "type": "function"
    },
    {
      "inputs": [
        {
          "internalType": "uint256",
          "name": "keyHash",
          "type": "uint256"
        },
        {
          "internalType": "uint256",
          "name": "tokenId",
          "type": "uint256"
        }
      ],
      "name": "getByHash",
      "outputs": [
        {
          "internalType": "string",
          "name": "key",
          "type": "string"
        },
        {
          "internalType": "string",
          "name": "value",
          "type": "string"
        }
      ],
      "stateMutability": "view",
      "type": "function"
    },
    {
      "inputs": [
        {
          "internalType": "string[]",
          "name": "keys",
          "type": "string[]"
        },
        {
          "internalType": "uint256",
          "name": "tokenId",
          "type": "uint256"
        }
      ],
      "name": "getData",
      "outputs": [
        {
          "internalType": "address",
          "name": "resolver",
          "type": "address"
        },
        {
          "internalType": "address",
          "name": "owner",
          "type": "address"
        },
        {
          "internalType": "string[]",
          "name": "values",
          "type": "string[]"
        }
      ],
      "stateMutability": "view",
      "type": "function"
    },
    {
      "inputs": [
        {
          "internalType": "uint256[]",
          "name": "keyHashes",
          "type": "uint256[]"
        },
        {
          "internalType": "uint256",
          "name": "tokenId",
          "type": "uint256"
        }
      ],
      "name": "getDataByHash",
      "outputs": [
        {
          "internalType": "address",
          "name": "resolver",
          "type": "address"
        },
        {
          "internalType": "address",
          "name": "owner",
          "type": "address"
        },
        {
          "internalType": "string[]",
          "name": "keys",
          "type": "string[]"
        },
        {
          "internalType": "string[]",
          "name": "values",
          "type": "string[]"
        }
      ],
      "stateMutability": "view",
      "type": "function"
    },
    {
      "inputs": [
        {
          "internalType": "uint256[]",
          "name": "keyHashes",
          "type": "uint256[]"
        },
        {
          "internalType": "uint256[]",
          "name": "tokenIds",
          "type": "uint256[]"
        }
      ],
      "name": "getDataByHashForMany",
      "outputs": [
        {
          "internalType": "address[]",
          "name": "resolvers",
          "type": "address[]"
        },
        {
          "internalType": "address[]",
          "name": "owners",
          "type": "address[]"
        },
        {
          "internalType": "string[][]",
          "name": "keys",
          "type": "string[][]"
        },
        {
          "internalType": "string[][]",
          "name": "values",
          "type": "string[][]"
        }
      ],
      "stateMutability": "view",
      "type": "function"
    },
    {
      "inputs": [
        {
          "internalType": "string[]",
          "name": "keys",
          "type": "string[]"
        },
        {
          "internalType": "uint256[]",
          "name": "tokenIds",
          "type": "uint256[]"
        }
      ],
      "name": "getDataForMany",
      "outputs": [
        {
          "internalType": "address[]",
          "name": "resolvers",
          "type": "address[]"
        },
        {
          "internalType": "address[]",
          "name": "owners",
          "type": "address[]"
        },
        {
          "internalType": "string[][]",
          "name": "values",
          "type": "string[][]"
        }
      ],
      "stateMutability": "view",
      "type": "function"
    },
    {
      "inputs": [
        {
          "internalType": "string[]",
          "name": "keys",
          "type": "string[]"
        },
        {
          "internalType": "uint256",
          "name": "tokenId",
          "type": "uint256"
        }
      ],
      "name": "getMany",
      "outputs": [
        {
          "internalType": "string[]",
          "name": "values",
          "type": "string[]"
        }
      ],
      "stateMutability": "view",
      "type": "function"
    },
    {
      "inputs": [
        {
          "internalType": "uint256[]",
          "name": "keyHashes",
          "type": "uint256[]"
        },
        {
          "internalType": "uint256",
          "name": "tokenId",
          "type": "uint256"
        }
      ],
      "name": "getManyByHash",
      "outputs": [
        {
          "internalType": "string[]",
          "name": "keys",
          "type": "string[]"
        },
        {
          "internalType": "string[]",
          "name": "values",
          "type": "string[]"
        }
      ],
      "stateMutability": "view",
      "type": "function"
    },
    {
      "inputs": [
        {
          "internalType": "address",
          "name": "",
          "type": "address"
        },
        {
          "internalType": "address",
          "name": "",
          "type": "address"
        }
      ],
      "name": "isApprovedForAll",
      "outputs": [
        {
          "internalType": "bool",
          "name": "",
          "type": "bool"
        }
      ],
      "stateMutability": "pure",
      "type": "function"
    },
    {
      "inputs": [
        {
          "internalType": "address",
          "name": "spender",
          "type": "address"
        },
        {
          "internalType": "uint256",
          "name": "tokenId",
          "type": "uint256"
        }
      ],
      "name": "isApprovedOrOwner",
      "outputs": [
        {
          "internalType": "bool",
          "name": "",
          "type": "bool"
        }
      ],
      "stateMutability": "view",
      "type": "function"
    },
    {
      "inputs": [
        {
          "internalType": "bytes[]",
          "name": "data",
          "type": "bytes[]"
        }
      ],
      "name": "multicall",
      "outputs": [
        {
          "internalType": "bytes[]",
          "name": "results",
          "type": "bytes[]"
        }
      ],
      "stateMutability": "nonpayable",
      "type": "function"
    },
    {
      "inputs": [
        {
          "internalType": "uint256",
          "name": "tokenId",
          "type": "uint256"
        }
      ],
      "name": "ownerOf",
      "outputs": [
        {
          "internalType": "address",
          "name": "",
          "type": "address"
        }
      ],
      "stateMutability": "view",
      "type": "function"
    },
    {
      "inputs": [
        {
          "internalType": "uint256[]",
          "name": "tokenIds",
          "type": "uint256[]"
        }
      ],
      "name": "ownerOfForMany",
      "outputs": [
        {
          "internalType": "address[]",
          "name": "owners",
          "type": "address[]"
        }
      ],
      "stateMutability": "view",
      "type": "function"
    },
    {
      "inputs": [
        {
          "internalType": "uint256",
          "name": "tokenId",
          "type": "uint256"
        }
      ],
      "name": "registryOf",
      "outputs": [
        {
          "internalType": "address",
          "name": "",
          "type": "address"
        }
      ],
      "stateMutability": "view",
      "type": "function"
    },
    {
      "inputs": [
        {
          "internalType": "uint256",
          "name": "tokenId",
          "type": "uint256"
        }
      ],
      "name": "resolverOf",
      "outputs": [
        {
          "internalType": "address",
          "name": "",
          "type": "address"
        }
      ],
      "stateMutability": "view",
      "type": "function"
    },
    {
      "inputs": [
        {
          "internalType": "address",
          "name": "addr",
          "type": "address"
        }
      ],
      "name": "reverseOf",
      "outputs": [
        {
          "internalType": "uint256",
          "name": "",
          "type": "uint256"
        }
      ],
      "stateMutability": "view",
      "type": "function"
    },
    {
      "inputs": [
        {
          "internalType": "bytes4",
          "name": "interfaceId",
          "type": "bytes4"
        }
      ],
      "name": "supportsInterface",
      "outputs": [
        {
          "internalType": "bool",
          "name": "",
          "type": "bool"
        }
      ],
      "stateMutability": "view",
      "type": "function"
    },
    {
      "inputs": [
        {
          "internalType": "uint256",
          "name": "tokenId",
          "type": "uint256"
        }
      ],
      "name": "tokenURI",
      "outputs": [
        {
          "internalType": "string",
          "name": "",
          "type": "string"
        }
      ],
      "stateMutability": "view",
      "type": "function"
    }
  ],
  "bytecode": "0x60c06040523480156200001157600080fd5b506040516200325e3803806200325e8339810160408190526200003491620000e4565b6001600160601b0319606083811b821660805282901b1660a0526200005862000060565b505062000186565b600054610100900460ff16806200007a575060005460ff16155b620000a25760405162461bcd60e51b8152600401620000999062000122565b60405180910390fd5b600054610100900460ff16158015620000ce576000805460ff1961ff0019909116610100171660011790555b8015620000e1576000805461ff00191690555b50565b60008060408385031215620000f7578182fd5b8251620001048162000170565b6020840151909250620001178162000170565b809150509250929050565b6020808252602e908201527f496e697469616c697a61626c653a20636f6e747261637420697320616c72656160408201526d191e481a5b9a5d1a585b1a5e995960921b606082015260800190565b6001600160a01b0381168114620000e157600080fd5b60805160601c60a05160601c612fe16200027d60003960008181610479015281816108ef01528181610dab01528181610def01528181611496015281816114e60152818161165601528181611a1001528181611e8c01528181611f210152611fd101526000818161051a015281816106220152818161079e0152818161099201528181610a5a01528181610b1201528181610c7701528181610d0d01528181610e98015281816113e301528181611470015281816116a2015281816117b701528181611ab001528181611c7901528181611d2301528181611ed2015281816120ad0152818161215701526123810152612fe16000f3fe608060405234801561001057600080fd5b50600436106101585760003560e01c8063869b8884116100c3578063b3f9e4cb1161007c578063b3f9e4cb1461034b578063b85afd281461035e578063c15ae7cf1461037f578063c87b56dd1461039f578063e985e9c5146103b2578063ffa1ad74146103c557610158565b8063869b8884146102a957806391015f6b146102cc578063933c051d146102ee578063a3f4df7e14610310578063a81ce6f914610318578063ac9650d81461032b57610158565b80634f558e79116101155780634f558e791461021c5780636352211e1461022f578063672b9f811461024257806368b62d321461026357806370a08231146102835780637e37479e1461029657610158565b806301ffc9a71461015d5780630328075514610186578063081812fc146101a95780631bd8cc1a146101c95780631be5e7ed146101e9578063430c208114610209575b600080fd5b61017061016b3660046127ff565b6103cd565b60405161017d9190612d84565b60405180910390f35b6101996101943660046127b6565b610430565b60405161017d9493929190612b0c565b6101bc6101b73660046128e4565b610453565b60405161017d9190612acc565b6101dc6101d736600461268c565b61059f565b60405161017d9190612d0b565b6101fc6101f7366004612827565b610777565b60405161017d9190612db3565b6101706102173660046125ba565b6108c9565b61017061022a3660046128e4565b610a19565b6101bc61023d3660046128e4565b610adf565b61025561025036600461295d565b610aea565b60405161017d929190612dc6565b610276610271366004612914565b610c5d565b60405161017d9190612e68565b61027661029136600461254a565b610d08565b6102766102a436600461254a565b610e7e565b6102bc6102b7366004612767565b610f1d565b60405161017d9493929190612bc4565b6102df6102da36600461268c565b611191565b60405161017d93929190612ae0565b6103016102fc366004612624565b6111b1565b60405161017d93929190612b81565b6101fc61139c565b6101bc6103263660046128e4565b6113c9565b61033e6103393660046125e5565b611512565b60405161017d9190612c11565b6101bc6103593660046128e4565b611630565b61037161036c3660046127b6565b6116d7565b60405161017d929190612d1e565b61039261038d3660046125e5565b611912565b60405161017d9190612b6e565b6101fc6103ad3660046128e4565b6119ea565b6101706103c0366004612582565b611b39565b6101fc611b5c565b60006001600160e01b031982166324cd4b9560e21b14806103fe57506001600160e01b03198216636fa624af60e11b145b8061041957506001600160e01b031982166308da864d60e31b145b80610428575061042882611b7d565b90505b919050565b600080606080610441878787611b96565b93509350935093505b93509350935093565b600061045e82611e88565b6105035760405163020604bf60e21b81526001600160a01b037f0000000000000000000000000000000000000000000000000000000000000000169063081812fc906104ae908590600401612e68565b60206040518083038186803b1580156104c657600080fd5b505afa1580156104da573d6000803e3d6000fd5b505050506040513d601f19601f820116820180604052508101906104fe9190612566565b610428565b60405163020604bf60e21b81526001600160a01b037f0000000000000000000000000000000000000000000000000000000000000000169063081812fc9061054f908590600401612e68565b60206040518083038186803b15801561056757600080fd5b505afa15801561057b573d6000803e3d6000fd5b505050506040513d601f19601f820116820180604052508101906104289190612566565b6060826001600160401b038111156105c757634e487b7160e01b600052604160045260246000fd5b6040519080825280602002602001820160405280156105fa57816020015b60608152602001906001900390816105e55790505b50905061060682611e88565b156106b657604051630dec660d60e11b81526001600160a01b037f00000000000000000000000000000000000000000000000000000000000000001690631bd8cc1a9061065b90879087908790600401612c71565b60006040518083038186803b15801561067357600080fd5b505afa158015610687573d6000803e3d6000fd5b505050506040513d6000823e601f3d908101601f191682016040526106af91908101906126d5565b9050610770565b60006106c183611f07565b90506106d5816001600160a01b0316611fb1565b80156106e057508315155b1561076e57604051630dec660d60e11b81526001600160a01b03821690631bd8cc1a9061071590889088908890600401612c71565b60006040518083038186803b15801561072d57600080fd5b505afa92505050801561076257506040513d6000823e601f3d908101601f1916820160405261075f91908101906126d5565b60015b61076b5761076e565b91505b505b9392505050565b606061078282611e88565b1561082b57604051631be5e7ed60e01b81526001600160a01b037f00000000000000000000000000000000000000000000000000000000000000001690631be5e7ed906107d790879087908790600401612d8f565b60006040518083038186803b1580156107ef57600080fd5b505afa158015610803573d6000803e3d6000fd5b505050506040513d6000823e601f3d908101601f191682016040526106af919081019061285c565b600061083683611f07565b905061084a816001600160a01b0316611fb1565b1561076e57604051631be5e7ed60e01b81526001600160a01b03821690631be5e7ed9061087f90889088908890600401612d8f565b60006040518083038186803b15801561089757600080fd5b505afa92505050801561076257506040513d6000823e601f3d908101601f1916820160405261075f919081019061285c565b60006108d482611e88565b61097b5760405163430c208160e01b81526001600160a01b037f0000000000000000000000000000000000000000000000000000000000000000169063430c2081906109269086908690600401612b55565b60206040518083038186803b15801561093e57600080fd5b505afa158015610952573d6000803e3d6000fd5b505050506040513d601f19601f8201168201806040525081019061097691906127df565b610770565b60405163430c208160e01b81526001600160a01b037f0000000000000000000000000000000000000000000000000000000000000000169063430c2081906109c99086908690600401612b55565b60206040518083038186803b1580156109e157600080fd5b505afa1580156109f5573d6000803e3d6000fd5b505050506040513d601f19601f8201168201806040525081019061077091906127df565b6000610a2482611e88565b610a43576000610a3383611fb7565b6001600160a01b03161415610428565b604051634f558e7960e01b81526001600160a01b037f00000000000000000000000000000000000000000000000000000000000000001690634f558e7990610a8f908590600401612e68565b60206040518083038186803b158015610aa757600080fd5b505afa158015610abb573d6000803e3d6000fd5b505050506040513d601f19601f8201168201806040525081019061042891906127df565b600061042882612006565b606080610af683611e88565b15610ba65760405163672b9f8160e01b81526001600160a01b037f0000000000000000000000000000000000000000000000000000000000000000169063672b9f8190610b499087908790600401612e8b565b60006040518083038186803b158015610b6157600080fd5b505afa158015610b75573d6000803e3d6000fd5b505050506040513d6000823e601f3d908101601f19168201604052610b9d919081019061288e565b91509150610c56565b6000610bb184611f07565b9050610bc5816001600160a01b0316611fb1565b15610c545760405163672b9f8160e01b81526001600160a01b0382169063672b9f8190610bf89088908890600401612e8b565b60006040518083038186803b158015610c1057600080fd5b505afa925050508015610c4557506040513d6000823e601f3d908101601f19168201604052610c42919081019061288e565b60015b610c4e57610c54565b90935091505b505b9250929050565b60405163345b169960e11b81526000906001600160a01b037f000000000000000000000000000000000000000000000000000000000000000016906368b62d3290610cb090879087908790600401612e71565b60206040518083038186803b158015610cc857600080fd5b505afa158015610cdc573d6000803e3d6000fd5b505050506040513d601f19601f82011682018060405250810190610d0091906128fc565b949350505050565b6000807f00000000000000000000000000000000000000000000000000000000000000006001600160a01b03166370a08231846040518263ffffffff1660e01b8152600401610d579190612acc565b60206040518083038186803b158015610d6f57600080fd5b505afa158015610d83573d6000803e3d6000fd5b505050506040513d601f19601f82011682018060405250810190610da791906128fc565b90507f00000000000000000000000000000000000000000000000000000000000000006001600160a01b031615610428576040516370a0823160e01b81526001600160a01b037f000000000000000000000000000000000000000000000000000000000000000016906370a0823190610e24908690600401612acc565b60206040518083038186803b158015610e3c57600080fd5b505afa158015610e50573d6000803e3d6000fd5b505050506040513d601f19601f82011682018060405250810190610e7491906128fc565b6107709082612f06565b604051633f1ba3cf60e11b81526000906001600160a01b037f00000000000000000000000000000000000000000000000000000000000000001690637e37479e90610ecd908590600401612acc565b60206040518083038186803b158015610ee557600080fd5b505afa158015610ef9573d6000803e3d6000fd5b505050506040513d601f19601f8201168201806040525081019061042891906128fc565b6060808080846001600160401b03811115610f4857634e487b7160e01b600052604160045260246000fd5b604051908082528060200260200182016040528015610f71578160200160208202803683370190505b509350846001600160401b03811115610f9a57634e487b7160e01b600052604160045260246000fd5b604051908082528060200260200182016040528015610fc3578160200160208202803683370190505b509250846001600160401b03811115610fec57634e487b7160e01b600052604160045260246000fd5b60405190808252806020026020018201604052801561101f57816020015b606081526020019060019003908161100a5790505b509150846001600160401b0381111561104857634e487b7160e01b600052604160045260246000fd5b60405190808252806020026020018201604052801561107b57816020015b60608152602001906001900390816110665790505b50905060005b85811015611185576110ba89898989858181106110ae57634e487b7160e01b600052603260045260246000fd5b90506020020135611b96565b8885815181106110da57634e487b7160e01b600052603260045260246000fd5b6020026020010188868151811061110157634e487b7160e01b600052603260045260246000fd5b6020026020010188878151811061112857634e487b7160e01b600052603260045260246000fd5b6020026020010188888151811061114f57634e487b7160e01b600052603260045260246000fd5b6020908102919091010193909352929091526001600160a01b03928316909152911690528061117d81612f4e565b915050611081565b50945094509450949050565b60008060606111a1868686612027565b9250925092505b93509350939050565b60608080836001600160401b038111156111db57634e487b7160e01b600052604160045260246000fd5b604051908082528060200260200182016040528015611204578160200160208202803683370190505b509250836001600160401b0381111561122d57634e487b7160e01b600052604160045260246000fd5b604051908082528060200260200182016040528015611256578160200160208202803683370190505b509150836001600160401b0381111561127f57634e487b7160e01b600052604160045260246000fd5b6040519080825280602002602001820160405280156112b257816020015b606081526020019060019003908161129d5790505b50905060005b84811015611391576112f188888888858181106112e557634e487b7160e01b600052603260045260246000fd5b90506020020135612027565b86848151811061131157634e487b7160e01b600052603260045260246000fd5b6020026020010186858151811061133857634e487b7160e01b600052603260045260246000fd5b6020026020010186868151811061135f57634e487b7160e01b600052603260045260246000fd5b60209081029190910101929092526001600160a01b03928316909152911690528061138981612f4e565b9150506112b8565b509450945094915050565b604051806040016040528060118152602001702aa7299d10283937bc3c902932b0b232b960791b81525081565b604051634f558e7960e01b81526000906001600160a01b037f00000000000000000000000000000000000000000000000000000000000000001690634f558e7990611418908590600401612e68565b60206040518083038186803b15801561143057600080fd5b505afa158015611444573d6000803e3d6000fd5b505050506040513d601f19601f8201168201806040525081019061146891906127df565b1561149457507f000000000000000000000000000000000000000000000000000000000000000061042b565b7f00000000000000000000000000000000000000000000000000000000000000006001600160a01b0316158015906114de575060006114d283611fb7565b6001600160a01b031614155b1561150a57507f000000000000000000000000000000000000000000000000000000000000000061042b565b506000919050565b6060816001600160401b0381111561153a57634e487b7160e01b600052604160045260246000fd5b60405190808252806020026020018201604052801561156d57816020015b60608152602001906001900390816115585790505b50905060005b82811015611629576115eb3085858481811061159f57634e487b7160e01b600052603260045260246000fd5b90506020028101906115b19190612e99565b8080601f0160208091040260200160405190810160405280939291908181526020018383808284376000920191909152506122b492505050565b82828151811061160b57634e487b7160e01b600052603260045260246000fd5b6020026020010181905250808061162190612f4e565b915050611573565b5092915050565b600061163b82611e88565b61168b5760405163b3f9e4cb60e01b81526001600160a01b037f0000000000000000000000000000000000000000000000000000000000000000169063b3f9e4cb906104ae908590600401612e68565b60405163b3f9e4cb60e01b81526001600160a01b037f0000000000000000000000000000000000000000000000000000000000000000169063b3f9e4cb9061054f908590600401612e68565b606080836001600160401b0381111561170057634e487b7160e01b600052604160045260246000fd5b60405190808252806020026020018201604052801561173357816020015b606081526020019060019003908161171e5790505b509150836001600160401b0381111561175c57634e487b7160e01b600052604160045260246000fd5b60405190808252806020026020018201604052801561178f57816020015b606081526020019060019003908161177a5790505b50905061179b83611e88565b1561184d5760405163170b5fa560e31b81526001600160a01b037f0000000000000000000000000000000000000000000000000000000000000000169063b85afd28906117f090889088908890600401612d43565b60006040518083038186803b15801561180857600080fd5b505afa15801561181c573d6000803e3d6000fd5b505050506040513d6000823e601f3d908101601f191682016040526118449190810190612707565b9150915061190a565b600061185884611f07565b905061186c816001600160a01b0316611fb1565b801561187757508415155b156119085760405163170b5fa560e31b81526001600160a01b0382169063b85afd28906118ac90899089908990600401612d43565b60006040518083038186803b1580156118c457600080fd5b505afa9250505080156118f957506040513d6000823e601f3d908101601f191682016040526118f69190810190612707565b60015b61190257611908565b90935091505b505b935093915050565b6060816001600160401b0381111561193a57634e487b7160e01b600052604160045260246000fd5b604051908082528060200260200182016040528015611963578160200160208202803683370190505b50905060005b82811015611629576119a084848381811061199457634e487b7160e01b600052603260045260246000fd5b90506020020135612006565b8282815181106119c057634e487b7160e01b600052603260045260246000fd5b6001600160a01b0390921660209283029190910190910152806119e281612f4e565b915050611969565b60606119f582611e88565b611a995760405163c87b56dd60e01b81526001600160a01b037f0000000000000000000000000000000000000000000000000000000000000000169063c87b56dd90611a45908590600401612e68565b60006040518083038186803b158015611a5d57600080fd5b505afa158015611a71573d6000803e3d6000fd5b505050506040513d6000823e601f3d908101601f191682016040526104fe919081019061285c565b60405163c87b56dd60e01b81526001600160a01b037f0000000000000000000000000000000000000000000000000000000000000000169063c87b56dd90611ae5908590600401612e68565b60006040518083038186803b158015611afd57600080fd5b505afa158015611b11573d6000803e3d6000fd5b505050506040513d6000823e601f3d908101601f19168201604052610428919081019061285c565b600060405162461bcd60e51b8152600401611b5390612deb565b60405180910390fd5b60405180604001604052806005815260200164302e322e3360d81b81525081565b6001600160e01b031981166301ffc9a760e01b14919050565b600080606080856001600160401b03811115611bc257634e487b7160e01b600052604160045260246000fd5b604051908082528060200260200182016040528015611bf557816020015b6060815260200190600190039081611be05790505b509150856001600160401b03811115611c1e57634e487b7160e01b600052604160045260246000fd5b604051908082528060200260200182016040528015611c5157816020015b6060815260200190600190039081611c3c5790505b509050611c5d85611e88565b15611dba5760405163b3f9e4cb60e01b81526001600160a01b037f0000000000000000000000000000000000000000000000000000000000000000169063b3f9e4cb90611cae908890600401612e68565b60206040518083038186803b158015611cc657600080fd5b505afa158015611cda573d6000803e3d6000fd5b505050506040513d601f19601f82011682018060405250810190611cfe9190612566565b9350611d0985612367565b60405163170b5fa560e31b81529093506001600160a01b037f0000000000000000000000000000000000000000000000000000000000000000169063b85afd2890611d5c908a908a908a90600401612d43565b60006040518083038186803b158015611d7457600080fd5b505afa158015611d88573d6000803e3d6000fd5b505050506040513d6000823e601f3d908101601f19168201604052611db09190810190612707565b909250905061044a565b611dc385611f07565b9350611dce85611fb7565b9250611de2846001600160a01b0316611fb1565b8015611def575060008251115b1561044a5760405163170b5fa560e31b81526001600160a01b0385169063b85afd2890611e24908a908a908a90600401612d43565b60006040518083038186803b158015611e3c57600080fd5b505afa925050508015611e7157506040513d6000823e601f3d908101601f19168201604052611e6e9190810190612707565b60015b611e7a5761044a565b909250905093509350935093565b60007f00000000000000000000000000000000000000000000000000000000000000006001600160a01b031615806104285750604051634f558e7960e01b81526001600160a01b037f00000000000000000000000000000000000000000000000000000000000000001690634f558e7990610a8f908590600401612e68565b60405163b3f9e4cb60e01b81526000906001600160a01b037f0000000000000000000000000000000000000000000000000000000000000000169063b3f9e4cb90611f56908590600401612e68565b60206040518083038186803b158015611f6e57600080fd5b505afa925050508015611f9e575060408051601f3d908101601f19168201909252611f9b91810190612566565b60015b611faa5750600061042b565b905061042b565b3b151590565b6040516331a9108f60e11b81526000906001600160a01b037f00000000000000000000000000000000000000000000000000000000000000001690636352211e90611f56908590600401612e68565b600061201182611e88565b61201e576104fe82611fb7565b61042882612367565b6000806060846001600160401b0381111561205257634e487b7160e01b600052604160045260246000fd5b60405190808252806020026020018201604052801561208557816020015b60608152602001906001900390816120705790505b50905061209184611e88565b156121eb5760405163b3f9e4cb60e01b81526001600160a01b037f0000000000000000000000000000000000000000000000000000000000000000169063b3f9e4cb906120e2908790600401612e68565b60206040518083038186803b1580156120fa57600080fd5b505afa15801561210e573d6000803e3d6000fd5b505050506040513d601f19601f820116820180604052508101906121329190612566565b925061213d84612367565b604051630dec660d60e11b81529092506001600160a01b037f00000000000000000000000000000000000000000000000000000000000000001690631bd8cc1a9061219090899089908990600401612c71565b60006040518083038186803b1580156121a857600080fd5b505afa1580156121bc573d6000803e3d6000fd5b505050506040513d6000823e601f3d908101601f191682016040526121e491908101906126d5565b90506111a8565b6121f484611f07565b92506121ff84611fb7565b9150612213836001600160a01b0316611fb1565b801561221e57508415155b156111a857604051630dec660d60e11b81526001600160a01b03841690631bd8cc1a9061225390899089908990600401612c71565b60006040518083038186803b15801561226b57600080fd5b505afa9250505080156122a057506040513d6000823e601f3d908101601f1916820160405261229d91908101906126d5565b60015b6122a9576111a8565b905093509350939050565b60606122bf83611fb1565b6122db5760405162461bcd60e51b8152600401611b5390612e22565b600080846001600160a01b0316846040516122f69190612ab0565b600060405180830381855af49150503d8060008114612331576040519150601f19603f3d011682016040523d82523d6000602084013e612336565b606091505b509150915061235e8282604051806060016040528060278152602001612fae602791396123b6565b95945050505050565b6040516331a9108f60e11b81526000906001600160a01b037f00000000000000000000000000000000000000000000000000000000000000001690636352211e90611f56908590600401612e68565b606083156123c5575081610770565b8251156123d55782518084602001fd5b8160405162461bcd60e51b8152600401611b539190612db3565b60008083601f840112612400578182fd5b5081356001600160401b03811115612416578182fd5b6020830191508360208083028501011115610c5657600080fd5b600082601f830112612440578081fd5b815160206001600160401b0382111561245b5761245b612f7f565b6124688182840201612edd565b82815281810190858301855b8581101561249d5761248b898684518b01016124e9565b84529284019290840190600101612474565b5090979650505050505050565b60008083601f8401126124bb578182fd5b5081356001600160401b038111156124d1578182fd5b602083019150836020828501011115610c5657600080fd5b600082601f8301126124f9578081fd5b81516001600160401b0381111561251257612512612f7f565b612525601f8201601f1916602001612edd565b818152846020838601011115612539578283fd5b610d00826020830160208701612f1e565b60006020828403121561255b578081fd5b813561077081612f95565b600060208284031215612577578081fd5b815161077081612f95565b60008060408385031215612594578081fd5b823561259f81612f95565b915060208301356125af81612f95565b809150509250929050565b600080604083850312156125cc578182fd5b82356125d781612f95565b946020939093013593505050565b600080602083850312156125f7578182fd5b82356001600160401b0381111561260c578283fd5b612618858286016123ef565b90969095509350505050565b60008060008060408587031215612639578182fd5b84356001600160401b038082111561264f578384fd5b61265b888389016123ef565b90965094506020870135915080821115612673578384fd5b50612680878288016123ef565b95989497509550505050565b6000806000604084860312156126a0578283fd5b83356001600160401b038111156126b5578384fd5b6126c1868287016123ef565b909790965060209590950135949350505050565b6000602082840312156126e6578081fd5b81516001600160401b038111156126fb578182fd5b610d0084828501612430565b60008060408385031215612719578182fd5b82516001600160401b038082111561272f578384fd5b61273b86838701612430565b93506020850151915080821115612750578283fd5b5061275d85828601612430565b9150509250929050565b6000806000806040858703121561277c578081fd5b84356001600160401b0380821115612792578283fd5b61279e888389016123ef565b90965094506020870135915080821115612673578283fd5b6000806000604084860312156127ca578081fd5b83356001600160401b038111156126b5578182fd5b6000602082840312156127f0578081fd5b81518015158114610770578182fd5b600060208284031215612810578081fd5b81356001600160e01b031981168114610770578182fd5b60008060006040848603121561283b578081fd5b83356001600160401b03811115612850578182fd5b6126c1868287016124aa565b60006020828403121561286d578081fd5b81516001600160401b03811115612882578182fd5b610d00848285016124e9565b600080604083850312156128a0578182fd5b82516001600160401b03808211156128b6578384fd5b6128c2868387016124e9565b935060208501519150808211156128d7578283fd5b5061275d858286016124e9565b6000602082840312156128f5578081fd5b5035919050565b60006020828403121561290d578081fd5b5051919050565b600080600060408486031215612928578081fd5b8335925060208401356001600160401b03811115612944578182fd5b612950868287016124aa565b9497909650939450505050565b6000806040838503121561296f578182fd5b50508035926020909101359150565b6000815180845260208085019450808401835b838110156129b65781516001600160a01b031687529582019590820190600101612991565b509495945050505050565b6000815180845260208085018081965082840281019150828601855b85811015612a075782840389526129f5848351612a14565b988501989350908401906001016129dd565b5091979650505050505050565b6000815180845260208085018081965082840281019150828601855b85811015612a07578284038952612a48848351612a5a565b98850198935090840190600101612a30565b60008151808452612a72816020860160208601612f1e565b601f01601f19169290920160200192915050565b60008284528282602086013780602084860101526020601f19601f85011685010190509392505050565b60008251612ac2818460208701612f1e565b9190910192915050565b6001600160a01b0391909116815260200190565b6001600160a01b0384811682528316602082015260606040820181905260009061235e90830184612a14565b6001600160a01b03858116825284166020820152608060408201819052600090612b3890830185612a14565b8281036060840152612b4a8185612a14565b979650505050505050565b6001600160a01b03929092168252602082015260400190565b600060208252610770602083018461297e565b600060608252612b94606083018661297e565b8281036020840152612ba6818661297e565b90508281036040840152612bba81856129c1565b9695505050505050565b600060808252612bd7608083018761297e565b8281036020840152612be9818761297e565b90508281036040840152612bfd81866129c1565b90508281036060840152612b4a81856129c1565b6000602080830181845280855180835260408601915060408482028701019250838701855b82811015612c6457603f19888603018452612c52858351612a5a565b94509285019290850190600101612c36565b5092979650505050505050565b604080825281018390526000602060608084019082870285010187845b88811015612cf957868303605f190184528135368b9003601e19018112612cb3578687fd5b8a0180356001600160401b03811115612cca578788fd5b8036038c1315612cd8578788fd5b612ce58582898501612a86565b958701959450505090840190600101612c8e565b50509390910193909352509392505050565b6000602082526107706020830184612a14565b600060408252612d316040830185612a14565b828103602084015261235e8185612a14565b6040808252810183905260006001600160fb1b03841115612d62578081fd5b6020840280866060850137820160600190815260209091019190915292915050565b901515815260200190565b600060408252612da3604083018587612a86565b9050826020830152949350505050565b6000602082526107706020830184612a5a565b600060408252612dd96040830185612a5a565b828103602084015261235e8185612a5a565b6020808252601f908201527f50726f78795265616465723a20554e535550504f525445445f4d4554484f4400604082015260600190565b60208082526026908201527f416464726573733a2064656c65676174652063616c6c20746f206e6f6e2d636f6040820152651b9d1c9858dd60d21b606082015260800190565b90815260200190565b60008482526040602083015261235e604083018486612a86565b918252602082015260400190565b6000808335601e19843603018112612eaf578283fd5b8301803591506001600160401b03821115612ec8578283fd5b602001915036819003821315610c5657600080fd5b6040518181016001600160401b0381118282101715612efe57612efe612f7f565b604052919050565b60008219821115612f1957612f19612f69565b500190565b60005b83811015612f39578181015183820152602001612f21565b83811115612f48576000848401525b50505050565b6000600019821415612f6257612f62612f69565b5060010190565b634e487b7160e01b600052601160045260246000fd5b634e487b7160e01b600052604160045260246000fd5b6001600160a01b0381168114612faa57600080fd5b5056fe416464726573733a206c6f772d6c6576656c2064656c65676174652063616c6c206661696c6564a164736f6c6343000800000a",
  "linkReferences": {},
  "deployedLinkReferences": {}
}