{
  "_format": "hh-sol-artifact-1",
  "contractName": "ProxyReader",
  "sourceName": "contracts/ProxyReader.sol",
  "abi": [
    {
      "inputs": [
        {
          "internalType": "contract IUNSRegistry",
          "name": "unsRegistry",
          "type": "address"
        },
        {
          "internalType": "contract ICNSRegistry",
          "name": "cnsRegistry",
          "type": "address"
        }
      ],
      "stateMutability": "nonpayable",
      "type": "constructor"
    },
    {
      "inputs": [],
      "name": "NAME",
      "outputs": [
        {
          "internalType": "string",
          "name": "",
          "type": "string"
        }
      ],
      "stateMutability": "view",
      "type": "function"
    },
    {
      "inputs": [],
      "name": "VERSION",
      "outputs": [
        {
          "internalType": "string",
          "name": "",
          "type": "string"
        }
      ],
      "stateMutability": "view",
      "type": "function"
    },
    {
      "inputs": [
        {
          "internalType": "address",
          "name": "owner",
          "type": "address"
        }
      ],
      "name": "balanceOf",
      "outputs": [
        {
          "internalType": "uint256",
          "name": "",
          "type": "uint256"
        }
      ],
      "stateMutability": "view",
      "type": "function"
    },
    {
      "inputs": [
        {
          "internalType": "uint256",
          "name": "tokenId",
          "type": "uint256"
        },
        {
          "internalType": "string",
          "name": "label",
          "type": "string"
        }
      ],
      "name": "childIdOf",
      "outputs": [
        {
          "internalType": "uint256",
          "name": "",
          "type": "uint256"
        }
      ],
      "stateMutability": "view",
      "type": "function"
    },
    {
      "inputs": [
        {
          "internalType": "uint256",
          "name": "tokenId",
          "type": "uint256"
        }
      ],
      "name": "exists",
      "outputs": [
        {
          "internalType": "bool",
          "name": "",
          "type": "bool"
        }
      ],
      "stateMutability": "view",
      "type": "function"
    },
    {
      "inputs": [
        {
          "internalType": "string",
          "name": "key",
          "type": "string"
        },
        {
          "internalType": "uint256",
          "name": "tokenId",
          "type": "uint256"
        }
      ],
      "name": "get",
      "outputs": [
        {
          "internalType": "string",
          "name": "value",
          "type": "string"
        }
      ],
      "stateMutability": "view",
      "type": "function"
    },
    {
      "inputs": [
        {
          "internalType": "uint256",
          "name": "tokenId",
          "type": "uint256"
        }
      ],
      "name": "getApproved",
      "outputs": [
        {
          "internalType": "address",
          "name": "",
          "type": "address"
        }
      ],
      "stateMutability": "view",
      "type": "function"
    },
    {
      "inputs": [
        {
          "internalType": "uint256",
          "name": "keyHash",
          "type": "uint256"
        },
        {
          "internalType": "uint256",
          "name": "tokenId",
          "type": "uint256"
        }
      ],
      "name": "getByHash",
      "outputs": [
        {
          "internalType": "string",
          "name": "key",
          "type": "string"
        },
        {
          "internalType": "string",
          "name": "value",
          "type": "string"
        }
      ],
      "stateMutability": "view",
      "type": "function"
    },
    {
      "inputs": [
        {
          "internalType": "string[]",
          "name": "keys",
          "type": "string[]"
        },
        {
          "internalType": "uint256",
          "name": "tokenId",
          "type": "uint256"
        }
      ],
      "name": "getData",
      "outputs": [
        {
          "internalType": "address",
          "name": "resolver",
          "type": "address"
        },
        {
          "internalType": "address",
          "name": "owner",
          "type": "address"
        },
        {
          "internalType": "string[]",
          "name": "values",
          "type": "string[]"
        }
      ],
      "stateMutability": "view",
      "type": "function"
    },
    {
      "inputs": [
        {
          "internalType": "uint256[]",
          "name": "keyHashes",
          "type": "uint256[]"
        },
        {
          "internalType": "uint256",
          "name": "tokenId",
          "type": "uint256"
        }
      ],
      "name": "getDataByHash",
      "outputs": [
        {
          "internalType": "address",
          "name": "resolver",
          "type": "address"
        },
        {
          "internalType": "address",
          "name": "owner",
          "type": "address"
        },
        {
          "internalType": "string[]",
          "name": "keys",
          "type": "string[]"
        },
        {
          "internalType": "string[]",
          "name": "values",
          "type": "string[]"
        }
      ],
      "stateMutability": "view",
      "type": "function"
    },
    {
      "inputs": [
        {
          "internalType": "uint256[]",
          "name": "keyHashes",
          "type": "uint256[]"
        },
        {
          "internalType": "uint256[]",
          "name": "tokenIds",
          "type": "uint256[]"
        }
      ],
      "name": "getDataByHashForMany",
      "outputs": [
        {
          "internalType": "address[]",
          "name": "resolvers",
          "type": "address[]"
        },
        {
          "internalType": "address[]",
          "name": "owners",
          "type": "address[]"
        },
        {
          "internalType": "string[][]",
          "name": "keys",
          "type": "string[][]"
        },
        {
          "internalType": "string[][]",
          "name": "values",
          "type": "string[][]"
        }
      ],
      "stateMutability": "view",
      "type": "function"
    },
    {
      "inputs": [
        {
          "internalType": "string[]",
          "name": "keys",
          "type": "string[]"
        },
        {
          "internalType": "uint256[]",
          "name": "tokenIds",
          "type": "uint256[]"
        }
      ],
      "name": "getDataForMany",
      "outputs": [
        {
          "internalType": "address[]",
          "name": "resolvers",
          "type": "address[]"
        },
        {
          "internalType": "address[]",
          "name": "owners",
          "type": "address[]"
        },
        {
          "internalType": "string[][]",
          "name": "values",
          "type": "string[][]"
        }
      ],
      "stateMutability": "view",
      "type": "function"
    },
    {
      "inputs": [
        {
          "internalType": "string[]",
          "name": "keys",
          "type": "string[]"
        },
        {
          "internalType": "uint256",
          "name": "tokenId",
          "type": "uint256"
        }
      ],
      "name": "getMany",
      "outputs": [
        {
          "internalType": "string[]",
          "name": "values",
          "type": "string[]"
        }
      ],
      "stateMutability": "view",
      "type": "function"
    },
    {
      "inputs": [
        {
          "internalType": "uint256[]",
          "name": "keyHashes",
          "type": "uint256[]"
        },
        {
          "internalType": "uint256",
          "name": "tokenId",
          "type": "uint256"
        }
      ],
      "name": "getManyByHash",
      "outputs": [
        {
          "internalType": "string[]",
          "name": "keys",
          "type": "string[]"
        },
        {
          "internalType": "string[]",
          "name": "values",
          "type": "string[]"
        }
      ],
      "stateMutability": "view",
      "type": "function"
    },
    {
      "inputs": [
        {
          "internalType": "address",
          "name": "",
          "type": "address"
        },
        {
          "internalType": "address",
          "name": "",
          "type": "address"
        }
      ],
      "name": "isApprovedForAll",
      "outputs": [
        {
          "internalType": "bool",
          "name": "",
          "type": "bool"
        }
      ],
      "stateMutability": "pure",
      "type": "function"
    },
    {
      "inputs": [
        {
          "internalType": "address",
          "name": "spender",
          "type": "address"
        },
        {
          "internalType": "uint256",
          "name": "tokenId",
          "type": "uint256"
        }
      ],
      "name": "isApprovedOrOwner",
      "outputs": [
        {
          "internalType": "bool",
          "name": "",
          "type": "bool"
        }
      ],
      "stateMutability": "view",
      "type": "function"
    },
    {
      "inputs": [
        {
          "internalType": "bytes[]",
          "name": "data",
          "type": "bytes[]"
        }
      ],
      "name": "multicall",
      "outputs": [
        {
          "internalType": "bytes[]",
          "name": "results",
          "type": "bytes[]"
        }
      ],
      "stateMutability": "nonpayable",
      "type": "function"
    },
    {
      "inputs": [
        {
          "internalType": "uint256",
          "name": "tokenId",
          "type": "uint256"
        }
      ],
      "name": "ownerOf",
      "outputs": [
        {
          "internalType": "address",
          "name": "",
          "type": "address"
        }
      ],
      "stateMutability": "view",
      "type": "function"
    },
    {
      "inputs": [
        {
          "internalType": "uint256[]",
          "name": "tokenIds",
          "type": "uint256[]"
        }
      ],
      "name": "ownerOfForMany",
      "outputs": [
        {
          "internalType": "address[]",
          "name": "owners",
          "type": "address[]"
        }
      ],
      "stateMutability": "view",
      "type": "function"
    },
    {
      "inputs": [
        {
          "internalType": "uint256",
          "name": "tokenId",
          "type": "uint256"
        }
      ],
      "name": "registryOf",
      "outputs": [
        {
          "internalType": "address",
          "name": "",
          "type": "address"
        }
      ],
      "stateMutability": "view",
      "type": "function"
    },
    {
      "inputs": [
        {
          "internalType": "uint256",
          "name": "tokenId",
          "type": "uint256"
        }
      ],
      "name": "resolverOf",
      "outputs": [
        {
          "internalType": "address",
          "name": "",
          "type": "address"
        }
      ],
      "stateMutability": "view",
      "type": "function"
    },
    {
      "inputs": [
        {
          "internalType": "bytes4",
          "name": "interfaceId",
          "type": "bytes4"
        }
      ],
      "name": "supportsInterface",
      "outputs": [
        {
          "internalType": "bool",
          "name": "",
          "type": "bool"
        }
      ],
      "stateMutability": "view",
      "type": "function"
    },
    {
      "inputs": [
        {
          "internalType": "uint256",
          "name": "tokenId",
          "type": "uint256"
        }
      ],
      "name": "tokenURI",
      "outputs": [
        {
          "internalType": "string",
          "name": "",
          "type": "string"
        }
      ],
      "stateMutability": "view",
      "type": "function"
    }
  ],
  "bytecode": "0x60c06040523480156200001157600080fd5b5060405162003172380380620031728339810160408190526200003491620000e4565b6001600160601b0319606083811b821660805282901b1660a0526200005862000060565b505062000186565b600054610100900460ff16806200007a575060005460ff16155b620000a25760405162461bcd60e51b8152600401620000999062000122565b60405180910390fd5b600054610100900460ff16158015620000ce576000805460ff1961ff0019909116610100171660011790555b8015620000e1576000805461ff00191690555b50565b60008060408385031215620000f7578182fd5b8251620001048162000170565b6020840151909250620001178162000170565b809150509250929050565b6020808252602e908201527f496e697469616c697a61626c653a20636f6e747261637420697320616c72656160408201526d191e481a5b9a5d1a585b1a5e995960921b606082015260800190565b6001600160a01b0381168114620000e157600080fd5b60805160601c60a05160601c612efc620002766000396000818161045b015281816108c301528181610d7701528181610dbb015281816113c301528181611413015281816115830152818161193701528181611dad01528181611e420152611eec0152600081816104fc015281816106040152818161077a0152818161096601528181610a2e01528181610ae601528181610c4301528181610cd9015281816113100152818161139d015281816115cf015281816116e4015281816119d701528181611ba001528181611c4a01528181611df301528181611fc80152818161207201526122960152612efc6000f3fe608060405234801561001057600080fd5b506004361061014d5760003560e01c8063869b8884116100c3578063b3f9e4cb1161007c578063b3f9e4cb1461032d578063b85afd2814610340578063c15ae7cf14610361578063c87b56dd14610381578063e985e9c514610394578063ffa1ad74146103a75761014d565b8063869b88841461028b57806391015f6b146102ae578063933c051d146102d0578063a3f4df7e146102f2578063a81ce6f9146102fa578063ac9650d81461030d5761014d565b8063430c208111610115578063430c2081146101fe5780634f558e79146102115780636352211e14610224578063672b9f811461023757806368b62d321461025857806370a08231146102785761014d565b806301ffc9a714610152578063032807551461017b578063081812fc1461019e5780631bd8cc1a146101be5780631be5e7ed146101de575b600080fd5b61016561016036600461271a565b6103af565b6040516101729190612c9f565b60405180910390f35b61018e6101893660046126d1565b610412565b6040516101729493929190612a27565b6101b16101ac3660046127ff565b610435565b60405161017291906129e7565b6101d16101cc3660046125a7565b610581565b6040516101729190612c26565b6101f16101ec366004612742565b610753565b6040516101729190612cce565b61016561020c3660046124d5565b61089d565b61016561021f3660046127ff565b6109ed565b6101b16102323660046127ff565b610ab3565b61024a610245366004612878565b610abe565b604051610172929190612ce1565b61026b61026636600461282f565b610c29565b6040516101729190612d83565b61026b610286366004612465565b610cd4565b61029e610299366004612682565b610e4a565b6040516101729493929190612adf565b6102c16102bc3660046125a7565b6110be565b604051610172939291906129fb565b6102e36102de36600461253f565b6110de565b60405161017293929190612a9c565b6101f16112c9565b6101b16103083660046127ff565b6112f6565b61032061031b366004612500565b61143f565b6040516101729190612b2c565b6101b161033b3660046127ff565b61155d565b61035361034e3660046126d1565b611604565b604051610172929190612c39565b61037461036f366004612500565b611839565b6040516101729190612a89565b6101f161038f3660046127ff565b611911565b6101656103a236600461249d565b611a60565b6101f1611a83565b60006001600160e01b0319821663768134e560e11b14806103e057506001600160e01b03198216636fa624af60e11b145b806103fb57506001600160e01b031982166308da864d60e31b145b8061040a575061040a82611aa4565b90505b919050565b600080606080610423878787611abd565b93509350935093505b93509350935093565b600061044082611da9565b6104e55760405163020604bf60e21b81526001600160a01b037f0000000000000000000000000000000000000000000000000000000000000000169063081812fc90610490908590600401612d83565b60206040518083038186803b1580156104a857600080fd5b505afa1580156104bc573d6000803e3d6000fd5b505050506040513d601f19601f820116820180604052508101906104e09190612481565b61040a565b60405163020604bf60e21b81526001600160a01b037f0000000000000000000000000000000000000000000000000000000000000000169063081812fc90610531908590600401612d83565b60206040518083038186803b15801561054957600080fd5b505afa15801561055d573d6000803e3d6000fd5b505050506040513d601f19601f8201168201806040525081019061040a9190612481565b6060826001600160401b038111156105a957634e487b7160e01b600052604160045260246000fd5b6040519080825280602002602001820160405280156105dc57816020015b60608152602001906001900390816105c75790505b5090506105e882611da9565b1561069857604051630dec660d60e11b81526001600160a01b037f00000000000000000000000000000000000000000000000000000000000000001690631bd8cc1a9061063d90879087908790600401612b8c565b60006040518083038186803b15801561065557600080fd5b505afa158015610669573d6000803e3d6000fd5b505050506040513d6000823e601f3d908101601f1916820160405261069191908101906125f0565b905061074c565b60006106a383611e28565b90506001600160a01b038116158015906106bc57508315155b1561074a57604051630dec660d60e11b81526001600160a01b03821690631bd8cc1a906106f190889088908890600401612b8c565b60006040518083038186803b15801561070957600080fd5b505afa92505050801561073e57506040513d6000823e601f3d908101601f1916820160405261073b91908101906125f0565b60015b6107475761074a565b91505b505b9392505050565b606061075e82611da9565b1561080757604051631be5e7ed60e01b81526001600160a01b037f00000000000000000000000000000000000000000000000000000000000000001690631be5e7ed906107b390879087908790600401612caa565b60006040518083038186803b1580156107cb57600080fd5b505afa1580156107df573d6000803e3d6000fd5b505050506040513d6000823e601f3d908101601f191682016040526106919190810190612777565b600061081283611e28565b90506001600160a01b0381161561074a57604051631be5e7ed60e01b81526001600160a01b03821690631be5e7ed9061085390889088908890600401612caa565b60006040518083038186803b15801561086b57600080fd5b505afa92505050801561073e57506040513d6000823e601f3d908101601f1916820160405261073b9190810190612777565b60006108a882611da9565b61094f5760405163430c208160e01b81526001600160a01b037f0000000000000000000000000000000000000000000000000000000000000000169063430c2081906108fa9086908690600401612a70565b60206040518083038186803b15801561091257600080fd5b505afa158015610926573d6000803e3d6000fd5b505050506040513d601f19601f8201168201806040525081019061094a91906126fa565b61074c565b60405163430c208160e01b81526001600160a01b037f0000000000000000000000000000000000000000000000000000000000000000169063430c20819061099d9086908690600401612a70565b60206040518083038186803b1580156109b557600080fd5b505afa1580156109c9573d6000803e3d6000fd5b505050506040513d601f19601f8201168201806040525081019061074c91906126fa565b60006109f882611da9565b610a17576000610a0783611ed2565b6001600160a01b0316141561040a565b604051634f558e7960e01b81526001600160a01b037f00000000000000000000000000000000000000000000000000000000000000001690634f558e7990610a63908590600401612d83565b60206040518083038186803b158015610a7b57600080fd5b505afa158015610a8f573d6000803e3d6000fd5b505050506040513d601f19601f8201168201806040525081019061040a91906126fa565b600061040a82611f21565b606080610aca83611da9565b15610b7a5760405163672b9f8160e01b81526001600160a01b037f0000000000000000000000000000000000000000000000000000000000000000169063672b9f8190610b1d9087908790600401612da6565b60006040518083038186803b158015610b3557600080fd5b505afa158015610b49573d6000803e3d6000fd5b505050506040513d6000823e601f3d908101601f19168201604052610b7191908101906127a9565b91509150610c22565b6000610b8584611e28565b90506001600160a01b03811615610c205760405163672b9f8160e01b81526001600160a01b0382169063672b9f8190610bc49088908890600401612da6565b60006040518083038186803b158015610bdc57600080fd5b505afa925050508015610c1157506040513d6000823e601f3d908101601f19168201604052610c0e91908101906127a9565b60015b610c1a57610c20565b90935091505b505b9250929050565b60405163345b169960e11b81526000906001600160a01b037f000000000000000000000000000000000000000000000000000000000000000016906368b62d3290610c7c90879087908790600401612d8c565b60206040518083038186803b158015610c9457600080fd5b505afa158015610ca8573d6000803e3d6000fd5b505050506040513d601f19601f82011682018060405250810190610ccc9190612817565b949350505050565b6000807f00000000000000000000000000000000000000000000000000000000000000006001600160a01b03166370a08231846040518263ffffffff1660e01b8152600401610d2391906129e7565b60206040518083038186803b158015610d3b57600080fd5b505afa158015610d4f573d6000803e3d6000fd5b505050506040513d601f19601f82011682018060405250810190610d739190612817565b90507f00000000000000000000000000000000000000000000000000000000000000006001600160a01b03161561040a576040516370a0823160e01b81526001600160a01b037f000000000000000000000000000000000000000000000000000000000000000016906370a0823190610df09086906004016129e7565b60206040518083038186803b158015610e0857600080fd5b505afa158015610e1c573d6000803e3d6000fd5b505050506040513d601f19601f82011682018060405250810190610e409190612817565b61074c9082612e21565b6060808080846001600160401b03811115610e7557634e487b7160e01b600052604160045260246000fd5b604051908082528060200260200182016040528015610e9e578160200160208202803683370190505b509350846001600160401b03811115610ec757634e487b7160e01b600052604160045260246000fd5b604051908082528060200260200182016040528015610ef0578160200160208202803683370190505b509250846001600160401b03811115610f1957634e487b7160e01b600052604160045260246000fd5b604051908082528060200260200182016040528015610f4c57816020015b6060815260200190600190039081610f375790505b509150846001600160401b03811115610f7557634e487b7160e01b600052604160045260246000fd5b604051908082528060200260200182016040528015610fa857816020015b6060815260200190600190039081610f935790505b50905060005b858110156110b257610fe78989898985818110610fdb57634e487b7160e01b600052603260045260246000fd5b90506020020135611abd565b88858151811061100757634e487b7160e01b600052603260045260246000fd5b6020026020010188868151811061102e57634e487b7160e01b600052603260045260246000fd5b6020026020010188878151811061105557634e487b7160e01b600052603260045260246000fd5b6020026020010188888151811061107c57634e487b7160e01b600052603260045260246000fd5b6020908102919091010193909352929091526001600160a01b0392831690915291169052806110aa81612e69565b915050610fae565b50945094509450949050565b60008060606110ce868686611f42565b9250925092505b93509350939050565b60608080836001600160401b0381111561110857634e487b7160e01b600052604160045260246000fd5b604051908082528060200260200182016040528015611131578160200160208202803683370190505b509250836001600160401b0381111561115a57634e487b7160e01b600052604160045260246000fd5b604051908082528060200260200182016040528015611183578160200160208202803683370190505b509150836001600160401b038111156111ac57634e487b7160e01b600052604160045260246000fd5b6040519080825280602002602001820160405280156111df57816020015b60608152602001906001900390816111ca5790505b50905060005b848110156112be5761121e888888888581811061121257634e487b7160e01b600052603260045260246000fd5b90506020020135611f42565b86848151811061123e57634e487b7160e01b600052603260045260246000fd5b6020026020010186858151811061126557634e487b7160e01b600052603260045260246000fd5b6020026020010186868151811061128c57634e487b7160e01b600052603260045260246000fd5b60209081029190910101929092526001600160a01b0392831690915291169052806112b681612e69565b9150506111e5565b509450945094915050565b604051806040016040528060118152602001702aa7299d10283937bc3c902932b0b232b960791b81525081565b604051634f558e7960e01b81526000906001600160a01b037f00000000000000000000000000000000000000000000000000000000000000001690634f558e7990611345908590600401612d83565b60206040518083038186803b15801561135d57600080fd5b505afa158015611371573d6000803e3d6000fd5b505050506040513d601f19601f8201168201806040525081019061139591906126fa565b156113c157507f000000000000000000000000000000000000000000000000000000000000000061040d565b7f00000000000000000000000000000000000000000000000000000000000000006001600160a01b03161580159061140b575060006113ff83611ed2565b6001600160a01b031614155b1561143757507f000000000000000000000000000000000000000000000000000000000000000061040d565b506000919050565b6060816001600160401b0381111561146757634e487b7160e01b600052604160045260246000fd5b60405190808252806020026020018201604052801561149a57816020015b60608152602001906001900390816114855790505b50905060005b8281101561155657611518308585848181106114cc57634e487b7160e01b600052603260045260246000fd5b90506020028101906114de9190612db4565b8080601f0160208091040260200160405190810160405280939291908181526020018383808284376000920191909152506121c992505050565b82828151811061153857634e487b7160e01b600052603260045260246000fd5b6020026020010181905250808061154e90612e69565b9150506114a0565b5092915050565b600061156882611da9565b6115b85760405163b3f9e4cb60e01b81526001600160a01b037f0000000000000000000000000000000000000000000000000000000000000000169063b3f9e4cb90610490908590600401612d83565b60405163b3f9e4cb60e01b81526001600160a01b037f0000000000000000000000000000000000000000000000000000000000000000169063b3f9e4cb90610531908590600401612d83565b606080836001600160401b0381111561162d57634e487b7160e01b600052604160045260246000fd5b60405190808252806020026020018201604052801561166057816020015b606081526020019060019003908161164b5790505b509150836001600160401b0381111561168957634e487b7160e01b600052604160045260246000fd5b6040519080825280602002602001820160405280156116bc57816020015b60608152602001906001900390816116a75790505b5090506116c883611da9565b1561177a5760405163170b5fa560e31b81526001600160a01b037f0000000000000000000000000000000000000000000000000000000000000000169063b85afd289061171d90889088908890600401612c5e565b60006040518083038186803b15801561173557600080fd5b505afa158015611749573d6000803e3d6000fd5b505050506040513d6000823e601f3d908101601f191682016040526117719190810190612622565b91509150611831565b600061178584611e28565b90506001600160a01b0381161580159061179e57508415155b1561182f5760405163170b5fa560e31b81526001600160a01b0382169063b85afd28906117d390899089908990600401612c5e565b60006040518083038186803b1580156117eb57600080fd5b505afa92505050801561182057506040513d6000823e601f3d908101601f1916820160405261181d9190810190612622565b60015b6118295761182f565b90935091505b505b935093915050565b6060816001600160401b0381111561186157634e487b7160e01b600052604160045260246000fd5b60405190808252806020026020018201604052801561188a578160200160208202803683370190505b50905060005b82811015611556576118c78484838181106118bb57634e487b7160e01b600052603260045260246000fd5b90506020020135611f21565b8282815181106118e757634e487b7160e01b600052603260045260246000fd5b6001600160a01b03909216602092830291909101909101528061190981612e69565b915050611890565b606061191c82611da9565b6119c05760405163c87b56dd60e01b81526001600160a01b037f0000000000000000000000000000000000000000000000000000000000000000169063c87b56dd9061196c908590600401612d83565b60006040518083038186803b15801561198457600080fd5b505afa158015611998573d6000803e3d6000fd5b505050506040513d6000823e601f3d908101601f191682016040526104e09190810190612777565b60405163c87b56dd60e01b81526001600160a01b037f0000000000000000000000000000000000000000000000000000000000000000169063c87b56dd90611a0c908590600401612d83565b60006040518083038186803b158015611a2457600080fd5b505afa158015611a38573d6000803e3d6000fd5b505050506040513d6000823e601f3d908101601f1916820160405261040a9190810190612777565b600060405162461bcd60e51b8152600401611a7a90612d06565b60405180910390fd5b60405180604001604052806005815260200164302e322e3160d81b81525081565b6001600160e01b031981166301ffc9a760e01b14919050565b600080606080856001600160401b03811115611ae957634e487b7160e01b600052604160045260246000fd5b604051908082528060200260200182016040528015611b1c57816020015b6060815260200190600190039081611b075790505b509150856001600160401b03811115611b4557634e487b7160e01b600052604160045260246000fd5b604051908082528060200260200182016040528015611b7857816020015b6060815260200190600190039081611b635790505b509050611b8485611da9565b15611ce15760405163b3f9e4cb60e01b81526001600160a01b037f0000000000000000000000000000000000000000000000000000000000000000169063b3f9e4cb90611bd5908890600401612d83565b60206040518083038186803b158015611bed57600080fd5b505afa158015611c01573d6000803e3d6000fd5b505050506040513d601f19601f82011682018060405250810190611c259190612481565b9350611c308561227c565b60405163170b5fa560e31b81529093506001600160a01b037f0000000000000000000000000000000000000000000000000000000000000000169063b85afd2890611c83908a908a908a90600401612c5e565b60006040518083038186803b158015611c9b57600080fd5b505afa158015611caf573d6000803e3d6000fd5b505050506040513d6000823e601f3d908101601f19168201604052611cd79190810190612622565b909250905061042c565b611cea85611e28565b9350611cf585611ed2565b92506001600160a01b03841615801590611d10575060008251115b1561042c5760405163170b5fa560e31b81526001600160a01b0385169063b85afd2890611d45908a908a908a90600401612c5e565b60006040518083038186803b158015611d5d57600080fd5b505afa925050508015611d9257506040513d6000823e601f3d908101601f19168201604052611d8f9190810190612622565b60015b611d9b5761042c565b909250905093509350935093565b60007f00000000000000000000000000000000000000000000000000000000000000006001600160a01b0316158061040a5750604051634f558e7960e01b81526001600160a01b037f00000000000000000000000000000000000000000000000000000000000000001690634f558e7990610a63908590600401612d83565b60405163b3f9e4cb60e01b81526000906001600160a01b037f0000000000000000000000000000000000000000000000000000000000000000169063b3f9e4cb90611e77908590600401612d83565b60206040518083038186803b158015611e8f57600080fd5b505afa925050508015611ebf575060408051601f3d908101601f19168201909252611ebc91810190612481565b60015b611ecb5750600061040d565b905061040d565b6040516331a9108f60e11b81526000906001600160a01b037f00000000000000000000000000000000000000000000000000000000000000001690636352211e90611e77908590600401612d83565b6000611f2c82611da9565b611f39576104e082611ed2565b61040a8261227c565b6000806060846001600160401b03811115611f6d57634e487b7160e01b600052604160045260246000fd5b604051908082528060200260200182016040528015611fa057816020015b6060815260200190600190039081611f8b5790505b509050611fac84611da9565b156121065760405163b3f9e4cb60e01b81526001600160a01b037f0000000000000000000000000000000000000000000000000000000000000000169063b3f9e4cb90611ffd908790600401612d83565b60206040518083038186803b15801561201557600080fd5b505afa158015612029573d6000803e3d6000fd5b505050506040513d601f19601f8201168201806040525081019061204d9190612481565b92506120588461227c565b604051630dec660d60e11b81529092506001600160a01b037f00000000000000000000000000000000000000000000000000000000000000001690631bd8cc1a906120ab90899089908990600401612b8c565b60006040518083038186803b1580156120c357600080fd5b505afa1580156120d7573d6000803e3d6000fd5b505050506040513d6000823e601f3d908101601f191682016040526120ff91908101906125f0565b90506110d5565b61210f84611e28565b925061211a84611ed2565b91506001600160a01b0383161580159061213357508415155b156110d557604051630dec660d60e11b81526001600160a01b03841690631bd8cc1a9061216890899089908990600401612b8c565b60006040518083038186803b15801561218057600080fd5b505afa9250505080156121b557506040513d6000823e601f3d908101601f191682016040526121b291908101906125f0565b60015b6121be576110d5565b905093509350939050565b60606121d4836122cb565b6121f05760405162461bcd60e51b8152600401611a7a90612d3d565b600080846001600160a01b03168460405161220b91906129cb565b600060405180830381855af49150503d8060008114612246576040519150601f19603f3d011682016040523d82523d6000602084013e61224b565b606091505b50915091506122738282604051806060016040528060278152602001612ec9602791396122d1565b95945050505050565b6040516331a9108f60e11b81526000906001600160a01b037f00000000000000000000000000000000000000000000000000000000000000001690636352211e90611e77908590600401612d83565b3b151590565b606083156122e057508161074c565b8251156122f05782518084602001fd5b8160405162461bcd60e51b8152600401611a7a9190612cce565b60008083601f84011261231b578182fd5b5081356001600160401b03811115612331578182fd5b6020830191508360208083028501011115610c2257600080fd5b600082601f83011261235b578081fd5b815160206001600160401b0382111561237657612376612e9a565b6123838182840201612df8565b82815281810190858301855b858110156123b8576123a6898684518b0101612404565b8452928401929084019060010161238f565b5090979650505050505050565b60008083601f8401126123d6578182fd5b5081356001600160401b038111156123ec578182fd5b602083019150836020828501011115610c2257600080fd5b600082601f830112612414578081fd5b81516001600160401b0381111561242d5761242d612e9a565b612440601f8201601f1916602001612df8565b818152846020838601011115612454578283fd5b610ccc826020830160208701612e39565b600060208284031215612476578081fd5b813561074c81612eb0565b600060208284031215612492578081fd5b815161074c81612eb0565b600080604083850312156124af578081fd5b82356124ba81612eb0565b915060208301356124ca81612eb0565b809150509250929050565b600080604083850312156124e7578182fd5b82356124f281612eb0565b946020939093013593505050565b60008060208385031215612512578182fd5b82356001600160401b03811115612527578283fd5b6125338582860161230a565b90969095509350505050565b60008060008060408587031215612554578182fd5b84356001600160401b038082111561256a578384fd5b6125768883890161230a565b9096509450602087013591508082111561258e578384fd5b5061259b8782880161230a565b95989497509550505050565b6000806000604084860312156125bb578283fd5b83356001600160401b038111156125d0578384fd5b6125dc8682870161230a565b909790965060209590950135949350505050565b600060208284031215612601578081fd5b81516001600160401b03811115612616578182fd5b610ccc8482850161234b565b60008060408385031215612634578182fd5b82516001600160401b038082111561264a578384fd5b6126568683870161234b565b9350602085015191508082111561266b578283fd5b506126788582860161234b565b9150509250929050565b60008060008060408587031215612697578081fd5b84356001600160401b03808211156126ad578283fd5b6126b98883890161230a565b9096509450602087013591508082111561258e578283fd5b6000806000604084860312156126e5578081fd5b83356001600160401b038111156125d0578182fd5b60006020828403121561270b578081fd5b8151801515811461074c578182fd5b60006020828403121561272b578081fd5b81356001600160e01b03198116811461074c578182fd5b600080600060408486031215612756578081fd5b83356001600160401b0381111561276b578182fd5b6125dc868287016123c5565b600060208284031215612788578081fd5b81516001600160401b0381111561279d578182fd5b610ccc84828501612404565b600080604083850312156127bb578182fd5b82516001600160401b03808211156127d1578384fd5b6127dd86838701612404565b935060208501519150808211156127f2578283fd5b5061267885828601612404565b600060208284031215612810578081fd5b5035919050565b600060208284031215612828578081fd5b5051919050565b600080600060408486031215612843578081fd5b8335925060208401356001600160401b0381111561285f578182fd5b61286b868287016123c5565b9497909650939450505050565b6000806040838503121561288a578182fd5b50508035926020909101359150565b6000815180845260208085019450808401835b838110156128d15781516001600160a01b0316875295820195908201906001016128ac565b509495945050505050565b6000815180845260208085018081965082840281019150828601855b8581101561292257828403895261291084835161292f565b988501989350908401906001016128f8565b5091979650505050505050565b6000815180845260208085018081965082840281019150828601855b85811015612922578284038952612963848351612975565b9885019893509084019060010161294b565b6000815180845261298d816020860160208601612e39565b601f01601f19169290920160200192915050565b60008284528282602086013780602084860101526020601f19601f85011685010190509392505050565b600082516129dd818460208701612e39565b9190910192915050565b6001600160a01b0391909116815260200190565b6001600160a01b038481168252831660208201526060604082018190526000906122739083018461292f565b6001600160a01b03858116825284166020820152608060408201819052600090612a539083018561292f565b8281036060840152612a65818561292f565b979650505050505050565b6001600160a01b03929092168252602082015260400190565b60006020825261074c6020830184612899565b600060608252612aaf6060830186612899565b8281036020840152612ac18186612899565b90508281036040840152612ad581856128dc565b9695505050505050565b600060808252612af26080830187612899565b8281036020840152612b048187612899565b90508281036040840152612b1881866128dc565b90508281036060840152612a6581856128dc565b6000602080830181845280855180835260408601915060408482028701019250838701855b82811015612b7f57603f19888603018452612b6d858351612975565b94509285019290850190600101612b51565b5092979650505050505050565b604080825281018390526000602060608084019082870285010187845b88811015612c1457868303605f190184528135368b9003601e19018112612bce578687fd5b8a0180356001600160401b03811115612be5578788fd5b8036038c1315612bf3578788fd5b612c0085828985016129a1565b958701959450505090840190600101612ba9565b50509390910193909352509392505050565b60006020825261074c602083018461292f565b600060408252612c4c604083018561292f565b8281036020840152612273818561292f565b6040808252810183905260006001600160fb1b03841115612c7d578081fd5b6020840280866060850137820160600190815260209091019190915292915050565b901515815260200190565b600060408252612cbe6040830185876129a1565b9050826020830152949350505050565b60006020825261074c6020830184612975565b600060408252612cf46040830185612975565b82810360208401526122738185612975565b6020808252601f908201527f50726f78795265616465723a20554e535550504f525445445f4d4554484f4400604082015260600190565b60208082526026908201527f416464726573733a2064656c65676174652063616c6c20746f206e6f6e2d636f6040820152651b9d1c9858dd60d21b606082015260800190565b90815260200190565b6000848252604060208301526122736040830184866129a1565b918252602082015260400190565b6000808335601e19843603018112612dca578283fd5b8301803591506001600160401b03821115612de3578283fd5b602001915036819003821315610c2257600080fd5b6040518181016001600160401b0381118282101715612e1957612e19612e9a565b604052919050565b60008219821115612e3457612e34612e84565b500190565b60005b83811015612e54578181015183820152602001612e3c565b83811115612e63576000848401525b50505050565b6000600019821415612e7d57612e7d612e84565b5060010190565b634e487b7160e01b600052601160045260246000fd5b634e487b7160e01b600052604160045260246000fd5b6001600160a01b0381168114612ec557600080fd5b5056fe416464726573733a206c6f772d6c6576656c2064656c65676174652063616c6c206661696c6564a164736f6c6343000800000a",
  "linkReferences": {},
  "deployedLinkReferences": {}
}