{
  "_format": "hh-sol-artifact-1",
  "contractName": "ProxyReader",
  "sourceName": "contracts/ProxyReader.sol",
  "abi": [
    {
      "anonymous": false,
      "inputs": [
        {
          "indexed": false,
          "internalType": "uint8",
          "name": "version",
          "type": "uint8"
        }
      ],
      "name": "Initialized",
      "type": "event"
    },
    {
      "anonymous": false,
      "inputs": [
        {
          "indexed": true,
          "internalType": "address",
          "name": "previousOwner",
          "type": "address"
        },
        {
          "indexed": true,
          "internalType": "address",
          "name": "newOwner",
          "type": "address"
        }
      ],
      "name": "OwnershipTransferred",
      "type": "event"
    },
    {
      "anonymous": false,
      "inputs": [
        {
          "indexed": false,
          "internalType": "string",
          "name": "tokenKey",
          "type": "string"
        }
      ],
      "name": "SetLegacyRecords",
      "type": "event"
    },
    {
      "anonymous": false,
      "inputs": [
        {
          "indexed": false,
          "internalType": "string",
          "name": "network",
          "type": "string"
        }
      ],
      "name": "SetNetworkFamily",
      "type": "event"
    },
    {
      "inputs": [],
      "name": "NAME",
      "outputs": [
        {
          "internalType": "string",
          "name": "",
          "type": "string"
        }
      ],
      "stateMutability": "view",
      "type": "function"
    },
    {
      "inputs": [],
      "name": "VERSION",
      "outputs": [
        {
          "internalType": "string",
          "name": "",
          "type": "string"
        }
      ],
      "stateMutability": "view",
      "type": "function"
    },
    {
      "inputs": [
        {
          "internalType": "string[]",
          "name": "networks",
          "type": "string[]"
        },
        {
          "internalType": "string[]",
          "name": "families",
          "type": "string[]"
        }
      ],
      "name": "addBlockchainNetworks",
      "outputs": [],
      "stateMutability": "nonpayable",
      "type": "function"
    },
    {
      "inputs": [
        {
          "internalType": "string[]",
          "name": "networks",
          "type": "string[]"
        },
        {
          "internalType": "string",
          "name": "family",
          "type": "string"
        }
      ],
      "name": "addBlockchainNetworks",
      "outputs": [],
      "stateMutability": "nonpayable",
      "type": "function"
    },
    {
      "inputs": [
        {
          "internalType": "string[]",
          "name": "keys",
          "type": "string[]"
        },
        {
          "internalType": "string[][]",
          "name": "legacyKeys",
          "type": "string[][]"
        }
      ],
      "name": "addLegacyRecords",
      "outputs": [],
      "stateMutability": "nonpayable",
      "type": "function"
    },
    {
      "inputs": [
        {
          "internalType": "address",
          "name": "owner",
          "type": "address"
        }
      ],
      "name": "balanceOf",
      "outputs": [
        {
          "internalType": "uint256",
          "name": "",
          "type": "uint256"
        }
      ],
      "stateMutability": "view",
      "type": "function"
    },
    {
      "inputs": [
        {
          "internalType": "uint256",
          "name": "tokenId",
          "type": "uint256"
        }
      ],
      "name": "exists",
      "outputs": [
        {
          "internalType": "bool",
          "name": "",
          "type": "bool"
        }
      ],
      "stateMutability": "view",
      "type": "function"
    },
    {
      "inputs": [
        {
          "internalType": "string",
          "name": "key",
          "type": "string"
        },
        {
          "internalType": "uint256",
          "name": "tokenId",
          "type": "uint256"
        }
      ],
      "name": "get",
      "outputs": [
        {
          "internalType": "string",
          "name": "value",
          "type": "string"
        }
      ],
      "stateMutability": "view",
      "type": "function"
    },
    {
      "inputs": [
        {
          "internalType": "string",
          "name": "network",
          "type": "string"
        },
        {
          "internalType": "string",
          "name": "token",
          "type": "string"
        },
        {
          "internalType": "uint256",
          "name": "tokenId",
          "type": "uint256"
        }
      ],
      "name": "getAddress",
      "outputs": [
        {
          "internalType": "string",
          "name": "addr",
          "type": "string"
        }
      ],
      "stateMutability": "view",
      "type": "function"
    },
    {
      "inputs": [
        {
          "internalType": "string",
          "name": "network",
          "type": "string"
        },
        {
          "internalType": "string",
          "name": "token",
          "type": "string"
        },
        {
          "internalType": "uint256",
          "name": "tokenId",
          "type": "uint256"
        }
      ],
      "name": "getAddressKey",
      "outputs": [
        {
          "internalType": "string",
          "name": "key",
          "type": "string"
        }
      ],
      "stateMutability": "view",
      "type": "function"
    },
    {
      "inputs": [
        {
          "internalType": "string",
          "name": "network",
          "type": "string"
        },
        {
          "internalType": "string",
          "name": "token",
          "type": "string"
        }
      ],
      "name": "getAddressKeys",
      "outputs": [
        {
          "internalType": "string[]",
          "name": "keys",
          "type": "string[]"
        }
      ],
      "stateMutability": "view",
      "type": "function"
    },
    {
      "inputs": [
        {
          "internalType": "uint256",
          "name": "tokenId",
          "type": "uint256"
        }
      ],
      "name": "getApproved",
      "outputs": [
        {
          "internalType": "address",
          "name": "",
          "type": "address"
        }
      ],
      "stateMutability": "view",
      "type": "function"
    },
    {
      "inputs": [
        {
          "internalType": "uint256",
          "name": "keyHash",
          "type": "uint256"
        },
        {
          "internalType": "uint256",
          "name": "tokenId",
          "type": "uint256"
        }
      ],
      "name": "getByHash",
      "outputs": [
        {
          "internalType": "string",
          "name": "key",
          "type": "string"
        },
        {
          "internalType": "string",
          "name": "value",
          "type": "string"
        }
      ],
      "stateMutability": "view",
      "type": "function"
    },
    {
      "inputs": [
        {
          "internalType": "string[]",
          "name": "keys",
          "type": "string[]"
        },
        {
          "internalType": "uint256",
          "name": "tokenId",
          "type": "uint256"
        }
      ],
      "name": "getData",
      "outputs": [
        {
          "internalType": "address",
          "name": "resolver",
          "type": "address"
        },
        {
          "internalType": "address",
          "name": "owner",
          "type": "address"
        },
        {
          "internalType": "string[]",
          "name": "values",
          "type": "string[]"
        }
      ],
      "stateMutability": "view",
      "type": "function"
    },
    {
      "inputs": [
        {
          "internalType": "uint256[]",
          "name": "keyHashes",
          "type": "uint256[]"
        },
        {
          "internalType": "uint256",
          "name": "tokenId",
          "type": "uint256"
        }
      ],
      "name": "getDataByHash",
      "outputs": [
        {
          "internalType": "address",
          "name": "resolver",
          "type": "address"
        },
        {
          "internalType": "address",
          "name": "owner",
          "type": "address"
        },
        {
          "internalType": "string[]",
          "name": "keys",
          "type": "string[]"
        },
        {
          "internalType": "string[]",
          "name": "values",
          "type": "string[]"
        }
      ],
      "stateMutability": "view",
      "type": "function"
    },
    {
      "inputs": [
        {
          "internalType": "uint256[]",
          "name": "keyHashes",
          "type": "uint256[]"
        },
        {
          "internalType": "uint256[]",
          "name": "tokenIds",
          "type": "uint256[]"
        }
      ],
      "name": "getDataByHashForMany",
      "outputs": [
        {
          "internalType": "address[]",
          "name": "resolvers",
          "type": "address[]"
        },
        {
          "internalType": "address[]",
          "name": "owners",
          "type": "address[]"
        },
        {
          "internalType": "string[][]",
          "name": "keys",
          "type": "string[][]"
        },
        {
          "internalType": "string[][]",
          "name": "values",
          "type": "string[][]"
        }
      ],
      "stateMutability": "view",
      "type": "function"
    },
    {
      "inputs": [
        {
          "internalType": "string[]",
          "name": "keys",
          "type": "string[]"
        },
        {
          "internalType": "uint256[]",
          "name": "tokenIds",
          "type": "uint256[]"
        }
      ],
      "name": "getDataForMany",
      "outputs": [
        {
          "internalType": "address[]",
          "name": "resolvers",
          "type": "address[]"
        },
        {
          "internalType": "address[]",
          "name": "owners",
          "type": "address[]"
        },
        {
          "internalType": "string[][]",
          "name": "values",
          "type": "string[][]"
        }
      ],
      "stateMutability": "view",
      "type": "function"
    },
    {
      "inputs": [
        {
          "internalType": "string[]",
          "name": "keys",
          "type": "string[]"
        },
        {
          "internalType": "uint256",
          "name": "tokenId",
          "type": "uint256"
        }
      ],
      "name": "getMany",
      "outputs": [
        {
          "internalType": "string[]",
          "name": "values",
          "type": "string[]"
        }
      ],
      "stateMutability": "view",
      "type": "function"
    },
    {
      "inputs": [
        {
          "internalType": "uint256[]",
          "name": "keyHashes",
          "type": "uint256[]"
        },
        {
          "internalType": "uint256",
          "name": "tokenId",
          "type": "uint256"
        }
      ],
      "name": "getManyByHash",
      "outputs": [
        {
          "internalType": "string[]",
          "name": "keys",
          "type": "string[]"
        },
        {
          "internalType": "string[]",
          "name": "values",
          "type": "string[]"
        }
      ],
      "stateMutability": "view",
      "type": "function"
    },
    {
      "inputs": [
        {
          "internalType": "contract IUNSRegistry",
          "name": "unsRegistry",
          "type": "address"
        },
        {
          "internalType": "contract ICNSRegistry",
          "name": "cnsRegistry",
          "type": "address"
        }
      ],
      "name": "initialize",
      "outputs": [],
      "stateMutability": "nonpayable",
      "type": "function"
    },
    {
      "inputs": [
        {
          "internalType": "address",
          "name": "",
          "type": "address"
        },
        {
          "internalType": "address",
          "name": "",
          "type": "address"
        }
      ],
      "name": "isApprovedForAll",
      "outputs": [
        {
          "internalType": "bool",
          "name": "",
          "type": "bool"
        }
      ],
      "stateMutability": "pure",
      "type": "function"
    },
    {
      "inputs": [
        {
          "internalType": "address",
          "name": "spender",
          "type": "address"
        },
        {
          "internalType": "uint256",
          "name": "tokenId",
          "type": "uint256"
        }
      ],
      "name": "isApprovedOrOwner",
      "outputs": [
        {
          "internalType": "bool",
          "name": "",
          "type": "bool"
        }
      ],
      "stateMutability": "view",
      "type": "function"
    },
    {
      "inputs": [
        {
          "internalType": "bytes[]",
          "name": "data",
          "type": "bytes[]"
        }
      ],
      "name": "multicall",
      "outputs": [
        {
          "internalType": "bytes[]",
          "name": "results",
          "type": "bytes[]"
        }
      ],
      "stateMutability": "nonpayable",
      "type": "function"
    },
    {
      "inputs": [
        {
          "internalType": "string[]",
          "name": "labels",
          "type": "string[]"
        }
      ],
      "name": "namehash",
      "outputs": [
        {
          "internalType": "uint256",
          "name": "",
          "type": "uint256"
        }
      ],
      "stateMutability": "view",
      "type": "function"
    },
    {
      "inputs": [],
      "name": "owner",
      "outputs": [
        {
          "internalType": "address",
          "name": "",
          "type": "address"
        }
      ],
      "stateMutability": "view",
      "type": "function"
    },
    {
      "inputs": [
        {
          "internalType": "uint256",
          "name": "tokenId",
          "type": "uint256"
        }
      ],
      "name": "ownerOf",
      "outputs": [
        {
          "internalType": "address",
          "name": "",
          "type": "address"
        }
      ],
      "stateMutability": "view",
      "type": "function"
    },
    {
      "inputs": [
        {
          "internalType": "uint256[]",
          "name": "tokenIds",
          "type": "uint256[]"
        }
      ],
      "name": "ownerOfForMany",
      "outputs": [
        {
          "internalType": "address[]",
          "name": "owners",
          "type": "address[]"
        }
      ],
      "stateMutability": "view",
      "type": "function"
    },
    {
      "inputs": [
        {
          "internalType": "uint256",
          "name": "tokenId",
          "type": "uint256"
        }
      ],
      "name": "registryOf",
      "outputs": [
        {
          "internalType": "address",
          "name": "",
          "type": "address"
        }
      ],
      "stateMutability": "view",
      "type": "function"
    },
    {
      "inputs": [],
      "name": "renounceOwnership",
      "outputs": [],
      "stateMutability": "nonpayable",
      "type": "function"
    },
    {
      "inputs": [
        {
          "internalType": "uint256",
          "name": "tokenId",
          "type": "uint256"
        }
      ],
      "name": "resolverOf",
      "outputs": [
        {
          "internalType": "address",
          "name": "",
          "type": "address"
        }
      ],
      "stateMutability": "view",
      "type": "function"
    },
    {
      "inputs": [
        {
          "internalType": "address",
          "name": "addr",
          "type": "address"
        }
      ],
      "name": "reverseNameOf",
      "outputs": [
        {
          "internalType": "string",
          "name": "",
          "type": "string"
        }
      ],
      "stateMutability": "view",
      "type": "function"
    },
    {
      "inputs": [
        {
          "internalType": "address",
          "name": "addr",
          "type": "address"
        }
      ],
      "name": "reverseOf",
      "outputs": [
        {
          "internalType": "uint256",
          "name": "",
          "type": "uint256"
        }
      ],
      "stateMutability": "view",
      "type": "function"
    },
    {
      "inputs": [
        {
          "internalType": "address",
          "name": "addr",
          "type": "address"
        }
      ],
      "name": "setOwner",
      "outputs": [],
      "stateMutability": "nonpayable",
      "type": "function"
    },
    {
      "inputs": [
        {
          "internalType": "bytes4",
          "name": "interfaceId",
          "type": "bytes4"
        }
      ],
      "name": "supportsInterface",
      "outputs": [
        {
          "internalType": "bool",
          "name": "",
          "type": "bool"
        }
      ],
      "stateMutability": "view",
      "type": "function"
    },
    {
      "inputs": [
        {
          "internalType": "uint256",
          "name": "tokenId",
          "type": "uint256"
        }
      ],
      "name": "tokenURI",
      "outputs": [
        {
          "internalType": "string",
          "name": "",
          "type": "string"
        }
      ],
      "stateMutability": "view",
      "type": "function"
    },
    {
      "inputs": [
        {
          "internalType": "address",
          "name": "newOwner",
          "type": "address"
        }
      ],
      "name": "transferOwnership",
      "outputs": [],
      "stateMutability": "nonpayable",
      "type": "function"
    }
  ],
  "bytecode": "0x608060405234801561000f575f80fd5b50613ae38061001d5f395ff3fe608060405234801561000f575f80fd5b5060043610610213575f3560e01c80638da5cb5b1161011f578063bebec6b4116100a9578063e985e9c511610079578063e985e9c514610536578063f059235914610549578063f2fde38b1461055c578063ffa1ad741461056f578063ffad6f5514610593575f80fd5b8063bebec6b4146104dd578063bfc5429b146104f0578063c15ae7cf14610503578063c87b56dd14610523575f80fd5b8063a81ce6f9116100ef578063a81ce6f914610463578063ac9650d814610476578063b3f9e4cb14610496578063b85afd28146104a9578063b98b3526146104ca575f80fd5b80638da5cb5b146103e757806391015f6b146103ef578063933c051d14610411578063a3f4df7e14610433575f80fd5b80634bd79ed0116101a057806370a082311161017057806370a0823114610383578063715018a6146103965780637e37479e1461039e57806383caffbe146103b1578063869b8884146103c4575f80fd5b80634bd79ed0146103295780634f558e791461033c5780636352211e1461034f578063672b9f8114610362575f80fd5b80631bd8cc1a116101e65780631bd8cc1a146102a25780631be5e7ed146102c2578063276fabb1146102e2578063430c208114610303578063485cc95514610316575f80fd5b806301ffc9a714610217578063032807551461023f578063081812fc1461026257806313af40351461028d575b5f80fd5b61022a610225366004612b8e565b6105a6565b60405190151581526020015b60405180910390f35b61025261024d366004612bf5565b61062d565b6040516102369493929190612ce1565b610275610270366004612d1e565b61064f565b6040516001600160a01b039091168152602001610236565b6102a061029b366004612d49565b61074e565b005b6102b56102b0366004612bf5565b6107be565b6040516102369190612d64565b6102d56102d0366004612db3565b6107dd565b6040516102369190612de6565b6102f56102f0366004612df8565b610901565b604051908152602001610236565b61022a610311366004612e36565b610972565b6102a0610324366004612e60565b610a7f565b6102a0610337366004612e97565b610bcc565b61022a61034a366004612d1e565b610e0f565b61027561035d366004612d1e565b610e19565b610375610370366004612efd565b610e23565b604051610236929190612f1d565b6102f5610391366004612d49565b610f4c565b6102a0611045565b6102f56103ac366004612d49565b611058565b6102b56103bf366004612f41565b6110c4565b6103d76103d2366004612e97565b611481565b6040516102369493929190613076565b61027561166c565b6104026103fd366004612bf5565b61169a565b604051610236939291906130c2565b61042461041f366004612e97565b6116b9565b604051610236939291906130ed565b6102d5604051806040016040528060118152602001702aa7299d10283937bc3c902932b0b232b960791b81525081565b610275610471366004612d1e565b611837565b610489610484366004612df8565b611900565b604051610236919061312f565b6102756104a4366004612d1e565b6119e7565b6104bc6104b7366004612bf5565b611a6b565b604051610236929190613191565b6102d56104d83660046131b5565b611c40565b6102d56104eb366004612d49565b611c5a565b6102d56104fe3660046131b5565b611cca565b610516610511366004612df8565b611ce4565b6040516102369190613222565b6102d5610531366004612d1e565b611d87565b61022a610544366004612e60565b611e54565b6102a0610557366004612e97565b611e9e565b6102a061056a366004612d49565b611f57565b6102d5604051806040016040528060058152602001640302e352e360dc1b81525081565b6102a06105a1366004613234565b611fc4565b5f6001600160e01b031982166362526e6360e01b14806105d657506001600160e01b03198216636fa624af60e11b145b806105f157506001600160e01b031982166308da864d60e31b145b8061060c57506001600160e01b03198216638584880360e01b145b8061062757506301ffc9a760e01b6001600160e01b03198316145b92915050565b5f8060608061063d87878761200c565b93509350935093505b93509350935093565b5f61065982612264565b61066457505f919050565b61066d826122f8565b6106e25760665460405163020604bf60e21b8152600481018490526001600160a01b039091169063081812fc906024015b602060405180830381865afa1580156106b9573d5f803e3d5ffd5b505050506040513d601f19601f820116820180604052508101906106dd9190613269565b610627565b60655460405163020604bf60e21b8152600481018490526001600160a01b039091169063081812fc906024015b602060405180830381865afa15801561072a573d5f803e3d5ffd5b505050506040513d601f19601f820116820180604052508101906106279190613269565b5f61075761166c565b6001600160a01b0316146107b25760405162461bcd60e51b815260206004820152601e60248201527f50726f78795265616465723a204f574e45525f414c52454144595f534554000060448201526064015b60405180910390fd5b6107bb8161233e565b50565b60606107d36107cd8486613310565b836123b8565b90505b9392505050565b60606107e8826122f8565b1561086957606554604051631be5e7ed60e01b81526001600160a01b0390911690631be5e7ed90610821908790879087906004016133e3565b5f60405180830381865afa15801561083b573d5f803e3d5ffd5b505050506040513d5f823e601f3d908101601f191682016040526108629190810190613448565b90506107d6565b5f61087383612532565b90506001600160a01b0381163b156108f957604051631be5e7ed60e01b81526001600160a01b03821690631be5e7ed906108b5908890889088906004016133e3565b5f60405180830381865afa9250505080156108f157506040513d5f823e601f3d908101601f191682016040526108ee9190810190613448565b60015b156108f95791505b509392505050565b60655460405163276fabb160e01b81525f916001600160a01b03169063276fabb19061093390869086906004016134fd565b602060405180830381865afa15801561094e573d5f803e3d5ffd5b505050506040513d601f19601f820116820180604052508101906107d69190613510565b5f61097c82612264565b61098757505f610627565b610990826122f8565b610a0c5760665460405163430c208160e01b81526001600160a01b038581166004830152602482018590529091169063430c208190604401602060405180830381865afa1580156109e3573d5f803e3d5ffd5b505050506040513d601f19601f82011682018060405250810190610a079190613527565b6107d6565b60655460405163430c208160e01b81526001600160a01b038581166004830152602482018590529091169063430c208190604401602060405180830381865afa158015610a5b573d5f803e3d5ffd5b505050506040513d601f19601f820116820180604052508101906107d69190613527565b5f54610100900460ff1615808015610a9d57505f54600160ff909116105b80610ab65750303b158015610ab657505f5460ff166001145b610b195760405162461bcd60e51b815260206004820152602e60248201527f496e697469616c697a61626c653a20636f6e747261637420697320616c72656160448201526d191e481a5b9a5d1a585b1a5e995960921b60648201526084016107a9565b5f805460ff191660011790558015610b3a575f805461ff0019166101001790555b606580546001600160a01b038086166001600160a01b0319928316179092556066805492851692909116919091179055610b726125a3565b610b7a6125a3565b610b826125c9565b8015610bc7575f805461ff0019169055604051600181527f7f26b83ff96e1f2b6a682f133852f6798a09c465da95921460cefb38474024989060200160405180910390a15b505050565b610bd46125f8565b828114610c235760405162461bcd60e51b815260206004820152601d60248201527f50726f78795265616465723a204c454e4754485f4e4f545f455155414c00000060448201526064016107a9565b5f5b83811015610e08575f6068868684818110610c4257610c42613546565b9050602002810190610c54919061355a565b604051610c6292919061359c565b908152604051908190036020019020541115610cc5576068858583818110610c8c57610c8c613546565b9050602002810190610c9e919061355a565b604051610cac92919061359c565b90815260200160405180910390205f610cc59190612b11565b5f5b838383818110610cd957610cd9613546565b9050602002810190610ceb91906135ab565b9050811015610da4576068868684818110610d0857610d08613546565b9050602002810190610d1a919061355a565b604051610d2892919061359c565b9081526020016040518091039020848484818110610d4857610d48613546565b9050602002810190610d5a91906135ab565b83818110610d6a57610d6a613546565b9050602002810190610d7c919061355a565b82546001810184555f938452602090932090920191610d9b918361366c565b50600101610cc7565b507fb2b57b54285120d17f49f2490a39ef791441fd0ad1e6b6818c23262bf91f061c858583818110610dd857610dd8613546565b9050602002810190610dea919061355a565b604051610df8929190613725565b60405180910390a1600101610c25565b5050505050565b5f61062782612264565b5f61062782612657565b606080610e2f836122f8565b15610eb15760655460405163672b9f8160e01b815260048101869052602481018590526001600160a01b039091169063672b9f81906044015f60405180830381865afa158015610e81573d5f803e3d5ffd5b505050506040513d5f823e601f3d908101601f19168201604052610ea89190810190613738565b91509150610f45565b5f610ebb84612532565b90506001600160a01b0381163b15610f435760405163672b9f8160e01b815260048101869052602481018590526001600160a01b0382169063672b9f81906044015f60405180830381865afa925050508015610f3857506040513d5f823e601f3d908101601f19168201604052610f359190810190613738565b60015b15610f435790935091505b505b9250929050565b6065546040516370a0823160e01b81526001600160a01b0383811660048301525f9283929116906370a0823190602401602060405180830381865afa158015610f97573d5f803e3d5ffd5b505050506040513d601f19601f82011682018060405250810190610fbb9190613510565b6066549091506001600160a01b031615610627576066546040516370a0823160e01b81526001600160a01b038581166004830152909116906370a0823190602401602060405180830381865afa158015611017573d5f803e3d5ffd5b505050506040513d601f19601f8201168201806040525081019061103b9190613510565b6107d69082613797565b61104d6125f8565b6110565f61233e565b565b606554604051633f1ba3cf60e11b81526001600160a01b0383811660048301525f921690637e37479e90602401602060405180830381865afa1580156110a0573d5f803e3d5ffd5b505050506040513d601f19601f820116820180604052508101906106279190613510565b60605f606786866040516110d992919061359c565b908152602001604051809103902080546110f2906135f0565b80601f016020809104026020016040519081016040528092919081815260200182805461111e906135f0565b80156111695780601f1061114057610100808354040283529160200191611169565b820191905f5260205f20905b81548152906001019060200180831161114c57829003601f168201915b5050505050905080515f0361117e5750611479565b5f604051806040016040528060068152602001653a37b5b2b71760d11b81525090505f604051806040016040528060088152602001672e6164647265737360c01b81525090505f604051806040016040528060018152602001601760f91b81525090505f8385838c8c868d8d8a604051602001611203999897969594939291906137b6565b60405160208183030381529060405290505f6068826040516112259190613836565b9081526020016040518091039020805480602002602001604051908101604052809291908181526020015f905b828210156112fa578382905f5260205f2001805461126f906135f0565b80601f016020809104026020016040519081016040528092919081815260200182805461129b906135f0565b80156112e65780601f106112bd576101008083540402835291602001916112e6565b820191905f5260205f20905b8154815290600101906020018083116112c957829003601f168201915b505050505081526020019060010190611252565b5050505090508051600361130e9190613797565b6001600160401b0381111561132557611325613284565b60405190808252806020026020018201604052801561135857816020015b60608152602001906001900390816113435790505b50965081875f8151811061136e5761136e613546565b60200260200101819052505f5b81518110156113cf5781818151811061139657611396613546565b6020026020010151888260016113ac9190613797565b815181106113bc576113bc613546565b602090810291909101015260010161137b565b508486848d8d886040516020016113eb96959493929190613851565b60405160208183030381529060405287825160016114099190613797565b8151811061141957611419613546565b6020026020010181905250848685604051602001611439939291906138b2565b60405160208183030381529060405287825160026114579190613797565b8151811061146757611467613546565b60200260200101819052505050505050505b949350505050565b6060808080846001600160401b0381111561149e5761149e613284565b6040519080825280602002602001820160405280156114c7578160200160208202803683370190505b509350846001600160401b038111156114e2576114e2613284565b60405190808252806020026020018201604052801561150b578160200160208202803683370190505b509250846001600160401b0381111561152657611526613284565b60405190808252806020026020018201604052801561155957816020015b60608152602001906001900390816115445790505b509150846001600160401b0381111561157457611574613284565b6040519080825280602002602001820160405280156115a757816020015b60608152602001906001900390816115925790505b5090505f5b85811015611660576115d789898989858181106115cb576115cb613546565b9050602002013561200c565b8885815181106115e9576115e9613546565b6020026020010188868151811061160257611602613546565b6020026020010188878151811061161b5761161b613546565b6020026020010188888151811061163457611634613546565b6020908102919091010193909352929091526001600160a01b03928316909152911690526001016115ac565b50945094509450949050565b7fe1b9c5b9c6f25fc6c03fdb76829a7257b1cdb10ff4bc4f62e0a94358c8121905546001600160a01b031690565b5f8060606116a9868686612677565b9250925092505b93509350939050565b60608080836001600160401b038111156116d5576116d5613284565b6040519080825280602002602001820160405280156116fe578160200160208202803683370190505b509250836001600160401b0381111561171957611719613284565b604051908082528060200260200182016040528015611742578160200160208202803683370190505b509150836001600160401b0381111561175d5761175d613284565b60405190808252806020026020018201604052801561179057816020015b606081526020019060019003908161177b5790505b5090505f5b8481101561182c576117c088888888858181106117b4576117b4613546565b90506020020135612677565b8684815181106117d2576117d2613546565b602002602001018685815181106117eb576117eb613546565b6020026020010186868151811061180457611804613546565b60209081029190910101929092526001600160a01b0392831690915291169052600101611795565b509450945094915050565b606554604051634f558e7960e01b8152600481018390525f916001600160a01b031690634f558e7990602401602060405180830381865afa15801561187e573d5f803e3d5ffd5b505050506040513d601f19601f820116820180604052508101906118a29190613527565b156118b85750506065546001600160a01b031690565b6066546001600160a01b0316158015906118e357505f6118d783612879565b6001600160a01b031614155b156118f95750506066546001600160a01b031690565b505f919050565b6060816001600160401b0381111561191a5761191a613284565b60405190808252806020026020018201604052801561194d57816020015b60608152602001906001900390816119385790505b5090505f5b828110156119e0576119bb3085858481811061197057611970613546565b9050602002810190611982919061355a565b8080601f0160208091040260200160405190810160405280939291908181526020018383808284375f920191909152506128aa92505050565b8282815181106119cd576119cd613546565b6020908102919091010152600101611952565b5092915050565b5f6119f182612264565b6119fc57505f919050565b611a05826122f8565b611a3a5760665460405163b3f9e4cb60e01b8152600481018490526001600160a01b039091169063b3f9e4cb9060240161069e565b60655460405163b3f9e4cb60e01b8152600481018490526001600160a01b039091169063b3f9e4cb9060240161070f565b606080836001600160401b03811115611a8657611a86613284565b604051908082528060200260200182016040528015611ab957816020015b6060815260200190600190039081611aa45790505b509150836001600160401b03811115611ad457611ad4613284565b604051908082528060200260200182016040528015611b0757816020015b6060815260200190600190039081611af25790505b509050611b13836122f8565b15611b965760655460405163170b5fa560e31b81526001600160a01b039091169063b85afd2890611b4c908890889088906004016138f4565b5f60405180830381865afa158015611b66573d5f803e3d5ffd5b505050506040513d5f823e601f3d908101601f19168201604052611b8d91908101906139aa565b91509150611c38565b5f611ba084612532565b90506001600160a01b0381163b15158015611bba57508415155b15611c365760405163170b5fa560e31b81526001600160a01b0382169063b85afd2890611bef908990899089906004016138f4565b5f60405180830381865afa925050508015611c2b57506040513d5f823e601f3d908101601f19168201604052611c2891908101906139aa565b60015b15611c365790935091505b505b935093915050565b6060611c4f868686868661299a565b979650505050505050565b606554604051632fafb1ad60e21b81526001600160a01b038381166004830152606092169063bebec6b4906024015b5f60405180830381865afa158015611ca3573d5f803e3d5ffd5b505050506040513d5f823e601f3d908101601f191682016040526106279190810190613448565b6060611cd9868686868661299a565b509695505050505050565b6060816001600160401b03811115611cfe57611cfe613284565b604051908082528060200260200182016040528015611d27578160200160208202803683370190505b5090505f5b828110156119e057611d55848483818110611d4957611d49613546565b90506020020135612657565b828281518110611d6757611d67613546565b6001600160a01b0390921660209283029190910190910152600101611d2c565b6060611d9282612264565b611da957505060408051602081019091525f815290565b611db2826122f8565b611e235760665460405163c87b56dd60e01b8152600481018490526001600160a01b039091169063c87b56dd906024015f60405180830381865afa158015611dfc573d5f803e3d5ffd5b505050506040513d5f823e601f3d908101601f191682016040526106dd9190810190613448565b60655460405163c87b56dd60e01b8152600481018490526001600160a01b039091169063c87b56dd90602401611c89565b60405162461bcd60e51b815260206004820152601f60248201527f50726f78795265616465723a20554e535550504f525445445f4d4554484f440060448201525f906064016107a9565b611ea66125f8565b828114611ef55760405162461bcd60e51b815260206004820152601d60248201527f50726f78795265616465723a204c454e4754485f4e4f545f455155414c00000060448201526064016107a9565b5f5b83811015610e0857611f4f858583818110611f1457611f14613546565b9050602002810190611f26919061355a565b858585818110611f3857611f38613546565b9050602002810190611f4a919061355a565b612a38565b600101611ef7565b611f5f6125f8565b6001600160a01b0381166107b25760405162461bcd60e51b815260206004820152602660248201527f4f776e61626c653a206e6577206f776e657220697320746865207a65726f206160448201526564647265737360d01b60648201526084016107a9565b611fcc6125f8565b5f5b83811015610e0857612004858583818110611feb57611feb613546565b9050602002810190611ffd919061355a565b8585612a38565b600101611fce565b5f80606080856001600160401b0381111561202957612029613284565b60405190808252806020026020018201604052801561205c57816020015b60608152602001906001900390816120475790505b509150856001600160401b0381111561207757612077613284565b6040519080825280602002602001820160405280156120aa57816020015b60608152602001906001900390816120955790505b5090506120b6856122f8565b156121b15760655460405163b3f9e4cb60e01b8152600481018790526001600160a01b039091169063b3f9e4cb90602401602060405180830381865afa158015612102573d5f803e3d5ffd5b505050506040513d601f19601f820116820180604052508101906121269190613269565b935061213185612aa7565b60655460405163170b5fa560e31b81529194506001600160a01b03169063b85afd2890612166908a908a908a906004016138f4565b5f60405180830381865afa158015612180573d5f803e3d5ffd5b505050506040513d5f823e601f3d908101601f191682016040526121a791908101906139aa565b9092509050610646565b6121ba85612532565b93506121c585612879565b92506001600160a01b0384163b151580156121e057505f8251115b156106465760405163170b5fa560e31b81526001600160a01b0385169063b85afd2890612215908a908a908a906004016138f4565b5f60405180830381865afa92505050801561225157506040513d5f823e601f3d908101601f1916820160405261224e91908101906139aa565b60015b1561064657909250905093509350935093565b5f61226e826122f8565b61228c575f61227c83612879565b6001600160a01b03161415610627565b606554604051634f558e7960e01b8152600481018490526001600160a01b0390911690634f558e79906024015b602060405180830381865afa1580156122d4573d5f803e3d5ffd5b505050506040513d601f19601f820116820180604052508101906106279190613527565b6066545f906001600160a01b031615806106275750606554604051634f558e7960e01b8152600481018490526001600160a01b0390911690634f558e79906024016122b9565b5f61234761166c565b9050817fe1b9c5b9c6f25fc6c03fdb76829a7257b1cdb10ff4bc4f62e0a94358c812190580546001600160a01b0319166001600160a01b03928316179055604051838216918316907f8be0079c531659141344cd1fd0a4f28419497f9722a3daafe3b4186f6b6457e0905f90a35050565b606082516001600160401b038111156123d3576123d3613284565b60405190808252806020026020018201604052801561240657816020015b60608152602001906001900390816123f15790505b509050612412826122f8565b1561249157606554604051630dec660d60e11b81526001600160a01b0390911690631bd8cc1a9061244990869086906004016139ff565b5f60405180830381865afa158015612463573d5f803e3d5ffd5b505050506040513d5f823e601f3d908101601f1916820160405261248a9190810190613a20565b9050610627565b5f61249b83612532565b90506001600160a01b0381163b151580156124b657505f8451115b156119e057604051630dec660d60e11b81526001600160a01b03821690631bd8cc1a906124e990879087906004016139ff565b5f60405180830381865afa92505050801561252557506040513d5f823e601f3d908101601f191682016040526125229190810190613a20565b60015b156119e057949350505050565b60665460405163b3f9e4cb60e01b8152600481018390525f916001600160a01b03169063b3f9e4cb906024015b602060405180830381865afa925050508015612598575060408051601f3d908101601f1916820190925261259591810190613269565b60015b61062757505f919050565b5f54610100900460ff166110565760405162461bcd60e51b81526004016107a990613a51565b5f54610100900460ff166125ef5760405162461bcd60e51b81526004016107a990613a51565b6110563361233e565b3361260161166c565b6001600160a01b0316146110565760405162461bcd60e51b815260206004820181905260248201527f4f776e61626c653a2063616c6c6572206973206e6f7420746865206f776e657260448201526064016107a9565b5f612661826122f8565b61266e576106dd82612879565b61062782612aa7565b5f806060846001600160401b0381111561269357612693613284565b6040519080825280602002602001820160405280156126c657816020015b60608152602001906001900390816126b15790505b5090506126d2846122f8565b156127ca5760655460405163b3f9e4cb60e01b8152600481018690526001600160a01b039091169063b3f9e4cb90602401602060405180830381865afa15801561271e573d5f803e3d5ffd5b505050506040513d601f19601f820116820180604052508101906127429190613269565b925061274d84612aa7565b606554604051630dec660d60e11b81529193506001600160a01b031690631bd8cc1a9061278290899089908990600401613a9c565b5f60405180830381865afa15801561279c573d5f803e3d5ffd5b505050506040513d5f823e601f3d908101601f191682016040526127c39190810190613a20565b90506116b0565b6127d384612532565b92506127de84612879565b91506001600160a01b0383163b151580156127f857508415155b156116b057604051630dec660d60e11b81526001600160a01b03841690631bd8cc1a9061282d90899089908990600401613a9c565b5f60405180830381865afa92505050801561286957506040513d5f823e601f3d908101601f191682016040526128669190810190613a20565b60015b156116b057905093509350939050565b6066546040516331a9108f60e11b8152600481018390525f916001600160a01b031690636352211e9060240161255f565b60606001600160a01b0383163b6129125760405162461bcd60e51b815260206004820152602660248201527f416464726573733a2064656c65676174652063616c6c20746f206e6f6e2d636f6044820152651b9d1c9858dd60d21b60648201526084016107a9565b5f80846001600160a01b03168460405161292c9190613836565b5f60405180830381855af49150503d805f8114612964576040519150601f19603f3d011682016040523d82523d5f602084013e612969565b606091505b50915091506129918282604051806060016040528060278152602001613ab060279139612ad8565b95945050505050565b6060805f6129aa888888886110c4565b90505f6129b782866123b8565b90505f5b8151811015612a2b575f8282815181106129d7576129d7613546565b6020026020010151511115612a23578281815181106129f8576129f8613546565b60200260200101519350818181518110612a1457612a14613546565b60200260200101519450612a2b565b6001016129bb565b5050509550959350505050565b818160678686604051612a4c92919061359c565b90815260200160405180910390209182612a6792919061366c565b507f0bf4b04a0f6d7d0800284e1abb0f58f795c0a25b9088634b6ab847be51001dec8484604051612a99929190613725565b60405180910390a150505050565b6065546040516331a9108f60e11b8152600481018390525f916001600160a01b031690636352211e9060240161255f565b60608315612ae75750816107d6565b825115612af75782518084602001fd5b8160405162461bcd60e51b81526004016107a99190612de6565b5080545f8255905f5260205f20908101906107bb91905b80821115612b44575f612b3b8282612b48565b50600101612b28565b5090565b508054612b54906135f0565b5f825580601f10612b63575050565b601f0160209004905f5260205f20908101906107bb91905b80821115612b44575f8155600101612b7b565b5f60208284031215612b9e575f80fd5b81356001600160e01b0319811681146107d6575f80fd5b5f8083601f840112612bc5575f80fd5b5081356001600160401b03811115612bdb575f80fd5b6020830191508360208260051b8501011115610f45575f80fd5b5f805f60408486031215612c07575f80fd5b83356001600160401b03811115612c1c575f80fd5b612c2886828701612bb5565b909790965060209590950135949350505050565b5f5b83811015612c56578181015183820152602001612c3e565b50505f910152565b5f8151808452612c75816020860160208601612c3c565b601f01601f19169290920160200192915050565b5f8282518085526020808601955060208260051b840101602086015f5b84811015612cd457601f19868403018952612cc2838351612c5e565b98840198925090830190600101612ca6565b5090979650505050505050565b6001600160a01b038581168252841660208201526080604082018190525f90612d0c90830185612c89565b8281036060840152611c4f8185612c89565b5f60208284031215612d2e575f80fd5b5035919050565b6001600160a01b03811681146107bb575f80fd5b5f60208284031215612d59575f80fd5b81356107d681612d35565b602081525f6107d66020830184612c89565b5f8083601f840112612d86575f80fd5b5081356001600160401b03811115612d9c575f80fd5b602083019150836020828501011115610f45575f80fd5b5f805f60408486031215612dc5575f80fd5b83356001600160401b03811115612dda575f80fd5b612c2886828701612d76565b602081525f6107d66020830184612c5e565b5f8060208385031215612e09575f80fd5b82356001600160401b03811115612e1e575f80fd5b612e2a85828601612bb5565b90969095509350505050565b5f8060408385031215612e47575f80fd5b8235612e5281612d35565b946020939093013593505050565b5f8060408385031215612e71575f80fd5b8235612e7c81612d35565b91506020830135612e8c81612d35565b809150509250929050565b5f805f8060408587031215612eaa575f80fd5b84356001600160401b0380821115612ec0575f80fd5b612ecc88838901612bb5565b90965094506020870135915080821115612ee4575f80fd5b50612ef187828801612bb5565b95989497509550505050565b5f8060408385031215612f0e575f80fd5b50508035926020909101359150565b604081525f612f2f6040830185612c5e565b82810360208401526129918185612c5e565b5f805f8060408587031215612f54575f80fd5b84356001600160401b0380821115612f6a575f80fd5b612f7688838901612d76565b90965094506020870135915080821115612f8e575f80fd5b50612ef187828801612d76565b5f815180845260208085019450602084015f5b83811015612fd35781516001600160a01b031687529582019590820190600101612fae565b509495945050505050565b5f828251808552602080860195506005818360051b8501018287015f5b8581101561306857601f1987840381018b5282518051808652908701908786019080881b870189015f5b82811015613051578589830301845261303f828651612c5e565b948b0194938b01939150600101613025565b509d89019d96505050928601925050600101612ffb565b509098975050505050505050565b608081525f6130886080830187612f9b565b828103602084015261309a8187612f9b565b905082810360408401526130ae8186612fde565b90508281036060840152611c4f8185612fde565b6001600160a01b038481168252831660208201526060604082018190525f9061299190830184612c89565b606081525f6130ff6060830186612f9b565b82810360208401526131118186612f9b565b905082810360408401526131258185612fde565b9695505050505050565b5f60208083016020845280855180835260408601915060408160051b8701019250602087015f5b8281101561318457603f19888603018452613172858351612c5e565b94509285019290850190600101613156565b5092979650505050505050565b604081525f6131a36040830185612c89565b82810360208401526129918185612c89565b5f805f805f606086880312156131c9575f80fd5b85356001600160401b03808211156131df575f80fd5b6131eb89838a01612d76565b90975095506020880135915080821115613203575f80fd5b5061321088828901612d76565b96999598509660400135949350505050565b602081525f6107d66020830184612f9b565b5f805f8060408587031215613247575f80fd5b84356001600160401b038082111561325d575f80fd5b612f7688838901612bb5565b5f60208284031215613279575f80fd5b81516107d681612d35565b634e487b7160e01b5f52604160045260245ffd5b604051601f8201601f191681016001600160401b03811182821017156132c0576132c0613284565b604052919050565b5f6001600160401b038211156132e0576132e0613284565b5060051b60200190565b5f6001600160401b0382111561330257613302613284565b50601f01601f191660200190565b5f61332261331d846132c8565b613298565b80848252602080830192508560051b85013681111561333f575f80fd5b855b818110156133af5780356001600160401b0381111561335e575f80fd5b870136601f82011261336e575f80fd5b803561337c61331d826132ea565b818152368683850101111561338f575f80fd5b81868401878301375f918101860191909152865250938201938201613341565b50919695505050505050565b81835281816020850137505f828201602090810191909152601f909101601f19169091010190565b604081525f6133f66040830185876133bb565b9050826020830152949350505050565b5f82601f830112613415575f80fd5b815161342361331d826132ea565b818152846020838601011115613437575f80fd5b611479826020830160208701612c3c565b5f60208284031215613458575f80fd5b81516001600160401b0381111561346d575f80fd5b61147984828501613406565b5f838385526020808601955060208560051b830101845f5b87811015612cd457848303601f19018952813536889003601e190181126134b6575f80fd5b870184810190356001600160401b038111156134d0575f80fd5b8036038213156134de575f80fd5b6134e98582846133bb565b9a86019a9450505090830190600101613491565b602081525f6107d3602083018486613479565b5f60208284031215613520575f80fd5b5051919050565b5f60208284031215613537575f80fd5b815180151581146107d6575f80fd5b634e487b7160e01b5f52603260045260245ffd5b5f808335601e1984360301811261356f575f80fd5b8301803591506001600160401b03821115613588575f80fd5b602001915036819003821315610f45575f80fd5b818382375f9101908152919050565b5f808335601e198436030181126135c0575f80fd5b8301803591506001600160401b038211156135d9575f80fd5b6020019150600581901b3603821315610f45575f80fd5b600181811c9082168061360457607f821691505b60208210810361362257634e487b7160e01b5f52602260045260245ffd5b50919050565b601f821115610bc757805f5260205f20601f840160051c8101602085101561364d5750805b601f840160051c820191505b81811015610e08575f8155600101613659565b6001600160401b0383111561368357613683613284565b6136978361369183546135f0565b83613628565b5f601f8411600181146136c8575f85156136b15750838201355b5f19600387901b1c1916600186901b178355610e08565b5f83815260208120601f198716915b828110156136f757868501358255602094850194600190920191016136d7565b5086821015613713575f1960f88860031b161c19848701351681555b505060018560011b0183555050505050565b602081525f6107d36020830184866133bb565b5f8060408385031215613749575f80fd5b82516001600160401b038082111561375f575f80fd5b61376b86838701613406565b93506020850151915080821115613780575f80fd5b5061378d85828601613406565b9150509250929050565b8082018082111561062757634e487b7160e01b5f52601160045260245ffd5b5f8a516137c7818460208f01612c3c565b8a51908301906137db818360208f01612c3c565b8a519101906137ee818360208e01612c3c565b01878982375f908801908152865161380a818360208b01612c3c565b01848682375f9085019081528351613826818360208801612c3c565b019b9a5050505050505050505050565b5f8251613847818460208701612c3c565b9190910192915050565b5f8751613862818460208c01612c3c565b875190830190613876818360208c01612c3c565b8751910190613889818360208b01612c3c565b01848682375f90850190815283516138a5818360208801612c3c565b0198975050505050505050565b5f84516138c3818460208901612c3c565b8451908301906138d7818360208901612c3c565b84519101906138ea818360208801612c3c565b0195945050505050565b604080825281018390525f6001600160fb1b03841115613912575f80fd5b8360051b808660608501376020830193909352500160600192915050565b5f82601f83011261393f575f80fd5b8151602061394f61331d836132c8565b82815260059290921b8401810191818101908684111561396d575f80fd5b8286015b84811015611cd95780516001600160401b0381111561398e575f80fd5b61399c8986838b0101613406565b845250918301918301613971565b5f80604083850312156139bb575f80fd5b82516001600160401b03808211156139d1575f80fd5b6139dd86838701613930565b935060208501519150808211156139f2575f80fd5b5061378d85828601613930565b604081525f613a116040830185612c89565b90508260208301529392505050565b5f60208284031215613a30575f80fd5b81516001600160401b03811115613a45575f80fd5b61147984828501613930565b6020808252602b908201527f496e697469616c697a61626c653a20636f6e7472616374206973206e6f74206960408201526a6e697469616c697a696e6760a81b606082015260800190565b604081525f6133f660408301858761347956fe416464726573733a206c6f772d6c6576656c2064656c65676174652063616c6c206661696c6564a164736f6c6343000818000a",
  "linkReferences": {},
  "deployedLinkReferences": {}
}