{
  "_format": "hh-sol-artifact-1",
  "contractName": "ProxyReader",
  "sourceName": "contracts/ProxyReader.sol",
  "abi": [
    {
      "anonymous": false,
      "inputs": [
        {
          "indexed": false,
          "internalType": "uint8",
          "name": "version",
          "type": "uint8"
        }
      ],
      "name": "Initialized",
      "type": "event"
    },
    {
      "anonymous": false,
      "inputs": [
        {
          "indexed": true,
          "internalType": "address",
          "name": "previousOwner",
          "type": "address"
        },
        {
          "indexed": true,
          "internalType": "address",
          "name": "newOwner",
          "type": "address"
        }
      ],
      "name": "OwnershipTransferred",
      "type": "event"
    },
    {
      "anonymous": false,
      "inputs": [
        {
          "indexed": false,
          "internalType": "string",
          "name": "tokenKey",
          "type": "string"
        }
      ],
      "name": "SetLegacyRecords",
      "type": "event"
    },
    {
      "anonymous": false,
      "inputs": [
        {
          "indexed": false,
          "internalType": "string",
          "name": "network",
          "type": "string"
        }
      ],
      "name": "SetNetworkFamily",
      "type": "event"
    },
    {
      "inputs": [],
      "name": "NAME",
      "outputs": [
        {
          "internalType": "string",
          "name": "",
          "type": "string"
        }
      ],
      "stateMutability": "view",
      "type": "function"
    },
    {
      "inputs": [],
      "name": "VERSION",
      "outputs": [
        {
          "internalType": "string",
          "name": "",
          "type": "string"
        }
      ],
      "stateMutability": "view",
      "type": "function"
    },
    {
      "inputs": [
        {
          "internalType": "string[]",
          "name": "networks",
          "type": "string[]"
        },
        {
          "internalType": "string[]",
          "name": "families",
          "type": "string[]"
        }
      ],
      "name": "addBlockchainNetworksV1",
      "outputs": [],
      "stateMutability": "nonpayable",
      "type": "function"
    },
    {
      "inputs": [
        {
          "internalType": "string[]",
          "name": "networks",
          "type": "string[]"
        },
        {
          "internalType": "string",
          "name": "family",
          "type": "string"
        }
      ],
      "name": "addBlockchainNetworksV2",
      "outputs": [],
      "stateMutability": "nonpayable",
      "type": "function"
    },
    {
      "inputs": [
        {
          "internalType": "string[]",
          "name": "keys",
          "type": "string[]"
        },
        {
          "internalType": "string[][]",
          "name": "legacyKeys",
          "type": "string[][]"
        }
      ],
      "name": "addLegacyRecords",
      "outputs": [],
      "stateMutability": "nonpayable",
      "type": "function"
    },
    {
      "inputs": [
        {
          "internalType": "address",
          "name": "owner",
          "type": "address"
        }
      ],
      "name": "balanceOf",
      "outputs": [
        {
          "internalType": "uint256",
          "name": "",
          "type": "uint256"
        }
      ],
      "stateMutability": "view",
      "type": "function"
    },
    {
      "inputs": [
        {
          "internalType": "uint256",
          "name": "tokenId",
          "type": "uint256"
        }
      ],
      "name": "exists",
      "outputs": [
        {
          "internalType": "bool",
          "name": "",
          "type": "bool"
        }
      ],
      "stateMutability": "view",
      "type": "function"
    },
    {
      "inputs": [
        {
          "internalType": "string",
          "name": "key",
          "type": "string"
        },
        {
          "internalType": "uint256",
          "name": "tokenId",
          "type": "uint256"
        }
      ],
      "name": "get",
      "outputs": [
        {
          "internalType": "string",
          "name": "value",
          "type": "string"
        }
      ],
      "stateMutability": "view",
      "type": "function"
    },
    {
      "inputs": [
        {
          "internalType": "string",
          "name": "network",
          "type": "string"
        },
        {
          "internalType": "string",
          "name": "token",
          "type": "string"
        },
        {
          "internalType": "uint256",
          "name": "tokenId",
          "type": "uint256"
        }
      ],
      "name": "getAddress",
      "outputs": [
        {
          "internalType": "string",
          "name": "addr",
          "type": "string"
        }
      ],
      "stateMutability": "view",
      "type": "function"
    },
    {
      "inputs": [
        {
          "internalType": "string",
          "name": "network",
          "type": "string"
        },
        {
          "internalType": "string",
          "name": "token",
          "type": "string"
        },
        {
          "internalType": "uint256",
          "name": "tokenId",
          "type": "uint256"
        }
      ],
      "name": "getAddressKey",
      "outputs": [
        {
          "internalType": "string",
          "name": "key",
          "type": "string"
        }
      ],
      "stateMutability": "view",
      "type": "function"
    },
    {
      "inputs": [
        {
          "internalType": "string",
          "name": "network",
          "type": "string"
        },
        {
          "internalType": "string",
          "name": "token",
          "type": "string"
        }
      ],
      "name": "getAddressKeys",
      "outputs": [
        {
          "internalType": "string[]",
          "name": "keys",
          "type": "string[]"
        }
      ],
      "stateMutability": "view",
      "type": "function"
    },
    {
      "inputs": [
        {
          "internalType": "uint256",
          "name": "tokenId",
          "type": "uint256"
        }
      ],
      "name": "getApproved",
      "outputs": [
        {
          "internalType": "address",
          "name": "",
          "type": "address"
        }
      ],
      "stateMutability": "view",
      "type": "function"
    },
    {
      "inputs": [
        {
          "internalType": "uint256",
          "name": "keyHash",
          "type": "uint256"
        },
        {
          "internalType": "uint256",
          "name": "tokenId",
          "type": "uint256"
        }
      ],
      "name": "getByHash",
      "outputs": [
        {
          "internalType": "string",
          "name": "key",
          "type": "string"
        },
        {
          "internalType": "string",
          "name": "value",
          "type": "string"
        }
      ],
      "stateMutability": "view",
      "type": "function"
    },
    {
      "inputs": [
        {
          "internalType": "string[]",
          "name": "keys",
          "type": "string[]"
        },
        {
          "internalType": "uint256",
          "name": "tokenId",
          "type": "uint256"
        }
      ],
      "name": "getData",
      "outputs": [
        {
          "internalType": "address",
          "name": "resolver",
          "type": "address"
        },
        {
          "internalType": "address",
          "name": "owner",
          "type": "address"
        },
        {
          "internalType": "string[]",
          "name": "values",
          "type": "string[]"
        }
      ],
      "stateMutability": "view",
      "type": "function"
    },
    {
      "inputs": [
        {
          "internalType": "uint256[]",
          "name": "keyHashes",
          "type": "uint256[]"
        },
        {
          "internalType": "uint256",
          "name": "tokenId",
          "type": "uint256"
        }
      ],
      "name": "getDataByHash",
      "outputs": [
        {
          "internalType": "address",
          "name": "resolver",
          "type": "address"
        },
        {
          "internalType": "address",
          "name": "owner",
          "type": "address"
        },
        {
          "internalType": "string[]",
          "name": "keys",
          "type": "string[]"
        },
        {
          "internalType": "string[]",
          "name": "values",
          "type": "string[]"
        }
      ],
      "stateMutability": "view",
      "type": "function"
    },
    {
      "inputs": [
        {
          "internalType": "uint256[]",
          "name": "keyHashes",
          "type": "uint256[]"
        },
        {
          "internalType": "uint256[]",
          "name": "tokenIds",
          "type": "uint256[]"
        }
      ],
      "name": "getDataByHashForMany",
      "outputs": [
        {
          "internalType": "address[]",
          "name": "resolvers",
          "type": "address[]"
        },
        {
          "internalType": "address[]",
          "name": "owners",
          "type": "address[]"
        },
        {
          "internalType": "string[][]",
          "name": "keys",
          "type": "string[][]"
        },
        {
          "internalType": "string[][]",
          "name": "values",
          "type": "string[][]"
        }
      ],
      "stateMutability": "view",
      "type": "function"
    },
    {
      "inputs": [
        {
          "internalType": "string[]",
          "name": "keys",
          "type": "string[]"
        },
        {
          "internalType": "uint256[]",
          "name": "tokenIds",
          "type": "uint256[]"
        }
      ],
      "name": "getDataForMany",
      "outputs": [
        {
          "internalType": "address[]",
          "name": "resolvers",
          "type": "address[]"
        },
        {
          "internalType": "address[]",
          "name": "owners",
          "type": "address[]"
        },
        {
          "internalType": "string[][]",
          "name": "values",
          "type": "string[][]"
        }
      ],
      "stateMutability": "view",
      "type": "function"
    },
    {
      "inputs": [
        {
          "internalType": "string[]",
          "name": "keys",
          "type": "string[]"
        },
        {
          "internalType": "uint256",
          "name": "tokenId",
          "type": "uint256"
        }
      ],
      "name": "getMany",
      "outputs": [
        {
          "internalType": "string[]",
          "name": "values",
          "type": "string[]"
        }
      ],
      "stateMutability": "view",
      "type": "function"
    },
    {
      "inputs": [
        {
          "internalType": "uint256[]",
          "name": "keyHashes",
          "type": "uint256[]"
        },
        {
          "internalType": "uint256",
          "name": "tokenId",
          "type": "uint256"
        }
      ],
      "name": "getManyByHash",
      "outputs": [
        {
          "internalType": "string[]",
          "name": "keys",
          "type": "string[]"
        },
        {
          "internalType": "string[]",
          "name": "values",
          "type": "string[]"
        }
      ],
      "stateMutability": "view",
      "type": "function"
    },
    {
      "inputs": [
        {
          "internalType": "contract IUNSRegistry",
          "name": "unsRegistry",
          "type": "address"
        },
        {
          "internalType": "contract ICNSRegistry",
          "name": "cnsRegistry",
          "type": "address"
        }
      ],
      "name": "initialize",
      "outputs": [],
      "stateMutability": "nonpayable",
      "type": "function"
    },
    {
      "inputs": [
        {
          "internalType": "address",
          "name": "",
          "type": "address"
        },
        {
          "internalType": "address",
          "name": "",
          "type": "address"
        }
      ],
      "name": "isApprovedForAll",
      "outputs": [
        {
          "internalType": "bool",
          "name": "",
          "type": "bool"
        }
      ],
      "stateMutability": "pure",
      "type": "function"
    },
    {
      "inputs": [
        {
          "internalType": "address",
          "name": "spender",
          "type": "address"
        },
        {
          "internalType": "uint256",
          "name": "tokenId",
          "type": "uint256"
        }
      ],
      "name": "isApprovedOrOwner",
      "outputs": [
        {
          "internalType": "bool",
          "name": "",
          "type": "bool"
        }
      ],
      "stateMutability": "view",
      "type": "function"
    },
    {
      "inputs": [
        {
          "internalType": "bytes[]",
          "name": "data",
          "type": "bytes[]"
        }
      ],
      "name": "multicall",
      "outputs": [
        {
          "internalType": "bytes[]",
          "name": "results",
          "type": "bytes[]"
        }
      ],
      "stateMutability": "nonpayable",
      "type": "function"
    },
    {
      "inputs": [
        {
          "internalType": "string[]",
          "name": "labels",
          "type": "string[]"
        }
      ],
      "name": "namehash",
      "outputs": [
        {
          "internalType": "uint256",
          "name": "",
          "type": "uint256"
        }
      ],
      "stateMutability": "view",
      "type": "function"
    },
    {
      "inputs": [],
      "name": "owner",
      "outputs": [
        {
          "internalType": "address",
          "name": "",
          "type": "address"
        }
      ],
      "stateMutability": "view",
      "type": "function"
    },
    {
      "inputs": [
        {
          "internalType": "uint256",
          "name": "tokenId",
          "type": "uint256"
        }
      ],
      "name": "ownerOf",
      "outputs": [
        {
          "internalType": "address",
          "name": "",
          "type": "address"
        }
      ],
      "stateMutability": "view",
      "type": "function"
    },
    {
      "inputs": [
        {
          "internalType": "uint256[]",
          "name": "tokenIds",
          "type": "uint256[]"
        }
      ],
      "name": "ownerOfForMany",
      "outputs": [
        {
          "internalType": "address[]",
          "name": "owners",
          "type": "address[]"
        }
      ],
      "stateMutability": "view",
      "type": "function"
    },
    {
      "inputs": [
        {
          "internalType": "uint256",
          "name": "tokenId",
          "type": "uint256"
        }
      ],
      "name": "registryOf",
      "outputs": [
        {
          "internalType": "address",
          "name": "",
          "type": "address"
        }
      ],
      "stateMutability": "view",
      "type": "function"
    },
    {
      "inputs": [],
      "name": "renounceOwnership",
      "outputs": [],
      "stateMutability": "nonpayable",
      "type": "function"
    },
    {
      "inputs": [
        {
          "internalType": "uint256",
          "name": "tokenId",
          "type": "uint256"
        }
      ],
      "name": "resolverOf",
      "outputs": [
        {
          "internalType": "address",
          "name": "",
          "type": "address"
        }
      ],
      "stateMutability": "view",
      "type": "function"
    },
    {
      "inputs": [
        {
          "internalType": "address",
          "name": "addr",
          "type": "address"
        }
      ],
      "name": "reverseNameOf",
      "outputs": [
        {
          "internalType": "string",
          "name": "",
          "type": "string"
        }
      ],
      "stateMutability": "view",
      "type": "function"
    },
    {
      "inputs": [
        {
          "internalType": "address",
          "name": "addr",
          "type": "address"
        }
      ],
      "name": "reverseOf",
      "outputs": [
        {
          "internalType": "uint256",
          "name": "",
          "type": "uint256"
        }
      ],
      "stateMutability": "view",
      "type": "function"
    },
    {
      "inputs": [
        {
          "internalType": "address",
          "name": "addr",
          "type": "address"
        }
      ],
      "name": "setOwner",
      "outputs": [],
      "stateMutability": "nonpayable",
      "type": "function"
    },
    {
      "inputs": [
        {
          "internalType": "bytes4",
          "name": "interfaceId",
          "type": "bytes4"
        }
      ],
      "name": "supportsInterface",
      "outputs": [
        {
          "internalType": "bool",
          "name": "",
          "type": "bool"
        }
      ],
      "stateMutability": "view",
      "type": "function"
    },
    {
      "inputs": [
        {
          "internalType": "uint256",
          "name": "tokenId",
          "type": "uint256"
        }
      ],
      "name": "tokenURI",
      "outputs": [
        {
          "internalType": "string",
          "name": "",
          "type": "string"
        }
      ],
      "stateMutability": "view",
      "type": "function"
    },
    {
      "inputs": [
        {
          "internalType": "address",
          "name": "newOwner",
          "type": "address"
        }
      ],
      "name": "transferOwnership",
      "outputs": [],
      "stateMutability": "nonpayable",
      "type": "function"
    }
  ],
  "bytecode": "0x608060405234801561001057600080fd5b50613fe4806100206000396000f3fe608060405234801561001057600080fd5b506004361061021c5760003560e01c806383caffbe11610125578063b85afd28116100ad578063c15ae7cf1161007c578063c15ae7cf14610533578063c87b56dd14610553578063e985e9c514610566578063f2fde38b14610579578063ffa1ad741461058c57600080fd5b8063b85afd28146104d9578063b98b3526146104fa578063bebec6b41461050d578063bfc5429b1461052057600080fd5b8063933c051d116100f4578063933c051d14610441578063a3f4df7e14610463578063a81ce6f914610493578063ac9650d8146104a6578063b3f9e4cb146104c657600080fd5b806383caffbe146103e1578063869b8884146103f45780638da5cb5b1461041757806391015f6b1461041f57600080fd5b8063430c2081116101a85780636352211e116101775780636352211e1461037f578063672b9f811461039257806370a08231146103b3578063715018a6146103c65780637e37479e146103ce57600080fd5b8063430c208114610333578063485cc955146103465780634bd79ed0146103595780634f558e791461036c57600080fd5b806313af4035116101ef57806313af4035146102ac5780631bd8cc1a146102bf5780631be5e7ed146102df57806321b7c7d9146102ff578063276fabb11461031257600080fd5b8063011438b41461022157806301ffc9a714610236578063032807551461025e578063081812fc14610281575b600080fd5b61023461022f36600461338a565b6105b0565b005b610249610244366004613549565b61069c565b60405190151581526020015b60405180910390f35b61027161026c36600461344e565b610724565b6040516102559493929190613a62565b61029461028f3660046136e7565b610747565b6040516001600160a01b039091168152602001610255565b6102346102ba3660046132b0565b61086a565b6102d26102cd36600461344e565b6108d6565b6040516102559190613bdc565b6102f26102ed36600461362a565b6108f5565b6040516102559190613c9f565b61023461030d3660046133f2565b610a42565b61032561032036600461334b565b610aa3565b604051908152602001610255565b610249610341366004613320565b610b26565b610234610354366004613571565b610c57565b61023461036736600461338a565b610daa565b61024961037a3660046136e7565b61105f565b61029461038d3660046136e7565b61106a565b6103a56103a0366004613717565b611075565b604051610255929190613cb2565b6103256103c13660046132b0565b6111c7565b6102346112e3565b6103256103dc3660046132b0565b6112f7565b6102d26103ef366004613583565b611375565b61040761040236600461338a565b6117a2565b6040516102559493929190613af6565b610294611a16565b61043261042d36600461344e565b611a44565b60405161025593929190613a36565b61045461044f36600461338a565b611a64565b60405161025593929190613ab3565b6102f2604051806040016040528060118152602001702aa7299d10283937bc3c902932b0b232b960791b81525081565b6102946104a13660046136e7565b611c4f565b6104b96104b436600461334b565b611d2c565b6040516102559190613b43565b6102946104d43660046136e7565b611e4a565b6104ec6104e736600461344e565b611ed0565b604051610255929190613bef565b6102f26105083660046135ba565b6120ea565b6102f261051b3660046132b0565b612104565b6102f261052e3660046135ba565b612187565b61054661054136600461334b565b6121a1565b6040516102559190613aa0565b6102f26105613660046136e7565b612279565b6102496105743660046132e8565b61235a565b6102346105873660046132b0565b6123a5565b6102f2604051806040016040528060058152602001640302e352e360dc1b81525081565b6105b8612412565b82811461060c5760405162461bcd60e51b815260206004820152601d60248201527f50726f78795265616465723a204c454e4754485f4e4f545f455155414c00000060448201526064015b60405180910390fd5b60005b838110156106955761068385858381811061063a57634e487b7160e01b600052603260045260246000fd5b905060200281019061064c9190613d69565b85858581811061066c57634e487b7160e01b600052603260045260246000fd5b905060200281019061067e9190613d69565b612471565b8061068d81613f54565b91505061060f565b5050505050565b60006001600160e01b031982166362526e6360e01b14806106cd57506001600160e01b03198216636fa624af60e11b145b806106e857506001600160e01b031982166308da864d60e31b145b8061070357506001600160e01b03198216638584880360e01b145b8061071e57506301ffc9a760e01b6001600160e01b03198316145b92915050565b6000806060806107358787876124df565b93509350935093505b93509350935093565b60006107528261278e565b61075e57506000919050565b61076782612835565b6107ed5760665460405163020604bf60e21b8152600481018490526001600160a01b039091169063081812fc906024015b60206040518083038186803b1580156107b057600080fd5b505afa1580156107c4573d6000803e3d6000fd5b505050506040513d601f19601f820116820180604052508101906107e891906132cc565b61071e565b60655460405163020604bf60e21b8152600481018490526001600160a01b039091169063081812fc906024015b60206040518083038186803b15801561083257600080fd5b505afa158015610846573d6000803e3d6000fd5b505050506040513d601f19601f8201168201806040525081019061071e91906132cc565b6000610874611a16565b6001600160a01b0316146108ca5760405162461bcd60e51b815260206004820152601e60248201527f50726f78795265616465723a204f574e45525f414c52454144595f53455400006044820152606401610603565b6108d38161287c565b50565b60606108eb6108e58486613e3f565b836128f8565b90505b9392505050565b606061090082612835565b1561099457606554604051631be5e7ed60e01b81526001600160a01b0390911690631be5e7ed9061093990879087908790600401613c8b565b60006040518083038186803b15801561095157600080fd5b505afa158015610965573d6000803e3d6000fd5b505050506040513d6000823e601f3d908101601f1916820160405261098d919081019061365f565b90506108ee565b600061099f83612aa2565b90506001600160a01b0381163b15610a3a57604051631be5e7ed60e01b81526001600160a01b03821690631be5e7ed906109e190889088908890600401613c8b565b60006040518083038186803b1580156109f957600080fd5b505afa925050508015610a2e57506040513d6000823e601f3d908101601f19168201604052610a2b919081019061365f565b60015b610a3757610a3a565b91505b509392505050565b610a4a612412565b60005b8381101561069557610a91858583818110610a7857634e487b7160e01b600052603260045260246000fd5b9050602002810190610a8a9190613d69565b8585612471565b80610a9b81613f54565b915050610a4d565b60655460405163276fabb160e01b81526000916001600160a01b03169063276fabb190610ad69086908690600401613ba4565b60206040518083038186803b158015610aee57600080fd5b505afa158015610b02573d6000803e3d6000fd5b505050506040513d601f19601f820116820180604052508101906108ee91906136ff565b6000610b318261278e565b610b3d5750600061071e565b610b4682612835565b610bd35760665460405163430c208160e01b81526001600160a01b038581166004830152602482018590529091169063430c20819060440160206040518083038186803b158015610b9657600080fd5b505afa158015610baa573d6000803e3d6000fd5b505050506040513d601f19601f82011682018060405250810190610bce9190613529565b6108ee565b60655460405163430c208160e01b81526001600160a01b038581166004830152602482018590529091169063430c20819060440160206040518083038186803b158015610c1f57600080fd5b505afa158015610c33573d6000803e3d6000fd5b505050506040513d601f19601f820116820180604052508101906108ee9190613529565b600054610100900460ff1615808015610c775750600054600160ff909116105b80610c915750303b158015610c91575060005460ff166001145b610cf45760405162461bcd60e51b815260206004820152602e60248201527f496e697469616c697a61626c653a20636f6e747261637420697320616c72656160448201526d191e481a5b9a5d1a585b1a5e995960921b6064820152608401610603565b6000805460ff191660011790558015610d17576000805461ff0019166101001790555b606580546001600160a01b038086166001600160a01b0319928316179092556066805492851692909116919091179055610d4f612b24565b610d57612b24565b610d5f612b4b565b8015610da5576000805461ff0019169055604051600181527f7f26b83ff96e1f2b6a682f133852f6798a09c465da95921460cefb38474024989060200160405180910390a15b505050565b610db2612412565b828114610e015760405162461bcd60e51b815260206004820152601d60248201527f50726f78795265616465723a204c454e4754485f4e4f545f455155414c0000006044820152606401610603565b60005b838110156106955760006068868684818110610e3057634e487b7160e01b600052603260045260246000fd5b9050602002810190610e429190613d69565b604051610e50929190613906565b908152604051908190036020019020541115610ec2576068858583818110610e8857634e487b7160e01b600052603260045260246000fd5b9050602002810190610e9a9190613d69565b604051610ea8929190613906565b90815260200160405180910390206000610ec2919061304d565b60005b838383818110610ee557634e487b7160e01b600052603260045260246000fd5b9050602002810190610ef79190613d22565b9050811015610fe3576068868684818110610f2257634e487b7160e01b600052603260045260246000fd5b9050602002810190610f349190613d69565b604051610f42929190613906565b9081526020016040518091039020848484818110610f7057634e487b7160e01b600052603260045260246000fd5b9050602002810190610f829190613d22565b83818110610fa057634e487b7160e01b600052603260045260246000fd5b9050602002810190610fb29190613d69565b825460018101845560009384526020909320610fd09301919061306b565b5080610fdb81613f54565b915050610ec5565b507fb2b57b54285120d17f49f2490a39ef791441fd0ad1e6b6818c23262bf91f061c85858381811061102557634e487b7160e01b600052603260045260246000fd5b90506020028101906110379190613d69565b604051611045929190613c77565b60405180910390a18061105781613f54565b915050610e04565b600061071e8261278e565b600061071e82612b7b565b60608061108183612835565b156111165760655460405163672b9f8160e01b815260048101869052602481018590526001600160a01b039091169063672b9f819060440160006040518083038186803b1580156110d157600080fd5b505afa1580156110e5573d6000803e3d6000fd5b505050506040513d6000823e601f3d908101601f1916820160405261110d9190810190613691565b915091506111c0565b600061112184612aa2565b90506001600160a01b0381163b156111be5760405163672b9f8160e01b815260048101869052602481018590526001600160a01b0382169063672b9f819060440160006040518083038186803b15801561117a57600080fd5b505afa9250505080156111af57506040513d6000823e601f3d908101601f191682016040526111ac9190810190613691565b60015b6111b8576111be565b90935091505b505b9250929050565b6065546040516370a0823160e01b81526001600160a01b03838116600483015260009283929116906370a082319060240160206040518083038186803b15801561121057600080fd5b505afa158015611224573d6000803e3d6000fd5b505050506040513d601f19601f8201168201806040525081019061124891906136ff565b6066549091506001600160a01b03161561071e576066546040516370a0823160e01b81526001600160a01b038581166004830152909116906370a082319060240160206040518083038186803b1580156112a157600080fd5b505afa1580156112b5573d6000803e3d6000fd5b505050506040513d601f19601f820116820180604052508101906112d991906136ff565b6108ee9082613e27565b6112eb612412565b6112f5600061287c565b565b606554604051633f1ba3cf60e11b81526001600160a01b0383811660048301526000921690637e37479e9060240160206040518083038186803b15801561133d57600080fd5b505afa158015611351573d6000803e3d6000fd5b505050506040513d601f19601f8201168201806040525081019061071e91906136ff565b606060006067868660405161138b929190613906565b908152602001604051809103902080546113a490613f19565b80601f01602080910402602001604051908101604052809291908181526020018280546113d090613f19565b801561141d5780601f106113f25761010080835404028352916020019161141d565b820191906000526020600020905b81548152906001019060200180831161140057829003601f168201915b50505050509050805160001415611434575061179a565b6000604051806040016040528060068152602001653a37b5b2b71760d11b81525090506000604051806040016040528060088152602001672e6164647265737360c01b81525090506000604051806040016040528060018152602001601760f91b815250905060008385838c8c868d8d8a6040516020016114bd999897969594939291906139b9565b604051602081830303815290604052905060006068826040516114e091906138ea565b9081526020016040518091039020805480602002602001604051908101604052809291908181526020016000905b828210156115ba57838290600052602060002001805461152d90613f19565b80601f016020809104026020016040519081016040528092919081815260200182805461155990613f19565b80156115a65780601f1061157b576101008083540402835291602001916115a6565b820191906000526020600020905b81548152906001019060200180831161158957829003601f168201915b50505050508152602001906001019061150e565b505050509050805160036115ce9190613e27565b6001600160401b038111156115f357634e487b7160e01b600052604160045260246000fd5b60405190808252806020026020018201604052801561162657816020015b60608152602001906001900390816116115790505b509650818760008151811061164b57634e487b7160e01b600052603260045260246000fd5b602002602001018190525060005b81518110156116d45781818151811061168257634e487b7160e01b600052603260045260246000fd5b6020026020010151888260016116989190613e27565b815181106116b657634e487b7160e01b600052603260045260246000fd5b602002602001018190525080806116cc90613f54565b915050611659565b508486848d8d886040516020016116f096959493929190613959565b604051602081830303815290604052878251600161170e9190613e27565b8151811061172c57634e487b7160e01b600052603260045260246000fd5b602002602001018190525084868560405160200161174c93929190613916565b604051602081830303815290604052878251600261176a9190613e27565b8151811061178857634e487b7160e01b600052603260045260246000fd5b60200260200101819052505050505050505b949350505050565b6060808080846001600160401b038111156117cd57634e487b7160e01b600052604160045260246000fd5b6040519080825280602002602001820160405280156117f6578160200160208202803683370190505b509350846001600160401b0381111561181f57634e487b7160e01b600052604160045260246000fd5b604051908082528060200260200182016040528015611848578160200160208202803683370190505b509250846001600160401b0381111561187157634e487b7160e01b600052604160045260246000fd5b6040519080825280602002602001820160405280156118a457816020015b606081526020019060019003908161188f5790505b509150846001600160401b038111156118cd57634e487b7160e01b600052604160045260246000fd5b60405190808252806020026020018201604052801561190057816020015b60608152602001906001900390816118eb5790505b50905060005b85811015611a0a5761193f898989898581811061193357634e487b7160e01b600052603260045260246000fd5b905060200201356124df565b88858151811061195f57634e487b7160e01b600052603260045260246000fd5b6020026020010188868151811061198657634e487b7160e01b600052603260045260246000fd5b602002602001018887815181106119ad57634e487b7160e01b600052603260045260246000fd5b602002602001018888815181106119d457634e487b7160e01b600052603260045260246000fd5b6020908102919091010193909352929091526001600160a01b039283169091529116905280611a0281613f54565b915050611906565b50945094509450949050565b7fe1b9c5b9c6f25fc6c03fdb76829a7257b1cdb10ff4bc4f62e0a94358c8121905546001600160a01b031690565b6000806060611a54868686612b9c565b9250925092505b93509350939050565b60608080836001600160401b03811115611a8e57634e487b7160e01b600052604160045260246000fd5b604051908082528060200260200182016040528015611ab7578160200160208202803683370190505b509250836001600160401b03811115611ae057634e487b7160e01b600052604160045260246000fd5b604051908082528060200260200182016040528015611b09578160200160208202803683370190505b509150836001600160401b03811115611b3257634e487b7160e01b600052604160045260246000fd5b604051908082528060200260200182016040528015611b6557816020015b6060815260200190600190039081611b505790505b50905060005b84811015611c4457611ba48888888885818110611b9857634e487b7160e01b600052603260045260246000fd5b90506020020135612b9c565b868481518110611bc457634e487b7160e01b600052603260045260246000fd5b60200260200101868581518110611beb57634e487b7160e01b600052603260045260246000fd5b60200260200101868681518110611c1257634e487b7160e01b600052603260045260246000fd5b60209081029190910101929092526001600160a01b039283169091529116905280611c3c81613f54565b915050611b6b565b509450945094915050565b606554604051634f558e7960e01b8152600481018390526000916001600160a01b031690634f558e799060240160206040518083038186803b158015611c9457600080fd5b505afa158015611ca8573d6000803e3d6000fd5b505050506040513d601f19601f82011682018060405250810190611ccc9190613529565b15611ce25750506065546001600160a01b031690565b6066546001600160a01b031615801590611d0e57506000611d0283612de6565b6001600160a01b031614155b15611d245750506066546001600160a01b031690565b506000919050565b6060816001600160401b03811115611d5457634e487b7160e01b600052604160045260246000fd5b604051908082528060200260200182016040528015611d8757816020015b6060815260200190600190039081611d725790505b50905060005b82811015611e4357611e0530858584818110611db957634e487b7160e01b600052603260045260246000fd5b9050602002810190611dcb9190613d69565b8080601f016020809104026020016040519081016040528093929190818152602001838380828437600092019190915250612e1892505050565b828281518110611e2557634e487b7160e01b600052603260045260246000fd5b60200260200101819052508080611e3b90613f54565b915050611d8d565b5092915050565b6000611e558261278e565b611e6157506000919050565b611e6a82612835565b611e9f5760665460405163b3f9e4cb60e01b8152600481018490526001600160a01b039091169063b3f9e4cb90602401610798565b60655460405163b3f9e4cb60e01b8152600481018490526001600160a01b039091169063b3f9e4cb9060240161081a565b606080836001600160401b03811115611ef957634e487b7160e01b600052604160045260246000fd5b604051908082528060200260200182016040528015611f2c57816020015b6060815260200190600190039081611f175790505b509150836001600160401b03811115611f5557634e487b7160e01b600052604160045260246000fd5b604051908082528060200260200182016040528015611f8857816020015b6060815260200190600190039081611f735790505b509050611f9483612835565b1561202a5760655460405163170b5fa560e31b81526001600160a01b039091169063b85afd2890611fcd90889088908890600401613c36565b60006040518083038186803b158015611fe557600080fd5b505afa158015611ff9573d6000803e3d6000fd5b505050506040513d6000823e601f3d908101601f1916820160405261202191908101906134c9565b915091506120e2565b600061203584612aa2565b90506001600160a01b0381163b1515801561204f57508415155b156120e05760405163170b5fa560e31b81526001600160a01b0382169063b85afd289061208490899089908990600401613c36565b60006040518083038186803b15801561209c57600080fd5b505afa9250505080156120d157506040513d6000823e601f3d908101601f191682016040526120ce91908101906134c9565b60015b6120da576120e0565b90935091505b505b935093915050565b60606120f98686868686612f0c565b979650505050505050565b606554604051632fafb1ad60e21b81526001600160a01b038381166004830152606092169063bebec6b4906024015b60006040518083038186803b15801561214b57600080fd5b505afa15801561215f573d6000803e3d6000fd5b505050506040513d6000823e601f3d908101601f1916820160405261071e919081019061365f565b60606121968686868686612f0c565b509695505050505050565b6060816001600160401b038111156121c957634e487b7160e01b600052604160045260246000fd5b6040519080825280602002602001820160405280156121f2578160200160208202803683370190505b50905060005b82811015611e435761222f84848381811061222357634e487b7160e01b600052603260045260246000fd5b90506020020135612b7b565b82828151811061224f57634e487b7160e01b600052603260045260246000fd5b6001600160a01b03909216602092830291909101909101528061227181613f54565b9150506121f8565b60606122848261278e565b61229c57505060408051602081019091526000815290565b6122a582612835565b6123295760665460405163c87b56dd60e01b8152600481018490526001600160a01b039091169063c87b56dd9060240160006040518083038186803b1580156122ed57600080fd5b505afa158015612301573d6000803e3d6000fd5b505050506040513d6000823e601f3d908101601f191682016040526107e8919081019061365f565b60655460405163c87b56dd60e01b8152600481018490526001600160a01b039091169063c87b56dd90602401612133565b60405162461bcd60e51b815260206004820152601f60248201527f50726f78795265616465723a20554e535550504f525445445f4d4554484f44006044820152600090606401610603565b6123ad612412565b6001600160a01b0381166108ca5760405162461bcd60e51b815260206004820152602660248201527f4f776e61626c653a206e6577206f776e657220697320746865207a65726f206160448201526564647265737360d01b6064820152608401610603565b3361241b611a16565b6001600160a01b0316146112f55760405162461bcd60e51b815260206004820181905260248201527f4f776e61626c653a2063616c6c6572206973206e6f7420746865206f776e65726044820152606401610603565b818160678686604051612485929190613906565b90815260405190819003602001902061249f92909161306b565b507f0bf4b04a0f6d7d0800284e1abb0f58f795c0a25b9088634b6ab847be51001dec84846040516124d1929190613c77565b60405180910390a150505050565b600080606080856001600160401b0381111561250b57634e487b7160e01b600052604160045260246000fd5b60405190808252806020026020018201604052801561253e57816020015b60608152602001906001900390816125295790505b509150856001600160401b0381111561256757634e487b7160e01b600052604160045260246000fd5b60405190808252806020026020018201604052801561259a57816020015b60608152602001906001900390816125855790505b5090506125a685612835565b156126c55760655460405163b3f9e4cb60e01b8152600481018790526001600160a01b039091169063b3f9e4cb9060240160206040518083038186803b1580156125ef57600080fd5b505afa158015612603573d6000803e3d6000fd5b505050506040513d601f19601f8201168201806040525081019061262791906132cc565b935061263285612fe2565b60655460405163170b5fa560e31b81529194506001600160a01b03169063b85afd2890612667908a908a908a90600401613c36565b60006040518083038186803b15801561267f57600080fd5b505afa158015612693573d6000803e3d6000fd5b505050506040513d6000823e601f3d908101601f191682016040526126bb91908101906134c9565b909250905061073e565b6126ce85612aa2565b93506126d985612de6565b92506001600160a01b0384163b151580156126f5575060008251115b1561073e5760405163170b5fa560e31b81526001600160a01b0385169063b85afd289061272a908a908a908a90600401613c36565b60006040518083038186803b15801561274257600080fd5b505afa92505050801561277757506040513d6000823e601f3d908101601f1916820160405261277491908101906134c9565b60015b6127805761073e565b909250905093509350935093565b600061279982612835565b6127b85760006127a883612de6565b6001600160a01b0316141561071e565b606554604051634f558e7960e01b8152600481018490526001600160a01b0390911690634f558e79906024015b60206040518083038186803b1580156127fd57600080fd5b505afa158015612811573d6000803e3d6000fd5b505050506040513d601f19601f8201168201806040525081019061071e9190613529565b6066546000906001600160a01b0316158061071e5750606554604051634f558e7960e01b8152600481018490526001600160a01b0390911690634f558e79906024016127e5565b6000612886611a16565b9050817fe1b9c5b9c6f25fc6c03fdb76829a7257b1cdb10ff4bc4f62e0a94358c812190580546001600160a01b0319166001600160a01b03928316179055604051838216918316907f8be0079c531659141344cd1fd0a4f28419497f9722a3daafe3b4186f6b6457e090600090a35050565b606082516001600160401b0381111561292157634e487b7160e01b600052604160045260246000fd5b60405190808252806020026020018201604052801561295457816020015b606081526020019060019003908161293f5790505b50905061296082612835565b156129f257606554604051630dec660d60e11b81526001600160a01b0390911690631bd8cc1a906129979086908690600401613c14565b60006040518083038186803b1580156129af57600080fd5b505afa1580156129c3573d6000803e3d6000fd5b505050506040513d6000823e601f3d908101601f191682016040526129eb9190810190613497565b905061071e565b60006129fd83612aa2565b90506001600160a01b0381163b15158015612a19575060008451115b15611e4357604051630dec660d60e11b81526001600160a01b03821690631bd8cc1a90612a4c9087908790600401613c14565b60006040518083038186803b158015612a6457600080fd5b505afa925050508015612a9957506040513d6000823e601f3d908101601f19168201604052612a969190810190613497565b60015b61179a57611e43565b60665460405163b3f9e4cb60e01b8152600481018390526000916001600160a01b03169063b3f9e4cb906024015b60206040518083038186803b158015612ae857600080fd5b505afa925050508015612b18575060408051601f3d908101601f19168201909252612b15918101906132cc565b60015b61071e57506000919050565b600054610100900460ff166112f55760405162461bcd60e51b815260040161060390613cd7565b600054610100900460ff16612b725760405162461bcd60e51b815260040161060390613cd7565b6112f53361287c565b6000612b8682612835565b612b93576107e882612de6565b61071e82612fe2565b6000806060846001600160401b03811115612bc757634e487b7160e01b600052604160045260246000fd5b604051908082528060200260200182016040528015612bfa57816020015b6060815260200190600190039081612be55790505b509050612c0684612835565b15612d225760655460405163b3f9e4cb60e01b8152600481018690526001600160a01b039091169063b3f9e4cb9060240160206040518083038186803b158015612c4f57600080fd5b505afa158015612c63573d6000803e3d6000fd5b505050506040513d601f19601f82011682018060405250810190612c8791906132cc565b9250612c9284612fe2565b606554604051630dec660d60e11b81529193506001600160a01b031690631bd8cc1a90612cc790899089908990600401613bb8565b60006040518083038186803b158015612cdf57600080fd5b505afa158015612cf3573d6000803e3d6000fd5b505050506040513d6000823e601f3d908101601f19168201604052612d1b9190810190613497565b9050611a5b565b612d2b84612aa2565b9250612d3684612de6565b91506001600160a01b0383163b15158015612d5057508415155b15611a5b57604051630dec660d60e11b81526001600160a01b03841690631bd8cc1a90612d8590899089908990600401613bb8565b60006040518083038186803b158015612d9d57600080fd5b505afa925050508015612dd257506040513d6000823e601f3d908101601f19168201604052612dcf9190810190613497565b60015b612ddb57611a5b565b905093509350939050565b6066546040516331a9108f60e11b8152600481018390526000916001600160a01b031690636352211e90602401612ad0565b60606001600160a01b0383163b612e805760405162461bcd60e51b815260206004820152602660248201527f416464726573733a2064656c65676174652063616c6c20746f206e6f6e2d636f6044820152651b9d1c9858dd60d21b6064820152608401610603565b600080846001600160a01b031684604051612e9b91906138ea565b600060405180830381855af49150503d8060008114612ed6576040519150601f19603f3d011682016040523d82523d6000602084013e612edb565b606091505b5091509150612f038282604051806060016040528060278152602001613fb160279139613014565b95945050505050565b6060806000612f1d88888888611375565b90506000612f2b82866128f8565b905060005b8151811015612fd5576000828281518110612f5b57634e487b7160e01b600052603260045260246000fd5b6020026020010151511115612fc357828181518110612f8a57634e487b7160e01b600052603260045260246000fd5b60200260200101519350818181518110612fb457634e487b7160e01b600052603260045260246000fd5b60200260200101519450612fd5565b80612fcd81613f54565b915050612f30565b5050509550959350505050565b6065546040516331a9108f60e11b8152600481018390526000916001600160a01b031690636352211e90602401612ad0565b606083156130235750816108ee565b8251156130335782518084602001fd5b8160405162461bcd60e51b81526004016106039190613c9f565b50805460008255906000526020600020908101906108d391906130ef565b82805461307790613f19565b90600052602060002090601f01602090048101928261309957600085556130df565b82601f106130b25782800160ff198235161785556130df565b828001600101855582156130df579182015b828111156130df5782358255916020019190600101906130c4565b506130eb92915061310c565b5090565b808211156130eb5760006131038282613121565b506001016130ef565b5b808211156130eb576000815560010161310d565b50805461312d90613f19565b6000825580601f1061313d575050565b601f0160209004906000526020600020908101906108d3919061310c565b60008083601f84011261316c578182fd5b5081356001600160401b03811115613182578182fd5b6020830191508360208260051b85010111156111c057600080fd5b600082601f8301126131ad578081fd5b815160206131c26131bd83613ddd565b613dad565b80838252828201915082860187848660051b89010111156131e1578586fd5b855b858110156132215781516001600160401b03811115613200578788fd5b61320e8a87838c010161326d565b85525092840192908401906001016131e3565b5090979650505050505050565b60008083601f84011261323f578182fd5b5081356001600160401b03811115613255578182fd5b6020830191508360208285010111156111c057600080fd5b600082601f83011261327d578081fd5b815161328b6131bd82613e00565b81815284602083860101111561329f578283fd5b61179a826020830160208701613ee9565b6000602082840312156132c1578081fd5b81356108ee81613f9b565b6000602082840312156132dd578081fd5b81516108ee81613f9b565b600080604083850312156132fa578081fd5b823561330581613f9b565b9150602083013561331581613f9b565b809150509250929050565b60008060408385031215613332578182fd5b823561333d81613f9b565b946020939093013593505050565b6000806020838503121561335d578182fd5b82356001600160401b03811115613372578283fd5b61337e8582860161315b565b90969095509350505050565b6000806000806040858703121561339f578182fd5b84356001600160401b03808211156133b5578384fd5b6133c18883890161315b565b909650945060208701359150808211156133d9578384fd5b506133e68782880161315b565b95989497509550505050565b60008060008060408587031215613407578182fd5b84356001600160401b038082111561341d578384fd5b6134298883890161315b565b90965094506020870135915080821115613441578384fd5b506133e68782880161322e565b600080600060408486031215613462578081fd5b83356001600160401b03811115613477578182fd5b6134838682870161315b565b909790965060209590950135949350505050565b6000602082840312156134a8578081fd5b81516001600160401b038111156134bd578182fd5b61179a8482850161319d565b600080604083850312156134db578182fd5b82516001600160401b03808211156134f1578384fd5b6134fd8683870161319d565b93506020850151915080821115613512578283fd5b5061351f8582860161319d565b9150509250929050565b60006020828403121561353a578081fd5b815180151581146108ee578182fd5b60006020828403121561355a578081fd5b81356001600160e01b0319811681146108ee578182fd5b600080604083850312156132fa578182fd5b60008060008060408587031215613598578182fd5b84356001600160401b03808211156135ae578384fd5b6134298883890161322e565b6000806000806000606086880312156135d1578283fd5b85356001600160401b03808211156135e7578485fd5b6135f389838a0161322e565b9097509550602088013591508082111561360b578485fd5b506136188882890161322e565b96999598509660400135949350505050565b60008060006040848603121561363e578081fd5b83356001600160401b03811115613653578182fd5b6134838682870161322e565b600060208284031215613670578081fd5b81516001600160401b03811115613685578182fd5b61179a8482850161326d565b600080604083850312156136a3578182fd5b82516001600160401b03808211156136b9578384fd5b6136c58683870161326d565b935060208501519150808211156136da578283fd5b5061351f8582860161326d565b6000602082840312156136f8578081fd5b5035919050565b600060208284031215613710578081fd5b5051919050565b60008060408385031215613729578182fd5b50508035926020909101359150565b6000815180845260208085019450808401835b838110156137705781516001600160a01b03168752958201959082019060010161374b565b509495945050505050565b600081518084526020808501808196508360051b81019150828601855b858110156137c25782840389526137b084835161384e565b98850198935090840190600101613798565b5091979650505050505050565b81835260006020808501808196508560051b8101915084845b878110156137c25782840389528135601e19883603018112613808578687fd5b870180356001600160401b0381111561381f578788fd5b80360389131561382d578788fd5b61383a86828985016138c1565b9a87019a95505050908401906001016137e8565b600081518084526020808501808196508360051b81019150828601855b858110156137c2578284038952613883848351613895565b9885019893509084019060010161386b565b600081518084526138ad816020860160208601613ee9565b601f01601f19169290920160200192915050565b81835281816020850137506000828201602090810191909152601f909101601f19169091010190565b600082516138fc818460208701613ee9565b9190910192915050565b8183823760009101908152919050565b60008451613928818460208901613ee9565b84519083019061393c818360208901613ee9565b845191019061394f818360208801613ee9565b0195945050505050565b6000875161396b818460208c01613ee9565b87519083019061397f818360208c01613ee9565b8751910190613992818360208b01613ee9565b0184868237840181815283516139ac818360208801613ee9565b0198975050505050505050565b60008a516139cb818460208f01613ee9565b8a51908301906139df818360208f01613ee9565b8a519101906139f2818360208e01613ee9565b018789823787018181528651613a0c818360208b01613ee9565b018486823784018181528351613a26818360208801613ee9565b019b9a5050505050505050505050565b6001600160a01b03848116825283166020820152606060408201819052600090612f039083018461384e565b6001600160a01b03858116825284166020820152608060408201819052600090613a8e9083018561384e565b82810360608401526120f9818561384e565b6020815260006108ee6020830184613738565b606081526000613ac66060830186613738565b8281036020840152613ad88186613738565b90508281036040840152613aec818561377b565b9695505050505050565b608081526000613b096080830187613738565b8281036020840152613b1b8187613738565b90508281036040840152613b2f818661377b565b905082810360608401526120f9818561377b565b6000602080830181845280855180835260408601915060408160051b8701019250838701855b82811015613b9757603f19888603018452613b85858351613895565b94509285019290850190600101613b69565b5092979650505050505050565b6020815260006108eb6020830184866137cf565b604081526000613bcc6040830185876137cf565b9050826020830152949350505050565b6020815260006108ee602083018461384e565b604081526000613c02604083018561384e565b8281036020840152612f03818561384e565b604081526000613c27604083018561384e565b90508260208301529392505050565b6040808252810183905260006001600160fb1b03841115613c55578081fd5b8360051b80866060850137820160600190815260209091019190915292915050565b6020815260006108eb6020830184866138c1565b604081526000613bcc6040830185876138c1565b6020815260006108ee6020830184613895565b604081526000613cc56040830185613895565b8281036020840152612f038185613895565b6020808252602b908201527f496e697469616c697a61626c653a20636f6e7472616374206973206e6f74206960408201526a6e697469616c697a696e6760a81b606082015260800190565b6000808335601e19843603018112613d38578283fd5b8301803591506001600160401b03821115613d51578283fd5b6020019150600581901b36038213156111c057600080fd5b6000808335601e19843603018112613d7f578283fd5b8301803591506001600160401b03821115613d98578283fd5b6020019150368190038213156111c057600080fd5b604051601f8201601f191681016001600160401b0381118282101715613dd557613dd5613f85565b604052919050565b60006001600160401b03821115613df657613df6613f85565b5060051b60200190565b60006001600160401b03821115613e1957613e19613f85565b50601f01601f191660200190565b60008219821115613e3a57613e3a613f6f565b500190565b6000613e4d6131bd84613ddd565b808482526020808301925084368760051b87011115613e6a578485fd5b845b87811015613edd5781356001600160401b03811115613e89578687fd5b870136601f820112613e99578687fd5b8035613ea76131bd82613e00565b8181523686838501011115613eba578889fd5b818684018783013790810185018890528652509382019390820190600101613e6c565b50919695505050505050565b60005b83811015613f04578181015183820152602001613eec565b83811115613f13576000848401525b50505050565b600181811c90821680613f2d57607f821691505b60208210811415613f4e57634e487b7160e01b600052602260045260246000fd5b50919050565b6000600019821415613f6857613f68613f6f565b5060010190565b634e487b7160e01b600052601160045260246000fd5b634e487b7160e01b600052604160045260246000fd5b6001600160a01b03811681146108d357600080fdfe416464726573733a206c6f772d6c6576656c2064656c65676174652063616c6c206661696c6564a164736f6c6343000804000a",
  "linkReferences": {},
  "deployedLinkReferences": {}
}