{
  "_format": "hh-sol-artifact-1",
  "contractName": "RegistryForwarderMock",
  "sourceName": "contracts/mocks/RegistryForwarderMock.sol",
  "abi": [
    {
      "inputs": [
        {
          "internalType": "uint256",
          "name": "tokenId",
          "type": "uint256"
        },
        {
          "internalType": "bytes",
          "name": "signature",
          "type": "bytes"
        }
      ],
      "name": "burnFor",
      "outputs": [],
      "stateMutability": "nonpayable",
      "type": "function"
    },
    {
      "inputs": [
        {
          "components": [
            {
              "internalType": "address",
              "name": "from",
              "type": "address"
            },
            {
              "internalType": "uint256",
              "name": "nonce",
              "type": "uint256"
            },
            {
              "internalType": "uint256",
              "name": "tokenId",
              "type": "uint256"
            },
            {
              "internalType": "bytes",
              "name": "data",
              "type": "bytes"
            }
          ],
          "internalType": "struct IForwarder.ForwardRequest",
          "name": "req",
          "type": "tuple"
        },
        {
          "internalType": "bytes",
          "name": "signature",
          "type": "bytes"
        }
      ],
      "name": "execute",
      "outputs": [
        {
          "internalType": "bytes",
          "name": "",
          "type": "bytes"
        }
      ],
      "stateMutability": "nonpayable",
      "type": "function"
    },
    {
      "inputs": [],
      "name": "initialize",
      "outputs": [],
      "stateMutability": "nonpayable",
      "type": "function"
    },
    {
      "inputs": [
        {
          "internalType": "uint256",
          "name": "tokenId",
          "type": "uint256"
        }
      ],
      "name": "nonceOf",
      "outputs": [
        {
          "internalType": "uint256",
          "name": "",
          "type": "uint256"
        }
      ],
      "stateMutability": "view",
      "type": "function"
    },
    {
      "inputs": [
        {
          "internalType": "string[]",
          "name": "keys",
          "type": "string[]"
        },
        {
          "internalType": "string[]",
          "name": "values",
          "type": "string[]"
        },
        {
          "internalType": "uint256",
          "name": "tokenId",
          "type": "uint256"
        },
        {
          "internalType": "bytes",
          "name": "signature",
          "type": "bytes"
        }
      ],
      "name": "reconfigureFor",
      "outputs": [],
      "stateMutability": "nonpayable",
      "type": "function"
    },
    {
      "inputs": [
        {
          "internalType": "uint256",
          "name": "tokenId",
          "type": "uint256"
        },
        {
          "internalType": "bytes",
          "name": "signature",
          "type": "bytes"
        }
      ],
      "name": "resetFor",
      "outputs": [],
      "stateMutability": "nonpayable",
      "type": "function"
    },
    {
      "inputs": [
        {
          "internalType": "address",
          "name": "from",
          "type": "address"
        },
        {
          "internalType": "address",
          "name": "to",
          "type": "address"
        },
        {
          "internalType": "uint256",
          "name": "tokenId",
          "type": "uint256"
        },
        {
          "internalType": "bytes",
          "name": "data",
          "type": "bytes"
        },
        {
          "internalType": "bytes",
          "name": "signature",
          "type": "bytes"
        }
      ],
      "name": "safeTransferFromFor",
      "outputs": [],
      "stateMutability": "nonpayable",
      "type": "function"
    },
    {
      "inputs": [
        {
          "internalType": "address",
          "name": "from",
          "type": "address"
        },
        {
          "internalType": "address",
          "name": "to",
          "type": "address"
        },
        {
          "internalType": "uint256",
          "name": "tokenId",
          "type": "uint256"
        },
        {
          "internalType": "bytes",
          "name": "signature",
          "type": "bytes"
        }
      ],
      "name": "safeTransferFromFor",
      "outputs": [],
      "stateMutability": "nonpayable",
      "type": "function"
    },
    {
      "inputs": [
        {
          "internalType": "string",
          "name": "key",
          "type": "string"
        },
        {
          "internalType": "string",
          "name": "value",
          "type": "string"
        },
        {
          "internalType": "uint256",
          "name": "tokenId",
          "type": "uint256"
        },
        {
          "internalType": "bytes",
          "name": "signature",
          "type": "bytes"
        }
      ],
      "name": "setFor",
      "outputs": [],
      "stateMutability": "nonpayable",
      "type": "function"
    },
    {
      "inputs": [
        {
          "internalType": "string[]",
          "name": "keys",
          "type": "string[]"
        },
        {
          "internalType": "string[]",
          "name": "values",
          "type": "string[]"
        },
        {
          "internalType": "uint256",
          "name": "tokenId",
          "type": "uint256"
        },
        {
          "internalType": "bytes",
          "name": "signature",
          "type": "bytes"
        }
      ],
      "name": "setManyFor",
      "outputs": [],
      "stateMutability": "nonpayable",
      "type": "function"
    },
    {
      "inputs": [
        {
          "internalType": "address",
          "name": "from",
          "type": "address"
        },
        {
          "internalType": "address",
          "name": "to",
          "type": "address"
        },
        {
          "internalType": "uint256",
          "name": "tokenId",
          "type": "uint256"
        },
        {
          "internalType": "bytes",
          "name": "signature",
          "type": "bytes"
        }
      ],
      "name": "transferFromFor",
      "outputs": [],
      "stateMutability": "nonpayable",
      "type": "function"
    },
    {
      "inputs": [
        {
          "components": [
            {
              "internalType": "address",
              "name": "from",
              "type": "address"
            },
            {
              "internalType": "uint256",
              "name": "nonce",
              "type": "uint256"
            },
            {
              "internalType": "uint256",
              "name": "tokenId",
              "type": "uint256"
            },
            {
              "internalType": "bytes",
              "name": "data",
              "type": "bytes"
            }
          ],
          "internalType": "struct IForwarder.ForwardRequest",
          "name": "req",
          "type": "tuple"
        },
        {
          "internalType": "bytes",
          "name": "signature",
          "type": "bytes"
        }
      ],
      "name": "verify",
      "outputs": [
        {
          "internalType": "bool",
          "name": "",
          "type": "bool"
        }
      ],
      "stateMutability": "view",
      "type": "function"
    }
  ],
  "bytecode": "0x608060405234801561001057600080fd5b5061142f806100206000396000f3fe608060405234801561001057600080fd5b50600436106100b45760003560e01c80638f69c188116100715780638f69c18814610145578063a3557e6c14610158578063a42474001461016b578063b87abc111461018b578063c59740731461019e578063ef2c3088146101b1576100b4565b80631bf7e13e146100b9578063280d9b05146100e257806361603dd9146100f75780636ccbae5f1461010a5780636debcb8d1461012a5780638129fc1c1461013d575b600080fd5b6100cc6100c7366004610d4d565b6101c4565b6040516100d99190611082565b60405180910390f35b6100f56100f0366004610bd4565b610299565b005b6100f5610105366004610dea565b610335565b61011d610118366004610dba565b6103c5565b6040516100d99190611240565b6100f5610138366004610b67565b6103da565b6100f5610405565b6100f5610153366004610c6c565b610482565b6100f5610166366004610c6c565b6104a8565b61017e610179366004610d4d565b6104ce565b6040516100d99190611059565b6100f5610199366004610dea565b610521565b6100f56101ac366004610cec565b61053f565b6100f56101bf366004610b67565b610565565b606060005a90506101d68585856104ce565b6101fb5760405162461bcd60e51b81526004016101f2906111fc565b60405180910390fd5b61028e61020b6020870187610b4d565b3060408801358461021f60608b018b611249565b8080601f0160208091040260200160405190810160405280939291908181526020018383808284376000920191909152505060408051808201909152601e81527f5265676973747279466f727761726465723a2043414c4c5f4641494c45440000602082015291506105879050565b9150505b9392505050565b60005a905061032a63b88d4fde89898989896040516024016102bf959493929190610fe0565b6040516020818303038152906040529060e01b6020820180516001600160e01b0383818316178352505050508785858080601f016020809104026020016040519081016040528093929190818152602001838380828437600092019190915250879250610657915050565b505050505050505050565b60005a90506103be6342966c68856040516024016103539190611240565b6040516020818303038152906040529060e01b6020820180516001600160e01b0383818316178352505050508585858080601f016020809104026020016040519081016040528093929190818152602001838380828437600092019190915250879250610657915050565b5050505050565b6000818152603560205260409020545b919050565b60005a90506103fc6342842e0e87878760405160240161035393929190610fbc565b50505050505050565b600054610100900460ff168061041e575060005460ff16155b61043a5760405162461bcd60e51b81526004016101f29061116c565b600054610100900460ff16158015610465576000805460ff1961ff0019909116610100171660011790555b61046d6106d0565b801561047f576000805461ff00191690555b50565b60005a905061032a63ce92b33e898989898960405160240161035395949392919061101f565b60005a905061032a63ec129eea898989898960405160240161035395949392919061101f565b60006105196104dc856112d2565b3085858080601f01602080910402602001604051908101604052809392919081815260200183838082843760009201919091525061073892505050565b949350505050565b60005a90506103be63310bd74b856040516024016103539190611240565b60005a905061032a6347c816998989898989604051602401610353959493929190611095565b60005a90506103fc6323b872dd87878760405160240161035393929190610fbc565b6060610592856107f9565b600080876001600160a01b031686868b8a6040516020016105b593929190610f4c565b60408051601f19818403018152908290526105cf91610f30565b60006040518083038160008787f1925050503d806000811461060d576040519150601f19603f3d011682016040523d82523d6000602084013e610612565b606091505b509092509050610623603f876112b2565b5a1161063f57634e487b7160e01b600052600160045260246000fd5b61064a828286610825565b9998505050505050505050565b6060600061068186805190602001203060356000898152602001908152602001600020548761085e565b90506106c6813087868a6040518060400160405280601e81526020017f5265676973747279466f727761726465723a2043414c4c5f4641494c45440000815250610587565b9695505050505050565b600054610100900460ff16806106e9575060005460ff16155b6107055760405162461bcd60e51b81526004016101f29061116c565b600054610100900460ff16158015610730576000805460ff1961ff0019909116610100171660011790555b61046d6108a6565b6040808401519051636ccbae5f60e01b815260009182913091636ccbae5f916107649190600401611240565b60206040518083038186803b15801561077c57600080fd5b505afa158015610790573d6000803e3d6000fd5b505050506040513d601f19601f820116820180604052508101906107b49190610dd2565b905060006107cf86606001518051906020012086848761085e565b90508560200151821480156106c6575085516001600160a01b038281169116149695505050505050565b60008181526035602052604090205461081390600161128e565b60009182526035602052604090912055565b60608315610834575081610292565b8251156108445782518084602001fd5b8160405162461bcd60e51b81526004016101f29190611082565b600061089d8261089787878760405160200161087c93929190610f08565b60405160208183030381529060405280519060200120610919565b90610949565b95945050505050565b600054610100900460ff16806108bf575060005460ff16155b6108db5760405162461bcd60e51b81526004016101f29061116c565b600054610100900460ff1615801561046d576000805460ff1961ff001990911661010017166001179055801561047f576000805461ff001916905550565b60008160405160200161092c9190610f8b565b604051602081830303815290604052805190602001209050919050565b6000806000808451604114156109735750505060208201516040830151606084015160001a6109b9565b8451604014156109a15750505060408201516020830151906001600160ff1b0381169060ff1c601b016109b9565b60405162461bcd60e51b81526004016101f2906110f3565b6106c68682858560007f7fffffffffffffffffffffffffffffff5d576e7357a4501ddfe92f46681b20a0821115610a025760405162461bcd60e51b81526004016101f29061112a565b8360ff16601b1480610a1757508360ff16601c145b610a335760405162461bcd60e51b81526004016101f2906111ba565b600060018686868660405160008152602001604052604051610a589493929190611064565b6020604051602081039080840390855afa158015610a7a573d6000803e3d6000fd5b5050604051601f1901519150506001600160a01b03811661089d5760405162461bcd60e51b81526004016101f2906110bc565b80356001600160a01b03811681146103d557600080fd5b60008083601f840112610ad5578081fd5b50813567ffffffffffffffff811115610aec578182fd5b6020830191508360208083028501011115610b0657600080fd5b9250929050565b60008083601f840112610b1e578182fd5b50813567ffffffffffffffff811115610b35578182fd5b602083019150836020828501011115610b0657600080fd5b600060208284031215610b5e578081fd5b61029282610aad565b600080600080600060808688031215610b7e578081fd5b610b8786610aad565b9450610b9560208701610aad565b935060408601359250606086013567ffffffffffffffff811115610bb7578182fd5b610bc388828901610b0d565b969995985093965092949392505050565b600080600080600080600060a0888a031215610bee578182fd5b610bf788610aad565b9650610c0560208901610aad565b955060408801359450606088013567ffffffffffffffff80821115610c28578384fd5b610c348b838c01610b0d565b909650945060808a0135915080821115610c4c578384fd5b50610c598a828b01610b0d565b989b979a50959850939692959293505050565b60008060008060008060006080888a031215610c86578283fd5b873567ffffffffffffffff80821115610c9d578485fd5b610ca98b838c01610ac4565b909950975060208a0135915080821115610cc1578485fd5b610ccd8b838c01610ac4565b909750955060408a0135945060608a0135915080821115610c4c578384fd5b60008060008060008060006080888a031215610d06578283fd5b873567ffffffffffffffff80821115610d1d578485fd5b610d298b838c01610b0d565b909950975060208a0135915080821115610d41578485fd5b610ccd8b838c01610b0d565b600080600060408486031215610d61578283fd5b833567ffffffffffffffff80821115610d78578485fd5b9085019060808288031215610d8b578485fd5b90935060208501359080821115610da0578384fd5b50610dad86828701610b0d565b9497909650939450505050565b600060208284031215610dcb578081fd5b5035919050565b600060208284031215610de3578081fd5b5051919050565b600080600060408486031215610dfe578283fd5b83359250602084013567ffffffffffffffff811115610e1b578283fd5b610dad86828701610b0d565b818352602080840193600091908185020181018584845b87811015610ea55782840389528135601e19883603018112610e5e578687fd5b8701803567ffffffffffffffff811115610e76578788fd5b803603891315610e84578788fd5b610e918682898501610eb2565b9a87019a9550505090840190600101610e3e565b5091979650505050505050565b60008284528282602086013780602084860101526020601f19601f85011685010190509392505050565b60008151808452610ef48160208601602086016113b3565b601f01601f19169290920160200192915050565b92835260609190911b6bffffffffffffffffffffffff19166020830152603482015260540190565b60008251610f428184602087016113b3565b9190910192915050565b60008451610f5e8184602089016113b3565b60609490941b6bffffffffffffffffffffffff191691909301908152601481019190915260340192915050565b7f19457468657265756d205369676e6564204d6573736167653a0a3332000000008152601c810191909152603c0190565b6001600160a01b039384168152919092166020820152604081019190915260600190565b6001600160a01b03868116825285166020820152604081018490526080606082018190526000906110149083018486610eb2565b979650505050505050565b600060608252611033606083018789610e27565b8281036020840152611046818688610e27565b9150508260408301529695505050505050565b901515815260200190565b93845260ff9290921660208401526040830152606082015260800190565b6000602082526102926020830184610edc565b6000606082526110a9606083018789610eb2565b8281036020840152611046818688610eb2565b60208082526018908201527f45434453413a20696e76616c6964207369676e61747572650000000000000000604082015260600190565b6020808252601f908201527f45434453413a20696e76616c6964207369676e6174757265206c656e67746800604082015260600190565b60208082526022908201527f45434453413a20696e76616c6964207369676e6174757265202773272076616c604082015261756560f01b606082015260800190565b6020808252602e908201527f496e697469616c697a61626c653a20636f6e747261637420697320616c72656160408201526d191e481a5b9a5d1a585b1a5e995960921b606082015260800190565b60208082526022908201527f45434453413a20696e76616c6964207369676e6174757265202776272076616c604082015261756560f01b606082015260800190565b60208082526024908201527f5265676973747279466f727761726465723a205349474e41545552455f494e566040820152631053125160e21b606082015260800190565b90815260200190565b6000808335601e1984360301811261125f578283fd5b83018035915067ffffffffffffffff821115611279578283fd5b602001915036819003821315610b0657600080fd5b600082198211156112ad57634e487b7160e01b81526011600452602481fd5b500190565b6000826112cd57634e487b7160e01b81526012600452602481fd5b500490565b6000608082360312156112e3578081fd5b604080516080810167ffffffffffffffff8282108183111715611308576113086113e3565b81845261131486610aad565b8352602091508186013582840152838601358484015260608601358181111561133b578586fd5b860136601f82011261134b578586fd5b80358281111561135d5761135d6113e3565b8551601f8201601f191681018501848111828210171561137f5761137f6113e3565b87528181523683830186011115611394578788fd5b8185840186830137908101909301959095525060608201529392505050565b60005b838110156113ce5781810151838201526020016113b6565b838111156113dd576000848401525b50505050565b634e487b7160e01b600052604160045260246000fdfea2646970667358221220034dd10711b175bd9e3f895a6d48e0e7111960a8aa531f8662051b66a060a6f764736f6c63430008000033",
  "linkReferences": {},
  "deployedLinkReferences": {}
}