{
  "_format": "hh-sol-artifact-1",
  "contractName": "RegistryForwarderMock",
  "sourceName": "contracts/mocks/RegistryForwarderMock.sol",
  "abi": [
    {
      "inputs": [
        {
          "internalType": "uint256",
          "name": "tokenId",
          "type": "uint256"
        },
        {
          "internalType": "bytes",
          "name": "signature",
          "type": "bytes"
        }
      ],
      "name": "burnFor",
      "outputs": [],
      "stateMutability": "nonpayable",
      "type": "function"
    },
    {
      "inputs": [
        {
          "components": [
            {
              "internalType": "address",
              "name": "from",
              "type": "address"
            },
            {
              "internalType": "uint256",
              "name": "gas",
              "type": "uint256"
            },
            {
              "internalType": "uint256",
              "name": "tokenId",
              "type": "uint256"
            },
            {
              "internalType": "uint256",
              "name": "nonce",
              "type": "uint256"
            },
            {
              "internalType": "bytes",
              "name": "data",
              "type": "bytes"
            }
          ],
          "internalType": "struct RegistryForwarder.ForwardRequest",
          "name": "req",
          "type": "tuple"
        },
        {
          "internalType": "bytes",
          "name": "signature",
          "type": "bytes"
        }
      ],
      "name": "execute",
      "outputs": [
        {
          "internalType": "bool",
          "name": "",
          "type": "bool"
        },
        {
          "internalType": "bytes",
          "name": "",
          "type": "bytes"
        }
      ],
      "stateMutability": "nonpayable",
      "type": "function"
    },
    {
      "inputs": [],
      "name": "initialize",
      "outputs": [],
      "stateMutability": "nonpayable",
      "type": "function"
    },
    {
      "inputs": [
        {
          "internalType": "uint256",
          "name": "tokenId",
          "type": "uint256"
        }
      ],
      "name": "nonceOf",
      "outputs": [
        {
          "internalType": "uint256",
          "name": "",
          "type": "uint256"
        }
      ],
      "stateMutability": "view",
      "type": "function"
    },
    {
      "inputs": [
        {
          "internalType": "string[]",
          "name": "keys",
          "type": "string[]"
        },
        {
          "internalType": "string[]",
          "name": "values",
          "type": "string[]"
        },
        {
          "internalType": "uint256",
          "name": "tokenId",
          "type": "uint256"
        },
        {
          "internalType": "bytes",
          "name": "signature",
          "type": "bytes"
        }
      ],
      "name": "reconfigureFor",
      "outputs": [],
      "stateMutability": "nonpayable",
      "type": "function"
    },
    {
      "inputs": [
        {
          "internalType": "uint256",
          "name": "tokenId",
          "type": "uint256"
        },
        {
          "internalType": "bytes",
          "name": "signature",
          "type": "bytes"
        }
      ],
      "name": "resetFor",
      "outputs": [],
      "stateMutability": "nonpayable",
      "type": "function"
    },
    {
      "inputs": [
        {
          "internalType": "address",
          "name": "from",
          "type": "address"
        },
        {
          "internalType": "address",
          "name": "to",
          "type": "address"
        },
        {
          "internalType": "uint256",
          "name": "tokenId",
          "type": "uint256"
        },
        {
          "internalType": "bytes",
          "name": "data",
          "type": "bytes"
        },
        {
          "internalType": "bytes",
          "name": "signature",
          "type": "bytes"
        }
      ],
      "name": "safeTransferFromFor",
      "outputs": [],
      "stateMutability": "nonpayable",
      "type": "function"
    },
    {
      "inputs": [
        {
          "internalType": "address",
          "name": "from",
          "type": "address"
        },
        {
          "internalType": "address",
          "name": "to",
          "type": "address"
        },
        {
          "internalType": "uint256",
          "name": "tokenId",
          "type": "uint256"
        },
        {
          "internalType": "bytes",
          "name": "signature",
          "type": "bytes"
        }
      ],
      "name": "safeTransferFromFor",
      "outputs": [],
      "stateMutability": "nonpayable",
      "type": "function"
    },
    {
      "inputs": [
        {
          "internalType": "string",
          "name": "key",
          "type": "string"
        },
        {
          "internalType": "string",
          "name": "value",
          "type": "string"
        },
        {
          "internalType": "uint256",
          "name": "tokenId",
          "type": "uint256"
        },
        {
          "internalType": "bytes",
          "name": "signature",
          "type": "bytes"
        }
      ],
      "name": "setFor",
      "outputs": [],
      "stateMutability": "nonpayable",
      "type": "function"
    },
    {
      "inputs": [
        {
          "internalType": "string[]",
          "name": "keys",
          "type": "string[]"
        },
        {
          "internalType": "string[]",
          "name": "values",
          "type": "string[]"
        },
        {
          "internalType": "uint256",
          "name": "tokenId",
          "type": "uint256"
        },
        {
          "internalType": "bytes",
          "name": "signature",
          "type": "bytes"
        }
      ],
      "name": "setManyFor",
      "outputs": [],
      "stateMutability": "nonpayable",
      "type": "function"
    },
    {
      "inputs": [
        {
          "internalType": "address",
          "name": "from",
          "type": "address"
        },
        {
          "internalType": "address",
          "name": "to",
          "type": "address"
        },
        {
          "internalType": "uint256",
          "name": "tokenId",
          "type": "uint256"
        },
        {
          "internalType": "bytes",
          "name": "signature",
          "type": "bytes"
        }
      ],
      "name": "transferFromFor",
      "outputs": [],
      "stateMutability": "nonpayable",
      "type": "function"
    },
    {
      "inputs": [
        {
          "components": [
            {
              "internalType": "address",
              "name": "from",
              "type": "address"
            },
            {
              "internalType": "uint256",
              "name": "gas",
              "type": "uint256"
            },
            {
              "internalType": "uint256",
              "name": "tokenId",
              "type": "uint256"
            },
            {
              "internalType": "uint256",
              "name": "nonce",
              "type": "uint256"
            },
            {
              "internalType": "bytes",
              "name": "data",
              "type": "bytes"
            }
          ],
          "internalType": "struct RegistryForwarder.ForwardRequest",
          "name": "req",
          "type": "tuple"
        },
        {
          "internalType": "bytes",
          "name": "signature",
          "type": "bytes"
        }
      ],
      "name": "verify",
      "outputs": [
        {
          "internalType": "bool",
          "name": "",
          "type": "bool"
        }
      ],
      "stateMutability": "view",
      "type": "function"
    }
  ],
  "bytecode": "0x608060405234801561001057600080fd5b506115bc806100206000396000f3fe608060405234801561001057600080fd5b50600436106100b45760003560e01c80638129fc1c116100715780638129fc1c1461015e5780638f69c18814610166578063a3557e6c14610179578063b87abc111461018c578063c59740731461019f578063ef2c3088146101b2576100b4565b80631796e180146100b9578063185be4e5146100e2578063280d9b051461010357806361603dd9146101185780636ccbae5f1461012b5780636debcb8d1461014b575b600080fd5b6100cc6100c7366004610f20565b6101c5565b6040516100d99190611261565b60405180910390f35b6100f56100f0366004610f20565b6102e9565b6040516100d992919061126c565b610116610111366004610da7565b610418565b005b610116610126366004610fa5565b6104ac565b61013e610139366004610f8d565b610534565b6040516100d991906114c8565b610116610159366004610d3a565b610549565b61011661056e565b610116610174366004610e3f565b6105eb565b610116610187366004610e3f565b61060c565b61011661019a366004610fa5565b61062d565b6101166101ad366004610ebf565b610646565b6101166101c0366004610d3a565b610667565b60008061029a84848080601f01602080910402602001604051908101604052809392919081815260200183838082843760009201919091525061029492507fbef6336eb668d2978cbfbc9a9c0885fa2ceac0ff0081fb58b62c67b4282cbc8a9150610235905060208a018a610d20565b60208a013560408b013560608c013561025160808e018e6114d1565b60405161025f9291906110e4565b60405190819003812061027996959493929160200161128f565b60405160208183030381529060405280519060200120610684565b9061069d565b60408087013560009081526035602052205490915060608601351480156102de57506102c96020860186610d20565b6001600160a01b0316816001600160a01b0316145b9150505b9392505050565b600060606102f88585856101c5565b61031d5760405162461bcd60e51b815260040161031490611484565b60405180910390fd5b61032c60608601356001611516565b604080870135600090815260356020908152918120929092558190309088013561035960808a018a6114d1565b61036660208c018c610d20565b8b6040013560405160200161037e94939291906110f4565b60408051601f198184030181529082905261039891611122565b60006040518083038160008787f1925050503d80600081146103d6576040519150601f19603f3d011682016040523d82523d6000602084013e6103db565b606091505b5090925090506103f0603f602089013561153a565b5a1161040c57634e487b7160e01b600052600160045260246000fd5b90969095509350505050565b6104a263b88d4fde88888888886040516024016104399594939291906111e8565b6040516020818303038152906040529060e01b6020820180516001600160e01b0383818316178352505050508684848080601f01602080910402602001604051908101604052809392919081815260200183838082843760009201919091525061072392505050565b5050505050505050565b61052e6342966c68846040516024016104c591906114c8565b6040516020818303038152906040529060e01b6020820180516001600160e01b0383818316178352505050508484848080601f01602080910402602001604051908101604052809392919081815260200183838082843760009201919091525061072392505050565b50505050565b6000818152603560205260409020545b919050565b6105666342842e0e8686866040516024016104c5939291906111c4565b505050505050565b600054610100900460ff1680610587575060005460ff16155b6105a35760405162461bcd60e51b8152600401610314906113f4565b600054610100900460ff161580156105ce576000805460ff1961ff0019909116610100171660011790555b6105d6610839565b80156105e8576000805461ff00191690555b50565b6104a263ce92b33e88888888886040516024016104c5959493929190611227565b6104a263ec129eea88888888886040516024016104c5959493929190611227565b61052e63310bd74b846040516024016104c591906114c8565b6104a26347c8169988888888886040516024016104c595949392919061130a565b6105666323b872dd8686866040516024016104c5939291906111c4565b60006106976106916108a1565b836108e1565b92915050565b6000806000808451604114156106c75750505060208201516040830151606084015160001a61070d565b8451604014156106f55750505060408201516020830151906001600160ff1b0381169060ff1c601b0161070d565b60405162461bcd60e51b81526004016103149061137b565b61071986828585610914565b9695505050505050565b606060005a9050600061073e86805190602001208686610a0a565b9050600080306001600160a01b03168489858a6040516020016107639392919061113e565b60408051601f198184030181529082905261077d91611122565b60006040518083038160008787f1925050503d80600081146107bb576040519150601f19603f3d011682016040523d82523d6000602084013e6107c0565b606091505b5090925090506107d1603f8561153a565b5a116107ed57634e487b7160e01b600052600160045260246000fd5b61082d82826040518060400160405280601e81526020017f5265676973747279466f727761726465723a2043414c4c5f4641494c45440000815250610a61565b98975050505050505050565b600054610100900460ff1680610852575060005460ff16155b61086e5760405162461bcd60e51b8152600401610314906113f4565b600054610100900460ff16158015610899576000805460ff1961ff0019909116610100171660011790555b6105d6610a9a565b60006108dc7f8b73c3c69bb8fe3d512ecc4cf759cc79239f7b179b0ffacaa9a75d522b39400f6108cf610b4a565b6108d7610b50565b610b56565b905090565b600082826040516020016108f69291906111a9565b60405160208183030381529060405280519060200120905092915050565b60007f7fffffffffffffffffffffffffffffff5d576e7357a4501ddfe92f46681b20a08211156109565760405162461bcd60e51b8152600401610314906113b2565b8360ff16601b148061096b57508360ff16601c145b6109875760405162461bcd60e51b815260040161031490611442565b6000600186868686604051600081526020016040526040516109ac94939291906112ec565b6020604051602081039080840390855afa1580156109ce573d6000803e3d6000fd5b5050604051601f1901519150506001600160a01b038116610a015760405162461bcd60e51b815260040161031490611344565b95945050505050565b6000610a568261029486306035600089815260200190815260200160002054604051602001610a3b939291906110c1565b60405160208183030381529060405280519060200120610b90565b90506102e283610bc0565b60608315610a705750816102e2565b825115610a805782518084602001fd5b8160405162461bcd60e51b81526004016103149190611331565b600054610100900460ff1680610ab3575060005460ff16155b610acf5760405162461bcd60e51b8152600401610314906113f4565b600054610100900460ff16158015610afa576000805460ff1961ff0019909116610100171660011790555b6105d6604051806040016040528060118152602001702932b3b4b9ba393ca337b93bb0b93232b960791b81525060405180604001604052806005815260200164302e302e3160d81b815250610bec565b60015490565b60025490565b60008383834630604051602001610b719594939291906112c0565b6040516020818303038152906040528051906020012090509392505050565b600081604051602001610ba39190611178565b604051602081830303815290604052805190602001209050919050565b600081815260356020526040902054610bda906001611516565b60009182526035602052604090912055565b600054610100900460ff1680610c05575060005460ff16155b610c215760405162461bcd60e51b8152600401610314906113f4565b600054610100900460ff16158015610c4c576000805460ff1961ff0019909116610100171660011790555b82516020808501919091208351918401919091206001919091556002558015610c7b576000805461ff00191690555b505050565b80356001600160a01b038116811461054457600080fd5b60008083601f840112610ca8578182fd5b50813567ffffffffffffffff811115610cbf578182fd5b6020830191508360208083028501011115610cd957600080fd5b9250929050565b60008083601f840112610cf1578182fd5b50813567ffffffffffffffff811115610d08578182fd5b602083019150836020828501011115610cd957600080fd5b600060208284031215610d31578081fd5b6102e282610c80565b600080600080600060808688031215610d51578081fd5b610d5a86610c80565b9450610d6860208701610c80565b935060408601359250606086013567ffffffffffffffff811115610d8a578182fd5b610d9688828901610ce0565b969995985093965092949392505050565b600080600080600080600060a0888a031215610dc1578182fd5b610dca88610c80565b9650610dd860208901610c80565b955060408801359450606088013567ffffffffffffffff80821115610dfb578384fd5b610e078b838c01610ce0565b909650945060808a0135915080821115610e1f578384fd5b50610e2c8a828b01610ce0565b989b979a50959850939692959293505050565b60008060008060008060006080888a031215610e59578283fd5b873567ffffffffffffffff80821115610e70578485fd5b610e7c8b838c01610c97565b909950975060208a0135915080821115610e94578485fd5b610ea08b838c01610c97565b909750955060408a0135945060608a0135915080821115610e1f578384fd5b60008060008060008060006080888a031215610ed9578283fd5b873567ffffffffffffffff80821115610ef0578485fd5b610efc8b838c01610ce0565b909950975060208a0135915080821115610f14578485fd5b610ea08b838c01610ce0565b600080600060408486031215610f34578283fd5b833567ffffffffffffffff80821115610f4b578485fd5b9085019060a08288031215610f5e578485fd5b90935060208501359080821115610f73578384fd5b50610f8086828701610ce0565b9497909650939450505050565b600060208284031215610f9e578081fd5b5035919050565b600080600060408486031215610fb9578283fd5b83359250602084013567ffffffffffffffff811115610fd6578283fd5b610f8086828701610ce0565b60008284526020808501945084818502860184845b8781101561105e5783830389528135601e19883603018112611017578687fd5b8701803567ffffffffffffffff81111561102f578788fd5b80360389131561103d578788fd5b61104a858289850161106b565b9a87019a9450505090840190600101610ff7565b5090979650505050505050565b60008284528282602086013780602084860101526020601f19601f85011685010190509392505050565b600081518084526110ad81602086016020860161155a565b601f01601f19169290920160200192915050565b92835260609190911b6001600160601b0319166020830152603482015260540190565b6000828483379101908152919050565b6000848683375060609290921b6001600160601b031916919092019081526014810191909152603401919050565b6000825161113481846020870161155a565b9190910192915050565b6000845161115081846020890161155a565b60609490941b6001600160601b03191691909301908152601481019190915260340192915050565b7f19457468657265756d205369676e6564204d6573736167653a0a3332000000008152601c810191909152603c0190565b61190160f01b81526002810192909252602282015260420190565b6001600160a01b039384168152919092166020820152604081019190915260600190565b6001600160a01b038681168252851660208201526040810184905260806060820181905260009061121c908301848661106b565b979650505050505050565b60006060825261123b606083018789610fe2565b828103602084015261124e818688610fe2565b9150508260408301529695505050505050565b901515815260200190565b60008315158252604060208301526112876040830184611095565b949350505050565b9586526001600160a01b0394909416602086015260408501929092526060840152608083015260a082015260c00190565b9485526020850193909352604084019190915260608301526001600160a01b0316608082015260a00190565b93845260ff9290921660208401526040830152606082015260800190565b60006060825261131e60608301878961106b565b828103602084015261124e81868861106b565b6000602082526102e26020830184611095565b60208082526018908201527f45434453413a20696e76616c6964207369676e61747572650000000000000000604082015260600190565b6020808252601f908201527f45434453413a20696e76616c6964207369676e6174757265206c656e67746800604082015260600190565b60208082526022908201527f45434453413a20696e76616c6964207369676e6174757265202773272076616c604082015261756560f01b606082015260800190565b6020808252602e908201527f496e697469616c697a61626c653a20636f6e747261637420697320616c72656160408201526d191e481a5b9a5d1a585b1a5e995960921b606082015260800190565b60208082526022908201527f45434453413a20696e76616c6964207369676e6174757265202776272076616c604082015261756560f01b606082015260800190565b60208082526024908201527f5265676973747279466f727761726465723a205349474e41545552455f494e566040820152631053125160e21b606082015260800190565b90815260200190565b6000808335601e198436030181126114e7578283fd5b83018035915067ffffffffffffffff821115611501578283fd5b602001915036819003821315610cd957600080fd5b6000821982111561153557634e487b7160e01b81526011600452602481fd5b500190565b60008261155557634e487b7160e01b81526012600452602481fd5b500490565b60005b8381101561157557818101518382015260200161155d565b8381111561052e575050600091015256fea264697066735822122008aa1ce7a5796c96ca95674f6b005c56ef60d6475a918457a16a83573033c59c64736f6c63430008000033",
  "linkReferences": {},
  "deployedLinkReferences": {}
}