{
  "_format": "hh-sol-artifact-1",
  "contractName": "RegistrarCustody",
  "sourceName": "contracts/RegistrarCustody.sol",
  "abi": [
    {
      "inputs": [],
      "stateMutability": "nonpayable",
      "type": "constructor"
    },
    {
      "inputs": [],
      "name": "InvalidExpiry",
      "type": "error"
    },
    {
      "inputs": [],
      "name": "InvalidSignature",
      "type": "error"
    },
    {
      "inputs": [],
      "name": "Unauthorized",
      "type": "error"
    },
    {
      "anonymous": false,
      "inputs": [
        {
          "indexed": false,
          "internalType": "address",
          "name": "previousAdmin",
          "type": "address"
        },
        {
          "indexed": false,
          "internalType": "address",
          "name": "newAdmin",
          "type": "address"
        }
      ],
      "name": "AdminChanged",
      "type": "event"
    },
    {
      "anonymous": false,
      "inputs": [
        {
          "indexed": true,
          "internalType": "uint256",
          "name": "tokenId",
          "type": "uint256"
        },
        {
          "indexed": false,
          "internalType": "uint256",
          "name": "registrarId",
          "type": "uint256"
        },
        {
          "indexed": false,
          "internalType": "address",
          "name": "userDelegation",
          "type": "address"
        }
      ],
      "name": "DomainTokenized",
      "type": "event"
    },
    {
      "anonymous": false,
      "inputs": [
        {
          "indexed": false,
          "internalType": "uint8",
          "name": "version",
          "type": "uint8"
        }
      ],
      "name": "Initialized",
      "type": "event"
    },
    {
      "anonymous": false,
      "inputs": [
        {
          "indexed": true,
          "internalType": "address",
          "name": "previousOwner",
          "type": "address"
        },
        {
          "indexed": true,
          "internalType": "address",
          "name": "newOwner",
          "type": "address"
        }
      ],
      "name": "OwnershipTransferred",
      "type": "event"
    },
    {
      "anonymous": false,
      "inputs": [
        {
          "indexed": true,
          "internalType": "bytes32",
          "name": "role",
          "type": "bytes32"
        },
        {
          "indexed": true,
          "internalType": "bytes32",
          "name": "previousAdminRole",
          "type": "bytes32"
        },
        {
          "indexed": true,
          "internalType": "bytes32",
          "name": "newAdminRole",
          "type": "bytes32"
        }
      ],
      "name": "RoleAdminChanged",
      "type": "event"
    },
    {
      "anonymous": false,
      "inputs": [
        {
          "indexed": true,
          "internalType": "bytes32",
          "name": "role",
          "type": "bytes32"
        },
        {
          "indexed": true,
          "internalType": "address",
          "name": "account",
          "type": "address"
        },
        {
          "indexed": true,
          "internalType": "address",
          "name": "sender",
          "type": "address"
        }
      ],
      "name": "RoleGranted",
      "type": "event"
    },
    {
      "anonymous": false,
      "inputs": [
        {
          "indexed": true,
          "internalType": "bytes32",
          "name": "role",
          "type": "bytes32"
        },
        {
          "indexed": true,
          "internalType": "address",
          "name": "account",
          "type": "address"
        },
        {
          "indexed": true,
          "internalType": "address",
          "name": "sender",
          "type": "address"
        }
      ],
      "name": "RoleRevoked",
      "type": "event"
    },
    {
      "anonymous": false,
      "inputs": [
        {
          "indexed": true,
          "internalType": "address",
          "name": "implementation",
          "type": "address"
        }
      ],
      "name": "Upgraded",
      "type": "event"
    },
    {
      "inputs": [],
      "name": "DEFAULT_ADMIN_ROLE",
      "outputs": [
        {
          "internalType": "bytes32",
          "name": "",
          "type": "bytes32"
        }
      ],
      "stateMutability": "view",
      "type": "function"
    },
    {
      "inputs": [],
      "name": "NAME",
      "outputs": [
        {
          "internalType": "string",
          "name": "",
          "type": "string"
        }
      ],
      "stateMutability": "view",
      "type": "function"
    },
    {
      "inputs": [],
      "name": "VERSION",
      "outputs": [
        {
          "internalType": "string",
          "name": "",
          "type": "string"
        }
      ],
      "stateMutability": "view",
      "type": "function"
    },
    {
      "inputs": [
        {
          "internalType": "address",
          "name": "account",
          "type": "address"
        }
      ],
      "name": "addAdmin",
      "outputs": [],
      "stateMutability": "nonpayable",
      "type": "function"
    },
    {
      "inputs": [
        {
          "internalType": "uint256",
          "name": "registrarId",
          "type": "uint256"
        },
        {
          "internalType": "address",
          "name": "account",
          "type": "address"
        }
      ],
      "name": "addRegistrar",
      "outputs": [],
      "stateMutability": "nonpayable",
      "type": "function"
    },
    {
      "inputs": [
        {
          "components": [
            {
              "internalType": "address",
              "name": "from",
              "type": "address"
            },
            {
              "internalType": "uint256",
              "name": "nonce",
              "type": "uint256"
            },
            {
              "internalType": "uint256",
              "name": "tokenId",
              "type": "uint256"
            },
            {
              "internalType": "bytes",
              "name": "data",
              "type": "bytes"
            }
          ],
          "internalType": "struct IForwarder.ForwardRequest",
          "name": "req",
          "type": "tuple"
        },
        {
          "internalType": "bytes",
          "name": "signature",
          "type": "bytes"
        }
      ],
      "name": "execute",
      "outputs": [
        {
          "internalType": "bytes",
          "name": "",
          "type": "bytes"
        }
      ],
      "stateMutability": "nonpayable",
      "type": "function"
    },
    {
      "inputs": [
        {
          "internalType": "bytes32",
          "name": "role",
          "type": "bytes32"
        }
      ],
      "name": "getRoleAdmin",
      "outputs": [
        {
          "internalType": "bytes32",
          "name": "",
          "type": "bytes32"
        }
      ],
      "stateMutability": "view",
      "type": "function"
    },
    {
      "inputs": [
        {
          "internalType": "bytes32",
          "name": "role",
          "type": "bytes32"
        },
        {
          "internalType": "address",
          "name": "account",
          "type": "address"
        }
      ],
      "name": "grantRole",
      "outputs": [],
      "stateMutability": "nonpayable",
      "type": "function"
    },
    {
      "inputs": [
        {
          "internalType": "bytes32",
          "name": "role",
          "type": "bytes32"
        },
        {
          "internalType": "address",
          "name": "account",
          "type": "address"
        }
      ],
      "name": "hasRole",
      "outputs": [
        {
          "internalType": "bool",
          "name": "",
          "type": "bool"
        }
      ],
      "stateMutability": "view",
      "type": "function"
    },
    {
      "inputs": [
        {
          "internalType": "address",
          "name": "_unsRegistry",
          "type": "address"
        },
        {
          "internalType": "address",
          "name": "_mintingManager",
          "type": "address"
        }
      ],
      "name": "initialize",
      "outputs": [],
      "stateMutability": "nonpayable",
      "type": "function"
    },
    {
      "inputs": [
        {
          "internalType": "address",
          "name": "account",
          "type": "address"
        }
      ],
      "name": "isAdmin",
      "outputs": [
        {
          "internalType": "bool",
          "name": "",
          "type": "bool"
        }
      ],
      "stateMutability": "view",
      "type": "function"
    },
    {
      "inputs": [
        {
          "internalType": "uint256",
          "name": "registrarId",
          "type": "uint256"
        },
        {
          "internalType": "address",
          "name": "account",
          "type": "address"
        }
      ],
      "name": "isRegistrar",
      "outputs": [
        {
          "internalType": "bool",
          "name": "",
          "type": "bool"
        }
      ],
      "stateMutability": "view",
      "type": "function"
    },
    {
      "inputs": [
        {
          "internalType": "address",
          "name": "forwarder",
          "type": "address"
        }
      ],
      "name": "isTrustedForwarder",
      "outputs": [
        {
          "internalType": "bool",
          "name": "",
          "type": "bool"
        }
      ],
      "stateMutability": "view",
      "type": "function"
    },
    {
      "inputs": [
        {
          "internalType": "bytes32",
          "name": "hash",
          "type": "bytes32"
        },
        {
          "internalType": "bytes",
          "name": "signature",
          "type": "bytes"
        }
      ],
      "name": "isValidSignature",
      "outputs": [
        {
          "internalType": "bytes4",
          "name": "",
          "type": "bytes4"
        }
      ],
      "stateMutability": "view",
      "type": "function"
    },
    {
      "inputs": [],
      "name": "mintingManager",
      "outputs": [
        {
          "internalType": "contract IMintingManager",
          "name": "",
          "type": "address"
        }
      ],
      "stateMutability": "view",
      "type": "function"
    },
    {
      "inputs": [
        {
          "internalType": "uint256",
          "name": "tokenId",
          "type": "uint256"
        }
      ],
      "name": "nonceOf",
      "outputs": [
        {
          "internalType": "uint256",
          "name": "",
          "type": "uint256"
        }
      ],
      "stateMutability": "view",
      "type": "function"
    },
    {
      "inputs": [],
      "name": "owner",
      "outputs": [
        {
          "internalType": "address",
          "name": "",
          "type": "address"
        }
      ],
      "stateMutability": "view",
      "type": "function"
    },
    {
      "inputs": [
        {
          "internalType": "uint256",
          "name": "",
          "type": "uint256"
        }
      ],
      "name": "registrarDelegations",
      "outputs": [
        {
          "internalType": "uint256",
          "name": "",
          "type": "uint256"
        }
      ],
      "stateMutability": "view",
      "type": "function"
    },
    {
      "inputs": [
        {
          "internalType": "uint256",
          "name": "registrarId",
          "type": "uint256"
        }
      ],
      "name": "registrarRole",
      "outputs": [
        {
          "internalType": "bytes32",
          "name": "",
          "type": "bytes32"
        }
      ],
      "stateMutability": "pure",
      "type": "function"
    },
    {
      "inputs": [
        {
          "internalType": "address",
          "name": "account",
          "type": "address"
        }
      ],
      "name": "removeAdmin",
      "outputs": [],
      "stateMutability": "nonpayable",
      "type": "function"
    },
    {
      "inputs": [
        {
          "internalType": "uint256",
          "name": "registrarId",
          "type": "uint256"
        },
        {
          "internalType": "address",
          "name": "account",
          "type": "address"
        }
      ],
      "name": "removeRegistrar",
      "outputs": [],
      "stateMutability": "nonpayable",
      "type": "function"
    },
    {
      "inputs": [],
      "name": "renounceAdmin",
      "outputs": [],
      "stateMutability": "nonpayable",
      "type": "function"
    },
    {
      "inputs": [],
      "name": "renounceOwnership",
      "outputs": [],
      "stateMutability": "nonpayable",
      "type": "function"
    },
    {
      "inputs": [
        {
          "internalType": "bytes32",
          "name": "role",
          "type": "bytes32"
        },
        {
          "internalType": "address",
          "name": "account",
          "type": "address"
        }
      ],
      "name": "renounceRole",
      "outputs": [],
      "stateMutability": "nonpayable",
      "type": "function"
    },
    {
      "inputs": [
        {
          "internalType": "uint256",
          "name": "tokenId",
          "type": "uint256"
        }
      ],
      "name": "revoke",
      "outputs": [],
      "stateMutability": "nonpayable",
      "type": "function"
    },
    {
      "inputs": [
        {
          "internalType": "bytes32",
          "name": "role",
          "type": "bytes32"
        },
        {
          "internalType": "address",
          "name": "account",
          "type": "address"
        }
      ],
      "name": "revokeRole",
      "outputs": [],
      "stateMutability": "nonpayable",
      "type": "function"
    },
    {
      "inputs": [
        {
          "internalType": "address",
          "name": "newAdmin",
          "type": "address"
        }
      ],
      "name": "rotateAdmin",
      "outputs": [],
      "stateMutability": "nonpayable",
      "type": "function"
    },
    {
      "inputs": [
        {
          "internalType": "address",
          "name": "operator",
          "type": "address"
        },
        {
          "internalType": "bool",
          "name": "approved",
          "type": "bool"
        }
      ],
      "name": "setApprovalForAll",
      "outputs": [],
      "stateMutability": "nonpayable",
      "type": "function"
    },
    {
      "inputs": [
        {
          "internalType": "string[]",
          "name": "keys",
          "type": "string[]"
        },
        {
          "internalType": "string[]",
          "name": "values",
          "type": "string[]"
        },
        {
          "internalType": "uint256",
          "name": "tokenId",
          "type": "uint256"
        }
      ],
      "name": "setRecords",
      "outputs": [],
      "stateMutability": "nonpayable",
      "type": "function"
    },
    {
      "inputs": [
        {
          "internalType": "bytes4",
          "name": "interfaceId",
          "type": "bytes4"
        }
      ],
      "name": "supportsInterface",
      "outputs": [
        {
          "internalType": "bool",
          "name": "",
          "type": "bool"
        }
      ],
      "stateMutability": "view",
      "type": "function"
    },
    {
      "inputs": [
        {
          "internalType": "string[]",
          "name": "labels",
          "type": "string[]"
        },
        {
          "internalType": "string[]",
          "name": "keys",
          "type": "string[]"
        },
        {
          "internalType": "string[]",
          "name": "values",
          "type": "string[]"
        },
        {
          "internalType": "uint64",
          "name": "expiry",
          "type": "uint64"
        },
        {
          "internalType": "uint256",
          "name": "registrarId",
          "type": "uint256"
        },
        {
          "internalType": "address",
          "name": "userDelegation",
          "type": "address"
        }
      ],
      "name": "tokenizeDomain",
      "outputs": [],
      "stateMutability": "nonpayable",
      "type": "function"
    },
    {
      "inputs": [
        {
          "internalType": "address",
          "name": "newOwner",
          "type": "address"
        }
      ],
      "name": "transferOwnership",
      "outputs": [],
      "stateMutability": "nonpayable",
      "type": "function"
    },
    {
      "inputs": [],
      "name": "unsRegistry",
      "outputs": [
        {
          "internalType": "contract IUNSRegistry",
          "name": "",
          "type": "address"
        }
      ],
      "stateMutability": "view",
      "type": "function"
    },
    {
      "inputs": [
        {
          "internalType": "uint256",
          "name": "",
          "type": "uint256"
        }
      ],
      "name": "userDelegations",
      "outputs": [
        {
          "internalType": "address",
          "name": "",
          "type": "address"
        }
      ],
      "stateMutability": "view",
      "type": "function"
    },
    {
      "inputs": [
        {
          "components": [
            {
              "internalType": "address",
              "name": "from",
              "type": "address"
            },
            {
              "internalType": "uint256",
              "name": "nonce",
              "type": "uint256"
            },
            {
              "internalType": "uint256",
              "name": "tokenId",
              "type": "uint256"
            },
            {
              "internalType": "bytes",
              "name": "data",
              "type": "bytes"
            }
          ],
          "internalType": "struct IForwarder.ForwardRequest",
          "name": "req",
          "type": "tuple"
        },
        {
          "internalType": "bytes",
          "name": "signature",
          "type": "bytes"
        }
      ],
      "name": "verify",
      "outputs": [
        {
          "internalType": "bool",
          "name": "",
          "type": "bool"
        }
      ],
      "stateMutability": "view",
      "type": "function"
    }
  ],
  "bytecode": "0x608060405234801562000010575f80fd5b506200001b62000021565b620000e0565b5f54610100900460ff16156200008d5760405162461bcd60e51b815260206004820152602760248201527f496e697469616c697a61626c653a20636f6e747261637420697320696e697469604482015266616c697a696e6760c81b606482015260840160405180910390fd5b5f5460ff9081161015620000de575f805460ff191660ff9081179091556040519081527f7f26b83ff96e1f2b6a682f133852f6798a09c465da95921460cefb38474024989060200160405180910390a15b565b6126a080620000ee5f395ff3fe608060405234801561000f575f80fd5b5060043610610208575f3560e01c8063588844321161011f578063a217fddf116100a9578063bb09d9e611610079578063bb09d9e6146104ce578063d547741f146104f7578063e71661231461050a578063f2fde38b1461051d578063ffa1ad7414610530575f80fd5b8063a217fddf1461046c578063a22cb46514610473578063a3f4df7e14610486578063a4247400146104bb575f80fd5b8063715018a6116100ef578063715018a6146104255780638bad0c0a1461042d5780638c9d518f146104355780638da5cb5b1461044857806391d1485414610459575f80fd5b806358884432146103d85780636aac4b00146103ec5780636ccbae5f146103ff5780637048027514610412575f80fd5b806324d7806c116101a05780633f41b614116101705780633f41b614146103575780633f7baeb914610383578063485cc9551461039657806348ef58cd146103a9578063572b6c05146103bc575f80fd5b806324d7806c1461030b5780632ccec6a01461031e5780632f2ff15d1461033157806336568abe14610344575f80fd5b80631bf7e13e116101db5780631bf7e13e146102a35780631eb76f65146102c357806320c5429b146102d6578063248a9ca3146102e9575f80fd5b806301ffc9a71461020c5780630511711c146102345780631626ba7e146102625780631785f53c1461028e575b5f80fd5b61021f61021a366004611db9565b610554565b60405190151581526020015b60405180910390f35b610254610242366004611de0565b6101616020525f908152604090205481565b60405190815260200161022b565b610275610270366004611e93565b61058a565b6040516001600160e01b0319909116815260200161022b565b6102a161029c366004611eea565b6105e0565b005b6102b66102b1366004611f05565b6105f5565b60405161022b9190611fe7565b6102546102d1366004611de0565b6106be565b6102a16102e4366004611de0565b61070b565b6102546102f7366004611de0565b5f90815260fb602052604090206001015490565b61021f610319366004611eea565b6107b0565b6102a161032c366004611eea565b6107bb565b6102a161033f366004611ff9565b6107d9565b6102a1610352366004611ff9565b610802565b61015f5461036b906001600160a01b031681565b6040516001600160a01b03909116815260200161022b565b6102a1610391366004611ff9565b610895565b6102a16103a4366004612027565b6108af565b6102a16103b73660046120a7565b610a0d565b61021f6103ca366004611eea565b6001600160a01b0316301490565b6101605461036b906001600160a01b031681565b6102a16103fa366004611ff9565b610ec3565b61025461040d366004611de0565b610edd565b6102a1610420366004611eea565b610f36565b6102a1610f48565b6102a1610f5b565b61021f610443366004611ff9565b610f67565b6097546001600160a01b031661036b565b61021f610467366004611ff9565b610f76565b6102545f81565b6102a1610481366004612173565b610fa0565b6102b660405180604001604052806016815260200175554e533a2052656769737472617220437573746f647960501b81525081565b61021f6104c9366004611f05565b61100f565b61036b6104dc366004611de0565b6101626020525f90815260409020546001600160a01b031681565b6102a1610505366004611ff9565b611060565b6102a161051836600461219f565b611084565b6102a161052b366004611eea565b611156565b6102b6604051806040016040528060058152602001640302e322e360dc1b81525081565b5f6001600160e01b03198216637965db0b60e01b148061058457506301ffc9a760e01b6001600160e01b03198316145b92915050565b5f8061059684846111cc565b90506105a1816107b0565b156105cf577f1626ba7e356f5979dd355a3d2bfb43e80420a480c3b854edce286a82d7496869915050610584565b506001600160e01b03199392505050565b6105e86111ee565b6105f25f82611060565b50565b60605f5a905061060685858561100f565b61062357604051638baa579f60e01b815260040160405180910390fd5b6106b36106336020870187611eea565b3060408801358461064760608b018b61220c565b8080601f0160208091040260200160405190810160405280939291908181526020018383808284375f9201919091525050604080516020601f8e018190048102820181019092528c815292508c91508b90819084018382808284375f9201919091525061126792505050565b9150505b9392505050565b604080516020810182905260096060820152682922a3a4a9aa2920a960b91b60808201529081018290525f9060a0015b604051602081830303815290604052805190602001209050919050565b5f818152610161602052604090205461072690610443611343565b610742576040516282b42960e81b815260040160405180910390fd5b61015f54610160546040516323b872dd60e01b81523060048201526001600160a01b039182166024820152604481018490529116906323b872dd906064015f604051808303815f87803b158015610797575f80fd5b505af11580156107a9573d5f803e3d5ffd5b5050505050565b5f6105848183610f76565b6107c36111ee565b6107cd5f82611351565b6105f25f610352611343565b5f82815260fb60205260409020600101546107f38161135b565b6107fd838361136c565b505050565b61080a611343565b6001600160a01b0316816001600160a01b0316146108875760405162461bcd60e51b815260206004820152602f60248201527f416363657373436f6e74726f6c3a2063616e206f6e6c792072656e6f756e636560448201526e103937b632b9903337b91039b2b63360891b60648201526084015b60405180910390fd5b61089182826113f2565b5050565b61089d6111ee565b6108916108a9836106be565b82611351565b5f54610100900460ff16158080156108cd57505f54600160ff909116105b806108e65750303b1580156108e657505f5460ff166001145b6109495760405162461bcd60e51b815260206004820152602e60248201527f496e697469616c697a61626c653a20636f6e747261637420697320616c72656160448201526d191e481a5b9a5d1a585b1a5e995960921b606482015260840161087e565b5f805460ff19166001179055801561096a575f805461ff0019166101001790555b61015f80546001600160a01b038086166001600160a01b0319928316179092556101608054928516929091169190911790556109a4611476565b6109ac6114a3565b6109b46114a3565b6109bc6114c9565b6109c46114ff565b80156107fd575f805461ff0019169055604051600181527f7f26b83ff96e1f2b6a682f133852f6798a09c465da95921460cefb38474024989060200160405180910390a1505050565b610a195f610467611343565b610a35576040516282b42960e81b815260040160405180910390fd5b600260655403610a875760405162461bcd60e51b815260206004820152601f60248201527f5265656e7472616e637947756172643a207265656e7472616e742063616c6c00604482015260640161087e565b600260655561015f5460405163276fabb160e01b81525f916001600160a01b03169063276fabb190610abf908d908d90600401612307565b602060405180830381865afa158015610ada573d5f803e3d5ffd5b505050506040513d601f19601f82011682018060405250810190610afe919061231a565b61015f54604051634f558e7960e01b8152600481018390529192505f916001600160a01b0390911690634f558e7990602401602060405180830381865afa158015610b4b573d5f803e3d5ffd5b505050506040513d601f19601f82011682018060405250810190610b6f9190612331565b9050808015610bf0575061015f546040516331a9108f60e11b81526004810184905230916001600160a01b031690636352211e90602401602060405180830381865afa158015610bc1573d5f803e3d5ffd5b505050506040513d601f19601f82011682018060405250810190610be5919061234c565b6001600160a01b0316145b15610d725761015f5460405163baef73e960e01b8152600481018490525f916001600160a01b03169063baef73e990602401602060405180830381865afa158015610c3d573d5f803e3d5ffd5b505050506040513d601f19601f82011682018060405250810190610c619190612367565b6001600160401b03169050805f03610c8b5760405162d36c8560e81b815260040160405180910390fd5b856001600160401b0316811015610d065761016054604051630f6dca4760e11b81526001600160401b0388166004820152602481018590526001600160a01b0390911690631edb948e906044015f604051808303815f87803b158015610cef575f80fd5b505af1158015610d01573d5f803e3d5ffd5b505050505b61015f54604051636749599f60e11b81526001600160a01b039091169063ce92b33e90610d3f908d908d908d908d908a90600401612382565b5f604051808303815f87803b158015610d56575f80fd5b505af1158015610d68573d5f803e3d5ffd5b5050505050610e42565b8015610dd357610160546040516320c5429b60e01b8152600481018490526001600160a01b03909116906320c5429b906024015f604051808303815f87803b158015610dbc575f80fd5b505af1158015610dce573d5f803e3d5ffd5b505050505b61016054604051632f1166c360e11b81526001600160a01b0390911690635e22cd8690610e149030908f908f908f908f908f908f908f905f906004016123bb565b5f604051808303815f87803b158015610e2b575f80fd5b505af1158015610e3d573d5f803e3d5ffd5b505050505b5f8281526101616020908152604080832087905561016282529182902080546001600160a01b0319166001600160a01b03871690811790915582518781529182015283917ff62b185f823f021c1bb017de468883a6c58d0070339da7646c1742def39080b8910160405180910390a250506001606555505050505050505050565b610ecb6111ee565b610891610ed7836106be565b82611060565b604080517f1ee5d87a048b728f67073f282321992c260e5be4fa651d08665c5b4ee7a8381560208201529081018290525f90610f2f906060016040516020818303038152906040528051906020012090565b5492915050565b610f3e6111ee565b6105f25f82611351565b610f506111ee565b610f595f611536565b565b610f595f610352611343565b5f6106b7610f74846106be565b835b5f91825260fb602090815260408084206001600160a01b0393909316845291905290205460ff1690565b610fa86111ee565b61015f5460405163a22cb46560e01b81526001600160a01b03848116600483015283151560248301529091169063a22cb465906044015f604051808303815f87803b158015610ff5575f80fd5b505af1158015611007573d5f803e3d5ffd5b505050505050565b5f61105861101c8561242e565b3085858080601f0160208091040260200160405190810160405280939291908181526020018383808284375f9201919091525061158792505050565b949350505050565b5f82815260fb602052604090206001015461107a8161135b565b6107fd83836113f2565b5f818152610161602052604090205461109f90610443611343565b15806110cc57506110ae611343565b5f82815261016260205260409020546001600160a01b039081169116145b156110e9576040516282b42960e81b815260040160405180910390fd5b61015f54604051636749599f60e11b81526001600160a01b039091169063ce92b33e906111229088908890889088908890600401612382565b5f604051808303815f87803b158015611139575f80fd5b505af115801561114b573d5f803e3d5ffd5b505050505050505050565b61115e6111ee565b6001600160a01b0381166111c35760405162461bcd60e51b815260206004820152602660248201527f4f776e61626c653a206e6577206f776e657220697320746865207a65726f206160448201526564647265737360d01b606482015260840161087e565b6105f281611536565b5f805f6111d98585611687565b915091506111e6816116c9565b509392505050565b6111f6611343565b6001600160a01b03166112116097546001600160a01b031690565b6001600160a01b031614610f595760405162461bcd60e51b815260206004820181905260248201527f4f776e61626c653a2063616c6c6572206973206e6f7420746865206f776e6572604482015260640161087e565b60606112728561187e565b5f80876001600160a01b03168661128b8b8a89896118e3565b60405161129891906124b5565b5f604051808303815f8787f1925050503d805f81146112d2576040519150601f19603f3d011682016040523d82523d5f602084013e6112d7565b606091505b5090925090506112e8603f876124e4565b5a116112f6576112f6612503565b61133682826040518060400160405280601a81526020017f42617365466f727761726465723a2043414c4c5f4641494c4544000000000000815250611913565b9998505050505050505050565b5f61134c61194c565b905090565b610891828261136c565b6105f281611367611343565b611966565b6113768282610f76565b610891575f82815260fb602090815260408083206001600160a01b03851684529091529020805460ff191660011790556113ae611343565b6001600160a01b0316816001600160a01b0316837f2f8788117e7eff1d82e926ec794901d17c78024a50270940304540a733656f0d60405160405180910390a45050565b6113fc8282610f76565b15610891575f82815260fb602090815260408083206001600160a01b03851684529091529020805460ff19169055611432611343565b6001600160a01b0316816001600160a01b0316837ff6391f5c32d9c69d2a47ea670b442974b53935d1edc7fd64eb21e047a839171b60405160405180910390a45050565b5f54610100900460ff1661149c5760405162461bcd60e51b815260040161087e90612517565b6001606555565b5f54610100900460ff16610f595760405162461bcd60e51b815260040161087e90612517565b5f54610100900460ff166114ef5760405162461bcd60e51b815260040161087e90612517565b610f596114fa611343565b611536565b5f54610100900460ff166115255760405162461bcd60e51b815260040161087e90612517565b610f595f611531611343565b611351565b609780546001600160a01b038381166001600160a01b0319831681179093556040519116919082907f8be0079c531659141344cd1fd0a4f28419497f9722a3daafe3b4186f6b6457e0905f90a35050565b6040838101519051636ccbae5f60e01b815260048101919091525f9081903090636ccbae5f90602401602060405180830381865afa1580156115cb573d5f803e3d5ffd5b505050506040513d601f19601f820116820180604052508101906115ef919061231a565b90505f61165786606001518051906020012086886020015160405160200161163c9392919092835260609190911b6bffffffffffffffffffffffff19166020830152603482015260540190565b604051602081830303815290604052805190602001206119ca565b905081866020015114801561167d5750855161167d906001600160a01b03168286611a04565b9695505050505050565b5f8082516041036116bb576020830151604084015160608501515f1a6116af87828585611b3f565b945094505050506116c2565b505f905060025b9250929050565b5f8160048111156116dc576116dc612562565b036116e45750565b60018160048111156116f8576116f8612562565b036117455760405162461bcd60e51b815260206004820152601860248201527f45434453413a20696e76616c6964207369676e61747572650000000000000000604482015260640161087e565b600281600481111561175957611759612562565b036117a65760405162461bcd60e51b815260206004820152601f60248201527f45434453413a20696e76616c6964207369676e6174757265206c656e67746800604482015260640161087e565b60038160048111156117ba576117ba612562565b036118125760405162461bcd60e51b815260206004820152602260248201527f45434453413a20696e76616c6964207369676e6174757265202773272076616c604482015261756560f01b606482015260840161087e565b600481600481111561182657611826612562565b036105f25760405162461bcd60e51b815260206004820152602260248201527f45434453413a20696e76616c6964207369676e6174757265202776272076616c604482015261756560f01b606482015260840161087e565b604080517f1ee5d87a048b728f67073f282321992c260e5be4fa651d08665c5b4ee7a8381560208201529081018290525f906060016040516020818303038152906040528051906020012090506118d28190565b546118de906001612576565b905550565b60608285856040516020016118fa93929190612589565b6040516020818303038152906040529050949350505050565b606083156119225750816106b7565b8251156119325782518084602001fd5b8160405162461bcd60e51b815260040161087e9190611fe7565b5f303303611961575060331936013560601c90565b503390565b6119708282610f76565b61089157611988816001600160a01b03166014611c24565b611993836020611c24565b6040516020016119a49291906125c7565b60408051601f198184030181529082905262461bcd60e51b825261087e91600401611fe7565b6040517f19457468657265756d205369676e6564204d6573736167653a0a3332000000006020820152603c81018290525f90605c016106ee565b5f805f611a118585611687565b90925090505f816004811115611a2957611a29612562565b148015611a475750856001600160a01b0316826001600160a01b0316145b15611a57576001925050506106b7565b5f80876001600160a01b0316631626ba7e60e01b8888604051602401611a7e92919061263b565b60408051601f198184030181529181526020820180516001600160e01b03166001600160e01b0319909416939093179092529051611abc91906124b5565b5f60405180830381855afa9150503d805f8114611af4576040519150601f19603f3d011682016040523d82523d5f602084013e611af9565b606091505b5091509150818015611b0c575080516020145b8015611b3357508051630b135d3f60e11b90611b31908301602090810190840161231a565b145b98975050505050505050565b5f807f7fffffffffffffffffffffffffffffff5d576e7357a4501ddfe92f46681b20a0831115611b7457505f90506003611c1b565b8460ff16601b14158015611b8c57508460ff16601c14155b15611b9c57505f90506004611c1b565b604080515f8082526020820180845289905260ff881692820192909252606081018690526080810185905260019060a0016020604051602081039080840390855afa158015611bed573d5f803e3d5ffd5b5050604051601f1901519150506001600160a01b038116611c15575f60019250925050611c1b565b91505f90505b94509492505050565b60605f611c32836002612653565b611c3d906002612576565b6001600160401b03811115611c5457611c54611df7565b6040519080825280601f01601f191660200182016040528015611c7e576020820181803683370190505b509050600360fc1b815f81518110611c9857611c9861266a565b60200101906001600160f81b03191690815f1a905350600f60fb1b81600181518110611cc657611cc661266a565b60200101906001600160f81b03191690815f1a9053505f611ce8846002612653565b611cf3906001612576565b90505b6001811115611d6a576f181899199a1a9b1b9c1cb0b131b232b360811b85600f1660108110611d2757611d2761266a565b1a60f81b828281518110611d3d57611d3d61266a565b60200101906001600160f81b03191690815f1a90535060049490941c93611d638161267e565b9050611cf6565b5083156106b75760405162461bcd60e51b815260206004820181905260248201527f537472696e67733a20686578206c656e67746820696e73756666696369656e74604482015260640161087e565b5f60208284031215611dc9575f80fd5b81356001600160e01b0319811681146106b7575f80fd5b5f60208284031215611df0575f80fd5b5035919050565b634e487b7160e01b5f52604160045260245ffd5b5f82601f830112611e1a575f80fd5b81356001600160401b0380821115611e3457611e34611df7565b604051601f8301601f19908116603f01168101908282118183101715611e5c57611e5c611df7565b81604052838152866020858801011115611e74575f80fd5b836020870160208301375f602085830101528094505050505092915050565b5f8060408385031215611ea4575f80fd5b8235915060208301356001600160401b03811115611ec0575f80fd5b611ecc85828601611e0b565b9150509250929050565b6001600160a01b03811681146105f2575f80fd5b5f60208284031215611efa575f80fd5b81356106b781611ed6565b5f805f60408486031215611f17575f80fd5b83356001600160401b0380821115611f2d575f80fd5b9085019060808288031215611f40575f80fd5b90935060208501359080821115611f55575f80fd5b818601915086601f830112611f68575f80fd5b813581811115611f76575f80fd5b876020828501011115611f87575f80fd5b6020830194508093505050509250925092565b5f5b83811015611fb4578181015183820152602001611f9c565b50505f910152565b5f8151808452611fd3816020860160208601611f9a565b601f01601f19169290920160200192915050565b602081525f6106b76020830184611fbc565b5f806040838503121561200a575f80fd5b82359150602083013561201c81611ed6565b809150509250929050565b5f8060408385031215612038575f80fd5b823561204381611ed6565b9150602083013561201c81611ed6565b5f8083601f840112612063575f80fd5b5081356001600160401b03811115612079575f80fd5b6020830191508360208260051b85010111156116c2575f80fd5b6001600160401b03811681146105f2575f80fd5b5f805f805f805f805f60c08a8c0312156120bf575f80fd5b89356001600160401b03808211156120d5575f80fd5b6120e18d838e01612053565b909b50995060208c01359150808211156120f9575f80fd5b6121058d838e01612053565b909950975060408c013591508082111561211d575f80fd5b5061212a8c828d01612053565b90965094505060608a013561213e81612093565b925060808a0135915060a08a013561215581611ed6565b809150509295985092959850929598565b80151581146105f2575f80fd5b5f8060408385031215612184575f80fd5b823561218f81611ed6565b9150602083013561201c81612166565b5f805f805f606086880312156121b3575f80fd5b85356001600160401b03808211156121c9575f80fd5b6121d589838a01612053565b909750955060208801359150808211156121ed575f80fd5b506121fa88828901612053565b96999598509660400135949350505050565b5f808335601e19843603018112612221575f80fd5b8301803591506001600160401b0382111561223a575f80fd5b6020019150368190038213156116c2575f80fd5b81835281816020850137505f828201602090810191909152601f909101601f19169091010190565b5f838385526020808601955060208560051b830101845f5b878110156122fa57848303601f19018952813536889003601e190181126122b3575f80fd5b870184810190356001600160401b038111156122cd575f80fd5b8036038213156122db575f80fd5b6122e685828461224e565b9a86019a945050509083019060010161228e565b5090979650505050505050565b602081525f611058602083018486612276565b5f6020828403121561232a575f80fd5b5051919050565b5f60208284031215612341575f80fd5b81516106b781612166565b5f6020828403121561235c575f80fd5b81516106b781611ed6565b5f60208284031215612377575f80fd5b81516106b781612093565b606081525f612395606083018789612276565b82810360208401526123a8818688612276565b9150508260408301529695505050505050565b6001600160a01b038a16815260c0602082018190525f906123df9083018a8c612276565b82810360408401526123f281898b612276565b90508281036060840152612407818789612276565b6001600160401b03959095166080840152505090151560a090910152979650505050505050565b5f6080823603121561243e575f80fd5b604051608081016001600160401b03828210818311171561246157612461611df7565b816040528435915061247282611ed6565b8183526020850135602084015260408501356040840152606085013591508082111561249c575f80fd5b506124a936828601611e0b565b60608301525092915050565b5f82516124c6818460208701611f9a565b9190910192915050565b634e487b7160e01b5f52601160045260245ffd5b5f826124fe57634e487b7160e01b5f52601260045260245ffd5b500490565b634e487b7160e01b5f52600160045260245ffd5b6020808252602b908201527f496e697469616c697a61626c653a20636f6e7472616374206973206e6f74206960408201526a6e697469616c697a696e6760a81b606082015260800190565b634e487b7160e01b5f52602160045260245ffd5b80820180821115610584576105846124d0565b5f845161259a818460208901611f9a565b60609490941b6bffffffffffffffffffffffff191691909301908152601481019190915260340192915050565b7f416363657373436f6e74726f6c3a206163636f756e742000000000000000000081525f83516125fe816017850160208801611f9a565b7001034b99036b4b9b9b4b733903937b6329607d1b601791840191820152835161262f816028840160208801611f9a565b01602801949350505050565b828152604060208201525f6110586040830184611fbc565b8082028115828204841417610584576105846124d0565b634e487b7160e01b5f52603260045260245ffd5b5f8161268c5761268c6124d0565b505f19019056fea164736f6c6343000818000a",
  "linkReferences": {},
  "deployedLinkReferences": {}
}