{
  "_format": "hh-sol-artifact-1",
  "contractName": "RegistrarCustody",
  "sourceName": "contracts/RegistrarCustody.sol",
  "abi": [
    {
      "inputs": [],
      "stateMutability": "nonpayable",
      "type": "constructor"
    },
    {
      "inputs": [],
      "name": "InvalidExpiry",
      "type": "error"
    },
    {
      "inputs": [],
      "name": "InvalidSignature",
      "type": "error"
    },
    {
      "inputs": [],
      "name": "Unauthorized",
      "type": "error"
    },
    {
      "anonymous": false,
      "inputs": [
        {
          "indexed": false,
          "internalType": "address",
          "name": "previousAdmin",
          "type": "address"
        },
        {
          "indexed": false,
          "internalType": "address",
          "name": "newAdmin",
          "type": "address"
        }
      ],
      "name": "AdminChanged",
      "type": "event"
    },
    {
      "anonymous": false,
      "inputs": [
        {
          "indexed": true,
          "internalType": "uint256",
          "name": "tokenId",
          "type": "uint256"
        },
        {
          "indexed": false,
          "internalType": "uint256",
          "name": "registrarId",
          "type": "uint256"
        },
        {
          "indexed": false,
          "internalType": "address",
          "name": "userDelegation",
          "type": "address"
        }
      ],
      "name": "DomainTokenized",
      "type": "event"
    },
    {
      "anonymous": false,
      "inputs": [
        {
          "indexed": false,
          "internalType": "uint8",
          "name": "version",
          "type": "uint8"
        }
      ],
      "name": "Initialized",
      "type": "event"
    },
    {
      "anonymous": false,
      "inputs": [
        {
          "indexed": true,
          "internalType": "address",
          "name": "previousOwner",
          "type": "address"
        },
        {
          "indexed": true,
          "internalType": "address",
          "name": "newOwner",
          "type": "address"
        }
      ],
      "name": "OwnershipTransferred",
      "type": "event"
    },
    {
      "anonymous": false,
      "inputs": [
        {
          "indexed": true,
          "internalType": "bytes32",
          "name": "role",
          "type": "bytes32"
        },
        {
          "indexed": true,
          "internalType": "bytes32",
          "name": "previousAdminRole",
          "type": "bytes32"
        },
        {
          "indexed": true,
          "internalType": "bytes32",
          "name": "newAdminRole",
          "type": "bytes32"
        }
      ],
      "name": "RoleAdminChanged",
      "type": "event"
    },
    {
      "anonymous": false,
      "inputs": [
        {
          "indexed": true,
          "internalType": "bytes32",
          "name": "role",
          "type": "bytes32"
        },
        {
          "indexed": true,
          "internalType": "address",
          "name": "account",
          "type": "address"
        },
        {
          "indexed": true,
          "internalType": "address",
          "name": "sender",
          "type": "address"
        }
      ],
      "name": "RoleGranted",
      "type": "event"
    },
    {
      "anonymous": false,
      "inputs": [
        {
          "indexed": true,
          "internalType": "bytes32",
          "name": "role",
          "type": "bytes32"
        },
        {
          "indexed": true,
          "internalType": "address",
          "name": "account",
          "type": "address"
        },
        {
          "indexed": true,
          "internalType": "address",
          "name": "sender",
          "type": "address"
        }
      ],
      "name": "RoleRevoked",
      "type": "event"
    },
    {
      "anonymous": false,
      "inputs": [
        {
          "indexed": true,
          "internalType": "address",
          "name": "implementation",
          "type": "address"
        }
      ],
      "name": "Upgraded",
      "type": "event"
    },
    {
      "inputs": [],
      "name": "DEFAULT_ADMIN_ROLE",
      "outputs": [
        {
          "internalType": "bytes32",
          "name": "",
          "type": "bytes32"
        }
      ],
      "stateMutability": "view",
      "type": "function"
    },
    {
      "inputs": [],
      "name": "NAME",
      "outputs": [
        {
          "internalType": "string",
          "name": "",
          "type": "string"
        }
      ],
      "stateMutability": "view",
      "type": "function"
    },
    {
      "inputs": [],
      "name": "VERSION",
      "outputs": [
        {
          "internalType": "string",
          "name": "",
          "type": "string"
        }
      ],
      "stateMutability": "view",
      "type": "function"
    },
    {
      "inputs": [
        {
          "internalType": "address",
          "name": "account",
          "type": "address"
        }
      ],
      "name": "addAdmin",
      "outputs": [],
      "stateMutability": "nonpayable",
      "type": "function"
    },
    {
      "inputs": [
        {
          "internalType": "uint256",
          "name": "registrarId",
          "type": "uint256"
        },
        {
          "internalType": "address",
          "name": "account",
          "type": "address"
        }
      ],
      "name": "addRegistrar",
      "outputs": [],
      "stateMutability": "nonpayable",
      "type": "function"
    },
    {
      "inputs": [
        {
          "components": [
            {
              "internalType": "address",
              "name": "from",
              "type": "address"
            },
            {
              "internalType": "uint256",
              "name": "nonce",
              "type": "uint256"
            },
            {
              "internalType": "uint256",
              "name": "tokenId",
              "type": "uint256"
            },
            {
              "internalType": "bytes",
              "name": "data",
              "type": "bytes"
            }
          ],
          "internalType": "struct IForwarder.ForwardRequest",
          "name": "req",
          "type": "tuple"
        },
        {
          "internalType": "bytes",
          "name": "signature",
          "type": "bytes"
        }
      ],
      "name": "execute",
      "outputs": [
        {
          "internalType": "bytes",
          "name": "",
          "type": "bytes"
        }
      ],
      "stateMutability": "nonpayable",
      "type": "function"
    },
    {
      "inputs": [
        {
          "internalType": "bytes32",
          "name": "role",
          "type": "bytes32"
        }
      ],
      "name": "getRoleAdmin",
      "outputs": [
        {
          "internalType": "bytes32",
          "name": "",
          "type": "bytes32"
        }
      ],
      "stateMutability": "view",
      "type": "function"
    },
    {
      "inputs": [
        {
          "internalType": "bytes32",
          "name": "role",
          "type": "bytes32"
        },
        {
          "internalType": "address",
          "name": "account",
          "type": "address"
        }
      ],
      "name": "grantRole",
      "outputs": [],
      "stateMutability": "nonpayable",
      "type": "function"
    },
    {
      "inputs": [
        {
          "internalType": "bytes32",
          "name": "role",
          "type": "bytes32"
        },
        {
          "internalType": "address",
          "name": "account",
          "type": "address"
        }
      ],
      "name": "hasRole",
      "outputs": [
        {
          "internalType": "bool",
          "name": "",
          "type": "bool"
        }
      ],
      "stateMutability": "view",
      "type": "function"
    },
    {
      "inputs": [
        {
          "internalType": "address",
          "name": "_unsRegistry",
          "type": "address"
        },
        {
          "internalType": "address",
          "name": "_mintingManager",
          "type": "address"
        }
      ],
      "name": "initialize",
      "outputs": [],
      "stateMutability": "nonpayable",
      "type": "function"
    },
    {
      "inputs": [
        {
          "internalType": "address",
          "name": "account",
          "type": "address"
        }
      ],
      "name": "isAdmin",
      "outputs": [
        {
          "internalType": "bool",
          "name": "",
          "type": "bool"
        }
      ],
      "stateMutability": "view",
      "type": "function"
    },
    {
      "inputs": [
        {
          "internalType": "uint256",
          "name": "registrarId",
          "type": "uint256"
        },
        {
          "internalType": "address",
          "name": "account",
          "type": "address"
        }
      ],
      "name": "isRegistrar",
      "outputs": [
        {
          "internalType": "bool",
          "name": "",
          "type": "bool"
        }
      ],
      "stateMutability": "view",
      "type": "function"
    },
    {
      "inputs": [
        {
          "internalType": "address",
          "name": "forwarder",
          "type": "address"
        }
      ],
      "name": "isTrustedForwarder",
      "outputs": [
        {
          "internalType": "bool",
          "name": "",
          "type": "bool"
        }
      ],
      "stateMutability": "view",
      "type": "function"
    },
    {
      "inputs": [
        {
          "internalType": "bytes32",
          "name": "hash",
          "type": "bytes32"
        },
        {
          "internalType": "bytes",
          "name": "signature",
          "type": "bytes"
        }
      ],
      "name": "isValidSignature",
      "outputs": [
        {
          "internalType": "bytes4",
          "name": "",
          "type": "bytes4"
        }
      ],
      "stateMutability": "view",
      "type": "function"
    },
    {
      "inputs": [],
      "name": "mintingManager",
      "outputs": [
        {
          "internalType": "contract IMintingManager",
          "name": "",
          "type": "address"
        }
      ],
      "stateMutability": "view",
      "type": "function"
    },
    {
      "inputs": [
        {
          "internalType": "uint256",
          "name": "tokenId",
          "type": "uint256"
        }
      ],
      "name": "nonceOf",
      "outputs": [
        {
          "internalType": "uint256",
          "name": "",
          "type": "uint256"
        }
      ],
      "stateMutability": "view",
      "type": "function"
    },
    {
      "inputs": [],
      "name": "owner",
      "outputs": [
        {
          "internalType": "address",
          "name": "",
          "type": "address"
        }
      ],
      "stateMutability": "view",
      "type": "function"
    },
    {
      "inputs": [
        {
          "internalType": "uint256",
          "name": "",
          "type": "uint256"
        }
      ],
      "name": "registrarDelegations",
      "outputs": [
        {
          "internalType": "uint256",
          "name": "",
          "type": "uint256"
        }
      ],
      "stateMutability": "view",
      "type": "function"
    },
    {
      "inputs": [
        {
          "internalType": "uint256",
          "name": "registrarId",
          "type": "uint256"
        }
      ],
      "name": "registrarRole",
      "outputs": [
        {
          "internalType": "bytes32",
          "name": "",
          "type": "bytes32"
        }
      ],
      "stateMutability": "pure",
      "type": "function"
    },
    {
      "inputs": [
        {
          "internalType": "address",
          "name": "account",
          "type": "address"
        }
      ],
      "name": "removeAdmin",
      "outputs": [],
      "stateMutability": "nonpayable",
      "type": "function"
    },
    {
      "inputs": [
        {
          "internalType": "uint256",
          "name": "registrarId",
          "type": "uint256"
        },
        {
          "internalType": "address",
          "name": "account",
          "type": "address"
        }
      ],
      "name": "removeRegistrar",
      "outputs": [],
      "stateMutability": "nonpayable",
      "type": "function"
    },
    {
      "inputs": [],
      "name": "renounceAdmin",
      "outputs": [],
      "stateMutability": "nonpayable",
      "type": "function"
    },
    {
      "inputs": [],
      "name": "renounceOwnership",
      "outputs": [],
      "stateMutability": "nonpayable",
      "type": "function"
    },
    {
      "inputs": [
        {
          "internalType": "bytes32",
          "name": "role",
          "type": "bytes32"
        },
        {
          "internalType": "address",
          "name": "account",
          "type": "address"
        }
      ],
      "name": "renounceRole",
      "outputs": [],
      "stateMutability": "nonpayable",
      "type": "function"
    },
    {
      "inputs": [
        {
          "internalType": "uint256",
          "name": "tokenId",
          "type": "uint256"
        }
      ],
      "name": "revoke",
      "outputs": [],
      "stateMutability": "nonpayable",
      "type": "function"
    },
    {
      "inputs": [
        {
          "internalType": "bytes32",
          "name": "role",
          "type": "bytes32"
        },
        {
          "internalType": "address",
          "name": "account",
          "type": "address"
        }
      ],
      "name": "revokeRole",
      "outputs": [],
      "stateMutability": "nonpayable",
      "type": "function"
    },
    {
      "inputs": [
        {
          "internalType": "address",
          "name": "newAdmin",
          "type": "address"
        }
      ],
      "name": "rotateAdmin",
      "outputs": [],
      "stateMutability": "nonpayable",
      "type": "function"
    },
    {
      "inputs": [
        {
          "internalType": "address",
          "name": "operator",
          "type": "address"
        },
        {
          "internalType": "bool",
          "name": "approved",
          "type": "bool"
        }
      ],
      "name": "setApprovalForAll",
      "outputs": [],
      "stateMutability": "nonpayable",
      "type": "function"
    },
    {
      "inputs": [
        {
          "internalType": "string[]",
          "name": "keys",
          "type": "string[]"
        },
        {
          "internalType": "string[]",
          "name": "values",
          "type": "string[]"
        },
        {
          "internalType": "uint256",
          "name": "tokenId",
          "type": "uint256"
        }
      ],
      "name": "setRecords",
      "outputs": [],
      "stateMutability": "nonpayable",
      "type": "function"
    },
    {
      "inputs": [
        {
          "internalType": "bytes4",
          "name": "interfaceId",
          "type": "bytes4"
        }
      ],
      "name": "supportsInterface",
      "outputs": [
        {
          "internalType": "bool",
          "name": "",
          "type": "bool"
        }
      ],
      "stateMutability": "view",
      "type": "function"
    },
    {
      "inputs": [
        {
          "internalType": "string[]",
          "name": "labels",
          "type": "string[]"
        },
        {
          "internalType": "string[]",
          "name": "keys",
          "type": "string[]"
        },
        {
          "internalType": "string[]",
          "name": "values",
          "type": "string[]"
        },
        {
          "internalType": "uint64",
          "name": "expiry",
          "type": "uint64"
        },
        {
          "internalType": "uint256",
          "name": "registrarId",
          "type": "uint256"
        },
        {
          "internalType": "address",
          "name": "userDelegation",
          "type": "address"
        }
      ],
      "name": "tokenizeDomain",
      "outputs": [],
      "stateMutability": "nonpayable",
      "type": "function"
    },
    {
      "inputs": [
        {
          "internalType": "address",
          "name": "newOwner",
          "type": "address"
        }
      ],
      "name": "transferOwnership",
      "outputs": [],
      "stateMutability": "nonpayable",
      "type": "function"
    },
    {
      "inputs": [],
      "name": "unsRegistry",
      "outputs": [
        {
          "internalType": "contract IUNSRegistry",
          "name": "",
          "type": "address"
        }
      ],
      "stateMutability": "view",
      "type": "function"
    },
    {
      "inputs": [
        {
          "internalType": "uint256",
          "name": "",
          "type": "uint256"
        }
      ],
      "name": "userDelegations",
      "outputs": [
        {
          "internalType": "address",
          "name": "",
          "type": "address"
        }
      ],
      "stateMutability": "view",
      "type": "function"
    },
    {
      "inputs": [
        {
          "components": [
            {
              "internalType": "address",
              "name": "from",
              "type": "address"
            },
            {
              "internalType": "uint256",
              "name": "nonce",
              "type": "uint256"
            },
            {
              "internalType": "uint256",
              "name": "tokenId",
              "type": "uint256"
            },
            {
              "internalType": "bytes",
              "name": "data",
              "type": "bytes"
            }
          ],
          "internalType": "struct IForwarder.ForwardRequest",
          "name": "req",
          "type": "tuple"
        },
        {
          "internalType": "bytes",
          "name": "signature",
          "type": "bytes"
        }
      ],
      "name": "verify",
      "outputs": [
        {
          "internalType": "bool",
          "name": "",
          "type": "bool"
        }
      ],
      "stateMutability": "view",
      "type": "function"
    }
  ],
  "bytecode": "0x608060405234801562000010575f80fd5b506200001b62000021565b620000e0565b5f54610100900460ff16156200008d5760405162461bcd60e51b815260206004820152602760248201527f496e697469616c697a61626c653a20636f6e747261637420697320696e697469604482015266616c697a696e6760c81b606482015260840160405180910390fd5b5f5460ff9081161015620000de575f805460ff191660ff9081179091556040519081527f7f26b83ff96e1f2b6a682f133852f6798a09c465da95921460cefb38474024989060200160405180910390a15b565b6126c880620000ee5f395ff3fe608060405234801561000f575f80fd5b5060043610610208575f3560e01c8063588844321161011f578063a217fddf116100a9578063bb09d9e611610079578063bb09d9e6146104ce578063d547741f146104f7578063e71661231461050a578063f2fde38b1461051d578063ffa1ad7414610530575f80fd5b8063a217fddf1461046c578063a22cb46514610473578063a3f4df7e14610486578063a4247400146104bb575f80fd5b8063715018a6116100ef578063715018a6146104255780638bad0c0a1461042d5780638c9d518f146104355780638da5cb5b1461044857806391d1485414610459575f80fd5b806358884432146103d85780636aac4b00146103ec5780636ccbae5f146103ff5780637048027514610412575f80fd5b806324d7806c116101a05780633f41b614116101705780633f41b614146103575780633f7baeb914610383578063485cc9551461039657806348ef58cd146103a9578063572b6c05146103bc575f80fd5b806324d7806c1461030b5780632ccec6a01461031e5780632f2ff15d1461033157806336568abe14610344575f80fd5b80631bf7e13e116101db5780631bf7e13e146102a35780631eb76f65146102c357806320c5429b146102d6578063248a9ca3146102e9575f80fd5b806301ffc9a71461020c5780630511711c146102345780631626ba7e146102625780631785f53c1461028e575b5f80fd5b61021f61021a366004611de1565b610554565b60405190151581526020015b60405180910390f35b610254610242366004611e08565b6101616020525f908152604090205481565b60405190815260200161022b565b610275610270366004611ebb565b61058a565b6040516001600160e01b0319909116815260200161022b565b6102a161029c366004611f12565b6105e0565b005b6102b66102b1366004611f2d565b6105f5565b60405161022b919061200f565b6102546102d1366004611e08565b6106be565b6102a16102e4366004611e08565b61070b565b6102546102f7366004611e08565b5f90815260fb602052604090206001015490565b61021f610319366004611f12565b6107b0565b6102a161032c366004611f12565b6107bb565b6102a161033f366004612021565b6107d9565b6102a1610352366004612021565b610802565b61015f5461036b906001600160a01b031681565b6040516001600160a01b03909116815260200161022b565b6102a1610391366004612021565b610895565b6102a16103a436600461204f565b6108af565b6102a16103b73660046120cf565b610a0d565b61021f6103ca366004611f12565b6001600160a01b0316301490565b6101605461036b906001600160a01b031681565b6102a16103fa366004612021565b610eeb565b61025461040d366004611e08565b610f05565b6102a1610420366004611f12565b610f5e565b6102a1610f70565b6102a1610f83565b61021f610443366004612021565b610f8f565b6097546001600160a01b031661036b565b61021f610467366004612021565b610f9e565b6102545f81565b6102a161048136600461219b565b610fc8565b6102b660405180604001604052806016815260200175554e533a2052656769737472617220437573746f647960501b81525081565b61021f6104c9366004611f2d565b611037565b61036b6104dc366004611e08565b6101626020525f90815260409020546001600160a01b031681565b6102a1610505366004612021565b611088565b6102a16105183660046121c7565b6110ac565b6102a161052b366004611f12565b61117e565b6102b660405180604001604052806005815260200164302e322e3160d81b81525081565b5f6001600160e01b03198216637965db0b60e01b148061058457506301ffc9a760e01b6001600160e01b03198316145b92915050565b5f8061059684846111f4565b90506105a1816107b0565b156105cf577f1626ba7e356f5979dd355a3d2bfb43e80420a480c3b854edce286a82d7496869915050610584565b506001600160e01b03199392505050565b6105e8611216565b6105f25f82611088565b50565b60605f5a9050610606858585611037565b61062357604051638baa579f60e01b815260040160405180910390fd5b6106b36106336020870187611f12565b3060408801358461064760608b018b612234565b8080601f0160208091040260200160405190810160405280939291908181526020018383808284375f9201919091525050604080516020601f8e018190048102820181019092528c815292508c91508b90819084018382808284375f9201919091525061128f92505050565b9150505b9392505050565b604080516020810182905260096060820152682922a3a4a9aa2920a960b91b60808201529081018290525f9060a0015b604051602081830303815290604052805190602001209050919050565b5f81815261016160205260409020546107269061044361136b565b610742576040516282b42960e81b815260040160405180910390fd5b61015f54610160546040516323b872dd60e01b81523060048201526001600160a01b039182166024820152604481018490529116906323b872dd906064015f604051808303815f87803b158015610797575f80fd5b505af11580156107a9573d5f803e3d5ffd5b5050505050565b5f6105848183610f9e565b6107c3611216565b6107cd5f82611379565b6105f25f61035261136b565b5f82815260fb60205260409020600101546107f381611383565b6107fd8383611394565b505050565b61080a61136b565b6001600160a01b0316816001600160a01b0316146108875760405162461bcd60e51b815260206004820152602f60248201527f416363657373436f6e74726f6c3a2063616e206f6e6c792072656e6f756e636560448201526e103937b632b9903337b91039b2b63360891b60648201526084015b60405180910390fd5b610891828261141a565b5050565b61089d611216565b6108916108a9836106be565b82611379565b5f54610100900460ff16158080156108cd57505f54600160ff909116105b806108e65750303b1580156108e657505f5460ff166001145b6109495760405162461bcd60e51b815260206004820152602e60248201527f496e697469616c697a61626c653a20636f6e747261637420697320616c72656160448201526d191e481a5b9a5d1a585b1a5e995960921b606482015260840161087e565b5f805460ff19166001179055801561096a575f805461ff0019166101001790555b61015f80546001600160a01b038086166001600160a01b0319928316179092556101608054928516929091169190911790556109a461149e565b6109ac6114cb565b6109b46114cb565b6109bc6114f1565b6109c4611527565b80156107fd575f805461ff0019169055604051600181527f7f26b83ff96e1f2b6a682f133852f6798a09c465da95921460cefb38474024989060200160405180910390a1505050565b610a195f61046761136b565b610a35576040516282b42960e81b815260040160405180910390fd5b600260655403610a875760405162461bcd60e51b815260206004820152601f60248201527f5265656e7472616e637947756172643a207265656e7472616e742063616c6c00604482015260640161087e565b600260655561015f5460405163276fabb160e01b81525f916001600160a01b03169063276fabb190610abf908d908d9060040161232f565b602060405180830381865afa158015610ada573d5f803e3d5ffd5b505050506040513d601f19601f82011682018060405250810190610afe9190612342565b61015f54604051634f558e7960e01b8152600481018390529192505f916001600160a01b0390911690634f558e7990602401602060405180830381865afa158015610b4b573d5f803e3d5ffd5b505050506040513d601f19601f82011682018060405250810190610b6f9190612359565b610b79575f610be5565b61015f546040516331a9108f60e11b8152600481018490526001600160a01b0390911690636352211e90602401602060405180830381865afa158015610bc1573d5f803e3d5ffd5b505050506040513d601f19601f82011682018060405250810190610be59190612374565b9050306001600160a01b03821603610d745761015f5460405163baef73e960e01b8152600481018490525f916001600160a01b03169063baef73e990602401602060405180830381865afa158015610c3f573d5f803e3d5ffd5b505050506040513d601f19601f82011682018060405250810190610c63919061238f565b6001600160401b03169050805f03610c8d5760405162d36c8560e81b815260040160405180910390fd5b856001600160401b0316811015610d085761016054604051630f6dca4760e11b81526001600160401b0388166004820152602481018590526001600160a01b0390911690631edb948e906044015f604051808303815f87803b158015610cf1575f80fd5b505af1158015610d03573d5f803e3d5ffd5b505050505b61015f54604051636749599f60e11b81526001600160a01b039091169063ce92b33e90610d41908d908d908d908d908a906004016123aa565b5f604051808303815f87803b158015610d58575f80fd5b505af1158015610d6a573d5f803e3d5ffd5b5050505050610e6a565b6001600160a01b03811615801590610d9b5750610160546001600160a01b03828116911614155b15610dfb57610160546040516320c5429b60e01b8152600481018490526001600160a01b03909116906320c5429b906024015f604051808303815f87803b158015610de4575f80fd5b505af1158015610df6573d5f803e3d5ffd5b505050505b61016054604051632f1166c360e11b81526001600160a01b0390911690635e22cd8690610e3c9030908f908f908f908f908f908f908f905f906004016123e3565b5f604051808303815f87803b158015610e53575f80fd5b505af1158015610e65573d5f803e3d5ffd5b505050505b5f8281526101616020908152604080832087905561016282529182902080546001600160a01b0319166001600160a01b03871690811790915582518781529182015283917ff62b185f823f021c1bb017de468883a6c58d0070339da7646c1742def39080b8910160405180910390a250506001606555505050505050505050565b610ef3611216565b610891610eff836106be565b82611088565b604080517f1ee5d87a048b728f67073f282321992c260e5be4fa651d08665c5b4ee7a8381560208201529081018290525f90610f57906060016040516020818303038152906040528051906020012090565b5492915050565b610f66611216565b6105f25f82611379565b610f78611216565b610f815f61155e565b565b610f815f61035261136b565b5f6106b7610f9c846106be565b835b5f91825260fb602090815260408084206001600160a01b0393909316845291905290205460ff1690565b610fd0611216565b61015f5460405163a22cb46560e01b81526001600160a01b03848116600483015283151560248301529091169063a22cb465906044015f604051808303815f87803b15801561101d575f80fd5b505af115801561102f573d5f803e3d5ffd5b505050505050565b5f61108061104485612456565b3085858080601f0160208091040260200160405190810160405280939291908181526020018383808284375f920191909152506115af92505050565b949350505050565b5f82815260fb60205260409020600101546110a281611383565b6107fd838361141a565b5f81815261016160205260409020546110c79061044361136b565b15806110f457506110d661136b565b5f82815261016260205260409020546001600160a01b039081169116145b15611111576040516282b42960e81b815260040160405180910390fd5b61015f54604051636749599f60e11b81526001600160a01b039091169063ce92b33e9061114a90889088908890889088906004016123aa565b5f604051808303815f87803b158015611161575f80fd5b505af1158015611173573d5f803e3d5ffd5b505050505050505050565b611186611216565b6001600160a01b0381166111eb5760405162461bcd60e51b815260206004820152602660248201527f4f776e61626c653a206e6577206f776e657220697320746865207a65726f206160448201526564647265737360d01b606482015260840161087e565b6105f28161155e565b5f805f61120185856116af565b9150915061120e816116f1565b509392505050565b61121e61136b565b6001600160a01b03166112396097546001600160a01b031690565b6001600160a01b031614610f815760405162461bcd60e51b815260206004820181905260248201527f4f776e61626c653a2063616c6c6572206973206e6f7420746865206f776e6572604482015260640161087e565b606061129a856118a6565b5f80876001600160a01b0316866112b38b8a898961190b565b6040516112c091906124dd565b5f604051808303815f8787f1925050503d805f81146112fa576040519150601f19603f3d011682016040523d82523d5f602084013e6112ff565b606091505b509092509050611310603f8761250c565b5a1161131e5761131e61252b565b61135e82826040518060400160405280601a81526020017f42617365466f727761726465723a2043414c4c5f4641494c454400000000000081525061193b565b9998505050505050505050565b5f611374611974565b905090565b6108918282611394565b6105f28161138f61136b565b61198e565b61139e8282610f9e565b610891575f82815260fb602090815260408083206001600160a01b03851684529091529020805460ff191660011790556113d661136b565b6001600160a01b0316816001600160a01b0316837f2f8788117e7eff1d82e926ec794901d17c78024a50270940304540a733656f0d60405160405180910390a45050565b6114248282610f9e565b15610891575f82815260fb602090815260408083206001600160a01b03851684529091529020805460ff1916905561145a61136b565b6001600160a01b0316816001600160a01b0316837ff6391f5c32d9c69d2a47ea670b442974b53935d1edc7fd64eb21e047a839171b60405160405180910390a45050565b5f54610100900460ff166114c45760405162461bcd60e51b815260040161087e9061253f565b6001606555565b5f54610100900460ff16610f815760405162461bcd60e51b815260040161087e9061253f565b5f54610100900460ff166115175760405162461bcd60e51b815260040161087e9061253f565b610f8161152261136b565b61155e565b5f54610100900460ff1661154d5760405162461bcd60e51b815260040161087e9061253f565b610f815f61155961136b565b611379565b609780546001600160a01b038381166001600160a01b0319831681179093556040519116919082907f8be0079c531659141344cd1fd0a4f28419497f9722a3daafe3b4186f6b6457e0905f90a35050565b6040838101519051636ccbae5f60e01b815260048101919091525f9081903090636ccbae5f90602401602060405180830381865afa1580156115f3573d5f803e3d5ffd5b505050506040513d601f19601f820116820180604052508101906116179190612342565b90505f61167f8660600151805190602001208688602001516040516020016116649392919092835260609190911b6bffffffffffffffffffffffff19166020830152603482015260540190565b604051602081830303815290604052805190602001206119f2565b90508186602001511480156116a5575085516116a5906001600160a01b03168286611a2c565b9695505050505050565b5f8082516041036116e3576020830151604084015160608501515f1a6116d787828585611b67565b945094505050506116ea565b505f905060025b9250929050565b5f8160048111156117045761170461258a565b0361170c5750565b60018160048111156117205761172061258a565b0361176d5760405162461bcd60e51b815260206004820152601860248201527f45434453413a20696e76616c6964207369676e61747572650000000000000000604482015260640161087e565b60028160048111156117815761178161258a565b036117ce5760405162461bcd60e51b815260206004820152601f60248201527f45434453413a20696e76616c6964207369676e6174757265206c656e67746800604482015260640161087e565b60038160048111156117e2576117e261258a565b0361183a5760405162461bcd60e51b815260206004820152602260248201527f45434453413a20696e76616c6964207369676e6174757265202773272076616c604482015261756560f01b606482015260840161087e565b600481600481111561184e5761184e61258a565b036105f25760405162461bcd60e51b815260206004820152602260248201527f45434453413a20696e76616c6964207369676e6174757265202776272076616c604482015261756560f01b606482015260840161087e565b604080517f1ee5d87a048b728f67073f282321992c260e5be4fa651d08665c5b4ee7a8381560208201529081018290525f906060016040516020818303038152906040528051906020012090506118fa8190565b5461190690600161259e565b905550565b6060828585604051602001611922939291906125b1565b6040516020818303038152906040529050949350505050565b6060831561194a5750816106b7565b82511561195a5782518084602001fd5b8160405162461bcd60e51b815260040161087e919061200f565b5f303303611989575060331936013560601c90565b503390565b6119988282610f9e565b610891576119b0816001600160a01b03166014611c4c565b6119bb836020611c4c565b6040516020016119cc9291906125ef565b60408051601f198184030181529082905262461bcd60e51b825261087e9160040161200f565b6040517f19457468657265756d205369676e6564204d6573736167653a0a3332000000006020820152603c81018290525f90605c016106ee565b5f805f611a3985856116af565b90925090505f816004811115611a5157611a5161258a565b148015611a6f5750856001600160a01b0316826001600160a01b0316145b15611a7f576001925050506106b7565b5f80876001600160a01b0316631626ba7e60e01b8888604051602401611aa6929190612663565b60408051601f198184030181529181526020820180516001600160e01b03166001600160e01b0319909416939093179092529051611ae491906124dd565b5f60405180830381855afa9150503d805f8114611b1c576040519150601f19603f3d011682016040523d82523d5f602084013e611b21565b606091505b5091509150818015611b34575080516020145b8015611b5b57508051630b135d3f60e11b90611b599083016020908101908401612342565b145b98975050505050505050565b5f807f7fffffffffffffffffffffffffffffff5d576e7357a4501ddfe92f46681b20a0831115611b9c57505f90506003611c43565b8460ff16601b14158015611bb457508460ff16601c14155b15611bc457505f90506004611c43565b604080515f8082526020820180845289905260ff881692820192909252606081018690526080810185905260019060a0016020604051602081039080840390855afa158015611c15573d5f803e3d5ffd5b5050604051601f1901519150506001600160a01b038116611c3d575f60019250925050611c43565b91505f90505b94509492505050565b60605f611c5a83600261267b565b611c6590600261259e565b6001600160401b03811115611c7c57611c7c611e1f565b6040519080825280601f01601f191660200182016040528015611ca6576020820181803683370190505b509050600360fc1b815f81518110611cc057611cc0612692565b60200101906001600160f81b03191690815f1a905350600f60fb1b81600181518110611cee57611cee612692565b60200101906001600160f81b03191690815f1a9053505f611d1084600261267b565b611d1b90600161259e565b90505b6001811115611d92576f181899199a1a9b1b9c1cb0b131b232b360811b85600f1660108110611d4f57611d4f612692565b1a60f81b828281518110611d6557611d65612692565b60200101906001600160f81b03191690815f1a90535060049490941c93611d8b816126a6565b9050611d1e565b5083156106b75760405162461bcd60e51b815260206004820181905260248201527f537472696e67733a20686578206c656e67746820696e73756666696369656e74604482015260640161087e565b5f60208284031215611df1575f80fd5b81356001600160e01b0319811681146106b7575f80fd5b5f60208284031215611e18575f80fd5b5035919050565b634e487b7160e01b5f52604160045260245ffd5b5f82601f830112611e42575f80fd5b81356001600160401b0380821115611e5c57611e5c611e1f565b604051601f8301601f19908116603f01168101908282118183101715611e8457611e84611e1f565b81604052838152866020858801011115611e9c575f80fd5b836020870160208301375f602085830101528094505050505092915050565b5f8060408385031215611ecc575f80fd5b8235915060208301356001600160401b03811115611ee8575f80fd5b611ef485828601611e33565b9150509250929050565b6001600160a01b03811681146105f2575f80fd5b5f60208284031215611f22575f80fd5b81356106b781611efe565b5f805f60408486031215611f3f575f80fd5b83356001600160401b0380821115611f55575f80fd5b9085019060808288031215611f68575f80fd5b90935060208501359080821115611f7d575f80fd5b818601915086601f830112611f90575f80fd5b813581811115611f9e575f80fd5b876020828501011115611faf575f80fd5b6020830194508093505050509250925092565b5f5b83811015611fdc578181015183820152602001611fc4565b50505f910152565b5f8151808452611ffb816020860160208601611fc2565b601f01601f19169290920160200192915050565b602081525f6106b76020830184611fe4565b5f8060408385031215612032575f80fd5b82359150602083013561204481611efe565b809150509250929050565b5f8060408385031215612060575f80fd5b823561206b81611efe565b9150602083013561204481611efe565b5f8083601f84011261208b575f80fd5b5081356001600160401b038111156120a1575f80fd5b6020830191508360208260051b85010111156116ea575f80fd5b6001600160401b03811681146105f2575f80fd5b5f805f805f805f805f60c08a8c0312156120e7575f80fd5b89356001600160401b03808211156120fd575f80fd5b6121098d838e0161207b565b909b50995060208c0135915080821115612121575f80fd5b61212d8d838e0161207b565b909950975060408c0135915080821115612145575f80fd5b506121528c828d0161207b565b90965094505060608a0135612166816120bb565b925060808a0135915060a08a013561217d81611efe565b809150509295985092959850929598565b80151581146105f2575f80fd5b5f80604083850312156121ac575f80fd5b82356121b781611efe565b915060208301356120448161218e565b5f805f805f606086880312156121db575f80fd5b85356001600160401b03808211156121f1575f80fd5b6121fd89838a0161207b565b90975095506020880135915080821115612215575f80fd5b506122228882890161207b565b96999598509660400135949350505050565b5f808335601e19843603018112612249575f80fd5b8301803591506001600160401b03821115612262575f80fd5b6020019150368190038213156116ea575f80fd5b81835281816020850137505f828201602090810191909152601f909101601f19169091010190565b5f838385526020808601955060208560051b830101845f5b8781101561232257848303601f19018952813536889003601e190181126122db575f80fd5b870184810190356001600160401b038111156122f5575f80fd5b803603821315612303575f80fd5b61230e858284612276565b9a86019a94505050908301906001016122b6565b5090979650505050505050565b602081525f61108060208301848661229e565b5f60208284031215612352575f80fd5b5051919050565b5f60208284031215612369575f80fd5b81516106b78161218e565b5f60208284031215612384575f80fd5b81516106b781611efe565b5f6020828403121561239f575f80fd5b81516106b7816120bb565b606081525f6123bd60608301878961229e565b82810360208401526123d081868861229e565b9150508260408301529695505050505050565b6001600160a01b038a16815260c0602082018190525f906124079083018a8c61229e565b828103604084015261241a81898b61229e565b9050828103606084015261242f81878961229e565b6001600160401b03959095166080840152505090151560a090910152979650505050505050565b5f60808236031215612466575f80fd5b604051608081016001600160401b03828210818311171561248957612489611e1f565b816040528435915061249a82611efe565b818352602085013560208401526040850135604084015260608501359150808211156124c4575f80fd5b506124d136828601611e33565b60608301525092915050565b5f82516124ee818460208701611fc2565b9190910192915050565b634e487b7160e01b5f52601160045260245ffd5b5f8261252657634e487b7160e01b5f52601260045260245ffd5b500490565b634e487b7160e01b5f52600160045260245ffd5b6020808252602b908201527f496e697469616c697a61626c653a20636f6e7472616374206973206e6f74206960408201526a6e697469616c697a696e6760a81b606082015260800190565b634e487b7160e01b5f52602160045260245ffd5b80820180821115610584576105846124f8565b5f84516125c2818460208901611fc2565b60609490941b6bffffffffffffffffffffffff191691909301908152601481019190915260340192915050565b7f416363657373436f6e74726f6c3a206163636f756e742000000000000000000081525f8351612626816017850160208801611fc2565b7001034b99036b4b9b9b4b733903937b6329607d1b6017918401918201528351612657816028840160208801611fc2565b01602801949350505050565b828152604060208201525f6110806040830184611fe4565b8082028115828204841417610584576105846124f8565b634e487b7160e01b5f52603260045260245ffd5b5f816126b4576126b46124f8565b505f19019056fea164736f6c6343000818000a",
  "linkReferences": {},
  "deployedLinkReferences": {}
}