{
  "_format": "hh-sol-artifact-1",
  "contractName": "RegistrarCustody",
  "sourceName": "contracts/RegistrarCustody.sol",
  "abi": [
    {
      "inputs": [],
      "stateMutability": "nonpayable",
      "type": "constructor"
    },
    {
      "inputs": [
        {
          "internalType": "uint256",
          "name": "tokenId",
          "type": "uint256"
        }
      ],
      "name": "InvalidForwardedToken",
      "type": "error"
    },
    {
      "inputs": [],
      "name": "InvalidSignature",
      "type": "error"
    },
    {
      "anonymous": false,
      "inputs": [
        {
          "indexed": false,
          "internalType": "address",
          "name": "previousAdmin",
          "type": "address"
        },
        {
          "indexed": false,
          "internalType": "address",
          "name": "newAdmin",
          "type": "address"
        }
      ],
      "name": "AdminChanged",
      "type": "event"
    },
    {
      "anonymous": false,
      "inputs": [
        {
          "indexed": true,
          "internalType": "uint256",
          "name": "tokenId",
          "type": "uint256"
        },
        {
          "indexed": true,
          "internalType": "address",
          "name": "owner",
          "type": "address"
        }
      ],
      "name": "DomainLocked",
      "type": "event"
    },
    {
      "anonymous": false,
      "inputs": [
        {
          "indexed": false,
          "internalType": "uint8",
          "name": "version",
          "type": "uint8"
        }
      ],
      "name": "Initialized",
      "type": "event"
    },
    {
      "anonymous": false,
      "inputs": [
        {
          "indexed": true,
          "internalType": "address",
          "name": "previousOwner",
          "type": "address"
        },
        {
          "indexed": true,
          "internalType": "address",
          "name": "newOwner",
          "type": "address"
        }
      ],
      "name": "OwnershipTransferred",
      "type": "event"
    },
    {
      "anonymous": false,
      "inputs": [
        {
          "indexed": true,
          "internalType": "bytes32",
          "name": "role",
          "type": "bytes32"
        },
        {
          "indexed": true,
          "internalType": "bytes32",
          "name": "previousAdminRole",
          "type": "bytes32"
        },
        {
          "indexed": true,
          "internalType": "bytes32",
          "name": "newAdminRole",
          "type": "bytes32"
        }
      ],
      "name": "RoleAdminChanged",
      "type": "event"
    },
    {
      "anonymous": false,
      "inputs": [
        {
          "indexed": true,
          "internalType": "bytes32",
          "name": "role",
          "type": "bytes32"
        },
        {
          "indexed": true,
          "internalType": "address",
          "name": "account",
          "type": "address"
        },
        {
          "indexed": true,
          "internalType": "address",
          "name": "sender",
          "type": "address"
        }
      ],
      "name": "RoleGranted",
      "type": "event"
    },
    {
      "anonymous": false,
      "inputs": [
        {
          "indexed": true,
          "internalType": "bytes32",
          "name": "role",
          "type": "bytes32"
        },
        {
          "indexed": true,
          "internalType": "address",
          "name": "account",
          "type": "address"
        },
        {
          "indexed": true,
          "internalType": "address",
          "name": "sender",
          "type": "address"
        }
      ],
      "name": "RoleRevoked",
      "type": "event"
    },
    {
      "anonymous": false,
      "inputs": [
        {
          "indexed": true,
          "internalType": "address",
          "name": "implementation",
          "type": "address"
        }
      ],
      "name": "Upgraded",
      "type": "event"
    },
    {
      "inputs": [],
      "name": "DEFAULT_ADMIN_ROLE",
      "outputs": [
        {
          "internalType": "bytes32",
          "name": "",
          "type": "bytes32"
        }
      ],
      "stateMutability": "view",
      "type": "function"
    },
    {
      "inputs": [],
      "name": "MINTER_ROLE",
      "outputs": [
        {
          "internalType": "bytes32",
          "name": "",
          "type": "bytes32"
        }
      ],
      "stateMutability": "view",
      "type": "function"
    },
    {
      "inputs": [],
      "name": "NAME",
      "outputs": [
        {
          "internalType": "string",
          "name": "",
          "type": "string"
        }
      ],
      "stateMutability": "view",
      "type": "function"
    },
    {
      "inputs": [],
      "name": "VERSION",
      "outputs": [
        {
          "internalType": "string",
          "name": "",
          "type": "string"
        }
      ],
      "stateMutability": "view",
      "type": "function"
    },
    {
      "inputs": [
        {
          "internalType": "address",
          "name": "account",
          "type": "address"
        }
      ],
      "name": "addMinter",
      "outputs": [],
      "stateMutability": "nonpayable",
      "type": "function"
    },
    {
      "inputs": [
        {
          "internalType": "address[]",
          "name": "accounts",
          "type": "address[]"
        }
      ],
      "name": "addMinters",
      "outputs": [],
      "stateMutability": "nonpayable",
      "type": "function"
    },
    {
      "inputs": [
        {
          "internalType": "address payable",
          "name": "receiver",
          "type": "address"
        }
      ],
      "name": "closeMinter",
      "outputs": [],
      "stateMutability": "payable",
      "type": "function"
    },
    {
      "inputs": [
        {
          "components": [
            {
              "internalType": "address",
              "name": "from",
              "type": "address"
            },
            {
              "internalType": "uint256",
              "name": "nonce",
              "type": "uint256"
            },
            {
              "internalType": "uint256",
              "name": "tokenId",
              "type": "uint256"
            },
            {
              "internalType": "bytes",
              "name": "data",
              "type": "bytes"
            }
          ],
          "internalType": "struct IForwarder.ForwardRequest",
          "name": "req",
          "type": "tuple"
        },
        {
          "internalType": "bytes",
          "name": "signature",
          "type": "bytes"
        }
      ],
      "name": "execute",
      "outputs": [
        {
          "internalType": "bytes",
          "name": "",
          "type": "bytes"
        }
      ],
      "stateMutability": "nonpayable",
      "type": "function"
    },
    {
      "inputs": [
        {
          "internalType": "bytes32",
          "name": "role",
          "type": "bytes32"
        }
      ],
      "name": "getRoleAdmin",
      "outputs": [
        {
          "internalType": "bytes32",
          "name": "",
          "type": "bytes32"
        }
      ],
      "stateMutability": "view",
      "type": "function"
    },
    {
      "inputs": [
        {
          "internalType": "bytes32",
          "name": "role",
          "type": "bytes32"
        },
        {
          "internalType": "address",
          "name": "account",
          "type": "address"
        }
      ],
      "name": "grantRole",
      "outputs": [],
      "stateMutability": "nonpayable",
      "type": "function"
    },
    {
      "inputs": [
        {
          "internalType": "bytes32",
          "name": "role",
          "type": "bytes32"
        },
        {
          "internalType": "address",
          "name": "account",
          "type": "address"
        }
      ],
      "name": "hasRole",
      "outputs": [
        {
          "internalType": "bool",
          "name": "",
          "type": "bool"
        }
      ],
      "stateMutability": "view",
      "type": "function"
    },
    {
      "inputs": [
        {
          "internalType": "address",
          "name": "_unsRegistry",
          "type": "address"
        },
        {
          "internalType": "address",
          "name": "_mintingManager",
          "type": "address"
        }
      ],
      "name": "initialize",
      "outputs": [],
      "stateMutability": "nonpayable",
      "type": "function"
    },
    {
      "inputs": [
        {
          "internalType": "address",
          "name": "account",
          "type": "address"
        }
      ],
      "name": "isMinter",
      "outputs": [
        {
          "internalType": "bool",
          "name": "",
          "type": "bool"
        }
      ],
      "stateMutability": "view",
      "type": "function"
    },
    {
      "inputs": [
        {
          "internalType": "address",
          "name": "forwarder",
          "type": "address"
        }
      ],
      "name": "isTrustedForwarder",
      "outputs": [
        {
          "internalType": "bool",
          "name": "",
          "type": "bool"
        }
      ],
      "stateMutability": "view",
      "type": "function"
    },
    {
      "inputs": [
        {
          "internalType": "bytes32",
          "name": "hash",
          "type": "bytes32"
        },
        {
          "internalType": "bytes",
          "name": "signature",
          "type": "bytes"
        }
      ],
      "name": "isValidSignature",
      "outputs": [
        {
          "internalType": "bytes4",
          "name": "",
          "type": "bytes4"
        }
      ],
      "stateMutability": "view",
      "type": "function"
    },
    {
      "inputs": [],
      "name": "mintingManager",
      "outputs": [
        {
          "internalType": "contract IMintingManager",
          "name": "",
          "type": "address"
        }
      ],
      "stateMutability": "view",
      "type": "function"
    },
    {
      "inputs": [
        {
          "internalType": "uint256",
          "name": "tokenId",
          "type": "uint256"
        }
      ],
      "name": "nonceOf",
      "outputs": [
        {
          "internalType": "uint256",
          "name": "",
          "type": "uint256"
        }
      ],
      "stateMutability": "view",
      "type": "function"
    },
    {
      "inputs": [],
      "name": "owner",
      "outputs": [
        {
          "internalType": "address",
          "name": "",
          "type": "address"
        }
      ],
      "stateMutability": "view",
      "type": "function"
    },
    {
      "inputs": [
        {
          "internalType": "address",
          "name": "virtualOwner",
          "type": "address"
        },
        {
          "internalType": "string[]",
          "name": "labels",
          "type": "string[]"
        },
        {
          "internalType": "string[]",
          "name": "keys",
          "type": "string[]"
        },
        {
          "internalType": "string[]",
          "name": "values",
          "type": "string[]"
        },
        {
          "internalType": "uint64",
          "name": "expiry",
          "type": "uint64"
        }
      ],
      "name": "registerDomain",
      "outputs": [],
      "stateMutability": "nonpayable",
      "type": "function"
    },
    {
      "inputs": [
        {
          "internalType": "address",
          "name": "account",
          "type": "address"
        }
      ],
      "name": "removeMinter",
      "outputs": [],
      "stateMutability": "nonpayable",
      "type": "function"
    },
    {
      "inputs": [
        {
          "internalType": "address[]",
          "name": "accounts",
          "type": "address[]"
        }
      ],
      "name": "removeMinters",
      "outputs": [],
      "stateMutability": "nonpayable",
      "type": "function"
    },
    {
      "inputs": [],
      "name": "renounceMinter",
      "outputs": [],
      "stateMutability": "nonpayable",
      "type": "function"
    },
    {
      "inputs": [],
      "name": "renounceOwnership",
      "outputs": [],
      "stateMutability": "nonpayable",
      "type": "function"
    },
    {
      "inputs": [
        {
          "internalType": "bytes32",
          "name": "role",
          "type": "bytes32"
        },
        {
          "internalType": "address",
          "name": "account",
          "type": "address"
        }
      ],
      "name": "renounceRole",
      "outputs": [],
      "stateMutability": "nonpayable",
      "type": "function"
    },
    {
      "inputs": [
        {
          "internalType": "bytes32",
          "name": "role",
          "type": "bytes32"
        },
        {
          "internalType": "address",
          "name": "account",
          "type": "address"
        }
      ],
      "name": "revokeRole",
      "outputs": [],
      "stateMutability": "nonpayable",
      "type": "function"
    },
    {
      "inputs": [
        {
          "internalType": "address payable",
          "name": "receiver",
          "type": "address"
        }
      ],
      "name": "rotateMinter",
      "outputs": [],
      "stateMutability": "payable",
      "type": "function"
    },
    {
      "inputs": [
        {
          "internalType": "address",
          "name": "to",
          "type": "address"
        },
        {
          "internalType": "uint256",
          "name": "tokenId",
          "type": "uint256"
        }
      ],
      "name": "safeTransfer",
      "outputs": [],
      "stateMutability": "nonpayable",
      "type": "function"
    },
    {
      "inputs": [
        {
          "internalType": "address",
          "name": "operator",
          "type": "address"
        },
        {
          "internalType": "bool",
          "name": "approved",
          "type": "bool"
        }
      ],
      "name": "setApprovalForAll",
      "outputs": [],
      "stateMutability": "nonpayable",
      "type": "function"
    },
    {
      "inputs": [
        {
          "internalType": "bytes4",
          "name": "interfaceId",
          "type": "bytes4"
        }
      ],
      "name": "supportsInterface",
      "outputs": [
        {
          "internalType": "bool",
          "name": "",
          "type": "bool"
        }
      ],
      "stateMutability": "view",
      "type": "function"
    },
    {
      "inputs": [
        {
          "internalType": "address",
          "name": "newOwner",
          "type": "address"
        }
      ],
      "name": "transferOwnership",
      "outputs": [],
      "stateMutability": "nonpayable",
      "type": "function"
    },
    {
      "inputs": [],
      "name": "unsRegistry",
      "outputs": [
        {
          "internalType": "contract IUNSRegistry",
          "name": "",
          "type": "address"
        }
      ],
      "stateMutability": "view",
      "type": "function"
    },
    {
      "inputs": [
        {
          "components": [
            {
              "internalType": "address",
              "name": "from",
              "type": "address"
            },
            {
              "internalType": "uint256",
              "name": "nonce",
              "type": "uint256"
            },
            {
              "internalType": "uint256",
              "name": "tokenId",
              "type": "uint256"
            },
            {
              "internalType": "bytes",
              "name": "data",
              "type": "bytes"
            }
          ],
          "internalType": "struct IForwarder.ForwardRequest",
          "name": "req",
          "type": "tuple"
        },
        {
          "internalType": "bytes",
          "name": "signature",
          "type": "bytes"
        }
      ],
      "name": "verify",
      "outputs": [
        {
          "internalType": "bool",
          "name": "",
          "type": "bool"
        }
      ],
      "stateMutability": "view",
      "type": "function"
    },
    {
      "inputs": [
        {
          "internalType": "uint256",
          "name": "",
          "type": "uint256"
        }
      ],
      "name": "virtualOwners",
      "outputs": [
        {
          "internalType": "address",
          "name": "",
          "type": "address"
        }
      ],
      "stateMutability": "view",
      "type": "function"
    }
  ],
  "bytecode": "0x608060405234801562000010575f80fd5b506200001b62000021565b620000e0565b5f54610100900460ff16156200008d5760405162461bcd60e51b815260206004820152602760248201527f496e697469616c697a61626c653a20636f6e747261637420697320696e697469604482015266616c697a696e6760c81b606482015260840160405180910390fd5b5f5460ff9081161015620000de575f805460ff191660ff9081179091556040519081527f7f26b83ff96e1f2b6a682f133852f6798a09c465da95921460cefb38474024989060200160405180910390a15b565b61264b80620000ee5f395ff3fe6080604052600436106101e6575f3560e01c806371e2a65711610108578063a3f4df7e1161009d578063d53913931161006d578063d5391393146105c7578063d547741f146105e7578063f2fde38b14610606578063ffa1ad7414610625578063ffe2722914610655575f80fd5b8063a3f4df7e14610513578063a424740014610554578063aa271e1a14610573578063addc976b14610592575f80fd5b8063983b2d56116100d8578063983b2d56146104ae57806398650275146104cd578063a217fddf146104e1578063a22cb465146104f4575f80fd5b806371e2a6571461044057806381c81d351461045f5780638da5cb5b1461047257806391d148541461048f575f80fd5b8063423f6cef1161017e5780635fc1964f1161014e5780635fc1964f146103db578063634486da146103fa5780636ccbae5f1461040d578063715018a61461042c575f80fd5b8063423f6cef14610355578063485cc95514610374578063572b6c051461039357806358884432146103bb575f80fd5b80632f2ff15d116101b95780632f2ff15d146102be5780633092afd5146102df57806336568abe146102fe5780633f41b6141461031d575f80fd5b806301ffc9a7146101ea5780631626ba7e1461021e5780631bf7e13e14610256578063248a9ca314610282575b5f80fd5b3480156101f5575f80fd5b50610209610204366004611d3e565b610674565b60405190151581526020015b60405180910390f35b348015610229575f80fd5b5061023d610238366004611e16565b6106aa565b6040516001600160e01b03199091168152602001610215565b348015610261575f80fd5b50610275610270366004611e5a565b6106e7565b6040516102159190611f3d565b34801561028d575f80fd5b506102b061029c366004611f4f565b5f90815260fb602052604090206001015490565b604051908152602001610215565b3480156102c9575f80fd5b506102dd6102d8366004611f7a565b6107b0565b005b3480156102ea575f80fd5b506102dd6102f9366004611fa8565b6107d9565b348015610309575f80fd5b506102dd610318366004611f7a565b6107ed565b348015610328575f80fd5b5061012d5461033d906001600160a01b031681565b6040516001600160a01b039091168152602001610215565b348015610360575f80fd5b506102dd61036f366004611fc3565b610880565b34801561037f575f80fd5b506102dd61038e366004611fed565b61098d565b34801561039e575f80fd5b506102096103ad366004611fa8565b6001600160a01b0316301490565b3480156103c6575f80fd5b5061012e5461033d906001600160a01b031681565b3480156103e6575f80fd5b506102dd6103f5366004612019565b610aeb565b6102dd610408366004611fa8565b610b28565b348015610418575f80fd5b506102b0610427366004611f4f565b610be8565b348015610437575f80fd5b506102dd610c41565b34801561044b575f80fd5b506102dd61045a366004612019565b610c54565b6102dd61046d366004611fa8565b610c91565b34801561047d575f80fd5b506097546001600160a01b031661033d565b34801561049a575f80fd5b506102096104a9366004611f7a565b610d0e565b3480156104b9575f80fd5b506102dd6104c8366004611fa8565b610d38565b3480156104d8575f80fd5b506102dd610d49565b3480156104ec575f80fd5b506102b05f81565b3480156104ff575f80fd5b506102dd61050e3660046120ba565b610d62565b34801561051e575f80fd5b5061027560405180604001604052806016815260200175554e533a2052656769737472617220437573746f647960501b81525081565b34801561055f575f80fd5b5061020961056e366004611e5a565b610dd1565b34801561057e575f80fd5b5061020961058d366004611fa8565b610e22565b34801561059d575f80fd5b5061033d6105ac366004611f4f565b61012f6020525f90815260409020546001600160a01b031681565b3480156105d2575f80fd5b506102b05f8051602061261f83398151915281565b3480156105f2575f80fd5b506102dd610601366004611f7a565b610e3a565b348015610611575f80fd5b506102dd610620366004611fa8565b610e5e565b348015610630575f80fd5b50610275604051806040016040528060058152602001640302e312e360dc1b81525081565b348015610660575f80fd5b506102dd61066f36600461212b565b610e79565b5f6001600160e01b03198216637965db0b60e01b14806106a457506301ffc9a760e01b6001600160e01b03198316145b92915050565b5f806106b68484611049565b90506106c181610e22565b156106d65750630b135d3f60e11b90506106a4565b506001600160e01b03199392505050565b60605f5a90506106f8858585610dd1565b61071557604051638baa579f60e01b815260040160405180910390fd5b6107a56107256020870187611fa8565b3060408801358461073960608b018b6121e8565b8080601f0160208091040260200160405190810160405280939291908181526020018383808284375f9201919091525050604080516020601f8e018190048102820181019092528c815292508c91508b90819084018382808284375f9201919091525061106b92505050565b9150505b9392505050565b5f82815260fb60205260409020600101546107ca81611147565b6107d48383611158565b505050565b6107e16111de565b6107ea81611257565b50565b6107f561126e565b6001600160a01b0316816001600160a01b0316146108725760405162461bcd60e51b815260206004820152602f60248201527f416363657373436f6e74726f6c3a2063616e206f6e6c792072656e6f756e636560448201526e103937b632b9903337b91039b2b63360891b60648201526084015b60405180910390fd5b61087c828261127c565b5050565b61088b61058d61126e565b6108a75760405162461bcd60e51b81526004016108699061222b565b6002606554036108f95760405162461bcd60e51b815260206004820152601f60248201527f5265656e7472616e637947756172643a207265656e7472616e742063616c6c006044820152606401610869565b600260655561090781611300565b61012d5460405163559dc3ff60e11b81526001600160a01b038481166004830152602482018490529091169063ab3b87fe906044015f604051808303815f87803b158015610953575f80fd5b505af1158015610965573d5f803e3d5ffd5b5050505f9182525061012f6020526040902080546001600160a01b0319169055506001606555565b5f54610100900460ff16158080156109ab57505f54600160ff909116105b806109c45750303b1580156109c457505f5460ff166001145b610a275760405162461bcd60e51b815260206004820152602e60248201527f496e697469616c697a61626c653a20636f6e747261637420697320616c72656160448201526d191e481a5b9a5d1a585b1a5e995960921b6064820152608401610869565b5f805460ff191660011790558015610a48575f805461ff0019166101001790555b61012d80546001600160a01b038086166001600160a01b03199283161790925561012e805492851692909116919091179055610a82611319565b610a8a611346565b610a92611346565b610a9a61136c565b610aa26113a2565b80156107d4575f805461ff0019169055604051600181527f7f26b83ff96e1f2b6a682f133852f6798a09c465da95921460cefb38474024989060200160405180910390a1505050565b610af36111de565b5f5b815181101561087c57610b20828281518110610b1357610b13612260565b6020026020010151611257565b600101610af5565b610b3361058d61126e565b610b4f5760405162461bcd60e51b81526004016108699061222b565b6001600160a01b038116610ba55760405162461bcd60e51b815260206004820152601d60248201527f4d696e746572526f6c653a2052454345495645525f49535f454d5054590000006044820152606401610869565b610bae816113d9565b610bb6610d49565b6040516001600160a01b038216903480156108fc02915f818181858888f1935050505015801561087c573d5f803e3d5ffd5b604080517f1ee5d87a048b728f67073f282321992c260e5be4fa651d08665c5b4ee7a8381560208201529081018290525f90610c3a906060016040516020818303038152906040528051906020012090565b5492915050565b610c496111de565b610c525f6113f0565b565b610c5c6111de565b5f5b815181101561087c57610c89828281518110610c7c57610c7c612260565b60200260200101516113d9565b600101610c5e565b610c9c61058d61126e565b610cb85760405162461bcd60e51b81526004016108699061222b565b6001600160a01b038116610bae5760405162461bcd60e51b815260206004820152601d60248201527f4d696e746572526f6c653a2052454345495645525f49535f454d5054590000006044820152606401610869565b5f91825260fb602090815260408084206001600160a01b0393909316845291905290205460ff1690565b610d406111de565b6107ea816113d9565b610c525f8051602061261f83398151915261031861126e565b610d6a6111de565b61012d5460405163a22cb46560e01b81526001600160a01b03848116600483015283151560248301529091169063a22cb465906044015f604051808303815f87803b158015610db7575f80fd5b505af1158015610dc9573d5f803e3d5ffd5b505050505050565b5f610e1a610dde85612274565b3085858080601f0160208091040260200160405190810160405280939291908181526020018383808284375f9201919091525061144192505050565b949350505050565b5f6106a45f8051602061261f83398151915283610d0e565b5f82815260fb6020526040902060010154610e5481611147565b6107d4838361127c565b610e666111de565b610e6f81611586565b6107ea5f826115fc565b610e8461058d61126e565b610ea05760405162461bcd60e51b81526004016108699061222b565b600260655403610ef25760405162461bcd60e51b815260206004820152601f60248201527f5265656e7472616e637947756172643a207265656e7472616e742063616c6c006044820152606401610869565b600260655561012d5460405163276fabb160e01b81525f916001600160a01b03169063276fabb190610f2a908b908b906004016123b6565b602060405180830381865afa158015610f45573d5f803e3d5ffd5b505050506040513d601f19601f82011682018060405250810190610f6991906123c9565b9050610f7481611300565b5f81815261012f602052604080822080546001600160a01b0319166001600160a01b038d81169190911790915561012e549151632f1166c360e11b8152911691635e22cd8691610fd79130918d918d918d918d918d918d918d91906004016123e0565b5f604051808303815f87803b158015610fee575f80fd5b505af1158015611000573d5f803e3d5ffd5b50506040516001600160a01b038c1692508391507f34a236306b3d8796f17c3b29af658bbc29b76f8b9c85ea86154638f2d769a1ea905f90a35050600160655550505050505050565b5f805f6110568585611606565b9150915061106381611648565b509392505050565b6060611076856117fd565b5f80876001600160a01b03168661108f8b8a8989611862565b60405161109c9190612454565b5f604051808303815f8787f1925050503d805f81146110d6576040519150601f19603f3d011682016040523d82523d5f602084013e6110db565b606091505b5090925090506110ec603f87612483565b5a116110fa576110fa6124a2565b61113a82826040518060400160405280601a81526020017f42617365466f727761726465723a2043414c4c5f4641494c4544000000000000815250611892565b9998505050505050505050565b6107ea8161115361126e565b6118cb565b6111628282610d0e565b61087c575f82815260fb602090815260408083206001600160a01b03851684529091529020805460ff1916600117905561119a61126e565b6001600160a01b0316816001600160a01b0316837f2f8788117e7eff1d82e926ec794901d17c78024a50270940304540a733656f0d60405160405180910390a45050565b6111e661126e565b6001600160a01b03166112016097546001600160a01b031690565b6001600160a01b031614610c525760405162461bcd60e51b815260206004820181905260248201527f4f776e61626c653a2063616c6c6572206973206e6f7420746865206f776e65726044820152606401610869565b6107ea5f8051602061261f83398151915282610e3a565b5f61127761192f565b905090565b6112868282610d0e565b1561087c575f82815260fb602090815260408083206001600160a01b03851684529091529020805460ff191690556112bc61126e565b6001600160a01b0316816001600160a01b0316837ff6391f5c32d9c69d2a47ea670b442974b53935d1edc7fd64eb21e047a839171b60405160405180910390a45050565b303303611310576107ea8161194c565b6107ea816117fd565b5f54610100900460ff1661133f5760405162461bcd60e51b8152600401610869906124b6565b6001606555565b5f54610100900460ff16610c525760405162461bcd60e51b8152600401610869906124b6565b5f54610100900460ff166113925760405162461bcd60e51b8152600401610869906124b6565b610c5261139d61126e565b6113f0565b5f54610100900460ff166113c85760405162461bcd60e51b8152600401610869906124b6565b610c525f6113d461126e565b6115fc565b6107ea5f8051602061261f833981519152826115fc565b609780546001600160a01b038381166001600160a01b0319831681179093556040519116919082907f8be0079c531659141344cd1fd0a4f28419497f9722a3daafe3b4186f6b6457e0905f90a35050565b6040838101519051636ccbae5f60e01b815260048101919091525f9081903090636ccbae5f90602401602060405180830381865afa158015611485573d5f803e3d5ffd5b505050506040513d601f19601f820116820180604052508101906114a991906123c9565b90505f6115568660600151805190602001208688602001516040516020016114f69392919092835260609190911b6bffffffffffffffffffffffff19166020830152603482015260540190565b60408051601f1981840301815282825280516020918201207f19457468657265756d205369676e6564204d6573736167653a0a33320000000084830152603c8085019190915282518085039091018152605c909301909152815191012090565b905081866020015114801561157c5750855161157c906001600160a01b03168286611976565b9695505050505050565b61158e6111de565b6001600160a01b0381166115f35760405162461bcd60e51b815260206004820152602660248201527f4f776e61626c653a206e6577206f776e657220697320746865207a65726f206160448201526564647265737360d01b6064820152608401610869565b6107ea816113f0565b61087c8282611158565b5f80825160410361163a576020830151604084015160608501515f1a61162e87828585611ab1565b94509450505050611641565b505f905060025b9250929050565b5f81600481111561165b5761165b612501565b036116635750565b600181600481111561167757611677612501565b036116c45760405162461bcd60e51b815260206004820152601860248201527f45434453413a20696e76616c6964207369676e617475726500000000000000006044820152606401610869565b60028160048111156116d8576116d8612501565b036117255760405162461bcd60e51b815260206004820152601f60248201527f45434453413a20696e76616c6964207369676e6174757265206c656e677468006044820152606401610869565b600381600481111561173957611739612501565b036117915760405162461bcd60e51b815260206004820152602260248201527f45434453413a20696e76616c6964207369676e6174757265202773272076616c604482015261756560f01b6064820152608401610869565b60048160048111156117a5576117a5612501565b036107ea5760405162461bcd60e51b815260206004820152602260248201527f45434453413a20696e76616c6964207369676e6174757265202776272076616c604482015261756560f01b6064820152608401610869565b604080517f1ee5d87a048b728f67073f282321992c260e5be4fa651d08665c5b4ee7a8381560208201529081018290525f906060016040516020818303038152906040528051906020012090506118518190565b5461185d906001612515565b905550565b606082858560405160200161187993929190612528565b6040516020818303038152906040529050949350505050565b606083156118a15750816107a9565b8251156118b15782518084602001fd5b8160405162461bcd60e51b81526004016108699190611f3d565b6118d58282610d0e565b61087c576118ed816001600160a01b03166014611b96565b6118f8836020611b96565b604051602001611909929190612566565b60408051601f198184030181529082905262461bcd60e51b825261086991600401611f3d565b5f303303611944575060331936013560601c90565b503390565b90565b611954611d2c565b81146107ea57604051635637b6af60e11b815260048101829052602401610869565b5f805f6119838585611606565b90925090505f81600481111561199b5761199b612501565b1480156119b95750856001600160a01b0316826001600160a01b0316145b156119c9576001925050506107a9565b5f80876001600160a01b0316631626ba7e60e01b88886040516024016119f09291906125da565b60408051601f198184030181529181526020820180516001600160e01b03166001600160e01b0319909416939093179092529051611a2e9190612454565b5f60405180830381855afa9150503d805f8114611a66576040519150601f19603f3d011682016040523d82523d5f602084013e611a6b565b606091505b5091509150818015611a7e575080516020145b8015611aa557508051630b135d3f60e11b90611aa390830160209081019084016123c9565b145b98975050505050505050565b5f807f7fffffffffffffffffffffffffffffff5d576e7357a4501ddfe92f46681b20a0831115611ae657505f90506003611b8d565b8460ff16601b14158015611afe57508460ff16601c14155b15611b0e57505f90506004611b8d565b604080515f8082526020820180845289905260ff881692820192909252606081018690526080810185905260019060a0016020604051602081039080840390855afa158015611b5f573d5f803e3d5ffd5b5050604051601f1901519150506001600160a01b038116611b87575f60019250925050611b8d565b91505f90505b94509492505050565b60605f611ba48360026125f2565b611baf906002612515565b67ffffffffffffffff811115611bc757611bc7611d65565b6040519080825280601f01601f191660200182016040528015611bf1576020820181803683370190505b509050600360fc1b815f81518110611c0b57611c0b612260565b60200101906001600160f81b03191690815f1a905350600f60fb1b81600181518110611c3957611c39612260565b60200101906001600160f81b03191690815f1a9053505f611c5b8460026125f2565b611c66906001612515565b90505b6001811115611cdd576f181899199a1a9b1b9c1cb0b131b232b360811b85600f1660108110611c9a57611c9a612260565b1a60f81b828281518110611cb057611cb0612260565b60200101906001600160f81b03191690815f1a90535060049490941c93611cd681612609565b9050611c69565b5083156107a95760405162461bcd60e51b815260206004820181905260248201527f537472696e67733a20686578206c656e67746820696e73756666696369656e746044820152606401610869565b5f3033036119495750601f1936013590565b5f60208284031215611d4e575f80fd5b81356001600160e01b0319811681146107a9575f80fd5b634e487b7160e01b5f52604160045260245ffd5b604051601f8201601f1916810167ffffffffffffffff81118282101715611da257611da2611d65565b604052919050565b5f82601f830112611db9575f80fd5b813567ffffffffffffffff811115611dd357611dd3611d65565b611de6601f8201601f1916602001611d79565b818152846020838601011115611dfa575f80fd5b816020850160208301375f918101602001919091529392505050565b5f8060408385031215611e27575f80fd5b82359150602083013567ffffffffffffffff811115611e44575f80fd5b611e5085828601611daa565b9150509250929050565b5f805f60408486031215611e6c575f80fd5b833567ffffffffffffffff80821115611e83575f80fd5b9085019060808288031215611e96575f80fd5b90935060208501359080821115611eab575f80fd5b818601915086601f830112611ebe575f80fd5b813581811115611ecc575f80fd5b876020828501011115611edd575f80fd5b6020830194508093505050509250925092565b5f5b83811015611f0a578181015183820152602001611ef2565b50505f910152565b5f8151808452611f29816020860160208601611ef0565b601f01601f19169290920160200192915050565b602081525f6107a96020830184611f12565b5f60208284031215611f5f575f80fd5b5035919050565b6001600160a01b03811681146107ea575f80fd5b5f8060408385031215611f8b575f80fd5b823591506020830135611f9d81611f66565b809150509250929050565b5f60208284031215611fb8575f80fd5b81356107a981611f66565b5f8060408385031215611fd4575f80fd5b8235611fdf81611f66565b946020939093013593505050565b5f8060408385031215611ffe575f80fd5b823561200981611f66565b91506020830135611f9d81611f66565b5f602080838503121561202a575f80fd5b823567ffffffffffffffff80821115612041575f80fd5b818501915085601f830112612054575f80fd5b81358181111561206657612066611d65565b8060051b9150612077848301611d79565b8181529183018401918481019088841115612090575f80fd5b938501935b83851015611aa557843592506120aa83611f66565b8282529385019390850190612095565b5f80604083850312156120cb575f80fd5b82356120d681611f66565b915060208301358015158114611f9d575f80fd5b5f8083601f8401126120fa575f80fd5b50813567ffffffffffffffff811115612111575f80fd5b6020830191508360208260051b8501011115611641575f80fd5b5f805f805f805f8060a0898b031215612142575f80fd5b883561214d81611f66565b9750602089013567ffffffffffffffff80821115612169575f80fd5b6121758c838d016120ea565b909950975060408b013591508082111561218d575f80fd5b6121998c838d016120ea565b909750955060608b01359150808211156121b1575f80fd5b6121bd8c838d016120ea565b909550935060808b0135915080821682146121d6575f80fd5b50809150509295985092959890939650565b5f808335601e198436030181126121fd575f80fd5b83018035915067ffffffffffffffff821115612217575f80fd5b602001915036819003821315611641575f80fd5b6020808252818101527f4d696e746572526f6c653a2043414c4c45525f49535f4e4f545f4d494e544552604082015260600190565b634e487b7160e01b5f52603260045260245ffd5b5f60808236031215612284575f80fd5b6040516080810167ffffffffffffffff82821081831117156122a8576122a8611d65565b81604052843591506122b982611f66565b818352602085013560208401526040850135604084015260608501359150808211156122e3575f80fd5b506122f036828601611daa565b60608301525092915050565b81835281816020850137505f828201602090810191909152601f909101601f19169091010190565b5f838385526020808601955060208560051b830101845f5b878110156123a957848303601f19018952813536889003601e19018112612361575f80fd5b8701848101903567ffffffffffffffff81111561237c575f80fd5b80360382131561238a575f80fd5b6123958582846122fc565b9a86019a945050509083019060010161233c565b5090979650505050505050565b602081525f610e1a602083018486612324565b5f602082840312156123d9575f80fd5b5051919050565b6001600160a01b038a16815260c0602082018190525f906124049083018a8c612324565b828103604084015261241781898b612324565b9050828103606084015261242c818789612324565b67ffffffffffffffff959095166080840152505090151560a090910152979650505050505050565b5f8251612465818460208701611ef0565b9190910192915050565b634e487b7160e01b5f52601160045260245ffd5b5f8261249d57634e487b7160e01b5f52601260045260245ffd5b500490565b634e487b7160e01b5f52600160045260245ffd5b6020808252602b908201527f496e697469616c697a61626c653a20636f6e7472616374206973206e6f74206960408201526a6e697469616c697a696e6760a81b606082015260800190565b634e487b7160e01b5f52602160045260245ffd5b808201808211156106a4576106a461246f565b5f8451612539818460208901611ef0565b60609490941b6bffffffffffffffffffffffff191691909301908152601481019190915260340192915050565b7f416363657373436f6e74726f6c3a206163636f756e742000000000000000000081525f835161259d816017850160208801611ef0565b7001034b99036b4b9b9b4b733903937b6329607d1b60179184019182015283516125ce816028840160208801611ef0565b01602801949350505050565b828152604060208201525f610e1a6040830184611f12565b80820281158282048414176106a4576106a461246f565b5f816126175761261761246f565b505f19019056fe9f2df0fed2c77648de5860a4cc508cd0818c85b8b8a1ab4ceeef8d981c8956a6a164736f6c6343000818000a",
  "linkReferences": {},
  "deployedLinkReferences": {}
}