{
  "_format": "hh-sol-artifact-1",
  "contractName": "RelayMock",
  "sourceName": "contracts/mocks/RelayMock.sol",
  "abi": [
    {
      "inputs": [],
      "name": "get",
      "outputs": [
        {
          "internalType": "uint256",
          "name": "",
          "type": "uint256"
        }
      ],
      "stateMutability": "view",
      "type": "function"
    },
    {
      "inputs": [
        {
          "internalType": "uint256",
          "name": "key",
          "type": "uint256"
        }
      ],
      "name": "getString",
      "outputs": [
        {
          "internalType": "string",
          "name": "",
          "type": "string"
        }
      ],
      "stateMutability": "view",
      "type": "function"
    },
    {
      "inputs": [
        {
          "internalType": "uint256",
          "name": "key",
          "type": "uint256"
        }
      ],
      "name": "getUint",
      "outputs": [
        {
          "internalType": "uint256",
          "name": "",
          "type": "uint256"
        }
      ],
      "stateMutability": "view",
      "type": "function"
    },
    {
      "inputs": [
        {
          "internalType": "bytes",
          "name": "data",
          "type": "bytes"
        },
        {
          "internalType": "bytes",
          "name": "signature",
          "type": "bytes"
        }
      ],
      "name": "relay",
      "outputs": [
        {
          "internalType": "bytes",
          "name": "",
          "type": "bytes"
        }
      ],
      "stateMutability": "nonpayable",
      "type": "function"
    },
    {
      "inputs": [
        {
          "internalType": "uint256",
          "name": "value",
          "type": "uint256"
        }
      ],
      "name": "set",
      "outputs": [],
      "stateMutability": "nonpayable",
      "type": "function"
    },
    {
      "inputs": [
        {
          "internalType": "uint256",
          "name": "key",
          "type": "uint256"
        },
        {
          "internalType": "string",
          "name": "value",
          "type": "string"
        }
      ],
      "name": "setString",
      "outputs": [],
      "stateMutability": "nonpayable",
      "type": "function"
    },
    {
      "inputs": [
        {
          "internalType": "uint256",
          "name": "key",
          "type": "uint256"
        },
        {
          "internalType": "uint256",
          "name": "value",
          "type": "uint256"
        }
      ],
      "name": "setUint",
      "outputs": [],
      "stateMutability": "nonpayable",
      "type": "function"
    }
  ],
  "bytecode": "0x608060405234801561001057600080fd5b50610afa806100206000396000f3fe608060405234801561001057600080fd5b506004361061007d5760003560e01c806361e3c9441161005b57806361e3c944146100d35780636d4ce63c146100e6578063a9c70eaa146100fb578063b7c763b51461010e5761007d565b80634717fd9214610082578063564a51581461009757806360fe47b1146100c0575b600080fd5b6100956100903660046107a1565b610121565b005b6100aa6100a5366004610720565b610170565b6040516100b791906108d6565b60405180910390f35b6100956100ce366004610789565b610292565b6100956100e13660046107eb565b610297565b6100ee6102d0565b6040516100b79190610a80565b6100ee610109366004610789565b6102d6565b6100aa61011c366004610789565b6102f5565b8261012b57600080fd5b806101515760405162461bcd60e51b815260040161014890610995565b60405180910390fd5b600083815260208190526040902061016a908383610640565b50505050565b60606101c98585604051610185929190610877565b604051809103902084848080601f01602080910402602001604051908101604052809392919081815260200183838082843760009201919091525061039f92505050565b600085858080601f01602080910402602001604051908101604052809392919081815260200183838082843760009201919091525092935061021092508391506104099050565b600080306001600160a01b0316888860405161022d929190610877565b6000604051808303816000865af19150503d806000811461026a576040519150601f19603f3d011682016040523d82523d6000602084013e61026f565b606091505b50909250905081610287576040513d806000833e8082fd5b979650505050505050565b600255565b816102a157600080fd5b806102be5760405162461bcd60e51b815260040161014890610995565b60009182526001602052604090912055565b60025490565b6000816102e257600080fd5b5060009081526001602052604090205490565b60608161030157600080fd5b6000828152602081905260409020805461031a90610a89565b80601f016020809104026020016040519081016040528092919081815260200182805461034690610a89565b80156103935780601f1061036857610100808354040283529160200191610393565b820191906000526020600020905b81548152906001019060200180831161037657829003601f168201915b50505050509050919050565b60006103dc826103d685306040516020016103bb929190610857565b60405160208183030381529060405280519060200120610494565b906104c4565b90506001600160a01b0381166104045760405162461bcd60e51b81526004016101489061095e565b505050565b6020810151600063b7c763b560e01b6001600160e01b03198316148061043f575063238bfec960e11b6001600160e01b03198316145b8061045a57506354e3875560e11b6001600160e01b03198316145b806104755750631878f25160e21b6001600160e01b03198316145b9050806104045760405162461bcd60e51b815260040161014890610a49565b6000816040516020016104a79190610887565b604051602081830303815290604052805190602001209050919050565b6000806000808451604114156104ee5750505060208201516040830151606084015160001a610534565b84516040141561051c5750505060408201516020830151906001600160ff1b0381169060ff1c601b01610534565b60405162461bcd60e51b815260040161014890610927565b6105408682858561054a565b9695505050505050565b60007f7fffffffffffffffffffffffffffffff5d576e7357a4501ddfe92f46681b20a082111561058c5760405162461bcd60e51b8152600401610148906109c5565b8360ff16601b14806105a157508360ff16601c145b6105bd5760405162461bcd60e51b815260040161014890610a07565b6000600186868686604051600081526020016040526040516105e294939291906108b8565b6020604051602081039080840390855afa158015610604573d6000803e3d6000fd5b5050604051601f1901519150506001600160a01b0381166106375760405162461bcd60e51b8152600401610148906108f0565b95945050505050565b82805461064c90610a89565b90600052602060002090601f01602090048101928261066e57600085556106b4565b82601f106106875782800160ff198235161785556106b4565b828001600101855582156106b4579182015b828111156106b4578235825591602001919060010190610699565b506106c09291506106c4565b5090565b5b808211156106c057600081556001016106c5565b60008083601f8401126106ea578182fd5b50813567ffffffffffffffff811115610701578182fd5b60208301915083602082850101111561071957600080fd5b9250929050565b60008060008060408587031215610735578384fd5b843567ffffffffffffffff8082111561074c578586fd5b610758888389016106d9565b90965094506020870135915080821115610770578384fd5b5061077d878288016106d9565b95989497509550505050565b60006020828403121561079a578081fd5b5035919050565b6000806000604084860312156107b5578283fd5b83359250602084013567ffffffffffffffff8111156107d2578283fd5b6107de868287016106d9565b9497909650939450505050565b600080604083850312156107fd578182fd5b50508035926020909101359150565b60008151808452815b8181101561083157602081850181015186830182015201610815565b818111156108425782602083870101525b50601f01601f19169290920160200192915050565b91825260601b6bffffffffffffffffffffffff1916602082015260340190565b6000828483379101908152919050565b7f19457468657265756d205369676e6564204d6573736167653a0a3332000000008152601c810191909152603c0190565b93845260ff9290921660208401526040830152606082015260800190565b6000602082526108e9602083018461080c565b9392505050565b60208082526018908201527f45434453413a20696e76616c6964207369676e61747572650000000000000000604082015260600190565b6020808252601f908201527f45434453413a20696e76616c6964207369676e6174757265206c656e67746800604082015260600190565b6020808252601f908201527f52656c6179546573743a205349474e41545552455f49535f494e56414c494400604082015260600190565b60208082526016908201527552656c61794d6f636b3a2056414c55455f454d50545960501b604082015260600190565b60208082526022908201527f45434453413a20696e76616c6964207369676e6174757265202773272076616c604082015261756560f01b606082015260800190565b60208082526022908201527f45434453413a20696e76616c6964207369676e6174757265202776272076616c604082015261756560f01b606082015260800190565b6020808252601b908201527f52656c6179546573743a20554e535550504f525445445f43414c4c0000000000604082015260600190565b90815260200190565b600281046001821680610a9d57607f821691505b60208210811415610abe57634e487b7160e01b600052602260045260246000fd5b5091905056fea2646970667358221220e30c03091ae446b6dad658dd853387d8a209c6ed0c508bacfa2e66536b49806264736f6c63430008000033",
  "linkReferences": {},
  "deployedLinkReferences": {}
}