{
  "_format": "hh-sol-artifact-1",
  "contractName": "ResolverForwarder",
  "sourceName": "contracts/metatx/ResolverForwarder.sol",
  "abi": [
    {
      "inputs": [
        {
          "components": [
            {
              "internalType": "address",
              "name": "from",
              "type": "address"
            },
            {
              "internalType": "uint256",
              "name": "nonce",
              "type": "uint256"
            },
            {
              "internalType": "uint256",
              "name": "tokenId",
              "type": "uint256"
            },
            {
              "internalType": "bytes",
              "name": "data",
              "type": "bytes"
            }
          ],
          "internalType": "struct IForwarder.ForwardRequest",
          "name": "req",
          "type": "tuple"
        },
        {
          "internalType": "bytes",
          "name": "signature",
          "type": "bytes"
        }
      ],
      "name": "execute",
      "outputs": [
        {
          "internalType": "bytes",
          "name": "",
          "type": "bytes"
        }
      ],
      "stateMutability": "nonpayable",
      "type": "function"
    },
    {
      "inputs": [
        {
          "internalType": "contract ICNSRegistry",
          "name": "cnsRegistry",
          "type": "address"
        }
      ],
      "name": "initialize",
      "outputs": [],
      "stateMutability": "nonpayable",
      "type": "function"
    },
    {
      "inputs": [
        {
          "internalType": "uint256",
          "name": "tokenId",
          "type": "uint256"
        }
      ],
      "name": "nonceOf",
      "outputs": [
        {
          "internalType": "uint256",
          "name": "",
          "type": "uint256"
        }
      ],
      "stateMutability": "view",
      "type": "function"
    },
    {
      "inputs": [
        {
          "components": [
            {
              "internalType": "address",
              "name": "from",
              "type": "address"
            },
            {
              "internalType": "uint256",
              "name": "nonce",
              "type": "uint256"
            },
            {
              "internalType": "uint256",
              "name": "tokenId",
              "type": "uint256"
            },
            {
              "internalType": "bytes",
              "name": "data",
              "type": "bytes"
            }
          ],
          "internalType": "struct IForwarder.ForwardRequest",
          "name": "req",
          "type": "tuple"
        },
        {
          "internalType": "bytes",
          "name": "signature",
          "type": "bytes"
        }
      ],
      "name": "verify",
      "outputs": [
        {
          "internalType": "bool",
          "name": "",
          "type": "bool"
        }
      ],
      "stateMutability": "view",
      "type": "function"
    }
  ],
  "bytecode": "0x608060405234801561001057600080fd5b506111db806100206000396000f3fe608060405234801561001057600080fd5b506004361061004c5760003560e01c80631bf7e13e146100515780636ccbae5f1461007a578063a42474001461009a578063c4d66de8146100ba575b600080fd5b61006461005f366004610b79565b6100cf565b6040516100719190610d61565b60405180910390f35b61008d610088366004610c11565b6101fe565b6040516100719190610ef7565b6100ad6100a8366004610b79565b610302565b6040516100719190610d38565b6100cd6100c8366004610b41565b6103df565b005b606060005a6002546040805163b3f9e4cb60e01b81529293506000926001600160a01b039092169163b3f9e4cb9161010e91908a013590600401610ef7565b60206040518083038186803b15801561012657600080fd5b505afa15801561013a573d6000803e3d6000fd5b505050506040513d601f19601f8201168201806040525081019061015e9190610b5d565b90506101f26101706020880188610b41565b8260408901358561018460608c018c610f00565b8080601f01602080910402602001604051908101604052809392919081815260200183838082843760009201919091525050604080516020601f8f018190048102820181019092528d815292508d91508c90819084018382808284376000920191909152506105af92505050565b925050505b9392505050565b60025460405163b3f9e4cb60e01b815260009182916001600160a01b039091169063b3f9e4cb90610233908690600401610ef7565b60206040518083038186803b15801561024b57600080fd5b505afa15801561025f573d6000803e3d6000fd5b505050506040513d601f19601f820116820180604052508101906102839190610b5d565b604051636ccbae5f60e01b81529091506001600160a01b03821690636ccbae5f906102b2908690600401610ef7565b60206040518083038186803b1580156102ca57600080fd5b505afa1580156102de573d6000803e3d6000fd5b505050506040513d601f19601f820116820180604052508101906101f79190610c29565b6002546040805163b3f9e4cb60e01b815260009283926001600160a01b039091169163b3f9e4cb9161033b919089013590600401610ef7565b60206040518083038186803b15801561035357600080fd5b505afa158015610367573d6000803e3d6000fd5b505050506040513d601f19601f8201168201806040525081019061038b9190610b5d565b90506103d661039986610fa1565b8286868080601f01602080910402602001604051908101604052809392919081815260200183838082843760009201919091525061069e92505050565b95945050505050565b600054610100900460ff16806103f8575060005460ff16155b61041d5760405162461bcd60e51b815260040161041490610e67565b60405180910390fd5b600054610100900460ff16158015610448576000805460ff1961ff0019909116610100171660011790555b600280546001600160a01b0319166001600160a01b038416178155604080518082018252600e81526d72657365742875696e743235362960901b6020808301919091528251808401909352601783527f7265736574466f722875696e743235362c627974657329000000000000000000908301526104c8929091906106c7565b6105216040518060400160405280601a81526020017f73657428737472696e672c737472696e672c75696e743235362900000000000081525060405180606001604052806023815260200161113b6023913960046106c7565b61055d60405180606001604052806022815260200161115e602291396040518060600160405280602b81526020016110e1602b913960046106c7565b610599604051806060016040528060268152602001611180602691396040518060600160405280602f815260200161110c602f913960046106c7565b80156105ab576000805461ff00191690555b5050565b60606105ba85610756565b600080876001600160a01b0316866105d48b8a8989610759565b6040516105e19190610ceb565b60006040518083038160008787f1925050503d806000811461061f576040519150601f19603f3d011682016040523d82523d6000602084013e610624565b606091505b509092509050610635603f87610f4c565b5a1161065157634e487b7160e01b600052600160045260246000fd5b61069182826040518060400160405280601a81526020017f42617365466f727761726465723a2043414c4c5f4641494c45440000000000008152506107da565b9998505050505050505050565b60006106ab848484610813565b80156106bf57506106bf84606001516108d5565b949350505050565b604051806040016040528083805190602001206001600160e01b03191681526020018260206106f69190610f6c565b60ff90811690915284516020958601206001600160e01b031916600090815260018652604090208251815493909601519091166401000000000264ff000000001960e09690961c63ffffffff199093169290921794909416179092555050565b50565b60606000610766846108f5565b80519091506001600160e01b0319166107915760405162461bcd60e51b815260040161041490610e24565b83516003190160048501908152815160208084015186516040516107bf9493869360ff1692918a9101610c95565b60405160208183030381529060405292505050949350505050565b606083156107e95750816101f7565b8251156107f95782518084602001fd5b8160405162461bcd60e51b81526004016104149190610d61565b6040808401519051636ccbae5f60e01b815260009182913091636ccbae5f9161083f9190600401610ef7565b60206040518083038186803b15801561085757600080fd5b505afa15801561086b573d6000803e3d6000fd5b505050506040513d601f19601f8201168201806040525081019061088f9190610c29565b905060006108aa866060015180519060200120868487610948565b90508560200151821480156101f2575085516001600160a01b03828116911614925050509392505050565b6000806108e1836108f5565b516001600160e01b03191615159392505050565b6108fd610b2a565b506020908101516001600160e01b031990811660009081526001835260409081902081518083019092525460e081901b909216815264010000000090910460ff169181019190915290565b60006103d68261098187878760405160200161096693929190610c6d565b60405160208183030381529060405280519060200120610987565b906109b7565b60008160405160200161099a9190610d07565b604051602081830303815290604052805190602001209050919050565b6000806000808451604114156109e15750505060208201516040830151606084015160001a610a27565b845160401415610a0f5750505060408201516020830151906001600160ff1b0381169060ff1c601b01610a27565b60405162461bcd60e51b815260040161041490610dab565b610a3386828585610a3d565b9695505050505050565b60007f7fffffffffffffffffffffffffffffff5d576e7357a4501ddfe92f46681b20a0821115610a7f5760405162461bcd60e51b815260040161041490610de2565b8360ff16601b1480610a9457508360ff16601c145b610ab05760405162461bcd60e51b815260040161041490610eb5565b600060018686868660405160008152602001604052604051610ad59493929190610d43565b6020604051602081039080840390855afa158015610af7573d6000803e3d6000fd5b5050604051601f1901519150506001600160a01b0381166103d65760405162461bcd60e51b815260040161041490610d74565b604080518082019091526000808252602082015290565b600060208284031215610b52578081fd5b81356101f7816110cb565b600060208284031215610b6e578081fd5b81516101f7816110cb565b600080600060408486031215610b8d578182fd5b833567ffffffffffffffff80821115610ba4578384fd5b9085019060808288031215610bb7578384fd5b90935060208501359080821115610bcc578384fd5b818601915086601f830112610bdf578384fd5b813581811115610bed578485fd5b876020828501011115610bfe578485fd5b6020830194508093505050509250925092565b600060208284031215610c22578081fd5b5035919050565b600060208284031215610c3a578081fd5b5051919050565b60008151808452610c59816020860160208601611085565b601f01601f19169290920160200192915050565b92835260609190911b6bffffffffffffffffffffffff19166020830152603482015260540190565b6001600160e01b0319861681528451600090610cb8816004850160208a01611085565b80830190508560048201528460248201528351610cdc816044840160208801611085565b01604401979650505050505050565b60008251610cfd818460208701611085565b9190910192915050565b7f19457468657265756d205369676e6564204d6573736167653a0a3332000000008152601c810191909152603c0190565b901515815260200190565b93845260ff9290921660208401526040830152606082015260800190565b6000602082526101f76020830184610c41565b60208082526018908201527f45434453413a20696e76616c6964207369676e61747572650000000000000000604082015260600190565b6020808252601f908201527f45434453413a20696e76616c6964207369676e6174757265206c656e67746800604082015260600190565b60208082526022908201527f45434453413a20696e76616c6964207369676e6174757265202773272076616c604082015261756560f01b606082015260800190565b60208082526023908201527f42617365526f7574696e67466f727761726465723a20524f5554455f554e4b4e60408201526227aba760e91b606082015260800190565b6020808252602e908201527f496e697469616c697a61626c653a20636f6e747261637420697320616c72656160408201526d191e481a5b9a5d1a585b1a5e995960921b606082015260800190565b60208082526022908201527f45434453413a20696e76616c6964207369676e6174757265202776272076616c604082015261756560f01b606082015260800190565b90815260200190565b6000808335601e19843603018112610f16578283fd5b83018035915067ffffffffffffffff821115610f30578283fd5b602001915036819003821315610f4557600080fd5b9250929050565b600082610f6757634e487b7160e01b81526012600452602481fd5b500490565b600060ff821660ff84168160ff0481118215151615610f9957634e487b7160e01b83526011600452602483fd5b029392505050565b600060808236031215610fb2578081fd5b604080516080810167ffffffffffffffff8282108183111715610fd757610fd76110b5565b908352843590610fe6826110cb565b9082526020858101358184015283860135848401529060608601358181111561100d578586fd5b860136601f82011261101d578586fd5b80358281111561102f5761102f6110b5565b8551601f8201601f1916810185018481118282101715611051576110516110b5565b87528181523683830186011115611066578788fd5b8185840186830137908101909301959095525060608201529392505050565b60005b838110156110a0578181015183820152602001611088565b838111156110af576000848401525b50505050565b634e487b7160e01b600052604160045260246000fd5b6001600160a01b038116811461075657600080fdfe7365744d616e79466f7228737472696e675b5d2c737472696e675b5d2c75696e743235362c6279746573297265636f6e666967757265466f7228737472696e675b5d2c737472696e675b5d2c75696e743235362c627974657329736574466f7228737472696e672c737472696e672c75696e743235362c6279746573297365744d616e7928737472696e675b5d2c737472696e675b5d2c75696e74323536297265636f6e66696775726528737472696e675b5d2c737472696e675b5d2c75696e7432353629a2646970667358221220fcd609a9601b52cacc162b2467c22f27b5d9cea930f56ca1a3bf3c8dfb562c8364736f6c63430008000033",
  "linkReferences": {},
  "deployedLinkReferences": {}
}