{
  "_format": "hh-sol-artifact-1",
  "contractName": "ReverseResolver",
  "sourceName": "contracts/ReverseResolver.sol",
  "abi": [
    {
      "inputs": [],
      "name": "NAME",
      "outputs": [
        {
          "internalType": "string",
          "name": "",
          "type": "string"
        }
      ],
      "stateMutability": "view",
      "type": "function"
    },
    {
      "inputs": [],
      "name": "VERSION",
      "outputs": [
        {
          "internalType": "string",
          "name": "",
          "type": "string"
        }
      ],
      "stateMutability": "view",
      "type": "function"
    },
    {
      "inputs": [
        {
          "internalType": "contract IUNSRegistry",
          "name": "unsRegistry",
          "type": "address"
        },
        {
          "internalType": "contract ICNSRegistry",
          "name": "cnsRegistry",
          "type": "address"
        }
      ],
      "name": "initialize",
      "outputs": [],
      "stateMutability": "nonpayable",
      "type": "function"
    },
    {
      "inputs": [
        {
          "internalType": "uint256",
          "name": "tokenId",
          "type": "uint256"
        }
      ],
      "name": "register",
      "outputs": [],
      "stateMutability": "nonpayable",
      "type": "function"
    },
    {
      "inputs": [],
      "name": "remove",
      "outputs": [],
      "stateMutability": "nonpayable",
      "type": "function"
    },
    {
      "inputs": [
        {
          "internalType": "address",
          "name": "account",
          "type": "address"
        }
      ],
      "name": "reverseOf",
      "outputs": [
        {
          "internalType": "uint256",
          "name": "",
          "type": "uint256"
        }
      ],
      "stateMutability": "view",
      "type": "function"
    }
  ],
  "bytecode": "0x608060405234801561001057600080fd5b50610732806100206000396000f3fe608060405234801561001057600080fd5b50600436106100625760003560e01c8063485cc955146100675780637e37479e1461007c578063a3f4df7e146100a5578063a7f43779146100ba578063f207564e146100c2578063ffa1ad74146100d5575b600080fd5b61007a61007536600461049c565b6100dd565b005b61008f61008a366004610459565b61018d565b60405161009c91906106db565b60405180910390f35b6100ad6101ef565b60405161009c9190610505565b61007a610220565b61007a6100d03660046104d4565b61027e565b6100ad6102ca565b600054610100900460ff16806100f6575060005460ff16155b61011b5760405162461bcd60e51b8152600401610112906105a4565b60405180910390fd5b600054610100900460ff16158015610146576000805460ff1961ff0019909116610100171660011790555b603480546001600160a01b038086166001600160a01b03199283161790925560358054928516929091169190911790558015610188576000805461ff00191690555b505050565b6001600160a01b038116600090815260336020526040812054806101c35760405162461bcd60e51b815260040161011290610693565b6101cd83826102eb565b6101e95760405162461bcd60e51b8152600401610112906105f2565b92915050565b604051806040016040528060158152602001742aa7299d102932bb32b939b2902932b9b7b63b32b960591b81525081565b600061022a610455565b6001600160a01b038116600090815260336020526040902054909150806102635760405162461bcd60e51b815260040161011290610693565b506001600160a01b0316600090815260336020526040812055565b6000610288610455565b905061029481836102eb565b6102b05760405162461bcd60e51b815260040161011290610643565b6001600160a01b0316600090815260336020526040902055565b604051806040016040528060058152602001640302e312e360dc1b81525081565b603454604051634f558e7960e01b81526000916001600160a01b031690634f558e799061031c9085906004016106db565b60206040518083038186803b15801561033457600080fd5b505afa158015610348573d6000803e3d6000fd5b505050506040513d601f19601f8201168201806040525081019061036c919061047c565b156103fa5760345460405163430c208160e01b81526001600160a01b039091169063430c2081906103a390869086906004016104ec565b60206040518083038186803b1580156103bb57600080fd5b505afa1580156103cf573d6000803e3d6000fd5b505050506040513d601f19601f820116820180604052508101906103f3919061047c565b90506101e9565b6035546001600160a01b03161561043d5760355460405163430c208160e01b81526001600160a01b039091169063430c2081906103a390869086906004016104ec565b60405162461bcd60e51b815260040161011290610558565b3390565b60006020828403121561046a578081fd5b8135610475816106e4565b9392505050565b60006020828403121561048d578081fd5b81518015158114610475578182fd5b600080604083850312156104ae578081fd5b82356104b9816106e4565b915060208301356104c9816106e4565b809150509250929050565b6000602082840312156104e5578081fd5b5035919050565b6001600160a01b03929092168252602082015260400190565b6000602080835283518082850152825b8181101561053157858101830151858201604001528201610515565b818111156105425783604083870101525b50601f01601f1916929092016040019392505050565b6020808252602c908201527f4552433732313a206f70657261746f7220717565727920666f72206e6f6e657860408201526b34b9ba32b73a103a37b5b2b760a11b606082015260800190565b6020808252602e908201527f496e697469616c697a61626c653a20636f6e747261637420697320616c72656160408201526d191e481a5b9a5d1a585b1a5e995960921b606082015260800190565b60208082526031908201527f526576657273655265736f6c7665723a204143434f554e545f49535f4e4f545f60408201527020a8282927ab22a22fa7a92fa7aba722a960791b606082015260800190565b60208082526030908201527f526576657273655265736f6c7665723a2053454e4445525f49535f4e4f545f4160408201526f28282927ab22a22fa7a92fa7aba722a960811b606082015260800190565b60208082526028908201527f526576657273655265736f6c7665723a20524556455253455f5245434f52445f60408201526749535f454d50545960c01b606082015260800190565b90815260200190565b6001600160a01b03811681146106f957600080fd5b5056fea2646970667358221220ec430079fdc0ec5cb9bb057767b36566cb409083284532fe4beb0ebf29fd6bec64736f6c63430008000033",
  "linkReferences": {},
  "deployedLinkReferences": {}
}