{
  "_format": "hh-sol-artifact-1",
  "contractName": "ReverseResolver",
  "sourceName": "contracts/ReverseResolver.sol",
  "abi": [
    {
      "inputs": [],
      "name": "NAME",
      "outputs": [
        {
          "internalType": "string",
          "name": "",
          "type": "string"
        }
      ],
      "stateMutability": "view",
      "type": "function"
    },
    {
      "inputs": [],
      "name": "VERSION",
      "outputs": [
        {
          "internalType": "string",
          "name": "",
          "type": "string"
        }
      ],
      "stateMutability": "view",
      "type": "function"
    },
    {
      "inputs": [
        {
          "internalType": "contract IUNSRegistry",
          "name": "unsRegistry",
          "type": "address"
        }
      ],
      "name": "initialize",
      "outputs": [],
      "stateMutability": "nonpayable",
      "type": "function"
    },
    {
      "inputs": [
        {
          "internalType": "uint256",
          "name": "tokenId",
          "type": "uint256"
        }
      ],
      "name": "registerReverse",
      "outputs": [],
      "stateMutability": "nonpayable",
      "type": "function"
    },
    {
      "inputs": [],
      "name": "removeReverse",
      "outputs": [],
      "stateMutability": "nonpayable",
      "type": "function"
    },
    {
      "inputs": [
        {
          "internalType": "address",
          "name": "account",
          "type": "address"
        }
      ],
      "name": "reverseOf",
      "outputs": [
        {
          "internalType": "uint256",
          "name": "",
          "type": "uint256"
        }
      ],
      "stateMutability": "view",
      "type": "function"
    }
  ],
  "bytecode": "0x608060405234801561001057600080fd5b506106b9806100206000396000f3fe608060405234801561001057600080fd5b50600436106100625760003560e01c80637e37479e14610067578063a3f4df7e14610090578063a6367fd4146100a5578063c4d66de8146100ba578063f25eb5c1146100cd578063ffa1ad74146100d5575b600080fd5b61007a61007536600461042b565b6100dd565b6040516100879190610662565b60405180910390f35b610098610148565b60405161008791906104bc565b6100b86100b336600461048a565b610179565b005b6100b86100c836600461042b565b6101c5565b6100b8610256565b6100986102da565b6001600160a01b0381166000908152603360205260408120548061011c5760405162461bcd60e51b81526004016101139061056c565b60405180910390fd5b61012683826102fb565b6101425760405162461bcd60e51b815260040161011390610605565b92915050565b604051806040016040528060158152602001742aa7299d102932bb32b939b2902932b9b7b63b32b960591b81525081565b6000610183610427565b905061018f81836102fb565b6101ab5760405162461bcd60e51b81526004016101139061050f565b6001600160a01b0316600090815260336020526040902055565b600054610100900460ff16806101de575060005460ff16155b6101fa5760405162461bcd60e51b8152600401610113906105b7565b600054610100900460ff16158015610225576000805460ff1961ff0019909116610100171660011790555b603480546001600160a01b0319166001600160a01b0384161790558015610252576000805461ff00191690555b5050565b6000610260610427565b6001600160a01b038116600090815260336020526040902054909150806102995760405162461bcd60e51b81526004016101139061056c565b6102a382826102fb565b6102bf5760405162461bcd60e51b81526004016101139061050f565b506001600160a01b0316600090815260336020526040812055565b604051806040016040528060058152602001640302e312e360dc1b81525081565b6034546040516331a9108f60e11b815260009182916001600160a01b0390911690636352211e90610330908690600401610662565b60206040518083038186803b15801561034857600080fd5b505afa15801561035c573d6000803e3d6000fd5b505050506040513d601f19601f82011682018060405250810190610380919061044e565b9050836001600160a01b0316816001600160a01b0316148061041f575060345460405163e985e9c560e01b81526001600160a01b039091169063e985e9c5906103cf90849088906004016104a2565b60206040518083038186803b1580156103e757600080fd5b505afa1580156103fb573d6000803e3d6000fd5b505050506040513d601f19601f8201168201806040525081019061041f919061046a565b949350505050565b3390565b60006020828403121561043c578081fd5b81356104478161066b565b9392505050565b60006020828403121561045f578081fd5b81516104478161066b565b60006020828403121561047b578081fd5b81518015158114610447578182fd5b60006020828403121561049b578081fd5b5035919050565b6001600160a01b0392831681529116602082015260400190565b6000602080835283518082850152825b818110156104e8578581018301518582016040015282016104cc565b818111156104f95783604083870101525b50601f01601f1916929092016040019392505050565b60208082526039908201527f52657665727365205265736f6c7665723a2053454e4445525f49535f4e4f545f60408201527f415050524f5645445f464f525f414c4c5f4f525f4f574e455200000000000000606082015260800190565b6020808252602b908201527f52657665727365205265736f6c7665723a20524556455253455f5245434f524460408201526a17d254d7d393d517d4d15560aa1b606082015260800190565b6020808252602e908201527f496e697469616c697a61626c653a20636f6e747261637420697320616c72656160408201526d191e481a5b9a5d1a585b1a5e995960921b606082015260800190565b6020808252603a908201527f52657665727365205265736f6c7665723a204143434f554e545f49535f4e4f5460408201527f5f415050524f5645445f464f525f414c4c5f4f525f4f574e4552000000000000606082015260800190565b90815260200190565b6001600160a01b038116811461068057600080fd5b5056fea264697066735822122048fe1fafbf1197036f7e5a81cc4a2543baf93857ca817f109500c6960294a13364736f6c63430008000033",
  "linkReferences": {},
  "deployedLinkReferences": {}
}