{
  "_format": "hh-sol-artifact-1",
  "contractName": "ReverseResolver",
  "sourceName": "contracts/ReverseResolver.sol",
  "abi": [
    {
      "inputs": [],
      "name": "NAME",
      "outputs": [
        {
          "internalType": "string",
          "name": "",
          "type": "string"
        }
      ],
      "stateMutability": "view",
      "type": "function"
    },
    {
      "inputs": [],
      "name": "VERSION",
      "outputs": [
        {
          "internalType": "string",
          "name": "",
          "type": "string"
        }
      ],
      "stateMutability": "view",
      "type": "function"
    },
    {
      "inputs": [
        {
          "internalType": "contract IUNSRegistry",
          "name": "unsRegistry",
          "type": "address"
        }
      ],
      "name": "initialize",
      "outputs": [],
      "stateMutability": "nonpayable",
      "type": "function"
    },
    {
      "inputs": [
        {
          "internalType": "uint256",
          "name": "tokenId",
          "type": "uint256"
        }
      ],
      "name": "register",
      "outputs": [],
      "stateMutability": "nonpayable",
      "type": "function"
    },
    {
      "inputs": [],
      "name": "remove",
      "outputs": [],
      "stateMutability": "nonpayable",
      "type": "function"
    },
    {
      "inputs": [
        {
          "internalType": "address",
          "name": "account",
          "type": "address"
        }
      ],
      "name": "reverseOf",
      "outputs": [
        {
          "internalType": "uint256",
          "name": "",
          "type": "uint256"
        }
      ],
      "stateMutability": "view",
      "type": "function"
    }
  ],
  "bytecode": "0x608060405234801561001057600080fd5b5061061d806100206000396000f3fe608060405234801561001057600080fd5b50600436106100625760003560e01c80637e37479e14610067578063a3f4df7e14610090578063a7f43779146100a5578063c4d66de8146100af578063f207564e146100c2578063ffa1ad74146100d5575b600080fd5b61007a6100753660046103c8565b6100dd565b60405161008791906105c6565b60405180910390f35b6100986101c0565b604051610087919061043c565b6100ad6101f1565b005b6100ad6100bd3660046103c8565b61024f565b6100ad6100d036600461040b565b6102e0565b6100986103a3565b6001600160a01b0381166000908152603360205260408120548061011c5760405162461bcd60e51b81526004016101139061057e565b60405180910390fd5b60345460405163430c208160e01b81526001600160a01b039091169063430c20819061014e9086908590600401610423565b60206040518083038186803b15801561016657600080fd5b505afa15801561017a573d6000803e3d6000fd5b505050506040513d601f19601f8201168201806040525081019061019e91906103eb565b6101ba5760405162461bcd60e51b8152600401610113906104dd565b92915050565b604051806040016040528060158152602001742aa7299d102932bb32b939b2902932b9b7b63b32b960591b81525081565b60006101fb6103c4565b6001600160a01b038116600090815260336020526040902054909150806102345760405162461bcd60e51b81526004016101139061057e565b506001600160a01b0316600090815260336020526040812055565b600054610100900460ff1680610268575060005460ff16155b6102845760405162461bcd60e51b81526004016101139061048f565b600054610100900460ff161580156102af576000805460ff1961ff0019909116610100171660011790555b603480546001600160a01b0319166001600160a01b03841617905580156102dc576000805461ff00191690555b5050565b60006102ea6103c4565b60345460405163430c208160e01b81529192506001600160a01b03169063430c20819061031d9084908690600401610423565b60206040518083038186803b15801561033557600080fd5b505afa158015610349573d6000803e3d6000fd5b505050506040513d601f19601f8201168201806040525081019061036d91906103eb565b6103895760405162461bcd60e51b81526004016101139061052e565b6001600160a01b0316600090815260336020526040902055565b604051806040016040528060058152602001640302e312e360dc1b81525081565b3390565b6000602082840312156103d9578081fd5b81356103e4816105cf565b9392505050565b6000602082840312156103fc578081fd5b815180151581146103e4578182fd5b60006020828403121561041c578081fd5b5035919050565b6001600160a01b03929092168252602082015260400190565b6000602080835283518082850152825b818110156104685785810183015185820160400152820161044c565b818111156104795783604083870101525b50601f01601f1916929092016040019392505050565b6020808252602e908201527f496e697469616c697a61626c653a20636f6e747261637420697320616c72656160408201526d191e481a5b9a5d1a585b1a5e995960921b606082015260800190565b60208082526031908201527f526576657273655265736f6c7665723a204143434f554e545f49535f4e4f545f60408201527020a8282927ab22a22fa7a92fa7aba722a960791b606082015260800190565b60208082526030908201527f526576657273655265736f6c7665723a2053454e4445525f49535f4e4f545f4160408201526f28282927ab22a22fa7a92fa7aba722a960811b606082015260800190565b60208082526028908201527f526576657273655265736f6c7665723a20524556455253455f5245434f52445f60408201526749535f454d50545960c01b606082015260800190565b90815260200190565b6001600160a01b03811681146105e457600080fd5b5056fea2646970667358221220b59ffa2b85a4fc0b6417032af4c7b7f15fe4f06ae226751c9cfba3adf0301e9c64736f6c63430008000033",
  "linkReferences": {},
  "deployedLinkReferences": {}
}