{
  "_format": "hh-sol-artifact-1",
  "contractName": "RoutingForwarder",
  "sourceName": "contracts/metatx/RoutingForwarder.sol",
  "abi": [
    {
      "inputs": [
        {
          "components": [
            {
              "internalType": "address",
              "name": "from",
              "type": "address"
            },
            {
              "internalType": "uint256",
              "name": "nonce",
              "type": "uint256"
            },
            {
              "internalType": "uint256",
              "name": "tokenId",
              "type": "uint256"
            },
            {
              "internalType": "bytes",
              "name": "data",
              "type": "bytes"
            }
          ],
          "internalType": "struct IUniversalForwarder.ForwardRequest",
          "name": "req",
          "type": "tuple"
        },
        {
          "internalType": "bytes",
          "name": "signature",
          "type": "bytes"
        }
      ],
      "name": "buildData",
      "outputs": [
        {
          "internalType": "bytes",
          "name": "",
          "type": "bytes"
        }
      ],
      "stateMutability": "view",
      "type": "function"
    },
    {
      "inputs": [
        {
          "components": [
            {
              "internalType": "address",
              "name": "from",
              "type": "address"
            },
            {
              "internalType": "uint256",
              "name": "nonce",
              "type": "uint256"
            },
            {
              "internalType": "uint256",
              "name": "tokenId",
              "type": "uint256"
            },
            {
              "internalType": "bytes",
              "name": "data",
              "type": "bytes"
            }
          ],
          "internalType": "struct IUniversalForwarder.ForwardRequest",
          "name": "req",
          "type": "tuple"
        },
        {
          "internalType": "bytes",
          "name": "signature",
          "type": "bytes"
        }
      ],
      "name": "execute",
      "outputs": [
        {
          "internalType": "bytes",
          "name": "",
          "type": "bytes"
        }
      ],
      "stateMutability": "nonpayable",
      "type": "function"
    },
    {
      "inputs": [
        {
          "internalType": "contract IUniversalForwarder",
          "name": "target",
          "type": "address"
        }
      ],
      "name": "initialize",
      "outputs": [],
      "stateMutability": "nonpayable",
      "type": "function"
    },
    {
      "inputs": [
        {
          "internalType": "uint256",
          "name": "tokenId",
          "type": "uint256"
        }
      ],
      "name": "nonceOf",
      "outputs": [
        {
          "internalType": "uint256",
          "name": "",
          "type": "uint256"
        }
      ],
      "stateMutability": "view",
      "type": "function"
    },
    {
      "inputs": [
        {
          "components": [
            {
              "internalType": "address",
              "name": "from",
              "type": "address"
            },
            {
              "internalType": "uint256",
              "name": "nonce",
              "type": "uint256"
            },
            {
              "internalType": "uint256",
              "name": "tokenId",
              "type": "uint256"
            },
            {
              "internalType": "bytes",
              "name": "data",
              "type": "bytes"
            }
          ],
          "internalType": "struct IUniversalForwarder.ForwardRequest",
          "name": "req",
          "type": "tuple"
        },
        {
          "internalType": "bytes",
          "name": "signature",
          "type": "bytes"
        }
      ],
      "name": "verify",
      "outputs": [
        {
          "internalType": "bool",
          "name": "",
          "type": "bool"
        }
      ],
      "stateMutability": "view",
      "type": "function"
    }
  ],
  "bytecode": "0x608060405234801561001057600080fd5b50610c23806100206000396000f3fe608060405234801561001057600080fd5b50600436106100575760003560e01c80631366c6b51461005c5780631bf7e13e146100855780636ccbae5f14610098578063a4247400146100b8578063c4d66de8146100d8575b600080fd5b61006f61006a3660046107d1565b6100ed565b60405161007c91906109b5565b60405180910390f35b61006f6100933660046107d1565b610235565b6100ab6100a6366004610869565b610327565b60405161007c9190610b08565b6100cb6100c63660046107d1565b6103b3565b60405161007c919061098c565b6100eb6100e63660046107b5565b6104a7565b005b60606000806100fe86840187610b11565b8080601f016020809104026020016040519081016040528093929190818152602001838380828437600092018290525060208501519650939450610149925050506060880188610b11565b8080601f01602080910402602001604051908101604052809392919081815260200183838082843760009201829052506001600160e01b03198089168252600160205260409091205494955060e09490941b909316159250610229915050576001600160e01b0319831660009081526001602052604090205460e01b6101d26060890189610b11565b6101e0916004908290610b5d565b6001600160e01b0319861660009081526001602081815260409283902090910154915161021795949392918b918d918391016108ed565b60405160208183030381529060405290505b925050505b9392505050565b606060005a600080549192509081906201000090046001600160a01b03168361025f8989896100ed565b60405161026c919061093f565b60006040518083038160008787f1925050503d80600081146102aa576040519150601f19603f3d011682016040523d82523d6000602084013e6102af565b606091505b5090925090506102c0603f84610b85565b5a116102dc57634e487b7160e01b600052600160045260246000fd5b61031c82826040518060400160405280601d81526020017f526f7574696e67466f727761726465723a2043414c4c5f4641494c45440000008152506105d0565b979650505050505050565b60008054604051636ccbae5f60e01b8152620100009091046001600160a01b031690636ccbae5f9061035d908590600401610b08565b60206040518083038186803b15801561037557600080fd5b505afa158015610389573d6000803e3d6000fd5b505050506040513d601f19601f820116820180604052508101906103ad9190610881565b92915050565b6000806103c38560400135610327565b9050600061046c85858080601f016020809104026020016040519081016040528093929190818152602001838380828437600092019190915250610466925061041291505060608a018a610b11565b60405161042092919061092f565b60405190819003812060005461044b92620100009091046001600160a01b03169088906020016108c5565b60405160208183030381529060405280519060200120610609565b90610639565b9050856020013582148015610229575061048960208701876107b5565b6001600160a01b0316816001600160a01b0316149695505050505050565b600054610100900460ff16806104c0575060005460ff16155b6104e55760405162461bcd60e51b81526004016104dc90610a78565b60405180910390fd5b600054610100900460ff16158015610510576000805460ff1961ff0019909116610100171660011790555b6000805462010000600160b01b031916620100006001600160a01b0385160217815560408051808201909152631de5861160e31b8152608060208083019182526323b872dd60e01b9093526001909252517fce0bd6e656eb7c8d50ede2dcd48631717efe69613db35062e41aebd62ba38b58805463ffffffff191660e09290921c919091179055517fce0bd6e656eb7c8d50ede2dcd48631717efe69613db35062e41aebd62ba38b595580156105cc576000805461ff00191690555b5050565b606083156105df57508161022e565b8251156105ef5782518084602001fd5b8160405162461bcd60e51b81526004016104dc91906109b5565b60008160405160200161061c919061095b565b604051602081830303815290604052805190602001209050919050565b6000806000808451604114156106635750505060208201516040830151606084015160001a6106a9565b8451604014156106915750505060408201516020830151906001600160ff1b0381169060ff1c601b016106a9565b60405162461bcd60e51b81526004016104dc906109ff565b6106b5868285856106bf565b9695505050505050565b60007f7fffffffffffffffffffffffffffffff5d576e7357a4501ddfe92f46681b20a08211156107015760405162461bcd60e51b81526004016104dc90610a36565b8360ff16601b148061071657508360ff16601c145b6107325760405162461bcd60e51b81526004016104dc90610ac6565b6000600186868686604051600081526020016040526040516107579493929190610997565b6020604051602081039080840390855afa158015610779573d6000803e3d6000fd5b5050604051601f1901519150506001600160a01b0381166107ac5760405162461bcd60e51b81526004016104dc906109c8565b95945050505050565b6000602082840312156107c6578081fd5b813561022e81610bd5565b6000806000604084860312156107e5578182fd5b833567ffffffffffffffff808211156107fc578384fd5b908501906080828803121561080f578384fd5b90935060208501359080821115610824578384fd5b818601915086601f830112610837578384fd5b813581811115610845578485fd5b876020828501011115610856578485fd5b6020830194508093505050509250925092565b60006020828403121561087a578081fd5b5035919050565b600060208284031215610892578081fd5b5051919050565b600081518084526108b1816020860160208601610ba5565b601f01601f19169290920160200192915050565b92835260609190911b6bffffffffffffffffffffffff19166020830152603482015260540190565b6001600160e01b031988168152600086886004840137868201600481018790526024810186905283856044830137909201604401918252509695505050505050565b6000828483379101908152919050565b60008251610951818460208701610ba5565b9190910192915050565b7f19457468657265756d205369676e6564204d6573736167653a0a3332000000008152601c810191909152603c0190565b901515815260200190565b93845260ff9290921660208401526040830152606082015260800190565b60006020825261022e6020830184610899565b60208082526018908201527f45434453413a20696e76616c6964207369676e61747572650000000000000000604082015260600190565b6020808252601f908201527f45434453413a20696e76616c6964207369676e6174757265206c656e67746800604082015260600190565b60208082526022908201527f45434453413a20696e76616c6964207369676e6174757265202773272076616c604082015261756560f01b606082015260800190565b6020808252602e908201527f496e697469616c697a61626c653a20636f6e747261637420697320616c72656160408201526d191e481a5b9a5d1a585b1a5e995960921b606082015260800190565b60208082526022908201527f45434453413a20696e76616c6964207369676e6174757265202776272076616c604082015261756560f01b606082015260800190565b90815260200190565b6000808335601e19843603018112610b27578283fd5b83018035915067ffffffffffffffff821115610b41578283fd5b602001915036819003821315610b5657600080fd5b9250929050565b60008085851115610b6c578182fd5b83861115610b78578182fd5b5050820193919092039150565b600082610ba057634e487b7160e01b81526012600452602481fd5b500490565b60005b83811015610bc0578181015183820152602001610ba8565b83811115610bcf576000848401525b50505050565b6001600160a01b0381168114610bea57600080fd5b5056fea26469706673582212202e70625085f5c6369221394611f94754b491256dc9c51805823f88015b45b8fa64736f6c63430008000033",
  "linkReferences": {},
  "deployedLinkReferences": {}
}