{
  "_format": "hh-sol-artifact-1",
  "contractName": "RoutingForwarder",
  "sourceName": "contracts/metatx/RoutingForwarder.sol",
  "abi": [
    {
      "inputs": [
        {
          "components": [
            {
              "internalType": "address",
              "name": "from",
              "type": "address"
            },
            {
              "internalType": "uint256",
              "name": "nonce",
              "type": "uint256"
            },
            {
              "internalType": "uint256",
              "name": "tokenId",
              "type": "uint256"
            },
            {
              "internalType": "bytes",
              "name": "data",
              "type": "bytes"
            }
          ],
          "internalType": "struct IForwarder.ForwardRequest",
          "name": "req",
          "type": "tuple"
        },
        {
          "internalType": "bytes",
          "name": "signature",
          "type": "bytes"
        }
      ],
      "name": "buildRouteData",
      "outputs": [
        {
          "internalType": "bytes",
          "name": "",
          "type": "bytes"
        }
      ],
      "stateMutability": "view",
      "type": "function"
    },
    {
      "inputs": [
        {
          "components": [
            {
              "internalType": "address",
              "name": "from",
              "type": "address"
            },
            {
              "internalType": "uint256",
              "name": "nonce",
              "type": "uint256"
            },
            {
              "internalType": "uint256",
              "name": "tokenId",
              "type": "uint256"
            },
            {
              "internalType": "bytes",
              "name": "data",
              "type": "bytes"
            }
          ],
          "internalType": "struct IForwarder.ForwardRequest",
          "name": "req",
          "type": "tuple"
        },
        {
          "internalType": "bytes",
          "name": "signature",
          "type": "bytes"
        }
      ],
      "name": "execute",
      "outputs": [
        {
          "internalType": "bytes",
          "name": "",
          "type": "bytes"
        }
      ],
      "stateMutability": "nonpayable",
      "type": "function"
    },
    {
      "inputs": [
        {
          "internalType": "contract IForwarder",
          "name": "target",
          "type": "address"
        }
      ],
      "name": "initialize",
      "outputs": [],
      "stateMutability": "nonpayable",
      "type": "function"
    },
    {
      "inputs": [
        {
          "internalType": "uint256",
          "name": "tokenId",
          "type": "uint256"
        }
      ],
      "name": "nonceOf",
      "outputs": [
        {
          "internalType": "uint256",
          "name": "",
          "type": "uint256"
        }
      ],
      "stateMutability": "view",
      "type": "function"
    },
    {
      "inputs": [
        {
          "components": [
            {
              "internalType": "address",
              "name": "from",
              "type": "address"
            },
            {
              "internalType": "uint256",
              "name": "nonce",
              "type": "uint256"
            },
            {
              "internalType": "uint256",
              "name": "tokenId",
              "type": "uint256"
            },
            {
              "internalType": "bytes",
              "name": "data",
              "type": "bytes"
            }
          ],
          "internalType": "struct IForwarder.ForwardRequest",
          "name": "req",
          "type": "tuple"
        },
        {
          "internalType": "bytes",
          "name": "signature",
          "type": "bytes"
        }
      ],
      "name": "verify",
      "outputs": [
        {
          "internalType": "bool",
          "name": "",
          "type": "bool"
        }
      ],
      "stateMutability": "view",
      "type": "function"
    }
  ],
  "bytecode": "0x608060405234801561001057600080fd5b50611271806100206000396000f3fe608060405234801561001057600080fd5b50600436106100575760003560e01c80631bf7e13e1461005c57806332065ca7146100855780636ccbae5f14610098578063a4247400146100b8578063c4d66de8146100d8575b600080fd5b61006f61006a366004610aef565b6100ed565b60405161007c9190610cc3565b60405180910390f35b61006f610093366004610aef565b6101e1565b6100ab6100a6366004610b87565b6102ba565b60405161007c9190610e4d565b6100cb6100c6366004610aef565b610346565b60405161007c9190610c9a565b6100eb6100e6366004610ad3565b6103ff565b005b606060005a600080549192509081906201000090046001600160a01b0316836101178989896101e1565b6040516101249190610c4d565b60006040518083038160008787f1925050503d8060008114610162576040519150601f19603f3d011682016040523d82523d6000602084013e610167565b606091505b509092509050610178603f84610eca565b5a1161019457634e487b7160e01b600052600160045260246000fd5b6101d482826040518060400160405280601d81526020017f526f7574696e67466f727761726465723a2043414c4c5f4641494c45440000008152506106e3565b93505050505b9392505050565b6060600061022e6101f486840187610e56565b8080601f01602080910402602001604051908101604052809392919081815260200183838082843760009201919091525061071c92505050565b80519091506001600160e01b0319166102625760405162461bcd60e51b815260040161025990610d44565b60405180910390fd5b80516102716060870187610e56565b61027f916004908290610ea2565b6020808501516040516102a19594939260ff9092169189918b91839101610c0b565b6040516020818303038152906040529150509392505050565b60008054604051636ccbae5f60e01b8152620100009091046001600160a01b031690636ccbae5f906102f0908590600401610e4d565b60206040518083038186803b15801561030857600080fd5b505afa15801561031c573d6000803e3d6000fd5b505050506040513d601f19601f820116820180604052508101906103409190610b9f565b92915050565b60006103a661035485610f1f565b600060029054906101000a90046001600160a01b031685858080601f01602080910402602001604051908101604052809392919081815260200183838082843760009201919091525061076f92505050565b80156103f757506103f76103bd6060860186610e56565b8080601f01602080910402602001604051908101604052809392919081815260200183838082843760009201919091525061083192505050565b949350505050565b600054610100900460ff1680610418575060005460ff16155b6104345760405162461bcd60e51b815260040161025990610dbd565b600054610100900460ff1615801561045f576000805460ff1961ff0019909116610100171660011790555b6000805462010000600160b01b031916620100006001600160a01b03851602179055604080516060810190915260258082526104be919061106260208301396040518060600160405280602e815260200161120e602e91396004610851565b6104fa6040518060600160405280602981526020016110bf602991396040518060600160405280603281526020016110e8603291396004610851565b6105366040518060600160405280602f8152602001611174602f9139604051806060016040528060388152602001611087603891396005610851565b6105956040518060400160405280600d81526020016c6275726e2875696e743235362960981b815250604051806040016040528060168152602001756275726e466f722875696e743235362c62797465732960501b8152506002610851565b6105fc6040518060400160405280600e81526020016d72657365742875696e743235362960901b8152506040518060400160405280601781526020017f7265736574466f722875696e743235362c6279746573290000000000000000008152506002610851565b6106556040518060400160405280601a81526020017f73657428737472696e672c737472696e672c75696e74323536290000000000008152506040518060600160405280602381526020016111a3602391396004610851565b6106916040518060600160405280602281526020016111c6602291396040518060600160405280602b815260200161111a602b91396004610851565b6106cd6040518060600160405280602681526020016111e8602691396040518060600160405280602f8152602001611145602f91396004610851565b80156106df576000805461ff00191690555b5050565b606083156106f25750816101da565b8251156107025782518084602001fd5b8160405162461bcd60e51b81526004016102599190610cc3565b610724610abc565b506020908101516001600160e01b031990811660009081526001835260409081902081518083019092525460e081901b909216815264010000000090910460ff169181019190915290565b6040808401519051636ccbae5f60e01b815260009182913091636ccbae5f9161079b9190600401610e4d565b60206040518083038186803b1580156107b357600080fd5b505afa1580156107c7573d6000803e3d6000fd5b505050506040513d601f19601f820116820180604052508101906107eb9190610b9f565b905060006108068660600151805190602001208684876108e0565b9050856020015182148015610827575085516001600160a01b038281169116145b9695505050505050565b60008061083d8361071c565b516001600160e01b03191615159392505050565b604051806040016040528083805190602001206001600160e01b03191681526020018260206108809190610eea565b60ff90811690915284516020958601206001600160e01b031916600090815260018652604090208251815493909601519091166401000000000264ff000000001960e09690961c63ffffffff199093169290921794909416179092555050565b600061091f826109198787876040516020016108fe93929190610be3565b60405160208183030381529060405280519060200120610928565b90610958565b95945050505050565b60008160405160200161093b9190610c69565b604051602081830303815290604052805190602001209050919050565b6000806000808451604114156109825750505060208201516040830151606084015160001a6109c8565b8451604014156109b05750505060408201516020830151906001600160ff1b0381169060ff1c601b016109c8565b60405162461bcd60e51b815260040161025990610d0d565b6108278682858560007f7fffffffffffffffffffffffffffffff5d576e7357a4501ddfe92f46681b20a0821115610a115760405162461bcd60e51b815260040161025990610d7b565b8360ff16601b1480610a2657508360ff16601c145b610a425760405162461bcd60e51b815260040161025990610e0b565b600060018686868660405160008152602001604052604051610a679493929190610ca5565b6020604051602081039080840390855afa158015610a89573d6000803e3d6000fd5b5050604051601f1901519150506001600160a01b03811661091f5760405162461bcd60e51b815260040161025990610cd6565b604080518082019091526000808252602082015290565b600060208284031215610ae4578081fd5b81356101da81611049565b600080600060408486031215610b03578182fd5b833567ffffffffffffffff80821115610b1a578384fd5b9085019060808288031215610b2d578384fd5b90935060208501359080821115610b42578384fd5b818601915086601f830112610b55578384fd5b813581811115610b63578485fd5b876020828501011115610b74578485fd5b6020830194508093505050509250925092565b600060208284031215610b98578081fd5b5035919050565b600060208284031215610bb0578081fd5b5051919050565b60008151808452610bcf816020860160208601611003565b601f01601f19169290920160200192915050565b92835260609190911b6bffffffffffffffffffffffff19166020830152603482015260540190565b6001600160e01b031988168152600086886004840137868201600481018790526024810186905283856044830137909201604401918252509695505050505050565b60008251610c5f818460208701611003565b9190910192915050565b7f19457468657265756d205369676e6564204d6573736167653a0a3332000000008152601c810191909152603c0190565b901515815260200190565b93845260ff9290921660208401526040830152606082015260800190565b6000602082526101da6020830184610bb7565b60208082526018908201527f45434453413a20696e76616c6964207369676e61747572650000000000000000604082015260600190565b6020808252601f908201527f45434453413a20696e76616c6964207369676e6174757265206c656e67746800604082015260600190565b6020808252601f908201527f526f7574696e67466f727761726465723a20524f5554455f554e4b4e4f574e00604082015260600190565b60208082526022908201527f45434453413a20696e76616c6964207369676e6174757265202773272076616c604082015261756560f01b606082015260800190565b6020808252602e908201527f496e697469616c697a61626c653a20636f6e747261637420697320616c72656160408201526d191e481a5b9a5d1a585b1a5e995960921b606082015260800190565b60208082526022908201527f45434453413a20696e76616c6964207369676e6174757265202776272076616c604082015261756560f01b606082015260800190565b90815260200190565b6000808335601e19843603018112610e6c578283fd5b83018035915067ffffffffffffffff821115610e86578283fd5b602001915036819003821315610e9b57600080fd5b9250929050565b60008085851115610eb1578182fd5b83861115610ebd578182fd5b5050820193919092039150565b600082610ee557634e487b7160e01b81526012600452602481fd5b500490565b600060ff821660ff84168160ff0481118215151615610f1757634e487b7160e01b83526011600452602483fd5b029392505050565b600060808236031215610f30578081fd5b604080516080810167ffffffffffffffff8282108183111715610f5557610f55611033565b908352843590610f6482611049565b90825260208581013581840152838601358484015290606086013581811115610f8b578586fd5b860136601f820112610f9b578586fd5b803582811115610fad57610fad611033565b8551601f8201601f1916810185018481118282101715610fcf57610fcf611033565b87528181523683830186011115610fe4578788fd5b8185840186830137908101909301959095525060608201529392505050565b60005b8381101561101e578181015183820152602001611006565b8381111561102d576000848401525b50505050565b634e487b7160e01b600052604160045260246000fd5b6001600160a01b038116811461105e57600080fd5b5056fe7472616e7366657246726f6d28616464726573732c616464726573732c75696e7432353629736166655472616e7366657246726f6d466f7228616464726573732c616464726573732c75696e743235362c62797465732c627974657329736166655472616e7366657246726f6d28616464726573732c616464726573732c75696e7432353629736166655472616e7366657246726f6d466f7228616464726573732c616464726573732c75696e743235362c6279746573297365744d616e79466f7228737472696e675b5d2c737472696e675b5d2c75696e743235362c6279746573297265636f6e666967757265466f7228737472696e675b5d2c737472696e675b5d2c75696e743235362c627974657329736166655472616e7366657246726f6d28616464726573732c616464726573732c75696e743235362c627974657329736574466f7228737472696e672c737472696e672c75696e743235362c6279746573297365744d616e7928737472696e675b5d2c737472696e675b5d2c75696e74323536297265636f6e66696775726528737472696e675b5d2c737472696e675b5d2c75696e74323536297472616e7366657246726f6d466f7228616464726573732c616464726573732c75696e743235362c627974657329a26469706673582212207e4543f7bffcd438ba65bf0e0c9392aad8ccc60c0116027f8b812ba999b0cdf764736f6c63430008000033",
  "linkReferences": {},
  "deployedLinkReferences": {}
}