{
  "_format": "hh-sol-artifact-1",
  "contractName": "SeaportProxyBuyer",
  "sourceName": "contracts/marketplace/SeaportProxyBuyer.sol",
  "abi": [
    {
      "inputs": [],
      "stateMutability": "nonpayable",
      "type": "constructor"
    },
    {
      "inputs": [
        {
          "internalType": "uint256",
          "name": "tokenId",
          "type": "uint256"
        }
      ],
      "name": "InvalidForwardedToken",
      "type": "error"
    },
    {
      "inputs": [],
      "name": "InvalidSignature",
      "type": "error"
    },
    {
      "inputs": [],
      "name": "InvalidZone",
      "type": "error"
    },
    {
      "inputs": [],
      "name": "OrderIsNotFulfiled",
      "type": "error"
    },
    {
      "inputs": [],
      "name": "RecipientIsZeroAddress",
      "type": "error"
    },
    {
      "anonymous": false,
      "inputs": [
        {
          "indexed": false,
          "internalType": "uint8",
          "name": "version",
          "type": "uint8"
        }
      ],
      "name": "Initialized",
      "type": "event"
    },
    {
      "anonymous": false,
      "inputs": [
        {
          "indexed": true,
          "internalType": "address",
          "name": "previousOwner",
          "type": "address"
        },
        {
          "indexed": true,
          "internalType": "address",
          "name": "newOwner",
          "type": "address"
        }
      ],
      "name": "OwnershipTransferred",
      "type": "event"
    },
    {
      "anonymous": false,
      "inputs": [
        {
          "indexed": false,
          "internalType": "address",
          "name": "account",
          "type": "address"
        }
      ],
      "name": "Paused",
      "type": "event"
    },
    {
      "anonymous": false,
      "inputs": [
        {
          "indexed": true,
          "internalType": "bytes32",
          "name": "role",
          "type": "bytes32"
        },
        {
          "indexed": true,
          "internalType": "bytes32",
          "name": "previousAdminRole",
          "type": "bytes32"
        },
        {
          "indexed": true,
          "internalType": "bytes32",
          "name": "newAdminRole",
          "type": "bytes32"
        }
      ],
      "name": "RoleAdminChanged",
      "type": "event"
    },
    {
      "anonymous": false,
      "inputs": [
        {
          "indexed": true,
          "internalType": "bytes32",
          "name": "role",
          "type": "bytes32"
        },
        {
          "indexed": true,
          "internalType": "address",
          "name": "account",
          "type": "address"
        },
        {
          "indexed": true,
          "internalType": "address",
          "name": "sender",
          "type": "address"
        }
      ],
      "name": "RoleGranted",
      "type": "event"
    },
    {
      "anonymous": false,
      "inputs": [
        {
          "indexed": true,
          "internalType": "bytes32",
          "name": "role",
          "type": "bytes32"
        },
        {
          "indexed": true,
          "internalType": "address",
          "name": "account",
          "type": "address"
        },
        {
          "indexed": true,
          "internalType": "address",
          "name": "sender",
          "type": "address"
        }
      ],
      "name": "RoleRevoked",
      "type": "event"
    },
    {
      "anonymous": false,
      "inputs": [
        {
          "indexed": false,
          "internalType": "address",
          "name": "account",
          "type": "address"
        }
      ],
      "name": "Unpaused",
      "type": "event"
    },
    {
      "inputs": [],
      "name": "DEFAULT_ADMIN_ROLE",
      "outputs": [
        {
          "internalType": "bytes32",
          "name": "",
          "type": "bytes32"
        }
      ],
      "stateMutability": "view",
      "type": "function"
    },
    {
      "inputs": [],
      "name": "MINTER_ROLE",
      "outputs": [
        {
          "internalType": "bytes32",
          "name": "",
          "type": "bytes32"
        }
      ],
      "stateMutability": "view",
      "type": "function"
    },
    {
      "inputs": [],
      "name": "NAME",
      "outputs": [
        {
          "internalType": "string",
          "name": "",
          "type": "string"
        }
      ],
      "stateMutability": "view",
      "type": "function"
    },
    {
      "inputs": [],
      "name": "VERSION",
      "outputs": [
        {
          "internalType": "string",
          "name": "",
          "type": "string"
        }
      ],
      "stateMutability": "view",
      "type": "function"
    },
    {
      "inputs": [
        {
          "internalType": "address",
          "name": "account",
          "type": "address"
        }
      ],
      "name": "addMinter",
      "outputs": [],
      "stateMutability": "nonpayable",
      "type": "function"
    },
    {
      "inputs": [
        {
          "internalType": "address[]",
          "name": "accounts",
          "type": "address[]"
        }
      ],
      "name": "addMinters",
      "outputs": [],
      "stateMutability": "nonpayable",
      "type": "function"
    },
    {
      "inputs": [
        {
          "internalType": "address",
          "name": "token",
          "type": "address"
        }
      ],
      "name": "approve",
      "outputs": [],
      "stateMutability": "nonpayable",
      "type": "function"
    },
    {
      "inputs": [
        {
          "internalType": "address payable",
          "name": "receiver",
          "type": "address"
        }
      ],
      "name": "closeMinter",
      "outputs": [],
      "stateMutability": "payable",
      "type": "function"
    },
    {
      "inputs": [
        {
          "components": [
            {
              "internalType": "address",
              "name": "from",
              "type": "address"
            },
            {
              "internalType": "uint256",
              "name": "nonce",
              "type": "uint256"
            },
            {
              "internalType": "uint256",
              "name": "tokenId",
              "type": "uint256"
            },
            {
              "internalType": "bytes",
              "name": "data",
              "type": "bytes"
            }
          ],
          "internalType": "struct IForwarder.ForwardRequest",
          "name": "req",
          "type": "tuple"
        },
        {
          "internalType": "bytes",
          "name": "signature",
          "type": "bytes"
        }
      ],
      "name": "execute",
      "outputs": [
        {
          "internalType": "bytes",
          "name": "",
          "type": "bytes"
        }
      ],
      "stateMutability": "nonpayable",
      "type": "function"
    },
    {
      "inputs": [
        {
          "components": [
            {
              "components": [
                {
                  "internalType": "address",
                  "name": "offerer",
                  "type": "address"
                },
                {
                  "internalType": "address",
                  "name": "zone",
                  "type": "address"
                },
                {
                  "components": [
                    {
                      "internalType": "enum ItemType",
                      "name": "itemType",
                      "type": "uint8"
                    },
                    {
                      "internalType": "address",
                      "name": "token",
                      "type": "address"
                    },
                    {
                      "internalType": "uint256",
                      "name": "identifierOrCriteria",
                      "type": "uint256"
                    },
                    {
                      "internalType": "uint256",
                      "name": "startAmount",
                      "type": "uint256"
                    },
                    {
                      "internalType": "uint256",
                      "name": "endAmount",
                      "type": "uint256"
                    }
                  ],
                  "internalType": "struct OfferItem[]",
                  "name": "offer",
                  "type": "tuple[]"
                },
                {
                  "components": [
                    {
                      "internalType": "enum ItemType",
                      "name": "itemType",
                      "type": "uint8"
                    },
                    {
                      "internalType": "address",
                      "name": "token",
                      "type": "address"
                    },
                    {
                      "internalType": "uint256",
                      "name": "identifierOrCriteria",
                      "type": "uint256"
                    },
                    {
                      "internalType": "uint256",
                      "name": "startAmount",
                      "type": "uint256"
                    },
                    {
                      "internalType": "uint256",
                      "name": "endAmount",
                      "type": "uint256"
                    },
                    {
                      "internalType": "address payable",
                      "name": "recipient",
                      "type": "address"
                    }
                  ],
                  "internalType": "struct ConsiderationItem[]",
                  "name": "consideration",
                  "type": "tuple[]"
                },
                {
                  "internalType": "enum OrderType",
                  "name": "orderType",
                  "type": "uint8"
                },
                {
                  "internalType": "uint256",
                  "name": "startTime",
                  "type": "uint256"
                },
                {
                  "internalType": "uint256",
                  "name": "endTime",
                  "type": "uint256"
                },
                {
                  "internalType": "bytes32",
                  "name": "zoneHash",
                  "type": "bytes32"
                },
                {
                  "internalType": "uint256",
                  "name": "salt",
                  "type": "uint256"
                },
                {
                  "internalType": "bytes32",
                  "name": "conduitKey",
                  "type": "bytes32"
                },
                {
                  "internalType": "uint256",
                  "name": "totalOriginalConsiderationItems",
                  "type": "uint256"
                }
              ],
              "internalType": "struct OrderParameters",
              "name": "parameters",
              "type": "tuple"
            },
            {
              "internalType": "uint120",
              "name": "numerator",
              "type": "uint120"
            },
            {
              "internalType": "uint120",
              "name": "denominator",
              "type": "uint120"
            },
            {
              "internalType": "bytes",
              "name": "signature",
              "type": "bytes"
            },
            {
              "internalType": "bytes",
              "name": "extraData",
              "type": "bytes"
            }
          ],
          "internalType": "struct AdvancedOrder",
          "name": "advancedOrder",
          "type": "tuple"
        },
        {
          "components": [
            {
              "internalType": "uint256",
              "name": "orderIndex",
              "type": "uint256"
            },
            {
              "internalType": "enum Side",
              "name": "side",
              "type": "uint8"
            },
            {
              "internalType": "uint256",
              "name": "index",
              "type": "uint256"
            },
            {
              "internalType": "uint256",
              "name": "identifier",
              "type": "uint256"
            },
            {
              "internalType": "bytes32[]",
              "name": "criteriaProof",
              "type": "bytes32[]"
            }
          ],
          "internalType": "struct CriteriaResolver[]",
          "name": "criteriaResolvers",
          "type": "tuple[]"
        },
        {
          "internalType": "bytes32",
          "name": "fulfillerConduitKey",
          "type": "bytes32"
        },
        {
          "internalType": "address",
          "name": "recipient",
          "type": "address"
        }
      ],
      "name": "fulfillAdvancedOrder",
      "outputs": [
        {
          "internalType": "bool",
          "name": "fulfilled",
          "type": "bool"
        }
      ],
      "stateMutability": "nonpayable",
      "type": "function"
    },
    {
      "inputs": [
        {
          "internalType": "bytes32",
          "name": "role",
          "type": "bytes32"
        }
      ],
      "name": "getRoleAdmin",
      "outputs": [
        {
          "internalType": "bytes32",
          "name": "",
          "type": "bytes32"
        }
      ],
      "stateMutability": "view",
      "type": "function"
    },
    {
      "inputs": [
        {
          "internalType": "bytes32",
          "name": "role",
          "type": "bytes32"
        },
        {
          "internalType": "address",
          "name": "account",
          "type": "address"
        }
      ],
      "name": "grantRole",
      "outputs": [],
      "stateMutability": "nonpayable",
      "type": "function"
    },
    {
      "inputs": [
        {
          "internalType": "bytes32",
          "name": "role",
          "type": "bytes32"
        },
        {
          "internalType": "address",
          "name": "account",
          "type": "address"
        }
      ],
      "name": "hasRole",
      "outputs": [
        {
          "internalType": "bool",
          "name": "",
          "type": "bool"
        }
      ],
      "stateMutability": "view",
      "type": "function"
    },
    {
      "inputs": [
        {
          "internalType": "contract ConsiderationInterface",
          "name": "seaport",
          "type": "address"
        }
      ],
      "name": "initialize",
      "outputs": [],
      "stateMutability": "nonpayable",
      "type": "function"
    },
    {
      "inputs": [
        {
          "internalType": "address",
          "name": "account",
          "type": "address"
        }
      ],
      "name": "isMinter",
      "outputs": [
        {
          "internalType": "bool",
          "name": "",
          "type": "bool"
        }
      ],
      "stateMutability": "view",
      "type": "function"
    },
    {
      "inputs": [
        {
          "internalType": "address",
          "name": "forwarder",
          "type": "address"
        }
      ],
      "name": "isTrustedForwarder",
      "outputs": [
        {
          "internalType": "bool",
          "name": "",
          "type": "bool"
        }
      ],
      "stateMutability": "view",
      "type": "function"
    },
    {
      "inputs": [
        {
          "internalType": "uint256",
          "name": "tokenId",
          "type": "uint256"
        }
      ],
      "name": "nonceOf",
      "outputs": [
        {
          "internalType": "uint256",
          "name": "",
          "type": "uint256"
        }
      ],
      "stateMutability": "view",
      "type": "function"
    },
    {
      "inputs": [],
      "name": "owner",
      "outputs": [
        {
          "internalType": "address",
          "name": "",
          "type": "address"
        }
      ],
      "stateMutability": "view",
      "type": "function"
    },
    {
      "inputs": [],
      "name": "pause",
      "outputs": [],
      "stateMutability": "nonpayable",
      "type": "function"
    },
    {
      "inputs": [],
      "name": "paused",
      "outputs": [
        {
          "internalType": "bool",
          "name": "",
          "type": "bool"
        }
      ],
      "stateMutability": "view",
      "type": "function"
    },
    {
      "inputs": [
        {
          "internalType": "address",
          "name": "account",
          "type": "address"
        }
      ],
      "name": "removeMinter",
      "outputs": [],
      "stateMutability": "nonpayable",
      "type": "function"
    },
    {
      "inputs": [
        {
          "internalType": "address[]",
          "name": "accounts",
          "type": "address[]"
        }
      ],
      "name": "removeMinters",
      "outputs": [],
      "stateMutability": "nonpayable",
      "type": "function"
    },
    {
      "inputs": [],
      "name": "renounceMinter",
      "outputs": [],
      "stateMutability": "nonpayable",
      "type": "function"
    },
    {
      "inputs": [],
      "name": "renounceOwnership",
      "outputs": [],
      "stateMutability": "nonpayable",
      "type": "function"
    },
    {
      "inputs": [
        {
          "internalType": "bytes32",
          "name": "role",
          "type": "bytes32"
        },
        {
          "internalType": "address",
          "name": "account",
          "type": "address"
        }
      ],
      "name": "renounceRole",
      "outputs": [],
      "stateMutability": "nonpayable",
      "type": "function"
    },
    {
      "inputs": [
        {
          "internalType": "bytes32",
          "name": "role",
          "type": "bytes32"
        },
        {
          "internalType": "address",
          "name": "account",
          "type": "address"
        }
      ],
      "name": "revokeRole",
      "outputs": [],
      "stateMutability": "nonpayable",
      "type": "function"
    },
    {
      "inputs": [
        {
          "internalType": "address payable",
          "name": "receiver",
          "type": "address"
        }
      ],
      "name": "rotateMinter",
      "outputs": [],
      "stateMutability": "payable",
      "type": "function"
    },
    {
      "inputs": [
        {
          "internalType": "bytes4",
          "name": "interfaceId",
          "type": "bytes4"
        }
      ],
      "name": "supportsInterface",
      "outputs": [
        {
          "internalType": "bool",
          "name": "",
          "type": "bool"
        }
      ],
      "stateMutability": "view",
      "type": "function"
    },
    {
      "inputs": [
        {
          "internalType": "address",
          "name": "newOwner",
          "type": "address"
        }
      ],
      "name": "transferOwnership",
      "outputs": [],
      "stateMutability": "nonpayable",
      "type": "function"
    },
    {
      "inputs": [],
      "name": "unpause",
      "outputs": [],
      "stateMutability": "nonpayable",
      "type": "function"
    },
    {
      "inputs": [
        {
          "components": [
            {
              "internalType": "bytes32",
              "name": "orderHash",
              "type": "bytes32"
            },
            {
              "internalType": "address",
              "name": "fulfiller",
              "type": "address"
            },
            {
              "internalType": "address",
              "name": "offerer",
              "type": "address"
            },
            {
              "components": [
                {
                  "internalType": "enum ItemType",
                  "name": "itemType",
                  "type": "uint8"
                },
                {
                  "internalType": "address",
                  "name": "token",
                  "type": "address"
                },
                {
                  "internalType": "uint256",
                  "name": "identifier",
                  "type": "uint256"
                },
                {
                  "internalType": "uint256",
                  "name": "amount",
                  "type": "uint256"
                }
              ],
              "internalType": "struct SpentItem[]",
              "name": "offer",
              "type": "tuple[]"
            },
            {
              "components": [
                {
                  "internalType": "enum ItemType",
                  "name": "itemType",
                  "type": "uint8"
                },
                {
                  "internalType": "address",
                  "name": "token",
                  "type": "address"
                },
                {
                  "internalType": "uint256",
                  "name": "identifier",
                  "type": "uint256"
                },
                {
                  "internalType": "uint256",
                  "name": "amount",
                  "type": "uint256"
                },
                {
                  "internalType": "address payable",
                  "name": "recipient",
                  "type": "address"
                }
              ],
              "internalType": "struct ReceivedItem[]",
              "name": "consideration",
              "type": "tuple[]"
            },
            {
              "internalType": "bytes",
              "name": "extraData",
              "type": "bytes"
            },
            {
              "internalType": "bytes32[]",
              "name": "orderHashes",
              "type": "bytes32[]"
            },
            {
              "internalType": "uint256",
              "name": "startTime",
              "type": "uint256"
            },
            {
              "internalType": "uint256",
              "name": "endTime",
              "type": "uint256"
            },
            {
              "internalType": "bytes32",
              "name": "zoneHash",
              "type": "bytes32"
            }
          ],
          "internalType": "struct ZoneParameters",
          "name": "",
          "type": "tuple"
        }
      ],
      "name": "validateOrder",
      "outputs": [
        {
          "internalType": "bytes4",
          "name": "validOrderMagicValue",
          "type": "bytes4"
        }
      ],
      "stateMutability": "view",
      "type": "function"
    },
    {
      "inputs": [
        {
          "components": [
            {
              "internalType": "address",
              "name": "from",
              "type": "address"
            },
            {
              "internalType": "uint256",
              "name": "nonce",
              "type": "uint256"
            },
            {
              "internalType": "uint256",
              "name": "tokenId",
              "type": "uint256"
            },
            {
              "internalType": "bytes",
              "name": "data",
              "type": "bytes"
            }
          ],
          "internalType": "struct IForwarder.ForwardRequest",
          "name": "req",
          "type": "tuple"
        },
        {
          "internalType": "bytes",
          "name": "signature",
          "type": "bytes"
        }
      ],
      "name": "verify",
      "outputs": [
        {
          "internalType": "bool",
          "name": "",
          "type": "bool"
        }
      ],
      "stateMutability": "view",
      "type": "function"
    },
    {
      "inputs": [
        {
          "internalType": "address",
          "name": "token",
          "type": "address"
        },
        {
          "internalType": "address",
          "name": "recipient",
          "type": "address"
        },
        {
          "internalType": "uint256",
          "name": "amount",
          "type": "uint256"
        }
      ],
      "name": "withdraw",
      "outputs": [],
      "stateMutability": "nonpayable",
      "type": "function"
    }
  ],
  "bytecode": "0x608060405234801562000010575f80fd5b506200001b62000021565b620000e0565b5f54610100900460ff16156200008d5760405162461bcd60e51b815260206004820152602760248201527f496e697469616c697a61626c653a20636f6e747261637420697320696e697469604482015266616c697a696e6760c81b606482015260840160405180910390fd5b5f5460ff9081161015620000de575f805460ff191660ff9081179091556040519081527f7f26b83ff96e1f2b6a682f133852f6798a09c465da95921460cefb38474024989060200160405180910390a15b565b612eec80620000ee5f395ff3fe6080604052600436106101e6575f3560e01c80638456cb5911610108578063aa271e1a1161009d578063d9caed121161006d578063d9caed1214610582578063daea85c5146105a1578063e7acab24146105c0578063f2fde38b146105df578063ffa1ad74146105fe575f80fd5b8063aa271e1a14610505578063c4d66de814610524578063d539139314610543578063d547741f14610563575f80fd5b806398650275116100d85780639865027514610481578063a217fddf14610495578063a3f4df7e146104a8578063a4247400146104e6575f80fd5b80638456cb59146104085780638da5cb5b1461041c57806391d1485414610443578063983b2d5614610462575f80fd5b8063572b6c051161017e5780636ccbae5f1161014e5780636ccbae5f146103a3578063715018a6146103c257806371e2a657146103d657806381c81d35146103f5575f80fd5b8063572b6c05146103315780635c975abb146103595780635fc1964f14610371578063634486da14610390575f80fd5b80632f2ff15d116101b95780632f2ff15d146102be5780633092afd5146102df57806336568abe146102fe5780633f4ba83a1461031d575f80fd5b806301ffc9a7146101ea57806317b1f9421461021e5780631bf7e13e14610256578063248a9ca314610282575b5f80fd5b3480156101f5575f80fd5b50610209610204366004611ec2565b61062e565b60405190151581526020015b60405180910390f35b348015610229575f80fd5b5061023d610238366004611ee9565b610664565b6040516001600160e01b03199091168152602001610215565b348015610261575f80fd5b50610275610270366004611f20565b61067b565b6040516102159190612002565b34801561028d575f80fd5b506102b061029c366004612014565b5f90815260fb602052604090206001015490565b604051908152602001610215565b3480156102c9575f80fd5b506102dd6102d836600461204f565b610744565b005b3480156102ea575f80fd5b506102dd6102f936600461207d565b61076d565b348015610309575f80fd5b506102dd61031836600461204f565b610781565b348015610328575f80fd5b506102dd610814565b34801561033c575f80fd5b5061020961034b36600461207d565b6001600160a01b0316301490565b348015610364575f80fd5b5061012d5460ff16610209565b34801561037c575f80fd5b506102dd61038b366004612104565b61082e565b6102dd61039e36600461207d565b61086b565b3480156103ae575f80fd5b506102b06103bd366004612014565b61092b565b3480156103cd575f80fd5b506102dd610984565b3480156103e1575f80fd5b506102dd6103f0366004612104565b610995565b6102dd61040336600461207d565b6109d2565b348015610413575f80fd5b506102dd610a4f565b348015610427575f80fd5b506097546040516001600160a01b039091168152602001610215565b34801561044e575f80fd5b5061020961045d36600461204f565b610a67565b34801561046d575f80fd5b506102dd61047c36600461207d565b610a91565b34801561048c575f80fd5b506102dd610aa2565b3480156104a0575f80fd5b506102b05f81565b3480156104b3575f80fd5b506102756040518060400160405280601381526020017229b2b0b837b93a10283937bc3c90213abcb2b960691b81525081565b3480156104f1575f80fd5b50610209610500366004611f20565b610abb565b348015610510575f80fd5b5061020961051f36600461207d565b610b0c565b34801561052f575f80fd5b506102dd61053e36600461207d565b610b24565b34801561054e575f80fd5b506102b05f80516020612ec083398151915281565b34801561056e575f80fd5b506102dd61057d36600461204f565b610c7b565b34801561058d575f80fd5b506102dd61059c3660046121a4565b610c9f565b3480156105ac575f80fd5b506102dd6105bb36600461207d565b610d49565b3480156105cb575f80fd5b506102096105da3660046121e2565b610df6565b3480156105ea575f80fd5b506102dd6105f936600461207d565b611236565b348015610609575f80fd5b50610275604051806040016040528060058152602001640302e312e360dc1b81525081565b5f6001600160e01b03198216637965db0b60e01b148061065e57506301ffc9a760e01b6001600160e01b03198316145b92915050565b5f61066d611251565b50630bd8fca160e11b919050565b60605f5a905061068c858585610abb565b6106a957604051638baa579f60e01b815260040160405180910390fd5b6107396106b9602087018761207d565b306040880135846106cd60608b018b612294565b8080601f0160208091040260200160405190810160405280939291908181526020018383808284375f9201919091525050604080516020601f8e018190048102820181019092528c815292508c91508b90819084018382808284375f9201919091525061129892505050565b9150505b9392505050565b5f82815260fb602052604090206001015461075e81611376565b6107688383611387565b505050565b61077561140d565b61077e81611486565b50565b61078961149d565b6001600160a01b0316816001600160a01b0316146108065760405162461bcd60e51b815260206004820152602f60248201527f416363657373436f6e74726f6c3a2063616e206f6e6c792072656e6f756e636560448201526e103937b632b9903337b91039b2b63360891b60648201526084015b60405180910390fd5b61081082826114ab565b5050565b61081c61140d565b61082461152f565b61082c611579565b565b61083661140d565b5f5b815181101561081057610863828281518110610856576108566122d6565b6020026020010151611486565b600101610838565b61087661051f61149d565b6108925760405162461bcd60e51b81526004016107fd906122ea565b6001600160a01b0381166108e85760405162461bcd60e51b815260206004820152601d60248201527f4d696e746572526f6c653a2052454345495645525f49535f454d50545900000060448201526064016107fd565b6108f1816115d2565b6108f9610aa2565b6040516001600160a01b038216903480156108fc02915f818181858888f19350505050158015610810573d5f803e3d5ffd5b604080517f1ee5d87a048b728f67073f282321992c260e5be4fa651d08665c5b4ee7a8381560208201529081018290525f9061097d906060016040516020818303038152906040528051906020012090565b5492915050565b61098c61140d565b61082c5f6115e9565b61099d61140d565b5f5b8151811015610810576109ca8282815181106109bd576109bd6122d6565b60200260200101516115d2565b60010161099f565b6109dd61051f61149d565b6109f95760405162461bcd60e51b81526004016107fd906122ea565b6001600160a01b0381166108f15760405162461bcd60e51b815260206004820152601d60248201527f4d696e746572526f6c653a2052454345495645525f49535f454d50545900000060448201526064016107fd565b610a5761140d565b610a5f611251565b61082c61163a565b5f91825260fb602090815260408084206001600160a01b0393909316845291905290205460ff1690565b610a9961140d565b61077e816115d2565b61082c5f80516020612ec083398151915261031861149d565b5f610b04610ac88561231f565b3085858080601f0160208091040260200160405190810160405280939291908181526020018383808284375f9201919091525061167992505050565b949350505050565b5f61065e5f80516020612ec083398151915283610a67565b5f54610100900460ff1615808015610b4257505f54600160ff909116105b80610b5b5750303b158015610b5b57505f5460ff166001145b610bbe5760405162461bcd60e51b815260206004820152602e60248201527f496e697469616c697a61626c653a20636f6e747261637420697320616c72656160448201526d191e481a5b9a5d1a585b1a5e995960921b60648201526084016107fd565b5f805460ff191660011790558015610bdf575f805461ff0019166101001790555b61015f80546001600160a01b0319166001600160a01b038416179055610c036117b4565b610c0b6117e1565b610c136117e1565b610c1b6117e1565b610c23611807565b610c2b61183d565b610c33611874565b8015610810575f805461ff0019169055604051600181527f7f26b83ff96e1f2b6a682f133852f6798a09c465da95921460cefb38474024989060200160405180910390a15050565b5f82815260fb6020526040902060010154610c9581611376565b61076883836114ab565b610ca761140d565b600260335403610cc95760405162461bcd60e51b81526004016107fd906123db565b600260335560405163a9059cbb60e01b81526001600160a01b0383811660048301526024820183905284169063a9059cbb906044016020604051808303815f875af1158015610d1a573d5f803e3d5ffd5b505050506040513d601f19601f82011682018060405250810190610d3e9190612412565b505060016033555050565b610d5161140d565b600260335403610d735760405162461bcd60e51b81526004016107fd906123db565b600260335561015f5460405163095ea7b360e01b81526001600160a01b0391821660048201525f1960248201529082169063095ea7b3906044016020604051808303815f875af1158015610dc9573d5f803e3d5ffd5b505050506040513d601f19601f82011682018060405250810190610ded9190612412565b50506001603355565b5f610e0261051f61149d565b610e1e5760405162461bcd60e51b81526004016107fd906122ea565b600260335403610e405760405162461bcd60e51b81526004016107fd906123db565b6002603355610e4d611251565b6001600160a01b038216610e74576040516311d000e160e31b815260040160405180910390fd5b30610e7f8780612431565b610e9090604081019060200161207d565b6001600160a01b031614610eb757604051639d3c586b60e01b815260040160405180910390fd5b61015f5460408051610160810190915261118f916001600160a01b0316906379df72bd9080610ee68b80612431565b610ef490602081019061207d565b6001600160a01b03168152602001610f0c8b80612431565b610f1d90604081019060200161207d565b6001600160a01b03168152602001610f358b80612431565b610f43906040810190612450565b808060200260200160405190810160405280939291908181526020015f905b82821015610f8e57610f7f60a083028601368190038101906124a2565b81526020019060010190610f62565b5050509183525050602001610fa38b80612431565b610fb190606081019061251f565b808060200260200160405190810160405280939291908181526020015f905b82821015610ffc57610fed60c08302860136819003810190612563565b81526020019060010190610fd0565b50505091835250506020016110118b80612431565b6110229060a08101906080016125fe565b600481111561103357611033612617565b81526020016110428b80612431565b60a0013581526020016110558b80612431565b60c0013581526020016110688b80612431565b60e00135815260200161107b8b80612431565b6101000135815260200161108f8b80612431565b6101200135815261015f546020909101906001600160a01b031663f07ec3736110b88d80612431565b6110c690602081019061207d565b6040516001600160e01b031960e084901b1681526001600160a01b039091166004820152602401602060405180830381865afa158015611108573d5f803e3d5ffd5b505050506040513d601f19601f8201168201806040525081019061112c919061262b565b8152506040518263ffffffff1660e01b815260040161114b9190612750565b602060405180830381865afa158015611166573d5f803e3d5ffd5b505050506040513d601f19601f8201168201806040525081019061118a919061262b565b6118a7565b61015f546040516339eb2ac960e21b81526001600160a01b039091169063e7acab24906111c89089908990899089908990600401612b3d565b6020604051808303815f875af11580156111e4573d5f803e3d5ffd5b505050506040513d601f19601f820116820180604052508101906112089190612412565b90508061122857604051636725093760e01b815260040160405180910390fd5b600160335595945050505050565b61123e61140d565b611247816118c0565b61077e5f82611936565b61012d5460ff161561082c5760405162461bcd60e51b815260206004820152601060248201526f14185d5cd8589b194e881c185d5cd95960821b60448201526064016107fd565b60606112a385611940565b5f80876001600160a01b0316866112bc8b8a89896119a5565b6040516112c99190612d13565b5f604051808303815f8787f1925050503d805f8114611303576040519150601f19603f3d011682016040523d82523d5f602084013e611308565b606091505b509092509050611319603f87612d38565b5a1161132757611327612d57565b61136782826040518060400160405280601a81526020017f42617365466f727761726465723a2043414c4c5f4641494c45440000000000008152506119d5565b925050505b9695505050505050565b61077e8161138261149d565b611a0e565b6113918282610a67565b610810575f82815260fb602090815260408083206001600160a01b03851684529091529020805460ff191660011790556113c961149d565b6001600160a01b0316816001600160a01b0316837f2f8788117e7eff1d82e926ec794901d17c78024a50270940304540a733656f0d60405160405180910390a45050565b61141561149d565b6001600160a01b03166114306097546001600160a01b031690565b6001600160a01b03161461082c5760405162461bcd60e51b815260206004820181905260248201527f4f776e61626c653a2063616c6c6572206973206e6f7420746865206f776e657260448201526064016107fd565b61077e5f80516020612ec083398151915282610c7b565b5f6114a6611a72565b905090565b6114b58282610a67565b15610810575f82815260fb602090815260408083206001600160a01b03851684529091529020805460ff191690556114eb61149d565b6001600160a01b0316816001600160a01b0316837ff6391f5c32d9c69d2a47ea670b442974b53935d1edc7fd64eb21e047a839171b60405160405180910390a45050565b61012d5460ff1661082c5760405162461bcd60e51b815260206004820152601460248201527314185d5cd8589b194e881b9bdd081c185d5cd95960621b60448201526064016107fd565b61158161152f565b61012d805460ff191690557f5db9ee0a495bf2e6ff9c91a7834c1ba4fdd244a5e8aa4e537bd38aeae4b073aa6115b561149d565b6040516001600160a01b03909116815260200160405180910390a1565b61077e5f80516020612ec083398151915282611936565b609780546001600160a01b038381166001600160a01b0319831681179093556040519116919082907f8be0079c531659141344cd1fd0a4f28419497f9722a3daafe3b4186f6b6457e0905f90a35050565b611642611251565b61012d805460ff191660011790557f62e78cea01bee320cd4e420270b5ea74000d11b0c9f74754ebdbfc544b05a2586115b561149d565b6040838101519051636ccbae5f60e01b815260048101919091525f9081903090636ccbae5f90602401602060405180830381865afa1580156116bd573d5f803e3d5ffd5b505050506040513d601f19601f820116820180604052508101906116e1919061262b565b90505f61178e86606001518051906020012086886020015160405160200161172e9392919092835260609190911b6bffffffffffffffffffffffff19166020830152603482015260540190565b60408051601f1981840301815282825280516020918201207f19457468657265756d205369676e6564204d6573736167653a0a33320000000084830152603c8085019190915282518085039091018152605c909301909152815191012090565b905081866020015114801561136c5750855161136c906001600160a01b03168286611a8f565b5f54610100900460ff166117da5760405162461bcd60e51b81526004016107fd90612d6b565b6001603355565b5f54610100900460ff1661082c5760405162461bcd60e51b81526004016107fd90612d6b565b5f54610100900460ff1661182d5760405162461bcd60e51b81526004016107fd90612d6b565b61082c61183861149d565b6115e9565b5f54610100900460ff166118635760405162461bcd60e51b81526004016107fd90612d6b565b61082c5f61186f61149d565b611936565b5f54610100900460ff1661189a5760405162461bcd60e51b81526004016107fd90612d6b565b61012d805460ff19169055565b3033036118b75761077e81611bca565b61077e81611940565b6118c861140d565b6001600160a01b03811661192d5760405162461bcd60e51b815260206004820152602660248201527f4f776e61626c653a206e6577206f776e657220697320746865207a65726f206160448201526564647265737360d01b60648201526084016107fd565b61077e816115e9565b6108108282611387565b604080517f1ee5d87a048b728f67073f282321992c260e5be4fa651d08665c5b4ee7a8381560208201529081018290525f906060016040516020818303038152906040528051906020012090506119948190565b546119a0906001612db6565b905550565b60608285856040516020016119bc93929190612dc9565b6040516020818303038152906040529050949350505050565b606083156119e457508161073d565b8251156119f45782518084602001fd5b8160405162461bcd60e51b81526004016107fd9190612002565b611a188282610a67565b61081057611a30816001600160a01b03166014611bf4565b611a3b836020611bf4565b604051602001611a4c929190612e07565b60408051601f198184030181529082905262461bcd60e51b82526107fd91600401612002565b5f303303611a87575060331936013560601c90565b503390565b90565b5f805f611a9c8585611d89565b90925090505f816004811115611ab457611ab4612617565b148015611ad25750856001600160a01b0316826001600160a01b0316145b15611ae25760019250505061073d565b5f80876001600160a01b0316631626ba7e60e01b8888604051602401611b09929190612e7b565b60408051601f198184030181529181526020820180516001600160e01b03166001600160e01b0319909416939093179092529051611b479190612d13565b5f60405180830381855afa9150503d805f8114611b7f576040519150601f19603f3d011682016040523d82523d5f602084013e611b84565b606091505b5091509150818015611b97575080516020145b8015611bbe57508051630b135d3f60e11b90611bbc908301602090810190840161262b565b145b98975050505050505050565b611bd2611dcb565b811461077e57604051635637b6af60e11b8152600481018290526024016107fd565b60605f611c02836002612e93565b611c0d906002612db6565b6001600160401b03811115611c2457611c24612098565b6040519080825280601f01601f191660200182016040528015611c4e576020820181803683370190505b509050600360fc1b815f81518110611c6857611c686122d6565b60200101906001600160f81b03191690815f1a905350600f60fb1b81600181518110611c9657611c966122d6565b60200101906001600160f81b03191690815f1a9053505f611cb8846002612e93565b611cc3906001612db6565b90505b6001811115611d3a576f181899199a1a9b1b9c1cb0b131b232b360811b85600f1660108110611cf757611cf76122d6565b1a60f81b828281518110611d0d57611d0d6122d6565b60200101906001600160f81b03191690815f1a90535060049490941c93611d3381612eaa565b9050611cc6565b50831561073d5760405162461bcd60e51b815260206004820181905260248201527f537472696e67733a20686578206c656e67746820696e73756666696369656e7460448201526064016107fd565b5f808251604103611dbd576020830151604084015160608501515f1a611db187828585611ddd565b94509450505050611dc4565b505f905060025b9250929050565b5f303303611a8c5750601f1936013590565b5f807f7fffffffffffffffffffffffffffffff5d576e7357a4501ddfe92f46681b20a0831115611e1257505f90506003611eb9565b8460ff16601b14158015611e2a57508460ff16601c14155b15611e3a57505f90506004611eb9565b604080515f8082526020820180845289905260ff881692820192909252606081018690526080810185905260019060a0016020604051602081039080840390855afa158015611e8b573d5f803e3d5ffd5b5050604051601f1901519150506001600160a01b038116611eb3575f60019250925050611eb9565b91505f90505b94509492505050565b5f60208284031215611ed2575f80fd5b81356001600160e01b03198116811461073d575f80fd5b5f60208284031215611ef9575f80fd5b81356001600160401b03811115611f0e575f80fd5b8201610140818503121561073d575f80fd5b5f805f60408486031215611f32575f80fd5b83356001600160401b0380821115611f48575f80fd5b9085019060808288031215611f5b575f80fd5b90935060208501359080821115611f70575f80fd5b818601915086601f830112611f83575f80fd5b813581811115611f91575f80fd5b876020828501011115611fa2575f80fd5b6020830194508093505050509250925092565b5f5b83811015611fcf578181015183820152602001611fb7565b50505f910152565b5f8151808452611fee816020860160208601611fb5565b601f01601f19169290920160200192915050565b602081525f61073d6020830184611fd7565b5f60208284031215612024575f80fd5b5035919050565b6001600160a01b038116811461077e575f80fd5b803561204a8161202b565b919050565b5f8060408385031215612060575f80fd5b8235915060208301356120728161202b565b809150509250929050565b5f6020828403121561208d575f80fd5b813561073d8161202b565b634e487b7160e01b5f52604160045260245ffd5b604051608081016001600160401b03811182821017156120ce576120ce612098565b60405290565b604051601f8201601f191681016001600160401b03811182821017156120fc576120fc612098565b604052919050565b5f6020808385031215612115575f80fd5b82356001600160401b038082111561212b575f80fd5b818501915085601f83011261213e575f80fd5b81358181111561215057612150612098565b8060051b91506121618483016120d4565b818152918301840191848101908884111561217a575f80fd5b938501935b83851015611bbe57843592506121948361202b565b828252938501939085019061217f565b5f805f606084860312156121b6575f80fd5b83356121c18161202b565b925060208401356121d18161202b565b929592945050506040919091013590565b5f805f805f608086880312156121f6575f80fd5b85356001600160401b038082111561220c575f80fd5b9087019060a0828a03121561221f575f80fd5b90955060208701359080821115612234575f80fd5b818801915088601f830112612247575f80fd5b813581811115612255575f80fd5b8960208260051b8501011115612269575f80fd5b602083019650809550505050604086013591506122886060870161203f565b90509295509295909350565b5f808335601e198436030181126122a9575f80fd5b8301803591506001600160401b038211156122c2575f80fd5b602001915036819003821315611dc4575f80fd5b634e487b7160e01b5f52603260045260245ffd5b6020808252818101527f4d696e746572526f6c653a2043414c4c45525f49535f4e4f545f4d494e544552604082015260600190565b5f6080823603121561232f575f80fd5b6123376120ac565b82356123428161202b565b8152602083810135818301526040808501359083015260608401356001600160401b0380821115612371575f80fd5b9085019036601f830112612383575f80fd5b81358181111561239557612395612098565b6123a7601f8201601f191685016120d4565b915080825236848285010111156123bc575f80fd5b80848401858401375f9082019093019290925250606082015292915050565b6020808252601f908201527f5265656e7472616e637947756172643a207265656e7472616e742063616c6c00604082015260600190565b5f60208284031215612422575f80fd5b8151801515811461073d575f80fd5b5f823561015e19833603018112612446575f80fd5b9190910192915050565b5f808335601e19843603018112612465575f80fd5b8301803591506001600160401b0382111561247e575f80fd5b602001915060a081023603821315611dc4575f80fd5b80356006811061204a575f80fd5b5f60a082840312156124b2575f80fd5b60405160a081018181106001600160401b03821117156124d4576124d4612098565b6040526124e083612494565b815260208301356124f08161202b565b806020830152506040830135604082015260608301356060820152608083013560808201528091505092915050565b5f808335601e19843603018112612534575f80fd5b8301803591506001600160401b0382111561254d575f80fd5b602001915060c081023603821315611dc4575f80fd5b5f60c08284031215612573575f80fd5b60405160c081018181106001600160401b038211171561259557612595612098565b6040526125a183612494565b815260208301356125b18161202b565b8060208301525060408301356040820152606083013560608201526080830135608082015260a08301356125e48161202b565b60a08201529392505050565b80356005811061204a575f80fd5b5f6020828403121561260e575f80fd5b61073d826125f0565b634e487b7160e01b5f52602160045260245ffd5b5f6020828403121561263b575f80fd5b5051919050565b6006811061265257612652612617565b9052565b5f815180845260208085019450602084015f5b838110156126bf57815161267e888251612642565b838101516001600160a01b03168885015260408082015190890152606080820151908901526080908101519088015260a09096019590820190600101612669565b509495945050505050565b5f815180845260208085019450602084015f5b838110156126bf5781516126f2888251612642565b808401516001600160a01b0390811689860152604080830151908a0152606080830151908a0152608080830151908a015260a091820151169088015260c090960195908201906001016126dd565b6005811061265257612652612617565b6020815261276a6020820183516001600160a01b03169052565b5f602083015161278560408401826001600160a01b03169052565b5060408301516101608060608501526127a2610180850183612656565b91506060850151601f198584030160808601526127bf83826126ca565b92505060808501516127d460a0860182612740565b5060a085015160c085015260c085015160e085015260e0850151610100818187015280870151915050610120818187015280870151915050610140818187015280870151838701525050508091505092915050565b5f808335601e1984360301811261283e575f80fd5b83016020810192503590506001600160401b0381111561285c575f80fd5b60a081023603821315611dc4575f80fd5b8183525f60208085019450825f5b858110156126bf576128958761289084612494565b612642565b828201356128a28161202b565b6001600160a01b03168388015260408281013590880152606080830135908801526080808301359088015260a0968701969091019060010161287b565b5f808335601e198436030181126128f4575f80fd5b83016020810192503590506001600160401b03811115612912575f80fd5b60c081023603821315611dc4575f80fd5b8183525f60208085019450825f5b858110156126bf576129468761289084612494565b828201356129538161202b565b6001600160a01b039081168885015260408381013590890152606080840135908901526080808401359089015260a090838201356129908161202b565b169088015260c0968701969190910190600101612931565b80356001600160781b038116811461204a575f80fd5b5f808335601e198436030181126129d3575f80fd5b83016020810192503590506001600160401b038111156129f1575f80fd5b803603821315611dc4575f80fd5b81835281816020850137505f828201602090810191909152601f909101601f19169091010190565b8183525f6001600160fb1b03831115612a3e575f80fd5b8260051b80836020870137939093016020019392505050565b8183526020808401935f91600585811b8301820185855b88811015612b2f57858303601f19018a52813536899003609e19018112612a93575f80fd5b88018035845260a08682013560028110612aab575f80fd5b85880152604082810135908601526060808301359086015260808083013536849003601e19018112612adb575f80fd5b9092018781019290356001600160401b03811115612af7575f80fd5b80881b3603841315612b07575f80fd5b8282880152612b198388018286612a27565b9d89019d96505050928601925050600101612a6e565b509098975050505050505050565b608081525f610120873561015e19893603018112612b59575f80fd5b60a060808501528801612b7e828501612b718361203f565b6001600160a01b03169052565b612b8a6020820161203f565b610140612ba1818701836001600160a01b03169052565b612bae6040840184612829565b610160888101529250612bc66102808801848361286d565b925050612bd660608401846128df565b87840361011f1901610180890152612bef848284612923565b93505050612bff608084016125f0565b612c0d6101a0880182612740565b5060a08301356101c087015260c08301356101e087015260e0830135610200870152610100808401356102208801528484013561024088015281840135610260880152612c5c60208d016129a8565b6001600160781b03811660a08901529450612c7960408d016129a8565b6001600160781b03811660c08901529450612c9760608d018d6129be565b95509350607f199150818784030160e0880152612cb58386866129ff565b9450612cc460808d018d6129be565b945092508187860301818801525050612cde8383836129ff565b925050508281036020840152612cf5818789612a57565b91505083604083015261136c60608301846001600160a01b03169052565b5f8251612446818460208701611fb5565b634e487b7160e01b5f52601160045260245ffd5b5f82612d5257634e487b7160e01b5f52601260045260245ffd5b500490565b634e487b7160e01b5f52600160045260245ffd5b6020808252602b908201527f496e697469616c697a61626c653a20636f6e7472616374206973206e6f74206960408201526a6e697469616c697a696e6760a81b606082015260800190565b8082018082111561065e5761065e612d24565b5f8451612dda818460208901611fb5565b60609490941b6bffffffffffffffffffffffff191691909301908152601481019190915260340192915050565b7f416363657373436f6e74726f6c3a206163636f756e742000000000000000000081525f8351612e3e816017850160208801611fb5565b7001034b99036b4b9b9b4b733903937b6329607d1b6017918401918201528351612e6f816028840160208801611fb5565b01602801949350505050565b828152604060208201525f610b046040830184611fd7565b808202811582820484141761065e5761065e612d24565b5f81612eb857612eb8612d24565b505f19019056fe9f2df0fed2c77648de5860a4cc508cd0818c85b8b8a1ab4ceeef8d981c8956a6a164736f6c6343000818000a",
  "linkReferences": {},
  "deployedLinkReferences": {}
}