{
  "_format": "hh-sol-artifact-1",
  "contractName": "SeaportProxyBuyer",
  "sourceName": "contracts/marketplace/SeaportProxyBuyer.sol",
  "abi": [
    {
      "inputs": [],
      "stateMutability": "nonpayable",
      "type": "constructor"
    },
    {
      "inputs": [],
      "name": "InvalidSignature",
      "type": "error"
    },
    {
      "inputs": [],
      "name": "OrderIsNotFulfiled",
      "type": "error"
    },
    {
      "inputs": [],
      "name": "RecipientIsZeroAddress",
      "type": "error"
    },
    {
      "anonymous": false,
      "inputs": [
        {
          "indexed": false,
          "internalType": "uint8",
          "name": "version",
          "type": "uint8"
        }
      ],
      "name": "Initialized",
      "type": "event"
    },
    {
      "anonymous": false,
      "inputs": [
        {
          "indexed": true,
          "internalType": "address",
          "name": "previousOwner",
          "type": "address"
        },
        {
          "indexed": true,
          "internalType": "address",
          "name": "newOwner",
          "type": "address"
        }
      ],
      "name": "OwnershipTransferred",
      "type": "event"
    },
    {
      "anonymous": false,
      "inputs": [
        {
          "indexed": false,
          "internalType": "address",
          "name": "account",
          "type": "address"
        }
      ],
      "name": "Paused",
      "type": "event"
    },
    {
      "anonymous": false,
      "inputs": [
        {
          "indexed": true,
          "internalType": "bytes32",
          "name": "role",
          "type": "bytes32"
        },
        {
          "indexed": true,
          "internalType": "bytes32",
          "name": "previousAdminRole",
          "type": "bytes32"
        },
        {
          "indexed": true,
          "internalType": "bytes32",
          "name": "newAdminRole",
          "type": "bytes32"
        }
      ],
      "name": "RoleAdminChanged",
      "type": "event"
    },
    {
      "anonymous": false,
      "inputs": [
        {
          "indexed": true,
          "internalType": "bytes32",
          "name": "role",
          "type": "bytes32"
        },
        {
          "indexed": true,
          "internalType": "address",
          "name": "account",
          "type": "address"
        },
        {
          "indexed": true,
          "internalType": "address",
          "name": "sender",
          "type": "address"
        }
      ],
      "name": "RoleGranted",
      "type": "event"
    },
    {
      "anonymous": false,
      "inputs": [
        {
          "indexed": true,
          "internalType": "bytes32",
          "name": "role",
          "type": "bytes32"
        },
        {
          "indexed": true,
          "internalType": "address",
          "name": "account",
          "type": "address"
        },
        {
          "indexed": true,
          "internalType": "address",
          "name": "sender",
          "type": "address"
        }
      ],
      "name": "RoleRevoked",
      "type": "event"
    },
    {
      "anonymous": false,
      "inputs": [
        {
          "indexed": false,
          "internalType": "address",
          "name": "account",
          "type": "address"
        }
      ],
      "name": "Unpaused",
      "type": "event"
    },
    {
      "inputs": [],
      "name": "DEFAULT_ADMIN_ROLE",
      "outputs": [
        {
          "internalType": "bytes32",
          "name": "",
          "type": "bytes32"
        }
      ],
      "stateMutability": "view",
      "type": "function"
    },
    {
      "inputs": [],
      "name": "MINTER_ROLE",
      "outputs": [
        {
          "internalType": "bytes32",
          "name": "",
          "type": "bytes32"
        }
      ],
      "stateMutability": "view",
      "type": "function"
    },
    {
      "inputs": [],
      "name": "NAME",
      "outputs": [
        {
          "internalType": "string",
          "name": "",
          "type": "string"
        }
      ],
      "stateMutability": "view",
      "type": "function"
    },
    {
      "inputs": [],
      "name": "VERSION",
      "outputs": [
        {
          "internalType": "string",
          "name": "",
          "type": "string"
        }
      ],
      "stateMutability": "view",
      "type": "function"
    },
    {
      "inputs": [
        {
          "internalType": "address",
          "name": "account",
          "type": "address"
        }
      ],
      "name": "addMinter",
      "outputs": [],
      "stateMutability": "nonpayable",
      "type": "function"
    },
    {
      "inputs": [
        {
          "internalType": "address[]",
          "name": "accounts",
          "type": "address[]"
        }
      ],
      "name": "addMinters",
      "outputs": [],
      "stateMutability": "nonpayable",
      "type": "function"
    },
    {
      "inputs": [
        {
          "internalType": "address payable",
          "name": "receiver",
          "type": "address"
        }
      ],
      "name": "closeMinter",
      "outputs": [],
      "stateMutability": "payable",
      "type": "function"
    },
    {
      "inputs": [
        {
          "components": [
            {
              "internalType": "address",
              "name": "from",
              "type": "address"
            },
            {
              "internalType": "uint256",
              "name": "nonce",
              "type": "uint256"
            },
            {
              "internalType": "uint256",
              "name": "tokenId",
              "type": "uint256"
            },
            {
              "internalType": "bytes",
              "name": "data",
              "type": "bytes"
            }
          ],
          "internalType": "struct IForwarder.ForwardRequest",
          "name": "req",
          "type": "tuple"
        },
        {
          "internalType": "bytes",
          "name": "signature",
          "type": "bytes"
        }
      ],
      "name": "execute",
      "outputs": [
        {
          "internalType": "bytes",
          "name": "",
          "type": "bytes"
        }
      ],
      "stateMutability": "nonpayable",
      "type": "function"
    },
    {
      "inputs": [
        {
          "components": [
            {
              "components": [
                {
                  "internalType": "address",
                  "name": "offerer",
                  "type": "address"
                },
                {
                  "internalType": "address",
                  "name": "zone",
                  "type": "address"
                },
                {
                  "components": [
                    {
                      "internalType": "enum ItemType",
                      "name": "itemType",
                      "type": "uint8"
                    },
                    {
                      "internalType": "address",
                      "name": "token",
                      "type": "address"
                    },
                    {
                      "internalType": "uint256",
                      "name": "identifierOrCriteria",
                      "type": "uint256"
                    },
                    {
                      "internalType": "uint256",
                      "name": "startAmount",
                      "type": "uint256"
                    },
                    {
                      "internalType": "uint256",
                      "name": "endAmount",
                      "type": "uint256"
                    }
                  ],
                  "internalType": "struct OfferItem[]",
                  "name": "offer",
                  "type": "tuple[]"
                },
                {
                  "components": [
                    {
                      "internalType": "enum ItemType",
                      "name": "itemType",
                      "type": "uint8"
                    },
                    {
                      "internalType": "address",
                      "name": "token",
                      "type": "address"
                    },
                    {
                      "internalType": "uint256",
                      "name": "identifierOrCriteria",
                      "type": "uint256"
                    },
                    {
                      "internalType": "uint256",
                      "name": "startAmount",
                      "type": "uint256"
                    },
                    {
                      "internalType": "uint256",
                      "name": "endAmount",
                      "type": "uint256"
                    },
                    {
                      "internalType": "address payable",
                      "name": "recipient",
                      "type": "address"
                    }
                  ],
                  "internalType": "struct ConsiderationItem[]",
                  "name": "consideration",
                  "type": "tuple[]"
                },
                {
                  "internalType": "enum OrderType",
                  "name": "orderType",
                  "type": "uint8"
                },
                {
                  "internalType": "uint256",
                  "name": "startTime",
                  "type": "uint256"
                },
                {
                  "internalType": "uint256",
                  "name": "endTime",
                  "type": "uint256"
                },
                {
                  "internalType": "bytes32",
                  "name": "zoneHash",
                  "type": "bytes32"
                },
                {
                  "internalType": "uint256",
                  "name": "salt",
                  "type": "uint256"
                },
                {
                  "internalType": "bytes32",
                  "name": "conduitKey",
                  "type": "bytes32"
                },
                {
                  "internalType": "uint256",
                  "name": "totalOriginalConsiderationItems",
                  "type": "uint256"
                }
              ],
              "internalType": "struct OrderParameters",
              "name": "parameters",
              "type": "tuple"
            },
            {
              "internalType": "uint120",
              "name": "numerator",
              "type": "uint120"
            },
            {
              "internalType": "uint120",
              "name": "denominator",
              "type": "uint120"
            },
            {
              "internalType": "bytes",
              "name": "signature",
              "type": "bytes"
            },
            {
              "internalType": "bytes",
              "name": "extraData",
              "type": "bytes"
            }
          ],
          "internalType": "struct AdvancedOrder",
          "name": "advancedOrder",
          "type": "tuple"
        },
        {
          "components": [
            {
              "internalType": "uint256",
              "name": "orderIndex",
              "type": "uint256"
            },
            {
              "internalType": "enum Side",
              "name": "side",
              "type": "uint8"
            },
            {
              "internalType": "uint256",
              "name": "index",
              "type": "uint256"
            },
            {
              "internalType": "uint256",
              "name": "identifier",
              "type": "uint256"
            },
            {
              "internalType": "bytes32[]",
              "name": "criteriaProof",
              "type": "bytes32[]"
            }
          ],
          "internalType": "struct CriteriaResolver[]",
          "name": "criteriaResolvers",
          "type": "tuple[]"
        },
        {
          "internalType": "bytes32",
          "name": "fulfillerConduitKey",
          "type": "bytes32"
        },
        {
          "internalType": "address",
          "name": "recipient",
          "type": "address"
        }
      ],
      "name": "fulfillAdvancedOrder",
      "outputs": [
        {
          "internalType": "bool",
          "name": "fulfilled",
          "type": "bool"
        }
      ],
      "stateMutability": "nonpayable",
      "type": "function"
    },
    {
      "inputs": [
        {
          "internalType": "bytes32",
          "name": "role",
          "type": "bytes32"
        }
      ],
      "name": "getRoleAdmin",
      "outputs": [
        {
          "internalType": "bytes32",
          "name": "",
          "type": "bytes32"
        }
      ],
      "stateMutability": "view",
      "type": "function"
    },
    {
      "inputs": [
        {
          "internalType": "bytes32",
          "name": "role",
          "type": "bytes32"
        },
        {
          "internalType": "address",
          "name": "account",
          "type": "address"
        }
      ],
      "name": "grantRole",
      "outputs": [],
      "stateMutability": "nonpayable",
      "type": "function"
    },
    {
      "inputs": [
        {
          "internalType": "bytes32",
          "name": "role",
          "type": "bytes32"
        },
        {
          "internalType": "address",
          "name": "account",
          "type": "address"
        }
      ],
      "name": "hasRole",
      "outputs": [
        {
          "internalType": "bool",
          "name": "",
          "type": "bool"
        }
      ],
      "stateMutability": "view",
      "type": "function"
    },
    {
      "inputs": [
        {
          "internalType": "contract ConsiderationInterface",
          "name": "seaport",
          "type": "address"
        },
        {
          "internalType": "contract IERC20",
          "name": "usdc",
          "type": "address"
        }
      ],
      "name": "initialize",
      "outputs": [],
      "stateMutability": "nonpayable",
      "type": "function"
    },
    {
      "inputs": [
        {
          "internalType": "address",
          "name": "account",
          "type": "address"
        }
      ],
      "name": "isMinter",
      "outputs": [
        {
          "internalType": "bool",
          "name": "",
          "type": "bool"
        }
      ],
      "stateMutability": "view",
      "type": "function"
    },
    {
      "inputs": [
        {
          "internalType": "address",
          "name": "forwarder",
          "type": "address"
        }
      ],
      "name": "isTrustedForwarder",
      "outputs": [
        {
          "internalType": "bool",
          "name": "",
          "type": "bool"
        }
      ],
      "stateMutability": "view",
      "type": "function"
    },
    {
      "inputs": [
        {
          "internalType": "uint256",
          "name": "tokenId",
          "type": "uint256"
        }
      ],
      "name": "nonceOf",
      "outputs": [
        {
          "internalType": "uint256",
          "name": "",
          "type": "uint256"
        }
      ],
      "stateMutability": "view",
      "type": "function"
    },
    {
      "inputs": [],
      "name": "owner",
      "outputs": [
        {
          "internalType": "address",
          "name": "",
          "type": "address"
        }
      ],
      "stateMutability": "view",
      "type": "function"
    },
    {
      "inputs": [],
      "name": "pause",
      "outputs": [],
      "stateMutability": "nonpayable",
      "type": "function"
    },
    {
      "inputs": [],
      "name": "paused",
      "outputs": [
        {
          "internalType": "bool",
          "name": "",
          "type": "bool"
        }
      ],
      "stateMutability": "view",
      "type": "function"
    },
    {
      "inputs": [
        {
          "internalType": "address",
          "name": "account",
          "type": "address"
        }
      ],
      "name": "removeMinter",
      "outputs": [],
      "stateMutability": "nonpayable",
      "type": "function"
    },
    {
      "inputs": [
        {
          "internalType": "address[]",
          "name": "accounts",
          "type": "address[]"
        }
      ],
      "name": "removeMinters",
      "outputs": [],
      "stateMutability": "nonpayable",
      "type": "function"
    },
    {
      "inputs": [],
      "name": "renounceMinter",
      "outputs": [],
      "stateMutability": "nonpayable",
      "type": "function"
    },
    {
      "inputs": [],
      "name": "renounceOwnership",
      "outputs": [],
      "stateMutability": "nonpayable",
      "type": "function"
    },
    {
      "inputs": [
        {
          "internalType": "bytes32",
          "name": "role",
          "type": "bytes32"
        },
        {
          "internalType": "address",
          "name": "account",
          "type": "address"
        }
      ],
      "name": "renounceRole",
      "outputs": [],
      "stateMutability": "nonpayable",
      "type": "function"
    },
    {
      "inputs": [
        {
          "internalType": "bytes32",
          "name": "role",
          "type": "bytes32"
        },
        {
          "internalType": "address",
          "name": "account",
          "type": "address"
        }
      ],
      "name": "revokeRole",
      "outputs": [],
      "stateMutability": "nonpayable",
      "type": "function"
    },
    {
      "inputs": [
        {
          "internalType": "address payable",
          "name": "receiver",
          "type": "address"
        }
      ],
      "name": "rotateMinter",
      "outputs": [],
      "stateMutability": "payable",
      "type": "function"
    },
    {
      "inputs": [
        {
          "internalType": "bytes4",
          "name": "interfaceId",
          "type": "bytes4"
        }
      ],
      "name": "supportsInterface",
      "outputs": [
        {
          "internalType": "bool",
          "name": "",
          "type": "bool"
        }
      ],
      "stateMutability": "view",
      "type": "function"
    },
    {
      "inputs": [
        {
          "internalType": "address",
          "name": "newOwner",
          "type": "address"
        }
      ],
      "name": "transferOwnership",
      "outputs": [],
      "stateMutability": "nonpayable",
      "type": "function"
    },
    {
      "inputs": [],
      "name": "unpause",
      "outputs": [],
      "stateMutability": "nonpayable",
      "type": "function"
    },
    {
      "inputs": [
        {
          "components": [
            {
              "internalType": "address",
              "name": "from",
              "type": "address"
            },
            {
              "internalType": "uint256",
              "name": "nonce",
              "type": "uint256"
            },
            {
              "internalType": "uint256",
              "name": "tokenId",
              "type": "uint256"
            },
            {
              "internalType": "bytes",
              "name": "data",
              "type": "bytes"
            }
          ],
          "internalType": "struct IForwarder.ForwardRequest",
          "name": "req",
          "type": "tuple"
        },
        {
          "internalType": "bytes",
          "name": "signature",
          "type": "bytes"
        }
      ],
      "name": "verify",
      "outputs": [
        {
          "internalType": "bool",
          "name": "",
          "type": "bool"
        }
      ],
      "stateMutability": "view",
      "type": "function"
    },
    {
      "inputs": [
        {
          "internalType": "address",
          "name": "recipient",
          "type": "address"
        },
        {
          "internalType": "uint256",
          "name": "amount",
          "type": "uint256"
        }
      ],
      "name": "withdraw",
      "outputs": [],
      "stateMutability": "nonpayable",
      "type": "function"
    }
  ],
  "bytecode": "0x608060405234801562000010575f80fd5b506200001b62000021565b620000e0565b5f54610100900460ff16156200008d5760405162461bcd60e51b815260206004820152602760248201527f496e697469616c697a61626c653a20636f6e747261637420697320696e697469604482015266616c697a696e6760c81b606482015260840160405180910390fd5b5f5460ff9081161015620000de575f805460ff191660ff9081179091556040519081527f7f26b83ff96e1f2b6a682f133852f6798a09c465da95921460cefb38474024989060200160405180910390a15b565b61276880620000ee5f395ff3fe6080604052600436106101d0575f3560e01c806381c81d35116100fd578063a424740011610092578063e7acab2411610062578063e7acab2414610534578063f2fde38b14610553578063f3fef3a314610572578063ffa1ad7414610591575f80fd5b8063a4247400146104b7578063aa271e1a146104d6578063d5391393146104f5578063d547741f14610515575f80fd5b8063983b2d56116100cd578063983b2d56146104335780639865027514610452578063a217fddf14610466578063a3f4df7e14610479575f80fd5b806381c81d35146103c65780638456cb59146103d95780638da5cb5b146103ed57806391d1485414610414575f80fd5b8063485cc95511610173578063634486da11610143578063634486da146103615780636ccbae5f14610374578063715018a61461039357806371e2a657146103a7575f80fd5b8063485cc955146102e3578063572b6c05146103025780635c975abb1461032a5780635fc1964f14610342575f80fd5b80632f2ff15d116101ae5780632f2ff15d146102705780633092afd51461029157806336568abe146102b05780633f4ba83a146102cf575f80fd5b806301ffc9a7146101d45780631bf7e13e14610208578063248a9ca314610234575b5f80fd5b3480156101df575f80fd5b506101f36101ee366004611b01565b6105c1565b60405190151581526020015b60405180910390f35b348015610213575f80fd5b50610227610222366004611b28565b6105f7565b6040516101ff9190611c0b565b34801561023f575f80fd5b5061026261024e366004611c1d565b5f90815260fb602052604090206001015490565b6040519081526020016101ff565b34801561027b575f80fd5b5061028f61028a366004611c58565b6106c0565b005b34801561029c575f80fd5b5061028f6102ab366004611c86565b6106e9565b3480156102bb575f80fd5b5061028f6102ca366004611c58565b6106fd565b3480156102da575f80fd5b5061028f610790565b3480156102ee575f80fd5b5061028f6102fd366004611ca1565b6107aa565b34801561030d575f80fd5b506101f361031c366004611c86565b6001600160a01b0316301490565b348015610335575f80fd5b5061012d5460ff166101f3565b34801561034d575f80fd5b5061028f61035c366004611d3b565b610977565b61028f61036f366004611c86565b6109b4565b34801561037f575f80fd5b5061026261038e366004611c1d565b610a74565b34801561039e575f80fd5b5061028f610acd565b3480156103b2575f80fd5b5061028f6103c1366004611d3b565b610ade565b61028f6103d4366004611c86565b610b1b565b3480156103e4575f80fd5b5061028f610b98565b3480156103f8575f80fd5b506097546040516001600160a01b0390911681526020016101ff565b34801561041f575f80fd5b506101f361042e366004611c58565b610bb0565b34801561043e575f80fd5b5061028f61044d366004611c86565b610bda565b34801561045d575f80fd5b5061028f610beb565b348015610471575f80fd5b506102625f81565b348015610484575f80fd5b506102276040518060400160405280601381526020017229b2b0b837b93a10283937bc3c90213abcb2b960691b81525081565b3480156104c2575f80fd5b506101f36104d1366004611b28565b610c04565b3480156104e1575f80fd5b506101f36104f0366004611c86565b610c55565b348015610500575f80fd5b506102625f8051602061273c83398151915281565b348015610520575f80fd5b5061028f61052f366004611c58565b610c6d565b34801561053f575f80fd5b506101f361054e366004611ddc565b610c91565b34801561055e575f80fd5b5061028f61056d366004611c86565b610de6565b34801561057d575f80fd5b5061028f61058c366004611e8f565b610e01565b34801561059c575f80fd5b5061022760405180604001604052806005815260200164302e302e3160d81b81525081565b5f6001600160e01b03198216637965db0b60e01b14806105f157506301ffc9a760e01b6001600160e01b03198316145b92915050565b60605f5a9050610608858585610c04565b61062557604051638baa579f60e01b815260040160405180910390fd5b6106b56106356020870187611c86565b3060408801358461064960608b018b611eb9565b8080601f0160208091040260200160405190810160405280939291908181526020018383808284375f9201919091525050604080516020601f8e018190048102820181019092528c815292508c91508b90819084018382808284375f92019190915250610ee792505050565b9150505b9392505050565b5f82815260fb60205260409020600101546106da81610fc5565b6106e48383610fd6565b505050565b6106f161105c565b6106fa816110d5565b50565b6107056110ec565b6001600160a01b0316816001600160a01b0316146107825760405162461bcd60e51b815260206004820152602f60248201527f416363657373436f6e74726f6c3a2063616e206f6e6c792072656e6f756e636560448201526e103937b632b9903337b91039b2b63360891b60648201526084015b60405180910390fd5b61078c82826110fa565b5050565b61079861105c565b6107a061117e565b6107a86111c8565b565b5f54610100900460ff16158080156107c857505f54600160ff909116105b806107e15750303b1580156107e157505f5460ff166001145b6108445760405162461bcd60e51b815260206004820152602e60248201527f496e697469616c697a61626c653a20636f6e747261637420697320616c72656160448201526d191e481a5b9a5d1a585b1a5e995960921b6064820152608401610779565b5f805460ff191660011790558015610865575f805461ff0019166101001790555b61015f80546001600160a01b03199081166001600160a01b03868116918217909355610160805490921692851692831790915560405163095ea7b360e01b815260048101919091525f19602482015263095ea7b3906044016020604051808303815f875af11580156108d9573d5f803e3d5ffd5b505050506040513d601f19601f820116820180604052508101906108fd9190611efc565b50610906611221565b61090e61124e565b61091661124e565b61091e611274565b6109266112aa565b61092e6112e1565b80156106e4575f805461ff0019169055604051600181527f7f26b83ff96e1f2b6a682f133852f6798a09c465da95921460cefb38474024989060200160405180910390a1505050565b61097f61105c565b5f5b815181101561078c576109ac82828151811061099f5761099f611f1b565b60200260200101516110d5565b600101610981565b6109bf6104f06110ec565b6109db5760405162461bcd60e51b815260040161077990611f2f565b6001600160a01b038116610a315760405162461bcd60e51b815260206004820152601d60248201527f4d696e746572526f6c653a2052454345495645525f49535f454d5054590000006044820152606401610779565b610a3a81611314565b610a42610beb565b6040516001600160a01b038216903480156108fc02915f818181858888f1935050505015801561078c573d5f803e3d5ffd5b604080517f1ee5d87a048b728f67073f282321992c260e5be4fa651d08665c5b4ee7a8381560208201529081018290525f90610ac6906060016040516020818303038152906040528051906020012090565b5492915050565b610ad561105c565b6107a85f61132b565b610ae661105c565b5f5b815181101561078c57610b13828281518110610b0657610b06611f1b565b6020026020010151611314565b600101610ae8565b610b266104f06110ec565b610b425760405162461bcd60e51b815260040161077990611f2f565b6001600160a01b038116610a3a5760405162461bcd60e51b815260206004820152601d60248201527f4d696e746572526f6c653a2052454345495645525f49535f454d5054590000006044820152606401610779565b610ba061105c565b610ba861137c565b6107a86113c3565b5f91825260fb602090815260408084206001600160a01b0393909316845291905290205460ff1690565b610be261105c565b6106fa81611314565b6107a85f8051602061273c8339815191526102ca6110ec565b5f610c4d610c1185611f64565b3085858080601f0160208091040260200160405190810160405280939291908181526020018383808284375f9201919091525061140292505050565b949350505050565b5f6105f15f8051602061273c83398151915283610bb0565b5f82815260fb6020526040902060010154610c8781610fc5565b6106e483836110fa565b5f610c9d6104f06110ec565b610cb95760405162461bcd60e51b815260040161077990611f2f565b600260335403610d0b5760405162461bcd60e51b815260206004820152601f60248201527f5265656e7472616e637947756172643a207265656e7472616e742063616c6c006044820152606401610779565b6002603355610d1861137c565b6001600160a01b038216610d3f576040516311d000e160e31b815260040160405180910390fd5b61015f546040516339eb2ac960e21b81526001600160a01b039091169063e7acab2490610d789089908990899089908990600401612398565b6020604051808303815f875af1158015610d94573d5f803e3d5ffd5b505050506040513d601f19601f82011682018060405250810190610db89190611efc565b905080610dd857604051636725093760e01b815260040160405180910390fd5b600160335595945050505050565b610dee61105c565b610df78161153d565b6106fa5f826115b3565b610e0961105c565b600260335403610e5b5760405162461bcd60e51b815260206004820152601f60248201527f5265656e7472616e637947756172643a207265656e7472616e742063616c6c006044820152606401610779565b6002603355610e6861137c565b6101605460405163a9059cbb60e01b81526001600160a01b038481166004830152602482018490529091169063a9059cbb906044016020604051808303815f875af1158015610eb9573d5f803e3d5ffd5b505050506040513d601f19601f82011682018060405250810190610edd9190611efc565b5050600160335550565b6060610ef2856115bd565b5f80876001600160a01b031686610f0b8b8a8989611622565b604051610f18919061256e565b5f604051808303815f8787f1925050503d805f8114610f52576040519150601f19603f3d011682016040523d82523d5f602084013e610f57565b606091505b509092509050610f68603f8761259d565b5a11610f7657610f766125bc565b610fb682826040518060400160405280601a81526020017f42617365466f727761726465723a2043414c4c5f4641494c4544000000000000815250611652565b925050505b9695505050505050565b6106fa81610fd16110ec565b61168b565b610fe08282610bb0565b61078c575f82815260fb602090815260408083206001600160a01b03851684529091529020805460ff191660011790556110186110ec565b6001600160a01b0316816001600160a01b0316837f2f8788117e7eff1d82e926ec794901d17c78024a50270940304540a733656f0d60405160405180910390a45050565b6110646110ec565b6001600160a01b031661107f6097546001600160a01b031690565b6001600160a01b0316146107a85760405162461bcd60e51b815260206004820181905260248201527f4f776e61626c653a2063616c6c6572206973206e6f7420746865206f776e65726044820152606401610779565b6106fa5f8051602061273c83398151915282610c6d565b5f6110f56116ef565b905090565b6111048282610bb0565b1561078c575f82815260fb602090815260408083206001600160a01b03851684529091529020805460ff1916905561113a6110ec565b6001600160a01b0316816001600160a01b0316837ff6391f5c32d9c69d2a47ea670b442974b53935d1edc7fd64eb21e047a839171b60405160405180910390a45050565b61012d5460ff166107a85760405162461bcd60e51b815260206004820152601460248201527314185d5cd8589b194e881b9bdd081c185d5cd95960621b6044820152606401610779565b6111d061117e565b61012d805460ff191690557f5db9ee0a495bf2e6ff9c91a7834c1ba4fdd244a5e8aa4e537bd38aeae4b073aa6112046110ec565b6040516001600160a01b03909116815260200160405180910390a1565b5f54610100900460ff166112475760405162461bcd60e51b8152600401610779906125d0565b6001603355565b5f54610100900460ff166107a85760405162461bcd60e51b8152600401610779906125d0565b5f54610100900460ff1661129a5760405162461bcd60e51b8152600401610779906125d0565b6107a86112a56110ec565b61132b565b5f54610100900460ff166112d05760405162461bcd60e51b8152600401610779906125d0565b6107a85f6112dc6110ec565b6115b3565b5f54610100900460ff166113075760405162461bcd60e51b8152600401610779906125d0565b61012d805460ff19169055565b6106fa5f8051602061273c833981519152826115b3565b609780546001600160a01b038381166001600160a01b0319831681179093556040519116919082907f8be0079c531659141344cd1fd0a4f28419497f9722a3daafe3b4186f6b6457e0905f90a35050565b61012d5460ff16156107a85760405162461bcd60e51b815260206004820152601060248201526f14185d5cd8589b194e881c185d5cd95960821b6044820152606401610779565b6113cb61137c565b61012d805460ff191660011790557f62e78cea01bee320cd4e420270b5ea74000d11b0c9f74754ebdbfc544b05a2586112046110ec565b6040838101519051636ccbae5f60e01b815260048101919091525f9081903090636ccbae5f90602401602060405180830381865afa158015611446573d5f803e3d5ffd5b505050506040513d601f19601f8201168201806040525081019061146a919061261b565b90505f6115178660600151805190602001208688602001516040516020016114b79392919092835260609190911b6bffffffffffffffffffffffff19166020830152603482015260540190565b60408051601f1981840301815282825280516020918201207f19457468657265756d205369676e6564204d6573736167653a0a33320000000084830152603c8085019190915282518085039091018152605c909301909152815191012090565b9050818660200151148015610fbb57508551610fbb906001600160a01b03168286611709565b61154561105c565b6001600160a01b0381166115aa5760405162461bcd60e51b815260206004820152602660248201527f4f776e61626c653a206e6577206f776e657220697320746865207a65726f206160448201526564647265737360d01b6064820152608401610779565b6106fa8161132b565b61078c8282610fd6565b604080517f1ee5d87a048b728f67073f282321992c260e5be4fa651d08665c5b4ee7a8381560208201529081018290525f906060016040516020818303038152906040528051906020012090506116118190565b5461161d906001612632565b905550565b606082858560405160200161163993929190612645565b6040516020818303038152906040529050949350505050565b606083156116615750816106b9565b8251156116715782518084602001fd5b8160405162461bcd60e51b81526004016107799190611c0b565b6116958282610bb0565b61078c576116ad816001600160a01b03166014611844565b6116b8836020611844565b6040516020016116c9929190612683565b60408051601f198184030181529082905262461bcd60e51b825261077991600401611c0b565b5f303303611704575060331936013560601c90565b503390565b5f805f61171685856119da565b90925090505f81600481111561172e5761172e612074565b14801561174c5750856001600160a01b0316826001600160a01b0316145b1561175c576001925050506106b9565b5f80876001600160a01b0316631626ba7e60e01b88886040516024016117839291906126f7565b60408051601f198184030181529181526020820180516001600160e01b03166001600160e01b03199094169390931790925290516117c1919061256e565b5f60405180830381855afa9150503d805f81146117f9576040519150601f19603f3d011682016040523d82523d5f602084013e6117fe565b606091505b5091509150818015611811575080516020145b801561183857508051630b135d3f60e11b90611836908301602090810190840161261b565b145b98975050505050505050565b60605f61185283600261270f565b61185d906002612632565b67ffffffffffffffff81111561187557611875611ccd565b6040519080825280601f01601f19166020018201604052801561189f576020820181803683370190505b509050600360fc1b815f815181106118b9576118b9611f1b565b60200101906001600160f81b03191690815f1a905350600f60fb1b816001815181106118e7576118e7611f1b565b60200101906001600160f81b03191690815f1a9053505f61190984600261270f565b611914906001612632565b90505b600181111561198b576f181899199a1a9b1b9c1cb0b131b232b360811b85600f166010811061194857611948611f1b565b1a60f81b82828151811061195e5761195e611f1b565b60200101906001600160f81b03191690815f1a90535060049490941c9361198481612726565b9050611917565b5083156106b95760405162461bcd60e51b815260206004820181905260248201527f537472696e67733a20686578206c656e67746820696e73756666696369656e746044820152606401610779565b5f808251604103611a0e576020830151604084015160608501515f1a611a0287828585611a1c565b94509450505050611a15565b505f905060025b9250929050565b5f807f7fffffffffffffffffffffffffffffff5d576e7357a4501ddfe92f46681b20a0831115611a5157505f90506003611af8565b8460ff16601b14158015611a6957508460ff16601c14155b15611a7957505f90506004611af8565b604080515f8082526020820180845289905260ff881692820192909252606081018690526080810185905260019060a0016020604051602081039080840390855afa158015611aca573d5f803e3d5ffd5b5050604051601f1901519150506001600160a01b038116611af2575f60019250925050611af8565b91505f90505b94509492505050565b5f60208284031215611b11575f80fd5b81356001600160e01b0319811681146106b9575f80fd5b5f805f60408486031215611b3a575f80fd5b833567ffffffffffffffff80821115611b51575f80fd5b9085019060808288031215611b64575f80fd5b90935060208501359080821115611b79575f80fd5b818601915086601f830112611b8c575f80fd5b813581811115611b9a575f80fd5b876020828501011115611bab575f80fd5b6020830194508093505050509250925092565b5f5b83811015611bd8578181015183820152602001611bc0565b50505f910152565b5f8151808452611bf7816020860160208601611bbe565b601f01601f19169290920160200192915050565b602081525f6106b96020830184611be0565b5f60208284031215611c2d575f80fd5b5035919050565b6001600160a01b03811681146106fa575f80fd5b8035611c5381611c34565b919050565b5f8060408385031215611c69575f80fd5b823591506020830135611c7b81611c34565b809150509250929050565b5f60208284031215611c96575f80fd5b81356106b981611c34565b5f8060408385031215611cb2575f80fd5b8235611cbd81611c34565b91506020830135611c7b81611c34565b634e487b7160e01b5f52604160045260245ffd5b6040516080810167ffffffffffffffff81118282101715611d0457611d04611ccd565b60405290565b604051601f8201601f1916810167ffffffffffffffff81118282101715611d3357611d33611ccd565b604052919050565b5f6020808385031215611d4c575f80fd5b823567ffffffffffffffff80821115611d63575f80fd5b818501915085601f830112611d76575f80fd5b813581811115611d8857611d88611ccd565b8060051b9150611d99848301611d0a565b8181529183018401918481019088841115611db2575f80fd5b938501935b838510156118385784359250611dcc83611c34565b8282529385019390850190611db7565b5f805f805f60808688031215611df0575f80fd5b853567ffffffffffffffff80821115611e07575f80fd5b9087019060a0828a031215611e1a575f80fd5b90955060208701359080821115611e2f575f80fd5b818801915088601f830112611e42575f80fd5b813581811115611e50575f80fd5b8960208260051b8501011115611e64575f80fd5b60208301965080955050505060408601359150611e8360608701611c48565b90509295509295909350565b5f8060408385031215611ea0575f80fd5b8235611eab81611c34565b946020939093013593505050565b5f808335601e19843603018112611ece575f80fd5b83018035915067ffffffffffffffff821115611ee8575f80fd5b602001915036819003821315611a15575f80fd5b5f60208284031215611f0c575f80fd5b815180151581146106b9575f80fd5b634e487b7160e01b5f52603260045260245ffd5b6020808252818101527f4d696e746572526f6c653a2043414c4c45525f49535f4e4f545f4d494e544552604082015260600190565b5f60808236031215611f74575f80fd5b611f7c611ce1565b8235611f8781611c34565b81526020838101358183015260408085013590830152606084013567ffffffffffffffff80821115611fb7575f80fd5b9085019036601f830112611fc9575f80fd5b813581811115611fdb57611fdb611ccd565b611fed601f8201601f19168501611d0a565b91508082523684828501011115612002575f80fd5b80848401858401375f9082019093019290925250606082015292915050565b5f808335601e19843603018112612036575f80fd5b830160208101925035905067ffffffffffffffff811115612055575f80fd5b60a081023603821315611a15575f80fd5b803560068110611c53575f80fd5b634e487b7160e01b5f52602160045260245ffd5b6006811061209857612098612074565b9052565b8183525f60208085019450825f5b8581101561210e576120c4876120bf84612066565b612088565b828201356120d181611c34565b6001600160a01b03168388015260408281013590880152606080830135908801526080808301359088015260a096870196909101906001016120aa565b509495945050505050565b5f808335601e1984360301811261212e575f80fd5b830160208101925035905067ffffffffffffffff81111561214d575f80fd5b60c081023603821315611a15575f80fd5b8183525f60208085019450825f5b8581101561210e57612181876120bf84612066565b8282013561218e81611c34565b6001600160a01b039081168885015260408381013590890152606080840135908901526080808401359089015260a090838201356121cb81611c34565b169088015260c096870196919091019060010161216c565b803560058110611c53575f80fd5b6005811061209857612098612074565b80356001600160781b0381168114611c53575f80fd5b5f808335601e1984360301811261222c575f80fd5b830160208101925035905067ffffffffffffffff81111561224b575f80fd5b803603821315611a15575f80fd5b81835281816020850137505f828201602090810191909152601f909101601f19169091010190565b8183525f6001600160fb1b03831115612298575f80fd5b8260051b80836020870137939093016020019392505050565b8183526020808401935f91600585811b8301820185855b8881101561238a57858303601f19018a52813536899003609e190181126122ed575f80fd5b88018035845260a08682013560028110612305575f80fd5b85880152604082810135908601526060808301359086015260808083013536849003601e19018112612335575f80fd5b90920187810192903567ffffffffffffffff811115612352575f80fd5b80881b3603841315612362575f80fd5b82828801526123748388018286612281565b9d89019d965050509286019250506001016122c8565b509098975050505050505050565b608081525f610120873561015e198936030181126123b4575f80fd5b60a0608085015288016123d98285016123cc83611c48565b6001600160a01b03169052565b6123e560208201611c48565b6101406123fc818701836001600160a01b03169052565b6124096040840184612021565b6101608881015292506124216102808801848361209c565b9250506124316060840184612119565b87840361011f190161018089015261244a84828461215e565b9350505061245a608084016121e3565b6124686101a08801826121f1565b5060a08301356101c087015260c08301356101e087015260e08301356102008701526101008084013561022088015284840135610240880152818401356102608801526124b760208d01612201565b6001600160781b03811660a089015294506124d460408d01612201565b6001600160781b03811660c089015294506124f260608d018d612217565b95509350607f199150818784030160e0880152612510838686612259565b945061251f60808d018d612217565b945092508187860301818801525050612539838383612259565b9250505082810360208401526125508187896122b1565b915050836040830152610fbb60608301846001600160a01b03169052565b5f825161257f818460208701611bbe565b9190910192915050565b634e487b7160e01b5f52601160045260245ffd5b5f826125b757634e487b7160e01b5f52601260045260245ffd5b500490565b634e487b7160e01b5f52600160045260245ffd5b6020808252602b908201527f496e697469616c697a61626c653a20636f6e7472616374206973206e6f74206960408201526a6e697469616c697a696e6760a81b606082015260800190565b5f6020828403121561262b575f80fd5b5051919050565b808201808211156105f1576105f1612589565b5f8451612656818460208901611bbe565b60609490941b6bffffffffffffffffffffffff191691909301908152601481019190915260340192915050565b7f416363657373436f6e74726f6c3a206163636f756e742000000000000000000081525f83516126ba816017850160208801611bbe565b7001034b99036b4b9b9b4b733903937b6329607d1b60179184019182015283516126eb816028840160208801611bbe565b01602801949350505050565b828152604060208201525f610c4d6040830184611be0565b80820281158282048414176105f1576105f1612589565b5f8161273457612734612589565b505f19019056fe9f2df0fed2c77648de5860a4cc508cd0818c85b8b8a1ab4ceeef8d981c8956a6a164736f6c6343000818000a",
  "linkReferences": {},
  "deployedLinkReferences": {}
}