{
  "_format": "hh-sol-artifact-1",
  "contractName": "Seaport",
  "sourceName": "seaport-core/src/Seaport.sol",
  "abi": [
    {
      "inputs": [
        {
          "internalType": "address",
          "name": "conduitController",
          "type": "address"
        }
      ],
      "stateMutability": "nonpayable",
      "type": "constructor"
    },
    {
      "inputs": [],
      "name": "BadContractSignature",
      "type": "error"
    },
    {
      "inputs": [],
      "name": "BadFraction",
      "type": "error"
    },
    {
      "inputs": [
        {
          "internalType": "address",
          "name": "token",
          "type": "address"
        },
        {
          "internalType": "address",
          "name": "from",
          "type": "address"
        },
        {
          "internalType": "address",
          "name": "to",
          "type": "address"
        },
        {
          "internalType": "uint256",
          "name": "amount",
          "type": "uint256"
        }
      ],
      "name": "BadReturnValueFromERC20OnTransfer",
      "type": "error"
    },
    {
      "inputs": [
        {
          "internalType": "uint8",
          "name": "v",
          "type": "uint8"
        }
      ],
      "name": "BadSignatureV",
      "type": "error"
    },
    {
      "inputs": [],
      "name": "CannotCancelOrder",
      "type": "error"
    },
    {
      "inputs": [],
      "name": "ConsiderationCriteriaResolverOutOfRange",
      "type": "error"
    },
    {
      "inputs": [],
      "name": "ConsiderationLengthNotEqualToTotalOriginal",
      "type": "error"
    },
    {
      "inputs": [
        {
          "internalType": "uint256",
          "name": "orderIndex",
          "type": "uint256"
        },
        {
          "internalType": "uint256",
          "name": "considerationIndex",
          "type": "uint256"
        },
        {
          "internalType": "uint256",
          "name": "shortfallAmount",
          "type": "uint256"
        }
      ],
      "name": "ConsiderationNotMet",
      "type": "error"
    },
    {
      "inputs": [],
      "name": "CriteriaNotEnabledForItem",
      "type": "error"
    },
    {
      "inputs": [
        {
          "internalType": "address",
          "name": "token",
          "type": "address"
        },
        {
          "internalType": "address",
          "name": "from",
          "type": "address"
        },
        {
          "internalType": "address",
          "name": "to",
          "type": "address"
        },
        {
          "internalType": "uint256[]",
          "name": "identifiers",
          "type": "uint256[]"
        },
        {
          "internalType": "uint256[]",
          "name": "amounts",
          "type": "uint256[]"
        }
      ],
      "name": "ERC1155BatchTransferGenericFailure",
      "type": "error"
    },
    {
      "inputs": [],
      "name": "InexactFraction",
      "type": "error"
    },
    {
      "inputs": [],
      "name": "InsufficientNativeTokensSupplied",
      "type": "error"
    },
    {
      "inputs": [],
      "name": "Invalid1155BatchTransferEncoding",
      "type": "error"
    },
    {
      "inputs": [],
      "name": "InvalidBasicOrderParameterEncoding",
      "type": "error"
    },
    {
      "inputs": [
        {
          "internalType": "address",
          "name": "conduit",
          "type": "address"
        }
      ],
      "name": "InvalidCallToConduit",
      "type": "error"
    },
    {
      "inputs": [
        {
          "internalType": "bytes32",
          "name": "conduitKey",
          "type": "bytes32"
        },
        {
          "internalType": "address",
          "name": "conduit",
          "type": "address"
        }
      ],
      "name": "InvalidConduit",
      "type": "error"
    },
    {
      "inputs": [
        {
          "internalType": "bytes32",
          "name": "orderHash",
          "type": "bytes32"
        }
      ],
      "name": "InvalidContractOrder",
      "type": "error"
    },
    {
      "inputs": [
        {
          "internalType": "uint256",
          "name": "amount",
          "type": "uint256"
        }
      ],
      "name": "InvalidERC721TransferAmount",
      "type": "error"
    },
    {
      "inputs": [],
      "name": "InvalidFulfillmentComponentData",
      "type": "error"
    },
    {
      "inputs": [
        {
          "internalType": "uint256",
          "name": "value",
          "type": "uint256"
        }
      ],
      "name": "InvalidMsgValue",
      "type": "error"
    },
    {
      "inputs": [],
      "name": "InvalidNativeOfferItem",
      "type": "error"
    },
    {
      "inputs": [],
      "name": "InvalidProof",
      "type": "error"
    },
    {
      "inputs": [
        {
          "internalType": "bytes32",
          "name": "orderHash",
          "type": "bytes32"
        }
      ],
      "name": "InvalidRestrictedOrder",
      "type": "error"
    },
    {
      "inputs": [],
      "name": "InvalidSignature",
      "type": "error"
    },
    {
      "inputs": [],
      "name": "InvalidSigner",
      "type": "error"
    },
    {
      "inputs": [
        {
          "internalType": "uint256",
          "name": "startTime",
          "type": "uint256"
        },
        {
          "internalType": "uint256",
          "name": "endTime",
          "type": "uint256"
        }
      ],
      "name": "InvalidTime",
      "type": "error"
    },
    {
      "inputs": [
        {
          "internalType": "uint256",
          "name": "fulfillmentIndex",
          "type": "uint256"
        }
      ],
      "name": "MismatchedFulfillmentOfferAndConsiderationComponents",
      "type": "error"
    },
    {
      "inputs": [
        {
          "internalType": "enum Side",
          "name": "side",
          "type": "uint8"
        }
      ],
      "name": "MissingFulfillmentComponentOnAggregation",
      "type": "error"
    },
    {
      "inputs": [],
      "name": "MissingItemAmount",
      "type": "error"
    },
    {
      "inputs": [],
      "name": "MissingOriginalConsiderationItems",
      "type": "error"
    },
    {
      "inputs": [
        {
          "internalType": "address",
          "name": "account",
          "type": "address"
        },
        {
          "internalType": "uint256",
          "name": "amount",
          "type": "uint256"
        }
      ],
      "name": "NativeTokenTransferGenericFailure",
      "type": "error"
    },
    {
      "inputs": [
        {
          "internalType": "address",
          "name": "account",
          "type": "address"
        }
      ],
      "name": "NoContract",
      "type": "error"
    },
    {
      "inputs": [],
      "name": "NoReentrantCalls",
      "type": "error"
    },
    {
      "inputs": [],
      "name": "NoSpecifiedOrdersAvailable",
      "type": "error"
    },
    {
      "inputs": [],
      "name": "OfferAndConsiderationRequiredOnFulfillment",
      "type": "error"
    },
    {
      "inputs": [],
      "name": "OfferCriteriaResolverOutOfRange",
      "type": "error"
    },
    {
      "inputs": [
        {
          "internalType": "bytes32",
          "name": "orderHash",
          "type": "bytes32"
        }
      ],
      "name": "OrderAlreadyFilled",
      "type": "error"
    },
    {
      "inputs": [
        {
          "internalType": "enum Side",
          "name": "side",
          "type": "uint8"
        }
      ],
      "name": "OrderCriteriaResolverOutOfRange",
      "type": "error"
    },
    {
      "inputs": [
        {
          "internalType": "bytes32",
          "name": "orderHash",
          "type": "bytes32"
        }
      ],
      "name": "OrderIsCancelled",
      "type": "error"
    },
    {
      "inputs": [
        {
          "internalType": "bytes32",
          "name": "orderHash",
          "type": "bytes32"
        }
      ],
      "name": "OrderPartiallyFilled",
      "type": "error"
    },
    {
      "inputs": [],
      "name": "PartialFillsNotEnabledForOrder",
      "type": "error"
    },
    {
      "inputs": [],
      "name": "TStoreAlreadyActivated",
      "type": "error"
    },
    {
      "inputs": [],
      "name": "TStoreNotSupported",
      "type": "error"
    },
    {
      "inputs": [],
      "name": "TloadTestContractDeploymentFailed",
      "type": "error"
    },
    {
      "inputs": [
        {
          "internalType": "address",
          "name": "token",
          "type": "address"
        },
        {
          "internalType": "address",
          "name": "from",
          "type": "address"
        },
        {
          "internalType": "address",
          "name": "to",
          "type": "address"
        },
        {
          "internalType": "uint256",
          "name": "identifier",
          "type": "uint256"
        },
        {
          "internalType": "uint256",
          "name": "amount",
          "type": "uint256"
        }
      ],
      "name": "TokenTransferGenericFailure",
      "type": "error"
    },
    {
      "inputs": [
        {
          "internalType": "uint256",
          "name": "orderIndex",
          "type": "uint256"
        },
        {
          "internalType": "uint256",
          "name": "considerationIndex",
          "type": "uint256"
        }
      ],
      "name": "UnresolvedConsiderationCriteria",
      "type": "error"
    },
    {
      "inputs": [
        {
          "internalType": "uint256",
          "name": "orderIndex",
          "type": "uint256"
        },
        {
          "internalType": "uint256",
          "name": "offerIndex",
          "type": "uint256"
        }
      ],
      "name": "UnresolvedOfferCriteria",
      "type": "error"
    },
    {
      "inputs": [],
      "name": "UnusedItemParameters",
      "type": "error"
    },
    {
      "anonymous": false,
      "inputs": [
        {
          "indexed": false,
          "internalType": "uint256",
          "name": "newCounter",
          "type": "uint256"
        },
        {
          "indexed": true,
          "internalType": "address",
          "name": "offerer",
          "type": "address"
        }
      ],
      "name": "CounterIncremented",
      "type": "event"
    },
    {
      "anonymous": false,
      "inputs": [
        {
          "indexed": false,
          "internalType": "bytes32",
          "name": "orderHash",
          "type": "bytes32"
        },
        {
          "indexed": true,
          "internalType": "address",
          "name": "offerer",
          "type": "address"
        },
        {
          "indexed": true,
          "internalType": "address",
          "name": "zone",
          "type": "address"
        }
      ],
      "name": "OrderCancelled",
      "type": "event"
    },
    {
      "anonymous": false,
      "inputs": [
        {
          "indexed": false,
          "internalType": "bytes32",
          "name": "orderHash",
          "type": "bytes32"
        },
        {
          "indexed": true,
          "internalType": "address",
          "name": "offerer",
          "type": "address"
        },
        {
          "indexed": true,
          "internalType": "address",
          "name": "zone",
          "type": "address"
        },
        {
          "indexed": false,
          "internalType": "address",
          "name": "recipient",
          "type": "address"
        },
        {
          "components": [
            {
              "internalType": "enum ItemType",
              "name": "itemType",
              "type": "uint8"
            },
            {
              "internalType": "address",
              "name": "token",
              "type": "address"
            },
            {
              "internalType": "uint256",
              "name": "identifier",
              "type": "uint256"
            },
            {
              "internalType": "uint256",
              "name": "amount",
              "type": "uint256"
            }
          ],
          "indexed": false,
          "internalType": "struct SpentItem[]",
          "name": "offer",
          "type": "tuple[]"
        },
        {
          "components": [
            {
              "internalType": "enum ItemType",
              "name": "itemType",
              "type": "uint8"
            },
            {
              "internalType": "address",
              "name": "token",
              "type": "address"
            },
            {
              "internalType": "uint256",
              "name": "identifier",
              "type": "uint256"
            },
            {
              "internalType": "uint256",
              "name": "amount",
              "type": "uint256"
            },
            {
              "internalType": "address payable",
              "name": "recipient",
              "type": "address"
            }
          ],
          "indexed": false,
          "internalType": "struct ReceivedItem[]",
          "name": "consideration",
          "type": "tuple[]"
        }
      ],
      "name": "OrderFulfilled",
      "type": "event"
    },
    {
      "anonymous": false,
      "inputs": [
        {
          "indexed": false,
          "internalType": "bytes32",
          "name": "orderHash",
          "type": "bytes32"
        },
        {
          "components": [
            {
              "internalType": "address",
              "name": "offerer",
              "type": "address"
            },
            {
              "internalType": "address",
              "name": "zone",
              "type": "address"
            },
            {
              "components": [
                {
                  "internalType": "enum ItemType",
                  "name": "itemType",
                  "type": "uint8"
                },
                {
                  "internalType": "address",
                  "name": "token",
                  "type": "address"
                },
                {
                  "internalType": "uint256",
                  "name": "identifierOrCriteria",
                  "type": "uint256"
                },
                {
                  "internalType": "uint256",
                  "name": "startAmount",
                  "type": "uint256"
                },
                {
                  "internalType": "uint256",
                  "name": "endAmount",
                  "type": "uint256"
                }
              ],
              "internalType": "struct OfferItem[]",
              "name": "offer",
              "type": "tuple[]"
            },
            {
              "components": [
                {
                  "internalType": "enum ItemType",
                  "name": "itemType",
                  "type": "uint8"
                },
                {
                  "internalType": "address",
                  "name": "token",
                  "type": "address"
                },
                {
                  "internalType": "uint256",
                  "name": "identifierOrCriteria",
                  "type": "uint256"
                },
                {
                  "internalType": "uint256",
                  "name": "startAmount",
                  "type": "uint256"
                },
                {
                  "internalType": "uint256",
                  "name": "endAmount",
                  "type": "uint256"
                },
                {
                  "internalType": "address payable",
                  "name": "recipient",
                  "type": "address"
                }
              ],
              "internalType": "struct ConsiderationItem[]",
              "name": "consideration",
              "type": "tuple[]"
            },
            {
              "internalType": "enum OrderType",
              "name": "orderType",
              "type": "uint8"
            },
            {
              "internalType": "uint256",
              "name": "startTime",
              "type": "uint256"
            },
            {
              "internalType": "uint256",
              "name": "endTime",
              "type": "uint256"
            },
            {
              "internalType": "bytes32",
              "name": "zoneHash",
              "type": "bytes32"
            },
            {
              "internalType": "uint256",
              "name": "salt",
              "type": "uint256"
            },
            {
              "internalType": "bytes32",
              "name": "conduitKey",
              "type": "bytes32"
            },
            {
              "internalType": "uint256",
              "name": "totalOriginalConsiderationItems",
              "type": "uint256"
            }
          ],
          "indexed": false,
          "internalType": "struct OrderParameters",
          "name": "orderParameters",
          "type": "tuple"
        }
      ],
      "name": "OrderValidated",
      "type": "event"
    },
    {
      "anonymous": false,
      "inputs": [
        {
          "indexed": false,
          "internalType": "bytes32[]",
          "name": "orderHashes",
          "type": "bytes32[]"
        }
      ],
      "name": "OrdersMatched",
      "type": "event"
    },
    {
      "inputs": [],
      "name": "__activateTstore",
      "outputs": [],
      "stateMutability": "nonpayable",
      "type": "function"
    },
    {
      "inputs": [
        {
          "components": [
            {
              "internalType": "address",
              "name": "offerer",
              "type": "address"
            },
            {
              "internalType": "address",
              "name": "zone",
              "type": "address"
            },
            {
              "components": [
                {
                  "internalType": "enum ItemType",
                  "name": "itemType",
                  "type": "uint8"
                },
                {
                  "internalType": "address",
                  "name": "token",
                  "type": "address"
                },
                {
                  "internalType": "uint256",
                  "name": "identifierOrCriteria",
                  "type": "uint256"
                },
                {
                  "internalType": "uint256",
                  "name": "startAmount",
                  "type": "uint256"
                },
                {
                  "internalType": "uint256",
                  "name": "endAmount",
                  "type": "uint256"
                }
              ],
              "internalType": "struct OfferItem[]",
              "name": "offer",
              "type": "tuple[]"
            },
            {
              "components": [
                {
                  "internalType": "enum ItemType",
                  "name": "itemType",
                  "type": "uint8"
                },
                {
                  "internalType": "address",
                  "name": "token",
                  "type": "address"
                },
                {
                  "internalType": "uint256",
                  "name": "identifierOrCriteria",
                  "type": "uint256"
                },
                {
                  "internalType": "uint256",
                  "name": "startAmount",
                  "type": "uint256"
                },
                {
                  "internalType": "uint256",
                  "name": "endAmount",
                  "type": "uint256"
                },
                {
                  "internalType": "address payable",
                  "name": "recipient",
                  "type": "address"
                }
              ],
              "internalType": "struct ConsiderationItem[]",
              "name": "consideration",
              "type": "tuple[]"
            },
            {
              "internalType": "enum OrderType",
              "name": "orderType",
              "type": "uint8"
            },
            {
              "internalType": "uint256",
              "name": "startTime",
              "type": "uint256"
            },
            {
              "internalType": "uint256",
              "name": "endTime",
              "type": "uint256"
            },
            {
              "internalType": "bytes32",
              "name": "zoneHash",
              "type": "bytes32"
            },
            {
              "internalType": "uint256",
              "name": "salt",
              "type": "uint256"
            },
            {
              "internalType": "bytes32",
              "name": "conduitKey",
              "type": "bytes32"
            },
            {
              "internalType": "uint256",
              "name": "counter",
              "type": "uint256"
            }
          ],
          "internalType": "struct OrderComponents[]",
          "name": "orders",
          "type": "tuple[]"
        }
      ],
      "name": "cancel",
      "outputs": [
        {
          "internalType": "bool",
          "name": "cancelled",
          "type": "bool"
        }
      ],
      "stateMutability": "nonpayable",
      "type": "function"
    },
    {
      "inputs": [
        {
          "components": [
            {
              "components": [
                {
                  "internalType": "address",
                  "name": "offerer",
                  "type": "address"
                },
                {
                  "internalType": "address",
                  "name": "zone",
                  "type": "address"
                },
                {
                  "components": [
                    {
                      "internalType": "enum ItemType",
                      "name": "itemType",
                      "type": "uint8"
                    },
                    {
                      "internalType": "address",
                      "name": "token",
                      "type": "address"
                    },
                    {
                      "internalType": "uint256",
                      "name": "identifierOrCriteria",
                      "type": "uint256"
                    },
                    {
                      "internalType": "uint256",
                      "name": "startAmount",
                      "type": "uint256"
                    },
                    {
                      "internalType": "uint256",
                      "name": "endAmount",
                      "type": "uint256"
                    }
                  ],
                  "internalType": "struct OfferItem[]",
                  "name": "offer",
                  "type": "tuple[]"
                },
                {
                  "components": [
                    {
                      "internalType": "enum ItemType",
                      "name": "itemType",
                      "type": "uint8"
                    },
                    {
                      "internalType": "address",
                      "name": "token",
                      "type": "address"
                    },
                    {
                      "internalType": "uint256",
                      "name": "identifierOrCriteria",
                      "type": "uint256"
                    },
                    {
                      "internalType": "uint256",
                      "name": "startAmount",
                      "type": "uint256"
                    },
                    {
                      "internalType": "uint256",
                      "name": "endAmount",
                      "type": "uint256"
                    },
                    {
                      "internalType": "address payable",
                      "name": "recipient",
                      "type": "address"
                    }
                  ],
                  "internalType": "struct ConsiderationItem[]",
                  "name": "consideration",
                  "type": "tuple[]"
                },
                {
                  "internalType": "enum OrderType",
                  "name": "orderType",
                  "type": "uint8"
                },
                {
                  "internalType": "uint256",
                  "name": "startTime",
                  "type": "uint256"
                },
                {
                  "internalType": "uint256",
                  "name": "endTime",
                  "type": "uint256"
                },
                {
                  "internalType": "bytes32",
                  "name": "zoneHash",
                  "type": "bytes32"
                },
                {
                  "internalType": "uint256",
                  "name": "salt",
                  "type": "uint256"
                },
                {
                  "internalType": "bytes32",
                  "name": "conduitKey",
                  "type": "bytes32"
                },
                {
                  "internalType": "uint256",
                  "name": "totalOriginalConsiderationItems",
                  "type": "uint256"
                }
              ],
              "internalType": "struct OrderParameters",
              "name": "parameters",
              "type": "tuple"
            },
            {
              "internalType": "uint120",
              "name": "numerator",
              "type": "uint120"
            },
            {
              "internalType": "uint120",
              "name": "denominator",
              "type": "uint120"
            },
            {
              "internalType": "bytes",
              "name": "signature",
              "type": "bytes"
            },
            {
              "internalType": "bytes",
              "name": "extraData",
              "type": "bytes"
            }
          ],
          "internalType": "struct AdvancedOrder",
          "name": "",
          "type": "tuple"
        },
        {
          "components": [
            {
              "internalType": "uint256",
              "name": "orderIndex",
              "type": "uint256"
            },
            {
              "internalType": "enum Side",
              "name": "side",
              "type": "uint8"
            },
            {
              "internalType": "uint256",
              "name": "index",
              "type": "uint256"
            },
            {
              "internalType": "uint256",
              "name": "identifier",
              "type": "uint256"
            },
            {
              "internalType": "bytes32[]",
              "name": "criteriaProof",
              "type": "bytes32[]"
            }
          ],
          "internalType": "struct CriteriaResolver[]",
          "name": "",
          "type": "tuple[]"
        },
        {
          "internalType": "bytes32",
          "name": "fulfillerConduitKey",
          "type": "bytes32"
        },
        {
          "internalType": "address",
          "name": "recipient",
          "type": "address"
        }
      ],
      "name": "fulfillAdvancedOrder",
      "outputs": [
        {
          "internalType": "bool",
          "name": "fulfilled",
          "type": "bool"
        }
      ],
      "stateMutability": "payable",
      "type": "function"
    },
    {
      "inputs": [
        {
          "components": [
            {
              "components": [
                {
                  "internalType": "address",
                  "name": "offerer",
                  "type": "address"
                },
                {
                  "internalType": "address",
                  "name": "zone",
                  "type": "address"
                },
                {
                  "components": [
                    {
                      "internalType": "enum ItemType",
                      "name": "itemType",
                      "type": "uint8"
                    },
                    {
                      "internalType": "address",
                      "name": "token",
                      "type": "address"
                    },
                    {
                      "internalType": "uint256",
                      "name": "identifierOrCriteria",
                      "type": "uint256"
                    },
                    {
                      "internalType": "uint256",
                      "name": "startAmount",
                      "type": "uint256"
                    },
                    {
                      "internalType": "uint256",
                      "name": "endAmount",
                      "type": "uint256"
                    }
                  ],
                  "internalType": "struct OfferItem[]",
                  "name": "offer",
                  "type": "tuple[]"
                },
                {
                  "components": [
                    {
                      "internalType": "enum ItemType",
                      "name": "itemType",
                      "type": "uint8"
                    },
                    {
                      "internalType": "address",
                      "name": "token",
                      "type": "address"
                    },
                    {
                      "internalType": "uint256",
                      "name": "identifierOrCriteria",
                      "type": "uint256"
                    },
                    {
                      "internalType": "uint256",
                      "name": "startAmount",
                      "type": "uint256"
                    },
                    {
                      "internalType": "uint256",
                      "name": "endAmount",
                      "type": "uint256"
                    },
                    {
                      "internalType": "address payable",
                      "name": "recipient",
                      "type": "address"
                    }
                  ],
                  "internalType": "struct ConsiderationItem[]",
                  "name": "consideration",
                  "type": "tuple[]"
                },
                {
                  "internalType": "enum OrderType",
                  "name": "orderType",
                  "type": "uint8"
                },
                {
                  "internalType": "uint256",
                  "name": "startTime",
                  "type": "uint256"
                },
                {
                  "internalType": "uint256",
                  "name": "endTime",
                  "type": "uint256"
                },
                {
                  "internalType": "bytes32",
                  "name": "zoneHash",
                  "type": "bytes32"
                },
                {
                  "internalType": "uint256",
                  "name": "salt",
                  "type": "uint256"
                },
                {
                  "internalType": "bytes32",
                  "name": "conduitKey",
                  "type": "bytes32"
                },
                {
                  "internalType": "uint256",
                  "name": "totalOriginalConsiderationItems",
                  "type": "uint256"
                }
              ],
              "internalType": "struct OrderParameters",
              "name": "parameters",
              "type": "tuple"
            },
            {
              "internalType": "uint120",
              "name": "numerator",
              "type": "uint120"
            },
            {
              "internalType": "uint120",
              "name": "denominator",
              "type": "uint120"
            },
            {
              "internalType": "bytes",
              "name": "signature",
              "type": "bytes"
            },
            {
              "internalType": "bytes",
              "name": "extraData",
              "type": "bytes"
            }
          ],
          "internalType": "struct AdvancedOrder[]",
          "name": "",
          "type": "tuple[]"
        },
        {
          "components": [
            {
              "internalType": "uint256",
              "name": "orderIndex",
              "type": "uint256"
            },
            {
              "internalType": "enum Side",
              "name": "side",
              "type": "uint8"
            },
            {
              "internalType": "uint256",
              "name": "index",
              "type": "uint256"
            },
            {
              "internalType": "uint256",
              "name": "identifier",
              "type": "uint256"
            },
            {
              "internalType": "bytes32[]",
              "name": "criteriaProof",
              "type": "bytes32[]"
            }
          ],
          "internalType": "struct CriteriaResolver[]",
          "name": "",
          "type": "tuple[]"
        },
        {
          "components": [
            {
              "internalType": "uint256",
              "name": "orderIndex",
              "type": "uint256"
            },
            {
              "internalType": "uint256",
              "name": "itemIndex",
              "type": "uint256"
            }
          ],
          "internalType": "struct FulfillmentComponent[][]",
          "name": "",
          "type": "tuple[][]"
        },
        {
          "components": [
            {
              "internalType": "uint256",
              "name": "orderIndex",
              "type": "uint256"
            },
            {
              "internalType": "uint256",
              "name": "itemIndex",
              "type": "uint256"
            }
          ],
          "internalType": "struct FulfillmentComponent[][]",
          "name": "",
          "type": "tuple[][]"
        },
        {
          "internalType": "bytes32",
          "name": "fulfillerConduitKey",
          "type": "bytes32"
        },
        {
          "internalType": "address",
          "name": "recipient",
          "type": "address"
        },
        {
          "internalType": "uint256",
          "name": "maximumFulfilled",
          "type": "uint256"
        }
      ],
      "name": "fulfillAvailableAdvancedOrders",
      "outputs": [
        {
          "internalType": "bool[]",
          "name": "",
          "type": "bool[]"
        },
        {
          "components": [
            {
              "components": [
                {
                  "internalType": "enum ItemType",
                  "name": "itemType",
                  "type": "uint8"
                },
                {
                  "internalType": "address",
                  "name": "token",
                  "type": "address"
                },
                {
                  "internalType": "uint256",
                  "name": "identifier",
                  "type": "uint256"
                },
                {
                  "internalType": "uint256",
                  "name": "amount",
                  "type": "uint256"
                },
                {
                  "internalType": "address payable",
                  "name": "recipient",
                  "type": "address"
                }
              ],
              "internalType": "struct ReceivedItem",
              "name": "item",
              "type": "tuple"
            },
            {
              "internalType": "address",
              "name": "offerer",
              "type": "address"
            },
            {
              "internalType": "bytes32",
              "name": "conduitKey",
              "type": "bytes32"
            }
          ],
          "internalType": "struct Execution[]",
          "name": "",
          "type": "tuple[]"
        }
      ],
      "stateMutability": "payable",
      "type": "function"
    },
    {
      "inputs": [
        {
          "components": [
            {
              "components": [
                {
                  "internalType": "address",
                  "name": "offerer",
                  "type": "address"
                },
                {
                  "internalType": "address",
                  "name": "zone",
                  "type": "address"
                },
                {
                  "components": [
                    {
                      "internalType": "enum ItemType",
                      "name": "itemType",
                      "type": "uint8"
                    },
                    {
                      "internalType": "address",
                      "name": "token",
                      "type": "address"
                    },
                    {
                      "internalType": "uint256",
                      "name": "identifierOrCriteria",
                      "type": "uint256"
                    },
                    {
                      "internalType": "uint256",
                      "name": "startAmount",
                      "type": "uint256"
                    },
                    {
                      "internalType": "uint256",
                      "name": "endAmount",
                      "type": "uint256"
                    }
                  ],
                  "internalType": "struct OfferItem[]",
                  "name": "offer",
                  "type": "tuple[]"
                },
                {
                  "components": [
                    {
                      "internalType": "enum ItemType",
                      "name": "itemType",
                      "type": "uint8"
                    },
                    {
                      "internalType": "address",
                      "name": "token",
                      "type": "address"
                    },
                    {
                      "internalType": "uint256",
                      "name": "identifierOrCriteria",
                      "type": "uint256"
                    },
                    {
                      "internalType": "uint256",
                      "name": "startAmount",
                      "type": "uint256"
                    },
                    {
                      "internalType": "uint256",
                      "name": "endAmount",
                      "type": "uint256"
                    },
                    {
                      "internalType": "address payable",
                      "name": "recipient",
                      "type": "address"
                    }
                  ],
                  "internalType": "struct ConsiderationItem[]",
                  "name": "consideration",
                  "type": "tuple[]"
                },
                {
                  "internalType": "enum OrderType",
                  "name": "orderType",
                  "type": "uint8"
                },
                {
                  "internalType": "uint256",
                  "name": "startTime",
                  "type": "uint256"
                },
                {
                  "internalType": "uint256",
                  "name": "endTime",
                  "type": "uint256"
                },
                {
                  "internalType": "bytes32",
                  "name": "zoneHash",
                  "type": "bytes32"
                },
                {
                  "internalType": "uint256",
                  "name": "salt",
                  "type": "uint256"
                },
                {
                  "internalType": "bytes32",
                  "name": "conduitKey",
                  "type": "bytes32"
                },
                {
                  "internalType": "uint256",
                  "name": "totalOriginalConsiderationItems",
                  "type": "uint256"
                }
              ],
              "internalType": "struct OrderParameters",
              "name": "parameters",
              "type": "tuple"
            },
            {
              "internalType": "bytes",
              "name": "signature",
              "type": "bytes"
            }
          ],
          "internalType": "struct Order[]",
          "name": "",
          "type": "tuple[]"
        },
        {
          "components": [
            {
              "internalType": "uint256",
              "name": "orderIndex",
              "type": "uint256"
            },
            {
              "internalType": "uint256",
              "name": "itemIndex",
              "type": "uint256"
            }
          ],
          "internalType": "struct FulfillmentComponent[][]",
          "name": "",
          "type": "tuple[][]"
        },
        {
          "components": [
            {
              "internalType": "uint256",
              "name": "orderIndex",
              "type": "uint256"
            },
            {
              "internalType": "uint256",
              "name": "itemIndex",
              "type": "uint256"
            }
          ],
          "internalType": "struct FulfillmentComponent[][]",
          "name": "",
          "type": "tuple[][]"
        },
        {
          "internalType": "bytes32",
          "name": "fulfillerConduitKey",
          "type": "bytes32"
        },
        {
          "internalType": "uint256",
          "name": "maximumFulfilled",
          "type": "uint256"
        }
      ],
      "name": "fulfillAvailableOrders",
      "outputs": [
        {
          "internalType": "bool[]",
          "name": "",
          "type": "bool[]"
        },
        {
          "components": [
            {
              "components": [
                {
                  "internalType": "enum ItemType",
                  "name": "itemType",
                  "type": "uint8"
                },
                {
                  "internalType": "address",
                  "name": "token",
                  "type": "address"
                },
                {
                  "internalType": "uint256",
                  "name": "identifier",
                  "type": "uint256"
                },
                {
                  "internalType": "uint256",
                  "name": "amount",
                  "type": "uint256"
                },
                {
                  "internalType": "address payable",
                  "name": "recipient",
                  "type": "address"
                }
              ],
              "internalType": "struct ReceivedItem",
              "name": "item",
              "type": "tuple"
            },
            {
              "internalType": "address",
              "name": "offerer",
              "type": "address"
            },
            {
              "internalType": "bytes32",
              "name": "conduitKey",
              "type": "bytes32"
            }
          ],
          "internalType": "struct Execution[]",
          "name": "",
          "type": "tuple[]"
        }
      ],
      "stateMutability": "payable",
      "type": "function"
    },
    {
      "inputs": [
        {
          "components": [
            {
              "internalType": "address",
              "name": "considerationToken",
              "type": "address"
            },
            {
              "internalType": "uint256",
              "name": "considerationIdentifier",
              "type": "uint256"
            },
            {
              "internalType": "uint256",
              "name": "considerationAmount",
              "type": "uint256"
            },
            {
              "internalType": "address payable",
              "name": "offerer",
              "type": "address"
            },
            {
              "internalType": "address",
              "name": "zone",
              "type": "address"
            },
            {
              "internalType": "address",
              "name": "offerToken",
              "type": "address"
            },
            {
              "internalType": "uint256",
              "name": "offerIdentifier",
              "type": "uint256"
            },
            {
              "internalType": "uint256",
              "name": "offerAmount",
              "type": "uint256"
            },
            {
              "internalType": "enum BasicOrderType",
              "name": "basicOrderType",
              "type": "uint8"
            },
            {
              "internalType": "uint256",
              "name": "startTime",
              "type": "uint256"
            },
            {
              "internalType": "uint256",
              "name": "endTime",
              "type": "uint256"
            },
            {
              "internalType": "bytes32",
              "name": "zoneHash",
              "type": "bytes32"
            },
            {
              "internalType": "uint256",
              "name": "salt",
              "type": "uint256"
            },
            {
              "internalType": "bytes32",
              "name": "offererConduitKey",
              "type": "bytes32"
            },
            {
              "internalType": "bytes32",
              "name": "fulfillerConduitKey",
              "type": "bytes32"
            },
            {
              "internalType": "uint256",
              "name": "totalOriginalAdditionalRecipients",
              "type": "uint256"
            },
            {
              "components": [
                {
                  "internalType": "uint256",
                  "name": "amount",
                  "type": "uint256"
                },
                {
                  "internalType": "address payable",
                  "name": "recipient",
                  "type": "address"
                }
              ],
              "internalType": "struct AdditionalRecipient[]",
              "name": "additionalRecipients",
              "type": "tuple[]"
            },
            {
              "internalType": "bytes",
              "name": "signature",
              "type": "bytes"
            }
          ],
          "internalType": "struct BasicOrderParameters",
          "name": "",
          "type": "tuple"
        }
      ],
      "name": "fulfillBasicOrder",
      "outputs": [
        {
          "internalType": "bool",
          "name": "fulfilled",
          "type": "bool"
        }
      ],
      "stateMutability": "payable",
      "type": "function"
    },
    {
      "inputs": [
        {
          "components": [
            {
              "internalType": "address",
              "name": "considerationToken",
              "type": "address"
            },
            {
              "internalType": "uint256",
              "name": "considerationIdentifier",
              "type": "uint256"
            },
            {
              "internalType": "uint256",
              "name": "considerationAmount",
              "type": "uint256"
            },
            {
              "internalType": "address payable",
              "name": "offerer",
              "type": "address"
            },
            {
              "internalType": "address",
              "name": "zone",
              "type": "address"
            },
            {
              "internalType": "address",
              "name": "offerToken",
              "type": "address"
            },
            {
              "internalType": "uint256",
              "name": "offerIdentifier",
              "type": "uint256"
            },
            {
              "internalType": "uint256",
              "name": "offerAmount",
              "type": "uint256"
            },
            {
              "internalType": "enum BasicOrderType",
              "name": "basicOrderType",
              "type": "uint8"
            },
            {
              "internalType": "uint256",
              "name": "startTime",
              "type": "uint256"
            },
            {
              "internalType": "uint256",
              "name": "endTime",
              "type": "uint256"
            },
            {
              "internalType": "bytes32",
              "name": "zoneHash",
              "type": "bytes32"
            },
            {
              "internalType": "uint256",
              "name": "salt",
              "type": "uint256"
            },
            {
              "internalType": "bytes32",
              "name": "offererConduitKey",
              "type": "bytes32"
            },
            {
              "internalType": "bytes32",
              "name": "fulfillerConduitKey",
              "type": "bytes32"
            },
            {
              "internalType": "uint256",
              "name": "totalOriginalAdditionalRecipients",
              "type": "uint256"
            },
            {
              "components": [
                {
                  "internalType": "uint256",
                  "name": "amount",
                  "type": "uint256"
                },
                {
                  "internalType": "address payable",
                  "name": "recipient",
                  "type": "address"
                }
              ],
              "internalType": "struct AdditionalRecipient[]",
              "name": "additionalRecipients",
              "type": "tuple[]"
            },
            {
              "internalType": "bytes",
              "name": "signature",
              "type": "bytes"
            }
          ],
          "internalType": "struct BasicOrderParameters",
          "name": "",
          "type": "tuple"
        }
      ],
      "name": "fulfillBasicOrder_efficient_6GL6yc",
      "outputs": [
        {
          "internalType": "bool",
          "name": "fulfilled",
          "type": "bool"
        }
      ],
      "stateMutability": "payable",
      "type": "function"
    },
    {
      "inputs": [
        {
          "components": [
            {
              "components": [
                {
                  "internalType": "address",
                  "name": "offerer",
                  "type": "address"
                },
                {
                  "internalType": "address",
                  "name": "zone",
                  "type": "address"
                },
                {
                  "components": [
                    {
                      "internalType": "enum ItemType",
                      "name": "itemType",
                      "type": "uint8"
                    },
                    {
                      "internalType": "address",
                      "name": "token",
                      "type": "address"
                    },
                    {
                      "internalType": "uint256",
                      "name": "identifierOrCriteria",
                      "type": "uint256"
                    },
                    {
                      "internalType": "uint256",
                      "name": "startAmount",
                      "type": "uint256"
                    },
                    {
                      "internalType": "uint256",
                      "name": "endAmount",
                      "type": "uint256"
                    }
                  ],
                  "internalType": "struct OfferItem[]",
                  "name": "offer",
                  "type": "tuple[]"
                },
                {
                  "components": [
                    {
                      "internalType": "enum ItemType",
                      "name": "itemType",
                      "type": "uint8"
                    },
                    {
                      "internalType": "address",
                      "name": "token",
                      "type": "address"
                    },
                    {
                      "internalType": "uint256",
                      "name": "identifierOrCriteria",
                      "type": "uint256"
                    },
                    {
                      "internalType": "uint256",
                      "name": "startAmount",
                      "type": "uint256"
                    },
                    {
                      "internalType": "uint256",
                      "name": "endAmount",
                      "type": "uint256"
                    },
                    {
                      "internalType": "address payable",
                      "name": "recipient",
                      "type": "address"
                    }
                  ],
                  "internalType": "struct ConsiderationItem[]",
                  "name": "consideration",
                  "type": "tuple[]"
                },
                {
                  "internalType": "enum OrderType",
                  "name": "orderType",
                  "type": "uint8"
                },
                {
                  "internalType": "uint256",
                  "name": "startTime",
                  "type": "uint256"
                },
                {
                  "internalType": "uint256",
                  "name": "endTime",
                  "type": "uint256"
                },
                {
                  "internalType": "bytes32",
                  "name": "zoneHash",
                  "type": "bytes32"
                },
                {
                  "internalType": "uint256",
                  "name": "salt",
                  "type": "uint256"
                },
                {
                  "internalType": "bytes32",
                  "name": "conduitKey",
                  "type": "bytes32"
                },
                {
                  "internalType": "uint256",
                  "name": "totalOriginalConsiderationItems",
                  "type": "uint256"
                }
              ],
              "internalType": "struct OrderParameters",
              "name": "parameters",
              "type": "tuple"
            },
            {
              "internalType": "bytes",
              "name": "signature",
              "type": "bytes"
            }
          ],
          "internalType": "struct Order",
          "name": "",
          "type": "tuple"
        },
        {
          "internalType": "bytes32",
          "name": "fulfillerConduitKey",
          "type": "bytes32"
        }
      ],
      "name": "fulfillOrder",
      "outputs": [
        {
          "internalType": "bool",
          "name": "fulfilled",
          "type": "bool"
        }
      ],
      "stateMutability": "payable",
      "type": "function"
    },
    {
      "inputs": [
        {
          "internalType": "address",
          "name": "contractOfferer",
          "type": "address"
        }
      ],
      "name": "getContractOffererNonce",
      "outputs": [
        {
          "internalType": "uint256",
          "name": "nonce",
          "type": "uint256"
        }
      ],
      "stateMutability": "view",
      "type": "function"
    },
    {
      "inputs": [
        {
          "internalType": "address",
          "name": "offerer",
          "type": "address"
        }
      ],
      "name": "getCounter",
      "outputs": [
        {
          "internalType": "uint256",
          "name": "counter",
          "type": "uint256"
        }
      ],
      "stateMutability": "view",
      "type": "function"
    },
    {
      "inputs": [
        {
          "components": [
            {
              "internalType": "address",
              "name": "offerer",
              "type": "address"
            },
            {
              "internalType": "address",
              "name": "zone",
              "type": "address"
            },
            {
              "components": [
                {
                  "internalType": "enum ItemType",
                  "name": "itemType",
                  "type": "uint8"
                },
                {
                  "internalType": "address",
                  "name": "token",
                  "type": "address"
                },
                {
                  "internalType": "uint256",
                  "name": "identifierOrCriteria",
                  "type": "uint256"
                },
                {
                  "internalType": "uint256",
                  "name": "startAmount",
                  "type": "uint256"
                },
                {
                  "internalType": "uint256",
                  "name": "endAmount",
                  "type": "uint256"
                }
              ],
              "internalType": "struct OfferItem[]",
              "name": "offer",
              "type": "tuple[]"
            },
            {
              "components": [
                {
                  "internalType": "enum ItemType",
                  "name": "itemType",
                  "type": "uint8"
                },
                {
                  "internalType": "address",
                  "name": "token",
                  "type": "address"
                },
                {
                  "internalType": "uint256",
                  "name": "identifierOrCriteria",
                  "type": "uint256"
                },
                {
                  "internalType": "uint256",
                  "name": "startAmount",
                  "type": "uint256"
                },
                {
                  "internalType": "uint256",
                  "name": "endAmount",
                  "type": "uint256"
                },
                {
                  "internalType": "address payable",
                  "name": "recipient",
                  "type": "address"
                }
              ],
              "internalType": "struct ConsiderationItem[]",
              "name": "consideration",
              "type": "tuple[]"
            },
            {
              "internalType": "enum OrderType",
              "name": "orderType",
              "type": "uint8"
            },
            {
              "internalType": "uint256",
              "name": "startTime",
              "type": "uint256"
            },
            {
              "internalType": "uint256",
              "name": "endTime",
              "type": "uint256"
            },
            {
              "internalType": "bytes32",
              "name": "zoneHash",
              "type": "bytes32"
            },
            {
              "internalType": "uint256",
              "name": "salt",
              "type": "uint256"
            },
            {
              "internalType": "bytes32",
              "name": "conduitKey",
              "type": "bytes32"
            },
            {
              "internalType": "uint256",
              "name": "counter",
              "type": "uint256"
            }
          ],
          "internalType": "struct OrderComponents",
          "name": "",
          "type": "tuple"
        }
      ],
      "name": "getOrderHash",
      "outputs": [
        {
          "internalType": "bytes32",
          "name": "orderHash",
          "type": "bytes32"
        }
      ],
      "stateMutability": "view",
      "type": "function"
    },
    {
      "inputs": [
        {
          "internalType": "bytes32",
          "name": "orderHash",
          "type": "bytes32"
        }
      ],
      "name": "getOrderStatus",
      "outputs": [
        {
          "internalType": "bool",
          "name": "isValidated",
          "type": "bool"
        },
        {
          "internalType": "bool",
          "name": "isCancelled",
          "type": "bool"
        },
        {
          "internalType": "uint256",
          "name": "totalFilled",
          "type": "uint256"
        },
        {
          "internalType": "uint256",
          "name": "totalSize",
          "type": "uint256"
        }
      ],
      "stateMutability": "view",
      "type": "function"
    },
    {
      "inputs": [],
      "name": "incrementCounter",
      "outputs": [
        {
          "internalType": "uint256",
          "name": "newCounter",
          "type": "uint256"
        }
      ],
      "stateMutability": "nonpayable",
      "type": "function"
    },
    {
      "inputs": [],
      "name": "information",
      "outputs": [
        {
          "internalType": "string",
          "name": "version",
          "type": "string"
        },
        {
          "internalType": "bytes32",
          "name": "domainSeparator",
          "type": "bytes32"
        },
        {
          "internalType": "address",
          "name": "conduitController",
          "type": "address"
        }
      ],
      "stateMutability": "view",
      "type": "function"
    },
    {
      "inputs": [
        {
          "components": [
            {
              "components": [
                {
                  "internalType": "address",
                  "name": "offerer",
                  "type": "address"
                },
                {
                  "internalType": "address",
                  "name": "zone",
                  "type": "address"
                },
                {
                  "components": [
                    {
                      "internalType": "enum ItemType",
                      "name": "itemType",
                      "type": "uint8"
                    },
                    {
                      "internalType": "address",
                      "name": "token",
                      "type": "address"
                    },
                    {
                      "internalType": "uint256",
                      "name": "identifierOrCriteria",
                      "type": "uint256"
                    },
                    {
                      "internalType": "uint256",
                      "name": "startAmount",
                      "type": "uint256"
                    },
                    {
                      "internalType": "uint256",
                      "name": "endAmount",
                      "type": "uint256"
                    }
                  ],
                  "internalType": "struct OfferItem[]",
                  "name": "offer",
                  "type": "tuple[]"
                },
                {
                  "components": [
                    {
                      "internalType": "enum ItemType",
                      "name": "itemType",
                      "type": "uint8"
                    },
                    {
                      "internalType": "address",
                      "name": "token",
                      "type": "address"
                    },
                    {
                      "internalType": "uint256",
                      "name": "identifierOrCriteria",
                      "type": "uint256"
                    },
                    {
                      "internalType": "uint256",
                      "name": "startAmount",
                      "type": "uint256"
                    },
                    {
                      "internalType": "uint256",
                      "name": "endAmount",
                      "type": "uint256"
                    },
                    {
                      "internalType": "address payable",
                      "name": "recipient",
                      "type": "address"
                    }
                  ],
                  "internalType": "struct ConsiderationItem[]",
                  "name": "consideration",
                  "type": "tuple[]"
                },
                {
                  "internalType": "enum OrderType",
                  "name": "orderType",
                  "type": "uint8"
                },
                {
                  "internalType": "uint256",
                  "name": "startTime",
                  "type": "uint256"
                },
                {
                  "internalType": "uint256",
                  "name": "endTime",
                  "type": "uint256"
                },
                {
                  "internalType": "bytes32",
                  "name": "zoneHash",
                  "type": "bytes32"
                },
                {
                  "internalType": "uint256",
                  "name": "salt",
                  "type": "uint256"
                },
                {
                  "internalType": "bytes32",
                  "name": "conduitKey",
                  "type": "bytes32"
                },
                {
                  "internalType": "uint256",
                  "name": "totalOriginalConsiderationItems",
                  "type": "uint256"
                }
              ],
              "internalType": "struct OrderParameters",
              "name": "parameters",
              "type": "tuple"
            },
            {
              "internalType": "uint120",
              "name": "numerator",
              "type": "uint120"
            },
            {
              "internalType": "uint120",
              "name": "denominator",
              "type": "uint120"
            },
            {
              "internalType": "bytes",
              "name": "signature",
              "type": "bytes"
            },
            {
              "internalType": "bytes",
              "name": "extraData",
              "type": "bytes"
            }
          ],
          "internalType": "struct AdvancedOrder[]",
          "name": "",
          "type": "tuple[]"
        },
        {
          "components": [
            {
              "internalType": "uint256",
              "name": "orderIndex",
              "type": "uint256"
            },
            {
              "internalType": "enum Side",
              "name": "side",
              "type": "uint8"
            },
            {
              "internalType": "uint256",
              "name": "index",
              "type": "uint256"
            },
            {
              "internalType": "uint256",
              "name": "identifier",
              "type": "uint256"
            },
            {
              "internalType": "bytes32[]",
              "name": "criteriaProof",
              "type": "bytes32[]"
            }
          ],
          "internalType": "struct CriteriaResolver[]",
          "name": "",
          "type": "tuple[]"
        },
        {
          "components": [
            {
              "components": [
                {
                  "internalType": "uint256",
                  "name": "orderIndex",
                  "type": "uint256"
                },
                {
                  "internalType": "uint256",
                  "name": "itemIndex",
                  "type": "uint256"
                }
              ],
              "internalType": "struct FulfillmentComponent[]",
              "name": "offerComponents",
              "type": "tuple[]"
            },
            {
              "components": [
                {
                  "internalType": "uint256",
                  "name": "orderIndex",
                  "type": "uint256"
                },
                {
                  "internalType": "uint256",
                  "name": "itemIndex",
                  "type": "uint256"
                }
              ],
              "internalType": "struct FulfillmentComponent[]",
              "name": "considerationComponents",
              "type": "tuple[]"
            }
          ],
          "internalType": "struct Fulfillment[]",
          "name": "",
          "type": "tuple[]"
        },
        {
          "internalType": "address",
          "name": "recipient",
          "type": "address"
        }
      ],
      "name": "matchAdvancedOrders",
      "outputs": [
        {
          "components": [
            {
              "components": [
                {
                  "internalType": "enum ItemType",
                  "name": "itemType",
                  "type": "uint8"
                },
                {
                  "internalType": "address",
                  "name": "token",
                  "type": "address"
                },
                {
                  "internalType": "uint256",
                  "name": "identifier",
                  "type": "uint256"
                },
                {
                  "internalType": "uint256",
                  "name": "amount",
                  "type": "uint256"
                },
                {
                  "internalType": "address payable",
                  "name": "recipient",
                  "type": "address"
                }
              ],
              "internalType": "struct ReceivedItem",
              "name": "item",
              "type": "tuple"
            },
            {
              "internalType": "address",
              "name": "offerer",
              "type": "address"
            },
            {
              "internalType": "bytes32",
              "name": "conduitKey",
              "type": "bytes32"
            }
          ],
          "internalType": "struct Execution[]",
          "name": "",
          "type": "tuple[]"
        }
      ],
      "stateMutability": "payable",
      "type": "function"
    },
    {
      "inputs": [
        {
          "components": [
            {
              "components": [
                {
                  "internalType": "address",
                  "name": "offerer",
                  "type": "address"
                },
                {
                  "internalType": "address",
                  "name": "zone",
                  "type": "address"
                },
                {
                  "components": [
                    {
                      "internalType": "enum ItemType",
                      "name": "itemType",
                      "type": "uint8"
                    },
                    {
                      "internalType": "address",
                      "name": "token",
                      "type": "address"
                    },
                    {
                      "internalType": "uint256",
                      "name": "identifierOrCriteria",
                      "type": "uint256"
                    },
                    {
                      "internalType": "uint256",
                      "name": "startAmount",
                      "type": "uint256"
                    },
                    {
                      "internalType": "uint256",
                      "name": "endAmount",
                      "type": "uint256"
                    }
                  ],
                  "internalType": "struct OfferItem[]",
                  "name": "offer",
                  "type": "tuple[]"
                },
                {
                  "components": [
                    {
                      "internalType": "enum ItemType",
                      "name": "itemType",
                      "type": "uint8"
                    },
                    {
                      "internalType": "address",
                      "name": "token",
                      "type": "address"
                    },
                    {
                      "internalType": "uint256",
                      "name": "identifierOrCriteria",
                      "type": "uint256"
                    },
                    {
                      "internalType": "uint256",
                      "name": "startAmount",
                      "type": "uint256"
                    },
                    {
                      "internalType": "uint256",
                      "name": "endAmount",
                      "type": "uint256"
                    },
                    {
                      "internalType": "address payable",
                      "name": "recipient",
                      "type": "address"
                    }
                  ],
                  "internalType": "struct ConsiderationItem[]",
                  "name": "consideration",
                  "type": "tuple[]"
                },
                {
                  "internalType": "enum OrderType",
                  "name": "orderType",
                  "type": "uint8"
                },
                {
                  "internalType": "uint256",
                  "name": "startTime",
                  "type": "uint256"
                },
                {
                  "internalType": "uint256",
                  "name": "endTime",
                  "type": "uint256"
                },
                {
                  "internalType": "bytes32",
                  "name": "zoneHash",
                  "type": "bytes32"
                },
                {
                  "internalType": "uint256",
                  "name": "salt",
                  "type": "uint256"
                },
                {
                  "internalType": "bytes32",
                  "name": "conduitKey",
                  "type": "bytes32"
                },
                {
                  "internalType": "uint256",
                  "name": "totalOriginalConsiderationItems",
                  "type": "uint256"
                }
              ],
              "internalType": "struct OrderParameters",
              "name": "parameters",
              "type": "tuple"
            },
            {
              "internalType": "bytes",
              "name": "signature",
              "type": "bytes"
            }
          ],
          "internalType": "struct Order[]",
          "name": "",
          "type": "tuple[]"
        },
        {
          "components": [
            {
              "components": [
                {
                  "internalType": "uint256",
                  "name": "orderIndex",
                  "type": "uint256"
                },
                {
                  "internalType": "uint256",
                  "name": "itemIndex",
                  "type": "uint256"
                }
              ],
              "internalType": "struct FulfillmentComponent[]",
              "name": "offerComponents",
              "type": "tuple[]"
            },
            {
              "components": [
                {
                  "internalType": "uint256",
                  "name": "orderIndex",
                  "type": "uint256"
                },
                {
                  "internalType": "uint256",
                  "name": "itemIndex",
                  "type": "uint256"
                }
              ],
              "internalType": "struct FulfillmentComponent[]",
              "name": "considerationComponents",
              "type": "tuple[]"
            }
          ],
          "internalType": "struct Fulfillment[]",
          "name": "",
          "type": "tuple[]"
        }
      ],
      "name": "matchOrders",
      "outputs": [
        {
          "components": [
            {
              "components": [
                {
                  "internalType": "enum ItemType",
                  "name": "itemType",
                  "type": "uint8"
                },
                {
                  "internalType": "address",
                  "name": "token",
                  "type": "address"
                },
                {
                  "internalType": "uint256",
                  "name": "identifier",
                  "type": "uint256"
                },
                {
                  "internalType": "uint256",
                  "name": "amount",
                  "type": "uint256"
                },
                {
                  "internalType": "address payable",
                  "name": "recipient",
                  "type": "address"
                }
              ],
              "internalType": "struct ReceivedItem",
              "name": "item",
              "type": "tuple"
            },
            {
              "internalType": "address",
              "name": "offerer",
              "type": "address"
            },
            {
              "internalType": "bytes32",
              "name": "conduitKey",
              "type": "bytes32"
            }
          ],
          "internalType": "struct Execution[]",
          "name": "",
          "type": "tuple[]"
        }
      ],
      "stateMutability": "payable",
      "type": "function"
    },
    {
      "inputs": [],
      "name": "name",
      "outputs": [
        {
          "internalType": "string",
          "name": "",
          "type": "string"
        }
      ],
      "stateMutability": "pure",
      "type": "function"
    },
    {
      "inputs": [
        {
          "components": [
            {
              "components": [
                {
                  "internalType": "address",
                  "name": "offerer",
                  "type": "address"
                },
                {
                  "internalType": "address",
                  "name": "zone",
                  "type": "address"
                },
                {
                  "components": [
                    {
                      "internalType": "enum ItemType",
                      "name": "itemType",
                      "type": "uint8"
                    },
                    {
                      "internalType": "address",
                      "name": "token",
                      "type": "address"
                    },
                    {
                      "internalType": "uint256",
                      "name": "identifierOrCriteria",
                      "type": "uint256"
                    },
                    {
                      "internalType": "uint256",
                      "name": "startAmount",
                      "type": "uint256"
                    },
                    {
                      "internalType": "uint256",
                      "name": "endAmount",
                      "type": "uint256"
                    }
                  ],
                  "internalType": "struct OfferItem[]",
                  "name": "offer",
                  "type": "tuple[]"
                },
                {
                  "components": [
                    {
                      "internalType": "enum ItemType",
                      "name": "itemType",
                      "type": "uint8"
                    },
                    {
                      "internalType": "address",
                      "name": "token",
                      "type": "address"
                    },
                    {
                      "internalType": "uint256",
                      "name": "identifierOrCriteria",
                      "type": "uint256"
                    },
                    {
                      "internalType": "uint256",
                      "name": "startAmount",
                      "type": "uint256"
                    },
                    {
                      "internalType": "uint256",
                      "name": "endAmount",
                      "type": "uint256"
                    },
                    {
                      "internalType": "address payable",
                      "name": "recipient",
                      "type": "address"
                    }
                  ],
                  "internalType": "struct ConsiderationItem[]",
                  "name": "consideration",
                  "type": "tuple[]"
                },
                {
                  "internalType": "enum OrderType",
                  "name": "orderType",
                  "type": "uint8"
                },
                {
                  "internalType": "uint256",
                  "name": "startTime",
                  "type": "uint256"
                },
                {
                  "internalType": "uint256",
                  "name": "endTime",
                  "type": "uint256"
                },
                {
                  "internalType": "bytes32",
                  "name": "zoneHash",
                  "type": "bytes32"
                },
                {
                  "internalType": "uint256",
                  "name": "salt",
                  "type": "uint256"
                },
                {
                  "internalType": "bytes32",
                  "name": "conduitKey",
                  "type": "bytes32"
                },
                {
                  "internalType": "uint256",
                  "name": "totalOriginalConsiderationItems",
                  "type": "uint256"
                }
              ],
              "internalType": "struct OrderParameters",
              "name": "parameters",
              "type": "tuple"
            },
            {
              "internalType": "bytes",
              "name": "signature",
              "type": "bytes"
            }
          ],
          "internalType": "struct Order[]",
          "name": "",
          "type": "tuple[]"
        }
      ],
      "name": "validate",
      "outputs": [
        {
          "internalType": "bool",
          "name": "",
          "type": "bool"
        }
      ],
      "stateMutability": "nonpayable",
      "type": "function"
    },
    {
      "stateMutability": "payable",
      "type": "receive"
    }
  ],
  "bytecode": "0x61020060405234801562000011575f80fd5b506040516200635d3803806200635d83398101604081905262000034916200031b565b808080808080808080806200004862000179565b610120526101005260e05260c081905260a082815246610140819052604080515f9485526020879052948152606091825230608090815292842085825293909152939052610160526001600160a01b038316610180819052630a96ad3960e01b825282519092630a96ad3992600480820193918290030181865afa158015620000d3573d5f803e3d5ffd5b505050506040513d601f19601f82011682018060405250810190620000f991906200034a565b506101a052505f90506200010c620002a0565b90506001600160a01b0381166200013657604051632aea588760e01b815260040160405180910390fd5b5f6200014282620002b9565b8015156101c0526001600160a01b0383166101e0529050806200016857600163929eee14555b5050505050505050505050620003e8565b5f8080808080620001a460408051808201909152600781526614d9585c1bdc9d60ca1b602082015290565b8051906020012095506040518060400160405280600381526020016218971b60e91b8152508051906020012094505f6040518060a00160405280606a8152602001620062f3606a913990505f6040518060c0016040528060848152602001620061496084913990505f60405180610100016040528060d481526020016200621f60d491399050604051806080016040528060528152602001620061cd6052913980519060200120965082805190602001209550818051906020012094505f81838560405160200162000279939291906200039c565b60405160208183030381529060405290508080519060200120945050505050909192939495565b5f696002601e613d5c3d52f35f52600a60165ff0905090565b5f816001600160a01b0316600a5a620002d39190620003c8565b6040515f8181818686fa925050503d805f81146200030d576040519150601f19603f3d011682016040523d82523d5f602084013e62000312565b606091505b50909392505050565b5f602082840312156200032c575f80fd5b81516001600160a01b038116811462000343575f80fd5b9392505050565b5f80604083850312156200035c575f80fd5b505080516020909101519092909150565b5f81515f5b818110156200038e576020818501810151868301520162000372565b505f93019283525090919050565b5f620003bf620003b8620003b184886200036d565b866200036d565b846200036d565b95945050505050565b5f82620003e357634e487b7160e01b5f52601260045260245ffd5b500490565b60805160a05160c05160e05161010051610120516101405161016051610180516101a0516101c0516101e051615ca5620004a45f395f61047601525f818161036d0152818161042b01528181611a6001528181611ab301526125ec01525f61318801525f81816112ae015261315801525f61303201525f612f7a01525f8181610c1e015261164901525f8181610bad015261149201525f8181610b4701526115db01525f612faa01525f612ff301525f612fcf0152615ca55ff3fe608060405260043610610103575f3560e01c8063a900866b11610092578063f07ec37311610062578063f07ec373146102f7578063f2d12b1214610316578063f47b774014610329578063fb0f3ee114610116578063fd9f1e101461034c575f80fd5b8063a900866b1461028a578063b3a34c4c146102be578063e7acab24146102d1578063ed98a574146102e4575f80fd5b80637423eb3c116100d85780637423eb3c146101f757806379df72bd1461020b57806387201b411461022a578063881477321461024b578063a81744041461026a575f80fd5b801561011657806306fdde031461013e57806346423aa71461015f5780635b34b966146101d5575f80fd5b366101125761011061036b565b005b5f80fd5b6101296101243660046152e7565b6103f9565b60405190151581526020015b60405180910390f35b348015610149575f80fd5b50610152610408565b6040516101359190615361565b34801561016a575f80fd5b506101b3610179366004615373565b5f9081526001602052604090205460ff808216926101008304909116916001600160781b03620100008204811692600160881b9092041690565b6040805194151585529215156020850152918301526060820152608001610135565b3480156101e0575f80fd5b506101e9610417565b604051908152602001610135565b348015610202575f80fd5b50610110610420565b348015610216575f80fd5b506101e961022536600461538a565b6104c1565b61023d61023836600461541e565b6104f8565b6040516101359291906155c2565b348015610256575f80fd5b50610129610265366004615611565b610571565b61027d61027836600461564f565b61058f565b60405161013591906156b5565b348015610295575f80fd5b506101e96102a43660046156c7565b6001600160a01b03165f9081526002602052604090205490565b6101296102cc3660046156e0565b61062a565b6101296102df366004615725565b6106a3565b61023d6102f23660046157a9565b6106e1565b348015610302575f80fd5b506101e96103113660046156c7565b610784565b61027d610324366004615849565b6107a1565b348015610334575f80fd5b5061033d6107ea565b604051610135939291906158eb565b348015610357575f80fd5b50610129610366366004615611565b610801565b7f000000000000000000000000000000000000000000000000000000000000000080156103b357600263929eee145c146103b05763a61be9f05f52346020526024601cfd5b50565b63929eee1454806103e057600263929eee145c146103dc5763a61be9f05f52346020526024601cfd5b5050565b600381146103dc5763a61be9f05f52346020526024601cfd5b5f61040261080c565b92915050565b60606104126109c0565b905090565b5f6104126109d8565b63929eee14546001147f000000000000000000000000000000000000000000000000000000000000000080610453575080155b1561047157604051630f45b98b60e41b815260040160405180910390fd5b61049a7f0000000000000000000000000000000000000000000000000000000000000000610a45565b6104b7576040516370a4078f60e01b815260040160405180910390fd5b5f63929eee145550565b5f806104cd6004610aa3565b90506104f16104e282610ab35b63ffffffff16565b610140830135610b30565b3590565b9392505050565b60608061055d61051361050b6004610aa3565b610c746104da565b61052a61052260046020610cdc565b610cfa6104da565b61054161053960046040610cdc565b610d526104da565b61055061053960046060610cdc565b89338a15028a0189610daa565b915091509b509b9950505050505050505050565b5f6104f161058a6105826004610aa3565b610de46104da565b610e3c565b606061061f6105a96105a16004610aa3565b610f5d6104da565b604080515f8082526020820190925290610601565b6105ee6040805160a081019091525f808252602082019081526020015f81526020015f8152602001606081525090565b8152602001906001900390816105be5790505b5061061961061160046020610cdc565b610fb56104da565b3361100d565b90505b949350505050565b5f6104f161064361063b6004610aa3565b61104b6104da565b604080515f808252602082019092529061069b565b6106886040805160a081019091525f808252602082019081526020015f81526020015f8152602001606081525090565b8152602001906001900390816106585790505b5084336110c1565b5f6106d76106bc6106b46004610aa3565b6112406104da565b6106cb61052260046020610cdc565b853386150286016110c1565b9695505050505050565b6060806107736106f46105a16004610aa3565b604080515f808252602082019092529061074c565b6107396040805160a081019091525f808252602082019081526020015f81526020015f8152602001606081525090565b8152602001906001900390816107095790505b5061075c61053960046020610cdc565b61076b61053960046040610cdc565b883389610daa565b915091509850989650505050505050565b6001600160a01b0381165f90815260208190526040812054610402565b60606107dc6107b361050b6004610aa3565b6107c261052260046020610cdc565b6107d161061160046040610cdc565b33861502860161100d565b90505b979650505050505050565b60605f806107f661129c565b925092509250909192565b5f6104f183836112e8565b5f61012435600281901c90600316600182118334158214806108315761083134611423565b506003841160a0810260240135906502030203010160d01b861a905f630101020360d01b881a6108648882898888611434565b9096509150506101c4600583901b01355f876005811115610887576108876154fb565b036108bc5760443560243517156108a557636ab37ce75f526004601cfd5b6108af8482611751565b6108b7611809565b61099d565b6040805160208082528183019092525f9160208201818036833701905050905060028a60058111156108f0576108f06154fb565b036109135761090e60c4356084353360e435610104355b8787611889565b610988565b60038a6005811115610927576109276154fb565b036109455761090e60c4356084353360e435610104355b87876118d4565b60048a6005811115610959576109596154fb565b036109735761090e60243533608435604435606435610907565b6109886024353360843560443560643561093e565b610992848261190a565b61099b816119c4565b505b6109a88689846119e8565b6109b0611a5e565b6001995050505050505050505090565b6060602080526707536561706f727460475260606020f35b5f6109e1611ab1565b600143034060801c335f525f60205260405f208054820192508281555050336001600160a01b03167f721c20121297512b72821b97f5326877ea8ecf4bb9948fea5bfcb6453074d37f82604051610a3a91815260200190565b60405180910390a290565b5f816001600160a01b0316600a5a610a5d9190615945565b6040515f8181818686fa925050503d805f8114610a95576040519150601f19603f3d011682016040523d82523d5f602084013e610a9a565b606091505b50909392505050565b5f813563ffffffff168201610402565b5f610ac661016060408051918201905290565b9050610ad58282610140611b28565b610af2610aeb610ae6846040610cdc565b611b31565b6040830152565b5f610b06610b01846060610cdc565b611b84565b9050610b13816060840152565b610b26610b1e825190565b610140840152565b50919050565b0190565b610140820151604080519084015180515f939284927f000000000000000000000000000000000000000000000000000000000000000092602090910190845b81811015610b9c578251601f1901805186825260c082208652905260209384019390920191600101610b6f565b508060051b6040512094505050505f7f0000000000000000000000000000000000000000000000000000000000000000915060405160206060890151015f5b86811015610c08578151601f1901805186825260e082208552905260209283019290910190600101610bdb565b505060408051600587901b9020601f198a0180517f00000000000000000000000000000000000000000000000000000000000000008252928b01805197815260608c018051938152610140909c019a8b5261018082209390915295909552939097525050925250919050565b5f8063ffffffff8335169050600581901b610c986020820160408051918201905290565b828152925060208381019085015f5b83811015610cd257610cca610cc4610cbf8484610cdc565b611240565b82850152565b602001610ca7565b5050505050919050565b5f6104f163ffffffff610cf46104ed8686610b2c8516565b16840190565b5f8063ffffffff8335169050600581901b610d1e6020820160408051918201905290565b828152925060208381019085015f5b83811015610cd257610d4a610cc4610d458484610cdc565b611bc7565b602001610d2d565b5f8063ffffffff8335169050600581901b610d766020820160408051918201905290565b828152925060208381019085015f5b83811015610cd257610da2610cc4610d9d8484610cdc565b611c09565b602001610d85565b60608036155f80610dbe8c8c85898b611c4c565b91509150610dd18c8b8b8b8b8787612029565b9450945050505097509795505050505050565b5f8063ffffffff8335169050600581901b610e086020820160408051918201905290565b828152925060208381019085015f5b83811015610cd257610e34610cc4610e2f8484610cdc565b61215b565b602001610e17565b5f610e45611ab1565b5f805f80855190505f5b81811015610f50575f878281518110610e6a57610e6a615964565b60209081029190910101518051909150600481608001516004811115610e9257610e926154fb565b03610e9e575050610f48565b80519450610eab8161219e565b5f8181526001602052604081209850909650610ecd90879089903615156121d7565b50865460ff16610f455780610140015181606001515114610ef057610ef0612265565b610eff85878460200151612272565b865460ff191660011787556040517ff280791efe782edcf06ce15c8f4dff17601db3b88eb3805a0db7d77faf757f0490610f3c9088908490615a67565b60405180910390a15b50505b600101610e4f565b5060019695505050505050565b5f8063ffffffff8335169050600581901b610f816020820160408051918201905290565b828152925060208381019085015f5b83811015610cd257610fad610cc4610fa88484610cdc565b61104b565b602001610f90565b5f8063ffffffff8335169050600581901b610fd96020820160408051918201905290565b828152925060208381019085015f5b83811015610cd257611005610cc46110008484610cdc565b61242d565b602001610fe8565b60605f36151590505f806110258888858b5189611c4c565b9150915061103282612460565b61103f888784888561249f565b98975050505050505050565b5f61105e61020060408051918201905290565b60a0810180825290915061107a61107484610aa3565b82612572565b61108660016020840152565b61109260016040840152565b6110af6110a86110a3856020610cdc565b6125a8565b6060840152565b610b266110ba6125d0565b6080840152565b835160808101515f91906110e860048260048111156110e2576110e26154fb565b146125ea565b5f80806110f78a36151561268b565b60408051600180825281830190925293965091945092505f9190816020015b61111e6151f9565b8152602001906001900390816111165790505090508a815f8151811061114657611146615964565b602002602001018190525061115b818b612883565b6111678684848b6129fc565b6040805160018082528183019092525f91602080830190803683375091925050503615156004878181111561119e5761119e6154fb565b146111c1576111af8d83885f612afc565b6111bb86868684612b4e565b506111d3565b6111d0888e6080015183612c52565b95505b6111de888c8c612d22565b85825f815181106111f1576111f1615964565b6020026020010181815250506112088d8388612e45565b61122586895f01518a602001518d8c604001518d60600151612f12565b61122d611a5e565b5060019c9b505050505050505050505050565b5f61125361020060408051918201905290565b905061126760208381019083016040611b28565b60a0810180825261127a61107484610aa3565b61128b6110a86110a3856060610cdc565b610b266110ba6110a3856080610cdc565b60605f805f6112a9612f77565b90505f7f0000000000000000000000000000000000000000000000000000000000000000905060605f5281602052806040526303312e3660635260a05ff35b5f6112f1611ab1565b5f8083815b81811015611408573687878381811061131157611311615964565b90506020028101906113239190615b49565b90505f61133360208301836156c7565b90505f61134660408401602085016156c7565b90505f61135960a0850160808601615b68565b905081331483331417156004821417871796505f61138d61138261137a8790565b610ab36104da565b866101400135610b30565b5f8181526001602052604090819020805461ffff19166101001781559051909a509091506001600160a01b0380851691908616907f6bacc01dbe442496068f7d234edd811f1a5f833243e0aec824f86ab861f3c90d906113f09085815260200190565b60405180910390a385600101955050505050506112f6565b5050801561141857611418613054565b506001949350505050565b63a61be9f05f52806020526024601cfd5b5f8061143f5f6125ea565b611447613061565b426101643511154261014435111715611475576321ccfeb75f5261014435602052610164356040526044601cfd5b610204356102643510156114905763466aa6165f526004601cfd5b7f0000000000000000000000000000000000000000000000000000000000000000608081905260a08790526060602460c037604060646101203760e060802061016052610264356102043560051b6102a0016001820181526020810190508881526080602460208301376101608860a0528760c0525f60e0525f6102043593505f5b84811015611566578060400261028401602081610100376040816101203760208101358317925060208401935060e0608020845260a0850194508b85528a6020860152604081606087013750600101611512565b6001850160051b610160206060526102643594505b848110156115b6578060400261028401925060a0840193508a845289602085015260408360608601376020830135919091179060010161157b565b506001600160a01b038111156115d3576339f3e3fd5f526004601cfd5b50505050505f7f00000000000000000000000000000000000000000000000000000000000000009050806080528360a052606060c460c0376020610104610120375060c06080205f9081526020812060e05260843590611647826001600160a01b03165f9081526020819052604090205490565b7f000000000000000000000000000000000000000000000000000000000000000060808190529091506040608460a03760605161010052896101205260a061014461014037816101e05261018060802094505050506102043560051b61018001828152336020820152608060408201526101206060820152600160808201528360a0820152606060c460c083013760a061026435026101e00160a4356084357f9d9af8e38d66c62e2c12f0225249fd9d721c54b83f48d9352c97c6cacdcb6f318385a35f60605260608101820160405250505f611723836130ac565b905061172f83896130fd565b7101000000000000000000000000000001000182559150509550959350505050565b60c43560843560e4356101043584156117b9575f6040519050632671a55160e11b815260206004820152600160248201528660448201528460648201528360848201523360a48201528260c48201528160e48201526117b38682610104613152565b50611801565b60028660058111156117cd576117cd6154fb565b036117f457806001146117e3576117e381613209565b6117ef8484338561321a565b611801565b61180184843385856132cf565b505050505050565b346064356084356102643560061b5f80805b8381101561185a5761028481013592506102a4810135915086831115611843576118436133a6565b828703965061185282846133b3565b60400161181b565b508585111561186b5761186b6133a6565b61187584866133b3565b8486111561180157611801338688036133b3565b61189381836133e9565b816118ba57826001146118a9576118a983613209565b6118b58787878761321a565b6118cb565b6118cb828260028a8a8a8a8a613407565b50505050505050565b6118dd83613486565b6118e781836133e9565b816118f9576118b587878787876132cf565b6118cb828260038a8a8a8a8a613407565b5f805f805f861561192f57505060843592503391505060c4356101043560e435611944565b50339350506084359150506024356064356044355b801561195257611952613498565b50600586901b6101e403356102643560061b5f80805b838110156119a95761028481013592506102a481013591508a15611993576119908387615b86565b95505b6119a1878a8486898f6134a5565b604001611968565b506119b886898988888e6134a5565b50505050505050505050565b60408151146119d05750565b5f6119dc826020015190565b90506103dc81836134da565b611a048260a4355b331415600182116004909210919091161690565b15611a5957805f611a13825190565b9050608081901c63ffffffff8216611a3484826317b1f94282526001905250565b601c840163fb5014fc6060529350611a5060a4358886856134fe565b5f6060526118cb565b505050565b7f00000000000000000000000000000000000000000000000000000000000000008015611a8f575f63929eee145d50565b63929eee145480611aa5575f63929eee145d5050565b50600163929eee145550565b7f00000000000000000000000000000000000000000000000000000000000000008015611af05763929eee145c156103b057637fa8a9875f526004601cfd5b63929eee145480611b135763929eee145c156103dc57637fa8a9875f526004601cfd5b600181146103dc57637fa8a9875f526004601cfd5b80838337505050565b5f63ffffffff8235166040519150808252602082018160051b81018060a084026020870183378293505b81841015611b745780845260209093019260a001611b5b565b60405250919392505050565b9052565b5f63ffffffff8235166040519150808252602082018160051b81018060c084026020870183378293505b81841015611b745780845260209093019260c001611bae565b5f611bd960a060408051918201905290565b9050611be782826080611b28565b611c04611bfd611bf8846080610cdc565b613546565b6080830152565b919050565b5f63ffffffff8235166040519150808252602082018160051b8101808360061b6020870183378293505b81841015611b7457808452602090930192604001611c33565b60605f611c5960016125ea565b86515f90600160e61b82351690806001600160401b03811115611c7e57611c7e61591d565b604051908082528060200260200182016040528015611ca7578160200160208202803683370190505b50945060010160051b91505f60205b83811015611ea8575f611ccc8c83613e756104da565b90505f805f611cdb848e61268b565b6001600160781b0382166020880152919450925090505f829003611d025750505050611ea0565b6001600160781b0381166040808601919091528a8601849052845160a081015160c0820151608083015192909301518051600184119d909d179c600490931099509092915f5b81811015611dea575f838281518110611d6357611d63615964565b602002602001015190508b8151108d179c505f611d858989846080015161357d565b90508160800151826060015103611da25760608201819052611db7565b611db18989846060015161357d565b60608301525b5f611dd08360600151838a8a611dcb361590565b6135b9565b606084018190526080909301929092525050600101611d48565b5087516060015180515f5b81811015611e94575f838281518110611e1057611e10615964565b602002602001015190505f611e2a8b8b846080015161357d565b90508160800151826060015103611e475760608201819052611e5c565b611e568b8b846060015161357d565b60608301525b5f611e718360600151838c8c611dcb36151590565b6060840181905260a0840180516080909501949094529092525050600101611df5565b50505050505050505050505b602001611cb6565b50506001600160e61b018103611ec057611ec061360c565b50611ecb8888612883565b5f8060205b8381101561200e578581015192508215612006575f611ef28c83613e756104da565b9050885f03611f0d575f878301819052602090910152612006565b60048151608001516004811115611f2657611f266154fb565b14611fa957611f3f8188866001600587901c038e613619565b611f55575f878301819052602090910152612006565b602080820151604083015183516080810151930151611f8e9388936001600160781b039081169316913314156001909111168e17612b4e565b611fa4575f878301819052602090910152612006565b611fd4565b611fbb815f015182608001518c612c52565b878301819052935083611fd4575f602090910152612006565b886001900398505f815f01519050611fff85825f015183602001518c85604001518660600151612f12565b6001935050505b602001611ed0565b508061201c5761201c613674565b5050509550959350505050565b85518551606091829161203c8183615b99565b6001600160401b038111156120535761205361591d565b60405190808252806020026020018201604052801561208c57816020015b61207961522c565b8152602001906001900390816120715790505b5092505f5b828110156120e4576120bf8c5f8d84815181106120b0576120b0615964565b60200260200101518c8c613681565b8482815181106120d1576120d1615964565b6020908102919091010152600101612091565b505f5b8181101561213d576121168c60018c848151811061210757612107615964565b60200260200101518c5f613681565b848483018151811061212a5761212a615964565b60209081029190910101526001016120e7565b5061214b8b84888a896136d0565b9350505097509795505050505050565b5f61216c6040808051918201905290565b905061218661218261217d84610aa3565b6139b9565b8252565b611c046121976110a3846020610cdc565b6020830152565b5f6121b38260600151518361014001516139d8565b81516001600160a01b03165f90815260208190526040902054610402908390610b30565b82545f90610100900460ff16156121fe5781156121f7576121f7856139e8565b505f610622565b83546201000090046001600160781b0316801561225957831561222957612224866139f9565b612259565b8454600160881b90046001600160781b031681106122595782156122505761225086613a0a565b5f915050610622565b50600195945050505050565b632165628a5f526004601cfd5b33831480156122815750505050565b5f61228a612f77565b61190160f01b5f908152600282905260228681526042822090829052919250506122d96040518060400160405280600e81526020016d1bdc9a59da5b985b111a59d95cdd60921b815250613a1b565b6122e281613a5e565b6123126040518060400160405280600f81526020016e0bdbdc9a59da5b985b111a59d95cdd608a1b815250613a1b565b83515f6102e26062198301106002601d8401601f1610161561235d576123388688613aa3565b61190160f01b5f90815260028690526022828152604282209190529097509050612360565b50815b61238a604051806040016040528060098152602001680dee4c8cae490c2e6d60bb1b815250613a1b565b61239387613a5e565b6123be6040518060400160405280600a81526020016905edee4c8cae490c2e6d60b31b815250613a1b565b6123e560405180604001604052806006815260200165191a59d95cdd60d21b815250613a1b565b6123ee81613a5e565b612416604051806040016040528060078152602001660bd91a59d95cdd60ca1b815250613a1b565b612423888285858a613b39565b5050505050505050565b5f61243e6040808051918201905290565b905061244f612182610d9d84610aa3565b611c04612197610d9d846020610cdc565b80518060051b6040019050602082038051602082527f4b9f2d36e1b4c93de62cc077b00b1a91d84b6c31b4a14e012718dcca230689e78383a190525050565b8351606090806001600160401b038111156124bc576124bc61591d565b6040519080825280602002602001820160405280156124f557816020015b6124e261522c565b8152602001906001900390816124da5790505b5091505f5b81811015612558575f87828151811061251557612515615964565b6020026020010151905061253289825f0151836020015185613c82565b84838151811061254457612544615964565b6020908102919091010152506001016124fa565b5061256687838787876136d0565b50505b95945050505050565b61257f8282610160611b28565b612590610aeb610ae6846040610cdc565b6103dc6125a1610b01846060610cdc565b6060830152565b6040518135601f0163ffffffe01660200180838337913563ffffffff16815290810160405290565b5f6125e2602060408051918201905290565b5f8152905090565b7f000000000000000000000000000000000000000000000000000000000000000080156126375763929eee145c1561262957637fa8a9875f526004601cfd5b8160010163929eee145d5050565b63929eee1454806126695763929eee145c1561265a57637fa8a9875f526004601cfd5b8260010163929eee145d505050565b6001811461267e57637fa8a9875f526004601cfd5b505060020163929eee1455565b5f805f80855f015190506126a88160a001518260c0015187613e27565b6126bb57505f925082915081905061287c565b602086015160408701516001600160781b0391821694501691505f6004826080015160048111156126ee576126ee6154fb565b0361271b576001838502189050801561270957612709613e4a565b506001935083925082915061287c9050565b50818311831517801561273057612730613e4a565b608082015160011615848411161561274a5761274a613e57565b6127538261219e565b5f81815260016020526040812091965061277190879083908a6121d7565b61278457505f935083925061287c915050565b805460ff1661279f5761279f835f0151878a60600151612272565b8054608881901c806127b357869150612876565b6001600160781b038260101c169150600186036127d7578181039650809550612876565b8086036127f257908601858103868211029096039590612876565b80860296810291909502810186810387821102918290039695919003906001600160781b0386111561287657612836565b5f5b8215610b2657908290069190612825565b6128496128438784612823565b88612823565b8015019687900496909504946001600160781b0386111561287657634e487b715f5260116020526024601cfd5b50505050505b9250925092565b805182515f5b82811015612972575f8482815181106128a4576128a4615964565b602002602001015190505f815f015190508381106128c9576128c98260200151613e64565b5f8782815181106128dc576128dc615964565b6020026020010151905080602001516001600160781b03165f036129025750505061296a565b80516040808201519085015163bfb3f8ce5f8760200151600181111561292a5761292a6154fb565b14612946575f61293b856060613e75565b9350636088d7de9150505b8251821061295757805f526004601cfd5b612962838389613e80565b505050505050505b600101612889565b505f5b818110156129f5575f85828151811061299057612990615964565b6020026020010151905080602001516001600160781b03165f036129b457506129ed565b8051608081015160608201516129d19085908363a8930e9a613f33565b6129e98483604001518363d69293326104da613f3390565b5050505b600101612975565b5050505050565b60a084015160c08501516040860151515f805b82811015612a79575f89604001518281518110612a2e57612a2e615964565b602002602001015190505f815f01519050801584179350505f612a65826060015183608001518c8c8b8b612a60361590565b613f9a565b606083015250608001869052600101612a0f565b5060808801516004811082168015612a9357612a9361360c565b505050506060860151515f5b81811015612423575f88606001518281518110612abe57612abe615964565b602002602001015190505f612ae3826060015183608001518b8b8a8a612a6036151590565b60608301525060a0810151608090910152600101612a9f565b8351608081015160208201513314156001821160049092109190911616156129f5575f80612b31858489608001518988613fd5565b63fb5014fc6060529092509050611a5083602001518684846134fe565b5f848152600160205260408120805482908290608881901c80612b7357889150612bfb565b6001600160781b038260101c169150808803612b9757908801878111935090612bfb565b97880297808802979190910288018781119350906001600160781b038083119089111715612bfb57612bc98883612823565b8015019788900497909104906001600160781b038083119089111715612bfb57634e487b715f5260116020526024601cfd5b508215612c34578515612c28576040516310fda3e160e01b8152600481018a905260240160405180910390fd5b5f945050505050610622565b8660881b8160101b1760011782556001945050505050949350505050565b5f83610140015184606001515114612c6c57612c6c612265565b83515f8080612c7b8888614153565b915091505f8082845f885af16001600160a01b0385165f908152600260205260409020805460018101909155606086901b189550925082612cda578515612ccd57612cc46141fd565b612ccd85614244565b505f93506104f192505050565b505050505f805f612cf7876040015188606001516104da61425590565b925092509250825f14612d0d57612d0d84614244565b60408701919091526060860152509392505050565b6040805160208082528183019092525f916020820181803683375050506040850151519091505f5b81811015612d9a575f86604001518281518110612d6957612d69615964565b60200260200101519050846080820152612d9181885f0151896101200151876104da6144ce90565b50600101612d4a565b50506060840151515f90815b81811015612e28575f87606001518281518110612dc557612dc5615964565b602002602001015190505f6005811115612de157612de16154fb565b81516005811115612df457612df46154fb565b03612e10574793508381606001511115612e1057612e106133a6565b612e1f813389886144ce6104da565b50600101612da6565b5050612e33826119c4565b504780156129f5576129f533826133b3565b8251608081015160208201515f92839283928392916004811060019091111633909114151615612ea757612e88612e8261010083015190565b5190565b886145c3565b9093509150612e9960208201612e7e565b945063fb5014fc9350612ef3565b600481608001516004811115612ebf57612ebf6154fb565b0361242357805194505f8560601b9050612ee087838b608001518b85614604565b639397928596509094509250612ef39050565b612efd6060859052565b612f09858785856134fe565b5f606052612423565b60608290506060829050856001600160a01b0316876001600160a01b03167f9d9af8e38d66c62e2c12f0225249fd9d721c54b83f48d9352c97c6cacdcb6f318a888686604051612f659493929190615be5565b60405180910390a35050505050505050565b5f7f0000000000000000000000000000000000000000000000000000000000000000461461302f575060408051608080517f00000000000000000000000000000000000000000000000000000000000000005f9081527f00000000000000000000000000000000000000000000000000000000000000006020527f0000000000000000000000000000000000000000000000000000000000000000855246606090815230845260a08220949095529093529190915290565b507f000000000000000000000000000000000000000000000000000000000000000090565b63fed398fc5f526004601cfd5b600435602014610224356102401416610244356102606102643560061b01141660186101243510600160a01b60843560a4351760c4356024351717101616806103b0576103b06146cf565b5f81815260016020819052604090912090608435906130d190849084903615156121d7565b50815460ff16610b2657610b2681846130f8602463ffffffff6102443516016125a86104da565b612272565b5f61310a8260a4356119f0565b15610402575f805f61311b866146dc565b63fb5014fc6060529194509250905061313b60a43587601c8601856134fe565b5f60605260209190910160801b1781529392505050565b604080517f000000000000000000000000000000000000000000000000000000000000000060ff60a01b175f90815260208690527f000000000000000000000000000000000000000000000000000000000000000083526055600b20919092526001600160a01b031690505f805f805260205f85875f875af191505f519050816131e7576131de6141fd565b6131e783614794565b6001600160e01b03198116632671a55160e11b146118015761180186846147a5565b6369f958275f52806020526024601cfd5b833b61323157635f15d6725f52836020526024601cfd5b6040516323b872dd60e01b5f528360045282602452816044525f8060645f80895af1806132c1573d1561329f57601f3d0160051c8260051c8160030281831115613288578183036003028280028480020360091c01015b5a60208201101561329b573d5f803e3d5ffd5b5050505b63f486bc875f5285602052846040528360605282608052600160a05260a4601cfd5b5060405250505f6060525050565b843b6132e657635f15d6725f52846020526024601cfd5b60405160805160a05160c051637921219560e11b5f528760045286602452856044528460645260a06084525f60a4525f8060c45f808d5af18061338b573d1561336a57601f3d0160051c8560051c8160030281831115613353578183036003028280028480020360091c01015b5a602082011015613366573d5f803e3d5ffd5b5050505b63f486bc875f52896020528860405287606052866080528560a05260a4601cfd5b5060809290925260a05260c05260405250505f606052505050565b638ffff9805f526004601cfd5b6133bc81613486565b5f805f805f85875af1905080611a59576133d46141fd565b63bc806b965f5282602052816040526044601cfd5b5f6133f5836020015190565b9050818114611a5957611a59836119c4565b5f60208851036134415750604080885260208089018a9052632671a55160e11b918901919091526044880152600160648801819052613450565b50606487018051600101908190525b603c60c082028901038781528660208201528560408201528460608201528360808201528260a082015250505050505050505050565b806103b0576391b3e5145f526004601cfd5b636ab37ce75f526004601cfd5b6134ae83613486565b6134b881836133e9565b816134c9576117ef868686866147ba565b611801828260018989895f8a613407565b6064810151604082019060c0026044016134f5848383613152565b50506020905250565b5f806001600160e01b03198451165f805260205f85875f8b5af15f51909350149050816135375761352d6141fd565b846080526024607cfd5b8061180157846080526024607cfd5b5f8063ffffffff83351690506001810160051b6135698160408051918201905290565b9250613576848483611b28565b5050919050565b5f82840361358c5750806104f1565b82848309156135a25763c63cf0895f526004601cfd5b5f6135ad8584615c81565b93909304949350505050565b5f84861461360257838303428590038082035f6135d6838a615c81565b6135e0838c615c81565b6135ea9190615b99565b90508584878303040181151502945050505050612569565b5092949350505050565b6312d3f5a35f526004601cfd5b8451608081015160208201515f92916004811060019091111633909114151615610f50575f8061365087848b608001518b8a613fd5565b9150915061366a836020015188848463fb5014fc8a6148ae565b9350505050612569565b63d5da9a1b5f526004601cfd5b61368961522c565b83515f0361369a5761369a8561491b565b5f8560018111156136ad576136ad6154fb565b036136c3576136be8685838561492c565b612569565b6125698685833387614a9c565b84516060905f816001600160401b038111156136ee576136ee61591d565b604051908082528060200260200182016040528015613717578160200160208202803683370190505b506040805160208082528183019092529192505f9190602082018180368337505089519192505060010160051b60205b818110156137a6575f61375d8b83613e756104da565b8051606081015191925090801561379b57478111825115161561378757638ffff9805f526004601cfd5b61379b8284602001518560400151896144ce565b505050602001613747565b50505f5b83811015613912575f8a82815181106137c5576137c5615964565b6020026020010151905080602001516001600160781b03165f0361380c575f8483815181106137f6576137f6615964565b911515602092830291909101909101525061390a565b600184838151811061382057613820615964565b911515602092830291909101909101528051604081015180515f5b818110156138a5575f83828151811061385657613856615964565b6020026020010151905080606001515f1461389257608081018051908e9052855161012087015161388c9184918c6144ce6104da565b60808201525b608081015160609091015260010161383b565b505050606081015180515f5b81811015613904575f8382815181106138cc576138cc615964565b602002602001015190505f81606001519050805f146138f0576138f0888483614bd3565b5060a08101516060909101526001016138b1565b50505050505b6001016137aa565b5061391c816119c4565b47801561392d5761392d33826133b3565b85156139a3575f5b848110156139a15783818151811061394f5761394f615964565b602002602001015115613999576139998b828151811061397157613971615964565b60200260200101518a8b848151811061398c5761398c615964565b6020026020010151612e45565b600101613935565b505b6139ab611a5e565b509098975050505050505050565b5f6139cc61016060408051918201905290565b9050611c048282612572565b808210156103dc576103dc614bec565b631a5155745f52806020526024601cfd5b63ee9e0e635f52806020526024601cfd5b6310fda3e15f52806020526024601cfd5b6103b081604051602401613a2f9190615361565b60408051601f198184030181529190526020810180516001600160e01b031663104c13eb60e21b179052614bf9565b6103b081604051602401613a7491815260200190565b60408051601f198184030181529190526020810180516001600160e01b03166327b7cf8560e01b179052614bf9565b5f805f84516001811660410380820360051c9250808752806020018701915050805160e81c6003820191506001811660051b868152825160208218525060015b83811015613b0f5760405f2082821c60051b602090811691825293840180519190941852600101613ae3565b50505060405f2091505f613b2282614c05565b5f9081526020939093525050604090209392505050565b5f805f528151602083038051826041035f60018211613b9c57604087015160608801515f1a8315613b7d57601b8260ff1c0190506001600160ff1b03821660408a01525b88528a855260205f60808760015afa508385528588526040880152505f515b8a148a1515169450849050613c6557858552604082526044850380516040870351630b135d3f60e11b835289604089035260205f60648b01858f5afa96508615613c5957630b135d3f60e11b5f5114613c59578b3b15613c0357634f7fb80d5f526004601cfd5b6001866041031115613c1c57638baa579f5f526004601cfd5b64010100000060608901515f1a1a15604187141615613c4c57631f003d0a5f5260608801515f1a6020526024601cfd5b63815e1d645f526004601cfd5b8385529152603f198601525b5050508061180157613c756141fd565b634f7fb80d5f526004601cfd5b613c8a61522c565b8251158451151715613ca3576398e9db6e5f526004601cfd5b613cab61522c565b613cb88685835f80614a9c565b805160608101515f03613ccd57509050610622565b613cdd878785846080015161492c565b82516040828101519082015160208085015190840151855185511891181791181715613d145763bced929d5f52846020526024601cfd5b806060015182606001511115613d9b575f865f81518110613d3757613d37615964565b60200260200101519050816060015183606001510389825f015181518110613d6157613d61615964565b60200260200101515f015160600151826020015181518110613d8557613d85615964565b6020026020010151606001818152505050613e1c565b5f875f81518110613dae57613dae615964565b60200260200101519050826060015182606001510389825f015181518110613dd857613dd8615964565b60200260200101515f015160400151826020015181518110613dfc57613dfc615964565b602002602001015160600181815250508260600151826060018181525050505b505050949350505050565b428084111590831116818015613e3b575080155b156104f1576104f18484615014565b635a052b325f526004601cfd5b63a11b63ff5f526004601cfd5b63133c37c65f52806020526024601cfd5b5f6104f18284015190565b5f838381518110613e9357613e93615964565b602002602001015190505f815f01519050613eae8160031090565b613eba57613eba615029565b60408201518015613edd57613ed88460600151828660800151615036565b613ef0565b60808401515115613ef057613ef0615080565b6004821460030383816005811115613f0a57613f0a6154fb565b90816005811115613f1d57613f1d6154fb565b9052505050606090920151604090910152505050565b82515f5b81811015611801575f858281518110613f5257613f52615964565b60209081029190910101518051604082015191925090600382116004881415821515171615613f8c57855f5288602052836040526044601cfd5b505050806001019050613f37565b5f868803613fb457613fad86868961357d565b90506107df565b6107dc613fc287878b61357d565b613fcd88888b61357d565b8686866135b9565b5f805f613fe061508d565b6301e4d72a815260208082015260408101898152336060830152601c82019450909150875160408201528761402061401960a083015190565b60e0840152565b61403661402e60c083015190565b610100840152565b61404c61404460e083015190565b610120840152565b61014061405a816060850152565b5f614066604084015190565b90505f61407582848701615097565b928301929050614086836080870152565b5f614092606086015190565b90505f6140a1828689016150fd565b9485019490506140b28560a0890152565b5f6140bf8e878a01615162565b9590950194506140d08560c0890152565b8685015f6140de8e83615181565b602497019687019a506140fa90506140f58c8c0190565b6151b1565b8060408b901b60808b901b17178f6101000181815250506141248c82611b8090919063ffffffff16565b60058c8e516141339190615b86565b61413e911b8b615b86565b99505050505050505050509550959350505050565b5f808361415e61508d565b639891976581523360208201908152608060408301819052601c9092019450905f61418a604085015190565b90505f61419982848601615097565b9283019290506141aa836040860152565b5f6141b6606087015190565b90505f6141c582868801615097565b9485019490506141d6856060880152565b895f6141e482898901615162565b9a9d96909a016004019b50949950505050505050505050565b3d1561424257601f3d0160051c60405160051c816003028183111561422f578183036003028280028480020360091c01015b5a602082011015611a59573d5f803e3d5ffd5b565b63939792855f52806020526024601cfd5b60603d105f8080808080866142c75760405f803e5f51935060205192503d60208501113d602085011180821798505050866142c7576020845f3e5f51915060208360203e60205190508160071b60208501018160a0026020850101803d10823d101761ffff8486171117985050505f80525b866142f9575f806142dc84602088018d614302565b925097506142ee83602087018c6143e2565b929092179850909550505b5050505061287c565b5f806040519150825160c08602602001830160405285835260208660010160051b8085018360010160051b8701614340858b81811090829003020190565b60010160051b8a861196505b808510156143a057828589015260808a843e60608301519550856080840152606082015186811161437d8585614489565b17881797505060808a01995060a08301925060a08201915060208501945061434c565b50505b818310156143d6578083870152608088823e6060810151608082015260808801975060a0810190506020830192506143a3565b50505050935093915050565b604051815180851190808603818710028101602060e08202850181016040528185526001928301600590811b87019390920190911b908185015b828210156143d657808287015260a088823e60206060890160a083013e606081015160608501516144596080840151608088015180159114171590565b818311176144678488614489565b60a09b909b019a179690961795505060c093840193602092909201910161441c565b5f8151604083015180156003831116156144ab57506040840151600119909101905b604085015181148551831460208701516020870151141616159250505092915050565b5f845160058111156144e2576144e26154fb565b0361451f57604084015160208501516001600160a01b0316171561450857614508613498565b61451a846080015185606001516133b3565b6145bd565b600184516005811115614534576145346154fb565b036145655760408401511561454b5761454b613498565b61451a8460200151848660800151876060015186866134a5565b60028451600581111561457a5761457a6154fb565b0361459e5761451a8460200151848660800151876040015188606001518787611889565b6145bd84602001518486608001518760400151886060015187876118d4565b50505050565b608082901c63ffffffff604084901c811690808516906145eb9084906317b1f94290611b8016565b601c830192506145fb8482615181565b50509250929050565b5f8061460e61508d565b63f4dd92ce815287841860a0820152601c8101925060200160a0808252875f614638604083015190565b90505f61464782858701615097565b938401939050614658846020870152565b5f614664606085015190565b90505f614673828789016150fd565b958601959050614684866040890152565b5f6146918d888a01615162565b9687019690506146a28760608a0152565b5f6146af8d898b01615181565b905080880197508760040199505050505050505050509550959350505050565b6339f3e3fd5f526004601cfd5b6301e4d72a6102043560051b6080019081525f808260208082015260408101858152336060830152601c9190910190614716608435610aeb565b61472761014460e083016060611b28565b610140614735816060840152565b61474360a082016080840152565b61016060a061026435810292909201019061475f908290840152565b6147695f82840152565b6020016147778160c0840152565b5f9181019182526020820196909652939560449095019492505050565b63d13d53d45f52806020526024601cfd5b631cf99b265f5281602052806040526044601cfd5b6040516323b872dd60e01b5f5283600452826024528160445260205f60645f80895af1803d15601f3d1160015f51141617163d1515811661489f5780873b15151661489f578061488e5781614871573d1561485057601f3d0160051c8360051c8160030281831115614839578183036003028280028480020360091c01015b5a60208201101561484c573d5f803e3d5ffd5b5050505b63f486bc875f528660205285604052846060525f6080528360a05260a4601cfd5b63988919235f52866020528560405284606052836080526084601cfd5b635f15d6725f52866020526024601cfd5b505060405250505f6060525050565b5f805f6001600160e01b03198751165f805260205f888a5f8e5af15f51909350149050816148fa57836148e5575f925050506106d7565b6148ed6141fd565b845f52876020526024601cfd5b8061490c57845f52876020526024601cfd5b50600198975050505050505050565b63375c24c15f52806020526024601cfd5b5f805f85865160051b87015b80821015614a495760208201915088518251511061495857614958614a7d565b81515160051b60208a01015180516020845101515f60408301516020850151158151841015171561498d575050505050614938565b8260051b60208201015191505060608101935083518901915083511589831060011b17881797508198505f84528a5193508615600181146149f65760608220881860408d01516101208601511860208e01518651181717156149f1576149f1614a7d565b614a3f565b8151855260208201516020860152604082015160408601528a6080860152835160208d015261012084015160408d015260608520975060208d01925086831815614a3f57865183525b5050505050614938565b505050816060855101528015614a765760018103614a6e576391b3e5145f526004601cfd5b614a76614a8a565b50506145bd565b637fda72795f526004601cfd5b634e487b715f5260116020526024601cfd5b5f805f86875160051b88015b80821015614b9e576020820191508151518a518110614ac957614ac9614a7d565b8060051b60208c01015190506020835101515f60608351015160208401511581518410151715614afc5750505050614aa8565b8260051b60208201015191505060608101925082518801915082511588831060011b17871796508197505f83528a519250851560018114614b4e5760a082208714614b4957614b49614a7d565b614b95565b815184526020820151602085015260408201516040850152608082015160808501528a60208d01528960408d015260a08220965060208d01925085831815614b9557855183525b50505050614aa8565b50508551606001839052508015614bcc5760018103614bc4576391b3e5145f526004601cfd5b614bcc614a8a565b50506129f5565b63a5f542085f528260205281604052806060526064601cfd5b63466aa6165f526004601cfd5b6103b0816151bb6104da565b5f61500b565b5f6009821015614d64576005821015614cc1576003821015614c74577f832c58a5b611aadcfa6a082ac9d04bace53d8278387f10040347b7e98eb5b30260018314027fbf8e29b89f29ed9b529c154a63038ffca562f8d7cd1e2545dda53a1b582dde3018610402565b7ff3e8417a785f980bdaf134fa0274a6bf891eeb8195cd94b09d2aa651046e28bc60038314027fa02eb7ff164c884e5e2c336dc85f81c6a93329d8e9adf214b32729b894de2af118610402565b6007821015614d17577f25d02425402d882d211a7ab774c0ed6eca048c4d03d9af40132475744753b2a360058314027f1c19f71958cdd8f081b4c31f7caf5c010b29d12950be2fa1c95070dc47e30b5518610402565b7fb58d772fb09b426b9dece637f61ca9065f2b994f1464b51e9207f55f7c8f594860078314027f7ff98d9d4e55d876c5cfac10b43c04039522f3ddfb0ea9bfe70c68cfb5c7cc1418610402565b6011821015614ebc57600d821015614e1957600b821015614dcc577f6f0ec38c21f6f583ab7f3c5413c773ffd5344c34fde1d390958e438bf667448f60098314027fd1d97d1ef5eaa37a4ee5fbf234e6f6d64eb511eb562221cd7edfbdde0848da0518610402565b7f32f4e7485d6485f9f6c255929b9905c62ba919758bbe231f231eaeecf33d810c600b8314027fbb98d87cc12922b83759626c5f07d72266da9702d19ffad6a514c73a89002f5f18610402565b600f821015614e6f577f8df51df98847160517f5b1186b4bc3f418d98b8a7f17f1292f392d79d600d79e600d8314027f6b5b04cbae4fcb1a9d78e7b2dfc51a36933d023cf6e347e03d517b472a85259018610402565b7fcc4886e37eedd9aacd6c1c2c9247197a621a71282e87a7cbc673f3736d9aa141600f8314027f1da3eed3ecef6ebaa6e5023c057ec2c75150693fd0dac5c90f4a142f9879fde818610402565b6015821015614f68576013821015614f1b577f2d7a3ed6dab270fdb8e054b2ad525f0ce2a8b89cc76c17f0965434740f673a5560118314027fc3939feff011e53ab8c35ca3370aad54c5df1fc2938cd62543174fa6e7d8587718610402565b7f54b3212a178782f104e0d514b41a9a5c4ca9c980bf6597c3cecbf280917e202a60138314027f5a4f867d3d458dabecad65f6201ceeaba0096df2d0c491cc32e6ea4e6435001718610402565b6017821015614fbe577fbb40bf8cea3a5a716e2b6eb08bbdac8ec159f82f380783db3c56904f15a43d0460158314027f3bd8cff538aba49a9c374c806d277181e9651624b3e31111bc0624574f8bca1d18610402565b7f403be09941a31d05cfc2f896505811353d45d38743288b016630cce39435476a60178314027f1d51df90cba8de7637ca3e8fe1e3511d1dc2f23487d05dbdecb781860c21ac1c18610402565b61040282614c0b565b6321ccfeb75f5281602052806040526044601cfd5b6394eb6af65f526004601cfd5b5f835f5260205f2060208301835160051b81015b8082101561507157815180841160051b93845260209384185260405f20929091019061504a565b505083149050806145bd576145bd5b6309bde3395f526004601cfd5b5f61041260405190565b5f825180835260208401602084018260051b82015b808310156150ea57825180518352602081015160208401526040810151604084015260608101516060840152506020830192506080820191506150ac565b5050508060071b60200191505092915050565b5f80615107845190565b8084529050602084810190600583901b860181019085015b8282111561514f575f615131846151da565b905061513f818360a06151e3565b506020929092019160a00161511f565b60a0840260200194505050505092915050565b5f63ffffffe0603f615172855190565b011690506104028383836151e3565b5f8061518b845190565b8084529050600581901b6151a66020868101908601836151e3565b602001949350505050565b6103b06040829052565b5f6a636f6e736f6c652e6c6f6790505f80835160208501845afa505050565b5f610402825190565b8082828560045afa80153d1517156145bd575f80fd5b6040518060a0016040528061520c61526e565b81525f602082018190526040820152606080820181905260809091015290565b60408051610100810182525f606082018181526080830182905260a0830182905260c0830182905260e083018290528252602082018190529181019190915290565b6040518061016001604052805f6001600160a01b031681526020015f6001600160a01b0316815260200160608152602001606081526020015f60048111156152b8576152b86154fb565b81525f6020820181905260408201819052606082018190526080820181905260a0820181905260c09091015290565b5f602082840312156152f7575f80fd5b81356001600160401b0381111561530c575f80fd5b820161024081850312156104f1575f80fd5b5f81518084525f5b8181101561534257602081850181015186830182015201615326565b505f602082860101526020601f19601f83011685010191505092915050565b602081525f6104f1602083018461531e565b5f60208284031215615383575f80fd5b5035919050565b5f6020828403121561539a575f80fd5b81356001600160401b038111156153af575f80fd5b820161016081850312156104f1575f80fd5b5f8083601f8401126153d1575f80fd5b5081356001600160401b038111156153e7575f80fd5b6020830191508360208260051b8501011115615401575f80fd5b9250929050565b80356001600160a01b0381168114611c04575f80fd5b5f805f805f805f805f805f60e08c8e031215615438575f80fd5b6001600160401b03808d35111561544d575f80fd5b61545a8e8e358f016153c1565b909c509a5060208d013581101561546f575f80fd5b61547f8e60208f01358f016153c1565b909a50985060408d0135811015615494575f80fd5b6154a48e60408f01358f016153c1565b909850965060608d01358110156154b9575f80fd5b506154ca8d60608e01358e016153c1565b909550935060808c013592506154e260a08d01615408565b915060c08c013590509295989b509295989b9093969950565b634e487b7160e01b5f52602160045260245ffd5b60068110611b8057611b806154fb565b61552a82825161550f565b6020818101516001600160a01b0390811691840191909152604080830151908401526060808301519084015260809182015116910152565b5f815180845260208085019450602084015f5b838110156155b757815161558a88825161551f565b808401516001600160a01b031660a08901526040015160c088015260e09096019590820190600101615575565b509495945050505050565b604080825283519082018190525f906020906060840190828701845b828110156155fc5781511515845292840192908401906001016155de565b50505083810360208501526106d78186615562565b5f8060208385031215615622575f80fd5b82356001600160401b03811115615637575f80fd5b615643858286016153c1565b90969095509350505050565b5f805f8060408587031215615662575f80fd5b84356001600160401b0380821115615678575f80fd5b615684888389016153c1565b9096509450602087013591508082111561569c575f80fd5b506156a9878288016153c1565b95989497509550505050565b602081525f6104f16020830184615562565b5f602082840312156156d7575f80fd5b6104f182615408565b5f80604083850312156156f1575f80fd5b82356001600160401b03811115615706575f80fd5b830160408186031215615717575f80fd5b946020939093013593505050565b5f805f805f60808688031215615739575f80fd5b85356001600160401b038082111561574f575f80fd5b9087019060a0828a031215615762575f80fd5b90955060208701359080821115615777575f80fd5b50615784888289016153c1565b9095509350506040860135915061579d60608701615408565b90509295509295909350565b5f805f805f805f8060a0898b0312156157c0575f80fd5b88356001600160401b03808211156157d6575f80fd5b6157e28c838d016153c1565b909a50985060208b01359150808211156157fa575f80fd5b6158068c838d016153c1565b909850965060408b013591508082111561581e575f80fd5b5061582b8b828c016153c1565b999c989b509699959896976060870135966080013595509350505050565b5f805f805f805f6080888a03121561585f575f80fd5b87356001600160401b0380821115615875575f80fd5b6158818b838c016153c1565b909950975060208a0135915080821115615899575f80fd5b6158a58b838c016153c1565b909750955060408a01359150808211156158bd575f80fd5b506158ca8a828b016153c1565b90945092506158dd905060608901615408565b905092959891949750929550565b606081525f6158fd606083018661531e565b6020830194909452506001600160a01b0391909116604090910152919050565b634e487b7160e01b5f52604160045260245ffd5b634e487b7160e01b5f52601160045260245ffd5b5f8261595f57634e487b7160e01b5f52601260045260245ffd5b500490565b634e487b7160e01b5f52603260045260245ffd5b5f815180845260208085019450602084015f5b838110156155b75781516159a088825161550f565b838101516001600160a01b03168885015260408082015190890152606080820151908901526080908101519088015260a0909601959082019060010161598b565b5f815180845260208085019450602084015f5b838110156155b7578151615a0988825161550f565b808401516001600160a01b0390811689860152604080830151908a0152606080830151908a0152608080830151908a015260a091820151169088015260c090960195908201906001016159f4565b60058110611b8057611b806154fb565b82815260406020820152615a876040820183516001600160a01b03169052565b5f6020830151615aa260608401826001600160a01b03169052565b506040830151610160806080850152615abf6101a0850183615978565b91506060850151603f198584030160a0860152615adc83826159e1565b9250506080850151615af160c0860182615a57565b5060a085015160e085015260c0850151610100818187015260e0870151915061012082818801528188015192506101409150828288015280880151848801525080870151610180870152505050809150509392505050565b5f823561015e19833603018112615b5e575f80fd5b9190910192915050565b5f60208284031215615b78575f80fd5b8135600581106104f1575f80fd5b8181038181111561040257610402615931565b8082018082111561040257610402615931565b5f815180845260208085019450602084015f5b838110156155b757615bd287835161551f565b60a0969096019590820190600101615bbf565b5f6080808301878452602060018060a01b03808916602087015260406080604088015283895180865260a08901915060208b0195505f5b81811015615c5d578651615c3184825161550f565b808701518616848801528481015185850152606090810151908401529585019591870191600101615c1c565b50508781036060890152615c71818a615bac565b9c9b505050505050505050505050565b80820281158282048414176104025761040261593156fea164736f6c6343000818000a436f6e73696465726174696f6e4974656d2875696e7438206974656d547970652c6164647265737320746f6b656e2c75696e74323536206964656e7469666965724f7243726974657269612c75696e74323536207374617274416d6f756e742c75696e7432353620656e64416d6f756e742c6164647265737320726563697069656e7429454950373132446f6d61696e28737472696e67206e616d652c737472696e672076657273696f6e2c75696e7432353620636861696e49642c6164647265737320766572696679696e67436f6e7472616374294f72646572436f6d706f6e656e74732861646472657373206f6666657265722c61646472657373207a6f6e652c4f666665724974656d5b5d206f666665722c436f6e73696465726174696f6e4974656d5b5d20636f6e73696465726174696f6e2c75696e7438206f72646572547970652c75696e7432353620737461727454696d652c75696e7432353620656e6454696d652c62797465733332207a6f6e65486173682c75696e743235362073616c742c6279746573333220636f6e647569744b65792c75696e7432353620636f756e746572294f666665724974656d2875696e7438206974656d547970652c6164647265737320746f6b656e2c75696e74323536206964656e7469666965724f7243726974657269612c75696e74323536207374617274416d6f756e742c75696e7432353620656e64416d6f756e7429",
  "linkReferences": {},
  "deployedLinkReferences": {}
}