{
  "_format": "hh-sol-artifact-1",
  "contractName": "SignatureController",
  "sourceName": "dot-crypto/contracts/controllers/SignatureController.sol",
  "abi": [
    {
      "inputs": [
        {
          "internalType": "contract CNSRegistry",
          "name": "registry",
          "type": "address"
        }
      ],
      "payable": false,
      "stateMutability": "nonpayable",
      "type": "constructor"
    },
    {
      "constant": false,
      "inputs": [
        {
          "internalType": "uint256",
          "name": "tokenId",
          "type": "uint256"
        },
        {
          "internalType": "string",
          "name": "label",
          "type": "string"
        },
        {
          "internalType": "bytes",
          "name": "signature",
          "type": "bytes"
        }
      ],
      "name": "burnChildFor",
      "outputs": [],
      "payable": false,
      "stateMutability": "nonpayable",
      "type": "function"
    },
    {
      "constant": false,
      "inputs": [
        {
          "internalType": "uint256",
          "name": "tokenId",
          "type": "uint256"
        },
        {
          "internalType": "bytes",
          "name": "signature",
          "type": "bytes"
        }
      ],
      "name": "burnFor",
      "outputs": [],
      "payable": false,
      "stateMutability": "nonpayable",
      "type": "function"
    },
    {
      "constant": false,
      "inputs": [
        {
          "internalType": "address",
          "name": "to",
          "type": "address"
        },
        {
          "internalType": "uint256",
          "name": "tokenId",
          "type": "uint256"
        },
        {
          "internalType": "string",
          "name": "label",
          "type": "string"
        },
        {
          "internalType": "bytes",
          "name": "signature",
          "type": "bytes"
        }
      ],
      "name": "mintChildFor",
      "outputs": [],
      "payable": false,
      "stateMutability": "nonpayable",
      "type": "function"
    },
    {
      "constant": true,
      "inputs": [
        {
          "internalType": "uint256",
          "name": "tokenId",
          "type": "uint256"
        }
      ],
      "name": "nonceOf",
      "outputs": [
        {
          "internalType": "uint256",
          "name": "",
          "type": "uint256"
        }
      ],
      "payable": false,
      "stateMutability": "view",
      "type": "function"
    },
    {
      "constant": true,
      "inputs": [],
      "name": "registry",
      "outputs": [
        {
          "internalType": "address",
          "name": "",
          "type": "address"
        }
      ],
      "payable": false,
      "stateMutability": "view",
      "type": "function"
    },
    {
      "constant": false,
      "inputs": [
        {
          "internalType": "address",
          "name": "to",
          "type": "address"
        },
        {
          "internalType": "uint256",
          "name": "tokenId",
          "type": "uint256"
        },
        {
          "internalType": "bytes",
          "name": "signature",
          "type": "bytes"
        }
      ],
      "name": "resolveToFor",
      "outputs": [],
      "payable": false,
      "stateMutability": "nonpayable",
      "type": "function"
    },
    {
      "constant": false,
      "inputs": [
        {
          "internalType": "address",
          "name": "to",
          "type": "address"
        },
        {
          "internalType": "uint256",
          "name": "tokenId",
          "type": "uint256"
        },
        {
          "internalType": "string",
          "name": "label",
          "type": "string"
        },
        {
          "internalType": "bytes",
          "name": "_data",
          "type": "bytes"
        },
        {
          "internalType": "bytes",
          "name": "signature",
          "type": "bytes"
        }
      ],
      "name": "safeMintChildFor",
      "outputs": [],
      "payable": false,
      "stateMutability": "nonpayable",
      "type": "function"
    },
    {
      "constant": false,
      "inputs": [
        {
          "internalType": "address",
          "name": "to",
          "type": "address"
        },
        {
          "internalType": "uint256",
          "name": "tokenId",
          "type": "uint256"
        },
        {
          "internalType": "string",
          "name": "label",
          "type": "string"
        },
        {
          "internalType": "bytes",
          "name": "signature",
          "type": "bytes"
        }
      ],
      "name": "safeMintChildFor",
      "outputs": [],
      "payable": false,
      "stateMutability": "nonpayable",
      "type": "function"
    },
    {
      "constant": false,
      "inputs": [
        {
          "internalType": "address",
          "name": "from",
          "type": "address"
        },
        {
          "internalType": "address",
          "name": "to",
          "type": "address"
        },
        {
          "internalType": "uint256",
          "name": "tokenId",
          "type": "uint256"
        },
        {
          "internalType": "string",
          "name": "label",
          "type": "string"
        },
        {
          "internalType": "bytes",
          "name": "signature",
          "type": "bytes"
        }
      ],
      "name": "safeTransferFromChildFor",
      "outputs": [],
      "payable": false,
      "stateMutability": "nonpayable",
      "type": "function"
    },
    {
      "constant": false,
      "inputs": [
        {
          "internalType": "address",
          "name": "from",
          "type": "address"
        },
        {
          "internalType": "address",
          "name": "to",
          "type": "address"
        },
        {
          "internalType": "uint256",
          "name": "tokenId",
          "type": "uint256"
        },
        {
          "internalType": "string",
          "name": "label",
          "type": "string"
        },
        {
          "internalType": "bytes",
          "name": "_data",
          "type": "bytes"
        },
        {
          "internalType": "bytes",
          "name": "signature",
          "type": "bytes"
        }
      ],
      "name": "safeTransferFromChildFor",
      "outputs": [],
      "payable": false,
      "stateMutability": "nonpayable",
      "type": "function"
    },
    {
      "constant": false,
      "inputs": [
        {
          "internalType": "address",
          "name": "from",
          "type": "address"
        },
        {
          "internalType": "address",
          "name": "to",
          "type": "address"
        },
        {
          "internalType": "uint256",
          "name": "tokenId",
          "type": "uint256"
        },
        {
          "internalType": "bytes",
          "name": "_data",
          "type": "bytes"
        },
        {
          "internalType": "bytes",
          "name": "signature",
          "type": "bytes"
        }
      ],
      "name": "safeTransferFromFor",
      "outputs": [],
      "payable": false,
      "stateMutability": "nonpayable",
      "type": "function"
    },
    {
      "constant": false,
      "inputs": [
        {
          "internalType": "address",
          "name": "from",
          "type": "address"
        },
        {
          "internalType": "address",
          "name": "to",
          "type": "address"
        },
        {
          "internalType": "uint256",
          "name": "tokenId",
          "type": "uint256"
        },
        {
          "internalType": "bytes",
          "name": "signature",
          "type": "bytes"
        }
      ],
      "name": "safeTransferFromFor",
      "outputs": [],
      "payable": false,
      "stateMutability": "nonpayable",
      "type": "function"
    },
    {
      "constant": false,
      "inputs": [
        {
          "internalType": "address",
          "name": "from",
          "type": "address"
        },
        {
          "internalType": "address",
          "name": "to",
          "type": "address"
        },
        {
          "internalType": "uint256",
          "name": "tokenId",
          "type": "uint256"
        },
        {
          "internalType": "string",
          "name": "label",
          "type": "string"
        },
        {
          "internalType": "bytes",
          "name": "signature",
          "type": "bytes"
        }
      ],
      "name": "transferFromChildFor",
      "outputs": [],
      "payable": false,
      "stateMutability": "nonpayable",
      "type": "function"
    },
    {
      "constant": false,
      "inputs": [
        {
          "internalType": "address",
          "name": "from",
          "type": "address"
        },
        {
          "internalType": "address",
          "name": "to",
          "type": "address"
        },
        {
          "internalType": "uint256",
          "name": "tokenId",
          "type": "uint256"
        },
        {
          "internalType": "bytes",
          "name": "signature",
          "type": "bytes"
        }
      ],
      "name": "transferFromFor",
      "outputs": [],
      "payable": false,
      "stateMutability": "nonpayable",
      "type": "function"
    }
  ],
  "bytecode": "0x608060405234801561001057600080fd5b506040516120813803806120818339818101604052602081101561003357600080fd5b5051600180546001600160a01b0319166001600160a01b0390921691909117905561201e806100636000396000f3fe608060405234801561001057600080fd5b50600436106100ea5760003560e01c80636debcb8d1161008c578063b34f33c511610066578063b34f33c514610741578063d0778d6c14610814578063ef2c3088146108f2578063f5090c1e14610980576100ea565b80636debcb8d146105ca5780636fab95b3146106585780637b1039991461071d576100ea565b8063511f1112116100c8578063511f1112146103c557806361603dd91461044857806368b6154f146104bd5780636ccbae5f1461059b576100ea565b806307eca395146100ef578063280d9b051461021457806330135293146102f2575b600080fd5b610212600480360360a081101561010557600080fd5b6001600160a01b0382351691602081013591810190606081016040820135600160201b81111561013457600080fd5b82018360208201111561014657600080fd5b803590602001918460018302840111600160201b8311171561016757600080fd5b919390929091602081019035600160201b81111561018457600080fd5b82018360208201111561019657600080fd5b803590602001918460018302840111600160201b831117156101b757600080fd5b919390929091602081019035600160201b8111156101d457600080fd5b8201836020820111156101e657600080fd5b803590602001918460018302840111600160201b8311171561020757600080fd5b509092509050610aae565b005b610212600480360360a081101561022a57600080fd5b6001600160a01b03823581169260208101359091169160408201359190810190608081016060820135600160201b81111561026457600080fd5b82018360208201111561027657600080fd5b803590602001918460018302840111600160201b8311171561029757600080fd5b919390929091602081019035600160201b8111156102b457600080fd5b8201836020820111156102c657600080fd5b803590602001918460018302840111600160201b831117156102e757600080fd5b509092509050610c92565b6102126004803603608081101561030857600080fd5b6001600160a01b0382351691602081013591810190606081016040820135600160201b81111561033757600080fd5b82018360208201111561034957600080fd5b803590602001918460018302840111600160201b8311171561036a57600080fd5b919390929091602081019035600160201b81111561038757600080fd5b82018360208201111561039957600080fd5b803590602001918460018302840111600160201b831117156103ba57600080fd5b509092509050610e3d565b610212600480360360608110156103db57600080fd5b6001600160a01b0382351691602081013591810190606081016040820135600160201b81111561040a57600080fd5b82018360208201111561041c57600080fd5b803590602001918460018302840111600160201b8311171561043d57600080fd5b509092509050610fcc565b6102126004803603604081101561045e57600080fd5b81359190810190604081016020820135600160201b81111561047f57600080fd5b82018360208201111561049157600080fd5b803590602001918460018302840111600160201b831117156104b257600080fd5b5090925090506110c9565b610212600480360360a08110156104d357600080fd5b6001600160a01b03823581169260208101359091169160408201359190810190608081016060820135600160201b81111561050d57600080fd5b82018360208201111561051f57600080fd5b803590602001918460018302840111600160201b8311171561054057600080fd5b919390929091602081019035600160201b81111561055d57600080fd5b82018360208201111561056f57600080fd5b803590602001918460018302840111600160201b8311171561059057600080fd5b5090925090506111ae565b6105b8600480360360208110156105b157600080fd5b50356113a8565b60408051918252519081900360200190f35b610212600480360360808110156105e057600080fd5b6001600160a01b03823581169260208101359091169160408201359190810190608081016060820135600160201b81111561061a57600080fd5b82018360208201111561062c57600080fd5b803590602001918460018302840111600160201b8311171561064d57600080fd5b5090925090506113ba565b6102126004803603606081101561066e57600080fd5b81359190810190604081016020820135600160201b81111561068f57600080fd5b8201836020820111156106a157600080fd5b803590602001918460018302840111600160201b831117156106c257600080fd5b919390929091602081019035600160201b8111156106df57600080fd5b8201836020820111156106f157600080fd5b803590602001918460018302840111600160201b8311171561071257600080fd5b5090925090506114d4565b610725611675565b604080516001600160a01b039092168252519081900360200190f35b6102126004803603608081101561075757600080fd5b6001600160a01b0382351691602081013591810190606081016040820135600160201b81111561078657600080fd5b82018360208201111561079857600080fd5b803590602001918460018302840111600160201b831117156107b957600080fd5b919390929091602081019035600160201b8111156107d657600080fd5b8201836020820111156107e857600080fd5b803590602001918460018302840111600160201b8311171561080957600080fd5b509092509050611684565b610212600480360360a081101561082a57600080fd5b6001600160a01b03823581169260208101359091169160408201359190810190608081016060820135600160201b81111561086457600080fd5b82018360208201111561087657600080fd5b803590602001918460018302840111600160201b8311171561089757600080fd5b919390929091602081019035600160201b8111156108b457600080fd5b8201836020820111156108c657600080fd5b803590602001918460018302840111600160201b831117156108e757600080fd5b5090925090506117de565b6102126004803603608081101561090857600080fd5b6001600160a01b03823581169260208101359091169160408201359190810190608081016060820135600160201b81111561094257600080fd5b82018360208201111561095457600080fd5b803590602001918460018302840111600160201b8311171561097557600080fd5b5090925090506119e4565b610212600480360360c081101561099657600080fd5b6001600160a01b03823581169260208101359091169160408201359190810190608081016060820135600160201b8111156109d057600080fd5b8201836020820111156109e257600080fd5b803590602001918460018302840111600160201b83111715610a0357600080fd5b919390929091602081019035600160201b811115610a2057600080fd5b820183602082011115610a3257600080fd5b803590602001918460018302840111600160201b83111715610a5357600080fd5b919390929091602081019035600160201b811115610a7057600080fd5b820183602082011115610a8257600080fd5b803590602001918460018302840111600160201b83111715610aa357600080fd5b509092509050611ad3565b610bb163ce9fb82b89898989898960405160240180876001600160a01b03166001600160a01b0316815260200186815260200180602001806020018381038352878782818152602001925080828437600083820152601f01601f191690910184810383528581526020019050858580828437600081840152601f19601f820116905080830192505050985050505050505050506040516020818303038152906040529060e01b6020820180516001600160e01b038381831617835250505050805190602001208884848080601f016020809104026020016040519081016040528093929190818152602001838380828437600092019190915250611d5492505050565b600154604051630119f80560e21b81526001600160a01b038a811660048301908152602483018b9052608060448401908152608484018a90529190931692630467e014928c928c928c928c928c928c92909190606481019060a401878780828437600083820152601f01601f191690910184810383528581526020019050858580828437600081840152601f19601f82011690508083019250505098505050505050505050600060405180830381600087803b158015610c7057600080fd5b505af1158015610c84573d6000803e3d6000fd5b505050505050505050505050565b610d8363b88d4fde888888888860405160240180866001600160a01b03166001600160a01b03168152602001856001600160a01b03166001600160a01b03168152602001848152602001806020018281038252848482818152602001925080828437600081840152601f19601f82011690508083019250505096505050505050506040516020818303038152906040529060e01b6020820180516001600160e01b038381831617835250505050805190602001208684848080601f016020809104026020016040519081016040528093929190818152602001838380828437600092019190915250611d5492505050565b6001546040516315eab15d60e21b81526001600160a01b03898116600483019081528982166024840152604483018990526080606484019081526084840188905291909316926357aac574928b928b928b928b928b929160a401848480828437600081840152601f19601f8201169050808301925050509650505050505050600060405180830381600087803b158015610e1c57600080fd5b505af1158015610e30573d6000803e3d6000fd5b5050505050505050505050565b610f09637c69eae28787878760405160240180856001600160a01b03166001600160a01b0316815260200184815260200180602001828103825284848281815260200192508082843760008382015260408051601f928301601f199081169095018181039095018152938152602080850180516001600160e01b031660e09d909d1b9c909c178c529351909a208a51918d01849004840282018401909a528b81528f985096508b95508a94508493505085019050838280828437600092019190915250611d5492505050565b600154604051630119f80560e21b81526001600160a01b038881166004830190815260248301899052608060448401908152608484018890529190931692630467e014928a928a928a928a9290606481019060a401858580828437600081840152601f19601f8201169050808301925050508381038252600081526020016020019650505050505050600060405180830381600087803b158015610fac57600080fd5b505af1158015610fc0573d6000803e3d6000fd5b50505050505050505050565b604080516001600160a01b038616602482015260448082018690528251808303909101815260649091018252602081810180516001600160e01b0316632392c18960e01b17815291519091208251601f85018390048302810183019093528383526110569290918691908690869081908401838280828437600092019190915250611d5492505050565b60015460408051631292e83560e11b81526001600160a01b0387811660048301526024820187905291519190921691632525d06a91604480830192600092919082900301818387803b1580156110ab57600080fd5b505af11580156110bf573d6000803e3d6000fd5b5050505050505050565b6040805160248082018690528251808303909101815260449091018252602081810180516001600160e01b0316630852cd8d60e31b17815291519091208251601f85018390048302810183019093528383526111449290918691908690869081908401838280828437600092019190915250611d5492505050565b6001546040805163e67ca8a360e01b81526004810186905290516001600160a01b039092169163e67ca8a39160248082019260009290919082900301818387803b15801561119157600080fd5b505af11580156111a5573d6000803e3d6000fd5b50505050505050565b61129f639e5be9a5888888888860405160240180866001600160a01b03166001600160a01b03168152602001856001600160a01b03166001600160a01b03168152602001848152602001806020018281038252848482818152602001925080828437600081840152601f19601f82011690508083019250505096505050505050506040516020818303038152906040529060e01b6020820180516001600160e01b038381831617835250505050805190602001208684848080601f016020809104026020016040519081016040528093929190818152602001838380828437600092019190915250611d5492505050565b6001546040805163345b169960e11b81526004810188815260248201928352604482018790526001600160a01b03909316926302759c37928b928b9286926368b62d32928d928d928d92606401848480828437600083820152604051601f909101601f1916909201965060209550909350505081840390508186803b15801561132757600080fd5b505afa15801561133b573d6000803e3d6000fd5b505050506040513d602081101561135157600080fd5b5051604080516001600160e01b031960e087901b1681526001600160a01b03948516600482015292909316602483015260448201529051606480830192600092919082900301818387803b158015610e1c57600080fd5b60009081526020819052604090205490565b604080516001600160a01b0380881660248301528616604482015260648082018690528251808303909101815260849091018252602081810180516001600160e01b0316632142170760e11b17815291519091208251601f850183900483028101830190935283835261144c9290918691908690869081908401838280828437600092019190915250611d5492505050565b600154604080516315eab15d60e21b81526001600160a01b0388811660048301528781166024830152604482018790526080606483015260006084830181905292519316926357aac5749260c48084019391929182900301818387803b1580156114b557600080fd5b505af11580156114c9573d6000803e3d6000fd5b505050505050505050565b611585635cbe11128686866040516024018084815260200180602001828103825284848281815260200192508082843760008382015260408051601f928301601f199081169095018181039095018152938152602080850180516001600160e01b031660e09c909c1b9b909b178b5293519099208951918c018490048402820184019099528a81528e975095508a9450899350839250508401838280828437600092019190915250611d5492505050565b6001546040805163345b169960e11b81526004810188815260248201928352604482018790526001600160a01b039093169263e67ca8a39284926368b62d32928b928b928b929190606401848480828437600083820152604051601f909101601f1916909201965060209550909350505081840390508186803b15801561160b57600080fd5b505afa15801561161f573d6000803e3d6000fd5b505050506040513d602081101561163557600080fd5b5051604080516001600160e01b031960e085901b168152600481019290925251602480830192600092919082900301818387803b1580156114b557600080fd5b6001546001600160a01b031690565b61175063d8d3cc6e8787878760405160240180856001600160a01b03166001600160a01b0316815260200184815260200180602001828103825284848281815260200192508082843760008382015260408051601f928301601f199081169095018181039095018152938152602080850180516001600160e01b031660e09d909d1b9c909c178c529351909a208a51918d01849004840282018401909a528b81528f985096508b95508a94508493505085019050838280828437600092019190915250611d5492505050565b60015460405163b546666960e01b81526001600160a01b03888116600483019081526024830189905260606044840190815260648401889052919093169263b5466669928a928a928a928a9290608401848480828437600081840152601f19601f82011690508083019250505095505050505050600060405180830381600087803b158015610fac57600080fd5b6118cf639d743989888888888860405160240180866001600160a01b03166001600160a01b03168152602001856001600160a01b03166001600160a01b03168152602001848152602001806020018281038252848482818152602001925080828437600081840152601f19601f82011690508083019250505096505050505050506040516020818303038152906040529060e01b6020820180516001600160e01b038381831617835250505050805190602001208684848080601f016020809104026020016040519081016040528093929190818152602001838380828437600092019190915250611d5492505050565b6001546040805163345b169960e11b81526004810188815260248201928352604482018790526001600160a01b03909316926357aac574928b928b9286926368b62d32928d928d928d92606401848480828437600083820152604051601f909101601f1916909201965060209550909350505081840390508186803b15801561195757600080fd5b505afa15801561196b573d6000803e3d6000fd5b505050506040513d602081101561198157600080fd5b5051604080516001600160e01b031960e087901b1681526001600160a01b039485166004820152929093166024830152604482015260806064820152600060848201819052915160c4808301939282900301818387803b158015610e1c57600080fd5b604080516001600160a01b0380881660248301528616604482015260648082018690528251808303909101815260849091018252602081810180516001600160e01b03166323b872dd60e01b17815291519091208251601f8501839004830281018301909352838352611a769290918691908690869081908401838280828437600092019190915250611d5492505050565b600154604080516302759c3760e01b81526001600160a01b038881166004830152878116602483015260448201879052915191909216916302759c3791606480830192600092919082900301818387803b1580156114b557600080fd5b611bf063c29b52f98a8a8a8a8a8a8a60405160240180886001600160a01b03166001600160a01b03168152602001876001600160a01b03166001600160a01b0316815260200186815260200180602001806020018381038352878782818152602001925080828437600083820152601f01601f191690910184810383528581526020019050858580828437600081840152601f19601f82011690508083019250505099505050505050505050506040516020818303038152906040529060e01b6020820180516001600160e01b038381831617835250505050805190602001208884848080601f016020809104026020016040519081016040528093929190818152602001838380828437600092019190915250611d5492505050565b6001546040805163345b169960e11b8152600481018a815260248201928352604482018990526001600160a01b03909316926357aac574928d928d9286926368b62d32928f928f928f92606401848480828437600083820152604051601f909101601f1916909201965060209550909350505081840390508186803b158015611c7857600080fd5b505afa158015611c8c573d6000803e3d6000fd5b505050506040513d6020811015611ca257600080fd5b50516040516001600160e01b031960e086901b1681526001600160a01b0380851660048301908152908416602483015260448201839052608060648301908152608483018b90528b928b92919060a401848480828437600081840152601f19601f8201169050808301925050509650505050505050600060405180830381600087803b158015611d3157600080fd5b505af1158015611d45573d6000803e3d6000fd5b50505050505050505050505050565b6000828152602081815260408083205481518084018890523060601b81840152605480820183905283518083039091018152607490910190925281519190920120909190611db3908490611da790611ea9565b9063ffffffff611efa16565b90506001600160a01b03811615801590611e4957506001546040805163430c208160e01b81526001600160a01b038481166004830152602482018890529151919092169163430c2081916044808301926020929190829003018186803b158015611e1c57600080fd5b505afa158015611e30573d6000803e3d6000fd5b505050506040513d6020811015611e4657600080fd5b50515b611e8e576040805162461bcd60e51b8152602060048201526011602482015270494e56414c49445f5349474e415455524560781b604482015290519081900360640190fd5b50505060009081526020819052604090208054600101905550565b604080517f19457468657265756d205369676e6564204d6573736167653a0a333200000000602080830191909152603c8083019490945282518083039094018452605c909101909152815191012090565b60008151604114611f0d57506000611fe3565b60208201516040830151606084015160001a7f7fffffffffffffffffffffffffffffff5d576e7357a4501ddfe92f46681b20a0821115611f535760009350505050611fe3565b8060ff16601b14158015611f6b57508060ff16601c14155b15611f7c5760009350505050611fe3565b6040805160008152602080820180845289905260ff8416828401526060820186905260808201859052915160019260a0808401939192601f1981019281900390910190855afa158015611fd3573d6000803e3d6000fd5b5050506020604051035193505050505b9291505056fea265627a7a723158201655d484e26bca00371d9749b30b66df6dec2fd90ce64ec2fe45b5bcfc0142d464736f6c634300050c0032",
  "linkReferences": {},
  "deployedLinkReferences": {}
}