{
  "_format": "hh-sol-artifact-1",
  "contractName": "StackedForwarder",
  "sourceName": "contracts/metatx/StackedForwarder.sol",
  "abi": [
    {
      "inputs": [
        {
          "components": [
            {
              "internalType": "address",
              "name": "from",
              "type": "address"
            },
            {
              "internalType": "address",
              "name": "to",
              "type": "address"
            },
            {
              "internalType": "uint256",
              "name": "nonce",
              "type": "uint256"
            },
            {
              "internalType": "uint256",
              "name": "tokenId",
              "type": "uint256"
            },
            {
              "internalType": "bytes",
              "name": "data",
              "type": "bytes"
            }
          ],
          "internalType": "struct IUniversalForwarder.ForwardRequest",
          "name": "req",
          "type": "tuple"
        },
        {
          "internalType": "bytes",
          "name": "signature",
          "type": "bytes"
        }
      ],
      "name": "buildData",
      "outputs": [
        {
          "internalType": "bytes",
          "name": "",
          "type": "bytes"
        }
      ],
      "stateMutability": "view",
      "type": "function"
    },
    {
      "inputs": [
        {
          "components": [
            {
              "internalType": "address",
              "name": "from",
              "type": "address"
            },
            {
              "internalType": "address",
              "name": "to",
              "type": "address"
            },
            {
              "internalType": "uint256",
              "name": "nonce",
              "type": "uint256"
            },
            {
              "internalType": "uint256",
              "name": "tokenId",
              "type": "uint256"
            },
            {
              "internalType": "bytes",
              "name": "data",
              "type": "bytes"
            }
          ],
          "internalType": "struct IUniversalForwarder.ForwardRequest",
          "name": "req",
          "type": "tuple"
        },
        {
          "internalType": "bytes",
          "name": "signature",
          "type": "bytes"
        }
      ],
      "name": "execute",
      "outputs": [
        {
          "internalType": "bytes",
          "name": "",
          "type": "bytes"
        }
      ],
      "stateMutability": "nonpayable",
      "type": "function"
    },
    {
      "inputs": [],
      "name": "initialize",
      "outputs": [],
      "stateMutability": "nonpayable",
      "type": "function"
    },
    {
      "inputs": [
        {
          "internalType": "uint256",
          "name": "tokenId",
          "type": "uint256"
        }
      ],
      "name": "nonceOf",
      "outputs": [
        {
          "internalType": "uint256",
          "name": "",
          "type": "uint256"
        }
      ],
      "stateMutability": "view",
      "type": "function"
    },
    {
      "inputs": [
        {
          "components": [
            {
              "internalType": "address",
              "name": "from",
              "type": "address"
            },
            {
              "internalType": "address",
              "name": "to",
              "type": "address"
            },
            {
              "internalType": "uint256",
              "name": "nonce",
              "type": "uint256"
            },
            {
              "internalType": "uint256",
              "name": "tokenId",
              "type": "uint256"
            },
            {
              "internalType": "bytes",
              "name": "data",
              "type": "bytes"
            }
          ],
          "internalType": "struct IUniversalForwarder.ForwardRequest",
          "name": "req",
          "type": "tuple"
        },
        {
          "internalType": "bytes",
          "name": "signature",
          "type": "bytes"
        }
      ],
      "name": "verify",
      "outputs": [
        {
          "internalType": "bool",
          "name": "",
          "type": "bool"
        }
      ],
      "stateMutability": "view",
      "type": "function"
    }
  ],
  "bytecode": "0x608060405234801561001057600080fd5b50610b53806100206000396000f3fe608060405234801561001057600080fd5b50600436106100575760003560e01c80635b4dbfcc1461005c578063610f6076146100855780636ccbae5f146100a55780637507bd7a146100c55780638129fc1c146100d8575b600080fd5b61006f61006a366004610731565b6100e2565b60405161007c91906108d4565b60405180910390f35b610098610093366004610731565b6101dc565b60405161007c91906108fd565b6100b86100b33660046107c9565b610322565b60405161007c9190610a50565b6100986100d3366004610731565b610328565b6100e061041f565b005b6000806100f28560600135610322565b9050600061019e85858080601f016020809104026020016040519081016040528093929190818152602001838380828437600092019190915250610198925061014191505060808a018a610a59565b60405161014f929190610877565b604051809103902089602001602081019061016a919061070a565b8660405160200161017d9392919061080d565b60405160208183030381529060405280519060200120610525565b90610555565b90508560400135821480156101d057506101bb602087018761070a565b6001600160a01b0316816001600160a01b0316145b925050505b9392505050565b60606000806101ee6080870187610a59565b8080601f016020809104026020016040519081016040528093929190818152602001838380828437600092018290525060208501519650939450610239925050506080880188610a59565b8080601f01602080910402602001604051908101604052809392919081815260200183838082843760009201829052506001600160e01b03198089168252600160205260409091205494955060e09490941b9093161592506101d0915050576001600160e01b0319831660009081526001602052604090205460e01b6102c26080890189610a59565b6102d0916004908290610aa5565b6001600160e01b0319861660009081526001602081815260409283902090910154915161030795949392918b918d91839101610835565b60405160208183030381529060405290509695505050505050565b50600090565b606060005a9050600080610342604088016020890161070a565b6001600160a01b0316836103578989896101dc565b6040516103649190610887565b60006040518083038160008787f1925050503d80600081146103a2576040519150601f19603f3d011682016040523d82523d6000602084013e6103a7565b606091505b5090925090506103b8603f84610acd565b5a116103d457634e487b7160e01b600052600160045260246000fd5b61041482826040518060400160405280601d81526020017f537461636b6564466f727761726465723a2043414c4c5f4641494c45440000008152506105db565b979650505050505050565b600054610100900460ff1680610438575060005460ff16155b61045d5760405162461bcd60e51b8152600401610454906109c0565b60405180910390fd5b600054610100900460ff16158015610488576000805460ff1961ff0019909116610100171660011790555b60408051808201909152631de5861160e31b8152608060208083019182526323b872dd60e01b6000526001905290517fce0bd6e656eb7c8d50ede2dcd48631717efe69613db35062e41aebd62ba38b58805463ffffffff191660e09290921c919091179055517fce0bd6e656eb7c8d50ede2dcd48631717efe69613db35062e41aebd62ba38b59558015610522576000805461ff00191690555b50565b60008160405160200161053891906108a3565b604051602081830303815290604052805190602001209050919050565b60008060008084516041141561057f5750505060208201516040830151606084015160001a6105c5565b8451604014156105ad5750505060408201516020830151906001600160ff1b0381169060ff1c601b016105c5565b60405162461bcd60e51b815260040161045490610947565b6105d186828585610614565b9695505050505050565b606083156105ea5750816101d5565b8251156105fa5782518084602001fd5b8160405162461bcd60e51b815260040161045491906108fd565b60007f7fffffffffffffffffffffffffffffff5d576e7357a4501ddfe92f46681b20a08211156106565760405162461bcd60e51b81526004016104549061097e565b8360ff16601b148061066b57508360ff16601c145b6106875760405162461bcd60e51b815260040161045490610a0e565b6000600186868686604051600081526020016040526040516106ac94939291906108df565b6020604051602081039080840390855afa1580156106ce573d6000803e3d6000fd5b5050604051601f1901519150506001600160a01b0381166107015760405162461bcd60e51b815260040161045490610910565b95945050505050565b60006020828403121561071b578081fd5b81356001600160a01b03811681146101d5578182fd5b600080600060408486031215610745578182fd5b833567ffffffffffffffff8082111561075c578384fd5b9085019060a0828803121561076f578384fd5b90935060208501359080821115610784578384fd5b818601915086601f830112610797578384fd5b8135818111156107a5578485fd5b8760208285010111156107b6578485fd5b6020830194508093505050509250925092565b6000602082840312156107da578081fd5b5035919050565b600081518084526107f9816020860160208601610aed565b601f01601f19169290920160200192915050565b92835260609190911b6bffffffffffffffffffffffff19166020830152603482015260540190565b6001600160e01b031988168152600086886004840137868201600481018790526024810186905283856044830137909201604401918252509695505050505050565b6000828483379101908152919050565b60008251610899818460208701610aed565b9190910192915050565b7f19457468657265756d205369676e6564204d6573736167653a0a3332000000008152601c810191909152603c0190565b901515815260200190565b93845260ff9290921660208401526040830152606082015260800190565b6000602082526101d560208301846107e1565b60208082526018908201527f45434453413a20696e76616c6964207369676e61747572650000000000000000604082015260600190565b6020808252601f908201527f45434453413a20696e76616c6964207369676e6174757265206c656e67746800604082015260600190565b60208082526022908201527f45434453413a20696e76616c6964207369676e6174757265202773272076616c604082015261756560f01b606082015260800190565b6020808252602e908201527f496e697469616c697a61626c653a20636f6e747261637420697320616c72656160408201526d191e481a5b9a5d1a585b1a5e995960921b606082015260800190565b60208082526022908201527f45434453413a20696e76616c6964207369676e6174757265202776272076616c604082015261756560f01b606082015260800190565b90815260200190565b6000808335601e19843603018112610a6f578283fd5b83018035915067ffffffffffffffff821115610a89578283fd5b602001915036819003821315610a9e57600080fd5b9250929050565b60008085851115610ab4578182fd5b83861115610ac0578182fd5b5050820193919092039150565b600082610ae857634e487b7160e01b81526012600452602481fd5b500490565b60005b83811015610b08578181015183820152602001610af0565b83811115610b17576000848401525b5050505056fea26469706673582212208f505da4b214258eefa98c696864212785bdf1c1d19c2fcf6a3218f7ba032d0c64736f6c63430008000033",
  "linkReferences": {},
  "deployedLinkReferences": {}
}