{
  "_format": "hh-sol-artifact-1",
  "contractName": "Test",
  "sourceName": "contracts/smartAccounts/Test.sol",
  "abi": [
    {
      "inputs": [],
      "name": "execute",
      "outputs": [],
      "stateMutability": "nonpayable",
      "type": "function"
    },
    {
      "inputs": [],
      "name": "helloEIP7702",
      "outputs": [
        {
          "internalType": "string",
          "name": "",
          "type": "string"
        }
      ],
      "stateMutability": "pure",
      "type": "function"
    }
  ],
  "bytecode": "0x608060405234801561000f575f80fd5b5060c48061001c5f395ff3fe6080604052348015600e575f80fd5b50600436106030575f3560e01c8063416142311460345780636146195414606b575b5f80fd5b604080518082018252600e81526d2432b636379022a4a8169b9b981960911b6020820152905160629190606d565b60405180910390f35b005b5f602080835283518060208501525f5b81811015609757858101830151858201604001528201607d565b505f604082860101526040601f19601f830116850101925050509291505056fea164736f6c6343000818000a",
  "linkReferences": {},
  "deployedLinkReferences": {}
}