{
  "_format": "hh-sol-artifact-1",
  "contractName": "TwitterValidationOperator",
  "sourceName": "contracts/operators/TwitterValidationOperator.sol",
  "abi": [
    {
      "inputs": [
        {
          "internalType": "contract IUNSRegistry",
          "name": "unsRegistry",
          "type": "address"
        },
        {
          "internalType": "contract IUNSRegistry",
          "name": "cnsRegistry",
          "type": "address"
        },
        {
          "internalType": "contract LinkTokenInterface",
          "name": "linkToken",
          "type": "address"
        },
        {
          "internalType": "address[]",
          "name": "paymentCappers",
          "type": "address[]"
        }
      ],
      "stateMutability": "nonpayable",
      "type": "constructor"
    },
    {
      "anonymous": false,
      "inputs": [
        {
          "indexed": false,
          "internalType": "uint256",
          "name": "operatorPaymentPerValidation",
          "type": "uint256"
        },
        {
          "indexed": false,
          "internalType": "uint256",
          "name": "userPaymentPerValidation",
          "type": "uint256"
        }
      ],
      "name": "PaymentSet",
      "type": "event"
    },
    {
      "anonymous": false,
      "inputs": [
        {
          "indexed": true,
          "internalType": "bytes32",
          "name": "role",
          "type": "bytes32"
        },
        {
          "indexed": true,
          "internalType": "bytes32",
          "name": "previousAdminRole",
          "type": "bytes32"
        },
        {
          "indexed": true,
          "internalType": "bytes32",
          "name": "newAdminRole",
          "type": "bytes32"
        }
      ],
      "name": "RoleAdminChanged",
      "type": "event"
    },
    {
      "anonymous": false,
      "inputs": [
        {
          "indexed": true,
          "internalType": "bytes32",
          "name": "role",
          "type": "bytes32"
        },
        {
          "indexed": true,
          "internalType": "address",
          "name": "account",
          "type": "address"
        },
        {
          "indexed": true,
          "internalType": "address",
          "name": "sender",
          "type": "address"
        }
      ],
      "name": "RoleGranted",
      "type": "event"
    },
    {
      "anonymous": false,
      "inputs": [
        {
          "indexed": true,
          "internalType": "bytes32",
          "name": "role",
          "type": "bytes32"
        },
        {
          "indexed": true,
          "internalType": "address",
          "name": "account",
          "type": "address"
        },
        {
          "indexed": true,
          "internalType": "address",
          "name": "sender",
          "type": "address"
        }
      ],
      "name": "RoleRevoked",
      "type": "event"
    },
    {
      "anonymous": false,
      "inputs": [
        {
          "indexed": true,
          "internalType": "uint256",
          "name": "tokenId",
          "type": "uint256"
        },
        {
          "indexed": false,
          "internalType": "uint256",
          "name": "requestId",
          "type": "uint256"
        },
        {
          "indexed": false,
          "internalType": "uint256",
          "name": "paymentAmount",
          "type": "uint256"
        }
      ],
      "name": "Validation",
      "type": "event"
    },
    {
      "anonymous": false,
      "inputs": [
        {
          "indexed": true,
          "internalType": "uint256",
          "name": "tokenId",
          "type": "uint256"
        },
        {
          "indexed": true,
          "internalType": "address",
          "name": "owner",
          "type": "address"
        },
        {
          "indexed": false,
          "internalType": "uint256",
          "name": "requestId",
          "type": "uint256"
        },
        {
          "indexed": false,
          "internalType": "string",
          "name": "code",
          "type": "string"
        }
      ],
      "name": "ValidationRequest",
      "type": "event"
    },
    {
      "inputs": [],
      "name": "CAPPER_ROLE",
      "outputs": [
        {
          "internalType": "bytes32",
          "name": "",
          "type": "bytes32"
        }
      ],
      "stateMutability": "view",
      "type": "function"
    },
    {
      "inputs": [],
      "name": "DEFAULT_ADMIN_ROLE",
      "outputs": [
        {
          "internalType": "bytes32",
          "name": "",
          "type": "bytes32"
        }
      ],
      "stateMutability": "view",
      "type": "function"
    },
    {
      "inputs": [],
      "name": "NAME",
      "outputs": [
        {
          "internalType": "string",
          "name": "",
          "type": "string"
        }
      ],
      "stateMutability": "view",
      "type": "function"
    },
    {
      "inputs": [],
      "name": "VERSION",
      "outputs": [
        {
          "internalType": "string",
          "name": "",
          "type": "string"
        }
      ],
      "stateMutability": "view",
      "type": "function"
    },
    {
      "inputs": [],
      "name": "WHITELISTED_ROLE",
      "outputs": [
        {
          "internalType": "bytes32",
          "name": "",
          "type": "bytes32"
        }
      ],
      "stateMutability": "view",
      "type": "function"
    },
    {
      "inputs": [
        {
          "internalType": "address",
          "name": "account",
          "type": "address"
        }
      ],
      "name": "addCapper",
      "outputs": [],
      "stateMutability": "nonpayable",
      "type": "function"
    },
    {
      "inputs": [
        {
          "internalType": "address",
          "name": "account",
          "type": "address"
        }
      ],
      "name": "addWhitelistAdmin",
      "outputs": [],
      "stateMutability": "nonpayable",
      "type": "function"
    },
    {
      "inputs": [
        {
          "internalType": "address",
          "name": "account",
          "type": "address"
        }
      ],
      "name": "addWhitelisted",
      "outputs": [],
      "stateMutability": "nonpayable",
      "type": "function"
    },
    {
      "inputs": [],
      "name": "availableBalance",
      "outputs": [
        {
          "internalType": "uint256",
          "name": "",
          "type": "uint256"
        }
      ],
      "stateMutability": "view",
      "type": "function"
    },
    {
      "inputs": [],
      "name": "canSetValidation",
      "outputs": [
        {
          "internalType": "bool",
          "name": "",
          "type": "bool"
        }
      ],
      "stateMutability": "view",
      "type": "function"
    },
    {
      "inputs": [
        {
          "internalType": "bytes32",
          "name": "role",
          "type": "bytes32"
        }
      ],
      "name": "getRoleAdmin",
      "outputs": [
        {
          "internalType": "bytes32",
          "name": "",
          "type": "bytes32"
        }
      ],
      "stateMutability": "view",
      "type": "function"
    },
    {
      "inputs": [
        {
          "internalType": "bytes32",
          "name": "role",
          "type": "bytes32"
        },
        {
          "internalType": "address",
          "name": "account",
          "type": "address"
        }
      ],
      "name": "grantRole",
      "outputs": [],
      "stateMutability": "nonpayable",
      "type": "function"
    },
    {
      "inputs": [
        {
          "internalType": "bytes32",
          "name": "role",
          "type": "bytes32"
        },
        {
          "internalType": "address",
          "name": "account",
          "type": "address"
        }
      ],
      "name": "hasRole",
      "outputs": [
        {
          "internalType": "bool",
          "name": "",
          "type": "bool"
        }
      ],
      "stateMutability": "view",
      "type": "function"
    },
    {
      "inputs": [
        {
          "internalType": "address",
          "name": "account",
          "type": "address"
        }
      ],
      "name": "isCapper",
      "outputs": [
        {
          "internalType": "bool",
          "name": "",
          "type": "bool"
        }
      ],
      "stateMutability": "view",
      "type": "function"
    },
    {
      "inputs": [
        {
          "internalType": "address",
          "name": "account",
          "type": "address"
        }
      ],
      "name": "isWhitelisted",
      "outputs": [
        {
          "internalType": "bool",
          "name": "",
          "type": "bool"
        }
      ],
      "stateMutability": "view",
      "type": "function"
    },
    {
      "inputs": [
        {
          "internalType": "address",
          "name": "sender",
          "type": "address"
        },
        {
          "internalType": "uint256",
          "name": "value",
          "type": "uint256"
        },
        {
          "internalType": "bytes",
          "name": "data",
          "type": "bytes"
        }
      ],
      "name": "onTokenTransfer",
      "outputs": [],
      "stateMutability": "nonpayable",
      "type": "function"
    },
    {
      "inputs": [],
      "name": "operatorPaymentPerValidation",
      "outputs": [
        {
          "internalType": "uint256",
          "name": "",
          "type": "uint256"
        }
      ],
      "stateMutability": "view",
      "type": "function"
    },
    {
      "inputs": [
        {
          "internalType": "address",
          "name": "account",
          "type": "address"
        }
      ],
      "name": "removeWhitelisted",
      "outputs": [],
      "stateMutability": "nonpayable",
      "type": "function"
    },
    {
      "inputs": [],
      "name": "renounceCapper",
      "outputs": [],
      "stateMutability": "nonpayable",
      "type": "function"
    },
    {
      "inputs": [
        {
          "internalType": "bytes32",
          "name": "role",
          "type": "bytes32"
        },
        {
          "internalType": "address",
          "name": "account",
          "type": "address"
        }
      ],
      "name": "renounceRole",
      "outputs": [],
      "stateMutability": "nonpayable",
      "type": "function"
    },
    {
      "inputs": [],
      "name": "renounceWhitelistAdmin",
      "outputs": [],
      "stateMutability": "nonpayable",
      "type": "function"
    },
    {
      "inputs": [],
      "name": "renounceWhitelisted",
      "outputs": [],
      "stateMutability": "nonpayable",
      "type": "function"
    },
    {
      "inputs": [
        {
          "internalType": "bytes32",
          "name": "role",
          "type": "bytes32"
        },
        {
          "internalType": "address",
          "name": "account",
          "type": "address"
        }
      ],
      "name": "revokeRole",
      "outputs": [],
      "stateMutability": "nonpayable",
      "type": "function"
    },
    {
      "inputs": [
        {
          "internalType": "uint256",
          "name": "operatorPaymentPerValidation_",
          "type": "uint256"
        },
        {
          "internalType": "uint256",
          "name": "userPaymentPerValidation_",
          "type": "uint256"
        }
      ],
      "name": "setPaymentPerValidation",
      "outputs": [],
      "stateMutability": "nonpayable",
      "type": "function"
    },
    {
      "inputs": [
        {
          "internalType": "string",
          "name": "username",
          "type": "string"
        },
        {
          "internalType": "string",
          "name": "signature",
          "type": "string"
        },
        {
          "internalType": "uint256",
          "name": "tokenId",
          "type": "uint256"
        },
        {
          "internalType": "uint256",
          "name": "requestId",
          "type": "uint256"
        }
      ],
      "name": "setValidation",
      "outputs": [],
      "stateMutability": "nonpayable",
      "type": "function"
    },
    {
      "inputs": [
        {
          "internalType": "bytes4",
          "name": "interfaceId",
          "type": "bytes4"
        }
      ],
      "name": "supportsInterface",
      "outputs": [
        {
          "internalType": "bool",
          "name": "",
          "type": "bool"
        }
      ],
      "stateMutability": "view",
      "type": "function"
    },
    {
      "inputs": [],
      "name": "userPaymentPerValidation",
      "outputs": [
        {
          "internalType": "uint256",
          "name": "",
          "type": "uint256"
        }
      ],
      "stateMutability": "view",
      "type": "function"
    },
    {
      "inputs": [
        {
          "internalType": "address",
          "name": "recipient",
          "type": "address"
        },
        {
          "internalType": "uint256",
          "name": "amount",
          "type": "uint256"
        }
      ],
      "name": "withdraw",
      "outputs": [],
      "stateMutability": "nonpayable",
      "type": "function"
    },
    {
      "inputs": [],
      "name": "withdrawableTokens",
      "outputs": [
        {
          "internalType": "uint256",
          "name": "",
          "type": "uint256"
        }
      ],
      "stateMutability": "view",
      "type": "function"
    }
  ],
  "bytecode": "0x60806040526001609b553480156200001657600080fd5b50604051620023f9380380620023f9833981016040819052620000399162000328565b6001600160a01b0384166200006b5760405162461bcd60e51b8152600401620000629062000581565b60405180910390fd5b6001600160a01b038316620000945760405162461bcd60e51b8152600401620000629062000438565b6001600160a01b038216620000bd5760405162461bcd60e51b8152600401620000629062000488565b6000815111620000e15760405162461bcd60e51b8152600401620000629062000533565b609d80546001600160a01b038087166001600160a01b031992831617909255609e8054868416908316179055609f805492851692909116919091179055620001286200018e565b60005b815181101562000183576200016e8282815181106200015a57634e487b7160e01b600052603260045260246000fd5b60200260200101516200021f60201b60201c565b806200017a81620005d1565b9150506200012b565b505050505062000625565b600054610100900460ff1680620001a8575060005460ff16155b620001c75760405162461bcd60e51b81526004016200006290620004e5565b600054610100900460ff16158015620001f3576000805460ff1961ff0019909116610100171660011790555b620002096000620002036200024b565b6200024f565b80156200021c576000805461ff00191690555b50565b6200021c7f585dbb3f830c4325b9ffb1ad42c16ada76c518747b0fb7ee297b261fc6a0f29f826200024f565b3390565b6200025b82826200025f565b5050565b6200026b8282620002eb565b6200025b5760008281526065602090815260408083206001600160a01b03851684529091529020805460ff19166001179055620002a76200024b565b6001600160a01b0316816001600160a01b0316837f2f8788117e7eff1d82e926ec794901d17c78024a50270940304540a733656f0d60405160405180910390a45050565b60009182526065602090815260408084206001600160a01b0393909316845291905290205460ff1690565b805162000323816200060f565b919050565b600080600080608085870312156200033e578384fd5b84516200034b816200060f565b8094505060208086015162000360816200060f565b604087015190945062000373816200060f565b60608701519093506001600160401b038082111562000390578384fd5b818801915088601f830112620003a4578384fd5b815181811115620003b957620003b9620005f9565b83810260405185828201018181108582111715620003db57620003db620005f9565b604052828152858101935084860182860187018d1015620003fa578788fd5b8795505b838610156200042757620004128162000316565b855260019590950194938601938601620003fe565b50989b979a50959850505050505050565b60208082526030908201527f5477697474657256616c69646174696f6e4f70657261746f723a20434e535f5260408201526f454749535452595f49535f454d50545960801b606082015260800190565b60208082526035908201527f5477697474657256616c69646174696f6e4f70657261746f723a20494e56414c60408201527f49445f4c494e4b5f544f4b454e5f414444524553530000000000000000000000606082015260800190565b6020808252602e908201527f496e697469616c697a61626c653a20636f6e747261637420697320616c72656160408201526d191e481a5b9a5d1a585b1a5e995960921b606082015260800190565b6020808252602e908201527f5477697474657256616c69646174696f6e4f70657261746f723a204e4f5f434160408201526d1414115494d7d41493d59251115160921b606082015260800190565b60208082526030908201527f5477697474657256616c69646174696f6e4f70657261746f723a20554e535f5260408201526f454749535452595f49535f454d50545960801b606082015260800190565b6000600019821415620005f257634e487b7160e01b81526011600452602481fd5b5060010190565b634e487b7160e01b600052604160045260246000fd5b6001600160a01b03811681146200021c57600080fd5b611dc480620006356000396000f3fe608060405234801561001057600080fd5b50600436106101cf5760003560e01c80637fe0a63411610104578063c2273938116100a2578063d6cd947311610071578063d6cd947314610368578063f3fef3a314610370578063f615dcd814610383578063ffa1ad7414610396576101cf565b8063c22739381461033d578063c7108b4314610345578063cb793ca21461034d578063d547741f14610355576101cf565b8063a217fddf116100de578063a217fddf14610305578063a3f4df7e1461030d578063a4c0ed3614610322578063ab2f0e5114610335576101cf565b80637fe0a634146102d75780638dfbcf36146102df57806391d14854146102f2576101cf565b806339564561116101715780635d5576f81161014b5780635d5576f8146102a157806367a63119146102a95780637362d9c8146102bc5780637a3226ec146102cf576101cf565b806339564561146102735780633af32abf146102865780634c5a628c14610299576101cf565b8063291d9549116101ad578063291d9549146102325780632f2ff15d1461024557806336568abe1461025857806337cedfe51461026b576101cf565b806301ffc9a7146101d457806310154bad146101fd578063248a9ca314610212575b600080fd5b6101e76101e2366004611492565b61039e565b6040516101f49190611713565b60405180910390f35b61021061020b36600461136e565b6103cb565b005b61022561022036600461144b565b610409565b6040516101f4919061171e565b61021061024036600461136e565b61041e565b610210610253366004611463565b610450565b610210610266366004611463565b610479565b6101e76104bf565b6101e761028136600461136e565b610523565b6101e761029436600461136e565b61053d565b610210610557565b610210610566565b6102106102b73660046115fa565b610576565b6102106102ca36600461136e565b6105e5565b610225610619565b61022561062b565b6102106102ed36600461136e565b610631565b6101e7610300366004611463565b610661565b61022561068c565b610315610691565b6040516101f49190611727565b6102106103303660046113d1565b6106ad565b61022561097f565b610225610a16565b610225610a1c565b610225610a2e565b610210610363366004611463565b610a34565b610210610a53565b61021061037e3660046113a6565b610a63565b6102106103913660046114ba565b610b5d565b610315610d93565b60006001600160e01b03198216637965db0b60e01b14806103c357506103c382610db4565b90505b919050565b6103d86000610300610dcd565b6103fd5760405162461bcd60e51b81526004016103f4906118ea565b60405180910390fd5b61040681610dd1565b50565b60009081526065602052604090206001015490565b61042b6000610300610dcd565b6104475760405162461bcd60e51b81526004016103f4906118ea565b61040681610de9565b61045982610409565b61046a81610465610dcd565b610e01565b6104748383610e65565b505050565b610481610dcd565b6001600160a01b0316816001600160a01b0316146104b15760405162461bcd60e51b81526004016103f490611b84565b6104bb8282610eec565b5050565b60006104cc610294610dcd565b6104e85760405162461bcd60e51b81526004016103f490611adc565b6097546099546104f791610f71565b6104ff61097f565b101561051d5760405162461bcd60e51b81526004016103f490611981565b50600190565b60006103c3600080516020611d4f83398151915283610661565b60006103c3600080516020611d6f83398151915283610661565b6105646000610266610dcd565b565b610564610571610dcd565b610f84565b610581610281610dcd565b61059d5760405162461bcd60e51b81526004016103f49061181b565b609782905560988190556040517f769ee4ccac1531bdb9405bbbafe6505e85c1a11f7d1e758cfcb9768651bcf9b5906105d99084908490611c40565b60405180910390a15050565b6105f26000610300610dcd565b61060e5760405162461bcd60e51b81526004016103f4906118ea565b610406600082610f9c565b600080516020611d6f83398151915281565b60995481565b61063c610281610dcd565b6106585760405162461bcd60e51b81526004016103f49061181b565b61040681610fa6565b60009182526065602090815260408084206001600160a01b0393909316845291905290205460ff1690565b600081565b6040518060600160405280602a8152602001611d25602a913981565b609f546001600160a01b03166106c1610dcd565b6001600160a01b0316146106e75760405162461bcd60e51b81526004016103f4906119df565b8260985481146107095760405162461bcd60e51b81526004016103f490611850565b6000806107188486018661154d565b91509150600061072783610fbe565b60405163430c208160e01b81529091506001600160a01b0382169063430c208190610758908b9087906004016116fa565b60206040518083038186803b15801561077057600080fd5b505afa158015610784573d6000803e3d6000fd5b505050506040513d601f19601f820116820180604052508101906107a8919061142b565b6107c45760405162461bcd60e51b81526004016103f490611b26565b60008251116107e55760405162461bcd60e51b81526004016103f4906118a2565b60405163430c208160e01b81526001600160a01b0382169063430c20819061081390309087906004016116fa565b60206040518083038186803b15801561082b57600080fd5b505afa15801561083f573d6000803e3d6000fd5b505050506040513d601f19601f82011682018060405250810190610863919061142b565b61087f5760405162461bcd60e51b81526004016103f490611a86565b609a5461088c9088610f71565b609a55609b546000908152609c602052604090819020889055516331a9108f60e11b81526001600160a01b03821690636352211e906108cf90869060040161171e565b60206040518083038186803b1580156108e757600080fd5b505afa1580156108fb573d6000803e3d6000fd5b505050506040513d601f19601f8201168201806040525081019061091f919061138a565b6001600160a01b0316837fc3394c5f6e735c734448afa55eefbce7fa2c55449859aa3f9ab1f6cc6f1922eb609b548560405161095c929190611c1f565b60405180910390a3609b54610972906001610f71565b609b555050505050505050565b609a54609f546040516370a0823160e01b8152600092610a119290916001600160a01b03909116906370a08231906109bb9030906004016116e6565b60206040518083038186803b1580156109d357600080fd5b505afa1580156109e7573d6000803e3d6000fd5b505050506040513d601f19601f82011682018060405250810190610a0b9190611535565b90611099565b905090565b60975481565b600080516020611d4f83398151915281565b60985481565b610a3d82610409565b610a4981610465610dcd565b6104748383610eec565b610564610a5e610dcd565b610de9565b610a706000610300610dcd565b610a8c5760405162461bcd60e51b81526004016103f4906118ea565b80806099541015610aaf5760405162461bcd60e51b81526004016103f4906117c7565b609954610abc9083611099565b609955609f5460405163a9059cbb60e01b81526001600160a01b039091169063a9059cbb90610af190869086906004016116fa565b602060405180830381600087803b158015610b0b57600080fd5b505af1158015610b1f573d6000803e3d6000fd5b505050506040513d601f19601f82011682018060405250810190610b43919061142b565b61047457634e487b7160e01b600052600160045260246000fd5b610b68610294610dcd565b610b845760405162461bcd60e51b81526004016103f490611adc565b609754609954610b9391610f71565b610b9b61097f565b1015610bb95760405162461bcd60e51b81526004016103f490611981565b6000610bc4826110a5565b609954909150610bd49082610f71565b6099556000610be284610fbe565b90506000816001600160a01b031663b3f9e4cb866040518263ffffffff1660e01b8152600401610c12919061171e565b60206040518083038186803b158015610c2a57600080fd5b505afa158015610c3e573d6000803e3d6000fd5b505050506040513d601f19601f82011682018060405250810190610c62919061138a565b90506001600160a01b038116610c8a5760405162461bcd60e51b81526004016103f490611bd3565b6040516347c8169960e01b81526001600160a01b038216906347c8169990610cba908c908c908a9060040161176f565b600060405180830381600087803b158015610cd457600080fd5b505af1158015610ce8573d6000803e3d6000fd5b50506040516347c8169960e01b81526001600160a01b03841692506347c816999150610d1c908a908a908a9060040161192e565b600060405180830381600087803b158015610d3657600080fd5b505af1158015610d4a573d6000803e3d6000fd5b50505050847f64308d1f172ca5d2a008c997998c974d7bc7143d883024b4611ad01d01f424608585604051610d80929190611c40565b60405180910390a2505050505050505050565b604051806040016040528060058152602001640302e312e360dc1b81525081565b6001600160e01b031981166301ffc9a760e01b14919050565b3390565b610406600080516020611d6f83398151915282610f9c565b610406600080516020611d6f83398151915282610479565b610e0b8282610661565b6104bb57610e23816001600160a01b031660146110e9565b610e2e8360206110e9565b604051602001610e3f929190611671565b60408051601f198184030181529082905262461bcd60e51b82526103f491600401611727565b610e6f8282610661565b6104bb5760008281526065602090815260408083206001600160a01b03851684529091529020805460ff19166001179055610ea8610dcd565b6001600160a01b0316816001600160a01b0316837f2f8788117e7eff1d82e926ec794901d17c78024a50270940304540a733656f0d60405160405180910390a45050565b610ef68282610661565b156104bb5760008281526065602090815260408083206001600160a01b03851684529091529020805460ff19169055610f2d610dcd565b6001600160a01b0316816001600160a01b0316837ff6391f5c32d9c69d2a47ea670b442974b53935d1edc7fd64eb21e047a839171b60405160405180910390a45050565b6000610f7d8284611c4e565b9392505050565b610406600080516020611d4f83398151915282610479565b6104bb8282610e65565b610406600080516020611d4f83398151915282610f9c565b609d54604051634f558e7960e01b81526000916001600160a01b031690634f558e7990610fef90859060040161171e565b60206040518083038186803b15801561100757600080fd5b505afa15801561101b573d6000803e3d6000fd5b505050506040513d601f19601f8201168201806040525081019061103f919061142b565b156110565750609d546001600160a01b03166103c6565b60006110618361129b565b6001600160a01b0316146110815750609e546001600160a01b03166103c6565b60405162461bcd60e51b81526004016103f490611a3c565b6000610f7d8284611c85565b600081156110e157506000818152609c6020526040902054609a546110ca9082611099565b609a556000828152609c60205260408120556103c6565b505060975490565b606060006110f8836002611c66565b611103906002611c4e565b67ffffffffffffffff81111561112957634e487b7160e01b600052604160045260246000fd5b6040519080825280601f01601f191660200182016040528015611153576020820181803683370190505b509050600360fc1b8160008151811061117c57634e487b7160e01b600052603260045260246000fd5b60200101906001600160f81b031916908160001a905350600f60fb1b816001815181106111b957634e487b7160e01b600052603260045260246000fd5b60200101906001600160f81b031916908160001a90535060006111dd846002611c66565b6111e8906001611c4e565b90505b600181111561127c576f181899199a1a9b1b9c1cb0b131b232b360811b85600f166010811061122a57634e487b7160e01b600052603260045260246000fd5b1a60f81b82828151811061124e57634e487b7160e01b600052603260045260246000fd5b60200101906001600160f81b031916908160001a90535060049490941c9361127581611ccc565b90506111eb565b508315610f7d5760405162461bcd60e51b81526004016103f49061173a565b609e546040516331a9108f60e11b81526000916001600160a01b031690636352211e906112cc90859060040161171e565b60206040518083038186803b1580156112e457600080fd5b505afa925050508015611314575060408051601f3d908101601f191682019092526113119181019061138a565b60015b611320575060006103c6565b90506103c6565b60008083601f840112611338578182fd5b50813567ffffffffffffffff81111561134f578182fd5b60208301915083602082850101111561136757600080fd5b9250929050565b60006020828403121561137f578081fd5b8135610f7d81611d0f565b60006020828403121561139b578081fd5b8151610f7d81611d0f565b600080604083850312156113b8578081fd5b82356113c381611d0f565b946020939093013593505050565b600080600080606085870312156113e6578182fd5b84356113f181611d0f565b935060208501359250604085013567ffffffffffffffff811115611413578283fd5b61141f87828801611327565b95989497509550505050565b60006020828403121561143c578081fd5b81518015158114610f7d578182fd5b60006020828403121561145c578081fd5b5035919050565b60008060408385031215611475578182fd5b82359150602083013561148781611d0f565b809150509250929050565b6000602082840312156114a3578081fd5b81356001600160e01b031981168114610f7d578182fd5b600080600080600080608087890312156114d2578182fd5b863567ffffffffffffffff808211156114e9578384fd5b6114f58a838b01611327565b9098509650602089013591508082111561150d578384fd5b5061151a89828a01611327565b979a9699509760408101359660609091013595509350505050565b600060208284031215611546578081fd5b5051919050565b6000806040838503121561155f578182fd5b8235915060208084013567ffffffffffffffff8082111561157e578384fd5b818601915086601f830112611591578384fd5b8135818111156115a3576115a3611cf9565b604051601f8201601f19168101850183811182821017156115c6576115c6611cf9565b60405281815283820185018910156115dc578586fd5b81858501868301378585838301015280955050505050509250929050565b6000806040838503121561160c578182fd5b50508035926020909101359150565b60008284528282602086013780602084860101526020601f19601f85011685010190509392505050565b6000815180845261165d816020860160208601611c9c565b601f01601f19169290920160200192915050565b60007f416363657373436f6e74726f6c3a206163636f756e7420000000000000000000825283516116a9816017850160208801611c9c565b7001034b99036b4b9b9b4b733903937b6329607d1b60179184019182015283516116da816028840160208801611c9c565b01602801949350505050565b6001600160a01b0391909116815260200190565b6001600160a01b03929092168252602082015260400190565b901515815260200190565b90815260200190565b600060208252610f7d6020830184611645565b6020808252818101527f537472696e67733a20686578206c656e67746820696e73756666696369656e74604082015260600190565b600060608252601760608301527f736f6369616c2e747769747465722e757365726e616d65000000000000000000608083015260a060208301526117b760a08301858761161b565b9050826040830152949350505050565b60208082526034908201527f5477697474657256616c69646174696f6e4f70657261746f723a20544f4f5f4d60408201527310539657d513d2d15394d7d49154555154d5115160621b606082015260800190565b6020808252818101527f436170706572526f6c653a2043414c4c45525f49535f4e4f545f434150504552604082015260600190565b60208082526032908201527f5477697474657256616c69646174696f6e4f70657261746f723a20494e434f52604082015271149150d517d513d2d15394d7d05353d5539560721b606082015260800190565b60208082526028908201527f5477697474657256616c69646174696f6e4f70657261746f723a20434f44455f60408201526749535f454d50545960c01b606082015260800190565b60208082526024908201527f57686974656c6973746564526f6c653a2043414c4c45525f49535f4e4f545f416040820152632226a4a760e11b606082015260800190565b600060608252602260608301527f76616c69646174696f6e2e736f6369616c2e747769747465722e757365726e616080830152616d6560f01b60a083015260c060208301526117b760c08301858761161b565b602080825260409082018190527f5477697474657256616c69646174696f6e4f70657261746f723a204e4f545f45908201527f4e4f5547485f544f4b454e535f4f4e5f434f4e54524143545f42414c414e4345606082015260800190565b60208082526038908201527f5477697474657256616c69646174696f6e4f70657261746f723a2043414e5f4360408201527f414c4c5f46524f4d5f4c494e4b5f544f4b454e5f4f4e4c590000000000000000606082015260800190565b6020808252602a908201527f5477697474657256616c69646174696f6e4f70657261746f723a20544f4b454e60408201526917d393d517d193d5539160b21b606082015260800190565b60208082526036908201527f5477697474657256616c69646174696f6e4f70657261746f723a204f504552416040820152751513d497d4d213d5531117d09157d054141493d5915160521b606082015260800190565b6020808252602a908201527f57686974656c6973746564526f6c653a2043414c4c45525f49535f4e4f545f5760408201526912125511531254d5115160b21b606082015260800190565b602080825260409082018190527f5477697474657256616c69646174696f6e4f70657261746f723a2053454e4445908201527f525f444f45535f4e4f545f484156455f4143434553535f544f5f444f4d41494e606082015260800190565b6020808252602f908201527f416363657373436f6e74726f6c3a2063616e206f6e6c792072656e6f756e636560408201526e103937b632b9903337b91039b2b63360891b606082015260800190565b6020808252602c908201527f5477697474657256616c69646174696f6e4f70657261746f723a205245534f4c60408201526b5645525f49535f454d50545960a01b606082015260800190565b600083825260406020830152611c386040830184611645565b949350505050565b918252602082015260400190565b60008219821115611c6157611c61611ce3565b500190565b6000816000190483118215151615611c8057611c80611ce3565b500290565b600082821015611c9757611c97611ce3565b500390565b60005b83811015611cb7578181015183820152602001611c9f565b83811115611cc6576000848401525b50505050565b600081611cdb57611cdb611ce3565b506000190190565b634e487b7160e01b600052601160045260246000fd5b634e487b7160e01b600052604160045260246000fd5b6001600160a01b038116811461040657600080fdfe554e533a20436861696e6c696e6b20547769747465722056616c69646174696f6e204f70657261746f72585dbb3f830c4325b9ffb1ad42c16ada76c518747b0fb7ee297b261fc6a0f29f8429d542926e6695b59ac6fbdcd9b37e8b1aeb757afab06ab60b1bb5878c3b49a264697066735822122001f7888907254e16d544a58ef756dead48c531a17b1b3756401ca9f2e184707964736f6c63430008000033",
  "linkReferences": {},
  "deployedLinkReferences": {}
}