{
  "_format": "hh-sol-artifact-1",
  "contractName": "TwitterValidationOperator",
  "sourceName": "contracts/operators/TwitterValidationOperator.sol",
  "abi": [
    {
      "inputs": [
        {
          "internalType": "contract IUNSRegistry",
          "name": "unsRegistry",
          "type": "address"
        },
        {
          "internalType": "contract IUNSRegistry",
          "name": "cnsRegistry",
          "type": "address"
        },
        {
          "internalType": "contract LinkTokenInterface",
          "name": "linkToken",
          "type": "address"
        },
        {
          "internalType": "address[]",
          "name": "paymentCappers",
          "type": "address[]"
        }
      ],
      "stateMutability": "nonpayable",
      "type": "constructor"
    },
    {
      "anonymous": false,
      "inputs": [
        {
          "indexed": false,
          "internalType": "uint256",
          "name": "operatorPaymentPerValidation",
          "type": "uint256"
        },
        {
          "indexed": false,
          "internalType": "uint256",
          "name": "userPaymentPerValidation",
          "type": "uint256"
        }
      ],
      "name": "PaymentSet",
      "type": "event"
    },
    {
      "anonymous": false,
      "inputs": [
        {
          "indexed": true,
          "internalType": "bytes32",
          "name": "role",
          "type": "bytes32"
        },
        {
          "indexed": true,
          "internalType": "bytes32",
          "name": "previousAdminRole",
          "type": "bytes32"
        },
        {
          "indexed": true,
          "internalType": "bytes32",
          "name": "newAdminRole",
          "type": "bytes32"
        }
      ],
      "name": "RoleAdminChanged",
      "type": "event"
    },
    {
      "anonymous": false,
      "inputs": [
        {
          "indexed": true,
          "internalType": "bytes32",
          "name": "role",
          "type": "bytes32"
        },
        {
          "indexed": true,
          "internalType": "address",
          "name": "account",
          "type": "address"
        },
        {
          "indexed": true,
          "internalType": "address",
          "name": "sender",
          "type": "address"
        }
      ],
      "name": "RoleGranted",
      "type": "event"
    },
    {
      "anonymous": false,
      "inputs": [
        {
          "indexed": true,
          "internalType": "bytes32",
          "name": "role",
          "type": "bytes32"
        },
        {
          "indexed": true,
          "internalType": "address",
          "name": "account",
          "type": "address"
        },
        {
          "indexed": true,
          "internalType": "address",
          "name": "sender",
          "type": "address"
        }
      ],
      "name": "RoleRevoked",
      "type": "event"
    },
    {
      "anonymous": false,
      "inputs": [
        {
          "indexed": true,
          "internalType": "uint256",
          "name": "tokenId",
          "type": "uint256"
        },
        {
          "indexed": false,
          "internalType": "uint256",
          "name": "requestId",
          "type": "uint256"
        },
        {
          "indexed": false,
          "internalType": "uint256",
          "name": "paymentAmount",
          "type": "uint256"
        }
      ],
      "name": "Validation",
      "type": "event"
    },
    {
      "anonymous": false,
      "inputs": [
        {
          "indexed": true,
          "internalType": "uint256",
          "name": "tokenId",
          "type": "uint256"
        },
        {
          "indexed": true,
          "internalType": "address",
          "name": "owner",
          "type": "address"
        },
        {
          "indexed": false,
          "internalType": "uint256",
          "name": "requestId",
          "type": "uint256"
        },
        {
          "indexed": false,
          "internalType": "string",
          "name": "code",
          "type": "string"
        }
      ],
      "name": "ValidationRequest",
      "type": "event"
    },
    {
      "inputs": [],
      "name": "CAPPER_ROLE",
      "outputs": [
        {
          "internalType": "bytes32",
          "name": "",
          "type": "bytes32"
        }
      ],
      "stateMutability": "view",
      "type": "function"
    },
    {
      "inputs": [],
      "name": "DEFAULT_ADMIN_ROLE",
      "outputs": [
        {
          "internalType": "bytes32",
          "name": "",
          "type": "bytes32"
        }
      ],
      "stateMutability": "view",
      "type": "function"
    },
    {
      "inputs": [],
      "name": "NAME",
      "outputs": [
        {
          "internalType": "string",
          "name": "",
          "type": "string"
        }
      ],
      "stateMutability": "view",
      "type": "function"
    },
    {
      "inputs": [],
      "name": "VERSION",
      "outputs": [
        {
          "internalType": "string",
          "name": "",
          "type": "string"
        }
      ],
      "stateMutability": "view",
      "type": "function"
    },
    {
      "inputs": [],
      "name": "WHITELISTED_ROLE",
      "outputs": [
        {
          "internalType": "bytes32",
          "name": "",
          "type": "bytes32"
        }
      ],
      "stateMutability": "view",
      "type": "function"
    },
    {
      "inputs": [
        {
          "internalType": "address",
          "name": "account",
          "type": "address"
        }
      ],
      "name": "addCapper",
      "outputs": [],
      "stateMutability": "nonpayable",
      "type": "function"
    },
    {
      "inputs": [
        {
          "internalType": "address",
          "name": "account",
          "type": "address"
        }
      ],
      "name": "addWhitelistAdmin",
      "outputs": [],
      "stateMutability": "nonpayable",
      "type": "function"
    },
    {
      "inputs": [
        {
          "internalType": "address",
          "name": "account",
          "type": "address"
        }
      ],
      "name": "addWhitelisted",
      "outputs": [],
      "stateMutability": "nonpayable",
      "type": "function"
    },
    {
      "inputs": [],
      "name": "availableBalance",
      "outputs": [
        {
          "internalType": "uint256",
          "name": "",
          "type": "uint256"
        }
      ],
      "stateMutability": "view",
      "type": "function"
    },
    {
      "inputs": [],
      "name": "canSetValidation",
      "outputs": [
        {
          "internalType": "bool",
          "name": "",
          "type": "bool"
        }
      ],
      "stateMutability": "view",
      "type": "function"
    },
    {
      "inputs": [
        {
          "internalType": "bytes32",
          "name": "role",
          "type": "bytes32"
        }
      ],
      "name": "getRoleAdmin",
      "outputs": [
        {
          "internalType": "bytes32",
          "name": "",
          "type": "bytes32"
        }
      ],
      "stateMutability": "view",
      "type": "function"
    },
    {
      "inputs": [
        {
          "internalType": "bytes32",
          "name": "role",
          "type": "bytes32"
        },
        {
          "internalType": "address",
          "name": "account",
          "type": "address"
        }
      ],
      "name": "grantRole",
      "outputs": [],
      "stateMutability": "nonpayable",
      "type": "function"
    },
    {
      "inputs": [
        {
          "internalType": "bytes32",
          "name": "role",
          "type": "bytes32"
        },
        {
          "internalType": "address",
          "name": "account",
          "type": "address"
        }
      ],
      "name": "hasRole",
      "outputs": [
        {
          "internalType": "bool",
          "name": "",
          "type": "bool"
        }
      ],
      "stateMutability": "view",
      "type": "function"
    },
    {
      "inputs": [
        {
          "internalType": "address",
          "name": "account",
          "type": "address"
        }
      ],
      "name": "isCapper",
      "outputs": [
        {
          "internalType": "bool",
          "name": "",
          "type": "bool"
        }
      ],
      "stateMutability": "view",
      "type": "function"
    },
    {
      "inputs": [
        {
          "internalType": "address",
          "name": "account",
          "type": "address"
        }
      ],
      "name": "isWhitelisted",
      "outputs": [
        {
          "internalType": "bool",
          "name": "",
          "type": "bool"
        }
      ],
      "stateMutability": "view",
      "type": "function"
    },
    {
      "inputs": [
        {
          "internalType": "address",
          "name": "sender",
          "type": "address"
        },
        {
          "internalType": "uint256",
          "name": "value",
          "type": "uint256"
        },
        {
          "internalType": "bytes",
          "name": "data",
          "type": "bytes"
        }
      ],
      "name": "onTokenTransfer",
      "outputs": [],
      "stateMutability": "nonpayable",
      "type": "function"
    },
    {
      "inputs": [],
      "name": "operatorPaymentPerValidation",
      "outputs": [
        {
          "internalType": "uint256",
          "name": "",
          "type": "uint256"
        }
      ],
      "stateMutability": "view",
      "type": "function"
    },
    {
      "inputs": [
        {
          "internalType": "address",
          "name": "account",
          "type": "address"
        }
      ],
      "name": "removeWhitelisted",
      "outputs": [],
      "stateMutability": "nonpayable",
      "type": "function"
    },
    {
      "inputs": [],
      "name": "renounceCapper",
      "outputs": [],
      "stateMutability": "nonpayable",
      "type": "function"
    },
    {
      "inputs": [
        {
          "internalType": "bytes32",
          "name": "role",
          "type": "bytes32"
        },
        {
          "internalType": "address",
          "name": "account",
          "type": "address"
        }
      ],
      "name": "renounceRole",
      "outputs": [],
      "stateMutability": "nonpayable",
      "type": "function"
    },
    {
      "inputs": [],
      "name": "renounceWhitelistAdmin",
      "outputs": [],
      "stateMutability": "nonpayable",
      "type": "function"
    },
    {
      "inputs": [],
      "name": "renounceWhitelisted",
      "outputs": [],
      "stateMutability": "nonpayable",
      "type": "function"
    },
    {
      "inputs": [
        {
          "internalType": "bytes32",
          "name": "role",
          "type": "bytes32"
        },
        {
          "internalType": "address",
          "name": "account",
          "type": "address"
        }
      ],
      "name": "revokeRole",
      "outputs": [],
      "stateMutability": "nonpayable",
      "type": "function"
    },
    {
      "inputs": [
        {
          "internalType": "uint256",
          "name": "operatorPaymentPerValidation_",
          "type": "uint256"
        },
        {
          "internalType": "uint256",
          "name": "userPaymentPerValidation_",
          "type": "uint256"
        }
      ],
      "name": "setPaymentPerValidation",
      "outputs": [],
      "stateMutability": "nonpayable",
      "type": "function"
    },
    {
      "inputs": [
        {
          "internalType": "string",
          "name": "username",
          "type": "string"
        },
        {
          "internalType": "string",
          "name": "signature",
          "type": "string"
        },
        {
          "internalType": "uint256",
          "name": "tokenId",
          "type": "uint256"
        },
        {
          "internalType": "uint256",
          "name": "requestId",
          "type": "uint256"
        }
      ],
      "name": "setValidation",
      "outputs": [],
      "stateMutability": "nonpayable",
      "type": "function"
    },
    {
      "inputs": [
        {
          "internalType": "bytes4",
          "name": "interfaceId",
          "type": "bytes4"
        }
      ],
      "name": "supportsInterface",
      "outputs": [
        {
          "internalType": "bool",
          "name": "",
          "type": "bool"
        }
      ],
      "stateMutability": "view",
      "type": "function"
    },
    {
      "inputs": [],
      "name": "userPaymentPerValidation",
      "outputs": [
        {
          "internalType": "uint256",
          "name": "",
          "type": "uint256"
        }
      ],
      "stateMutability": "view",
      "type": "function"
    },
    {
      "inputs": [
        {
          "internalType": "address",
          "name": "recipient",
          "type": "address"
        },
        {
          "internalType": "uint256",
          "name": "amount",
          "type": "uint256"
        }
      ],
      "name": "withdraw",
      "outputs": [],
      "stateMutability": "nonpayable",
      "type": "function"
    },
    {
      "inputs": [],
      "name": "withdrawableTokens",
      "outputs": [
        {
          "internalType": "uint256",
          "name": "",
          "type": "uint256"
        }
      ],
      "stateMutability": "view",
      "type": "function"
    }
  ],
  "bytecode": "0x60806040526001609b553480156200001657600080fd5b50604051620023ba380380620023ba833981016040819052620000399162000328565b6001600160a01b0384166200006b5760405162461bcd60e51b8152600401620000629062000581565b60405180910390fd5b6001600160a01b038316620000945760405162461bcd60e51b8152600401620000629062000438565b6001600160a01b038216620000bd5760405162461bcd60e51b8152600401620000629062000488565b6000815111620000e15760405162461bcd60e51b8152600401620000629062000533565b609d80546001600160a01b038087166001600160a01b031992831617909255609e8054868416908316179055609f805492851692909116919091179055620001286200018e565b60005b815181101562000183576200016e8282815181106200015a57634e487b7160e01b600052603260045260246000fd5b60200260200101516200021f60201b60201c565b806200017a81620005d1565b9150506200012b565b505050505062000625565b600054610100900460ff1680620001a8575060005460ff16155b620001c75760405162461bcd60e51b81526004016200006290620004e5565b600054610100900460ff16158015620001f3576000805460ff1961ff0019909116610100171660011790555b620002096000620002036200024b565b6200024f565b80156200021c576000805461ff00191690555b50565b6200021c7f585dbb3f830c4325b9ffb1ad42c16ada76c518747b0fb7ee297b261fc6a0f29f826200024f565b3390565b6200025b82826200025f565b5050565b6200026b8282620002eb565b6200025b5760008281526065602090815260408083206001600160a01b03851684529091529020805460ff19166001179055620002a76200024b565b6001600160a01b0316816001600160a01b0316837f2f8788117e7eff1d82e926ec794901d17c78024a50270940304540a733656f0d60405160405180910390a45050565b60009182526065602090815260408084206001600160a01b0393909316845291905290205460ff1690565b805162000323816200060f565b919050565b600080600080608085870312156200033e578384fd5b84516200034b816200060f565b8094505060208086015162000360816200060f565b604087015190945062000373816200060f565b60608701519093506001600160401b038082111562000390578384fd5b818801915088601f830112620003a4578384fd5b815181811115620003b957620003b9620005f9565b83810260405185828201018181108582111715620003db57620003db620005f9565b604052828152858101935084860182860187018d1015620003fa578788fd5b8795505b838610156200042757620004128162000316565b855260019590950194938601938601620003fe565b50989b979a50959850505050505050565b60208082526030908201527f5477697474657256616c69646174696f6e4f70657261746f723a20434e535f5260408201526f454749535452595f49535f454d50545960801b606082015260800190565b60208082526035908201527f5477697474657256616c69646174696f6e4f70657261746f723a20494e56414c60408201527f49445f4c494e4b5f544f4b454e5f414444524553530000000000000000000000606082015260800190565b6020808252602e908201527f496e697469616c697a61626c653a20636f6e747261637420697320616c72656160408201526d191e481a5b9a5d1a585b1a5e995960921b606082015260800190565b6020808252602e908201527f5477697474657256616c69646174696f6e4f70657261746f723a204e4f5f434160408201526d1414115494d7d41493d59251115160921b606082015260800190565b60208082526030908201527f5477697474657256616c69646174696f6e4f70657261746f723a20554e535f5260408201526f454749535452595f49535f454d50545960801b606082015260800190565b6000600019821415620005f257634e487b7160e01b81526011600452602481fd5b5060010190565b634e487b7160e01b600052604160045260246000fd5b6001600160a01b03811681146200021c57600080fd5b611d8580620006356000396000f3fe608060405234801561001057600080fd5b50600436106101cf5760003560e01c80637fe0a63411610104578063c2273938116100a2578063d6cd947311610071578063d6cd947314610368578063f3fef3a314610370578063f615dcd814610383578063ffa1ad7414610396576101cf565b8063c22739381461033d578063c7108b4314610345578063cb793ca21461034d578063d547741f14610355576101cf565b8063a217fddf116100de578063a217fddf14610305578063a3f4df7e1461030d578063a4c0ed3614610322578063ab2f0e5114610335576101cf565b80637fe0a634146102d75780638dfbcf36146102df57806391d14854146102f2576101cf565b806339564561116101715780635d5576f81161014b5780635d5576f8146102a157806367a63119146102a95780637362d9c8146102bc5780637a3226ec146102cf576101cf565b806339564561146102735780633af32abf146102865780634c5a628c14610299576101cf565b8063291d9549116101ad578063291d9549146102325780632f2ff15d1461024557806336568abe1461025857806337cedfe51461026b576101cf565b806301ffc9a7146101d457806310154bad146101fd578063248a9ca314610212575b600080fd5b6101e76101e236600461147c565b61039e565b6040516101f491906116fd565b60405180910390f35b61021061020b366004611358565b6103cb565b005b610225610220366004611435565b610409565b6040516101f49190611708565b610210610240366004611358565b61041e565b61021061025336600461144d565b610450565b61021061026636600461144d565b610479565b6101e76104bf565b6101e7610281366004611358565b610524565b6101e7610294366004611358565b61053e565b610210610558565b610210610567565b6102106102b73660046115e4565b610577565b6102106102ca366004611358565b6105e6565b61022561061a565b61022561062c565b6102106102ed366004611358565b610632565b6101e761030036600461144d565b610662565b61022561068d565b610315610692565b6040516101f49190611711565b6102106103303660046113bb565b6106ae565b610225610981565b610225610a15565b610225610a1b565b610225610a2d565b61021061036336600461144d565b610a33565b610210610a52565b61021061037e366004611390565b610a62565b6102106103913660046114a4565b610b5d565b610315610d94565b60006001600160e01b03198216637965db0b60e01b14806103c357506103c382610db5565b90505b919050565b6103d86000610300610dce565b6103fd5760405162461bcd60e51b81526004016103f4906118d4565b60405180910390fd5b61040681610dd2565b50565b60009081526065602052604090206001015490565b61042b6000610300610dce565b6104475760405162461bcd60e51b81526004016103f4906118d4565b61040681610dea565b61045982610409565b61046a81610465610dce565b610e02565b6104748383610e66565b505050565b610481610dce565b6001600160a01b0316816001600160a01b0316146104b15760405162461bcd60e51b81526004016103f490611b6e565b6104bb8282610eed565b5050565b60006104cc610294610dce565b6104e85760405162461bcd60e51b81526004016103f490611ac6565b6097546099546104f89190611c38565b610500610981565b101561051e5760405162461bcd60e51b81526004016103f49061196b565b50600190565b60006103c3600080516020611d3983398151915283610662565b60006103c3600080516020611d5983398151915283610662565b6105656000610266610dce565b565b610565610572610dce565b610f72565b610582610281610dce565b61059e5760405162461bcd60e51b81526004016103f490611805565b609782905560988190556040517f769ee4ccac1531bdb9405bbbafe6505e85c1a11f7d1e758cfcb9768651bcf9b5906105da9084908490611c2a565b60405180910390a15050565b6105f36000610300610dce565b61060f5760405162461bcd60e51b81526004016103f4906118d4565b610406600082610f8a565b600080516020611d5983398151915281565b60995481565b61063d610281610dce565b6106595760405162461bcd60e51b81526004016103f490611805565b61040681610f94565b60009182526065602090815260408084206001600160a01b0393909316845291905290205460ff1690565b600081565b6040518060600160405280602a8152602001611d0f602a913981565b609f546001600160a01b03166106c2610dce565b6001600160a01b0316146106e85760405162461bcd60e51b81526004016103f4906119c9565b82609854811461070a5760405162461bcd60e51b81526004016103f49061183a565b60008061071984860186611537565b91509150600061072883610fac565b60405163430c208160e01b81529091506001600160a01b0382169063430c208190610759908b9087906004016116e4565b60206040518083038186803b15801561077157600080fd5b505afa158015610785573d6000803e3d6000fd5b505050506040513d601f19601f820116820180604052508101906107a99190611415565b6107c55760405162461bcd60e51b81526004016103f490611b10565b60008251116107e65760405162461bcd60e51b81526004016103f49061188c565b60405163430c208160e01b81526001600160a01b0382169063430c20819061081490309087906004016116e4565b60206040518083038186803b15801561082c57600080fd5b505afa158015610840573d6000803e3d6000fd5b505050506040513d601f19601f820116820180604052508101906108649190611415565b6108805760405162461bcd60e51b81526004016103f490611a70565b86609a5461088e9190611c38565b609a55609b546000908152609c602052604090819020889055516331a9108f60e11b81526001600160a01b03821690636352211e906108d1908690600401611708565b60206040518083038186803b1580156108e957600080fd5b505afa1580156108fd573d6000803e3d6000fd5b505050506040513d601f19601f820116820180604052508101906109219190611374565b6001600160a01b0316837fc3394c5f6e735c734448afa55eefbce7fa2c55449859aa3f9ab1f6cc6f1922eb609b548560405161095e929190611c09565b60405180910390a3609b54610974906001611c38565b609b555050505050505050565b609a54609f546040516370a0823160e01b8152600092916001600160a01b0316906370a08231906109b69030906004016116d0565b60206040518083038186803b1580156109ce57600080fd5b505afa1580156109e2573d6000803e3d6000fd5b505050506040513d601f19601f82011682018060405250810190610a06919061151f565b610a109190611c6f565b905090565b60975481565b600080516020611d3983398151915281565b60985481565b610a3c82610409565b610a4881610465610dce565b6104748383610eed565b610565610a5d610dce565b610dea565b610a6f6000610300610dce565b610a8b5760405162461bcd60e51b81526004016103f4906118d4565b80806099541015610aae5760405162461bcd60e51b81526004016103f4906117b1565b81609954610abc9190611c6f565b609955609f5460405163a9059cbb60e01b81526001600160a01b039091169063a9059cbb90610af190869086906004016116e4565b602060405180830381600087803b158015610b0b57600080fd5b505af1158015610b1f573d6000803e3d6000fd5b505050506040513d601f19601f82011682018060405250810190610b439190611415565b61047457634e487b7160e01b600052600160045260246000fd5b610b68610294610dce565b610b845760405162461bcd60e51b81526004016103f490611ac6565b609754609954610b949190611c38565b610b9c610981565b1015610bba5760405162461bcd60e51b81526004016103f49061196b565b6000610bc582611087565b905080609954610bd59190611c38565b6099556000610be384610fac565b90506000816001600160a01b031663b3f9e4cb866040518263ffffffff1660e01b8152600401610c139190611708565b60206040518083038186803b158015610c2b57600080fd5b505afa158015610c3f573d6000803e3d6000fd5b505050506040513d601f19601f82011682018060405250810190610c639190611374565b90506001600160a01b038116610c8b5760405162461bcd60e51b81526004016103f490611bbd565b6040516347c8169960e01b81526001600160a01b038216906347c8169990610cbb908c908c908a90600401611759565b600060405180830381600087803b158015610cd557600080fd5b505af1158015610ce9573d6000803e3d6000fd5b50506040516347c8169960e01b81526001600160a01b03841692506347c816999150610d1d908a908a908a90600401611918565b600060405180830381600087803b158015610d3757600080fd5b505af1158015610d4b573d6000803e3d6000fd5b50505050847f64308d1f172ca5d2a008c997998c974d7bc7143d883024b4611ad01d01f424608585604051610d81929190611c2a565b60405180910390a2505050505050505050565b60405180604001604052806005815260200164302e312e3160d81b81525081565b6001600160e01b031981166301ffc9a760e01b14919050565b3390565b610406600080516020611d5983398151915282610f8a565b610406600080516020611d5983398151915282610479565b610e0c8282610662565b6104bb57610e24816001600160a01b031660146110cc565b610e2f8360206110cc565b604051602001610e4092919061165b565b60408051601f198184030181529082905262461bcd60e51b82526103f491600401611711565b610e708282610662565b6104bb5760008281526065602090815260408083206001600160a01b03851684529091529020805460ff19166001179055610ea9610dce565b6001600160a01b0316816001600160a01b0316837f2f8788117e7eff1d82e926ec794901d17c78024a50270940304540a733656f0d60405160405180910390a45050565b610ef78282610662565b156104bb5760008281526065602090815260408083206001600160a01b03851684529091529020805460ff19169055610f2e610dce565b6001600160a01b0316816001600160a01b0316837ff6391f5c32d9c69d2a47ea670b442974b53935d1edc7fd64eb21e047a839171b60405160405180910390a45050565b610406600080516020611d3983398151915282610479565b6104bb8282610e66565b610406600080516020611d3983398151915282610f8a565b609d54604051634f558e7960e01b81526000916001600160a01b031690634f558e7990610fdd908590600401611708565b60206040518083038186803b158015610ff557600080fd5b505afa158015611009573d6000803e3d6000fd5b505050506040513d601f19601f8201168201806040525081019061102d9190611415565b156110445750609d546001600160a01b03166103c6565b600061104f83611285565b6001600160a01b03161461106f5750609e546001600160a01b03166103c6565b60405162461bcd60e51b81526004016103f490611a26565b600081156110c457506000818152609c6020526040902054609a546110ad908290611c6f565b609a556000828152609c60205260408120556103c6565b505060975490565b606060006110db836002611c50565b6110e6906002611c38565b67ffffffffffffffff81111561110c57634e487b7160e01b600052604160045260246000fd5b6040519080825280601f01601f191660200182016040528015611136576020820181803683370190505b509050600360fc1b8160008151811061115f57634e487b7160e01b600052603260045260246000fd5b60200101906001600160f81b031916908160001a905350600f60fb1b8160018151811061119c57634e487b7160e01b600052603260045260246000fd5b60200101906001600160f81b031916908160001a90535060006111c0846002611c50565b6111cb906001611c38565b90505b600181111561125f576f181899199a1a9b1b9c1cb0b131b232b360811b85600f166010811061120d57634e487b7160e01b600052603260045260246000fd5b1a60f81b82828151811061123157634e487b7160e01b600052603260045260246000fd5b60200101906001600160f81b031916908160001a90535060049490941c9361125881611cb6565b90506111ce565b50831561127e5760405162461bcd60e51b81526004016103f490611724565b9392505050565b609e546040516331a9108f60e11b81526000916001600160a01b031690636352211e906112b6908590600401611708565b60206040518083038186803b1580156112ce57600080fd5b505afa9250505080156112fe575060408051601f3d908101601f191682019092526112fb91810190611374565b60015b61130a575060006103c6565b90506103c6565b60008083601f840112611322578182fd5b50813567ffffffffffffffff811115611339578182fd5b60208301915083602082850101111561135157600080fd5b9250929050565b600060208284031215611369578081fd5b813561127e81611cf9565b600060208284031215611385578081fd5b815161127e81611cf9565b600080604083850312156113a2578081fd5b82356113ad81611cf9565b946020939093013593505050565b600080600080606085870312156113d0578182fd5b84356113db81611cf9565b935060208501359250604085013567ffffffffffffffff8111156113fd578283fd5b61140987828801611311565b95989497509550505050565b600060208284031215611426578081fd5b8151801515811461127e578182fd5b600060208284031215611446578081fd5b5035919050565b6000806040838503121561145f578182fd5b82359150602083013561147181611cf9565b809150509250929050565b60006020828403121561148d578081fd5b81356001600160e01b03198116811461127e578182fd5b600080600080600080608087890312156114bc578182fd5b863567ffffffffffffffff808211156114d3578384fd5b6114df8a838b01611311565b909850965060208901359150808211156114f7578384fd5b5061150489828a01611311565b979a9699509760408101359660609091013595509350505050565b600060208284031215611530578081fd5b5051919050565b60008060408385031215611549578182fd5b8235915060208084013567ffffffffffffffff80821115611568578384fd5b818601915086601f83011261157b578384fd5b81358181111561158d5761158d611ce3565b604051601f8201601f19168101850183811182821017156115b0576115b0611ce3565b60405281815283820185018910156115c6578586fd5b81858501868301378585838301015280955050505050509250929050565b600080604083850312156115f6578182fd5b50508035926020909101359150565b60008284528282602086013780602084860101526020601f19601f85011685010190509392505050565b60008151808452611647816020860160208601611c86565b601f01601f19169290920160200192915050565b60007f416363657373436f6e74726f6c3a206163636f756e742000000000000000000082528351611693816017850160208801611c86565b7001034b99036b4b9b9b4b733903937b6329607d1b60179184019182015283516116c4816028840160208801611c86565b01602801949350505050565b6001600160a01b0391909116815260200190565b6001600160a01b03929092168252602082015260400190565b901515815260200190565b90815260200190565b60006020825261127e602083018461162f565b6020808252818101527f537472696e67733a20686578206c656e67746820696e73756666696369656e74604082015260600190565b600060608252601760608301527f736f6369616c2e747769747465722e757365726e616d65000000000000000000608083015260a060208301526117a160a083018587611605565b9050826040830152949350505050565b60208082526034908201527f5477697474657256616c69646174696f6e4f70657261746f723a20544f4f5f4d60408201527310539657d513d2d15394d7d49154555154d5115160621b606082015260800190565b6020808252818101527f436170706572526f6c653a2043414c4c45525f49535f4e4f545f434150504552604082015260600190565b60208082526032908201527f5477697474657256616c69646174696f6e4f70657261746f723a20494e434f52604082015271149150d517d513d2d15394d7d05353d5539560721b606082015260800190565b60208082526028908201527f5477697474657256616c69646174696f6e4f70657261746f723a20434f44455f60408201526749535f454d50545960c01b606082015260800190565b60208082526024908201527f57686974656c6973746564526f6c653a2043414c4c45525f49535f4e4f545f416040820152632226a4a760e11b606082015260800190565b600060608252602260608301527f76616c69646174696f6e2e736f6369616c2e747769747465722e757365726e616080830152616d6560f01b60a083015260c060208301526117a160c083018587611605565b602080825260409082018190527f5477697474657256616c69646174696f6e4f70657261746f723a204e4f545f45908201527f4e4f5547485f544f4b454e535f4f4e5f434f4e54524143545f42414c414e4345606082015260800190565b60208082526038908201527f5477697474657256616c69646174696f6e4f70657261746f723a2043414e5f4360408201527f414c4c5f46524f4d5f4c494e4b5f544f4b454e5f4f4e4c590000000000000000606082015260800190565b6020808252602a908201527f5477697474657256616c69646174696f6e4f70657261746f723a20544f4b454e60408201526917d393d517d193d5539160b21b606082015260800190565b60208082526036908201527f5477697474657256616c69646174696f6e4f70657261746f723a204f504552416040820152751513d497d4d213d5531117d09157d054141493d5915160521b606082015260800190565b6020808252602a908201527f57686974656c6973746564526f6c653a2043414c4c45525f49535f4e4f545f5760408201526912125511531254d5115160b21b606082015260800190565b602080825260409082018190527f5477697474657256616c69646174696f6e4f70657261746f723a2053454e4445908201527f525f444f45535f4e4f545f484156455f4143434553535f544f5f444f4d41494e606082015260800190565b6020808252602f908201527f416363657373436f6e74726f6c3a2063616e206f6e6c792072656e6f756e636560408201526e103937b632b9903337b91039b2b63360891b606082015260800190565b6020808252602c908201527f5477697474657256616c69646174696f6e4f70657261746f723a205245534f4c60408201526b5645525f49535f454d50545960a01b606082015260800190565b600083825260406020830152611c22604083018461162f565b949350505050565b918252602082015260400190565b60008219821115611c4b57611c4b611ccd565b500190565b6000816000190483118215151615611c6a57611c6a611ccd565b500290565b600082821015611c8157611c81611ccd565b500390565b60005b83811015611ca1578181015183820152602001611c89565b83811115611cb0576000848401525b50505050565b600081611cc557611cc5611ccd565b506000190190565b634e487b7160e01b600052601160045260246000fd5b634e487b7160e01b600052604160045260246000fd5b6001600160a01b038116811461040657600080fdfe554e533a20436861696e6c696e6b20547769747465722056616c69646174696f6e204f70657261746f72585dbb3f830c4325b9ffb1ad42c16ada76c518747b0fb7ee297b261fc6a0f29f8429d542926e6695b59ac6fbdcd9b37e8b1aeb757afab06ab60b1bb5878c3b49a164736f6c6343000800000a",
  "linkReferences": {},
  "deployedLinkReferences": {}
}