{
  "_format": "hh-sol-artifact-1",
  "contractName": "TwitterValidationOperator",
  "sourceName": "dot-crypto/contracts/operators/TwitterValidationOperator.sol",
  "abi": [
    {
      "inputs": [
        {
          "internalType": "contract ICNSRegistry",
          "name": "_registry",
          "type": "address"
        },
        {
          "internalType": "contract LinkTokenInterface",
          "name": "_linkToken",
          "type": "address"
        },
        {
          "internalType": "address[]",
          "name": "_paymentCappers",
          "type": "address[]"
        }
      ],
      "payable": false,
      "stateMutability": "nonpayable",
      "type": "constructor"
    },
    {
      "anonymous": false,
      "inputs": [
        {
          "indexed": true,
          "internalType": "address",
          "name": "account",
          "type": "address"
        }
      ],
      "name": "CapperAdded",
      "type": "event"
    },
    {
      "anonymous": false,
      "inputs": [
        {
          "indexed": true,
          "internalType": "address",
          "name": "account",
          "type": "address"
        }
      ],
      "name": "CapperRemoved",
      "type": "event"
    },
    {
      "anonymous": false,
      "inputs": [
        {
          "indexed": false,
          "internalType": "uint256",
          "name": "operatorPaymentPerValidation",
          "type": "uint256"
        },
        {
          "indexed": false,
          "internalType": "uint256",
          "name": "userPaymentPerValidation",
          "type": "uint256"
        }
      ],
      "name": "PaymentSet",
      "type": "event"
    },
    {
      "anonymous": false,
      "inputs": [
        {
          "indexed": true,
          "internalType": "uint256",
          "name": "tokenId",
          "type": "uint256"
        },
        {
          "indexed": false,
          "internalType": "uint256",
          "name": "requestId",
          "type": "uint256"
        },
        {
          "indexed": false,
          "internalType": "uint256",
          "name": "paymentAmount",
          "type": "uint256"
        }
      ],
      "name": "Validation",
      "type": "event"
    },
    {
      "anonymous": false,
      "inputs": [
        {
          "indexed": true,
          "internalType": "uint256",
          "name": "tokenId",
          "type": "uint256"
        },
        {
          "indexed": true,
          "internalType": "address",
          "name": "owner",
          "type": "address"
        },
        {
          "indexed": false,
          "internalType": "uint256",
          "name": "requestId",
          "type": "uint256"
        },
        {
          "indexed": false,
          "internalType": "string",
          "name": "code",
          "type": "string"
        }
      ],
      "name": "ValidationRequest",
      "type": "event"
    },
    {
      "anonymous": false,
      "inputs": [
        {
          "indexed": true,
          "internalType": "address",
          "name": "account",
          "type": "address"
        }
      ],
      "name": "WhitelistAdminAdded",
      "type": "event"
    },
    {
      "anonymous": false,
      "inputs": [
        {
          "indexed": true,
          "internalType": "address",
          "name": "account",
          "type": "address"
        }
      ],
      "name": "WhitelistAdminRemoved",
      "type": "event"
    },
    {
      "anonymous": false,
      "inputs": [
        {
          "indexed": true,
          "internalType": "address",
          "name": "account",
          "type": "address"
        }
      ],
      "name": "WhitelistedAdded",
      "type": "event"
    },
    {
      "anonymous": false,
      "inputs": [
        {
          "indexed": true,
          "internalType": "address",
          "name": "account",
          "type": "address"
        }
      ],
      "name": "WhitelistedRemoved",
      "type": "event"
    },
    {
      "constant": true,
      "inputs": [],
      "name": "NAME",
      "outputs": [
        {
          "internalType": "string",
          "name": "",
          "type": "string"
        }
      ],
      "payable": false,
      "stateMutability": "view",
      "type": "function"
    },
    {
      "constant": true,
      "inputs": [],
      "name": "VERSION",
      "outputs": [
        {
          "internalType": "string",
          "name": "",
          "type": "string"
        }
      ],
      "payable": false,
      "stateMutability": "view",
      "type": "function"
    },
    {
      "constant": false,
      "inputs": [
        {
          "internalType": "address",
          "name": "account",
          "type": "address"
        }
      ],
      "name": "addCapper",
      "outputs": [],
      "payable": false,
      "stateMutability": "nonpayable",
      "type": "function"
    },
    {
      "constant": false,
      "inputs": [
        {
          "internalType": "address",
          "name": "account",
          "type": "address"
        }
      ],
      "name": "addWhitelistAdmin",
      "outputs": [],
      "payable": false,
      "stateMutability": "nonpayable",
      "type": "function"
    },
    {
      "constant": false,
      "inputs": [
        {
          "internalType": "address",
          "name": "account",
          "type": "address"
        }
      ],
      "name": "addWhitelisted",
      "outputs": [],
      "payable": false,
      "stateMutability": "nonpayable",
      "type": "function"
    },
    {
      "constant": true,
      "inputs": [],
      "name": "availableBalance",
      "outputs": [
        {
          "internalType": "uint256",
          "name": "",
          "type": "uint256"
        }
      ],
      "payable": false,
      "stateMutability": "view",
      "type": "function"
    },
    {
      "constant": true,
      "inputs": [],
      "name": "canSetValidation",
      "outputs": [
        {
          "internalType": "bool",
          "name": "",
          "type": "bool"
        }
      ],
      "payable": false,
      "stateMutability": "view",
      "type": "function"
    },
    {
      "constant": true,
      "inputs": [
        {
          "internalType": "address",
          "name": "account",
          "type": "address"
        }
      ],
      "name": "isCapper",
      "outputs": [
        {
          "internalType": "bool",
          "name": "",
          "type": "bool"
        }
      ],
      "payable": false,
      "stateMutability": "view",
      "type": "function"
    },
    {
      "constant": true,
      "inputs": [
        {
          "internalType": "address",
          "name": "account",
          "type": "address"
        }
      ],
      "name": "isWhitelistAdmin",
      "outputs": [
        {
          "internalType": "bool",
          "name": "",
          "type": "bool"
        }
      ],
      "payable": false,
      "stateMutability": "view",
      "type": "function"
    },
    {
      "constant": true,
      "inputs": [
        {
          "internalType": "address",
          "name": "account",
          "type": "address"
        }
      ],
      "name": "isWhitelisted",
      "outputs": [
        {
          "internalType": "bool",
          "name": "",
          "type": "bool"
        }
      ],
      "payable": false,
      "stateMutability": "view",
      "type": "function"
    },
    {
      "constant": false,
      "inputs": [
        {
          "internalType": "address",
          "name": "_sender",
          "type": "address"
        },
        {
          "internalType": "uint256",
          "name": "_value",
          "type": "uint256"
        },
        {
          "internalType": "bytes",
          "name": "_data",
          "type": "bytes"
        }
      ],
      "name": "onTokenTransfer",
      "outputs": [],
      "payable": false,
      "stateMutability": "nonpayable",
      "type": "function"
    },
    {
      "constant": true,
      "inputs": [],
      "name": "operatorPaymentPerValidation",
      "outputs": [
        {
          "internalType": "uint256",
          "name": "",
          "type": "uint256"
        }
      ],
      "payable": false,
      "stateMutability": "view",
      "type": "function"
    },
    {
      "constant": false,
      "inputs": [
        {
          "internalType": "address",
          "name": "account",
          "type": "address"
        }
      ],
      "name": "removeWhitelisted",
      "outputs": [],
      "payable": false,
      "stateMutability": "nonpayable",
      "type": "function"
    },
    {
      "constant": false,
      "inputs": [],
      "name": "renounceCapper",
      "outputs": [],
      "payable": false,
      "stateMutability": "nonpayable",
      "type": "function"
    },
    {
      "constant": false,
      "inputs": [],
      "name": "renounceWhitelistAdmin",
      "outputs": [],
      "payable": false,
      "stateMutability": "nonpayable",
      "type": "function"
    },
    {
      "constant": false,
      "inputs": [],
      "name": "renounceWhitelisted",
      "outputs": [],
      "payable": false,
      "stateMutability": "nonpayable",
      "type": "function"
    },
    {
      "constant": false,
      "inputs": [
        {
          "internalType": "uint256",
          "name": "_operatorPaymentPerValidation",
          "type": "uint256"
        },
        {
          "internalType": "uint256",
          "name": "_userPaymentPerValidation",
          "type": "uint256"
        }
      ],
      "name": "setPaymentPerValidation",
      "outputs": [],
      "payable": false,
      "stateMutability": "nonpayable",
      "type": "function"
    },
    {
      "constant": false,
      "inputs": [
        {
          "internalType": "string",
          "name": "_username",
          "type": "string"
        },
        {
          "internalType": "string",
          "name": "_signature",
          "type": "string"
        },
        {
          "internalType": "uint256",
          "name": "_tokenId",
          "type": "uint256"
        },
        {
          "internalType": "uint256",
          "name": "_requestId",
          "type": "uint256"
        }
      ],
      "name": "setValidation",
      "outputs": [],
      "payable": false,
      "stateMutability": "nonpayable",
      "type": "function"
    },
    {
      "constant": true,
      "inputs": [],
      "name": "userPaymentPerValidation",
      "outputs": [
        {
          "internalType": "uint256",
          "name": "",
          "type": "uint256"
        }
      ],
      "payable": false,
      "stateMutability": "view",
      "type": "function"
    },
    {
      "constant": false,
      "inputs": [
        {
          "internalType": "address",
          "name": "_recipient",
          "type": "address"
        },
        {
          "internalType": "uint256",
          "name": "_amount",
          "type": "uint256"
        }
      ],
      "name": "withdraw",
      "outputs": [],
      "payable": false,
      "stateMutability": "nonpayable",
      "type": "function"
    },
    {
      "constant": true,
      "inputs": [],
      "name": "withdrawableTokens",
      "outputs": [
        {
          "internalType": "uint256",
          "name": "",
          "type": "uint256"
        }
      ],
      "payable": false,
      "stateMutability": "view",
      "type": "function"
    }
  ],
  "bytecode": "0x608060405260016007553480156200001657600080fd5b506040516200235638038062002356833981016040819052620000399162000537565b6200004d336001600160e01b03620001b816565b62000061336001600160e01b036200020a16565b6001600160a01b038316620000ad576040517f08c379a0000000000000000000000000000000000000000000000000000000008152600401620000a4906200085c565b60405180910390fd5b6001600160a01b038216620000f0576040517f08c379a0000000000000000000000000000000000000000000000000000000008152600401620000a49062000814565b60008151116200012e576040517f08c379a0000000000000000000000000000000000000000000000000000000008152600401620000a49062000838565b600980546001600160a01b038086166001600160a01b031992831617909255600a805492851692909116919091179055805160005b818110156200019a57620001918382815181106200017d57fe5b60200260200101516200025c60201b60201c565b60010162000163565b50620001ae6001600160e01b03620002c016565b5050505062000919565b620001d3816000620002d660201b62000dd31790919060201c565b6040516001600160a01b038216907f22380c05984257a1cb900161c713dd71d39e74820f1aea43bd3f1bdd2096129990600090a250565b62000225816002620002d660201b62000dd31790919060201c565b6040516001600160a01b038216907fa7555c95b69d4f5cc847881feb4ab2883a1921319e34fa2043747b793d65b36e90600090a250565b62000270336001600160e01b036200034a16565b620002a9576040517f08c379a0000000000000000000000000000000000000000000000000000000008152600401620000a4906200086e565b620002bd816001600160e01b036200020a16565b50565b620002d4336001600160e01b036200036d16565b565b620002eb82826001600160e01b03620003bf16565b1562000325576040517f08c379a0000000000000000000000000000000000000000000000000000000008152600401620000a49062000802565b6001600160a01b0316600090815260209190915260409020805460ff19166001179055565b600062000367826002620003bf60201b62000bf91790919060201c565b92915050565b620003888160026200042460201b62000e1f1790919060201c565b6040516001600160a01b038216907f427400d279c506df610224b22ecce89b693fc1865864113f21c8d19c1f0c2a3b90600090a250565b60006001600160a01b03821662000404576040517f08c379a0000000000000000000000000000000000000000000000000000000008152600401620000a4906200084a565b506001600160a01b03166000908152602091909152604090205460ff1690565b6200043982826001600160e01b03620003bf16565b62000472576040517f08c379a0000000000000000000000000000000000000000000000000000000008152600401620000a49062000826565b6001600160a01b0316600090815260209190915260409020805460ff19169055565b80516200036781620008f7565b600082601f830112620004b357600080fd5b8151620004ca620004c482620008a7565b62000880565b91508181835260208401935060208101905083856020840282011115620004f057600080fd5b60005b8381101562000520578162000509888262000494565b8452506020928301929190910190600101620004f3565b5050505092915050565b805162000367816200090e565b6000806000606084860312156200054d57600080fd5b60006200055b86866200052a565b93505060206200056e868287016200052a565b92505060408401516001600160401b038111156200058b57600080fd5b6200059986828701620004a1565b9150509250925092565b6000620005b2601f83620008c8565b7f526f6c65733a206163636f756e7420616c72656164792068617320726f6c6500815260200192915050565b6000620005ed603583620008c8565b6000805160206200233683398151915281527f49445f4c494e4b5f544f4b454e5f414444524553530000000000000000000000602082015260400192915050565b60006200063d602183620008c8565b7f526f6c65733a206163636f756e7420646f6573206e6f74206861766520726f6c81527f6500000000000000000000000000000000000000000000000000000000000000602082015260400192915050565b60006200069e602e83620008c8565b7f5477697474657256616c69646174696f6e4f70657261746f723a204e4f5f434181527f50504552535f50524f5649444544000000000000000000000000000000000000602082015260400192915050565b6000620006ff602283620008c8565b7f526f6c65733a206163636f756e7420697320746865207a65726f20616464726581527f7373000000000000000000000000000000000000000000000000000000000000602082015260400192915050565b600062000760603383620008c8565b6000805160206200233683398151915281527f49445f52454749535452595f4144445245535300000000000000000000000000602082015260400192915050565b6000620007b0603083620008c8565b7f436170706572526f6c653a2063616c6c657220646f6573206e6f74206861766581527f207468652043617070657220726f6c6500000000000000000000000000000000602082015260400192915050565b602080825281016200036781620005a3565b602080825281016200036781620005de565b6020808252810162000367816200062e565b6020808252810162000367816200068f565b602080825281016200036781620006f0565b60208082528101620003678162000751565b602080825281016200036781620007a1565b6040518181016001600160401b03811182821017156200089f57600080fd5b604052919050565b60006001600160401b03821115620008be57600080fd5b5060209081020190565b90815260200190565b60006200036782620008eb565b60006200036782620008d1565b6001600160a01b031690565b6200090281620008d1565b8114620002bd57600080fd5b6200090281620008de565b611a0d80620009296000396000f3fe608060405234801561001057600080fd5b50600436106101375760003560e01c80638dfbcf36116100b8578063c22739381161007c578063c227393814610249578063cb793ca214610251578063d6cd947314610259578063f3fef3a314610261578063f615dcd814610274578063ffa1ad741461028757610137565b80638dfbcf36146101f3578063a3f4df7e14610206578063a4c0ed361461021b578063ab2f0e511461022e578063bb5f747b1461023657610137565b80634c5a628c116100ff5780634c5a628c146101a85780635d5576f8146101b057806367a63119146101b85780637362d9c8146101cb5780637fe0a634146101de57610137565b806310154bad1461013c578063291d95491461015157806337cedfe51461016457806339564561146101825780633af32abf14610195575b600080fd5b61014f61014a366004610f3b565b61028f565b005b61014f61015f366004610f3b565b6102c9565b61016c6102f7565b604051610179919061172f565b60405180910390f35b61016c610190366004610f3b565b61035f565b61016c6101a3366004610f3b565b61037a565b61014f61038d565b61014f610398565b61014f6101c636600461113d565b6103a1565b61014f6101d9366004610f3b565b61040e565b6101e661043c565b6040516101799190611882565b61014f610201366004610f3b565b610442565b61020e610470565b604051610179919061173d565b61014f610229366004610fb9565b61048c565b6101e6610759565b61016c610244366004610f3b565b6107f6565b6101e6610808565b6101e661080e565b61014f610814565b61014f61026f366004610f7f565b61081d565b61014f61028236600461103f565b61090a565b61020e610b1a565b610298336107f6565b6102bd5760405162461bcd60e51b81526004016102b490611822565b60405180910390fd5b6102c681610b3b565b50565b6102d2336107f6565b6102ee5760405162461bcd60e51b81526004016102b490611822565b6102c681610b83565b60006103023361037a565b61031e5760405162461bcd60e51b81526004016102b490611842565b6003546005546103339163ffffffff610bcb16565b61033b610759565b10156103595760405162461bcd60e51b81526004016102b490611802565b50600190565b600061037260028363ffffffff610bf916565b90505b919050565b600061037260018363ffffffff610bf916565b61039633610c41565b565b61039633610c89565b6103aa3361035f565b6103c65760405162461bcd60e51b81526004016102b490611862565b600382905560048190556040517f769ee4ccac1531bdb9405bbbafe6505e85c1a11f7d1e758cfcb9768651bcf9b59061040290849084906118b0565b60405180910390a15050565b610417336107f6565b6104335760405162461bcd60e51b81526004016102b490611822565b6102c681610cd1565b60055481565b61044b3361035f565b6104675760405162461bcd60e51b81526004016102b490611862565b6102c681610d19565b6040518060600160405280602581526020016119a66025913981565b600a546001600160a01b031633146104b65760405162461bcd60e51b81526004016102b490611832565b8260045481146104d85760405162461bcd60e51b81526004016102b4906117b2565b600060606104e8848601866110f5565b60095460405163430c208160e01b81529294509092506001600160a01b03169063430c20819061051e908a90869060040161170d565b60206040518083038186803b15801561053657600080fd5b505afa15801561054a573d6000803e3d6000fd5b505050506040513d601f19601f8201168201806040525061056e9190810190611021565b61058a5760405162461bcd60e51b81526004016102b490611872565b60008151116105ab5760405162461bcd60e51b81526004016102b4906117d2565b60095460405163430c208160e01b81526001600160a01b039091169063430c2081906105dd903090869060040161170d565b60206040518083038186803b1580156105f557600080fd5b505afa158015610609573d6000803e3d6000fd5b505050506040513d601f19601f8201168201806040525061062d9190810190611021565b6106495760405162461bcd60e51b81526004016102b490611852565b60065461065c908763ffffffff610bcb16565b6006556007546000908152600860205260409081902087905560095490516331a9108f60e11b81526001600160a01b0390911690636352211e906106a4908590600401611882565b60206040518083038186803b1580156106bc57600080fd5b505afa1580156106d0573d6000803e3d6000fd5b505050506040513d601f19601f820116820180604052506106f49190810190610f61565b6001600160a01b0316827fc3394c5f6e735c734448afa55eefbce7fa2c55449859aa3f9ab1f6cc6f1922eb60075484604051610731929190611890565b60405180910390a360075461074d90600163ffffffff610bcb16565b60075550505050505050565b600654600a546040516370a0823160e01b81526000926107f19290916001600160a01b03909116906370a08231906107959030906004016116ff565b60206040518083038186803b1580156107ad57600080fd5b505afa1580156107c1573d6000803e3d6000fd5b505050506040513d601f19601f820116820180604052506107e591908101906110d7565b9063ffffffff610d6116565b905090565b6000610372818363ffffffff610bf916565b60035481565b60045481565b61039633610b83565b610826336107f6565b6108425760405162461bcd60e51b81526004016102b490611822565b808060055410156108655760405162461bcd60e51b81526004016102b4906117a2565b600554610878908363ffffffff610d6116565b600555600a5460405163a9059cbb60e01b81526001600160a01b039091169063a9059cbb906108ad908690869060040161170d565b602060405180830381600087803b1580156108c757600080fd5b505af11580156108db573d6000803e3d6000fd5b505050506040513d601f19601f820116820180604052506108ff9190810190611021565b61090557fe5b505050565b6109133361037a565b61092f5760405162461bcd60e51b81526004016102b490611842565b6003546005546109449163ffffffff610bcb16565b61094c610759565b101561096a5760405162461bcd60e51b81526004016102b490611802565b600061097582610d89565b60055490915061098b908263ffffffff610bcb16565b60055560095460405163b3f9e4cb60e01b81526000916001600160a01b03169063b3f9e4cb906109bf908790600401611882565b60206040518083038186803b1580156109d757600080fd5b505afa1580156109eb573d6000803e3d6000fd5b505050506040513d601f19601f82011682018060405250610a0f9190810190610f61565b6040516347c8169960e01b81529091506001600160a01b038216906347c8169990610a42908b908b90899060040161175e565b600060405180830381600087803b158015610a5c57600080fd5b505af1158015610a70573d6000803e3d6000fd5b50506040516347c8169960e01b81526001600160a01b03841692506347c816999150610aa4908990899089906004016117f2565b600060405180830381600087803b158015610abe57600080fd5b505af1158015610ad2573d6000803e3d6000fd5b50505050837f64308d1f172ca5d2a008c997998c974d7bc7143d883024b4611ad01d01f424608484604051610b089291906118b0565b60405180910390a25050505050505050565b604051806040016040528060058152602001640302e322e360dc1b81525081565b610b4c60018263ffffffff610dd316565b6040516001600160a01b038216907fee1504a83b6d4a361f4c1dc78ab59bfa30d6a3b6612c403e86bb01ef2984295f90600090a250565b610b9460018263ffffffff610e1f16565b6040516001600160a01b038216907f270d9b30cf5b0793bbfd54c9d5b94aeb49462b8148399000265144a8722da6b690600090a250565b600082820183811015610bf05760405162461bcd60e51b81526004016102b490611792565b90505b92915050565b60006001600160a01b038216610c215760405162461bcd60e51b81526004016102b490611812565b506001600160a01b03166000908152602091909152604090205460ff1690565b610c5260008263ffffffff610e1f16565b6040516001600160a01b038216907f0a8eb35e5ca14b3d6f28e4abf2f128dbab231a58b56e89beb5d636115001e16590600090a250565b610c9a60028263ffffffff610e1f16565b6040516001600160a01b038216907f427400d279c506df610224b22ecce89b693fc1865864113f21c8d19c1f0c2a3b90600090a250565b610ce260008263ffffffff610dd316565b6040516001600160a01b038216907f22380c05984257a1cb900161c713dd71d39e74820f1aea43bd3f1bdd2096129990600090a250565b610d2a60028263ffffffff610dd316565b6040516001600160a01b038216907fa7555c95b69d4f5cc847881feb4ab2883a1921319e34fa2043747b793d65b36e90600090a250565b600082821115610d835760405162461bcd60e51b81526004016102b4906117c2565b50900390565b60008115610dcb5750600081815260086020526040902054600654610db4908263ffffffff610d6116565b600655600082815260086020526040812055610375565b505060035490565b610ddd8282610bf9565b15610dfa5760405162461bcd60e51b81526004016102b49061174e565b6001600160a01b0316600090815260209190915260409020805460ff19166001179055565b610e298282610bf9565b610e455760405162461bcd60e51b81526004016102b4906117e2565b6001600160a01b0316600090815260209190915260409020805460ff19169055565b8035610bf38161197f565b8051610bf38161197f565b8051610bf381611993565b60008083601f840112610e9a57600080fd5b50813567ffffffffffffffff811115610eb257600080fd5b602083019150836001820283011115610eca57600080fd5b9250929050565b600082601f830112610ee257600080fd5b8135610ef5610ef0826118e5565b6118be565b91508082526020830160208301858383011115610f1157600080fd5b610f1c838284611939565b50505092915050565b8035610bf38161199c565b8051610bf38161199c565b600060208284031215610f4d57600080fd5b6000610f598484610e67565b949350505050565b600060208284031215610f7357600080fd5b6000610f598484610e72565b60008060408385031215610f9257600080fd5b6000610f9e8585610e67565b9250506020610faf85828601610f25565b9150509250929050565b60008060008060608587031215610fcf57600080fd5b6000610fdb8787610e67565b9450506020610fec87828801610f25565b935050604085013567ffffffffffffffff81111561100957600080fd5b61101587828801610e88565b95989497509550505050565b60006020828403121561103357600080fd5b6000610f598484610e7d565b6000806000806000806080878903121561105857600080fd5b863567ffffffffffffffff81111561106f57600080fd5b61107b89828a01610e88565b9650965050602087013567ffffffffffffffff81111561109a57600080fd5b6110a689828a01610e88565b945094505060406110b989828a01610f25565b92505060606110ca89828a01610f25565b9150509295509295509295565b6000602082840312156110e957600080fd5b6000610f598484610f30565b6000806040838503121561110857600080fd5b60006111148585610f25565b925050602083013567ffffffffffffffff81111561113157600080fd5b610faf85828601610ed1565b6000806040838503121561115057600080fd5b6000610f9e8585610f25565b6111658161191a565b82525050565b61116581611925565b60006111808385611911565b935061118d838584611939565b61119683611975565b9093019392505050565b60006111ab8261190d565b6111b58185611911565b93506111c5818560208601611945565b61119681611975565b60006111db601f83611911565b7f526f6c65733a206163636f756e7420616c72656164792068617320726f6c6500815260200192915050565b6000611214601783611911565b7f736f6369616c2e747769747465722e757365726e616d65000000000000000000815260200192915050565b600061124d601b83611911565b7f536166654d6174683a206164646974696f6e206f766572666c6f770000000000815260200192915050565b6000611286603483611911565b7f5477697474657256616c69646174696f6e4f70657261746f723a20544f4f5f4d81527310539657d513d2d15394d7d49154555154d5115160621b602082015260400192915050565b60006112dc603283611911565b7f5477697474657256616c69646174696f6e4f70657261746f723a20494e434f52815271149150d517d513d2d15394d7d05353d5539560721b602082015260400192915050565b6000611330601e83611911565b7f536166654d6174683a207375627472616374696f6e206f766572666c6f770000815260200192915050565b6000611369602883611911565b7f5477697474657256616c69646174696f6e4f70657261746f723a20434f44455f81526749535f454d50545960c01b602082015260400192915050565b60006113b3602183611911565b7f526f6c65733a206163636f756e7420646f6573206e6f74206861766520726f6c8152606560f81b602082015260400192915050565b60006113f6602283611911565b7f76616c69646174696f6e2e736f6369616c2e747769747465722e757365726e618152616d6560f01b602082015260400192915050565b600061143a604083611911565b7f5477697474657256616c69646174696f6e4f70657261746f723a204e4f545f4581527f4e4f5547485f544f4b454e535f4f4e5f434f4e54524143545f42414c414e4345602082015260400192915050565b6000611499602283611911565b7f526f6c65733a206163636f756e7420697320746865207a65726f206164647265815261737360f01b602082015260400192915050565b60006114dd604083611911565b7f57686974656c69737441646d696e526f6c653a2063616c6c657220646f65732081527f6e6f742068617665207468652057686974656c69737441646d696e20726f6c65602082015260400192915050565b600061153c603883611911565b7f5477697474657256616c69646174696f6e4f70657261746f723a2043414e5f4381527f414c4c5f46524f4d5f4c494e4b5f544f4b454e5f4f4e4c590000000000000000602082015260400192915050565b600061159b603a83611911565b7f57686974656c6973746564526f6c653a2063616c6c657220646f6573206e6f7481527f2068617665207468652057686974656c697374656420726f6c65000000000000602082015260400192915050565b60006115fa603683611911565b7f5477697474657256616c69646174696f6e4f70657261746f723a204f504552418152751513d497d4d213d5531117d09157d054141493d5915160521b602082015260400192915050565b6000611652603083611911565b7f436170706572526f6c653a2063616c6c657220646f6573206e6f74206861766581526f207468652043617070657220726f6c6560801b602082015260400192915050565b60006116a4604083611911565b7f5477697474657256616c69646174696f6e4f70657261746f723a2053454e444581527f525f444f45535f4e4f545f484156455f4143434553535f544f5f444f4d41494e602082015260400192915050565b61116581611936565b60208101610bf3828461115c565b6040810161171b828561115c565b61172860208301846116f6565b9392505050565b60208101610bf3828461116b565b6020808252810161172881846111a0565b60208082528101610372816111ce565b6060808252810161176e81611207565b90508181036020830152611783818587611174565b9050610f5960408301846116f6565b6020808252810161037281611240565b6020808252810161037281611279565b60208082528101610372816112cf565b6020808252810161037281611323565b602080825281016103728161135c565b60208082528101610372816113a6565b6060808252810161176e816113e9565b602080825281016103728161142d565b602080825281016103728161148c565b60208082528101610372816114d0565b602080825281016103728161152f565b602080825281016103728161158e565b60208082528101610372816115ed565b6020808252810161037281611645565b6020808252810161037281611697565b60208101610bf382846116f6565b6040810161189e82856116f6565b8181036020830152610f5981846111a0565b6040810161171b82856116f6565b60405181810167ffffffffffffffff811182821017156118dd57600080fd5b604052919050565b600067ffffffffffffffff8211156118fc57600080fd5b506020601f91909101601f19160190565b5190565b90815260200190565b60006103728261192a565b151590565b6001600160a01b031690565b90565b82818337506000910152565b60005b83811015611960578181015183820152602001611948565b8381111561196f576000848401525b50505050565b601f01601f191690565b6119888161191a565b81146102c657600080fd5b61198881611925565b6119888161193656fe436861696e6c696e6b20547769747465722056616c69646174696f6e204f70657261746f72a365627a7a7231582012b409fad0a9cff994a86b1b85ef0a32bfd1c74a313ec282875ebb75e9a9c88d6c6578706572696d656e74616cf564736f6c634300050c00405477697474657256616c69646174696f6e4f70657261746f723a20494e56414c",
  "linkReferences": {},
  "deployedLinkReferences": {}
}