{
  "_format": "hh-sol-artifact-1",
  "contractName": "UniversalForwarder",
  "sourceName": "contracts/metatx/UniversalForwarder.sol",
  "abi": [
    {
      "inputs": [
        {
          "components": [
            {
              "internalType": "address",
              "name": "from",
              "type": "address"
            },
            {
              "internalType": "address",
              "name": "to",
              "type": "address"
            },
            {
              "internalType": "uint256",
              "name": "gas",
              "type": "uint256"
            },
            {
              "internalType": "uint256",
              "name": "nonce",
              "type": "uint256"
            },
            {
              "internalType": "bytes",
              "name": "data",
              "type": "bytes"
            }
          ],
          "internalType": "struct UniversalForwarder.ForwardRequest",
          "name": "req",
          "type": "tuple"
        },
        {
          "internalType": "bytes",
          "name": "signature",
          "type": "bytes"
        }
      ],
      "name": "build",
      "outputs": [
        {
          "internalType": "bytes",
          "name": "",
          "type": "bytes"
        }
      ],
      "stateMutability": "view",
      "type": "function"
    },
    {
      "inputs": [
        {
          "components": [
            {
              "internalType": "address",
              "name": "from",
              "type": "address"
            },
            {
              "internalType": "address",
              "name": "to",
              "type": "address"
            },
            {
              "internalType": "uint256",
              "name": "gas",
              "type": "uint256"
            },
            {
              "internalType": "uint256",
              "name": "nonce",
              "type": "uint256"
            },
            {
              "internalType": "bytes",
              "name": "data",
              "type": "bytes"
            }
          ],
          "internalType": "struct UniversalForwarder.ForwardRequest",
          "name": "req",
          "type": "tuple"
        },
        {
          "internalType": "bytes",
          "name": "signature",
          "type": "bytes"
        }
      ],
      "name": "execute",
      "outputs": [
        {
          "internalType": "bool",
          "name": "",
          "type": "bool"
        },
        {
          "internalType": "bytes",
          "name": "",
          "type": "bytes"
        }
      ],
      "stateMutability": "nonpayable",
      "type": "function"
    },
    {
      "inputs": [],
      "name": "initialize",
      "outputs": [],
      "stateMutability": "nonpayable",
      "type": "function"
    }
  ],
  "bytecode": "0x608060405234801561001057600080fd5b50610756806100206000396000f3fe608060405234801561001057600080fd5b50600436106100415760003560e01c8063420a7bdd146100465780637507bd7a1461006f5780638129fc1c14610090575b600080fd5b6100596100543660046104b6565b61009a565b60405161006691906105fb565b60405180910390f35b61008261007d3660046104b6565b6101e1565b6040516100669291906105d8565b61009861029d565b005b60606000806100ac608087018761065c565b8080601f0160208091040260200160405190810160405280939291908181526020018383808284376000920182905250602085015196509394506100f792505050608088018861065c565b8080601f01602080910402602001604051908101604052809392919081815260200183838082843760009201829052506001600160e01b03198089168252603560205260409091205494955060e09490941b9093161592506101d7915050576001600160e01b0319831660009081526035602052604090205460e01b610180608089018961065c565b61018e9160049082906106a8565b6001600160e01b031986166000908152603560209081526040918290206001015491516101c595949392918b918d9183910161057a565b60405160208183030381529060405290505b9695505050505050565b6000606081806101f76040880160208901610488565b6001600160a01b0316876040013561021089898961009a565b60405161021d91906105bc565b60006040518083038160008787f1925050503d806000811461025b576040519150601f19603f3d011682016040523d82523d6000602084013e610260565b606091505b509092509050610275603f60408901356106d0565b5a1161029157634e487b7160e01b600052600160045260246000fd5b90969095509350505050565b600054610100900460ff16806102b6575060005460ff16155b6102db5760405162461bcd60e51b81526004016102d29061060e565b60405180910390fd5b600054610100900460ff16158015610306576000805460ff1961ff0019909116610100171660011790555b610357604051806040016040528060128152602001712ab734bb32b939b0b62337b93bb0b93232b960711b81525060405180604001604052806005815260200164302e302e3160d81b8152506103f4565b60408051808201909152631de5861160e31b8152608060208083019182526323b872dd60e01b6000526035905290517ffbf555d20ddd8b6918926739510daf67c21c9a36f9a88997b192ab4237cee4c0805463ffffffff191660e09290921c919091179055517ffbf555d20ddd8b6918926739510daf67c21c9a36f9a88997b192ab4237cee4c15580156103f1576000805461ff00191690555b50565b600054610100900460ff168061040d575060005460ff16155b6104295760405162461bcd60e51b81526004016102d29061060e565b600054610100900460ff16158015610454576000805460ff1961ff0019909116610100171660011790555b82516020808501919091208351918401919091206001919091556002558015610483576000805461ff00191690555b505050565b600060208284031215610499578081fd5b81356001600160a01b03811681146104af578182fd5b9392505050565b6000806000604084860312156104ca578182fd5b833567ffffffffffffffff808211156104e1578384fd5b9085019060a082880312156104f4578384fd5b90935060208501359080821115610509578384fd5b818601915086601f83011261051c578384fd5b81358181111561052a578485fd5b87602082850101111561053b578485fd5b6020830194508093505050509250925092565b600081518084526105668160208601602086016106f0565b601f01601f19169290920160200192915050565b6001600160e01b031988168152600086886004840137868201600481018790526024810186905283856044830137909201604401918252509695505050505050565b600082516105ce8184602087016106f0565b9190910192915050565b60008315158252604060208301526105f3604083018461054e565b949350505050565b6000602082526104af602083018461054e565b6020808252602e908201527f496e697469616c697a61626c653a20636f6e747261637420697320616c72656160408201526d191e481a5b9a5d1a585b1a5e995960921b606082015260800190565b6000808335601e19843603018112610672578283fd5b83018035915067ffffffffffffffff82111561068c578283fd5b6020019150368190038213156106a157600080fd5b9250929050565b600080858511156106b7578182fd5b838611156106c3578182fd5b5050820193919092039150565b6000826106eb57634e487b7160e01b81526012600452602481fd5b500490565b60005b8381101561070b5781810151838201526020016106f3565b8381111561071a576000848401525b5050505056fea26469706673582212207a604c5b15306b630cfd78682eef360983bf761a5a3b964dfc216eac459ec91e64736f6c63430008000033",
  "linkReferences": {},
  "deployedLinkReferences": {}
}