{
  "_format": "hh-sol-artifact-1",
  "contractName": "UniversalForwarder",
  "sourceName": "contracts/metatx/UniversalForwarder.sol",
  "abi": [
    {
      "inputs": [
        {
          "components": [
            {
              "internalType": "address",
              "name": "from",
              "type": "address"
            },
            {
              "internalType": "address",
              "name": "to",
              "type": "address"
            },
            {
              "internalType": "uint256",
              "name": "gas",
              "type": "uint256"
            },
            {
              "internalType": "uint256",
              "name": "nonce",
              "type": "uint256"
            },
            {
              "internalType": "bytes",
              "name": "data",
              "type": "bytes"
            }
          ],
          "internalType": "struct UniversalForwarder.ForwardRequest",
          "name": "req",
          "type": "tuple"
        },
        {
          "internalType": "bytes",
          "name": "",
          "type": "bytes"
        }
      ],
      "name": "execute",
      "outputs": [
        {
          "internalType": "bool",
          "name": "",
          "type": "bool"
        },
        {
          "internalType": "bytes",
          "name": "",
          "type": "bytes"
        }
      ],
      "stateMutability": "nonpayable",
      "type": "function"
    }
  ],
  "bytecode": "0x608060405234801561001057600080fd5b506102ee806100206000396000f3fe608060405234801561001057600080fd5b506004361061002b5760003560e01c80637507bd7a14610030575b600080fd5b61004361003e366004610147565b61005a565b6040516100519291906101ef565b60405180910390f35b6000606081806100706040880160208901610119565b6001600160a01b0316604088013561008b60808a018a61024c565b6040516100999291906101df565b60006040518083038160008787f1925050503d80600081146100d7576040519150601f19603f3d011682016040523d82523d6000602084013e6100dc565b606091505b5090925090506100f1603f6040890135610298565b5a1161010d57634e487b7160e01b600052600160045260246000fd5b90969095509350505050565b60006020828403121561012a578081fd5b81356001600160a01b0381168114610140578182fd5b9392505050565b60008060006040848603121561015b578182fd5b833567ffffffffffffffff80821115610172578384fd5b9085019060a08288031215610185578384fd5b9093506020850135908082111561019a578384fd5b818601915086601f8301126101ad578384fd5b8135818111156101bb578485fd5b8760208285010111156101cc578485fd5b6020830194508093505050509250925092565b6000828483379101908152919050565b6000831515825260206040818401528351806040850152825b8181101561022457858101830151858201606001528201610208565b818111156102355783606083870101525b50601f01601f191692909201606001949350505050565b6000808335601e19843603018112610262578283fd5b83018035915067ffffffffffffffff82111561027c578283fd5b60200191503681900382131561029157600080fd5b9250929050565b6000826102b357634e487b7160e01b81526012600452602481fd5b50049056fea264697066735822122080054b60b9ca6b219df2ae83f3feaa9a21a8f520834f377c47411585fdc9c4f664736f6c63430008000033",
  "linkReferences": {},
  "deployedLinkReferences": {}
}