{
  "_format": "hh-sol-artifact-1",
  "contractName": "UNSFallbackDelegate",
  "sourceName": "contracts/UNSFallbackDelegate.sol",
  "abi": [
    {
      "anonymous": false,
      "inputs": [
        {
          "indexed": true,
          "internalType": "address",
          "name": "owner",
          "type": "address"
        },
        {
          "indexed": true,
          "internalType": "address",
          "name": "approved",
          "type": "address"
        },
        {
          "indexed": true,
          "internalType": "uint256",
          "name": "tokenId",
          "type": "uint256"
        }
      ],
      "name": "Approval",
      "type": "event"
    },
    {
      "anonymous": false,
      "inputs": [
        {
          "indexed": true,
          "internalType": "address",
          "name": "owner",
          "type": "address"
        },
        {
          "indexed": true,
          "internalType": "address",
          "name": "operator",
          "type": "address"
        },
        {
          "indexed": false,
          "internalType": "bool",
          "name": "approved",
          "type": "bool"
        }
      ],
      "name": "ApprovalForAll",
      "type": "event"
    },
    {
      "anonymous": false,
      "inputs": [
        {
          "indexed": true,
          "internalType": "uint256",
          "name": "tokenId",
          "type": "uint256"
        }
      ],
      "name": "Foo",
      "type": "event"
    },
    {
      "anonymous": false,
      "inputs": [
        {
          "indexed": false,
          "internalType": "uint8",
          "name": "version",
          "type": "uint8"
        }
      ],
      "name": "Initialized",
      "type": "event"
    },
    {
      "anonymous": false,
      "inputs": [
        {
          "indexed": true,
          "internalType": "address",
          "name": "from",
          "type": "address"
        },
        {
          "indexed": true,
          "internalType": "address",
          "name": "to",
          "type": "address"
        },
        {
          "indexed": true,
          "internalType": "uint256",
          "name": "tokenId",
          "type": "uint256"
        }
      ],
      "name": "Transfer",
      "type": "event"
    },
    {
      "inputs": [
        {
          "internalType": "address",
          "name": "to",
          "type": "address"
        },
        {
          "internalType": "uint256",
          "name": "tokenId",
          "type": "uint256"
        }
      ],
      "name": "approve",
      "outputs": [],
      "stateMutability": "nonpayable",
      "type": "function"
    },
    {
      "inputs": [
        {
          "internalType": "address",
          "name": "owner",
          "type": "address"
        }
      ],
      "name": "balanceOf",
      "outputs": [
        {
          "internalType": "uint256",
          "name": "",
          "type": "uint256"
        }
      ],
      "stateMutability": "view",
      "type": "function"
    },
    {
      "inputs": [
        {
          "internalType": "uint256",
          "name": "tokenId",
          "type": "uint256"
        }
      ],
      "name": "foo",
      "outputs": [],
      "stateMutability": "nonpayable",
      "type": "function"
    },
    {
      "inputs": [
        {
          "internalType": "uint256",
          "name": "tokenId",
          "type": "uint256"
        }
      ],
      "name": "getApproved",
      "outputs": [
        {
          "internalType": "address",
          "name": "",
          "type": "address"
        }
      ],
      "stateMutability": "view",
      "type": "function"
    },
    {
      "inputs": [
        {
          "internalType": "address",
          "name": "owner",
          "type": "address"
        },
        {
          "internalType": "address",
          "name": "operator",
          "type": "address"
        }
      ],
      "name": "isApprovedForAll",
      "outputs": [
        {
          "internalType": "bool",
          "name": "",
          "type": "bool"
        }
      ],
      "stateMutability": "view",
      "type": "function"
    },
    {
      "inputs": [],
      "name": "name",
      "outputs": [
        {
          "internalType": "string",
          "name": "",
          "type": "string"
        }
      ],
      "stateMutability": "view",
      "type": "function"
    },
    {
      "inputs": [
        {
          "internalType": "uint256",
          "name": "tokenId",
          "type": "uint256"
        }
      ],
      "name": "ownerOf",
      "outputs": [
        {
          "internalType": "address",
          "name": "",
          "type": "address"
        }
      ],
      "stateMutability": "view",
      "type": "function"
    },
    {
      "inputs": [
        {
          "internalType": "address",
          "name": "from",
          "type": "address"
        },
        {
          "internalType": "address",
          "name": "to",
          "type": "address"
        },
        {
          "internalType": "uint256",
          "name": "tokenId",
          "type": "uint256"
        }
      ],
      "name": "safeTransferFrom",
      "outputs": [],
      "stateMutability": "nonpayable",
      "type": "function"
    },
    {
      "inputs": [
        {
          "internalType": "address",
          "name": "from",
          "type": "address"
        },
        {
          "internalType": "address",
          "name": "to",
          "type": "address"
        },
        {
          "internalType": "uint256",
          "name": "tokenId",
          "type": "uint256"
        },
        {
          "internalType": "bytes",
          "name": "data",
          "type": "bytes"
        }
      ],
      "name": "safeTransferFrom",
      "outputs": [],
      "stateMutability": "nonpayable",
      "type": "function"
    },
    {
      "inputs": [
        {
          "internalType": "address",
          "name": "operator",
          "type": "address"
        },
        {
          "internalType": "bool",
          "name": "approved",
          "type": "bool"
        }
      ],
      "name": "setApprovalForAll",
      "outputs": [],
      "stateMutability": "nonpayable",
      "type": "function"
    },
    {
      "inputs": [
        {
          "internalType": "bytes4",
          "name": "interfaceId",
          "type": "bytes4"
        }
      ],
      "name": "supportsInterface",
      "outputs": [
        {
          "internalType": "bool",
          "name": "",
          "type": "bool"
        }
      ],
      "stateMutability": "view",
      "type": "function"
    },
    {
      "inputs": [],
      "name": "symbol",
      "outputs": [
        {
          "internalType": "string",
          "name": "",
          "type": "string"
        }
      ],
      "stateMutability": "view",
      "type": "function"
    },
    {
      "inputs": [
        {
          "internalType": "uint256",
          "name": "tokenId",
          "type": "uint256"
        }
      ],
      "name": "tokenURI",
      "outputs": [
        {
          "internalType": "string",
          "name": "",
          "type": "string"
        }
      ],
      "stateMutability": "view",
      "type": "function"
    },
    {
      "inputs": [
        {
          "internalType": "address",
          "name": "from",
          "type": "address"
        },
        {
          "internalType": "address",
          "name": "to",
          "type": "address"
        },
        {
          "internalType": "uint256",
          "name": "tokenId",
          "type": "uint256"
        }
      ],
      "name": "transferFrom",
      "outputs": [],
      "stateMutability": "nonpayable",
      "type": "function"
    }
  ],
  "bytecode": "0x608060405234801561001057600080fd5b5061116e806100206000396000f3fe608060405234801561001057600080fd5b50600436106100ea5760003560e01c80636352211e1161008c578063a22cb46511610066578063a22cb465146101e1578063b88d4fde146101f4578063c87b56dd14610207578063e985e9c51461021a57600080fd5b80636352211e146101a557806370a08231146101b857806395d89b41146101d957600080fd5b8063095ea7b3116100c8578063095ea7b31461015757806323b872dd1461016c5780632fbebd381461017f57806342842e0e1461019257600080fd5b806301ffc9a7146100ef57806306fdde0314610117578063081812fc1461012c575b600080fd5b6101026100fd366004610e95565b610256565b60405190151581526020015b60405180910390f35b61011f6102a8565b60405161010e9190610f7d565b61013f61013a366004610ecd565b61033a565b6040516001600160a01b03909116815260200161010e565b61016a610165366004610e6c565b610361565b005b61016a61017a366004610d22565b61047c565b61016a61018d366004610ecd565b6104ad565b61016a6101a0366004610d22565b6104db565b61013f6101b3366004610ecd565b6104f6565b6101cb6101c6366004610cd6565b610556565b60405190815260200161010e565b61011f6105dc565b61016a6101ef366004610e32565b6105eb565b61016a610202366004610d5d565b6105fa565b61011f610215366004610ecd565b610632565b610102610228366004610cf0565b6001600160a01b039182166000908152606a6020908152604080832093909416825291909152205460ff1690565b60006001600160e01b031982166380ac58cd60e01b148061028757506001600160e01b03198216635b5e139f60e01b145b806102a257506301ffc9a760e01b6001600160e01b03198316145b92915050565b6060606580546102b79061109f565b80601f01602080910402602001604051908101604052809291908181526020018280546102e39061109f565b80156103305780601f1061030557610100808354040283529160200191610330565b820191906000526020600020905b81548152906001019060200180831161031357829003601f168201915b5050505050905090565b6000610345826106a6565b506000908152606960205260409020546001600160a01b031690565b600061036c826104f6565b9050806001600160a01b0316836001600160a01b031614156103df5760405162461bcd60e51b815260206004820152602160248201527f4552433732313a20617070726f76616c20746f2063757272656e74206f776e656044820152603960f91b60648201526084015b60405180910390fd5b336001600160a01b03821614806103fb57506103fb8133610228565b61046d5760405162461bcd60e51b815260206004820152603e60248201527f4552433732313a20617070726f76652063616c6c6572206973206e6f7420746f60448201527f6b656e206f776e6572206e6f7220617070726f76656420666f7220616c6c000060648201526084016103d6565b6104778383610708565b505050565b6104863382610776565b6104a25760405162461bcd60e51b81526004016103d690610fe2565b6104778383836107f5565b60405181907f1176bd96090075e8a903f0c486668395688fc8c045fd7d1d173b9852e4613ca190600090a250565b610477838383604051806020016040528060008152506105fa565b6000818152606760205260408120546001600160a01b0316806102a25760405162461bcd60e51b8152602060048201526018602482015277115490cdcc8c4e881a5b9d985b1a59081d1bdad95b88125160421b60448201526064016103d6565b60006001600160a01b0382166105c05760405162461bcd60e51b815260206004820152602960248201527f4552433732313a2061646472657373207a65726f206973206e6f7420612076616044820152683634b21037bbb732b960b91b60648201526084016103d6565b506001600160a01b031660009081526068602052604090205490565b6060606680546102b79061109f565b6105f6338383610991565b5050565b6106043383610776565b6106205760405162461bcd60e51b81526004016103d690610fe2565b61062c84848484610a60565b50505050565b606061063d826106a6565b600061065460408051602081019091526000815290565b90506000815111610674576040518060200160405280600081525061069f565b8061067e84610a93565b60405160200161068f929190610f11565b6040516020818303038152906040525b9392505050565b6000818152606760205260409020546001600160a01b03166107055760405162461bcd60e51b8152602060048201526018602482015277115490cdcc8c4e881a5b9d985b1a59081d1bdad95b88125160421b60448201526064016103d6565b50565b600081815260696020526040902080546001600160a01b0319166001600160a01b038416908117909155819061073d826104f6565b6001600160a01b03167f8c5be1e5ebec7d5bd14f71427d1e84f3dd0314c0f7b2291e5b200ac8c7c3b92560405160405180910390a45050565b600080610782836104f6565b9050806001600160a01b0316846001600160a01b031614806107c957506001600160a01b038082166000908152606a602090815260408083209388168352929052205460ff165b806107ed5750836001600160a01b03166107e28461033a565b6001600160a01b0316145b949350505050565b826001600160a01b0316610808826104f6565b6001600160a01b03161461086c5760405162461bcd60e51b815260206004820152602560248201527f4552433732313a207472616e736665722066726f6d20696e636f72726563742060448201526437bbb732b960d91b60648201526084016103d6565b6001600160a01b0382166108ce5760405162461bcd60e51b8152602060048201526024808201527f4552433732313a207472616e7366657220746f20746865207a65726f206164646044820152637265737360e01b60648201526084016103d6565b6108d9600082610708565b6001600160a01b038316600090815260686020526040812080546001929061090290849061105c565b90915550506001600160a01b0382166000908152606860205260408120805460019290610930908490611030565b909155505060008181526067602052604080822080546001600160a01b0319166001600160a01b0386811691821790925591518493918716917fddf252ad1be2c89b69c2b068fc378daa952ba7f163c4a11628f55a4df523b3ef91a4505050565b816001600160a01b0316836001600160a01b031614156109f35760405162461bcd60e51b815260206004820152601960248201527f4552433732313a20617070726f766520746f2063616c6c65720000000000000060448201526064016103d6565b6001600160a01b038381166000818152606a6020908152604080832094871680845294825291829020805460ff191686151590811790915591519182527f17307eab39ab6107e8899845ad3d59bd9653f200f220920489ca2b5937696c31910160405180910390a3505050565b610a6b8484846107f5565b610a7784848484610bad565b61062c5760405162461bcd60e51b81526004016103d690610f90565b606081610ab75750506040805180820190915260018152600360fc1b602082015290565b8160005b8115610ae15780610acb816110da565b9150610ada9050600a83611048565b9150610abb565b60008167ffffffffffffffff811115610b0a57634e487b7160e01b600052604160045260246000fd5b6040519080825280601f01601f191660200182016040528015610b34576020820181803683370190505b5090505b84156107ed57610b4960018361105c565b9150610b56600a866110f5565b610b61906030611030565b60f81b818381518110610b8457634e487b7160e01b600052603260045260246000fd5b60200101906001600160f81b031916908160001a905350610ba6600a86611048565b9450610b38565b60006001600160a01b0384163b15610caf57604051630a85bd0160e11b81526001600160a01b0385169063150b7a0290610bf1903390899088908890600401610f40565b602060405180830381600087803b158015610c0b57600080fd5b505af1925050508015610c3b575060408051601f3d908101601f19168201909252610c3891810190610eb1565b60015b610c95573d808015610c69576040519150601f19603f3d011682016040523d82523d6000602084013e610c6e565b606091505b508051610c8d5760405162461bcd60e51b81526004016103d690610f90565b805181602001fd5b6001600160e01b031916630a85bd0160e11b1490506107ed565b506001949350505050565b80356001600160a01b0381168114610cd157600080fd5b919050565b600060208284031215610ce7578081fd5b61069f82610cba565b60008060408385031215610d02578081fd5b610d0b83610cba565b9150610d1960208401610cba565b90509250929050565b600080600060608486031215610d36578081fd5b610d3f84610cba565b9250610d4d60208501610cba565b9150604084013590509250925092565b60008060008060808587031215610d72578081fd5b610d7b85610cba565b9350610d8960208601610cba565b925060408501359150606085013567ffffffffffffffff80821115610dac578283fd5b818701915087601f830112610dbf578283fd5b813581811115610dd157610dd1611135565b604051601f8201601f19908116603f01168101908382118183101715610df957610df9611135565b816040528281528a6020848701011115610e11578586fd5b82602086016020830137918201602001949094529598949750929550505050565b60008060408385031215610e44578182fd5b610e4d83610cba565b915060208301358015158114610e61578182fd5b809150509250929050565b60008060408385031215610e7e578182fd5b610e8783610cba565b946020939093013593505050565b600060208284031215610ea6578081fd5b813561069f8161114b565b600060208284031215610ec2578081fd5b815161069f8161114b565b600060208284031215610ede578081fd5b5035919050565b60008151808452610efd816020860160208601611073565b601f01601f19169290920160200192915050565b60008351610f23818460208801611073565b835190830190610f37818360208801611073565b01949350505050565b6001600160a01b0385811682528416602082015260408101839052608060608201819052600090610f7390830184610ee5565b9695505050505050565b60208152600061069f6020830184610ee5565b60208082526032908201527f4552433732313a207472616e7366657220746f206e6f6e20455243373231526560408201527131b2b4bb32b91034b6b83632b6b2b73a32b960711b606082015260800190565b6020808252602e908201527f4552433732313a2063616c6c6572206973206e6f7420746f6b656e206f776e6560408201526d1c881b9bdc88185c1c1c9bdd995960921b606082015260800190565b6000821982111561104357611043611109565b500190565b6000826110575761105761111f565b500490565b60008282101561106e5761106e611109565b500390565b60005b8381101561108e578181015183820152602001611076565b8381111561062c5750506000910152565b600181811c908216806110b357607f821691505b602082108114156110d457634e487b7160e01b600052602260045260246000fd5b50919050565b60006000198214156110ee576110ee611109565b5060010190565b6000826111045761110461111f565b500690565b634e487b7160e01b600052601160045260246000fd5b634e487b7160e01b600052601260045260246000fd5b634e487b7160e01b600052604160045260246000fd5b6001600160e01b03198116811461070557600080fdfea164736f6c6343000804000a",
  "linkReferences": {},
  "deployedLinkReferences": {}
}