{
  "_format": "hh-sol-artifact-1",
  "contractName": "UNSRegistry",
  "sourceName": "contracts/UNSRegistry.sol",
  "abi": [
    {
      "anonymous": false,
      "inputs": [
        {
          "indexed": false,
          "internalType": "address",
          "name": "previousAdmin",
          "type": "address"
        },
        {
          "indexed": false,
          "internalType": "address",
          "name": "newAdmin",
          "type": "address"
        }
      ],
      "name": "AdminChanged",
      "type": "event"
    },
    {
      "anonymous": false,
      "inputs": [
        {
          "indexed": true,
          "internalType": "address",
          "name": "owner",
          "type": "address"
        },
        {
          "indexed": true,
          "internalType": "address",
          "name": "approved",
          "type": "address"
        },
        {
          "indexed": true,
          "internalType": "uint256",
          "name": "tokenId",
          "type": "uint256"
        }
      ],
      "name": "Approval",
      "type": "event"
    },
    {
      "anonymous": false,
      "inputs": [
        {
          "indexed": true,
          "internalType": "address",
          "name": "owner",
          "type": "address"
        },
        {
          "indexed": true,
          "internalType": "address",
          "name": "operator",
          "type": "address"
        },
        {
          "indexed": false,
          "internalType": "bool",
          "name": "approved",
          "type": "bool"
        }
      ],
      "name": "ApprovalForAll",
      "type": "event"
    },
    {
      "anonymous": false,
      "inputs": [
        {
          "indexed": false,
          "internalType": "uint8",
          "name": "version",
          "type": "uint8"
        }
      ],
      "name": "Initialized",
      "type": "event"
    },
    {
      "anonymous": false,
      "inputs": [
        {
          "indexed": true,
          "internalType": "uint256",
          "name": "tokenId",
          "type": "uint256"
        },
        {
          "indexed": true,
          "internalType": "string",
          "name": "keyIndex",
          "type": "string"
        },
        {
          "indexed": false,
          "internalType": "string",
          "name": "key",
          "type": "string"
        }
      ],
      "name": "NewKey",
      "type": "event"
    },
    {
      "anonymous": false,
      "inputs": [
        {
          "indexed": true,
          "internalType": "uint256",
          "name": "tokenId",
          "type": "uint256"
        },
        {
          "indexed": false,
          "internalType": "string",
          "name": "uri",
          "type": "string"
        }
      ],
      "name": "NewURI",
      "type": "event"
    },
    {
      "anonymous": false,
      "inputs": [
        {
          "indexed": false,
          "internalType": "string",
          "name": "prefix",
          "type": "string"
        }
      ],
      "name": "NewURIPrefix",
      "type": "event"
    },
    {
      "anonymous": false,
      "inputs": [
        {
          "indexed": true,
          "internalType": "address",
          "name": "addr",
          "type": "address"
        }
      ],
      "name": "RemoveReverse",
      "type": "event"
    },
    {
      "anonymous": false,
      "inputs": [
        {
          "indexed": true,
          "internalType": "uint256",
          "name": "tokenId",
          "type": "uint256"
        }
      ],
      "name": "ResetRecords",
      "type": "event"
    },
    {
      "anonymous": false,
      "inputs": [
        {
          "indexed": true,
          "internalType": "uint256",
          "name": "tokenId",
          "type": "uint256"
        },
        {
          "indexed": true,
          "internalType": "string",
          "name": "keyIndex",
          "type": "string"
        },
        {
          "indexed": true,
          "internalType": "string",
          "name": "valueIndex",
          "type": "string"
        },
        {
          "indexed": false,
          "internalType": "string",
          "name": "key",
          "type": "string"
        },
        {
          "indexed": false,
          "internalType": "string",
          "name": "value",
          "type": "string"
        }
      ],
      "name": "Set",
      "type": "event"
    },
    {
      "anonymous": false,
      "inputs": [
        {
          "indexed": true,
          "internalType": "address",
          "name": "addr",
          "type": "address"
        },
        {
          "indexed": true,
          "internalType": "uint256",
          "name": "tokenId",
          "type": "uint256"
        }
      ],
      "name": "SetReverse",
      "type": "event"
    },
    {
      "anonymous": false,
      "inputs": [
        {
          "indexed": true,
          "internalType": "address",
          "name": "from",
          "type": "address"
        },
        {
          "indexed": true,
          "internalType": "address",
          "name": "to",
          "type": "address"
        },
        {
          "indexed": true,
          "internalType": "uint256",
          "name": "tokenId",
          "type": "uint256"
        }
      ],
      "name": "Transfer",
      "type": "event"
    },
    {
      "anonymous": false,
      "inputs": [
        {
          "indexed": true,
          "internalType": "address",
          "name": "implementation",
          "type": "address"
        }
      ],
      "name": "Upgraded",
      "type": "event"
    },
    {
      "inputs": [],
      "name": "BATCH_LIMIT",
      "outputs": [
        {
          "internalType": "uint256",
          "name": "",
          "type": "uint256"
        }
      ],
      "stateMutability": "view",
      "type": "function"
    },
    {
      "inputs": [],
      "name": "NAME",
      "outputs": [
        {
          "internalType": "string",
          "name": "",
          "type": "string"
        }
      ],
      "stateMutability": "view",
      "type": "function"
    },
    {
      "inputs": [],
      "name": "VERSION",
      "outputs": [
        {
          "internalType": "string",
          "name": "",
          "type": "string"
        }
      ],
      "stateMutability": "view",
      "type": "function"
    },
    {
      "inputs": [
        {
          "internalType": "string",
          "name": "key",
          "type": "string"
        }
      ],
      "name": "addKey",
      "outputs": [],
      "stateMutability": "nonpayable",
      "type": "function"
    },
    {
      "inputs": [
        {
          "internalType": "address",
          "name": "addr",
          "type": "address"
        }
      ],
      "name": "addProxyReader",
      "outputs": [],
      "stateMutability": "nonpayable",
      "type": "function"
    },
    {
      "inputs": [
        {
          "internalType": "address",
          "name": "to",
          "type": "address"
        },
        {
          "internalType": "uint256",
          "name": "tokenId",
          "type": "uint256"
        }
      ],
      "name": "approve",
      "outputs": [],
      "stateMutability": "nonpayable",
      "type": "function"
    },
    {
      "inputs": [
        {
          "internalType": "address",
          "name": "owner",
          "type": "address"
        }
      ],
      "name": "balanceOf",
      "outputs": [
        {
          "internalType": "uint256",
          "name": "",
          "type": "uint256"
        }
      ],
      "stateMutability": "view",
      "type": "function"
    },
    {
      "inputs": [
        {
          "internalType": "uint256",
          "name": "tokenId",
          "type": "uint256"
        }
      ],
      "name": "burn",
      "outputs": [],
      "stateMutability": "nonpayable",
      "type": "function"
    },
    {
      "inputs": [],
      "name": "cleanReverseFromUDContracts",
      "outputs": [],
      "stateMutability": "nonpayable",
      "type": "function"
    },
    {
      "inputs": [
        {
          "internalType": "address",
          "name": "user",
          "type": "address"
        },
        {
          "internalType": "bytes",
          "name": "depositData",
          "type": "bytes"
        }
      ],
      "name": "deposit",
      "outputs": [],
      "stateMutability": "nonpayable",
      "type": "function"
    },
    {
      "inputs": [
        {
          "internalType": "uint256",
          "name": "tokenId",
          "type": "uint256"
        }
      ],
      "name": "depositToPolygon",
      "outputs": [],
      "stateMutability": "nonpayable",
      "type": "function"
    },
    {
      "inputs": [
        {
          "components": [
            {
              "internalType": "address",
              "name": "from",
              "type": "address"
            },
            {
              "internalType": "uint256",
              "name": "nonce",
              "type": "uint256"
            },
            {
              "internalType": "uint256",
              "name": "tokenId",
              "type": "uint256"
            },
            {
              "internalType": "bytes",
              "name": "data",
              "type": "bytes"
            }
          ],
          "internalType": "struct IForwarder.ForwardRequest",
          "name": "req",
          "type": "tuple"
        },
        {
          "internalType": "bytes",
          "name": "signature",
          "type": "bytes"
        }
      ],
      "name": "execute",
      "outputs": [
        {
          "internalType": "bytes",
          "name": "",
          "type": "bytes"
        }
      ],
      "stateMutability": "nonpayable",
      "type": "function"
    },
    {
      "inputs": [
        {
          "internalType": "uint256",
          "name": "tokenId",
          "type": "uint256"
        }
      ],
      "name": "exists",
      "outputs": [
        {
          "internalType": "bool",
          "name": "",
          "type": "bool"
        }
      ],
      "stateMutability": "view",
      "type": "function"
    },
    {
      "inputs": [
        {
          "internalType": "string",
          "name": "key",
          "type": "string"
        },
        {
          "internalType": "uint256",
          "name": "tokenId",
          "type": "uint256"
        }
      ],
      "name": "get",
      "outputs": [
        {
          "internalType": "string",
          "name": "value",
          "type": "string"
        }
      ],
      "stateMutability": "view",
      "type": "function"
    },
    {
      "inputs": [
        {
          "internalType": "uint256",
          "name": "tokenId",
          "type": "uint256"
        }
      ],
      "name": "getApproved",
      "outputs": [
        {
          "internalType": "address",
          "name": "",
          "type": "address"
        }
      ],
      "stateMutability": "view",
      "type": "function"
    },
    {
      "inputs": [
        {
          "internalType": "uint256",
          "name": "keyHash",
          "type": "uint256"
        },
        {
          "internalType": "uint256",
          "name": "tokenId",
          "type": "uint256"
        }
      ],
      "name": "getByHash",
      "outputs": [
        {
          "internalType": "string",
          "name": "key",
          "type": "string"
        },
        {
          "internalType": "string",
          "name": "value",
          "type": "string"
        }
      ],
      "stateMutability": "view",
      "type": "function"
    },
    {
      "inputs": [
        {
          "internalType": "uint256",
          "name": "keyHash",
          "type": "uint256"
        }
      ],
      "name": "getKey",
      "outputs": [
        {
          "internalType": "string",
          "name": "",
          "type": "string"
        }
      ],
      "stateMutability": "view",
      "type": "function"
    },
    {
      "inputs": [
        {
          "internalType": "uint256[]",
          "name": "hashes",
          "type": "uint256[]"
        }
      ],
      "name": "getKeys",
      "outputs": [
        {
          "internalType": "string[]",
          "name": "values",
          "type": "string[]"
        }
      ],
      "stateMutability": "view",
      "type": "function"
    },
    {
      "inputs": [
        {
          "internalType": "string[]",
          "name": "keys",
          "type": "string[]"
        },
        {
          "internalType": "uint256",
          "name": "tokenId",
          "type": "uint256"
        }
      ],
      "name": "getMany",
      "outputs": [
        {
          "internalType": "string[]",
          "name": "values",
          "type": "string[]"
        }
      ],
      "stateMutability": "view",
      "type": "function"
    },
    {
      "inputs": [
        {
          "internalType": "uint256[]",
          "name": "keyHashes",
          "type": "uint256[]"
        },
        {
          "internalType": "uint256",
          "name": "tokenId",
          "type": "uint256"
        }
      ],
      "name": "getManyByHash",
      "outputs": [
        {
          "internalType": "string[]",
          "name": "keys",
          "type": "string[]"
        },
        {
          "internalType": "string[]",
          "name": "values",
          "type": "string[]"
        }
      ],
      "stateMutability": "view",
      "type": "function"
    },
    {
      "inputs": [
        {
          "internalType": "address",
          "name": "mintingManager",
          "type": "address"
        },
        {
          "internalType": "address",
          "name": "cnsRegistry",
          "type": "address"
        },
        {
          "internalType": "address",
          "name": "rootChainManager",
          "type": "address"
        },
        {
          "internalType": "address",
          "name": "childChainManager",
          "type": "address"
        }
      ],
      "name": "initialize",
      "outputs": [],
      "stateMutability": "nonpayable",
      "type": "function"
    },
    {
      "inputs": [
        {
          "internalType": "address",
          "name": "owner",
          "type": "address"
        },
        {
          "internalType": "address",
          "name": "operator",
          "type": "address"
        }
      ],
      "name": "isApprovedForAll",
      "outputs": [
        {
          "internalType": "bool",
          "name": "",
          "type": "bool"
        }
      ],
      "stateMutability": "view",
      "type": "function"
    },
    {
      "inputs": [
        {
          "internalType": "address",
          "name": "spender",
          "type": "address"
        },
        {
          "internalType": "uint256",
          "name": "tokenId",
          "type": "uint256"
        }
      ],
      "name": "isApprovedOrOwner",
      "outputs": [
        {
          "internalType": "bool",
          "name": "",
          "type": "bool"
        }
      ],
      "stateMutability": "view",
      "type": "function"
    },
    {
      "inputs": [
        {
          "internalType": "address",
          "name": "forwarder",
          "type": "address"
        }
      ],
      "name": "isTrustedForwarder",
      "outputs": [
        {
          "internalType": "bool",
          "name": "",
          "type": "bool"
        }
      ],
      "stateMutability": "view",
      "type": "function"
    },
    {
      "inputs": [
        {
          "internalType": "address",
          "name": "user",
          "type": "address"
        },
        {
          "internalType": "uint256",
          "name": "tokenId",
          "type": "uint256"
        }
      ],
      "name": "mint",
      "outputs": [],
      "stateMutability": "nonpayable",
      "type": "function"
    },
    {
      "inputs": [
        {
          "internalType": "address",
          "name": "user",
          "type": "address"
        },
        {
          "internalType": "uint256",
          "name": "tokenId",
          "type": "uint256"
        },
        {
          "internalType": "bytes",
          "name": "",
          "type": "bytes"
        }
      ],
      "name": "mint",
      "outputs": [],
      "stateMutability": "nonpayable",
      "type": "function"
    },
    {
      "inputs": [
        {
          "internalType": "uint256",
          "name": "tokenId",
          "type": "uint256"
        },
        {
          "internalType": "string",
          "name": "uri",
          "type": "string"
        }
      ],
      "name": "mintTLD",
      "outputs": [],
      "stateMutability": "nonpayable",
      "type": "function"
    },
    {
      "inputs": [
        {
          "internalType": "address",
          "name": "to",
          "type": "address"
        },
        {
          "internalType": "string[]",
          "name": "labels",
          "type": "string[]"
        },
        {
          "internalType": "string[]",
          "name": "keys",
          "type": "string[]"
        },
        {
          "internalType": "string[]",
          "name": "values",
          "type": "string[]"
        },
        {
          "internalType": "bool",
          "name": "withReverse",
          "type": "bool"
        }
      ],
      "name": "mintWithRecords",
      "outputs": [],
      "stateMutability": "nonpayable",
      "type": "function"
    },
    {
      "inputs": [],
      "name": "name",
      "outputs": [
        {
          "internalType": "string",
          "name": "",
          "type": "string"
        }
      ],
      "stateMutability": "view",
      "type": "function"
    },
    {
      "inputs": [
        {
          "internalType": "string[]",
          "name": "labels",
          "type": "string[]"
        }
      ],
      "name": "namehash",
      "outputs": [
        {
          "internalType": "uint256",
          "name": "",
          "type": "uint256"
        }
      ],
      "stateMutability": "pure",
      "type": "function"
    },
    {
      "inputs": [
        {
          "internalType": "uint256",
          "name": "tokenId",
          "type": "uint256"
        }
      ],
      "name": "nonceOf",
      "outputs": [
        {
          "internalType": "uint256",
          "name": "",
          "type": "uint256"
        }
      ],
      "stateMutability": "view",
      "type": "function"
    },
    {
      "inputs": [
        {
          "internalType": "address",
          "name": "",
          "type": "address"
        },
        {
          "internalType": "address",
          "name": "from",
          "type": "address"
        },
        {
          "internalType": "uint256",
          "name": "tokenId",
          "type": "uint256"
        },
        {
          "internalType": "bytes",
          "name": "data",
          "type": "bytes"
        }
      ],
      "name": "onERC721Received",
      "outputs": [
        {
          "internalType": "bytes4",
          "name": "",
          "type": "bytes4"
        }
      ],
      "stateMutability": "nonpayable",
      "type": "function"
    },
    {
      "inputs": [
        {
          "internalType": "uint256",
          "name": "tokenId",
          "type": "uint256"
        }
      ],
      "name": "ownerOf",
      "outputs": [
        {
          "internalType": "address",
          "name": "",
          "type": "address"
        }
      ],
      "stateMutability": "view",
      "type": "function"
    },
    {
      "inputs": [
        {
          "internalType": "string[]",
          "name": "keys",
          "type": "string[]"
        },
        {
          "internalType": "string[]",
          "name": "values",
          "type": "string[]"
        },
        {
          "internalType": "uint256",
          "name": "tokenId",
          "type": "uint256"
        }
      ],
      "name": "reconfigure",
      "outputs": [],
      "stateMutability": "nonpayable",
      "type": "function"
    },
    {
      "inputs": [],
      "name": "removeReverse",
      "outputs": [],
      "stateMutability": "nonpayable",
      "type": "function"
    },
    {
      "inputs": [
        {
          "internalType": "uint256",
          "name": "tokenId",
          "type": "uint256"
        }
      ],
      "name": "reset",
      "outputs": [],
      "stateMutability": "nonpayable",
      "type": "function"
    },
    {
      "inputs": [
        {
          "internalType": "uint256",
          "name": "tokenId",
          "type": "uint256"
        }
      ],
      "name": "resolverOf",
      "outputs": [
        {
          "internalType": "address",
          "name": "",
          "type": "address"
        }
      ],
      "stateMutability": "view",
      "type": "function"
    },
    {
      "inputs": [
        {
          "internalType": "address",
          "name": "addr",
          "type": "address"
        }
      ],
      "name": "reverseNameOf",
      "outputs": [
        {
          "internalType": "string",
          "name": "reverseUri",
          "type": "string"
        }
      ],
      "stateMutability": "view",
      "type": "function"
    },
    {
      "inputs": [
        {
          "internalType": "address",
          "name": "addr",
          "type": "address"
        }
      ],
      "name": "reverseOf",
      "outputs": [
        {
          "internalType": "uint256",
          "name": "reverse",
          "type": "uint256"
        }
      ],
      "stateMutability": "view",
      "type": "function"
    },
    {
      "inputs": [],
      "name": "root",
      "outputs": [
        {
          "internalType": "uint256",
          "name": "",
          "type": "uint256"
        }
      ],
      "stateMutability": "pure",
      "type": "function"
    },
    {
      "inputs": [
        {
          "internalType": "address",
          "name": "from",
          "type": "address"
        },
        {
          "internalType": "address",
          "name": "to",
          "type": "address"
        },
        {
          "internalType": "uint256",
          "name": "tokenId",
          "type": "uint256"
        }
      ],
      "name": "safeTransferFrom",
      "outputs": [],
      "stateMutability": "nonpayable",
      "type": "function"
    },
    {
      "inputs": [
        {
          "internalType": "address",
          "name": "from",
          "type": "address"
        },
        {
          "internalType": "address",
          "name": "to",
          "type": "address"
        },
        {
          "internalType": "uint256",
          "name": "tokenId",
          "type": "uint256"
        },
        {
          "internalType": "bytes",
          "name": "data",
          "type": "bytes"
        }
      ],
      "name": "safeTransferFrom",
      "outputs": [],
      "stateMutability": "nonpayable",
      "type": "function"
    },
    {
      "inputs": [
        {
          "internalType": "string",
          "name": "key",
          "type": "string"
        },
        {
          "internalType": "string",
          "name": "value",
          "type": "string"
        },
        {
          "internalType": "uint256",
          "name": "tokenId",
          "type": "uint256"
        }
      ],
      "name": "set",
      "outputs": [],
      "stateMutability": "nonpayable",
      "type": "function"
    },
    {
      "inputs": [
        {
          "internalType": "address",
          "name": "operator",
          "type": "address"
        },
        {
          "internalType": "bool",
          "name": "approved",
          "type": "bool"
        }
      ],
      "name": "setApprovalForAll",
      "outputs": [],
      "stateMutability": "nonpayable",
      "type": "function"
    },
    {
      "inputs": [
        {
          "internalType": "uint256",
          "name": "keyHash",
          "type": "uint256"
        },
        {
          "internalType": "string",
          "name": "value",
          "type": "string"
        },
        {
          "internalType": "uint256",
          "name": "tokenId",
          "type": "uint256"
        }
      ],
      "name": "setByHash",
      "outputs": [],
      "stateMutability": "nonpayable",
      "type": "function"
    },
    {
      "inputs": [
        {
          "internalType": "string[]",
          "name": "keys",
          "type": "string[]"
        },
        {
          "internalType": "string[]",
          "name": "values",
          "type": "string[]"
        },
        {
          "internalType": "uint256",
          "name": "tokenId",
          "type": "uint256"
        }
      ],
      "name": "setMany",
      "outputs": [],
      "stateMutability": "nonpayable",
      "type": "function"
    },
    {
      "inputs": [
        {
          "internalType": "uint256[]",
          "name": "keyHashes",
          "type": "uint256[]"
        },
        {
          "internalType": "string[]",
          "name": "values",
          "type": "string[]"
        },
        {
          "internalType": "uint256",
          "name": "tokenId",
          "type": "uint256"
        }
      ],
      "name": "setManyByHash",
      "outputs": [],
      "stateMutability": "nonpayable",
      "type": "function"
    },
    {
      "inputs": [
        {
          "internalType": "address",
          "name": "to",
          "type": "address"
        },
        {
          "internalType": "uint256",
          "name": "tokenId",
          "type": "uint256"
        }
      ],
      "name": "setOwner",
      "outputs": [],
      "stateMutability": "nonpayable",
      "type": "function"
    },
    {
      "inputs": [
        {
          "internalType": "string[]",
          "name": "labels",
          "type": "string[]"
        }
      ],
      "name": "setReverse",
      "outputs": [],
      "stateMutability": "nonpayable",
      "type": "function"
    },
    {
      "inputs": [
        {
          "internalType": "string",
          "name": "prefix",
          "type": "string"
        }
      ],
      "name": "setTokenURIPrefix",
      "outputs": [],
      "stateMutability": "nonpayable",
      "type": "function"
    },
    {
      "inputs": [
        {
          "internalType": "bytes4",
          "name": "interfaceId",
          "type": "bytes4"
        }
      ],
      "name": "supportsInterface",
      "outputs": [
        {
          "internalType": "bool",
          "name": "",
          "type": "bool"
        }
      ],
      "stateMutability": "view",
      "type": "function"
    },
    {
      "inputs": [],
      "name": "symbol",
      "outputs": [
        {
          "internalType": "string",
          "name": "",
          "type": "string"
        }
      ],
      "stateMutability": "view",
      "type": "function"
    },
    {
      "inputs": [
        {
          "internalType": "uint256",
          "name": "tokenId",
          "type": "uint256"
        }
      ],
      "name": "tokenURI",
      "outputs": [
        {
          "internalType": "string",
          "name": "",
          "type": "string"
        }
      ],
      "stateMutability": "view",
      "type": "function"
    },
    {
      "inputs": [
        {
          "internalType": "address",
          "name": "from",
          "type": "address"
        },
        {
          "internalType": "address",
          "name": "to",
          "type": "address"
        },
        {
          "internalType": "uint256",
          "name": "tokenId",
          "type": "uint256"
        }
      ],
      "name": "transferFrom",
      "outputs": [],
      "stateMutability": "nonpayable",
      "type": "function"
    },
    {
      "inputs": [
        {
          "internalType": "address",
          "name": "to",
          "type": "address"
        },
        {
          "internalType": "string[]",
          "name": "labels",
          "type": "string[]"
        },
        {
          "internalType": "string[]",
          "name": "keys",
          "type": "string[]"
        },
        {
          "internalType": "string[]",
          "name": "values",
          "type": "string[]"
        },
        {
          "internalType": "bool",
          "name": "withReverse",
          "type": "bool"
        }
      ],
      "name": "unlockWithRecords",
      "outputs": [],
      "stateMutability": "nonpayable",
      "type": "function"
    },
    {
      "inputs": [
        {
          "components": [
            {
              "internalType": "address",
              "name": "from",
              "type": "address"
            },
            {
              "internalType": "uint256",
              "name": "nonce",
              "type": "uint256"
            },
            {
              "internalType": "uint256",
              "name": "tokenId",
              "type": "uint256"
            },
            {
              "internalType": "bytes",
              "name": "data",
              "type": "bytes"
            }
          ],
          "internalType": "struct IForwarder.ForwardRequest",
          "name": "req",
          "type": "tuple"
        },
        {
          "internalType": "bytes",
          "name": "signature",
          "type": "bytes"
        }
      ],
      "name": "verify",
      "outputs": [
        {
          "internalType": "bool",
          "name": "",
          "type": "bool"
        }
      ],
      "stateMutability": "view",
      "type": "function"
    },
    {
      "inputs": [
        {
          "internalType": "bytes",
          "name": "inputData",
          "type": "bytes"
        },
        {
          "internalType": "uint256",
          "name": "tokenId",
          "type": "uint256"
        },
        {
          "internalType": "string[]",
          "name": "keys",
          "type": "string[]"
        },
        {
          "internalType": "string[]",
          "name": "values",
          "type": "string[]"
        }
      ],
      "name": "withdrawFromPolygon",
      "outputs": [],
      "stateMutability": "nonpayable",
      "type": "function"
    }
  ],
  "bytecode": "0x608060405234801561001057600080fd5b50614d9c806100206000396000f3fe608060405234801561001057600080fd5b50600436106103835760003560e01c806370a08231116101de578063b88d4fde1161010f578063e985e9c5116100ad578063f5c1f76e1161007c578063f5c1f76e14610819578063f7df5c601461082c578063f8c8765e1461083f578063ffa1ad741461085257600080fd5b8063e985e9c5146107bb578063ebf0c717146107f7578063ec129eea146107fe578063f25eb5c11461081157600080fd5b8063bebec6b4116100e9578063bebec6b41461076f578063c87b56dd14610782578063ce92b33e14610795578063cf2c52cb146107a857600080fd5b8063b88d4fde14610736578063ba5d40b714610749578063bb5b27e11461075c57600080fd5b8063a22cb4651161017c578063ab0dff6111610156578063ab0dff61146106e7578063ab3b87fe146106ef578063b3f9e4cb14610702578063b85afd281461071557600080fd5b8063a22cb46514610695578063a3f4df7e146106a8578063a4247400146106d457600080fd5b80639508b1c4116101b85780639508b1c41461065f5780639559c0bd1461067257806395d89b411461067a57806399e0dd7c1461068257600080fd5b806370a08231146106265780637e37479e1461063957806394d008ef1461064c57600080fd5b806342842e0e116102b85780635096023911610256578063638e5c7811610230578063638e5c78146105be578063663f7b2a146105d1578063672b9f81146105e45780636ccbae5f1461060557600080fd5b8063509602391461057c578063572b6c051461058f5780636352211e146105ab57600080fd5b806347c816991161029257806347c81699146105305780634a72584d146105435780634f558e791461055657806350382c1a1461056957600080fd5b806342842e0e146104f757806342966c681461050a578063430c20811461051d57600080fd5b80631bf7e13e11610325578063276fabb1116102ff578063276fabb11461049d57806327f18975146104be578063310bd74b146104d157806340c10f19146104e457600080fd5b80631bf7e13e146104645780631f71be061461047757806323b872dd1461048a57600080fd5b8063095ea7b311610361578063095ea7b3146103f0578063150b7a02146104055780631bd8cc1a146104315780631be5e7ed1461045157600080fd5b806301ffc9a71461038857806306fdde03146103b0578063081812fc146103c5575b600080fd5b61039b61039636600461441b565b610876565b60405190151581526020015b60405180910390f35b6103b8610887565b6040516103a79190614945565b6103d86103d3366004614649565b610919565b6040516001600160a01b0390911681526020016103a7565b6104036103fe366004614196565b610940565b005b610418610413366004613f88565b610959565b6040516001600160e01b031990911681526020016103a7565b61044461043f3660046142c9565b610ab4565b6040516103a791906148e0565b6103b861045f366004614583565b610bd4565b6103b86104723660046145ea565b610c1f565b610403610485366004614061565b610d2a565b610403610498366004613f48565b610dd1565b6104b06104ab36600461421a565b610e24565b6040519081526020016103a7565b6104036104cc366004614259565b610e33565b6104036104df366004614649565b610e7b565b6104036104f2366004614196565b610eb6565b610403610505366004613f48565b610f03565b610403610518366004614649565b610f1e565b61039b61052b366004614196565b610f62565b61040361053e366004614525565b610f6e565b610403610551366004614691565b610fad565b61039b610564366004614649565b610ff3565b6104036105773660046145b8565b611012565b61040361058a366004613e7d565b611048565b61039b61059d366004613e7d565b6001600160a01b0316301490565b6103d86105b9366004614649565b6110a8565b6104036105cc366004614649565b611108565b6104036105df366004614312565b611153565b6105f76105f23660046146e1565b61118c565b6040516103a7929190614958565b6104b0610613366004614649565b6000908152610100602052604090205490565b6104b0610634366004613e7d565b6111a4565b6104b0610647366004613e7d565b61122a565b61040361065a3660046141c1565b61125b565b61040361066d366004614453565b6112aa565b6104b0601481565b6103b8611331565b6104036106903660046144f2565b611340565b6104036106a3366004614119565b6113c6565b6103b86040518060400160405280600d81526020016c554e533a20526567697374727960981b81525081565b61039b6106e23660046145ea565b6113d8565b610403611423565b6104036106fd366004614196565b6114c5565b6103d8610710366004614649565b61150a565b6107286107233660046142c9565b611534565b6040516103a79291906148f3565b610403610744366004613ff8565b61169c565b610403610757366004614061565b6116e3565b6103b861076a366004614649565b611754565b6103b861077d366004613e7d565b6117f6565b6103b8610790366004614649565b6118c0565b6104036107a3366004614259565b611926565b6104036107b6366004614144565b611965565b61039b6107c9366004613eb5565b6001600160a01b039182166000908152606a6020908152604080832093909416825291909152205460ff1690565b60006104b0565b61040361080c366004614259565b611a42565b610403611a81565b61044461082736600461421a565b611b07565b61040361083a366004614661565b611be4565b61040361084d366004613eed565b611c75565b6103b86040518060400160405280600581526020016418171b971960d91b81525081565b600061088182611e4b565b92915050565b60606065805461089690614c9e565b80601f01602080910402602001604051908101604052809291908181526020018280546108c290614c9e565b801561090f5780601f106108e45761010080835404028352916020019161090f565b820191906000526020600020905b8154815290600101906020018083116108f257829003601f168201915b5050505050905090565b600061092482611e9b565b506000908152606960205260409020546001600160a01b031690565b8061094a81611efa565b6109548383611f61565b505050565b60007f8ffb960699dc2ba88f34d0e41c029c3c36c95149679fe1d0153a9582bec92378546001600160a01b031661098e612084565b6001600160a01b03161415610a50576109a5612084565b6001600160a01b03166342966c68856040518263ffffffff1660e01b81526004016109d291815260200190565b600060405180830381600087803b1580156109ec57600080fd5b505af1158015610a00573d6000803e3d6000fd5b505050821580159150610a1a5750610a1a828401846143e9565b15610a3857610a293085612093565b610a3385856121e1565b610a42565b610a428585612093565b50630a85bd0160e11b610aab565b60405162461bcd60e51b815260206004820152602560248201527f52656769737472793a204552433732315f524543454956494e475f50524f4849604482015264109255115160da1b60648201526084015b60405180910390fd5b95945050505050565b6060826001600160401b03811115610adc57634e487b7160e01b600052604160045260246000fd5b604051908082528060200260200182016040528015610b0f57816020015b6060815260200190600190039081610afa5790505b50905060005b83811015610bcc57610b8e858583818110610b4057634e487b7160e01b600052603260045260246000fd5b9050602002810190610b529190614aec565b8080601f01602080910402602001604051908101604052809392919081815260200183838082843760009201919091525087925061228c915050565b828281518110610bae57634e487b7160e01b600052603260045260246000fd5b60200260200101819052508080610bc490614cd3565b915050610b15565b509392505050565b6060610c1784848080601f01602080910402602001604051908101604052809392919081815260200183838082843760009201919091525086925061228c915050565b949350505050565b606060005a9050610c318585856113d8565b610c8d5760405162461bcd60e51b815260206004820152602760248201527f554e535265676973747279466f727761726465723a205349474e41545552455f6044820152661253959053125160ca1b6064820152608401610aa2565b610d1f610c9d6020870187613e7d565b30604088013584610cb160608b018b614aec565b8080601f01602080910402602001604051908101604052809392919081815260200183838082843760009201919091525050604080516020601f8e018190048102820181019092528c815292508c91508b90819084018382808284376000920191909152506122c192505050565b9150505b9392505050565b610134546001600160a01b0316610d3f612084565b6001600160a01b031614610d655760405162461bcd60e51b8152600401610aa290614a18565b6000610d79610d74888a614bc6565b6123b0565b9050610d848161240d565b610d97610d90826110a8565b8a8361247a565b610da48686868685612621565b8115610dc657610dc68982610dc1610dbc8b8d614bc6565b6126ab565b612748565b505050505050505050565b80610de3610ddd612084565b8261278a565b610dff5760405162461bcd60e51b8152600401610aa29061497d565b81610e0981611efa565b610e128361240d565b610e1d85858561247a565b5050505050565b6000610d23610d748385614bc6565b80610e3f610ddd612084565b610e5b5760405162461bcd60e51b8152600401610aa29061497d565b81610e6581611efa565b610e728787878787612808565b50505050505050565b80610e87610ddd612084565b610ea35760405162461bcd60e51b8152600401610aa29061497d565b81610ead81611efa565b6109548361240d565b610ebe612887565b6001600160a01b0316610ecf612084565b6001600160a01b031614610ef55760405162461bcd60e51b8152600401610aa290614aaa565b610eff8282612093565b5050565b6109548383836040518060200160405280600081525061169c565b80610f2a610ddd612084565b610f465760405162461bcd60e51b8152600401610aa29061497d565b81610f5081611efa565b610f598361240d565b6109548361299a565b6000610d23838361278a565b80610f7a610ddd612084565b610f965760405162461bcd60e51b8152600401610aa29061497d565b81610fa081611efa565b610e728787878787612a41565b80610fb9610ddd612084565b610fd55760405162461bcd60e51b8152600401610aa29061497d565b81610fdf81611efa565b610feb86868686612b20565b505050505050565b6000818152606760205260408120546001600160a01b03161515610881565b6110458160405160200161102691906147ab565b6040516020818303038152906040528051906020012060001c82612bc0565b50565b610134546001600160a01b031661105d612084565b6001600160a01b0316146110835760405162461bcd60e51b8152600401610aa290614a18565b6001600160a01b0316600090815261013660205260409020805460ff19166001179055565b6000818152606760205260408120546001600160a01b0316806108815760405162461bcd60e51b8152602060048201526018602482015277115490cdcc8c4e881a5b9d985b1a59081d1bdad95b88125160421b6044820152606401610aa2565b80611114610ddd612084565b6111305760405162461bcd60e51b8152600401610aa29061497d565b61114261113b612084565b308461247a565b610eff61114d612084565b836121e1565b600061115e826123b0565b905061116981612bec565b61117281611efa565b610eff61117d612084565b82611187856126ab565b612c5c565b6060806111998484612ce9565b909590945092505050565b60006001600160a01b03821661120e5760405162461bcd60e51b815260206004820152602960248201527f4552433732313a2061646472657373207a65726f206973206e6f7420612076616044820152683634b21037bbb732b960b91b6064820152608401610aa2565b506001600160a01b031660009081526068602052604090205490565b6001600160a01b0381166000908152610135602052604081205461124d81612d0a565b611255578091505b50919050565b611263612887565b6001600160a01b0316611274612084565b6001600160a01b03161461129a5760405162461bcd60e51b8152600401610aa290614aaa565b6112a48484612093565b50505050565b6112b48787612d54565b6112bc612084565b6001600160a01b03166112ce866110a8565b6001600160a01b0316146113245760405162461bcd60e51b815260206004820152601d60248201527f52656769737472793a2053454e4445525f49535f4e4f545f4f574e45520000006044820152606401610aa2565b610e728484848489612621565b60606066805461089690614c9e565b610134546001600160a01b0316611355612084565b6001600160a01b03161461137b5760405162461bcd60e51b8152600401610aa290614a18565b6113886101338383613bf5565b507f4b120d6a959a84a520fa48f5f937cca0e79129423487af7901213b5d2e89313b82826040516113ba929190614931565b60405180910390a15050565b610eff6113d1612084565b8383612dc3565b6000610c176113e685614bd3565b3085858080601f016020809104026020016040519081016040528093929190818152602001838380828437600092019190915250612e9292505050565b6040805160608101825273a9a6a3626993d487d2dbda3173cf58ca1a9d9e9f815273049aba7510f45ba5b64ea9e658e342f904db358d602082015273d1e5b0ff1287aa9f9a268759062e4ab08b9dacbe9181019190915260005b6003811015610eff576114b38282600381106114a957634e487b7160e01b600052603260045260246000fd5b6020020151612fea565b806114bd81614cd3565b91505061147d565b806114d1610ddd612084565b6114ed5760405162461bcd60e51b8152600401610aa29061497d565b816114f781611efa565b6112a4611503846110a8565b858561247a565b6000818152606760205260408120546001600160a01b031661152d576000610881565b3092915050565b606080836001600160401b0381111561155d57634e487b7160e01b600052604160045260246000fd5b60405190808252806020026020018201604052801561159057816020015b606081526020019060019003908161157b5790505b509150836001600160401b038111156115b957634e487b7160e01b600052604160045260246000fd5b6040519080825280602002602001820160405280156115ec57816020015b60608152602001906001900390816115d75790505b50905060005b848110156116935761162a86868381811061161d57634e487b7160e01b600052603260045260246000fd5b9050602002013585612ce9565b84838151811061164a57634e487b7160e01b600052603260045260246000fd5b6020026020010184848151811061167157634e487b7160e01b600052603260045260246000fd5b602002602001018290528290525050808061168b90614cd3565b9150506115f2565b50935093915050565b816116a8610ddd612084565b6116c45760405162461bcd60e51b8152600401610aa29061497d565b826116ce81611efa565b6116d78461240d565b610feb8686868661302f565b610134546001600160a01b03166116f8612084565b6001600160a01b03161461171e5760405162461bcd60e51b8152600401610aa290614a18565b600061172d610d74888a614bc6565b90506117478982611741610dbc8b8d614bc6565b85613062565b610dc68686868685612621565b600081815260c96020526040902080546060919061177190614c9e565b80601f016020809104026020016040519081016040528092919081815260200182805461179d90614c9e565b80156117ea5780601f106117bf576101008083540402835291602001916117ea565b820191906000526020600020905b8154815290600101906020018083116117cd57829003601f168201915b50505050509050919050565b6001600160a01b0381166000908152610135602052604090205460609061181c81612d0a565b61125557600081815261013860205260409020805461183a90614c9e565b80601f016020809104026020016040519081016040528092919081815260200182805461186690614c9e565b80156118b35780601f10611888576101008083540402835291602001916118b3565b820191906000526020600020905b81548152906001019060200180831161189657829003601f168201915b5050505050915050919050565b60606118cb82611e9b565b60006118d56130b5565b905060008151116118f55760405180602001604052806000815250610d23565b806118ff846130c5565b604051602001611910929190614852565b6040516020818303038152906040529392505050565b80611932610ddd612084565b61194e5760405162461bcd60e51b8152600401610aa29061497d565b8161195881611efa565b610e728787878787612621565b7f8bea9a6f8afd34f4e29c585f854e0cc5161431bf5fc299d468454d33dce53b87546001600160a01b0316611998612084565b6001600160a01b0316146119be5760405162461bcd60e51b8152600401610aa290614aaa565b60208114156119e15760006119d582840184614649565b90506112a48482612093565b60006119ef82840184614357565b805190915060005b81811015610feb57611a3086848381518110611a2357634e487b7160e01b600052603260045260246000fd5b6020026020010151612093565b80611a3a81614cd3565b9150506119f7565b80611a4e610ddd612084565b611a6a5760405162461bcd60e51b8152600401610aa29061497d565b81611a7481611efa565b610e7287878787876131de565b6000611a8b612084565b6001600160a01b03811660009081526101356020526040902054909150611afe5760405162461bcd60e51b815260206004820152602160248201527f52656769737472793a20524556455253455f5245434f52445f49535f454d50546044820152605960f81b6064820152608401610aa2565b61104581612fea565b6060816001600160401b03811115611b2f57634e487b7160e01b600052604160045260246000fd5b604051908082528060200260200182016040528015611b6257816020015b6060815260200190600190039081611b4d5790505b50905060005b82811015611bdd57611b9f848483818110611b9357634e487b7160e01b600052603260045260246000fd5b90506020020135611754565b828281518110611bbf57634e487b7160e01b600052603260045260246000fd5b60200260200101819052508080611bd590614cd3565b915050611b68565b5092915050565b610134546001600160a01b0316611bf9612084565b6001600160a01b031614611c1f5760405162461bcd60e51b8152600401610aa290614a18565b61013454611c36906001600160a01b031684612093565b827fc5beef08f693b11c316c0c8394a377a0033c9cf701b8cd8afd79cecef60c39528383604051611c68929190614931565b60405180910390a2505050565b600054610100900460ff1615808015611c955750600054600160ff909116105b80611caf5750303b158015611caf575060005460ff166001145b611d125760405162461bcd60e51b815260206004820152602e60248201527f496e697469616c697a61626c653a20636f6e747261637420697320616c72656160448201526d191e481a5b9a5d1a585b1a5e995960921b6064820152608401610aa2565b6000805460ff191660011790558015611d35576000805461ff0019166101001790555b61013480546001600160a01b0319166001600160a01b038716179055837f8ffb960699dc2ba88f34d0e41c029c3c36c95149679fe1d0153a9582bec9237880546001600160a01b0319166001600160a01b03929092169190911790556040805180820182526013815272556e73746f707061626c6520446f6d61696e7360681b60208083019190915282518084019093526002835261155160f21b90830152611ddd916131f4565b611de5613242565b611ded613242565b611df68361326b565b611dff8261329b565b8015610e1d576000805461ff0019169055604051600181527f7f26b83ff96e1f2b6a682f133852f6798a09c465da95921460cefb38474024989060200160405180910390a15050505050565b60006001600160e01b031982166380ac58cd60e01b1480611e7c57506001600160e01b03198216635b5e139f60e01b145b8061088157506301ffc9a760e01b6001600160e01b0319831614610881565b6000818152606760205260409020546001600160a01b03166110455760405162461bcd60e51b8152602060048201526018602482015277115490cdcc8c4e881a5b9d985b1a59081d1bdad95b88125160421b6044820152606401610aa2565b30331415611f5857611f0a6132cb565b81146110455760405162461bcd60e51b815260206004820152601760248201527f52656769737472793a20544f4b454e5f494e56414c49440000000000000000006044820152606401610aa2565b611045816132e0565b6000611f6c826110a8565b9050806001600160a01b0316836001600160a01b03161415611fda5760405162461bcd60e51b815260206004820152602160248201527f4552433732313a20617070726f76616c20746f2063757272656e74206f776e656044820152603960f91b6064820152608401610aa2565b806001600160a01b0316611fec612084565b6001600160a01b031614806120085750612008816107c9612084565b61207a5760405162461bcd60e51b815260206004820152603e60248201527f4552433732313a20617070726f76652063616c6c6572206973206e6f7420746f60448201527f6b656e206f776e6572206e6f7220617070726f76656420666f7220616c6c00006064820152608401610aa2565b610954838361330e565b600061208e61337c565b905090565b6001600160a01b0382166120e95760405162461bcd60e51b815260206004820181905260248201527f4552433732313a206d696e7420746f20746865207a65726f20616464726573736044820152606401610aa2565b6000818152606760205260409020546001600160a01b03161561214e5760405162461bcd60e51b815260206004820152601c60248201527f4552433732313a20746f6b656e20616c7265616479206d696e746564000000006044820152606401610aa2565b61215a60008383613398565b6001600160a01b0382166000908152606860205260408120805460019290612183908490614b83565b909155505060008181526067602052604080822080546001600160a01b0319166001600160a01b03861690811790915590518392907fddf252ad1be2c89b69c2b068fc378daa952ba7f163c4a11628f55a4df523b3ef908290a45050565b60006121eb612887565b90506121f7818361330e565b600080516020614d7083398151915254604080516020808201869052825180830390910181528183019283905263e3dec8fb60e01b9092526001600160a01b0390921691829163e3dec8fb91612254918891309190604401614881565b600060405180830381600087803b15801561226e57600080fd5b505af1158015612282573d6000803e3d6000fd5b5050505050505050565b6060610d23836040516020016122a291906147ab565b6040516020818303038152906040528051906020012060001c83613435565b60606122cc856132e0565b600080876001600160a01b0316866122e68b8a8989613517565b6040516122f391906147ab565b60006040518083038160008787f1925050503d8060008114612331576040519150601f19603f3d011682016040523d82523d6000602084013e612336565b606091505b509092509050612347603f87614b9b565b5a1161236357634e487b7160e01b600052600160045260246000fd5b6123a382826040518060400160405280601a81526020017f42617365466f727761726465723a2043414c4c5f4641494c4544000000000000815250613547565b9998505050505050505050565b805160009081905b8015611bdd576123f982856123ce600185614baf565b815181106123ec57634e487b7160e01b600052603260045260246000fd5b6020026020010151613580565b91508061240581614c87565b9150506123b8565b6124168161362d565b60405160200161242891815260200190565b60408051601f198184030181528282528051602091820120600085815260cb9092529181209190915582917f185c30856dadb58bf097c1f665a52ada7029752dbcad008ea3fefc73bee8c9fe9190a250565b826001600160a01b031661248d826110a8565b6001600160a01b0316146124f15760405162461bcd60e51b815260206004820152602560248201527f4552433732313a207472616e736665722066726f6d20696e636f72726563742060448201526437bbb732b960d91b6064820152608401610aa2565b6001600160a01b0382166125535760405162461bcd60e51b8152602060048201526024808201527f4552433732313a207472616e7366657220746f20746865207a65726f206164646044820152637265737360e01b6064820152608401610aa2565b61255e838383613398565b61256960008261330e565b6001600160a01b0383166000908152606860205260408120805460019290612592908490614baf565b90915550506001600160a01b03821660009081526068602052604081208054600192906125c0908490614b83565b909155505060008181526067602052604080822080546001600160a01b0319166001600160a01b0386811691821790925591518493918716917fddf252ad1be2c89b69c2b068fc378daa952ba7f163c4a11628f55a4df523b3ef91a4505050565b60005b84811015610feb5761269986868381811061264f57634e487b7160e01b600052603260045260246000fd5b90506020028101906126619190614aec565b86868581811061268157634e487b7160e01b600052603260045260246000fd5b90506020028101906126939190614aec565b86612a41565b806126a381614cd3565b915050612624565b60606000826000815181106126d057634e487b7160e01b600052603260045260246000fd5b602002602001015190506000600190505b8351811015611bdd578184828151811061270b57634e487b7160e01b600052603260045260246000fd5b6020026020010151604051602001612724929190614806565b6040516020818303038152906040529150808061274090614cd3565b9150506126e1565b61dead6001600160a01b0384161480159061277a57506001600160a01b03831660009081526101356020526040902054155b1561095457610954838383612c5c565b600080612796836110a8565b9050806001600160a01b0316846001600160a01b031614806127dd57506001600160a01b038082166000908152606a602090815260408083209388168352929052205460ff165b80610c175750836001600160a01b03166127f684610919565b6001600160a01b031614949350505050565b60005b84811015610feb5761287586868381811061283657634e487b7160e01b600052603260045260246000fd5b9050602002013585858481811061285d57634e487b7160e01b600052603260045260246000fd5b905060200281019061286f9190614aec565b85612b20565b8061287f81614cd3565b91505061280b565b600080600080516020614d708339815191525460405163721804d360e11b81523060048201526001600160a01b039091169150600090829063e43009a69060240160206040518083038186803b1580156128e057600080fd5b505afa1580156128f4573d6000803e3d6000fd5b505050506040513d601f19601f820116820180604052508101906129189190614403565b60405163e66f960360e01b8152600481018290529091506001600160a01b0383169063e66f96039060240160206040518083038186803b15801561295b57600080fd5b505afa15801561296f573d6000803e3d6000fd5b505050506040513d601f19601f820116820180604052508101906129939190613e99565b9250505090565b60006129a5826110a8565b90506129b381600084613398565b6129be60008361330e565b6001600160a01b03811660009081526068602052604081208054600192906129e7908490614baf565b909155505060008281526067602052604080822080546001600160a01b0319169055518391906001600160a01b038416907fddf252ad1be2c89b69c2b068fc378daa952ba7f163c4a11628f55a4df523b3ef908390a45050565b60008585604051602001612a56929190614842565b60408051601f198184030181528282528051602091820120601f8901829004820284018201909252878352909250612aaa9183918990899081908401838280828437600092019190915250612bc092505050565b610feb8187878080601f01602080910402602001604051908101604052809392919081815260200183838082843760009201919091525050604080516020601f8b018190048102820181019092528981529250899150889081908401838280828437600092019190915250889250613659915050565b612b2984613794565b612b755760405162461bcd60e51b815260206004820152601c60248201527f5265636f726453746f726167653a204b45595f4e4f545f464f554e44000000006044820152606401610aa2565b6112a484612b8286611754565b85858080601f016020809104026020016040519081016040528093929190818152602001838380828437600092019190915250879250613659915050565b612bc982613794565b610eff57600082815260c960209081526040909120825161095492840190613c75565b612bf4612084565b6001600160a01b0316612c06826110a8565b6001600160a01b0316146110455760405162461bcd60e51b815260206004820152601d60248201527f52656769737472793a2053454e4445525f49535f4e4f545f4f574e45520000006044820152606401610aa2565b6000828152610138602052604090208054612c7690614c9e565b15159050612ca0576000828152610138602090815260409091208251612c9e92840190613c75565b505b6001600160a01b03831660008181526101356020526040808220859055518492917feb76a21470988c474a21f690cc28fee1ed511bd812dc3c21fd0f49c5e5d4708a91a3505050565b606080612cf584611754565b9150612d018484613435565b90509250929050565b6000818152610137602052604081205460ff16801561088157506101366000612d31612084565b6001600160a01b0316815260208101919091526040016000205460ff1692915050565b600080516020614d7083398151915254604051633805550f60e01b81526001600160a01b03909116908190633805550f90612d959086908690600401614931565b600060405180830381600087803b158015612daf57600080fd5b505af1158015610e72573d6000803e3d6000fd5b816001600160a01b0316836001600160a01b03161415612e255760405162461bcd60e51b815260206004820152601960248201527f4552433732313a20617070726f766520746f2063616c6c6572000000000000006044820152606401610aa2565b6001600160a01b038381166000818152606a6020908152604080832094871680845294825291829020805460ff191686151590811790915591519182527f17307eab39ab6107e8899845ad3d59bd9653f200f220920489ca2b5937696c31910160405180910390a3505050565b6040838101519051636ccbae5f60e01b8152600481019190915260009081903090636ccbae5f9060240160206040518083038186803b158015612ed457600080fd5b505afa158015612ee8573d6000803e3d6000fd5b505050506040513d601f19601f82011682018060405250810190612f0c9190614403565b90506000612fba866060015180519060200120868860200151604051602001612f5a9392919092835260609190911b6bffffffffffffffffffffffff19166020830152603482015260540190565b60408051601f1981840301815282825280516020918201207f19457468657265756d205369676e6564204d6573736167653a0a33320000000084830152603c8085019190915282518085039091018152605c909301909152815191012090565b9050818660200151148015612fe057508551612fe0906001600160a01b031682866137ba565b9695505050505050565b6001600160a01b03811660008181526101356020526040808220829055517ffcf5eec0cfa3e6332f5f0e63ec242d71f866a61d121d6cdf5c2eb3b668a26c4f9190a250565b61303a84848461247a565b6130468484848461390a565b6112a45760405162461bcd60e51b8152600401610aa2906149c6565b61306c8484612093565b827fc5beef08f693b11c316c0c8394a377a0033c9cf701b8cd8afd79cecef60c39528360405161309c9190614945565b60405180910390a280156112a4576112a4848484612748565b6060610133805461089690614c9e565b6060816130e95750506040805180820190915260018152600360fc1b602082015290565b8160005b811561311357806130fd81614cd3565b915061310c9050600a83614b9b565b91506130ed565b6000816001600160401b0381111561313b57634e487b7160e01b600052604160045260246000fd5b6040519080825280601f01601f191660200182016040528015613165576020820181803683370190505b5090505b8415610c175761317a600183614baf565b9150613187600a86614cee565b613192906030614b83565b60f81b8183815181106131b557634e487b7160e01b600052603260045260246000fd5b60200101906001600160f81b031916908160001a9053506131d7600a86614b9b565b9450613169565b6131e78161240d565b610e1d8585858585612621565b600054610100900460ff1661321b5760405162461bcd60e51b8152600401610aa290614a5f565b815161322e906065906020850190613c75565b508051610954906066906020840190613c75565b600054610100900460ff166132695760405162461bcd60e51b8152600401610aa290614a5f565b565b600054610100900460ff166132925760405162461bcd60e51b8152600401610aa290614a5f565b61104581613a1b565b600054610100900460ff166132c25760405162461bcd60e51b8152600401610aa290614a5f565b61104581613a74565b6000303314156132dd5750601f193601355b90565b600081815261010060205260409020546132fb906001614b83565b6000918252610100602052604090912055565b600081815260696020526040902080546001600160a01b0319166001600160a01b0384169081179091558190613343826110a8565b6001600160a01b03167f8c5be1e5ebec7d5bd14f71427d1e84f3dd0314c0f7b2291e5b200ac8c7c3b92560405160405180910390a45050565b600030331415613393575060331936013560601c90565b503390565b6000818152610137602052604090205460ff1615806133bf57506001600160a01b03821615155b61340b5760405162461bcd60e51b815260206004820152601860248201527f52656769737472793a20544f4b454e5f555047524144454400000000000000006044820152606401610aa2565b6001600160a01b038316600090815261013560205260409020548114156109545761095483612fea565b606061344082612d0a565b1561345a5750604080516020810190915260008152610881565b60ca60006134678461362d565b81526020019081526020016000206000848152602001908152602001600020805461349190614c9e565b80601f01602080910402602001604051908101604052809291908181526020018280546134bd90614c9e565b801561350a5780601f106134df5761010080835404028352916020019161350a565b820191906000526020600020905b8154815290600101906020018083116134ed57829003601f168201915b5050505050905092915050565b606082858560405160200161352e939291906147c7565b6040516020818303038152906040529050949350505050565b60608315613556575081610d23565b8251156135665782518084602001fd5b8160405162461bcd60e51b8152600401610aa29190614945565b60008151600014156135cc5760405162461bcd60e51b815260206004820152601560248201527452656769737472793a204c4142454c5f454d50545960581b6044820152606401610aa2565b82826040516020016135de91906147ab565b6040516020818303038152906040528051906020012060405160200161360e929190918252602082015260400190565b60408051601f1981840301815291905280516020909101209392505050565b600081815260cb60205260408120541561365557600082815260cb6020526040902054610881565b5090565b60ca60006136668361362d565b81526020019081526020016000206000858152602001908152602001600020805461369090614c9e565b151590506136e757826040516136a691906147ab565b6040518091039020817f7ae4f661958fbecc2f77be6b0eb280d2a6f604b29e1e7221c82b9da0c4af7f86856040516136de9190614945565b60405180910390a35b8160ca60006136f58461362d565b815260200190815260200160002060008681526020019081526020016000209080519060200190613727929190613c75565b508160405161373691906147ab565b60405180910390208360405161374c91906147ab565b6040518091039020827f851ffe8e74d5015261dba0a1f9e1b0e5d42c5af5d2ad1908fee897c7d80a0d928686604051613786929190614958565b60405180910390a450505050565b600081815260c96020526040812080548291906137b090614c9e565b9050119050919050565b60008060006137c98585613ac2565b909250905060008160048111156137f057634e487b7160e01b600052602160045260246000fd5b14801561380e5750856001600160a01b0316826001600160a01b0316145b1561381e57600192505050610d23565b600080876001600160a01b0316631626ba7e60e01b8888604051602401613846929190614918565b60408051601f198184030181529181526020820180516001600160e01b03166001600160e01b031990941693909317909252905161388491906147ab565b600060405180830381855afa9150503d80600081146138bf576040519150601f19603f3d011682016040523d82523d6000602084013e6138c4565b606091505b50915091508180156138d7575080516020145b80156138fe57508051630b135d3f60e11b906138fc9083016020908101908401614403565b145b98975050505050505050565b60006001600160a01b0384163b15613a1357836001600160a01b031663150b7a02613933612084565b8786866040518563ffffffff1660e01b815260040161395594939291906148ad565b602060405180830381600087803b15801561396f57600080fd5b505af192505050801561399f575060408051601f3d908101601f1916820190925261399c91810190614437565b60015b6139f9573d8080156139cd576040519150601f19603f3d011682016040523d82523d6000602084013e6139d2565b606091505b5080516139f15760405162461bcd60e51b8152600401610aa2906149c6565b805181602001fd5b6001600160e01b031916630a85bd0160e11b149050610c17565b506001610c17565b600054610100900460ff16613a425760405162461bcd60e51b8152600401610aa290614a5f565b80600080516020614d708339815191525b80546001600160a01b0319166001600160a01b039290921691909117905550565b600054610100900460ff16613a9b5760405162461bcd60e51b8152600401610aa290614a5f565b807f8bea9a6f8afd34f4e29c585f854e0cc5161431bf5fc299d468454d33dce53b87613a53565b600080825160411415613af95760208301516040840151606085015160001a613aed87828585613b08565b94509450505050613b01565b506000905060025b9250929050565b6000807f7fffffffffffffffffffffffffffffff5d576e7357a4501ddfe92f46681b20a0831115613b3f5750600090506003613bec565b8460ff16601b14158015613b5757508460ff16601c14155b15613b685750600090506004613bec565b6040805160008082526020820180845289905260ff881692820192909252606081018690526080810185905260019060a0016020604051602081039080840390855afa158015613bbc573d6000803e3d6000fd5b5050604051601f1901519150506001600160a01b038116613be557600060019250925050613bec565b9150600090505b94509492505050565b828054613c0190614c9e565b90600052602060002090601f016020900481019282613c235760008555613c69565b82601f10613c3c5782800160ff19823516178555613c69565b82800160010185558215613c69579182015b82811115613c69578235825591602001919060010190613c4e565b50613655929150613ce9565b828054613c8190614c9e565b90600052602060002090601f016020900481019282613ca35760008555613c69565b82601f10613cbc57805160ff1916838001178555613c69565b82800160010185558215613c69579182015b82811115613c69578251825591602001919060010190613cce565b5b808211156136555760008155600101613cea565b6000613d11613d0c84614b60565b614b30565b9050808382526020808301915083868660051b86011115613d3157600080fd5b6000805b87811015613d715782356001600160401b03811115613d52578283fd5b613d5e8a828a01613e13565b8652509383019391830191600101613d35565b50505050509392505050565b60008083601f840112613d8e578182fd5b5081356001600160401b03811115613da4578182fd5b6020830191508360208260051b8501011115613b0157600080fd5b80358015158114613dcf57600080fd5b919050565b60008083601f840112613de5578182fd5b5081356001600160401b03811115613dfb578182fd5b602083019150836020828501011115613b0157600080fd5b600082601f830112613e23578081fd5b81356001600160401b03811115613e3c57613e3c614d2e565b613e4f601f8201601f1916602001614b30565b818152846020838601011115613e63578283fd5b816020850160208301379081016020019190915292915050565b600060208284031215613e8e578081fd5b8135610d2381614d44565b600060208284031215613eaa578081fd5b8151610d2381614d44565b60008060408385031215613ec7578081fd5b8235613ed281614d44565b91506020830135613ee281614d44565b809150509250929050565b60008060008060808587031215613f02578182fd5b8435613f0d81614d44565b93506020850135613f1d81614d44565b92506040850135613f2d81614d44565b91506060850135613f3d81614d44565b939692955090935050565b600080600060608486031215613f5c578081fd5b8335613f6781614d44565b92506020840135613f7781614d44565b929592945050506040919091013590565b600080600080600060808688031215613f9f578283fd5b8535613faa81614d44565b94506020860135613fba81614d44565b93506040860135925060608601356001600160401b03811115613fdb578182fd5b613fe788828901613dd4565b969995985093965092949392505050565b6000806000806080858703121561400d578182fd5b843561401881614d44565b9350602085013561402881614d44565b92506040850135915060608501356001600160401b03811115614049578182fd5b61405587828801613e13565b91505092959194509250565b60008060008060008060008060a0898b03121561407c578586fd5b883561408781614d44565b975060208901356001600160401b03808211156140a2578788fd5b6140ae8c838d01613d7d565b909950975060408b01359150808211156140c6578485fd5b6140d28c838d01613d7d565b909750955060608b01359150808211156140ea578485fd5b506140f78b828c01613d7d565b909450925061410a905060808a01613dbf565b90509295985092959890939650565b6000806040838503121561412b578182fd5b823561413681614d44565b9150612d0160208401613dbf565b600080600060408486031215614158578081fd5b833561416381614d44565b925060208401356001600160401b0381111561417d578182fd5b61418986828701613dd4565b9497909650939450505050565b600080604083850312156141a8578182fd5b82356141b381614d44565b946020939093013593505050565b600080600080606085870312156141d6578182fd5b84356141e181614d44565b93506020850135925060408501356001600160401b03811115614202578283fd5b61420e87828801613dd4565b95989497509550505050565b6000806020838503121561422c578182fd5b82356001600160401b03811115614241578283fd5b61424d85828601613d7d565b90969095509350505050565b600080600080600060608688031215614270578283fd5b85356001600160401b0380821115614286578485fd5b61429289838a01613d7d565b909750955060208801359150808211156142aa578485fd5b506142b788828901613d7d565b96999598509660400135949350505050565b6000806000604084860312156142dd578081fd5b83356001600160401b038111156142f2578182fd5b6142fe86828701613d7d565b909790965060209590950135949350505050565b600060208284031215614323578081fd5b81356001600160401b03811115614338578182fd5b8201601f81018413614348578182fd5b610c1784823560208401613cfe565b60006020808385031215614369578182fd5b82356001600160401b0381111561437e578283fd5b8301601f8101851361438e578283fd5b803561439c613d0c82614b60565b80828252848201915084840188868560051b87010111156143bb578687fd5b8694505b838510156143dd5780358352600194909401939185019185016143bf565b50979650505050505050565b6000602082840312156143fa578081fd5b610d2382613dbf565b600060208284031215614414578081fd5b5051919050565b60006020828403121561442c578081fd5b8135610d2381614d59565b600060208284031215614448578081fd5b8151610d2381614d59565b60008060008060008060006080888a03121561446d578081fd5b87356001600160401b0380821115614483578283fd5b61448f8b838c01613dd4565b909950975060208a0135965060408a01359150808211156144ae578283fd5b6144ba8b838c01613d7d565b909650945060608a01359150808211156144d2578283fd5b506144df8a828b01613d7d565b989b979a50959850939692959293505050565b60008060208385031215614504578182fd5b82356001600160401b03811115614519578283fd5b61424d85828601613dd4565b60008060008060006060868803121561453c578283fd5b85356001600160401b0380821115614552578485fd5b61455e89838a01613dd4565b90975095506020880135915080821115614576578485fd5b506142b788828901613dd4565b600080600060408486031215614597578081fd5b83356001600160401b038111156145ac578182fd5b6142fe86828701613dd4565b6000602082840312156145c9578081fd5b81356001600160401b038111156145de578182fd5b610c1784828501613e13565b6000806000604084860312156145fe578081fd5b83356001600160401b0380821115614614578283fd5b9085019060808288031215614627578283fd5b9093506020850135908082111561463c578283fd5b5061418986828701613dd4565b60006020828403121561465a578081fd5b5035919050565b600080600060408486031215614675578081fd5b8335925060208401356001600160401b0381111561417d578182fd5b600080600080606085870312156146a6578182fd5b8435935060208501356001600160401b038111156146c2578283fd5b6146ce87828801613dd4565b9598909750949560400135949350505050565b600080604083850312156146f3578182fd5b50508035926020909101359150565b600081518084526020808501808196508360051b81019150828601855b8581101561474957828403895261473784835161477f565b9885019893509084019060010161471f565b5091979650505050505050565b81835281816020850137506000828201602090810191909152601f909101601f19169091010190565b60008151808452614797816020860160208601614c5b565b601f01601f19169290920160200192915050565b600082516147bd818460208701614c5b565b9190910192915050565b600084516147d9818460208901614c5b565b60609490941b6bffffffffffffffffffffffff191691909301908152601481019190915260340192915050565b60008351614818818460208801614c5b565b601760f91b9083019081528351614836816001840160208801614c5b565b01600101949350505050565b8183823760009101908152919050565b60008351614864818460208801614c5b565b835190830190614878818360208801614c5b565b01949350505050565b6001600160a01b03848116825283166020820152606060408201819052600090610aab9083018461477f565b6001600160a01b0385811682528416602082015260408101839052608060608201819052600090612fe09083018461477f565b602081526000610d236020830184614702565b6040815260006149066040830185614702565b8281036020840152610d1f8185614702565b828152604060208201526000610c17604083018461477f565b602081526000610c17602083018486614756565b602081526000610d23602083018461477f565b60408152600061496b604083018561477f565b8281036020840152610d1f818561477f565b60208082526029908201527f52656769737472793a2053454e4445525f49535f4e4f545f415050524f5645446040820152682fa7a92fa7aba722a960b91b606082015260800190565b60208082526032908201527f4552433732313a207472616e7366657220746f206e6f6e20455243373231526560408201527131b2b4bb32b91034b6b83632b6b2b73a32b960711b606082015260800190565b60208082526027908201527f52656769737472793a2053454e4445525f49535f4e4f545f4d494e54494e475f60408201526626a0a720a3a2a960c91b606082015260800190565b6020808252602b908201527f496e697469616c697a61626c653a20636f6e7472616374206973206e6f74206960408201526a6e697469616c697a696e6760a81b606082015260800190565b60208082526022908201527f52656769737472793a20494e53554646494349454e545f5045524d495353494f6040820152614e5360f01b606082015260800190565b6000808335601e19843603018112614b02578283fd5b8301803591506001600160401b03821115614b1b578283fd5b602001915036819003821315613b0157600080fd5b604051601f8201601f191681016001600160401b0381118282101715614b5857614b58614d2e565b604052919050565b60006001600160401b03821115614b7957614b79614d2e565b5060051b60200190565b60008219821115614b9657614b96614d02565b500190565b600082614baa57614baa614d18565b500490565b600082821015614bc157614bc1614d02565b500390565b6000610d23368484613cfe565b600060808236031215614be4578081fd5b604051608081016001600160401b038282108183111715614c0757614c07614d2e565b8160405284359150614c1882614d44565b81835260208501356020840152604085013560408401526060850135915080821115614c42578384fd5b50614c4f36828601613e13565b60608301525092915050565b60005b83811015614c76578181015183820152602001614c5e565b838111156112a45750506000910152565b600081614c9657614c96614d02565b506000190190565b600181811c90821680614cb257607f821691505b6020821081141561125557634e487b7160e01b600052602260045260246000fd5b6000600019821415614ce757614ce7614d02565b5060010190565b600082614cfd57614cfd614d18565b500690565b634e487b7160e01b600052601160045260246000fd5b634e487b7160e01b600052601260045260246000fd5b634e487b7160e01b600052604160045260246000fd5b6001600160a01b038116811461104557600080fd5b6001600160e01b03198116811461104557600080fdfebe2bb46ac0377341a1ec5c3116d70fd5029d704bd46292e58f6265dd177ebafea164736f6c6343000804000a",
  "linkReferences": {},
  "deployedLinkReferences": {}
}