{
  "_format": "hh-sol-artifact-1",
  "contractName": "UNSRegistry",
  "sourceName": "contracts/UNSRegistry.sol",
  "abi": [
    {
      "anonymous": false,
      "inputs": [
        {
          "indexed": false,
          "internalType": "address",
          "name": "previousAdmin",
          "type": "address"
        },
        {
          "indexed": false,
          "internalType": "address",
          "name": "newAdmin",
          "type": "address"
        }
      ],
      "name": "AdminChanged",
      "type": "event"
    },
    {
      "anonymous": false,
      "inputs": [
        {
          "indexed": true,
          "internalType": "address",
          "name": "owner",
          "type": "address"
        },
        {
          "indexed": true,
          "internalType": "address",
          "name": "approved",
          "type": "address"
        },
        {
          "indexed": true,
          "internalType": "uint256",
          "name": "tokenId",
          "type": "uint256"
        }
      ],
      "name": "Approval",
      "type": "event"
    },
    {
      "anonymous": false,
      "inputs": [
        {
          "indexed": true,
          "internalType": "address",
          "name": "owner",
          "type": "address"
        },
        {
          "indexed": true,
          "internalType": "address",
          "name": "operator",
          "type": "address"
        },
        {
          "indexed": false,
          "internalType": "bool",
          "name": "approved",
          "type": "bool"
        }
      ],
      "name": "ApprovalForAll",
      "type": "event"
    },
    {
      "anonymous": false,
      "inputs": [
        {
          "indexed": false,
          "internalType": "uint8",
          "name": "version",
          "type": "uint8"
        }
      ],
      "name": "Initialized",
      "type": "event"
    },
    {
      "anonymous": false,
      "inputs": [
        {
          "indexed": true,
          "internalType": "uint256",
          "name": "tokenId",
          "type": "uint256"
        },
        {
          "indexed": true,
          "internalType": "string",
          "name": "keyIndex",
          "type": "string"
        },
        {
          "indexed": false,
          "internalType": "string",
          "name": "key",
          "type": "string"
        }
      ],
      "name": "NewKey",
      "type": "event"
    },
    {
      "anonymous": false,
      "inputs": [
        {
          "indexed": true,
          "internalType": "uint256",
          "name": "tokenId",
          "type": "uint256"
        },
        {
          "indexed": false,
          "internalType": "string",
          "name": "uri",
          "type": "string"
        }
      ],
      "name": "NewURI",
      "type": "event"
    },
    {
      "anonymous": false,
      "inputs": [
        {
          "indexed": false,
          "internalType": "string",
          "name": "prefix",
          "type": "string"
        }
      ],
      "name": "NewURIPrefix",
      "type": "event"
    },
    {
      "anonymous": false,
      "inputs": [
        {
          "indexed": true,
          "internalType": "address",
          "name": "addr",
          "type": "address"
        }
      ],
      "name": "RemoveReverse",
      "type": "event"
    },
    {
      "anonymous": false,
      "inputs": [
        {
          "indexed": true,
          "internalType": "uint256",
          "name": "tokenId",
          "type": "uint256"
        }
      ],
      "name": "ResetRecords",
      "type": "event"
    },
    {
      "anonymous": false,
      "inputs": [
        {
          "indexed": true,
          "internalType": "uint256",
          "name": "tokenId",
          "type": "uint256"
        },
        {
          "indexed": true,
          "internalType": "string",
          "name": "keyIndex",
          "type": "string"
        },
        {
          "indexed": true,
          "internalType": "string",
          "name": "valueIndex",
          "type": "string"
        },
        {
          "indexed": false,
          "internalType": "string",
          "name": "key",
          "type": "string"
        },
        {
          "indexed": false,
          "internalType": "string",
          "name": "value",
          "type": "string"
        }
      ],
      "name": "Set",
      "type": "event"
    },
    {
      "anonymous": false,
      "inputs": [
        {
          "indexed": true,
          "internalType": "address",
          "name": "addr",
          "type": "address"
        },
        {
          "indexed": true,
          "internalType": "uint256",
          "name": "tokenId",
          "type": "uint256"
        }
      ],
      "name": "SetReverse",
      "type": "event"
    },
    {
      "anonymous": false,
      "inputs": [
        {
          "indexed": true,
          "internalType": "address",
          "name": "from",
          "type": "address"
        },
        {
          "indexed": true,
          "internalType": "address",
          "name": "to",
          "type": "address"
        },
        {
          "indexed": true,
          "internalType": "uint256",
          "name": "tokenId",
          "type": "uint256"
        }
      ],
      "name": "Transfer",
      "type": "event"
    },
    {
      "anonymous": false,
      "inputs": [
        {
          "indexed": true,
          "internalType": "address",
          "name": "implementation",
          "type": "address"
        }
      ],
      "name": "Upgraded",
      "type": "event"
    },
    {
      "anonymous": false,
      "inputs": [
        {
          "indexed": true,
          "internalType": "address",
          "name": "user",
          "type": "address"
        },
        {
          "indexed": false,
          "internalType": "uint256[]",
          "name": "tokenIds",
          "type": "uint256[]"
        }
      ],
      "name": "WithdrawnBatch",
      "type": "event"
    },
    {
      "inputs": [],
      "name": "BATCH_LIMIT",
      "outputs": [
        {
          "internalType": "uint256",
          "name": "",
          "type": "uint256"
        }
      ],
      "stateMutability": "view",
      "type": "function"
    },
    {
      "inputs": [],
      "name": "NAME",
      "outputs": [
        {
          "internalType": "string",
          "name": "",
          "type": "string"
        }
      ],
      "stateMutability": "view",
      "type": "function"
    },
    {
      "inputs": [],
      "name": "VERSION",
      "outputs": [
        {
          "internalType": "string",
          "name": "",
          "type": "string"
        }
      ],
      "stateMutability": "view",
      "type": "function"
    },
    {
      "inputs": [
        {
          "internalType": "string",
          "name": "key",
          "type": "string"
        }
      ],
      "name": "addKey",
      "outputs": [],
      "stateMutability": "nonpayable",
      "type": "function"
    },
    {
      "inputs": [
        {
          "internalType": "address",
          "name": "addr",
          "type": "address"
        }
      ],
      "name": "addProxyReader",
      "outputs": [],
      "stateMutability": "nonpayable",
      "type": "function"
    },
    {
      "inputs": [
        {
          "internalType": "address",
          "name": "to",
          "type": "address"
        },
        {
          "internalType": "uint256",
          "name": "tokenId",
          "type": "uint256"
        }
      ],
      "name": "approve",
      "outputs": [],
      "stateMutability": "nonpayable",
      "type": "function"
    },
    {
      "inputs": [
        {
          "internalType": "address",
          "name": "owner",
          "type": "address"
        }
      ],
      "name": "balanceOf",
      "outputs": [
        {
          "internalType": "uint256",
          "name": "",
          "type": "uint256"
        }
      ],
      "stateMutability": "view",
      "type": "function"
    },
    {
      "inputs": [
        {
          "internalType": "uint256",
          "name": "tokenId",
          "type": "uint256"
        }
      ],
      "name": "burn",
      "outputs": [],
      "stateMutability": "nonpayable",
      "type": "function"
    },
    {
      "inputs": [
        {
          "internalType": "uint256",
          "name": "tokenId",
          "type": "uint256"
        },
        {
          "internalType": "string",
          "name": "label",
          "type": "string"
        }
      ],
      "name": "childIdOf",
      "outputs": [
        {
          "internalType": "uint256",
          "name": "",
          "type": "uint256"
        }
      ],
      "stateMutability": "pure",
      "type": "function"
    },
    {
      "inputs": [
        {
          "internalType": "address",
          "name": "user",
          "type": "address"
        },
        {
          "internalType": "bytes",
          "name": "depositData",
          "type": "bytes"
        }
      ],
      "name": "deposit",
      "outputs": [],
      "stateMutability": "nonpayable",
      "type": "function"
    },
    {
      "inputs": [
        {
          "internalType": "uint256",
          "name": "tokenId",
          "type": "uint256"
        }
      ],
      "name": "depositToPolygon",
      "outputs": [],
      "stateMutability": "nonpayable",
      "type": "function"
    },
    {
      "inputs": [
        {
          "components": [
            {
              "internalType": "address",
              "name": "from",
              "type": "address"
            },
            {
              "internalType": "uint256",
              "name": "nonce",
              "type": "uint256"
            },
            {
              "internalType": "uint256",
              "name": "tokenId",
              "type": "uint256"
            },
            {
              "internalType": "bytes",
              "name": "data",
              "type": "bytes"
            }
          ],
          "internalType": "struct IForwarder.ForwardRequest",
          "name": "req",
          "type": "tuple"
        },
        {
          "internalType": "bytes",
          "name": "signature",
          "type": "bytes"
        }
      ],
      "name": "execute",
      "outputs": [
        {
          "internalType": "bytes",
          "name": "",
          "type": "bytes"
        }
      ],
      "stateMutability": "nonpayable",
      "type": "function"
    },
    {
      "inputs": [
        {
          "internalType": "uint256",
          "name": "tokenId",
          "type": "uint256"
        }
      ],
      "name": "exists",
      "outputs": [
        {
          "internalType": "bool",
          "name": "",
          "type": "bool"
        }
      ],
      "stateMutability": "view",
      "type": "function"
    },
    {
      "inputs": [
        {
          "internalType": "string",
          "name": "key",
          "type": "string"
        },
        {
          "internalType": "uint256",
          "name": "tokenId",
          "type": "uint256"
        }
      ],
      "name": "get",
      "outputs": [
        {
          "internalType": "string",
          "name": "value",
          "type": "string"
        }
      ],
      "stateMutability": "view",
      "type": "function"
    },
    {
      "inputs": [
        {
          "internalType": "uint256",
          "name": "tokenId",
          "type": "uint256"
        }
      ],
      "name": "getApproved",
      "outputs": [
        {
          "internalType": "address",
          "name": "",
          "type": "address"
        }
      ],
      "stateMutability": "view",
      "type": "function"
    },
    {
      "inputs": [
        {
          "internalType": "uint256",
          "name": "keyHash",
          "type": "uint256"
        },
        {
          "internalType": "uint256",
          "name": "tokenId",
          "type": "uint256"
        }
      ],
      "name": "getByHash",
      "outputs": [
        {
          "internalType": "string",
          "name": "key",
          "type": "string"
        },
        {
          "internalType": "string",
          "name": "value",
          "type": "string"
        }
      ],
      "stateMutability": "view",
      "type": "function"
    },
    {
      "inputs": [
        {
          "internalType": "uint256",
          "name": "keyHash",
          "type": "uint256"
        }
      ],
      "name": "getKey",
      "outputs": [
        {
          "internalType": "string",
          "name": "",
          "type": "string"
        }
      ],
      "stateMutability": "view",
      "type": "function"
    },
    {
      "inputs": [
        {
          "internalType": "uint256[]",
          "name": "hashes",
          "type": "uint256[]"
        }
      ],
      "name": "getKeys",
      "outputs": [
        {
          "internalType": "string[]",
          "name": "values",
          "type": "string[]"
        }
      ],
      "stateMutability": "view",
      "type": "function"
    },
    {
      "inputs": [
        {
          "internalType": "string[]",
          "name": "keys",
          "type": "string[]"
        },
        {
          "internalType": "uint256",
          "name": "tokenId",
          "type": "uint256"
        }
      ],
      "name": "getMany",
      "outputs": [
        {
          "internalType": "string[]",
          "name": "values",
          "type": "string[]"
        }
      ],
      "stateMutability": "view",
      "type": "function"
    },
    {
      "inputs": [
        {
          "internalType": "uint256[]",
          "name": "keyHashes",
          "type": "uint256[]"
        },
        {
          "internalType": "uint256",
          "name": "tokenId",
          "type": "uint256"
        }
      ],
      "name": "getManyByHash",
      "outputs": [
        {
          "internalType": "string[]",
          "name": "keys",
          "type": "string[]"
        },
        {
          "internalType": "string[]",
          "name": "values",
          "type": "string[]"
        }
      ],
      "stateMutability": "view",
      "type": "function"
    },
    {
      "inputs": [
        {
          "internalType": "address",
          "name": "mintingManager",
          "type": "address"
        }
      ],
      "name": "initialize",
      "outputs": [],
      "stateMutability": "nonpayable",
      "type": "function"
    },
    {
      "inputs": [
        {
          "internalType": "address",
          "name": "owner",
          "type": "address"
        },
        {
          "internalType": "address",
          "name": "operator",
          "type": "address"
        }
      ],
      "name": "isApprovedForAll",
      "outputs": [
        {
          "internalType": "bool",
          "name": "",
          "type": "bool"
        }
      ],
      "stateMutability": "view",
      "type": "function"
    },
    {
      "inputs": [
        {
          "internalType": "address",
          "name": "spender",
          "type": "address"
        },
        {
          "internalType": "uint256",
          "name": "tokenId",
          "type": "uint256"
        }
      ],
      "name": "isApprovedOrOwner",
      "outputs": [
        {
          "internalType": "bool",
          "name": "",
          "type": "bool"
        }
      ],
      "stateMutability": "view",
      "type": "function"
    },
    {
      "inputs": [
        {
          "internalType": "address",
          "name": "forwarder",
          "type": "address"
        }
      ],
      "name": "isTrustedForwarder",
      "outputs": [
        {
          "internalType": "bool",
          "name": "",
          "type": "bool"
        }
      ],
      "stateMutability": "view",
      "type": "function"
    },
    {
      "inputs": [
        {
          "internalType": "address",
          "name": "user",
          "type": "address"
        },
        {
          "internalType": "uint256",
          "name": "tokenId",
          "type": "uint256"
        }
      ],
      "name": "mint",
      "outputs": [],
      "stateMutability": "nonpayable",
      "type": "function"
    },
    {
      "inputs": [
        {
          "internalType": "address",
          "name": "user",
          "type": "address"
        },
        {
          "internalType": "uint256",
          "name": "tokenId",
          "type": "uint256"
        },
        {
          "internalType": "bytes",
          "name": "",
          "type": "bytes"
        }
      ],
      "name": "mint",
      "outputs": [],
      "stateMutability": "nonpayable",
      "type": "function"
    },
    {
      "inputs": [
        {
          "internalType": "address",
          "name": "to",
          "type": "address"
        },
        {
          "internalType": "uint256",
          "name": "tokenId",
          "type": "uint256"
        },
        {
          "internalType": "string",
          "name": "uri",
          "type": "string"
        }
      ],
      "name": "mint",
      "outputs": [],
      "stateMutability": "nonpayable",
      "type": "function"
    },
    {
      "inputs": [
        {
          "internalType": "address",
          "name": "to",
          "type": "address"
        },
        {
          "internalType": "uint256",
          "name": "tokenId",
          "type": "uint256"
        },
        {
          "internalType": "string",
          "name": "uri",
          "type": "string"
        },
        {
          "internalType": "string[]",
          "name": "keys",
          "type": "string[]"
        },
        {
          "internalType": "string[]",
          "name": "values",
          "type": "string[]"
        }
      ],
      "name": "mintWithRecords",
      "outputs": [],
      "stateMutability": "nonpayable",
      "type": "function"
    },
    {
      "inputs": [],
      "name": "name",
      "outputs": [
        {
          "internalType": "string",
          "name": "",
          "type": "string"
        }
      ],
      "stateMutability": "view",
      "type": "function"
    },
    {
      "inputs": [
        {
          "internalType": "uint256",
          "name": "tokenId",
          "type": "uint256"
        }
      ],
      "name": "nonceOf",
      "outputs": [
        {
          "internalType": "uint256",
          "name": "",
          "type": "uint256"
        }
      ],
      "stateMutability": "view",
      "type": "function"
    },
    {
      "inputs": [
        {
          "internalType": "address",
          "name": "",
          "type": "address"
        },
        {
          "internalType": "address",
          "name": "from",
          "type": "address"
        },
        {
          "internalType": "uint256",
          "name": "tokenId",
          "type": "uint256"
        },
        {
          "internalType": "bytes",
          "name": "data",
          "type": "bytes"
        }
      ],
      "name": "onERC721Received",
      "outputs": [
        {
          "internalType": "bytes4",
          "name": "",
          "type": "bytes4"
        }
      ],
      "stateMutability": "nonpayable",
      "type": "function"
    },
    {
      "inputs": [
        {
          "internalType": "uint256",
          "name": "tokenId",
          "type": "uint256"
        }
      ],
      "name": "ownerOf",
      "outputs": [
        {
          "internalType": "address",
          "name": "",
          "type": "address"
        }
      ],
      "stateMutability": "view",
      "type": "function"
    },
    {
      "inputs": [
        {
          "internalType": "string[]",
          "name": "keys",
          "type": "string[]"
        },
        {
          "internalType": "string[]",
          "name": "values",
          "type": "string[]"
        },
        {
          "internalType": "uint256",
          "name": "tokenId",
          "type": "uint256"
        }
      ],
      "name": "reconfigure",
      "outputs": [],
      "stateMutability": "nonpayable",
      "type": "function"
    },
    {
      "inputs": [],
      "name": "removeReverse",
      "outputs": [],
      "stateMutability": "nonpayable",
      "type": "function"
    },
    {
      "inputs": [],
      "name": "removeReverseDirect",
      "outputs": [],
      "stateMutability": "nonpayable",
      "type": "function"
    },
    {
      "inputs": [
        {
          "internalType": "uint256",
          "name": "tokenId",
          "type": "uint256"
        }
      ],
      "name": "reset",
      "outputs": [],
      "stateMutability": "nonpayable",
      "type": "function"
    },
    {
      "inputs": [
        {
          "internalType": "uint256",
          "name": "tokenId",
          "type": "uint256"
        }
      ],
      "name": "resolverOf",
      "outputs": [
        {
          "internalType": "address",
          "name": "",
          "type": "address"
        }
      ],
      "stateMutability": "view",
      "type": "function"
    },
    {
      "inputs": [
        {
          "internalType": "address",
          "name": "addr",
          "type": "address"
        }
      ],
      "name": "reverseOf",
      "outputs": [
        {
          "internalType": "uint256",
          "name": "reverse",
          "type": "uint256"
        }
      ],
      "stateMutability": "view",
      "type": "function"
    },
    {
      "inputs": [],
      "name": "root",
      "outputs": [
        {
          "internalType": "uint256",
          "name": "",
          "type": "uint256"
        }
      ],
      "stateMutability": "pure",
      "type": "function"
    },
    {
      "inputs": [
        {
          "internalType": "address",
          "name": "to",
          "type": "address"
        },
        {
          "internalType": "uint256",
          "name": "tokenId",
          "type": "uint256"
        },
        {
          "internalType": "string",
          "name": "uri",
          "type": "string"
        },
        {
          "internalType": "bytes",
          "name": "data",
          "type": "bytes"
        }
      ],
      "name": "safeMint",
      "outputs": [],
      "stateMutability": "nonpayable",
      "type": "function"
    },
    {
      "inputs": [
        {
          "internalType": "address",
          "name": "to",
          "type": "address"
        },
        {
          "internalType": "uint256",
          "name": "tokenId",
          "type": "uint256"
        },
        {
          "internalType": "string",
          "name": "uri",
          "type": "string"
        }
      ],
      "name": "safeMint",
      "outputs": [],
      "stateMutability": "nonpayable",
      "type": "function"
    },
    {
      "inputs": [
        {
          "internalType": "address",
          "name": "to",
          "type": "address"
        },
        {
          "internalType": "uint256",
          "name": "tokenId",
          "type": "uint256"
        },
        {
          "internalType": "string",
          "name": "uri",
          "type": "string"
        },
        {
          "internalType": "string[]",
          "name": "keys",
          "type": "string[]"
        },
        {
          "internalType": "string[]",
          "name": "values",
          "type": "string[]"
        }
      ],
      "name": "safeMintWithRecords",
      "outputs": [],
      "stateMutability": "nonpayable",
      "type": "function"
    },
    {
      "inputs": [
        {
          "internalType": "address",
          "name": "to",
          "type": "address"
        },
        {
          "internalType": "uint256",
          "name": "tokenId",
          "type": "uint256"
        },
        {
          "internalType": "string",
          "name": "uri",
          "type": "string"
        },
        {
          "internalType": "string[]",
          "name": "keys",
          "type": "string[]"
        },
        {
          "internalType": "string[]",
          "name": "values",
          "type": "string[]"
        },
        {
          "internalType": "bytes",
          "name": "data",
          "type": "bytes"
        }
      ],
      "name": "safeMintWithRecords",
      "outputs": [],
      "stateMutability": "nonpayable",
      "type": "function"
    },
    {
      "inputs": [
        {
          "internalType": "address",
          "name": "from",
          "type": "address"
        },
        {
          "internalType": "address",
          "name": "to",
          "type": "address"
        },
        {
          "internalType": "uint256",
          "name": "tokenId",
          "type": "uint256"
        }
      ],
      "name": "safeTransferFrom",
      "outputs": [],
      "stateMutability": "nonpayable",
      "type": "function"
    },
    {
      "inputs": [
        {
          "internalType": "address",
          "name": "from",
          "type": "address"
        },
        {
          "internalType": "address",
          "name": "to",
          "type": "address"
        },
        {
          "internalType": "uint256",
          "name": "tokenId",
          "type": "uint256"
        },
        {
          "internalType": "bytes",
          "name": "data",
          "type": "bytes"
        }
      ],
      "name": "safeTransferFrom",
      "outputs": [],
      "stateMutability": "nonpayable",
      "type": "function"
    },
    {
      "inputs": [
        {
          "internalType": "string",
          "name": "key",
          "type": "string"
        },
        {
          "internalType": "string",
          "name": "value",
          "type": "string"
        },
        {
          "internalType": "uint256",
          "name": "tokenId",
          "type": "uint256"
        }
      ],
      "name": "set",
      "outputs": [],
      "stateMutability": "nonpayable",
      "type": "function"
    },
    {
      "inputs": [
        {
          "internalType": "address",
          "name": "operator",
          "type": "address"
        },
        {
          "internalType": "bool",
          "name": "approved",
          "type": "bool"
        }
      ],
      "name": "setApprovalForAll",
      "outputs": [],
      "stateMutability": "nonpayable",
      "type": "function"
    },
    {
      "inputs": [
        {
          "internalType": "uint256",
          "name": "keyHash",
          "type": "uint256"
        },
        {
          "internalType": "string",
          "name": "value",
          "type": "string"
        },
        {
          "internalType": "uint256",
          "name": "tokenId",
          "type": "uint256"
        }
      ],
      "name": "setByHash",
      "outputs": [],
      "stateMutability": "nonpayable",
      "type": "function"
    },
    {
      "inputs": [
        {
          "internalType": "address",
          "name": "registry",
          "type": "address"
        }
      ],
      "name": "setCNSRegistry",
      "outputs": [],
      "stateMutability": "nonpayable",
      "type": "function"
    },
    {
      "inputs": [
        {
          "internalType": "address",
          "name": "clientChainManager",
          "type": "address"
        }
      ],
      "name": "setChildChainManager",
      "outputs": [],
      "stateMutability": "nonpayable",
      "type": "function"
    },
    {
      "inputs": [
        {
          "internalType": "string[]",
          "name": "keys",
          "type": "string[]"
        },
        {
          "internalType": "string[]",
          "name": "values",
          "type": "string[]"
        },
        {
          "internalType": "uint256",
          "name": "tokenId",
          "type": "uint256"
        }
      ],
      "name": "setMany",
      "outputs": [],
      "stateMutability": "nonpayable",
      "type": "function"
    },
    {
      "inputs": [
        {
          "internalType": "uint256[]",
          "name": "keyHashes",
          "type": "uint256[]"
        },
        {
          "internalType": "string[]",
          "name": "values",
          "type": "string[]"
        },
        {
          "internalType": "uint256",
          "name": "tokenId",
          "type": "uint256"
        }
      ],
      "name": "setManyByHash",
      "outputs": [],
      "stateMutability": "nonpayable",
      "type": "function"
    },
    {
      "inputs": [
        {
          "internalType": "address",
          "name": "to",
          "type": "address"
        },
        {
          "internalType": "uint256",
          "name": "tokenId",
          "type": "uint256"
        }
      ],
      "name": "setOwner",
      "outputs": [],
      "stateMutability": "nonpayable",
      "type": "function"
    },
    {
      "inputs": [
        {
          "internalType": "uint256",
          "name": "tokenId",
          "type": "uint256"
        }
      ],
      "name": "setReverse",
      "outputs": [],
      "stateMutability": "nonpayable",
      "type": "function"
    },
    {
      "inputs": [
        {
          "internalType": "uint256",
          "name": "tokenId",
          "type": "uint256"
        }
      ],
      "name": "setReverseDirect",
      "outputs": [],
      "stateMutability": "nonpayable",
      "type": "function"
    },
    {
      "inputs": [
        {
          "internalType": "address",
          "name": "rootChainManager",
          "type": "address"
        }
      ],
      "name": "setRootChainManager",
      "outputs": [],
      "stateMutability": "nonpayable",
      "type": "function"
    },
    {
      "inputs": [
        {
          "internalType": "string",
          "name": "prefix",
          "type": "string"
        }
      ],
      "name": "setTokenURIPrefix",
      "outputs": [],
      "stateMutability": "nonpayable",
      "type": "function"
    },
    {
      "inputs": [
        {
          "internalType": "bytes4",
          "name": "interfaceId",
          "type": "bytes4"
        }
      ],
      "name": "supportsInterface",
      "outputs": [
        {
          "internalType": "bool",
          "name": "",
          "type": "bool"
        }
      ],
      "stateMutability": "view",
      "type": "function"
    },
    {
      "inputs": [],
      "name": "symbol",
      "outputs": [
        {
          "internalType": "string",
          "name": "",
          "type": "string"
        }
      ],
      "stateMutability": "view",
      "type": "function"
    },
    {
      "inputs": [
        {
          "internalType": "uint256",
          "name": "tokenId",
          "type": "uint256"
        }
      ],
      "name": "tokenURI",
      "outputs": [
        {
          "internalType": "string",
          "name": "",
          "type": "string"
        }
      ],
      "stateMutability": "view",
      "type": "function"
    },
    {
      "inputs": [
        {
          "internalType": "address",
          "name": "from",
          "type": "address"
        },
        {
          "internalType": "address",
          "name": "to",
          "type": "address"
        },
        {
          "internalType": "uint256",
          "name": "tokenId",
          "type": "uint256"
        }
      ],
      "name": "transferFrom",
      "outputs": [],
      "stateMutability": "nonpayable",
      "type": "function"
    },
    {
      "inputs": [
        {
          "internalType": "uint256[]",
          "name": "tokenIds",
          "type": "uint256[]"
        }
      ],
      "name": "upgradeAll",
      "outputs": [],
      "stateMutability": "nonpayable",
      "type": "function"
    },
    {
      "inputs": [
        {
          "components": [
            {
              "internalType": "address",
              "name": "from",
              "type": "address"
            },
            {
              "internalType": "uint256",
              "name": "nonce",
              "type": "uint256"
            },
            {
              "internalType": "uint256",
              "name": "tokenId",
              "type": "uint256"
            },
            {
              "internalType": "bytes",
              "name": "data",
              "type": "bytes"
            }
          ],
          "internalType": "struct IForwarder.ForwardRequest",
          "name": "req",
          "type": "tuple"
        },
        {
          "internalType": "bytes",
          "name": "signature",
          "type": "bytes"
        }
      ],
      "name": "verify",
      "outputs": [
        {
          "internalType": "bool",
          "name": "",
          "type": "bool"
        }
      ],
      "stateMutability": "view",
      "type": "function"
    },
    {
      "inputs": [
        {
          "internalType": "uint256",
          "name": "tokenId",
          "type": "uint256"
        }
      ],
      "name": "withdraw",
      "outputs": [],
      "stateMutability": "nonpayable",
      "type": "function"
    },
    {
      "inputs": [
        {
          "internalType": "uint256[]",
          "name": "tokenIds",
          "type": "uint256[]"
        }
      ],
      "name": "withdrawBatch",
      "outputs": [],
      "stateMutability": "nonpayable",
      "type": "function"
    },
    {
      "inputs": [
        {
          "internalType": "bytes",
          "name": "inputData",
          "type": "bytes"
        },
        {
          "internalType": "uint256",
          "name": "tokenId",
          "type": "uint256"
        },
        {
          "internalType": "string[]",
          "name": "keys",
          "type": "string[]"
        },
        {
          "internalType": "string[]",
          "name": "values",
          "type": "string[]"
        }
      ],
      "name": "withdrawFromPolygon",
      "outputs": [],
      "stateMutability": "nonpayable",
      "type": "function"
    },
    {
      "inputs": [
        {
          "internalType": "uint256",
          "name": "tokenId",
          "type": "uint256"
        }
      ],
      "name": "withdrawWithMetadata",
      "outputs": [],
      "stateMutability": "nonpayable",
      "type": "function"
    }
  ],
  "bytecode": "0x608060405234801561001057600080fd5b5061561f80620000216000396000f3fe608060405234801561001057600080fd5b50600436106103f15760003560e01c8063764a81bb11610215578063b55bc61711610125578063cf2c52cb116100b8578063ec129eea11610087578063ec129eea1461092a578063efda4d3e1461093d578063f25eb5c114610950578063f5c1f76e14610958578063ffa1ad741461096b57600080fd5b8063cf2c52cb146108c1578063d3fc9864146108d4578063e985e9c5146108e7578063ebf0c7171461092357600080fd5b8063c4d66de8116100f4578063c4d66de814610875578063c87b56dd14610888578063cd279c7c1461089b578063ce92b33e146108ae57600080fd5b8063b55bc6171461081b578063b85afd281461082e578063b88d4fde1461084f578063bb5b27e11461086257600080fd5b80639c8d4156116101a8578063a5e584dc11610177578063a5e584dc1461050b578063ab3b87fe146107cf578063ae31844a146107e2578063b0f59177146107f5578063b3f9e4cb1461080857600080fd5b80639c8d41561461076a578063a22cb4651461077d578063a3f4df7e14610790578063a4247400146107bc57600080fd5b80639508b1c4116101e45780639508b1c4146107345780639559c0bd1461074757806395d89b411461074f57806399e0dd7c1461075757600080fd5b8063764a81bb146106e85780637e37479e146106fb5780637f139a001461070e57806394d008ef1461072157600080fd5b8063430c2081116103105780636352211e116102a35780636ccbae5f116102725780636ccbae5f146106865780636d5750cf146106a757806370a08231146106ba578063728a44d8146106cd578063753bb1ef146106e057600080fd5b80636352211e1461061e578063638e5c7814610631578063672b9f811461064457806368b62d321461066557600080fd5b80634f558e79116102df5780634f558e79146105c957806350382c1a146105dc57806350960239146105ef578063572b6c051461060257600080fd5b8063430c20811461057d5780634348b5621461059057806347c81699146105a35780634a72584d146105b657600080fd5b806323b872dd11610388578063384e9a5511610357578063384e9a551461053157806340c10f191461054457806342842e0e1461055757806342966c681461056a57600080fd5b806323b872dd146104e557806327f18975146104f85780632e1a7d4d1461050b578063310bd74b1461051e57600080fd5b8063150b7a02116103c4578063150b7a02146104735780631bd8cc1a1461049f5780631be5e7ed146104bf5780631bf7e13e146104d257600080fd5b806301ffc9a7146103f657806306fdde031461041e578063081812fc14610433578063095ea7b31461045e575b600080fd5b610409610404366004614c66565b61098f565b60405190151581526020015b60405180910390f35b6104266109a0565b60405161041591906151a1565b610446610441366004614ea7565b610a32565b6040516001600160a01b039091168152602001610415565b61047161046c3660046147fd565b610a59565b005b6104866104813660046146a7565b610aae565b6040516001600160e01b03199091168152602001610415565b6104b26104ad366004614b05565b610c04565b6040516104159190615102565b6104266104cd366004614dce565b610d24565b6104266104e0366004614e48565b610d6f565b6104716104f3366004614667565b610e7a565b610471610506366004614a95565b610f00565b610471610519366004614ea7565b610f7b565b61047161052c366004614ea7565b610ff7565b61047161053f366004614ea7565b611065565b6104716105523660046147fd565b611169565b610471610565366004614667565b6111b6565b610471610578366004614ea7565b6111d1565b61040961058b3660046147fd565b611248565b61047161059e366004614881565b611254565b6104716105b1366004614d70565b6112b9565b6104716105c4366004614eef565b61132b565b6104096105d7366004614ea7565b6113a4565b6104716105ea366004614e03565b6113c3565b6104716105fd3660046145f7565b6113f6565b6104096106103660046145f7565b6001600160a01b0316301490565b61044661062c366004614ea7565b611456565b61047161063f366004614ea7565b6114b6565b610657610652366004614f3f565b611501565b6040516104159291906151b4565b610678610673366004614ebf565b611519565b604051908152602001610415565b610678610694366004614ea7565b6000908152610100602052604090205490565b6104716106b5366004614ea7565b61155b565b6106786106c83660046145f7565b6115ea565b6104716106db3660046145f7565b611670565b610471611717565b6104716106f63660046145f7565b61179d565b6106786107093660046145f7565b61184c565b61047161071c3660046145f7565b61187d565b61047161072f366004614828565b61191c565b610471610742366004614c9e565b61196b565b610678601481565b6104266119c2565b610471610765366004614d3d565b6119d1565b610471610778366004614b4e565b611a57565b61047161078b366004614780565b611bda565b6104266040518060400160405280600d81526020016c554e533a20526567697374727960981b81525081565b6104096107ca366004614e48565b611bec565b6104716107dd3660046147fd565b611c37565b6104716107f0366004614b4e565b611caf565b610471610803366004614881565b611d5b565b610446610816366004614ea7565b611de4565b610471610829366004614a0d565b611e0e565b61084161083c366004614b05565b611ebe565b604051610415929190615115565b61047161085d366004614717565b612026565b610426610870366004614ea7565b6120a0565b6104716108833660046145f7565b612142565b610426610896366004614ea7565b6122bc565b6104716108a9366004614828565b612322565b6104716108bc366004614a95565b6123ac565b6104716108cf3660046147ab565b61241e565b6104716108e2366004614828565b6124fb565b6104096108f536600461462f565b6001600160a01b039182166000908152606a6020908152604080832093909416825291909152205460ff1690565b6000610678565b610471610938366004614a95565b612577565b61047161094b366004614932565b6125e9565b610471612677565b6104b2610966366004614b4e565b6126f5565b61042660405180604001604052806005815260200164302e352e3160d81b81525081565b600061099a826127d2565b92915050565b6060606580546109af90615521565b80601f01602080910402602001604051908101604052809291908181526020018280546109db90615521565b8015610a285780601f106109fd57610100808354040283529160200191610a28565b820191906000526020600020905b815481529060010190602001808311610a0b57829003601f168201915b5050505050905090565b6000610a3d82612822565b506000908152606960205260409020546001600160a01b031690565b8030331415610a9657610a6a612881565b8114610a915760405162461bcd60e51b8152600401610a88906152f2565b60405180910390fd5b610a9f565b610a9f81612896565b610aa983836128c4565b505050565b60007f8ffb960699dc2ba88f34d0e41c029c3c36c95149679fe1d0153a9582bec92378546001600160a01b0316610ae36129e7565b6001600160a01b03161415610ba557610afa6129e7565b6001600160a01b03166342966c68856040518263ffffffff1660e01b8152600401610b2791815260200190565b600060405180830381600087803b158015610b4157600080fd5b505af1158015610b55573d6000803e3d6000fd5b505050821580159150610b6f5750610b6f82840184614c34565b15610b8d57610b7e30856129f6565b610b888585612b44565b610b97565b610b9785856129f6565b50630a85bd0160e11b610bfb565b60405162461bcd60e51b815260206004820152602560248201527f52656769737472793a204552433732315f524543454956494e475f50524f4849604482015264109255115160da1b6064820152608401610a88565b95945050505050565b6060826001600160401b03811115610c2c57634e487b7160e01b600052604160045260246000fd5b604051908082528060200260200182016040528015610c5f57816020015b6060815260200190600190039081610c4a5790505b50905060005b83811015610d1c57610cde858583818110610c9057634e487b7160e01b600052603260045260246000fd5b9050602002810190610ca291906153b6565b8080601f016020809104026020016040519081016040528093929190818152602001838380828437600092019190915250879250612be5915050565b828281518110610cfe57634e487b7160e01b600052603260045260246000fd5b60200260200101819052508080610d1490615556565b915050610c65565b509392505050565b6060610d6784848080601f016020809104026020016040519081016040528093929190818152602001838380828437600092019190915250869250612be5915050565b949350505050565b606060005a9050610d81858585611bec565b610ddd5760405162461bcd60e51b815260206004820152602760248201527f554e535265676973747279466f727761726465723a205349474e41545552455f6044820152661253959053125160ca1b6064820152608401610a88565b610e6f610ded60208701876145f7565b30604088013584610e0160608b018b6153b6565b8080601f01602080910402602001604051908101604052809392919081815260200183838082843760009201919091525050604080516020601f8e018190048102820181019092528c815292508c91508b9081908401838280828437600092019190915250612c1a92505050565b9150505b9392505050565b80610e8c610e866129e7565b82612d09565b610ea85760405162461bcd60e51b8152600401610a8890615210565b8130331415610edc57610eb9612881565b8114610ed75760405162461bcd60e51b8152600401610a88906152f2565b610ee5565b610ee581612896565b610eee83612d87565b610ef9858585612df4565b5050505050565b80610f0c610e866129e7565b610f285760405162461bcd60e51b8152600401610a8890615210565b8130331415610f5c57610f39612881565b8114610f575760405162461bcd60e51b8152600401610a88906152f2565b610f65565b610f6581612896565b610f728787878787612f9b565b50505050505050565b610f8481611456565b6001600160a01b0316610f956129e7565b6001600160a01b031614610feb5760405162461bcd60e51b815260206004820152601d60248201527f52656769737472793a20494e56414c49445f544f4b454e5f4f574e45520000006044820152606401610a88565b610ff48161301a565b50565b80611003610e866129e7565b61101f5760405162461bcd60e51b8152600401610a8890615210565b813033141561105357611030612881565b811461104e5760405162461bcd60e51b8152600401610a88906152f2565b61105c565b61105c81612896565b610aa983612d87565b8061106e6129e7565b6001600160a01b031661108082611456565b6001600160a01b0316146110a65760405162461bcd60e51b8152600401610a88906151d9565b81303314156110da576110b7612881565b81146110d55760405162461bcd60e51b8152600401610a88906152f2565b6110e3565b6110e381612896565b73__$6c54a4ed88ef48b38e89e3cb7bc0cd5714$__63f9ba85a06101356111086129e7565b6040516001600160e01b031960e085901b16815260048101929092526001600160a01b03166024820152604481018690526064015b60006040518083038186803b15801561115557600080fd5b505af4158015610f72573d6000803e3d6000fd5b6111716130c1565b6001600160a01b03166111826129e7565b6001600160a01b0316146111a85760405162461bcd60e51b8152600401610a8890615374565b6111b282826129f6565b5050565b610aa983838360405180602001604052806000815250612026565b806111dd610e866129e7565b6111f95760405162461bcd60e51b8152600401610a8890615210565b813033141561122d5761120a612881565b81146112285760405162461bcd60e51b8152600401610a88906152f2565b611236565b61123681612896565b61123f83612d87565b610aa98361301a565b6000610e738383612d09565b610134546001600160a01b03166112696129e7565b6001600160a01b03161461128f5760405162461bcd60e51b8152600401610a88906152ab565b6112af8888888888888888604051806020016040528060008152506131d4565b5050505050505050565b806112c5610e866129e7565b6112e15760405162461bcd60e51b8152600401610a8890615210565b8130331415611315576112f2612881565b81146113105760405162461bcd60e51b8152600401610a88906152f2565b61131e565b61131e81612896565b610f72878787878761322f565b80611337610e866129e7565b6113535760405162461bcd60e51b8152600401610a8890615210565b813033141561138757611364612881565b81146113825760405162461bcd60e51b8152600401610a88906152f2565b611390565b61139081612896565b61139c8686868661330e565b505050505050565b6000818152606760205260408120546001600160a01b0316151561099a565b610ff4816040516020016113d79190615009565b6040516020818303038152906040528051906020012060001c826133ae565b610134546001600160a01b031661140b6129e7565b6001600160a01b0316146114315760405162461bcd60e51b8152600401610a88906152ab565b6001600160a01b0316600090815261013660205260409020805460ff19166001179055565b6000818152606760205260408120546001600160a01b03168061099a5760405162461bcd60e51b8152602060048201526018602482015277115490cdcc8c4e881a5b9d985b1a59081d1bdad95b88125160421b6044820152606401610a88565b806114c2610e866129e7565b6114de5760405162461bcd60e51b8152600401610a8890615210565b6114f06114e96129e7565b3084612df4565b6111b26114fb6129e7565b83612b44565b60608061150e84846133da565b909590945092505050565b6000610d678484848080601f0160208091040260200160405190810160405280939291908181526020018383808284376000920191909152506133fb92505050565b806115646129e7565b6001600160a01b031661157682611456565b6001600160a01b03161461159c5760405162461bcd60e51b8152600401610a88906151d9565b81303314156115d0576115ad612881565b81146115cb5760405162461bcd60e51b8152600401610a88906152f2565b6115d9565b6115d981612896565b610aa96115e46129e7565b846134a8565b60006001600160a01b0382166116545760405162461bcd60e51b815260206004820152602960248201527f4552433732313a2061646472657373207a65726f206973206e6f7420612076616044820152683634b21037bbb732b960b91b6064820152608401610a88565b506001600160a01b031660009081526068602052604090205490565b6000805160206155f3833981519152546001600160a01b0316156116e55760405162461bcd60e51b815260206004820152602660248201527f52656769737472793a20524f4f545f434841494e5f4d414e454745525f4e4f546044820152655f454d50545960d01b6064820152608401610a88565b806000805160206155f38339815191525b80546001600160a01b0319166001600160a01b039290921691909117905550565b60006117216129e7565b6001600160a01b038116600090815261013560205260409020549091506117945760405162461bcd60e51b815260206004820152602160248201527f52656769737472793a20524556455253455f5245434f52445f49535f454d50546044820152605960f81b6064820152608401610a88565b610ff4816134f0565b7f8bea9a6f8afd34f4e29c585f854e0cc5161431bf5fc299d468454d33dce53b87546001600160a01b0316156118255760405162461bcd60e51b815260206004820152602760248201527f52656769737472793a204348494c445f434841494e5f4d414e454745525f4e4f604482015266545f454d50545960c81b6064820152608401610a88565b807f8bea9a6f8afd34f4e29c585f854e0cc5161431bf5fc299d468454d33dce53b876116f6565b6001600160a01b0381166000908152610135602052604081205461186f81613535565b611877578091505b50919050565b7f8ffb960699dc2ba88f34d0e41c029c3c36c95149679fe1d0153a9582bec92378546001600160a01b0316156118f55760405162461bcd60e51b815260206004820181905260248201527f52656769737472793a20434e535f52454749535452595f4e4f545f454d5054596044820152606401610a88565b807f8ffb960699dc2ba88f34d0e41c029c3c36c95149679fe1d0153a9582bec923786116f6565b6119246130c1565b6001600160a01b03166119356129e7565b6001600160a01b03161461195b5760405162461bcd60e51b8152600401610a8890615374565b61196584846129f6565b50505050565b611975878761357f565b61197d6129e7565b6001600160a01b031661198f86611456565b6001600160a01b0316146119b55760405162461bcd60e51b8152600401610a88906151d9565b610f7284848484896135ee565b6060606680546109af90615521565b610134546001600160a01b03166119e66129e7565b6001600160a01b031614611a0c5760405162461bcd60e51b8152600401610a88906152ab565b611a1961013383836143d7565b507f4b120d6a959a84a520fa48f5f937cca0e79129423487af7901213b5d2e89313b8282604051611a4b92919061518d565b60405180910390a15050565b806014811115611aa95760405162461bcd60e51b815260206004820152601d60248201527f52656769737472793a20455843454544535f42415443485f4c494d49540000006044820152606401610a88565b60005b81811015611b8a576000848483818110611ad657634e487b7160e01b600052603260045260246000fd5b905060200201359050611ae881611456565b6001600160a01b0316611af96129e7565b6001600160a01b03161481604051602001611b4091907f52656769737472793a20494e56414c49445f544f4b454e5f4f574e45522000008152601e810191909152603e0190565b60405160208183030381529060405290611b6d5760405162461bcd60e51b8152600401610a8891906151a1565b50611b778161301a565b5080611b8281615556565b915050611aac565b50611b936129e7565b6001600160a01b03167ff871896b17e9cb7a64941c62c188a4f5c621b86800e3d15452ece01ce56073df8484604051611bcd92919061513a565b60405180910390a2505050565b6111b2611be56129e7565b8383613678565b6000610d67611bfa8561546d565b3085858080601f01602080910402602001604051908101604052809392919081815260200183838082843760009201919091525061374792505050565b80611c43610e866129e7565b611c5f5760405162461bcd60e51b8152600401610a8890615210565b8130331415611c9357611c70612881565b8114611c8e5760405162461bcd60e51b8152600401610a88906152f2565b611c9c565b611c9c81612896565b611965611ca884611456565b8585612df4565b610134546001600160a01b0316611cc46129e7565b6001600160a01b031614611cea5760405162461bcd60e51b8152600401610a88906152ab565b60005b81811015610aa95760016101376000858585818110611d1c57634e487b7160e01b600052603260045260246000fd5b90506020020135815260200190815260200160002060006101000a81548160ff0219169083151502179055508080611d5390615556565b915050611ced565b610134546001600160a01b0316611d706129e7565b6001600160a01b031614611d965760405162461bcd60e51b8152600401610a88906152ab565b611dd7888888888080601f01602080910402602001604051908101604052809392919081815260200183838082843760009201919091525061389f92505050565b6112af848484848b6135ee565b6000818152606760205260408120546001600160a01b0316611e0757600061099a565b3092915050565b610134546001600160a01b0316611e236129e7565b6001600160a01b031614611e495760405162461bcd60e51b8152600401610a88906152ab565b61139c868686868080601f01602080910402602001604051908101604052809392919081815260200183838082843760009201919091525050604080516020601f8a01819004810282018101909252888152925088915087908190840183828082843760009201919091525061393092505050565b606080836001600160401b03811115611ee757634e487b7160e01b600052604160045260246000fd5b604051908082528060200260200182016040528015611f1a57816020015b6060815260200190600190039081611f055790505b509150836001600160401b03811115611f4357634e487b7160e01b600052604160045260246000fd5b604051908082528060200260200182016040528015611f7657816020015b6060815260200190600190039081611f615790505b50905060005b8481101561201d57611fb4868683818110611fa757634e487b7160e01b600052603260045260246000fd5b90506020020135856133da565b848381518110611fd457634e487b7160e01b600052603260045260246000fd5b60200260200101848481518110611ffb57634e487b7160e01b600052603260045260246000fd5b602002602001018290528290525050808061201590615556565b915050611f7c565b50935093915050565b81612032610e866129e7565b61204e5760405162461bcd60e51b8152600401610a8890615210565b82303314156120825761205f612881565b811461207d5760405162461bcd60e51b8152600401610a88906152f2565b61208b565b61208b81612896565b61209484612d87565b61139c868686866139e9565b600081815260c9602052604090208054606091906120bd90615521565b80601f01602080910402602001604051908101604052809291908181526020018280546120e990615521565b80156121365780601f1061210b57610100808354040283529160200191612136565b820191906000526020600020905b81548152906001019060200180831161211957829003601f168201915b50505050509050919050565b600054610100900460ff16158080156121625750600054600160ff909116105b8061217c5750303b15801561217c575060005460ff166001145b6121df5760405162461bcd60e51b815260206004820152602e60248201527f496e697469616c697a61626c653a20636f6e747261637420697320616c72656160448201526d191e481a5b9a5d1a585b1a5e995960921b6064820152608401610a88565b6000805460ff191660011790558015612202576000805461ff0019166101001790555b61013480546001600160a01b0319166001600160a01b0384161790556040805180820182526013815272556e73746f707061626c6520446f6d61696e7360681b60208083019190915282518084019093526002835261155160f21b9083015261226a91613a1c565b612272613a6a565b61227a613a6a565b80156111b2576000805461ff0019169055604051600181527f7f26b83ff96e1f2b6a682f133852f6798a09c465da95921460cefb384740249890602001611a4b565b60606122c782612822565b60006122d1613a93565b905060008151116122f15760405180602001604052806000815250610e73565b806122fb84613aa3565b60405160200161230c929190615074565b6040516020818303038152906040529392505050565b610134546001600160a01b03166123376129e7565b6001600160a01b03161461235d5760405162461bcd60e51b8152600401610a88906152ab565b611965848484848080601f016020809104026020016040519081016040528093929190818152602001838380828437600092018290525060408051602081019091529081529250613930915050565b806123b8610e866129e7565b6123d45760405162461bcd60e51b8152600401610a8890615210565b8130331415612408576123e5612881565b81146124035760405162461bcd60e51b8152600401610a88906152f2565b612411565b61241181612896565b610f7287878787876135ee565b7f8bea9a6f8afd34f4e29c585f854e0cc5161431bf5fc299d468454d33dce53b87546001600160a01b03166124516129e7565b6001600160a01b0316146124775760405162461bcd60e51b8152600401610a8890615374565b602081141561249a57600061248e82840184614ea7565b905061196584826129f6565b60006124a882840184614b8d565b805190915060005b8181101561139c576124e9868483815181106124dc57634e487b7160e01b600052603260045260246000fd5b60200260200101516129f6565b806124f381615556565b9150506124b0565b610134546001600160a01b03166125106129e7565b6001600160a01b0316146125365760405162461bcd60e51b8152600401610a88906152ab565b611965848484848080601f01602080910402602001604051908101604052809392919081815260200183838082843760009201919091525061389f92505050565b80612583610e866129e7565b61259f5760405162461bcd60e51b8152600401610a8890615210565b81303314156125d3576125b0612881565b81146125ce5760405162461bcd60e51b8152600401610a88906152f2565b6125dc565b6125dc81612896565b610f728787878787613bbc565b610134546001600160a01b03166125fe6129e7565b6001600160a01b0316146126245760405162461bcd60e51b8152600401610a88906152ab565b61266b8a8a8a8a8a8a8a8a8a8a8080601f0160208091040260200160405190810160405280939291908181526020018383808284376000920191909152506131d492505050565b50505050505050505050565b73__$6c54a4ed88ef48b38e89e3cb7bc0cd5714$__632c0e96c361013561269c6129e7565b6040516001600160e01b031960e085901b16815260048101929092526001600160a01b0316602482015260440160006040518083038186803b1580156126e157600080fd5b505af4158015611965573d6000803e3d6000fd5b6060816001600160401b0381111561271d57634e487b7160e01b600052604160045260246000fd5b60405190808252806020026020018201604052801561275057816020015b606081526020019060019003908161273b5790505b50905060005b828110156127cb5761278d84848381811061278157634e487b7160e01b600052603260045260246000fd5b905060200201356120a0565b8282815181106127ad57634e487b7160e01b600052603260045260246000fd5b602002602001018190525080806127c390615556565b915050612756565b5092915050565b60006001600160e01b031982166380ac58cd60e01b148061280357506001600160e01b03198216635b5e139f60e01b145b8061099a57506301ffc9a760e01b6001600160e01b031983161461099a565b6000818152606760205260409020546001600160a01b0316610ff45760405162461bcd60e51b8152602060048201526018602482015277115490cdcc8c4e881a5b9d985b1a59081d1bdad95b88125160421b6044820152606401610a88565b6000303314156128935750601f193601355b90565b600081815261010060205260409020546128b190600161542a565b6000918252610100602052604090912055565b60006128cf82611456565b9050806001600160a01b0316836001600160a01b0316141561293d5760405162461bcd60e51b815260206004820152602160248201527f4552433732313a20617070726f76616c20746f2063757272656e74206f776e656044820152603960f91b6064820152608401610a88565b806001600160a01b031661294f6129e7565b6001600160a01b0316148061296b575061296b816108f56129e7565b6129dd5760405162461bcd60e51b815260206004820152603e60248201527f4552433732313a20617070726f76652063616c6c6572206973206e6f7420746f60448201527f6b656e206f776e6572206e6f7220617070726f76656420666f7220616c6c00006064820152608401610a88565b610aa98383613bd2565b60006129f1613c40565b905090565b6001600160a01b038216612a4c5760405162461bcd60e51b815260206004820181905260248201527f4552433732313a206d696e7420746f20746865207a65726f20616464726573736044820152606401610a88565b6000818152606760205260409020546001600160a01b031615612ab15760405162461bcd60e51b815260206004820152601c60248201527f4552433732313a20746f6b656e20616c7265616479206d696e746564000000006044820152606401610a88565b612abd60008383613c5c565b6001600160a01b0382166000908152606860205260408120805460019290612ae690849061542a565b909155505060008181526067602052604080822080546001600160a01b0319166001600160a01b03861690811790915590518392907fddf252ad1be2c89b69c2b068fc378daa952ba7f163c4a11628f55a4df523b3ef908290a45050565b6000612b4e6130c1565b9050612b5a8183613bd2565b6000805160206155f383398151915254604080516020808201869052825180830390910181528183019283905263e3dec8fb60e01b9092526001600160a01b0390921691829163e3dec8fb91612bb79188913091906044016150a3565b600060405180830381600087803b158015612bd157600080fd5b505af11580156112af573d6000803e3d6000fd5b6060610e7383604051602001612bfb9190615009565b6040516020818303038152906040528051906020012060001c83613d38565b6060612c2585612896565b600080876001600160a01b031686612c3f8b8a8989613e1a565b604051612c4c9190615009565b60006040518083038160008787f1925050503d8060008114612c8a576040519150601f19603f3d011682016040523d82523d6000602084013e612c8f565b606091505b509092509050612ca0603f87615442565b5a11612cbc57634e487b7160e01b600052600160045260246000fd5b612cfc82826040518060400160405280601a81526020017f42617365466f727761726465723a2043414c4c5f4641494c4544000000000000815250613e4a565b9998505050505050505050565b600080612d1583611456565b9050806001600160a01b0316846001600160a01b03161480612d5c57506001600160a01b038082166000908152606a602090815260408083209388168352929052205460ff165b80610d675750836001600160a01b0316612d7584610a32565b6001600160a01b031614949350505050565b612d9081613e83565b604051602001612da291815260200190565b60408051601f198184030181528282528051602091820120600085815260cb9092529181209190915582917f185c30856dadb58bf097c1f665a52ada7029752dbcad008ea3fefc73bee8c9fe9190a250565b826001600160a01b0316612e0782611456565b6001600160a01b031614612e6b5760405162461bcd60e51b815260206004820152602560248201527f4552433732313a207472616e736665722066726f6d20696e636f72726563742060448201526437bbb732b960d91b6064820152608401610a88565b6001600160a01b038216612ecd5760405162461bcd60e51b8152602060048201526024808201527f4552433732313a207472616e7366657220746f20746865207a65726f206164646044820152637265737360e01b6064820152608401610a88565b612ed8838383613c5c565b612ee3600082613bd2565b6001600160a01b0383166000908152606860205260408120805460019290612f0c908490615456565b90915550506001600160a01b0382166000908152606860205260408120805460019290612f3a90849061542a565b909155505060008181526067602052604080822080546001600160a01b0319166001600160a01b0386811691821790925591518493918716917fddf252ad1be2c89b69c2b068fc378daa952ba7f163c4a11628f55a4df523b3ef91a4505050565b60005b8481101561139c57613008868683818110612fc957634e487b7160e01b600052603260045260246000fd5b90506020020135858584818110612ff057634e487b7160e01b600052603260045260246000fd5b905060200281019061300291906153b6565b8561330e565b8061301281615556565b915050612f9e565b600061302582611456565b905061303381600084613c5c565b61303e600083613bd2565b6001600160a01b0381166000908152606860205260408120805460019290613067908490615456565b909155505060008281526067602052604080822080546001600160a01b0319169055518391906001600160a01b038416907fddf252ad1be2c89b69c2b068fc378daa952ba7f163c4a11628f55a4df523b3ef908390a45050565b6000806000805160206155f38339815191525460405163721804d360e11b81523060048201526001600160a01b039091169150600090829063e43009a69060240160206040518083038186803b15801561311a57600080fd5b505afa15801561312e573d6000803e3d6000fd5b505050506040513d601f19601f820116820180604052508101906131529190614c4e565b60405163e66f960360e01b8152600481018290529091506001600160a01b0383169063e66f96039060240160206040518083038186803b15801561319557600080fd5b505afa1580156131a9573d6000803e3d6000fd5b505050506040513d601f19601f820116820180604052508101906131cd9190614613565b9250505090565b613217898989898080601f016020809104026020016040519081016040528093929190818152602001838380828437600092019190915250879250613930915050565b613224858585858c6135ee565b505050505050505050565b60008585604051602001613244929190615064565b60408051601f198184030181528282528051602091820120601f890182900482028401820190925287835290925061329891839189908990819084018382808284376000920191909152506133ae92505050565b61139c8187878080601f01602080910402602001604051908101604052809392919081815260200183838082843760009201919091525050604080516020601f8b018190048102820181019092528981529250899150889081908401838280828437600092019190915250889250613eaf915050565b61331784613fea565b6133635760405162461bcd60e51b815260206004820152601c60248201527f5265636f726453746f726167653a204b45595f4e4f545f464f554e44000000006044820152606401610a88565b61196584613370866120a0565b85858080601f016020809104026020016040519081016040528093929190818152602001838380828437600092019190915250879250613eaf915050565b6133b782613fea565b6111b257600082815260c9602090815260409091208251610aa992840190614457565b6060806133e6846120a0565b91506133f28484613d38565b90509250929050565b60008151600014156134475760405162461bcd60e51b815260206004820152601560248201527452656769737472793a204c4142454c5f454d50545960581b6044820152606401610a88565b82826040516020016134599190615009565b60405160208183030381529060405280519060200120604051602001613489929190918252602082015260400190565b60408051601f1981840301815291905280516020909101209392505050565b6001600160a01b03821660008181526101356020526040808220849055518392917feb76a21470988c474a21f690cc28fee1ed511bd812dc3c21fd0f49c5e5d4708a91a35050565b6001600160a01b03811660008181526101356020526040808220829055517ffcf5eec0cfa3e6332f5f0e63ec242d71f866a61d121d6cdf5c2eb3b668a26c4f9190a250565b6000818152610137602052604081205460ff16801561099a5750610136600061355c6129e7565b6001600160a01b0316815260208101919091526040016000205460ff1692915050565b6000805160206155f383398151915254604051633805550f60e01b81526001600160a01b03909116908190633805550f906135c0908690869060040161518d565b600060405180830381600087803b1580156135da57600080fd5b505af1158015610f72573d6000803e3d6000fd5b60005b8481101561139c5761366686868381811061361c57634e487b7160e01b600052603260045260246000fd5b905060200281019061362e91906153b6565b86868581811061364e57634e487b7160e01b600052603260045260246000fd5b905060200281019061366091906153b6565b8661322f565b8061367081615556565b9150506135f1565b816001600160a01b0316836001600160a01b031614156136da5760405162461bcd60e51b815260206004820152601960248201527f4552433732313a20617070726f766520746f2063616c6c6572000000000000006044820152606401610a88565b6001600160a01b038381166000818152606a6020908152604080832094871680845294825291829020805460ff191686151590811790915591519182527f17307eab39ab6107e8899845ad3d59bd9653f200f220920489ca2b5937696c31910160405180910390a3505050565b6040838101519051636ccbae5f60e01b8152600481019190915260009081903090636ccbae5f9060240160206040518083038186803b15801561378957600080fd5b505afa15801561379d573d6000803e3d6000fd5b505050506040513d601f19601f820116820180604052508101906137c19190614c4e565b9050600061386f86606001518051906020012086886020015160405160200161380f9392919092835260609190911b6bffffffffffffffffffffffff19166020830152603482015260540190565b60408051601f1981840301815282825280516020918201207f19457468657265756d205369676e6564204d6573736167653a0a33320000000084830152603c8085019190915282518085039091018152605c909301909152815191012090565b905081866020015114801561389557508551613895906001600160a01b03168286614010565b9695505050505050565b6138a983836129f6565b817fc5beef08f693b11c316c0c8394a377a0033c9cf701b8cd8afd79cecef60c3952826040516138d991906151a1565b60405180910390a2604051631b72ef0960e31b815261013560048201526001600160a01b03841660248201526044810183905273__$6c54a4ed88ef48b38e89e3cb7bc0cd5714$__9063db9778489060640161113d565b61393b848483614160565b827fc5beef08f693b11c316c0c8394a377a0033c9cf701b8cd8afd79cecef60c39528360405161396b91906151a1565b60405180910390a2604051631b72ef0960e31b815261013560048201526001600160a01b03851660248201526044810184905273__$6c54a4ed88ef48b38e89e3cb7bc0cd5714$__9063db9778489060640160006040518083038186803b1580156139d557600080fd5b505af41580156112af573d6000803e3d6000fd5b6139f4848484612df4565b613a0084848484614193565b6119655760405162461bcd60e51b8152600401610a8890615259565b600054610100900460ff16613a435760405162461bcd60e51b8152600401610a8890615329565b8151613a56906065906020850190614457565b508051610aa9906066906020840190614457565b600054610100900460ff16613a915760405162461bcd60e51b8152600401610a8890615329565b565b606061013380546109af90615521565b606081613ac75750506040805180820190915260018152600360fc1b602082015290565b8160005b8115613af15780613adb81615556565b9150613aea9050600a83615442565b9150613acb565b6000816001600160401b03811115613b1957634e487b7160e01b600052604160045260246000fd5b6040519080825280601f01601f191660200182016040528015613b43576020820181803683370190505b5090505b8415610d6757613b58600183615456565b9150613b65600a86615571565b613b7090603061542a565b60f81b818381518110613b9357634e487b7160e01b600052603260045260246000fd5b60200101906001600160f81b031916908160001a905350613bb5600a86615442565b9450613b47565b613bc581612d87565b610ef985858585856135ee565b600081815260696020526040902080546001600160a01b0319166001600160a01b0384169081179091558190613c0782611456565b6001600160a01b03167f8c5be1e5ebec7d5bd14f71427d1e84f3dd0314c0f7b2291e5b200ac8c7c3b92560405160405180910390a45050565b600030331415613c57575060331936013560601c90565b503390565b6000818152610137602052604090205460ff161580613c8357506001600160a01b03821615155b613ccf5760405162461bcd60e51b815260206004820152601860248201527f52656769737472793a20544f4b454e5f555047524144454400000000000000006044820152606401610a88565b6001600160a01b03831660009081526101356020526040902054811415610aa957604051632c0e96c360e01b815261013560048201526001600160a01b038416602482015273__$6c54a4ed88ef48b38e89e3cb7bc0cd5714$__90632c0e96c39060440161113d565b6060613d4382613535565b15613d5d575060408051602081019091526000815261099a565b60ca6000613d6a84613e83565b815260200190815260200160002060008481526020019081526020016000208054613d9490615521565b80601f0160208091040260200160405190810160405280929190818152602001828054613dc090615521565b8015613e0d5780601f10613de257610100808354040283529160200191613e0d565b820191906000526020600020905b815481529060010190602001808311613df057829003601f168201915b5050505050905092915050565b6060828585604051602001613e3193929190615025565b6040516020818303038152906040529050949350505050565b60608315613e59575081610e73565b825115613e695782518084602001fd5b8160405162461bcd60e51b8152600401610a8891906151a1565b600081815260cb602052604081205415613eab57600082815260cb602052604090205461099a565b5090565b60ca6000613ebc83613e83565b815260200190815260200160002060008581526020019081526020016000208054613ee690615521565b15159050613f3d5782604051613efc9190615009565b6040518091039020817f7ae4f661958fbecc2f77be6b0eb280d2a6f604b29e1e7221c82b9da0c4af7f8685604051613f3491906151a1565b60405180910390a35b8160ca6000613f4b84613e83565b815260200190815260200160002060008681526020019081526020016000209080519060200190613f7d929190614457565b5081604051613f8c9190615009565b604051809103902083604051613fa29190615009565b6040518091039020827f851ffe8e74d5015261dba0a1f9e1b0e5d42c5af5d2ad1908fee897c7d80a0d928686604051613fdc9291906151b4565b60405180910390a450505050565b600081815260c960205260408120805482919061400690615521565b9050119050919050565b600080600061401f85856142a4565b9092509050600081600481111561404657634e487b7160e01b600052602160045260246000fd5b1480156140645750856001600160a01b0316826001600160a01b0316145b1561407457600192505050610e73565b600080876001600160a01b0316631626ba7e60e01b888860405160240161409c929190615174565b60408051601f198184030181529181526020820180516001600160e01b03166001600160e01b03199094169390931790925290516140da9190615009565b600060405180830381855afa9150503d8060008114614115576040519150601f19603f3d011682016040523d82523d6000602084013e61411a565b606091505b509150915081801561412d575080516020145b801561415457508051630b135d3f60e11b906141529083016020908101908401614c4e565b145b98975050505050505050565b61416a83836129f6565b6141776000848484614193565b610aa95760405162461bcd60e51b8152600401610a8890615259565b60006001600160a01b0384163b1561429c57836001600160a01b031663150b7a026141bc6129e7565b8786866040518563ffffffff1660e01b81526004016141de94939291906150cf565b602060405180830381600087803b1580156141f857600080fd5b505af1925050508015614228575060408051601f3d908101601f1916820190925261422591810190614c82565b60015b614282573d808015614256576040519150601f19603f3d011682016040523d82523d6000602084013e61425b565b606091505b50805161427a5760405162461bcd60e51b8152600401610a8890615259565b805181602001fd5b6001600160e01b031916630a85bd0160e11b149050610d67565b506001610d67565b6000808251604114156142db5760208301516040840151606085015160001a6142cf878285856142ea565b945094505050506142e3565b506000905060025b9250929050565b6000807f7fffffffffffffffffffffffffffffff5d576e7357a4501ddfe92f46681b20a083111561432157506000905060036143ce565b8460ff16601b1415801561433957508460ff16601c14155b1561434a57506000905060046143ce565b6040805160008082526020820180845289905260ff881692820192909252606081018690526080810185905260019060a0016020604051602081039080840390855afa15801561439e573d6000803e3d6000fd5b5050604051601f1901519150506001600160a01b0381166143c7576000600192509250506143ce565b9150600090505b94509492505050565b8280546143e390615521565b90600052602060002090601f016020900481019282614405576000855561444b565b82601f1061441e5782800160ff1982351617855561444b565b8280016001018555821561444b579182015b8281111561444b578235825591602001919060010190614430565b50613eab9291506144cb565b82805461446390615521565b90600052602060002090601f016020900481019282614485576000855561444b565b82601f1061449e57805160ff191683800117855561444b565b8280016001018555821561444b579182015b8281111561444b5782518255916020019190600101906144b0565b5b80821115613eab57600081556001016144cc565b60006001600160401b038311156144f9576144f96155b1565b61450c601f8401601f19166020016153fa565b905082815283838301111561452057600080fd5b828260208301376000602084830101529392505050565b8035614542816155c7565b919050565b60008083601f840112614558578182fd5b5081356001600160401b0381111561456e578182fd5b6020830191508360208260051b85010111156142e357600080fd5b8035801515811461454257600080fd5b60008083601f8401126145aa578182fd5b5081356001600160401b038111156145c0578182fd5b6020830191508360208285010111156142e357600080fd5b600082601f8301126145e8578081fd5b610e73838335602085016144e0565b600060208284031215614608578081fd5b8135610e73816155c7565b600060208284031215614624578081fd5b8151610e73816155c7565b60008060408385031215614641578081fd5b823561464c816155c7565b9150602083013561465c816155c7565b809150509250929050565b60008060006060848603121561467b578081fd5b8335614686816155c7565b92506020840135614696816155c7565b929592945050506040919091013590565b6000806000806000608086880312156146be578081fd5b85356146c9816155c7565b945060208601356146d9816155c7565b93506040860135925060608601356001600160401b038111156146fa578182fd5b61470688828901614599565b969995985093965092949392505050565b6000806000806080858703121561472c578182fd5b8435614737816155c7565b93506020850135614747816155c7565b92506040850135915060608501356001600160401b03811115614768578182fd5b614774878288016145d8565b91505092959194509250565b60008060408385031215614792578182fd5b823561479d816155c7565b91506133f260208401614589565b6000806000604084860312156147bf578081fd5b83356147ca816155c7565b925060208401356001600160401b038111156147e4578182fd5b6147f086828701614599565b9497909650939450505050565b6000806040838503121561480f578182fd5b823561481a816155c7565b946020939093013593505050565b6000806000806060858703121561483d578182fd5b8435614848816155c7565b93506020850135925060408501356001600160401b03811115614869578283fd5b61487587828801614599565b95989497509550505050565b60008060008060008060008060a0898b03121561489c578586fd5b88356148a7816155c7565b97506020890135965060408901356001600160401b03808211156148c9578788fd5b6148d58c838d01614599565b909850965060608b01359150808211156148ed578485fd5b6148f98c838d01614547565b909650945060808b0135915080821115614911578384fd5b5061491e8b828c01614547565b999c989b5096995094979396929594505050565b60008060008060008060008060008060c08b8d031215614950578384fd5b6149598b614537565b995060208b0135985060408b01356001600160401b038082111561497b578586fd5b6149878e838f01614599565b909a50985060608d013591508082111561499f578586fd5b6149ab8e838f01614547565b909850965060808d01359150808211156149c3578586fd5b6149cf8e838f01614547565b909650945060a08d01359150808211156149e7578384fd5b506149f48d828e01614599565b915080935050809150509295989b9194979a5092959850565b60008060008060008060808789031215614a25578384fd5b8635614a30816155c7565b95506020870135945060408701356001600160401b0380821115614a52578586fd5b614a5e8a838b01614599565b90965094506060890135915080821115614a76578384fd5b50614a8389828a01614599565b979a9699509497509295939492505050565b600080600080600060608688031215614aac578283fd5b85356001600160401b0380821115614ac2578485fd5b614ace89838a01614547565b90975095506020880135915080821115614ae6578485fd5b50614af388828901614547565b96999598509660400135949350505050565b600080600060408486031215614b19578081fd5b83356001600160401b03811115614b2e578182fd5b614b3a86828701614547565b909790965060209590950135949350505050565b60008060208385031215614b60578182fd5b82356001600160401b03811115614b75578283fd5b614b8185828601614547565b90969095509350505050565b60006020808385031215614b9f578182fd5b82356001600160401b0380821115614bb5578384fd5b818501915085601f830112614bc8578384fd5b813581811115614bda57614bda6155b1565b8060051b9150614beb8483016153fa565b8181528481019084860184860187018a1015614c05578788fd5b8795505b83861015614c27578035835260019590950194918601918601614c09565b5098975050505050505050565b600060208284031215614c45578081fd5b610e7382614589565b600060208284031215614c5f578081fd5b5051919050565b600060208284031215614c77578081fd5b8135610e73816155dc565b600060208284031215614c93578081fd5b8151610e73816155dc565b60008060008060008060006080888a031215614cb8578081fd5b87356001600160401b0380821115614cce578283fd5b614cda8b838c01614599565b909950975060208a0135965060408a0135915080821115614cf9578283fd5b614d058b838c01614547565b909650945060608a0135915080821115614d1d578283fd5b50614d2a8a828b01614547565b989b979a50959850939692959293505050565b60008060208385031215614d4f578182fd5b82356001600160401b03811115614d64578283fd5b614b8185828601614599565b600080600080600060608688031215614d87578283fd5b85356001600160401b0380821115614d9d578485fd5b614da989838a01614599565b90975095506020880135915080821115614dc1578485fd5b50614af388828901614599565b600080600060408486031215614de2578081fd5b83356001600160401b03811115614df7578182fd5b614b3a86828701614599565b600060208284031215614e14578081fd5b81356001600160401b03811115614e29578182fd5b8201601f81018413614e39578182fd5b610d67848235602084016144e0565b600080600060408486031215614e5c578081fd5b83356001600160401b0380821115614e72578283fd5b9085019060808288031215614e85578283fd5b90935060208501359080821115614e9a578283fd5b506147f086828701614599565b600060208284031215614eb8578081fd5b5035919050565b600080600060408486031215614ed3578081fd5b8335925060208401356001600160401b038111156147e4578182fd5b60008060008060608587031215614f04578182fd5b8435935060208501356001600160401b03811115614f20578283fd5b614f2c87828801614599565b9598909750949560400135949350505050565b60008060408385031215614f51578182fd5b50508035926020909101359150565b600081518084526020808501808196508360051b81019150828601855b85811015614fa7578284038952614f95848351614fdd565b98850198935090840190600101614f7d565b5091979650505050505050565b81835281816020850137506000828201602090810191909152601f909101601f19169091010190565b60008151808452614ff58160208601602086016154f5565b601f01601f19169290920160200192915050565b6000825161501b8184602087016154f5565b9190910192915050565b600084516150378184602089016154f5565b60609490941b6bffffffffffffffffffffffff191691909301908152601481019190915260340192915050565b8183823760009101908152919050565b600083516150868184602088016154f5565b83519083019061509a8183602088016154f5565b01949350505050565b6001600160a01b03848116825283166020820152606060408201819052600090610bfb90830184614fdd565b6001600160a01b038581168252841660208201526040810183905260806060820181905260009061389590830184614fdd565b602081526000610e736020830184614f60565b6040815260006151286040830185614f60565b8281036020840152610e6f8185614f60565b6020808252810182905260006001600160fb1b03831115615159578081fd5b8260051b808560408501379190910160400190815292915050565b828152604060208201526000610d676040830184614fdd565b602081526000610d67602083018486614fb4565b602081526000610e736020830184614fdd565b6040815260006151c76040830185614fdd565b8281036020840152610e6f8185614fdd565b6020808252601d908201527f52656769737472793a2053454e4445525f49535f4e4f545f4f574e4552000000604082015260600190565b60208082526029908201527f52656769737472793a2053454e4445525f49535f4e4f545f415050524f5645446040820152682fa7a92fa7aba722a960b91b606082015260800190565b60208082526032908201527f4552433732313a207472616e7366657220746f206e6f6e20455243373231526560408201527131b2b4bb32b91034b6b83632b6b2b73a32b960711b606082015260800190565b60208082526027908201527f52656769737472793a2053454e4445525f49535f4e4f545f4d494e54494e475f60408201526626a0a720a3a2a960c91b606082015260800190565b60208082526017908201527f52656769737472793a20544f4b454e5f494e56414c4944000000000000000000604082015260600190565b6020808252602b908201527f496e697469616c697a61626c653a20636f6e7472616374206973206e6f74206960408201526a6e697469616c697a696e6760a81b606082015260800190565b60208082526022908201527f52656769737472793a20494e53554646494349454e545f5045524d495353494f6040820152614e5360f01b606082015260800190565b6000808335601e198436030181126153cc578283fd5b8301803591506001600160401b038211156153e5578283fd5b6020019150368190038213156142e357600080fd5b604051601f8201601f191681016001600160401b0381118282101715615422576154226155b1565b604052919050565b6000821982111561543d5761543d615585565b500190565b6000826154515761545161559b565b500490565b60008282101561546857615468615585565b500390565b60006080823603121561547e578081fd5b604051608081016001600160401b0382821081831117156154a1576154a16155b1565b81604052843591506154b2826155c7565b818352602085013560208401526040850135604084015260608501359150808211156154dc578384fd5b506154e9368286016145d8565b60608301525092915050565b60005b838110156155105781810151838201526020016154f8565b838111156119655750506000910152565b600181811c9082168061553557607f821691505b6020821081141561187757634e487b7160e01b600052602260045260246000fd5b600060001982141561556a5761556a615585565b5060010190565b6000826155805761558061559b565b500690565b634e487b7160e01b600052601160045260246000fd5b634e487b7160e01b600052601260045260246000fd5b634e487b7160e01b600052604160045260246000fd5b6001600160a01b0381168114610ff457600080fd5b6001600160e01b031981168114610ff457600080fdfebe2bb46ac0377341a1ec5c3116d70fd5029d704bd46292e58f6265dd177ebafea164736f6c6343000804000a",
  "linkReferences": {
    "contracts/libraries/ReverseLogic.sol": {
      "ReverseLogic": [
        {
          "length": 20,
          "start": 4358
        },
        {
          "length": 20,
          "start": 9882
        },
        {
          "length": 20,
          "start": 14639
        },
        {
          "length": 20,
          "start": 14785
        },
        {
          "length": 20,
          "start": 15671
        }
      ]
    }
  },
  "deployedLinkReferences": {
    "contracts/libraries/ReverseLogic.sol": {
      "ReverseLogic": [
        {
          "length": 20,
          "start": 4325
        },
        {
          "length": 20,
          "start": 9849
        },
        {
          "length": 20,
          "start": 14606
        },
        {
          "length": 20,
          "start": 14752
        },
        {
          "length": 20,
          "start": 15638
        }
      ]
    }
  }
}