{
  "_format": "hh-sol-artifact-1",
  "contractName": "UNSRegistry",
  "sourceName": "contracts/UNSRegistry.sol",
  "abi": [
    {
      "anonymous": false,
      "inputs": [
        {
          "indexed": false,
          "internalType": "address",
          "name": "previousAdmin",
          "type": "address"
        },
        {
          "indexed": false,
          "internalType": "address",
          "name": "newAdmin",
          "type": "address"
        }
      ],
      "name": "AdminChanged",
      "type": "event"
    },
    {
      "anonymous": false,
      "inputs": [
        {
          "indexed": true,
          "internalType": "address",
          "name": "owner",
          "type": "address"
        },
        {
          "indexed": true,
          "internalType": "address",
          "name": "approved",
          "type": "address"
        },
        {
          "indexed": true,
          "internalType": "uint256",
          "name": "tokenId",
          "type": "uint256"
        }
      ],
      "name": "Approval",
      "type": "event"
    },
    {
      "anonymous": false,
      "inputs": [
        {
          "indexed": true,
          "internalType": "address",
          "name": "owner",
          "type": "address"
        },
        {
          "indexed": true,
          "internalType": "address",
          "name": "operator",
          "type": "address"
        },
        {
          "indexed": false,
          "internalType": "bool",
          "name": "approved",
          "type": "bool"
        }
      ],
      "name": "ApprovalForAll",
      "type": "event"
    },
    {
      "anonymous": false,
      "inputs": [
        {
          "indexed": true,
          "internalType": "uint256",
          "name": "tokenId",
          "type": "uint256"
        },
        {
          "indexed": true,
          "internalType": "string",
          "name": "keyIndex",
          "type": "string"
        },
        {
          "indexed": false,
          "internalType": "string",
          "name": "key",
          "type": "string"
        }
      ],
      "name": "NewKey",
      "type": "event"
    },
    {
      "anonymous": false,
      "inputs": [
        {
          "indexed": true,
          "internalType": "uint256",
          "name": "tokenId",
          "type": "uint256"
        },
        {
          "indexed": false,
          "internalType": "string",
          "name": "uri",
          "type": "string"
        }
      ],
      "name": "NewURI",
      "type": "event"
    },
    {
      "anonymous": false,
      "inputs": [
        {
          "indexed": false,
          "internalType": "string",
          "name": "prefix",
          "type": "string"
        }
      ],
      "name": "NewURIPrefix",
      "type": "event"
    },
    {
      "anonymous": false,
      "inputs": [
        {
          "indexed": true,
          "internalType": "uint256",
          "name": "tokenId",
          "type": "uint256"
        }
      ],
      "name": "ResetRecords",
      "type": "event"
    },
    {
      "anonymous": false,
      "inputs": [
        {
          "indexed": true,
          "internalType": "uint256",
          "name": "tokenId",
          "type": "uint256"
        },
        {
          "indexed": true,
          "internalType": "string",
          "name": "keyIndex",
          "type": "string"
        },
        {
          "indexed": true,
          "internalType": "string",
          "name": "valueIndex",
          "type": "string"
        },
        {
          "indexed": false,
          "internalType": "string",
          "name": "key",
          "type": "string"
        },
        {
          "indexed": false,
          "internalType": "string",
          "name": "value",
          "type": "string"
        }
      ],
      "name": "Set",
      "type": "event"
    },
    {
      "anonymous": false,
      "inputs": [
        {
          "indexed": true,
          "internalType": "address",
          "name": "from",
          "type": "address"
        },
        {
          "indexed": true,
          "internalType": "address",
          "name": "to",
          "type": "address"
        },
        {
          "indexed": true,
          "internalType": "uint256",
          "name": "tokenId",
          "type": "uint256"
        }
      ],
      "name": "Transfer",
      "type": "event"
    },
    {
      "anonymous": false,
      "inputs": [
        {
          "indexed": true,
          "internalType": "address",
          "name": "implementation",
          "type": "address"
        }
      ],
      "name": "Upgraded",
      "type": "event"
    },
    {
      "anonymous": false,
      "inputs": [
        {
          "indexed": true,
          "internalType": "address",
          "name": "user",
          "type": "address"
        },
        {
          "indexed": false,
          "internalType": "uint256[]",
          "name": "tokenIds",
          "type": "uint256[]"
        }
      ],
      "name": "WithdrawnBatch",
      "type": "event"
    },
    {
      "inputs": [],
      "name": "BATCH_LIMIT",
      "outputs": [
        {
          "internalType": "uint256",
          "name": "",
          "type": "uint256"
        }
      ],
      "stateMutability": "view",
      "type": "function"
    },
    {
      "inputs": [],
      "name": "NAME",
      "outputs": [
        {
          "internalType": "string",
          "name": "",
          "type": "string"
        }
      ],
      "stateMutability": "view",
      "type": "function"
    },
    {
      "inputs": [],
      "name": "VERSION",
      "outputs": [
        {
          "internalType": "string",
          "name": "",
          "type": "string"
        }
      ],
      "stateMutability": "view",
      "type": "function"
    },
    {
      "inputs": [
        {
          "internalType": "string",
          "name": "key",
          "type": "string"
        }
      ],
      "name": "addKey",
      "outputs": [],
      "stateMutability": "nonpayable",
      "type": "function"
    },
    {
      "inputs": [
        {
          "internalType": "address",
          "name": "to",
          "type": "address"
        },
        {
          "internalType": "uint256",
          "name": "tokenId",
          "type": "uint256"
        }
      ],
      "name": "approve",
      "outputs": [],
      "stateMutability": "nonpayable",
      "type": "function"
    },
    {
      "inputs": [
        {
          "internalType": "address",
          "name": "owner",
          "type": "address"
        }
      ],
      "name": "balanceOf",
      "outputs": [
        {
          "internalType": "uint256",
          "name": "",
          "type": "uint256"
        }
      ],
      "stateMutability": "view",
      "type": "function"
    },
    {
      "inputs": [
        {
          "internalType": "uint256",
          "name": "tokenId",
          "type": "uint256"
        }
      ],
      "name": "burn",
      "outputs": [],
      "stateMutability": "nonpayable",
      "type": "function"
    },
    {
      "inputs": [
        {
          "internalType": "uint256",
          "name": "tokenId",
          "type": "uint256"
        },
        {
          "internalType": "string",
          "name": "label",
          "type": "string"
        }
      ],
      "name": "childIdOf",
      "outputs": [
        {
          "internalType": "uint256",
          "name": "",
          "type": "uint256"
        }
      ],
      "stateMutability": "pure",
      "type": "function"
    },
    {
      "inputs": [
        {
          "internalType": "address",
          "name": "user",
          "type": "address"
        },
        {
          "internalType": "bytes",
          "name": "depositData",
          "type": "bytes"
        }
      ],
      "name": "deposit",
      "outputs": [],
      "stateMutability": "nonpayable",
      "type": "function"
    },
    {
      "inputs": [
        {
          "internalType": "uint256",
          "name": "tokenId",
          "type": "uint256"
        }
      ],
      "name": "depositToPolygon",
      "outputs": [],
      "stateMutability": "nonpayable",
      "type": "function"
    },
    {
      "inputs": [
        {
          "components": [
            {
              "internalType": "address",
              "name": "from",
              "type": "address"
            },
            {
              "internalType": "uint256",
              "name": "nonce",
              "type": "uint256"
            },
            {
              "internalType": "uint256",
              "name": "tokenId",
              "type": "uint256"
            },
            {
              "internalType": "bytes",
              "name": "data",
              "type": "bytes"
            }
          ],
          "internalType": "struct IForwarder.ForwardRequest",
          "name": "req",
          "type": "tuple"
        },
        {
          "internalType": "bytes",
          "name": "signature",
          "type": "bytes"
        }
      ],
      "name": "execute",
      "outputs": [
        {
          "internalType": "bytes",
          "name": "",
          "type": "bytes"
        }
      ],
      "stateMutability": "nonpayable",
      "type": "function"
    },
    {
      "inputs": [
        {
          "internalType": "uint256",
          "name": "tokenId",
          "type": "uint256"
        }
      ],
      "name": "exists",
      "outputs": [
        {
          "internalType": "bool",
          "name": "",
          "type": "bool"
        }
      ],
      "stateMutability": "view",
      "type": "function"
    },
    {
      "inputs": [
        {
          "internalType": "string",
          "name": "key",
          "type": "string"
        },
        {
          "internalType": "uint256",
          "name": "tokenId",
          "type": "uint256"
        }
      ],
      "name": "get",
      "outputs": [
        {
          "internalType": "string",
          "name": "value",
          "type": "string"
        }
      ],
      "stateMutability": "view",
      "type": "function"
    },
    {
      "inputs": [
        {
          "internalType": "uint256",
          "name": "tokenId",
          "type": "uint256"
        }
      ],
      "name": "getApproved",
      "outputs": [
        {
          "internalType": "address",
          "name": "",
          "type": "address"
        }
      ],
      "stateMutability": "view",
      "type": "function"
    },
    {
      "inputs": [
        {
          "internalType": "uint256",
          "name": "keyHash",
          "type": "uint256"
        },
        {
          "internalType": "uint256",
          "name": "tokenId",
          "type": "uint256"
        }
      ],
      "name": "getByHash",
      "outputs": [
        {
          "internalType": "string",
          "name": "key",
          "type": "string"
        },
        {
          "internalType": "string",
          "name": "value",
          "type": "string"
        }
      ],
      "stateMutability": "view",
      "type": "function"
    },
    {
      "inputs": [
        {
          "internalType": "uint256",
          "name": "keyHash",
          "type": "uint256"
        }
      ],
      "name": "getKey",
      "outputs": [
        {
          "internalType": "string",
          "name": "",
          "type": "string"
        }
      ],
      "stateMutability": "view",
      "type": "function"
    },
    {
      "inputs": [
        {
          "internalType": "uint256[]",
          "name": "hashes",
          "type": "uint256[]"
        }
      ],
      "name": "getKeys",
      "outputs": [
        {
          "internalType": "string[]",
          "name": "values",
          "type": "string[]"
        }
      ],
      "stateMutability": "view",
      "type": "function"
    },
    {
      "inputs": [
        {
          "internalType": "string[]",
          "name": "keys",
          "type": "string[]"
        },
        {
          "internalType": "uint256",
          "name": "tokenId",
          "type": "uint256"
        }
      ],
      "name": "getMany",
      "outputs": [
        {
          "internalType": "string[]",
          "name": "values",
          "type": "string[]"
        }
      ],
      "stateMutability": "view",
      "type": "function"
    },
    {
      "inputs": [
        {
          "internalType": "uint256[]",
          "name": "keyHashes",
          "type": "uint256[]"
        },
        {
          "internalType": "uint256",
          "name": "tokenId",
          "type": "uint256"
        }
      ],
      "name": "getManyByHash",
      "outputs": [
        {
          "internalType": "string[]",
          "name": "keys",
          "type": "string[]"
        },
        {
          "internalType": "string[]",
          "name": "values",
          "type": "string[]"
        }
      ],
      "stateMutability": "view",
      "type": "function"
    },
    {
      "inputs": [
        {
          "internalType": "address",
          "name": "mintingManager",
          "type": "address"
        }
      ],
      "name": "initialize",
      "outputs": [],
      "stateMutability": "nonpayable",
      "type": "function"
    },
    {
      "inputs": [
        {
          "internalType": "address",
          "name": "owner",
          "type": "address"
        },
        {
          "internalType": "address",
          "name": "operator",
          "type": "address"
        }
      ],
      "name": "isApprovedForAll",
      "outputs": [
        {
          "internalType": "bool",
          "name": "",
          "type": "bool"
        }
      ],
      "stateMutability": "view",
      "type": "function"
    },
    {
      "inputs": [
        {
          "internalType": "address",
          "name": "spender",
          "type": "address"
        },
        {
          "internalType": "uint256",
          "name": "tokenId",
          "type": "uint256"
        }
      ],
      "name": "isApprovedOrOwner",
      "outputs": [
        {
          "internalType": "bool",
          "name": "",
          "type": "bool"
        }
      ],
      "stateMutability": "view",
      "type": "function"
    },
    {
      "inputs": [
        {
          "internalType": "address",
          "name": "forwarder",
          "type": "address"
        }
      ],
      "name": "isTrustedForwarder",
      "outputs": [
        {
          "internalType": "bool",
          "name": "",
          "type": "bool"
        }
      ],
      "stateMutability": "view",
      "type": "function"
    },
    {
      "inputs": [
        {
          "internalType": "address",
          "name": "user",
          "type": "address"
        },
        {
          "internalType": "uint256",
          "name": "tokenId",
          "type": "uint256"
        }
      ],
      "name": "mint",
      "outputs": [],
      "stateMutability": "nonpayable",
      "type": "function"
    },
    {
      "inputs": [
        {
          "internalType": "address",
          "name": "user",
          "type": "address"
        },
        {
          "internalType": "uint256",
          "name": "tokenId",
          "type": "uint256"
        },
        {
          "internalType": "bytes",
          "name": "",
          "type": "bytes"
        }
      ],
      "name": "mint",
      "outputs": [],
      "stateMutability": "nonpayable",
      "type": "function"
    },
    {
      "inputs": [
        {
          "internalType": "address",
          "name": "to",
          "type": "address"
        },
        {
          "internalType": "uint256",
          "name": "tokenId",
          "type": "uint256"
        },
        {
          "internalType": "string",
          "name": "uri",
          "type": "string"
        }
      ],
      "name": "mint",
      "outputs": [],
      "stateMutability": "nonpayable",
      "type": "function"
    },
    {
      "inputs": [
        {
          "internalType": "address",
          "name": "to",
          "type": "address"
        },
        {
          "internalType": "uint256",
          "name": "tokenId",
          "type": "uint256"
        },
        {
          "internalType": "string",
          "name": "uri",
          "type": "string"
        },
        {
          "internalType": "string[]",
          "name": "keys",
          "type": "string[]"
        },
        {
          "internalType": "string[]",
          "name": "values",
          "type": "string[]"
        }
      ],
      "name": "mintWithRecords",
      "outputs": [],
      "stateMutability": "nonpayable",
      "type": "function"
    },
    {
      "inputs": [],
      "name": "name",
      "outputs": [
        {
          "internalType": "string",
          "name": "",
          "type": "string"
        }
      ],
      "stateMutability": "view",
      "type": "function"
    },
    {
      "inputs": [
        {
          "internalType": "uint256",
          "name": "tokenId",
          "type": "uint256"
        }
      ],
      "name": "nonceOf",
      "outputs": [
        {
          "internalType": "uint256",
          "name": "",
          "type": "uint256"
        }
      ],
      "stateMutability": "view",
      "type": "function"
    },
    {
      "inputs": [
        {
          "internalType": "address",
          "name": "",
          "type": "address"
        },
        {
          "internalType": "address",
          "name": "from",
          "type": "address"
        },
        {
          "internalType": "uint256",
          "name": "tokenId",
          "type": "uint256"
        },
        {
          "internalType": "bytes",
          "name": "data",
          "type": "bytes"
        }
      ],
      "name": "onERC721Received",
      "outputs": [
        {
          "internalType": "bytes4",
          "name": "",
          "type": "bytes4"
        }
      ],
      "stateMutability": "nonpayable",
      "type": "function"
    },
    {
      "inputs": [
        {
          "internalType": "uint256",
          "name": "tokenId",
          "type": "uint256"
        }
      ],
      "name": "ownerOf",
      "outputs": [
        {
          "internalType": "address",
          "name": "",
          "type": "address"
        }
      ],
      "stateMutability": "view",
      "type": "function"
    },
    {
      "inputs": [
        {
          "internalType": "string[]",
          "name": "keys",
          "type": "string[]"
        },
        {
          "internalType": "string[]",
          "name": "values",
          "type": "string[]"
        },
        {
          "internalType": "uint256",
          "name": "tokenId",
          "type": "uint256"
        }
      ],
      "name": "reconfigure",
      "outputs": [],
      "stateMutability": "nonpayable",
      "type": "function"
    },
    {
      "inputs": [
        {
          "internalType": "uint256",
          "name": "tokenId",
          "type": "uint256"
        }
      ],
      "name": "reset",
      "outputs": [],
      "stateMutability": "nonpayable",
      "type": "function"
    },
    {
      "inputs": [
        {
          "internalType": "uint256",
          "name": "tokenId",
          "type": "uint256"
        }
      ],
      "name": "resolverOf",
      "outputs": [
        {
          "internalType": "address",
          "name": "",
          "type": "address"
        }
      ],
      "stateMutability": "view",
      "type": "function"
    },
    {
      "inputs": [],
      "name": "root",
      "outputs": [
        {
          "internalType": "uint256",
          "name": "",
          "type": "uint256"
        }
      ],
      "stateMutability": "pure",
      "type": "function"
    },
    {
      "inputs": [
        {
          "internalType": "address",
          "name": "to",
          "type": "address"
        },
        {
          "internalType": "uint256",
          "name": "tokenId",
          "type": "uint256"
        },
        {
          "internalType": "string",
          "name": "uri",
          "type": "string"
        },
        {
          "internalType": "bytes",
          "name": "data",
          "type": "bytes"
        }
      ],
      "name": "safeMint",
      "outputs": [],
      "stateMutability": "nonpayable",
      "type": "function"
    },
    {
      "inputs": [
        {
          "internalType": "address",
          "name": "to",
          "type": "address"
        },
        {
          "internalType": "uint256",
          "name": "tokenId",
          "type": "uint256"
        },
        {
          "internalType": "string",
          "name": "uri",
          "type": "string"
        }
      ],
      "name": "safeMint",
      "outputs": [],
      "stateMutability": "nonpayable",
      "type": "function"
    },
    {
      "inputs": [
        {
          "internalType": "address",
          "name": "to",
          "type": "address"
        },
        {
          "internalType": "uint256",
          "name": "tokenId",
          "type": "uint256"
        },
        {
          "internalType": "string",
          "name": "uri",
          "type": "string"
        },
        {
          "internalType": "string[]",
          "name": "keys",
          "type": "string[]"
        },
        {
          "internalType": "string[]",
          "name": "values",
          "type": "string[]"
        }
      ],
      "name": "safeMintWithRecords",
      "outputs": [],
      "stateMutability": "nonpayable",
      "type": "function"
    },
    {
      "inputs": [
        {
          "internalType": "address",
          "name": "to",
          "type": "address"
        },
        {
          "internalType": "uint256",
          "name": "tokenId",
          "type": "uint256"
        },
        {
          "internalType": "string",
          "name": "uri",
          "type": "string"
        },
        {
          "internalType": "string[]",
          "name": "keys",
          "type": "string[]"
        },
        {
          "internalType": "string[]",
          "name": "values",
          "type": "string[]"
        },
        {
          "internalType": "bytes",
          "name": "data",
          "type": "bytes"
        }
      ],
      "name": "safeMintWithRecords",
      "outputs": [],
      "stateMutability": "nonpayable",
      "type": "function"
    },
    {
      "inputs": [
        {
          "internalType": "address",
          "name": "from",
          "type": "address"
        },
        {
          "internalType": "address",
          "name": "to",
          "type": "address"
        },
        {
          "internalType": "uint256",
          "name": "tokenId",
          "type": "uint256"
        }
      ],
      "name": "safeTransferFrom",
      "outputs": [],
      "stateMutability": "nonpayable",
      "type": "function"
    },
    {
      "inputs": [
        {
          "internalType": "address",
          "name": "from",
          "type": "address"
        },
        {
          "internalType": "address",
          "name": "to",
          "type": "address"
        },
        {
          "internalType": "uint256",
          "name": "tokenId",
          "type": "uint256"
        },
        {
          "internalType": "bytes",
          "name": "data",
          "type": "bytes"
        }
      ],
      "name": "safeTransferFrom",
      "outputs": [],
      "stateMutability": "nonpayable",
      "type": "function"
    },
    {
      "inputs": [
        {
          "internalType": "string",
          "name": "key",
          "type": "string"
        },
        {
          "internalType": "string",
          "name": "value",
          "type": "string"
        },
        {
          "internalType": "uint256",
          "name": "tokenId",
          "type": "uint256"
        }
      ],
      "name": "set",
      "outputs": [],
      "stateMutability": "nonpayable",
      "type": "function"
    },
    {
      "inputs": [
        {
          "internalType": "address",
          "name": "operator",
          "type": "address"
        },
        {
          "internalType": "bool",
          "name": "approved",
          "type": "bool"
        }
      ],
      "name": "setApprovalForAll",
      "outputs": [],
      "stateMutability": "nonpayable",
      "type": "function"
    },
    {
      "inputs": [
        {
          "internalType": "uint256",
          "name": "keyHash",
          "type": "uint256"
        },
        {
          "internalType": "string",
          "name": "value",
          "type": "string"
        },
        {
          "internalType": "uint256",
          "name": "tokenId",
          "type": "uint256"
        }
      ],
      "name": "setByHash",
      "outputs": [],
      "stateMutability": "nonpayable",
      "type": "function"
    },
    {
      "inputs": [
        {
          "internalType": "address",
          "name": "registry",
          "type": "address"
        }
      ],
      "name": "setCNSRegistry",
      "outputs": [],
      "stateMutability": "nonpayable",
      "type": "function"
    },
    {
      "inputs": [
        {
          "internalType": "address",
          "name": "clientChainManager",
          "type": "address"
        }
      ],
      "name": "setChildChainManager",
      "outputs": [],
      "stateMutability": "nonpayable",
      "type": "function"
    },
    {
      "inputs": [
        {
          "internalType": "string[]",
          "name": "keys",
          "type": "string[]"
        },
        {
          "internalType": "string[]",
          "name": "values",
          "type": "string[]"
        },
        {
          "internalType": "uint256",
          "name": "tokenId",
          "type": "uint256"
        }
      ],
      "name": "setMany",
      "outputs": [],
      "stateMutability": "nonpayable",
      "type": "function"
    },
    {
      "inputs": [
        {
          "internalType": "uint256[]",
          "name": "keyHashes",
          "type": "uint256[]"
        },
        {
          "internalType": "string[]",
          "name": "values",
          "type": "string[]"
        },
        {
          "internalType": "uint256",
          "name": "tokenId",
          "type": "uint256"
        }
      ],
      "name": "setManyByHash",
      "outputs": [],
      "stateMutability": "nonpayable",
      "type": "function"
    },
    {
      "inputs": [
        {
          "internalType": "address",
          "name": "to",
          "type": "address"
        },
        {
          "internalType": "uint256",
          "name": "tokenId",
          "type": "uint256"
        }
      ],
      "name": "setOwner",
      "outputs": [],
      "stateMutability": "nonpayable",
      "type": "function"
    },
    {
      "inputs": [
        {
          "internalType": "address",
          "name": "rootChainManager",
          "type": "address"
        }
      ],
      "name": "setRootChainManager",
      "outputs": [],
      "stateMutability": "nonpayable",
      "type": "function"
    },
    {
      "inputs": [
        {
          "internalType": "string",
          "name": "prefix",
          "type": "string"
        }
      ],
      "name": "setTokenURIPrefix",
      "outputs": [],
      "stateMutability": "nonpayable",
      "type": "function"
    },
    {
      "inputs": [
        {
          "internalType": "bytes4",
          "name": "interfaceId",
          "type": "bytes4"
        }
      ],
      "name": "supportsInterface",
      "outputs": [
        {
          "internalType": "bool",
          "name": "",
          "type": "bool"
        }
      ],
      "stateMutability": "view",
      "type": "function"
    },
    {
      "inputs": [],
      "name": "symbol",
      "outputs": [
        {
          "internalType": "string",
          "name": "",
          "type": "string"
        }
      ],
      "stateMutability": "view",
      "type": "function"
    },
    {
      "inputs": [
        {
          "internalType": "uint256",
          "name": "tokenId",
          "type": "uint256"
        }
      ],
      "name": "tokenURI",
      "outputs": [
        {
          "internalType": "string",
          "name": "",
          "type": "string"
        }
      ],
      "stateMutability": "view",
      "type": "function"
    },
    {
      "inputs": [
        {
          "internalType": "address",
          "name": "from",
          "type": "address"
        },
        {
          "internalType": "address",
          "name": "to",
          "type": "address"
        },
        {
          "internalType": "uint256",
          "name": "tokenId",
          "type": "uint256"
        }
      ],
      "name": "transferFrom",
      "outputs": [],
      "stateMutability": "nonpayable",
      "type": "function"
    },
    {
      "inputs": [
        {
          "components": [
            {
              "internalType": "address",
              "name": "from",
              "type": "address"
            },
            {
              "internalType": "uint256",
              "name": "nonce",
              "type": "uint256"
            },
            {
              "internalType": "uint256",
              "name": "tokenId",
              "type": "uint256"
            },
            {
              "internalType": "bytes",
              "name": "data",
              "type": "bytes"
            }
          ],
          "internalType": "struct IForwarder.ForwardRequest",
          "name": "req",
          "type": "tuple"
        },
        {
          "internalType": "bytes",
          "name": "signature",
          "type": "bytes"
        }
      ],
      "name": "verify",
      "outputs": [
        {
          "internalType": "bool",
          "name": "",
          "type": "bool"
        }
      ],
      "stateMutability": "view",
      "type": "function"
    },
    {
      "inputs": [
        {
          "internalType": "uint256",
          "name": "tokenId",
          "type": "uint256"
        }
      ],
      "name": "withdraw",
      "outputs": [],
      "stateMutability": "nonpayable",
      "type": "function"
    },
    {
      "inputs": [
        {
          "internalType": "uint256[]",
          "name": "tokenIds",
          "type": "uint256[]"
        }
      ],
      "name": "withdrawBatch",
      "outputs": [],
      "stateMutability": "nonpayable",
      "type": "function"
    },
    {
      "inputs": [
        {
          "internalType": "uint256",
          "name": "tokenId",
          "type": "uint256"
        }
      ],
      "name": "withdrawWithMetadata",
      "outputs": [],
      "stateMutability": "nonpayable",
      "type": "function"
    }
  ],
  "bytecode": "0x608060405234801561001057600080fd5b50614fd8806100206000396000f3fe608060405234801561001057600080fd5b50600436106103995760003560e01c8063764a81bb116101e9578063b85afd281161010f578063cf2c52cb116100ad578063ec129eea1161007c578063ec129eea146107de578063efda4d3e146107f1578063f5c1f76e14610804578063ffa1ad741461081757610399565b8063cf2c52cb1461079d578063d3fc9864146107b0578063e985e9c5146107c3578063ebf0c717146107d657610399565b8063c4d66de8116100e9578063c4d66de814610751578063c87b56dd14610764578063cd279c7c14610777578063ce92b33e1461078a57610399565b8063b85afd281461070a578063b88d4fde1461072b578063bb5b27e11461073e57610399565b8063a22cb46511610187578063ab3b87fe11610156578063ab3b87fe146106be578063b0f59177146106d1578063b3f9e4cb146106e4578063b55bc617146106f757610399565b8063a22cb46514610690578063a3f4df7e146106a3578063a4247400146106ab578063a5e584dc1461049d57610399565b80639559c0bd116101c35780639559c0bd1461065a57806395d89b411461066257806399e0dd7c1461066a5780639c8d41561461067d57610399565b8063764a81bb146106215780637f139a001461063457806394d008ef1461064757610399565b806342966c68116102ce578063572b6c051161026c57806368b62d321161023b57806368b62d32146105c85780636ccbae5f146105e857806370a08231146105fb578063728a44d81461060e57610399565b8063572b6c051461056e5780636352211e14610581578063638e5c7814610594578063672b9f81146105a757610399565b806347c81699116102a857806347c81699146105225780634a72584d146105355780634f558e791461054857806350382c1a1461055b57610399565b806342966c68146104e9578063430c2081146104fc5780634348b5621461050f57610399565b80631bf7e13e1161033b5780632e1a7d4d116103155780632e1a7d4d1461049d578063310bd74b146104b057806340c10f19146104c357806342842e0e146104d657610399565b80631bf7e13e1461046457806323b872dd1461047757806327f189751461048a57610399565b8063095ea7b311610377578063095ea7b3146103fc578063150b7a02146104115780631bd8cc1a146104315780631be5e7ed1461045157610399565b806301ffc9a71461039e57806306fdde03146103c7578063081812fc146103dc575b600080fd5b6103b16103ac366004613fcc565b61081f565b6040516103be91906144c6565b60405180910390f35b6103cf610832565b6040516103be9190614504565b6103ef6103ea36600461416e565b6108c5565b6040516103be91906143e1565b61040f61040a366004613b64565b610911565b005b61042461041f366004613a0e565b610963565b6040516103be91906144ef565b61044461043f366004613e6c565b610a81565b6040516103be9190614454565b6103cf61045f366004614095565b610ba1565b6103cf61047236600461410f565b610bec565b61040f6104853660046139ce565b610cb7565b61040f610498366004613dfc565b610d43565b61040f6104ab36600461416e565b610dc4565b61040f6104be36600461416e565b610e10565b61040f6104d1366004613b64565b610e84565b61040f6104e43660046139ce565b610ed1565b61040f6104f736600461416e565b610eec565b6103b161050a366004613b64565b610f69565b61040f61051d366004613be8565b610f75565b61040f610530366004614037565b610fda565b61040f6105433660046141b6565b611052565b6103b161055636600461416e565b6110d1565b61040f6105693660046140ca565b6110dc565b6103b161057c36600461395e565b61110f565b6103ef61058f36600461416e565b611120565b61040f6105a236600461416e565b611155565b6105ba6105b5366004614206565b6111a0565b6040516103be929190614546565b6105db6105d6366004614186565b6111b8565b6040516103be91906143ca565b6105db6105f636600461416e565b6111fa565b6105db61060936600461395e565b61120d565b61040f61061c36600461395e565b611251565b61040f61062f36600461395e565b6112ca565b61040f61064236600461395e565b611346565b61040f610655366004613b8f565b6113c2565b6105db611411565b6103cf611416565b61040f610678366004614004565b611425565b61040f61068b366004613eb5565b6114ab565b61040f61069e366004613ae7565b6115d2565b6103cf6116a0565b6103b16106b936600461410f565b6116c9565b61040f6106cc366004613b64565b611714565b61040f6106df366004613be8565b611792565b6103ef6106f236600461416e565b61181b565b61040f610705366004613d74565b611838565b61071d610718366004613e6c565b6118e8565b6040516103be929190614467565b61040f610739366004613a7e565b611a50565b6103cf61074c36600461416e565b611ad0565b61040f61075f36600461395e565b611b72565b6103cf61077236600461416e565b611c5f565b61040f610785366004613b8f565b611ce1565b61040f610798366004613dfc565b611d6b565b61040f6107ab366004613b12565b611de3565b61040f6107be366004613b8f565b611ece565b6103b16107d1366004613996565b611f4a565b6105db611f78565b61040f6107ec366004613dfc565b611f7d565b61040f6107ff366004613c99565b611ff5565b610444610812366004613eb5565b612083565b6103cf612160565b600061082a82612181565b90505b919050565b60606065805461084190614ed4565b80601f016020809104026020016040519081016040528092919081815260200182805461086d90614ed4565b80156108ba5780601f1061088f576101008083540402835291602001916108ba565b820191906000526020600020905b81548152906001019060200180831161089d57829003601f168201915b505050505090505b90565b60006108d0826121c1565b6108f55760405162461bcd60e51b81526004016108ec90614a9a565b60405180910390fd5b506000908152606960205260409020546001600160a01b031690565b8061091b3361110f565b1561094b576109286121de565b81146109465760405162461bcd60e51b81526004016108ec90614879565b610954565b610954816121f8565b61095e8383612226565b505050565b600061098e7f8ffb960699dc2ba88f34d0e41c029c3c36c95149679fe1d0153a9582bec923786108c2565b546001600160a01b03166109a06122b9565b6001600160a01b03161415610a60576109b76122b9565b6001600160a01b03166342966c68856040518263ffffffff1660e01b81526004016109e291906143ca565b600060405180830381600087803b1580156109fc57600080fd5b505af1158015610a10573d6000803e3d6000fd5b505050821580159150610a2a5750610a2a82840184613f9a565b15610a4857610a3930856122c8565b610a4385856123a7565b610a52565b610a5285856122c8565b50630a85bd0160e11b610a78565b60405162461bcd60e51b81526004016108ec90614cba565b95945050505050565b6060826001600160401b03811115610aa957634e487b7160e01b600052604160045260246000fd5b604051908082528060200260200182016040528015610adc57816020015b6060815260200190600190039081610ac75790505b50905060005b83811015610b9957610b5b858583818110610b0d57634e487b7160e01b600052603260045260246000fd5b9050602002810190610b1f9190614d70565b8080601f01602080910402602001604051908101604052809392919081815260200183838082843760009201919091525087925061245c915050565b828281518110610b7b57634e487b7160e01b600052603260045260246000fd5b60200260200101819052508080610b9190614f0f565b915050610ae2565b509392505050565b6060610be484848080601f01602080910402602001604051908101604052809392919081815260200183838082843760009201919091525086925061245c915050565b949350505050565b606060005a9050610bfe8585856116c9565b610c1a5760405162461bcd60e51b81526004016108ec90614bc4565b610cac610c2a602087018761395e565b30604088013584610c3e60608b018b614d70565b8080601f01602080910402602001604051908101604052809392919081815260200183838082843760009201919091525050604080516020601f8e018190048102820181019092528c815292508c91508b908190840183828082843760009201919091525061249192505050565b9150505b9392505050565b80610cc9610cc36122b9565b82612580565b610ce55760405162461bcd60e51b81526004016108ec906145d9565b81610cef3361110f565b15610d1f57610cfc6121de565b8114610d1a5760405162461bcd60e51b81526004016108ec90614879565b610d28565b610d28816121f8565b610d31836125fd565b610d3c858585612668565b5050505050565b80610d4f610cc36122b9565b610d6b5760405162461bcd60e51b81526004016108ec906145d9565b81610d753361110f565b15610da557610d826121de565b8114610da05760405162461bcd60e51b81526004016108ec90614879565b610dae565b610dae816121f8565b610dbb8787878787612795565b50505050505050565b610dcd81611120565b6001600160a01b0316610dde6122b9565b6001600160a01b031614610e045760405162461bcd60e51b81526004016108ec90614c0b565b610e0d81612814565b50565b80610e1c610cc36122b9565b610e385760405162461bcd60e51b81526004016108ec906145d9565b81610e423361110f565b15610e7257610e4f6121de565b8114610e6d5760405162461bcd60e51b81526004016108ec90614879565b610e7b565b610e7b816121f8565b61095e836125fd565b610e8c6128bb565b6001600160a01b0316610e9d6122b9565b6001600160a01b031614610ec35760405162461bcd60e51b81526004016108ec90614cff565b610ecd82826122c8565b5050565b61095e83838360405180602001604052806000815250611a50565b80610ef8610cc36122b9565b610f145760405162461bcd60e51b81526004016108ec906145d9565b81610f1e3361110f565b15610f4e57610f2b6121de565b8114610f495760405162461bcd60e51b81526004016108ec90614879565b610f57565b610f57816121f8565b610f60836125fd565b61095e83612814565b6000610cb08383612580565b610134546001600160a01b0316610f8a6122b9565b6001600160a01b031614610fb05760405162461bcd60e51b81526004016108ec906147e6565b610fd08888888888888888604051806020016040528060008152506129df565b5050505050505050565b80610fe6610cc36122b9565b6110025760405162461bcd60e51b81526004016108ec906145d9565b8161100c3361110f565b1561103c576110196121de565b81146110375760405162461bcd60e51b81526004016108ec90614879565b611045565b611045816121f8565b610dbb8787878787612a3a565b8061105e610cc36122b9565b61107a5760405162461bcd60e51b81526004016108ec906145d9565b816110843361110f565b156110b4576110916121de565b81146110af5760405162461bcd60e51b81526004016108ec90614879565b6110bd565b6110bd816121f8565b6110c986868686612b19565b505050505050565b600061082a826121c1565b610e0d816040516020016110f091906142ce565b6040516020818303038152906040528051906020012060001c82612b89565b6001600160a01b0381163014919050565b6000818152606760205260408120546001600160a01b03168061082a5760405162461bcd60e51b81526004016108ec90614957565b80611161610cc36122b9565b61117d5760405162461bcd60e51b81526004016108ec906145d9565b61118f6111886122b9565b3084612668565b610ecd61119a6122b9565b836123a7565b6060806111ad8484612bb5565b909590945092505050565b6000610be48484848080601f016020809104026020016040519081016040528093929190818152602001838380828437600092019190915250612bd692505050565b6000908152610100602052604090205490565b60006001600160a01b0382166112355760405162461bcd60e51b81526004016108ec9061490d565b506001600160a01b031660009081526068602052604090205490565b600061126a600080516020614fac8339815191526108c2565b546001600160a01b0316146112915760405162461bcd60e51b81526004016108ec90614ae6565b806112a9600080516020614fac8339815191526108c2565b80546001600160a01b0319166001600160a01b039290921691909117905550565b60006112f57f8bea9a6f8afd34f4e29c585f854e0cc5161431bf5fc299d468454d33dce53b876108c2565b546001600160a01b03161461131c5760405162461bcd60e51b81526004016108ec906146e2565b806112a97f8bea9a6f8afd34f4e29c585f854e0cc5161431bf5fc299d468454d33dce53b876108c2565b60006113717f8ffb960699dc2ba88f34d0e41c029c3c36c95149679fe1d0153a9582bec923786108c2565b546001600160a01b0316146113985760405162461bcd60e51b81526004016108ec90614a30565b806112a97f8ffb960699dc2ba88f34d0e41c029c3c36c95149679fe1d0153a9582bec923786108c2565b6113ca6128bb565b6001600160a01b03166113db6122b9565b6001600160a01b0316146114015760405162461bcd60e51b81526004016108ec90614cff565b61140b84846122c8565b50505050565b601481565b60606066805461084190614ed4565b610134546001600160a01b031661143a6122b9565b6001600160a01b0316146114605760405162461bcd60e51b81526004016108ec906147e6565b61146d610133838361373d565b507f4b120d6a959a84a520fa48f5f937cca0e79129423487af7901213b5d2e89313b828260405161149f929190614517565b60405180910390a15050565b8060148111156114cd5760405162461bcd60e51b81526004016108ec90614c83565b60005b818110156115825760008484838181106114fa57634e487b7160e01b600052603260045260246000fd5b90506020020135905061150c81611120565b6001600160a01b031661151d6122b9565b6001600160a01b031614816040516020016115389190614368565b604051602081830303815290604052906115655760405162461bcd60e51b81526004016108ec9190614504565b5061156f81612814565b508061157a81614f0f565b9150506114d0565b5061158b6122b9565b6001600160a01b03167ff871896b17e9cb7a64941c62c188a4f5c621b86800e3d15452ece01ce56073df84846040516115c592919061448c565b60405180910390a2505050565b6115da6122b9565b6001600160a01b0316826001600160a01b0316141561160b5760405162461bcd60e51b81526004016108ec9061476d565b80606a60006116186122b9565b6001600160a01b03908116825260208083019390935260409182016000908120918716808252919093529120805460ff19169215159290921790915561165c6122b9565b6001600160a01b03167f17307eab39ab6107e8899845ad3d59bd9653f200f220920489ca2b5937696c318360405161169491906144c6565b60405180910390a35050565b6040518060400160405280600d81526020016c554e533a20526567697374727960981b81525081565b6000610be46116d785614e20565b3085858080601f016020809104026020016040519081016040528093929190818152602001838380828437600092019190915250612c5292505050565b80611720610cc36122b9565b61173c5760405162461bcd60e51b81526004016108ec906145d9565b816117463361110f565b15611776576117536121de565b81146117715760405162461bcd60e51b81526004016108ec90614879565b61177f565b61177f816121f8565b61140b61178b84611120565b8585612668565b610134546001600160a01b03166117a76122b9565b6001600160a01b0316146117cd5760405162461bcd60e51b81526004016108ec906147e6565b61180e888888888080601f016020809104026020016040519081016040528093929190818152602001838380828437600092019190915250612d1492505050565b610fd0848484848b612d4e565b6000611826826121c1565b61183157600061082a565b5030919050565b610134546001600160a01b031661184d6122b9565b6001600160a01b0316146118735760405162461bcd60e51b81526004016108ec906147e6565b6110c9868686868080601f01602080910402602001604051908101604052809392919081815260200183838082843760009201919091525050604080516020601f8a018190048102820181019092528881529250889150879081908401838280828437600092019190915250612dd892505050565b606080836001600160401b0381111561191157634e487b7160e01b600052604160045260246000fd5b60405190808252806020026020018201604052801561194457816020015b606081526020019060019003908161192f5790505b509150836001600160401b0381111561196d57634e487b7160e01b600052604160045260246000fd5b6040519080825280602002602001820160405280156119a057816020015b606081526020019060019003908161198b5790505b50905060005b84811015611a47576119de8686838181106119d157634e487b7160e01b600052603260045260246000fd5b9050602002013585612bb5565b8483815181106119fe57634e487b7160e01b600052603260045260246000fd5b60200260200101848481518110611a2557634e487b7160e01b600052603260045260246000fd5b6020026020010182905282905250508080611a3f90614f0f565b9150506119a6565b50935093915050565b81611a5c610cc36122b9565b611a785760405162461bcd60e51b81526004016108ec906145d9565b82611a823361110f565b15611ab257611a8f6121de565b8114611aad5760405162461bcd60e51b81526004016108ec90614879565b611abb565b611abb816121f8565b611ac4846125fd565b6110c986868686612e21565b600081815260c960205260409020805460609190611aed90614ed4565b80601f0160208091040260200160405190810160405280929190818152602001828054611b1990614ed4565b8015611b665780601f10611b3b57610100808354040283529160200191611b66565b820191906000526020600020905b815481529060010190602001808311611b4957829003601f168201915b50505050509050919050565b600054610100900460ff1680611b8b575060005460ff16155b611ba75760405162461bcd60e51b81526004016108ec906149a0565b600054610100900460ff16158015611bd2576000805460ff1961ff0019909116610100171660011790555b61013480546001600160a01b0319166001600160a01b0384161790556040805180820182526013815272556e73746f707061626c6520446f6d61696e7360681b60208083019190915282518084019093526002835261155160f21b90830152611c3a91612e54565b611c42612ef2565b611c4a612ef2565b8015610ecd576000805461ff00191690555050565b6060611c6a826121c1565b611c865760405162461bcd60e51b81526004016108ec90614b75565b6000611c90612f66565b90506000815111611cb05760405180602001604052806000815250610cb0565b80611cba84612f76565b604051602001611ccb929190614339565b6040516020818303038152906040529392505050565b610134546001600160a01b0316611cf66122b9565b6001600160a01b031614611d1c5760405162461bcd60e51b81526004016108ec906147e6565b61140b848484848080601f016020809104026020016040519081016040528093929190818152602001838380828437600092018290525060408051602081019091529081529250612dd8915050565b80611d77610cc36122b9565b611d935760405162461bcd60e51b81526004016108ec906145d9565b81611d9d3361110f565b15611dcd57611daa6121de565b8114611dc85760405162461bcd60e51b81526004016108ec90614879565b611dd6565b611dd6816121f8565b610dbb8787878787612d4e565b611e0c7f8bea9a6f8afd34f4e29c585f854e0cc5161431bf5fc299d468454d33dce53b876108c2565b546001600160a01b0316611e1e6122b9565b6001600160a01b031614611e445760405162461bcd60e51b81526004016108ec90614cff565b6020811415611e6d576000611e5b8284018461416e565b9050611e6784826122c8565b5061095e565b6000611e7b82840184613ef4565b805190915060005b818110156110c957611ebc86848381518110611eaf57634e487b7160e01b600052603260045260246000fd5b60200260200101516122c8565b80611ec681614f0f565b915050611e83565b610134546001600160a01b0316611ee36122b9565b6001600160a01b031614611f095760405162461bcd60e51b81526004016108ec906147e6565b61140b848484848080601f016020809104026020016040519081016040528093929190818152602001838380828437600092019190915250612d1492505050565b6001600160a01b039182166000908152606a6020908152604080832093909416825291909152205460ff1690565b600090565b80611f89610cc36122b9565b611fa55760405162461bcd60e51b81526004016108ec906145d9565b81611faf3361110f565b15611fdf57611fbc6121de565b8114611fda5760405162461bcd60e51b81526004016108ec90614879565b611fe8565b611fe8816121f8565b610dbb8787878787613090565b610134546001600160a01b031661200a6122b9565b6001600160a01b0316146120305760405162461bcd60e51b81526004016108ec906147e6565b6120778a8a8a8a8a8a8a8a8a8a8080601f0160208091040260200160405190810160405280939291908181526020018383808284376000920191909152506129df92505050565b50505050505050505050565b6060816001600160401b038111156120ab57634e487b7160e01b600052604160045260246000fd5b6040519080825280602002602001820160405280156120de57816020015b60608152602001906001900390816120c95790505b50905060005b828110156121595761211b84848381811061210f57634e487b7160e01b600052603260045260246000fd5b90506020020135611ad0565b82828151811061213b57634e487b7160e01b600052603260045260246000fd5b6020026020010181905250808061215190614f0f565b9150506120e4565b5092915050565b604051806040016040528060058152602001640302e332e360dc1b81525081565b60006001600160e01b031982166380ac58cd60e01b14806121b257506001600160e01b03198216635b5e139f60e01b145b8061082a575061082a826130a6565b6000908152606760205260409020546001600160a01b0316151590565b60006121e93361110f565b156108c25750601f1936013590565b60008181526101006020526040902054612213906001614ddd565b6000918252610100602052604090912055565b600061223182611120565b9050806001600160a01b0316836001600160a01b031614156122655760405162461bcd60e51b81526004016108ec90614c42565b806001600160a01b03166122776122b9565b6001600160a01b031614806122935750612293816107d16122b9565b6122af5760405162461bcd60e51b81526004016108ec906148b0565b61095e83836130bf565b60006122c361312d565b905090565b6001600160a01b0382166122ee5760405162461bcd60e51b81526004016108ec90614a65565b6122f7816121c1565b156123145760405162461bcd60e51b81526004016108ec906146ab565b6123206000838361095e565b6001600160a01b0382166000908152606860205260408120805460019290612349908490614ddd565b909155505060008181526067602052604080822080546001600160a01b0319166001600160a01b03861690811790915590518392907fddf252ad1be2c89b69c2b068fc378daa952ba7f163c4a11628f55a4df523b3ef908290a45050565b60006123b16128bb565b90506123bd81836130bf565b60006123d6600080516020614fac8339815191526108c2565b546040516001600160a01b039091169150819063e3dec8fb90869030906124019088906020016143ca565b6040516020818303038152906040526040518463ffffffff1660e01b815260040161242e939291906143f5565b600060405180830381600087803b15801561244857600080fd5b505af1158015610fd0573d6000803e3d6000fd5b6060610cb08360405160200161247291906142ce565b6040516020818303038152906040528051906020012060001c8361315b565b606061249c856121f8565b600080876001600160a01b0316866124b68b8a898961321a565b6040516124c391906142ce565b60006040518083038160008787f1925050503d8060008114612501576040519150601f19603f3d011682016040523d82523d6000602084013e612506565b606091505b509092509050612517603f87614df5565b5a1161253357634e487b7160e01b600052600160045260246000fd5b61257382826040518060400160405280601a81526020017f42617365466f727761726465723a2043414c4c5f4641494c454400000000000081525061324a565b9998505050505050505050565b600061258b826121c1565b6125a75760405162461bcd60e51b81526004016108ec9061482d565b60006125b283611120565b9050806001600160a01b0316846001600160a01b031614806125ed5750836001600160a01b03166125e2846108c5565b6001600160a01b0316145b80610be45750610be48185611f4a565b61260681613283565b60405160200161261691906143ca565b60408051601f198184030181528282528051602091820120600085815260cb9092529181209190915582917f185c30856dadb58bf097c1f665a52ada7029752dbcad008ea3fefc73bee8c9fe9190a250565b826001600160a01b031661267b82611120565b6001600160a01b0316146126a15760405162461bcd60e51b81526004016108ec90614b2c565b6001600160a01b0382166126c75760405162461bcd60e51b81526004016108ec90614729565b6126d283838361095e565b6126dd6000826130bf565b6001600160a01b0383166000908152606860205260408120805460019290612706908490614e09565b90915550506001600160a01b0382166000908152606860205260408120805460019290612734908490614ddd565b909155505060008181526067602052604080822080546001600160a01b0319166001600160a01b0386811691821790925591518493918716917fddf252ad1be2c89b69c2b068fc378daa952ba7f163c4a11628f55a4df523b3ef91a4505050565b60005b848110156110c9576128028686838181106127c357634e487b7160e01b600052603260045260246000fd5b905060200201358585848181106127ea57634e487b7160e01b600052603260045260246000fd5b90506020028101906127fc9190614d70565b85612b19565b8061280c81614f0f565b915050612798565b600061281f82611120565b905061282d8160008461095e565b6128386000836130bf565b6001600160a01b0381166000908152606860205260408120805460019290612861908490614e09565b909155505060008281526067602052604080822080546001600160a01b0319169055518391906001600160a01b038416907fddf252ad1be2c89b69c2b068fc378daa952ba7f163c4a11628f55a4df523b3ef908390a45050565b6000806128d5600080516020614fac8339815191526108c2565b5460405163721804d360e11b81526001600160a01b039091169150600090829063e43009a6906129099030906004016143e1565b60206040518083038186803b15801561292157600080fd5b505afa158015612935573d6000803e3d6000fd5b505050506040513d601f19601f820116820180604052508101906129599190613fb4565b60405163e66f960360e01b81529091506001600160a01b0383169063e66f9603906129889084906004016143ca565b60206040518083038186803b1580156129a057600080fd5b505afa1580156129b4573d6000803e3d6000fd5b505050506040513d601f19601f820116820180604052508101906129d8919061397a565b9250505090565b612a22898989898080601f016020809104026020016040519081016040528093929190818152602001838380828437600092019190915250879250612dd8915050565b612a2f858585858c612d4e565b505050505050505050565b60008585604051602001612a4f929190614329565b60408051601f198184030181528282528051602091820120601f8901829004820284018201909252878352909250612aa39183918990899081908401838280828437600092019190915250612b8992505050565b6110c98187878080601f01602080910402602001604051908101604052809392919081815260200183838082843760009201919091525050604080516020601f8b0181900481028201810190925289815292508991508890819084018382808284376000920191909152508892506132af915050565b612b22846133ea565b612b3e5760405162461bcd60e51b81526004016108ec90614674565b61140b84612b4b86611ad0565b85858080601f0160208091040260200160405190810160405280939291908181526020018383808284376000920191909152508792506132af915050565b612b92826133ea565b610ecd57600082815260c960209081526040909120825161095e928401906137bd565b606080612bc184611ad0565b9150612bcd848461315b565b90509250929050565b6000815160001415612bfa5760405162461bcd60e51b81526004016108ec90614d41565b8282604051602001612c0c91906142ce565b60405160208183030381529060405280519060200120604051602001612c339291906143d3565b60408051601f1981840301815291905280516020909101209392505050565b6040808401519051636ccbae5f60e01b815260009182913091636ccbae5f91612c7e91906004016143ca565b60206040518083038186803b158015612c9657600080fd5b505afa158015612caa573d6000803e3d6000fd5b505050506040513d601f19601f82011682018060405250810190612cce9190613fb4565b90506000612ce9866060015180519060200120868487613410565b9050856020015182148015612d0a575085516001600160a01b038281169116145b9695505050505050565b612d1e83836122c8565b817fc5beef08f693b11c316c0c8394a377a0033c9cf701b8cd8afd79cecef60c3952826040516115c59190614504565b60005b848110156110c957612dc6868683818110612d7c57634e487b7160e01b600052603260045260246000fd5b9050602002810190612d8e9190614d70565b868685818110612dae57634e487b7160e01b600052603260045260246000fd5b9050602002810190612dc09190614d70565b86612a3a565b80612dd081614f0f565b915050612d51565b612de384848361344f565b827fc5beef08f693b11c316c0c8394a377a0033c9cf701b8cd8afd79cecef60c395283604051612e139190614504565b60405180910390a250505050565b612e2c848484612668565b612e3884848484613482565b61140b5760405162461bcd60e51b81526004016108ec90614622565b600054610100900460ff1680612e6d575060005460ff16155b612e895760405162461bcd60e51b81526004016108ec906149a0565b600054610100900460ff16158015612eb4576000805460ff1961ff0019909116610100171660011790555b8251612ec79060659060208601906137bd565b508151612edb9060669060208501906137bd565b50801561095e576000805461ff0019169055505050565b600054610100900460ff1680612f0b575060005460ff16155b612f275760405162461bcd60e51b81526004016108ec906149a0565b600054610100900460ff16158015612f52576000805460ff1961ff0019909116610100171660011790555b8015610e0d576000805461ff001916905550565b6060610133805461084190614ed4565b606081612f9b57506040805180820190915260018152600360fc1b602082015261082d565b8160005b8115612fc55780612faf81614f0f565b9150612fbe9050600a83614df5565b9150612f9f565b6000816001600160401b03811115612fed57634e487b7160e01b600052604160045260246000fd5b6040519080825280601f01601f191660200182016040528015613017576020820181803683370190505b5090505b8415610be45761302c600183614e09565b9150613039600a86614f2a565b613044906030614ddd565b60f81b81838151811061306757634e487b7160e01b600052603260045260246000fd5b60200101906001600160f81b031916908160001a905350613089600a86614df5565b945061301b565b613099816125fd565b610d3c8585858585612d4e565b6001600160e01b031981166301ffc9a760e01b14919050565b600081815260696020526040902080546001600160a01b0319166001600160a01b03841690811790915581906130f482611120565b6001600160a01b03167f8c5be1e5ebec7d5bd14f71427d1e84f3dd0314c0f7b2291e5b200ac8c7c3b92560405160405180910390a45050565b60006131383361110f565b1561314c575060331936013560601c6108c2565b61315461359a565b90506108c2565b606060ca600061316a84613283565b81526020019081526020016000206000848152602001908152602001600020805461319490614ed4565b80601f01602080910402602001604051908101604052809291908181526020018280546131c090614ed4565b801561320d5780601f106131e25761010080835404028352916020019161320d565b820191906000526020600020905b8154815290600101906020018083116131f057829003601f168201915b5050505050905092915050565b6060828585604051602001613231939291906142ea565b6040516020818303038152906040529050949350505050565b60608315613259575081610cb0565b8251156132695782518084602001fd5b8160405162461bcd60e51b81526004016108ec9190614504565b600081815260cb6020526040812054156132ab57600082815260cb602052604090205461082a565b5090565b60ca60006132bc83613283565b8152602001908152602001600020600085815260200190815260200160002080546132e690614ed4565b1515905061333d57826040516132fc91906142ce565b6040518091039020817f7ae4f661958fbecc2f77be6b0eb280d2a6f604b29e1e7221c82b9da0c4af7f86856040516133349190614504565b60405180910390a35b8160ca600061334b84613283565b81526020019081526020016000206000868152602001908152602001600020908051906020019061337d9291906137bd565b508160405161338c91906142ce565b6040518091039020836040516133a291906142ce565b6040518091039020827f851ffe8e74d5015261dba0a1f9e1b0e5d42c5af5d2ad1908fee897c7d80a0d9286866040516133dc929190614546565b60405180910390a450505050565b600081815260c960205260408120805482919061340690614ed4565b9050119050919050565b6000610a788261344987878760405160200161342e939291906142a6565b6040516020818303038152906040528051906020012061359e565b906135ce565b61345983836122c8565b6134666000848484613482565b61095e5760405162461bcd60e51b81526004016108ec90614622565b6000613496846001600160a01b031661364a565b1561359257836001600160a01b031663150b7a026134b26122b9565b8786866040518563ffffffff1660e01b81526004016134d49493929190614421565b602060405180830381600087803b1580156134ee57600080fd5b505af192505050801561351e575060408051601f3d908101601f1916820190925261351b91810190613fe8565b60015b613578573d80801561354c576040519150601f19603f3d011682016040523d82523d6000602084013e613551565b606091505b5080516135705760405162461bcd60e51b81526004016108ec90614622565b805181602001fd5b6001600160e01b031916630a85bd0160e11b149050610be4565b506001610be4565b3390565b6000816040516020016135b19190614399565b604051602081830303815290604052805190602001209050919050565b6000806000808451604114156135f85750505060208201516040830151606084015160001a61363e565b8451604014156136265750505060408201516020830151906001600160ff1b0381169060ff1c601b0161363e565b60405162461bcd60e51b81526004016108ec906145a2565b612d0a86828585613650565b3b151590565b60007f7fffffffffffffffffffffffffffffff5d576e7357a4501ddfe92f46681b20a08211156136925760405162461bcd60e51b81526004016108ec906147a4565b8360ff16601b14806136a757508360ff16601c145b6136c35760405162461bcd60e51b81526004016108ec906149ee565b6000600186868686604051600081526020016040526040516136e894939291906144d1565b6020604051602081039080840390855afa15801561370a573d6000803e3d6000fd5b5050604051601f1901519150506001600160a01b038116610a785760405162461bcd60e51b81526004016108ec9061456b565b82805461374990614ed4565b90600052602060002090601f01602090048101928261376b57600085556137b1565b82601f106137845782800160ff198235161785556137b1565b828001600101855582156137b1579182015b828111156137b1578235825591602001919060010190613796565b506132ab929150613831565b8280546137c990614ed4565b90600052602060002090601f0160209004810192826137eb57600085556137b1565b82601f1061380457805160ff19168380011785556137b1565b828001600101855582156137b1579182015b828111156137b1578251825591602001919060010190613816565b5b808211156132ab5760008155600101613832565b60006001600160401b0383111561385f5761385f614f6a565b613872601f8401601f1916602001614db4565b905082815283838301111561388657600080fd5b828260208301376000602084830101529392505050565b803561082d81614f80565b60008083601f8401126138b9578182fd5b5081356001600160401b038111156138cf578182fd5b60208301915083602080830285010111156138e957600080fd5b9250929050565b8035801515811461082d57600080fd5b60008083601f840112613911578182fd5b5081356001600160401b03811115613927578182fd5b6020830191508360208285010111156138e957600080fd5b600082601f83011261394f578081fd5b610cb083833560208501613846565b60006020828403121561396f578081fd5b8135610cb081614f80565b60006020828403121561398b578081fd5b8151610cb081614f80565b600080604083850312156139a8578081fd5b82356139b381614f80565b915060208301356139c381614f80565b809150509250929050565b6000806000606084860312156139e2578081fd5b83356139ed81614f80565b925060208401356139fd81614f80565b929592945050506040919091013590565b600080600080600060808688031215613a25578081fd5b8535613a3081614f80565b94506020860135613a4081614f80565b93506040860135925060608601356001600160401b03811115613a61578182fd5b613a6d88828901613900565b969995985093965092949392505050565b60008060008060808587031215613a93578182fd5b8435613a9e81614f80565b93506020850135613aae81614f80565b92506040850135915060608501356001600160401b03811115613acf578182fd5b613adb8782880161393f565b91505092959194509250565b60008060408385031215613af9578182fd5b8235613b0481614f80565b9150612bcd602084016138f0565b600080600060408486031215613b26578081fd5b8335613b3181614f80565b925060208401356001600160401b03811115613b4b578182fd5b613b5786828701613900565b9497909650939450505050565b60008060408385031215613b76578182fd5b8235613b8181614f80565b946020939093013593505050565b60008060008060608587031215613ba4578182fd5b8435613baf81614f80565b93506020850135925060408501356001600160401b03811115613bd0578283fd5b613bdc87828801613900565b95989497509550505050565b60008060008060008060008060a0898b031215613c03578586fd5b8835613c0e81614f80565b97506020890135965060408901356001600160401b0380821115613c30578788fd5b613c3c8c838d01613900565b909850965060608b0135915080821115613c54578485fd5b613c608c838d016138a8565b909650945060808b0135915080821115613c78578384fd5b50613c858b828c016138a8565b999c989b5096995094979396929594505050565b60008060008060008060008060008060c08b8d031215613cb7578384fd5b613cc08b61389d565b995060208b0135985060408b01356001600160401b0380821115613ce2578586fd5b613cee8e838f01613900565b909a50985060608d0135915080821115613d06578586fd5b613d128e838f016138a8565b909850965060808d0135915080821115613d2a578586fd5b613d368e838f016138a8565b909650945060a08d0135915080821115613d4e578384fd5b50613d5b8d828e01613900565b915080935050809150509295989b9194979a5092959850565b60008060008060008060808789031215613d8c578384fd5b8635613d9781614f80565b95506020870135945060408701356001600160401b0380821115613db9578586fd5b613dc58a838b01613900565b90965094506060890135915080821115613ddd578384fd5b50613dea89828a01613900565b979a9699509497509295939492505050565b600080600080600060608688031215613e13578283fd5b85356001600160401b0380821115613e29578485fd5b613e3589838a016138a8565b90975095506020880135915080821115613e4d578485fd5b50613e5a888289016138a8565b96999598509660400135949350505050565b600080600060408486031215613e80578081fd5b83356001600160401b03811115613e95578182fd5b613ea1868287016138a8565b909790965060209590950135949350505050565b60008060208385031215613ec7578182fd5b82356001600160401b03811115613edc578283fd5b613ee8858286016138a8565b90969095509350505050565b60006020808385031215613f06578182fd5b82356001600160401b0380821115613f1c578384fd5b818501915085601f830112613f2f578384fd5b813581811115613f4157613f41614f6a565b8381029150613f51848301614db4565b8181528481019084860184860187018a1015613f6b578788fd5b8795505b83861015613f8d578035835260019590950194918601918601613f6f565b5098975050505050505050565b600060208284031215613fab578081fd5b610cb0826138f0565b600060208284031215613fc5578081fd5b5051919050565b600060208284031215613fdd578081fd5b8135610cb081614f95565b600060208284031215613ff9578081fd5b8151610cb081614f95565b60008060208385031215614016578182fd5b82356001600160401b0381111561402b578283fd5b613ee885828601613900565b60008060008060006060868803121561404e578283fd5b85356001600160401b0380821115614064578485fd5b61407089838a01613900565b90975095506020880135915080821115614088578485fd5b50613e5a88828901613900565b6000806000604084860312156140a9578081fd5b83356001600160401b038111156140be578182fd5b613ea186828701613900565b6000602082840312156140db578081fd5b81356001600160401b038111156140f0578182fd5b8201601f81018413614100578182fd5b610be484823560208401613846565b600080600060408486031215614123578081fd5b83356001600160401b0380821115614139578283fd5b908501906080828803121561414c578283fd5b90935060208501359080821115614161578283fd5b50613b5786828701613900565b60006020828403121561417f578081fd5b5035919050565b60008060006040848603121561419a578081fd5b8335925060208401356001600160401b03811115613b4b578182fd5b600080600080606085870312156141cb578182fd5b8435935060208501356001600160401b038111156141e7578283fd5b6141f387828801613900565b9598909750949560400135949350505050565b60008060408385031215614218578182fd5b50508035926020909101359150565b6000815180845260208085018081965082840281019150828601855b8581101561426d57828403895261425b84835161427a565b98850198935090840190600101614243565b5091979650505050505050565b60008151808452614292816020860160208601614ea8565b601f01601f19169290920160200192915050565b92835260609190911b6bffffffffffffffffffffffff19166020830152603482015260540190565b600082516142e0818460208701614ea8565b9190910192915050565b600084516142fc818460208901614ea8565b60609490941b6bffffffffffffffffffffffff191691909301908152601481019190915260340192915050565b6000828483379101908152919050565b6000835161434b818460208801614ea8565b83519083019061435f818360208801614ea8565b01949350505050565b7f52656769737472793a20494e56414c49445f544f4b454e5f4f574e45522000008152601e810191909152603e0190565b7f19457468657265756d205369676e6564204d6573736167653a0a3332000000008152601c810191909152603c0190565b90815260200190565b918252602082015260400190565b6001600160a01b0391909116815260200190565b6001600160a01b03848116825283166020820152606060408201819052600090610a789083018461427a565b6001600160a01b0385811682528416602082015260408101839052608060608201819052600090612d0a9083018461427a565b600060208252610cb06020830184614227565b60006040825261447a6040830185614227565b8281036020840152610cac8185614227565b6020808252810182905260006001600160fb1b038311156144ab578081fd5b60208302808560408501379190910160400190815292915050565b901515815260200190565b93845260ff9290921660208401526040830152606082015260800190565b6001600160e01b031991909116815260200190565b600060208252610cb0602083018461427a565b60006020825282602083015282846040840137818301604090810191909152601f909201601f19160101919050565b600060408252614559604083018561427a565b8281036020840152610cac818561427a565b60208082526018908201527f45434453413a20696e76616c6964207369676e61747572650000000000000000604082015260600190565b6020808252601f908201527f45434453413a20696e76616c6964207369676e6174757265206c656e67746800604082015260600190565b60208082526029908201527f52656769737472793a2053454e4445525f49535f4e4f545f415050524f5645446040820152682fa7a92fa7aba722a960b91b606082015260800190565b60208082526032908201527f4552433732313a207472616e7366657220746f206e6f6e20455243373231526560408201527131b2b4bb32b91034b6b83632b6b2b73a32b960711b606082015260800190565b6020808252601c908201527f5265636f726453746f726167653a204b45595f4e4f545f464f554e4400000000604082015260600190565b6020808252601c908201527f4552433732313a20746f6b656e20616c7265616479206d696e74656400000000604082015260600190565b60208082526027908201527f52656769737472793a204348494c445f434841494e5f4d414e454745525f4e4f604082015266545f454d50545960c81b606082015260800190565b60208082526024908201527f4552433732313a207472616e7366657220746f20746865207a65726f206164646040820152637265737360e01b606082015260800190565b60208082526019908201527f4552433732313a20617070726f766520746f2063616c6c657200000000000000604082015260600190565b60208082526022908201527f45434453413a20696e76616c6964207369676e6174757265202773272076616c604082015261756560f01b606082015260800190565b60208082526027908201527f52656769737472793a2053454e4445525f49535f4e4f545f4d494e54494e475f60408201526626a0a720a3a2a960c91b606082015260800190565b6020808252602c908201527f4552433732313a206f70657261746f7220717565727920666f72206e6f6e657860408201526b34b9ba32b73a103a37b5b2b760a11b606082015260800190565b60208082526017908201527f52656769737472793a20544f4b454e5f494e56414c4944000000000000000000604082015260600190565b60208082526038908201527f4552433732313a20617070726f76652063616c6c6572206973206e6f74206f7760408201527f6e6572206e6f7220617070726f76656420666f7220616c6c0000000000000000606082015260800190565b6020808252602a908201527f4552433732313a2062616c616e636520717565727920666f7220746865207a65604082015269726f206164647265737360b01b606082015260800190565b60208082526029908201527f4552433732313a206f776e657220717565727920666f72206e6f6e657869737460408201526832b73a103a37b5b2b760b91b606082015260800190565b6020808252602e908201527f496e697469616c697a61626c653a20636f6e747261637420697320616c72656160408201526d191e481a5b9a5d1a585b1a5e995960921b606082015260800190565b60208082526022908201527f45434453413a20696e76616c6964207369676e6174757265202776272076616c604082015261756560f01b606082015260800190565b6020808252818101527f52656769737472793a20434e535f52454749535452595f4e4f545f454d505459604082015260600190565b6020808252818101527f4552433732313a206d696e7420746f20746865207a65726f2061646472657373604082015260600190565b6020808252602c908201527f4552433732313a20617070726f76656420717565727920666f72206e6f6e657860408201526b34b9ba32b73a103a37b5b2b760a11b606082015260800190565b60208082526026908201527f52656769737472793a20524f4f545f434841494e5f4d414e454745525f4e4f546040820152655f454d50545960d01b606082015260800190565b60208082526029908201527f4552433732313a207472616e73666572206f6620746f6b656e2074686174206960408201526839903737ba1037bbb760b91b606082015260800190565b6020808252602f908201527f4552433732314d657461646174613a2055524920717565727920666f72206e6f60408201526e3732bc34b9ba32b73a103a37b5b2b760891b606082015260800190565b60208082526027908201527f554e535265676973747279466f727761726465723a205349474e41545552455f6040820152661253959053125160ca1b606082015260800190565b6020808252601d908201527f52656769737472793a20494e56414c49445f544f4b454e5f4f574e4552000000604082015260600190565b60208082526021908201527f4552433732313a20617070726f76616c20746f2063757272656e74206f776e656040820152603960f91b606082015260800190565b6020808252601d908201527f52656769737472793a20455843454544535f42415443485f4c494d4954000000604082015260600190565b60208082526025908201527f52656769737472793a204552433732315f524543454956494e475f50524f4849604082015264109255115160da1b606082015260800190565b60208082526022908201527f52656769737472793a20494e53554646494349454e545f5045524d495353494f6040820152614e5360f01b606082015260800190565b60208082526015908201527452656769737472793a204c4142454c5f454d50545960581b604082015260600190565b6000808335601e19843603018112614d86578283fd5b8301803591506001600160401b03821115614d9f578283fd5b6020019150368190038213156138e957600080fd5b6040518181016001600160401b0381118282101715614dd557614dd5614f6a565b604052919050565b60008219821115614df057614df0614f3e565b500190565b600082614e0457614e04614f54565b500490565b600082821015614e1b57614e1b614f3e565b500390565b600060808236031215614e31578081fd5b604051608081016001600160401b038282108183111715614e5457614e54614f6a565b8160405284359150614e6582614f80565b81835260208501356020840152604085013560408401526060850135915080821115614e8f578384fd5b50614e9c3682860161393f565b60608301525092915050565b60005b83811015614ec3578181015183820152602001614eab565b8381111561140b5750506000910152565b600281046001821680614ee857607f821691505b60208210811415614f0957634e487b7160e01b600052602260045260246000fd5b50919050565b6000600019821415614f2357614f23614f3e565b5060010190565b600082614f3957614f39614f54565b500690565b634e487b7160e01b600052601160045260246000fd5b634e487b7160e01b600052601260045260246000fd5b634e487b7160e01b600052604160045260246000fd5b6001600160a01b0381168114610e0d57600080fd5b6001600160e01b031981168114610e0d57600080fdfebe2bb46ac0377341a1ec5c3116d70fd5029d704bd46292e58f6265dd177ebafea164736f6c6343000800000a",
  "linkReferences": {},
  "deployedLinkReferences": {}
}