{
  "_format": "hh-sol-artifact-1",
  "contractName": "UNSRegistry",
  "sourceName": "contracts/UNSRegistry.sol",
  "abi": [
    {
      "anonymous": false,
      "inputs": [
        {
          "indexed": false,
          "internalType": "address",
          "name": "previousAdmin",
          "type": "address"
        },
        {
          "indexed": false,
          "internalType": "address",
          "name": "newAdmin",
          "type": "address"
        }
      ],
      "name": "AdminChanged",
      "type": "event"
    },
    {
      "anonymous": false,
      "inputs": [
        {
          "indexed": true,
          "internalType": "address",
          "name": "owner",
          "type": "address"
        },
        {
          "indexed": true,
          "internalType": "address",
          "name": "approved",
          "type": "address"
        },
        {
          "indexed": true,
          "internalType": "uint256",
          "name": "tokenId",
          "type": "uint256"
        }
      ],
      "name": "Approval",
      "type": "event"
    },
    {
      "anonymous": false,
      "inputs": [
        {
          "indexed": true,
          "internalType": "address",
          "name": "owner",
          "type": "address"
        },
        {
          "indexed": true,
          "internalType": "address",
          "name": "operator",
          "type": "address"
        },
        {
          "indexed": false,
          "internalType": "bool",
          "name": "approved",
          "type": "bool"
        }
      ],
      "name": "ApprovalForAll",
      "type": "event"
    },
    {
      "anonymous": false,
      "inputs": [
        {
          "indexed": false,
          "internalType": "uint8",
          "name": "version",
          "type": "uint8"
        }
      ],
      "name": "Initialized",
      "type": "event"
    },
    {
      "anonymous": false,
      "inputs": [
        {
          "indexed": true,
          "internalType": "uint256",
          "name": "tokenId",
          "type": "uint256"
        },
        {
          "indexed": true,
          "internalType": "string",
          "name": "keyIndex",
          "type": "string"
        },
        {
          "indexed": false,
          "internalType": "string",
          "name": "key",
          "type": "string"
        }
      ],
      "name": "NewKey",
      "type": "event"
    },
    {
      "anonymous": false,
      "inputs": [
        {
          "indexed": true,
          "internalType": "uint256",
          "name": "tokenId",
          "type": "uint256"
        },
        {
          "indexed": false,
          "internalType": "string",
          "name": "uri",
          "type": "string"
        }
      ],
      "name": "NewURI",
      "type": "event"
    },
    {
      "anonymous": false,
      "inputs": [
        {
          "indexed": false,
          "internalType": "string",
          "name": "prefix",
          "type": "string"
        }
      ],
      "name": "NewURIPrefix",
      "type": "event"
    },
    {
      "anonymous": false,
      "inputs": [
        {
          "indexed": true,
          "internalType": "address",
          "name": "addr",
          "type": "address"
        }
      ],
      "name": "RemoveReverse",
      "type": "event"
    },
    {
      "anonymous": false,
      "inputs": [
        {
          "indexed": true,
          "internalType": "uint256",
          "name": "tokenId",
          "type": "uint256"
        }
      ],
      "name": "ResetRecords",
      "type": "event"
    },
    {
      "anonymous": false,
      "inputs": [
        {
          "indexed": true,
          "internalType": "uint256",
          "name": "tokenId",
          "type": "uint256"
        },
        {
          "indexed": true,
          "internalType": "string",
          "name": "keyIndex",
          "type": "string"
        },
        {
          "indexed": true,
          "internalType": "string",
          "name": "valueIndex",
          "type": "string"
        },
        {
          "indexed": false,
          "internalType": "string",
          "name": "key",
          "type": "string"
        },
        {
          "indexed": false,
          "internalType": "string",
          "name": "value",
          "type": "string"
        }
      ],
      "name": "Set",
      "type": "event"
    },
    {
      "anonymous": false,
      "inputs": [
        {
          "indexed": true,
          "internalType": "address",
          "name": "addr",
          "type": "address"
        },
        {
          "indexed": true,
          "internalType": "uint256",
          "name": "tokenId",
          "type": "uint256"
        }
      ],
      "name": "SetReverse",
      "type": "event"
    },
    {
      "anonymous": false,
      "inputs": [
        {
          "indexed": true,
          "internalType": "address",
          "name": "from",
          "type": "address"
        },
        {
          "indexed": true,
          "internalType": "address",
          "name": "to",
          "type": "address"
        },
        {
          "indexed": true,
          "internalType": "uint256",
          "name": "tokenId",
          "type": "uint256"
        }
      ],
      "name": "Transfer",
      "type": "event"
    },
    {
      "anonymous": false,
      "inputs": [
        {
          "indexed": true,
          "internalType": "address",
          "name": "implementation",
          "type": "address"
        }
      ],
      "name": "Upgraded",
      "type": "event"
    },
    {
      "inputs": [],
      "name": "BATCH_LIMIT",
      "outputs": [
        {
          "internalType": "uint256",
          "name": "",
          "type": "uint256"
        }
      ],
      "stateMutability": "view",
      "type": "function"
    },
    {
      "inputs": [],
      "name": "NAME",
      "outputs": [
        {
          "internalType": "string",
          "name": "",
          "type": "string"
        }
      ],
      "stateMutability": "view",
      "type": "function"
    },
    {
      "inputs": [],
      "name": "VERSION",
      "outputs": [
        {
          "internalType": "string",
          "name": "",
          "type": "string"
        }
      ],
      "stateMutability": "view",
      "type": "function"
    },
    {
      "inputs": [
        {
          "internalType": "string",
          "name": "key",
          "type": "string"
        }
      ],
      "name": "addKey",
      "outputs": [],
      "stateMutability": "nonpayable",
      "type": "function"
    },
    {
      "inputs": [
        {
          "internalType": "address",
          "name": "addr",
          "type": "address"
        }
      ],
      "name": "addProxyReader",
      "outputs": [],
      "stateMutability": "nonpayable",
      "type": "function"
    },
    {
      "inputs": [
        {
          "internalType": "address",
          "name": "to",
          "type": "address"
        },
        {
          "internalType": "uint256",
          "name": "tokenId",
          "type": "uint256"
        }
      ],
      "name": "approve",
      "outputs": [],
      "stateMutability": "nonpayable",
      "type": "function"
    },
    {
      "inputs": [
        {
          "internalType": "string[][]",
          "name": "domains",
          "type": "string[][]"
        }
      ],
      "name": "backfillReverseNames",
      "outputs": [],
      "stateMutability": "nonpayable",
      "type": "function"
    },
    {
      "inputs": [
        {
          "internalType": "address",
          "name": "owner",
          "type": "address"
        }
      ],
      "name": "balanceOf",
      "outputs": [
        {
          "internalType": "uint256",
          "name": "",
          "type": "uint256"
        }
      ],
      "stateMutability": "view",
      "type": "function"
    },
    {
      "inputs": [
        {
          "internalType": "uint256",
          "name": "tokenId",
          "type": "uint256"
        }
      ],
      "name": "burn",
      "outputs": [],
      "stateMutability": "nonpayable",
      "type": "function"
    },
    {
      "inputs": [
        {
          "internalType": "address",
          "name": "user",
          "type": "address"
        },
        {
          "internalType": "bytes",
          "name": "depositData",
          "type": "bytes"
        }
      ],
      "name": "deposit",
      "outputs": [],
      "stateMutability": "nonpayable",
      "type": "function"
    },
    {
      "inputs": [
        {
          "internalType": "uint256",
          "name": "tokenId",
          "type": "uint256"
        }
      ],
      "name": "depositToPolygon",
      "outputs": [],
      "stateMutability": "nonpayable",
      "type": "function"
    },
    {
      "inputs": [
        {
          "components": [
            {
              "internalType": "address",
              "name": "from",
              "type": "address"
            },
            {
              "internalType": "uint256",
              "name": "nonce",
              "type": "uint256"
            },
            {
              "internalType": "uint256",
              "name": "tokenId",
              "type": "uint256"
            },
            {
              "internalType": "bytes",
              "name": "data",
              "type": "bytes"
            }
          ],
          "internalType": "struct IForwarder.ForwardRequest",
          "name": "req",
          "type": "tuple"
        },
        {
          "internalType": "bytes",
          "name": "signature",
          "type": "bytes"
        }
      ],
      "name": "execute",
      "outputs": [
        {
          "internalType": "bytes",
          "name": "",
          "type": "bytes"
        }
      ],
      "stateMutability": "nonpayable",
      "type": "function"
    },
    {
      "inputs": [
        {
          "internalType": "uint256",
          "name": "tokenId",
          "type": "uint256"
        }
      ],
      "name": "exists",
      "outputs": [
        {
          "internalType": "bool",
          "name": "",
          "type": "bool"
        }
      ],
      "stateMutability": "view",
      "type": "function"
    },
    {
      "inputs": [
        {
          "internalType": "string",
          "name": "key",
          "type": "string"
        },
        {
          "internalType": "uint256",
          "name": "tokenId",
          "type": "uint256"
        }
      ],
      "name": "get",
      "outputs": [
        {
          "internalType": "string",
          "name": "value",
          "type": "string"
        }
      ],
      "stateMutability": "view",
      "type": "function"
    },
    {
      "inputs": [
        {
          "internalType": "uint256",
          "name": "tokenId",
          "type": "uint256"
        }
      ],
      "name": "getApproved",
      "outputs": [
        {
          "internalType": "address",
          "name": "",
          "type": "address"
        }
      ],
      "stateMutability": "view",
      "type": "function"
    },
    {
      "inputs": [
        {
          "internalType": "uint256",
          "name": "keyHash",
          "type": "uint256"
        },
        {
          "internalType": "uint256",
          "name": "tokenId",
          "type": "uint256"
        }
      ],
      "name": "getByHash",
      "outputs": [
        {
          "internalType": "string",
          "name": "key",
          "type": "string"
        },
        {
          "internalType": "string",
          "name": "value",
          "type": "string"
        }
      ],
      "stateMutability": "view",
      "type": "function"
    },
    {
      "inputs": [
        {
          "internalType": "uint256",
          "name": "keyHash",
          "type": "uint256"
        }
      ],
      "name": "getKey",
      "outputs": [
        {
          "internalType": "string",
          "name": "",
          "type": "string"
        }
      ],
      "stateMutability": "view",
      "type": "function"
    },
    {
      "inputs": [
        {
          "internalType": "uint256[]",
          "name": "hashes",
          "type": "uint256[]"
        }
      ],
      "name": "getKeys",
      "outputs": [
        {
          "internalType": "string[]",
          "name": "values",
          "type": "string[]"
        }
      ],
      "stateMutability": "view",
      "type": "function"
    },
    {
      "inputs": [
        {
          "internalType": "string[]",
          "name": "keys",
          "type": "string[]"
        },
        {
          "internalType": "uint256",
          "name": "tokenId",
          "type": "uint256"
        }
      ],
      "name": "getMany",
      "outputs": [
        {
          "internalType": "string[]",
          "name": "values",
          "type": "string[]"
        }
      ],
      "stateMutability": "view",
      "type": "function"
    },
    {
      "inputs": [
        {
          "internalType": "uint256[]",
          "name": "keyHashes",
          "type": "uint256[]"
        },
        {
          "internalType": "uint256",
          "name": "tokenId",
          "type": "uint256"
        }
      ],
      "name": "getManyByHash",
      "outputs": [
        {
          "internalType": "string[]",
          "name": "keys",
          "type": "string[]"
        },
        {
          "internalType": "string[]",
          "name": "values",
          "type": "string[]"
        }
      ],
      "stateMutability": "view",
      "type": "function"
    },
    {
      "inputs": [
        {
          "internalType": "address",
          "name": "mintingManager",
          "type": "address"
        },
        {
          "internalType": "address",
          "name": "cnsRegistry",
          "type": "address"
        },
        {
          "internalType": "address",
          "name": "rootChainManager",
          "type": "address"
        },
        {
          "internalType": "address",
          "name": "childChainManager",
          "type": "address"
        }
      ],
      "name": "initialize",
      "outputs": [],
      "stateMutability": "nonpayable",
      "type": "function"
    },
    {
      "inputs": [
        {
          "internalType": "address",
          "name": "owner",
          "type": "address"
        },
        {
          "internalType": "address",
          "name": "operator",
          "type": "address"
        }
      ],
      "name": "isApprovedForAll",
      "outputs": [
        {
          "internalType": "bool",
          "name": "",
          "type": "bool"
        }
      ],
      "stateMutability": "view",
      "type": "function"
    },
    {
      "inputs": [
        {
          "internalType": "address",
          "name": "spender",
          "type": "address"
        },
        {
          "internalType": "uint256",
          "name": "tokenId",
          "type": "uint256"
        }
      ],
      "name": "isApprovedOrOwner",
      "outputs": [
        {
          "internalType": "bool",
          "name": "",
          "type": "bool"
        }
      ],
      "stateMutability": "view",
      "type": "function"
    },
    {
      "inputs": [
        {
          "internalType": "address",
          "name": "forwarder",
          "type": "address"
        }
      ],
      "name": "isTrustedForwarder",
      "outputs": [
        {
          "internalType": "bool",
          "name": "",
          "type": "bool"
        }
      ],
      "stateMutability": "view",
      "type": "function"
    },
    {
      "inputs": [
        {
          "internalType": "address",
          "name": "user",
          "type": "address"
        },
        {
          "internalType": "uint256",
          "name": "tokenId",
          "type": "uint256"
        }
      ],
      "name": "mint",
      "outputs": [],
      "stateMutability": "nonpayable",
      "type": "function"
    },
    {
      "inputs": [
        {
          "internalType": "address",
          "name": "user",
          "type": "address"
        },
        {
          "internalType": "uint256",
          "name": "tokenId",
          "type": "uint256"
        },
        {
          "internalType": "bytes",
          "name": "",
          "type": "bytes"
        }
      ],
      "name": "mint",
      "outputs": [],
      "stateMutability": "nonpayable",
      "type": "function"
    },
    {
      "inputs": [
        {
          "internalType": "uint256",
          "name": "tokenId",
          "type": "uint256"
        },
        {
          "internalType": "string",
          "name": "uri",
          "type": "string"
        }
      ],
      "name": "mintTLD",
      "outputs": [],
      "stateMutability": "nonpayable",
      "type": "function"
    },
    {
      "inputs": [
        {
          "internalType": "address",
          "name": "to",
          "type": "address"
        },
        {
          "internalType": "string[]",
          "name": "labels",
          "type": "string[]"
        },
        {
          "internalType": "string[]",
          "name": "keys",
          "type": "string[]"
        },
        {
          "internalType": "string[]",
          "name": "values",
          "type": "string[]"
        },
        {
          "internalType": "bool",
          "name": "withReverse",
          "type": "bool"
        }
      ],
      "name": "mintWithRecords",
      "outputs": [],
      "stateMutability": "nonpayable",
      "type": "function"
    },
    {
      "inputs": [],
      "name": "name",
      "outputs": [
        {
          "internalType": "string",
          "name": "",
          "type": "string"
        }
      ],
      "stateMutability": "view",
      "type": "function"
    },
    {
      "inputs": [
        {
          "internalType": "string[]",
          "name": "labels",
          "type": "string[]"
        }
      ],
      "name": "namehash",
      "outputs": [
        {
          "internalType": "uint256",
          "name": "",
          "type": "uint256"
        }
      ],
      "stateMutability": "pure",
      "type": "function"
    },
    {
      "inputs": [
        {
          "internalType": "uint256",
          "name": "tokenId",
          "type": "uint256"
        }
      ],
      "name": "nonceOf",
      "outputs": [
        {
          "internalType": "uint256",
          "name": "",
          "type": "uint256"
        }
      ],
      "stateMutability": "view",
      "type": "function"
    },
    {
      "inputs": [
        {
          "internalType": "address",
          "name": "",
          "type": "address"
        },
        {
          "internalType": "address",
          "name": "from",
          "type": "address"
        },
        {
          "internalType": "uint256",
          "name": "tokenId",
          "type": "uint256"
        },
        {
          "internalType": "bytes",
          "name": "data",
          "type": "bytes"
        }
      ],
      "name": "onERC721Received",
      "outputs": [
        {
          "internalType": "bytes4",
          "name": "",
          "type": "bytes4"
        }
      ],
      "stateMutability": "nonpayable",
      "type": "function"
    },
    {
      "inputs": [
        {
          "internalType": "uint256",
          "name": "tokenId",
          "type": "uint256"
        }
      ],
      "name": "ownerOf",
      "outputs": [
        {
          "internalType": "address",
          "name": "",
          "type": "address"
        }
      ],
      "stateMutability": "view",
      "type": "function"
    },
    {
      "inputs": [
        {
          "internalType": "string[]",
          "name": "keys",
          "type": "string[]"
        },
        {
          "internalType": "string[]",
          "name": "values",
          "type": "string[]"
        },
        {
          "internalType": "uint256",
          "name": "tokenId",
          "type": "uint256"
        }
      ],
      "name": "reconfigure",
      "outputs": [],
      "stateMutability": "nonpayable",
      "type": "function"
    },
    {
      "inputs": [],
      "name": "removeReverse",
      "outputs": [],
      "stateMutability": "nonpayable",
      "type": "function"
    },
    {
      "inputs": [
        {
          "internalType": "uint256",
          "name": "tokenId",
          "type": "uint256"
        }
      ],
      "name": "reset",
      "outputs": [],
      "stateMutability": "nonpayable",
      "type": "function"
    },
    {
      "inputs": [
        {
          "internalType": "uint256",
          "name": "tokenId",
          "type": "uint256"
        }
      ],
      "name": "resolverOf",
      "outputs": [
        {
          "internalType": "address",
          "name": "",
          "type": "address"
        }
      ],
      "stateMutability": "view",
      "type": "function"
    },
    {
      "inputs": [
        {
          "internalType": "address",
          "name": "addr",
          "type": "address"
        }
      ],
      "name": "reverseNameOf",
      "outputs": [
        {
          "internalType": "string",
          "name": "reverseUri",
          "type": "string"
        }
      ],
      "stateMutability": "view",
      "type": "function"
    },
    {
      "inputs": [
        {
          "internalType": "address",
          "name": "addr",
          "type": "address"
        }
      ],
      "name": "reverseOf",
      "outputs": [
        {
          "internalType": "uint256",
          "name": "reverse",
          "type": "uint256"
        }
      ],
      "stateMutability": "view",
      "type": "function"
    },
    {
      "inputs": [],
      "name": "root",
      "outputs": [
        {
          "internalType": "uint256",
          "name": "",
          "type": "uint256"
        }
      ],
      "stateMutability": "pure",
      "type": "function"
    },
    {
      "inputs": [
        {
          "internalType": "address",
          "name": "from",
          "type": "address"
        },
        {
          "internalType": "address",
          "name": "to",
          "type": "address"
        },
        {
          "internalType": "uint256",
          "name": "tokenId",
          "type": "uint256"
        }
      ],
      "name": "safeTransferFrom",
      "outputs": [],
      "stateMutability": "nonpayable",
      "type": "function"
    },
    {
      "inputs": [
        {
          "internalType": "address",
          "name": "from",
          "type": "address"
        },
        {
          "internalType": "address",
          "name": "to",
          "type": "address"
        },
        {
          "internalType": "uint256",
          "name": "tokenId",
          "type": "uint256"
        },
        {
          "internalType": "bytes",
          "name": "data",
          "type": "bytes"
        }
      ],
      "name": "safeTransferFrom",
      "outputs": [],
      "stateMutability": "nonpayable",
      "type": "function"
    },
    {
      "inputs": [
        {
          "internalType": "string",
          "name": "key",
          "type": "string"
        },
        {
          "internalType": "string",
          "name": "value",
          "type": "string"
        },
        {
          "internalType": "uint256",
          "name": "tokenId",
          "type": "uint256"
        }
      ],
      "name": "set",
      "outputs": [],
      "stateMutability": "nonpayable",
      "type": "function"
    },
    {
      "inputs": [
        {
          "internalType": "address",
          "name": "operator",
          "type": "address"
        },
        {
          "internalType": "bool",
          "name": "approved",
          "type": "bool"
        }
      ],
      "name": "setApprovalForAll",
      "outputs": [],
      "stateMutability": "nonpayable",
      "type": "function"
    },
    {
      "inputs": [
        {
          "internalType": "uint256",
          "name": "keyHash",
          "type": "uint256"
        },
        {
          "internalType": "string",
          "name": "value",
          "type": "string"
        },
        {
          "internalType": "uint256",
          "name": "tokenId",
          "type": "uint256"
        }
      ],
      "name": "setByHash",
      "outputs": [],
      "stateMutability": "nonpayable",
      "type": "function"
    },
    {
      "inputs": [
        {
          "internalType": "string[]",
          "name": "keys",
          "type": "string[]"
        },
        {
          "internalType": "string[]",
          "name": "values",
          "type": "string[]"
        },
        {
          "internalType": "uint256",
          "name": "tokenId",
          "type": "uint256"
        }
      ],
      "name": "setMany",
      "outputs": [],
      "stateMutability": "nonpayable",
      "type": "function"
    },
    {
      "inputs": [
        {
          "internalType": "uint256[]",
          "name": "keyHashes",
          "type": "uint256[]"
        },
        {
          "internalType": "string[]",
          "name": "values",
          "type": "string[]"
        },
        {
          "internalType": "uint256",
          "name": "tokenId",
          "type": "uint256"
        }
      ],
      "name": "setManyByHash",
      "outputs": [],
      "stateMutability": "nonpayable",
      "type": "function"
    },
    {
      "inputs": [
        {
          "internalType": "address",
          "name": "to",
          "type": "address"
        },
        {
          "internalType": "uint256",
          "name": "tokenId",
          "type": "uint256"
        }
      ],
      "name": "setOwner",
      "outputs": [],
      "stateMutability": "nonpayable",
      "type": "function"
    },
    {
      "inputs": [
        {
          "internalType": "uint256",
          "name": "tokenId",
          "type": "uint256"
        }
      ],
      "name": "setReverse",
      "outputs": [],
      "stateMutability": "nonpayable",
      "type": "function"
    },
    {
      "inputs": [
        {
          "internalType": "string[]",
          "name": "labels",
          "type": "string[]"
        }
      ],
      "name": "setReverse",
      "outputs": [],
      "stateMutability": "nonpayable",
      "type": "function"
    },
    {
      "inputs": [
        {
          "internalType": "string",
          "name": "prefix",
          "type": "string"
        }
      ],
      "name": "setTokenURIPrefix",
      "outputs": [],
      "stateMutability": "nonpayable",
      "type": "function"
    },
    {
      "inputs": [
        {
          "internalType": "bytes4",
          "name": "interfaceId",
          "type": "bytes4"
        }
      ],
      "name": "supportsInterface",
      "outputs": [
        {
          "internalType": "bool",
          "name": "",
          "type": "bool"
        }
      ],
      "stateMutability": "view",
      "type": "function"
    },
    {
      "inputs": [],
      "name": "symbol",
      "outputs": [
        {
          "internalType": "string",
          "name": "",
          "type": "string"
        }
      ],
      "stateMutability": "view",
      "type": "function"
    },
    {
      "inputs": [
        {
          "internalType": "uint256",
          "name": "tokenId",
          "type": "uint256"
        }
      ],
      "name": "tokenURI",
      "outputs": [
        {
          "internalType": "string",
          "name": "",
          "type": "string"
        }
      ],
      "stateMutability": "view",
      "type": "function"
    },
    {
      "inputs": [
        {
          "internalType": "address",
          "name": "from",
          "type": "address"
        },
        {
          "internalType": "address",
          "name": "to",
          "type": "address"
        },
        {
          "internalType": "uint256",
          "name": "tokenId",
          "type": "uint256"
        }
      ],
      "name": "transferFrom",
      "outputs": [],
      "stateMutability": "nonpayable",
      "type": "function"
    },
    {
      "inputs": [
        {
          "internalType": "address",
          "name": "to",
          "type": "address"
        },
        {
          "internalType": "uint256",
          "name": "tokenId",
          "type": "uint256"
        },
        {
          "internalType": "string[]",
          "name": "labels",
          "type": "string[]"
        },
        {
          "internalType": "string[]",
          "name": "keys",
          "type": "string[]"
        },
        {
          "internalType": "string[]",
          "name": "values",
          "type": "string[]"
        },
        {
          "internalType": "bool",
          "name": "withReverse",
          "type": "bool"
        }
      ],
      "name": "unlockWithRecords",
      "outputs": [],
      "stateMutability": "nonpayable",
      "type": "function"
    },
    {
      "inputs": [
        {
          "components": [
            {
              "internalType": "address",
              "name": "from",
              "type": "address"
            },
            {
              "internalType": "uint256",
              "name": "nonce",
              "type": "uint256"
            },
            {
              "internalType": "uint256",
              "name": "tokenId",
              "type": "uint256"
            },
            {
              "internalType": "bytes",
              "name": "data",
              "type": "bytes"
            }
          ],
          "internalType": "struct IForwarder.ForwardRequest",
          "name": "req",
          "type": "tuple"
        },
        {
          "internalType": "bytes",
          "name": "signature",
          "type": "bytes"
        }
      ],
      "name": "verify",
      "outputs": [
        {
          "internalType": "bool",
          "name": "",
          "type": "bool"
        }
      ],
      "stateMutability": "view",
      "type": "function"
    },
    {
      "inputs": [
        {
          "internalType": "bytes",
          "name": "inputData",
          "type": "bytes"
        },
        {
          "internalType": "uint256",
          "name": "tokenId",
          "type": "uint256"
        },
        {
          "internalType": "string[]",
          "name": "keys",
          "type": "string[]"
        },
        {
          "internalType": "string[]",
          "name": "values",
          "type": "string[]"
        }
      ],
      "name": "withdrawFromPolygon",
      "outputs": [],
      "stateMutability": "nonpayable",
      "type": "function"
    }
  ],
  "bytecode": "0x608060405234801561001057600080fd5b5061524f806100206000396000f3fe608060405234801561001057600080fd5b506004361061038e5760003560e01c806370a08231116101de578063b88d4fde1161010f578063e985e9c5116100ad578063f5c1f76e1161007c578063f5c1f76e14610842578063f7df5c6014610855578063f8c8765e14610868578063ffa1ad741461087b57600080fd5b8063e985e9c5146107e4578063ebf0c71714610820578063ec129eea14610827578063f25eb5c11461083a57600080fd5b8063bebec6b4116100e9578063bebec6b414610798578063c87b56dd146107ab578063ce92b33e146107be578063cf2c52cb146107d157600080fd5b8063b88d4fde1461075f578063ba5d40b714610772578063bb5b27e11461078557600080fd5b806399e0dd7c1161017c578063a424740011610156578063a424740014610705578063ab3b87fe14610718578063b3f9e4cb1461072b578063b85afd281461073e57600080fd5b806399e0dd7c146106b3578063a22cb465146106c6578063a3f4df7e146106d957600080fd5b806394d008ef116101b857806394d008ef1461067d5780639508b1c4146106905780639559c0bd146106a357806395d89b41146106ab57600080fd5b806370a08231146106445780637e37479e1461065757806384442b511461066a57600080fd5b806342842e0e116102c357806350382c1a11610261578063638e5c7811610230578063638e5c78146105dc578063663f7b2a146105ef578063672b9f81146106025780636ccbae5f1461062357600080fd5b806350382c1a14610587578063509602391461059a578063572b6c05146105ad5780636352211e146105c957600080fd5b806344d5f66c1161029d57806344d5f66c1461053b57806347c816991461054e5780634a72584d146105615780634f558e791461057457600080fd5b806342842e0e1461050257806342966c6814610515578063430c20811461052857600080fd5b80631bf7e13e1161033057806327f189751161030a57806327f18975146104b6578063310bd74b146104c9578063384e9a55146104dc57806340c10f19146104ef57600080fd5b80631bf7e13e1461046f57806323b872dd14610482578063276fabb11461049557600080fd5b8063095ea7b31161036c578063095ea7b3146103fb578063150b7a02146104105780631bd8cc1a1461043c5780631be5e7ed1461045c57600080fd5b806301ffc9a71461039357806306fdde03146103bb578063081812fc146103d0575b600080fd5b6103a66103a136600461485d565b61089f565b60405190151581526020015b60405180910390f35b6103c36108b0565b6040516103b29190614d8a565b6103e36103de366004614a8b565b610942565b6040516001600160a01b0390911681526020016103b2565b61040e61040936600461447a565b610969565b005b61042361041e36600461426c565b6109be565b6040516001600160e01b031990911681526020016103b2565b61044f61044a36600461471e565b610b14565b6040516103b29190614d25565b6103c361046a3660046149c5565b610c34565b6103c361047d366004614a2c565b610c7f565b61040e61049036600461422c565b610d8a565b6104a86104a336600461466f565b610e10565b6040519081526020016103b2565b61040e6104c43660046146ae565b610e24565b61040e6104d7366004614a8b565b610e9f565b61040e6104ea366004614a8b565b610f0d565b61040e6104fd36600461447a565b610f9c565b61040e61051036600461422c565b610fe9565b61040e610523366004614a8b565b611004565b6103a661053636600461447a565b61107b565b61040e6105493660046145bf565b611087565b61040e61055c366004614967565b611167565b61040e61056f366004614ad3565b6111d9565b6103a6610582366004614a8b565b611252565b61040e6105953660046149fa565b611271565b61040e6105a8366004614161565b6112a7565b6103a66105bb366004614161565b6001600160a01b0316301490565b6103e36105d7366004614a8b565b611307565b61040e6105ea366004614a8b565b611367565b61040e6105fd366004614767565b6113b2565b610615610610366004614b23565b611455565b6040516103b2929190614d9d565b6104a8610631366004614a8b565b6000908152610100602052604090205490565b6104a8610652366004614161565b61146d565b6104a8610665366004614161565b6114f3565b61040e6106783660046144a5565b611524565b61040e61068b366004614566565b6115b5565b61040e61069e366004614895565b611604565b6104a8601481565b6103c361165b565b61040e6106c1366004614934565b61166a565b61040e6106d43660046143fd565b6116f0565b6103c36040518060400160405280600d81526020016c554e533a20526567697374727960981b81525081565b6103a6610713366004614a2c565b611702565b61040e61072636600461447a565b61174d565b6103e3610739366004614a8b565b6117c5565b61075161074c36600461471e565b6117ef565b6040516103b2929190614d38565b61040e61076d3660046142dc565b611957565b61040e610780366004614345565b6119d1565b6103c3610793366004614a8b565b611a42565b6103c36107a6366004614161565b611ae4565b6103c36107b9366004614a8b565b611bae565b61040e6107cc3660046146ae565b611c14565b61040e6107df366004614428565b611c86565b6103a66107f2366004614199565b6001600160a01b039182166000908152606a6020908152604080832093909416825291909152205460ff1690565b60006104a8565b61040e6108353660046146ae565b611d63565b61040e611dd5565b61044f61085036600461466f565b611e5b565b61040e610863366004614aa3565b611f38565b61040e6108763660046141d1565b611fc9565b6103c3604051806040016040528060058152602001640c0b8d8b8d60da1b81525081565b60006108aa8261219f565b92915050565b6060606580546108bf90615151565b80601f01602080910402602001604051908101604052809291908181526020018280546108eb90615151565b80156109385780601f1061090d57610100808354040283529160200191610938565b820191906000526020600020905b81548152906001019060200180831161091b57829003601f168201915b5050505050905090565b600061094d826121ef565b506000908152606960205260409020546001600160a01b031690565b80303314156109a65761097a61224e565b81146109a15760405162461bcd60e51b815260040161099890614edb565b60405180910390fd5b6109af565b6109af81612263565b6109b98383612291565b505050565b60007f8ffb960699dc2ba88f34d0e41c029c3c36c95149679fe1d0153a9582bec92378546001600160a01b03166109f36123b4565b6001600160a01b03161415610ab557610a0a6123b4565b6001600160a01b03166342966c68856040518263ffffffff1660e01b8152600401610a3791815260200190565b600060405180830381600087803b158015610a5157600080fd5b505af1158015610a65573d6000803e3d6000fd5b505050821580159150610a7f5750610a7f8284018461482b565b15610a9d57610a8e30856123c3565b610a988585612511565b610aa7565b610aa785856123c3565b50630a85bd0160e11b610b0b565b60405162461bcd60e51b815260206004820152602560248201527f52656769737472793a204552433732315f524543454956494e475f50524f4849604482015264109255115160da1b6064820152608401610998565b95945050505050565b6060826001600160401b03811115610b3c57634e487b7160e01b600052604160045260246000fd5b604051908082528060200260200182016040528015610b6f57816020015b6060815260200190600190039081610b5a5790505b50905060005b83811015610c2c57610bee858583818110610ba057634e487b7160e01b600052603260045260246000fd5b9050602002810190610bb29190614f9f565b8080601f0160208091040260200160405190810160405280939291908181526020018383808284376000920191909152508792506125bc915050565b828281518110610c0e57634e487b7160e01b600052603260045260246000fd5b60200260200101819052508080610c2490615186565b915050610b75565b509392505050565b6060610c7784848080601f0160208091040260200160405190810160405280939291908181526020018383808284376000920191909152508692506125bc915050565b949350505050565b606060005a9050610c91858585611702565b610ced5760405162461bcd60e51b815260206004820152602760248201527f554e535265676973747279466f727761726465723a205349474e41545552455f6044820152661253959053125160ca1b6064820152608401610998565b610d7f610cfd6020870187614161565b30604088013584610d1160608b018b614f9f565b8080601f01602080910402602001604051908101604052809392919081815260200183838082843760009201919091525050604080516020601f8e018190048102820181019092528c815292508c91508b90819084018382808284376000920191909152506125f192505050565b9150505b9392505050565b80610d9c610d966123b4565b826126e0565b610db85760405162461bcd60e51b815260040161099890614df9565b8130331415610dec57610dc961224e565b8114610de75760405162461bcd60e51b815260040161099890614edb565b610df5565b610df581612263565b610dfe8361275e565b610e098585856127cb565b5050505050565b6000610d83610e1f8385615079565b612972565b80610e30610d966123b4565b610e4c5760405162461bcd60e51b815260040161099890614df9565b8130331415610e8057610e5d61224e565b8114610e7b5760405162461bcd60e51b815260040161099890614edb565b610e89565b610e8981612263565b610e9687878787876129cf565b50505050505050565b80610eab610d966123b4565b610ec75760405162461bcd60e51b815260040161099890614df9565b8130331415610efb57610ed861224e565b8114610ef65760405162461bcd60e51b815260040161099890614edb565b610f04565b610f0481612263565b6109b98361275e565b80610f166123b4565b6001600160a01b0316610f2882611307565b6001600160a01b031614610f4e5760405162461bcd60e51b815260040161099890614dc2565b8130331415610f8257610f5f61224e565b8114610f7d5760405162461bcd60e51b815260040161099890614edb565b610f8b565b610f8b81612263565b6109b9610f966123b4565b84612a4e565b610fa4612a96565b6001600160a01b0316610fb56123b4565b6001600160a01b031614610fdb5760405162461bcd60e51b815260040161099890614f5d565b610fe582826123c3565b5050565b6109b983838360405180602001604052806000815250611957565b80611010610d966123b4565b61102c5760405162461bcd60e51b815260040161099890614df9565b81303314156110605761103d61224e565b811461105b5760405162461bcd60e51b815260040161099890614edb565b611069565b61106981612263565b6110728361275e565b6109b983612ba9565b6000610d8383836126e0565b610134546001600160a01b031661109c6123b4565b6001600160a01b0316146110c25760405162461bcd60e51b815260040161099890614e94565b60005b8151811015610fe5576110fe8282815181106110f157634e487b7160e01b600052603260045260246000fd5b6020026020010151612c50565b610136600061113385858151811061112657634e487b7160e01b600052603260045260246000fd5b6020026020010151612972565b81526020019081526020016000209080519060200190611154929190613eba565b508061115f81615186565b9150506110c5565b80611173610d966123b4565b61118f5760405162461bcd60e51b815260040161099890614df9565b81303314156111c3576111a061224e565b81146111be5760405162461bcd60e51b815260040161099890614edb565b6111cc565b6111cc81612263565b610e968787878787612ced565b806111e5610d966123b4565b6112015760405162461bcd60e51b815260040161099890614df9565b81303314156112355761121261224e565b81146112305760405162461bcd60e51b815260040161099890614edb565b61123e565b61123e81612263565b61124a86868686612dcc565b505050505050565b6000818152606760205260408120546001600160a01b031615156108aa565b6112a4816040516020016112859190614bf0565b6040516020818303038152906040528051906020012060001c82612e6c565b50565b610134546001600160a01b03166112bc6123b4565b6001600160a01b0316146112e25760405162461bcd60e51b815260040161099890614e94565b6001600160a01b0316600090815261013760205260409020805460ff19166001179055565b6000818152606760205260408120546001600160a01b0316806108aa5760405162461bcd60e51b8152602060048201526018602482015277115490cdcc8c4e881a5b9d985b1a59081d1bdad95b88125160421b6044820152606401610998565b80611373610d966123b4565b61138f5760405162461bcd60e51b815260040161099890614df9565b6113a161139a6123b4565b30846127cb565b610fe56113ac6123b4565b83612511565b60006113bd82612972565b90506113c76123b4565b6001600160a01b03166113d982611307565b6001600160a01b0316146113ff5760405162461bcd60e51b815260040161099890614dc2565b303314156114325761140f61224e565b811461142d5760405162461bcd60e51b815260040161099890614edb565b61143b565b61143b81612263565b610fe56114466123b4565b8261145085612c50565b612e98565b6060806114628484612f25565b909590945092505050565b60006001600160a01b0382166114d75760405162461bcd60e51b815260206004820152602960248201527f4552433732313a2061646472657373207a65726f206973206e6f7420612076616044820152683634b21037bbb732b960b91b6064820152608401610998565b506001600160a01b031660009081526068602052604090205490565b6001600160a01b0381166000908152610135602052604081205461151681612f46565b61151e578091505b50919050565b610134546001600160a01b03166115396123b4565b6001600160a01b03161461155f5760405162461bcd60e51b815260040161099890614e94565b6115688861275e565b61157b61157489611307565b8a8a6127cb565b611588858585858c612f90565b80156115aa576115aa89896115a56115a08a8c615079565b612c50565b61301a565b505050505050505050565b6115bd612a96565b6001600160a01b03166115ce6123b4565b6001600160a01b0316146115f45760405162461bcd60e51b815260040161099890614f5d565b6115fe84846123c3565b50505050565b61160e878761305c565b6116166123b4565b6001600160a01b031661162886611307565b6001600160a01b03161461164e5760405162461bcd60e51b815260040161099890614dc2565b610e968484848489612f90565b6060606680546108bf90615151565b610134546001600160a01b031661167f6123b4565b6001600160a01b0316146116a55760405162461bcd60e51b815260040161099890614e94565b6116b26101338383613f3a565b507f4b120d6a959a84a520fa48f5f937cca0e79129423487af7901213b5d2e89313b82826040516116e4929190614d76565b60405180910390a15050565b610fe56116fb6123b4565b83836130cb565b6000610c7761171085615086565b3085858080601f01602080910402602001604051908101604052809392919081815260200183838082843760009201919091525061319a92505050565b80611759610d966123b4565b6117755760405162461bcd60e51b815260040161099890614df9565b81303314156117a95761178661224e565b81146117a45760405162461bcd60e51b815260040161099890614edb565b6117b2565b6117b281612263565b6115fe6117be84611307565b85856127cb565b6000818152606760205260408120546001600160a01b03166117e85760006108aa565b3092915050565b606080836001600160401b0381111561181857634e487b7160e01b600052604160045260246000fd5b60405190808252806020026020018201604052801561184b57816020015b60608152602001906001900390816118365790505b509150836001600160401b0381111561187457634e487b7160e01b600052604160045260246000fd5b6040519080825280602002602001820160405280156118a757816020015b60608152602001906001900390816118925790505b50905060005b8481101561194e576118e58686838181106118d857634e487b7160e01b600052603260045260246000fd5b9050602002013585612f25565b84838151811061190557634e487b7160e01b600052603260045260246000fd5b6020026020010184848151811061192c57634e487b7160e01b600052603260045260246000fd5b602002602001018290528290525050808061194690615186565b9150506118ad565b50935093915050565b81611963610d966123b4565b61197f5760405162461bcd60e51b815260040161099890614df9565b82303314156119b35761199061224e565b81146119ae5760405162461bcd60e51b815260040161099890614edb565b6119bc565b6119bc81612263565b6119c58461275e565b61124a868686866132f2565b610134546001600160a01b03166119e66123b4565b6001600160a01b031614611a0c5760405162461bcd60e51b815260040161099890614e94565b6000611a1b610e1f888a615079565b9050611a358982611a2f6115a08b8d615079565b85613325565b6115aa8686868685612f90565b600081815260c960205260409020805460609190611a5f90615151565b80601f0160208091040260200160405190810160405280929190818152602001828054611a8b90615151565b8015611ad85780601f10611aad57610100808354040283529160200191611ad8565b820191906000526020600020905b815481529060010190602001808311611abb57829003601f168201915b50505050509050919050565b6001600160a01b03811660009081526101356020526040902054606090611b0a81612f46565b61151e576000818152610136602052604090208054611b2890615151565b80601f0160208091040260200160405190810160405280929190818152602001828054611b5490615151565b8015611ba15780601f10611b7657610100808354040283529160200191611ba1565b820191906000526020600020905b815481529060010190602001808311611b8457829003601f168201915b5050505050915050919050565b6060611bb9826121ef565b6000611bc3613378565b90506000815111611be35760405180602001604052806000815250610d83565b80611bed84613388565b604051602001611bfe929190614c97565b6040516020818303038152906040529392505050565b80611c20610d966123b4565b611c3c5760405162461bcd60e51b815260040161099890614df9565b8130331415611c7057611c4d61224e565b8114611c6b5760405162461bcd60e51b815260040161099890614edb565b611c79565b611c7981612263565b610e968787878787612f90565b7f8bea9a6f8afd34f4e29c585f854e0cc5161431bf5fc299d468454d33dce53b87546001600160a01b0316611cb96123b4565b6001600160a01b031614611cdf5760405162461bcd60e51b815260040161099890614f5d565b6020811415611d02576000611cf682840184614a8b565b90506115fe84826123c3565b6000611d1082840184614799565b805190915060005b8181101561124a57611d5186848381518110611d4457634e487b7160e01b600052603260045260246000fd5b60200260200101516123c3565b80611d5b81615186565b915050611d18565b80611d6f610d966123b4565b611d8b5760405162461bcd60e51b815260040161099890614df9565b8130331415611dbf57611d9c61224e565b8114611dba5760405162461bcd60e51b815260040161099890614edb565b611dc8565b611dc881612263565b610e9687878787876134a1565b6000611ddf6123b4565b6001600160a01b03811660009081526101356020526040902054909150611e525760405162461bcd60e51b815260206004820152602160248201527f52656769737472793a20524556455253455f5245434f52445f49535f454d50546044820152605960f81b6064820152608401610998565b6112a4816134b7565b6060816001600160401b03811115611e8357634e487b7160e01b600052604160045260246000fd5b604051908082528060200260200182016040528015611eb657816020015b6060815260200190600190039081611ea15790505b50905060005b82811015611f3157611ef3848483818110611ee757634e487b7160e01b600052603260045260246000fd5b90506020020135611a42565b828281518110611f1357634e487b7160e01b600052603260045260246000fd5b60200260200101819052508080611f2990615186565b915050611ebc565b5092915050565b610134546001600160a01b0316611f4d6123b4565b6001600160a01b031614611f735760405162461bcd60e51b815260040161099890614e94565b61013454611f8a906001600160a01b0316846123c3565b827fc5beef08f693b11c316c0c8394a377a0033c9cf701b8cd8afd79cecef60c39528383604051611fbc929190614d76565b60405180910390a2505050565b600054610100900460ff1615808015611fe95750600054600160ff909116105b806120035750303b158015612003575060005460ff166001145b6120665760405162461bcd60e51b815260206004820152602e60248201527f496e697469616c697a61626c653a20636f6e747261637420697320616c72656160448201526d191e481a5b9a5d1a585b1a5e995960921b6064820152608401610998565b6000805460ff191660011790558015612089576000805461ff0019166101001790555b61013480546001600160a01b0319166001600160a01b038716179055837f8ffb960699dc2ba88f34d0e41c029c3c36c95149679fe1d0153a9582bec9237880546001600160a01b0319166001600160a01b03929092169190911790556040805180820182526013815272556e73746f707061626c6520446f6d61696e7360681b60208083019190915282518084019093526002835261155160f21b90830152612131916134fc565b61213961354a565b61214161354a565b61214a83613573565b612153826135a3565b8015610e09576000805461ff0019169055604051600181527f7f26b83ff96e1f2b6a682f133852f6798a09c465da95921460cefb38474024989060200160405180910390a15050505050565b60006001600160e01b031982166380ac58cd60e01b14806121d057506001600160e01b03198216635b5e139f60e01b145b806108aa57506301ffc9a760e01b6001600160e01b03198316146108aa565b6000818152606760205260409020546001600160a01b03166112a45760405162461bcd60e51b8152602060048201526018602482015277115490cdcc8c4e881a5b9d985b1a59081d1bdad95b88125160421b6044820152606401610998565b6000303314156122605750601f193601355b90565b6000818152610100602052604090205461227e906001615036565b6000918252610100602052604090912055565b600061229c82611307565b9050806001600160a01b0316836001600160a01b0316141561230a5760405162461bcd60e51b815260206004820152602160248201527f4552433732313a20617070726f76616c20746f2063757272656e74206f776e656044820152603960f91b6064820152608401610998565b806001600160a01b031661231c6123b4565b6001600160a01b031614806123385750612338816107f26123b4565b6123aa5760405162461bcd60e51b815260206004820152603e60248201527f4552433732313a20617070726f76652063616c6c6572206973206e6f7420746f60448201527f6b656e206f776e6572206e6f7220617070726f76656420666f7220616c6c00006064820152608401610998565b6109b983836135d3565b60006123be613641565b905090565b6001600160a01b0382166124195760405162461bcd60e51b815260206004820181905260248201527f4552433732313a206d696e7420746f20746865207a65726f20616464726573736044820152606401610998565b6000818152606760205260409020546001600160a01b03161561247e5760405162461bcd60e51b815260206004820152601c60248201527f4552433732313a20746f6b656e20616c7265616479206d696e746564000000006044820152606401610998565b61248a6000838361365d565b6001600160a01b03821660009081526068602052604081208054600192906124b3908490615036565b909155505060008181526067602052604080822080546001600160a01b0319166001600160a01b03861690811790915590518392907fddf252ad1be2c89b69c2b068fc378daa952ba7f163c4a11628f55a4df523b3ef908290a45050565b600061251b612a96565b905061252781836135d3565b60008051602061522383398151915254604080516020808201869052825180830390910181528183019283905263e3dec8fb60e01b9092526001600160a01b0390921691829163e3dec8fb91612584918891309190604401614cc6565b600060405180830381600087803b15801561259e57600080fd5b505af11580156125b2573d6000803e3d6000fd5b5050505050505050565b6060610d83836040516020016125d29190614bf0565b6040516020818303038152906040528051906020012060001c836136fa565b60606125fc85612263565b600080876001600160a01b0316866126168b8a89896137dc565b6040516126239190614bf0565b60006040518083038160008787f1925050503d8060008114612661576040519150601f19603f3d011682016040523d82523d6000602084013e612666565b606091505b509092509050612677603f8761504e565b5a1161269357634e487b7160e01b600052600160045260246000fd5b6126d382826040518060400160405280601a81526020017f42617365466f727761726465723a2043414c4c5f4641494c454400000000000081525061380c565b9998505050505050505050565b6000806126ec83611307565b9050806001600160a01b0316846001600160a01b0316148061273357506001600160a01b038082166000908152606a602090815260408083209388168352929052205460ff165b80610c775750836001600160a01b031661274c84610942565b6001600160a01b031614949350505050565b61276781613845565b60405160200161277991815260200190565b60408051601f198184030181528282528051602091820120600085815260cb9092529181209190915582917f185c30856dadb58bf097c1f665a52ada7029752dbcad008ea3fefc73bee8c9fe9190a250565b826001600160a01b03166127de82611307565b6001600160a01b0316146128425760405162461bcd60e51b815260206004820152602560248201527f4552433732313a207472616e736665722066726f6d20696e636f72726563742060448201526437bbb732b960d91b6064820152608401610998565b6001600160a01b0382166128a45760405162461bcd60e51b8152602060048201526024808201527f4552433732313a207472616e7366657220746f20746865207a65726f206164646044820152637265737360e01b6064820152608401610998565b6128af83838361365d565b6128ba6000826135d3565b6001600160a01b03831660009081526068602052604081208054600192906128e3908490615062565b90915550506001600160a01b0382166000908152606860205260408120805460019290612911908490615036565b909155505060008181526067602052604080822080546001600160a01b0319166001600160a01b0386811691821790925591518493918716917fddf252ad1be2c89b69c2b068fc378daa952ba7f163c4a11628f55a4df523b3ef91a4505050565b805160009081905b8015611f31576129bb8285612990600185615062565b815181106129ae57634e487b7160e01b600052603260045260246000fd5b6020026020010151613871565b9150806129c78161513a565b91505061297a565b60005b8481101561124a57612a3c8686838181106129fd57634e487b7160e01b600052603260045260246000fd5b90506020020135858584818110612a2457634e487b7160e01b600052603260045260246000fd5b9050602002810190612a369190614f9f565b85612dcc565b80612a4681615186565b9150506129d2565b6001600160a01b03821660008181526101356020526040808220849055518392917feb76a21470988c474a21f690cc28fee1ed511bd812dc3c21fd0f49c5e5d4708a91a35050565b6000806000805160206152238339815191525460405163721804d360e11b81523060048201526001600160a01b039091169150600090829063e43009a69060240160206040518083038186803b158015612aef57600080fd5b505afa158015612b03573d6000803e3d6000fd5b505050506040513d601f19601f82011682018060405250810190612b279190614845565b60405163e66f960360e01b8152600481018290529091506001600160a01b0383169063e66f96039060240160206040518083038186803b158015612b6a57600080fd5b505afa158015612b7e573d6000803e3d6000fd5b505050506040513d601f19601f82011682018060405250810190612ba2919061417d565b9250505090565b6000612bb482611307565b9050612bc28160008461365d565b612bcd6000836135d3565b6001600160a01b0381166000908152606860205260408120805460019290612bf6908490615062565b909155505060008281526067602052604080822080546001600160a01b0319169055518391906001600160a01b038416907fddf252ad1be2c89b69c2b068fc378daa952ba7f163c4a11628f55a4df523b3ef908390a45050565b6060600082600081518110612c7557634e487b7160e01b600052603260045260246000fd5b602002602001015190506000600190505b8351811015611f315781848281518110612cb057634e487b7160e01b600052603260045260246000fd5b6020026020010151604051602001612cc9929190614c4b565b60405160208183030381529060405291508080612ce590615186565b915050612c86565b60008585604051602001612d02929190614c87565b60408051601f198184030181528282528051602091820120601f8901829004820284018201909252878352909250612d569183918990899081908401838280828437600092019190915250612e6c92505050565b61124a8187878080601f01602080910402602001604051908101604052809392919081815260200183838082843760009201919091525050604080516020601f8b01819004810282018101909252898152925089915088908190840183828082843760009201919091525088925061391e915050565b612dd584613a59565b612e215760405162461bcd60e51b815260206004820152601c60248201527f5265636f726453746f726167653a204b45595f4e4f545f464f554e44000000006044820152606401610998565b6115fe84612e2e86611a42565b85858080601f01602080910402602001604051908101604052809392919081815260200183838082843760009201919091525087925061391e915050565b612e7582613a59565b610fe557600082815260c96020908152604090912082516109b992840190613eba565b6000828152610136602052604090208054612eb290615151565b15159050612edc576000828152610136602090815260409091208251612eda92840190613eba565b505b6001600160a01b03831660008181526101356020526040808220859055518492917feb76a21470988c474a21f690cc28fee1ed511bd812dc3c21fd0f49c5e5d4708a91a3505050565b606080612f3184611a42565b9150612f3d84846136fa565b90509250929050565b6000818152610138602052604081205460ff1680156108aa57506101376000612f6d6123b4565b6001600160a01b0316815260208101919091526040016000205460ff1692915050565b60005b8481101561124a57613008868683818110612fbe57634e487b7160e01b600052603260045260246000fd5b9050602002810190612fd09190614f9f565b868685818110612ff057634e487b7160e01b600052603260045260246000fd5b90506020028101906130029190614f9f565b86612ced565b8061301281615186565b915050612f93565b61dead6001600160a01b0384161480159061304c57506001600160a01b03831660009081526101356020526040902054155b156109b9576109b9838383612e98565b60008051602061522383398151915254604051633805550f60e01b81526001600160a01b03909116908190633805550f9061309d9086908690600401614d76565b600060405180830381600087803b1580156130b757600080fd5b505af1158015610e96573d6000803e3d6000fd5b816001600160a01b0316836001600160a01b0316141561312d5760405162461bcd60e51b815260206004820152601960248201527f4552433732313a20617070726f766520746f2063616c6c6572000000000000006044820152606401610998565b6001600160a01b038381166000818152606a6020908152604080832094871680845294825291829020805460ff191686151590811790915591519182527f17307eab39ab6107e8899845ad3d59bd9653f200f220920489ca2b5937696c31910160405180910390a3505050565b6040838101519051636ccbae5f60e01b8152600481019190915260009081903090636ccbae5f9060240160206040518083038186803b1580156131dc57600080fd5b505afa1580156131f0573d6000803e3d6000fd5b505050506040513d601f19601f820116820180604052508101906132149190614845565b905060006132c28660600151805190602001208688602001516040516020016132629392919092835260609190911b6bffffffffffffffffffffffff19166020830152603482015260540190565b60408051601f1981840301815282825280516020918201207f19457468657265756d205369676e6564204d6573736167653a0a33320000000084830152603c8085019190915282518085039091018152605c909301909152815191012090565b90508186602001511480156132e8575085516132e8906001600160a01b03168286613a7f565b9695505050505050565b6132fd8484846127cb565b61330984848484613bcf565b6115fe5760405162461bcd60e51b815260040161099890614e42565b61332f84846123c3565b827fc5beef08f693b11c316c0c8394a377a0033c9cf701b8cd8afd79cecef60c39528360405161335f9190614d8a565b60405180910390a280156115fe576115fe84848461301a565b606061013380546108bf90615151565b6060816133ac5750506040805180820190915260018152600360fc1b602082015290565b8160005b81156133d657806133c081615186565b91506133cf9050600a8361504e565b91506133b0565b6000816001600160401b038111156133fe57634e487b7160e01b600052604160045260246000fd5b6040519080825280601f01601f191660200182016040528015613428576020820181803683370190505b5090505b8415610c775761343d600183615062565b915061344a600a866151a1565b613455906030615036565b60f81b81838151811061347857634e487b7160e01b600052603260045260246000fd5b60200101906001600160f81b031916908160001a90535061349a600a8661504e565b945061342c565b6134aa8161275e565b610e098585858585612f90565b6001600160a01b03811660008181526101356020526040808220829055517ffcf5eec0cfa3e6332f5f0e63ec242d71f866a61d121d6cdf5c2eb3b668a26c4f9190a250565b600054610100900460ff166135235760405162461bcd60e51b815260040161099890614f12565b8151613536906065906020850190613eba565b5080516109b9906066906020840190613eba565b600054610100900460ff166135715760405162461bcd60e51b815260040161099890614f12565b565b600054610100900460ff1661359a5760405162461bcd60e51b815260040161099890614f12565b6112a481613ce0565b600054610100900460ff166135ca5760405162461bcd60e51b815260040161099890614f12565b6112a481613d39565b600081815260696020526040902080546001600160a01b0319166001600160a01b038416908117909155819061360882611307565b6001600160a01b03167f8c5be1e5ebec7d5bd14f71427d1e84f3dd0314c0f7b2291e5b200ac8c7c3b92560405160405180910390a45050565b600030331415613658575060331936013560601c90565b503390565b6000818152610138602052604090205460ff16158061368457506001600160a01b03821615155b6136d05760405162461bcd60e51b815260206004820152601860248201527f52656769737472793a20544f4b454e5f555047524144454400000000000000006044820152606401610998565b6001600160a01b038316600090815261013560205260409020548114156109b9576109b9836134b7565b606061370582612f46565b1561371f57506040805160208101909152600081526108aa565b60ca600061372c84613845565b81526020019081526020016000206000848152602001908152602001600020805461375690615151565b80601f016020809104026020016040519081016040528092919081815260200182805461378290615151565b80156137cf5780601f106137a4576101008083540402835291602001916137cf565b820191906000526020600020905b8154815290600101906020018083116137b257829003601f168201915b5050505050905092915050565b60608285856040516020016137f393929190614c0c565b6040516020818303038152906040529050949350505050565b6060831561381b575081610d83565b82511561382b5782518084602001fd5b8160405162461bcd60e51b81526004016109989190614d8a565b600081815260cb60205260408120541561386d57600082815260cb60205260409020546108aa565b5090565b60008151600014156138bd5760405162461bcd60e51b815260206004820152601560248201527452656769737472793a204c4142454c5f454d50545960581b6044820152606401610998565b82826040516020016138cf9190614bf0565b604051602081830303815290604052805190602001206040516020016138ff929190918252602082015260400190565b60408051601f1981840301815291905280516020909101209392505050565b60ca600061392b83613845565b81526020019081526020016000206000858152602001908152602001600020805461395590615151565b151590506139ac578260405161396b9190614bf0565b6040518091039020817f7ae4f661958fbecc2f77be6b0eb280d2a6f604b29e1e7221c82b9da0c4af7f86856040516139a39190614d8a565b60405180910390a35b8160ca60006139ba84613845565b8152602001908152602001600020600086815260200190815260200160002090805190602001906139ec929190613eba565b50816040516139fb9190614bf0565b604051809103902083604051613a119190614bf0565b6040518091039020827f851ffe8e74d5015261dba0a1f9e1b0e5d42c5af5d2ad1908fee897c7d80a0d928686604051613a4b929190614d9d565b60405180910390a450505050565b600081815260c9602052604081208054829190613a7590615151565b9050119050919050565b6000806000613a8e8585613d87565b90925090506000816004811115613ab557634e487b7160e01b600052602160045260246000fd5b148015613ad35750856001600160a01b0316826001600160a01b0316145b15613ae357600192505050610d83565b600080876001600160a01b0316631626ba7e60e01b8888604051602401613b0b929190614d5d565b60408051601f198184030181529181526020820180516001600160e01b03166001600160e01b0319909416939093179092529051613b499190614bf0565b600060405180830381855afa9150503d8060008114613b84576040519150601f19603f3d011682016040523d82523d6000602084013e613b89565b606091505b5091509150818015613b9c575080516020145b8015613bc357508051630b135d3f60e11b90613bc19083016020908101908401614845565b145b98975050505050505050565b60006001600160a01b0384163b15613cd857836001600160a01b031663150b7a02613bf86123b4565b8786866040518563ffffffff1660e01b8152600401613c1a9493929190614cf2565b602060405180830381600087803b158015613c3457600080fd5b505af1925050508015613c64575060408051601f3d908101601f19168201909252613c6191810190614879565b60015b613cbe573d808015613c92576040519150601f19603f3d011682016040523d82523d6000602084013e613c97565b606091505b508051613cb65760405162461bcd60e51b815260040161099890614e42565b805181602001fd5b6001600160e01b031916630a85bd0160e11b149050610c77565b506001610c77565b600054610100900460ff16613d075760405162461bcd60e51b815260040161099890614f12565b806000805160206152238339815191525b80546001600160a01b0319166001600160a01b039290921691909117905550565b600054610100900460ff16613d605760405162461bcd60e51b815260040161099890614f12565b807f8bea9a6f8afd34f4e29c585f854e0cc5161431bf5fc299d468454d33dce53b87613d18565b600080825160411415613dbe5760208301516040840151606085015160001a613db287828585613dcd565b94509450505050613dc6565b506000905060025b9250929050565b6000807f7fffffffffffffffffffffffffffffff5d576e7357a4501ddfe92f46681b20a0831115613e045750600090506003613eb1565b8460ff16601b14158015613e1c57508460ff16601c14155b15613e2d5750600090506004613eb1565b6040805160008082526020820180845289905260ff881692820192909252606081018690526080810185905260019060a0016020604051602081039080840390855afa158015613e81573d6000803e3d6000fd5b5050604051601f1901519150506001600160a01b038116613eaa57600060019250925050613eb1565b9150600090505b94509492505050565b828054613ec690615151565b90600052602060002090601f016020900481019282613ee85760008555613f2e565b82601f10613f0157805160ff1916838001178555613f2e565b82800160010185558215613f2e579182015b82811115613f2e578251825591602001919060010190613f13565b5061386d929150613fae565b828054613f4690615151565b90600052602060002090601f016020900481019282613f685760008555613f2e565b82601f10613f815782800160ff19823516178555613f2e565b82800160010185558215613f2e579182015b82811115613f2e578235825591602001919060010190613f93565b5b8082111561386d5760008155600101613faf565b6000613fd6613fd184615013565b614fe3565b9050808382526020808301915083868660051b86011115613ff657600080fd5b6000805b878110156140365782356001600160401b03811115614017578283fd5b6140238a828a016140f7565b8652509383019391830191600101613ffa565b50505050509392505050565b60008083601f840112614053578182fd5b5081356001600160401b03811115614069578182fd5b6020830191508360208260051b8501011115613dc657600080fd5b600082601f830112614094578081fd5b610d8383833560208501613fc3565b803580151581146140b357600080fd5b919050565b60008083601f8401126140c9578182fd5b5081356001600160401b038111156140df578182fd5b602083019150836020828501011115613dc657600080fd5b600082601f830112614107578081fd5b81356001600160401b03811115614120576141206151e1565b614133601f8201601f1916602001614fe3565b818152846020838601011115614147578283fd5b816020850160208301379081016020019190915292915050565b600060208284031215614172578081fd5b8135610d83816151f7565b60006020828403121561418e578081fd5b8151610d83816151f7565b600080604083850312156141ab578081fd5b82356141b6816151f7565b915060208301356141c6816151f7565b809150509250929050565b600080600080608085870312156141e6578182fd5b84356141f1816151f7565b93506020850135614201816151f7565b92506040850135614211816151f7565b91506060850135614221816151f7565b939692955090935050565b600080600060608486031215614240578081fd5b833561424b816151f7565b9250602084013561425b816151f7565b929592945050506040919091013590565b600080600080600060808688031215614283578283fd5b853561428e816151f7565b9450602086013561429e816151f7565b93506040860135925060608601356001600160401b038111156142bf578182fd5b6142cb888289016140b8565b969995985093965092949392505050565b600080600080608085870312156142f1578182fd5b84356142fc816151f7565b9350602085013561430c816151f7565b92506040850135915060608501356001600160401b0381111561432d578182fd5b614339878288016140f7565b91505092959194509250565b60008060008060008060008060a0898b031215614360578586fd5b883561436b816151f7565b975060208901356001600160401b0380821115614386578788fd5b6143928c838d01614042565b909950975060408b01359150808211156143aa578485fd5b6143b68c838d01614042565b909750955060608b01359150808211156143ce578485fd5b506143db8b828c01614042565b90945092506143ee905060808a016140a3565b90509295985092959890939650565b6000806040838503121561440f578182fd5b823561441a816151f7565b9150612f3d602084016140a3565b60008060006040848603121561443c578081fd5b8335614447816151f7565b925060208401356001600160401b03811115614461578182fd5b61446d868287016140b8565b9497909650939450505050565b6000806040838503121561448c578182fd5b8235614497816151f7565b946020939093013593505050565b600080600080600080600080600060c08a8c0312156144c2578283fd5b89356144cd816151f7565b985060208a0135975060408a01356001600160401b03808211156144ef578485fd5b6144fb8d838e01614042565b909950975060608c0135915080821115614513578485fd5b61451f8d838e01614042565b909750955060808c0135915080821115614537578485fd5b506145448c828d01614042565b9094509250614557905060a08b016140a3565b90509295985092959850929598565b6000806000806060858703121561457b578182fd5b8435614586816151f7565b93506020850135925060408501356001600160401b038111156145a7578283fd5b6145b3878288016140b8565b95989497509550505050565b600060208083850312156145d1578182fd5b82356001600160401b03808211156145e7578384fd5b818501915085601f8301126145fa578384fd5b8135614608613fd182615013565b80828252858201915085850189878560051b8801011115614627578788fd5b875b848110156146605781358681111561463f57898afd5b61464d8c8a838b0101614084565b8552509287019290870190600101614629565b50909998505050505050505050565b60008060208385031215614681578182fd5b82356001600160401b03811115614696578283fd5b6146a285828601614042565b90969095509350505050565b6000806000806000606086880312156146c5578283fd5b85356001600160401b03808211156146db578485fd5b6146e789838a01614042565b909750955060208801359150808211156146ff578485fd5b5061470c88828901614042565b96999598509660400135949350505050565b600080600060408486031215614732578081fd5b83356001600160401b03811115614747578182fd5b61475386828701614042565b909790965060209590950135949350505050565b600060208284031215614778578081fd5b81356001600160401b0381111561478d578182fd5b610c7784828501614084565b600060208083850312156147ab578182fd5b82356001600160401b038111156147c0578283fd5b8301601f810185136147d0578283fd5b80356147de613fd182615013565b80828252848201915084840188868560051b87010111156147fd578687fd5b8694505b8385101561481f578035835260019490940193918501918501614801565b50979650505050505050565b60006020828403121561483c578081fd5b610d83826140a3565b600060208284031215614856578081fd5b5051919050565b60006020828403121561486e578081fd5b8135610d838161520c565b60006020828403121561488a578081fd5b8151610d838161520c565b60008060008060008060006080888a0312156148af578081fd5b87356001600160401b03808211156148c5578283fd5b6148d18b838c016140b8565b909950975060208a0135965060408a01359150808211156148f0578283fd5b6148fc8b838c01614042565b909650945060608a0135915080821115614914578283fd5b506149218a828b01614042565b989b979a50959850939692959293505050565b60008060208385031215614946578182fd5b82356001600160401b0381111561495b578283fd5b6146a2858286016140b8565b60008060008060006060868803121561497e578283fd5b85356001600160401b0380821115614994578485fd5b6149a089838a016140b8565b909750955060208801359150808211156149b8578485fd5b5061470c888289016140b8565b6000806000604084860312156149d9578081fd5b83356001600160401b038111156149ee578182fd5b614753868287016140b8565b600060208284031215614a0b578081fd5b81356001600160401b03811115614a20578182fd5b610c77848285016140f7565b600080600060408486031215614a40578081fd5b83356001600160401b0380821115614a56578283fd5b9085019060808288031215614a69578283fd5b90935060208501359080821115614a7e578283fd5b5061446d868287016140b8565b600060208284031215614a9c578081fd5b5035919050565b600080600060408486031215614ab7578081fd5b8335925060208401356001600160401b03811115614461578182fd5b60008060008060608587031215614ae8578182fd5b8435935060208501356001600160401b03811115614b04578283fd5b614b10878288016140b8565b9598909750949560400135949350505050565b60008060408385031215614b35578182fd5b50508035926020909101359150565b600082825180855260208086019550808260051b840101818601855b84811015614b8e57601f19868403018952614b7c838351614bc4565b98840198925090830190600101614b60565b5090979650505050505050565b81835281816020850137506000828201602090810191909152601f909101601f19169091010190565b60008151808452614bdc81602086016020860161510e565b601f01601f19169290920160200192915050565b60008251614c0281846020870161510e565b9190910192915050565b60008451614c1e81846020890161510e565b60609490941b6bffffffffffffffffffffffff191691909301908152601481019190915260340192915050565b60008351614c5d81846020880161510e565b601760f91b9083019081528351614c7b81600184016020880161510e565b01600101949350505050565b8183823760009101908152919050565b60008351614ca981846020880161510e565b835190830190614cbd81836020880161510e565b01949350505050565b6001600160a01b03848116825283166020820152606060408201819052600090610b0b90830184614bc4565b6001600160a01b03858116825284166020820152604081018390526080606082018190526000906132e890830184614bc4565b602081526000610d836020830184614b44565b604081526000614d4b6040830185614b44565b8281036020840152610d7f8185614b44565b828152604060208201526000610c776040830184614bc4565b602081526000610c77602083018486614b9b565b602081526000610d836020830184614bc4565b604081526000614db06040830185614bc4565b8281036020840152610d7f8185614bc4565b6020808252601d908201527f52656769737472793a2053454e4445525f49535f4e4f545f4f574e4552000000604082015260600190565b60208082526029908201527f52656769737472793a2053454e4445525f49535f4e4f545f415050524f5645446040820152682fa7a92fa7aba722a960b91b606082015260800190565b60208082526032908201527f4552433732313a207472616e7366657220746f206e6f6e20455243373231526560408201527131b2b4bb32b91034b6b83632b6b2b73a32b960711b606082015260800190565b60208082526027908201527f52656769737472793a2053454e4445525f49535f4e4f545f4d494e54494e475f60408201526626a0a720a3a2a960c91b606082015260800190565b60208082526017908201527f52656769737472793a20544f4b454e5f494e56414c4944000000000000000000604082015260600190565b6020808252602b908201527f496e697469616c697a61626c653a20636f6e7472616374206973206e6f74206960408201526a6e697469616c697a696e6760a81b606082015260800190565b60208082526022908201527f52656769737472793a20494e53554646494349454e545f5045524d495353494f6040820152614e5360f01b606082015260800190565b6000808335601e19843603018112614fb5578283fd5b8301803591506001600160401b03821115614fce578283fd5b602001915036819003821315613dc657600080fd5b604051601f8201601f191681016001600160401b038111828210171561500b5761500b6151e1565b604052919050565b60006001600160401b0382111561502c5761502c6151e1565b5060051b60200190565b60008219821115615049576150496151b5565b500190565b60008261505d5761505d6151cb565b500490565b600082821015615074576150746151b5565b500390565b6000610d83368484613fc3565b600060808236031215615097578081fd5b604051608081016001600160401b0382821081831117156150ba576150ba6151e1565b81604052843591506150cb826151f7565b818352602085013560208401526040850135604084015260608501359150808211156150f5578384fd5b50615102368286016140f7565b60608301525092915050565b60005b83811015615129578181015183820152602001615111565b838111156115fe5750506000910152565b600081615149576151496151b5565b506000190190565b600181811c9082168061516557607f821691505b6020821081141561151e57634e487b7160e01b600052602260045260246000fd5b600060001982141561519a5761519a6151b5565b5060010190565b6000826151b0576151b06151cb565b500690565b634e487b7160e01b600052601160045260246000fd5b634e487b7160e01b600052601260045260246000fd5b634e487b7160e01b600052604160045260246000fd5b6001600160a01b03811681146112a457600080fd5b6001600160e01b0319811681146112a457600080fdfebe2bb46ac0377341a1ec5c3116d70fd5029d704bd46292e58f6265dd177ebafea164736f6c6343000804000a",
  "linkReferences": {},
  "deployedLinkReferences": {}
}