{
  "_format": "hh-sol-artifact-1",
  "contractName": "UNSRegistry",
  "sourceName": "contracts/UNSRegistry.sol",
  "abi": [
    {
      "anonymous": false,
      "inputs": [
        {
          "indexed": false,
          "internalType": "address",
          "name": "previousAdmin",
          "type": "address"
        },
        {
          "indexed": false,
          "internalType": "address",
          "name": "newAdmin",
          "type": "address"
        }
      ],
      "name": "AdminChanged",
      "type": "event"
    },
    {
      "anonymous": false,
      "inputs": [
        {
          "indexed": true,
          "internalType": "address",
          "name": "owner",
          "type": "address"
        },
        {
          "indexed": true,
          "internalType": "address",
          "name": "approved",
          "type": "address"
        },
        {
          "indexed": true,
          "internalType": "uint256",
          "name": "tokenId",
          "type": "uint256"
        }
      ],
      "name": "Approval",
      "type": "event"
    },
    {
      "anonymous": false,
      "inputs": [
        {
          "indexed": true,
          "internalType": "address",
          "name": "owner",
          "type": "address"
        },
        {
          "indexed": true,
          "internalType": "address",
          "name": "operator",
          "type": "address"
        },
        {
          "indexed": false,
          "internalType": "bool",
          "name": "approved",
          "type": "bool"
        }
      ],
      "name": "ApprovalForAll",
      "type": "event"
    },
    {
      "anonymous": false,
      "inputs": [
        {
          "indexed": false,
          "internalType": "uint8",
          "name": "version",
          "type": "uint8"
        }
      ],
      "name": "Initialized",
      "type": "event"
    },
    {
      "anonymous": false,
      "inputs": [
        {
          "indexed": true,
          "internalType": "uint256",
          "name": "tokenId",
          "type": "uint256"
        },
        {
          "indexed": true,
          "internalType": "string",
          "name": "keyIndex",
          "type": "string"
        },
        {
          "indexed": false,
          "internalType": "string",
          "name": "key",
          "type": "string"
        }
      ],
      "name": "NewKey",
      "type": "event"
    },
    {
      "anonymous": false,
      "inputs": [
        {
          "indexed": true,
          "internalType": "uint256",
          "name": "tokenId",
          "type": "uint256"
        },
        {
          "indexed": false,
          "internalType": "string",
          "name": "uri",
          "type": "string"
        }
      ],
      "name": "NewURI",
      "type": "event"
    },
    {
      "anonymous": false,
      "inputs": [
        {
          "indexed": false,
          "internalType": "string",
          "name": "prefix",
          "type": "string"
        }
      ],
      "name": "NewURIPrefix",
      "type": "event"
    },
    {
      "anonymous": false,
      "inputs": [
        {
          "indexed": true,
          "internalType": "address",
          "name": "addr",
          "type": "address"
        }
      ],
      "name": "RemoveReverse",
      "type": "event"
    },
    {
      "anonymous": false,
      "inputs": [
        {
          "indexed": true,
          "internalType": "uint256",
          "name": "tokenId",
          "type": "uint256"
        }
      ],
      "name": "ResetRecords",
      "type": "event"
    },
    {
      "anonymous": false,
      "inputs": [
        {
          "indexed": true,
          "internalType": "uint256",
          "name": "tokenId",
          "type": "uint256"
        },
        {
          "indexed": true,
          "internalType": "string",
          "name": "keyIndex",
          "type": "string"
        },
        {
          "indexed": true,
          "internalType": "string",
          "name": "valueIndex",
          "type": "string"
        },
        {
          "indexed": false,
          "internalType": "string",
          "name": "key",
          "type": "string"
        },
        {
          "indexed": false,
          "internalType": "string",
          "name": "value",
          "type": "string"
        }
      ],
      "name": "Set",
      "type": "event"
    },
    {
      "anonymous": false,
      "inputs": [
        {
          "indexed": true,
          "internalType": "address",
          "name": "addr",
          "type": "address"
        },
        {
          "indexed": true,
          "internalType": "uint256",
          "name": "tokenId",
          "type": "uint256"
        }
      ],
      "name": "SetReverse",
      "type": "event"
    },
    {
      "anonymous": false,
      "inputs": [
        {
          "indexed": true,
          "internalType": "address",
          "name": "from",
          "type": "address"
        },
        {
          "indexed": true,
          "internalType": "address",
          "name": "to",
          "type": "address"
        },
        {
          "indexed": true,
          "internalType": "uint256",
          "name": "tokenId",
          "type": "uint256"
        }
      ],
      "name": "Transfer",
      "type": "event"
    },
    {
      "anonymous": false,
      "inputs": [
        {
          "indexed": true,
          "internalType": "address",
          "name": "implementation",
          "type": "address"
        }
      ],
      "name": "Upgraded",
      "type": "event"
    },
    {
      "anonymous": false,
      "inputs": [
        {
          "indexed": true,
          "internalType": "address",
          "name": "user",
          "type": "address"
        },
        {
          "indexed": false,
          "internalType": "uint256[]",
          "name": "tokenIds",
          "type": "uint256[]"
        }
      ],
      "name": "WithdrawnBatch",
      "type": "event"
    },
    {
      "inputs": [],
      "name": "BATCH_LIMIT",
      "outputs": [
        {
          "internalType": "uint256",
          "name": "",
          "type": "uint256"
        }
      ],
      "stateMutability": "view",
      "type": "function"
    },
    {
      "inputs": [],
      "name": "NAME",
      "outputs": [
        {
          "internalType": "string",
          "name": "",
          "type": "string"
        }
      ],
      "stateMutability": "view",
      "type": "function"
    },
    {
      "inputs": [],
      "name": "VERSION",
      "outputs": [
        {
          "internalType": "string",
          "name": "",
          "type": "string"
        }
      ],
      "stateMutability": "view",
      "type": "function"
    },
    {
      "inputs": [
        {
          "internalType": "string",
          "name": "key",
          "type": "string"
        }
      ],
      "name": "addKey",
      "outputs": [],
      "stateMutability": "nonpayable",
      "type": "function"
    },
    {
      "inputs": [
        {
          "internalType": "address",
          "name": "to",
          "type": "address"
        },
        {
          "internalType": "uint256",
          "name": "tokenId",
          "type": "uint256"
        }
      ],
      "name": "approve",
      "outputs": [],
      "stateMutability": "nonpayable",
      "type": "function"
    },
    {
      "inputs": [
        {
          "internalType": "address",
          "name": "owner",
          "type": "address"
        }
      ],
      "name": "balanceOf",
      "outputs": [
        {
          "internalType": "uint256",
          "name": "",
          "type": "uint256"
        }
      ],
      "stateMutability": "view",
      "type": "function"
    },
    {
      "inputs": [
        {
          "internalType": "uint256",
          "name": "tokenId",
          "type": "uint256"
        }
      ],
      "name": "burn",
      "outputs": [],
      "stateMutability": "nonpayable",
      "type": "function"
    },
    {
      "inputs": [
        {
          "internalType": "uint256",
          "name": "tokenId",
          "type": "uint256"
        },
        {
          "internalType": "string",
          "name": "label",
          "type": "string"
        }
      ],
      "name": "childIdOf",
      "outputs": [
        {
          "internalType": "uint256",
          "name": "",
          "type": "uint256"
        }
      ],
      "stateMutability": "pure",
      "type": "function"
    },
    {
      "inputs": [
        {
          "internalType": "address",
          "name": "user",
          "type": "address"
        },
        {
          "internalType": "bytes",
          "name": "depositData",
          "type": "bytes"
        }
      ],
      "name": "deposit",
      "outputs": [],
      "stateMutability": "nonpayable",
      "type": "function"
    },
    {
      "inputs": [
        {
          "internalType": "uint256",
          "name": "tokenId",
          "type": "uint256"
        }
      ],
      "name": "depositToPolygon",
      "outputs": [],
      "stateMutability": "nonpayable",
      "type": "function"
    },
    {
      "inputs": [
        {
          "internalType": "uint256[]",
          "name": "tokenIds",
          "type": "uint256[]"
        }
      ],
      "name": "deprecateTokens",
      "outputs": [],
      "stateMutability": "nonpayable",
      "type": "function"
    },
    {
      "inputs": [
        {
          "components": [
            {
              "internalType": "address",
              "name": "from",
              "type": "address"
            },
            {
              "internalType": "uint256",
              "name": "nonce",
              "type": "uint256"
            },
            {
              "internalType": "uint256",
              "name": "tokenId",
              "type": "uint256"
            },
            {
              "internalType": "bytes",
              "name": "data",
              "type": "bytes"
            }
          ],
          "internalType": "struct IForwarder.ForwardRequest",
          "name": "req",
          "type": "tuple"
        },
        {
          "internalType": "bytes",
          "name": "signature",
          "type": "bytes"
        }
      ],
      "name": "execute",
      "outputs": [
        {
          "internalType": "bytes",
          "name": "",
          "type": "bytes"
        }
      ],
      "stateMutability": "nonpayable",
      "type": "function"
    },
    {
      "inputs": [
        {
          "internalType": "uint256",
          "name": "tokenId",
          "type": "uint256"
        }
      ],
      "name": "exists",
      "outputs": [
        {
          "internalType": "bool",
          "name": "",
          "type": "bool"
        }
      ],
      "stateMutability": "view",
      "type": "function"
    },
    {
      "inputs": [
        {
          "internalType": "string",
          "name": "key",
          "type": "string"
        },
        {
          "internalType": "uint256",
          "name": "tokenId",
          "type": "uint256"
        }
      ],
      "name": "get",
      "outputs": [
        {
          "internalType": "string",
          "name": "value",
          "type": "string"
        }
      ],
      "stateMutability": "view",
      "type": "function"
    },
    {
      "inputs": [
        {
          "internalType": "uint256",
          "name": "tokenId",
          "type": "uint256"
        }
      ],
      "name": "getApproved",
      "outputs": [
        {
          "internalType": "address",
          "name": "",
          "type": "address"
        }
      ],
      "stateMutability": "view",
      "type": "function"
    },
    {
      "inputs": [
        {
          "internalType": "uint256",
          "name": "keyHash",
          "type": "uint256"
        },
        {
          "internalType": "uint256",
          "name": "tokenId",
          "type": "uint256"
        }
      ],
      "name": "getByHash",
      "outputs": [
        {
          "internalType": "string",
          "name": "key",
          "type": "string"
        },
        {
          "internalType": "string",
          "name": "value",
          "type": "string"
        }
      ],
      "stateMutability": "view",
      "type": "function"
    },
    {
      "inputs": [
        {
          "internalType": "uint256",
          "name": "keyHash",
          "type": "uint256"
        }
      ],
      "name": "getKey",
      "outputs": [
        {
          "internalType": "string",
          "name": "",
          "type": "string"
        }
      ],
      "stateMutability": "view",
      "type": "function"
    },
    {
      "inputs": [
        {
          "internalType": "uint256[]",
          "name": "hashes",
          "type": "uint256[]"
        }
      ],
      "name": "getKeys",
      "outputs": [
        {
          "internalType": "string[]",
          "name": "values",
          "type": "string[]"
        }
      ],
      "stateMutability": "view",
      "type": "function"
    },
    {
      "inputs": [
        {
          "internalType": "string[]",
          "name": "keys",
          "type": "string[]"
        },
        {
          "internalType": "uint256",
          "name": "tokenId",
          "type": "uint256"
        }
      ],
      "name": "getMany",
      "outputs": [
        {
          "internalType": "string[]",
          "name": "values",
          "type": "string[]"
        }
      ],
      "stateMutability": "view",
      "type": "function"
    },
    {
      "inputs": [
        {
          "internalType": "uint256[]",
          "name": "keyHashes",
          "type": "uint256[]"
        },
        {
          "internalType": "uint256",
          "name": "tokenId",
          "type": "uint256"
        }
      ],
      "name": "getManyByHash",
      "outputs": [
        {
          "internalType": "string[]",
          "name": "keys",
          "type": "string[]"
        },
        {
          "internalType": "string[]",
          "name": "values",
          "type": "string[]"
        }
      ],
      "stateMutability": "view",
      "type": "function"
    },
    {
      "inputs": [
        {
          "internalType": "address",
          "name": "mintingManager",
          "type": "address"
        }
      ],
      "name": "initialize",
      "outputs": [],
      "stateMutability": "nonpayable",
      "type": "function"
    },
    {
      "inputs": [
        {
          "internalType": "address",
          "name": "owner",
          "type": "address"
        },
        {
          "internalType": "address",
          "name": "operator",
          "type": "address"
        }
      ],
      "name": "isApprovedForAll",
      "outputs": [
        {
          "internalType": "bool",
          "name": "",
          "type": "bool"
        }
      ],
      "stateMutability": "view",
      "type": "function"
    },
    {
      "inputs": [
        {
          "internalType": "address",
          "name": "spender",
          "type": "address"
        },
        {
          "internalType": "uint256",
          "name": "tokenId",
          "type": "uint256"
        }
      ],
      "name": "isApprovedOrOwner",
      "outputs": [
        {
          "internalType": "bool",
          "name": "",
          "type": "bool"
        }
      ],
      "stateMutability": "view",
      "type": "function"
    },
    {
      "inputs": [
        {
          "internalType": "address",
          "name": "forwarder",
          "type": "address"
        }
      ],
      "name": "isTrustedForwarder",
      "outputs": [
        {
          "internalType": "bool",
          "name": "",
          "type": "bool"
        }
      ],
      "stateMutability": "view",
      "type": "function"
    },
    {
      "inputs": [
        {
          "internalType": "address",
          "name": "user",
          "type": "address"
        },
        {
          "internalType": "uint256",
          "name": "tokenId",
          "type": "uint256"
        }
      ],
      "name": "mint",
      "outputs": [],
      "stateMutability": "nonpayable",
      "type": "function"
    },
    {
      "inputs": [
        {
          "internalType": "address",
          "name": "user",
          "type": "address"
        },
        {
          "internalType": "uint256",
          "name": "tokenId",
          "type": "uint256"
        },
        {
          "internalType": "bytes",
          "name": "",
          "type": "bytes"
        }
      ],
      "name": "mint",
      "outputs": [],
      "stateMutability": "nonpayable",
      "type": "function"
    },
    {
      "inputs": [
        {
          "internalType": "address",
          "name": "to",
          "type": "address"
        },
        {
          "internalType": "uint256",
          "name": "tokenId",
          "type": "uint256"
        },
        {
          "internalType": "string",
          "name": "uri",
          "type": "string"
        }
      ],
      "name": "mint",
      "outputs": [],
      "stateMutability": "nonpayable",
      "type": "function"
    },
    {
      "inputs": [
        {
          "internalType": "address",
          "name": "to",
          "type": "address"
        },
        {
          "internalType": "uint256",
          "name": "tokenId",
          "type": "uint256"
        },
        {
          "internalType": "string",
          "name": "uri",
          "type": "string"
        },
        {
          "internalType": "string[]",
          "name": "keys",
          "type": "string[]"
        },
        {
          "internalType": "string[]",
          "name": "values",
          "type": "string[]"
        }
      ],
      "name": "mintWithRecords",
      "outputs": [],
      "stateMutability": "nonpayable",
      "type": "function"
    },
    {
      "inputs": [],
      "name": "name",
      "outputs": [
        {
          "internalType": "string",
          "name": "",
          "type": "string"
        }
      ],
      "stateMutability": "view",
      "type": "function"
    },
    {
      "inputs": [
        {
          "internalType": "uint256",
          "name": "tokenId",
          "type": "uint256"
        }
      ],
      "name": "nonceOf",
      "outputs": [
        {
          "internalType": "uint256",
          "name": "",
          "type": "uint256"
        }
      ],
      "stateMutability": "view",
      "type": "function"
    },
    {
      "inputs": [
        {
          "internalType": "address",
          "name": "",
          "type": "address"
        },
        {
          "internalType": "address",
          "name": "from",
          "type": "address"
        },
        {
          "internalType": "uint256",
          "name": "tokenId",
          "type": "uint256"
        },
        {
          "internalType": "bytes",
          "name": "data",
          "type": "bytes"
        }
      ],
      "name": "onERC721Received",
      "outputs": [
        {
          "internalType": "bytes4",
          "name": "",
          "type": "bytes4"
        }
      ],
      "stateMutability": "nonpayable",
      "type": "function"
    },
    {
      "inputs": [
        {
          "internalType": "uint256",
          "name": "tokenId",
          "type": "uint256"
        }
      ],
      "name": "ownerOf",
      "outputs": [
        {
          "internalType": "address",
          "name": "",
          "type": "address"
        }
      ],
      "stateMutability": "view",
      "type": "function"
    },
    {
      "inputs": [
        {
          "internalType": "string[]",
          "name": "keys",
          "type": "string[]"
        },
        {
          "internalType": "string[]",
          "name": "values",
          "type": "string[]"
        },
        {
          "internalType": "uint256",
          "name": "tokenId",
          "type": "uint256"
        }
      ],
      "name": "reconfigure",
      "outputs": [],
      "stateMutability": "nonpayable",
      "type": "function"
    },
    {
      "inputs": [],
      "name": "removeReverse",
      "outputs": [],
      "stateMutability": "nonpayable",
      "type": "function"
    },
    {
      "inputs": [
        {
          "internalType": "uint256",
          "name": "tokenId",
          "type": "uint256"
        }
      ],
      "name": "reset",
      "outputs": [],
      "stateMutability": "nonpayable",
      "type": "function"
    },
    {
      "inputs": [
        {
          "internalType": "uint256",
          "name": "tokenId",
          "type": "uint256"
        }
      ],
      "name": "resolverOf",
      "outputs": [
        {
          "internalType": "address",
          "name": "",
          "type": "address"
        }
      ],
      "stateMutability": "view",
      "type": "function"
    },
    {
      "inputs": [
        {
          "internalType": "address",
          "name": "addr",
          "type": "address"
        }
      ],
      "name": "reverseOf",
      "outputs": [
        {
          "internalType": "uint256",
          "name": "",
          "type": "uint256"
        }
      ],
      "stateMutability": "view",
      "type": "function"
    },
    {
      "inputs": [],
      "name": "root",
      "outputs": [
        {
          "internalType": "uint256",
          "name": "",
          "type": "uint256"
        }
      ],
      "stateMutability": "pure",
      "type": "function"
    },
    {
      "inputs": [
        {
          "internalType": "address",
          "name": "to",
          "type": "address"
        },
        {
          "internalType": "uint256",
          "name": "tokenId",
          "type": "uint256"
        },
        {
          "internalType": "string",
          "name": "uri",
          "type": "string"
        },
        {
          "internalType": "bytes",
          "name": "data",
          "type": "bytes"
        }
      ],
      "name": "safeMint",
      "outputs": [],
      "stateMutability": "nonpayable",
      "type": "function"
    },
    {
      "inputs": [
        {
          "internalType": "address",
          "name": "to",
          "type": "address"
        },
        {
          "internalType": "uint256",
          "name": "tokenId",
          "type": "uint256"
        },
        {
          "internalType": "string",
          "name": "uri",
          "type": "string"
        }
      ],
      "name": "safeMint",
      "outputs": [],
      "stateMutability": "nonpayable",
      "type": "function"
    },
    {
      "inputs": [
        {
          "internalType": "address",
          "name": "to",
          "type": "address"
        },
        {
          "internalType": "uint256",
          "name": "tokenId",
          "type": "uint256"
        },
        {
          "internalType": "string",
          "name": "uri",
          "type": "string"
        },
        {
          "internalType": "string[]",
          "name": "keys",
          "type": "string[]"
        },
        {
          "internalType": "string[]",
          "name": "values",
          "type": "string[]"
        }
      ],
      "name": "safeMintWithRecords",
      "outputs": [],
      "stateMutability": "nonpayable",
      "type": "function"
    },
    {
      "inputs": [
        {
          "internalType": "address",
          "name": "to",
          "type": "address"
        },
        {
          "internalType": "uint256",
          "name": "tokenId",
          "type": "uint256"
        },
        {
          "internalType": "string",
          "name": "uri",
          "type": "string"
        },
        {
          "internalType": "string[]",
          "name": "keys",
          "type": "string[]"
        },
        {
          "internalType": "string[]",
          "name": "values",
          "type": "string[]"
        },
        {
          "internalType": "bytes",
          "name": "data",
          "type": "bytes"
        }
      ],
      "name": "safeMintWithRecords",
      "outputs": [],
      "stateMutability": "nonpayable",
      "type": "function"
    },
    {
      "inputs": [
        {
          "internalType": "address",
          "name": "from",
          "type": "address"
        },
        {
          "internalType": "address",
          "name": "to",
          "type": "address"
        },
        {
          "internalType": "uint256",
          "name": "tokenId",
          "type": "uint256"
        }
      ],
      "name": "safeTransferFrom",
      "outputs": [],
      "stateMutability": "nonpayable",
      "type": "function"
    },
    {
      "inputs": [
        {
          "internalType": "address",
          "name": "from",
          "type": "address"
        },
        {
          "internalType": "address",
          "name": "to",
          "type": "address"
        },
        {
          "internalType": "uint256",
          "name": "tokenId",
          "type": "uint256"
        },
        {
          "internalType": "bytes",
          "name": "data",
          "type": "bytes"
        }
      ],
      "name": "safeTransferFrom",
      "outputs": [],
      "stateMutability": "nonpayable",
      "type": "function"
    },
    {
      "inputs": [
        {
          "internalType": "string",
          "name": "key",
          "type": "string"
        },
        {
          "internalType": "string",
          "name": "value",
          "type": "string"
        },
        {
          "internalType": "uint256",
          "name": "tokenId",
          "type": "uint256"
        }
      ],
      "name": "set",
      "outputs": [],
      "stateMutability": "nonpayable",
      "type": "function"
    },
    {
      "inputs": [
        {
          "internalType": "address",
          "name": "operator",
          "type": "address"
        },
        {
          "internalType": "bool",
          "name": "approved",
          "type": "bool"
        }
      ],
      "name": "setApprovalForAll",
      "outputs": [],
      "stateMutability": "nonpayable",
      "type": "function"
    },
    {
      "inputs": [
        {
          "internalType": "uint256",
          "name": "keyHash",
          "type": "uint256"
        },
        {
          "internalType": "string",
          "name": "value",
          "type": "string"
        },
        {
          "internalType": "uint256",
          "name": "tokenId",
          "type": "uint256"
        }
      ],
      "name": "setByHash",
      "outputs": [],
      "stateMutability": "nonpayable",
      "type": "function"
    },
    {
      "inputs": [
        {
          "internalType": "address",
          "name": "registry",
          "type": "address"
        }
      ],
      "name": "setCNSRegistry",
      "outputs": [],
      "stateMutability": "nonpayable",
      "type": "function"
    },
    {
      "inputs": [
        {
          "internalType": "address",
          "name": "clientChainManager",
          "type": "address"
        }
      ],
      "name": "setChildChainManager",
      "outputs": [],
      "stateMutability": "nonpayable",
      "type": "function"
    },
    {
      "inputs": [
        {
          "internalType": "string[]",
          "name": "keys",
          "type": "string[]"
        },
        {
          "internalType": "string[]",
          "name": "values",
          "type": "string[]"
        },
        {
          "internalType": "uint256",
          "name": "tokenId",
          "type": "uint256"
        }
      ],
      "name": "setMany",
      "outputs": [],
      "stateMutability": "nonpayable",
      "type": "function"
    },
    {
      "inputs": [
        {
          "internalType": "uint256[]",
          "name": "keyHashes",
          "type": "uint256[]"
        },
        {
          "internalType": "string[]",
          "name": "values",
          "type": "string[]"
        },
        {
          "internalType": "uint256",
          "name": "tokenId",
          "type": "uint256"
        }
      ],
      "name": "setManyByHash",
      "outputs": [],
      "stateMutability": "nonpayable",
      "type": "function"
    },
    {
      "inputs": [
        {
          "internalType": "address",
          "name": "to",
          "type": "address"
        },
        {
          "internalType": "uint256",
          "name": "tokenId",
          "type": "uint256"
        }
      ],
      "name": "setOwner",
      "outputs": [],
      "stateMutability": "nonpayable",
      "type": "function"
    },
    {
      "inputs": [
        {
          "internalType": "uint256",
          "name": "tokenId",
          "type": "uint256"
        }
      ],
      "name": "setReverse",
      "outputs": [],
      "stateMutability": "nonpayable",
      "type": "function"
    },
    {
      "inputs": [
        {
          "internalType": "address",
          "name": "rootChainManager",
          "type": "address"
        }
      ],
      "name": "setRootChainManager",
      "outputs": [],
      "stateMutability": "nonpayable",
      "type": "function"
    },
    {
      "inputs": [
        {
          "internalType": "string",
          "name": "prefix",
          "type": "string"
        }
      ],
      "name": "setTokenURIPrefix",
      "outputs": [],
      "stateMutability": "nonpayable",
      "type": "function"
    },
    {
      "inputs": [
        {
          "internalType": "bytes4",
          "name": "interfaceId",
          "type": "bytes4"
        }
      ],
      "name": "supportsInterface",
      "outputs": [
        {
          "internalType": "bool",
          "name": "",
          "type": "bool"
        }
      ],
      "stateMutability": "view",
      "type": "function"
    },
    {
      "inputs": [],
      "name": "symbol",
      "outputs": [
        {
          "internalType": "string",
          "name": "",
          "type": "string"
        }
      ],
      "stateMutability": "view",
      "type": "function"
    },
    {
      "inputs": [
        {
          "internalType": "uint256",
          "name": "tokenId",
          "type": "uint256"
        }
      ],
      "name": "tokenURI",
      "outputs": [
        {
          "internalType": "string",
          "name": "",
          "type": "string"
        }
      ],
      "stateMutability": "view",
      "type": "function"
    },
    {
      "inputs": [
        {
          "internalType": "address",
          "name": "from",
          "type": "address"
        },
        {
          "internalType": "address",
          "name": "to",
          "type": "address"
        },
        {
          "internalType": "uint256",
          "name": "tokenId",
          "type": "uint256"
        }
      ],
      "name": "transferFrom",
      "outputs": [],
      "stateMutability": "nonpayable",
      "type": "function"
    },
    {
      "inputs": [
        {
          "components": [
            {
              "internalType": "address",
              "name": "from",
              "type": "address"
            },
            {
              "internalType": "uint256",
              "name": "nonce",
              "type": "uint256"
            },
            {
              "internalType": "uint256",
              "name": "tokenId",
              "type": "uint256"
            },
            {
              "internalType": "bytes",
              "name": "data",
              "type": "bytes"
            }
          ],
          "internalType": "struct IForwarder.ForwardRequest",
          "name": "req",
          "type": "tuple"
        },
        {
          "internalType": "bytes",
          "name": "signature",
          "type": "bytes"
        }
      ],
      "name": "verify",
      "outputs": [
        {
          "internalType": "bool",
          "name": "",
          "type": "bool"
        }
      ],
      "stateMutability": "view",
      "type": "function"
    },
    {
      "inputs": [
        {
          "internalType": "uint256",
          "name": "tokenId",
          "type": "uint256"
        }
      ],
      "name": "withdraw",
      "outputs": [],
      "stateMutability": "nonpayable",
      "type": "function"
    },
    {
      "inputs": [
        {
          "internalType": "uint256[]",
          "name": "tokenIds",
          "type": "uint256[]"
        }
      ],
      "name": "withdrawBatch",
      "outputs": [],
      "stateMutability": "nonpayable",
      "type": "function"
    },
    {
      "inputs": [
        {
          "internalType": "bytes",
          "name": "inputData",
          "type": "bytes"
        },
        {
          "internalType": "uint256",
          "name": "tokenId",
          "type": "uint256"
        },
        {
          "internalType": "string[]",
          "name": "keys",
          "type": "string[]"
        },
        {
          "internalType": "string[]",
          "name": "values",
          "type": "string[]"
        }
      ],
      "name": "withdrawFromPolygon",
      "outputs": [],
      "stateMutability": "nonpayable",
      "type": "function"
    },
    {
      "inputs": [
        {
          "internalType": "uint256",
          "name": "tokenId",
          "type": "uint256"
        }
      ],
      "name": "withdrawWithMetadata",
      "outputs": [],
      "stateMutability": "nonpayable",
      "type": "function"
    }
  ],
  "bytecode": "0x608060405234801561001057600080fd5b506155d380620000216000396000f3fe608060405234801561001057600080fd5b50600436106103d05760003560e01c80637f139a00116101ff578063b85afd281161011a578063d3fc9864116100ad578063efda4d3e1161007c578063efda4d3e14610905578063f25eb5c114610918578063f5c1f76e14610920578063ffa1ad741461093357600080fd5b8063d3fc98641461089c578063e985e9c5146108af578063ebf0c717146108eb578063ec129eea146108f257600080fd5b8063c87b56dd116100e9578063c87b56dd14610850578063cd279c7c14610863578063ce92b33e14610876578063cf2c52cb1461088957600080fd5b8063b85afd28146107f6578063b88d4fde14610817578063bb5b27e11461082a578063c4d66de81461083d57600080fd5b8063a3f4df7e11610192578063ad3b9adc11610161578063ad3b9adc146107aa578063b0f59177146107bd578063b3f9e4cb146107d0578063b55bc617146107e357600080fd5b8063a3f4df7e14610758578063a424740014610784578063a5e584dc146104ea578063ab3b87fe1461079757600080fd5b806395d89b41116101ce57806395d89b411461071757806399e0dd7c1461071f5780639c8d415614610732578063a22cb4651461074557600080fd5b80637f139a00146106d657806394d008ef146106e95780639508b1c4146106fc5780639559c0bd1461070f57600080fd5b8063430c2081116102ef578063638e5c781161028257806370a082311161025157806370a0823114610673578063728a44d814610686578063764a81bb146106995780637e37479e146106ac57600080fd5b8063638e5c78146105fd578063672b9f811461061057806368b62d32146106315780636ccbae5f1461065257600080fd5b80634f558e79116102be5780634f558e79146105a857806350382c1a146105bb578063572b6c05146105ce5780636352211e146105ea57600080fd5b8063430c20811461055c5780634348b5621461056f57806347c81699146105825780634a72584d1461059557600080fd5b806323b872dd11610367578063384e9a5511610336578063384e9a551461051057806340c10f191461052357806342842e0e1461053657806342966c681461054957600080fd5b806323b872dd146104c457806327f18975146104d75780632e1a7d4d146104ea578063310bd74b146104fd57600080fd5b8063150b7a02116103a3578063150b7a02146104525780631bd8cc1a1461047e5780631be5e7ed1461049e5780631bf7e13e146104b157600080fd5b806301ffc9a7146103d557806306fdde03146103fd578063081812fc14610412578063095ea7b31461043d575b600080fd5b6103e86103e3366004614bc1565b610957565b60405190151581526020015b60405180910390f35b610405610968565b6040516103f491906150fc565b610425610420366004614e02565b6109fa565b6040516001600160a01b0390911681526020016103f4565b61045061044b366004614758565b610a21565b005b610465610460366004614602565b610a76565b6040516001600160e01b031990911681526020016103f4565b61049161048c366004614a60565b610bcc565b6040516103f4919061505d565b6104056104ac366004614d29565b610cec565b6104056104bf366004614da3565b610d37565b6104506104d23660046145c2565b610e42565b6104506104e53660046149f0565b610ec8565b6104506104f8366004614e02565b610f76565b61045061050b366004614e02565b610ff2565b61045061051e366004614e02565b611060565b610450610531366004614758565b611157565b6104506105443660046145c2565b6111a4565b610450610557366004614e02565b6111bf565b6103e861056a366004614758565b611236565b61045061057d3660046147dc565b611242565b610450610590366004614ccb565b61129d565b6104506105a3366004614e4a565b611341565b6103e86105b6366004614e02565b6113ed565b6104506105c9366004614d5e565b61140c565b6103e86105dc366004614552565b6001600160a01b0316301490565b6104256105f8366004614e02565b61143f565b61045061060b366004614e02565b61149f565b61062361061e366004614e9a565b61151c565b6040516103f492919061510f565b61064461063f366004614e1a565b611534565b6040519081526020016103f4565b610644610660366004614e02565b6000908152610100602052604090205490565b610644610681366004614552565b611576565b610450610694366004614552565b6115fc565b6104506106a7366004614552565b6116a3565b6106446106ba366004614552565b6001600160a01b03166000908152610135602052604090205490565b6104506106e4366004614552565b611752565b6104506106f7366004614783565b6117f1565b61045061070a366004614bf9565b61183a565b610644601481565b6104056118c1565b61045061072d366004614c98565b6118d0565b610450610740366004614aa9565b611956565b6104506107533660046146db565b611ad9565b6104056040518060400160405280600d81526020016c554e533a20526567697374727960981b81525081565b6103e8610792366004614da3565b611aeb565b6104506107a5366004614758565b611b36565b6104506107b8366004614aa9565b611bae565b6104506107cb3660046147dc565b611c8c565b6104256107de366004614e02565b611d15565b6104506107f1366004614968565b611d3f565b610809610804366004614a60565b611df7565b6040516103f4929190615070565b610450610825366004614672565b611f5f565b610405610838366004614e02565b611fd9565b61045061084b366004614552565b61207b565b61040561085e366004614e02565b6121f5565b610450610871366004614783565b61225b565b6104506108843660046149f0565b6122e5565b610450610897366004614706565b612389565b6104506108aa366004614783565b612466565b6103e86108bd36600461458a565b6001600160a01b039182166000908152606a6020908152604080832093909416825291909152205460ff1690565b6000610644565b6104506109003660046149f0565b6124e2565b61045061091336600461488d565b612586565b610450612614565b61049161092e366004614aa9565b61269a565b610405604051806040016040528060058152602001640302e352e360dc1b81525081565b600061096282612777565b92915050565b606060658054610977906154cf565b80601f01602080910402602001604051908101604052809291908181526020018280546109a3906154cf565b80156109f05780601f106109c5576101008083540402835291602001916109f0565b820191906000526020600020905b8154815290600101906020018083116109d357829003601f168201915b5050505050905090565b6000610a05826127c7565b506000908152606960205260409020546001600160a01b031690565b8030331415610a5e57610a32612826565b8114610a595760405162461bcd60e51b8152600401610a509061524d565b60405180910390fd5b610a67565b610a678161283b565b610a718383612869565b505050565b60007f8ffb960699dc2ba88f34d0e41c029c3c36c95149679fe1d0153a9582bec92378546001600160a01b0316610aab61298c565b6001600160a01b03161415610b6d57610ac261298c565b6001600160a01b03166342966c68856040518263ffffffff1660e01b8152600401610aef91815260200190565b600060405180830381600087803b158015610b0957600080fd5b505af1158015610b1d573d6000803e3d6000fd5b505050821580159150610b375750610b3782840184614b8f565b15610b5557610b46308561299b565b610b508585612ae9565b610b5f565b610b5f858561299b565b50630a85bd0160e11b610bc3565b60405162461bcd60e51b815260206004820152602560248201527f52656769737472793a204552433732315f524543454956494e475f50524f4849604482015264109255115160da1b6064820152608401610a50565b95945050505050565b6060826001600160401b03811115610bf457634e487b7160e01b600052604160045260246000fd5b604051908082528060200260200182016040528015610c2757816020015b6060815260200190600190039081610c125790505b50905060005b83811015610ce457610ca6858583818110610c5857634e487b7160e01b600052603260045260246000fd5b9050602002810190610c6a9190615364565b8080601f016020809104026020016040519081016040528093929190818152602001838380828437600092019190915250879250612b8a915050565b828281518110610cc657634e487b7160e01b600052603260045260246000fd5b60200260200101819052508080610cdc9061550a565b915050610c2d565b509392505050565b6060610d2f84848080601f016020809104026020016040519081016040528093929190818152602001838380828437600092019190915250869250612b8a915050565b949350505050565b606060005a9050610d49858585611aeb565b610da55760405162461bcd60e51b815260206004820152602760248201527f554e535265676973747279466f727761726465723a205349474e41545552455f6044820152661253959053125160ca1b6064820152608401610a50565b610e37610db56020870187614552565b30604088013584610dc960608b018b615364565b8080601f01602080910402602001604051908101604052809392919081815260200183838082843760009201919091525050604080516020601f8e018190048102820181019092528c815292508c91508b9081908401838280828437600092019190915250612bbf92505050565b9150505b9392505050565b80610e54610e4e61298c565b82612cae565b610e705760405162461bcd60e51b8152600401610a5090615134565b8130331415610ea457610e81612826565b8114610e9f5760405162461bcd60e51b8152600401610a509061524d565b610ead565b610ead8161283b565b610eb683612d2c565b610ec1858585612d99565b5050505050565b80610ed4610e4e61298c565b610ef05760405162461bcd60e51b8152600401610a5090615134565b8130331415610f2457610f01612826565b8114610f1f5760405162461bcd60e51b8152600401610a509061524d565b610f2d565b610f2d8161283b565b60008381526101366020526040902054839060ff1615610f5f5760405162461bcd60e51b8152600401610a509061517d565b610f6c8888888888612ded565b5050505050505050565b610f7f8161143f565b6001600160a01b0316610f9061298c565b6001600160a01b031614610fe65760405162461bcd60e51b815260206004820152601d60248201527f52656769737472793a20494e56414c49445f544f4b454e5f4f574e45520000006044820152606401610a50565b610fef81612e6c565b50565b80610ffe610e4e61298c565b61101a5760405162461bcd60e51b8152600401610a5090615134565b813033141561104e5761102b612826565b81146110495760405162461bcd60e51b8152600401610a509061524d565b611057565b6110578161283b565b610a7183612d2c565b8061106961298c565b6001600160a01b031661107b8261143f565b6001600160a01b0316146110d15760405162461bcd60e51b815260206004820152601d60248201527f52656769737472793a2053454e4445525f49535f4e4f545f4f574e45520000006044820152606401610a50565b8130331415611105576110e2612826565b81146111005760405162461bcd60e51b8152600401610a509061524d565b61110e565b61110e8161283b565b60008381526101366020526040902054839060ff16156111405760405162461bcd60e51b8152600401610a509061517d565b61115161114b61298c565b85612ea7565b50505050565b61115f612eef565b6001600160a01b031661117061298c565b6001600160a01b0316146111965760405162461bcd60e51b8152600401610a5090615322565b6111a0828261299b565b5050565b610a7183838360405180602001604052806000815250611f5f565b806111cb610e4e61298c565b6111e75760405162461bcd60e51b8152600401610a5090615134565b813033141561121b576111f8612826565b81146112165760405162461bcd60e51b8152600401610a509061524d565b611224565b6112248161283b565b61122d83612d2c565b610a7183612e6c565b6000610e3b8383612cae565b610134546001600160a01b031661125761298c565b6001600160a01b03161461127d5760405162461bcd60e51b8152600401610a5090615206565b610f6c888888888888888860405180602001604052806000815250613002565b806112a9610e4e61298c565b6112c55760405162461bcd60e51b8152600401610a5090615134565b81303314156112f9576112d6612826565b81146112f45760405162461bcd60e51b8152600401610a509061524d565b611302565b6113028161283b565b60008381526101366020526040902054839060ff16156113345760405162461bcd60e51b8152600401610a509061517d565b610f6c888888888861305d565b8061134d610e4e61298c565b6113695760405162461bcd60e51b8152600401610a5090615134565b813033141561139d5761137a612826565b81146113985760405162461bcd60e51b8152600401610a509061524d565b6113a6565b6113a68161283b565b60008381526101366020526040902054839060ff16156113d85760405162461bcd60e51b8152600401610a509061517d565b6113e48787878761313c565b50505050505050565b6000818152606760205260408120546001600160a01b03161515610962565b610fef816040516020016114209190614f64565b6040516020818303038152906040528051906020012060001c826131dc565b6000818152606760205260408120546001600160a01b0316806109625760405162461bcd60e51b8152602060048201526018602482015277115490cdcc8c4e881a5b9d985b1a59081d1bdad95b88125160421b6044820152606401610a50565b806114ab610e4e61298c565b6114c75760405162461bcd60e51b8152600401610a5090615134565b60008281526101366020526040902054829060ff16156114f95760405162461bcd60e51b8152600401610a509061517d565b61150b61150461298c565b3085612d99565b610a7161151661298c565b84612ae9565b6060806115298484613208565b909590945092505050565b6000610d2f8484848080601f01602080910402602001604051908101604052809392919081815260200183838082843760009201919091525061322992505050565b60006001600160a01b0382166115e05760405162461bcd60e51b815260206004820152602960248201527f4552433732313a2061646472657373207a65726f206973206e6f7420612076616044820152683634b21037bbb732b960b91b6064820152608401610a50565b506001600160a01b031660009081526068602052604090205490565b6000805160206155a7833981519152546001600160a01b0316156116715760405162461bcd60e51b815260206004820152602660248201527f52656769737472793a20524f4f545f434841494e5f4d414e454745525f4e4f546044820152655f454d50545960d01b6064820152608401610a50565b806000805160206155a78339815191525b80546001600160a01b0319166001600160a01b039290921691909117905550565b7f8bea9a6f8afd34f4e29c585f854e0cc5161431bf5fc299d468454d33dce53b87546001600160a01b03161561172b5760405162461bcd60e51b815260206004820152602760248201527f52656769737472793a204348494c445f434841494e5f4d414e454745525f4e4f604482015266545f454d50545960c81b6064820152608401610a50565b807f8bea9a6f8afd34f4e29c585f854e0cc5161431bf5fc299d468454d33dce53b87611682565b7f8ffb960699dc2ba88f34d0e41c029c3c36c95149679fe1d0153a9582bec92378546001600160a01b0316156117ca5760405162461bcd60e51b815260206004820181905260248201527f52656769737472793a20434e535f52454749535452595f4e4f545f454d5054596044820152606401610a50565b807f8ffb960699dc2ba88f34d0e41c029c3c36c95149679fe1d0153a9582bec92378611682565b6117f9612eef565b6001600160a01b031661180a61298c565b6001600160a01b0316146118305760405162461bcd60e51b8152600401610a5090615322565b611151848461299b565b61184487876132d6565b61184c61298c565b6001600160a01b031661185e8661143f565b6001600160a01b0316146118b45760405162461bcd60e51b815260206004820152601d60248201527f52656769737472793a2053454e4445525f49535f4e4f545f4f574e45520000006044820152606401610a50565b6113e48484848489613345565b606060668054610977906154cf565b610134546001600160a01b03166118e561298c565b6001600160a01b03161461190b5760405162461bcd60e51b8152600401610a5090615206565b6119186101338383614332565b507f4b120d6a959a84a520fa48f5f937cca0e79129423487af7901213b5d2e89313b828260405161194a9291906150e8565b60405180910390a15050565b8060148111156119a85760405162461bcd60e51b815260206004820152601d60248201527f52656769737472793a20455843454544535f42415443485f4c494d49540000006044820152606401610a50565b60005b81811015611a895760008484838181106119d557634e487b7160e01b600052603260045260246000fd5b9050602002013590506119e78161143f565b6001600160a01b03166119f861298c565b6001600160a01b03161481604051602001611a3f91907f52656769737472793a20494e56414c49445f544f4b454e5f4f574e45522000008152601e810191909152603e0190565b60405160208183030381529060405290611a6c5760405162461bcd60e51b8152600401610a5091906150fc565b50611a7681612e6c565b5080611a818161550a565b9150506119ab565b50611a9261298c565b6001600160a01b03167ff871896b17e9cb7a64941c62c188a4f5c621b86800e3d15452ece01ce56073df8484604051611acc929190615095565b60405180910390a2505050565b6111a0611ae461298c565b83836133cf565b6000610d2f611af98561541b565b3085858080601f01602080910402602001604051908101604052809392919081815260200183838082843760009201919091525061349e92505050565b80611b42610e4e61298c565b611b5e5760405162461bcd60e51b8152600401610a5090615134565b8130331415611b9257611b6f612826565b8114611b8d5760405162461bcd60e51b8152600401610a509061524d565b611b9b565b611b9b8161283b565b611151611ba78461143f565b8585612d99565b610134546001600160a01b0316611bc361298c565b6001600160a01b031614611be95760405162461bcd60e51b8152600401610a5090615206565b60005b81811015610a71576000838383818110611c1657634e487b7160e01b600052603260045260246000fd5b9050602002013590506000611c2a8261143f565b9050611c3582612d2c565b600082815261013660209081526040808320805460ff191660011790556001600160a01b0384168352610135909152902054821415611c7757611c77816135f6565b50508080611c849061550a565b915050611bec565b610134546001600160a01b0316611ca161298c565b6001600160a01b031614611cc75760405162461bcd60e51b8152600401610a5090615206565b611d08888888888080601f01602080910402602001604051908101604052809392919081815260200183838082843760009201919091525061363b92505050565b610f6c848484848b613345565b6000818152606760205260408120546001600160a01b0316611d38576000610962565b3092915050565b610134546001600160a01b0316611d5461298c565b6001600160a01b031614611d7a5760405162461bcd60e51b8152600401610a5090615206565b611def868686868080601f01602080910402602001604051908101604052809392919081815260200183838082843760009201919091525050604080516020601f8a01819004810282018101909252888152925088915087908190840183828082843760009201919091525061368792505050565b505050505050565b606080836001600160401b03811115611e2057634e487b7160e01b600052604160045260246000fd5b604051908082528060200260200182016040528015611e5357816020015b6060815260200190600190039081611e3e5790505b509150836001600160401b03811115611e7c57634e487b7160e01b600052604160045260246000fd5b604051908082528060200260200182016040528015611eaf57816020015b6060815260200190600190039081611e9a5790505b50905060005b84811015611f5657611eed868683818110611ee057634e487b7160e01b600052603260045260246000fd5b9050602002013585613208565b848381518110611f0d57634e487b7160e01b600052603260045260246000fd5b60200260200101848481518110611f3457634e487b7160e01b600052603260045260246000fd5b6020026020010182905282905250508080611f4e9061550a565b915050611eb5565b50935093915050565b81611f6b610e4e61298c565b611f875760405162461bcd60e51b8152600401610a5090615134565b8230331415611fbb57611f98612826565b8114611fb65760405162461bcd60e51b8152600401610a509061524d565b611fc4565b611fc48161283b565b611fcd84612d2c565b611def868686866136d4565b600081815260c960205260409020805460609190611ff6906154cf565b80601f0160208091040260200160405190810160405280929190818152602001828054612022906154cf565b801561206f5780601f106120445761010080835404028352916020019161206f565b820191906000526020600020905b81548152906001019060200180831161205257829003601f168201915b50505050509050919050565b600054610100900460ff161580801561209b5750600054600160ff909116105b806120b55750303b1580156120b5575060005460ff166001145b6121185760405162461bcd60e51b815260206004820152602e60248201527f496e697469616c697a61626c653a20636f6e747261637420697320616c72656160448201526d191e481a5b9a5d1a585b1a5e995960921b6064820152608401610a50565b6000805460ff19166001179055801561213b576000805461ff0019166101001790555b61013480546001600160a01b0319166001600160a01b0384161790556040805180820182526013815272556e73746f707061626c6520446f6d61696e7360681b60208083019190915282518084019093526002835261155160f21b908301526121a391613729565b6121ab613777565b6121b3613777565b80156111a0576000805461ff0019169055604051600181527f7f26b83ff96e1f2b6a682f133852f6798a09c465da95921460cefb38474024989060200161194a565b6060612200826127c7565b600061220a6137a0565b9050600081511161222a5760405180602001604052806000815250610e3b565b80612234846137b0565b604051602001612245929190614fcf565b6040516020818303038152906040529392505050565b610134546001600160a01b031661227061298c565b6001600160a01b0316146122965760405162461bcd60e51b8152600401610a5090615206565b611151848484848080601f016020809104026020016040519081016040528093929190818152602001838380828437600092018290525060408051602081019091529081529250613687915050565b806122f1610e4e61298c565b61230d5760405162461bcd60e51b8152600401610a5090615134565b81303314156123415761231e612826565b811461233c5760405162461bcd60e51b8152600401610a509061524d565b61234a565b61234a8161283b565b60008381526101366020526040902054839060ff161561237c5760405162461bcd60e51b8152600401610a509061517d565b610f6c8888888888613345565b7f8bea9a6f8afd34f4e29c585f854e0cc5161431bf5fc299d468454d33dce53b87546001600160a01b03166123bc61298c565b6001600160a01b0316146123e25760405162461bcd60e51b8152600401610a5090615322565b60208114156124055760006123f982840184614e02565b9050611151848261299b565b600061241382840184614ae8565b805190915060005b81811015611def576124548684838151811061244757634e487b7160e01b600052603260045260246000fd5b602002602001015161299b565b8061245e8161550a565b91505061241b565b610134546001600160a01b031661247b61298c565b6001600160a01b0316146124a15760405162461bcd60e51b8152600401610a5090615206565b611151848484848080601f01602080910402602001604051908101604052809392919081815260200183838082843760009201919091525061363b92505050565b806124ee610e4e61298c565b61250a5760405162461bcd60e51b8152600401610a5090615134565b813033141561253e5761251b612826565b81146125395760405162461bcd60e51b8152600401610a509061524d565b612547565b6125478161283b565b60008381526101366020526040902054839060ff16156125795760405162461bcd60e51b8152600401610a509061517d565b610f6c88888888886138c9565b610134546001600160a01b031661259b61298c565b6001600160a01b0316146125c15760405162461bcd60e51b8152600401610a5090615206565b6126088a8a8a8a8a8a8a8a8a8a8080601f01602080910402602001604051908101604052809392919081815260200183838082843760009201919091525061300292505050565b50505050505050505050565b600061261e61298c565b6001600160a01b038116600090815261013560205260409020549091506126915760405162461bcd60e51b815260206004820152602160248201527f52656769737472793a20524556455253455f5245434f52445f49535f454d50546044820152605960f81b6064820152608401610a50565b610fef816135f6565b6060816001600160401b038111156126c257634e487b7160e01b600052604160045260246000fd5b6040519080825280602002602001820160405280156126f557816020015b60608152602001906001900390816126e05790505b50905060005b828110156127705761273284848381811061272657634e487b7160e01b600052603260045260246000fd5b90506020020135611fd9565b82828151811061275257634e487b7160e01b600052603260045260246000fd5b602002602001018190525080806127689061550a565b9150506126fb565b5092915050565b60006001600160e01b031982166380ac58cd60e01b14806127a857506001600160e01b03198216635b5e139f60e01b145b8061096257506301ffc9a760e01b6001600160e01b0319831614610962565b6000818152606760205260409020546001600160a01b0316610fef5760405162461bcd60e51b8152602060048201526018602482015277115490cdcc8c4e881a5b9d985b1a59081d1bdad95b88125160421b6044820152606401610a50565b6000303314156128385750601f193601355b90565b600081815261010060205260409020546128569060016153d8565b6000918252610100602052604090912055565b60006128748261143f565b9050806001600160a01b0316836001600160a01b031614156128e25760405162461bcd60e51b815260206004820152602160248201527f4552433732313a20617070726f76616c20746f2063757272656e74206f776e656044820152603960f91b6064820152608401610a50565b806001600160a01b03166128f461298c565b6001600160a01b031614806129105750612910816108bd61298c565b6129825760405162461bcd60e51b815260206004820152603e60248201527f4552433732313a20617070726f76652063616c6c6572206973206e6f7420746f60448201527f6b656e206f776e6572206e6f7220617070726f76656420666f7220616c6c00006064820152608401610a50565b610a7183836138df565b600061299661394d565b905090565b6001600160a01b0382166129f15760405162461bcd60e51b815260206004820181905260248201527f4552433732313a206d696e7420746f20746865207a65726f20616464726573736044820152606401610a50565b6000818152606760205260409020546001600160a01b031615612a565760405162461bcd60e51b815260206004820152601c60248201527f4552433732313a20746f6b656e20616c7265616479206d696e746564000000006044820152606401610a50565b612a6260008383613969565b6001600160a01b0382166000908152606860205260408120805460019290612a8b9084906153d8565b909155505060008181526067602052604080822080546001600160a01b0319166001600160a01b03861690811790915590518392907fddf252ad1be2c89b69c2b068fc378daa952ba7f163c4a11628f55a4df523b3ef908290a45050565b6000612af3612eef565b9050612aff81836138df565b6000805160206155a783398151915254604080516020808201869052825180830390910181528183019283905263e3dec8fb60e01b9092526001600160a01b0390921691829163e3dec8fb91612b5c918891309190604401614ffe565b600060405180830381600087803b158015612b7657600080fd5b505af1158015610f6c573d6000803e3d6000fd5b6060610e3b83604051602001612ba09190614f64565b6040516020818303038152906040528051906020012060001c83613991565b6060612bca8561283b565b600080876001600160a01b031686612be48b8a8989613a50565b604051612bf19190614f64565b60006040518083038160008787f1925050503d8060008114612c2f576040519150601f19603f3d011682016040523d82523d6000602084013e612c34565b606091505b509092509050612c45603f876153f0565b5a11612c6157634e487b7160e01b600052600160045260246000fd5b612ca182826040518060400160405280601a81526020017f42617365466f727761726465723a2043414c4c5f4641494c4544000000000000815250613a80565b9998505050505050505050565b600080612cba8361143f565b9050806001600160a01b0316846001600160a01b03161480612d0157506001600160a01b038082166000908152606a602090815260408083209388168352929052205460ff165b80610d2f5750836001600160a01b0316612d1a846109fa565b6001600160a01b031614949350505050565b612d3581613ab9565b604051602001612d4791815260200190565b60408051601f198184030181528282528051602091820120600085815260cb9092529181209190915582917f185c30856dadb58bf097c1f665a52ada7029752dbcad008ea3fefc73bee8c9fe9190a250565b600081815261013660205260409020548190839060ff161580612dc657506001600160a01b03811661dead145b612de25760405162461bcd60e51b8152600401610a5090615284565b610ec1858585613ae5565b60005b84811015611def57612e5a868683818110612e1b57634e487b7160e01b600052603260045260246000fd5b90506020020135858584818110612e4257634e487b7160e01b600052603260045260246000fd5b9050602002810190612e549190615364565b8561313c565b80612e648161550a565b915050612df0565b60008181526101366020526040902054819060ff1615612e9e5760405162461bcd60e51b8152600401610a509061517d565b6111a082613c8c565b6001600160a01b03821660008181526101356020526040808220849055518392917feb76a21470988c474a21f690cc28fee1ed511bd812dc3c21fd0f49c5e5d4708a91a35050565b6000806000805160206155a78339815191525460405163721804d360e11b81523060048201526001600160a01b039091169150600090829063e43009a69060240160206040518083038186803b158015612f4857600080fd5b505afa158015612f5c573d6000803e3d6000fd5b505050506040513d601f19601f82011682018060405250810190612f809190614ba9565b60405163e66f960360e01b8152600481018290529091506001600160a01b0383169063e66f96039060240160206040518083038186803b158015612fc357600080fd5b505afa158015612fd7573d6000803e3d6000fd5b505050506040513d601f19601f82011682018060405250810190612ffb919061456e565b9250505090565b613045898989898080601f016020809104026020016040519081016040528093929190818152602001838380828437600092019190915250879250613687915050565b613052858585858c613345565b505050505050505050565b60008585604051602001613072929190614fbf565b60408051601f198184030181528282528051602091820120601f89018290048202840182019092528783529092506130c691839189908990819084018382808284376000920191909152506131dc92505050565b611def8187878080601f01602080910402602001604051908101604052809392919081815260200183838082843760009201919091525050604080516020601f8b018190048102820181019092528981529250899150889081908401838280828437600092019190915250889250613d33915050565b61314584613e6e565b6131915760405162461bcd60e51b815260206004820152601c60248201527f5265636f726453746f726167653a204b45595f4e4f545f464f554e44000000006044820152606401610a50565b6111518461319e86611fd9565b85858080601f016020809104026020016040519081016040528093929190818152602001838380828437600092019190915250879250613d33915050565b6131e582613e6e565b6111a057600082815260c9602090815260409091208251610a71928401906143b2565b60608061321484611fd9565b91506132208484613991565b90509250929050565b60008151600014156132755760405162461bcd60e51b815260206004820152601560248201527452656769737472793a204c4142454c5f454d50545960581b6044820152606401610a50565b82826040516020016132879190614f64565b604051602081830303815290604052805190602001206040516020016132b7929190918252602082015260400190565b60408051601f1981840301815291905280516020909101209392505050565b6000805160206155a783398151915254604051633805550f60e01b81526001600160a01b03909116908190633805550f9061331790869086906004016150e8565b600060405180830381600087803b15801561333157600080fd5b505af11580156113e4573d6000803e3d6000fd5b60005b84811015611def576133bd86868381811061337357634e487b7160e01b600052603260045260246000fd5b90506020028101906133859190615364565b8686858181106133a557634e487b7160e01b600052603260045260246000fd5b90506020028101906133b79190615364565b8661305d565b806133c78161550a565b915050613348565b816001600160a01b0316836001600160a01b031614156134315760405162461bcd60e51b815260206004820152601960248201527f4552433732313a20617070726f766520746f2063616c6c6572000000000000006044820152606401610a50565b6001600160a01b038381166000818152606a6020908152604080832094871680845294825291829020805460ff191686151590811790915591519182527f17307eab39ab6107e8899845ad3d59bd9653f200f220920489ca2b5937696c31910160405180910390a3505050565b6040838101519051636ccbae5f60e01b8152600481019190915260009081903090636ccbae5f9060240160206040518083038186803b1580156134e057600080fd5b505afa1580156134f4573d6000803e3d6000fd5b505050506040513d601f19601f820116820180604052508101906135189190614ba9565b905060006135c68660600151805190602001208688602001516040516020016135669392919092835260609190911b6bffffffffffffffffffffffff19166020830152603482015260540190565b60408051601f1981840301815282825280516020918201207f19457468657265756d205369676e6564204d6573736167653a0a33320000000084830152603c8085019190915282518085039091018152605c909301909152815191012090565b90508186602001511480156135ec575085516135ec906001600160a01b03168286613e94565b9695505050505050565b6001600160a01b03811660008181526101356020526040808220829055517ffcf5eec0cfa3e6332f5f0e63ec242d71f866a61d121d6cdf5c2eb3b668a26c4f9190a250565b613645838361299b565b817fc5beef08f693b11c316c0c8394a377a0033c9cf701b8cd8afd79cecef60c39528260405161367591906150fc565b60405180910390a2610a718383613fe4565b613692848483614025565b827fc5beef08f693b11c316c0c8394a377a0033c9cf701b8cd8afd79cecef60c3952836040516136c291906150fc565b60405180910390a26111518484613fe4565b600082815261013660205260409020548290849060ff16158061370157506001600160a01b03811661dead145b61371d5760405162461bcd60e51b8152600401610a5090615284565b611def86868686614058565b600054610100900460ff166137505760405162461bcd60e51b8152600401610a50906152d7565b81516137639060659060208501906143b2565b508051610a719060669060208401906143b2565b600054610100900460ff1661379e5760405162461bcd60e51b8152600401610a50906152d7565b565b60606101338054610977906154cf565b6060816137d45750506040805180820190915260018152600360fc1b602082015290565b8160005b81156137fe57806137e88161550a565b91506137f79050600a836153f0565b91506137d8565b6000816001600160401b0381111561382657634e487b7160e01b600052604160045260246000fd5b6040519080825280601f01601f191660200182016040528015613850576020820181803683370190505b5090505b8415610d2f57613865600183615404565b9150613872600a86615525565b61387d9060306153d8565b60f81b8183815181106138a057634e487b7160e01b600052603260045260246000fd5b60200101906001600160f81b031916908160001a9053506138c2600a866153f0565b9450613854565b6138d281612d2c565b610ec18585858585613345565b600081815260696020526040902080546001600160a01b0319166001600160a01b03841690811790915581906139148261143f565b6001600160a01b03167f8c5be1e5ebec7d5bd14f71427d1e84f3dd0314c0f7b2291e5b200ac8c7c3b92560405160405180910390a45050565b600030331415613964575060331936013560601c90565b503390565b6001600160a01b0383166000908152610135602052604090205415610a7157610a71836135f6565b606060ca60006139a084613ab9565b8152602001908152602001600020600084815260200190815260200160002080546139ca906154cf565b80601f01602080910402602001604051908101604052809291908181526020018280546139f6906154cf565b8015613a435780601f10613a1857610100808354040283529160200191613a43565b820191906000526020600020905b815481529060010190602001808311613a2657829003601f168201915b5050505050905092915050565b6060828585604051602001613a6793929190614f80565b6040516020818303038152906040529050949350505050565b60608315613a8f575081610e3b565b825115613a9f5782518084602001fd5b8160405162461bcd60e51b8152600401610a5091906150fc565b600081815260cb602052604081205415613ae157600082815260cb6020526040902054610962565b5090565b826001600160a01b0316613af88261143f565b6001600160a01b031614613b5c5760405162461bcd60e51b815260206004820152602560248201527f4552433732313a207472616e736665722066726f6d20696e636f72726563742060448201526437bbb732b960d91b6064820152608401610a50565b6001600160a01b038216613bbe5760405162461bcd60e51b8152602060048201526024808201527f4552433732313a207472616e7366657220746f20746865207a65726f206164646044820152637265737360e01b6064820152608401610a50565b613bc9838383613969565b613bd46000826138df565b6001600160a01b0383166000908152606860205260408120805460019290613bfd908490615404565b90915550506001600160a01b0382166000908152606860205260408120805460019290613c2b9084906153d8565b909155505060008181526067602052604080822080546001600160a01b0319166001600160a01b0386811691821790925591518493918716917fddf252ad1be2c89b69c2b068fc378daa952ba7f163c4a11628f55a4df523b3ef91a4505050565b6000613c978261143f565b9050613ca581600084613969565b613cb06000836138df565b6001600160a01b0381166000908152606860205260408120805460019290613cd9908490615404565b909155505060008281526067602052604080822080546001600160a01b0319169055518391906001600160a01b038416907fddf252ad1be2c89b69c2b068fc378daa952ba7f163c4a11628f55a4df523b3ef908390a45050565b60ca6000613d4083613ab9565b815260200190815260200160002060008581526020019081526020016000208054613d6a906154cf565b15159050613dc15782604051613d809190614f64565b6040518091039020817f7ae4f661958fbecc2f77be6b0eb280d2a6f604b29e1e7221c82b9da0c4af7f8685604051613db891906150fc565b60405180910390a35b8160ca6000613dcf84613ab9565b815260200190815260200160002060008681526020019081526020016000209080519060200190613e019291906143b2565b5081604051613e109190614f64565b604051809103902083604051613e269190614f64565b6040518091039020827f851ffe8e74d5015261dba0a1f9e1b0e5d42c5af5d2ad1908fee897c7d80a0d928686604051613e6092919061510f565b60405180910390a450505050565b600081815260c9602052604081208054829190613e8a906154cf565b9050119050919050565b6000806000613ea3858561408b565b90925090506000816004811115613eca57634e487b7160e01b600052602160045260246000fd5b148015613ee85750856001600160a01b0316826001600160a01b0316145b15613ef857600192505050610e3b565b600080876001600160a01b0316631626ba7e60e01b8888604051602401613f209291906150cf565b60408051601f198184030181529181526020820180516001600160e01b03166001600160e01b0319909416939093179092529051613f5e9190614f64565b600060405180830381855afa9150503d8060008114613f99576040519150601f19603f3d011682016040523d82523d6000602084013e613f9e565b606091505b5091509150818015613fb1575080516020145b8015613fd857508051630b135d3f60e11b90613fd69083016020908101908401614ba9565b145b98975050505050505050565b61dead6001600160a01b0383161480159061401657506001600160a01b03821660009081526101356020526040902054155b156111a0576111a08282612ea7565b61402f838361299b565b61403c60008484846140fb565b610a715760405162461bcd60e51b8152600401610a50906151b4565b614063848484612d99565b61406f848484846140fb565b6111515760405162461bcd60e51b8152600401610a50906151b4565b6000808251604114156140c25760208301516040840151606085015160001a6140b68782858561420c565b945094505050506140f4565b8251604014156140ec57602083015160408401516140e18683836142f9565b9350935050506140f4565b506000905060025b9250929050565b60006001600160a01b0384163b1561420457836001600160a01b031663150b7a0261412461298c565b8786866040518563ffffffff1660e01b8152600401614146949392919061502a565b602060405180830381600087803b15801561416057600080fd5b505af1925050508015614190575060408051601f3d908101601f1916820190925261418d91810190614bdd565b60015b6141ea573d8080156141be576040519150601f19603f3d011682016040523d82523d6000602084013e6141c3565b606091505b5080516141e25760405162461bcd60e51b8152600401610a50906151b4565b805181602001fd5b6001600160e01b031916630a85bd0160e11b149050610d2f565b506001610d2f565b6000807f7fffffffffffffffffffffffffffffff5d576e7357a4501ddfe92f46681b20a083111561424357506000905060036142f0565b8460ff16601b1415801561425b57508460ff16601c14155b1561426c57506000905060046142f0565b6040805160008082526020820180845289905260ff881692820192909252606081018690526080810185905260019060a0016020604051602081039080840390855afa1580156142c0573d6000803e3d6000fd5b5050604051601f1901519150506001600160a01b0381166142e9576000600192509250506142f0565b9150600090505b94509492505050565b6000806001600160ff1b0383168161431660ff86901c601b6153d8565b90506143248782888561420c565b935093505050935093915050565b82805461433e906154cf565b90600052602060002090601f01602090048101928261436057600085556143a6565b82601f106143795782800160ff198235161785556143a6565b828001600101855582156143a6579182015b828111156143a657823582559160200191906001019061438b565b50613ae1929150614426565b8280546143be906154cf565b90600052602060002090601f0160209004810192826143e057600085556143a6565b82601f106143f957805160ff19168380011785556143a6565b828001600101855582156143a6579182015b828111156143a657825182559160200191906001019061440b565b5b80821115613ae15760008155600101614427565b60006001600160401b0383111561445457614454615565565b614467601f8401601f19166020016153a8565b905082815283838301111561447b57600080fd5b828260208301376000602084830101529392505050565b803561449d8161557b565b919050565b60008083601f8401126144b3578182fd5b5081356001600160401b038111156144c9578182fd5b6020830191508360208260051b85010111156140f457600080fd5b8035801515811461449d57600080fd5b60008083601f840112614505578182fd5b5081356001600160401b0381111561451b578182fd5b6020830191508360208285010111156140f457600080fd5b600082601f830112614543578081fd5b610e3b8383356020850161443b565b600060208284031215614563578081fd5b8135610e3b8161557b565b60006020828403121561457f578081fd5b8151610e3b8161557b565b6000806040838503121561459c578081fd5b82356145a78161557b565b915060208301356145b78161557b565b809150509250929050565b6000806000606084860312156145d6578081fd5b83356145e18161557b565b925060208401356145f18161557b565b929592945050506040919091013590565b600080600080600060808688031215614619578081fd5b85356146248161557b565b945060208601356146348161557b565b93506040860135925060608601356001600160401b03811115614655578182fd5b614661888289016144f4565b969995985093965092949392505050565b60008060008060808587031215614687578182fd5b84356146928161557b565b935060208501356146a28161557b565b92506040850135915060608501356001600160401b038111156146c3578182fd5b6146cf87828801614533565b91505092959194509250565b600080604083850312156146ed578182fd5b82356146f88161557b565b9150613220602084016144e4565b60008060006040848603121561471a578081fd5b83356147258161557b565b925060208401356001600160401b0381111561473f578182fd5b61474b868287016144f4565b9497909650939450505050565b6000806040838503121561476a578182fd5b82356147758161557b565b946020939093013593505050565b60008060008060608587031215614798578182fd5b84356147a38161557b565b93506020850135925060408501356001600160401b038111156147c4578283fd5b6147d0878288016144f4565b95989497509550505050565b60008060008060008060008060a0898b0312156147f7578586fd5b88356148028161557b565b97506020890135965060408901356001600160401b0380821115614824578788fd5b6148308c838d016144f4565b909850965060608b0135915080821115614848578485fd5b6148548c838d016144a2565b909650945060808b013591508082111561486c578384fd5b506148798b828c016144a2565b999c989b5096995094979396929594505050565b60008060008060008060008060008060c08b8d0312156148ab578384fd5b6148b48b614492565b995060208b0135985060408b01356001600160401b03808211156148d6578586fd5b6148e28e838f016144f4565b909a50985060608d01359150808211156148fa578586fd5b6149068e838f016144a2565b909850965060808d013591508082111561491e578586fd5b61492a8e838f016144a2565b909650945060a08d0135915080821115614942578384fd5b5061494f8d828e016144f4565b915080935050809150509295989b9194979a5092959850565b60008060008060008060808789031215614980578384fd5b863561498b8161557b565b95506020870135945060408701356001600160401b03808211156149ad578586fd5b6149b98a838b016144f4565b909650945060608901359150808211156149d1578384fd5b506149de89828a016144f4565b979a9699509497509295939492505050565b600080600080600060608688031215614a07578283fd5b85356001600160401b0380821115614a1d578485fd5b614a2989838a016144a2565b90975095506020880135915080821115614a41578485fd5b50614a4e888289016144a2565b96999598509660400135949350505050565b600080600060408486031215614a74578081fd5b83356001600160401b03811115614a89578182fd5b614a95868287016144a2565b909790965060209590950135949350505050565b60008060208385031215614abb578182fd5b82356001600160401b03811115614ad0578283fd5b614adc858286016144a2565b90969095509350505050565b60006020808385031215614afa578182fd5b82356001600160401b0380821115614b10578384fd5b818501915085601f830112614b23578384fd5b813581811115614b3557614b35615565565b8060051b9150614b468483016153a8565b8181528481019084860184860187018a1015614b60578788fd5b8795505b83861015614b82578035835260019590950194918601918601614b64565b5098975050505050505050565b600060208284031215614ba0578081fd5b610e3b826144e4565b600060208284031215614bba578081fd5b5051919050565b600060208284031215614bd2578081fd5b8135610e3b81615590565b600060208284031215614bee578081fd5b8151610e3b81615590565b60008060008060008060006080888a031215614c13578081fd5b87356001600160401b0380821115614c29578283fd5b614c358b838c016144f4565b909950975060208a0135965060408a0135915080821115614c54578283fd5b614c608b838c016144a2565b909650945060608a0135915080821115614c78578283fd5b50614c858a828b016144a2565b989b979a50959850939692959293505050565b60008060208385031215614caa578182fd5b82356001600160401b03811115614cbf578283fd5b614adc858286016144f4565b600080600080600060608688031215614ce2578283fd5b85356001600160401b0380821115614cf8578485fd5b614d0489838a016144f4565b90975095506020880135915080821115614d1c578485fd5b50614a4e888289016144f4565b600080600060408486031215614d3d578081fd5b83356001600160401b03811115614d52578182fd5b614a95868287016144f4565b600060208284031215614d6f578081fd5b81356001600160401b03811115614d84578182fd5b8201601f81018413614d94578182fd5b610d2f8482356020840161443b565b600080600060408486031215614db7578081fd5b83356001600160401b0380821115614dcd578283fd5b9085019060808288031215614de0578283fd5b90935060208501359080821115614df5578283fd5b5061474b868287016144f4565b600060208284031215614e13578081fd5b5035919050565b600080600060408486031215614e2e578081fd5b8335925060208401356001600160401b0381111561473f578182fd5b60008060008060608587031215614e5f578182fd5b8435935060208501356001600160401b03811115614e7b578283fd5b614e87878288016144f4565b9598909750949560400135949350505050565b60008060408385031215614eac578182fd5b50508035926020909101359150565b600081518084526020808501808196508360051b81019150828601855b85811015614f02578284038952614ef0848351614f38565b98850198935090840190600101614ed8565b5091979650505050505050565b81835281816020850137506000828201602090810191909152601f909101601f19169091010190565b60008151808452614f508160208601602086016154a3565b601f01601f19169290920160200192915050565b60008251614f768184602087016154a3565b9190910192915050565b60008451614f928184602089016154a3565b60609490941b6bffffffffffffffffffffffff191691909301908152601481019190915260340192915050565b8183823760009101908152919050565b60008351614fe18184602088016154a3565b835190830190614ff58183602088016154a3565b01949350505050565b6001600160a01b03848116825283166020820152606060408201819052600090610bc390830184614f38565b6001600160a01b03858116825284166020820152604081018390526080606082018190526000906135ec90830184614f38565b602081526000610e3b6020830184614ebb565b6040815260006150836040830185614ebb565b8281036020840152610e378185614ebb565b6020808252810182905260006001600160fb1b038311156150b4578081fd5b8260051b808560408501379190910160400190815292915050565b828152604060208201526000610d2f6040830184614f38565b602081526000610d2f602083018486614f0f565b602081526000610e3b6020830184614f38565b6040815260006151226040830185614f38565b8281036020840152610e378185614f38565b60208082526029908201527f52656769737472793a2053454e4445525f49535f4e4f545f415050524f5645446040820152682fa7a92fa7aba722a960b91b606082015260800190565b6020808252601a908201527f52656769737472793a20544f4b454e5f44455052454341544544000000000000604082015260600190565b60208082526032908201527f4552433732313a207472616e7366657220746f206e6f6e20455243373231526560408201527131b2b4bb32b91034b6b83632b6b2b73a32b960711b606082015260800190565b60208082526027908201527f52656769737472793a2053454e4445525f49535f4e4f545f4d494e54494e475f60408201526626a0a720a3a2a960c91b606082015260800190565b60208082526017908201527f52656769737472793a20544f4b454e5f494e56414c4944000000000000000000604082015260600190565b60208082526033908201527f52656769737472793a20444550524543415445445f544f4b454e5f5452414e5360408201527211915497d05111149154d4d7d2539590531251606a1b606082015260800190565b6020808252602b908201527f496e697469616c697a61626c653a20636f6e7472616374206973206e6f74206960408201526a6e697469616c697a696e6760a81b606082015260800190565b60208082526022908201527f52656769737472793a20494e53554646494349454e545f5045524d495353494f6040820152614e5360f01b606082015260800190565b6000808335601e1984360301811261537a578283fd5b8301803591506001600160401b03821115615393578283fd5b6020019150368190038213156140f457600080fd5b604051601f8201601f191681016001600160401b03811182821017156153d0576153d0615565565b604052919050565b600082198211156153eb576153eb615539565b500190565b6000826153ff576153ff61554f565b500490565b60008282101561541657615416615539565b500390565b60006080823603121561542c578081fd5b604051608081016001600160401b03828210818311171561544f5761544f615565565b81604052843591506154608261557b565b8183526020850135602084015260408501356040840152606085013591508082111561548a578384fd5b5061549736828601614533565b60608301525092915050565b60005b838110156154be5781810151838201526020016154a6565b838111156111515750506000910152565b600181811c908216806154e357607f821691505b6020821081141561550457634e487b7160e01b600052602260045260246000fd5b50919050565b600060001982141561551e5761551e615539565b5060010190565b6000826155345761553461554f565b500690565b634e487b7160e01b600052601160045260246000fd5b634e487b7160e01b600052601260045260246000fd5b634e487b7160e01b600052604160045260246000fd5b6001600160a01b0381168114610fef57600080fd5b6001600160e01b031981168114610fef57600080fdfebe2bb46ac0377341a1ec5c3116d70fd5029d704bd46292e58f6265dd177ebafea164736f6c6343000804000a",
  "linkReferences": {},
  "deployedLinkReferences": {}
}