{
  "_format": "hh-sol-artifact-1",
  "contractName": "UNSRegistry",
  "sourceName": "contracts/UNSRegistry.sol",
  "abi": [
    {
      "anonymous": false,
      "inputs": [
        {
          "indexed": false,
          "internalType": "address",
          "name": "previousAdmin",
          "type": "address"
        },
        {
          "indexed": false,
          "internalType": "address",
          "name": "newAdmin",
          "type": "address"
        }
      ],
      "name": "AdminChanged",
      "type": "event"
    },
    {
      "anonymous": false,
      "inputs": [
        {
          "indexed": true,
          "internalType": "address",
          "name": "owner",
          "type": "address"
        },
        {
          "indexed": true,
          "internalType": "address",
          "name": "approved",
          "type": "address"
        },
        {
          "indexed": true,
          "internalType": "uint256",
          "name": "tokenId",
          "type": "uint256"
        }
      ],
      "name": "Approval",
      "type": "event"
    },
    {
      "anonymous": false,
      "inputs": [
        {
          "indexed": true,
          "internalType": "address",
          "name": "owner",
          "type": "address"
        },
        {
          "indexed": true,
          "internalType": "address",
          "name": "operator",
          "type": "address"
        },
        {
          "indexed": false,
          "internalType": "bool",
          "name": "approved",
          "type": "bool"
        }
      ],
      "name": "ApprovalForAll",
      "type": "event"
    },
    {
      "anonymous": false,
      "inputs": [
        {
          "indexed": false,
          "internalType": "uint8",
          "name": "version",
          "type": "uint8"
        }
      ],
      "name": "Initialized",
      "type": "event"
    },
    {
      "anonymous": false,
      "inputs": [
        {
          "indexed": true,
          "internalType": "uint256",
          "name": "tokenId",
          "type": "uint256"
        },
        {
          "indexed": true,
          "internalType": "string",
          "name": "keyIndex",
          "type": "string"
        },
        {
          "indexed": false,
          "internalType": "string",
          "name": "key",
          "type": "string"
        }
      ],
      "name": "NewKey",
      "type": "event"
    },
    {
      "anonymous": false,
      "inputs": [
        {
          "indexed": true,
          "internalType": "uint256",
          "name": "tokenId",
          "type": "uint256"
        },
        {
          "indexed": false,
          "internalType": "string",
          "name": "uri",
          "type": "string"
        }
      ],
      "name": "NewURI",
      "type": "event"
    },
    {
      "anonymous": false,
      "inputs": [
        {
          "indexed": false,
          "internalType": "string",
          "name": "prefix",
          "type": "string"
        }
      ],
      "name": "NewURIPrefix",
      "type": "event"
    },
    {
      "anonymous": false,
      "inputs": [
        {
          "indexed": true,
          "internalType": "address",
          "name": "addr",
          "type": "address"
        }
      ],
      "name": "RemoveReverse",
      "type": "event"
    },
    {
      "anonymous": false,
      "inputs": [
        {
          "indexed": true,
          "internalType": "uint256",
          "name": "tokenId",
          "type": "uint256"
        }
      ],
      "name": "ResetRecords",
      "type": "event"
    },
    {
      "anonymous": false,
      "inputs": [
        {
          "indexed": true,
          "internalType": "uint256",
          "name": "tokenId",
          "type": "uint256"
        },
        {
          "indexed": true,
          "internalType": "string",
          "name": "keyIndex",
          "type": "string"
        },
        {
          "indexed": true,
          "internalType": "string",
          "name": "valueIndex",
          "type": "string"
        },
        {
          "indexed": false,
          "internalType": "string",
          "name": "key",
          "type": "string"
        },
        {
          "indexed": false,
          "internalType": "string",
          "name": "value",
          "type": "string"
        }
      ],
      "name": "Set",
      "type": "event"
    },
    {
      "anonymous": false,
      "inputs": [
        {
          "indexed": true,
          "internalType": "address",
          "name": "addr",
          "type": "address"
        },
        {
          "indexed": true,
          "internalType": "uint256",
          "name": "tokenId",
          "type": "uint256"
        }
      ],
      "name": "SetReverse",
      "type": "event"
    },
    {
      "anonymous": false,
      "inputs": [
        {
          "indexed": true,
          "internalType": "address",
          "name": "from",
          "type": "address"
        },
        {
          "indexed": true,
          "internalType": "address",
          "name": "to",
          "type": "address"
        },
        {
          "indexed": true,
          "internalType": "uint256",
          "name": "tokenId",
          "type": "uint256"
        }
      ],
      "name": "Transfer",
      "type": "event"
    },
    {
      "anonymous": false,
      "inputs": [
        {
          "indexed": true,
          "internalType": "address",
          "name": "implementation",
          "type": "address"
        }
      ],
      "name": "Upgraded",
      "type": "event"
    },
    {
      "inputs": [],
      "name": "BATCH_LIMIT",
      "outputs": [
        {
          "internalType": "uint256",
          "name": "",
          "type": "uint256"
        }
      ],
      "stateMutability": "view",
      "type": "function"
    },
    {
      "inputs": [],
      "name": "NAME",
      "outputs": [
        {
          "internalType": "string",
          "name": "",
          "type": "string"
        }
      ],
      "stateMutability": "view",
      "type": "function"
    },
    {
      "inputs": [],
      "name": "VERSION",
      "outputs": [
        {
          "internalType": "string",
          "name": "",
          "type": "string"
        }
      ],
      "stateMutability": "view",
      "type": "function"
    },
    {
      "inputs": [
        {
          "internalType": "string",
          "name": "key",
          "type": "string"
        }
      ],
      "name": "addKey",
      "outputs": [],
      "stateMutability": "nonpayable",
      "type": "function"
    },
    {
      "inputs": [
        {
          "internalType": "address",
          "name": "addr",
          "type": "address"
        }
      ],
      "name": "addProxyReader",
      "outputs": [],
      "stateMutability": "nonpayable",
      "type": "function"
    },
    {
      "inputs": [
        {
          "internalType": "address",
          "name": "to",
          "type": "address"
        },
        {
          "internalType": "uint256",
          "name": "tokenId",
          "type": "uint256"
        }
      ],
      "name": "approve",
      "outputs": [],
      "stateMutability": "nonpayable",
      "type": "function"
    },
    {
      "inputs": [
        {
          "internalType": "string[][]",
          "name": "domains",
          "type": "string[][]"
        }
      ],
      "name": "backfillReverseNames",
      "outputs": [],
      "stateMutability": "nonpayable",
      "type": "function"
    },
    {
      "inputs": [
        {
          "internalType": "address",
          "name": "owner",
          "type": "address"
        }
      ],
      "name": "balanceOf",
      "outputs": [
        {
          "internalType": "uint256",
          "name": "",
          "type": "uint256"
        }
      ],
      "stateMutability": "view",
      "type": "function"
    },
    {
      "inputs": [
        {
          "internalType": "uint256",
          "name": "tokenId",
          "type": "uint256"
        }
      ],
      "name": "burn",
      "outputs": [],
      "stateMutability": "nonpayable",
      "type": "function"
    },
    {
      "inputs": [
        {
          "internalType": "address",
          "name": "user",
          "type": "address"
        },
        {
          "internalType": "bytes",
          "name": "depositData",
          "type": "bytes"
        }
      ],
      "name": "deposit",
      "outputs": [],
      "stateMutability": "nonpayable",
      "type": "function"
    },
    {
      "inputs": [
        {
          "internalType": "uint256",
          "name": "tokenId",
          "type": "uint256"
        }
      ],
      "name": "depositToPolygon",
      "outputs": [],
      "stateMutability": "nonpayable",
      "type": "function"
    },
    {
      "inputs": [
        {
          "components": [
            {
              "internalType": "address",
              "name": "from",
              "type": "address"
            },
            {
              "internalType": "uint256",
              "name": "nonce",
              "type": "uint256"
            },
            {
              "internalType": "uint256",
              "name": "tokenId",
              "type": "uint256"
            },
            {
              "internalType": "bytes",
              "name": "data",
              "type": "bytes"
            }
          ],
          "internalType": "struct IForwarder.ForwardRequest",
          "name": "req",
          "type": "tuple"
        },
        {
          "internalType": "bytes",
          "name": "signature",
          "type": "bytes"
        }
      ],
      "name": "execute",
      "outputs": [
        {
          "internalType": "bytes",
          "name": "",
          "type": "bytes"
        }
      ],
      "stateMutability": "nonpayable",
      "type": "function"
    },
    {
      "inputs": [
        {
          "internalType": "uint256",
          "name": "tokenId",
          "type": "uint256"
        }
      ],
      "name": "exists",
      "outputs": [
        {
          "internalType": "bool",
          "name": "",
          "type": "bool"
        }
      ],
      "stateMutability": "view",
      "type": "function"
    },
    {
      "inputs": [
        {
          "internalType": "string",
          "name": "key",
          "type": "string"
        },
        {
          "internalType": "uint256",
          "name": "tokenId",
          "type": "uint256"
        }
      ],
      "name": "get",
      "outputs": [
        {
          "internalType": "string",
          "name": "value",
          "type": "string"
        }
      ],
      "stateMutability": "view",
      "type": "function"
    },
    {
      "inputs": [
        {
          "internalType": "uint256",
          "name": "tokenId",
          "type": "uint256"
        }
      ],
      "name": "getApproved",
      "outputs": [
        {
          "internalType": "address",
          "name": "",
          "type": "address"
        }
      ],
      "stateMutability": "view",
      "type": "function"
    },
    {
      "inputs": [
        {
          "internalType": "uint256",
          "name": "keyHash",
          "type": "uint256"
        },
        {
          "internalType": "uint256",
          "name": "tokenId",
          "type": "uint256"
        }
      ],
      "name": "getByHash",
      "outputs": [
        {
          "internalType": "string",
          "name": "key",
          "type": "string"
        },
        {
          "internalType": "string",
          "name": "value",
          "type": "string"
        }
      ],
      "stateMutability": "view",
      "type": "function"
    },
    {
      "inputs": [
        {
          "internalType": "uint256",
          "name": "keyHash",
          "type": "uint256"
        }
      ],
      "name": "getKey",
      "outputs": [
        {
          "internalType": "string",
          "name": "",
          "type": "string"
        }
      ],
      "stateMutability": "view",
      "type": "function"
    },
    {
      "inputs": [
        {
          "internalType": "uint256[]",
          "name": "hashes",
          "type": "uint256[]"
        }
      ],
      "name": "getKeys",
      "outputs": [
        {
          "internalType": "string[]",
          "name": "values",
          "type": "string[]"
        }
      ],
      "stateMutability": "view",
      "type": "function"
    },
    {
      "inputs": [
        {
          "internalType": "string[]",
          "name": "keys",
          "type": "string[]"
        },
        {
          "internalType": "uint256",
          "name": "tokenId",
          "type": "uint256"
        }
      ],
      "name": "getMany",
      "outputs": [
        {
          "internalType": "string[]",
          "name": "values",
          "type": "string[]"
        }
      ],
      "stateMutability": "view",
      "type": "function"
    },
    {
      "inputs": [
        {
          "internalType": "uint256[]",
          "name": "keyHashes",
          "type": "uint256[]"
        },
        {
          "internalType": "uint256",
          "name": "tokenId",
          "type": "uint256"
        }
      ],
      "name": "getManyByHash",
      "outputs": [
        {
          "internalType": "string[]",
          "name": "keys",
          "type": "string[]"
        },
        {
          "internalType": "string[]",
          "name": "values",
          "type": "string[]"
        }
      ],
      "stateMutability": "view",
      "type": "function"
    },
    {
      "inputs": [
        {
          "internalType": "address",
          "name": "mintingManager",
          "type": "address"
        },
        {
          "internalType": "address",
          "name": "cnsRegistry",
          "type": "address"
        },
        {
          "internalType": "address",
          "name": "rootChainManager",
          "type": "address"
        },
        {
          "internalType": "address",
          "name": "childChainManager",
          "type": "address"
        }
      ],
      "name": "initialize",
      "outputs": [],
      "stateMutability": "nonpayable",
      "type": "function"
    },
    {
      "inputs": [
        {
          "internalType": "address",
          "name": "owner",
          "type": "address"
        },
        {
          "internalType": "address",
          "name": "operator",
          "type": "address"
        }
      ],
      "name": "isApprovedForAll",
      "outputs": [
        {
          "internalType": "bool",
          "name": "",
          "type": "bool"
        }
      ],
      "stateMutability": "view",
      "type": "function"
    },
    {
      "inputs": [
        {
          "internalType": "address",
          "name": "spender",
          "type": "address"
        },
        {
          "internalType": "uint256",
          "name": "tokenId",
          "type": "uint256"
        }
      ],
      "name": "isApprovedOrOwner",
      "outputs": [
        {
          "internalType": "bool",
          "name": "",
          "type": "bool"
        }
      ],
      "stateMutability": "view",
      "type": "function"
    },
    {
      "inputs": [
        {
          "internalType": "address",
          "name": "forwarder",
          "type": "address"
        }
      ],
      "name": "isTrustedForwarder",
      "outputs": [
        {
          "internalType": "bool",
          "name": "",
          "type": "bool"
        }
      ],
      "stateMutability": "view",
      "type": "function"
    },
    {
      "inputs": [
        {
          "internalType": "address",
          "name": "user",
          "type": "address"
        },
        {
          "internalType": "uint256",
          "name": "tokenId",
          "type": "uint256"
        }
      ],
      "name": "mint",
      "outputs": [],
      "stateMutability": "nonpayable",
      "type": "function"
    },
    {
      "inputs": [
        {
          "internalType": "address",
          "name": "user",
          "type": "address"
        },
        {
          "internalType": "uint256",
          "name": "tokenId",
          "type": "uint256"
        },
        {
          "internalType": "bytes",
          "name": "",
          "type": "bytes"
        }
      ],
      "name": "mint",
      "outputs": [],
      "stateMutability": "nonpayable",
      "type": "function"
    },
    {
      "inputs": [
        {
          "internalType": "uint256",
          "name": "tokenId",
          "type": "uint256"
        },
        {
          "internalType": "string",
          "name": "uri",
          "type": "string"
        }
      ],
      "name": "mintTLD",
      "outputs": [],
      "stateMutability": "nonpayable",
      "type": "function"
    },
    {
      "inputs": [
        {
          "internalType": "address",
          "name": "to",
          "type": "address"
        },
        {
          "internalType": "string[]",
          "name": "labels",
          "type": "string[]"
        },
        {
          "internalType": "string[]",
          "name": "keys",
          "type": "string[]"
        },
        {
          "internalType": "string[]",
          "name": "values",
          "type": "string[]"
        },
        {
          "internalType": "bool",
          "name": "withReverse",
          "type": "bool"
        }
      ],
      "name": "mintWithRecords",
      "outputs": [],
      "stateMutability": "nonpayable",
      "type": "function"
    },
    {
      "inputs": [],
      "name": "name",
      "outputs": [
        {
          "internalType": "string",
          "name": "",
          "type": "string"
        }
      ],
      "stateMutability": "view",
      "type": "function"
    },
    {
      "inputs": [
        {
          "internalType": "string[]",
          "name": "labels",
          "type": "string[]"
        }
      ],
      "name": "namehash",
      "outputs": [
        {
          "internalType": "uint256",
          "name": "",
          "type": "uint256"
        }
      ],
      "stateMutability": "pure",
      "type": "function"
    },
    {
      "inputs": [
        {
          "internalType": "uint256",
          "name": "tokenId",
          "type": "uint256"
        }
      ],
      "name": "nonceOf",
      "outputs": [
        {
          "internalType": "uint256",
          "name": "",
          "type": "uint256"
        }
      ],
      "stateMutability": "view",
      "type": "function"
    },
    {
      "inputs": [
        {
          "internalType": "address",
          "name": "",
          "type": "address"
        },
        {
          "internalType": "address",
          "name": "from",
          "type": "address"
        },
        {
          "internalType": "uint256",
          "name": "tokenId",
          "type": "uint256"
        },
        {
          "internalType": "bytes",
          "name": "data",
          "type": "bytes"
        }
      ],
      "name": "onERC721Received",
      "outputs": [
        {
          "internalType": "bytes4",
          "name": "",
          "type": "bytes4"
        }
      ],
      "stateMutability": "nonpayable",
      "type": "function"
    },
    {
      "inputs": [
        {
          "internalType": "uint256",
          "name": "tokenId",
          "type": "uint256"
        }
      ],
      "name": "ownerOf",
      "outputs": [
        {
          "internalType": "address",
          "name": "",
          "type": "address"
        }
      ],
      "stateMutability": "view",
      "type": "function"
    },
    {
      "inputs": [
        {
          "internalType": "string[]",
          "name": "keys",
          "type": "string[]"
        },
        {
          "internalType": "string[]",
          "name": "values",
          "type": "string[]"
        },
        {
          "internalType": "uint256",
          "name": "tokenId",
          "type": "uint256"
        }
      ],
      "name": "reconfigure",
      "outputs": [],
      "stateMutability": "nonpayable",
      "type": "function"
    },
    {
      "inputs": [],
      "name": "removeReverse",
      "outputs": [],
      "stateMutability": "nonpayable",
      "type": "function"
    },
    {
      "inputs": [
        {
          "internalType": "uint256",
          "name": "tokenId",
          "type": "uint256"
        }
      ],
      "name": "reset",
      "outputs": [],
      "stateMutability": "nonpayable",
      "type": "function"
    },
    {
      "inputs": [
        {
          "internalType": "uint256",
          "name": "tokenId",
          "type": "uint256"
        }
      ],
      "name": "resolverOf",
      "outputs": [
        {
          "internalType": "address",
          "name": "",
          "type": "address"
        }
      ],
      "stateMutability": "view",
      "type": "function"
    },
    {
      "inputs": [
        {
          "internalType": "address",
          "name": "addr",
          "type": "address"
        }
      ],
      "name": "reverseNameOf",
      "outputs": [
        {
          "internalType": "string",
          "name": "reverseUri",
          "type": "string"
        }
      ],
      "stateMutability": "view",
      "type": "function"
    },
    {
      "inputs": [
        {
          "internalType": "address",
          "name": "addr",
          "type": "address"
        }
      ],
      "name": "reverseOf",
      "outputs": [
        {
          "internalType": "uint256",
          "name": "reverse",
          "type": "uint256"
        }
      ],
      "stateMutability": "view",
      "type": "function"
    },
    {
      "inputs": [],
      "name": "root",
      "outputs": [
        {
          "internalType": "uint256",
          "name": "",
          "type": "uint256"
        }
      ],
      "stateMutability": "pure",
      "type": "function"
    },
    {
      "inputs": [
        {
          "internalType": "address",
          "name": "from",
          "type": "address"
        },
        {
          "internalType": "address",
          "name": "to",
          "type": "address"
        },
        {
          "internalType": "uint256",
          "name": "tokenId",
          "type": "uint256"
        }
      ],
      "name": "safeTransferFrom",
      "outputs": [],
      "stateMutability": "nonpayable",
      "type": "function"
    },
    {
      "inputs": [
        {
          "internalType": "address",
          "name": "from",
          "type": "address"
        },
        {
          "internalType": "address",
          "name": "to",
          "type": "address"
        },
        {
          "internalType": "uint256",
          "name": "tokenId",
          "type": "uint256"
        },
        {
          "internalType": "bytes",
          "name": "data",
          "type": "bytes"
        }
      ],
      "name": "safeTransferFrom",
      "outputs": [],
      "stateMutability": "nonpayable",
      "type": "function"
    },
    {
      "inputs": [
        {
          "internalType": "string",
          "name": "key",
          "type": "string"
        },
        {
          "internalType": "string",
          "name": "value",
          "type": "string"
        },
        {
          "internalType": "uint256",
          "name": "tokenId",
          "type": "uint256"
        }
      ],
      "name": "set",
      "outputs": [],
      "stateMutability": "nonpayable",
      "type": "function"
    },
    {
      "inputs": [
        {
          "internalType": "address",
          "name": "operator",
          "type": "address"
        },
        {
          "internalType": "bool",
          "name": "approved",
          "type": "bool"
        }
      ],
      "name": "setApprovalForAll",
      "outputs": [],
      "stateMutability": "nonpayable",
      "type": "function"
    },
    {
      "inputs": [
        {
          "internalType": "uint256",
          "name": "keyHash",
          "type": "uint256"
        },
        {
          "internalType": "string",
          "name": "value",
          "type": "string"
        },
        {
          "internalType": "uint256",
          "name": "tokenId",
          "type": "uint256"
        }
      ],
      "name": "setByHash",
      "outputs": [],
      "stateMutability": "nonpayable",
      "type": "function"
    },
    {
      "inputs": [
        {
          "internalType": "string[]",
          "name": "keys",
          "type": "string[]"
        },
        {
          "internalType": "string[]",
          "name": "values",
          "type": "string[]"
        },
        {
          "internalType": "uint256",
          "name": "tokenId",
          "type": "uint256"
        }
      ],
      "name": "setMany",
      "outputs": [],
      "stateMutability": "nonpayable",
      "type": "function"
    },
    {
      "inputs": [
        {
          "internalType": "uint256[]",
          "name": "keyHashes",
          "type": "uint256[]"
        },
        {
          "internalType": "string[]",
          "name": "values",
          "type": "string[]"
        },
        {
          "internalType": "uint256",
          "name": "tokenId",
          "type": "uint256"
        }
      ],
      "name": "setManyByHash",
      "outputs": [],
      "stateMutability": "nonpayable",
      "type": "function"
    },
    {
      "inputs": [
        {
          "internalType": "address",
          "name": "to",
          "type": "address"
        },
        {
          "internalType": "uint256",
          "name": "tokenId",
          "type": "uint256"
        }
      ],
      "name": "setOwner",
      "outputs": [],
      "stateMutability": "nonpayable",
      "type": "function"
    },
    {
      "inputs": [
        {
          "internalType": "uint256",
          "name": "tokenId",
          "type": "uint256"
        }
      ],
      "name": "setReverse",
      "outputs": [],
      "stateMutability": "nonpayable",
      "type": "function"
    },
    {
      "inputs": [
        {
          "internalType": "string[]",
          "name": "labels",
          "type": "string[]"
        }
      ],
      "name": "setReverse",
      "outputs": [],
      "stateMutability": "nonpayable",
      "type": "function"
    },
    {
      "inputs": [
        {
          "internalType": "string",
          "name": "prefix",
          "type": "string"
        }
      ],
      "name": "setTokenURIPrefix",
      "outputs": [],
      "stateMutability": "nonpayable",
      "type": "function"
    },
    {
      "inputs": [
        {
          "internalType": "bytes4",
          "name": "interfaceId",
          "type": "bytes4"
        }
      ],
      "name": "supportsInterface",
      "outputs": [
        {
          "internalType": "bool",
          "name": "",
          "type": "bool"
        }
      ],
      "stateMutability": "view",
      "type": "function"
    },
    {
      "inputs": [],
      "name": "symbol",
      "outputs": [
        {
          "internalType": "string",
          "name": "",
          "type": "string"
        }
      ],
      "stateMutability": "view",
      "type": "function"
    },
    {
      "inputs": [
        {
          "internalType": "uint256",
          "name": "tokenId",
          "type": "uint256"
        }
      ],
      "name": "tokenURI",
      "outputs": [
        {
          "internalType": "string",
          "name": "",
          "type": "string"
        }
      ],
      "stateMutability": "view",
      "type": "function"
    },
    {
      "inputs": [
        {
          "internalType": "address",
          "name": "from",
          "type": "address"
        },
        {
          "internalType": "address",
          "name": "to",
          "type": "address"
        },
        {
          "internalType": "uint256",
          "name": "tokenId",
          "type": "uint256"
        }
      ],
      "name": "transferFrom",
      "outputs": [],
      "stateMutability": "nonpayable",
      "type": "function"
    },
    {
      "inputs": [
        {
          "internalType": "address",
          "name": "to",
          "type": "address"
        },
        {
          "internalType": "string[]",
          "name": "labels",
          "type": "string[]"
        },
        {
          "internalType": "string[]",
          "name": "keys",
          "type": "string[]"
        },
        {
          "internalType": "string[]",
          "name": "values",
          "type": "string[]"
        },
        {
          "internalType": "bool",
          "name": "withReverse",
          "type": "bool"
        }
      ],
      "name": "unlockWithRecords",
      "outputs": [],
      "stateMutability": "nonpayable",
      "type": "function"
    },
    {
      "inputs": [
        {
          "internalType": "address",
          "name": "to",
          "type": "address"
        },
        {
          "internalType": "uint256",
          "name": "tokenId",
          "type": "uint256"
        },
        {
          "internalType": "string[]",
          "name": "keys",
          "type": "string[]"
        },
        {
          "internalType": "string[]",
          "name": "values",
          "type": "string[]"
        },
        {
          "internalType": "bool",
          "name": "withReverse",
          "type": "bool"
        }
      ],
      "name": "unlockWithRecords",
      "outputs": [],
      "stateMutability": "nonpayable",
      "type": "function"
    },
    {
      "inputs": [
        {
          "components": [
            {
              "internalType": "address",
              "name": "from",
              "type": "address"
            },
            {
              "internalType": "uint256",
              "name": "nonce",
              "type": "uint256"
            },
            {
              "internalType": "uint256",
              "name": "tokenId",
              "type": "uint256"
            },
            {
              "internalType": "bytes",
              "name": "data",
              "type": "bytes"
            }
          ],
          "internalType": "struct IForwarder.ForwardRequest",
          "name": "req",
          "type": "tuple"
        },
        {
          "internalType": "bytes",
          "name": "signature",
          "type": "bytes"
        }
      ],
      "name": "verify",
      "outputs": [
        {
          "internalType": "bool",
          "name": "",
          "type": "bool"
        }
      ],
      "stateMutability": "view",
      "type": "function"
    },
    {
      "inputs": [
        {
          "internalType": "bytes",
          "name": "inputData",
          "type": "bytes"
        },
        {
          "internalType": "uint256",
          "name": "tokenId",
          "type": "uint256"
        },
        {
          "internalType": "string[]",
          "name": "keys",
          "type": "string[]"
        },
        {
          "internalType": "string[]",
          "name": "values",
          "type": "string[]"
        }
      ],
      "name": "withdrawFromPolygon",
      "outputs": [],
      "stateMutability": "nonpayable",
      "type": "function"
    }
  ],
  "bytecode": "0x608060405234801561001057600080fd5b506152c9806100206000396000f3fe608060405234801561001057600080fd5b50600436106103995760003560e01c80636ccbae5f116101e9578063ba5d40b71161010f578063e985e9c5116100ad578063f5c1f76e1161007c578063f5c1f76e14610860578063f7df5c6014610873578063f8c8765e14610886578063ffa1ad741461089957600080fd5b8063e985e9c514610802578063ebf0c7171461083e578063ec129eea14610845578063f25eb5c11461085857600080fd5b8063c87b56dd116100e9578063c87b56dd146107b6578063ce92b33e146107c9578063cf2c52cb146107dc578063d106353f146107ef57600080fd5b8063ba5d40b71461077d578063bb5b27e114610790578063bebec6b4146107a357600080fd5b806399e0dd7c11610187578063ab3b87fe11610156578063ab3b87fe14610723578063b3f9e4cb14610736578063b85afd2814610749578063b88d4fde1461076a57600080fd5b806399e0dd7c146106be578063a22cb465146106d1578063a3f4df7e146106e4578063a42474001461071057600080fd5b806394d008ef116101c357806394d008ef146106885780639508b1c41461069b5780639559c0bd146106ae57806395d89b41146106b657600080fd5b80636ccbae5f1461064157806370a08231146106625780637e37479e1461067557600080fd5b806340c10f19116102ce5780634f558e791161026c5780636352211e1161023b5780636352211e146105e7578063638e5c78146105fa578063663f7b2a1461060d578063672b9f811461062057600080fd5b80634f558e791461059257806350382c1a146105a557806350960239146105b8578063572b6c05146105cb57600080fd5b8063430c2081116102a8578063430c20811461054657806344d5f66c1461055957806347c816991461056c5780634a72584d1461057f57600080fd5b806340c10f191461050d57806342842e0e1461052057806342966c681461053357600080fd5b80631bf7e13e1161033b578063276fabb111610315578063276fabb1146104b357806327f18975146104d4578063310bd74b146104e7578063384e9a55146104fa57600080fd5b80631bf7e13e1461047a5780631f71be061461048d57806323b872dd146104a057600080fd5b8063095ea7b311610377578063095ea7b314610406578063150b7a021461041b5780631bd8cc1a146104475780631be5e7ed1461046757600080fd5b806301ffc9a71461039e57806306fdde03146103c6578063081812fc146103db575b600080fd5b6103b16103ac3660046148da565b6108bd565b60405190151581526020015b60405180910390f35b6103ce6108ce565b6040516103bd9190614e04565b6103ee6103e9366004614b08565b610960565b6040516001600160a01b0390911681526020016103bd565b61041961041436600461451f565b610987565b005b61042e610429366004614311565b6109dc565b6040516001600160e01b031990911681526020016103bd565b61045a61045536600461479b565b610b32565b6040516103bd9190614d9f565b6103ce610475366004614a42565b610c52565b6103ce610488366004614aa9565b610c9d565b61041961049b3660046143ea565b610da8565b6104196104ae3660046142d1565b610e34565b6104c66104c13660046146ec565b610eba565b6040519081526020016103bd565b6104196104e236600461472b565b610ec9565b6104196104f5366004614b08565b610f44565b610419610508366004614b08565b610fb2565b61041961051b36600461451f565b611041565b61041961052e3660046142d1565b61108e565b610419610541366004614b08565b6110a9565b6103b161055436600461451f565b611120565b61041961056736600461463c565b61112c565b61041961057a3660046149e4565b61120c565b61041961058d366004614b50565b61127e565b6103b16105a0366004614b08565b6112f7565b6104196105b3366004614a77565b611316565b6104196105c6366004614206565b61134c565b6103b16105d9366004614206565b6001600160a01b0316301490565b6103ee6105f5366004614b08565b6113ac565b610419610608366004614b08565b61140c565b61041961061b3660046147e4565b611457565b61063361062e366004614ba0565b611507565b6040516103bd929190614e17565b6104c661064f366004614b08565b6000908152610100602052604090205490565b6104c6610670366004614206565b61151f565b6104c6610683366004614206565b6115a5565b6104196106963660046145e3565b6115d6565b6104196106a9366004614912565b611625565b6104c6601481565b6103ce61167c565b6104196106cc3660046149b1565b61168b565b6104196106df3660046144a2565b611711565b6103ce6040518060400160405280600d81526020016c554e533a20526567697374727960981b81525081565b6103b161071e366004614aa9565b611723565b61041961073136600461451f565b61176e565b6103ee610744366004614b08565b6117e6565b61075c61075736600461479b565b611810565b6040516103bd929190614db2565b610419610778366004614381565b611978565b61041961078b3660046143ea565b6119f2565b6103ce61079e366004614b08565b611a63565b6103ce6107b1366004614206565b611b05565b6103ce6107c4366004614b08565b611bcf565b6104196107d736600461472b565b611c35565b6104196107ea3660046144cd565b611ca7565b6104196107fd36600461454a565b611d84565b6103b161081036600461423e565b6001600160a01b039182166000908152606a6020908152604080832093909416825291909152205460ff1690565b60006104c6565b61041961085336600461472b565b611ddd565b610419611e4f565b61045a61086e3660046146ec565b611ed5565b610419610881366004614b20565b611fb2565b610419610894366004614276565b612043565b6103ce604051806040016040528060058152602001640c0b8d8b8d60da1b81525081565b60006108c882612219565b92915050565b6060606580546108dd906151cb565b80601f0160208091040260200160405190810160405280929190818152602001828054610909906151cb565b80156109565780601f1061092b57610100808354040283529160200191610956565b820191906000526020600020905b81548152906001019060200180831161093957829003601f168201915b5050505050905090565b600061096b82612269565b506000908152606960205260409020546001600160a01b031690565b80303314156109c4576109986122c8565b81146109bf5760405162461bcd60e51b81526004016109b690614f55565b60405180910390fd5b6109cd565b6109cd816122dd565b6109d7838361230b565b505050565b60007f8ffb960699dc2ba88f34d0e41c029c3c36c95149679fe1d0153a9582bec92378546001600160a01b0316610a1161242e565b6001600160a01b03161415610ad357610a2861242e565b6001600160a01b03166342966c68856040518263ffffffff1660e01b8152600401610a5591815260200190565b600060405180830381600087803b158015610a6f57600080fd5b505af1158015610a83573d6000803e3d6000fd5b505050821580159150610a9d5750610a9d828401846148a8565b15610abb57610aac308561243d565b610ab6858561258b565b610ac5565b610ac5858561243d565b50630a85bd0160e11b610b29565b60405162461bcd60e51b815260206004820152602560248201527f52656769737472793a204552433732315f524543454956494e475f50524f4849604482015264109255115160da1b60648201526084016109b6565b95945050505050565b6060826001600160401b03811115610b5a57634e487b7160e01b600052604160045260246000fd5b604051908082528060200260200182016040528015610b8d57816020015b6060815260200190600190039081610b785790505b50905060005b83811015610c4a57610c0c858583818110610bbe57634e487b7160e01b600052603260045260246000fd5b9050602002810190610bd09190615019565b8080601f016020809104026020016040519081016040528093929190818152602001838380828437600092019190915250879250612636915050565b828281518110610c2c57634e487b7160e01b600052603260045260246000fd5b60200260200101819052508080610c4290615200565b915050610b93565b509392505050565b6060610c9584848080601f016020809104026020016040519081016040528093929190818152602001838380828437600092019190915250869250612636915050565b949350505050565b606060005a9050610caf858585611723565b610d0b5760405162461bcd60e51b815260206004820152602760248201527f554e535265676973747279466f727761726465723a205349474e41545552455f6044820152661253959053125160ca1b60648201526084016109b6565b610d9d610d1b6020870187614206565b30604088013584610d2f60608b018b615019565b8080601f01602080910402602001604051908101604052809392919081815260200183838082843760009201919091525050604080516020601f8e018190048102820181019092528c815292508c91508b908190840183828082843760009201919091525061266b92505050565b9150505b9392505050565b610134546001600160a01b0316610dbd61242e565b6001600160a01b031614610de35760405162461bcd60e51b81526004016109b690614f0e565b6000610df7610df2888a6150f3565b61275a565b9050610e078982888888886127b7565b8115610e2957610e298982610e24610e1f8b8d6150f3565b6127e0565b61287d565b505050505050505050565b80610e46610e4061242e565b826128bf565b610e625760405162461bcd60e51b81526004016109b690614e73565b8130331415610e9657610e736122c8565b8114610e915760405162461bcd60e51b81526004016109b690614f55565b610e9f565b610e9f816122dd565b610ea88361293d565b610eb38585856129aa565b5050505050565b6000610da1610df283856150f3565b80610ed5610e4061242e565b610ef15760405162461bcd60e51b81526004016109b690614e73565b8130331415610f2557610f026122c8565b8114610f205760405162461bcd60e51b81526004016109b690614f55565b610f2e565b610f2e816122dd565b610f3b8787878787612b51565b50505050505050565b80610f50610e4061242e565b610f6c5760405162461bcd60e51b81526004016109b690614e73565b8130331415610fa057610f7d6122c8565b8114610f9b5760405162461bcd60e51b81526004016109b690614f55565b610fa9565b610fa9816122dd565b6109d78361293d565b80610fbb61242e565b6001600160a01b0316610fcd826113ac565b6001600160a01b031614610ff35760405162461bcd60e51b81526004016109b690614e3c565b8130331415611027576110046122c8565b81146110225760405162461bcd60e51b81526004016109b690614f55565b611030565b611030816122dd565b6109d761103b61242e565b84612bd0565b611049612c18565b6001600160a01b031661105a61242e565b6001600160a01b0316146110805760405162461bcd60e51b81526004016109b690614fd7565b61108a828261243d565b5050565b6109d783838360405180602001604052806000815250611978565b806110b5610e4061242e565b6110d15760405162461bcd60e51b81526004016109b690614e73565b8130331415611105576110e26122c8565b81146111005760405162461bcd60e51b81526004016109b690614f55565b61110e565b61110e816122dd565b6111178361293d565b6109d783612d2b565b6000610da183836128bf565b610134546001600160a01b031661114161242e565b6001600160a01b0316146111675760405162461bcd60e51b81526004016109b690614f0e565b60005b815181101561108a576111a382828151811061119657634e487b7160e01b600052603260045260246000fd5b60200260200101516127e0565b61013860006111d88585815181106111cb57634e487b7160e01b600052603260045260246000fd5b602002602001015161275a565b815260200190815260200160002090805190602001906111f9929190613f5f565b508061120481615200565b91505061116a565b80611218610e4061242e565b6112345760405162461bcd60e51b81526004016109b690614e73565b8130331415611268576112456122c8565b81146112635760405162461bcd60e51b81526004016109b690614f55565b611271565b611271816122dd565b610f3b8787878787612dd2565b8061128a610e4061242e565b6112a65760405162461bcd60e51b81526004016109b690614e73565b81303314156112da576112b76122c8565b81146112d55760405162461bcd60e51b81526004016109b690614f55565b6112e3565b6112e3816122dd565b6112ef86868686612eb1565b505050505050565b6000818152606760205260408120546001600160a01b031615156108c8565b6113498160405160200161132a9190614c6a565b6040516020818303038152906040528051906020012060001c82612f51565b50565b610134546001600160a01b031661136161242e565b6001600160a01b0316146113875760405162461bcd60e51b81526004016109b690614f0e565b6001600160a01b0316600090815261013660205260409020805460ff19166001179055565b6000818152606760205260408120546001600160a01b0316806108c85760405162461bcd60e51b8152602060048201526018602482015277115490cdcc8c4e881a5b9d985b1a59081d1bdad95b88125160421b60448201526064016109b6565b80611418610e4061242e565b6114345760405162461bcd60e51b81526004016109b690614e73565b61144661143f61242e565b30846129aa565b61108a61145161242e565b8361258b565b6114608161275a565b61146861242e565b6001600160a01b031661147a826113ac565b6001600160a01b0316146114a05760405162461bcd60e51b81526004016109b690614e3c565b6114a98261275a565b303314156114dc576114b96122c8565b81146114d75760405162461bcd60e51b81526004016109b690614f55565b6114e5565b6114e5816122dd565b6109d76114f061242e565b6114f98561275a565b611502866127e0565b612f7d565b6060806115148484612fcb565b909590945092505050565b60006001600160a01b0382166115895760405162461bcd60e51b815260206004820152602960248201527f4552433732313a2061646472657373207a65726f206973206e6f7420612076616044820152683634b21037bbb732b960b91b60648201526084016109b6565b506001600160a01b031660009081526068602052604090205490565b6001600160a01b038116600090815261013560205260408120546115c881612fec565b6115d0578091505b50919050565b6115de612c18565b6001600160a01b03166115ef61242e565b6001600160a01b0316146116155760405162461bcd60e51b81526004016109b690614fd7565b61161f848461243d565b50505050565b61162f8787613036565b61163761242e565b6001600160a01b0316611649866113ac565b6001600160a01b03161461166f5760405162461bcd60e51b81526004016109b690614e3c565b610f3b84848484896130a5565b6060606680546108dd906151cb565b610134546001600160a01b03166116a061242e565b6001600160a01b0316146116c65760405162461bcd60e51b81526004016109b690614f0e565b6116d36101338383613fdf565b507f4b120d6a959a84a520fa48f5f937cca0e79129423487af7901213b5d2e89313b8282604051611705929190614df0565b60405180910390a15050565b61108a61171c61242e565b838361312f565b6000610c9561173185615100565b3085858080601f0160208091040260200160405190810160405280939291908181526020018383808284376000920191909152506131fe92505050565b8061177a610e4061242e565b6117965760405162461bcd60e51b81526004016109b690614e73565b81303314156117ca576117a76122c8565b81146117c55760405162461bcd60e51b81526004016109b690614f55565b6117d3565b6117d3816122dd565b61161f6117df846113ac565b85856129aa565b6000818152606760205260408120546001600160a01b03166118095760006108c8565b3092915050565b606080836001600160401b0381111561183957634e487b7160e01b600052604160045260246000fd5b60405190808252806020026020018201604052801561186c57816020015b60608152602001906001900390816118575790505b509150836001600160401b0381111561189557634e487b7160e01b600052604160045260246000fd5b6040519080825280602002602001820160405280156118c857816020015b60608152602001906001900390816118b35790505b50905060005b8481101561196f576119068686838181106118f957634e487b7160e01b600052603260045260246000fd5b9050602002013585612fcb565b84838151811061192657634e487b7160e01b600052603260045260246000fd5b6020026020010184848151811061194d57634e487b7160e01b600052603260045260246000fd5b602002602001018290528290525050808061196790615200565b9150506118ce565b50935093915050565b81611984610e4061242e565b6119a05760405162461bcd60e51b81526004016109b690614e73565b82303314156119d4576119b16122c8565b81146119cf5760405162461bcd60e51b81526004016109b690614f55565b6119dd565b6119dd816122dd565b6119e68461293d565b6112ef86868686613356565b610134546001600160a01b0316611a0761242e565b6001600160a01b031614611a2d5760405162461bcd60e51b81526004016109b690614f0e565b6000611a3c610df2888a6150f3565b9050611a568982611a50610e1f8b8d6150f3565b85613389565b610e2986868686856130a5565b600081815260c960205260409020805460609190611a80906151cb565b80601f0160208091040260200160405190810160405280929190818152602001828054611aac906151cb565b8015611af95780601f10611ace57610100808354040283529160200191611af9565b820191906000526020600020905b815481529060010190602001808311611adc57829003601f168201915b50505050509050919050565b6001600160a01b03811660009081526101356020526040902054606090611b2b81612fec565b6115d0576000818152610138602052604090208054611b49906151cb565b80601f0160208091040260200160405190810160405280929190818152602001828054611b75906151cb565b8015611bc25780601f10611b9757610100808354040283529160200191611bc2565b820191906000526020600020905b815481529060010190602001808311611ba557829003601f168201915b5050505050915050919050565b6060611bda82612269565b6000611be46133dc565b90506000815111611c045760405180602001604052806000815250610da1565b80611c0e846133ec565b604051602001611c1f929190614d11565b6040516020818303038152906040529392505050565b80611c41610e4061242e565b611c5d5760405162461bcd60e51b81526004016109b690614e73565b8130331415611c9157611c6e6122c8565b8114611c8c5760405162461bcd60e51b81526004016109b690614f55565b611c9a565b611c9a816122dd565b610f3b87878787876130a5565b7f8bea9a6f8afd34f4e29c585f854e0cc5161431bf5fc299d468454d33dce53b87546001600160a01b0316611cda61242e565b6001600160a01b031614611d005760405162461bcd60e51b81526004016109b690614fd7565b6020811415611d23576000611d1782840184614b08565b905061161f848261243d565b6000611d3182840184614816565b805190915060005b818110156112ef57611d7286848381518110611d6557634e487b7160e01b600052603260045260246000fd5b602002602001015161243d565b80611d7c81615200565b915050611d39565b610134546001600160a01b0316611d9961242e565b6001600160a01b031614611dbf5760405162461bcd60e51b81526004016109b690614f0e565b611dcd8787878787876127b7565b8015610f3b57610f3b8787613505565b80611de9610e4061242e565b611e055760405162461bcd60e51b81526004016109b690614e73565b8130331415611e3957611e166122c8565b8114611e345760405162461bcd60e51b81526004016109b690614f55565b611e42565b611e42816122dd565b610f3b8787878787613546565b6000611e5961242e565b6001600160a01b03811660009081526101356020526040902054909150611ecc5760405162461bcd60e51b815260206004820152602160248201527f52656769737472793a20524556455253455f5245434f52445f49535f454d50546044820152605960f81b60648201526084016109b6565b6113498161355c565b6060816001600160401b03811115611efd57634e487b7160e01b600052604160045260246000fd5b604051908082528060200260200182016040528015611f3057816020015b6060815260200190600190039081611f1b5790505b50905060005b82811015611fab57611f6d848483818110611f6157634e487b7160e01b600052603260045260246000fd5b90506020020135611a63565b828281518110611f8d57634e487b7160e01b600052603260045260246000fd5b60200260200101819052508080611fa390615200565b915050611f36565b5092915050565b610134546001600160a01b0316611fc761242e565b6001600160a01b031614611fed5760405162461bcd60e51b81526004016109b690614f0e565b61013454612004906001600160a01b03168461243d565b827fc5beef08f693b11c316c0c8394a377a0033c9cf701b8cd8afd79cecef60c39528383604051612036929190614df0565b60405180910390a2505050565b600054610100900460ff16158080156120635750600054600160ff909116105b8061207d5750303b15801561207d575060005460ff166001145b6120e05760405162461bcd60e51b815260206004820152602e60248201527f496e697469616c697a61626c653a20636f6e747261637420697320616c72656160448201526d191e481a5b9a5d1a585b1a5e995960921b60648201526084016109b6565b6000805460ff191660011790558015612103576000805461ff0019166101001790555b61013480546001600160a01b0319166001600160a01b038716179055837f8ffb960699dc2ba88f34d0e41c029c3c36c95149679fe1d0153a9582bec9237880546001600160a01b0319166001600160a01b03929092169190911790556040805180820182526013815272556e73746f707061626c6520446f6d61696e7360681b60208083019190915282518084019093526002835261155160f21b908301526121ab916135a1565b6121b36135ef565b6121bb6135ef565b6121c483613618565b6121cd82613648565b8015610eb3576000805461ff0019169055604051600181527f7f26b83ff96e1f2b6a682f133852f6798a09c465da95921460cefb38474024989060200160405180910390a15050505050565b60006001600160e01b031982166380ac58cd60e01b148061224a57506001600160e01b03198216635b5e139f60e01b145b806108c857506301ffc9a760e01b6001600160e01b03198316146108c8565b6000818152606760205260409020546001600160a01b03166113495760405162461bcd60e51b8152602060048201526018602482015277115490cdcc8c4e881a5b9d985b1a59081d1bdad95b88125160421b60448201526064016109b6565b6000303314156122da5750601f193601355b90565b600081815261010060205260409020546122f89060016150b0565b6000918252610100602052604090912055565b6000612316826113ac565b9050806001600160a01b0316836001600160a01b031614156123845760405162461bcd60e51b815260206004820152602160248201527f4552433732313a20617070726f76616c20746f2063757272656e74206f776e656044820152603960f91b60648201526084016109b6565b806001600160a01b031661239661242e565b6001600160a01b031614806123b257506123b28161081061242e565b6124245760405162461bcd60e51b815260206004820152603e60248201527f4552433732313a20617070726f76652063616c6c6572206973206e6f7420746f60448201527f6b656e206f776e6572206e6f7220617070726f76656420666f7220616c6c000060648201526084016109b6565b6109d78383613678565b60006124386136e6565b905090565b6001600160a01b0382166124935760405162461bcd60e51b815260206004820181905260248201527f4552433732313a206d696e7420746f20746865207a65726f206164647265737360448201526064016109b6565b6000818152606760205260409020546001600160a01b0316156124f85760405162461bcd60e51b815260206004820152601c60248201527f4552433732313a20746f6b656e20616c7265616479206d696e7465640000000060448201526064016109b6565b61250460008383613702565b6001600160a01b038216600090815260686020526040812080546001929061252d9084906150b0565b909155505060008181526067602052604080822080546001600160a01b0319166001600160a01b03861690811790915590518392907fddf252ad1be2c89b69c2b068fc378daa952ba7f163c4a11628f55a4df523b3ef908290a45050565b6000612595612c18565b90506125a18183613678565b60008051602061529d83398151915254604080516020808201869052825180830390910181528183019283905263e3dec8fb60e01b9092526001600160a01b0390921691829163e3dec8fb916125fe918891309190604401614d40565b600060405180830381600087803b15801561261857600080fd5b505af115801561262c573d6000803e3d6000fd5b5050505050505050565b6060610da18360405160200161264c9190614c6a565b6040516020818303038152906040528051906020012060001c8361379f565b6060612676856122dd565b600080876001600160a01b0316866126908b8a8989613881565b60405161269d9190614c6a565b60006040518083038160008787f1925050503d80600081146126db576040519150601f19603f3d011682016040523d82523d6000602084013e6126e0565b606091505b5090925090506126f1603f876150c8565b5a1161270d57634e487b7160e01b600052600160045260246000fd5b61274d82826040518060400160405280601a81526020017f42617365466f727761726465723a2043414c4c5f4641494c45440000000000008152506138b1565b9998505050505050505050565b805160009081905b8015611fab576127a382856127786001856150dc565b8151811061279657634e487b7160e01b600052603260045260246000fd5b60200260200101516138ea565b9150806127af816151b4565b915050612762565b6127c08561293d565b6127d36127cc866113ac565b87876129aa565b6112ef84848484896130a5565b606060008260008151811061280557634e487b7160e01b600052603260045260246000fd5b602002602001015190506000600190505b8351811015611fab578184828151811061284057634e487b7160e01b600052603260045260246000fd5b6020026020010151604051602001612859929190614cc5565b6040516020818303038152906040529150808061287590615200565b915050612816565b61dead6001600160a01b038416148015906128af57506001600160a01b03831660009081526101356020526040902054155b156109d7576109d7838383612f7d565b6000806128cb836113ac565b9050806001600160a01b0316846001600160a01b0316148061291257506001600160a01b038082166000908152606a602090815260408083209388168352929052205460ff165b80610c955750836001600160a01b031661292b84610960565b6001600160a01b031614949350505050565b61294681613997565b60405160200161295891815260200190565b60408051601f198184030181528282528051602091820120600085815260cb9092529181209190915582917f185c30856dadb58bf097c1f665a52ada7029752dbcad008ea3fefc73bee8c9fe9190a250565b826001600160a01b03166129bd826113ac565b6001600160a01b031614612a215760405162461bcd60e51b815260206004820152602560248201527f4552433732313a207472616e736665722066726f6d20696e636f72726563742060448201526437bbb732b960d91b60648201526084016109b6565b6001600160a01b038216612a835760405162461bcd60e51b8152602060048201526024808201527f4552433732313a207472616e7366657220746f20746865207a65726f206164646044820152637265737360e01b60648201526084016109b6565b612a8e838383613702565b612a99600082613678565b6001600160a01b0383166000908152606860205260408120805460019290612ac29084906150dc565b90915550506001600160a01b0382166000908152606860205260408120805460019290612af09084906150b0565b909155505060008181526067602052604080822080546001600160a01b0319166001600160a01b0386811691821790925591518493918716917fddf252ad1be2c89b69c2b068fc378daa952ba7f163c4a11628f55a4df523b3ef91a4505050565b60005b848110156112ef57612bbe868683818110612b7f57634e487b7160e01b600052603260045260246000fd5b90506020020135858584818110612ba657634e487b7160e01b600052603260045260246000fd5b9050602002810190612bb89190615019565b85612eb1565b80612bc881615200565b915050612b54565b6001600160a01b03821660008181526101356020526040808220849055518392917feb76a21470988c474a21f690cc28fee1ed511bd812dc3c21fd0f49c5e5d4708a91a35050565b60008060008051602061529d8339815191525460405163721804d360e11b81523060048201526001600160a01b039091169150600090829063e43009a69060240160206040518083038186803b158015612c7157600080fd5b505afa158015612c85573d6000803e3d6000fd5b505050506040513d601f19601f82011682018060405250810190612ca991906148c2565b60405163e66f960360e01b8152600481018290529091506001600160a01b0383169063e66f96039060240160206040518083038186803b158015612cec57600080fd5b505afa158015612d00573d6000803e3d6000fd5b505050506040513d601f19601f82011682018060405250810190612d249190614222565b9250505090565b6000612d36826113ac565b9050612d4481600084613702565b612d4f600083613678565b6001600160a01b0381166000908152606860205260408120805460019290612d789084906150dc565b909155505060008281526067602052604080822080546001600160a01b0319169055518391906001600160a01b038416907fddf252ad1be2c89b69c2b068fc378daa952ba7f163c4a11628f55a4df523b3ef908390a45050565b60008585604051602001612de7929190614d01565b60408051601f198184030181528282528051602091820120601f8901829004820284018201909252878352909250612e3b9183918990899081908401838280828437600092019190915250612f5192505050565b6112ef8187878080601f01602080910402602001604051908101604052809392919081815260200183838082843760009201919091525050604080516020601f8b0181900481028201810190925289815292508991508890819084018382808284376000920191909152508892506139c3915050565b612eba84613afe565b612f065760405162461bcd60e51b815260206004820152601c60248201527f5265636f726453746f726167653a204b45595f4e4f545f464f554e440000000060448201526064016109b6565b61161f84612f1386611a63565b85858080601f0160208091040260200160405190810160405280939291908181526020018383808284376000920191909152508792506139c3915050565b612f5a82613afe565b61108a57600082815260c96020908152604090912082516109d792840190613f5f565b6000828152610138602052604090208054612f97906151cb565b15159050612fc1576000828152610138602090815260409091208251612fbf92840190613f5f565b505b6109d78383612bd0565b606080612fd784611a63565b9150612fe3848461379f565b90509250929050565b6000818152610137602052604081205460ff1680156108c85750610136600061301361242e565b6001600160a01b0316815260208101919091526040016000205460ff1692915050565b60008051602061529d83398151915254604051633805550f60e01b81526001600160a01b03909116908190633805550f906130779086908690600401614df0565b600060405180830381600087803b15801561309157600080fd5b505af1158015610f3b573d6000803e3d6000fd5b60005b848110156112ef5761311d8686838181106130d357634e487b7160e01b600052603260045260246000fd5b90506020028101906130e59190615019565b86868581811061310557634e487b7160e01b600052603260045260246000fd5b90506020028101906131179190615019565b86612dd2565b8061312781615200565b9150506130a8565b816001600160a01b0316836001600160a01b031614156131915760405162461bcd60e51b815260206004820152601960248201527f4552433732313a20617070726f766520746f2063616c6c65720000000000000060448201526064016109b6565b6001600160a01b038381166000818152606a6020908152604080832094871680845294825291829020805460ff191686151590811790915591519182527f17307eab39ab6107e8899845ad3d59bd9653f200f220920489ca2b5937696c31910160405180910390a3505050565b6040838101519051636ccbae5f60e01b8152600481019190915260009081903090636ccbae5f9060240160206040518083038186803b15801561324057600080fd5b505afa158015613254573d6000803e3d6000fd5b505050506040513d601f19601f8201168201806040525081019061327891906148c2565b905060006133268660600151805190602001208688602001516040516020016132c69392919092835260609190911b6bffffffffffffffffffffffff19166020830152603482015260540190565b60408051601f1981840301815282825280516020918201207f19457468657265756d205369676e6564204d6573736167653a0a33320000000084830152603c8085019190915282518085039091018152605c909301909152815191012090565b905081866020015114801561334c5750855161334c906001600160a01b03168286613b24565b9695505050505050565b6133618484846129aa565b61336d84848484613c74565b61161f5760405162461bcd60e51b81526004016109b690614ebc565b613393848461243d565b827fc5beef08f693b11c316c0c8394a377a0033c9cf701b8cd8afd79cecef60c3952836040516133c39190614e04565b60405180910390a2801561161f5761161f84848461287d565b606061013380546108dd906151cb565b6060816134105750506040805180820190915260018152600360fc1b602082015290565b8160005b811561343a578061342481615200565b91506134339050600a836150c8565b9150613414565b6000816001600160401b0381111561346257634e487b7160e01b600052604160045260246000fd5b6040519080825280601f01601f19166020018201604052801561348c576020820181803683370190505b5090505b8415610c95576134a16001836150dc565b91506134ae600a8661521b565b6134b99060306150b0565b60f81b8183815181106134dc57634e487b7160e01b600052603260045260246000fd5b60200101906001600160f81b031916908160001a9053506134fe600a866150c8565b9450613490565b61dead6001600160a01b0383161480159061353757506001600160a01b03821660009081526101356020526040902054155b1561108a5761108a8282612bd0565b61354f8161293d565b610eb385858585856130a5565b6001600160a01b03811660008181526101356020526040808220829055517ffcf5eec0cfa3e6332f5f0e63ec242d71f866a61d121d6cdf5c2eb3b668a26c4f9190a250565b600054610100900460ff166135c85760405162461bcd60e51b81526004016109b690614f8c565b81516135db906065906020850190613f5f565b5080516109d7906066906020840190613f5f565b600054610100900460ff166136165760405162461bcd60e51b81526004016109b690614f8c565b565b600054610100900460ff1661363f5760405162461bcd60e51b81526004016109b690614f8c565b61134981613d85565b600054610100900460ff1661366f5760405162461bcd60e51b81526004016109b690614f8c565b61134981613dde565b600081815260696020526040902080546001600160a01b0319166001600160a01b03841690811790915581906136ad826113ac565b6001600160a01b03167f8c5be1e5ebec7d5bd14f71427d1e84f3dd0314c0f7b2291e5b200ac8c7c3b92560405160405180910390a45050565b6000303314156136fd575060331936013560601c90565b503390565b6000818152610137602052604090205460ff16158061372957506001600160a01b03821615155b6137755760405162461bcd60e51b815260206004820152601860248201527f52656769737472793a20544f4b454e5f5550475241444544000000000000000060448201526064016109b6565b6001600160a01b038316600090815261013560205260409020548114156109d7576109d78361355c565b60606137aa82612fec565b156137c457506040805160208101909152600081526108c8565b60ca60006137d184613997565b8152602001908152602001600020600084815260200190815260200160002080546137fb906151cb565b80601f0160208091040260200160405190810160405280929190818152602001828054613827906151cb565b80156138745780601f1061384957610100808354040283529160200191613874565b820191906000526020600020905b81548152906001019060200180831161385757829003601f168201915b5050505050905092915050565b606082858560405160200161389893929190614c86565b6040516020818303038152906040529050949350505050565b606083156138c0575081610da1565b8251156138d05782518084602001fd5b8160405162461bcd60e51b81526004016109b69190614e04565b60008151600014156139365760405162461bcd60e51b815260206004820152601560248201527452656769737472793a204c4142454c5f454d50545960581b60448201526064016109b6565b82826040516020016139489190614c6a565b60405160208183030381529060405280519060200120604051602001613978929190918252602082015260400190565b60408051601f1981840301815291905280516020909101209392505050565b600081815260cb6020526040812054156139bf57600082815260cb60205260409020546108c8565b5090565b60ca60006139d083613997565b8152602001908152602001600020600085815260200190815260200160002080546139fa906151cb565b15159050613a515782604051613a109190614c6a565b6040518091039020817f7ae4f661958fbecc2f77be6b0eb280d2a6f604b29e1e7221c82b9da0c4af7f8685604051613a489190614e04565b60405180910390a35b8160ca6000613a5f84613997565b815260200190815260200160002060008681526020019081526020016000209080519060200190613a91929190613f5f565b5081604051613aa09190614c6a565b604051809103902083604051613ab69190614c6a565b6040518091039020827f851ffe8e74d5015261dba0a1f9e1b0e5d42c5af5d2ad1908fee897c7d80a0d928686604051613af0929190614e17565b60405180910390a450505050565b600081815260c9602052604081208054829190613b1a906151cb565b9050119050919050565b6000806000613b338585613e2c565b90925090506000816004811115613b5a57634e487b7160e01b600052602160045260246000fd5b148015613b785750856001600160a01b0316826001600160a01b0316145b15613b8857600192505050610da1565b600080876001600160a01b0316631626ba7e60e01b8888604051602401613bb0929190614dd7565b60408051601f198184030181529181526020820180516001600160e01b03166001600160e01b0319909416939093179092529051613bee9190614c6a565b600060405180830381855afa9150503d8060008114613c29576040519150601f19603f3d011682016040523d82523d6000602084013e613c2e565b606091505b5091509150818015613c41575080516020145b8015613c6857508051630b135d3f60e11b90613c6690830160209081019084016148c2565b145b98975050505050505050565b60006001600160a01b0384163b15613d7d57836001600160a01b031663150b7a02613c9d61242e565b8786866040518563ffffffff1660e01b8152600401613cbf9493929190614d6c565b602060405180830381600087803b158015613cd957600080fd5b505af1925050508015613d09575060408051601f3d908101601f19168201909252613d06918101906148f6565b60015b613d63573d808015613d37576040519150601f19603f3d011682016040523d82523d6000602084013e613d3c565b606091505b508051613d5b5760405162461bcd60e51b81526004016109b690614ebc565b805181602001fd5b6001600160e01b031916630a85bd0160e11b149050610c95565b506001610c95565b600054610100900460ff16613dac5760405162461bcd60e51b81526004016109b690614f8c565b8060008051602061529d8339815191525b80546001600160a01b0319166001600160a01b039290921691909117905550565b600054610100900460ff16613e055760405162461bcd60e51b81526004016109b690614f8c565b807f8bea9a6f8afd34f4e29c585f854e0cc5161431bf5fc299d468454d33dce53b87613dbd565b600080825160411415613e635760208301516040840151606085015160001a613e5787828585613e72565b94509450505050613e6b565b506000905060025b9250929050565b6000807f7fffffffffffffffffffffffffffffff5d576e7357a4501ddfe92f46681b20a0831115613ea95750600090506003613f56565b8460ff16601b14158015613ec157508460ff16601c14155b15613ed25750600090506004613f56565b6040805160008082526020820180845289905260ff881692820192909252606081018690526080810185905260019060a0016020604051602081039080840390855afa158015613f26573d6000803e3d6000fd5b5050604051601f1901519150506001600160a01b038116613f4f57600060019250925050613f56565b9150600090505b94509492505050565b828054613f6b906151cb565b90600052602060002090601f016020900481019282613f8d5760008555613fd3565b82601f10613fa657805160ff1916838001178555613fd3565b82800160010185558215613fd3579182015b82811115613fd3578251825591602001919060010190613fb8565b506139bf929150614053565b828054613feb906151cb565b90600052602060002090601f01602090048101928261400d5760008555613fd3565b82601f106140265782800160ff19823516178555613fd3565b82800160010185558215613fd3579182015b82811115613fd3578235825591602001919060010190614038565b5b808211156139bf5760008155600101614054565b600061407b6140768461508d565b61505d565b9050808382526020808301915083868660051b8601111561409b57600080fd5b6000805b878110156140db5782356001600160401b038111156140bc578283fd5b6140c88a828a0161419c565b865250938301939183019160010161409f565b50505050509392505050565b60008083601f8401126140f8578182fd5b5081356001600160401b0381111561410e578182fd5b6020830191508360208260051b8501011115613e6b57600080fd5b600082601f830112614139578081fd5b610da183833560208501614068565b8035801515811461415857600080fd5b919050565b60008083601f84011261416e578182fd5b5081356001600160401b03811115614184578182fd5b602083019150836020828501011115613e6b57600080fd5b600082601f8301126141ac578081fd5b81356001600160401b038111156141c5576141c561525b565b6141d8601f8201601f191660200161505d565b8181528460208386010111156141ec578283fd5b816020850160208301379081016020019190915292915050565b600060208284031215614217578081fd5b8135610da181615271565b600060208284031215614233578081fd5b8151610da181615271565b60008060408385031215614250578081fd5b823561425b81615271565b9150602083013561426b81615271565b809150509250929050565b6000806000806080858703121561428b578182fd5b843561429681615271565b935060208501356142a681615271565b925060408501356142b681615271565b915060608501356142c681615271565b939692955090935050565b6000806000606084860312156142e5578081fd5b83356142f081615271565b9250602084013561430081615271565b929592945050506040919091013590565b600080600080600060808688031215614328578283fd5b853561433381615271565b9450602086013561434381615271565b93506040860135925060608601356001600160401b03811115614364578182fd5b6143708882890161415d565b969995985093965092949392505050565b60008060008060808587031215614396578182fd5b84356143a181615271565b935060208501356143b181615271565b92506040850135915060608501356001600160401b038111156143d2578182fd5b6143de8782880161419c565b91505092959194509250565b60008060008060008060008060a0898b031215614405578586fd5b883561441081615271565b975060208901356001600160401b038082111561442b578788fd5b6144378c838d016140e7565b909950975060408b013591508082111561444f578485fd5b61445b8c838d016140e7565b909750955060608b0135915080821115614473578485fd5b506144808b828c016140e7565b9094509250614493905060808a01614148565b90509295985092959890939650565b600080604083850312156144b4578182fd5b82356144bf81615271565b9150612fe360208401614148565b6000806000604084860312156144e1578081fd5b83356144ec81615271565b925060208401356001600160401b03811115614506578182fd5b6145128682870161415d565b9497909650939450505050565b60008060408385031215614531578182fd5b823561453c81615271565b946020939093013593505050565b600080600080600080600060a0888a031215614564578081fd5b873561456f81615271565b96506020880135955060408801356001600160401b0380821115614591578283fd5b61459d8b838c016140e7565b909750955060608a01359150808211156145b5578283fd5b506145c28a828b016140e7565b90945092506145d5905060808901614148565b905092959891949750929550565b600080600080606085870312156145f8578182fd5b843561460381615271565b93506020850135925060408501356001600160401b03811115614624578283fd5b6146308782880161415d565b95989497509550505050565b6000602080838503121561464e578182fd5b82356001600160401b0380821115614664578384fd5b818501915085601f830112614677578384fd5b81356146856140768261508d565b80828252858201915085850189878560051b88010111156146a4578788fd5b875b848110156146dd578135868111156146bc57898afd5b6146ca8c8a838b0101614129565b85525092870192908701906001016146a6565b50909998505050505050505050565b600080602083850312156146fe578182fd5b82356001600160401b03811115614713578283fd5b61471f858286016140e7565b90969095509350505050565b600080600080600060608688031215614742578283fd5b85356001600160401b0380821115614758578485fd5b61476489838a016140e7565b9097509550602088013591508082111561477c578485fd5b50614789888289016140e7565b96999598509660400135949350505050565b6000806000604084860312156147af578081fd5b83356001600160401b038111156147c4578182fd5b6147d0868287016140e7565b909790965060209590950135949350505050565b6000602082840312156147f5578081fd5b81356001600160401b0381111561480a578182fd5b610c9584828501614129565b60006020808385031215614828578182fd5b82356001600160401b0381111561483d578283fd5b8301601f8101851361484d578283fd5b803561485b6140768261508d565b80828252848201915084840188868560051b870101111561487a578687fd5b8694505b8385101561489c57803583526001949094019391850191850161487e565b50979650505050505050565b6000602082840312156148b9578081fd5b610da182614148565b6000602082840312156148d3578081fd5b5051919050565b6000602082840312156148eb578081fd5b8135610da181615286565b600060208284031215614907578081fd5b8151610da181615286565b60008060008060008060006080888a03121561492c578081fd5b87356001600160401b0380821115614942578283fd5b61494e8b838c0161415d565b909950975060208a0135965060408a013591508082111561496d578283fd5b6149798b838c016140e7565b909650945060608a0135915080821115614991578283fd5b5061499e8a828b016140e7565b989b979a50959850939692959293505050565b600080602083850312156149c3578182fd5b82356001600160401b038111156149d8578283fd5b61471f8582860161415d565b6000806000806000606086880312156149fb578283fd5b85356001600160401b0380821115614a11578485fd5b614a1d89838a0161415d565b90975095506020880135915080821115614a35578485fd5b506147898882890161415d565b600080600060408486031215614a56578081fd5b83356001600160401b03811115614a6b578182fd5b6147d08682870161415d565b600060208284031215614a88578081fd5b81356001600160401b03811115614a9d578182fd5b610c958482850161419c565b600080600060408486031215614abd578081fd5b83356001600160401b0380821115614ad3578283fd5b9085019060808288031215614ae6578283fd5b90935060208501359080821115614afb578283fd5b506145128682870161415d565b600060208284031215614b19578081fd5b5035919050565b600080600060408486031215614b34578081fd5b8335925060208401356001600160401b03811115614506578182fd5b60008060008060608587031215614b65578182fd5b8435935060208501356001600160401b03811115614b81578283fd5b614b8d8782880161415d565b9598909750949560400135949350505050565b60008060408385031215614bb2578182fd5b50508035926020909101359150565b600081518084526020808501808196508360051b81019150828601855b85811015614c08578284038952614bf6848351614c3e565b98850198935090840190600101614bde565b5091979650505050505050565b81835281816020850137506000828201602090810191909152601f909101601f19169091010190565b60008151808452614c56816020860160208601615188565b601f01601f19169290920160200192915050565b60008251614c7c818460208701615188565b9190910192915050565b60008451614c98818460208901615188565b60609490941b6bffffffffffffffffffffffff191691909301908152601481019190915260340192915050565b60008351614cd7818460208801615188565b601760f91b9083019081528351614cf5816001840160208801615188565b01600101949350505050565b8183823760009101908152919050565b60008351614d23818460208801615188565b835190830190614d37818360208801615188565b01949350505050565b6001600160a01b03848116825283166020820152606060408201819052600090610b2990830184614c3e565b6001600160a01b038581168252841660208201526040810183905260806060820181905260009061334c90830184614c3e565b602081526000610da16020830184614bc1565b604081526000614dc56040830185614bc1565b8281036020840152610d9d8185614bc1565b828152604060208201526000610c956040830184614c3e565b602081526000610c95602083018486614c15565b602081526000610da16020830184614c3e565b604081526000614e2a6040830185614c3e565b8281036020840152610d9d8185614c3e565b6020808252601d908201527f52656769737472793a2053454e4445525f49535f4e4f545f4f574e4552000000604082015260600190565b60208082526029908201527f52656769737472793a2053454e4445525f49535f4e4f545f415050524f5645446040820152682fa7a92fa7aba722a960b91b606082015260800190565b60208082526032908201527f4552433732313a207472616e7366657220746f206e6f6e20455243373231526560408201527131b2b4bb32b91034b6b83632b6b2b73a32b960711b606082015260800190565b60208082526027908201527f52656769737472793a2053454e4445525f49535f4e4f545f4d494e54494e475f60408201526626a0a720a3a2a960c91b606082015260800190565b60208082526017908201527f52656769737472793a20544f4b454e5f494e56414c4944000000000000000000604082015260600190565b6020808252602b908201527f496e697469616c697a61626c653a20636f6e7472616374206973206e6f74206960408201526a6e697469616c697a696e6760a81b606082015260800190565b60208082526022908201527f52656769737472793a20494e53554646494349454e545f5045524d495353494f6040820152614e5360f01b606082015260800190565b6000808335601e1984360301811261502f578283fd5b8301803591506001600160401b03821115615048578283fd5b602001915036819003821315613e6b57600080fd5b604051601f8201601f191681016001600160401b03811182821017156150855761508561525b565b604052919050565b60006001600160401b038211156150a6576150a661525b565b5060051b60200190565b600082198211156150c3576150c361522f565b500190565b6000826150d7576150d7615245565b500490565b6000828210156150ee576150ee61522f565b500390565b6000610da1368484614068565b600060808236031215615111578081fd5b604051608081016001600160401b0382821081831117156151345761513461525b565b816040528435915061514582615271565b8183526020850135602084015260408501356040840152606085013591508082111561516f578384fd5b5061517c3682860161419c565b60608301525092915050565b60005b838110156151a357818101518382015260200161518b565b8381111561161f5750506000910152565b6000816151c3576151c361522f565b506000190190565b600181811c908216806151df57607f821691505b602082108114156115d057634e487b7160e01b600052602260045260246000fd5b60006000198214156152145761521461522f565b5060010190565b60008261522a5761522a615245565b500690565b634e487b7160e01b600052601160045260246000fd5b634e487b7160e01b600052601260045260246000fd5b634e487b7160e01b600052604160045260246000fd5b6001600160a01b038116811461134957600080fd5b6001600160e01b03198116811461134957600080fdfebe2bb46ac0377341a1ec5c3116d70fd5029d704bd46292e58f6265dd177ebafea164736f6c6343000804000a",
  "linkReferences": {},
  "deployedLinkReferences": {}
}