{
  "_format": "hh-sol-artifact-1",
  "contractName": "UNSRegistry",
  "sourceName": "contracts/UNSRegistry.sol",
  "abi": [
    {
      "anonymous": false,
      "inputs": [
        {
          "indexed": false,
          "internalType": "address",
          "name": "previousAdmin",
          "type": "address"
        },
        {
          "indexed": false,
          "internalType": "address",
          "name": "newAdmin",
          "type": "address"
        }
      ],
      "name": "AdminChanged",
      "type": "event"
    },
    {
      "anonymous": false,
      "inputs": [
        {
          "indexed": true,
          "internalType": "address",
          "name": "owner",
          "type": "address"
        },
        {
          "indexed": true,
          "internalType": "address",
          "name": "approved",
          "type": "address"
        },
        {
          "indexed": true,
          "internalType": "uint256",
          "name": "tokenId",
          "type": "uint256"
        }
      ],
      "name": "Approval",
      "type": "event"
    },
    {
      "anonymous": false,
      "inputs": [
        {
          "indexed": true,
          "internalType": "address",
          "name": "owner",
          "type": "address"
        },
        {
          "indexed": true,
          "internalType": "address",
          "name": "operator",
          "type": "address"
        },
        {
          "indexed": false,
          "internalType": "bool",
          "name": "approved",
          "type": "bool"
        }
      ],
      "name": "ApprovalForAll",
      "type": "event"
    },
    {
      "anonymous": false,
      "inputs": [
        {
          "indexed": true,
          "internalType": "uint256",
          "name": "tokenId",
          "type": "uint256"
        },
        {
          "indexed": true,
          "internalType": "string",
          "name": "keyIndex",
          "type": "string"
        },
        {
          "indexed": false,
          "internalType": "string",
          "name": "key",
          "type": "string"
        }
      ],
      "name": "NewKey",
      "type": "event"
    },
    {
      "anonymous": false,
      "inputs": [
        {
          "indexed": true,
          "internalType": "uint256",
          "name": "tokenId",
          "type": "uint256"
        },
        {
          "indexed": false,
          "internalType": "string",
          "name": "uri",
          "type": "string"
        }
      ],
      "name": "NewURI",
      "type": "event"
    },
    {
      "anonymous": false,
      "inputs": [
        {
          "indexed": false,
          "internalType": "string",
          "name": "prefix",
          "type": "string"
        }
      ],
      "name": "NewURIPrefix",
      "type": "event"
    },
    {
      "anonymous": false,
      "inputs": [
        {
          "indexed": true,
          "internalType": "uint256",
          "name": "tokenId",
          "type": "uint256"
        }
      ],
      "name": "ResetRecords",
      "type": "event"
    },
    {
      "anonymous": false,
      "inputs": [
        {
          "indexed": true,
          "internalType": "uint256",
          "name": "tokenId",
          "type": "uint256"
        },
        {
          "indexed": true,
          "internalType": "string",
          "name": "keyIndex",
          "type": "string"
        },
        {
          "indexed": true,
          "internalType": "string",
          "name": "valueIndex",
          "type": "string"
        },
        {
          "indexed": false,
          "internalType": "string",
          "name": "key",
          "type": "string"
        },
        {
          "indexed": false,
          "internalType": "string",
          "name": "value",
          "type": "string"
        }
      ],
      "name": "Set",
      "type": "event"
    },
    {
      "anonymous": false,
      "inputs": [
        {
          "indexed": true,
          "internalType": "address",
          "name": "from",
          "type": "address"
        },
        {
          "indexed": true,
          "internalType": "address",
          "name": "to",
          "type": "address"
        },
        {
          "indexed": true,
          "internalType": "uint256",
          "name": "tokenId",
          "type": "uint256"
        }
      ],
      "name": "Transfer",
      "type": "event"
    },
    {
      "anonymous": false,
      "inputs": [
        {
          "indexed": true,
          "internalType": "address",
          "name": "implementation",
          "type": "address"
        }
      ],
      "name": "Upgraded",
      "type": "event"
    },
    {
      "anonymous": false,
      "inputs": [
        {
          "indexed": true,
          "internalType": "address",
          "name": "user",
          "type": "address"
        },
        {
          "indexed": false,
          "internalType": "uint256[]",
          "name": "tokenIds",
          "type": "uint256[]"
        }
      ],
      "name": "WithdrawnBatch",
      "type": "event"
    },
    {
      "inputs": [],
      "name": "BATCH_LIMIT",
      "outputs": [
        {
          "internalType": "uint256",
          "name": "",
          "type": "uint256"
        }
      ],
      "stateMutability": "view",
      "type": "function"
    },
    {
      "inputs": [],
      "name": "NAME",
      "outputs": [
        {
          "internalType": "string",
          "name": "",
          "type": "string"
        }
      ],
      "stateMutability": "view",
      "type": "function"
    },
    {
      "inputs": [],
      "name": "VERSION",
      "outputs": [
        {
          "internalType": "string",
          "name": "",
          "type": "string"
        }
      ],
      "stateMutability": "view",
      "type": "function"
    },
    {
      "inputs": [
        {
          "internalType": "string",
          "name": "key",
          "type": "string"
        }
      ],
      "name": "addKey",
      "outputs": [],
      "stateMutability": "nonpayable",
      "type": "function"
    },
    {
      "inputs": [
        {
          "internalType": "address",
          "name": "to",
          "type": "address"
        },
        {
          "internalType": "uint256",
          "name": "tokenId",
          "type": "uint256"
        }
      ],
      "name": "approve",
      "outputs": [],
      "stateMutability": "nonpayable",
      "type": "function"
    },
    {
      "inputs": [
        {
          "internalType": "address",
          "name": "owner",
          "type": "address"
        }
      ],
      "name": "balanceOf",
      "outputs": [
        {
          "internalType": "uint256",
          "name": "",
          "type": "uint256"
        }
      ],
      "stateMutability": "view",
      "type": "function"
    },
    {
      "inputs": [
        {
          "internalType": "uint256",
          "name": "tokenId",
          "type": "uint256"
        }
      ],
      "name": "burn",
      "outputs": [],
      "stateMutability": "nonpayable",
      "type": "function"
    },
    {
      "inputs": [
        {
          "internalType": "uint256",
          "name": "tokenId",
          "type": "uint256"
        },
        {
          "internalType": "string",
          "name": "label",
          "type": "string"
        }
      ],
      "name": "childIdOf",
      "outputs": [
        {
          "internalType": "uint256",
          "name": "",
          "type": "uint256"
        }
      ],
      "stateMutability": "pure",
      "type": "function"
    },
    {
      "inputs": [
        {
          "internalType": "address",
          "name": "user",
          "type": "address"
        },
        {
          "internalType": "bytes",
          "name": "depositData",
          "type": "bytes"
        }
      ],
      "name": "deposit",
      "outputs": [],
      "stateMutability": "nonpayable",
      "type": "function"
    },
    {
      "inputs": [
        {
          "internalType": "uint256",
          "name": "tokenId",
          "type": "uint256"
        }
      ],
      "name": "depositToPolygon",
      "outputs": [],
      "stateMutability": "nonpayable",
      "type": "function"
    },
    {
      "inputs": [
        {
          "components": [
            {
              "internalType": "address",
              "name": "from",
              "type": "address"
            },
            {
              "internalType": "uint256",
              "name": "nonce",
              "type": "uint256"
            },
            {
              "internalType": "uint256",
              "name": "tokenId",
              "type": "uint256"
            },
            {
              "internalType": "bytes",
              "name": "data",
              "type": "bytes"
            }
          ],
          "internalType": "struct IForwarder.ForwardRequest",
          "name": "req",
          "type": "tuple"
        },
        {
          "internalType": "bytes",
          "name": "signature",
          "type": "bytes"
        }
      ],
      "name": "execute",
      "outputs": [
        {
          "internalType": "bytes",
          "name": "",
          "type": "bytes"
        }
      ],
      "stateMutability": "nonpayable",
      "type": "function"
    },
    {
      "inputs": [
        {
          "internalType": "uint256",
          "name": "tokenId",
          "type": "uint256"
        }
      ],
      "name": "exists",
      "outputs": [
        {
          "internalType": "bool",
          "name": "",
          "type": "bool"
        }
      ],
      "stateMutability": "view",
      "type": "function"
    },
    {
      "inputs": [
        {
          "internalType": "string",
          "name": "key",
          "type": "string"
        },
        {
          "internalType": "uint256",
          "name": "tokenId",
          "type": "uint256"
        }
      ],
      "name": "get",
      "outputs": [
        {
          "internalType": "string",
          "name": "value",
          "type": "string"
        }
      ],
      "stateMutability": "view",
      "type": "function"
    },
    {
      "inputs": [
        {
          "internalType": "uint256",
          "name": "tokenId",
          "type": "uint256"
        }
      ],
      "name": "getApproved",
      "outputs": [
        {
          "internalType": "address",
          "name": "",
          "type": "address"
        }
      ],
      "stateMutability": "view",
      "type": "function"
    },
    {
      "inputs": [
        {
          "internalType": "uint256",
          "name": "keyHash",
          "type": "uint256"
        },
        {
          "internalType": "uint256",
          "name": "tokenId",
          "type": "uint256"
        }
      ],
      "name": "getByHash",
      "outputs": [
        {
          "internalType": "string",
          "name": "key",
          "type": "string"
        },
        {
          "internalType": "string",
          "name": "value",
          "type": "string"
        }
      ],
      "stateMutability": "view",
      "type": "function"
    },
    {
      "inputs": [
        {
          "internalType": "uint256",
          "name": "keyHash",
          "type": "uint256"
        }
      ],
      "name": "getKey",
      "outputs": [
        {
          "internalType": "string",
          "name": "",
          "type": "string"
        }
      ],
      "stateMutability": "view",
      "type": "function"
    },
    {
      "inputs": [
        {
          "internalType": "uint256[]",
          "name": "hashes",
          "type": "uint256[]"
        }
      ],
      "name": "getKeys",
      "outputs": [
        {
          "internalType": "string[]",
          "name": "values",
          "type": "string[]"
        }
      ],
      "stateMutability": "view",
      "type": "function"
    },
    {
      "inputs": [
        {
          "internalType": "string[]",
          "name": "keys",
          "type": "string[]"
        },
        {
          "internalType": "uint256",
          "name": "tokenId",
          "type": "uint256"
        }
      ],
      "name": "getMany",
      "outputs": [
        {
          "internalType": "string[]",
          "name": "values",
          "type": "string[]"
        }
      ],
      "stateMutability": "view",
      "type": "function"
    },
    {
      "inputs": [
        {
          "internalType": "uint256[]",
          "name": "keyHashes",
          "type": "uint256[]"
        },
        {
          "internalType": "uint256",
          "name": "tokenId",
          "type": "uint256"
        }
      ],
      "name": "getManyByHash",
      "outputs": [
        {
          "internalType": "string[]",
          "name": "keys",
          "type": "string[]"
        },
        {
          "internalType": "string[]",
          "name": "values",
          "type": "string[]"
        }
      ],
      "stateMutability": "view",
      "type": "function"
    },
    {
      "inputs": [
        {
          "internalType": "address",
          "name": "mintingManager",
          "type": "address"
        }
      ],
      "name": "initialize",
      "outputs": [],
      "stateMutability": "nonpayable",
      "type": "function"
    },
    {
      "inputs": [
        {
          "internalType": "address",
          "name": "owner",
          "type": "address"
        },
        {
          "internalType": "address",
          "name": "operator",
          "type": "address"
        }
      ],
      "name": "isApprovedForAll",
      "outputs": [
        {
          "internalType": "bool",
          "name": "",
          "type": "bool"
        }
      ],
      "stateMutability": "view",
      "type": "function"
    },
    {
      "inputs": [
        {
          "internalType": "address",
          "name": "spender",
          "type": "address"
        },
        {
          "internalType": "uint256",
          "name": "tokenId",
          "type": "uint256"
        }
      ],
      "name": "isApprovedOrOwner",
      "outputs": [
        {
          "internalType": "bool",
          "name": "",
          "type": "bool"
        }
      ],
      "stateMutability": "view",
      "type": "function"
    },
    {
      "inputs": [
        {
          "internalType": "address",
          "name": "forwarder",
          "type": "address"
        }
      ],
      "name": "isTrustedForwarder",
      "outputs": [
        {
          "internalType": "bool",
          "name": "",
          "type": "bool"
        }
      ],
      "stateMutability": "view",
      "type": "function"
    },
    {
      "inputs": [
        {
          "internalType": "address",
          "name": "user",
          "type": "address"
        },
        {
          "internalType": "uint256",
          "name": "tokenId",
          "type": "uint256"
        }
      ],
      "name": "mint",
      "outputs": [],
      "stateMutability": "nonpayable",
      "type": "function"
    },
    {
      "inputs": [
        {
          "internalType": "address",
          "name": "user",
          "type": "address"
        },
        {
          "internalType": "uint256",
          "name": "tokenId",
          "type": "uint256"
        },
        {
          "internalType": "bytes",
          "name": "",
          "type": "bytes"
        }
      ],
      "name": "mint",
      "outputs": [],
      "stateMutability": "nonpayable",
      "type": "function"
    },
    {
      "inputs": [
        {
          "internalType": "address",
          "name": "to",
          "type": "address"
        },
        {
          "internalType": "uint256",
          "name": "tokenId",
          "type": "uint256"
        },
        {
          "internalType": "string",
          "name": "uri",
          "type": "string"
        }
      ],
      "name": "mint",
      "outputs": [],
      "stateMutability": "nonpayable",
      "type": "function"
    },
    {
      "inputs": [
        {
          "internalType": "address",
          "name": "to",
          "type": "address"
        },
        {
          "internalType": "uint256",
          "name": "tokenId",
          "type": "uint256"
        },
        {
          "internalType": "string",
          "name": "uri",
          "type": "string"
        },
        {
          "internalType": "string[]",
          "name": "keys",
          "type": "string[]"
        },
        {
          "internalType": "string[]",
          "name": "values",
          "type": "string[]"
        }
      ],
      "name": "mintWithRecords",
      "outputs": [],
      "stateMutability": "nonpayable",
      "type": "function"
    },
    {
      "inputs": [],
      "name": "name",
      "outputs": [
        {
          "internalType": "string",
          "name": "",
          "type": "string"
        }
      ],
      "stateMutability": "view",
      "type": "function"
    },
    {
      "inputs": [
        {
          "internalType": "uint256",
          "name": "tokenId",
          "type": "uint256"
        }
      ],
      "name": "nonceOf",
      "outputs": [
        {
          "internalType": "uint256",
          "name": "",
          "type": "uint256"
        }
      ],
      "stateMutability": "view",
      "type": "function"
    },
    {
      "inputs": [
        {
          "internalType": "address",
          "name": "",
          "type": "address"
        },
        {
          "internalType": "address",
          "name": "from",
          "type": "address"
        },
        {
          "internalType": "uint256",
          "name": "tokenId",
          "type": "uint256"
        },
        {
          "internalType": "bytes",
          "name": "data",
          "type": "bytes"
        }
      ],
      "name": "onERC721Received",
      "outputs": [
        {
          "internalType": "bytes4",
          "name": "",
          "type": "bytes4"
        }
      ],
      "stateMutability": "nonpayable",
      "type": "function"
    },
    {
      "inputs": [
        {
          "internalType": "uint256",
          "name": "tokenId",
          "type": "uint256"
        }
      ],
      "name": "ownerOf",
      "outputs": [
        {
          "internalType": "address",
          "name": "",
          "type": "address"
        }
      ],
      "stateMutability": "view",
      "type": "function"
    },
    {
      "inputs": [
        {
          "internalType": "string[]",
          "name": "keys",
          "type": "string[]"
        },
        {
          "internalType": "string[]",
          "name": "values",
          "type": "string[]"
        },
        {
          "internalType": "uint256",
          "name": "tokenId",
          "type": "uint256"
        }
      ],
      "name": "reconfigure",
      "outputs": [],
      "stateMutability": "nonpayable",
      "type": "function"
    },
    {
      "inputs": [
        {
          "internalType": "uint256",
          "name": "tokenId",
          "type": "uint256"
        }
      ],
      "name": "reset",
      "outputs": [],
      "stateMutability": "nonpayable",
      "type": "function"
    },
    {
      "inputs": [
        {
          "internalType": "uint256",
          "name": "tokenId",
          "type": "uint256"
        }
      ],
      "name": "resolverOf",
      "outputs": [
        {
          "internalType": "address",
          "name": "",
          "type": "address"
        }
      ],
      "stateMutability": "view",
      "type": "function"
    },
    {
      "inputs": [],
      "name": "root",
      "outputs": [
        {
          "internalType": "uint256",
          "name": "",
          "type": "uint256"
        }
      ],
      "stateMutability": "pure",
      "type": "function"
    },
    {
      "inputs": [
        {
          "internalType": "address",
          "name": "to",
          "type": "address"
        },
        {
          "internalType": "uint256",
          "name": "tokenId",
          "type": "uint256"
        },
        {
          "internalType": "string",
          "name": "uri",
          "type": "string"
        },
        {
          "internalType": "bytes",
          "name": "data",
          "type": "bytes"
        }
      ],
      "name": "safeMint",
      "outputs": [],
      "stateMutability": "nonpayable",
      "type": "function"
    },
    {
      "inputs": [
        {
          "internalType": "address",
          "name": "to",
          "type": "address"
        },
        {
          "internalType": "uint256",
          "name": "tokenId",
          "type": "uint256"
        },
        {
          "internalType": "string",
          "name": "uri",
          "type": "string"
        }
      ],
      "name": "safeMint",
      "outputs": [],
      "stateMutability": "nonpayable",
      "type": "function"
    },
    {
      "inputs": [
        {
          "internalType": "address",
          "name": "to",
          "type": "address"
        },
        {
          "internalType": "uint256",
          "name": "tokenId",
          "type": "uint256"
        },
        {
          "internalType": "string",
          "name": "uri",
          "type": "string"
        },
        {
          "internalType": "string[]",
          "name": "keys",
          "type": "string[]"
        },
        {
          "internalType": "string[]",
          "name": "values",
          "type": "string[]"
        }
      ],
      "name": "safeMintWithRecords",
      "outputs": [],
      "stateMutability": "nonpayable",
      "type": "function"
    },
    {
      "inputs": [
        {
          "internalType": "address",
          "name": "to",
          "type": "address"
        },
        {
          "internalType": "uint256",
          "name": "tokenId",
          "type": "uint256"
        },
        {
          "internalType": "string",
          "name": "uri",
          "type": "string"
        },
        {
          "internalType": "string[]",
          "name": "keys",
          "type": "string[]"
        },
        {
          "internalType": "string[]",
          "name": "values",
          "type": "string[]"
        },
        {
          "internalType": "bytes",
          "name": "data",
          "type": "bytes"
        }
      ],
      "name": "safeMintWithRecords",
      "outputs": [],
      "stateMutability": "nonpayable",
      "type": "function"
    },
    {
      "inputs": [
        {
          "internalType": "address",
          "name": "from",
          "type": "address"
        },
        {
          "internalType": "address",
          "name": "to",
          "type": "address"
        },
        {
          "internalType": "uint256",
          "name": "tokenId",
          "type": "uint256"
        }
      ],
      "name": "safeTransferFrom",
      "outputs": [],
      "stateMutability": "nonpayable",
      "type": "function"
    },
    {
      "inputs": [
        {
          "internalType": "address",
          "name": "from",
          "type": "address"
        },
        {
          "internalType": "address",
          "name": "to",
          "type": "address"
        },
        {
          "internalType": "uint256",
          "name": "tokenId",
          "type": "uint256"
        },
        {
          "internalType": "bytes",
          "name": "data",
          "type": "bytes"
        }
      ],
      "name": "safeTransferFrom",
      "outputs": [],
      "stateMutability": "nonpayable",
      "type": "function"
    },
    {
      "inputs": [
        {
          "internalType": "string",
          "name": "key",
          "type": "string"
        },
        {
          "internalType": "string",
          "name": "value",
          "type": "string"
        },
        {
          "internalType": "uint256",
          "name": "tokenId",
          "type": "uint256"
        }
      ],
      "name": "set",
      "outputs": [],
      "stateMutability": "nonpayable",
      "type": "function"
    },
    {
      "inputs": [
        {
          "internalType": "address",
          "name": "operator",
          "type": "address"
        },
        {
          "internalType": "bool",
          "name": "approved",
          "type": "bool"
        }
      ],
      "name": "setApprovalForAll",
      "outputs": [],
      "stateMutability": "nonpayable",
      "type": "function"
    },
    {
      "inputs": [
        {
          "internalType": "uint256",
          "name": "keyHash",
          "type": "uint256"
        },
        {
          "internalType": "string",
          "name": "value",
          "type": "string"
        },
        {
          "internalType": "uint256",
          "name": "tokenId",
          "type": "uint256"
        }
      ],
      "name": "setByHash",
      "outputs": [],
      "stateMutability": "nonpayable",
      "type": "function"
    },
    {
      "inputs": [
        {
          "internalType": "address",
          "name": "registry",
          "type": "address"
        }
      ],
      "name": "setCNSRegistry",
      "outputs": [],
      "stateMutability": "nonpayable",
      "type": "function"
    },
    {
      "inputs": [
        {
          "internalType": "address",
          "name": "clientChainManager",
          "type": "address"
        }
      ],
      "name": "setChildChainManager",
      "outputs": [],
      "stateMutability": "nonpayable",
      "type": "function"
    },
    {
      "inputs": [
        {
          "internalType": "string[]",
          "name": "keys",
          "type": "string[]"
        },
        {
          "internalType": "string[]",
          "name": "values",
          "type": "string[]"
        },
        {
          "internalType": "uint256",
          "name": "tokenId",
          "type": "uint256"
        }
      ],
      "name": "setMany",
      "outputs": [],
      "stateMutability": "nonpayable",
      "type": "function"
    },
    {
      "inputs": [
        {
          "internalType": "uint256[]",
          "name": "keyHashes",
          "type": "uint256[]"
        },
        {
          "internalType": "string[]",
          "name": "values",
          "type": "string[]"
        },
        {
          "internalType": "uint256",
          "name": "tokenId",
          "type": "uint256"
        }
      ],
      "name": "setManyByHash",
      "outputs": [],
      "stateMutability": "nonpayable",
      "type": "function"
    },
    {
      "inputs": [
        {
          "internalType": "address",
          "name": "to",
          "type": "address"
        },
        {
          "internalType": "uint256",
          "name": "tokenId",
          "type": "uint256"
        }
      ],
      "name": "setOwner",
      "outputs": [],
      "stateMutability": "nonpayable",
      "type": "function"
    },
    {
      "inputs": [
        {
          "internalType": "address",
          "name": "rootChainManager",
          "type": "address"
        }
      ],
      "name": "setRootChainManager",
      "outputs": [],
      "stateMutability": "nonpayable",
      "type": "function"
    },
    {
      "inputs": [
        {
          "internalType": "string",
          "name": "prefix",
          "type": "string"
        }
      ],
      "name": "setTokenURIPrefix",
      "outputs": [],
      "stateMutability": "nonpayable",
      "type": "function"
    },
    {
      "inputs": [
        {
          "internalType": "bytes4",
          "name": "interfaceId",
          "type": "bytes4"
        }
      ],
      "name": "supportsInterface",
      "outputs": [
        {
          "internalType": "bool",
          "name": "",
          "type": "bool"
        }
      ],
      "stateMutability": "view",
      "type": "function"
    },
    {
      "inputs": [],
      "name": "symbol",
      "outputs": [
        {
          "internalType": "string",
          "name": "",
          "type": "string"
        }
      ],
      "stateMutability": "view",
      "type": "function"
    },
    {
      "inputs": [
        {
          "internalType": "uint256",
          "name": "tokenId",
          "type": "uint256"
        }
      ],
      "name": "tokenURI",
      "outputs": [
        {
          "internalType": "string",
          "name": "",
          "type": "string"
        }
      ],
      "stateMutability": "view",
      "type": "function"
    },
    {
      "inputs": [
        {
          "internalType": "address",
          "name": "from",
          "type": "address"
        },
        {
          "internalType": "address",
          "name": "to",
          "type": "address"
        },
        {
          "internalType": "uint256",
          "name": "tokenId",
          "type": "uint256"
        }
      ],
      "name": "transferFrom",
      "outputs": [],
      "stateMutability": "nonpayable",
      "type": "function"
    },
    {
      "inputs": [
        {
          "components": [
            {
              "internalType": "address",
              "name": "from",
              "type": "address"
            },
            {
              "internalType": "uint256",
              "name": "nonce",
              "type": "uint256"
            },
            {
              "internalType": "uint256",
              "name": "tokenId",
              "type": "uint256"
            },
            {
              "internalType": "bytes",
              "name": "data",
              "type": "bytes"
            }
          ],
          "internalType": "struct IForwarder.ForwardRequest",
          "name": "req",
          "type": "tuple"
        },
        {
          "internalType": "bytes",
          "name": "signature",
          "type": "bytes"
        }
      ],
      "name": "verify",
      "outputs": [
        {
          "internalType": "bool",
          "name": "",
          "type": "bool"
        }
      ],
      "stateMutability": "view",
      "type": "function"
    },
    {
      "inputs": [
        {
          "internalType": "uint256",
          "name": "tokenId",
          "type": "uint256"
        }
      ],
      "name": "withdraw",
      "outputs": [],
      "stateMutability": "nonpayable",
      "type": "function"
    },
    {
      "inputs": [
        {
          "internalType": "uint256[]",
          "name": "tokenIds",
          "type": "uint256[]"
        }
      ],
      "name": "withdrawBatch",
      "outputs": [],
      "stateMutability": "nonpayable",
      "type": "function"
    },
    {
      "inputs": [
        {
          "internalType": "bytes",
          "name": "inputData",
          "type": "bytes"
        },
        {
          "internalType": "uint256",
          "name": "tokenId",
          "type": "uint256"
        },
        {
          "internalType": "string[]",
          "name": "keys",
          "type": "string[]"
        },
        {
          "internalType": "string[]",
          "name": "values",
          "type": "string[]"
        }
      ],
      "name": "withdrawFromPolygon",
      "outputs": [],
      "stateMutability": "nonpayable",
      "type": "function"
    },
    {
      "inputs": [
        {
          "internalType": "uint256",
          "name": "tokenId",
          "type": "uint256"
        }
      ],
      "name": "withdrawWithMetadata",
      "outputs": [],
      "stateMutability": "nonpayable",
      "type": "function"
    }
  ],
  "bytecode": "0x608060405234801561001057600080fd5b506151ac806100206000396000f3fe608060405234801561001057600080fd5b50600436106103a45760003560e01c80637f139a00116101e9578063b85afd281161010f578063cf2c52cb116100ad578063ec129eea1161007c578063ec129eea146107fc578063efda4d3e1461080f578063f5c1f76e14610822578063ffa1ad7414610835576103a4565b8063cf2c52cb146107bb578063d3fc9864146107ce578063e985e9c5146107e1578063ebf0c717146107f4576103a4565b8063c4d66de8116100e9578063c4d66de81461076f578063c87b56dd14610782578063cd279c7c14610795578063ce92b33e146107a8576103a4565b8063b85afd2814610728578063b88d4fde14610749578063bb5b27e11461075c576103a4565b8063a22cb46511610187578063ab3b87fe11610156578063ab3b87fe146106dc578063b0f59177146106ef578063b3f9e4cb14610702578063b55bc61714610715576103a4565b8063a22cb465146106ae578063a3f4df7e146106c1578063a4247400146106c9578063a5e584dc146104a8576103a4565b80639559c0bd116101c35780639559c0bd1461067857806395d89b411461068057806399e0dd7c146106885780639c8d41561461069b576103a4565b80637f139a001461063f57806394d008ef146106525780639508b1c414610665576103a4565b8063430c2081116102ce5780636352211e1161026c5780636ccbae5f1161023b5780636ccbae5f146105f357806370a0823114610606578063728a44d814610619578063764a81bb1461062c576103a4565b80636352211e1461058c578063638e5c781461059f578063672b9f81146105b257806368b62d32146105d3576103a4565b80634a72584d116102a85780634a72584d146105405780634f558e791461055357806350382c1a14610566578063572b6c0514610579576103a4565b8063430c2081146105075780634348b5621461051a57806347c816991461052d576103a4565b80631bf7e13e11610346578063310bd74b11610315578063310bd74b146104bb57806340c10f19146104ce57806342842e0e146104e157806342966c68146104f4576103a4565b80631bf7e13e1461046f57806323b872dd1461048257806327f18975146104955780632e1a7d4d146104a8576103a4565b8063095ea7b311610382578063095ea7b314610407578063150b7a021461041c5780631bd8cc1a1461043c5780631be5e7ed1461045c576103a4565b806301ffc9a7146103a957806306fdde03146103d2578063081812fc146103e7575b600080fd5b6103bc6103b73660046140bb565b61083d565b6040516103c9919061467e565b60405180910390f35b6103da610850565b6040516103c991906146d0565b6103fa6103f53660046142fc565b6108e3565b6040516103c99190614599565b61041a610415366004613c53565b61092f565b005b61042f61042a366004613afd565b610981565b6040516103c991906146a7565b61044f61044a366004613f5b565b610a9f565b6040516103c9919061460c565b6103da61046a366004614223565b610bbf565b6103da61047d36600461429d565b610c0a565b61041a610490366004613abd565b610cd5565b61041a6104a3366004613eeb565b610d61565b61041a6104b63660046142fc565b610de2565b61041a6104c93660046142fc565b610e2e565b61041a6104dc366004613c53565b610ea2565b61041a6104ef366004613abd565b610eef565b61041a6105023660046142fc565b610f0a565b6103bc610515366004613c53565b610f87565b61041a610528366004613cd7565b610f93565b61041a61053b3660046141c5565b610ff8565b61041a61054e366004614344565b611070565b6103bc6105613660046142fc565b6110ef565b61041a610574366004614258565b6110fa565b6103bc610587366004613a4d565b61112d565b6103fa61059a3660046142fc565b61113e565b61041a6105ad3660046142fc565b611173565b6105c56105c0366004614394565b6111be565b6040516103c99291906146e3565b6105e66105e1366004614314565b6111d6565b6040516103c99190614582565b6105e66106013660046142fc565b611218565b6105e6610614366004613a4d565b61122b565b61041a610627366004613a4d565b61126f565b61041a61063a366004613a4d565b6112e8565b61041a61064d366004613a4d565b611364565b61041a610660366004613c7e565b6113e0565b61041a6106733660046140f3565b61142f565b6105e6611486565b6103da61148b565b61041a610696366004614192565b61149a565b61041a6106a9366004613fa4565b611520565b61041a6106bc366004613bd6565b611647565b6103da611715565b6103bc6106d736600461429d565b61173e565b61041a6106ea366004613c53565b611789565b61041a6106fd366004613cd7565b611807565b6103fa6107103660046142fc565b611890565b61041a610723366004613e63565b6118ad565b61073b610736366004613f5b565b61195d565b6040516103c992919061461f565b61041a610757366004613b6d565b611ac5565b6103da61076a3660046142fc565b611b45565b61041a61077d366004613a4d565b611be7565b6103da6107903660046142fc565b611cd4565b61041a6107a3366004613c7e565b611d56565b61041a6107b6366004613eeb565b611de0565b61041a6107c9366004613c01565b611e58565b61041a6107dc366004613c7e565b611f43565b6103bc6107ef366004613a85565b611fbf565b6105e6611fed565b61041a61080a366004613eeb565b611ff2565b61041a61081d366004613d88565b61206a565b61044f610830366004613fa4565b6120f8565b6103da6121d5565b6000610848826121f6565b90505b919050565b60606065805461085f906150a8565b80601f016020809104026020016040519081016040528092919081815260200182805461088b906150a8565b80156108d85780601f106108ad576101008083540402835291602001916108d8565b820191906000526020600020905b8154815290600101906020018083116108bb57829003601f168201915b505050505090505b90565b60006108ee82612236565b6109135760405162461bcd60e51b815260040161090a90614c6e565b60405180910390fd5b506000908152606960205260409020546001600160a01b031690565b806109393361112d565b1561096957610946612253565b81146109645760405162461bcd60e51b815260040161090a90614a4d565b610972565b6109728161226d565b61097c838361229b565b505050565b60006109ac7f8ffb960699dc2ba88f34d0e41c029c3c36c95149679fe1d0153a9582bec923786108e0565b546001600160a01b03166109be61232e565b6001600160a01b03161415610a7e576109d561232e565b6001600160a01b03166342966c68856040518263ffffffff1660e01b8152600401610a009190614582565b600060405180830381600087803b158015610a1a57600080fd5b505af1158015610a2e573d6000803e3d6000fd5b505050821580159150610a485750610a4882840184614089565b15610a6657610a57308561233d565b610a61858561241c565b610a70565b610a70858561233d565b50630a85bd0160e11b610a96565b60405162461bcd60e51b815260040161090a90614e8e565b95945050505050565b6060826001600160401b03811115610ac757634e487b7160e01b600052604160045260246000fd5b604051908082528060200260200182016040528015610afa57816020015b6060815260200190600190039081610ae55790505b50905060005b83811015610bb757610b79858583818110610b2b57634e487b7160e01b600052603260045260246000fd5b9050602002810190610b3d9190614f44565b8080601f0160208091040260200160405190810160405280939291908181526020018383808284376000920191909152508792506124d1915050565b828281518110610b9957634e487b7160e01b600052603260045260246000fd5b60200260200101819052508080610baf906150e3565b915050610b00565b509392505050565b6060610c0284848080601f0160208091040260200160405190810160405280939291908181526020018383808284376000920191909152508692506124d1915050565b949350505050565b606060005a9050610c1c85858561173e565b610c385760405162461bcd60e51b815260040161090a90614d98565b610cca610c486020870187613a4d565b30604088013584610c5c60608b018b614f44565b8080601f01602080910402602001604051908101604052809392919081815260200183838082843760009201919091525050604080516020601f8e018190048102820181019092528c815292508c91508b908190840183828082843760009201919091525061250692505050565b9150505b9392505050565b80610ce7610ce161232e565b826125f5565b610d035760405162461bcd60e51b815260040161090a906147ad565b81610d0d3361112d565b15610d3d57610d1a612253565b8114610d385760405162461bcd60e51b815260040161090a90614a4d565b610d46565b610d468161226d565b610d4f83612672565b610d5a8585856126dd565b5050505050565b80610d6d610ce161232e565b610d895760405162461bcd60e51b815260040161090a906147ad565b81610d933361112d565b15610dc357610da0612253565b8114610dbe5760405162461bcd60e51b815260040161090a90614a4d565b610dcc565b610dcc8161226d565b610dd9878787878761280a565b50505050505050565b610deb8161113e565b6001600160a01b0316610dfc61232e565b6001600160a01b031614610e225760405162461bcd60e51b815260040161090a90614ddf565b610e2b81612889565b50565b80610e3a610ce161232e565b610e565760405162461bcd60e51b815260040161090a906147ad565b81610e603361112d565b15610e9057610e6d612253565b8114610e8b5760405162461bcd60e51b815260040161090a90614a4d565b610e99565b610e998161226d565b61097c83612672565b610eaa612930565b6001600160a01b0316610ebb61232e565b6001600160a01b031614610ee15760405162461bcd60e51b815260040161090a90614ed3565b610eeb828261233d565b5050565b61097c83838360405180602001604052806000815250611ac5565b80610f16610ce161232e565b610f325760405162461bcd60e51b815260040161090a906147ad565b81610f3c3361112d565b15610f6c57610f49612253565b8114610f675760405162461bcd60e51b815260040161090a90614a4d565b610f75565b610f758161226d565b610f7e83612672565b61097c83612889565b6000610cce83836125f5565b610134546001600160a01b0316610fa861232e565b6001600160a01b031614610fce5760405162461bcd60e51b815260040161090a906149ba565b610fee888888888888888860405180602001604052806000815250612a54565b5050505050505050565b80611004610ce161232e565b6110205760405162461bcd60e51b815260040161090a906147ad565b8161102a3361112d565b1561105a57611037612253565b81146110555760405162461bcd60e51b815260040161090a90614a4d565b611063565b6110638161226d565b610dd98787878787612aaf565b8061107c610ce161232e565b6110985760405162461bcd60e51b815260040161090a906147ad565b816110a23361112d565b156110d2576110af612253565b81146110cd5760405162461bcd60e51b815260040161090a90614a4d565b6110db565b6110db8161226d565b6110e786868686612b8e565b505050505050565b600061084882612236565b610e2b8160405160200161110e9190614486565b6040516020818303038152906040528051906020012060001c82612bfe565b6001600160a01b0381163014919050565b6000818152606760205260408120546001600160a01b0316806108485760405162461bcd60e51b815260040161090a90614b2b565b8061117f610ce161232e565b61119b5760405162461bcd60e51b815260040161090a906147ad565b6111ad6111a661232e565b30846126dd565b610eeb6111b861232e565b8361241c565b6060806111cb8484612c2a565b909590945092505050565b6000610c028484848080601f016020809104026020016040519081016040528093929190818152602001838380828437600092019190915250612c4b92505050565b6000908152610100602052604090205490565b60006001600160a01b0382166112535760405162461bcd60e51b815260040161090a90614ae1565b506001600160a01b031660009081526068602052604090205490565b60006112886000805160206151808339815191526108e0565b546001600160a01b0316146112af5760405162461bcd60e51b815260040161090a90614cba565b806112c76000805160206151808339815191526108e0565b80546001600160a01b0319166001600160a01b039290921691909117905550565b60006113137f8bea9a6f8afd34f4e29c585f854e0cc5161431bf5fc299d468454d33dce53b876108e0565b546001600160a01b03161461133a5760405162461bcd60e51b815260040161090a906148b6565b806112c77f8bea9a6f8afd34f4e29c585f854e0cc5161431bf5fc299d468454d33dce53b876108e0565b600061138f7f8ffb960699dc2ba88f34d0e41c029c3c36c95149679fe1d0153a9582bec923786108e0565b546001600160a01b0316146113b65760405162461bcd60e51b815260040161090a90614c04565b806112c77f8ffb960699dc2ba88f34d0e41c029c3c36c95149679fe1d0153a9582bec923786108e0565b6113e8612930565b6001600160a01b03166113f961232e565b6001600160a01b03161461141f5760405162461bcd60e51b815260040161090a90614ed3565b611429848461233d565b50505050565b6114398787612cc7565b61144161232e565b6001600160a01b03166114538661113e565b6001600160a01b0316146114795760405162461bcd60e51b815260040161090a9061473f565b610dd98484848489612d41565b601481565b60606066805461085f906150a8565b610134546001600160a01b03166114af61232e565b6001600160a01b0316146114d55760405162461bcd60e51b815260040161090a906149ba565b6114e2610133838361382c565b507f4b120d6a959a84a520fa48f5f937cca0e79129423487af7901213b5d2e89313b82826040516115149291906146bc565b60405180910390a15050565b8060148111156115425760405162461bcd60e51b815260040161090a90614e57565b60005b818110156115f757600084848381811061156f57634e487b7160e01b600052603260045260246000fd5b9050602002013590506115818161113e565b6001600160a01b031661159261232e565b6001600160a01b031614816040516020016115ad9190614520565b604051602081830303815290604052906115da5760405162461bcd60e51b815260040161090a91906146d0565b506115e481612889565b50806115ef816150e3565b915050611545565b5061160061232e565b6001600160a01b03167ff871896b17e9cb7a64941c62c188a4f5c621b86800e3d15452ece01ce56073df848460405161163a929190614644565b60405180910390a2505050565b61164f61232e565b6001600160a01b0316826001600160a01b031614156116805760405162461bcd60e51b815260040161090a90614941565b80606a600061168d61232e565b6001600160a01b03908116825260208083019390935260409182016000908120918716808252919093529120805460ff1916921515929092179091556116d161232e565b6001600160a01b03167f17307eab39ab6107e8899845ad3d59bd9653f200f220920489ca2b5937696c3183604051611709919061467e565b60405180910390a35050565b6040518060400160405280600d81526020016c554e533a20526567697374727960981b81525081565b6000610c0261174c85614ff4565b3085858080601f016020809104026020016040519081016040528093929190818152602001838380828437600092019190915250612dcb92505050565b80611795610ce161232e565b6117b15760405162461bcd60e51b815260040161090a906147ad565b816117bb3361112d565b156117eb576117c8612253565b81146117e65760405162461bcd60e51b815260040161090a90614a4d565b6117f4565b6117f48161226d565b6114296118008461113e565b85856126dd565b610134546001600160a01b031661181c61232e565b6001600160a01b0316146118425760405162461bcd60e51b815260040161090a906149ba565b611883888888888080601f016020809104026020016040519081016040528093929190818152602001838380828437600092019190915250612e8d92505050565b610fee848484848b612d41565b600061189b82612236565b6118a6576000610848565b5030919050565b610134546001600160a01b03166118c261232e565b6001600160a01b0316146118e85760405162461bcd60e51b815260040161090a906149ba565b6110e7868686868080601f01602080910402602001604051908101604052809392919081815260200183838082843760009201919091525050604080516020601f8a018190048102820181019092528881529250889150879081908401838280828437600092019190915250612ec792505050565b606080836001600160401b0381111561198657634e487b7160e01b600052604160045260246000fd5b6040519080825280602002602001820160405280156119b957816020015b60608152602001906001900390816119a45790505b509150836001600160401b038111156119e257634e487b7160e01b600052604160045260246000fd5b604051908082528060200260200182016040528015611a1557816020015b6060815260200190600190039081611a005790505b50905060005b84811015611abc57611a53868683818110611a4657634e487b7160e01b600052603260045260246000fd5b9050602002013585612c2a565b848381518110611a7357634e487b7160e01b600052603260045260246000fd5b60200260200101848481518110611a9a57634e487b7160e01b600052603260045260246000fd5b6020026020010182905282905250508080611ab4906150e3565b915050611a1b565b50935093915050565b81611ad1610ce161232e565b611aed5760405162461bcd60e51b815260040161090a906147ad565b82611af73361112d565b15611b2757611b04612253565b8114611b225760405162461bcd60e51b815260040161090a90614a4d565b611b30565b611b308161226d565b611b3984612672565b6110e786868686612f10565b600081815260c960205260409020805460609190611b62906150a8565b80601f0160208091040260200160405190810160405280929190818152602001828054611b8e906150a8565b8015611bdb5780601f10611bb057610100808354040283529160200191611bdb565b820191906000526020600020905b815481529060010190602001808311611bbe57829003601f168201915b50505050509050919050565b600054610100900460ff1680611c00575060005460ff16155b611c1c5760405162461bcd60e51b815260040161090a90614b74565b600054610100900460ff16158015611c47576000805460ff1961ff0019909116610100171660011790555b61013480546001600160a01b0319166001600160a01b0384161790556040805180820182526013815272556e73746f707061626c6520446f6d61696e7360681b60208083019190915282518084019093526002835261155160f21b90830152611caf91612f43565b611cb7612fe1565b611cbf612fe1565b8015610eeb576000805461ff00191690555050565b6060611cdf82612236565b611cfb5760405162461bcd60e51b815260040161090a90614d49565b6000611d05613055565b90506000815111611d255760405180602001604052806000815250610cce565b80611d2f84613065565b604051602001611d409291906144f1565b6040516020818303038152906040529392505050565b610134546001600160a01b0316611d6b61232e565b6001600160a01b031614611d915760405162461bcd60e51b815260040161090a906149ba565b611429848484848080601f016020809104026020016040519081016040528093929190818152602001838380828437600092018290525060408051602081019091529081529250612ec7915050565b80611dec610ce161232e565b611e085760405162461bcd60e51b815260040161090a906147ad565b81611e123361112d565b15611e4257611e1f612253565b8114611e3d5760405162461bcd60e51b815260040161090a90614a4d565b611e4b565b611e4b8161226d565b610dd98787878787612d41565b611e817f8bea9a6f8afd34f4e29c585f854e0cc5161431bf5fc299d468454d33dce53b876108e0565b546001600160a01b0316611e9361232e565b6001600160a01b031614611eb95760405162461bcd60e51b815260040161090a90614ed3565b6020811415611ee2576000611ed0828401846142fc565b9050611edc848261233d565b5061097c565b6000611ef082840184613fe3565b805190915060005b818110156110e757611f3186848381518110611f2457634e487b7160e01b600052603260045260246000fd5b602002602001015161233d565b80611f3b816150e3565b915050611ef8565b610134546001600160a01b0316611f5861232e565b6001600160a01b031614611f7e5760405162461bcd60e51b815260040161090a906149ba565b611429848484848080601f016020809104026020016040519081016040528093929190818152602001838380828437600092019190915250612e8d92505050565b6001600160a01b039182166000908152606a6020908152604080832093909416825291909152205460ff1690565b600090565b80611ffe610ce161232e565b61201a5760405162461bcd60e51b815260040161090a906147ad565b816120243361112d565b1561205457612031612253565b811461204f5760405162461bcd60e51b815260040161090a90614a4d565b61205d565b61205d8161226d565b610dd9878787878761317f565b610134546001600160a01b031661207f61232e565b6001600160a01b0316146120a55760405162461bcd60e51b815260040161090a906149ba565b6120ec8a8a8a8a8a8a8a8a8a8a8080601f016020809104026020016040519081016040528093929190818152602001838380828437600092019190915250612a5492505050565b50505050505050505050565b6060816001600160401b0381111561212057634e487b7160e01b600052604160045260246000fd5b60405190808252806020026020018201604052801561215357816020015b606081526020019060019003908161213e5790505b50905060005b828110156121ce5761219084848381811061218457634e487b7160e01b600052603260045260246000fd5b90506020020135611b45565b8282815181106121b057634e487b7160e01b600052603260045260246000fd5b602002602001018190525080806121c6906150e3565b915050612159565b5092915050565b604051806040016040528060058152602001640302e332e360dc1b81525081565b60006001600160e01b031982166380ac58cd60e01b148061222757506001600160e01b03198216635b5e139f60e01b145b80610848575061084882613195565b6000908152606760205260409020546001600160a01b0316151590565b600061225e3361112d565b156108e05750601f1936013590565b60008181526101006020526040902054612288906001614fb1565b6000918252610100602052604090912055565b60006122a68261113e565b9050806001600160a01b0316836001600160a01b031614156122da5760405162461bcd60e51b815260040161090a90614e16565b806001600160a01b03166122ec61232e565b6001600160a01b031614806123085750612308816107ef61232e565b6123245760405162461bcd60e51b815260040161090a90614a84565b61097c83836131ae565b600061233861321c565b905090565b6001600160a01b0382166123635760405162461bcd60e51b815260040161090a90614c39565b61236c81612236565b156123895760405162461bcd60e51b815260040161090a9061487f565b6123956000838361097c565b6001600160a01b03821660009081526068602052604081208054600192906123be908490614fb1565b909155505060008181526067602052604080822080546001600160a01b0319166001600160a01b03861690811790915590518392907fddf252ad1be2c89b69c2b068fc378daa952ba7f163c4a11628f55a4df523b3ef908290a45050565b6000612426612930565b905061243281836131ae565b600061244b6000805160206151808339815191526108e0565b546040516001600160a01b039091169150819063e3dec8fb9086903090612476908890602001614582565b6040516020818303038152906040526040518463ffffffff1660e01b81526004016124a3939291906145ad565b600060405180830381600087803b1580156124bd57600080fd5b505af1158015610fee573d6000803e3d6000fd5b6060610cce836040516020016124e79190614486565b6040516020818303038152906040528051906020012060001c8361324a565b60606125118561226d565b600080876001600160a01b03168661252b8b8a8989613309565b6040516125389190614486565b60006040518083038160008787f1925050503d8060008114612576576040519150601f19603f3d011682016040523d82523d6000602084013e61257b565b606091505b50909250905061258c603f87614fc9565b5a116125a857634e487b7160e01b600052600160045260246000fd5b6125e882826040518060400160405280601a81526020017f42617365466f727761726465723a2043414c4c5f4641494c4544000000000000815250613339565b9998505050505050505050565b600061260082612236565b61261c5760405162461bcd60e51b815260040161090a90614a01565b60006126278361113e565b9050806001600160a01b0316846001600160a01b031614806126625750836001600160a01b0316612657846108e3565b6001600160a01b0316145b80610c025750610c028185611fbf565b61267b81613372565b60405160200161268b9190614582565b60408051601f198184030181528282528051602091820120600085815260cb9092529181209190915582917f185c30856dadb58bf097c1f665a52ada7029752dbcad008ea3fefc73bee8c9fe9190a250565b826001600160a01b03166126f08261113e565b6001600160a01b0316146127165760405162461bcd60e51b815260040161090a90614d00565b6001600160a01b03821661273c5760405162461bcd60e51b815260040161090a906148fd565b61274783838361097c565b6127526000826131ae565b6001600160a01b038316600090815260686020526040812080546001929061277b908490614fdd565b90915550506001600160a01b03821660009081526068602052604081208054600192906127a9908490614fb1565b909155505060008181526067602052604080822080546001600160a01b0319166001600160a01b0386811691821790925591518493918716917fddf252ad1be2c89b69c2b068fc378daa952ba7f163c4a11628f55a4df523b3ef91a4505050565b60005b848110156110e75761287786868381811061283857634e487b7160e01b600052603260045260246000fd5b9050602002013585858481811061285f57634e487b7160e01b600052603260045260246000fd5b90506020028101906128719190614f44565b85612b8e565b80612881816150e3565b91505061280d565b60006128948261113e565b90506128a28160008461097c565b6128ad6000836131ae565b6001600160a01b03811660009081526068602052604081208054600192906128d6908490614fdd565b909155505060008281526067602052604080822080546001600160a01b0319169055518391906001600160a01b038416907fddf252ad1be2c89b69c2b068fc378daa952ba7f163c4a11628f55a4df523b3ef908390a45050565b60008061294a6000805160206151808339815191526108e0565b5460405163721804d360e11b81526001600160a01b039091169150600090829063e43009a69061297e903090600401614599565b60206040518083038186803b15801561299657600080fd5b505afa1580156129aa573d6000803e3d6000fd5b505050506040513d601f19601f820116820180604052508101906129ce91906140a3565b60405163e66f960360e01b81529091506001600160a01b0383169063e66f9603906129fd908490600401614582565b60206040518083038186803b158015612a1557600080fd5b505afa158015612a29573d6000803e3d6000fd5b505050506040513d601f19601f82011682018060405250810190612a4d9190613a69565b9250505090565b612a97898989898080601f016020809104026020016040519081016040528093929190818152602001838380828437600092019190915250879250612ec7915050565b612aa4858585858c612d41565b505050505050505050565b60008585604051602001612ac49291906144e1565b60408051601f198184030181528282528051602091820120601f8901829004820284018201909252878352909250612b189183918990899081908401838280828437600092019190915250612bfe92505050565b6110e78187878080601f01602080910402602001604051908101604052809392919081815260200183838082843760009201919091525050604080516020601f8b01819004810282018101909252898152925089915088908190840183828082843760009201919091525088925061339e915050565b612b97846134d9565b612bb35760405162461bcd60e51b815260040161090a90614848565b61142984612bc086611b45565b85858080601f01602080910402602001604051908101604052809392919081815260200183838082843760009201919091525087925061339e915050565b612c07826134d9565b610eeb57600082815260c960209081526040909120825161097c928401906138ac565b606080612c3684611b45565b9150612c42848461324a565b90509250929050565b6000815160001415612c6f5760405162461bcd60e51b815260040161090a90614f15565b8282604051602001612c819190614486565b60405160208183030381529060405280519060200120604051602001612ca892919061458b565b60408051601f1981840301815291905280516020909101209392505050565b6000612ce06000805160206151808339815191526108e0565b54604051633805550f60e01b81526001600160a01b0390911691508190633805550f90612d1390869086906004016146bc565b600060405180830381600087803b158015612d2d57600080fd5b505af1158015610dd9573d6000803e3d6000fd5b60005b848110156110e757612db9868683818110612d6f57634e487b7160e01b600052603260045260246000fd5b9050602002810190612d819190614f44565b868685818110612da157634e487b7160e01b600052603260045260246000fd5b9050602002810190612db39190614f44565b86612aaf565b80612dc3816150e3565b915050612d44565b6040808401519051636ccbae5f60e01b815260009182913091636ccbae5f91612df79190600401614582565b60206040518083038186803b158015612e0f57600080fd5b505afa158015612e23573d6000803e3d6000fd5b505050506040513d601f19601f82011682018060405250810190612e4791906140a3565b90506000612e628660600151805190602001208684876134ff565b9050856020015182148015612e83575085516001600160a01b038281169116145b9695505050505050565b612e97838361233d565b817fc5beef08f693b11c316c0c8394a377a0033c9cf701b8cd8afd79cecef60c39528260405161163a91906146d0565b612ed284848361353e565b827fc5beef08f693b11c316c0c8394a377a0033c9cf701b8cd8afd79cecef60c395283604051612f0291906146d0565b60405180910390a250505050565b612f1b8484846126dd565b612f2784848484613571565b6114295760405162461bcd60e51b815260040161090a906147f6565b600054610100900460ff1680612f5c575060005460ff16155b612f785760405162461bcd60e51b815260040161090a90614b74565b600054610100900460ff16158015612fa3576000805460ff1961ff0019909116610100171660011790555b8251612fb69060659060208601906138ac565b508151612fca9060669060208501906138ac565b50801561097c576000805461ff0019169055505050565b600054610100900460ff1680612ffa575060005460ff16155b6130165760405162461bcd60e51b815260040161090a90614b74565b600054610100900460ff16158015613041576000805460ff1961ff0019909116610100171660011790555b8015610e2b576000805461ff001916905550565b6060610133805461085f906150a8565b60608161308a57506040805180820190915260018152600360fc1b602082015261084b565b8160005b81156130b4578061309e816150e3565b91506130ad9050600a83614fc9565b915061308e565b6000816001600160401b038111156130dc57634e487b7160e01b600052604160045260246000fd5b6040519080825280601f01601f191660200182016040528015613106576020820181803683370190505b5090505b8415610c025761311b600183614fdd565b9150613128600a866150fe565b613133906030614fb1565b60f81b81838151811061315657634e487b7160e01b600052603260045260246000fd5b60200101906001600160f81b031916908160001a905350613178600a86614fc9565b945061310a565b61318881612672565b610d5a8585858585612d41565b6001600160e01b031981166301ffc9a760e01b14919050565b600081815260696020526040902080546001600160a01b0319166001600160a01b03841690811790915581906131e38261113e565b6001600160a01b03167f8c5be1e5ebec7d5bd14f71427d1e84f3dd0314c0f7b2291e5b200ac8c7c3b92560405160405180910390a45050565b60006132273361112d565b1561323b575060331936013560601c6108e0565b613243613689565b90506108e0565b606060ca600061325984613372565b815260200190815260200160002060008481526020019081526020016000208054613283906150a8565b80601f01602080910402602001604051908101604052809291908181526020018280546132af906150a8565b80156132fc5780601f106132d1576101008083540402835291602001916132fc565b820191906000526020600020905b8154815290600101906020018083116132df57829003601f168201915b5050505050905092915050565b6060828585604051602001613320939291906144a2565b6040516020818303038152906040529050949350505050565b60608315613348575081610cce565b8251156133585782518084602001fd5b8160405162461bcd60e51b815260040161090a91906146d0565b600081815260cb60205260408120541561339a57600082815260cb6020526040902054610848565b5090565b60ca60006133ab83613372565b8152602001908152602001600020600085815260200190815260200160002080546133d5906150a8565b1515905061342c57826040516133eb9190614486565b6040518091039020817f7ae4f661958fbecc2f77be6b0eb280d2a6f604b29e1e7221c82b9da0c4af7f868560405161342391906146d0565b60405180910390a35b8160ca600061343a84613372565b81526020019081526020016000206000868152602001908152602001600020908051906020019061346c9291906138ac565b508160405161347b9190614486565b6040518091039020836040516134919190614486565b6040518091039020827f851ffe8e74d5015261dba0a1f9e1b0e5d42c5af5d2ad1908fee897c7d80a0d9286866040516134cb9291906146e3565b60405180910390a450505050565b600081815260c96020526040812080548291906134f5906150a8565b9050119050919050565b6000610a968261353887878760405160200161351d9392919061445e565b6040516020818303038152906040528051906020012061368d565b906136bd565b613548838361233d565b6135556000848484613571565b61097c5760405162461bcd60e51b815260040161090a906147f6565b6000613585846001600160a01b0316613739565b1561368157836001600160a01b031663150b7a026135a161232e565b8786866040518563ffffffff1660e01b81526004016135c394939291906145d9565b602060405180830381600087803b1580156135dd57600080fd5b505af192505050801561360d575060408051601f3d908101601f1916820190925261360a918101906140d7565b60015b613667573d80801561363b576040519150601f19603f3d011682016040523d82523d6000602084013e613640565b606091505b50805161365f5760405162461bcd60e51b815260040161090a906147f6565b805181602001fd5b6001600160e01b031916630a85bd0160e11b149050610c02565b506001610c02565b3390565b6000816040516020016136a09190614551565b604051602081830303815290604052805190602001209050919050565b6000806000808451604114156136e75750505060208201516040830151606084015160001a61372d565b8451604014156137155750505060408201516020830151906001600160ff1b0381169060ff1c601b0161372d565b60405162461bcd60e51b815260040161090a90614776565b612e838682858561373f565b3b151590565b60007f7fffffffffffffffffffffffffffffff5d576e7357a4501ddfe92f46681b20a08211156137815760405162461bcd60e51b815260040161090a90614978565b8360ff16601b148061379657508360ff16601c145b6137b25760405162461bcd60e51b815260040161090a90614bc2565b6000600186868686604051600081526020016040526040516137d79493929190614689565b6020604051602081039080840390855afa1580156137f9573d6000803e3d6000fd5b5050604051601f1901519150506001600160a01b038116610a965760405162461bcd60e51b815260040161090a90614708565b828054613838906150a8565b90600052602060002090601f01602090048101928261385a57600085556138a0565b82601f106138735782800160ff198235161785556138a0565b828001600101855582156138a0579182015b828111156138a0578235825591602001919060010190613885565b5061339a929150613920565b8280546138b8906150a8565b90600052602060002090601f0160209004810192826138da57600085556138a0565b82601f106138f357805160ff19168380011785556138a0565b828001600101855582156138a0579182015b828111156138a0578251825591602001919060010190613905565b5b8082111561339a5760008155600101613921565b60006001600160401b0383111561394e5761394e61513e565b613961601f8401601f1916602001614f88565b905082815283838301111561397557600080fd5b828260208301376000602084830101529392505050565b803561084b81615154565b60008083601f8401126139a8578182fd5b5081356001600160401b038111156139be578182fd5b60208301915083602080830285010111156139d857600080fd5b9250929050565b8035801515811461084b57600080fd5b60008083601f840112613a00578182fd5b5081356001600160401b03811115613a16578182fd5b6020830191508360208285010111156139d857600080fd5b600082601f830112613a3e578081fd5b610cce83833560208501613935565b600060208284031215613a5e578081fd5b8135610cce81615154565b600060208284031215613a7a578081fd5b8151610cce81615154565b60008060408385031215613a97578081fd5b8235613aa281615154565b91506020830135613ab281615154565b809150509250929050565b600080600060608486031215613ad1578081fd5b8335613adc81615154565b92506020840135613aec81615154565b929592945050506040919091013590565b600080600080600060808688031215613b14578081fd5b8535613b1f81615154565b94506020860135613b2f81615154565b93506040860135925060608601356001600160401b03811115613b50578182fd5b613b5c888289016139ef565b969995985093965092949392505050565b60008060008060808587031215613b82578182fd5b8435613b8d81615154565b93506020850135613b9d81615154565b92506040850135915060608501356001600160401b03811115613bbe578182fd5b613bca87828801613a2e565b91505092959194509250565b60008060408385031215613be8578182fd5b8235613bf381615154565b9150612c42602084016139df565b600080600060408486031215613c15578081fd5b8335613c2081615154565b925060208401356001600160401b03811115613c3a578182fd5b613c46868287016139ef565b9497909650939450505050565b60008060408385031215613c65578182fd5b8235613c7081615154565b946020939093013593505050565b60008060008060608587031215613c93578182fd5b8435613c9e81615154565b93506020850135925060408501356001600160401b03811115613cbf578283fd5b613ccb878288016139ef565b95989497509550505050565b60008060008060008060008060a0898b031215613cf2578586fd5b8835613cfd81615154565b97506020890135965060408901356001600160401b0380821115613d1f578788fd5b613d2b8c838d016139ef565b909850965060608b0135915080821115613d43578485fd5b613d4f8c838d01613997565b909650945060808b0135915080821115613d67578384fd5b50613d748b828c01613997565b999c989b5096995094979396929594505050565b60008060008060008060008060008060c08b8d031215613da6578384fd5b613daf8b61398c565b995060208b0135985060408b01356001600160401b0380821115613dd1578586fd5b613ddd8e838f016139ef565b909a50985060608d0135915080821115613df5578586fd5b613e018e838f01613997565b909850965060808d0135915080821115613e19578586fd5b613e258e838f01613997565b909650945060a08d0135915080821115613e3d578384fd5b50613e4a8d828e016139ef565b915080935050809150509295989b9194979a5092959850565b60008060008060008060808789031215613e7b578384fd5b8635613e8681615154565b95506020870135945060408701356001600160401b0380821115613ea8578586fd5b613eb48a838b016139ef565b90965094506060890135915080821115613ecc578384fd5b50613ed989828a016139ef565b979a9699509497509295939492505050565b600080600080600060608688031215613f02578283fd5b85356001600160401b0380821115613f18578485fd5b613f2489838a01613997565b90975095506020880135915080821115613f3c578485fd5b50613f4988828901613997565b96999598509660400135949350505050565b600080600060408486031215613f6f578081fd5b83356001600160401b03811115613f84578182fd5b613f9086828701613997565b909790965060209590950135949350505050565b60008060208385031215613fb6578182fd5b82356001600160401b03811115613fcb578283fd5b613fd785828601613997565b90969095509350505050565b60006020808385031215613ff5578182fd5b82356001600160401b038082111561400b578384fd5b818501915085601f83011261401e578384fd5b8135818111156140305761403061513e565b8381029150614040848301614f88565b8181528481019084860184860187018a101561405a578788fd5b8795505b8386101561407c57803583526001959095019491860191860161405e565b5098975050505050505050565b60006020828403121561409a578081fd5b610cce826139df565b6000602082840312156140b4578081fd5b5051919050565b6000602082840312156140cc578081fd5b8135610cce81615169565b6000602082840312156140e8578081fd5b8151610cce81615169565b60008060008060008060006080888a03121561410d578081fd5b87356001600160401b0380821115614123578283fd5b61412f8b838c016139ef565b909950975060208a0135965060408a013591508082111561414e578283fd5b61415a8b838c01613997565b909650945060608a0135915080821115614172578283fd5b5061417f8a828b01613997565b989b979a50959850939692959293505050565b600080602083850312156141a4578182fd5b82356001600160401b038111156141b9578283fd5b613fd7858286016139ef565b6000806000806000606086880312156141dc578283fd5b85356001600160401b03808211156141f2578485fd5b6141fe89838a016139ef565b90975095506020880135915080821115614216578485fd5b50613f49888289016139ef565b600080600060408486031215614237578081fd5b83356001600160401b0381111561424c578182fd5b613f90868287016139ef565b600060208284031215614269578081fd5b81356001600160401b0381111561427e578182fd5b8201601f8101841361428e578182fd5b610c0284823560208401613935565b6000806000604084860312156142b1578081fd5b83356001600160401b03808211156142c7578283fd5b90850190608082880312156142da578283fd5b909350602085013590808211156142ef578283fd5b50613c46868287016139ef565b60006020828403121561430d578081fd5b5035919050565b600080600060408486031215614328578081fd5b8335925060208401356001600160401b03811115613c3a578182fd5b60008060008060608587031215614359578182fd5b8435935060208501356001600160401b03811115614375578283fd5b614381878288016139ef565b9598909750949560400135949350505050565b600080604083850312156143a6578182fd5b50508035926020909101359150565b6000815180845260208085018081965082840281019150828601855b858110156143fb5782840389526143e9848351614432565b988501989350908401906001016143d1565b5091979650505050505050565b60008284528282602086013780602084860101526020601f19601f85011685010190509392505050565b6000815180845261444a81602086016020860161507c565b601f01601f19169290920160200192915050565b92835260609190911b6bffffffffffffffffffffffff19166020830152603482015260540190565b6000825161449881846020870161507c565b9190910192915050565b600084516144b481846020890161507c565b60609490941b6bffffffffffffffffffffffff191691909301908152601481019190915260340192915050565b6000828483379101908152919050565b6000835161450381846020880161507c565b83519083019061451781836020880161507c565b01949350505050565b7f52656769737472793a20494e56414c49445f544f4b454e5f4f574e45522000008152601e810191909152603e0190565b7f19457468657265756d205369676e6564204d6573736167653a0a3332000000008152601c810191909152603c0190565b90815260200190565b918252602082015260400190565b6001600160a01b0391909116815260200190565b6001600160a01b03848116825283166020820152606060408201819052600090610a9690830184614432565b6001600160a01b0385811682528416602082015260408101839052608060608201819052600090612e8390830184614432565b600060208252610cce60208301846143b5565b60006040825261463260408301856143b5565b8281036020840152610cca81856143b5565b6020808252810182905260006001600160fb1b03831115614663578081fd5b60208302808560408501379190910160400190815292915050565b901515815260200190565b93845260ff9290921660208401526040830152606082015260800190565b6001600160e01b031991909116815260200190565b600060208252610c02602083018486614408565b600060208252610cce6020830184614432565b6000604082526146f66040830185614432565b8281036020840152610cca8185614432565b60208082526018908201527f45434453413a20696e76616c6964207369676e61747572650000000000000000604082015260600190565b6020808252601d908201527f52656769737472793a2053454e4445525f49535f4e4f545f4f574e4552000000604082015260600190565b6020808252601f908201527f45434453413a20696e76616c6964207369676e6174757265206c656e67746800604082015260600190565b60208082526029908201527f52656769737472793a2053454e4445525f49535f4e4f545f415050524f5645446040820152682fa7a92fa7aba722a960b91b606082015260800190565b60208082526032908201527f4552433732313a207472616e7366657220746f206e6f6e20455243373231526560408201527131b2b4bb32b91034b6b83632b6b2b73a32b960711b606082015260800190565b6020808252601c908201527f5265636f726453746f726167653a204b45595f4e4f545f464f554e4400000000604082015260600190565b6020808252601c908201527f4552433732313a20746f6b656e20616c7265616479206d696e74656400000000604082015260600190565b60208082526027908201527f52656769737472793a204348494c445f434841494e5f4d414e454745525f4e4f604082015266545f454d50545960c81b606082015260800190565b60208082526024908201527f4552433732313a207472616e7366657220746f20746865207a65726f206164646040820152637265737360e01b606082015260800190565b60208082526019908201527f4552433732313a20617070726f766520746f2063616c6c657200000000000000604082015260600190565b60208082526022908201527f45434453413a20696e76616c6964207369676e6174757265202773272076616c604082015261756560f01b606082015260800190565b60208082526027908201527f52656769737472793a2053454e4445525f49535f4e4f545f4d494e54494e475f60408201526626a0a720a3a2a960c91b606082015260800190565b6020808252602c908201527f4552433732313a206f70657261746f7220717565727920666f72206e6f6e657860408201526b34b9ba32b73a103a37b5b2b760a11b606082015260800190565b60208082526017908201527f52656769737472793a20544f4b454e5f494e56414c4944000000000000000000604082015260600190565b60208082526038908201527f4552433732313a20617070726f76652063616c6c6572206973206e6f74206f7760408201527f6e6572206e6f7220617070726f76656420666f7220616c6c0000000000000000606082015260800190565b6020808252602a908201527f4552433732313a2062616c616e636520717565727920666f7220746865207a65604082015269726f206164647265737360b01b606082015260800190565b60208082526029908201527f4552433732313a206f776e657220717565727920666f72206e6f6e657869737460408201526832b73a103a37b5b2b760b91b606082015260800190565b6020808252602e908201527f496e697469616c697a61626c653a20636f6e747261637420697320616c72656160408201526d191e481a5b9a5d1a585b1a5e995960921b606082015260800190565b60208082526022908201527f45434453413a20696e76616c6964207369676e6174757265202776272076616c604082015261756560f01b606082015260800190565b6020808252818101527f52656769737472793a20434e535f52454749535452595f4e4f545f454d505459604082015260600190565b6020808252818101527f4552433732313a206d696e7420746f20746865207a65726f2061646472657373604082015260600190565b6020808252602c908201527f4552433732313a20617070726f76656420717565727920666f72206e6f6e657860408201526b34b9ba32b73a103a37b5b2b760a11b606082015260800190565b60208082526026908201527f52656769737472793a20524f4f545f434841494e5f4d414e454745525f4e4f546040820152655f454d50545960d01b606082015260800190565b60208082526029908201527f4552433732313a207472616e73666572206f6620746f6b656e2074686174206960408201526839903737ba1037bbb760b91b606082015260800190565b6020808252602f908201527f4552433732314d657461646174613a2055524920717565727920666f72206e6f60408201526e3732bc34b9ba32b73a103a37b5b2b760891b606082015260800190565b60208082526027908201527f554e535265676973747279466f727761726465723a205349474e41545552455f6040820152661253959053125160ca1b606082015260800190565b6020808252601d908201527f52656769737472793a20494e56414c49445f544f4b454e5f4f574e4552000000604082015260600190565b60208082526021908201527f4552433732313a20617070726f76616c20746f2063757272656e74206f776e656040820152603960f91b606082015260800190565b6020808252601d908201527f52656769737472793a20455843454544535f42415443485f4c494d4954000000604082015260600190565b60208082526025908201527f52656769737472793a204552433732315f524543454956494e475f50524f4849604082015264109255115160da1b606082015260800190565b60208082526022908201527f52656769737472793a20494e53554646494349454e545f5045524d495353494f6040820152614e5360f01b606082015260800190565b60208082526015908201527452656769737472793a204c4142454c5f454d50545960581b604082015260600190565b6000808335601e19843603018112614f5a578283fd5b8301803591506001600160401b03821115614f73578283fd5b6020019150368190038213156139d857600080fd5b6040518181016001600160401b0381118282101715614fa957614fa961513e565b604052919050565b60008219821115614fc457614fc4615112565b500190565b600082614fd857614fd8615128565b500490565b600082821015614fef57614fef615112565b500390565b600060808236031215615005578081fd5b604051608081016001600160401b0382821081831117156150285761502861513e565b816040528435915061503982615154565b81835260208501356020840152604085013560408401526060850135915080821115615063578384fd5b5061507036828601613a2e565b60608301525092915050565b60005b8381101561509757818101518382015260200161507f565b838111156114295750506000910152565b6002810460018216806150bc57607f821691505b602082108114156150dd57634e487b7160e01b600052602260045260246000fd5b50919050565b60006000198214156150f7576150f7615112565b5060010190565b60008261510d5761510d615128565b500690565b634e487b7160e01b600052601160045260246000fd5b634e487b7160e01b600052601260045260246000fd5b634e487b7160e01b600052604160045260246000fd5b6001600160a01b0381168114610e2b57600080fd5b6001600160e01b031981168114610e2b57600080fdfebe2bb46ac0377341a1ec5c3116d70fd5029d704bd46292e58f6265dd177ebafea164736f6c6343000800000a",
  "linkReferences": {},
  "deployedLinkReferences": {}
}