{
  "_format": "hh-sol-artifact-1",
  "contractName": "UNSRegistry",
  "sourceName": "contracts/UNSRegistry.sol",
  "abi": [
    {
      "anonymous": false,
      "inputs": [
        {
          "indexed": false,
          "internalType": "address",
          "name": "previousAdmin",
          "type": "address"
        },
        {
          "indexed": false,
          "internalType": "address",
          "name": "newAdmin",
          "type": "address"
        }
      ],
      "name": "AdminChanged",
      "type": "event"
    },
    {
      "anonymous": false,
      "inputs": [
        {
          "indexed": true,
          "internalType": "address",
          "name": "owner",
          "type": "address"
        },
        {
          "indexed": true,
          "internalType": "address",
          "name": "approved",
          "type": "address"
        },
        {
          "indexed": true,
          "internalType": "uint256",
          "name": "tokenId",
          "type": "uint256"
        }
      ],
      "name": "Approval",
      "type": "event"
    },
    {
      "anonymous": false,
      "inputs": [
        {
          "indexed": true,
          "internalType": "address",
          "name": "owner",
          "type": "address"
        },
        {
          "indexed": true,
          "internalType": "address",
          "name": "operator",
          "type": "address"
        },
        {
          "indexed": false,
          "internalType": "bool",
          "name": "approved",
          "type": "bool"
        }
      ],
      "name": "ApprovalForAll",
      "type": "event"
    },
    {
      "anonymous": false,
      "inputs": [
        {
          "indexed": false,
          "internalType": "uint8",
          "name": "version",
          "type": "uint8"
        }
      ],
      "name": "Initialized",
      "type": "event"
    },
    {
      "anonymous": false,
      "inputs": [
        {
          "indexed": true,
          "internalType": "uint256",
          "name": "tokenId",
          "type": "uint256"
        },
        {
          "indexed": true,
          "internalType": "string",
          "name": "keyIndex",
          "type": "string"
        },
        {
          "indexed": false,
          "internalType": "string",
          "name": "key",
          "type": "string"
        }
      ],
      "name": "NewKey",
      "type": "event"
    },
    {
      "anonymous": false,
      "inputs": [
        {
          "indexed": true,
          "internalType": "uint256",
          "name": "tokenId",
          "type": "uint256"
        },
        {
          "indexed": false,
          "internalType": "string",
          "name": "uri",
          "type": "string"
        }
      ],
      "name": "NewURI",
      "type": "event"
    },
    {
      "anonymous": false,
      "inputs": [
        {
          "indexed": false,
          "internalType": "string",
          "name": "prefix",
          "type": "string"
        }
      ],
      "name": "NewURIPrefix",
      "type": "event"
    },
    {
      "anonymous": false,
      "inputs": [
        {
          "indexed": true,
          "internalType": "address",
          "name": "addr",
          "type": "address"
        }
      ],
      "name": "RemoveReverse",
      "type": "event"
    },
    {
      "anonymous": false,
      "inputs": [
        {
          "indexed": true,
          "internalType": "uint256",
          "name": "tokenId",
          "type": "uint256"
        }
      ],
      "name": "ResetRecords",
      "type": "event"
    },
    {
      "anonymous": false,
      "inputs": [
        {
          "indexed": true,
          "internalType": "uint256",
          "name": "tokenId",
          "type": "uint256"
        },
        {
          "indexed": true,
          "internalType": "string",
          "name": "keyIndex",
          "type": "string"
        },
        {
          "indexed": true,
          "internalType": "string",
          "name": "valueIndex",
          "type": "string"
        },
        {
          "indexed": false,
          "internalType": "string",
          "name": "key",
          "type": "string"
        },
        {
          "indexed": false,
          "internalType": "string",
          "name": "value",
          "type": "string"
        }
      ],
      "name": "Set",
      "type": "event"
    },
    {
      "anonymous": false,
      "inputs": [
        {
          "indexed": true,
          "internalType": "address",
          "name": "addr",
          "type": "address"
        },
        {
          "indexed": true,
          "internalType": "uint256",
          "name": "tokenId",
          "type": "uint256"
        }
      ],
      "name": "SetReverse",
      "type": "event"
    },
    {
      "anonymous": false,
      "inputs": [
        {
          "indexed": true,
          "internalType": "address",
          "name": "from",
          "type": "address"
        },
        {
          "indexed": true,
          "internalType": "address",
          "name": "to",
          "type": "address"
        },
        {
          "indexed": true,
          "internalType": "uint256",
          "name": "tokenId",
          "type": "uint256"
        }
      ],
      "name": "Transfer",
      "type": "event"
    },
    {
      "anonymous": false,
      "inputs": [
        {
          "indexed": true,
          "internalType": "address",
          "name": "implementation",
          "type": "address"
        }
      ],
      "name": "Upgraded",
      "type": "event"
    },
    {
      "anonymous": false,
      "inputs": [
        {
          "indexed": true,
          "internalType": "address",
          "name": "user",
          "type": "address"
        },
        {
          "indexed": false,
          "internalType": "uint256[]",
          "name": "tokenIds",
          "type": "uint256[]"
        }
      ],
      "name": "WithdrawnBatch",
      "type": "event"
    },
    {
      "inputs": [],
      "name": "BATCH_LIMIT",
      "outputs": [
        {
          "internalType": "uint256",
          "name": "",
          "type": "uint256"
        }
      ],
      "stateMutability": "view",
      "type": "function"
    },
    {
      "inputs": [],
      "name": "NAME",
      "outputs": [
        {
          "internalType": "string",
          "name": "",
          "type": "string"
        }
      ],
      "stateMutability": "view",
      "type": "function"
    },
    {
      "inputs": [],
      "name": "VERSION",
      "outputs": [
        {
          "internalType": "string",
          "name": "",
          "type": "string"
        }
      ],
      "stateMutability": "view",
      "type": "function"
    },
    {
      "inputs": [
        {
          "internalType": "string",
          "name": "key",
          "type": "string"
        }
      ],
      "name": "addKey",
      "outputs": [],
      "stateMutability": "nonpayable",
      "type": "function"
    },
    {
      "inputs": [
        {
          "internalType": "address",
          "name": "addr",
          "type": "address"
        }
      ],
      "name": "addProxyReader",
      "outputs": [],
      "stateMutability": "nonpayable",
      "type": "function"
    },
    {
      "inputs": [
        {
          "internalType": "address",
          "name": "to",
          "type": "address"
        },
        {
          "internalType": "uint256",
          "name": "tokenId",
          "type": "uint256"
        }
      ],
      "name": "approve",
      "outputs": [],
      "stateMutability": "nonpayable",
      "type": "function"
    },
    {
      "inputs": [
        {
          "internalType": "address",
          "name": "owner",
          "type": "address"
        }
      ],
      "name": "balanceOf",
      "outputs": [
        {
          "internalType": "uint256",
          "name": "",
          "type": "uint256"
        }
      ],
      "stateMutability": "view",
      "type": "function"
    },
    {
      "inputs": [
        {
          "internalType": "uint256",
          "name": "tokenId",
          "type": "uint256"
        }
      ],
      "name": "burn",
      "outputs": [],
      "stateMutability": "nonpayable",
      "type": "function"
    },
    {
      "inputs": [
        {
          "internalType": "address",
          "name": "user",
          "type": "address"
        },
        {
          "internalType": "bytes",
          "name": "depositData",
          "type": "bytes"
        }
      ],
      "name": "deposit",
      "outputs": [],
      "stateMutability": "nonpayable",
      "type": "function"
    },
    {
      "inputs": [
        {
          "internalType": "uint256",
          "name": "tokenId",
          "type": "uint256"
        }
      ],
      "name": "depositToPolygon",
      "outputs": [],
      "stateMutability": "nonpayable",
      "type": "function"
    },
    {
      "inputs": [
        {
          "components": [
            {
              "internalType": "address",
              "name": "from",
              "type": "address"
            },
            {
              "internalType": "uint256",
              "name": "nonce",
              "type": "uint256"
            },
            {
              "internalType": "uint256",
              "name": "tokenId",
              "type": "uint256"
            },
            {
              "internalType": "bytes",
              "name": "data",
              "type": "bytes"
            }
          ],
          "internalType": "struct IForwarder.ForwardRequest",
          "name": "req",
          "type": "tuple"
        },
        {
          "internalType": "bytes",
          "name": "signature",
          "type": "bytes"
        }
      ],
      "name": "execute",
      "outputs": [
        {
          "internalType": "bytes",
          "name": "",
          "type": "bytes"
        }
      ],
      "stateMutability": "nonpayable",
      "type": "function"
    },
    {
      "inputs": [
        {
          "internalType": "uint256",
          "name": "tokenId",
          "type": "uint256"
        }
      ],
      "name": "exists",
      "outputs": [
        {
          "internalType": "bool",
          "name": "",
          "type": "bool"
        }
      ],
      "stateMutability": "view",
      "type": "function"
    },
    {
      "inputs": [
        {
          "internalType": "string",
          "name": "key",
          "type": "string"
        },
        {
          "internalType": "uint256",
          "name": "tokenId",
          "type": "uint256"
        }
      ],
      "name": "get",
      "outputs": [
        {
          "internalType": "string",
          "name": "value",
          "type": "string"
        }
      ],
      "stateMutability": "view",
      "type": "function"
    },
    {
      "inputs": [
        {
          "internalType": "uint256",
          "name": "tokenId",
          "type": "uint256"
        }
      ],
      "name": "getApproved",
      "outputs": [
        {
          "internalType": "address",
          "name": "",
          "type": "address"
        }
      ],
      "stateMutability": "view",
      "type": "function"
    },
    {
      "inputs": [
        {
          "internalType": "uint256",
          "name": "keyHash",
          "type": "uint256"
        },
        {
          "internalType": "uint256",
          "name": "tokenId",
          "type": "uint256"
        }
      ],
      "name": "getByHash",
      "outputs": [
        {
          "internalType": "string",
          "name": "key",
          "type": "string"
        },
        {
          "internalType": "string",
          "name": "value",
          "type": "string"
        }
      ],
      "stateMutability": "view",
      "type": "function"
    },
    {
      "inputs": [
        {
          "internalType": "uint256",
          "name": "keyHash",
          "type": "uint256"
        }
      ],
      "name": "getKey",
      "outputs": [
        {
          "internalType": "string",
          "name": "",
          "type": "string"
        }
      ],
      "stateMutability": "view",
      "type": "function"
    },
    {
      "inputs": [
        {
          "internalType": "uint256[]",
          "name": "hashes",
          "type": "uint256[]"
        }
      ],
      "name": "getKeys",
      "outputs": [
        {
          "internalType": "string[]",
          "name": "values",
          "type": "string[]"
        }
      ],
      "stateMutability": "view",
      "type": "function"
    },
    {
      "inputs": [
        {
          "internalType": "string[]",
          "name": "keys",
          "type": "string[]"
        },
        {
          "internalType": "uint256",
          "name": "tokenId",
          "type": "uint256"
        }
      ],
      "name": "getMany",
      "outputs": [
        {
          "internalType": "string[]",
          "name": "values",
          "type": "string[]"
        }
      ],
      "stateMutability": "view",
      "type": "function"
    },
    {
      "inputs": [
        {
          "internalType": "uint256[]",
          "name": "keyHashes",
          "type": "uint256[]"
        },
        {
          "internalType": "uint256",
          "name": "tokenId",
          "type": "uint256"
        }
      ],
      "name": "getManyByHash",
      "outputs": [
        {
          "internalType": "string[]",
          "name": "keys",
          "type": "string[]"
        },
        {
          "internalType": "string[]",
          "name": "values",
          "type": "string[]"
        }
      ],
      "stateMutability": "view",
      "type": "function"
    },
    {
      "inputs": [
        {
          "internalType": "address",
          "name": "mintingManager",
          "type": "address"
        }
      ],
      "name": "initialize",
      "outputs": [],
      "stateMutability": "nonpayable",
      "type": "function"
    },
    {
      "inputs": [
        {
          "internalType": "address",
          "name": "owner",
          "type": "address"
        },
        {
          "internalType": "address",
          "name": "operator",
          "type": "address"
        }
      ],
      "name": "isApprovedForAll",
      "outputs": [
        {
          "internalType": "bool",
          "name": "",
          "type": "bool"
        }
      ],
      "stateMutability": "view",
      "type": "function"
    },
    {
      "inputs": [
        {
          "internalType": "address",
          "name": "spender",
          "type": "address"
        },
        {
          "internalType": "uint256",
          "name": "tokenId",
          "type": "uint256"
        }
      ],
      "name": "isApprovedOrOwner",
      "outputs": [
        {
          "internalType": "bool",
          "name": "",
          "type": "bool"
        }
      ],
      "stateMutability": "view",
      "type": "function"
    },
    {
      "inputs": [
        {
          "internalType": "address",
          "name": "forwarder",
          "type": "address"
        }
      ],
      "name": "isTrustedForwarder",
      "outputs": [
        {
          "internalType": "bool",
          "name": "",
          "type": "bool"
        }
      ],
      "stateMutability": "view",
      "type": "function"
    },
    {
      "inputs": [
        {
          "internalType": "address",
          "name": "user",
          "type": "address"
        },
        {
          "internalType": "uint256",
          "name": "tokenId",
          "type": "uint256"
        }
      ],
      "name": "mint",
      "outputs": [],
      "stateMutability": "nonpayable",
      "type": "function"
    },
    {
      "inputs": [
        {
          "internalType": "address",
          "name": "user",
          "type": "address"
        },
        {
          "internalType": "uint256",
          "name": "tokenId",
          "type": "uint256"
        },
        {
          "internalType": "bytes",
          "name": "",
          "type": "bytes"
        }
      ],
      "name": "mint",
      "outputs": [],
      "stateMutability": "nonpayable",
      "type": "function"
    },
    {
      "inputs": [
        {
          "internalType": "uint256",
          "name": "tokenId",
          "type": "uint256"
        },
        {
          "internalType": "string",
          "name": "uri",
          "type": "string"
        }
      ],
      "name": "mintTLD",
      "outputs": [],
      "stateMutability": "nonpayable",
      "type": "function"
    },
    {
      "inputs": [
        {
          "internalType": "address",
          "name": "to",
          "type": "address"
        },
        {
          "internalType": "string[]",
          "name": "labels",
          "type": "string[]"
        },
        {
          "internalType": "string[]",
          "name": "keys",
          "type": "string[]"
        },
        {
          "internalType": "string[]",
          "name": "values",
          "type": "string[]"
        }
      ],
      "name": "mintWithRecords",
      "outputs": [],
      "stateMutability": "nonpayable",
      "type": "function"
    },
    {
      "inputs": [],
      "name": "name",
      "outputs": [
        {
          "internalType": "string",
          "name": "",
          "type": "string"
        }
      ],
      "stateMutability": "view",
      "type": "function"
    },
    {
      "inputs": [
        {
          "internalType": "string[]",
          "name": "labels",
          "type": "string[]"
        }
      ],
      "name": "namehash",
      "outputs": [
        {
          "internalType": "uint256",
          "name": "",
          "type": "uint256"
        }
      ],
      "stateMutability": "pure",
      "type": "function"
    },
    {
      "inputs": [
        {
          "internalType": "uint256",
          "name": "tokenId",
          "type": "uint256"
        }
      ],
      "name": "nonceOf",
      "outputs": [
        {
          "internalType": "uint256",
          "name": "",
          "type": "uint256"
        }
      ],
      "stateMutability": "view",
      "type": "function"
    },
    {
      "inputs": [
        {
          "internalType": "address",
          "name": "",
          "type": "address"
        },
        {
          "internalType": "address",
          "name": "from",
          "type": "address"
        },
        {
          "internalType": "uint256",
          "name": "tokenId",
          "type": "uint256"
        },
        {
          "internalType": "bytes",
          "name": "data",
          "type": "bytes"
        }
      ],
      "name": "onERC721Received",
      "outputs": [
        {
          "internalType": "bytes4",
          "name": "",
          "type": "bytes4"
        }
      ],
      "stateMutability": "nonpayable",
      "type": "function"
    },
    {
      "inputs": [
        {
          "internalType": "uint256",
          "name": "tokenId",
          "type": "uint256"
        }
      ],
      "name": "ownerOf",
      "outputs": [
        {
          "internalType": "address",
          "name": "",
          "type": "address"
        }
      ],
      "stateMutability": "view",
      "type": "function"
    },
    {
      "inputs": [
        {
          "internalType": "string[]",
          "name": "keys",
          "type": "string[]"
        },
        {
          "internalType": "string[]",
          "name": "values",
          "type": "string[]"
        },
        {
          "internalType": "uint256",
          "name": "tokenId",
          "type": "uint256"
        }
      ],
      "name": "reconfigure",
      "outputs": [],
      "stateMutability": "nonpayable",
      "type": "function"
    },
    {
      "inputs": [],
      "name": "removeReverse",
      "outputs": [],
      "stateMutability": "nonpayable",
      "type": "function"
    },
    {
      "inputs": [
        {
          "internalType": "uint256",
          "name": "tokenId",
          "type": "uint256"
        }
      ],
      "name": "reset",
      "outputs": [],
      "stateMutability": "nonpayable",
      "type": "function"
    },
    {
      "inputs": [
        {
          "internalType": "uint256",
          "name": "tokenId",
          "type": "uint256"
        }
      ],
      "name": "resolverOf",
      "outputs": [
        {
          "internalType": "address",
          "name": "",
          "type": "address"
        }
      ],
      "stateMutability": "view",
      "type": "function"
    },
    {
      "inputs": [
        {
          "internalType": "address",
          "name": "addr",
          "type": "address"
        }
      ],
      "name": "reverseOf",
      "outputs": [
        {
          "internalType": "uint256",
          "name": "reverse",
          "type": "uint256"
        }
      ],
      "stateMutability": "view",
      "type": "function"
    },
    {
      "inputs": [],
      "name": "root",
      "outputs": [
        {
          "internalType": "uint256",
          "name": "",
          "type": "uint256"
        }
      ],
      "stateMutability": "pure",
      "type": "function"
    },
    {
      "inputs": [
        {
          "internalType": "address",
          "name": "from",
          "type": "address"
        },
        {
          "internalType": "address",
          "name": "to",
          "type": "address"
        },
        {
          "internalType": "uint256",
          "name": "tokenId",
          "type": "uint256"
        }
      ],
      "name": "safeTransferFrom",
      "outputs": [],
      "stateMutability": "nonpayable",
      "type": "function"
    },
    {
      "inputs": [
        {
          "internalType": "address",
          "name": "from",
          "type": "address"
        },
        {
          "internalType": "address",
          "name": "to",
          "type": "address"
        },
        {
          "internalType": "uint256",
          "name": "tokenId",
          "type": "uint256"
        },
        {
          "internalType": "bytes",
          "name": "data",
          "type": "bytes"
        }
      ],
      "name": "safeTransferFrom",
      "outputs": [],
      "stateMutability": "nonpayable",
      "type": "function"
    },
    {
      "inputs": [
        {
          "internalType": "string",
          "name": "key",
          "type": "string"
        },
        {
          "internalType": "string",
          "name": "value",
          "type": "string"
        },
        {
          "internalType": "uint256",
          "name": "tokenId",
          "type": "uint256"
        }
      ],
      "name": "set",
      "outputs": [],
      "stateMutability": "nonpayable",
      "type": "function"
    },
    {
      "inputs": [
        {
          "internalType": "address",
          "name": "operator",
          "type": "address"
        },
        {
          "internalType": "bool",
          "name": "approved",
          "type": "bool"
        }
      ],
      "name": "setApprovalForAll",
      "outputs": [],
      "stateMutability": "nonpayable",
      "type": "function"
    },
    {
      "inputs": [
        {
          "internalType": "uint256",
          "name": "keyHash",
          "type": "uint256"
        },
        {
          "internalType": "string",
          "name": "value",
          "type": "string"
        },
        {
          "internalType": "uint256",
          "name": "tokenId",
          "type": "uint256"
        }
      ],
      "name": "setByHash",
      "outputs": [],
      "stateMutability": "nonpayable",
      "type": "function"
    },
    {
      "inputs": [
        {
          "internalType": "address",
          "name": "registry",
          "type": "address"
        }
      ],
      "name": "setCNSRegistry",
      "outputs": [],
      "stateMutability": "nonpayable",
      "type": "function"
    },
    {
      "inputs": [
        {
          "internalType": "address",
          "name": "clientChainManager",
          "type": "address"
        }
      ],
      "name": "setChildChainManager",
      "outputs": [],
      "stateMutability": "nonpayable",
      "type": "function"
    },
    {
      "inputs": [
        {
          "internalType": "string[]",
          "name": "keys",
          "type": "string[]"
        },
        {
          "internalType": "string[]",
          "name": "values",
          "type": "string[]"
        },
        {
          "internalType": "uint256",
          "name": "tokenId",
          "type": "uint256"
        }
      ],
      "name": "setMany",
      "outputs": [],
      "stateMutability": "nonpayable",
      "type": "function"
    },
    {
      "inputs": [
        {
          "internalType": "uint256[]",
          "name": "keyHashes",
          "type": "uint256[]"
        },
        {
          "internalType": "string[]",
          "name": "values",
          "type": "string[]"
        },
        {
          "internalType": "uint256",
          "name": "tokenId",
          "type": "uint256"
        }
      ],
      "name": "setManyByHash",
      "outputs": [],
      "stateMutability": "nonpayable",
      "type": "function"
    },
    {
      "inputs": [
        {
          "internalType": "address",
          "name": "to",
          "type": "address"
        },
        {
          "internalType": "uint256",
          "name": "tokenId",
          "type": "uint256"
        }
      ],
      "name": "setOwner",
      "outputs": [],
      "stateMutability": "nonpayable",
      "type": "function"
    },
    {
      "inputs": [
        {
          "internalType": "uint256",
          "name": "tokenId",
          "type": "uint256"
        }
      ],
      "name": "setReverse",
      "outputs": [],
      "stateMutability": "nonpayable",
      "type": "function"
    },
    {
      "inputs": [
        {
          "internalType": "address",
          "name": "rootChainManager",
          "type": "address"
        }
      ],
      "name": "setRootChainManager",
      "outputs": [],
      "stateMutability": "nonpayable",
      "type": "function"
    },
    {
      "inputs": [
        {
          "internalType": "string",
          "name": "prefix",
          "type": "string"
        }
      ],
      "name": "setTokenURIPrefix",
      "outputs": [],
      "stateMutability": "nonpayable",
      "type": "function"
    },
    {
      "inputs": [
        {
          "internalType": "bytes4",
          "name": "interfaceId",
          "type": "bytes4"
        }
      ],
      "name": "supportsInterface",
      "outputs": [
        {
          "internalType": "bool",
          "name": "",
          "type": "bool"
        }
      ],
      "stateMutability": "view",
      "type": "function"
    },
    {
      "inputs": [],
      "name": "symbol",
      "outputs": [
        {
          "internalType": "string",
          "name": "",
          "type": "string"
        }
      ],
      "stateMutability": "view",
      "type": "function"
    },
    {
      "inputs": [
        {
          "internalType": "uint256",
          "name": "tokenId",
          "type": "uint256"
        }
      ],
      "name": "tokenURI",
      "outputs": [
        {
          "internalType": "string",
          "name": "",
          "type": "string"
        }
      ],
      "stateMutability": "view",
      "type": "function"
    },
    {
      "inputs": [
        {
          "internalType": "address",
          "name": "from",
          "type": "address"
        },
        {
          "internalType": "address",
          "name": "to",
          "type": "address"
        },
        {
          "internalType": "uint256",
          "name": "tokenId",
          "type": "uint256"
        }
      ],
      "name": "transferFrom",
      "outputs": [],
      "stateMutability": "nonpayable",
      "type": "function"
    },
    {
      "inputs": [
        {
          "internalType": "uint256[]",
          "name": "tokenIds",
          "type": "uint256[]"
        }
      ],
      "name": "upgradeAll",
      "outputs": [],
      "stateMutability": "nonpayable",
      "type": "function"
    },
    {
      "inputs": [
        {
          "components": [
            {
              "internalType": "address",
              "name": "from",
              "type": "address"
            },
            {
              "internalType": "uint256",
              "name": "nonce",
              "type": "uint256"
            },
            {
              "internalType": "uint256",
              "name": "tokenId",
              "type": "uint256"
            },
            {
              "internalType": "bytes",
              "name": "data",
              "type": "bytes"
            }
          ],
          "internalType": "struct IForwarder.ForwardRequest",
          "name": "req",
          "type": "tuple"
        },
        {
          "internalType": "bytes",
          "name": "signature",
          "type": "bytes"
        }
      ],
      "name": "verify",
      "outputs": [
        {
          "internalType": "bool",
          "name": "",
          "type": "bool"
        }
      ],
      "stateMutability": "view",
      "type": "function"
    },
    {
      "inputs": [
        {
          "internalType": "uint256",
          "name": "tokenId",
          "type": "uint256"
        }
      ],
      "name": "withdraw",
      "outputs": [],
      "stateMutability": "nonpayable",
      "type": "function"
    },
    {
      "inputs": [
        {
          "internalType": "uint256[]",
          "name": "tokenIds",
          "type": "uint256[]"
        }
      ],
      "name": "withdrawBatch",
      "outputs": [],
      "stateMutability": "nonpayable",
      "type": "function"
    },
    {
      "inputs": [
        {
          "internalType": "bytes",
          "name": "inputData",
          "type": "bytes"
        },
        {
          "internalType": "uint256",
          "name": "tokenId",
          "type": "uint256"
        },
        {
          "internalType": "string[]",
          "name": "keys",
          "type": "string[]"
        },
        {
          "internalType": "string[]",
          "name": "values",
          "type": "string[]"
        }
      ],
      "name": "withdrawFromPolygon",
      "outputs": [],
      "stateMutability": "nonpayable",
      "type": "function"
    },
    {
      "inputs": [
        {
          "internalType": "uint256",
          "name": "tokenId",
          "type": "uint256"
        }
      ],
      "name": "withdrawWithMetadata",
      "outputs": [],
      "stateMutability": "nonpayable",
      "type": "function"
    }
  ],
  "bytecode": "0x608060405234801561001057600080fd5b506150f8806100206000396000f3fe608060405234801561001057600080fd5b50600436106103af5760003560e01c8063764a81bb116101f4578063ae31844a1161011a578063cf2c52cb116100ad578063f25eb5c11161007c578063f25eb5c114610894578063f5c1f76e1461089c578063f7df5c60146108af578063ffa1ad74146108c257600080fd5b8063cf2c52cb1461082b578063e985e9c51461083e578063ebf0c7171461087a578063ec129eea1461088157600080fd5b8063bb5b27e1116100e9578063bb5b27e1146107df578063c4d66de8146107f2578063c87b56dd14610805578063ce92b33e1461081857600080fd5b8063ae31844a14610785578063b3f9e4cb14610798578063b85afd28146107ab578063b88d4fde146107cc57600080fd5b806395d89b4111610192578063a3f4df7e11610161578063a3f4df7e14610733578063a42474001461075f578063a5e584dc146104ea578063ab3b87fe1461077257600080fd5b806395d89b41146106f257806399e0dd7c146106fa5780639c8d41561461070d578063a22cb4651461072057600080fd5b80637f139a00116101ce5780637f139a00146106b157806394d008ef146106c45780639508b1c4146106d75780639559c0bd146106ea57600080fd5b8063764a81bb146106785780637d67df631461068b5780637e37479e1461069e57600080fd5b806342842e0e116102d95780635096023911610277578063672b9f8111610246578063672b9f81146106105780636ccbae5f1461063157806370a0823114610652578063728a44d81461066557600080fd5b806350960239146105bb578063572b6c05146105ce5780636352211e146105ea578063638e5c78146105fd57600080fd5b806347c81699116102b357806347c816991461056f5780634a72584d146105825780634f558e791461059557806350382c1a146105a857600080fd5b806342842e0e1461053657806342966c6814610549578063430c20811461055c57600080fd5b80631bf7e13e116103515780632e1a7d4d116103205780632e1a7d4d146104ea578063310bd74b146104fd578063384e9a551461051057806340c10f191461052357600080fd5b80631bf7e13e1461049057806323b872dd146104a3578063276fabb1146104b657806327f18975146104d757600080fd5b8063095ea7b31161038d578063095ea7b31461041c578063150b7a02146104315780631bd8cc1a1461045d5780631be5e7ed1461047d57600080fd5b806301ffc9a7146103b457806306fdde03146103dc578063081812fc146103f1575b600080fd5b6103c76103c23660046146bb565b6108e6565b60405190151581526020015b60405180910390f35b6103e46108f7565b6040516103d39190614c02565b6104046103ff3660046148c9565b610989565b6040516001600160a01b0390911681526020016103d3565b61042f61042a366004614476565b6109b0565b005b61044461043f366004614278565b610a05565b6040516001600160e01b031990911681526020016103d3565b61047061046b3660046145a9565b610b5b565b6040516103d39190614b63565b6103e461048b366004614803565b610c7b565b6103e461049e36600461486a565b610cc6565b61042f6104b1366004614238565b610dd1565b6104c96104c43660046144fa565b610e57565b6040519081526020016103d3565b61042f6104e5366004614539565b610ef0565b61042f6104f83660046148c9565b610f6b565b61042f61050b3660046148c9565b610fe7565b61042f61051e3660046148c9565b611055565b61042f610531366004614476565b611114565b61042f610544366004614238565b611161565b61042f6105573660046148c9565b61117c565b6103c761056a366004614476565b6111f3565b61042f61057d3660046147a5565b6111ff565b61042f610590366004614911565b611271565b6103c76105a33660046148c9565b6112ea565b61042f6105b6366004614838565b611309565b61042f6105c93660046141c8565b61133c565b6103c76105dc3660046141c8565b6001600160a01b0316301490565b6104046105f83660046148c9565b61139c565b61042f61060b3660046148c9565b6113fc565b61062361061e366004614961565b611447565b6040516103d3929190614c15565b6104c961063f3660046148c9565b6000908152610100602052604090205490565b6104c96106603660046141c8565b61145f565b61042f6106733660046141c8565b6114e5565b61042f6106863660046141c8565b61158c565b61042f610699366004614351565b61163b565b6104c96106ac3660046141c8565b61167c565b61042f6106bf3660046141c8565b6116ad565b61042f6106d23660046144a1565b61174c565b61042f6106e53660046146f3565b61179b565b6104c9601481565b6103e4611822565b61042f610708366004614772565b611831565b61042f61071b3660046144fa565b6118b7565b61042f61072e3660046143f9565b611a3a565b6103e46040518060400160405280600d81526020016c554e533a20526567697374727960981b81525081565b6103c761076d36600461486a565b611a4c565b61042f610780366004614476565b611a97565b61042f6107933660046144fa565b611b0f565b6104046107a63660046148c9565b611bbb565b6107be6107b93660046145a9565b611be5565b6040516103d3929190614b76565b61042f6107da3660046142e8565b611d4d565b6103e46107ed3660046148c9565b611dc7565b61042f6108003660046141c8565b611e69565b6103e46108133660046148c9565b611fe3565b61042f610826366004614539565b612049565b61042f610839366004614424565b6120bb565b6103c761084c366004614200565b6001600160a01b039182166000908152606a6020908152604080832093909416825291909152205460ff1690565b60006104c9565b61042f61088f366004614539565b612198565b61042f61220a565b6104706108aa3660046144fa565b612290565b61042f6108bd3660046148e1565b61236d565b6103e460405180604001604052806005815260200164302e352e3160d81b81525081565b60006108f1826123f1565b92915050565b60606065805461090690614ffa565b80601f016020809104026020016040519081016040528092919081815260200182805461093290614ffa565b801561097f5780601f106109545761010080835404028352916020019161097f565b820191906000526020600020905b81548152906001019060200180831161096257829003601f168201915b5050505050905090565b600061099482612441565b506000908152606960205260409020546001600160a01b031690565b80303314156109ed576109c16124a0565b81146109e85760405162461bcd60e51b81526004016109df90614d1c565b60405180910390fd5b6109f6565b6109f6816124b5565b610a0083836124e3565b505050565b60007f8ffb960699dc2ba88f34d0e41c029c3c36c95149679fe1d0153a9582bec92378546001600160a01b0316610a3a612606565b6001600160a01b03161415610afc57610a51612606565b6001600160a01b03166342966c68856040518263ffffffff1660e01b8152600401610a7e91815260200190565b600060405180830381600087803b158015610a9857600080fd5b505af1158015610aac573d6000803e3d6000fd5b505050821580159150610ac65750610ac682840184614689565b15610ae457610ad53085612615565b610adf8585612763565b610aee565b610aee8585612615565b50630a85bd0160e11b610b52565b60405162461bcd60e51b815260206004820152602560248201527f52656769737472793a204552433732315f524543454956494e475f50524f4849604482015264109255115160da1b60648201526084016109df565b95945050505050565b6060826001600160401b03811115610b8357634e487b7160e01b600052604160045260246000fd5b604051908082528060200260200182016040528015610bb657816020015b6060815260200190600190039081610ba15790505b50905060005b83811015610c7357610c35858583818110610be757634e487b7160e01b600052603260045260246000fd5b9050602002810190610bf99190614de0565b8080601f016020809104026020016040519081016040528093929190818152602001838380828437600092019190915250879250612804915050565b828281518110610c5557634e487b7160e01b600052603260045260246000fd5b60200260200101819052508080610c6b9061502f565b915050610bbc565b509392505050565b6060610cbe84848080601f016020809104026020016040519081016040528093929190818152602001838380828437600092019190915250869250612804915050565b949350505050565b606060005a9050610cd8858585611a4c565b610d345760405162461bcd60e51b815260206004820152602760248201527f554e535265676973747279466f727761726465723a205349474e41545552455f6044820152661253959053125160ca1b60648201526084016109df565b610dc6610d4460208701876141c8565b30604088013584610d5860608b018b614de0565b8080601f01602080910402602001604051908101604052809392919081815260200183838082843760009201919091525050604080516020601f8e018190048102820181019092528c815292508c91508b908190840183828082843760009201919091525061283992505050565b9150505b9392505050565b80610de3610ddd612606565b82612928565b610dff5760405162461bcd60e51b81526004016109df90614c3a565b8130331415610e3357610e106124a0565b8114610e2e5760405162461bcd60e51b81526004016109df90614d1c565b610e3c565b610e3c816124b5565b610e45836129a6565b610e50858585612a13565b5050505050565b600080825b8015610c7357610edc828686610e73600186614ea3565b818110610e9057634e487b7160e01b600052603260045260246000fd5b9050602002810190610ea29190614de0565b8080601f016020809104026020016040519081016040528093929190818152602001838380828437600092019190915250612bba92505050565b915080610ee881614fe3565b915050610e5c565b80610efc610ddd612606565b610f185760405162461bcd60e51b81526004016109df90614c3a565b8130331415610f4c57610f296124a0565b8114610f475760405162461bcd60e51b81526004016109df90614d1c565b610f55565b610f55816124b5565b610f628787878787612c67565b50505050505050565b610f748161139c565b6001600160a01b0316610f85612606565b6001600160a01b031614610fdb5760405162461bcd60e51b815260206004820152601d60248201527f52656769737472793a20494e56414c49445f544f4b454e5f4f574e455200000060448201526064016109df565b610fe481612ce6565b50565b80610ff3610ddd612606565b61100f5760405162461bcd60e51b81526004016109df90614c3a565b8130331415611043576110206124a0565b811461103e5760405162461bcd60e51b81526004016109df90614d1c565b61104c565b61104c816124b5565b610a00836129a6565b8061105e612606565b6001600160a01b03166110708261139c565b6001600160a01b0316146110c65760405162461bcd60e51b815260206004820152601d60248201527f52656769737472793a2053454e4445525f49535f4e4f545f4f574e455200000060448201526064016109df565b81303314156110fa576110d76124a0565b81146110f55760405162461bcd60e51b81526004016109df90614d1c565b611103565b611103816124b5565b610a0061110e612606565b84612d8d565b61111c612dd5565b6001600160a01b031661112d612606565b6001600160a01b0316146111535760405162461bcd60e51b81526004016109df90614d9e565b61115d8282612615565b5050565b610a0083838360405180602001604052806000815250611d4d565b80611188610ddd612606565b6111a45760405162461bcd60e51b81526004016109df90614c3a565b81303314156111d8576111b56124a0565b81146111d35760405162461bcd60e51b81526004016109df90614d1c565b6111e1565b6111e1816124b5565b6111ea836129a6565b610a0083612ce6565b6000610dca8383612928565b8061120b610ddd612606565b6112275760405162461bcd60e51b81526004016109df90614c3a565b813033141561125b576112386124a0565b81146112565760405162461bcd60e51b81526004016109df90614d1c565b611264565b611264816124b5565b610f628787878787612ee8565b8061127d610ddd612606565b6112995760405162461bcd60e51b81526004016109df90614c3a565b81303314156112cd576112aa6124a0565b81146112c85760405162461bcd60e51b81526004016109df90614d1c565b6112d6565b6112d6816124b5565b6112e286868686612fc7565b505050505050565b6000818152606760205260408120546001600160a01b031615156108f1565b610fe48160405160200161131d9190614a2e565b6040516020818303038152906040528051906020012060001c82613067565b610134546001600160a01b0316611351612606565b6001600160a01b0316146113775760405162461bcd60e51b81526004016109df90614cd5565b6001600160a01b0316600090815261013660205260409020805460ff19166001179055565b6000818152606760205260408120546001600160a01b0316806108f15760405162461bcd60e51b8152602060048201526018602482015277115490cdcc8c4e881a5b9d985b1a59081d1bdad95b88125160421b60448201526064016109df565b80611408610ddd612606565b6114245760405162461bcd60e51b81526004016109df90614c3a565b61143661142f612606565b3084612a13565b61115d611441612606565b83612763565b6060806114548484613093565b909590945092505050565b60006001600160a01b0382166114c95760405162461bcd60e51b815260206004820152602960248201527f4552433732313a2061646472657373207a65726f206973206e6f7420612076616044820152683634b21037bbb732b960b91b60648201526084016109df565b506001600160a01b031660009081526068602052604090205490565b6000805160206150cc833981519152546001600160a01b03161561155a5760405162461bcd60e51b815260206004820152602660248201527f52656769737472793a20524f4f545f434841494e5f4d414e454745525f4e4f546044820152655f454d50545960d01b60648201526084016109df565b806000805160206150cc8339815191525b80546001600160a01b0319166001600160a01b039290921691909117905550565b7f8bea9a6f8afd34f4e29c585f854e0cc5161431bf5fc299d468454d33dce53b87546001600160a01b0316156116145760405162461bcd60e51b815260206004820152602760248201527f52656769737472793a204348494c445f434841494e5f4d414e454745525f4e4f604482015266545f454d50545960c81b60648201526084016109df565b807f8bea9a6f8afd34f4e29c585f854e0cc5161431bf5fc299d468454d33dce53b8761156b565b600061164787876130b4565b9050611665888261166061165b8a8c614eba565b61316a565b613207565b6116728585858585613253565b5050505050505050565b6001600160a01b0381166000908152610135602052604081205461169f816132dd565b6116a7578091505b50919050565b7f8ffb960699dc2ba88f34d0e41c029c3c36c95149679fe1d0153a9582bec92378546001600160a01b0316156117255760405162461bcd60e51b815260206004820181905260248201527f52656769737472793a20434e535f52454749535452595f4e4f545f454d50545960448201526064016109df565b807f8ffb960699dc2ba88f34d0e41c029c3c36c95149679fe1d0153a9582bec9237861156b565b611754612dd5565b6001600160a01b0316611765612606565b6001600160a01b03161461178b5760405162461bcd60e51b81526004016109df90614d9e565b6117958484612615565b50505050565b6117a58787613327565b6117ad612606565b6001600160a01b03166117bf8661139c565b6001600160a01b0316146118155760405162461bcd60e51b815260206004820152601d60248201527f52656769737472793a2053454e4445525f49535f4e4f545f4f574e455200000060448201526064016109df565b610f628484848489613253565b60606066805461090690614ffa565b610134546001600160a01b0316611846612606565b6001600160a01b03161461186c5760405162461bcd60e51b81526004016109df90614cd5565b6118796101338383613fbf565b507f4b120d6a959a84a520fa48f5f937cca0e79129423487af7901213b5d2e89313b82826040516118ab929190614bee565b60405180910390a15050565b8060148111156119095760405162461bcd60e51b815260206004820152601d60248201527f52656769737472793a20455843454544535f42415443485f4c494d495400000060448201526064016109df565b60005b818110156119ea57600084848381811061193657634e487b7160e01b600052603260045260246000fd5b9050602002013590506119488161139c565b6001600160a01b0316611959612606565b6001600160a01b031614816040516020016119a091907f52656769737472793a20494e56414c49445f544f4b454e5f4f574e45522000008152601e810191909152603e0190565b604051602081830303815290604052906119cd5760405162461bcd60e51b81526004016109df9190614c02565b506119d781612ce6565b50806119e28161502f565b91505061190c565b506119f3612606565b6001600160a01b03167ff871896b17e9cb7a64941c62c188a4f5c621b86800e3d15452ece01ce56073df8484604051611a2d929190614b9b565b60405180910390a2505050565b61115d611a45612606565b8383613396565b6000610cbe611a5a85614f2f565b3085858080601f01602080910402602001604051908101604052809392919081815260200183838082843760009201919091525061346592505050565b80611aa3610ddd612606565b611abf5760405162461bcd60e51b81526004016109df90614c3a565b8130331415611af357611ad06124a0565b8114611aee5760405162461bcd60e51b81526004016109df90614d1c565b611afc565b611afc816124b5565b611795611b088461139c565b8585612a13565b610134546001600160a01b0316611b24612606565b6001600160a01b031614611b4a5760405162461bcd60e51b81526004016109df90614cd5565b60005b81811015610a005760016101376000858585818110611b7c57634e487b7160e01b600052603260045260246000fd5b90506020020135815260200190815260200160002060006101000a81548160ff0219169083151502179055508080611bb39061502f565b915050611b4d565b6000818152606760205260408120546001600160a01b0316611bde5760006108f1565b3092915050565b606080836001600160401b03811115611c0e57634e487b7160e01b600052604160045260246000fd5b604051908082528060200260200182016040528015611c4157816020015b6060815260200190600190039081611c2c5790505b509150836001600160401b03811115611c6a57634e487b7160e01b600052604160045260246000fd5b604051908082528060200260200182016040528015611c9d57816020015b6060815260200190600190039081611c885790505b50905060005b84811015611d4457611cdb868683818110611cce57634e487b7160e01b600052603260045260246000fd5b9050602002013585613093565b848381518110611cfb57634e487b7160e01b600052603260045260246000fd5b60200260200101848481518110611d2257634e487b7160e01b600052603260045260246000fd5b6020026020010182905282905250508080611d3c9061502f565b915050611ca3565b50935093915050565b81611d59610ddd612606565b611d755760405162461bcd60e51b81526004016109df90614c3a565b8230331415611da957611d866124a0565b8114611da45760405162461bcd60e51b81526004016109df90614d1c565b611db2565b611db2816124b5565b611dbb846129a6565b6112e2868686866135bd565b600081815260c960205260409020805460609190611de490614ffa565b80601f0160208091040260200160405190810160405280929190818152602001828054611e1090614ffa565b8015611e5d5780601f10611e3257610100808354040283529160200191611e5d565b820191906000526020600020905b815481529060010190602001808311611e4057829003601f168201915b50505050509050919050565b600054610100900460ff1615808015611e895750600054600160ff909116105b80611ea35750303b158015611ea3575060005460ff166001145b611f065760405162461bcd60e51b815260206004820152602e60248201527f496e697469616c697a61626c653a20636f6e747261637420697320616c72656160448201526d191e481a5b9a5d1a585b1a5e995960921b60648201526084016109df565b6000805460ff191660011790558015611f29576000805461ff0019166101001790555b61013480546001600160a01b0319166001600160a01b0384161790556040805180820182526013815272556e73746f707061626c6520446f6d61696e7360681b60208083019190915282518084019093526002835261155160f21b90830152611f91916135f0565b611f9961363e565b611fa161363e565b801561115d576000805461ff0019169055604051600181527f7f26b83ff96e1f2b6a682f133852f6798a09c465da95921460cefb3847402498906020016118ab565b6060611fee82612441565b6000611ff8613667565b905060008151116120185760405180602001604052806000815250610dca565b8061202284613677565b604051602001612033929190614ad5565b6040516020818303038152906040529392505050565b80612055610ddd612606565b6120715760405162461bcd60e51b81526004016109df90614c3a565b81303314156120a5576120826124a0565b81146120a05760405162461bcd60e51b81526004016109df90614d1c565b6120ae565b6120ae816124b5565b610f628787878787613253565b7f8bea9a6f8afd34f4e29c585f854e0cc5161431bf5fc299d468454d33dce53b87546001600160a01b03166120ee612606565b6001600160a01b0316146121145760405162461bcd60e51b81526004016109df90614d9e565b602081141561213757600061212b828401846148c9565b90506117958482612615565b6000612145828401846145f2565b805190915060005b818110156112e2576121868684838151811061217957634e487b7160e01b600052603260045260246000fd5b6020026020010151612615565b806121908161502f565b91505061214d565b806121a4610ddd612606565b6121c05760405162461bcd60e51b81526004016109df90614c3a565b81303314156121f4576121d16124a0565b81146121ef5760405162461bcd60e51b81526004016109df90614d1c565b6121fd565b6121fd816124b5565b610f628787878787613790565b6000612214612606565b6001600160a01b038116600090815261013560205260409020549091506122875760405162461bcd60e51b815260206004820152602160248201527f52656769737472793a20524556455253455f5245434f52445f49535f454d50546044820152605960f81b60648201526084016109df565b610fe4816137a6565b6060816001600160401b038111156122b857634e487b7160e01b600052604160045260246000fd5b6040519080825280602002602001820160405280156122eb57816020015b60608152602001906001900390816122d65790505b50905060005b828110156123665761232884848381811061231c57634e487b7160e01b600052603260045260246000fd5b90506020020135611dc7565b82828151811061234857634e487b7160e01b600052603260045260246000fd5b6020026020010181905250808061235e9061502f565b9150506122f1565b5092915050565b610134546001600160a01b0316612382612606565b6001600160a01b0316146123a85760405162461bcd60e51b81526004016109df90614cd5565b610134546123bf906001600160a01b031684612615565b827fc5beef08f693b11c316c0c8394a377a0033c9cf701b8cd8afd79cecef60c39528383604051611a2d929190614bee565b60006001600160e01b031982166380ac58cd60e01b148061242257506001600160e01b03198216635b5e139f60e01b145b806108f157506301ffc9a760e01b6001600160e01b03198316146108f1565b6000818152606760205260409020546001600160a01b0316610fe45760405162461bcd60e51b8152602060048201526018602482015277115490cdcc8c4e881a5b9d985b1a59081d1bdad95b88125160421b60448201526064016109df565b6000303314156124b25750601f193601355b90565b600081815261010060205260409020546124d0906001614e77565b6000918252610100602052604090912055565b60006124ee8261139c565b9050806001600160a01b0316836001600160a01b0316141561255c5760405162461bcd60e51b815260206004820152602160248201527f4552433732313a20617070726f76616c20746f2063757272656e74206f776e656044820152603960f91b60648201526084016109df565b806001600160a01b031661256e612606565b6001600160a01b0316148061258a575061258a8161084c612606565b6125fc5760405162461bcd60e51b815260206004820152603e60248201527f4552433732313a20617070726f76652063616c6c6572206973206e6f7420746f60448201527f6b656e206f776e6572206e6f7220617070726f76656420666f7220616c6c000060648201526084016109df565b610a0083836137eb565b6000612610613859565b905090565b6001600160a01b03821661266b5760405162461bcd60e51b815260206004820181905260248201527f4552433732313a206d696e7420746f20746865207a65726f206164647265737360448201526064016109df565b6000818152606760205260409020546001600160a01b0316156126d05760405162461bcd60e51b815260206004820152601c60248201527f4552433732313a20746f6b656e20616c7265616479206d696e7465640000000060448201526064016109df565b6126dc60008383613875565b6001600160a01b0382166000908152606860205260408120805460019290612705908490614e77565b909155505060008181526067602052604080822080546001600160a01b0319166001600160a01b03861690811790915590518392907fddf252ad1be2c89b69c2b068fc378daa952ba7f163c4a11628f55a4df523b3ef908290a45050565b600061276d612dd5565b905061277981836137eb565b6000805160206150cc83398151915254604080516020808201869052825180830390910181528183019283905263e3dec8fb60e01b9092526001600160a01b0390921691829163e3dec8fb916127d6918891309190604401614b04565b600060405180830381600087803b1580156127f057600080fd5b505af1158015611672573d6000803e3d6000fd5b6060610dca8360405160200161281a9190614a2e565b6040516020818303038152906040528051906020012060001c83613912565b6060612844856124b5565b600080876001600160a01b03168661285e8b8a89896139f4565b60405161286b9190614a2e565b60006040518083038160008787f1925050503d80600081146128a9576040519150601f19603f3d011682016040523d82523d6000602084013e6128ae565b606091505b5090925090506128bf603f87614e8f565b5a116128db57634e487b7160e01b600052600160045260246000fd5b61291b82826040518060400160405280601a81526020017f42617365466f727761726465723a2043414c4c5f4641494c4544000000000000815250613a24565b9998505050505050505050565b6000806129348361139c565b9050806001600160a01b0316846001600160a01b0316148061297b57506001600160a01b038082166000908152606a602090815260408083209388168352929052205460ff165b80610cbe5750836001600160a01b031661299484610989565b6001600160a01b031614949350505050565b6129af81613a5d565b6040516020016129c191815260200190565b60408051601f198184030181528282528051602091820120600085815260cb9092529181209190915582917f185c30856dadb58bf097c1f665a52ada7029752dbcad008ea3fefc73bee8c9fe9190a250565b826001600160a01b0316612a268261139c565b6001600160a01b031614612a8a5760405162461bcd60e51b815260206004820152602560248201527f4552433732313a207472616e736665722066726f6d20696e636f72726563742060448201526437bbb732b960d91b60648201526084016109df565b6001600160a01b038216612aec5760405162461bcd60e51b8152602060048201526024808201527f4552433732313a207472616e7366657220746f20746865207a65726f206164646044820152637265737360e01b60648201526084016109df565b612af7838383613875565b612b026000826137eb565b6001600160a01b0383166000908152606860205260408120805460019290612b2b908490614ea3565b90915550506001600160a01b0382166000908152606860205260408120805460019290612b59908490614e77565b909155505060008181526067602052604080822080546001600160a01b0319166001600160a01b0386811691821790925591518493918716917fddf252ad1be2c89b69c2b068fc378daa952ba7f163c4a11628f55a4df523b3ef91a4505050565b6000815160001415612c065760405162461bcd60e51b815260206004820152601560248201527452656769737472793a204c4142454c5f454d50545960581b60448201526064016109df565b8282604051602001612c189190614a2e565b60405160208183030381529060405280519060200120604051602001612c48929190918252602082015260400190565b60408051601f1981840301815291905280516020909101209392505050565b60005b848110156112e257612cd4868683818110612c9557634e487b7160e01b600052603260045260246000fd5b90506020020135858584818110612cbc57634e487b7160e01b600052603260045260246000fd5b9050602002810190612cce9190614de0565b85612fc7565b80612cde8161502f565b915050612c6a565b6000612cf18261139c565b9050612cff81600084613875565b612d0a6000836137eb565b6001600160a01b0381166000908152606860205260408120805460019290612d33908490614ea3565b909155505060008281526067602052604080822080546001600160a01b0319169055518391906001600160a01b038416907fddf252ad1be2c89b69c2b068fc378daa952ba7f163c4a11628f55a4df523b3ef908390a45050565b6001600160a01b03821660008181526101356020526040808220849055518392917feb76a21470988c474a21f690cc28fee1ed511bd812dc3c21fd0f49c5e5d4708a91a35050565b6000806000805160206150cc8339815191525460405163721804d360e11b81523060048201526001600160a01b039091169150600090829063e43009a69060240160206040518083038186803b158015612e2e57600080fd5b505afa158015612e42573d6000803e3d6000fd5b505050506040513d601f19601f82011682018060405250810190612e6691906146a3565b60405163e66f960360e01b8152600481018290529091506001600160a01b0383169063e66f96039060240160206040518083038186803b158015612ea957600080fd5b505afa158015612ebd573d6000803e3d6000fd5b505050506040513d601f19601f82011682018060405250810190612ee191906141e4565b9250505090565b60008585604051602001612efd929190614ac5565b60408051601f198184030181528282528051602091820120601f8901829004820284018201909252878352909250612f51918391899089908190840183828082843760009201919091525061306792505050565b6112e28187878080601f01602080910402602001604051908101604052809392919081815260200183838082843760009201919091525050604080516020601f8b018190048102820181019092528981529250899150889081908401838280828437600092019190915250889250613a89915050565b612fd084613bc4565b61301c5760405162461bcd60e51b815260206004820152601c60248201527f5265636f726453746f726167653a204b45595f4e4f545f464f554e440000000060448201526064016109df565b6117958461302986611dc7565b85858080601f016020809104026020016040519081016040528093929190818152602001838380828437600092019190915250879250613a89915050565b61307082613bc4565b61115d57600082815260c9602090815260409091208251610a009284019061403f565b60608061309f84611dc7565b91506130ab8484613912565b90509250929050565b600060028210156131075760405162461bcd60e51b815260206004820152601f60248201527f52656769737472793a204c4142454c535f4c454e4754485f42454c4f575f320060448201526064016109df565b600080835b801561313c57819250613128838787600185610e739190614ea3565b91508061313481614fe3565b91505061310c565b5061314e613148612606565b83612928565b610cbe5760405162461bcd60e51b81526004016109df90614c3a565b606060008260008151811061318f57634e487b7160e01b600052603260045260246000fd5b602002602001015190506000600190505b835181101561236657818482815181106131ca57634e487b7160e01b600052603260045260246000fd5b60200260200101516040516020016131e3929190614a89565b604051602081830303815290604052915080806131ff9061502f565b9150506131a0565b6132118383612615565b817fc5beef08f693b11c316c0c8394a377a0033c9cf701b8cd8afd79cecef60c3952826040516132419190614c02565b60405180910390a2610a008383613bea565b60005b848110156112e2576132cb86868381811061328157634e487b7160e01b600052603260045260246000fd5b90506020028101906132939190614de0565b8686858181106132b357634e487b7160e01b600052603260045260246000fd5b90506020028101906132c59190614de0565b86612ee8565b806132d58161502f565b915050613256565b6000818152610137602052604081205460ff1680156108f157506101366000613304612606565b6001600160a01b0316815260208101919091526040016000205460ff1692915050565b6000805160206150cc83398151915254604051633805550f60e01b81526001600160a01b03909116908190633805550f906133689086908690600401614bee565b600060405180830381600087803b15801561338257600080fd5b505af1158015610f62573d6000803e3d6000fd5b816001600160a01b0316836001600160a01b031614156133f85760405162461bcd60e51b815260206004820152601960248201527f4552433732313a20617070726f766520746f2063616c6c65720000000000000060448201526064016109df565b6001600160a01b038381166000818152606a6020908152604080832094871680845294825291829020805460ff191686151590811790915591519182527f17307eab39ab6107e8899845ad3d59bd9653f200f220920489ca2b5937696c31910160405180910390a3505050565b6040838101519051636ccbae5f60e01b8152600481019190915260009081903090636ccbae5f9060240160206040518083038186803b1580156134a757600080fd5b505afa1580156134bb573d6000803e3d6000fd5b505050506040513d601f19601f820116820180604052508101906134df91906146a3565b9050600061358d86606001518051906020012086886020015160405160200161352d9392919092835260609190911b6bffffffffffffffffffffffff19166020830152603482015260540190565b60408051601f1981840301815282825280516020918201207f19457468657265756d205369676e6564204d6573736167653a0a33320000000084830152603c8085019190915282518085039091018152605c909301909152815191012090565b90508186602001511480156135b3575085516135b3906001600160a01b03168286613c2b565b9695505050505050565b6135c8848484612a13565b6135d484848484613d7b565b6117955760405162461bcd60e51b81526004016109df90614c83565b600054610100900460ff166136175760405162461bcd60e51b81526004016109df90614d53565b815161362a90606590602085019061403f565b508051610a0090606690602084019061403f565b600054610100900460ff166136655760405162461bcd60e51b81526004016109df90614d53565b565b6060610133805461090690614ffa565b60608161369b5750506040805180820190915260018152600360fc1b602082015290565b8160005b81156136c557806136af8161502f565b91506136be9050600a83614e8f565b915061369f565b6000816001600160401b038111156136ed57634e487b7160e01b600052604160045260246000fd5b6040519080825280601f01601f191660200182016040528015613717576020820181803683370190505b5090505b8415610cbe5761372c600183614ea3565b9150613739600a8661504a565b613744906030614e77565b60f81b81838151811061376757634e487b7160e01b600052603260045260246000fd5b60200101906001600160f81b031916908160001a905350613789600a86614e8f565b945061371b565b613799816129a6565b610e508585858585613253565b6001600160a01b03811660008181526101356020526040808220829055517ffcf5eec0cfa3e6332f5f0e63ec242d71f866a61d121d6cdf5c2eb3b668a26c4f9190a250565b600081815260696020526040902080546001600160a01b0319166001600160a01b03841690811790915581906138208261139c565b6001600160a01b03167f8c5be1e5ebec7d5bd14f71427d1e84f3dd0314c0f7b2291e5b200ac8c7c3b92560405160405180910390a45050565b600030331415613870575060331936013560601c90565b503390565b6000818152610137602052604090205460ff16158061389c57506001600160a01b03821615155b6138e85760405162461bcd60e51b815260206004820152601860248201527f52656769737472793a20544f4b454e5f5550475241444544000000000000000060448201526064016109df565b6001600160a01b03831660009081526101356020526040902054811415610a0057610a00836137a6565b606061391d826132dd565b1561393757506040805160208101909152600081526108f1565b60ca600061394484613a5d565b81526020019081526020016000206000848152602001908152602001600020805461396e90614ffa565b80601f016020809104026020016040519081016040528092919081815260200182805461399a90614ffa565b80156139e75780601f106139bc576101008083540402835291602001916139e7565b820191906000526020600020905b8154815290600101906020018083116139ca57829003601f168201915b5050505050905092915050565b6060828585604051602001613a0b93929190614a4a565b6040516020818303038152906040529050949350505050565b60608315613a33575081610dca565b825115613a435782518084602001fd5b8160405162461bcd60e51b81526004016109df9190614c02565b600081815260cb602052604081205415613a8557600082815260cb60205260409020546108f1565b5090565b60ca6000613a9683613a5d565b815260200190815260200160002060008581526020019081526020016000208054613ac090614ffa565b15159050613b175782604051613ad69190614a2e565b6040518091039020817f7ae4f661958fbecc2f77be6b0eb280d2a6f604b29e1e7221c82b9da0c4af7f8685604051613b0e9190614c02565b60405180910390a35b8160ca6000613b2584613a5d565b815260200190815260200160002060008681526020019081526020016000209080519060200190613b5792919061403f565b5081604051613b669190614a2e565b604051809103902083604051613b7c9190614a2e565b6040518091039020827f851ffe8e74d5015261dba0a1f9e1b0e5d42c5af5d2ad1908fee897c7d80a0d928686604051613bb6929190614c15565b60405180910390a450505050565b600081815260c9602052604081208054829190613be090614ffa565b9050119050919050565b61dead6001600160a01b03831614801590613c1c57506001600160a01b03821660009081526101356020526040902054155b1561115d5761115d8282612d8d565b6000806000613c3a8585613e8c565b90925090506000816004811115613c6157634e487b7160e01b600052602160045260246000fd5b148015613c7f5750856001600160a01b0316826001600160a01b0316145b15613c8f57600192505050610dca565b600080876001600160a01b0316631626ba7e60e01b8888604051602401613cb7929190614bd5565b60408051601f198184030181529181526020820180516001600160e01b03166001600160e01b0319909416939093179092529051613cf59190614a2e565b600060405180830381855afa9150503d8060008114613d30576040519150601f19603f3d011682016040523d82523d6000602084013e613d35565b606091505b5091509150818015613d48575080516020145b8015613d6f57508051630b135d3f60e11b90613d6d90830160209081019084016146a3565b145b98975050505050505050565b60006001600160a01b0384163b15613e8457836001600160a01b031663150b7a02613da4612606565b8786866040518563ffffffff1660e01b8152600401613dc69493929190614b30565b602060405180830381600087803b158015613de057600080fd5b505af1925050508015613e10575060408051601f3d908101601f19168201909252613e0d918101906146d7565b60015b613e6a573d808015613e3e576040519150601f19603f3d011682016040523d82523d6000602084013e613e43565b606091505b508051613e625760405162461bcd60e51b81526004016109df90614c83565b805181602001fd5b6001600160e01b031916630a85bd0160e11b149050610cbe565b506001610cbe565b600080825160411415613ec35760208301516040840151606085015160001a613eb787828585613ed2565b94509450505050613ecb565b506000905060025b9250929050565b6000807f7fffffffffffffffffffffffffffffff5d576e7357a4501ddfe92f46681b20a0831115613f095750600090506003613fb6565b8460ff16601b14158015613f2157508460ff16601c14155b15613f325750600090506004613fb6565b6040805160008082526020820180845289905260ff881692820192909252606081018690526080810185905260019060a0016020604051602081039080840390855afa158015613f86573d6000803e3d6000fd5b5050604051601f1901519150506001600160a01b038116613faf57600060019250925050613fb6565b9150600090505b94509492505050565b828054613fcb90614ffa565b90600052602060002090601f016020900481019282613fed5760008555614033565b82601f106140065782800160ff19823516178555614033565b82800160010185558215614033579182015b82811115614033578235825591602001919060010190614018565b50613a859291506140b3565b82805461404b90614ffa565b90600052602060002090601f01602090048101928261406d5760008555614033565b82601f1061408657805160ff1916838001178555614033565b82800160010185558215614033579182015b82811115614033578251825591602001919060010190614098565b5b80821115613a8557600081556001016140b4565b60008083601f8401126140d9578182fd5b5081356001600160401b038111156140ef578182fd5b6020830191508360208260051b8501011115613ecb57600080fd5b8035801515811461411a57600080fd5b919050565b60008083601f840112614130578182fd5b5081356001600160401b03811115614146578182fd5b602083019150836020828501011115613ecb57600080fd5b600082601f83011261416e578081fd5b81356001600160401b038111156141875761418761508a565b61419a601f8201601f1916602001614e24565b8181528460208386010111156141ae578283fd5b816020850160208301379081016020019190915292915050565b6000602082840312156141d9578081fd5b8135610dca816150a0565b6000602082840312156141f5578081fd5b8151610dca816150a0565b60008060408385031215614212578081fd5b823561421d816150a0565b9150602083013561422d816150a0565b809150509250929050565b60008060006060848603121561424c578081fd5b8335614257816150a0565b92506020840135614267816150a0565b929592945050506040919091013590565b60008060008060006080868803121561428f578283fd5b853561429a816150a0565b945060208601356142aa816150a0565b93506040860135925060608601356001600160401b038111156142cb578182fd5b6142d78882890161411f565b969995985093965092949392505050565b600080600080608085870312156142fd578182fd5b8435614308816150a0565b93506020850135614318816150a0565b92506040850135915060608501356001600160401b03811115614339578182fd5b6143458782880161415e565b91505092959194509250565b60008060008060008060006080888a03121561436b578485fd5b8735614376816150a0565b965060208801356001600160401b0380821115614391578687fd5b61439d8b838c016140c8565b909850965060408a01359150808211156143b5578384fd5b6143c18b838c016140c8565b909650945060608a01359150808211156143d9578384fd5b506143e68a828b016140c8565b989b979a50959850939692959293505050565b6000806040838503121561440b578182fd5b8235614416816150a0565b91506130ab6020840161410a565b600080600060408486031215614438578081fd5b8335614443816150a0565b925060208401356001600160401b0381111561445d578182fd5b6144698682870161411f565b9497909650939450505050565b60008060408385031215614488578182fd5b8235614493816150a0565b946020939093013593505050565b600080600080606085870312156144b6578182fd5b84356144c1816150a0565b93506020850135925060408501356001600160401b038111156144e2578283fd5b6144ee8782880161411f565b95989497509550505050565b6000806020838503121561450c578182fd5b82356001600160401b03811115614521578283fd5b61452d858286016140c8565b90969095509350505050565b600080600080600060608688031215614550578283fd5b85356001600160401b0380821115614566578485fd5b61457289838a016140c8565b9097509550602088013591508082111561458a578485fd5b50614597888289016140c8565b96999598509660400135949350505050565b6000806000604084860312156145bd578081fd5b83356001600160401b038111156145d2578182fd5b6145de868287016140c8565b909790965060209590950135949350505050565b60006020808385031215614604578182fd5b82356001600160401b03811115614619578283fd5b8301601f81018513614629578283fd5b803561463c61463782614e54565b614e24565b80828252848201915084840188868560051b870101111561465b578687fd5b8694505b8385101561467d57803583526001949094019391850191850161465f565b50979650505050505050565b60006020828403121561469a578081fd5b610dca8261410a565b6000602082840312156146b4578081fd5b5051919050565b6000602082840312156146cc578081fd5b8135610dca816150b5565b6000602082840312156146e8578081fd5b8151610dca816150b5565b60008060008060008060006080888a03121561470d578081fd5b87356001600160401b0380821115614723578283fd5b61472f8b838c0161411f565b909950975060208a0135965060408a013591508082111561474e578283fd5b61475a8b838c016140c8565b909650945060608a01359150808211156143d9578283fd5b60008060208385031215614784578182fd5b82356001600160401b03811115614799578283fd5b61452d8582860161411f565b6000806000806000606086880312156147bc578283fd5b85356001600160401b03808211156147d2578485fd5b6147de89838a0161411f565b909750955060208801359150808211156147f6578485fd5b506145978882890161411f565b600080600060408486031215614817578081fd5b83356001600160401b0381111561482c578182fd5b6145de8682870161411f565b600060208284031215614849578081fd5b81356001600160401b0381111561485e578182fd5b610cbe8482850161415e565b60008060006040848603121561487e578081fd5b83356001600160401b0380821115614894578283fd5b90850190608082880312156148a7578283fd5b909350602085013590808211156148bc578283fd5b506144698682870161411f565b6000602082840312156148da578081fd5b5035919050565b6000806000604084860312156148f5578081fd5b8335925060208401356001600160401b0381111561445d578182fd5b60008060008060608587031215614926578182fd5b8435935060208501356001600160401b03811115614942578283fd5b61494e8782880161411f565b9598909750949560400135949350505050565b60008060408385031215614973578182fd5b50508035926020909101359150565b600082825180855260208086019550808260051b840101818601855b848110156149cc57601f198684030189526149ba838351614a02565b9884019892509083019060010161499e565b5090979650505050505050565b81835281816020850137506000828201602090810191909152601f909101601f19169091010190565b60008151808452614a1a816020860160208601614fb7565b601f01601f19169290920160200192915050565b60008251614a40818460208701614fb7565b9190910192915050565b60008451614a5c818460208901614fb7565b60609490941b6bffffffffffffffffffffffff191691909301908152601481019190915260340192915050565b60008351614a9b818460208801614fb7565b601760f91b9083019081528351614ab9816001840160208801614fb7565b01600101949350505050565b8183823760009101908152919050565b60008351614ae7818460208801614fb7565b835190830190614afb818360208801614fb7565b01949350505050565b6001600160a01b03848116825283166020820152606060408201819052600090610b5290830184614a02565b6001600160a01b03858116825284166020820152604081018390526080606082018190526000906135b390830184614a02565b602081526000610dca6020830184614982565b604081526000614b896040830185614982565b8281036020840152610dc68185614982565b6020808252810182905260006001600160fb1b03831115614bba578081fd5b8260051b808560408501379190910160400190815292915050565b828152604060208201526000610cbe6040830184614a02565b602081526000610cbe6020830184866149d9565b602081526000610dca6020830184614a02565b604081526000614c286040830185614a02565b8281036020840152610dc68185614a02565b60208082526029908201527f52656769737472793a2053454e4445525f49535f4e4f545f415050524f5645446040820152682fa7a92fa7aba722a960b91b606082015260800190565b60208082526032908201527f4552433732313a207472616e7366657220746f206e6f6e20455243373231526560408201527131b2b4bb32b91034b6b83632b6b2b73a32b960711b606082015260800190565b60208082526027908201527f52656769737472793a2053454e4445525f49535f4e4f545f4d494e54494e475f60408201526626a0a720a3a2a960c91b606082015260800190565b60208082526017908201527f52656769737472793a20544f4b454e5f494e56414c4944000000000000000000604082015260600190565b6020808252602b908201527f496e697469616c697a61626c653a20636f6e7472616374206973206e6f74206960408201526a6e697469616c697a696e6760a81b606082015260800190565b60208082526022908201527f52656769737472793a20494e53554646494349454e545f5045524d495353494f6040820152614e5360f01b606082015260800190565b6000808335601e19843603018112614df6578283fd5b8301803591506001600160401b03821115614e0f578283fd5b602001915036819003821315613ecb57600080fd5b604051601f8201601f191681016001600160401b0381118282101715614e4c57614e4c61508a565b604052919050565b60006001600160401b03821115614e6d57614e6d61508a565b5060051b60200190565b60008219821115614e8a57614e8a61505e565b500190565b600082614e9e57614e9e615074565b500490565b600082821015614eb557614eb561505e565b500390565b6000614ec861463784614e54565b808482526020808301925084368760051b87011115614ee5578485fd5b845b87811015614f235781356001600160401b03811115614f04578687fd5b614f1036828a0161415e565b8652509382019390820190600101614ee7565b50919695505050505050565b600060808236031215614f40578081fd5b604051608081016001600160401b038282108183111715614f6357614f6361508a565b8160405284359150614f74826150a0565b81835260208501356020840152604085013560408401526060850135915080821115614f9e578384fd5b50614fab3682860161415e565b60608301525092915050565b60005b83811015614fd2578181015183820152602001614fba565b838111156117955750506000910152565b600081614ff257614ff261505e565b506000190190565b600181811c9082168061500e57607f821691505b602082108114156116a757634e487b7160e01b600052602260045260246000fd5b60006000198214156150435761504361505e565b5060010190565b60008261505957615059615074565b500690565b634e487b7160e01b600052601160045260246000fd5b634e487b7160e01b600052601260045260246000fd5b634e487b7160e01b600052604160045260246000fd5b6001600160a01b0381168114610fe457600080fd5b6001600160e01b031981168114610fe457600080fdfebe2bb46ac0377341a1ec5c3116d70fd5029d704bd46292e58f6265dd177ebafea164736f6c6343000804000a",
  "linkReferences": {},
  "deployedLinkReferences": {}
}