{
  "_format": "hh-sol-artifact-1",
  "contractName": "UNSRegistry",
  "sourceName": "contracts/UNSRegistry.sol",
  "abi": [
    {
      "anonymous": false,
      "inputs": [
        {
          "indexed": false,
          "internalType": "address",
          "name": "previousAdmin",
          "type": "address"
        },
        {
          "indexed": false,
          "internalType": "address",
          "name": "newAdmin",
          "type": "address"
        }
      ],
      "name": "AdminChanged",
      "type": "event"
    },
    {
      "anonymous": false,
      "inputs": [
        {
          "indexed": true,
          "internalType": "address",
          "name": "owner",
          "type": "address"
        },
        {
          "indexed": true,
          "internalType": "address",
          "name": "approved",
          "type": "address"
        },
        {
          "indexed": true,
          "internalType": "uint256",
          "name": "tokenId",
          "type": "uint256"
        }
      ],
      "name": "Approval",
      "type": "event"
    },
    {
      "anonymous": false,
      "inputs": [
        {
          "indexed": true,
          "internalType": "address",
          "name": "owner",
          "type": "address"
        },
        {
          "indexed": true,
          "internalType": "address",
          "name": "operator",
          "type": "address"
        },
        {
          "indexed": false,
          "internalType": "bool",
          "name": "approved",
          "type": "bool"
        }
      ],
      "name": "ApprovalForAll",
      "type": "event"
    },
    {
      "anonymous": false,
      "inputs": [
        {
          "indexed": true,
          "internalType": "uint256",
          "name": "tokenId",
          "type": "uint256"
        },
        {
          "indexed": true,
          "internalType": "string",
          "name": "keyIndex",
          "type": "string"
        },
        {
          "indexed": false,
          "internalType": "string",
          "name": "key",
          "type": "string"
        }
      ],
      "name": "NewKey",
      "type": "event"
    },
    {
      "anonymous": false,
      "inputs": [
        {
          "indexed": true,
          "internalType": "uint256",
          "name": "tokenId",
          "type": "uint256"
        },
        {
          "indexed": false,
          "internalType": "string",
          "name": "uri",
          "type": "string"
        }
      ],
      "name": "NewURI",
      "type": "event"
    },
    {
      "anonymous": false,
      "inputs": [
        {
          "indexed": false,
          "internalType": "string",
          "name": "prefix",
          "type": "string"
        }
      ],
      "name": "NewURIPrefix",
      "type": "event"
    },
    {
      "anonymous": false,
      "inputs": [
        {
          "indexed": true,
          "internalType": "uint256",
          "name": "tokenId",
          "type": "uint256"
        }
      ],
      "name": "ResetRecords",
      "type": "event"
    },
    {
      "anonymous": false,
      "inputs": [
        {
          "indexed": true,
          "internalType": "uint256",
          "name": "tokenId",
          "type": "uint256"
        },
        {
          "indexed": true,
          "internalType": "string",
          "name": "keyIndex",
          "type": "string"
        },
        {
          "indexed": true,
          "internalType": "string",
          "name": "valueIndex",
          "type": "string"
        },
        {
          "indexed": false,
          "internalType": "string",
          "name": "key",
          "type": "string"
        },
        {
          "indexed": false,
          "internalType": "string",
          "name": "value",
          "type": "string"
        }
      ],
      "name": "Set",
      "type": "event"
    },
    {
      "anonymous": false,
      "inputs": [
        {
          "indexed": true,
          "internalType": "address",
          "name": "from",
          "type": "address"
        },
        {
          "indexed": true,
          "internalType": "address",
          "name": "to",
          "type": "address"
        },
        {
          "indexed": true,
          "internalType": "uint256",
          "name": "tokenId",
          "type": "uint256"
        }
      ],
      "name": "Transfer",
      "type": "event"
    },
    {
      "anonymous": false,
      "inputs": [
        {
          "indexed": true,
          "internalType": "address",
          "name": "implementation",
          "type": "address"
        }
      ],
      "name": "Upgraded",
      "type": "event"
    },
    {
      "inputs": [],
      "name": "NAME",
      "outputs": [
        {
          "internalType": "string",
          "name": "",
          "type": "string"
        }
      ],
      "stateMutability": "view",
      "type": "function"
    },
    {
      "inputs": [],
      "name": "VERSION",
      "outputs": [
        {
          "internalType": "string",
          "name": "",
          "type": "string"
        }
      ],
      "stateMutability": "view",
      "type": "function"
    },
    {
      "inputs": [
        {
          "internalType": "string",
          "name": "key",
          "type": "string"
        }
      ],
      "name": "addKey",
      "outputs": [],
      "stateMutability": "nonpayable",
      "type": "function"
    },
    {
      "inputs": [
        {
          "internalType": "address",
          "name": "to",
          "type": "address"
        },
        {
          "internalType": "uint256",
          "name": "tokenId",
          "type": "uint256"
        }
      ],
      "name": "approve",
      "outputs": [],
      "stateMutability": "nonpayable",
      "type": "function"
    },
    {
      "inputs": [
        {
          "internalType": "address",
          "name": "owner",
          "type": "address"
        }
      ],
      "name": "balanceOf",
      "outputs": [
        {
          "internalType": "uint256",
          "name": "",
          "type": "uint256"
        }
      ],
      "stateMutability": "view",
      "type": "function"
    },
    {
      "inputs": [
        {
          "internalType": "uint256",
          "name": "tokenId",
          "type": "uint256"
        }
      ],
      "name": "burn",
      "outputs": [],
      "stateMutability": "nonpayable",
      "type": "function"
    },
    {
      "inputs": [
        {
          "internalType": "uint256",
          "name": "tokenId",
          "type": "uint256"
        },
        {
          "internalType": "bytes",
          "name": "signature",
          "type": "bytes"
        }
      ],
      "name": "burnFor",
      "outputs": [],
      "stateMutability": "nonpayable",
      "type": "function"
    },
    {
      "inputs": [
        {
          "internalType": "uint256",
          "name": "tokenId",
          "type": "uint256"
        },
        {
          "internalType": "string",
          "name": "label",
          "type": "string"
        }
      ],
      "name": "childIdOf",
      "outputs": [
        {
          "internalType": "uint256",
          "name": "",
          "type": "uint256"
        }
      ],
      "stateMutability": "pure",
      "type": "function"
    },
    {
      "inputs": [
        {
          "internalType": "uint256",
          "name": "tokenId",
          "type": "uint256"
        }
      ],
      "name": "depositToPolygon",
      "outputs": [],
      "stateMutability": "nonpayable",
      "type": "function"
    },
    {
      "inputs": [
        {
          "components": [
            {
              "internalType": "address",
              "name": "from",
              "type": "address"
            },
            {
              "internalType": "uint256",
              "name": "nonce",
              "type": "uint256"
            },
            {
              "internalType": "uint256",
              "name": "tokenId",
              "type": "uint256"
            },
            {
              "internalType": "bytes",
              "name": "data",
              "type": "bytes"
            }
          ],
          "internalType": "struct IForwarder.ForwardRequest",
          "name": "req",
          "type": "tuple"
        },
        {
          "internalType": "bytes",
          "name": "signature",
          "type": "bytes"
        }
      ],
      "name": "execute",
      "outputs": [
        {
          "internalType": "bytes",
          "name": "",
          "type": "bytes"
        }
      ],
      "stateMutability": "nonpayable",
      "type": "function"
    },
    {
      "inputs": [
        {
          "internalType": "uint256",
          "name": "tokenId",
          "type": "uint256"
        }
      ],
      "name": "exists",
      "outputs": [
        {
          "internalType": "bool",
          "name": "",
          "type": "bool"
        }
      ],
      "stateMutability": "view",
      "type": "function"
    },
    {
      "inputs": [
        {
          "internalType": "string",
          "name": "key",
          "type": "string"
        },
        {
          "internalType": "uint256",
          "name": "tokenId",
          "type": "uint256"
        }
      ],
      "name": "get",
      "outputs": [
        {
          "internalType": "string",
          "name": "value",
          "type": "string"
        }
      ],
      "stateMutability": "view",
      "type": "function"
    },
    {
      "inputs": [
        {
          "internalType": "uint256",
          "name": "tokenId",
          "type": "uint256"
        }
      ],
      "name": "getApproved",
      "outputs": [
        {
          "internalType": "address",
          "name": "",
          "type": "address"
        }
      ],
      "stateMutability": "view",
      "type": "function"
    },
    {
      "inputs": [
        {
          "internalType": "uint256",
          "name": "keyHash",
          "type": "uint256"
        },
        {
          "internalType": "uint256",
          "name": "tokenId",
          "type": "uint256"
        }
      ],
      "name": "getByHash",
      "outputs": [
        {
          "internalType": "string",
          "name": "key",
          "type": "string"
        },
        {
          "internalType": "string",
          "name": "value",
          "type": "string"
        }
      ],
      "stateMutability": "view",
      "type": "function"
    },
    {
      "inputs": [
        {
          "internalType": "uint256",
          "name": "keyHash",
          "type": "uint256"
        }
      ],
      "name": "getKey",
      "outputs": [
        {
          "internalType": "string",
          "name": "",
          "type": "string"
        }
      ],
      "stateMutability": "view",
      "type": "function"
    },
    {
      "inputs": [
        {
          "internalType": "uint256[]",
          "name": "hashes",
          "type": "uint256[]"
        }
      ],
      "name": "getKeys",
      "outputs": [
        {
          "internalType": "string[]",
          "name": "values",
          "type": "string[]"
        }
      ],
      "stateMutability": "view",
      "type": "function"
    },
    {
      "inputs": [
        {
          "internalType": "string[]",
          "name": "keys",
          "type": "string[]"
        },
        {
          "internalType": "uint256",
          "name": "tokenId",
          "type": "uint256"
        }
      ],
      "name": "getMany",
      "outputs": [
        {
          "internalType": "string[]",
          "name": "values",
          "type": "string[]"
        }
      ],
      "stateMutability": "view",
      "type": "function"
    },
    {
      "inputs": [
        {
          "internalType": "uint256[]",
          "name": "keyHashes",
          "type": "uint256[]"
        },
        {
          "internalType": "uint256",
          "name": "tokenId",
          "type": "uint256"
        }
      ],
      "name": "getManyByHash",
      "outputs": [
        {
          "internalType": "string[]",
          "name": "keys",
          "type": "string[]"
        },
        {
          "internalType": "string[]",
          "name": "values",
          "type": "string[]"
        }
      ],
      "stateMutability": "view",
      "type": "function"
    },
    {
      "inputs": [
        {
          "internalType": "address",
          "name": "mintingManager",
          "type": "address"
        }
      ],
      "name": "initialize",
      "outputs": [],
      "stateMutability": "nonpayable",
      "type": "function"
    },
    {
      "inputs": [
        {
          "internalType": "address",
          "name": "owner",
          "type": "address"
        },
        {
          "internalType": "address",
          "name": "operator",
          "type": "address"
        }
      ],
      "name": "isApprovedForAll",
      "outputs": [
        {
          "internalType": "bool",
          "name": "",
          "type": "bool"
        }
      ],
      "stateMutability": "view",
      "type": "function"
    },
    {
      "inputs": [
        {
          "internalType": "address",
          "name": "spender",
          "type": "address"
        },
        {
          "internalType": "uint256",
          "name": "tokenId",
          "type": "uint256"
        }
      ],
      "name": "isApprovedOrOwner",
      "outputs": [
        {
          "internalType": "bool",
          "name": "",
          "type": "bool"
        }
      ],
      "stateMutability": "view",
      "type": "function"
    },
    {
      "inputs": [
        {
          "internalType": "address",
          "name": "forwarder",
          "type": "address"
        }
      ],
      "name": "isTrustedForwarder",
      "outputs": [
        {
          "internalType": "bool",
          "name": "",
          "type": "bool"
        }
      ],
      "stateMutability": "view",
      "type": "function"
    },
    {
      "inputs": [
        {
          "internalType": "address",
          "name": "to",
          "type": "address"
        },
        {
          "internalType": "uint256",
          "name": "tokenId",
          "type": "uint256"
        },
        {
          "internalType": "string",
          "name": "uri",
          "type": "string"
        }
      ],
      "name": "mint",
      "outputs": [],
      "stateMutability": "nonpayable",
      "type": "function"
    },
    {
      "inputs": [
        {
          "internalType": "address",
          "name": "to",
          "type": "address"
        },
        {
          "internalType": "uint256",
          "name": "tokenId",
          "type": "uint256"
        },
        {
          "internalType": "string",
          "name": "uri",
          "type": "string"
        },
        {
          "internalType": "string[]",
          "name": "keys",
          "type": "string[]"
        },
        {
          "internalType": "string[]",
          "name": "values",
          "type": "string[]"
        }
      ],
      "name": "mintWithRecords",
      "outputs": [],
      "stateMutability": "nonpayable",
      "type": "function"
    },
    {
      "inputs": [],
      "name": "name",
      "outputs": [
        {
          "internalType": "string",
          "name": "",
          "type": "string"
        }
      ],
      "stateMutability": "view",
      "type": "function"
    },
    {
      "inputs": [
        {
          "internalType": "uint256",
          "name": "tokenId",
          "type": "uint256"
        }
      ],
      "name": "nonceOf",
      "outputs": [
        {
          "internalType": "uint256",
          "name": "",
          "type": "uint256"
        }
      ],
      "stateMutability": "view",
      "type": "function"
    },
    {
      "inputs": [
        {
          "internalType": "address",
          "name": "",
          "type": "address"
        },
        {
          "internalType": "address",
          "name": "from",
          "type": "address"
        },
        {
          "internalType": "uint256",
          "name": "tokenId",
          "type": "uint256"
        },
        {
          "internalType": "bytes",
          "name": "data",
          "type": "bytes"
        }
      ],
      "name": "onERC721Received",
      "outputs": [
        {
          "internalType": "bytes4",
          "name": "",
          "type": "bytes4"
        }
      ],
      "stateMutability": "nonpayable",
      "type": "function"
    },
    {
      "inputs": [
        {
          "internalType": "uint256",
          "name": "tokenId",
          "type": "uint256"
        }
      ],
      "name": "ownerOf",
      "outputs": [
        {
          "internalType": "address",
          "name": "",
          "type": "address"
        }
      ],
      "stateMutability": "view",
      "type": "function"
    },
    {
      "inputs": [
        {
          "internalType": "string[]",
          "name": "keys",
          "type": "string[]"
        },
        {
          "internalType": "string[]",
          "name": "values",
          "type": "string[]"
        },
        {
          "internalType": "uint256",
          "name": "tokenId",
          "type": "uint256"
        }
      ],
      "name": "reconfigure",
      "outputs": [],
      "stateMutability": "nonpayable",
      "type": "function"
    },
    {
      "inputs": [
        {
          "internalType": "string[]",
          "name": "keys",
          "type": "string[]"
        },
        {
          "internalType": "string[]",
          "name": "values",
          "type": "string[]"
        },
        {
          "internalType": "uint256",
          "name": "tokenId",
          "type": "uint256"
        },
        {
          "internalType": "bytes",
          "name": "signature",
          "type": "bytes"
        }
      ],
      "name": "reconfigureFor",
      "outputs": [],
      "stateMutability": "nonpayable",
      "type": "function"
    },
    {
      "inputs": [
        {
          "internalType": "uint256",
          "name": "tokenId",
          "type": "uint256"
        }
      ],
      "name": "reset",
      "outputs": [],
      "stateMutability": "nonpayable",
      "type": "function"
    },
    {
      "inputs": [
        {
          "internalType": "uint256",
          "name": "tokenId",
          "type": "uint256"
        },
        {
          "internalType": "bytes",
          "name": "signature",
          "type": "bytes"
        }
      ],
      "name": "resetFor",
      "outputs": [],
      "stateMutability": "nonpayable",
      "type": "function"
    },
    {
      "inputs": [
        {
          "internalType": "uint256",
          "name": "tokenId",
          "type": "uint256"
        }
      ],
      "name": "resolverOf",
      "outputs": [
        {
          "internalType": "address",
          "name": "",
          "type": "address"
        }
      ],
      "stateMutability": "view",
      "type": "function"
    },
    {
      "inputs": [],
      "name": "root",
      "outputs": [
        {
          "internalType": "uint256",
          "name": "",
          "type": "uint256"
        }
      ],
      "stateMutability": "pure",
      "type": "function"
    },
    {
      "inputs": [
        {
          "internalType": "address",
          "name": "to",
          "type": "address"
        },
        {
          "internalType": "uint256",
          "name": "tokenId",
          "type": "uint256"
        },
        {
          "internalType": "string",
          "name": "uri",
          "type": "string"
        },
        {
          "internalType": "bytes",
          "name": "data",
          "type": "bytes"
        }
      ],
      "name": "safeMint",
      "outputs": [],
      "stateMutability": "nonpayable",
      "type": "function"
    },
    {
      "inputs": [
        {
          "internalType": "address",
          "name": "to",
          "type": "address"
        },
        {
          "internalType": "uint256",
          "name": "tokenId",
          "type": "uint256"
        },
        {
          "internalType": "string",
          "name": "uri",
          "type": "string"
        }
      ],
      "name": "safeMint",
      "outputs": [],
      "stateMutability": "nonpayable",
      "type": "function"
    },
    {
      "inputs": [
        {
          "internalType": "address",
          "name": "to",
          "type": "address"
        },
        {
          "internalType": "uint256",
          "name": "tokenId",
          "type": "uint256"
        },
        {
          "internalType": "string",
          "name": "uri",
          "type": "string"
        },
        {
          "internalType": "string[]",
          "name": "keys",
          "type": "string[]"
        },
        {
          "internalType": "string[]",
          "name": "values",
          "type": "string[]"
        }
      ],
      "name": "safeMintWithRecords",
      "outputs": [],
      "stateMutability": "nonpayable",
      "type": "function"
    },
    {
      "inputs": [
        {
          "internalType": "address",
          "name": "to",
          "type": "address"
        },
        {
          "internalType": "uint256",
          "name": "tokenId",
          "type": "uint256"
        },
        {
          "internalType": "string",
          "name": "uri",
          "type": "string"
        },
        {
          "internalType": "string[]",
          "name": "keys",
          "type": "string[]"
        },
        {
          "internalType": "string[]",
          "name": "values",
          "type": "string[]"
        },
        {
          "internalType": "bytes",
          "name": "data",
          "type": "bytes"
        }
      ],
      "name": "safeMintWithRecords",
      "outputs": [],
      "stateMutability": "nonpayable",
      "type": "function"
    },
    {
      "inputs": [
        {
          "internalType": "address",
          "name": "from",
          "type": "address"
        },
        {
          "internalType": "address",
          "name": "to",
          "type": "address"
        },
        {
          "internalType": "uint256",
          "name": "tokenId",
          "type": "uint256"
        }
      ],
      "name": "safeTransferFrom",
      "outputs": [],
      "stateMutability": "nonpayable",
      "type": "function"
    },
    {
      "inputs": [
        {
          "internalType": "address",
          "name": "from",
          "type": "address"
        },
        {
          "internalType": "address",
          "name": "to",
          "type": "address"
        },
        {
          "internalType": "uint256",
          "name": "tokenId",
          "type": "uint256"
        },
        {
          "internalType": "bytes",
          "name": "data",
          "type": "bytes"
        }
      ],
      "name": "safeTransferFrom",
      "outputs": [],
      "stateMutability": "nonpayable",
      "type": "function"
    },
    {
      "inputs": [
        {
          "internalType": "address",
          "name": "from",
          "type": "address"
        },
        {
          "internalType": "address",
          "name": "to",
          "type": "address"
        },
        {
          "internalType": "uint256",
          "name": "tokenId",
          "type": "uint256"
        },
        {
          "internalType": "bytes",
          "name": "data",
          "type": "bytes"
        },
        {
          "internalType": "bytes",
          "name": "signature",
          "type": "bytes"
        }
      ],
      "name": "safeTransferFromFor",
      "outputs": [],
      "stateMutability": "nonpayable",
      "type": "function"
    },
    {
      "inputs": [
        {
          "internalType": "address",
          "name": "from",
          "type": "address"
        },
        {
          "internalType": "address",
          "name": "to",
          "type": "address"
        },
        {
          "internalType": "uint256",
          "name": "tokenId",
          "type": "uint256"
        },
        {
          "internalType": "bytes",
          "name": "signature",
          "type": "bytes"
        }
      ],
      "name": "safeTransferFromFor",
      "outputs": [],
      "stateMutability": "nonpayable",
      "type": "function"
    },
    {
      "inputs": [
        {
          "internalType": "string",
          "name": "key",
          "type": "string"
        },
        {
          "internalType": "string",
          "name": "value",
          "type": "string"
        },
        {
          "internalType": "uint256",
          "name": "tokenId",
          "type": "uint256"
        }
      ],
      "name": "set",
      "outputs": [],
      "stateMutability": "nonpayable",
      "type": "function"
    },
    {
      "inputs": [
        {
          "internalType": "address",
          "name": "operator",
          "type": "address"
        },
        {
          "internalType": "bool",
          "name": "approved",
          "type": "bool"
        }
      ],
      "name": "setApprovalForAll",
      "outputs": [],
      "stateMutability": "nonpayable",
      "type": "function"
    },
    {
      "inputs": [
        {
          "internalType": "uint256",
          "name": "keyHash",
          "type": "uint256"
        },
        {
          "internalType": "string",
          "name": "value",
          "type": "string"
        },
        {
          "internalType": "uint256",
          "name": "tokenId",
          "type": "uint256"
        }
      ],
      "name": "setByHash",
      "outputs": [],
      "stateMutability": "nonpayable",
      "type": "function"
    },
    {
      "inputs": [
        {
          "internalType": "address",
          "name": "rootChainManager",
          "type": "address"
        }
      ],
      "name": "setCNSRegistry",
      "outputs": [],
      "stateMutability": "nonpayable",
      "type": "function"
    },
    {
      "inputs": [
        {
          "internalType": "string",
          "name": "key",
          "type": "string"
        },
        {
          "internalType": "string",
          "name": "value",
          "type": "string"
        },
        {
          "internalType": "uint256",
          "name": "tokenId",
          "type": "uint256"
        },
        {
          "internalType": "bytes",
          "name": "signature",
          "type": "bytes"
        }
      ],
      "name": "setFor",
      "outputs": [],
      "stateMutability": "nonpayable",
      "type": "function"
    },
    {
      "inputs": [
        {
          "internalType": "string[]",
          "name": "keys",
          "type": "string[]"
        },
        {
          "internalType": "string[]",
          "name": "values",
          "type": "string[]"
        },
        {
          "internalType": "uint256",
          "name": "tokenId",
          "type": "uint256"
        }
      ],
      "name": "setMany",
      "outputs": [],
      "stateMutability": "nonpayable",
      "type": "function"
    },
    {
      "inputs": [
        {
          "internalType": "uint256[]",
          "name": "keyHashes",
          "type": "uint256[]"
        },
        {
          "internalType": "string[]",
          "name": "values",
          "type": "string[]"
        },
        {
          "internalType": "uint256",
          "name": "tokenId",
          "type": "uint256"
        }
      ],
      "name": "setManyByHash",
      "outputs": [],
      "stateMutability": "nonpayable",
      "type": "function"
    },
    {
      "inputs": [
        {
          "internalType": "string[]",
          "name": "keys",
          "type": "string[]"
        },
        {
          "internalType": "string[]",
          "name": "values",
          "type": "string[]"
        },
        {
          "internalType": "uint256",
          "name": "tokenId",
          "type": "uint256"
        },
        {
          "internalType": "bytes",
          "name": "signature",
          "type": "bytes"
        }
      ],
      "name": "setManyFor",
      "outputs": [],
      "stateMutability": "nonpayable",
      "type": "function"
    },
    {
      "inputs": [
        {
          "internalType": "address",
          "name": "to",
          "type": "address"
        },
        {
          "internalType": "uint256",
          "name": "tokenId",
          "type": "uint256"
        }
      ],
      "name": "setOwner",
      "outputs": [],
      "stateMutability": "nonpayable",
      "type": "function"
    },
    {
      "inputs": [
        {
          "internalType": "address",
          "name": "rootChainManager",
          "type": "address"
        }
      ],
      "name": "setRootChainManager",
      "outputs": [],
      "stateMutability": "nonpayable",
      "type": "function"
    },
    {
      "inputs": [
        {
          "internalType": "string",
          "name": "prefix",
          "type": "string"
        }
      ],
      "name": "setTokenURIPrefix",
      "outputs": [],
      "stateMutability": "nonpayable",
      "type": "function"
    },
    {
      "inputs": [
        {
          "internalType": "bytes4",
          "name": "interfaceId",
          "type": "bytes4"
        }
      ],
      "name": "supportsInterface",
      "outputs": [
        {
          "internalType": "bool",
          "name": "",
          "type": "bool"
        }
      ],
      "stateMutability": "view",
      "type": "function"
    },
    {
      "inputs": [],
      "name": "symbol",
      "outputs": [
        {
          "internalType": "string",
          "name": "",
          "type": "string"
        }
      ],
      "stateMutability": "view",
      "type": "function"
    },
    {
      "inputs": [
        {
          "internalType": "uint256",
          "name": "tokenId",
          "type": "uint256"
        }
      ],
      "name": "tokenURI",
      "outputs": [
        {
          "internalType": "string",
          "name": "",
          "type": "string"
        }
      ],
      "stateMutability": "view",
      "type": "function"
    },
    {
      "inputs": [
        {
          "internalType": "address",
          "name": "from",
          "type": "address"
        },
        {
          "internalType": "address",
          "name": "to",
          "type": "address"
        },
        {
          "internalType": "uint256",
          "name": "tokenId",
          "type": "uint256"
        }
      ],
      "name": "transferFrom",
      "outputs": [],
      "stateMutability": "nonpayable",
      "type": "function"
    },
    {
      "inputs": [
        {
          "internalType": "address",
          "name": "from",
          "type": "address"
        },
        {
          "internalType": "address",
          "name": "to",
          "type": "address"
        },
        {
          "internalType": "uint256",
          "name": "tokenId",
          "type": "uint256"
        },
        {
          "internalType": "bytes",
          "name": "signature",
          "type": "bytes"
        }
      ],
      "name": "transferFromFor",
      "outputs": [],
      "stateMutability": "nonpayable",
      "type": "function"
    },
    {
      "inputs": [
        {
          "components": [
            {
              "internalType": "address",
              "name": "from",
              "type": "address"
            },
            {
              "internalType": "uint256",
              "name": "nonce",
              "type": "uint256"
            },
            {
              "internalType": "uint256",
              "name": "tokenId",
              "type": "uint256"
            },
            {
              "internalType": "bytes",
              "name": "data",
              "type": "bytes"
            }
          ],
          "internalType": "struct IForwarder.ForwardRequest",
          "name": "req",
          "type": "tuple"
        },
        {
          "internalType": "bytes",
          "name": "signature",
          "type": "bytes"
        }
      ],
      "name": "verify",
      "outputs": [
        {
          "internalType": "bool",
          "name": "",
          "type": "bool"
        }
      ],
      "stateMutability": "view",
      "type": "function"
    }
  ],
  "bytecode": "0x608060405234801561001057600080fd5b50614f33806100206000396000f3fe608060405234801561001057600080fd5b50600436106103995760003560e01c8063728a44d8116101e9578063b88d4fde1161010f578063d3fc9864116100ad578063ef2c30881161007c578063ef2c3088146107fc578063efda4d3e1461080f578063f5c1f76e14610822578063ffa1ad741461083557610399565b8063d3fc9864146107bb578063e985e9c5146107ce578063ebf0c717146107e1578063ec129eea146107e957610399565b8063c5974073116100e9578063c59740731461076f578063c87b56dd14610782578063cd279c7c14610795578063ce92b33e146107a857610399565b8063b88d4fde14610736578063bb5b27e114610749578063c4d66de81461075c57610399565b8063a3f4df7e11610187578063b3f9e4cb11610156578063b3f9e4cb146106dc578063b55bc617146106ef578063b85afd2814610702578063b87abc111461072357610399565b8063a3f4df7e1461069b578063a4247400146106a3578063ab3b87fe146106b6578063b0f59177146106c957610399565b806395d89b41116101c357806395d89b411461065a57806399e0dd7c14610662578063a22cb46514610675578063a3557e6c1461068857610399565b8063728a44d8146106215780637f139a00146106345780638f69c1881461064757610399565b8063430c2081116102ce57806361603dd91161026c57806368b62d321161023b57806368b62d32146105c85780636ccbae5f146105e85780636debcb8d146105fb57806370a082311461060e57610399565b806361603dd91461056e5780636352211e14610581578063638e5c7814610594578063672b9f81146105a757610399565b80634a72584d116102a85780634a72584d146105225780634f558e791461053557806350382c1a14610548578063572b6c051461055b57610399565b8063430c2081146104e95780634348b562146104fc57806347c816991461050f57610399565b80631bf7e13e1161033b578063280d9b0511610315578063280d9b051461049d578063310bd74b146104b057806342842e0e146104c357806342966c68146104d657610399565b80631bf7e13e1461046457806323b872dd1461047757806327f189751461048a57610399565b8063095ea7b311610377578063095ea7b3146103fc578063150b7a02146104115780631bd8cc1a146104315780631be5e7ed1461045157610399565b806301ffc9a71461039e57806306fdde03146103c7578063081812fc146103dc575b600080fd5b6103b16103ac366004613ef8565b61083d565b6040516103be9190614554565b60405180910390f35b6103cf610850565b6040516103be9190614592565b6103ef6103ea366004614107565b6108e3565b6040516103be919061440c565b61040f61040a366004613ab7565b61092f565b005b61042461041f366004613918565b610981565b6040516103be919061457d565b61044461043f366004613e3e565b610a9f565b6040516103be919061451c565b6103cf61045f366004614021565b610bbf565b6103cf61047236600461409b565b610c0a565b61040f6104853660046138d8565b610cd5565b61040f610498366004613d4f565b610d61565b61040f6104ab366004613988565b610de2565b61040f6104be366004614107565b610e7e565b61040f6104d13660046138d8565b610ef2565b61040f6104e4366004614107565b610f0d565b6103b16104f7366004613ab7565b610f8a565b61040f61050a366004613b3b565b610f96565b61040f61051d366004613f63565b610ffb565b61040f61053036600461415b565b611073565b6103b1610543366004614107565b6110f2565b61040f610556366004614056565b6110fd565b6103b1610569366004613868565b611133565b61040f61057c36600461411f565b611144565b6103ef61058f366004614107565b6111cd565b61040f6105a2366004614107565b611202565b6105ba6105b53660046141ab565b611251565b6040516103be9291906145e0565b6105db6105d636600461411f565b611269565b6040516103be91906143f5565b6105db6105f6366004614107565b6112ab565b61040f610609366004613918565b6112be565b6105db61061c366004613868565b6112e0565b61040f61062f366004613868565b611324565b61040f610642366004613868565b6113c1565b61040f610655366004613dbf565b61143d565b6103cf611463565b61040f610670366004613f30565b611472565b61040f610683366004613a8c565b6114f8565b61040f610696366004613dbf565b6115c6565b6103cf6115ec565b6103b16106b136600461409b565b611615565b61040f6106c4366004613ab7565b611660565b61040f6106d7366004613b3b565b6116e4565b6103ef6106ea366004614107565b61176d565b61040f6106fd366004613cc7565b61178a565b610715610710366004613e3e565b61183a565b6040516103be92919061452f565b61040f61073136600461411f565b6119a2565b61040f610744366004613a23565b6119c0565b6103cf610757366004614107565b611a40565b61040f61076a366004613868565b611ae2565b61040f61077d366004613fc1565b611bcf565b6103cf610790366004614107565b611bf5565b61040f6107a3366004613ae2565b611c77565b61040f6107b6366004613d4f565b611d01565b61040f6107c9366004613ae2565b611d79565b6103b16107dc3660046138a0565b611df5565b6105db611e23565b61040f6107f7366004613d4f565b611e28565b61040f61080a366004613918565b611ea0565b61040f61081d366004613bec565b611ec2565b610444610830366004613e87565b611f50565b6103cf61202d565b60006108488261204e565b90505b919050565b60606065805461085f90614e4f565b80601f016020809104026020016040519081016040528092919081815260200182805461088b90614e4f565b80156108d85780601f106108ad576101008083540402835291602001916108d8565b820191906000526020600020905b8154815290600101906020018083116108bb57829003601f168201915b505050505090505b90565b60006108ee8261208e565b6109135760405162461bcd60e51b815260040161090a90614b33565b60405180910390fd5b506000908152606960205260409020546001600160a01b031690565b8061093933611133565b15610969576109466120ab565b81146109645760405162461bcd60e51b815260040161090a90614912565b610972565b610972816120c5565b61097c83836120f3565b505050565b60006109ac7fbe2bb46ac0377341a1ec5c3116d70fd5029d704bd46292e58f6265dd177ebaff6108e0565b546001600160a01b03166109be612186565b6001600160a01b03161415610a7e576109d5612186565b6001600160a01b03166342966c68856040518263ffffffff1660e01b8152600401610a0091906143f5565b600060405180830381600087803b158015610a1a57600080fd5b505af1158015610a2e573d6000803e3d6000fd5b505050821580159150610a485750610a4882840184613ec6565b15610a6657610a573085612195565b610a618585612274565b610a70565b610a708585612195565b50630a85bd0160e11b610a96565b60405162461bcd60e51b815260040161090a9061477c565b95945050505050565b6060826001600160401b03811115610ac757634e487b7160e01b600052604160045260246000fd5b604051908082528060200260200182016040528015610afa57816020015b6060815260200190600190039081610ae55790505b50905060005b83811015610bb757610b79858583818110610b2b57634e487b7160e01b600052603260045260246000fd5b9050602002810190610b3d9190614d14565b8080601f01602080910402602001604051908101604052809392919081815260200183838082843760009201919091525087925061242c915050565b828281518110610b9957634e487b7160e01b600052603260045260246000fd5b60200260200101819052508080610baf90614e8a565b915050610b00565b509392505050565b6060610c0284848080601f01602080910402602001604051908101604052809392919081815260200183838082843760009201919091525086925061242c915050565b949350505050565b606060005a9050610c1c858585611615565b610c385760405162461bcd60e51b815260040161090a90614c5d565b610cca610c486020870187613868565b30604088013584610c5c60608b018b614d14565b8080601f01602080910402602001604051908101604052809392919081815260200183838082843760009201919091525050604080516020601f8e018190048102820181019092528c815292508c91508b908190840183828082843760009201919091525061246192505050565b9150505b9392505050565b80610ce7610ce1612186565b82612550565b610d035760405162461bcd60e51b815260040161090a90614673565b81610d0d33611133565b15610d3d57610d1a6120ab565b8114610d385760405162461bcd60e51b815260040161090a90614912565b610d46565b610d46816120c5565b610d4f836125cd565b610d5a858585612638565b5050505050565b80610d6d610ce1612186565b610d895760405162461bcd60e51b815260040161090a90614673565b81610d9333611133565b15610dc357610da06120ab565b8114610dbe5760405162461bcd60e51b815260040161090a90614912565b610dcc565b610dcc816120c5565b610dd98787878787612765565b50505050505050565b60005a9050610e7363b88d4fde8989898989604051602401610e08959493929190614470565b6040516020818303038152906040529060e01b6020820180516001600160e01b0383818316178352505050508785858080601f0160208091040260200160405190810160405280939291908181526020018383808284376000920191909152508792506127e4915050565b505050505050505050565b80610e8a610ce1612186565b610ea65760405162461bcd60e51b815260040161090a90614673565b81610eb033611133565b15610ee057610ebd6120ab565b8114610edb5760405162461bcd60e51b815260040161090a90614912565b610ee9565b610ee9816120c5565b61097c836125cd565b61097c838383604051806020016040528060008152506119c0565b80610f19610ce1612186565b610f355760405162461bcd60e51b815260040161090a90614673565b81610f3f33611133565b15610f6f57610f4c6120ab565b8114610f6a5760405162461bcd60e51b815260040161090a90614912565b610f78565b610f78816120c5565b610f81836125cd565b61097c83612829565b6000610cce8383612550565b610134546001600160a01b0316610fab612186565b6001600160a01b031614610fd15760405162461bcd60e51b815260040161090a9061487f565b610ff18888888888888888604051806020016040528060008152506128d0565b5050505050505050565b80611007610ce1612186565b6110235760405162461bcd60e51b815260040161090a90614673565b8161102d33611133565b1561105d5761103a6120ab565b81146110585760405162461bcd60e51b815260040161090a90614912565b611066565b611066816120c5565b610dd98787878787612920565b8061107f610ce1612186565b61109b5760405162461bcd60e51b815260040161090a90614673565b816110a533611133565b156110d5576110b26120ab565b81146110d05760405162461bcd60e51b815260040161090a90614912565b6110de565b6110de816120c5565b6110ea868686866129ff565b505050505050565b60006108488261208e565b61113081604051602001611111919061432a565b6040516020818303038152906040528051906020012060001c82612a6f565b50565b6001600160a01b0381163014919050565b60005a9050610d5a6342966c688560405160240161116291906143f5565b6040516020818303038152906040529060e01b6020820180516001600160e01b0383818316178352505050508585858080601f0160208091040260200160405190810160405280939291908181526020018383808284376000920191909152508792506127e4915050565b6000818152606760205260408120546001600160a01b0316806108485760405162461bcd60e51b815260040161090a906149f0565b8061120e610ce1612186565b61122a5760405162461bcd60e51b815260040161090a90614673565b61123c611235612186565b3084612638565b61124d611247612186565b83612274565b5050565b60608061125e8484612a9b565b909590945092505050565b6000610c028484848080601f016020809104026020016040519081016040528093929190818152602001838380828437600092019190915250612abc92505050565b6000908152610100602052604090205490565b60005a9050610dd96342842e0e8787876040516024016111629392919061444c565b60006001600160a01b0382166113085760405162461bcd60e51b815260040161090a906149a6565b506001600160a01b031660009081526068602052604090205490565b600061134f7fbe2bb46ac0377341a1ec5c3116d70fd5029d704bd46292e58f6265dd177ebafe6108e0565b546001600160a01b0316146113765760405162461bcd60e51b815260040161090a90614b7f565b806113a07fbe2bb46ac0377341a1ec5c3116d70fd5029d704bd46292e58f6265dd177ebafe6108e0565b80546001600160a01b0319166001600160a01b039290921691909117905550565b60006113ec7fbe2bb46ac0377341a1ec5c3116d70fd5029d704bd46292e58f6265dd177ebaff6108e0565b546001600160a01b0316146114135760405162461bcd60e51b815260040161090a90614ac9565b806113a07fbe2bb46ac0377341a1ec5c3116d70fd5029d704bd46292e58f6265dd177ebaff6108e0565b60005a9050610e7363ce92b33e89898989896040516024016111629594939291906144e2565b60606066805461085f90614e4f565b610134546001600160a01b0316611487612186565b6001600160a01b0316146114ad5760405162461bcd60e51b815260040161090a9061487f565b6114ba610133838361362f565b507f4b120d6a959a84a520fa48f5f937cca0e79129423487af7901213b5d2e89313b82826040516114ec9291906145a5565b60405180910390a15050565b611500612186565b6001600160a01b0316826001600160a01b031614156115315760405162461bcd60e51b815260040161090a90614806565b80606a600061153e612186565b6001600160a01b03908116825260208083019390935260409182016000908120918716808252919093529120805460ff191692151592909217909155611582612186565b6001600160a01b03167f17307eab39ab6107e8899845ad3d59bd9653f200f220920489ca2b5937696c31836040516115ba9190614554565b60405180910390a35050565b60005a9050610e7363ec129eea89898989896040516024016111629594939291906144e2565b6040518060400160405280600d81526020016c554e533a20526567697374727960981b81525081565b6000610c0261162385614d9b565b3085858080601f016020809104026020016040519081016040528093929190818152602001838380828437600092019190915250612b3892505050565b8061166c610ce1612186565b6116885760405162461bcd60e51b815260040161090a90614673565b8161169233611133565b156116c25761169f6120ab565b81146116bd5760405162461bcd60e51b815260040161090a90614912565b6116cb565b6116cb816120c5565b6116de6116d7846111cd565b8585612638565b50505050565b610134546001600160a01b03166116f9612186565b6001600160a01b03161461171f5760405162461bcd60e51b815260040161090a9061487f565b611760888888888080601f016020809104026020016040519081016040528093929190818152602001838380828437600092019190915250612bf992505050565b610ff1848484848b612c40565b60006117788261208e565b611783576000610848565b5030919050565b610134546001600160a01b031661179f612186565b6001600160a01b0316146117c55760405162461bcd60e51b815260040161090a9061487f565b6110ea868686868080601f01602080910402602001604051908101604052809392919081815260200183838082843760009201919091525050604080516020601f8a018190048102820181019092528881529250889150879081908401838280828437600092019190915250612cca92505050565b606080836001600160401b0381111561186357634e487b7160e01b600052604160045260246000fd5b60405190808252806020026020018201604052801561189657816020015b60608152602001906001900390816118815790505b509150836001600160401b038111156118bf57634e487b7160e01b600052604160045260246000fd5b6040519080825280602002602001820160405280156118f257816020015b60608152602001906001900390816118dd5790505b50905060005b848110156119995761193086868381811061192357634e487b7160e01b600052603260045260246000fd5b9050602002013585612a9b565b84838151811061195057634e487b7160e01b600052603260045260246000fd5b6020026020010184848151811061197757634e487b7160e01b600052603260045260246000fd5b602002602001018290528290525050808061199190614e8a565b9150506118f8565b50935093915050565b60005a9050610d5a63310bd74b8560405160240161116291906143f5565b816119cc610ce1612186565b6119e85760405162461bcd60e51b815260040161090a90614673565b826119f233611133565b15611a22576119ff6120ab565b8114611a1d5760405162461bcd60e51b815260040161090a90614912565b611a2b565b611a2b816120c5565b611a34846125cd565b6110ea86868686612d13565b600081815260c960205260409020805460609190611a5d90614e4f565b80601f0160208091040260200160405190810160405280929190818152602001828054611a8990614e4f565b8015611ad65780601f10611aab57610100808354040283529160200191611ad6565b820191906000526020600020905b815481529060010190602001808311611ab957829003601f168201915b50505050509050919050565b600054610100900460ff1680611afb575060005460ff16155b611b175760405162461bcd60e51b815260040161090a90614a39565b600054610100900460ff16158015611b42576000805460ff1961ff0019909116610100171660011790555b61013480546001600160a01b0319166001600160a01b0384161790556040805180820182526013815272556e73746f707061626c6520446f6d61696e7360681b60208083019190915282518084019093526002835261155160f21b90830152611baa91612d46565b611bb2612de4565b611bba612de4565b801561124d576000805461ff00191690555050565b60005a9050610e736347c8169989898989896040516024016111629594939291906145b9565b6060611c008261208e565b611c1c5760405162461bcd60e51b815260040161090a90614c0e565b6000611c26612e58565b90506000815111611c465760405180602001604052806000815250610cce565b80611c5084612e68565b604051602001611c61929190614395565b6040516020818303038152906040529392505050565b610134546001600160a01b0316611c8c612186565b6001600160a01b031614611cb25760405162461bcd60e51b815260040161090a9061487f565b6116de848484848080601f016020809104026020016040519081016040528093929190818152602001838380828437600092018290525060408051602081019091529081529250612cca915050565b80611d0d610ce1612186565b611d295760405162461bcd60e51b815260040161090a90614673565b81611d3333611133565b15611d6357611d406120ab565b8114611d5e5760405162461bcd60e51b815260040161090a90614912565b611d6c565b611d6c816120c5565b610dd98787878787612c40565b610134546001600160a01b0316611d8e612186565b6001600160a01b031614611db45760405162461bcd60e51b815260040161090a9061487f565b6116de848484848080601f016020809104026020016040519081016040528093929190818152602001838380828437600092019190915250612bf992505050565b6001600160a01b039182166000908152606a6020908152604080832093909416825291909152205460ff1690565b600090565b80611e34610ce1612186565b611e505760405162461bcd60e51b815260040161090a90614673565b81611e5a33611133565b15611e8a57611e676120ab565b8114611e855760405162461bcd60e51b815260040161090a90614912565b611e93565b611e93816120c5565b610dd98787878787612f82565b60005a9050610dd96323b872dd8787876040516024016111629392919061444c565b610134546001600160a01b0316611ed7612186565b6001600160a01b031614611efd5760405162461bcd60e51b815260040161090a9061487f565b611f448a8a8a8a8a8a8a8a8a8a8080601f0160208091040260200160405190810160405280939291908181526020018383808284376000920191909152506128d092505050565b50505050505050505050565b6060816001600160401b03811115611f7857634e487b7160e01b600052604160045260246000fd5b604051908082528060200260200182016040528015611fab57816020015b6060815260200190600190039081611f965790505b50905060005b8281101561202657611fe8848483818110611fdc57634e487b7160e01b600052603260045260246000fd5b90506020020135611a40565b82828151811061200857634e487b7160e01b600052603260045260246000fd5b6020026020010181905250808061201e90614e8a565b915050611fb1565b5092915050565b604051806040016040528060058152602001640302e322e360dc1b81525081565b60006001600160e01b031982166380ac58cd60e01b148061207f57506001600160e01b03198216635b5e139f60e01b145b80610848575061084882612f98565b6000908152606760205260409020546001600160a01b0316151590565b60006120b633611133565b156108e05750601f1936013590565b600081815261010060205260409020546120e0906001614d58565b6000918252610100602052604090912055565b60006120fe826111cd565b9050806001600160a01b0316836001600160a01b031614156121325760405162461bcd60e51b815260040161090a90614ca4565b806001600160a01b0316612144612186565b6001600160a01b031614806121605750612160816107dc612186565b61217c5760405162461bcd60e51b815260040161090a90614949565b61097c8383612fb1565b600061219061301f565b905090565b6001600160a01b0382166121bb5760405162461bcd60e51b815260040161090a90614afe565b6121c48161208e565b156121e15760405162461bcd60e51b815260040161090a90614745565b6121ed6000838361097c565b6001600160a01b0382166000908152606860205260408120805460019290612216908490614d58565b909155505060008181526067602052604080822080546001600160a01b0319166001600160a01b03861690811790915590518392907fddf252ad1be2c89b69c2b068fc378daa952ba7f163c4a11628f55a4df523b3ef908290a45050565b600061229f7fbe2bb46ac0377341a1ec5c3116d70fd5029d704bd46292e58f6265dd177ebafe6108e0565b5460405163721804d360e11b81526001600160a01b039091169150600090829063e43009a6906122d390309060040161440c565b60206040518083038186803b1580156122eb57600080fd5b505afa1580156122ff573d6000803e3d6000fd5b505050506040513d601f19601f820116820180604052508101906123239190613ee0565b90506000826001600160a01b031663e66f9603836040518263ffffffff1660e01b815260040161235391906143f5565b60206040518083038186803b15801561236b57600080fd5b505afa15801561237f573d6000803e3d6000fd5b505050506040513d601f19601f820116820180604052508101906123a39190613884565b90506123af8185612fb1565b826001600160a01b031663e3dec8fb8630876040516020016123d191906143f5565b6040516020818303038152906040526040518463ffffffff1660e01b81526004016123fe93929190614420565b600060405180830381600087803b15801561241857600080fd5b505af1158015610e73573d6000803e3d6000fd5b6060610cce83604051602001612442919061432a565b6040516020818303038152906040528051906020012060001c8361304d565b606061246c856120c5565b600080876001600160a01b0316866124868b8a898961310c565b604051612493919061432a565b60006040518083038160008787f1925050503d80600081146124d1576040519150601f19603f3d011682016040523d82523d6000602084013e6124d6565b606091505b5090925090506124e7603f87614d70565b5a1161250357634e487b7160e01b600052600160045260246000fd5b61254382826040518060400160405280601a81526020017f42617365466f727761726465723a2043414c4c5f4641494c454400000000000081525061313c565b9998505050505050505050565b600061255b8261208e565b6125775760405162461bcd60e51b815260040161090a906148c6565b6000612582836111cd565b9050806001600160a01b0316846001600160a01b031614806125bd5750836001600160a01b03166125b2846108e3565b6001600160a01b0316145b80610c025750610c028185611df5565b6125d681613175565b6040516020016125e691906143f5565b60408051601f198184030181528282528051602091820120600085815260cb9092529181209190915582917f185c30856dadb58bf097c1f665a52ada7029752dbcad008ea3fefc73bee8c9fe9190a250565b826001600160a01b031661264b826111cd565b6001600160a01b0316146126715760405162461bcd60e51b815260040161090a90614bc5565b6001600160a01b0382166126975760405162461bcd60e51b815260040161090a906147c2565b6126a283838361097c565b6126ad600082612fb1565b6001600160a01b03831660009081526068602052604081208054600192906126d6908490614d84565b90915550506001600160a01b0382166000908152606860205260408120805460019290612704908490614d58565b909155505060008181526067602052604080822080546001600160a01b0319166001600160a01b0386811691821790925591518493918716917fddf252ad1be2c89b69c2b068fc378daa952ba7f163c4a11628f55a4df523b3ef91a4505050565b60005b848110156110ea576127d286868381811061279357634e487b7160e01b600052603260045260246000fd5b905060200201358585848181106127ba57634e487b7160e01b600052603260045260246000fd5b90506020028101906127cc9190614d14565b856129ff565b806127dc81614e8a565b915050612768565b6060600061280f868051906020012030610100600089815260200190815260200160002054876131a1565b905061281f813087868a89612461565b9695505050505050565b6000612834826111cd565b90506128428160008461097c565b61284d600083612fb1565b6001600160a01b0381166000908152606860205260408120805460019290612876908490614d84565b909155505060008281526067602052604080822080546001600160a01b0319169055518391906001600160a01b038416907fddf252ad1be2c89b69c2b068fc378daa952ba7f163c4a11628f55a4df523b3ef908390a45050565b612913898989898080601f016020809104026020016040519081016040528093929190818152602001838380828437600092019190915250879250612cca915050565b610e73858585858c612c40565b60008585604051602001612935929190614385565b60408051601f198184030181528282528051602091820120601f89018290048202840182019092528783529092506129899183918990899081908401838280828437600092019190915250612a6f92505050565b6110ea8187878080601f01602080910402602001604051908101604052809392919081815260200183838082843760009201919091525050604080516020601f8b0181900481028201810190925289815292508991508890819084018382808284376000920191909152508892506131e0915050565b612a088461331b565b612a245760405162461bcd60e51b815260040161090a9061470e565b6116de84612a3186611a40565b85858080601f0160208091040260200160405190810160405280939291908181526020018383808284376000920191909152508792506131e0915050565b612a788261331b565b61124d57600082815260c960209081526040909120825161097c928401906136af565b606080612aa784611a40565b9150612ab3848461304d565b90509250929050565b6000815160001415612ae05760405162461bcd60e51b815260040161090a90614ce5565b8282604051602001612af2919061432a565b60405160208183030381529060405280519060200120604051602001612b199291906143fe565b60408051601f1981840301815291905280516020909101209392505050565b6040808401519051636ccbae5f60e01b815260009182913091636ccbae5f91612b6491906004016143f5565b60206040518083038186803b158015612b7c57600080fd5b505afa158015612b90573d6000803e3d6000fd5b505050506040513d601f19601f82011682018060405250810190612bb49190613ee0565b90506000612bcf8660600151805190602001208684876131a1565b905085602001518214801561281f575085516001600160a01b038281169116149695505050505050565b612c038383612195565b817fc5beef08f693b11c316c0c8394a377a0033c9cf701b8cd8afd79cecef60c395282604051612c339190614592565b60405180910390a2505050565b60005b848110156110ea57612cb8868683818110612c6e57634e487b7160e01b600052603260045260246000fd5b9050602002810190612c809190614d14565b868685818110612ca057634e487b7160e01b600052603260045260246000fd5b9050602002810190612cb29190614d14565b86612920565b80612cc281614e8a565b915050612c43565b612cd5848483613341565b827fc5beef08f693b11c316c0c8394a377a0033c9cf701b8cd8afd79cecef60c395283604051612d059190614592565b60405180910390a250505050565b612d1e848484612638565b612d2a84848484613374565b6116de5760405162461bcd60e51b815260040161090a906146bc565b600054610100900460ff1680612d5f575060005460ff16155b612d7b5760405162461bcd60e51b815260040161090a90614a39565b600054610100900460ff16158015612da6576000805460ff1961ff0019909116610100171660011790555b8251612db99060659060208601906136af565b508151612dcd9060669060208501906136af565b50801561097c576000805461ff0019169055505050565b600054610100900460ff1680612dfd575060005460ff16155b612e195760405162461bcd60e51b815260040161090a90614a39565b600054610100900460ff16158015612e44576000805460ff1961ff0019909116610100171660011790555b8015611130576000805461ff001916905550565b6060610133805461085f90614e4f565b606081612e8d57506040805180820190915260018152600360fc1b602082015261084b565b8160005b8115612eb75780612ea181614e8a565b9150612eb09050600a83614d70565b9150612e91565b6000816001600160401b03811115612edf57634e487b7160e01b600052604160045260246000fd5b6040519080825280601f01601f191660200182016040528015612f09576020820181803683370190505b5090505b8415610c0257612f1e600183614d84565b9150612f2b600a86614ea5565b612f36906030614d58565b60f81b818381518110612f5957634e487b7160e01b600052603260045260246000fd5b60200101906001600160f81b031916908160001a905350612f7b600a86614d70565b9450612f0d565b612f8b816125cd565b610d5a8585858585612c40565b6001600160e01b031981166301ffc9a760e01b14919050565b600081815260696020526040902080546001600160a01b0319166001600160a01b0384169081179091558190612fe6826111cd565b6001600160a01b03167f8c5be1e5ebec7d5bd14f71427d1e84f3dd0314c0f7b2291e5b200ac8c7c3b92560405160405180910390a45050565b600061302a33611133565b1561303e575060331936013560601c6108e0565b61304661348c565b90506108e0565b606060ca600061305c84613175565b81526020019081526020016000206000848152602001908152602001600020805461308690614e4f565b80601f01602080910402602001604051908101604052809291908181526020018280546130b290614e4f565b80156130ff5780601f106130d4576101008083540402835291602001916130ff565b820191906000526020600020905b8154815290600101906020018083116130e257829003601f168201915b5050505050905092915050565b606082858560405160200161312393929190614346565b6040516020818303038152906040529050949350505050565b6060831561314b575081610cce565b82511561315b5782518084602001fd5b8160405162461bcd60e51b815260040161090a9190614592565b600081815260cb60205260408120541561319d57600082815260cb6020526040902054610848565b5090565b6000610a96826131da8787876040516020016131bf93929190614302565b60405160208183030381529060405280519060200120613490565b906134c0565b60ca60006131ed83613175565b81526020019081526020016000206000858152602001908152602001600020805461321790614e4f565b1515905061326e578260405161322d919061432a565b6040518091039020817f7ae4f661958fbecc2f77be6b0eb280d2a6f604b29e1e7221c82b9da0c4af7f86856040516132659190614592565b60405180910390a35b8160ca600061327c84613175565b8152602001908152602001600020600086815260200190815260200160002090805190602001906132ae9291906136af565b50816040516132bd919061432a565b6040518091039020836040516132d3919061432a565b6040518091039020827f851ffe8e74d5015261dba0a1f9e1b0e5d42c5af5d2ad1908fee897c7d80a0d92868660405161330d9291906145e0565b60405180910390a450505050565b600081815260c960205260408120805482919061333790614e4f565b9050119050919050565b61334b8383612195565b6133586000848484613374565b61097c5760405162461bcd60e51b815260040161090a906146bc565b6000613388846001600160a01b031661353c565b1561348457836001600160a01b031663150b7a026133a4612186565b8786866040518563ffffffff1660e01b81526004016133c694939291906144af565b602060405180830381600087803b1580156133e057600080fd5b505af1925050508015613410575060408051601f3d908101601f1916820190925261340d91810190613f14565b60015b61346a573d80801561343e576040519150601f19603f3d011682016040523d82523d6000602084013e613443565b606091505b5080516134625760405162461bcd60e51b815260040161090a906146bc565b805181602001fd5b6001600160e01b031916630a85bd0160e11b149050610c02565b506001610c02565b3390565b6000816040516020016134a391906143c4565b604051602081830303815290604052805190602001209050919050565b6000806000808451604114156134ea5750505060208201516040830151606084015160001a613530565b8451604014156135185750505060408201516020830151906001600160ff1b0381169060ff1c601b01613530565b60405162461bcd60e51b815260040161090a9061463c565b61281f86828585613542565b3b151590565b60007f7fffffffffffffffffffffffffffffff5d576e7357a4501ddfe92f46681b20a08211156135845760405162461bcd60e51b815260040161090a9061483d565b8360ff16601b148061359957508360ff16601c145b6135b55760405162461bcd60e51b815260040161090a90614a87565b6000600186868686604051600081526020016040526040516135da949392919061455f565b6020604051602081039080840390855afa1580156135fc573d6000803e3d6000fd5b5050604051601f1901519150506001600160a01b038116610a965760405162461bcd60e51b815260040161090a90614605565b82805461363b90614e4f565b90600052602060002090601f01602090048101928261365d57600085556136a3565b82601f106136765782800160ff198235161785556136a3565b828001600101855582156136a3579182015b828111156136a3578235825591602001919060010190613688565b5061319d929150613723565b8280546136bb90614e4f565b90600052602060002090601f0160209004810192826136dd57600085556136a3565b82601f106136f657805160ff19168380011785556136a3565b828001600101855582156136a3579182015b828111156136a3578251825591602001919060010190613708565b5b8082111561319d5760008155600101613724565b60006001600160401b038084111561375257613752614ee5565b604051601f8501601f19168101602001828111828210171561377657613776614ee5565b60405284815291508183850186101561378e57600080fd5b8484602083013760006020868301015250509392505050565b803561084b81614efb565b60008083601f8401126137c3578182fd5b5081356001600160401b038111156137d9578182fd5b60208301915083602080830285010111156137f357600080fd5b9250929050565b8035801515811461084b57600080fd5b60008083601f84011261381b578182fd5b5081356001600160401b03811115613831578182fd5b6020830191508360208285010111156137f357600080fd5b600082601f830112613859578081fd5b610cce83833560208501613738565b600060208284031215613879578081fd5b8135610cce81614efb565b600060208284031215613895578081fd5b8151610cce81614efb565b600080604083850312156138b2578081fd5b82356138bd81614efb565b915060208301356138cd81614efb565b809150509250929050565b6000806000606084860312156138ec578081fd5b83356138f781614efb565b9250602084013561390781614efb565b929592945050506040919091013590565b60008060008060006080868803121561392f578081fd5b853561393a81614efb565b9450602086013561394a81614efb565b93506040860135925060608601356001600160401b0381111561396b578182fd5b6139778882890161380a565b969995985093965092949392505050565b600080600080600080600060a0888a0312156139a2578182fd5b87356139ad81614efb565b965060208801356139bd81614efb565b95506040880135945060608801356001600160401b03808211156139df578384fd5b6139eb8b838c0161380a565b909650945060808a0135915080821115613a03578384fd5b50613a108a828b0161380a565b989b979a50959850939692959293505050565b60008060008060808587031215613a38578182fd5b8435613a4381614efb565b93506020850135613a5381614efb565b92506040850135915060608501356001600160401b03811115613a74578182fd5b613a8087828801613849565b91505092959194509250565b60008060408385031215613a9e578182fd5b8235613aa981614efb565b9150612ab3602084016137fa565b60008060408385031215613ac9578182fd5b8235613ad481614efb565b946020939093013593505050565b60008060008060608587031215613af7578182fd5b8435613b0281614efb565b93506020850135925060408501356001600160401b03811115613b23578283fd5b613b2f8782880161380a565b95989497509550505050565b60008060008060008060008060a0898b031215613b56578182fd5b8835613b6181614efb565b97506020890135965060408901356001600160401b0380821115613b83578384fd5b613b8f8c838d0161380a565b909850965060608b0135915080821115613ba7578384fd5b613bb38c838d016137b2565b909650945060808b0135915080821115613bcb578384fd5b50613bd88b828c016137b2565b999c989b5096995094979396929594505050565b60008060008060008060008060008060c08b8d031215613c0a578384fd5b613c138b6137a7565b995060208b0135985060408b01356001600160401b0380821115613c35578586fd5b613c418e838f0161380a565b909a50985060608d0135915080821115613c59578586fd5b613c658e838f016137b2565b909850965060808d0135915080821115613c7d578586fd5b613c898e838f016137b2565b909650945060a08d0135915080821115613ca1578384fd5b50613cae8d828e0161380a565b915080935050809150509295989b9194979a5092959850565b60008060008060008060808789031215613cdf578384fd5b8635613cea81614efb565b95506020870135945060408701356001600160401b0380821115613d0c578586fd5b613d188a838b0161380a565b90965094506060890135915080821115613d30578384fd5b50613d3d89828a0161380a565b979a9699509497509295939492505050565b600080600080600060608688031215613d66578283fd5b85356001600160401b0380821115613d7c578485fd5b613d8889838a016137b2565b90975095506020880135915080821115613da0578485fd5b50613dad888289016137b2565b96999598509660400135949350505050565b60008060008060008060006080888a031215613dd9578081fd5b87356001600160401b0380821115613def578283fd5b613dfb8b838c016137b2565b909950975060208a0135915080821115613e13578283fd5b613e1f8b838c016137b2565b909750955060408a0135945060608a0135915080821115613a03578283fd5b600080600060408486031215613e52578081fd5b83356001600160401b03811115613e67578182fd5b613e73868287016137b2565b909790965060209590950135949350505050565b60008060208385031215613e99578182fd5b82356001600160401b03811115613eae578283fd5b613eba858286016137b2565b90969095509350505050565b600060208284031215613ed7578081fd5b610cce826137fa565b600060208284031215613ef1578081fd5b5051919050565b600060208284031215613f09578081fd5b8135610cce81614f10565b600060208284031215613f25578081fd5b8151610cce81614f10565b60008060208385031215613f42578182fd5b82356001600160401b03811115613f57578283fd5b613eba8582860161380a565b600080600080600060608688031215613f7a578283fd5b85356001600160401b0380821115613f90578485fd5b613f9c89838a0161380a565b90975095506020880135915080821115613fb4578485fd5b50613dad8882890161380a565b60008060008060008060006080888a031215613fdb578081fd5b87356001600160401b0380821115613ff1578283fd5b613ffd8b838c0161380a565b909950975060208a0135915080821115614015578283fd5b613e1f8b838c0161380a565b600080600060408486031215614035578081fd5b83356001600160401b0381111561404a578182fd5b613e738682870161380a565b600060208284031215614067578081fd5b81356001600160401b0381111561407c578182fd5b8201601f8101841361408c578182fd5b610c0284823560208401613738565b6000806000604084860312156140af578081fd5b83356001600160401b03808211156140c5578283fd5b90850190608082880312156140d8578283fd5b909350602085013590808211156140ed578283fd5b506140fa8682870161380a565b9497909650939450505050565b600060208284031215614118578081fd5b5035919050565b600080600060408486031215614133578081fd5b8335925060208401356001600160401b0381111561414f578182fd5b6140fa8682870161380a565b60008060008060608587031215614170578182fd5b8435935060208501356001600160401b0381111561418c578283fd5b6141988782880161380a565b9598909750949560400135949350505050565b600080604083850312156141bd578182fd5b50508035926020909101359150565b818352602080840193600091908185020181018584845b878110156142495782840389528135601e19883603018112614203578687fd5b870180356001600160401b0381111561421a578788fd5b803603891315614228578788fd5b61423586828985016142ac565b9a87019a95505050908401906001016141e3565b5091979650505050505050565b60008282518085526020808601955080818302840101818601855b8481101561429f57601f1986840301895261428d8383516142d6565b98840198925090830190600101614271565b5090979650505050505050565b60008284528282602086013780602084860101526020601f19601f85011685010190509392505050565b600081518084526142ee816020860160208601614e23565b601f01601f19169290920160200192915050565b92835260609190911b6bffffffffffffffffffffffff19166020830152603482015260540190565b6000825161433c818460208701614e23565b9190910192915050565b60008451614358818460208901614e23565b60609490941b6bffffffffffffffffffffffff191691909301908152601481019190915260340192915050565b6000828483379101908152919050565b600083516143a7818460208801614e23565b8351908301906143bb818360208801614e23565b01949350505050565b7f19457468657265756d205369676e6564204d6573736167653a0a3332000000008152601c810191909152603c0190565b90815260200190565b918252602082015260400190565b6001600160a01b0391909116815260200190565b6001600160a01b03848116825283166020820152606060408201819052600090610a96908301846142d6565b6001600160a01b039384168152919092166020820152604081019190915260600190565b6001600160a01b03868116825285166020820152604081018490526080606082018190526000906144a490830184866142ac565b979650505050505050565b6001600160a01b038581168252841660208201526040810183905260806060820181905260009061281f908301846142d6565b6000606082526144f66060830187896141cc565b82810360208401526145098186886141cc565b9150508260408301529695505050505050565b600060208252610cce6020830184614256565b6000604082526145426040830185614256565b8281036020840152610cca8185614256565b901515815260200190565b93845260ff9290921660208401526040830152606082015260800190565b6001600160e01b031991909116815260200190565b600060208252610cce60208301846142d6565b600060208252610c026020830184866142ac565b6000606082526145cd6060830187896142ac565b82810360208401526145098186886142ac565b6000604082526145f360408301856142d6565b8281036020840152610cca81856142d6565b60208082526018908201527f45434453413a20696e76616c6964207369676e61747572650000000000000000604082015260600190565b6020808252601f908201527f45434453413a20696e76616c6964207369676e6174757265206c656e67746800604082015260600190565b60208082526029908201527f52656769737472793a2053454e4445525f49535f4e4f545f415050524f5645446040820152682fa7a92fa7aba722a960b91b606082015260800190565b60208082526032908201527f4552433732313a207472616e7366657220746f206e6f6e20455243373231526560408201527131b2b4bb32b91034b6b83632b6b2b73a32b960711b606082015260800190565b6020808252601c908201527f5265636f726453746f726167653a204b45595f4e4f545f464f554e4400000000604082015260600190565b6020808252601c908201527f4552433732313a20746f6b656e20616c7265616479206d696e74656400000000604082015260600190565b60208082526026908201527f52656769737472793a204552433732315f524543454956494e475f4e4f545f41604082015265131313d5d15160d21b606082015260800190565b60208082526024908201527f4552433732313a207472616e7366657220746f20746865207a65726f206164646040820152637265737360e01b606082015260800190565b60208082526019908201527f4552433732313a20617070726f766520746f2063616c6c657200000000000000604082015260600190565b60208082526022908201527f45434453413a20696e76616c6964207369676e6174757265202773272076616c604082015261756560f01b606082015260800190565b60208082526027908201527f52656769737472793a2053454e4445525f49535f4e4f545f4d494e54494e475f60408201526626a0a720a3a2a960c91b606082015260800190565b6020808252602c908201527f4552433732313a206f70657261746f7220717565727920666f72206e6f6e657860408201526b34b9ba32b73a103a37b5b2b760a11b606082015260800190565b60208082526017908201527f52656769737472793a20544f4b454e5f494e56414c4944000000000000000000604082015260600190565b60208082526038908201527f4552433732313a20617070726f76652063616c6c6572206973206e6f74206f7760408201527f6e6572206e6f7220617070726f76656420666f7220616c6c0000000000000000606082015260800190565b6020808252602a908201527f4552433732313a2062616c616e636520717565727920666f7220746865207a65604082015269726f206164647265737360b01b606082015260800190565b60208082526029908201527f4552433732313a206f776e657220717565727920666f72206e6f6e657869737460408201526832b73a103a37b5b2b760b91b606082015260800190565b6020808252602e908201527f496e697469616c697a61626c653a20636f6e747261637420697320616c72656160408201526d191e481a5b9a5d1a585b1a5e995960921b606082015260800190565b60208082526022908201527f45434453413a20696e76616c6964207369676e6174757265202776272076616c604082015261756560f01b606082015260800190565b6020808252818101527f52656769737472793a20434e535f52454749535452595f4e4f545f454d505459604082015260600190565b6020808252818101527f4552433732313a206d696e7420746f20746865207a65726f2061646472657373604082015260600190565b6020808252602c908201527f4552433732313a20617070726f76656420717565727920666f72206e6f6e657860408201526b34b9ba32b73a103a37b5b2b760a11b606082015260800190565b60208082526026908201527f52656769737472793a20524f4f545f434841494e5f4d414e454745525f4e4f546040820152655f454d50545960d01b606082015260800190565b60208082526029908201527f4552433732313a207472616e73666572206f6620746f6b656e2074686174206960408201526839903737ba1037bbb760b91b606082015260800190565b6020808252602f908201527f4552433732314d657461646174613a2055524920717565727920666f72206e6f60408201526e3732bc34b9ba32b73a103a37b5b2b760891b606082015260800190565b60208082526027908201527f554e535265676973747279466f727761726465723a205349474e41545552455f6040820152661253959053125160ca1b606082015260800190565b60208082526021908201527f4552433732313a20617070726f76616c20746f2063757272656e74206f776e656040820152603960f91b606082015260800190565b60208082526015908201527452656769737472793a204c4142454c5f454d50545960581b604082015260600190565b6000808335601e19843603018112614d2a578283fd5b8301803591506001600160401b03821115614d43578283fd5b6020019150368190038213156137f357600080fd5b60008219821115614d6b57614d6b614eb9565b500190565b600082614d7f57614d7f614ecf565b500490565b600082821015614d9657614d96614eb9565b500390565b600060808236031215614dac578081fd5b604051608081016001600160401b038282108183111715614dcf57614dcf614ee5565b8160405284359150614de082614efb565b81835260208501356020840152604085013560408401526060850135915080821115614e0a578384fd5b50614e1736828601613849565b60608301525092915050565b60005b83811015614e3e578181015183820152602001614e26565b838111156116de5750506000910152565b600281046001821680614e6357607f821691505b60208210811415614e8457634e487b7160e01b600052602260045260246000fd5b50919050565b6000600019821415614e9e57614e9e614eb9565b5060010190565b600082614eb457614eb4614ecf565b500690565b634e487b7160e01b600052601160045260246000fd5b634e487b7160e01b600052601260045260246000fd5b634e487b7160e01b600052604160045260246000fd5b6001600160a01b038116811461113057600080fd5b6001600160e01b03198116811461113057600080fdfea164736f6c6343000800000a",
  "linkReferences": {},
  "deployedLinkReferences": {}
}