{
  "_format": "hh-sol-artifact-1",
  "contractName": "UNSRegistry",
  "sourceName": "contracts/UNSRegistry.sol",
  "abi": [
    {
      "anonymous": false,
      "inputs": [
        {
          "indexed": false,
          "internalType": "address",
          "name": "previousAdmin",
          "type": "address"
        },
        {
          "indexed": false,
          "internalType": "address",
          "name": "newAdmin",
          "type": "address"
        }
      ],
      "name": "AdminChanged",
      "type": "event"
    },
    {
      "anonymous": false,
      "inputs": [
        {
          "indexed": true,
          "internalType": "address",
          "name": "owner",
          "type": "address"
        },
        {
          "indexed": true,
          "internalType": "address",
          "name": "approved",
          "type": "address"
        },
        {
          "indexed": true,
          "internalType": "uint256",
          "name": "tokenId",
          "type": "uint256"
        }
      ],
      "name": "Approval",
      "type": "event"
    },
    {
      "anonymous": false,
      "inputs": [
        {
          "indexed": true,
          "internalType": "address",
          "name": "owner",
          "type": "address"
        },
        {
          "indexed": true,
          "internalType": "address",
          "name": "operator",
          "type": "address"
        },
        {
          "indexed": false,
          "internalType": "bool",
          "name": "approved",
          "type": "bool"
        }
      ],
      "name": "ApprovalForAll",
      "type": "event"
    },
    {
      "anonymous": false,
      "inputs": [
        {
          "indexed": false,
          "internalType": "uint8",
          "name": "version",
          "type": "uint8"
        }
      ],
      "name": "Initialized",
      "type": "event"
    },
    {
      "anonymous": false,
      "inputs": [
        {
          "indexed": true,
          "internalType": "uint256",
          "name": "tokenId",
          "type": "uint256"
        },
        {
          "indexed": true,
          "internalType": "string",
          "name": "keyIndex",
          "type": "string"
        },
        {
          "indexed": false,
          "internalType": "string",
          "name": "key",
          "type": "string"
        }
      ],
      "name": "NewKey",
      "type": "event"
    },
    {
      "anonymous": false,
      "inputs": [
        {
          "indexed": true,
          "internalType": "uint256",
          "name": "tokenId",
          "type": "uint256"
        },
        {
          "indexed": false,
          "internalType": "string",
          "name": "uri",
          "type": "string"
        }
      ],
      "name": "NewURI",
      "type": "event"
    },
    {
      "anonymous": false,
      "inputs": [
        {
          "indexed": false,
          "internalType": "string",
          "name": "prefix",
          "type": "string"
        }
      ],
      "name": "NewURIPrefix",
      "type": "event"
    },
    {
      "anonymous": false,
      "inputs": [
        {
          "indexed": true,
          "internalType": "address",
          "name": "addr",
          "type": "address"
        }
      ],
      "name": "RemoveReverse",
      "type": "event"
    },
    {
      "anonymous": false,
      "inputs": [
        {
          "indexed": true,
          "internalType": "uint256",
          "name": "tokenId",
          "type": "uint256"
        }
      ],
      "name": "ResetRecords",
      "type": "event"
    },
    {
      "anonymous": false,
      "inputs": [
        {
          "indexed": true,
          "internalType": "uint256",
          "name": "tokenId",
          "type": "uint256"
        },
        {
          "indexed": true,
          "internalType": "string",
          "name": "keyIndex",
          "type": "string"
        },
        {
          "indexed": true,
          "internalType": "string",
          "name": "valueIndex",
          "type": "string"
        },
        {
          "indexed": false,
          "internalType": "string",
          "name": "key",
          "type": "string"
        },
        {
          "indexed": false,
          "internalType": "string",
          "name": "value",
          "type": "string"
        }
      ],
      "name": "Set",
      "type": "event"
    },
    {
      "anonymous": false,
      "inputs": [
        {
          "indexed": true,
          "internalType": "address",
          "name": "addr",
          "type": "address"
        },
        {
          "indexed": true,
          "internalType": "uint256",
          "name": "tokenId",
          "type": "uint256"
        }
      ],
      "name": "SetReverse",
      "type": "event"
    },
    {
      "anonymous": false,
      "inputs": [
        {
          "indexed": true,
          "internalType": "address",
          "name": "from",
          "type": "address"
        },
        {
          "indexed": true,
          "internalType": "address",
          "name": "to",
          "type": "address"
        },
        {
          "indexed": true,
          "internalType": "uint256",
          "name": "tokenId",
          "type": "uint256"
        }
      ],
      "name": "Transfer",
      "type": "event"
    },
    {
      "anonymous": false,
      "inputs": [
        {
          "indexed": true,
          "internalType": "address",
          "name": "implementation",
          "type": "address"
        }
      ],
      "name": "Upgraded",
      "type": "event"
    },
    {
      "inputs": [],
      "name": "BATCH_LIMIT",
      "outputs": [
        {
          "internalType": "uint256",
          "name": "",
          "type": "uint256"
        }
      ],
      "stateMutability": "view",
      "type": "function"
    },
    {
      "inputs": [],
      "name": "NAME",
      "outputs": [
        {
          "internalType": "string",
          "name": "",
          "type": "string"
        }
      ],
      "stateMutability": "view",
      "type": "function"
    },
    {
      "inputs": [],
      "name": "VERSION",
      "outputs": [
        {
          "internalType": "string",
          "name": "",
          "type": "string"
        }
      ],
      "stateMutability": "view",
      "type": "function"
    },
    {
      "inputs": [
        {
          "internalType": "string",
          "name": "key",
          "type": "string"
        }
      ],
      "name": "addKey",
      "outputs": [],
      "stateMutability": "nonpayable",
      "type": "function"
    },
    {
      "inputs": [
        {
          "internalType": "address",
          "name": "addr",
          "type": "address"
        }
      ],
      "name": "addProxyReader",
      "outputs": [],
      "stateMutability": "nonpayable",
      "type": "function"
    },
    {
      "inputs": [
        {
          "internalType": "address",
          "name": "to",
          "type": "address"
        },
        {
          "internalType": "uint256",
          "name": "tokenId",
          "type": "uint256"
        }
      ],
      "name": "approve",
      "outputs": [],
      "stateMutability": "nonpayable",
      "type": "function"
    },
    {
      "inputs": [
        {
          "internalType": "address",
          "name": "owner",
          "type": "address"
        }
      ],
      "name": "balanceOf",
      "outputs": [
        {
          "internalType": "uint256",
          "name": "",
          "type": "uint256"
        }
      ],
      "stateMutability": "view",
      "type": "function"
    },
    {
      "inputs": [
        {
          "internalType": "uint256",
          "name": "tokenId",
          "type": "uint256"
        }
      ],
      "name": "burn",
      "outputs": [],
      "stateMutability": "nonpayable",
      "type": "function"
    },
    {
      "inputs": [
        {
          "internalType": "address",
          "name": "user",
          "type": "address"
        },
        {
          "internalType": "bytes",
          "name": "depositData",
          "type": "bytes"
        }
      ],
      "name": "deposit",
      "outputs": [],
      "stateMutability": "nonpayable",
      "type": "function"
    },
    {
      "inputs": [
        {
          "internalType": "uint256",
          "name": "tokenId",
          "type": "uint256"
        }
      ],
      "name": "depositToPolygon",
      "outputs": [],
      "stateMutability": "nonpayable",
      "type": "function"
    },
    {
      "inputs": [
        {
          "components": [
            {
              "internalType": "address",
              "name": "from",
              "type": "address"
            },
            {
              "internalType": "uint256",
              "name": "nonce",
              "type": "uint256"
            },
            {
              "internalType": "uint256",
              "name": "tokenId",
              "type": "uint256"
            },
            {
              "internalType": "bytes",
              "name": "data",
              "type": "bytes"
            }
          ],
          "internalType": "struct IForwarder.ForwardRequest",
          "name": "req",
          "type": "tuple"
        },
        {
          "internalType": "bytes",
          "name": "signature",
          "type": "bytes"
        }
      ],
      "name": "execute",
      "outputs": [
        {
          "internalType": "bytes",
          "name": "",
          "type": "bytes"
        }
      ],
      "stateMutability": "nonpayable",
      "type": "function"
    },
    {
      "inputs": [
        {
          "internalType": "uint256",
          "name": "tokenId",
          "type": "uint256"
        }
      ],
      "name": "exists",
      "outputs": [
        {
          "internalType": "bool",
          "name": "",
          "type": "bool"
        }
      ],
      "stateMutability": "view",
      "type": "function"
    },
    {
      "inputs": [
        {
          "internalType": "string",
          "name": "key",
          "type": "string"
        },
        {
          "internalType": "uint256",
          "name": "tokenId",
          "type": "uint256"
        }
      ],
      "name": "get",
      "outputs": [
        {
          "internalType": "string",
          "name": "value",
          "type": "string"
        }
      ],
      "stateMutability": "view",
      "type": "function"
    },
    {
      "inputs": [
        {
          "internalType": "uint256",
          "name": "tokenId",
          "type": "uint256"
        }
      ],
      "name": "getApproved",
      "outputs": [
        {
          "internalType": "address",
          "name": "",
          "type": "address"
        }
      ],
      "stateMutability": "view",
      "type": "function"
    },
    {
      "inputs": [
        {
          "internalType": "uint256",
          "name": "keyHash",
          "type": "uint256"
        },
        {
          "internalType": "uint256",
          "name": "tokenId",
          "type": "uint256"
        }
      ],
      "name": "getByHash",
      "outputs": [
        {
          "internalType": "string",
          "name": "key",
          "type": "string"
        },
        {
          "internalType": "string",
          "name": "value",
          "type": "string"
        }
      ],
      "stateMutability": "view",
      "type": "function"
    },
    {
      "inputs": [
        {
          "internalType": "uint256",
          "name": "keyHash",
          "type": "uint256"
        }
      ],
      "name": "getKey",
      "outputs": [
        {
          "internalType": "string",
          "name": "",
          "type": "string"
        }
      ],
      "stateMutability": "view",
      "type": "function"
    },
    {
      "inputs": [
        {
          "internalType": "uint256[]",
          "name": "hashes",
          "type": "uint256[]"
        }
      ],
      "name": "getKeys",
      "outputs": [
        {
          "internalType": "string[]",
          "name": "values",
          "type": "string[]"
        }
      ],
      "stateMutability": "view",
      "type": "function"
    },
    {
      "inputs": [
        {
          "internalType": "string[]",
          "name": "keys",
          "type": "string[]"
        },
        {
          "internalType": "uint256",
          "name": "tokenId",
          "type": "uint256"
        }
      ],
      "name": "getMany",
      "outputs": [
        {
          "internalType": "string[]",
          "name": "values",
          "type": "string[]"
        }
      ],
      "stateMutability": "view",
      "type": "function"
    },
    {
      "inputs": [
        {
          "internalType": "uint256[]",
          "name": "keyHashes",
          "type": "uint256[]"
        },
        {
          "internalType": "uint256",
          "name": "tokenId",
          "type": "uint256"
        }
      ],
      "name": "getManyByHash",
      "outputs": [
        {
          "internalType": "string[]",
          "name": "keys",
          "type": "string[]"
        },
        {
          "internalType": "string[]",
          "name": "values",
          "type": "string[]"
        }
      ],
      "stateMutability": "view",
      "type": "function"
    },
    {
      "inputs": [
        {
          "internalType": "address",
          "name": "mintingManager",
          "type": "address"
        },
        {
          "internalType": "address",
          "name": "cnsRegistry",
          "type": "address"
        },
        {
          "internalType": "address",
          "name": "rootChainManager",
          "type": "address"
        },
        {
          "internalType": "address",
          "name": "childChainManager",
          "type": "address"
        }
      ],
      "name": "initialize",
      "outputs": [],
      "stateMutability": "nonpayable",
      "type": "function"
    },
    {
      "inputs": [
        {
          "internalType": "address",
          "name": "owner",
          "type": "address"
        },
        {
          "internalType": "address",
          "name": "operator",
          "type": "address"
        }
      ],
      "name": "isApprovedForAll",
      "outputs": [
        {
          "internalType": "bool",
          "name": "",
          "type": "bool"
        }
      ],
      "stateMutability": "view",
      "type": "function"
    },
    {
      "inputs": [
        {
          "internalType": "address",
          "name": "spender",
          "type": "address"
        },
        {
          "internalType": "uint256",
          "name": "tokenId",
          "type": "uint256"
        }
      ],
      "name": "isApprovedOrOwner",
      "outputs": [
        {
          "internalType": "bool",
          "name": "",
          "type": "bool"
        }
      ],
      "stateMutability": "view",
      "type": "function"
    },
    {
      "inputs": [
        {
          "internalType": "address",
          "name": "forwarder",
          "type": "address"
        }
      ],
      "name": "isTrustedForwarder",
      "outputs": [
        {
          "internalType": "bool",
          "name": "",
          "type": "bool"
        }
      ],
      "stateMutability": "view",
      "type": "function"
    },
    {
      "inputs": [
        {
          "internalType": "address",
          "name": "user",
          "type": "address"
        },
        {
          "internalType": "uint256",
          "name": "tokenId",
          "type": "uint256"
        }
      ],
      "name": "mint",
      "outputs": [],
      "stateMutability": "nonpayable",
      "type": "function"
    },
    {
      "inputs": [
        {
          "internalType": "address",
          "name": "user",
          "type": "address"
        },
        {
          "internalType": "uint256",
          "name": "tokenId",
          "type": "uint256"
        },
        {
          "internalType": "bytes",
          "name": "",
          "type": "bytes"
        }
      ],
      "name": "mint",
      "outputs": [],
      "stateMutability": "nonpayable",
      "type": "function"
    },
    {
      "inputs": [
        {
          "internalType": "uint256",
          "name": "tokenId",
          "type": "uint256"
        },
        {
          "internalType": "string",
          "name": "uri",
          "type": "string"
        }
      ],
      "name": "mintTLD",
      "outputs": [],
      "stateMutability": "nonpayable",
      "type": "function"
    },
    {
      "inputs": [
        {
          "internalType": "address",
          "name": "to",
          "type": "address"
        },
        {
          "internalType": "string[]",
          "name": "labels",
          "type": "string[]"
        },
        {
          "internalType": "string[]",
          "name": "keys",
          "type": "string[]"
        },
        {
          "internalType": "string[]",
          "name": "values",
          "type": "string[]"
        },
        {
          "internalType": "bool",
          "name": "withReverse",
          "type": "bool"
        }
      ],
      "name": "mintWithRecords",
      "outputs": [],
      "stateMutability": "nonpayable",
      "type": "function"
    },
    {
      "inputs": [
        {
          "internalType": "bytes[]",
          "name": "data",
          "type": "bytes[]"
        }
      ],
      "name": "multicall",
      "outputs": [
        {
          "internalType": "bytes[]",
          "name": "results",
          "type": "bytes[]"
        }
      ],
      "stateMutability": "nonpayable",
      "type": "function"
    },
    {
      "inputs": [],
      "name": "name",
      "outputs": [
        {
          "internalType": "string",
          "name": "",
          "type": "string"
        }
      ],
      "stateMutability": "view",
      "type": "function"
    },
    {
      "inputs": [
        {
          "internalType": "string[]",
          "name": "labels",
          "type": "string[]"
        }
      ],
      "name": "namehash",
      "outputs": [
        {
          "internalType": "uint256",
          "name": "",
          "type": "uint256"
        }
      ],
      "stateMutability": "pure",
      "type": "function"
    },
    {
      "inputs": [
        {
          "internalType": "uint256",
          "name": "tokenId",
          "type": "uint256"
        }
      ],
      "name": "nonceOf",
      "outputs": [
        {
          "internalType": "uint256",
          "name": "",
          "type": "uint256"
        }
      ],
      "stateMutability": "view",
      "type": "function"
    },
    {
      "inputs": [
        {
          "internalType": "address",
          "name": "",
          "type": "address"
        },
        {
          "internalType": "address",
          "name": "from",
          "type": "address"
        },
        {
          "internalType": "uint256",
          "name": "tokenId",
          "type": "uint256"
        },
        {
          "internalType": "bytes",
          "name": "data",
          "type": "bytes"
        }
      ],
      "name": "onERC721Received",
      "outputs": [
        {
          "internalType": "bytes4",
          "name": "",
          "type": "bytes4"
        }
      ],
      "stateMutability": "nonpayable",
      "type": "function"
    },
    {
      "inputs": [
        {
          "internalType": "uint256",
          "name": "tokenId",
          "type": "uint256"
        }
      ],
      "name": "ownerOf",
      "outputs": [
        {
          "internalType": "address",
          "name": "",
          "type": "address"
        }
      ],
      "stateMutability": "view",
      "type": "function"
    },
    {
      "inputs": [
        {
          "internalType": "string[]",
          "name": "keys",
          "type": "string[]"
        },
        {
          "internalType": "string[]",
          "name": "values",
          "type": "string[]"
        },
        {
          "internalType": "uint256",
          "name": "tokenId",
          "type": "uint256"
        }
      ],
      "name": "reconfigure",
      "outputs": [],
      "stateMutability": "nonpayable",
      "type": "function"
    },
    {
      "inputs": [],
      "name": "removeReverse",
      "outputs": [],
      "stateMutability": "nonpayable",
      "type": "function"
    },
    {
      "inputs": [
        {
          "internalType": "uint256",
          "name": "tokenId",
          "type": "uint256"
        }
      ],
      "name": "reset",
      "outputs": [],
      "stateMutability": "nonpayable",
      "type": "function"
    },
    {
      "inputs": [
        {
          "internalType": "uint256",
          "name": "tokenId",
          "type": "uint256"
        }
      ],
      "name": "resolverOf",
      "outputs": [
        {
          "internalType": "address",
          "name": "",
          "type": "address"
        }
      ],
      "stateMutability": "view",
      "type": "function"
    },
    {
      "inputs": [
        {
          "internalType": "address",
          "name": "addr",
          "type": "address"
        }
      ],
      "name": "reverseNameOf",
      "outputs": [
        {
          "internalType": "string",
          "name": "reverseUri",
          "type": "string"
        }
      ],
      "stateMutability": "view",
      "type": "function"
    },
    {
      "inputs": [
        {
          "internalType": "address",
          "name": "addr",
          "type": "address"
        }
      ],
      "name": "reverseOf",
      "outputs": [
        {
          "internalType": "uint256",
          "name": "reverse",
          "type": "uint256"
        }
      ],
      "stateMutability": "view",
      "type": "function"
    },
    {
      "inputs": [],
      "name": "root",
      "outputs": [
        {
          "internalType": "uint256",
          "name": "",
          "type": "uint256"
        }
      ],
      "stateMutability": "pure",
      "type": "function"
    },
    {
      "inputs": [
        {
          "internalType": "address",
          "name": "from",
          "type": "address"
        },
        {
          "internalType": "address",
          "name": "to",
          "type": "address"
        },
        {
          "internalType": "uint256",
          "name": "tokenId",
          "type": "uint256"
        }
      ],
      "name": "safeTransferFrom",
      "outputs": [],
      "stateMutability": "nonpayable",
      "type": "function"
    },
    {
      "inputs": [
        {
          "internalType": "address",
          "name": "from",
          "type": "address"
        },
        {
          "internalType": "address",
          "name": "to",
          "type": "address"
        },
        {
          "internalType": "uint256",
          "name": "tokenId",
          "type": "uint256"
        },
        {
          "internalType": "bytes",
          "name": "data",
          "type": "bytes"
        }
      ],
      "name": "safeTransferFrom",
      "outputs": [],
      "stateMutability": "nonpayable",
      "type": "function"
    },
    {
      "inputs": [
        {
          "internalType": "string",
          "name": "key",
          "type": "string"
        },
        {
          "internalType": "string",
          "name": "value",
          "type": "string"
        },
        {
          "internalType": "uint256",
          "name": "tokenId",
          "type": "uint256"
        }
      ],
      "name": "set",
      "outputs": [],
      "stateMutability": "nonpayable",
      "type": "function"
    },
    {
      "inputs": [
        {
          "internalType": "address",
          "name": "operator",
          "type": "address"
        },
        {
          "internalType": "bool",
          "name": "approved",
          "type": "bool"
        }
      ],
      "name": "setApprovalForAll",
      "outputs": [],
      "stateMutability": "nonpayable",
      "type": "function"
    },
    {
      "inputs": [
        {
          "internalType": "uint256",
          "name": "keyHash",
          "type": "uint256"
        },
        {
          "internalType": "string",
          "name": "value",
          "type": "string"
        },
        {
          "internalType": "uint256",
          "name": "tokenId",
          "type": "uint256"
        }
      ],
      "name": "setByHash",
      "outputs": [],
      "stateMutability": "nonpayable",
      "type": "function"
    },
    {
      "inputs": [
        {
          "internalType": "string[]",
          "name": "keys",
          "type": "string[]"
        },
        {
          "internalType": "string[]",
          "name": "values",
          "type": "string[]"
        },
        {
          "internalType": "uint256",
          "name": "tokenId",
          "type": "uint256"
        }
      ],
      "name": "setMany",
      "outputs": [],
      "stateMutability": "nonpayable",
      "type": "function"
    },
    {
      "inputs": [
        {
          "internalType": "uint256[]",
          "name": "keyHashes",
          "type": "uint256[]"
        },
        {
          "internalType": "string[]",
          "name": "values",
          "type": "string[]"
        },
        {
          "internalType": "uint256",
          "name": "tokenId",
          "type": "uint256"
        }
      ],
      "name": "setManyByHash",
      "outputs": [],
      "stateMutability": "nonpayable",
      "type": "function"
    },
    {
      "inputs": [
        {
          "internalType": "address",
          "name": "to",
          "type": "address"
        },
        {
          "internalType": "uint256",
          "name": "tokenId",
          "type": "uint256"
        }
      ],
      "name": "setOwner",
      "outputs": [],
      "stateMutability": "nonpayable",
      "type": "function"
    },
    {
      "inputs": [
        {
          "internalType": "string[]",
          "name": "labels",
          "type": "string[]"
        }
      ],
      "name": "setReverse",
      "outputs": [],
      "stateMutability": "nonpayable",
      "type": "function"
    },
    {
      "inputs": [
        {
          "internalType": "string",
          "name": "prefix",
          "type": "string"
        }
      ],
      "name": "setTokenURIPrefix",
      "outputs": [],
      "stateMutability": "nonpayable",
      "type": "function"
    },
    {
      "inputs": [
        {
          "internalType": "bytes4",
          "name": "interfaceId",
          "type": "bytes4"
        }
      ],
      "name": "supportsInterface",
      "outputs": [
        {
          "internalType": "bool",
          "name": "",
          "type": "bool"
        }
      ],
      "stateMutability": "view",
      "type": "function"
    },
    {
      "inputs": [],
      "name": "symbol",
      "outputs": [
        {
          "internalType": "string",
          "name": "",
          "type": "string"
        }
      ],
      "stateMutability": "view",
      "type": "function"
    },
    {
      "inputs": [
        {
          "internalType": "uint256",
          "name": "tokenId",
          "type": "uint256"
        }
      ],
      "name": "tokenURI",
      "outputs": [
        {
          "internalType": "string",
          "name": "",
          "type": "string"
        }
      ],
      "stateMutability": "view",
      "type": "function"
    },
    {
      "inputs": [
        {
          "internalType": "address",
          "name": "from",
          "type": "address"
        },
        {
          "internalType": "address",
          "name": "to",
          "type": "address"
        },
        {
          "internalType": "uint256",
          "name": "tokenId",
          "type": "uint256"
        }
      ],
      "name": "transferFrom",
      "outputs": [],
      "stateMutability": "nonpayable",
      "type": "function"
    },
    {
      "inputs": [
        {
          "internalType": "address",
          "name": "to",
          "type": "address"
        },
        {
          "internalType": "string[]",
          "name": "labels",
          "type": "string[]"
        },
        {
          "internalType": "string[]",
          "name": "keys",
          "type": "string[]"
        },
        {
          "internalType": "string[]",
          "name": "values",
          "type": "string[]"
        },
        {
          "internalType": "bool",
          "name": "withReverse",
          "type": "bool"
        }
      ],
      "name": "unlockWithRecords",
      "outputs": [],
      "stateMutability": "nonpayable",
      "type": "function"
    },
    {
      "inputs": [
        {
          "components": [
            {
              "internalType": "address",
              "name": "from",
              "type": "address"
            },
            {
              "internalType": "uint256",
              "name": "nonce",
              "type": "uint256"
            },
            {
              "internalType": "uint256",
              "name": "tokenId",
              "type": "uint256"
            },
            {
              "internalType": "bytes",
              "name": "data",
              "type": "bytes"
            }
          ],
          "internalType": "struct IForwarder.ForwardRequest",
          "name": "req",
          "type": "tuple"
        },
        {
          "internalType": "bytes",
          "name": "signature",
          "type": "bytes"
        }
      ],
      "name": "verify",
      "outputs": [
        {
          "internalType": "bool",
          "name": "",
          "type": "bool"
        }
      ],
      "stateMutability": "view",
      "type": "function"
    },
    {
      "inputs": [
        {
          "internalType": "bytes",
          "name": "inputData",
          "type": "bytes"
        },
        {
          "internalType": "uint256",
          "name": "tokenId",
          "type": "uint256"
        },
        {
          "internalType": "string[]",
          "name": "keys",
          "type": "string[]"
        },
        {
          "internalType": "string[]",
          "name": "values",
          "type": "string[]"
        }
      ],
      "name": "withdrawFromPolygon",
      "outputs": [],
      "stateMutability": "nonpayable",
      "type": "function"
    }
  ],
  "bytecode": "0x608060405234801561001057600080fd5b50614f9c806100206000396000f3fe608060405234801561001057600080fd5b50600436106103835760003560e01c806370a08231116101de578063b88d4fde1161010f578063e985e9c5116100ad578063f5c1f76e1161007c578063f5c1f76e14610831578063f7df5c6014610844578063f8c8765e14610857578063ffa1ad741461086a57600080fd5b8063e985e9c5146107d3578063ebf0c7171461080f578063ec129eea14610816578063f25eb5c11461082957600080fd5b8063bebec6b4116100e9578063bebec6b414610787578063c87b56dd1461079a578063ce92b33e146107ad578063cf2c52cb146107c057600080fd5b8063b88d4fde1461074e578063ba5d40b714610761578063bb5b27e11461077457600080fd5b8063a22cb4651161017c578063ab3b87fe11610156578063ab3b87fe146106e7578063ac9650d8146106fa578063b3f9e4cb1461071a578063b85afd281461072d57600080fd5b8063a22cb46514610695578063a3f4df7e146106a8578063a4247400146106d457600080fd5b80639508b1c4116101b85780639508b1c41461065f5780639559c0bd1461067257806395d89b411461067a57806399e0dd7c1461068257600080fd5b806370a08231146106265780637e37479e1461063957806394d008ef1461064c57600080fd5b806342842e0e116102b85780635096023911610256578063638e5c7811610230578063638e5c78146105be578063663f7b2a146105d1578063672b9f81146105e45780636ccbae5f1461060557600080fd5b8063509602391461057c578063572b6c051461058f5780636352211e146105ab57600080fd5b806347c816991161029257806347c81699146105305780634a72584d146105435780634f558e791461055657806350382c1a1461056957600080fd5b806342842e0e146104f757806342966c681461050a578063430c20811461051d57600080fd5b80631bf7e13e11610325578063276fabb1116102ff578063276fabb11461049d57806327f18975146104be578063310bd74b146104d157806340c10f19146104e457600080fd5b80631bf7e13e146104645780631f71be061461047757806323b872dd1461048a57600080fd5b8063095ea7b311610361578063095ea7b3146103f0578063150b7a02146104055780631bd8cc1a146104315780631be5e7ed1461045157600080fd5b806301ffc9a71461038857806306fdde03146103b0578063081812fc146103c5575b600080fd5b61039b610396366004614593565b61088e565b60405190151581526020015b60405180910390f35b6103b861089f565b6040516103a79190614b1e565b6103d86103d33660046147c1565b610931565b6040516001600160a01b0390911681526020016103a7565b6104036103fe36600461430e565b610958565b005b610418610413366004614100565b610971565b6040516001600160e01b031990911681526020016103a7565b61044461043f366004614441565b610acc565b6040516103a79190614ab9565b6103b861045f3660046146fb565b610bec565b6103b8610472366004614762565b610c37565b6104036104853660046141d9565b610d42565b6104036104983660046140c0565b610de9565b6104b06104ab366004614392565b610e3c565b6040519081526020016103a7565b6104036104cc3660046143d1565b610e4b565b6104036104df3660046147c1565b610e93565b6104036104f236600461430e565b610ece565b6104036105053660046140c0565b610f1b565b6104036105183660046147c1565b610f36565b61039b61052b36600461430e565b610f7a565b61040361053e36600461469d565b610f86565b610403610551366004614809565b610fc5565b61039b6105643660046147c1565b61100b565b610403610577366004614730565b61102a565b61040361058a366004613ff5565b611060565b61039b61059d366004613ff5565b6001600160a01b0316301490565b6103d86105b93660046147c1565b6110c0565b6104036105cc3660046147c1565b611120565b6104036105df36600461448a565b61116b565b6105f76105f2366004614859565b6111a4565b6040516103a7929190614b31565b6104b06106133660046147c1565b6000908152610100602052604090205490565b6104b0610634366004613ff5565b6111bc565b6104b0610647366004613ff5565b611242565b61040361065a366004614339565b611273565b61040361066d3660046145cb565b6112c2565b6104b0601481565b6103b8611349565b61040361069036600461466a565b611358565b6104036106a3366004614291565b6113de565b6103b86040518060400160405280600d81526020016c554e533a20526567697374727960981b81525081565b61039b6106e2366004614762565b6113f0565b6104036106f536600461430e565b61143b565b61070d610708366004614392565b611480565b6040516103a79190614a58565b6103d86107283660046147c1565b61159e565b61074061073b366004614441565b6115c8565b6040516103a7929190614acc565b61040361075c366004614170565b611730565b61040361076f3660046141d9565b611777565b6103b86107823660046147c1565b6117e8565b6103b8610795366004613ff5565b61188a565b6103b86107a83660046147c1565b611954565b6104036107bb3660046143d1565b6119ba565b6104036107ce3660046142bc565b6119f9565b61039b6107e136600461402d565b6001600160a01b039182166000908152606a6020908152604080832093909416825291909152205460ff1690565b60006104b0565b6104036108243660046143d1565b611ad6565b610403611b15565b61044461083f366004614392565b611b9b565b6104036108523660046147d9565b611c71565b610403610865366004614065565b611d02565b6103b8604051806040016040528060058152602001640302e382e360dc1b81525081565b600061089982611ed8565b92915050565b6060606580546108ae90614e77565b80601f01602080910402602001604051908101604052809291908181526020018280546108da90614e77565b80156109275780601f106108fc57610100808354040283529160200191610927565b820191906000526020600020905b81548152906001019060200180831161090a57829003601f168201915b5050505050905090565b600061093c82611f28565b506000908152606960205260409020546001600160a01b031690565b8061096281611f87565b61096c8383611fee565b505050565b60007f8ffb960699dc2ba88f34d0e41c029c3c36c95149679fe1d0153a9582bec92378546001600160a01b03166109a6612111565b6001600160a01b03161415610a68576109bd612111565b6001600160a01b03166342966c68856040518263ffffffff1660e01b81526004016109ea91815260200190565b600060405180830381600087803b158015610a0457600080fd5b505af1158015610a18573d6000803e3d6000fd5b505050821580159150610a325750610a3282840184614561565b15610a5057610a413085612120565b610a4b858561226e565b610a5a565b610a5a8585612120565b50630a85bd0160e11b610ac3565b60405162461bcd60e51b815260206004820152602560248201527f52656769737472793a204552433732315f524543454956494e475f50524f4849604482015264109255115160da1b60648201526084015b60405180910390fd5b95945050505050565b6060826001600160401b03811115610af457634e487b7160e01b600052604160045260246000fd5b604051908082528060200260200182016040528015610b2757816020015b6060815260200190600190039081610b125790505b50905060005b83811015610be457610ba6858583818110610b5857634e487b7160e01b600052603260045260246000fd5b9050602002810190610b6a9190614cc5565b8080601f016020809104026020016040519081016040528093929190818152602001838380828437600092019190915250879250612319915050565b828281518110610bc657634e487b7160e01b600052603260045260246000fd5b60200260200101819052508080610bdc90614eac565b915050610b2d565b509392505050565b6060610c2f84848080601f016020809104026020016040519081016040528093929190818152602001838380828437600092019190915250869250612319915050565b949350505050565b606060005a9050610c498585856113f0565b610ca55760405162461bcd60e51b815260206004820152602760248201527f554e535265676973747279466f727761726465723a205349474e41545552455f6044820152661253959053125160ca1b6064820152608401610aba565b610d37610cb56020870187613ff5565b30604088013584610cc960608b018b614cc5565b8080601f01602080910402602001604051908101604052809392919081815260200183838082843760009201919091525050604080516020601f8e018190048102820181019092528c815292508c91508b908190840183828082843760009201919091525061234e92505050565b9150505b9392505050565b610134546001600160a01b0316610d57612111565b6001600160a01b031614610d7d5760405162461bcd60e51b8152600401610aba90614bf1565b6000610d91610d8c888a614d9f565b61243d565b9050610d9c8161249a565b610daf610da8826110c0565b8a83612507565b610dbc86868686856126ae565b8115610dde57610dde8982610dd9610dd48b8d614d9f565b612738565b6127d5565b505050505050505050565b80610dfb610df5612111565b82612817565b610e175760405162461bcd60e51b8152600401610aba90614b56565b81610e2181611f87565b610e2a8361249a565b610e35858585612507565b5050505050565b6000610d3b610d8c8385614d9f565b80610e57610df5612111565b610e735760405162461bcd60e51b8152600401610aba90614b56565b81610e7d81611f87565b610e8a8787878787612895565b50505050505050565b80610e9f610df5612111565b610ebb5760405162461bcd60e51b8152600401610aba90614b56565b81610ec581611f87565b61096c8361249a565b610ed6612914565b6001600160a01b0316610ee7612111565b6001600160a01b031614610f0d5760405162461bcd60e51b8152600401610aba90614c83565b610f178282612120565b5050565b61096c83838360405180602001604052806000815250611730565b80610f42610df5612111565b610f5e5760405162461bcd60e51b8152600401610aba90614b56565b81610f6881611f87565b610f718361249a565b61096c83612a27565b6000610d3b8383612817565b80610f92610df5612111565b610fae5760405162461bcd60e51b8152600401610aba90614b56565b81610fb881611f87565b610e8a8787878787612ace565b80610fd1610df5612111565b610fed5760405162461bcd60e51b8152600401610aba90614b56565b81610ff781611f87565b61100386868686612bad565b505050505050565b6000818152606760205260408120546001600160a01b03161515610899565b61105d8160405160200161103e9190614923565b6040516020818303038152906040528051906020012060001c82612c4d565b50565b610134546001600160a01b0316611075612111565b6001600160a01b03161461109b5760405162461bcd60e51b8152600401610aba90614bf1565b6001600160a01b0316600090815261013660205260409020805460ff19166001179055565b6000818152606760205260408120546001600160a01b0316806108995760405162461bcd60e51b8152602060048201526018602482015277115490cdcc8c4e881a5b9d985b1a59081d1bdad95b88125160421b6044820152606401610aba565b8061112c610df5612111565b6111485760405162461bcd60e51b8152600401610aba90614b56565b61115a611153612111565b3084612507565b610f17611165612111565b8361226e565b60006111768261243d565b905061118181612c79565b61118a81611f87565b610f17611195612111565b8261119f85612738565b612ce9565b6060806111b18484612d76565b909590945092505050565b60006001600160a01b0382166112265760405162461bcd60e51b815260206004820152602960248201527f4552433732313a2061646472657373207a65726f206973206e6f7420612076616044820152683634b21037bbb732b960b91b6064820152608401610aba565b506001600160a01b031660009081526068602052604090205490565b6001600160a01b0381166000908152610135602052604081205461126581612d97565b61126d578091505b50919050565b61127b612914565b6001600160a01b031661128c612111565b6001600160a01b0316146112b25760405162461bcd60e51b8152600401610aba90614c83565b6112bc8484612120565b50505050565b6112cc8787612de1565b6112d4612111565b6001600160a01b03166112e6866110c0565b6001600160a01b03161461133c5760405162461bcd60e51b815260206004820152601d60248201527f52656769737472793a2053454e4445525f49535f4e4f545f4f574e45520000006044820152606401610aba565b610e8a84848484896126ae565b6060606680546108ae90614e77565b610134546001600160a01b031661136d612111565b6001600160a01b0316146113935760405162461bcd60e51b8152600401610aba90614bf1565b6113a06101338383613d6d565b507f4b120d6a959a84a520fa48f5f937cca0e79129423487af7901213b5d2e89313b82826040516113d2929190614b0a565b60405180910390a15050565b610f176113e9612111565b8383612e50565b6000610c2f6113fe85614dac565b3085858080601f016020809104026020016040519081016040528093929190818152602001838380828437600092019190915250612f1f92505050565b80611447610df5612111565b6114635760405162461bcd60e51b8152600401610aba90614b56565b8161146d81611f87565b6112bc611479846110c0565b8585612507565b6060816001600160401b038111156114a857634e487b7160e01b600052604160045260246000fd5b6040519080825280602002602001820160405280156114db57816020015b60608152602001906001900390816114c65790505b50905060005b82811015611597576115593085858481811061150d57634e487b7160e01b600052603260045260246000fd5b905060200281019061151f9190614cc5565b8080601f01602080910402602001604051908101604052809392919081815260200183838082843760009201919091525061307792505050565b82828151811061157957634e487b7160e01b600052603260045260246000fd5b6020026020010181905250808061158f90614eac565b9150506114e1565b5092915050565b6000818152606760205260408120546001600160a01b03166115c1576000610899565b3092915050565b606080836001600160401b038111156115f157634e487b7160e01b600052604160045260246000fd5b60405190808252806020026020018201604052801561162457816020015b606081526020019060019003908161160f5790505b509150836001600160401b0381111561164d57634e487b7160e01b600052604160045260246000fd5b60405190808252806020026020018201604052801561168057816020015b606081526020019060019003908161166b5790505b50905060005b84811015611727576116be8686838181106116b157634e487b7160e01b600052603260045260246000fd5b9050602002013585612d76565b8483815181106116de57634e487b7160e01b600052603260045260246000fd5b6020026020010184848151811061170557634e487b7160e01b600052603260045260246000fd5b602002602001018290528290525050808061171f90614eac565b915050611686565b50935093915050565b8161173c610df5612111565b6117585760405162461bcd60e51b8152600401610aba90614b56565b8261176281611f87565b61176b8461249a565b61100386868686613162565b610134546001600160a01b031661178c612111565b6001600160a01b0316146117b25760405162461bcd60e51b8152600401610aba90614bf1565b60006117c1610d8c888a614d9f565b90506117db89826117d5610dd48b8d614d9f565b85613195565b610dde86868686856126ae565b600081815260c96020526040902080546060919061180590614e77565b80601f016020809104026020016040519081016040528092919081815260200182805461183190614e77565b801561187e5780601f106118535761010080835404028352916020019161187e565b820191906000526020600020905b81548152906001019060200180831161186157829003601f168201915b50505050509050919050565b6001600160a01b038116600090815261013560205260409020546060906118b081612d97565b61126d5760008181526101386020526040902080546118ce90614e77565b80601f01602080910402602001604051908101604052809291908181526020018280546118fa90614e77565b80156119475780601f1061191c57610100808354040283529160200191611947565b820191906000526020600020905b81548152906001019060200180831161192a57829003601f168201915b5050505050915050919050565b606061195f82611f28565b60006119696131e8565b905060008151116119895760405180602001604052806000815250610d3b565b80611993846131f8565b6040516020016119a49291906149ca565b6040516020818303038152906040529392505050565b806119c6610df5612111565b6119e25760405162461bcd60e51b8152600401610aba90614b56565b816119ec81611f87565b610e8a87878787876126ae565b7f8bea9a6f8afd34f4e29c585f854e0cc5161431bf5fc299d468454d33dce53b87546001600160a01b0316611a2c612111565b6001600160a01b031614611a525760405162461bcd60e51b8152600401610aba90614c83565b6020811415611a75576000611a69828401846147c1565b90506112bc8482612120565b6000611a83828401846144cf565b805190915060005b8181101561100357611ac486848381518110611ab757634e487b7160e01b600052603260045260246000fd5b6020026020010151612120565b80611ace81614eac565b915050611a8b565b80611ae2610df5612111565b611afe5760405162461bcd60e51b8152600401610aba90614b56565b81611b0881611f87565b610e8a8787878787613311565b6000611b1f612111565b6001600160a01b03811660009081526101356020526040902054909150611b925760405162461bcd60e51b815260206004820152602160248201527f52656769737472793a20524556455253455f5245434f52445f49535f454d50546044820152605960f81b6064820152608401610aba565b61105d81613327565b6060816001600160401b03811115611bc357634e487b7160e01b600052604160045260246000fd5b604051908082528060200260200182016040528015611bf657816020015b6060815260200190600190039081611be15790505b50905060005b8281101561159757611c33848483818110611c2757634e487b7160e01b600052603260045260246000fd5b905060200201356117e8565b828281518110611c5357634e487b7160e01b600052603260045260246000fd5b60200260200101819052508080611c6990614eac565b915050611bfc565b610134546001600160a01b0316611c86612111565b6001600160a01b031614611cac5760405162461bcd60e51b8152600401610aba90614bf1565b61013454611cc3906001600160a01b031684612120565b827fc5beef08f693b11c316c0c8394a377a0033c9cf701b8cd8afd79cecef60c39528383604051611cf5929190614b0a565b60405180910390a2505050565b600054610100900460ff1615808015611d225750600054600160ff909116105b80611d3c5750303b158015611d3c575060005460ff166001145b611d9f5760405162461bcd60e51b815260206004820152602e60248201527f496e697469616c697a61626c653a20636f6e747261637420697320616c72656160448201526d191e481a5b9a5d1a585b1a5e995960921b6064820152608401610aba565b6000805460ff191660011790558015611dc2576000805461ff0019166101001790555b61013480546001600160a01b0319166001600160a01b038716179055837f8ffb960699dc2ba88f34d0e41c029c3c36c95149679fe1d0153a9582bec9237880546001600160a01b0319166001600160a01b03929092169190911790556040805180820182526013815272556e73746f707061626c6520446f6d61696e7360681b60208083019190915282518084019093526002835261155160f21b90830152611e6a9161336c565b611e726133ba565b611e7a6133ba565b611e83836133e3565b611e8c82613413565b8015610e35576000805461ff0019169055604051600181527f7f26b83ff96e1f2b6a682f133852f6798a09c465da95921460cefb38474024989060200160405180910390a15050505050565b60006001600160e01b031982166380ac58cd60e01b1480611f0957506001600160e01b03198216635b5e139f60e01b145b8061089957506301ffc9a760e01b6001600160e01b0319831614610899565b6000818152606760205260409020546001600160a01b031661105d5760405162461bcd60e51b8152602060048201526018602482015277115490cdcc8c4e881a5b9d985b1a59081d1bdad95b88125160421b6044820152606401610aba565b30331415611fe557611f97613443565b811461105d5760405162461bcd60e51b815260206004820152601760248201527f52656769737472793a20544f4b454e5f494e56414c49440000000000000000006044820152606401610aba565b61105d81613458565b6000611ff9826110c0565b9050806001600160a01b0316836001600160a01b031614156120675760405162461bcd60e51b815260206004820152602160248201527f4552433732313a20617070726f76616c20746f2063757272656e74206f776e656044820152603960f91b6064820152608401610aba565b806001600160a01b0316612079612111565b6001600160a01b031614806120955750612095816107e1612111565b6121075760405162461bcd60e51b815260206004820152603e60248201527f4552433732313a20617070726f76652063616c6c6572206973206e6f7420746f60448201527f6b656e206f776e6572206e6f7220617070726f76656420666f7220616c6c00006064820152608401610aba565b61096c8383613486565b600061211b6134f4565b905090565b6001600160a01b0382166121765760405162461bcd60e51b815260206004820181905260248201527f4552433732313a206d696e7420746f20746865207a65726f20616464726573736044820152606401610aba565b6000818152606760205260409020546001600160a01b0316156121db5760405162461bcd60e51b815260206004820152601c60248201527f4552433732313a20746f6b656e20616c7265616479206d696e746564000000006044820152606401610aba565b6121e760008383613510565b6001600160a01b0382166000908152606860205260408120805460019290612210908490614d5c565b909155505060008181526067602052604080822080546001600160a01b0319166001600160a01b03861690811790915590518392907fddf252ad1be2c89b69c2b068fc378daa952ba7f163c4a11628f55a4df523b3ef908290a45050565b6000612278612914565b90506122848183613486565b600080516020614f4983398151915254604080516020808201869052825180830390910181528183019283905263e3dec8fb60e01b9092526001600160a01b0390921691829163e3dec8fb916122e19188913091906044016149f9565b600060405180830381600087803b1580156122fb57600080fd5b505af115801561230f573d6000803e3d6000fd5b5050505050505050565b6060610d3b8360405160200161232f9190614923565b6040516020818303038152906040528051906020012060001c836135ad565b606061235985613458565b600080876001600160a01b0316866123738b8a898961368f565b6040516123809190614923565b60006040518083038160008787f1925050503d80600081146123be576040519150601f19603f3d011682016040523d82523d6000602084013e6123c3565b606091505b5090925090506123d4603f87614d74565b5a116123f057634e487b7160e01b600052600160045260246000fd5b61243082826040518060400160405280601a81526020017f42617365466f727761726465723a2043414c4c5f4641494c45440000000000008152506136bf565b9998505050505050505050565b805160009081905b801561159757612486828561245b600185614d88565b8151811061247957634e487b7160e01b600052603260045260246000fd5b60200260200101516136f8565b91508061249281614e60565b915050612445565b6124a3816137a5565b6040516020016124b591815260200190565b60408051601f198184030181528282528051602091820120600085815260cb9092529181209190915582917f185c30856dadb58bf097c1f665a52ada7029752dbcad008ea3fefc73bee8c9fe9190a250565b826001600160a01b031661251a826110c0565b6001600160a01b03161461257e5760405162461bcd60e51b815260206004820152602560248201527f4552433732313a207472616e736665722066726f6d20696e636f72726563742060448201526437bbb732b960d91b6064820152608401610aba565b6001600160a01b0382166125e05760405162461bcd60e51b8152602060048201526024808201527f4552433732313a207472616e7366657220746f20746865207a65726f206164646044820152637265737360e01b6064820152608401610aba565b6125eb838383613510565b6125f6600082613486565b6001600160a01b038316600090815260686020526040812080546001929061261f908490614d88565b90915550506001600160a01b038216600090815260686020526040812080546001929061264d908490614d5c565b909155505060008181526067602052604080822080546001600160a01b0319166001600160a01b0386811691821790925591518493918716917fddf252ad1be2c89b69c2b068fc378daa952ba7f163c4a11628f55a4df523b3ef91a4505050565b60005b84811015611003576127268686838181106126dc57634e487b7160e01b600052603260045260246000fd5b90506020028101906126ee9190614cc5565b86868581811061270e57634e487b7160e01b600052603260045260246000fd5b90506020028101906127209190614cc5565b86612ace565b8061273081614eac565b9150506126b1565b606060008260008151811061275d57634e487b7160e01b600052603260045260246000fd5b602002602001015190506000600190505b8351811015611597578184828151811061279857634e487b7160e01b600052603260045260246000fd5b60200260200101516040516020016127b192919061497e565b604051602081830303815290604052915080806127cd90614eac565b91505061276e565b61dead6001600160a01b0384161480159061280757506001600160a01b03831660009081526101356020526040902054155b1561096c5761096c838383612ce9565b600080612823836110c0565b9050806001600160a01b0316846001600160a01b0316148061286a57506001600160a01b038082166000908152606a602090815260408083209388168352929052205460ff165b80610c2f5750836001600160a01b031661288384610931565b6001600160a01b031614949350505050565b60005b84811015611003576129028686838181106128c357634e487b7160e01b600052603260045260246000fd5b905060200201358585848181106128ea57634e487b7160e01b600052603260045260246000fd5b90506020028101906128fc9190614cc5565b85612bad565b8061290c81614eac565b915050612898565b600080600080516020614f498339815191525460405163721804d360e11b81523060048201526001600160a01b039091169150600090829063e43009a69060240160206040518083038186803b15801561296d57600080fd5b505afa158015612981573d6000803e3d6000fd5b505050506040513d601f19601f820116820180604052508101906129a5919061457b565b60405163e66f960360e01b8152600481018290529091506001600160a01b0383169063e66f96039060240160206040518083038186803b1580156129e857600080fd5b505afa1580156129fc573d6000803e3d6000fd5b505050506040513d601f19601f82011682018060405250810190612a209190614011565b9250505090565b6000612a32826110c0565b9050612a4081600084613510565b612a4b600083613486565b6001600160a01b0381166000908152606860205260408120805460019290612a74908490614d88565b909155505060008281526067602052604080822080546001600160a01b0319169055518391906001600160a01b038416907fddf252ad1be2c89b69c2b068fc378daa952ba7f163c4a11628f55a4df523b3ef908390a45050565b60008585604051602001612ae39291906149ba565b60408051601f198184030181528282528051602091820120601f8901829004820284018201909252878352909250612b379183918990899081908401838280828437600092019190915250612c4d92505050565b6110038187878080601f01602080910402602001604051908101604052809392919081815260200183838082843760009201919091525050604080516020601f8b0181900481028201810190925289815292508991508890819084018382808284376000920191909152508892506137d1915050565b612bb68461390c565b612c025760405162461bcd60e51b815260206004820152601c60248201527f5265636f726453746f726167653a204b45595f4e4f545f464f554e44000000006044820152606401610aba565b6112bc84612c0f866117e8565b85858080601f0160208091040260200160405190810160405280939291908181526020018383808284376000920191909152508792506137d1915050565b612c568261390c565b610f1757600082815260c960209081526040909120825161096c92840190613ded565b612c81612111565b6001600160a01b0316612c93826110c0565b6001600160a01b03161461105d5760405162461bcd60e51b815260206004820152601d60248201527f52656769737472793a2053454e4445525f49535f4e4f545f4f574e45520000006044820152606401610aba565b6000828152610138602052604090208054612d0390614e77565b15159050612d2d576000828152610138602090815260409091208251612d2b92840190613ded565b505b6001600160a01b03831660008181526101356020526040808220859055518492917feb76a21470988c474a21f690cc28fee1ed511bd812dc3c21fd0f49c5e5d4708a91a3505050565b606080612d82846117e8565b9150612d8e84846135ad565b90509250929050565b6000818152610137602052604081205460ff16801561089957506101366000612dbe612111565b6001600160a01b0316815260208101919091526040016000205460ff1692915050565b600080516020614f4983398151915254604051633805550f60e01b81526001600160a01b03909116908190633805550f90612e229086908690600401614b0a565b600060405180830381600087803b158015612e3c57600080fd5b505af1158015610e8a573d6000803e3d6000fd5b816001600160a01b0316836001600160a01b03161415612eb25760405162461bcd60e51b815260206004820152601960248201527f4552433732313a20617070726f766520746f2063616c6c6572000000000000006044820152606401610aba565b6001600160a01b038381166000818152606a6020908152604080832094871680845294825291829020805460ff191686151590811790915591519182527f17307eab39ab6107e8899845ad3d59bd9653f200f220920489ca2b5937696c31910160405180910390a3505050565b6040838101519051636ccbae5f60e01b8152600481019190915260009081903090636ccbae5f9060240160206040518083038186803b158015612f6157600080fd5b505afa158015612f75573d6000803e3d6000fd5b505050506040513d601f19601f82011682018060405250810190612f99919061457b565b90506000613047866060015180519060200120868860200151604051602001612fe79392919092835260609190911b6bffffffffffffffffffffffff19166020830152603482015260540190565b60408051601f1981840301815282825280516020918201207f19457468657265756d205369676e6564204d6573736167653a0a33320000000084830152603c8085019190915282518085039091018152605c909301909152815191012090565b905081866020015114801561306d5750855161306d906001600160a01b03168286613932565b9695505050505050565b60606001600160a01b0383163b6130df5760405162461bcd60e51b815260206004820152602660248201527f416464726573733a2064656c65676174652063616c6c20746f206e6f6e2d636f6044820152651b9d1c9858dd60d21b6064820152608401610aba565b600080846001600160a01b0316846040516130fa9190614923565b600060405180830381855af49150503d8060008114613135576040519150601f19603f3d011682016040523d82523d6000602084013e61313a565b606091505b5091509150610ac38282604051806060016040528060278152602001614f69602791396136bf565b61316d848484612507565b61317984848484613a82565b6112bc5760405162461bcd60e51b8152600401610aba90614b9f565b61319f8484612120565b827fc5beef08f693b11c316c0c8394a377a0033c9cf701b8cd8afd79cecef60c3952836040516131cf9190614b1e565b60405180910390a280156112bc576112bc8484846127d5565b606061013380546108ae90614e77565b60608161321c5750506040805180820190915260018152600360fc1b602082015290565b8160005b8115613246578061323081614eac565b915061323f9050600a83614d74565b9150613220565b6000816001600160401b0381111561326e57634e487b7160e01b600052604160045260246000fd5b6040519080825280601f01601f191660200182016040528015613298576020820181803683370190505b5090505b8415610c2f576132ad600183614d88565b91506132ba600a86614ec7565b6132c5906030614d5c565b60f81b8183815181106132e857634e487b7160e01b600052603260045260246000fd5b60200101906001600160f81b031916908160001a90535061330a600a86614d74565b945061329c565b61331a8161249a565b610e3585858585856126ae565b6001600160a01b03811660008181526101356020526040808220829055517ffcf5eec0cfa3e6332f5f0e63ec242d71f866a61d121d6cdf5c2eb3b668a26c4f9190a250565b600054610100900460ff166133935760405162461bcd60e51b8152600401610aba90614c38565b81516133a6906065906020850190613ded565b50805161096c906066906020840190613ded565b600054610100900460ff166133e15760405162461bcd60e51b8152600401610aba90614c38565b565b600054610100900460ff1661340a5760405162461bcd60e51b8152600401610aba90614c38565b61105d81613b93565b600054610100900460ff1661343a5760405162461bcd60e51b8152600401610aba90614c38565b61105d81613bec565b6000303314156134555750601f193601355b90565b60008181526101006020526040902054613473906001614d5c565b6000918252610100602052604090912055565b600081815260696020526040902080546001600160a01b0319166001600160a01b03841690811790915581906134bb826110c0565b6001600160a01b03167f8c5be1e5ebec7d5bd14f71427d1e84f3dd0314c0f7b2291e5b200ac8c7c3b92560405160405180910390a45050565b60003033141561350b575060331936013560601c90565b503390565b6000818152610137602052604090205460ff16158061353757506001600160a01b03821615155b6135835760405162461bcd60e51b815260206004820152601860248201527f52656769737472793a20544f4b454e5f555047524144454400000000000000006044820152606401610aba565b6001600160a01b0383166000908152610135602052604090205481141561096c5761096c83613327565b60606135b882612d97565b156135d25750604080516020810190915260008152610899565b60ca60006135df846137a5565b81526020019081526020016000206000848152602001908152602001600020805461360990614e77565b80601f016020809104026020016040519081016040528092919081815260200182805461363590614e77565b80156136825780601f1061365757610100808354040283529160200191613682565b820191906000526020600020905b81548152906001019060200180831161366557829003601f168201915b5050505050905092915050565b60608285856040516020016136a69392919061493f565b6040516020818303038152906040529050949350505050565b606083156136ce575081610d3b565b8251156136de5782518084602001fd5b8160405162461bcd60e51b8152600401610aba9190614b1e565b60008151600014156137445760405162461bcd60e51b815260206004820152601560248201527452656769737472793a204c4142454c5f454d50545960581b6044820152606401610aba565b82826040516020016137569190614923565b60405160208183030381529060405280519060200120604051602001613786929190918252602082015260400190565b60408051601f1981840301815291905280516020909101209392505050565b600081815260cb6020526040812054156137cd57600082815260cb6020526040902054610899565b5090565b60ca60006137de836137a5565b81526020019081526020016000206000858152602001908152602001600020805461380890614e77565b1515905061385f578260405161381e9190614923565b6040518091039020817f7ae4f661958fbecc2f77be6b0eb280d2a6f604b29e1e7221c82b9da0c4af7f86856040516138569190614b1e565b60405180910390a35b8160ca600061386d846137a5565b81526020019081526020016000206000868152602001908152602001600020908051906020019061389f929190613ded565b50816040516138ae9190614923565b6040518091039020836040516138c49190614923565b6040518091039020827f851ffe8e74d5015261dba0a1f9e1b0e5d42c5af5d2ad1908fee897c7d80a0d9286866040516138fe929190614b31565b60405180910390a450505050565b600081815260c960205260408120805482919061392890614e77565b9050119050919050565b60008060006139418585613c3a565b9092509050600081600481111561396857634e487b7160e01b600052602160045260246000fd5b1480156139865750856001600160a01b0316826001600160a01b0316145b1561399657600192505050610d3b565b600080876001600160a01b0316631626ba7e60e01b88886040516024016139be929190614af1565b60408051601f198184030181529181526020820180516001600160e01b03166001600160e01b03199094169390931790925290516139fc9190614923565b600060405180830381855afa9150503d8060008114613a37576040519150601f19603f3d011682016040523d82523d6000602084013e613a3c565b606091505b5091509150818015613a4f575080516020145b8015613a7657508051630b135d3f60e11b90613a74908301602090810190840161457b565b145b98975050505050505050565b60006001600160a01b0384163b15613b8b57836001600160a01b031663150b7a02613aab612111565b8786866040518563ffffffff1660e01b8152600401613acd9493929190614a25565b602060405180830381600087803b158015613ae757600080fd5b505af1925050508015613b17575060408051601f3d908101601f19168201909252613b14918101906145af565b60015b613b71573d808015613b45576040519150601f19603f3d011682016040523d82523d6000602084013e613b4a565b606091505b508051613b695760405162461bcd60e51b8152600401610aba90614b9f565b805181602001fd5b6001600160e01b031916630a85bd0160e11b149050610c2f565b506001610c2f565b600054610100900460ff16613bba5760405162461bcd60e51b8152600401610aba90614c38565b80600080516020614f498339815191525b80546001600160a01b0319166001600160a01b039290921691909117905550565b600054610100900460ff16613c135760405162461bcd60e51b8152600401610aba90614c38565b807f8bea9a6f8afd34f4e29c585f854e0cc5161431bf5fc299d468454d33dce53b87613bcb565b600080825160411415613c715760208301516040840151606085015160001a613c6587828585613c80565b94509450505050613c79565b506000905060025b9250929050565b6000807f7fffffffffffffffffffffffffffffff5d576e7357a4501ddfe92f46681b20a0831115613cb75750600090506003613d64565b8460ff16601b14158015613ccf57508460ff16601c14155b15613ce05750600090506004613d64565b6040805160008082526020820180845289905260ff881692820192909252606081018690526080810185905260019060a0016020604051602081039080840390855afa158015613d34573d6000803e3d6000fd5b5050604051601f1901519150506001600160a01b038116613d5d57600060019250925050613d64565b9150600090505b94509492505050565b828054613d7990614e77565b90600052602060002090601f016020900481019282613d9b5760008555613de1565b82601f10613db45782800160ff19823516178555613de1565b82800160010185558215613de1579182015b82811115613de1578235825591602001919060010190613dc6565b506137cd929150613e61565b828054613df990614e77565b90600052602060002090601f016020900481019282613e1b5760008555613de1565b82601f10613e3457805160ff1916838001178555613de1565b82800160010185558215613de1579182015b82811115613de1578251825591602001919060010190613e46565b5b808211156137cd5760008155600101613e62565b6000613e89613e8484614d39565b614d09565b9050808382526020808301915083868660051b86011115613ea957600080fd5b6000805b87811015613ee95782356001600160401b03811115613eca578283fd5b613ed68a828a01613f8b565b8652509383019391830191600101613ead565b50505050509392505050565b60008083601f840112613f06578182fd5b5081356001600160401b03811115613f1c578182fd5b6020830191508360208260051b8501011115613c7957600080fd5b80358015158114613f4757600080fd5b919050565b60008083601f840112613f5d578182fd5b5081356001600160401b03811115613f73578182fd5b602083019150836020828501011115613c7957600080fd5b600082601f830112613f9b578081fd5b81356001600160401b03811115613fb457613fb4614f07565b613fc7601f8201601f1916602001614d09565b818152846020838601011115613fdb578283fd5b816020850160208301379081016020019190915292915050565b600060208284031215614006578081fd5b8135610d3b81614f1d565b600060208284031215614022578081fd5b8151610d3b81614f1d565b6000806040838503121561403f578081fd5b823561404a81614f1d565b9150602083013561405a81614f1d565b809150509250929050565b6000806000806080858703121561407a578182fd5b843561408581614f1d565b9350602085013561409581614f1d565b925060408501356140a581614f1d565b915060608501356140b581614f1d565b939692955090935050565b6000806000606084860312156140d4578081fd5b83356140df81614f1d565b925060208401356140ef81614f1d565b929592945050506040919091013590565b600080600080600060808688031215614117578283fd5b853561412281614f1d565b9450602086013561413281614f1d565b93506040860135925060608601356001600160401b03811115614153578182fd5b61415f88828901613f4c565b969995985093965092949392505050565b60008060008060808587031215614185578182fd5b843561419081614f1d565b935060208501356141a081614f1d565b92506040850135915060608501356001600160401b038111156141c1578182fd5b6141cd87828801613f8b565b91505092959194509250565b60008060008060008060008060a0898b0312156141f4578586fd5b88356141ff81614f1d565b975060208901356001600160401b038082111561421a578788fd5b6142268c838d01613ef5565b909950975060408b013591508082111561423e578485fd5b61424a8c838d01613ef5565b909750955060608b0135915080821115614262578485fd5b5061426f8b828c01613ef5565b9094509250614282905060808a01613f37565b90509295985092959890939650565b600080604083850312156142a3578182fd5b82356142ae81614f1d565b9150612d8e60208401613f37565b6000806000604084860312156142d0578081fd5b83356142db81614f1d565b925060208401356001600160401b038111156142f5578182fd5b61430186828701613f4c565b9497909650939450505050565b60008060408385031215614320578182fd5b823561432b81614f1d565b946020939093013593505050565b6000806000806060858703121561434e578182fd5b843561435981614f1d565b93506020850135925060408501356001600160401b0381111561437a578283fd5b61438687828801613f4c565b95989497509550505050565b600080602083850312156143a4578182fd5b82356001600160401b038111156143b9578283fd5b6143c585828601613ef5565b90969095509350505050565b6000806000806000606086880312156143e8578283fd5b85356001600160401b03808211156143fe578485fd5b61440a89838a01613ef5565b90975095506020880135915080821115614422578485fd5b5061442f88828901613ef5565b96999598509660400135949350505050565b600080600060408486031215614455578081fd5b83356001600160401b0381111561446a578182fd5b61447686828701613ef5565b909790965060209590950135949350505050565b60006020828403121561449b578081fd5b81356001600160401b038111156144b0578182fd5b8201601f810184136144c0578182fd5b610c2f84823560208401613e76565b600060208083850312156144e1578182fd5b82356001600160401b038111156144f6578283fd5b8301601f81018513614506578283fd5b8035614514613e8482614d39565b80828252848201915084840188868560051b8701011115614533578687fd5b8694505b83851015614555578035835260019490940193918501918501614537565b50979650505050505050565b600060208284031215614572578081fd5b610d3b82613f37565b60006020828403121561458c578081fd5b5051919050565b6000602082840312156145a4578081fd5b8135610d3b81614f32565b6000602082840312156145c0578081fd5b8151610d3b81614f32565b60008060008060008060006080888a0312156145e5578081fd5b87356001600160401b03808211156145fb578283fd5b6146078b838c01613f4c565b909950975060208a0135965060408a0135915080821115614626578283fd5b6146328b838c01613ef5565b909650945060608a013591508082111561464a578283fd5b506146578a828b01613ef5565b989b979a50959850939692959293505050565b6000806020838503121561467c578182fd5b82356001600160401b03811115614691578283fd5b6143c585828601613f4c565b6000806000806000606086880312156146b4578283fd5b85356001600160401b03808211156146ca578485fd5b6146d689838a01613f4c565b909750955060208801359150808211156146ee578485fd5b5061442f88828901613f4c565b60008060006040848603121561470f578081fd5b83356001600160401b03811115614724578182fd5b61447686828701613f4c565b600060208284031215614741578081fd5b81356001600160401b03811115614756578182fd5b610c2f84828501613f8b565b600080600060408486031215614776578081fd5b83356001600160401b038082111561478c578283fd5b908501906080828803121561479f578283fd5b909350602085013590808211156147b4578283fd5b5061430186828701613f4c565b6000602082840312156147d2578081fd5b5035919050565b6000806000604084860312156147ed578081fd5b8335925060208401356001600160401b038111156142f5578182fd5b6000806000806060858703121561481e578182fd5b8435935060208501356001600160401b0381111561483a578283fd5b61484687828801613f4c565b9598909750949560400135949350505050565b6000806040838503121561486b578182fd5b50508035926020909101359150565b600081518084526020808501808196508360051b81019150828601855b858110156148c15782840389526148af8483516148f7565b98850198935090840190600101614897565b5091979650505050505050565b81835281816020850137506000828201602090810191909152601f909101601f19169091010190565b6000815180845261490f816020860160208601614e34565b601f01601f19169290920160200192915050565b60008251614935818460208701614e34565b9190910192915050565b60008451614951818460208901614e34565b60609490941b6bffffffffffffffffffffffff191691909301908152601481019190915260340192915050565b60008351614990818460208801614e34565b601760f91b90830190815283516149ae816001840160208801614e34565b01600101949350505050565b8183823760009101908152919050565b600083516149dc818460208801614e34565b8351908301906149f0818360208801614e34565b01949350505050565b6001600160a01b03848116825283166020820152606060408201819052600090610ac3908301846148f7565b6001600160a01b038581168252841660208201526040810183905260806060820181905260009061306d908301846148f7565b6000602080830181845280855180835260408601915060408160051b8701019250838701855b82811015614aac57603f19888603018452614a9a8583516148f7565b94509285019290850190600101614a7e565b5092979650505050505050565b602081526000610d3b602083018461487a565b604081526000614adf604083018561487a565b8281036020840152610d37818561487a565b828152604060208201526000610c2f60408301846148f7565b602081526000610c2f6020830184866148ce565b602081526000610d3b60208301846148f7565b604081526000614b4460408301856148f7565b8281036020840152610d3781856148f7565b60208082526029908201527f52656769737472793a2053454e4445525f49535f4e4f545f415050524f5645446040820152682fa7a92fa7aba722a960b91b606082015260800190565b60208082526032908201527f4552433732313a207472616e7366657220746f206e6f6e20455243373231526560408201527131b2b4bb32b91034b6b83632b6b2b73a32b960711b606082015260800190565b60208082526027908201527f52656769737472793a2053454e4445525f49535f4e4f545f4d494e54494e475f60408201526626a0a720a3a2a960c91b606082015260800190565b6020808252602b908201527f496e697469616c697a61626c653a20636f6e7472616374206973206e6f74206960408201526a6e697469616c697a696e6760a81b606082015260800190565b60208082526022908201527f52656769737472793a20494e53554646494349454e545f5045524d495353494f6040820152614e5360f01b606082015260800190565b6000808335601e19843603018112614cdb578283fd5b8301803591506001600160401b03821115614cf4578283fd5b602001915036819003821315613c7957600080fd5b604051601f8201601f191681016001600160401b0381118282101715614d3157614d31614f07565b604052919050565b60006001600160401b03821115614d5257614d52614f07565b5060051b60200190565b60008219821115614d6f57614d6f614edb565b500190565b600082614d8357614d83614ef1565b500490565b600082821015614d9a57614d9a614edb565b500390565b6000610d3b368484613e76565b600060808236031215614dbd578081fd5b604051608081016001600160401b038282108183111715614de057614de0614f07565b8160405284359150614df182614f1d565b81835260208501356020840152604085013560408401526060850135915080821115614e1b578384fd5b50614e2836828601613f8b565b60608301525092915050565b60005b83811015614e4f578181015183820152602001614e37565b838111156112bc5750506000910152565b600081614e6f57614e6f614edb565b506000190190565b600181811c90821680614e8b57607f821691505b6020821081141561126d57634e487b7160e01b600052602260045260246000fd5b6000600019821415614ec057614ec0614edb565b5060010190565b600082614ed657614ed6614ef1565b500690565b634e487b7160e01b600052601160045260246000fd5b634e487b7160e01b600052601260045260246000fd5b634e487b7160e01b600052604160045260246000fd5b6001600160a01b038116811461105d57600080fd5b6001600160e01b03198116811461105d57600080fdfebe2bb46ac0377341a1ec5c3116d70fd5029d704bd46292e58f6265dd177ebafe416464726573733a206c6f772d6c6576656c2064656c65676174652063616c6c206661696c6564a164736f6c6343000804000a",
  "linkReferences": {},
  "deployedLinkReferences": {}
}