{
  "_format": "hh-sol-artifact-1",
  "contractName": "UNSRegistry",
  "sourceName": "contracts/UNSRegistry.sol",
  "abi": [
    {
      "anonymous": false,
      "inputs": [
        {
          "indexed": false,
          "internalType": "address",
          "name": "previousAdmin",
          "type": "address"
        },
        {
          "indexed": false,
          "internalType": "address",
          "name": "newAdmin",
          "type": "address"
        }
      ],
      "name": "AdminChanged",
      "type": "event"
    },
    {
      "anonymous": false,
      "inputs": [
        {
          "indexed": true,
          "internalType": "address",
          "name": "owner",
          "type": "address"
        },
        {
          "indexed": true,
          "internalType": "address",
          "name": "approved",
          "type": "address"
        },
        {
          "indexed": true,
          "internalType": "uint256",
          "name": "tokenId",
          "type": "uint256"
        }
      ],
      "name": "Approval",
      "type": "event"
    },
    {
      "anonymous": false,
      "inputs": [
        {
          "indexed": true,
          "internalType": "address",
          "name": "owner",
          "type": "address"
        },
        {
          "indexed": true,
          "internalType": "address",
          "name": "operator",
          "type": "address"
        },
        {
          "indexed": false,
          "internalType": "bool",
          "name": "approved",
          "type": "bool"
        }
      ],
      "name": "ApprovalForAll",
      "type": "event"
    },
    {
      "anonymous": false,
      "inputs": [
        {
          "indexed": false,
          "internalType": "uint8",
          "name": "version",
          "type": "uint8"
        }
      ],
      "name": "Initialized",
      "type": "event"
    },
    {
      "anonymous": false,
      "inputs": [
        {
          "indexed": true,
          "internalType": "uint256",
          "name": "tokenId",
          "type": "uint256"
        },
        {
          "indexed": true,
          "internalType": "string",
          "name": "keyIndex",
          "type": "string"
        },
        {
          "indexed": false,
          "internalType": "string",
          "name": "key",
          "type": "string"
        }
      ],
      "name": "NewKey",
      "type": "event"
    },
    {
      "anonymous": false,
      "inputs": [
        {
          "indexed": true,
          "internalType": "uint256",
          "name": "tokenId",
          "type": "uint256"
        },
        {
          "indexed": false,
          "internalType": "string",
          "name": "uri",
          "type": "string"
        }
      ],
      "name": "NewURI",
      "type": "event"
    },
    {
      "anonymous": false,
      "inputs": [
        {
          "indexed": false,
          "internalType": "string",
          "name": "prefix",
          "type": "string"
        }
      ],
      "name": "NewURIPrefix",
      "type": "event"
    },
    {
      "anonymous": false,
      "inputs": [
        {
          "indexed": true,
          "internalType": "address",
          "name": "addr",
          "type": "address"
        }
      ],
      "name": "RemoveReverse",
      "type": "event"
    },
    {
      "anonymous": false,
      "inputs": [
        {
          "indexed": true,
          "internalType": "uint256",
          "name": "tokenId",
          "type": "uint256"
        }
      ],
      "name": "ResetRecords",
      "type": "event"
    },
    {
      "anonymous": false,
      "inputs": [
        {
          "indexed": true,
          "internalType": "uint256",
          "name": "tokenId",
          "type": "uint256"
        },
        {
          "indexed": true,
          "internalType": "string",
          "name": "keyIndex",
          "type": "string"
        },
        {
          "indexed": true,
          "internalType": "string",
          "name": "valueIndex",
          "type": "string"
        },
        {
          "indexed": false,
          "internalType": "string",
          "name": "key",
          "type": "string"
        },
        {
          "indexed": false,
          "internalType": "string",
          "name": "value",
          "type": "string"
        }
      ],
      "name": "Set",
      "type": "event"
    },
    {
      "anonymous": false,
      "inputs": [
        {
          "indexed": true,
          "internalType": "address",
          "name": "addr",
          "type": "address"
        },
        {
          "indexed": true,
          "internalType": "uint256",
          "name": "tokenId",
          "type": "uint256"
        }
      ],
      "name": "SetReverse",
      "type": "event"
    },
    {
      "anonymous": false,
      "inputs": [
        {
          "indexed": true,
          "internalType": "address",
          "name": "from",
          "type": "address"
        },
        {
          "indexed": true,
          "internalType": "address",
          "name": "to",
          "type": "address"
        },
        {
          "indexed": true,
          "internalType": "uint256",
          "name": "tokenId",
          "type": "uint256"
        }
      ],
      "name": "Transfer",
      "type": "event"
    },
    {
      "anonymous": false,
      "inputs": [
        {
          "indexed": true,
          "internalType": "address",
          "name": "implementation",
          "type": "address"
        }
      ],
      "name": "Upgraded",
      "type": "event"
    },
    {
      "anonymous": false,
      "inputs": [
        {
          "indexed": true,
          "internalType": "address",
          "name": "user",
          "type": "address"
        },
        {
          "indexed": false,
          "internalType": "uint256[]",
          "name": "tokenIds",
          "type": "uint256[]"
        }
      ],
      "name": "WithdrawnBatch",
      "type": "event"
    },
    {
      "inputs": [],
      "name": "BATCH_LIMIT",
      "outputs": [
        {
          "internalType": "uint256",
          "name": "",
          "type": "uint256"
        }
      ],
      "stateMutability": "view",
      "type": "function"
    },
    {
      "inputs": [],
      "name": "NAME",
      "outputs": [
        {
          "internalType": "string",
          "name": "",
          "type": "string"
        }
      ],
      "stateMutability": "view",
      "type": "function"
    },
    {
      "inputs": [],
      "name": "VERSION",
      "outputs": [
        {
          "internalType": "string",
          "name": "",
          "type": "string"
        }
      ],
      "stateMutability": "view",
      "type": "function"
    },
    {
      "inputs": [
        {
          "internalType": "string",
          "name": "key",
          "type": "string"
        }
      ],
      "name": "addKey",
      "outputs": [],
      "stateMutability": "nonpayable",
      "type": "function"
    },
    {
      "inputs": [
        {
          "internalType": "address",
          "name": "addr",
          "type": "address"
        }
      ],
      "name": "addProxyReader",
      "outputs": [],
      "stateMutability": "nonpayable",
      "type": "function"
    },
    {
      "inputs": [
        {
          "internalType": "address",
          "name": "to",
          "type": "address"
        },
        {
          "internalType": "uint256",
          "name": "tokenId",
          "type": "uint256"
        }
      ],
      "name": "approve",
      "outputs": [],
      "stateMutability": "nonpayable",
      "type": "function"
    },
    {
      "inputs": [
        {
          "internalType": "address",
          "name": "owner",
          "type": "address"
        }
      ],
      "name": "balanceOf",
      "outputs": [
        {
          "internalType": "uint256",
          "name": "",
          "type": "uint256"
        }
      ],
      "stateMutability": "view",
      "type": "function"
    },
    {
      "inputs": [
        {
          "internalType": "uint256",
          "name": "tokenId",
          "type": "uint256"
        }
      ],
      "name": "burn",
      "outputs": [],
      "stateMutability": "nonpayable",
      "type": "function"
    },
    {
      "inputs": [
        {
          "internalType": "address",
          "name": "user",
          "type": "address"
        },
        {
          "internalType": "bytes",
          "name": "depositData",
          "type": "bytes"
        }
      ],
      "name": "deposit",
      "outputs": [],
      "stateMutability": "nonpayable",
      "type": "function"
    },
    {
      "inputs": [
        {
          "internalType": "uint256",
          "name": "tokenId",
          "type": "uint256"
        }
      ],
      "name": "depositToPolygon",
      "outputs": [],
      "stateMutability": "nonpayable",
      "type": "function"
    },
    {
      "inputs": [
        {
          "components": [
            {
              "internalType": "address",
              "name": "from",
              "type": "address"
            },
            {
              "internalType": "uint256",
              "name": "nonce",
              "type": "uint256"
            },
            {
              "internalType": "uint256",
              "name": "tokenId",
              "type": "uint256"
            },
            {
              "internalType": "bytes",
              "name": "data",
              "type": "bytes"
            }
          ],
          "internalType": "struct IForwarder.ForwardRequest",
          "name": "req",
          "type": "tuple"
        },
        {
          "internalType": "bytes",
          "name": "signature",
          "type": "bytes"
        }
      ],
      "name": "execute",
      "outputs": [
        {
          "internalType": "bytes",
          "name": "",
          "type": "bytes"
        }
      ],
      "stateMutability": "nonpayable",
      "type": "function"
    },
    {
      "inputs": [
        {
          "internalType": "uint256",
          "name": "tokenId",
          "type": "uint256"
        }
      ],
      "name": "exists",
      "outputs": [
        {
          "internalType": "bool",
          "name": "",
          "type": "bool"
        }
      ],
      "stateMutability": "view",
      "type": "function"
    },
    {
      "inputs": [
        {
          "internalType": "string",
          "name": "key",
          "type": "string"
        },
        {
          "internalType": "uint256",
          "name": "tokenId",
          "type": "uint256"
        }
      ],
      "name": "get",
      "outputs": [
        {
          "internalType": "string",
          "name": "value",
          "type": "string"
        }
      ],
      "stateMutability": "view",
      "type": "function"
    },
    {
      "inputs": [
        {
          "internalType": "uint256",
          "name": "tokenId",
          "type": "uint256"
        }
      ],
      "name": "getApproved",
      "outputs": [
        {
          "internalType": "address",
          "name": "",
          "type": "address"
        }
      ],
      "stateMutability": "view",
      "type": "function"
    },
    {
      "inputs": [
        {
          "internalType": "uint256",
          "name": "keyHash",
          "type": "uint256"
        },
        {
          "internalType": "uint256",
          "name": "tokenId",
          "type": "uint256"
        }
      ],
      "name": "getByHash",
      "outputs": [
        {
          "internalType": "string",
          "name": "key",
          "type": "string"
        },
        {
          "internalType": "string",
          "name": "value",
          "type": "string"
        }
      ],
      "stateMutability": "view",
      "type": "function"
    },
    {
      "inputs": [
        {
          "internalType": "uint256",
          "name": "keyHash",
          "type": "uint256"
        }
      ],
      "name": "getKey",
      "outputs": [
        {
          "internalType": "string",
          "name": "",
          "type": "string"
        }
      ],
      "stateMutability": "view",
      "type": "function"
    },
    {
      "inputs": [
        {
          "internalType": "uint256[]",
          "name": "hashes",
          "type": "uint256[]"
        }
      ],
      "name": "getKeys",
      "outputs": [
        {
          "internalType": "string[]",
          "name": "values",
          "type": "string[]"
        }
      ],
      "stateMutability": "view",
      "type": "function"
    },
    {
      "inputs": [
        {
          "internalType": "string[]",
          "name": "keys",
          "type": "string[]"
        },
        {
          "internalType": "uint256",
          "name": "tokenId",
          "type": "uint256"
        }
      ],
      "name": "getMany",
      "outputs": [
        {
          "internalType": "string[]",
          "name": "values",
          "type": "string[]"
        }
      ],
      "stateMutability": "view",
      "type": "function"
    },
    {
      "inputs": [
        {
          "internalType": "uint256[]",
          "name": "keyHashes",
          "type": "uint256[]"
        },
        {
          "internalType": "uint256",
          "name": "tokenId",
          "type": "uint256"
        }
      ],
      "name": "getManyByHash",
      "outputs": [
        {
          "internalType": "string[]",
          "name": "keys",
          "type": "string[]"
        },
        {
          "internalType": "string[]",
          "name": "values",
          "type": "string[]"
        }
      ],
      "stateMutability": "view",
      "type": "function"
    },
    {
      "inputs": [
        {
          "internalType": "address",
          "name": "mintingManager",
          "type": "address"
        }
      ],
      "name": "initialize",
      "outputs": [],
      "stateMutability": "nonpayable",
      "type": "function"
    },
    {
      "inputs": [
        {
          "internalType": "address",
          "name": "owner",
          "type": "address"
        },
        {
          "internalType": "address",
          "name": "operator",
          "type": "address"
        }
      ],
      "name": "isApprovedForAll",
      "outputs": [
        {
          "internalType": "bool",
          "name": "",
          "type": "bool"
        }
      ],
      "stateMutability": "view",
      "type": "function"
    },
    {
      "inputs": [
        {
          "internalType": "address",
          "name": "spender",
          "type": "address"
        },
        {
          "internalType": "uint256",
          "name": "tokenId",
          "type": "uint256"
        }
      ],
      "name": "isApprovedOrOwner",
      "outputs": [
        {
          "internalType": "bool",
          "name": "",
          "type": "bool"
        }
      ],
      "stateMutability": "view",
      "type": "function"
    },
    {
      "inputs": [
        {
          "internalType": "address",
          "name": "forwarder",
          "type": "address"
        }
      ],
      "name": "isTrustedForwarder",
      "outputs": [
        {
          "internalType": "bool",
          "name": "",
          "type": "bool"
        }
      ],
      "stateMutability": "view",
      "type": "function"
    },
    {
      "inputs": [
        {
          "internalType": "address",
          "name": "user",
          "type": "address"
        },
        {
          "internalType": "uint256",
          "name": "tokenId",
          "type": "uint256"
        }
      ],
      "name": "mint",
      "outputs": [],
      "stateMutability": "nonpayable",
      "type": "function"
    },
    {
      "inputs": [
        {
          "internalType": "address",
          "name": "user",
          "type": "address"
        },
        {
          "internalType": "uint256",
          "name": "tokenId",
          "type": "uint256"
        },
        {
          "internalType": "bytes",
          "name": "",
          "type": "bytes"
        }
      ],
      "name": "mint",
      "outputs": [],
      "stateMutability": "nonpayable",
      "type": "function"
    },
    {
      "inputs": [
        {
          "internalType": "uint256",
          "name": "tokenId",
          "type": "uint256"
        },
        {
          "internalType": "string",
          "name": "uri",
          "type": "string"
        }
      ],
      "name": "mintTLD",
      "outputs": [],
      "stateMutability": "nonpayable",
      "type": "function"
    },
    {
      "inputs": [
        {
          "internalType": "address",
          "name": "to",
          "type": "address"
        },
        {
          "internalType": "string[]",
          "name": "labels",
          "type": "string[]"
        },
        {
          "internalType": "string[]",
          "name": "keys",
          "type": "string[]"
        },
        {
          "internalType": "string[]",
          "name": "values",
          "type": "string[]"
        }
      ],
      "name": "mintWithRecords",
      "outputs": [],
      "stateMutability": "nonpayable",
      "type": "function"
    },
    {
      "inputs": [],
      "name": "name",
      "outputs": [
        {
          "internalType": "string",
          "name": "",
          "type": "string"
        }
      ],
      "stateMutability": "view",
      "type": "function"
    },
    {
      "inputs": [
        {
          "internalType": "string[]",
          "name": "labels",
          "type": "string[]"
        }
      ],
      "name": "namehash",
      "outputs": [
        {
          "internalType": "uint256",
          "name": "",
          "type": "uint256"
        }
      ],
      "stateMutability": "pure",
      "type": "function"
    },
    {
      "inputs": [
        {
          "internalType": "uint256",
          "name": "tokenId",
          "type": "uint256"
        }
      ],
      "name": "nonceOf",
      "outputs": [
        {
          "internalType": "uint256",
          "name": "",
          "type": "uint256"
        }
      ],
      "stateMutability": "view",
      "type": "function"
    },
    {
      "inputs": [
        {
          "internalType": "address",
          "name": "",
          "type": "address"
        },
        {
          "internalType": "address",
          "name": "from",
          "type": "address"
        },
        {
          "internalType": "uint256",
          "name": "tokenId",
          "type": "uint256"
        },
        {
          "internalType": "bytes",
          "name": "data",
          "type": "bytes"
        }
      ],
      "name": "onERC721Received",
      "outputs": [
        {
          "internalType": "bytes4",
          "name": "",
          "type": "bytes4"
        }
      ],
      "stateMutability": "nonpayable",
      "type": "function"
    },
    {
      "inputs": [
        {
          "internalType": "uint256",
          "name": "tokenId",
          "type": "uint256"
        }
      ],
      "name": "ownerOf",
      "outputs": [
        {
          "internalType": "address",
          "name": "",
          "type": "address"
        }
      ],
      "stateMutability": "view",
      "type": "function"
    },
    {
      "inputs": [
        {
          "internalType": "string[]",
          "name": "keys",
          "type": "string[]"
        },
        {
          "internalType": "string[]",
          "name": "values",
          "type": "string[]"
        },
        {
          "internalType": "uint256",
          "name": "tokenId",
          "type": "uint256"
        }
      ],
      "name": "reconfigure",
      "outputs": [],
      "stateMutability": "nonpayable",
      "type": "function"
    },
    {
      "inputs": [],
      "name": "removeReverse",
      "outputs": [],
      "stateMutability": "nonpayable",
      "type": "function"
    },
    {
      "inputs": [
        {
          "internalType": "uint256",
          "name": "tokenId",
          "type": "uint256"
        }
      ],
      "name": "reset",
      "outputs": [],
      "stateMutability": "nonpayable",
      "type": "function"
    },
    {
      "inputs": [
        {
          "internalType": "uint256",
          "name": "tokenId",
          "type": "uint256"
        }
      ],
      "name": "resolverOf",
      "outputs": [
        {
          "internalType": "address",
          "name": "",
          "type": "address"
        }
      ],
      "stateMutability": "view",
      "type": "function"
    },
    {
      "inputs": [
        {
          "internalType": "address",
          "name": "addr",
          "type": "address"
        }
      ],
      "name": "reverseOf",
      "outputs": [
        {
          "internalType": "uint256",
          "name": "reverse",
          "type": "uint256"
        }
      ],
      "stateMutability": "view",
      "type": "function"
    },
    {
      "inputs": [],
      "name": "root",
      "outputs": [
        {
          "internalType": "uint256",
          "name": "",
          "type": "uint256"
        }
      ],
      "stateMutability": "pure",
      "type": "function"
    },
    {
      "inputs": [
        {
          "internalType": "address",
          "name": "from",
          "type": "address"
        },
        {
          "internalType": "address",
          "name": "to",
          "type": "address"
        },
        {
          "internalType": "uint256",
          "name": "tokenId",
          "type": "uint256"
        }
      ],
      "name": "safeTransferFrom",
      "outputs": [],
      "stateMutability": "nonpayable",
      "type": "function"
    },
    {
      "inputs": [
        {
          "internalType": "address",
          "name": "from",
          "type": "address"
        },
        {
          "internalType": "address",
          "name": "to",
          "type": "address"
        },
        {
          "internalType": "uint256",
          "name": "tokenId",
          "type": "uint256"
        },
        {
          "internalType": "bytes",
          "name": "data",
          "type": "bytes"
        }
      ],
      "name": "safeTransferFrom",
      "outputs": [],
      "stateMutability": "nonpayable",
      "type": "function"
    },
    {
      "inputs": [
        {
          "internalType": "string",
          "name": "key",
          "type": "string"
        },
        {
          "internalType": "string",
          "name": "value",
          "type": "string"
        },
        {
          "internalType": "uint256",
          "name": "tokenId",
          "type": "uint256"
        }
      ],
      "name": "set",
      "outputs": [],
      "stateMutability": "nonpayable",
      "type": "function"
    },
    {
      "inputs": [
        {
          "internalType": "address",
          "name": "operator",
          "type": "address"
        },
        {
          "internalType": "bool",
          "name": "approved",
          "type": "bool"
        }
      ],
      "name": "setApprovalForAll",
      "outputs": [],
      "stateMutability": "nonpayable",
      "type": "function"
    },
    {
      "inputs": [
        {
          "internalType": "uint256",
          "name": "keyHash",
          "type": "uint256"
        },
        {
          "internalType": "string",
          "name": "value",
          "type": "string"
        },
        {
          "internalType": "uint256",
          "name": "tokenId",
          "type": "uint256"
        }
      ],
      "name": "setByHash",
      "outputs": [],
      "stateMutability": "nonpayable",
      "type": "function"
    },
    {
      "inputs": [
        {
          "internalType": "address",
          "name": "registry",
          "type": "address"
        }
      ],
      "name": "setCNSRegistry",
      "outputs": [],
      "stateMutability": "nonpayable",
      "type": "function"
    },
    {
      "inputs": [
        {
          "internalType": "address",
          "name": "clientChainManager",
          "type": "address"
        }
      ],
      "name": "setChildChainManager",
      "outputs": [],
      "stateMutability": "nonpayable",
      "type": "function"
    },
    {
      "inputs": [
        {
          "internalType": "string[]",
          "name": "keys",
          "type": "string[]"
        },
        {
          "internalType": "string[]",
          "name": "values",
          "type": "string[]"
        },
        {
          "internalType": "uint256",
          "name": "tokenId",
          "type": "uint256"
        }
      ],
      "name": "setMany",
      "outputs": [],
      "stateMutability": "nonpayable",
      "type": "function"
    },
    {
      "inputs": [
        {
          "internalType": "uint256[]",
          "name": "keyHashes",
          "type": "uint256[]"
        },
        {
          "internalType": "string[]",
          "name": "values",
          "type": "string[]"
        },
        {
          "internalType": "uint256",
          "name": "tokenId",
          "type": "uint256"
        }
      ],
      "name": "setManyByHash",
      "outputs": [],
      "stateMutability": "nonpayable",
      "type": "function"
    },
    {
      "inputs": [
        {
          "internalType": "address",
          "name": "to",
          "type": "address"
        },
        {
          "internalType": "uint256",
          "name": "tokenId",
          "type": "uint256"
        }
      ],
      "name": "setOwner",
      "outputs": [],
      "stateMutability": "nonpayable",
      "type": "function"
    },
    {
      "inputs": [
        {
          "internalType": "uint256",
          "name": "tokenId",
          "type": "uint256"
        }
      ],
      "name": "setReverse",
      "outputs": [],
      "stateMutability": "nonpayable",
      "type": "function"
    },
    {
      "inputs": [
        {
          "internalType": "address",
          "name": "rootChainManager",
          "type": "address"
        }
      ],
      "name": "setRootChainManager",
      "outputs": [],
      "stateMutability": "nonpayable",
      "type": "function"
    },
    {
      "inputs": [
        {
          "internalType": "string",
          "name": "prefix",
          "type": "string"
        }
      ],
      "name": "setTokenURIPrefix",
      "outputs": [],
      "stateMutability": "nonpayable",
      "type": "function"
    },
    {
      "inputs": [
        {
          "internalType": "bytes4",
          "name": "interfaceId",
          "type": "bytes4"
        }
      ],
      "name": "supportsInterface",
      "outputs": [
        {
          "internalType": "bool",
          "name": "",
          "type": "bool"
        }
      ],
      "stateMutability": "view",
      "type": "function"
    },
    {
      "inputs": [],
      "name": "symbol",
      "outputs": [
        {
          "internalType": "string",
          "name": "",
          "type": "string"
        }
      ],
      "stateMutability": "view",
      "type": "function"
    },
    {
      "inputs": [
        {
          "internalType": "uint256",
          "name": "tokenId",
          "type": "uint256"
        }
      ],
      "name": "tokenURI",
      "outputs": [
        {
          "internalType": "string",
          "name": "",
          "type": "string"
        }
      ],
      "stateMutability": "view",
      "type": "function"
    },
    {
      "inputs": [
        {
          "internalType": "address",
          "name": "from",
          "type": "address"
        },
        {
          "internalType": "address",
          "name": "to",
          "type": "address"
        },
        {
          "internalType": "uint256",
          "name": "tokenId",
          "type": "uint256"
        }
      ],
      "name": "transferFrom",
      "outputs": [],
      "stateMutability": "nonpayable",
      "type": "function"
    },
    {
      "inputs": [
        {
          "internalType": "address",
          "name": "to",
          "type": "address"
        },
        {
          "internalType": "uint256",
          "name": "tokenId",
          "type": "uint256"
        },
        {
          "internalType": "string[]",
          "name": "keys",
          "type": "string[]"
        },
        {
          "internalType": "string[]",
          "name": "values",
          "type": "string[]"
        }
      ],
      "name": "unlockWithRecords",
      "outputs": [],
      "stateMutability": "nonpayable",
      "type": "function"
    },
    {
      "inputs": [
        {
          "components": [
            {
              "internalType": "address",
              "name": "from",
              "type": "address"
            },
            {
              "internalType": "uint256",
              "name": "nonce",
              "type": "uint256"
            },
            {
              "internalType": "uint256",
              "name": "tokenId",
              "type": "uint256"
            },
            {
              "internalType": "bytes",
              "name": "data",
              "type": "bytes"
            }
          ],
          "internalType": "struct IForwarder.ForwardRequest",
          "name": "req",
          "type": "tuple"
        },
        {
          "internalType": "bytes",
          "name": "signature",
          "type": "bytes"
        }
      ],
      "name": "verify",
      "outputs": [
        {
          "internalType": "bool",
          "name": "",
          "type": "bool"
        }
      ],
      "stateMutability": "view",
      "type": "function"
    },
    {
      "inputs": [
        {
          "internalType": "uint256",
          "name": "tokenId",
          "type": "uint256"
        }
      ],
      "name": "withdraw",
      "outputs": [],
      "stateMutability": "nonpayable",
      "type": "function"
    },
    {
      "inputs": [
        {
          "internalType": "uint256[]",
          "name": "tokenIds",
          "type": "uint256[]"
        }
      ],
      "name": "withdrawBatch",
      "outputs": [],
      "stateMutability": "nonpayable",
      "type": "function"
    },
    {
      "inputs": [
        {
          "internalType": "bytes",
          "name": "inputData",
          "type": "bytes"
        },
        {
          "internalType": "uint256",
          "name": "tokenId",
          "type": "uint256"
        },
        {
          "internalType": "string[]",
          "name": "keys",
          "type": "string[]"
        },
        {
          "internalType": "string[]",
          "name": "values",
          "type": "string[]"
        }
      ],
      "name": "withdrawFromPolygon",
      "outputs": [],
      "stateMutability": "nonpayable",
      "type": "function"
    },
    {
      "inputs": [
        {
          "internalType": "uint256",
          "name": "tokenId",
          "type": "uint256"
        }
      ],
      "name": "withdrawWithMetadata",
      "outputs": [],
      "stateMutability": "nonpayable",
      "type": "function"
    }
  ],
  "bytecode": "0x608060405234801561001057600080fd5b5061509f806100206000396000f3fe608060405234801561001057600080fd5b50600436106103af5760003560e01c8063728a44d8116101f4578063ab3b87fe1161011a578063cf2c52cb116100ad578063f25eb5c11161007c578063f25eb5c114610894578063f5c1f76e1461089c578063f7df5c60146108af578063ffa1ad74146108c257600080fd5b8063cf2c52cb1461082b578063e985e9c51461083e578063ebf0c7171461087a578063ec129eea1461088157600080fd5b8063bb5b27e1116100e9578063bb5b27e1146107df578063c4d66de8146107f2578063c87b56dd14610805578063ce92b33e1461081857600080fd5b8063ab3b87fe14610785578063b3f9e4cb14610798578063b85afd28146107ab578063b88d4fde146107cc57600080fd5b80639559c0bd11610192578063a22cb46511610161578063a22cb46514610733578063a3f4df7e14610746578063a424740014610772578063a5e584dc146104fd57600080fd5b80639559c0bd146106fd57806395d89b411461070557806399e0dd7c1461070d5780639c8d41561461072057600080fd5b80637e37479e116101ce5780637e37479e146106b15780637f139a00146106c457806394d008ef146106d75780639508b1c4146106ea57600080fd5b8063728a44d814610678578063764a81bb1461068b5780637d67df631461069e57600080fd5b806340c10f19116102d957806350382c1a11610277578063638e5c7811610246578063638e5c7814610610578063672b9f81146106235780636ccbae5f1461064457806370a082311461066557600080fd5b806350382c1a146105bb57806350960239146105ce578063572b6c05146105e15780636352211e146105fd57600080fd5b8063430c2081116102b3578063430c20811461056f57806347c81699146105825780634a72584d146105955780634f558e79146105a857600080fd5b806340c10f191461053657806342842e0e1461054957806342966c681461055c57600080fd5b80631be5e7ed1161035157806327f189751161032057806327f18975146104ea5780632e1a7d4d146104fd578063310bd74b14610510578063384e9a551461052357600080fd5b80631be5e7ed146104905780631bf7e13e146104a357806323b872dd146104b6578063276fabb1146104c957600080fd5b8063095ea7b31161038d578063095ea7b31461041c5780630dee3b5c14610431578063150b7a02146104445780631bd8cc1a1461047057600080fd5b806301ffc9a7146103b457806306fdde03146103dc578063081812fc146103f1575b600080fd5b6103c76103c2366004614665565b6108e6565b60405190151581526020015b60405180910390f35b6103e46108f7565b6040516103d39190614ba9565b6104046103ff366004614873565b610989565b6040516001600160a01b0390911681526020016103d3565b61042f61042a366004614398565b6109b0565b005b61042f61043f3660046143c3565b610a05565b61045761045236600461419a565b610a7b565b6040516001600160e01b031990911681526020016103d3565b61048361047e366004614553565b610bd1565b6040516103d39190614b0a565b6103e461049e3660046147ad565b610cf1565b6103e46104b1366004614814565b610d3c565b61042f6104c436600461415a565b610e47565b6104dc6104d73660046144a4565b610ecd565b6040519081526020016103d3565b61042f6104f83660046144e3565b610ee1565b61042f61050b366004614873565b610f5c565b61042f61051e366004614873565b610fd8565b61042f610531366004614873565b611046565b61042f610544366004614398565b611105565b61042f61055736600461415a565b611152565b61042f61056a366004614873565b61116d565b6103c761057d366004614398565b6111e4565b61042f61059036600461474f565b6111f0565b61042f6105a33660046148bb565b611262565b6103c76105b6366004614873565b6112d3565b61042f6105c93660046147e2565b6112f2565b61042f6105dc3660046140ea565b611325565b6103c76105ef3660046140ea565b6001600160a01b0316301490565b61040461060b366004614873565b611385565b61042f61061e366004614873565b6113e5565b61063661063136600461490b565b611430565b6040516103d3929190614bbc565b6104dc610652366004614873565b6000908152610100602052604090205490565b6104dc6106733660046140ea565b611448565b61042f6106863660046140ea565b6114ce565b61042f6106993660046140ea565b611575565b61042f6106ac366004614273565b611624565b6104dc6106bf3660046140ea565b6116a3565b61042f6106d23660046140ea565b6116d4565b61042f6106e536600461444b565b611773565b61042f6106f836600461469d565b6117c2565b6104dc601481565b6103e4611849565b61042f61071b36600461471c565b611858565b61042f61072e3660046144a4565b6118de565b61042f61074136600461431b565b611a61565b6103e46040518060400160405280600d81526020016c554e533a20526567697374727960981b81525081565b6103c7610780366004614814565b611a73565b61042f610793366004614398565b611abe565b6104046107a6366004614873565b611b36565b6107be6107b9366004614553565b611b60565b6040516103d3929190614b1d565b61042f6107da36600461420a565b611cc8565b6103e46107ed366004614873565b611d42565b61042f6108003660046140ea565b611de4565b6103e4610813366004614873565b611f5e565b61042f6108263660046144e3565b611fc4565b61042f610839366004614346565b612036565b6103c761084c366004614122565b6001600160a01b039182166000908152606a6020908152604080832093909416825291909152205460ff1690565b60006104dc565b61042f61088f3660046144e3565b612113565b61042f612185565b6104836108aa3660046144a4565b61220b565b61042f6108bd36600461488b565b6122e8565b6103e4604051806040016040528060058152602001640302e362e360dc1b81525081565b60006108f18261236c565b92915050565b60606065805461090690614fa1565b80601f016020809104026020016040519081016040528092919081815260200182805461093290614fa1565b801561097f5780601f106109545761010080835404028352916020019161097f565b820191906000526020600020905b81548152906001019060200180831161096257829003601f168201915b5050505050905090565b6000610994826123bc565b506000908152606960205260409020546001600160a01b031690565b80303314156109ed576109c161241b565b81146109e85760405162461bcd60e51b81526004016109df90614cc3565b60405180910390fd5b6109f6565b6109f681612430565b610a00838361245e565b505050565b610134546001600160a01b0316610a1a612581565b6001600160a01b031614610a405760405162461bcd60e51b81526004016109df90614c7c565b610a4985612590565b610a5c610a5586611385565b87876125fd565b610a6984848484896127a4565b610a73868661282e565b505050505050565b60007f8ffb960699dc2ba88f34d0e41c029c3c36c95149679fe1d0153a9582bec92378546001600160a01b0316610ab0612581565b6001600160a01b03161415610b7257610ac7612581565b6001600160a01b03166342966c68856040518263ffffffff1660e01b8152600401610af491815260200190565b600060405180830381600087803b158015610b0e57600080fd5b505af1158015610b22573d6000803e3d6000fd5b505050821580159150610b3c5750610b3c82840184614633565b15610b5a57610b4b308561286f565b610b5585856129bd565b610b64565b610b64858561286f565b50630a85bd0160e11b610bc8565b60405162461bcd60e51b815260206004820152602560248201527f52656769737472793a204552433732315f524543454956494e475f50524f4849604482015264109255115160da1b60648201526084016109df565b95945050505050565b6060826001600160401b03811115610bf957634e487b7160e01b600052604160045260246000fd5b604051908082528060200260200182016040528015610c2c57816020015b6060815260200190600190039081610c175790505b50905060005b83811015610ce957610cab858583818110610c5d57634e487b7160e01b600052603260045260246000fd5b9050602002810190610c6f9190614d87565b8080601f016020809104026020016040519081016040528093929190818152602001838380828437600092019190915250879250612a5e915050565b828281518110610ccb57634e487b7160e01b600052603260045260246000fd5b60200260200101819052508080610ce190614fd6565b915050610c32565b509392505050565b6060610d3484848080601f016020809104026020016040519081016040528093929190818152602001838380828437600092019190915250869250612a5e915050565b949350505050565b606060005a9050610d4e858585611a73565b610daa5760405162461bcd60e51b815260206004820152602760248201527f554e535265676973747279466f727761726465723a205349474e41545552455f6044820152661253959053125160ca1b60648201526084016109df565b610e3c610dba60208701876140ea565b30604088013584610dce60608b018b614d87565b8080601f01602080910402602001604051908101604052809392919081815260200183838082843760009201919091525050604080516020601f8e018190048102820181019092528c815292508c91508b9081908401838280828437600092019190915250612a9392505050565b9150505b9392505050565b80610e59610e53612581565b82612b82565b610e755760405162461bcd60e51b81526004016109df90614be1565b8130331415610ea957610e8661241b565b8114610ea45760405162461bcd60e51b81526004016109df90614cc3565b610eb2565b610eb281612430565b610ebb83612590565b610ec68585856125fd565b5050505050565b6000610e40610edc8385614e61565b612c00565b80610eed610e53612581565b610f095760405162461bcd60e51b81526004016109df90614be1565b8130331415610f3d57610f1a61241b565b8114610f385760405162461bcd60e51b81526004016109df90614cc3565b610f46565b610f4681612430565b610f538787878787612c5d565b50505050505050565b610f6581611385565b6001600160a01b0316610f76612581565b6001600160a01b031614610fcc5760405162461bcd60e51b815260206004820152601d60248201527f52656769737472793a20494e56414c49445f544f4b454e5f4f574e455200000060448201526064016109df565b610fd581612cdc565b50565b80610fe4610e53612581565b6110005760405162461bcd60e51b81526004016109df90614be1565b81303314156110345761101161241b565b811461102f5760405162461bcd60e51b81526004016109df90614cc3565b61103d565b61103d81612430565b610a0083612590565b8061104f612581565b6001600160a01b031661106182611385565b6001600160a01b0316146110b75760405162461bcd60e51b815260206004820152601d60248201527f52656769737472793a2053454e4445525f49535f4e4f545f4f574e455200000060448201526064016109df565b81303314156110eb576110c861241b565b81146110e65760405162461bcd60e51b81526004016109df90614cc3565b6110f4565b6110f481612430565b610a006110ff612581565b84612d83565b61110d612dcb565b6001600160a01b031661111e612581565b6001600160a01b0316146111445760405162461bcd60e51b81526004016109df90614d45565b61114e828261286f565b5050565b610a0083838360405180602001604052806000815250611cc8565b80611179610e53612581565b6111955760405162461bcd60e51b81526004016109df90614be1565b81303314156111c9576111a661241b565b81146111c45760405162461bcd60e51b81526004016109df90614cc3565b6111d2565b6111d281612430565b6111db83612590565b610a0083612cdc565b6000610e408383612b82565b806111fc610e53612581565b6112185760405162461bcd60e51b81526004016109df90614be1565b813033141561124c5761122961241b565b81146112475760405162461bcd60e51b81526004016109df90614cc3565b611255565b61125581612430565b610f538787878787612ede565b8061126e610e53612581565b61128a5760405162461bcd60e51b81526004016109df90614be1565b81303314156112be5761129b61241b565b81146112b95760405162461bcd60e51b81526004016109df90614cc3565b6112c7565b6112c781612430565b610a7386868686612fbd565b6000818152606760205260408120546001600160a01b031615156108f1565b610fd58160405160200161130691906149d5565b6040516020818303038152906040528051906020012060001c8261305d565b610134546001600160a01b031661133a612581565b6001600160a01b0316146113605760405162461bcd60e51b81526004016109df90614c7c565b6001600160a01b0316600090815261013660205260409020805460ff19166001179055565b6000818152606760205260408120546001600160a01b0316806108f15760405162461bcd60e51b8152602060048201526018602482015277115490cdcc8c4e881a5b9d985b1a59081d1bdad95b88125160421b60448201526064016109df565b806113f1610e53612581565b61140d5760405162461bcd60e51b81526004016109df90614be1565b61141f611418612581565b30846125fd565b61114e61142a612581565b836129bd565b60608061143d8484613089565b909590945092505050565b60006001600160a01b0382166114b25760405162461bcd60e51b815260206004820152602960248201527f4552433732313a2061646472657373207a65726f206973206e6f7420612076616044820152683634b21037bbb732b960b91b60648201526084016109df565b506001600160a01b031660009081526068602052604090205490565b600080516020615073833981519152546001600160a01b0316156115435760405162461bcd60e51b815260206004820152602660248201527f52656769737472793a20524f4f545f434841494e5f4d414e454745525f4e4f546044820152655f454d50545960d01b60648201526084016109df565b806000805160206150738339815191525b80546001600160a01b0319166001600160a01b039290921691909117905550565b7f8bea9a6f8afd34f4e29c585f854e0cc5161431bf5fc299d468454d33dce53b87546001600160a01b0316156115fd5760405162461bcd60e51b815260206004820152602760248201527f52656769737472793a204348494c445f434841494e5f4d414e454745525f4e4f604482015266545f454d50545960c81b60648201526084016109df565b807f8bea9a6f8afd34f4e29c585f854e0cc5161431bf5fc299d468454d33dce53b87611554565b610134546001600160a01b0316611639612581565b6001600160a01b03161461165f5760405162461bcd60e51b81526004016109df90614c7c565b600061166e610edc8789614e61565b905061168c88826116876116828a8c614e61565b6130aa565b613147565b61169985858585856127a4565b5050505050505050565b6001600160a01b038116600090815261013560205260408120546116c681613193565b6116ce578091505b50919050565b7f8ffb960699dc2ba88f34d0e41c029c3c36c95149679fe1d0153a9582bec92378546001600160a01b03161561174c5760405162461bcd60e51b815260206004820181905260248201527f52656769737472793a20434e535f52454749535452595f4e4f545f454d50545960448201526064016109df565b807f8ffb960699dc2ba88f34d0e41c029c3c36c95149679fe1d0153a9582bec92378611554565b61177b612dcb565b6001600160a01b031661178c612581565b6001600160a01b0316146117b25760405162461bcd60e51b81526004016109df90614d45565b6117bc848461286f565b50505050565b6117cc87876131dd565b6117d4612581565b6001600160a01b03166117e686611385565b6001600160a01b03161461183c5760405162461bcd60e51b815260206004820152601d60248201527f52656769737472793a2053454e4445525f49535f4e4f545f4f574e455200000060448201526064016109df565b610f5384848484896127a4565b60606066805461090690614fa1565b610134546001600160a01b031661186d612581565b6001600160a01b0316146118935760405162461bcd60e51b81526004016109df90614c7c565b6118a06101338383613ee1565b507f4b120d6a959a84a520fa48f5f937cca0e79129423487af7901213b5d2e89313b82826040516118d2929190614b95565b60405180910390a15050565b8060148111156119305760405162461bcd60e51b815260206004820152601d60248201527f52656769737472793a20455843454544535f42415443485f4c494d495400000060448201526064016109df565b60005b81811015611a1157600084848381811061195d57634e487b7160e01b600052603260045260246000fd5b90506020020135905061196f81611385565b6001600160a01b0316611980612581565b6001600160a01b031614816040516020016119c791907f52656769737472793a20494e56414c49445f544f4b454e5f4f574e45522000008152601e810191909152603e0190565b604051602081830303815290604052906119f45760405162461bcd60e51b81526004016109df9190614ba9565b506119fe81612cdc565b5080611a0981614fd6565b915050611933565b50611a1a612581565b6001600160a01b03167ff871896b17e9cb7a64941c62c188a4f5c621b86800e3d15452ece01ce56073df8484604051611a54929190614b42565b60405180910390a2505050565b61114e611a6c612581565b838361324c565b6000610d34611a8185614ed6565b3085858080601f01602080910402602001604051908101604052809392919081815260200183838082843760009201919091525061331b92505050565b80611aca610e53612581565b611ae65760405162461bcd60e51b81526004016109df90614be1565b8130331415611b1a57611af761241b565b8114611b155760405162461bcd60e51b81526004016109df90614cc3565b611b23565b611b2381612430565b6117bc611b2f84611385565b85856125fd565b6000818152606760205260408120546001600160a01b0316611b595760006108f1565b3092915050565b606080836001600160401b03811115611b8957634e487b7160e01b600052604160045260246000fd5b604051908082528060200260200182016040528015611bbc57816020015b6060815260200190600190039081611ba75790505b509150836001600160401b03811115611be557634e487b7160e01b600052604160045260246000fd5b604051908082528060200260200182016040528015611c1857816020015b6060815260200190600190039081611c035790505b50905060005b84811015611cbf57611c56868683818110611c4957634e487b7160e01b600052603260045260246000fd5b9050602002013585613089565b848381518110611c7657634e487b7160e01b600052603260045260246000fd5b60200260200101848481518110611c9d57634e487b7160e01b600052603260045260246000fd5b6020026020010182905282905250508080611cb790614fd6565b915050611c1e565b50935093915050565b81611cd4610e53612581565b611cf05760405162461bcd60e51b81526004016109df90614be1565b8230331415611d2457611d0161241b565b8114611d1f5760405162461bcd60e51b81526004016109df90614cc3565b611d2d565b611d2d81612430565b611d3684612590565b610a7386868686613473565b600081815260c960205260409020805460609190611d5f90614fa1565b80601f0160208091040260200160405190810160405280929190818152602001828054611d8b90614fa1565b8015611dd85780601f10611dad57610100808354040283529160200191611dd8565b820191906000526020600020905b815481529060010190602001808311611dbb57829003601f168201915b50505050509050919050565b600054610100900460ff1615808015611e045750600054600160ff909116105b80611e1e5750303b158015611e1e575060005460ff166001145b611e815760405162461bcd60e51b815260206004820152602e60248201527f496e697469616c697a61626c653a20636f6e747261637420697320616c72656160448201526d191e481a5b9a5d1a585b1a5e995960921b60648201526084016109df565b6000805460ff191660011790558015611ea4576000805461ff0019166101001790555b61013480546001600160a01b0319166001600160a01b0384161790556040805180820182526013815272556e73746f707061626c6520446f6d61696e7360681b60208083019190915282518084019093526002835261155160f21b90830152611f0c916134a6565b611f146134f4565b611f1c6134f4565b801561114e576000805461ff0019169055604051600181527f7f26b83ff96e1f2b6a682f133852f6798a09c465da95921460cefb3847402498906020016118d2565b6060611f69826123bc565b6000611f7361351d565b90506000815111611f935760405180602001604052806000815250610e40565b80611f9d8461352d565b604051602001611fae929190614a7c565b6040516020818303038152906040529392505050565b80611fd0610e53612581565b611fec5760405162461bcd60e51b81526004016109df90614be1565b813033141561202057611ffd61241b565b811461201b5760405162461bcd60e51b81526004016109df90614cc3565b612029565b61202981612430565b610f5387878787876127a4565b7f8bea9a6f8afd34f4e29c585f854e0cc5161431bf5fc299d468454d33dce53b87546001600160a01b0316612069612581565b6001600160a01b03161461208f5760405162461bcd60e51b81526004016109df90614d45565b60208114156120b25760006120a682840184614873565b90506117bc848261286f565b60006120c08284018461459c565b805190915060005b81811015610a7357612101868483815181106120f457634e487b7160e01b600052603260045260246000fd5b602002602001015161286f565b8061210b81614fd6565b9150506120c8565b8061211f610e53612581565b61213b5760405162461bcd60e51b81526004016109df90614be1565b813033141561216f5761214c61241b565b811461216a5760405162461bcd60e51b81526004016109df90614cc3565b612178565b61217881612430565b610f538787878787613646565b600061218f612581565b6001600160a01b038116600090815261013560205260409020549091506122025760405162461bcd60e51b815260206004820152602160248201527f52656769737472793a20524556455253455f5245434f52445f49535f454d50546044820152605960f81b60648201526084016109df565b610fd58161365c565b6060816001600160401b0381111561223357634e487b7160e01b600052604160045260246000fd5b60405190808252806020026020018201604052801561226657816020015b60608152602001906001900390816122515790505b50905060005b828110156122e1576122a384848381811061229757634e487b7160e01b600052603260045260246000fd5b90506020020135611d42565b8282815181106122c357634e487b7160e01b600052603260045260246000fd5b602002602001018190525080806122d990614fd6565b91505061226c565b5092915050565b610134546001600160a01b03166122fd612581565b6001600160a01b0316146123235760405162461bcd60e51b81526004016109df90614c7c565b6101345461233a906001600160a01b03168461286f565b827fc5beef08f693b11c316c0c8394a377a0033c9cf701b8cd8afd79cecef60c39528383604051611a54929190614b95565b60006001600160e01b031982166380ac58cd60e01b148061239d57506001600160e01b03198216635b5e139f60e01b145b806108f157506301ffc9a760e01b6001600160e01b03198316146108f1565b6000818152606760205260409020546001600160a01b0316610fd55760405162461bcd60e51b8152602060048201526018602482015277115490cdcc8c4e881a5b9d985b1a59081d1bdad95b88125160421b60448201526064016109df565b60003033141561242d5750601f193601355b90565b6000818152610100602052604090205461244b906001614e1e565b6000918252610100602052604090912055565b600061246982611385565b9050806001600160a01b0316836001600160a01b031614156124d75760405162461bcd60e51b815260206004820152602160248201527f4552433732313a20617070726f76616c20746f2063757272656e74206f776e656044820152603960f91b60648201526084016109df565b806001600160a01b03166124e9612581565b6001600160a01b0316148061250557506125058161084c612581565b6125775760405162461bcd60e51b815260206004820152603e60248201527f4552433732313a20617070726f76652063616c6c6572206973206e6f7420746f60448201527f6b656e206f776e6572206e6f7220617070726f76656420666f7220616c6c000060648201526084016109df565b610a0083836136a1565b600061258b61370f565b905090565b6125998161372b565b6040516020016125ab91815260200190565b60408051601f198184030181528282528051602091820120600085815260cb9092529181209190915582917f185c30856dadb58bf097c1f665a52ada7029752dbcad008ea3fefc73bee8c9fe9190a250565b826001600160a01b031661261082611385565b6001600160a01b0316146126745760405162461bcd60e51b815260206004820152602560248201527f4552433732313a207472616e736665722066726f6d20696e636f72726563742060448201526437bbb732b960d91b60648201526084016109df565b6001600160a01b0382166126d65760405162461bcd60e51b8152602060048201526024808201527f4552433732313a207472616e7366657220746f20746865207a65726f206164646044820152637265737360e01b60648201526084016109df565b6126e1838383613757565b6126ec6000826136a1565b6001600160a01b0383166000908152606860205260408120805460019290612715908490614e4a565b90915550506001600160a01b0382166000908152606860205260408120805460019290612743908490614e1e565b909155505060008181526067602052604080822080546001600160a01b0319166001600160a01b0386811691821790925591518493918716917fddf252ad1be2c89b69c2b068fc378daa952ba7f163c4a11628f55a4df523b3ef91a4505050565b60005b84811015610a735761281c8686838181106127d257634e487b7160e01b600052603260045260246000fd5b90506020028101906127e49190614d87565b86868581811061280457634e487b7160e01b600052603260045260246000fd5b90506020028101906128169190614d87565b86612ede565b8061282681614fd6565b9150506127a7565b61dead6001600160a01b0383161480159061286057506001600160a01b03821660009081526101356020526040902054155b1561114e5761114e8282612d83565b6001600160a01b0382166128c55760405162461bcd60e51b815260206004820181905260248201527f4552433732313a206d696e7420746f20746865207a65726f206164647265737360448201526064016109df565b6000818152606760205260409020546001600160a01b03161561292a5760405162461bcd60e51b815260206004820152601c60248201527f4552433732313a20746f6b656e20616c7265616479206d696e7465640000000060448201526064016109df565b61293660008383613757565b6001600160a01b038216600090815260686020526040812080546001929061295f908490614e1e565b909155505060008181526067602052604080822080546001600160a01b0319166001600160a01b03861690811790915590518392907fddf252ad1be2c89b69c2b068fc378daa952ba7f163c4a11628f55a4df523b3ef908290a45050565b60006129c7612dcb565b90506129d381836136a1565b60008051602061507383398151915254604080516020808201869052825180830390910181528183019283905263e3dec8fb60e01b9092526001600160a01b0390921691829163e3dec8fb91612a30918891309190604401614aab565b600060405180830381600087803b158015612a4a57600080fd5b505af1158015611699573d6000803e3d6000fd5b6060610e4083604051602001612a7491906149d5565b6040516020818303038152906040528051906020012060001c836137f4565b6060612a9e85612430565b600080876001600160a01b031686612ab88b8a89896138d6565b604051612ac591906149d5565b60006040518083038160008787f1925050503d8060008114612b03576040519150601f19603f3d011682016040523d82523d6000602084013e612b08565b606091505b509092509050612b19603f87614e36565b5a11612b3557634e487b7160e01b600052600160045260246000fd5b612b7582826040518060400160405280601a81526020017f42617365466f727761726465723a2043414c4c5f4641494c4544000000000000815250613906565b9998505050505050505050565b600080612b8e83611385565b9050806001600160a01b0316846001600160a01b03161480612bd557506001600160a01b038082166000908152606a602090815260408083209388168352929052205460ff165b80610d345750836001600160a01b0316612bee84610989565b6001600160a01b031614949350505050565b805160009081905b80156122e157612c498285612c1e600185614e4a565b81518110612c3c57634e487b7160e01b600052603260045260246000fd5b602002602001015161393f565b915080612c5581614f8a565b915050612c08565b60005b84811015610a7357612cca868683818110612c8b57634e487b7160e01b600052603260045260246000fd5b90506020020135858584818110612cb257634e487b7160e01b600052603260045260246000fd5b9050602002810190612cc49190614d87565b85612fbd565b80612cd481614fd6565b915050612c60565b6000612ce782611385565b9050612cf581600084613757565b612d006000836136a1565b6001600160a01b0381166000908152606860205260408120805460019290612d29908490614e4a565b909155505060008281526067602052604080822080546001600160a01b0319169055518391906001600160a01b038416907fddf252ad1be2c89b69c2b068fc378daa952ba7f163c4a11628f55a4df523b3ef908390a45050565b6001600160a01b03821660008181526101356020526040808220849055518392917feb76a21470988c474a21f690cc28fee1ed511bd812dc3c21fd0f49c5e5d4708a91a35050565b6000806000805160206150738339815191525460405163721804d360e11b81523060048201526001600160a01b039091169150600090829063e43009a69060240160206040518083038186803b158015612e2457600080fd5b505afa158015612e38573d6000803e3d6000fd5b505050506040513d601f19601f82011682018060405250810190612e5c919061464d565b60405163e66f960360e01b8152600481018290529091506001600160a01b0383169063e66f96039060240160206040518083038186803b158015612e9f57600080fd5b505afa158015612eb3573d6000803e3d6000fd5b505050506040513d601f19601f82011682018060405250810190612ed79190614106565b9250505090565b60008585604051602001612ef3929190614a6c565b60408051601f198184030181528282528051602091820120601f8901829004820284018201909252878352909250612f47918391899089908190840183828082843760009201919091525061305d92505050565b610a738187878080601f01602080910402602001604051908101604052809392919081815260200183838082843760009201919091525050604080516020601f8b0181900481028201810190925289815292508991508890819084018382808284376000920191909152508892506139ec915050565b612fc684613b27565b6130125760405162461bcd60e51b815260206004820152601c60248201527f5265636f726453746f726167653a204b45595f4e4f545f464f554e440000000060448201526064016109df565b6117bc8461301f86611d42565b85858080601f0160208091040260200160405190810160405280939291908181526020018383808284376000920191909152508792506139ec915050565b61306682613b27565b61114e57600082815260c9602090815260409091208251610a0092840190613f61565b60608061309584611d42565b91506130a184846137f4565b90509250929050565b60606000826000815181106130cf57634e487b7160e01b600052603260045260246000fd5b602002602001015190506000600190505b83518110156122e1578184828151811061310a57634e487b7160e01b600052603260045260246000fd5b6020026020010151604051602001613123929190614a30565b6040516020818303038152906040529150808061313f90614fd6565b9150506130e0565b613151838361286f565b817fc5beef08f693b11c316c0c8394a377a0033c9cf701b8cd8afd79cecef60c3952826040516131819190614ba9565b60405180910390a2610a00838361282e565b6000818152610137602052604081205460ff1680156108f1575061013660006131ba612581565b6001600160a01b0316815260208101919091526040016000205460ff1692915050565b60008051602061507383398151915254604051633805550f60e01b81526001600160a01b03909116908190633805550f9061321e9086908690600401614b95565b600060405180830381600087803b15801561323857600080fd5b505af1158015610f53573d6000803e3d6000fd5b816001600160a01b0316836001600160a01b031614156132ae5760405162461bcd60e51b815260206004820152601960248201527f4552433732313a20617070726f766520746f2063616c6c65720000000000000060448201526064016109df565b6001600160a01b038381166000818152606a6020908152604080832094871680845294825291829020805460ff191686151590811790915591519182527f17307eab39ab6107e8899845ad3d59bd9653f200f220920489ca2b5937696c31910160405180910390a3505050565b6040838101519051636ccbae5f60e01b8152600481019190915260009081903090636ccbae5f9060240160206040518083038186803b15801561335d57600080fd5b505afa158015613371573d6000803e3d6000fd5b505050506040513d601f19601f82011682018060405250810190613395919061464d565b905060006134438660600151805190602001208688602001516040516020016133e39392919092835260609190911b6bffffffffffffffffffffffff19166020830152603482015260540190565b60408051601f1981840301815282825280516020918201207f19457468657265756d205369676e6564204d6573736167653a0a33320000000084830152603c8085019190915282518085039091018152605c909301909152815191012090565b905081866020015114801561346957508551613469906001600160a01b03168286613b4d565b9695505050505050565b61347e8484846125fd565b61348a84848484613c9d565b6117bc5760405162461bcd60e51b81526004016109df90614c2a565b600054610100900460ff166134cd5760405162461bcd60e51b81526004016109df90614cfa565b81516134e0906065906020850190613f61565b508051610a00906066906020840190613f61565b600054610100900460ff1661351b5760405162461bcd60e51b81526004016109df90614cfa565b565b6060610133805461090690614fa1565b6060816135515750506040805180820190915260018152600360fc1b602082015290565b8160005b811561357b578061356581614fd6565b91506135749050600a83614e36565b9150613555565b6000816001600160401b038111156135a357634e487b7160e01b600052604160045260246000fd5b6040519080825280601f01601f1916602001820160405280156135cd576020820181803683370190505b5090505b8415610d34576135e2600183614e4a565b91506135ef600a86614ff1565b6135fa906030614e1e565b60f81b81838151811061361d57634e487b7160e01b600052603260045260246000fd5b60200101906001600160f81b031916908160001a90535061363f600a86614e36565b94506135d1565b61364f81612590565b610ec685858585856127a4565b6001600160a01b03811660008181526101356020526040808220829055517ffcf5eec0cfa3e6332f5f0e63ec242d71f866a61d121d6cdf5c2eb3b668a26c4f9190a250565b600081815260696020526040902080546001600160a01b0319166001600160a01b03841690811790915581906136d682611385565b6001600160a01b03167f8c5be1e5ebec7d5bd14f71427d1e84f3dd0314c0f7b2291e5b200ac8c7c3b92560405160405180910390a45050565b600030331415613726575060331936013560601c90565b503390565b600081815260cb60205260408120541561375357600082815260cb60205260409020546108f1565b5090565b6000818152610137602052604090205460ff16158061377e57506001600160a01b03821615155b6137ca5760405162461bcd60e51b815260206004820152601860248201527f52656769737472793a20544f4b454e5f5550475241444544000000000000000060448201526064016109df565b6001600160a01b03831660009081526101356020526040902054811415610a0057610a008361365c565b60606137ff82613193565b1561381957506040805160208101909152600081526108f1565b60ca60006138268461372b565b81526020019081526020016000206000848152602001908152602001600020805461385090614fa1565b80601f016020809104026020016040519081016040528092919081815260200182805461387c90614fa1565b80156138c95780601f1061389e576101008083540402835291602001916138c9565b820191906000526020600020905b8154815290600101906020018083116138ac57829003601f168201915b5050505050905092915050565b60608285856040516020016138ed939291906149f1565b6040516020818303038152906040529050949350505050565b60608315613915575081610e40565b8251156139255782518084602001fd5b8160405162461bcd60e51b81526004016109df9190614ba9565b600081516000141561398b5760405162461bcd60e51b815260206004820152601560248201527452656769737472793a204c4142454c5f454d50545960581b60448201526064016109df565b828260405160200161399d91906149d5565b604051602081830303815290604052805190602001206040516020016139cd929190918252602082015260400190565b60408051601f1981840301815291905280516020909101209392505050565b60ca60006139f98361372b565b815260200190815260200160002060008581526020019081526020016000208054613a2390614fa1565b15159050613a7a5782604051613a3991906149d5565b6040518091039020817f7ae4f661958fbecc2f77be6b0eb280d2a6f604b29e1e7221c82b9da0c4af7f8685604051613a719190614ba9565b60405180910390a35b8160ca6000613a888461372b565b815260200190815260200160002060008681526020019081526020016000209080519060200190613aba929190613f61565b5081604051613ac991906149d5565b604051809103902083604051613adf91906149d5565b6040518091039020827f851ffe8e74d5015261dba0a1f9e1b0e5d42c5af5d2ad1908fee897c7d80a0d928686604051613b19929190614bbc565b60405180910390a450505050565b600081815260c9602052604081208054829190613b4390614fa1565b9050119050919050565b6000806000613b5c8585613dae565b90925090506000816004811115613b8357634e487b7160e01b600052602160045260246000fd5b148015613ba15750856001600160a01b0316826001600160a01b0316145b15613bb157600192505050610e40565b600080876001600160a01b0316631626ba7e60e01b8888604051602401613bd9929190614b7c565b60408051601f198184030181529181526020820180516001600160e01b03166001600160e01b0319909416939093179092529051613c1791906149d5565b600060405180830381855afa9150503d8060008114613c52576040519150601f19603f3d011682016040523d82523d6000602084013e613c57565b606091505b5091509150818015613c6a575080516020145b8015613c9157508051630b135d3f60e11b90613c8f908301602090810190840161464d565b145b98975050505050505050565b60006001600160a01b0384163b15613da657836001600160a01b031663150b7a02613cc6612581565b8786866040518563ffffffff1660e01b8152600401613ce89493929190614ad7565b602060405180830381600087803b158015613d0257600080fd5b505af1925050508015613d32575060408051601f3d908101601f19168201909252613d2f91810190614681565b60015b613d8c573d808015613d60576040519150601f19603f3d011682016040523d82523d6000602084013e613d65565b606091505b508051613d845760405162461bcd60e51b81526004016109df90614c2a565b805181602001fd5b6001600160e01b031916630a85bd0160e11b149050610d34565b506001610d34565b600080825160411415613de55760208301516040840151606085015160001a613dd987828585613df4565b94509450505050613ded565b506000905060025b9250929050565b6000807f7fffffffffffffffffffffffffffffff5d576e7357a4501ddfe92f46681b20a0831115613e2b5750600090506003613ed8565b8460ff16601b14158015613e4357508460ff16601c14155b15613e545750600090506004613ed8565b6040805160008082526020820180845289905260ff881692820192909252606081018690526080810185905260019060a0016020604051602081039080840390855afa158015613ea8573d6000803e3d6000fd5b5050604051601f1901519150506001600160a01b038116613ed157600060019250925050613ed8565b9150600090505b94509492505050565b828054613eed90614fa1565b90600052602060002090601f016020900481019282613f0f5760008555613f55565b82601f10613f285782800160ff19823516178555613f55565b82800160010185558215613f55579182015b82811115613f55578235825591602001919060010190613f3a565b50613753929150613fd5565b828054613f6d90614fa1565b90600052602060002090601f016020900481019282613f8f5760008555613f55565b82601f10613fa857805160ff1916838001178555613f55565b82800160010185558215613f55579182015b82811115613f55578251825591602001919060010190613fba565b5b808211156137535760008155600101613fd6565b60008083601f840112613ffb578182fd5b5081356001600160401b03811115614011578182fd5b6020830191508360208260051b8501011115613ded57600080fd5b8035801515811461403c57600080fd5b919050565b60008083601f840112614052578182fd5b5081356001600160401b03811115614068578182fd5b602083019150836020828501011115613ded57600080fd5b600082601f830112614090578081fd5b81356001600160401b038111156140a9576140a9615031565b6140bc601f8201601f1916602001614dcb565b8181528460208386010111156140d0578283fd5b816020850160208301379081016020019190915292915050565b6000602082840312156140fb578081fd5b8135610e4081615047565b600060208284031215614117578081fd5b8151610e4081615047565b60008060408385031215614134578081fd5b823561413f81615047565b9150602083013561414f81615047565b809150509250929050565b60008060006060848603121561416e578081fd5b833561417981615047565b9250602084013561418981615047565b929592945050506040919091013590565b6000806000806000608086880312156141b1578283fd5b85356141bc81615047565b945060208601356141cc81615047565b93506040860135925060608601356001600160401b038111156141ed578182fd5b6141f988828901614041565b969995985093965092949392505050565b6000806000806080858703121561421f578182fd5b843561422a81615047565b9350602085013561423a81615047565b92506040850135915060608501356001600160401b0381111561425b578182fd5b61426787828801614080565b91505092959194509250565b60008060008060008060006080888a03121561428d578485fd5b873561429881615047565b965060208801356001600160401b03808211156142b3578687fd5b6142bf8b838c01613fea565b909850965060408a01359150808211156142d7578384fd5b6142e38b838c01613fea565b909650945060608a01359150808211156142fb578384fd5b506143088a828b01613fea565b989b979a50959850939692959293505050565b6000806040838503121561432d578182fd5b823561433881615047565b91506130a16020840161402c565b60008060006040848603121561435a578081fd5b833561436581615047565b925060208401356001600160401b0381111561437f578182fd5b61438b86828701614041565b9497909650939450505050565b600080604083850312156143aa578182fd5b82356143b581615047565b946020939093013593505050565b600080600080600080608087890312156143db578384fd5b86356143e681615047565b95506020870135945060408701356001600160401b0380821115614408578586fd5b6144148a838b01613fea565b9096509450606089013591508082111561442c578384fd5b5061443989828a01613fea565b979a9699509497509295939492505050565b60008060008060608587031215614460578182fd5b843561446b81615047565b93506020850135925060408501356001600160401b0381111561448c578283fd5b61449887828801614041565b95989497509550505050565b600080602083850312156144b6578182fd5b82356001600160401b038111156144cb578283fd5b6144d785828601613fea565b90969095509350505050565b6000806000806000606086880312156144fa578283fd5b85356001600160401b0380821115614510578485fd5b61451c89838a01613fea565b90975095506020880135915080821115614534578485fd5b5061454188828901613fea565b96999598509660400135949350505050565b600080600060408486031215614567578081fd5b83356001600160401b0381111561457c578182fd5b61458886828701613fea565b909790965060209590950135949350505050565b600060208083850312156145ae578182fd5b82356001600160401b038111156145c3578283fd5b8301601f810185136145d3578283fd5b80356145e66145e182614dfb565b614dcb565b80828252848201915084840188868560051b8701011115614605578687fd5b8694505b83851015614627578035835260019490940193918501918501614609565b50979650505050505050565b600060208284031215614644578081fd5b610e408261402c565b60006020828403121561465e578081fd5b5051919050565b600060208284031215614676578081fd5b8135610e408161505c565b600060208284031215614692578081fd5b8151610e408161505c565b60008060008060008060006080888a0312156146b7578081fd5b87356001600160401b03808211156146cd578283fd5b6146d98b838c01614041565b909950975060208a0135965060408a01359150808211156146f8578283fd5b6147048b838c01613fea565b909650945060608a01359150808211156142fb578283fd5b6000806020838503121561472e578182fd5b82356001600160401b03811115614743578283fd5b6144d785828601614041565b600080600080600060608688031215614766578283fd5b85356001600160401b038082111561477c578485fd5b61478889838a01614041565b909750955060208801359150808211156147a0578485fd5b5061454188828901614041565b6000806000604084860312156147c1578081fd5b83356001600160401b038111156147d6578182fd5b61458886828701614041565b6000602082840312156147f3578081fd5b81356001600160401b03811115614808578182fd5b610d3484828501614080565b600080600060408486031215614828578081fd5b83356001600160401b038082111561483e578283fd5b9085019060808288031215614851578283fd5b90935060208501359080821115614866578283fd5b5061438b86828701614041565b600060208284031215614884578081fd5b5035919050565b60008060006040848603121561489f578081fd5b8335925060208401356001600160401b0381111561437f578182fd5b600080600080606085870312156148d0578182fd5b8435935060208501356001600160401b038111156148ec578283fd5b6148f887828801614041565b9598909750949560400135949350505050565b6000806040838503121561491d578182fd5b50508035926020909101359150565b600081518084526020808501808196508360051b81019150828601855b858110156149735782840389526149618483516149a9565b98850198935090840190600101614949565b5091979650505050505050565b81835281816020850137506000828201602090810191909152601f909101601f19169091010190565b600081518084526149c1816020860160208601614f5e565b601f01601f19169290920160200192915050565b600082516149e7818460208701614f5e565b9190910192915050565b60008451614a03818460208901614f5e565b60609490941b6bffffffffffffffffffffffff191691909301908152601481019190915260340192915050565b60008351614a42818460208801614f5e565b601760f91b9083019081528351614a60816001840160208801614f5e565b01600101949350505050565b8183823760009101908152919050565b60008351614a8e818460208801614f5e565b835190830190614aa2818360208801614f5e565b01949350505050565b6001600160a01b03848116825283166020820152606060408201819052600090610bc8908301846149a9565b6001600160a01b0385811682528416602082015260408101839052608060608201819052600090613469908301846149a9565b602081526000610e40602083018461492c565b604081526000614b30604083018561492c565b8281036020840152610e3c818561492c565b6020808252810182905260006001600160fb1b03831115614b61578081fd5b8260051b808560408501379190910160400190815292915050565b828152604060208201526000610d3460408301846149a9565b602081526000610d34602083018486614980565b602081526000610e4060208301846149a9565b604081526000614bcf60408301856149a9565b8281036020840152610e3c81856149a9565b60208082526029908201527f52656769737472793a2053454e4445525f49535f4e4f545f415050524f5645446040820152682fa7a92fa7aba722a960b91b606082015260800190565b60208082526032908201527f4552433732313a207472616e7366657220746f206e6f6e20455243373231526560408201527131b2b4bb32b91034b6b83632b6b2b73a32b960711b606082015260800190565b60208082526027908201527f52656769737472793a2053454e4445525f49535f4e4f545f4d494e54494e475f60408201526626a0a720a3a2a960c91b606082015260800190565b60208082526017908201527f52656769737472793a20544f4b454e5f494e56414c4944000000000000000000604082015260600190565b6020808252602b908201527f496e697469616c697a61626c653a20636f6e7472616374206973206e6f74206960408201526a6e697469616c697a696e6760a81b606082015260800190565b60208082526022908201527f52656769737472793a20494e53554646494349454e545f5045524d495353494f6040820152614e5360f01b606082015260800190565b6000808335601e19843603018112614d9d578283fd5b8301803591506001600160401b03821115614db6578283fd5b602001915036819003821315613ded57600080fd5b604051601f8201601f191681016001600160401b0381118282101715614df357614df3615031565b604052919050565b60006001600160401b03821115614e1457614e14615031565b5060051b60200190565b60008219821115614e3157614e31615005565b500190565b600082614e4557614e4561501b565b500490565b600082821015614e5c57614e5c615005565b500390565b6000614e6f6145e184614dfb565b808482526020808301925084368760051b87011115614e8c578485fd5b845b87811015614eca5781356001600160401b03811115614eab578687fd5b614eb736828a01614080565b8652509382019390820190600101614e8e565b50919695505050505050565b600060808236031215614ee7578081fd5b604051608081016001600160401b038282108183111715614f0a57614f0a615031565b8160405284359150614f1b82615047565b81835260208501356020840152604085013560408401526060850135915080821115614f45578384fd5b50614f5236828601614080565b60608301525092915050565b60005b83811015614f79578181015183820152602001614f61565b838111156117bc5750506000910152565b600081614f9957614f99615005565b506000190190565b600181811c90821680614fb557607f821691505b602082108114156116ce57634e487b7160e01b600052602260045260246000fd5b6000600019821415614fea57614fea615005565b5060010190565b6000826150005761500061501b565b500690565b634e487b7160e01b600052601160045260246000fd5b634e487b7160e01b600052601260045260246000fd5b634e487b7160e01b600052604160045260246000fd5b6001600160a01b0381168114610fd557600080fd5b6001600160e01b031981168114610fd557600080fdfebe2bb46ac0377341a1ec5c3116d70fd5029d704bd46292e58f6265dd177ebafea164736f6c6343000804000a",
  "linkReferences": {},
  "deployedLinkReferences": {}
}