{
  "_format": "hh-sol-artifact-1",
  "contractName": "UNSRegistry",
  "sourceName": "contracts/UNSRegistry.sol",
  "abi": [
    {
      "anonymous": false,
      "inputs": [
        {
          "indexed": false,
          "internalType": "address",
          "name": "previousAdmin",
          "type": "address"
        },
        {
          "indexed": false,
          "internalType": "address",
          "name": "newAdmin",
          "type": "address"
        }
      ],
      "name": "AdminChanged",
      "type": "event"
    },
    {
      "anonymous": false,
      "inputs": [
        {
          "indexed": true,
          "internalType": "address",
          "name": "owner",
          "type": "address"
        },
        {
          "indexed": true,
          "internalType": "address",
          "name": "approved",
          "type": "address"
        },
        {
          "indexed": true,
          "internalType": "uint256",
          "name": "tokenId",
          "type": "uint256"
        }
      ],
      "name": "Approval",
      "type": "event"
    },
    {
      "anonymous": false,
      "inputs": [
        {
          "indexed": true,
          "internalType": "address",
          "name": "owner",
          "type": "address"
        },
        {
          "indexed": true,
          "internalType": "address",
          "name": "operator",
          "type": "address"
        },
        {
          "indexed": false,
          "internalType": "bool",
          "name": "approved",
          "type": "bool"
        }
      ],
      "name": "ApprovalForAll",
      "type": "event"
    },
    {
      "anonymous": false,
      "inputs": [
        {
          "indexed": false,
          "internalType": "uint8",
          "name": "version",
          "type": "uint8"
        }
      ],
      "name": "Initialized",
      "type": "event"
    },
    {
      "anonymous": false,
      "inputs": [
        {
          "indexed": true,
          "internalType": "uint256",
          "name": "tokenId",
          "type": "uint256"
        },
        {
          "indexed": true,
          "internalType": "string",
          "name": "keyIndex",
          "type": "string"
        },
        {
          "indexed": false,
          "internalType": "string",
          "name": "key",
          "type": "string"
        }
      ],
      "name": "NewKey",
      "type": "event"
    },
    {
      "anonymous": false,
      "inputs": [
        {
          "indexed": true,
          "internalType": "uint256",
          "name": "tokenId",
          "type": "uint256"
        },
        {
          "indexed": false,
          "internalType": "string",
          "name": "uri",
          "type": "string"
        }
      ],
      "name": "NewURI",
      "type": "event"
    },
    {
      "anonymous": false,
      "inputs": [
        {
          "indexed": false,
          "internalType": "string",
          "name": "prefix",
          "type": "string"
        }
      ],
      "name": "NewURIPrefix",
      "type": "event"
    },
    {
      "anonymous": false,
      "inputs": [
        {
          "indexed": true,
          "internalType": "address",
          "name": "addr",
          "type": "address"
        }
      ],
      "name": "RemoveReverse",
      "type": "event"
    },
    {
      "anonymous": false,
      "inputs": [
        {
          "indexed": true,
          "internalType": "uint256",
          "name": "tokenId",
          "type": "uint256"
        }
      ],
      "name": "ResetRecords",
      "type": "event"
    },
    {
      "anonymous": false,
      "inputs": [
        {
          "indexed": true,
          "internalType": "uint256",
          "name": "tokenId",
          "type": "uint256"
        },
        {
          "indexed": true,
          "internalType": "string",
          "name": "keyIndex",
          "type": "string"
        },
        {
          "indexed": true,
          "internalType": "string",
          "name": "valueIndex",
          "type": "string"
        },
        {
          "indexed": false,
          "internalType": "string",
          "name": "key",
          "type": "string"
        },
        {
          "indexed": false,
          "internalType": "string",
          "name": "value",
          "type": "string"
        }
      ],
      "name": "Set",
      "type": "event"
    },
    {
      "anonymous": false,
      "inputs": [
        {
          "indexed": true,
          "internalType": "address",
          "name": "addr",
          "type": "address"
        },
        {
          "indexed": true,
          "internalType": "uint256",
          "name": "tokenId",
          "type": "uint256"
        }
      ],
      "name": "SetReverse",
      "type": "event"
    },
    {
      "anonymous": false,
      "inputs": [
        {
          "indexed": true,
          "internalType": "address",
          "name": "from",
          "type": "address"
        },
        {
          "indexed": true,
          "internalType": "address",
          "name": "to",
          "type": "address"
        },
        {
          "indexed": true,
          "internalType": "uint256",
          "name": "tokenId",
          "type": "uint256"
        }
      ],
      "name": "Transfer",
      "type": "event"
    },
    {
      "anonymous": false,
      "inputs": [
        {
          "indexed": true,
          "internalType": "address",
          "name": "implementation",
          "type": "address"
        }
      ],
      "name": "Upgraded",
      "type": "event"
    },
    {
      "anonymous": false,
      "inputs": [
        {
          "indexed": true,
          "internalType": "address",
          "name": "user",
          "type": "address"
        },
        {
          "indexed": false,
          "internalType": "uint256[]",
          "name": "tokenIds",
          "type": "uint256[]"
        }
      ],
      "name": "WithdrawnBatch",
      "type": "event"
    },
    {
      "inputs": [],
      "name": "BATCH_LIMIT",
      "outputs": [
        {
          "internalType": "uint256",
          "name": "",
          "type": "uint256"
        }
      ],
      "stateMutability": "view",
      "type": "function"
    },
    {
      "inputs": [],
      "name": "NAME",
      "outputs": [
        {
          "internalType": "string",
          "name": "",
          "type": "string"
        }
      ],
      "stateMutability": "view",
      "type": "function"
    },
    {
      "inputs": [],
      "name": "VERSION",
      "outputs": [
        {
          "internalType": "string",
          "name": "",
          "type": "string"
        }
      ],
      "stateMutability": "view",
      "type": "function"
    },
    {
      "inputs": [
        {
          "internalType": "string",
          "name": "key",
          "type": "string"
        }
      ],
      "name": "addKey",
      "outputs": [],
      "stateMutability": "nonpayable",
      "type": "function"
    },
    {
      "inputs": [
        {
          "internalType": "address",
          "name": "addr",
          "type": "address"
        }
      ],
      "name": "addProxyReader",
      "outputs": [],
      "stateMutability": "nonpayable",
      "type": "function"
    },
    {
      "inputs": [
        {
          "internalType": "address",
          "name": "to",
          "type": "address"
        },
        {
          "internalType": "uint256",
          "name": "tokenId",
          "type": "uint256"
        }
      ],
      "name": "approve",
      "outputs": [],
      "stateMutability": "nonpayable",
      "type": "function"
    },
    {
      "inputs": [
        {
          "internalType": "address",
          "name": "owner",
          "type": "address"
        }
      ],
      "name": "balanceOf",
      "outputs": [
        {
          "internalType": "uint256",
          "name": "",
          "type": "uint256"
        }
      ],
      "stateMutability": "view",
      "type": "function"
    },
    {
      "inputs": [
        {
          "internalType": "uint256",
          "name": "tokenId",
          "type": "uint256"
        }
      ],
      "name": "burn",
      "outputs": [],
      "stateMutability": "nonpayable",
      "type": "function"
    },
    {
      "inputs": [
        {
          "internalType": "uint256",
          "name": "tokenId",
          "type": "uint256"
        }
      ],
      "name": "burnTLDL1",
      "outputs": [],
      "stateMutability": "nonpayable",
      "type": "function"
    },
    {
      "inputs": [
        {
          "internalType": "uint256",
          "name": "tokenId",
          "type": "uint256"
        },
        {
          "internalType": "string",
          "name": "label",
          "type": "string"
        }
      ],
      "name": "childIdOf",
      "outputs": [
        {
          "internalType": "uint256",
          "name": "",
          "type": "uint256"
        }
      ],
      "stateMutability": "pure",
      "type": "function"
    },
    {
      "inputs": [
        {
          "internalType": "address",
          "name": "user",
          "type": "address"
        },
        {
          "internalType": "bytes",
          "name": "depositData",
          "type": "bytes"
        }
      ],
      "name": "deposit",
      "outputs": [],
      "stateMutability": "nonpayable",
      "type": "function"
    },
    {
      "inputs": [
        {
          "internalType": "uint256",
          "name": "tokenId",
          "type": "uint256"
        }
      ],
      "name": "depositToPolygon",
      "outputs": [],
      "stateMutability": "nonpayable",
      "type": "function"
    },
    {
      "inputs": [
        {
          "components": [
            {
              "internalType": "address",
              "name": "from",
              "type": "address"
            },
            {
              "internalType": "uint256",
              "name": "nonce",
              "type": "uint256"
            },
            {
              "internalType": "uint256",
              "name": "tokenId",
              "type": "uint256"
            },
            {
              "internalType": "bytes",
              "name": "data",
              "type": "bytes"
            }
          ],
          "internalType": "struct IForwarder.ForwardRequest",
          "name": "req",
          "type": "tuple"
        },
        {
          "internalType": "bytes",
          "name": "signature",
          "type": "bytes"
        }
      ],
      "name": "execute",
      "outputs": [
        {
          "internalType": "bytes",
          "name": "",
          "type": "bytes"
        }
      ],
      "stateMutability": "nonpayable",
      "type": "function"
    },
    {
      "inputs": [
        {
          "internalType": "uint256",
          "name": "tokenId",
          "type": "uint256"
        }
      ],
      "name": "exists",
      "outputs": [
        {
          "internalType": "bool",
          "name": "",
          "type": "bool"
        }
      ],
      "stateMutability": "view",
      "type": "function"
    },
    {
      "inputs": [
        {
          "internalType": "string",
          "name": "key",
          "type": "string"
        },
        {
          "internalType": "uint256",
          "name": "tokenId",
          "type": "uint256"
        }
      ],
      "name": "get",
      "outputs": [
        {
          "internalType": "string",
          "name": "value",
          "type": "string"
        }
      ],
      "stateMutability": "view",
      "type": "function"
    },
    {
      "inputs": [
        {
          "internalType": "uint256",
          "name": "tokenId",
          "type": "uint256"
        }
      ],
      "name": "getApproved",
      "outputs": [
        {
          "internalType": "address",
          "name": "",
          "type": "address"
        }
      ],
      "stateMutability": "view",
      "type": "function"
    },
    {
      "inputs": [
        {
          "internalType": "uint256",
          "name": "keyHash",
          "type": "uint256"
        },
        {
          "internalType": "uint256",
          "name": "tokenId",
          "type": "uint256"
        }
      ],
      "name": "getByHash",
      "outputs": [
        {
          "internalType": "string",
          "name": "key",
          "type": "string"
        },
        {
          "internalType": "string",
          "name": "value",
          "type": "string"
        }
      ],
      "stateMutability": "view",
      "type": "function"
    },
    {
      "inputs": [
        {
          "internalType": "uint256",
          "name": "keyHash",
          "type": "uint256"
        }
      ],
      "name": "getKey",
      "outputs": [
        {
          "internalType": "string",
          "name": "",
          "type": "string"
        }
      ],
      "stateMutability": "view",
      "type": "function"
    },
    {
      "inputs": [
        {
          "internalType": "uint256[]",
          "name": "hashes",
          "type": "uint256[]"
        }
      ],
      "name": "getKeys",
      "outputs": [
        {
          "internalType": "string[]",
          "name": "values",
          "type": "string[]"
        }
      ],
      "stateMutability": "view",
      "type": "function"
    },
    {
      "inputs": [
        {
          "internalType": "string[]",
          "name": "keys",
          "type": "string[]"
        },
        {
          "internalType": "uint256",
          "name": "tokenId",
          "type": "uint256"
        }
      ],
      "name": "getMany",
      "outputs": [
        {
          "internalType": "string[]",
          "name": "values",
          "type": "string[]"
        }
      ],
      "stateMutability": "view",
      "type": "function"
    },
    {
      "inputs": [
        {
          "internalType": "uint256[]",
          "name": "keyHashes",
          "type": "uint256[]"
        },
        {
          "internalType": "uint256",
          "name": "tokenId",
          "type": "uint256"
        }
      ],
      "name": "getManyByHash",
      "outputs": [
        {
          "internalType": "string[]",
          "name": "keys",
          "type": "string[]"
        },
        {
          "internalType": "string[]",
          "name": "values",
          "type": "string[]"
        }
      ],
      "stateMutability": "view",
      "type": "function"
    },
    {
      "inputs": [
        {
          "internalType": "address",
          "name": "mintingManager",
          "type": "address"
        }
      ],
      "name": "initialize",
      "outputs": [],
      "stateMutability": "nonpayable",
      "type": "function"
    },
    {
      "inputs": [
        {
          "internalType": "address",
          "name": "owner",
          "type": "address"
        },
        {
          "internalType": "address",
          "name": "operator",
          "type": "address"
        }
      ],
      "name": "isApprovedForAll",
      "outputs": [
        {
          "internalType": "bool",
          "name": "",
          "type": "bool"
        }
      ],
      "stateMutability": "view",
      "type": "function"
    },
    {
      "inputs": [
        {
          "internalType": "address",
          "name": "spender",
          "type": "address"
        },
        {
          "internalType": "uint256",
          "name": "tokenId",
          "type": "uint256"
        }
      ],
      "name": "isApprovedOrOwner",
      "outputs": [
        {
          "internalType": "bool",
          "name": "",
          "type": "bool"
        }
      ],
      "stateMutability": "view",
      "type": "function"
    },
    {
      "inputs": [
        {
          "internalType": "address",
          "name": "forwarder",
          "type": "address"
        }
      ],
      "name": "isTrustedForwarder",
      "outputs": [
        {
          "internalType": "bool",
          "name": "",
          "type": "bool"
        }
      ],
      "stateMutability": "view",
      "type": "function"
    },
    {
      "inputs": [
        {
          "internalType": "address",
          "name": "user",
          "type": "address"
        },
        {
          "internalType": "uint256",
          "name": "tokenId",
          "type": "uint256"
        }
      ],
      "name": "mint",
      "outputs": [],
      "stateMutability": "nonpayable",
      "type": "function"
    },
    {
      "inputs": [
        {
          "internalType": "address",
          "name": "user",
          "type": "address"
        },
        {
          "internalType": "uint256",
          "name": "tokenId",
          "type": "uint256"
        },
        {
          "internalType": "bytes",
          "name": "",
          "type": "bytes"
        }
      ],
      "name": "mint",
      "outputs": [],
      "stateMutability": "nonpayable",
      "type": "function"
    },
    {
      "inputs": [
        {
          "internalType": "address",
          "name": "to",
          "type": "address"
        },
        {
          "internalType": "uint256",
          "name": "tokenId",
          "type": "uint256"
        },
        {
          "internalType": "string",
          "name": "uri",
          "type": "string"
        }
      ],
      "name": "mint",
      "outputs": [],
      "stateMutability": "nonpayable",
      "type": "function"
    },
    {
      "inputs": [
        {
          "internalType": "address",
          "name": "to",
          "type": "address"
        },
        {
          "internalType": "uint256",
          "name": "tokenId",
          "type": "uint256"
        },
        {
          "internalType": "string",
          "name": "uri",
          "type": "string"
        },
        {
          "internalType": "string[]",
          "name": "keys",
          "type": "string[]"
        },
        {
          "internalType": "string[]",
          "name": "values",
          "type": "string[]"
        }
      ],
      "name": "mintWithRecords",
      "outputs": [],
      "stateMutability": "nonpayable",
      "type": "function"
    },
    {
      "inputs": [
        {
          "internalType": "uint256",
          "name": "tokenId",
          "type": "uint256"
        }
      ],
      "name": "moveTLDOwnershipL2",
      "outputs": [],
      "stateMutability": "nonpayable",
      "type": "function"
    },
    {
      "inputs": [],
      "name": "name",
      "outputs": [
        {
          "internalType": "string",
          "name": "",
          "type": "string"
        }
      ],
      "stateMutability": "view",
      "type": "function"
    },
    {
      "inputs": [
        {
          "internalType": "uint256",
          "name": "tokenId",
          "type": "uint256"
        }
      ],
      "name": "nonceOf",
      "outputs": [
        {
          "internalType": "uint256",
          "name": "",
          "type": "uint256"
        }
      ],
      "stateMutability": "view",
      "type": "function"
    },
    {
      "inputs": [
        {
          "internalType": "address",
          "name": "",
          "type": "address"
        },
        {
          "internalType": "address",
          "name": "from",
          "type": "address"
        },
        {
          "internalType": "uint256",
          "name": "tokenId",
          "type": "uint256"
        },
        {
          "internalType": "bytes",
          "name": "data",
          "type": "bytes"
        }
      ],
      "name": "onERC721Received",
      "outputs": [
        {
          "internalType": "bytes4",
          "name": "",
          "type": "bytes4"
        }
      ],
      "stateMutability": "nonpayable",
      "type": "function"
    },
    {
      "inputs": [
        {
          "internalType": "uint256",
          "name": "tokenId",
          "type": "uint256"
        }
      ],
      "name": "ownerOf",
      "outputs": [
        {
          "internalType": "address",
          "name": "",
          "type": "address"
        }
      ],
      "stateMutability": "view",
      "type": "function"
    },
    {
      "inputs": [
        {
          "internalType": "string[]",
          "name": "keys",
          "type": "string[]"
        },
        {
          "internalType": "string[]",
          "name": "values",
          "type": "string[]"
        },
        {
          "internalType": "uint256",
          "name": "tokenId",
          "type": "uint256"
        }
      ],
      "name": "reconfigure",
      "outputs": [],
      "stateMutability": "nonpayable",
      "type": "function"
    },
    {
      "inputs": [],
      "name": "removeReverse",
      "outputs": [],
      "stateMutability": "nonpayable",
      "type": "function"
    },
    {
      "inputs": [
        {
          "internalType": "uint256",
          "name": "tokenId",
          "type": "uint256"
        }
      ],
      "name": "reset",
      "outputs": [],
      "stateMutability": "nonpayable",
      "type": "function"
    },
    {
      "inputs": [
        {
          "internalType": "uint256",
          "name": "tokenId",
          "type": "uint256"
        }
      ],
      "name": "resolverOf",
      "outputs": [
        {
          "internalType": "address",
          "name": "",
          "type": "address"
        }
      ],
      "stateMutability": "view",
      "type": "function"
    },
    {
      "inputs": [
        {
          "internalType": "address",
          "name": "addr",
          "type": "address"
        }
      ],
      "name": "reverseOf",
      "outputs": [
        {
          "internalType": "uint256",
          "name": "reverse",
          "type": "uint256"
        }
      ],
      "stateMutability": "view",
      "type": "function"
    },
    {
      "inputs": [],
      "name": "root",
      "outputs": [
        {
          "internalType": "uint256",
          "name": "",
          "type": "uint256"
        }
      ],
      "stateMutability": "pure",
      "type": "function"
    },
    {
      "inputs": [
        {
          "internalType": "address",
          "name": "to",
          "type": "address"
        },
        {
          "internalType": "uint256",
          "name": "tokenId",
          "type": "uint256"
        },
        {
          "internalType": "string",
          "name": "uri",
          "type": "string"
        },
        {
          "internalType": "bytes",
          "name": "data",
          "type": "bytes"
        }
      ],
      "name": "safeMint",
      "outputs": [],
      "stateMutability": "nonpayable",
      "type": "function"
    },
    {
      "inputs": [
        {
          "internalType": "address",
          "name": "to",
          "type": "address"
        },
        {
          "internalType": "uint256",
          "name": "tokenId",
          "type": "uint256"
        },
        {
          "internalType": "string",
          "name": "uri",
          "type": "string"
        }
      ],
      "name": "safeMint",
      "outputs": [],
      "stateMutability": "nonpayable",
      "type": "function"
    },
    {
      "inputs": [
        {
          "internalType": "address",
          "name": "to",
          "type": "address"
        },
        {
          "internalType": "uint256",
          "name": "tokenId",
          "type": "uint256"
        },
        {
          "internalType": "string",
          "name": "uri",
          "type": "string"
        },
        {
          "internalType": "string[]",
          "name": "keys",
          "type": "string[]"
        },
        {
          "internalType": "string[]",
          "name": "values",
          "type": "string[]"
        }
      ],
      "name": "safeMintWithRecords",
      "outputs": [],
      "stateMutability": "nonpayable",
      "type": "function"
    },
    {
      "inputs": [
        {
          "internalType": "address",
          "name": "to",
          "type": "address"
        },
        {
          "internalType": "uint256",
          "name": "tokenId",
          "type": "uint256"
        },
        {
          "internalType": "string",
          "name": "uri",
          "type": "string"
        },
        {
          "internalType": "string[]",
          "name": "keys",
          "type": "string[]"
        },
        {
          "internalType": "string[]",
          "name": "values",
          "type": "string[]"
        },
        {
          "internalType": "bytes",
          "name": "data",
          "type": "bytes"
        }
      ],
      "name": "safeMintWithRecords",
      "outputs": [],
      "stateMutability": "nonpayable",
      "type": "function"
    },
    {
      "inputs": [
        {
          "internalType": "address",
          "name": "from",
          "type": "address"
        },
        {
          "internalType": "address",
          "name": "to",
          "type": "address"
        },
        {
          "internalType": "uint256",
          "name": "tokenId",
          "type": "uint256"
        }
      ],
      "name": "safeTransferFrom",
      "outputs": [],
      "stateMutability": "nonpayable",
      "type": "function"
    },
    {
      "inputs": [
        {
          "internalType": "address",
          "name": "from",
          "type": "address"
        },
        {
          "internalType": "address",
          "name": "to",
          "type": "address"
        },
        {
          "internalType": "uint256",
          "name": "tokenId",
          "type": "uint256"
        },
        {
          "internalType": "bytes",
          "name": "data",
          "type": "bytes"
        }
      ],
      "name": "safeTransferFrom",
      "outputs": [],
      "stateMutability": "nonpayable",
      "type": "function"
    },
    {
      "inputs": [
        {
          "internalType": "string",
          "name": "key",
          "type": "string"
        },
        {
          "internalType": "string",
          "name": "value",
          "type": "string"
        },
        {
          "internalType": "uint256",
          "name": "tokenId",
          "type": "uint256"
        }
      ],
      "name": "set",
      "outputs": [],
      "stateMutability": "nonpayable",
      "type": "function"
    },
    {
      "inputs": [
        {
          "internalType": "address",
          "name": "operator",
          "type": "address"
        },
        {
          "internalType": "bool",
          "name": "approved",
          "type": "bool"
        }
      ],
      "name": "setApprovalForAll",
      "outputs": [],
      "stateMutability": "nonpayable",
      "type": "function"
    },
    {
      "inputs": [
        {
          "internalType": "uint256",
          "name": "keyHash",
          "type": "uint256"
        },
        {
          "internalType": "string",
          "name": "value",
          "type": "string"
        },
        {
          "internalType": "uint256",
          "name": "tokenId",
          "type": "uint256"
        }
      ],
      "name": "setByHash",
      "outputs": [],
      "stateMutability": "nonpayable",
      "type": "function"
    },
    {
      "inputs": [
        {
          "internalType": "address",
          "name": "registry",
          "type": "address"
        }
      ],
      "name": "setCNSRegistry",
      "outputs": [],
      "stateMutability": "nonpayable",
      "type": "function"
    },
    {
      "inputs": [
        {
          "internalType": "address",
          "name": "clientChainManager",
          "type": "address"
        }
      ],
      "name": "setChildChainManager",
      "outputs": [],
      "stateMutability": "nonpayable",
      "type": "function"
    },
    {
      "inputs": [
        {
          "internalType": "string[]",
          "name": "keys",
          "type": "string[]"
        },
        {
          "internalType": "string[]",
          "name": "values",
          "type": "string[]"
        },
        {
          "internalType": "uint256",
          "name": "tokenId",
          "type": "uint256"
        }
      ],
      "name": "setMany",
      "outputs": [],
      "stateMutability": "nonpayable",
      "type": "function"
    },
    {
      "inputs": [
        {
          "internalType": "uint256[]",
          "name": "keyHashes",
          "type": "uint256[]"
        },
        {
          "internalType": "string[]",
          "name": "values",
          "type": "string[]"
        },
        {
          "internalType": "uint256",
          "name": "tokenId",
          "type": "uint256"
        }
      ],
      "name": "setManyByHash",
      "outputs": [],
      "stateMutability": "nonpayable",
      "type": "function"
    },
    {
      "inputs": [
        {
          "internalType": "address",
          "name": "to",
          "type": "address"
        },
        {
          "internalType": "uint256",
          "name": "tokenId",
          "type": "uint256"
        }
      ],
      "name": "setOwner",
      "outputs": [],
      "stateMutability": "nonpayable",
      "type": "function"
    },
    {
      "inputs": [
        {
          "internalType": "uint256",
          "name": "tokenId",
          "type": "uint256"
        }
      ],
      "name": "setReverse",
      "outputs": [],
      "stateMutability": "nonpayable",
      "type": "function"
    },
    {
      "inputs": [
        {
          "internalType": "address",
          "name": "rootChainManager",
          "type": "address"
        }
      ],
      "name": "setRootChainManager",
      "outputs": [],
      "stateMutability": "nonpayable",
      "type": "function"
    },
    {
      "inputs": [
        {
          "internalType": "string",
          "name": "prefix",
          "type": "string"
        }
      ],
      "name": "setTokenURIPrefix",
      "outputs": [],
      "stateMutability": "nonpayable",
      "type": "function"
    },
    {
      "inputs": [
        {
          "internalType": "bytes4",
          "name": "interfaceId",
          "type": "bytes4"
        }
      ],
      "name": "supportsInterface",
      "outputs": [
        {
          "internalType": "bool",
          "name": "",
          "type": "bool"
        }
      ],
      "stateMutability": "view",
      "type": "function"
    },
    {
      "inputs": [],
      "name": "symbol",
      "outputs": [
        {
          "internalType": "string",
          "name": "",
          "type": "string"
        }
      ],
      "stateMutability": "view",
      "type": "function"
    },
    {
      "inputs": [
        {
          "internalType": "uint256",
          "name": "tokenId",
          "type": "uint256"
        }
      ],
      "name": "tokenURI",
      "outputs": [
        {
          "internalType": "string",
          "name": "",
          "type": "string"
        }
      ],
      "stateMutability": "view",
      "type": "function"
    },
    {
      "inputs": [
        {
          "internalType": "address",
          "name": "from",
          "type": "address"
        },
        {
          "internalType": "address",
          "name": "to",
          "type": "address"
        },
        {
          "internalType": "uint256",
          "name": "tokenId",
          "type": "uint256"
        }
      ],
      "name": "transferFrom",
      "outputs": [],
      "stateMutability": "nonpayable",
      "type": "function"
    },
    {
      "inputs": [
        {
          "internalType": "uint256[]",
          "name": "tokenIds",
          "type": "uint256[]"
        }
      ],
      "name": "upgradeAll",
      "outputs": [],
      "stateMutability": "nonpayable",
      "type": "function"
    },
    {
      "inputs": [
        {
          "components": [
            {
              "internalType": "address",
              "name": "from",
              "type": "address"
            },
            {
              "internalType": "uint256",
              "name": "nonce",
              "type": "uint256"
            },
            {
              "internalType": "uint256",
              "name": "tokenId",
              "type": "uint256"
            },
            {
              "internalType": "bytes",
              "name": "data",
              "type": "bytes"
            }
          ],
          "internalType": "struct IForwarder.ForwardRequest",
          "name": "req",
          "type": "tuple"
        },
        {
          "internalType": "bytes",
          "name": "signature",
          "type": "bytes"
        }
      ],
      "name": "verify",
      "outputs": [
        {
          "internalType": "bool",
          "name": "",
          "type": "bool"
        }
      ],
      "stateMutability": "view",
      "type": "function"
    },
    {
      "inputs": [
        {
          "internalType": "uint256",
          "name": "tokenId",
          "type": "uint256"
        }
      ],
      "name": "withdraw",
      "outputs": [],
      "stateMutability": "nonpayable",
      "type": "function"
    },
    {
      "inputs": [
        {
          "internalType": "uint256[]",
          "name": "tokenIds",
          "type": "uint256[]"
        }
      ],
      "name": "withdrawBatch",
      "outputs": [],
      "stateMutability": "nonpayable",
      "type": "function"
    },
    {
      "inputs": [
        {
          "internalType": "bytes",
          "name": "inputData",
          "type": "bytes"
        },
        {
          "internalType": "uint256",
          "name": "tokenId",
          "type": "uint256"
        },
        {
          "internalType": "string[]",
          "name": "keys",
          "type": "string[]"
        },
        {
          "internalType": "string[]",
          "name": "values",
          "type": "string[]"
        }
      ],
      "name": "withdrawFromPolygon",
      "outputs": [],
      "stateMutability": "nonpayable",
      "type": "function"
    },
    {
      "inputs": [
        {
          "internalType": "uint256",
          "name": "tokenId",
          "type": "uint256"
        }
      ],
      "name": "withdrawWithMetadata",
      "outputs": [],
      "stateMutability": "nonpayable",
      "type": "function"
    }
  ],
  "bytecode": "0x608060405234801561001057600080fd5b50615577806100206000396000f3fe608060405234801561001057600080fd5b50600436106103f15760003560e01c80637f139a0011610215578063b88d4fde11610125578063d3fc9864116100b8578063ec129eea11610087578063ec129eea14610935578063efda4d3e14610948578063f25eb5c11461095b578063f5c1f76e14610963578063ffa1ad741461097657600080fd5b8063d3fc9864146108cc578063df454285146108df578063e985e9c5146108f2578063ebf0c7171461092e57600080fd5b8063cd279c7c116100f4578063cd279c7c14610880578063ce92b33e14610893578063cf2c52cb146108a6578063d0bc28d7146108b957600080fd5b8063b88d4fde14610834578063bb5b27e114610847578063c4d66de81461085a578063c87b56dd1461086d57600080fd5b8063a3f4df7e116101a8578063ae31844a11610177578063ae31844a146107c7578063b0f59177146107da578063b3f9e4cb146107ed578063b55bc61714610800578063b85afd281461081357600080fd5b8063a3f4df7e14610775578063a4247400146107a1578063a5e584dc1461050b578063ab3b87fe146107b457600080fd5b806395d89b41116101e457806395d89b411461073457806399e0dd7c1461073c5780639c8d41561461074f578063a22cb4651461076257600080fd5b80637f139a00146106f357806394d008ef146107065780639508b1c4146107195780639559c0bd1461072c57600080fd5b8063430c2081116103105780636352211e116102a35780636ccbae5f116102725780636ccbae5f1461068657806370a08231146106a7578063728a44d8146106ba578063764a81bb146106cd5780637e37479e146106e057600080fd5b80636352211e1461061e578063638e5c7814610631578063672b9f811461064457806368b62d321461066557600080fd5b80634f558e79116102df5780634f558e79146105c957806350382c1a146105dc57806350960239146105ef578063572b6c051461060257600080fd5b8063430c20811461057d5780634348b5621461059057806347c81699146105a35780634a72584d146105b657600080fd5b806323b872dd11610388578063384e9a5511610357578063384e9a551461053157806340c10f191461054457806342842e0e1461055757806342966c681461056a57600080fd5b806323b872dd146104e557806327f18975146104f85780632e1a7d4d1461050b578063310bd74b1461051e57600080fd5b8063150b7a02116103c4578063150b7a02146104735780631bd8cc1a1461049f5780631be5e7ed146104bf5780631bf7e13e146104d257600080fd5b806301ffc9a7146103f657806306fdde031461041e578063081812fc14610433578063095ea7b31461045e575b600080fd5b610409610404366004614bf5565b61099a565b60405190151581526020015b60405180910390f35b6104266109ab565b6040516104159190615130565b610446610441366004614e36565b610a3d565b6040516001600160a01b039091168152602001610415565b61047161046c36600461478c565b610a64565b005b610486610481366004614636565b610ab9565b6040516001600160e01b03199091168152602001610415565b6104b26104ad366004614a94565b610c0f565b6040516104159190615091565b6104266104cd366004614d5d565b610d2f565b6104266104e0366004614dd7565b610d7a565b6104716104f33660046145f6565b610e85565b610471610506366004614a24565b610f0b565b610471610519366004614e36565b610f86565b61047161052c366004614e36565b611002565b61047161053f366004614e36565b611070565b61047161055236600461478c565b61112f565b6104716105653660046145f6565b61117c565b610471610578366004614e36565b611197565b61040961058b36600461478c565b61120e565b61047161059e366004614810565b61121a565b6104716105b1366004614cff565b61127f565b6104716105c4366004614e7e565b6112f1565b6104096105d7366004614e36565b61136a565b6104716105ea366004614d92565b611389565b6104716105fd366004614586565b6113bc565b610409610610366004614586565b6001600160a01b0316301490565b61044661062c366004614e36565b61141c565b61047161063f366004614e36565b61147c565b610657610652366004614ece565b6114c7565b604051610415929190615143565b610678610673366004614e4e565b6114df565b604051908152602001610415565b610678610694366004614e36565b6000908152610100602052604090205490565b6106786106b5366004614586565b611521565b6104716106c8366004614586565b6115a7565b6104716106db366004614586565b61164e565b6106786106ee366004614586565b6116fd565b610471610701366004614586565b61172e565b6104716107143660046147b7565b6117cd565b610471610727366004614c2d565b61181c565b610678601481565b6104266118a3565b61047161074a366004614ccc565b6118b2565b61047161075d366004614add565b611938565b61047161077036600461470f565b611abb565b6104266040518060400160405280600d81526020016c554e533a20526567697374727960981b81525081565b6104096107af366004614dd7565b611acd565b6104716107c236600461478c565b611b18565b6104716107d5366004614add565b611b90565b6104716107e8366004614810565b611c3c565b6104466107fb366004614e36565b611cc5565b61047161080e36600461499c565b611cef565b610826610821366004614a94565b611d9f565b6040516104159291906150a4565b6104716108423660046146a6565b611f07565b610426610855366004614e36565b611f81565b610471610868366004614586565b612023565b61042661087b366004614e36565b61219d565b61047161088e3660046147b7565b612203565b6104716108a1366004614a24565b61228d565b6104716108b436600461473a565b6122ff565b6104716108c7366004614e36565b6123dc565b6104716108da3660046147b7565b612494565b6104716108ed366004614e36565b612510565b6104096109003660046145be565b6001600160a01b039182166000908152606a6020908152604080832093909416825291909152205460ff1690565b6000610678565b610471610943366004614a24565b6125ad565b6104716109563660046148c1565b61261f565b6104716126ad565b6104b2610971366004614add565b612733565b6104266040518060400160405280600581526020016418171a971960d91b81525081565b60006109a582612810565b92915050565b6060606580546109ba90615479565b80601f01602080910402602001604051908101604052809291908181526020018280546109e690615479565b8015610a335780601f10610a0857610100808354040283529160200191610a33565b820191906000526020600020905b815481529060010190602001808311610a1657829003601f168201915b5050505050905090565b6000610a4882612860565b506000908152606960205260409020546001600160a01b031690565b8030331415610aa157610a756128bf565b8114610a9c5760405162461bcd60e51b8152600401610a939061524a565b60405180910390fd5b610aaa565b610aaa816128d4565b610ab48383612902565b505050565b60007f8ffb960699dc2ba88f34d0e41c029c3c36c95149679fe1d0153a9582bec92378546001600160a01b0316610aee612a25565b6001600160a01b03161415610bb057610b05612a25565b6001600160a01b03166342966c68856040518263ffffffff1660e01b8152600401610b3291815260200190565b600060405180830381600087803b158015610b4c57600080fd5b505af1158015610b60573d6000803e3d6000fd5b505050821580159150610b7a5750610b7a82840184614bc3565b15610b9857610b893085612a34565b610b938585612b82565b610ba2565b610ba28585612a34565b50630a85bd0160e11b610c06565b60405162461bcd60e51b815260206004820152602560248201527f52656769737472793a204552433732315f524543454956494e475f50524f4849604482015264109255115160da1b6064820152608401610a93565b95945050505050565b6060826001600160401b03811115610c3757634e487b7160e01b600052604160045260246000fd5b604051908082528060200260200182016040528015610c6a57816020015b6060815260200190600190039081610c555790505b50905060005b83811015610d2757610ce9858583818110610c9b57634e487b7160e01b600052603260045260246000fd5b9050602002810190610cad919061530e565b8080601f016020809104026020016040519081016040528093929190818152602001838380828437600092019190915250879250612c23915050565b828281518110610d0957634e487b7160e01b600052603260045260246000fd5b60200260200101819052508080610d1f906154ae565b915050610c70565b509392505050565b6060610d7284848080601f016020809104026020016040519081016040528093929190818152602001838380828437600092019190915250869250612c23915050565b949350505050565b606060005a9050610d8c858585611acd565b610de85760405162461bcd60e51b815260206004820152602760248201527f554e535265676973747279466f727761726465723a205349474e41545552455f6044820152661253959053125160ca1b6064820152608401610a93565b610e7a610df86020870187614586565b30604088013584610e0c60608b018b61530e565b8080601f01602080910402602001604051908101604052809392919081815260200183838082843760009201919091525050604080516020601f8e018190048102820181019092528c815292508c91508b9081908401838280828437600092019190915250612c5892505050565b9150505b9392505050565b80610e97610e91612a25565b82612d47565b610eb35760405162461bcd60e51b8152600401610a9390615168565b8130331415610ee757610ec46128bf565b8114610ee25760405162461bcd60e51b8152600401610a939061524a565b610ef0565b610ef0816128d4565b610ef983612dc5565b610f04858585612e32565b5050505050565b80610f17610e91612a25565b610f335760405162461bcd60e51b8152600401610a9390615168565b8130331415610f6757610f446128bf565b8114610f625760405162461bcd60e51b8152600401610a939061524a565b610f70565b610f70816128d4565b610f7d8787878787612fd9565b50505050505050565b610f8f8161141c565b6001600160a01b0316610fa0612a25565b6001600160a01b031614610ff65760405162461bcd60e51b815260206004820152601d60248201527f52656769737472793a20494e56414c49445f544f4b454e5f4f574e45520000006044820152606401610a93565b610fff81613058565b50565b8061100e610e91612a25565b61102a5760405162461bcd60e51b8152600401610a9390615168565b813033141561105e5761103b6128bf565b81146110595760405162461bcd60e51b8152600401610a939061524a565b611067565b611067816128d4565b610ab483612dc5565b80611079612a25565b6001600160a01b031661108b8261141c565b6001600160a01b0316146110e15760405162461bcd60e51b815260206004820152601d60248201527f52656769737472793a2053454e4445525f49535f4e4f545f4f574e45520000006044820152606401610a93565b8130331415611115576110f26128bf565b81146111105760405162461bcd60e51b8152600401610a939061524a565b61111e565b61111e816128d4565b610ab4611129612a25565b846130ff565b611137613147565b6001600160a01b0316611148612a25565b6001600160a01b03161461116e5760405162461bcd60e51b8152600401610a93906152cc565b6111788282612a34565b5050565b610ab483838360405180602001604052806000815250611f07565b806111a3610e91612a25565b6111bf5760405162461bcd60e51b8152600401610a9390615168565b81303314156111f3576111d06128bf565b81146111ee5760405162461bcd60e51b8152600401610a939061524a565b6111fc565b6111fc816128d4565b61120583612dc5565b610ab483613058565b6000610e7e8383612d47565b610134546001600160a01b031661122f612a25565b6001600160a01b0316146112555760405162461bcd60e51b8152600401610a9390615203565b61127588888888888888886040518060200160405280600081525061325a565b5050505050505050565b8061128b610e91612a25565b6112a75760405162461bcd60e51b8152600401610a9390615168565b81303314156112db576112b86128bf565b81146112d65760405162461bcd60e51b8152600401610a939061524a565b6112e4565b6112e4816128d4565b610f7d87878787876132b5565b806112fd610e91612a25565b6113195760405162461bcd60e51b8152600401610a9390615168565b813033141561134d5761132a6128bf565b81146113485760405162461bcd60e51b8152600401610a939061524a565b611356565b611356816128d4565b61136286868686613394565b505050505050565b6000818152606760205260408120546001600160a01b031615156109a5565b610fff8160405160200161139d9190614f98565b6040516020818303038152906040528051906020012060001c82613434565b610134546001600160a01b03166113d1612a25565b6001600160a01b0316146113f75760405162461bcd60e51b8152600401610a9390615203565b6001600160a01b0316600090815261013660205260409020805460ff19166001179055565b6000818152606760205260408120546001600160a01b0316806109a55760405162461bcd60e51b8152602060048201526018602482015277115490cdcc8c4e881a5b9d985b1a59081d1bdad95b88125160421b6044820152606401610a93565b80611488610e91612a25565b6114a45760405162461bcd60e51b8152600401610a9390615168565b6114b66114af612a25565b3084612e32565b6111786114c1612a25565b83612b82565b6060806114d48484613460565b909590945092505050565b6000610d728484848080601f01602080910402602001604051908101604052809392919081815260200183838082843760009201919091525061348192505050565b60006001600160a01b03821661158b5760405162461bcd60e51b815260206004820152602960248201527f4552433732313a2061646472657373207a65726f206973206e6f7420612076616044820152683634b21037bbb732b960b91b6064820152608401610a93565b506001600160a01b031660009081526068602052604090205490565b60008051602061554b833981519152546001600160a01b03161561161c5760405162461bcd60e51b815260206004820152602660248201527f52656769737472793a20524f4f545f434841494e5f4d414e454745525f4e4f546044820152655f454d50545960d01b6064820152608401610a93565b8060008051602061554b8339815191525b80546001600160a01b0319166001600160a01b039290921691909117905550565b7f8bea9a6f8afd34f4e29c585f854e0cc5161431bf5fc299d468454d33dce53b87546001600160a01b0316156116d65760405162461bcd60e51b815260206004820152602760248201527f52656769737472793a204348494c445f434841494e5f4d414e454745525f4e4f604482015266545f454d50545960c81b6064820152608401610a93565b807f8bea9a6f8afd34f4e29c585f854e0cc5161431bf5fc299d468454d33dce53b8761162d565b6001600160a01b038116600090815261013560205260408120546117208161352e565b611728578091505b50919050565b7f8ffb960699dc2ba88f34d0e41c029c3c36c95149679fe1d0153a9582bec92378546001600160a01b0316156117a65760405162461bcd60e51b815260206004820181905260248201527f52656769737472793a20434e535f52454749535452595f4e4f545f454d5054596044820152606401610a93565b807f8ffb960699dc2ba88f34d0e41c029c3c36c95149679fe1d0153a9582bec9237861162d565b6117d5613147565b6001600160a01b03166117e6612a25565b6001600160a01b03161461180c5760405162461bcd60e51b8152600401610a93906152cc565b6118168484612a34565b50505050565b6118268787613578565b61182e612a25565b6001600160a01b03166118408661141c565b6001600160a01b0316146118965760405162461bcd60e51b815260206004820152601d60248201527f52656769737472793a2053454e4445525f49535f4e4f545f4f574e45520000006044820152606401610a93565b610f7d84848484896135e7565b6060606680546109ba90615479565b610134546001600160a01b03166118c7612a25565b6001600160a01b0316146118ed5760405162461bcd60e51b8152600401610a9390615203565b6118fa6101338383614366565b507f4b120d6a959a84a520fa48f5f937cca0e79129423487af7901213b5d2e89313b828260405161192c92919061511c565b60405180910390a15050565b80601481111561198a5760405162461bcd60e51b815260206004820152601d60248201527f52656769737472793a20455843454544535f42415443485f4c494d49540000006044820152606401610a93565b60005b81811015611a6b5760008484838181106119b757634e487b7160e01b600052603260045260246000fd5b9050602002013590506119c98161141c565b6001600160a01b03166119da612a25565b6001600160a01b03161481604051602001611a2191907f52656769737472793a20494e56414c49445f544f4b454e5f4f574e45522000008152601e810191909152603e0190565b60405160208183030381529060405290611a4e5760405162461bcd60e51b8152600401610a939190615130565b50611a5881613058565b5080611a63816154ae565b91505061198d565b50611a74612a25565b6001600160a01b03167ff871896b17e9cb7a64941c62c188a4f5c621b86800e3d15452ece01ce56073df8484604051611aae9291906150c9565b60405180910390a2505050565b611178611ac6612a25565b8383613671565b6000610d72611adb856153c5565b3085858080601f01602080910402602001604051908101604052809392919081815260200183838082843760009201919091525061374092505050565b80611b24610e91612a25565b611b405760405162461bcd60e51b8152600401610a9390615168565b8130331415611b7457611b516128bf565b8114611b6f5760405162461bcd60e51b8152600401610a939061524a565b611b7d565b611b7d816128d4565b611816611b898461141c565b8585612e32565b610134546001600160a01b0316611ba5612a25565b6001600160a01b031614611bcb5760405162461bcd60e51b8152600401610a9390615203565b60005b81811015610ab45760016101376000858585818110611bfd57634e487b7160e01b600052603260045260246000fd5b90506020020135815260200190815260200160002060006101000a81548160ff0219169083151502179055508080611c34906154ae565b915050611bce565b610134546001600160a01b0316611c51612a25565b6001600160a01b031614611c775760405162461bcd60e51b8152600401610a9390615203565b611cb8888888888080601f01602080910402602001604051908101604052809392919081815260200183838082843760009201919091525061389892505050565b611275848484848b6135e7565b6000818152606760205260408120546001600160a01b0316611ce85760006109a5565b3092915050565b610134546001600160a01b0316611d04612a25565b6001600160a01b031614611d2a5760405162461bcd60e51b8152600401610a9390615203565b611362868686868080601f01602080910402602001604051908101604052809392919081815260200183838082843760009201919091525050604080516020601f8a0181900481028201810190925288815292508891508790819084018382808284376000920191909152506138e492505050565b606080836001600160401b03811115611dc857634e487b7160e01b600052604160045260246000fd5b604051908082528060200260200182016040528015611dfb57816020015b6060815260200190600190039081611de65790505b509150836001600160401b03811115611e2457634e487b7160e01b600052604160045260246000fd5b604051908082528060200260200182016040528015611e5757816020015b6060815260200190600190039081611e425790505b50905060005b84811015611efe57611e95868683818110611e8857634e487b7160e01b600052603260045260246000fd5b9050602002013585613460565b848381518110611eb557634e487b7160e01b600052603260045260246000fd5b60200260200101848481518110611edc57634e487b7160e01b600052603260045260246000fd5b6020026020010182905282905250508080611ef6906154ae565b915050611e5d565b50935093915050565b81611f13610e91612a25565b611f2f5760405162461bcd60e51b8152600401610a9390615168565b8230331415611f6357611f406128bf565b8114611f5e5760405162461bcd60e51b8152600401610a939061524a565b611f6c565b611f6c816128d4565b611f7584612dc5565b61136286868686613931565b600081815260c960205260409020805460609190611f9e90615479565b80601f0160208091040260200160405190810160405280929190818152602001828054611fca90615479565b80156120175780601f10611fec57610100808354040283529160200191612017565b820191906000526020600020905b815481529060010190602001808311611ffa57829003601f168201915b50505050509050919050565b600054610100900460ff16158080156120435750600054600160ff909116105b8061205d5750303b15801561205d575060005460ff166001145b6120c05760405162461bcd60e51b815260206004820152602e60248201527f496e697469616c697a61626c653a20636f6e747261637420697320616c72656160448201526d191e481a5b9a5d1a585b1a5e995960921b6064820152608401610a93565b6000805460ff1916600117905580156120e3576000805461ff0019166101001790555b61013480546001600160a01b0319166001600160a01b0384161790556040805180820182526013815272556e73746f707061626c6520446f6d61696e7360681b60208083019190915282518084019093526002835261155160f21b9083015261214b91613964565b6121536139b2565b61215b6139b2565b8015611178576000805461ff0019169055604051600181527f7f26b83ff96e1f2b6a682f133852f6798a09c465da95921460cefb38474024989060200161192c565b60606121a882612860565b60006121b26139db565b905060008151116121d25760405180602001604052806000815250610e7e565b806121dc846139eb565b6040516020016121ed929190615003565b6040516020818303038152906040529392505050565b610134546001600160a01b0316612218612a25565b6001600160a01b03161461223e5760405162461bcd60e51b8152600401610a9390615203565b611816848484848080601f0160208091040260200160405190810160405280939291908181526020018383808284376000920182905250604080516020810190915290815292506138e4915050565b80612299610e91612a25565b6122b55760405162461bcd60e51b8152600401610a9390615168565b81303314156122e9576122c66128bf565b81146122e45760405162461bcd60e51b8152600401610a939061524a565b6122f2565b6122f2816128d4565b610f7d87878787876135e7565b7f8bea9a6f8afd34f4e29c585f854e0cc5161431bf5fc299d468454d33dce53b87546001600160a01b0316612332612a25565b6001600160a01b0316146123585760405162461bcd60e51b8152600401610a93906152cc565b602081141561237b57600061236f82840184614e36565b90506118168482612a34565b600061238982840184614b1c565b805190915060005b81811015611362576123ca868483815181106123bd57634e487b7160e01b600052603260045260246000fd5b6020026020010151612a34565b806123d4816154ae565b915050612391565b610134546001600160a01b03166123f1612a25565b6001600160a01b0316146124175760405162461bcd60e51b8152600401610a9390615203565b61dead6124238261141c565b6001600160a01b0316146124795760405162461bcd60e51b815260206004820152601a60248201527f52656769737472793a204f574e45525f4e4f545f3078444541440000000000006044820152606401610a93565b61013454610fff9061dead906001600160a01b031683612e32565b610134546001600160a01b03166124a9612a25565b6001600160a01b0316146124cf5760405162461bcd60e51b8152600401610a9390615203565b611816848484848080601f01602080910402602001604051908101604052809392919081815260200183838082843760009201919091525061389892505050565b610134546001600160a01b0316612525612a25565b6001600160a01b03161461254b5760405162461bcd60e51b8152600401610a9390615203565b61dead6125578261141c565b6001600160a01b031614610ff65760405162461bcd60e51b815260206004820152601a60248201527f52656769737472793a204f574e45525f4e4f545f3078444541440000000000006044820152606401610a93565b806125b9610e91612a25565b6125d55760405162461bcd60e51b8152600401610a9390615168565b8130331415612609576125e66128bf565b81146126045760405162461bcd60e51b8152600401610a939061524a565b612612565b612612816128d4565b610f7d8787878787613b04565b610134546001600160a01b0316612634612a25565b6001600160a01b03161461265a5760405162461bcd60e51b8152600401610a9390615203565b6126a18a8a8a8a8a8a8a8a8a8a8080601f01602080910402602001604051908101604052809392919081815260200183838082843760009201919091525061325a92505050565b50505050505050505050565b60006126b7612a25565b6001600160a01b0381166000908152610135602052604090205490915061272a5760405162461bcd60e51b815260206004820152602160248201527f52656769737472793a20524556455253455f5245434f52445f49535f454d50546044820152605960f81b6064820152608401610a93565b610fff81613b1a565b6060816001600160401b0381111561275b57634e487b7160e01b600052604160045260246000fd5b60405190808252806020026020018201604052801561278e57816020015b60608152602001906001900390816127795790505b50905060005b82811015612809576127cb8484838181106127bf57634e487b7160e01b600052603260045260246000fd5b90506020020135611f81565b8282815181106127eb57634e487b7160e01b600052603260045260246000fd5b60200260200101819052508080612801906154ae565b915050612794565b5092915050565b60006001600160e01b031982166380ac58cd60e01b148061284157506001600160e01b03198216635b5e139f60e01b145b806109a557506301ffc9a760e01b6001600160e01b03198316146109a5565b6000818152606760205260409020546001600160a01b0316610fff5760405162461bcd60e51b8152602060048201526018602482015277115490cdcc8c4e881a5b9d985b1a59081d1bdad95b88125160421b6044820152606401610a93565b6000303314156128d15750601f193601355b90565b600081815261010060205260409020546128ef906001615382565b6000918252610100602052604090912055565b600061290d8261141c565b9050806001600160a01b0316836001600160a01b0316141561297b5760405162461bcd60e51b815260206004820152602160248201527f4552433732313a20617070726f76616c20746f2063757272656e74206f776e656044820152603960f91b6064820152608401610a93565b806001600160a01b031661298d612a25565b6001600160a01b031614806129a957506129a981610900612a25565b612a1b5760405162461bcd60e51b815260206004820152603e60248201527f4552433732313a20617070726f76652063616c6c6572206973206e6f7420746f60448201527f6b656e206f776e6572206e6f7220617070726f76656420666f7220616c6c00006064820152608401610a93565b610ab48383613b5f565b6000612a2f613bcd565b905090565b6001600160a01b038216612a8a5760405162461bcd60e51b815260206004820181905260248201527f4552433732313a206d696e7420746f20746865207a65726f20616464726573736044820152606401610a93565b6000818152606760205260409020546001600160a01b031615612aef5760405162461bcd60e51b815260206004820152601c60248201527f4552433732313a20746f6b656e20616c7265616479206d696e746564000000006044820152606401610a93565b612afb60008383613be9565b6001600160a01b0382166000908152606860205260408120805460019290612b24908490615382565b909155505060008181526067602052604080822080546001600160a01b0319166001600160a01b03861690811790915590518392907fddf252ad1be2c89b69c2b068fc378daa952ba7f163c4a11628f55a4df523b3ef908290a45050565b6000612b8c613147565b9050612b988183613b5f565b60008051602061554b83398151915254604080516020808201869052825180830390910181528183019283905263e3dec8fb60e01b9092526001600160a01b0390921691829163e3dec8fb91612bf5918891309190604401615032565b600060405180830381600087803b158015612c0f57600080fd5b505af1158015611275573d6000803e3d6000fd5b6060610e7e83604051602001612c399190614f98565b6040516020818303038152906040528051906020012060001c83613c86565b6060612c63856128d4565b600080876001600160a01b031686612c7d8b8a8989613d68565b604051612c8a9190614f98565b60006040518083038160008787f1925050503d8060008114612cc8576040519150601f19603f3d011682016040523d82523d6000602084013e612ccd565b606091505b509092509050612cde603f8761539a565b5a11612cfa57634e487b7160e01b600052600160045260246000fd5b612d3a82826040518060400160405280601a81526020017f42617365466f727761726465723a2043414c4c5f4641494c4544000000000000815250613d98565b9998505050505050505050565b600080612d538361141c565b9050806001600160a01b0316846001600160a01b03161480612d9a57506001600160a01b038082166000908152606a602090815260408083209388168352929052205460ff165b80610d725750836001600160a01b0316612db384610a3d565b6001600160a01b031614949350505050565b612dce81613dd1565b604051602001612de091815260200190565b60408051601f198184030181528282528051602091820120600085815260cb9092529181209190915582917f185c30856dadb58bf097c1f665a52ada7029752dbcad008ea3fefc73bee8c9fe9190a250565b826001600160a01b0316612e458261141c565b6001600160a01b031614612ea95760405162461bcd60e51b815260206004820152602560248201527f4552433732313a207472616e736665722066726f6d20696e636f72726563742060448201526437bbb732b960d91b6064820152608401610a93565b6001600160a01b038216612f0b5760405162461bcd60e51b8152602060048201526024808201527f4552433732313a207472616e7366657220746f20746865207a65726f206164646044820152637265737360e01b6064820152608401610a93565b612f16838383613be9565b612f21600082613b5f565b6001600160a01b0383166000908152606860205260408120805460019290612f4a9084906153ae565b90915550506001600160a01b0382166000908152606860205260408120805460019290612f78908490615382565b909155505060008181526067602052604080822080546001600160a01b0319166001600160a01b0386811691821790925591518493918716917fddf252ad1be2c89b69c2b068fc378daa952ba7f163c4a11628f55a4df523b3ef91a4505050565b60005b848110156113625761304686868381811061300757634e487b7160e01b600052603260045260246000fd5b9050602002013585858481811061302e57634e487b7160e01b600052603260045260246000fd5b9050602002810190613040919061530e565b85613394565b80613050816154ae565b915050612fdc565b60006130638261141c565b905061307181600084613be9565b61307c600083613b5f565b6001600160a01b03811660009081526068602052604081208054600192906130a59084906153ae565b909155505060008281526067602052604080822080546001600160a01b0319169055518391906001600160a01b038416907fddf252ad1be2c89b69c2b068fc378daa952ba7f163c4a11628f55a4df523b3ef908390a45050565b6001600160a01b03821660008181526101356020526040808220849055518392917feb76a21470988c474a21f690cc28fee1ed511bd812dc3c21fd0f49c5e5d4708a91a35050565b60008060008051602061554b8339815191525460405163721804d360e11b81523060048201526001600160a01b039091169150600090829063e43009a69060240160206040518083038186803b1580156131a057600080fd5b505afa1580156131b4573d6000803e3d6000fd5b505050506040513d601f19601f820116820180604052508101906131d89190614bdd565b60405163e66f960360e01b8152600481018290529091506001600160a01b0383169063e66f96039060240160206040518083038186803b15801561321b57600080fd5b505afa15801561322f573d6000803e3d6000fd5b505050506040513d601f19601f8201168201806040525081019061325391906145a2565b9250505090565b61329d898989898080601f0160208091040260200160405190810160405280939291908181526020018383808284376000920191909152508792506138e4915050565b6132aa858585858c6135e7565b505050505050505050565b600085856040516020016132ca929190614ff3565b60408051601f198184030181528282528051602091820120601f890182900482028401820190925287835290925061331e918391899089908190840183828082843760009201919091525061343492505050565b6113628187878080601f01602080910402602001604051908101604052809392919081815260200183838082843760009201919091525050604080516020601f8b018190048102820181019092528981529250899150889081908401838280828437600092019190915250889250613dfd915050565b61339d84613f38565b6133e95760405162461bcd60e51b815260206004820152601c60248201527f5265636f726453746f726167653a204b45595f4e4f545f464f554e44000000006044820152606401610a93565b611816846133f686611f81565b85858080601f016020809104026020016040519081016040528093929190818152602001838380828437600092019190915250879250613dfd915050565b61343d82613f38565b61117857600082815260c9602090815260409091208251610ab4928401906143e6565b60608061346c84611f81565b91506134788484613c86565b90509250929050565b60008151600014156134cd5760405162461bcd60e51b815260206004820152601560248201527452656769737472793a204c4142454c5f454d50545960581b6044820152606401610a93565b82826040516020016134df9190614f98565b6040516020818303038152906040528051906020012060405160200161350f929190918252602082015260400190565b60408051601f1981840301815291905280516020909101209392505050565b6000818152610137602052604081205460ff1680156109a557506101366000613555612a25565b6001600160a01b0316815260208101919091526040016000205460ff1692915050565b60008051602061554b83398151915254604051633805550f60e01b81526001600160a01b03909116908190633805550f906135b9908690869060040161511c565b600060405180830381600087803b1580156135d357600080fd5b505af1158015610f7d573d6000803e3d6000fd5b60005b848110156113625761365f86868381811061361557634e487b7160e01b600052603260045260246000fd5b9050602002810190613627919061530e565b86868581811061364757634e487b7160e01b600052603260045260246000fd5b9050602002810190613659919061530e565b866132b5565b80613669816154ae565b9150506135ea565b816001600160a01b0316836001600160a01b031614156136d35760405162461bcd60e51b815260206004820152601960248201527f4552433732313a20617070726f766520746f2063616c6c6572000000000000006044820152606401610a93565b6001600160a01b038381166000818152606a6020908152604080832094871680845294825291829020805460ff191686151590811790915591519182527f17307eab39ab6107e8899845ad3d59bd9653f200f220920489ca2b5937696c31910160405180910390a3505050565b6040838101519051636ccbae5f60e01b8152600481019190915260009081903090636ccbae5f9060240160206040518083038186803b15801561378257600080fd5b505afa158015613796573d6000803e3d6000fd5b505050506040513d601f19601f820116820180604052508101906137ba9190614bdd565b905060006138688660600151805190602001208688602001516040516020016138089392919092835260609190911b6bffffffffffffffffffffffff19166020830152603482015260540190565b60408051601f1981840301815282825280516020918201207f19457468657265756d205369676e6564204d6573736167653a0a33320000000084830152603c8085019190915282518085039091018152605c909301909152815191012090565b905081866020015114801561388e5750855161388e906001600160a01b03168286613f5e565b9695505050505050565b6138a28383612a34565b817fc5beef08f693b11c316c0c8394a377a0033c9cf701b8cd8afd79cecef60c3952826040516138d29190615130565b60405180910390a2610ab483836140ae565b6138ef8484836140ef565b827fc5beef08f693b11c316c0c8394a377a0033c9cf701b8cd8afd79cecef60c39528360405161391f9190615130565b60405180910390a261181684846140ae565b61393c848484612e32565b61394884848484614122565b6118165760405162461bcd60e51b8152600401610a93906151b1565b600054610100900460ff1661398b5760405162461bcd60e51b8152600401610a9390615281565b815161399e9060659060208501906143e6565b508051610ab49060669060208401906143e6565b600054610100900460ff166139d95760405162461bcd60e51b8152600401610a9390615281565b565b606061013380546109ba90615479565b606081613a0f5750506040805180820190915260018152600360fc1b602082015290565b8160005b8115613a395780613a23816154ae565b9150613a329050600a8361539a565b9150613a13565b6000816001600160401b03811115613a6157634e487b7160e01b600052604160045260246000fd5b6040519080825280601f01601f191660200182016040528015613a8b576020820181803683370190505b5090505b8415610d7257613aa06001836153ae565b9150613aad600a866154c9565b613ab8906030615382565b60f81b818381518110613adb57634e487b7160e01b600052603260045260246000fd5b60200101906001600160f81b031916908160001a905350613afd600a8661539a565b9450613a8f565b613b0d81612dc5565b610f0485858585856135e7565b6001600160a01b03811660008181526101356020526040808220829055517ffcf5eec0cfa3e6332f5f0e63ec242d71f866a61d121d6cdf5c2eb3b668a26c4f9190a250565b600081815260696020526040902080546001600160a01b0319166001600160a01b0384169081179091558190613b948261141c565b6001600160a01b03167f8c5be1e5ebec7d5bd14f71427d1e84f3dd0314c0f7b2291e5b200ac8c7c3b92560405160405180910390a45050565b600030331415613be4575060331936013560601c90565b503390565b6000818152610137602052604090205460ff161580613c1057506001600160a01b03821615155b613c5c5760405162461bcd60e51b815260206004820152601860248201527f52656769737472793a20544f4b454e5f555047524144454400000000000000006044820152606401610a93565b6001600160a01b03831660009081526101356020526040902054811415610ab457610ab483613b1a565b6060613c918261352e565b15613cab57506040805160208101909152600081526109a5565b60ca6000613cb884613dd1565b815260200190815260200160002060008481526020019081526020016000208054613ce290615479565b80601f0160208091040260200160405190810160405280929190818152602001828054613d0e90615479565b8015613d5b5780601f10613d3057610100808354040283529160200191613d5b565b820191906000526020600020905b815481529060010190602001808311613d3e57829003601f168201915b5050505050905092915050565b6060828585604051602001613d7f93929190614fb4565b6040516020818303038152906040529050949350505050565b60608315613da7575081610e7e565b825115613db75782518084602001fd5b8160405162461bcd60e51b8152600401610a939190615130565b600081815260cb602052604081205415613df957600082815260cb60205260409020546109a5565b5090565b60ca6000613e0a83613dd1565b815260200190815260200160002060008581526020019081526020016000208054613e3490615479565b15159050613e8b5782604051613e4a9190614f98565b6040518091039020817f7ae4f661958fbecc2f77be6b0eb280d2a6f604b29e1e7221c82b9da0c4af7f8685604051613e829190615130565b60405180910390a35b8160ca6000613e9984613dd1565b815260200190815260200160002060008681526020019081526020016000209080519060200190613ecb9291906143e6565b5081604051613eda9190614f98565b604051809103902083604051613ef09190614f98565b6040518091039020827f851ffe8e74d5015261dba0a1f9e1b0e5d42c5af5d2ad1908fee897c7d80a0d928686604051613f2a929190615143565b60405180910390a450505050565b600081815260c9602052604081208054829190613f5490615479565b9050119050919050565b6000806000613f6d8585614233565b90925090506000816004811115613f9457634e487b7160e01b600052602160045260246000fd5b148015613fb25750856001600160a01b0316826001600160a01b0316145b15613fc257600192505050610e7e565b600080876001600160a01b0316631626ba7e60e01b8888604051602401613fea929190615103565b60408051601f198184030181529181526020820180516001600160e01b03166001600160e01b03199094169390931790925290516140289190614f98565b600060405180830381855afa9150503d8060008114614063576040519150601f19603f3d011682016040523d82523d6000602084013e614068565b606091505b509150915081801561407b575080516020145b80156140a257508051630b135d3f60e11b906140a09083016020908101908401614bdd565b145b98975050505050505050565b61dead6001600160a01b038316148015906140e057506001600160a01b03821660009081526101356020526040902054155b156111785761117882826130ff565b6140f98383612a34565b6141066000848484614122565b610ab45760405162461bcd60e51b8152600401610a93906151b1565b60006001600160a01b0384163b1561422b57836001600160a01b031663150b7a0261414b612a25565b8786866040518563ffffffff1660e01b815260040161416d949392919061505e565b602060405180830381600087803b15801561418757600080fd5b505af19250505080156141b7575060408051601f3d908101601f191682019092526141b491810190614c11565b60015b614211573d8080156141e5576040519150601f19603f3d011682016040523d82523d6000602084013e6141ea565b606091505b5080516142095760405162461bcd60e51b8152600401610a93906151b1565b805181602001fd5b6001600160e01b031916630a85bd0160e11b149050610d72565b506001610d72565b60008082516041141561426a5760208301516040840151606085015160001a61425e87828585614279565b94509450505050614272565b506000905060025b9250929050565b6000807f7fffffffffffffffffffffffffffffff5d576e7357a4501ddfe92f46681b20a08311156142b0575060009050600361435d565b8460ff16601b141580156142c857508460ff16601c14155b156142d9575060009050600461435d565b6040805160008082526020820180845289905260ff881692820192909252606081018690526080810185905260019060a0016020604051602081039080840390855afa15801561432d573d6000803e3d6000fd5b5050604051601f1901519150506001600160a01b0381166143565760006001925092505061435d565b9150600090505b94509492505050565b82805461437290615479565b90600052602060002090601f01602090048101928261439457600085556143da565b82601f106143ad5782800160ff198235161785556143da565b828001600101855582156143da579182015b828111156143da5782358255916020019190600101906143bf565b50613df992915061445a565b8280546143f290615479565b90600052602060002090601f01602090048101928261441457600085556143da565b82601f1061442d57805160ff19168380011785556143da565b828001600101855582156143da579182015b828111156143da57825182559160200191906001019061443f565b5b80821115613df9576000815560010161445b565b60006001600160401b0383111561448857614488615509565b61449b601f8401601f1916602001615352565b90508281528383830111156144af57600080fd5b828260208301376000602084830101529392505050565b80356144d18161551f565b919050565b60008083601f8401126144e7578182fd5b5081356001600160401b038111156144fd578182fd5b6020830191508360208260051b850101111561427257600080fd5b803580151581146144d157600080fd5b60008083601f840112614539578182fd5b5081356001600160401b0381111561454f578182fd5b60208301915083602082850101111561427257600080fd5b600082601f830112614577578081fd5b610e7e8383356020850161446f565b600060208284031215614597578081fd5b8135610e7e8161551f565b6000602082840312156145b3578081fd5b8151610e7e8161551f565b600080604083850312156145d0578081fd5b82356145db8161551f565b915060208301356145eb8161551f565b809150509250929050565b60008060006060848603121561460a578081fd5b83356146158161551f565b925060208401356146258161551f565b929592945050506040919091013590565b60008060008060006080868803121561464d578081fd5b85356146588161551f565b945060208601356146688161551f565b93506040860135925060608601356001600160401b03811115614689578182fd5b61469588828901614528565b969995985093965092949392505050565b600080600080608085870312156146bb578182fd5b84356146c68161551f565b935060208501356146d68161551f565b92506040850135915060608501356001600160401b038111156146f7578182fd5b61470387828801614567565b91505092959194509250565b60008060408385031215614721578182fd5b823561472c8161551f565b915061347860208401614518565b60008060006040848603121561474e578081fd5b83356147598161551f565b925060208401356001600160401b03811115614773578182fd5b61477f86828701614528565b9497909650939450505050565b6000806040838503121561479e578182fd5b82356147a98161551f565b946020939093013593505050565b600080600080606085870312156147cc578182fd5b84356147d78161551f565b93506020850135925060408501356001600160401b038111156147f8578283fd5b61480487828801614528565b95989497509550505050565b60008060008060008060008060a0898b03121561482b578586fd5b88356148368161551f565b97506020890135965060408901356001600160401b0380821115614858578788fd5b6148648c838d01614528565b909850965060608b013591508082111561487c578485fd5b6148888c838d016144d6565b909650945060808b01359150808211156148a0578384fd5b506148ad8b828c016144d6565b999c989b5096995094979396929594505050565b60008060008060008060008060008060c08b8d0312156148df578384fd5b6148e88b6144c6565b995060208b0135985060408b01356001600160401b038082111561490a578586fd5b6149168e838f01614528565b909a50985060608d013591508082111561492e578586fd5b61493a8e838f016144d6565b909850965060808d0135915080821115614952578586fd5b61495e8e838f016144d6565b909650945060a08d0135915080821115614976578384fd5b506149838d828e01614528565b915080935050809150509295989b9194979a5092959850565b600080600080600080608087890312156149b4578384fd5b86356149bf8161551f565b95506020870135945060408701356001600160401b03808211156149e1578586fd5b6149ed8a838b01614528565b90965094506060890135915080821115614a05578384fd5b50614a1289828a01614528565b979a9699509497509295939492505050565b600080600080600060608688031215614a3b578283fd5b85356001600160401b0380821115614a51578485fd5b614a5d89838a016144d6565b90975095506020880135915080821115614a75578485fd5b50614a82888289016144d6565b96999598509660400135949350505050565b600080600060408486031215614aa8578081fd5b83356001600160401b03811115614abd578182fd5b614ac9868287016144d6565b909790965060209590950135949350505050565b60008060208385031215614aef578182fd5b82356001600160401b03811115614b04578283fd5b614b10858286016144d6565b90969095509350505050565b60006020808385031215614b2e578182fd5b82356001600160401b0380821115614b44578384fd5b818501915085601f830112614b57578384fd5b813581811115614b6957614b69615509565b8060051b9150614b7a848301615352565b8181528481019084860184860187018a1015614b94578788fd5b8795505b83861015614bb6578035835260019590950194918601918601614b98565b5098975050505050505050565b600060208284031215614bd4578081fd5b610e7e82614518565b600060208284031215614bee578081fd5b5051919050565b600060208284031215614c06578081fd5b8135610e7e81615534565b600060208284031215614c22578081fd5b8151610e7e81615534565b60008060008060008060006080888a031215614c47578081fd5b87356001600160401b0380821115614c5d578283fd5b614c698b838c01614528565b909950975060208a0135965060408a0135915080821115614c88578283fd5b614c948b838c016144d6565b909650945060608a0135915080821115614cac578283fd5b50614cb98a828b016144d6565b989b979a50959850939692959293505050565b60008060208385031215614cde578182fd5b82356001600160401b03811115614cf3578283fd5b614b1085828601614528565b600080600080600060608688031215614d16578283fd5b85356001600160401b0380821115614d2c578485fd5b614d3889838a01614528565b90975095506020880135915080821115614d50578485fd5b50614a8288828901614528565b600080600060408486031215614d71578081fd5b83356001600160401b03811115614d86578182fd5b614ac986828701614528565b600060208284031215614da3578081fd5b81356001600160401b03811115614db8578182fd5b8201601f81018413614dc8578182fd5b610d728482356020840161446f565b600080600060408486031215614deb578081fd5b83356001600160401b0380821115614e01578283fd5b9085019060808288031215614e14578283fd5b90935060208501359080821115614e29578283fd5b5061477f86828701614528565b600060208284031215614e47578081fd5b5035919050565b600080600060408486031215614e62578081fd5b8335925060208401356001600160401b03811115614773578182fd5b60008060008060608587031215614e93578182fd5b8435935060208501356001600160401b03811115614eaf578283fd5b614ebb87828801614528565b9598909750949560400135949350505050565b60008060408385031215614ee0578182fd5b50508035926020909101359150565b600081518084526020808501808196508360051b81019150828601855b85811015614f36578284038952614f24848351614f6c565b98850198935090840190600101614f0c565b5091979650505050505050565b81835281816020850137506000828201602090810191909152601f909101601f19169091010190565b60008151808452614f8481602086016020860161544d565b601f01601f19169290920160200192915050565b60008251614faa81846020870161544d565b9190910192915050565b60008451614fc681846020890161544d565b60609490941b6bffffffffffffffffffffffff191691909301908152601481019190915260340192915050565b8183823760009101908152919050565b6000835161501581846020880161544d565b83519083019061502981836020880161544d565b01949350505050565b6001600160a01b03848116825283166020820152606060408201819052600090610c0690830184614f6c565b6001600160a01b038581168252841660208201526040810183905260806060820181905260009061388e90830184614f6c565b602081526000610e7e6020830184614eef565b6040815260006150b76040830185614eef565b8281036020840152610e7a8185614eef565b6020808252810182905260006001600160fb1b038311156150e8578081fd5b8260051b808560408501379190910160400190815292915050565b828152604060208201526000610d726040830184614f6c565b602081526000610d72602083018486614f43565b602081526000610e7e6020830184614f6c565b6040815260006151566040830185614f6c565b8281036020840152610e7a8185614f6c565b60208082526029908201527f52656769737472793a2053454e4445525f49535f4e4f545f415050524f5645446040820152682fa7a92fa7aba722a960b91b606082015260800190565b60208082526032908201527f4552433732313a207472616e7366657220746f206e6f6e20455243373231526560408201527131b2b4bb32b91034b6b83632b6b2b73a32b960711b606082015260800190565b60208082526027908201527f52656769737472793a2053454e4445525f49535f4e4f545f4d494e54494e475f60408201526626a0a720a3a2a960c91b606082015260800190565b60208082526017908201527f52656769737472793a20544f4b454e5f494e56414c4944000000000000000000604082015260600190565b6020808252602b908201527f496e697469616c697a61626c653a20636f6e7472616374206973206e6f74206960408201526a6e697469616c697a696e6760a81b606082015260800190565b60208082526022908201527f52656769737472793a20494e53554646494349454e545f5045524d495353494f6040820152614e5360f01b606082015260800190565b6000808335601e19843603018112615324578283fd5b8301803591506001600160401b0382111561533d578283fd5b60200191503681900382131561427257600080fd5b604051601f8201601f191681016001600160401b038111828210171561537a5761537a615509565b604052919050565b60008219821115615395576153956154dd565b500190565b6000826153a9576153a96154f3565b500490565b6000828210156153c0576153c06154dd565b500390565b6000608082360312156153d6578081fd5b604051608081016001600160401b0382821081831117156153f9576153f9615509565b816040528435915061540a8261551f565b81835260208501356020840152604085013560408401526060850135915080821115615434578384fd5b5061544136828601614567565b60608301525092915050565b60005b83811015615468578181015183820152602001615450565b838111156118165750506000910152565b600181811c9082168061548d57607f821691505b6020821081141561172857634e487b7160e01b600052602260045260246000fd5b60006000198214156154c2576154c26154dd565b5060010190565b6000826154d8576154d86154f3565b500690565b634e487b7160e01b600052601160045260246000fd5b634e487b7160e01b600052601260045260246000fd5b634e487b7160e01b600052604160045260246000fd5b6001600160a01b0381168114610fff57600080fd5b6001600160e01b031981168114610fff57600080fdfebe2bb46ac0377341a1ec5c3116d70fd5029d704bd46292e58f6265dd177ebafea164736f6c6343000804000a",
  "linkReferences": {},
  "deployedLinkReferences": {}
}