{
  "_format": "hh-sol-artifact-1",
  "contractName": "UNSRegistry",
  "sourceName": "contracts/UNSRegistry.sol",
  "abi": [
    {
      "anonymous": false,
      "inputs": [
        {
          "indexed": false,
          "internalType": "address",
          "name": "previousAdmin",
          "type": "address"
        },
        {
          "indexed": false,
          "internalType": "address",
          "name": "newAdmin",
          "type": "address"
        }
      ],
      "name": "AdminChanged",
      "type": "event"
    },
    {
      "anonymous": false,
      "inputs": [
        {
          "indexed": true,
          "internalType": "address",
          "name": "owner",
          "type": "address"
        },
        {
          "indexed": true,
          "internalType": "address",
          "name": "approved",
          "type": "address"
        },
        {
          "indexed": true,
          "internalType": "uint256",
          "name": "tokenId",
          "type": "uint256"
        }
      ],
      "name": "Approval",
      "type": "event"
    },
    {
      "anonymous": false,
      "inputs": [
        {
          "indexed": true,
          "internalType": "address",
          "name": "owner",
          "type": "address"
        },
        {
          "indexed": true,
          "internalType": "address",
          "name": "operator",
          "type": "address"
        },
        {
          "indexed": false,
          "internalType": "bool",
          "name": "approved",
          "type": "bool"
        }
      ],
      "name": "ApprovalForAll",
      "type": "event"
    },
    {
      "anonymous": false,
      "inputs": [
        {
          "indexed": false,
          "internalType": "uint8",
          "name": "version",
          "type": "uint8"
        }
      ],
      "name": "Initialized",
      "type": "event"
    },
    {
      "anonymous": false,
      "inputs": [
        {
          "indexed": true,
          "internalType": "uint256",
          "name": "tokenId",
          "type": "uint256"
        },
        {
          "indexed": true,
          "internalType": "string",
          "name": "keyIndex",
          "type": "string"
        },
        {
          "indexed": false,
          "internalType": "string",
          "name": "key",
          "type": "string"
        }
      ],
      "name": "NewKey",
      "type": "event"
    },
    {
      "anonymous": false,
      "inputs": [
        {
          "indexed": true,
          "internalType": "uint256",
          "name": "tokenId",
          "type": "uint256"
        },
        {
          "indexed": false,
          "internalType": "string",
          "name": "uri",
          "type": "string"
        }
      ],
      "name": "NewURI",
      "type": "event"
    },
    {
      "anonymous": false,
      "inputs": [
        {
          "indexed": false,
          "internalType": "string",
          "name": "prefix",
          "type": "string"
        }
      ],
      "name": "NewURIPrefix",
      "type": "event"
    },
    {
      "anonymous": false,
      "inputs": [
        {
          "indexed": true,
          "internalType": "address",
          "name": "addr",
          "type": "address"
        }
      ],
      "name": "RemoveReverse",
      "type": "event"
    },
    {
      "anonymous": false,
      "inputs": [
        {
          "indexed": true,
          "internalType": "uint256",
          "name": "tokenId",
          "type": "uint256"
        }
      ],
      "name": "ResetRecords",
      "type": "event"
    },
    {
      "anonymous": false,
      "inputs": [
        {
          "indexed": true,
          "internalType": "uint256",
          "name": "tokenId",
          "type": "uint256"
        },
        {
          "indexed": true,
          "internalType": "string",
          "name": "keyIndex",
          "type": "string"
        },
        {
          "indexed": true,
          "internalType": "string",
          "name": "valueIndex",
          "type": "string"
        },
        {
          "indexed": false,
          "internalType": "string",
          "name": "key",
          "type": "string"
        },
        {
          "indexed": false,
          "internalType": "string",
          "name": "value",
          "type": "string"
        }
      ],
      "name": "Set",
      "type": "event"
    },
    {
      "anonymous": false,
      "inputs": [
        {
          "indexed": true,
          "internalType": "address",
          "name": "addr",
          "type": "address"
        },
        {
          "indexed": true,
          "internalType": "uint256",
          "name": "tokenId",
          "type": "uint256"
        }
      ],
      "name": "SetReverse",
      "type": "event"
    },
    {
      "anonymous": false,
      "inputs": [
        {
          "indexed": true,
          "internalType": "address",
          "name": "from",
          "type": "address"
        },
        {
          "indexed": true,
          "internalType": "address",
          "name": "to",
          "type": "address"
        },
        {
          "indexed": true,
          "internalType": "uint256",
          "name": "tokenId",
          "type": "uint256"
        }
      ],
      "name": "Transfer",
      "type": "event"
    },
    {
      "anonymous": false,
      "inputs": [
        {
          "indexed": true,
          "internalType": "address",
          "name": "implementation",
          "type": "address"
        }
      ],
      "name": "Upgraded",
      "type": "event"
    },
    {
      "anonymous": false,
      "inputs": [
        {
          "indexed": true,
          "internalType": "address",
          "name": "user",
          "type": "address"
        },
        {
          "indexed": false,
          "internalType": "uint256[]",
          "name": "tokenIds",
          "type": "uint256[]"
        }
      ],
      "name": "WithdrawnBatch",
      "type": "event"
    },
    {
      "inputs": [],
      "name": "BATCH_LIMIT",
      "outputs": [
        {
          "internalType": "uint256",
          "name": "",
          "type": "uint256"
        }
      ],
      "stateMutability": "view",
      "type": "function"
    },
    {
      "inputs": [],
      "name": "NAME",
      "outputs": [
        {
          "internalType": "string",
          "name": "",
          "type": "string"
        }
      ],
      "stateMutability": "view",
      "type": "function"
    },
    {
      "inputs": [],
      "name": "VERSION",
      "outputs": [
        {
          "internalType": "string",
          "name": "",
          "type": "string"
        }
      ],
      "stateMutability": "view",
      "type": "function"
    },
    {
      "inputs": [
        {
          "internalType": "string",
          "name": "key",
          "type": "string"
        }
      ],
      "name": "addKey",
      "outputs": [],
      "stateMutability": "nonpayable",
      "type": "function"
    },
    {
      "inputs": [
        {
          "internalType": "address",
          "name": "addr",
          "type": "address"
        }
      ],
      "name": "addProxyReader",
      "outputs": [],
      "stateMutability": "nonpayable",
      "type": "function"
    },
    {
      "inputs": [
        {
          "internalType": "address",
          "name": "to",
          "type": "address"
        },
        {
          "internalType": "uint256",
          "name": "tokenId",
          "type": "uint256"
        }
      ],
      "name": "approve",
      "outputs": [],
      "stateMutability": "nonpayable",
      "type": "function"
    },
    {
      "inputs": [
        {
          "internalType": "address",
          "name": "owner",
          "type": "address"
        }
      ],
      "name": "balanceOf",
      "outputs": [
        {
          "internalType": "uint256",
          "name": "",
          "type": "uint256"
        }
      ],
      "stateMutability": "view",
      "type": "function"
    },
    {
      "inputs": [
        {
          "internalType": "uint256",
          "name": "tokenId",
          "type": "uint256"
        }
      ],
      "name": "burn",
      "outputs": [],
      "stateMutability": "nonpayable",
      "type": "function"
    },
    {
      "inputs": [
        {
          "internalType": "uint256",
          "name": "tokenId",
          "type": "uint256"
        },
        {
          "internalType": "string",
          "name": "label",
          "type": "string"
        }
      ],
      "name": "childIdOf",
      "outputs": [
        {
          "internalType": "uint256",
          "name": "",
          "type": "uint256"
        }
      ],
      "stateMutability": "pure",
      "type": "function"
    },
    {
      "inputs": [
        {
          "internalType": "address",
          "name": "user",
          "type": "address"
        },
        {
          "internalType": "bytes",
          "name": "depositData",
          "type": "bytes"
        }
      ],
      "name": "deposit",
      "outputs": [],
      "stateMutability": "nonpayable",
      "type": "function"
    },
    {
      "inputs": [
        {
          "internalType": "uint256",
          "name": "tokenId",
          "type": "uint256"
        }
      ],
      "name": "depositToPolygon",
      "outputs": [],
      "stateMutability": "nonpayable",
      "type": "function"
    },
    {
      "inputs": [
        {
          "components": [
            {
              "internalType": "address",
              "name": "from",
              "type": "address"
            },
            {
              "internalType": "uint256",
              "name": "nonce",
              "type": "uint256"
            },
            {
              "internalType": "uint256",
              "name": "tokenId",
              "type": "uint256"
            },
            {
              "internalType": "bytes",
              "name": "data",
              "type": "bytes"
            }
          ],
          "internalType": "struct IForwarder.ForwardRequest",
          "name": "req",
          "type": "tuple"
        },
        {
          "internalType": "bytes",
          "name": "signature",
          "type": "bytes"
        }
      ],
      "name": "execute",
      "outputs": [
        {
          "internalType": "bytes",
          "name": "",
          "type": "bytes"
        }
      ],
      "stateMutability": "nonpayable",
      "type": "function"
    },
    {
      "inputs": [
        {
          "internalType": "uint256",
          "name": "tokenId",
          "type": "uint256"
        }
      ],
      "name": "exists",
      "outputs": [
        {
          "internalType": "bool",
          "name": "",
          "type": "bool"
        }
      ],
      "stateMutability": "view",
      "type": "function"
    },
    {
      "inputs": [
        {
          "internalType": "string",
          "name": "key",
          "type": "string"
        },
        {
          "internalType": "uint256",
          "name": "tokenId",
          "type": "uint256"
        }
      ],
      "name": "get",
      "outputs": [
        {
          "internalType": "string",
          "name": "value",
          "type": "string"
        }
      ],
      "stateMutability": "view",
      "type": "function"
    },
    {
      "inputs": [
        {
          "internalType": "uint256",
          "name": "tokenId",
          "type": "uint256"
        }
      ],
      "name": "getApproved",
      "outputs": [
        {
          "internalType": "address",
          "name": "",
          "type": "address"
        }
      ],
      "stateMutability": "view",
      "type": "function"
    },
    {
      "inputs": [
        {
          "internalType": "uint256",
          "name": "keyHash",
          "type": "uint256"
        },
        {
          "internalType": "uint256",
          "name": "tokenId",
          "type": "uint256"
        }
      ],
      "name": "getByHash",
      "outputs": [
        {
          "internalType": "string",
          "name": "key",
          "type": "string"
        },
        {
          "internalType": "string",
          "name": "value",
          "type": "string"
        }
      ],
      "stateMutability": "view",
      "type": "function"
    },
    {
      "inputs": [
        {
          "internalType": "uint256",
          "name": "keyHash",
          "type": "uint256"
        }
      ],
      "name": "getKey",
      "outputs": [
        {
          "internalType": "string",
          "name": "",
          "type": "string"
        }
      ],
      "stateMutability": "view",
      "type": "function"
    },
    {
      "inputs": [
        {
          "internalType": "uint256[]",
          "name": "hashes",
          "type": "uint256[]"
        }
      ],
      "name": "getKeys",
      "outputs": [
        {
          "internalType": "string[]",
          "name": "values",
          "type": "string[]"
        }
      ],
      "stateMutability": "view",
      "type": "function"
    },
    {
      "inputs": [
        {
          "internalType": "string[]",
          "name": "keys",
          "type": "string[]"
        },
        {
          "internalType": "uint256",
          "name": "tokenId",
          "type": "uint256"
        }
      ],
      "name": "getMany",
      "outputs": [
        {
          "internalType": "string[]",
          "name": "values",
          "type": "string[]"
        }
      ],
      "stateMutability": "view",
      "type": "function"
    },
    {
      "inputs": [
        {
          "internalType": "uint256[]",
          "name": "keyHashes",
          "type": "uint256[]"
        },
        {
          "internalType": "uint256",
          "name": "tokenId",
          "type": "uint256"
        }
      ],
      "name": "getManyByHash",
      "outputs": [
        {
          "internalType": "string[]",
          "name": "keys",
          "type": "string[]"
        },
        {
          "internalType": "string[]",
          "name": "values",
          "type": "string[]"
        }
      ],
      "stateMutability": "view",
      "type": "function"
    },
    {
      "inputs": [
        {
          "internalType": "address",
          "name": "mintingManager",
          "type": "address"
        }
      ],
      "name": "initialize",
      "outputs": [],
      "stateMutability": "nonpayable",
      "type": "function"
    },
    {
      "inputs": [
        {
          "internalType": "address",
          "name": "owner",
          "type": "address"
        },
        {
          "internalType": "address",
          "name": "operator",
          "type": "address"
        }
      ],
      "name": "isApprovedForAll",
      "outputs": [
        {
          "internalType": "bool",
          "name": "",
          "type": "bool"
        }
      ],
      "stateMutability": "view",
      "type": "function"
    },
    {
      "inputs": [
        {
          "internalType": "address",
          "name": "spender",
          "type": "address"
        },
        {
          "internalType": "uint256",
          "name": "tokenId",
          "type": "uint256"
        }
      ],
      "name": "isApprovedOrOwner",
      "outputs": [
        {
          "internalType": "bool",
          "name": "",
          "type": "bool"
        }
      ],
      "stateMutability": "view",
      "type": "function"
    },
    {
      "inputs": [
        {
          "internalType": "address",
          "name": "forwarder",
          "type": "address"
        }
      ],
      "name": "isTrustedForwarder",
      "outputs": [
        {
          "internalType": "bool",
          "name": "",
          "type": "bool"
        }
      ],
      "stateMutability": "view",
      "type": "function"
    },
    {
      "inputs": [
        {
          "internalType": "address",
          "name": "user",
          "type": "address"
        },
        {
          "internalType": "uint256",
          "name": "tokenId",
          "type": "uint256"
        }
      ],
      "name": "mint",
      "outputs": [],
      "stateMutability": "nonpayable",
      "type": "function"
    },
    {
      "inputs": [
        {
          "internalType": "address",
          "name": "user",
          "type": "address"
        },
        {
          "internalType": "uint256",
          "name": "tokenId",
          "type": "uint256"
        },
        {
          "internalType": "bytes",
          "name": "",
          "type": "bytes"
        }
      ],
      "name": "mint",
      "outputs": [],
      "stateMutability": "nonpayable",
      "type": "function"
    },
    {
      "inputs": [
        {
          "internalType": "address",
          "name": "to",
          "type": "address"
        },
        {
          "internalType": "uint256",
          "name": "tokenId",
          "type": "uint256"
        },
        {
          "internalType": "string",
          "name": "uri",
          "type": "string"
        }
      ],
      "name": "mint",
      "outputs": [],
      "stateMutability": "nonpayable",
      "type": "function"
    },
    {
      "inputs": [
        {
          "internalType": "address",
          "name": "to",
          "type": "address"
        },
        {
          "internalType": "uint256",
          "name": "tokenId",
          "type": "uint256"
        },
        {
          "internalType": "string",
          "name": "uri",
          "type": "string"
        },
        {
          "internalType": "string[]",
          "name": "keys",
          "type": "string[]"
        },
        {
          "internalType": "string[]",
          "name": "values",
          "type": "string[]"
        }
      ],
      "name": "mintWithRecords",
      "outputs": [],
      "stateMutability": "nonpayable",
      "type": "function"
    },
    {
      "inputs": [],
      "name": "name",
      "outputs": [
        {
          "internalType": "string",
          "name": "",
          "type": "string"
        }
      ],
      "stateMutability": "view",
      "type": "function"
    },
    {
      "inputs": [
        {
          "internalType": "uint256",
          "name": "tokenId",
          "type": "uint256"
        }
      ],
      "name": "nonceOf",
      "outputs": [
        {
          "internalType": "uint256",
          "name": "",
          "type": "uint256"
        }
      ],
      "stateMutability": "view",
      "type": "function"
    },
    {
      "inputs": [
        {
          "internalType": "address",
          "name": "",
          "type": "address"
        },
        {
          "internalType": "address",
          "name": "from",
          "type": "address"
        },
        {
          "internalType": "uint256",
          "name": "tokenId",
          "type": "uint256"
        },
        {
          "internalType": "bytes",
          "name": "data",
          "type": "bytes"
        }
      ],
      "name": "onERC721Received",
      "outputs": [
        {
          "internalType": "bytes4",
          "name": "",
          "type": "bytes4"
        }
      ],
      "stateMutability": "nonpayable",
      "type": "function"
    },
    {
      "inputs": [
        {
          "internalType": "uint256",
          "name": "tokenId",
          "type": "uint256"
        }
      ],
      "name": "ownerOf",
      "outputs": [
        {
          "internalType": "address",
          "name": "",
          "type": "address"
        }
      ],
      "stateMutability": "view",
      "type": "function"
    },
    {
      "inputs": [
        {
          "internalType": "string[]",
          "name": "keys",
          "type": "string[]"
        },
        {
          "internalType": "string[]",
          "name": "values",
          "type": "string[]"
        },
        {
          "internalType": "uint256",
          "name": "tokenId",
          "type": "uint256"
        }
      ],
      "name": "reconfigure",
      "outputs": [],
      "stateMutability": "nonpayable",
      "type": "function"
    },
    {
      "inputs": [],
      "name": "removeReverse",
      "outputs": [],
      "stateMutability": "nonpayable",
      "type": "function"
    },
    {
      "inputs": [
        {
          "internalType": "uint256",
          "name": "tokenId",
          "type": "uint256"
        }
      ],
      "name": "reset",
      "outputs": [],
      "stateMutability": "nonpayable",
      "type": "function"
    },
    {
      "inputs": [
        {
          "internalType": "uint256",
          "name": "tokenId",
          "type": "uint256"
        }
      ],
      "name": "resolverOf",
      "outputs": [
        {
          "internalType": "address",
          "name": "",
          "type": "address"
        }
      ],
      "stateMutability": "view",
      "type": "function"
    },
    {
      "inputs": [
        {
          "internalType": "address",
          "name": "addr",
          "type": "address"
        }
      ],
      "name": "reverseOf",
      "outputs": [
        {
          "internalType": "uint256",
          "name": "reverse",
          "type": "uint256"
        }
      ],
      "stateMutability": "view",
      "type": "function"
    },
    {
      "inputs": [],
      "name": "root",
      "outputs": [
        {
          "internalType": "uint256",
          "name": "",
          "type": "uint256"
        }
      ],
      "stateMutability": "pure",
      "type": "function"
    },
    {
      "inputs": [
        {
          "internalType": "address",
          "name": "to",
          "type": "address"
        },
        {
          "internalType": "uint256",
          "name": "tokenId",
          "type": "uint256"
        },
        {
          "internalType": "string",
          "name": "uri",
          "type": "string"
        },
        {
          "internalType": "bytes",
          "name": "data",
          "type": "bytes"
        }
      ],
      "name": "safeMint",
      "outputs": [],
      "stateMutability": "nonpayable",
      "type": "function"
    },
    {
      "inputs": [
        {
          "internalType": "address",
          "name": "to",
          "type": "address"
        },
        {
          "internalType": "uint256",
          "name": "tokenId",
          "type": "uint256"
        },
        {
          "internalType": "string",
          "name": "uri",
          "type": "string"
        }
      ],
      "name": "safeMint",
      "outputs": [],
      "stateMutability": "nonpayable",
      "type": "function"
    },
    {
      "inputs": [
        {
          "internalType": "address",
          "name": "to",
          "type": "address"
        },
        {
          "internalType": "uint256",
          "name": "tokenId",
          "type": "uint256"
        },
        {
          "internalType": "string",
          "name": "uri",
          "type": "string"
        },
        {
          "internalType": "string[]",
          "name": "keys",
          "type": "string[]"
        },
        {
          "internalType": "string[]",
          "name": "values",
          "type": "string[]"
        }
      ],
      "name": "safeMintWithRecords",
      "outputs": [],
      "stateMutability": "nonpayable",
      "type": "function"
    },
    {
      "inputs": [
        {
          "internalType": "address",
          "name": "to",
          "type": "address"
        },
        {
          "internalType": "uint256",
          "name": "tokenId",
          "type": "uint256"
        },
        {
          "internalType": "string",
          "name": "uri",
          "type": "string"
        },
        {
          "internalType": "string[]",
          "name": "keys",
          "type": "string[]"
        },
        {
          "internalType": "string[]",
          "name": "values",
          "type": "string[]"
        },
        {
          "internalType": "bytes",
          "name": "data",
          "type": "bytes"
        }
      ],
      "name": "safeMintWithRecords",
      "outputs": [],
      "stateMutability": "nonpayable",
      "type": "function"
    },
    {
      "inputs": [
        {
          "internalType": "address",
          "name": "from",
          "type": "address"
        },
        {
          "internalType": "address",
          "name": "to",
          "type": "address"
        },
        {
          "internalType": "uint256",
          "name": "tokenId",
          "type": "uint256"
        }
      ],
      "name": "safeTransferFrom",
      "outputs": [],
      "stateMutability": "nonpayable",
      "type": "function"
    },
    {
      "inputs": [
        {
          "internalType": "address",
          "name": "from",
          "type": "address"
        },
        {
          "internalType": "address",
          "name": "to",
          "type": "address"
        },
        {
          "internalType": "uint256",
          "name": "tokenId",
          "type": "uint256"
        },
        {
          "internalType": "bytes",
          "name": "data",
          "type": "bytes"
        }
      ],
      "name": "safeTransferFrom",
      "outputs": [],
      "stateMutability": "nonpayable",
      "type": "function"
    },
    {
      "inputs": [
        {
          "internalType": "string",
          "name": "key",
          "type": "string"
        },
        {
          "internalType": "string",
          "name": "value",
          "type": "string"
        },
        {
          "internalType": "uint256",
          "name": "tokenId",
          "type": "uint256"
        }
      ],
      "name": "set",
      "outputs": [],
      "stateMutability": "nonpayable",
      "type": "function"
    },
    {
      "inputs": [
        {
          "internalType": "address",
          "name": "operator",
          "type": "address"
        },
        {
          "internalType": "bool",
          "name": "approved",
          "type": "bool"
        }
      ],
      "name": "setApprovalForAll",
      "outputs": [],
      "stateMutability": "nonpayable",
      "type": "function"
    },
    {
      "inputs": [
        {
          "internalType": "uint256",
          "name": "keyHash",
          "type": "uint256"
        },
        {
          "internalType": "string",
          "name": "value",
          "type": "string"
        },
        {
          "internalType": "uint256",
          "name": "tokenId",
          "type": "uint256"
        }
      ],
      "name": "setByHash",
      "outputs": [],
      "stateMutability": "nonpayable",
      "type": "function"
    },
    {
      "inputs": [
        {
          "internalType": "address",
          "name": "registry",
          "type": "address"
        }
      ],
      "name": "setCNSRegistry",
      "outputs": [],
      "stateMutability": "nonpayable",
      "type": "function"
    },
    {
      "inputs": [
        {
          "internalType": "address",
          "name": "clientChainManager",
          "type": "address"
        }
      ],
      "name": "setChildChainManager",
      "outputs": [],
      "stateMutability": "nonpayable",
      "type": "function"
    },
    {
      "inputs": [
        {
          "internalType": "string[]",
          "name": "keys",
          "type": "string[]"
        },
        {
          "internalType": "string[]",
          "name": "values",
          "type": "string[]"
        },
        {
          "internalType": "uint256",
          "name": "tokenId",
          "type": "uint256"
        }
      ],
      "name": "setMany",
      "outputs": [],
      "stateMutability": "nonpayable",
      "type": "function"
    },
    {
      "inputs": [
        {
          "internalType": "uint256[]",
          "name": "keyHashes",
          "type": "uint256[]"
        },
        {
          "internalType": "string[]",
          "name": "values",
          "type": "string[]"
        },
        {
          "internalType": "uint256",
          "name": "tokenId",
          "type": "uint256"
        }
      ],
      "name": "setManyByHash",
      "outputs": [],
      "stateMutability": "nonpayable",
      "type": "function"
    },
    {
      "inputs": [
        {
          "internalType": "address",
          "name": "to",
          "type": "address"
        },
        {
          "internalType": "uint256",
          "name": "tokenId",
          "type": "uint256"
        }
      ],
      "name": "setOwner",
      "outputs": [],
      "stateMutability": "nonpayable",
      "type": "function"
    },
    {
      "inputs": [
        {
          "internalType": "uint256",
          "name": "tokenId",
          "type": "uint256"
        }
      ],
      "name": "setReverse",
      "outputs": [],
      "stateMutability": "nonpayable",
      "type": "function"
    },
    {
      "inputs": [
        {
          "internalType": "address",
          "name": "rootChainManager",
          "type": "address"
        }
      ],
      "name": "setRootChainManager",
      "outputs": [],
      "stateMutability": "nonpayable",
      "type": "function"
    },
    {
      "inputs": [
        {
          "internalType": "string",
          "name": "prefix",
          "type": "string"
        }
      ],
      "name": "setTokenURIPrefix",
      "outputs": [],
      "stateMutability": "nonpayable",
      "type": "function"
    },
    {
      "inputs": [
        {
          "internalType": "bytes4",
          "name": "interfaceId",
          "type": "bytes4"
        }
      ],
      "name": "supportsInterface",
      "outputs": [
        {
          "internalType": "bool",
          "name": "",
          "type": "bool"
        }
      ],
      "stateMutability": "view",
      "type": "function"
    },
    {
      "inputs": [],
      "name": "symbol",
      "outputs": [
        {
          "internalType": "string",
          "name": "",
          "type": "string"
        }
      ],
      "stateMutability": "view",
      "type": "function"
    },
    {
      "inputs": [
        {
          "internalType": "uint256",
          "name": "tokenId",
          "type": "uint256"
        }
      ],
      "name": "tokenURI",
      "outputs": [
        {
          "internalType": "string",
          "name": "",
          "type": "string"
        }
      ],
      "stateMutability": "view",
      "type": "function"
    },
    {
      "inputs": [
        {
          "internalType": "address",
          "name": "from",
          "type": "address"
        },
        {
          "internalType": "address",
          "name": "to",
          "type": "address"
        },
        {
          "internalType": "uint256",
          "name": "tokenId",
          "type": "uint256"
        }
      ],
      "name": "transferFrom",
      "outputs": [],
      "stateMutability": "nonpayable",
      "type": "function"
    },
    {
      "inputs": [
        {
          "internalType": "uint256[]",
          "name": "tokenIds",
          "type": "uint256[]"
        }
      ],
      "name": "upgradeAll",
      "outputs": [],
      "stateMutability": "nonpayable",
      "type": "function"
    },
    {
      "inputs": [
        {
          "components": [
            {
              "internalType": "address",
              "name": "from",
              "type": "address"
            },
            {
              "internalType": "uint256",
              "name": "nonce",
              "type": "uint256"
            },
            {
              "internalType": "uint256",
              "name": "tokenId",
              "type": "uint256"
            },
            {
              "internalType": "bytes",
              "name": "data",
              "type": "bytes"
            }
          ],
          "internalType": "struct IForwarder.ForwardRequest",
          "name": "req",
          "type": "tuple"
        },
        {
          "internalType": "bytes",
          "name": "signature",
          "type": "bytes"
        }
      ],
      "name": "verify",
      "outputs": [
        {
          "internalType": "bool",
          "name": "",
          "type": "bool"
        }
      ],
      "stateMutability": "view",
      "type": "function"
    },
    {
      "inputs": [
        {
          "internalType": "uint256",
          "name": "tokenId",
          "type": "uint256"
        }
      ],
      "name": "withdraw",
      "outputs": [],
      "stateMutability": "nonpayable",
      "type": "function"
    },
    {
      "inputs": [
        {
          "internalType": "uint256[]",
          "name": "tokenIds",
          "type": "uint256[]"
        }
      ],
      "name": "withdrawBatch",
      "outputs": [],
      "stateMutability": "nonpayable",
      "type": "function"
    },
    {
      "inputs": [
        {
          "internalType": "bytes",
          "name": "inputData",
          "type": "bytes"
        },
        {
          "internalType": "uint256",
          "name": "tokenId",
          "type": "uint256"
        },
        {
          "internalType": "string[]",
          "name": "keys",
          "type": "string[]"
        },
        {
          "internalType": "string[]",
          "name": "values",
          "type": "string[]"
        }
      ],
      "name": "withdrawFromPolygon",
      "outputs": [],
      "stateMutability": "nonpayable",
      "type": "function"
    },
    {
      "inputs": [
        {
          "internalType": "uint256",
          "name": "tokenId",
          "type": "uint256"
        }
      ],
      "name": "withdrawWithMetadata",
      "outputs": [],
      "stateMutability": "nonpayable",
      "type": "function"
    }
  ],
  "bytecode": "0x608060405234801561001057600080fd5b506153e6806100206000396000f3fe608060405234801561001057600080fd5b50600436106103db5760003560e01c80637e37479e1161020a578063b55bc61711610125578063cf2c52cb116100b8578063ec129eea11610087578063ec129eea146108f9578063efda4d3e1461090c578063f25eb5c11461091f578063f5c1f76e14610927578063ffa1ad741461093a57600080fd5b8063cf2c52cb14610890578063d3fc9864146108a3578063e985e9c5146108b6578063ebf0c717146108f257600080fd5b8063c4d66de8116100f4578063c4d66de814610844578063c87b56dd14610857578063cd279c7c1461086a578063ce92b33e1461087d57600080fd5b8063b55bc617146107ea578063b85afd28146107fd578063b88d4fde1461081e578063bb5b27e11461083157600080fd5b8063a22cb4651161019d578063ab3b87fe1161016c578063ab3b87fe1461079e578063ae31844a146107b1578063b0f59177146107c4578063b3f9e4cb146107d757600080fd5b8063a22cb4651461074c578063a3f4df7e1461075f578063a42474001461078b578063a5e584dc146104f557600080fd5b80639559c0bd116101d95780639559c0bd1461071657806395d89b411461071e57806399e0dd7c146107265780639c8d41561461073957600080fd5b80637e37479e146106ca5780637f139a00146106dd57806394d008ef146106f05780639508b1c41461070357600080fd5b8063430c2081116102fa5780636352211e1161028d5780636ccbae5f1161025c5780636ccbae5f1461067057806370a0823114610691578063728a44d8146106a4578063764a81bb146106b757600080fd5b80636352211e14610608578063638e5c781461061b578063672b9f811461062e57806368b62d321461064f57600080fd5b80634f558e79116102c95780634f558e79146105b357806350382c1a146105c657806350960239146105d9578063572b6c05146105ec57600080fd5b8063430c2081146105675780634348b5621461057a57806347c816991461058d5780634a72584d146105a057600080fd5b806323b872dd11610372578063384e9a5511610341578063384e9a551461051b57806340c10f191461052e57806342842e0e1461054157806342966c681461055457600080fd5b806323b872dd146104cf57806327f18975146104e25780632e1a7d4d146104f5578063310bd74b1461050857600080fd5b8063150b7a02116103ae578063150b7a021461045d5780631bd8cc1a146104895780631be5e7ed146104a95780631bf7e13e146104bc57600080fd5b806301ffc9a7146103e057806306fdde0314610408578063081812fc1461041d578063095ea7b314610448575b600080fd5b6103f36103ee366004614a64565b61095e565b60405190151581526020015b60405180910390f35b61041061096f565b6040516103ff9190614f9f565b61043061042b366004614ca5565b610a01565b6040516001600160a01b0390911681526020016103ff565b61045b6104563660046145fb565b610a28565b005b61047061046b3660046144a5565b610a7d565b6040516001600160e01b031990911681526020016103ff565b61049c610497366004614903565b610bd3565b6040516103ff9190614f00565b6104106104b7366004614bcc565b610cf3565b6104106104ca366004614c46565b610d3e565b61045b6104dd366004614465565b610e49565b61045b6104f0366004614893565b610ecf565b61045b610503366004614ca5565b610f4a565b61045b610516366004614ca5565b610fc6565b61045b610529366004614ca5565b611034565b61045b61053c3660046145fb565b6110f3565b61045b61054f366004614465565b611140565b61045b610562366004614ca5565b61115b565b6103f36105753660046145fb565b6111d2565b61045b61058836600461467f565b6111de565b61045b61059b366004614b6e565b611243565b61045b6105ae366004614ced565b6112b5565b6103f36105c1366004614ca5565b61132e565b61045b6105d4366004614c01565b61134d565b61045b6105e73660046143f5565b611380565b6103f36105fa3660046143f5565b6001600160a01b0316301490565b610430610616366004614ca5565b6113e0565b61045b610629366004614ca5565b611440565b61064161063c366004614d3d565b61148b565b6040516103ff929190614fb2565b61066261065d366004614cbd565b6114a3565b6040519081526020016103ff565b61066261067e366004614ca5565b6000908152610100602052604090205490565b61066261069f3660046143f5565b6114e5565b61045b6106b23660046143f5565b61156b565b61045b6106c53660046143f5565b611612565b6106626106d83660046143f5565b6116c1565b61045b6106eb3660046143f5565b6116f2565b61045b6106fe366004614626565b611791565b61045b610711366004614a9c565b6117e0565b610662601481565b610410611867565b61045b610734366004614b3b565b611876565b61045b61074736600461494c565b6118fc565b61045b61075a36600461457e565b611a7f565b6104106040518060400160405280600d81526020016c554e533a20526567697374727960981b81525081565b6103f3610799366004614c46565b611a91565b61045b6107ac3660046145fb565b611adc565b61045b6107bf36600461494c565b611b54565b61045b6107d236600461467f565b611c00565b6104306107e5366004614ca5565b611c89565b61045b6107f836600461480b565b611cb3565b61081061080b366004614903565b611d63565b6040516103ff929190614f13565b61045b61082c366004614515565b611ecb565b61041061083f366004614ca5565b611f45565b61045b6108523660046143f5565b611fe7565b610410610865366004614ca5565b612161565b61045b610878366004614626565b6121c7565b61045b61088b366004614893565b612251565b61045b61089e3660046145a9565b6122c3565b61045b6108b1366004614626565b6123a0565b6103f36108c436600461442d565b6001600160a01b039182166000908152606a6020908152604080832093909416825291909152205460ff1690565b6000610662565b61045b610907366004614893565b61241c565b61045b61091a366004614730565b61248e565b61045b61251c565b61049c61093536600461494c565b6125a2565b61041060405180604001604052806005815260200164302e352e3160d81b81525081565b60006109698261267f565b92915050565b60606065805461097e906152e8565b80601f01602080910402602001604051908101604052809291908181526020018280546109aa906152e8565b80156109f75780601f106109cc576101008083540402835291602001916109f7565b820191906000526020600020905b8154815290600101906020018083116109da57829003601f168201915b5050505050905090565b6000610a0c826126cf565b506000908152606960205260409020546001600160a01b031690565b8030331415610a6557610a3961272e565b8114610a605760405162461bcd60e51b8152600401610a57906150b9565b60405180910390fd5b610a6e565b610a6e81612743565b610a788383612771565b505050565b60007f8ffb960699dc2ba88f34d0e41c029c3c36c95149679fe1d0153a9582bec92378546001600160a01b0316610ab2612894565b6001600160a01b03161415610b7457610ac9612894565b6001600160a01b03166342966c68856040518263ffffffff1660e01b8152600401610af691815260200190565b600060405180830381600087803b158015610b1057600080fd5b505af1158015610b24573d6000803e3d6000fd5b505050821580159150610b3e5750610b3e82840184614a32565b15610b5c57610b4d30856128a3565b610b5785856129f1565b610b66565b610b6685856128a3565b50630a85bd0160e11b610bca565b60405162461bcd60e51b815260206004820152602560248201527f52656769737472793a204552433732315f524543454956494e475f50524f4849604482015264109255115160da1b6064820152608401610a57565b95945050505050565b6060826001600160401b03811115610bfb57634e487b7160e01b600052604160045260246000fd5b604051908082528060200260200182016040528015610c2e57816020015b6060815260200190600190039081610c195790505b50905060005b83811015610ceb57610cad858583818110610c5f57634e487b7160e01b600052603260045260246000fd5b9050602002810190610c71919061517d565b8080601f016020809104026020016040519081016040528093929190818152602001838380828437600092019190915250879250612a92915050565b828281518110610ccd57634e487b7160e01b600052603260045260246000fd5b60200260200101819052508080610ce39061531d565b915050610c34565b509392505050565b6060610d3684848080601f016020809104026020016040519081016040528093929190818152602001838380828437600092019190915250869250612a92915050565b949350505050565b606060005a9050610d50858585611a91565b610dac5760405162461bcd60e51b815260206004820152602760248201527f554e535265676973747279466f727761726465723a205349474e41545552455f6044820152661253959053125160ca1b6064820152608401610a57565b610e3e610dbc60208701876143f5565b30604088013584610dd060608b018b61517d565b8080601f01602080910402602001604051908101604052809392919081815260200183838082843760009201919091525050604080516020601f8e018190048102820181019092528c815292508c91508b9081908401838280828437600092019190915250612ac792505050565b9150505b9392505050565b80610e5b610e55612894565b82612bb6565b610e775760405162461bcd60e51b8152600401610a5790614fd7565b8130331415610eab57610e8861272e565b8114610ea65760405162461bcd60e51b8152600401610a57906150b9565b610eb4565b610eb481612743565b610ebd83612c34565b610ec8858585612ca1565b5050505050565b80610edb610e55612894565b610ef75760405162461bcd60e51b8152600401610a5790614fd7565b8130331415610f2b57610f0861272e565b8114610f265760405162461bcd60e51b8152600401610a57906150b9565b610f34565b610f3481612743565b610f418787878787612e48565b50505050505050565b610f53816113e0565b6001600160a01b0316610f64612894565b6001600160a01b031614610fba5760405162461bcd60e51b815260206004820152601d60248201527f52656769737472793a20494e56414c49445f544f4b454e5f4f574e45520000006044820152606401610a57565b610fc381612ec7565b50565b80610fd2610e55612894565b610fee5760405162461bcd60e51b8152600401610a5790614fd7565b813033141561102257610fff61272e565b811461101d5760405162461bcd60e51b8152600401610a57906150b9565b61102b565b61102b81612743565b610a7883612c34565b8061103d612894565b6001600160a01b031661104f826113e0565b6001600160a01b0316146110a55760405162461bcd60e51b815260206004820152601d60248201527f52656769737472793a2053454e4445525f49535f4e4f545f4f574e45520000006044820152606401610a57565b81303314156110d9576110b661272e565b81146110d45760405162461bcd60e51b8152600401610a57906150b9565b6110e2565b6110e281612743565b610a786110ed612894565b84612f6e565b6110fb612fb6565b6001600160a01b031661110c612894565b6001600160a01b0316146111325760405162461bcd60e51b8152600401610a579061513b565b61113c82826128a3565b5050565b610a7883838360405180602001604052806000815250611ecb565b80611167610e55612894565b6111835760405162461bcd60e51b8152600401610a5790614fd7565b81303314156111b75761119461272e565b81146111b25760405162461bcd60e51b8152600401610a57906150b9565b6111c0565b6111c081612743565b6111c983612c34565b610a7883612ec7565b6000610e428383612bb6565b610134546001600160a01b03166111f3612894565b6001600160a01b0316146112195760405162461bcd60e51b8152600401610a5790615072565b6112398888888888888888604051806020016040528060008152506130c9565b5050505050505050565b8061124f610e55612894565b61126b5760405162461bcd60e51b8152600401610a5790614fd7565b813033141561129f5761127c61272e565b811461129a5760405162461bcd60e51b8152600401610a57906150b9565b6112a8565b6112a881612743565b610f418787878787613124565b806112c1610e55612894565b6112dd5760405162461bcd60e51b8152600401610a5790614fd7565b8130331415611311576112ee61272e565b811461130c5760405162461bcd60e51b8152600401610a57906150b9565b61131a565b61131a81612743565b61132686868686613203565b505050505050565b6000818152606760205260408120546001600160a01b03161515610969565b610fc3816040516020016113619190614e07565b6040516020818303038152906040528051906020012060001c826132a3565b610134546001600160a01b0316611395612894565b6001600160a01b0316146113bb5760405162461bcd60e51b8152600401610a5790615072565b6001600160a01b0316600090815261013660205260409020805460ff19166001179055565b6000818152606760205260408120546001600160a01b0316806109695760405162461bcd60e51b8152602060048201526018602482015277115490cdcc8c4e881a5b9d985b1a59081d1bdad95b88125160421b6044820152606401610a57565b8061144c610e55612894565b6114685760405162461bcd60e51b8152600401610a5790614fd7565b61147a611473612894565b3084612ca1565b61113c611485612894565b836129f1565b60608061149884846132cf565b909590945092505050565b6000610d368484848080601f0160208091040260200160405190810160405280939291908181526020018383808284376000920191909152506132f092505050565b60006001600160a01b03821661154f5760405162461bcd60e51b815260206004820152602960248201527f4552433732313a2061646472657373207a65726f206973206e6f7420612076616044820152683634b21037bbb732b960b91b6064820152608401610a57565b506001600160a01b031660009081526068602052604090205490565b6000805160206153ba833981519152546001600160a01b0316156115e05760405162461bcd60e51b815260206004820152602660248201527f52656769737472793a20524f4f545f434841494e5f4d414e454745525f4e4f546044820152655f454d50545960d01b6064820152608401610a57565b806000805160206153ba8339815191525b80546001600160a01b0319166001600160a01b039290921691909117905550565b7f8bea9a6f8afd34f4e29c585f854e0cc5161431bf5fc299d468454d33dce53b87546001600160a01b03161561169a5760405162461bcd60e51b815260206004820152602760248201527f52656769737472793a204348494c445f434841494e5f4d414e454745525f4e4f604482015266545f454d50545960c81b6064820152608401610a57565b807f8bea9a6f8afd34f4e29c585f854e0cc5161431bf5fc299d468454d33dce53b876115f1565b6001600160a01b038116600090815261013560205260408120546116e48161339d565b6116ec578091505b50919050565b7f8ffb960699dc2ba88f34d0e41c029c3c36c95149679fe1d0153a9582bec92378546001600160a01b03161561176a5760405162461bcd60e51b815260206004820181905260248201527f52656769737472793a20434e535f52454749535452595f4e4f545f454d5054596044820152606401610a57565b807f8ffb960699dc2ba88f34d0e41c029c3c36c95149679fe1d0153a9582bec923786115f1565b611799612fb6565b6001600160a01b03166117aa612894565b6001600160a01b0316146117d05760405162461bcd60e51b8152600401610a579061513b565b6117da84846128a3565b50505050565b6117ea87876133e7565b6117f2612894565b6001600160a01b0316611804866113e0565b6001600160a01b03161461185a5760405162461bcd60e51b815260206004820152601d60248201527f52656769737472793a2053454e4445525f49535f4e4f545f4f574e45520000006044820152606401610a57565b610f418484848489613456565b60606066805461097e906152e8565b610134546001600160a01b031661188b612894565b6001600160a01b0316146118b15760405162461bcd60e51b8152600401610a5790615072565b6118be61013383836141d5565b507f4b120d6a959a84a520fa48f5f937cca0e79129423487af7901213b5d2e89313b82826040516118f0929190614f8b565b60405180910390a15050565b80601481111561194e5760405162461bcd60e51b815260206004820152601d60248201527f52656769737472793a20455843454544535f42415443485f4c494d49540000006044820152606401610a57565b60005b81811015611a2f57600084848381811061197b57634e487b7160e01b600052603260045260246000fd5b90506020020135905061198d816113e0565b6001600160a01b031661199e612894565b6001600160a01b031614816040516020016119e591907f52656769737472793a20494e56414c49445f544f4b454e5f4f574e45522000008152601e810191909152603e0190565b60405160208183030381529060405290611a125760405162461bcd60e51b8152600401610a579190614f9f565b50611a1c81612ec7565b5080611a278161531d565b915050611951565b50611a38612894565b6001600160a01b03167ff871896b17e9cb7a64941c62c188a4f5c621b86800e3d15452ece01ce56073df8484604051611a72929190614f38565b60405180910390a2505050565b61113c611a8a612894565b83836134e0565b6000610d36611a9f85615234565b3085858080601f0160208091040260200160405190810160405280939291908181526020018383808284376000920191909152506135af92505050565b80611ae8610e55612894565b611b045760405162461bcd60e51b8152600401610a5790614fd7565b8130331415611b3857611b1561272e565b8114611b335760405162461bcd60e51b8152600401610a57906150b9565b611b41565b611b4181612743565b6117da611b4d846113e0565b8585612ca1565b610134546001600160a01b0316611b69612894565b6001600160a01b031614611b8f5760405162461bcd60e51b8152600401610a5790615072565b60005b81811015610a785760016101376000858585818110611bc157634e487b7160e01b600052603260045260246000fd5b90506020020135815260200190815260200160002060006101000a81548160ff0219169083151502179055508080611bf89061531d565b915050611b92565b610134546001600160a01b0316611c15612894565b6001600160a01b031614611c3b5760405162461bcd60e51b8152600401610a5790615072565b611c7c888888888080601f01602080910402602001604051908101604052809392919081815260200183838082843760009201919091525061370792505050565b611239848484848b613456565b6000818152606760205260408120546001600160a01b0316611cac576000610969565b3092915050565b610134546001600160a01b0316611cc8612894565b6001600160a01b031614611cee5760405162461bcd60e51b8152600401610a5790615072565b611326868686868080601f01602080910402602001604051908101604052809392919081815260200183838082843760009201919091525050604080516020601f8a01819004810282018101909252888152925088915087908190840183828082843760009201919091525061375392505050565b606080836001600160401b03811115611d8c57634e487b7160e01b600052604160045260246000fd5b604051908082528060200260200182016040528015611dbf57816020015b6060815260200190600190039081611daa5790505b509150836001600160401b03811115611de857634e487b7160e01b600052604160045260246000fd5b604051908082528060200260200182016040528015611e1b57816020015b6060815260200190600190039081611e065790505b50905060005b84811015611ec257611e59868683818110611e4c57634e487b7160e01b600052603260045260246000fd5b90506020020135856132cf565b848381518110611e7957634e487b7160e01b600052603260045260246000fd5b60200260200101848481518110611ea057634e487b7160e01b600052603260045260246000fd5b6020026020010182905282905250508080611eba9061531d565b915050611e21565b50935093915050565b81611ed7610e55612894565b611ef35760405162461bcd60e51b8152600401610a5790614fd7565b8230331415611f2757611f0461272e565b8114611f225760405162461bcd60e51b8152600401610a57906150b9565b611f30565b611f3081612743565b611f3984612c34565b611326868686866137a0565b600081815260c960205260409020805460609190611f62906152e8565b80601f0160208091040260200160405190810160405280929190818152602001828054611f8e906152e8565b8015611fdb5780601f10611fb057610100808354040283529160200191611fdb565b820191906000526020600020905b815481529060010190602001808311611fbe57829003601f168201915b50505050509050919050565b600054610100900460ff16158080156120075750600054600160ff909116105b806120215750303b158015612021575060005460ff166001145b6120845760405162461bcd60e51b815260206004820152602e60248201527f496e697469616c697a61626c653a20636f6e747261637420697320616c72656160448201526d191e481a5b9a5d1a585b1a5e995960921b6064820152608401610a57565b6000805460ff1916600117905580156120a7576000805461ff0019166101001790555b61013480546001600160a01b0319166001600160a01b0384161790556040805180820182526013815272556e73746f707061626c6520446f6d61696e7360681b60208083019190915282518084019093526002835261155160f21b9083015261210f916137d3565b612117613821565b61211f613821565b801561113c576000805461ff0019169055604051600181527f7f26b83ff96e1f2b6a682f133852f6798a09c465da95921460cefb3847402498906020016118f0565b606061216c826126cf565b600061217661384a565b905060008151116121965760405180602001604052806000815250610e42565b806121a08461385a565b6040516020016121b1929190614e72565b6040516020818303038152906040529392505050565b610134546001600160a01b03166121dc612894565b6001600160a01b0316146122025760405162461bcd60e51b8152600401610a5790615072565b6117da848484848080601f016020809104026020016040519081016040528093929190818152602001838380828437600092018290525060408051602081019091529081529250613753915050565b8061225d610e55612894565b6122795760405162461bcd60e51b8152600401610a5790614fd7565b81303314156122ad5761228a61272e565b81146122a85760405162461bcd60e51b8152600401610a57906150b9565b6122b6565b6122b681612743565b610f418787878787613456565b7f8bea9a6f8afd34f4e29c585f854e0cc5161431bf5fc299d468454d33dce53b87546001600160a01b03166122f6612894565b6001600160a01b03161461231c5760405162461bcd60e51b8152600401610a579061513b565b602081141561233f57600061233382840184614ca5565b90506117da84826128a3565b600061234d8284018461498b565b805190915060005b818110156113265761238e8684838151811061238157634e487b7160e01b600052603260045260246000fd5b60200260200101516128a3565b806123988161531d565b915050612355565b610134546001600160a01b03166123b5612894565b6001600160a01b0316146123db5760405162461bcd60e51b8152600401610a5790615072565b6117da848484848080601f01602080910402602001604051908101604052809392919081815260200183838082843760009201919091525061370792505050565b80612428610e55612894565b6124445760405162461bcd60e51b8152600401610a5790614fd7565b81303314156124785761245561272e565b81146124735760405162461bcd60e51b8152600401610a57906150b9565b612481565b61248181612743565b610f418787878787613973565b610134546001600160a01b03166124a3612894565b6001600160a01b0316146124c95760405162461bcd60e51b8152600401610a5790615072565b6125108a8a8a8a8a8a8a8a8a8a8080601f0160208091040260200160405190810160405280939291908181526020018383808284376000920191909152506130c992505050565b50505050505050505050565b6000612526612894565b6001600160a01b038116600090815261013560205260409020549091506125995760405162461bcd60e51b815260206004820152602160248201527f52656769737472793a20524556455253455f5245434f52445f49535f454d50546044820152605960f81b6064820152608401610a57565b610fc381613989565b6060816001600160401b038111156125ca57634e487b7160e01b600052604160045260246000fd5b6040519080825280602002602001820160405280156125fd57816020015b60608152602001906001900390816125e85790505b50905060005b828110156126785761263a84848381811061262e57634e487b7160e01b600052603260045260246000fd5b90506020020135611f45565b82828151811061265a57634e487b7160e01b600052603260045260246000fd5b602002602001018190525080806126709061531d565b915050612603565b5092915050565b60006001600160e01b031982166380ac58cd60e01b14806126b057506001600160e01b03198216635b5e139f60e01b145b8061096957506301ffc9a760e01b6001600160e01b0319831614610969565b6000818152606760205260409020546001600160a01b0316610fc35760405162461bcd60e51b8152602060048201526018602482015277115490cdcc8c4e881a5b9d985b1a59081d1bdad95b88125160421b6044820152606401610a57565b6000303314156127405750601f193601355b90565b6000818152610100602052604090205461275e9060016151f1565b6000918252610100602052604090912055565b600061277c826113e0565b9050806001600160a01b0316836001600160a01b031614156127ea5760405162461bcd60e51b815260206004820152602160248201527f4552433732313a20617070726f76616c20746f2063757272656e74206f776e656044820152603960f91b6064820152608401610a57565b806001600160a01b03166127fc612894565b6001600160a01b031614806128185750612818816108c4612894565b61288a5760405162461bcd60e51b815260206004820152603e60248201527f4552433732313a20617070726f76652063616c6c6572206973206e6f7420746f60448201527f6b656e206f776e6572206e6f7220617070726f76656420666f7220616c6c00006064820152608401610a57565b610a7883836139ce565b600061289e613a3c565b905090565b6001600160a01b0382166128f95760405162461bcd60e51b815260206004820181905260248201527f4552433732313a206d696e7420746f20746865207a65726f20616464726573736044820152606401610a57565b6000818152606760205260409020546001600160a01b03161561295e5760405162461bcd60e51b815260206004820152601c60248201527f4552433732313a20746f6b656e20616c7265616479206d696e746564000000006044820152606401610a57565b61296a60008383613a58565b6001600160a01b03821660009081526068602052604081208054600192906129939084906151f1565b909155505060008181526067602052604080822080546001600160a01b0319166001600160a01b03861690811790915590518392907fddf252ad1be2c89b69c2b068fc378daa952ba7f163c4a11628f55a4df523b3ef908290a45050565b60006129fb612fb6565b9050612a0781836139ce565b6000805160206153ba83398151915254604080516020808201869052825180830390910181528183019283905263e3dec8fb60e01b9092526001600160a01b0390921691829163e3dec8fb91612a64918891309190604401614ea1565b600060405180830381600087803b158015612a7e57600080fd5b505af1158015611239573d6000803e3d6000fd5b6060610e4283604051602001612aa89190614e07565b6040516020818303038152906040528051906020012060001c83613af5565b6060612ad285612743565b600080876001600160a01b031686612aec8b8a8989613bd7565b604051612af99190614e07565b60006040518083038160008787f1925050503d8060008114612b37576040519150601f19603f3d011682016040523d82523d6000602084013e612b3c565b606091505b509092509050612b4d603f87615209565b5a11612b6957634e487b7160e01b600052600160045260246000fd5b612ba982826040518060400160405280601a81526020017f42617365466f727761726465723a2043414c4c5f4641494c4544000000000000815250613c07565b9998505050505050505050565b600080612bc2836113e0565b9050806001600160a01b0316846001600160a01b03161480612c0957506001600160a01b038082166000908152606a602090815260408083209388168352929052205460ff165b80610d365750836001600160a01b0316612c2284610a01565b6001600160a01b031614949350505050565b612c3d81613c40565b604051602001612c4f91815260200190565b60408051601f198184030181528282528051602091820120600085815260cb9092529181209190915582917f185c30856dadb58bf097c1f665a52ada7029752dbcad008ea3fefc73bee8c9fe9190a250565b826001600160a01b0316612cb4826113e0565b6001600160a01b031614612d185760405162461bcd60e51b815260206004820152602560248201527f4552433732313a207472616e736665722066726f6d20696e636f72726563742060448201526437bbb732b960d91b6064820152608401610a57565b6001600160a01b038216612d7a5760405162461bcd60e51b8152602060048201526024808201527f4552433732313a207472616e7366657220746f20746865207a65726f206164646044820152637265737360e01b6064820152608401610a57565b612d85838383613a58565b612d906000826139ce565b6001600160a01b0383166000908152606860205260408120805460019290612db990849061521d565b90915550506001600160a01b0382166000908152606860205260408120805460019290612de79084906151f1565b909155505060008181526067602052604080822080546001600160a01b0319166001600160a01b0386811691821790925591518493918716917fddf252ad1be2c89b69c2b068fc378daa952ba7f163c4a11628f55a4df523b3ef91a4505050565b60005b8481101561132657612eb5868683818110612e7657634e487b7160e01b600052603260045260246000fd5b90506020020135858584818110612e9d57634e487b7160e01b600052603260045260246000fd5b9050602002810190612eaf919061517d565b85613203565b80612ebf8161531d565b915050612e4b565b6000612ed2826113e0565b9050612ee081600084613a58565b612eeb6000836139ce565b6001600160a01b0381166000908152606860205260408120805460019290612f1490849061521d565b909155505060008281526067602052604080822080546001600160a01b0319169055518391906001600160a01b038416907fddf252ad1be2c89b69c2b068fc378daa952ba7f163c4a11628f55a4df523b3ef908390a45050565b6001600160a01b03821660008181526101356020526040808220849055518392917feb76a21470988c474a21f690cc28fee1ed511bd812dc3c21fd0f49c5e5d4708a91a35050565b6000806000805160206153ba8339815191525460405163721804d360e11b81523060048201526001600160a01b039091169150600090829063e43009a69060240160206040518083038186803b15801561300f57600080fd5b505afa158015613023573d6000803e3d6000fd5b505050506040513d601f19601f820116820180604052508101906130479190614a4c565b60405163e66f960360e01b8152600481018290529091506001600160a01b0383169063e66f96039060240160206040518083038186803b15801561308a57600080fd5b505afa15801561309e573d6000803e3d6000fd5b505050506040513d601f19601f820116820180604052508101906130c29190614411565b9250505090565b61310c898989898080601f016020809104026020016040519081016040528093929190818152602001838380828437600092019190915250879250613753915050565b613119858585858c613456565b505050505050505050565b60008585604051602001613139929190614e62565b60408051601f198184030181528282528051602091820120601f890182900482028401820190925287835290925061318d91839189908990819084018382808284376000920191909152506132a392505050565b6113268187878080601f01602080910402602001604051908101604052809392919081815260200183838082843760009201919091525050604080516020601f8b018190048102820181019092528981529250899150889081908401838280828437600092019190915250889250613c6c915050565b61320c84613da7565b6132585760405162461bcd60e51b815260206004820152601c60248201527f5265636f726453746f726167653a204b45595f4e4f545f464f554e44000000006044820152606401610a57565b6117da8461326586611f45565b85858080601f016020809104026020016040519081016040528093929190818152602001838380828437600092019190915250879250613c6c915050565b6132ac82613da7565b61113c57600082815260c9602090815260409091208251610a7892840190614255565b6060806132db84611f45565b91506132e78484613af5565b90509250929050565b600081516000141561333c5760405162461bcd60e51b815260206004820152601560248201527452656769737472793a204c4142454c5f454d50545960581b6044820152606401610a57565b828260405160200161334e9190614e07565b6040516020818303038152906040528051906020012060405160200161337e929190918252602082015260400190565b60408051601f1981840301815291905280516020909101209392505050565b6000818152610137602052604081205460ff168015610969575061013660006133c4612894565b6001600160a01b0316815260208101919091526040016000205460ff1692915050565b6000805160206153ba83398151915254604051633805550f60e01b81526001600160a01b03909116908190633805550f906134289086908690600401614f8b565b600060405180830381600087803b15801561344257600080fd5b505af1158015610f41573d6000803e3d6000fd5b60005b84811015611326576134ce86868381811061348457634e487b7160e01b600052603260045260246000fd5b9050602002810190613496919061517d565b8686858181106134b657634e487b7160e01b600052603260045260246000fd5b90506020028101906134c8919061517d565b86613124565b806134d88161531d565b915050613459565b816001600160a01b0316836001600160a01b031614156135425760405162461bcd60e51b815260206004820152601960248201527f4552433732313a20617070726f766520746f2063616c6c6572000000000000006044820152606401610a57565b6001600160a01b038381166000818152606a6020908152604080832094871680845294825291829020805460ff191686151590811790915591519182527f17307eab39ab6107e8899845ad3d59bd9653f200f220920489ca2b5937696c31910160405180910390a3505050565b6040838101519051636ccbae5f60e01b8152600481019190915260009081903090636ccbae5f9060240160206040518083038186803b1580156135f157600080fd5b505afa158015613605573d6000803e3d6000fd5b505050506040513d601f19601f820116820180604052508101906136299190614a4c565b905060006136d78660600151805190602001208688602001516040516020016136779392919092835260609190911b6bffffffffffffffffffffffff19166020830152603482015260540190565b60408051601f1981840301815282825280516020918201207f19457468657265756d205369676e6564204d6573736167653a0a33320000000084830152603c8085019190915282518085039091018152605c909301909152815191012090565b90508186602001511480156136fd575085516136fd906001600160a01b03168286613dcd565b9695505050505050565b61371183836128a3565b817fc5beef08f693b11c316c0c8394a377a0033c9cf701b8cd8afd79cecef60c3952826040516137419190614f9f565b60405180910390a2610a788383613f1d565b61375e848483613f5e565b827fc5beef08f693b11c316c0c8394a377a0033c9cf701b8cd8afd79cecef60c39528360405161378e9190614f9f565b60405180910390a26117da8484613f1d565b6137ab848484612ca1565b6137b784848484613f91565b6117da5760405162461bcd60e51b8152600401610a5790615020565b600054610100900460ff166137fa5760405162461bcd60e51b8152600401610a57906150f0565b815161380d906065906020850190614255565b508051610a78906066906020840190614255565b600054610100900460ff166138485760405162461bcd60e51b8152600401610a57906150f0565b565b6060610133805461097e906152e8565b60608161387e5750506040805180820190915260018152600360fc1b602082015290565b8160005b81156138a857806138928161531d565b91506138a19050600a83615209565b9150613882565b6000816001600160401b038111156138d057634e487b7160e01b600052604160045260246000fd5b6040519080825280601f01601f1916602001820160405280156138fa576020820181803683370190505b5090505b8415610d365761390f60018361521d565b915061391c600a86615338565b6139279060306151f1565b60f81b81838151811061394a57634e487b7160e01b600052603260045260246000fd5b60200101906001600160f81b031916908160001a90535061396c600a86615209565b94506138fe565b61397c81612c34565b610ec88585858585613456565b6001600160a01b03811660008181526101356020526040808220829055517ffcf5eec0cfa3e6332f5f0e63ec242d71f866a61d121d6cdf5c2eb3b668a26c4f9190a250565b600081815260696020526040902080546001600160a01b0319166001600160a01b0384169081179091558190613a03826113e0565b6001600160a01b03167f8c5be1e5ebec7d5bd14f71427d1e84f3dd0314c0f7b2291e5b200ac8c7c3b92560405160405180910390a45050565b600030331415613a53575060331936013560601c90565b503390565b6000818152610137602052604090205460ff161580613a7f57506001600160a01b03821615155b613acb5760405162461bcd60e51b815260206004820152601860248201527f52656769737472793a20544f4b454e5f555047524144454400000000000000006044820152606401610a57565b6001600160a01b03831660009081526101356020526040902054811415610a7857610a7883613989565b6060613b008261339d565b15613b1a5750604080516020810190915260008152610969565b60ca6000613b2784613c40565b815260200190815260200160002060008481526020019081526020016000208054613b51906152e8565b80601f0160208091040260200160405190810160405280929190818152602001828054613b7d906152e8565b8015613bca5780601f10613b9f57610100808354040283529160200191613bca565b820191906000526020600020905b815481529060010190602001808311613bad57829003601f168201915b5050505050905092915050565b6060828585604051602001613bee93929190614e23565b6040516020818303038152906040529050949350505050565b60608315613c16575081610e42565b825115613c265782518084602001fd5b8160405162461bcd60e51b8152600401610a579190614f9f565b600081815260cb602052604081205415613c6857600082815260cb6020526040902054610969565b5090565b60ca6000613c7983613c40565b815260200190815260200160002060008581526020019081526020016000208054613ca3906152e8565b15159050613cfa5782604051613cb99190614e07565b6040518091039020817f7ae4f661958fbecc2f77be6b0eb280d2a6f604b29e1e7221c82b9da0c4af7f8685604051613cf19190614f9f565b60405180910390a35b8160ca6000613d0884613c40565b815260200190815260200160002060008681526020019081526020016000209080519060200190613d3a929190614255565b5081604051613d499190614e07565b604051809103902083604051613d5f9190614e07565b6040518091039020827f851ffe8e74d5015261dba0a1f9e1b0e5d42c5af5d2ad1908fee897c7d80a0d928686604051613d99929190614fb2565b60405180910390a450505050565b600081815260c9602052604081208054829190613dc3906152e8565b9050119050919050565b6000806000613ddc85856140a2565b90925090506000816004811115613e0357634e487b7160e01b600052602160045260246000fd5b148015613e215750856001600160a01b0316826001600160a01b0316145b15613e3157600192505050610e42565b600080876001600160a01b0316631626ba7e60e01b8888604051602401613e59929190614f72565b60408051601f198184030181529181526020820180516001600160e01b03166001600160e01b0319909416939093179092529051613e979190614e07565b600060405180830381855afa9150503d8060008114613ed2576040519150601f19603f3d011682016040523d82523d6000602084013e613ed7565b606091505b5091509150818015613eea575080516020145b8015613f1157508051630b135d3f60e11b90613f0f9083016020908101908401614a4c565b145b98975050505050505050565b61dead6001600160a01b03831614801590613f4f57506001600160a01b03821660009081526101356020526040902054155b1561113c5761113c8282612f6e565b613f6883836128a3565b613f756000848484613f91565b610a785760405162461bcd60e51b8152600401610a5790615020565b60006001600160a01b0384163b1561409a57836001600160a01b031663150b7a02613fba612894565b8786866040518563ffffffff1660e01b8152600401613fdc9493929190614ecd565b602060405180830381600087803b158015613ff657600080fd5b505af1925050508015614026575060408051601f3d908101601f1916820190925261402391810190614a80565b60015b614080573d808015614054576040519150601f19603f3d011682016040523d82523d6000602084013e614059565b606091505b5080516140785760405162461bcd60e51b8152600401610a5790615020565b805181602001fd5b6001600160e01b031916630a85bd0160e11b149050610d36565b506001610d36565b6000808251604114156140d95760208301516040840151606085015160001a6140cd878285856140e8565b945094505050506140e1565b506000905060025b9250929050565b6000807f7fffffffffffffffffffffffffffffff5d576e7357a4501ddfe92f46681b20a083111561411f57506000905060036141cc565b8460ff16601b1415801561413757508460ff16601c14155b1561414857506000905060046141cc565b6040805160008082526020820180845289905260ff881692820192909252606081018690526080810185905260019060a0016020604051602081039080840390855afa15801561419c573d6000803e3d6000fd5b5050604051601f1901519150506001600160a01b0381166141c5576000600192509250506141cc565b9150600090505b94509492505050565b8280546141e1906152e8565b90600052602060002090601f0160209004810192826142035760008555614249565b82601f1061421c5782800160ff19823516178555614249565b82800160010185558215614249579182015b8281111561424957823582559160200191906001019061422e565b50613c689291506142c9565b828054614261906152e8565b90600052602060002090601f0160209004810192826142835760008555614249565b82601f1061429c57805160ff1916838001178555614249565b82800160010185558215614249579182015b828111156142495782518255916020019190600101906142ae565b5b80821115613c6857600081556001016142ca565b60006001600160401b038311156142f7576142f7615378565b61430a601f8401601f19166020016151c1565b905082815283838301111561431e57600080fd5b828260208301376000602084830101529392505050565b80356143408161538e565b919050565b60008083601f840112614356578182fd5b5081356001600160401b0381111561436c578182fd5b6020830191508360208260051b85010111156140e157600080fd5b8035801515811461434057600080fd5b60008083601f8401126143a8578182fd5b5081356001600160401b038111156143be578182fd5b6020830191508360208285010111156140e157600080fd5b600082601f8301126143e6578081fd5b610e42838335602085016142de565b600060208284031215614406578081fd5b8135610e428161538e565b600060208284031215614422578081fd5b8151610e428161538e565b6000806040838503121561443f578081fd5b823561444a8161538e565b9150602083013561445a8161538e565b809150509250929050565b600080600060608486031215614479578081fd5b83356144848161538e565b925060208401356144948161538e565b929592945050506040919091013590565b6000806000806000608086880312156144bc578081fd5b85356144c78161538e565b945060208601356144d78161538e565b93506040860135925060608601356001600160401b038111156144f8578182fd5b61450488828901614397565b969995985093965092949392505050565b6000806000806080858703121561452a578182fd5b84356145358161538e565b935060208501356145458161538e565b92506040850135915060608501356001600160401b03811115614566578182fd5b614572878288016143d6565b91505092959194509250565b60008060408385031215614590578182fd5b823561459b8161538e565b91506132e760208401614387565b6000806000604084860312156145bd578081fd5b83356145c88161538e565b925060208401356001600160401b038111156145e2578182fd5b6145ee86828701614397565b9497909650939450505050565b6000806040838503121561460d578182fd5b82356146188161538e565b946020939093013593505050565b6000806000806060858703121561463b578182fd5b84356146468161538e565b93506020850135925060408501356001600160401b03811115614667578283fd5b61467387828801614397565b95989497509550505050565b60008060008060008060008060a0898b03121561469a578586fd5b88356146a58161538e565b97506020890135965060408901356001600160401b03808211156146c7578788fd5b6146d38c838d01614397565b909850965060608b01359150808211156146eb578485fd5b6146f78c838d01614345565b909650945060808b013591508082111561470f578384fd5b5061471c8b828c01614345565b999c989b5096995094979396929594505050565b60008060008060008060008060008060c08b8d03121561474e578384fd5b6147578b614335565b995060208b0135985060408b01356001600160401b0380821115614779578586fd5b6147858e838f01614397565b909a50985060608d013591508082111561479d578586fd5b6147a98e838f01614345565b909850965060808d01359150808211156147c1578586fd5b6147cd8e838f01614345565b909650945060a08d01359150808211156147e5578384fd5b506147f28d828e01614397565b915080935050809150509295989b9194979a5092959850565b60008060008060008060808789031215614823578384fd5b863561482e8161538e565b95506020870135945060408701356001600160401b0380821115614850578586fd5b61485c8a838b01614397565b90965094506060890135915080821115614874578384fd5b5061488189828a01614397565b979a9699509497509295939492505050565b6000806000806000606086880312156148aa578283fd5b85356001600160401b03808211156148c0578485fd5b6148cc89838a01614345565b909750955060208801359150808211156148e4578485fd5b506148f188828901614345565b96999598509660400135949350505050565b600080600060408486031215614917578081fd5b83356001600160401b0381111561492c578182fd5b61493886828701614345565b909790965060209590950135949350505050565b6000806020838503121561495e578182fd5b82356001600160401b03811115614973578283fd5b61497f85828601614345565b90969095509350505050565b6000602080838503121561499d578182fd5b82356001600160401b03808211156149b3578384fd5b818501915085601f8301126149c6578384fd5b8135818111156149d8576149d8615378565b8060051b91506149e98483016151c1565b8181528481019084860184860187018a1015614a03578788fd5b8795505b83861015614a25578035835260019590950194918601918601614a07565b5098975050505050505050565b600060208284031215614a43578081fd5b610e4282614387565b600060208284031215614a5d578081fd5b5051919050565b600060208284031215614a75578081fd5b8135610e42816153a3565b600060208284031215614a91578081fd5b8151610e42816153a3565b60008060008060008060006080888a031215614ab6578081fd5b87356001600160401b0380821115614acc578283fd5b614ad88b838c01614397565b909950975060208a0135965060408a0135915080821115614af7578283fd5b614b038b838c01614345565b909650945060608a0135915080821115614b1b578283fd5b50614b288a828b01614345565b989b979a50959850939692959293505050565b60008060208385031215614b4d578182fd5b82356001600160401b03811115614b62578283fd5b61497f85828601614397565b600080600080600060608688031215614b85578283fd5b85356001600160401b0380821115614b9b578485fd5b614ba789838a01614397565b90975095506020880135915080821115614bbf578485fd5b506148f188828901614397565b600080600060408486031215614be0578081fd5b83356001600160401b03811115614bf5578182fd5b61493886828701614397565b600060208284031215614c12578081fd5b81356001600160401b03811115614c27578182fd5b8201601f81018413614c37578182fd5b610d36848235602084016142de565b600080600060408486031215614c5a578081fd5b83356001600160401b0380821115614c70578283fd5b9085019060808288031215614c83578283fd5b90935060208501359080821115614c98578283fd5b506145ee86828701614397565b600060208284031215614cb6578081fd5b5035919050565b600080600060408486031215614cd1578081fd5b8335925060208401356001600160401b038111156145e2578182fd5b60008060008060608587031215614d02578182fd5b8435935060208501356001600160401b03811115614d1e578283fd5b614d2a87828801614397565b9598909750949560400135949350505050565b60008060408385031215614d4f578182fd5b50508035926020909101359150565b600081518084526020808501808196508360051b81019150828601855b85811015614da5578284038952614d93848351614ddb565b98850198935090840190600101614d7b565b5091979650505050505050565b81835281816020850137506000828201602090810191909152601f909101601f19169091010190565b60008151808452614df38160208601602086016152bc565b601f01601f19169290920160200192915050565b60008251614e198184602087016152bc565b9190910192915050565b60008451614e358184602089016152bc565b60609490941b6bffffffffffffffffffffffff191691909301908152601481019190915260340192915050565b8183823760009101908152919050565b60008351614e848184602088016152bc565b835190830190614e988183602088016152bc565b01949350505050565b6001600160a01b03848116825283166020820152606060408201819052600090610bca90830184614ddb565b6001600160a01b03858116825284166020820152604081018390526080606082018190526000906136fd90830184614ddb565b602081526000610e426020830184614d5e565b604081526000614f266040830185614d5e565b8281036020840152610e3e8185614d5e565b6020808252810182905260006001600160fb1b03831115614f57578081fd5b8260051b808560408501379190910160400190815292915050565b828152604060208201526000610d366040830184614ddb565b602081526000610d36602083018486614db2565b602081526000610e426020830184614ddb565b604081526000614fc56040830185614ddb565b8281036020840152610e3e8185614ddb565b60208082526029908201527f52656769737472793a2053454e4445525f49535f4e4f545f415050524f5645446040820152682fa7a92fa7aba722a960b91b606082015260800190565b60208082526032908201527f4552433732313a207472616e7366657220746f206e6f6e20455243373231526560408201527131b2b4bb32b91034b6b83632b6b2b73a32b960711b606082015260800190565b60208082526027908201527f52656769737472793a2053454e4445525f49535f4e4f545f4d494e54494e475f60408201526626a0a720a3a2a960c91b606082015260800190565b60208082526017908201527f52656769737472793a20544f4b454e5f494e56414c4944000000000000000000604082015260600190565b6020808252602b908201527f496e697469616c697a61626c653a20636f6e7472616374206973206e6f74206960408201526a6e697469616c697a696e6760a81b606082015260800190565b60208082526022908201527f52656769737472793a20494e53554646494349454e545f5045524d495353494f6040820152614e5360f01b606082015260800190565b6000808335601e19843603018112615193578283fd5b8301803591506001600160401b038211156151ac578283fd5b6020019150368190038213156140e157600080fd5b604051601f8201601f191681016001600160401b03811182821017156151e9576151e9615378565b604052919050565b600082198211156152045761520461534c565b500190565b60008261521857615218615362565b500490565b60008282101561522f5761522f61534c565b500390565b600060808236031215615245578081fd5b604051608081016001600160401b03828210818311171561526857615268615378565b81604052843591506152798261538e565b818352602085013560208401526040850135604084015260608501359150808211156152a3578384fd5b506152b0368286016143d6565b60608301525092915050565b60005b838110156152d75781810151838201526020016152bf565b838111156117da5750506000910152565b600181811c908216806152fc57607f821691505b602082108114156116ec57634e487b7160e01b600052602260045260246000fd5b60006000198214156153315761533161534c565b5060010190565b60008261534757615347615362565b500690565b634e487b7160e01b600052601160045260246000fd5b634e487b7160e01b600052601260045260246000fd5b634e487b7160e01b600052604160045260246000fd5b6001600160a01b0381168114610fc357600080fd5b6001600160e01b031981168114610fc357600080fdfebe2bb46ac0377341a1ec5c3116d70fd5029d704bd46292e58f6265dd177ebafea164736f6c6343000804000a",
  "linkReferences": {},
  "deployedLinkReferences": {}
}