{
  "_format": "hh-sol-artifact-1",
  "contractName": "UNSRegistry",
  "sourceName": "contracts/UNSRegistry.sol",
  "abi": [
    {
      "anonymous": false,
      "inputs": [
        {
          "indexed": false,
          "internalType": "address",
          "name": "previousAdmin",
          "type": "address"
        },
        {
          "indexed": false,
          "internalType": "address",
          "name": "newAdmin",
          "type": "address"
        }
      ],
      "name": "AdminChanged",
      "type": "event"
    },
    {
      "anonymous": false,
      "inputs": [
        {
          "indexed": true,
          "internalType": "address",
          "name": "owner",
          "type": "address"
        },
        {
          "indexed": true,
          "internalType": "address",
          "name": "approved",
          "type": "address"
        },
        {
          "indexed": true,
          "internalType": "uint256",
          "name": "tokenId",
          "type": "uint256"
        }
      ],
      "name": "Approval",
      "type": "event"
    },
    {
      "anonymous": false,
      "inputs": [
        {
          "indexed": true,
          "internalType": "address",
          "name": "owner",
          "type": "address"
        },
        {
          "indexed": true,
          "internalType": "address",
          "name": "operator",
          "type": "address"
        },
        {
          "indexed": false,
          "internalType": "bool",
          "name": "approved",
          "type": "bool"
        }
      ],
      "name": "ApprovalForAll",
      "type": "event"
    },
    {
      "anonymous": false,
      "inputs": [
        {
          "indexed": true,
          "internalType": "uint256",
          "name": "tokenId",
          "type": "uint256"
        },
        {
          "indexed": true,
          "internalType": "string",
          "name": "keyIndex",
          "type": "string"
        },
        {
          "indexed": false,
          "internalType": "string",
          "name": "key",
          "type": "string"
        }
      ],
      "name": "NewKey",
      "type": "event"
    },
    {
      "anonymous": false,
      "inputs": [
        {
          "indexed": true,
          "internalType": "uint256",
          "name": "tokenId",
          "type": "uint256"
        },
        {
          "indexed": false,
          "internalType": "string",
          "name": "uri",
          "type": "string"
        }
      ],
      "name": "NewURI",
      "type": "event"
    },
    {
      "anonymous": false,
      "inputs": [
        {
          "indexed": false,
          "internalType": "string",
          "name": "prefix",
          "type": "string"
        }
      ],
      "name": "NewURIPrefix",
      "type": "event"
    },
    {
      "anonymous": false,
      "inputs": [
        {
          "indexed": true,
          "internalType": "uint256",
          "name": "tokenId",
          "type": "uint256"
        }
      ],
      "name": "ResetRecords",
      "type": "event"
    },
    {
      "anonymous": false,
      "inputs": [
        {
          "indexed": true,
          "internalType": "uint256",
          "name": "tokenId",
          "type": "uint256"
        },
        {
          "indexed": true,
          "internalType": "string",
          "name": "keyIndex",
          "type": "string"
        },
        {
          "indexed": true,
          "internalType": "string",
          "name": "valueIndex",
          "type": "string"
        },
        {
          "indexed": false,
          "internalType": "string",
          "name": "key",
          "type": "string"
        },
        {
          "indexed": false,
          "internalType": "string",
          "name": "value",
          "type": "string"
        }
      ],
      "name": "Set",
      "type": "event"
    },
    {
      "anonymous": false,
      "inputs": [
        {
          "indexed": true,
          "internalType": "address",
          "name": "from",
          "type": "address"
        },
        {
          "indexed": true,
          "internalType": "address",
          "name": "to",
          "type": "address"
        },
        {
          "indexed": true,
          "internalType": "uint256",
          "name": "tokenId",
          "type": "uint256"
        }
      ],
      "name": "Transfer",
      "type": "event"
    },
    {
      "anonymous": false,
      "inputs": [
        {
          "indexed": true,
          "internalType": "address",
          "name": "implementation",
          "type": "address"
        }
      ],
      "name": "Upgraded",
      "type": "event"
    },
    {
      "inputs": [],
      "name": "NAME",
      "outputs": [
        {
          "internalType": "string",
          "name": "",
          "type": "string"
        }
      ],
      "stateMutability": "view",
      "type": "function"
    },
    {
      "inputs": [],
      "name": "VERSION",
      "outputs": [
        {
          "internalType": "string",
          "name": "",
          "type": "string"
        }
      ],
      "stateMutability": "view",
      "type": "function"
    },
    {
      "inputs": [
        {
          "internalType": "string",
          "name": "key",
          "type": "string"
        }
      ],
      "name": "addKey",
      "outputs": [],
      "stateMutability": "nonpayable",
      "type": "function"
    },
    {
      "inputs": [
        {
          "internalType": "address",
          "name": "to",
          "type": "address"
        },
        {
          "internalType": "uint256",
          "name": "tokenId",
          "type": "uint256"
        }
      ],
      "name": "approve",
      "outputs": [],
      "stateMutability": "nonpayable",
      "type": "function"
    },
    {
      "inputs": [
        {
          "internalType": "address",
          "name": "owner",
          "type": "address"
        }
      ],
      "name": "balanceOf",
      "outputs": [
        {
          "internalType": "uint256",
          "name": "",
          "type": "uint256"
        }
      ],
      "stateMutability": "view",
      "type": "function"
    },
    {
      "inputs": [
        {
          "internalType": "uint256",
          "name": "tokenId",
          "type": "uint256"
        }
      ],
      "name": "burn",
      "outputs": [],
      "stateMutability": "nonpayable",
      "type": "function"
    },
    {
      "inputs": [
        {
          "internalType": "uint256",
          "name": "tokenId",
          "type": "uint256"
        },
        {
          "internalType": "bytes",
          "name": "signature",
          "type": "bytes"
        }
      ],
      "name": "burnFor",
      "outputs": [],
      "stateMutability": "nonpayable",
      "type": "function"
    },
    {
      "inputs": [
        {
          "internalType": "uint256",
          "name": "tokenId",
          "type": "uint256"
        },
        {
          "internalType": "string",
          "name": "label",
          "type": "string"
        }
      ],
      "name": "childIdOf",
      "outputs": [
        {
          "internalType": "uint256",
          "name": "",
          "type": "uint256"
        }
      ],
      "stateMutability": "pure",
      "type": "function"
    },
    {
      "inputs": [
        {
          "components": [
            {
              "internalType": "address",
              "name": "from",
              "type": "address"
            },
            {
              "internalType": "uint256",
              "name": "nonce",
              "type": "uint256"
            },
            {
              "internalType": "uint256",
              "name": "tokenId",
              "type": "uint256"
            },
            {
              "internalType": "bytes",
              "name": "data",
              "type": "bytes"
            }
          ],
          "internalType": "struct IForwarder.ForwardRequest",
          "name": "req",
          "type": "tuple"
        },
        {
          "internalType": "bytes",
          "name": "signature",
          "type": "bytes"
        }
      ],
      "name": "execute",
      "outputs": [
        {
          "internalType": "bytes",
          "name": "",
          "type": "bytes"
        }
      ],
      "stateMutability": "nonpayable",
      "type": "function"
    },
    {
      "inputs": [
        {
          "internalType": "uint256",
          "name": "tokenId",
          "type": "uint256"
        }
      ],
      "name": "exists",
      "outputs": [
        {
          "internalType": "bool",
          "name": "",
          "type": "bool"
        }
      ],
      "stateMutability": "view",
      "type": "function"
    },
    {
      "inputs": [
        {
          "internalType": "string",
          "name": "key",
          "type": "string"
        },
        {
          "internalType": "uint256",
          "name": "tokenId",
          "type": "uint256"
        }
      ],
      "name": "get",
      "outputs": [
        {
          "internalType": "string",
          "name": "value",
          "type": "string"
        }
      ],
      "stateMutability": "view",
      "type": "function"
    },
    {
      "inputs": [
        {
          "internalType": "uint256",
          "name": "tokenId",
          "type": "uint256"
        }
      ],
      "name": "getApproved",
      "outputs": [
        {
          "internalType": "address",
          "name": "",
          "type": "address"
        }
      ],
      "stateMutability": "view",
      "type": "function"
    },
    {
      "inputs": [
        {
          "internalType": "uint256",
          "name": "keyHash",
          "type": "uint256"
        },
        {
          "internalType": "uint256",
          "name": "tokenId",
          "type": "uint256"
        }
      ],
      "name": "getByHash",
      "outputs": [
        {
          "internalType": "string",
          "name": "key",
          "type": "string"
        },
        {
          "internalType": "string",
          "name": "value",
          "type": "string"
        }
      ],
      "stateMutability": "view",
      "type": "function"
    },
    {
      "inputs": [
        {
          "internalType": "uint256",
          "name": "keyHash",
          "type": "uint256"
        }
      ],
      "name": "getKey",
      "outputs": [
        {
          "internalType": "string",
          "name": "",
          "type": "string"
        }
      ],
      "stateMutability": "view",
      "type": "function"
    },
    {
      "inputs": [
        {
          "internalType": "uint256[]",
          "name": "hashes",
          "type": "uint256[]"
        }
      ],
      "name": "getKeys",
      "outputs": [
        {
          "internalType": "string[]",
          "name": "values",
          "type": "string[]"
        }
      ],
      "stateMutability": "view",
      "type": "function"
    },
    {
      "inputs": [
        {
          "internalType": "string[]",
          "name": "keys",
          "type": "string[]"
        },
        {
          "internalType": "uint256",
          "name": "tokenId",
          "type": "uint256"
        }
      ],
      "name": "getMany",
      "outputs": [
        {
          "internalType": "string[]",
          "name": "values",
          "type": "string[]"
        }
      ],
      "stateMutability": "view",
      "type": "function"
    },
    {
      "inputs": [
        {
          "internalType": "uint256[]",
          "name": "keyHashes",
          "type": "uint256[]"
        },
        {
          "internalType": "uint256",
          "name": "tokenId",
          "type": "uint256"
        }
      ],
      "name": "getManyByHash",
      "outputs": [
        {
          "internalType": "string[]",
          "name": "keys",
          "type": "string[]"
        },
        {
          "internalType": "string[]",
          "name": "values",
          "type": "string[]"
        }
      ],
      "stateMutability": "view",
      "type": "function"
    },
    {
      "inputs": [
        {
          "internalType": "address",
          "name": "mintingManager",
          "type": "address"
        }
      ],
      "name": "initialize",
      "outputs": [],
      "stateMutability": "nonpayable",
      "type": "function"
    },
    {
      "inputs": [
        {
          "internalType": "address",
          "name": "owner",
          "type": "address"
        },
        {
          "internalType": "address",
          "name": "operator",
          "type": "address"
        }
      ],
      "name": "isApprovedForAll",
      "outputs": [
        {
          "internalType": "bool",
          "name": "",
          "type": "bool"
        }
      ],
      "stateMutability": "view",
      "type": "function"
    },
    {
      "inputs": [
        {
          "internalType": "address",
          "name": "spender",
          "type": "address"
        },
        {
          "internalType": "uint256",
          "name": "tokenId",
          "type": "uint256"
        }
      ],
      "name": "isApprovedOrOwner",
      "outputs": [
        {
          "internalType": "bool",
          "name": "",
          "type": "bool"
        }
      ],
      "stateMutability": "view",
      "type": "function"
    },
    {
      "inputs": [
        {
          "internalType": "address",
          "name": "forwarder",
          "type": "address"
        }
      ],
      "name": "isTrustedForwarder",
      "outputs": [
        {
          "internalType": "bool",
          "name": "",
          "type": "bool"
        }
      ],
      "stateMutability": "view",
      "type": "function"
    },
    {
      "inputs": [
        {
          "internalType": "address",
          "name": "to",
          "type": "address"
        },
        {
          "internalType": "uint256",
          "name": "tokenId",
          "type": "uint256"
        },
        {
          "internalType": "string",
          "name": "uri",
          "type": "string"
        }
      ],
      "name": "mint",
      "outputs": [],
      "stateMutability": "nonpayable",
      "type": "function"
    },
    {
      "inputs": [
        {
          "internalType": "address",
          "name": "to",
          "type": "address"
        },
        {
          "internalType": "uint256",
          "name": "tokenId",
          "type": "uint256"
        },
        {
          "internalType": "string",
          "name": "uri",
          "type": "string"
        },
        {
          "internalType": "string[]",
          "name": "keys",
          "type": "string[]"
        },
        {
          "internalType": "string[]",
          "name": "values",
          "type": "string[]"
        }
      ],
      "name": "mintWithRecords",
      "outputs": [],
      "stateMutability": "nonpayable",
      "type": "function"
    },
    {
      "inputs": [],
      "name": "name",
      "outputs": [
        {
          "internalType": "string",
          "name": "",
          "type": "string"
        }
      ],
      "stateMutability": "view",
      "type": "function"
    },
    {
      "inputs": [
        {
          "internalType": "uint256",
          "name": "tokenId",
          "type": "uint256"
        }
      ],
      "name": "nonceOf",
      "outputs": [
        {
          "internalType": "uint256",
          "name": "",
          "type": "uint256"
        }
      ],
      "stateMutability": "view",
      "type": "function"
    },
    {
      "inputs": [
        {
          "internalType": "uint256",
          "name": "tokenId",
          "type": "uint256"
        }
      ],
      "name": "ownerOf",
      "outputs": [
        {
          "internalType": "address",
          "name": "",
          "type": "address"
        }
      ],
      "stateMutability": "view",
      "type": "function"
    },
    {
      "inputs": [
        {
          "internalType": "string[]",
          "name": "keys",
          "type": "string[]"
        },
        {
          "internalType": "string[]",
          "name": "values",
          "type": "string[]"
        },
        {
          "internalType": "uint256",
          "name": "tokenId",
          "type": "uint256"
        }
      ],
      "name": "reconfigure",
      "outputs": [],
      "stateMutability": "nonpayable",
      "type": "function"
    },
    {
      "inputs": [
        {
          "internalType": "string[]",
          "name": "keys",
          "type": "string[]"
        },
        {
          "internalType": "string[]",
          "name": "values",
          "type": "string[]"
        },
        {
          "internalType": "uint256",
          "name": "tokenId",
          "type": "uint256"
        },
        {
          "internalType": "bytes",
          "name": "signature",
          "type": "bytes"
        }
      ],
      "name": "reconfigureFor",
      "outputs": [],
      "stateMutability": "nonpayable",
      "type": "function"
    },
    {
      "inputs": [
        {
          "internalType": "uint256",
          "name": "tokenId",
          "type": "uint256"
        }
      ],
      "name": "reset",
      "outputs": [],
      "stateMutability": "nonpayable",
      "type": "function"
    },
    {
      "inputs": [
        {
          "internalType": "uint256",
          "name": "tokenId",
          "type": "uint256"
        },
        {
          "internalType": "bytes",
          "name": "signature",
          "type": "bytes"
        }
      ],
      "name": "resetFor",
      "outputs": [],
      "stateMutability": "nonpayable",
      "type": "function"
    },
    {
      "inputs": [
        {
          "internalType": "uint256",
          "name": "tokenId",
          "type": "uint256"
        }
      ],
      "name": "resolverOf",
      "outputs": [
        {
          "internalType": "address",
          "name": "",
          "type": "address"
        }
      ],
      "stateMutability": "view",
      "type": "function"
    },
    {
      "inputs": [],
      "name": "root",
      "outputs": [
        {
          "internalType": "uint256",
          "name": "",
          "type": "uint256"
        }
      ],
      "stateMutability": "pure",
      "type": "function"
    },
    {
      "inputs": [
        {
          "internalType": "address",
          "name": "to",
          "type": "address"
        },
        {
          "internalType": "uint256",
          "name": "tokenId",
          "type": "uint256"
        },
        {
          "internalType": "string",
          "name": "uri",
          "type": "string"
        },
        {
          "internalType": "bytes",
          "name": "data",
          "type": "bytes"
        }
      ],
      "name": "safeMint",
      "outputs": [],
      "stateMutability": "nonpayable",
      "type": "function"
    },
    {
      "inputs": [
        {
          "internalType": "address",
          "name": "to",
          "type": "address"
        },
        {
          "internalType": "uint256",
          "name": "tokenId",
          "type": "uint256"
        },
        {
          "internalType": "string",
          "name": "uri",
          "type": "string"
        }
      ],
      "name": "safeMint",
      "outputs": [],
      "stateMutability": "nonpayable",
      "type": "function"
    },
    {
      "inputs": [
        {
          "internalType": "address",
          "name": "to",
          "type": "address"
        },
        {
          "internalType": "uint256",
          "name": "tokenId",
          "type": "uint256"
        },
        {
          "internalType": "string",
          "name": "uri",
          "type": "string"
        },
        {
          "internalType": "string[]",
          "name": "keys",
          "type": "string[]"
        },
        {
          "internalType": "string[]",
          "name": "values",
          "type": "string[]"
        }
      ],
      "name": "safeMintWithRecords",
      "outputs": [],
      "stateMutability": "nonpayable",
      "type": "function"
    },
    {
      "inputs": [
        {
          "internalType": "address",
          "name": "to",
          "type": "address"
        },
        {
          "internalType": "uint256",
          "name": "tokenId",
          "type": "uint256"
        },
        {
          "internalType": "string",
          "name": "uri",
          "type": "string"
        },
        {
          "internalType": "string[]",
          "name": "keys",
          "type": "string[]"
        },
        {
          "internalType": "string[]",
          "name": "values",
          "type": "string[]"
        },
        {
          "internalType": "bytes",
          "name": "data",
          "type": "bytes"
        }
      ],
      "name": "safeMintWithRecords",
      "outputs": [],
      "stateMutability": "nonpayable",
      "type": "function"
    },
    {
      "inputs": [
        {
          "internalType": "address",
          "name": "from",
          "type": "address"
        },
        {
          "internalType": "address",
          "name": "to",
          "type": "address"
        },
        {
          "internalType": "uint256",
          "name": "tokenId",
          "type": "uint256"
        }
      ],
      "name": "safeTransferFrom",
      "outputs": [],
      "stateMutability": "nonpayable",
      "type": "function"
    },
    {
      "inputs": [
        {
          "internalType": "address",
          "name": "from",
          "type": "address"
        },
        {
          "internalType": "address",
          "name": "to",
          "type": "address"
        },
        {
          "internalType": "uint256",
          "name": "tokenId",
          "type": "uint256"
        },
        {
          "internalType": "bytes",
          "name": "data",
          "type": "bytes"
        }
      ],
      "name": "safeTransferFrom",
      "outputs": [],
      "stateMutability": "nonpayable",
      "type": "function"
    },
    {
      "inputs": [
        {
          "internalType": "address",
          "name": "from",
          "type": "address"
        },
        {
          "internalType": "address",
          "name": "to",
          "type": "address"
        },
        {
          "internalType": "uint256",
          "name": "tokenId",
          "type": "uint256"
        },
        {
          "internalType": "bytes",
          "name": "data",
          "type": "bytes"
        },
        {
          "internalType": "bytes",
          "name": "signature",
          "type": "bytes"
        }
      ],
      "name": "safeTransferFromFor",
      "outputs": [],
      "stateMutability": "nonpayable",
      "type": "function"
    },
    {
      "inputs": [
        {
          "internalType": "address",
          "name": "from",
          "type": "address"
        },
        {
          "internalType": "address",
          "name": "to",
          "type": "address"
        },
        {
          "internalType": "uint256",
          "name": "tokenId",
          "type": "uint256"
        },
        {
          "internalType": "bytes",
          "name": "signature",
          "type": "bytes"
        }
      ],
      "name": "safeTransferFromFor",
      "outputs": [],
      "stateMutability": "nonpayable",
      "type": "function"
    },
    {
      "inputs": [
        {
          "internalType": "string",
          "name": "key",
          "type": "string"
        },
        {
          "internalType": "string",
          "name": "value",
          "type": "string"
        },
        {
          "internalType": "uint256",
          "name": "tokenId",
          "type": "uint256"
        }
      ],
      "name": "set",
      "outputs": [],
      "stateMutability": "nonpayable",
      "type": "function"
    },
    {
      "inputs": [
        {
          "internalType": "address",
          "name": "operator",
          "type": "address"
        },
        {
          "internalType": "bool",
          "name": "approved",
          "type": "bool"
        }
      ],
      "name": "setApprovalForAll",
      "outputs": [],
      "stateMutability": "nonpayable",
      "type": "function"
    },
    {
      "inputs": [
        {
          "internalType": "uint256",
          "name": "keyHash",
          "type": "uint256"
        },
        {
          "internalType": "string",
          "name": "value",
          "type": "string"
        },
        {
          "internalType": "uint256",
          "name": "tokenId",
          "type": "uint256"
        }
      ],
      "name": "setByHash",
      "outputs": [],
      "stateMutability": "nonpayable",
      "type": "function"
    },
    {
      "inputs": [
        {
          "internalType": "string",
          "name": "key",
          "type": "string"
        },
        {
          "internalType": "string",
          "name": "value",
          "type": "string"
        },
        {
          "internalType": "uint256",
          "name": "tokenId",
          "type": "uint256"
        },
        {
          "internalType": "bytes",
          "name": "signature",
          "type": "bytes"
        }
      ],
      "name": "setFor",
      "outputs": [],
      "stateMutability": "nonpayable",
      "type": "function"
    },
    {
      "inputs": [
        {
          "internalType": "string[]",
          "name": "keys",
          "type": "string[]"
        },
        {
          "internalType": "string[]",
          "name": "values",
          "type": "string[]"
        },
        {
          "internalType": "uint256",
          "name": "tokenId",
          "type": "uint256"
        }
      ],
      "name": "setMany",
      "outputs": [],
      "stateMutability": "nonpayable",
      "type": "function"
    },
    {
      "inputs": [
        {
          "internalType": "uint256[]",
          "name": "keyHashes",
          "type": "uint256[]"
        },
        {
          "internalType": "string[]",
          "name": "values",
          "type": "string[]"
        },
        {
          "internalType": "uint256",
          "name": "tokenId",
          "type": "uint256"
        }
      ],
      "name": "setManyByHash",
      "outputs": [],
      "stateMutability": "nonpayable",
      "type": "function"
    },
    {
      "inputs": [
        {
          "internalType": "string[]",
          "name": "keys",
          "type": "string[]"
        },
        {
          "internalType": "string[]",
          "name": "values",
          "type": "string[]"
        },
        {
          "internalType": "uint256",
          "name": "tokenId",
          "type": "uint256"
        },
        {
          "internalType": "bytes",
          "name": "signature",
          "type": "bytes"
        }
      ],
      "name": "setManyFor",
      "outputs": [],
      "stateMutability": "nonpayable",
      "type": "function"
    },
    {
      "inputs": [
        {
          "internalType": "address",
          "name": "to",
          "type": "address"
        },
        {
          "internalType": "uint256",
          "name": "tokenId",
          "type": "uint256"
        }
      ],
      "name": "setOwner",
      "outputs": [],
      "stateMutability": "nonpayable",
      "type": "function"
    },
    {
      "inputs": [
        {
          "internalType": "string",
          "name": "prefix",
          "type": "string"
        }
      ],
      "name": "setTokenURIPrefix",
      "outputs": [],
      "stateMutability": "nonpayable",
      "type": "function"
    },
    {
      "inputs": [
        {
          "internalType": "bytes4",
          "name": "interfaceId",
          "type": "bytes4"
        }
      ],
      "name": "supportsInterface",
      "outputs": [
        {
          "internalType": "bool",
          "name": "",
          "type": "bool"
        }
      ],
      "stateMutability": "view",
      "type": "function"
    },
    {
      "inputs": [],
      "name": "symbol",
      "outputs": [
        {
          "internalType": "string",
          "name": "",
          "type": "string"
        }
      ],
      "stateMutability": "view",
      "type": "function"
    },
    {
      "inputs": [
        {
          "internalType": "uint256",
          "name": "tokenId",
          "type": "uint256"
        }
      ],
      "name": "tokenURI",
      "outputs": [
        {
          "internalType": "string",
          "name": "",
          "type": "string"
        }
      ],
      "stateMutability": "view",
      "type": "function"
    },
    {
      "inputs": [
        {
          "internalType": "address",
          "name": "from",
          "type": "address"
        },
        {
          "internalType": "address",
          "name": "to",
          "type": "address"
        },
        {
          "internalType": "uint256",
          "name": "tokenId",
          "type": "uint256"
        }
      ],
      "name": "transferFrom",
      "outputs": [],
      "stateMutability": "nonpayable",
      "type": "function"
    },
    {
      "inputs": [
        {
          "internalType": "address",
          "name": "from",
          "type": "address"
        },
        {
          "internalType": "address",
          "name": "to",
          "type": "address"
        },
        {
          "internalType": "uint256",
          "name": "tokenId",
          "type": "uint256"
        },
        {
          "internalType": "bytes",
          "name": "signature",
          "type": "bytes"
        }
      ],
      "name": "transferFromFor",
      "outputs": [],
      "stateMutability": "nonpayable",
      "type": "function"
    },
    {
      "inputs": [
        {
          "components": [
            {
              "internalType": "address",
              "name": "from",
              "type": "address"
            },
            {
              "internalType": "uint256",
              "name": "nonce",
              "type": "uint256"
            },
            {
              "internalType": "uint256",
              "name": "tokenId",
              "type": "uint256"
            },
            {
              "internalType": "bytes",
              "name": "data",
              "type": "bytes"
            }
          ],
          "internalType": "struct IForwarder.ForwardRequest",
          "name": "req",
          "type": "tuple"
        },
        {
          "internalType": "bytes",
          "name": "signature",
          "type": "bytes"
        }
      ],
      "name": "verify",
      "outputs": [
        {
          "internalType": "bool",
          "name": "",
          "type": "bool"
        }
      ],
      "stateMutability": "view",
      "type": "function"
    }
  ],
  "bytecode": "0x608060405234801561001057600080fd5b50614913806100206000396000f3fe608060405234801561001057600080fd5b506004361061035d5760003560e01c80638f69c188116101d3578063bb5b27e111610104578063e985e9c5116100a2578063ef2c30881161007c578063ef2c308814610767578063efda4d3e1461077a578063f5c1f76e1461078d578063ffa1ad74146107a05761035d565b8063e985e9c514610739578063ebf0c7171461074c578063ec129eea146107545761035d565b8063c87b56dd116100de578063c87b56dd146106ed578063cd279c7c14610700578063ce92b33e14610713578063d3fc9864146107265761035d565b8063bb5b27e1146106b4578063c4d66de8146106c7578063c5974073146106da5761035d565b8063ab3b87fe11610171578063b55bc6171161014b578063b55bc6171461065a578063b85afd281461066d578063b87abc111461068e578063b88d4fde146106a15761035d565b8063ab3b87fe14610621578063b0f5917714610634578063b3f9e4cb146106475761035d565b8063a22cb465116101ad578063a22cb465146105e0578063a3557e6c146105f3578063a3f4df7e14610606578063a42474001461060e5761035d565b80638f69c188146105b257806395d89b41146105c557806399e0dd7c146105cd5761035d565b8063430c2081116102ad57806361603dd91161024b57806368b62d321161022557806368b62d32146105595780636ccbae5f146105795780636debcb8d1461058c57806370a082311461059f5761035d565b806361603dd9146105125780636352211e14610525578063672b9f81146105385761035d565b80634a72584d116102875780634a72584d146104c65780634f558e79146104d957806350382c1a146104ec578063572b6c05146104ff5761035d565b8063430c20811461048d5780634348b562146104a057806347c81699146104b35761035d565b80631bf7e13e1161031a578063280d9b05116102f4578063280d9b0514610441578063310bd74b1461045457806342842e0e1461046757806342966c681461047a5761035d565b80631bf7e13e1461040857806323b872dd1461041b57806327f189751461042e5761035d565b806301ffc9a71461036257806306fdde031461038b578063081812fc146103a0578063095ea7b3146103c05780631bd8cc1a146103d55780631be5e7ed146103f5575b600080fd5b6103756103703660046139c2565b6107a8565b6040516103829190613ffb565b60405180910390f35b6103936107bb565b6040516103829190614024565b6103b36103ae366004613bd1565b61084e565b6040516103829190613edf565b6103d36103ce3660046135bb565b61089a565b005b6103e86103e336600461393a565b6108ec565b6040516103829190613fc3565b610393610403366004613aeb565b610a0c565b610393610416366004613b65565b610a57565b6103d36104293660046133de565b610b22565b6103d361043c36600461384b565b610bae565b6103d361044f366004613485565b610c2f565b6103d3610462366004613bd1565b610ccb565b6103d36104753660046133de565b610d3f565b6103d3610488366004613bd1565b610d5a565b61037561049b3660046135bb565b610dd7565b6103d36104ae36600461363b565b610de3565b6103d36104c1366004613a2d565b610e48565b6103d36104d4366004613c3d565b610ec0565b6103756104e7366004613bd1565b610f3f565b6103d36104fa366004613b20565b610f4a565b61037561050d36600461339b565b610f80565b6103d3610520366004613c01565b610f91565b6103b3610533366004613bd1565b61101a565b61054b610546366004613c8d565b61104f565b604051610382929190614072565b61056c610567366004613c01565b611067565b6040516103829190613ec8565b61056c610587366004613bd1565b6110a9565b6103d361059a366004613419565b6110bc565b61056c6105ad36600461339b565b6110de565b6103d36105c03660046138bb565b611122565b610393611148565b6103d36105db3660046139fa565b611157565b6103d36105ee366004613581565b6111dd565b6103d36106013660046138bb565b6112ab565b6103936112d1565b61037561061c366004613b65565b6112fa565b6103d361062f3660046135bb565b611345565b6103d361064236600461363b565b6113c9565b6103b3610655366004613bd1565b611452565b6103d36106683660046137c5565b61146f565b61068061067b36600461393a565b61151f565b604051610382929190613fd6565b6103d361069c366004613c01565b611687565b6103d36106af36600461351c565b6116a5565b6103936106c2366004613bd1565b611725565b6103d36106d536600461339b565b6117c7565b6103d36106e8366004613a8b565b6118b5565b6103936106fb366004613bd1565b6118db565b6103d361070e3660046135e4565b61195d565b6103d361072136600461384b565b6119e7565b6103d36107343660046135e4565b611a5f565b6103756107473660046133b5565b611adb565b61056c611b09565b6103d361076236600461384b565b611b0e565b6103d3610775366004613419565b611b86565b6103d36107883660046136ea565b611ba8565b6103e861079b366004613983565b611c36565b610393611d13565b60006107b382611d34565b90505b919050565b6060606580546107ca9061481b565b80601f01602080910402602001604051908101604052809291908181526020018280546107f69061481b565b80156108435780601f1061081857610100808354040283529160200191610843565b820191906000526020600020905b81548152906001019060200180831161082657829003601f168201915b505050505090505b90565b600061085982611d74565b61087e5760405162461bcd60e51b81526004016108759061454a565b60405180910390fd5b506000908152606960205260409020546001600160a01b031690565b806108a433610f80565b156108d4576108b1611d91565b81146108cf5760405162461bcd60e51b81526004016108759061435e565b6108dd565b6108dd81611dab565b6108e78383611dd9565b505050565b6060826001600160401b0381111561091457634e487b7160e01b600052604160045260246000fd5b60405190808252806020026020018201604052801561094757816020015b60608152602001906001900390816109325790505b50905060005b83811015610a04576109c685858381811061097857634e487b7160e01b600052603260045260246000fd5b905060200281019061098a91906146e5565b8080601f016020809104026020016040519081016040528093929190818152602001838380828437600092019190915250879250611e6c915050565b8282815181106109e657634e487b7160e01b600052603260045260246000fd5b602002602001018190525080806109fc90614856565b91505061094d565b509392505050565b6060610a4f84848080601f016020809104026020016040519081016040528093929190818152602001838380828437600092019190915250869250611e6c915050565b949350505050565b606060005a9050610a698585856112fa565b610a855760405162461bcd60e51b81526004016108759061462e565b610b17610a95602087018761339b565b30604088013584610aa960608b018b6146e5565b8080601f01602080910402602001604051908101604052809392919081815260200183838082843760009201919091525050604080516020601f8e018190048102820181019092528c815292508c91508b9081908401838280828437600092019190915250611ea192505050565b9150505b9392505050565b80610b34610b2e611f90565b82611f9f565b610b505760405162461bcd60e51b815260040161087590614105565b81610b5a33610f80565b15610b8a57610b67611d91565b8114610b855760405162461bcd60e51b81526004016108759061435e565b610b93565b610b9381611dab565b610b9c8361201c565b610ba7858585612087565b5050505050565b80610bba610b2e611f90565b610bd65760405162461bcd60e51b815260040161087590614105565b81610be033610f80565b15610c1057610bed611d91565b8114610c0b5760405162461bcd60e51b81526004016108759061435e565b610c19565b610c1981611dab565b610c2687878787876121b4565b50505050505050565b60005a9050610cc063b88d4fde8989898989604051602401610c55959493929190613f17565b6040516020818303038152906040529060e01b6020820180516001600160e01b0383818316178352505050508785858080601f016020809104026020016040519081016040528093929190818152602001838380828437600092019190915250879250612233915050565b505050505050505050565b80610cd7610b2e611f90565b610cf35760405162461bcd60e51b815260040161087590614105565b81610cfd33610f80565b15610d2d57610d0a611d91565b8114610d285760405162461bcd60e51b81526004016108759061435e565b610d36565b610d3681611dab565b6108e78361201c565b6108e7838383604051806020016040528060008152506116a5565b80610d66610b2e611f90565b610d825760405162461bcd60e51b815260040161087590614105565b81610d8c33610f80565b15610dbc57610d99611d91565b8114610db75760405162461bcd60e51b81526004016108759061435e565b610dc5565b610dc581611dab565b610dce8361201c565b6108e783612278565b6000610b1b8383611f9f565b610134546001600160a01b0316610df8611f90565b6001600160a01b031614610e1e5760405162461bcd60e51b8152600401610875906142cb565b610e3e88888888888888886040518060200160405280600081525061231f565b5050505050505050565b80610e54610b2e611f90565b610e705760405162461bcd60e51b815260040161087590614105565b81610e7a33610f80565b15610eaa57610e87611d91565b8114610ea55760405162461bcd60e51b81526004016108759061435e565b610eb3565b610eb381611dab565b610c26878787878761236f565b80610ecc610b2e611f90565b610ee85760405162461bcd60e51b815260040161087590614105565b81610ef233610f80565b15610f2257610eff611d91565b8114610f1d5760405162461bcd60e51b81526004016108759061435e565b610f2b565b610f2b81611dab565b610f378686868661244e565b505050505050565b60006107b382611d74565b610f7d81604051602001610f5e9190613dfd565b6040516020818303038152906040528051906020012060001c826124be565b50565b6001600160a01b0381163014919050565b60005a9050610ba76342966c6885604051602401610faf9190613ec8565b6040516020818303038152906040529060e01b6020820180516001600160e01b0383818316178352505050508585858080601f016020809104026020016040519081016040528093929190818152602001838380828437600092019190915250879250612233915050565b6000818152606760205260408120546001600160a01b0316806107b35760405162461bcd60e51b81526004016108759061443c565b60608061105c84846124ea565b909590945092505050565b6000610a4f8484848080601f01602080910402602001604051908101604052809392919081815260200183838082843760009201919091525061250b92505050565b6000908152610100602052604090205490565b60005a9050610c266342842e0e878787604051602401610faf93929190613ef3565b60006001600160a01b0382166111065760405162461bcd60e51b8152600401610875906143f2565b506001600160a01b031660009081526068602052604090205490565b60005a9050610cc063ce92b33e8989898989604051602401610faf959493929190613f89565b6060606680546107ca9061481b565b610134546001600160a01b031661116c611f90565b6001600160a01b0316146111925760405162461bcd60e51b8152600401610875906142cb565b61119f6101338383613166565b507f4b120d6a959a84a520fa48f5f937cca0e79129423487af7901213b5d2e89313b82826040516111d1929190614037565b60405180910390a15050565b6111e5611f90565b6001600160a01b0316826001600160a01b031614156112165760405162461bcd60e51b815260040161087590614252565b80606a6000611223611f90565b6001600160a01b03908116825260208083019390935260409182016000908120918716808252919093529120805460ff191692151592909217909155611267611f90565b6001600160a01b03167f17307eab39ab6107e8899845ad3d59bd9653f200f220920489ca2b5937696c318360405161129f9190613ffb565b60405180910390a35050565b60005a9050610cc063ec129eea8989898989604051602401610faf959493929190613f89565b6040518060400160405280600d81526020016c554e533a20526567697374727960981b81525081565b6000610a4f6113088561476c565b3085858080601f01602080910402602001604051908101604052809392919081815260200183838082843760009201919091525061258792505050565b80611351610b2e611f90565b61136d5760405162461bcd60e51b815260040161087590614105565b8161137733610f80565b156113a757611384611d91565b81146113a25760405162461bcd60e51b81526004016108759061435e565b6113b0565b6113b081611dab565b6113c36113bc8461101a565b8585612087565b50505050565b610134546001600160a01b03166113de611f90565b6001600160a01b0316146114045760405162461bcd60e51b8152600401610875906142cb565b611445888888888080601f01602080910402602001604051908101604052809392919081815260200183838082843760009201919091525061264892505050565b610e3e848484848b61268f565b600061145d82611d74565b6114685760006107b3565b5030919050565b610134546001600160a01b0316611484611f90565b6001600160a01b0316146114aa5760405162461bcd60e51b8152600401610875906142cb565b610f37868686868080601f01602080910402602001604051908101604052809392919081815260200183838082843760009201919091525050604080516020601f8a01819004810282018101909252888152925088915087908190840183828082843760009201919091525061271992505050565b606080836001600160401b0381111561154857634e487b7160e01b600052604160045260246000fd5b60405190808252806020026020018201604052801561157b57816020015b60608152602001906001900390816115665790505b509150836001600160401b038111156115a457634e487b7160e01b600052604160045260246000fd5b6040519080825280602002602001820160405280156115d757816020015b60608152602001906001900390816115c25790505b50905060005b8481101561167e5761161586868381811061160857634e487b7160e01b600052603260045260246000fd5b90506020020135856124ea565b84838151811061163557634e487b7160e01b600052603260045260246000fd5b6020026020010184848151811061165c57634e487b7160e01b600052603260045260246000fd5b602002602001018290528290525050808061167690614856565b9150506115dd565b50935093915050565b60005a9050610ba763310bd74b85604051602401610faf9190613ec8565b816116b1610b2e611f90565b6116cd5760405162461bcd60e51b815260040161087590614105565b826116d733610f80565b15611707576116e4611d91565b81146117025760405162461bcd60e51b81526004016108759061435e565b611710565b61171081611dab565b6117198461201c565b610f3786868686612762565b600081815260c9602052604090208054606091906117429061481b565b80601f016020809104026020016040519081016040528092919081815260200182805461176e9061481b565b80156117bb5780601f10611790576101008083540402835291602001916117bb565b820191906000526020600020905b81548152906001019060200180831161179e57829003601f168201915b50505050509050919050565b600054610100900460ff16806117e0575060005460ff16155b6117fc5760405162461bcd60e51b815260040161087590614485565b600054610100900460ff16158015611827576000805460ff1961ff0019909116610100171660011790555b61013480546001600160a01b0319166001600160a01b0384161790556040805180820182526013815272556e73746f707061626c6520446f6d61696e7360681b60208083019190915282518084019093526002835261155160f21b9083015261188f91612795565b611897612833565b61189f612833565b80156118b1576000805461ff00191690555b5050565b60005a9050610cc06347c816998989898989604051602401610faf95949392919061404b565b60606118e682611d74565b6119025760405162461bcd60e51b8152600401610875906145df565b600061190c6128a7565b9050600081511161192c5760405180602001604052806000815250610b1b565b80611936846128b7565b604051602001611947929190613e68565b6040516020818303038152906040529392505050565b610134546001600160a01b0316611972611f90565b6001600160a01b0316146119985760405162461bcd60e51b8152600401610875906142cb565b6113c3848484848080601f016020809104026020016040519081016040528093929190818152602001838380828437600092018290525060408051602081019091529081529250612719915050565b806119f3610b2e611f90565b611a0f5760405162461bcd60e51b815260040161087590614105565b81611a1933610f80565b15611a4957611a26611d91565b8114611a445760405162461bcd60e51b81526004016108759061435e565b611a52565b611a5281611dab565b610c26878787878761268f565b610134546001600160a01b0316611a74611f90565b6001600160a01b031614611a9a5760405162461bcd60e51b8152600401610875906142cb565b6113c3848484848080601f01602080910402602001604051908101604052809392919081815260200183838082843760009201919091525061264892505050565b6001600160a01b039182166000908152606a6020908152604080832093909416825291909152205460ff1690565b600090565b80611b1a610b2e611f90565b611b365760405162461bcd60e51b815260040161087590614105565b81611b4033610f80565b15611b7057611b4d611d91565b8114611b6b5760405162461bcd60e51b81526004016108759061435e565b611b79565b611b7981611dab565b610c2687878787876129d1565b60005a9050610c266323b872dd878787604051602401610faf93929190613ef3565b610134546001600160a01b0316611bbd611f90565b6001600160a01b031614611be35760405162461bcd60e51b8152600401610875906142cb565b611c2a8a8a8a8a8a8a8a8a8a8a8080601f01602080910402602001604051908101604052809392919081815260200183838082843760009201919091525061231f92505050565b50505050505050505050565b6060816001600160401b03811115611c5e57634e487b7160e01b600052604160045260246000fd5b604051908082528060200260200182016040528015611c9157816020015b6060815260200190600190039081611c7c5790505b50905060005b82811015611d0c57611cce848483818110611cc257634e487b7160e01b600052603260045260246000fd5b90506020020135611725565b828281518110611cee57634e487b7160e01b600052603260045260246000fd5b60200260200101819052508080611d0490614856565b915050611c97565b5092915050565b604051806040016040528060058152602001640302e322e360dc1b81525081565b60006001600160e01b031982166380ac58cd60e01b1480611d6557506001600160e01b03198216635b5e139f60e01b145b806107b357506107b3826129e7565b6000908152606760205260409020546001600160a01b0316151590565b6000611d9c33610f80565b1561084b5750601f1936013590565b60008181526101006020526040902054611dc6906001614729565b6000918252610100602052604090912055565b6000611de48261101a565b9050806001600160a01b0316836001600160a01b03161415611e185760405162461bcd60e51b815260040161087590614675565b806001600160a01b0316611e2a611f90565b6001600160a01b03161480611e465750611e4681610747611f90565b611e625760405162461bcd60e51b815260040161087590614395565b6108e78383612a00565b6060610b1b83604051602001611e829190613dfd565b6040516020818303038152906040528051906020012060001c83612a6e565b6060611eac85611dab565b600080876001600160a01b031686611ec68b8a8989612b2d565b604051611ed39190613dfd565b60006040518083038160008787f1925050503d8060008114611f11576040519150601f19603f3d011682016040523d82523d6000602084013e611f16565b606091505b509092509050611f27603f87614741565b5a11611f4357634e487b7160e01b600052600160045260246000fd5b611f8382826040518060400160405280601a81526020017f42617365466f727761726465723a2043414c4c5f4641494c4544000000000000815250612b5d565b9998505050505050505050565b6000611f9a612b96565b905090565b6000611faa82611d74565b611fc65760405162461bcd60e51b815260040161087590614312565b6000611fd18361101a565b9050806001600160a01b0316846001600160a01b0316148061200c5750836001600160a01b03166120018461084e565b6001600160a01b0316145b80610a4f5750610a4f8185611adb565b61202581612bc4565b6040516020016120359190613ec8565b60408051601f198184030181528282528051602091820120600085815260cb9092529181209190915582917f185c30856dadb58bf097c1f665a52ada7029752dbcad008ea3fefc73bee8c9fe9190a250565b826001600160a01b031661209a8261101a565b6001600160a01b0316146120c05760405162461bcd60e51b815260040161087590614596565b6001600160a01b0382166120e65760405162461bcd60e51b81526004016108759061420e565b6120f18383836108e7565b6120fc600082612a00565b6001600160a01b0383166000908152606860205260408120805460019290612125908490614755565b90915550506001600160a01b0382166000908152606860205260408120805460019290612153908490614729565b909155505060008181526067602052604080822080546001600160a01b0319166001600160a01b0386811691821790925591518493918716917fddf252ad1be2c89b69c2b068fc378daa952ba7f163c4a11628f55a4df523b3ef91a4505050565b60005b84811015610f37576122218686838181106121e257634e487b7160e01b600052603260045260246000fd5b9050602002013585858481811061220957634e487b7160e01b600052603260045260246000fd5b905060200281019061221b91906146e5565b8561244e565b8061222b81614856565b9150506121b7565b6060600061225e86805190602001203061010060008981526020019081526020016000205487612bf0565b905061226e813087868a89611ea1565b9695505050505050565b60006122838261101a565b9050612291816000846108e7565b61229c600083612a00565b6001600160a01b03811660009081526068602052604081208054600192906122c5908490614755565b909155505060008281526067602052604080822080546001600160a01b0319169055518391906001600160a01b038416907fddf252ad1be2c89b69c2b068fc378daa952ba7f163c4a11628f55a4df523b3ef908390a45050565b612362898989898080601f016020809104026020016040519081016040528093929190818152602001838380828437600092019190915250879250612719915050565b610cc0858585858c61268f565b60008585604051602001612384929190613e58565b60408051601f198184030181528282528051602091820120601f89018290048202840182019092528783529092506123d891839189908990819084018382808284376000920191909152506124be92505050565b610f378187878080601f01602080910402602001604051908101604052809392919081815260200183838082843760009201919091525050604080516020601f8b018190048102820181019092528981529250899150889081908401838280828437600092019190915250889250612c38915050565b61245784612d73565b6124735760405162461bcd60e51b8152600401610875906141a0565b6113c38461248086611725565b85858080601f016020809104026020016040519081016040528093929190818152602001838380828437600092019190915250879250612c38915050565b6124c782612d73565b6118b157600082815260c96020908152604090912082516108e7928401906131e6565b6060806124f684611725565b91506125028484612a6e565b90509250929050565b600081516000141561252f5760405162461bcd60e51b8152600401610875906146b6565b82826040516020016125419190613dfd565b60405160208183030381529060405280519060200120604051602001612568929190613ed1565b60408051601f1981840301815291905280516020909101209392505050565b6040808401519051636ccbae5f60e01b815260009182913091636ccbae5f916125b39190600401613ec8565b60206040518083038186803b1580156125cb57600080fd5b505afa1580156125df573d6000803e3d6000fd5b505050506040513d601f19601f820116820180604052508101906126039190613be9565b9050600061261e866060015180519060200120868487612bf0565b905085602001518214801561226e575085516001600160a01b038281169116149695505050505050565b6126528383612d99565b817fc5beef08f693b11c316c0c8394a377a0033c9cf701b8cd8afd79cecef60c3952826040516126829190614024565b60405180910390a2505050565b60005b84811015610f37576127078686838181106126bd57634e487b7160e01b600052603260045260246000fd5b90506020028101906126cf91906146e5565b8686858181106126ef57634e487b7160e01b600052603260045260246000fd5b905060200281019061270191906146e5565b8661236f565b8061271181614856565b915050612692565b612724848483612e78565b827fc5beef08f693b11c316c0c8394a377a0033c9cf701b8cd8afd79cecef60c3952836040516127549190614024565b60405180910390a250505050565b61276d848484612087565b61277984848484612eab565b6113c35760405162461bcd60e51b81526004016108759061414e565b600054610100900460ff16806127ae575060005460ff16155b6127ca5760405162461bcd60e51b815260040161087590614485565b600054610100900460ff161580156127f5576000805460ff1961ff0019909116610100171660011790555b82516128089060659060208601906131e6565b50815161281c9060669060208501906131e6565b5080156108e7576000805461ff0019169055505050565b600054610100900460ff168061284c575060005460ff16155b6128685760405162461bcd60e51b815260040161087590614485565b600054610100900460ff16158015612893576000805460ff1961ff0019909116610100171660011790555b8015610f7d576000805461ff001916905550565b606061013380546107ca9061481b565b6060816128dc57506040805180820190915260018152600360fc1b60208201526107b6565b8160005b811561290657806128f081614856565b91506128ff9050600a83614741565b91506128e0565b6000816001600160401b0381111561292e57634e487b7160e01b600052604160045260246000fd5b6040519080825280601f01601f191660200182016040528015612958576020820181803683370190505b5090505b8415610a4f5761296d600183614755565b915061297a600a86614871565b612985906030614729565b60f81b8183815181106129a857634e487b7160e01b600052603260045260246000fd5b60200101906001600160f81b031916908160001a9053506129ca600a86614741565b945061295c565b6129da8161201c565b610ba7858585858561268f565b6001600160e01b031981166301ffc9a760e01b14919050565b600081815260696020526040902080546001600160a01b0319166001600160a01b0384169081179091558190612a358261101a565b6001600160a01b03167f8c5be1e5ebec7d5bd14f71427d1e84f3dd0314c0f7b2291e5b200ac8c7c3b92560405160405180910390a45050565b606060ca6000612a7d84612bc4565b815260200190815260200160002060008481526020019081526020016000208054612aa79061481b565b80601f0160208091040260200160405190810160405280929190818152602001828054612ad39061481b565b8015612b205780601f10612af557610100808354040283529160200191612b20565b820191906000526020600020905b815481529060010190602001808311612b0357829003601f168201915b5050505050905092915050565b6060828585604051602001612b4493929190613e19565b6040516020818303038152906040529050949350505050565b60608315612b6c575081610b1b565b825115612b7c5782518084602001fd5b8160405162461bcd60e51b81526004016108759190614024565b6000612ba133610f80565b15612bb5575060331936013560601c61084b565b612bbd612fc3565b905061084b565b600081815260cb602052604081205415612bec57600082815260cb60205260409020546107b3565b5090565b6000612c2f82612c29878787604051602001612c0e93929190613dd5565b60405160208183030381529060405280519060200120612fc7565b90612ff7565b95945050505050565b60ca6000612c4583612bc4565b815260200190815260200160002060008581526020019081526020016000208054612c6f9061481b565b15159050612cc65782604051612c859190613dfd565b6040518091039020817f7ae4f661958fbecc2f77be6b0eb280d2a6f604b29e1e7221c82b9da0c4af7f8685604051612cbd9190614024565b60405180910390a35b8160ca6000612cd484612bc4565b815260200190815260200160002060008681526020019081526020016000209080519060200190612d069291906131e6565b5081604051612d159190613dfd565b604051809103902083604051612d2b9190613dfd565b6040518091039020827f851ffe8e74d5015261dba0a1f9e1b0e5d42c5af5d2ad1908fee897c7d80a0d928686604051612d65929190614072565b60405180910390a450505050565b600081815260c9602052604081208054829190612d8f9061481b565b9050119050919050565b6001600160a01b038216612dbf5760405162461bcd60e51b815260040161087590614515565b612dc881611d74565b15612de55760405162461bcd60e51b8152600401610875906141d7565b612df1600083836108e7565b6001600160a01b0382166000908152606860205260408120805460019290612e1a908490614729565b909155505060008181526067602052604080822080546001600160a01b0319166001600160a01b03861690811790915590518392907fddf252ad1be2c89b69c2b068fc378daa952ba7f163c4a11628f55a4df523b3ef908290a45050565b612e828383612d99565b612e8f6000848484612eab565b6108e75760405162461bcd60e51b81526004016108759061414e565b6000612ebf846001600160a01b0316613073565b15612fbb57836001600160a01b031663150b7a02612edb611f90565b8786866040518563ffffffff1660e01b8152600401612efd9493929190613f56565b602060405180830381600087803b158015612f1757600080fd5b505af1925050508015612f47575060408051601f3d908101601f19168201909252612f44918101906139de565b60015b612fa1573d808015612f75576040519150601f19603f3d011682016040523d82523d6000602084013e612f7a565b606091505b508051612f995760405162461bcd60e51b81526004016108759061414e565b805181602001fd5b6001600160e01b031916630a85bd0160e11b149050610a4f565b506001610a4f565b3390565b600081604051602001612fda9190613e97565b604051602081830303815290604052805190602001209050919050565b6000806000808451604114156130215750505060208201516040830151606084015160001a613067565b84516040141561304f5750505060408201516020830151906001600160ff1b0381169060ff1c601b01613067565b60405162461bcd60e51b8152600401610875906140ce565b61226e86828585613079565b3b151590565b60007f7fffffffffffffffffffffffffffffff5d576e7357a4501ddfe92f46681b20a08211156130bb5760405162461bcd60e51b815260040161087590614289565b8360ff16601b14806130d057508360ff16601c145b6130ec5760405162461bcd60e51b8152600401610875906144d3565b6000600186868686604051600081526020016040526040516131119493929190614006565b6020604051602081039080840390855afa158015613133573d6000803e3d6000fd5b5050604051601f1901519150506001600160a01b038116612c2f5760405162461bcd60e51b815260040161087590614097565b8280546131729061481b565b90600052602060002090601f01602090048101928261319457600085556131da565b82601f106131ad5782800160ff198235161785556131da565b828001600101855582156131da579182015b828111156131da5782358255916020019190600101906131bf565b50612bec92915061325a565b8280546131f29061481b565b90600052602060002090601f01602090048101928261321457600085556131da565b82601f1061322d57805160ff19168380011785556131da565b828001600101855582156131da579182015b828111156131da57825182559160200191906001019061323f565b5b80821115612bec576000815560010161325b565b60006001600160401b0380841115613289576132896148b1565b604051601f8501601f1916810160200182811182821017156132ad576132ad6148b1565b6040528481529150818385018610156132c557600080fd5b8484602083013760006020868301015250509392505050565b80356001600160a01b03811681146107b657600080fd5b60008083601f840112613306578081fd5b5081356001600160401b0381111561331c578182fd5b602083019150836020808302850101111561333657600080fd5b9250929050565b60008083601f84011261334e578182fd5b5081356001600160401b03811115613364578182fd5b60208301915083602082850101111561333657600080fd5b600082601f83011261338c578081fd5b610b1b8383356020850161326f565b6000602082840312156133ac578081fd5b610b1b826132de565b600080604083850312156133c7578081fd5b6133d0836132de565b9150612502602084016132de565b6000806000606084860312156133f2578081fd5b6133fb846132de565b9250613409602085016132de565b9150604084013590509250925092565b600080600080600060808688031215613430578081fd5b613439866132de565b9450613447602087016132de565b93506040860135925060608601356001600160401b03811115613468578182fd5b6134748882890161333d565b969995985093965092949392505050565b600080600080600080600060a0888a03121561349f578182fd5b6134a8886132de565b96506134b6602089016132de565b95506040880135945060608801356001600160401b03808211156134d8578384fd5b6134e48b838c0161333d565b909650945060808a01359150808211156134fc578384fd5b506135098a828b0161333d565b989b979a50959850939692959293505050565b60008060008060808587031215613531578384fd5b61353a856132de565b9350613548602086016132de565b92506040850135915060608501356001600160401b03811115613569578182fd5b6135758782880161337c565b91505092959194509250565b60008060408385031215613593578182fd5b61359c836132de565b9150602083013580151581146135b0578182fd5b809150509250929050565b600080604083850312156135cd578182fd5b6135d6836132de565b946020939093013593505050565b600080600080606085870312156135f9578182fd5b613602856132de565b93506020850135925060408501356001600160401b03811115613623578283fd5b61362f8782880161333d565b95989497509550505050565b60008060008060008060008060a0898b031215613656578182fd5b61365f896132de565b97506020890135965060408901356001600160401b0380821115613681578384fd5b61368d8c838d0161333d565b909850965060608b01359150808211156136a5578384fd5b6136b18c838d016132f5565b909650945060808b01359150808211156136c9578384fd5b506136d68b828c016132f5565b999c989b5096995094979396929594505050565b60008060008060008060008060008060c08b8d031215613708578384fd5b6137118b6132de565b995060208b0135985060408b01356001600160401b0380821115613733578586fd5b61373f8e838f0161333d565b909a50985060608d0135915080821115613757578586fd5b6137638e838f016132f5565b909850965060808d013591508082111561377b578586fd5b6137878e838f016132f5565b909650945060a08d013591508082111561379f578384fd5b506137ac8d828e0161333d565b915080935050809150509295989b9194979a5092959850565b600080600080600080608087890312156137dd578384fd5b6137e6876132de565b95506020870135945060408701356001600160401b0380821115613808578586fd5b6138148a838b0161333d565b9096509450606089013591508082111561382c578384fd5b5061383989828a0161333d565b979a9699509497509295939492505050565b600080600080600060608688031215613862578283fd5b85356001600160401b0380821115613878578485fd5b61388489838a016132f5565b9097509550602088013591508082111561389c578485fd5b506138a9888289016132f5565b96999598509660400135949350505050565b60008060008060008060006080888a0312156138d5578081fd5b87356001600160401b03808211156138eb578283fd5b6138f78b838c016132f5565b909950975060208a013591508082111561390f578283fd5b61391b8b838c016132f5565b909750955060408a0135945060608a01359150808211156134fc578283fd5b60008060006040848603121561394e578081fd5b83356001600160401b03811115613963578182fd5b61396f868287016132f5565b909790965060209590950135949350505050565b60008060208385031215613995578182fd5b82356001600160401b038111156139aa578283fd5b6139b6858286016132f5565b90969095509350505050565b6000602082840312156139d3578081fd5b8135610b1b816148c7565b6000602082840312156139ef578081fd5b8151610b1b816148c7565b60008060208385031215613a0c578182fd5b82356001600160401b03811115613a21578283fd5b6139b68582860161333d565b600080600080600060608688031215613a44578283fd5b85356001600160401b0380821115613a5a578485fd5b613a6689838a0161333d565b90975095506020880135915080821115613a7e578485fd5b506138a98882890161333d565b60008060008060008060006080888a031215613aa5578081fd5b87356001600160401b0380821115613abb578283fd5b613ac78b838c0161333d565b909950975060208a0135915080821115613adf578283fd5b61391b8b838c0161333d565b600080600060408486031215613aff578081fd5b83356001600160401b03811115613b14578182fd5b61396f8682870161333d565b600060208284031215613b31578081fd5b81356001600160401b03811115613b46578182fd5b8201601f81018413613b56578182fd5b610a4f8482356020840161326f565b600080600060408486031215613b79578081fd5b83356001600160401b0380821115613b8f578283fd5b9085019060808288031215613ba2578283fd5b90935060208501359080821115613bb7578283fd5b50613bc48682870161333d565b9497909650939450505050565b600060208284031215613be2578081fd5b5035919050565b600060208284031215613bfa578081fd5b5051919050565b600080600060408486031215613c15578081fd5b8335925060208401356001600160401b03811115613c31578182fd5b613bc48682870161333d565b60008060008060608587031215613c52578182fd5b8435935060208501356001600160401b03811115613c6e578283fd5b613c7a8782880161333d565b9598909750949560400135949350505050565b60008060408385031215613c9f578182fd5b50508035926020909101359150565b60008284526020808501945084818502860184845b87811015613d295783830389528135601e19883603018112613ce3578687fd5b870180356001600160401b03811115613cfa578788fd5b803603891315613d08578788fd5b613d158582898501613d7f565b9a87019a9450505090840190600101613cc3565b5090979650505050505050565b60008282518085526020808601955080818302840101818601855b84811015613d2957601f19868403018952613d6d838351613da9565b98840198925090830190600101613d51565b60008284528282602086013780602084860101526020601f19601f85011685010190509392505050565b60008151808452613dc18160208601602086016147ef565b601f01601f19169290920160200192915050565b92835260609190911b6bffffffffffffffffffffffff19166020830152603482015260540190565b60008251613e0f8184602087016147ef565b9190910192915050565b60008451613e2b8184602089016147ef565b60609490941b6bffffffffffffffffffffffff191691909301908152601481019190915260340192915050565b6000828483379101908152919050565b60008351613e7a8184602088016147ef565b835190830190613e8e8183602088016147ef565b01949350505050565b7f19457468657265756d205369676e6564204d6573736167653a0a3332000000008152601c810191909152603c0190565b90815260200190565b918252602082015260400190565b6001600160a01b0391909116815260200190565b6001600160a01b039384168152919092166020820152604081019190915260600190565b6001600160a01b0386811682528516602082015260408101849052608060608201819052600090613f4b9083018486613d7f565b979650505050505050565b6001600160a01b038581168252841660208201526040810183905260806060820181905260009061226e90830184613da9565b600060608252613f9d606083018789613cae565b8281036020840152613fb0818688613cae565b9150508260408301529695505050505050565b600060208252610b1b6020830184613d36565b600060408252613fe96040830185613d36565b8281036020840152610b178185613d36565b901515815260200190565b93845260ff9290921660208401526040830152606082015260800190565b600060208252610b1b6020830184613da9565b600060208252610a4f602083018486613d7f565b60006060825261405f606083018789613d7f565b8281036020840152613fb0818688613d7f565b6000604082526140856040830185613da9565b8281036020840152610b178185613da9565b60208082526018908201527f45434453413a20696e76616c6964207369676e61747572650000000000000000604082015260600190565b6020808252601f908201527f45434453413a20696e76616c6964207369676e6174757265206c656e67746800604082015260600190565b60208082526029908201527f52656769737472793a2053454e4445525f49535f4e4f545f415050524f5645446040820152682fa7a92fa7aba722a960b91b606082015260800190565b60208082526032908201527f4552433732313a207472616e7366657220746f206e6f6e20455243373231526560408201527131b2b4bb32b91034b6b83632b6b2b73a32b960711b606082015260800190565b6020808252601c908201527f5265636f726453746f726167653a204b45595f4e4f545f464f554e4400000000604082015260600190565b6020808252601c908201527f4552433732313a20746f6b656e20616c7265616479206d696e74656400000000604082015260600190565b60208082526024908201527f4552433732313a207472616e7366657220746f20746865207a65726f206164646040820152637265737360e01b606082015260800190565b60208082526019908201527f4552433732313a20617070726f766520746f2063616c6c657200000000000000604082015260600190565b60208082526022908201527f45434453413a20696e76616c6964207369676e6174757265202773272076616c604082015261756560f01b606082015260800190565b60208082526027908201527f52656769737472793a2053454e4445525f49535f4e4f545f4d494e54494e475f60408201526626a0a720a3a2a960c91b606082015260800190565b6020808252602c908201527f4552433732313a206f70657261746f7220717565727920666f72206e6f6e657860408201526b34b9ba32b73a103a37b5b2b760a11b606082015260800190565b60208082526017908201527f52656769737472793a20544f4b454e5f494e56414c4944000000000000000000604082015260600190565b60208082526038908201527f4552433732313a20617070726f76652063616c6c6572206973206e6f74206f7760408201527f6e6572206e6f7220617070726f76656420666f7220616c6c0000000000000000606082015260800190565b6020808252602a908201527f4552433732313a2062616c616e636520717565727920666f7220746865207a65604082015269726f206164647265737360b01b606082015260800190565b60208082526029908201527f4552433732313a206f776e657220717565727920666f72206e6f6e657869737460408201526832b73a103a37b5b2b760b91b606082015260800190565b6020808252602e908201527f496e697469616c697a61626c653a20636f6e747261637420697320616c72656160408201526d191e481a5b9a5d1a585b1a5e995960921b606082015260800190565b60208082526022908201527f45434453413a20696e76616c6964207369676e6174757265202776272076616c604082015261756560f01b606082015260800190565b6020808252818101527f4552433732313a206d696e7420746f20746865207a65726f2061646472657373604082015260600190565b6020808252602c908201527f4552433732313a20617070726f76656420717565727920666f72206e6f6e657860408201526b34b9ba32b73a103a37b5b2b760a11b606082015260800190565b60208082526029908201527f4552433732313a207472616e73666572206f6620746f6b656e2074686174206960408201526839903737ba1037bbb760b91b606082015260800190565b6020808252602f908201527f4552433732314d657461646174613a2055524920717565727920666f72206e6f60408201526e3732bc34b9ba32b73a103a37b5b2b760891b606082015260800190565b60208082526027908201527f554e535265676973747279466f727761726465723a205349474e41545552455f6040820152661253959053125160ca1b606082015260800190565b60208082526021908201527f4552433732313a20617070726f76616c20746f2063757272656e74206f776e656040820152603960f91b606082015260800190565b60208082526015908201527452656769737472793a204c4142454c5f454d50545960581b604082015260600190565b6000808335601e198436030181126146fb578283fd5b8301803591506001600160401b03821115614714578283fd5b60200191503681900382131561333657600080fd5b6000821982111561473c5761473c614885565b500190565b6000826147505761475061489b565b500490565b60008282101561476757614767614885565b500390565b60006080823603121561477d578081fd5b604051608081016001600160401b0382821081831117156147a0576147a06148b1565b816040526147ad856132de565b8352602085013560208401526040850135604084015260608501359150808211156147d6578384fd5b506147e33682860161337c565b60608301525092915050565b60005b8381101561480a5781810151838201526020016147f2565b838111156113c35750506000910152565b60028104600182168061482f57607f821691505b6020821081141561485057634e487b7160e01b600052602260045260246000fd5b50919050565b600060001982141561486a5761486a614885565b5060010190565b6000826148805761488061489b565b500690565b634e487b7160e01b600052601160045260246000fd5b634e487b7160e01b600052601260045260246000fd5b634e487b7160e01b600052604160045260246000fd5b6001600160e01b031981168114610f7d57600080fdfea2646970667358221220ad88ffa063f90e4b0b2d0adede04e2e31d127e0236b1e0b731faa6519209d9e564736f6c63430008000033",
  "linkReferences": {},
  "deployedLinkReferences": {}
}