{
  "_format": "hh-sol-artifact-1",
  "contractName": "UNSRegistry",
  "sourceName": "contracts/UNSRegistry.sol",
  "abi": [
    {
      "anonymous": false,
      "inputs": [
        {
          "indexed": false,
          "internalType": "address",
          "name": "previousAdmin",
          "type": "address"
        },
        {
          "indexed": false,
          "internalType": "address",
          "name": "newAdmin",
          "type": "address"
        }
      ],
      "name": "AdminChanged",
      "type": "event"
    },
    {
      "anonymous": false,
      "inputs": [
        {
          "indexed": true,
          "internalType": "address",
          "name": "owner",
          "type": "address"
        },
        {
          "indexed": true,
          "internalType": "address",
          "name": "approved",
          "type": "address"
        },
        {
          "indexed": true,
          "internalType": "uint256",
          "name": "tokenId",
          "type": "uint256"
        }
      ],
      "name": "Approval",
      "type": "event"
    },
    {
      "anonymous": false,
      "inputs": [
        {
          "indexed": true,
          "internalType": "address",
          "name": "owner",
          "type": "address"
        },
        {
          "indexed": true,
          "internalType": "address",
          "name": "operator",
          "type": "address"
        },
        {
          "indexed": false,
          "internalType": "bool",
          "name": "approved",
          "type": "bool"
        }
      ],
      "name": "ApprovalForAll",
      "type": "event"
    },
    {
      "anonymous": false,
      "inputs": [
        {
          "indexed": false,
          "internalType": "uint8",
          "name": "version",
          "type": "uint8"
        }
      ],
      "name": "Initialized",
      "type": "event"
    },
    {
      "anonymous": false,
      "inputs": [
        {
          "indexed": true,
          "internalType": "uint256",
          "name": "tokenId",
          "type": "uint256"
        },
        {
          "indexed": true,
          "internalType": "string",
          "name": "keyIndex",
          "type": "string"
        },
        {
          "indexed": false,
          "internalType": "string",
          "name": "key",
          "type": "string"
        }
      ],
      "name": "NewKey",
      "type": "event"
    },
    {
      "anonymous": false,
      "inputs": [
        {
          "indexed": true,
          "internalType": "uint256",
          "name": "tokenId",
          "type": "uint256"
        },
        {
          "indexed": false,
          "internalType": "string",
          "name": "uri",
          "type": "string"
        }
      ],
      "name": "NewURI",
      "type": "event"
    },
    {
      "anonymous": false,
      "inputs": [
        {
          "indexed": false,
          "internalType": "string",
          "name": "prefix",
          "type": "string"
        }
      ],
      "name": "NewURIPrefix",
      "type": "event"
    },
    {
      "anonymous": false,
      "inputs": [
        {
          "indexed": true,
          "internalType": "address",
          "name": "addr",
          "type": "address"
        }
      ],
      "name": "RemoveReverse",
      "type": "event"
    },
    {
      "anonymous": false,
      "inputs": [
        {
          "indexed": true,
          "internalType": "uint256",
          "name": "tokenId",
          "type": "uint256"
        }
      ],
      "name": "ResetRecords",
      "type": "event"
    },
    {
      "anonymous": false,
      "inputs": [
        {
          "indexed": true,
          "internalType": "uint256",
          "name": "tokenId",
          "type": "uint256"
        },
        {
          "indexed": true,
          "internalType": "string",
          "name": "keyIndex",
          "type": "string"
        },
        {
          "indexed": true,
          "internalType": "string",
          "name": "valueIndex",
          "type": "string"
        },
        {
          "indexed": false,
          "internalType": "string",
          "name": "key",
          "type": "string"
        },
        {
          "indexed": false,
          "internalType": "string",
          "name": "value",
          "type": "string"
        }
      ],
      "name": "Set",
      "type": "event"
    },
    {
      "anonymous": false,
      "inputs": [
        {
          "indexed": true,
          "internalType": "address",
          "name": "addr",
          "type": "address"
        },
        {
          "indexed": true,
          "internalType": "uint256",
          "name": "tokenId",
          "type": "uint256"
        }
      ],
      "name": "SetReverse",
      "type": "event"
    },
    {
      "anonymous": false,
      "inputs": [
        {
          "indexed": true,
          "internalType": "address",
          "name": "from",
          "type": "address"
        },
        {
          "indexed": true,
          "internalType": "address",
          "name": "to",
          "type": "address"
        },
        {
          "indexed": true,
          "internalType": "uint256",
          "name": "tokenId",
          "type": "uint256"
        }
      ],
      "name": "Transfer",
      "type": "event"
    },
    {
      "anonymous": false,
      "inputs": [
        {
          "indexed": true,
          "internalType": "address",
          "name": "implementation",
          "type": "address"
        }
      ],
      "name": "Upgraded",
      "type": "event"
    },
    {
      "anonymous": false,
      "inputs": [
        {
          "indexed": true,
          "internalType": "address",
          "name": "user",
          "type": "address"
        },
        {
          "indexed": false,
          "internalType": "uint256[]",
          "name": "tokenIds",
          "type": "uint256[]"
        }
      ],
      "name": "WithdrawnBatch",
      "type": "event"
    },
    {
      "stateMutability": "nonpayable",
      "type": "fallback"
    },
    {
      "inputs": [],
      "name": "BATCH_LIMIT",
      "outputs": [
        {
          "internalType": "uint256",
          "name": "",
          "type": "uint256"
        }
      ],
      "stateMutability": "view",
      "type": "function"
    },
    {
      "inputs": [],
      "name": "FALLBACK_DELEGATE_ID",
      "outputs": [
        {
          "internalType": "uint256",
          "name": "",
          "type": "uint256"
        }
      ],
      "stateMutability": "view",
      "type": "function"
    },
    {
      "inputs": [],
      "name": "NAME",
      "outputs": [
        {
          "internalType": "string",
          "name": "",
          "type": "string"
        }
      ],
      "stateMutability": "view",
      "type": "function"
    },
    {
      "inputs": [],
      "name": "REVERSE_DELEGATE_ID",
      "outputs": [
        {
          "internalType": "uint256",
          "name": "",
          "type": "uint256"
        }
      ],
      "stateMutability": "view",
      "type": "function"
    },
    {
      "inputs": [],
      "name": "VERSION",
      "outputs": [
        {
          "internalType": "string",
          "name": "",
          "type": "string"
        }
      ],
      "stateMutability": "view",
      "type": "function"
    },
    {
      "inputs": [
        {
          "internalType": "address",
          "name": "addr",
          "type": "address"
        }
      ],
      "name": "addFallbackDelegate",
      "outputs": [],
      "stateMutability": "nonpayable",
      "type": "function"
    },
    {
      "inputs": [
        {
          "internalType": "string",
          "name": "key",
          "type": "string"
        }
      ],
      "name": "addKey",
      "outputs": [],
      "stateMutability": "nonpayable",
      "type": "function"
    },
    {
      "inputs": [
        {
          "internalType": "address",
          "name": "addr",
          "type": "address"
        }
      ],
      "name": "addProxyReader",
      "outputs": [],
      "stateMutability": "nonpayable",
      "type": "function"
    },
    {
      "inputs": [
        {
          "internalType": "address",
          "name": "addr",
          "type": "address"
        }
      ],
      "name": "addReverseDelegate",
      "outputs": [],
      "stateMutability": "nonpayable",
      "type": "function"
    },
    {
      "inputs": [
        {
          "internalType": "address",
          "name": "to",
          "type": "address"
        },
        {
          "internalType": "uint256",
          "name": "tokenId",
          "type": "uint256"
        }
      ],
      "name": "approve",
      "outputs": [],
      "stateMutability": "nonpayable",
      "type": "function"
    },
    {
      "inputs": [
        {
          "internalType": "address",
          "name": "owner",
          "type": "address"
        }
      ],
      "name": "balanceOf",
      "outputs": [
        {
          "internalType": "uint256",
          "name": "",
          "type": "uint256"
        }
      ],
      "stateMutability": "view",
      "type": "function"
    },
    {
      "inputs": [
        {
          "internalType": "uint256",
          "name": "tokenId",
          "type": "uint256"
        }
      ],
      "name": "burn",
      "outputs": [],
      "stateMutability": "nonpayable",
      "type": "function"
    },
    {
      "inputs": [
        {
          "internalType": "uint256",
          "name": "tokenId",
          "type": "uint256"
        },
        {
          "internalType": "string",
          "name": "label",
          "type": "string"
        }
      ],
      "name": "childIdOf",
      "outputs": [
        {
          "internalType": "uint256",
          "name": "",
          "type": "uint256"
        }
      ],
      "stateMutability": "pure",
      "type": "function"
    },
    {
      "inputs": [
        {
          "internalType": "address",
          "name": "user",
          "type": "address"
        },
        {
          "internalType": "bytes",
          "name": "depositData",
          "type": "bytes"
        }
      ],
      "name": "deposit",
      "outputs": [],
      "stateMutability": "nonpayable",
      "type": "function"
    },
    {
      "inputs": [
        {
          "internalType": "uint256",
          "name": "tokenId",
          "type": "uint256"
        }
      ],
      "name": "depositToPolygon",
      "outputs": [],
      "stateMutability": "nonpayable",
      "type": "function"
    },
    {
      "inputs": [
        {
          "components": [
            {
              "internalType": "address",
              "name": "from",
              "type": "address"
            },
            {
              "internalType": "uint256",
              "name": "nonce",
              "type": "uint256"
            },
            {
              "internalType": "uint256",
              "name": "tokenId",
              "type": "uint256"
            },
            {
              "internalType": "bytes",
              "name": "data",
              "type": "bytes"
            }
          ],
          "internalType": "struct IForwarder.ForwardRequest",
          "name": "req",
          "type": "tuple"
        },
        {
          "internalType": "bytes",
          "name": "signature",
          "type": "bytes"
        }
      ],
      "name": "execute",
      "outputs": [
        {
          "internalType": "bytes",
          "name": "",
          "type": "bytes"
        }
      ],
      "stateMutability": "nonpayable",
      "type": "function"
    },
    {
      "inputs": [
        {
          "internalType": "uint256",
          "name": "tokenId",
          "type": "uint256"
        }
      ],
      "name": "exists",
      "outputs": [
        {
          "internalType": "bool",
          "name": "",
          "type": "bool"
        }
      ],
      "stateMutability": "view",
      "type": "function"
    },
    {
      "inputs": [
        {
          "internalType": "string",
          "name": "key",
          "type": "string"
        },
        {
          "internalType": "uint256",
          "name": "tokenId",
          "type": "uint256"
        }
      ],
      "name": "get",
      "outputs": [
        {
          "internalType": "string",
          "name": "value",
          "type": "string"
        }
      ],
      "stateMutability": "view",
      "type": "function"
    },
    {
      "inputs": [
        {
          "internalType": "uint256",
          "name": "tokenId",
          "type": "uint256"
        }
      ],
      "name": "getApproved",
      "outputs": [
        {
          "internalType": "address",
          "name": "",
          "type": "address"
        }
      ],
      "stateMutability": "view",
      "type": "function"
    },
    {
      "inputs": [
        {
          "internalType": "uint256",
          "name": "keyHash",
          "type": "uint256"
        },
        {
          "internalType": "uint256",
          "name": "tokenId",
          "type": "uint256"
        }
      ],
      "name": "getByHash",
      "outputs": [
        {
          "internalType": "string",
          "name": "key",
          "type": "string"
        },
        {
          "internalType": "string",
          "name": "value",
          "type": "string"
        }
      ],
      "stateMutability": "view",
      "type": "function"
    },
    {
      "inputs": [
        {
          "internalType": "uint256",
          "name": "keyHash",
          "type": "uint256"
        }
      ],
      "name": "getKey",
      "outputs": [
        {
          "internalType": "string",
          "name": "",
          "type": "string"
        }
      ],
      "stateMutability": "view",
      "type": "function"
    },
    {
      "inputs": [
        {
          "internalType": "uint256[]",
          "name": "hashes",
          "type": "uint256[]"
        }
      ],
      "name": "getKeys",
      "outputs": [
        {
          "internalType": "string[]",
          "name": "values",
          "type": "string[]"
        }
      ],
      "stateMutability": "view",
      "type": "function"
    },
    {
      "inputs": [
        {
          "internalType": "string[]",
          "name": "keys",
          "type": "string[]"
        },
        {
          "internalType": "uint256",
          "name": "tokenId",
          "type": "uint256"
        }
      ],
      "name": "getMany",
      "outputs": [
        {
          "internalType": "string[]",
          "name": "values",
          "type": "string[]"
        }
      ],
      "stateMutability": "view",
      "type": "function"
    },
    {
      "inputs": [
        {
          "internalType": "uint256[]",
          "name": "keyHashes",
          "type": "uint256[]"
        },
        {
          "internalType": "uint256",
          "name": "tokenId",
          "type": "uint256"
        }
      ],
      "name": "getManyByHash",
      "outputs": [
        {
          "internalType": "string[]",
          "name": "keys",
          "type": "string[]"
        },
        {
          "internalType": "string[]",
          "name": "values",
          "type": "string[]"
        }
      ],
      "stateMutability": "view",
      "type": "function"
    },
    {
      "inputs": [
        {
          "internalType": "address",
          "name": "mintingManager",
          "type": "address"
        }
      ],
      "name": "initialize",
      "outputs": [],
      "stateMutability": "nonpayable",
      "type": "function"
    },
    {
      "inputs": [
        {
          "internalType": "address",
          "name": "owner",
          "type": "address"
        },
        {
          "internalType": "address",
          "name": "operator",
          "type": "address"
        }
      ],
      "name": "isApprovedForAll",
      "outputs": [
        {
          "internalType": "bool",
          "name": "",
          "type": "bool"
        }
      ],
      "stateMutability": "view",
      "type": "function"
    },
    {
      "inputs": [
        {
          "internalType": "address",
          "name": "spender",
          "type": "address"
        },
        {
          "internalType": "uint256",
          "name": "tokenId",
          "type": "uint256"
        }
      ],
      "name": "isApprovedOrOwner",
      "outputs": [
        {
          "internalType": "bool",
          "name": "",
          "type": "bool"
        }
      ],
      "stateMutability": "view",
      "type": "function"
    },
    {
      "inputs": [
        {
          "internalType": "address",
          "name": "forwarder",
          "type": "address"
        }
      ],
      "name": "isTrustedForwarder",
      "outputs": [
        {
          "internalType": "bool",
          "name": "",
          "type": "bool"
        }
      ],
      "stateMutability": "view",
      "type": "function"
    },
    {
      "inputs": [
        {
          "internalType": "address",
          "name": "user",
          "type": "address"
        },
        {
          "internalType": "uint256",
          "name": "tokenId",
          "type": "uint256"
        }
      ],
      "name": "mint",
      "outputs": [],
      "stateMutability": "nonpayable",
      "type": "function"
    },
    {
      "inputs": [
        {
          "internalType": "address",
          "name": "user",
          "type": "address"
        },
        {
          "internalType": "uint256",
          "name": "tokenId",
          "type": "uint256"
        },
        {
          "internalType": "bytes",
          "name": "",
          "type": "bytes"
        }
      ],
      "name": "mint",
      "outputs": [],
      "stateMutability": "nonpayable",
      "type": "function"
    },
    {
      "inputs": [
        {
          "internalType": "address",
          "name": "to",
          "type": "address"
        },
        {
          "internalType": "uint256",
          "name": "tokenId",
          "type": "uint256"
        },
        {
          "internalType": "string",
          "name": "uri",
          "type": "string"
        }
      ],
      "name": "mint",
      "outputs": [],
      "stateMutability": "nonpayable",
      "type": "function"
    },
    {
      "inputs": [
        {
          "internalType": "address",
          "name": "to",
          "type": "address"
        },
        {
          "internalType": "uint256",
          "name": "tokenId",
          "type": "uint256"
        },
        {
          "internalType": "string",
          "name": "uri",
          "type": "string"
        },
        {
          "internalType": "string[]",
          "name": "keys",
          "type": "string[]"
        },
        {
          "internalType": "string[]",
          "name": "values",
          "type": "string[]"
        }
      ],
      "name": "mintWithRecords",
      "outputs": [],
      "stateMutability": "nonpayable",
      "type": "function"
    },
    {
      "inputs": [],
      "name": "name",
      "outputs": [
        {
          "internalType": "string",
          "name": "",
          "type": "string"
        }
      ],
      "stateMutability": "view",
      "type": "function"
    },
    {
      "inputs": [
        {
          "internalType": "uint256",
          "name": "tokenId",
          "type": "uint256"
        }
      ],
      "name": "nonceOf",
      "outputs": [
        {
          "internalType": "uint256",
          "name": "",
          "type": "uint256"
        }
      ],
      "stateMutability": "view",
      "type": "function"
    },
    {
      "inputs": [
        {
          "internalType": "address",
          "name": "",
          "type": "address"
        },
        {
          "internalType": "address",
          "name": "from",
          "type": "address"
        },
        {
          "internalType": "uint256",
          "name": "tokenId",
          "type": "uint256"
        },
        {
          "internalType": "bytes",
          "name": "data",
          "type": "bytes"
        }
      ],
      "name": "onERC721Received",
      "outputs": [
        {
          "internalType": "bytes4",
          "name": "",
          "type": "bytes4"
        }
      ],
      "stateMutability": "nonpayable",
      "type": "function"
    },
    {
      "inputs": [
        {
          "internalType": "uint256",
          "name": "tokenId",
          "type": "uint256"
        }
      ],
      "name": "ownerOf",
      "outputs": [
        {
          "internalType": "address",
          "name": "",
          "type": "address"
        }
      ],
      "stateMutability": "view",
      "type": "function"
    },
    {
      "inputs": [
        {
          "internalType": "string[]",
          "name": "keys",
          "type": "string[]"
        },
        {
          "internalType": "string[]",
          "name": "values",
          "type": "string[]"
        },
        {
          "internalType": "uint256",
          "name": "tokenId",
          "type": "uint256"
        }
      ],
      "name": "reconfigure",
      "outputs": [],
      "stateMutability": "nonpayable",
      "type": "function"
    },
    {
      "inputs": [],
      "name": "removeReverse",
      "outputs": [],
      "stateMutability": "nonpayable",
      "type": "function"
    },
    {
      "inputs": [],
      "name": "removeReverseDirect",
      "outputs": [],
      "stateMutability": "nonpayable",
      "type": "function"
    },
    {
      "inputs": [
        {
          "internalType": "uint256",
          "name": "tokenId",
          "type": "uint256"
        }
      ],
      "name": "reset",
      "outputs": [],
      "stateMutability": "nonpayable",
      "type": "function"
    },
    {
      "inputs": [
        {
          "internalType": "uint256",
          "name": "tokenId",
          "type": "uint256"
        }
      ],
      "name": "resolverOf",
      "outputs": [
        {
          "internalType": "address",
          "name": "",
          "type": "address"
        }
      ],
      "stateMutability": "view",
      "type": "function"
    },
    {
      "inputs": [
        {
          "internalType": "address",
          "name": "addr",
          "type": "address"
        }
      ],
      "name": "reverseOf",
      "outputs": [
        {
          "internalType": "uint256",
          "name": "reverse",
          "type": "uint256"
        }
      ],
      "stateMutability": "view",
      "type": "function"
    },
    {
      "inputs": [],
      "name": "root",
      "outputs": [
        {
          "internalType": "uint256",
          "name": "",
          "type": "uint256"
        }
      ],
      "stateMutability": "pure",
      "type": "function"
    },
    {
      "inputs": [
        {
          "internalType": "address",
          "name": "to",
          "type": "address"
        },
        {
          "internalType": "uint256",
          "name": "tokenId",
          "type": "uint256"
        },
        {
          "internalType": "string",
          "name": "uri",
          "type": "string"
        },
        {
          "internalType": "bytes",
          "name": "data",
          "type": "bytes"
        }
      ],
      "name": "safeMint",
      "outputs": [],
      "stateMutability": "nonpayable",
      "type": "function"
    },
    {
      "inputs": [
        {
          "internalType": "address",
          "name": "to",
          "type": "address"
        },
        {
          "internalType": "uint256",
          "name": "tokenId",
          "type": "uint256"
        },
        {
          "internalType": "string",
          "name": "uri",
          "type": "string"
        }
      ],
      "name": "safeMint",
      "outputs": [],
      "stateMutability": "nonpayable",
      "type": "function"
    },
    {
      "inputs": [
        {
          "internalType": "address",
          "name": "to",
          "type": "address"
        },
        {
          "internalType": "uint256",
          "name": "tokenId",
          "type": "uint256"
        },
        {
          "internalType": "string",
          "name": "uri",
          "type": "string"
        },
        {
          "internalType": "string[]",
          "name": "keys",
          "type": "string[]"
        },
        {
          "internalType": "string[]",
          "name": "values",
          "type": "string[]"
        }
      ],
      "name": "safeMintWithRecords",
      "outputs": [],
      "stateMutability": "nonpayable",
      "type": "function"
    },
    {
      "inputs": [
        {
          "internalType": "address",
          "name": "to",
          "type": "address"
        },
        {
          "internalType": "uint256",
          "name": "tokenId",
          "type": "uint256"
        },
        {
          "internalType": "string",
          "name": "uri",
          "type": "string"
        },
        {
          "internalType": "string[]",
          "name": "keys",
          "type": "string[]"
        },
        {
          "internalType": "string[]",
          "name": "values",
          "type": "string[]"
        },
        {
          "internalType": "bytes",
          "name": "data",
          "type": "bytes"
        }
      ],
      "name": "safeMintWithRecords",
      "outputs": [],
      "stateMutability": "nonpayable",
      "type": "function"
    },
    {
      "inputs": [
        {
          "internalType": "address",
          "name": "from",
          "type": "address"
        },
        {
          "internalType": "address",
          "name": "to",
          "type": "address"
        },
        {
          "internalType": "uint256",
          "name": "tokenId",
          "type": "uint256"
        }
      ],
      "name": "safeTransferFrom",
      "outputs": [],
      "stateMutability": "nonpayable",
      "type": "function"
    },
    {
      "inputs": [
        {
          "internalType": "address",
          "name": "from",
          "type": "address"
        },
        {
          "internalType": "address",
          "name": "to",
          "type": "address"
        },
        {
          "internalType": "uint256",
          "name": "tokenId",
          "type": "uint256"
        },
        {
          "internalType": "bytes",
          "name": "data",
          "type": "bytes"
        }
      ],
      "name": "safeTransferFrom",
      "outputs": [],
      "stateMutability": "nonpayable",
      "type": "function"
    },
    {
      "inputs": [
        {
          "internalType": "string",
          "name": "key",
          "type": "string"
        },
        {
          "internalType": "string",
          "name": "value",
          "type": "string"
        },
        {
          "internalType": "uint256",
          "name": "tokenId",
          "type": "uint256"
        }
      ],
      "name": "set",
      "outputs": [],
      "stateMutability": "nonpayable",
      "type": "function"
    },
    {
      "inputs": [
        {
          "internalType": "address",
          "name": "operator",
          "type": "address"
        },
        {
          "internalType": "bool",
          "name": "approved",
          "type": "bool"
        }
      ],
      "name": "setApprovalForAll",
      "outputs": [],
      "stateMutability": "nonpayable",
      "type": "function"
    },
    {
      "inputs": [
        {
          "internalType": "uint256",
          "name": "keyHash",
          "type": "uint256"
        },
        {
          "internalType": "string",
          "name": "value",
          "type": "string"
        },
        {
          "internalType": "uint256",
          "name": "tokenId",
          "type": "uint256"
        }
      ],
      "name": "setByHash",
      "outputs": [],
      "stateMutability": "nonpayable",
      "type": "function"
    },
    {
      "inputs": [
        {
          "internalType": "address",
          "name": "registry",
          "type": "address"
        }
      ],
      "name": "setCNSRegistry",
      "outputs": [],
      "stateMutability": "nonpayable",
      "type": "function"
    },
    {
      "inputs": [
        {
          "internalType": "address",
          "name": "clientChainManager",
          "type": "address"
        }
      ],
      "name": "setChildChainManager",
      "outputs": [],
      "stateMutability": "nonpayable",
      "type": "function"
    },
    {
      "inputs": [
        {
          "internalType": "string[]",
          "name": "keys",
          "type": "string[]"
        },
        {
          "internalType": "string[]",
          "name": "values",
          "type": "string[]"
        },
        {
          "internalType": "uint256",
          "name": "tokenId",
          "type": "uint256"
        }
      ],
      "name": "setMany",
      "outputs": [],
      "stateMutability": "nonpayable",
      "type": "function"
    },
    {
      "inputs": [
        {
          "internalType": "uint256[]",
          "name": "keyHashes",
          "type": "uint256[]"
        },
        {
          "internalType": "string[]",
          "name": "values",
          "type": "string[]"
        },
        {
          "internalType": "uint256",
          "name": "tokenId",
          "type": "uint256"
        }
      ],
      "name": "setManyByHash",
      "outputs": [],
      "stateMutability": "nonpayable",
      "type": "function"
    },
    {
      "inputs": [
        {
          "internalType": "address",
          "name": "to",
          "type": "address"
        },
        {
          "internalType": "uint256",
          "name": "tokenId",
          "type": "uint256"
        }
      ],
      "name": "setOwner",
      "outputs": [],
      "stateMutability": "nonpayable",
      "type": "function"
    },
    {
      "inputs": [
        {
          "internalType": "uint256",
          "name": "tokenId",
          "type": "uint256"
        }
      ],
      "name": "setReverse",
      "outputs": [],
      "stateMutability": "nonpayable",
      "type": "function"
    },
    {
      "inputs": [
        {
          "internalType": "uint256",
          "name": "tokenId",
          "type": "uint256"
        }
      ],
      "name": "setReverseDirect",
      "outputs": [],
      "stateMutability": "nonpayable",
      "type": "function"
    },
    {
      "inputs": [
        {
          "internalType": "address",
          "name": "rootChainManager",
          "type": "address"
        }
      ],
      "name": "setRootChainManager",
      "outputs": [],
      "stateMutability": "nonpayable",
      "type": "function"
    },
    {
      "inputs": [
        {
          "internalType": "string",
          "name": "prefix",
          "type": "string"
        }
      ],
      "name": "setTokenURIPrefix",
      "outputs": [],
      "stateMutability": "nonpayable",
      "type": "function"
    },
    {
      "inputs": [
        {
          "internalType": "bytes4",
          "name": "interfaceId",
          "type": "bytes4"
        }
      ],
      "name": "supportsInterface",
      "outputs": [
        {
          "internalType": "bool",
          "name": "",
          "type": "bool"
        }
      ],
      "stateMutability": "view",
      "type": "function"
    },
    {
      "inputs": [],
      "name": "symbol",
      "outputs": [
        {
          "internalType": "string",
          "name": "",
          "type": "string"
        }
      ],
      "stateMutability": "view",
      "type": "function"
    },
    {
      "inputs": [
        {
          "internalType": "uint256",
          "name": "tokenId",
          "type": "uint256"
        }
      ],
      "name": "tokenURI",
      "outputs": [
        {
          "internalType": "string",
          "name": "",
          "type": "string"
        }
      ],
      "stateMutability": "view",
      "type": "function"
    },
    {
      "inputs": [
        {
          "internalType": "address",
          "name": "from",
          "type": "address"
        },
        {
          "internalType": "address",
          "name": "to",
          "type": "address"
        },
        {
          "internalType": "uint256",
          "name": "tokenId",
          "type": "uint256"
        }
      ],
      "name": "transferFrom",
      "outputs": [],
      "stateMutability": "nonpayable",
      "type": "function"
    },
    {
      "inputs": [
        {
          "internalType": "uint256[]",
          "name": "tokenIds",
          "type": "uint256[]"
        }
      ],
      "name": "upgradeAll",
      "outputs": [],
      "stateMutability": "nonpayable",
      "type": "function"
    },
    {
      "inputs": [
        {
          "components": [
            {
              "internalType": "address",
              "name": "from",
              "type": "address"
            },
            {
              "internalType": "uint256",
              "name": "nonce",
              "type": "uint256"
            },
            {
              "internalType": "uint256",
              "name": "tokenId",
              "type": "uint256"
            },
            {
              "internalType": "bytes",
              "name": "data",
              "type": "bytes"
            }
          ],
          "internalType": "struct IForwarder.ForwardRequest",
          "name": "req",
          "type": "tuple"
        },
        {
          "internalType": "bytes",
          "name": "signature",
          "type": "bytes"
        }
      ],
      "name": "verify",
      "outputs": [
        {
          "internalType": "bool",
          "name": "",
          "type": "bool"
        }
      ],
      "stateMutability": "view",
      "type": "function"
    },
    {
      "inputs": [
        {
          "internalType": "uint256",
          "name": "tokenId",
          "type": "uint256"
        }
      ],
      "name": "withdraw",
      "outputs": [],
      "stateMutability": "nonpayable",
      "type": "function"
    },
    {
      "inputs": [
        {
          "internalType": "uint256[]",
          "name": "tokenIds",
          "type": "uint256[]"
        }
      ],
      "name": "withdrawBatch",
      "outputs": [],
      "stateMutability": "nonpayable",
      "type": "function"
    },
    {
      "inputs": [
        {
          "internalType": "bytes",
          "name": "inputData",
          "type": "bytes"
        },
        {
          "internalType": "uint256",
          "name": "tokenId",
          "type": "uint256"
        },
        {
          "internalType": "string[]",
          "name": "keys",
          "type": "string[]"
        },
        {
          "internalType": "string[]",
          "name": "values",
          "type": "string[]"
        }
      ],
      "name": "withdrawFromPolygon",
      "outputs": [],
      "stateMutability": "nonpayable",
      "type": "function"
    },
    {
      "inputs": [
        {
          "internalType": "uint256",
          "name": "tokenId",
          "type": "uint256"
        }
      ],
      "name": "withdrawWithMetadata",
      "outputs": [],
      "stateMutability": "nonpayable",
      "type": "function"
    }
  ],
  "bytecode": "0x608060405234801561001057600080fd5b506157d180620000216000396000f3fe608060405234801561001057600080fd5b506004361061041d5760003560e01c8063764a81bb1161022b578063b55bc61711610130578063d3fc9864116100b8578063efda4d3e11610087578063efda4d3e14610a11578063f25eb5c114610a24578063f45cd55114610a2c578063f5c1f76e14610a34578063ffa1ad7414610a475761041d565b8063d3fc9864146109a8578063e985e9c5146109bb578063ebf0c717146109f7578063ec129eea146109fe5761041d565b8063c4d66de8116100ff578063c4d66de814610949578063c87b56dd1461095c578063cd279c7c1461096f578063ce92b33e14610982578063cf2c52cb146109955761041d565b8063b55bc617146108ef578063b85afd2814610902578063b88d4fde14610923578063bb5b27e1146109365761041d565b80639c8d4156116101b3578063a5e584dc11610182578063a5e584dc146105c4578063ab3b87fe146108a3578063ae31844a146108b6578063b0f59177146108c9578063b3f9e4cb146108dc5761041d565b80639c8d41561461083e578063a22cb46514610851578063a3f4df7e14610864578063a4247400146108905761041d565b806394d008ef116101fa57806394d008ef146107f55780639508b1c4146108085780639559c0bd1461081b57806395d89b411461082357806399e0dd7c1461082b5761041d565b8063764a81bb146107b45780637e37479e146107c75780637f139a00146107da57806391b45fdc146107ed5761041d565b8063430c2081116103315780636352211e116102b95780636ccbae5f116102885780636ccbae5f146107525780636d5750cf1461077357806370a0823114610786578063728a44d814610799578063753bb1ef146107ac5761041d565b80636352211e146106ea578063638e5c78146106fd578063672b9f811461071057806368b62d32146107315761041d565b80634f558e79116103005780634f558e791461068257806350382c1a1461069557806350468074146106a857806350960239146106bb578063572b6c05146106ce5761041d565b8063430c2081146106365780634348b5621461064957806347c816991461065c5780634a72584d1461066f5761041d565b80631bf7e13e116103b4578063310bd74b11610383578063310bd74b146105d7578063384e9a55146105ea57806340c10f19146105fd57806342842e0e1461061057806342966c68146106235761041d565b80631bf7e13e1461058b57806323b872dd1461059e57806327f18975146105b15780632e1a7d4d146105c45761041d565b8063095ea7b3116103f0578063095ea7b314610519578063150b7a021461052c5780631bd8cc1a146105585780631be5e7ed146105785761041d565b8063015221ad1461049c57806301ffc9a7146104b157806306fdde03146104d9578063081812fc146104ee575b60646000526101386020527f8723189d283a1dc22580de90fc8ad0f2a3955bc33dad6eeded3a75814f64023054610499906001600160a01b031661045f610a6b565b8080601f016020809104026020016040519081016040528093929190818152602001838380828437600092019190915250610a7e92505050565b50005b6104af6104aa366004614781565b610b11565b005b6104c46104bf366004614df0565b610ba1565b60405190151581526020015b60405180910390f35b6104e1610bac565b6040516104d0919061532b565b6105016104fc366004615031565b610c3e565b6040516001600160a01b0390911681526020016104d0565b6104af610527366004614987565b610c65565b61053f61053a366004614831565b610cb1565b6040516001600160e01b031990911681526020016104d0565b61056b610566366004614c8f565b610e07565b6040516104d0919061528c565b6104e1610586366004614f58565b610f27565b6104e1610599366004614fd2565b610f72565b6104af6105ac3660046147f1565b61107d565b6104af6105bf366004614c1f565b611103565b6104af6105d2366004615031565b61117e565b6104af6105e5366004615031565b6111fa565b6104af6105f8366004615031565b611268565b6104af61060b366004614987565b61132e565b6104af61061e3660046147f1565b61137b565b6104af610631366004615031565b611396565b6104c4610644366004614987565b61140d565b6104af610657366004614a0b565b611419565b6104af61066a366004614efa565b61147e565b6104af61067d366004615079565b6114f0565b6104c4610690366004615031565b611569565b6104af6106a3366004614f8d565b611588565b6104af6106b6366004614781565b6115bb565b6104af6106c9366004614781565b611642565b6104c46106dc366004614781565b6001600160a01b0316301490565b6105016106f8366004615031565b6116a2565b6104af61070b366004615031565b611702565b61072361071e3660046150c9565b61174d565b6040516104d092919061533e565b61074461073f366004615049565b611765565b6040519081526020016104d0565b610744610760366004615031565b6000908152610100602052604090205490565b6104af610781366004615031565b6117a7565b610744610794366004614781565b611836565b6104af6107a7366004614781565b6118bc565b6104af611963565b6104af6107c2366004614781565b6119e9565b6107446107d5366004614781565b611a98565b6104af6107e8366004614781565b611ac9565b610744606481565b6104af6108033660046149b2565b611b68565b6104af610816366004614e28565b611bb1565b610744601481565b6104e1611c08565b6104af610839366004614ec7565b611c17565b6104af61084c366004614cd8565b611c9d565b6104af61085f36600461490a565b611e20565b6104e16040518060400160405280600d81526020016c554e533a20526567697374727960981b81525081565b6104c461089e366004614fd2565b611e32565b6104af6108b1366004614987565b611e7d565b6104af6108c4366004614cd8565b611ef5565b6104af6108d7366004614a0b565b611fa1565b6105016108ea366004615031565b61202a565b6104af6108fd366004614b97565b612054565b610915610910366004614c8f565b612104565b6040516104d092919061529f565b6104af6109313660046148a1565b61226c565b6104e1610944366004615031565b6122e6565b6104af610957366004614781565b612388565b6104e161096a366004615031565b612502565b6104af61097d3660046149b2565b612568565b6104af610990366004614c1f565b6125f2565b6104af6109a3366004614935565b612664565b6104af6109b63660046149b2565b612741565b6104c46109c93660046147b9565b6001600160a01b039182166000908152606a6020908152604080832093909416825291909152205460ff1690565b6000610744565b6104af610a0c366004614c1f565b6127bd565b6104af610a1f366004614abc565b61282f565b6104af6128bd565b610744600181565b61056b610a42366004614cd8565b6128ff565b6104e160405180604001604052806005815260200164302e352e3160d81b81525081565b366000610a766129dc565b915091509091565b6060600080846001600160a01b031684604051610a9b9190615193565b600060405180830381855af49150503d8060008114610ad6576040519150601f19603f3d011682016040523d82523d6000602084013e610adb565b606091505b5091509150610b0682826040518060400160405280600381526020016231313160e81b815250612a0b565b925050505b92915050565b610134546001600160a01b0316610b26612a44565b6001600160a01b031614610b555760405162461bcd60e51b8152600401610b4c90615435565b60405180910390fd5b60646000526101386020527f8723189d283a1dc22580de90fc8ad0f2a3955bc33dad6eeded3a75814f64023080546001600160a01b0319166001600160a01b0392909216919091179055565b6000610b0b82612a53565b606060658054610bbb906156d3565b80601f0160208091040260200160405190810160405280929190818152602001828054610be7906156d3565b8015610c345780601f10610c0957610100808354040283529160200191610c34565b820191906000526020600020905b815481529060010190602001808311610c1757829003601f168201915b5050505050905090565b6000610c4982612aa3565b506000908152606960205260409020546001600160a01b031690565b8030331415610c9957610c76612b02565b8114610c945760405162461bcd60e51b8152600401610b4c9061547c565b610ca2565b610ca281612b17565b610cac8383612b45565b505050565b60007f8ffb960699dc2ba88f34d0e41c029c3c36c95149679fe1d0153a9582bec92378546001600160a01b0316610ce6612a44565b6001600160a01b03161415610da857610cfd612a44565b6001600160a01b03166342966c68856040518263ffffffff1660e01b8152600401610d2a91815260200190565b600060405180830381600087803b158015610d4457600080fd5b505af1158015610d58573d6000803e3d6000fd5b505050821580159150610d725750610d7282840184614dbe565b15610d9057610d813085612c68565b610d8b8585612db6565b610d9a565b610d9a8585612c68565b50630a85bd0160e11b610dfe565b60405162461bcd60e51b815260206004820152602560248201527f52656769737472793a204552433732315f524543454956494e475f50524f4849604482015264109255115160da1b6064820152608401610b4c565b95945050505050565b6060826001600160401b03811115610e2f57634e487b7160e01b600052604160045260246000fd5b604051908082528060200260200182016040528015610e6257816020015b6060815260200190600190039081610e4d5790505b50905060005b83811015610f1f57610ee1858583818110610e9357634e487b7160e01b600052603260045260246000fd5b9050602002810190610ea59190615540565b8080601f016020809104026020016040519081016040528093929190818152602001838380828437600092019190915250879250612e57915050565b828281518110610f0157634e487b7160e01b600052603260045260246000fd5b60200260200101819052508080610f1790615708565b915050610e68565b509392505050565b6060610f6a84848080601f016020809104026020016040519081016040528093929190818152602001838380828437600092019190915250869250612e57915050565b949350505050565b606060005a9050610f84858585611e32565b610fe05760405162461bcd60e51b815260206004820152602760248201527f554e535265676973747279466f727761726465723a205349474e41545552455f6044820152661253959053125160ca1b6064820152608401610b4c565b611072610ff06020870187614781565b3060408801358461100460608b018b615540565b8080601f01602080910402602001604051908101604052809392919081815260200183838082843760009201919091525050604080516020601f8e018190048102820181019092528c815292508c91508b9081908401838280828437600092019190915250612e8c92505050565b9150505b9392505050565b8061108f611089612a44565b82612f7b565b6110ab5760405162461bcd60e51b8152600401610b4c9061539a565b81303314156110df576110bc612b02565b81146110da5760405162461bcd60e51b8152600401610b4c9061547c565b6110e8565b6110e881612b17565b6110f183612ff9565b6110fc858585613066565b5050505050565b8061110f611089612a44565b61112b5760405162461bcd60e51b8152600401610b4c9061539a565b813033141561115f5761113c612b02565b811461115a5760405162461bcd60e51b8152600401610b4c9061547c565b611168565b61116881612b17565b611175878787878761320d565b50505050505050565b611187816116a2565b6001600160a01b0316611198612a44565b6001600160a01b0316146111ee5760405162461bcd60e51b815260206004820152601d60248201527f52656769737472793a20494e56414c49445f544f4b454e5f4f574e45520000006044820152606401610b4c565b6111f78161328c565b50565b80611206611089612a44565b6112225760405162461bcd60e51b8152600401610b4c9061539a565b813033141561125657611233612b02565b81146112515760405162461bcd60e51b8152600401610b4c9061547c565b61125f565b61125f81612b17565b610cac83612ff9565b80611271612a44565b6001600160a01b0316611283826116a2565b6001600160a01b0316146112a95760405162461bcd60e51b8152600401610b4c90615363565b81303314156112dd576112ba612b02565b81146112d85760405162461bcd60e51b8152600401610b4c9061547c565b6112e6565b6112e681612b17565b60016000526101386020527fb0eddd8865910728a90337cb025204a1a4e1d4c254f617ee98edd09c6b3128b354611328906001600160a01b031661045f610a6b565b50505050565b611336613333565b6001600160a01b0316611347612a44565b6001600160a01b03161461136d5760405162461bcd60e51b8152600401610b4c906154fe565b6113778282612c68565b5050565b610cac8383836040518060200160405280600081525061226c565b806113a2611089612a44565b6113be5760405162461bcd60e51b8152600401610b4c9061539a565b81303314156113f2576113cf612b02565b81146113ed5760405162461bcd60e51b8152600401610b4c9061547c565b6113fb565b6113fb81612b17565b61140483612ff9565b610cac8361328c565b60006110768383612f7b565b610134546001600160a01b031661142e612a44565b6001600160a01b0316146114545760405162461bcd60e51b8152600401610b4c90615435565b611474888888888888888860405180602001604052806000815250613446565b5050505050505050565b8061148a611089612a44565b6114a65760405162461bcd60e51b8152600401610b4c9061539a565b81303314156114da576114b7612b02565b81146114d55760405162461bcd60e51b8152600401610b4c9061547c565b6114e3565b6114e381612b17565b61117587878787876134a1565b806114fc611089612a44565b6115185760405162461bcd60e51b8152600401610b4c9061539a565b813033141561154c57611529612b02565b81146115475760405162461bcd60e51b8152600401610b4c9061547c565b611555565b61155581612b17565b61156186868686613580565b505050505050565b6000818152606760205260408120546001600160a01b03161515610b0b565b6111f78160405160200161159c9190615193565b6040516020818303038152906040528051906020012060001c82613620565b610134546001600160a01b03166115d0612a44565b6001600160a01b0316146115f65760405162461bcd60e51b8152600401610b4c90615435565b60016000526101386020527fb0eddd8865910728a90337cb025204a1a4e1d4c254f617ee98edd09c6b3128b380546001600160a01b0319166001600160a01b0392909216919091179055565b610134546001600160a01b0316611657612a44565b6001600160a01b03161461167d5760405162461bcd60e51b8152600401610b4c90615435565b6001600160a01b0316600090815261013660205260409020805460ff19166001179055565b6000818152606760205260408120546001600160a01b031680610b0b5760405162461bcd60e51b8152602060048201526018602482015277115490cdcc8c4e881a5b9d985b1a59081d1bdad95b88125160421b6044820152606401610b4c565b8061170e611089612a44565b61172a5760405162461bcd60e51b8152600401610b4c9061539a565b61173c611735612a44565b3084613066565b611377611747612a44565b83612db6565b60608061175a848461364c565b909590945092505050565b6000610f6a8484848080601f01602080910402602001604051908101604052809392919081815260200183838082843760009201919091525061366d92505050565b806117b0612a44565b6001600160a01b03166117c2826116a2565b6001600160a01b0316146117e85760405162461bcd60e51b8152600401610b4c90615363565b813033141561181c576117f9612b02565b81146118175760405162461bcd60e51b8152600401610b4c9061547c565b611825565b61182581612b17565b610cac611830612a44565b8461371a565b60006001600160a01b0382166118a05760405162461bcd60e51b815260206004820152602960248201527f4552433732313a2061646472657373207a65726f206973206e6f7420612076616044820152683634b21037bbb732b960b91b6064820152608401610b4c565b506001600160a01b031660009081526068602052604090205490565b6000805160206157a5833981519152546001600160a01b0316156119315760405162461bcd60e51b815260206004820152602660248201527f52656769737472793a20524f4f545f434841494e5f4d414e454745525f4e4f546044820152655f454d50545960d01b6064820152608401610b4c565b806000805160206157a58339815191525b80546001600160a01b0319166001600160a01b039290921691909117905550565b600061196d612a44565b6001600160a01b038116600090815261013560205260409020549091506119e05760405162461bcd60e51b815260206004820152602160248201527f52656769737472793a20524556455253455f5245434f52445f49535f454d50546044820152605960f81b6064820152608401610b4c565b6111f781613762565b7f8bea9a6f8afd34f4e29c585f854e0cc5161431bf5fc299d468454d33dce53b87546001600160a01b031615611a715760405162461bcd60e51b815260206004820152602760248201527f52656769737472793a204348494c445f434841494e5f4d414e454745525f4e4f604482015266545f454d50545960c81b6064820152608401610b4c565b807f8bea9a6f8afd34f4e29c585f854e0cc5161431bf5fc299d468454d33dce53b87611942565b6001600160a01b03811660009081526101356020526040812054611abb816137a7565b611ac3578091505b50919050565b7f8ffb960699dc2ba88f34d0e41c029c3c36c95149679fe1d0153a9582bec92378546001600160a01b031615611b415760405162461bcd60e51b815260206004820181905260248201527f52656769737472793a20434e535f52454749535452595f4e4f545f454d5054596044820152606401610b4c565b807f8ffb960699dc2ba88f34d0e41c029c3c36c95149679fe1d0153a9582bec92378611942565b611b70613333565b6001600160a01b0316611b81612a44565b6001600160a01b031614611ba75760405162461bcd60e51b8152600401610b4c906154fe565b6113288484612c68565b611bbb87876137f1565b611bc3612a44565b6001600160a01b0316611bd5866116a2565b6001600160a01b031614611bfb5760405162461bcd60e51b8152600401610b4c90615363565b6111758484848489613860565b606060668054610bbb906156d3565b610134546001600160a01b0316611c2c612a44565b6001600160a01b031614611c525760405162461bcd60e51b8152600401610b4c90615435565b611c5f6101338383614561565b507f4b120d6a959a84a520fa48f5f937cca0e79129423487af7901213b5d2e89313b8282604051611c91929190615317565b60405180910390a15050565b806014811115611cef5760405162461bcd60e51b815260206004820152601d60248201527f52656769737472793a20455843454544535f42415443485f4c494d49540000006044820152606401610b4c565b60005b81811015611dd0576000848483818110611d1c57634e487b7160e01b600052603260045260246000fd5b905060200201359050611d2e816116a2565b6001600160a01b0316611d3f612a44565b6001600160a01b03161481604051602001611d8691907f52656769737472793a20494e56414c49445f544f4b454e5f4f574e45522000008152601e810191909152603e0190565b60405160208183030381529060405290611db35760405162461bcd60e51b8152600401610b4c919061532b565b50611dbd8161328c565b5080611dc881615708565b915050611cf2565b50611dd9612a44565b6001600160a01b03167ff871896b17e9cb7a64941c62c188a4f5c621b86800e3d15452ece01ce56073df8484604051611e139291906152c4565b60405180910390a2505050565b611377611e2b612a44565b83836138ea565b6000610f6a611e408561561f565b3085858080601f0160208091040260200160405190810160405280939291908181526020018383808284376000920191909152506139b992505050565b80611e89611089612a44565b611ea55760405162461bcd60e51b8152600401610b4c9061539a565b8130331415611ed957611eb6612b02565b8114611ed45760405162461bcd60e51b8152600401610b4c9061547c565b611ee2565b611ee281612b17565b611328611eee846116a2565b8585613066565b610134546001600160a01b0316611f0a612a44565b6001600160a01b031614611f305760405162461bcd60e51b8152600401610b4c90615435565b60005b81811015610cac5760016101376000858585818110611f6257634e487b7160e01b600052603260045260246000fd5b90506020020135815260200190815260200160002060006101000a81548160ff0219169083151502179055508080611f9990615708565b915050611f33565b610134546001600160a01b0316611fb6612a44565b6001600160a01b031614611fdc5760405162461bcd60e51b8152600401610b4c90615435565b61201d888888888080601f016020809104026020016040519081016040528093929190818152602001838380828437600092019190915250613b1192505050565b611474848484848b613860565b6000818152606760205260408120546001600160a01b031661204d576000610b0b565b3092915050565b610134546001600160a01b0316612069612a44565b6001600160a01b03161461208f5760405162461bcd60e51b8152600401610b4c90615435565b611561868686868080601f01602080910402602001604051908101604052809392919081815260200183838082843760009201919091525050604080516020601f8a018190048102820181019092528881529250889150879081908401838280828437600092019190915250613b5d92505050565b606080836001600160401b0381111561212d57634e487b7160e01b600052604160045260246000fd5b60405190808252806020026020018201604052801561216057816020015b606081526020019060019003908161214b5790505b509150836001600160401b0381111561218957634e487b7160e01b600052604160045260246000fd5b6040519080825280602002602001820160405280156121bc57816020015b60608152602001906001900390816121a75790505b50905060005b84811015612263576121fa8686838181106121ed57634e487b7160e01b600052603260045260246000fd5b905060200201358561364c565b84838151811061221a57634e487b7160e01b600052603260045260246000fd5b6020026020010184848151811061224157634e487b7160e01b600052603260045260246000fd5b602002602001018290528290525050808061225b90615708565b9150506121c2565b50935093915050565b81612278611089612a44565b6122945760405162461bcd60e51b8152600401610b4c9061539a565b82303314156122c8576122a5612b02565b81146122c35760405162461bcd60e51b8152600401610b4c9061547c565b6122d1565b6122d181612b17565b6122da84612ff9565b61156186868686613baa565b600081815260c960205260409020805460609190612303906156d3565b80601f016020809104026020016040519081016040528092919081815260200182805461232f906156d3565b801561237c5780601f106123515761010080835404028352916020019161237c565b820191906000526020600020905b81548152906001019060200180831161235f57829003601f168201915b50505050509050919050565b600054610100900460ff16158080156123a85750600054600160ff909116105b806123c25750303b1580156123c2575060005460ff166001145b6124255760405162461bcd60e51b815260206004820152602e60248201527f496e697469616c697a61626c653a20636f6e747261637420697320616c72656160448201526d191e481a5b9a5d1a585b1a5e995960921b6064820152608401610b4c565b6000805460ff191660011790558015612448576000805461ff0019166101001790555b61013480546001600160a01b0319166001600160a01b0384161790556040805180820182526013815272556e73746f707061626c6520446f6d61696e7360681b60208083019190915282518084019093526002835261155160f21b908301526124b091613bdd565b6124b8613c2b565b6124c0613c2b565b8015611377576000805461ff0019169055604051600181527f7f26b83ff96e1f2b6a682f133852f6798a09c465da95921460cefb384740249890602001611c91565b606061250d82612aa3565b6000612517613c54565b905060008151116125375760405180602001604052806000815250611076565b8061254184613c64565b6040516020016125529291906151fe565b6040516020818303038152906040529392505050565b610134546001600160a01b031661257d612a44565b6001600160a01b0316146125a35760405162461bcd60e51b8152600401610b4c90615435565b611328848484848080601f016020809104026020016040519081016040528093929190818152602001838380828437600092018290525060408051602081019091529081529250613b5d915050565b806125fe611089612a44565b61261a5760405162461bcd60e51b8152600401610b4c9061539a565b813033141561264e5761262b612b02565b81146126495760405162461bcd60e51b8152600401610b4c9061547c565b612657565b61265781612b17565b6111758787878787613860565b7f8bea9a6f8afd34f4e29c585f854e0cc5161431bf5fc299d468454d33dce53b87546001600160a01b0316612697612a44565b6001600160a01b0316146126bd5760405162461bcd60e51b8152600401610b4c906154fe565b60208114156126e05760006126d482840184615031565b90506113288482612c68565b60006126ee82840184614d17565b805190915060005b818110156115615761272f8684838151811061272257634e487b7160e01b600052603260045260246000fd5b6020026020010151612c68565b8061273981615708565b9150506126f6565b610134546001600160a01b0316612756612a44565b6001600160a01b03161461277c5760405162461bcd60e51b8152600401610b4c90615435565b611328848484848080601f016020809104026020016040519081016040528093929190818152602001838380828437600092019190915250613b1192505050565b806127c9611089612a44565b6127e55760405162461bcd60e51b8152600401610b4c9061539a565b8130331415612819576127f6612b02565b81146128145760405162461bcd60e51b8152600401610b4c9061547c565b612822565b61282281612b17565b6111758787878787613d7d565b610134546001600160a01b0316612844612a44565b6001600160a01b03161461286a5760405162461bcd60e51b8152600401610b4c90615435565b6128b18a8a8a8a8a8a8a8a8a8a8080601f01602080910402602001604051908101604052809392919081815260200183838082843760009201919091525061344692505050565b50505050505050505050565b60016000526101386020527fb0eddd8865910728a90337cb025204a1a4e1d4c254f617ee98edd09c6b3128b3546111f7906001600160a01b031661045f610a6b565b6060816001600160401b0381111561292757634e487b7160e01b600052604160045260246000fd5b60405190808252806020026020018201604052801561295a57816020015b60608152602001906001900390816129455790505b50905060005b828110156129d55761299784848381811061298b57634e487b7160e01b600052603260045260246000fd5b905060200201356122e6565b8282815181106129b757634e487b7160e01b600052603260045260246000fd5b602002602001018190525080806129cd90615708565b915050612960565b5092915050565b36600030331415612a0357600080366129f6603482615608565b92610a76939291906155b4565b600036610a76565b60608315612a1a575081611076565b825115612a2a5782518084602001fd5b8160405162461bcd60e51b8152600401610b4c919061532b565b6000612a4e613d93565b905090565b60006001600160e01b031982166380ac58cd60e01b1480612a8457506001600160e01b03198216635b5e139f60e01b145b80610b0b57506301ffc9a760e01b6001600160e01b0319831614610b0b565b6000818152606760205260409020546001600160a01b03166111f75760405162461bcd60e51b8152602060048201526018602482015277115490cdcc8c4e881a5b9d985b1a59081d1bdad95b88125160421b6044820152606401610b4c565b600030331415612b145750601f193601355b90565b60008181526101006020526040902054612b329060016155dc565b6000918252610100602052604090912055565b6000612b50826116a2565b9050806001600160a01b0316836001600160a01b03161415612bbe5760405162461bcd60e51b815260206004820152602160248201527f4552433732313a20617070726f76616c20746f2063757272656e74206f776e656044820152603960f91b6064820152608401610b4c565b806001600160a01b0316612bd0612a44565b6001600160a01b03161480612bec5750612bec816109c9612a44565b612c5e5760405162461bcd60e51b815260206004820152603e60248201527f4552433732313a20617070726f76652063616c6c6572206973206e6f7420746f60448201527f6b656e206f776e6572206e6f7220617070726f76656420666f7220616c6c00006064820152608401610b4c565b610cac8383613daf565b6001600160a01b038216612cbe5760405162461bcd60e51b815260206004820181905260248201527f4552433732313a206d696e7420746f20746865207a65726f20616464726573736044820152606401610b4c565b6000818152606760205260409020546001600160a01b031615612d235760405162461bcd60e51b815260206004820152601c60248201527f4552433732313a20746f6b656e20616c7265616479206d696e746564000000006044820152606401610b4c565b612d2f60008383613e1d565b6001600160a01b0382166000908152606860205260408120805460019290612d589084906155dc565b909155505060008181526067602052604080822080546001600160a01b0319166001600160a01b03861690811790915590518392907fddf252ad1be2c89b69c2b068fc378daa952ba7f163c4a11628f55a4df523b3ef908290a45050565b6000612dc0613333565b9050612dcc8183613daf565b6000805160206157a583398151915254604080516020808201869052825180830390910181528183019283905263e3dec8fb60e01b9092526001600160a01b0390921691829163e3dec8fb91612e2991889130919060440161522d565b600060405180830381600087803b158015612e4357600080fd5b505af1158015611474573d6000803e3d6000fd5b606061107683604051602001612e6d9190615193565b6040516020818303038152906040528051906020012060001c83613eba565b6060612e9785612b17565b600080876001600160a01b031686612eb18b8a8989613f9c565b604051612ebe9190615193565b60006040518083038160008787f1925050503d8060008114612efc576040519150601f19603f3d011682016040523d82523d6000602084013e612f01565b606091505b509092509050612f12603f876155f4565b5a11612f2e57634e487b7160e01b600052600160045260246000fd5b612f6e82826040518060400160405280601a81526020017f42617365466f727761726465723a2043414c4c5f4641494c4544000000000000815250612a0b565b9998505050505050505050565b600080612f87836116a2565b9050806001600160a01b0316846001600160a01b03161480612fce57506001600160a01b038082166000908152606a602090815260408083209388168352929052205460ff165b80610f6a5750836001600160a01b0316612fe784610c3e565b6001600160a01b031614949350505050565b61300281613fcc565b60405160200161301491815260200190565b60408051601f198184030181528282528051602091820120600085815260cb9092529181209190915582917f185c30856dadb58bf097c1f665a52ada7029752dbcad008ea3fefc73bee8c9fe9190a250565b826001600160a01b0316613079826116a2565b6001600160a01b0316146130dd5760405162461bcd60e51b815260206004820152602560248201527f4552433732313a207472616e736665722066726f6d20696e636f72726563742060448201526437bbb732b960d91b6064820152608401610b4c565b6001600160a01b03821661313f5760405162461bcd60e51b8152602060048201526024808201527f4552433732313a207472616e7366657220746f20746865207a65726f206164646044820152637265737360e01b6064820152608401610b4c565b61314a838383613e1d565b613155600082613daf565b6001600160a01b038316600090815260686020526040812080546001929061317e908490615608565b90915550506001600160a01b03821660009081526068602052604081208054600192906131ac9084906155dc565b909155505060008181526067602052604080822080546001600160a01b0319166001600160a01b0386811691821790925591518493918716917fddf252ad1be2c89b69c2b068fc378daa952ba7f163c4a11628f55a4df523b3ef91a4505050565b60005b848110156115615761327a86868381811061323b57634e487b7160e01b600052603260045260246000fd5b9050602002013585858481811061326257634e487b7160e01b600052603260045260246000fd5b90506020028101906132749190615540565b85613580565b8061328481615708565b915050613210565b6000613297826116a2565b90506132a581600084613e1d565b6132b0600083613daf565b6001600160a01b03811660009081526068602052604081208054600192906132d9908490615608565b909155505060008281526067602052604080822080546001600160a01b0319169055518391906001600160a01b038416907fddf252ad1be2c89b69c2b068fc378daa952ba7f163c4a11628f55a4df523b3ef908390a45050565b6000806000805160206157a58339815191525460405163721804d360e11b81523060048201526001600160a01b039091169150600090829063e43009a69060240160206040518083038186803b15801561338c57600080fd5b505afa1580156133a0573d6000803e3d6000fd5b505050506040513d601f19601f820116820180604052508101906133c49190614dd8565b60405163e66f960360e01b8152600481018290529091506001600160a01b0383169063e66f96039060240160206040518083038186803b15801561340757600080fd5b505afa15801561341b573d6000803e3d6000fd5b505050506040513d601f19601f8201168201806040525081019061343f919061479d565b9250505090565b613489898989898080601f016020809104026020016040519081016040528093929190818152602001838380828437600092019190915250879250613b5d915050565b613496858585858c613860565b505050505050505050565b600085856040516020016134b69291906151ee565b60408051601f198184030181528282528051602091820120601f890182900482028401820190925287835290925061350a918391899089908190840183828082843760009201919091525061362092505050565b6115618187878080601f01602080910402602001604051908101604052809392919081815260200183838082843760009201919091525050604080516020601f8b018190048102820181019092528981529250899150889081908401838280828437600092019190915250889250613ff8915050565b61358984614133565b6135d55760405162461bcd60e51b815260206004820152601c60248201527f5265636f726453746f726167653a204b45595f4e4f545f464f554e44000000006044820152606401610b4c565b611328846135e2866122e6565b85858080601f016020809104026020016040519081016040528093929190818152602001838380828437600092019190915250879250613ff8915050565b61362982614133565b61137757600082815260c9602090815260409091208251610cac928401906145e1565b606080613658846122e6565b91506136648484613eba565b90509250929050565b60008151600014156136b95760405162461bcd60e51b815260206004820152601560248201527452656769737472793a204c4142454c5f454d50545960581b6044820152606401610b4c565b82826040516020016136cb9190615193565b604051602081830303815290604052805190602001206040516020016136fb929190918252602082015260400190565b60408051601f1981840301815291905280516020909101209392505050565b6001600160a01b03821660008181526101356020526040808220849055518392917feb76a21470988c474a21f690cc28fee1ed511bd812dc3c21fd0f49c5e5d4708a91a35050565b6001600160a01b03811660008181526101356020526040808220829055517ffcf5eec0cfa3e6332f5f0e63ec242d71f866a61d121d6cdf5c2eb3b668a26c4f9190a250565b6000818152610137602052604081205460ff168015610b0b575061013660006137ce612a44565b6001600160a01b0316815260208101919091526040016000205460ff1692915050565b6000805160206157a583398151915254604051633805550f60e01b81526001600160a01b03909116908190633805550f906138329086908690600401615317565b600060405180830381600087803b15801561384c57600080fd5b505af1158015611175573d6000803e3d6000fd5b60005b84811015611561576138d886868381811061388e57634e487b7160e01b600052603260045260246000fd5b90506020028101906138a09190615540565b8686858181106138c057634e487b7160e01b600052603260045260246000fd5b90506020028101906138d29190615540565b866134a1565b806138e281615708565b915050613863565b816001600160a01b0316836001600160a01b0316141561394c5760405162461bcd60e51b815260206004820152601960248201527f4552433732313a20617070726f766520746f2063616c6c6572000000000000006044820152606401610b4c565b6001600160a01b038381166000818152606a6020908152604080832094871680845294825291829020805460ff191686151590811790915591519182527f17307eab39ab6107e8899845ad3d59bd9653f200f220920489ca2b5937696c31910160405180910390a3505050565b6040838101519051636ccbae5f60e01b8152600481019190915260009081903090636ccbae5f9060240160206040518083038186803b1580156139fb57600080fd5b505afa158015613a0f573d6000803e3d6000fd5b505050506040513d601f19601f82011682018060405250810190613a339190614dd8565b90506000613ae1866060015180519060200120868860200151604051602001613a819392919092835260609190911b6bffffffffffffffffffffffff19166020830152603482015260540190565b60408051601f1981840301815282825280516020918201207f19457468657265756d205369676e6564204d6573736167653a0a33320000000084830152603c8085019190915282518085039091018152605c909301909152815191012090565b9050818660200151148015613b0757508551613b07906001600160a01b03168286614159565b9695505050505050565b613b1b8383612c68565b817fc5beef08f693b11c316c0c8394a377a0033c9cf701b8cd8afd79cecef60c395282604051613b4b919061532b565b60405180910390a2610cac83836142a9565b613b688484836142ea565b827fc5beef08f693b11c316c0c8394a377a0033c9cf701b8cd8afd79cecef60c395283604051613b98919061532b565b60405180910390a261132884846142a9565b613bb5848484613066565b613bc18484848461431d565b6113285760405162461bcd60e51b8152600401610b4c906153e3565b600054610100900460ff16613c045760405162461bcd60e51b8152600401610b4c906154b3565b8151613c179060659060208501906145e1565b508051610cac9060669060208401906145e1565b600054610100900460ff16613c525760405162461bcd60e51b8152600401610b4c906154b3565b565b60606101338054610bbb906156d3565b606081613c885750506040805180820190915260018152600360fc1b602082015290565b8160005b8115613cb25780613c9c81615708565b9150613cab9050600a836155f4565b9150613c8c565b6000816001600160401b03811115613cda57634e487b7160e01b600052604160045260246000fd5b6040519080825280601f01601f191660200182016040528015613d04576020820181803683370190505b5090505b8415610f6a57613d19600183615608565b9150613d26600a86615723565b613d319060306155dc565b60f81b818381518110613d5457634e487b7160e01b600052603260045260246000fd5b60200101906001600160f81b031916908160001a905350613d76600a866155f4565b9450613d08565b613d8681612ff9565b6110fc8585858585613860565b600030331415613daa575060331936013560601c90565b503390565b600081815260696020526040902080546001600160a01b0319166001600160a01b0384169081179091558190613de4826116a2565b6001600160a01b03167f8c5be1e5ebec7d5bd14f71427d1e84f3dd0314c0f7b2291e5b200ac8c7c3b92560405160405180910390a45050565b6000818152610137602052604090205460ff161580613e4457506001600160a01b03821615155b613e905760405162461bcd60e51b815260206004820152601860248201527f52656769737472793a20544f4b454e5f555047524144454400000000000000006044820152606401610b4c565b6001600160a01b03831660009081526101356020526040902054811415610cac57610cac83613762565b6060613ec5826137a7565b15613edf5750604080516020810190915260008152610b0b565b60ca6000613eec84613fcc565b815260200190815260200160002060008481526020019081526020016000208054613f16906156d3565b80601f0160208091040260200160405190810160405280929190818152602001828054613f42906156d3565b8015613f8f5780601f10613f6457610100808354040283529160200191613f8f565b820191906000526020600020905b815481529060010190602001808311613f7257829003601f168201915b5050505050905092915050565b6060828585604051602001613fb3939291906151af565b6040516020818303038152906040529050949350505050565b600081815260cb602052604081205415613ff457600082815260cb6020526040902054610b0b565b5090565b60ca600061400583613fcc565b81526020019081526020016000206000858152602001908152602001600020805461402f906156d3565b1515905061408657826040516140459190615193565b6040518091039020817f7ae4f661958fbecc2f77be6b0eb280d2a6f604b29e1e7221c82b9da0c4af7f868560405161407d919061532b565b60405180910390a35b8160ca600061409484613fcc565b8152602001908152602001600020600086815260200190815260200160002090805190602001906140c69291906145e1565b50816040516140d59190615193565b6040518091039020836040516140eb9190615193565b6040518091039020827f851ffe8e74d5015261dba0a1f9e1b0e5d42c5af5d2ad1908fee897c7d80a0d92868660405161412592919061533e565b60405180910390a450505050565b600081815260c960205260408120805482919061414f906156d3565b9050119050919050565b6000806000614168858561442e565b9092509050600081600481111561418f57634e487b7160e01b600052602160045260246000fd5b1480156141ad5750856001600160a01b0316826001600160a01b0316145b156141bd57600192505050611076565b600080876001600160a01b0316631626ba7e60e01b88886040516024016141e59291906152fe565b60408051601f198184030181529181526020820180516001600160e01b03166001600160e01b03199094169390931790925290516142239190615193565b600060405180830381855afa9150503d806000811461425e576040519150601f19603f3d011682016040523d82523d6000602084013e614263565b606091505b5091509150818015614276575080516020145b801561429d57508051630b135d3f60e11b9061429b9083016020908101908401614dd8565b145b98975050505050505050565b61dead6001600160a01b038316148015906142db57506001600160a01b03821660009081526101356020526040902054155b1561137757611377828261371a565b6142f48383612c68565b614301600084848461431d565b610cac5760405162461bcd60e51b8152600401610b4c906153e3565b60006001600160a01b0384163b1561442657836001600160a01b031663150b7a02614346612a44565b8786866040518563ffffffff1660e01b81526004016143689493929190615259565b602060405180830381600087803b15801561438257600080fd5b505af19250505080156143b2575060408051601f3d908101601f191682019092526143af91810190614e0c565b60015b61440c573d8080156143e0576040519150601f19603f3d011682016040523d82523d6000602084013e6143e5565b606091505b5080516144045760405162461bcd60e51b8152600401610b4c906153e3565b805181602001fd5b6001600160e01b031916630a85bd0160e11b149050610f6a565b506001610f6a565b6000808251604114156144655760208301516040840151606085015160001a61445987828585614474565b9450945050505061446d565b506000905060025b9250929050565b6000807f7fffffffffffffffffffffffffffffff5d576e7357a4501ddfe92f46681b20a08311156144ab5750600090506003614558565b8460ff16601b141580156144c357508460ff16601c14155b156144d45750600090506004614558565b6040805160008082526020820180845289905260ff881692820192909252606081018690526080810185905260019060a0016020604051602081039080840390855afa158015614528573d6000803e3d6000fd5b5050604051601f1901519150506001600160a01b03811661455157600060019250925050614558565b9150600090505b94509492505050565b82805461456d906156d3565b90600052602060002090601f01602090048101928261458f57600085556145d5565b82601f106145a85782800160ff198235161785556145d5565b828001600101855582156145d5579182015b828111156145d55782358255916020019190600101906145ba565b50613ff4929150614655565b8280546145ed906156d3565b90600052602060002090601f01602090048101928261460f57600085556145d5565b82601f1061462857805160ff19168380011785556145d5565b828001600101855582156145d5579182015b828111156145d557825182559160200191906001019061463a565b5b80821115613ff45760008155600101614656565b60006001600160401b0383111561468357614683615763565b614696601f8401601f1916602001615584565b90508281528383830111156146aa57600080fd5b828260208301376000602084830101529392505050565b80356146cc81615779565b919050565b60008083601f8401126146e2578182fd5b5081356001600160401b038111156146f8578182fd5b6020830191508360208260051b850101111561446d57600080fd5b803580151581146146cc57600080fd5b60008083601f840112614734578182fd5b5081356001600160401b0381111561474a578182fd5b60208301915083602082850101111561446d57600080fd5b600082601f830112614772578081fd5b6110768383356020850161466a565b600060208284031215614792578081fd5b813561107681615779565b6000602082840312156147ae578081fd5b815161107681615779565b600080604083850312156147cb578081fd5b82356147d681615779565b915060208301356147e681615779565b809150509250929050565b600080600060608486031215614805578081fd5b833561481081615779565b9250602084013561482081615779565b929592945050506040919091013590565b600080600080600060808688031215614848578081fd5b853561485381615779565b9450602086013561486381615779565b93506040860135925060608601356001600160401b03811115614884578182fd5b61489088828901614723565b969995985093965092949392505050565b600080600080608085870312156148b6578182fd5b84356148c181615779565b935060208501356148d181615779565b92506040850135915060608501356001600160401b038111156148f2578182fd5b6148fe87828801614762565b91505092959194509250565b6000806040838503121561491c578182fd5b823561492781615779565b915061366460208401614713565b600080600060408486031215614949578081fd5b833561495481615779565b925060208401356001600160401b0381111561496e578182fd5b61497a86828701614723565b9497909650939450505050565b60008060408385031215614999578182fd5b82356149a481615779565b946020939093013593505050565b600080600080606085870312156149c7578182fd5b84356149d281615779565b93506020850135925060408501356001600160401b038111156149f3578283fd5b6149ff87828801614723565b95989497509550505050565b60008060008060008060008060a0898b031215614a26578586fd5b8835614a3181615779565b97506020890135965060408901356001600160401b0380821115614a53578788fd5b614a5f8c838d01614723565b909850965060608b0135915080821115614a77578485fd5b614a838c838d016146d1565b909650945060808b0135915080821115614a9b578384fd5b50614aa88b828c016146d1565b999c989b5096995094979396929594505050565b60008060008060008060008060008060c08b8d031215614ada578384fd5b614ae38b6146c1565b995060208b0135985060408b01356001600160401b0380821115614b05578586fd5b614b118e838f01614723565b909a50985060608d0135915080821115614b29578586fd5b614b358e838f016146d1565b909850965060808d0135915080821115614b4d578586fd5b614b598e838f016146d1565b909650945060a08d0135915080821115614b71578384fd5b50614b7e8d828e01614723565b915080935050809150509295989b9194979a5092959850565b60008060008060008060808789031215614baf578384fd5b8635614bba81615779565b95506020870135945060408701356001600160401b0380821115614bdc578586fd5b614be88a838b01614723565b90965094506060890135915080821115614c00578384fd5b50614c0d89828a01614723565b979a9699509497509295939492505050565b600080600080600060608688031215614c36578283fd5b85356001600160401b0380821115614c4c578485fd5b614c5889838a016146d1565b90975095506020880135915080821115614c70578485fd5b50614c7d888289016146d1565b96999598509660400135949350505050565b600080600060408486031215614ca3578081fd5b83356001600160401b03811115614cb8578182fd5b614cc4868287016146d1565b909790965060209590950135949350505050565b60008060208385031215614cea578182fd5b82356001600160401b03811115614cff578283fd5b614d0b858286016146d1565b90969095509350505050565b60006020808385031215614d29578182fd5b82356001600160401b0380821115614d3f578384fd5b818501915085601f830112614d52578384fd5b813581811115614d6457614d64615763565b8060051b9150614d75848301615584565b8181528481019084860184860187018a1015614d8f578788fd5b8795505b83861015614db1578035835260019590950194918601918601614d93565b5098975050505050505050565b600060208284031215614dcf578081fd5b61107682614713565b600060208284031215614de9578081fd5b5051919050565b600060208284031215614e01578081fd5b81356110768161578e565b600060208284031215614e1d578081fd5b81516110768161578e565b60008060008060008060006080888a031215614e42578081fd5b87356001600160401b0380821115614e58578283fd5b614e648b838c01614723565b909950975060208a0135965060408a0135915080821115614e83578283fd5b614e8f8b838c016146d1565b909650945060608a0135915080821115614ea7578283fd5b50614eb48a828b016146d1565b989b979a50959850939692959293505050565b60008060208385031215614ed9578182fd5b82356001600160401b03811115614eee578283fd5b614d0b85828601614723565b600080600080600060608688031215614f11578283fd5b85356001600160401b0380821115614f27578485fd5b614f3389838a01614723565b90975095506020880135915080821115614f4b578485fd5b50614c7d88828901614723565b600080600060408486031215614f6c578081fd5b83356001600160401b03811115614f81578182fd5b614cc486828701614723565b600060208284031215614f9e578081fd5b81356001600160401b03811115614fb3578182fd5b8201601f81018413614fc3578182fd5b610f6a8482356020840161466a565b600080600060408486031215614fe6578081fd5b83356001600160401b0380821115614ffc578283fd5b908501906080828803121561500f578283fd5b90935060208501359080821115615024578283fd5b5061497a86828701614723565b600060208284031215615042578081fd5b5035919050565b60008060006040848603121561505d578081fd5b8335925060208401356001600160401b0381111561496e578182fd5b6000806000806060858703121561508e578182fd5b8435935060208501356001600160401b038111156150aa578283fd5b6150b687828801614723565b9598909750949560400135949350505050565b600080604083850312156150db578182fd5b50508035926020909101359150565b600081518084526020808501808196508360051b81019150828601855b8581101561513157828403895261511f848351615167565b98850198935090840190600101615107565b5091979650505050505050565b81835281816020850137506000828201602090810191909152601f909101601f19169091010190565b6000815180845261517f8160208601602086016156a7565b601f01601f19169290920160200192915050565b600082516151a58184602087016156a7565b9190910192915050565b600084516151c18184602089016156a7565b60609490941b6bffffffffffffffffffffffff191691909301908152601481019190915260340192915050565b8183823760009101908152919050565b600083516152108184602088016156a7565b8351908301906152248183602088016156a7565b01949350505050565b6001600160a01b03848116825283166020820152606060408201819052600090610dfe90830184615167565b6001600160a01b0385811682528416602082015260408101839052608060608201819052600090613b0790830184615167565b60208152600061107660208301846150ea565b6040815260006152b260408301856150ea565b828103602084015261107281856150ea565b6020808252810182905260006001600160fb1b038311156152e3578081fd5b8260051b808560408501379190910160400190815292915050565b828152604060208201526000610f6a6040830184615167565b602081526000610f6a60208301848661513e565b6020815260006110766020830184615167565b6040815260006153516040830185615167565b82810360208401526110728185615167565b6020808252601d908201527f52656769737472793a2053454e4445525f49535f4e4f545f4f574e4552000000604082015260600190565b60208082526029908201527f52656769737472793a2053454e4445525f49535f4e4f545f415050524f5645446040820152682fa7a92fa7aba722a960b91b606082015260800190565b60208082526032908201527f4552433732313a207472616e7366657220746f206e6f6e20455243373231526560408201527131b2b4bb32b91034b6b83632b6b2b73a32b960711b606082015260800190565b60208082526027908201527f52656769737472793a2053454e4445525f49535f4e4f545f4d494e54494e475f60408201526626a0a720a3a2a960c91b606082015260800190565b60208082526017908201527f52656769737472793a20544f4b454e5f494e56414c4944000000000000000000604082015260600190565b6020808252602b908201527f496e697469616c697a61626c653a20636f6e7472616374206973206e6f74206960408201526a6e697469616c697a696e6760a81b606082015260800190565b60208082526022908201527f52656769737472793a20494e53554646494349454e545f5045524d495353494f6040820152614e5360f01b606082015260800190565b6000808335601e19843603018112615556578283fd5b8301803591506001600160401b0382111561556f578283fd5b60200191503681900382131561446d57600080fd5b604051601f8201601f191681016001600160401b03811182821017156155ac576155ac615763565b604052919050565b600080858511156155c3578182fd5b838611156155cf578182fd5b5050820193919092039150565b600082198211156155ef576155ef615737565b500190565b6000826156035761560361574d565b500490565b60008282101561561a5761561a615737565b500390565b600060808236031215615630578081fd5b604051608081016001600160401b03828210818311171561565357615653615763565b816040528435915061566482615779565b8183526020850135602084015260408501356040840152606085013591508082111561568e578384fd5b5061569b36828601614762565b60608301525092915050565b60005b838110156156c25781810151838201526020016156aa565b838111156113285750506000910152565b600181811c908216806156e757607f821691505b60208210811415611ac357634e487b7160e01b600052602260045260246000fd5b600060001982141561571c5761571c615737565b5060010190565b6000826157325761573261574d565b500690565b634e487b7160e01b600052601160045260246000fd5b634e487b7160e01b600052601260045260246000fd5b634e487b7160e01b600052604160045260246000fd5b6001600160a01b03811681146111f757600080fd5b6001600160e01b0319811681146111f757600080fdfebe2bb46ac0377341a1ec5c3116d70fd5029d704bd46292e58f6265dd177ebafea164736f6c6343000804000a",
  "linkReferences": {},
  "deployedLinkReferences": {}
}