{
  "_format": "hh-sol-artifact-1",
  "contractName": "UNSRegistry",
  "sourceName": "contracts/UNSRegistry.sol",
  "abi": [
    {
      "anonymous": false,
      "inputs": [
        {
          "indexed": false,
          "internalType": "address",
          "name": "previousAdmin",
          "type": "address"
        },
        {
          "indexed": false,
          "internalType": "address",
          "name": "newAdmin",
          "type": "address"
        }
      ],
      "name": "AdminChanged",
      "type": "event"
    },
    {
      "anonymous": false,
      "inputs": [
        {
          "indexed": true,
          "internalType": "address",
          "name": "owner",
          "type": "address"
        },
        {
          "indexed": true,
          "internalType": "address",
          "name": "approved",
          "type": "address"
        },
        {
          "indexed": true,
          "internalType": "uint256",
          "name": "tokenId",
          "type": "uint256"
        }
      ],
      "name": "Approval",
      "type": "event"
    },
    {
      "anonymous": false,
      "inputs": [
        {
          "indexed": true,
          "internalType": "address",
          "name": "owner",
          "type": "address"
        },
        {
          "indexed": true,
          "internalType": "address",
          "name": "operator",
          "type": "address"
        },
        {
          "indexed": false,
          "internalType": "bool",
          "name": "approved",
          "type": "bool"
        }
      ],
      "name": "ApprovalForAll",
      "type": "event"
    },
    {
      "anonymous": false,
      "inputs": [
        {
          "indexed": true,
          "internalType": "uint256",
          "name": "tokenId",
          "type": "uint256"
        },
        {
          "indexed": true,
          "internalType": "string",
          "name": "keyIndex",
          "type": "string"
        },
        {
          "indexed": false,
          "internalType": "string",
          "name": "key",
          "type": "string"
        }
      ],
      "name": "NewKey",
      "type": "event"
    },
    {
      "anonymous": false,
      "inputs": [
        {
          "indexed": true,
          "internalType": "uint256",
          "name": "tokenId",
          "type": "uint256"
        },
        {
          "indexed": false,
          "internalType": "string",
          "name": "uri",
          "type": "string"
        }
      ],
      "name": "NewURI",
      "type": "event"
    },
    {
      "anonymous": false,
      "inputs": [
        {
          "indexed": false,
          "internalType": "string",
          "name": "prefix",
          "type": "string"
        }
      ],
      "name": "NewURIPrefix",
      "type": "event"
    },
    {
      "anonymous": false,
      "inputs": [
        {
          "indexed": true,
          "internalType": "uint256",
          "name": "tokenId",
          "type": "uint256"
        }
      ],
      "name": "ResetRecords",
      "type": "event"
    },
    {
      "anonymous": false,
      "inputs": [
        {
          "indexed": true,
          "internalType": "uint256",
          "name": "tokenId",
          "type": "uint256"
        },
        {
          "indexed": true,
          "internalType": "string",
          "name": "keyIndex",
          "type": "string"
        },
        {
          "indexed": true,
          "internalType": "string",
          "name": "valueIndex",
          "type": "string"
        },
        {
          "indexed": false,
          "internalType": "string",
          "name": "key",
          "type": "string"
        },
        {
          "indexed": false,
          "internalType": "string",
          "name": "value",
          "type": "string"
        }
      ],
      "name": "Set",
      "type": "event"
    },
    {
      "anonymous": false,
      "inputs": [
        {
          "indexed": true,
          "internalType": "address",
          "name": "from",
          "type": "address"
        },
        {
          "indexed": true,
          "internalType": "address",
          "name": "to",
          "type": "address"
        },
        {
          "indexed": true,
          "internalType": "uint256",
          "name": "tokenId",
          "type": "uint256"
        }
      ],
      "name": "Transfer",
      "type": "event"
    },
    {
      "anonymous": false,
      "inputs": [
        {
          "indexed": true,
          "internalType": "address",
          "name": "implementation",
          "type": "address"
        }
      ],
      "name": "Upgraded",
      "type": "event"
    },
    {
      "anonymous": false,
      "inputs": [
        {
          "indexed": true,
          "internalType": "address",
          "name": "user",
          "type": "address"
        },
        {
          "indexed": false,
          "internalType": "uint256[]",
          "name": "tokenIds",
          "type": "uint256[]"
        }
      ],
      "name": "WithdrawnBatch",
      "type": "event"
    },
    {
      "inputs": [],
      "name": "BATCH_LIMIT",
      "outputs": [
        {
          "internalType": "uint256",
          "name": "",
          "type": "uint256"
        }
      ],
      "stateMutability": "view",
      "type": "function"
    },
    {
      "inputs": [],
      "name": "NAME",
      "outputs": [
        {
          "internalType": "string",
          "name": "",
          "type": "string"
        }
      ],
      "stateMutability": "view",
      "type": "function"
    },
    {
      "inputs": [],
      "name": "VERSION",
      "outputs": [
        {
          "internalType": "string",
          "name": "",
          "type": "string"
        }
      ],
      "stateMutability": "view",
      "type": "function"
    },
    {
      "inputs": [
        {
          "internalType": "string",
          "name": "key",
          "type": "string"
        }
      ],
      "name": "addKey",
      "outputs": [],
      "stateMutability": "nonpayable",
      "type": "function"
    },
    {
      "inputs": [
        {
          "internalType": "address",
          "name": "to",
          "type": "address"
        },
        {
          "internalType": "uint256",
          "name": "tokenId",
          "type": "uint256"
        }
      ],
      "name": "approve",
      "outputs": [],
      "stateMutability": "nonpayable",
      "type": "function"
    },
    {
      "inputs": [
        {
          "internalType": "address",
          "name": "owner",
          "type": "address"
        }
      ],
      "name": "balanceOf",
      "outputs": [
        {
          "internalType": "uint256",
          "name": "",
          "type": "uint256"
        }
      ],
      "stateMutability": "view",
      "type": "function"
    },
    {
      "inputs": [
        {
          "internalType": "uint256",
          "name": "tokenId",
          "type": "uint256"
        }
      ],
      "name": "burn",
      "outputs": [],
      "stateMutability": "nonpayable",
      "type": "function"
    },
    {
      "inputs": [
        {
          "internalType": "uint256",
          "name": "tokenId",
          "type": "uint256"
        },
        {
          "internalType": "bytes",
          "name": "signature",
          "type": "bytes"
        }
      ],
      "name": "burnFor",
      "outputs": [],
      "stateMutability": "nonpayable",
      "type": "function"
    },
    {
      "inputs": [
        {
          "internalType": "uint256",
          "name": "tokenId",
          "type": "uint256"
        },
        {
          "internalType": "string",
          "name": "label",
          "type": "string"
        }
      ],
      "name": "childIdOf",
      "outputs": [
        {
          "internalType": "uint256",
          "name": "",
          "type": "uint256"
        }
      ],
      "stateMutability": "pure",
      "type": "function"
    },
    {
      "inputs": [
        {
          "internalType": "address",
          "name": "user",
          "type": "address"
        },
        {
          "internalType": "bytes",
          "name": "depositData",
          "type": "bytes"
        }
      ],
      "name": "deposit",
      "outputs": [],
      "stateMutability": "nonpayable",
      "type": "function"
    },
    {
      "inputs": [
        {
          "internalType": "uint256",
          "name": "tokenId",
          "type": "uint256"
        }
      ],
      "name": "depositToPolygon",
      "outputs": [],
      "stateMutability": "nonpayable",
      "type": "function"
    },
    {
      "inputs": [
        {
          "components": [
            {
              "internalType": "address",
              "name": "from",
              "type": "address"
            },
            {
              "internalType": "uint256",
              "name": "nonce",
              "type": "uint256"
            },
            {
              "internalType": "uint256",
              "name": "tokenId",
              "type": "uint256"
            },
            {
              "internalType": "bytes",
              "name": "data",
              "type": "bytes"
            }
          ],
          "internalType": "struct IForwarder.ForwardRequest",
          "name": "req",
          "type": "tuple"
        },
        {
          "internalType": "bytes",
          "name": "signature",
          "type": "bytes"
        }
      ],
      "name": "execute",
      "outputs": [
        {
          "internalType": "bytes",
          "name": "",
          "type": "bytes"
        }
      ],
      "stateMutability": "nonpayable",
      "type": "function"
    },
    {
      "inputs": [
        {
          "internalType": "uint256",
          "name": "tokenId",
          "type": "uint256"
        }
      ],
      "name": "exists",
      "outputs": [
        {
          "internalType": "bool",
          "name": "",
          "type": "bool"
        }
      ],
      "stateMutability": "view",
      "type": "function"
    },
    {
      "inputs": [
        {
          "internalType": "string",
          "name": "key",
          "type": "string"
        },
        {
          "internalType": "uint256",
          "name": "tokenId",
          "type": "uint256"
        }
      ],
      "name": "get",
      "outputs": [
        {
          "internalType": "string",
          "name": "value",
          "type": "string"
        }
      ],
      "stateMutability": "view",
      "type": "function"
    },
    {
      "inputs": [
        {
          "internalType": "uint256",
          "name": "tokenId",
          "type": "uint256"
        }
      ],
      "name": "getApproved",
      "outputs": [
        {
          "internalType": "address",
          "name": "",
          "type": "address"
        }
      ],
      "stateMutability": "view",
      "type": "function"
    },
    {
      "inputs": [
        {
          "internalType": "uint256",
          "name": "keyHash",
          "type": "uint256"
        },
        {
          "internalType": "uint256",
          "name": "tokenId",
          "type": "uint256"
        }
      ],
      "name": "getByHash",
      "outputs": [
        {
          "internalType": "string",
          "name": "key",
          "type": "string"
        },
        {
          "internalType": "string",
          "name": "value",
          "type": "string"
        }
      ],
      "stateMutability": "view",
      "type": "function"
    },
    {
      "inputs": [
        {
          "internalType": "uint256",
          "name": "keyHash",
          "type": "uint256"
        }
      ],
      "name": "getKey",
      "outputs": [
        {
          "internalType": "string",
          "name": "",
          "type": "string"
        }
      ],
      "stateMutability": "view",
      "type": "function"
    },
    {
      "inputs": [
        {
          "internalType": "uint256[]",
          "name": "hashes",
          "type": "uint256[]"
        }
      ],
      "name": "getKeys",
      "outputs": [
        {
          "internalType": "string[]",
          "name": "values",
          "type": "string[]"
        }
      ],
      "stateMutability": "view",
      "type": "function"
    },
    {
      "inputs": [
        {
          "internalType": "string[]",
          "name": "keys",
          "type": "string[]"
        },
        {
          "internalType": "uint256",
          "name": "tokenId",
          "type": "uint256"
        }
      ],
      "name": "getMany",
      "outputs": [
        {
          "internalType": "string[]",
          "name": "values",
          "type": "string[]"
        }
      ],
      "stateMutability": "view",
      "type": "function"
    },
    {
      "inputs": [
        {
          "internalType": "uint256[]",
          "name": "keyHashes",
          "type": "uint256[]"
        },
        {
          "internalType": "uint256",
          "name": "tokenId",
          "type": "uint256"
        }
      ],
      "name": "getManyByHash",
      "outputs": [
        {
          "internalType": "string[]",
          "name": "keys",
          "type": "string[]"
        },
        {
          "internalType": "string[]",
          "name": "values",
          "type": "string[]"
        }
      ],
      "stateMutability": "view",
      "type": "function"
    },
    {
      "inputs": [
        {
          "internalType": "address",
          "name": "mintingManager",
          "type": "address"
        }
      ],
      "name": "initialize",
      "outputs": [],
      "stateMutability": "nonpayable",
      "type": "function"
    },
    {
      "inputs": [
        {
          "internalType": "address",
          "name": "owner",
          "type": "address"
        },
        {
          "internalType": "address",
          "name": "operator",
          "type": "address"
        }
      ],
      "name": "isApprovedForAll",
      "outputs": [
        {
          "internalType": "bool",
          "name": "",
          "type": "bool"
        }
      ],
      "stateMutability": "view",
      "type": "function"
    },
    {
      "inputs": [
        {
          "internalType": "address",
          "name": "spender",
          "type": "address"
        },
        {
          "internalType": "uint256",
          "name": "tokenId",
          "type": "uint256"
        }
      ],
      "name": "isApprovedOrOwner",
      "outputs": [
        {
          "internalType": "bool",
          "name": "",
          "type": "bool"
        }
      ],
      "stateMutability": "view",
      "type": "function"
    },
    {
      "inputs": [
        {
          "internalType": "address",
          "name": "forwarder",
          "type": "address"
        }
      ],
      "name": "isTrustedForwarder",
      "outputs": [
        {
          "internalType": "bool",
          "name": "",
          "type": "bool"
        }
      ],
      "stateMutability": "view",
      "type": "function"
    },
    {
      "inputs": [
        {
          "internalType": "address",
          "name": "user",
          "type": "address"
        },
        {
          "internalType": "uint256",
          "name": "tokenId",
          "type": "uint256"
        }
      ],
      "name": "mint",
      "outputs": [],
      "stateMutability": "nonpayable",
      "type": "function"
    },
    {
      "inputs": [
        {
          "internalType": "address",
          "name": "user",
          "type": "address"
        },
        {
          "internalType": "uint256",
          "name": "tokenId",
          "type": "uint256"
        },
        {
          "internalType": "bytes",
          "name": "",
          "type": "bytes"
        }
      ],
      "name": "mint",
      "outputs": [],
      "stateMutability": "nonpayable",
      "type": "function"
    },
    {
      "inputs": [
        {
          "internalType": "address",
          "name": "to",
          "type": "address"
        },
        {
          "internalType": "uint256",
          "name": "tokenId",
          "type": "uint256"
        },
        {
          "internalType": "string",
          "name": "uri",
          "type": "string"
        }
      ],
      "name": "mint",
      "outputs": [],
      "stateMutability": "nonpayable",
      "type": "function"
    },
    {
      "inputs": [
        {
          "internalType": "address",
          "name": "to",
          "type": "address"
        },
        {
          "internalType": "uint256",
          "name": "tokenId",
          "type": "uint256"
        },
        {
          "internalType": "string",
          "name": "uri",
          "type": "string"
        },
        {
          "internalType": "string[]",
          "name": "keys",
          "type": "string[]"
        },
        {
          "internalType": "string[]",
          "name": "values",
          "type": "string[]"
        }
      ],
      "name": "mintWithRecords",
      "outputs": [],
      "stateMutability": "nonpayable",
      "type": "function"
    },
    {
      "inputs": [],
      "name": "name",
      "outputs": [
        {
          "internalType": "string",
          "name": "",
          "type": "string"
        }
      ],
      "stateMutability": "view",
      "type": "function"
    },
    {
      "inputs": [
        {
          "internalType": "uint256",
          "name": "tokenId",
          "type": "uint256"
        }
      ],
      "name": "nonceOf",
      "outputs": [
        {
          "internalType": "uint256",
          "name": "",
          "type": "uint256"
        }
      ],
      "stateMutability": "view",
      "type": "function"
    },
    {
      "inputs": [
        {
          "internalType": "address",
          "name": "",
          "type": "address"
        },
        {
          "internalType": "address",
          "name": "from",
          "type": "address"
        },
        {
          "internalType": "uint256",
          "name": "tokenId",
          "type": "uint256"
        },
        {
          "internalType": "bytes",
          "name": "data",
          "type": "bytes"
        }
      ],
      "name": "onERC721Received",
      "outputs": [
        {
          "internalType": "bytes4",
          "name": "",
          "type": "bytes4"
        }
      ],
      "stateMutability": "nonpayable",
      "type": "function"
    },
    {
      "inputs": [
        {
          "internalType": "uint256",
          "name": "tokenId",
          "type": "uint256"
        }
      ],
      "name": "ownerOf",
      "outputs": [
        {
          "internalType": "address",
          "name": "",
          "type": "address"
        }
      ],
      "stateMutability": "view",
      "type": "function"
    },
    {
      "inputs": [
        {
          "internalType": "string[]",
          "name": "keys",
          "type": "string[]"
        },
        {
          "internalType": "string[]",
          "name": "values",
          "type": "string[]"
        },
        {
          "internalType": "uint256",
          "name": "tokenId",
          "type": "uint256"
        }
      ],
      "name": "reconfigure",
      "outputs": [],
      "stateMutability": "nonpayable",
      "type": "function"
    },
    {
      "inputs": [
        {
          "internalType": "string[]",
          "name": "keys",
          "type": "string[]"
        },
        {
          "internalType": "string[]",
          "name": "values",
          "type": "string[]"
        },
        {
          "internalType": "uint256",
          "name": "tokenId",
          "type": "uint256"
        },
        {
          "internalType": "bytes",
          "name": "signature",
          "type": "bytes"
        }
      ],
      "name": "reconfigureFor",
      "outputs": [],
      "stateMutability": "nonpayable",
      "type": "function"
    },
    {
      "inputs": [
        {
          "internalType": "uint256",
          "name": "tokenId",
          "type": "uint256"
        }
      ],
      "name": "reset",
      "outputs": [],
      "stateMutability": "nonpayable",
      "type": "function"
    },
    {
      "inputs": [
        {
          "internalType": "uint256",
          "name": "tokenId",
          "type": "uint256"
        },
        {
          "internalType": "bytes",
          "name": "signature",
          "type": "bytes"
        }
      ],
      "name": "resetFor",
      "outputs": [],
      "stateMutability": "nonpayable",
      "type": "function"
    },
    {
      "inputs": [
        {
          "internalType": "uint256",
          "name": "tokenId",
          "type": "uint256"
        }
      ],
      "name": "resolverOf",
      "outputs": [
        {
          "internalType": "address",
          "name": "",
          "type": "address"
        }
      ],
      "stateMutability": "view",
      "type": "function"
    },
    {
      "inputs": [],
      "name": "root",
      "outputs": [
        {
          "internalType": "uint256",
          "name": "",
          "type": "uint256"
        }
      ],
      "stateMutability": "pure",
      "type": "function"
    },
    {
      "inputs": [
        {
          "internalType": "address",
          "name": "to",
          "type": "address"
        },
        {
          "internalType": "uint256",
          "name": "tokenId",
          "type": "uint256"
        },
        {
          "internalType": "string",
          "name": "uri",
          "type": "string"
        },
        {
          "internalType": "bytes",
          "name": "data",
          "type": "bytes"
        }
      ],
      "name": "safeMint",
      "outputs": [],
      "stateMutability": "nonpayable",
      "type": "function"
    },
    {
      "inputs": [
        {
          "internalType": "address",
          "name": "to",
          "type": "address"
        },
        {
          "internalType": "uint256",
          "name": "tokenId",
          "type": "uint256"
        },
        {
          "internalType": "string",
          "name": "uri",
          "type": "string"
        }
      ],
      "name": "safeMint",
      "outputs": [],
      "stateMutability": "nonpayable",
      "type": "function"
    },
    {
      "inputs": [
        {
          "internalType": "address",
          "name": "to",
          "type": "address"
        },
        {
          "internalType": "uint256",
          "name": "tokenId",
          "type": "uint256"
        },
        {
          "internalType": "string",
          "name": "uri",
          "type": "string"
        },
        {
          "internalType": "string[]",
          "name": "keys",
          "type": "string[]"
        },
        {
          "internalType": "string[]",
          "name": "values",
          "type": "string[]"
        }
      ],
      "name": "safeMintWithRecords",
      "outputs": [],
      "stateMutability": "nonpayable",
      "type": "function"
    },
    {
      "inputs": [
        {
          "internalType": "address",
          "name": "to",
          "type": "address"
        },
        {
          "internalType": "uint256",
          "name": "tokenId",
          "type": "uint256"
        },
        {
          "internalType": "string",
          "name": "uri",
          "type": "string"
        },
        {
          "internalType": "string[]",
          "name": "keys",
          "type": "string[]"
        },
        {
          "internalType": "string[]",
          "name": "values",
          "type": "string[]"
        },
        {
          "internalType": "bytes",
          "name": "data",
          "type": "bytes"
        }
      ],
      "name": "safeMintWithRecords",
      "outputs": [],
      "stateMutability": "nonpayable",
      "type": "function"
    },
    {
      "inputs": [
        {
          "internalType": "address",
          "name": "from",
          "type": "address"
        },
        {
          "internalType": "address",
          "name": "to",
          "type": "address"
        },
        {
          "internalType": "uint256",
          "name": "tokenId",
          "type": "uint256"
        }
      ],
      "name": "safeTransferFrom",
      "outputs": [],
      "stateMutability": "nonpayable",
      "type": "function"
    },
    {
      "inputs": [
        {
          "internalType": "address",
          "name": "from",
          "type": "address"
        },
        {
          "internalType": "address",
          "name": "to",
          "type": "address"
        },
        {
          "internalType": "uint256",
          "name": "tokenId",
          "type": "uint256"
        },
        {
          "internalType": "bytes",
          "name": "data",
          "type": "bytes"
        }
      ],
      "name": "safeTransferFrom",
      "outputs": [],
      "stateMutability": "nonpayable",
      "type": "function"
    },
    {
      "inputs": [
        {
          "internalType": "address",
          "name": "from",
          "type": "address"
        },
        {
          "internalType": "address",
          "name": "to",
          "type": "address"
        },
        {
          "internalType": "uint256",
          "name": "tokenId",
          "type": "uint256"
        },
        {
          "internalType": "bytes",
          "name": "data",
          "type": "bytes"
        },
        {
          "internalType": "bytes",
          "name": "signature",
          "type": "bytes"
        }
      ],
      "name": "safeTransferFromFor",
      "outputs": [],
      "stateMutability": "nonpayable",
      "type": "function"
    },
    {
      "inputs": [
        {
          "internalType": "address",
          "name": "from",
          "type": "address"
        },
        {
          "internalType": "address",
          "name": "to",
          "type": "address"
        },
        {
          "internalType": "uint256",
          "name": "tokenId",
          "type": "uint256"
        },
        {
          "internalType": "bytes",
          "name": "signature",
          "type": "bytes"
        }
      ],
      "name": "safeTransferFromFor",
      "outputs": [],
      "stateMutability": "nonpayable",
      "type": "function"
    },
    {
      "inputs": [
        {
          "internalType": "string",
          "name": "key",
          "type": "string"
        },
        {
          "internalType": "string",
          "name": "value",
          "type": "string"
        },
        {
          "internalType": "uint256",
          "name": "tokenId",
          "type": "uint256"
        }
      ],
      "name": "set",
      "outputs": [],
      "stateMutability": "nonpayable",
      "type": "function"
    },
    {
      "inputs": [
        {
          "internalType": "address",
          "name": "operator",
          "type": "address"
        },
        {
          "internalType": "bool",
          "name": "approved",
          "type": "bool"
        }
      ],
      "name": "setApprovalForAll",
      "outputs": [],
      "stateMutability": "nonpayable",
      "type": "function"
    },
    {
      "inputs": [
        {
          "internalType": "uint256",
          "name": "keyHash",
          "type": "uint256"
        },
        {
          "internalType": "string",
          "name": "value",
          "type": "string"
        },
        {
          "internalType": "uint256",
          "name": "tokenId",
          "type": "uint256"
        }
      ],
      "name": "setByHash",
      "outputs": [],
      "stateMutability": "nonpayable",
      "type": "function"
    },
    {
      "inputs": [
        {
          "internalType": "address",
          "name": "registry",
          "type": "address"
        }
      ],
      "name": "setCNSRegistry",
      "outputs": [],
      "stateMutability": "nonpayable",
      "type": "function"
    },
    {
      "inputs": [
        {
          "internalType": "address",
          "name": "clientChainManager",
          "type": "address"
        }
      ],
      "name": "setChildChainManager",
      "outputs": [],
      "stateMutability": "nonpayable",
      "type": "function"
    },
    {
      "inputs": [
        {
          "internalType": "string",
          "name": "key",
          "type": "string"
        },
        {
          "internalType": "string",
          "name": "value",
          "type": "string"
        },
        {
          "internalType": "uint256",
          "name": "tokenId",
          "type": "uint256"
        },
        {
          "internalType": "bytes",
          "name": "signature",
          "type": "bytes"
        }
      ],
      "name": "setFor",
      "outputs": [],
      "stateMutability": "nonpayable",
      "type": "function"
    },
    {
      "inputs": [
        {
          "internalType": "string[]",
          "name": "keys",
          "type": "string[]"
        },
        {
          "internalType": "string[]",
          "name": "values",
          "type": "string[]"
        },
        {
          "internalType": "uint256",
          "name": "tokenId",
          "type": "uint256"
        }
      ],
      "name": "setMany",
      "outputs": [],
      "stateMutability": "nonpayable",
      "type": "function"
    },
    {
      "inputs": [
        {
          "internalType": "uint256[]",
          "name": "keyHashes",
          "type": "uint256[]"
        },
        {
          "internalType": "string[]",
          "name": "values",
          "type": "string[]"
        },
        {
          "internalType": "uint256",
          "name": "tokenId",
          "type": "uint256"
        }
      ],
      "name": "setManyByHash",
      "outputs": [],
      "stateMutability": "nonpayable",
      "type": "function"
    },
    {
      "inputs": [
        {
          "internalType": "string[]",
          "name": "keys",
          "type": "string[]"
        },
        {
          "internalType": "string[]",
          "name": "values",
          "type": "string[]"
        },
        {
          "internalType": "uint256",
          "name": "tokenId",
          "type": "uint256"
        },
        {
          "internalType": "bytes",
          "name": "signature",
          "type": "bytes"
        }
      ],
      "name": "setManyFor",
      "outputs": [],
      "stateMutability": "nonpayable",
      "type": "function"
    },
    {
      "inputs": [
        {
          "internalType": "address",
          "name": "to",
          "type": "address"
        },
        {
          "internalType": "uint256",
          "name": "tokenId",
          "type": "uint256"
        }
      ],
      "name": "setOwner",
      "outputs": [],
      "stateMutability": "nonpayable",
      "type": "function"
    },
    {
      "inputs": [
        {
          "internalType": "address",
          "name": "rootChainManager",
          "type": "address"
        }
      ],
      "name": "setRootChainManager",
      "outputs": [],
      "stateMutability": "nonpayable",
      "type": "function"
    },
    {
      "inputs": [
        {
          "internalType": "string",
          "name": "prefix",
          "type": "string"
        }
      ],
      "name": "setTokenURIPrefix",
      "outputs": [],
      "stateMutability": "nonpayable",
      "type": "function"
    },
    {
      "inputs": [
        {
          "internalType": "bytes4",
          "name": "interfaceId",
          "type": "bytes4"
        }
      ],
      "name": "supportsInterface",
      "outputs": [
        {
          "internalType": "bool",
          "name": "",
          "type": "bool"
        }
      ],
      "stateMutability": "view",
      "type": "function"
    },
    {
      "inputs": [],
      "name": "symbol",
      "outputs": [
        {
          "internalType": "string",
          "name": "",
          "type": "string"
        }
      ],
      "stateMutability": "view",
      "type": "function"
    },
    {
      "inputs": [
        {
          "internalType": "uint256",
          "name": "tokenId",
          "type": "uint256"
        }
      ],
      "name": "tokenURI",
      "outputs": [
        {
          "internalType": "string",
          "name": "",
          "type": "string"
        }
      ],
      "stateMutability": "view",
      "type": "function"
    },
    {
      "inputs": [
        {
          "internalType": "address",
          "name": "from",
          "type": "address"
        },
        {
          "internalType": "address",
          "name": "to",
          "type": "address"
        },
        {
          "internalType": "uint256",
          "name": "tokenId",
          "type": "uint256"
        }
      ],
      "name": "transferFrom",
      "outputs": [],
      "stateMutability": "nonpayable",
      "type": "function"
    },
    {
      "inputs": [
        {
          "internalType": "address",
          "name": "from",
          "type": "address"
        },
        {
          "internalType": "address",
          "name": "to",
          "type": "address"
        },
        {
          "internalType": "uint256",
          "name": "tokenId",
          "type": "uint256"
        },
        {
          "internalType": "bytes",
          "name": "signature",
          "type": "bytes"
        }
      ],
      "name": "transferFromFor",
      "outputs": [],
      "stateMutability": "nonpayable",
      "type": "function"
    },
    {
      "inputs": [
        {
          "components": [
            {
              "internalType": "address",
              "name": "from",
              "type": "address"
            },
            {
              "internalType": "uint256",
              "name": "nonce",
              "type": "uint256"
            },
            {
              "internalType": "uint256",
              "name": "tokenId",
              "type": "uint256"
            },
            {
              "internalType": "bytes",
              "name": "data",
              "type": "bytes"
            }
          ],
          "internalType": "struct IForwarder.ForwardRequest",
          "name": "req",
          "type": "tuple"
        },
        {
          "internalType": "bytes",
          "name": "signature",
          "type": "bytes"
        }
      ],
      "name": "verify",
      "outputs": [
        {
          "internalType": "bool",
          "name": "",
          "type": "bool"
        }
      ],
      "stateMutability": "view",
      "type": "function"
    },
    {
      "inputs": [
        {
          "internalType": "uint256",
          "name": "tokenId",
          "type": "uint256"
        }
      ],
      "name": "withdraw",
      "outputs": [],
      "stateMutability": "nonpayable",
      "type": "function"
    },
    {
      "inputs": [
        {
          "internalType": "uint256[]",
          "name": "tokenIds",
          "type": "uint256[]"
        }
      ],
      "name": "withdrawBatch",
      "outputs": [],
      "stateMutability": "nonpayable",
      "type": "function"
    },
    {
      "inputs": [
        {
          "internalType": "uint256",
          "name": "tokenId",
          "type": "uint256"
        }
      ],
      "name": "withdrawWithMetadata",
      "outputs": [],
      "stateMutability": "nonpayable",
      "type": "function"
    }
  ],
  "bytecode": "0x608060405234801561001057600080fd5b50615a7580620000216000396000f3fe608060405234801561001057600080fd5b50600436106103f15760003560e01c80637f139a0011610215578063b87abc1111610125578063cf2c52cb116100b8578063ec129eea11610087578063ec129eea146108bb578063ef2c3088146108ce578063efda4d3e146108e1578063f5c1f76e146108f4578063ffa1ad7414610907576103f1565b8063cf2c52cb1461087a578063d3fc98641461088d578063e985e9c5146108a0578063ebf0c717146108b3576103f1565b8063c5974073116100f4578063c59740731461082e578063c87b56dd14610841578063cd279c7c14610854578063ce92b33e14610867576103f1565b8063b87abc11146107e2578063b88d4fde146107f5578063bb5b27e114610808578063c4d66de81461081b576103f1565b8063a3557e6c116101a8578063ab3b87fe11610177578063ab3b87fe14610775578063b0f5917714610788578063b3f9e4cb1461079b578063b55bc617146107ae578063b85afd28146107c1576103f1565b8063a3557e6c14610747578063a3f4df7e1461075a578063a424740014610762578063a5e584dc14610508576103f1565b806395d89b41116101e457806395d89b411461070657806399e0dd7c1461070e5780639c8d415614610721578063a22cb46514610734576103f1565b80637f139a00146106c55780638f69c188146106d857806394d008ef146106eb5780639559c0bd146106fe576103f1565b8063430c2081116103105780636352211e116102a35780636ccbae5f116102725780636ccbae5f146106665780636debcb8d1461067957806370a082311461068c578063728a44d81461069f578063764a81bb146106b2576103f1565b80636352211e146105ff578063638e5c7814610612578063672b9f811461062557806368b62d3214610646576103f1565b80634f558e79116102df5780634f558e79146105b357806350382c1a146105c6578063572b6c05146105d957806361603dd9146105ec576103f1565b8063430c2081146105675780634348b5621461057a57806347c816991461058d5780634a72584d146105a0576103f1565b806323b872dd11610388578063310bd74b11610357578063310bd74b1461051b57806340c10f191461052e57806342842e0e1461054157806342966c6814610554576103f1565b806323b872dd146104cf57806327f18975146104e2578063280d9b05146104f55780632e1a7d4d14610508576103f1565b8063150b7a02116103c4578063150b7a02146104695780631bd8cc1a146104895780631be5e7ed146104a95780631bf7e13e146104bc576103f1565b806301ffc9a7146103f657806306fdde031461041f578063081812fc14610434578063095ea7b314610454575b600080fd5b61040961040436600461469d565b61090f565b6040516104169190614da4565b60405180910390f35b610427610922565b6040516104169190614de2565b610447610442366004614908565b6109b5565b6040516104169190614c22565b6104676104623660046141b6565b610a01565b005b61047c610477366004613fc5565b610a53565b6040516104169190614dcd565b61049c61049736600461453d565b610c1c565b6040516104169190614d32565b6104276104b73660046147c6565b610d3c565b6104276104ca3660046148a9565b610d87565b6104676104dd366004613f85565b610e52565b6104676104f036600461444e565b610ede565b610467610503366004614035565b610f5f565b610467610516366004614908565b610ffb565b610467610529366004614908565b611047565b61046761053c3660046141b6565b6110bb565b61046761054f366004613f85565b611108565b610467610562366004614908565b611123565b6104096105753660046141b6565b6111a0565b61046761058836600461423a565b6111ac565b61046761059b366004614708565b611211565b6104676105ae366004614950565b611289565b6104096105c1366004614908565b611308565b6104676105d43660046147fb565b611313565b6104096105e7366004613f15565b611346565b6104676105fa366004614920565b611357565b61044761060d366004614908565b6113e0565b610467610620366004614908565b611415565b6106386106333660046149a0565b611460565b604051610416929190614e30565b610659610654366004614920565b611478565b6040516104169190614c0b565b610659610674366004614908565b6114ba565b610467610687366004613fc5565b6114cd565b61065961069a366004613f15565b6114ef565b6104676106ad366004613f15565b611533565b6104676106c0366004613f15565b6115ac565b6104676106d3366004613f15565b611628565b6104676106e63660046144be565b6116a4565b6104676106f93660046141e1565b6116ca565b610659611719565b61042761171e565b61046761071c3660046146d5565b61172d565b61046761072f366004614586565b6117b3565b610467610742366004614139565b6118da565b6104676107553660046144be565b6119a8565b6104276119ce565b6104096107703660046148a9565b6119f7565b6104676107833660046141b6565b611a42565b61046761079636600461423a565b611ac0565b6104476107a9366004614908565b611b49565b6104676107bc3660046143c6565b611b66565b6107d46107cf36600461453d565b611c16565b604051610416929190614d45565b6104676107f0366004614920565b611d7e565b6104676108033660046140d0565b611d9c565b610427610816366004614908565b611e1c565b610467610829366004613f15565b611ebe565b61046761083c366004614766565b611fab565b61042761084f366004614908565b611fd1565b6104676108623660046141e1565b612053565b61046761087536600461444e565b6120dd565b610467610888366004614164565b612155565b61046761089b3660046141e1565b612240565b6104096108ae366004613f4d565b6122bc565b6106596122ea565b6104676108c936600461444e565b6122ef565b6104676108dc366004613fc5565b612367565b6104676108ef3660046142eb565b612389565b61049c610902366004614586565b612417565b6104276124f4565b600061091a82612515565b90505b919050565b60606065805461093190615971565b80601f016020809104026020016040519081016040528092919081815260200182805461095d90615971565b80156109aa5780601f1061097f576101008083540402835291602001916109aa565b820191906000526020600020905b81548152906001019060200180831161098d57829003601f168201915b505050505090505b90565b60006109c082612555565b6109e55760405162461bcd60e51b81526004016109dc90615384565b60405180910390fd5b506000908152606960205260409020546001600160a01b031690565b80610a0b33611346565b15610a3b57610a18612572565b8114610a365760405162461bcd60e51b81526004016109dc90615163565b610a44565b610a448161258c565b610a4e83836125ba565b505050565b6000610a7e7f8ffb960699dc2ba88f34d0e41c029c3c36c95149679fe1d0153a9582bec923786109b2565b546001600160a01b0316610a9061264d565b6001600160a01b03161415610bfb576000610aa961264d565b9050610b33816001600160a01b031663c87b56dd876040518263ffffffff1660e01b8152600401610ada9190614c0b565b60006040518083038186803b158015610af257600080fd5b505afa158015610b06573d6000803e3d6000fd5b505050506040513d6000823e601f3d908101601f19168201604052610b2e9190810190614840565b61265c565b610b4f5760405162461bcd60e51b81526004016109dc906155e9565b604051630852cd8d60e31b81526001600160a01b038216906342966c6890610b7b908890600401614c0b565b600060405180830381600087803b158015610b9557600080fd5b505af1158015610ba9573d6000803e3d6000fd5b505050831580159150610bc35750610bc38385018561466b565b15610be157610bd230866126f0565b610bdc86866127cf565b610beb565b610beb86866126f0565b50630a85bd0160e11b9050610c13565b60405162461bcd60e51b81526004016109dc906155a4565b95945050505050565b6060826001600160401b03811115610c4457634e487b7160e01b600052604160045260246000fd5b604051908082528060200260200182016040528015610c7757816020015b6060815260200190600190039081610c625790505b50905060005b83811015610d3457610cf6858583818110610ca857634e487b7160e01b600052603260045260246000fd5b9050602002810190610cba919061569c565b8080601f016020809104026020016040519081016040528093929190818152602001838380828437600092019190915250879250612884915050565b828281518110610d1657634e487b7160e01b600052603260045260246000fd5b60200260200101819052508080610d2c906159ac565b915050610c7d565b509392505050565b6060610d7f84848080601f016020809104026020016040519081016040528093929190818152602001838380828437600092019190915250869250612884915050565b949350505050565b606060005a9050610d998585856119f7565b610db55760405162461bcd60e51b81526004016109dc906154ae565b610e47610dc56020870187613f15565b30604088013584610dd960608b018b61569c565b8080601f01602080910402602001604051908101604052809392919081815260200183838082843760009201919091525050604080516020601f8e018190048102820181019092528c815292508c91508b90819084018382808284376000920191909152506128b992505050565b9150505b9392505050565b80610e64610e5e61264d565b826129a8565b610e805760405162461bcd60e51b81526004016109dc90614ec3565b81610e8a33611346565b15610eba57610e97612572565b8114610eb55760405162461bcd60e51b81526004016109dc90615163565b610ec3565b610ec38161258c565b610ecc83612a25565b610ed7858585612a90565b5050505050565b80610eea610e5e61264d565b610f065760405162461bcd60e51b81526004016109dc90614ec3565b81610f1033611346565b15610f4057610f1d612572565b8114610f3b5760405162461bcd60e51b81526004016109dc90615163565b610f49565b610f498161258c565b610f568787878787612bbd565b50505050505050565b60005a9050610ff063b88d4fde8989898989604051602401610f85959493929190614c86565b6040516020818303038152906040529060e01b6020820180516001600160e01b0383818316178352505050508785858080601f016020809104026020016040519081016040528093929190818152602001838380828437600092019190915250879250612c3c915050565b505050505050505050565b611004816113e0565b6001600160a01b031661101561264d565b6001600160a01b03161461103b5760405162461bcd60e51b81526004016109dc906154f5565b61104481612c81565b50565b80611053610e5e61264d565b61106f5760405162461bcd60e51b81526004016109dc90614ec3565b8161107933611346565b156110a957611086612572565b81146110a45760405162461bcd60e51b81526004016109dc90615163565b6110b2565b6110b28161258c565b610a4e83612a25565b6110c3612d28565b6001600160a01b03166110d461264d565b6001600160a01b0316146110fa5760405162461bcd60e51b81526004016109dc9061562b565b61110482826126f0565b5050565b610a4e83838360405180602001604052806000815250611d9c565b8061112f610e5e61264d565b61114b5760405162461bcd60e51b81526004016109dc90614ec3565b8161115533611346565b1561118557611162612572565b81146111805760405162461bcd60e51b81526004016109dc90615163565b61118e565b61118e8161258c565b61119783612a25565b610a4e83612c81565b6000610e4b83836129a8565b610134546001600160a01b03166111c161264d565b6001600160a01b0316146111e75760405162461bcd60e51b81526004016109dc906150d0565b611207888888888888888860405180602001604052806000815250612e4c565b5050505050505050565b8061121d610e5e61264d565b6112395760405162461bcd60e51b81526004016109dc90614ec3565b8161124333611346565b1561127357611250612572565b811461126e5760405162461bcd60e51b81526004016109dc90615163565b61127c565b61127c8161258c565b610f568787878787612e9c565b80611295610e5e61264d565b6112b15760405162461bcd60e51b81526004016109dc90614ec3565b816112bb33611346565b156112eb576112c8612572565b81146112e65760405162461bcd60e51b81526004016109dc90615163565b6112f4565b6112f48161258c565b61130086868686612f7b565b505050505050565b600061091a82612555565b611044816040516020016113279190614b0f565b6040516020818303038152906040528051906020012060001c82612feb565b6001600160a01b0381163014919050565b60005a9050610ed76342966c68856040516024016113759190614c0b565b6040516020818303038152906040529060e01b6020820180516001600160e01b0383818316178352505050508585858080601f016020809104026020016040519081016040528093929190818152602001838380828437600092019190915250879250612c3c915050565b6000818152606760205260408120546001600160a01b03168061091a5760405162461bcd60e51b81526004016109dc90615241565b80611421610e5e61264d565b61143d5760405162461bcd60e51b81526004016109dc90614ec3565b61144f61144861264d565b3084612a90565b61110461145a61264d565b836127cf565b60608061146d8484613017565b909590945092505050565b6000610d7f8484848080601f01602080910402602001604051908101604052809392919081815260200183838082843760009201919091525061303892505050565b6000908152610100602052604090205490565b60005a9050610f566342842e0e87878760405160240161137593929190614c62565b60006001600160a01b0382166115175760405162461bcd60e51b81526004016109dc906151f7565b506001600160a01b031660009081526068602052604090205490565b600061154c600080516020615a498339815191526109b2565b546001600160a01b0316146115735760405162461bcd60e51b81526004016109dc906153d0565b8061158b600080516020615a498339815191526109b2565b80546001600160a01b0319166001600160a01b039290921691909117905550565b60006115d77f8bea9a6f8afd34f4e29c585f854e0cc5161431bf5fc299d468454d33dce53b876109b2565b546001600160a01b0316146115fe5760405162461bcd60e51b81526004016109dc90614fcc565b8061158b7f8bea9a6f8afd34f4e29c585f854e0cc5161431bf5fc299d468454d33dce53b876109b2565b60006116537f8ffb960699dc2ba88f34d0e41c029c3c36c95149679fe1d0153a9582bec923786109b2565b546001600160a01b03161461167a5760405162461bcd60e51b81526004016109dc9061531a565b8061158b7f8ffb960699dc2ba88f34d0e41c029c3c36c95149679fe1d0153a9582bec923786109b2565b60005a9050610ff063ce92b33e8989898989604051602401611375959493929190614cf8565b6116d2612d28565b6001600160a01b03166116e361264d565b6001600160a01b0316146117095760405162461bcd60e51b81526004016109dc9061562b565b61171384846126f0565b50505050565b601481565b60606066805461093190615971565b610134546001600160a01b031661174261264d565b6001600160a01b0316146117685760405162461bcd60e51b81526004016109dc906150d0565b6117756101338383613cf3565b507f4b120d6a959a84a520fa48f5f937cca0e79129423487af7901213b5d2e89313b82826040516117a7929190614df5565b60405180910390a15050565b8060148111156117d55760405162461bcd60e51b81526004016109dc9061556d565b60005b8181101561188a57600084848381811061180257634e487b7160e01b600052603260045260246000fd5b905060200201359050611814816113e0565b6001600160a01b031661182561264d565b6001600160a01b031614816040516020016118409190614ba9565b6040516020818303038152906040529061186d5760405162461bcd60e51b81526004016109dc9190614de2565b5061187781612c81565b5080611882816159ac565b9150506117d8565b5061189361264d565b6001600160a01b03167ff871896b17e9cb7a64941c62c188a4f5c621b86800e3d15452ece01ce56073df84846040516118cd929190614d6a565b60405180910390a2505050565b6118e261264d565b6001600160a01b0316826001600160a01b031614156119135760405162461bcd60e51b81526004016109dc90615057565b80606a600061192061264d565b6001600160a01b03908116825260208083019390935260409182016000908120918716808252919093529120805460ff19169215159290921790915561196461264d565b6001600160a01b03167f17307eab39ab6107e8899845ad3d59bd9653f200f220920489ca2b5937696c318360405161199c9190614da4565b60405180910390a35050565b60005a9050610ff063ec129eea8989898989604051602401611375959493929190614cf8565b6040518060400160405280600d81526020016c554e533a20526567697374727960981b81525081565b6000610d7f611a05856158a6565b3085858080601f0160208091040260200160405190810160405280939291908181526020018383808284376000920191909152506130b492505050565b80611a4e610e5e61264d565b611a6a5760405162461bcd60e51b81526004016109dc90614ec3565b81611a7433611346565b15611aa457611a81612572565b8114611a9f5760405162461bcd60e51b81526004016109dc90615163565b611aad565b611aad8161258c565b611713611ab9846113e0565b8585612a90565b610134546001600160a01b0316611ad561264d565b6001600160a01b031614611afb5760405162461bcd60e51b81526004016109dc906150d0565b611b3c888888888080601f01602080910402602001604051908101604052809392919081815260200183838082843760009201919091525061317592505050565b611207848484848b6131af565b6000611b5482612555565b611b5f57600061091a565b5030919050565b610134546001600160a01b0316611b7b61264d565b6001600160a01b031614611ba15760405162461bcd60e51b81526004016109dc906150d0565b611300868686868080601f01602080910402602001604051908101604052809392919081815260200183838082843760009201919091525050604080516020601f8a01819004810282018101909252888152925088915087908190840183828082843760009201919091525061323992505050565b606080836001600160401b03811115611c3f57634e487b7160e01b600052604160045260246000fd5b604051908082528060200260200182016040528015611c7257816020015b6060815260200190600190039081611c5d5790505b509150836001600160401b03811115611c9b57634e487b7160e01b600052604160045260246000fd5b604051908082528060200260200182016040528015611cce57816020015b6060815260200190600190039081611cb95790505b50905060005b84811015611d7557611d0c868683818110611cff57634e487b7160e01b600052603260045260246000fd5b9050602002013585613017565b848381518110611d2c57634e487b7160e01b600052603260045260246000fd5b60200260200101848481518110611d5357634e487b7160e01b600052603260045260246000fd5b6020026020010182905282905250508080611d6d906159ac565b915050611cd4565b50935093915050565b60005a9050610ed763310bd74b856040516024016113759190614c0b565b81611da8610e5e61264d565b611dc45760405162461bcd60e51b81526004016109dc90614ec3565b82611dce33611346565b15611dfe57611ddb612572565b8114611df95760405162461bcd60e51b81526004016109dc90615163565b611e07565b611e078161258c565b611e1084612a25565b61130086868686613282565b600081815260c960205260409020805460609190611e3990615971565b80601f0160208091040260200160405190810160405280929190818152602001828054611e6590615971565b8015611eb25780601f10611e8757610100808354040283529160200191611eb2565b820191906000526020600020905b815481529060010190602001808311611e9557829003601f168201915b50505050509050919050565b600054610100900460ff1680611ed7575060005460ff16155b611ef35760405162461bcd60e51b81526004016109dc9061528a565b600054610100900460ff16158015611f1e576000805460ff1961ff0019909116610100171660011790555b61013480546001600160a01b0319166001600160a01b0384161790556040805180820182526013815272556e73746f707061626c6520446f6d61696e7360681b60208083019190915282518084019093526002835261155160f21b90830152611f86916132b5565b611f8e613353565b611f96613353565b8015611104576000805461ff00191690555050565b60005a9050610ff06347c816998989898989604051602401611375959493929190614e09565b6060611fdc82612555565b611ff85760405162461bcd60e51b81526004016109dc9061545f565b60006120026133c7565b905060008151116120225760405180602001604052806000815250610e4b565b8061202c846133d7565b60405160200161203d929190614b7a565b6040516020818303038152906040529392505050565b610134546001600160a01b031661206861264d565b6001600160a01b03161461208e5760405162461bcd60e51b81526004016109dc906150d0565b611713848484848080601f016020809104026020016040519081016040528093929190818152602001838380828437600092018290525060408051602081019091529081529250613239915050565b806120e9610e5e61264d565b6121055760405162461bcd60e51b81526004016109dc90614ec3565b8161210f33611346565b1561213f5761211c612572565b811461213a5760405162461bcd60e51b81526004016109dc90615163565b612148565b6121488161258c565b610f5687878787876131af565b61217e7f8bea9a6f8afd34f4e29c585f854e0cc5161431bf5fc299d468454d33dce53b876109b2565b546001600160a01b031661219061264d565b6001600160a01b0316146121b65760405162461bcd60e51b81526004016109dc9061562b565b60208114156121df5760006121cd82840184614908565b90506121d984826126f0565b50610a4e565b60006121ed828401846145c5565b805190915060005b818110156113005761222e8684838151811061222157634e487b7160e01b600052603260045260246000fd5b60200260200101516126f0565b80612238816159ac565b9150506121f5565b610134546001600160a01b031661225561264d565b6001600160a01b03161461227b5760405162461bcd60e51b81526004016109dc906150d0565b611713848484848080601f01602080910402602001604051908101604052809392919081815260200183838082843760009201919091525061317592505050565b6001600160a01b039182166000908152606a6020908152604080832093909416825291909152205460ff1690565b600090565b806122fb610e5e61264d565b6123175760405162461bcd60e51b81526004016109dc90614ec3565b8161232133611346565b156123515761232e612572565b811461234c5760405162461bcd60e51b81526004016109dc90615163565b61235a565b61235a8161258c565b610f5687878787876134f1565b60005a9050610f566323b872dd87878760405160240161137593929190614c62565b610134546001600160a01b031661239e61264d565b6001600160a01b0316146123c45760405162461bcd60e51b81526004016109dc906150d0565b61240b8a8a8a8a8a8a8a8a8a8a8080601f016020809104026020016040519081016040528093929190818152602001838380828437600092019190915250612e4c92505050565b50505050505050505050565b6060816001600160401b0381111561243f57634e487b7160e01b600052604160045260246000fd5b60405190808252806020026020018201604052801561247257816020015b606081526020019060019003908161245d5790505b50905060005b828110156124ed576124af8484838181106124a357634e487b7160e01b600052603260045260246000fd5b90506020020135611e1c565b8282815181106124cf57634e487b7160e01b600052603260045260246000fd5b602002602001018190525080806124e5906159ac565b915050612478565b5092915050565b604051806040016040528060058152602001640302e332e360dc1b81525081565b60006001600160e01b031982166380ac58cd60e01b148061254657506001600160e01b03198216635b5e139f60e01b145b8061091a575061091a82613507565b6000908152606760205260409020546001600160a01b0316151590565b600061257d33611346565b156109b25750601f1936013590565b600081815261010060205260409020546125a7906001615730565b6000918252610100602052604090912055565b60006125c5826113e0565b9050806001600160a01b0316836001600160a01b031614156125f95760405162461bcd60e51b81526004016109dc9061552c565b806001600160a01b031661260b61264d565b6001600160a01b031614806126275750612627816108ae61264d565b6126435760405162461bcd60e51b81526004016109dc9061519a565b610a4e8383613520565b600061265761358e565b905090565b600080612668836135bc565b90506000612698612691604051806040016040528060018152602001602f60f81b8152506135bc565b83906135e1565b5182519091506126a982600a615730565b118015610d7f57506126c56126c08383600a613623565b613656565b7fb551e0305c8163b812374b8e78b577c77f226f6f10c5ad03e52699578fbc34b81415949350505050565b6001600160a01b0382166127165760405162461bcd60e51b81526004016109dc9061534f565b61271f81612555565b1561273c5760405162461bcd60e51b81526004016109dc90614f95565b61274860008383610a4e565b6001600160a01b0382166000908152606860205260408120805460019290612771908490615730565b909155505060008181526067602052604080822080546001600160a01b0319166001600160a01b03861690811790915590518392907fddf252ad1be2c89b69c2b068fc378daa952ba7f163c4a11628f55a4df523b3ef908290a45050565b60006127d9612d28565b90506127e58183613520565b60006127fe600080516020615a498339815191526109b2565b546040516001600160a01b039091169150819063e3dec8fb9086903090612829908890602001614c0b565b6040516020818303038152906040526040518463ffffffff1660e01b815260040161285693929190614c36565b600060405180830381600087803b15801561287057600080fd5b505af1158015611207573d6000803e3d6000fd5b6060610e4b8360405160200161289a9190614b0f565b6040516020818303038152906040528051906020012060001c83613662565b60606128c48561258c565b600080876001600160a01b0316866128de8b8a8989613721565b6040516128eb9190614b0f565b60006040518083038160008787f1925050503d8060008114612929576040519150601f19603f3d011682016040523d82523d6000602084013e61292e565b606091505b50909250905061293f603f87615748565b5a1161295b57634e487b7160e01b600052600160045260246000fd5b61299b82826040518060400160405280601a81526020017f42617365466f727761726465723a2043414c4c5f4641494c4544000000000000815250613751565b9998505050505050505050565b60006129b382612555565b6129cf5760405162461bcd60e51b81526004016109dc90615117565b60006129da836113e0565b9050806001600160a01b0316846001600160a01b03161480612a155750836001600160a01b0316612a0a846109b5565b6001600160a01b0316145b80610d7f5750610d7f81856122bc565b612a2e8161378a565b604051602001612a3e9190614c0b565b60408051601f198184030181528282528051602091820120600085815260cb9092529181209190915582917f185c30856dadb58bf097c1f665a52ada7029752dbcad008ea3fefc73bee8c9fe9190a250565b826001600160a01b0316612aa3826113e0565b6001600160a01b031614612ac95760405162461bcd60e51b81526004016109dc90615416565b6001600160a01b038216612aef5760405162461bcd60e51b81526004016109dc90615013565b612afa838383610a4e565b612b05600082613520565b6001600160a01b0383166000908152606860205260408120805460019290612b2e90849061588f565b90915550506001600160a01b0382166000908152606860205260408120805460019290612b5c908490615730565b909155505060008181526067602052604080822080546001600160a01b0319166001600160a01b0386811691821790925591518493918716917fddf252ad1be2c89b69c2b068fc378daa952ba7f163c4a11628f55a4df523b3ef91a4505050565b60005b8481101561130057612c2a868683818110612beb57634e487b7160e01b600052603260045260246000fd5b90506020020135858584818110612c1257634e487b7160e01b600052603260045260246000fd5b9050602002810190612c24919061569c565b85612f7b565b80612c34816159ac565b915050612bc0565b60606000612c67868051906020012030610100600089815260200190815260200160002054876137b6565b9050612c77813087868a896128b9565b9695505050505050565b6000612c8c826113e0565b9050612c9a81600084610a4e565b612ca5600083613520565b6001600160a01b0381166000908152606860205260408120805460019290612cce90849061588f565b909155505060008281526067602052604080822080546001600160a01b0319169055518391906001600160a01b038416907fddf252ad1be2c89b69c2b068fc378daa952ba7f163c4a11628f55a4df523b3ef908390a45050565b600080612d42600080516020615a498339815191526109b2565b5460405163721804d360e11b81526001600160a01b039091169150600090829063e43009a690612d76903090600401614c22565b60206040518083038186803b158015612d8e57600080fd5b505afa158015612da2573d6000803e3d6000fd5b505050506040513d601f19601f82011682018060405250810190612dc69190614685565b60405163e66f960360e01b81529091506001600160a01b0383169063e66f960390612df5908490600401614c0b565b60206040518083038186803b158015612e0d57600080fd5b505afa158015612e21573d6000803e3d6000fd5b505050506040513d601f19601f82011682018060405250810190612e459190613f31565b9250505090565b612e8f898989898080601f016020809104026020016040519081016040528093929190818152602001838380828437600092019190915250879250613239915050565b610ff0858585858c6131af565b60008585604051602001612eb1929190614b6a565b60408051601f198184030181528282528051602091820120601f8901829004820284018201909252878352909250612f059183918990899081908401838280828437600092019190915250612feb92505050565b6113008187878080601f01602080910402602001604051908101604052809392919081815260200183838082843760009201919091525050604080516020601f8b0181900481028201810190925289815292508991508890819084018382808284376000920191909152508892506137f5915050565b612f8484613930565b612fa05760405162461bcd60e51b81526004016109dc90614f5e565b61171384612fad86611e1c565b85858080601f0160208091040260200160405190810160405280939291908181526020018383808284376000920191909152508792506137f5915050565b612ff482613930565b61110457600082815260c9602090815260409091208251610a4e92840190613d73565b60608061302384611e1c565b915061302f8484613662565b90509250929050565b600081516000141561305c5760405162461bcd60e51b81526004016109dc9061566d565b828260405160200161306e9190614b0f565b60405160208183030381529060405280519060200120604051602001613095929190614c14565b60408051601f1981840301815291905280516020909101209392505050565b6040808401519051636ccbae5f60e01b815260009182913091636ccbae5f916130e09190600401614c0b565b60206040518083038186803b1580156130f857600080fd5b505afa15801561310c573d6000803e3d6000fd5b505050506040513d601f19601f820116820180604052508101906131309190614685565b9050600061314b8660600151805190602001208684876137b6565b9050856020015182148015612c77575085516001600160a01b038281169116149695505050505050565b61317f83836126f0565b817fc5beef08f693b11c316c0c8394a377a0033c9cf701b8cd8afd79cecef60c3952826040516118cd9190614de2565b60005b84811015611300576132278686838181106131dd57634e487b7160e01b600052603260045260246000fd5b90506020028101906131ef919061569c565b86868581811061320f57634e487b7160e01b600052603260045260246000fd5b9050602002810190613221919061569c565b86612e9c565b80613231816159ac565b9150506131b2565b613244848483613956565b827fc5beef08f693b11c316c0c8394a377a0033c9cf701b8cd8afd79cecef60c3952836040516132749190614de2565b60405180910390a250505050565b61328d848484612a90565b61329984848484613989565b6117135760405162461bcd60e51b81526004016109dc90614f0c565b600054610100900460ff16806132ce575060005460ff16155b6132ea5760405162461bcd60e51b81526004016109dc9061528a565b600054610100900460ff16158015613315576000805460ff1961ff0019909116610100171660011790555b8251613328906065906020860190613d73565b50815161333c906066906020850190613d73565b508015610a4e576000805461ff0019169055505050565b600054610100900460ff168061336c575060005460ff16155b6133885760405162461bcd60e51b81526004016109dc9061528a565b600054610100900460ff161580156133b3576000805460ff1961ff0019909116610100171660011790555b8015611044576000805461ff001916905550565b6060610133805461093190615971565b6060816133fc57506040805180820190915260018152600360fc1b602082015261091d565b8160005b81156134265780613410816159ac565b915061341f9050600a83615748565b9150613400565b6000816001600160401b0381111561344e57634e487b7160e01b600052604160045260246000fd5b6040519080825280601f01601f191660200182016040528015613478576020820181803683370190505b5090505b8415610d7f5761348d60018361588f565b915061349a600a866159c7565b6134a5906030615730565b60f81b8183815181106134c857634e487b7160e01b600052603260045260246000fd5b60200101906001600160f81b031916908160001a9053506134ea600a86615748565b945061347c565b6134fa81612a25565b610ed785858585856131af565b6001600160e01b031981166301ffc9a760e01b14919050565b600081815260696020526040902080546001600160a01b0319166001600160a01b0384169081179091558190613555826113e0565b6001600160a01b03167f8c5be1e5ebec7d5bd14f71427d1e84f3dd0314c0f7b2291e5b200ac8c7c3b92560405160405180910390a45050565b600061359933611346565b156135ad575060331936013560601c6109b2565b6135b5613aa1565b90506109b2565b6135c4613de7565b506040805180820190915281518152602082810190820152919050565b6135e9613de7565b60006136078460000151856020015185600001518660200151613aa5565b9050836020015181613619919061588f565b8452509192915050565b61362b613de7565b604051806040016040528083815260200184866020015161364c9190615730565b9052949350505050565b80516020909101512090565b606060ca60006136718461378a565b81526020019081526020016000206000848152602001908152602001600020805461369b90615971565b80601f01602080910402602001604051908101604052809291908181526020018280546136c790615971565b80156137145780601f106136e957610100808354040283529160200191613714565b820191906000526020600020905b8154815290600101906020018083116136f757829003601f168201915b5050505050905092915050565b606082858560405160200161373893929190614b2b565b6040516020818303038152906040529050949350505050565b60608315613760575081610e4b565b8251156137705782518084602001fd5b8160405162461bcd60e51b81526004016109dc9190614de2565b600081815260cb6020526040812054156137b257600082815260cb602052604090205461091a565b5090565b6000610c13826137ef8787876040516020016137d493929190614ae7565b60405160208183030381529060405280519060200120613b54565b90613b84565b60ca60006138028361378a565b81526020019081526020016000206000858152602001908152602001600020805461382c90615971565b1515905061388357826040516138429190614b0f565b6040518091039020817f7ae4f661958fbecc2f77be6b0eb280d2a6f604b29e1e7221c82b9da0c4af7f868560405161387a9190614de2565b60405180910390a35b8160ca60006138918461378a565b8152602001908152602001600020600086815260200190815260200160002090805190602001906138c3929190613d73565b50816040516138d29190614b0f565b6040518091039020836040516138e89190614b0f565b6040518091039020827f851ffe8e74d5015261dba0a1f9e1b0e5d42c5af5d2ad1908fee897c7d80a0d928686604051613922929190614e30565b60405180910390a450505050565b600081815260c960205260408120805482919061394c90615971565b9050119050919050565b61396083836126f0565b61396d6000848484613989565b610a4e5760405162461bcd60e51b81526004016109dc90614f0c565b600061399d846001600160a01b0316613c00565b15613a9957836001600160a01b031663150b7a026139b961264d565b8786866040518563ffffffff1660e01b81526004016139db9493929190614cc5565b602060405180830381600087803b1580156139f557600080fd5b505af1925050508015613a25575060408051601f3d908101601f19168201909252613a22918101906146b9565b60015b613a7f573d808015613a53576040519150601f19603f3d011682016040523d82523d6000602084013e613a58565b606091505b508051613a775760405162461bcd60e51b81526004016109dc90614f0c565b805181602001fd5b6001600160e01b031916630a85bd0160e11b149050610d7f565b506001610d7f565b3390565b600080858411613b4a5760006001613abe86602061588f565b613ac9906008615870565b613ad49060026157a2565b613ade919061588f565b845190199150811685613af18989615730565b613afb919061588f565b805190935082165b818114613b3557878411613b1d5787945050505050610d7f565b83613b278161595a565b945050828451169050613b03565b613b3f8785615730565b945050505050610d7f565b5092949350505050565b600081604051602001613b679190614bda565b604051602081830303815290604052805190602001209050919050565b600080600080845160411415613bae5750505060208201516040830151606084015160001a613bf4565b845160401415613bdc5750505060408201516020830151906001600160ff1b0381169060ff1c601b01613bf4565b60405162461bcd60e51b81526004016109dc90614e8c565b612c7786828585613c06565b3b151590565b60007f7fffffffffffffffffffffffffffffff5d576e7357a4501ddfe92f46681b20a0821115613c485760405162461bcd60e51b81526004016109dc9061508e565b8360ff16601b1480613c5d57508360ff16601c145b613c795760405162461bcd60e51b81526004016109dc906152d8565b600060018686868660405160008152602001604052604051613c9e9493929190614daf565b6020604051602081039080840390855afa158015613cc0573d6000803e3d6000fd5b5050604051601f1901519150506001600160a01b038116610c135760405162461bcd60e51b81526004016109dc90614e55565b828054613cff90615971565b90600052602060002090601f016020900481019282613d215760008555613d67565b82601f10613d3a5782800160ff19823516178555613d67565b82800160010185558215613d67579182015b82811115613d67578235825591602001919060010190613d4c565b506137b2929150613e01565b828054613d7f90615971565b90600052602060002090601f016020900481019282613da15760008555613d67565b82601f10613dba57805160ff1916838001178555613d67565b82800160010185558215613d67579182015b82811115613d67578251825591602001919060010190613dcc565b604051806040016040528060008152602001600081525090565b5b808211156137b25760008155600101613e02565b6000613e29613e2484615709565b6156e0565b9050828152838383011115613e3d57600080fd5b828260208301376000602084830101529392505050565b803561091d81615a1d565b60008083601f840112613e70578182fd5b5081356001600160401b03811115613e86578182fd5b6020830191508360208083028501011115613ea057600080fd5b9250929050565b8035801515811461091d57600080fd5b60008083601f840112613ec8578182fd5b5081356001600160401b03811115613ede578182fd5b602083019150836020828501011115613ea057600080fd5b600082601f830112613f06578081fd5b610e4b83833560208501613e16565b600060208284031215613f26578081fd5b8135610e4b81615a1d565b600060208284031215613f42578081fd5b8151610e4b81615a1d565b60008060408385031215613f5f578081fd5b8235613f6a81615a1d565b91506020830135613f7a81615a1d565b809150509250929050565b600080600060608486031215613f99578081fd5b8335613fa481615a1d565b92506020840135613fb481615a1d565b929592945050506040919091013590565b600080600080600060808688031215613fdc578283fd5b8535613fe781615a1d565b94506020860135613ff781615a1d565b93506040860135925060608601356001600160401b03811115614018578182fd5b61402488828901613eb7565b969995985093965092949392505050565b600080600080600080600060a0888a03121561404f578485fd5b873561405a81615a1d565b9650602088013561406a81615a1d565b95506040880135945060608801356001600160401b038082111561408c578384fd5b6140988b838c01613eb7565b909650945060808a01359150808211156140b0578384fd5b506140bd8a828b01613eb7565b989b979a50959850939692959293505050565b600080600080608085870312156140e5578182fd5b84356140f081615a1d565b9350602085013561410081615a1d565b92506040850135915060608501356001600160401b03811115614121578182fd5b61412d87828801613ef6565b91505092959194509250565b6000806040838503121561414b578182fd5b823561415681615a1d565b915061302f60208401613ea7565b600080600060408486031215614178578081fd5b833561418381615a1d565b925060208401356001600160401b0381111561419d578182fd5b6141a986828701613eb7565b9497909650939450505050565b600080604083850312156141c8578182fd5b82356141d381615a1d565b946020939093013593505050565b600080600080606085870312156141f6578182fd5b843561420181615a1d565b93506020850135925060408501356001600160401b03811115614222578283fd5b61422e87828801613eb7565b95989497509550505050565b60008060008060008060008060a0898b031215614255578182fd5b883561426081615a1d565b97506020890135965060408901356001600160401b0380821115614282578384fd5b61428e8c838d01613eb7565b909850965060608b01359150808211156142a6578384fd5b6142b28c838d01613e5f565b909650945060808b01359150808211156142ca578384fd5b506142d78b828c01613e5f565b999c989b5096995094979396929594505050565b60008060008060008060008060008060c08b8d031215614309578384fd5b6143128b613e54565b995060208b0135985060408b01356001600160401b0380821115614334578586fd5b6143408e838f01613eb7565b909a50985060608d0135915080821115614358578586fd5b6143648e838f01613e5f565b909850965060808d013591508082111561437c578586fd5b6143888e838f01613e5f565b909650945060a08d01359150808211156143a0578384fd5b506143ad8d828e01613eb7565b915080935050809150509295989b9194979a5092959850565b600080600080600080608087890312156143de578384fd5b86356143e981615a1d565b95506020870135945060408701356001600160401b038082111561440b578586fd5b6144178a838b01613eb7565b9096509450606089013591508082111561442f578384fd5b5061443c89828a01613eb7565b979a9699509497509295939492505050565b600080600080600060608688031215614465578283fd5b85356001600160401b038082111561447b578485fd5b61448789838a01613e5f565b9097509550602088013591508082111561449f578485fd5b506144ac88828901613e5f565b96999598509660400135949350505050565b60008060008060008060006080888a0312156144d8578081fd5b87356001600160401b03808211156144ee578283fd5b6144fa8b838c01613e5f565b909950975060208a0135915080821115614512578283fd5b61451e8b838c01613e5f565b909750955060408a0135945060608a01359150808211156140b0578283fd5b600080600060408486031215614551578081fd5b83356001600160401b03811115614566578182fd5b61457286828701613e5f565b909790965060209590950135949350505050565b60008060208385031215614598578182fd5b82356001600160401b038111156145ad578283fd5b6145b985828601613e5f565b90969095509350505050565b600060208083850312156145d7578182fd5b82356001600160401b03808211156145ed578384fd5b818501915085601f830112614600578384fd5b81358181111561461257614612615a07565b83810291506146228483016156e0565b8181528481019084860184860187018a101561463c578788fd5b8795505b8386101561465e578035835260019590950194918601918601614640565b5098975050505050505050565b60006020828403121561467c578081fd5b610e4b82613ea7565b600060208284031215614696578081fd5b5051919050565b6000602082840312156146ae578081fd5b8135610e4b81615a32565b6000602082840312156146ca578081fd5b8151610e4b81615a32565b600080602083850312156146e7578182fd5b82356001600160401b038111156146fc578283fd5b6145b985828601613eb7565b60008060008060006060868803121561471f578283fd5b85356001600160401b0380821115614735578485fd5b61474189838a01613eb7565b90975095506020880135915080821115614759578485fd5b506144ac88828901613eb7565b60008060008060008060006080888a031215614780578081fd5b87356001600160401b0380821115614796578283fd5b6147a28b838c01613eb7565b909950975060208a01359150808211156147ba578283fd5b61451e8b838c01613eb7565b6000806000604084860312156147da578081fd5b83356001600160401b038111156147ef578182fd5b61457286828701613eb7565b60006020828403121561480c578081fd5b81356001600160401b03811115614821578182fd5b8201601f81018413614831578182fd5b610d7f84823560208401613e16565b600060208284031215614851578081fd5b81516001600160401b03811115614866578182fd5b8201601f81018413614876578182fd5b8051614884613e2482615709565b818152856020838501011115614898578384fd5b610c1382602083016020860161592e565b6000806000604084860312156148bd578081fd5b83356001600160401b03808211156148d3578283fd5b90850190608082880312156148e6578283fd5b909350602085013590808211156148fb578283fd5b506141a986828701613eb7565b600060208284031215614919578081fd5b5035919050565b600080600060408486031215614934578081fd5b8335925060208401356001600160401b0381111561419d578182fd5b60008060008060608587031215614965578182fd5b8435935060208501356001600160401b03811115614981578283fd5b61498d87828801613eb7565b9598909750949560400135949350505050565b600080604083850312156149b2578182fd5b50508035926020909101359150565b818352602080840193600091908185020181018584845b87811015614a3e5782840389528135601e198836030181126149f8578687fd5b870180356001600160401b03811115614a0f578788fd5b803603891315614a1d578788fd5b614a2a8682898501614a91565b9a87019a95505050908401906001016149d8565b5091979650505050505050565b6000815180845260208085018081965082840281019150828601855b85811015614a3e578284038952614a7f848351614abb565b98850198935090840190600101614a67565b60008284528282602086013780602084860101526020601f19601f85011685010190509392505050565b60008151808452614ad381602086016020860161592e565b601f01601f19169290920160200192915050565b92835260609190911b6bffffffffffffffffffffffff19166020830152603482015260540190565b60008251614b2181846020870161592e565b9190910192915050565b60008451614b3d81846020890161592e565b60609490941b6bffffffffffffffffffffffff191691909301908152601481019190915260340192915050565b6000828483379101908152919050565b60008351614b8c81846020880161592e565b835190830190614ba081836020880161592e565b01949350505050565b7f52656769737472793a20494e56414c49445f544f4b454e5f4f574e45522000008152601e810191909152603e0190565b7f19457468657265756d205369676e6564204d6573736167653a0a3332000000008152601c810191909152603c0190565b90815260200190565b918252602082015260400190565b6001600160a01b0391909116815260200190565b6001600160a01b03848116825283166020820152606060408201819052600090610c1390830184614abb565b6001600160a01b039384168152919092166020820152604081019190915260600190565b6001600160a01b0386811682528516602082015260408101849052608060608201819052600090614cba9083018486614a91565b979650505050505050565b6001600160a01b0385811682528416602082015260408101839052608060608201819052600090612c7790830184614abb565b600060608252614d0c6060830187896149c1565b8281036020840152614d1f8186886149c1565b9150508260408301529695505050505050565b600060208252610e4b6020830184614a4b565b600060408252614d586040830185614a4b565b8281036020840152610e478185614a4b565b6020808252810182905260006001600160fb1b03831115614d89578081fd5b60208302808560408501379190910160400190815292915050565b901515815260200190565b93845260ff9290921660208401526040830152606082015260800190565b6001600160e01b031991909116815260200190565b600060208252610e4b6020830184614abb565b600060208252610d7f602083018486614a91565b600060608252614e1d606083018789614a91565b8281036020840152614d1f818688614a91565b600060408252614e436040830185614abb565b8281036020840152610e478185614abb565b60208082526018908201527f45434453413a20696e76616c6964207369676e61747572650000000000000000604082015260600190565b6020808252601f908201527f45434453413a20696e76616c6964207369676e6174757265206c656e67746800604082015260600190565b60208082526029908201527f52656769737472793a2053454e4445525f49535f4e4f545f415050524f5645446040820152682fa7a92fa7aba722a960b91b606082015260800190565b60208082526032908201527f4552433732313a207472616e7366657220746f206e6f6e20455243373231526560408201527131b2b4bb32b91034b6b83632b6b2b73a32b960711b606082015260800190565b6020808252601c908201527f5265636f726453746f726167653a204b45595f4e4f545f464f554e4400000000604082015260600190565b6020808252601c908201527f4552433732313a20746f6b656e20616c7265616479206d696e74656400000000604082015260600190565b60208082526027908201527f52656769737472793a204348494c445f434841494e5f4d414e454745525f4e4f604082015266545f454d50545960c81b606082015260800190565b60208082526024908201527f4552433732313a207472616e7366657220746f20746865207a65726f206164646040820152637265737360e01b606082015260800190565b60208082526019908201527f4552433732313a20617070726f766520746f2063616c6c657200000000000000604082015260600190565b60208082526022908201527f45434453413a20696e76616c6964207369676e6174757265202773272076616c604082015261756560f01b606082015260800190565b60208082526027908201527f52656769737472793a2053454e4445525f49535f4e4f545f4d494e54494e475f60408201526626a0a720a3a2a960c91b606082015260800190565b6020808252602c908201527f4552433732313a206f70657261746f7220717565727920666f72206e6f6e657860408201526b34b9ba32b73a103a37b5b2b760a11b606082015260800190565b60208082526017908201527f52656769737472793a20544f4b454e5f494e56414c4944000000000000000000604082015260600190565b60208082526038908201527f4552433732313a20617070726f76652063616c6c6572206973206e6f74206f7760408201527f6e6572206e6f7220617070726f76656420666f7220616c6c0000000000000000606082015260800190565b6020808252602a908201527f4552433732313a2062616c616e636520717565727920666f7220746865207a65604082015269726f206164647265737360b01b606082015260800190565b60208082526029908201527f4552433732313a206f776e657220717565727920666f72206e6f6e657869737460408201526832b73a103a37b5b2b760b91b606082015260800190565b6020808252602e908201527f496e697469616c697a61626c653a20636f6e747261637420697320616c72656160408201526d191e481a5b9a5d1a585b1a5e995960921b606082015260800190565b60208082526022908201527f45434453413a20696e76616c6964207369676e6174757265202776272076616c604082015261756560f01b606082015260800190565b6020808252818101527f52656769737472793a20434e535f52454749535452595f4e4f545f454d505459604082015260600190565b6020808252818101527f4552433732313a206d696e7420746f20746865207a65726f2061646472657373604082015260600190565b6020808252602c908201527f4552433732313a20617070726f76656420717565727920666f72206e6f6e657860408201526b34b9ba32b73a103a37b5b2b760a11b606082015260800190565b60208082526026908201527f52656769737472793a20524f4f545f434841494e5f4d414e454745525f4e4f546040820152655f454d50545960d01b606082015260800190565b60208082526029908201527f4552433732313a207472616e73666572206f6620746f6b656e2074686174206960408201526839903737ba1037bbb760b91b606082015260800190565b6020808252602f908201527f4552433732314d657461646174613a2055524920717565727920666f72206e6f60408201526e3732bc34b9ba32b73a103a37b5b2b760891b606082015260800190565b60208082526027908201527f554e535265676973747279466f727761726465723a205349474e41545552455f6040820152661253959053125160ca1b606082015260800190565b6020808252601d908201527f52656769737472793a20494e56414c49445f544f4b454e5f4f574e4552000000604082015260600190565b60208082526021908201527f4552433732313a20617070726f76616c20746f2063757272656e74206f776e656040820152603960f91b606082015260800190565b6020808252601d908201527f52656769737472793a20455843454544535f42415443485f4c494d4954000000604082015260600190565b60208082526025908201527f52656769737472793a204552433732315f524543454956494e475f50524f4849604082015264109255115160da1b606082015260800190565b60208082526022908201527f52656769737472793a20544f4b454e5f555047524144455f50524f4849424954604082015261115160f21b606082015260800190565b60208082526022908201527f52656769737472793a20494e53554646494349454e545f5045524d495353494f6040820152614e5360f01b606082015260800190565b60208082526015908201527452656769737472793a204c4142454c5f454d50545960581b604082015260600190565b6000808335601e198436030181126156b2578283fd5b8301803591506001600160401b038211156156cb578283fd5b602001915036819003821315613ea057600080fd5b6040518181016001600160401b038111828210171561570157615701615a07565b604052919050565b60006001600160401b0382111561572257615722615a07565b50601f01601f191660200190565b60008219821115615743576157436159db565b500190565b600082615757576157576159f1565b500490565b80825b600180861161576e5750615799565b818704821115615780576157806159db565b8086161561578d57918102915b9490941c93800261575f565b94509492505050565b6000610e4b60001984846000826157bb57506001610e4b565b816157c857506000610e4b565b81600181146157de57600281146157e857615815565b6001915050610e4b565b60ff8411156157f9576157f96159db565b6001841b91508482111561580f5761580f6159db565b50610e4b565b5060208310610133831016604e8410600b8410161715615848575081810a83811115615843576158436159db565b610e4b565b615855848484600161575c565b808604821115615867576158676159db565b02949350505050565b600081600019048311821515161561588a5761588a6159db565b500290565b6000828210156158a1576158a16159db565b500390565b6000608082360312156158b7578081fd5b604051608081016001600160401b0382821081831117156158da576158da615a07565b81604052843591506158eb82615a1d565b81835260208501356020840152604085013560408401526060850135915080821115615915578384fd5b5061592236828601613ef6565b60608301525092915050565b60005b83811015615949578181015183820152602001615931565b838111156117135750506000910152565b600081615969576159696159db565b506000190190565b60028104600182168061598557607f821691505b602082108114156159a657634e487b7160e01b600052602260045260246000fd5b50919050565b60006000198214156159c0576159c06159db565b5060010190565b6000826159d6576159d66159f1565b500690565b634e487b7160e01b600052601160045260246000fd5b634e487b7160e01b600052601260045260246000fd5b634e487b7160e01b600052604160045260246000fd5b6001600160a01b038116811461104457600080fd5b6001600160e01b03198116811461104457600080fdfebe2bb46ac0377341a1ec5c3116d70fd5029d704bd46292e58f6265dd177ebafea164736f6c6343000800000a",
  "linkReferences": {},
  "deployedLinkReferences": {}
}