{
  "_format": "hh-sol-artifact-1",
  "contractName": "UNSRegistry",
  "sourceName": "contracts/UNSRegistry.sol",
  "abi": [
    {
      "anonymous": false,
      "inputs": [
        {
          "indexed": false,
          "internalType": "address",
          "name": "previousAdmin",
          "type": "address"
        },
        {
          "indexed": false,
          "internalType": "address",
          "name": "newAdmin",
          "type": "address"
        }
      ],
      "name": "AdminChanged",
      "type": "event"
    },
    {
      "anonymous": false,
      "inputs": [
        {
          "indexed": true,
          "internalType": "address",
          "name": "owner",
          "type": "address"
        },
        {
          "indexed": true,
          "internalType": "address",
          "name": "approved",
          "type": "address"
        },
        {
          "indexed": true,
          "internalType": "uint256",
          "name": "tokenId",
          "type": "uint256"
        }
      ],
      "name": "Approval",
      "type": "event"
    },
    {
      "anonymous": false,
      "inputs": [
        {
          "indexed": true,
          "internalType": "address",
          "name": "owner",
          "type": "address"
        },
        {
          "indexed": true,
          "internalType": "address",
          "name": "operator",
          "type": "address"
        },
        {
          "indexed": false,
          "internalType": "bool",
          "name": "approved",
          "type": "bool"
        }
      ],
      "name": "ApprovalForAll",
      "type": "event"
    },
    {
      "anonymous": false,
      "inputs": [
        {
          "indexed": false,
          "internalType": "uint8",
          "name": "version",
          "type": "uint8"
        }
      ],
      "name": "Initialized",
      "type": "event"
    },
    {
      "anonymous": false,
      "inputs": [
        {
          "indexed": true,
          "internalType": "uint256",
          "name": "tokenId",
          "type": "uint256"
        },
        {
          "indexed": true,
          "internalType": "string",
          "name": "keyIndex",
          "type": "string"
        },
        {
          "indexed": false,
          "internalType": "string",
          "name": "key",
          "type": "string"
        }
      ],
      "name": "NewKey",
      "type": "event"
    },
    {
      "anonymous": false,
      "inputs": [
        {
          "indexed": true,
          "internalType": "uint256",
          "name": "tokenId",
          "type": "uint256"
        },
        {
          "indexed": false,
          "internalType": "string",
          "name": "uri",
          "type": "string"
        }
      ],
      "name": "NewURI",
      "type": "event"
    },
    {
      "anonymous": false,
      "inputs": [
        {
          "indexed": false,
          "internalType": "string",
          "name": "prefix",
          "type": "string"
        }
      ],
      "name": "NewURIPrefix",
      "type": "event"
    },
    {
      "anonymous": false,
      "inputs": [
        {
          "indexed": true,
          "internalType": "address",
          "name": "addr",
          "type": "address"
        }
      ],
      "name": "RemoveReverse",
      "type": "event"
    },
    {
      "anonymous": false,
      "inputs": [
        {
          "indexed": true,
          "internalType": "uint256",
          "name": "tokenId",
          "type": "uint256"
        }
      ],
      "name": "ResetRecords",
      "type": "event"
    },
    {
      "anonymous": false,
      "inputs": [
        {
          "indexed": true,
          "internalType": "uint256",
          "name": "tokenId",
          "type": "uint256"
        },
        {
          "indexed": true,
          "internalType": "string",
          "name": "keyIndex",
          "type": "string"
        },
        {
          "indexed": true,
          "internalType": "string",
          "name": "valueIndex",
          "type": "string"
        },
        {
          "indexed": false,
          "internalType": "string",
          "name": "key",
          "type": "string"
        },
        {
          "indexed": false,
          "internalType": "string",
          "name": "value",
          "type": "string"
        }
      ],
      "name": "Set",
      "type": "event"
    },
    {
      "anonymous": false,
      "inputs": [
        {
          "indexed": true,
          "internalType": "address",
          "name": "addr",
          "type": "address"
        },
        {
          "indexed": true,
          "internalType": "uint256",
          "name": "tokenId",
          "type": "uint256"
        }
      ],
      "name": "SetReverse",
      "type": "event"
    },
    {
      "anonymous": false,
      "inputs": [
        {
          "indexed": true,
          "internalType": "address",
          "name": "from",
          "type": "address"
        },
        {
          "indexed": true,
          "internalType": "address",
          "name": "to",
          "type": "address"
        },
        {
          "indexed": true,
          "internalType": "uint256",
          "name": "tokenId",
          "type": "uint256"
        }
      ],
      "name": "Transfer",
      "type": "event"
    },
    {
      "anonymous": false,
      "inputs": [
        {
          "indexed": true,
          "internalType": "address",
          "name": "implementation",
          "type": "address"
        }
      ],
      "name": "Upgraded",
      "type": "event"
    },
    {
      "anonymous": false,
      "inputs": [
        {
          "indexed": true,
          "internalType": "address",
          "name": "user",
          "type": "address"
        },
        {
          "indexed": false,
          "internalType": "uint256[]",
          "name": "tokenIds",
          "type": "uint256[]"
        }
      ],
      "name": "WithdrawnBatch",
      "type": "event"
    },
    {
      "inputs": [],
      "name": "BATCH_LIMIT",
      "outputs": [
        {
          "internalType": "uint256",
          "name": "",
          "type": "uint256"
        }
      ],
      "stateMutability": "view",
      "type": "function"
    },
    {
      "inputs": [],
      "name": "NAME",
      "outputs": [
        {
          "internalType": "string",
          "name": "",
          "type": "string"
        }
      ],
      "stateMutability": "view",
      "type": "function"
    },
    {
      "inputs": [],
      "name": "VERSION",
      "outputs": [
        {
          "internalType": "string",
          "name": "",
          "type": "string"
        }
      ],
      "stateMutability": "view",
      "type": "function"
    },
    {
      "inputs": [
        {
          "internalType": "string",
          "name": "key",
          "type": "string"
        }
      ],
      "name": "addKey",
      "outputs": [],
      "stateMutability": "nonpayable",
      "type": "function"
    },
    {
      "inputs": [
        {
          "internalType": "address",
          "name": "addr",
          "type": "address"
        }
      ],
      "name": "addProxyReader",
      "outputs": [],
      "stateMutability": "nonpayable",
      "type": "function"
    },
    {
      "inputs": [
        {
          "internalType": "address",
          "name": "to",
          "type": "address"
        },
        {
          "internalType": "uint256",
          "name": "tokenId",
          "type": "uint256"
        }
      ],
      "name": "approve",
      "outputs": [],
      "stateMutability": "nonpayable",
      "type": "function"
    },
    {
      "inputs": [
        {
          "internalType": "address",
          "name": "owner",
          "type": "address"
        }
      ],
      "name": "balanceOf",
      "outputs": [
        {
          "internalType": "uint256",
          "name": "",
          "type": "uint256"
        }
      ],
      "stateMutability": "view",
      "type": "function"
    },
    {
      "inputs": [
        {
          "internalType": "uint256",
          "name": "tokenId",
          "type": "uint256"
        }
      ],
      "name": "burn",
      "outputs": [],
      "stateMutability": "nonpayable",
      "type": "function"
    },
    {
      "inputs": [
        {
          "internalType": "address",
          "name": "user",
          "type": "address"
        },
        {
          "internalType": "bytes",
          "name": "depositData",
          "type": "bytes"
        }
      ],
      "name": "deposit",
      "outputs": [],
      "stateMutability": "nonpayable",
      "type": "function"
    },
    {
      "inputs": [
        {
          "internalType": "uint256",
          "name": "tokenId",
          "type": "uint256"
        }
      ],
      "name": "depositToPolygon",
      "outputs": [],
      "stateMutability": "nonpayable",
      "type": "function"
    },
    {
      "inputs": [
        {
          "components": [
            {
              "internalType": "address",
              "name": "from",
              "type": "address"
            },
            {
              "internalType": "uint256",
              "name": "nonce",
              "type": "uint256"
            },
            {
              "internalType": "uint256",
              "name": "tokenId",
              "type": "uint256"
            },
            {
              "internalType": "bytes",
              "name": "data",
              "type": "bytes"
            }
          ],
          "internalType": "struct IForwarder.ForwardRequest",
          "name": "req",
          "type": "tuple"
        },
        {
          "internalType": "bytes",
          "name": "signature",
          "type": "bytes"
        }
      ],
      "name": "execute",
      "outputs": [
        {
          "internalType": "bytes",
          "name": "",
          "type": "bytes"
        }
      ],
      "stateMutability": "nonpayable",
      "type": "function"
    },
    {
      "inputs": [
        {
          "internalType": "uint256",
          "name": "tokenId",
          "type": "uint256"
        }
      ],
      "name": "exists",
      "outputs": [
        {
          "internalType": "bool",
          "name": "",
          "type": "bool"
        }
      ],
      "stateMutability": "view",
      "type": "function"
    },
    {
      "inputs": [
        {
          "internalType": "string",
          "name": "key",
          "type": "string"
        },
        {
          "internalType": "uint256",
          "name": "tokenId",
          "type": "uint256"
        }
      ],
      "name": "get",
      "outputs": [
        {
          "internalType": "string",
          "name": "value",
          "type": "string"
        }
      ],
      "stateMutability": "view",
      "type": "function"
    },
    {
      "inputs": [
        {
          "internalType": "uint256",
          "name": "tokenId",
          "type": "uint256"
        }
      ],
      "name": "getApproved",
      "outputs": [
        {
          "internalType": "address",
          "name": "",
          "type": "address"
        }
      ],
      "stateMutability": "view",
      "type": "function"
    },
    {
      "inputs": [
        {
          "internalType": "uint256",
          "name": "keyHash",
          "type": "uint256"
        },
        {
          "internalType": "uint256",
          "name": "tokenId",
          "type": "uint256"
        }
      ],
      "name": "getByHash",
      "outputs": [
        {
          "internalType": "string",
          "name": "key",
          "type": "string"
        },
        {
          "internalType": "string",
          "name": "value",
          "type": "string"
        }
      ],
      "stateMutability": "view",
      "type": "function"
    },
    {
      "inputs": [
        {
          "internalType": "uint256",
          "name": "keyHash",
          "type": "uint256"
        }
      ],
      "name": "getKey",
      "outputs": [
        {
          "internalType": "string",
          "name": "",
          "type": "string"
        }
      ],
      "stateMutability": "view",
      "type": "function"
    },
    {
      "inputs": [
        {
          "internalType": "uint256[]",
          "name": "hashes",
          "type": "uint256[]"
        }
      ],
      "name": "getKeys",
      "outputs": [
        {
          "internalType": "string[]",
          "name": "values",
          "type": "string[]"
        }
      ],
      "stateMutability": "view",
      "type": "function"
    },
    {
      "inputs": [
        {
          "internalType": "string[]",
          "name": "keys",
          "type": "string[]"
        },
        {
          "internalType": "uint256",
          "name": "tokenId",
          "type": "uint256"
        }
      ],
      "name": "getMany",
      "outputs": [
        {
          "internalType": "string[]",
          "name": "values",
          "type": "string[]"
        }
      ],
      "stateMutability": "view",
      "type": "function"
    },
    {
      "inputs": [
        {
          "internalType": "uint256[]",
          "name": "keyHashes",
          "type": "uint256[]"
        },
        {
          "internalType": "uint256",
          "name": "tokenId",
          "type": "uint256"
        }
      ],
      "name": "getManyByHash",
      "outputs": [
        {
          "internalType": "string[]",
          "name": "keys",
          "type": "string[]"
        },
        {
          "internalType": "string[]",
          "name": "values",
          "type": "string[]"
        }
      ],
      "stateMutability": "view",
      "type": "function"
    },
    {
      "inputs": [
        {
          "internalType": "address",
          "name": "mintingManager",
          "type": "address"
        }
      ],
      "name": "initialize",
      "outputs": [],
      "stateMutability": "nonpayable",
      "type": "function"
    },
    {
      "inputs": [
        {
          "internalType": "address",
          "name": "owner",
          "type": "address"
        },
        {
          "internalType": "address",
          "name": "operator",
          "type": "address"
        }
      ],
      "name": "isApprovedForAll",
      "outputs": [
        {
          "internalType": "bool",
          "name": "",
          "type": "bool"
        }
      ],
      "stateMutability": "view",
      "type": "function"
    },
    {
      "inputs": [
        {
          "internalType": "address",
          "name": "spender",
          "type": "address"
        },
        {
          "internalType": "uint256",
          "name": "tokenId",
          "type": "uint256"
        }
      ],
      "name": "isApprovedOrOwner",
      "outputs": [
        {
          "internalType": "bool",
          "name": "",
          "type": "bool"
        }
      ],
      "stateMutability": "view",
      "type": "function"
    },
    {
      "inputs": [
        {
          "internalType": "address",
          "name": "forwarder",
          "type": "address"
        }
      ],
      "name": "isTrustedForwarder",
      "outputs": [
        {
          "internalType": "bool",
          "name": "",
          "type": "bool"
        }
      ],
      "stateMutability": "view",
      "type": "function"
    },
    {
      "inputs": [
        {
          "internalType": "address",
          "name": "user",
          "type": "address"
        },
        {
          "internalType": "uint256",
          "name": "tokenId",
          "type": "uint256"
        }
      ],
      "name": "mint",
      "outputs": [],
      "stateMutability": "nonpayable",
      "type": "function"
    },
    {
      "inputs": [
        {
          "internalType": "address",
          "name": "user",
          "type": "address"
        },
        {
          "internalType": "uint256",
          "name": "tokenId",
          "type": "uint256"
        },
        {
          "internalType": "bytes",
          "name": "",
          "type": "bytes"
        }
      ],
      "name": "mint",
      "outputs": [],
      "stateMutability": "nonpayable",
      "type": "function"
    },
    {
      "inputs": [
        {
          "internalType": "uint256",
          "name": "tokenId",
          "type": "uint256"
        },
        {
          "internalType": "string",
          "name": "uri",
          "type": "string"
        }
      ],
      "name": "mintTLD",
      "outputs": [],
      "stateMutability": "nonpayable",
      "type": "function"
    },
    {
      "inputs": [
        {
          "internalType": "address",
          "name": "to",
          "type": "address"
        },
        {
          "internalType": "string[]",
          "name": "labels",
          "type": "string[]"
        },
        {
          "internalType": "string[]",
          "name": "keys",
          "type": "string[]"
        },
        {
          "internalType": "string[]",
          "name": "values",
          "type": "string[]"
        }
      ],
      "name": "mintWithRecords",
      "outputs": [],
      "stateMutability": "nonpayable",
      "type": "function"
    },
    {
      "inputs": [],
      "name": "name",
      "outputs": [
        {
          "internalType": "string",
          "name": "",
          "type": "string"
        }
      ],
      "stateMutability": "view",
      "type": "function"
    },
    {
      "inputs": [
        {
          "internalType": "string[]",
          "name": "labels",
          "type": "string[]"
        }
      ],
      "name": "namehash",
      "outputs": [
        {
          "internalType": "uint256",
          "name": "",
          "type": "uint256"
        }
      ],
      "stateMutability": "pure",
      "type": "function"
    },
    {
      "inputs": [
        {
          "internalType": "uint256",
          "name": "tokenId",
          "type": "uint256"
        }
      ],
      "name": "nonceOf",
      "outputs": [
        {
          "internalType": "uint256",
          "name": "",
          "type": "uint256"
        }
      ],
      "stateMutability": "view",
      "type": "function"
    },
    {
      "inputs": [
        {
          "internalType": "address",
          "name": "",
          "type": "address"
        },
        {
          "internalType": "address",
          "name": "from",
          "type": "address"
        },
        {
          "internalType": "uint256",
          "name": "tokenId",
          "type": "uint256"
        },
        {
          "internalType": "bytes",
          "name": "data",
          "type": "bytes"
        }
      ],
      "name": "onERC721Received",
      "outputs": [
        {
          "internalType": "bytes4",
          "name": "",
          "type": "bytes4"
        }
      ],
      "stateMutability": "nonpayable",
      "type": "function"
    },
    {
      "inputs": [
        {
          "internalType": "uint256",
          "name": "tokenId",
          "type": "uint256"
        }
      ],
      "name": "ownerOf",
      "outputs": [
        {
          "internalType": "address",
          "name": "",
          "type": "address"
        }
      ],
      "stateMutability": "view",
      "type": "function"
    },
    {
      "inputs": [
        {
          "internalType": "string[]",
          "name": "keys",
          "type": "string[]"
        },
        {
          "internalType": "string[]",
          "name": "values",
          "type": "string[]"
        },
        {
          "internalType": "uint256",
          "name": "tokenId",
          "type": "uint256"
        }
      ],
      "name": "reconfigure",
      "outputs": [],
      "stateMutability": "nonpayable",
      "type": "function"
    },
    {
      "inputs": [],
      "name": "removeReverse",
      "outputs": [],
      "stateMutability": "nonpayable",
      "type": "function"
    },
    {
      "inputs": [
        {
          "internalType": "uint256",
          "name": "tokenId",
          "type": "uint256"
        }
      ],
      "name": "reset",
      "outputs": [],
      "stateMutability": "nonpayable",
      "type": "function"
    },
    {
      "inputs": [
        {
          "internalType": "uint256",
          "name": "tokenId",
          "type": "uint256"
        }
      ],
      "name": "resolverOf",
      "outputs": [
        {
          "internalType": "address",
          "name": "",
          "type": "address"
        }
      ],
      "stateMutability": "view",
      "type": "function"
    },
    {
      "inputs": [
        {
          "internalType": "address",
          "name": "addr",
          "type": "address"
        }
      ],
      "name": "reverseOf",
      "outputs": [
        {
          "internalType": "uint256",
          "name": "reverse",
          "type": "uint256"
        }
      ],
      "stateMutability": "view",
      "type": "function"
    },
    {
      "inputs": [],
      "name": "root",
      "outputs": [
        {
          "internalType": "uint256",
          "name": "",
          "type": "uint256"
        }
      ],
      "stateMutability": "pure",
      "type": "function"
    },
    {
      "inputs": [
        {
          "internalType": "address",
          "name": "from",
          "type": "address"
        },
        {
          "internalType": "address",
          "name": "to",
          "type": "address"
        },
        {
          "internalType": "uint256",
          "name": "tokenId",
          "type": "uint256"
        }
      ],
      "name": "safeTransferFrom",
      "outputs": [],
      "stateMutability": "nonpayable",
      "type": "function"
    },
    {
      "inputs": [
        {
          "internalType": "address",
          "name": "from",
          "type": "address"
        },
        {
          "internalType": "address",
          "name": "to",
          "type": "address"
        },
        {
          "internalType": "uint256",
          "name": "tokenId",
          "type": "uint256"
        },
        {
          "internalType": "bytes",
          "name": "data",
          "type": "bytes"
        }
      ],
      "name": "safeTransferFrom",
      "outputs": [],
      "stateMutability": "nonpayable",
      "type": "function"
    },
    {
      "inputs": [
        {
          "internalType": "string",
          "name": "key",
          "type": "string"
        },
        {
          "internalType": "string",
          "name": "value",
          "type": "string"
        },
        {
          "internalType": "uint256",
          "name": "tokenId",
          "type": "uint256"
        }
      ],
      "name": "set",
      "outputs": [],
      "stateMutability": "nonpayable",
      "type": "function"
    },
    {
      "inputs": [
        {
          "internalType": "address",
          "name": "operator",
          "type": "address"
        },
        {
          "internalType": "bool",
          "name": "approved",
          "type": "bool"
        }
      ],
      "name": "setApprovalForAll",
      "outputs": [],
      "stateMutability": "nonpayable",
      "type": "function"
    },
    {
      "inputs": [
        {
          "internalType": "uint256",
          "name": "keyHash",
          "type": "uint256"
        },
        {
          "internalType": "string",
          "name": "value",
          "type": "string"
        },
        {
          "internalType": "uint256",
          "name": "tokenId",
          "type": "uint256"
        }
      ],
      "name": "setByHash",
      "outputs": [],
      "stateMutability": "nonpayable",
      "type": "function"
    },
    {
      "inputs": [
        {
          "internalType": "address",
          "name": "registry",
          "type": "address"
        }
      ],
      "name": "setCNSRegistry",
      "outputs": [],
      "stateMutability": "nonpayable",
      "type": "function"
    },
    {
      "inputs": [
        {
          "internalType": "address",
          "name": "clientChainManager",
          "type": "address"
        }
      ],
      "name": "setChildChainManager",
      "outputs": [],
      "stateMutability": "nonpayable",
      "type": "function"
    },
    {
      "inputs": [
        {
          "internalType": "string[]",
          "name": "keys",
          "type": "string[]"
        },
        {
          "internalType": "string[]",
          "name": "values",
          "type": "string[]"
        },
        {
          "internalType": "uint256",
          "name": "tokenId",
          "type": "uint256"
        }
      ],
      "name": "setMany",
      "outputs": [],
      "stateMutability": "nonpayable",
      "type": "function"
    },
    {
      "inputs": [
        {
          "internalType": "uint256[]",
          "name": "keyHashes",
          "type": "uint256[]"
        },
        {
          "internalType": "string[]",
          "name": "values",
          "type": "string[]"
        },
        {
          "internalType": "uint256",
          "name": "tokenId",
          "type": "uint256"
        }
      ],
      "name": "setManyByHash",
      "outputs": [],
      "stateMutability": "nonpayable",
      "type": "function"
    },
    {
      "inputs": [
        {
          "internalType": "address",
          "name": "to",
          "type": "address"
        },
        {
          "internalType": "uint256",
          "name": "tokenId",
          "type": "uint256"
        }
      ],
      "name": "setOwner",
      "outputs": [],
      "stateMutability": "nonpayable",
      "type": "function"
    },
    {
      "inputs": [
        {
          "internalType": "uint256",
          "name": "tokenId",
          "type": "uint256"
        }
      ],
      "name": "setReverse",
      "outputs": [],
      "stateMutability": "nonpayable",
      "type": "function"
    },
    {
      "inputs": [
        {
          "internalType": "address",
          "name": "to",
          "type": "address"
        },
        {
          "internalType": "uint256",
          "name": "tokenId",
          "type": "uint256"
        }
      ],
      "name": "setReverse",
      "outputs": [],
      "stateMutability": "nonpayable",
      "type": "function"
    },
    {
      "inputs": [
        {
          "internalType": "address",
          "name": "rootChainManager",
          "type": "address"
        }
      ],
      "name": "setRootChainManager",
      "outputs": [],
      "stateMutability": "nonpayable",
      "type": "function"
    },
    {
      "inputs": [
        {
          "internalType": "string",
          "name": "prefix",
          "type": "string"
        }
      ],
      "name": "setTokenURIPrefix",
      "outputs": [],
      "stateMutability": "nonpayable",
      "type": "function"
    },
    {
      "inputs": [
        {
          "internalType": "bytes4",
          "name": "interfaceId",
          "type": "bytes4"
        }
      ],
      "name": "supportsInterface",
      "outputs": [
        {
          "internalType": "bool",
          "name": "",
          "type": "bool"
        }
      ],
      "stateMutability": "view",
      "type": "function"
    },
    {
      "inputs": [],
      "name": "symbol",
      "outputs": [
        {
          "internalType": "string",
          "name": "",
          "type": "string"
        }
      ],
      "stateMutability": "view",
      "type": "function"
    },
    {
      "inputs": [
        {
          "internalType": "uint256",
          "name": "tokenId",
          "type": "uint256"
        }
      ],
      "name": "tokenURI",
      "outputs": [
        {
          "internalType": "string",
          "name": "",
          "type": "string"
        }
      ],
      "stateMutability": "view",
      "type": "function"
    },
    {
      "inputs": [
        {
          "internalType": "address",
          "name": "from",
          "type": "address"
        },
        {
          "internalType": "address",
          "name": "to",
          "type": "address"
        },
        {
          "internalType": "uint256",
          "name": "tokenId",
          "type": "uint256"
        }
      ],
      "name": "transferFrom",
      "outputs": [],
      "stateMutability": "nonpayable",
      "type": "function"
    },
    {
      "inputs": [
        {
          "internalType": "uint256[]",
          "name": "tokenIds",
          "type": "uint256[]"
        }
      ],
      "name": "upgradeAll",
      "outputs": [],
      "stateMutability": "nonpayable",
      "type": "function"
    },
    {
      "inputs": [
        {
          "components": [
            {
              "internalType": "address",
              "name": "from",
              "type": "address"
            },
            {
              "internalType": "uint256",
              "name": "nonce",
              "type": "uint256"
            },
            {
              "internalType": "uint256",
              "name": "tokenId",
              "type": "uint256"
            },
            {
              "internalType": "bytes",
              "name": "data",
              "type": "bytes"
            }
          ],
          "internalType": "struct IForwarder.ForwardRequest",
          "name": "req",
          "type": "tuple"
        },
        {
          "internalType": "bytes",
          "name": "signature",
          "type": "bytes"
        }
      ],
      "name": "verify",
      "outputs": [
        {
          "internalType": "bool",
          "name": "",
          "type": "bool"
        }
      ],
      "stateMutability": "view",
      "type": "function"
    },
    {
      "inputs": [
        {
          "internalType": "uint256",
          "name": "tokenId",
          "type": "uint256"
        }
      ],
      "name": "withdraw",
      "outputs": [],
      "stateMutability": "nonpayable",
      "type": "function"
    },
    {
      "inputs": [
        {
          "internalType": "uint256[]",
          "name": "tokenIds",
          "type": "uint256[]"
        }
      ],
      "name": "withdrawBatch",
      "outputs": [],
      "stateMutability": "nonpayable",
      "type": "function"
    },
    {
      "inputs": [
        {
          "internalType": "bytes",
          "name": "inputData",
          "type": "bytes"
        },
        {
          "internalType": "uint256",
          "name": "tokenId",
          "type": "uint256"
        },
        {
          "internalType": "string[]",
          "name": "keys",
          "type": "string[]"
        },
        {
          "internalType": "string[]",
          "name": "values",
          "type": "string[]"
        }
      ],
      "name": "withdrawFromPolygon",
      "outputs": [],
      "stateMutability": "nonpayable",
      "type": "function"
    },
    {
      "inputs": [
        {
          "internalType": "uint256",
          "name": "tokenId",
          "type": "uint256"
        }
      ],
      "name": "withdrawWithMetadata",
      "outputs": [],
      "stateMutability": "nonpayable",
      "type": "function"
    }
  ],
  "bytecode": "0x608060405234801561001057600080fd5b506151b0806100206000396000f3fe608060405234801561001057600080fd5b50600436106103ba5760003560e01c80637d67df63116101f4578063b3f9e4cb1161011a578063e87b7e22116100ad578063f25eb5c11161007c578063f25eb5c1146108b2578063f5c1f76e146108ba578063f7df5c60146108cd578063ffa1ad74146108e057600080fd5b8063e87b7e2214610849578063e985e9c51461085c578063ebf0c71714610898578063ec129eea1461089f57600080fd5b8063c4d66de8116100e9578063c4d66de8146107fd578063c87b56dd14610810578063ce92b33e14610823578063cf2c52cb1461083657600080fd5b8063b3f9e4cb146107a3578063b85afd28146107b6578063b88d4fde146107d7578063bb5b27e1146107ea57600080fd5b806399e0dd7c11610192578063a424740011610161578063a42474001461076a578063a5e584dc146104f5578063ab3b87fe1461077d578063ae31844a1461079057600080fd5b806399e0dd7c146107055780639c8d415614610718578063a22cb4651461072b578063a3f4df7e1461073e57600080fd5b806394d008ef116101ce57806394d008ef146106cf5780639508b1c4146106e25780639559c0bd146106f557806395d89b41146106fd57600080fd5b80637d67df63146106965780637e37479e146106a95780637f139a00146106bc57600080fd5b806342842e0e116102e4578063572b6c05116102775780636ccbae5f116102465780636ccbae5f1461063c57806370a082311461065d578063728a44d814610670578063764a81bb1461068357600080fd5b8063572b6c05146105d95780636352211e146105f5578063638e5c7814610608578063672b9f811461061b57600080fd5b80634a72584d116102b35780634a72584d1461058d5780634f558e79146105a057806350382c1a146105b357806350960239146105c657600080fd5b806342842e0e1461054157806342966c6814610554578063430c20811461056757806347c816991461057a57600080fd5b80631bf7e13e1161035c5780632e1a7d4d1161032b5780632e1a7d4d146104f5578063310bd74b14610508578063384e9a551461051b57806340c10f191461052e57600080fd5b80631bf7e13e1461049b57806323b872dd146104ae578063276fabb1146104c157806327f18975146104e257600080fd5b8063095ea7b311610398578063095ea7b314610427578063150b7a021461043c5780631bd8cc1a146104685780631be5e7ed1461048857600080fd5b806301ffc9a7146103bf57806306fdde03146103e7578063081812fc146103fc575b600080fd5b6103d26103cd36600461473c565b610904565b60405190151581526020015b60405180910390f35b6103ef610915565b6040516103de9190614c83565b61040f61040a36600461494a565b6109a7565b6040516001600160a01b0390911681526020016103de565b61043a6104353660046144f7565b6109ce565b005b61044f61044a3660046142f9565b610a23565b6040516001600160e01b031990911681526020016103de565b61047b61047636600461462a565b610b79565b6040516103de9190614be4565b6103ef610496366004614884565b610c99565b6103ef6104a93660046148eb565b610ce4565b61043a6104bc3660046142b9565b610def565b6104d46104cf36600461457b565b610e75565b6040519081526020016103de565b61043a6104f03660046145ba565b610f0e565b61043a61050336600461494a565b610f89565b61043a61051636600461494a565b611005565b61043a61052936600461494a565b611073565b61043a61053c3660046144f7565b611102565b61043a61054f3660046142b9565b61114f565b61043a61056236600461494a565b61116a565b6103d26105753660046144f7565b6111e1565b61043a610588366004614826565b6111ed565b61043a61059b366004614992565b61125f565b6103d26105ae36600461494a565b6112d8565b61043a6105c13660046148b9565b6112f7565b61043a6105d4366004614249565b61132a565b6103d26105e7366004614249565b6001600160a01b0316301490565b61040f61060336600461494a565b61138a565b61043a61061636600461494a565b6113ea565b61062e6106293660046149e2565b611435565b6040516103de929190614c96565b6104d461064a36600461494a565b6000908152610100602052604090205490565b6104d461066b366004614249565b61144d565b61043a61067e366004614249565b6114d3565b61043a610691366004614249565b61157a565b61043a6106a43660046143d2565b611629565b6104d46106b7366004614249565b61166a565b61043a6106ca366004614249565b61169b565b61043a6106dd366004614522565b61173a565b61043a6106f0366004614774565b611789565b6104d4601481565b6103ef6117e0565b61043a6107133660046147f3565b6117ef565b61043a61072636600461457b565b611875565b61043a61073936600461447a565b6119f8565b6103ef6040518060400160405280600d81526020016c554e533a20526567697374727960981b81525081565b6103d26107783660046148eb565b611a0a565b61043a61078b3660046144f7565b611a55565b61043a61079e36600461457b565b611acd565b61040f6107b136600461494a565b611b79565b6107c96107c436600461462a565b611ba3565b6040516103de929190614bf7565b61043a6107e5366004614369565b611d0b565b6103ef6107f836600461494a565b611d85565b61043a61080b366004614249565b611e27565b6103ef61081e36600461494a565b611fa1565b61043a6108313660046145ba565b612007565b61043a6108443660046144a5565b612079565b61043a6108573660046144f7565b612156565b6103d261086a366004614281565b6001600160a01b039182166000908152606a6020908152604080832093909416825291909152205460ff1690565b60006104d4565b61043a6108ad3660046145ba565b612219565b61043a61228b565b61047b6108c836600461457b565b612311565b61043a6108db366004614962565b6123ee565b6103ef60405180604001604052806005815260200164302e352e3160d81b81525081565b600061090f82612472565b92915050565b606060658054610924906150b2565b80601f0160208091040260200160405190810160405280929190818152602001828054610950906150b2565b801561099d5780601f106109725761010080835404028352916020019161099d565b820191906000526020600020905b81548152906001019060200180831161098057829003601f168201915b5050505050905090565b60006109b2826124c2565b506000908152606960205260409020546001600160a01b031690565b8030331415610a0b576109df612521565b8114610a065760405162461bcd60e51b81526004016109fd90614dd4565b60405180910390fd5b610a14565b610a1481612536565b610a1e8383612564565b505050565b60007f8ffb960699dc2ba88f34d0e41c029c3c36c95149679fe1d0153a9582bec92378546001600160a01b0316610a58612687565b6001600160a01b03161415610b1a57610a6f612687565b6001600160a01b03166342966c68856040518263ffffffff1660e01b8152600401610a9c91815260200190565b600060405180830381600087803b158015610ab657600080fd5b505af1158015610aca573d6000803e3d6000fd5b505050821580159150610ae45750610ae48284018461470a565b15610b0257610af33085612696565b610afd85856127e4565b610b0c565b610b0c8585612696565b50630a85bd0160e11b610b70565b60405162461bcd60e51b815260206004820152602560248201527f52656769737472793a204552433732315f524543454956494e475f50524f4849604482015264109255115160da1b60648201526084016109fd565b95945050505050565b6060826001600160401b03811115610ba157634e487b7160e01b600052604160045260246000fd5b604051908082528060200260200182016040528015610bd457816020015b6060815260200190600190039081610bbf5790505b50905060005b83811015610c9157610c53858583818110610c0557634e487b7160e01b600052603260045260246000fd5b9050602002810190610c179190614e98565b8080601f016020809104026020016040519081016040528093929190818152602001838380828437600092019190915250879250612885915050565b828281518110610c7357634e487b7160e01b600052603260045260246000fd5b60200260200101819052508080610c89906150e7565b915050610bda565b509392505050565b6060610cdc84848080601f016020809104026020016040519081016040528093929190818152602001838380828437600092019190915250869250612885915050565b949350505050565b606060005a9050610cf6858585611a0a565b610d525760405162461bcd60e51b815260206004820152602760248201527f554e535265676973747279466f727761726465723a205349474e41545552455f6044820152661253959053125160ca1b60648201526084016109fd565b610de4610d626020870187614249565b30604088013584610d7660608b018b614e98565b8080601f01602080910402602001604051908101604052809392919081815260200183838082843760009201919091525050604080516020601f8e018190048102820181019092528c815292508c91508b90819084018382808284376000920191909152506128ba92505050565b9150505b9392505050565b80610e01610dfb612687565b826129a9565b610e1d5760405162461bcd60e51b81526004016109fd90614cf2565b8130331415610e5157610e2e612521565b8114610e4c5760405162461bcd60e51b81526004016109fd90614dd4565b610e5a565b610e5a81612536565b610e6383612a27565b610e6e858585612a94565b5050505050565b600080825b8015610c9157610efa828686610e91600186614f5b565b818110610eae57634e487b7160e01b600052603260045260246000fd5b9050602002810190610ec09190614e98565b8080601f016020809104026020016040519081016040528093929190818152602001838380828437600092019190915250612c3b92505050565b915080610f068161509b565b915050610e7a565b80610f1a610dfb612687565b610f365760405162461bcd60e51b81526004016109fd90614cf2565b8130331415610f6a57610f47612521565b8114610f655760405162461bcd60e51b81526004016109fd90614dd4565b610f73565b610f7381612536565b610f808787878787612ce8565b50505050505050565b610f928161138a565b6001600160a01b0316610fa3612687565b6001600160a01b031614610ff95760405162461bcd60e51b815260206004820152601d60248201527f52656769737472793a20494e56414c49445f544f4b454e5f4f574e455200000060448201526064016109fd565b61100281612d67565b50565b80611011610dfb612687565b61102d5760405162461bcd60e51b81526004016109fd90614cf2565b81303314156110615761103e612521565b811461105c5760405162461bcd60e51b81526004016109fd90614dd4565b61106a565b61106a81612536565b610a1e83612a27565b8061107c612687565b6001600160a01b031661108e8261138a565b6001600160a01b0316146110b45760405162461bcd60e51b81526004016109fd90614cbb565b81303314156110e8576110c5612521565b81146110e35760405162461bcd60e51b81526004016109fd90614dd4565b6110f1565b6110f181612536565b610a1e6110fc612687565b84612e0e565b61110a612e56565b6001600160a01b031661111b612687565b6001600160a01b0316146111415760405162461bcd60e51b81526004016109fd90614e56565b61114b8282612696565b5050565b610a1e83838360405180602001604052806000815250611d0b565b80611176610dfb612687565b6111925760405162461bcd60e51b81526004016109fd90614cf2565b81303314156111c6576111a3612521565b81146111c15760405162461bcd60e51b81526004016109fd90614dd4565b6111cf565b6111cf81612536565b6111d883612a27565b610a1e83612d67565b6000610de883836129a9565b806111f9610dfb612687565b6112155760405162461bcd60e51b81526004016109fd90614cf2565b813033141561124957611226612521565b81146112445760405162461bcd60e51b81526004016109fd90614dd4565b611252565b61125281612536565b610f808787878787612f69565b8061126b610dfb612687565b6112875760405162461bcd60e51b81526004016109fd90614cf2565b81303314156112bb57611298612521565b81146112b65760405162461bcd60e51b81526004016109fd90614dd4565b6112c4565b6112c481612536565b6112d086868686613048565b505050505050565b6000818152606760205260408120546001600160a01b0316151561090f565b6110028160405160200161130b9190614aaf565b6040516020818303038152906040528051906020012060001c826130e8565b610134546001600160a01b031661133f612687565b6001600160a01b0316146113655760405162461bcd60e51b81526004016109fd90614d8d565b6001600160a01b0316600090815261013660205260409020805460ff19166001179055565b6000818152606760205260408120546001600160a01b03168061090f5760405162461bcd60e51b8152602060048201526018602482015277115490cdcc8c4e881a5b9d985b1a59081d1bdad95b88125160421b60448201526064016109fd565b806113f6610dfb612687565b6114125760405162461bcd60e51b81526004016109fd90614cf2565b61142461141d612687565b3084612a94565b61114b61142f612687565b836127e4565b6060806114428484613114565b909590945092505050565b60006001600160a01b0382166114b75760405162461bcd60e51b815260206004820152602960248201527f4552433732313a2061646472657373207a65726f206973206e6f7420612076616044820152683634b21037bbb732b960b91b60648201526084016109fd565b506001600160a01b031660009081526068602052604090205490565b600080516020615184833981519152546001600160a01b0316156115485760405162461bcd60e51b815260206004820152602660248201527f52656769737472793a20524f4f545f434841494e5f4d414e454745525f4e4f546044820152655f454d50545960d01b60648201526084016109fd565b806000805160206151848339815191525b80546001600160a01b0319166001600160a01b039290921691909117905550565b7f8bea9a6f8afd34f4e29c585f854e0cc5161431bf5fc299d468454d33dce53b87546001600160a01b0316156116025760405162461bcd60e51b815260206004820152602760248201527f52656769737472793a204348494c445f434841494e5f4d414e454745525f4e4f604482015266545f454d50545960c81b60648201526084016109fd565b807f8bea9a6f8afd34f4e29c585f854e0cc5161431bf5fc299d468454d33dce53b87611559565b60006116358787613135565b9050611653888261164e6116498a8c614f72565b6131eb565b613288565b61166085858585856132d4565b5050505050505050565b6001600160a01b0381166000908152610135602052604081205461168d8161335e565b611695578091505b50919050565b7f8ffb960699dc2ba88f34d0e41c029c3c36c95149679fe1d0153a9582bec92378546001600160a01b0316156117135760405162461bcd60e51b815260206004820181905260248201527f52656769737472793a20434e535f52454749535452595f4e4f545f454d50545960448201526064016109fd565b807f8ffb960699dc2ba88f34d0e41c029c3c36c95149679fe1d0153a9582bec92378611559565b611742612e56565b6001600160a01b0316611753612687565b6001600160a01b0316146117795760405162461bcd60e51b81526004016109fd90614e56565b6117838484612696565b50505050565b61179387876133a8565b61179b612687565b6001600160a01b03166117ad8661138a565b6001600160a01b0316146117d35760405162461bcd60e51b81526004016109fd90614cbb565b610f8084848484896132d4565b606060668054610924906150b2565b610134546001600160a01b0316611804612687565b6001600160a01b03161461182a5760405162461bcd60e51b81526004016109fd90614d8d565b6118376101338383614040565b507f4b120d6a959a84a520fa48f5f937cca0e79129423487af7901213b5d2e89313b8282604051611869929190614c6f565b60405180910390a15050565b8060148111156118c75760405162461bcd60e51b815260206004820152601d60248201527f52656769737472793a20455843454544535f42415443485f4c494d495400000060448201526064016109fd565b60005b818110156119a85760008484838181106118f457634e487b7160e01b600052603260045260246000fd5b9050602002013590506119068161138a565b6001600160a01b0316611917612687565b6001600160a01b0316148160405160200161195e91907f52656769737472793a20494e56414c49445f544f4b454e5f4f574e45522000008152601e810191909152603e0190565b6040516020818303038152906040529061198b5760405162461bcd60e51b81526004016109fd9190614c83565b5061199581612d67565b50806119a0816150e7565b9150506118ca565b506119b1612687565b6001600160a01b03167ff871896b17e9cb7a64941c62c188a4f5c621b86800e3d15452ece01ce56073df84846040516119eb929190614c1c565b60405180910390a2505050565b61114b611a03612687565b8383613417565b6000610cdc611a1885614fe7565b3085858080601f0160208091040260200160405190810160405280939291908181526020018383808284376000920191909152506134e692505050565b80611a61610dfb612687565b611a7d5760405162461bcd60e51b81526004016109fd90614cf2565b8130331415611ab157611a8e612521565b8114611aac5760405162461bcd60e51b81526004016109fd90614dd4565b611aba565b611aba81612536565b611783611ac68461138a565b8585612a94565b610134546001600160a01b0316611ae2612687565b6001600160a01b031614611b085760405162461bcd60e51b81526004016109fd90614d8d565b60005b81811015610a1e5760016101376000858585818110611b3a57634e487b7160e01b600052603260045260246000fd5b90506020020135815260200190815260200160002060006101000a81548160ff0219169083151502179055508080611b71906150e7565b915050611b0b565b6000818152606760205260408120546001600160a01b0316611b9c57600061090f565b3092915050565b606080836001600160401b03811115611bcc57634e487b7160e01b600052604160045260246000fd5b604051908082528060200260200182016040528015611bff57816020015b6060815260200190600190039081611bea5790505b509150836001600160401b03811115611c2857634e487b7160e01b600052604160045260246000fd5b604051908082528060200260200182016040528015611c5b57816020015b6060815260200190600190039081611c465790505b50905060005b84811015611d0257611c99868683818110611c8c57634e487b7160e01b600052603260045260246000fd5b9050602002013585613114565b848381518110611cb957634e487b7160e01b600052603260045260246000fd5b60200260200101848481518110611ce057634e487b7160e01b600052603260045260246000fd5b6020026020010182905282905250508080611cfa906150e7565b915050611c61565b50935093915050565b81611d17610dfb612687565b611d335760405162461bcd60e51b81526004016109fd90614cf2565b8230331415611d6757611d44612521565b8114611d625760405162461bcd60e51b81526004016109fd90614dd4565b611d70565b611d7081612536565b611d7984612a27565b6112d08686868661363e565b600081815260c960205260409020805460609190611da2906150b2565b80601f0160208091040260200160405190810160405280929190818152602001828054611dce906150b2565b8015611e1b5780601f10611df057610100808354040283529160200191611e1b565b820191906000526020600020905b815481529060010190602001808311611dfe57829003601f168201915b50505050509050919050565b600054610100900460ff1615808015611e475750600054600160ff909116105b80611e615750303b158015611e61575060005460ff166001145b611ec45760405162461bcd60e51b815260206004820152602e60248201527f496e697469616c697a61626c653a20636f6e747261637420697320616c72656160448201526d191e481a5b9a5d1a585b1a5e995960921b60648201526084016109fd565b6000805460ff191660011790558015611ee7576000805461ff0019166101001790555b61013480546001600160a01b0319166001600160a01b0384161790556040805180820182526013815272556e73746f707061626c6520446f6d61696e7360681b60208083019190915282518084019093526002835261155160f21b90830152611f4f91613671565b611f576136bf565b611f5f6136bf565b801561114b576000805461ff0019169055604051600181527f7f26b83ff96e1f2b6a682f133852f6798a09c465da95921460cefb384740249890602001611869565b6060611fac826124c2565b6000611fb66136e8565b90506000815111611fd65760405180602001604052806000815250610de8565b80611fe0846136f8565b604051602001611ff1929190614b56565b6040516020818303038152906040529392505050565b80612013610dfb612687565b61202f5760405162461bcd60e51b81526004016109fd90614cf2565b813033141561206357612040612521565b811461205e5760405162461bcd60e51b81526004016109fd90614dd4565b61206c565b61206c81612536565b610f8087878787876132d4565b7f8bea9a6f8afd34f4e29c585f854e0cc5161431bf5fc299d468454d33dce53b87546001600160a01b03166120ac612687565b6001600160a01b0316146120d25760405162461bcd60e51b81526004016109fd90614e56565b60208114156120f55760006120e98284018461494a565b90506117838482612696565b600061210382840184614673565b805190915060005b818110156112d0576121448684838151811061213757634e487b7160e01b600052603260045260246000fd5b6020026020010151612696565b8061214e816150e7565b91505061210b565b610134546001600160a01b031661216b612687565b6001600160a01b0316146121915760405162461bcd60e51b81526004016109fd90614d8d565b8061219a612687565b6001600160a01b03166121ac8261138a565b6001600160a01b0316146121d25760405162461bcd60e51b81526004016109fd90614cbb565b8130331415612206576121e3612521565b81146122015760405162461bcd60e51b81526004016109fd90614dd4565b61220f565b61220f81612536565b6117838484612e0e565b80612225610dfb612687565b6122415760405162461bcd60e51b81526004016109fd90614cf2565b813033141561227557612252612521565b81146122705760405162461bcd60e51b81526004016109fd90614dd4565b61227e565b61227e81612536565b610f808787878787613811565b6000612295612687565b6001600160a01b038116600090815261013560205260409020549091506123085760405162461bcd60e51b815260206004820152602160248201527f52656769737472793a20524556455253455f5245434f52445f49535f454d50546044820152605960f81b60648201526084016109fd565b61100281613827565b6060816001600160401b0381111561233957634e487b7160e01b600052604160045260246000fd5b60405190808252806020026020018201604052801561236c57816020015b60608152602001906001900390816123575790505b50905060005b828110156123e7576123a984848381811061239d57634e487b7160e01b600052603260045260246000fd5b90506020020135611d85565b8282815181106123c957634e487b7160e01b600052603260045260246000fd5b602002602001018190525080806123df906150e7565b915050612372565b5092915050565b610134546001600160a01b0316612403612687565b6001600160a01b0316146124295760405162461bcd60e51b81526004016109fd90614d8d565b61013454612440906001600160a01b031684612696565b827fc5beef08f693b11c316c0c8394a377a0033c9cf701b8cd8afd79cecef60c395283836040516119eb929190614c6f565b60006001600160e01b031982166380ac58cd60e01b14806124a357506001600160e01b03198216635b5e139f60e01b145b8061090f57506301ffc9a760e01b6001600160e01b031983161461090f565b6000818152606760205260409020546001600160a01b03166110025760405162461bcd60e51b8152602060048201526018602482015277115490cdcc8c4e881a5b9d985b1a59081d1bdad95b88125160421b60448201526064016109fd565b6000303314156125335750601f193601355b90565b60008181526101006020526040902054612551906001614f2f565b6000918252610100602052604090912055565b600061256f8261138a565b9050806001600160a01b0316836001600160a01b031614156125dd5760405162461bcd60e51b815260206004820152602160248201527f4552433732313a20617070726f76616c20746f2063757272656e74206f776e656044820152603960f91b60648201526084016109fd565b806001600160a01b03166125ef612687565b6001600160a01b0316148061260b575061260b8161086a612687565b61267d5760405162461bcd60e51b815260206004820152603e60248201527f4552433732313a20617070726f76652063616c6c6572206973206e6f7420746f60448201527f6b656e206f776e6572206e6f7220617070726f76656420666f7220616c6c000060648201526084016109fd565b610a1e838361386c565b60006126916138da565b905090565b6001600160a01b0382166126ec5760405162461bcd60e51b815260206004820181905260248201527f4552433732313a206d696e7420746f20746865207a65726f206164647265737360448201526064016109fd565b6000818152606760205260409020546001600160a01b0316156127515760405162461bcd60e51b815260206004820152601c60248201527f4552433732313a20746f6b656e20616c7265616479206d696e7465640000000060448201526064016109fd565b61275d600083836138f6565b6001600160a01b0382166000908152606860205260408120805460019290612786908490614f2f565b909155505060008181526067602052604080822080546001600160a01b0319166001600160a01b03861690811790915590518392907fddf252ad1be2c89b69c2b068fc378daa952ba7f163c4a11628f55a4df523b3ef908290a45050565b60006127ee612e56565b90506127fa818361386c565b60008051602061518483398151915254604080516020808201869052825180830390910181528183019283905263e3dec8fb60e01b9092526001600160a01b0390921691829163e3dec8fb91612857918891309190604401614b85565b600060405180830381600087803b15801561287157600080fd5b505af1158015611660573d6000803e3d6000fd5b6060610de88360405160200161289b9190614aaf565b6040516020818303038152906040528051906020012060001c83613993565b60606128c585612536565b600080876001600160a01b0316866128df8b8a8989613a75565b6040516128ec9190614aaf565b60006040518083038160008787f1925050503d806000811461292a576040519150601f19603f3d011682016040523d82523d6000602084013e61292f565b606091505b509092509050612940603f87614f47565b5a1161295c57634e487b7160e01b600052600160045260246000fd5b61299c82826040518060400160405280601a81526020017f42617365466f727761726465723a2043414c4c5f4641494c4544000000000000815250613aa5565b9998505050505050505050565b6000806129b58361138a565b9050806001600160a01b0316846001600160a01b031614806129fc57506001600160a01b038082166000908152606a602090815260408083209388168352929052205460ff165b80610cdc5750836001600160a01b0316612a15846109a7565b6001600160a01b031614949350505050565b612a3081613ade565b604051602001612a4291815260200190565b60408051601f198184030181528282528051602091820120600085815260cb9092529181209190915582917f185c30856dadb58bf097c1f665a52ada7029752dbcad008ea3fefc73bee8c9fe9190a250565b826001600160a01b0316612aa78261138a565b6001600160a01b031614612b0b5760405162461bcd60e51b815260206004820152602560248201527f4552433732313a207472616e736665722066726f6d20696e636f72726563742060448201526437bbb732b960d91b60648201526084016109fd565b6001600160a01b038216612b6d5760405162461bcd60e51b8152602060048201526024808201527f4552433732313a207472616e7366657220746f20746865207a65726f206164646044820152637265737360e01b60648201526084016109fd565b612b788383836138f6565b612b8360008261386c565b6001600160a01b0383166000908152606860205260408120805460019290612bac908490614f5b565b90915550506001600160a01b0382166000908152606860205260408120805460019290612bda908490614f2f565b909155505060008181526067602052604080822080546001600160a01b0319166001600160a01b0386811691821790925591518493918716917fddf252ad1be2c89b69c2b068fc378daa952ba7f163c4a11628f55a4df523b3ef91a4505050565b6000815160001415612c875760405162461bcd60e51b815260206004820152601560248201527452656769737472793a204c4142454c5f454d50545960581b60448201526064016109fd565b8282604051602001612c999190614aaf565b60405160208183030381529060405280519060200120604051602001612cc9929190918252602082015260400190565b60408051601f1981840301815291905280516020909101209392505050565b60005b848110156112d057612d55868683818110612d1657634e487b7160e01b600052603260045260246000fd5b90506020020135858584818110612d3d57634e487b7160e01b600052603260045260246000fd5b9050602002810190612d4f9190614e98565b85613048565b80612d5f816150e7565b915050612ceb565b6000612d728261138a565b9050612d80816000846138f6565b612d8b60008361386c565b6001600160a01b0381166000908152606860205260408120805460019290612db4908490614f5b565b909155505060008281526067602052604080822080546001600160a01b0319169055518391906001600160a01b038416907fddf252ad1be2c89b69c2b068fc378daa952ba7f163c4a11628f55a4df523b3ef908390a45050565b6001600160a01b03821660008181526101356020526040808220849055518392917feb76a21470988c474a21f690cc28fee1ed511bd812dc3c21fd0f49c5e5d4708a91a35050565b6000806000805160206151848339815191525460405163721804d360e11b81523060048201526001600160a01b039091169150600090829063e43009a69060240160206040518083038186803b158015612eaf57600080fd5b505afa158015612ec3573d6000803e3d6000fd5b505050506040513d601f19601f82011682018060405250810190612ee79190614724565b60405163e66f960360e01b8152600481018290529091506001600160a01b0383169063e66f96039060240160206040518083038186803b158015612f2a57600080fd5b505afa158015612f3e573d6000803e3d6000fd5b505050506040513d601f19601f82011682018060405250810190612f629190614265565b9250505090565b60008585604051602001612f7e929190614b46565b60408051601f198184030181528282528051602091820120601f8901829004820284018201909252878352909250612fd291839189908990819084018382808284376000920191909152506130e892505050565b6112d08187878080601f01602080910402602001604051908101604052809392919081815260200183838082843760009201919091525050604080516020601f8b018190048102820181019092528981529250899150889081908401838280828437600092019190915250889250613b0a915050565b61305184613c45565b61309d5760405162461bcd60e51b815260206004820152601c60248201527f5265636f726453746f726167653a204b45595f4e4f545f464f554e440000000060448201526064016109fd565b611783846130aa86611d85565b85858080601f016020809104026020016040519081016040528093929190818152602001838380828437600092019190915250879250613b0a915050565b6130f182613c45565b61114b57600082815260c9602090815260409091208251610a1e928401906140c0565b60608061312084611d85565b915061312c8484613993565b90509250929050565b600060028210156131885760405162461bcd60e51b815260206004820152601f60248201527f52656769737472793a204c4142454c535f4c454e4754485f42454c4f575f320060448201526064016109fd565b600080835b80156131bd578192506131a9838787600185610e919190614f5b565b9150806131b58161509b565b91505061318d565b506131cf6131c9612687565b836129a9565b610cdc5760405162461bcd60e51b81526004016109fd90614cf2565b606060008260008151811061321057634e487b7160e01b600052603260045260246000fd5b602002602001015190506000600190505b83518110156123e7578184828151811061324b57634e487b7160e01b600052603260045260246000fd5b6020026020010151604051602001613264929190614b0a565b60405160208183030381529060405291508080613280906150e7565b915050613221565b6132928383612696565b817fc5beef08f693b11c316c0c8394a377a0033c9cf701b8cd8afd79cecef60c3952826040516132c29190614c83565b60405180910390a2610a1e8383613c6b565b60005b848110156112d05761334c86868381811061330257634e487b7160e01b600052603260045260246000fd5b90506020028101906133149190614e98565b86868581811061333457634e487b7160e01b600052603260045260246000fd5b90506020028101906133469190614e98565b86612f69565b80613356816150e7565b9150506132d7565b6000818152610137602052604081205460ff16801561090f57506101366000613385612687565b6001600160a01b0316815260208101919091526040016000205460ff1692915050565b60008051602061518483398151915254604051633805550f60e01b81526001600160a01b03909116908190633805550f906133e99086908690600401614c6f565b600060405180830381600087803b15801561340357600080fd5b505af1158015610f80573d6000803e3d6000fd5b816001600160a01b0316836001600160a01b031614156134795760405162461bcd60e51b815260206004820152601960248201527f4552433732313a20617070726f766520746f2063616c6c65720000000000000060448201526064016109fd565b6001600160a01b038381166000818152606a6020908152604080832094871680845294825291829020805460ff191686151590811790915591519182527f17307eab39ab6107e8899845ad3d59bd9653f200f220920489ca2b5937696c31910160405180910390a3505050565b6040838101519051636ccbae5f60e01b8152600481019190915260009081903090636ccbae5f9060240160206040518083038186803b15801561352857600080fd5b505afa15801561353c573d6000803e3d6000fd5b505050506040513d601f19601f820116820180604052508101906135609190614724565b9050600061360e8660600151805190602001208688602001516040516020016135ae9392919092835260609190911b6bffffffffffffffffffffffff19166020830152603482015260540190565b60408051601f1981840301815282825280516020918201207f19457468657265756d205369676e6564204d6573736167653a0a33320000000084830152603c8085019190915282518085039091018152605c909301909152815191012090565b905081866020015114801561363457508551613634906001600160a01b03168286613cac565b9695505050505050565b613649848484612a94565b61365584848484613dfc565b6117835760405162461bcd60e51b81526004016109fd90614d3b565b600054610100900460ff166136985760405162461bcd60e51b81526004016109fd90614e0b565b81516136ab9060659060208501906140c0565b508051610a1e9060669060208401906140c0565b600054610100900460ff166136e65760405162461bcd60e51b81526004016109fd90614e0b565b565b60606101338054610924906150b2565b60608161371c5750506040805180820190915260018152600360fc1b602082015290565b8160005b81156137465780613730816150e7565b915061373f9050600a83614f47565b9150613720565b6000816001600160401b0381111561376e57634e487b7160e01b600052604160045260246000fd5b6040519080825280601f01601f191660200182016040528015613798576020820181803683370190505b5090505b8415610cdc576137ad600183614f5b565b91506137ba600a86615102565b6137c5906030614f2f565b60f81b8183815181106137e857634e487b7160e01b600052603260045260246000fd5b60200101906001600160f81b031916908160001a90535061380a600a86614f47565b945061379c565b61381a81612a27565b610e6e85858585856132d4565b6001600160a01b03811660008181526101356020526040808220829055517ffcf5eec0cfa3e6332f5f0e63ec242d71f866a61d121d6cdf5c2eb3b668a26c4f9190a250565b600081815260696020526040902080546001600160a01b0319166001600160a01b03841690811790915581906138a18261138a565b6001600160a01b03167f8c5be1e5ebec7d5bd14f71427d1e84f3dd0314c0f7b2291e5b200ac8c7c3b92560405160405180910390a45050565b6000303314156138f1575060331936013560601c90565b503390565b6000818152610137602052604090205460ff16158061391d57506001600160a01b03821615155b6139695760405162461bcd60e51b815260206004820152601860248201527f52656769737472793a20544f4b454e5f5550475241444544000000000000000060448201526064016109fd565b6001600160a01b03831660009081526101356020526040902054811415610a1e57610a1e83613827565b606061399e8261335e565b156139b8575060408051602081019091526000815261090f565b60ca60006139c584613ade565b8152602001908152602001600020600084815260200190815260200160002080546139ef906150b2565b80601f0160208091040260200160405190810160405280929190818152602001828054613a1b906150b2565b8015613a685780601f10613a3d57610100808354040283529160200191613a68565b820191906000526020600020905b815481529060010190602001808311613a4b57829003601f168201915b5050505050905092915050565b6060828585604051602001613a8c93929190614acb565b6040516020818303038152906040529050949350505050565b60608315613ab4575081610de8565b825115613ac45782518084602001fd5b8160405162461bcd60e51b81526004016109fd9190614c83565b600081815260cb602052604081205415613b0657600082815260cb602052604090205461090f565b5090565b60ca6000613b1783613ade565b815260200190815260200160002060008581526020019081526020016000208054613b41906150b2565b15159050613b985782604051613b579190614aaf565b6040518091039020817f7ae4f661958fbecc2f77be6b0eb280d2a6f604b29e1e7221c82b9da0c4af7f8685604051613b8f9190614c83565b60405180910390a35b8160ca6000613ba684613ade565b815260200190815260200160002060008681526020019081526020016000209080519060200190613bd89291906140c0565b5081604051613be79190614aaf565b604051809103902083604051613bfd9190614aaf565b6040518091039020827f851ffe8e74d5015261dba0a1f9e1b0e5d42c5af5d2ad1908fee897c7d80a0d928686604051613c37929190614c96565b60405180910390a450505050565b600081815260c9602052604081208054829190613c61906150b2565b9050119050919050565b61dead6001600160a01b03831614801590613c9d57506001600160a01b03821660009081526101356020526040902054155b1561114b5761114b8282612e0e565b6000806000613cbb8585613f0d565b90925090506000816004811115613ce257634e487b7160e01b600052602160045260246000fd5b148015613d005750856001600160a01b0316826001600160a01b0316145b15613d1057600192505050610de8565b600080876001600160a01b0316631626ba7e60e01b8888604051602401613d38929190614c56565b60408051601f198184030181529181526020820180516001600160e01b03166001600160e01b0319909416939093179092529051613d769190614aaf565b600060405180830381855afa9150503d8060008114613db1576040519150601f19603f3d011682016040523d82523d6000602084013e613db6565b606091505b5091509150818015613dc9575080516020145b8015613df057508051630b135d3f60e11b90613dee9083016020908101908401614724565b145b98975050505050505050565b60006001600160a01b0384163b15613f0557836001600160a01b031663150b7a02613e25612687565b8786866040518563ffffffff1660e01b8152600401613e479493929190614bb1565b602060405180830381600087803b158015613e6157600080fd5b505af1925050508015613e91575060408051601f3d908101601f19168201909252613e8e91810190614758565b60015b613eeb573d808015613ebf576040519150601f19603f3d011682016040523d82523d6000602084013e613ec4565b606091505b508051613ee35760405162461bcd60e51b81526004016109fd90614d3b565b805181602001fd5b6001600160e01b031916630a85bd0160e11b149050610cdc565b506001610cdc565b600080825160411415613f445760208301516040840151606085015160001a613f3887828585613f53565b94509450505050613f4c565b506000905060025b9250929050565b6000807f7fffffffffffffffffffffffffffffff5d576e7357a4501ddfe92f46681b20a0831115613f8a5750600090506003614037565b8460ff16601b14158015613fa257508460ff16601c14155b15613fb35750600090506004614037565b6040805160008082526020820180845289905260ff881692820192909252606081018690526080810185905260019060a0016020604051602081039080840390855afa158015614007573d6000803e3d6000fd5b5050604051601f1901519150506001600160a01b03811661403057600060019250925050614037565b9150600090505b94509492505050565b82805461404c906150b2565b90600052602060002090601f01602090048101928261406e57600085556140b4565b82601f106140875782800160ff198235161785556140b4565b828001600101855582156140b4579182015b828111156140b4578235825591602001919060010190614099565b50613b06929150614134565b8280546140cc906150b2565b90600052602060002090601f0160209004810192826140ee57600085556140b4565b82601f1061410757805160ff19168380011785556140b4565b828001600101855582156140b4579182015b828111156140b4578251825591602001919060010190614119565b5b80821115613b065760008155600101614135565b60008083601f84011261415a578182fd5b5081356001600160401b03811115614170578182fd5b6020830191508360208260051b8501011115613f4c57600080fd5b8035801515811461419b57600080fd5b919050565b60008083601f8401126141b1578182fd5b5081356001600160401b038111156141c7578182fd5b602083019150836020828501011115613f4c57600080fd5b600082601f8301126141ef578081fd5b81356001600160401b0381111561420857614208615142565b61421b601f8201601f1916602001614edc565b81815284602083860101111561422f578283fd5b816020850160208301379081016020019190915292915050565b60006020828403121561425a578081fd5b8135610de881615158565b600060208284031215614276578081fd5b8151610de881615158565b60008060408385031215614293578081fd5b823561429e81615158565b915060208301356142ae81615158565b809150509250929050565b6000806000606084860312156142cd578081fd5b83356142d881615158565b925060208401356142e881615158565b929592945050506040919091013590565b600080600080600060808688031215614310578283fd5b853561431b81615158565b9450602086013561432b81615158565b93506040860135925060608601356001600160401b0381111561434c578182fd5b614358888289016141a0565b969995985093965092949392505050565b6000806000806080858703121561437e578182fd5b843561438981615158565b9350602085013561439981615158565b92506040850135915060608501356001600160401b038111156143ba578182fd5b6143c6878288016141df565b91505092959194509250565b60008060008060008060006080888a0312156143ec578485fd5b87356143f781615158565b965060208801356001600160401b0380821115614412578687fd5b61441e8b838c01614149565b909850965060408a0135915080821115614436578384fd5b6144428b838c01614149565b909650945060608a013591508082111561445a578384fd5b506144678a828b01614149565b989b979a50959850939692959293505050565b6000806040838503121561448c578182fd5b823561449781615158565b915061312c6020840161418b565b6000806000604084860312156144b9578081fd5b83356144c481615158565b925060208401356001600160401b038111156144de578182fd5b6144ea868287016141a0565b9497909650939450505050565b60008060408385031215614509578182fd5b823561451481615158565b946020939093013593505050565b60008060008060608587031215614537578182fd5b843561454281615158565b93506020850135925060408501356001600160401b03811115614563578283fd5b61456f878288016141a0565b95989497509550505050565b6000806020838503121561458d578182fd5b82356001600160401b038111156145a2578283fd5b6145ae85828601614149565b90969095509350505050565b6000806000806000606086880312156145d1578283fd5b85356001600160401b03808211156145e7578485fd5b6145f389838a01614149565b9097509550602088013591508082111561460b578485fd5b5061461888828901614149565b96999598509660400135949350505050565b60008060006040848603121561463e578081fd5b83356001600160401b03811115614653578182fd5b61465f86828701614149565b909790965060209590950135949350505050565b60006020808385031215614685578182fd5b82356001600160401b0381111561469a578283fd5b8301601f810185136146aa578283fd5b80356146bd6146b882614f0c565b614edc565b80828252848201915084840188868560051b87010111156146dc578687fd5b8694505b838510156146fe5780358352600194909401939185019185016146e0565b50979650505050505050565b60006020828403121561471b578081fd5b610de88261418b565b600060208284031215614735578081fd5b5051919050565b60006020828403121561474d578081fd5b8135610de88161516d565b600060208284031215614769578081fd5b8151610de88161516d565b60008060008060008060006080888a03121561478e578081fd5b87356001600160401b03808211156147a4578283fd5b6147b08b838c016141a0565b909950975060208a0135965060408a01359150808211156147cf578283fd5b6147db8b838c01614149565b909650945060608a013591508082111561445a578283fd5b60008060208385031215614805578182fd5b82356001600160401b0381111561481a578283fd5b6145ae858286016141a0565b60008060008060006060868803121561483d578283fd5b85356001600160401b0380821115614853578485fd5b61485f89838a016141a0565b90975095506020880135915080821115614877578485fd5b50614618888289016141a0565b600080600060408486031215614898578081fd5b83356001600160401b038111156148ad578182fd5b61465f868287016141a0565b6000602082840312156148ca578081fd5b81356001600160401b038111156148df578182fd5b610cdc848285016141df565b6000806000604084860312156148ff578081fd5b83356001600160401b0380821115614915578283fd5b9085019060808288031215614928578283fd5b9093506020850135908082111561493d578283fd5b506144ea868287016141a0565b60006020828403121561495b578081fd5b5035919050565b600080600060408486031215614976578081fd5b8335925060208401356001600160401b038111156144de578182fd5b600080600080606085870312156149a7578182fd5b8435935060208501356001600160401b038111156149c3578283fd5b6149cf878288016141a0565b9598909750949560400135949350505050565b600080604083850312156149f4578182fd5b50508035926020909101359150565b600082825180855260208086019550808260051b840101818601855b84811015614a4d57601f19868403018952614a3b838351614a83565b98840198925090830190600101614a1f565b5090979650505050505050565b81835281816020850137506000828201602090810191909152601f909101601f19169091010190565b60008151808452614a9b81602086016020860161506f565b601f01601f19169290920160200192915050565b60008251614ac181846020870161506f565b9190910192915050565b60008451614add81846020890161506f565b60609490941b6bffffffffffffffffffffffff191691909301908152601481019190915260340192915050565b60008351614b1c81846020880161506f565b601760f91b9083019081528351614b3a81600184016020880161506f565b01600101949350505050565b8183823760009101908152919050565b60008351614b6881846020880161506f565b835190830190614b7c81836020880161506f565b01949350505050565b6001600160a01b03848116825283166020820152606060408201819052600090610b7090830184614a83565b6001600160a01b038581168252841660208201526040810183905260806060820181905260009061363490830184614a83565b602081526000610de86020830184614a03565b604081526000614c0a6040830185614a03565b8281036020840152610de48185614a03565b6020808252810182905260006001600160fb1b03831115614c3b578081fd5b8260051b808560408501379190910160400190815292915050565b828152604060208201526000610cdc6040830184614a83565b602081526000610cdc602083018486614a5a565b602081526000610de86020830184614a83565b604081526000614ca96040830185614a83565b8281036020840152610de48185614a83565b6020808252601d908201527f52656769737472793a2053454e4445525f49535f4e4f545f4f574e4552000000604082015260600190565b60208082526029908201527f52656769737472793a2053454e4445525f49535f4e4f545f415050524f5645446040820152682fa7a92fa7aba722a960b91b606082015260800190565b60208082526032908201527f4552433732313a207472616e7366657220746f206e6f6e20455243373231526560408201527131b2b4bb32b91034b6b83632b6b2b73a32b960711b606082015260800190565b60208082526027908201527f52656769737472793a2053454e4445525f49535f4e4f545f4d494e54494e475f60408201526626a0a720a3a2a960c91b606082015260800190565b60208082526017908201527f52656769737472793a20544f4b454e5f494e56414c4944000000000000000000604082015260600190565b6020808252602b908201527f496e697469616c697a61626c653a20636f6e7472616374206973206e6f74206960408201526a6e697469616c697a696e6760a81b606082015260800190565b60208082526022908201527f52656769737472793a20494e53554646494349454e545f5045524d495353494f6040820152614e5360f01b606082015260800190565b6000808335601e19843603018112614eae578283fd5b8301803591506001600160401b03821115614ec7578283fd5b602001915036819003821315613f4c57600080fd5b604051601f8201601f191681016001600160401b0381118282101715614f0457614f04615142565b604052919050565b60006001600160401b03821115614f2557614f25615142565b5060051b60200190565b60008219821115614f4257614f42615116565b500190565b600082614f5657614f5661512c565b500490565b600082821015614f6d57614f6d615116565b500390565b6000614f806146b884614f0c565b808482526020808301925084368760051b87011115614f9d578485fd5b845b87811015614fdb5781356001600160401b03811115614fbc578687fd5b614fc836828a016141df565b8652509382019390820190600101614f9f565b50919695505050505050565b600060808236031215614ff8578081fd5b604051608081016001600160401b03828210818311171561501b5761501b615142565b816040528435915061502c82615158565b81835260208501356020840152604085013560408401526060850135915080821115615056578384fd5b50615063368286016141df565b60608301525092915050565b60005b8381101561508a578181015183820152602001615072565b838111156117835750506000910152565b6000816150aa576150aa615116565b506000190190565b600181811c908216806150c657607f821691505b6020821081141561169557634e487b7160e01b600052602260045260246000fd5b60006000198214156150fb576150fb615116565b5060010190565b6000826151115761511161512c565b500690565b634e487b7160e01b600052601160045260246000fd5b634e487b7160e01b600052601260045260246000fd5b634e487b7160e01b600052604160045260246000fd5b6001600160a01b038116811461100257600080fd5b6001600160e01b03198116811461100257600080fdfebe2bb46ac0377341a1ec5c3116d70fd5029d704bd46292e58f6265dd177ebafea164736f6c6343000804000a",
  "linkReferences": {},
  "deployedLinkReferences": {}
}