{
  "_format": "hh-sol-artifact-1",
  "contractName": "UNSRegistry",
  "sourceName": "contracts/UNSRegistry.sol",
  "abi": [
    {
      "anonymous": false,
      "inputs": [
        {
          "indexed": false,
          "internalType": "address",
          "name": "previousAdmin",
          "type": "address"
        },
        {
          "indexed": false,
          "internalType": "address",
          "name": "newAdmin",
          "type": "address"
        }
      ],
      "name": "AdminChanged",
      "type": "event"
    },
    {
      "anonymous": false,
      "inputs": [
        {
          "indexed": true,
          "internalType": "address",
          "name": "owner",
          "type": "address"
        },
        {
          "indexed": true,
          "internalType": "address",
          "name": "approved",
          "type": "address"
        },
        {
          "indexed": true,
          "internalType": "uint256",
          "name": "tokenId",
          "type": "uint256"
        }
      ],
      "name": "Approval",
      "type": "event"
    },
    {
      "anonymous": false,
      "inputs": [
        {
          "indexed": true,
          "internalType": "address",
          "name": "owner",
          "type": "address"
        },
        {
          "indexed": true,
          "internalType": "address",
          "name": "operator",
          "type": "address"
        },
        {
          "indexed": false,
          "internalType": "bool",
          "name": "approved",
          "type": "bool"
        }
      ],
      "name": "ApprovalForAll",
      "type": "event"
    },
    {
      "anonymous": false,
      "inputs": [
        {
          "indexed": false,
          "internalType": "uint8",
          "name": "version",
          "type": "uint8"
        }
      ],
      "name": "Initialized",
      "type": "event"
    },
    {
      "anonymous": false,
      "inputs": [
        {
          "indexed": true,
          "internalType": "uint256",
          "name": "tokenId",
          "type": "uint256"
        },
        {
          "indexed": true,
          "internalType": "string",
          "name": "keyIndex",
          "type": "string"
        },
        {
          "indexed": false,
          "internalType": "string",
          "name": "key",
          "type": "string"
        }
      ],
      "name": "NewKey",
      "type": "event"
    },
    {
      "anonymous": false,
      "inputs": [
        {
          "indexed": true,
          "internalType": "uint256",
          "name": "tokenId",
          "type": "uint256"
        },
        {
          "indexed": false,
          "internalType": "string",
          "name": "uri",
          "type": "string"
        }
      ],
      "name": "NewURI",
      "type": "event"
    },
    {
      "anonymous": false,
      "inputs": [
        {
          "indexed": false,
          "internalType": "string",
          "name": "prefix",
          "type": "string"
        }
      ],
      "name": "NewURIPrefix",
      "type": "event"
    },
    {
      "anonymous": false,
      "inputs": [
        {
          "indexed": true,
          "internalType": "address",
          "name": "addr",
          "type": "address"
        }
      ],
      "name": "RemoveReverse",
      "type": "event"
    },
    {
      "anonymous": false,
      "inputs": [
        {
          "indexed": true,
          "internalType": "uint256",
          "name": "tokenId",
          "type": "uint256"
        }
      ],
      "name": "ResetRecords",
      "type": "event"
    },
    {
      "anonymous": false,
      "inputs": [
        {
          "indexed": true,
          "internalType": "uint256",
          "name": "tokenId",
          "type": "uint256"
        },
        {
          "indexed": true,
          "internalType": "string",
          "name": "keyIndex",
          "type": "string"
        },
        {
          "indexed": true,
          "internalType": "string",
          "name": "valueIndex",
          "type": "string"
        },
        {
          "indexed": false,
          "internalType": "string",
          "name": "key",
          "type": "string"
        },
        {
          "indexed": false,
          "internalType": "string",
          "name": "value",
          "type": "string"
        }
      ],
      "name": "Set",
      "type": "event"
    },
    {
      "anonymous": false,
      "inputs": [
        {
          "indexed": true,
          "internalType": "address",
          "name": "addr",
          "type": "address"
        },
        {
          "indexed": true,
          "internalType": "uint256",
          "name": "tokenId",
          "type": "uint256"
        }
      ],
      "name": "SetReverse",
      "type": "event"
    },
    {
      "anonymous": false,
      "inputs": [
        {
          "indexed": true,
          "internalType": "address",
          "name": "from",
          "type": "address"
        },
        {
          "indexed": true,
          "internalType": "address",
          "name": "to",
          "type": "address"
        },
        {
          "indexed": true,
          "internalType": "uint256",
          "name": "tokenId",
          "type": "uint256"
        }
      ],
      "name": "Transfer",
      "type": "event"
    },
    {
      "anonymous": false,
      "inputs": [
        {
          "indexed": true,
          "internalType": "address",
          "name": "implementation",
          "type": "address"
        }
      ],
      "name": "Upgraded",
      "type": "event"
    },
    {
      "anonymous": false,
      "inputs": [
        {
          "indexed": true,
          "internalType": "address",
          "name": "user",
          "type": "address"
        },
        {
          "indexed": false,
          "internalType": "uint256[]",
          "name": "tokenIds",
          "type": "uint256[]"
        }
      ],
      "name": "WithdrawnBatch",
      "type": "event"
    },
    {
      "inputs": [],
      "name": "BATCH_LIMIT",
      "outputs": [
        {
          "internalType": "uint256",
          "name": "",
          "type": "uint256"
        }
      ],
      "stateMutability": "view",
      "type": "function"
    },
    {
      "inputs": [],
      "name": "NAME",
      "outputs": [
        {
          "internalType": "string",
          "name": "",
          "type": "string"
        }
      ],
      "stateMutability": "view",
      "type": "function"
    },
    {
      "inputs": [],
      "name": "VERSION",
      "outputs": [
        {
          "internalType": "string",
          "name": "",
          "type": "string"
        }
      ],
      "stateMutability": "view",
      "type": "function"
    },
    {
      "inputs": [
        {
          "internalType": "string",
          "name": "key",
          "type": "string"
        }
      ],
      "name": "addKey",
      "outputs": [],
      "stateMutability": "nonpayable",
      "type": "function"
    },
    {
      "inputs": [
        {
          "internalType": "address",
          "name": "addr",
          "type": "address"
        }
      ],
      "name": "addProxyReader",
      "outputs": [],
      "stateMutability": "nonpayable",
      "type": "function"
    },
    {
      "inputs": [
        {
          "internalType": "address",
          "name": "to",
          "type": "address"
        },
        {
          "internalType": "uint256",
          "name": "tokenId",
          "type": "uint256"
        }
      ],
      "name": "approve",
      "outputs": [],
      "stateMutability": "nonpayable",
      "type": "function"
    },
    {
      "inputs": [
        {
          "internalType": "address",
          "name": "owner",
          "type": "address"
        }
      ],
      "name": "balanceOf",
      "outputs": [
        {
          "internalType": "uint256",
          "name": "",
          "type": "uint256"
        }
      ],
      "stateMutability": "view",
      "type": "function"
    },
    {
      "inputs": [
        {
          "internalType": "uint256",
          "name": "tokenId",
          "type": "uint256"
        }
      ],
      "name": "burn",
      "outputs": [],
      "stateMutability": "nonpayable",
      "type": "function"
    },
    {
      "inputs": [
        {
          "internalType": "uint256",
          "name": "tokenId",
          "type": "uint256"
        }
      ],
      "name": "burnTLDL1",
      "outputs": [],
      "stateMutability": "nonpayable",
      "type": "function"
    },
    {
      "inputs": [
        {
          "internalType": "address",
          "name": "user",
          "type": "address"
        },
        {
          "internalType": "bytes",
          "name": "depositData",
          "type": "bytes"
        }
      ],
      "name": "deposit",
      "outputs": [],
      "stateMutability": "nonpayable",
      "type": "function"
    },
    {
      "inputs": [
        {
          "internalType": "uint256",
          "name": "tokenId",
          "type": "uint256"
        }
      ],
      "name": "depositToPolygon",
      "outputs": [],
      "stateMutability": "nonpayable",
      "type": "function"
    },
    {
      "inputs": [
        {
          "components": [
            {
              "internalType": "address",
              "name": "from",
              "type": "address"
            },
            {
              "internalType": "uint256",
              "name": "nonce",
              "type": "uint256"
            },
            {
              "internalType": "uint256",
              "name": "tokenId",
              "type": "uint256"
            },
            {
              "internalType": "bytes",
              "name": "data",
              "type": "bytes"
            }
          ],
          "internalType": "struct IForwarder.ForwardRequest",
          "name": "req",
          "type": "tuple"
        },
        {
          "internalType": "bytes",
          "name": "signature",
          "type": "bytes"
        }
      ],
      "name": "execute",
      "outputs": [
        {
          "internalType": "bytes",
          "name": "",
          "type": "bytes"
        }
      ],
      "stateMutability": "nonpayable",
      "type": "function"
    },
    {
      "inputs": [
        {
          "internalType": "uint256",
          "name": "tokenId",
          "type": "uint256"
        }
      ],
      "name": "exists",
      "outputs": [
        {
          "internalType": "bool",
          "name": "",
          "type": "bool"
        }
      ],
      "stateMutability": "view",
      "type": "function"
    },
    {
      "inputs": [
        {
          "internalType": "string",
          "name": "key",
          "type": "string"
        },
        {
          "internalType": "uint256",
          "name": "tokenId",
          "type": "uint256"
        }
      ],
      "name": "get",
      "outputs": [
        {
          "internalType": "string",
          "name": "value",
          "type": "string"
        }
      ],
      "stateMutability": "view",
      "type": "function"
    },
    {
      "inputs": [
        {
          "internalType": "uint256",
          "name": "tokenId",
          "type": "uint256"
        }
      ],
      "name": "getApproved",
      "outputs": [
        {
          "internalType": "address",
          "name": "",
          "type": "address"
        }
      ],
      "stateMutability": "view",
      "type": "function"
    },
    {
      "inputs": [
        {
          "internalType": "uint256",
          "name": "keyHash",
          "type": "uint256"
        },
        {
          "internalType": "uint256",
          "name": "tokenId",
          "type": "uint256"
        }
      ],
      "name": "getByHash",
      "outputs": [
        {
          "internalType": "string",
          "name": "key",
          "type": "string"
        },
        {
          "internalType": "string",
          "name": "value",
          "type": "string"
        }
      ],
      "stateMutability": "view",
      "type": "function"
    },
    {
      "inputs": [
        {
          "internalType": "uint256",
          "name": "keyHash",
          "type": "uint256"
        }
      ],
      "name": "getKey",
      "outputs": [
        {
          "internalType": "string",
          "name": "",
          "type": "string"
        }
      ],
      "stateMutability": "view",
      "type": "function"
    },
    {
      "inputs": [
        {
          "internalType": "uint256[]",
          "name": "hashes",
          "type": "uint256[]"
        }
      ],
      "name": "getKeys",
      "outputs": [
        {
          "internalType": "string[]",
          "name": "values",
          "type": "string[]"
        }
      ],
      "stateMutability": "view",
      "type": "function"
    },
    {
      "inputs": [
        {
          "internalType": "string[]",
          "name": "keys",
          "type": "string[]"
        },
        {
          "internalType": "uint256",
          "name": "tokenId",
          "type": "uint256"
        }
      ],
      "name": "getMany",
      "outputs": [
        {
          "internalType": "string[]",
          "name": "values",
          "type": "string[]"
        }
      ],
      "stateMutability": "view",
      "type": "function"
    },
    {
      "inputs": [
        {
          "internalType": "uint256[]",
          "name": "keyHashes",
          "type": "uint256[]"
        },
        {
          "internalType": "uint256",
          "name": "tokenId",
          "type": "uint256"
        }
      ],
      "name": "getManyByHash",
      "outputs": [
        {
          "internalType": "string[]",
          "name": "keys",
          "type": "string[]"
        },
        {
          "internalType": "string[]",
          "name": "values",
          "type": "string[]"
        }
      ],
      "stateMutability": "view",
      "type": "function"
    },
    {
      "inputs": [
        {
          "internalType": "address",
          "name": "mintingManager",
          "type": "address"
        }
      ],
      "name": "initialize",
      "outputs": [],
      "stateMutability": "nonpayable",
      "type": "function"
    },
    {
      "inputs": [
        {
          "internalType": "address",
          "name": "owner",
          "type": "address"
        },
        {
          "internalType": "address",
          "name": "operator",
          "type": "address"
        }
      ],
      "name": "isApprovedForAll",
      "outputs": [
        {
          "internalType": "bool",
          "name": "",
          "type": "bool"
        }
      ],
      "stateMutability": "view",
      "type": "function"
    },
    {
      "inputs": [
        {
          "internalType": "address",
          "name": "spender",
          "type": "address"
        },
        {
          "internalType": "uint256",
          "name": "tokenId",
          "type": "uint256"
        }
      ],
      "name": "isApprovedOrOwner",
      "outputs": [
        {
          "internalType": "bool",
          "name": "",
          "type": "bool"
        }
      ],
      "stateMutability": "view",
      "type": "function"
    },
    {
      "inputs": [
        {
          "internalType": "address",
          "name": "forwarder",
          "type": "address"
        }
      ],
      "name": "isTrustedForwarder",
      "outputs": [
        {
          "internalType": "bool",
          "name": "",
          "type": "bool"
        }
      ],
      "stateMutability": "view",
      "type": "function"
    },
    {
      "inputs": [
        {
          "internalType": "address",
          "name": "user",
          "type": "address"
        },
        {
          "internalType": "uint256",
          "name": "tokenId",
          "type": "uint256"
        }
      ],
      "name": "mint",
      "outputs": [],
      "stateMutability": "nonpayable",
      "type": "function"
    },
    {
      "inputs": [
        {
          "internalType": "address",
          "name": "user",
          "type": "address"
        },
        {
          "internalType": "uint256",
          "name": "tokenId",
          "type": "uint256"
        },
        {
          "internalType": "bytes",
          "name": "",
          "type": "bytes"
        }
      ],
      "name": "mint",
      "outputs": [],
      "stateMutability": "nonpayable",
      "type": "function"
    },
    {
      "inputs": [
        {
          "internalType": "uint256",
          "name": "tokenId",
          "type": "uint256"
        },
        {
          "internalType": "string",
          "name": "uri",
          "type": "string"
        }
      ],
      "name": "mintTLD",
      "outputs": [],
      "stateMutability": "nonpayable",
      "type": "function"
    },
    {
      "inputs": [
        {
          "internalType": "address",
          "name": "to",
          "type": "address"
        },
        {
          "internalType": "string[]",
          "name": "labels",
          "type": "string[]"
        },
        {
          "internalType": "string[]",
          "name": "keys",
          "type": "string[]"
        },
        {
          "internalType": "string[]",
          "name": "values",
          "type": "string[]"
        }
      ],
      "name": "mintWithRecords",
      "outputs": [],
      "stateMutability": "nonpayable",
      "type": "function"
    },
    {
      "inputs": [
        {
          "internalType": "uint256",
          "name": "tokenId",
          "type": "uint256"
        }
      ],
      "name": "moveTLDOwnershipL2",
      "outputs": [],
      "stateMutability": "nonpayable",
      "type": "function"
    },
    {
      "inputs": [],
      "name": "name",
      "outputs": [
        {
          "internalType": "string",
          "name": "",
          "type": "string"
        }
      ],
      "stateMutability": "view",
      "type": "function"
    },
    {
      "inputs": [
        {
          "internalType": "string[]",
          "name": "labels",
          "type": "string[]"
        }
      ],
      "name": "namehash",
      "outputs": [
        {
          "internalType": "uint256",
          "name": "",
          "type": "uint256"
        }
      ],
      "stateMutability": "pure",
      "type": "function"
    },
    {
      "inputs": [
        {
          "internalType": "uint256",
          "name": "tokenId",
          "type": "uint256"
        }
      ],
      "name": "nonceOf",
      "outputs": [
        {
          "internalType": "uint256",
          "name": "",
          "type": "uint256"
        }
      ],
      "stateMutability": "view",
      "type": "function"
    },
    {
      "inputs": [
        {
          "internalType": "address",
          "name": "",
          "type": "address"
        },
        {
          "internalType": "address",
          "name": "from",
          "type": "address"
        },
        {
          "internalType": "uint256",
          "name": "tokenId",
          "type": "uint256"
        },
        {
          "internalType": "bytes",
          "name": "data",
          "type": "bytes"
        }
      ],
      "name": "onERC721Received",
      "outputs": [
        {
          "internalType": "bytes4",
          "name": "",
          "type": "bytes4"
        }
      ],
      "stateMutability": "nonpayable",
      "type": "function"
    },
    {
      "inputs": [
        {
          "internalType": "uint256",
          "name": "tokenId",
          "type": "uint256"
        }
      ],
      "name": "ownerOf",
      "outputs": [
        {
          "internalType": "address",
          "name": "",
          "type": "address"
        }
      ],
      "stateMutability": "view",
      "type": "function"
    },
    {
      "inputs": [
        {
          "internalType": "string[]",
          "name": "keys",
          "type": "string[]"
        },
        {
          "internalType": "string[]",
          "name": "values",
          "type": "string[]"
        },
        {
          "internalType": "uint256",
          "name": "tokenId",
          "type": "uint256"
        }
      ],
      "name": "reconfigure",
      "outputs": [],
      "stateMutability": "nonpayable",
      "type": "function"
    },
    {
      "inputs": [],
      "name": "removeReverse",
      "outputs": [],
      "stateMutability": "nonpayable",
      "type": "function"
    },
    {
      "inputs": [
        {
          "internalType": "uint256",
          "name": "tokenId",
          "type": "uint256"
        }
      ],
      "name": "reset",
      "outputs": [],
      "stateMutability": "nonpayable",
      "type": "function"
    },
    {
      "inputs": [
        {
          "internalType": "uint256",
          "name": "tokenId",
          "type": "uint256"
        }
      ],
      "name": "resolverOf",
      "outputs": [
        {
          "internalType": "address",
          "name": "",
          "type": "address"
        }
      ],
      "stateMutability": "view",
      "type": "function"
    },
    {
      "inputs": [
        {
          "internalType": "address",
          "name": "addr",
          "type": "address"
        }
      ],
      "name": "reverseOf",
      "outputs": [
        {
          "internalType": "uint256",
          "name": "reverse",
          "type": "uint256"
        }
      ],
      "stateMutability": "view",
      "type": "function"
    },
    {
      "inputs": [],
      "name": "root",
      "outputs": [
        {
          "internalType": "uint256",
          "name": "",
          "type": "uint256"
        }
      ],
      "stateMutability": "pure",
      "type": "function"
    },
    {
      "inputs": [
        {
          "internalType": "address",
          "name": "from",
          "type": "address"
        },
        {
          "internalType": "address",
          "name": "to",
          "type": "address"
        },
        {
          "internalType": "uint256",
          "name": "tokenId",
          "type": "uint256"
        }
      ],
      "name": "safeTransferFrom",
      "outputs": [],
      "stateMutability": "nonpayable",
      "type": "function"
    },
    {
      "inputs": [
        {
          "internalType": "address",
          "name": "from",
          "type": "address"
        },
        {
          "internalType": "address",
          "name": "to",
          "type": "address"
        },
        {
          "internalType": "uint256",
          "name": "tokenId",
          "type": "uint256"
        },
        {
          "internalType": "bytes",
          "name": "data",
          "type": "bytes"
        }
      ],
      "name": "safeTransferFrom",
      "outputs": [],
      "stateMutability": "nonpayable",
      "type": "function"
    },
    {
      "inputs": [
        {
          "internalType": "string",
          "name": "key",
          "type": "string"
        },
        {
          "internalType": "string",
          "name": "value",
          "type": "string"
        },
        {
          "internalType": "uint256",
          "name": "tokenId",
          "type": "uint256"
        }
      ],
      "name": "set",
      "outputs": [],
      "stateMutability": "nonpayable",
      "type": "function"
    },
    {
      "inputs": [
        {
          "internalType": "address",
          "name": "operator",
          "type": "address"
        },
        {
          "internalType": "bool",
          "name": "approved",
          "type": "bool"
        }
      ],
      "name": "setApprovalForAll",
      "outputs": [],
      "stateMutability": "nonpayable",
      "type": "function"
    },
    {
      "inputs": [
        {
          "internalType": "uint256",
          "name": "keyHash",
          "type": "uint256"
        },
        {
          "internalType": "string",
          "name": "value",
          "type": "string"
        },
        {
          "internalType": "uint256",
          "name": "tokenId",
          "type": "uint256"
        }
      ],
      "name": "setByHash",
      "outputs": [],
      "stateMutability": "nonpayable",
      "type": "function"
    },
    {
      "inputs": [
        {
          "internalType": "address",
          "name": "registry",
          "type": "address"
        }
      ],
      "name": "setCNSRegistry",
      "outputs": [],
      "stateMutability": "nonpayable",
      "type": "function"
    },
    {
      "inputs": [
        {
          "internalType": "address",
          "name": "clientChainManager",
          "type": "address"
        }
      ],
      "name": "setChildChainManager",
      "outputs": [],
      "stateMutability": "nonpayable",
      "type": "function"
    },
    {
      "inputs": [
        {
          "internalType": "string[]",
          "name": "keys",
          "type": "string[]"
        },
        {
          "internalType": "string[]",
          "name": "values",
          "type": "string[]"
        },
        {
          "internalType": "uint256",
          "name": "tokenId",
          "type": "uint256"
        }
      ],
      "name": "setMany",
      "outputs": [],
      "stateMutability": "nonpayable",
      "type": "function"
    },
    {
      "inputs": [
        {
          "internalType": "uint256[]",
          "name": "keyHashes",
          "type": "uint256[]"
        },
        {
          "internalType": "string[]",
          "name": "values",
          "type": "string[]"
        },
        {
          "internalType": "uint256",
          "name": "tokenId",
          "type": "uint256"
        }
      ],
      "name": "setManyByHash",
      "outputs": [],
      "stateMutability": "nonpayable",
      "type": "function"
    },
    {
      "inputs": [
        {
          "internalType": "address",
          "name": "to",
          "type": "address"
        },
        {
          "internalType": "uint256",
          "name": "tokenId",
          "type": "uint256"
        }
      ],
      "name": "setOwner",
      "outputs": [],
      "stateMutability": "nonpayable",
      "type": "function"
    },
    {
      "inputs": [
        {
          "internalType": "uint256",
          "name": "tokenId",
          "type": "uint256"
        }
      ],
      "name": "setReverse",
      "outputs": [],
      "stateMutability": "nonpayable",
      "type": "function"
    },
    {
      "inputs": [
        {
          "internalType": "address",
          "name": "rootChainManager",
          "type": "address"
        }
      ],
      "name": "setRootChainManager",
      "outputs": [],
      "stateMutability": "nonpayable",
      "type": "function"
    },
    {
      "inputs": [
        {
          "internalType": "string",
          "name": "prefix",
          "type": "string"
        }
      ],
      "name": "setTokenURIPrefix",
      "outputs": [],
      "stateMutability": "nonpayable",
      "type": "function"
    },
    {
      "inputs": [
        {
          "internalType": "bytes4",
          "name": "interfaceId",
          "type": "bytes4"
        }
      ],
      "name": "supportsInterface",
      "outputs": [
        {
          "internalType": "bool",
          "name": "",
          "type": "bool"
        }
      ],
      "stateMutability": "view",
      "type": "function"
    },
    {
      "inputs": [],
      "name": "symbol",
      "outputs": [
        {
          "internalType": "string",
          "name": "",
          "type": "string"
        }
      ],
      "stateMutability": "view",
      "type": "function"
    },
    {
      "inputs": [
        {
          "internalType": "uint256",
          "name": "tokenId",
          "type": "uint256"
        }
      ],
      "name": "tokenURI",
      "outputs": [
        {
          "internalType": "string",
          "name": "",
          "type": "string"
        }
      ],
      "stateMutability": "view",
      "type": "function"
    },
    {
      "inputs": [
        {
          "internalType": "address",
          "name": "from",
          "type": "address"
        },
        {
          "internalType": "address",
          "name": "to",
          "type": "address"
        },
        {
          "internalType": "uint256",
          "name": "tokenId",
          "type": "uint256"
        }
      ],
      "name": "transferFrom",
      "outputs": [],
      "stateMutability": "nonpayable",
      "type": "function"
    },
    {
      "inputs": [
        {
          "internalType": "address",
          "name": "to",
          "type": "address"
        },
        {
          "internalType": "uint256",
          "name": "tokenId",
          "type": "uint256"
        },
        {
          "internalType": "string[]",
          "name": "keys",
          "type": "string[]"
        },
        {
          "internalType": "string[]",
          "name": "values",
          "type": "string[]"
        }
      ],
      "name": "unlockWithRecords",
      "outputs": [],
      "stateMutability": "nonpayable",
      "type": "function"
    },
    {
      "inputs": [
        {
          "internalType": "uint256[]",
          "name": "tokenIds",
          "type": "uint256[]"
        }
      ],
      "name": "upgradeAll",
      "outputs": [],
      "stateMutability": "nonpayable",
      "type": "function"
    },
    {
      "inputs": [
        {
          "components": [
            {
              "internalType": "address",
              "name": "from",
              "type": "address"
            },
            {
              "internalType": "uint256",
              "name": "nonce",
              "type": "uint256"
            },
            {
              "internalType": "uint256",
              "name": "tokenId",
              "type": "uint256"
            },
            {
              "internalType": "bytes",
              "name": "data",
              "type": "bytes"
            }
          ],
          "internalType": "struct IForwarder.ForwardRequest",
          "name": "req",
          "type": "tuple"
        },
        {
          "internalType": "bytes",
          "name": "signature",
          "type": "bytes"
        }
      ],
      "name": "verify",
      "outputs": [
        {
          "internalType": "bool",
          "name": "",
          "type": "bool"
        }
      ],
      "stateMutability": "view",
      "type": "function"
    },
    {
      "inputs": [
        {
          "internalType": "uint256",
          "name": "tokenId",
          "type": "uint256"
        }
      ],
      "name": "withdraw",
      "outputs": [],
      "stateMutability": "nonpayable",
      "type": "function"
    },
    {
      "inputs": [
        {
          "internalType": "uint256[]",
          "name": "tokenIds",
          "type": "uint256[]"
        }
      ],
      "name": "withdrawBatch",
      "outputs": [],
      "stateMutability": "nonpayable",
      "type": "function"
    },
    {
      "inputs": [
        {
          "internalType": "bytes",
          "name": "inputData",
          "type": "bytes"
        },
        {
          "internalType": "uint256",
          "name": "tokenId",
          "type": "uint256"
        },
        {
          "internalType": "string[]",
          "name": "keys",
          "type": "string[]"
        },
        {
          "internalType": "string[]",
          "name": "values",
          "type": "string[]"
        }
      ],
      "name": "withdrawFromPolygon",
      "outputs": [],
      "stateMutability": "nonpayable",
      "type": "function"
    },
    {
      "inputs": [
        {
          "internalType": "uint256",
          "name": "tokenId",
          "type": "uint256"
        }
      ],
      "name": "withdrawWithMetadata",
      "outputs": [],
      "stateMutability": "nonpayable",
      "type": "function"
    }
  ],
  "bytecode": "0x608060405234801561001057600080fd5b506153dd806100206000396000f3fe608060405234801561001057600080fd5b50600436106103d05760003560e01c80637d67df63116101ff578063b85afd281161011a578063df454285116100ad578063f25eb5c11161007c578063f25eb5c1146108ee578063f5c1f76e146108f6578063f7df5c6014610909578063ffa1ad741461091c57600080fd5b8063df45428514610885578063e985e9c514610898578063ebf0c717146108d4578063ec129eea146108db57600080fd5b8063c87b56dd116100e9578063c87b56dd14610839578063ce92b33e1461084c578063cf2c52cb1461085f578063d0bc28d71461087257600080fd5b8063b85afd28146107df578063b88d4fde14610800578063bb5b27e114610813578063c4d66de81461082657600080fd5b80639c8d415611610192578063a5e584dc11610161578063a5e584dc1461051e578063ab3b87fe146107a6578063ae31844a146107b9578063b3f9e4cb146107cc57600080fd5b80639c8d415614610741578063a22cb46514610754578063a3f4df7e14610767578063a42474001461079357600080fd5b80639508b1c4116101ce5780639508b1c41461070b5780639559c0bd1461071e57806395d89b411461072657806399e0dd7c1461072e57600080fd5b80637d67df63146106bf5780637e37479e146106d25780637f139a00146106e557806394d008ef146106f857600080fd5b806342842e0e116102ef578063572b6c05116102825780636ccbae5f116102515780636ccbae5f1461066557806370a0823114610686578063728a44d814610699578063764a81bb146106ac57600080fd5b8063572b6c05146106025780636352211e1461061e578063638e5c7814610631578063672b9f811461064457600080fd5b80634a72584d116102be5780634a72584d146105b65780634f558e79146105c957806350382c1a146105dc57806350960239146105ef57600080fd5b806342842e0e1461056a57806342966c681461057d578063430c20811461059057806347c81699146105a357600080fd5b80631bf7e13e116103675780632e1a7d4d116103365780632e1a7d4d1461051e578063310bd74b14610531578063384e9a551461054457806340c10f191461055757600080fd5b80631bf7e13e146104c457806323b872dd146104d7578063276fabb1146104ea57806327f189751461050b57600080fd5b80630dee3b5c116103a35780630dee3b5c14610452578063150b7a02146104655780631bd8cc1a146104915780631be5e7ed146104b157600080fd5b806301ffc9a7146103d557806306fdde03146103fd578063081812fc14610412578063095ea7b31461043d575b600080fd5b6103e86103e33660046149a3565b610940565b60405190151581526020015b60405180910390f35b610405610951565b6040516103f49190614ee7565b610425610420366004614bb1565b6109e3565b6040516001600160a01b0390911681526020016103f4565b61045061044b3660046146d6565b610a0a565b005b610450610460366004614701565b610a5f565b6104786104733660046144d8565b610ad5565b6040516001600160e01b031990911681526020016103f4565b6104a461049f366004614891565b610c2b565b6040516103f49190614e48565b6104056104bf366004614aeb565b610d4b565b6104056104d2366004614b52565b610d96565b6104506104e5366004614498565b610ea1565b6104fd6104f83660046147e2565b610f27565b6040519081526020016103f4565b610450610519366004614821565b610f8f565b61045061052c366004614bb1565b61100a565b61045061053f366004614bb1565b611086565b610450610552366004614bb1565b6110f4565b6104506105653660046146d6565b6111b3565b610450610578366004614498565b611200565b61045061058b366004614bb1565b61121b565b6103e861059e3660046146d6565b611292565b6104506105b1366004614a8d565b61129e565b6104506105c4366004614bf9565b611310565b6103e86105d7366004614bb1565b611381565b6104506105ea366004614b20565b6113a0565b6104506105fd366004614428565b6113d3565b6103e8610610366004614428565b6001600160a01b0316301490565b61042561062c366004614bb1565b611433565b61045061063f366004614bb1565b611493565b610657610652366004614c49565b6114de565b6040516103f4929190614efa565b6104fd610673366004614bb1565b6000908152610100602052604090205490565b6104fd610694366004614428565b6114f6565b6104506106a7366004614428565b61157c565b6104506106ba366004614428565b611623565b6104506106cd3660046145b1565b6116d2565b6104fd6106e0366004614428565b61178f565b6104506106f3366004614428565b6117c0565b610450610706366004614789565b61185f565b6104506107193660046149db565b6118ae565b6104fd601481565b610405611935565b61045061073c366004614a5a565b611944565b61045061074f3660046147e2565b6119ca565b610450610762366004614659565b611b4d565b6104056040518060400160405280600d81526020016c554e533a20526567697374727960981b81525081565b6103e86107a1366004614b52565b611b5f565b6104506107b43660046146d6565b611baa565b6104506107c73660046147e2565b611c22565b6104256107da366004614bb1565b611cce565b6107f26107ed366004614891565b611cf8565b6040516103f4929190614e5b565b61045061080e366004614548565b611e60565b610405610821366004614bb1565b611eda565b610450610834366004614428565b611f7c565b610405610847366004614bb1565b6120f6565b61045061085a366004614821565b61215c565b61045061086d366004614684565b6121ce565b610450610880366004614bb1565b6122ab565b610450610893366004614bb1565b612363565b6103e86108a6366004614460565b6001600160a01b039182166000908152606a6020908152604080832093909416825291909152205460ff1690565b60006104fd565b6104506108e9366004614821565b612400565b610450612472565b6104a46109043660046147e2565b6124f8565b610450610917366004614bc9565b6125d5565b610405604051806040016040528060058152602001640302e362e360dc1b81525081565b600061094b82612659565b92915050565b606060658054610960906152df565b80601f016020809104026020016040519081016040528092919081815260200182805461098c906152df565b80156109d95780601f106109ae576101008083540402835291602001916109d9565b820191906000526020600020905b8154815290600101906020018083116109bc57829003601f168201915b5050505050905090565b60006109ee826126a9565b506000908152606960205260409020546001600160a01b031690565b8030331415610a4757610a1b612708565b8114610a425760405162461bcd60e51b8152600401610a3990615001565b60405180910390fd5b610a50565b610a508161271d565b610a5a838361274b565b505050565b610134546001600160a01b0316610a7461286e565b6001600160a01b031614610a9a5760405162461bcd60e51b8152600401610a3990614fba565b610aa38561287d565b610ab6610aaf86611433565b87876128ea565b610ac38484848489612a91565b610acd8686612b1b565b505050505050565b60007f8ffb960699dc2ba88f34d0e41c029c3c36c95149679fe1d0153a9582bec92378546001600160a01b0316610b0a61286e565b6001600160a01b03161415610bcc57610b2161286e565b6001600160a01b03166342966c68856040518263ffffffff1660e01b8152600401610b4e91815260200190565b600060405180830381600087803b158015610b6857600080fd5b505af1158015610b7c573d6000803e3d6000fd5b505050821580159150610b965750610b9682840184614971565b15610bb457610ba53085612b5c565b610baf8585612caa565b610bbe565b610bbe8585612b5c565b50630a85bd0160e11b610c22565b60405162461bcd60e51b815260206004820152602560248201527f52656769737472793a204552433732315f524543454956494e475f50524f4849604482015264109255115160da1b6064820152608401610a39565b95945050505050565b6060826001600160401b03811115610c5357634e487b7160e01b600052604160045260246000fd5b604051908082528060200260200182016040528015610c8657816020015b6060815260200190600190039081610c715790505b50905060005b83811015610d4357610d05858583818110610cb757634e487b7160e01b600052603260045260246000fd5b9050602002810190610cc991906150c5565b8080601f016020809104026020016040519081016040528093929190818152602001838380828437600092019190915250879250612d55915050565b828281518110610d2557634e487b7160e01b600052603260045260246000fd5b60200260200101819052508080610d3b90615314565b915050610c8c565b509392505050565b6060610d8e84848080601f016020809104026020016040519081016040528093929190818152602001838380828437600092019190915250869250612d55915050565b949350505050565b606060005a9050610da8858585611b5f565b610e045760405162461bcd60e51b815260206004820152602760248201527f554e535265676973747279466f727761726465723a205349474e41545552455f6044820152661253959053125160ca1b6064820152608401610a39565b610e96610e146020870187614428565b30604088013584610e2860608b018b6150c5565b8080601f01602080910402602001604051908101604052809392919081815260200183838082843760009201919091525050604080516020601f8e018190048102820181019092528c815292508c91508b9081908401838280828437600092019190915250612d8a92505050565b9150505b9392505050565b80610eb3610ead61286e565b82612e79565b610ecf5760405162461bcd60e51b8152600401610a3990614f1f565b8130331415610f0357610ee0612708565b8114610efe5760405162461bcd60e51b8152600401610a3990615001565b610f0c565b610f0c8161271d565b610f158361287d565b610f208585856128ea565b5050505050565b60006001821015610f7a5760405162461bcd60e51b815260206004820152601f60248201527f52656769737472793a204c4142454c535f4c454e4754485f42454c4f575f31006044820152606401610a39565b6000610f868484612ef7565b50949350505050565b80610f9b610ead61286e565b610fb75760405162461bcd60e51b8152600401610a3990614f1f565b8130331415610feb57610fc8612708565b8114610fe65760405162461bcd60e51b8152600401610a3990615001565b610ff4565b610ff48161271d565b6110018787878787612f9b565b50505050505050565b61101381611433565b6001600160a01b031661102461286e565b6001600160a01b03161461107a5760405162461bcd60e51b815260206004820152601d60248201527f52656769737472793a20494e56414c49445f544f4b454e5f4f574e45520000006044820152606401610a39565b6110838161301a565b50565b80611092610ead61286e565b6110ae5760405162461bcd60e51b8152600401610a3990614f1f565b81303314156110e2576110bf612708565b81146110dd5760405162461bcd60e51b8152600401610a3990615001565b6110eb565b6110eb8161271d565b610a5a8361287d565b806110fd61286e565b6001600160a01b031661110f82611433565b6001600160a01b0316146111655760405162461bcd60e51b815260206004820152601d60248201527f52656769737472793a2053454e4445525f49535f4e4f545f4f574e45520000006044820152606401610a39565b813033141561119957611176612708565b81146111945760405162461bcd60e51b8152600401610a3990615001565b6111a2565b6111a28161271d565b610a5a6111ad61286e565b846130c1565b6111bb613109565b6001600160a01b03166111cc61286e565b6001600160a01b0316146111f25760405162461bcd60e51b8152600401610a3990615083565b6111fc8282612b5c565b5050565b610a5a83838360405180602001604052806000815250611e60565b80611227610ead61286e565b6112435760405162461bcd60e51b8152600401610a3990614f1f565b813033141561127757611254612708565b81146112725760405162461bcd60e51b8152600401610a3990615001565b611280565b6112808161271d565b6112898361287d565b610a5a8361301a565b6000610e9a8383612e79565b806112aa610ead61286e565b6112c65760405162461bcd60e51b8152600401610a3990614f1f565b81303314156112fa576112d7612708565b81146112f55760405162461bcd60e51b8152600401610a3990615001565b611303565b6113038161271d565b611001878787878761321c565b8061131c610ead61286e565b6113385760405162461bcd60e51b8152600401610a3990614f1f565b813033141561136c57611349612708565b81146113675760405162461bcd60e51b8152600401610a3990615001565b611375565b6113758161271d565b610acd868686866132fb565b6000818152606760205260408120546001600160a01b0316151561094b565b611083816040516020016113b49190614d13565b6040516020818303038152906040528051906020012060001c8261339b565b610134546001600160a01b03166113e861286e565b6001600160a01b03161461140e5760405162461bcd60e51b8152600401610a3990614fba565b6001600160a01b0316600090815261013660205260409020805460ff19166001179055565b6000818152606760205260408120546001600160a01b03168061094b5760405162461bcd60e51b8152602060048201526018602482015277115490cdcc8c4e881a5b9d985b1a59081d1bdad95b88125160421b6044820152606401610a39565b8061149f610ead61286e565b6114bb5760405162461bcd60e51b8152600401610a3990614f1f565b6114cd6114c661286e565b30846128ea565b6111fc6114d861286e565b83612caa565b6060806114eb84846133c7565b909590945092505050565b60006001600160a01b0382166115605760405162461bcd60e51b815260206004820152602960248201527f4552433732313a2061646472657373207a65726f206973206e6f7420612076616044820152683634b21037bbb732b960b91b6064820152608401610a39565b506001600160a01b031660009081526068602052604090205490565b6000805160206153b1833981519152546001600160a01b0316156115f15760405162461bcd60e51b815260206004820152602660248201527f52656769737472793a20524f4f545f434841494e5f4d414e454745525f4e4f546044820152655f454d50545960d01b6064820152608401610a39565b806000805160206153b18339815191525b80546001600160a01b0319166001600160a01b039290921691909117905550565b7f8bea9a6f8afd34f4e29c585f854e0cc5161431bf5fc299d468454d33dce53b87546001600160a01b0316156116ab5760405162461bcd60e51b815260206004820152602760248201527f52656769737472793a204348494c445f434841494e5f4d414e454745525f4e4f604482015266545f454d50545960c81b6064820152608401610a39565b807f8bea9a6f8afd34f4e29c585f854e0cc5161431bf5fc299d468454d33dce53b87611602565b60028510156117235760405162461bcd60e51b815260206004820152601f60248201527f52656769737472793a204c4142454c535f4c454e4754485f42454c4f575f32006044820152606401610a39565b6000806117308888612ef7565b9150915061173f610ead61286e565b61175b5760405162461bcd60e51b8152600401610a3990614f1f565b611777898361177261176d8b8d61519f565b6133e8565b613485565b6117848686868686612a91565b505050505050505050565b6001600160a01b038116600090815261013560205260408120546117b2816134d1565b6117ba578091505b50919050565b7f8ffb960699dc2ba88f34d0e41c029c3c36c95149679fe1d0153a9582bec92378546001600160a01b0316156118385760405162461bcd60e51b815260206004820181905260248201527f52656769737472793a20434e535f52454749535452595f4e4f545f454d5054596044820152606401610a39565b807f8ffb960699dc2ba88f34d0e41c029c3c36c95149679fe1d0153a9582bec92378611602565b611867613109565b6001600160a01b031661187861286e565b6001600160a01b03161461189e5760405162461bcd60e51b8152600401610a3990615083565b6118a88484612b5c565b50505050565b6118b8878761351b565b6118c061286e565b6001600160a01b03166118d286611433565b6001600160a01b0316146119285760405162461bcd60e51b815260206004820152601d60248201527f52656769737472793a2053454e4445525f49535f4e4f545f4f574e45520000006044820152606401610a39565b6110018484848489612a91565b606060668054610960906152df565b610134546001600160a01b031661195961286e565b6001600160a01b03161461197f5760405162461bcd60e51b8152600401610a3990614fba565b61198c610133838361421f565b507f4b120d6a959a84a520fa48f5f937cca0e79129423487af7901213b5d2e89313b82826040516119be929190614ed3565b60405180910390a15050565b806014811115611a1c5760405162461bcd60e51b815260206004820152601d60248201527f52656769737472793a20455843454544535f42415443485f4c494d49540000006044820152606401610a39565b60005b81811015611afd576000848483818110611a4957634e487b7160e01b600052603260045260246000fd5b905060200201359050611a5b81611433565b6001600160a01b0316611a6c61286e565b6001600160a01b03161481604051602001611ab391907f52656769737472793a20494e56414c49445f544f4b454e5f4f574e45522000008152601e810191909152603e0190565b60405160208183030381529060405290611ae05760405162461bcd60e51b8152600401610a399190614ee7565b50611aea8161301a565b5080611af581615314565b915050611a1f565b50611b0661286e565b6001600160a01b03167ff871896b17e9cb7a64941c62c188a4f5c621b86800e3d15452ece01ce56073df8484604051611b40929190614e80565b60405180910390a2505050565b6111fc611b5861286e565b838361358a565b6000610d8e611b6d85615214565b3085858080601f01602080910402602001604051908101604052809392919081815260200183838082843760009201919091525061365992505050565b80611bb6610ead61286e565b611bd25760405162461bcd60e51b8152600401610a3990614f1f565b8130331415611c0657611be3612708565b8114611c015760405162461bcd60e51b8152600401610a3990615001565b611c0f565b611c0f8161271d565b6118a8611c1b84611433565b85856128ea565b610134546001600160a01b0316611c3761286e565b6001600160a01b031614611c5d5760405162461bcd60e51b8152600401610a3990614fba565b60005b81811015610a5a5760016101376000858585818110611c8f57634e487b7160e01b600052603260045260246000fd5b90506020020135815260200190815260200160002060006101000a81548160ff0219169083151502179055508080611cc690615314565b915050611c60565b6000818152606760205260408120546001600160a01b0316611cf157600061094b565b3092915050565b606080836001600160401b03811115611d2157634e487b7160e01b600052604160045260246000fd5b604051908082528060200260200182016040528015611d5457816020015b6060815260200190600190039081611d3f5790505b509150836001600160401b03811115611d7d57634e487b7160e01b600052604160045260246000fd5b604051908082528060200260200182016040528015611db057816020015b6060815260200190600190039081611d9b5790505b50905060005b84811015611e5757611dee868683818110611de157634e487b7160e01b600052603260045260246000fd5b90506020020135856133c7565b848381518110611e0e57634e487b7160e01b600052603260045260246000fd5b60200260200101848481518110611e3557634e487b7160e01b600052603260045260246000fd5b6020026020010182905282905250508080611e4f90615314565b915050611db6565b50935093915050565b81611e6c610ead61286e565b611e885760405162461bcd60e51b8152600401610a3990614f1f565b8230331415611ebc57611e99612708565b8114611eb75760405162461bcd60e51b8152600401610a3990615001565b611ec5565b611ec58161271d565b611ece8461287d565b610acd868686866137b1565b600081815260c960205260409020805460609190611ef7906152df565b80601f0160208091040260200160405190810160405280929190818152602001828054611f23906152df565b8015611f705780601f10611f4557610100808354040283529160200191611f70565b820191906000526020600020905b815481529060010190602001808311611f5357829003601f168201915b50505050509050919050565b600054610100900460ff1615808015611f9c5750600054600160ff909116105b80611fb65750303b158015611fb6575060005460ff166001145b6120195760405162461bcd60e51b815260206004820152602e60248201527f496e697469616c697a61626c653a20636f6e747261637420697320616c72656160448201526d191e481a5b9a5d1a585b1a5e995960921b6064820152608401610a39565b6000805460ff19166001179055801561203c576000805461ff0019166101001790555b61013480546001600160a01b0319166001600160a01b0384161790556040805180820182526013815272556e73746f707061626c6520446f6d61696e7360681b60208083019190915282518084019093526002835261155160f21b908301526120a4916137e4565b6120ac613832565b6120b4613832565b80156111fc576000805461ff0019169055604051600181527f7f26b83ff96e1f2b6a682f133852f6798a09c465da95921460cefb3847402498906020016119be565b6060612101826126a9565b600061210b61385b565b9050600081511161212b5760405180602001604052806000815250610e9a565b806121358461386b565b604051602001612146929190614dba565b6040516020818303038152906040529392505050565b80612168610ead61286e565b6121845760405162461bcd60e51b8152600401610a3990614f1f565b81303314156121b857612195612708565b81146121b35760405162461bcd60e51b8152600401610a3990615001565b6121c1565b6121c18161271d565b6110018787878787612a91565b7f8bea9a6f8afd34f4e29c585f854e0cc5161431bf5fc299d468454d33dce53b87546001600160a01b031661220161286e565b6001600160a01b0316146122275760405162461bcd60e51b8152600401610a3990615083565b602081141561224a57600061223e82840184614bb1565b90506118a88482612b5c565b6000612258828401846148da565b805190915060005b81811015610acd576122998684838151811061228c57634e487b7160e01b600052603260045260246000fd5b6020026020010151612b5c565b806122a381615314565b915050612260565b610134546001600160a01b03166122c061286e565b6001600160a01b0316146122e65760405162461bcd60e51b8152600401610a3990614fba565b61dead6122f282611433565b6001600160a01b0316146123485760405162461bcd60e51b815260206004820152601a60248201527f52656769737472793a204f574e45525f4e4f545f3078444541440000000000006044820152606401610a39565b610134546110839061dead906001600160a01b0316836128ea565b610134546001600160a01b031661237861286e565b6001600160a01b03161461239e5760405162461bcd60e51b8152600401610a3990614fba565b61dead6123aa82611433565b6001600160a01b03161461107a5760405162461bcd60e51b815260206004820152601a60248201527f52656769737472793a204f574e45525f4e4f545f3078444541440000000000006044820152606401610a39565b8061240c610ead61286e565b6124285760405162461bcd60e51b8152600401610a3990614f1f565b813033141561245c57612439612708565b81146124575760405162461bcd60e51b8152600401610a3990615001565b612465565b6124658161271d565b6110018787878787613984565b600061247c61286e565b6001600160a01b038116600090815261013560205260409020549091506124ef5760405162461bcd60e51b815260206004820152602160248201527f52656769737472793a20524556455253455f5245434f52445f49535f454d50546044820152605960f81b6064820152608401610a39565b6110838161399a565b6060816001600160401b0381111561252057634e487b7160e01b600052604160045260246000fd5b60405190808252806020026020018201604052801561255357816020015b606081526020019060019003908161253e5790505b50905060005b828110156125ce5761259084848381811061258457634e487b7160e01b600052603260045260246000fd5b90506020020135611eda565b8282815181106125b057634e487b7160e01b600052603260045260246000fd5b602002602001018190525080806125c690615314565b915050612559565b5092915050565b610134546001600160a01b03166125ea61286e565b6001600160a01b0316146126105760405162461bcd60e51b8152600401610a3990614fba565b61013454612627906001600160a01b031684612b5c565b827fc5beef08f693b11c316c0c8394a377a0033c9cf701b8cd8afd79cecef60c39528383604051611b40929190614ed3565b60006001600160e01b031982166380ac58cd60e01b148061268a57506001600160e01b03198216635b5e139f60e01b145b8061094b57506301ffc9a760e01b6001600160e01b031983161461094b565b6000818152606760205260409020546001600160a01b03166110835760405162461bcd60e51b8152602060048201526018602482015277115490cdcc8c4e881a5b9d985b1a59081d1bdad95b88125160421b6044820152606401610a39565b60003033141561271a5750601f193601355b90565b6000818152610100602052604090205461273890600161515c565b6000918252610100602052604090912055565b600061275682611433565b9050806001600160a01b0316836001600160a01b031614156127c45760405162461bcd60e51b815260206004820152602160248201527f4552433732313a20617070726f76616c20746f2063757272656e74206f776e656044820152603960f91b6064820152608401610a39565b806001600160a01b03166127d661286e565b6001600160a01b031614806127f257506127f2816108a661286e565b6128645760405162461bcd60e51b815260206004820152603e60248201527f4552433732313a20617070726f76652063616c6c6572206973206e6f7420746f60448201527f6b656e206f776e6572206e6f7220617070726f76656420666f7220616c6c00006064820152608401610a39565b610a5a83836139df565b6000612878613a4d565b905090565b61288681613a69565b60405160200161289891815260200190565b60408051601f198184030181528282528051602091820120600085815260cb9092529181209190915582917f185c30856dadb58bf097c1f665a52ada7029752dbcad008ea3fefc73bee8c9fe9190a250565b826001600160a01b03166128fd82611433565b6001600160a01b0316146129615760405162461bcd60e51b815260206004820152602560248201527f4552433732313a207472616e736665722066726f6d20696e636f72726563742060448201526437bbb732b960d91b6064820152608401610a39565b6001600160a01b0382166129c35760405162461bcd60e51b8152602060048201526024808201527f4552433732313a207472616e7366657220746f20746865207a65726f206164646044820152637265737360e01b6064820152608401610a39565b6129ce838383613a95565b6129d96000826139df565b6001600160a01b0383166000908152606860205260408120805460019290612a02908490615188565b90915550506001600160a01b0382166000908152606860205260408120805460019290612a3090849061515c565b909155505060008181526067602052604080822080546001600160a01b0319166001600160a01b0386811691821790925591518493918716917fddf252ad1be2c89b69c2b068fc378daa952ba7f163c4a11628f55a4df523b3ef91a4505050565b60005b84811015610acd57612b09868683818110612abf57634e487b7160e01b600052603260045260246000fd5b9050602002810190612ad191906150c5565b868685818110612af157634e487b7160e01b600052603260045260246000fd5b9050602002810190612b0391906150c5565b8661321c565b80612b1381615314565b915050612a94565b61dead6001600160a01b03831614801590612b4d57506001600160a01b03821660009081526101356020526040902054155b156111fc576111fc82826130c1565b6001600160a01b038216612bb25760405162461bcd60e51b815260206004820181905260248201527f4552433732313a206d696e7420746f20746865207a65726f20616464726573736044820152606401610a39565b6000818152606760205260409020546001600160a01b031615612c175760405162461bcd60e51b815260206004820152601c60248201527f4552433732313a20746f6b656e20616c7265616479206d696e746564000000006044820152606401610a39565b612c2360008383613a95565b6001600160a01b0382166000908152606860205260408120805460019290612c4c90849061515c565b909155505060008181526067602052604080822080546001600160a01b0319166001600160a01b03861690811790915590518392907fddf252ad1be2c89b69c2b068fc378daa952ba7f163c4a11628f55a4df523b3ef908290a45050565b6000612cb4613109565b9050612cc081836139df565b6000805160206153b183398151915254604080516020808201869052825180830390910181528183019283905263e3dec8fb60e01b9092526001600160a01b0390921691829163e3dec8fb91612d1d918891309190604401614de9565b600060405180830381600087803b158015612d3757600080fd5b505af1158015612d4b573d6000803e3d6000fd5b5050505050505050565b6060610e9a83604051602001612d6b9190614d13565b6040516020818303038152906040528051906020012060001c83613b32565b6060612d958561271d565b600080876001600160a01b031686612daf8b8a8989613c14565b604051612dbc9190614d13565b60006040518083038160008787f1925050503d8060008114612dfa576040519150601f19603f3d011682016040523d82523d6000602084013e612dff565b606091505b509092509050612e10603f87615174565b5a11612e2c57634e487b7160e01b600052600160045260246000fd5b612e6c82826040518060400160405280601a81526020017f42617365466f727761726465723a2043414c4c5f4641494c4544000000000000815250613c44565b9998505050505050505050565b600080612e8583611433565b9050806001600160a01b0316846001600160a01b03161480612ecc57506001600160a01b038082166000908152606a602090815260408083209388168352929052205460ff165b80610d8e5750836001600160a01b0316612ee5846109e3565b6001600160a01b031614949350505050565b600080825b8015612f9357829150612f7f828686612f16600186615188565b818110612f3357634e487b7160e01b600052603260045260246000fd5b9050602002810190612f4591906150c5565b8080601f016020809104026020016040519081016040528093929190818152602001838380828437600092019190915250613c7d92505050565b925080612f8b816152c8565b915050612efc565b509250929050565b60005b84811015610acd57613008868683818110612fc957634e487b7160e01b600052603260045260246000fd5b90506020020135858584818110612ff057634e487b7160e01b600052603260045260246000fd5b905060200281019061300291906150c5565b856132fb565b8061301281615314565b915050612f9e565b600061302582611433565b905061303381600084613a95565b61303e6000836139df565b6001600160a01b0381166000908152606860205260408120805460019290613067908490615188565b909155505060008281526067602052604080822080546001600160a01b0319169055518391906001600160a01b038416907fddf252ad1be2c89b69c2b068fc378daa952ba7f163c4a11628f55a4df523b3ef908390a45050565b6001600160a01b03821660008181526101356020526040808220849055518392917feb76a21470988c474a21f690cc28fee1ed511bd812dc3c21fd0f49c5e5d4708a91a35050565b6000806000805160206153b18339815191525460405163721804d360e11b81523060048201526001600160a01b039091169150600090829063e43009a69060240160206040518083038186803b15801561316257600080fd5b505afa158015613176573d6000803e3d6000fd5b505050506040513d601f19601f8201168201806040525081019061319a919061498b565b60405163e66f960360e01b8152600481018290529091506001600160a01b0383169063e66f96039060240160206040518083038186803b1580156131dd57600080fd5b505afa1580156131f1573d6000803e3d6000fd5b505050506040513d601f19601f820116820180604052508101906132159190614444565b9250505090565b60008585604051602001613231929190614daa565b60408051601f198184030181528282528051602091820120601f8901829004820284018201909252878352909250613285918391899089908190840183828082843760009201919091525061339b92505050565b610acd8187878080601f01602080910402602001604051908101604052809392919081815260200183838082843760009201919091525050604080516020601f8b018190048102820181019092528981529250899150889081908401838280828437600092019190915250889250613d2a915050565b61330484613e65565b6133505760405162461bcd60e51b815260206004820152601c60248201527f5265636f726453746f726167653a204b45595f4e4f545f464f554e44000000006044820152606401610a39565b6118a88461335d86611eda565b85858080601f016020809104026020016040519081016040528093929190818152602001838380828437600092019190915250879250613d2a915050565b6133a482613e65565b6111fc57600082815260c9602090815260409091208251610a5a9284019061429f565b6060806133d384611eda565b91506133df8484613b32565b90509250929050565b606060008260008151811061340d57634e487b7160e01b600052603260045260246000fd5b602002602001015190506000600190505b83518110156125ce578184828151811061344857634e487b7160e01b600052603260045260246000fd5b6020026020010151604051602001613461929190614d6e565b6040516020818303038152906040529150808061347d90615314565b91505061341e565b61348f8383612b5c565b817fc5beef08f693b11c316c0c8394a377a0033c9cf701b8cd8afd79cecef60c3952826040516134bf9190614ee7565b60405180910390a2610a5a8383612b1b565b6000818152610137602052604081205460ff16801561094b575061013660006134f861286e565b6001600160a01b0316815260208101919091526040016000205460ff1692915050565b6000805160206153b183398151915254604051633805550f60e01b81526001600160a01b03909116908190633805550f9061355c9086908690600401614ed3565b600060405180830381600087803b15801561357657600080fd5b505af1158015611001573d6000803e3d6000fd5b816001600160a01b0316836001600160a01b031614156135ec5760405162461bcd60e51b815260206004820152601960248201527f4552433732313a20617070726f766520746f2063616c6c6572000000000000006044820152606401610a39565b6001600160a01b038381166000818152606a6020908152604080832094871680845294825291829020805460ff191686151590811790915591519182527f17307eab39ab6107e8899845ad3d59bd9653f200f220920489ca2b5937696c31910160405180910390a3505050565b6040838101519051636ccbae5f60e01b8152600481019190915260009081903090636ccbae5f9060240160206040518083038186803b15801561369b57600080fd5b505afa1580156136af573d6000803e3d6000fd5b505050506040513d601f19601f820116820180604052508101906136d3919061498b565b905060006137818660600151805190602001208688602001516040516020016137219392919092835260609190911b6bffffffffffffffffffffffff19166020830152603482015260540190565b60408051601f1981840301815282825280516020918201207f19457468657265756d205369676e6564204d6573736167653a0a33320000000084830152603c8085019190915282518085039091018152605c909301909152815191012090565b90508186602001511480156137a7575085516137a7906001600160a01b03168286613e8b565b9695505050505050565b6137bc8484846128ea565b6137c884848484613fdb565b6118a85760405162461bcd60e51b8152600401610a3990614f68565b600054610100900460ff1661380b5760405162461bcd60e51b8152600401610a3990615038565b815161381e90606590602085019061429f565b508051610a5a90606690602084019061429f565b600054610100900460ff166138595760405162461bcd60e51b8152600401610a3990615038565b565b60606101338054610960906152df565b60608161388f5750506040805180820190915260018152600360fc1b602082015290565b8160005b81156138b957806138a381615314565b91506138b29050600a83615174565b9150613893565b6000816001600160401b038111156138e157634e487b7160e01b600052604160045260246000fd5b6040519080825280601f01601f19166020018201604052801561390b576020820181803683370190505b5090505b8415610d8e57613920600183615188565b915061392d600a8661532f565b61393890603061515c565b60f81b81838151811061395b57634e487b7160e01b600052603260045260246000fd5b60200101906001600160f81b031916908160001a90535061397d600a86615174565b945061390f565b61398d8161287d565b610f208585858585612a91565b6001600160a01b03811660008181526101356020526040808220829055517ffcf5eec0cfa3e6332f5f0e63ec242d71f866a61d121d6cdf5c2eb3b668a26c4f9190a250565b600081815260696020526040902080546001600160a01b0319166001600160a01b0384169081179091558190613a1482611433565b6001600160a01b03167f8c5be1e5ebec7d5bd14f71427d1e84f3dd0314c0f7b2291e5b200ac8c7c3b92560405160405180910390a45050565b600030331415613a64575060331936013560601c90565b503390565b600081815260cb602052604081205415613a9157600082815260cb602052604090205461094b565b5090565b6000818152610137602052604090205460ff161580613abc57506001600160a01b03821615155b613b085760405162461bcd60e51b815260206004820152601860248201527f52656769737472793a20544f4b454e5f555047524144454400000000000000006044820152606401610a39565b6001600160a01b03831660009081526101356020526040902054811415610a5a57610a5a8361399a565b6060613b3d826134d1565b15613b57575060408051602081019091526000815261094b565b60ca6000613b6484613a69565b815260200190815260200160002060008481526020019081526020016000208054613b8e906152df565b80601f0160208091040260200160405190810160405280929190818152602001828054613bba906152df565b8015613c075780601f10613bdc57610100808354040283529160200191613c07565b820191906000526020600020905b815481529060010190602001808311613bea57829003601f168201915b5050505050905092915050565b6060828585604051602001613c2b93929190614d2f565b6040516020818303038152906040529050949350505050565b60608315613c53575081610e9a565b825115613c635782518084602001fd5b8160405162461bcd60e51b8152600401610a399190614ee7565b6000815160001415613cc95760405162461bcd60e51b815260206004820152601560248201527452656769737472793a204c4142454c5f454d50545960581b6044820152606401610a39565b8282604051602001613cdb9190614d13565b60405160208183030381529060405280519060200120604051602001613d0b929190918252602082015260400190565b60408051601f1981840301815291905280516020909101209392505050565b60ca6000613d3783613a69565b815260200190815260200160002060008581526020019081526020016000208054613d61906152df565b15159050613db85782604051613d779190614d13565b6040518091039020817f7ae4f661958fbecc2f77be6b0eb280d2a6f604b29e1e7221c82b9da0c4af7f8685604051613daf9190614ee7565b60405180910390a35b8160ca6000613dc684613a69565b815260200190815260200160002060008681526020019081526020016000209080519060200190613df892919061429f565b5081604051613e079190614d13565b604051809103902083604051613e1d9190614d13565b6040518091039020827f851ffe8e74d5015261dba0a1f9e1b0e5d42c5af5d2ad1908fee897c7d80a0d928686604051613e57929190614efa565b60405180910390a450505050565b600081815260c9602052604081208054829190613e81906152df565b9050119050919050565b6000806000613e9a85856140ec565b90925090506000816004811115613ec157634e487b7160e01b600052602160045260246000fd5b148015613edf5750856001600160a01b0316826001600160a01b0316145b15613eef57600192505050610e9a565b600080876001600160a01b0316631626ba7e60e01b8888604051602401613f17929190614eba565b60408051601f198184030181529181526020820180516001600160e01b03166001600160e01b0319909416939093179092529051613f559190614d13565b600060405180830381855afa9150503d8060008114613f90576040519150601f19603f3d011682016040523d82523d6000602084013e613f95565b606091505b5091509150818015613fa8575080516020145b8015613fcf57508051630b135d3f60e11b90613fcd908301602090810190840161498b565b145b98975050505050505050565b60006001600160a01b0384163b156140e457836001600160a01b031663150b7a0261400461286e565b8786866040518563ffffffff1660e01b81526004016140269493929190614e15565b602060405180830381600087803b15801561404057600080fd5b505af1925050508015614070575060408051601f3d908101601f1916820190925261406d918101906149bf565b60015b6140ca573d80801561409e576040519150601f19603f3d011682016040523d82523d6000602084013e6140a3565b606091505b5080516140c25760405162461bcd60e51b8152600401610a3990614f68565b805181602001fd5b6001600160e01b031916630a85bd0160e11b149050610d8e565b506001610d8e565b6000808251604114156141235760208301516040840151606085015160001a61411787828585614132565b9450945050505061412b565b506000905060025b9250929050565b6000807f7fffffffffffffffffffffffffffffff5d576e7357a4501ddfe92f46681b20a08311156141695750600090506003614216565b8460ff16601b1415801561418157508460ff16601c14155b156141925750600090506004614216565b6040805160008082526020820180845289905260ff881692820192909252606081018690526080810185905260019060a0016020604051602081039080840390855afa1580156141e6573d6000803e3d6000fd5b5050604051601f1901519150506001600160a01b03811661420f57600060019250925050614216565b9150600090505b94509492505050565b82805461422b906152df565b90600052602060002090601f01602090048101928261424d5760008555614293565b82601f106142665782800160ff19823516178555614293565b82800160010185558215614293579182015b82811115614293578235825591602001919060010190614278565b50613a91929150614313565b8280546142ab906152df565b90600052602060002090601f0160209004810192826142cd5760008555614293565b82601f106142e657805160ff1916838001178555614293565b82800160010185558215614293579182015b828111156142935782518255916020019190600101906142f8565b5b80821115613a915760008155600101614314565b60008083601f840112614339578182fd5b5081356001600160401b0381111561434f578182fd5b6020830191508360208260051b850101111561412b57600080fd5b8035801515811461437a57600080fd5b919050565b60008083601f840112614390578182fd5b5081356001600160401b038111156143a6578182fd5b60208301915083602082850101111561412b57600080fd5b600082601f8301126143ce578081fd5b81356001600160401b038111156143e7576143e761536f565b6143fa601f8201601f1916602001615109565b81815284602083860101111561440e578283fd5b816020850160208301379081016020019190915292915050565b600060208284031215614439578081fd5b8135610e9a81615385565b600060208284031215614455578081fd5b8151610e9a81615385565b60008060408385031215614472578081fd5b823561447d81615385565b9150602083013561448d81615385565b809150509250929050565b6000806000606084860312156144ac578081fd5b83356144b781615385565b925060208401356144c781615385565b929592945050506040919091013590565b6000806000806000608086880312156144ef578283fd5b85356144fa81615385565b9450602086013561450a81615385565b93506040860135925060608601356001600160401b0381111561452b578182fd5b6145378882890161437f565b969995985093965092949392505050565b6000806000806080858703121561455d578182fd5b843561456881615385565b9350602085013561457881615385565b92506040850135915060608501356001600160401b03811115614599578182fd5b6145a5878288016143be565b91505092959194509250565b60008060008060008060006080888a0312156145cb578485fd5b87356145d681615385565b965060208801356001600160401b03808211156145f1578687fd5b6145fd8b838c01614328565b909850965060408a0135915080821115614615578384fd5b6146218b838c01614328565b909650945060608a0135915080821115614639578384fd5b506146468a828b01614328565b989b979a50959850939692959293505050565b6000806040838503121561466b578182fd5b823561467681615385565b91506133df6020840161436a565b600080600060408486031215614698578081fd5b83356146a381615385565b925060208401356001600160401b038111156146bd578182fd5b6146c98682870161437f565b9497909650939450505050565b600080604083850312156146e8578182fd5b82356146f381615385565b946020939093013593505050565b60008060008060008060808789031215614719578384fd5b863561472481615385565b95506020870135945060408701356001600160401b0380821115614746578586fd5b6147528a838b01614328565b9096509450606089013591508082111561476a578384fd5b5061477789828a01614328565b979a9699509497509295939492505050565b6000806000806060858703121561479e578182fd5b84356147a981615385565b93506020850135925060408501356001600160401b038111156147ca578283fd5b6147d68782880161437f565b95989497509550505050565b600080602083850312156147f4578182fd5b82356001600160401b03811115614809578283fd5b61481585828601614328565b90969095509350505050565b600080600080600060608688031215614838578283fd5b85356001600160401b038082111561484e578485fd5b61485a89838a01614328565b90975095506020880135915080821115614872578485fd5b5061487f88828901614328565b96999598509660400135949350505050565b6000806000604084860312156148a5578081fd5b83356001600160401b038111156148ba578182fd5b6148c686828701614328565b909790965060209590950135949350505050565b600060208083850312156148ec578182fd5b82356001600160401b03811115614901578283fd5b8301601f81018513614911578283fd5b803561492461491f82615139565b615109565b80828252848201915084840188868560051b8701011115614943578687fd5b8694505b83851015614965578035835260019490940193918501918501614947565b50979650505050505050565b600060208284031215614982578081fd5b610e9a8261436a565b60006020828403121561499c578081fd5b5051919050565b6000602082840312156149b4578081fd5b8135610e9a8161539a565b6000602082840312156149d0578081fd5b8151610e9a8161539a565b60008060008060008060006080888a0312156149f5578081fd5b87356001600160401b0380821115614a0b578283fd5b614a178b838c0161437f565b909950975060208a0135965060408a0135915080821115614a36578283fd5b614a428b838c01614328565b909650945060608a0135915080821115614639578283fd5b60008060208385031215614a6c578182fd5b82356001600160401b03811115614a81578283fd5b6148158582860161437f565b600080600080600060608688031215614aa4578283fd5b85356001600160401b0380821115614aba578485fd5b614ac689838a0161437f565b90975095506020880135915080821115614ade578485fd5b5061487f8882890161437f565b600080600060408486031215614aff578081fd5b83356001600160401b03811115614b14578182fd5b6148c68682870161437f565b600060208284031215614b31578081fd5b81356001600160401b03811115614b46578182fd5b610d8e848285016143be565b600080600060408486031215614b66578081fd5b83356001600160401b0380821115614b7c578283fd5b9085019060808288031215614b8f578283fd5b90935060208501359080821115614ba4578283fd5b506146c98682870161437f565b600060208284031215614bc2578081fd5b5035919050565b600080600060408486031215614bdd578081fd5b8335925060208401356001600160401b038111156146bd578182fd5b60008060008060608587031215614c0e578182fd5b8435935060208501356001600160401b03811115614c2a578283fd5b614c368782880161437f565b9598909750949560400135949350505050565b60008060408385031215614c5b578182fd5b50508035926020909101359150565b600081518084526020808501808196508360051b81019150828601855b85811015614cb1578284038952614c9f848351614ce7565b98850198935090840190600101614c87565b5091979650505050505050565b81835281816020850137506000828201602090810191909152601f909101601f19169091010190565b60008151808452614cff81602086016020860161529c565b601f01601f19169290920160200192915050565b60008251614d2581846020870161529c565b9190910192915050565b60008451614d4181846020890161529c565b60609490941b6bffffffffffffffffffffffff191691909301908152601481019190915260340192915050565b60008351614d8081846020880161529c565b601760f91b9083019081528351614d9e81600184016020880161529c565b01600101949350505050565b8183823760009101908152919050565b60008351614dcc81846020880161529c565b835190830190614de081836020880161529c565b01949350505050565b6001600160a01b03848116825283166020820152606060408201819052600090610c2290830184614ce7565b6001600160a01b03858116825284166020820152604081018390526080606082018190526000906137a790830184614ce7565b602081526000610e9a6020830184614c6a565b604081526000614e6e6040830185614c6a565b8281036020840152610e968185614c6a565b6020808252810182905260006001600160fb1b03831115614e9f578081fd5b8260051b808560408501379190910160400190815292915050565b828152604060208201526000610d8e6040830184614ce7565b602081526000610d8e602083018486614cbe565b602081526000610e9a6020830184614ce7565b604081526000614f0d6040830185614ce7565b8281036020840152610e968185614ce7565b60208082526029908201527f52656769737472793a2053454e4445525f49535f4e4f545f415050524f5645446040820152682fa7a92fa7aba722a960b91b606082015260800190565b60208082526032908201527f4552433732313a207472616e7366657220746f206e6f6e20455243373231526560408201527131b2b4bb32b91034b6b83632b6b2b73a32b960711b606082015260800190565b60208082526027908201527f52656769737472793a2053454e4445525f49535f4e4f545f4d494e54494e475f60408201526626a0a720a3a2a960c91b606082015260800190565b60208082526017908201527f52656769737472793a20544f4b454e5f494e56414c4944000000000000000000604082015260600190565b6020808252602b908201527f496e697469616c697a61626c653a20636f6e7472616374206973206e6f74206960408201526a6e697469616c697a696e6760a81b606082015260800190565b60208082526022908201527f52656769737472793a20494e53554646494349454e545f5045524d495353494f6040820152614e5360f01b606082015260800190565b6000808335601e198436030181126150db578283fd5b8301803591506001600160401b038211156150f4578283fd5b60200191503681900382131561412b57600080fd5b604051601f8201601f191681016001600160401b03811182821017156151315761513161536f565b604052919050565b60006001600160401b038211156151525761515261536f565b5060051b60200190565b6000821982111561516f5761516f615343565b500190565b60008261518357615183615359565b500490565b60008282101561519a5761519a615343565b500390565b60006151ad61491f84615139565b808482526020808301925084368760051b870111156151ca578485fd5b845b878110156152085781356001600160401b038111156151e9578687fd5b6151f536828a016143be565b86525093820193908201906001016151cc565b50919695505050505050565b600060808236031215615225578081fd5b604051608081016001600160401b0382821081831117156152485761524861536f565b816040528435915061525982615385565b81835260208501356020840152604085013560408401526060850135915080821115615283578384fd5b50615290368286016143be565b60608301525092915050565b60005b838110156152b757818101518382015260200161529f565b838111156118a85750506000910152565b6000816152d7576152d7615343565b506000190190565b600181811c908216806152f357607f821691505b602082108114156117ba57634e487b7160e01b600052602260045260246000fd5b600060001982141561532857615328615343565b5060010190565b60008261533e5761533e615359565b500690565b634e487b7160e01b600052601160045260246000fd5b634e487b7160e01b600052601260045260246000fd5b634e487b7160e01b600052604160045260246000fd5b6001600160a01b038116811461108357600080fd5b6001600160e01b03198116811461108357600080fdfebe2bb46ac0377341a1ec5c3116d70fd5029d704bd46292e58f6265dd177ebafea164736f6c6343000804000a",
  "linkReferences": {},
  "deployedLinkReferences": {}
}