{
  "_format": "hh-sol-artifact-1",
  "contractName": "UNSRegistry",
  "sourceName": "contracts/UNSRegistry.sol",
  "abi": [
    {
      "anonymous": false,
      "inputs": [
        {
          "indexed": false,
          "internalType": "address",
          "name": "previousAdmin",
          "type": "address"
        },
        {
          "indexed": false,
          "internalType": "address",
          "name": "newAdmin",
          "type": "address"
        }
      ],
      "name": "AdminChanged",
      "type": "event"
    },
    {
      "anonymous": false,
      "inputs": [
        {
          "indexed": true,
          "internalType": "address",
          "name": "owner",
          "type": "address"
        },
        {
          "indexed": true,
          "internalType": "address",
          "name": "approved",
          "type": "address"
        },
        {
          "indexed": true,
          "internalType": "uint256",
          "name": "tokenId",
          "type": "uint256"
        }
      ],
      "name": "Approval",
      "type": "event"
    },
    {
      "anonymous": false,
      "inputs": [
        {
          "indexed": true,
          "internalType": "address",
          "name": "owner",
          "type": "address"
        },
        {
          "indexed": true,
          "internalType": "address",
          "name": "operator",
          "type": "address"
        },
        {
          "indexed": false,
          "internalType": "bool",
          "name": "approved",
          "type": "bool"
        }
      ],
      "name": "ApprovalForAll",
      "type": "event"
    },
    {
      "anonymous": false,
      "inputs": [
        {
          "indexed": true,
          "internalType": "uint256",
          "name": "tokenId",
          "type": "uint256"
        },
        {
          "indexed": true,
          "internalType": "string",
          "name": "keyIndex",
          "type": "string"
        },
        {
          "indexed": false,
          "internalType": "string",
          "name": "key",
          "type": "string"
        }
      ],
      "name": "NewKey",
      "type": "event"
    },
    {
      "anonymous": false,
      "inputs": [
        {
          "indexed": true,
          "internalType": "uint256",
          "name": "tokenId",
          "type": "uint256"
        },
        {
          "indexed": false,
          "internalType": "string",
          "name": "uri",
          "type": "string"
        }
      ],
      "name": "NewURI",
      "type": "event"
    },
    {
      "anonymous": false,
      "inputs": [
        {
          "indexed": false,
          "internalType": "string",
          "name": "prefix",
          "type": "string"
        }
      ],
      "name": "NewURIPrefix",
      "type": "event"
    },
    {
      "anonymous": false,
      "inputs": [
        {
          "indexed": true,
          "internalType": "uint256",
          "name": "tokenId",
          "type": "uint256"
        }
      ],
      "name": "ResetRecords",
      "type": "event"
    },
    {
      "anonymous": false,
      "inputs": [
        {
          "indexed": true,
          "internalType": "uint256",
          "name": "tokenId",
          "type": "uint256"
        },
        {
          "indexed": true,
          "internalType": "string",
          "name": "keyIndex",
          "type": "string"
        },
        {
          "indexed": true,
          "internalType": "string",
          "name": "valueIndex",
          "type": "string"
        },
        {
          "indexed": false,
          "internalType": "string",
          "name": "key",
          "type": "string"
        },
        {
          "indexed": false,
          "internalType": "string",
          "name": "value",
          "type": "string"
        }
      ],
      "name": "Set",
      "type": "event"
    },
    {
      "anonymous": false,
      "inputs": [
        {
          "indexed": true,
          "internalType": "address",
          "name": "from",
          "type": "address"
        },
        {
          "indexed": true,
          "internalType": "address",
          "name": "to",
          "type": "address"
        },
        {
          "indexed": true,
          "internalType": "uint256",
          "name": "tokenId",
          "type": "uint256"
        }
      ],
      "name": "Transfer",
      "type": "event"
    },
    {
      "anonymous": false,
      "inputs": [
        {
          "indexed": true,
          "internalType": "address",
          "name": "implementation",
          "type": "address"
        }
      ],
      "name": "Upgraded",
      "type": "event"
    },
    {
      "inputs": [],
      "name": "NAME",
      "outputs": [
        {
          "internalType": "string",
          "name": "",
          "type": "string"
        }
      ],
      "stateMutability": "view",
      "type": "function"
    },
    {
      "inputs": [],
      "name": "VERSION",
      "outputs": [
        {
          "internalType": "string",
          "name": "",
          "type": "string"
        }
      ],
      "stateMutability": "view",
      "type": "function"
    },
    {
      "inputs": [
        {
          "internalType": "string",
          "name": "key",
          "type": "string"
        }
      ],
      "name": "addKey",
      "outputs": [],
      "stateMutability": "nonpayable",
      "type": "function"
    },
    {
      "inputs": [
        {
          "internalType": "address",
          "name": "to",
          "type": "address"
        },
        {
          "internalType": "uint256",
          "name": "tokenId",
          "type": "uint256"
        }
      ],
      "name": "approve",
      "outputs": [],
      "stateMutability": "nonpayable",
      "type": "function"
    },
    {
      "inputs": [
        {
          "internalType": "address",
          "name": "owner",
          "type": "address"
        }
      ],
      "name": "balanceOf",
      "outputs": [
        {
          "internalType": "uint256",
          "name": "",
          "type": "uint256"
        }
      ],
      "stateMutability": "view",
      "type": "function"
    },
    {
      "inputs": [
        {
          "internalType": "uint256",
          "name": "tokenId",
          "type": "uint256"
        }
      ],
      "name": "burn",
      "outputs": [],
      "stateMutability": "nonpayable",
      "type": "function"
    },
    {
      "inputs": [
        {
          "internalType": "uint256",
          "name": "tokenId",
          "type": "uint256"
        },
        {
          "internalType": "bytes",
          "name": "signature",
          "type": "bytes"
        }
      ],
      "name": "burnFor",
      "outputs": [],
      "stateMutability": "nonpayable",
      "type": "function"
    },
    {
      "inputs": [
        {
          "internalType": "uint256",
          "name": "tokenId",
          "type": "uint256"
        },
        {
          "internalType": "string",
          "name": "label",
          "type": "string"
        }
      ],
      "name": "childIdOf",
      "outputs": [
        {
          "internalType": "uint256",
          "name": "",
          "type": "uint256"
        }
      ],
      "stateMutability": "pure",
      "type": "function"
    },
    {
      "inputs": [
        {
          "internalType": "uint256",
          "name": "tokenId",
          "type": "uint256"
        }
      ],
      "name": "depositToPolygon",
      "outputs": [],
      "stateMutability": "nonpayable",
      "type": "function"
    },
    {
      "inputs": [
        {
          "components": [
            {
              "internalType": "address",
              "name": "from",
              "type": "address"
            },
            {
              "internalType": "uint256",
              "name": "nonce",
              "type": "uint256"
            },
            {
              "internalType": "uint256",
              "name": "tokenId",
              "type": "uint256"
            },
            {
              "internalType": "bytes",
              "name": "data",
              "type": "bytes"
            }
          ],
          "internalType": "struct IForwarder.ForwardRequest",
          "name": "req",
          "type": "tuple"
        },
        {
          "internalType": "bytes",
          "name": "signature",
          "type": "bytes"
        }
      ],
      "name": "execute",
      "outputs": [
        {
          "internalType": "bytes",
          "name": "",
          "type": "bytes"
        }
      ],
      "stateMutability": "nonpayable",
      "type": "function"
    },
    {
      "inputs": [
        {
          "internalType": "uint256",
          "name": "tokenId",
          "type": "uint256"
        }
      ],
      "name": "exists",
      "outputs": [
        {
          "internalType": "bool",
          "name": "",
          "type": "bool"
        }
      ],
      "stateMutability": "view",
      "type": "function"
    },
    {
      "inputs": [
        {
          "internalType": "string",
          "name": "key",
          "type": "string"
        },
        {
          "internalType": "uint256",
          "name": "tokenId",
          "type": "uint256"
        }
      ],
      "name": "get",
      "outputs": [
        {
          "internalType": "string",
          "name": "value",
          "type": "string"
        }
      ],
      "stateMutability": "view",
      "type": "function"
    },
    {
      "inputs": [
        {
          "internalType": "uint256",
          "name": "tokenId",
          "type": "uint256"
        }
      ],
      "name": "getApproved",
      "outputs": [
        {
          "internalType": "address",
          "name": "",
          "type": "address"
        }
      ],
      "stateMutability": "view",
      "type": "function"
    },
    {
      "inputs": [
        {
          "internalType": "uint256",
          "name": "keyHash",
          "type": "uint256"
        },
        {
          "internalType": "uint256",
          "name": "tokenId",
          "type": "uint256"
        }
      ],
      "name": "getByHash",
      "outputs": [
        {
          "internalType": "string",
          "name": "key",
          "type": "string"
        },
        {
          "internalType": "string",
          "name": "value",
          "type": "string"
        }
      ],
      "stateMutability": "view",
      "type": "function"
    },
    {
      "inputs": [
        {
          "internalType": "uint256",
          "name": "keyHash",
          "type": "uint256"
        }
      ],
      "name": "getKey",
      "outputs": [
        {
          "internalType": "string",
          "name": "",
          "type": "string"
        }
      ],
      "stateMutability": "view",
      "type": "function"
    },
    {
      "inputs": [
        {
          "internalType": "uint256[]",
          "name": "hashes",
          "type": "uint256[]"
        }
      ],
      "name": "getKeys",
      "outputs": [
        {
          "internalType": "string[]",
          "name": "values",
          "type": "string[]"
        }
      ],
      "stateMutability": "view",
      "type": "function"
    },
    {
      "inputs": [
        {
          "internalType": "string[]",
          "name": "keys",
          "type": "string[]"
        },
        {
          "internalType": "uint256",
          "name": "tokenId",
          "type": "uint256"
        }
      ],
      "name": "getMany",
      "outputs": [
        {
          "internalType": "string[]",
          "name": "values",
          "type": "string[]"
        }
      ],
      "stateMutability": "view",
      "type": "function"
    },
    {
      "inputs": [
        {
          "internalType": "uint256[]",
          "name": "keyHashes",
          "type": "uint256[]"
        },
        {
          "internalType": "uint256",
          "name": "tokenId",
          "type": "uint256"
        }
      ],
      "name": "getManyByHash",
      "outputs": [
        {
          "internalType": "string[]",
          "name": "keys",
          "type": "string[]"
        },
        {
          "internalType": "string[]",
          "name": "values",
          "type": "string[]"
        }
      ],
      "stateMutability": "view",
      "type": "function"
    },
    {
      "inputs": [
        {
          "internalType": "address",
          "name": "mintingManager",
          "type": "address"
        }
      ],
      "name": "initialize",
      "outputs": [],
      "stateMutability": "nonpayable",
      "type": "function"
    },
    {
      "inputs": [
        {
          "internalType": "address",
          "name": "owner",
          "type": "address"
        },
        {
          "internalType": "address",
          "name": "operator",
          "type": "address"
        }
      ],
      "name": "isApprovedForAll",
      "outputs": [
        {
          "internalType": "bool",
          "name": "",
          "type": "bool"
        }
      ],
      "stateMutability": "view",
      "type": "function"
    },
    {
      "inputs": [
        {
          "internalType": "address",
          "name": "spender",
          "type": "address"
        },
        {
          "internalType": "uint256",
          "name": "tokenId",
          "type": "uint256"
        }
      ],
      "name": "isApprovedOrOwner",
      "outputs": [
        {
          "internalType": "bool",
          "name": "",
          "type": "bool"
        }
      ],
      "stateMutability": "view",
      "type": "function"
    },
    {
      "inputs": [
        {
          "internalType": "address",
          "name": "forwarder",
          "type": "address"
        }
      ],
      "name": "isTrustedForwarder",
      "outputs": [
        {
          "internalType": "bool",
          "name": "",
          "type": "bool"
        }
      ],
      "stateMutability": "view",
      "type": "function"
    },
    {
      "inputs": [
        {
          "internalType": "address",
          "name": "to",
          "type": "address"
        },
        {
          "internalType": "uint256",
          "name": "tokenId",
          "type": "uint256"
        },
        {
          "internalType": "string",
          "name": "uri",
          "type": "string"
        }
      ],
      "name": "mint",
      "outputs": [],
      "stateMutability": "nonpayable",
      "type": "function"
    },
    {
      "inputs": [
        {
          "internalType": "address",
          "name": "to",
          "type": "address"
        },
        {
          "internalType": "uint256",
          "name": "tokenId",
          "type": "uint256"
        },
        {
          "internalType": "string",
          "name": "uri",
          "type": "string"
        }
      ],
      "name": "mintAndDepositToPolygon",
      "outputs": [],
      "stateMutability": "nonpayable",
      "type": "function"
    },
    {
      "inputs": [
        {
          "internalType": "address",
          "name": "to",
          "type": "address"
        },
        {
          "internalType": "uint256",
          "name": "tokenId",
          "type": "uint256"
        },
        {
          "internalType": "string",
          "name": "uri",
          "type": "string"
        },
        {
          "internalType": "string[]",
          "name": "keys",
          "type": "string[]"
        },
        {
          "internalType": "string[]",
          "name": "values",
          "type": "string[]"
        }
      ],
      "name": "mintWithRecords",
      "outputs": [],
      "stateMutability": "nonpayable",
      "type": "function"
    },
    {
      "inputs": [],
      "name": "name",
      "outputs": [
        {
          "internalType": "string",
          "name": "",
          "type": "string"
        }
      ],
      "stateMutability": "view",
      "type": "function"
    },
    {
      "inputs": [
        {
          "internalType": "uint256",
          "name": "tokenId",
          "type": "uint256"
        }
      ],
      "name": "nonceOf",
      "outputs": [
        {
          "internalType": "uint256",
          "name": "",
          "type": "uint256"
        }
      ],
      "stateMutability": "view",
      "type": "function"
    },
    {
      "inputs": [
        {
          "internalType": "uint256",
          "name": "tokenId",
          "type": "uint256"
        }
      ],
      "name": "ownerOf",
      "outputs": [
        {
          "internalType": "address",
          "name": "",
          "type": "address"
        }
      ],
      "stateMutability": "view",
      "type": "function"
    },
    {
      "inputs": [
        {
          "internalType": "string[]",
          "name": "keys",
          "type": "string[]"
        },
        {
          "internalType": "string[]",
          "name": "values",
          "type": "string[]"
        },
        {
          "internalType": "uint256",
          "name": "tokenId",
          "type": "uint256"
        }
      ],
      "name": "reconfigure",
      "outputs": [],
      "stateMutability": "nonpayable",
      "type": "function"
    },
    {
      "inputs": [
        {
          "internalType": "string[]",
          "name": "keys",
          "type": "string[]"
        },
        {
          "internalType": "string[]",
          "name": "values",
          "type": "string[]"
        },
        {
          "internalType": "uint256",
          "name": "tokenId",
          "type": "uint256"
        },
        {
          "internalType": "bytes",
          "name": "signature",
          "type": "bytes"
        }
      ],
      "name": "reconfigureFor",
      "outputs": [],
      "stateMutability": "nonpayable",
      "type": "function"
    },
    {
      "inputs": [
        {
          "internalType": "uint256",
          "name": "tokenId",
          "type": "uint256"
        }
      ],
      "name": "reset",
      "outputs": [],
      "stateMutability": "nonpayable",
      "type": "function"
    },
    {
      "inputs": [
        {
          "internalType": "uint256",
          "name": "tokenId",
          "type": "uint256"
        },
        {
          "internalType": "bytes",
          "name": "signature",
          "type": "bytes"
        }
      ],
      "name": "resetFor",
      "outputs": [],
      "stateMutability": "nonpayable",
      "type": "function"
    },
    {
      "inputs": [
        {
          "internalType": "uint256",
          "name": "tokenId",
          "type": "uint256"
        }
      ],
      "name": "resolverOf",
      "outputs": [
        {
          "internalType": "address",
          "name": "",
          "type": "address"
        }
      ],
      "stateMutability": "view",
      "type": "function"
    },
    {
      "inputs": [],
      "name": "root",
      "outputs": [
        {
          "internalType": "uint256",
          "name": "",
          "type": "uint256"
        }
      ],
      "stateMutability": "pure",
      "type": "function"
    },
    {
      "inputs": [
        {
          "internalType": "address",
          "name": "to",
          "type": "address"
        },
        {
          "internalType": "uint256",
          "name": "tokenId",
          "type": "uint256"
        },
        {
          "internalType": "string",
          "name": "uri",
          "type": "string"
        },
        {
          "internalType": "bytes",
          "name": "data",
          "type": "bytes"
        }
      ],
      "name": "safeMint",
      "outputs": [],
      "stateMutability": "nonpayable",
      "type": "function"
    },
    {
      "inputs": [
        {
          "internalType": "address",
          "name": "to",
          "type": "address"
        },
        {
          "internalType": "uint256",
          "name": "tokenId",
          "type": "uint256"
        },
        {
          "internalType": "string",
          "name": "uri",
          "type": "string"
        }
      ],
      "name": "safeMint",
      "outputs": [],
      "stateMutability": "nonpayable",
      "type": "function"
    },
    {
      "inputs": [
        {
          "internalType": "address",
          "name": "to",
          "type": "address"
        },
        {
          "internalType": "uint256",
          "name": "tokenId",
          "type": "uint256"
        },
        {
          "internalType": "string",
          "name": "uri",
          "type": "string"
        },
        {
          "internalType": "string[]",
          "name": "keys",
          "type": "string[]"
        },
        {
          "internalType": "string[]",
          "name": "values",
          "type": "string[]"
        }
      ],
      "name": "safeMintWithRecords",
      "outputs": [],
      "stateMutability": "nonpayable",
      "type": "function"
    },
    {
      "inputs": [
        {
          "internalType": "address",
          "name": "to",
          "type": "address"
        },
        {
          "internalType": "uint256",
          "name": "tokenId",
          "type": "uint256"
        },
        {
          "internalType": "string",
          "name": "uri",
          "type": "string"
        },
        {
          "internalType": "string[]",
          "name": "keys",
          "type": "string[]"
        },
        {
          "internalType": "string[]",
          "name": "values",
          "type": "string[]"
        },
        {
          "internalType": "bytes",
          "name": "data",
          "type": "bytes"
        }
      ],
      "name": "safeMintWithRecords",
      "outputs": [],
      "stateMutability": "nonpayable",
      "type": "function"
    },
    {
      "inputs": [
        {
          "internalType": "address",
          "name": "from",
          "type": "address"
        },
        {
          "internalType": "address",
          "name": "to",
          "type": "address"
        },
        {
          "internalType": "uint256",
          "name": "tokenId",
          "type": "uint256"
        }
      ],
      "name": "safeTransferFrom",
      "outputs": [],
      "stateMutability": "nonpayable",
      "type": "function"
    },
    {
      "inputs": [
        {
          "internalType": "address",
          "name": "from",
          "type": "address"
        },
        {
          "internalType": "address",
          "name": "to",
          "type": "address"
        },
        {
          "internalType": "uint256",
          "name": "tokenId",
          "type": "uint256"
        },
        {
          "internalType": "bytes",
          "name": "data",
          "type": "bytes"
        }
      ],
      "name": "safeTransferFrom",
      "outputs": [],
      "stateMutability": "nonpayable",
      "type": "function"
    },
    {
      "inputs": [
        {
          "internalType": "address",
          "name": "from",
          "type": "address"
        },
        {
          "internalType": "address",
          "name": "to",
          "type": "address"
        },
        {
          "internalType": "uint256",
          "name": "tokenId",
          "type": "uint256"
        },
        {
          "internalType": "bytes",
          "name": "data",
          "type": "bytes"
        },
        {
          "internalType": "bytes",
          "name": "signature",
          "type": "bytes"
        }
      ],
      "name": "safeTransferFromFor",
      "outputs": [],
      "stateMutability": "nonpayable",
      "type": "function"
    },
    {
      "inputs": [
        {
          "internalType": "address",
          "name": "from",
          "type": "address"
        },
        {
          "internalType": "address",
          "name": "to",
          "type": "address"
        },
        {
          "internalType": "uint256",
          "name": "tokenId",
          "type": "uint256"
        },
        {
          "internalType": "bytes",
          "name": "signature",
          "type": "bytes"
        }
      ],
      "name": "safeTransferFromFor",
      "outputs": [],
      "stateMutability": "nonpayable",
      "type": "function"
    },
    {
      "inputs": [
        {
          "internalType": "string",
          "name": "key",
          "type": "string"
        },
        {
          "internalType": "string",
          "name": "value",
          "type": "string"
        },
        {
          "internalType": "uint256",
          "name": "tokenId",
          "type": "uint256"
        }
      ],
      "name": "set",
      "outputs": [],
      "stateMutability": "nonpayable",
      "type": "function"
    },
    {
      "inputs": [
        {
          "internalType": "address",
          "name": "operator",
          "type": "address"
        },
        {
          "internalType": "bool",
          "name": "approved",
          "type": "bool"
        }
      ],
      "name": "setApprovalForAll",
      "outputs": [],
      "stateMutability": "nonpayable",
      "type": "function"
    },
    {
      "inputs": [
        {
          "internalType": "uint256",
          "name": "keyHash",
          "type": "uint256"
        },
        {
          "internalType": "string",
          "name": "value",
          "type": "string"
        },
        {
          "internalType": "uint256",
          "name": "tokenId",
          "type": "uint256"
        }
      ],
      "name": "setByHash",
      "outputs": [],
      "stateMutability": "nonpayable",
      "type": "function"
    },
    {
      "inputs": [
        {
          "internalType": "string",
          "name": "key",
          "type": "string"
        },
        {
          "internalType": "string",
          "name": "value",
          "type": "string"
        },
        {
          "internalType": "uint256",
          "name": "tokenId",
          "type": "uint256"
        },
        {
          "internalType": "bytes",
          "name": "signature",
          "type": "bytes"
        }
      ],
      "name": "setFor",
      "outputs": [],
      "stateMutability": "nonpayable",
      "type": "function"
    },
    {
      "inputs": [
        {
          "internalType": "string[]",
          "name": "keys",
          "type": "string[]"
        },
        {
          "internalType": "string[]",
          "name": "values",
          "type": "string[]"
        },
        {
          "internalType": "uint256",
          "name": "tokenId",
          "type": "uint256"
        }
      ],
      "name": "setMany",
      "outputs": [],
      "stateMutability": "nonpayable",
      "type": "function"
    },
    {
      "inputs": [
        {
          "internalType": "uint256[]",
          "name": "keyHashes",
          "type": "uint256[]"
        },
        {
          "internalType": "string[]",
          "name": "values",
          "type": "string[]"
        },
        {
          "internalType": "uint256",
          "name": "tokenId",
          "type": "uint256"
        }
      ],
      "name": "setManyByHash",
      "outputs": [],
      "stateMutability": "nonpayable",
      "type": "function"
    },
    {
      "inputs": [
        {
          "internalType": "string[]",
          "name": "keys",
          "type": "string[]"
        },
        {
          "internalType": "string[]",
          "name": "values",
          "type": "string[]"
        },
        {
          "internalType": "uint256",
          "name": "tokenId",
          "type": "uint256"
        },
        {
          "internalType": "bytes",
          "name": "signature",
          "type": "bytes"
        }
      ],
      "name": "setManyFor",
      "outputs": [],
      "stateMutability": "nonpayable",
      "type": "function"
    },
    {
      "inputs": [
        {
          "internalType": "address",
          "name": "to",
          "type": "address"
        },
        {
          "internalType": "uint256",
          "name": "tokenId",
          "type": "uint256"
        }
      ],
      "name": "setOwner",
      "outputs": [],
      "stateMutability": "nonpayable",
      "type": "function"
    },
    {
      "inputs": [
        {
          "internalType": "address",
          "name": "rootChainManager",
          "type": "address"
        }
      ],
      "name": "setRootChainManager",
      "outputs": [],
      "stateMutability": "nonpayable",
      "type": "function"
    },
    {
      "inputs": [
        {
          "internalType": "string",
          "name": "prefix",
          "type": "string"
        }
      ],
      "name": "setTokenURIPrefix",
      "outputs": [],
      "stateMutability": "nonpayable",
      "type": "function"
    },
    {
      "inputs": [
        {
          "internalType": "bytes4",
          "name": "interfaceId",
          "type": "bytes4"
        }
      ],
      "name": "supportsInterface",
      "outputs": [
        {
          "internalType": "bool",
          "name": "",
          "type": "bool"
        }
      ],
      "stateMutability": "view",
      "type": "function"
    },
    {
      "inputs": [],
      "name": "symbol",
      "outputs": [
        {
          "internalType": "string",
          "name": "",
          "type": "string"
        }
      ],
      "stateMutability": "view",
      "type": "function"
    },
    {
      "inputs": [
        {
          "internalType": "uint256",
          "name": "tokenId",
          "type": "uint256"
        }
      ],
      "name": "tokenURI",
      "outputs": [
        {
          "internalType": "string",
          "name": "",
          "type": "string"
        }
      ],
      "stateMutability": "view",
      "type": "function"
    },
    {
      "inputs": [
        {
          "internalType": "address",
          "name": "from",
          "type": "address"
        },
        {
          "internalType": "address",
          "name": "to",
          "type": "address"
        },
        {
          "internalType": "uint256",
          "name": "tokenId",
          "type": "uint256"
        }
      ],
      "name": "transferFrom",
      "outputs": [],
      "stateMutability": "nonpayable",
      "type": "function"
    },
    {
      "inputs": [
        {
          "internalType": "address",
          "name": "from",
          "type": "address"
        },
        {
          "internalType": "address",
          "name": "to",
          "type": "address"
        },
        {
          "internalType": "uint256",
          "name": "tokenId",
          "type": "uint256"
        },
        {
          "internalType": "bytes",
          "name": "signature",
          "type": "bytes"
        }
      ],
      "name": "transferFromFor",
      "outputs": [],
      "stateMutability": "nonpayable",
      "type": "function"
    },
    {
      "inputs": [
        {
          "components": [
            {
              "internalType": "address",
              "name": "from",
              "type": "address"
            },
            {
              "internalType": "uint256",
              "name": "nonce",
              "type": "uint256"
            },
            {
              "internalType": "uint256",
              "name": "tokenId",
              "type": "uint256"
            },
            {
              "internalType": "bytes",
              "name": "data",
              "type": "bytes"
            }
          ],
          "internalType": "struct IForwarder.ForwardRequest",
          "name": "req",
          "type": "tuple"
        },
        {
          "internalType": "bytes",
          "name": "signature",
          "type": "bytes"
        }
      ],
      "name": "verify",
      "outputs": [
        {
          "internalType": "bool",
          "name": "",
          "type": "bool"
        }
      ],
      "stateMutability": "view",
      "type": "function"
    }
  ],
  "bytecode": "0x608060405234801561001057600080fd5b50614d39806100206000396000f3fe608060405234801561001057600080fd5b506004361061038e5760003560e01c80638f69c188116101de578063bb5b27e11161010f578063e6a0d54f116100ad578063ef2c30881161007c578063ef2c3088146107d1578063efda4d3e146107e4578063f5c1f76e146107f7578063ffa1ad741461080a5761038e565b8063e6a0d54f14610790578063e985e9c5146107a3578063ebf0c717146107b6578063ec129eea146107be5761038e565b8063c87b56dd116100e9578063c87b56dd14610744578063cd279c7c14610757578063ce92b33e1461076a578063d3fc98641461077d5761038e565b8063bb5b27e11461070b578063c4d66de81461071e578063c5974073146107315761038e565b8063ab3b87fe1161017c578063b55bc61711610156578063b55bc617146106b1578063b85afd28146106c4578063b87abc11146106e5578063b88d4fde146106f85761038e565b8063ab3b87fe14610678578063b0f591771461068b578063b3f9e4cb1461069e5761038e565b8063a22cb465116101b8578063a22cb46514610637578063a3557e6c1461064a578063a3f4df7e1461065d578063a4247400146106655761038e565b80638f69c1881461060957806395d89b411461061c57806399e0dd7c146106245761038e565b80634348b562116102c35780636352211e116102615780636ccbae5f116102305780636ccbae5f146105bd5780636debcb8d146105d057806370a08231146105e3578063728a44d8146105f65761038e565b80636352211e14610556578063638e5c7814610569578063672b9f811461057c57806368b62d321461059d5761038e565b80634f558e791161029d5780634f558e791461050a57806350382c1a1461051d578063572b6c051461053057806361603dd9146105435761038e565b80634348b562146104d157806347c81699146104e45780634a72584d146104f75761038e565b806323b872dd11610330578063310bd74b1161030a578063310bd74b1461048557806342842e0e1461049857806342966c68146104ab578063430c2081146104be5761038e565b806323b872dd1461044c57806327f189751461045f578063280d9b05146104725761038e565b8063095ea7b31161036c578063095ea7b3146103f15780631bd8cc1a146104065780631be5e7ed146104265780631bf7e13e146104395761038e565b806301ffc9a71461039357806306fdde03146103bc578063081812fc146103d1575b600080fd5b6103a66103a1366004613d9e565b610812565b6040516103b391906143ea565b60405180910390f35b6103c4610825565b6040516103b39190614413565b6103e46103df366004613fad565b6108b8565b6040516103b391906142a2565b6104046103ff366004613977565b610904565b005b610419610414366004613cfe565b610956565b6040516103b391906143b2565b6103c4610434366004613ec7565b610a76565b6103c4610447366004613f41565b610ac1565b61040461045a366004613792565b610b8c565b61040461046d366004613c0f565b610c18565b610404610480366004613842565b610c99565b610404610493366004613fad565b610d35565b6104046104a6366004613792565b610da9565b6104046104b9366004613fad565b610dc4565b6103a66104cc366004613977565b610e41565b6104046104df3660046139fb565b610e4d565b6104046104f2366004613e09565b610eb2565b610404610505366004614001565b610f2a565b6103a6610518366004613fad565b610fa9565b61040461052b366004613efc565b610fb4565b6103a661053e366004613722565b610fea565b610404610551366004613fc5565b610ffb565b6103e4610564366004613fad565b611084565b610404610577366004613fad565b6110b9565b61058f61058a366004614051565b611108565b6040516103b3929190614461565b6105b06105ab366004613fc5565b611120565b6040516103b3919061428b565b6105b06105cb366004613fad565b611162565b6104046105de3660046137d2565b611175565b6105b06105f1366004613722565b611197565b610404610604366004613722565b6111db565b610404610617366004613c7f565b611278565b6103c461129e565b610404610632366004613dd6565b6112ad565b610404610645366004613946565b611333565b610404610658366004613c7f565b611401565b6103c4611427565b6103a6610673366004613f41565b611450565b610404610686366004613977565b61149b565b6104046106993660046139fb565b61151f565b6103e46106ac366004613fad565b6115a8565b6104046106bf366004613b87565b6115c5565b6106d76106d2366004613cfe565b611675565b6040516103b39291906143c5565b6104046106f3366004613fc5565b6117dd565b6104046107063660046138dd565b6117fb565b6103c4610719366004613fad565b61187b565b61040461072c366004613722565b61191d565b61040461073f366004613e67565b611a0a565b6103c4610752366004613fad565b611a30565b6104046107653660046139a2565b611ab2565b610404610778366004613c0f565b611b3c565b61040461078b3660046139a2565b611bb4565b61040461079e3660046139a2565b611c30565b6103a66107b136600461375a565b611cb6565b6105b0611ce4565b6104046107cc366004613c0f565b611ce9565b6104046107df3660046137d2565b611d61565b6104046107f2366004613aac565b611d83565b610419610805366004613d47565b611e11565b6103c4611eee565b600061081d82611f0f565b90505b919050565b60606065805461083490614c55565b80601f016020809104026020016040519081016040528092919081815260200182805461086090614c55565b80156108ad5780601f10610882576101008083540402835291602001916108ad565b820191906000526020600020905b81548152906001019060200180831161089057829003601f168201915b505050505090505b90565b60006108c382611f4f565b6108e85760405162461bcd60e51b81526004016108df90614939565b60405180910390fd5b506000908152606960205260409020546001600160a01b031690565b8061090e33610fea565b1561093e5761091b611f6c565b81146109395760405162461bcd60e51b81526004016108df9061474d565b610947565b61094781611f86565b6109518383611fb4565b505050565b6060826001600160401b0381111561097e57634e487b7160e01b600052604160045260246000fd5b6040519080825280602002602001820160405280156109b157816020015b606081526020019060019003908161099c5790505b50905060005b83811015610a6e57610a308585838181106109e257634e487b7160e01b600052603260045260246000fd5b90506020028101906109f49190614b1a565b8080601f016020809104026020016040519081016040528093929190818152602001838380828437600092019190915250879250612047915050565b828281518110610a5057634e487b7160e01b600052603260045260246000fd5b60200260200101819052508080610a6690614c90565b9150506109b7565b509392505050565b6060610ab984848080601f016020809104026020016040519081016040528093929190818152602001838380828437600092019190915250869250612047915050565b949350505050565b606060005a9050610ad3858585611450565b610aef5760405162461bcd60e51b81526004016108df90614a63565b610b81610aff6020870187613722565b30604088013584610b1360608b018b614b1a565b8080601f01602080910402602001604051908101604052809392919081815260200183838082843760009201919091525050604080516020601f8e018190048102820181019092528c815292508c91508b908190840183828082843760009201919091525061207c92505050565b9150505b9392505050565b80610b9e610b9861216b565b8261217a565b610bba5760405162461bcd60e51b81526004016108df906144f4565b81610bc433610fea565b15610bf457610bd1611f6c565b8114610bef5760405162461bcd60e51b81526004016108df9061474d565b610bfd565b610bfd81611f86565b610c06836121f7565b610c11858585612262565b5050505050565b80610c24610b9861216b565b610c405760405162461bcd60e51b81526004016108df906144f4565b81610c4a33610fea565b15610c7a57610c57611f6c565b8114610c755760405162461bcd60e51b81526004016108df9061474d565b610c83565b610c8381611f86565b610c90878787878761238f565b50505050505050565b60005a9050610d2a63b88d4fde8989898989604051602401610cbf959493929190614306565b6040516020818303038152906040529060e01b6020820180516001600160e01b0383818316178352505050508785858080601f01602080910402602001604051908101604052809392919081815260200183838082843760009201919091525087925061240e915050565b505050505050505050565b80610d41610b9861216b565b610d5d5760405162461bcd60e51b81526004016108df906144f4565b81610d6733610fea565b15610d9757610d74611f6c565b8114610d925760405162461bcd60e51b81526004016108df9061474d565b610da0565b610da081611f86565b610951836121f7565b610951838383604051806020016040528060008152506117fb565b80610dd0610b9861216b565b610dec5760405162461bcd60e51b81526004016108df906144f4565b81610df633610fea565b15610e2657610e03611f6c565b8114610e215760405162461bcd60e51b81526004016108df9061474d565b610e2f565b610e2f81611f86565b610e38836121f7565b61095183612453565b6000610b85838361217a565b610134546001600160a01b0316610e6261216b565b6001600160a01b031614610e885760405162461bcd60e51b81526004016108df906146ba565b610ea88888888888888888604051806020016040528060008152506124fa565b5050505050505050565b80610ebe610b9861216b565b610eda5760405162461bcd60e51b81526004016108df906144f4565b81610ee433610fea565b15610f1457610ef1611f6c565b8114610f0f5760405162461bcd60e51b81526004016108df9061474d565b610f1d565b610f1d81611f86565b610c90878787878761254a565b80610f36610b9861216b565b610f525760405162461bcd60e51b81526004016108df906144f4565b81610f5c33610fea565b15610f8c57610f69611f6c565b8114610f875760405162461bcd60e51b81526004016108df9061474d565b610f95565b610f9581611f86565b610fa186868686612629565b505050505050565b600061081d82611f4f565b610fe781604051602001610fc891906141c0565b6040516020818303038152906040528051906020012060001c82612699565b50565b6001600160a01b0381163014919050565b60005a9050610c116342966c6885604051602401611019919061428b565b6040516020818303038152906040529060e01b6020820180516001600160e01b0383818316178352505050508585858080601f01602080910402602001604051908101604052809392919081815260200183838082843760009201919091525087925061240e915050565b6000818152606760205260408120546001600160a01b03168061081d5760405162461bcd60e51b81526004016108df9061482b565b806110c5610b9861216b565b6110e15760405162461bcd60e51b81526004016108df906144f4565b6110f36110ec61216b565b3084612262565b6111046110fe61216b565b836126c5565b5050565b606080611115848461287d565b909590945092505050565b6000610ab98484848080601f01602080910402602001604051908101604052809392919081815260200183838082843760009201919091525061289e92505050565b6000908152610100602052604090205490565b60005a9050610c906342842e0e878787604051602401611019939291906142e2565b60006001600160a01b0382166111bf5760405162461bcd60e51b81526004016108df906147e1565b506001600160a01b031660009081526068602052604090205490565b60006112067fbe2bb46ac0377341a1ec5c3116d70fd5029d704bd46292e58f6265dd177ebafe6108b5565b546001600160a01b03161461122d5760405162461bcd60e51b81526004016108df90614985565b806112577fbe2bb46ac0377341a1ec5c3116d70fd5029d704bd46292e58f6265dd177ebafe6108b5565b80546001600160a01b0319166001600160a01b039290921691909117905550565b60005a9050610d2a63ce92b33e8989898989604051602401611019959493929190614378565b60606066805461083490614c55565b610134546001600160a01b03166112c261216b565b6001600160a01b0316146112e85760405162461bcd60e51b81526004016108df906146ba565b6112f561013383836134f9565b507f4b120d6a959a84a520fa48f5f937cca0e79129423487af7901213b5d2e89313b8282604051611327929190614426565b60405180910390a15050565b61133b61216b565b6001600160a01b0316826001600160a01b0316141561136c5760405162461bcd60e51b81526004016108df90614641565b80606a600061137961216b565b6001600160a01b03908116825260208083019390935260409182016000908120918716808252919093529120805460ff1916921515929092179091556113bd61216b565b6001600160a01b03167f17307eab39ab6107e8899845ad3d59bd9653f200f220920489ca2b5937696c31836040516113f591906143ea565b60405180910390a35050565b60005a9050610d2a63ec129eea8989898989604051602401611019959493929190614378565b6040518060400160405280600d81526020016c554e533a20526567697374727960981b81525081565b6000610ab961145e85614ba1565b3085858080601f01602080910402602001604051908101604052809392919081815260200183838082843760009201919091525061291a92505050565b806114a7610b9861216b565b6114c35760405162461bcd60e51b81526004016108df906144f4565b816114cd33610fea565b156114fd576114da611f6c565b81146114f85760405162461bcd60e51b81526004016108df9061474d565b611506565b61150681611f86565b61151961151284611084565b8585612262565b50505050565b610134546001600160a01b031661153461216b565b6001600160a01b03161461155a5760405162461bcd60e51b81526004016108df906146ba565b61159b888888888080601f0160208091040260200160405190810160405280939291908181526020018383808284376000920191909152506129db92505050565b610ea8848484848b612a22565b60006115b382611f4f565b6115be57600061081d565b5030919050565b610134546001600160a01b03166115da61216b565b6001600160a01b0316146116005760405162461bcd60e51b81526004016108df906146ba565b610fa1868686868080601f01602080910402602001604051908101604052809392919081815260200183838082843760009201919091525050604080516020601f8a018190048102820181019092528881529250889150879081908401838280828437600092019190915250612aac92505050565b606080836001600160401b0381111561169e57634e487b7160e01b600052604160045260246000fd5b6040519080825280602002602001820160405280156116d157816020015b60608152602001906001900390816116bc5790505b509150836001600160401b038111156116fa57634e487b7160e01b600052604160045260246000fd5b60405190808252806020026020018201604052801561172d57816020015b60608152602001906001900390816117185790505b50905060005b848110156117d45761176b86868381811061175e57634e487b7160e01b600052603260045260246000fd5b905060200201358561287d565b84838151811061178b57634e487b7160e01b600052603260045260246000fd5b602002602001018484815181106117b257634e487b7160e01b600052603260045260246000fd5b60200260200101829052829052505080806117cc90614c90565b915050611733565b50935093915050565b60005a9050610c1163310bd74b85604051602401611019919061428b565b81611807610b9861216b565b6118235760405162461bcd60e51b81526004016108df906144f4565b8261182d33610fea565b1561185d5761183a611f6c565b81146118585760405162461bcd60e51b81526004016108df9061474d565b611866565b61186681611f86565b61186f846121f7565b610fa186868686612af5565b600081815260c96020526040902080546060919061189890614c55565b80601f01602080910402602001604051908101604052809291908181526020018280546118c490614c55565b80156119115780601f106118e657610100808354040283529160200191611911565b820191906000526020600020905b8154815290600101906020018083116118f457829003601f168201915b50505050509050919050565b600054610100900460ff1680611936575060005460ff16155b6119525760405162461bcd60e51b81526004016108df90614874565b600054610100900460ff1615801561197d576000805460ff1961ff0019909116610100171660011790555b61013480546001600160a01b0319166001600160a01b0384161790556040805180820182526013815272556e73746f707061626c6520446f6d61696e7360681b60208083019190915282518084019093526002835261155160f21b908301526119e591612b28565b6119ed612bc6565b6119f5612bc6565b8015611104576000805461ff00191690555050565b60005a9050610d2a6347c81699898989898960405160240161101995949392919061443a565b6060611a3b82611f4f565b611a575760405162461bcd60e51b81526004016108df90614a14565b6000611a61612c3a565b90506000815111611a815760405180602001604052806000815250610b85565b80611a8b84612c4a565b604051602001611a9c92919061422b565b6040516020818303038152906040529392505050565b610134546001600160a01b0316611ac761216b565b6001600160a01b031614611aed5760405162461bcd60e51b81526004016108df906146ba565b611519848484848080601f016020809104026020016040519081016040528093929190818152602001838380828437600092018290525060408051602081019091529081529250612aac915050565b80611b48610b9861216b565b611b645760405162461bcd60e51b81526004016108df906144f4565b81611b6e33610fea565b15611b9e57611b7b611f6c565b8114611b995760405162461bcd60e51b81526004016108df9061474d565b611ba7565b611ba781611f86565b610c908787878787612a22565b610134546001600160a01b0316611bc961216b565b6001600160a01b031614611bef5760405162461bcd60e51b81526004016108df906146ba565b611519848484848080601f0160208091040260200160405190810160405280939291908181526020018383808284376000920191909152506129db92505050565b610134546001600160a01b0316611c4561216b565b6001600160a01b031614611c6b5760405162461bcd60e51b81526004016108df906146ba565b611cac308484848080601f0160208091040260200160405190810160405280939291908181526020018383808284376000920191909152506129db92505050565b61151984846126c5565b6001600160a01b039182166000908152606a6020908152604080832093909416825291909152205460ff1690565b600090565b80611cf5610b9861216b565b611d115760405162461bcd60e51b81526004016108df906144f4565b81611d1b33610fea565b15611d4b57611d28611f6c565b8114611d465760405162461bcd60e51b81526004016108df9061474d565b611d54565b611d5481611f86565b610c908787878787612d64565b60005a9050610c906323b872dd878787604051602401611019939291906142e2565b610134546001600160a01b0316611d9861216b565b6001600160a01b031614611dbe5760405162461bcd60e51b81526004016108df906146ba565b611e058a8a8a8a8a8a8a8a8a8a8080601f0160208091040260200160405190810160405280939291908181526020018383808284376000920191909152506124fa92505050565b50505050505050505050565b6060816001600160401b03811115611e3957634e487b7160e01b600052604160045260246000fd5b604051908082528060200260200182016040528015611e6c57816020015b6060815260200190600190039081611e575790505b50905060005b82811015611ee757611ea9848483818110611e9d57634e487b7160e01b600052603260045260246000fd5b9050602002013561187b565b828281518110611ec957634e487b7160e01b600052603260045260246000fd5b60200260200101819052508080611edf90614c90565b915050611e72565b5092915050565b604051806040016040528060058152602001640302e322e360dc1b81525081565b60006001600160e01b031982166380ac58cd60e01b1480611f4057506001600160e01b03198216635b5e139f60e01b145b8061081d575061081d82612d7a565b6000908152606760205260409020546001600160a01b0316151590565b6000611f7733610fea565b156108b55750601f1936013590565b60008181526101006020526040902054611fa1906001614b5e565b6000918252610100602052604090912055565b6000611fbf82611084565b9050806001600160a01b0316836001600160a01b03161415611ff35760405162461bcd60e51b81526004016108df90614aaa565b806001600160a01b031661200561216b565b6001600160a01b031614806120215750612021816107b161216b565b61203d5760405162461bcd60e51b81526004016108df90614784565b6109518383612d93565b6060610b858360405160200161205d91906141c0565b6040516020818303038152906040528051906020012060001c83612e01565b606061208785611f86565b600080876001600160a01b0316866120a18b8a8989612ec0565b6040516120ae91906141c0565b60006040518083038160008787f1925050503d80600081146120ec576040519150601f19603f3d011682016040523d82523d6000602084013e6120f1565b606091505b509092509050612102603f87614b76565b5a1161211e57634e487b7160e01b600052600160045260246000fd5b61215e82826040518060400160405280601a81526020017f42617365466f727761726465723a2043414c4c5f4641494c4544000000000000815250612ef0565b9998505050505050505050565b6000612175612f29565b905090565b600061218582611f4f565b6121a15760405162461bcd60e51b81526004016108df90614701565b60006121ac83611084565b9050806001600160a01b0316846001600160a01b031614806121e75750836001600160a01b03166121dc846108b8565b6001600160a01b0316145b80610ab95750610ab98185611cb6565b61220081612f57565b604051602001612210919061428b565b60408051601f198184030181528282528051602091820120600085815260cb9092529181209190915582917f185c30856dadb58bf097c1f665a52ada7029752dbcad008ea3fefc73bee8c9fe9190a250565b826001600160a01b031661227582611084565b6001600160a01b03161461229b5760405162461bcd60e51b81526004016108df906149cb565b6001600160a01b0382166122c15760405162461bcd60e51b81526004016108df906145fd565b6122cc838383610951565b6122d7600082612d93565b6001600160a01b0383166000908152606860205260408120805460019290612300908490614b8a565b90915550506001600160a01b038216600090815260686020526040812080546001929061232e908490614b5e565b909155505060008181526067602052604080822080546001600160a01b0319166001600160a01b0386811691821790925591518493918716917fddf252ad1be2c89b69c2b068fc378daa952ba7f163c4a11628f55a4df523b3ef91a4505050565b60005b84811015610fa1576123fc8686838181106123bd57634e487b7160e01b600052603260045260246000fd5b905060200201358585848181106123e457634e487b7160e01b600052603260045260246000fd5b90506020028101906123f69190614b1a565b85612629565b8061240681614c90565b915050612392565b6060600061243986805190602001203061010060008981526020019081526020016000205487612f83565b9050612449813087868a8961207c565b9695505050505050565b600061245e82611084565b905061246c81600084610951565b612477600083612d93565b6001600160a01b03811660009081526068602052604081208054600192906124a0908490614b8a565b909155505060008281526067602052604080822080546001600160a01b0319169055518391906001600160a01b038416907fddf252ad1be2c89b69c2b068fc378daa952ba7f163c4a11628f55a4df523b3ef908390a45050565b61253d898989898080601f016020809104026020016040519081016040528093929190818152602001838380828437600092019190915250879250612aac915050565b610d2a858585858c612a22565b6000858560405160200161255f92919061421b565b60408051601f198184030181528282528051602091820120601f89018290048202840182019092528783529092506125b3918391899089908190840183828082843760009201919091525061269992505050565b610fa18187878080601f01602080910402602001604051908101604052809392919081815260200183838082843760009201919091525050604080516020601f8b018190048102820181019092528981529250899150889081908401838280828437600092019190915250889250612fcb915050565b61263284613106565b61264e5760405162461bcd60e51b81526004016108df9061458f565b6115198461265b8661187b565b85858080601f016020809104026020016040519081016040528093929190818152602001838380828437600092019190915250879250612fcb915050565b6126a282613106565b61110457600082815260c960209081526040909120825161095192840190613579565b60006126f07fbe2bb46ac0377341a1ec5c3116d70fd5029d704bd46292e58f6265dd177ebafe6108b5565b5460405163721804d360e11b81526001600160a01b039091169150600090829063e43009a6906127249030906004016142a2565b60206040518083038186803b15801561273c57600080fd5b505afa158015612750573d6000803e3d6000fd5b505050506040513d601f19601f820116820180604052508101906127749190613d86565b90506000826001600160a01b031663e66f9603836040518263ffffffff1660e01b81526004016127a4919061428b565b60206040518083038186803b1580156127bc57600080fd5b505afa1580156127d0573d6000803e3d6000fd5b505050506040513d601f19601f820116820180604052508101906127f4919061373e565b90506128008185612d93565b826001600160a01b031663e3dec8fb863087604051602001612822919061428b565b6040516020818303038152906040526040518463ffffffff1660e01b815260040161284f939291906142b6565b600060405180830381600087803b15801561286957600080fd5b505af1158015610d2a573d6000803e3d6000fd5b6060806128898461187b565b91506128958484612e01565b90509250929050565b60008151600014156128c25760405162461bcd60e51b81526004016108df90614aeb565b82826040516020016128d491906141c0565b604051602081830303815290604052805190602001206040516020016128fb929190614294565b60408051601f1981840301815291905280516020909101209392505050565b6040808401519051636ccbae5f60e01b815260009182913091636ccbae5f91612946919060040161428b565b60206040518083038186803b15801561295e57600080fd5b505afa158015612972573d6000803e3d6000fd5b505050506040513d601f19601f820116820180604052508101906129969190613d86565b905060006129b1866060015180519060200120868487612f83565b9050856020015182148015612449575085516001600160a01b038281169116149695505050505050565b6129e5838361312c565b817fc5beef08f693b11c316c0c8394a377a0033c9cf701b8cd8afd79cecef60c395282604051612a159190614413565b60405180910390a2505050565b60005b84811015610fa157612a9a868683818110612a5057634e487b7160e01b600052603260045260246000fd5b9050602002810190612a629190614b1a565b868685818110612a8257634e487b7160e01b600052603260045260246000fd5b9050602002810190612a949190614b1a565b8661254a565b80612aa481614c90565b915050612a25565b612ab784848361320b565b827fc5beef08f693b11c316c0c8394a377a0033c9cf701b8cd8afd79cecef60c395283604051612ae79190614413565b60405180910390a250505050565b612b00848484612262565b612b0c8484848461323e565b6115195760405162461bcd60e51b81526004016108df9061453d565b600054610100900460ff1680612b41575060005460ff16155b612b5d5760405162461bcd60e51b81526004016108df90614874565b600054610100900460ff16158015612b88576000805460ff1961ff0019909116610100171660011790555b8251612b9b906065906020860190613579565b508151612baf906066906020850190613579565b508015610951576000805461ff0019169055505050565b600054610100900460ff1680612bdf575060005460ff16155b612bfb5760405162461bcd60e51b81526004016108df90614874565b600054610100900460ff16158015612c26576000805460ff1961ff0019909116610100171660011790555b8015610fe7576000805461ff001916905550565b6060610133805461083490614c55565b606081612c6f57506040805180820190915260018152600360fc1b6020820152610820565b8160005b8115612c995780612c8381614c90565b9150612c929050600a83614b76565b9150612c73565b6000816001600160401b03811115612cc157634e487b7160e01b600052604160045260246000fd5b6040519080825280601f01601f191660200182016040528015612ceb576020820181803683370190505b5090505b8415610ab957612d00600183614b8a565b9150612d0d600a86614cab565b612d18906030614b5e565b60f81b818381518110612d3b57634e487b7160e01b600052603260045260246000fd5b60200101906001600160f81b031916908160001a905350612d5d600a86614b76565b9450612cef565b612d6d816121f7565b610c118585858585612a22565b6001600160e01b031981166301ffc9a760e01b14919050565b600081815260696020526040902080546001600160a01b0319166001600160a01b0384169081179091558190612dc882611084565b6001600160a01b03167f8c5be1e5ebec7d5bd14f71427d1e84f3dd0314c0f7b2291e5b200ac8c7c3b92560405160405180910390a45050565b606060ca6000612e1084612f57565b815260200190815260200160002060008481526020019081526020016000208054612e3a90614c55565b80601f0160208091040260200160405190810160405280929190818152602001828054612e6690614c55565b8015612eb35780601f10612e8857610100808354040283529160200191612eb3565b820191906000526020600020905b815481529060010190602001808311612e9657829003601f168201915b5050505050905092915050565b6060828585604051602001612ed7939291906141dc565b6040516020818303038152906040529050949350505050565b60608315612eff575081610b85565b825115612f0f5782518084602001fd5b8160405162461bcd60e51b81526004016108df9190614413565b6000612f3433610fea565b15612f48575060331936013560601c6108b5565b612f50613356565b90506108b5565b600081815260cb602052604081205415612f7f57600082815260cb602052604090205461081d565b5090565b6000612fc282612fbc878787604051602001612fa193929190614198565b6040516020818303038152906040528051906020012061335a565b9061338a565b95945050505050565b60ca6000612fd883612f57565b81526020019081526020016000206000858152602001908152602001600020805461300290614c55565b15159050613059578260405161301891906141c0565b6040518091039020817f7ae4f661958fbecc2f77be6b0eb280d2a6f604b29e1e7221c82b9da0c4af7f86856040516130509190614413565b60405180910390a35b8160ca600061306784612f57565b815260200190815260200160002060008681526020019081526020016000209080519060200190613099929190613579565b50816040516130a891906141c0565b6040518091039020836040516130be91906141c0565b6040518091039020827f851ffe8e74d5015261dba0a1f9e1b0e5d42c5af5d2ad1908fee897c7d80a0d9286866040516130f8929190614461565b60405180910390a450505050565b600081815260c960205260408120805482919061312290614c55565b9050119050919050565b6001600160a01b0382166131525760405162461bcd60e51b81526004016108df90614904565b61315b81611f4f565b156131785760405162461bcd60e51b81526004016108df906145c6565b61318460008383610951565b6001600160a01b03821660009081526068602052604081208054600192906131ad908490614b5e565b909155505060008181526067602052604080822080546001600160a01b0319166001600160a01b03861690811790915590518392907fddf252ad1be2c89b69c2b068fc378daa952ba7f163c4a11628f55a4df523b3ef908290a45050565b613215838361312c565b613222600084848461323e565b6109515760405162461bcd60e51b81526004016108df9061453d565b6000613252846001600160a01b0316613406565b1561334e57836001600160a01b031663150b7a0261326e61216b565b8786866040518563ffffffff1660e01b81526004016132909493929190614345565b602060405180830381600087803b1580156132aa57600080fd5b505af19250505080156132da575060408051601f3d908101601f191682019092526132d791810190613dba565b60015b613334573d808015613308576040519150601f19603f3d011682016040523d82523d6000602084013e61330d565b606091505b50805161332c5760405162461bcd60e51b81526004016108df9061453d565b805181602001fd5b6001600160e01b031916630a85bd0160e11b149050610ab9565b506001610ab9565b3390565b60008160405160200161336d919061425a565b604051602081830303815290604052805190602001209050919050565b6000806000808451604114156133b45750505060208201516040830151606084015160001a6133fa565b8451604014156133e25750505060408201516020830151906001600160ff1b0381169060ff1c601b016133fa565b60405162461bcd60e51b81526004016108df906144bd565b6124498682858561340c565b3b151590565b60007f7fffffffffffffffffffffffffffffff5d576e7357a4501ddfe92f46681b20a082111561344e5760405162461bcd60e51b81526004016108df90614678565b8360ff16601b148061346357508360ff16601c145b61347f5760405162461bcd60e51b81526004016108df906148c2565b6000600186868686604051600081526020016040526040516134a494939291906143f5565b6020604051602081039080840390855afa1580156134c6573d6000803e3d6000fd5b5050604051601f1901519150506001600160a01b038116612fc25760405162461bcd60e51b81526004016108df90614486565b82805461350590614c55565b90600052602060002090601f016020900481019282613527576000855561356d565b82601f106135405782800160ff1982351617855561356d565b8280016001018555821561356d579182015b8281111561356d578235825591602001919060010190613552565b50612f7f9291506135ed565b82805461358590614c55565b90600052602060002090601f0160209004810192826135a7576000855561356d565b82601f106135c057805160ff191683800117855561356d565b8280016001018555821561356d579182015b8281111561356d5782518255916020019190600101906135d2565b5b80821115612f7f57600081556001016135ee565b60006001600160401b038084111561361c5761361c614ceb565b604051601f8501601f19168101602001828111828210171561364057613640614ceb565b60405284815291508183850186101561365857600080fd5b8484602083013760006020868301015250509392505050565b803561082081614d01565b60008083601f84011261368d578182fd5b5081356001600160401b038111156136a3578182fd5b60208301915083602080830285010111156136bd57600080fd5b9250929050565b60008083601f8401126136d5578182fd5b5081356001600160401b038111156136eb578182fd5b6020830191508360208285010111156136bd57600080fd5b600082601f830112613713578081fd5b610b8583833560208501613602565b600060208284031215613733578081fd5b8135610b8581614d01565b60006020828403121561374f578081fd5b8151610b8581614d01565b6000806040838503121561376c578081fd5b823561377781614d01565b9150602083013561378781614d01565b809150509250929050565b6000806000606084860312156137a6578081fd5b83356137b181614d01565b925060208401356137c181614d01565b929592945050506040919091013590565b6000806000806000608086880312156137e9578081fd5b85356137f481614d01565b9450602086013561380481614d01565b93506040860135925060608601356001600160401b03811115613825578182fd5b613831888289016136c4565b969995985093965092949392505050565b600080600080600080600060a0888a03121561385c578182fd5b873561386781614d01565b9650602088013561387781614d01565b95506040880135945060608801356001600160401b0380821115613899578384fd5b6138a58b838c016136c4565b909650945060808a01359150808211156138bd578384fd5b506138ca8a828b016136c4565b989b979a50959850939692959293505050565b600080600080608085870312156138f2578182fd5b84356138fd81614d01565b9350602085013561390d81614d01565b92506040850135915060608501356001600160401b0381111561392e578182fd5b61393a87828801613703565b91505092959194509250565b60008060408385031215613958578182fd5b823561396381614d01565b915060208301358015158114613787578182fd5b60008060408385031215613989578182fd5b823561399481614d01565b946020939093013593505050565b600080600080606085870312156139b7578182fd5b84356139c281614d01565b93506020850135925060408501356001600160401b038111156139e3578283fd5b6139ef878288016136c4565b95989497509550505050565b60008060008060008060008060a0898b031215613a16578182fd5b8835613a2181614d01565b97506020890135965060408901356001600160401b0380821115613a43578384fd5b613a4f8c838d016136c4565b909850965060608b0135915080821115613a67578384fd5b613a738c838d0161367c565b909650945060808b0135915080821115613a8b578384fd5b50613a988b828c0161367c565b999c989b5096995094979396929594505050565b60008060008060008060008060008060c08b8d031215613aca578384fd5b613ad38b613671565b995060208b0135985060408b01356001600160401b0380821115613af5578586fd5b613b018e838f016136c4565b909a50985060608d0135915080821115613b19578586fd5b613b258e838f0161367c565b909850965060808d0135915080821115613b3d578586fd5b613b498e838f0161367c565b909650945060a08d0135915080821115613b61578384fd5b50613b6e8d828e016136c4565b915080935050809150509295989b9194979a5092959850565b60008060008060008060808789031215613b9f578384fd5b8635613baa81614d01565b95506020870135945060408701356001600160401b0380821115613bcc578586fd5b613bd88a838b016136c4565b90965094506060890135915080821115613bf0578384fd5b50613bfd89828a016136c4565b979a9699509497509295939492505050565b600080600080600060608688031215613c26578283fd5b85356001600160401b0380821115613c3c578485fd5b613c4889838a0161367c565b90975095506020880135915080821115613c60578485fd5b50613c6d8882890161367c565b96999598509660400135949350505050565b60008060008060008060006080888a031215613c99578081fd5b87356001600160401b0380821115613caf578283fd5b613cbb8b838c0161367c565b909950975060208a0135915080821115613cd3578283fd5b613cdf8b838c0161367c565b909750955060408a0135945060608a01359150808211156138bd578283fd5b600080600060408486031215613d12578081fd5b83356001600160401b03811115613d27578182fd5b613d338682870161367c565b909790965060209590950135949350505050565b60008060208385031215613d59578182fd5b82356001600160401b03811115613d6e578283fd5b613d7a8582860161367c565b90969095509350505050565b600060208284031215613d97578081fd5b5051919050565b600060208284031215613daf578081fd5b8135610b8581614d16565b600060208284031215613dcb578081fd5b8151610b8581614d16565b60008060208385031215613de8578182fd5b82356001600160401b03811115613dfd578283fd5b613d7a858286016136c4565b600080600080600060608688031215613e20578283fd5b85356001600160401b0380821115613e36578485fd5b613e4289838a016136c4565b90975095506020880135915080821115613e5a578485fd5b50613c6d888289016136c4565b60008060008060008060006080888a031215613e81578081fd5b87356001600160401b0380821115613e97578283fd5b613ea38b838c016136c4565b909950975060208a0135915080821115613ebb578283fd5b613cdf8b838c016136c4565b600080600060408486031215613edb578081fd5b83356001600160401b03811115613ef0578182fd5b613d33868287016136c4565b600060208284031215613f0d578081fd5b81356001600160401b03811115613f22578182fd5b8201601f81018413613f32578182fd5b610ab984823560208401613602565b600080600060408486031215613f55578081fd5b83356001600160401b0380821115613f6b578283fd5b9085019060808288031215613f7e578283fd5b90935060208501359080821115613f93578283fd5b50613fa0868287016136c4565b9497909650939450505050565b600060208284031215613fbe578081fd5b5035919050565b600080600060408486031215613fd9578081fd5b8335925060208401356001600160401b03811115613ff5578182fd5b613fa0868287016136c4565b60008060008060608587031215614016578182fd5b8435935060208501356001600160401b03811115614032578283fd5b61403e878288016136c4565b9598909750949560400135949350505050565b60008060408385031215614063578182fd5b50508035926020909101359150565b818352602080840193600091908185020181018584845b878110156140ef5782840389528135601e198836030181126140a9578687fd5b870180356001600160401b038111156140c0578788fd5b8036038913156140ce578788fd5b6140db8682898501614142565b9a87019a9550505090840190600101614089565b5091979650505050505050565b6000815180845260208085018081965082840281019150828601855b858110156140ef57828403895261413084835161416c565b98850198935090840190600101614118565b60008284528282602086013780602084860101526020601f19601f85011685010190509392505050565b60008151808452614184816020860160208601614c29565b601f01601f19169290920160200192915050565b92835260609190911b6bffffffffffffffffffffffff19166020830152603482015260540190565b600082516141d2818460208701614c29565b9190910192915050565b600084516141ee818460208901614c29565b60609490941b6bffffffffffffffffffffffff191691909301908152601481019190915260340192915050565b6000828483379101908152919050565b6000835161423d818460208801614c29565b835190830190614251818360208801614c29565b01949350505050565b7f19457468657265756d205369676e6564204d6573736167653a0a3332000000008152601c810191909152603c0190565b90815260200190565b918252602082015260400190565b6001600160a01b0391909116815260200190565b6001600160a01b03848116825283166020820152606060408201819052600090612fc29083018461416c565b6001600160a01b039384168152919092166020820152604081019190915260600190565b6001600160a01b038681168252851660208201526040810184905260806060820181905260009061433a9083018486614142565b979650505050505050565b6001600160a01b03858116825284166020820152604081018390526080606082018190526000906124499083018461416c565b60006060825261438c606083018789614072565b828103602084015261439f818688614072565b9150508260408301529695505050505050565b600060208252610b8560208301846140fc565b6000604082526143d860408301856140fc565b8281036020840152610b8181856140fc565b901515815260200190565b93845260ff9290921660208401526040830152606082015260800190565b600060208252610b85602083018461416c565b600060208252610ab9602083018486614142565b60006060825261444e606083018789614142565b828103602084015261439f818688614142565b600060408252614474604083018561416c565b8281036020840152610b81818561416c565b60208082526018908201527f45434453413a20696e76616c6964207369676e61747572650000000000000000604082015260600190565b6020808252601f908201527f45434453413a20696e76616c6964207369676e6174757265206c656e67746800604082015260600190565b60208082526029908201527f52656769737472793a2053454e4445525f49535f4e4f545f415050524f5645446040820152682fa7a92fa7aba722a960b91b606082015260800190565b60208082526032908201527f4552433732313a207472616e7366657220746f206e6f6e20455243373231526560408201527131b2b4bb32b91034b6b83632b6b2b73a32b960711b606082015260800190565b6020808252601c908201527f5265636f726453746f726167653a204b45595f4e4f545f464f554e4400000000604082015260600190565b6020808252601c908201527f4552433732313a20746f6b656e20616c7265616479206d696e74656400000000604082015260600190565b60208082526024908201527f4552433732313a207472616e7366657220746f20746865207a65726f206164646040820152637265737360e01b606082015260800190565b60208082526019908201527f4552433732313a20617070726f766520746f2063616c6c657200000000000000604082015260600190565b60208082526022908201527f45434453413a20696e76616c6964207369676e6174757265202773272076616c604082015261756560f01b606082015260800190565b60208082526027908201527f52656769737472793a2053454e4445525f49535f4e4f545f4d494e54494e475f60408201526626a0a720a3a2a960c91b606082015260800190565b6020808252602c908201527f4552433732313a206f70657261746f7220717565727920666f72206e6f6e657860408201526b34b9ba32b73a103a37b5b2b760a11b606082015260800190565b60208082526017908201527f52656769737472793a20544f4b454e5f494e56414c4944000000000000000000604082015260600190565b60208082526038908201527f4552433732313a20617070726f76652063616c6c6572206973206e6f74206f7760408201527f6e6572206e6f7220617070726f76656420666f7220616c6c0000000000000000606082015260800190565b6020808252602a908201527f4552433732313a2062616c616e636520717565727920666f7220746865207a65604082015269726f206164647265737360b01b606082015260800190565b60208082526029908201527f4552433732313a206f776e657220717565727920666f72206e6f6e657869737460408201526832b73a103a37b5b2b760b91b606082015260800190565b6020808252602e908201527f496e697469616c697a61626c653a20636f6e747261637420697320616c72656160408201526d191e481a5b9a5d1a585b1a5e995960921b606082015260800190565b60208082526022908201527f45434453413a20696e76616c6964207369676e6174757265202776272076616c604082015261756560f01b606082015260800190565b6020808252818101527f4552433732313a206d696e7420746f20746865207a65726f2061646472657373604082015260600190565b6020808252602c908201527f4552433732313a20617070726f76656420717565727920666f72206e6f6e657860408201526b34b9ba32b73a103a37b5b2b760a11b606082015260800190565b60208082526026908201527f52656769737472793a20524f4f545f434841494e5f4d414e454745525f4e4f546040820152655f454d50545960d01b606082015260800190565b60208082526029908201527f4552433732313a207472616e73666572206f6620746f6b656e2074686174206960408201526839903737ba1037bbb760b91b606082015260800190565b6020808252602f908201527f4552433732314d657461646174613a2055524920717565727920666f72206e6f60408201526e3732bc34b9ba32b73a103a37b5b2b760891b606082015260800190565b60208082526027908201527f554e535265676973747279466f727761726465723a205349474e41545552455f6040820152661253959053125160ca1b606082015260800190565b60208082526021908201527f4552433732313a20617070726f76616c20746f2063757272656e74206f776e656040820152603960f91b606082015260800190565b60208082526015908201527452656769737472793a204c4142454c5f454d50545960581b604082015260600190565b6000808335601e19843603018112614b30578283fd5b8301803591506001600160401b03821115614b49578283fd5b6020019150368190038213156136bd57600080fd5b60008219821115614b7157614b71614cbf565b500190565b600082614b8557614b85614cd5565b500490565b600082821015614b9c57614b9c614cbf565b500390565b600060808236031215614bb2578081fd5b604051608081016001600160401b038282108183111715614bd557614bd5614ceb565b8160405284359150614be682614d01565b81835260208501356020840152604085013560408401526060850135915080821115614c10578384fd5b50614c1d36828601613703565b60608301525092915050565b60005b83811015614c44578181015183820152602001614c2c565b838111156115195750506000910152565b600281046001821680614c6957607f821691505b60208210811415614c8a57634e487b7160e01b600052602260045260246000fd5b50919050565b6000600019821415614ca457614ca4614cbf565b5060010190565b600082614cba57614cba614cd5565b500690565b634e487b7160e01b600052601160045260246000fd5b634e487b7160e01b600052601260045260246000fd5b634e487b7160e01b600052604160045260246000fd5b6001600160a01b0381168114610fe757600080fd5b6001600160e01b031981168114610fe757600080fdfea164736f6c6343000800000a",
  "linkReferences": {},
  "deployedLinkReferences": {}
}