{
  "_format": "hh-sol-artifact-1",
  "contractName": "UNSRegistry",
  "sourceName": "contracts/UNSRegistry.sol",
  "abi": [
    {
      "anonymous": false,
      "inputs": [
        {
          "indexed": false,
          "internalType": "address",
          "name": "previousAdmin",
          "type": "address"
        },
        {
          "indexed": false,
          "internalType": "address",
          "name": "newAdmin",
          "type": "address"
        }
      ],
      "name": "AdminChanged",
      "type": "event"
    },
    {
      "anonymous": false,
      "inputs": [
        {
          "indexed": true,
          "internalType": "address",
          "name": "owner",
          "type": "address"
        },
        {
          "indexed": true,
          "internalType": "address",
          "name": "approved",
          "type": "address"
        },
        {
          "indexed": true,
          "internalType": "uint256",
          "name": "tokenId",
          "type": "uint256"
        }
      ],
      "name": "Approval",
      "type": "event"
    },
    {
      "anonymous": false,
      "inputs": [
        {
          "indexed": true,
          "internalType": "address",
          "name": "owner",
          "type": "address"
        },
        {
          "indexed": true,
          "internalType": "address",
          "name": "operator",
          "type": "address"
        },
        {
          "indexed": false,
          "internalType": "bool",
          "name": "approved",
          "type": "bool"
        }
      ],
      "name": "ApprovalForAll",
      "type": "event"
    },
    {
      "anonymous": false,
      "inputs": [
        {
          "indexed": false,
          "internalType": "uint8",
          "name": "version",
          "type": "uint8"
        }
      ],
      "name": "Initialized",
      "type": "event"
    },
    {
      "anonymous": false,
      "inputs": [
        {
          "indexed": true,
          "internalType": "uint256",
          "name": "tokenId",
          "type": "uint256"
        },
        {
          "indexed": true,
          "internalType": "string",
          "name": "keyIndex",
          "type": "string"
        },
        {
          "indexed": false,
          "internalType": "string",
          "name": "key",
          "type": "string"
        }
      ],
      "name": "NewKey",
      "type": "event"
    },
    {
      "anonymous": false,
      "inputs": [
        {
          "indexed": true,
          "internalType": "uint256",
          "name": "tokenId",
          "type": "uint256"
        },
        {
          "indexed": false,
          "internalType": "string",
          "name": "uri",
          "type": "string"
        }
      ],
      "name": "NewURI",
      "type": "event"
    },
    {
      "anonymous": false,
      "inputs": [
        {
          "indexed": false,
          "internalType": "string",
          "name": "prefix",
          "type": "string"
        }
      ],
      "name": "NewURIPrefix",
      "type": "event"
    },
    {
      "anonymous": false,
      "inputs": [
        {
          "indexed": true,
          "internalType": "address",
          "name": "addr",
          "type": "address"
        }
      ],
      "name": "RemoveReverse",
      "type": "event"
    },
    {
      "anonymous": false,
      "inputs": [
        {
          "indexed": true,
          "internalType": "uint256",
          "name": "tokenId",
          "type": "uint256"
        }
      ],
      "name": "ResetRecords",
      "type": "event"
    },
    {
      "anonymous": false,
      "inputs": [
        {
          "indexed": true,
          "internalType": "uint256",
          "name": "tokenId",
          "type": "uint256"
        },
        {
          "indexed": true,
          "internalType": "string",
          "name": "keyIndex",
          "type": "string"
        },
        {
          "indexed": true,
          "internalType": "string",
          "name": "valueIndex",
          "type": "string"
        },
        {
          "indexed": false,
          "internalType": "string",
          "name": "key",
          "type": "string"
        },
        {
          "indexed": false,
          "internalType": "string",
          "name": "value",
          "type": "string"
        }
      ],
      "name": "Set",
      "type": "event"
    },
    {
      "anonymous": false,
      "inputs": [
        {
          "indexed": true,
          "internalType": "address",
          "name": "addr",
          "type": "address"
        },
        {
          "indexed": true,
          "internalType": "uint256",
          "name": "tokenId",
          "type": "uint256"
        }
      ],
      "name": "SetReverse",
      "type": "event"
    },
    {
      "anonymous": false,
      "inputs": [
        {
          "indexed": true,
          "internalType": "address",
          "name": "from",
          "type": "address"
        },
        {
          "indexed": true,
          "internalType": "address",
          "name": "to",
          "type": "address"
        },
        {
          "indexed": true,
          "internalType": "uint256",
          "name": "tokenId",
          "type": "uint256"
        }
      ],
      "name": "Transfer",
      "type": "event"
    },
    {
      "anonymous": false,
      "inputs": [
        {
          "indexed": true,
          "internalType": "address",
          "name": "implementation",
          "type": "address"
        }
      ],
      "name": "Upgraded",
      "type": "event"
    },
    {
      "anonymous": false,
      "inputs": [
        {
          "indexed": true,
          "internalType": "address",
          "name": "user",
          "type": "address"
        },
        {
          "indexed": false,
          "internalType": "uint256[]",
          "name": "tokenIds",
          "type": "uint256[]"
        }
      ],
      "name": "WithdrawnBatch",
      "type": "event"
    },
    {
      "inputs": [],
      "name": "BATCH_LIMIT",
      "outputs": [
        {
          "internalType": "uint256",
          "name": "",
          "type": "uint256"
        }
      ],
      "stateMutability": "view",
      "type": "function"
    },
    {
      "inputs": [],
      "name": "NAME",
      "outputs": [
        {
          "internalType": "string",
          "name": "",
          "type": "string"
        }
      ],
      "stateMutability": "view",
      "type": "function"
    },
    {
      "inputs": [],
      "name": "VERSION",
      "outputs": [
        {
          "internalType": "string",
          "name": "",
          "type": "string"
        }
      ],
      "stateMutability": "view",
      "type": "function"
    },
    {
      "inputs": [
        {
          "internalType": "string",
          "name": "key",
          "type": "string"
        }
      ],
      "name": "addKey",
      "outputs": [],
      "stateMutability": "nonpayable",
      "type": "function"
    },
    {
      "inputs": [
        {
          "internalType": "address",
          "name": "to",
          "type": "address"
        },
        {
          "internalType": "uint256",
          "name": "tokenId",
          "type": "uint256"
        }
      ],
      "name": "approve",
      "outputs": [],
      "stateMutability": "nonpayable",
      "type": "function"
    },
    {
      "inputs": [
        {
          "internalType": "address",
          "name": "owner",
          "type": "address"
        }
      ],
      "name": "balanceOf",
      "outputs": [
        {
          "internalType": "uint256",
          "name": "",
          "type": "uint256"
        }
      ],
      "stateMutability": "view",
      "type": "function"
    },
    {
      "inputs": [
        {
          "internalType": "uint256",
          "name": "tokenId",
          "type": "uint256"
        }
      ],
      "name": "burn",
      "outputs": [],
      "stateMutability": "nonpayable",
      "type": "function"
    },
    {
      "inputs": [
        {
          "internalType": "uint256",
          "name": "tokenId",
          "type": "uint256"
        },
        {
          "internalType": "string",
          "name": "label",
          "type": "string"
        }
      ],
      "name": "childIdOf",
      "outputs": [
        {
          "internalType": "uint256",
          "name": "",
          "type": "uint256"
        }
      ],
      "stateMutability": "pure",
      "type": "function"
    },
    {
      "inputs": [
        {
          "internalType": "address",
          "name": "user",
          "type": "address"
        },
        {
          "internalType": "bytes",
          "name": "depositData",
          "type": "bytes"
        }
      ],
      "name": "deposit",
      "outputs": [],
      "stateMutability": "nonpayable",
      "type": "function"
    },
    {
      "inputs": [
        {
          "internalType": "uint256",
          "name": "tokenId",
          "type": "uint256"
        }
      ],
      "name": "depositToPolygon",
      "outputs": [],
      "stateMutability": "nonpayable",
      "type": "function"
    },
    {
      "inputs": [
        {
          "components": [
            {
              "internalType": "address",
              "name": "from",
              "type": "address"
            },
            {
              "internalType": "uint256",
              "name": "nonce",
              "type": "uint256"
            },
            {
              "internalType": "uint256",
              "name": "tokenId",
              "type": "uint256"
            },
            {
              "internalType": "bytes",
              "name": "data",
              "type": "bytes"
            }
          ],
          "internalType": "struct IForwarder.ForwardRequest",
          "name": "req",
          "type": "tuple"
        },
        {
          "internalType": "bytes",
          "name": "signature",
          "type": "bytes"
        }
      ],
      "name": "execute",
      "outputs": [
        {
          "internalType": "bytes",
          "name": "",
          "type": "bytes"
        }
      ],
      "stateMutability": "nonpayable",
      "type": "function"
    },
    {
      "inputs": [
        {
          "internalType": "uint256",
          "name": "tokenId",
          "type": "uint256"
        }
      ],
      "name": "exists",
      "outputs": [
        {
          "internalType": "bool",
          "name": "",
          "type": "bool"
        }
      ],
      "stateMutability": "view",
      "type": "function"
    },
    {
      "inputs": [
        {
          "internalType": "string",
          "name": "key",
          "type": "string"
        },
        {
          "internalType": "uint256",
          "name": "tokenId",
          "type": "uint256"
        }
      ],
      "name": "get",
      "outputs": [
        {
          "internalType": "string",
          "name": "value",
          "type": "string"
        }
      ],
      "stateMutability": "view",
      "type": "function"
    },
    {
      "inputs": [
        {
          "internalType": "uint256",
          "name": "tokenId",
          "type": "uint256"
        }
      ],
      "name": "getApproved",
      "outputs": [
        {
          "internalType": "address",
          "name": "",
          "type": "address"
        }
      ],
      "stateMutability": "view",
      "type": "function"
    },
    {
      "inputs": [
        {
          "internalType": "uint256",
          "name": "keyHash",
          "type": "uint256"
        },
        {
          "internalType": "uint256",
          "name": "tokenId",
          "type": "uint256"
        }
      ],
      "name": "getByHash",
      "outputs": [
        {
          "internalType": "string",
          "name": "key",
          "type": "string"
        },
        {
          "internalType": "string",
          "name": "value",
          "type": "string"
        }
      ],
      "stateMutability": "view",
      "type": "function"
    },
    {
      "inputs": [
        {
          "internalType": "uint256",
          "name": "keyHash",
          "type": "uint256"
        }
      ],
      "name": "getKey",
      "outputs": [
        {
          "internalType": "string",
          "name": "",
          "type": "string"
        }
      ],
      "stateMutability": "view",
      "type": "function"
    },
    {
      "inputs": [
        {
          "internalType": "uint256[]",
          "name": "hashes",
          "type": "uint256[]"
        }
      ],
      "name": "getKeys",
      "outputs": [
        {
          "internalType": "string[]",
          "name": "values",
          "type": "string[]"
        }
      ],
      "stateMutability": "view",
      "type": "function"
    },
    {
      "inputs": [
        {
          "internalType": "string[]",
          "name": "keys",
          "type": "string[]"
        },
        {
          "internalType": "uint256",
          "name": "tokenId",
          "type": "uint256"
        }
      ],
      "name": "getMany",
      "outputs": [
        {
          "internalType": "string[]",
          "name": "values",
          "type": "string[]"
        }
      ],
      "stateMutability": "view",
      "type": "function"
    },
    {
      "inputs": [
        {
          "internalType": "uint256[]",
          "name": "keyHashes",
          "type": "uint256[]"
        },
        {
          "internalType": "uint256",
          "name": "tokenId",
          "type": "uint256"
        }
      ],
      "name": "getManyByHash",
      "outputs": [
        {
          "internalType": "string[]",
          "name": "keys",
          "type": "string[]"
        },
        {
          "internalType": "string[]",
          "name": "values",
          "type": "string[]"
        }
      ],
      "stateMutability": "view",
      "type": "function"
    },
    {
      "inputs": [
        {
          "internalType": "address",
          "name": "mintingManager",
          "type": "address"
        }
      ],
      "name": "initialize",
      "outputs": [],
      "stateMutability": "nonpayable",
      "type": "function"
    },
    {
      "inputs": [
        {
          "internalType": "address",
          "name": "owner",
          "type": "address"
        },
        {
          "internalType": "address",
          "name": "operator",
          "type": "address"
        }
      ],
      "name": "isApprovedForAll",
      "outputs": [
        {
          "internalType": "bool",
          "name": "",
          "type": "bool"
        }
      ],
      "stateMutability": "view",
      "type": "function"
    },
    {
      "inputs": [
        {
          "internalType": "address",
          "name": "spender",
          "type": "address"
        },
        {
          "internalType": "uint256",
          "name": "tokenId",
          "type": "uint256"
        }
      ],
      "name": "isApprovedOrOwner",
      "outputs": [
        {
          "internalType": "bool",
          "name": "",
          "type": "bool"
        }
      ],
      "stateMutability": "view",
      "type": "function"
    },
    {
      "inputs": [
        {
          "internalType": "address",
          "name": "forwarder",
          "type": "address"
        }
      ],
      "name": "isTrustedForwarder",
      "outputs": [
        {
          "internalType": "bool",
          "name": "",
          "type": "bool"
        }
      ],
      "stateMutability": "view",
      "type": "function"
    },
    {
      "inputs": [
        {
          "internalType": "address",
          "name": "user",
          "type": "address"
        },
        {
          "internalType": "uint256",
          "name": "tokenId",
          "type": "uint256"
        }
      ],
      "name": "mint",
      "outputs": [],
      "stateMutability": "nonpayable",
      "type": "function"
    },
    {
      "inputs": [
        {
          "internalType": "address",
          "name": "user",
          "type": "address"
        },
        {
          "internalType": "uint256",
          "name": "tokenId",
          "type": "uint256"
        },
        {
          "internalType": "bytes",
          "name": "",
          "type": "bytes"
        }
      ],
      "name": "mint",
      "outputs": [],
      "stateMutability": "nonpayable",
      "type": "function"
    },
    {
      "inputs": [
        {
          "internalType": "address",
          "name": "to",
          "type": "address"
        },
        {
          "internalType": "uint256",
          "name": "tokenId",
          "type": "uint256"
        },
        {
          "internalType": "string",
          "name": "uri",
          "type": "string"
        }
      ],
      "name": "mint",
      "outputs": [],
      "stateMutability": "nonpayable",
      "type": "function"
    },
    {
      "inputs": [
        {
          "internalType": "address",
          "name": "to",
          "type": "address"
        },
        {
          "internalType": "uint256",
          "name": "tokenId",
          "type": "uint256"
        },
        {
          "internalType": "string",
          "name": "uri",
          "type": "string"
        },
        {
          "internalType": "string[]",
          "name": "keys",
          "type": "string[]"
        },
        {
          "internalType": "string[]",
          "name": "values",
          "type": "string[]"
        }
      ],
      "name": "mintWithRecords",
      "outputs": [],
      "stateMutability": "nonpayable",
      "type": "function"
    },
    {
      "inputs": [],
      "name": "name",
      "outputs": [
        {
          "internalType": "string",
          "name": "",
          "type": "string"
        }
      ],
      "stateMutability": "view",
      "type": "function"
    },
    {
      "inputs": [
        {
          "internalType": "uint256",
          "name": "tokenId",
          "type": "uint256"
        }
      ],
      "name": "nonceOf",
      "outputs": [
        {
          "internalType": "uint256",
          "name": "",
          "type": "uint256"
        }
      ],
      "stateMutability": "view",
      "type": "function"
    },
    {
      "inputs": [
        {
          "internalType": "address",
          "name": "",
          "type": "address"
        },
        {
          "internalType": "address",
          "name": "from",
          "type": "address"
        },
        {
          "internalType": "uint256",
          "name": "tokenId",
          "type": "uint256"
        },
        {
          "internalType": "bytes",
          "name": "data",
          "type": "bytes"
        }
      ],
      "name": "onERC721Received",
      "outputs": [
        {
          "internalType": "bytes4",
          "name": "",
          "type": "bytes4"
        }
      ],
      "stateMutability": "nonpayable",
      "type": "function"
    },
    {
      "inputs": [
        {
          "internalType": "uint256",
          "name": "tokenId",
          "type": "uint256"
        }
      ],
      "name": "ownerOf",
      "outputs": [
        {
          "internalType": "address",
          "name": "",
          "type": "address"
        }
      ],
      "stateMutability": "view",
      "type": "function"
    },
    {
      "inputs": [
        {
          "internalType": "string[]",
          "name": "keys",
          "type": "string[]"
        },
        {
          "internalType": "string[]",
          "name": "values",
          "type": "string[]"
        },
        {
          "internalType": "uint256",
          "name": "tokenId",
          "type": "uint256"
        }
      ],
      "name": "reconfigure",
      "outputs": [],
      "stateMutability": "nonpayable",
      "type": "function"
    },
    {
      "inputs": [],
      "name": "removeReverse",
      "outputs": [],
      "stateMutability": "nonpayable",
      "type": "function"
    },
    {
      "inputs": [
        {
          "internalType": "uint256",
          "name": "tokenId",
          "type": "uint256"
        }
      ],
      "name": "reset",
      "outputs": [],
      "stateMutability": "nonpayable",
      "type": "function"
    },
    {
      "inputs": [
        {
          "internalType": "uint256",
          "name": "tokenId",
          "type": "uint256"
        }
      ],
      "name": "resolverOf",
      "outputs": [
        {
          "internalType": "address",
          "name": "",
          "type": "address"
        }
      ],
      "stateMutability": "view",
      "type": "function"
    },
    {
      "inputs": [
        {
          "internalType": "address",
          "name": "addr",
          "type": "address"
        }
      ],
      "name": "reverseOf",
      "outputs": [
        {
          "internalType": "uint256",
          "name": "",
          "type": "uint256"
        }
      ],
      "stateMutability": "view",
      "type": "function"
    },
    {
      "inputs": [],
      "name": "root",
      "outputs": [
        {
          "internalType": "uint256",
          "name": "",
          "type": "uint256"
        }
      ],
      "stateMutability": "pure",
      "type": "function"
    },
    {
      "inputs": [
        {
          "internalType": "address",
          "name": "to",
          "type": "address"
        },
        {
          "internalType": "uint256",
          "name": "tokenId",
          "type": "uint256"
        },
        {
          "internalType": "string",
          "name": "uri",
          "type": "string"
        },
        {
          "internalType": "bytes",
          "name": "data",
          "type": "bytes"
        }
      ],
      "name": "safeMint",
      "outputs": [],
      "stateMutability": "nonpayable",
      "type": "function"
    },
    {
      "inputs": [
        {
          "internalType": "address",
          "name": "to",
          "type": "address"
        },
        {
          "internalType": "uint256",
          "name": "tokenId",
          "type": "uint256"
        },
        {
          "internalType": "string",
          "name": "uri",
          "type": "string"
        }
      ],
      "name": "safeMint",
      "outputs": [],
      "stateMutability": "nonpayable",
      "type": "function"
    },
    {
      "inputs": [
        {
          "internalType": "address",
          "name": "to",
          "type": "address"
        },
        {
          "internalType": "uint256",
          "name": "tokenId",
          "type": "uint256"
        },
        {
          "internalType": "string",
          "name": "uri",
          "type": "string"
        },
        {
          "internalType": "string[]",
          "name": "keys",
          "type": "string[]"
        },
        {
          "internalType": "string[]",
          "name": "values",
          "type": "string[]"
        }
      ],
      "name": "safeMintWithRecords",
      "outputs": [],
      "stateMutability": "nonpayable",
      "type": "function"
    },
    {
      "inputs": [
        {
          "internalType": "address",
          "name": "to",
          "type": "address"
        },
        {
          "internalType": "uint256",
          "name": "tokenId",
          "type": "uint256"
        },
        {
          "internalType": "string",
          "name": "uri",
          "type": "string"
        },
        {
          "internalType": "string[]",
          "name": "keys",
          "type": "string[]"
        },
        {
          "internalType": "string[]",
          "name": "values",
          "type": "string[]"
        },
        {
          "internalType": "bytes",
          "name": "data",
          "type": "bytes"
        }
      ],
      "name": "safeMintWithRecords",
      "outputs": [],
      "stateMutability": "nonpayable",
      "type": "function"
    },
    {
      "inputs": [
        {
          "internalType": "address",
          "name": "from",
          "type": "address"
        },
        {
          "internalType": "address",
          "name": "to",
          "type": "address"
        },
        {
          "internalType": "uint256",
          "name": "tokenId",
          "type": "uint256"
        }
      ],
      "name": "safeTransferFrom",
      "outputs": [],
      "stateMutability": "nonpayable",
      "type": "function"
    },
    {
      "inputs": [
        {
          "internalType": "address",
          "name": "from",
          "type": "address"
        },
        {
          "internalType": "address",
          "name": "to",
          "type": "address"
        },
        {
          "internalType": "uint256",
          "name": "tokenId",
          "type": "uint256"
        },
        {
          "internalType": "bytes",
          "name": "data",
          "type": "bytes"
        }
      ],
      "name": "safeTransferFrom",
      "outputs": [],
      "stateMutability": "nonpayable",
      "type": "function"
    },
    {
      "inputs": [
        {
          "internalType": "string",
          "name": "key",
          "type": "string"
        },
        {
          "internalType": "string",
          "name": "value",
          "type": "string"
        },
        {
          "internalType": "uint256",
          "name": "tokenId",
          "type": "uint256"
        }
      ],
      "name": "set",
      "outputs": [],
      "stateMutability": "nonpayable",
      "type": "function"
    },
    {
      "inputs": [
        {
          "internalType": "address",
          "name": "operator",
          "type": "address"
        },
        {
          "internalType": "bool",
          "name": "approved",
          "type": "bool"
        }
      ],
      "name": "setApprovalForAll",
      "outputs": [],
      "stateMutability": "nonpayable",
      "type": "function"
    },
    {
      "inputs": [
        {
          "internalType": "uint256",
          "name": "keyHash",
          "type": "uint256"
        },
        {
          "internalType": "string",
          "name": "value",
          "type": "string"
        },
        {
          "internalType": "uint256",
          "name": "tokenId",
          "type": "uint256"
        }
      ],
      "name": "setByHash",
      "outputs": [],
      "stateMutability": "nonpayable",
      "type": "function"
    },
    {
      "inputs": [
        {
          "internalType": "address",
          "name": "registry",
          "type": "address"
        }
      ],
      "name": "setCNSRegistry",
      "outputs": [],
      "stateMutability": "nonpayable",
      "type": "function"
    },
    {
      "inputs": [
        {
          "internalType": "address",
          "name": "clientChainManager",
          "type": "address"
        }
      ],
      "name": "setChildChainManager",
      "outputs": [],
      "stateMutability": "nonpayable",
      "type": "function"
    },
    {
      "inputs": [
        {
          "internalType": "string[]",
          "name": "keys",
          "type": "string[]"
        },
        {
          "internalType": "string[]",
          "name": "values",
          "type": "string[]"
        },
        {
          "internalType": "uint256",
          "name": "tokenId",
          "type": "uint256"
        }
      ],
      "name": "setMany",
      "outputs": [],
      "stateMutability": "nonpayable",
      "type": "function"
    },
    {
      "inputs": [
        {
          "internalType": "uint256[]",
          "name": "keyHashes",
          "type": "uint256[]"
        },
        {
          "internalType": "string[]",
          "name": "values",
          "type": "string[]"
        },
        {
          "internalType": "uint256",
          "name": "tokenId",
          "type": "uint256"
        }
      ],
      "name": "setManyByHash",
      "outputs": [],
      "stateMutability": "nonpayable",
      "type": "function"
    },
    {
      "inputs": [
        {
          "internalType": "address",
          "name": "to",
          "type": "address"
        },
        {
          "internalType": "uint256",
          "name": "tokenId",
          "type": "uint256"
        }
      ],
      "name": "setOwner",
      "outputs": [],
      "stateMutability": "nonpayable",
      "type": "function"
    },
    {
      "inputs": [
        {
          "internalType": "uint256",
          "name": "tokenId",
          "type": "uint256"
        }
      ],
      "name": "setReverse",
      "outputs": [],
      "stateMutability": "nonpayable",
      "type": "function"
    },
    {
      "inputs": [
        {
          "internalType": "address",
          "name": "rootChainManager",
          "type": "address"
        }
      ],
      "name": "setRootChainManager",
      "outputs": [],
      "stateMutability": "nonpayable",
      "type": "function"
    },
    {
      "inputs": [
        {
          "internalType": "string",
          "name": "prefix",
          "type": "string"
        }
      ],
      "name": "setTokenURIPrefix",
      "outputs": [],
      "stateMutability": "nonpayable",
      "type": "function"
    },
    {
      "inputs": [
        {
          "internalType": "bytes4",
          "name": "interfaceId",
          "type": "bytes4"
        }
      ],
      "name": "supportsInterface",
      "outputs": [
        {
          "internalType": "bool",
          "name": "",
          "type": "bool"
        }
      ],
      "stateMutability": "view",
      "type": "function"
    },
    {
      "inputs": [],
      "name": "symbol",
      "outputs": [
        {
          "internalType": "string",
          "name": "",
          "type": "string"
        }
      ],
      "stateMutability": "view",
      "type": "function"
    },
    {
      "inputs": [
        {
          "internalType": "uint256",
          "name": "tokenId",
          "type": "uint256"
        }
      ],
      "name": "tokenURI",
      "outputs": [
        {
          "internalType": "string",
          "name": "",
          "type": "string"
        }
      ],
      "stateMutability": "view",
      "type": "function"
    },
    {
      "inputs": [
        {
          "internalType": "address",
          "name": "from",
          "type": "address"
        },
        {
          "internalType": "address",
          "name": "to",
          "type": "address"
        },
        {
          "internalType": "uint256",
          "name": "tokenId",
          "type": "uint256"
        }
      ],
      "name": "transferFrom",
      "outputs": [],
      "stateMutability": "nonpayable",
      "type": "function"
    },
    {
      "inputs": [
        {
          "components": [
            {
              "internalType": "address",
              "name": "from",
              "type": "address"
            },
            {
              "internalType": "uint256",
              "name": "nonce",
              "type": "uint256"
            },
            {
              "internalType": "uint256",
              "name": "tokenId",
              "type": "uint256"
            },
            {
              "internalType": "bytes",
              "name": "data",
              "type": "bytes"
            }
          ],
          "internalType": "struct IForwarder.ForwardRequest",
          "name": "req",
          "type": "tuple"
        },
        {
          "internalType": "bytes",
          "name": "signature",
          "type": "bytes"
        }
      ],
      "name": "verify",
      "outputs": [
        {
          "internalType": "bool",
          "name": "",
          "type": "bool"
        }
      ],
      "stateMutability": "view",
      "type": "function"
    },
    {
      "inputs": [
        {
          "internalType": "uint256",
          "name": "tokenId",
          "type": "uint256"
        }
      ],
      "name": "withdraw",
      "outputs": [],
      "stateMutability": "nonpayable",
      "type": "function"
    },
    {
      "inputs": [
        {
          "internalType": "uint256[]",
          "name": "tokenIds",
          "type": "uint256[]"
        }
      ],
      "name": "withdrawBatch",
      "outputs": [],
      "stateMutability": "nonpayable",
      "type": "function"
    },
    {
      "inputs": [
        {
          "internalType": "bytes",
          "name": "inputData",
          "type": "bytes"
        },
        {
          "internalType": "uint256",
          "name": "tokenId",
          "type": "uint256"
        },
        {
          "internalType": "string[]",
          "name": "keys",
          "type": "string[]"
        },
        {
          "internalType": "string[]",
          "name": "values",
          "type": "string[]"
        }
      ],
      "name": "withdrawFromPolygon",
      "outputs": [],
      "stateMutability": "nonpayable",
      "type": "function"
    },
    {
      "inputs": [
        {
          "internalType": "uint256",
          "name": "tokenId",
          "type": "uint256"
        }
      ],
      "name": "withdrawWithMetadata",
      "outputs": [],
      "stateMutability": "nonpayable",
      "type": "function"
    }
  ],
  "bytecode": "0x608060405234801561001057600080fd5b506151a8806100206000396000f3fe608060405234801561001057600080fd5b50600436106103c55760003560e01c80637e37479e116101ff578063b85afd281161011a578063d3fc9864116100ad578063efda4d3e1161007c578063efda4d3e146108e7578063f25eb5c1146108fa578063f5c1f76e14610902578063ffa1ad741461091557600080fd5b8063d3fc98641461087e578063e985e9c514610891578063ebf0c717146108cd578063ec129eea146108d457600080fd5b8063c87b56dd116100e9578063c87b56dd14610832578063cd279c7c14610845578063ce92b33e14610858578063cf2c52cb1461086b57600080fd5b8063b85afd28146107d8578063b88d4fde146107f9578063bb5b27e11461080c578063c4d66de81461081f57600080fd5b8063a22cb46511610192578063ab3b87fe11610161578063ab3b87fe1461078c578063b0f591771461079f578063b3f9e4cb146107b2578063b55bc617146107c557600080fd5b8063a22cb4651461073a578063a3f4df7e1461074d578063a424740014610779578063a5e584dc146104df57600080fd5b80639559c0bd116101ce5780639559c0bd1461070457806395d89b411461070c57806399e0dd7c146107145780639c8d41561461072757600080fd5b80637e37479e146106a15780637f139a00146106cb57806394d008ef146106de5780639508b1c4146106f157600080fd5b806342966c68116102ef5780636352211e116102825780636ccbae5f116102515780636ccbae5f1461064757806370a0823114610668578063728a44d81461067b578063764a81bb1461068e57600080fd5b80636352211e146105df578063638e5c78146105f2578063672b9f811461060557806368b62d321461062657600080fd5b80634a72584d116102be5780634a72584d1461058a5780634f558e791461059d57806350382c1a146105b0578063572b6c05146105c357600080fd5b806342966c681461053e578063430c2081146105515780634348b5621461056457806347c816991461057757600080fd5b80631bf7e13e11610367578063310bd74b11610336578063310bd74b146104f2578063384e9a551461050557806340c10f191461051857806342842e0e1461052b57600080fd5b80631bf7e13e146104a657806323b872dd146104b957806327f18975146104cc5780632e1a7d4d146104df57600080fd5b8063095ea7b3116103a3578063095ea7b314610432578063150b7a02146104475780631bd8cc1a146104735780631be5e7ed1461049357600080fd5b806301ffc9a7146103ca57806306fdde03146103f2578063081812fc14610407575b600080fd5b6103dd6103d8366004614820565b610939565b60405190151581526020015b60405180910390f35b6103fa61094a565b6040516103e99190614d5b565b61041a610415366004614a61565b6109dc565b6040516001600160a01b0390911681526020016103e9565b6104456104403660046143b7565b610a03565b005b61045a610455366004614261565b610a58565b6040516001600160e01b031990911681526020016103e9565b6104866104813660046146bf565b610bae565b6040516103e99190614cbc565b6103fa6104a1366004614988565b610cce565b6103fa6104b4366004614a02565b610d19565b6104456104c7366004614221565b610e24565b6104456104da36600461464f565b610eaa565b6104456104ed366004614a61565b610f25565b610445610500366004614a61565b610fa1565b610445610513366004614a61565b61100f565b6104456105263660046143b7565b6110ce565b610445610539366004614221565b61111b565b61044561054c366004614a61565b611136565b6103dd61055f3660046143b7565b6111ad565b61044561057236600461443b565b6111b9565b61044561058536600461492a565b61121e565b610445610598366004614aa9565b611290565b6103dd6105ab366004614a61565b611309565b6104456105be3660046149bd565b611328565b6103dd6105d13660046141b1565b6001600160a01b0316301490565b61041a6105ed366004614a61565b61135b565b610445610600366004614a61565b6113bb565b610618610613366004614af9565b611406565b6040516103e9929190614d6e565b610639610634366004614a79565b61141e565b6040519081526020016103e9565b610639610655366004614a61565b6000908152610100602052604090205490565b6106396106763660046141b1565b611460565b6104456106893660046141b1565b6114e6565b61044561069c3660046141b1565b61158d565b6106396106af3660046141b1565b6001600160a01b03166000908152610135602052604090205490565b6104456106d93660046141b1565b61163c565b6104456106ec3660046143e2565b6116db565b6104456106ff366004614858565b61172a565b610639601481565b6103fa6117b1565b6104456107223660046148f7565b6117c0565b610445610735366004614708565b611846565b61044561074836600461433a565b6119c9565b6103fa6040518060400160405280600d81526020016c554e533a20526567697374727960981b81525081565b6103dd610787366004614a02565b6119db565b61044561079a3660046143b7565b611a26565b6104456107ad36600461443b565b611a9e565b61041a6107c0366004614a61565b611b27565b6104456107d33660046145c7565b611b51565b6107eb6107e63660046146bf565b611c01565b6040516103e9929190614ccf565b6104456108073660046142d1565b611d69565b6103fa61081a366004614a61565b611de3565b61044561082d3660046141b1565b611e85565b6103fa610840366004614a61565b611fff565b6104456108533660046143e2565b612065565b61044561086636600461464f565b6120ef565b610445610879366004614365565b612161565b61044561088c3660046143e2565b61223e565b6103dd61089f3660046141e9565b6001600160a01b039182166000908152606a6020908152604080832093909416825291909152205460ff1690565b6000610639565b6104456108e236600461464f565b6122ba565b6104456108f53660046144ec565b61232c565b6104456123ba565b610486610910366004614708565b612440565b6103fa604051806040016040528060058152602001640302e352e360dc1b81525081565b60006109448261251d565b92915050565b606060658054610959906150a4565b80601f0160208091040260200160405190810160405280929190818152602001828054610985906150a4565b80156109d25780601f106109a7576101008083540402835291602001916109d2565b820191906000526020600020905b8154815290600101906020018083116109b557829003601f168201915b5050505050905090565b60006109e78261256d565b506000908152606960205260409020546001600160a01b031690565b8030331415610a4057610a146125cc565b8114610a3b5760405162461bcd60e51b8152600401610a3290614e75565b60405180910390fd5b610a49565b610a49816125e1565b610a53838361260f565b505050565b60007f8ffb960699dc2ba88f34d0e41c029c3c36c95149679fe1d0153a9582bec92378546001600160a01b0316610a8d612732565b6001600160a01b03161415610b4f57610aa4612732565b6001600160a01b03166342966c68856040518263ffffffff1660e01b8152600401610ad191815260200190565b600060405180830381600087803b158015610aeb57600080fd5b505af1158015610aff573d6000803e3d6000fd5b505050821580159150610b195750610b19828401846147ee565b15610b3757610b283085612741565b610b32858561288f565b610b41565b610b418585612741565b50630a85bd0160e11b610ba5565b60405162461bcd60e51b815260206004820152602560248201527f52656769737472793a204552433732315f524543454956494e475f50524f4849604482015264109255115160da1b6064820152608401610a32565b95945050505050565b6060826001600160401b03811115610bd657634e487b7160e01b600052604160045260246000fd5b604051908082528060200260200182016040528015610c0957816020015b6060815260200190600190039081610bf45790505b50905060005b83811015610cc657610c88858583818110610c3a57634e487b7160e01b600052603260045260246000fd5b9050602002810190610c4c9190614f39565b8080601f016020809104026020016040519081016040528093929190818152602001838380828437600092019190915250879250612930915050565b828281518110610ca857634e487b7160e01b600052603260045260246000fd5b60200260200101819052508080610cbe906150df565b915050610c0f565b509392505050565b6060610d1184848080601f016020809104026020016040519081016040528093929190818152602001838380828437600092019190915250869250612930915050565b949350505050565b606060005a9050610d2b8585856119db565b610d875760405162461bcd60e51b815260206004820152602760248201527f554e535265676973747279466f727761726465723a205349474e41545552455f6044820152661253959053125160ca1b6064820152608401610a32565b610e19610d9760208701876141b1565b30604088013584610dab60608b018b614f39565b8080601f01602080910402602001604051908101604052809392919081815260200183838082843760009201919091525050604080516020601f8e018190048102820181019092528c815292508c91508b908190840183828082843760009201919091525061296592505050565b9150505b9392505050565b80610e36610e30612732565b82612a54565b610e525760405162461bcd60e51b8152600401610a3290614d93565b8130331415610e8657610e636125cc565b8114610e815760405162461bcd60e51b8152600401610a3290614e75565b610e8f565b610e8f816125e1565b610e9883612ad2565b610ea3858585612b3f565b5050505050565b80610eb6610e30612732565b610ed25760405162461bcd60e51b8152600401610a3290614d93565b8130331415610f0657610ee36125cc565b8114610f015760405162461bcd60e51b8152600401610a3290614e75565b610f0f565b610f0f816125e1565b610f1c8787878787612ce6565b50505050505050565b610f2e8161135b565b6001600160a01b0316610f3f612732565b6001600160a01b031614610f955760405162461bcd60e51b815260206004820152601d60248201527f52656769737472793a20494e56414c49445f544f4b454e5f4f574e45520000006044820152606401610a32565b610f9e81612d65565b50565b80610fad610e30612732565b610fc95760405162461bcd60e51b8152600401610a3290614d93565b8130331415610ffd57610fda6125cc565b8114610ff85760405162461bcd60e51b8152600401610a3290614e75565b611006565b611006816125e1565b610a5383612ad2565b80611018612732565b6001600160a01b031661102a8261135b565b6001600160a01b0316146110805760405162461bcd60e51b815260206004820152601d60248201527f52656769737472793a2053454e4445525f49535f4e4f545f4f574e45520000006044820152606401610a32565b81303314156110b4576110916125cc565b81146110af5760405162461bcd60e51b8152600401610a3290614e75565b6110bd565b6110bd816125e1565b610a536110c8612732565b84612e0c565b6110d6612e54565b6001600160a01b03166110e7612732565b6001600160a01b03161461110d5760405162461bcd60e51b8152600401610a3290614ef7565b6111178282612741565b5050565b610a5383838360405180602001604052806000815250611d69565b80611142610e30612732565b61115e5760405162461bcd60e51b8152600401610a3290614d93565b81303314156111925761116f6125cc565b811461118d5760405162461bcd60e51b8152600401610a3290614e75565b61119b565b61119b816125e1565b6111a483612ad2565b610a5383612d65565b6000610e1d8383612a54565b610134546001600160a01b03166111ce612732565b6001600160a01b0316146111f45760405162461bcd60e51b8152600401610a3290614e2e565b611214888888888888888860405180602001604052806000815250612f67565b5050505050505050565b8061122a610e30612732565b6112465760405162461bcd60e51b8152600401610a3290614d93565b813033141561127a576112576125cc565b81146112755760405162461bcd60e51b8152600401610a3290614e75565b611283565b611283816125e1565b610f1c8787878787612fc2565b8061129c610e30612732565b6112b85760405162461bcd60e51b8152600401610a3290614d93565b81303314156112ec576112c96125cc565b81146112e75760405162461bcd60e51b8152600401610a3290614e75565b6112f5565b6112f5816125e1565b611301868686866130a1565b505050505050565b6000818152606760205260408120546001600160a01b03161515610944565b610f9e8160405160200161133c9190614bc3565b6040516020818303038152906040528051906020012060001c82613141565b6000818152606760205260408120546001600160a01b0316806109445760405162461bcd60e51b8152602060048201526018602482015277115490cdcc8c4e881a5b9d985b1a59081d1bdad95b88125160421b6044820152606401610a32565b806113c7610e30612732565b6113e35760405162461bcd60e51b8152600401610a3290614d93565b6113f56113ee612732565b3084612b3f565b611117611400612732565b8361288f565b606080611413848461316d565b909590945092505050565b6000610d118484848080601f01602080910402602001604051908101604052809392919081815260200183838082843760009201919091525061318e92505050565b60006001600160a01b0382166114ca5760405162461bcd60e51b815260206004820152602960248201527f4552433732313a2061646472657373207a65726f206973206e6f7420612076616044820152683634b21037bbb732b960b91b6064820152608401610a32565b506001600160a01b031660009081526068602052604090205490565b60008051602061517c833981519152546001600160a01b03161561155b5760405162461bcd60e51b815260206004820152602660248201527f52656769737472793a20524f4f545f434841494e5f4d414e454745525f4e4f546044820152655f454d50545960d01b6064820152608401610a32565b8060008051602061517c8339815191525b80546001600160a01b0319166001600160a01b039290921691909117905550565b7f8bea9a6f8afd34f4e29c585f854e0cc5161431bf5fc299d468454d33dce53b87546001600160a01b0316156116155760405162461bcd60e51b815260206004820152602760248201527f52656769737472793a204348494c445f434841494e5f4d414e454745525f4e4f604482015266545f454d50545960c81b6064820152608401610a32565b807f8bea9a6f8afd34f4e29c585f854e0cc5161431bf5fc299d468454d33dce53b8761156c565b7f8ffb960699dc2ba88f34d0e41c029c3c36c95149679fe1d0153a9582bec92378546001600160a01b0316156116b45760405162461bcd60e51b815260206004820181905260248201527f52656769737472793a20434e535f52454749535452595f4e4f545f454d5054596044820152606401610a32565b807f8ffb960699dc2ba88f34d0e41c029c3c36c95149679fe1d0153a9582bec9237861156c565b6116e3612e54565b6001600160a01b03166116f4612732565b6001600160a01b03161461171a5760405162461bcd60e51b8152600401610a3290614ef7565b6117248484612741565b50505050565b611734878761323b565b61173c612732565b6001600160a01b031661174e8661135b565b6001600160a01b0316146117a45760405162461bcd60e51b815260206004820152601d60248201527f52656769737472793a2053454e4445525f49535f4e4f545f4f574e45520000006044820152606401610a32565b610f1c84848484896132aa565b606060668054610959906150a4565b610134546001600160a01b03166117d5612732565b6001600160a01b0316146117fb5760405162461bcd60e51b8152600401610a3290614e2e565b6118086101338383613f91565b507f4b120d6a959a84a520fa48f5f937cca0e79129423487af7901213b5d2e89313b828260405161183a929190614d47565b60405180910390a15050565b8060148111156118985760405162461bcd60e51b815260206004820152601d60248201527f52656769737472793a20455843454544535f42415443485f4c494d49540000006044820152606401610a32565b60005b818110156119795760008484838181106118c557634e487b7160e01b600052603260045260246000fd5b9050602002013590506118d78161135b565b6001600160a01b03166118e8612732565b6001600160a01b0316148160405160200161192f91907f52656769737472793a20494e56414c49445f544f4b454e5f4f574e45522000008152601e810191909152603e0190565b6040516020818303038152906040529061195c5760405162461bcd60e51b8152600401610a329190614d5b565b5061196681612d65565b5080611971816150df565b91505061189b565b50611982612732565b6001600160a01b03167ff871896b17e9cb7a64941c62c188a4f5c621b86800e3d15452ece01ce56073df84846040516119bc929190614cf4565b60405180910390a2505050565b6111176119d4612732565b8383613334565b6000610d116119e985614ff0565b3085858080601f01602080910402602001604051908101604052809392919081815260200183838082843760009201919091525061340392505050565b80611a32610e30612732565b611a4e5760405162461bcd60e51b8152600401610a3290614d93565b8130331415611a8257611a5f6125cc565b8114611a7d5760405162461bcd60e51b8152600401610a3290614e75565b611a8b565b611a8b816125e1565b611724611a978461135b565b8585612b3f565b610134546001600160a01b0316611ab3612732565b6001600160a01b031614611ad95760405162461bcd60e51b8152600401610a3290614e2e565b611b1a888888888080601f01602080910402602001604051908101604052809392919081815260200183838082843760009201919091525061355b92505050565b611214848484848b6132aa565b6000818152606760205260408120546001600160a01b0316611b4a576000610944565b3092915050565b610134546001600160a01b0316611b66612732565b6001600160a01b031614611b8c5760405162461bcd60e51b8152600401610a3290614e2e565b611301868686868080601f01602080910402602001604051908101604052809392919081815260200183838082843760009201919091525050604080516020601f8a0181900481028201810190925288815292508891508790819084018382808284376000920191909152506135a792505050565b606080836001600160401b03811115611c2a57634e487b7160e01b600052604160045260246000fd5b604051908082528060200260200182016040528015611c5d57816020015b6060815260200190600190039081611c485790505b509150836001600160401b03811115611c8657634e487b7160e01b600052604160045260246000fd5b604051908082528060200260200182016040528015611cb957816020015b6060815260200190600190039081611ca45790505b50905060005b84811015611d6057611cf7868683818110611cea57634e487b7160e01b600052603260045260246000fd5b905060200201358561316d565b848381518110611d1757634e487b7160e01b600052603260045260246000fd5b60200260200101848481518110611d3e57634e487b7160e01b600052603260045260246000fd5b6020026020010182905282905250508080611d58906150df565b915050611cbf565b50935093915050565b81611d75610e30612732565b611d915760405162461bcd60e51b8152600401610a3290614d93565b8230331415611dc557611da26125cc565b8114611dc05760405162461bcd60e51b8152600401610a3290614e75565b611dce565b611dce816125e1565b611dd784612ad2565b611301868686866135f4565b600081815260c960205260409020805460609190611e00906150a4565b80601f0160208091040260200160405190810160405280929190818152602001828054611e2c906150a4565b8015611e795780601f10611e4e57610100808354040283529160200191611e79565b820191906000526020600020905b815481529060010190602001808311611e5c57829003601f168201915b50505050509050919050565b600054610100900460ff1615808015611ea55750600054600160ff909116105b80611ebf5750303b158015611ebf575060005460ff166001145b611f225760405162461bcd60e51b815260206004820152602e60248201527f496e697469616c697a61626c653a20636f6e747261637420697320616c72656160448201526d191e481a5b9a5d1a585b1a5e995960921b6064820152608401610a32565b6000805460ff191660011790558015611f45576000805461ff0019166101001790555b61013480546001600160a01b0319166001600160a01b0384161790556040805180820182526013815272556e73746f707061626c6520446f6d61696e7360681b60208083019190915282518084019093526002835261155160f21b90830152611fad91613627565b611fb5613675565b611fbd613675565b8015611117576000805461ff0019169055604051600181527f7f26b83ff96e1f2b6a682f133852f6798a09c465da95921460cefb38474024989060200161183a565b606061200a8261256d565b600061201461369e565b905060008151116120345760405180602001604052806000815250610e1d565b8061203e846136ae565b60405160200161204f929190614c2e565b6040516020818303038152906040529392505050565b610134546001600160a01b031661207a612732565b6001600160a01b0316146120a05760405162461bcd60e51b8152600401610a3290614e2e565b611724848484848080601f0160208091040260200160405190810160405280939291908181526020018383808284376000920182905250604080516020810190915290815292506135a7915050565b806120fb610e30612732565b6121175760405162461bcd60e51b8152600401610a3290614d93565b813033141561214b576121286125cc565b81146121465760405162461bcd60e51b8152600401610a3290614e75565b612154565b612154816125e1565b610f1c87878787876132aa565b7f8bea9a6f8afd34f4e29c585f854e0cc5161431bf5fc299d468454d33dce53b87546001600160a01b0316612194612732565b6001600160a01b0316146121ba5760405162461bcd60e51b8152600401610a3290614ef7565b60208114156121dd5760006121d182840184614a61565b90506117248482612741565b60006121eb82840184614747565b805190915060005b818110156113015761222c8684838151811061221f57634e487b7160e01b600052603260045260246000fd5b6020026020010151612741565b80612236816150df565b9150506121f3565b610134546001600160a01b0316612253612732565b6001600160a01b0316146122795760405162461bcd60e51b8152600401610a3290614e2e565b611724848484848080601f01602080910402602001604051908101604052809392919081815260200183838082843760009201919091525061355b92505050565b806122c6610e30612732565b6122e25760405162461bcd60e51b8152600401610a3290614d93565b8130331415612316576122f36125cc565b81146123115760405162461bcd60e51b8152600401610a3290614e75565b61231f565b61231f816125e1565b610f1c87878787876137c7565b610134546001600160a01b0316612341612732565b6001600160a01b0316146123675760405162461bcd60e51b8152600401610a3290614e2e565b6123ae8a8a8a8a8a8a8a8a8a8a8080601f016020809104026020016040519081016040528093929190818152602001838380828437600092019190915250612f6792505050565b50505050505050505050565b60006123c4612732565b6001600160a01b038116600090815261013560205260409020549091506124375760405162461bcd60e51b815260206004820152602160248201527f52656769737472793a20524556455253455f5245434f52445f49535f454d50546044820152605960f81b6064820152608401610a32565b610f9e816137dd565b6060816001600160401b0381111561246857634e487b7160e01b600052604160045260246000fd5b60405190808252806020026020018201604052801561249b57816020015b60608152602001906001900390816124865790505b50905060005b82811015612516576124d88484838181106124cc57634e487b7160e01b600052603260045260246000fd5b90506020020135611de3565b8282815181106124f857634e487b7160e01b600052603260045260246000fd5b6020026020010181905250808061250e906150df565b9150506124a1565b5092915050565b60006001600160e01b031982166380ac58cd60e01b148061254e57506001600160e01b03198216635b5e139f60e01b145b8061094457506301ffc9a760e01b6001600160e01b0319831614610944565b6000818152606760205260409020546001600160a01b0316610f9e5760405162461bcd60e51b8152602060048201526018602482015277115490cdcc8c4e881a5b9d985b1a59081d1bdad95b88125160421b6044820152606401610a32565b6000303314156125de5750601f193601355b90565b600081815261010060205260409020546125fc906001614fad565b6000918252610100602052604090912055565b600061261a8261135b565b9050806001600160a01b0316836001600160a01b031614156126885760405162461bcd60e51b815260206004820152602160248201527f4552433732313a20617070726f76616c20746f2063757272656e74206f776e656044820152603960f91b6064820152608401610a32565b806001600160a01b031661269a612732565b6001600160a01b031614806126b657506126b68161089f612732565b6127285760405162461bcd60e51b815260206004820152603e60248201527f4552433732313a20617070726f76652063616c6c6572206973206e6f7420746f60448201527f6b656e206f776e6572206e6f7220617070726f76656420666f7220616c6c00006064820152608401610a32565b610a538383613822565b600061273c613890565b905090565b6001600160a01b0382166127975760405162461bcd60e51b815260206004820181905260248201527f4552433732313a206d696e7420746f20746865207a65726f20616464726573736044820152606401610a32565b6000818152606760205260409020546001600160a01b0316156127fc5760405162461bcd60e51b815260206004820152601c60248201527f4552433732313a20746f6b656e20616c7265616479206d696e746564000000006044820152606401610a32565b612808600083836138ac565b6001600160a01b0382166000908152606860205260408120805460019290612831908490614fad565b909155505060008181526067602052604080822080546001600160a01b0319166001600160a01b03861690811790915590518392907fddf252ad1be2c89b69c2b068fc378daa952ba7f163c4a11628f55a4df523b3ef908290a45050565b6000612899612e54565b90506128a58183613822565b60008051602061517c83398151915254604080516020808201869052825180830390910181528183019283905263e3dec8fb60e01b9092526001600160a01b0390921691829163e3dec8fb91612902918891309190604401614c5d565b600060405180830381600087803b15801561291c57600080fd5b505af1158015611214573d6000803e3d6000fd5b6060610e1d836040516020016129469190614bc3565b6040516020818303038152906040528051906020012060001c836138d4565b6060612970856125e1565b600080876001600160a01b03168661298a8b8a8989613993565b6040516129979190614bc3565b60006040518083038160008787f1925050503d80600081146129d5576040519150601f19603f3d011682016040523d82523d6000602084013e6129da565b606091505b5090925090506129eb603f87614fc5565b5a11612a0757634e487b7160e01b600052600160045260246000fd5b612a4782826040518060400160405280601a81526020017f42617365466f727761726465723a2043414c4c5f4641494c45440000000000008152506139c3565b9998505050505050505050565b600080612a608361135b565b9050806001600160a01b0316846001600160a01b03161480612aa757506001600160a01b038082166000908152606a602090815260408083209388168352929052205460ff165b80610d115750836001600160a01b0316612ac0846109dc565b6001600160a01b031614949350505050565b612adb816139fc565b604051602001612aed91815260200190565b60408051601f198184030181528282528051602091820120600085815260cb9092529181209190915582917f185c30856dadb58bf097c1f665a52ada7029752dbcad008ea3fefc73bee8c9fe9190a250565b826001600160a01b0316612b528261135b565b6001600160a01b031614612bb65760405162461bcd60e51b815260206004820152602560248201527f4552433732313a207472616e736665722066726f6d20696e636f72726563742060448201526437bbb732b960d91b6064820152608401610a32565b6001600160a01b038216612c185760405162461bcd60e51b8152602060048201526024808201527f4552433732313a207472616e7366657220746f20746865207a65726f206164646044820152637265737360e01b6064820152608401610a32565b612c238383836138ac565b612c2e600082613822565b6001600160a01b0383166000908152606860205260408120805460019290612c57908490614fd9565b90915550506001600160a01b0382166000908152606860205260408120805460019290612c85908490614fad565b909155505060008181526067602052604080822080546001600160a01b0319166001600160a01b0386811691821790925591518493918716917fddf252ad1be2c89b69c2b068fc378daa952ba7f163c4a11628f55a4df523b3ef91a4505050565b60005b8481101561130157612d53868683818110612d1457634e487b7160e01b600052603260045260246000fd5b90506020020135858584818110612d3b57634e487b7160e01b600052603260045260246000fd5b9050602002810190612d4d9190614f39565b856130a1565b80612d5d816150df565b915050612ce9565b6000612d708261135b565b9050612d7e816000846138ac565b612d89600083613822565b6001600160a01b0381166000908152606860205260408120805460019290612db2908490614fd9565b909155505060008281526067602052604080822080546001600160a01b0319169055518391906001600160a01b038416907fddf252ad1be2c89b69c2b068fc378daa952ba7f163c4a11628f55a4df523b3ef908390a45050565b6001600160a01b03821660008181526101356020526040808220849055518392917feb76a21470988c474a21f690cc28fee1ed511bd812dc3c21fd0f49c5e5d4708a91a35050565b60008060008051602061517c8339815191525460405163721804d360e11b81523060048201526001600160a01b039091169150600090829063e43009a69060240160206040518083038186803b158015612ead57600080fd5b505afa158015612ec1573d6000803e3d6000fd5b505050506040513d601f19601f82011682018060405250810190612ee59190614808565b60405163e66f960360e01b8152600481018290529091506001600160a01b0383169063e66f96039060240160206040518083038186803b158015612f2857600080fd5b505afa158015612f3c573d6000803e3d6000fd5b505050506040513d601f19601f82011682018060405250810190612f6091906141cd565b9250505090565b612faa898989898080601f0160208091040260200160405190810160405280939291908181526020018383808284376000920191909152508792506135a7915050565b612fb7858585858c6132aa565b505050505050505050565b60008585604051602001612fd7929190614c1e565b60408051601f198184030181528282528051602091820120601f890182900482028401820190925287835290925061302b918391899089908190840183828082843760009201919091525061314192505050565b6113018187878080601f01602080910402602001604051908101604052809392919081815260200183838082843760009201919091525050604080516020601f8b018190048102820181019092528981529250899150889081908401838280828437600092019190915250889250613a28915050565b6130aa84613b63565b6130f65760405162461bcd60e51b815260206004820152601c60248201527f5265636f726453746f726167653a204b45595f4e4f545f464f554e44000000006044820152606401610a32565b6117248461310386611de3565b85858080601f016020809104026020016040519081016040528093929190818152602001838380828437600092019190915250879250613a28915050565b61314a82613b63565b61111757600082815260c9602090815260409091208251610a5392840190614011565b60608061317984611de3565b915061318584846138d4565b90509250929050565b60008151600014156131da5760405162461bcd60e51b815260206004820152601560248201527452656769737472793a204c4142454c5f454d50545960581b6044820152606401610a32565b82826040516020016131ec9190614bc3565b6040516020818303038152906040528051906020012060405160200161321c929190918252602082015260400190565b60408051601f1981840301815291905280516020909101209392505050565b60008051602061517c83398151915254604051633805550f60e01b81526001600160a01b03909116908190633805550f9061327c9086908690600401614d47565b600060405180830381600087803b15801561329657600080fd5b505af1158015610f1c573d6000803e3d6000fd5b60005b84811015611301576133228686838181106132d857634e487b7160e01b600052603260045260246000fd5b90506020028101906132ea9190614f39565b86868581811061330a57634e487b7160e01b600052603260045260246000fd5b905060200281019061331c9190614f39565b86612fc2565b8061332c816150df565b9150506132ad565b816001600160a01b0316836001600160a01b031614156133965760405162461bcd60e51b815260206004820152601960248201527f4552433732313a20617070726f766520746f2063616c6c6572000000000000006044820152606401610a32565b6001600160a01b038381166000818152606a6020908152604080832094871680845294825291829020805460ff191686151590811790915591519182527f17307eab39ab6107e8899845ad3d59bd9653f200f220920489ca2b5937696c31910160405180910390a3505050565b6040838101519051636ccbae5f60e01b8152600481019190915260009081903090636ccbae5f9060240160206040518083038186803b15801561344557600080fd5b505afa158015613459573d6000803e3d6000fd5b505050506040513d601f19601f8201168201806040525081019061347d9190614808565b9050600061352b8660600151805190602001208688602001516040516020016134cb9392919092835260609190911b6bffffffffffffffffffffffff19166020830152603482015260540190565b60408051601f1981840301815282825280516020918201207f19457468657265756d205369676e6564204d6573736167653a0a33320000000084830152603c8085019190915282518085039091018152605c909301909152815191012090565b905081866020015114801561355157508551613551906001600160a01b03168286613b89565b9695505050505050565b6135658383612741565b817fc5beef08f693b11c316c0c8394a377a0033c9cf701b8cd8afd79cecef60c3952826040516135959190614d5b565b60405180910390a2610a538383613cd9565b6135b2848483613d1a565b827fc5beef08f693b11c316c0c8394a377a0033c9cf701b8cd8afd79cecef60c3952836040516135e29190614d5b565b60405180910390a26117248484613cd9565b6135ff848484612b3f565b61360b84848484613d4d565b6117245760405162461bcd60e51b8152600401610a3290614ddc565b600054610100900460ff1661364e5760405162461bcd60e51b8152600401610a3290614eac565b8151613661906065906020850190614011565b508051610a53906066906020840190614011565b600054610100900460ff1661369c5760405162461bcd60e51b8152600401610a3290614eac565b565b60606101338054610959906150a4565b6060816136d25750506040805180820190915260018152600360fc1b602082015290565b8160005b81156136fc57806136e6816150df565b91506136f59050600a83614fc5565b91506136d6565b6000816001600160401b0381111561372457634e487b7160e01b600052604160045260246000fd5b6040519080825280601f01601f19166020018201604052801561374e576020820181803683370190505b5090505b8415610d1157613763600183614fd9565b9150613770600a866150fa565b61377b906030614fad565b60f81b81838151811061379e57634e487b7160e01b600052603260045260246000fd5b60200101906001600160f81b031916908160001a9053506137c0600a86614fc5565b9450613752565b6137d081612ad2565b610ea385858585856132aa565b6001600160a01b03811660008181526101356020526040808220829055517ffcf5eec0cfa3e6332f5f0e63ec242d71f866a61d121d6cdf5c2eb3b668a26c4f9190a250565b600081815260696020526040902080546001600160a01b0319166001600160a01b03841690811790915581906138578261135b565b6001600160a01b03167f8c5be1e5ebec7d5bd14f71427d1e84f3dd0314c0f7b2291e5b200ac8c7c3b92560405160405180910390a45050565b6000303314156138a7575060331936013560601c90565b503390565b6001600160a01b0383166000908152610135602052604090205415610a5357610a53836137dd565b606060ca60006138e3846139fc565b81526020019081526020016000206000848152602001908152602001600020805461390d906150a4565b80601f0160208091040260200160405190810160405280929190818152602001828054613939906150a4565b80156139865780601f1061395b57610100808354040283529160200191613986565b820191906000526020600020905b81548152906001019060200180831161396957829003601f168201915b5050505050905092915050565b60608285856040516020016139aa93929190614bdf565b6040516020818303038152906040529050949350505050565b606083156139d2575081610e1d565b8251156139e25782518084602001fd5b8160405162461bcd60e51b8152600401610a329190614d5b565b600081815260cb602052604081205415613a2457600082815260cb6020526040902054610944565b5090565b60ca6000613a35836139fc565b815260200190815260200160002060008581526020019081526020016000208054613a5f906150a4565b15159050613ab65782604051613a759190614bc3565b6040518091039020817f7ae4f661958fbecc2f77be6b0eb280d2a6f604b29e1e7221c82b9da0c4af7f8685604051613aad9190614d5b565b60405180910390a35b8160ca6000613ac4846139fc565b815260200190815260200160002060008681526020019081526020016000209080519060200190613af6929190614011565b5081604051613b059190614bc3565b604051809103902083604051613b1b9190614bc3565b6040518091039020827f851ffe8e74d5015261dba0a1f9e1b0e5d42c5af5d2ad1908fee897c7d80a0d928686604051613b55929190614d6e565b60405180910390a450505050565b600081815260c9602052604081208054829190613b7f906150a4565b9050119050919050565b6000806000613b988585613e5e565b90925090506000816004811115613bbf57634e487b7160e01b600052602160045260246000fd5b148015613bdd5750856001600160a01b0316826001600160a01b0316145b15613bed57600192505050610e1d565b600080876001600160a01b0316631626ba7e60e01b8888604051602401613c15929190614d2e565b60408051601f198184030181529181526020820180516001600160e01b03166001600160e01b0319909416939093179092529051613c539190614bc3565b600060405180830381855afa9150503d8060008114613c8e576040519150601f19603f3d011682016040523d82523d6000602084013e613c93565b606091505b5091509150818015613ca6575080516020145b8015613ccd57508051630b135d3f60e11b90613ccb9083016020908101908401614808565b145b98975050505050505050565b61dead6001600160a01b03831614801590613d0b57506001600160a01b03821660009081526101356020526040902054155b15611117576111178282612e0c565b613d248383612741565b613d316000848484613d4d565b610a535760405162461bcd60e51b8152600401610a3290614ddc565b60006001600160a01b0384163b15613e5657836001600160a01b031663150b7a02613d76612732565b8786866040518563ffffffff1660e01b8152600401613d989493929190614c89565b602060405180830381600087803b158015613db257600080fd5b505af1925050508015613de2575060408051601f3d908101601f19168201909252613ddf9181019061483c565b60015b613e3c573d808015613e10576040519150601f19603f3d011682016040523d82523d6000602084013e613e15565b606091505b508051613e345760405162461bcd60e51b8152600401610a3290614ddc565b805181602001fd5b6001600160e01b031916630a85bd0160e11b149050610d11565b506001610d11565b600080825160411415613e955760208301516040840151606085015160001a613e8987828585613ea4565b94509450505050613e9d565b506000905060025b9250929050565b6000807f7fffffffffffffffffffffffffffffff5d576e7357a4501ddfe92f46681b20a0831115613edb5750600090506003613f88565b8460ff16601b14158015613ef357508460ff16601c14155b15613f045750600090506004613f88565b6040805160008082526020820180845289905260ff881692820192909252606081018690526080810185905260019060a0016020604051602081039080840390855afa158015613f58573d6000803e3d6000fd5b5050604051601f1901519150506001600160a01b038116613f8157600060019250925050613f88565b9150600090505b94509492505050565b828054613f9d906150a4565b90600052602060002090601f016020900481019282613fbf5760008555614005565b82601f10613fd85782800160ff19823516178555614005565b82800160010185558215614005579182015b82811115614005578235825591602001919060010190613fea565b50613a24929150614085565b82805461401d906150a4565b90600052602060002090601f01602090048101928261403f5760008555614005565b82601f1061405857805160ff1916838001178555614005565b82800160010185558215614005579182015b8281111561400557825182559160200191906001019061406a565b5b80821115613a245760008155600101614086565b60006001600160401b038311156140b3576140b361513a565b6140c6601f8401601f1916602001614f7d565b90508281528383830111156140da57600080fd5b828260208301376000602084830101529392505050565b80356140fc81615150565b919050565b60008083601f840112614112578182fd5b5081356001600160401b03811115614128578182fd5b6020830191508360208260051b8501011115613e9d57600080fd5b803580151581146140fc57600080fd5b60008083601f840112614164578182fd5b5081356001600160401b0381111561417a578182fd5b602083019150836020828501011115613e9d57600080fd5b600082601f8301126141a2578081fd5b610e1d8383356020850161409a565b6000602082840312156141c2578081fd5b8135610e1d81615150565b6000602082840312156141de578081fd5b8151610e1d81615150565b600080604083850312156141fb578081fd5b823561420681615150565b9150602083013561421681615150565b809150509250929050565b600080600060608486031215614235578081fd5b833561424081615150565b9250602084013561425081615150565b929592945050506040919091013590565b600080600080600060808688031215614278578081fd5b853561428381615150565b9450602086013561429381615150565b93506040860135925060608601356001600160401b038111156142b4578182fd5b6142c088828901614153565b969995985093965092949392505050565b600080600080608085870312156142e6578182fd5b84356142f181615150565b9350602085013561430181615150565b92506040850135915060608501356001600160401b03811115614322578182fd5b61432e87828801614192565b91505092959194509250565b6000806040838503121561434c578182fd5b823561435781615150565b915061318560208401614143565b600080600060408486031215614379578081fd5b833561438481615150565b925060208401356001600160401b0381111561439e578182fd5b6143aa86828701614153565b9497909650939450505050565b600080604083850312156143c9578182fd5b82356143d481615150565b946020939093013593505050565b600080600080606085870312156143f7578182fd5b843561440281615150565b93506020850135925060408501356001600160401b03811115614423578283fd5b61442f87828801614153565b95989497509550505050565b60008060008060008060008060a0898b031215614456578586fd5b883561446181615150565b97506020890135965060408901356001600160401b0380821115614483578788fd5b61448f8c838d01614153565b909850965060608b01359150808211156144a7578485fd5b6144b38c838d01614101565b909650945060808b01359150808211156144cb578384fd5b506144d88b828c01614101565b999c989b5096995094979396929594505050565b60008060008060008060008060008060c08b8d03121561450a578384fd5b6145138b6140f1565b995060208b0135985060408b01356001600160401b0380821115614535578586fd5b6145418e838f01614153565b909a50985060608d0135915080821115614559578586fd5b6145658e838f01614101565b909850965060808d013591508082111561457d578586fd5b6145898e838f01614101565b909650945060a08d01359150808211156145a1578384fd5b506145ae8d828e01614153565b915080935050809150509295989b9194979a5092959850565b600080600080600080608087890312156145df578384fd5b86356145ea81615150565b95506020870135945060408701356001600160401b038082111561460c578586fd5b6146188a838b01614153565b90965094506060890135915080821115614630578384fd5b5061463d89828a01614153565b979a9699509497509295939492505050565b600080600080600060608688031215614666578283fd5b85356001600160401b038082111561467c578485fd5b61468889838a01614101565b909750955060208801359150808211156146a0578485fd5b506146ad88828901614101565b96999598509660400135949350505050565b6000806000604084860312156146d3578081fd5b83356001600160401b038111156146e8578182fd5b6146f486828701614101565b909790965060209590950135949350505050565b6000806020838503121561471a578182fd5b82356001600160401b0381111561472f578283fd5b61473b85828601614101565b90969095509350505050565b60006020808385031215614759578182fd5b82356001600160401b038082111561476f578384fd5b818501915085601f830112614782578384fd5b8135818111156147945761479461513a565b8060051b91506147a5848301614f7d565b8181528481019084860184860187018a10156147bf578788fd5b8795505b838610156147e15780358352600195909501949186019186016147c3565b5098975050505050505050565b6000602082840312156147ff578081fd5b610e1d82614143565b600060208284031215614819578081fd5b5051919050565b600060208284031215614831578081fd5b8135610e1d81615165565b60006020828403121561484d578081fd5b8151610e1d81615165565b60008060008060008060006080888a031215614872578081fd5b87356001600160401b0380821115614888578283fd5b6148948b838c01614153565b909950975060208a0135965060408a01359150808211156148b3578283fd5b6148bf8b838c01614101565b909650945060608a01359150808211156148d7578283fd5b506148e48a828b01614101565b989b979a50959850939692959293505050565b60008060208385031215614909578182fd5b82356001600160401b0381111561491e578283fd5b61473b85828601614153565b600080600080600060608688031215614941578283fd5b85356001600160401b0380821115614957578485fd5b61496389838a01614153565b9097509550602088013591508082111561497b578485fd5b506146ad88828901614153565b60008060006040848603121561499c578081fd5b83356001600160401b038111156149b1578182fd5b6146f486828701614153565b6000602082840312156149ce578081fd5b81356001600160401b038111156149e3578182fd5b8201601f810184136149f3578182fd5b610d118482356020840161409a565b600080600060408486031215614a16578081fd5b83356001600160401b0380821115614a2c578283fd5b9085019060808288031215614a3f578283fd5b90935060208501359080821115614a54578283fd5b506143aa86828701614153565b600060208284031215614a72578081fd5b5035919050565b600080600060408486031215614a8d578081fd5b8335925060208401356001600160401b0381111561439e578182fd5b60008060008060608587031215614abe578182fd5b8435935060208501356001600160401b03811115614ada578283fd5b614ae687828801614153565b9598909750949560400135949350505050565b60008060408385031215614b0b578182fd5b50508035926020909101359150565b600081518084526020808501808196508360051b81019150828601855b85811015614b61578284038952614b4f848351614b97565b98850198935090840190600101614b37565b5091979650505050505050565b81835281816020850137506000828201602090810191909152601f909101601f19169091010190565b60008151808452614baf816020860160208601615078565b601f01601f19169290920160200192915050565b60008251614bd5818460208701615078565b9190910192915050565b60008451614bf1818460208901615078565b60609490941b6bffffffffffffffffffffffff191691909301908152601481019190915260340192915050565b8183823760009101908152919050565b60008351614c40818460208801615078565b835190830190614c54818360208801615078565b01949350505050565b6001600160a01b03848116825283166020820152606060408201819052600090610ba590830184614b97565b6001600160a01b038581168252841660208201526040810183905260806060820181905260009061355190830184614b97565b602081526000610e1d6020830184614b1a565b604081526000614ce26040830185614b1a565b8281036020840152610e198185614b1a565b6020808252810182905260006001600160fb1b03831115614d13578081fd5b8260051b808560408501379190910160400190815292915050565b828152604060208201526000610d116040830184614b97565b602081526000610d11602083018486614b6e565b602081526000610e1d6020830184614b97565b604081526000614d816040830185614b97565b8281036020840152610e198185614b97565b60208082526029908201527f52656769737472793a2053454e4445525f49535f4e4f545f415050524f5645446040820152682fa7a92fa7aba722a960b91b606082015260800190565b60208082526032908201527f4552433732313a207472616e7366657220746f206e6f6e20455243373231526560408201527131b2b4bb32b91034b6b83632b6b2b73a32b960711b606082015260800190565b60208082526027908201527f52656769737472793a2053454e4445525f49535f4e4f545f4d494e54494e475f60408201526626a0a720a3a2a960c91b606082015260800190565b60208082526017908201527f52656769737472793a20544f4b454e5f494e56414c4944000000000000000000604082015260600190565b6020808252602b908201527f496e697469616c697a61626c653a20636f6e7472616374206973206e6f74206960408201526a6e697469616c697a696e6760a81b606082015260800190565b60208082526022908201527f52656769737472793a20494e53554646494349454e545f5045524d495353494f6040820152614e5360f01b606082015260800190565b6000808335601e19843603018112614f4f578283fd5b8301803591506001600160401b03821115614f68578283fd5b602001915036819003821315613e9d57600080fd5b604051601f8201601f191681016001600160401b0381118282101715614fa557614fa561513a565b604052919050565b60008219821115614fc057614fc061510e565b500190565b600082614fd457614fd4615124565b500490565b600082821015614feb57614feb61510e565b500390565b600060808236031215615001578081fd5b604051608081016001600160401b0382821081831117156150245761502461513a565b816040528435915061503582615150565b8183526020850135602084015260408501356040840152606085013591508082111561505f578384fd5b5061506c36828601614192565b60608301525092915050565b60005b8381101561509357818101518382015260200161507b565b838111156117245750506000910152565b600181811c908216806150b857607f821691505b602082108114156150d957634e487b7160e01b600052602260045260246000fd5b50919050565b60006000198214156150f3576150f361510e565b5060010190565b60008261510957615109615124565b500690565b634e487b7160e01b600052601160045260246000fd5b634e487b7160e01b600052601260045260246000fd5b634e487b7160e01b600052604160045260246000fd5b6001600160a01b0381168114610f9e57600080fd5b6001600160e01b031981168114610f9e57600080fdfebe2bb46ac0377341a1ec5c3116d70fd5029d704bd46292e58f6265dd177ebafea164736f6c6343000804000a",
  "linkReferences": {},
  "deployedLinkReferences": {}
}