{
  "_format": "hh-sol-artifact-1",
  "contractName": "UNSRegistry",
  "sourceName": "contracts/UNSRegistry.sol",
  "abi": [
    {
      "anonymous": false,
      "inputs": [
        {
          "indexed": false,
          "internalType": "address",
          "name": "previousAdmin",
          "type": "address"
        },
        {
          "indexed": false,
          "internalType": "address",
          "name": "newAdmin",
          "type": "address"
        }
      ],
      "name": "AdminChanged",
      "type": "event"
    },
    {
      "anonymous": false,
      "inputs": [
        {
          "indexed": true,
          "internalType": "address",
          "name": "owner",
          "type": "address"
        },
        {
          "indexed": true,
          "internalType": "address",
          "name": "approved",
          "type": "address"
        },
        {
          "indexed": true,
          "internalType": "uint256",
          "name": "tokenId",
          "type": "uint256"
        }
      ],
      "name": "Approval",
      "type": "event"
    },
    {
      "anonymous": false,
      "inputs": [
        {
          "indexed": true,
          "internalType": "address",
          "name": "owner",
          "type": "address"
        },
        {
          "indexed": true,
          "internalType": "address",
          "name": "operator",
          "type": "address"
        },
        {
          "indexed": false,
          "internalType": "bool",
          "name": "approved",
          "type": "bool"
        }
      ],
      "name": "ApprovalForAll",
      "type": "event"
    },
    {
      "anonymous": false,
      "inputs": [
        {
          "indexed": false,
          "internalType": "uint8",
          "name": "version",
          "type": "uint8"
        }
      ],
      "name": "Initialized",
      "type": "event"
    },
    {
      "anonymous": false,
      "inputs": [
        {
          "indexed": true,
          "internalType": "uint256",
          "name": "tokenId",
          "type": "uint256"
        },
        {
          "indexed": true,
          "internalType": "string",
          "name": "keyIndex",
          "type": "string"
        },
        {
          "indexed": false,
          "internalType": "string",
          "name": "key",
          "type": "string"
        }
      ],
      "name": "NewKey",
      "type": "event"
    },
    {
      "anonymous": false,
      "inputs": [
        {
          "indexed": true,
          "internalType": "uint256",
          "name": "tokenId",
          "type": "uint256"
        },
        {
          "indexed": false,
          "internalType": "string",
          "name": "uri",
          "type": "string"
        }
      ],
      "name": "NewURI",
      "type": "event"
    },
    {
      "anonymous": false,
      "inputs": [
        {
          "indexed": false,
          "internalType": "string",
          "name": "prefix",
          "type": "string"
        }
      ],
      "name": "NewURIPrefix",
      "type": "event"
    },
    {
      "anonymous": false,
      "inputs": [
        {
          "indexed": true,
          "internalType": "address",
          "name": "addr",
          "type": "address"
        }
      ],
      "name": "RemoveReverse",
      "type": "event"
    },
    {
      "anonymous": false,
      "inputs": [
        {
          "indexed": true,
          "internalType": "uint256",
          "name": "tokenId",
          "type": "uint256"
        }
      ],
      "name": "ResetRecords",
      "type": "event"
    },
    {
      "anonymous": false,
      "inputs": [
        {
          "indexed": true,
          "internalType": "uint256",
          "name": "tokenId",
          "type": "uint256"
        },
        {
          "indexed": true,
          "internalType": "string",
          "name": "keyIndex",
          "type": "string"
        },
        {
          "indexed": true,
          "internalType": "string",
          "name": "valueIndex",
          "type": "string"
        },
        {
          "indexed": false,
          "internalType": "string",
          "name": "key",
          "type": "string"
        },
        {
          "indexed": false,
          "internalType": "string",
          "name": "value",
          "type": "string"
        }
      ],
      "name": "Set",
      "type": "event"
    },
    {
      "anonymous": false,
      "inputs": [
        {
          "indexed": true,
          "internalType": "address",
          "name": "addr",
          "type": "address"
        },
        {
          "indexed": true,
          "internalType": "uint256",
          "name": "tokenId",
          "type": "uint256"
        }
      ],
      "name": "SetReverse",
      "type": "event"
    },
    {
      "anonymous": false,
      "inputs": [
        {
          "indexed": true,
          "internalType": "address",
          "name": "from",
          "type": "address"
        },
        {
          "indexed": true,
          "internalType": "address",
          "name": "to",
          "type": "address"
        },
        {
          "indexed": true,
          "internalType": "uint256",
          "name": "tokenId",
          "type": "uint256"
        }
      ],
      "name": "Transfer",
      "type": "event"
    },
    {
      "anonymous": false,
      "inputs": [
        {
          "indexed": true,
          "internalType": "address",
          "name": "implementation",
          "type": "address"
        }
      ],
      "name": "Upgraded",
      "type": "event"
    },
    {
      "anonymous": false,
      "inputs": [
        {
          "indexed": true,
          "internalType": "address",
          "name": "user",
          "type": "address"
        },
        {
          "indexed": false,
          "internalType": "uint256[]",
          "name": "tokenIds",
          "type": "uint256[]"
        }
      ],
      "name": "WithdrawnBatch",
      "type": "event"
    },
    {
      "inputs": [],
      "name": "BATCH_LIMIT",
      "outputs": [
        {
          "internalType": "uint256",
          "name": "",
          "type": "uint256"
        }
      ],
      "stateMutability": "view",
      "type": "function"
    },
    {
      "inputs": [],
      "name": "NAME",
      "outputs": [
        {
          "internalType": "string",
          "name": "",
          "type": "string"
        }
      ],
      "stateMutability": "view",
      "type": "function"
    },
    {
      "inputs": [],
      "name": "VERSION",
      "outputs": [
        {
          "internalType": "string",
          "name": "",
          "type": "string"
        }
      ],
      "stateMutability": "view",
      "type": "function"
    },
    {
      "inputs": [
        {
          "internalType": "string",
          "name": "key",
          "type": "string"
        }
      ],
      "name": "addKey",
      "outputs": [],
      "stateMutability": "nonpayable",
      "type": "function"
    },
    {
      "inputs": [
        {
          "internalType": "address",
          "name": "addr",
          "type": "address"
        }
      ],
      "name": "addProxyReader",
      "outputs": [],
      "stateMutability": "nonpayable",
      "type": "function"
    },
    {
      "inputs": [
        {
          "internalType": "address",
          "name": "to",
          "type": "address"
        },
        {
          "internalType": "uint256",
          "name": "tokenId",
          "type": "uint256"
        }
      ],
      "name": "approve",
      "outputs": [],
      "stateMutability": "nonpayable",
      "type": "function"
    },
    {
      "inputs": [
        {
          "internalType": "address",
          "name": "owner",
          "type": "address"
        }
      ],
      "name": "balanceOf",
      "outputs": [
        {
          "internalType": "uint256",
          "name": "",
          "type": "uint256"
        }
      ],
      "stateMutability": "view",
      "type": "function"
    },
    {
      "inputs": [
        {
          "internalType": "uint256",
          "name": "tokenId",
          "type": "uint256"
        }
      ],
      "name": "burn",
      "outputs": [],
      "stateMutability": "nonpayable",
      "type": "function"
    },
    {
      "inputs": [
        {
          "internalType": "uint256",
          "name": "tokenId",
          "type": "uint256"
        }
      ],
      "name": "burnTLDL1",
      "outputs": [],
      "stateMutability": "nonpayable",
      "type": "function"
    },
    {
      "inputs": [
        {
          "internalType": "address",
          "name": "user",
          "type": "address"
        },
        {
          "internalType": "bytes",
          "name": "depositData",
          "type": "bytes"
        }
      ],
      "name": "deposit",
      "outputs": [],
      "stateMutability": "nonpayable",
      "type": "function"
    },
    {
      "inputs": [
        {
          "internalType": "uint256",
          "name": "tokenId",
          "type": "uint256"
        }
      ],
      "name": "depositToPolygon",
      "outputs": [],
      "stateMutability": "nonpayable",
      "type": "function"
    },
    {
      "inputs": [
        {
          "components": [
            {
              "internalType": "address",
              "name": "from",
              "type": "address"
            },
            {
              "internalType": "uint256",
              "name": "nonce",
              "type": "uint256"
            },
            {
              "internalType": "uint256",
              "name": "tokenId",
              "type": "uint256"
            },
            {
              "internalType": "bytes",
              "name": "data",
              "type": "bytes"
            }
          ],
          "internalType": "struct IForwarder.ForwardRequest",
          "name": "req",
          "type": "tuple"
        },
        {
          "internalType": "bytes",
          "name": "signature",
          "type": "bytes"
        }
      ],
      "name": "execute",
      "outputs": [
        {
          "internalType": "bytes",
          "name": "",
          "type": "bytes"
        }
      ],
      "stateMutability": "nonpayable",
      "type": "function"
    },
    {
      "inputs": [
        {
          "internalType": "uint256",
          "name": "tokenId",
          "type": "uint256"
        }
      ],
      "name": "exists",
      "outputs": [
        {
          "internalType": "bool",
          "name": "",
          "type": "bool"
        }
      ],
      "stateMutability": "view",
      "type": "function"
    },
    {
      "inputs": [
        {
          "internalType": "string",
          "name": "key",
          "type": "string"
        },
        {
          "internalType": "uint256",
          "name": "tokenId",
          "type": "uint256"
        }
      ],
      "name": "get",
      "outputs": [
        {
          "internalType": "string",
          "name": "value",
          "type": "string"
        }
      ],
      "stateMutability": "view",
      "type": "function"
    },
    {
      "inputs": [
        {
          "internalType": "uint256",
          "name": "tokenId",
          "type": "uint256"
        }
      ],
      "name": "getApproved",
      "outputs": [
        {
          "internalType": "address",
          "name": "",
          "type": "address"
        }
      ],
      "stateMutability": "view",
      "type": "function"
    },
    {
      "inputs": [
        {
          "internalType": "uint256",
          "name": "keyHash",
          "type": "uint256"
        },
        {
          "internalType": "uint256",
          "name": "tokenId",
          "type": "uint256"
        }
      ],
      "name": "getByHash",
      "outputs": [
        {
          "internalType": "string",
          "name": "key",
          "type": "string"
        },
        {
          "internalType": "string",
          "name": "value",
          "type": "string"
        }
      ],
      "stateMutability": "view",
      "type": "function"
    },
    {
      "inputs": [
        {
          "internalType": "uint256",
          "name": "keyHash",
          "type": "uint256"
        }
      ],
      "name": "getKey",
      "outputs": [
        {
          "internalType": "string",
          "name": "",
          "type": "string"
        }
      ],
      "stateMutability": "view",
      "type": "function"
    },
    {
      "inputs": [
        {
          "internalType": "uint256[]",
          "name": "hashes",
          "type": "uint256[]"
        }
      ],
      "name": "getKeys",
      "outputs": [
        {
          "internalType": "string[]",
          "name": "values",
          "type": "string[]"
        }
      ],
      "stateMutability": "view",
      "type": "function"
    },
    {
      "inputs": [
        {
          "internalType": "string[]",
          "name": "keys",
          "type": "string[]"
        },
        {
          "internalType": "uint256",
          "name": "tokenId",
          "type": "uint256"
        }
      ],
      "name": "getMany",
      "outputs": [
        {
          "internalType": "string[]",
          "name": "values",
          "type": "string[]"
        }
      ],
      "stateMutability": "view",
      "type": "function"
    },
    {
      "inputs": [
        {
          "internalType": "uint256[]",
          "name": "keyHashes",
          "type": "uint256[]"
        },
        {
          "internalType": "uint256",
          "name": "tokenId",
          "type": "uint256"
        }
      ],
      "name": "getManyByHash",
      "outputs": [
        {
          "internalType": "string[]",
          "name": "keys",
          "type": "string[]"
        },
        {
          "internalType": "string[]",
          "name": "values",
          "type": "string[]"
        }
      ],
      "stateMutability": "view",
      "type": "function"
    },
    {
      "inputs": [
        {
          "internalType": "address",
          "name": "mintingManager",
          "type": "address"
        }
      ],
      "name": "initialize",
      "outputs": [],
      "stateMutability": "nonpayable",
      "type": "function"
    },
    {
      "inputs": [
        {
          "internalType": "address",
          "name": "owner",
          "type": "address"
        },
        {
          "internalType": "address",
          "name": "operator",
          "type": "address"
        }
      ],
      "name": "isApprovedForAll",
      "outputs": [
        {
          "internalType": "bool",
          "name": "",
          "type": "bool"
        }
      ],
      "stateMutability": "view",
      "type": "function"
    },
    {
      "inputs": [
        {
          "internalType": "address",
          "name": "spender",
          "type": "address"
        },
        {
          "internalType": "uint256",
          "name": "tokenId",
          "type": "uint256"
        }
      ],
      "name": "isApprovedOrOwner",
      "outputs": [
        {
          "internalType": "bool",
          "name": "",
          "type": "bool"
        }
      ],
      "stateMutability": "view",
      "type": "function"
    },
    {
      "inputs": [
        {
          "internalType": "address",
          "name": "forwarder",
          "type": "address"
        }
      ],
      "name": "isTrustedForwarder",
      "outputs": [
        {
          "internalType": "bool",
          "name": "",
          "type": "bool"
        }
      ],
      "stateMutability": "view",
      "type": "function"
    },
    {
      "inputs": [
        {
          "internalType": "address",
          "name": "user",
          "type": "address"
        },
        {
          "internalType": "uint256",
          "name": "tokenId",
          "type": "uint256"
        }
      ],
      "name": "mint",
      "outputs": [],
      "stateMutability": "nonpayable",
      "type": "function"
    },
    {
      "inputs": [
        {
          "internalType": "address",
          "name": "user",
          "type": "address"
        },
        {
          "internalType": "uint256",
          "name": "tokenId",
          "type": "uint256"
        },
        {
          "internalType": "bytes",
          "name": "",
          "type": "bytes"
        }
      ],
      "name": "mint",
      "outputs": [],
      "stateMutability": "nonpayable",
      "type": "function"
    },
    {
      "inputs": [
        {
          "internalType": "uint256",
          "name": "tokenId",
          "type": "uint256"
        },
        {
          "internalType": "string",
          "name": "uri",
          "type": "string"
        }
      ],
      "name": "mintTLD",
      "outputs": [],
      "stateMutability": "nonpayable",
      "type": "function"
    },
    {
      "inputs": [
        {
          "internalType": "address",
          "name": "to",
          "type": "address"
        },
        {
          "internalType": "string[]",
          "name": "labels",
          "type": "string[]"
        },
        {
          "internalType": "string[]",
          "name": "keys",
          "type": "string[]"
        },
        {
          "internalType": "string[]",
          "name": "values",
          "type": "string[]"
        }
      ],
      "name": "mintWithRecords",
      "outputs": [],
      "stateMutability": "nonpayable",
      "type": "function"
    },
    {
      "inputs": [
        {
          "internalType": "uint256",
          "name": "tokenId",
          "type": "uint256"
        }
      ],
      "name": "moveTLDOwnershipL2",
      "outputs": [],
      "stateMutability": "nonpayable",
      "type": "function"
    },
    {
      "inputs": [],
      "name": "name",
      "outputs": [
        {
          "internalType": "string",
          "name": "",
          "type": "string"
        }
      ],
      "stateMutability": "view",
      "type": "function"
    },
    {
      "inputs": [
        {
          "internalType": "string[]",
          "name": "labels",
          "type": "string[]"
        }
      ],
      "name": "namehash",
      "outputs": [
        {
          "internalType": "uint256",
          "name": "",
          "type": "uint256"
        }
      ],
      "stateMutability": "pure",
      "type": "function"
    },
    {
      "inputs": [
        {
          "internalType": "uint256",
          "name": "tokenId",
          "type": "uint256"
        }
      ],
      "name": "nonceOf",
      "outputs": [
        {
          "internalType": "uint256",
          "name": "",
          "type": "uint256"
        }
      ],
      "stateMutability": "view",
      "type": "function"
    },
    {
      "inputs": [
        {
          "internalType": "address",
          "name": "",
          "type": "address"
        },
        {
          "internalType": "address",
          "name": "from",
          "type": "address"
        },
        {
          "internalType": "uint256",
          "name": "tokenId",
          "type": "uint256"
        },
        {
          "internalType": "bytes",
          "name": "data",
          "type": "bytes"
        }
      ],
      "name": "onERC721Received",
      "outputs": [
        {
          "internalType": "bytes4",
          "name": "",
          "type": "bytes4"
        }
      ],
      "stateMutability": "nonpayable",
      "type": "function"
    },
    {
      "inputs": [
        {
          "internalType": "uint256",
          "name": "tokenId",
          "type": "uint256"
        }
      ],
      "name": "ownerOf",
      "outputs": [
        {
          "internalType": "address",
          "name": "",
          "type": "address"
        }
      ],
      "stateMutability": "view",
      "type": "function"
    },
    {
      "inputs": [
        {
          "internalType": "string[]",
          "name": "keys",
          "type": "string[]"
        },
        {
          "internalType": "string[]",
          "name": "values",
          "type": "string[]"
        },
        {
          "internalType": "uint256",
          "name": "tokenId",
          "type": "uint256"
        }
      ],
      "name": "reconfigure",
      "outputs": [],
      "stateMutability": "nonpayable",
      "type": "function"
    },
    {
      "inputs": [],
      "name": "removeReverse",
      "outputs": [],
      "stateMutability": "nonpayable",
      "type": "function"
    },
    {
      "inputs": [
        {
          "internalType": "uint256",
          "name": "tokenId",
          "type": "uint256"
        }
      ],
      "name": "reset",
      "outputs": [],
      "stateMutability": "nonpayable",
      "type": "function"
    },
    {
      "inputs": [
        {
          "internalType": "uint256",
          "name": "tokenId",
          "type": "uint256"
        }
      ],
      "name": "resolverOf",
      "outputs": [
        {
          "internalType": "address",
          "name": "",
          "type": "address"
        }
      ],
      "stateMutability": "view",
      "type": "function"
    },
    {
      "inputs": [
        {
          "internalType": "address",
          "name": "addr",
          "type": "address"
        }
      ],
      "name": "reverseOf",
      "outputs": [
        {
          "internalType": "uint256",
          "name": "reverse",
          "type": "uint256"
        }
      ],
      "stateMutability": "view",
      "type": "function"
    },
    {
      "inputs": [],
      "name": "root",
      "outputs": [
        {
          "internalType": "uint256",
          "name": "",
          "type": "uint256"
        }
      ],
      "stateMutability": "pure",
      "type": "function"
    },
    {
      "inputs": [
        {
          "internalType": "address",
          "name": "from",
          "type": "address"
        },
        {
          "internalType": "address",
          "name": "to",
          "type": "address"
        },
        {
          "internalType": "uint256",
          "name": "tokenId",
          "type": "uint256"
        }
      ],
      "name": "safeTransferFrom",
      "outputs": [],
      "stateMutability": "nonpayable",
      "type": "function"
    },
    {
      "inputs": [
        {
          "internalType": "address",
          "name": "from",
          "type": "address"
        },
        {
          "internalType": "address",
          "name": "to",
          "type": "address"
        },
        {
          "internalType": "uint256",
          "name": "tokenId",
          "type": "uint256"
        },
        {
          "internalType": "bytes",
          "name": "data",
          "type": "bytes"
        }
      ],
      "name": "safeTransferFrom",
      "outputs": [],
      "stateMutability": "nonpayable",
      "type": "function"
    },
    {
      "inputs": [
        {
          "internalType": "string",
          "name": "key",
          "type": "string"
        },
        {
          "internalType": "string",
          "name": "value",
          "type": "string"
        },
        {
          "internalType": "uint256",
          "name": "tokenId",
          "type": "uint256"
        }
      ],
      "name": "set",
      "outputs": [],
      "stateMutability": "nonpayable",
      "type": "function"
    },
    {
      "inputs": [
        {
          "internalType": "address",
          "name": "operator",
          "type": "address"
        },
        {
          "internalType": "bool",
          "name": "approved",
          "type": "bool"
        }
      ],
      "name": "setApprovalForAll",
      "outputs": [],
      "stateMutability": "nonpayable",
      "type": "function"
    },
    {
      "inputs": [
        {
          "internalType": "uint256",
          "name": "keyHash",
          "type": "uint256"
        },
        {
          "internalType": "string",
          "name": "value",
          "type": "string"
        },
        {
          "internalType": "uint256",
          "name": "tokenId",
          "type": "uint256"
        }
      ],
      "name": "setByHash",
      "outputs": [],
      "stateMutability": "nonpayable",
      "type": "function"
    },
    {
      "inputs": [
        {
          "internalType": "address",
          "name": "registry",
          "type": "address"
        }
      ],
      "name": "setCNSRegistry",
      "outputs": [],
      "stateMutability": "nonpayable",
      "type": "function"
    },
    {
      "inputs": [
        {
          "internalType": "address",
          "name": "clientChainManager",
          "type": "address"
        }
      ],
      "name": "setChildChainManager",
      "outputs": [],
      "stateMutability": "nonpayable",
      "type": "function"
    },
    {
      "inputs": [
        {
          "internalType": "string[]",
          "name": "keys",
          "type": "string[]"
        },
        {
          "internalType": "string[]",
          "name": "values",
          "type": "string[]"
        },
        {
          "internalType": "uint256",
          "name": "tokenId",
          "type": "uint256"
        }
      ],
      "name": "setMany",
      "outputs": [],
      "stateMutability": "nonpayable",
      "type": "function"
    },
    {
      "inputs": [
        {
          "internalType": "uint256[]",
          "name": "keyHashes",
          "type": "uint256[]"
        },
        {
          "internalType": "string[]",
          "name": "values",
          "type": "string[]"
        },
        {
          "internalType": "uint256",
          "name": "tokenId",
          "type": "uint256"
        }
      ],
      "name": "setManyByHash",
      "outputs": [],
      "stateMutability": "nonpayable",
      "type": "function"
    },
    {
      "inputs": [
        {
          "internalType": "address",
          "name": "to",
          "type": "address"
        },
        {
          "internalType": "uint256",
          "name": "tokenId",
          "type": "uint256"
        }
      ],
      "name": "setOwner",
      "outputs": [],
      "stateMutability": "nonpayable",
      "type": "function"
    },
    {
      "inputs": [
        {
          "internalType": "uint256",
          "name": "tokenId",
          "type": "uint256"
        }
      ],
      "name": "setReverse",
      "outputs": [],
      "stateMutability": "nonpayable",
      "type": "function"
    },
    {
      "inputs": [
        {
          "internalType": "address",
          "name": "rootChainManager",
          "type": "address"
        }
      ],
      "name": "setRootChainManager",
      "outputs": [],
      "stateMutability": "nonpayable",
      "type": "function"
    },
    {
      "inputs": [
        {
          "internalType": "string",
          "name": "prefix",
          "type": "string"
        }
      ],
      "name": "setTokenURIPrefix",
      "outputs": [],
      "stateMutability": "nonpayable",
      "type": "function"
    },
    {
      "inputs": [
        {
          "internalType": "bytes4",
          "name": "interfaceId",
          "type": "bytes4"
        }
      ],
      "name": "supportsInterface",
      "outputs": [
        {
          "internalType": "bool",
          "name": "",
          "type": "bool"
        }
      ],
      "stateMutability": "view",
      "type": "function"
    },
    {
      "inputs": [],
      "name": "symbol",
      "outputs": [
        {
          "internalType": "string",
          "name": "",
          "type": "string"
        }
      ],
      "stateMutability": "view",
      "type": "function"
    },
    {
      "inputs": [
        {
          "internalType": "uint256",
          "name": "tokenId",
          "type": "uint256"
        }
      ],
      "name": "tokenURI",
      "outputs": [
        {
          "internalType": "string",
          "name": "",
          "type": "string"
        }
      ],
      "stateMutability": "view",
      "type": "function"
    },
    {
      "inputs": [
        {
          "internalType": "address",
          "name": "from",
          "type": "address"
        },
        {
          "internalType": "address",
          "name": "to",
          "type": "address"
        },
        {
          "internalType": "uint256",
          "name": "tokenId",
          "type": "uint256"
        }
      ],
      "name": "transferFrom",
      "outputs": [],
      "stateMutability": "nonpayable",
      "type": "function"
    },
    {
      "inputs": [
        {
          "internalType": "address",
          "name": "to",
          "type": "address"
        },
        {
          "internalType": "uint256",
          "name": "tokenId",
          "type": "uint256"
        },
        {
          "internalType": "string[]",
          "name": "keys",
          "type": "string[]"
        },
        {
          "internalType": "string[]",
          "name": "values",
          "type": "string[]"
        }
      ],
      "name": "unlockWithRecords",
      "outputs": [],
      "stateMutability": "nonpayable",
      "type": "function"
    },
    {
      "inputs": [
        {
          "internalType": "uint256[]",
          "name": "tokenIds",
          "type": "uint256[]"
        }
      ],
      "name": "upgradeAll",
      "outputs": [],
      "stateMutability": "nonpayable",
      "type": "function"
    },
    {
      "inputs": [
        {
          "components": [
            {
              "internalType": "address",
              "name": "from",
              "type": "address"
            },
            {
              "internalType": "uint256",
              "name": "nonce",
              "type": "uint256"
            },
            {
              "internalType": "uint256",
              "name": "tokenId",
              "type": "uint256"
            },
            {
              "internalType": "bytes",
              "name": "data",
              "type": "bytes"
            }
          ],
          "internalType": "struct IForwarder.ForwardRequest",
          "name": "req",
          "type": "tuple"
        },
        {
          "internalType": "bytes",
          "name": "signature",
          "type": "bytes"
        }
      ],
      "name": "verify",
      "outputs": [
        {
          "internalType": "bool",
          "name": "",
          "type": "bool"
        }
      ],
      "stateMutability": "view",
      "type": "function"
    },
    {
      "inputs": [
        {
          "internalType": "uint256",
          "name": "tokenId",
          "type": "uint256"
        }
      ],
      "name": "withdraw",
      "outputs": [],
      "stateMutability": "nonpayable",
      "type": "function"
    },
    {
      "inputs": [
        {
          "internalType": "uint256[]",
          "name": "tokenIds",
          "type": "uint256[]"
        }
      ],
      "name": "withdrawBatch",
      "outputs": [],
      "stateMutability": "nonpayable",
      "type": "function"
    },
    {
      "inputs": [
        {
          "internalType": "bytes",
          "name": "inputData",
          "type": "bytes"
        },
        {
          "internalType": "uint256",
          "name": "tokenId",
          "type": "uint256"
        },
        {
          "internalType": "string[]",
          "name": "keys",
          "type": "string[]"
        },
        {
          "internalType": "string[]",
          "name": "values",
          "type": "string[]"
        }
      ],
      "name": "withdrawFromPolygon",
      "outputs": [],
      "stateMutability": "nonpayable",
      "type": "function"
    },
    {
      "inputs": [
        {
          "internalType": "uint256",
          "name": "tokenId",
          "type": "uint256"
        }
      ],
      "name": "withdrawWithMetadata",
      "outputs": [],
      "stateMutability": "nonpayable",
      "type": "function"
    }
  ],
  "bytecode": "0x608060405234801561001057600080fd5b506153d4806100206000396000f3fe608060405234801561001057600080fd5b50600436106103d05760003560e01c80637d67df63116101ff578063b85afd281161011a578063df454285116100ad578063f25eb5c11161007c578063f25eb5c1146108ee578063f5c1f76e146108f6578063f7df5c6014610909578063ffa1ad741461091c57600080fd5b8063df45428514610885578063e985e9c514610898578063ebf0c717146108d4578063ec129eea146108db57600080fd5b8063c87b56dd116100e9578063c87b56dd14610839578063ce92b33e1461084c578063cf2c52cb1461085f578063d0bc28d71461087257600080fd5b8063b85afd28146107df578063b88d4fde14610800578063bb5b27e114610813578063c4d66de81461082657600080fd5b80639c8d415611610192578063a5e584dc11610161578063a5e584dc1461051e578063ab3b87fe146107a6578063ae31844a146107b9578063b3f9e4cb146107cc57600080fd5b80639c8d415614610741578063a22cb46514610754578063a3f4df7e14610767578063a42474001461079357600080fd5b80639508b1c4116101ce5780639508b1c41461070b5780639559c0bd1461071e57806395d89b411461072657806399e0dd7c1461072e57600080fd5b80637d67df63146106bf5780637e37479e146106d25780637f139a00146106e557806394d008ef146106f857600080fd5b806342842e0e116102ef578063572b6c05116102825780636ccbae5f116102515780636ccbae5f1461066557806370a0823114610686578063728a44d814610699578063764a81bb146106ac57600080fd5b8063572b6c05146106025780636352211e1461061e578063638e5c7814610631578063672b9f811461064457600080fd5b80634a72584d116102be5780634a72584d146105b65780634f558e79146105c957806350382c1a146105dc57806350960239146105ef57600080fd5b806342842e0e1461056a57806342966c681461057d578063430c20811461059057806347c81699146105a357600080fd5b80631bf7e13e116103675780632e1a7d4d116103365780632e1a7d4d1461051e578063310bd74b14610531578063384e9a551461054457806340c10f191461055757600080fd5b80631bf7e13e146104c457806323b872dd146104d7578063276fabb1146104ea57806327f189751461050b57600080fd5b80630dee3b5c116103a35780630dee3b5c14610452578063150b7a02146104655780631bd8cc1a146104915780631be5e7ed146104b157600080fd5b806301ffc9a7146103d557806306fdde03146103fd578063081812fc14610412578063095ea7b31461043d575b600080fd5b6103e86103e336600461499a565b610940565b60405190151581526020015b60405180910390f35b610405610951565b6040516103f49190614ede565b610425610420366004614ba8565b6109e3565b6040516001600160a01b0390911681526020016103f4565b61045061044b3660046146cd565b610a0a565b005b6104506104603660046146f8565b610a5f565b6104786104733660046144cf565b610acc565b6040516001600160e01b031990911681526020016103f4565b6104a461049f366004614888565b610c22565b6040516103f49190614e3f565b6104056104bf366004614ae2565b610d42565b6104056104d2366004614b49565b610d8d565b6104506104e536600461448f565b610e98565b6104fd6104f83660046147d9565b610f1e565b6040519081526020016103f4565b610450610519366004614818565b610f86565b61045061052c366004614ba8565b611001565b61045061053f366004614ba8565b61107d565b610450610552366004614ba8565b6110eb565b6104506105653660046146cd565b6111aa565b61045061057836600461448f565b6111f7565b61045061058b366004614ba8565b611212565b6103e861059e3660046146cd565b611289565b6104506105b1366004614a84565b611295565b6104506105c4366004614bf0565b611307565b6103e86105d7366004614ba8565b611378565b6104506105ea366004614b17565b611397565b6104506105fd36600461441f565b6113ca565b6103e861061036600461441f565b6001600160a01b0316301490565b61042561062c366004614ba8565b61142a565b61045061063f366004614ba8565b61148a565b610657610652366004614c40565b6114d5565b6040516103f4929190614ef1565b6104fd610673366004614ba8565b6000908152610100602052604090205490565b6104fd61069436600461441f565b6114ed565b6104506106a736600461441f565b611573565b6104506106ba36600461441f565b61161a565b6104506106cd3660046145a8565b6116c9565b6104fd6106e036600461441f565b611786565b6104506106f336600461441f565b6117b7565b610450610706366004614780565b611856565b6104506107193660046149d2565b6118a5565b6104fd601481565b61040561192c565b61045061073c366004614a51565b61193b565b61045061074f3660046147d9565b6119c1565b610450610762366004614650565b611b44565b6104056040518060400160405280600d81526020016c554e533a20526567697374727960981b81525081565b6103e86107a1366004614b49565b611b56565b6104506107b43660046146cd565b611ba1565b6104506107c73660046147d9565b611c19565b6104256107da366004614ba8565b611cc5565b6107f26107ed366004614888565b611cef565b6040516103f4929190614e52565b61045061080e36600461453f565b611e57565b610405610821366004614ba8565b611ed1565b61045061083436600461441f565b611f73565b610405610847366004614ba8565b6120ed565b61045061085a366004614818565b612153565b61045061086d36600461467b565b6121c5565b610450610880366004614ba8565b6122a2565b610450610893366004614ba8565b61235a565b6103e86108a6366004614457565b6001600160a01b039182166000908152606a6020908152604080832093909416825291909152205460ff1690565b60006104fd565b6104506108e9366004614818565b6123f7565b610450612469565b6104a46109043660046147d9565b6124ef565b610450610917366004614bc0565b6125cc565b6104056040518060400160405280600581526020016418171a971960d91b81525081565b600061094b82612650565b92915050565b606060658054610960906152d6565b80601f016020809104026020016040519081016040528092919081815260200182805461098c906152d6565b80156109d95780601f106109ae576101008083540402835291602001916109d9565b820191906000526020600020905b8154815290600101906020018083116109bc57829003601f168201915b5050505050905090565b60006109ee826126a0565b506000908152606960205260409020546001600160a01b031690565b8030331415610a4757610a1b6126ff565b8114610a425760405162461bcd60e51b8152600401610a3990614ff8565b60405180910390fd5b610a50565b610a5081612714565b610a5a8383612742565b505050565b610134546001600160a01b0316610a74612865565b6001600160a01b031614610a9a5760405162461bcd60e51b8152600401610a3990614fb1565b610aa78484848489612874565b610aba610ab38661142a565b878761288a565b610ac48686612a31565b505050505050565b60007f8ffb960699dc2ba88f34d0e41c029c3c36c95149679fe1d0153a9582bec92378546001600160a01b0316610b01612865565b6001600160a01b03161415610bc357610b18612865565b6001600160a01b03166342966c68856040518263ffffffff1660e01b8152600401610b4591815260200190565b600060405180830381600087803b158015610b5f57600080fd5b505af1158015610b73573d6000803e3d6000fd5b505050821580159150610b8d5750610b8d82840184614968565b15610bab57610b9c3085612a72565b610ba68585612bc0565b610bb5565b610bb58585612a72565b50630a85bd0160e11b610c19565b60405162461bcd60e51b815260206004820152602560248201527f52656769737472793a204552433732315f524543454956494e475f50524f4849604482015264109255115160da1b6064820152608401610a39565b95945050505050565b6060826001600160401b03811115610c4a57634e487b7160e01b600052604160045260246000fd5b604051908082528060200260200182016040528015610c7d57816020015b6060815260200190600190039081610c685790505b50905060005b83811015610d3a57610cfc858583818110610cae57634e487b7160e01b600052603260045260246000fd5b9050602002810190610cc091906150bc565b8080601f016020809104026020016040519081016040528093929190818152602001838380828437600092019190915250879250612c6b915050565b828281518110610d1c57634e487b7160e01b600052603260045260246000fd5b60200260200101819052508080610d329061530b565b915050610c83565b509392505050565b6060610d8584848080601f016020809104026020016040519081016040528093929190818152602001838380828437600092019190915250869250612c6b915050565b949350505050565b606060005a9050610d9f858585611b56565b610dfb5760405162461bcd60e51b815260206004820152602760248201527f554e535265676973747279466f727761726465723a205349474e41545552455f6044820152661253959053125160ca1b6064820152608401610a39565b610e8d610e0b602087018761441f565b30604088013584610e1f60608b018b6150bc565b8080601f01602080910402602001604051908101604052809392919081815260200183838082843760009201919091525050604080516020601f8e018190048102820181019092528c815292508c91508b9081908401838280828437600092019190915250612ca092505050565b9150505b9392505050565b80610eaa610ea4612865565b82612d8f565b610ec65760405162461bcd60e51b8152600401610a3990614f16565b8130331415610efa57610ed76126ff565b8114610ef55760405162461bcd60e51b8152600401610a3990614ff8565b610f03565b610f0381612714565b610f0c83612e0d565b610f1785858561288a565b5050505050565b60006001821015610f715760405162461bcd60e51b815260206004820152601f60248201527f52656769737472793a204c4142454c535f4c454e4754485f42454c4f575f31006044820152606401610a39565b6000610f7d8484612e7a565b50949350505050565b80610f92610ea4612865565b610fae5760405162461bcd60e51b8152600401610a3990614f16565b8130331415610fe257610fbf6126ff565b8114610fdd5760405162461bcd60e51b8152600401610a3990614ff8565b610feb565b610feb81612714565b610ff88787878787612f1e565b50505050505050565b61100a8161142a565b6001600160a01b031661101b612865565b6001600160a01b0316146110715760405162461bcd60e51b815260206004820152601d60248201527f52656769737472793a20494e56414c49445f544f4b454e5f4f574e45520000006044820152606401610a39565b61107a81612f9d565b50565b80611089610ea4612865565b6110a55760405162461bcd60e51b8152600401610a3990614f16565b81303314156110d9576110b66126ff565b81146110d45760405162461bcd60e51b8152600401610a3990614ff8565b6110e2565b6110e281612714565b610a5a83612e0d565b806110f4612865565b6001600160a01b03166111068261142a565b6001600160a01b03161461115c5760405162461bcd60e51b815260206004820152601d60248201527f52656769737472793a2053454e4445525f49535f4e4f545f4f574e45520000006044820152606401610a39565b81303314156111905761116d6126ff565b811461118b5760405162461bcd60e51b8152600401610a3990614ff8565b611199565b61119981612714565b610a5a6111a4612865565b84613044565b6111b261308c565b6001600160a01b03166111c3612865565b6001600160a01b0316146111e95760405162461bcd60e51b8152600401610a399061507a565b6111f38282612a72565b5050565b610a5a83838360405180602001604052806000815250611e57565b8061121e610ea4612865565b61123a5760405162461bcd60e51b8152600401610a3990614f16565b813033141561126e5761124b6126ff565b81146112695760405162461bcd60e51b8152600401610a3990614ff8565b611277565b61127781612714565b61128083612e0d565b610a5a83612f9d565b6000610e918383612d8f565b806112a1610ea4612865565b6112bd5760405162461bcd60e51b8152600401610a3990614f16565b81303314156112f1576112ce6126ff565b81146112ec5760405162461bcd60e51b8152600401610a3990614ff8565b6112fa565b6112fa81612714565b610ff8878787878761319f565b80611313610ea4612865565b61132f5760405162461bcd60e51b8152600401610a3990614f16565b8130331415611363576113406126ff565b811461135e5760405162461bcd60e51b8152600401610a3990614ff8565b61136c565b61136c81612714565b610ac48686868661327e565b6000818152606760205260408120546001600160a01b0316151561094b565b61107a816040516020016113ab9190614d0a565b6040516020818303038152906040528051906020012060001c8261331e565b610134546001600160a01b03166113df612865565b6001600160a01b0316146114055760405162461bcd60e51b8152600401610a3990614fb1565b6001600160a01b0316600090815261013660205260409020805460ff19166001179055565b6000818152606760205260408120546001600160a01b03168061094b5760405162461bcd60e51b8152602060048201526018602482015277115490cdcc8c4e881a5b9d985b1a59081d1bdad95b88125160421b6044820152606401610a39565b80611496610ea4612865565b6114b25760405162461bcd60e51b8152600401610a3990614f16565b6114c46114bd612865565b308461288a565b6111f36114cf612865565b83612bc0565b6060806114e2848461334a565b909590945092505050565b60006001600160a01b0382166115575760405162461bcd60e51b815260206004820152602960248201527f4552433732313a2061646472657373207a65726f206973206e6f7420612076616044820152683634b21037bbb732b960b91b6064820152608401610a39565b506001600160a01b031660009081526068602052604090205490565b6000805160206153a8833981519152546001600160a01b0316156115e85760405162461bcd60e51b815260206004820152602660248201527f52656769737472793a20524f4f545f434841494e5f4d414e454745525f4e4f546044820152655f454d50545960d01b6064820152608401610a39565b806000805160206153a88339815191525b80546001600160a01b0319166001600160a01b039290921691909117905550565b7f8bea9a6f8afd34f4e29c585f854e0cc5161431bf5fc299d468454d33dce53b87546001600160a01b0316156116a25760405162461bcd60e51b815260206004820152602760248201527f52656769737472793a204348494c445f434841494e5f4d414e454745525f4e4f604482015266545f454d50545960c81b6064820152608401610a39565b807f8bea9a6f8afd34f4e29c585f854e0cc5161431bf5fc299d468454d33dce53b876115f9565b600285101561171a5760405162461bcd60e51b815260206004820152601f60248201527f52656769737472793a204c4142454c535f4c454e4754485f42454c4f575f32006044820152606401610a39565b6000806117278888612e7a565b91509150611736610ea4612865565b6117525760405162461bcd60e51b8152600401610a3990614f16565b61176e89836117696117648b8d615196565b61336b565b613408565b61177b8686868686613454565b505050505050505050565b6001600160a01b038116600090815261013560205260408120546117a9816134de565b6117b1578091505b50919050565b7f8ffb960699dc2ba88f34d0e41c029c3c36c95149679fe1d0153a9582bec92378546001600160a01b03161561182f5760405162461bcd60e51b815260206004820181905260248201527f52656769737472793a20434e535f52454749535452595f4e4f545f454d5054596044820152606401610a39565b807f8ffb960699dc2ba88f34d0e41c029c3c36c95149679fe1d0153a9582bec923786115f9565b61185e61308c565b6001600160a01b031661186f612865565b6001600160a01b0316146118955760405162461bcd60e51b8152600401610a399061507a565b61189f8484612a72565b50505050565b6118af8787613528565b6118b7612865565b6001600160a01b03166118c98661142a565b6001600160a01b03161461191f5760405162461bcd60e51b815260206004820152601d60248201527f52656769737472793a2053454e4445525f49535f4e4f545f4f574e45520000006044820152606401610a39565b610ff88484848489613454565b606060668054610960906152d6565b610134546001600160a01b0316611950612865565b6001600160a01b0316146119765760405162461bcd60e51b8152600401610a3990614fb1565b6119836101338383614216565b507f4b120d6a959a84a520fa48f5f937cca0e79129423487af7901213b5d2e89313b82826040516119b5929190614eca565b60405180910390a15050565b806014811115611a135760405162461bcd60e51b815260206004820152601d60248201527f52656769737472793a20455843454544535f42415443485f4c494d49540000006044820152606401610a39565b60005b81811015611af4576000848483818110611a4057634e487b7160e01b600052603260045260246000fd5b905060200201359050611a528161142a565b6001600160a01b0316611a63612865565b6001600160a01b03161481604051602001611aaa91907f52656769737472793a20494e56414c49445f544f4b454e5f4f574e45522000008152601e810191909152603e0190565b60405160208183030381529060405290611ad75760405162461bcd60e51b8152600401610a399190614ede565b50611ae181612f9d565b5080611aec8161530b565b915050611a16565b50611afd612865565b6001600160a01b03167ff871896b17e9cb7a64941c62c188a4f5c621b86800e3d15452ece01ce56073df8484604051611b37929190614e77565b60405180910390a2505050565b6111f3611b4f612865565b8383613597565b6000610d85611b648561520b565b3085858080601f01602080910402602001604051908101604052809392919081815260200183838082843760009201919091525061366692505050565b80611bad610ea4612865565b611bc95760405162461bcd60e51b8152600401610a3990614f16565b8130331415611bfd57611bda6126ff565b8114611bf85760405162461bcd60e51b8152600401610a3990614ff8565b611c06565b611c0681612714565b61189f611c128461142a565b858561288a565b610134546001600160a01b0316611c2e612865565b6001600160a01b031614611c545760405162461bcd60e51b8152600401610a3990614fb1565b60005b81811015610a5a5760016101376000858585818110611c8657634e487b7160e01b600052603260045260246000fd5b90506020020135815260200190815260200160002060006101000a81548160ff0219169083151502179055508080611cbd9061530b565b915050611c57565b6000818152606760205260408120546001600160a01b0316611ce857600061094b565b3092915050565b606080836001600160401b03811115611d1857634e487b7160e01b600052604160045260246000fd5b604051908082528060200260200182016040528015611d4b57816020015b6060815260200190600190039081611d365790505b509150836001600160401b03811115611d7457634e487b7160e01b600052604160045260246000fd5b604051908082528060200260200182016040528015611da757816020015b6060815260200190600190039081611d925790505b50905060005b84811015611e4e57611de5868683818110611dd857634e487b7160e01b600052603260045260246000fd5b905060200201358561334a565b848381518110611e0557634e487b7160e01b600052603260045260246000fd5b60200260200101848481518110611e2c57634e487b7160e01b600052603260045260246000fd5b6020026020010182905282905250508080611e469061530b565b915050611dad565b50935093915050565b81611e63610ea4612865565b611e7f5760405162461bcd60e51b8152600401610a3990614f16565b8230331415611eb357611e906126ff565b8114611eae5760405162461bcd60e51b8152600401610a3990614ff8565b611ebc565b611ebc81612714565b611ec584612e0d565b610ac4868686866137be565b600081815260c960205260409020805460609190611eee906152d6565b80601f0160208091040260200160405190810160405280929190818152602001828054611f1a906152d6565b8015611f675780601f10611f3c57610100808354040283529160200191611f67565b820191906000526020600020905b815481529060010190602001808311611f4a57829003601f168201915b50505050509050919050565b600054610100900460ff1615808015611f935750600054600160ff909116105b80611fad5750303b158015611fad575060005460ff166001145b6120105760405162461bcd60e51b815260206004820152602e60248201527f496e697469616c697a61626c653a20636f6e747261637420697320616c72656160448201526d191e481a5b9a5d1a585b1a5e995960921b6064820152608401610a39565b6000805460ff191660011790558015612033576000805461ff0019166101001790555b61013480546001600160a01b0319166001600160a01b0384161790556040805180820182526013815272556e73746f707061626c6520446f6d61696e7360681b60208083019190915282518084019093526002835261155160f21b9083015261209b916137f1565b6120a361383f565b6120ab61383f565b80156111f3576000805461ff0019169055604051600181527f7f26b83ff96e1f2b6a682f133852f6798a09c465da95921460cefb3847402498906020016119b5565b60606120f8826126a0565b6000612102613868565b905060008151116121225760405180602001604052806000815250610e91565b8061212c84613878565b60405160200161213d929190614db1565b6040516020818303038152906040529392505050565b8061215f610ea4612865565b61217b5760405162461bcd60e51b8152600401610a3990614f16565b81303314156121af5761218c6126ff565b81146121aa5760405162461bcd60e51b8152600401610a3990614ff8565b6121b8565b6121b881612714565b610ff88787878787613454565b7f8bea9a6f8afd34f4e29c585f854e0cc5161431bf5fc299d468454d33dce53b87546001600160a01b03166121f8612865565b6001600160a01b03161461221e5760405162461bcd60e51b8152600401610a399061507a565b602081141561224157600061223582840184614ba8565b905061189f8482612a72565b600061224f828401846148d1565b805190915060005b81811015610ac4576122908684838151811061228357634e487b7160e01b600052603260045260246000fd5b6020026020010151612a72565b8061229a8161530b565b915050612257565b610134546001600160a01b03166122b7612865565b6001600160a01b0316146122dd5760405162461bcd60e51b8152600401610a3990614fb1565b61dead6122e98261142a565b6001600160a01b03161461233f5760405162461bcd60e51b815260206004820152601a60248201527f52656769737472793a204f574e45525f4e4f545f3078444541440000000000006044820152606401610a39565b6101345461107a9061dead906001600160a01b03168361288a565b610134546001600160a01b031661236f612865565b6001600160a01b0316146123955760405162461bcd60e51b8152600401610a3990614fb1565b61dead6123a18261142a565b6001600160a01b0316146110715760405162461bcd60e51b815260206004820152601a60248201527f52656769737472793a204f574e45525f4e4f545f3078444541440000000000006044820152606401610a39565b80612403610ea4612865565b61241f5760405162461bcd60e51b8152600401610a3990614f16565b8130331415612453576124306126ff565b811461244e5760405162461bcd60e51b8152600401610a3990614ff8565b61245c565b61245c81612714565b610ff88787878787612874565b6000612473612865565b6001600160a01b038116600090815261013560205260409020549091506124e65760405162461bcd60e51b815260206004820152602160248201527f52656769737472793a20524556455253455f5245434f52445f49535f454d50546044820152605960f81b6064820152608401610a39565b61107a81613991565b6060816001600160401b0381111561251757634e487b7160e01b600052604160045260246000fd5b60405190808252806020026020018201604052801561254a57816020015b60608152602001906001900390816125355790505b50905060005b828110156125c55761258784848381811061257b57634e487b7160e01b600052603260045260246000fd5b90506020020135611ed1565b8282815181106125a757634e487b7160e01b600052603260045260246000fd5b602002602001018190525080806125bd9061530b565b915050612550565b5092915050565b610134546001600160a01b03166125e1612865565b6001600160a01b0316146126075760405162461bcd60e51b8152600401610a3990614fb1565b6101345461261e906001600160a01b031684612a72565b827fc5beef08f693b11c316c0c8394a377a0033c9cf701b8cd8afd79cecef60c39528383604051611b37929190614eca565b60006001600160e01b031982166380ac58cd60e01b148061268157506001600160e01b03198216635b5e139f60e01b145b8061094b57506301ffc9a760e01b6001600160e01b031983161461094b565b6000818152606760205260409020546001600160a01b031661107a5760405162461bcd60e51b8152602060048201526018602482015277115490cdcc8c4e881a5b9d985b1a59081d1bdad95b88125160421b6044820152606401610a39565b6000303314156127115750601f193601355b90565b6000818152610100602052604090205461272f906001615153565b6000918252610100602052604090912055565b600061274d8261142a565b9050806001600160a01b0316836001600160a01b031614156127bb5760405162461bcd60e51b815260206004820152602160248201527f4552433732313a20617070726f76616c20746f2063757272656e74206f776e656044820152603960f91b6064820152608401610a39565b806001600160a01b03166127cd612865565b6001600160a01b031614806127e957506127e9816108a6612865565b61285b5760405162461bcd60e51b815260206004820152603e60248201527f4552433732313a20617070726f76652063616c6c6572206973206e6f7420746f60448201527f6b656e206f776e6572206e6f7220617070726f76656420666f7220616c6c00006064820152608401610a39565b610a5a83836139d6565b600061286f613a44565b905090565b61287d81612e0d565b610f178585858585613454565b826001600160a01b031661289d8261142a565b6001600160a01b0316146129015760405162461bcd60e51b815260206004820152602560248201527f4552433732313a207472616e736665722066726f6d20696e636f72726563742060448201526437bbb732b960d91b6064820152608401610a39565b6001600160a01b0382166129635760405162461bcd60e51b8152602060048201526024808201527f4552433732313a207472616e7366657220746f20746865207a65726f206164646044820152637265737360e01b6064820152608401610a39565b61296e838383613a60565b6129796000826139d6565b6001600160a01b03831660009081526068602052604081208054600192906129a290849061517f565b90915550506001600160a01b03821660009081526068602052604081208054600192906129d0908490615153565b909155505060008181526067602052604080822080546001600160a01b0319166001600160a01b0386811691821790925591518493918716917fddf252ad1be2c89b69c2b068fc378daa952ba7f163c4a11628f55a4df523b3ef91a4505050565b61dead6001600160a01b03831614801590612a6357506001600160a01b03821660009081526101356020526040902054155b156111f3576111f38282613044565b6001600160a01b038216612ac85760405162461bcd60e51b815260206004820181905260248201527f4552433732313a206d696e7420746f20746865207a65726f20616464726573736044820152606401610a39565b6000818152606760205260409020546001600160a01b031615612b2d5760405162461bcd60e51b815260206004820152601c60248201527f4552433732313a20746f6b656e20616c7265616479206d696e746564000000006044820152606401610a39565b612b3960008383613a60565b6001600160a01b0382166000908152606860205260408120805460019290612b62908490615153565b909155505060008181526067602052604080822080546001600160a01b0319166001600160a01b03861690811790915590518392907fddf252ad1be2c89b69c2b068fc378daa952ba7f163c4a11628f55a4df523b3ef908290a45050565b6000612bca61308c565b9050612bd681836139d6565b6000805160206153a883398151915254604080516020808201869052825180830390910181528183019283905263e3dec8fb60e01b9092526001600160a01b0390921691829163e3dec8fb91612c33918891309190604401614de0565b600060405180830381600087803b158015612c4d57600080fd5b505af1158015612c61573d6000803e3d6000fd5b5050505050505050565b6060610e9183604051602001612c819190614d0a565b6040516020818303038152906040528051906020012060001c83613afd565b6060612cab85612714565b600080876001600160a01b031686612cc58b8a8989613bdf565b604051612cd29190614d0a565b60006040518083038160008787f1925050503d8060008114612d10576040519150601f19603f3d011682016040523d82523d6000602084013e612d15565b606091505b509092509050612d26603f8761516b565b5a11612d4257634e487b7160e01b600052600160045260246000fd5b612d8282826040518060400160405280601a81526020017f42617365466f727761726465723a2043414c4c5f4641494c4544000000000000815250613c0f565b9998505050505050505050565b600080612d9b8361142a565b9050806001600160a01b0316846001600160a01b03161480612de257506001600160a01b038082166000908152606a602090815260408083209388168352929052205460ff165b80610d855750836001600160a01b0316612dfb846109e3565b6001600160a01b031614949350505050565b612e1681613c48565b604051602001612e2891815260200190565b60408051601f198184030181528282528051602091820120600085815260cb9092529181209190915582917f185c30856dadb58bf097c1f665a52ada7029752dbcad008ea3fefc73bee8c9fe9190a250565b600080825b8015612f1657829150612f02828686612e9960018661517f565b818110612eb657634e487b7160e01b600052603260045260246000fd5b9050602002810190612ec891906150bc565b8080601f016020809104026020016040519081016040528093929190818152602001838380828437600092019190915250613c7492505050565b925080612f0e816152bf565b915050612e7f565b509250929050565b60005b84811015610ac457612f8b868683818110612f4c57634e487b7160e01b600052603260045260246000fd5b90506020020135858584818110612f7357634e487b7160e01b600052603260045260246000fd5b9050602002810190612f8591906150bc565b8561327e565b80612f958161530b565b915050612f21565b6000612fa88261142a565b9050612fb681600084613a60565b612fc16000836139d6565b6001600160a01b0381166000908152606860205260408120805460019290612fea90849061517f565b909155505060008281526067602052604080822080546001600160a01b0319169055518391906001600160a01b038416907fddf252ad1be2c89b69c2b068fc378daa952ba7f163c4a11628f55a4df523b3ef908390a45050565b6001600160a01b03821660008181526101356020526040808220849055518392917feb76a21470988c474a21f690cc28fee1ed511bd812dc3c21fd0f49c5e5d4708a91a35050565b6000806000805160206153a88339815191525460405163721804d360e11b81523060048201526001600160a01b039091169150600090829063e43009a69060240160206040518083038186803b1580156130e557600080fd5b505afa1580156130f9573d6000803e3d6000fd5b505050506040513d601f19601f8201168201806040525081019061311d9190614982565b60405163e66f960360e01b8152600481018290529091506001600160a01b0383169063e66f96039060240160206040518083038186803b15801561316057600080fd5b505afa158015613174573d6000803e3d6000fd5b505050506040513d601f19601f82011682018060405250810190613198919061443b565b9250505090565b600085856040516020016131b4929190614da1565b60408051601f198184030181528282528051602091820120601f8901829004820284018201909252878352909250613208918391899089908190840183828082843760009201919091525061331e92505050565b610ac48187878080601f01602080910402602001604051908101604052809392919081815260200183838082843760009201919091525050604080516020601f8b018190048102820181019092528981529250899150889081908401838280828437600092019190915250889250613d21915050565b61328784613e5c565b6132d35760405162461bcd60e51b815260206004820152601c60248201527f5265636f726453746f726167653a204b45595f4e4f545f464f554e44000000006044820152606401610a39565b61189f846132e086611ed1565b85858080601f016020809104026020016040519081016040528093929190818152602001838380828437600092019190915250879250613d21915050565b61332782613e5c565b6111f357600082815260c9602090815260409091208251610a5a92840190614296565b60608061335684611ed1565b91506133628484613afd565b90509250929050565b606060008260008151811061339057634e487b7160e01b600052603260045260246000fd5b602002602001015190506000600190505b83518110156125c557818482815181106133cb57634e487b7160e01b600052603260045260246000fd5b60200260200101516040516020016133e4929190614d65565b604051602081830303815290604052915080806134009061530b565b9150506133a1565b6134128383612a72565b817fc5beef08f693b11c316c0c8394a377a0033c9cf701b8cd8afd79cecef60c3952826040516134429190614ede565b60405180910390a2610a5a8383612a31565b60005b84811015610ac4576134cc86868381811061348257634e487b7160e01b600052603260045260246000fd5b905060200281019061349491906150bc565b8686858181106134b457634e487b7160e01b600052603260045260246000fd5b90506020028101906134c691906150bc565b8661319f565b806134d68161530b565b915050613457565b6000818152610137602052604081205460ff16801561094b57506101366000613505612865565b6001600160a01b0316815260208101919091526040016000205460ff1692915050565b6000805160206153a883398151915254604051633805550f60e01b81526001600160a01b03909116908190633805550f906135699086908690600401614eca565b600060405180830381600087803b15801561358357600080fd5b505af1158015610ff8573d6000803e3d6000fd5b816001600160a01b0316836001600160a01b031614156135f95760405162461bcd60e51b815260206004820152601960248201527f4552433732313a20617070726f766520746f2063616c6c6572000000000000006044820152606401610a39565b6001600160a01b038381166000818152606a6020908152604080832094871680845294825291829020805460ff191686151590811790915591519182527f17307eab39ab6107e8899845ad3d59bd9653f200f220920489ca2b5937696c31910160405180910390a3505050565b6040838101519051636ccbae5f60e01b8152600481019190915260009081903090636ccbae5f9060240160206040518083038186803b1580156136a857600080fd5b505afa1580156136bc573d6000803e3d6000fd5b505050506040513d601f19601f820116820180604052508101906136e09190614982565b9050600061378e86606001518051906020012086886020015160405160200161372e9392919092835260609190911b6bffffffffffffffffffffffff19166020830152603482015260540190565b60408051601f1981840301815282825280516020918201207f19457468657265756d205369676e6564204d6573736167653a0a33320000000084830152603c8085019190915282518085039091018152605c909301909152815191012090565b90508186602001511480156137b4575085516137b4906001600160a01b03168286613e82565b9695505050505050565b6137c984848461288a565b6137d584848484613fd2565b61189f5760405162461bcd60e51b8152600401610a3990614f5f565b600054610100900460ff166138185760405162461bcd60e51b8152600401610a399061502f565b815161382b906065906020850190614296565b508051610a5a906066906020840190614296565b600054610100900460ff166138665760405162461bcd60e51b8152600401610a399061502f565b565b60606101338054610960906152d6565b60608161389c5750506040805180820190915260018152600360fc1b602082015290565b8160005b81156138c657806138b08161530b565b91506138bf9050600a8361516b565b91506138a0565b6000816001600160401b038111156138ee57634e487b7160e01b600052604160045260246000fd5b6040519080825280601f01601f191660200182016040528015613918576020820181803683370190505b5090505b8415610d855761392d60018361517f565b915061393a600a86615326565b613945906030615153565b60f81b81838151811061396857634e487b7160e01b600052603260045260246000fd5b60200101906001600160f81b031916908160001a90535061398a600a8661516b565b945061391c565b6001600160a01b03811660008181526101356020526040808220829055517ffcf5eec0cfa3e6332f5f0e63ec242d71f866a61d121d6cdf5c2eb3b668a26c4f9190a250565b600081815260696020526040902080546001600160a01b0319166001600160a01b0384169081179091558190613a0b8261142a565b6001600160a01b03167f8c5be1e5ebec7d5bd14f71427d1e84f3dd0314c0f7b2291e5b200ac8c7c3b92560405160405180910390a45050565b600030331415613a5b575060331936013560601c90565b503390565b6000818152610137602052604090205460ff161580613a8757506001600160a01b03821615155b613ad35760405162461bcd60e51b815260206004820152601860248201527f52656769737472793a20544f4b454e5f555047524144454400000000000000006044820152606401610a39565b6001600160a01b03831660009081526101356020526040902054811415610a5a57610a5a83613991565b6060613b08826134de565b15613b22575060408051602081019091526000815261094b565b60ca6000613b2f84613c48565b815260200190815260200160002060008481526020019081526020016000208054613b59906152d6565b80601f0160208091040260200160405190810160405280929190818152602001828054613b85906152d6565b8015613bd25780601f10613ba757610100808354040283529160200191613bd2565b820191906000526020600020905b815481529060010190602001808311613bb557829003601f168201915b5050505050905092915050565b6060828585604051602001613bf693929190614d26565b6040516020818303038152906040529050949350505050565b60608315613c1e575081610e91565b825115613c2e5782518084602001fd5b8160405162461bcd60e51b8152600401610a399190614ede565b600081815260cb602052604081205415613c7057600082815260cb602052604090205461094b565b5090565b6000815160001415613cc05760405162461bcd60e51b815260206004820152601560248201527452656769737472793a204c4142454c5f454d50545960581b6044820152606401610a39565b8282604051602001613cd29190614d0a565b60405160208183030381529060405280519060200120604051602001613d02929190918252602082015260400190565b60408051601f1981840301815291905280516020909101209392505050565b60ca6000613d2e83613c48565b815260200190815260200160002060008581526020019081526020016000208054613d58906152d6565b15159050613daf5782604051613d6e9190614d0a565b6040518091039020817f7ae4f661958fbecc2f77be6b0eb280d2a6f604b29e1e7221c82b9da0c4af7f8685604051613da69190614ede565b60405180910390a35b8160ca6000613dbd84613c48565b815260200190815260200160002060008681526020019081526020016000209080519060200190613def929190614296565b5081604051613dfe9190614d0a565b604051809103902083604051613e149190614d0a565b6040518091039020827f851ffe8e74d5015261dba0a1f9e1b0e5d42c5af5d2ad1908fee897c7d80a0d928686604051613e4e929190614ef1565b60405180910390a450505050565b600081815260c9602052604081208054829190613e78906152d6565b9050119050919050565b6000806000613e9185856140e3565b90925090506000816004811115613eb857634e487b7160e01b600052602160045260246000fd5b148015613ed65750856001600160a01b0316826001600160a01b0316145b15613ee657600192505050610e91565b600080876001600160a01b0316631626ba7e60e01b8888604051602401613f0e929190614eb1565b60408051601f198184030181529181526020820180516001600160e01b03166001600160e01b0319909416939093179092529051613f4c9190614d0a565b600060405180830381855afa9150503d8060008114613f87576040519150601f19603f3d011682016040523d82523d6000602084013e613f8c565b606091505b5091509150818015613f9f575080516020145b8015613fc657508051630b135d3f60e11b90613fc49083016020908101908401614982565b145b98975050505050505050565b60006001600160a01b0384163b156140db57836001600160a01b031663150b7a02613ffb612865565b8786866040518563ffffffff1660e01b815260040161401d9493929190614e0c565b602060405180830381600087803b15801561403757600080fd5b505af1925050508015614067575060408051601f3d908101601f19168201909252614064918101906149b6565b60015b6140c1573d808015614095576040519150601f19603f3d011682016040523d82523d6000602084013e61409a565b606091505b5080516140b95760405162461bcd60e51b8152600401610a3990614f5f565b805181602001fd5b6001600160e01b031916630a85bd0160e11b149050610d85565b506001610d85565b60008082516041141561411a5760208301516040840151606085015160001a61410e87828585614129565b94509450505050614122565b506000905060025b9250929050565b6000807f7fffffffffffffffffffffffffffffff5d576e7357a4501ddfe92f46681b20a0831115614160575060009050600361420d565b8460ff16601b1415801561417857508460ff16601c14155b15614189575060009050600461420d565b6040805160008082526020820180845289905260ff881692820192909252606081018690526080810185905260019060a0016020604051602081039080840390855afa1580156141dd573d6000803e3d6000fd5b5050604051601f1901519150506001600160a01b0381166142065760006001925092505061420d565b9150600090505b94509492505050565b828054614222906152d6565b90600052602060002090601f016020900481019282614244576000855561428a565b82601f1061425d5782800160ff1982351617855561428a565b8280016001018555821561428a579182015b8281111561428a57823582559160200191906001019061426f565b50613c7092915061430a565b8280546142a2906152d6565b90600052602060002090601f0160209004810192826142c4576000855561428a565b82601f106142dd57805160ff191683800117855561428a565b8280016001018555821561428a579182015b8281111561428a5782518255916020019190600101906142ef565b5b80821115613c70576000815560010161430b565b60008083601f840112614330578182fd5b5081356001600160401b03811115614346578182fd5b6020830191508360208260051b850101111561412257600080fd5b8035801515811461437157600080fd5b919050565b60008083601f840112614387578182fd5b5081356001600160401b0381111561439d578182fd5b60208301915083602082850101111561412257600080fd5b600082601f8301126143c5578081fd5b81356001600160401b038111156143de576143de615366565b6143f1601f8201601f1916602001615100565b818152846020838601011115614405578283fd5b816020850160208301379081016020019190915292915050565b600060208284031215614430578081fd5b8135610e918161537c565b60006020828403121561444c578081fd5b8151610e918161537c565b60008060408385031215614469578081fd5b82356144748161537c565b915060208301356144848161537c565b809150509250929050565b6000806000606084860312156144a3578081fd5b83356144ae8161537c565b925060208401356144be8161537c565b929592945050506040919091013590565b6000806000806000608086880312156144e6578283fd5b85356144f18161537c565b945060208601356145018161537c565b93506040860135925060608601356001600160401b03811115614522578182fd5b61452e88828901614376565b969995985093965092949392505050565b60008060008060808587031215614554578182fd5b843561455f8161537c565b9350602085013561456f8161537c565b92506040850135915060608501356001600160401b03811115614590578182fd5b61459c878288016143b5565b91505092959194509250565b60008060008060008060006080888a0312156145c2578485fd5b87356145cd8161537c565b965060208801356001600160401b03808211156145e8578687fd5b6145f48b838c0161431f565b909850965060408a013591508082111561460c578384fd5b6146188b838c0161431f565b909650945060608a0135915080821115614630578384fd5b5061463d8a828b0161431f565b989b979a50959850939692959293505050565b60008060408385031215614662578182fd5b823561466d8161537c565b915061336260208401614361565b60008060006040848603121561468f578081fd5b833561469a8161537c565b925060208401356001600160401b038111156146b4578182fd5b6146c086828701614376565b9497909650939450505050565b600080604083850312156146df578182fd5b82356146ea8161537c565b946020939093013593505050565b60008060008060008060808789031215614710578384fd5b863561471b8161537c565b95506020870135945060408701356001600160401b038082111561473d578586fd5b6147498a838b0161431f565b90965094506060890135915080821115614761578384fd5b5061476e89828a0161431f565b979a9699509497509295939492505050565b60008060008060608587031215614795578182fd5b84356147a08161537c565b93506020850135925060408501356001600160401b038111156147c1578283fd5b6147cd87828801614376565b95989497509550505050565b600080602083850312156147eb578182fd5b82356001600160401b03811115614800578283fd5b61480c8582860161431f565b90969095509350505050565b60008060008060006060868803121561482f578283fd5b85356001600160401b0380821115614845578485fd5b61485189838a0161431f565b90975095506020880135915080821115614869578485fd5b506148768882890161431f565b96999598509660400135949350505050565b60008060006040848603121561489c578081fd5b83356001600160401b038111156148b1578182fd5b6148bd8682870161431f565b909790965060209590950135949350505050565b600060208083850312156148e3578182fd5b82356001600160401b038111156148f8578283fd5b8301601f81018513614908578283fd5b803561491b61491682615130565b615100565b80828252848201915084840188868560051b870101111561493a578687fd5b8694505b8385101561495c57803583526001949094019391850191850161493e565b50979650505050505050565b600060208284031215614979578081fd5b610e9182614361565b600060208284031215614993578081fd5b5051919050565b6000602082840312156149ab578081fd5b8135610e9181615391565b6000602082840312156149c7578081fd5b8151610e9181615391565b60008060008060008060006080888a0312156149ec578081fd5b87356001600160401b0380821115614a02578283fd5b614a0e8b838c01614376565b909950975060208a0135965060408a0135915080821115614a2d578283fd5b614a398b838c0161431f565b909650945060608a0135915080821115614630578283fd5b60008060208385031215614a63578182fd5b82356001600160401b03811115614a78578283fd5b61480c85828601614376565b600080600080600060608688031215614a9b578283fd5b85356001600160401b0380821115614ab1578485fd5b614abd89838a01614376565b90975095506020880135915080821115614ad5578485fd5b5061487688828901614376565b600080600060408486031215614af6578081fd5b83356001600160401b03811115614b0b578182fd5b6148bd86828701614376565b600060208284031215614b28578081fd5b81356001600160401b03811115614b3d578182fd5b610d85848285016143b5565b600080600060408486031215614b5d578081fd5b83356001600160401b0380821115614b73578283fd5b9085019060808288031215614b86578283fd5b90935060208501359080821115614b9b578283fd5b506146c086828701614376565b600060208284031215614bb9578081fd5b5035919050565b600080600060408486031215614bd4578081fd5b8335925060208401356001600160401b038111156146b4578182fd5b60008060008060608587031215614c05578182fd5b8435935060208501356001600160401b03811115614c21578283fd5b614c2d87828801614376565b9598909750949560400135949350505050565b60008060408385031215614c52578182fd5b50508035926020909101359150565b600081518084526020808501808196508360051b81019150828601855b85811015614ca8578284038952614c96848351614cde565b98850198935090840190600101614c7e565b5091979650505050505050565b81835281816020850137506000828201602090810191909152601f909101601f19169091010190565b60008151808452614cf6816020860160208601615293565b601f01601f19169290920160200192915050565b60008251614d1c818460208701615293565b9190910192915050565b60008451614d38818460208901615293565b60609490941b6bffffffffffffffffffffffff191691909301908152601481019190915260340192915050565b60008351614d77818460208801615293565b601760f91b9083019081528351614d95816001840160208801615293565b01600101949350505050565b8183823760009101908152919050565b60008351614dc3818460208801615293565b835190830190614dd7818360208801615293565b01949350505050565b6001600160a01b03848116825283166020820152606060408201819052600090610c1990830184614cde565b6001600160a01b03858116825284166020820152604081018390526080606082018190526000906137b490830184614cde565b602081526000610e916020830184614c61565b604081526000614e656040830185614c61565b8281036020840152610e8d8185614c61565b6020808252810182905260006001600160fb1b03831115614e96578081fd5b8260051b808560408501379190910160400190815292915050565b828152604060208201526000610d856040830184614cde565b602081526000610d85602083018486614cb5565b602081526000610e916020830184614cde565b604081526000614f046040830185614cde565b8281036020840152610e8d8185614cde565b60208082526029908201527f52656769737472793a2053454e4445525f49535f4e4f545f415050524f5645446040820152682fa7a92fa7aba722a960b91b606082015260800190565b60208082526032908201527f4552433732313a207472616e7366657220746f206e6f6e20455243373231526560408201527131b2b4bb32b91034b6b83632b6b2b73a32b960711b606082015260800190565b60208082526027908201527f52656769737472793a2053454e4445525f49535f4e4f545f4d494e54494e475f60408201526626a0a720a3a2a960c91b606082015260800190565b60208082526017908201527f52656769737472793a20544f4b454e5f494e56414c4944000000000000000000604082015260600190565b6020808252602b908201527f496e697469616c697a61626c653a20636f6e7472616374206973206e6f74206960408201526a6e697469616c697a696e6760a81b606082015260800190565b60208082526022908201527f52656769737472793a20494e53554646494349454e545f5045524d495353494f6040820152614e5360f01b606082015260800190565b6000808335601e198436030181126150d2578283fd5b8301803591506001600160401b038211156150eb578283fd5b60200191503681900382131561412257600080fd5b604051601f8201601f191681016001600160401b038111828210171561512857615128615366565b604052919050565b60006001600160401b0382111561514957615149615366565b5060051b60200190565b600082198211156151665761516661533a565b500190565b60008261517a5761517a615350565b500490565b6000828210156151915761519161533a565b500390565b60006151a461491684615130565b808482526020808301925084368760051b870111156151c1578485fd5b845b878110156151ff5781356001600160401b038111156151e0578687fd5b6151ec36828a016143b5565b86525093820193908201906001016151c3565b50919695505050505050565b60006080823603121561521c578081fd5b604051608081016001600160401b03828210818311171561523f5761523f615366565b81604052843591506152508261537c565b8183526020850135602084015260408501356040840152606085013591508082111561527a578384fd5b50615287368286016143b5565b60608301525092915050565b60005b838110156152ae578181015183820152602001615296565b8381111561189f5750506000910152565b6000816152ce576152ce61533a565b506000190190565b600181811c908216806152ea57607f821691505b602082108114156117b157634e487b7160e01b600052602260045260246000fd5b600060001982141561531f5761531f61533a565b5060010190565b60008261533557615335615350565b500690565b634e487b7160e01b600052601160045260246000fd5b634e487b7160e01b600052601260045260246000fd5b634e487b7160e01b600052604160045260246000fd5b6001600160a01b038116811461107a57600080fd5b6001600160e01b03198116811461107a57600080fdfebe2bb46ac0377341a1ec5c3116d70fd5029d704bd46292e58f6265dd177ebafea164736f6c6343000804000a",
  "linkReferences": {},
  "deployedLinkReferences": {}
}