{
  "_format": "hh-sol-artifact-1",
  "contractName": "UNSRegistryForwarderMock",
  "sourceName": "contracts/mocks/UNSRegistryForwarderMock.sol",
  "abi": [
    {
      "inputs": [
        {
          "components": [
            {
              "internalType": "address",
              "name": "from",
              "type": "address"
            },
            {
              "internalType": "uint256",
              "name": "nonce",
              "type": "uint256"
            },
            {
              "internalType": "uint256",
              "name": "tokenId",
              "type": "uint256"
            },
            {
              "internalType": "bytes",
              "name": "data",
              "type": "bytes"
            }
          ],
          "internalType": "struct IForwarder.ForwardRequest",
          "name": "req",
          "type": "tuple"
        },
        {
          "internalType": "bytes",
          "name": "signature",
          "type": "bytes"
        }
      ],
      "name": "execute",
      "outputs": [
        {
          "internalType": "bytes",
          "name": "",
          "type": "bytes"
        }
      ],
      "stateMutability": "nonpayable",
      "type": "function"
    },
    {
      "inputs": [],
      "name": "initialize",
      "outputs": [],
      "stateMutability": "nonpayable",
      "type": "function"
    },
    {
      "inputs": [
        {
          "internalType": "uint256",
          "name": "tokenId",
          "type": "uint256"
        }
      ],
      "name": "nonceOf",
      "outputs": [
        {
          "internalType": "uint256",
          "name": "",
          "type": "uint256"
        }
      ],
      "stateMutability": "view",
      "type": "function"
    },
    {
      "inputs": [
        {
          "components": [
            {
              "internalType": "address",
              "name": "from",
              "type": "address"
            },
            {
              "internalType": "uint256",
              "name": "nonce",
              "type": "uint256"
            },
            {
              "internalType": "uint256",
              "name": "tokenId",
              "type": "uint256"
            },
            {
              "internalType": "bytes",
              "name": "data",
              "type": "bytes"
            }
          ],
          "internalType": "struct IForwarder.ForwardRequest",
          "name": "req",
          "type": "tuple"
        },
        {
          "internalType": "bytes",
          "name": "signature",
          "type": "bytes"
        }
      ],
      "name": "verify",
      "outputs": [
        {
          "internalType": "bool",
          "name": "",
          "type": "bool"
        }
      ],
      "stateMutability": "view",
      "type": "function"
    }
  ],
  "bytecode": "0x608060405234801561001057600080fd5b50610dec806100206000396000f3fe608060405234801561001057600080fd5b506004361061004c5760003560e01c80631bf7e13e146100515780636ccbae5f1461007a5780638129fc1c1461009a578063a4247400146100a4575b600080fd5b61006461005f36600461089b565b6100c4565b6040516100719190610a85565b60405180910390f35b61008d610088366004610933565b610198565b6040516100719190610c1f565b6100a26101ad565b005b6100b76100b236600461089b565b61022a565b6040516100719190610a43565b606060005a90506100d685858561022a565b6100fb5760405162461bcd60e51b81526004016100f290610bd8565b60405180910390fd5b61018d61010b6020870187610859565b3060408801358461011f60608b018b610c28565b8080601f01602080910402602001604051908101604052809392919081815260200183838082843760009201919091525050604080516020601f8e018190048102820181019092528c815292508c91508b908190840183828082843760009201919091525061027d92505050565b9150505b9392505050565b6000818152603560205260409020545b919050565b600054610100900460ff16806101c6575060005460ff16155b6101e25760405162461bcd60e51b81526004016100f290610b48565b600054610100900460ff1615801561020d576000805460ff1961ff0019909116610100171660011790555b61021561036c565b8015610227576000805461ff00191690555b50565b600061027561023885610cb8565b3085858080601f0160208091040260200160405190810160405280939291908181526020018383808284376000920191909152506103d492505050565b949350505050565b6060610288856104c6565b600080876001600160a01b0316866102a28b8a89896104f2565b6040516102af91906109b7565b60006040518083038160008787f1925050503d80600081146102ed576040519150601f19603f3d011682016040523d82523d6000602084013e6102f2565b606091505b509092509050610303603f87610c98565b5a1161031f57634e487b7160e01b600052600160045260246000fd5b61035f82826040518060400160405280601a81526020017f42617365466f727761726465723a2043414c4c5f4641494c4544000000000000815250610522565b9998505050505050505050565b600054610100900460ff1680610385575060005460ff16155b6103a15760405162461bcd60e51b81526004016100f290610b48565b600054610100900460ff161580156103cc576000805460ff1961ff0019909116610100171660011790555b61021561055b565b6040808401519051636ccbae5f60e01b815260009182913091636ccbae5f916104009190600401610c1f565b60206040518083038186803b15801561041857600080fd5b505afa15801561042c573d6000803e3d6000fd5b505050506040513d601f19601f82011682018060405250810190610450919061094b565b9050600061049686606001518051906020012086886020015160405160200161047b9392919061098f565b604051602081830303815290604052805190602001206105ce565b90508186602001511480156104bc575085516104bc906001600160a01b031682866105fe565b9695505050505050565b6000818152603560205260409020546104e0906001610c74565b60009182526035602052604090912055565b6060828585604051602001610509939291906109d3565b6040516020818303038152906040529050949350505050565b60608315610531575081610191565b8251156105415782518084602001fd5b8160405162461bcd60e51b81526004016100f29190610a85565b600054610100900460ff1680610574575060005460ff16155b6105905760405162461bcd60e51b81526004016100f290610b48565b600054610100900460ff16158015610215576000805460ff1961ff0019909116610100171660011790558015610227576000805461ff001916905550565b6000816040516020016105e19190610a12565b604051602081830303815290604052805190602001209050919050565b6000610609846106cf565b156106aa57604051630b135d3f60e11b81526001600160a01b03851690631626ba7e9061063c9086908690600401610a4e565b60206040518083038186803b15801561065457600080fd5b505afa925050508015610684575060408051601f3d908101601f1916820190925261068191810190610873565b60015b61069057506000610191565b6001600160e01b031916630b135d3f60e11b149050610191565b836001600160a01b03166106be84846106d5565b6001600160a01b0316149050610191565b3b151590565b6000806000808451604114156106ff5750505060208201516040830151606084015160001a610745565b84516040141561072d5750505060408201516020830151906001600160ff1b0381169060ff1c601b01610745565b60405162461bcd60e51b81526004016100f290610acf565b6104bc8682858560007f7fffffffffffffffffffffffffffffff5d576e7357a4501ddfe92f46681b20a082111561078e5760405162461bcd60e51b81526004016100f290610b06565b8360ff16601b14806107a357508360ff16601c145b6107bf5760405162461bcd60e51b81526004016100f290610b96565b6000600186868686604051600081526020016040526040516107e49493929190610a67565b6020604051602081039080840390855afa158015610806573d6000803e3d6000fd5b5050604051601f1901519150506001600160a01b0381166108395760405162461bcd60e51b81526004016100f290610a98565b95945050505050565b80356001600160a01b03811681146101a857600080fd5b60006020828403121561086a578081fd5b61019182610842565b600060208284031215610884578081fd5b81516001600160e01b031981168114610191578182fd5b6000806000604084860312156108af578182fd5b833567ffffffffffffffff808211156108c6578384fd5b90850190608082880312156108d9578384fd5b909350602085013590808211156108ee578384fd5b818601915086601f830112610901578384fd5b81358181111561090f578485fd5b876020828501011115610920578485fd5b6020830194508093505050509250925092565b600060208284031215610944578081fd5b5035919050565b60006020828403121561095c578081fd5b5051919050565b6000815180845261097b816020860160208601610d99565b601f01601f19169290920160200192915050565b92835260609190911b6bffffffffffffffffffffffff19166020830152603482015260540190565b600082516109c9818460208701610d99565b9190910192915050565b600084516109e5818460208901610d99565b60609490941b6bffffffffffffffffffffffff191691909301908152601481019190915260340192915050565b7f19457468657265756d205369676e6564204d6573736167653a0a3332000000008152601c810191909152603c0190565b901515815260200190565b6000838252604060208301526102756040830184610963565b93845260ff9290921660208401526040830152606082015260800190565b6000602082526101916020830184610963565b60208082526018908201527f45434453413a20696e76616c6964207369676e61747572650000000000000000604082015260600190565b6020808252601f908201527f45434453413a20696e76616c6964207369676e6174757265206c656e67746800604082015260600190565b60208082526022908201527f45434453413a20696e76616c6964207369676e6174757265202773272076616c604082015261756560f01b606082015260800190565b6020808252602e908201527f496e697469616c697a61626c653a20636f6e747261637420697320616c72656160408201526d191e481a5b9a5d1a585b1a5e995960921b606082015260800190565b60208082526022908201527f45434453413a20696e76616c6964207369676e6174757265202776272076616c604082015261756560f01b606082015260800190565b60208082526027908201527f554e535265676973747279466f727761726465723a205349474e41545552455f6040820152661253959053125160ca1b606082015260800190565b90815260200190565b6000808335601e19843603018112610c3e578283fd5b83018035915067ffffffffffffffff821115610c58578283fd5b602001915036819003821315610c6d57600080fd5b9250929050565b60008219821115610c9357634e487b7160e01b81526011600452602481fd5b500190565b600082610cb357634e487b7160e01b81526012600452602481fd5b500490565b600060808236031215610cc9578081fd5b604080516080810167ffffffffffffffff8282108183111715610cee57610cee610dc9565b818452610cfa86610842565b83526020915081860135828401528386013584840152606086013581811115610d21578586fd5b860136601f820112610d31578586fd5b803582811115610d4357610d43610dc9565b8551601f8201601f1916810185018481118282101715610d6557610d65610dc9565b87528181523683830186011115610d7a578788fd5b8185840186830137908101909301959095525060608201529392505050565b60005b83811015610db4578181015183820152602001610d9c565b83811115610dc3576000848401525b50505050565b634e487b7160e01b600052604160045260246000fdfea164736f6c6343000800000a",
  "linkReferences": {},
  "deployedLinkReferences": {}
}