{
  "_format": "hh-sol-artifact-1",
  "contractName": "UNSReverseDelegate",
  "sourceName": "contracts/UNSReverseDelegate.sol",
  "abi": [
    {
      "anonymous": false,
      "inputs": [
        {
          "indexed": true,
          "internalType": "address",
          "name": "owner",
          "type": "address"
        },
        {
          "indexed": true,
          "internalType": "address",
          "name": "approved",
          "type": "address"
        },
        {
          "indexed": true,
          "internalType": "uint256",
          "name": "tokenId",
          "type": "uint256"
        }
      ],
      "name": "Approval",
      "type": "event"
    },
    {
      "anonymous": false,
      "inputs": [
        {
          "indexed": true,
          "internalType": "address",
          "name": "owner",
          "type": "address"
        },
        {
          "indexed": true,
          "internalType": "address",
          "name": "operator",
          "type": "address"
        },
        {
          "indexed": false,
          "internalType": "bool",
          "name": "approved",
          "type": "bool"
        }
      ],
      "name": "ApprovalForAll",
      "type": "event"
    },
    {
      "anonymous": false,
      "inputs": [
        {
          "indexed": false,
          "internalType": "uint8",
          "name": "version",
          "type": "uint8"
        }
      ],
      "name": "Initialized",
      "type": "event"
    },
    {
      "anonymous": false,
      "inputs": [
        {
          "indexed": true,
          "internalType": "address",
          "name": "addr",
          "type": "address"
        }
      ],
      "name": "RemoveReverse",
      "type": "event"
    },
    {
      "anonymous": false,
      "inputs": [
        {
          "indexed": true,
          "internalType": "address",
          "name": "addr",
          "type": "address"
        },
        {
          "indexed": true,
          "internalType": "uint256",
          "name": "tokenId",
          "type": "uint256"
        }
      ],
      "name": "SetReverse",
      "type": "event"
    },
    {
      "anonymous": false,
      "inputs": [
        {
          "indexed": true,
          "internalType": "address",
          "name": "from",
          "type": "address"
        },
        {
          "indexed": true,
          "internalType": "address",
          "name": "to",
          "type": "address"
        },
        {
          "indexed": true,
          "internalType": "uint256",
          "name": "tokenId",
          "type": "uint256"
        }
      ],
      "name": "Transfer",
      "type": "event"
    },
    {
      "inputs": [
        {
          "internalType": "address",
          "name": "to",
          "type": "address"
        },
        {
          "internalType": "uint256",
          "name": "tokenId",
          "type": "uint256"
        }
      ],
      "name": "approve",
      "outputs": [],
      "stateMutability": "nonpayable",
      "type": "function"
    },
    {
      "inputs": [
        {
          "internalType": "address",
          "name": "owner",
          "type": "address"
        }
      ],
      "name": "balanceOf",
      "outputs": [
        {
          "internalType": "uint256",
          "name": "",
          "type": "uint256"
        }
      ],
      "stateMutability": "view",
      "type": "function"
    },
    {
      "inputs": [
        {
          "internalType": "uint256",
          "name": "tokenId",
          "type": "uint256"
        }
      ],
      "name": "getApproved",
      "outputs": [
        {
          "internalType": "address",
          "name": "",
          "type": "address"
        }
      ],
      "stateMutability": "view",
      "type": "function"
    },
    {
      "inputs": [
        {
          "internalType": "address",
          "name": "owner",
          "type": "address"
        },
        {
          "internalType": "address",
          "name": "operator",
          "type": "address"
        }
      ],
      "name": "isApprovedForAll",
      "outputs": [
        {
          "internalType": "bool",
          "name": "",
          "type": "bool"
        }
      ],
      "stateMutability": "view",
      "type": "function"
    },
    {
      "inputs": [],
      "name": "name",
      "outputs": [
        {
          "internalType": "string",
          "name": "",
          "type": "string"
        }
      ],
      "stateMutability": "view",
      "type": "function"
    },
    {
      "inputs": [
        {
          "internalType": "uint256",
          "name": "tokenId",
          "type": "uint256"
        }
      ],
      "name": "ownerOf",
      "outputs": [
        {
          "internalType": "address",
          "name": "",
          "type": "address"
        }
      ],
      "stateMutability": "view",
      "type": "function"
    },
    {
      "inputs": [],
      "name": "removeReverse",
      "outputs": [],
      "stateMutability": "nonpayable",
      "type": "function"
    },
    {
      "inputs": [
        {
          "internalType": "address",
          "name": "addr",
          "type": "address"
        }
      ],
      "name": "reverseOf",
      "outputs": [
        {
          "internalType": "uint256",
          "name": "reverse",
          "type": "uint256"
        }
      ],
      "stateMutability": "view",
      "type": "function"
    },
    {
      "inputs": [
        {
          "internalType": "address",
          "name": "from",
          "type": "address"
        },
        {
          "internalType": "address",
          "name": "to",
          "type": "address"
        },
        {
          "internalType": "uint256",
          "name": "tokenId",
          "type": "uint256"
        }
      ],
      "name": "safeTransferFrom",
      "outputs": [],
      "stateMutability": "nonpayable",
      "type": "function"
    },
    {
      "inputs": [
        {
          "internalType": "address",
          "name": "from",
          "type": "address"
        },
        {
          "internalType": "address",
          "name": "to",
          "type": "address"
        },
        {
          "internalType": "uint256",
          "name": "tokenId",
          "type": "uint256"
        },
        {
          "internalType": "bytes",
          "name": "data",
          "type": "bytes"
        }
      ],
      "name": "safeTransferFrom",
      "outputs": [],
      "stateMutability": "nonpayable",
      "type": "function"
    },
    {
      "inputs": [
        {
          "internalType": "address",
          "name": "operator",
          "type": "address"
        },
        {
          "internalType": "bool",
          "name": "approved",
          "type": "bool"
        }
      ],
      "name": "setApprovalForAll",
      "outputs": [],
      "stateMutability": "nonpayable",
      "type": "function"
    },
    {
      "inputs": [
        {
          "internalType": "uint256",
          "name": "tokenId",
          "type": "uint256"
        }
      ],
      "name": "setReverse",
      "outputs": [],
      "stateMutability": "nonpayable",
      "type": "function"
    },
    {
      "inputs": [
        {
          "internalType": "bytes4",
          "name": "interfaceId",
          "type": "bytes4"
        }
      ],
      "name": "supportsInterface",
      "outputs": [
        {
          "internalType": "bool",
          "name": "",
          "type": "bool"
        }
      ],
      "stateMutability": "view",
      "type": "function"
    },
    {
      "inputs": [],
      "name": "symbol",
      "outputs": [
        {
          "internalType": "string",
          "name": "",
          "type": "string"
        }
      ],
      "stateMutability": "view",
      "type": "function"
    },
    {
      "inputs": [
        {
          "internalType": "uint256",
          "name": "tokenId",
          "type": "uint256"
        }
      ],
      "name": "tokenURI",
      "outputs": [
        {
          "internalType": "string",
          "name": "",
          "type": "string"
        }
      ],
      "stateMutability": "view",
      "type": "function"
    },
    {
      "inputs": [
        {
          "internalType": "address",
          "name": "from",
          "type": "address"
        },
        {
          "internalType": "address",
          "name": "to",
          "type": "address"
        },
        {
          "internalType": "uint256",
          "name": "tokenId",
          "type": "uint256"
        }
      ],
      "name": "transferFrom",
      "outputs": [],
      "stateMutability": "nonpayable",
      "type": "function"
    }
  ],
  "bytecode": "0x608060405234801561001057600080fd5b506112ef806100206000396000f3fe608060405234801561001057600080fd5b50600436106101005760003560e01c806370a0823111610097578063b88d4fde11610066578063b88d4fde14610234578063c87b56dd14610247578063e985e9c51461025a578063f25eb5c11461029657600080fd5b806370a08231146101ce5780637e37479e146101ef57806395d89b4114610219578063a22cb4651461022157600080fd5b806323b872dd116100d357806323b872dd14610182578063384e9a551461019557806342842e0e146101a85780636352211e146101bb57600080fd5b806301ffc9a71461010557806306fdde031461012d578063081812fc14610142578063095ea7b31461016d575b600080fd5b610118610113366004611016565b61029e565b60405190151581526020015b60405180910390f35b6101356102f0565b60405161012491906110fe565b61015561015036600461104e565b610382565b6040516001600160a01b039091168152602001610124565b61018061017b366004610fed565b6103a9565b005b610180610190366004610ea3565b6104c4565b6101806101a336600461104e565b6104f5565b6101806101b6366004610ea3565b610562565b6101556101c936600461104e565b61057d565b6101e16101dc366004610e57565b6105dd565b604051908152602001610124565b6101e16101fd366004610e57565b6001600160a01b03166000908152610135602052604090205490565b610135610663565b61018061022f366004610fb3565b610672565b610180610242366004610ede565b610681565b61013561025536600461104e565b6106b9565b610118610268366004610e71565b6001600160a01b039182166000908152606a6020908152604080832093909416825291909152205460ff1690565b61018061072d565b60006001600160e01b031982166380ac58cd60e01b14806102cf57506001600160e01b03198216635b5e139f60e01b145b806102ea57506301ffc9a760e01b6001600160e01b03198316145b92915050565b6060606580546102ff90611220565b80601f016020809104026020016040519081016040528092919081815260200182805461032b90611220565b80156103785780601f1061034d57610100808354040283529160200191610378565b820191906000526020600020905b81548152906001019060200180831161035b57829003601f168201915b5050505050905090565b600061038d8261079d565b506000908152606960205260409020546001600160a01b031690565b60006103b48261057d565b9050806001600160a01b0316836001600160a01b031614156104275760405162461bcd60e51b815260206004820152602160248201527f4552433732313a20617070726f76616c20746f2063757272656e74206f776e656044820152603960f91b60648201526084015b60405180910390fd5b336001600160a01b038216148061044357506104438133610268565b6104b55760405162461bcd60e51b815260206004820152603e60248201527f4552433732313a20617070726f76652063616c6c6572206973206e6f7420746f60448201527f6b656e206f776e6572206e6f7220617070726f76656420666f7220616c6c0000606482015260840161041e565b6104bf83836107fc565b505050565b6104ce338261086a565b6104ea5760405162461bcd60e51b815260040161041e90611163565b6104bf8383836108e9565b336104ff8261057d565b6001600160a01b0316146105555760405162461bcd60e51b815260206004820152601d60248201527f52656769737472793a2053454e4445525f49535f4e4f545f4f574e4552000000604482015260640161041e565b61055f3382610a85565b50565b6104bf83838360405180602001604052806000815250610681565b6000818152606760205260408120546001600160a01b0316806102ea5760405162461bcd60e51b8152602060048201526018602482015277115490cdcc8c4e881a5b9d985b1a59081d1bdad95b88125160421b604482015260640161041e565b60006001600160a01b0382166106475760405162461bcd60e51b815260206004820152602960248201527f4552433732313a2061646472657373207a65726f206973206e6f7420612076616044820152683634b21037bbb732b960b91b606482015260840161041e565b506001600160a01b031660009081526068602052604090205490565b6060606680546102ff90611220565b61067d338383610acd565b5050565b61068b338361086a565b6106a75760405162461bcd60e51b815260040161041e90611163565b6106b384848484610b9c565b50505050565b60606106c48261079d565b60006106db60408051602081019091526000815290565b905060008151116106fb5760405180602001604052806000815250610726565b8061070584610bcf565b604051602001610716929190611092565b6040516020818303038152906040525b9392505050565b33600081815261013560205260409020546107945760405162461bcd60e51b815260206004820152602160248201527f52656769737472793a20524556455253455f5245434f52445f49535f454d50546044820152605960f81b606482015260840161041e565b61055f81610ce9565b6000818152606760205260409020546001600160a01b031661055f5760405162461bcd60e51b8152602060048201526018602482015277115490cdcc8c4e881a5b9d985b1a59081d1bdad95b88125160421b604482015260640161041e565b600081815260696020526040902080546001600160a01b0319166001600160a01b03841690811790915581906108318261057d565b6001600160a01b03167f8c5be1e5ebec7d5bd14f71427d1e84f3dd0314c0f7b2291e5b200ac8c7c3b92560405160405180910390a45050565b6000806108768361057d565b9050806001600160a01b0316846001600160a01b031614806108bd57506001600160a01b038082166000908152606a602090815260408083209388168352929052205460ff165b806108e15750836001600160a01b03166108d684610382565b6001600160a01b0316145b949350505050565b826001600160a01b03166108fc8261057d565b6001600160a01b0316146109605760405162461bcd60e51b815260206004820152602560248201527f4552433732313a207472616e736665722066726f6d20696e636f72726563742060448201526437bbb732b960d91b606482015260840161041e565b6001600160a01b0382166109c25760405162461bcd60e51b8152602060048201526024808201527f4552433732313a207472616e7366657220746f20746865207a65726f206164646044820152637265737360e01b606482015260840161041e565b6109cd6000826107fc565b6001600160a01b03831660009081526068602052604081208054600192906109f69084906111dd565b90915550506001600160a01b0382166000908152606860205260408120805460019290610a249084906111b1565b909155505060008181526067602052604080822080546001600160a01b0319166001600160a01b0386811691821790925591518493918716917fddf252ad1be2c89b69c2b068fc378daa952ba7f163c4a11628f55a4df523b3ef91a4505050565b6001600160a01b03821660008181526101356020526040808220849055518392917feb76a21470988c474a21f690cc28fee1ed511bd812dc3c21fd0f49c5e5d4708a91a35050565b816001600160a01b0316836001600160a01b03161415610b2f5760405162461bcd60e51b815260206004820152601960248201527f4552433732313a20617070726f766520746f2063616c6c657200000000000000604482015260640161041e565b6001600160a01b038381166000818152606a6020908152604080832094871680845294825291829020805460ff191686151590811790915591519182527f17307eab39ab6107e8899845ad3d59bd9653f200f220920489ca2b5937696c31910160405180910390a3505050565b610ba78484846108e9565b610bb384848484610d2e565b6106b35760405162461bcd60e51b815260040161041e90611111565b606081610bf35750506040805180820190915260018152600360fc1b602082015290565b8160005b8115610c1d5780610c078161125b565b9150610c169050600a836111c9565b9150610bf7565b60008167ffffffffffffffff811115610c4657634e487b7160e01b600052604160045260246000fd5b6040519080825280601f01601f191660200182016040528015610c70576020820181803683370190505b5090505b84156108e157610c856001836111dd565b9150610c92600a86611276565b610c9d9060306111b1565b60f81b818381518110610cc057634e487b7160e01b600052603260045260246000fd5b60200101906001600160f81b031916908160001a905350610ce2600a866111c9565b9450610c74565b6001600160a01b03811660008181526101356020526040808220829055517ffcf5eec0cfa3e6332f5f0e63ec242d71f866a61d121d6cdf5c2eb3b668a26c4f9190a250565b60006001600160a01b0384163b15610e3057604051630a85bd0160e11b81526001600160a01b0385169063150b7a0290610d729033908990889088906004016110c1565b602060405180830381600087803b158015610d8c57600080fd5b505af1925050508015610dbc575060408051601f3d908101601f19168201909252610db991810190611032565b60015b610e16573d808015610dea576040519150601f19603f3d011682016040523d82523d6000602084013e610def565b606091505b508051610e0e5760405162461bcd60e51b815260040161041e90611111565b805181602001fd5b6001600160e01b031916630a85bd0160e11b1490506108e1565b506001949350505050565b80356001600160a01b0381168114610e5257600080fd5b919050565b600060208284031215610e68578081fd5b61072682610e3b565b60008060408385031215610e83578081fd5b610e8c83610e3b565b9150610e9a60208401610e3b565b90509250929050565b600080600060608486031215610eb7578081fd5b610ec084610e3b565b9250610ece60208501610e3b565b9150604084013590509250925092565b60008060008060808587031215610ef3578081fd5b610efc85610e3b565b9350610f0a60208601610e3b565b925060408501359150606085013567ffffffffffffffff80821115610f2d578283fd5b818701915087601f830112610f40578283fd5b813581811115610f5257610f526112b6565b604051601f8201601f19908116603f01168101908382118183101715610f7a57610f7a6112b6565b816040528281528a6020848701011115610f92578586fd5b82602086016020830137918201602001949094529598949750929550505050565b60008060408385031215610fc5578182fd5b610fce83610e3b565b915060208301358015158114610fe2578182fd5b809150509250929050565b60008060408385031215610fff578182fd5b61100883610e3b565b946020939093013593505050565b600060208284031215611027578081fd5b8135610726816112cc565b600060208284031215611043578081fd5b8151610726816112cc565b60006020828403121561105f578081fd5b5035919050565b6000815180845261107e8160208601602086016111f4565b601f01601f19169290920160200192915050565b600083516110a48184602088016111f4565b8351908301906110b88183602088016111f4565b01949350505050565b6001600160a01b03858116825284166020820152604081018390526080606082018190526000906110f490830184611066565b9695505050505050565b6020815260006107266020830184611066565b60208082526032908201527f4552433732313a207472616e7366657220746f206e6f6e20455243373231526560408201527131b2b4bb32b91034b6b83632b6b2b73a32b960711b606082015260800190565b6020808252602e908201527f4552433732313a2063616c6c6572206973206e6f7420746f6b656e206f776e6560408201526d1c881b9bdc88185c1c1c9bdd995960921b606082015260800190565b600082198211156111c4576111c461128a565b500190565b6000826111d8576111d86112a0565b500490565b6000828210156111ef576111ef61128a565b500390565b60005b8381101561120f5781810151838201526020016111f7565b838111156106b35750506000910152565b600181811c9082168061123457607f821691505b6020821081141561125557634e487b7160e01b600052602260045260246000fd5b50919050565b600060001982141561126f5761126f61128a565b5060010190565b600082611285576112856112a0565b500690565b634e487b7160e01b600052601160045260246000fd5b634e487b7160e01b600052601260045260246000fd5b634e487b7160e01b600052604160045260246000fd5b6001600160e01b03198116811461055f57600080fdfea164736f6c6343000804000a",
  "linkReferences": {},
  "deployedLinkReferences": {}
}