{
  "_format": "hh-sol-artifact-1",
  "contractName": "UNSRegistry",
  "sourceName": "contracts/UNSRegistry.sol",
  "abi": [
    {
      "anonymous": false,
      "inputs": [
        {
          "indexed": false,
          "internalType": "address",
          "name": "previousAdmin",
          "type": "address"
        },
        {
          "indexed": false,
          "internalType": "address",
          "name": "newAdmin",
          "type": "address"
        }
      ],
      "name": "AdminChanged",
      "type": "event"
    },
    {
      "anonymous": false,
      "inputs": [
        {
          "indexed": true,
          "internalType": "address",
          "name": "owner",
          "type": "address"
        },
        {
          "indexed": true,
          "internalType": "address",
          "name": "approved",
          "type": "address"
        },
        {
          "indexed": true,
          "internalType": "uint256",
          "name": "tokenId",
          "type": "uint256"
        }
      ],
      "name": "Approval",
      "type": "event"
    },
    {
      "anonymous": false,
      "inputs": [
        {
          "indexed": true,
          "internalType": "address",
          "name": "owner",
          "type": "address"
        },
        {
          "indexed": true,
          "internalType": "address",
          "name": "operator",
          "type": "address"
        },
        {
          "indexed": false,
          "internalType": "bool",
          "name": "approved",
          "type": "bool"
        }
      ],
      "name": "ApprovalForAll",
      "type": "event"
    },
    {
      "anonymous": false,
      "inputs": [
        {
          "indexed": false,
          "internalType": "uint8",
          "name": "version",
          "type": "uint8"
        }
      ],
      "name": "Initialized",
      "type": "event"
    },
    {
      "anonymous": false,
      "inputs": [
        {
          "indexed": true,
          "internalType": "uint256",
          "name": "tokenId",
          "type": "uint256"
        },
        {
          "indexed": true,
          "internalType": "string",
          "name": "keyIndex",
          "type": "string"
        },
        {
          "indexed": false,
          "internalType": "string",
          "name": "key",
          "type": "string"
        }
      ],
      "name": "NewKey",
      "type": "event"
    },
    {
      "anonymous": false,
      "inputs": [
        {
          "indexed": true,
          "internalType": "uint256",
          "name": "tokenId",
          "type": "uint256"
        },
        {
          "indexed": false,
          "internalType": "string",
          "name": "uri",
          "type": "string"
        }
      ],
      "name": "NewURI",
      "type": "event"
    },
    {
      "anonymous": false,
      "inputs": [
        {
          "indexed": false,
          "internalType": "string",
          "name": "prefix",
          "type": "string"
        }
      ],
      "name": "NewURIPrefix",
      "type": "event"
    },
    {
      "anonymous": false,
      "inputs": [
        {
          "indexed": true,
          "internalType": "address",
          "name": "addr",
          "type": "address"
        }
      ],
      "name": "RemoveReverse",
      "type": "event"
    },
    {
      "anonymous": false,
      "inputs": [
        {
          "indexed": true,
          "internalType": "uint256",
          "name": "tokenId",
          "type": "uint256"
        }
      ],
      "name": "ResetRecords",
      "type": "event"
    },
    {
      "anonymous": false,
      "inputs": [
        {
          "indexed": true,
          "internalType": "uint256",
          "name": "tokenId",
          "type": "uint256"
        },
        {
          "indexed": true,
          "internalType": "string",
          "name": "keyIndex",
          "type": "string"
        },
        {
          "indexed": true,
          "internalType": "string",
          "name": "valueIndex",
          "type": "string"
        },
        {
          "indexed": false,
          "internalType": "string",
          "name": "key",
          "type": "string"
        },
        {
          "indexed": false,
          "internalType": "string",
          "name": "value",
          "type": "string"
        }
      ],
      "name": "Set",
      "type": "event"
    },
    {
      "anonymous": false,
      "inputs": [
        {
          "indexed": true,
          "internalType": "address",
          "name": "addr",
          "type": "address"
        },
        {
          "indexed": true,
          "internalType": "uint256",
          "name": "tokenId",
          "type": "uint256"
        }
      ],
      "name": "SetReverse",
      "type": "event"
    },
    {
      "anonymous": false,
      "inputs": [
        {
          "indexed": true,
          "internalType": "address",
          "name": "from",
          "type": "address"
        },
        {
          "indexed": true,
          "internalType": "address",
          "name": "to",
          "type": "address"
        },
        {
          "indexed": true,
          "internalType": "uint256",
          "name": "tokenId",
          "type": "uint256"
        }
      ],
      "name": "Transfer",
      "type": "event"
    },
    {
      "anonymous": false,
      "inputs": [
        {
          "indexed": true,
          "internalType": "address",
          "name": "implementation",
          "type": "address"
        }
      ],
      "name": "Upgraded",
      "type": "event"
    },
    {
      "inputs": [],
      "name": "BATCH_LIMIT",
      "outputs": [
        {
          "internalType": "uint256",
          "name": "",
          "type": "uint256"
        }
      ],
      "stateMutability": "view",
      "type": "function"
    },
    {
      "inputs": [],
      "name": "NAME",
      "outputs": [
        {
          "internalType": "string",
          "name": "",
          "type": "string"
        }
      ],
      "stateMutability": "view",
      "type": "function"
    },
    {
      "inputs": [],
      "name": "VERSION",
      "outputs": [
        {
          "internalType": "string",
          "name": "",
          "type": "string"
        }
      ],
      "stateMutability": "view",
      "type": "function"
    },
    {
      "inputs": [
        {
          "internalType": "string",
          "name": "key",
          "type": "string"
        }
      ],
      "name": "addKey",
      "outputs": [],
      "stateMutability": "nonpayable",
      "type": "function"
    },
    {
      "inputs": [
        {
          "internalType": "address",
          "name": "addr",
          "type": "address"
        }
      ],
      "name": "addProxyReader",
      "outputs": [],
      "stateMutability": "nonpayable",
      "type": "function"
    },
    {
      "inputs": [
        {
          "internalType": "address",
          "name": "to",
          "type": "address"
        },
        {
          "internalType": "uint256",
          "name": "tokenId",
          "type": "uint256"
        }
      ],
      "name": "approve",
      "outputs": [],
      "stateMutability": "nonpayable",
      "type": "function"
    },
    {
      "inputs": [
        {
          "internalType": "string[][]",
          "name": "domains",
          "type": "string[][]"
        }
      ],
      "name": "backfillReverseNames",
      "outputs": [],
      "stateMutability": "nonpayable",
      "type": "function"
    },
    {
      "inputs": [
        {
          "internalType": "address",
          "name": "owner",
          "type": "address"
        }
      ],
      "name": "balanceOf",
      "outputs": [
        {
          "internalType": "uint256",
          "name": "",
          "type": "uint256"
        }
      ],
      "stateMutability": "view",
      "type": "function"
    },
    {
      "inputs": [
        {
          "internalType": "uint256",
          "name": "tokenId",
          "type": "uint256"
        }
      ],
      "name": "burn",
      "outputs": [],
      "stateMutability": "nonpayable",
      "type": "function"
    },
    {
      "inputs": [
        {
          "internalType": "address",
          "name": "user",
          "type": "address"
        },
        {
          "internalType": "bytes",
          "name": "depositData",
          "type": "bytes"
        }
      ],
      "name": "deposit",
      "outputs": [],
      "stateMutability": "nonpayable",
      "type": "function"
    },
    {
      "inputs": [
        {
          "internalType": "uint256",
          "name": "tokenId",
          "type": "uint256"
        }
      ],
      "name": "depositToPolygon",
      "outputs": [],
      "stateMutability": "nonpayable",
      "type": "function"
    },
    {
      "inputs": [
        {
          "components": [
            {
              "internalType": "address",
              "name": "from",
              "type": "address"
            },
            {
              "internalType": "uint256",
              "name": "nonce",
              "type": "uint256"
            },
            {
              "internalType": "uint256",
              "name": "tokenId",
              "type": "uint256"
            },
            {
              "internalType": "bytes",
              "name": "data",
              "type": "bytes"
            }
          ],
          "internalType": "struct IForwarder.ForwardRequest",
          "name": "req",
          "type": "tuple"
        },
        {
          "internalType": "bytes",
          "name": "signature",
          "type": "bytes"
        }
      ],
      "name": "execute",
      "outputs": [
        {
          "internalType": "bytes",
          "name": "",
          "type": "bytes"
        }
      ],
      "stateMutability": "nonpayable",
      "type": "function"
    },
    {
      "inputs": [
        {
          "internalType": "uint256",
          "name": "tokenId",
          "type": "uint256"
        }
      ],
      "name": "exists",
      "outputs": [
        {
          "internalType": "bool",
          "name": "",
          "type": "bool"
        }
      ],
      "stateMutability": "view",
      "type": "function"
    },
    {
      "inputs": [
        {
          "internalType": "string",
          "name": "key",
          "type": "string"
        },
        {
          "internalType": "uint256",
          "name": "tokenId",
          "type": "uint256"
        }
      ],
      "name": "get",
      "outputs": [
        {
          "internalType": "string",
          "name": "value",
          "type": "string"
        }
      ],
      "stateMutability": "view",
      "type": "function"
    },
    {
      "inputs": [
        {
          "internalType": "uint256",
          "name": "tokenId",
          "type": "uint256"
        }
      ],
      "name": "getApproved",
      "outputs": [
        {
          "internalType": "address",
          "name": "",
          "type": "address"
        }
      ],
      "stateMutability": "view",
      "type": "function"
    },
    {
      "inputs": [
        {
          "internalType": "uint256",
          "name": "keyHash",
          "type": "uint256"
        },
        {
          "internalType": "uint256",
          "name": "tokenId",
          "type": "uint256"
        }
      ],
      "name": "getByHash",
      "outputs": [
        {
          "internalType": "string",
          "name": "key",
          "type": "string"
        },
        {
          "internalType": "string",
          "name": "value",
          "type": "string"
        }
      ],
      "stateMutability": "view",
      "type": "function"
    },
    {
      "inputs": [
        {
          "internalType": "uint256",
          "name": "keyHash",
          "type": "uint256"
        }
      ],
      "name": "getKey",
      "outputs": [
        {
          "internalType": "string",
          "name": "",
          "type": "string"
        }
      ],
      "stateMutability": "view",
      "type": "function"
    },
    {
      "inputs": [
        {
          "internalType": "uint256[]",
          "name": "hashes",
          "type": "uint256[]"
        }
      ],
      "name": "getKeys",
      "outputs": [
        {
          "internalType": "string[]",
          "name": "values",
          "type": "string[]"
        }
      ],
      "stateMutability": "view",
      "type": "function"
    },
    {
      "inputs": [
        {
          "internalType": "string[]",
          "name": "keys",
          "type": "string[]"
        },
        {
          "internalType": "uint256",
          "name": "tokenId",
          "type": "uint256"
        }
      ],
      "name": "getMany",
      "outputs": [
        {
          "internalType": "string[]",
          "name": "values",
          "type": "string[]"
        }
      ],
      "stateMutability": "view",
      "type": "function"
    },
    {
      "inputs": [
        {
          "internalType": "uint256[]",
          "name": "keyHashes",
          "type": "uint256[]"
        },
        {
          "internalType": "uint256",
          "name": "tokenId",
          "type": "uint256"
        }
      ],
      "name": "getManyByHash",
      "outputs": [
        {
          "internalType": "string[]",
          "name": "keys",
          "type": "string[]"
        },
        {
          "internalType": "string[]",
          "name": "values",
          "type": "string[]"
        }
      ],
      "stateMutability": "view",
      "type": "function"
    },
    {
      "inputs": [
        {
          "internalType": "address",
          "name": "mintingManager",
          "type": "address"
        },
        {
          "internalType": "address",
          "name": "cnsRegistry",
          "type": "address"
        },
        {
          "internalType": "address",
          "name": "rootChainManager",
          "type": "address"
        },
        {
          "internalType": "address",
          "name": "childChainManager",
          "type": "address"
        }
      ],
      "name": "initialize",
      "outputs": [],
      "stateMutability": "nonpayable",
      "type": "function"
    },
    {
      "inputs": [
        {
          "internalType": "address",
          "name": "owner",
          "type": "address"
        },
        {
          "internalType": "address",
          "name": "operator",
          "type": "address"
        }
      ],
      "name": "isApprovedForAll",
      "outputs": [
        {
          "internalType": "bool",
          "name": "",
          "type": "bool"
        }
      ],
      "stateMutability": "view",
      "type": "function"
    },
    {
      "inputs": [
        {
          "internalType": "address",
          "name": "spender",
          "type": "address"
        },
        {
          "internalType": "uint256",
          "name": "tokenId",
          "type": "uint256"
        }
      ],
      "name": "isApprovedOrOwner",
      "outputs": [
        {
          "internalType": "bool",
          "name": "",
          "type": "bool"
        }
      ],
      "stateMutability": "view",
      "type": "function"
    },
    {
      "inputs": [
        {
          "internalType": "address",
          "name": "forwarder",
          "type": "address"
        }
      ],
      "name": "isTrustedForwarder",
      "outputs": [
        {
          "internalType": "bool",
          "name": "",
          "type": "bool"
        }
      ],
      "stateMutability": "view",
      "type": "function"
    },
    {
      "inputs": [
        {
          "internalType": "address",
          "name": "user",
          "type": "address"
        },
        {
          "internalType": "uint256",
          "name": "tokenId",
          "type": "uint256"
        }
      ],
      "name": "mint",
      "outputs": [],
      "stateMutability": "nonpayable",
      "type": "function"
    },
    {
      "inputs": [
        {
          "internalType": "address",
          "name": "user",
          "type": "address"
        },
        {
          "internalType": "uint256",
          "name": "tokenId",
          "type": "uint256"
        },
        {
          "internalType": "bytes",
          "name": "",
          "type": "bytes"
        }
      ],
      "name": "mint",
      "outputs": [],
      "stateMutability": "nonpayable",
      "type": "function"
    },
    {
      "inputs": [
        {
          "internalType": "uint256",
          "name": "tokenId",
          "type": "uint256"
        },
        {
          "internalType": "string",
          "name": "uri",
          "type": "string"
        }
      ],
      "name": "mintTLD",
      "outputs": [],
      "stateMutability": "nonpayable",
      "type": "function"
    },
    {
      "inputs": [
        {
          "internalType": "address",
          "name": "to",
          "type": "address"
        },
        {
          "internalType": "string[]",
          "name": "labels",
          "type": "string[]"
        },
        {
          "internalType": "string[]",
          "name": "keys",
          "type": "string[]"
        },
        {
          "internalType": "string[]",
          "name": "values",
          "type": "string[]"
        },
        {
          "internalType": "bool",
          "name": "withReverse",
          "type": "bool"
        }
      ],
      "name": "mintWithRecords",
      "outputs": [],
      "stateMutability": "nonpayable",
      "type": "function"
    },
    {
      "inputs": [],
      "name": "name",
      "outputs": [
        {
          "internalType": "string",
          "name": "",
          "type": "string"
        }
      ],
      "stateMutability": "view",
      "type": "function"
    },
    {
      "inputs": [
        {
          "internalType": "string[]",
          "name": "labels",
          "type": "string[]"
        }
      ],
      "name": "namehash",
      "outputs": [
        {
          "internalType": "uint256",
          "name": "",
          "type": "uint256"
        }
      ],
      "stateMutability": "pure",
      "type": "function"
    },
    {
      "inputs": [
        {
          "internalType": "uint256",
          "name": "tokenId",
          "type": "uint256"
        }
      ],
      "name": "nonceOf",
      "outputs": [
        {
          "internalType": "uint256",
          "name": "",
          "type": "uint256"
        }
      ],
      "stateMutability": "view",
      "type": "function"
    },
    {
      "inputs": [
        {
          "internalType": "address",
          "name": "",
          "type": "address"
        },
        {
          "internalType": "address",
          "name": "from",
          "type": "address"
        },
        {
          "internalType": "uint256",
          "name": "tokenId",
          "type": "uint256"
        },
        {
          "internalType": "bytes",
          "name": "data",
          "type": "bytes"
        }
      ],
      "name": "onERC721Received",
      "outputs": [
        {
          "internalType": "bytes4",
          "name": "",
          "type": "bytes4"
        }
      ],
      "stateMutability": "nonpayable",
      "type": "function"
    },
    {
      "inputs": [
        {
          "internalType": "uint256",
          "name": "tokenId",
          "type": "uint256"
        }
      ],
      "name": "ownerOf",
      "outputs": [
        {
          "internalType": "address",
          "name": "",
          "type": "address"
        }
      ],
      "stateMutability": "view",
      "type": "function"
    },
    {
      "inputs": [
        {
          "internalType": "string[]",
          "name": "keys",
          "type": "string[]"
        },
        {
          "internalType": "string[]",
          "name": "values",
          "type": "string[]"
        },
        {
          "internalType": "uint256",
          "name": "tokenId",
          "type": "uint256"
        }
      ],
      "name": "reconfigure",
      "outputs": [],
      "stateMutability": "nonpayable",
      "type": "function"
    },
    {
      "inputs": [],
      "name": "removeReverse",
      "outputs": [],
      "stateMutability": "nonpayable",
      "type": "function"
    },
    {
      "inputs": [
        {
          "internalType": "uint256",
          "name": "tokenId",
          "type": "uint256"
        }
      ],
      "name": "reset",
      "outputs": [],
      "stateMutability": "nonpayable",
      "type": "function"
    },
    {
      "inputs": [
        {
          "internalType": "uint256",
          "name": "tokenId",
          "type": "uint256"
        }
      ],
      "name": "resolverOf",
      "outputs": [
        {
          "internalType": "address",
          "name": "",
          "type": "address"
        }
      ],
      "stateMutability": "view",
      "type": "function"
    },
    {
      "inputs": [
        {
          "internalType": "address",
          "name": "addr",
          "type": "address"
        }
      ],
      "name": "reverseNameOf",
      "outputs": [
        {
          "internalType": "string",
          "name": "reverseUri",
          "type": "string"
        }
      ],
      "stateMutability": "view",
      "type": "function"
    },
    {
      "inputs": [
        {
          "internalType": "address",
          "name": "addr",
          "type": "address"
        }
      ],
      "name": "reverseOf",
      "outputs": [
        {
          "internalType": "uint256",
          "name": "reverse",
          "type": "uint256"
        }
      ],
      "stateMutability": "view",
      "type": "function"
    },
    {
      "inputs": [],
      "name": "root",
      "outputs": [
        {
          "internalType": "uint256",
          "name": "",
          "type": "uint256"
        }
      ],
      "stateMutability": "pure",
      "type": "function"
    },
    {
      "inputs": [
        {
          "internalType": "address",
          "name": "from",
          "type": "address"
        },
        {
          "internalType": "address",
          "name": "to",
          "type": "address"
        },
        {
          "internalType": "uint256",
          "name": "tokenId",
          "type": "uint256"
        }
      ],
      "name": "safeTransferFrom",
      "outputs": [],
      "stateMutability": "nonpayable",
      "type": "function"
    },
    {
      "inputs": [
        {
          "internalType": "address",
          "name": "from",
          "type": "address"
        },
        {
          "internalType": "address",
          "name": "to",
          "type": "address"
        },
        {
          "internalType": "uint256",
          "name": "tokenId",
          "type": "uint256"
        },
        {
          "internalType": "bytes",
          "name": "data",
          "type": "bytes"
        }
      ],
      "name": "safeTransferFrom",
      "outputs": [],
      "stateMutability": "nonpayable",
      "type": "function"
    },
    {
      "inputs": [
        {
          "internalType": "string",
          "name": "key",
          "type": "string"
        },
        {
          "internalType": "string",
          "name": "value",
          "type": "string"
        },
        {
          "internalType": "uint256",
          "name": "tokenId",
          "type": "uint256"
        }
      ],
      "name": "set",
      "outputs": [],
      "stateMutability": "nonpayable",
      "type": "function"
    },
    {
      "inputs": [
        {
          "internalType": "address",
          "name": "operator",
          "type": "address"
        },
        {
          "internalType": "bool",
          "name": "approved",
          "type": "bool"
        }
      ],
      "name": "setApprovalForAll",
      "outputs": [],
      "stateMutability": "nonpayable",
      "type": "function"
    },
    {
      "inputs": [
        {
          "internalType": "uint256",
          "name": "keyHash",
          "type": "uint256"
        },
        {
          "internalType": "string",
          "name": "value",
          "type": "string"
        },
        {
          "internalType": "uint256",
          "name": "tokenId",
          "type": "uint256"
        }
      ],
      "name": "setByHash",
      "outputs": [],
      "stateMutability": "nonpayable",
      "type": "function"
    },
    {
      "inputs": [
        {
          "internalType": "string[]",
          "name": "keys",
          "type": "string[]"
        },
        {
          "internalType": "string[]",
          "name": "values",
          "type": "string[]"
        },
        {
          "internalType": "uint256",
          "name": "tokenId",
          "type": "uint256"
        }
      ],
      "name": "setMany",
      "outputs": [],
      "stateMutability": "nonpayable",
      "type": "function"
    },
    {
      "inputs": [
        {
          "internalType": "uint256[]",
          "name": "keyHashes",
          "type": "uint256[]"
        },
        {
          "internalType": "string[]",
          "name": "values",
          "type": "string[]"
        },
        {
          "internalType": "uint256",
          "name": "tokenId",
          "type": "uint256"
        }
      ],
      "name": "setManyByHash",
      "outputs": [],
      "stateMutability": "nonpayable",
      "type": "function"
    },
    {
      "inputs": [
        {
          "internalType": "address",
          "name": "to",
          "type": "address"
        },
        {
          "internalType": "uint256",
          "name": "tokenId",
          "type": "uint256"
        }
      ],
      "name": "setOwner",
      "outputs": [],
      "stateMutability": "nonpayable",
      "type": "function"
    },
    {
      "inputs": [
        {
          "internalType": "uint256",
          "name": "tokenId",
          "type": "uint256"
        }
      ],
      "name": "setReverse",
      "outputs": [],
      "stateMutability": "nonpayable",
      "type": "function"
    },
    {
      "inputs": [
        {
          "internalType": "string[]",
          "name": "labels",
          "type": "string[]"
        }
      ],
      "name": "setReverse",
      "outputs": [],
      "stateMutability": "nonpayable",
      "type": "function"
    },
    {
      "inputs": [
        {
          "internalType": "string",
          "name": "prefix",
          "type": "string"
        }
      ],
      "name": "setTokenURIPrefix",
      "outputs": [],
      "stateMutability": "nonpayable",
      "type": "function"
    },
    {
      "inputs": [
        {
          "internalType": "bytes4",
          "name": "interfaceId",
          "type": "bytes4"
        }
      ],
      "name": "supportsInterface",
      "outputs": [
        {
          "internalType": "bool",
          "name": "",
          "type": "bool"
        }
      ],
      "stateMutability": "view",
      "type": "function"
    },
    {
      "inputs": [],
      "name": "symbol",
      "outputs": [
        {
          "internalType": "string",
          "name": "",
          "type": "string"
        }
      ],
      "stateMutability": "view",
      "type": "function"
    },
    {
      "inputs": [
        {
          "internalType": "uint256",
          "name": "tokenId",
          "type": "uint256"
        }
      ],
      "name": "tokenURI",
      "outputs": [
        {
          "internalType": "string",
          "name": "",
          "type": "string"
        }
      ],
      "stateMutability": "view",
      "type": "function"
    },
    {
      "inputs": [
        {
          "internalType": "address",
          "name": "from",
          "type": "address"
        },
        {
          "internalType": "address",
          "name": "to",
          "type": "address"
        },
        {
          "internalType": "uint256",
          "name": "tokenId",
          "type": "uint256"
        }
      ],
      "name": "transferFrom",
      "outputs": [],
      "stateMutability": "nonpayable",
      "type": "function"
    },
    {
      "inputs": [
        {
          "internalType": "address",
          "name": "to",
          "type": "address"
        },
        {
          "internalType": "uint256",
          "name": "tokenId",
          "type": "uint256"
        },
        {
          "internalType": "string[]",
          "name": "labels",
          "type": "string[]"
        },
        {
          "internalType": "string[]",
          "name": "keys",
          "type": "string[]"
        },
        {
          "internalType": "string[]",
          "name": "values",
          "type": "string[]"
        },
        {
          "internalType": "bool",
          "name": "withReverse",
          "type": "bool"
        }
      ],
      "name": "unlockWithRecords",
      "outputs": [],
      "stateMutability": "nonpayable",
      "type": "function"
    },
    {
      "inputs": [
        {
          "components": [
            {
              "internalType": "address",
              "name": "from",
              "type": "address"
            },
            {
              "internalType": "uint256",
              "name": "nonce",
              "type": "uint256"
            },
            {
              "internalType": "uint256",
              "name": "tokenId",
              "type": "uint256"
            },
            {
              "internalType": "bytes",
              "name": "data",
              "type": "bytes"
            }
          ],
          "internalType": "struct IForwarder.ForwardRequest",
          "name": "req",
          "type": "tuple"
        },
        {
          "internalType": "bytes",
          "name": "signature",
          "type": "bytes"
        }
      ],
      "name": "verify",
      "outputs": [
        {
          "internalType": "bool",
          "name": "",
          "type": "bool"
        }
      ],
      "stateMutability": "view",
      "type": "function"
    },
    {
      "inputs": [
        {
          "internalType": "bytes",
          "name": "inputData",
          "type": "bytes"
        },
        {
          "internalType": "uint256",
          "name": "tokenId",
          "type": "uint256"
        },
        {
          "internalType": "string[]",
          "name": "keys",
          "type": "string[]"
        },
        {
          "internalType": "string[]",
          "name": "values",
          "type": "string[]"
        }
      ],
      "name": "withdrawFromPolygon",
      "outputs": [],
      "stateMutability": "nonpayable",
      "type": "function"
    }
  ],
  "bytecode": "0x608060405234801561001057600080fd5b5061521d806100206000396000f3fe608060405234801561001057600080fd5b506004361061038e5760003560e01c806370a08231116101de578063b88d4fde1161010f578063e985e9c5116100ad578063f5c1f76e1161007c578063f5c1f76e14610842578063f7df5c6014610855578063f8c8765e14610868578063ffa1ad741461087b57600080fd5b8063e985e9c5146107e4578063ebf0c71714610820578063ec129eea14610827578063f25eb5c11461083a57600080fd5b8063bebec6b4116100e9578063bebec6b414610798578063c87b56dd146107ab578063ce92b33e146107be578063cf2c52cb146107d157600080fd5b8063b88d4fde1461075f578063ba5d40b714610772578063bb5b27e11461078557600080fd5b806399e0dd7c1161017c578063a424740011610156578063a424740014610705578063ab3b87fe14610718578063b3f9e4cb1461072b578063b85afd281461073e57600080fd5b806399e0dd7c146106b3578063a22cb465146106c6578063a3f4df7e146106d957600080fd5b806394d008ef116101b857806394d008ef1461067d5780639508b1c4146106905780639559c0bd146106a357806395d89b41146106ab57600080fd5b806370a08231146106445780637e37479e1461065757806384442b511461066a57600080fd5b806342842e0e116102c357806350382c1a11610261578063638e5c7811610230578063638e5c78146105dc578063663f7b2a146105ef578063672b9f81146106025780636ccbae5f1461062357600080fd5b806350382c1a14610587578063509602391461059a578063572b6c05146105ad5780636352211e146105c957600080fd5b806344d5f66c1161029d57806344d5f66c1461053b57806347c816991461054e5780634a72584d146105615780634f558e791461057457600080fd5b806342842e0e1461050257806342966c6814610515578063430c20811461052857600080fd5b80631bf7e13e1161033057806327f189751161030a57806327f18975146104b6578063310bd74b146104c9578063384e9a55146104dc57806340c10f19146104ef57600080fd5b80631bf7e13e1461046f57806323b872dd14610482578063276fabb11461049557600080fd5b8063095ea7b31161036c578063095ea7b3146103fb578063150b7a02146104105780631bd8cc1a1461043c5780631be5e7ed1461045c57600080fd5b806301ffc9a71461039357806306fdde03146103bb578063081812fc146103d0575b600080fd5b6103a66103a136600461482b565b61089f565b60405190151581526020015b60405180910390f35b6103c36108b0565b6040516103b29190614d58565b6103e36103de366004614a59565b610942565b6040516001600160a01b0390911681526020016103b2565b61040e610409366004614448565b610969565b005b61042361041e36600461423a565b6109be565b6040516001600160e01b031990911681526020016103b2565b61044f61044a3660046146ec565b610b14565b6040516103b29190614cf3565b6103c361046a366004614993565b610c34565b6103c361047d3660046149fa565b610c7f565b61040e6104903660046141fa565b610d8a565b6104a86104a336600461463d565b610e10565b6040519081526020016103b2565b61040e6104c436600461467c565b610e24565b61040e6104d7366004614a59565b610e9f565b61040e6104ea366004614a59565b610f0d565b61040e6104fd366004614448565b610f9c565b61040e6105103660046141fa565b610fe9565b61040e610523366004614a59565b611004565b6103a6610536366004614448565b61107b565b61040e61054936600461458d565b611087565b61040e61055c366004614935565b611167565b61040e61056f366004614aa1565b6111d9565b6103a6610582366004614a59565b611252565b61040e6105953660046149c8565b611271565b61040e6105a836600461412f565b6112a7565b6103a66105bb36600461412f565b6001600160a01b0316301490565b6103e36105d7366004614a59565b611307565b61040e6105ea366004614a59565b611367565b61040e6105fd366004614735565b6113b2565b610615610610366004614af1565b611462565b6040516103b2929190614d6b565b6104a8610631366004614a59565b6000908152610100602052604090205490565b6104a861065236600461412f565b61147a565b6104a861066536600461412f565b611500565b61040e610678366004614473565b611531565b61040e61068b366004614534565b6115c2565b61040e61069e366004614863565b611611565b6104a8601481565b6103c3611668565b61040e6106c1366004614902565b611677565b61040e6106d43660046143cb565b6116fd565b6103c36040518060400160405280600d81526020016c554e533a20526567697374727960981b81525081565b6103a66107133660046149fa565b61170f565b61040e610726366004614448565b61175a565b6103e3610739366004614a59565b6117d2565b61075161074c3660046146ec565b6117fc565b6040516103b2929190614d06565b61040e61076d3660046142aa565b611964565b61040e610780366004614313565b6119de565b6103c3610793366004614a59565b611a4f565b6103c36107a636600461412f565b611af1565b6103c36107b9366004614a59565b611bbb565b61040e6107cc36600461467c565b611c21565b61040e6107df3660046143f6565b611c93565b6103a66107f2366004614167565b6001600160a01b039182166000908152606a6020908152604080832093909416825291909152205460ff1690565b60006104a8565b61040e61083536600461467c565b611d70565b61040e611de2565b61044f61085036600461463d565b611e68565b61040e610863366004614a71565b611f45565b61040e61087636600461419f565b611fd6565b6103c3604051806040016040528060058152602001640c0b8d8b8d60da1b81525081565b60006108aa826121ac565b92915050565b6060606580546108bf9061511f565b80601f01602080910402602001604051908101604052809291908181526020018280546108eb9061511f565b80156109385780601f1061090d57610100808354040283529160200191610938565b820191906000526020600020905b81548152906001019060200180831161091b57829003601f168201915b5050505050905090565b600061094d826121fc565b506000908152606960205260409020546001600160a01b031690565b80303314156109a65761097a61225b565b81146109a15760405162461bcd60e51b815260040161099890614ea9565b60405180910390fd5b6109af565b6109af81612270565b6109b9838361229e565b505050565b60007f8ffb960699dc2ba88f34d0e41c029c3c36c95149679fe1d0153a9582bec92378546001600160a01b03166109f36123c1565b6001600160a01b03161415610ab557610a0a6123c1565b6001600160a01b03166342966c68856040518263ffffffff1660e01b8152600401610a3791815260200190565b600060405180830381600087803b158015610a5157600080fd5b505af1158015610a65573d6000803e3d6000fd5b505050821580159150610a7f5750610a7f828401846147f9565b15610a9d57610a8e30856123d0565b610a98858561251e565b610aa7565b610aa785856123d0565b50630a85bd0160e11b610b0b565b60405162461bcd60e51b815260206004820152602560248201527f52656769737472793a204552433732315f524543454956494e475f50524f4849604482015264109255115160da1b6064820152608401610998565b95945050505050565b6060826001600160401b03811115610b3c57634e487b7160e01b600052604160045260246000fd5b604051908082528060200260200182016040528015610b6f57816020015b6060815260200190600190039081610b5a5790505b50905060005b83811015610c2c57610bee858583818110610ba057634e487b7160e01b600052603260045260246000fd5b9050602002810190610bb29190614f6d565b8080601f0160208091040260200160405190810160405280939291908181526020018383808284376000920191909152508792506125c9915050565b828281518110610c0e57634e487b7160e01b600052603260045260246000fd5b60200260200101819052508080610c2490615154565b915050610b75565b509392505050565b6060610c7784848080601f0160208091040260200160405190810160405280939291908181526020018383808284376000920191909152508692506125c9915050565b949350505050565b606060005a9050610c9185858561170f565b610ced5760405162461bcd60e51b815260206004820152602760248201527f554e535265676973747279466f727761726465723a205349474e41545552455f6044820152661253959053125160ca1b6064820152608401610998565b610d7f610cfd602087018761412f565b30604088013584610d1160608b018b614f6d565b8080601f01602080910402602001604051908101604052809392919081815260200183838082843760009201919091525050604080516020601f8e018190048102820181019092528c815292508c91508b90819084018382808284376000920191909152506125fe92505050565b9150505b9392505050565b80610d9c610d966123c1565b826126ed565b610db85760405162461bcd60e51b815260040161099890614dc7565b8130331415610dec57610dc961225b565b8114610de75760405162461bcd60e51b815260040161099890614ea9565b610df5565b610df581612270565b610dfe8361276b565b610e098585856127d8565b5050505050565b6000610d83610e1f8385615047565b61297f565b80610e30610d966123c1565b610e4c5760405162461bcd60e51b815260040161099890614dc7565b8130331415610e8057610e5d61225b565b8114610e7b5760405162461bcd60e51b815260040161099890614ea9565b610e89565b610e8981612270565b610e9687878787876129dc565b50505050505050565b80610eab610d966123c1565b610ec75760405162461bcd60e51b815260040161099890614dc7565b8130331415610efb57610ed861225b565b8114610ef65760405162461bcd60e51b815260040161099890614ea9565b610f04565b610f0481612270565b6109b98361276b565b80610f166123c1565b6001600160a01b0316610f2882611307565b6001600160a01b031614610f4e5760405162461bcd60e51b815260040161099890614d90565b8130331415610f8257610f5f61225b565b8114610f7d5760405162461bcd60e51b815260040161099890614ea9565b610f8b565b610f8b81612270565b6109b9610f966123c1565b84612a5b565b610fa4612aa3565b6001600160a01b0316610fb56123c1565b6001600160a01b031614610fdb5760405162461bcd60e51b815260040161099890614f2b565b610fe582826123d0565b5050565b6109b983838360405180602001604052806000815250611964565b80611010610d966123c1565b61102c5760405162461bcd60e51b815260040161099890614dc7565b81303314156110605761103d61225b565b811461105b5760405162461bcd60e51b815260040161099890614ea9565b611069565b61106981612270565b6110728361276b565b6109b983612bb6565b6000610d8383836126ed565b610134546001600160a01b031661109c6123c1565b6001600160a01b0316146110c25760405162461bcd60e51b815260040161099890614e62565b60005b8151811015610fe5576110fe8282815181106110f157634e487b7160e01b600052603260045260246000fd5b6020026020010151612c5d565b610138600061113385858151811061112657634e487b7160e01b600052603260045260246000fd5b602002602001015161297f565b81526020019081526020016000209080519060200190611154929190613e88565b508061115f81615154565b9150506110c5565b80611173610d966123c1565b61118f5760405162461bcd60e51b815260040161099890614dc7565b81303314156111c3576111a061225b565b81146111be5760405162461bcd60e51b815260040161099890614ea9565b6111cc565b6111cc81612270565b610e968787878787612cfa565b806111e5610d966123c1565b6112015760405162461bcd60e51b815260040161099890614dc7565b81303314156112355761121261225b565b81146112305760405162461bcd60e51b815260040161099890614ea9565b61123e565b61123e81612270565b61124a86868686612dd9565b505050505050565b6000818152606760205260408120546001600160a01b031615156108aa565b6112a4816040516020016112859190614bbe565b6040516020818303038152906040528051906020012060001c82612e79565b50565b610134546001600160a01b03166112bc6123c1565b6001600160a01b0316146112e25760405162461bcd60e51b815260040161099890614e62565b6001600160a01b0316600090815261013660205260409020805460ff19166001179055565b6000818152606760205260408120546001600160a01b0316806108aa5760405162461bcd60e51b8152602060048201526018602482015277115490cdcc8c4e881a5b9d985b1a59081d1bdad95b88125160421b6044820152606401610998565b80611373610d966123c1565b61138f5760405162461bcd60e51b815260040161099890614dc7565b6113a161139a6123c1565b30846127d8565b610fe56113ac6123c1565b8361251e565b6113bb8161297f565b6113c36123c1565b6001600160a01b03166113d582611307565b6001600160a01b0316146113fb5760405162461bcd60e51b815260040161099890614d90565b6114048261297f565b303314156114375761141461225b565b81146114325760405162461bcd60e51b815260040161099890614ea9565b611440565b61144081612270565b6109b961144b6123c1565b6114548561297f565b61145d86612c5d565b612ea5565b60608061146f8484612ef3565b909590945092505050565b60006001600160a01b0382166114e45760405162461bcd60e51b815260206004820152602960248201527f4552433732313a2061646472657373207a65726f206973206e6f7420612076616044820152683634b21037bbb732b960b91b6064820152608401610998565b506001600160a01b031660009081526068602052604090205490565b6001600160a01b0381166000908152610135602052604081205461152381612f14565b61152b578091505b50919050565b610134546001600160a01b03166115466123c1565b6001600160a01b03161461156c5760405162461bcd60e51b815260040161099890614e62565b6115758861276b565b61158861158189611307565b8a8a6127d8565b611595858585858c612f5e565b80156115b7576115b789896115b26115ad8a8c615047565b612c5d565b612fe8565b505050505050505050565b6115ca612aa3565b6001600160a01b03166115db6123c1565b6001600160a01b0316146116015760405162461bcd60e51b815260040161099890614f2b565b61160b84846123d0565b50505050565b61161b878761302a565b6116236123c1565b6001600160a01b031661163586611307565b6001600160a01b03161461165b5760405162461bcd60e51b815260040161099890614d90565b610e968484848489612f5e565b6060606680546108bf9061511f565b610134546001600160a01b031661168c6123c1565b6001600160a01b0316146116b25760405162461bcd60e51b815260040161099890614e62565b6116bf6101338383613f08565b507f4b120d6a959a84a520fa48f5f937cca0e79129423487af7901213b5d2e89313b82826040516116f1929190614d44565b60405180910390a15050565b610fe56117086123c1565b8383613099565b6000610c7761171d85615054565b3085858080601f01602080910402602001604051908101604052809392919081815260200183838082843760009201919091525061316892505050565b80611766610d966123c1565b6117825760405162461bcd60e51b815260040161099890614dc7565b81303314156117b65761179361225b565b81146117b15760405162461bcd60e51b815260040161099890614ea9565b6117bf565b6117bf81612270565b61160b6117cb84611307565b85856127d8565b6000818152606760205260408120546001600160a01b03166117f55760006108aa565b3092915050565b606080836001600160401b0381111561182557634e487b7160e01b600052604160045260246000fd5b60405190808252806020026020018201604052801561185857816020015b60608152602001906001900390816118435790505b509150836001600160401b0381111561188157634e487b7160e01b600052604160045260246000fd5b6040519080825280602002602001820160405280156118b457816020015b606081526020019060019003908161189f5790505b50905060005b8481101561195b576118f28686838181106118e557634e487b7160e01b600052603260045260246000fd5b9050602002013585612ef3565b84838151811061191257634e487b7160e01b600052603260045260246000fd5b6020026020010184848151811061193957634e487b7160e01b600052603260045260246000fd5b602002602001018290528290525050808061195390615154565b9150506118ba565b50935093915050565b81611970610d966123c1565b61198c5760405162461bcd60e51b815260040161099890614dc7565b82303314156119c05761199d61225b565b81146119bb5760405162461bcd60e51b815260040161099890614ea9565b6119c9565b6119c981612270565b6119d28461276b565b61124a868686866132c0565b610134546001600160a01b03166119f36123c1565b6001600160a01b031614611a195760405162461bcd60e51b815260040161099890614e62565b6000611a28610e1f888a615047565b9050611a428982611a3c6115ad8b8d615047565b856132f3565b6115b78686868685612f5e565b600081815260c960205260409020805460609190611a6c9061511f565b80601f0160208091040260200160405190810160405280929190818152602001828054611a989061511f565b8015611ae55780601f10611aba57610100808354040283529160200191611ae5565b820191906000526020600020905b815481529060010190602001808311611ac857829003601f168201915b50505050509050919050565b6001600160a01b03811660009081526101356020526040902054606090611b1781612f14565b61152b576000818152610138602052604090208054611b359061511f565b80601f0160208091040260200160405190810160405280929190818152602001828054611b619061511f565b8015611bae5780601f10611b8357610100808354040283529160200191611bae565b820191906000526020600020905b815481529060010190602001808311611b9157829003601f168201915b5050505050915050919050565b6060611bc6826121fc565b6000611bd0613346565b90506000815111611bf05760405180602001604052806000815250610d83565b80611bfa84613356565b604051602001611c0b929190614c65565b6040516020818303038152906040529392505050565b80611c2d610d966123c1565b611c495760405162461bcd60e51b815260040161099890614dc7565b8130331415611c7d57611c5a61225b565b8114611c785760405162461bcd60e51b815260040161099890614ea9565b611c86565b611c8681612270565b610e968787878787612f5e565b7f8bea9a6f8afd34f4e29c585f854e0cc5161431bf5fc299d468454d33dce53b87546001600160a01b0316611cc66123c1565b6001600160a01b031614611cec5760405162461bcd60e51b815260040161099890614f2b565b6020811415611d0f576000611d0382840184614a59565b905061160b84826123d0565b6000611d1d82840184614767565b805190915060005b8181101561124a57611d5e86848381518110611d5157634e487b7160e01b600052603260045260246000fd5b60200260200101516123d0565b80611d6881615154565b915050611d25565b80611d7c610d966123c1565b611d985760405162461bcd60e51b815260040161099890614dc7565b8130331415611dcc57611da961225b565b8114611dc75760405162461bcd60e51b815260040161099890614ea9565b611dd5565b611dd581612270565b610e96878787878761346f565b6000611dec6123c1565b6001600160a01b03811660009081526101356020526040902054909150611e5f5760405162461bcd60e51b815260206004820152602160248201527f52656769737472793a20524556455253455f5245434f52445f49535f454d50546044820152605960f81b6064820152608401610998565b6112a481613485565b6060816001600160401b03811115611e9057634e487b7160e01b600052604160045260246000fd5b604051908082528060200260200182016040528015611ec357816020015b6060815260200190600190039081611eae5790505b50905060005b82811015611f3e57611f00848483818110611ef457634e487b7160e01b600052603260045260246000fd5b90506020020135611a4f565b828281518110611f2057634e487b7160e01b600052603260045260246000fd5b60200260200101819052508080611f3690615154565b915050611ec9565b5092915050565b610134546001600160a01b0316611f5a6123c1565b6001600160a01b031614611f805760405162461bcd60e51b815260040161099890614e62565b61013454611f97906001600160a01b0316846123d0565b827fc5beef08f693b11c316c0c8394a377a0033c9cf701b8cd8afd79cecef60c39528383604051611fc9929190614d44565b60405180910390a2505050565b600054610100900460ff1615808015611ff65750600054600160ff909116105b806120105750303b158015612010575060005460ff166001145b6120735760405162461bcd60e51b815260206004820152602e60248201527f496e697469616c697a61626c653a20636f6e747261637420697320616c72656160448201526d191e481a5b9a5d1a585b1a5e995960921b6064820152608401610998565b6000805460ff191660011790558015612096576000805461ff0019166101001790555b61013480546001600160a01b0319166001600160a01b038716179055837f8ffb960699dc2ba88f34d0e41c029c3c36c95149679fe1d0153a9582bec9237880546001600160a01b0319166001600160a01b03929092169190911790556040805180820182526013815272556e73746f707061626c6520446f6d61696e7360681b60208083019190915282518084019093526002835261155160f21b9083015261213e916134ca565b612146613518565b61214e613518565b61215783613541565b61216082613571565b8015610e09576000805461ff0019169055604051600181527f7f26b83ff96e1f2b6a682f133852f6798a09c465da95921460cefb38474024989060200160405180910390a15050505050565b60006001600160e01b031982166380ac58cd60e01b14806121dd57506001600160e01b03198216635b5e139f60e01b145b806108aa57506301ffc9a760e01b6001600160e01b03198316146108aa565b6000818152606760205260409020546001600160a01b03166112a45760405162461bcd60e51b8152602060048201526018602482015277115490cdcc8c4e881a5b9d985b1a59081d1bdad95b88125160421b6044820152606401610998565b60003033141561226d5750601f193601355b90565b6000818152610100602052604090205461228b906001615004565b6000918252610100602052604090912055565b60006122a982611307565b9050806001600160a01b0316836001600160a01b031614156123175760405162461bcd60e51b815260206004820152602160248201527f4552433732313a20617070726f76616c20746f2063757272656e74206f776e656044820152603960f91b6064820152608401610998565b806001600160a01b03166123296123c1565b6001600160a01b031614806123455750612345816107f26123c1565b6123b75760405162461bcd60e51b815260206004820152603e60248201527f4552433732313a20617070726f76652063616c6c6572206973206e6f7420746f60448201527f6b656e206f776e6572206e6f7220617070726f76656420666f7220616c6c00006064820152608401610998565b6109b983836135a1565b60006123cb61360f565b905090565b6001600160a01b0382166124265760405162461bcd60e51b815260206004820181905260248201527f4552433732313a206d696e7420746f20746865207a65726f20616464726573736044820152606401610998565b6000818152606760205260409020546001600160a01b03161561248b5760405162461bcd60e51b815260206004820152601c60248201527f4552433732313a20746f6b656e20616c7265616479206d696e746564000000006044820152606401610998565b6124976000838361362b565b6001600160a01b03821660009081526068602052604081208054600192906124c0908490615004565b909155505060008181526067602052604080822080546001600160a01b0319166001600160a01b03861690811790915590518392907fddf252ad1be2c89b69c2b068fc378daa952ba7f163c4a11628f55a4df523b3ef908290a45050565b6000612528612aa3565b905061253481836135a1565b6000805160206151f183398151915254604080516020808201869052825180830390910181528183019283905263e3dec8fb60e01b9092526001600160a01b0390921691829163e3dec8fb91612591918891309190604401614c94565b600060405180830381600087803b1580156125ab57600080fd5b505af11580156125bf573d6000803e3d6000fd5b5050505050505050565b6060610d83836040516020016125df9190614bbe565b6040516020818303038152906040528051906020012060001c836136c8565b606061260985612270565b600080876001600160a01b0316866126238b8a89896137aa565b6040516126309190614bbe565b60006040518083038160008787f1925050503d806000811461266e576040519150601f19603f3d011682016040523d82523d6000602084013e612673565b606091505b509092509050612684603f8761501c565b5a116126a057634e487b7160e01b600052600160045260246000fd5b6126e082826040518060400160405280601a81526020017f42617365466f727761726465723a2043414c4c5f4641494c45440000000000008152506137da565b9998505050505050505050565b6000806126f983611307565b9050806001600160a01b0316846001600160a01b0316148061274057506001600160a01b038082166000908152606a602090815260408083209388168352929052205460ff165b80610c775750836001600160a01b031661275984610942565b6001600160a01b031614949350505050565b61277481613813565b60405160200161278691815260200190565b60408051601f198184030181528282528051602091820120600085815260cb9092529181209190915582917f185c30856dadb58bf097c1f665a52ada7029752dbcad008ea3fefc73bee8c9fe9190a250565b826001600160a01b03166127eb82611307565b6001600160a01b03161461284f5760405162461bcd60e51b815260206004820152602560248201527f4552433732313a207472616e736665722066726f6d20696e636f72726563742060448201526437bbb732b960d91b6064820152608401610998565b6001600160a01b0382166128b15760405162461bcd60e51b8152602060048201526024808201527f4552433732313a207472616e7366657220746f20746865207a65726f206164646044820152637265737360e01b6064820152608401610998565b6128bc83838361362b565b6128c76000826135a1565b6001600160a01b03831660009081526068602052604081208054600192906128f0908490615030565b90915550506001600160a01b038216600090815260686020526040812080546001929061291e908490615004565b909155505060008181526067602052604080822080546001600160a01b0319166001600160a01b0386811691821790925591518493918716917fddf252ad1be2c89b69c2b068fc378daa952ba7f163c4a11628f55a4df523b3ef91a4505050565b805160009081905b8015611f3e576129c8828561299d600185615030565b815181106129bb57634e487b7160e01b600052603260045260246000fd5b602002602001015161383f565b9150806129d481615108565b915050612987565b60005b8481101561124a57612a49868683818110612a0a57634e487b7160e01b600052603260045260246000fd5b90506020020135858584818110612a3157634e487b7160e01b600052603260045260246000fd5b9050602002810190612a439190614f6d565b85612dd9565b80612a5381615154565b9150506129df565b6001600160a01b03821660008181526101356020526040808220849055518392917feb76a21470988c474a21f690cc28fee1ed511bd812dc3c21fd0f49c5e5d4708a91a35050565b6000806000805160206151f18339815191525460405163721804d360e11b81523060048201526001600160a01b039091169150600090829063e43009a69060240160206040518083038186803b158015612afc57600080fd5b505afa158015612b10573d6000803e3d6000fd5b505050506040513d601f19601f82011682018060405250810190612b349190614813565b60405163e66f960360e01b8152600481018290529091506001600160a01b0383169063e66f96039060240160206040518083038186803b158015612b7757600080fd5b505afa158015612b8b573d6000803e3d6000fd5b505050506040513d601f19601f82011682018060405250810190612baf919061414b565b9250505090565b6000612bc182611307565b9050612bcf8160008461362b565b612bda6000836135a1565b6001600160a01b0381166000908152606860205260408120805460019290612c03908490615030565b909155505060008281526067602052604080822080546001600160a01b0319169055518391906001600160a01b038416907fddf252ad1be2c89b69c2b068fc378daa952ba7f163c4a11628f55a4df523b3ef908390a45050565b6060600082600081518110612c8257634e487b7160e01b600052603260045260246000fd5b602002602001015190506000600190505b8351811015611f3e5781848281518110612cbd57634e487b7160e01b600052603260045260246000fd5b6020026020010151604051602001612cd6929190614c19565b60405160208183030381529060405291508080612cf290615154565b915050612c93565b60008585604051602001612d0f929190614c55565b60408051601f198184030181528282528051602091820120601f8901829004820284018201909252878352909250612d639183918990899081908401838280828437600092019190915250612e7992505050565b61124a8187878080601f01602080910402602001604051908101604052809392919081815260200183838082843760009201919091525050604080516020601f8b0181900481028201810190925289815292508991508890819084018382808284376000920191909152508892506138ec915050565b612de284613a27565b612e2e5760405162461bcd60e51b815260206004820152601c60248201527f5265636f726453746f726167653a204b45595f4e4f545f464f554e44000000006044820152606401610998565b61160b84612e3b86611a4f565b85858080601f0160208091040260200160405190810160405280939291908181526020018383808284376000920191909152508792506138ec915050565b612e8282613a27565b610fe557600082815260c96020908152604090912082516109b992840190613e88565b6000828152610138602052604090208054612ebf9061511f565b15159050612ee9576000828152610138602090815260409091208251612ee792840190613e88565b505b6109b98383612a5b565b606080612eff84611a4f565b9150612f0b84846136c8565b90509250929050565b6000818152610137602052604081205460ff1680156108aa57506101366000612f3b6123c1565b6001600160a01b0316815260208101919091526040016000205460ff1692915050565b60005b8481101561124a57612fd6868683818110612f8c57634e487b7160e01b600052603260045260246000fd5b9050602002810190612f9e9190614f6d565b868685818110612fbe57634e487b7160e01b600052603260045260246000fd5b9050602002810190612fd09190614f6d565b86612cfa565b80612fe081615154565b915050612f61565b61dead6001600160a01b0384161480159061301a57506001600160a01b03831660009081526101356020526040902054155b156109b9576109b9838383612ea5565b6000805160206151f183398151915254604051633805550f60e01b81526001600160a01b03909116908190633805550f9061306b9086908690600401614d44565b600060405180830381600087803b15801561308557600080fd5b505af1158015610e96573d6000803e3d6000fd5b816001600160a01b0316836001600160a01b031614156130fb5760405162461bcd60e51b815260206004820152601960248201527f4552433732313a20617070726f766520746f2063616c6c6572000000000000006044820152606401610998565b6001600160a01b038381166000818152606a6020908152604080832094871680845294825291829020805460ff191686151590811790915591519182527f17307eab39ab6107e8899845ad3d59bd9653f200f220920489ca2b5937696c31910160405180910390a3505050565b6040838101519051636ccbae5f60e01b8152600481019190915260009081903090636ccbae5f9060240160206040518083038186803b1580156131aa57600080fd5b505afa1580156131be573d6000803e3d6000fd5b505050506040513d601f19601f820116820180604052508101906131e29190614813565b905060006132908660600151805190602001208688602001516040516020016132309392919092835260609190911b6bffffffffffffffffffffffff19166020830152603482015260540190565b60408051601f1981840301815282825280516020918201207f19457468657265756d205369676e6564204d6573736167653a0a33320000000084830152603c8085019190915282518085039091018152605c909301909152815191012090565b90508186602001511480156132b6575085516132b6906001600160a01b03168286613a4d565b9695505050505050565b6132cb8484846127d8565b6132d784848484613b9d565b61160b5760405162461bcd60e51b815260040161099890614e10565b6132fd84846123d0565b827fc5beef08f693b11c316c0c8394a377a0033c9cf701b8cd8afd79cecef60c39528360405161332d9190614d58565b60405180910390a2801561160b5761160b848484612fe8565b606061013380546108bf9061511f565b60608161337a5750506040805180820190915260018152600360fc1b602082015290565b8160005b81156133a4578061338e81615154565b915061339d9050600a8361501c565b915061337e565b6000816001600160401b038111156133cc57634e487b7160e01b600052604160045260246000fd5b6040519080825280601f01601f1916602001820160405280156133f6576020820181803683370190505b5090505b8415610c775761340b600183615030565b9150613418600a8661516f565b613423906030615004565b60f81b81838151811061344657634e487b7160e01b600052603260045260246000fd5b60200101906001600160f81b031916908160001a905350613468600a8661501c565b94506133fa565b6134788161276b565b610e098585858585612f5e565b6001600160a01b03811660008181526101356020526040808220829055517ffcf5eec0cfa3e6332f5f0e63ec242d71f866a61d121d6cdf5c2eb3b668a26c4f9190a250565b600054610100900460ff166134f15760405162461bcd60e51b815260040161099890614ee0565b8151613504906065906020850190613e88565b5080516109b9906066906020840190613e88565b600054610100900460ff1661353f5760405162461bcd60e51b815260040161099890614ee0565b565b600054610100900460ff166135685760405162461bcd60e51b815260040161099890614ee0565b6112a481613cae565b600054610100900460ff166135985760405162461bcd60e51b815260040161099890614ee0565b6112a481613d07565b600081815260696020526040902080546001600160a01b0319166001600160a01b03841690811790915581906135d682611307565b6001600160a01b03167f8c5be1e5ebec7d5bd14f71427d1e84f3dd0314c0f7b2291e5b200ac8c7c3b92560405160405180910390a45050565b600030331415613626575060331936013560601c90565b503390565b6000818152610137602052604090205460ff16158061365257506001600160a01b03821615155b61369e5760405162461bcd60e51b815260206004820152601860248201527f52656769737472793a20544f4b454e5f555047524144454400000000000000006044820152606401610998565b6001600160a01b038316600090815261013560205260409020548114156109b9576109b983613485565b60606136d382612f14565b156136ed57506040805160208101909152600081526108aa565b60ca60006136fa84613813565b8152602001908152602001600020600084815260200190815260200160002080546137249061511f565b80601f01602080910402602001604051908101604052809291908181526020018280546137509061511f565b801561379d5780601f106137725761010080835404028352916020019161379d565b820191906000526020600020905b81548152906001019060200180831161378057829003601f168201915b5050505050905092915050565b60608285856040516020016137c193929190614bda565b6040516020818303038152906040529050949350505050565b606083156137e9575081610d83565b8251156137f95782518084602001fd5b8160405162461bcd60e51b81526004016109989190614d58565b600081815260cb60205260408120541561383b57600082815260cb60205260409020546108aa565b5090565b600081516000141561388b5760405162461bcd60e51b815260206004820152601560248201527452656769737472793a204c4142454c5f454d50545960581b6044820152606401610998565b828260405160200161389d9190614bbe565b604051602081830303815290604052805190602001206040516020016138cd929190918252602082015260400190565b60408051601f1981840301815291905280516020909101209392505050565b60ca60006138f983613813565b8152602001908152602001600020600085815260200190815260200160002080546139239061511f565b1515905061397a57826040516139399190614bbe565b6040518091039020817f7ae4f661958fbecc2f77be6b0eb280d2a6f604b29e1e7221c82b9da0c4af7f86856040516139719190614d58565b60405180910390a35b8160ca600061398884613813565b8152602001908152602001600020600086815260200190815260200160002090805190602001906139ba929190613e88565b50816040516139c99190614bbe565b6040518091039020836040516139df9190614bbe565b6040518091039020827f851ffe8e74d5015261dba0a1f9e1b0e5d42c5af5d2ad1908fee897c7d80a0d928686604051613a19929190614d6b565b60405180910390a450505050565b600081815260c9602052604081208054829190613a439061511f565b9050119050919050565b6000806000613a5c8585613d55565b90925090506000816004811115613a8357634e487b7160e01b600052602160045260246000fd5b148015613aa15750856001600160a01b0316826001600160a01b0316145b15613ab157600192505050610d83565b600080876001600160a01b0316631626ba7e60e01b8888604051602401613ad9929190614d2b565b60408051601f198184030181529181526020820180516001600160e01b03166001600160e01b0319909416939093179092529051613b179190614bbe565b600060405180830381855afa9150503d8060008114613b52576040519150601f19603f3d011682016040523d82523d6000602084013e613b57565b606091505b5091509150818015613b6a575080516020145b8015613b9157508051630b135d3f60e11b90613b8f9083016020908101908401614813565b145b98975050505050505050565b60006001600160a01b0384163b15613ca657836001600160a01b031663150b7a02613bc66123c1565b8786866040518563ffffffff1660e01b8152600401613be89493929190614cc0565b602060405180830381600087803b158015613c0257600080fd5b505af1925050508015613c32575060408051601f3d908101601f19168201909252613c2f91810190614847565b60015b613c8c573d808015613c60576040519150601f19603f3d011682016040523d82523d6000602084013e613c65565b606091505b508051613c845760405162461bcd60e51b815260040161099890614e10565b805181602001fd5b6001600160e01b031916630a85bd0160e11b149050610c77565b506001610c77565b600054610100900460ff16613cd55760405162461bcd60e51b815260040161099890614ee0565b806000805160206151f18339815191525b80546001600160a01b0319166001600160a01b039290921691909117905550565b600054610100900460ff16613d2e5760405162461bcd60e51b815260040161099890614ee0565b807f8bea9a6f8afd34f4e29c585f854e0cc5161431bf5fc299d468454d33dce53b87613ce6565b600080825160411415613d8c5760208301516040840151606085015160001a613d8087828585613d9b565b94509450505050613d94565b506000905060025b9250929050565b6000807f7fffffffffffffffffffffffffffffff5d576e7357a4501ddfe92f46681b20a0831115613dd25750600090506003613e7f565b8460ff16601b14158015613dea57508460ff16601c14155b15613dfb5750600090506004613e7f565b6040805160008082526020820180845289905260ff881692820192909252606081018690526080810185905260019060a0016020604051602081039080840390855afa158015613e4f573d6000803e3d6000fd5b5050604051601f1901519150506001600160a01b038116613e7857600060019250925050613e7f565b9150600090505b94509492505050565b828054613e949061511f565b90600052602060002090601f016020900481019282613eb65760008555613efc565b82601f10613ecf57805160ff1916838001178555613efc565b82800160010185558215613efc579182015b82811115613efc578251825591602001919060010190613ee1565b5061383b929150613f7c565b828054613f149061511f565b90600052602060002090601f016020900481019282613f365760008555613efc565b82601f10613f4f5782800160ff19823516178555613efc565b82800160010185558215613efc579182015b82811115613efc578235825591602001919060010190613f61565b5b8082111561383b5760008155600101613f7d565b6000613fa4613f9f84614fe1565b614fb1565b9050808382526020808301915083868660051b86011115613fc457600080fd5b6000805b878110156140045782356001600160401b03811115613fe5578283fd5b613ff18a828a016140c5565b8652509383019391830191600101613fc8565b50505050509392505050565b60008083601f840112614021578182fd5b5081356001600160401b03811115614037578182fd5b6020830191508360208260051b8501011115613d9457600080fd5b600082601f830112614062578081fd5b610d8383833560208501613f91565b8035801515811461408157600080fd5b919050565b60008083601f840112614097578182fd5b5081356001600160401b038111156140ad578182fd5b602083019150836020828501011115613d9457600080fd5b600082601f8301126140d5578081fd5b81356001600160401b038111156140ee576140ee6151af565b614101601f8201601f1916602001614fb1565b818152846020838601011115614115578283fd5b816020850160208301379081016020019190915292915050565b600060208284031215614140578081fd5b8135610d83816151c5565b60006020828403121561415c578081fd5b8151610d83816151c5565b60008060408385031215614179578081fd5b8235614184816151c5565b91506020830135614194816151c5565b809150509250929050565b600080600080608085870312156141b4578182fd5b84356141bf816151c5565b935060208501356141cf816151c5565b925060408501356141df816151c5565b915060608501356141ef816151c5565b939692955090935050565b60008060006060848603121561420e578081fd5b8335614219816151c5565b92506020840135614229816151c5565b929592945050506040919091013590565b600080600080600060808688031215614251578283fd5b853561425c816151c5565b9450602086013561426c816151c5565b93506040860135925060608601356001600160401b0381111561428d578182fd5b61429988828901614086565b969995985093965092949392505050565b600080600080608085870312156142bf578182fd5b84356142ca816151c5565b935060208501356142da816151c5565b92506040850135915060608501356001600160401b038111156142fb578182fd5b614307878288016140c5565b91505092959194509250565b60008060008060008060008060a0898b03121561432e578586fd5b8835614339816151c5565b975060208901356001600160401b0380821115614354578788fd5b6143608c838d01614010565b909950975060408b0135915080821115614378578485fd5b6143848c838d01614010565b909750955060608b013591508082111561439c578485fd5b506143a98b828c01614010565b90945092506143bc905060808a01614071565b90509295985092959890939650565b600080604083850312156143dd578182fd5b82356143e8816151c5565b9150612f0b60208401614071565b60008060006040848603121561440a578081fd5b8335614415816151c5565b925060208401356001600160401b0381111561442f578182fd5b61443b86828701614086565b9497909650939450505050565b6000806040838503121561445a578182fd5b8235614465816151c5565b946020939093013593505050565b600080600080600080600080600060c08a8c031215614490578283fd5b893561449b816151c5565b985060208a0135975060408a01356001600160401b03808211156144bd578485fd5b6144c98d838e01614010565b909950975060608c01359150808211156144e1578485fd5b6144ed8d838e01614010565b909750955060808c0135915080821115614505578485fd5b506145128c828d01614010565b9094509250614525905060a08b01614071565b90509295985092959850929598565b60008060008060608587031215614549578182fd5b8435614554816151c5565b93506020850135925060408501356001600160401b03811115614575578283fd5b61458187828801614086565b95989497509550505050565b6000602080838503121561459f578182fd5b82356001600160401b03808211156145b5578384fd5b818501915085601f8301126145c8578384fd5b81356145d6613f9f82614fe1565b80828252858201915085850189878560051b88010111156145f5578788fd5b875b8481101561462e5781358681111561460d57898afd5b61461b8c8a838b0101614052565b85525092870192908701906001016145f7565b50909998505050505050505050565b6000806020838503121561464f578182fd5b82356001600160401b03811115614664578283fd5b61467085828601614010565b90969095509350505050565b600080600080600060608688031215614693578283fd5b85356001600160401b03808211156146a9578485fd5b6146b589838a01614010565b909750955060208801359150808211156146cd578485fd5b506146da88828901614010565b96999598509660400135949350505050565b600080600060408486031215614700578081fd5b83356001600160401b03811115614715578182fd5b61472186828701614010565b909790965060209590950135949350505050565b600060208284031215614746578081fd5b81356001600160401b0381111561475b578182fd5b610c7784828501614052565b60006020808385031215614779578182fd5b82356001600160401b0381111561478e578283fd5b8301601f8101851361479e578283fd5b80356147ac613f9f82614fe1565b80828252848201915084840188868560051b87010111156147cb578687fd5b8694505b838510156147ed5780358352600194909401939185019185016147cf565b50979650505050505050565b60006020828403121561480a578081fd5b610d8382614071565b600060208284031215614824578081fd5b5051919050565b60006020828403121561483c578081fd5b8135610d83816151da565b600060208284031215614858578081fd5b8151610d83816151da565b60008060008060008060006080888a03121561487d578081fd5b87356001600160401b0380821115614893578283fd5b61489f8b838c01614086565b909950975060208a0135965060408a01359150808211156148be578283fd5b6148ca8b838c01614010565b909650945060608a01359150808211156148e2578283fd5b506148ef8a828b01614010565b989b979a50959850939692959293505050565b60008060208385031215614914578182fd5b82356001600160401b03811115614929578283fd5b61467085828601614086565b60008060008060006060868803121561494c578283fd5b85356001600160401b0380821115614962578485fd5b61496e89838a01614086565b90975095506020880135915080821115614986578485fd5b506146da88828901614086565b6000806000604084860312156149a7578081fd5b83356001600160401b038111156149bc578182fd5b61472186828701614086565b6000602082840312156149d9578081fd5b81356001600160401b038111156149ee578182fd5b610c77848285016140c5565b600080600060408486031215614a0e578081fd5b83356001600160401b0380821115614a24578283fd5b9085019060808288031215614a37578283fd5b90935060208501359080821115614a4c578283fd5b5061443b86828701614086565b600060208284031215614a6a578081fd5b5035919050565b600080600060408486031215614a85578081fd5b8335925060208401356001600160401b0381111561442f578182fd5b60008060008060608587031215614ab6578182fd5b8435935060208501356001600160401b03811115614ad2578283fd5b614ade87828801614086565b9598909750949560400135949350505050565b60008060408385031215614b03578182fd5b50508035926020909101359150565b600082825180855260208086019550808260051b840101818601855b84811015614b5c57601f19868403018952614b4a838351614b92565b98840198925090830190600101614b2e565b5090979650505050505050565b81835281816020850137506000828201602090810191909152601f909101601f19169091010190565b60008151808452614baa8160208601602086016150dc565b601f01601f19169290920160200192915050565b60008251614bd08184602087016150dc565b9190910192915050565b60008451614bec8184602089016150dc565b60609490941b6bffffffffffffffffffffffff191691909301908152601481019190915260340192915050565b60008351614c2b8184602088016150dc565b601760f91b9083019081528351614c498160018401602088016150dc565b01600101949350505050565b8183823760009101908152919050565b60008351614c778184602088016150dc565b835190830190614c8b8183602088016150dc565b01949350505050565b6001600160a01b03848116825283166020820152606060408201819052600090610b0b90830184614b92565b6001600160a01b03858116825284166020820152604081018390526080606082018190526000906132b690830184614b92565b602081526000610d836020830184614b12565b604081526000614d196040830185614b12565b8281036020840152610d7f8185614b12565b828152604060208201526000610c776040830184614b92565b602081526000610c77602083018486614b69565b602081526000610d836020830184614b92565b604081526000614d7e6040830185614b92565b8281036020840152610d7f8185614b92565b6020808252601d908201527f52656769737472793a2053454e4445525f49535f4e4f545f4f574e4552000000604082015260600190565b60208082526029908201527f52656769737472793a2053454e4445525f49535f4e4f545f415050524f5645446040820152682fa7a92fa7aba722a960b91b606082015260800190565b60208082526032908201527f4552433732313a207472616e7366657220746f206e6f6e20455243373231526560408201527131b2b4bb32b91034b6b83632b6b2b73a32b960711b606082015260800190565b60208082526027908201527f52656769737472793a2053454e4445525f49535f4e4f545f4d494e54494e475f60408201526626a0a720a3a2a960c91b606082015260800190565b60208082526017908201527f52656769737472793a20544f4b454e5f494e56414c4944000000000000000000604082015260600190565b6020808252602b908201527f496e697469616c697a61626c653a20636f6e7472616374206973206e6f74206960408201526a6e697469616c697a696e6760a81b606082015260800190565b60208082526022908201527f52656769737472793a20494e53554646494349454e545f5045524d495353494f6040820152614e5360f01b606082015260800190565b6000808335601e19843603018112614f83578283fd5b8301803591506001600160401b03821115614f9c578283fd5b602001915036819003821315613d9457600080fd5b604051601f8201601f191681016001600160401b0381118282101715614fd957614fd96151af565b604052919050565b60006001600160401b03821115614ffa57614ffa6151af565b5060051b60200190565b6000821982111561501757615017615183565b500190565b60008261502b5761502b615199565b500490565b60008282101561504257615042615183565b500390565b6000610d83368484613f91565b600060808236031215615065578081fd5b604051608081016001600160401b038282108183111715615088576150886151af565b8160405284359150615099826151c5565b818352602085013560208401526040850135604084015260608501359150808211156150c3578384fd5b506150d0368286016140c5565b60608301525092915050565b60005b838110156150f75781810151838201526020016150df565b8381111561160b5750506000910152565b60008161511757615117615183565b506000190190565b600181811c9082168061513357607f821691505b6020821081141561152b57634e487b7160e01b600052602260045260246000fd5b600060001982141561516857615168615183565b5060010190565b60008261517e5761517e615199565b500690565b634e487b7160e01b600052601160045260246000fd5b634e487b7160e01b600052601260045260246000fd5b634e487b7160e01b600052604160045260246000fd5b6001600160a01b03811681146112a457600080fd5b6001600160e01b0319811681146112a457600080fdfebe2bb46ac0377341a1ec5c3116d70fd5029d704bd46292e58f6265dd177ebafea164736f6c6343000804000a",
  "linkReferences": {},
  "deployedLinkReferences": {}
}