{
  "_format": "hh-sol-artifact-1",
  "contractName": "UNSRegistry",
  "sourceName": "contracts/UNSRegistry.sol",
  "abi": [
    {
      "anonymous": false,
      "inputs": [
        {
          "indexed": false,
          "internalType": "address",
          "name": "previousAdmin",
          "type": "address"
        },
        {
          "indexed": false,
          "internalType": "address",
          "name": "newAdmin",
          "type": "address"
        }
      ],
      "name": "AdminChanged",
      "type": "event"
    },
    {
      "anonymous": false,
      "inputs": [
        {
          "indexed": true,
          "internalType": "address",
          "name": "owner",
          "type": "address"
        },
        {
          "indexed": true,
          "internalType": "address",
          "name": "approved",
          "type": "address"
        },
        {
          "indexed": true,
          "internalType": "uint256",
          "name": "tokenId",
          "type": "uint256"
        }
      ],
      "name": "Approval",
      "type": "event"
    },
    {
      "anonymous": false,
      "inputs": [
        {
          "indexed": true,
          "internalType": "address",
          "name": "owner",
          "type": "address"
        },
        {
          "indexed": true,
          "internalType": "address",
          "name": "operator",
          "type": "address"
        },
        {
          "indexed": false,
          "internalType": "bool",
          "name": "approved",
          "type": "bool"
        }
      ],
      "name": "ApprovalForAll",
      "type": "event"
    },
    {
      "anonymous": false,
      "inputs": [
        {
          "indexed": true,
          "internalType": "uint256",
          "name": "tokenId",
          "type": "uint256"
        },
        {
          "indexed": true,
          "internalType": "string",
          "name": "keyIndex",
          "type": "string"
        },
        {
          "indexed": false,
          "internalType": "string",
          "name": "key",
          "type": "string"
        }
      ],
      "name": "NewKey",
      "type": "event"
    },
    {
      "anonymous": false,
      "inputs": [
        {
          "indexed": true,
          "internalType": "uint256",
          "name": "tokenId",
          "type": "uint256"
        },
        {
          "indexed": false,
          "internalType": "string",
          "name": "uri",
          "type": "string"
        }
      ],
      "name": "NewURI",
      "type": "event"
    },
    {
      "anonymous": false,
      "inputs": [
        {
          "indexed": false,
          "internalType": "string",
          "name": "prefix",
          "type": "string"
        }
      ],
      "name": "NewURIPrefix",
      "type": "event"
    },
    {
      "anonymous": false,
      "inputs": [
        {
          "indexed": true,
          "internalType": "uint256",
          "name": "tokenId",
          "type": "uint256"
        }
      ],
      "name": "ResetRecords",
      "type": "event"
    },
    {
      "anonymous": false,
      "inputs": [
        {
          "indexed": true,
          "internalType": "uint256",
          "name": "tokenId",
          "type": "uint256"
        },
        {
          "indexed": true,
          "internalType": "string",
          "name": "keyIndex",
          "type": "string"
        },
        {
          "indexed": true,
          "internalType": "string",
          "name": "valueIndex",
          "type": "string"
        },
        {
          "indexed": false,
          "internalType": "string",
          "name": "key",
          "type": "string"
        },
        {
          "indexed": false,
          "internalType": "string",
          "name": "value",
          "type": "string"
        }
      ],
      "name": "Set",
      "type": "event"
    },
    {
      "anonymous": false,
      "inputs": [
        {
          "indexed": true,
          "internalType": "address",
          "name": "from",
          "type": "address"
        },
        {
          "indexed": true,
          "internalType": "address",
          "name": "to",
          "type": "address"
        },
        {
          "indexed": true,
          "internalType": "uint256",
          "name": "tokenId",
          "type": "uint256"
        }
      ],
      "name": "Transfer",
      "type": "event"
    },
    {
      "anonymous": false,
      "inputs": [
        {
          "indexed": true,
          "internalType": "address",
          "name": "implementation",
          "type": "address"
        }
      ],
      "name": "Upgraded",
      "type": "event"
    },
    {
      "inputs": [],
      "name": "NAME",
      "outputs": [
        {
          "internalType": "string",
          "name": "",
          "type": "string"
        }
      ],
      "stateMutability": "view",
      "type": "function"
    },
    {
      "inputs": [],
      "name": "VERSION",
      "outputs": [
        {
          "internalType": "string",
          "name": "",
          "type": "string"
        }
      ],
      "stateMutability": "view",
      "type": "function"
    },
    {
      "inputs": [
        {
          "internalType": "string",
          "name": "key",
          "type": "string"
        }
      ],
      "name": "addKey",
      "outputs": [],
      "stateMutability": "nonpayable",
      "type": "function"
    },
    {
      "inputs": [
        {
          "internalType": "address",
          "name": "to",
          "type": "address"
        },
        {
          "internalType": "uint256",
          "name": "tokenId",
          "type": "uint256"
        }
      ],
      "name": "approve",
      "outputs": [],
      "stateMutability": "nonpayable",
      "type": "function"
    },
    {
      "inputs": [
        {
          "internalType": "address",
          "name": "owner",
          "type": "address"
        }
      ],
      "name": "balanceOf",
      "outputs": [
        {
          "internalType": "uint256",
          "name": "",
          "type": "uint256"
        }
      ],
      "stateMutability": "view",
      "type": "function"
    },
    {
      "inputs": [
        {
          "internalType": "uint256",
          "name": "tokenId",
          "type": "uint256"
        }
      ],
      "name": "burn",
      "outputs": [],
      "stateMutability": "nonpayable",
      "type": "function"
    },
    {
      "inputs": [
        {
          "internalType": "uint256",
          "name": "tokenId",
          "type": "uint256"
        },
        {
          "internalType": "bytes",
          "name": "signature",
          "type": "bytes"
        }
      ],
      "name": "burnFor",
      "outputs": [],
      "stateMutability": "nonpayable",
      "type": "function"
    },
    {
      "inputs": [
        {
          "internalType": "uint256",
          "name": "tokenId",
          "type": "uint256"
        },
        {
          "internalType": "string",
          "name": "label",
          "type": "string"
        }
      ],
      "name": "childIdOf",
      "outputs": [
        {
          "internalType": "uint256",
          "name": "",
          "type": "uint256"
        }
      ],
      "stateMutability": "pure",
      "type": "function"
    },
    {
      "inputs": [
        {
          "internalType": "uint256",
          "name": "tokenId",
          "type": "uint256"
        }
      ],
      "name": "depositToPolygon",
      "outputs": [],
      "stateMutability": "nonpayable",
      "type": "function"
    },
    {
      "inputs": [
        {
          "components": [
            {
              "internalType": "address",
              "name": "from",
              "type": "address"
            },
            {
              "internalType": "uint256",
              "name": "nonce",
              "type": "uint256"
            },
            {
              "internalType": "uint256",
              "name": "tokenId",
              "type": "uint256"
            },
            {
              "internalType": "bytes",
              "name": "data",
              "type": "bytes"
            }
          ],
          "internalType": "struct IForwarder.ForwardRequest",
          "name": "req",
          "type": "tuple"
        },
        {
          "internalType": "bytes",
          "name": "signature",
          "type": "bytes"
        }
      ],
      "name": "execute",
      "outputs": [
        {
          "internalType": "bytes",
          "name": "",
          "type": "bytes"
        }
      ],
      "stateMutability": "nonpayable",
      "type": "function"
    },
    {
      "inputs": [
        {
          "internalType": "uint256",
          "name": "tokenId",
          "type": "uint256"
        }
      ],
      "name": "exists",
      "outputs": [
        {
          "internalType": "bool",
          "name": "",
          "type": "bool"
        }
      ],
      "stateMutability": "view",
      "type": "function"
    },
    {
      "inputs": [
        {
          "internalType": "string",
          "name": "key",
          "type": "string"
        },
        {
          "internalType": "uint256",
          "name": "tokenId",
          "type": "uint256"
        }
      ],
      "name": "get",
      "outputs": [
        {
          "internalType": "string",
          "name": "value",
          "type": "string"
        }
      ],
      "stateMutability": "view",
      "type": "function"
    },
    {
      "inputs": [
        {
          "internalType": "uint256",
          "name": "tokenId",
          "type": "uint256"
        }
      ],
      "name": "getApproved",
      "outputs": [
        {
          "internalType": "address",
          "name": "",
          "type": "address"
        }
      ],
      "stateMutability": "view",
      "type": "function"
    },
    {
      "inputs": [
        {
          "internalType": "uint256",
          "name": "keyHash",
          "type": "uint256"
        },
        {
          "internalType": "uint256",
          "name": "tokenId",
          "type": "uint256"
        }
      ],
      "name": "getByHash",
      "outputs": [
        {
          "internalType": "string",
          "name": "key",
          "type": "string"
        },
        {
          "internalType": "string",
          "name": "value",
          "type": "string"
        }
      ],
      "stateMutability": "view",
      "type": "function"
    },
    {
      "inputs": [
        {
          "internalType": "uint256",
          "name": "keyHash",
          "type": "uint256"
        }
      ],
      "name": "getKey",
      "outputs": [
        {
          "internalType": "string",
          "name": "",
          "type": "string"
        }
      ],
      "stateMutability": "view",
      "type": "function"
    },
    {
      "inputs": [
        {
          "internalType": "uint256[]",
          "name": "hashes",
          "type": "uint256[]"
        }
      ],
      "name": "getKeys",
      "outputs": [
        {
          "internalType": "string[]",
          "name": "values",
          "type": "string[]"
        }
      ],
      "stateMutability": "view",
      "type": "function"
    },
    {
      "inputs": [
        {
          "internalType": "string[]",
          "name": "keys",
          "type": "string[]"
        },
        {
          "internalType": "uint256",
          "name": "tokenId",
          "type": "uint256"
        }
      ],
      "name": "getMany",
      "outputs": [
        {
          "internalType": "string[]",
          "name": "values",
          "type": "string[]"
        }
      ],
      "stateMutability": "view",
      "type": "function"
    },
    {
      "inputs": [
        {
          "internalType": "uint256[]",
          "name": "keyHashes",
          "type": "uint256[]"
        },
        {
          "internalType": "uint256",
          "name": "tokenId",
          "type": "uint256"
        }
      ],
      "name": "getManyByHash",
      "outputs": [
        {
          "internalType": "string[]",
          "name": "keys",
          "type": "string[]"
        },
        {
          "internalType": "string[]",
          "name": "values",
          "type": "string[]"
        }
      ],
      "stateMutability": "view",
      "type": "function"
    },
    {
      "inputs": [
        {
          "internalType": "address",
          "name": "mintingManager",
          "type": "address"
        }
      ],
      "name": "initialize",
      "outputs": [],
      "stateMutability": "nonpayable",
      "type": "function"
    },
    {
      "inputs": [
        {
          "internalType": "address",
          "name": "owner",
          "type": "address"
        },
        {
          "internalType": "address",
          "name": "operator",
          "type": "address"
        }
      ],
      "name": "isApprovedForAll",
      "outputs": [
        {
          "internalType": "bool",
          "name": "",
          "type": "bool"
        }
      ],
      "stateMutability": "view",
      "type": "function"
    },
    {
      "inputs": [
        {
          "internalType": "address",
          "name": "spender",
          "type": "address"
        },
        {
          "internalType": "uint256",
          "name": "tokenId",
          "type": "uint256"
        }
      ],
      "name": "isApprovedOrOwner",
      "outputs": [
        {
          "internalType": "bool",
          "name": "",
          "type": "bool"
        }
      ],
      "stateMutability": "view",
      "type": "function"
    },
    {
      "inputs": [
        {
          "internalType": "address",
          "name": "forwarder",
          "type": "address"
        }
      ],
      "name": "isTrustedForwarder",
      "outputs": [
        {
          "internalType": "bool",
          "name": "",
          "type": "bool"
        }
      ],
      "stateMutability": "view",
      "type": "function"
    },
    {
      "inputs": [
        {
          "internalType": "address",
          "name": "to",
          "type": "address"
        },
        {
          "internalType": "uint256",
          "name": "tokenId",
          "type": "uint256"
        },
        {
          "internalType": "string",
          "name": "uri",
          "type": "string"
        }
      ],
      "name": "mint",
      "outputs": [],
      "stateMutability": "nonpayable",
      "type": "function"
    },
    {
      "inputs": [
        {
          "internalType": "address",
          "name": "to",
          "type": "address"
        },
        {
          "internalType": "uint256",
          "name": "tokenId",
          "type": "uint256"
        },
        {
          "internalType": "string",
          "name": "uri",
          "type": "string"
        },
        {
          "internalType": "string[]",
          "name": "keys",
          "type": "string[]"
        },
        {
          "internalType": "string[]",
          "name": "values",
          "type": "string[]"
        }
      ],
      "name": "mintWithRecords",
      "outputs": [],
      "stateMutability": "nonpayable",
      "type": "function"
    },
    {
      "inputs": [],
      "name": "name",
      "outputs": [
        {
          "internalType": "string",
          "name": "",
          "type": "string"
        }
      ],
      "stateMutability": "view",
      "type": "function"
    },
    {
      "inputs": [
        {
          "internalType": "uint256",
          "name": "tokenId",
          "type": "uint256"
        }
      ],
      "name": "nonceOf",
      "outputs": [
        {
          "internalType": "uint256",
          "name": "",
          "type": "uint256"
        }
      ],
      "stateMutability": "view",
      "type": "function"
    },
    {
      "inputs": [
        {
          "internalType": "address",
          "name": "operator",
          "type": "address"
        },
        {
          "internalType": "address",
          "name": "from",
          "type": "address"
        },
        {
          "internalType": "uint256",
          "name": "tokenId",
          "type": "uint256"
        },
        {
          "internalType": "bytes",
          "name": "data",
          "type": "bytes"
        }
      ],
      "name": "onERC721Received",
      "outputs": [
        {
          "internalType": "bytes4",
          "name": "",
          "type": "bytes4"
        }
      ],
      "stateMutability": "nonpayable",
      "type": "function"
    },
    {
      "inputs": [
        {
          "internalType": "uint256",
          "name": "tokenId",
          "type": "uint256"
        }
      ],
      "name": "ownerOf",
      "outputs": [
        {
          "internalType": "address",
          "name": "",
          "type": "address"
        }
      ],
      "stateMutability": "view",
      "type": "function"
    },
    {
      "inputs": [
        {
          "internalType": "string[]",
          "name": "keys",
          "type": "string[]"
        },
        {
          "internalType": "string[]",
          "name": "values",
          "type": "string[]"
        },
        {
          "internalType": "uint256",
          "name": "tokenId",
          "type": "uint256"
        }
      ],
      "name": "reconfigure",
      "outputs": [],
      "stateMutability": "nonpayable",
      "type": "function"
    },
    {
      "inputs": [
        {
          "internalType": "string[]",
          "name": "keys",
          "type": "string[]"
        },
        {
          "internalType": "string[]",
          "name": "values",
          "type": "string[]"
        },
        {
          "internalType": "uint256",
          "name": "tokenId",
          "type": "uint256"
        },
        {
          "internalType": "bytes",
          "name": "signature",
          "type": "bytes"
        }
      ],
      "name": "reconfigureFor",
      "outputs": [],
      "stateMutability": "nonpayable",
      "type": "function"
    },
    {
      "inputs": [
        {
          "internalType": "uint256",
          "name": "tokenId",
          "type": "uint256"
        }
      ],
      "name": "reset",
      "outputs": [],
      "stateMutability": "nonpayable",
      "type": "function"
    },
    {
      "inputs": [
        {
          "internalType": "uint256",
          "name": "tokenId",
          "type": "uint256"
        },
        {
          "internalType": "bytes",
          "name": "signature",
          "type": "bytes"
        }
      ],
      "name": "resetFor",
      "outputs": [],
      "stateMutability": "nonpayable",
      "type": "function"
    },
    {
      "inputs": [
        {
          "internalType": "uint256",
          "name": "tokenId",
          "type": "uint256"
        }
      ],
      "name": "resolverOf",
      "outputs": [
        {
          "internalType": "address",
          "name": "",
          "type": "address"
        }
      ],
      "stateMutability": "view",
      "type": "function"
    },
    {
      "inputs": [],
      "name": "root",
      "outputs": [
        {
          "internalType": "uint256",
          "name": "",
          "type": "uint256"
        }
      ],
      "stateMutability": "pure",
      "type": "function"
    },
    {
      "inputs": [
        {
          "internalType": "address",
          "name": "to",
          "type": "address"
        },
        {
          "internalType": "uint256",
          "name": "tokenId",
          "type": "uint256"
        },
        {
          "internalType": "string",
          "name": "uri",
          "type": "string"
        },
        {
          "internalType": "bytes",
          "name": "data",
          "type": "bytes"
        }
      ],
      "name": "safeMint",
      "outputs": [],
      "stateMutability": "nonpayable",
      "type": "function"
    },
    {
      "inputs": [
        {
          "internalType": "address",
          "name": "to",
          "type": "address"
        },
        {
          "internalType": "uint256",
          "name": "tokenId",
          "type": "uint256"
        },
        {
          "internalType": "string",
          "name": "uri",
          "type": "string"
        }
      ],
      "name": "safeMint",
      "outputs": [],
      "stateMutability": "nonpayable",
      "type": "function"
    },
    {
      "inputs": [
        {
          "internalType": "address",
          "name": "to",
          "type": "address"
        },
        {
          "internalType": "uint256",
          "name": "tokenId",
          "type": "uint256"
        },
        {
          "internalType": "string",
          "name": "uri",
          "type": "string"
        },
        {
          "internalType": "string[]",
          "name": "keys",
          "type": "string[]"
        },
        {
          "internalType": "string[]",
          "name": "values",
          "type": "string[]"
        }
      ],
      "name": "safeMintWithRecords",
      "outputs": [],
      "stateMutability": "nonpayable",
      "type": "function"
    },
    {
      "inputs": [
        {
          "internalType": "address",
          "name": "to",
          "type": "address"
        },
        {
          "internalType": "uint256",
          "name": "tokenId",
          "type": "uint256"
        },
        {
          "internalType": "string",
          "name": "uri",
          "type": "string"
        },
        {
          "internalType": "string[]",
          "name": "keys",
          "type": "string[]"
        },
        {
          "internalType": "string[]",
          "name": "values",
          "type": "string[]"
        },
        {
          "internalType": "bytes",
          "name": "data",
          "type": "bytes"
        }
      ],
      "name": "safeMintWithRecords",
      "outputs": [],
      "stateMutability": "nonpayable",
      "type": "function"
    },
    {
      "inputs": [
        {
          "internalType": "address",
          "name": "from",
          "type": "address"
        },
        {
          "internalType": "address",
          "name": "to",
          "type": "address"
        },
        {
          "internalType": "uint256",
          "name": "tokenId",
          "type": "uint256"
        }
      ],
      "name": "safeTransferFrom",
      "outputs": [],
      "stateMutability": "nonpayable",
      "type": "function"
    },
    {
      "inputs": [
        {
          "internalType": "address",
          "name": "from",
          "type": "address"
        },
        {
          "internalType": "address",
          "name": "to",
          "type": "address"
        },
        {
          "internalType": "uint256",
          "name": "tokenId",
          "type": "uint256"
        },
        {
          "internalType": "bytes",
          "name": "data",
          "type": "bytes"
        }
      ],
      "name": "safeTransferFrom",
      "outputs": [],
      "stateMutability": "nonpayable",
      "type": "function"
    },
    {
      "inputs": [
        {
          "internalType": "address",
          "name": "from",
          "type": "address"
        },
        {
          "internalType": "address",
          "name": "to",
          "type": "address"
        },
        {
          "internalType": "uint256",
          "name": "tokenId",
          "type": "uint256"
        },
        {
          "internalType": "bytes",
          "name": "data",
          "type": "bytes"
        },
        {
          "internalType": "bytes",
          "name": "signature",
          "type": "bytes"
        }
      ],
      "name": "safeTransferFromFor",
      "outputs": [],
      "stateMutability": "nonpayable",
      "type": "function"
    },
    {
      "inputs": [
        {
          "internalType": "address",
          "name": "from",
          "type": "address"
        },
        {
          "internalType": "address",
          "name": "to",
          "type": "address"
        },
        {
          "internalType": "uint256",
          "name": "tokenId",
          "type": "uint256"
        },
        {
          "internalType": "bytes",
          "name": "signature",
          "type": "bytes"
        }
      ],
      "name": "safeTransferFromFor",
      "outputs": [],
      "stateMutability": "nonpayable",
      "type": "function"
    },
    {
      "inputs": [
        {
          "internalType": "string",
          "name": "key",
          "type": "string"
        },
        {
          "internalType": "string",
          "name": "value",
          "type": "string"
        },
        {
          "internalType": "uint256",
          "name": "tokenId",
          "type": "uint256"
        }
      ],
      "name": "set",
      "outputs": [],
      "stateMutability": "nonpayable",
      "type": "function"
    },
    {
      "inputs": [
        {
          "internalType": "address",
          "name": "operator",
          "type": "address"
        },
        {
          "internalType": "bool",
          "name": "approved",
          "type": "bool"
        }
      ],
      "name": "setApprovalForAll",
      "outputs": [],
      "stateMutability": "nonpayable",
      "type": "function"
    },
    {
      "inputs": [
        {
          "internalType": "uint256",
          "name": "keyHash",
          "type": "uint256"
        },
        {
          "internalType": "string",
          "name": "value",
          "type": "string"
        },
        {
          "internalType": "uint256",
          "name": "tokenId",
          "type": "uint256"
        }
      ],
      "name": "setByHash",
      "outputs": [],
      "stateMutability": "nonpayable",
      "type": "function"
    },
    {
      "inputs": [
        {
          "internalType": "string",
          "name": "key",
          "type": "string"
        },
        {
          "internalType": "string",
          "name": "value",
          "type": "string"
        },
        {
          "internalType": "uint256",
          "name": "tokenId",
          "type": "uint256"
        },
        {
          "internalType": "bytes",
          "name": "signature",
          "type": "bytes"
        }
      ],
      "name": "setFor",
      "outputs": [],
      "stateMutability": "nonpayable",
      "type": "function"
    },
    {
      "inputs": [
        {
          "internalType": "string[]",
          "name": "keys",
          "type": "string[]"
        },
        {
          "internalType": "string[]",
          "name": "values",
          "type": "string[]"
        },
        {
          "internalType": "uint256",
          "name": "tokenId",
          "type": "uint256"
        }
      ],
      "name": "setMany",
      "outputs": [],
      "stateMutability": "nonpayable",
      "type": "function"
    },
    {
      "inputs": [
        {
          "internalType": "uint256[]",
          "name": "keyHashes",
          "type": "uint256[]"
        },
        {
          "internalType": "string[]",
          "name": "values",
          "type": "string[]"
        },
        {
          "internalType": "uint256",
          "name": "tokenId",
          "type": "uint256"
        }
      ],
      "name": "setManyByHash",
      "outputs": [],
      "stateMutability": "nonpayable",
      "type": "function"
    },
    {
      "inputs": [
        {
          "internalType": "string[]",
          "name": "keys",
          "type": "string[]"
        },
        {
          "internalType": "string[]",
          "name": "values",
          "type": "string[]"
        },
        {
          "internalType": "uint256",
          "name": "tokenId",
          "type": "uint256"
        },
        {
          "internalType": "bytes",
          "name": "signature",
          "type": "bytes"
        }
      ],
      "name": "setManyFor",
      "outputs": [],
      "stateMutability": "nonpayable",
      "type": "function"
    },
    {
      "inputs": [
        {
          "internalType": "address",
          "name": "to",
          "type": "address"
        },
        {
          "internalType": "uint256",
          "name": "tokenId",
          "type": "uint256"
        }
      ],
      "name": "setOwner",
      "outputs": [],
      "stateMutability": "nonpayable",
      "type": "function"
    },
    {
      "inputs": [
        {
          "internalType": "address",
          "name": "rootChainManager",
          "type": "address"
        }
      ],
      "name": "setRootChainManager",
      "outputs": [],
      "stateMutability": "nonpayable",
      "type": "function"
    },
    {
      "inputs": [
        {
          "internalType": "string",
          "name": "prefix",
          "type": "string"
        }
      ],
      "name": "setTokenURIPrefix",
      "outputs": [],
      "stateMutability": "nonpayable",
      "type": "function"
    },
    {
      "inputs": [
        {
          "internalType": "bytes4",
          "name": "interfaceId",
          "type": "bytes4"
        }
      ],
      "name": "supportsInterface",
      "outputs": [
        {
          "internalType": "bool",
          "name": "",
          "type": "bool"
        }
      ],
      "stateMutability": "view",
      "type": "function"
    },
    {
      "inputs": [],
      "name": "symbol",
      "outputs": [
        {
          "internalType": "string",
          "name": "",
          "type": "string"
        }
      ],
      "stateMutability": "view",
      "type": "function"
    },
    {
      "inputs": [
        {
          "internalType": "uint256",
          "name": "tokenId",
          "type": "uint256"
        }
      ],
      "name": "tokenURI",
      "outputs": [
        {
          "internalType": "string",
          "name": "",
          "type": "string"
        }
      ],
      "stateMutability": "view",
      "type": "function"
    },
    {
      "inputs": [
        {
          "internalType": "address",
          "name": "from",
          "type": "address"
        },
        {
          "internalType": "address",
          "name": "to",
          "type": "address"
        },
        {
          "internalType": "uint256",
          "name": "tokenId",
          "type": "uint256"
        }
      ],
      "name": "transferFrom",
      "outputs": [],
      "stateMutability": "nonpayable",
      "type": "function"
    },
    {
      "inputs": [
        {
          "internalType": "address",
          "name": "from",
          "type": "address"
        },
        {
          "internalType": "address",
          "name": "to",
          "type": "address"
        },
        {
          "internalType": "uint256",
          "name": "tokenId",
          "type": "uint256"
        },
        {
          "internalType": "bytes",
          "name": "signature",
          "type": "bytes"
        }
      ],
      "name": "transferFromFor",
      "outputs": [],
      "stateMutability": "nonpayable",
      "type": "function"
    },
    {
      "inputs": [
        {
          "components": [
            {
              "internalType": "address",
              "name": "from",
              "type": "address"
            },
            {
              "internalType": "uint256",
              "name": "nonce",
              "type": "uint256"
            },
            {
              "internalType": "uint256",
              "name": "tokenId",
              "type": "uint256"
            },
            {
              "internalType": "bytes",
              "name": "data",
              "type": "bytes"
            }
          ],
          "internalType": "struct IForwarder.ForwardRequest",
          "name": "req",
          "type": "tuple"
        },
        {
          "internalType": "bytes",
          "name": "signature",
          "type": "bytes"
        }
      ],
      "name": "verify",
      "outputs": [
        {
          "internalType": "bool",
          "name": "",
          "type": "bool"
        }
      ],
      "stateMutability": "view",
      "type": "function"
    }
  ],
  "bytecode": "0x608060405234801561001057600080fd5b50614d72806100206000396000f3fe608060405234801561001057600080fd5b506004361061038e5760003560e01c8063728a44d8116101de578063b88d4fde1161010f578063d3fc9864116100ad578063ef2c30881161007c578063ef2c3088146107de578063efda4d3e146107f1578063f5c1f76e14610804578063ffa1ad74146108175761038e565b8063d3fc98641461079d578063e985e9c5146107b0578063ebf0c717146107c3578063ec129eea146107cb5761038e565b8063c5974073116100e9578063c597407314610751578063c87b56dd14610764578063cd279c7c14610777578063ce92b33e1461078a5761038e565b8063b88d4fde14610718578063bb5b27e11461072b578063c4d66de81461073e5761038e565b8063a42474001161017c578063b3f9e4cb11610156578063b3f9e4cb146106be578063b55bc617146106d1578063b85afd28146106e4578063b87abc11146107055761038e565b8063a424740014610685578063ab3b87fe14610698578063b0f59177146106ab5761038e565b806399e0dd7c116101b857806399e0dd7c14610644578063a22cb46514610657578063a3557e6c1461066a578063a3f4df7e1461067d5761038e565b8063728a44d8146106165780638f69c1881461062957806395d89b411461063c5761038e565b8063430c2081116102c357806361603dd91161026157806368b62d321161023057806368b62d32146105bd5780636ccbae5f146105dd5780636debcb8d146105f057806370a08231146106035761038e565b806361603dd9146105635780636352211e14610576578063638e5c7814610589578063672b9f811461059c5761038e565b80634a72584d1161029d5780634a72584d146105175780634f558e791461052a57806350382c1a1461053d578063572b6c05146105505761038e565b8063430c2081146104de5780634348b562146104f157806347c81699146105045761038e565b80631bf7e13e11610330578063280d9b051161030a578063280d9b0514610492578063310bd74b146104a557806342842e0e146104b857806342966c68146104cb5761038e565b80631bf7e13e1461045957806323b872dd1461046c57806327f189751461047f5761038e565b8063095ea7b31161036c578063095ea7b3146103f1578063150b7a02146104065780631bd8cc1a146104265780631be5e7ed146104465761038e565b806301ffc9a71461039357806306fdde03146103bc578063081812fc146103d1575b600080fd5b6103a66103a1366004613dc2565b61081f565b6040516103b3919061440e565b60405180910390f35b6103c4610832565b6040516103b3919061444c565b6103e46103df366004613fd1565b6108c5565b6040516103b391906142c6565b6104046103ff36600461399b565b610911565b005b6104196104143660046137f6565b610963565b6040516103b39190614437565b610439610434366004613d22565b610a00565b6040516103b391906143d6565b6103c4610454366004613eeb565b610b20565b6103c4610467366004613f65565b610b6b565b61040461047a3660046137b6565b610c36565b61040461048d366004613c33565b610cc2565b6104046104a0366004613866565b610d43565b6104046104b3366004613fd1565b610ddf565b6104046104c63660046137b6565b610e53565b6104046104d9366004613fd1565b610e6e565b6103a66104ec36600461399b565b610eeb565b6104046104ff366004613a1f565b610ef7565b610404610512366004613e2d565b610f5c565b610404610525366004614025565b610fd4565b6103a6610538366004613fd1565b611053565b61040461054b366004613f20565b61105e565b6103a661055e366004613746565b611094565b610404610571366004613fe9565b6110a5565b6103e4610584366004613fd1565b61112e565b610404610597366004613fd1565b611163565b6105af6105aa366004614075565b6111b2565b6040516103b392919061449a565b6105d06105cb366004613fe9565b6111ca565b6040516103b391906142af565b6105d06105eb366004613fd1565b61120c565b6104046105fe3660046137f6565b61121f565b6105d0610611366004613746565b611241565b610404610624366004613746565b611285565b610404610637366004613ca3565b611322565b6103c4611348565b610404610652366004613dfa565b611357565b61040461066536600461396a565b6113dd565b610404610678366004613ca3565b6114ab565b6103c46114d1565b6103a6610693366004613f65565b6114fa565b6104046106a636600461399b565b611545565b6104046106b9366004613a1f565b6115c9565b6103e46106cc366004613fd1565b611652565b6104046106df366004613bab565b61166f565b6106f76106f2366004613d22565b61171f565b6040516103b39291906143e9565b610404610713366004613fe9565b611887565b610404610726366004613901565b6118a5565b6103c4610739366004613fd1565b611925565b61040461074c366004613746565b6119c7565b61040461075f366004613e8b565b611ab4565b6103c4610772366004613fd1565b611ada565b6104046107853660046139c6565b611b5c565b610404610798366004613c33565b611be6565b6104046107ab3660046139c6565b611c5e565b6103a66107be36600461377e565b611cda565b6105d0611d08565b6104046107d9366004613c33565b611d0d565b6104046107ec3660046137f6565b611d85565b6104046107ff366004613ad0565b611da7565b610439610812366004613d6b565b611e35565b6103c4611f12565b600061082a82611f33565b90505b919050565b60606065805461084190614c8e565b80601f016020809104026020016040519081016040528092919081815260200182805461086d90614c8e565b80156108ba5780601f1061088f576101008083540402835291602001916108ba565b820191906000526020600020905b81548152906001019060200180831161089d57829003601f168201915b505050505090505b90565b60006108d082611f73565b6108f55760405162461bcd60e51b81526004016108ec90614972565b60405180910390fd5b506000908152606960205260409020546001600160a01b031690565b8061091b33611094565b1561094b57610928611f90565b81146109465760405162461bcd60e51b81526004016108ec90614786565b610954565b61095481611faa565b61095e8383611fd8565b505050565b600061097f30856040518060200160405280600081525061206b565b6109876120b2565b6001600160a01b03166342966c68856040518263ffffffff1660e01b81526004016109b291906142af565b600060405180830381600087803b1580156109cc57600080fd5b505af11580156109e0573d6000803e3d6000fd5b505050506109ee85856120c1565b50630891089160e11b95945050505050565b6060826001600160401b03811115610a2857634e487b7160e01b600052604160045260246000fd5b604051908082528060200260200182016040528015610a5b57816020015b6060815260200190600190039081610a465790505b50905060005b83811015610b1857610ada858583818110610a8c57634e487b7160e01b600052603260045260246000fd5b9050602002810190610a9e9190614b53565b8080601f016020809104026020016040519081016040528093929190818152602001838380828437600092019190915250879250612279915050565b828281518110610afa57634e487b7160e01b600052603260045260246000fd5b60200260200101819052508080610b1090614cc9565b915050610a61565b509392505050565b6060610b6384848080601f016020809104026020016040519081016040528093929190818152602001838380828437600092019190915250869250612279915050565b949350505050565b606060005a9050610b7d8585856114fa565b610b995760405162461bcd60e51b81526004016108ec90614a9c565b610c2b610ba96020870187613746565b30604088013584610bbd60608b018b614b53565b8080601f01602080910402602001604051908101604052809392919081815260200183838082843760009201919091525050604080516020601f8e018190048102820181019092528c815292508c91508b90819084018382808284376000920191909152506122ae92505050565b9150505b9392505050565b80610c48610c426120b2565b8261239d565b610c645760405162461bcd60e51b81526004016108ec9061452d565b81610c6e33611094565b15610c9e57610c7b611f90565b8114610c995760405162461bcd60e51b81526004016108ec90614786565b610ca7565b610ca781611faa565b610cb08361241a565b610cbb858585612485565b5050505050565b80610cce610c426120b2565b610cea5760405162461bcd60e51b81526004016108ec9061452d565b81610cf433611094565b15610d2457610d01611f90565b8114610d1f5760405162461bcd60e51b81526004016108ec90614786565b610d2d565b610d2d81611faa565b610d3a87878787876125b2565b50505050505050565b60005a9050610dd463b88d4fde8989898989604051602401610d6995949392919061432a565b6040516020818303038152906040529060e01b6020820180516001600160e01b0383818316178352505050508785858080601f016020809104026020016040519081016040528093929190818152602001838380828437600092019190915250879250612631915050565b505050505050505050565b80610deb610c426120b2565b610e075760405162461bcd60e51b81526004016108ec9061452d565b81610e1133611094565b15610e4157610e1e611f90565b8114610e3c5760405162461bcd60e51b81526004016108ec90614786565b610e4a565b610e4a81611faa565b61095e8361241a565b61095e838383604051806020016040528060008152506118a5565b80610e7a610c426120b2565b610e965760405162461bcd60e51b81526004016108ec9061452d565b81610ea033611094565b15610ed057610ead611f90565b8114610ecb5760405162461bcd60e51b81526004016108ec90614786565b610ed9565b610ed981611faa565b610ee28361241a565b61095e83612676565b6000610c2f838361239d565b610134546001600160a01b0316610f0c6120b2565b6001600160a01b031614610f325760405162461bcd60e51b81526004016108ec906146f3565b610f5288888888888888886040518060200160405280600081525061271d565b5050505050505050565b80610f68610c426120b2565b610f845760405162461bcd60e51b81526004016108ec9061452d565b81610f8e33611094565b15610fbe57610f9b611f90565b8114610fb95760405162461bcd60e51b81526004016108ec90614786565b610fc7565b610fc781611faa565b610d3a878787878761276d565b80610fe0610c426120b2565b610ffc5760405162461bcd60e51b81526004016108ec9061452d565b8161100633611094565b1561103657611013611f90565b81146110315760405162461bcd60e51b81526004016108ec90614786565b61103f565b61103f81611faa565b61104b8686868661284c565b505050505050565b600061082a82611f73565b6110918160405160200161107291906141e4565b6040516020818303038152906040528051906020012060001c826128bc565b50565b6001600160a01b0381163014919050565b60005a9050610cbb6342966c68856040516024016110c391906142af565b6040516020818303038152906040529060e01b6020820180516001600160e01b0383818316178352505050508585858080601f016020809104026020016040519081016040528093929190818152602001838380828437600092019190915250879250612631915050565b6000818152606760205260408120546001600160a01b03168061082a5760405162461bcd60e51b81526004016108ec90614864565b8061116f610c426120b2565b61118b5760405162461bcd60e51b81526004016108ec9061452d565b61119d6111966120b2565b3084612485565b6111ae6111a86120b2565b836120c1565b5050565b6060806111bf84846128e8565b909590945092505050565b6000610b638484848080601f01602080910402602001604051908101604052809392919081815260200183838082843760009201919091525061290992505050565b6000908152610100602052604090205490565b60005a9050610d3a6342842e0e8787876040516024016110c393929190614306565b60006001600160a01b0382166112695760405162461bcd60e51b81526004016108ec9061481a565b506001600160a01b031660009081526068602052604090205490565b60006112b07fbe2bb46ac0377341a1ec5c3116d70fd5029d704bd46292e58f6265dd177ebafe6108c2565b546001600160a01b0316146112d75760405162461bcd60e51b81526004016108ec906149be565b806113017fbe2bb46ac0377341a1ec5c3116d70fd5029d704bd46292e58f6265dd177ebafe6108c2565b80546001600160a01b0319166001600160a01b039290921691909117905550565b60005a9050610dd463ce92b33e89898989896040516024016110c395949392919061439c565b60606066805461084190614c8e565b610134546001600160a01b031661136c6120b2565b6001600160a01b0316146113925760405162461bcd60e51b81526004016108ec906146f3565b61139f610133838361351d565b507f4b120d6a959a84a520fa48f5f937cca0e79129423487af7901213b5d2e89313b82826040516113d192919061445f565b60405180910390a15050565b6113e56120b2565b6001600160a01b0316826001600160a01b031614156114165760405162461bcd60e51b81526004016108ec9061467a565b80606a60006114236120b2565b6001600160a01b03908116825260208083019390935260409182016000908120918716808252919093529120805460ff1916921515929092179091556114676120b2565b6001600160a01b03167f17307eab39ab6107e8899845ad3d59bd9653f200f220920489ca2b5937696c318360405161149f919061440e565b60405180910390a35050565b60005a9050610dd463ec129eea89898989896040516024016110c395949392919061439c565b6040518060400160405280600d81526020016c554e533a20526567697374727960981b81525081565b6000610b6361150885614bda565b3085858080601f01602080910402602001604051908101604052809392919081815260200183838082843760009201919091525061298592505050565b80611551610c426120b2565b61156d5760405162461bcd60e51b81526004016108ec9061452d565b8161157733611094565b156115a757611584611f90565b81146115a25760405162461bcd60e51b81526004016108ec90614786565b6115b0565b6115b081611faa565b6115c36115bc8461112e565b8585612485565b50505050565b610134546001600160a01b03166115de6120b2565b6001600160a01b0316146116045760405162461bcd60e51b81526004016108ec906146f3565b611645888888888080601f01602080910402602001604051908101604052809392919081815260200183838082843760009201919091525061206b92505050565b610f52848484848b612a46565b600061165d82611f73565b61166857600061082a565b5030919050565b610134546001600160a01b03166116846120b2565b6001600160a01b0316146116aa5760405162461bcd60e51b81526004016108ec906146f3565b61104b868686868080601f01602080910402602001604051908101604052809392919081815260200183838082843760009201919091525050604080516020601f8a018190048102820181019092528881529250889150879081908401838280828437600092019190915250612ad092505050565b606080836001600160401b0381111561174857634e487b7160e01b600052604160045260246000fd5b60405190808252806020026020018201604052801561177b57816020015b60608152602001906001900390816117665790505b509150836001600160401b038111156117a457634e487b7160e01b600052604160045260246000fd5b6040519080825280602002602001820160405280156117d757816020015b60608152602001906001900390816117c25790505b50905060005b8481101561187e5761181586868381811061180857634e487b7160e01b600052603260045260246000fd5b90506020020135856128e8565b84838151811061183557634e487b7160e01b600052603260045260246000fd5b6020026020010184848151811061185c57634e487b7160e01b600052603260045260246000fd5b602002602001018290528290525050808061187690614cc9565b9150506117dd565b50935093915050565b60005a9050610cbb63310bd74b856040516024016110c391906142af565b816118b1610c426120b2565b6118cd5760405162461bcd60e51b81526004016108ec9061452d565b826118d733611094565b15611907576118e4611f90565b81146119025760405162461bcd60e51b81526004016108ec90614786565b611910565b61191081611faa565b6119198461241a565b61104b86868686612b19565b600081815260c96020526040902080546060919061194290614c8e565b80601f016020809104026020016040519081016040528092919081815260200182805461196e90614c8e565b80156119bb5780601f10611990576101008083540402835291602001916119bb565b820191906000526020600020905b81548152906001019060200180831161199e57829003601f168201915b50505050509050919050565b600054610100900460ff16806119e0575060005460ff16155b6119fc5760405162461bcd60e51b81526004016108ec906148ad565b600054610100900460ff16158015611a27576000805460ff1961ff0019909116610100171660011790555b61013480546001600160a01b0319166001600160a01b0384161790556040805180820182526013815272556e73746f707061626c6520446f6d61696e7360681b60208083019190915282518084019093526002835261155160f21b90830152611a8f91612b4c565b611a97612bea565b611a9f612bea565b80156111ae576000805461ff00191690555050565b60005a9050610dd46347c8169989898989896040516024016110c3959493929190614473565b6060611ae582611f73565b611b015760405162461bcd60e51b81526004016108ec90614a4d565b6000611b0b612c5e565b90506000815111611b2b5760405180602001604052806000815250610c2f565b80611b3584612c6e565b604051602001611b4692919061424f565b6040516020818303038152906040529392505050565b610134546001600160a01b0316611b716120b2565b6001600160a01b031614611b975760405162461bcd60e51b81526004016108ec906146f3565b6115c3848484848080601f016020809104026020016040519081016040528093929190818152602001838380828437600092018290525060408051602081019091529081529250612ad0915050565b80611bf2610c426120b2565b611c0e5760405162461bcd60e51b81526004016108ec9061452d565b81611c1833611094565b15611c4857611c25611f90565b8114611c435760405162461bcd60e51b81526004016108ec90614786565b611c51565b611c5181611faa565b610d3a8787878787612a46565b610134546001600160a01b0316611c736120b2565b6001600160a01b031614611c995760405162461bcd60e51b81526004016108ec906146f3565b6115c3848484848080601f01602080910402602001604051908101604052809392919081815260200183838082843760009201919091525061206b92505050565b6001600160a01b039182166000908152606a6020908152604080832093909416825291909152205460ff1690565b600090565b80611d19610c426120b2565b611d355760405162461bcd60e51b81526004016108ec9061452d565b81611d3f33611094565b15611d6f57611d4c611f90565b8114611d6a5760405162461bcd60e51b81526004016108ec90614786565b611d78565b611d7881611faa565b610d3a8787878787612d88565b60005a9050610d3a6323b872dd8787876040516024016110c393929190614306565b610134546001600160a01b0316611dbc6120b2565b6001600160a01b031614611de25760405162461bcd60e51b81526004016108ec906146f3565b611e298a8a8a8a8a8a8a8a8a8a8080601f01602080910402602001604051908101604052809392919081815260200183838082843760009201919091525061271d92505050565b50505050505050505050565b6060816001600160401b03811115611e5d57634e487b7160e01b600052604160045260246000fd5b604051908082528060200260200182016040528015611e9057816020015b6060815260200190600190039081611e7b5790505b50905060005b82811015611f0b57611ecd848483818110611ec157634e487b7160e01b600052603260045260246000fd5b90506020020135611925565b828281518110611eed57634e487b7160e01b600052603260045260246000fd5b60200260200101819052508080611f0390614cc9565b915050611e96565b5092915050565b604051806040016040528060058152602001640302e322e360dc1b81525081565b60006001600160e01b031982166380ac58cd60e01b1480611f6457506001600160e01b03198216635b5e139f60e01b145b8061082a575061082a82612d9e565b6000908152606760205260409020546001600160a01b0316151590565b6000611f9b33611094565b156108c25750601f1936013590565b60008181526101006020526040902054611fc5906001614b97565b6000918252610100602052604090912055565b6000611fe38261112e565b9050806001600160a01b0316836001600160a01b031614156120175760405162461bcd60e51b81526004016108ec90614ae3565b806001600160a01b03166120296120b2565b6001600160a01b031614806120455750612045816107be6120b2565b6120615760405162461bcd60e51b81526004016108ec906147bd565b61095e8383612db7565b6120758383612e25565b817fc5beef08f693b11c316c0c8394a377a0033c9cf701b8cd8afd79cecef60c3952826040516120a5919061444c565b60405180910390a2505050565b60006120bc612f04565b905090565b60006120ec7fbe2bb46ac0377341a1ec5c3116d70fd5029d704bd46292e58f6265dd177ebafe6108c2565b5460405163721804d360e11b81526001600160a01b039091169150600090829063e43009a6906121209030906004016142c6565b60206040518083038186803b15801561213857600080fd5b505afa15801561214c573d6000803e3d6000fd5b505050506040513d601f19601f820116820180604052508101906121709190613daa565b90506000826001600160a01b031663e66f9603836040518263ffffffff1660e01b81526004016121a091906142af565b60206040518083038186803b1580156121b857600080fd5b505afa1580156121cc573d6000803e3d6000fd5b505050506040513d601f19601f820116820180604052508101906121f09190613762565b90506121fc8185612db7565b826001600160a01b031663e3dec8fb86308760405160200161221e91906142af565b6040516020818303038152906040526040518463ffffffff1660e01b815260040161224b939291906142da565b600060405180830381600087803b15801561226557600080fd5b505af1158015610dd4573d6000803e3d6000fd5b6060610c2f8360405160200161228f91906141e4565b6040516020818303038152906040528051906020012060001c83612f32565b60606122b985611faa565b600080876001600160a01b0316866122d38b8a8989612ff1565b6040516122e091906141e4565b60006040518083038160008787f1925050503d806000811461231e576040519150601f19603f3d011682016040523d82523d6000602084013e612323565b606091505b509092509050612334603f87614baf565b5a1161235057634e487b7160e01b600052600160045260246000fd5b61239082826040518060400160405280601a81526020017f42617365466f727761726465723a2043414c4c5f4641494c4544000000000000815250613021565b9998505050505050505050565b60006123a882611f73565b6123c45760405162461bcd60e51b81526004016108ec9061473a565b60006123cf8361112e565b9050806001600160a01b0316846001600160a01b0316148061240a5750836001600160a01b03166123ff846108c5565b6001600160a01b0316145b80610b635750610b638185611cda565b6124238161305a565b60405160200161243391906142af565b60408051601f198184030181528282528051602091820120600085815260cb9092529181209190915582917f185c30856dadb58bf097c1f665a52ada7029752dbcad008ea3fefc73bee8c9fe9190a250565b826001600160a01b03166124988261112e565b6001600160a01b0316146124be5760405162461bcd60e51b81526004016108ec90614a04565b6001600160a01b0382166124e45760405162461bcd60e51b81526004016108ec90614636565b6124ef83838361095e565b6124fa600082612db7565b6001600160a01b0383166000908152606860205260408120805460019290612523908490614bc3565b90915550506001600160a01b0382166000908152606860205260408120805460019290612551908490614b97565b909155505060008181526067602052604080822080546001600160a01b0319166001600160a01b0386811691821790925591518493918716917fddf252ad1be2c89b69c2b068fc378daa952ba7f163c4a11628f55a4df523b3ef91a4505050565b60005b8481101561104b5761261f8686838181106125e057634e487b7160e01b600052603260045260246000fd5b9050602002013585858481811061260757634e487b7160e01b600052603260045260246000fd5b90506020028101906126199190614b53565b8561284c565b8061262981614cc9565b9150506125b5565b6060600061265c86805190602001203061010060008981526020019081526020016000205487613086565b905061266c813087868a896122ae565b9695505050505050565b60006126818261112e565b905061268f8160008461095e565b61269a600083612db7565b6001600160a01b03811660009081526068602052604081208054600192906126c3908490614bc3565b909155505060008281526067602052604080822080546001600160a01b0319169055518391906001600160a01b038416907fddf252ad1be2c89b69c2b068fc378daa952ba7f163c4a11628f55a4df523b3ef908390a45050565b612760898989898080601f016020809104026020016040519081016040528093929190818152602001838380828437600092019190915250879250612ad0915050565b610dd4858585858c612a46565b6000858560405160200161278292919061423f565b60408051601f198184030181528282528051602091820120601f89018290048202840182019092528783529092506127d691839189908990819084018382808284376000920191909152506128bc92505050565b61104b8187878080601f01602080910402602001604051908101604052809392919081815260200183838082843760009201919091525050604080516020601f8b0181900481028201810190925289815292508991508890819084018382808284376000920191909152508892506130ce915050565b61285584613209565b6128715760405162461bcd60e51b81526004016108ec906145c8565b6115c38461287e86611925565b85858080601f0160208091040260200160405190810160405280939291908181526020018383808284376000920191909152508792506130ce915050565b6128c582613209565b6111ae57600082815260c960209081526040909120825161095e9284019061359d565b6060806128f484611925565b91506129008484612f32565b90509250929050565b600081516000141561292d5760405162461bcd60e51b81526004016108ec90614b24565b828260405160200161293f91906141e4565b604051602081830303815290604052805190602001206040516020016129669291906142b8565b60408051601f1981840301815291905280516020909101209392505050565b6040808401519051636ccbae5f60e01b815260009182913091636ccbae5f916129b191906004016142af565b60206040518083038186803b1580156129c957600080fd5b505afa1580156129dd573d6000803e3d6000fd5b505050506040513d601f19601f82011682018060405250810190612a019190613daa565b90506000612a1c866060015180519060200120868487613086565b905085602001518214801561266c575085516001600160a01b038281169116149695505050505050565b60005b8481101561104b57612abe868683818110612a7457634e487b7160e01b600052603260045260246000fd5b9050602002810190612a869190614b53565b868685818110612aa657634e487b7160e01b600052603260045260246000fd5b9050602002810190612ab89190614b53565b8661276d565b80612ac881614cc9565b915050612a49565b612adb84848361322f565b827fc5beef08f693b11c316c0c8394a377a0033c9cf701b8cd8afd79cecef60c395283604051612b0b919061444c565b60405180910390a250505050565b612b24848484612485565b612b3084848484613262565b6115c35760405162461bcd60e51b81526004016108ec90614576565b600054610100900460ff1680612b65575060005460ff16155b612b815760405162461bcd60e51b81526004016108ec906148ad565b600054610100900460ff16158015612bac576000805460ff1961ff0019909116610100171660011790555b8251612bbf90606590602086019061359d565b508151612bd390606690602085019061359d565b50801561095e576000805461ff0019169055505050565b600054610100900460ff1680612c03575060005460ff16155b612c1f5760405162461bcd60e51b81526004016108ec906148ad565b600054610100900460ff16158015612c4a576000805460ff1961ff0019909116610100171660011790555b8015611091576000805461ff001916905550565b6060610133805461084190614c8e565b606081612c9357506040805180820190915260018152600360fc1b602082015261082d565b8160005b8115612cbd5780612ca781614cc9565b9150612cb69050600a83614baf565b9150612c97565b6000816001600160401b03811115612ce557634e487b7160e01b600052604160045260246000fd5b6040519080825280601f01601f191660200182016040528015612d0f576020820181803683370190505b5090505b8415610b6357612d24600183614bc3565b9150612d31600a86614ce4565b612d3c906030614b97565b60f81b818381518110612d5f57634e487b7160e01b600052603260045260246000fd5b60200101906001600160f81b031916908160001a905350612d81600a86614baf565b9450612d13565b612d918161241a565b610cbb8585858585612a46565b6001600160e01b031981166301ffc9a760e01b14919050565b600081815260696020526040902080546001600160a01b0319166001600160a01b0384169081179091558190612dec8261112e565b6001600160a01b03167f8c5be1e5ebec7d5bd14f71427d1e84f3dd0314c0f7b2291e5b200ac8c7c3b92560405160405180910390a45050565b6001600160a01b038216612e4b5760405162461bcd60e51b81526004016108ec9061493d565b612e5481611f73565b15612e715760405162461bcd60e51b81526004016108ec906145ff565b612e7d6000838361095e565b6001600160a01b0382166000908152606860205260408120805460019290612ea6908490614b97565b909155505060008181526067602052604080822080546001600160a01b0319166001600160a01b03861690811790915590518392907fddf252ad1be2c89b69c2b068fc378daa952ba7f163c4a11628f55a4df523b3ef908290a45050565b6000612f0f33611094565b15612f23575060331936013560601c6108c2565b612f2b61337a565b90506108c2565b606060ca6000612f418461305a565b815260200190815260200160002060008481526020019081526020016000208054612f6b90614c8e565b80601f0160208091040260200160405190810160405280929190818152602001828054612f9790614c8e565b8015612fe45780601f10612fb957610100808354040283529160200191612fe4565b820191906000526020600020905b815481529060010190602001808311612fc757829003601f168201915b5050505050905092915050565b606082858560405160200161300893929190614200565b6040516020818303038152906040529050949350505050565b60608315613030575081610c2f565b8251156130405782518084602001fd5b8160405162461bcd60e51b81526004016108ec919061444c565b600081815260cb60205260408120541561308257600082815260cb602052604090205461082a565b5090565b60006130c5826130bf8787876040516020016130a4939291906141bc565b6040516020818303038152906040528051906020012061337e565b906133ae565b95945050505050565b60ca60006130db8361305a565b81526020019081526020016000206000858152602001908152602001600020805461310590614c8e565b1515905061315c578260405161311b91906141e4565b6040518091039020817f7ae4f661958fbecc2f77be6b0eb280d2a6f604b29e1e7221c82b9da0c4af7f8685604051613153919061444c565b60405180910390a35b8160ca600061316a8461305a565b81526020019081526020016000206000868152602001908152602001600020908051906020019061319c92919061359d565b50816040516131ab91906141e4565b6040518091039020836040516131c191906141e4565b6040518091039020827f851ffe8e74d5015261dba0a1f9e1b0e5d42c5af5d2ad1908fee897c7d80a0d9286866040516131fb92919061449a565b60405180910390a450505050565b600081815260c960205260408120805482919061322590614c8e565b9050119050919050565b6132398383612e25565b6132466000848484613262565b61095e5760405162461bcd60e51b81526004016108ec90614576565b6000613276846001600160a01b031661342a565b1561337257836001600160a01b031663150b7a026132926120b2565b8786866040518563ffffffff1660e01b81526004016132b49493929190614369565b602060405180830381600087803b1580156132ce57600080fd5b505af19250505080156132fe575060408051601f3d908101601f191682019092526132fb91810190613dde565b60015b613358573d80801561332c576040519150601f19603f3d011682016040523d82523d6000602084013e613331565b606091505b5080516133505760405162461bcd60e51b81526004016108ec90614576565b805181602001fd5b6001600160e01b031916630a85bd0160e11b149050610b63565b506001610b63565b3390565b600081604051602001613391919061427e565b604051602081830303815290604052805190602001209050919050565b6000806000808451604114156133d85750505060208201516040830151606084015160001a61341e565b8451604014156134065750505060408201516020830151906001600160ff1b0381169060ff1c601b0161341e565b60405162461bcd60e51b81526004016108ec906144f6565b61266c86828585613430565b3b151590565b60007f7fffffffffffffffffffffffffffffff5d576e7357a4501ddfe92f46681b20a08211156134725760405162461bcd60e51b81526004016108ec906146b1565b8360ff16601b148061348757508360ff16601c145b6134a35760405162461bcd60e51b81526004016108ec906148fb565b6000600186868686604051600081526020016040526040516134c89493929190614419565b6020604051602081039080840390855afa1580156134ea573d6000803e3d6000fd5b5050604051601f1901519150506001600160a01b0381166130c55760405162461bcd60e51b81526004016108ec906144bf565b82805461352990614c8e565b90600052602060002090601f01602090048101928261354b5760008555613591565b82601f106135645782800160ff19823516178555613591565b82800160010185558215613591579182015b82811115613591578235825591602001919060010190613576565b50613082929150613611565b8280546135a990614c8e565b90600052602060002090601f0160209004810192826135cb5760008555613591565b82601f106135e457805160ff1916838001178555613591565b82800160010185558215613591579182015b828111156135915782518255916020019190600101906135f6565b5b808211156130825760008155600101613612565b60006001600160401b038084111561364057613640614d24565b604051601f8501601f19168101602001828111828210171561366457613664614d24565b60405284815291508183850186101561367c57600080fd5b8484602083013760006020868301015250509392505050565b803561082d81614d3a565b60008083601f8401126136b1578182fd5b5081356001600160401b038111156136c7578182fd5b60208301915083602080830285010111156136e157600080fd5b9250929050565b60008083601f8401126136f9578182fd5b5081356001600160401b0381111561370f578182fd5b6020830191508360208285010111156136e157600080fd5b600082601f830112613737578081fd5b610c2f83833560208501613626565b600060208284031215613757578081fd5b8135610c2f81614d3a565b600060208284031215613773578081fd5b8151610c2f81614d3a565b60008060408385031215613790578081fd5b823561379b81614d3a565b915060208301356137ab81614d3a565b809150509250929050565b6000806000606084860312156137ca578081fd5b83356137d581614d3a565b925060208401356137e581614d3a565b929592945050506040919091013590565b60008060008060006080868803121561380d578081fd5b853561381881614d3a565b9450602086013561382881614d3a565b93506040860135925060608601356001600160401b03811115613849578182fd5b613855888289016136e8565b969995985093965092949392505050565b600080600080600080600060a0888a031215613880578182fd5b873561388b81614d3a565b9650602088013561389b81614d3a565b95506040880135945060608801356001600160401b03808211156138bd578384fd5b6138c98b838c016136e8565b909650945060808a01359150808211156138e1578384fd5b506138ee8a828b016136e8565b989b979a50959850939692959293505050565b60008060008060808587031215613916578182fd5b843561392181614d3a565b9350602085013561393181614d3a565b92506040850135915060608501356001600160401b03811115613952578182fd5b61395e87828801613727565b91505092959194509250565b6000806040838503121561397c578182fd5b823561398781614d3a565b9150602083013580151581146137ab578182fd5b600080604083850312156139ad578182fd5b82356139b881614d3a565b946020939093013593505050565b600080600080606085870312156139db578182fd5b84356139e681614d3a565b93506020850135925060408501356001600160401b03811115613a07578283fd5b613a13878288016136e8565b95989497509550505050565b60008060008060008060008060a0898b031215613a3a578182fd5b8835613a4581614d3a565b97506020890135965060408901356001600160401b0380821115613a67578384fd5b613a738c838d016136e8565b909850965060608b0135915080821115613a8b578384fd5b613a978c838d016136a0565b909650945060808b0135915080821115613aaf578384fd5b50613abc8b828c016136a0565b999c989b5096995094979396929594505050565b60008060008060008060008060008060c08b8d031215613aee578384fd5b613af78b613695565b995060208b0135985060408b01356001600160401b0380821115613b19578586fd5b613b258e838f016136e8565b909a50985060608d0135915080821115613b3d578586fd5b613b498e838f016136a0565b909850965060808d0135915080821115613b61578586fd5b613b6d8e838f016136a0565b909650945060a08d0135915080821115613b85578384fd5b50613b928d828e016136e8565b915080935050809150509295989b9194979a5092959850565b60008060008060008060808789031215613bc3578384fd5b8635613bce81614d3a565b95506020870135945060408701356001600160401b0380821115613bf0578586fd5b613bfc8a838b016136e8565b90965094506060890135915080821115613c14578384fd5b50613c2189828a016136e8565b979a9699509497509295939492505050565b600080600080600060608688031215613c4a578283fd5b85356001600160401b0380821115613c60578485fd5b613c6c89838a016136a0565b90975095506020880135915080821115613c84578485fd5b50613c91888289016136a0565b96999598509660400135949350505050565b60008060008060008060006080888a031215613cbd578081fd5b87356001600160401b0380821115613cd3578283fd5b613cdf8b838c016136a0565b909950975060208a0135915080821115613cf7578283fd5b613d038b838c016136a0565b909750955060408a0135945060608a01359150808211156138e1578283fd5b600080600060408486031215613d36578081fd5b83356001600160401b03811115613d4b578182fd5b613d57868287016136a0565b909790965060209590950135949350505050565b60008060208385031215613d7d578182fd5b82356001600160401b03811115613d92578283fd5b613d9e858286016136a0565b90969095509350505050565b600060208284031215613dbb578081fd5b5051919050565b600060208284031215613dd3578081fd5b8135610c2f81614d4f565b600060208284031215613def578081fd5b8151610c2f81614d4f565b60008060208385031215613e0c578182fd5b82356001600160401b03811115613e21578283fd5b613d9e858286016136e8565b600080600080600060608688031215613e44578283fd5b85356001600160401b0380821115613e5a578485fd5b613e6689838a016136e8565b90975095506020880135915080821115613e7e578485fd5b50613c91888289016136e8565b60008060008060008060006080888a031215613ea5578081fd5b87356001600160401b0380821115613ebb578283fd5b613ec78b838c016136e8565b909950975060208a0135915080821115613edf578283fd5b613d038b838c016136e8565b600080600060408486031215613eff578081fd5b83356001600160401b03811115613f14578182fd5b613d57868287016136e8565b600060208284031215613f31578081fd5b81356001600160401b03811115613f46578182fd5b8201601f81018413613f56578182fd5b610b6384823560208401613626565b600080600060408486031215613f79578081fd5b83356001600160401b0380821115613f8f578283fd5b9085019060808288031215613fa2578283fd5b90935060208501359080821115613fb7578283fd5b50613fc4868287016136e8565b9497909650939450505050565b600060208284031215613fe2578081fd5b5035919050565b600080600060408486031215613ffd578081fd5b8335925060208401356001600160401b03811115614019578182fd5b613fc4868287016136e8565b6000806000806060858703121561403a578182fd5b8435935060208501356001600160401b03811115614056578283fd5b614062878288016136e8565b9598909750949560400135949350505050565b60008060408385031215614087578182fd5b50508035926020909101359150565b818352602080840193600091908185020181018584845b878110156141135782840389528135601e198836030181126140cd578687fd5b870180356001600160401b038111156140e4578788fd5b8036038913156140f2578788fd5b6140ff8682898501614166565b9a87019a95505050908401906001016140ad565b5091979650505050505050565b6000815180845260208085018081965082840281019150828601855b85811015614113578284038952614154848351614190565b9885019893509084019060010161413c565b60008284528282602086013780602084860101526020601f19601f85011685010190509392505050565b600081518084526141a8816020860160208601614c62565b601f01601f19169290920160200192915050565b92835260609190911b6bffffffffffffffffffffffff19166020830152603482015260540190565b600082516141f6818460208701614c62565b9190910192915050565b60008451614212818460208901614c62565b60609490941b6bffffffffffffffffffffffff191691909301908152601481019190915260340192915050565b6000828483379101908152919050565b60008351614261818460208801614c62565b835190830190614275818360208801614c62565b01949350505050565b7f19457468657265756d205369676e6564204d6573736167653a0a3332000000008152601c810191909152603c0190565b90815260200190565b918252602082015260400190565b6001600160a01b0391909116815260200190565b6001600160a01b038481168252831660208201526060604082018190526000906130c590830184614190565b6001600160a01b039384168152919092166020820152604081019190915260600190565b6001600160a01b038681168252851660208201526040810184905260806060820181905260009061435e9083018486614166565b979650505050505050565b6001600160a01b038581168252841660208201526040810183905260806060820181905260009061266c90830184614190565b6000606082526143b0606083018789614096565b82810360208401526143c3818688614096565b9150508260408301529695505050505050565b600060208252610c2f6020830184614120565b6000604082526143fc6040830185614120565b8281036020840152610c2b8185614120565b901515815260200190565b93845260ff9290921660208401526040830152606082015260800190565b6001600160e01b031991909116815260200190565b600060208252610c2f6020830184614190565b600060208252610b63602083018486614166565b600060608252614487606083018789614166565b82810360208401526143c3818688614166565b6000604082526144ad6040830185614190565b8281036020840152610c2b8185614190565b60208082526018908201527f45434453413a20696e76616c6964207369676e61747572650000000000000000604082015260600190565b6020808252601f908201527f45434453413a20696e76616c6964207369676e6174757265206c656e67746800604082015260600190565b60208082526029908201527f52656769737472793a2053454e4445525f49535f4e4f545f415050524f5645446040820152682fa7a92fa7aba722a960b91b606082015260800190565b60208082526032908201527f4552433732313a207472616e7366657220746f206e6f6e20455243373231526560408201527131b2b4bb32b91034b6b83632b6b2b73a32b960711b606082015260800190565b6020808252601c908201527f5265636f726453746f726167653a204b45595f4e4f545f464f554e4400000000604082015260600190565b6020808252601c908201527f4552433732313a20746f6b656e20616c7265616479206d696e74656400000000604082015260600190565b60208082526024908201527f4552433732313a207472616e7366657220746f20746865207a65726f206164646040820152637265737360e01b606082015260800190565b60208082526019908201527f4552433732313a20617070726f766520746f2063616c6c657200000000000000604082015260600190565b60208082526022908201527f45434453413a20696e76616c6964207369676e6174757265202773272076616c604082015261756560f01b606082015260800190565b60208082526027908201527f52656769737472793a2053454e4445525f49535f4e4f545f4d494e54494e475f60408201526626a0a720a3a2a960c91b606082015260800190565b6020808252602c908201527f4552433732313a206f70657261746f7220717565727920666f72206e6f6e657860408201526b34b9ba32b73a103a37b5b2b760a11b606082015260800190565b60208082526017908201527f52656769737472793a20544f4b454e5f494e56414c4944000000000000000000604082015260600190565b60208082526038908201527f4552433732313a20617070726f76652063616c6c6572206973206e6f74206f7760408201527f6e6572206e6f7220617070726f76656420666f7220616c6c0000000000000000606082015260800190565b6020808252602a908201527f4552433732313a2062616c616e636520717565727920666f7220746865207a65604082015269726f206164647265737360b01b606082015260800190565b60208082526029908201527f4552433732313a206f776e657220717565727920666f72206e6f6e657869737460408201526832b73a103a37b5b2b760b91b606082015260800190565b6020808252602e908201527f496e697469616c697a61626c653a20636f6e747261637420697320616c72656160408201526d191e481a5b9a5d1a585b1a5e995960921b606082015260800190565b60208082526022908201527f45434453413a20696e76616c6964207369676e6174757265202776272076616c604082015261756560f01b606082015260800190565b6020808252818101527f4552433732313a206d696e7420746f20746865207a65726f2061646472657373604082015260600190565b6020808252602c908201527f4552433732313a20617070726f76656420717565727920666f72206e6f6e657860408201526b34b9ba32b73a103a37b5b2b760a11b606082015260800190565b60208082526026908201527f52656769737472793a20524f4f545f434841494e5f4d414e454745525f4e4f546040820152655f454d50545960d01b606082015260800190565b60208082526029908201527f4552433732313a207472616e73666572206f6620746f6b656e2074686174206960408201526839903737ba1037bbb760b91b606082015260800190565b6020808252602f908201527f4552433732314d657461646174613a2055524920717565727920666f72206e6f60408201526e3732bc34b9ba32b73a103a37b5b2b760891b606082015260800190565b60208082526027908201527f554e535265676973747279466f727761726465723a205349474e41545552455f6040820152661253959053125160ca1b606082015260800190565b60208082526021908201527f4552433732313a20617070726f76616c20746f2063757272656e74206f776e656040820152603960f91b606082015260800190565b60208082526015908201527452656769737472793a204c4142454c5f454d50545960581b604082015260600190565b6000808335601e19843603018112614b69578283fd5b8301803591506001600160401b03821115614b82578283fd5b6020019150368190038213156136e157600080fd5b60008219821115614baa57614baa614cf8565b500190565b600082614bbe57614bbe614d0e565b500490565b600082821015614bd557614bd5614cf8565b500390565b600060808236031215614beb578081fd5b604051608081016001600160401b038282108183111715614c0e57614c0e614d24565b8160405284359150614c1f82614d3a565b81835260208501356020840152604085013560408401526060850135915080821115614c49578384fd5b50614c5636828601613727565b60608301525092915050565b60005b83811015614c7d578181015183820152602001614c65565b838111156115c35750506000910152565b600281046001821680614ca257607f821691505b60208210811415614cc357634e487b7160e01b600052602260045260246000fd5b50919050565b6000600019821415614cdd57614cdd614cf8565b5060010190565b600082614cf357614cf3614d0e565b500690565b634e487b7160e01b600052601160045260246000fd5b634e487b7160e01b600052601260045260246000fd5b634e487b7160e01b600052604160045260246000fd5b6001600160a01b038116811461109157600080fd5b6001600160e01b03198116811461109157600080fdfea164736f6c6343000800000a",
  "linkReferences": {},
  "deployedLinkReferences": {}
}