{
  "_format": "hh-sol-artifact-1",
  "contractName": "UNSRegistry",
  "sourceName": "contracts/UNSRegistry.sol",
  "abi": [
    {
      "anonymous": false,
      "inputs": [
        {
          "indexed": false,
          "internalType": "address",
          "name": "previousAdmin",
          "type": "address"
        },
        {
          "indexed": false,
          "internalType": "address",
          "name": "newAdmin",
          "type": "address"
        }
      ],
      "name": "AdminChanged",
      "type": "event"
    },
    {
      "anonymous": false,
      "inputs": [
        {
          "indexed": true,
          "internalType": "address",
          "name": "owner",
          "type": "address"
        },
        {
          "indexed": true,
          "internalType": "address",
          "name": "approved",
          "type": "address"
        },
        {
          "indexed": true,
          "internalType": "uint256",
          "name": "tokenId",
          "type": "uint256"
        }
      ],
      "name": "Approval",
      "type": "event"
    },
    {
      "anonymous": false,
      "inputs": [
        {
          "indexed": true,
          "internalType": "address",
          "name": "owner",
          "type": "address"
        },
        {
          "indexed": true,
          "internalType": "address",
          "name": "operator",
          "type": "address"
        },
        {
          "indexed": false,
          "internalType": "bool",
          "name": "approved",
          "type": "bool"
        }
      ],
      "name": "ApprovalForAll",
      "type": "event"
    },
    {
      "anonymous": false,
      "inputs": [
        {
          "indexed": true,
          "internalType": "uint256",
          "name": "tokenId",
          "type": "uint256"
        },
        {
          "indexed": true,
          "internalType": "string",
          "name": "keyIndex",
          "type": "string"
        },
        {
          "indexed": false,
          "internalType": "string",
          "name": "key",
          "type": "string"
        }
      ],
      "name": "NewKey",
      "type": "event"
    },
    {
      "anonymous": false,
      "inputs": [
        {
          "indexed": true,
          "internalType": "uint256",
          "name": "tokenId",
          "type": "uint256"
        },
        {
          "indexed": false,
          "internalType": "string",
          "name": "uri",
          "type": "string"
        }
      ],
      "name": "NewURI",
      "type": "event"
    },
    {
      "anonymous": false,
      "inputs": [
        {
          "indexed": false,
          "internalType": "string",
          "name": "prefix",
          "type": "string"
        }
      ],
      "name": "NewURIPrefix",
      "type": "event"
    },
    {
      "anonymous": false,
      "inputs": [
        {
          "indexed": true,
          "internalType": "address",
          "name": "addr",
          "type": "address"
        }
      ],
      "name": "RemoveReverse",
      "type": "event"
    },
    {
      "anonymous": false,
      "inputs": [
        {
          "indexed": true,
          "internalType": "uint256",
          "name": "tokenId",
          "type": "uint256"
        }
      ],
      "name": "ResetRecords",
      "type": "event"
    },
    {
      "anonymous": false,
      "inputs": [
        {
          "indexed": true,
          "internalType": "uint256",
          "name": "tokenId",
          "type": "uint256"
        },
        {
          "indexed": true,
          "internalType": "string",
          "name": "keyIndex",
          "type": "string"
        },
        {
          "indexed": true,
          "internalType": "string",
          "name": "valueIndex",
          "type": "string"
        },
        {
          "indexed": false,
          "internalType": "string",
          "name": "key",
          "type": "string"
        },
        {
          "indexed": false,
          "internalType": "string",
          "name": "value",
          "type": "string"
        }
      ],
      "name": "Set",
      "type": "event"
    },
    {
      "anonymous": false,
      "inputs": [
        {
          "indexed": true,
          "internalType": "address",
          "name": "addr",
          "type": "address"
        },
        {
          "indexed": true,
          "internalType": "uint256",
          "name": "tokenId",
          "type": "uint256"
        }
      ],
      "name": "SetReverse",
      "type": "event"
    },
    {
      "anonymous": false,
      "inputs": [
        {
          "indexed": true,
          "internalType": "address",
          "name": "from",
          "type": "address"
        },
        {
          "indexed": true,
          "internalType": "address",
          "name": "to",
          "type": "address"
        },
        {
          "indexed": true,
          "internalType": "uint256",
          "name": "tokenId",
          "type": "uint256"
        }
      ],
      "name": "Transfer",
      "type": "event"
    },
    {
      "anonymous": false,
      "inputs": [
        {
          "indexed": true,
          "internalType": "address",
          "name": "implementation",
          "type": "address"
        }
      ],
      "name": "Upgraded",
      "type": "event"
    },
    {
      "anonymous": false,
      "inputs": [
        {
          "indexed": true,
          "internalType": "address",
          "name": "user",
          "type": "address"
        },
        {
          "indexed": false,
          "internalType": "uint256[]",
          "name": "tokenIds",
          "type": "uint256[]"
        }
      ],
      "name": "WithdrawnBatch",
      "type": "event"
    },
    {
      "inputs": [],
      "name": "BATCH_LIMIT",
      "outputs": [
        {
          "internalType": "uint256",
          "name": "",
          "type": "uint256"
        }
      ],
      "stateMutability": "view",
      "type": "function"
    },
    {
      "inputs": [],
      "name": "NAME",
      "outputs": [
        {
          "internalType": "string",
          "name": "",
          "type": "string"
        }
      ],
      "stateMutability": "view",
      "type": "function"
    },
    {
      "inputs": [],
      "name": "VERSION",
      "outputs": [
        {
          "internalType": "string",
          "name": "",
          "type": "string"
        }
      ],
      "stateMutability": "view",
      "type": "function"
    },
    {
      "inputs": [
        {
          "internalType": "string",
          "name": "key",
          "type": "string"
        }
      ],
      "name": "addKey",
      "outputs": [],
      "stateMutability": "nonpayable",
      "type": "function"
    },
    {
      "inputs": [
        {
          "internalType": "address",
          "name": "to",
          "type": "address"
        },
        {
          "internalType": "uint256",
          "name": "tokenId",
          "type": "uint256"
        }
      ],
      "name": "approve",
      "outputs": [],
      "stateMutability": "nonpayable",
      "type": "function"
    },
    {
      "inputs": [
        {
          "internalType": "address",
          "name": "owner",
          "type": "address"
        }
      ],
      "name": "balanceOf",
      "outputs": [
        {
          "internalType": "uint256",
          "name": "",
          "type": "uint256"
        }
      ],
      "stateMutability": "view",
      "type": "function"
    },
    {
      "inputs": [
        {
          "internalType": "uint256",
          "name": "tokenId",
          "type": "uint256"
        }
      ],
      "name": "burn",
      "outputs": [],
      "stateMutability": "nonpayable",
      "type": "function"
    },
    {
      "inputs": [
        {
          "internalType": "uint256",
          "name": "tokenId",
          "type": "uint256"
        },
        {
          "internalType": "string",
          "name": "label",
          "type": "string"
        }
      ],
      "name": "childIdOf",
      "outputs": [
        {
          "internalType": "uint256",
          "name": "",
          "type": "uint256"
        }
      ],
      "stateMutability": "pure",
      "type": "function"
    },
    {
      "inputs": [
        {
          "internalType": "address",
          "name": "user",
          "type": "address"
        },
        {
          "internalType": "bytes",
          "name": "depositData",
          "type": "bytes"
        }
      ],
      "name": "deposit",
      "outputs": [],
      "stateMutability": "nonpayable",
      "type": "function"
    },
    {
      "inputs": [
        {
          "internalType": "uint256",
          "name": "tokenId",
          "type": "uint256"
        }
      ],
      "name": "depositToPolygon",
      "outputs": [],
      "stateMutability": "nonpayable",
      "type": "function"
    },
    {
      "inputs": [
        {
          "components": [
            {
              "internalType": "address",
              "name": "from",
              "type": "address"
            },
            {
              "internalType": "uint256",
              "name": "nonce",
              "type": "uint256"
            },
            {
              "internalType": "uint256",
              "name": "tokenId",
              "type": "uint256"
            },
            {
              "internalType": "bytes",
              "name": "data",
              "type": "bytes"
            }
          ],
          "internalType": "struct IForwarder.ForwardRequest",
          "name": "req",
          "type": "tuple"
        },
        {
          "internalType": "bytes",
          "name": "signature",
          "type": "bytes"
        }
      ],
      "name": "execute",
      "outputs": [
        {
          "internalType": "bytes",
          "name": "",
          "type": "bytes"
        }
      ],
      "stateMutability": "nonpayable",
      "type": "function"
    },
    {
      "inputs": [
        {
          "internalType": "uint256",
          "name": "tokenId",
          "type": "uint256"
        }
      ],
      "name": "exists",
      "outputs": [
        {
          "internalType": "bool",
          "name": "",
          "type": "bool"
        }
      ],
      "stateMutability": "view",
      "type": "function"
    },
    {
      "inputs": [
        {
          "internalType": "string",
          "name": "key",
          "type": "string"
        },
        {
          "internalType": "uint256",
          "name": "tokenId",
          "type": "uint256"
        }
      ],
      "name": "get",
      "outputs": [
        {
          "internalType": "string",
          "name": "value",
          "type": "string"
        }
      ],
      "stateMutability": "view",
      "type": "function"
    },
    {
      "inputs": [
        {
          "internalType": "uint256",
          "name": "tokenId",
          "type": "uint256"
        }
      ],
      "name": "getApproved",
      "outputs": [
        {
          "internalType": "address",
          "name": "",
          "type": "address"
        }
      ],
      "stateMutability": "view",
      "type": "function"
    },
    {
      "inputs": [
        {
          "internalType": "uint256",
          "name": "keyHash",
          "type": "uint256"
        },
        {
          "internalType": "uint256",
          "name": "tokenId",
          "type": "uint256"
        }
      ],
      "name": "getByHash",
      "outputs": [
        {
          "internalType": "string",
          "name": "key",
          "type": "string"
        },
        {
          "internalType": "string",
          "name": "value",
          "type": "string"
        }
      ],
      "stateMutability": "view",
      "type": "function"
    },
    {
      "inputs": [
        {
          "internalType": "uint256",
          "name": "keyHash",
          "type": "uint256"
        }
      ],
      "name": "getKey",
      "outputs": [
        {
          "internalType": "string",
          "name": "",
          "type": "string"
        }
      ],
      "stateMutability": "view",
      "type": "function"
    },
    {
      "inputs": [
        {
          "internalType": "uint256[]",
          "name": "hashes",
          "type": "uint256[]"
        }
      ],
      "name": "getKeys",
      "outputs": [
        {
          "internalType": "string[]",
          "name": "values",
          "type": "string[]"
        }
      ],
      "stateMutability": "view",
      "type": "function"
    },
    {
      "inputs": [
        {
          "internalType": "string[]",
          "name": "keys",
          "type": "string[]"
        },
        {
          "internalType": "uint256",
          "name": "tokenId",
          "type": "uint256"
        }
      ],
      "name": "getMany",
      "outputs": [
        {
          "internalType": "string[]",
          "name": "values",
          "type": "string[]"
        }
      ],
      "stateMutability": "view",
      "type": "function"
    },
    {
      "inputs": [
        {
          "internalType": "uint256[]",
          "name": "keyHashes",
          "type": "uint256[]"
        },
        {
          "internalType": "uint256",
          "name": "tokenId",
          "type": "uint256"
        }
      ],
      "name": "getManyByHash",
      "outputs": [
        {
          "internalType": "string[]",
          "name": "keys",
          "type": "string[]"
        },
        {
          "internalType": "string[]",
          "name": "values",
          "type": "string[]"
        }
      ],
      "stateMutability": "view",
      "type": "function"
    },
    {
      "inputs": [
        {
          "internalType": "address",
          "name": "mintingManager",
          "type": "address"
        }
      ],
      "name": "initialize",
      "outputs": [],
      "stateMutability": "nonpayable",
      "type": "function"
    },
    {
      "inputs": [
        {
          "internalType": "address",
          "name": "owner",
          "type": "address"
        },
        {
          "internalType": "address",
          "name": "operator",
          "type": "address"
        }
      ],
      "name": "isApprovedForAll",
      "outputs": [
        {
          "internalType": "bool",
          "name": "",
          "type": "bool"
        }
      ],
      "stateMutability": "view",
      "type": "function"
    },
    {
      "inputs": [
        {
          "internalType": "address",
          "name": "spender",
          "type": "address"
        },
        {
          "internalType": "uint256",
          "name": "tokenId",
          "type": "uint256"
        }
      ],
      "name": "isApprovedOrOwner",
      "outputs": [
        {
          "internalType": "bool",
          "name": "",
          "type": "bool"
        }
      ],
      "stateMutability": "view",
      "type": "function"
    },
    {
      "inputs": [
        {
          "internalType": "address",
          "name": "forwarder",
          "type": "address"
        }
      ],
      "name": "isTrustedForwarder",
      "outputs": [
        {
          "internalType": "bool",
          "name": "",
          "type": "bool"
        }
      ],
      "stateMutability": "view",
      "type": "function"
    },
    {
      "inputs": [
        {
          "internalType": "address",
          "name": "user",
          "type": "address"
        },
        {
          "internalType": "uint256",
          "name": "tokenId",
          "type": "uint256"
        }
      ],
      "name": "mint",
      "outputs": [],
      "stateMutability": "nonpayable",
      "type": "function"
    },
    {
      "inputs": [
        {
          "internalType": "address",
          "name": "user",
          "type": "address"
        },
        {
          "internalType": "uint256",
          "name": "tokenId",
          "type": "uint256"
        },
        {
          "internalType": "bytes",
          "name": "",
          "type": "bytes"
        }
      ],
      "name": "mint",
      "outputs": [],
      "stateMutability": "nonpayable",
      "type": "function"
    },
    {
      "inputs": [
        {
          "internalType": "address",
          "name": "to",
          "type": "address"
        },
        {
          "internalType": "uint256",
          "name": "tokenId",
          "type": "uint256"
        },
        {
          "internalType": "string",
          "name": "uri",
          "type": "string"
        }
      ],
      "name": "mint",
      "outputs": [],
      "stateMutability": "nonpayable",
      "type": "function"
    },
    {
      "inputs": [
        {
          "internalType": "address",
          "name": "to",
          "type": "address"
        },
        {
          "internalType": "uint256",
          "name": "tokenId",
          "type": "uint256"
        },
        {
          "internalType": "string",
          "name": "uri",
          "type": "string"
        },
        {
          "internalType": "string[]",
          "name": "keys",
          "type": "string[]"
        },
        {
          "internalType": "string[]",
          "name": "values",
          "type": "string[]"
        }
      ],
      "name": "mintWithRecords",
      "outputs": [],
      "stateMutability": "nonpayable",
      "type": "function"
    },
    {
      "inputs": [],
      "name": "name",
      "outputs": [
        {
          "internalType": "string",
          "name": "",
          "type": "string"
        }
      ],
      "stateMutability": "view",
      "type": "function"
    },
    {
      "inputs": [
        {
          "internalType": "uint256",
          "name": "tokenId",
          "type": "uint256"
        }
      ],
      "name": "nonceOf",
      "outputs": [
        {
          "internalType": "uint256",
          "name": "",
          "type": "uint256"
        }
      ],
      "stateMutability": "view",
      "type": "function"
    },
    {
      "inputs": [
        {
          "internalType": "address",
          "name": "",
          "type": "address"
        },
        {
          "internalType": "address",
          "name": "from",
          "type": "address"
        },
        {
          "internalType": "uint256",
          "name": "tokenId",
          "type": "uint256"
        },
        {
          "internalType": "bytes",
          "name": "data",
          "type": "bytes"
        }
      ],
      "name": "onERC721Received",
      "outputs": [
        {
          "internalType": "bytes4",
          "name": "",
          "type": "bytes4"
        }
      ],
      "stateMutability": "nonpayable",
      "type": "function"
    },
    {
      "inputs": [
        {
          "internalType": "uint256",
          "name": "tokenId",
          "type": "uint256"
        }
      ],
      "name": "ownerOf",
      "outputs": [
        {
          "internalType": "address",
          "name": "",
          "type": "address"
        }
      ],
      "stateMutability": "view",
      "type": "function"
    },
    {
      "inputs": [
        {
          "internalType": "string[]",
          "name": "keys",
          "type": "string[]"
        },
        {
          "internalType": "string[]",
          "name": "values",
          "type": "string[]"
        },
        {
          "internalType": "uint256",
          "name": "tokenId",
          "type": "uint256"
        }
      ],
      "name": "reconfigure",
      "outputs": [],
      "stateMutability": "nonpayable",
      "type": "function"
    },
    {
      "inputs": [],
      "name": "removeReverse",
      "outputs": [],
      "stateMutability": "nonpayable",
      "type": "function"
    },
    {
      "inputs": [
        {
          "internalType": "uint256",
          "name": "tokenId",
          "type": "uint256"
        }
      ],
      "name": "reset",
      "outputs": [],
      "stateMutability": "nonpayable",
      "type": "function"
    },
    {
      "inputs": [
        {
          "internalType": "uint256",
          "name": "tokenId",
          "type": "uint256"
        }
      ],
      "name": "resolverOf",
      "outputs": [
        {
          "internalType": "address",
          "name": "",
          "type": "address"
        }
      ],
      "stateMutability": "view",
      "type": "function"
    },
    {
      "inputs": [
        {
          "internalType": "address",
          "name": "addr",
          "type": "address"
        }
      ],
      "name": "reverseOf",
      "outputs": [
        {
          "internalType": "uint256",
          "name": "",
          "type": "uint256"
        }
      ],
      "stateMutability": "view",
      "type": "function"
    },
    {
      "inputs": [],
      "name": "root",
      "outputs": [
        {
          "internalType": "uint256",
          "name": "",
          "type": "uint256"
        }
      ],
      "stateMutability": "pure",
      "type": "function"
    },
    {
      "inputs": [
        {
          "internalType": "address",
          "name": "to",
          "type": "address"
        },
        {
          "internalType": "uint256",
          "name": "tokenId",
          "type": "uint256"
        },
        {
          "internalType": "string",
          "name": "uri",
          "type": "string"
        },
        {
          "internalType": "bytes",
          "name": "data",
          "type": "bytes"
        }
      ],
      "name": "safeMint",
      "outputs": [],
      "stateMutability": "nonpayable",
      "type": "function"
    },
    {
      "inputs": [
        {
          "internalType": "address",
          "name": "to",
          "type": "address"
        },
        {
          "internalType": "uint256",
          "name": "tokenId",
          "type": "uint256"
        },
        {
          "internalType": "string",
          "name": "uri",
          "type": "string"
        }
      ],
      "name": "safeMint",
      "outputs": [],
      "stateMutability": "nonpayable",
      "type": "function"
    },
    {
      "inputs": [
        {
          "internalType": "address",
          "name": "to",
          "type": "address"
        },
        {
          "internalType": "uint256",
          "name": "tokenId",
          "type": "uint256"
        },
        {
          "internalType": "string",
          "name": "uri",
          "type": "string"
        },
        {
          "internalType": "string[]",
          "name": "keys",
          "type": "string[]"
        },
        {
          "internalType": "string[]",
          "name": "values",
          "type": "string[]"
        }
      ],
      "name": "safeMintWithRecords",
      "outputs": [],
      "stateMutability": "nonpayable",
      "type": "function"
    },
    {
      "inputs": [
        {
          "internalType": "address",
          "name": "to",
          "type": "address"
        },
        {
          "internalType": "uint256",
          "name": "tokenId",
          "type": "uint256"
        },
        {
          "internalType": "string",
          "name": "uri",
          "type": "string"
        },
        {
          "internalType": "string[]",
          "name": "keys",
          "type": "string[]"
        },
        {
          "internalType": "string[]",
          "name": "values",
          "type": "string[]"
        },
        {
          "internalType": "bytes",
          "name": "data",
          "type": "bytes"
        }
      ],
      "name": "safeMintWithRecords",
      "outputs": [],
      "stateMutability": "nonpayable",
      "type": "function"
    },
    {
      "inputs": [
        {
          "internalType": "address",
          "name": "from",
          "type": "address"
        },
        {
          "internalType": "address",
          "name": "to",
          "type": "address"
        },
        {
          "internalType": "uint256",
          "name": "tokenId",
          "type": "uint256"
        }
      ],
      "name": "safeTransferFrom",
      "outputs": [],
      "stateMutability": "nonpayable",
      "type": "function"
    },
    {
      "inputs": [
        {
          "internalType": "address",
          "name": "from",
          "type": "address"
        },
        {
          "internalType": "address",
          "name": "to",
          "type": "address"
        },
        {
          "internalType": "uint256",
          "name": "tokenId",
          "type": "uint256"
        },
        {
          "internalType": "bytes",
          "name": "data",
          "type": "bytes"
        }
      ],
      "name": "safeTransferFrom",
      "outputs": [],
      "stateMutability": "nonpayable",
      "type": "function"
    },
    {
      "inputs": [
        {
          "internalType": "string",
          "name": "key",
          "type": "string"
        },
        {
          "internalType": "string",
          "name": "value",
          "type": "string"
        },
        {
          "internalType": "uint256",
          "name": "tokenId",
          "type": "uint256"
        }
      ],
      "name": "set",
      "outputs": [],
      "stateMutability": "nonpayable",
      "type": "function"
    },
    {
      "inputs": [
        {
          "internalType": "address",
          "name": "operator",
          "type": "address"
        },
        {
          "internalType": "bool",
          "name": "approved",
          "type": "bool"
        }
      ],
      "name": "setApprovalForAll",
      "outputs": [],
      "stateMutability": "nonpayable",
      "type": "function"
    },
    {
      "inputs": [
        {
          "internalType": "uint256",
          "name": "keyHash",
          "type": "uint256"
        },
        {
          "internalType": "string",
          "name": "value",
          "type": "string"
        },
        {
          "internalType": "uint256",
          "name": "tokenId",
          "type": "uint256"
        }
      ],
      "name": "setByHash",
      "outputs": [],
      "stateMutability": "nonpayable",
      "type": "function"
    },
    {
      "inputs": [
        {
          "internalType": "address",
          "name": "registry",
          "type": "address"
        }
      ],
      "name": "setCNSRegistry",
      "outputs": [],
      "stateMutability": "nonpayable",
      "type": "function"
    },
    {
      "inputs": [
        {
          "internalType": "address",
          "name": "clientChainManager",
          "type": "address"
        }
      ],
      "name": "setChildChainManager",
      "outputs": [],
      "stateMutability": "nonpayable",
      "type": "function"
    },
    {
      "inputs": [
        {
          "internalType": "string[]",
          "name": "keys",
          "type": "string[]"
        },
        {
          "internalType": "string[]",
          "name": "values",
          "type": "string[]"
        },
        {
          "internalType": "uint256",
          "name": "tokenId",
          "type": "uint256"
        }
      ],
      "name": "setMany",
      "outputs": [],
      "stateMutability": "nonpayable",
      "type": "function"
    },
    {
      "inputs": [
        {
          "internalType": "uint256[]",
          "name": "keyHashes",
          "type": "uint256[]"
        },
        {
          "internalType": "string[]",
          "name": "values",
          "type": "string[]"
        },
        {
          "internalType": "uint256",
          "name": "tokenId",
          "type": "uint256"
        }
      ],
      "name": "setManyByHash",
      "outputs": [],
      "stateMutability": "nonpayable",
      "type": "function"
    },
    {
      "inputs": [
        {
          "internalType": "address",
          "name": "to",
          "type": "address"
        },
        {
          "internalType": "uint256",
          "name": "tokenId",
          "type": "uint256"
        }
      ],
      "name": "setOwner",
      "outputs": [],
      "stateMutability": "nonpayable",
      "type": "function"
    },
    {
      "inputs": [
        {
          "internalType": "uint256",
          "name": "tokenId",
          "type": "uint256"
        }
      ],
      "name": "setReverse",
      "outputs": [],
      "stateMutability": "nonpayable",
      "type": "function"
    },
    {
      "inputs": [
        {
          "internalType": "address",
          "name": "rootChainManager",
          "type": "address"
        }
      ],
      "name": "setRootChainManager",
      "outputs": [],
      "stateMutability": "nonpayable",
      "type": "function"
    },
    {
      "inputs": [
        {
          "internalType": "string",
          "name": "prefix",
          "type": "string"
        }
      ],
      "name": "setTokenURIPrefix",
      "outputs": [],
      "stateMutability": "nonpayable",
      "type": "function"
    },
    {
      "inputs": [
        {
          "internalType": "bytes4",
          "name": "interfaceId",
          "type": "bytes4"
        }
      ],
      "name": "supportsInterface",
      "outputs": [
        {
          "internalType": "bool",
          "name": "",
          "type": "bool"
        }
      ],
      "stateMutability": "view",
      "type": "function"
    },
    {
      "inputs": [],
      "name": "symbol",
      "outputs": [
        {
          "internalType": "string",
          "name": "",
          "type": "string"
        }
      ],
      "stateMutability": "view",
      "type": "function"
    },
    {
      "inputs": [
        {
          "internalType": "uint256",
          "name": "tokenId",
          "type": "uint256"
        }
      ],
      "name": "tokenURI",
      "outputs": [
        {
          "internalType": "string",
          "name": "",
          "type": "string"
        }
      ],
      "stateMutability": "view",
      "type": "function"
    },
    {
      "inputs": [
        {
          "internalType": "address",
          "name": "from",
          "type": "address"
        },
        {
          "internalType": "address",
          "name": "to",
          "type": "address"
        },
        {
          "internalType": "uint256",
          "name": "tokenId",
          "type": "uint256"
        }
      ],
      "name": "transferFrom",
      "outputs": [],
      "stateMutability": "nonpayable",
      "type": "function"
    },
    {
      "inputs": [
        {
          "components": [
            {
              "internalType": "address",
              "name": "from",
              "type": "address"
            },
            {
              "internalType": "uint256",
              "name": "nonce",
              "type": "uint256"
            },
            {
              "internalType": "uint256",
              "name": "tokenId",
              "type": "uint256"
            },
            {
              "internalType": "bytes",
              "name": "data",
              "type": "bytes"
            }
          ],
          "internalType": "struct IForwarder.ForwardRequest",
          "name": "req",
          "type": "tuple"
        },
        {
          "internalType": "bytes",
          "name": "signature",
          "type": "bytes"
        }
      ],
      "name": "verify",
      "outputs": [
        {
          "internalType": "bool",
          "name": "",
          "type": "bool"
        }
      ],
      "stateMutability": "view",
      "type": "function"
    },
    {
      "inputs": [
        {
          "internalType": "uint256",
          "name": "tokenId",
          "type": "uint256"
        }
      ],
      "name": "withdraw",
      "outputs": [],
      "stateMutability": "nonpayable",
      "type": "function"
    },
    {
      "inputs": [
        {
          "internalType": "uint256[]",
          "name": "tokenIds",
          "type": "uint256[]"
        }
      ],
      "name": "withdrawBatch",
      "outputs": [],
      "stateMutability": "nonpayable",
      "type": "function"
    },
    {
      "inputs": [
        {
          "internalType": "bytes",
          "name": "inputData",
          "type": "bytes"
        },
        {
          "internalType": "uint256",
          "name": "tokenId",
          "type": "uint256"
        },
        {
          "internalType": "string[]",
          "name": "keys",
          "type": "string[]"
        },
        {
          "internalType": "string[]",
          "name": "values",
          "type": "string[]"
        }
      ],
      "name": "withdrawFromPolygon",
      "outputs": [],
      "stateMutability": "nonpayable",
      "type": "function"
    },
    {
      "inputs": [
        {
          "internalType": "uint256",
          "name": "tokenId",
          "type": "uint256"
        }
      ],
      "name": "withdrawWithMetadata",
      "outputs": [],
      "stateMutability": "nonpayable",
      "type": "function"
    }
  ],
  "bytecode": "0x608060405234801561001057600080fd5b506154cd806100206000396000f3fe608060405234801561001057600080fd5b50600436106103c55760003560e01c80637e37479e116101ff578063b85afd281161011a578063d3fc9864116100ad578063efda4d3e1161007c578063efda4d3e14610856578063f25eb5c114610869578063f5c1f76e14610871578063ffa1ad7414610884576103c5565b8063d3fc986414610815578063e985e9c514610828578063ebf0c7171461083b578063ec129eea14610843576103c5565b8063c87b56dd116100e9578063c87b56dd146107c9578063cd279c7c146107dc578063ce92b33e146107ef578063cf2c52cb14610802576103c5565b8063b85afd281461076f578063b88d4fde14610790578063bb5b27e1146107a3578063c4d66de8146107b6576103c5565b8063a22cb46511610192578063ab3b87fe11610161578063ab3b87fe14610723578063b0f5917714610736578063b3f9e4cb14610749578063b55bc6171461075c576103c5565b8063a22cb465146106f5578063a3f4df7e14610708578063a424740014610710578063a5e584dc146104c9576103c5565b80639559c0bd116101ce5780639559c0bd146106bf57806395d89b41146106c757806399e0dd7c146106cf5780639c8d4156146106e2576103c5565b80637e37479e146106735780637f139a001461068657806394d008ef146106995780639508b1c4146106ac576103c5565b806342966c68116102ef5780636352211e116102825780636ccbae5f116102515780636ccbae5f1461062757806370a082311461063a578063728a44d81461064d578063764a81bb14610660576103c5565b80636352211e146105c0578063638e5c78146105d3578063672b9f81146105e657806368b62d3214610607576103c5565b80634a72584d116102be5780634a72584d146105745780634f558e791461058757806350382c1a1461059a578063572b6c05146105ad576103c5565b806342966c6814610528578063430c20811461053b5780634348b5621461054e57806347c8169914610561576103c5565b80631bf7e13e11610367578063310bd74b11610336578063310bd74b146104dc578063384e9a55146104ef57806340c10f191461050257806342842e0e14610515576103c5565b80631bf7e13e1461049057806323b872dd146104a357806327f18975146104b65780632e1a7d4d146104c9576103c5565b8063095ea7b3116103a3578063095ea7b314610428578063150b7a021461043d5780631bd8cc1a1461045d5780631be5e7ed1461047d576103c5565b806301ffc9a7146103ca57806306fdde03146103f3578063081812fc14610408575b600080fd5b6103dd6103d8366004614382565b61088c565b6040516103ea9190614945565b60405180910390f35b6103fb61089f565b6040516103ea91906149b0565b61041b6104163660046145c3565b610932565b6040516103ea9190614860565b61043b610436366004613f1a565b61097e565b005b61045061044b366004613dc4565b6109d0565b6040516103ea9190614987565b61047061046b366004614222565b610aee565b6040516103ea91906148d3565b6103fb61048b3660046144ea565b610c0e565b6103fb61049e366004614564565b610c59565b61043b6104b1366004613d84565b610d24565b61043b6104c43660046141b2565b610db0565b61043b6104d73660046145c3565b610e31565b61043b6104ea3660046145c3565b610e7d565b61043b6104fd3660046145c3565b610ef1565b61043b610510366004613f1a565b610fcc565b61043b610523366004613d84565b611019565b61043b6105363660046145c3565b611034565b6103dd610549366004613f1a565b6110b1565b61043b61055c366004613f9e565b6110bd565b61043b61056f36600461448c565b611122565b61043b61058236600461460b565b61119a565b6103dd6105953660046145c3565b611219565b61043b6105a836600461451f565b611224565b6103dd6105bb366004613d14565b611257565b61041b6105ce3660046145c3565b611268565b61043b6105e13660046145c3565b61129d565b6105f96105f436600461465b565b6112e8565b6040516103ea9291906149c3565b61061a6106153660046145db565b611300565b6040516103ea9190614849565b61061a6106353660046145c3565b611342565b61061a610648366004613d14565b611355565b61043b61065b366004613d14565b611399565b61043b61066e366004613d14565b611412565b61061a610681366004613d14565b61148e565b61043b610694366004613d14565b6114aa565b61043b6106a7366004613f45565b611526565b61043b6106ba3660046143ba565b611575565b61061a6115cc565b6103fb6115d1565b61043b6106dd366004614459565b6115e0565b61043b6106f036600461426b565b611666565b61043b610703366004613e9d565b61178d565b6103fb61185b565b6103dd61071e366004614564565b611884565b61043b610731366004613f1a565b6118cf565b61043b610744366004613f9e565b61194d565b61041b6107573660046145c3565b6119d6565b61043b61076a36600461412a565b6119f3565b61078261077d366004614222565b611aa3565b6040516103ea9291906148e6565b61043b61079e366004613e34565b611c0b565b6103fb6107b13660046145c3565b611c8b565b61043b6107c4366004613d14565b611d2d565b6103fb6107d73660046145c3565b611e1a565b61043b6107ea366004613f45565b611e9c565b61043b6107fd3660046141b2565b611f26565b61043b610810366004613ec8565b611f9e565b61043b610823366004613f45565b612089565b6103dd610836366004613d4c565b612105565b61061a612133565b61043b6108513660046141b2565b612138565b61043b61086436600461404f565b6121b0565b61043b61223e565b61047061087f36600461426b565b61228a565b6103fb612367565b600061089782612388565b90505b919050565b6060606580546108ae906153c9565b80601f01602080910402602001604051908101604052809291908181526020018280546108da906153c9565b80156109275780601f106108fc57610100808354040283529160200191610927565b820191906000526020600020905b81548152906001019060200180831161090a57829003601f168201915b505050505090505b90565b600061093d826123c8565b6109625760405162461bcd60e51b815260040161095990614f4e565b60405180910390fd5b506000908152606960205260409020546001600160a01b031690565b8061098833611257565b156109b8576109956123e5565b81146109b35760405162461bcd60e51b815260040161095990614d2d565b6109c1565b6109c1816123ff565b6109cb838361242d565b505050565b60006109fb7f8ffb960699dc2ba88f34d0e41c029c3c36c95149679fe1d0153a9582bec9237861092f565b546001600160a01b0316610a0d6124c0565b6001600160a01b03161415610acd57610a246124c0565b6001600160a01b03166342966c68856040518263ffffffff1660e01b8152600401610a4f9190614849565b600060405180830381600087803b158015610a6957600080fd5b505af1158015610a7d573d6000803e3d6000fd5b505050821580159150610a975750610a9782840184614350565b15610ab557610aa630856124cf565b610ab085856125ae565b610abf565b610abf85856124cf565b50630a85bd0160e11b610ae5565b60405162461bcd60e51b8152600401610959906151af565b95945050505050565b6060826001600160401b03811115610b1657634e487b7160e01b600052604160045260246000fd5b604051908082528060200260200182016040528015610b4957816020015b6060815260200190600190039081610b345790505b50905060005b83811015610c0657610bc8858583818110610b7a57634e487b7160e01b600052603260045260246000fd5b9050602002810190610b8c9190615265565b8080601f016020809104026020016040519081016040528093929190818152602001838380828437600092019190915250879250612663915050565b828281518110610be857634e487b7160e01b600052603260045260246000fd5b60200260200101819052508080610bfe90615404565b915050610b4f565b509392505050565b6060610c5184848080601f016020809104026020016040519081016040528093929190818152602001838380828437600092019190915250869250612663915050565b949350505050565b606060005a9050610c6b858585611884565b610c875760405162461bcd60e51b815260040161095990615078565b610d19610c976020870187613d14565b30604088013584610cab60608b018b615265565b8080601f01602080910402602001604051908101604052809392919081815260200183838082843760009201919091525050604080516020601f8e018190048102820181019092528c815292508c91508b908190840183828082843760009201919091525061269892505050565b9150505b9392505050565b80610d36610d306124c0565b82612787565b610d525760405162461bcd60e51b815260040161095990614a8d565b81610d5c33611257565b15610d8c57610d696123e5565b8114610d875760405162461bcd60e51b815260040161095990614d2d565b610d95565b610d95816123ff565b610d9e83612804565b610da985858561286f565b5050505050565b80610dbc610d306124c0565b610dd85760405162461bcd60e51b815260040161095990614a8d565b81610de233611257565b15610e1257610def6123e5565b8114610e0d5760405162461bcd60e51b815260040161095990614d2d565b610e1b565b610e1b816123ff565b610e28878787878761299c565b50505050505050565b610e3a81611268565b6001600160a01b0316610e4b6124c0565b6001600160a01b031614610e715760405162461bcd60e51b8152600401610959906150bf565b610e7a81612a1b565b50565b80610e89610d306124c0565b610ea55760405162461bcd60e51b815260040161095990614a8d565b81610eaf33611257565b15610edf57610ebc6123e5565b8114610eda5760405162461bcd60e51b815260040161095990614d2d565b610ee8565b610ee8816123ff565b6109cb83612804565b80610efa6124c0565b6001600160a01b0316610f0c82611268565b6001600160a01b031614610f325760405162461bcd60e51b815260040161095990614a1f565b81610f3c33611257565b15610f6c57610f496123e5565b8114610f675760405162461bcd60e51b815260040161095990614d2d565b610f75565b610f75816123ff565b6000610f7f6124c0565b6001600160a01b038116600081815261013560205260408082208890555192935086927feb76a21470988c474a21f690cc28fee1ed511bd812dc3c21fd0f49c5e5d4708a9190a350505050565b610fd4612ac2565b6001600160a01b0316610fe56124c0565b6001600160a01b03161461100b5760405162461bcd60e51b8152600401610959906151f4565b61101582826124cf565b5050565b6109cb83838360405180602001604052806000815250611c0b565b80611040610d306124c0565b61105c5760405162461bcd60e51b815260040161095990614a8d565b8161106633611257565b15611096576110736123e5565b81146110915760405162461bcd60e51b815260040161095990614d2d565b61109f565b61109f816123ff565b6110a883612804565b6109cb83612a1b565b6000610d1d8383612787565b610134546001600160a01b03166110d26124c0565b6001600160a01b0316146110f85760405162461bcd60e51b815260040161095990614c9a565b611118888888888888888860405180602001604052806000815250612be6565b5050505050505050565b8061112e610d306124c0565b61114a5760405162461bcd60e51b815260040161095990614a8d565b8161115433611257565b15611184576111616123e5565b811461117f5760405162461bcd60e51b815260040161095990614d2d565b61118d565b61118d816123ff565b610e288787878787612c41565b806111a6610d306124c0565b6111c25760405162461bcd60e51b815260040161095990614a8d565b816111cc33611257565b156111fc576111d96123e5565b81146111f75760405162461bcd60e51b815260040161095990614d2d565b611205565b611205816123ff565b61121186868686612d20565b505050505050565b6000610897826123c8565b610e7a81604051602001611238919061474d565b6040516020818303038152906040528051906020012060001c82612d90565b6001600160a01b0381163014919050565b6000818152606760205260408120546001600160a01b0316806108975760405162461bcd60e51b815260040161095990614e0b565b806112a9610d306124c0565b6112c55760405162461bcd60e51b815260040161095990614a8d565b6112d76112d06124c0565b308461286f565b6110156112e26124c0565b836125ae565b6060806112f58484612dbc565b909590945092505050565b6000610c518484848080601f016020809104026020016040519081016040528093929190818152602001838380828437600092019190915250612ddd92505050565b6000908152610100602052604090205490565b60006001600160a01b03821661137d5760405162461bcd60e51b815260040161095990614dc1565b506001600160a01b031660009081526068602052604090205490565b60006113b26000805160206154a183398151915261092f565b546001600160a01b0316146113d95760405162461bcd60e51b815260040161095990614f9a565b806113f16000805160206154a183398151915261092f565b80546001600160a01b0319166001600160a01b039290921691909117905550565b600061143d7f8bea9a6f8afd34f4e29c585f854e0cc5161431bf5fc299d468454d33dce53b8761092f565b546001600160a01b0316146114645760405162461bcd60e51b815260040161095990614b96565b806113f17f8bea9a6f8afd34f4e29c585f854e0cc5161431bf5fc299d468454d33dce53b8761092f565b6001600160a01b03166000908152610135602052604090205490565b60006114d57f8ffb960699dc2ba88f34d0e41c029c3c36c95149679fe1d0153a9582bec9237861092f565b546001600160a01b0316146114fc5760405162461bcd60e51b815260040161095990614ee4565b806113f17f8ffb960699dc2ba88f34d0e41c029c3c36c95149679fe1d0153a9582bec9237861092f565b61152e612ac2565b6001600160a01b031661153f6124c0565b6001600160a01b0316146115655760405162461bcd60e51b8152600401610959906151f4565b61156f84846124cf565b50505050565b61157f8787612e59565b6115876124c0565b6001600160a01b031661159986611268565b6001600160a01b0316146115bf5760405162461bcd60e51b815260040161095990614a1f565b610e288484848489612ed3565b601481565b6060606680546108ae906153c9565b610134546001600160a01b03166115f56124c0565b6001600160a01b03161461161b5760405162461bcd60e51b815260040161095990614c9a565b6116286101338383613af3565b507f4b120d6a959a84a520fa48f5f937cca0e79129423487af7901213b5d2e89313b828260405161165a92919061499c565b60405180910390a15050565b8060148111156116885760405162461bcd60e51b815260040161095990615137565b60005b8181101561173d5760008484838181106116b557634e487b7160e01b600052603260045260246000fd5b9050602002013590506116c781611268565b6001600160a01b03166116d86124c0565b6001600160a01b031614816040516020016116f391906147e7565b604051602081830303815290604052906117205760405162461bcd60e51b815260040161095991906149b0565b5061172a81612a1b565b508061173581615404565b91505061168b565b506117466124c0565b6001600160a01b03167ff871896b17e9cb7a64941c62c188a4f5c621b86800e3d15452ece01ce56073df848460405161178092919061490b565b60405180910390a2505050565b6117956124c0565b6001600160a01b0316826001600160a01b031614156117c65760405162461bcd60e51b815260040161095990614c21565b80606a60006117d36124c0565b6001600160a01b03908116825260208083019390935260409182016000908120918716808252919093529120805460ff1916921515929092179091556118176124c0565b6001600160a01b03167f17307eab39ab6107e8899845ad3d59bd9653f200f220920489ca2b5937696c318360405161184f9190614945565b60405180910390a35050565b6040518060400160405280600d81526020016c554e533a20526567697374727960981b81525081565b6000610c5161189285615315565b3085858080601f016020809104026020016040519081016040528093929190818152602001838380828437600092019190915250612f5d92505050565b806118db610d306124c0565b6118f75760405162461bcd60e51b815260040161095990614a8d565b8161190133611257565b156119315761190e6123e5565b811461192c5760405162461bcd60e51b815260040161095990614d2d565b61193a565b61193a816123ff565b61156f61194684611268565b858561286f565b610134546001600160a01b03166119626124c0565b6001600160a01b0316146119885760405162461bcd60e51b815260040161095990614c9a565b6119c9888888888080601f01602080910402602001604051908101604052809392919081815260200183838082843760009201919091525061304f92505050565b611118848484848b612ed3565b60006119e1826123c8565b6119ec576000610897565b5030919050565b610134546001600160a01b0316611a086124c0565b6001600160a01b031614611a2e5760405162461bcd60e51b815260040161095990614c9a565b611211868686868080601f01602080910402602001604051908101604052809392919081815260200183838082843760009201919091525050604080516020601f8a01819004810282018101909252888152925088915087908190840183828082843760009201919091525061308992505050565b606080836001600160401b03811115611acc57634e487b7160e01b600052604160045260246000fd5b604051908082528060200260200182016040528015611aff57816020015b6060815260200190600190039081611aea5790505b509150836001600160401b03811115611b2857634e487b7160e01b600052604160045260246000fd5b604051908082528060200260200182016040528015611b5b57816020015b6060815260200190600190039081611b465790505b50905060005b84811015611c0257611b99868683818110611b8c57634e487b7160e01b600052603260045260246000fd5b9050602002013585612dbc565b848381518110611bb957634e487b7160e01b600052603260045260246000fd5b60200260200101848481518110611be057634e487b7160e01b600052603260045260246000fd5b6020026020010182905282905250508080611bfa90615404565b915050611b61565b50935093915050565b81611c17610d306124c0565b611c335760405162461bcd60e51b815260040161095990614a8d565b82611c3d33611257565b15611c6d57611c4a6123e5565b8114611c685760405162461bcd60e51b815260040161095990614d2d565b611c76565b611c76816123ff565b611c7f84612804565b611211868686866130d2565b600081815260c960205260409020805460609190611ca8906153c9565b80601f0160208091040260200160405190810160405280929190818152602001828054611cd4906153c9565b8015611d215780601f10611cf657610100808354040283529160200191611d21565b820191906000526020600020905b815481529060010190602001808311611d0457829003601f168201915b50505050509050919050565b600054610100900460ff1680611d46575060005460ff16155b611d625760405162461bcd60e51b815260040161095990614e54565b600054610100900460ff16158015611d8d576000805460ff1961ff0019909116610100171660011790555b61013480546001600160a01b0319166001600160a01b0384161790556040805180820182526013815272556e73746f707061626c6520446f6d61696e7360681b60208083019190915282518084019093526002835261155160f21b90830152611df591613105565b611dfd6131a3565b611e056131a3565b8015611015576000805461ff00191690555050565b6060611e25826123c8565b611e415760405162461bcd60e51b815260040161095990615029565b6000611e4b613217565b90506000815111611e6b5760405180602001604052806000815250610d1d565b80611e7584613227565b604051602001611e869291906147b8565b6040516020818303038152906040529392505050565b610134546001600160a01b0316611eb16124c0565b6001600160a01b031614611ed75760405162461bcd60e51b815260040161095990614c9a565b61156f848484848080601f016020809104026020016040519081016040528093929190818152602001838380828437600092018290525060408051602081019091529081529250613089915050565b80611f32610d306124c0565b611f4e5760405162461bcd60e51b815260040161095990614a8d565b81611f5833611257565b15611f8857611f656123e5565b8114611f835760405162461bcd60e51b815260040161095990614d2d565b611f91565b611f91816123ff565b610e288787878787612ed3565b611fc77f8bea9a6f8afd34f4e29c585f854e0cc5161431bf5fc299d468454d33dce53b8761092f565b546001600160a01b0316611fd96124c0565b6001600160a01b031614611fff5760405162461bcd60e51b8152600401610959906151f4565b6020811415612028576000612016828401846145c3565b905061202284826124cf565b506109cb565b6000612036828401846142aa565b805190915060005b81811015611211576120778684838151811061206a57634e487b7160e01b600052603260045260246000fd5b60200260200101516124cf565b8061208181615404565b91505061203e565b610134546001600160a01b031661209e6124c0565b6001600160a01b0316146120c45760405162461bcd60e51b815260040161095990614c9a565b61156f848484848080601f01602080910402602001604051908101604052809392919081815260200183838082843760009201919091525061304f92505050565b6001600160a01b039182166000908152606a6020908152604080832093909416825291909152205460ff1690565b600090565b80612144610d306124c0565b6121605760405162461bcd60e51b815260040161095990614a8d565b8161216a33611257565b1561219a576121776123e5565b81146121955760405162461bcd60e51b815260040161095990614d2d565b6121a3565b6121a3816123ff565b610e288787878787613341565b610134546001600160a01b03166121c56124c0565b6001600160a01b0316146121eb5760405162461bcd60e51b815260040161095990614c9a565b6122328a8a8a8a8a8a8a8a8a8a8080601f016020809104026020016040519081016040528093929190818152602001838380828437600092019190915250612be692505050565b50505050505050505050565b60006122486124c0565b6001600160a01b038116600090815261013560205260409020549091506122815760405162461bcd60e51b81526004016109599061516e565b610e7a81613357565b6060816001600160401b038111156122b257634e487b7160e01b600052604160045260246000fd5b6040519080825280602002602001820160405280156122e557816020015b60608152602001906001900390816122d05790505b50905060005b828110156123605761232284848381811061231657634e487b7160e01b600052603260045260246000fd5b90506020020135611c8b565b82828151811061234257634e487b7160e01b600052603260045260246000fd5b6020026020010181905250808061235890615404565b9150506122eb565b5092915050565b604051806040016040528060058152602001640c0b8d0b8d60da1b81525081565b60006001600160e01b031982166380ac58cd60e01b14806123b957506001600160e01b03198216635b5e139f60e01b145b8061089757506108978261339c565b6000908152606760205260409020546001600160a01b0316151590565b60006123f033611257565b1561092f5750601f1936013590565b6000818152610100602052604090205461241a9060016152d2565b6000918252610100602052604090912055565b600061243882611268565b9050806001600160a01b0316836001600160a01b0316141561246c5760405162461bcd60e51b8152600401610959906150f6565b806001600160a01b031661247e6124c0565b6001600160a01b0316148061249a575061249a816108366124c0565b6124b65760405162461bcd60e51b815260040161095990614d64565b6109cb83836133b5565b60006124ca613423565b905090565b6001600160a01b0382166124f55760405162461bcd60e51b815260040161095990614f19565b6124fe816123c8565b1561251b5760405162461bcd60e51b815260040161095990614b5f565b61252760008383613451565b6001600160a01b03821660009081526068602052604081208054600192906125509084906152d2565b909155505060008181526067602052604080822080546001600160a01b0319166001600160a01b03861690811790915590518392907fddf252ad1be2c89b69c2b068fc378daa952ba7f163c4a11628f55a4df523b3ef908290a45050565b60006125b8612ac2565b90506125c481836133b5565b60006125dd6000805160206154a183398151915261092f565b546040516001600160a01b039091169150819063e3dec8fb9086903090612608908890602001614849565b6040516020818303038152906040526040518463ffffffff1660e01b815260040161263593929190614874565b600060405180830381600087803b15801561264f57600080fd5b505af1158015611118573d6000803e3d6000fd5b6060610d1d83604051602001612679919061474d565b6040516020818303038152906040528051906020012060001c83613484565b60606126a3856123ff565b600080876001600160a01b0316866126bd8b8a8989613543565b6040516126ca919061474d565b60006040518083038160008787f1925050503d8060008114612708576040519150601f19603f3d011682016040523d82523d6000602084013e61270d565b606091505b50909250905061271e603f876152ea565b5a1161273a57634e487b7160e01b600052600160045260246000fd5b61277a82826040518060400160405280601a81526020017f42617365466f727761726465723a2043414c4c5f4641494c4544000000000000815250613573565b9998505050505050505050565b6000612792826123c8565b6127ae5760405162461bcd60e51b815260040161095990614ce1565b60006127b983611268565b9050806001600160a01b0316846001600160a01b031614806127f45750836001600160a01b03166127e984610932565b6001600160a01b0316145b80610c515750610c518185612105565b61280d816135ac565b60405160200161281d9190614849565b60408051601f198184030181528282528051602091820120600085815260cb9092529181209190915582917f185c30856dadb58bf097c1f665a52ada7029752dbcad008ea3fefc73bee8c9fe9190a250565b826001600160a01b031661288282611268565b6001600160a01b0316146128a85760405162461bcd60e51b815260040161095990614fe0565b6001600160a01b0382166128ce5760405162461bcd60e51b815260040161095990614bdd565b6128d9838383613451565b6128e46000826133b5565b6001600160a01b038316600090815260686020526040812080546001929061290d9084906152fe565b90915550506001600160a01b038216600090815260686020526040812080546001929061293b9084906152d2565b909155505060008181526067602052604080822080546001600160a01b0319166001600160a01b0386811691821790925591518493918716917fddf252ad1be2c89b69c2b068fc378daa952ba7f163c4a11628f55a4df523b3ef91a4505050565b60005b8481101561121157612a098686838181106129ca57634e487b7160e01b600052603260045260246000fd5b905060200201358585848181106129f157634e487b7160e01b600052603260045260246000fd5b9050602002810190612a039190615265565b85612d20565b80612a1381615404565b91505061299f565b6000612a2682611268565b9050612a3481600084613451565b612a3f6000836133b5565b6001600160a01b0381166000908152606860205260408120805460019290612a689084906152fe565b909155505060008281526067602052604080822080546001600160a01b0319169055518391906001600160a01b038416907fddf252ad1be2c89b69c2b068fc378daa952ba7f163c4a11628f55a4df523b3ef908390a45050565b600080612adc6000805160206154a183398151915261092f565b5460405163721804d360e11b81526001600160a01b039091169150600090829063e43009a690612b10903090600401614860565b60206040518083038186803b158015612b2857600080fd5b505afa158015612b3c573d6000803e3d6000fd5b505050506040513d601f19601f82011682018060405250810190612b60919061436a565b60405163e66f960360e01b81529091506001600160a01b0383169063e66f960390612b8f908490600401614849565b60206040518083038186803b158015612ba757600080fd5b505afa158015612bbb573d6000803e3d6000fd5b505050506040513d601f19601f82011682018060405250810190612bdf9190613d30565b9250505090565b612c29898989898080601f016020809104026020016040519081016040528093929190818152602001838380828437600092019190915250879250613089915050565b612c36858585858c612ed3565b505050505050505050565b60008585604051602001612c569291906147a8565b60408051601f198184030181528282528051602091820120601f8901829004820284018201909252878352909250612caa9183918990899081908401838280828437600092019190915250612d9092505050565b6112118187878080601f01602080910402602001604051908101604052809392919081815260200183838082843760009201919091525050604080516020601f8b0181900481028201810190925289815292508991508890819084018382808284376000920191909152508892506135d8915050565b612d2984613713565b612d455760405162461bcd60e51b815260040161095990614b28565b61156f84612d5286611c8b565b85858080601f0160208091040260200160405190810160405280939291908181526020018383808284376000920191909152508792506135d8915050565b612d9982613713565b61101557600082815260c96020908152604090912082516109cb92840190613b73565b606080612dc884611c8b565b9150612dd48484613484565b90509250929050565b6000815160001415612e015760405162461bcd60e51b815260040161095990615236565b8282604051602001612e13919061474d565b60405160208183030381529060405280519060200120604051602001612e3a929190614852565b60408051601f1981840301815291905280516020909101209392505050565b6000612e726000805160206154a183398151915261092f565b54604051633805550f60e01b81526001600160a01b0390911691508190633805550f90612ea5908690869060040161499c565b600060405180830381600087803b158015612ebf57600080fd5b505af1158015610e28573d6000803e3d6000fd5b60005b8481101561121157612f4b868683818110612f0157634e487b7160e01b600052603260045260246000fd5b9050602002810190612f139190615265565b868685818110612f3357634e487b7160e01b600052603260045260246000fd5b9050602002810190612f459190615265565b86612c41565b80612f5581615404565b915050612ed6565b6040808401519051636ccbae5f60e01b815260009182913091636ccbae5f91612f899190600401614849565b60206040518083038186803b158015612fa157600080fd5b505afa158015612fb5573d6000803e3d6000fd5b505050506040513d601f19601f82011682018060405250810190612fd9919061436a565b9050600061301f86606001518051906020012086886020015160405160200161300493929190614725565b60405160208183030381529060405280519060200120613739565b905081866020015114801561304557508551613045906001600160a01b03168286613769565b9695505050505050565b61305983836124cf565b817fc5beef08f693b11c316c0c8394a377a0033c9cf701b8cd8afd79cecef60c39528260405161178091906149b0565b61309484848361383a565b827fc5beef08f693b11c316c0c8394a377a0033c9cf701b8cd8afd79cecef60c3952836040516130c491906149b0565b60405180910390a250505050565b6130dd84848461286f565b6130e98484848461386d565b61156f5760405162461bcd60e51b815260040161095990614ad6565b600054610100900460ff168061311e575060005460ff16155b61313a5760405162461bcd60e51b815260040161095990614e54565b600054610100900460ff16158015613165576000805460ff1961ff0019909116610100171660011790555b8251613178906065906020860190613b73565b50815161318c906066906020850190613b73565b5080156109cb576000805461ff0019169055505050565b600054610100900460ff16806131bc575060005460ff16155b6131d85760405162461bcd60e51b815260040161095990614e54565b600054610100900460ff16158015613203576000805460ff1961ff0019909116610100171660011790555b8015610e7a576000805461ff001916905550565b606061013380546108ae906153c9565b60608161324c57506040805180820190915260018152600360fc1b602082015261089a565b8160005b8115613276578061326081615404565b915061326f9050600a836152ea565b9150613250565b6000816001600160401b0381111561329e57634e487b7160e01b600052604160045260246000fd5b6040519080825280601f01601f1916602001820160405280156132c8576020820181803683370190505b5090505b8415610c51576132dd6001836152fe565b91506132ea600a8661541f565b6132f59060306152d2565b60f81b81838151811061331857634e487b7160e01b600052603260045260246000fd5b60200101906001600160f81b031916908160001a90535061333a600a866152ea565b94506132cc565b61334a81612804565b610da98585858585612ed3565b6001600160a01b03811660008181526101356020526040808220829055517ffcf5eec0cfa3e6332f5f0e63ec242d71f866a61d121d6cdf5c2eb3b668a26c4f9190a250565b6001600160e01b031981166301ffc9a760e01b14919050565b600081815260696020526040902080546001600160a01b0319166001600160a01b03841690811790915581906133ea82611268565b6001600160a01b03167f8c5be1e5ebec7d5bd14f71427d1e84f3dd0314c0f7b2291e5b200ac8c7c3b92560405160405180910390a45050565b600061342e33611257565b15613442575060331936013560601c61092f565b61344a613985565b905061092f565b61345c8383836109cb565b6001600160a01b03831660009081526101356020526040902054156109cb576109cb83613357565b606060ca6000613493846135ac565b8152602001908152602001600020600084815260200190815260200160002080546134bd906153c9565b80601f01602080910402602001604051908101604052809291908181526020018280546134e9906153c9565b80156135365780601f1061350b57610100808354040283529160200191613536565b820191906000526020600020905b81548152906001019060200180831161351957829003601f168201915b5050505050905092915050565b606082858560405160200161355a93929190614769565b6040516020818303038152906040529050949350505050565b60608315613582575081610d1d565b8251156135925782518084602001fd5b8160405162461bcd60e51b815260040161095991906149b0565b600081815260cb6020526040812054156135d457600082815260cb6020526040902054610897565b5090565b60ca60006135e5836135ac565b81526020019081526020016000206000858152602001908152602001600020805461360f906153c9565b151590506136665782604051613625919061474d565b6040518091039020817f7ae4f661958fbecc2f77be6b0eb280d2a6f604b29e1e7221c82b9da0c4af7f868560405161365d91906149b0565b60405180910390a35b8160ca6000613674846135ac565b8152602001908152602001600020600086815260200190815260200160002090805190602001906136a6929190613b73565b50816040516136b5919061474d565b6040518091039020836040516136cb919061474d565b6040518091039020827f851ffe8e74d5015261dba0a1f9e1b0e5d42c5af5d2ad1908fee897c7d80a0d9286866040516137059291906149c3565b60405180910390a450505050565b600081815260c960205260408120805482919061372f906153c9565b9050119050919050565b60008160405160200161374c9190614818565b604051602081830303815290604052805190602001209050919050565b600061377484613989565b1561381557604051630b135d3f60e11b81526001600160a01b03851690631626ba7e906137a79086908690600401614950565b60206040518083038186803b1580156137bf57600080fd5b505afa9250505080156137ef575060408051601f3d908101601f191682019092526137ec9181019061439e565b60015b6137fb57506000610d1d565b6001600160e01b031916630b135d3f60e11b149050610d1d565b836001600160a01b0316613829848461398f565b6001600160a01b0316149050610d1d565b61384483836124cf565b613851600084848461386d565b6109cb5760405162461bcd60e51b815260040161095990614ad6565b6000613881846001600160a01b0316613989565b1561397d57836001600160a01b031663150b7a0261389d6124c0565b8786866040518563ffffffff1660e01b81526004016138bf94939291906148a0565b602060405180830381600087803b1580156138d957600080fd5b505af1925050508015613909575060408051601f3d908101601f191682019092526139069181019061439e565b60015b613963573d808015613937576040519150601f19603f3d011682016040523d82523d6000602084013e61393c565b606091505b50805161395b5760405162461bcd60e51b815260040161095990614ad6565b805181602001fd5b6001600160e01b031916630a85bd0160e11b149050610c51565b506001610c51565b3390565b3b151590565b6000806000808451604114156139b95750505060208201516040830151606084015160001a6139ff565b8451604014156139e75750505060408201516020830151906001600160ff1b0381169060ff1c601b016139ff565b60405162461bcd60e51b815260040161095990614a56565b6130458682858560007f7fffffffffffffffffffffffffffffff5d576e7357a4501ddfe92f46681b20a0821115613a485760405162461bcd60e51b815260040161095990614c58565b8360ff16601b1480613a5d57508360ff16601c145b613a795760405162461bcd60e51b815260040161095990614ea2565b600060018686868660405160008152602001604052604051613a9e9493929190614969565b6020604051602081039080840390855afa158015613ac0573d6000803e3d6000fd5b5050604051601f1901519150506001600160a01b038116610ae55760405162461bcd60e51b8152600401610959906149e8565b828054613aff906153c9565b90600052602060002090601f016020900481019282613b215760008555613b67565b82601f10613b3a5782800160ff19823516178555613b67565b82800160010185558215613b67579182015b82811115613b67578235825591602001919060010190613b4c565b506135d4929150613be7565b828054613b7f906153c9565b90600052602060002090601f016020900481019282613ba15760008555613b67565b82601f10613bba57805160ff1916838001178555613b67565b82800160010185558215613b67579182015b82811115613b67578251825591602001919060010190613bcc565b5b808211156135d45760008155600101613be8565b60006001600160401b03831115613c1557613c1561545f565b613c28601f8401601f19166020016152a9565b9050828152838383011115613c3c57600080fd5b828260208301376000602084830101529392505050565b803561089a81615475565b60008083601f840112613c6f578182fd5b5081356001600160401b03811115613c85578182fd5b6020830191508360208083028501011115613c9f57600080fd5b9250929050565b8035801515811461089a57600080fd5b60008083601f840112613cc7578182fd5b5081356001600160401b03811115613cdd578182fd5b602083019150836020828501011115613c9f57600080fd5b600082601f830112613d05578081fd5b610d1d83833560208501613bfc565b600060208284031215613d25578081fd5b8135610d1d81615475565b600060208284031215613d41578081fd5b8151610d1d81615475565b60008060408385031215613d5e578081fd5b8235613d6981615475565b91506020830135613d7981615475565b809150509250929050565b600080600060608486031215613d98578081fd5b8335613da381615475565b92506020840135613db381615475565b929592945050506040919091013590565b600080600080600060808688031215613ddb578081fd5b8535613de681615475565b94506020860135613df681615475565b93506040860135925060608601356001600160401b03811115613e17578182fd5b613e2388828901613cb6565b969995985093965092949392505050565b60008060008060808587031215613e49578182fd5b8435613e5481615475565b93506020850135613e6481615475565b92506040850135915060608501356001600160401b03811115613e85578182fd5b613e9187828801613cf5565b91505092959194509250565b60008060408385031215613eaf578182fd5b8235613eba81615475565b9150612dd460208401613ca6565b600080600060408486031215613edc578081fd5b8335613ee781615475565b925060208401356001600160401b03811115613f01578182fd5b613f0d86828701613cb6565b9497909650939450505050565b60008060408385031215613f2c578182fd5b8235613f3781615475565b946020939093013593505050565b60008060008060608587031215613f5a578182fd5b8435613f6581615475565b93506020850135925060408501356001600160401b03811115613f86578283fd5b613f9287828801613cb6565b95989497509550505050565b60008060008060008060008060a0898b031215613fb9578586fd5b8835613fc481615475565b97506020890135965060408901356001600160401b0380821115613fe6578788fd5b613ff28c838d01613cb6565b909850965060608b013591508082111561400a578485fd5b6140168c838d01613c5e565b909650945060808b013591508082111561402e578384fd5b5061403b8b828c01613c5e565b999c989b5096995094979396929594505050565b60008060008060008060008060008060c08b8d03121561406d578384fd5b6140768b613c53565b995060208b0135985060408b01356001600160401b0380821115614098578586fd5b6140a48e838f01613cb6565b909a50985060608d01359150808211156140bc578586fd5b6140c88e838f01613c5e565b909850965060808d01359150808211156140e0578586fd5b6140ec8e838f01613c5e565b909650945060a08d0135915080821115614104578384fd5b506141118d828e01613cb6565b915080935050809150509295989b9194979a5092959850565b60008060008060008060808789031215614142578384fd5b863561414d81615475565b95506020870135945060408701356001600160401b038082111561416f578586fd5b61417b8a838b01613cb6565b90965094506060890135915080821115614193578384fd5b506141a089828a01613cb6565b979a9699509497509295939492505050565b6000806000806000606086880312156141c9578283fd5b85356001600160401b03808211156141df578485fd5b6141eb89838a01613c5e565b90975095506020880135915080821115614203578485fd5b5061421088828901613c5e565b96999598509660400135949350505050565b600080600060408486031215614236578081fd5b83356001600160401b0381111561424b578182fd5b61425786828701613c5e565b909790965060209590950135949350505050565b6000806020838503121561427d578182fd5b82356001600160401b03811115614292578283fd5b61429e85828601613c5e565b90969095509350505050565b600060208083850312156142bc578182fd5b82356001600160401b03808211156142d2578384fd5b818501915085601f8301126142e5578384fd5b8135818111156142f7576142f761545f565b83810291506143078483016152a9565b8181528481019084860184860187018a1015614321578788fd5b8795505b83861015614343578035835260019590950194918601918601614325565b5098975050505050505050565b600060208284031215614361578081fd5b610d1d82613ca6565b60006020828403121561437b578081fd5b5051919050565b600060208284031215614393578081fd5b8135610d1d8161548a565b6000602082840312156143af578081fd5b8151610d1d8161548a565b60008060008060008060006080888a0312156143d4578081fd5b87356001600160401b03808211156143ea578283fd5b6143f68b838c01613cb6565b909950975060208a0135965060408a0135915080821115614415578283fd5b6144218b838c01613c5e565b909650945060608a0135915080821115614439578283fd5b506144468a828b01613c5e565b989b979a50959850939692959293505050565b6000806020838503121561446b578182fd5b82356001600160401b03811115614480578283fd5b61429e85828601613cb6565b6000806000806000606086880312156144a3578283fd5b85356001600160401b03808211156144b9578485fd5b6144c589838a01613cb6565b909750955060208801359150808211156144dd578485fd5b5061421088828901613cb6565b6000806000604084860312156144fe578081fd5b83356001600160401b03811115614513578182fd5b61425786828701613cb6565b600060208284031215614530578081fd5b81356001600160401b03811115614545578182fd5b8201601f81018413614555578182fd5b610c5184823560208401613bfc565b600080600060408486031215614578578081fd5b83356001600160401b038082111561458e578283fd5b90850190608082880312156145a1578283fd5b909350602085013590808211156145b6578283fd5b50613f0d86828701613cb6565b6000602082840312156145d4578081fd5b5035919050565b6000806000604084860312156145ef578081fd5b8335925060208401356001600160401b03811115613f01578182fd5b60008060008060608587031215614620578182fd5b8435935060208501356001600160401b0381111561463c578283fd5b61464887828801613cb6565b9598909750949560400135949350505050565b6000806040838503121561466d578182fd5b50508035926020909101359150565b6000815180845260208085018081965082840281019150828601855b858110156146c25782840389526146b08483516146f9565b98850198935090840190600101614698565b5091979650505050505050565b60008284528282602086013780602084860101526020601f19601f85011685010190509392505050565b6000815180845261471181602086016020860161539d565b601f01601f19169290920160200192915050565b92835260609190911b6bffffffffffffffffffffffff19166020830152603482015260540190565b6000825161475f81846020870161539d565b9190910192915050565b6000845161477b81846020890161539d565b60609490941b6bffffffffffffffffffffffff191691909301908152601481019190915260340192915050565b6000828483379101908152919050565b600083516147ca81846020880161539d565b8351908301906147de81836020880161539d565b01949350505050565b7f52656769737472793a20494e56414c49445f544f4b454e5f4f574e45522000008152601e810191909152603e0190565b7f19457468657265756d205369676e6564204d6573736167653a0a3332000000008152601c810191909152603c0190565b90815260200190565b918252602082015260400190565b6001600160a01b0391909116815260200190565b6001600160a01b03848116825283166020820152606060408201819052600090610ae5908301846146f9565b6001600160a01b0385811682528416602082015260408101839052608060608201819052600090613045908301846146f9565b600060208252610d1d602083018461467c565b6000604082526148f9604083018561467c565b8281036020840152610d19818561467c565b6020808252810182905260006001600160fb1b0383111561492a578081fd5b60208302808560408501379190910160400190815292915050565b901515815260200190565b600083825260406020830152610c5160408301846146f9565b93845260ff9290921660208401526040830152606082015260800190565b6001600160e01b031991909116815260200190565b600060208252610c516020830184866146cf565b600060208252610d1d60208301846146f9565b6000604082526149d660408301856146f9565b8281036020840152610d1981856146f9565b60208082526018908201527f45434453413a20696e76616c6964207369676e61747572650000000000000000604082015260600190565b6020808252601d908201527f52656769737472793a2053454e4445525f49535f4e4f545f4f574e4552000000604082015260600190565b6020808252601f908201527f45434453413a20696e76616c6964207369676e6174757265206c656e67746800604082015260600190565b60208082526029908201527f52656769737472793a2053454e4445525f49535f4e4f545f415050524f5645446040820152682fa7a92fa7aba722a960b91b606082015260800190565b60208082526032908201527f4552433732313a207472616e7366657220746f206e6f6e20455243373231526560408201527131b2b4bb32b91034b6b83632b6b2b73a32b960711b606082015260800190565b6020808252601c908201527f5265636f726453746f726167653a204b45595f4e4f545f464f554e4400000000604082015260600190565b6020808252601c908201527f4552433732313a20746f6b656e20616c7265616479206d696e74656400000000604082015260600190565b60208082526027908201527f52656769737472793a204348494c445f434841494e5f4d414e454745525f4e4f604082015266545f454d50545960c81b606082015260800190565b60208082526024908201527f4552433732313a207472616e7366657220746f20746865207a65726f206164646040820152637265737360e01b606082015260800190565b60208082526019908201527f4552433732313a20617070726f766520746f2063616c6c657200000000000000604082015260600190565b60208082526022908201527f45434453413a20696e76616c6964207369676e6174757265202773272076616c604082015261756560f01b606082015260800190565b60208082526027908201527f52656769737472793a2053454e4445525f49535f4e4f545f4d494e54494e475f60408201526626a0a720a3a2a960c91b606082015260800190565b6020808252602c908201527f4552433732313a206f70657261746f7220717565727920666f72206e6f6e657860408201526b34b9ba32b73a103a37b5b2b760a11b606082015260800190565b60208082526017908201527f52656769737472793a20544f4b454e5f494e56414c4944000000000000000000604082015260600190565b60208082526038908201527f4552433732313a20617070726f76652063616c6c6572206973206e6f74206f7760408201527f6e6572206e6f7220617070726f76656420666f7220616c6c0000000000000000606082015260800190565b6020808252602a908201527f4552433732313a2062616c616e636520717565727920666f7220746865207a65604082015269726f206164647265737360b01b606082015260800190565b60208082526029908201527f4552433732313a206f776e657220717565727920666f72206e6f6e657869737460408201526832b73a103a37b5b2b760b91b606082015260800190565b6020808252602e908201527f496e697469616c697a61626c653a20636f6e747261637420697320616c72656160408201526d191e481a5b9a5d1a585b1a5e995960921b606082015260800190565b60208082526022908201527f45434453413a20696e76616c6964207369676e6174757265202776272076616c604082015261756560f01b606082015260800190565b6020808252818101527f52656769737472793a20434e535f52454749535452595f4e4f545f454d505459604082015260600190565b6020808252818101527f4552433732313a206d696e7420746f20746865207a65726f2061646472657373604082015260600190565b6020808252602c908201527f4552433732313a20617070726f76656420717565727920666f72206e6f6e657860408201526b34b9ba32b73a103a37b5b2b760a11b606082015260800190565b60208082526026908201527f52656769737472793a20524f4f545f434841494e5f4d414e454745525f4e4f546040820152655f454d50545960d01b606082015260800190565b60208082526029908201527f4552433732313a207472616e73666572206f6620746f6b656e2074686174206960408201526839903737ba1037bbb760b91b606082015260800190565b6020808252602f908201527f4552433732314d657461646174613a2055524920717565727920666f72206e6f60408201526e3732bc34b9ba32b73a103a37b5b2b760891b606082015260800190565b60208082526027908201527f554e535265676973747279466f727761726465723a205349474e41545552455f6040820152661253959053125160ca1b606082015260800190565b6020808252601d908201527f52656769737472793a20494e56414c49445f544f4b454e5f4f574e4552000000604082015260600190565b60208082526021908201527f4552433732313a20617070726f76616c20746f2063757272656e74206f776e656040820152603960f91b606082015260800190565b6020808252601d908201527f52656769737472793a20455843454544535f42415443485f4c494d4954000000604082015260600190565b60208082526021908201527f52656769737472793a20524556455253455f5245434f52445f49535f454d50546040820152605960f81b606082015260800190565b60208082526025908201527f52656769737472793a204552433732315f524543454956494e475f50524f4849604082015264109255115160da1b606082015260800190565b60208082526022908201527f52656769737472793a20494e53554646494349454e545f5045524d495353494f6040820152614e5360f01b606082015260800190565b60208082526015908201527452656769737472793a204c4142454c5f454d50545960581b604082015260600190565b6000808335601e1984360301811261527b578283fd5b8301803591506001600160401b03821115615294578283fd5b602001915036819003821315613c9f57600080fd5b6040518181016001600160401b03811182821017156152ca576152ca61545f565b604052919050565b600082198211156152e5576152e5615433565b500190565b6000826152f9576152f9615449565b500490565b60008282101561531057615310615433565b500390565b600060808236031215615326578081fd5b604051608081016001600160401b0382821081831117156153495761534961545f565b816040528435915061535a82615475565b81835260208501356020840152604085013560408401526060850135915080821115615384578384fd5b5061539136828601613cf5565b60608301525092915050565b60005b838110156153b85781810151838201526020016153a0565b8381111561156f5750506000910152565b6002810460018216806153dd57607f821691505b602082108114156153fe57634e487b7160e01b600052602260045260246000fd5b50919050565b600060001982141561541857615418615433565b5060010190565b60008261542e5761542e615449565b500690565b634e487b7160e01b600052601160045260246000fd5b634e487b7160e01b600052601260045260246000fd5b634e487b7160e01b600052604160045260246000fd5b6001600160a01b0381168114610e7a57600080fd5b6001600160e01b031981168114610e7a57600080fdfebe2bb46ac0377341a1ec5c3116d70fd5029d704bd46292e58f6265dd177ebafea164736f6c6343000800000a",
  "linkReferences": {},
  "deployedLinkReferences": {}
}