{
  "_format": "hh-sol-artifact-1",
  "contractName": "UNSRegistry",
  "sourceName": "contracts/UNSRegistry.sol",
  "abi": [
    {
      "anonymous": false,
      "inputs": [
        {
          "indexed": false,
          "internalType": "address",
          "name": "previousAdmin",
          "type": "address"
        },
        {
          "indexed": false,
          "internalType": "address",
          "name": "newAdmin",
          "type": "address"
        }
      ],
      "name": "AdminChanged",
      "type": "event"
    },
    {
      "anonymous": false,
      "inputs": [
        {
          "indexed": true,
          "internalType": "address",
          "name": "owner",
          "type": "address"
        },
        {
          "indexed": true,
          "internalType": "address",
          "name": "approved",
          "type": "address"
        },
        {
          "indexed": true,
          "internalType": "uint256",
          "name": "tokenId",
          "type": "uint256"
        }
      ],
      "name": "Approval",
      "type": "event"
    },
    {
      "anonymous": false,
      "inputs": [
        {
          "indexed": true,
          "internalType": "address",
          "name": "owner",
          "type": "address"
        },
        {
          "indexed": true,
          "internalType": "address",
          "name": "operator",
          "type": "address"
        },
        {
          "indexed": false,
          "internalType": "bool",
          "name": "approved",
          "type": "bool"
        }
      ],
      "name": "ApprovalForAll",
      "type": "event"
    },
    {
      "anonymous": false,
      "inputs": [
        {
          "indexed": false,
          "internalType": "uint8",
          "name": "version",
          "type": "uint8"
        }
      ],
      "name": "Initialized",
      "type": "event"
    },
    {
      "anonymous": false,
      "inputs": [
        {
          "indexed": true,
          "internalType": "uint256",
          "name": "tokenId",
          "type": "uint256"
        },
        {
          "indexed": true,
          "internalType": "string",
          "name": "keyIndex",
          "type": "string"
        },
        {
          "indexed": false,
          "internalType": "string",
          "name": "key",
          "type": "string"
        }
      ],
      "name": "NewKey",
      "type": "event"
    },
    {
      "anonymous": false,
      "inputs": [
        {
          "indexed": true,
          "internalType": "uint256",
          "name": "tokenId",
          "type": "uint256"
        },
        {
          "indexed": false,
          "internalType": "string",
          "name": "uri",
          "type": "string"
        }
      ],
      "name": "NewURI",
      "type": "event"
    },
    {
      "anonymous": false,
      "inputs": [
        {
          "indexed": false,
          "internalType": "string",
          "name": "prefix",
          "type": "string"
        }
      ],
      "name": "NewURIPrefix",
      "type": "event"
    },
    {
      "anonymous": false,
      "inputs": [
        {
          "indexed": true,
          "internalType": "address",
          "name": "addr",
          "type": "address"
        }
      ],
      "name": "RemoveReverse",
      "type": "event"
    },
    {
      "anonymous": false,
      "inputs": [
        {
          "indexed": true,
          "internalType": "uint256",
          "name": "tokenId",
          "type": "uint256"
        }
      ],
      "name": "ResetRecords",
      "type": "event"
    },
    {
      "anonymous": false,
      "inputs": [
        {
          "indexed": true,
          "internalType": "uint256",
          "name": "tokenId",
          "type": "uint256"
        },
        {
          "indexed": true,
          "internalType": "string",
          "name": "keyIndex",
          "type": "string"
        },
        {
          "indexed": true,
          "internalType": "string",
          "name": "valueIndex",
          "type": "string"
        },
        {
          "indexed": false,
          "internalType": "string",
          "name": "key",
          "type": "string"
        },
        {
          "indexed": false,
          "internalType": "string",
          "name": "value",
          "type": "string"
        }
      ],
      "name": "Set",
      "type": "event"
    },
    {
      "anonymous": false,
      "inputs": [
        {
          "indexed": true,
          "internalType": "uint256",
          "name": "tokenId",
          "type": "uint256"
        },
        {
          "indexed": false,
          "internalType": "uint64",
          "name": "expiry",
          "type": "uint64"
        }
      ],
      "name": "SetExpiry",
      "type": "event"
    },
    {
      "anonymous": false,
      "inputs": [
        {
          "indexed": true,
          "internalType": "address",
          "name": "addr",
          "type": "address"
        },
        {
          "indexed": true,
          "internalType": "uint256",
          "name": "tokenId",
          "type": "uint256"
        }
      ],
      "name": "SetReverse",
      "type": "event"
    },
    {
      "anonymous": false,
      "inputs": [
        {
          "indexed": true,
          "internalType": "address",
          "name": "from",
          "type": "address"
        },
        {
          "indexed": true,
          "internalType": "address",
          "name": "to",
          "type": "address"
        },
        {
          "indexed": true,
          "internalType": "uint256",
          "name": "tokenId",
          "type": "uint256"
        }
      ],
      "name": "Transfer",
      "type": "event"
    },
    {
      "anonymous": false,
      "inputs": [
        {
          "indexed": true,
          "internalType": "address",
          "name": "implementation",
          "type": "address"
        }
      ],
      "name": "Upgraded",
      "type": "event"
    },
    {
      "inputs": [],
      "name": "BATCH_LIMIT",
      "outputs": [
        {
          "internalType": "uint256",
          "name": "",
          "type": "uint256"
        }
      ],
      "stateMutability": "view",
      "type": "function"
    },
    {
      "inputs": [],
      "name": "NAME",
      "outputs": [
        {
          "internalType": "string",
          "name": "",
          "type": "string"
        }
      ],
      "stateMutability": "view",
      "type": "function"
    },
    {
      "inputs": [],
      "name": "VERSION",
      "outputs": [
        {
          "internalType": "string",
          "name": "",
          "type": "string"
        }
      ],
      "stateMutability": "view",
      "type": "function"
    },
    {
      "inputs": [
        {
          "internalType": "string",
          "name": "key",
          "type": "string"
        }
      ],
      "name": "addKey",
      "outputs": [],
      "stateMutability": "nonpayable",
      "type": "function"
    },
    {
      "inputs": [
        {
          "internalType": "address",
          "name": "addr",
          "type": "address"
        }
      ],
      "name": "addProxyReader",
      "outputs": [],
      "stateMutability": "nonpayable",
      "type": "function"
    },
    {
      "inputs": [
        {
          "internalType": "address",
          "name": "to",
          "type": "address"
        },
        {
          "internalType": "uint256",
          "name": "tokenId",
          "type": "uint256"
        }
      ],
      "name": "approve",
      "outputs": [],
      "stateMutability": "nonpayable",
      "type": "function"
    },
    {
      "inputs": [
        {
          "internalType": "address",
          "name": "owner",
          "type": "address"
        }
      ],
      "name": "balanceOf",
      "outputs": [
        {
          "internalType": "uint256",
          "name": "",
          "type": "uint256"
        }
      ],
      "stateMutability": "view",
      "type": "function"
    },
    {
      "inputs": [
        {
          "internalType": "uint256",
          "name": "tokenId",
          "type": "uint256"
        }
      ],
      "name": "burn",
      "outputs": [],
      "stateMutability": "nonpayable",
      "type": "function"
    },
    {
      "inputs": [
        {
          "internalType": "address",
          "name": "user",
          "type": "address"
        },
        {
          "internalType": "bytes",
          "name": "depositData",
          "type": "bytes"
        }
      ],
      "name": "deposit",
      "outputs": [],
      "stateMutability": "nonpayable",
      "type": "function"
    },
    {
      "inputs": [
        {
          "internalType": "uint256",
          "name": "tokenId",
          "type": "uint256"
        }
      ],
      "name": "depositToPolygon",
      "outputs": [],
      "stateMutability": "nonpayable",
      "type": "function"
    },
    {
      "inputs": [
        {
          "components": [
            {
              "internalType": "address",
              "name": "from",
              "type": "address"
            },
            {
              "internalType": "uint256",
              "name": "nonce",
              "type": "uint256"
            },
            {
              "internalType": "uint256",
              "name": "tokenId",
              "type": "uint256"
            },
            {
              "internalType": "bytes",
              "name": "data",
              "type": "bytes"
            }
          ],
          "internalType": "struct IForwarder.ForwardRequest",
          "name": "req",
          "type": "tuple"
        },
        {
          "internalType": "bytes",
          "name": "signature",
          "type": "bytes"
        }
      ],
      "name": "execute",
      "outputs": [
        {
          "internalType": "bytes",
          "name": "",
          "type": "bytes"
        }
      ],
      "stateMutability": "nonpayable",
      "type": "function"
    },
    {
      "inputs": [
        {
          "internalType": "uint256",
          "name": "tokenId",
          "type": "uint256"
        }
      ],
      "name": "exists",
      "outputs": [
        {
          "internalType": "bool",
          "name": "",
          "type": "bool"
        }
      ],
      "stateMutability": "view",
      "type": "function"
    },
    {
      "inputs": [
        {
          "internalType": "uint256",
          "name": "tokenId",
          "type": "uint256"
        }
      ],
      "name": "expiryOf",
      "outputs": [
        {
          "internalType": "uint64",
          "name": "",
          "type": "uint64"
        }
      ],
      "stateMutability": "view",
      "type": "function"
    },
    {
      "inputs": [
        {
          "internalType": "string",
          "name": "key",
          "type": "string"
        },
        {
          "internalType": "uint256",
          "name": "tokenId",
          "type": "uint256"
        }
      ],
      "name": "get",
      "outputs": [
        {
          "internalType": "string",
          "name": "value",
          "type": "string"
        }
      ],
      "stateMutability": "view",
      "type": "function"
    },
    {
      "inputs": [
        {
          "internalType": "uint256",
          "name": "tokenId",
          "type": "uint256"
        }
      ],
      "name": "getApproved",
      "outputs": [
        {
          "internalType": "address",
          "name": "",
          "type": "address"
        }
      ],
      "stateMutability": "view",
      "type": "function"
    },
    {
      "inputs": [
        {
          "internalType": "uint256",
          "name": "keyHash",
          "type": "uint256"
        },
        {
          "internalType": "uint256",
          "name": "tokenId",
          "type": "uint256"
        }
      ],
      "name": "getByHash",
      "outputs": [
        {
          "internalType": "string",
          "name": "key",
          "type": "string"
        },
        {
          "internalType": "string",
          "name": "value",
          "type": "string"
        }
      ],
      "stateMutability": "view",
      "type": "function"
    },
    {
      "inputs": [
        {
          "internalType": "uint256",
          "name": "keyHash",
          "type": "uint256"
        }
      ],
      "name": "getKey",
      "outputs": [
        {
          "internalType": "string",
          "name": "",
          "type": "string"
        }
      ],
      "stateMutability": "view",
      "type": "function"
    },
    {
      "inputs": [
        {
          "internalType": "uint256[]",
          "name": "hashes",
          "type": "uint256[]"
        }
      ],
      "name": "getKeys",
      "outputs": [
        {
          "internalType": "string[]",
          "name": "values",
          "type": "string[]"
        }
      ],
      "stateMutability": "view",
      "type": "function"
    },
    {
      "inputs": [
        {
          "internalType": "string[]",
          "name": "keys",
          "type": "string[]"
        },
        {
          "internalType": "uint256",
          "name": "tokenId",
          "type": "uint256"
        }
      ],
      "name": "getMany",
      "outputs": [
        {
          "internalType": "string[]",
          "name": "values",
          "type": "string[]"
        }
      ],
      "stateMutability": "view",
      "type": "function"
    },
    {
      "inputs": [
        {
          "internalType": "uint256[]",
          "name": "keyHashes",
          "type": "uint256[]"
        },
        {
          "internalType": "uint256",
          "name": "tokenId",
          "type": "uint256"
        }
      ],
      "name": "getManyByHash",
      "outputs": [
        {
          "internalType": "string[]",
          "name": "keys",
          "type": "string[]"
        },
        {
          "internalType": "string[]",
          "name": "values",
          "type": "string[]"
        }
      ],
      "stateMutability": "view",
      "type": "function"
    },
    {
      "inputs": [
        {
          "internalType": "address",
          "name": "mintingManager",
          "type": "address"
        },
        {
          "internalType": "address",
          "name": "cnsRegistry",
          "type": "address"
        },
        {
          "internalType": "address",
          "name": "rootChainManager",
          "type": "address"
        },
        {
          "internalType": "address",
          "name": "childChainManager",
          "type": "address"
        }
      ],
      "name": "initialize",
      "outputs": [],
      "stateMutability": "nonpayable",
      "type": "function"
    },
    {
      "inputs": [
        {
          "internalType": "address",
          "name": "owner",
          "type": "address"
        },
        {
          "internalType": "address",
          "name": "operator",
          "type": "address"
        }
      ],
      "name": "isApprovedForAll",
      "outputs": [
        {
          "internalType": "bool",
          "name": "",
          "type": "bool"
        }
      ],
      "stateMutability": "view",
      "type": "function"
    },
    {
      "inputs": [
        {
          "internalType": "address",
          "name": "spender",
          "type": "address"
        },
        {
          "internalType": "uint256",
          "name": "tokenId",
          "type": "uint256"
        }
      ],
      "name": "isApprovedOrOwner",
      "outputs": [
        {
          "internalType": "bool",
          "name": "",
          "type": "bool"
        }
      ],
      "stateMutability": "view",
      "type": "function"
    },
    {
      "inputs": [
        {
          "internalType": "uint256",
          "name": "tokenId",
          "type": "uint256"
        }
      ],
      "name": "isExpired",
      "outputs": [
        {
          "internalType": "bool",
          "name": "",
          "type": "bool"
        }
      ],
      "stateMutability": "view",
      "type": "function"
    },
    {
      "inputs": [
        {
          "internalType": "address",
          "name": "forwarder",
          "type": "address"
        }
      ],
      "name": "isTrustedForwarder",
      "outputs": [
        {
          "internalType": "bool",
          "name": "",
          "type": "bool"
        }
      ],
      "stateMutability": "view",
      "type": "function"
    },
    {
      "inputs": [
        {
          "internalType": "address",
          "name": "user",
          "type": "address"
        },
        {
          "internalType": "uint256",
          "name": "tokenId",
          "type": "uint256"
        }
      ],
      "name": "mint",
      "outputs": [],
      "stateMutability": "nonpayable",
      "type": "function"
    },
    {
      "inputs": [
        {
          "internalType": "address",
          "name": "user",
          "type": "address"
        },
        {
          "internalType": "uint256",
          "name": "tokenId",
          "type": "uint256"
        },
        {
          "internalType": "bytes",
          "name": "",
          "type": "bytes"
        }
      ],
      "name": "mint",
      "outputs": [],
      "stateMutability": "nonpayable",
      "type": "function"
    },
    {
      "inputs": [
        {
          "internalType": "uint256",
          "name": "tokenId",
          "type": "uint256"
        },
        {
          "internalType": "string",
          "name": "uri",
          "type": "string"
        }
      ],
      "name": "mintTLD",
      "outputs": [],
      "stateMutability": "nonpayable",
      "type": "function"
    },
    {
      "inputs": [
        {
          "internalType": "address",
          "name": "to",
          "type": "address"
        },
        {
          "internalType": "string[]",
          "name": "labels",
          "type": "string[]"
        },
        {
          "internalType": "string[]",
          "name": "keys",
          "type": "string[]"
        },
        {
          "internalType": "string[]",
          "name": "values",
          "type": "string[]"
        },
        {
          "internalType": "bool",
          "name": "withReverse",
          "type": "bool"
        }
      ],
      "name": "mintWithRecords",
      "outputs": [],
      "stateMutability": "nonpayable",
      "type": "function"
    },
    {
      "inputs": [
        {
          "internalType": "bytes[]",
          "name": "data",
          "type": "bytes[]"
        }
      ],
      "name": "multicall",
      "outputs": [
        {
          "internalType": "bytes[]",
          "name": "results",
          "type": "bytes[]"
        }
      ],
      "stateMutability": "nonpayable",
      "type": "function"
    },
    {
      "inputs": [],
      "name": "name",
      "outputs": [
        {
          "internalType": "string",
          "name": "",
          "type": "string"
        }
      ],
      "stateMutability": "view",
      "type": "function"
    },
    {
      "inputs": [
        {
          "internalType": "string[]",
          "name": "labels",
          "type": "string[]"
        }
      ],
      "name": "namehash",
      "outputs": [
        {
          "internalType": "uint256",
          "name": "hash",
          "type": "uint256"
        }
      ],
      "stateMutability": "pure",
      "type": "function"
    },
    {
      "inputs": [
        {
          "internalType": "uint256",
          "name": "tokenId",
          "type": "uint256"
        }
      ],
      "name": "nonceOf",
      "outputs": [
        {
          "internalType": "uint256",
          "name": "",
          "type": "uint256"
        }
      ],
      "stateMutability": "view",
      "type": "function"
    },
    {
      "inputs": [
        {
          "internalType": "address",
          "name": "",
          "type": "address"
        },
        {
          "internalType": "address",
          "name": "from",
          "type": "address"
        },
        {
          "internalType": "uint256",
          "name": "tokenId",
          "type": "uint256"
        },
        {
          "internalType": "bytes",
          "name": "data",
          "type": "bytes"
        }
      ],
      "name": "onERC721Received",
      "outputs": [
        {
          "internalType": "bytes4",
          "name": "",
          "type": "bytes4"
        }
      ],
      "stateMutability": "nonpayable",
      "type": "function"
    },
    {
      "inputs": [
        {
          "internalType": "uint256",
          "name": "tokenId",
          "type": "uint256"
        }
      ],
      "name": "ownerOf",
      "outputs": [
        {
          "internalType": "address",
          "name": "owner",
          "type": "address"
        }
      ],
      "stateMutability": "view",
      "type": "function"
    },
    {
      "inputs": [
        {
          "internalType": "string[]",
          "name": "keys",
          "type": "string[]"
        },
        {
          "internalType": "string[]",
          "name": "values",
          "type": "string[]"
        },
        {
          "internalType": "uint256",
          "name": "tokenId",
          "type": "uint256"
        }
      ],
      "name": "reconfigure",
      "outputs": [],
      "stateMutability": "nonpayable",
      "type": "function"
    },
    {
      "inputs": [],
      "name": "removeReverse",
      "outputs": [],
      "stateMutability": "nonpayable",
      "type": "function"
    },
    {
      "inputs": [
        {
          "internalType": "uint256",
          "name": "tokenId",
          "type": "uint256"
        }
      ],
      "name": "reset",
      "outputs": [],
      "stateMutability": "nonpayable",
      "type": "function"
    },
    {
      "inputs": [
        {
          "internalType": "uint256",
          "name": "tokenId",
          "type": "uint256"
        }
      ],
      "name": "resolverOf",
      "outputs": [
        {
          "internalType": "address",
          "name": "",
          "type": "address"
        }
      ],
      "stateMutability": "view",
      "type": "function"
    },
    {
      "inputs": [
        {
          "internalType": "address",
          "name": "addr",
          "type": "address"
        }
      ],
      "name": "reverseNameOf",
      "outputs": [
        {
          "internalType": "string",
          "name": "reverseUri",
          "type": "string"
        }
      ],
      "stateMutability": "view",
      "type": "function"
    },
    {
      "inputs": [
        {
          "internalType": "address",
          "name": "addr",
          "type": "address"
        }
      ],
      "name": "reverseOf",
      "outputs": [
        {
          "internalType": "uint256",
          "name": "reverse",
          "type": "uint256"
        }
      ],
      "stateMutability": "view",
      "type": "function"
    },
    {
      "inputs": [],
      "name": "root",
      "outputs": [
        {
          "internalType": "uint256",
          "name": "",
          "type": "uint256"
        }
      ],
      "stateMutability": "pure",
      "type": "function"
    },
    {
      "inputs": [
        {
          "internalType": "address",
          "name": "from",
          "type": "address"
        },
        {
          "internalType": "address",
          "name": "to",
          "type": "address"
        },
        {
          "internalType": "uint256",
          "name": "tokenId",
          "type": "uint256"
        }
      ],
      "name": "safeTransferFrom",
      "outputs": [],
      "stateMutability": "nonpayable",
      "type": "function"
    },
    {
      "inputs": [
        {
          "internalType": "address",
          "name": "from",
          "type": "address"
        },
        {
          "internalType": "address",
          "name": "to",
          "type": "address"
        },
        {
          "internalType": "uint256",
          "name": "tokenId",
          "type": "uint256"
        },
        {
          "internalType": "bytes",
          "name": "data",
          "type": "bytes"
        }
      ],
      "name": "safeTransferFrom",
      "outputs": [],
      "stateMutability": "nonpayable",
      "type": "function"
    },
    {
      "inputs": [
        {
          "internalType": "string",
          "name": "key",
          "type": "string"
        },
        {
          "internalType": "string",
          "name": "value",
          "type": "string"
        },
        {
          "internalType": "uint256",
          "name": "tokenId",
          "type": "uint256"
        }
      ],
      "name": "set",
      "outputs": [],
      "stateMutability": "nonpayable",
      "type": "function"
    },
    {
      "inputs": [
        {
          "internalType": "address",
          "name": "operator",
          "type": "address"
        },
        {
          "internalType": "bool",
          "name": "approved",
          "type": "bool"
        }
      ],
      "name": "setApprovalForAll",
      "outputs": [],
      "stateMutability": "nonpayable",
      "type": "function"
    },
    {
      "inputs": [
        {
          "internalType": "uint256",
          "name": "keyHash",
          "type": "uint256"
        },
        {
          "internalType": "string",
          "name": "value",
          "type": "string"
        },
        {
          "internalType": "uint256",
          "name": "tokenId",
          "type": "uint256"
        }
      ],
      "name": "setByHash",
      "outputs": [],
      "stateMutability": "nonpayable",
      "type": "function"
    },
    {
      "inputs": [
        {
          "internalType": "uint64",
          "name": "expiry",
          "type": "uint64"
        },
        {
          "internalType": "uint256",
          "name": "tokenId",
          "type": "uint256"
        }
      ],
      "name": "setExpiry",
      "outputs": [],
      "stateMutability": "nonpayable",
      "type": "function"
    },
    {
      "inputs": [
        {
          "internalType": "string[]",
          "name": "keys",
          "type": "string[]"
        },
        {
          "internalType": "string[]",
          "name": "values",
          "type": "string[]"
        },
        {
          "internalType": "uint256",
          "name": "tokenId",
          "type": "uint256"
        }
      ],
      "name": "setMany",
      "outputs": [],
      "stateMutability": "nonpayable",
      "type": "function"
    },
    {
      "inputs": [
        {
          "internalType": "uint256[]",
          "name": "keyHashes",
          "type": "uint256[]"
        },
        {
          "internalType": "string[]",
          "name": "values",
          "type": "string[]"
        },
        {
          "internalType": "uint256",
          "name": "tokenId",
          "type": "uint256"
        }
      ],
      "name": "setManyByHash",
      "outputs": [],
      "stateMutability": "nonpayable",
      "type": "function"
    },
    {
      "inputs": [
        {
          "internalType": "address",
          "name": "to",
          "type": "address"
        },
        {
          "internalType": "uint256",
          "name": "tokenId",
          "type": "uint256"
        }
      ],
      "name": "setOwner",
      "outputs": [],
      "stateMutability": "nonpayable",
      "type": "function"
    },
    {
      "inputs": [
        {
          "internalType": "string[]",
          "name": "labels",
          "type": "string[]"
        }
      ],
      "name": "setReverse",
      "outputs": [],
      "stateMutability": "nonpayable",
      "type": "function"
    },
    {
      "inputs": [
        {
          "internalType": "string",
          "name": "prefix",
          "type": "string"
        }
      ],
      "name": "setTokenURIPrefix",
      "outputs": [],
      "stateMutability": "nonpayable",
      "type": "function"
    },
    {
      "inputs": [
        {
          "internalType": "bytes4",
          "name": "interfaceId",
          "type": "bytes4"
        }
      ],
      "name": "supportsInterface",
      "outputs": [
        {
          "internalType": "bool",
          "name": "",
          "type": "bool"
        }
      ],
      "stateMutability": "view",
      "type": "function"
    },
    {
      "inputs": [],
      "name": "symbol",
      "outputs": [
        {
          "internalType": "string",
          "name": "",
          "type": "string"
        }
      ],
      "stateMutability": "view",
      "type": "function"
    },
    {
      "inputs": [
        {
          "internalType": "uint256",
          "name": "tokenId",
          "type": "uint256"
        }
      ],
      "name": "tokenURI",
      "outputs": [
        {
          "internalType": "string",
          "name": "",
          "type": "string"
        }
      ],
      "stateMutability": "view",
      "type": "function"
    },
    {
      "inputs": [
        {
          "internalType": "address",
          "name": "from",
          "type": "address"
        },
        {
          "internalType": "address",
          "name": "to",
          "type": "address"
        },
        {
          "internalType": "uint256",
          "name": "tokenId",
          "type": "uint256"
        }
      ],
      "name": "transferFrom",
      "outputs": [],
      "stateMutability": "nonpayable",
      "type": "function"
    },
    {
      "inputs": [
        {
          "internalType": "address",
          "name": "to",
          "type": "address"
        },
        {
          "internalType": "uint256",
          "name": "tokenId",
          "type": "uint256"
        }
      ],
      "name": "unlock",
      "outputs": [],
      "stateMutability": "nonpayable",
      "type": "function"
    },
    {
      "inputs": [
        {
          "internalType": "address",
          "name": "to",
          "type": "address"
        },
        {
          "internalType": "string[]",
          "name": "labels",
          "type": "string[]"
        },
        {
          "internalType": "string[]",
          "name": "keys",
          "type": "string[]"
        },
        {
          "internalType": "string[]",
          "name": "values",
          "type": "string[]"
        },
        {
          "internalType": "bool",
          "name": "withReverse",
          "type": "bool"
        }
      ],
      "name": "unlockWithRecords",
      "outputs": [],
      "stateMutability": "nonpayable",
      "type": "function"
    },
    {
      "inputs": [
        {
          "components": [
            {
              "internalType": "address",
              "name": "from",
              "type": "address"
            },
            {
              "internalType": "uint256",
              "name": "nonce",
              "type": "uint256"
            },
            {
              "internalType": "uint256",
              "name": "tokenId",
              "type": "uint256"
            },
            {
              "internalType": "bytes",
              "name": "data",
              "type": "bytes"
            }
          ],
          "internalType": "struct IForwarder.ForwardRequest",
          "name": "req",
          "type": "tuple"
        },
        {
          "internalType": "bytes",
          "name": "signature",
          "type": "bytes"
        }
      ],
      "name": "verify",
      "outputs": [
        {
          "internalType": "bool",
          "name": "",
          "type": "bool"
        }
      ],
      "stateMutability": "view",
      "type": "function"
    },
    {
      "inputs": [
        {
          "internalType": "bytes",
          "name": "inputData",
          "type": "bytes"
        },
        {
          "internalType": "uint256",
          "name": "tokenId",
          "type": "uint256"
        },
        {
          "internalType": "string[]",
          "name": "keys",
          "type": "string[]"
        },
        {
          "internalType": "string[]",
          "name": "values",
          "type": "string[]"
        }
      ],
      "name": "withdrawFromPolygon",
      "outputs": [],
      "stateMutability": "nonpayable",
      "type": "function"
    }
  ],
  "bytecode": "0x608060405234801561000f575f80fd5b506150e28061001d5f395ff3fe608060405234801561000f575f80fd5b506004361061039e575f3560e01c80637e37479e116101ea578063ba5d40b711610114578063e985e9c5116100a9578063f5c1f76e11610079578063f5c1f76e146108c2578063f7df5c60146108d5578063f8c8765e146108e8578063ffa1ad74146108fb575f80fd5b8063e985e9c514610866578063ebf0c717146108a1578063ec129eea146108a7578063f25eb5c1146108ba575f80fd5b8063c87b56dd116100e4578063c87b56dd1461081a578063ce92b33e1461082d578063cf2c52cb14610840578063d9548e5314610853575f80fd5b8063ba5d40b7146107a0578063baef73e9146107b3578063bb5b27e1146107f4578063bebec6b414610807575f80fd5b8063a22cb4651161018a578063ac9650d81161015a578063ac9650d814610739578063b3f9e4cb14610759578063b85afd281461076c578063b88d4fde1461078d575f80fd5b8063a22cb465146106d4578063a3f4df7e146106e7578063a424740014610713578063ab3b87fe14610726575f80fd5b80639508b1c4116101c55780639508b1c41461069e5780639559c0bd146106b157806395d89b41146106b957806399e0dd7c146106c1575f80fd5b80637e37479e146106655780637eee288d1461067857806394d008ef1461068b575f80fd5b806342842e0e116102cb578063509602391161026b578063663f7b2a1161023b578063663f7b2a146105fe578063672b9f81146106115780636ccbae5f1461063257806370a0823114610652575f80fd5b806350960239146105a9578063572b6c05146105bc5780636352211e146105d8578063638e5c78146105eb575f80fd5b806347c81699116102a657806347c816991461055d5780634a72584d146105705780634f558e791461058357806350382c1a14610596575f80fd5b806342842e0e1461052457806342966c6814610537578063430c20811461054a575f80fd5b80631bf7e13e1161034157806327f189751161031157806327f18975146104d8578063310bd74b146104eb5780633f72ec6e146104fe57806340c10f1914610511575f80fd5b80631bf7e13e1461047e5780631f71be061461049157806323b872dd146104a4578063276fabb1146104b7575f80fd5b8063095ea7b31161037c578063095ea7b31461040a578063150b7a021461041f5780631bd8cc1a1461044b5780631be5e7ed1461046b575f80fd5b806301ffc9a7146103a257806306fdde03146103ca578063081812fc146103df575b5f80fd5b6103b56103b0366004613dca565b61091f565b60405190151581526020015b60405180910390f35b6103d261092f565b6040516103c19190613e32565b6103f26103ed366004613e44565b6109bf565b6040516001600160a01b0390911681526020016103c1565b61041d610418366004613e6f565b6109e4565b005b61043261042d366004613ed6565b6109fd565b6040516001600160e01b031990911681526020016103c1565b61045e610459366004613f83565b610b51565b6040516103c19190614022565b6103d2610479366004614034565b610c3a565b6103d261048c366004614067565b610c84565b61041d61049f3660046140e0565b610d8c565b61041d6104b2366004614194565b610e21565b6104ca6104c53660046141d2565b610e74565b6040519081526020016103c1565b61041d6104e6366004614210565b610e82565b61041d6104f9366004613e44565b610eca565b61041d61050c36600461427d565b610f05565b61041d61051f366004613e6f565b611006565b61041d610532366004614194565b611053565b61041d610545366004613e44565b61106d565b6103b5610558366004613e6f565b6110b1565b61041d61056b3660046142a4565b6110bc565b61041d61057e3660046142ff565b6110fb565b6103b5610591366004613e44565b611141565b61041d6105a43660046143fc565b61115f565b61041d6105b736600461442d565b611194565b6103b56105ca36600461442d565b6001600160a01b0316301490565b6103f26105e6366004613e44565b6111f3565b61041d6105f9366004613e44565b61120f565b61041d61060c3660046144de565b61125a565b61062461061f366004614522565b6112fa565b6040516103c1929190614542565b6104ca610640366004613e44565b5f908152610100602052604090205490565b6104ca61066036600461442d565b611312565b6104ca61067336600461442d565b611396565b61041d610686366004613e6f565b6113c6565b61041d610699366004614566565b61141d565b61041d6106ac3660046145bd565b61146c565b6104ca601481565b6103d26114f3565b61041d6106cf366004614658565b611502565b61041d6106e236600461468a565b611589565b6103d26040518060400160405280600d81526020016c554e533a20526567697374727960981b81525081565b6103b5610721366004614067565b61159b565b61041d610734366004613e6f565b6115e4565b61074c6107473660046141d2565b611629565b6040516103c191906146b4565b6103f2610767366004613e44565b6116f7565b61077f61077a366004613f83565b61171f565b6040516103c1929190614716565b61041d61079b36600461473a565b611835565b61041d6107ae3660046140e0565b61187c565b6107dc6107c1366004613e44565b5f90815261013960205260409020546001600160401b031690565b6040516001600160401b0390911681526020016103c1565b6103d2610802366004613e44565b611904565b6103d261081536600461442d565b6119a3565b6103d2610828366004613e44565b611a69565b61041d61083b366004614210565b611acc565b61041d61084e3660046147a1565b611b0b565b6103b5610861366004613e44565b611bcd565b6103b56108743660046147e4565b6001600160a01b039182165f908152606a6020908152604080832093909416825291909152205460ff1690565b5f6104ca565b61041d6108b5366004614210565b611c0e565b61041d611c4d565b61045e6108d03660046141d2565b611cd2565b61041d6108e336600461481b565b611d79565b61041d6108f6366004614849565b611e0a565b6103d260405180604001604052806005815260200164302e392e3160d81b81525081565b5f61092982611fda565b92915050565b60606065805461093e906148a2565b80601f016020809104026020016040519081016040528092919081815260200182805461096a906148a2565b80156109b55780601f1061098c576101008083540402835291602001916109b5565b820191905f5260205f20905b81548152906001019060200180831161099857829003601f168201915b5050505050905090565b5f6109c982612029565b505f908152606960205260409020546001600160a01b031690565b806109ee81612087565b6109f883836120ed565b505050565b5f7f8ffb960699dc2ba88f34d0e41c029c3c36c95149679fe1d0153a9582bec92378546001600160a01b0316610a3161220e565b6001600160a01b031603610aed57610a4761220e565b6001600160a01b03166342966c68856040518263ffffffff1660e01b8152600401610a7491815260200190565b5f604051808303815f87803b158015610a8b575f80fd5b505af1158015610a9d573d5f803e3d5ffd5b505050821580159150610ab75750610ab7828401846148d4565b15610ad557610ac6308561221c565b610ad08585612366565b610adf565b610adf858561221c565b50630a85bd0160e11b610b48565b60405162461bcd60e51b815260206004820152602560248201527f52656769737472793a204552433732315f524543454956494e475f50524f4849604482015264109255115160da1b60648201526084015b60405180910390fd5b95945050505050565b6060826001600160401b03811115610b6b57610b6b61434d565b604051908082528060200260200182016040528015610b9e57816020015b6060815260200190600190039081610b895790505b5090505f5b83811015610c3257610c0d858583818110610bc057610bc06148ed565b9050602002810190610bd29190614901565b8080601f0160208091040260200160405190810160405280939291908181526020018383808284375f9201919091525087925061240a915050565b828281518110610c1f57610c1f6148ed565b6020908102919091010152600101610ba3565b509392505050565b6060610c7c84848080601f0160208091040260200160405190810160405280939291908181526020018383808284375f9201919091525086925061240a915050565b949350505050565b60605f5a9050610c9585858561159b565b610cf15760405162461bcd60e51b815260206004820152602760248201527f554e535265676973747279466f727761726465723a205349474e41545552455f6044820152661253959053125160ca1b6064820152608401610b3f565b610d81610d01602087018761442d565b30604088013584610d1560608b018b614901565b8080601f0160208091040260200160405190810160405280939291908181526020018383808284375f9201919091525050604080516020601f8e018190048102820181019092528c815292508c91508b90819084018382808284375f9201919091525061243e92505050565b9150505b9392505050565b610134546001600160a01b0316610da161220e565b6001600160a01b031614610dc75760405162461bcd60e51b8152600401610b3f90614943565b5f610dda610dd5888a61498a565b61251a565b509050610de789826113c6565b610df48686868685612571565b8115610e1657610e168982610e11610e0c8b8d61498a565b6125d4565b612648565b505050505050505050565b80610e33610e2d61220e565b82612689565b610e4f5760405162461bcd60e51b8152600401610b3f90614996565b81610e5981612087565b610e6283612718565b610e6d858585612784565b5050505050565b5f610c32610dd5838561498a565b80610e8e610e2d61220e565b610eaa5760405162461bcd60e51b8152600401610b3f90614996565b81610eb481612087565b610ec18787878787612927565b50505050505050565b80610ed6610e2d61220e565b610ef25760405162461bcd60e51b8152600401610b3f90614996565b81610efc81612087565b6109f883612718565b610134546001600160a01b0316610f1a61220e565b6001600160a01b031614610f405760405162461bcd60e51b8152600401610b3f90614943565b610f4981612029565b42826001600160401b031611610fa15760405162461bcd60e51b815260206004820152601860248201527f52656769737472793a204558504952595f494e5f5041535400000000000000006044820152606401610b3f565b5f8181526101396020908152604091829020805467ffffffffffffffff19166001600160401b038616908117909155915191825282917f93feabb03ab84f47fc85bf0c298103fca21d8c8bc376eae0c1e1c56b9d4f7789910160405180910390a25050565b61100e61297f565b6001600160a01b031661101f61220e565b6001600160a01b0316146110455760405162461bcd60e51b8152600401610b3f906149df565b61104f828261221c565b5050565b6109f883838360405180602001604052805f815250611835565b80611079610e2d61220e565b6110955760405162461bcd60e51b8152600401610b3f90614996565b8161109f81612087565b6110a883612718565b6109f883612a79565b5f610d858383612689565b806110c8610e2d61220e565b6110e45760405162461bcd60e51b8152600401610b3f90614996565b816110ee81612087565b610ec18787878787612b1b565b80611107610e2d61220e565b6111235760405162461bcd60e51b8152600401610b3f90614996565b8161112d81612087565b61113986868686612bf6565b505050505050565b5f818152606760205260408120546001600160a01b03161515610929565b611191816040516020016111739190614a21565b604051602081830303815290604052805190602001205f1c82612c95565b50565b610134546001600160a01b03166111a961220e565b6001600160a01b0316146111cf5760405162461bcd60e51b8152600401610b3f90614943565b6001600160a01b03165f90815261013660205260409020805460ff19166001179055565b5f6111fd82611bcd565b61120a5761092982612cb9565b919050565b8061121b610e2d61220e565b6112375760405162461bcd60e51b8152600401610b3f90614996565b61124961124261220e565b3084612784565b61104f61125461220e565b83612366565b5f6112648261251a565b50905061126f61220e565b6001600160a01b0316611281826111f3565b6001600160a01b0316146112d75760405162461bcd60e51b815260206004820152601d60248201527f52656769737472793a2053454e4445525f49535f4e4f545f4f574e45520000006044820152606401610b3f565b6112e081612087565b61104f6112eb61220e565b826112f5856125d4565b612d18565b6060806113078484612d9b565b909590945092505050565b5f6001600160a01b03821661137b5760405162461bcd60e51b815260206004820152602960248201527f4552433732313a2061646472657373207a65726f206973206e6f7420612076616044820152683634b21037bbb732b960b91b6064820152608401610b3f565b506001600160a01b03165f9081526068602052604090205490565b6001600160a01b0381165f90815261013560205260408120546113b881612dbc565b6113c0578091505b50919050565b610134546001600160a01b03166113db61220e565b6001600160a01b0316146114015760405162461bcd60e51b8152600401610b3f90614943565b61140a81612718565b61104f61141682612cb9565b8383612784565b61142561297f565b6001600160a01b031661143661220e565b6001600160a01b03161461145c5760405162461bcd60e51b8152600401610b3f906149df565b611466848461221c565b50505050565b6114768787612e03565b61147e61220e565b6001600160a01b0316611490866111f3565b6001600160a01b0316146114e65760405162461bcd60e51b815260206004820152601d60248201527f52656769737472793a2053454e4445525f49535f4e4f545f4f574e45520000006044820152606401610b3f565b610ec18484848489612571565b60606066805461093e906148a2565b610134546001600160a01b031661151761220e565b6001600160a01b03161461153d5760405162461bcd60e51b8152600401610b3f90614943565b61013361154b828483614a80565b507f4b120d6a959a84a520fa48f5f937cca0e79129423487af7901213b5d2e89313b828260405161157d929190614b61565b60405180910390a15050565b61104f61159461220e565b8383612e6c565b5f610c7c6115a885614b74565b3085858080601f0160208091040260200160405190810160405280939291908181526020018383808284375f92019190915250612f3992505050565b806115f0610e2d61220e565b61160c5760405162461bcd60e51b8152600401610b3f90614996565b8161161681612087565b61146661162284612cb9565b8585612784565b60605f6116368385614bfb565b90503033036116ee575f5b838110156116ec576116c761165461220e565b61165c61307e565b87878581811061166e5761166e6148ed565b90506020028101906116809190614901565b8080601f0160208091040260200160405190810160405280939291908181526020018383808284375f92018290525060408051602081019091529081529250613091915050565b8282815181106116d9576116d96148ed565b6020908102919091010152600101611641565b505b610c7c816130c1565b5f818152606760205260408120546001600160a01b0316611718575f610929565b3092915050565b606080836001600160401b0381111561173a5761173a61434d565b60405190808252806020026020018201604052801561176d57816020015b60608152602001906001900390816117585790505b509150836001600160401b038111156117885761178861434d565b6040519080825280602002602001820160405280156117bb57816020015b60608152602001906001900390816117a65790505b5090505f5b8481101561182c576117ea8686838181106117dd576117dd6148ed565b9050602002013585612d9b565b8483815181106117fc576117fc6148ed565b60200260200101848481518110611815576118156148ed565b6020908102919091010191909152526001016117c0565b50935093915050565b81611841610e2d61220e565b61185d5760405162461bcd60e51b8152600401610b3f90614996565b8261186781612087565b61187084612718565b611139868686866131dc565b610134546001600160a01b031661189161220e565b6001600160a01b0316146118b75760405162461bcd60e51b8152600401610b3f90614943565b5f806118c6610dd5898b61498a565b915091506118d38161320f565b6118eb8a836118e5610e0c8c8e61498a565b8661326e565b6118f88787878786612571565b50505050505050505050565b5f81815260c960205260409020805460609190611920906148a2565b80601f016020809104026020016040519081016040528092919081815260200182805461194c906148a2565b80156119975780601f1061196e57610100808354040283529160200191611997565b820191905f5260205f20905b81548152906001019060200180831161197a57829003601f168201915b50505050509050919050565b6001600160a01b0381165f90815261013560205260409020546060906119c881612dbc565b6113c0575f8181526101386020526040902080546119e5906148a2565b80601f0160208091040260200160405190810160405280929190818152602001828054611a11906148a2565b8015611a5c5780601f10611a3357610100808354040283529160200191611a5c565b820191905f5260205f20905b815481529060010190602001808311611a3f57829003601f168201915b5050505050915050919050565b6060611a7482612029565b5f611a7d6132c1565b90505f815111611a9b5760405180602001604052805f815250610d85565b80611aa5846132d1565b604051602001611ab6929190614c6a565b6040516020818303038152906040529392505050565b80611ad8610e2d61220e565b611af45760405162461bcd60e51b8152600401610b3f90614996565b81611afe81612087565b610ec18787878787612571565b7f8bea9a6f8afd34f4e29c585f854e0cc5161431bf5fc299d468454d33dce53b87546001600160a01b0316611b3e61220e565b6001600160a01b031614611b645760405162461bcd60e51b8152600401610b3f906149df565b6020819003611b86575f611b7a82840184613e44565b9050611466848261221c565b5f611b9382840184614c98565b80519091505f5b8181101561113957611bc586848381518110611bb857611bb86148ed565b602002602001015161221c565b600101611b9a565b5f81815261013960205260408120546001600160401b0316158015906109295750505f9081526101396020526040902054426001600160401b039091161090565b80611c1a610e2d61220e565b611c365760405162461bcd60e51b8152600401610b3f90614996565b81611c4081612087565b610ec187878787876133cd565b5f611c5661220e565b6001600160a01b0381165f908152610135602052604081205491925003611cc95760405162461bcd60e51b815260206004820152602160248201527f52656769737472793a20524556455253455f5245434f52445f49535f454d50546044820152605960f81b6064820152608401610b3f565b611191816133e3565b6060816001600160401b03811115611cec57611cec61434d565b604051908082528060200260200182016040528015611d1f57816020015b6060815260200190600190039081611d0a5790505b5090505f5b82811015611d7257611d4d848483818110611d4157611d416148ed565b90506020020135611904565b828281518110611d5f57611d5f6148ed565b6020908102919091010152600101611d24565b5092915050565b610134546001600160a01b0316611d8e61220e565b6001600160a01b031614611db45760405162461bcd60e51b8152600401610b3f90614943565b61013454611dcb906001600160a01b03168461221c565b827fc5beef08f693b11c316c0c8394a377a0033c9cf701b8cd8afd79cecef60c39528383604051611dfd929190614b61565b60405180910390a2505050565b5f54610100900460ff1615808015611e2857505f54600160ff909116105b80611e415750303b158015611e4157505f5460ff166001145b611ea45760405162461bcd60e51b815260206004820152602e60248201527f496e697469616c697a61626c653a20636f6e747261637420697320616c72656160448201526d191e481a5b9a5d1a585b1a5e995960921b6064820152608401610b3f565b5f805460ff191660011790558015611ec5575f805461ff0019166101001790555b61013480546001600160a01b0319166001600160a01b038716179055837f8ffb960699dc2ba88f34d0e41c029c3c36c95149679fe1d0153a9582bec9237880546001600160a01b0319166001600160a01b03929092169190911790556040805180820182526013815272556e73746f707061626c6520446f6d61696e7360681b60208083019190915282518084019093526002835261155160f21b90830152611f6d91613427565b611f75613466565b611f7d613466565b611f868361348e565b611f8f826134bd565b8015610e6d575f805461ff0019169055604051600181527f7f26b83ff96e1f2b6a682f133852f6798a09c465da95921460cefb38474024989060200160405180910390a15050505050565b5f6001600160e01b031982166380ac58cd60e01b148061200a57506001600160e01b03198216635b5e139f60e01b145b8061092957506301ffc9a760e01b6001600160e01b0319831614610929565b5f818152606760205260409020546001600160a01b03166111915760405162461bcd60e51b8152602060048201526018602482015277115490cdcc8c4e881a5b9d985b1a59081d1bdad95b88125160421b6044820152606401610b3f565b3033036120e45761209661307e565b81146111915760405162461bcd60e51b815260206004820152601760248201527f52656769737472793a20544f4b454e5f494e56414c49440000000000000000006044820152606401610b3f565b611191816134ec565b5f6120f782612cb9565b9050806001600160a01b0316836001600160a01b0316036121645760405162461bcd60e51b815260206004820152602160248201527f4552433732313a20617070726f76616c20746f2063757272656e74206f776e656044820152603960f91b6064820152608401610b3f565b806001600160a01b031661217661220e565b6001600160a01b0316148061219257506121928161087461220e565b6122045760405162461bcd60e51b815260206004820152603e60248201527f4552433732313a20617070726f76652063616c6c6572206973206e6f7420746f60448201527f6b656e206f776e6572206e6f7220617070726f76656420666f7220616c6c00006064820152608401610b3f565b6109f88383613518565b5f612217613585565b905090565b6001600160a01b0382166122725760405162461bcd60e51b815260206004820181905260248201527f4552433732313a206d696e7420746f20746865207a65726f20616464726573736044820152606401610b3f565b5f818152606760205260409020546001600160a01b0316156122d65760405162461bcd60e51b815260206004820152601c60248201527f4552433732313a20746f6b656e20616c7265616479206d696e746564000000006044820152606401610b3f565b6122e15f838361359f565b6001600160a01b0382165f908152606860205260408120805460019290612309908490614d37565b90915550505f8181526067602052604080822080546001600160a01b0319166001600160a01b03861690811790915590518392907fddf252ad1be2c89b69c2b068fc378daa952ba7f163c4a11628f55a4df523b3ef908290a45050565b5f61236f61297f565b905061237b8183613518565b5f8051602061508f83398151915254604080516020808201869052825180830390910181528183019283905263e3dec8fb60e01b9092526001600160a01b0390921691829163e3dec8fb916123d7918891309190604401614d4a565b5f604051808303815f87803b1580156123ee575f80fd5b505af1158015612400573d5f803e3d5ffd5b5050505050505050565b6060610d85836040516020016124209190614a21565b604051602081830303815290604052805190602001205f1c83613679565b6060612449856134ec565b5f80876001600160a01b0316866124628b8a8989613091565b60405161246f9190614a21565b5f604051808303815f8787f1925050503d805f81146124a9576040519150601f19603f3d011682016040523d82523d5f602084013e6124ae565b606091505b5090925090506124bf603f87614d89565b5a116124cd576124cd614d9c565b61250d82826040518060400160405280601a81526020017f42617365466f727761726465723a2043414c4c5f4641494c4544000000000000815250613754565b9998505050505050505050565b80515f9081905b801561256b57829150612557828561253a600185614db0565b8151811061254a5761254a6148ed565b602002602001015161378d565b92508061256381614dc3565b915050612521565b50915091565b5f5b84811015611139576125cc868683818110612590576125906148ed565b90506020028101906125a29190614901565b8686858181106125b4576125b46148ed565b90506020028101906125c69190614901565b86612b1b565b600101612573565b60605f825f815181106125e9576125e96148ed565b602002602001015190505f600190505b8351811015611d725781848281518110612615576126156148ed565b602002602001015160405160200161262e929190614dd8565b60408051601f1981840301815291905291506001016125f9565b61dead6001600160a01b0384161480159061267957506001600160a01b0383165f9081526101356020526040902054155b156109f8576109f8838383612d18565b5f80612694836111f3565b90506001600160a01b03811615801590610c7c5750806001600160a01b0316846001600160a01b031614806126ed57506001600160a01b038082165f908152606a602090815260408083209388168352929052205460ff165b80610c7c5750836001600160a01b0316612706846109bf565b6001600160a01b031614949350505050565b61272181613837565b60405160200161273391815260200190565b60408051601f1981840301815282825280516020918201205f85815260cb9092529181209190915582917f185c30856dadb58bf097c1f665a52ada7029752dbcad008ea3fefc73bee8c9fe9190a250565b826001600160a01b031661279782612cb9565b6001600160a01b0316146127fb5760405162461bcd60e51b815260206004820152602560248201527f4552433732313a207472616e736665722066726f6d20696e636f72726563742060448201526437bbb732b960d91b6064820152608401610b3f565b6001600160a01b03821661285d5760405162461bcd60e51b8152602060048201526024808201527f4552433732313a207472616e7366657220746f20746865207a65726f206164646044820152637265737360e01b6064820152608401610b3f565b61286883838361359f565b6128725f82613518565b6001600160a01b0383165f90815260686020526040812080546001929061289a908490614db0565b90915550506001600160a01b0382165f9081526068602052604081208054600192906128c7908490614d37565b90915550505f8181526067602052604080822080546001600160a01b0319166001600160a01b0386811691821790925591518493918716917fddf252ad1be2c89b69c2b068fc378daa952ba7f163c4a11628f55a4df523b3ef91a4505050565b5f5b8481101561113957612977868683818110612946576129466148ed565b9050602002013585858481811061295f5761295f6148ed565b90506020028101906129719190614901565b85612bf6565b600101612929565b5f8051602061508f833981519152545f906001600160a01b03168015612a755760405163721804d360e11b81523060048201525f906001600160a01b0383169063e43009a690602401602060405180830381865afa1580156129e3573d5f803e3d5ffd5b505050506040513d601f19601f82011682018060405250810190612a079190614e13565b60405163e66f960360e01b8152600481018290529091506001600160a01b0383169063e66f960390602401602060405180830381865afa158015612a4d573d5f803e3d5ffd5b505050506040513d601f19601f82011682018060405250810190612a719190614e2a565b9250505b5090565b5f612a8382612cb9565b9050612a90815f8461359f565b612a9a5f83613518565b6001600160a01b0381165f908152606860205260408120805460019290612ac2908490614db0565b90915550505f8281526067602052604080822080546001600160a01b0319169055518391906001600160a01b038416907fddf252ad1be2c89b69c2b068fc378daa952ba7f163c4a11628f55a4df523b3ef908390a45050565b5f8585604051602001612b2f929190614e45565b60408051601f198184030181528282528051602091820120601f8901829004820284018201909252878352909250612b8291839189908990819084018382808284375f92019190915250612c9592505050565b6111398187878080601f0160208091040260200160405190810160405280939291908181526020018383808284375f9201919091525050604080516020601f8b0181900481028201810190925289815292508991508890819084018382808284375f9201919091525088925061385d915050565b612bff84613989565b612c4b5760405162461bcd60e51b815260206004820152601c60248201527f5265636f726453746f726167653a204b45595f4e4f545f464f554e44000000006044820152606401610b3f565b61146684612c5886611904565b85858080601f0160208091040260200160405190810160405280939291908181526020018383808284375f9201919091525087925061385d915050565b612c9e82613989565b61104f575f82815260c9602052604090206109f88282614e54565b5f818152606760205260408120546001600160a01b0316806109295760405162461bcd60e51b8152602060048201526018602482015277115490cdcc8c4e881a5b9d985b1a59081d1bdad95b88125160421b6044820152606401610b3f565b5f828152610138602052604090208054612d31906148a2565b90505f03612d53575f82815261013860205260409020612d518282614e54565b505b6001600160a01b0383165f8181526101356020526040808220859055518492917feb76a21470988c474a21f690cc28fee1ed511bd812dc3c21fd0f49c5e5d4708a91a3505050565b606080612da784611904565b9150612db38484613679565b90509250929050565b5f818152610137602052604081205460ff16801561092957506101365f612de161220e565b6001600160a01b0316815260208101919091526040015f205460ff1692915050565b5f8051602061508f83398151915254604051633805550f60e01b81526001600160a01b03909116908190633805550f90612e439086908690600401614b61565b5f604051808303815f87803b158015612e5a575f80fd5b505af1158015610ec1573d5f803e3d5ffd5b816001600160a01b0316836001600160a01b031603612ecd5760405162461bcd60e51b815260206004820152601960248201527f4552433732313a20617070726f766520746f2063616c6c6572000000000000006044820152606401610b3f565b6001600160a01b038381165f818152606a6020908152604080832094871680845294825291829020805460ff191686151590811790915591519182527f17307eab39ab6107e8899845ad3d59bd9653f200f220920489ca2b5937696c31910160405180910390a3505050565b6040838101519051636ccbae5f60e01b815260048101919091525f9081903090636ccbae5f90602401602060405180830381865afa158015612f7d573d5f803e3d5ffd5b505050506040513d601f19601f82011682018060405250810190612fa19190614e13565b90505f61304e866060015180519060200120868860200151604051602001612fee9392919092835260609190911b6bffffffffffffffffffffffff19166020830152603482015260540190565b60408051601f1981840301815282825280516020918201207f19457468657265756d205369676e6564204d6573736167653a0a33320000000084830152603c8085019190915282518085039091018152605c909301909152815191012090565b905081866020015114801561307457508551613074906001600160a01b031682866139ae565b9695505050505050565b5f30330361308e5750601f193601355b90565b60608285856040516020016130a893929190614f0f565b6040516020818303038152906040529050949350505050565b606081516001600160401b038111156130dc576130dc61434d565b60405190808252806020026020018201604052801561310f57816020015b60608152602001906001900390816130fa5790505b5090505f5b82518110156113c0575f80306001600160a01b031685848151811061313b5761313b6148ed565b60200260200101516040516131509190614a21565b5f60405180830381855af49150503d805f8114613188576040519150601f19603f3d011682016040523d82523d5f602084013e61318d565b606091505b50915091506131b582826040518060600160405280602781526020016150af60279139613754565b8484815181106131c7576131c76148ed565b60209081029190910101525050600101613114565b6131e7848484612784565b6131f384848484613ae9565b6114665760405162461bcd60e51b8152600401610b3f90614f4d565b5f818152610137602052604090205460ff16156111915760405162461bcd60e51b815260206004820152601860248201527f52656769737472793a20544f4b454e5f555047524144454400000000000000006044820152606401610b3f565b613278848461221c565b827fc5beef08f693b11c316c0c8394a377a0033c9cf701b8cd8afd79cecef60c3952836040516132a89190613e32565b60405180910390a2801561146657611466848484612648565b6060610133805461093e906148a2565b6060815f036132f75750506040805180820190915260018152600360fc1b602082015290565b815f5b8115613320578061330a81614f9f565b91506133199050600a83614d89565b91506132fa565b5f816001600160401b038111156133395761333961434d565b6040519080825280601f01601f191660200182016040528015613363576020820181803683370190505b5090505b8415610c7c57613378600183614db0565b9150613385600a86614fb7565b613390906030614d37565b60f81b8183815181106133a5576133a56148ed565b60200101906001600160f81b03191690815f1a9053506133c6600a86614d89565b9450613367565b6133d681612718565b610e6d8585858585612571565b6001600160a01b0381165f8181526101356020526040808220829055517ffcf5eec0cfa3e6332f5f0e63ec242d71f866a61d121d6cdf5c2eb3b668a26c4f9190a250565b5f54610100900460ff1661344d5760405162461bcd60e51b8152600401610b3f90614fca565b60656134598382614e54565b5060666109f88282614e54565b5f54610100900460ff1661348c5760405162461bcd60e51b8152600401610b3f90614fca565b565b5f54610100900460ff166134b45760405162461bcd60e51b8152600401610b3f90614fca565b61119181613bea565b5f54610100900460ff166134e35760405162461bcd60e51b8152600401610b3f90614fca565b61119181613c41565b5f8181526101006020526040902054613506906001614d37565b5f918252610100602052604090912055565b5f81815260696020526040902080546001600160a01b0319166001600160a01b038416908117909155819061354c82612cb9565b6001600160a01b03167f8c5be1e5ebec7d5bd14f71427d1e84f3dd0314c0f7b2291e5b200ac8c7c3b92560405160405180910390a45050565b5f30330361359a575060331936013560601c90565b503390565b6001600160a01b0382166135b6576135b68161320f565b5f81815261013960205260409020546001600160401b031615613650576001600160a01b0382161580159061360457506135ee61297f565b6001600160a01b0316826001600160a01b031614155b6136505760405162461bcd60e51b815260206004820152601960248201527f52656769737472793a20544f4b454e5f455850495241424c45000000000000006044820152606401610b3f565b6001600160a01b0383165f90815261013560205260409020548190036109f8576109f8836133e3565b606061368482612dbc565b1561369d575060408051602081019091525f8152610929565b60ca5f6136a984613837565b81526020019081526020015f205f8481526020019081526020015f2080546136d0906148a2565b80601f01602080910402602001604051908101604052809291908181526020018280546136fc906148a2565b80156137475780601f1061371e57610100808354040283529160200191613747565b820191905f5260205f20905b81548152906001019060200180831161372a57829003601f168201915b5050505050905092915050565b60608315613763575081610d85565b8251156137735782518084602001fd5b8160405162461bcd60e51b8152600401610b3f9190613e32565b5f81515f036137d65760405162461bcd60e51b815260206004820152601560248201527452656769737472793a204c4142454c5f454d50545960581b6044820152606401610b3f565b82826040516020016137e89190614a21565b60405160208183030381529060405280519060200120604051602001613818929190918252602082015260400190565b60408051601f1981840301815291905280516020909101209392505050565b5f81815260cb602052604081205415612a75575f82815260cb6020526040902054610929565b60ca5f61386983613837565b81526020019081526020015f205f8581526020019081526020015f208054613890906148a2565b90505f036138e757826040516138a69190614a21565b6040518091039020817f7ae4f661958fbecc2f77be6b0eb280d2a6f604b29e1e7221c82b9da0c4af7f86856040516138de9190613e32565b60405180910390a35b8160ca5f6138f484613837565b81526020019081526020015f205f8681526020019081526020015f20908161391c9190614e54565b508160405161392b9190614a21565b6040518091039020836040516139419190614a21565b6040518091039020827f851ffe8e74d5015261dba0a1f9e1b0e5d42c5af5d2ad1908fee897c7d80a0d92868660405161397b929190614542565b60405180910390a450505050565b5f81815260c96020526040812080548291906139a4906148a2565b9050119050919050565b5f805f6139bb8585613c8e565b90925090505f8160048111156139d3576139d3615015565b1480156139f15750856001600160a01b0316826001600160a01b0316145b15613a0157600192505050610d85565b5f80876001600160a01b0316631626ba7e60e01b8888604051602401613a28929190615029565b60408051601f198184030181529181526020820180516001600160e01b03166001600160e01b0319909416939093179092529051613a669190614a21565b5f60405180830381855afa9150503d805f8114613a9e576040519150601f19603f3d011682016040523d82523d5f602084013e613aa3565b606091505b5091509150818015613ab6575080516020145b8015613add57508051630b135d3f60e11b90613adb9083016020908101908401614e13565b145b98975050505050505050565b5f6001600160a01b0384163b15613be257836001600160a01b031663150b7a02613b1161220e565b8786866040518563ffffffff1660e01b8152600401613b339493929190615041565b6020604051808303815f875af1925050508015613b6d575060408051601f3d908101601f19168201909252613b6a91810190615073565b60015b613bc8573d808015613b9a576040519150601f19603f3d011682016040523d82523d5f602084013e613b9f565b606091505b5080515f03613bc05760405162461bcd60e51b8152600401610b3f90614f4d565b805181602001fd5b6001600160e01b031916630a85bd0160e11b149050610c7c565b506001610c7c565b5f54610100900460ff16613c105760405162461bcd60e51b8152600401610b3f90614fca565b805f8051602061508f8339815191525b80546001600160a01b0319166001600160a01b039290921691909117905550565b5f54610100900460ff16613c675760405162461bcd60e51b8152600401610b3f90614fca565b807f8bea9a6f8afd34f4e29c585f854e0cc5161431bf5fc299d468454d33dce53b87613c20565b5f808251604103613cc2576020830151604084015160608501515f1a613cb687828585613cd0565b94509450505050613cc9565b505f905060025b9250929050565b5f807f7fffffffffffffffffffffffffffffff5d576e7357a4501ddfe92f46681b20a0831115613d0557505f90506003613dac565b8460ff16601b14158015613d1d57508460ff16601c14155b15613d2d57505f90506004613dac565b604080515f8082526020820180845289905260ff881692820192909252606081018690526080810185905260019060a0016020604051602081039080840390855afa158015613d7e573d5f803e3d5ffd5b5050604051601f1901519150506001600160a01b038116613da6575f60019250925050613dac565b91505f90505b94509492505050565b6001600160e01b031981168114611191575f80fd5b5f60208284031215613dda575f80fd5b8135610d8581613db5565b5f5b83811015613dff578181015183820152602001613de7565b50505f910152565b5f8151808452613e1e816020860160208601613de5565b601f01601f19169290920160200192915050565b602081525f610d856020830184613e07565b5f60208284031215613e54575f80fd5b5035919050565b6001600160a01b0381168114611191575f80fd5b5f8060408385031215613e80575f80fd5b8235613e8b81613e5b565b946020939093013593505050565b5f8083601f840112613ea9575f80fd5b5081356001600160401b03811115613ebf575f80fd5b602083019150836020828501011115613cc9575f80fd5b5f805f805f60808688031215613eea575f80fd5b8535613ef581613e5b565b94506020860135613f0581613e5b565b93506040860135925060608601356001600160401b03811115613f26575f80fd5b613f3288828901613e99565b969995985093965092949392505050565b5f8083601f840112613f53575f80fd5b5081356001600160401b03811115613f69575f80fd5b6020830191508360208260051b8501011115613cc9575f80fd5b5f805f60408486031215613f95575f80fd5b83356001600160401b03811115613faa575f80fd5b613fb686828701613f43565b909790965060209590950135949350505050565b5f8282518085526020808601955060208260051b840101602086015f5b8481101561401557601f19868403018952614003838351613e07565b98840198925090830190600101613fe7565b5090979650505050505050565b602081525f610d856020830184613fca565b5f805f60408486031215614046575f80fd5b83356001600160401b0381111561405b575f80fd5b613fb686828701613e99565b5f805f60408486031215614079575f80fd5b83356001600160401b038082111561408f575f80fd5b90850190608082880312156140a2575f80fd5b909350602085013590808211156140b7575f80fd5b506140c486828701613e99565b9497909650939450505050565b8035801515811461120a575f80fd5b5f805f805f805f8060a0898b0312156140f7575f80fd5b883561410281613e5b565b975060208901356001600160401b038082111561411d575f80fd5b6141298c838d01613f43565b909950975060408b0135915080821115614141575f80fd5b61414d8c838d01613f43565b909750955060608b0135915080821115614165575f80fd5b506141728b828c01613f43565b9094509250614185905060808a016140d1565b90509295985092959890939650565b5f805f606084860312156141a6575f80fd5b83356141b181613e5b565b925060208401356141c181613e5b565b929592945050506040919091013590565b5f80602083850312156141e3575f80fd5b82356001600160401b038111156141f8575f80fd5b61420485828601613f43565b90969095509350505050565b5f805f805f60608688031215614224575f80fd5b85356001600160401b038082111561423a575f80fd5b61424689838a01613f43565b9097509550602088013591508082111561425e575f80fd5b5061426b88828901613f43565b96999598509660400135949350505050565b5f806040838503121561428e575f80fd5b82356001600160401b0381168114613e8b575f80fd5b5f805f805f606086880312156142b8575f80fd5b85356001600160401b03808211156142ce575f80fd5b6142da89838a01613e99565b909750955060208801359150808211156142f2575f80fd5b5061426b88828901613e99565b5f805f8060608587031215614312575f80fd5b8435935060208501356001600160401b0381111561432e575f80fd5b61433a87828801613e99565b9598909750949560400135949350505050565b634e487b7160e01b5f52604160045260245ffd5b604051601f8201601f191681016001600160401b03811182821017156143895761438961434d565b604052919050565b5f82601f8301126143a0575f80fd5b81356001600160401b038111156143b9576143b961434d565b6143cc601f8201601f1916602001614361565b8181528460208386010111156143e0575f80fd5b816020850160208301375f918101602001919091529392505050565b5f6020828403121561440c575f80fd5b81356001600160401b03811115614421575f80fd5b610c7c84828501614391565b5f6020828403121561443d575f80fd5b8135610d8581613e5b565b5f6001600160401b038211156144605761446061434d565b5060051b60200190565b5f61447c61447784614448565b614361565b8381529050602080820190600585901b84018681111561449a575f80fd5b845b818110156144d35780356001600160401b038111156144b9575f80fd5b6144c589828901614391565b85525092820192820161449c565b505050509392505050565b5f602082840312156144ee575f80fd5b81356001600160401b03811115614503575f80fd5b8201601f81018413614513575f80fd5b610c7c8482356020840161446a565b5f8060408385031215614533575f80fd5b50508035926020909101359150565b604081525f6145546040830185613e07565b8281036020840152610d818185613e07565b5f805f8060608587031215614579575f80fd5b843561458481613e5b565b93506020850135925060408501356001600160401b038111156145a5575f80fd5b6145b187828801613e99565b95989497509550505050565b5f805f805f805f6080888a0312156145d3575f80fd5b87356001600160401b03808211156145e9575f80fd5b6145f58b838c01613e99565b909950975060208a0135965060408a0135915080821115614614575f80fd5b6146208b838c01613f43565b909650945060608a0135915080821115614638575f80fd5b506146458a828b01613f43565b989b979a50959850939692959293505050565b5f8060208385031215614669575f80fd5b82356001600160401b0381111561467e575f80fd5b61420485828601613e99565b5f806040838503121561469b575f80fd5b82356146a681613e5b565b9150612db3602084016140d1565b5f60208083016020845280855180835260408601915060408160051b8701019250602087015f5b8281101561470957603f198886030184526146f7858351613e07565b945092850192908501906001016146db565b5092979650505050505050565b604081525f6147286040830185613fca565b8281036020840152610d818185613fca565b5f805f806080858703121561474d575f80fd5b843561475881613e5b565b9350602085013561476881613e5b565b92506040850135915060608501356001600160401b03811115614789575f80fd5b61479587828801614391565b91505092959194509250565b5f805f604084860312156147b3575f80fd5b83356147be81613e5b565b925060208401356001600160401b038111156147d8575f80fd5b6140c486828701613e99565b5f80604083850312156147f5575f80fd5b823561480081613e5b565b9150602083013561481081613e5b565b809150509250929050565b5f805f6040848603121561482d575f80fd5b8335925060208401356001600160401b038111156147d8575f80fd5b5f805f806080858703121561485c575f80fd5b843561486781613e5b565b9350602085013561487781613e5b565b9250604085013561488781613e5b565b9150606085013561489781613e5b565b939692955090935050565b600181811c908216806148b657607f821691505b6020821081036113c057634e487b7160e01b5f52602260045260245ffd5b5f602082840312156148e4575f80fd5b610d85826140d1565b634e487b7160e01b5f52603260045260245ffd5b5f808335601e19843603018112614916575f80fd5b8301803591506001600160401b0382111561492f575f80fd5b602001915036819003821315613cc9575f80fd5b60208082526027908201527f52656769737472793a2053454e4445525f49535f4e4f545f4d494e54494e475f60408201526626a0a720a3a2a960c91b606082015260800190565b5f610d8536848461446a565b60208082526029908201527f52656769737472793a2053454e4445525f49535f4e4f545f415050524f5645446040820152682fa7a92fa7aba722a960b91b606082015260800190565b60208082526022908201527f52656769737472793a20494e53554646494349454e545f5045524d495353494f6040820152614e5360f01b606082015260800190565b5f8251614a32818460208701613de5565b9190910192915050565b601f8211156109f857805f5260205f20601f840160051c81016020851015614a615750805b601f840160051c820191505b81811015610e6d575f8155600101614a6d565b6001600160401b03831115614a9757614a9761434d565b614aab83614aa583546148a2565b83614a3c565b5f601f841160018114614adc575f8515614ac55750838201355b5f19600387901b1c1916600186901b178355610e6d565b5f83815260208120601f198716915b82811015614b0b5786850135825560209485019460019092019101614aeb565b5086821015614b27575f1960f88860031b161c19848701351681555b505060018560011b0183555050505050565b81835281816020850137505f828201602090810191909152601f909101601f19169091010190565b602081525f610c7c602083018486614b39565b5f60808236031215614b84575f80fd5b604051608081016001600160401b038282108183111715614ba757614ba761434d565b8160405284359150614bb882613e5b565b81835260208501356020840152604085013560408401526060850135915080821115614be2575f80fd5b50614bef36828601614391565b60608301525092915050565b5f614c0861447784614448565b80848252602080830192508560051b850136811115614c25575f80fd5b855b81811015614c5e5780356001600160401b03811115614c44575f80fd5b614c5036828a01614391565b865250938201938201614c27565b50919695505050505050565b5f8351614c7b818460208801613de5565b835190830190614c8f818360208801613de5565b01949350505050565b5f6020808385031215614ca9575f80fd5b82356001600160401b03811115614cbe575f80fd5b8301601f81018513614cce575f80fd5b8035614cdc61447782614448565b81815260059190911b82018301908381019087831115614cfa575f80fd5b928401925b82841015614d1857833582529284019290840190614cff565b979650505050505050565b634e487b7160e01b5f52601160045260245ffd5b8082018082111561092957610929614d23565b6001600160a01b038481168252831660208201526060604082018190525f90610b4890830184613e07565b634e487b7160e01b5f52601260045260245ffd5b5f82614d9757614d97614d75565b500490565b634e487b7160e01b5f52600160045260245ffd5b8181038181111561092957610929614d23565b5f81614dd157614dd1614d23565b505f190190565b5f8351614de9818460208801613de5565b601760f91b9083019081528351614e07816001840160208801613de5565b01600101949350505050565b5f60208284031215614e23575f80fd5b5051919050565b5f60208284031215614e3a575f80fd5b8151610d8581613e5b565b818382375f9101908152919050565b81516001600160401b03811115614e6d57614e6d61434d565b614e8181614e7b84546148a2565b84614a3c565b602080601f831160018114614eb4575f8415614e9d5750858301515b5f19600386901b1c1916600185901b178555611139565b5f85815260208120601f198616915b82811015614ee257888601518255948401946001909101908401614ec3565b5085821015614eff57878501515f19600388901b60f8161c191681555b5050505050600190811b01905550565b5f8451614f20818460208901613de5565b60609490941b6bffffffffffffffffffffffff191691909301908152601481019190915260340192915050565b60208082526032908201527f4552433732313a207472616e7366657220746f206e6f6e20455243373231526560408201527131b2b4bb32b91034b6b83632b6b2b73a32b960711b606082015260800190565b5f60018201614fb057614fb0614d23565b5060010190565b5f82614fc557614fc5614d75565b500690565b6020808252602b908201527f496e697469616c697a61626c653a20636f6e7472616374206973206e6f74206960408201526a6e697469616c697a696e6760a81b606082015260800190565b634e487b7160e01b5f52602160045260245ffd5b828152604060208201525f610c7c6040830184613e07565b6001600160a01b03858116825284166020820152604081018390526080606082018190525f9061307490830184613e07565b5f60208284031215615083575f80fd5b8151610d8581613db556febe2bb46ac0377341a1ec5c3116d70fd5029d704bd46292e58f6265dd177ebafe416464726573733a206c6f772d6c6576656c2064656c65676174652063616c6c206661696c6564a164736f6c6343000818000a",
  "linkReferences": {},
  "deployedLinkReferences": {}
}