{
  "_format": "hh-sol-artifact-1",
  "contractName": "UNSRegistry",
  "sourceName": "contracts/UNSRegistry.sol",
  "abi": [
    {
      "anonymous": false,
      "inputs": [
        {
          "indexed": false,
          "internalType": "address",
          "name": "previousAdmin",
          "type": "address"
        },
        {
          "indexed": false,
          "internalType": "address",
          "name": "newAdmin",
          "type": "address"
        }
      ],
      "name": "AdminChanged",
      "type": "event"
    },
    {
      "anonymous": false,
      "inputs": [
        {
          "indexed": true,
          "internalType": "address",
          "name": "owner",
          "type": "address"
        },
        {
          "indexed": true,
          "internalType": "address",
          "name": "approved",
          "type": "address"
        },
        {
          "indexed": true,
          "internalType": "uint256",
          "name": "tokenId",
          "type": "uint256"
        }
      ],
      "name": "Approval",
      "type": "event"
    },
    {
      "anonymous": false,
      "inputs": [
        {
          "indexed": true,
          "internalType": "address",
          "name": "owner",
          "type": "address"
        },
        {
          "indexed": true,
          "internalType": "address",
          "name": "operator",
          "type": "address"
        },
        {
          "indexed": false,
          "internalType": "bool",
          "name": "approved",
          "type": "bool"
        }
      ],
      "name": "ApprovalForAll",
      "type": "event"
    },
    {
      "anonymous": false,
      "inputs": [
        {
          "indexed": false,
          "internalType": "uint8",
          "name": "version",
          "type": "uint8"
        }
      ],
      "name": "Initialized",
      "type": "event"
    },
    {
      "anonymous": false,
      "inputs": [
        {
          "indexed": true,
          "internalType": "uint256",
          "name": "tokenId",
          "type": "uint256"
        },
        {
          "indexed": true,
          "internalType": "string",
          "name": "keyIndex",
          "type": "string"
        },
        {
          "indexed": false,
          "internalType": "string",
          "name": "key",
          "type": "string"
        }
      ],
      "name": "NewKey",
      "type": "event"
    },
    {
      "anonymous": false,
      "inputs": [
        {
          "indexed": true,
          "internalType": "uint256",
          "name": "tokenId",
          "type": "uint256"
        },
        {
          "indexed": false,
          "internalType": "string",
          "name": "uri",
          "type": "string"
        }
      ],
      "name": "NewURI",
      "type": "event"
    },
    {
      "anonymous": false,
      "inputs": [
        {
          "indexed": false,
          "internalType": "string",
          "name": "prefix",
          "type": "string"
        }
      ],
      "name": "NewURIPrefix",
      "type": "event"
    },
    {
      "anonymous": false,
      "inputs": [
        {
          "indexed": true,
          "internalType": "address",
          "name": "addr",
          "type": "address"
        }
      ],
      "name": "RemoveReverse",
      "type": "event"
    },
    {
      "anonymous": false,
      "inputs": [
        {
          "indexed": true,
          "internalType": "uint256",
          "name": "tokenId",
          "type": "uint256"
        }
      ],
      "name": "ResetRecords",
      "type": "event"
    },
    {
      "anonymous": false,
      "inputs": [
        {
          "indexed": true,
          "internalType": "uint256",
          "name": "tokenId",
          "type": "uint256"
        },
        {
          "indexed": true,
          "internalType": "string",
          "name": "keyIndex",
          "type": "string"
        },
        {
          "indexed": true,
          "internalType": "string",
          "name": "valueIndex",
          "type": "string"
        },
        {
          "indexed": false,
          "internalType": "string",
          "name": "key",
          "type": "string"
        },
        {
          "indexed": false,
          "internalType": "string",
          "name": "value",
          "type": "string"
        }
      ],
      "name": "Set",
      "type": "event"
    },
    {
      "anonymous": false,
      "inputs": [
        {
          "indexed": true,
          "internalType": "address",
          "name": "addr",
          "type": "address"
        },
        {
          "indexed": true,
          "internalType": "uint256",
          "name": "tokenId",
          "type": "uint256"
        }
      ],
      "name": "SetReverse",
      "type": "event"
    },
    {
      "anonymous": false,
      "inputs": [
        {
          "indexed": true,
          "internalType": "address",
          "name": "from",
          "type": "address"
        },
        {
          "indexed": true,
          "internalType": "address",
          "name": "to",
          "type": "address"
        },
        {
          "indexed": true,
          "internalType": "uint256",
          "name": "tokenId",
          "type": "uint256"
        }
      ],
      "name": "Transfer",
      "type": "event"
    },
    {
      "anonymous": false,
      "inputs": [
        {
          "indexed": true,
          "internalType": "address",
          "name": "implementation",
          "type": "address"
        }
      ],
      "name": "Upgraded",
      "type": "event"
    },
    {
      "anonymous": false,
      "inputs": [
        {
          "indexed": true,
          "internalType": "address",
          "name": "user",
          "type": "address"
        },
        {
          "indexed": false,
          "internalType": "uint256[]",
          "name": "tokenIds",
          "type": "uint256[]"
        }
      ],
      "name": "WithdrawnBatch",
      "type": "event"
    },
    {
      "inputs": [],
      "name": "BATCH_LIMIT",
      "outputs": [
        {
          "internalType": "uint256",
          "name": "",
          "type": "uint256"
        }
      ],
      "stateMutability": "view",
      "type": "function"
    },
    {
      "inputs": [],
      "name": "NAME",
      "outputs": [
        {
          "internalType": "string",
          "name": "",
          "type": "string"
        }
      ],
      "stateMutability": "view",
      "type": "function"
    },
    {
      "inputs": [],
      "name": "VERSION",
      "outputs": [
        {
          "internalType": "string",
          "name": "",
          "type": "string"
        }
      ],
      "stateMutability": "view",
      "type": "function"
    },
    {
      "inputs": [
        {
          "internalType": "string",
          "name": "key",
          "type": "string"
        }
      ],
      "name": "addKey",
      "outputs": [],
      "stateMutability": "nonpayable",
      "type": "function"
    },
    {
      "inputs": [
        {
          "internalType": "address",
          "name": "addr",
          "type": "address"
        }
      ],
      "name": "addProxyReader",
      "outputs": [],
      "stateMutability": "nonpayable",
      "type": "function"
    },
    {
      "inputs": [
        {
          "internalType": "address",
          "name": "to",
          "type": "address"
        },
        {
          "internalType": "uint256",
          "name": "tokenId",
          "type": "uint256"
        }
      ],
      "name": "approve",
      "outputs": [],
      "stateMutability": "nonpayable",
      "type": "function"
    },
    {
      "inputs": [
        {
          "internalType": "address",
          "name": "owner",
          "type": "address"
        }
      ],
      "name": "balanceOf",
      "outputs": [
        {
          "internalType": "uint256",
          "name": "",
          "type": "uint256"
        }
      ],
      "stateMutability": "view",
      "type": "function"
    },
    {
      "inputs": [
        {
          "internalType": "uint256",
          "name": "tokenId",
          "type": "uint256"
        }
      ],
      "name": "burn",
      "outputs": [],
      "stateMutability": "nonpayable",
      "type": "function"
    },
    {
      "inputs": [
        {
          "internalType": "uint256",
          "name": "tokenId",
          "type": "uint256"
        }
      ],
      "name": "burnTLDL1",
      "outputs": [],
      "stateMutability": "nonpayable",
      "type": "function"
    },
    {
      "inputs": [
        {
          "internalType": "address",
          "name": "user",
          "type": "address"
        },
        {
          "internalType": "bytes",
          "name": "depositData",
          "type": "bytes"
        }
      ],
      "name": "deposit",
      "outputs": [],
      "stateMutability": "nonpayable",
      "type": "function"
    },
    {
      "inputs": [
        {
          "internalType": "uint256",
          "name": "tokenId",
          "type": "uint256"
        }
      ],
      "name": "depositToPolygon",
      "outputs": [],
      "stateMutability": "nonpayable",
      "type": "function"
    },
    {
      "inputs": [
        {
          "components": [
            {
              "internalType": "address",
              "name": "from",
              "type": "address"
            },
            {
              "internalType": "uint256",
              "name": "nonce",
              "type": "uint256"
            },
            {
              "internalType": "uint256",
              "name": "tokenId",
              "type": "uint256"
            },
            {
              "internalType": "bytes",
              "name": "data",
              "type": "bytes"
            }
          ],
          "internalType": "struct IForwarder.ForwardRequest",
          "name": "req",
          "type": "tuple"
        },
        {
          "internalType": "bytes",
          "name": "signature",
          "type": "bytes"
        }
      ],
      "name": "execute",
      "outputs": [
        {
          "internalType": "bytes",
          "name": "",
          "type": "bytes"
        }
      ],
      "stateMutability": "nonpayable",
      "type": "function"
    },
    {
      "inputs": [
        {
          "internalType": "uint256",
          "name": "tokenId",
          "type": "uint256"
        }
      ],
      "name": "exists",
      "outputs": [
        {
          "internalType": "bool",
          "name": "",
          "type": "bool"
        }
      ],
      "stateMutability": "view",
      "type": "function"
    },
    {
      "inputs": [
        {
          "internalType": "string",
          "name": "key",
          "type": "string"
        },
        {
          "internalType": "uint256",
          "name": "tokenId",
          "type": "uint256"
        }
      ],
      "name": "get",
      "outputs": [
        {
          "internalType": "string",
          "name": "value",
          "type": "string"
        }
      ],
      "stateMutability": "view",
      "type": "function"
    },
    {
      "inputs": [
        {
          "internalType": "uint256",
          "name": "tokenId",
          "type": "uint256"
        }
      ],
      "name": "getApproved",
      "outputs": [
        {
          "internalType": "address",
          "name": "",
          "type": "address"
        }
      ],
      "stateMutability": "view",
      "type": "function"
    },
    {
      "inputs": [
        {
          "internalType": "uint256",
          "name": "keyHash",
          "type": "uint256"
        },
        {
          "internalType": "uint256",
          "name": "tokenId",
          "type": "uint256"
        }
      ],
      "name": "getByHash",
      "outputs": [
        {
          "internalType": "string",
          "name": "key",
          "type": "string"
        },
        {
          "internalType": "string",
          "name": "value",
          "type": "string"
        }
      ],
      "stateMutability": "view",
      "type": "function"
    },
    {
      "inputs": [
        {
          "internalType": "uint256",
          "name": "keyHash",
          "type": "uint256"
        }
      ],
      "name": "getKey",
      "outputs": [
        {
          "internalType": "string",
          "name": "",
          "type": "string"
        }
      ],
      "stateMutability": "view",
      "type": "function"
    },
    {
      "inputs": [
        {
          "internalType": "uint256[]",
          "name": "hashes",
          "type": "uint256[]"
        }
      ],
      "name": "getKeys",
      "outputs": [
        {
          "internalType": "string[]",
          "name": "values",
          "type": "string[]"
        }
      ],
      "stateMutability": "view",
      "type": "function"
    },
    {
      "inputs": [
        {
          "internalType": "string[]",
          "name": "keys",
          "type": "string[]"
        },
        {
          "internalType": "uint256",
          "name": "tokenId",
          "type": "uint256"
        }
      ],
      "name": "getMany",
      "outputs": [
        {
          "internalType": "string[]",
          "name": "values",
          "type": "string[]"
        }
      ],
      "stateMutability": "view",
      "type": "function"
    },
    {
      "inputs": [
        {
          "internalType": "uint256[]",
          "name": "keyHashes",
          "type": "uint256[]"
        },
        {
          "internalType": "uint256",
          "name": "tokenId",
          "type": "uint256"
        }
      ],
      "name": "getManyByHash",
      "outputs": [
        {
          "internalType": "string[]",
          "name": "keys",
          "type": "string[]"
        },
        {
          "internalType": "string[]",
          "name": "values",
          "type": "string[]"
        }
      ],
      "stateMutability": "view",
      "type": "function"
    },
    {
      "inputs": [
        {
          "internalType": "address",
          "name": "mintingManager",
          "type": "address"
        }
      ],
      "name": "initialize",
      "outputs": [],
      "stateMutability": "nonpayable",
      "type": "function"
    },
    {
      "inputs": [
        {
          "internalType": "address",
          "name": "owner",
          "type": "address"
        },
        {
          "internalType": "address",
          "name": "operator",
          "type": "address"
        }
      ],
      "name": "isApprovedForAll",
      "outputs": [
        {
          "internalType": "bool",
          "name": "",
          "type": "bool"
        }
      ],
      "stateMutability": "view",
      "type": "function"
    },
    {
      "inputs": [
        {
          "internalType": "address",
          "name": "spender",
          "type": "address"
        },
        {
          "internalType": "uint256",
          "name": "tokenId",
          "type": "uint256"
        }
      ],
      "name": "isApprovedOrOwner",
      "outputs": [
        {
          "internalType": "bool",
          "name": "",
          "type": "bool"
        }
      ],
      "stateMutability": "view",
      "type": "function"
    },
    {
      "inputs": [
        {
          "internalType": "address",
          "name": "forwarder",
          "type": "address"
        }
      ],
      "name": "isTrustedForwarder",
      "outputs": [
        {
          "internalType": "bool",
          "name": "",
          "type": "bool"
        }
      ],
      "stateMutability": "view",
      "type": "function"
    },
    {
      "inputs": [
        {
          "internalType": "address",
          "name": "user",
          "type": "address"
        },
        {
          "internalType": "uint256",
          "name": "tokenId",
          "type": "uint256"
        }
      ],
      "name": "mint",
      "outputs": [],
      "stateMutability": "nonpayable",
      "type": "function"
    },
    {
      "inputs": [
        {
          "internalType": "address",
          "name": "user",
          "type": "address"
        },
        {
          "internalType": "uint256",
          "name": "tokenId",
          "type": "uint256"
        },
        {
          "internalType": "bytes",
          "name": "",
          "type": "bytes"
        }
      ],
      "name": "mint",
      "outputs": [],
      "stateMutability": "nonpayable",
      "type": "function"
    },
    {
      "inputs": [
        {
          "internalType": "uint256",
          "name": "tokenId",
          "type": "uint256"
        },
        {
          "internalType": "string",
          "name": "uri",
          "type": "string"
        }
      ],
      "name": "mintTLD",
      "outputs": [],
      "stateMutability": "nonpayable",
      "type": "function"
    },
    {
      "inputs": [
        {
          "internalType": "address",
          "name": "to",
          "type": "address"
        },
        {
          "internalType": "string[]",
          "name": "labels",
          "type": "string[]"
        },
        {
          "internalType": "string[]",
          "name": "keys",
          "type": "string[]"
        },
        {
          "internalType": "string[]",
          "name": "values",
          "type": "string[]"
        }
      ],
      "name": "mintWithRecords",
      "outputs": [],
      "stateMutability": "nonpayable",
      "type": "function"
    },
    {
      "inputs": [
        {
          "internalType": "uint256",
          "name": "tokenId",
          "type": "uint256"
        }
      ],
      "name": "moveTLDOwnershipL2",
      "outputs": [],
      "stateMutability": "nonpayable",
      "type": "function"
    },
    {
      "inputs": [],
      "name": "name",
      "outputs": [
        {
          "internalType": "string",
          "name": "",
          "type": "string"
        }
      ],
      "stateMutability": "view",
      "type": "function"
    },
    {
      "inputs": [
        {
          "internalType": "string[]",
          "name": "labels",
          "type": "string[]"
        }
      ],
      "name": "namehash",
      "outputs": [
        {
          "internalType": "uint256",
          "name": "",
          "type": "uint256"
        }
      ],
      "stateMutability": "pure",
      "type": "function"
    },
    {
      "inputs": [
        {
          "internalType": "uint256",
          "name": "tokenId",
          "type": "uint256"
        }
      ],
      "name": "nonceOf",
      "outputs": [
        {
          "internalType": "uint256",
          "name": "",
          "type": "uint256"
        }
      ],
      "stateMutability": "view",
      "type": "function"
    },
    {
      "inputs": [
        {
          "internalType": "address",
          "name": "",
          "type": "address"
        },
        {
          "internalType": "address",
          "name": "from",
          "type": "address"
        },
        {
          "internalType": "uint256",
          "name": "tokenId",
          "type": "uint256"
        },
        {
          "internalType": "bytes",
          "name": "data",
          "type": "bytes"
        }
      ],
      "name": "onERC721Received",
      "outputs": [
        {
          "internalType": "bytes4",
          "name": "",
          "type": "bytes4"
        }
      ],
      "stateMutability": "nonpayable",
      "type": "function"
    },
    {
      "inputs": [
        {
          "internalType": "uint256",
          "name": "tokenId",
          "type": "uint256"
        }
      ],
      "name": "ownerOf",
      "outputs": [
        {
          "internalType": "address",
          "name": "",
          "type": "address"
        }
      ],
      "stateMutability": "view",
      "type": "function"
    },
    {
      "inputs": [
        {
          "internalType": "string[]",
          "name": "keys",
          "type": "string[]"
        },
        {
          "internalType": "string[]",
          "name": "values",
          "type": "string[]"
        },
        {
          "internalType": "uint256",
          "name": "tokenId",
          "type": "uint256"
        }
      ],
      "name": "reconfigure",
      "outputs": [],
      "stateMutability": "nonpayable",
      "type": "function"
    },
    {
      "inputs": [],
      "name": "removeReverse",
      "outputs": [],
      "stateMutability": "nonpayable",
      "type": "function"
    },
    {
      "inputs": [
        {
          "internalType": "uint256",
          "name": "tokenId",
          "type": "uint256"
        }
      ],
      "name": "reset",
      "outputs": [],
      "stateMutability": "nonpayable",
      "type": "function"
    },
    {
      "inputs": [
        {
          "internalType": "uint256",
          "name": "tokenId",
          "type": "uint256"
        }
      ],
      "name": "resolverOf",
      "outputs": [
        {
          "internalType": "address",
          "name": "",
          "type": "address"
        }
      ],
      "stateMutability": "view",
      "type": "function"
    },
    {
      "inputs": [
        {
          "internalType": "address",
          "name": "addr",
          "type": "address"
        }
      ],
      "name": "reverseOf",
      "outputs": [
        {
          "internalType": "uint256",
          "name": "reverse",
          "type": "uint256"
        }
      ],
      "stateMutability": "view",
      "type": "function"
    },
    {
      "inputs": [],
      "name": "root",
      "outputs": [
        {
          "internalType": "uint256",
          "name": "",
          "type": "uint256"
        }
      ],
      "stateMutability": "pure",
      "type": "function"
    },
    {
      "inputs": [
        {
          "internalType": "address",
          "name": "from",
          "type": "address"
        },
        {
          "internalType": "address",
          "name": "to",
          "type": "address"
        },
        {
          "internalType": "uint256",
          "name": "tokenId",
          "type": "uint256"
        }
      ],
      "name": "safeTransferFrom",
      "outputs": [],
      "stateMutability": "nonpayable",
      "type": "function"
    },
    {
      "inputs": [
        {
          "internalType": "address",
          "name": "from",
          "type": "address"
        },
        {
          "internalType": "address",
          "name": "to",
          "type": "address"
        },
        {
          "internalType": "uint256",
          "name": "tokenId",
          "type": "uint256"
        },
        {
          "internalType": "bytes",
          "name": "data",
          "type": "bytes"
        }
      ],
      "name": "safeTransferFrom",
      "outputs": [],
      "stateMutability": "nonpayable",
      "type": "function"
    },
    {
      "inputs": [
        {
          "internalType": "string",
          "name": "key",
          "type": "string"
        },
        {
          "internalType": "string",
          "name": "value",
          "type": "string"
        },
        {
          "internalType": "uint256",
          "name": "tokenId",
          "type": "uint256"
        }
      ],
      "name": "set",
      "outputs": [],
      "stateMutability": "nonpayable",
      "type": "function"
    },
    {
      "inputs": [
        {
          "internalType": "address",
          "name": "operator",
          "type": "address"
        },
        {
          "internalType": "bool",
          "name": "approved",
          "type": "bool"
        }
      ],
      "name": "setApprovalForAll",
      "outputs": [],
      "stateMutability": "nonpayable",
      "type": "function"
    },
    {
      "inputs": [
        {
          "internalType": "uint256",
          "name": "keyHash",
          "type": "uint256"
        },
        {
          "internalType": "string",
          "name": "value",
          "type": "string"
        },
        {
          "internalType": "uint256",
          "name": "tokenId",
          "type": "uint256"
        }
      ],
      "name": "setByHash",
      "outputs": [],
      "stateMutability": "nonpayable",
      "type": "function"
    },
    {
      "inputs": [
        {
          "internalType": "address",
          "name": "registry",
          "type": "address"
        }
      ],
      "name": "setCNSRegistry",
      "outputs": [],
      "stateMutability": "nonpayable",
      "type": "function"
    },
    {
      "inputs": [
        {
          "internalType": "address",
          "name": "clientChainManager",
          "type": "address"
        }
      ],
      "name": "setChildChainManager",
      "outputs": [],
      "stateMutability": "nonpayable",
      "type": "function"
    },
    {
      "inputs": [
        {
          "internalType": "string[]",
          "name": "keys",
          "type": "string[]"
        },
        {
          "internalType": "string[]",
          "name": "values",
          "type": "string[]"
        },
        {
          "internalType": "uint256",
          "name": "tokenId",
          "type": "uint256"
        }
      ],
      "name": "setMany",
      "outputs": [],
      "stateMutability": "nonpayable",
      "type": "function"
    },
    {
      "inputs": [
        {
          "internalType": "uint256[]",
          "name": "keyHashes",
          "type": "uint256[]"
        },
        {
          "internalType": "string[]",
          "name": "values",
          "type": "string[]"
        },
        {
          "internalType": "uint256",
          "name": "tokenId",
          "type": "uint256"
        }
      ],
      "name": "setManyByHash",
      "outputs": [],
      "stateMutability": "nonpayable",
      "type": "function"
    },
    {
      "inputs": [
        {
          "internalType": "address",
          "name": "to",
          "type": "address"
        },
        {
          "internalType": "uint256",
          "name": "tokenId",
          "type": "uint256"
        }
      ],
      "name": "setOwner",
      "outputs": [],
      "stateMutability": "nonpayable",
      "type": "function"
    },
    {
      "inputs": [
        {
          "internalType": "uint256",
          "name": "tokenId",
          "type": "uint256"
        }
      ],
      "name": "setReverse",
      "outputs": [],
      "stateMutability": "nonpayable",
      "type": "function"
    },
    {
      "inputs": [
        {
          "internalType": "address",
          "name": "to",
          "type": "address"
        },
        {
          "internalType": "uint256",
          "name": "tokenId",
          "type": "uint256"
        }
      ],
      "name": "setReverse",
      "outputs": [],
      "stateMutability": "nonpayable",
      "type": "function"
    },
    {
      "inputs": [
        {
          "internalType": "address",
          "name": "rootChainManager",
          "type": "address"
        }
      ],
      "name": "setRootChainManager",
      "outputs": [],
      "stateMutability": "nonpayable",
      "type": "function"
    },
    {
      "inputs": [
        {
          "internalType": "string",
          "name": "prefix",
          "type": "string"
        }
      ],
      "name": "setTokenURIPrefix",
      "outputs": [],
      "stateMutability": "nonpayable",
      "type": "function"
    },
    {
      "inputs": [
        {
          "internalType": "bytes4",
          "name": "interfaceId",
          "type": "bytes4"
        }
      ],
      "name": "supportsInterface",
      "outputs": [
        {
          "internalType": "bool",
          "name": "",
          "type": "bool"
        }
      ],
      "stateMutability": "view",
      "type": "function"
    },
    {
      "inputs": [],
      "name": "symbol",
      "outputs": [
        {
          "internalType": "string",
          "name": "",
          "type": "string"
        }
      ],
      "stateMutability": "view",
      "type": "function"
    },
    {
      "inputs": [
        {
          "internalType": "uint256",
          "name": "tokenId",
          "type": "uint256"
        }
      ],
      "name": "tokenURI",
      "outputs": [
        {
          "internalType": "string",
          "name": "",
          "type": "string"
        }
      ],
      "stateMutability": "view",
      "type": "function"
    },
    {
      "inputs": [
        {
          "internalType": "address",
          "name": "from",
          "type": "address"
        },
        {
          "internalType": "address",
          "name": "to",
          "type": "address"
        },
        {
          "internalType": "uint256",
          "name": "tokenId",
          "type": "uint256"
        }
      ],
      "name": "transferFrom",
      "outputs": [],
      "stateMutability": "nonpayable",
      "type": "function"
    },
    {
      "inputs": [
        {
          "internalType": "uint256[]",
          "name": "tokenIds",
          "type": "uint256[]"
        }
      ],
      "name": "upgradeAll",
      "outputs": [],
      "stateMutability": "nonpayable",
      "type": "function"
    },
    {
      "inputs": [
        {
          "components": [
            {
              "internalType": "address",
              "name": "from",
              "type": "address"
            },
            {
              "internalType": "uint256",
              "name": "nonce",
              "type": "uint256"
            },
            {
              "internalType": "uint256",
              "name": "tokenId",
              "type": "uint256"
            },
            {
              "internalType": "bytes",
              "name": "data",
              "type": "bytes"
            }
          ],
          "internalType": "struct IForwarder.ForwardRequest",
          "name": "req",
          "type": "tuple"
        },
        {
          "internalType": "bytes",
          "name": "signature",
          "type": "bytes"
        }
      ],
      "name": "verify",
      "outputs": [
        {
          "internalType": "bool",
          "name": "",
          "type": "bool"
        }
      ],
      "stateMutability": "view",
      "type": "function"
    },
    {
      "inputs": [
        {
          "internalType": "uint256",
          "name": "tokenId",
          "type": "uint256"
        }
      ],
      "name": "withdraw",
      "outputs": [],
      "stateMutability": "nonpayable",
      "type": "function"
    },
    {
      "inputs": [
        {
          "internalType": "uint256[]",
          "name": "tokenIds",
          "type": "uint256[]"
        }
      ],
      "name": "withdrawBatch",
      "outputs": [],
      "stateMutability": "nonpayable",
      "type": "function"
    },
    {
      "inputs": [
        {
          "internalType": "bytes",
          "name": "inputData",
          "type": "bytes"
        },
        {
          "internalType": "uint256",
          "name": "tokenId",
          "type": "uint256"
        },
        {
          "internalType": "string[]",
          "name": "keys",
          "type": "string[]"
        },
        {
          "internalType": "string[]",
          "name": "values",
          "type": "string[]"
        }
      ],
      "name": "withdrawFromPolygon",
      "outputs": [],
      "stateMutability": "nonpayable",
      "type": "function"
    },
    {
      "inputs": [
        {
          "internalType": "uint256",
          "name": "tokenId",
          "type": "uint256"
        }
      ],
      "name": "withdrawWithMetadata",
      "outputs": [],
      "stateMutability": "nonpayable",
      "type": "function"
    }
  ],
  "bytecode": "0x608060405234801561001057600080fd5b5061533e806100206000396000f3fe608060405234801561001057600080fd5b50600436106103d05760003560e01c80637e37479e116101ff578063b88d4fde1161011a578063e87b7e22116100ad578063f25eb5c11161007c578063f25eb5c1146108ee578063f5c1f76e146108f6578063f7df5c6014610909578063ffa1ad741461091c57600080fd5b8063e87b7e2214610885578063e985e9c514610898578063ebf0c717146108d4578063ec129eea146108db57600080fd5b8063ce92b33e116100e9578063ce92b33e14610839578063cf2c52cb1461084c578063d0bc28d71461085f578063df4542851461087257600080fd5b8063b88d4fde146107ed578063bb5b27e114610800578063c4d66de814610813578063c87b56dd1461082657600080fd5b8063a22cb46511610192578063ab3b87fe11610161578063ab3b87fe14610793578063ae31844a146107a6578063b3f9e4cb146107b9578063b85afd28146107cc57600080fd5b8063a22cb46514610741578063a3f4df7e14610754578063a424740014610780578063a5e584dc1461050b57600080fd5b80639559c0bd116101ce5780639559c0bd1461070b57806395d89b411461071357806399e0dd7c1461071b5780639c8d41561461072e57600080fd5b80637e37479e146106bf5780637f139a00146106d257806394d008ef146106e55780639508b1c4146106f857600080fd5b806342966c68116102ef5780636352211e1161028257806370a082311161025157806370a0823114610673578063728a44d814610686578063764a81bb146106995780637d67df63146106ac57600080fd5b80636352211e1461060b578063638e5c781461061e578063672b9f81146106315780636ccbae5f1461065257600080fd5b80634f558e79116102be5780634f558e79146105b657806350382c1a146105c957806350960239146105dc578063572b6c05146105ef57600080fd5b806342966c681461056a578063430c20811461057d57806347c81699146105905780634a72584d146105a357600080fd5b806323b872dd11610367578063310bd74b11610336578063310bd74b1461051e578063384e9a551461053157806340c10f191461054457806342842e0e1461055757600080fd5b806323b872dd146104c4578063276fabb1146104d757806327f18975146104f85780632e1a7d4d1461050b57600080fd5b8063150b7a02116103a3578063150b7a02146104525780631bd8cc1a1461047e5780631be5e7ed1461049e5780631bf7e13e146104b157600080fd5b806301ffc9a7146103d557806306fdde03146103fd578063081812fc14610412578063095ea7b31461043d575b600080fd5b6103e86103e33660046148cd565b610940565b60405190151581526020015b60405180910390f35b610405610951565b6040516103f49190614e11565b610425610420366004614adb565b6109e3565b6040516001600160a01b0390911681526020016103f4565b61045061044b366004614688565b610a0a565b005b61046561046036600461448a565b610a5f565b6040516001600160e01b031990911681526020016103f4565b61049161048c3660046147bb565b610bb5565b6040516103f49190614d72565b6104056104ac366004614a15565b610cd5565b6104056104bf366004614a7c565b610d20565b6104506104d236600461444a565b610e2b565b6104ea6104e536600461470c565b610eb1565b6040519081526020016103f4565b61045061050636600461474b565b610f4a565b610450610519366004614adb565b610fc5565b61045061052c366004614adb565b611041565b61045061053f366004614adb565b6110af565b610450610552366004614688565b61113e565b61045061056536600461444a565b61118b565b610450610578366004614adb565b6111a6565b6103e861058b366004614688565b61121d565b61045061059e3660046149b7565b611229565b6104506105b1366004614b23565b61129b565b6103e86105c4366004614adb565b611314565b6104506105d7366004614a4a565b611333565b6104506105ea3660046143da565b611366565b6103e86105fd3660046143da565b6001600160a01b0316301490565b610425610619366004614adb565b6113c6565b61045061062c366004614adb565b611426565b61064461063f366004614b73565b611471565b6040516103f4929190614e24565b6104ea610660366004614adb565b6000908152610100602052604090205490565b6104ea6106813660046143da565b611489565b6104506106943660046143da565b61150f565b6104506106a73660046143da565b6115b6565b6104506106ba366004614563565b611665565b6104ea6106cd3660046143da565b6116a6565b6104506106e03660046143da565b6116d7565b6104506106f33660046146b3565b611776565b610450610706366004614905565b6117c5565b6104ea601481565b61040561181c565b610450610729366004614984565b61182b565b61045061073c36600461470c565b6118b1565b61045061074f36600461460b565b611a34565b6104056040518060400160405280600d81526020016c554e533a20526567697374727960981b81525081565b6103e861078e366004614a7c565b611a46565b6104506107a1366004614688565b611a91565b6104506107b436600461470c565b611b09565b6104256107c7366004614adb565b611bb5565b6107df6107da3660046147bb565b611bdf565b6040516103f4929190614d85565b6104506107fb3660046144fa565b611d47565b61040561080e366004614adb565b611dc1565b6104506108213660046143da565b611e63565b610405610834366004614adb565b611fdd565b61045061084736600461474b565b612043565b61045061085a366004614636565b6120b5565b61045061086d366004614adb565b612192565b610450610880366004614adb565b61224a565b610450610893366004614688565b6122e7565b6103e86108a6366004614412565b6001600160a01b039182166000908152606a6020908152604080832093909416825291909152205460ff1690565b60006104ea565b6104506108e936600461474b565b6123aa565b61045061241c565b61049161090436600461470c565b6124a2565b610450610917366004614af3565b61257f565b6104056040518060400160405280600581526020016418171a971960d91b81525081565b600061094b82612603565b92915050565b60606065805461096090615240565b80601f016020809104026020016040519081016040528092919081815260200182805461098c90615240565b80156109d95780601f106109ae576101008083540402835291602001916109d9565b820191906000526020600020905b8154815290600101906020018083116109bc57829003601f168201915b5050505050905090565b60006109ee82612653565b506000908152606960205260409020546001600160a01b031690565b8030331415610a4757610a1b6126b2565b8114610a425760405162461bcd60e51b8152600401610a3990614f62565b60405180910390fd5b610a50565b610a50816126c7565b610a5a83836126f5565b505050565b60007f8ffb960699dc2ba88f34d0e41c029c3c36c95149679fe1d0153a9582bec92378546001600160a01b0316610a94612818565b6001600160a01b03161415610b5657610aab612818565b6001600160a01b03166342966c68856040518263ffffffff1660e01b8152600401610ad891815260200190565b600060405180830381600087803b158015610af257600080fd5b505af1158015610b06573d6000803e3d6000fd5b505050821580159150610b205750610b208284018461489b565b15610b3e57610b2f3085612827565b610b398585612975565b610b48565b610b488585612827565b50630a85bd0160e11b610bac565b60405162461bcd60e51b815260206004820152602560248201527f52656769737472793a204552433732315f524543454956494e475f50524f4849604482015264109255115160da1b6064820152608401610a39565b95945050505050565b6060826001600160401b03811115610bdd57634e487b7160e01b600052604160045260246000fd5b604051908082528060200260200182016040528015610c1057816020015b6060815260200190600190039081610bfb5790505b50905060005b83811015610ccd57610c8f858583818110610c4157634e487b7160e01b600052603260045260246000fd5b9050602002810190610c539190615026565b8080601f016020809104026020016040519081016040528093929190818152602001838380828437600092019190915250879250612a16915050565b828281518110610caf57634e487b7160e01b600052603260045260246000fd5b60200260200101819052508080610cc590615275565b915050610c16565b509392505050565b6060610d1884848080601f016020809104026020016040519081016040528093929190818152602001838380828437600092019190915250869250612a16915050565b949350505050565b606060005a9050610d32858585611a46565b610d8e5760405162461bcd60e51b815260206004820152602760248201527f554e535265676973747279466f727761726465723a205349474e41545552455f6044820152661253959053125160ca1b6064820152608401610a39565b610e20610d9e60208701876143da565b30604088013584610db260608b018b615026565b8080601f01602080910402602001604051908101604052809392919081815260200183838082843760009201919091525050604080516020601f8e018190048102820181019092528c815292508c91508b9081908401838280828437600092019190915250612a4b92505050565b9150505b9392505050565b80610e3d610e37612818565b82612b3a565b610e595760405162461bcd60e51b8152600401610a3990614e80565b8130331415610e8d57610e6a6126b2565b8114610e885760405162461bcd60e51b8152600401610a3990614f62565b610e96565b610e96816126c7565b610e9f83612bb8565b610eaa858585612c25565b5050505050565b600080825b8015610ccd57610f36828686610ecd6001866150e9565b818110610eea57634e487b7160e01b600052603260045260246000fd5b9050602002810190610efc9190615026565b8080601f016020809104026020016040519081016040528093929190818152602001838380828437600092019190915250612dcc92505050565b915080610f4281615229565b915050610eb6565b80610f56610e37612818565b610f725760405162461bcd60e51b8152600401610a3990614e80565b8130331415610fa657610f836126b2565b8114610fa15760405162461bcd60e51b8152600401610a3990614f62565b610faf565b610faf816126c7565b610fbc8787878787612e79565b50505050505050565b610fce816113c6565b6001600160a01b0316610fdf612818565b6001600160a01b0316146110355760405162461bcd60e51b815260206004820152601d60248201527f52656769737472793a20494e56414c49445f544f4b454e5f4f574e45520000006044820152606401610a39565b61103e81612ef8565b50565b8061104d610e37612818565b6110695760405162461bcd60e51b8152600401610a3990614e80565b813033141561109d5761107a6126b2565b81146110985760405162461bcd60e51b8152600401610a3990614f62565b6110a6565b6110a6816126c7565b610a5a83612bb8565b806110b8612818565b6001600160a01b03166110ca826113c6565b6001600160a01b0316146110f05760405162461bcd60e51b8152600401610a3990614e49565b8130331415611124576111016126b2565b811461111f5760405162461bcd60e51b8152600401610a3990614f62565b61112d565b61112d816126c7565b610a5a611138612818565b84612f9f565b611146612fe7565b6001600160a01b0316611157612818565b6001600160a01b03161461117d5760405162461bcd60e51b8152600401610a3990614fe4565b6111878282612827565b5050565b610a5a83838360405180602001604052806000815250611d47565b806111b2610e37612818565b6111ce5760405162461bcd60e51b8152600401610a3990614e80565b8130331415611202576111df6126b2565b81146111fd5760405162461bcd60e51b8152600401610a3990614f62565b61120b565b61120b816126c7565b61121483612bb8565b610a5a83612ef8565b6000610e248383612b3a565b80611235610e37612818565b6112515760405162461bcd60e51b8152600401610a3990614e80565b8130331415611285576112626126b2565b81146112805760405162461bcd60e51b8152600401610a3990614f62565b61128e565b61128e816126c7565b610fbc87878787876130fa565b806112a7610e37612818565b6112c35760405162461bcd60e51b8152600401610a3990614e80565b81303314156112f7576112d46126b2565b81146112f25760405162461bcd60e51b8152600401610a3990614f62565b611300565b611300816126c7565b61130c868686866131d9565b505050505050565b6000818152606760205260408120546001600160a01b0316151561094b565b61103e816040516020016113479190614c3d565b6040516020818303038152906040528051906020012060001c82613279565b610134546001600160a01b031661137b612818565b6001600160a01b0316146113a15760405162461bcd60e51b8152600401610a3990614f1b565b6001600160a01b0316600090815261013660205260409020805460ff19166001179055565b6000818152606760205260408120546001600160a01b03168061094b5760405162461bcd60e51b8152602060048201526018602482015277115490cdcc8c4e881a5b9d985b1a59081d1bdad95b88125160421b6044820152606401610a39565b80611432610e37612818565b61144e5760405162461bcd60e51b8152600401610a3990614e80565b611460611459612818565b3084612c25565b61118761146b612818565b83612975565b60608061147e84846132a5565b909590945092505050565b60006001600160a01b0382166114f35760405162461bcd60e51b815260206004820152602960248201527f4552433732313a2061646472657373207a65726f206973206e6f7420612076616044820152683634b21037bbb732b960b91b6064820152608401610a39565b506001600160a01b031660009081526068602052604090205490565b600080516020615312833981519152546001600160a01b0316156115845760405162461bcd60e51b815260206004820152602660248201527f52656769737472793a20524f4f545f434841494e5f4d414e454745525f4e4f546044820152655f454d50545960d01b6064820152608401610a39565b806000805160206153128339815191525b80546001600160a01b0319166001600160a01b039290921691909117905550565b7f8bea9a6f8afd34f4e29c585f854e0cc5161431bf5fc299d468454d33dce53b87546001600160a01b03161561163e5760405162461bcd60e51b815260206004820152602760248201527f52656769737472793a204348494c445f434841494e5f4d414e454745525f4e4f604482015266545f454d50545960c81b6064820152608401610a39565b807f8bea9a6f8afd34f4e29c585f854e0cc5161431bf5fc299d468454d33dce53b87611595565b600061167187876132c6565b905061168f888261168a6116858a8c615100565b61337c565b613419565b61169c8585858585613465565b5050505050505050565b6001600160a01b038116600090815261013560205260408120546116c9816134ef565b6116d1578091505b50919050565b7f8ffb960699dc2ba88f34d0e41c029c3c36c95149679fe1d0153a9582bec92378546001600160a01b03161561174f5760405162461bcd60e51b815260206004820181905260248201527f52656769737472793a20434e535f52454749535452595f4e4f545f454d5054596044820152606401610a39565b807f8ffb960699dc2ba88f34d0e41c029c3c36c95149679fe1d0153a9582bec92378611595565b61177e612fe7565b6001600160a01b031661178f612818565b6001600160a01b0316146117b55760405162461bcd60e51b8152600401610a3990614fe4565b6117bf8484612827565b50505050565b6117cf8787613539565b6117d7612818565b6001600160a01b03166117e9866113c6565b6001600160a01b03161461180f5760405162461bcd60e51b8152600401610a3990614e49565b610fbc8484848489613465565b60606066805461096090615240565b610134546001600160a01b0316611840612818565b6001600160a01b0316146118665760405162461bcd60e51b8152600401610a3990614f1b565b61187361013383836141d1565b507f4b120d6a959a84a520fa48f5f937cca0e79129423487af7901213b5d2e89313b82826040516118a5929190614dfd565b60405180910390a15050565b8060148111156119035760405162461bcd60e51b815260206004820152601d60248201527f52656769737472793a20455843454544535f42415443485f4c494d49540000006044820152606401610a39565b60005b818110156119e457600084848381811061193057634e487b7160e01b600052603260045260246000fd5b905060200201359050611942816113c6565b6001600160a01b0316611953612818565b6001600160a01b0316148160405160200161199a91907f52656769737472793a20494e56414c49445f544f4b454e5f4f574e45522000008152601e810191909152603e0190565b604051602081830303815290604052906119c75760405162461bcd60e51b8152600401610a399190614e11565b506119d181612ef8565b50806119dc81615275565b915050611906565b506119ed612818565b6001600160a01b03167ff871896b17e9cb7a64941c62c188a4f5c621b86800e3d15452ece01ce56073df8484604051611a27929190614daa565b60405180910390a2505050565b611187611a3f612818565b83836135a8565b6000610d18611a5485615175565b3085858080601f01602080910402602001604051908101604052809392919081815260200183838082843760009201919091525061367792505050565b80611a9d610e37612818565b611ab95760405162461bcd60e51b8152600401610a3990614e80565b8130331415611aed57611aca6126b2565b8114611ae85760405162461bcd60e51b8152600401610a3990614f62565b611af6565b611af6816126c7565b6117bf611b02846113c6565b8585612c25565b610134546001600160a01b0316611b1e612818565b6001600160a01b031614611b445760405162461bcd60e51b8152600401610a3990614f1b565b60005b81811015610a5a5760016101376000858585818110611b7657634e487b7160e01b600052603260045260246000fd5b90506020020135815260200190815260200160002060006101000a81548160ff0219169083151502179055508080611bad90615275565b915050611b47565b6000818152606760205260408120546001600160a01b0316611bd857600061094b565b3092915050565b606080836001600160401b03811115611c0857634e487b7160e01b600052604160045260246000fd5b604051908082528060200260200182016040528015611c3b57816020015b6060815260200190600190039081611c265790505b509150836001600160401b03811115611c6457634e487b7160e01b600052604160045260246000fd5b604051908082528060200260200182016040528015611c9757816020015b6060815260200190600190039081611c825790505b50905060005b84811015611d3e57611cd5868683818110611cc857634e487b7160e01b600052603260045260246000fd5b90506020020135856132a5565b848381518110611cf557634e487b7160e01b600052603260045260246000fd5b60200260200101848481518110611d1c57634e487b7160e01b600052603260045260246000fd5b6020026020010182905282905250508080611d3690615275565b915050611c9d565b50935093915050565b81611d53610e37612818565b611d6f5760405162461bcd60e51b8152600401610a3990614e80565b8230331415611da357611d806126b2565b8114611d9e5760405162461bcd60e51b8152600401610a3990614f62565b611dac565b611dac816126c7565b611db584612bb8565b61130c868686866137cf565b600081815260c960205260409020805460609190611dde90615240565b80601f0160208091040260200160405190810160405280929190818152602001828054611e0a90615240565b8015611e575780601f10611e2c57610100808354040283529160200191611e57565b820191906000526020600020905b815481529060010190602001808311611e3a57829003601f168201915b50505050509050919050565b600054610100900460ff1615808015611e835750600054600160ff909116105b80611e9d5750303b158015611e9d575060005460ff166001145b611f005760405162461bcd60e51b815260206004820152602e60248201527f496e697469616c697a61626c653a20636f6e747261637420697320616c72656160448201526d191e481a5b9a5d1a585b1a5e995960921b6064820152608401610a39565b6000805460ff191660011790558015611f23576000805461ff0019166101001790555b61013480546001600160a01b0319166001600160a01b0384161790556040805180820182526013815272556e73746f707061626c6520446f6d61696e7360681b60208083019190915282518084019093526002835261155160f21b90830152611f8b91613802565b611f93613850565b611f9b613850565b8015611187576000805461ff0019169055604051600181527f7f26b83ff96e1f2b6a682f133852f6798a09c465da95921460cefb3847402498906020016118a5565b6060611fe882612653565b6000611ff2613879565b905060008151116120125760405180602001604052806000815250610e24565b8061201c84613889565b60405160200161202d929190614ce4565b6040516020818303038152906040529392505050565b8061204f610e37612818565b61206b5760405162461bcd60e51b8152600401610a3990614e80565b813033141561209f5761207c6126b2565b811461209a5760405162461bcd60e51b8152600401610a3990614f62565b6120a8565b6120a8816126c7565b610fbc8787878787613465565b7f8bea9a6f8afd34f4e29c585f854e0cc5161431bf5fc299d468454d33dce53b87546001600160a01b03166120e8612818565b6001600160a01b03161461210e5760405162461bcd60e51b8152600401610a3990614fe4565b602081141561213157600061212582840184614adb565b90506117bf8482612827565b600061213f82840184614804565b805190915060005b8181101561130c576121808684838151811061217357634e487b7160e01b600052603260045260246000fd5b6020026020010151612827565b8061218a81615275565b915050612147565b610134546001600160a01b03166121a7612818565b6001600160a01b0316146121cd5760405162461bcd60e51b8152600401610a3990614f1b565b61dead6121d9826113c6565b6001600160a01b03161461222f5760405162461bcd60e51b815260206004820152601a60248201527f52656769737472793a204f574e45525f4e4f545f3078444541440000000000006044820152606401610a39565b6101345461103e9061dead906001600160a01b031683612c25565b610134546001600160a01b031661225f612818565b6001600160a01b0316146122855760405162461bcd60e51b8152600401610a3990614f1b565b61dead612291826113c6565b6001600160a01b0316146110355760405162461bcd60e51b815260206004820152601a60248201527f52656769737472793a204f574e45525f4e4f545f3078444541440000000000006044820152606401610a39565b610134546001600160a01b03166122fc612818565b6001600160a01b0316146123225760405162461bcd60e51b8152600401610a3990614f1b565b8061232b612818565b6001600160a01b031661233d826113c6565b6001600160a01b0316146123635760405162461bcd60e51b8152600401610a3990614e49565b8130331415612397576123746126b2565b81146123925760405162461bcd60e51b8152600401610a3990614f62565b6123a0565b6123a0816126c7565b6117bf8484612f9f565b806123b6610e37612818565b6123d25760405162461bcd60e51b8152600401610a3990614e80565b8130331415612406576123e36126b2565b81146124015760405162461bcd60e51b8152600401610a3990614f62565b61240f565b61240f816126c7565b610fbc87878787876139a2565b6000612426612818565b6001600160a01b038116600090815261013560205260409020549091506124995760405162461bcd60e51b815260206004820152602160248201527f52656769737472793a20524556455253455f5245434f52445f49535f454d50546044820152605960f81b6064820152608401610a39565b61103e816139b8565b6060816001600160401b038111156124ca57634e487b7160e01b600052604160045260246000fd5b6040519080825280602002602001820160405280156124fd57816020015b60608152602001906001900390816124e85790505b50905060005b828110156125785761253a84848381811061252e57634e487b7160e01b600052603260045260246000fd5b90506020020135611dc1565b82828151811061255a57634e487b7160e01b600052603260045260246000fd5b6020026020010181905250808061257090615275565b915050612503565b5092915050565b610134546001600160a01b0316612594612818565b6001600160a01b0316146125ba5760405162461bcd60e51b8152600401610a3990614f1b565b610134546125d1906001600160a01b031684612827565b827fc5beef08f693b11c316c0c8394a377a0033c9cf701b8cd8afd79cecef60c39528383604051611a27929190614dfd565b60006001600160e01b031982166380ac58cd60e01b148061263457506001600160e01b03198216635b5e139f60e01b145b8061094b57506301ffc9a760e01b6001600160e01b031983161461094b565b6000818152606760205260409020546001600160a01b031661103e5760405162461bcd60e51b8152602060048201526018602482015277115490cdcc8c4e881a5b9d985b1a59081d1bdad95b88125160421b6044820152606401610a39565b6000303314156126c45750601f193601355b90565b600081815261010060205260409020546126e29060016150bd565b6000918252610100602052604090912055565b6000612700826113c6565b9050806001600160a01b0316836001600160a01b0316141561276e5760405162461bcd60e51b815260206004820152602160248201527f4552433732313a20617070726f76616c20746f2063757272656e74206f776e656044820152603960f91b6064820152608401610a39565b806001600160a01b0316612780612818565b6001600160a01b0316148061279c575061279c816108a6612818565b61280e5760405162461bcd60e51b815260206004820152603e60248201527f4552433732313a20617070726f76652063616c6c6572206973206e6f7420746f60448201527f6b656e206f776e6572206e6f7220617070726f76656420666f7220616c6c00006064820152608401610a39565b610a5a83836139fd565b6000612822613a6b565b905090565b6001600160a01b03821661287d5760405162461bcd60e51b815260206004820181905260248201527f4552433732313a206d696e7420746f20746865207a65726f20616464726573736044820152606401610a39565b6000818152606760205260409020546001600160a01b0316156128e25760405162461bcd60e51b815260206004820152601c60248201527f4552433732313a20746f6b656e20616c7265616479206d696e746564000000006044820152606401610a39565b6128ee60008383613a87565b6001600160a01b03821660009081526068602052604081208054600192906129179084906150bd565b909155505060008181526067602052604080822080546001600160a01b0319166001600160a01b03861690811790915590518392907fddf252ad1be2c89b69c2b068fc378daa952ba7f163c4a11628f55a4df523b3ef908290a45050565b600061297f612fe7565b905061298b81836139fd565b60008051602061531283398151915254604080516020808201869052825180830390910181528183019283905263e3dec8fb60e01b9092526001600160a01b0390921691829163e3dec8fb916129e8918891309190604401614d13565b600060405180830381600087803b158015612a0257600080fd5b505af115801561169c573d6000803e3d6000fd5b6060610e2483604051602001612a2c9190614c3d565b6040516020818303038152906040528051906020012060001c83613b24565b6060612a56856126c7565b600080876001600160a01b031686612a708b8a8989613c06565b604051612a7d9190614c3d565b60006040518083038160008787f1925050503d8060008114612abb576040519150601f19603f3d011682016040523d82523d6000602084013e612ac0565b606091505b509092509050612ad1603f876150d5565b5a11612aed57634e487b7160e01b600052600160045260246000fd5b612b2d82826040518060400160405280601a81526020017f42617365466f727761726465723a2043414c4c5f4641494c4544000000000000815250613c36565b9998505050505050505050565b600080612b46836113c6565b9050806001600160a01b0316846001600160a01b03161480612b8d57506001600160a01b038082166000908152606a602090815260408083209388168352929052205460ff165b80610d185750836001600160a01b0316612ba6846109e3565b6001600160a01b031614949350505050565b612bc181613c6f565b604051602001612bd391815260200190565b60408051601f198184030181528282528051602091820120600085815260cb9092529181209190915582917f185c30856dadb58bf097c1f665a52ada7029752dbcad008ea3fefc73bee8c9fe9190a250565b826001600160a01b0316612c38826113c6565b6001600160a01b031614612c9c5760405162461bcd60e51b815260206004820152602560248201527f4552433732313a207472616e736665722066726f6d20696e636f72726563742060448201526437bbb732b960d91b6064820152608401610a39565b6001600160a01b038216612cfe5760405162461bcd60e51b8152602060048201526024808201527f4552433732313a207472616e7366657220746f20746865207a65726f206164646044820152637265737360e01b6064820152608401610a39565b612d09838383613a87565b612d146000826139fd565b6001600160a01b0383166000908152606860205260408120805460019290612d3d9084906150e9565b90915550506001600160a01b0382166000908152606860205260408120805460019290612d6b9084906150bd565b909155505060008181526067602052604080822080546001600160a01b0319166001600160a01b0386811691821790925591518493918716917fddf252ad1be2c89b69c2b068fc378daa952ba7f163c4a11628f55a4df523b3ef91a4505050565b6000815160001415612e185760405162461bcd60e51b815260206004820152601560248201527452656769737472793a204c4142454c5f454d50545960581b6044820152606401610a39565b8282604051602001612e2a9190614c3d565b60405160208183030381529060405280519060200120604051602001612e5a929190918252602082015260400190565b60408051601f1981840301815291905280516020909101209392505050565b60005b8481101561130c57612ee6868683818110612ea757634e487b7160e01b600052603260045260246000fd5b90506020020135858584818110612ece57634e487b7160e01b600052603260045260246000fd5b9050602002810190612ee09190615026565b856131d9565b80612ef081615275565b915050612e7c565b6000612f03826113c6565b9050612f1181600084613a87565b612f1c6000836139fd565b6001600160a01b0381166000908152606860205260408120805460019290612f459084906150e9565b909155505060008281526067602052604080822080546001600160a01b0319169055518391906001600160a01b038416907fddf252ad1be2c89b69c2b068fc378daa952ba7f163c4a11628f55a4df523b3ef908390a45050565b6001600160a01b03821660008181526101356020526040808220849055518392917feb76a21470988c474a21f690cc28fee1ed511bd812dc3c21fd0f49c5e5d4708a91a35050565b6000806000805160206153128339815191525460405163721804d360e11b81523060048201526001600160a01b039091169150600090829063e43009a69060240160206040518083038186803b15801561304057600080fd5b505afa158015613054573d6000803e3d6000fd5b505050506040513d601f19601f8201168201806040525081019061307891906148b5565b60405163e66f960360e01b8152600481018290529091506001600160a01b0383169063e66f96039060240160206040518083038186803b1580156130bb57600080fd5b505afa1580156130cf573d6000803e3d6000fd5b505050506040513d601f19601f820116820180604052508101906130f391906143f6565b9250505090565b6000858560405160200161310f929190614cd4565b60408051601f198184030181528282528051602091820120601f8901829004820284018201909252878352909250613163918391899089908190840183828082843760009201919091525061327992505050565b61130c8187878080601f01602080910402602001604051908101604052809392919081815260200183838082843760009201919091525050604080516020601f8b018190048102820181019092528981529250899150889081908401838280828437600092019190915250889250613c9b915050565b6131e284613dd6565b61322e5760405162461bcd60e51b815260206004820152601c60248201527f5265636f726453746f726167653a204b45595f4e4f545f464f554e44000000006044820152606401610a39565b6117bf8461323b86611dc1565b85858080601f016020809104026020016040519081016040528093929190818152602001838380828437600092019190915250879250613c9b915050565b61328282613dd6565b61118757600082815260c9602090815260409091208251610a5a92840190614251565b6060806132b184611dc1565b91506132bd8484613b24565b90509250929050565b600060028210156133195760405162461bcd60e51b815260206004820152601f60248201527f52656769737472793a204c4142454c535f4c454e4754485f42454c4f575f32006044820152606401610a39565b600080835b801561334e5781925061333a838787600185610ecd91906150e9565b91508061334681615229565b91505061331e565b5061336061335a612818565b83612b3a565b610d185760405162461bcd60e51b8152600401610a3990614e80565b60606000826000815181106133a157634e487b7160e01b600052603260045260246000fd5b602002602001015190506000600190505b835181101561257857818482815181106133dc57634e487b7160e01b600052603260045260246000fd5b60200260200101516040516020016133f5929190614c98565b6040516020818303038152906040529150808061341190615275565b9150506133b2565b6134238383612827565b817fc5beef08f693b11c316c0c8394a377a0033c9cf701b8cd8afd79cecef60c3952826040516134539190614e11565b60405180910390a2610a5a8383613dfc565b60005b8481101561130c576134dd86868381811061349357634e487b7160e01b600052603260045260246000fd5b90506020028101906134a59190615026565b8686858181106134c557634e487b7160e01b600052603260045260246000fd5b90506020028101906134d79190615026565b866130fa565b806134e781615275565b915050613468565b6000818152610137602052604081205460ff16801561094b57506101366000613516612818565b6001600160a01b0316815260208101919091526040016000205460ff1692915050565b60008051602061531283398151915254604051633805550f60e01b81526001600160a01b03909116908190633805550f9061357a9086908690600401614dfd565b600060405180830381600087803b15801561359457600080fd5b505af1158015610fbc573d6000803e3d6000fd5b816001600160a01b0316836001600160a01b0316141561360a5760405162461bcd60e51b815260206004820152601960248201527f4552433732313a20617070726f766520746f2063616c6c6572000000000000006044820152606401610a39565b6001600160a01b038381166000818152606a6020908152604080832094871680845294825291829020805460ff191686151590811790915591519182527f17307eab39ab6107e8899845ad3d59bd9653f200f220920489ca2b5937696c31910160405180910390a3505050565b6040838101519051636ccbae5f60e01b8152600481019190915260009081903090636ccbae5f9060240160206040518083038186803b1580156136b957600080fd5b505afa1580156136cd573d6000803e3d6000fd5b505050506040513d601f19601f820116820180604052508101906136f191906148b5565b9050600061379f86606001518051906020012086886020015160405160200161373f9392919092835260609190911b6bffffffffffffffffffffffff19166020830152603482015260540190565b60408051601f1981840301815282825280516020918201207f19457468657265756d205369676e6564204d6573736167653a0a33320000000084830152603c8085019190915282518085039091018152605c909301909152815191012090565b90508186602001511480156137c5575085516137c5906001600160a01b03168286613e3d565b9695505050505050565b6137da848484612c25565b6137e684848484613f8d565b6117bf5760405162461bcd60e51b8152600401610a3990614ec9565b600054610100900460ff166138295760405162461bcd60e51b8152600401610a3990614f99565b815161383c906065906020850190614251565b508051610a5a906066906020840190614251565b600054610100900460ff166138775760405162461bcd60e51b8152600401610a3990614f99565b565b6060610133805461096090615240565b6060816138ad5750506040805180820190915260018152600360fc1b602082015290565b8160005b81156138d757806138c181615275565b91506138d09050600a836150d5565b91506138b1565b6000816001600160401b038111156138ff57634e487b7160e01b600052604160045260246000fd5b6040519080825280601f01601f191660200182016040528015613929576020820181803683370190505b5090505b8415610d185761393e6001836150e9565b915061394b600a86615290565b6139569060306150bd565b60f81b81838151811061397957634e487b7160e01b600052603260045260246000fd5b60200101906001600160f81b031916908160001a90535061399b600a866150d5565b945061392d565b6139ab81612bb8565b610eaa8585858585613465565b6001600160a01b03811660008181526101356020526040808220829055517ffcf5eec0cfa3e6332f5f0e63ec242d71f866a61d121d6cdf5c2eb3b668a26c4f9190a250565b600081815260696020526040902080546001600160a01b0319166001600160a01b0384169081179091558190613a32826113c6565b6001600160a01b03167f8c5be1e5ebec7d5bd14f71427d1e84f3dd0314c0f7b2291e5b200ac8c7c3b92560405160405180910390a45050565b600030331415613a82575060331936013560601c90565b503390565b6000818152610137602052604090205460ff161580613aae57506001600160a01b03821615155b613afa5760405162461bcd60e51b815260206004820152601860248201527f52656769737472793a20544f4b454e5f555047524144454400000000000000006044820152606401610a39565b6001600160a01b03831660009081526101356020526040902054811415610a5a57610a5a836139b8565b6060613b2f826134ef565b15613b49575060408051602081019091526000815261094b565b60ca6000613b5684613c6f565b815260200190815260200160002060008481526020019081526020016000208054613b8090615240565b80601f0160208091040260200160405190810160405280929190818152602001828054613bac90615240565b8015613bf95780601f10613bce57610100808354040283529160200191613bf9565b820191906000526020600020905b815481529060010190602001808311613bdc57829003601f168201915b5050505050905092915050565b6060828585604051602001613c1d93929190614c59565b6040516020818303038152906040529050949350505050565b60608315613c45575081610e24565b825115613c555782518084602001fd5b8160405162461bcd60e51b8152600401610a399190614e11565b600081815260cb602052604081205415613c9757600082815260cb602052604090205461094b565b5090565b60ca6000613ca883613c6f565b815260200190815260200160002060008581526020019081526020016000208054613cd290615240565b15159050613d295782604051613ce89190614c3d565b6040518091039020817f7ae4f661958fbecc2f77be6b0eb280d2a6f604b29e1e7221c82b9da0c4af7f8685604051613d209190614e11565b60405180910390a35b8160ca6000613d3784613c6f565b815260200190815260200160002060008681526020019081526020016000209080519060200190613d69929190614251565b5081604051613d789190614c3d565b604051809103902083604051613d8e9190614c3d565b6040518091039020827f851ffe8e74d5015261dba0a1f9e1b0e5d42c5af5d2ad1908fee897c7d80a0d928686604051613dc8929190614e24565b60405180910390a450505050565b600081815260c9602052604081208054829190613df290615240565b9050119050919050565b61dead6001600160a01b03831614801590613e2e57506001600160a01b03821660009081526101356020526040902054155b15611187576111878282612f9f565b6000806000613e4c858561409e565b90925090506000816004811115613e7357634e487b7160e01b600052602160045260246000fd5b148015613e915750856001600160a01b0316826001600160a01b0316145b15613ea157600192505050610e24565b600080876001600160a01b0316631626ba7e60e01b8888604051602401613ec9929190614de4565b60408051601f198184030181529181526020820180516001600160e01b03166001600160e01b0319909416939093179092529051613f079190614c3d565b600060405180830381855afa9150503d8060008114613f42576040519150601f19603f3d011682016040523d82523d6000602084013e613f47565b606091505b5091509150818015613f5a575080516020145b8015613f8157508051630b135d3f60e11b90613f7f90830160209081019084016148b5565b145b98975050505050505050565b60006001600160a01b0384163b1561409657836001600160a01b031663150b7a02613fb6612818565b8786866040518563ffffffff1660e01b8152600401613fd89493929190614d3f565b602060405180830381600087803b158015613ff257600080fd5b505af1925050508015614022575060408051601f3d908101601f1916820190925261401f918101906148e9565b60015b61407c573d808015614050576040519150601f19603f3d011682016040523d82523d6000602084013e614055565b606091505b5080516140745760405162461bcd60e51b8152600401610a3990614ec9565b805181602001fd5b6001600160e01b031916630a85bd0160e11b149050610d18565b506001610d18565b6000808251604114156140d55760208301516040840151606085015160001a6140c9878285856140e4565b945094505050506140dd565b506000905060025b9250929050565b6000807f7fffffffffffffffffffffffffffffff5d576e7357a4501ddfe92f46681b20a083111561411b57506000905060036141c8565b8460ff16601b1415801561413357508460ff16601c14155b1561414457506000905060046141c8565b6040805160008082526020820180845289905260ff881692820192909252606081018690526080810185905260019060a0016020604051602081039080840390855afa158015614198573d6000803e3d6000fd5b5050604051601f1901519150506001600160a01b0381166141c1576000600192509250506141c8565b9150600090505b94509492505050565b8280546141dd90615240565b90600052602060002090601f0160209004810192826141ff5760008555614245565b82601f106142185782800160ff19823516178555614245565b82800160010185558215614245579182015b8281111561424557823582559160200191906001019061422a565b50613c979291506142c5565b82805461425d90615240565b90600052602060002090601f01602090048101928261427f5760008555614245565b82601f1061429857805160ff1916838001178555614245565b82800160010185558215614245579182015b828111156142455782518255916020019190600101906142aa565b5b80821115613c9757600081556001016142c6565b60008083601f8401126142eb578182fd5b5081356001600160401b03811115614301578182fd5b6020830191508360208260051b85010111156140dd57600080fd5b8035801515811461432c57600080fd5b919050565b60008083601f840112614342578182fd5b5081356001600160401b03811115614358578182fd5b6020830191508360208285010111156140dd57600080fd5b600082601f830112614380578081fd5b81356001600160401b03811115614399576143996152d0565b6143ac601f8201601f191660200161506a565b8181528460208386010111156143c0578283fd5b816020850160208301379081016020019190915292915050565b6000602082840312156143eb578081fd5b8135610e24816152e6565b600060208284031215614407578081fd5b8151610e24816152e6565b60008060408385031215614424578081fd5b823561442f816152e6565b9150602083013561443f816152e6565b809150509250929050565b60008060006060848603121561445e578081fd5b8335614469816152e6565b92506020840135614479816152e6565b929592945050506040919091013590565b6000806000806000608086880312156144a1578283fd5b85356144ac816152e6565b945060208601356144bc816152e6565b93506040860135925060608601356001600160401b038111156144dd578182fd5b6144e988828901614331565b969995985093965092949392505050565b6000806000806080858703121561450f578182fd5b843561451a816152e6565b9350602085013561452a816152e6565b92506040850135915060608501356001600160401b0381111561454b578182fd5b61455787828801614370565b91505092959194509250565b60008060008060008060006080888a03121561457d578485fd5b8735614588816152e6565b965060208801356001600160401b03808211156145a3578687fd5b6145af8b838c016142da565b909850965060408a01359150808211156145c7578384fd5b6145d38b838c016142da565b909650945060608a01359150808211156145eb578384fd5b506145f88a828b016142da565b989b979a50959850939692959293505050565b6000806040838503121561461d578182fd5b8235614628816152e6565b91506132bd6020840161431c565b60008060006040848603121561464a578081fd5b8335614655816152e6565b925060208401356001600160401b0381111561466f578182fd5b61467b86828701614331565b9497909650939450505050565b6000806040838503121561469a578182fd5b82356146a5816152e6565b946020939093013593505050565b600080600080606085870312156146c8578182fd5b84356146d3816152e6565b93506020850135925060408501356001600160401b038111156146f4578283fd5b61470087828801614331565b95989497509550505050565b6000806020838503121561471e578182fd5b82356001600160401b03811115614733578283fd5b61473f858286016142da565b90969095509350505050565b600080600080600060608688031215614762578283fd5b85356001600160401b0380821115614778578485fd5b61478489838a016142da565b9097509550602088013591508082111561479c578485fd5b506147a9888289016142da565b96999598509660400135949350505050565b6000806000604084860312156147cf578081fd5b83356001600160401b038111156147e4578182fd5b6147f0868287016142da565b909790965060209590950135949350505050565b60006020808385031215614816578182fd5b82356001600160401b0381111561482b578283fd5b8301601f8101851361483b578283fd5b803561484e6148498261509a565b61506a565b80828252848201915084840188868560051b870101111561486d578687fd5b8694505b8385101561488f578035835260019490940193918501918501614871565b50979650505050505050565b6000602082840312156148ac578081fd5b610e248261431c565b6000602082840312156148c6578081fd5b5051919050565b6000602082840312156148de578081fd5b8135610e24816152fb565b6000602082840312156148fa578081fd5b8151610e24816152fb565b60008060008060008060006080888a03121561491f578081fd5b87356001600160401b0380821115614935578283fd5b6149418b838c01614331565b909950975060208a0135965060408a0135915080821115614960578283fd5b61496c8b838c016142da565b909650945060608a01359150808211156145eb578283fd5b60008060208385031215614996578182fd5b82356001600160401b038111156149ab578283fd5b61473f85828601614331565b6000806000806000606086880312156149ce578283fd5b85356001600160401b03808211156149e4578485fd5b6149f089838a01614331565b90975095506020880135915080821115614a08578485fd5b506147a988828901614331565b600080600060408486031215614a29578081fd5b83356001600160401b03811115614a3e578182fd5b6147f086828701614331565b600060208284031215614a5b578081fd5b81356001600160401b03811115614a70578182fd5b610d1884828501614370565b600080600060408486031215614a90578081fd5b83356001600160401b0380821115614aa6578283fd5b9085019060808288031215614ab9578283fd5b90935060208501359080821115614ace578283fd5b5061467b86828701614331565b600060208284031215614aec578081fd5b5035919050565b600080600060408486031215614b07578081fd5b8335925060208401356001600160401b0381111561466f578182fd5b60008060008060608587031215614b38578182fd5b8435935060208501356001600160401b03811115614b54578283fd5b614b6087828801614331565b9598909750949560400135949350505050565b60008060408385031215614b85578182fd5b50508035926020909101359150565b600081518084526020808501808196508360051b81019150828601855b85811015614bdb578284038952614bc9848351614c11565b98850198935090840190600101614bb1565b5091979650505050505050565b81835281816020850137506000828201602090810191909152601f909101601f19169091010190565b60008151808452614c298160208601602086016151fd565b601f01601f19169290920160200192915050565b60008251614c4f8184602087016151fd565b9190910192915050565b60008451614c6b8184602089016151fd565b60609490941b6bffffffffffffffffffffffff191691909301908152601481019190915260340192915050565b60008351614caa8184602088016151fd565b601760f91b9083019081528351614cc88160018401602088016151fd565b01600101949350505050565b8183823760009101908152919050565b60008351614cf68184602088016151fd565b835190830190614d0a8183602088016151fd565b01949350505050565b6001600160a01b03848116825283166020820152606060408201819052600090610bac90830184614c11565b6001600160a01b03858116825284166020820152604081018390526080606082018190526000906137c590830184614c11565b602081526000610e246020830184614b94565b604081526000614d986040830185614b94565b8281036020840152610e208185614b94565b6020808252810182905260006001600160fb1b03831115614dc9578081fd5b8260051b808560408501379190910160400190815292915050565b828152604060208201526000610d186040830184614c11565b602081526000610d18602083018486614be8565b602081526000610e246020830184614c11565b604081526000614e376040830185614c11565b8281036020840152610e208185614c11565b6020808252601d908201527f52656769737472793a2053454e4445525f49535f4e4f545f4f574e4552000000604082015260600190565b60208082526029908201527f52656769737472793a2053454e4445525f49535f4e4f545f415050524f5645446040820152682fa7a92fa7aba722a960b91b606082015260800190565b60208082526032908201527f4552433732313a207472616e7366657220746f206e6f6e20455243373231526560408201527131b2b4bb32b91034b6b83632b6b2b73a32b960711b606082015260800190565b60208082526027908201527f52656769737472793a2053454e4445525f49535f4e4f545f4d494e54494e475f60408201526626a0a720a3a2a960c91b606082015260800190565b60208082526017908201527f52656769737472793a20544f4b454e5f494e56414c4944000000000000000000604082015260600190565b6020808252602b908201527f496e697469616c697a61626c653a20636f6e7472616374206973206e6f74206960408201526a6e697469616c697a696e6760a81b606082015260800190565b60208082526022908201527f52656769737472793a20494e53554646494349454e545f5045524d495353494f6040820152614e5360f01b606082015260800190565b6000808335601e1984360301811261503c578283fd5b8301803591506001600160401b03821115615055578283fd5b6020019150368190038213156140dd57600080fd5b604051601f8201601f191681016001600160401b0381118282101715615092576150926152d0565b604052919050565b60006001600160401b038211156150b3576150b36152d0565b5060051b60200190565b600082198211156150d0576150d06152a4565b500190565b6000826150e4576150e46152ba565b500490565b6000828210156150fb576150fb6152a4565b500390565b600061510e6148498461509a565b808482526020808301925084368760051b8701111561512b578485fd5b845b878110156151695781356001600160401b0381111561514a578687fd5b61515636828a01614370565b865250938201939082019060010161512d565b50919695505050505050565b600060808236031215615186578081fd5b604051608081016001600160401b0382821081831117156151a9576151a96152d0565b81604052843591506151ba826152e6565b818352602085013560208401526040850135604084015260608501359150808211156151e4578384fd5b506151f136828601614370565b60608301525092915050565b60005b83811015615218578181015183820152602001615200565b838111156117bf5750506000910152565b600081615238576152386152a4565b506000190190565b600181811c9082168061525457607f821691505b602082108114156116d157634e487b7160e01b600052602260045260246000fd5b6000600019821415615289576152896152a4565b5060010190565b60008261529f5761529f6152ba565b500690565b634e487b7160e01b600052601160045260246000fd5b634e487b7160e01b600052601260045260246000fd5b634e487b7160e01b600052604160045260246000fd5b6001600160a01b038116811461103e57600080fd5b6001600160e01b03198116811461103e57600080fdfebe2bb46ac0377341a1ec5c3116d70fd5029d704bd46292e58f6265dd177ebafea164736f6c6343000804000a",
  "linkReferences": {},
  "deployedLinkReferences": {}
}