{
  "_format": "hh-sol-artifact-1",
  "contractName": "UNSRegistryV07",
  "sourceName": "contracts/history/UNSRegistryV07.sol",
  "abi": [
    {
      "anonymous": false,
      "inputs": [
        {
          "indexed": false,
          "internalType": "address",
          "name": "previousAdmin",
          "type": "address"
        },
        {
          "indexed": false,
          "internalType": "address",
          "name": "newAdmin",
          "type": "address"
        }
      ],
      "name": "AdminChanged",
      "type": "event"
    },
    {
      "anonymous": false,
      "inputs": [
        {
          "indexed": true,
          "internalType": "address",
          "name": "owner",
          "type": "address"
        },
        {
          "indexed": true,
          "internalType": "address",
          "name": "approved",
          "type": "address"
        },
        {
          "indexed": true,
          "internalType": "uint256",
          "name": "tokenId",
          "type": "uint256"
        }
      ],
      "name": "Approval",
      "type": "event"
    },
    {
      "anonymous": false,
      "inputs": [
        {
          "indexed": true,
          "internalType": "address",
          "name": "owner",
          "type": "address"
        },
        {
          "indexed": true,
          "internalType": "address",
          "name": "operator",
          "type": "address"
        },
        {
          "indexed": false,
          "internalType": "bool",
          "name": "approved",
          "type": "bool"
        }
      ],
      "name": "ApprovalForAll",
      "type": "event"
    },
    {
      "anonymous": false,
      "inputs": [
        {
          "indexed": false,
          "internalType": "uint8",
          "name": "version",
          "type": "uint8"
        }
      ],
      "name": "Initialized",
      "type": "event"
    },
    {
      "anonymous": false,
      "inputs": [
        {
          "indexed": true,
          "internalType": "uint256",
          "name": "tokenId",
          "type": "uint256"
        },
        {
          "indexed": true,
          "internalType": "string",
          "name": "keyIndex",
          "type": "string"
        },
        {
          "indexed": false,
          "internalType": "string",
          "name": "key",
          "type": "string"
        }
      ],
      "name": "NewKey",
      "type": "event"
    },
    {
      "anonymous": false,
      "inputs": [
        {
          "indexed": true,
          "internalType": "uint256",
          "name": "tokenId",
          "type": "uint256"
        },
        {
          "indexed": false,
          "internalType": "string",
          "name": "uri",
          "type": "string"
        }
      ],
      "name": "NewURI",
      "type": "event"
    },
    {
      "anonymous": false,
      "inputs": [
        {
          "indexed": false,
          "internalType": "string",
          "name": "prefix",
          "type": "string"
        }
      ],
      "name": "NewURIPrefix",
      "type": "event"
    },
    {
      "anonymous": false,
      "inputs": [
        {
          "indexed": true,
          "internalType": "address",
          "name": "addr",
          "type": "address"
        }
      ],
      "name": "RemoveReverse",
      "type": "event"
    },
    {
      "anonymous": false,
      "inputs": [
        {
          "indexed": true,
          "internalType": "uint256",
          "name": "tokenId",
          "type": "uint256"
        }
      ],
      "name": "ResetRecords",
      "type": "event"
    },
    {
      "anonymous": false,
      "inputs": [
        {
          "indexed": true,
          "internalType": "uint256",
          "name": "tokenId",
          "type": "uint256"
        },
        {
          "indexed": true,
          "internalType": "string",
          "name": "keyIndex",
          "type": "string"
        },
        {
          "indexed": true,
          "internalType": "string",
          "name": "valueIndex",
          "type": "string"
        },
        {
          "indexed": false,
          "internalType": "string",
          "name": "key",
          "type": "string"
        },
        {
          "indexed": false,
          "internalType": "string",
          "name": "value",
          "type": "string"
        }
      ],
      "name": "Set",
      "type": "event"
    },
    {
      "anonymous": false,
      "inputs": [
        {
          "indexed": true,
          "internalType": "address",
          "name": "addr",
          "type": "address"
        },
        {
          "indexed": true,
          "internalType": "uint256",
          "name": "tokenId",
          "type": "uint256"
        }
      ],
      "name": "SetReverse",
      "type": "event"
    },
    {
      "anonymous": false,
      "inputs": [
        {
          "indexed": true,
          "internalType": "address",
          "name": "from",
          "type": "address"
        },
        {
          "indexed": true,
          "internalType": "address",
          "name": "to",
          "type": "address"
        },
        {
          "indexed": true,
          "internalType": "uint256",
          "name": "tokenId",
          "type": "uint256"
        }
      ],
      "name": "Transfer",
      "type": "event"
    },
    {
      "anonymous": false,
      "inputs": [
        {
          "indexed": true,
          "internalType": "address",
          "name": "implementation",
          "type": "address"
        }
      ],
      "name": "Upgraded",
      "type": "event"
    },
    {
      "inputs": [],
      "name": "BATCH_LIMIT",
      "outputs": [
        {
          "internalType": "uint256",
          "name": "",
          "type": "uint256"
        }
      ],
      "stateMutability": "view",
      "type": "function"
    },
    {
      "inputs": [],
      "name": "NAME",
      "outputs": [
        {
          "internalType": "string",
          "name": "",
          "type": "string"
        }
      ],
      "stateMutability": "view",
      "type": "function"
    },
    {
      "inputs": [],
      "name": "VERSION",
      "outputs": [
        {
          "internalType": "string",
          "name": "",
          "type": "string"
        }
      ],
      "stateMutability": "view",
      "type": "function"
    },
    {
      "inputs": [
        {
          "internalType": "string",
          "name": "key",
          "type": "string"
        }
      ],
      "name": "addKey",
      "outputs": [],
      "stateMutability": "nonpayable",
      "type": "function"
    },
    {
      "inputs": [
        {
          "internalType": "address",
          "name": "addr",
          "type": "address"
        }
      ],
      "name": "addProxyReader",
      "outputs": [],
      "stateMutability": "nonpayable",
      "type": "function"
    },
    {
      "inputs": [
        {
          "internalType": "address",
          "name": "to",
          "type": "address"
        },
        {
          "internalType": "uint256",
          "name": "tokenId",
          "type": "uint256"
        }
      ],
      "name": "approve",
      "outputs": [],
      "stateMutability": "nonpayable",
      "type": "function"
    },
    {
      "inputs": [
        {
          "internalType": "address",
          "name": "owner",
          "type": "address"
        }
      ],
      "name": "balanceOf",
      "outputs": [
        {
          "internalType": "uint256",
          "name": "",
          "type": "uint256"
        }
      ],
      "stateMutability": "view",
      "type": "function"
    },
    {
      "inputs": [
        {
          "internalType": "uint256",
          "name": "tokenId",
          "type": "uint256"
        }
      ],
      "name": "burn",
      "outputs": [],
      "stateMutability": "nonpayable",
      "type": "function"
    },
    {
      "inputs": [
        {
          "internalType": "address",
          "name": "user",
          "type": "address"
        },
        {
          "internalType": "bytes",
          "name": "depositData",
          "type": "bytes"
        }
      ],
      "name": "deposit",
      "outputs": [],
      "stateMutability": "nonpayable",
      "type": "function"
    },
    {
      "inputs": [
        {
          "internalType": "uint256",
          "name": "tokenId",
          "type": "uint256"
        }
      ],
      "name": "depositToPolygon",
      "outputs": [],
      "stateMutability": "nonpayable",
      "type": "function"
    },
    {
      "inputs": [
        {
          "components": [
            {
              "internalType": "address",
              "name": "from",
              "type": "address"
            },
            {
              "internalType": "uint256",
              "name": "nonce",
              "type": "uint256"
            },
            {
              "internalType": "uint256",
              "name": "tokenId",
              "type": "uint256"
            },
            {
              "internalType": "bytes",
              "name": "data",
              "type": "bytes"
            }
          ],
          "internalType": "struct IForwarder.ForwardRequest",
          "name": "req",
          "type": "tuple"
        },
        {
          "internalType": "bytes",
          "name": "signature",
          "type": "bytes"
        }
      ],
      "name": "execute",
      "outputs": [
        {
          "internalType": "bytes",
          "name": "",
          "type": "bytes"
        }
      ],
      "stateMutability": "nonpayable",
      "type": "function"
    },
    {
      "inputs": [
        {
          "internalType": "uint256",
          "name": "tokenId",
          "type": "uint256"
        }
      ],
      "name": "exists",
      "outputs": [
        {
          "internalType": "bool",
          "name": "",
          "type": "bool"
        }
      ],
      "stateMutability": "view",
      "type": "function"
    },
    {
      "inputs": [
        {
          "internalType": "string",
          "name": "key",
          "type": "string"
        },
        {
          "internalType": "uint256",
          "name": "tokenId",
          "type": "uint256"
        }
      ],
      "name": "get",
      "outputs": [
        {
          "internalType": "string",
          "name": "value",
          "type": "string"
        }
      ],
      "stateMutability": "view",
      "type": "function"
    },
    {
      "inputs": [
        {
          "internalType": "uint256",
          "name": "tokenId",
          "type": "uint256"
        }
      ],
      "name": "getApproved",
      "outputs": [
        {
          "internalType": "address",
          "name": "",
          "type": "address"
        }
      ],
      "stateMutability": "view",
      "type": "function"
    },
    {
      "inputs": [
        {
          "internalType": "uint256",
          "name": "keyHash",
          "type": "uint256"
        },
        {
          "internalType": "uint256",
          "name": "tokenId",
          "type": "uint256"
        }
      ],
      "name": "getByHash",
      "outputs": [
        {
          "internalType": "string",
          "name": "key",
          "type": "string"
        },
        {
          "internalType": "string",
          "name": "value",
          "type": "string"
        }
      ],
      "stateMutability": "view",
      "type": "function"
    },
    {
      "inputs": [
        {
          "internalType": "uint256",
          "name": "keyHash",
          "type": "uint256"
        }
      ],
      "name": "getKey",
      "outputs": [
        {
          "internalType": "string",
          "name": "",
          "type": "string"
        }
      ],
      "stateMutability": "view",
      "type": "function"
    },
    {
      "inputs": [
        {
          "internalType": "uint256[]",
          "name": "hashes",
          "type": "uint256[]"
        }
      ],
      "name": "getKeys",
      "outputs": [
        {
          "internalType": "string[]",
          "name": "values",
          "type": "string[]"
        }
      ],
      "stateMutability": "view",
      "type": "function"
    },
    {
      "inputs": [
        {
          "internalType": "string[]",
          "name": "keys",
          "type": "string[]"
        },
        {
          "internalType": "uint256",
          "name": "tokenId",
          "type": "uint256"
        }
      ],
      "name": "getMany",
      "outputs": [
        {
          "internalType": "string[]",
          "name": "values",
          "type": "string[]"
        }
      ],
      "stateMutability": "view",
      "type": "function"
    },
    {
      "inputs": [
        {
          "internalType": "uint256[]",
          "name": "keyHashes",
          "type": "uint256[]"
        },
        {
          "internalType": "uint256",
          "name": "tokenId",
          "type": "uint256"
        }
      ],
      "name": "getManyByHash",
      "outputs": [
        {
          "internalType": "string[]",
          "name": "keys",
          "type": "string[]"
        },
        {
          "internalType": "string[]",
          "name": "values",
          "type": "string[]"
        }
      ],
      "stateMutability": "view",
      "type": "function"
    },
    {
      "inputs": [
        {
          "internalType": "address",
          "name": "mintingManager",
          "type": "address"
        },
        {
          "internalType": "address",
          "name": "cnsRegistry",
          "type": "address"
        },
        {
          "internalType": "address",
          "name": "rootChainManager",
          "type": "address"
        },
        {
          "internalType": "address",
          "name": "childChainManager",
          "type": "address"
        }
      ],
      "name": "initialize",
      "outputs": [],
      "stateMutability": "nonpayable",
      "type": "function"
    },
    {
      "inputs": [
        {
          "internalType": "address",
          "name": "owner",
          "type": "address"
        },
        {
          "internalType": "address",
          "name": "operator",
          "type": "address"
        }
      ],
      "name": "isApprovedForAll",
      "outputs": [
        {
          "internalType": "bool",
          "name": "",
          "type": "bool"
        }
      ],
      "stateMutability": "view",
      "type": "function"
    },
    {
      "inputs": [
        {
          "internalType": "address",
          "name": "spender",
          "type": "address"
        },
        {
          "internalType": "uint256",
          "name": "tokenId",
          "type": "uint256"
        }
      ],
      "name": "isApprovedOrOwner",
      "outputs": [
        {
          "internalType": "bool",
          "name": "",
          "type": "bool"
        }
      ],
      "stateMutability": "view",
      "type": "function"
    },
    {
      "inputs": [
        {
          "internalType": "address",
          "name": "forwarder",
          "type": "address"
        }
      ],
      "name": "isTrustedForwarder",
      "outputs": [
        {
          "internalType": "bool",
          "name": "",
          "type": "bool"
        }
      ],
      "stateMutability": "view",
      "type": "function"
    },
    {
      "inputs": [
        {
          "internalType": "address",
          "name": "user",
          "type": "address"
        },
        {
          "internalType": "uint256",
          "name": "tokenId",
          "type": "uint256"
        }
      ],
      "name": "mint",
      "outputs": [],
      "stateMutability": "nonpayable",
      "type": "function"
    },
    {
      "inputs": [
        {
          "internalType": "address",
          "name": "user",
          "type": "address"
        },
        {
          "internalType": "uint256",
          "name": "tokenId",
          "type": "uint256"
        },
        {
          "internalType": "bytes",
          "name": "",
          "type": "bytes"
        }
      ],
      "name": "mint",
      "outputs": [],
      "stateMutability": "nonpayable",
      "type": "function"
    },
    {
      "inputs": [
        {
          "internalType": "uint256",
          "name": "tokenId",
          "type": "uint256"
        },
        {
          "internalType": "string",
          "name": "uri",
          "type": "string"
        }
      ],
      "name": "mintTLD",
      "outputs": [],
      "stateMutability": "nonpayable",
      "type": "function"
    },
    {
      "inputs": [
        {
          "internalType": "address",
          "name": "to",
          "type": "address"
        },
        {
          "internalType": "string[]",
          "name": "labels",
          "type": "string[]"
        },
        {
          "internalType": "string[]",
          "name": "keys",
          "type": "string[]"
        },
        {
          "internalType": "string[]",
          "name": "values",
          "type": "string[]"
        },
        {
          "internalType": "bool",
          "name": "withReverse",
          "type": "bool"
        }
      ],
      "name": "mintWithRecords",
      "outputs": [],
      "stateMutability": "nonpayable",
      "type": "function"
    },
    {
      "inputs": [],
      "name": "name",
      "outputs": [
        {
          "internalType": "string",
          "name": "",
          "type": "string"
        }
      ],
      "stateMutability": "view",
      "type": "function"
    },
    {
      "inputs": [
        {
          "internalType": "string[]",
          "name": "labels",
          "type": "string[]"
        }
      ],
      "name": "namehash",
      "outputs": [
        {
          "internalType": "uint256",
          "name": "",
          "type": "uint256"
        }
      ],
      "stateMutability": "pure",
      "type": "function"
    },
    {
      "inputs": [
        {
          "internalType": "uint256",
          "name": "tokenId",
          "type": "uint256"
        }
      ],
      "name": "nonceOf",
      "outputs": [
        {
          "internalType": "uint256",
          "name": "",
          "type": "uint256"
        }
      ],
      "stateMutability": "view",
      "type": "function"
    },
    {
      "inputs": [
        {
          "internalType": "address",
          "name": "",
          "type": "address"
        },
        {
          "internalType": "address",
          "name": "from",
          "type": "address"
        },
        {
          "internalType": "uint256",
          "name": "tokenId",
          "type": "uint256"
        },
        {
          "internalType": "bytes",
          "name": "data",
          "type": "bytes"
        }
      ],
      "name": "onERC721Received",
      "outputs": [
        {
          "internalType": "bytes4",
          "name": "",
          "type": "bytes4"
        }
      ],
      "stateMutability": "nonpayable",
      "type": "function"
    },
    {
      "inputs": [
        {
          "internalType": "uint256",
          "name": "tokenId",
          "type": "uint256"
        }
      ],
      "name": "ownerOf",
      "outputs": [
        {
          "internalType": "address",
          "name": "",
          "type": "address"
        }
      ],
      "stateMutability": "view",
      "type": "function"
    },
    {
      "inputs": [
        {
          "internalType": "string[]",
          "name": "keys",
          "type": "string[]"
        },
        {
          "internalType": "string[]",
          "name": "values",
          "type": "string[]"
        },
        {
          "internalType": "uint256",
          "name": "tokenId",
          "type": "uint256"
        }
      ],
      "name": "reconfigure",
      "outputs": [],
      "stateMutability": "nonpayable",
      "type": "function"
    },
    {
      "inputs": [],
      "name": "removeReverse",
      "outputs": [],
      "stateMutability": "nonpayable",
      "type": "function"
    },
    {
      "inputs": [
        {
          "internalType": "uint256",
          "name": "tokenId",
          "type": "uint256"
        }
      ],
      "name": "reset",
      "outputs": [],
      "stateMutability": "nonpayable",
      "type": "function"
    },
    {
      "inputs": [
        {
          "internalType": "uint256",
          "name": "tokenId",
          "type": "uint256"
        }
      ],
      "name": "resolverOf",
      "outputs": [
        {
          "internalType": "address",
          "name": "",
          "type": "address"
        }
      ],
      "stateMutability": "view",
      "type": "function"
    },
    {
      "inputs": [
        {
          "internalType": "address",
          "name": "addr",
          "type": "address"
        }
      ],
      "name": "reverseNameOf",
      "outputs": [
        {
          "internalType": "string",
          "name": "reverseUri",
          "type": "string"
        }
      ],
      "stateMutability": "view",
      "type": "function"
    },
    {
      "inputs": [
        {
          "internalType": "address",
          "name": "addr",
          "type": "address"
        }
      ],
      "name": "reverseOf",
      "outputs": [
        {
          "internalType": "uint256",
          "name": "reverse",
          "type": "uint256"
        }
      ],
      "stateMutability": "view",
      "type": "function"
    },
    {
      "inputs": [],
      "name": "root",
      "outputs": [
        {
          "internalType": "uint256",
          "name": "",
          "type": "uint256"
        }
      ],
      "stateMutability": "pure",
      "type": "function"
    },
    {
      "inputs": [
        {
          "internalType": "address",
          "name": "from",
          "type": "address"
        },
        {
          "internalType": "address",
          "name": "to",
          "type": "address"
        },
        {
          "internalType": "uint256",
          "name": "tokenId",
          "type": "uint256"
        }
      ],
      "name": "safeTransferFrom",
      "outputs": [],
      "stateMutability": "nonpayable",
      "type": "function"
    },
    {
      "inputs": [
        {
          "internalType": "address",
          "name": "from",
          "type": "address"
        },
        {
          "internalType": "address",
          "name": "to",
          "type": "address"
        },
        {
          "internalType": "uint256",
          "name": "tokenId",
          "type": "uint256"
        },
        {
          "internalType": "bytes",
          "name": "data",
          "type": "bytes"
        }
      ],
      "name": "safeTransferFrom",
      "outputs": [],
      "stateMutability": "nonpayable",
      "type": "function"
    },
    {
      "inputs": [
        {
          "internalType": "string",
          "name": "key",
          "type": "string"
        },
        {
          "internalType": "string",
          "name": "value",
          "type": "string"
        },
        {
          "internalType": "uint256",
          "name": "tokenId",
          "type": "uint256"
        }
      ],
      "name": "set",
      "outputs": [],
      "stateMutability": "nonpayable",
      "type": "function"
    },
    {
      "inputs": [
        {
          "internalType": "address",
          "name": "operator",
          "type": "address"
        },
        {
          "internalType": "bool",
          "name": "approved",
          "type": "bool"
        }
      ],
      "name": "setApprovalForAll",
      "outputs": [],
      "stateMutability": "nonpayable",
      "type": "function"
    },
    {
      "inputs": [
        {
          "internalType": "uint256",
          "name": "keyHash",
          "type": "uint256"
        },
        {
          "internalType": "string",
          "name": "value",
          "type": "string"
        },
        {
          "internalType": "uint256",
          "name": "tokenId",
          "type": "uint256"
        }
      ],
      "name": "setByHash",
      "outputs": [],
      "stateMutability": "nonpayable",
      "type": "function"
    },
    {
      "inputs": [
        {
          "internalType": "string[]",
          "name": "keys",
          "type": "string[]"
        },
        {
          "internalType": "string[]",
          "name": "values",
          "type": "string[]"
        },
        {
          "internalType": "uint256",
          "name": "tokenId",
          "type": "uint256"
        }
      ],
      "name": "setMany",
      "outputs": [],
      "stateMutability": "nonpayable",
      "type": "function"
    },
    {
      "inputs": [
        {
          "internalType": "uint256[]",
          "name": "keyHashes",
          "type": "uint256[]"
        },
        {
          "internalType": "string[]",
          "name": "values",
          "type": "string[]"
        },
        {
          "internalType": "uint256",
          "name": "tokenId",
          "type": "uint256"
        }
      ],
      "name": "setManyByHash",
      "outputs": [],
      "stateMutability": "nonpayable",
      "type": "function"
    },
    {
      "inputs": [
        {
          "internalType": "address",
          "name": "to",
          "type": "address"
        },
        {
          "internalType": "uint256",
          "name": "tokenId",
          "type": "uint256"
        }
      ],
      "name": "setOwner",
      "outputs": [],
      "stateMutability": "nonpayable",
      "type": "function"
    },
    {
      "inputs": [
        {
          "internalType": "string[]",
          "name": "labels",
          "type": "string[]"
        }
      ],
      "name": "setReverse",
      "outputs": [],
      "stateMutability": "nonpayable",
      "type": "function"
    },
    {
      "inputs": [
        {
          "internalType": "string",
          "name": "prefix",
          "type": "string"
        }
      ],
      "name": "setTokenURIPrefix",
      "outputs": [],
      "stateMutability": "nonpayable",
      "type": "function"
    },
    {
      "inputs": [
        {
          "internalType": "bytes4",
          "name": "interfaceId",
          "type": "bytes4"
        }
      ],
      "name": "supportsInterface",
      "outputs": [
        {
          "internalType": "bool",
          "name": "",
          "type": "bool"
        }
      ],
      "stateMutability": "view",
      "type": "function"
    },
    {
      "inputs": [],
      "name": "symbol",
      "outputs": [
        {
          "internalType": "string",
          "name": "",
          "type": "string"
        }
      ],
      "stateMutability": "view",
      "type": "function"
    },
    {
      "inputs": [
        {
          "internalType": "uint256",
          "name": "tokenId",
          "type": "uint256"
        }
      ],
      "name": "tokenURI",
      "outputs": [
        {
          "internalType": "string",
          "name": "",
          "type": "string"
        }
      ],
      "stateMutability": "view",
      "type": "function"
    },
    {
      "inputs": [
        {
          "internalType": "address",
          "name": "from",
          "type": "address"
        },
        {
          "internalType": "address",
          "name": "to",
          "type": "address"
        },
        {
          "internalType": "uint256",
          "name": "tokenId",
          "type": "uint256"
        }
      ],
      "name": "transferFrom",
      "outputs": [],
      "stateMutability": "nonpayable",
      "type": "function"
    },
    {
      "inputs": [
        {
          "internalType": "address",
          "name": "to",
          "type": "address"
        },
        {
          "internalType": "string[]",
          "name": "labels",
          "type": "string[]"
        },
        {
          "internalType": "string[]",
          "name": "keys",
          "type": "string[]"
        },
        {
          "internalType": "string[]",
          "name": "values",
          "type": "string[]"
        },
        {
          "internalType": "bool",
          "name": "withReverse",
          "type": "bool"
        }
      ],
      "name": "unlockWithRecords",
      "outputs": [],
      "stateMutability": "nonpayable",
      "type": "function"
    },
    {
      "inputs": [
        {
          "components": [
            {
              "internalType": "address",
              "name": "from",
              "type": "address"
            },
            {
              "internalType": "uint256",
              "name": "nonce",
              "type": "uint256"
            },
            {
              "internalType": "uint256",
              "name": "tokenId",
              "type": "uint256"
            },
            {
              "internalType": "bytes",
              "name": "data",
              "type": "bytes"
            }
          ],
          "internalType": "struct IForwarder.ForwardRequest",
          "name": "req",
          "type": "tuple"
        },
        {
          "internalType": "bytes",
          "name": "signature",
          "type": "bytes"
        }
      ],
      "name": "verify",
      "outputs": [
        {
          "internalType": "bool",
          "name": "",
          "type": "bool"
        }
      ],
      "stateMutability": "view",
      "type": "function"
    },
    {
      "inputs": [
        {
          "internalType": "bytes",
          "name": "inputData",
          "type": "bytes"
        },
        {
          "internalType": "uint256",
          "name": "tokenId",
          "type": "uint256"
        },
        {
          "internalType": "string[]",
          "name": "keys",
          "type": "string[]"
        },
        {
          "internalType": "string[]",
          "name": "values",
          "type": "string[]"
        }
      ],
      "name": "withdrawFromPolygon",
      "outputs": [],
      "stateMutability": "nonpayable",
      "type": "function"
    }
  ],
  "bytecode": "0x608060405234801561001057600080fd5b50614beb806100206000396000f3fe608060405234801561001057600080fd5b50600436106103785760003560e01c806370a08231116101d3578063ba5d40b711610104578063ebf0c717116100a2578063f5c1f76e1161007c578063f5c1f76e14610806578063f7df5c6014610819578063f8c8765e1461082c578063ffa1ad741461083f57600080fd5b8063ebf0c717146107e4578063ec129eea146107eb578063f25eb5c1146107fe57600080fd5b8063c87b56dd116100de578063c87b56dd1461076f578063ce92b33e14610782578063cf2c52cb14610795578063e985e9c5146107a857600080fd5b8063ba5d40b714610736578063bb5b27e114610749578063bebec6b41461075c57600080fd5b8063a22cb46511610171578063ab3b87fe1161014b578063ab3b87fe146106dc578063b3f9e4cb146106ef578063b85afd2814610702578063b88d4fde1461072357600080fd5b8063a22cb4651461068a578063a3f4df7e1461069d578063a4247400146106c957600080fd5b80639508b1c4116101ad5780639508b1c4146106545780639559c0bd1461066757806395d89b411461066f57806399e0dd7c1461067757600080fd5b806370a082311461061b5780637e37479e1461062e57806394d008ef1461064157600080fd5b806342842e0e116102ad578063509602391161024b578063638e5c7811610225578063638e5c78146105b3578063663f7b2a146105c6578063672b9f81146105d95780636ccbae5f146105fa57600080fd5b80635096023914610571578063572b6c05146105845780636352211e146105a057600080fd5b806347c816991161028757806347c81699146105255780634a72584d146105385780634f558e791461054b57806350382c1a1461055e57600080fd5b806342842e0e146104ec57806342966c68146104ff578063430c20811461051257600080fd5b80631bf7e13e1161031a578063276fabb1116102f4578063276fabb11461049257806327f18975146104b3578063310bd74b146104c657806340c10f19146104d957600080fd5b80631bf7e13e146104595780631f71be061461046c57806323b872dd1461047f57600080fd5b8063095ea7b311610356578063095ea7b3146103e5578063150b7a02146103fa5780631bd8cc1a146104265780631be5e7ed1461044657600080fd5b806301ffc9a71461037d57806306fdde03146103a5578063081812fc146103ba575b600080fd5b61039061038b366004613ae1565b610863565b60405190151581526020015b60405180910390f35b6103ad610874565b60405161039c9190613b56565b6103cd6103c8366004613b69565b610906565b6040516001600160a01b03909116815260200161039c565b6103f86103f3366004613b97565b61092d565b005b61040d610408366004613c04565b610946565b6040516001600160e01b0319909116815260200161039c565b610439610434366004613cba565b610aa1565b60405161039c9190613d5d565b6103ad610454366004613d70565b610b97565b6103ad610467366004613da7565b610be2565b6103f861047a366004613e2c565b610ced565b6103f861048d366004613ee8565b610d94565b6104a56104a0366004613f29565b610de7565b60405190815260200161039c565b6103f86104c1366004613f6a565b610df6565b6103f86104d4366004613b69565b610e3e565b6103f86104e7366004613b97565b610e79565b6103f86104fa366004613ee8565b610ec6565b6103f861050d366004613b69565b610ee1565b610390610520366004613b97565b610f25565b6103f8610533366004613fdd565b610f31565b6103f861054636600461403e565b610f70565b610390610559366004613b69565b610fb6565b6103f861056c366004614145565b610fd5565b6103f861057f366004614179565b61100b565b610390610592366004614179565b6001600160a01b0316301490565b6103cd6105ae366004613b69565b61106b565b6103f86105c1366004613b69565b6110cb565b6103f86105d4366004614231565b611116565b6105ec6105e7366004614279565b61114f565b60405161039c92919061429b565b6104a5610608366004613b69565b6000908152610100602052604090205490565b6104a5610629366004614179565b611167565b6104a561063c366004614179565b6111ed565b6103f861064f3660046142c0565b61121e565b6103f861066236600461431b565b61126d565b6104a5601481565b6103ad6112f4565b6103f86106853660046143be565b611303565b6103f86106983660046143f3565b611389565b6103ad6040518060400160405280600d81526020016c554e533a20526567697374727960981b81525081565b6103906106d7366004613da7565b61139b565b6103f86106ea366004613b97565b6113e6565b6103cd6106fd366004613b69565b61142b565b610715610710366004613cba565b611455565b60405161039c92919061441f565b6103f8610731366004614444565b611577565b6103f8610744366004613e2c565b6115be565b6103ad610757366004613b69565b61162f565b6103ad61076a366004614179565b6116d1565b6103ad61077d366004613b69565b61179b565b6103f8610790366004613f6a565b611801565b6103f86107a33660046144af565b611840565b6103906107b63660046144f6565b6001600160a01b039182166000908152606a6020908152604080832093909416825291909152205460ff1690565b60006104a5565b6103f86107f9366004613f6a565b61190f565b6103f861194e565b610439610814366004613f29565b6119d4565b6103f861082736600461452f565b611a87565b6103f861083a366004614561565b611b18565b6103ad60405180604001604052806005815260200164302e372e3360d81b81525081565b600061086e82611cee565b92915050565b606060658054610883906145bd565b80601f01602080910402602001604051908101604052809291908181526020018280546108af906145bd565b80156108fc5780601f106108d1576101008083540402835291602001916108fc565b820191906000526020600020905b8154815290600101906020018083116108df57829003601f168201915b5050505050905090565b600061091182611d3e565b506000908152606960205260409020546001600160a01b031690565b8061093781611d9d565b6109418383611e04565b505050565b60007f8ffb960699dc2ba88f34d0e41c029c3c36c95149679fe1d0153a9582bec92378546001600160a01b031661097b611f27565b6001600160a01b03161415610a3d57610992611f27565b6001600160a01b03166342966c68856040518263ffffffff1660e01b81526004016109bf91815260200190565b600060405180830381600087803b1580156109d957600080fd5b505af11580156109ed573d6000803e3d6000fd5b505050821580159150610a075750610a07828401846145f2565b15610a2557610a163085611f36565b610a208585612084565b610a2f565b610a2f8585611f36565b50630a85bd0160e11b610a98565b60405162461bcd60e51b815260206004820152602560248201527f52656769737472793a204552433732315f524543454956494e475f50524f4849604482015264109255115160da1b60648201526084015b60405180910390fd5b95945050505050565b6060826001600160401b03811115610abb57610abb614090565b604051908082528060200260200182016040528015610aee57816020015b6060815260200190600190039081610ad95790505b50905060005b83811015610b8f57610b5f858583818110610b1157610b1161460d565b9050602002810190610b239190614623565b8080601f01602080910402602001604051908101604052809392919081815260200183838082843760009201919091525087925061212f915050565b828281518110610b7157610b7161460d565b60200260200101819052508080610b879061467f565b915050610af4565b509392505050565b6060610bda84848080601f01602080910402602001604051908101604052809392919081815260200183838082843760009201919091525086925061212f915050565b949350505050565b606060005a9050610bf485858561139b565b610c505760405162461bcd60e51b815260206004820152602760248201527f554e535265676973747279466f727761726465723a205349474e41545552455f6044820152661253959053125160ca1b6064820152608401610a8f565b610ce2610c606020870187614179565b30604088013584610c7460608b018b614623565b8080601f01602080910402602001604051908101604052809392919081815260200183838082843760009201919091525050604080516020601f8e018190048102820181019092528c815292508c91508b908190840183828082843760009201919091525061216492505050565b9150505b9392505050565b610134546001600160a01b0316610d02611f27565b6001600160a01b031614610d285760405162461bcd60e51b8152600401610a8f9061469a565b6000610d3c610d37888a6146e1565b612245565b9050610d4781612294565b610d5a610d538261106b565b8a83612301565b610d6786868686856124a8565b8115610d8957610d898982610d84610d7f8b8d6146e1565b612516565b612597565b505050505050505050565b80610da6610da0611f27565b826125d9565b610dc25760405162461bcd60e51b8152600401610a8f906146ee565b81610dcc81611d9d565b610dd583612294565b610de0858585612301565b5050505050565b6000610ce6610d3783856146e1565b80610e02610da0611f27565b610e1e5760405162461bcd60e51b8152600401610a8f906146ee565b81610e2881611d9d565b610e358787878787612657565b50505050505050565b80610e4a610da0611f27565b610e665760405162461bcd60e51b8152600401610a8f906146ee565b81610e7081611d9d565b61094183612294565b610e816126ba565b6001600160a01b0316610e92611f27565b6001600160a01b031614610eb85760405162461bcd60e51b8152600401610a8f90614737565b610ec28282611f36565b5050565b61094183838360405180602001604052806000815250611577565b80610eed610da0611f27565b610f095760405162461bcd60e51b8152600401610a8f906146ee565b81610f1381611d9d565b610f1c83612294565b610941836127af565b6000610ce683836125d9565b80610f3d610da0611f27565b610f595760405162461bcd60e51b8152600401610a8f906146ee565b81610f6381611d9d565b610e358787878787612856565b80610f7c610da0611f27565b610f985760405162461bcd60e51b8152600401610a8f906146ee565b81610fa281611d9d565b610fae86868686612935565b505050505050565b6000818152606760205260408120546001600160a01b0316151561086e565b61100881604051602001610fe99190614779565b6040516020818303038152906040528051906020012060001c826129d5565b50565b610134546001600160a01b0316611020611f27565b6001600160a01b0316146110465760405162461bcd60e51b8152600401610a8f9061469a565b6001600160a01b0316600090815261013660205260409020805460ff19166001179055565b6000818152606760205260408120546001600160a01b03168061086e5760405162461bcd60e51b8152602060048201526018602482015277115490cdcc8c4e881a5b9d985b1a59081d1bdad95b88125160421b6044820152606401610a8f565b806110d7610da0611f27565b6110f35760405162461bcd60e51b8152600401610a8f906146ee565b6111056110fe611f27565b3084612301565b610ec2611110611f27565b83612084565b600061112182612245565b905061112c81612a01565b61113581611d9d565b610ec2611140611f27565b8261114a85612516565b612a71565b60608061115c8484612afe565b909590945092505050565b60006001600160a01b0382166111d15760405162461bcd60e51b815260206004820152602960248201527f4552433732313a2061646472657373207a65726f206973206e6f7420612076616044820152683634b21037bbb732b960b91b6064820152608401610a8f565b506001600160a01b031660009081526068602052604090205490565b6001600160a01b0381166000908152610135602052604081205461121081612b1f565b611218578091505b50919050565b6112266126ba565b6001600160a01b0316611237611f27565b6001600160a01b03161461125d5760405162461bcd60e51b8152600401610a8f90614737565b6112678484611f36565b50505050565b6112778787612b69565b61127f611f27565b6001600160a01b03166112918661106b565b6001600160a01b0316146112e75760405162461bcd60e51b815260206004820152601d60248201527f52656769737472793a2053454e4445525f49535f4e4f545f4f574e45520000006044820152606401610a8f565b610e3584848484896124a8565b606060668054610883906145bd565b610134546001600160a01b0316611318611f27565b6001600160a01b03161461133e5760405162461bcd60e51b8152600401610a8f9061469a565b61134b61013383836139c2565b507f4b120d6a959a84a520fa48f5f937cca0e79129423487af7901213b5d2e89313b828260405161137d9291906147be565b60405180910390a15050565b610ec2611394611f27565b8383612bd8565b6000610bda6113a9856147d2565b3085858080601f016020809104026020016040519081016040528093929190818152602001838380828437600092019190915250612ca792505050565b806113f2610da0611f27565b61140e5760405162461bcd60e51b8152600401610a8f906146ee565b8161141881611d9d565b6112676114248461106b565b8585612301565b6000818152606760205260408120546001600160a01b031661144e57600061086e565b3092915050565b606080836001600160401b0381111561147057611470614090565b6040519080825280602002602001820160405280156114a357816020015b606081526020019060019003908161148e5790505b509150836001600160401b038111156114be576114be614090565b6040519080825280602002602001820160405280156114f157816020015b60608152602001906001900390816114dc5790505b50905060005b8481101561156e576115218686838181106115145761151461460d565b9050602002013585612afe565b8483815181106115335761153361460d565b6020026020010184848151811061154c5761154c61460d565b60200260200101829052829052505080806115669061467f565b9150506114f7565b50935093915050565b81611583610da0611f27565b61159f5760405162461bcd60e51b8152600401610a8f906146ee565b826115a981611d9d565b6115b284612294565b610fae86868686612df0565b610134546001600160a01b03166115d3611f27565b6001600160a01b0316146115f95760405162461bcd60e51b8152600401610a8f9061469a565b6000611608610d37888a6146e1565b9050611622898261161c610d7f8b8d6146e1565b85612e23565b610d8986868686856124a8565b600081815260c96020526040902080546060919061164c906145bd565b80601f0160208091040260200160405190810160405280929190818152602001828054611678906145bd565b80156116c55780601f1061169a576101008083540402835291602001916116c5565b820191906000526020600020905b8154815290600101906020018083116116a857829003601f168201915b50505050509050919050565b6001600160a01b038116600090815261013560205260409020546060906116f781612b1f565b611218576000818152610138602052604090208054611715906145bd565b80601f0160208091040260200160405190810160405280929190818152602001828054611741906145bd565b801561178e5780601f106117635761010080835404028352916020019161178e565b820191906000526020600020905b81548152906001019060200180831161177157829003601f168201915b5050505050915050919050565b60606117a682611d3e565b60006117b0612e76565b905060008151116117d05760405180602001604052806000815250610ce6565b806117da84612e86565b6040516020016117eb92919061485c565b6040516020818303038152906040529392505050565b8061180d610da0611f27565b6118295760405162461bcd60e51b8152600401610a8f906146ee565b8161183381611d9d565b610e3587878787876124a8565b7f8bea9a6f8afd34f4e29c585f854e0cc5161431bf5fc299d468454d33dce53b87546001600160a01b0316611873611f27565b6001600160a01b0316146118995760405162461bcd60e51b8152600401610a8f90614737565b60208114156118bc5760006118b082840184613b69565b90506112678482611f36565b60006118ca8284018461488b565b805190915060005b81811015610fae576118fd868483815181106118f0576118f061460d565b6020026020010151611f36565b806119078161467f565b9150506118d2565b8061191b610da0611f27565b6119375760405162461bcd60e51b8152600401610a8f906146ee565b8161194181611d9d565b610e358787878787612f83565b6000611958611f27565b6001600160a01b038116600090815261013560205260409020549091506119cb5760405162461bcd60e51b815260206004820152602160248201527f52656769737472793a20524556455253455f5245434f52445f49535f454d50546044820152605960f81b6064820152608401610a8f565b61100881612f99565b6060816001600160401b038111156119ee576119ee614090565b604051908082528060200260200182016040528015611a2157816020015b6060815260200190600190039081611a0c5790505b50905060005b82811015611a8057611a50848483818110611a4457611a4461460d565b9050602002013561162f565b828281518110611a6257611a6261460d565b60200260200101819052508080611a789061467f565b915050611a27565b5092915050565b610134546001600160a01b0316611a9c611f27565b6001600160a01b031614611ac25760405162461bcd60e51b8152600401610a8f9061469a565b61013454611ad9906001600160a01b031684611f36565b827fc5beef08f693b11c316c0c8394a377a0033c9cf701b8cd8afd79cecef60c39528383604051611b0b9291906147be565b60405180910390a2505050565b600054610100900460ff1615808015611b385750600054600160ff909116105b80611b525750303b158015611b52575060005460ff166001145b611bb55760405162461bcd60e51b815260206004820152602e60248201527f496e697469616c697a61626c653a20636f6e747261637420697320616c72656160448201526d191e481a5b9a5d1a585b1a5e995960921b6064820152608401610a8f565b6000805460ff191660011790558015611bd8576000805461ff0019166101001790555b61013480546001600160a01b0319166001600160a01b038716179055837f8ffb960699dc2ba88f34d0e41c029c3c36c95149679fe1d0153a9582bec9237880546001600160a01b0319166001600160a01b03929092169190911790556040805180820182526013815272556e73746f707061626c6520446f6d61696e7360681b60208083019190915282518084019093526002835261155160f21b90830152611c8091612fde565b611c8861302c565b611c9061302c565b611c9983613055565b611ca282613085565b8015610de0576000805461ff0019169055604051600181527f7f26b83ff96e1f2b6a682f133852f6798a09c465da95921460cefb38474024989060200160405180910390a15050505050565b60006001600160e01b031982166380ac58cd60e01b1480611d1f57506001600160e01b03198216635b5e139f60e01b145b8061086e57506301ffc9a760e01b6001600160e01b031983161461086e565b6000818152606760205260409020546001600160a01b03166110085760405162461bcd60e51b8152602060048201526018602482015277115490cdcc8c4e881a5b9d985b1a59081d1bdad95b88125160421b6044820152606401610a8f565b30331415611dfb57611dad6130b5565b81146110085760405162461bcd60e51b815260206004820152601760248201527f52656769737472793a20544f4b454e5f494e56414c49440000000000000000006044820152606401610a8f565b611008816130ca565b6000611e0f8261106b565b9050806001600160a01b0316836001600160a01b03161415611e7d5760405162461bcd60e51b815260206004820152602160248201527f4552433732313a20617070726f76616c20746f2063757272656e74206f776e656044820152603960f91b6064820152608401610a8f565b806001600160a01b0316611e8f611f27565b6001600160a01b03161480611eab5750611eab816107b6611f27565b611f1d5760405162461bcd60e51b815260206004820152603e60248201527f4552433732313a20617070726f76652063616c6c6572206973206e6f7420746f60448201527f6b656e206f776e6572206e6f7220617070726f76656420666f7220616c6c00006064820152608401610a8f565b61094183836130f8565b6000611f31613166565b905090565b6001600160a01b038216611f8c5760405162461bcd60e51b815260206004820181905260248201527f4552433732313a206d696e7420746f20746865207a65726f20616464726573736044820152606401610a8f565b6000818152606760205260409020546001600160a01b031615611ff15760405162461bcd60e51b815260206004820152601c60248201527f4552433732313a20746f6b656e20616c7265616479206d696e746564000000006044820152606401610a8f565b611ffd60008383613182565b6001600160a01b038216600090815260686020526040812080546001929061202690849061491b565b909155505060008181526067602052604080822080546001600160a01b0319166001600160a01b03861690811790915590518392907fddf252ad1be2c89b69c2b068fc378daa952ba7f163c4a11628f55a4df523b3ef908290a45050565b600061208e6126ba565b905061209a81836130f8565b600080516020614bbf83398151915254604080516020808201869052825180830390910181528183019283905263e3dec8fb60e01b9092526001600160a01b0390921691829163e3dec8fb916120f7918891309190604401614933565b600060405180830381600087803b15801561211157600080fd5b505af1158015612125573d6000803e3d6000fd5b5050505050505050565b6060610ce6836040516020016121459190614779565b6040516020818303038152906040528051906020012060001c8361321f565b606061216f856130ca565b600080876001600160a01b0316866121898b8a8989613301565b6040516121969190614779565b60006040518083038160008787f1925050503d80600081146121d4576040519150601f19603f3d011682016040523d82523d6000602084013e6121d9565b606091505b5090925090506121ea603f87614975565b5a116121f8576121f8614989565b61223882826040518060400160405280601a81526020017f42617365466f727761726465723a2043414c4c5f4641494c4544000000000000815250613331565b9998505050505050505050565b805160009081905b8015611a8057612280828561226360018561499f565b815181106122735761227361460d565b602002602001015161336a565b91508061228c816149b6565b91505061224d565b61229d81613417565b6040516020016122af91815260200190565b60408051601f198184030181528282528051602091820120600085815260cb9092529181209190915582917f185c30856dadb58bf097c1f665a52ada7029752dbcad008ea3fefc73bee8c9fe9190a250565b826001600160a01b03166123148261106b565b6001600160a01b0316146123785760405162461bcd60e51b815260206004820152602560248201527f4552433732313a207472616e736665722066726f6d20696e636f72726563742060448201526437bbb732b960d91b6064820152608401610a8f565b6001600160a01b0382166123da5760405162461bcd60e51b8152602060048201526024808201527f4552433732313a207472616e7366657220746f20746865207a65726f206164646044820152637265737360e01b6064820152608401610a8f565b6123e5838383613182565b6123f06000826130f8565b6001600160a01b038316600090815260686020526040812080546001929061241990849061499f565b90915550506001600160a01b038216600090815260686020526040812080546001929061244790849061491b565b909155505060008181526067602052604080822080546001600160a01b0319166001600160a01b0386811691821790925591518493918716917fddf252ad1be2c89b69c2b068fc378daa952ba7f163c4a11628f55a4df523b3ef91a4505050565b60005b84811015610fae576125048686838181106124c8576124c861460d565b90506020028101906124da9190614623565b8686858181106124ec576124ec61460d565b90506020028101906124fe9190614623565b86612856565b8061250e8161467f565b9150506124ab565b606060008260008151811061252d5761252d61460d565b602002602001015190506000600190505b8351811015611a80578184828151811061255a5761255a61460d565b60200260200101516040516020016125739291906149cd565b6040516020818303038152906040529150808061258f9061467f565b91505061253e565b61dead6001600160a01b038416148015906125c957506001600160a01b03831660009081526101356020526040902054155b1561094157610941838383612a71565b6000806125e58361106b565b9050806001600160a01b0316846001600160a01b0316148061262c57506001600160a01b038082166000908152606a602090815260408083209388168352929052205460ff165b80610bda5750836001600160a01b031661264584610906565b6001600160a01b031614949350505050565b60005b84811015610fae576126a88686838181106126775761267761460d565b905060200201358585848181106126905761269061460d565b90506020028101906126a29190614623565b85612935565b806126b28161467f565b91505061265a565b600080600080516020614bbf8339815191525460405163721804d360e11b81523060048201526001600160a01b039091169150600090829063e43009a690602401602060405180830381865afa158015612718573d6000803e3d6000fd5b505050506040513d601f19601f8201168201806040525081019061273c9190614a09565b60405163e66f960360e01b8152600481018290529091506001600160a01b0383169063e66f960390602401602060405180830381865afa158015612784573d6000803e3d6000fd5b505050506040513d601f19601f820116820180604052508101906127a89190614a22565b9250505090565b60006127ba8261106b565b90506127c881600084613182565b6127d36000836130f8565b6001600160a01b03811660009081526068602052604081208054600192906127fc90849061499f565b909155505060008281526067602052604080822080546001600160a01b0319169055518391906001600160a01b038416907fddf252ad1be2c89b69c2b068fc378daa952ba7f163c4a11628f55a4df523b3ef908390a45050565b6000858560405160200161286b929190614a3f565b60408051601f198184030181528282528051602091820120601f89018290048202840182019092528783529092506128bf91839189908990819084018382808284376000920191909152506129d592505050565b610fae8187878080601f01602080910402602001604051908101604052809392919081815260200183838082843760009201919091525050604080516020601f8b018190048102820181019092528981529250899150889081908401838280828437600092019190915250889250613443915050565b61293e8461357e565b61298a5760405162461bcd60e51b815260206004820152601c60248201527f5265636f726453746f726167653a204b45595f4e4f545f464f554e44000000006044820152606401610a8f565b611267846129978661162f565b85858080601f016020809104026020016040519081016040528093929190818152602001838380828437600092019190915250879250613443915050565b6129de8261357e565b610ec257600082815260c960209081526040909120825161094192840190613a42565b612a09611f27565b6001600160a01b0316612a1b8261106b565b6001600160a01b0316146110085760405162461bcd60e51b815260206004820152601d60248201527f52656769737472793a2053454e4445525f49535f4e4f545f4f574e45520000006044820152606401610a8f565b6000828152610138602052604090208054612a8b906145bd565b15159050612ab5576000828152610138602090815260409091208251612ab392840190613a42565b505b6001600160a01b03831660008181526101356020526040808220859055518492917feb76a21470988c474a21f690cc28fee1ed511bd812dc3c21fd0f49c5e5d4708a91a3505050565b606080612b0a8461162f565b9150612b16848461321f565b90509250929050565b6000818152610137602052604081205460ff16801561086e57506101366000612b46611f27565b6001600160a01b0316815260208101919091526040016000205460ff1692915050565b600080516020614bbf83398151915254604051633805550f60e01b81526001600160a01b03909116908190633805550f90612baa90869086906004016147be565b600060405180830381600087803b158015612bc457600080fd5b505af1158015610e35573d6000803e3d6000fd5b816001600160a01b0316836001600160a01b03161415612c3a5760405162461bcd60e51b815260206004820152601960248201527f4552433732313a20617070726f766520746f2063616c6c6572000000000000006044820152606401610a8f565b6001600160a01b038381166000818152606a6020908152604080832094871680845294825291829020805460ff191686151590811790915591519182527f17307eab39ab6107e8899845ad3d59bd9653f200f220920489ca2b5937696c31910160405180910390a3505050565b6040838101519051636ccbae5f60e01b8152600481019190915260009081903090636ccbae5f90602401602060405180830381865afa158015612cee573d6000803e3d6000fd5b505050506040513d601f19601f82011682018060405250810190612d129190614a09565b90506000612dc0866060015180519060200120868860200151604051602001612d609392919092835260609190911b6bffffffffffffffffffffffff19166020830152603482015260540190565b60408051601f1981840301815282825280516020918201207f19457468657265756d205369676e6564204d6573736167653a0a33320000000084830152603c8085019190915282518085039091018152605c909301909152815191012090565b9050818660200151148015612de657508551612de6906001600160a01b031682866135a4565b9695505050505050565b612dfb848484612301565b612e07848484846136e6565b6112675760405162461bcd60e51b8152600401610a8f90614a4f565b612e2d8484611f36565b827fc5beef08f693b11c316c0c8394a377a0033c9cf701b8cd8afd79cecef60c395283604051612e5d9190613b56565b60405180910390a2801561126757611267848484612597565b60606101338054610883906145bd565b606081612eaa5750506040805180820190915260018152600360fc1b602082015290565b8160005b8115612ed45780612ebe8161467f565b9150612ecd9050600a83614975565b9150612eae565b6000816001600160401b03811115612eee57612eee614090565b6040519080825280601f01601f191660200182016040528015612f18576020820181803683370190505b5090505b8415610bda57612f2d60018361499f565b9150612f3a600a86614aa1565b612f4590603061491b565b60f81b818381518110612f5a57612f5a61460d565b60200101906001600160f81b031916908160001a905350612f7c600a86614975565b9450612f1c565b612f8c81612294565b610de085858585856124a8565b6001600160a01b03811660008181526101356020526040808220829055517ffcf5eec0cfa3e6332f5f0e63ec242d71f866a61d121d6cdf5c2eb3b668a26c4f9190a250565b600054610100900460ff166130055760405162461bcd60e51b8152600401610a8f90614ab5565b8151613018906065906020850190613a42565b508051610941906066906020840190613a42565b600054610100900460ff166130535760405162461bcd60e51b8152600401610a8f90614ab5565b565b600054610100900460ff1661307c5760405162461bcd60e51b8152600401610a8f90614ab5565b611008816137e8565b600054610100900460ff166130ac5760405162461bcd60e51b8152600401610a8f90614ab5565b61100881613841565b6000303314156130c75750601f193601355b90565b600081815261010060205260409020546130e590600161491b565b6000918252610100602052604090912055565b600081815260696020526040902080546001600160a01b0319166001600160a01b038416908117909155819061312d8261106b565b6001600160a01b03167f8c5be1e5ebec7d5bd14f71427d1e84f3dd0314c0f7b2291e5b200ac8c7c3b92560405160405180910390a45050565b60003033141561317d575060331936013560601c90565b503390565b6000818152610137602052604090205460ff1615806131a957506001600160a01b03821615155b6131f55760405162461bcd60e51b815260206004820152601860248201527f52656769737472793a20544f4b454e5f555047524144454400000000000000006044820152606401610a8f565b6001600160a01b038316600090815261013560205260409020548114156109415761094183612f99565b606061322a82612b1f565b15613244575060408051602081019091526000815261086e565b60ca600061325184613417565b81526020019081526020016000206000848152602001908152602001600020805461327b906145bd565b80601f01602080910402602001604051908101604052809291908181526020018280546132a7906145bd565b80156132f45780601f106132c9576101008083540402835291602001916132f4565b820191906000526020600020905b8154815290600101906020018083116132d757829003601f168201915b5050505050905092915050565b606082858560405160200161331893929190614b00565b6040516020818303038152906040529050949350505050565b60608315613340575081610ce6565b8251156133505782518084602001fd5b8160405162461bcd60e51b8152600401610a8f9190613b56565b60008151600014156133b65760405162461bcd60e51b815260206004820152601560248201527452656769737472793a204c4142454c5f454d50545960581b6044820152606401610a8f565b82826040516020016133c89190614779565b604051602081830303815290604052805190602001206040516020016133f8929190918252602082015260400190565b60408051601f1981840301815291905280516020909101209392505050565b600081815260cb60205260408120541561343f57600082815260cb602052604090205461086e565b5090565b60ca600061345083613417565b81526020019081526020016000206000858152602001908152602001600020805461347a906145bd565b151590506134d157826040516134909190614779565b6040518091039020817f7ae4f661958fbecc2f77be6b0eb280d2a6f604b29e1e7221c82b9da0c4af7f86856040516134c89190613b56565b60405180910390a35b8160ca60006134df84613417565b815260200190815260200160002060008681526020019081526020016000209080519060200190613511929190613a42565b50816040516135209190614779565b6040518091039020836040516135369190614779565b6040518091039020827f851ffe8e74d5015261dba0a1f9e1b0e5d42c5af5d2ad1908fee897c7d80a0d92868660405161357092919061429b565b60405180910390a450505050565b600081815260c960205260408120805482919061359a906145bd565b9050119050919050565b60008060006135b3858561388f565b909250905060008160048111156135cc576135cc614b3f565b1480156135ea5750856001600160a01b0316826001600160a01b0316145b156135fa57600192505050610ce6565b600080876001600160a01b0316631626ba7e60e01b8888604051602401613622929190614b55565b60408051601f198184030181529181526020820180516001600160e01b03166001600160e01b03199094169390931790925290516136609190614779565b600060405180830381855afa9150503d806000811461369b576040519150601f19603f3d011682016040523d82523d6000602084013e6136a0565b606091505b50915091508180156136b3575080516020145b80156136da57508051630b135d3f60e11b906136d89083016020908101908401614a09565b145b98975050505050505050565b60006001600160a01b0384163b156137e057836001600160a01b031663150b7a0261370f611f27565b8786866040518563ffffffff1660e01b81526004016137319493929190614b6e565b6020604051808303816000875af192505050801561376c575060408051601f3d908101601f1916820190925261376991810190614ba1565b60015b6137c6573d80801561379a576040519150601f19603f3d011682016040523d82523d6000602084013e61379f565b606091505b5080516137be5760405162461bcd60e51b8152600401610a8f90614a4f565b805181602001fd5b6001600160e01b031916630a85bd0160e11b149050610bda565b506001610bda565b600054610100900460ff1661380f5760405162461bcd60e51b8152600401610a8f90614ab5565b80600080516020614bbf8339815191525b80546001600160a01b0319166001600160a01b039290921691909117905550565b600054610100900460ff166138685760405162461bcd60e51b8152600401610a8f90614ab5565b807f8bea9a6f8afd34f4e29c585f854e0cc5161431bf5fc299d468454d33dce53b87613820565b6000808251604114156138c65760208301516040840151606085015160001a6138ba878285856138d5565b945094505050506138ce565b506000905060025b9250929050565b6000807f7fffffffffffffffffffffffffffffff5d576e7357a4501ddfe92f46681b20a083111561390c57506000905060036139b9565b8460ff16601b1415801561392457508460ff16601c14155b1561393557506000905060046139b9565b6040805160008082526020820180845289905260ff881692820192909252606081018690526080810185905260019060a0016020604051602081039080840390855afa158015613989573d6000803e3d6000fd5b5050604051601f1901519150506001600160a01b0381166139b2576000600192509250506139b9565b9150600090505b94509492505050565b8280546139ce906145bd565b90600052602060002090601f0160209004810192826139f05760008555613a36565b82601f10613a095782800160ff19823516178555613a36565b82800160010185558215613a36579182015b82811115613a36578235825591602001919060010190613a1b565b5061343f929150613ab6565b828054613a4e906145bd565b90600052602060002090601f016020900481019282613a705760008555613a36565b82601f10613a8957805160ff1916838001178555613a36565b82800160010185558215613a36579182015b82811115613a36578251825591602001919060010190613a9b565b5b8082111561343f5760008155600101613ab7565b6001600160e01b03198116811461100857600080fd5b600060208284031215613af357600080fd5b8135610ce681613acb565b60005b83811015613b19578181015183820152602001613b01565b838111156112675750506000910152565b60008151808452613b42816020860160208601613afe565b601f01601f19169290920160200192915050565b602081526000610ce66020830184613b2a565b600060208284031215613b7b57600080fd5b5035919050565b6001600160a01b038116811461100857600080fd5b60008060408385031215613baa57600080fd5b8235613bb581613b82565b946020939093013593505050565b60008083601f840112613bd557600080fd5b5081356001600160401b03811115613bec57600080fd5b6020830191508360208285010111156138ce57600080fd5b600080600080600060808688031215613c1c57600080fd5b8535613c2781613b82565b94506020860135613c3781613b82565b93506040860135925060608601356001600160401b03811115613c5957600080fd5b613c6588828901613bc3565b969995985093965092949392505050565b60008083601f840112613c8857600080fd5b5081356001600160401b03811115613c9f57600080fd5b6020830191508360208260051b85010111156138ce57600080fd5b600080600060408486031215613ccf57600080fd5b83356001600160401b03811115613ce557600080fd5b613cf186828701613c76565b909790965060209590950135949350505050565b600082825180855260208086019550808260051b84010181860160005b84811015613d5057601f19868403018952613d3e838351613b2a565b98840198925090830190600101613d22565b5090979650505050505050565b602081526000610ce66020830184613d05565b600080600060408486031215613d8557600080fd5b83356001600160401b03811115613d9b57600080fd5b613cf186828701613bc3565b600080600060408486031215613dbc57600080fd5b83356001600160401b0380821115613dd357600080fd5b9085019060808288031215613de757600080fd5b90935060208501359080821115613dfd57600080fd5b50613e0a86828701613bc3565b9497909650939450505050565b80358015158114613e2757600080fd5b919050565b60008060008060008060008060a0898b031215613e4857600080fd5b8835613e5381613b82565b975060208901356001600160401b0380821115613e6f57600080fd5b613e7b8c838d01613c76565b909950975060408b0135915080821115613e9457600080fd5b613ea08c838d01613c76565b909750955060608b0135915080821115613eb957600080fd5b50613ec68b828c01613c76565b9094509250613ed9905060808a01613e17565b90509295985092959890939650565b600080600060608486031215613efd57600080fd5b8335613f0881613b82565b92506020840135613f1881613b82565b929592945050506040919091013590565b60008060208385031215613f3c57600080fd5b82356001600160401b03811115613f5257600080fd5b613f5e85828601613c76565b90969095509350505050565b600080600080600060608688031215613f8257600080fd5b85356001600160401b0380821115613f9957600080fd5b613fa589838a01613c76565b90975095506020880135915080821115613fbe57600080fd5b50613fcb88828901613c76565b96999598509660400135949350505050565b600080600080600060608688031215613ff557600080fd5b85356001600160401b038082111561400c57600080fd5b61401889838a01613bc3565b9097509550602088013591508082111561403157600080fd5b50613fcb88828901613bc3565b6000806000806060858703121561405457600080fd5b8435935060208501356001600160401b0381111561407157600080fd5b61407d87828801613bc3565b9598909750949560400135949350505050565b634e487b7160e01b600052604160045260246000fd5b604051601f8201601f191681016001600160401b03811182821017156140ce576140ce614090565b604052919050565b600082601f8301126140e757600080fd5b81356001600160401b0381111561410057614100614090565b614113601f8201601f19166020016140a6565b81815284602083860101111561412857600080fd5b816020850160208301376000918101602001919091529392505050565b60006020828403121561415757600080fd5b81356001600160401b0381111561416d57600080fd5b610bda848285016140d6565b60006020828403121561418b57600080fd5b8135610ce681613b82565b60006001600160401b038211156141af576141af614090565b5060051b60200190565b60006141cc6141c784614196565b6140a6565b8381529050602080820190600585901b8401868111156141eb57600080fd5b845b818110156142265780356001600160401b0381111561420c5760008081fd5b614218898289016140d6565b8552509282019282016141ed565b505050509392505050565b60006020828403121561424357600080fd5b81356001600160401b0381111561425957600080fd5b8201601f8101841361426a57600080fd5b610bda848235602084016141b9565b6000806040838503121561428c57600080fd5b50508035926020909101359150565b6040815260006142ae6040830185613b2a565b8281036020840152610ce28185613b2a565b600080600080606085870312156142d657600080fd5b84356142e181613b82565b93506020850135925060408501356001600160401b0381111561430357600080fd5b61430f87828801613bc3565b95989497509550505050565b60008060008060008060006080888a03121561433657600080fd5b87356001600160401b038082111561434d57600080fd5b6143598b838c01613bc3565b909950975060208a0135965060408a013591508082111561437957600080fd5b6143858b838c01613c76565b909650945060608a013591508082111561439e57600080fd5b506143ab8a828b01613c76565b989b979a50959850939692959293505050565b600080602083850312156143d157600080fd5b82356001600160401b038111156143e757600080fd5b613f5e85828601613bc3565b6000806040838503121561440657600080fd5b823561441181613b82565b9150612b1660208401613e17565b6040815260006144326040830185613d05565b8281036020840152610ce28185613d05565b6000806000806080858703121561445a57600080fd5b843561446581613b82565b9350602085013561447581613b82565b92506040850135915060608501356001600160401b0381111561449757600080fd5b6144a3878288016140d6565b91505092959194509250565b6000806000604084860312156144c457600080fd5b83356144cf81613b82565b925060208401356001600160401b038111156144ea57600080fd5b613e0a86828701613bc3565b6000806040838503121561450957600080fd5b823561451481613b82565b9150602083013561452481613b82565b809150509250929050565b60008060006040848603121561454457600080fd5b8335925060208401356001600160401b038111156144ea57600080fd5b6000806000806080858703121561457757600080fd5b843561458281613b82565b9350602085013561459281613b82565b925060408501356145a281613b82565b915060608501356145b281613b82565b939692955090935050565b600181811c908216806145d157607f821691505b6020821081141561121857634e487b7160e01b600052602260045260246000fd5b60006020828403121561460457600080fd5b610ce682613e17565b634e487b7160e01b600052603260045260246000fd5b6000808335601e1984360301811261463a57600080fd5b8301803591506001600160401b0382111561465457600080fd5b6020019150368190038213156138ce57600080fd5b634e487b7160e01b600052601160045260246000fd5b600060001982141561469357614693614669565b5060010190565b60208082526027908201527f52656769737472793a2053454e4445525f49535f4e4f545f4d494e54494e475f60408201526626a0a720a3a2a960c91b606082015260800190565b6000610ce63684846141b9565b60208082526029908201527f52656769737472793a2053454e4445525f49535f4e4f545f415050524f5645446040820152682fa7a92fa7aba722a960b91b606082015260800190565b60208082526022908201527f52656769737472793a20494e53554646494349454e545f5045524d495353494f6040820152614e5360f01b606082015260800190565b6000825161478b818460208701613afe565b9190910192915050565b81835281816020850137506000828201602090810191909152601f909101601f19169091010190565b602081526000610bda602083018486614795565b6000608082360312156147e457600080fd5b604051608081016001600160401b03828210818311171561480757614807614090565b816040528435915061481882613b82565b8183526020850135602084015260408501356040840152606085013591508082111561484357600080fd5b50614850368286016140d6565b60608301525092915050565b6000835161486e818460208801613afe565b835190830190614882818360208801613afe565b01949350505050565b6000602080838503121561489e57600080fd5b82356001600160401b038111156148b457600080fd5b8301601f810185136148c557600080fd5b80356148d36141c782614196565b81815260059190911b820183019083810190878311156148f257600080fd5b928401925b82841015614910578335825292840192908401906148f7565b979650505050505050565b6000821982111561492e5761492e614669565b500190565b6001600160a01b03848116825283166020820152606060408201819052600090610a9890830184613b2a565b634e487b7160e01b600052601260045260246000fd5b6000826149845761498461495f565b500490565b634e487b7160e01b600052600160045260246000fd5b6000828210156149b1576149b1614669565b500390565b6000816149c5576149c5614669565b506000190190565b600083516149df818460208801613afe565b601760f91b90830190815283516149fd816001840160208801613afe565b01600101949350505050565b600060208284031215614a1b57600080fd5b5051919050565b600060208284031215614a3457600080fd5b8151610ce681613b82565b8183823760009101908152919050565b60208082526032908201527f4552433732313a207472616e7366657220746f206e6f6e20455243373231526560408201527131b2b4bb32b91034b6b83632b6b2b73a32b960711b606082015260800190565b600082614ab057614ab061495f565b500690565b6020808252602b908201527f496e697469616c697a61626c653a20636f6e7472616374206973206e6f74206960408201526a6e697469616c697a696e6760a81b606082015260800190565b60008451614b12818460208901613afe565b60609490941b6bffffffffffffffffffffffff191691909301908152601481019190915260340192915050565b634e487b7160e01b600052602160045260246000fd5b828152604060208201526000610bda6040830184613b2a565b6001600160a01b0385811682528416602082015260408101839052608060608201819052600090612de690830184613b2a565b600060208284031215614bb357600080fd5b8151610ce681613acb56febe2bb46ac0377341a1ec5c3116d70fd5029d704bd46292e58f6265dd177ebafea164736f6c634300080c000a",
  "linkReferences": {},
  "deployedLinkReferences": {}
}