{
  "_format": "hh-sol-artifact-1",
  "contractName": "UNSRegistry",
  "sourceName": "contracts/UNSRegistry.sol",
  "abi": [
    {
      "anonymous": false,
      "inputs": [
        {
          "indexed": false,
          "internalType": "address",
          "name": "previousAdmin",
          "type": "address"
        },
        {
          "indexed": false,
          "internalType": "address",
          "name": "newAdmin",
          "type": "address"
        }
      ],
      "name": "AdminChanged",
      "type": "event"
    },
    {
      "anonymous": false,
      "inputs": [
        {
          "indexed": true,
          "internalType": "address",
          "name": "owner",
          "type": "address"
        },
        {
          "indexed": true,
          "internalType": "address",
          "name": "approved",
          "type": "address"
        },
        {
          "indexed": true,
          "internalType": "uint256",
          "name": "tokenId",
          "type": "uint256"
        }
      ],
      "name": "Approval",
      "type": "event"
    },
    {
      "anonymous": false,
      "inputs": [
        {
          "indexed": true,
          "internalType": "address",
          "name": "owner",
          "type": "address"
        },
        {
          "indexed": true,
          "internalType": "address",
          "name": "operator",
          "type": "address"
        },
        {
          "indexed": false,
          "internalType": "bool",
          "name": "approved",
          "type": "bool"
        }
      ],
      "name": "ApprovalForAll",
      "type": "event"
    },
    {
      "anonymous": false,
      "inputs": [
        {
          "indexed": false,
          "internalType": "uint8",
          "name": "version",
          "type": "uint8"
        }
      ],
      "name": "Initialized",
      "type": "event"
    },
    {
      "anonymous": false,
      "inputs": [
        {
          "indexed": true,
          "internalType": "uint256",
          "name": "tokenId",
          "type": "uint256"
        },
        {
          "indexed": true,
          "internalType": "string",
          "name": "keyIndex",
          "type": "string"
        },
        {
          "indexed": false,
          "internalType": "string",
          "name": "key",
          "type": "string"
        }
      ],
      "name": "NewKey",
      "type": "event"
    },
    {
      "anonymous": false,
      "inputs": [
        {
          "indexed": true,
          "internalType": "uint256",
          "name": "tokenId",
          "type": "uint256"
        },
        {
          "indexed": false,
          "internalType": "string",
          "name": "uri",
          "type": "string"
        }
      ],
      "name": "NewURI",
      "type": "event"
    },
    {
      "anonymous": false,
      "inputs": [
        {
          "indexed": false,
          "internalType": "string",
          "name": "prefix",
          "type": "string"
        }
      ],
      "name": "NewURIPrefix",
      "type": "event"
    },
    {
      "anonymous": false,
      "inputs": [
        {
          "indexed": true,
          "internalType": "address",
          "name": "addr",
          "type": "address"
        }
      ],
      "name": "RemoveReverse",
      "type": "event"
    },
    {
      "anonymous": false,
      "inputs": [
        {
          "indexed": true,
          "internalType": "uint256",
          "name": "tokenId",
          "type": "uint256"
        }
      ],
      "name": "ResetRecords",
      "type": "event"
    },
    {
      "anonymous": false,
      "inputs": [
        {
          "indexed": true,
          "internalType": "uint256",
          "name": "tokenId",
          "type": "uint256"
        },
        {
          "indexed": true,
          "internalType": "string",
          "name": "keyIndex",
          "type": "string"
        },
        {
          "indexed": true,
          "internalType": "string",
          "name": "valueIndex",
          "type": "string"
        },
        {
          "indexed": false,
          "internalType": "string",
          "name": "key",
          "type": "string"
        },
        {
          "indexed": false,
          "internalType": "string",
          "name": "value",
          "type": "string"
        }
      ],
      "name": "Set",
      "type": "event"
    },
    {
      "anonymous": false,
      "inputs": [
        {
          "indexed": true,
          "internalType": "address",
          "name": "addr",
          "type": "address"
        },
        {
          "indexed": true,
          "internalType": "uint256",
          "name": "tokenId",
          "type": "uint256"
        }
      ],
      "name": "SetReverse",
      "type": "event"
    },
    {
      "anonymous": false,
      "inputs": [
        {
          "indexed": true,
          "internalType": "address",
          "name": "from",
          "type": "address"
        },
        {
          "indexed": true,
          "internalType": "address",
          "name": "to",
          "type": "address"
        },
        {
          "indexed": true,
          "internalType": "uint256",
          "name": "tokenId",
          "type": "uint256"
        }
      ],
      "name": "Transfer",
      "type": "event"
    },
    {
      "anonymous": false,
      "inputs": [
        {
          "indexed": true,
          "internalType": "address",
          "name": "implementation",
          "type": "address"
        }
      ],
      "name": "Upgraded",
      "type": "event"
    },
    {
      "anonymous": false,
      "inputs": [
        {
          "indexed": true,
          "internalType": "address",
          "name": "user",
          "type": "address"
        },
        {
          "indexed": false,
          "internalType": "uint256[]",
          "name": "tokenIds",
          "type": "uint256[]"
        }
      ],
      "name": "WithdrawnBatch",
      "type": "event"
    },
    {
      "inputs": [],
      "name": "BATCH_LIMIT",
      "outputs": [
        {
          "internalType": "uint256",
          "name": "",
          "type": "uint256"
        }
      ],
      "stateMutability": "view",
      "type": "function"
    },
    {
      "inputs": [],
      "name": "NAME",
      "outputs": [
        {
          "internalType": "string",
          "name": "",
          "type": "string"
        }
      ],
      "stateMutability": "view",
      "type": "function"
    },
    {
      "inputs": [],
      "name": "VERSION",
      "outputs": [
        {
          "internalType": "string",
          "name": "",
          "type": "string"
        }
      ],
      "stateMutability": "view",
      "type": "function"
    },
    {
      "inputs": [
        {
          "internalType": "string",
          "name": "key",
          "type": "string"
        }
      ],
      "name": "addKey",
      "outputs": [],
      "stateMutability": "nonpayable",
      "type": "function"
    },
    {
      "inputs": [
        {
          "internalType": "address",
          "name": "to",
          "type": "address"
        },
        {
          "internalType": "uint256",
          "name": "tokenId",
          "type": "uint256"
        }
      ],
      "name": "approve",
      "outputs": [],
      "stateMutability": "nonpayable",
      "type": "function"
    },
    {
      "inputs": [
        {
          "internalType": "address",
          "name": "owner",
          "type": "address"
        }
      ],
      "name": "balanceOf",
      "outputs": [
        {
          "internalType": "uint256",
          "name": "",
          "type": "uint256"
        }
      ],
      "stateMutability": "view",
      "type": "function"
    },
    {
      "inputs": [
        {
          "internalType": "uint256",
          "name": "tokenId",
          "type": "uint256"
        }
      ],
      "name": "burn",
      "outputs": [],
      "stateMutability": "nonpayable",
      "type": "function"
    },
    {
      "inputs": [
        {
          "internalType": "uint256",
          "name": "tokenId",
          "type": "uint256"
        },
        {
          "internalType": "string",
          "name": "label",
          "type": "string"
        }
      ],
      "name": "childIdOf",
      "outputs": [
        {
          "internalType": "uint256",
          "name": "",
          "type": "uint256"
        }
      ],
      "stateMutability": "pure",
      "type": "function"
    },
    {
      "inputs": [
        {
          "internalType": "address",
          "name": "user",
          "type": "address"
        },
        {
          "internalType": "bytes",
          "name": "depositData",
          "type": "bytes"
        }
      ],
      "name": "deposit",
      "outputs": [],
      "stateMutability": "nonpayable",
      "type": "function"
    },
    {
      "inputs": [
        {
          "internalType": "uint256",
          "name": "tokenId",
          "type": "uint256"
        }
      ],
      "name": "depositToPolygon",
      "outputs": [],
      "stateMutability": "nonpayable",
      "type": "function"
    },
    {
      "inputs": [
        {
          "internalType": "uint256[]",
          "name": "tokenIds",
          "type": "uint256[]"
        }
      ],
      "name": "deprecateAll",
      "outputs": [],
      "stateMutability": "nonpayable",
      "type": "function"
    },
    {
      "inputs": [
        {
          "components": [
            {
              "internalType": "address",
              "name": "from",
              "type": "address"
            },
            {
              "internalType": "uint256",
              "name": "nonce",
              "type": "uint256"
            },
            {
              "internalType": "uint256",
              "name": "tokenId",
              "type": "uint256"
            },
            {
              "internalType": "bytes",
              "name": "data",
              "type": "bytes"
            }
          ],
          "internalType": "struct IForwarder.ForwardRequest",
          "name": "req",
          "type": "tuple"
        },
        {
          "internalType": "bytes",
          "name": "signature",
          "type": "bytes"
        }
      ],
      "name": "execute",
      "outputs": [
        {
          "internalType": "bytes",
          "name": "",
          "type": "bytes"
        }
      ],
      "stateMutability": "nonpayable",
      "type": "function"
    },
    {
      "inputs": [
        {
          "internalType": "uint256",
          "name": "tokenId",
          "type": "uint256"
        }
      ],
      "name": "exists",
      "outputs": [
        {
          "internalType": "bool",
          "name": "",
          "type": "bool"
        }
      ],
      "stateMutability": "view",
      "type": "function"
    },
    {
      "inputs": [
        {
          "internalType": "string",
          "name": "key",
          "type": "string"
        },
        {
          "internalType": "uint256",
          "name": "tokenId",
          "type": "uint256"
        }
      ],
      "name": "get",
      "outputs": [
        {
          "internalType": "string",
          "name": "value",
          "type": "string"
        }
      ],
      "stateMutability": "view",
      "type": "function"
    },
    {
      "inputs": [
        {
          "internalType": "uint256",
          "name": "tokenId",
          "type": "uint256"
        }
      ],
      "name": "getApproved",
      "outputs": [
        {
          "internalType": "address",
          "name": "",
          "type": "address"
        }
      ],
      "stateMutability": "view",
      "type": "function"
    },
    {
      "inputs": [
        {
          "internalType": "uint256",
          "name": "keyHash",
          "type": "uint256"
        },
        {
          "internalType": "uint256",
          "name": "tokenId",
          "type": "uint256"
        }
      ],
      "name": "getByHash",
      "outputs": [
        {
          "internalType": "string",
          "name": "key",
          "type": "string"
        },
        {
          "internalType": "string",
          "name": "value",
          "type": "string"
        }
      ],
      "stateMutability": "view",
      "type": "function"
    },
    {
      "inputs": [
        {
          "internalType": "uint256",
          "name": "keyHash",
          "type": "uint256"
        }
      ],
      "name": "getKey",
      "outputs": [
        {
          "internalType": "string",
          "name": "",
          "type": "string"
        }
      ],
      "stateMutability": "view",
      "type": "function"
    },
    {
      "inputs": [
        {
          "internalType": "uint256[]",
          "name": "hashes",
          "type": "uint256[]"
        }
      ],
      "name": "getKeys",
      "outputs": [
        {
          "internalType": "string[]",
          "name": "values",
          "type": "string[]"
        }
      ],
      "stateMutability": "view",
      "type": "function"
    },
    {
      "inputs": [
        {
          "internalType": "string[]",
          "name": "keys",
          "type": "string[]"
        },
        {
          "internalType": "uint256",
          "name": "tokenId",
          "type": "uint256"
        }
      ],
      "name": "getMany",
      "outputs": [
        {
          "internalType": "string[]",
          "name": "values",
          "type": "string[]"
        }
      ],
      "stateMutability": "view",
      "type": "function"
    },
    {
      "inputs": [
        {
          "internalType": "uint256[]",
          "name": "keyHashes",
          "type": "uint256[]"
        },
        {
          "internalType": "uint256",
          "name": "tokenId",
          "type": "uint256"
        }
      ],
      "name": "getManyByHash",
      "outputs": [
        {
          "internalType": "string[]",
          "name": "keys",
          "type": "string[]"
        },
        {
          "internalType": "string[]",
          "name": "values",
          "type": "string[]"
        }
      ],
      "stateMutability": "view",
      "type": "function"
    },
    {
      "inputs": [
        {
          "internalType": "address",
          "name": "mintingManager",
          "type": "address"
        }
      ],
      "name": "initialize",
      "outputs": [],
      "stateMutability": "nonpayable",
      "type": "function"
    },
    {
      "inputs": [
        {
          "internalType": "address",
          "name": "owner",
          "type": "address"
        },
        {
          "internalType": "address",
          "name": "operator",
          "type": "address"
        }
      ],
      "name": "isApprovedForAll",
      "outputs": [
        {
          "internalType": "bool",
          "name": "",
          "type": "bool"
        }
      ],
      "stateMutability": "view",
      "type": "function"
    },
    {
      "inputs": [
        {
          "internalType": "address",
          "name": "spender",
          "type": "address"
        },
        {
          "internalType": "uint256",
          "name": "tokenId",
          "type": "uint256"
        }
      ],
      "name": "isApprovedOrOwner",
      "outputs": [
        {
          "internalType": "bool",
          "name": "",
          "type": "bool"
        }
      ],
      "stateMutability": "view",
      "type": "function"
    },
    {
      "inputs": [
        {
          "internalType": "address",
          "name": "forwarder",
          "type": "address"
        }
      ],
      "name": "isTrustedForwarder",
      "outputs": [
        {
          "internalType": "bool",
          "name": "",
          "type": "bool"
        }
      ],
      "stateMutability": "view",
      "type": "function"
    },
    {
      "inputs": [
        {
          "internalType": "address",
          "name": "user",
          "type": "address"
        },
        {
          "internalType": "uint256",
          "name": "tokenId",
          "type": "uint256"
        }
      ],
      "name": "mint",
      "outputs": [],
      "stateMutability": "nonpayable",
      "type": "function"
    },
    {
      "inputs": [
        {
          "internalType": "address",
          "name": "user",
          "type": "address"
        },
        {
          "internalType": "uint256",
          "name": "tokenId",
          "type": "uint256"
        },
        {
          "internalType": "bytes",
          "name": "",
          "type": "bytes"
        }
      ],
      "name": "mint",
      "outputs": [],
      "stateMutability": "nonpayable",
      "type": "function"
    },
    {
      "inputs": [
        {
          "internalType": "address",
          "name": "to",
          "type": "address"
        },
        {
          "internalType": "uint256",
          "name": "tokenId",
          "type": "uint256"
        },
        {
          "internalType": "string",
          "name": "uri",
          "type": "string"
        }
      ],
      "name": "mint",
      "outputs": [],
      "stateMutability": "nonpayable",
      "type": "function"
    },
    {
      "inputs": [
        {
          "internalType": "address",
          "name": "to",
          "type": "address"
        },
        {
          "internalType": "uint256",
          "name": "tokenId",
          "type": "uint256"
        },
        {
          "internalType": "string",
          "name": "uri",
          "type": "string"
        },
        {
          "internalType": "string[]",
          "name": "keys",
          "type": "string[]"
        },
        {
          "internalType": "string[]",
          "name": "values",
          "type": "string[]"
        }
      ],
      "name": "mintWithRecords",
      "outputs": [],
      "stateMutability": "nonpayable",
      "type": "function"
    },
    {
      "inputs": [],
      "name": "name",
      "outputs": [
        {
          "internalType": "string",
          "name": "",
          "type": "string"
        }
      ],
      "stateMutability": "view",
      "type": "function"
    },
    {
      "inputs": [
        {
          "internalType": "uint256",
          "name": "tokenId",
          "type": "uint256"
        }
      ],
      "name": "nonceOf",
      "outputs": [
        {
          "internalType": "uint256",
          "name": "",
          "type": "uint256"
        }
      ],
      "stateMutability": "view",
      "type": "function"
    },
    {
      "inputs": [
        {
          "internalType": "address",
          "name": "",
          "type": "address"
        },
        {
          "internalType": "address",
          "name": "from",
          "type": "address"
        },
        {
          "internalType": "uint256",
          "name": "tokenId",
          "type": "uint256"
        },
        {
          "internalType": "bytes",
          "name": "data",
          "type": "bytes"
        }
      ],
      "name": "onERC721Received",
      "outputs": [
        {
          "internalType": "bytes4",
          "name": "",
          "type": "bytes4"
        }
      ],
      "stateMutability": "nonpayable",
      "type": "function"
    },
    {
      "inputs": [
        {
          "internalType": "uint256",
          "name": "tokenId",
          "type": "uint256"
        }
      ],
      "name": "ownerOf",
      "outputs": [
        {
          "internalType": "address",
          "name": "",
          "type": "address"
        }
      ],
      "stateMutability": "view",
      "type": "function"
    },
    {
      "inputs": [
        {
          "internalType": "string[]",
          "name": "keys",
          "type": "string[]"
        },
        {
          "internalType": "string[]",
          "name": "values",
          "type": "string[]"
        },
        {
          "internalType": "uint256",
          "name": "tokenId",
          "type": "uint256"
        }
      ],
      "name": "reconfigure",
      "outputs": [],
      "stateMutability": "nonpayable",
      "type": "function"
    },
    {
      "inputs": [],
      "name": "removeReverse",
      "outputs": [],
      "stateMutability": "nonpayable",
      "type": "function"
    },
    {
      "inputs": [
        {
          "internalType": "uint256",
          "name": "tokenId",
          "type": "uint256"
        }
      ],
      "name": "reset",
      "outputs": [],
      "stateMutability": "nonpayable",
      "type": "function"
    },
    {
      "inputs": [
        {
          "internalType": "uint256",
          "name": "tokenId",
          "type": "uint256"
        }
      ],
      "name": "resolverOf",
      "outputs": [
        {
          "internalType": "address",
          "name": "",
          "type": "address"
        }
      ],
      "stateMutability": "view",
      "type": "function"
    },
    {
      "inputs": [
        {
          "internalType": "address",
          "name": "addr",
          "type": "address"
        }
      ],
      "name": "reverseOf",
      "outputs": [
        {
          "internalType": "uint256",
          "name": "",
          "type": "uint256"
        }
      ],
      "stateMutability": "view",
      "type": "function"
    },
    {
      "inputs": [],
      "name": "root",
      "outputs": [
        {
          "internalType": "uint256",
          "name": "",
          "type": "uint256"
        }
      ],
      "stateMutability": "pure",
      "type": "function"
    },
    {
      "inputs": [
        {
          "internalType": "address",
          "name": "to",
          "type": "address"
        },
        {
          "internalType": "uint256",
          "name": "tokenId",
          "type": "uint256"
        },
        {
          "internalType": "string",
          "name": "uri",
          "type": "string"
        },
        {
          "internalType": "bytes",
          "name": "data",
          "type": "bytes"
        }
      ],
      "name": "safeMint",
      "outputs": [],
      "stateMutability": "nonpayable",
      "type": "function"
    },
    {
      "inputs": [
        {
          "internalType": "address",
          "name": "to",
          "type": "address"
        },
        {
          "internalType": "uint256",
          "name": "tokenId",
          "type": "uint256"
        },
        {
          "internalType": "string",
          "name": "uri",
          "type": "string"
        }
      ],
      "name": "safeMint",
      "outputs": [],
      "stateMutability": "nonpayable",
      "type": "function"
    },
    {
      "inputs": [
        {
          "internalType": "address",
          "name": "to",
          "type": "address"
        },
        {
          "internalType": "uint256",
          "name": "tokenId",
          "type": "uint256"
        },
        {
          "internalType": "string",
          "name": "uri",
          "type": "string"
        },
        {
          "internalType": "string[]",
          "name": "keys",
          "type": "string[]"
        },
        {
          "internalType": "string[]",
          "name": "values",
          "type": "string[]"
        }
      ],
      "name": "safeMintWithRecords",
      "outputs": [],
      "stateMutability": "nonpayable",
      "type": "function"
    },
    {
      "inputs": [
        {
          "internalType": "address",
          "name": "to",
          "type": "address"
        },
        {
          "internalType": "uint256",
          "name": "tokenId",
          "type": "uint256"
        },
        {
          "internalType": "string",
          "name": "uri",
          "type": "string"
        },
        {
          "internalType": "string[]",
          "name": "keys",
          "type": "string[]"
        },
        {
          "internalType": "string[]",
          "name": "values",
          "type": "string[]"
        },
        {
          "internalType": "bytes",
          "name": "data",
          "type": "bytes"
        }
      ],
      "name": "safeMintWithRecords",
      "outputs": [],
      "stateMutability": "nonpayable",
      "type": "function"
    },
    {
      "inputs": [
        {
          "internalType": "address",
          "name": "from",
          "type": "address"
        },
        {
          "internalType": "address",
          "name": "to",
          "type": "address"
        },
        {
          "internalType": "uint256",
          "name": "tokenId",
          "type": "uint256"
        }
      ],
      "name": "safeTransferFrom",
      "outputs": [],
      "stateMutability": "nonpayable",
      "type": "function"
    },
    {
      "inputs": [
        {
          "internalType": "address",
          "name": "from",
          "type": "address"
        },
        {
          "internalType": "address",
          "name": "to",
          "type": "address"
        },
        {
          "internalType": "uint256",
          "name": "tokenId",
          "type": "uint256"
        },
        {
          "internalType": "bytes",
          "name": "data",
          "type": "bytes"
        }
      ],
      "name": "safeTransferFrom",
      "outputs": [],
      "stateMutability": "nonpayable",
      "type": "function"
    },
    {
      "inputs": [
        {
          "internalType": "string",
          "name": "key",
          "type": "string"
        },
        {
          "internalType": "string",
          "name": "value",
          "type": "string"
        },
        {
          "internalType": "uint256",
          "name": "tokenId",
          "type": "uint256"
        }
      ],
      "name": "set",
      "outputs": [],
      "stateMutability": "nonpayable",
      "type": "function"
    },
    {
      "inputs": [
        {
          "internalType": "address",
          "name": "operator",
          "type": "address"
        },
        {
          "internalType": "bool",
          "name": "approved",
          "type": "bool"
        }
      ],
      "name": "setApprovalForAll",
      "outputs": [],
      "stateMutability": "nonpayable",
      "type": "function"
    },
    {
      "inputs": [
        {
          "internalType": "uint256",
          "name": "keyHash",
          "type": "uint256"
        },
        {
          "internalType": "string",
          "name": "value",
          "type": "string"
        },
        {
          "internalType": "uint256",
          "name": "tokenId",
          "type": "uint256"
        }
      ],
      "name": "setByHash",
      "outputs": [],
      "stateMutability": "nonpayable",
      "type": "function"
    },
    {
      "inputs": [
        {
          "internalType": "address",
          "name": "registry",
          "type": "address"
        }
      ],
      "name": "setCNSRegistry",
      "outputs": [],
      "stateMutability": "nonpayable",
      "type": "function"
    },
    {
      "inputs": [
        {
          "internalType": "address",
          "name": "clientChainManager",
          "type": "address"
        }
      ],
      "name": "setChildChainManager",
      "outputs": [],
      "stateMutability": "nonpayable",
      "type": "function"
    },
    {
      "inputs": [
        {
          "internalType": "string[]",
          "name": "keys",
          "type": "string[]"
        },
        {
          "internalType": "string[]",
          "name": "values",
          "type": "string[]"
        },
        {
          "internalType": "uint256",
          "name": "tokenId",
          "type": "uint256"
        }
      ],
      "name": "setMany",
      "outputs": [],
      "stateMutability": "nonpayable",
      "type": "function"
    },
    {
      "inputs": [
        {
          "internalType": "uint256[]",
          "name": "keyHashes",
          "type": "uint256[]"
        },
        {
          "internalType": "string[]",
          "name": "values",
          "type": "string[]"
        },
        {
          "internalType": "uint256",
          "name": "tokenId",
          "type": "uint256"
        }
      ],
      "name": "setManyByHash",
      "outputs": [],
      "stateMutability": "nonpayable",
      "type": "function"
    },
    {
      "inputs": [
        {
          "internalType": "address",
          "name": "to",
          "type": "address"
        },
        {
          "internalType": "uint256",
          "name": "tokenId",
          "type": "uint256"
        }
      ],
      "name": "setOwner",
      "outputs": [],
      "stateMutability": "nonpayable",
      "type": "function"
    },
    {
      "inputs": [
        {
          "internalType": "uint256",
          "name": "tokenId",
          "type": "uint256"
        }
      ],
      "name": "setReverse",
      "outputs": [],
      "stateMutability": "nonpayable",
      "type": "function"
    },
    {
      "inputs": [
        {
          "internalType": "address",
          "name": "rootChainManager",
          "type": "address"
        }
      ],
      "name": "setRootChainManager",
      "outputs": [],
      "stateMutability": "nonpayable",
      "type": "function"
    },
    {
      "inputs": [
        {
          "internalType": "string",
          "name": "prefix",
          "type": "string"
        }
      ],
      "name": "setTokenURIPrefix",
      "outputs": [],
      "stateMutability": "nonpayable",
      "type": "function"
    },
    {
      "inputs": [
        {
          "internalType": "bytes4",
          "name": "interfaceId",
          "type": "bytes4"
        }
      ],
      "name": "supportsInterface",
      "outputs": [
        {
          "internalType": "bool",
          "name": "",
          "type": "bool"
        }
      ],
      "stateMutability": "view",
      "type": "function"
    },
    {
      "inputs": [],
      "name": "symbol",
      "outputs": [
        {
          "internalType": "string",
          "name": "",
          "type": "string"
        }
      ],
      "stateMutability": "view",
      "type": "function"
    },
    {
      "inputs": [
        {
          "internalType": "uint256",
          "name": "tokenId",
          "type": "uint256"
        }
      ],
      "name": "tokenURI",
      "outputs": [
        {
          "internalType": "string",
          "name": "",
          "type": "string"
        }
      ],
      "stateMutability": "view",
      "type": "function"
    },
    {
      "inputs": [
        {
          "internalType": "address",
          "name": "from",
          "type": "address"
        },
        {
          "internalType": "address",
          "name": "to",
          "type": "address"
        },
        {
          "internalType": "uint256",
          "name": "tokenId",
          "type": "uint256"
        }
      ],
      "name": "transferFrom",
      "outputs": [],
      "stateMutability": "nonpayable",
      "type": "function"
    },
    {
      "inputs": [
        {
          "components": [
            {
              "internalType": "address",
              "name": "from",
              "type": "address"
            },
            {
              "internalType": "uint256",
              "name": "nonce",
              "type": "uint256"
            },
            {
              "internalType": "uint256",
              "name": "tokenId",
              "type": "uint256"
            },
            {
              "internalType": "bytes",
              "name": "data",
              "type": "bytes"
            }
          ],
          "internalType": "struct IForwarder.ForwardRequest",
          "name": "req",
          "type": "tuple"
        },
        {
          "internalType": "bytes",
          "name": "signature",
          "type": "bytes"
        }
      ],
      "name": "verify",
      "outputs": [
        {
          "internalType": "bool",
          "name": "",
          "type": "bool"
        }
      ],
      "stateMutability": "view",
      "type": "function"
    },
    {
      "inputs": [
        {
          "internalType": "uint256",
          "name": "tokenId",
          "type": "uint256"
        }
      ],
      "name": "withdraw",
      "outputs": [],
      "stateMutability": "nonpayable",
      "type": "function"
    },
    {
      "inputs": [
        {
          "internalType": "uint256[]",
          "name": "tokenIds",
          "type": "uint256[]"
        }
      ],
      "name": "withdrawBatch",
      "outputs": [],
      "stateMutability": "nonpayable",
      "type": "function"
    },
    {
      "inputs": [
        {
          "internalType": "bytes",
          "name": "inputData",
          "type": "bytes"
        },
        {
          "internalType": "uint256",
          "name": "tokenId",
          "type": "uint256"
        },
        {
          "internalType": "string[]",
          "name": "keys",
          "type": "string[]"
        },
        {
          "internalType": "string[]",
          "name": "values",
          "type": "string[]"
        }
      ],
      "name": "withdrawFromPolygon",
      "outputs": [],
      "stateMutability": "nonpayable",
      "type": "function"
    },
    {
      "inputs": [
        {
          "internalType": "uint256",
          "name": "tokenId",
          "type": "uint256"
        }
      ],
      "name": "withdrawWithMetadata",
      "outputs": [],
      "stateMutability": "nonpayable",
      "type": "function"
    }
  ],
  "bytecode": "0x608060405234801561001057600080fd5b5061542a806100206000396000f3fe608060405234801561001057600080fd5b50600436106103d05760003560e01c80637e37479e116101ff578063b85afd281161011a578063d3fc9864116100ad578063efda4d3e1161007c578063efda4d3e14610905578063f25eb5c114610918578063f5c1f76e14610920578063ffa1ad741461093357600080fd5b8063d3fc98641461089c578063e985e9c5146108af578063ebf0c717146108eb578063ec129eea146108f257600080fd5b8063c87b56dd116100e9578063c87b56dd14610850578063cd279c7c14610863578063ce92b33e14610876578063cf2c52cb1461088957600080fd5b8063b85afd28146107f6578063b88d4fde14610817578063bb5b27e11461082a578063c4d66de81461083d57600080fd5b8063a22cb46511610192578063ab3b87fe11610161578063ab3b87fe146107aa578063b0f59177146107bd578063b3f9e4cb146107d0578063b55bc617146107e357600080fd5b8063a22cb46514610758578063a3f4df7e1461076b578063a424740014610797578063a5e584dc146104ea57600080fd5b80639559c0bd116101ce5780639559c0bd1461072257806395d89b411461072a57806399e0dd7c146107325780639c8d41561461074557600080fd5b80637e37479e146106bf5780637f139a00146106e957806394d008ef146106fc5780639508b1c41461070f57600080fd5b8063430c2081116102ef5780636352211e116102825780636ccbae5f116102515780636ccbae5f1461066557806370a0823114610686578063728a44d814610699578063764a81bb146106ac57600080fd5b80636352211e146105fd578063638e5c7814610610578063672b9f811461062357806368b62d321461064457600080fd5b80634f558e79116102be5780634f558e79146105a85780634f76ae3c146105bb57806350382c1a146105ce578063572b6c05146105e157600080fd5b8063430c20811461055c5780634348b5621461056f57806347c81699146105825780634a72584d1461059557600080fd5b806323b872dd11610367578063384e9a5511610336578063384e9a551461051057806340c10f191461052357806342842e0e1461053657806342966c681461054957600080fd5b806323b872dd146104c457806327f18975146104d75780632e1a7d4d146104ea578063310bd74b146104fd57600080fd5b8063150b7a02116103a3578063150b7a02146104525780631bd8cc1a1461047e5780631be5e7ed1461049e5780631bf7e13e146104b157600080fd5b806301ffc9a7146103d557806306fdde03146103fd578063081812fc14610412578063095ea7b31461043d575b600080fd5b6103e86103e3366004614a6b565b610957565b60405190151581526020015b60405180910390f35b610405610968565b6040516103f49190614fa6565b610425610420366004614cac565b6109fa565b6040516001600160a01b0390911681526020016103f4565b61045061044b366004614602565b610a21565b005b6104656104603660046144ac565b610a76565b6040516001600160e01b031990911681526020016103f4565b61049161048c36600461490a565b610bcc565b6040516103f49190614f07565b6104056104ac366004614bd3565b610cec565b6104056104bf366004614c4d565b610d37565b6104506104d236600461446c565b610e42565b6104506104e536600461489a565b610ec8565b6104506104f8366004614cac565b610f43565b61045061050b366004614cac565b610fbf565b61045061051e366004614cac565b61102d565b610450610531366004614602565b611124565b61045061054436600461446c565b611171565b610450610557366004614cac565b61118c565b6103e861056a366004614602565b611203565b61045061057d366004614686565b61120f565b610450610590366004614b75565b611274565b6104506105a3366004614cf4565b6112e6565b6103e86105b6366004614cac565b61135f565b6104506105c9366004614953565b61137e565b6104506105dc366004614c08565b61145c565b6103e86105ef3660046143fc565b6001600160a01b0316301490565b61042561060b366004614cac565b61148f565b61045061061e366004614cac565b6114ef565b610636610631366004614d44565b61156c565b6040516103f4929190614fb9565b610657610652366004614cc4565b611584565b6040519081526020016103f4565b610657610673366004614cac565b6000908152610100602052604090205490565b6106576106943660046143fc565b6115c6565b6104506106a73660046143fc565b61164c565b6104506106ba3660046143fc565b6116f3565b6106576106cd3660046143fc565b6001600160a01b03166000908152610135602052604090205490565b6104506106f73660046143fc565b6117a2565b61045061070a36600461462d565b611841565b61045061071d366004614aa3565b61188a565b610657601481565b610405611911565b610450610740366004614b42565b611920565b610450610753366004614953565b6119a6565b610450610766366004614585565b611b29565b6104056040518060400160405280600d81526020016c554e533a20526567697374727960981b81525081565b6103e86107a5366004614c4d565b611b3b565b6104506107b8366004614602565b611b86565b6104506107cb366004614686565b611bfe565b6104256107de366004614cac565b611c87565b6104506107f1366004614812565b611cb1565b61080961080436600461490a565b611d61565b6040516103f4929190614f1a565b61045061082536600461451c565b611ec9565b610405610838366004614cac565b611f43565b61045061084b3660046143fc565b611fe5565b61040561085e366004614cac565b61215f565b61045061087136600461462d565b6121c5565b61045061088436600461489a565b61224f565b6104506108973660046145b0565b6122c1565b6104506108aa36600461462d565b61239e565b6103e86108bd366004614434565b6001600160a01b039182166000908152606a6020908152604080832093909416825291909152205460ff1690565b6000610657565b61045061090036600461489a565b61241a565b610450610913366004614737565b61248c565b61045061251a565b61049161092e366004614953565b6125a0565b61040560405180604001604052806005815260200164302e352e3160d81b81525081565b60006109628261267d565b92915050565b60606065805461097790615326565b80601f01602080910402602001604051908101604052809291908181526020018280546109a390615326565b80156109f05780601f106109c5576101008083540402835291602001916109f0565b820191906000526020600020905b8154815290600101906020018083116109d357829003601f168201915b5050505050905090565b6000610a05826126cd565b506000908152606960205260409020546001600160a01b031690565b8030331415610a5e57610a3261272c565b8114610a595760405162461bcd60e51b8152600401610a50906150f7565b60405180910390fd5b610a67565b610a6781612741565b610a71838361276f565b505050565b60007f8ffb960699dc2ba88f34d0e41c029c3c36c95149679fe1d0153a9582bec92378546001600160a01b0316610aab612892565b6001600160a01b03161415610b6d57610ac2612892565b6001600160a01b03166342966c68856040518263ffffffff1660e01b8152600401610aef91815260200190565b600060405180830381600087803b158015610b0957600080fd5b505af1158015610b1d573d6000803e3d6000fd5b505050821580159150610b375750610b3782840184614a39565b15610b5557610b4630856128a1565b610b5085856129ef565b610b5f565b610b5f85856128a1565b50630a85bd0160e11b610bc3565b60405162461bcd60e51b815260206004820152602560248201527f52656769737472793a204552433732315f524543454956494e475f50524f4849604482015264109255115160da1b6064820152608401610a50565b95945050505050565b6060826001600160401b03811115610bf457634e487b7160e01b600052604160045260246000fd5b604051908082528060200260200182016040528015610c2757816020015b6060815260200190600190039081610c125790505b50905060005b83811015610ce457610ca6858583818110610c5857634e487b7160e01b600052603260045260246000fd5b9050602002810190610c6a91906151bb565b8080601f016020809104026020016040519081016040528093929190818152602001838380828437600092019190915250879250612a90915050565b828281518110610cc657634e487b7160e01b600052603260045260246000fd5b60200260200101819052508080610cdc90615361565b915050610c2d565b509392505050565b6060610d2f84848080601f016020809104026020016040519081016040528093929190818152602001838380828437600092019190915250869250612a90915050565b949350505050565b606060005a9050610d49858585611b3b565b610da55760405162461bcd60e51b815260206004820152602760248201527f554e535265676973747279466f727761726465723a205349474e41545552455f6044820152661253959053125160ca1b6064820152608401610a50565b610e37610db560208701876143fc565b30604088013584610dc960608b018b6151bb565b8080601f01602080910402602001604051908101604052809392919081815260200183838082843760009201919091525050604080516020601f8e018190048102820181019092528c815292508c91508b9081908401838280828437600092019190915250612ac592505050565b9150505b9392505050565b80610e54610e4e612892565b82612bb4565b610e705760405162461bcd60e51b8152600401610a5090614fde565b8130331415610ea457610e8161272c565b8114610e9f5760405162461bcd60e51b8152600401610a50906150f7565b610ead565b610ead81612741565b610eb683612c32565b610ec1858585612c9f565b5050505050565b80610ed4610e4e612892565b610ef05760405162461bcd60e51b8152600401610a5090614fde565b8130331415610f2457610f0161272c565b8114610f1f5760405162461bcd60e51b8152600401610a50906150f7565b610f2d565b610f2d81612741565b610f3a8787878787612e46565b50505050505050565b610f4c8161148f565b6001600160a01b0316610f5d612892565b6001600160a01b031614610fb35760405162461bcd60e51b815260206004820152601d60248201527f52656769737472793a20494e56414c49445f544f4b454e5f4f574e45520000006044820152606401610a50565b610fbc81612ec5565b50565b80610fcb610e4e612892565b610fe75760405162461bcd60e51b8152600401610a5090614fde565b813033141561101b57610ff861272c565b81146110165760405162461bcd60e51b8152600401610a50906150f7565b611024565b61102481612741565b610a7183612c32565b80611036612892565b6001600160a01b03166110488261148f565b6001600160a01b03161461109e5760405162461bcd60e51b815260206004820152601d60248201527f52656769737472793a2053454e4445525f49535f4e4f545f4f574e45520000006044820152606401610a50565b81303314156110d2576110af61272c565b81146110cd5760405162461bcd60e51b8152600401610a50906150f7565b6110db565b6110db81612741565b60008381526101366020526040902054839060ff161561110d5760405162461bcd60e51b8152600401610a5090615027565b61111e611118612892565b85612f6c565b50505050565b61112c612fb4565b6001600160a01b031661113d612892565b6001600160a01b0316146111635760405162461bcd60e51b8152600401610a5090615179565b61116d82826128a1565b5050565b610a7183838360405180602001604052806000815250611ec9565b80611198610e4e612892565b6111b45760405162461bcd60e51b8152600401610a5090614fde565b81303314156111e8576111c561272c565b81146111e35760405162461bcd60e51b8152600401610a50906150f7565b6111f1565b6111f181612741565b6111fa83612c32565b610a7183612ec5565b6000610e3b8383612bb4565b610134546001600160a01b0316611224612892565b6001600160a01b03161461124a5760405162461bcd60e51b8152600401610a50906150b0565b61126a8888888888888888604051806020016040528060008152506130c7565b5050505050505050565b80611280610e4e612892565b61129c5760405162461bcd60e51b8152600401610a5090614fde565b81303314156112d0576112ad61272c565b81146112cb5760405162461bcd60e51b8152600401610a50906150f7565b6112d9565b6112d981612741565b610f3a8787878787613122565b806112f2610e4e612892565b61130e5760405162461bcd60e51b8152600401610a5090614fde565b81303314156113425761131f61272c565b811461133d5760405162461bcd60e51b8152600401610a50906150f7565b61134b565b61134b81612741565b61135786868686613201565b505050505050565b6000818152606760205260408120546001600160a01b03161515610962565b610134546001600160a01b0316611393612892565b6001600160a01b0316146113b95760405162461bcd60e51b8152600401610a50906150b0565b60005b81811015610a715760008383838181106113e657634e487b7160e01b600052603260045260246000fd5b90506020020135905060006113fa8261148f565b905061140582612c32565b600082815261013660209081526040808320805460ff191660011790556001600160a01b038416835261013590915290205482141561144757611447816132a1565b5050808061145490615361565b9150506113bc565b610fbc816040516020016114709190614e0e565b6040516020818303038152906040528051906020012060001c826132e6565b6000818152606760205260408120546001600160a01b0316806109625760405162461bcd60e51b8152602060048201526018602482015277115490cdcc8c4e881a5b9d985b1a59081d1bdad95b88125160421b6044820152606401610a50565b806114fb610e4e612892565b6115175760405162461bcd60e51b8152600401610a5090614fde565b60008281526101366020526040902054829060ff16156115495760405162461bcd60e51b8152600401610a5090615027565b61155b611554612892565b3085612c9f565b610a71611566612892565b846129ef565b6060806115798484613312565b909590945092505050565b6000610d2f8484848080601f01602080910402602001604051908101604052809392919081815260200183838082843760009201919091525061333392505050565b60006001600160a01b0382166116305760405162461bcd60e51b815260206004820152602960248201527f4552433732313a2061646472657373207a65726f206973206e6f7420612076616044820152683634b21037bbb732b960b91b6064820152608401610a50565b506001600160a01b031660009081526068602052604090205490565b6000805160206153fe833981519152546001600160a01b0316156116c15760405162461bcd60e51b815260206004820152602660248201527f52656769737472793a20524f4f545f434841494e5f4d414e454745525f4e4f546044820152655f454d50545960d01b6064820152608401610a50565b806000805160206153fe8339815191525b80546001600160a01b0319166001600160a01b039290921691909117905550565b7f8bea9a6f8afd34f4e29c585f854e0cc5161431bf5fc299d468454d33dce53b87546001600160a01b03161561177b5760405162461bcd60e51b815260206004820152602760248201527f52656769737472793a204348494c445f434841494e5f4d414e454745525f4e4f604482015266545f454d50545960c81b6064820152608401610a50565b807f8bea9a6f8afd34f4e29c585f854e0cc5161431bf5fc299d468454d33dce53b876116d2565b7f8ffb960699dc2ba88f34d0e41c029c3c36c95149679fe1d0153a9582bec92378546001600160a01b03161561181a5760405162461bcd60e51b815260206004820181905260248201527f52656769737472793a20434e535f52454749535452595f4e4f545f454d5054596044820152606401610a50565b807f8ffb960699dc2ba88f34d0e41c029c3c36c95149679fe1d0153a9582bec923786116d2565b611849612fb4565b6001600160a01b031661185a612892565b6001600160a01b0316146118805760405162461bcd60e51b8152600401610a5090615179565b61111e84846128a1565b61189487876133e0565b61189c612892565b6001600160a01b03166118ae8661148f565b6001600160a01b0316146119045760405162461bcd60e51b815260206004820152601d60248201527f52656769737472793a2053454e4445525f49535f4e4f545f4f574e45520000006044820152606401610a50565b610f3a848484848961344f565b60606066805461097790615326565b610134546001600160a01b0316611935612892565b6001600160a01b03161461195b5760405162461bcd60e51b8152600401610a50906150b0565b61196861013383836141dc565b507f4b120d6a959a84a520fa48f5f937cca0e79129423487af7901213b5d2e89313b828260405161199a929190614f92565b60405180910390a15050565b8060148111156119f85760405162461bcd60e51b815260206004820152601d60248201527f52656769737472793a20455843454544535f42415443485f4c494d49540000006044820152606401610a50565b60005b81811015611ad9576000848483818110611a2557634e487b7160e01b600052603260045260246000fd5b905060200201359050611a378161148f565b6001600160a01b0316611a48612892565b6001600160a01b03161481604051602001611a8f91907f52656769737472793a20494e56414c49445f544f4b454e5f4f574e45522000008152601e810191909152603e0190565b60405160208183030381529060405290611abc5760405162461bcd60e51b8152600401610a509190614fa6565b50611ac681612ec5565b5080611ad181615361565b9150506119fb565b50611ae2612892565b6001600160a01b03167ff871896b17e9cb7a64941c62c188a4f5c621b86800e3d15452ece01ce56073df8484604051611b1c929190614f3f565b60405180910390a2505050565b61116d611b34612892565b83836134d9565b6000610d2f611b4985615272565b3085858080601f0160208091040260200160405190810160405280939291908181526020018383808284376000920191909152506135a892505050565b80611b92610e4e612892565b611bae5760405162461bcd60e51b8152600401610a5090614fde565b8130331415611be257611bbf61272c565b8114611bdd5760405162461bcd60e51b8152600401610a50906150f7565b611beb565b611beb81612741565b61111e611bf78461148f565b8585612c9f565b610134546001600160a01b0316611c13612892565b6001600160a01b031614611c395760405162461bcd60e51b8152600401610a50906150b0565b611c7a888888888080601f01602080910402602001604051908101604052809392919081815260200183838082843760009201919091525061370092505050565b61126a848484848b61344f565b6000818152606760205260408120546001600160a01b0316611caa576000610962565b3092915050565b610134546001600160a01b0316611cc6612892565b6001600160a01b031614611cec5760405162461bcd60e51b8152600401610a50906150b0565b611357868686868080601f01602080910402602001604051908101604052809392919081815260200183838082843760009201919091525050604080516020601f8a01819004810282018101909252888152925088915087908190840183828082843760009201919091525061374c92505050565b606080836001600160401b03811115611d8a57634e487b7160e01b600052604160045260246000fd5b604051908082528060200260200182016040528015611dbd57816020015b6060815260200190600190039081611da85790505b509150836001600160401b03811115611de657634e487b7160e01b600052604160045260246000fd5b604051908082528060200260200182016040528015611e1957816020015b6060815260200190600190039081611e045790505b50905060005b84811015611ec057611e57868683818110611e4a57634e487b7160e01b600052603260045260246000fd5b9050602002013585613312565b848381518110611e7757634e487b7160e01b600052603260045260246000fd5b60200260200101848481518110611e9e57634e487b7160e01b600052603260045260246000fd5b6020026020010182905282905250508080611eb890615361565b915050611e1f565b50935093915050565b81611ed5610e4e612892565b611ef15760405162461bcd60e51b8152600401610a5090614fde565b8230331415611f2557611f0261272c565b8114611f205760405162461bcd60e51b8152600401610a50906150f7565b611f2e565b611f2e81612741565b611f3784612c32565b61135786868686613799565b600081815260c960205260409020805460609190611f6090615326565b80601f0160208091040260200160405190810160405280929190818152602001828054611f8c90615326565b8015611fd95780601f10611fae57610100808354040283529160200191611fd9565b820191906000526020600020905b815481529060010190602001808311611fbc57829003601f168201915b50505050509050919050565b600054610100900460ff16158080156120055750600054600160ff909116105b8061201f5750303b15801561201f575060005460ff166001145b6120825760405162461bcd60e51b815260206004820152602e60248201527f496e697469616c697a61626c653a20636f6e747261637420697320616c72656160448201526d191e481a5b9a5d1a585b1a5e995960921b6064820152608401610a50565b6000805460ff1916600117905580156120a5576000805461ff0019166101001790555b61013480546001600160a01b0319166001600160a01b0384161790556040805180820182526013815272556e73746f707061626c6520446f6d61696e7360681b60208083019190915282518084019093526002835261155160f21b9083015261210d916137cc565b61211561381a565b61211d61381a565b801561116d576000805461ff0019169055604051600181527f7f26b83ff96e1f2b6a682f133852f6798a09c465da95921460cefb38474024989060200161199a565b606061216a826126cd565b6000612174613843565b905060008151116121945760405180602001604052806000815250610e3b565b8061219e84613853565b6040516020016121af929190614e79565b6040516020818303038152906040529392505050565b610134546001600160a01b03166121da612892565b6001600160a01b0316146122005760405162461bcd60e51b8152600401610a50906150b0565b61111e848484848080601f01602080910402602001604051908101604052809392919081815260200183838082843760009201829052506040805160208101909152908152925061374c915050565b8061225b610e4e612892565b6122775760405162461bcd60e51b8152600401610a5090614fde565b81303314156122ab5761228861272c565b81146122a65760405162461bcd60e51b8152600401610a50906150f7565b6122b4565b6122b481612741565b610f3a878787878761344f565b7f8bea9a6f8afd34f4e29c585f854e0cc5161431bf5fc299d468454d33dce53b87546001600160a01b03166122f4612892565b6001600160a01b03161461231a5760405162461bcd60e51b8152600401610a5090615179565b602081141561233d57600061233182840184614cac565b905061111e84826128a1565b600061234b82840184614992565b805190915060005b818110156113575761238c8684838151811061237f57634e487b7160e01b600052603260045260246000fd5b60200260200101516128a1565b8061239681615361565b915050612353565b610134546001600160a01b03166123b3612892565b6001600160a01b0316146123d95760405162461bcd60e51b8152600401610a50906150b0565b61111e848484848080601f01602080910402602001604051908101604052809392919081815260200183838082843760009201919091525061370092505050565b80612426610e4e612892565b6124425760405162461bcd60e51b8152600401610a5090614fde565b81303314156124765761245361272c565b81146124715760405162461bcd60e51b8152600401610a50906150f7565b61247f565b61247f81612741565b610f3a878787878761396c565b610134546001600160a01b03166124a1612892565b6001600160a01b0316146124c75760405162461bcd60e51b8152600401610a50906150b0565b61250e8a8a8a8a8a8a8a8a8a8a8080601f0160208091040260200160405190810160405280939291908181526020018383808284376000920191909152506130c792505050565b50505050505050505050565b6000612524612892565b6001600160a01b038116600090815261013560205260409020549091506125975760405162461bcd60e51b815260206004820152602160248201527f52656769737472793a20524556455253455f5245434f52445f49535f454d50546044820152605960f81b6064820152608401610a50565b610fbc816132a1565b6060816001600160401b038111156125c857634e487b7160e01b600052604160045260246000fd5b6040519080825280602002602001820160405280156125fb57816020015b60608152602001906001900390816125e65790505b50905060005b828110156126765761263884848381811061262c57634e487b7160e01b600052603260045260246000fd5b90506020020135611f43565b82828151811061265857634e487b7160e01b600052603260045260246000fd5b6020026020010181905250808061266e90615361565b915050612601565b5092915050565b60006001600160e01b031982166380ac58cd60e01b14806126ae57506001600160e01b03198216635b5e139f60e01b145b8061096257506301ffc9a760e01b6001600160e01b0319831614610962565b6000818152606760205260409020546001600160a01b0316610fbc5760405162461bcd60e51b8152602060048201526018602482015277115490cdcc8c4e881a5b9d985b1a59081d1bdad95b88125160421b6044820152606401610a50565b60003033141561273e5750601f193601355b90565b6000818152610100602052604090205461275c90600161522f565b6000918252610100602052604090912055565b600061277a8261148f565b9050806001600160a01b0316836001600160a01b031614156127e85760405162461bcd60e51b815260206004820152602160248201527f4552433732313a20617070726f76616c20746f2063757272656e74206f776e656044820152603960f91b6064820152608401610a50565b806001600160a01b03166127fa612892565b6001600160a01b031614806128165750612816816108bd612892565b6128885760405162461bcd60e51b815260206004820152603e60248201527f4552433732313a20617070726f76652063616c6c6572206973206e6f7420746f60448201527f6b656e206f776e6572206e6f7220617070726f76656420666f7220616c6c00006064820152608401610a50565b610a718383613982565b600061289c6139f0565b905090565b6001600160a01b0382166128f75760405162461bcd60e51b815260206004820181905260248201527f4552433732313a206d696e7420746f20746865207a65726f20616464726573736044820152606401610a50565b6000818152606760205260409020546001600160a01b03161561295c5760405162461bcd60e51b815260206004820152601c60248201527f4552433732313a20746f6b656e20616c7265616479206d696e746564000000006044820152606401610a50565b61296860008383613a0c565b6001600160a01b038216600090815260686020526040812080546001929061299190849061522f565b909155505060008181526067602052604080822080546001600160a01b0319166001600160a01b03861690811790915590518392907fddf252ad1be2c89b69c2b068fc378daa952ba7f163c4a11628f55a4df523b3ef908290a45050565b60006129f9612fb4565b9050612a058183613982565b6000805160206153fe83398151915254604080516020808201869052825180830390910181528183019283905263e3dec8fb60e01b9092526001600160a01b0390921691829163e3dec8fb91612a62918891309190604401614ea8565b600060405180830381600087803b158015612a7c57600080fd5b505af115801561126a573d6000803e3d6000fd5b6060610e3b83604051602001612aa69190614e0e565b6040516020818303038152906040528051906020012060001c83613a79565b6060612ad085612741565b600080876001600160a01b031686612aea8b8a8989613b38565b604051612af79190614e0e565b60006040518083038160008787f1925050503d8060008114612b35576040519150601f19603f3d011682016040523d82523d6000602084013e612b3a565b606091505b509092509050612b4b603f87615247565b5a11612b6757634e487b7160e01b600052600160045260246000fd5b612ba782826040518060400160405280601a81526020017f42617365466f727761726465723a2043414c4c5f4641494c4544000000000000815250613b68565b9998505050505050505050565b600080612bc08361148f565b9050806001600160a01b0316846001600160a01b03161480612c0757506001600160a01b038082166000908152606a602090815260408083209388168352929052205460ff165b80610d2f5750836001600160a01b0316612c20846109fa565b6001600160a01b031614949350505050565b612c3b81613ba1565b604051602001612c4d91815260200190565b60408051601f198184030181528282528051602091820120600085815260cb9092529181209190915582917f185c30856dadb58bf097c1f665a52ada7029752dbcad008ea3fefc73bee8c9fe9190a250565b826001600160a01b0316612cb28261148f565b6001600160a01b031614612d165760405162461bcd60e51b815260206004820152602560248201527f4552433732313a207472616e736665722066726f6d20696e636f72726563742060448201526437bbb732b960d91b6064820152608401610a50565b6001600160a01b038216612d785760405162461bcd60e51b8152602060048201526024808201527f4552433732313a207472616e7366657220746f20746865207a65726f206164646044820152637265737360e01b6064820152608401610a50565b612d83838383613a0c565b612d8e600082613982565b6001600160a01b0383166000908152606860205260408120805460019290612db790849061525b565b90915550506001600160a01b0382166000908152606860205260408120805460019290612de590849061522f565b909155505060008181526067602052604080822080546001600160a01b0319166001600160a01b0386811691821790925591518493918716917fddf252ad1be2c89b69c2b068fc378daa952ba7f163c4a11628f55a4df523b3ef91a4505050565b60005b8481101561135757612eb3868683818110612e7457634e487b7160e01b600052603260045260246000fd5b90506020020135858584818110612e9b57634e487b7160e01b600052603260045260246000fd5b9050602002810190612ead91906151bb565b85613201565b80612ebd81615361565b915050612e49565b6000612ed08261148f565b9050612ede81600084613a0c565b612ee9600083613982565b6001600160a01b0381166000908152606860205260408120805460019290612f1290849061525b565b909155505060008281526067602052604080822080546001600160a01b0319169055518391906001600160a01b038416907fddf252ad1be2c89b69c2b068fc378daa952ba7f163c4a11628f55a4df523b3ef908390a45050565b6001600160a01b03821660008181526101356020526040808220849055518392917feb76a21470988c474a21f690cc28fee1ed511bd812dc3c21fd0f49c5e5d4708a91a35050565b6000806000805160206153fe8339815191525460405163721804d360e11b81523060048201526001600160a01b039091169150600090829063e43009a69060240160206040518083038186803b15801561300d57600080fd5b505afa158015613021573d6000803e3d6000fd5b505050506040513d601f19601f820116820180604052508101906130459190614a53565b60405163e66f960360e01b8152600481018290529091506001600160a01b0383169063e66f96039060240160206040518083038186803b15801561308857600080fd5b505afa15801561309c573d6000803e3d6000fd5b505050506040513d601f19601f820116820180604052508101906130c09190614418565b9250505090565b61310a898989898080601f01602080910402602001604051908101604052809392919081815260200183838082843760009201919091525087925061374c915050565b613117858585858c61344f565b505050505050505050565b60008585604051602001613137929190614e69565b60408051601f198184030181528282528051602091820120601f890182900482028401820190925287835290925061318b91839189908990819084018382808284376000920191909152506132e692505050565b6113578187878080601f01602080910402602001604051908101604052809392919081815260200183838082843760009201919091525050604080516020601f8b018190048102820181019092528981529250899150889081908401838280828437600092019190915250889250613bcd915050565b61320a84613d14565b6132565760405162461bcd60e51b815260206004820152601c60248201527f5265636f726453746f726167653a204b45595f4e4f545f464f554e44000000006044820152606401610a50565b61111e8461326386611f43565b85858080601f016020809104026020016040519081016040528093929190818152602001838380828437600092019190915250879250613bcd915050565b6001600160a01b03811660008181526101356020526040808220829055517ffcf5eec0cfa3e6332f5f0e63ec242d71f866a61d121d6cdf5c2eb3b668a26c4f9190a250565b6132ef82613d14565b61116d57600082815260c9602090815260409091208251610a719284019061425c565b60608061331e84611f43565b915061332a8484613a79565b90509250929050565b600081516000141561337f5760405162461bcd60e51b815260206004820152601560248201527452656769737472793a204c4142454c5f454d50545960581b6044820152606401610a50565b82826040516020016133919190614e0e565b604051602081830303815290604052805190602001206040516020016133c1929190918252602082015260400190565b60408051601f1981840301815291905280516020909101209392505050565b6000805160206153fe83398151915254604051633805550f60e01b81526001600160a01b03909116908190633805550f906134219086908690600401614f92565b600060405180830381600087803b15801561343b57600080fd5b505af1158015610f3a573d6000803e3d6000fd5b60005b84811015611357576134c786868381811061347d57634e487b7160e01b600052603260045260246000fd5b905060200281019061348f91906151bb565b8686858181106134af57634e487b7160e01b600052603260045260246000fd5b90506020028101906134c191906151bb565b86613122565b806134d181615361565b915050613452565b816001600160a01b0316836001600160a01b0316141561353b5760405162461bcd60e51b815260206004820152601960248201527f4552433732313a20617070726f766520746f2063616c6c6572000000000000006044820152606401610a50565b6001600160a01b038381166000818152606a6020908152604080832094871680845294825291829020805460ff191686151590811790915591519182527f17307eab39ab6107e8899845ad3d59bd9653f200f220920489ca2b5937696c31910160405180910390a3505050565b6040838101519051636ccbae5f60e01b8152600481019190915260009081903090636ccbae5f9060240160206040518083038186803b1580156135ea57600080fd5b505afa1580156135fe573d6000803e3d6000fd5b505050506040513d601f19601f820116820180604052508101906136229190614a53565b905060006136d08660600151805190602001208688602001516040516020016136709392919092835260609190911b6bffffffffffffffffffffffff19166020830152603482015260540190565b60408051601f1981840301815282825280516020918201207f19457468657265756d205369676e6564204d6573736167653a0a33320000000084830152603c8085019190915282518085039091018152605c909301909152815191012090565b90508186602001511480156136f6575085516136f6906001600160a01b03168286613d3a565b9695505050505050565b61370a83836128a1565b817fc5beef08f693b11c316c0c8394a377a0033c9cf701b8cd8afd79cecef60c39528260405161373a9190614fa6565b60405180910390a2610a718383613e8a565b613757848483613ecb565b827fc5beef08f693b11c316c0c8394a377a0033c9cf701b8cd8afd79cecef60c3952836040516137879190614fa6565b60405180910390a261111e8484613e8a565b6137a4848484612c9f565b6137b084848484613efe565b61111e5760405162461bcd60e51b8152600401610a509061505e565b600054610100900460ff166137f35760405162461bcd60e51b8152600401610a509061512e565b815161380690606590602085019061425c565b508051610a7190606690602084019061425c565b600054610100900460ff166138415760405162461bcd60e51b8152600401610a509061512e565b565b6060610133805461097790615326565b6060816138775750506040805180820190915260018152600360fc1b602082015290565b8160005b81156138a1578061388b81615361565b915061389a9050600a83615247565b915061387b565b6000816001600160401b038111156138c957634e487b7160e01b600052604160045260246000fd5b6040519080825280601f01601f1916602001820160405280156138f3576020820181803683370190505b5090505b8415610d2f5761390860018361525b565b9150613915600a8661537c565b61392090603061522f565b60f81b81838151811061394357634e487b7160e01b600052603260045260246000fd5b60200101906001600160f81b031916908160001a905350613965600a86615247565b94506138f7565b61397581612c32565b610ec1858585858561344f565b600081815260696020526040902080546001600160a01b0319166001600160a01b03841690811790915581906139b78261148f565b6001600160a01b03167f8c5be1e5ebec7d5bd14f71427d1e84f3dd0314c0f7b2291e5b200ac8c7c3b92560405160405180910390a45050565b600030331415613a07575060331936013560601c90565b503390565b6000818152610136602052604090205460ff161580613a3557506001600160a01b03821661dead145b613a515760405162461bcd60e51b8152600401610a5090615027565b6001600160a01b0383166000908152610135602052604090205415610a7157610a71836132a1565b606060ca6000613a8884613ba1565b815260200190815260200160002060008481526020019081526020016000208054613ab290615326565b80601f0160208091040260200160405190810160405280929190818152602001828054613ade90615326565b8015613b2b5780601f10613b0057610100808354040283529160200191613b2b565b820191906000526020600020905b815481529060010190602001808311613b0e57829003601f168201915b5050505050905092915050565b6060828585604051602001613b4f93929190614e2a565b6040516020818303038152906040529050949350505050565b60608315613b77575081610e3b565b825115613b875782518084602001fd5b8160405162461bcd60e51b8152600401610a509190614fa6565b600081815260cb602052604081205415613bc957600082815260cb6020526040902054610962565b5090565b613bd98484848461400f565b60ca6000613be683613ba1565b815260200190815260200160002060008581526020019081526020016000208054613c1090615326565b15159050613c675782604051613c269190614e0e565b6040518091039020817f7ae4f661958fbecc2f77be6b0eb280d2a6f604b29e1e7221c82b9da0c4af7f8685604051613c5e9190614fa6565b60405180910390a35b8160ca6000613c7584613ba1565b815260200190815260200160002060008681526020019081526020016000209080519060200190613ca792919061425c565b5081604051613cb69190614e0e565b604051809103902083604051613ccc9190614e0e565b6040518091039020827f851ffe8e74d5015261dba0a1f9e1b0e5d42c5af5d2ad1908fee897c7d80a0d928686604051613d06929190614fb9565b60405180910390a450505050565b600081815260c9602052604081208054829190613d3090615326565b9050119050919050565b6000806000613d498585614046565b90925090506000816004811115613d7057634e487b7160e01b600052602160045260246000fd5b148015613d8e5750856001600160a01b0316826001600160a01b0316145b15613d9e57600192505050610e3b565b600080876001600160a01b0316631626ba7e60e01b8888604051602401613dc6929190614f79565b60408051601f198184030181529181526020820180516001600160e01b03166001600160e01b0319909416939093179092529051613e049190614e0e565b600060405180830381855afa9150503d8060008114613e3f576040519150601f19603f3d011682016040523d82523d6000602084013e613e44565b606091505b5091509150818015613e57575080516020145b8015613e7e57508051630b135d3f60e11b90613e7c9083016020908101908401614a53565b145b98975050505050505050565b61dead6001600160a01b03831614801590613ebc57506001600160a01b03821660009081526101356020526040902054155b1561116d5761116d8282612f6c565b613ed583836128a1565b613ee26000848484613efe565b610a715760405162461bcd60e51b8152600401610a509061505e565b60006001600160a01b0384163b1561400757836001600160a01b031663150b7a02613f27612892565b8786866040518563ffffffff1660e01b8152600401613f499493929190614ed4565b602060405180830381600087803b158015613f6357600080fd5b505af1925050508015613f93575060408051601f3d908101601f19168201909252613f9091810190614a87565b60015b613fed573d808015613fc1576040519150601f19603f3d011682016040523d82523d6000602084013e613fc6565b606091505b508051613fe55760405162461bcd60e51b8152600401610a509061505e565b805181602001fd5b6001600160e01b031916630a85bd0160e11b149050610d2f565b506001610d2f565b60008181526101366020526040902054819060ff16156140415760405162461bcd60e51b8152600401610a5090615027565b610ec1565b60008082516041141561407d5760208301516040840151606085015160001a614071878285856140b6565b945094505050506140af565b8251604014156140a7576020830151604084015161409c8683836141a3565b9350935050506140af565b506000905060025b9250929050565b6000807f7fffffffffffffffffffffffffffffff5d576e7357a4501ddfe92f46681b20a08311156140ed575060009050600361419a565b8460ff16601b1415801561410557508460ff16601c14155b15614116575060009050600461419a565b6040805160008082526020820180845289905260ff881692820192909252606081018690526080810185905260019060a0016020604051602081039080840390855afa15801561416a573d6000803e3d6000fd5b5050604051601f1901519150506001600160a01b0381166141935760006001925092505061419a565b9150600090505b94509492505050565b6000806001600160ff1b038316816141c060ff86901c601b61522f565b90506141ce878288856140b6565b935093505050935093915050565b8280546141e890615326565b90600052602060002090601f01602090048101928261420a5760008555614250565b82601f106142235782800160ff19823516178555614250565b82800160010185558215614250579182015b82811115614250578235825591602001919060010190614235565b50613bc99291506142d0565b82805461426890615326565b90600052602060002090601f01602090048101928261428a5760008555614250565b82601f106142a357805160ff1916838001178555614250565b82800160010185558215614250579182015b828111156142505782518255916020019190600101906142b5565b5b80821115613bc957600081556001016142d1565b60006001600160401b038311156142fe576142fe6153bc565b614311601f8401601f19166020016151ff565b905082815283838301111561432557600080fd5b828260208301376000602084830101529392505050565b8035614347816153d2565b919050565b60008083601f84011261435d578182fd5b5081356001600160401b03811115614373578182fd5b6020830191508360208260051b85010111156140af57600080fd5b8035801515811461434757600080fd5b60008083601f8401126143af578182fd5b5081356001600160401b038111156143c5578182fd5b6020830191508360208285010111156140af57600080fd5b600082601f8301126143ed578081fd5b610e3b838335602085016142e5565b60006020828403121561440d578081fd5b8135610e3b816153d2565b600060208284031215614429578081fd5b8151610e3b816153d2565b60008060408385031215614446578081fd5b8235614451816153d2565b91506020830135614461816153d2565b809150509250929050565b600080600060608486031215614480578081fd5b833561448b816153d2565b9250602084013561449b816153d2565b929592945050506040919091013590565b6000806000806000608086880312156144c3578081fd5b85356144ce816153d2565b945060208601356144de816153d2565b93506040860135925060608601356001600160401b038111156144ff578182fd5b61450b8882890161439e565b969995985093965092949392505050565b60008060008060808587031215614531578182fd5b843561453c816153d2565b9350602085013561454c816153d2565b92506040850135915060608501356001600160401b0381111561456d578182fd5b614579878288016143dd565b91505092959194509250565b60008060408385031215614597578182fd5b82356145a2816153d2565b915061332a6020840161438e565b6000806000604084860312156145c4578081fd5b83356145cf816153d2565b925060208401356001600160401b038111156145e9578182fd5b6145f58682870161439e565b9497909650939450505050565b60008060408385031215614614578182fd5b823561461f816153d2565b946020939093013593505050565b60008060008060608587031215614642578182fd5b843561464d816153d2565b93506020850135925060408501356001600160401b0381111561466e578283fd5b61467a8782880161439e565b95989497509550505050565b60008060008060008060008060a0898b0312156146a1578586fd5b88356146ac816153d2565b97506020890135965060408901356001600160401b03808211156146ce578788fd5b6146da8c838d0161439e565b909850965060608b01359150808211156146f2578485fd5b6146fe8c838d0161434c565b909650945060808b0135915080821115614716578384fd5b506147238b828c0161434c565b999c989b5096995094979396929594505050565b60008060008060008060008060008060c08b8d031215614755578384fd5b61475e8b61433c565b995060208b0135985060408b01356001600160401b0380821115614780578586fd5b61478c8e838f0161439e565b909a50985060608d01359150808211156147a4578586fd5b6147b08e838f0161434c565b909850965060808d01359150808211156147c8578586fd5b6147d48e838f0161434c565b909650945060a08d01359150808211156147ec578384fd5b506147f98d828e0161439e565b915080935050809150509295989b9194979a5092959850565b6000806000806000806080878903121561482a578384fd5b8635614835816153d2565b95506020870135945060408701356001600160401b0380821115614857578586fd5b6148638a838b0161439e565b9096509450606089013591508082111561487b578384fd5b5061488889828a0161439e565b979a9699509497509295939492505050565b6000806000806000606086880312156148b1578283fd5b85356001600160401b03808211156148c7578485fd5b6148d389838a0161434c565b909750955060208801359150808211156148eb578485fd5b506148f88882890161434c565b96999598509660400135949350505050565b60008060006040848603121561491e578081fd5b83356001600160401b03811115614933578182fd5b61493f8682870161434c565b909790965060209590950135949350505050565b60008060208385031215614965578182fd5b82356001600160401b0381111561497a578283fd5b6149868582860161434c565b90969095509350505050565b600060208083850312156149a4578182fd5b82356001600160401b03808211156149ba578384fd5b818501915085601f8301126149cd578384fd5b8135818111156149df576149df6153bc565b8060051b91506149f08483016151ff565b8181528481019084860184860187018a1015614a0a578788fd5b8795505b83861015614a2c578035835260019590950194918601918601614a0e565b5098975050505050505050565b600060208284031215614a4a578081fd5b610e3b8261438e565b600060208284031215614a64578081fd5b5051919050565b600060208284031215614a7c578081fd5b8135610e3b816153e7565b600060208284031215614a98578081fd5b8151610e3b816153e7565b60008060008060008060006080888a031215614abd578081fd5b87356001600160401b0380821115614ad3578283fd5b614adf8b838c0161439e565b909950975060208a0135965060408a0135915080821115614afe578283fd5b614b0a8b838c0161434c565b909650945060608a0135915080821115614b22578283fd5b50614b2f8a828b0161434c565b989b979a50959850939692959293505050565b60008060208385031215614b54578182fd5b82356001600160401b03811115614b69578283fd5b6149868582860161439e565b600080600080600060608688031215614b8c578283fd5b85356001600160401b0380821115614ba2578485fd5b614bae89838a0161439e565b90975095506020880135915080821115614bc6578485fd5b506148f88882890161439e565b600080600060408486031215614be7578081fd5b83356001600160401b03811115614bfc578182fd5b61493f8682870161439e565b600060208284031215614c19578081fd5b81356001600160401b03811115614c2e578182fd5b8201601f81018413614c3e578182fd5b610d2f848235602084016142e5565b600080600060408486031215614c61578081fd5b83356001600160401b0380821115614c77578283fd5b9085019060808288031215614c8a578283fd5b90935060208501359080821115614c9f578283fd5b506145f58682870161439e565b600060208284031215614cbd578081fd5b5035919050565b600080600060408486031215614cd8578081fd5b8335925060208401356001600160401b038111156145e9578182fd5b60008060008060608587031215614d09578182fd5b8435935060208501356001600160401b03811115614d25578283fd5b614d318782880161439e565b9598909750949560400135949350505050565b60008060408385031215614d56578182fd5b50508035926020909101359150565b600081518084526020808501808196508360051b81019150828601855b85811015614dac578284038952614d9a848351614de2565b98850198935090840190600101614d82565b5091979650505050505050565b81835281816020850137506000828201602090810191909152601f909101601f19169091010190565b60008151808452614dfa8160208601602086016152fa565b601f01601f19169290920160200192915050565b60008251614e208184602087016152fa565b9190910192915050565b60008451614e3c8184602089016152fa565b60609490941b6bffffffffffffffffffffffff191691909301908152601481019190915260340192915050565b8183823760009101908152919050565b60008351614e8b8184602088016152fa565b835190830190614e9f8183602088016152fa565b01949350505050565b6001600160a01b03848116825283166020820152606060408201819052600090610bc390830184614de2565b6001600160a01b03858116825284166020820152604081018390526080606082018190526000906136f690830184614de2565b602081526000610e3b6020830184614d65565b604081526000614f2d6040830185614d65565b8281036020840152610e378185614d65565b6020808252810182905260006001600160fb1b03831115614f5e578081fd5b8260051b808560408501379190910160400190815292915050565b828152604060208201526000610d2f6040830184614de2565b602081526000610d2f602083018486614db9565b602081526000610e3b6020830184614de2565b604081526000614fcc6040830185614de2565b8281036020840152610e378185614de2565b60208082526029908201527f52656769737472793a2053454e4445525f49535f4e4f545f415050524f5645446040820152682fa7a92fa7aba722a960b91b606082015260800190565b6020808252601a908201527f52656769737472793a20544f4b454e5f44455052454341544544000000000000604082015260600190565b60208082526032908201527f4552433732313a207472616e7366657220746f206e6f6e20455243373231526560408201527131b2b4bb32b91034b6b83632b6b2b73a32b960711b606082015260800190565b60208082526027908201527f52656769737472793a2053454e4445525f49535f4e4f545f4d494e54494e475f60408201526626a0a720a3a2a960c91b606082015260800190565b60208082526017908201527f52656769737472793a20544f4b454e5f494e56414c4944000000000000000000604082015260600190565b6020808252602b908201527f496e697469616c697a61626c653a20636f6e7472616374206973206e6f74206960408201526a6e697469616c697a696e6760a81b606082015260800190565b60208082526022908201527f52656769737472793a20494e53554646494349454e545f5045524d495353494f6040820152614e5360f01b606082015260800190565b6000808335601e198436030181126151d1578283fd5b8301803591506001600160401b038211156151ea578283fd5b6020019150368190038213156140af57600080fd5b604051601f8201601f191681016001600160401b0381118282101715615227576152276153bc565b604052919050565b6000821982111561524257615242615390565b500190565b600082615256576152566153a6565b500490565b60008282101561526d5761526d615390565b500390565b600060808236031215615283578081fd5b604051608081016001600160401b0382821081831117156152a6576152a66153bc565b81604052843591506152b7826153d2565b818352602085013560208401526040850135604084015260608501359150808211156152e1578384fd5b506152ee368286016143dd565b60608301525092915050565b60005b838110156153155781810151838201526020016152fd565b8381111561111e5750506000910152565b600181811c9082168061533a57607f821691505b6020821081141561535b57634e487b7160e01b600052602260045260246000fd5b50919050565b600060001982141561537557615375615390565b5060010190565b60008261538b5761538b6153a6565b500690565b634e487b7160e01b600052601160045260246000fd5b634e487b7160e01b600052601260045260246000fd5b634e487b7160e01b600052604160045260246000fd5b6001600160a01b0381168114610fbc57600080fd5b6001600160e01b031981168114610fbc57600080fdfebe2bb46ac0377341a1ec5c3116d70fd5029d704bd46292e58f6265dd177ebafea164736f6c6343000804000a",
  "linkReferences": {},
  "deployedLinkReferences": {}
}