{
  "_format": "hh-sol-artifact-1",
  "contractName": "UNSRegistry",
  "sourceName": "contracts/UNSRegistry.sol",
  "abi": [
    {
      "anonymous": false,
      "inputs": [
        {
          "indexed": false,
          "internalType": "address",
          "name": "previousAdmin",
          "type": "address"
        },
        {
          "indexed": false,
          "internalType": "address",
          "name": "newAdmin",
          "type": "address"
        }
      ],
      "name": "AdminChanged",
      "type": "event"
    },
    {
      "anonymous": false,
      "inputs": [
        {
          "indexed": true,
          "internalType": "address",
          "name": "owner",
          "type": "address"
        },
        {
          "indexed": true,
          "internalType": "address",
          "name": "approved",
          "type": "address"
        },
        {
          "indexed": true,
          "internalType": "uint256",
          "name": "tokenId",
          "type": "uint256"
        }
      ],
      "name": "Approval",
      "type": "event"
    },
    {
      "anonymous": false,
      "inputs": [
        {
          "indexed": true,
          "internalType": "address",
          "name": "owner",
          "type": "address"
        },
        {
          "indexed": true,
          "internalType": "address",
          "name": "operator",
          "type": "address"
        },
        {
          "indexed": false,
          "internalType": "bool",
          "name": "approved",
          "type": "bool"
        }
      ],
      "name": "ApprovalForAll",
      "type": "event"
    },
    {
      "anonymous": false,
      "inputs": [
        {
          "indexed": false,
          "internalType": "uint8",
          "name": "version",
          "type": "uint8"
        }
      ],
      "name": "Initialized",
      "type": "event"
    },
    {
      "anonymous": false,
      "inputs": [
        {
          "indexed": true,
          "internalType": "uint256",
          "name": "tokenId",
          "type": "uint256"
        },
        {
          "indexed": true,
          "internalType": "string",
          "name": "keyIndex",
          "type": "string"
        },
        {
          "indexed": false,
          "internalType": "string",
          "name": "key",
          "type": "string"
        }
      ],
      "name": "NewKey",
      "type": "event"
    },
    {
      "anonymous": false,
      "inputs": [
        {
          "indexed": true,
          "internalType": "uint256",
          "name": "tokenId",
          "type": "uint256"
        },
        {
          "indexed": false,
          "internalType": "string",
          "name": "uri",
          "type": "string"
        }
      ],
      "name": "NewURI",
      "type": "event"
    },
    {
      "anonymous": false,
      "inputs": [
        {
          "indexed": false,
          "internalType": "string",
          "name": "prefix",
          "type": "string"
        }
      ],
      "name": "NewURIPrefix",
      "type": "event"
    },
    {
      "anonymous": false,
      "inputs": [
        {
          "indexed": true,
          "internalType": "address",
          "name": "addr",
          "type": "address"
        }
      ],
      "name": "RemoveReverse",
      "type": "event"
    },
    {
      "anonymous": false,
      "inputs": [
        {
          "indexed": true,
          "internalType": "uint256",
          "name": "tokenId",
          "type": "uint256"
        }
      ],
      "name": "ResetRecords",
      "type": "event"
    },
    {
      "anonymous": false,
      "inputs": [
        {
          "indexed": true,
          "internalType": "uint256",
          "name": "tokenId",
          "type": "uint256"
        },
        {
          "indexed": true,
          "internalType": "string",
          "name": "keyIndex",
          "type": "string"
        },
        {
          "indexed": true,
          "internalType": "string",
          "name": "valueIndex",
          "type": "string"
        },
        {
          "indexed": false,
          "internalType": "string",
          "name": "key",
          "type": "string"
        },
        {
          "indexed": false,
          "internalType": "string",
          "name": "value",
          "type": "string"
        }
      ],
      "name": "Set",
      "type": "event"
    },
    {
      "anonymous": false,
      "inputs": [
        {
          "indexed": true,
          "internalType": "address",
          "name": "addr",
          "type": "address"
        },
        {
          "indexed": true,
          "internalType": "uint256",
          "name": "tokenId",
          "type": "uint256"
        }
      ],
      "name": "SetReverse",
      "type": "event"
    },
    {
      "anonymous": false,
      "inputs": [
        {
          "indexed": true,
          "internalType": "address",
          "name": "from",
          "type": "address"
        },
        {
          "indexed": true,
          "internalType": "address",
          "name": "to",
          "type": "address"
        },
        {
          "indexed": true,
          "internalType": "uint256",
          "name": "tokenId",
          "type": "uint256"
        }
      ],
      "name": "Transfer",
      "type": "event"
    },
    {
      "anonymous": false,
      "inputs": [
        {
          "indexed": true,
          "internalType": "address",
          "name": "implementation",
          "type": "address"
        }
      ],
      "name": "Upgraded",
      "type": "event"
    },
    {
      "anonymous": false,
      "inputs": [
        {
          "indexed": true,
          "internalType": "address",
          "name": "user",
          "type": "address"
        },
        {
          "indexed": false,
          "internalType": "uint256[]",
          "name": "tokenIds",
          "type": "uint256[]"
        }
      ],
      "name": "WithdrawnBatch",
      "type": "event"
    },
    {
      "inputs": [],
      "name": "BATCH_LIMIT",
      "outputs": [
        {
          "internalType": "uint256",
          "name": "",
          "type": "uint256"
        }
      ],
      "stateMutability": "view",
      "type": "function"
    },
    {
      "inputs": [],
      "name": "NAME",
      "outputs": [
        {
          "internalType": "string",
          "name": "",
          "type": "string"
        }
      ],
      "stateMutability": "view",
      "type": "function"
    },
    {
      "inputs": [],
      "name": "VERSION",
      "outputs": [
        {
          "internalType": "string",
          "name": "",
          "type": "string"
        }
      ],
      "stateMutability": "view",
      "type": "function"
    },
    {
      "inputs": [
        {
          "internalType": "string",
          "name": "key",
          "type": "string"
        }
      ],
      "name": "addKey",
      "outputs": [],
      "stateMutability": "nonpayable",
      "type": "function"
    },
    {
      "inputs": [
        {
          "internalType": "address",
          "name": "addr",
          "type": "address"
        }
      ],
      "name": "addProxyReader",
      "outputs": [],
      "stateMutability": "nonpayable",
      "type": "function"
    },
    {
      "inputs": [
        {
          "internalType": "address",
          "name": "to",
          "type": "address"
        },
        {
          "internalType": "uint256",
          "name": "tokenId",
          "type": "uint256"
        }
      ],
      "name": "approve",
      "outputs": [],
      "stateMutability": "nonpayable",
      "type": "function"
    },
    {
      "inputs": [
        {
          "internalType": "address",
          "name": "owner",
          "type": "address"
        }
      ],
      "name": "balanceOf",
      "outputs": [
        {
          "internalType": "uint256",
          "name": "",
          "type": "uint256"
        }
      ],
      "stateMutability": "view",
      "type": "function"
    },
    {
      "inputs": [
        {
          "internalType": "uint256",
          "name": "tokenId",
          "type": "uint256"
        }
      ],
      "name": "burn",
      "outputs": [],
      "stateMutability": "nonpayable",
      "type": "function"
    },
    {
      "inputs": [
        {
          "internalType": "uint256",
          "name": "tokenId",
          "type": "uint256"
        },
        {
          "internalType": "string",
          "name": "label",
          "type": "string"
        }
      ],
      "name": "childIdOf",
      "outputs": [
        {
          "internalType": "uint256",
          "name": "",
          "type": "uint256"
        }
      ],
      "stateMutability": "pure",
      "type": "function"
    },
    {
      "inputs": [
        {
          "internalType": "address",
          "name": "user",
          "type": "address"
        },
        {
          "internalType": "bytes",
          "name": "depositData",
          "type": "bytes"
        }
      ],
      "name": "deposit",
      "outputs": [],
      "stateMutability": "nonpayable",
      "type": "function"
    },
    {
      "inputs": [
        {
          "internalType": "uint256",
          "name": "tokenId",
          "type": "uint256"
        }
      ],
      "name": "depositToPolygon",
      "outputs": [],
      "stateMutability": "nonpayable",
      "type": "function"
    },
    {
      "inputs": [
        {
          "internalType": "string",
          "name": "prefix",
          "type": "string"
        }
      ],
      "name": "dummySetTokenURIPrefix",
      "outputs": [],
      "stateMutability": "nonpayable",
      "type": "function"
    },
    {
      "inputs": [
        {
          "components": [
            {
              "internalType": "address",
              "name": "from",
              "type": "address"
            },
            {
              "internalType": "uint256",
              "name": "nonce",
              "type": "uint256"
            },
            {
              "internalType": "uint256",
              "name": "tokenId",
              "type": "uint256"
            },
            {
              "internalType": "bytes",
              "name": "data",
              "type": "bytes"
            }
          ],
          "internalType": "struct IForwarder.ForwardRequest",
          "name": "req",
          "type": "tuple"
        },
        {
          "internalType": "bytes",
          "name": "signature",
          "type": "bytes"
        }
      ],
      "name": "execute",
      "outputs": [
        {
          "internalType": "bytes",
          "name": "",
          "type": "bytes"
        }
      ],
      "stateMutability": "nonpayable",
      "type": "function"
    },
    {
      "inputs": [
        {
          "internalType": "uint256",
          "name": "tokenId",
          "type": "uint256"
        }
      ],
      "name": "exists",
      "outputs": [
        {
          "internalType": "bool",
          "name": "",
          "type": "bool"
        }
      ],
      "stateMutability": "view",
      "type": "function"
    },
    {
      "inputs": [
        {
          "internalType": "string",
          "name": "key",
          "type": "string"
        },
        {
          "internalType": "uint256",
          "name": "tokenId",
          "type": "uint256"
        }
      ],
      "name": "get",
      "outputs": [
        {
          "internalType": "string",
          "name": "value",
          "type": "string"
        }
      ],
      "stateMutability": "view",
      "type": "function"
    },
    {
      "inputs": [
        {
          "internalType": "uint256",
          "name": "tokenId",
          "type": "uint256"
        }
      ],
      "name": "getApproved",
      "outputs": [
        {
          "internalType": "address",
          "name": "",
          "type": "address"
        }
      ],
      "stateMutability": "view",
      "type": "function"
    },
    {
      "inputs": [
        {
          "internalType": "uint256",
          "name": "keyHash",
          "type": "uint256"
        },
        {
          "internalType": "uint256",
          "name": "tokenId",
          "type": "uint256"
        }
      ],
      "name": "getByHash",
      "outputs": [
        {
          "internalType": "string",
          "name": "key",
          "type": "string"
        },
        {
          "internalType": "string",
          "name": "value",
          "type": "string"
        }
      ],
      "stateMutability": "view",
      "type": "function"
    },
    {
      "inputs": [
        {
          "internalType": "uint256",
          "name": "keyHash",
          "type": "uint256"
        }
      ],
      "name": "getKey",
      "outputs": [
        {
          "internalType": "string",
          "name": "",
          "type": "string"
        }
      ],
      "stateMutability": "view",
      "type": "function"
    },
    {
      "inputs": [
        {
          "internalType": "uint256[]",
          "name": "hashes",
          "type": "uint256[]"
        }
      ],
      "name": "getKeys",
      "outputs": [
        {
          "internalType": "string[]",
          "name": "values",
          "type": "string[]"
        }
      ],
      "stateMutability": "view",
      "type": "function"
    },
    {
      "inputs": [
        {
          "internalType": "string[]",
          "name": "keys",
          "type": "string[]"
        },
        {
          "internalType": "uint256",
          "name": "tokenId",
          "type": "uint256"
        }
      ],
      "name": "getMany",
      "outputs": [
        {
          "internalType": "string[]",
          "name": "values",
          "type": "string[]"
        }
      ],
      "stateMutability": "view",
      "type": "function"
    },
    {
      "inputs": [
        {
          "internalType": "uint256[]",
          "name": "keyHashes",
          "type": "uint256[]"
        },
        {
          "internalType": "uint256",
          "name": "tokenId",
          "type": "uint256"
        }
      ],
      "name": "getManyByHash",
      "outputs": [
        {
          "internalType": "string[]",
          "name": "keys",
          "type": "string[]"
        },
        {
          "internalType": "string[]",
          "name": "values",
          "type": "string[]"
        }
      ],
      "stateMutability": "view",
      "type": "function"
    },
    {
      "inputs": [
        {
          "internalType": "address",
          "name": "mintingManager",
          "type": "address"
        }
      ],
      "name": "initialize",
      "outputs": [],
      "stateMutability": "nonpayable",
      "type": "function"
    },
    {
      "inputs": [
        {
          "internalType": "address",
          "name": "owner",
          "type": "address"
        },
        {
          "internalType": "address",
          "name": "operator",
          "type": "address"
        }
      ],
      "name": "isApprovedForAll",
      "outputs": [
        {
          "internalType": "bool",
          "name": "",
          "type": "bool"
        }
      ],
      "stateMutability": "view",
      "type": "function"
    },
    {
      "inputs": [
        {
          "internalType": "address",
          "name": "spender",
          "type": "address"
        },
        {
          "internalType": "uint256",
          "name": "tokenId",
          "type": "uint256"
        }
      ],
      "name": "isApprovedOrOwner",
      "outputs": [
        {
          "internalType": "bool",
          "name": "",
          "type": "bool"
        }
      ],
      "stateMutability": "view",
      "type": "function"
    },
    {
      "inputs": [
        {
          "internalType": "address",
          "name": "forwarder",
          "type": "address"
        }
      ],
      "name": "isTrustedForwarder",
      "outputs": [
        {
          "internalType": "bool",
          "name": "",
          "type": "bool"
        }
      ],
      "stateMutability": "view",
      "type": "function"
    },
    {
      "inputs": [
        {
          "internalType": "address",
          "name": "user",
          "type": "address"
        },
        {
          "internalType": "uint256",
          "name": "tokenId",
          "type": "uint256"
        }
      ],
      "name": "mint",
      "outputs": [],
      "stateMutability": "nonpayable",
      "type": "function"
    },
    {
      "inputs": [
        {
          "internalType": "address",
          "name": "user",
          "type": "address"
        },
        {
          "internalType": "uint256",
          "name": "tokenId",
          "type": "uint256"
        },
        {
          "internalType": "bytes",
          "name": "",
          "type": "bytes"
        }
      ],
      "name": "mint",
      "outputs": [],
      "stateMutability": "nonpayable",
      "type": "function"
    },
    {
      "inputs": [
        {
          "internalType": "address",
          "name": "to",
          "type": "address"
        },
        {
          "internalType": "uint256",
          "name": "tokenId",
          "type": "uint256"
        },
        {
          "internalType": "string",
          "name": "uri",
          "type": "string"
        }
      ],
      "name": "mint",
      "outputs": [],
      "stateMutability": "nonpayable",
      "type": "function"
    },
    {
      "inputs": [
        {
          "internalType": "address",
          "name": "to",
          "type": "address"
        },
        {
          "internalType": "uint256",
          "name": "tokenId",
          "type": "uint256"
        },
        {
          "internalType": "string",
          "name": "uri",
          "type": "string"
        },
        {
          "internalType": "string[]",
          "name": "keys",
          "type": "string[]"
        },
        {
          "internalType": "string[]",
          "name": "values",
          "type": "string[]"
        }
      ],
      "name": "mintWithRecords",
      "outputs": [],
      "stateMutability": "nonpayable",
      "type": "function"
    },
    {
      "inputs": [],
      "name": "name",
      "outputs": [
        {
          "internalType": "string",
          "name": "",
          "type": "string"
        }
      ],
      "stateMutability": "view",
      "type": "function"
    },
    {
      "inputs": [
        {
          "internalType": "uint256",
          "name": "tokenId",
          "type": "uint256"
        }
      ],
      "name": "nonceOf",
      "outputs": [
        {
          "internalType": "uint256",
          "name": "",
          "type": "uint256"
        }
      ],
      "stateMutability": "view",
      "type": "function"
    },
    {
      "inputs": [
        {
          "internalType": "address",
          "name": "",
          "type": "address"
        },
        {
          "internalType": "address",
          "name": "from",
          "type": "address"
        },
        {
          "internalType": "uint256",
          "name": "tokenId",
          "type": "uint256"
        },
        {
          "internalType": "bytes",
          "name": "data",
          "type": "bytes"
        }
      ],
      "name": "onERC721Received",
      "outputs": [
        {
          "internalType": "bytes4",
          "name": "",
          "type": "bytes4"
        }
      ],
      "stateMutability": "nonpayable",
      "type": "function"
    },
    {
      "inputs": [
        {
          "internalType": "uint256",
          "name": "tokenId",
          "type": "uint256"
        }
      ],
      "name": "ownerOf",
      "outputs": [
        {
          "internalType": "address",
          "name": "",
          "type": "address"
        }
      ],
      "stateMutability": "view",
      "type": "function"
    },
    {
      "inputs": [
        {
          "internalType": "string[]",
          "name": "keys",
          "type": "string[]"
        },
        {
          "internalType": "string[]",
          "name": "values",
          "type": "string[]"
        },
        {
          "internalType": "uint256",
          "name": "tokenId",
          "type": "uint256"
        }
      ],
      "name": "reconfigure",
      "outputs": [],
      "stateMutability": "nonpayable",
      "type": "function"
    },
    {
      "inputs": [],
      "name": "removeReverse",
      "outputs": [],
      "stateMutability": "nonpayable",
      "type": "function"
    },
    {
      "inputs": [
        {
          "internalType": "uint256",
          "name": "tokenId",
          "type": "uint256"
        }
      ],
      "name": "reset",
      "outputs": [],
      "stateMutability": "nonpayable",
      "type": "function"
    },
    {
      "inputs": [
        {
          "internalType": "uint256",
          "name": "tokenId",
          "type": "uint256"
        }
      ],
      "name": "resolverOf",
      "outputs": [
        {
          "internalType": "address",
          "name": "",
          "type": "address"
        }
      ],
      "stateMutability": "view",
      "type": "function"
    },
    {
      "inputs": [
        {
          "internalType": "address",
          "name": "addr",
          "type": "address"
        }
      ],
      "name": "reverseOf",
      "outputs": [
        {
          "internalType": "uint256",
          "name": "reverse",
          "type": "uint256"
        }
      ],
      "stateMutability": "view",
      "type": "function"
    },
    {
      "inputs": [],
      "name": "root",
      "outputs": [
        {
          "internalType": "uint256",
          "name": "",
          "type": "uint256"
        }
      ],
      "stateMutability": "pure",
      "type": "function"
    },
    {
      "inputs": [
        {
          "internalType": "address",
          "name": "to",
          "type": "address"
        },
        {
          "internalType": "uint256",
          "name": "tokenId",
          "type": "uint256"
        },
        {
          "internalType": "string",
          "name": "uri",
          "type": "string"
        },
        {
          "internalType": "bytes",
          "name": "data",
          "type": "bytes"
        }
      ],
      "name": "safeMint",
      "outputs": [],
      "stateMutability": "nonpayable",
      "type": "function"
    },
    {
      "inputs": [
        {
          "internalType": "address",
          "name": "to",
          "type": "address"
        },
        {
          "internalType": "uint256",
          "name": "tokenId",
          "type": "uint256"
        },
        {
          "internalType": "string",
          "name": "uri",
          "type": "string"
        }
      ],
      "name": "safeMint",
      "outputs": [],
      "stateMutability": "nonpayable",
      "type": "function"
    },
    {
      "inputs": [
        {
          "internalType": "address",
          "name": "to",
          "type": "address"
        },
        {
          "internalType": "uint256",
          "name": "tokenId",
          "type": "uint256"
        },
        {
          "internalType": "string",
          "name": "uri",
          "type": "string"
        },
        {
          "internalType": "string[]",
          "name": "keys",
          "type": "string[]"
        },
        {
          "internalType": "string[]",
          "name": "values",
          "type": "string[]"
        }
      ],
      "name": "safeMintWithRecords",
      "outputs": [],
      "stateMutability": "nonpayable",
      "type": "function"
    },
    {
      "inputs": [
        {
          "internalType": "address",
          "name": "to",
          "type": "address"
        },
        {
          "internalType": "uint256",
          "name": "tokenId",
          "type": "uint256"
        },
        {
          "internalType": "string",
          "name": "uri",
          "type": "string"
        },
        {
          "internalType": "string[]",
          "name": "keys",
          "type": "string[]"
        },
        {
          "internalType": "string[]",
          "name": "values",
          "type": "string[]"
        },
        {
          "internalType": "bytes",
          "name": "data",
          "type": "bytes"
        }
      ],
      "name": "safeMintWithRecords",
      "outputs": [],
      "stateMutability": "nonpayable",
      "type": "function"
    },
    {
      "inputs": [
        {
          "internalType": "address",
          "name": "from",
          "type": "address"
        },
        {
          "internalType": "address",
          "name": "to",
          "type": "address"
        },
        {
          "internalType": "uint256",
          "name": "tokenId",
          "type": "uint256"
        }
      ],
      "name": "safeTransferFrom",
      "outputs": [],
      "stateMutability": "nonpayable",
      "type": "function"
    },
    {
      "inputs": [
        {
          "internalType": "address",
          "name": "from",
          "type": "address"
        },
        {
          "internalType": "address",
          "name": "to",
          "type": "address"
        },
        {
          "internalType": "uint256",
          "name": "tokenId",
          "type": "uint256"
        },
        {
          "internalType": "bytes",
          "name": "data",
          "type": "bytes"
        }
      ],
      "name": "safeTransferFrom",
      "outputs": [],
      "stateMutability": "nonpayable",
      "type": "function"
    },
    {
      "inputs": [
        {
          "internalType": "string",
          "name": "key",
          "type": "string"
        },
        {
          "internalType": "string",
          "name": "value",
          "type": "string"
        },
        {
          "internalType": "uint256",
          "name": "tokenId",
          "type": "uint256"
        }
      ],
      "name": "set",
      "outputs": [],
      "stateMutability": "nonpayable",
      "type": "function"
    },
    {
      "inputs": [
        {
          "internalType": "address",
          "name": "operator",
          "type": "address"
        },
        {
          "internalType": "bool",
          "name": "approved",
          "type": "bool"
        }
      ],
      "name": "setApprovalForAll",
      "outputs": [],
      "stateMutability": "nonpayable",
      "type": "function"
    },
    {
      "inputs": [
        {
          "internalType": "uint256",
          "name": "keyHash",
          "type": "uint256"
        },
        {
          "internalType": "string",
          "name": "value",
          "type": "string"
        },
        {
          "internalType": "uint256",
          "name": "tokenId",
          "type": "uint256"
        }
      ],
      "name": "setByHash",
      "outputs": [],
      "stateMutability": "nonpayable",
      "type": "function"
    },
    {
      "inputs": [
        {
          "internalType": "address",
          "name": "registry",
          "type": "address"
        }
      ],
      "name": "setCNSRegistry",
      "outputs": [],
      "stateMutability": "nonpayable",
      "type": "function"
    },
    {
      "inputs": [
        {
          "internalType": "address",
          "name": "clientChainManager",
          "type": "address"
        }
      ],
      "name": "setChildChainManager",
      "outputs": [],
      "stateMutability": "nonpayable",
      "type": "function"
    },
    {
      "inputs": [
        {
          "internalType": "string[]",
          "name": "keys",
          "type": "string[]"
        },
        {
          "internalType": "string[]",
          "name": "values",
          "type": "string[]"
        },
        {
          "internalType": "uint256",
          "name": "tokenId",
          "type": "uint256"
        }
      ],
      "name": "setMany",
      "outputs": [],
      "stateMutability": "nonpayable",
      "type": "function"
    },
    {
      "inputs": [
        {
          "internalType": "uint256[]",
          "name": "keyHashes",
          "type": "uint256[]"
        },
        {
          "internalType": "string[]",
          "name": "values",
          "type": "string[]"
        },
        {
          "internalType": "uint256",
          "name": "tokenId",
          "type": "uint256"
        }
      ],
      "name": "setManyByHash",
      "outputs": [],
      "stateMutability": "nonpayable",
      "type": "function"
    },
    {
      "inputs": [
        {
          "internalType": "address",
          "name": "to",
          "type": "address"
        },
        {
          "internalType": "uint256",
          "name": "tokenId",
          "type": "uint256"
        }
      ],
      "name": "setOwner",
      "outputs": [],
      "stateMutability": "nonpayable",
      "type": "function"
    },
    {
      "inputs": [
        {
          "internalType": "uint256",
          "name": "tokenId",
          "type": "uint256"
        }
      ],
      "name": "setReverse",
      "outputs": [],
      "stateMutability": "nonpayable",
      "type": "function"
    },
    {
      "inputs": [
        {
          "internalType": "address",
          "name": "rootChainManager",
          "type": "address"
        }
      ],
      "name": "setRootChainManager",
      "outputs": [],
      "stateMutability": "nonpayable",
      "type": "function"
    },
    {
      "inputs": [
        {
          "internalType": "string",
          "name": "prefix",
          "type": "string"
        }
      ],
      "name": "setTokenURIPrefix",
      "outputs": [],
      "stateMutability": "nonpayable",
      "type": "function"
    },
    {
      "inputs": [
        {
          "internalType": "bytes4",
          "name": "interfaceId",
          "type": "bytes4"
        }
      ],
      "name": "supportsInterface",
      "outputs": [
        {
          "internalType": "bool",
          "name": "",
          "type": "bool"
        }
      ],
      "stateMutability": "view",
      "type": "function"
    },
    {
      "inputs": [],
      "name": "symbol",
      "outputs": [
        {
          "internalType": "string",
          "name": "",
          "type": "string"
        }
      ],
      "stateMutability": "view",
      "type": "function"
    },
    {
      "inputs": [
        {
          "internalType": "uint256",
          "name": "tokenId",
          "type": "uint256"
        }
      ],
      "name": "tokenURI",
      "outputs": [
        {
          "internalType": "string",
          "name": "",
          "type": "string"
        }
      ],
      "stateMutability": "view",
      "type": "function"
    },
    {
      "inputs": [
        {
          "internalType": "address",
          "name": "from",
          "type": "address"
        },
        {
          "internalType": "address",
          "name": "to",
          "type": "address"
        },
        {
          "internalType": "uint256",
          "name": "tokenId",
          "type": "uint256"
        }
      ],
      "name": "transferFrom",
      "outputs": [],
      "stateMutability": "nonpayable",
      "type": "function"
    },
    {
      "inputs": [
        {
          "internalType": "uint256[]",
          "name": "tokenIds",
          "type": "uint256[]"
        }
      ],
      "name": "upgradeAll",
      "outputs": [],
      "stateMutability": "nonpayable",
      "type": "function"
    },
    {
      "inputs": [
        {
          "components": [
            {
              "internalType": "address",
              "name": "from",
              "type": "address"
            },
            {
              "internalType": "uint256",
              "name": "nonce",
              "type": "uint256"
            },
            {
              "internalType": "uint256",
              "name": "tokenId",
              "type": "uint256"
            },
            {
              "internalType": "bytes",
              "name": "data",
              "type": "bytes"
            }
          ],
          "internalType": "struct IForwarder.ForwardRequest",
          "name": "req",
          "type": "tuple"
        },
        {
          "internalType": "bytes",
          "name": "signature",
          "type": "bytes"
        }
      ],
      "name": "verify",
      "outputs": [
        {
          "internalType": "bool",
          "name": "",
          "type": "bool"
        }
      ],
      "stateMutability": "view",
      "type": "function"
    },
    {
      "inputs": [
        {
          "internalType": "uint256",
          "name": "tokenId",
          "type": "uint256"
        }
      ],
      "name": "withdraw",
      "outputs": [],
      "stateMutability": "nonpayable",
      "type": "function"
    },
    {
      "inputs": [
        {
          "internalType": "uint256[]",
          "name": "tokenIds",
          "type": "uint256[]"
        }
      ],
      "name": "withdrawBatch",
      "outputs": [],
      "stateMutability": "nonpayable",
      "type": "function"
    },
    {
      "inputs": [
        {
          "internalType": "bytes",
          "name": "inputData",
          "type": "bytes"
        },
        {
          "internalType": "uint256",
          "name": "tokenId",
          "type": "uint256"
        },
        {
          "internalType": "string[]",
          "name": "keys",
          "type": "string[]"
        },
        {
          "internalType": "string[]",
          "name": "values",
          "type": "string[]"
        }
      ],
      "name": "withdrawFromPolygon",
      "outputs": [],
      "stateMutability": "nonpayable",
      "type": "function"
    },
    {
      "inputs": [
        {
          "internalType": "uint256",
          "name": "tokenId",
          "type": "uint256"
        }
      ],
      "name": "withdrawWithMetadata",
      "outputs": [],
      "stateMutability": "nonpayable",
      "type": "function"
    }
  ],
  "bytecode": "0x608060405234801561001057600080fd5b50615404806100206000396000f3fe608060405234801561001057600080fd5b50600436106103e65760003560e01c80637e37479e1161020a578063b55bc61711610125578063cf2c52cb116100b8578063ec129eea11610087578063ec129eea14610917578063efda4d3e1461092a578063f25eb5c11461093d578063f5c1f76e14610945578063ffa1ad741461095857600080fd5b8063cf2c52cb146108ae578063d3fc9864146108c1578063e985e9c5146108d4578063ebf0c7171461091057600080fd5b8063c4d66de8116100f4578063c4d66de814610862578063c87b56dd14610875578063cd279c7c14610888578063ce92b33e1461089b57600080fd5b8063b55bc61714610808578063b85afd281461081b578063b88d4fde1461083c578063bb5b27e11461084f57600080fd5b8063a22cb4651161019d578063ab3b87fe1161016c578063ab3b87fe146107bc578063ae31844a146107cf578063b0f59177146107e2578063b3f9e4cb146107f557600080fd5b8063a22cb4651461076a578063a3f4df7e1461077d578063a4247400146107a9578063a5e584dc1461050057600080fd5b80639559c0bd116101d95780639559c0bd1461073457806395d89b411461073c57806399e0dd7c146107445780639c8d41561461075757600080fd5b80637e37479e146106e85780637f139a00146106fb57806394d008ef1461070e5780639508b1c41461072157600080fd5b8063430c2081116103055780636352211e116102985780636ccbae5f116102675780636ccbae5f1461067b57806370a082311461069c578063728a44d8146106af578063764a81bb146106c257806377093cb1146106d557600080fd5b80636352211e14610613578063638e5c7814610626578063672b9f811461063957806368b62d321461065a57600080fd5b80634f558e79116102d45780634f558e79146105be57806350382c1a146105d157806350960239146105e4578063572b6c05146105f757600080fd5b8063430c2081146105725780634348b5621461058557806347c81699146105985780634a72584d146105ab57600080fd5b806323b872dd1161037d578063384e9a551161034c578063384e9a551461052657806340c10f191461053957806342842e0e1461054c57806342966c681461055f57600080fd5b806323b872dd146104da57806327f18975146104ed5780632e1a7d4d14610500578063310bd74b1461051357600080fd5b8063150b7a02116103b9578063150b7a02146104685780631bd8cc1a146104945780631be5e7ed146104b45780631bf7e13e146104c757600080fd5b806301ffc9a7146103eb57806306fdde0314610413578063081812fc14610428578063095ea7b314610453575b600080fd5b6103fe6103f9366004614a82565b61097c565b60405190151581526020015b60405180910390f35b61041b61098d565b60405161040a9190614fbd565b61043b610436366004614cc3565b610a1f565b6040516001600160a01b03909116815260200161040a565b610466610461366004614619565b610a46565b005b61047b6104763660046144c3565b610a9b565b6040516001600160e01b0319909116815260200161040a565b6104a76104a2366004614921565b610bf1565b60405161040a9190614f1e565b61041b6104c2366004614bea565b610d11565b61041b6104d5366004614c64565b610d5c565b6104666104e8366004614483565b610e67565b6104666104fb3660046148b1565b610eed565b61046661050e366004614cc3565b610f68565b610466610521366004614cc3565b610fe4565b610466610534366004614cc3565b611052565b610466610547366004614619565b611111565b61046661055a366004614483565b61115e565b61046661056d366004614cc3565b611179565b6103fe610580366004614619565b6111f0565b61046661059336600461469d565b6111fc565b6104666105a6366004614b8c565b611261565b6104666105b9366004614d0b565b6112d3565b6103fe6105cc366004614cc3565b61134c565b6104666105df366004614c1f565b61136b565b6104666105f2366004614413565b61139e565b6103fe610605366004614413565b6001600160a01b0316301490565b61043b610621366004614cc3565b6113fe565b610466610634366004614cc3565b61145e565b61064c610647366004614d5b565b6114a9565b60405161040a929190614fd0565b61066d610668366004614cdb565b6114c1565b60405190815260200161040a565b61066d610689366004614cc3565b6000908152610100602052604090205490565b61066d6106aa366004614413565b611503565b6104666106bd366004614413565b611589565b6104666106d0366004614413565b611630565b6104666106e3366004614b59565b6116df565b61066d6106f6366004614413565b61172a565b610466610709366004614413565b61175b565b61046661071c366004614644565b6117fa565b61046661072f366004614aba565b611849565b61066d601481565b61041b6118d0565b610466610752366004614b59565b6118df565b61046661076536600461496a565b61191a565b61046661077836600461459c565b611a9d565b61041b6040518060400160405280600d81526020016c554e533a20526567697374727960981b81525081565b6103fe6107b7366004614c64565b611aaf565b6104666107ca366004614619565b611afa565b6104666107dd36600461496a565b611b72565b6104666107f036600461469d565b611c1e565b61043b610803366004614cc3565b611ca7565b610466610816366004614829565b611cd1565b61082e610829366004614921565b611d81565b60405161040a929190614f31565b61046661084a366004614533565b611ee9565b61041b61085d366004614cc3565b611f63565b610466610870366004614413565b612005565b61041b610883366004614cc3565b61217f565b610466610896366004614644565b6121e5565b6104666108a93660046148b1565b61226f565b6104666108bc3660046145c7565b6122e1565b6104666108cf366004614644565b6123be565b6103fe6108e236600461444b565b6001600160a01b039182166000908152606a6020908152604080832093909416825291909152205460ff1690565b600061066d565b6104666109253660046148b1565b61243a565b61046661093836600461474e565b6124ac565b61046661253a565b6104a761095336600461496a565b6125c0565b61041b60405180604001604052806005815260200164302e352e3160d81b81525081565b60006109878261269d565b92915050565b60606065805461099c90615306565b80601f01602080910402602001604051908101604052809291908181526020018280546109c890615306565b8015610a155780601f106109ea57610100808354040283529160200191610a15565b820191906000526020600020905b8154815290600101906020018083116109f857829003601f168201915b5050505050905090565b6000610a2a826126ed565b506000908152606960205260409020546001600160a01b031690565b8030331415610a8357610a5761274c565b8114610a7e5760405162461bcd60e51b8152600401610a75906150d7565b60405180910390fd5b610a8c565b610a8c81612761565b610a96838361278f565b505050565b60007f8ffb960699dc2ba88f34d0e41c029c3c36c95149679fe1d0153a9582bec92378546001600160a01b0316610ad06128b2565b6001600160a01b03161415610b9257610ae76128b2565b6001600160a01b03166342966c68856040518263ffffffff1660e01b8152600401610b1491815260200190565b600060405180830381600087803b158015610b2e57600080fd5b505af1158015610b42573d6000803e3d6000fd5b505050821580159150610b5c5750610b5c82840184614a50565b15610b7a57610b6b30856128c1565b610b758585612a0f565b610b84565b610b8485856128c1565b50630a85bd0160e11b610be8565b60405162461bcd60e51b815260206004820152602560248201527f52656769737472793a204552433732315f524543454956494e475f50524f4849604482015264109255115160da1b6064820152608401610a75565b95945050505050565b6060826001600160401b03811115610c1957634e487b7160e01b600052604160045260246000fd5b604051908082528060200260200182016040528015610c4c57816020015b6060815260200190600190039081610c375790505b50905060005b83811015610d0957610ccb858583818110610c7d57634e487b7160e01b600052603260045260246000fd5b9050602002810190610c8f919061519b565b8080601f016020809104026020016040519081016040528093929190818152602001838380828437600092019190915250879250612ab0915050565b828281518110610ceb57634e487b7160e01b600052603260045260246000fd5b60200260200101819052508080610d019061533b565b915050610c52565b509392505050565b6060610d5484848080601f016020809104026020016040519081016040528093929190818152602001838380828437600092019190915250869250612ab0915050565b949350505050565b606060005a9050610d6e858585611aaf565b610dca5760405162461bcd60e51b815260206004820152602760248201527f554e535265676973747279466f727761726465723a205349474e41545552455f6044820152661253959053125160ca1b6064820152608401610a75565b610e5c610dda6020870187614413565b30604088013584610dee60608b018b61519b565b8080601f01602080910402602001604051908101604052809392919081815260200183838082843760009201919091525050604080516020601f8e018190048102820181019092528c815292508c91508b9081908401838280828437600092019190915250612ae592505050565b9150505b9392505050565b80610e79610e736128b2565b82612bd4565b610e955760405162461bcd60e51b8152600401610a7590614ff5565b8130331415610ec957610ea661274c565b8114610ec45760405162461bcd60e51b8152600401610a75906150d7565b610ed2565b610ed281612761565b610edb83612c52565b610ee6858585612cbf565b5050505050565b80610ef9610e736128b2565b610f155760405162461bcd60e51b8152600401610a7590614ff5565b8130331415610f4957610f2661274c565b8114610f445760405162461bcd60e51b8152600401610a75906150d7565b610f52565b610f5281612761565b610f5f8787878787612e66565b50505050505050565b610f71816113fe565b6001600160a01b0316610f826128b2565b6001600160a01b031614610fd85760405162461bcd60e51b815260206004820152601d60248201527f52656769737472793a20494e56414c49445f544f4b454e5f4f574e45520000006044820152606401610a75565b610fe181612ee5565b50565b80610ff0610e736128b2565b61100c5760405162461bcd60e51b8152600401610a7590614ff5565b81303314156110405761101d61274c565b811461103b5760405162461bcd60e51b8152600401610a75906150d7565b611049565b61104981612761565b610a9683612c52565b8061105b6128b2565b6001600160a01b031661106d826113fe565b6001600160a01b0316146110c35760405162461bcd60e51b815260206004820152601d60248201527f52656769737472793a2053454e4445525f49535f4e4f545f4f574e45520000006044820152606401610a75565b81303314156110f7576110d461274c565b81146110f25760405162461bcd60e51b8152600401610a75906150d7565b611100565b61110081612761565b610a9661110b6128b2565b84612f8c565b611119612fd4565b6001600160a01b031661112a6128b2565b6001600160a01b0316146111505760405162461bcd60e51b8152600401610a7590615159565b61115a82826128c1565b5050565b610a9683838360405180602001604052806000815250611ee9565b80611185610e736128b2565b6111a15760405162461bcd60e51b8152600401610a7590614ff5565b81303314156111d5576111b261274c565b81146111d05760405162461bcd60e51b8152600401610a75906150d7565b6111de565b6111de81612761565b6111e783612c52565b610a9683612ee5565b6000610e608383612bd4565b610134546001600160a01b03166112116128b2565b6001600160a01b0316146112375760405162461bcd60e51b8152600401610a7590615090565b6112578888888888888888604051806020016040528060008152506130e7565b5050505050505050565b8061126d610e736128b2565b6112895760405162461bcd60e51b8152600401610a7590614ff5565b81303314156112bd5761129a61274c565b81146112b85760405162461bcd60e51b8152600401610a75906150d7565b6112c6565b6112c681612761565b610f5f8787878787613142565b806112df610e736128b2565b6112fb5760405162461bcd60e51b8152600401610a7590614ff5565b813033141561132f5761130c61274c565b811461132a5760405162461bcd60e51b8152600401610a75906150d7565b611338565b61133881612761565b61134486868686613221565b505050505050565b6000818152606760205260408120546001600160a01b03161515610987565b610fe18160405160200161137f9190614e25565b6040516020818303038152906040528051906020012060001c826132c1565b610134546001600160a01b03166113b36128b2565b6001600160a01b0316146113d95760405162461bcd60e51b8152600401610a7590615090565b6001600160a01b0316600090815261013660205260409020805460ff19166001179055565b6000818152606760205260408120546001600160a01b0316806109875760405162461bcd60e51b8152602060048201526018602482015277115490cdcc8c4e881a5b9d985b1a59081d1bdad95b88125160421b6044820152606401610a75565b8061146a610e736128b2565b6114865760405162461bcd60e51b8152600401610a7590614ff5565b6114986114916128b2565b3084612cbf565b61115a6114a36128b2565b83612a0f565b6060806114b684846132ed565b909590945092505050565b6000610d548484848080601f01602080910402602001604051908101604052809392919081815260200183838082843760009201919091525061330e92505050565b60006001600160a01b03821661156d5760405162461bcd60e51b815260206004820152602960248201527f4552433732313a2061646472657373207a65726f206973206e6f7420612076616044820152683634b21037bbb732b960b91b6064820152608401610a75565b506001600160a01b031660009081526068602052604090205490565b6000805160206153d8833981519152546001600160a01b0316156115fe5760405162461bcd60e51b815260206004820152602660248201527f52656769737472793a20524f4f545f434841494e5f4d414e454745525f4e4f546044820152655f454d50545960d01b6064820152608401610a75565b806000805160206153d88339815191525b80546001600160a01b0319166001600160a01b039290921691909117905550565b7f8bea9a6f8afd34f4e29c585f854e0cc5161431bf5fc299d468454d33dce53b87546001600160a01b0316156116b85760405162461bcd60e51b815260206004820152602760248201527f52656769737472793a204348494c445f434841494e5f4d414e454745525f4e4f604482015266545f454d50545960c81b6064820152608401610a75565b807f8bea9a6f8afd34f4e29c585f854e0cc5161431bf5fc299d468454d33dce53b8761160f565b6116ec61013383836141f3565b507f4b120d6a959a84a520fa48f5f937cca0e79129423487af7901213b5d2e89313b828260405161171e929190614fa9565b60405180910390a15050565b6001600160a01b0381166000908152610135602052604081205461174d816133bb565b611755578091505b50919050565b7f8ffb960699dc2ba88f34d0e41c029c3c36c95149679fe1d0153a9582bec92378546001600160a01b0316156117d35760405162461bcd60e51b815260206004820181905260248201527f52656769737472793a20434e535f52454749535452595f4e4f545f454d5054596044820152606401610a75565b807f8ffb960699dc2ba88f34d0e41c029c3c36c95149679fe1d0153a9582bec9237861160f565b611802612fd4565b6001600160a01b03166118136128b2565b6001600160a01b0316146118395760405162461bcd60e51b8152600401610a7590615159565b61184384846128c1565b50505050565b6118538787613405565b61185b6128b2565b6001600160a01b031661186d866113fe565b6001600160a01b0316146118c35760405162461bcd60e51b815260206004820152601d60248201527f52656769737472793a2053454e4445525f49535f4e4f545f4f574e45520000006044820152606401610a75565b610f5f8484848489613474565b60606066805461099c90615306565b610134546001600160a01b03166118f46128b2565b6001600160a01b0316146116df5760405162461bcd60e51b8152600401610a7590615090565b80601481111561196c5760405162461bcd60e51b815260206004820152601d60248201527f52656769737472793a20455843454544535f42415443485f4c494d49540000006044820152606401610a75565b60005b81811015611a4d57600084848381811061199957634e487b7160e01b600052603260045260246000fd5b9050602002013590506119ab816113fe565b6001600160a01b03166119bc6128b2565b6001600160a01b03161481604051602001611a0391907f52656769737472793a20494e56414c49445f544f4b454e5f4f574e45522000008152601e810191909152603e0190565b60405160208183030381529060405290611a305760405162461bcd60e51b8152600401610a759190614fbd565b50611a3a81612ee5565b5080611a458161533b565b91505061196f565b50611a566128b2565b6001600160a01b03167ff871896b17e9cb7a64941c62c188a4f5c621b86800e3d15452ece01ce56073df8484604051611a90929190614f56565b60405180910390a2505050565b61115a611aa86128b2565b83836134fe565b6000610d54611abd85615252565b3085858080601f0160208091040260200160405190810160405280939291908181526020018383808284376000920191909152506135cd92505050565b80611b06610e736128b2565b611b225760405162461bcd60e51b8152600401610a7590614ff5565b8130331415611b5657611b3361274c565b8114611b515760405162461bcd60e51b8152600401610a75906150d7565b611b5f565b611b5f81612761565b611843611b6b846113fe565b8585612cbf565b610134546001600160a01b0316611b876128b2565b6001600160a01b031614611bad5760405162461bcd60e51b8152600401610a7590615090565b60005b81811015610a965760016101376000858585818110611bdf57634e487b7160e01b600052603260045260246000fd5b90506020020135815260200190815260200160002060006101000a81548160ff0219169083151502179055508080611c169061533b565b915050611bb0565b610134546001600160a01b0316611c336128b2565b6001600160a01b031614611c595760405162461bcd60e51b8152600401610a7590615090565b611c9a888888888080601f01602080910402602001604051908101604052809392919081815260200183838082843760009201919091525061372592505050565b611257848484848b613474565b6000818152606760205260408120546001600160a01b0316611cca576000610987565b3092915050565b610134546001600160a01b0316611ce66128b2565b6001600160a01b031614611d0c5760405162461bcd60e51b8152600401610a7590615090565b611344868686868080601f01602080910402602001604051908101604052809392919081815260200183838082843760009201919091525050604080516020601f8a01819004810282018101909252888152925088915087908190840183828082843760009201919091525061377192505050565b606080836001600160401b03811115611daa57634e487b7160e01b600052604160045260246000fd5b604051908082528060200260200182016040528015611ddd57816020015b6060815260200190600190039081611dc85790505b509150836001600160401b03811115611e0657634e487b7160e01b600052604160045260246000fd5b604051908082528060200260200182016040528015611e3957816020015b6060815260200190600190039081611e245790505b50905060005b84811015611ee057611e77868683818110611e6a57634e487b7160e01b600052603260045260246000fd5b90506020020135856132ed565b848381518110611e9757634e487b7160e01b600052603260045260246000fd5b60200260200101848481518110611ebe57634e487b7160e01b600052603260045260246000fd5b6020026020010182905282905250508080611ed89061533b565b915050611e3f565b50935093915050565b81611ef5610e736128b2565b611f115760405162461bcd60e51b8152600401610a7590614ff5565b8230331415611f4557611f2261274c565b8114611f405760405162461bcd60e51b8152600401610a75906150d7565b611f4e565b611f4e81612761565b611f5784612c52565b611344868686866137be565b600081815260c960205260409020805460609190611f8090615306565b80601f0160208091040260200160405190810160405280929190818152602001828054611fac90615306565b8015611ff95780601f10611fce57610100808354040283529160200191611ff9565b820191906000526020600020905b815481529060010190602001808311611fdc57829003601f168201915b50505050509050919050565b600054610100900460ff16158080156120255750600054600160ff909116105b8061203f5750303b15801561203f575060005460ff166001145b6120a25760405162461bcd60e51b815260206004820152602e60248201527f496e697469616c697a61626c653a20636f6e747261637420697320616c72656160448201526d191e481a5b9a5d1a585b1a5e995960921b6064820152608401610a75565b6000805460ff1916600117905580156120c5576000805461ff0019166101001790555b61013480546001600160a01b0319166001600160a01b0384161790556040805180820182526013815272556e73746f707061626c6520446f6d61696e7360681b60208083019190915282518084019093526002835261155160f21b9083015261212d916137f1565b61213561383f565b61213d61383f565b801561115a576000805461ff0019169055604051600181527f7f26b83ff96e1f2b6a682f133852f6798a09c465da95921460cefb38474024989060200161171e565b606061218a826126ed565b6000612194613868565b905060008151116121b45760405180602001604052806000815250610e60565b806121be84613878565b6040516020016121cf929190614e90565b6040516020818303038152906040529392505050565b610134546001600160a01b03166121fa6128b2565b6001600160a01b0316146122205760405162461bcd60e51b8152600401610a7590615090565b611843848484848080601f016020809104026020016040519081016040528093929190818152602001838380828437600092018290525060408051602081019091529081529250613771915050565b8061227b610e736128b2565b6122975760405162461bcd60e51b8152600401610a7590614ff5565b81303314156122cb576122a861274c565b81146122c65760405162461bcd60e51b8152600401610a75906150d7565b6122d4565b6122d481612761565b610f5f8787878787613474565b7f8bea9a6f8afd34f4e29c585f854e0cc5161431bf5fc299d468454d33dce53b87546001600160a01b03166123146128b2565b6001600160a01b03161461233a5760405162461bcd60e51b8152600401610a7590615159565b602081141561235d57600061235182840184614cc3565b905061184384826128c1565b600061236b828401846149a9565b805190915060005b81811015611344576123ac8684838151811061239f57634e487b7160e01b600052603260045260246000fd5b60200260200101516128c1565b806123b68161533b565b915050612373565b610134546001600160a01b03166123d36128b2565b6001600160a01b0316146123f95760405162461bcd60e51b8152600401610a7590615090565b611843848484848080601f01602080910402602001604051908101604052809392919081815260200183838082843760009201919091525061372592505050565b80612446610e736128b2565b6124625760405162461bcd60e51b8152600401610a7590614ff5565b81303314156124965761247361274c565b81146124915760405162461bcd60e51b8152600401610a75906150d7565b61249f565b61249f81612761565b610f5f8787878787613991565b610134546001600160a01b03166124c16128b2565b6001600160a01b0316146124e75760405162461bcd60e51b8152600401610a7590615090565b61252e8a8a8a8a8a8a8a8a8a8a8080601f0160208091040260200160405190810160405280939291908181526020018383808284376000920191909152506130e792505050565b50505050505050505050565b60006125446128b2565b6001600160a01b038116600090815261013560205260409020549091506125b75760405162461bcd60e51b815260206004820152602160248201527f52656769737472793a20524556455253455f5245434f52445f49535f454d50546044820152605960f81b6064820152608401610a75565b610fe1816139a7565b6060816001600160401b038111156125e857634e487b7160e01b600052604160045260246000fd5b60405190808252806020026020018201604052801561261b57816020015b60608152602001906001900390816126065790505b50905060005b828110156126965761265884848381811061264c57634e487b7160e01b600052603260045260246000fd5b90506020020135611f63565b82828151811061267857634e487b7160e01b600052603260045260246000fd5b6020026020010181905250808061268e9061533b565b915050612621565b5092915050565b60006001600160e01b031982166380ac58cd60e01b14806126ce57506001600160e01b03198216635b5e139f60e01b145b8061098757506301ffc9a760e01b6001600160e01b0319831614610987565b6000818152606760205260409020546001600160a01b0316610fe15760405162461bcd60e51b8152602060048201526018602482015277115490cdcc8c4e881a5b9d985b1a59081d1bdad95b88125160421b6044820152606401610a75565b60003033141561275e5750601f193601355b90565b6000818152610100602052604090205461277c90600161520f565b6000918252610100602052604090912055565b600061279a826113fe565b9050806001600160a01b0316836001600160a01b031614156128085760405162461bcd60e51b815260206004820152602160248201527f4552433732313a20617070726f76616c20746f2063757272656e74206f776e656044820152603960f91b6064820152608401610a75565b806001600160a01b031661281a6128b2565b6001600160a01b031614806128365750612836816108e26128b2565b6128a85760405162461bcd60e51b815260206004820152603e60248201527f4552433732313a20617070726f76652063616c6c6572206973206e6f7420746f60448201527f6b656e206f776e6572206e6f7220617070726f76656420666f7220616c6c00006064820152608401610a75565b610a9683836139ec565b60006128bc613a5a565b905090565b6001600160a01b0382166129175760405162461bcd60e51b815260206004820181905260248201527f4552433732313a206d696e7420746f20746865207a65726f20616464726573736044820152606401610a75565b6000818152606760205260409020546001600160a01b03161561297c5760405162461bcd60e51b815260206004820152601c60248201527f4552433732313a20746f6b656e20616c7265616479206d696e746564000000006044820152606401610a75565b61298860008383613a76565b6001600160a01b03821660009081526068602052604081208054600192906129b190849061520f565b909155505060008181526067602052604080822080546001600160a01b0319166001600160a01b03861690811790915590518392907fddf252ad1be2c89b69c2b068fc378daa952ba7f163c4a11628f55a4df523b3ef908290a45050565b6000612a19612fd4565b9050612a2581836139ec565b6000805160206153d883398151915254604080516020808201869052825180830390910181528183019283905263e3dec8fb60e01b9092526001600160a01b0390921691829163e3dec8fb91612a82918891309190604401614ebf565b600060405180830381600087803b158015612a9c57600080fd5b505af1158015611257573d6000803e3d6000fd5b6060610e6083604051602001612ac69190614e25565b6040516020818303038152906040528051906020012060001c83613b13565b6060612af085612761565b600080876001600160a01b031686612b0a8b8a8989613bf5565b604051612b179190614e25565b60006040518083038160008787f1925050503d8060008114612b55576040519150601f19603f3d011682016040523d82523d6000602084013e612b5a565b606091505b509092509050612b6b603f87615227565b5a11612b8757634e487b7160e01b600052600160045260246000fd5b612bc782826040518060400160405280601a81526020017f42617365466f727761726465723a2043414c4c5f4641494c4544000000000000815250613c25565b9998505050505050505050565b600080612be0836113fe565b9050806001600160a01b0316846001600160a01b03161480612c2757506001600160a01b038082166000908152606a602090815260408083209388168352929052205460ff165b80610d545750836001600160a01b0316612c4084610a1f565b6001600160a01b031614949350505050565b612c5b81613c5e565b604051602001612c6d91815260200190565b60408051601f198184030181528282528051602091820120600085815260cb9092529181209190915582917f185c30856dadb58bf097c1f665a52ada7029752dbcad008ea3fefc73bee8c9fe9190a250565b826001600160a01b0316612cd2826113fe565b6001600160a01b031614612d365760405162461bcd60e51b815260206004820152602560248201527f4552433732313a207472616e736665722066726f6d20696e636f72726563742060448201526437bbb732b960d91b6064820152608401610a75565b6001600160a01b038216612d985760405162461bcd60e51b8152602060048201526024808201527f4552433732313a207472616e7366657220746f20746865207a65726f206164646044820152637265737360e01b6064820152608401610a75565b612da3838383613a76565b612dae6000826139ec565b6001600160a01b0383166000908152606860205260408120805460019290612dd790849061523b565b90915550506001600160a01b0382166000908152606860205260408120805460019290612e0590849061520f565b909155505060008181526067602052604080822080546001600160a01b0319166001600160a01b0386811691821790925591518493918716917fddf252ad1be2c89b69c2b068fc378daa952ba7f163c4a11628f55a4df523b3ef91a4505050565b60005b8481101561134457612ed3868683818110612e9457634e487b7160e01b600052603260045260246000fd5b90506020020135858584818110612ebb57634e487b7160e01b600052603260045260246000fd5b9050602002810190612ecd919061519b565b85613221565b80612edd8161533b565b915050612e69565b6000612ef0826113fe565b9050612efe81600084613a76565b612f096000836139ec565b6001600160a01b0381166000908152606860205260408120805460019290612f3290849061523b565b909155505060008281526067602052604080822080546001600160a01b0319169055518391906001600160a01b038416907fddf252ad1be2c89b69c2b068fc378daa952ba7f163c4a11628f55a4df523b3ef908390a45050565b6001600160a01b03821660008181526101356020526040808220849055518392917feb76a21470988c474a21f690cc28fee1ed511bd812dc3c21fd0f49c5e5d4708a91a35050565b6000806000805160206153d88339815191525460405163721804d360e11b81523060048201526001600160a01b039091169150600090829063e43009a69060240160206040518083038186803b15801561302d57600080fd5b505afa158015613041573d6000803e3d6000fd5b505050506040513d601f19601f820116820180604052508101906130659190614a6a565b60405163e66f960360e01b8152600481018290529091506001600160a01b0383169063e66f96039060240160206040518083038186803b1580156130a857600080fd5b505afa1580156130bc573d6000803e3d6000fd5b505050506040513d601f19601f820116820180604052508101906130e0919061442f565b9250505090565b61312a898989898080601f016020809104026020016040519081016040528093929190818152602001838380828437600092019190915250879250613771915050565b613137858585858c613474565b505050505050505050565b60008585604051602001613157929190614e80565b60408051601f198184030181528282528051602091820120601f89018290048202840182019092528783529092506131ab91839189908990819084018382808284376000920191909152506132c192505050565b6113448187878080601f01602080910402602001604051908101604052809392919081815260200183838082843760009201919091525050604080516020601f8b018190048102820181019092528981529250899150889081908401838280828437600092019190915250889250613c8a915050565b61322a84613dc5565b6132765760405162461bcd60e51b815260206004820152601c60248201527f5265636f726453746f726167653a204b45595f4e4f545f464f554e44000000006044820152606401610a75565b6118438461328386611f63565b85858080601f016020809104026020016040519081016040528093929190818152602001838380828437600092019190915250879250613c8a915050565b6132ca82613dc5565b61115a57600082815260c9602090815260409091208251610a9692840190614273565b6060806132f984611f63565b91506133058484613b13565b90509250929050565b600081516000141561335a5760405162461bcd60e51b815260206004820152601560248201527452656769737472793a204c4142454c5f454d50545960581b6044820152606401610a75565b828260405160200161336c9190614e25565b6040516020818303038152906040528051906020012060405160200161339c929190918252602082015260400190565b60408051601f1981840301815291905280516020909101209392505050565b6000818152610137602052604081205460ff168015610987575061013660006133e26128b2565b6001600160a01b0316815260208101919091526040016000205460ff1692915050565b6000805160206153d883398151915254604051633805550f60e01b81526001600160a01b03909116908190633805550f906134469086908690600401614fa9565b600060405180830381600087803b15801561346057600080fd5b505af1158015610f5f573d6000803e3d6000fd5b60005b84811015611344576134ec8686838181106134a257634e487b7160e01b600052603260045260246000fd5b90506020028101906134b4919061519b565b8686858181106134d457634e487b7160e01b600052603260045260246000fd5b90506020028101906134e6919061519b565b86613142565b806134f68161533b565b915050613477565b816001600160a01b0316836001600160a01b031614156135605760405162461bcd60e51b815260206004820152601960248201527f4552433732313a20617070726f766520746f2063616c6c6572000000000000006044820152606401610a75565b6001600160a01b038381166000818152606a6020908152604080832094871680845294825291829020805460ff191686151590811790915591519182527f17307eab39ab6107e8899845ad3d59bd9653f200f220920489ca2b5937696c31910160405180910390a3505050565b6040838101519051636ccbae5f60e01b8152600481019190915260009081903090636ccbae5f9060240160206040518083038186803b15801561360f57600080fd5b505afa158015613623573d6000803e3d6000fd5b505050506040513d601f19601f820116820180604052508101906136479190614a6a565b905060006136f58660600151805190602001208688602001516040516020016136959392919092835260609190911b6bffffffffffffffffffffffff19166020830152603482015260540190565b60408051601f1981840301815282825280516020918201207f19457468657265756d205369676e6564204d6573736167653a0a33320000000084830152603c8085019190915282518085039091018152605c909301909152815191012090565b905081866020015114801561371b5750855161371b906001600160a01b03168286613deb565b9695505050505050565b61372f83836128c1565b817fc5beef08f693b11c316c0c8394a377a0033c9cf701b8cd8afd79cecef60c39528260405161375f9190614fbd565b60405180910390a2610a968383613f3b565b61377c848483613f7c565b827fc5beef08f693b11c316c0c8394a377a0033c9cf701b8cd8afd79cecef60c3952836040516137ac9190614fbd565b60405180910390a26118438484613f3b565b6137c9848484612cbf565b6137d584848484613faf565b6118435760405162461bcd60e51b8152600401610a759061503e565b600054610100900460ff166138185760405162461bcd60e51b8152600401610a759061510e565b815161382b906065906020850190614273565b508051610a96906066906020840190614273565b600054610100900460ff166138665760405162461bcd60e51b8152600401610a759061510e565b565b6060610133805461099c90615306565b60608161389c5750506040805180820190915260018152600360fc1b602082015290565b8160005b81156138c657806138b08161533b565b91506138bf9050600a83615227565b91506138a0565b6000816001600160401b038111156138ee57634e487b7160e01b600052604160045260246000fd5b6040519080825280601f01601f191660200182016040528015613918576020820181803683370190505b5090505b8415610d545761392d60018361523b565b915061393a600a86615356565b61394590603061520f565b60f81b81838151811061396857634e487b7160e01b600052603260045260246000fd5b60200101906001600160f81b031916908160001a90535061398a600a86615227565b945061391c565b61399a81612c52565b610ee68585858585613474565b6001600160a01b03811660008181526101356020526040808220829055517ffcf5eec0cfa3e6332f5f0e63ec242d71f866a61d121d6cdf5c2eb3b668a26c4f9190a250565b600081815260696020526040902080546001600160a01b0319166001600160a01b0384169081179091558190613a21826113fe565b6001600160a01b03167f8c5be1e5ebec7d5bd14f71427d1e84f3dd0314c0f7b2291e5b200ac8c7c3b92560405160405180910390a45050565b600030331415613a71575060331936013560601c90565b503390565b6000818152610137602052604090205460ff161580613a9d57506001600160a01b03821615155b613ae95760405162461bcd60e51b815260206004820152601860248201527f52656769737472793a20544f4b454e5f555047524144454400000000000000006044820152606401610a75565b6001600160a01b03831660009081526101356020526040902054811415610a9657610a96836139a7565b6060613b1e826133bb565b15613b385750604080516020810190915260008152610987565b60ca6000613b4584613c5e565b815260200190815260200160002060008481526020019081526020016000208054613b6f90615306565b80601f0160208091040260200160405190810160405280929190818152602001828054613b9b90615306565b8015613be85780601f10613bbd57610100808354040283529160200191613be8565b820191906000526020600020905b815481529060010190602001808311613bcb57829003601f168201915b5050505050905092915050565b6060828585604051602001613c0c93929190614e41565b6040516020818303038152906040529050949350505050565b60608315613c34575081610e60565b825115613c445782518084602001fd5b8160405162461bcd60e51b8152600401610a759190614fbd565b600081815260cb602052604081205415613c8657600082815260cb6020526040902054610987565b5090565b60ca6000613c9783613c5e565b815260200190815260200160002060008581526020019081526020016000208054613cc190615306565b15159050613d185782604051613cd79190614e25565b6040518091039020817f7ae4f661958fbecc2f77be6b0eb280d2a6f604b29e1e7221c82b9da0c4af7f8685604051613d0f9190614fbd565b60405180910390a35b8160ca6000613d2684613c5e565b815260200190815260200160002060008681526020019081526020016000209080519060200190613d58929190614273565b5081604051613d679190614e25565b604051809103902083604051613d7d9190614e25565b6040518091039020827f851ffe8e74d5015261dba0a1f9e1b0e5d42c5af5d2ad1908fee897c7d80a0d928686604051613db7929190614fd0565b60405180910390a450505050565b600081815260c9602052604081208054829190613de190615306565b9050119050919050565b6000806000613dfa85856140c0565b90925090506000816004811115613e2157634e487b7160e01b600052602160045260246000fd5b148015613e3f5750856001600160a01b0316826001600160a01b0316145b15613e4f57600192505050610e60565b600080876001600160a01b0316631626ba7e60e01b8888604051602401613e77929190614f90565b60408051601f198184030181529181526020820180516001600160e01b03166001600160e01b0319909416939093179092529051613eb59190614e25565b600060405180830381855afa9150503d8060008114613ef0576040519150601f19603f3d011682016040523d82523d6000602084013e613ef5565b606091505b5091509150818015613f08575080516020145b8015613f2f57508051630b135d3f60e11b90613f2d9083016020908101908401614a6a565b145b98975050505050505050565b61dead6001600160a01b03831614801590613f6d57506001600160a01b03821660009081526101356020526040902054155b1561115a5761115a8282612f8c565b613f8683836128c1565b613f936000848484613faf565b610a965760405162461bcd60e51b8152600401610a759061503e565b60006001600160a01b0384163b156140b857836001600160a01b031663150b7a02613fd86128b2565b8786866040518563ffffffff1660e01b8152600401613ffa9493929190614eeb565b602060405180830381600087803b15801561401457600080fd5b505af1925050508015614044575060408051601f3d908101601f1916820190925261404191810190614a9e565b60015b61409e573d808015614072576040519150601f19603f3d011682016040523d82523d6000602084013e614077565b606091505b5080516140965760405162461bcd60e51b8152600401610a759061503e565b805181602001fd5b6001600160e01b031916630a85bd0160e11b149050610d54565b506001610d54565b6000808251604114156140f75760208301516040840151606085015160001a6140eb87828585614106565b945094505050506140ff565b506000905060025b9250929050565b6000807f7fffffffffffffffffffffffffffffff5d576e7357a4501ddfe92f46681b20a083111561413d57506000905060036141ea565b8460ff16601b1415801561415557508460ff16601c14155b1561416657506000905060046141ea565b6040805160008082526020820180845289905260ff881692820192909252606081018690526080810185905260019060a0016020604051602081039080840390855afa1580156141ba573d6000803e3d6000fd5b5050604051601f1901519150506001600160a01b0381166141e3576000600192509250506141ea565b9150600090505b94509492505050565b8280546141ff90615306565b90600052602060002090601f0160209004810192826142215760008555614267565b82601f1061423a5782800160ff19823516178555614267565b82800160010185558215614267579182015b8281111561426757823582559160200191906001019061424c565b50613c869291506142e7565b82805461427f90615306565b90600052602060002090601f0160209004810192826142a15760008555614267565b82601f106142ba57805160ff1916838001178555614267565b82800160010185558215614267579182015b828111156142675782518255916020019190600101906142cc565b5b80821115613c8657600081556001016142e8565b60006001600160401b0383111561431557614315615396565b614328601f8401601f19166020016151df565b905082815283838301111561433c57600080fd5b828260208301376000602084830101529392505050565b803561435e816153ac565b919050565b60008083601f840112614374578182fd5b5081356001600160401b0381111561438a578182fd5b6020830191508360208260051b85010111156140ff57600080fd5b8035801515811461435e57600080fd5b60008083601f8401126143c6578182fd5b5081356001600160401b038111156143dc578182fd5b6020830191508360208285010111156140ff57600080fd5b600082601f830112614404578081fd5b610e60838335602085016142fc565b600060208284031215614424578081fd5b8135610e60816153ac565b600060208284031215614440578081fd5b8151610e60816153ac565b6000806040838503121561445d578081fd5b8235614468816153ac565b91506020830135614478816153ac565b809150509250929050565b600080600060608486031215614497578081fd5b83356144a2816153ac565b925060208401356144b2816153ac565b929592945050506040919091013590565b6000806000806000608086880312156144da578081fd5b85356144e5816153ac565b945060208601356144f5816153ac565b93506040860135925060608601356001600160401b03811115614516578182fd5b614522888289016143b5565b969995985093965092949392505050565b60008060008060808587031215614548578182fd5b8435614553816153ac565b93506020850135614563816153ac565b92506040850135915060608501356001600160401b03811115614584578182fd5b614590878288016143f4565b91505092959194509250565b600080604083850312156145ae578182fd5b82356145b9816153ac565b9150613305602084016143a5565b6000806000604084860312156145db578081fd5b83356145e6816153ac565b925060208401356001600160401b03811115614600578182fd5b61460c868287016143b5565b9497909650939450505050565b6000806040838503121561462b578182fd5b8235614636816153ac565b946020939093013593505050565b60008060008060608587031215614659578182fd5b8435614664816153ac565b93506020850135925060408501356001600160401b03811115614685578283fd5b614691878288016143b5565b95989497509550505050565b60008060008060008060008060a0898b0312156146b8578586fd5b88356146c3816153ac565b97506020890135965060408901356001600160401b03808211156146e5578788fd5b6146f18c838d016143b5565b909850965060608b0135915080821115614709578485fd5b6147158c838d01614363565b909650945060808b013591508082111561472d578384fd5b5061473a8b828c01614363565b999c989b5096995094979396929594505050565b60008060008060008060008060008060c08b8d03121561476c578384fd5b6147758b614353565b995060208b0135985060408b01356001600160401b0380821115614797578586fd5b6147a38e838f016143b5565b909a50985060608d01359150808211156147bb578586fd5b6147c78e838f01614363565b909850965060808d01359150808211156147df578586fd5b6147eb8e838f01614363565b909650945060a08d0135915080821115614803578384fd5b506148108d828e016143b5565b915080935050809150509295989b9194979a5092959850565b60008060008060008060808789031215614841578384fd5b863561484c816153ac565b95506020870135945060408701356001600160401b038082111561486e578586fd5b61487a8a838b016143b5565b90965094506060890135915080821115614892578384fd5b5061489f89828a016143b5565b979a9699509497509295939492505050565b6000806000806000606086880312156148c8578283fd5b85356001600160401b03808211156148de578485fd5b6148ea89838a01614363565b90975095506020880135915080821115614902578485fd5b5061490f88828901614363565b96999598509660400135949350505050565b600080600060408486031215614935578081fd5b83356001600160401b0381111561494a578182fd5b61495686828701614363565b909790965060209590950135949350505050565b6000806020838503121561497c578182fd5b82356001600160401b03811115614991578283fd5b61499d85828601614363565b90969095509350505050565b600060208083850312156149bb578182fd5b82356001600160401b03808211156149d1578384fd5b818501915085601f8301126149e4578384fd5b8135818111156149f6576149f6615396565b8060051b9150614a078483016151df565b8181528481019084860184860187018a1015614a21578788fd5b8795505b83861015614a43578035835260019590950194918601918601614a25565b5098975050505050505050565b600060208284031215614a61578081fd5b610e60826143a5565b600060208284031215614a7b578081fd5b5051919050565b600060208284031215614a93578081fd5b8135610e60816153c1565b600060208284031215614aaf578081fd5b8151610e60816153c1565b60008060008060008060006080888a031215614ad4578081fd5b87356001600160401b0380821115614aea578283fd5b614af68b838c016143b5565b909950975060208a0135965060408a0135915080821115614b15578283fd5b614b218b838c01614363565b909650945060608a0135915080821115614b39578283fd5b50614b468a828b01614363565b989b979a50959850939692959293505050565b60008060208385031215614b6b578182fd5b82356001600160401b03811115614b80578283fd5b61499d858286016143b5565b600080600080600060608688031215614ba3578283fd5b85356001600160401b0380821115614bb9578485fd5b614bc589838a016143b5565b90975095506020880135915080821115614bdd578485fd5b5061490f888289016143b5565b600080600060408486031215614bfe578081fd5b83356001600160401b03811115614c13578182fd5b614956868287016143b5565b600060208284031215614c30578081fd5b81356001600160401b03811115614c45578182fd5b8201601f81018413614c55578182fd5b610d54848235602084016142fc565b600080600060408486031215614c78578081fd5b83356001600160401b0380821115614c8e578283fd5b9085019060808288031215614ca1578283fd5b90935060208501359080821115614cb6578283fd5b5061460c868287016143b5565b600060208284031215614cd4578081fd5b5035919050565b600080600060408486031215614cef578081fd5b8335925060208401356001600160401b03811115614600578182fd5b60008060008060608587031215614d20578182fd5b8435935060208501356001600160401b03811115614d3c578283fd5b614d48878288016143b5565b9598909750949560400135949350505050565b60008060408385031215614d6d578182fd5b50508035926020909101359150565b600081518084526020808501808196508360051b81019150828601855b85811015614dc3578284038952614db1848351614df9565b98850198935090840190600101614d99565b5091979650505050505050565b81835281816020850137506000828201602090810191909152601f909101601f19169091010190565b60008151808452614e118160208601602086016152da565b601f01601f19169290920160200192915050565b60008251614e378184602087016152da565b9190910192915050565b60008451614e538184602089016152da565b60609490941b6bffffffffffffffffffffffff191691909301908152601481019190915260340192915050565b8183823760009101908152919050565b60008351614ea28184602088016152da565b835190830190614eb68183602088016152da565b01949350505050565b6001600160a01b03848116825283166020820152606060408201819052600090610be890830184614df9565b6001600160a01b038581168252841660208201526040810183905260806060820181905260009061371b90830184614df9565b602081526000610e606020830184614d7c565b604081526000614f446040830185614d7c565b8281036020840152610e5c8185614d7c565b6020808252810182905260006001600160fb1b03831115614f75578081fd5b8260051b808560408501379190910160400190815292915050565b828152604060208201526000610d546040830184614df9565b602081526000610d54602083018486614dd0565b602081526000610e606020830184614df9565b604081526000614fe36040830185614df9565b8281036020840152610e5c8185614df9565b60208082526029908201527f52656769737472793a2053454e4445525f49535f4e4f545f415050524f5645446040820152682fa7a92fa7aba722a960b91b606082015260800190565b60208082526032908201527f4552433732313a207472616e7366657220746f206e6f6e20455243373231526560408201527131b2b4bb32b91034b6b83632b6b2b73a32b960711b606082015260800190565b60208082526027908201527f52656769737472793a2053454e4445525f49535f4e4f545f4d494e54494e475f60408201526626a0a720a3a2a960c91b606082015260800190565b60208082526017908201527f52656769737472793a20544f4b454e5f494e56414c4944000000000000000000604082015260600190565b6020808252602b908201527f496e697469616c697a61626c653a20636f6e7472616374206973206e6f74206960408201526a6e697469616c697a696e6760a81b606082015260800190565b60208082526022908201527f52656769737472793a20494e53554646494349454e545f5045524d495353494f6040820152614e5360f01b606082015260800190565b6000808335601e198436030181126151b1578283fd5b8301803591506001600160401b038211156151ca578283fd5b6020019150368190038213156140ff57600080fd5b604051601f8201601f191681016001600160401b038111828210171561520757615207615396565b604052919050565b600082198211156152225761522261536a565b500190565b60008261523657615236615380565b500490565b60008282101561524d5761524d61536a565b500390565b600060808236031215615263578081fd5b604051608081016001600160401b03828210818311171561528657615286615396565b8160405284359150615297826153ac565b818352602085013560208401526040850135604084015260608501359150808211156152c1578384fd5b506152ce368286016143f4565b60608301525092915050565b60005b838110156152f55781810151838201526020016152dd565b838111156118435750506000910152565b600181811c9082168061531a57607f821691505b6020821081141561175557634e487b7160e01b600052602260045260246000fd5b600060001982141561534f5761534f61536a565b5060010190565b60008261536557615365615380565b500690565b634e487b7160e01b600052601160045260246000fd5b634e487b7160e01b600052601260045260246000fd5b634e487b7160e01b600052604160045260246000fd5b6001600160a01b0381168114610fe157600080fd5b6001600160e01b031981168114610fe157600080fdfebe2bb46ac0377341a1ec5c3116d70fd5029d704bd46292e58f6265dd177ebafea164736f6c6343000804000a",
  "linkReferences": {},
  "deployedLinkReferences": {}
}