{
  "_format": "hh-sol-artifact-1",
  "contractName": "UNSRegistry",
  "sourceName": "contracts/UNSRegistry.sol",
  "abi": [
    {
      "anonymous": false,
      "inputs": [
        {
          "indexed": false,
          "internalType": "address",
          "name": "previousAdmin",
          "type": "address"
        },
        {
          "indexed": false,
          "internalType": "address",
          "name": "newAdmin",
          "type": "address"
        }
      ],
      "name": "AdminChanged",
      "type": "event"
    },
    {
      "anonymous": false,
      "inputs": [
        {
          "indexed": true,
          "internalType": "address",
          "name": "owner",
          "type": "address"
        },
        {
          "indexed": true,
          "internalType": "address",
          "name": "approved",
          "type": "address"
        },
        {
          "indexed": true,
          "internalType": "uint256",
          "name": "tokenId",
          "type": "uint256"
        }
      ],
      "name": "Approval",
      "type": "event"
    },
    {
      "anonymous": false,
      "inputs": [
        {
          "indexed": true,
          "internalType": "address",
          "name": "owner",
          "type": "address"
        },
        {
          "indexed": true,
          "internalType": "address",
          "name": "operator",
          "type": "address"
        },
        {
          "indexed": false,
          "internalType": "bool",
          "name": "approved",
          "type": "bool"
        }
      ],
      "name": "ApprovalForAll",
      "type": "event"
    },
    {
      "anonymous": false,
      "inputs": [
        {
          "indexed": true,
          "internalType": "uint256",
          "name": "tokenId",
          "type": "uint256"
        },
        {
          "indexed": true,
          "internalType": "string",
          "name": "keyIndex",
          "type": "string"
        },
        {
          "indexed": false,
          "internalType": "string",
          "name": "key",
          "type": "string"
        }
      ],
      "name": "NewKey",
      "type": "event"
    },
    {
      "anonymous": false,
      "inputs": [
        {
          "indexed": true,
          "internalType": "uint256",
          "name": "tokenId",
          "type": "uint256"
        },
        {
          "indexed": false,
          "internalType": "string",
          "name": "uri",
          "type": "string"
        }
      ],
      "name": "NewURI",
      "type": "event"
    },
    {
      "anonymous": false,
      "inputs": [
        {
          "indexed": false,
          "internalType": "string",
          "name": "prefix",
          "type": "string"
        }
      ],
      "name": "NewURIPrefix",
      "type": "event"
    },
    {
      "anonymous": false,
      "inputs": [
        {
          "indexed": true,
          "internalType": "uint256",
          "name": "tokenId",
          "type": "uint256"
        }
      ],
      "name": "ResetRecords",
      "type": "event"
    },
    {
      "anonymous": false,
      "inputs": [
        {
          "indexed": true,
          "internalType": "uint256",
          "name": "tokenId",
          "type": "uint256"
        },
        {
          "indexed": true,
          "internalType": "string",
          "name": "keyIndex",
          "type": "string"
        },
        {
          "indexed": true,
          "internalType": "string",
          "name": "valueIndex",
          "type": "string"
        },
        {
          "indexed": false,
          "internalType": "string",
          "name": "key",
          "type": "string"
        },
        {
          "indexed": false,
          "internalType": "string",
          "name": "value",
          "type": "string"
        }
      ],
      "name": "Set",
      "type": "event"
    },
    {
      "anonymous": false,
      "inputs": [
        {
          "indexed": true,
          "internalType": "address",
          "name": "from",
          "type": "address"
        },
        {
          "indexed": true,
          "internalType": "address",
          "name": "to",
          "type": "address"
        },
        {
          "indexed": true,
          "internalType": "uint256",
          "name": "tokenId",
          "type": "uint256"
        }
      ],
      "name": "Transfer",
      "type": "event"
    },
    {
      "anonymous": false,
      "inputs": [
        {
          "indexed": true,
          "internalType": "address",
          "name": "implementation",
          "type": "address"
        }
      ],
      "name": "Upgraded",
      "type": "event"
    },
    {
      "inputs": [],
      "name": "NAME",
      "outputs": [
        {
          "internalType": "string",
          "name": "",
          "type": "string"
        }
      ],
      "stateMutability": "view",
      "type": "function"
    },
    {
      "inputs": [],
      "name": "VERSION",
      "outputs": [
        {
          "internalType": "string",
          "name": "",
          "type": "string"
        }
      ],
      "stateMutability": "view",
      "type": "function"
    },
    {
      "inputs": [
        {
          "internalType": "string",
          "name": "key",
          "type": "string"
        }
      ],
      "name": "addKey",
      "outputs": [],
      "stateMutability": "nonpayable",
      "type": "function"
    },
    {
      "inputs": [
        {
          "internalType": "address",
          "name": "to",
          "type": "address"
        },
        {
          "internalType": "uint256",
          "name": "tokenId",
          "type": "uint256"
        }
      ],
      "name": "approve",
      "outputs": [],
      "stateMutability": "nonpayable",
      "type": "function"
    },
    {
      "inputs": [
        {
          "internalType": "address",
          "name": "owner",
          "type": "address"
        }
      ],
      "name": "balanceOf",
      "outputs": [
        {
          "internalType": "uint256",
          "name": "",
          "type": "uint256"
        }
      ],
      "stateMutability": "view",
      "type": "function"
    },
    {
      "inputs": [
        {
          "internalType": "uint256",
          "name": "tokenId",
          "type": "uint256"
        }
      ],
      "name": "burn",
      "outputs": [],
      "stateMutability": "nonpayable",
      "type": "function"
    },
    {
      "inputs": [
        {
          "internalType": "uint256",
          "name": "tokenId",
          "type": "uint256"
        },
        {
          "internalType": "bytes",
          "name": "signature",
          "type": "bytes"
        }
      ],
      "name": "burnFor",
      "outputs": [],
      "stateMutability": "nonpayable",
      "type": "function"
    },
    {
      "inputs": [
        {
          "internalType": "uint256",
          "name": "tokenId",
          "type": "uint256"
        },
        {
          "internalType": "string",
          "name": "label",
          "type": "string"
        }
      ],
      "name": "childIdOf",
      "outputs": [
        {
          "internalType": "uint256",
          "name": "",
          "type": "uint256"
        }
      ],
      "stateMutability": "pure",
      "type": "function"
    },
    {
      "inputs": [
        {
          "internalType": "uint256",
          "name": "tokenId",
          "type": "uint256"
        }
      ],
      "name": "depositToPolygon",
      "outputs": [],
      "stateMutability": "nonpayable",
      "type": "function"
    },
    {
      "inputs": [
        {
          "components": [
            {
              "internalType": "address",
              "name": "from",
              "type": "address"
            },
            {
              "internalType": "uint256",
              "name": "nonce",
              "type": "uint256"
            },
            {
              "internalType": "uint256",
              "name": "tokenId",
              "type": "uint256"
            },
            {
              "internalType": "bytes",
              "name": "data",
              "type": "bytes"
            }
          ],
          "internalType": "struct IForwarder.ForwardRequest",
          "name": "req",
          "type": "tuple"
        },
        {
          "internalType": "bytes",
          "name": "signature",
          "type": "bytes"
        }
      ],
      "name": "execute",
      "outputs": [
        {
          "internalType": "bytes",
          "name": "",
          "type": "bytes"
        }
      ],
      "stateMutability": "nonpayable",
      "type": "function"
    },
    {
      "inputs": [
        {
          "internalType": "uint256",
          "name": "tokenId",
          "type": "uint256"
        }
      ],
      "name": "exists",
      "outputs": [
        {
          "internalType": "bool",
          "name": "",
          "type": "bool"
        }
      ],
      "stateMutability": "view",
      "type": "function"
    },
    {
      "inputs": [
        {
          "internalType": "string",
          "name": "key",
          "type": "string"
        },
        {
          "internalType": "uint256",
          "name": "tokenId",
          "type": "uint256"
        }
      ],
      "name": "get",
      "outputs": [
        {
          "internalType": "string",
          "name": "value",
          "type": "string"
        }
      ],
      "stateMutability": "view",
      "type": "function"
    },
    {
      "inputs": [
        {
          "internalType": "uint256",
          "name": "tokenId",
          "type": "uint256"
        }
      ],
      "name": "getApproved",
      "outputs": [
        {
          "internalType": "address",
          "name": "",
          "type": "address"
        }
      ],
      "stateMutability": "view",
      "type": "function"
    },
    {
      "inputs": [
        {
          "internalType": "uint256",
          "name": "keyHash",
          "type": "uint256"
        },
        {
          "internalType": "uint256",
          "name": "tokenId",
          "type": "uint256"
        }
      ],
      "name": "getByHash",
      "outputs": [
        {
          "internalType": "string",
          "name": "key",
          "type": "string"
        },
        {
          "internalType": "string",
          "name": "value",
          "type": "string"
        }
      ],
      "stateMutability": "view",
      "type": "function"
    },
    {
      "inputs": [
        {
          "internalType": "uint256",
          "name": "keyHash",
          "type": "uint256"
        }
      ],
      "name": "getKey",
      "outputs": [
        {
          "internalType": "string",
          "name": "",
          "type": "string"
        }
      ],
      "stateMutability": "view",
      "type": "function"
    },
    {
      "inputs": [
        {
          "internalType": "uint256[]",
          "name": "hashes",
          "type": "uint256[]"
        }
      ],
      "name": "getKeys",
      "outputs": [
        {
          "internalType": "string[]",
          "name": "values",
          "type": "string[]"
        }
      ],
      "stateMutability": "view",
      "type": "function"
    },
    {
      "inputs": [
        {
          "internalType": "string[]",
          "name": "keys",
          "type": "string[]"
        },
        {
          "internalType": "uint256",
          "name": "tokenId",
          "type": "uint256"
        }
      ],
      "name": "getMany",
      "outputs": [
        {
          "internalType": "string[]",
          "name": "values",
          "type": "string[]"
        }
      ],
      "stateMutability": "view",
      "type": "function"
    },
    {
      "inputs": [
        {
          "internalType": "uint256[]",
          "name": "keyHashes",
          "type": "uint256[]"
        },
        {
          "internalType": "uint256",
          "name": "tokenId",
          "type": "uint256"
        }
      ],
      "name": "getManyByHash",
      "outputs": [
        {
          "internalType": "string[]",
          "name": "keys",
          "type": "string[]"
        },
        {
          "internalType": "string[]",
          "name": "values",
          "type": "string[]"
        }
      ],
      "stateMutability": "view",
      "type": "function"
    },
    {
      "inputs": [
        {
          "internalType": "address",
          "name": "mintingManager",
          "type": "address"
        }
      ],
      "name": "initialize",
      "outputs": [],
      "stateMutability": "nonpayable",
      "type": "function"
    },
    {
      "inputs": [
        {
          "internalType": "address",
          "name": "owner",
          "type": "address"
        },
        {
          "internalType": "address",
          "name": "operator",
          "type": "address"
        }
      ],
      "name": "isApprovedForAll",
      "outputs": [
        {
          "internalType": "bool",
          "name": "",
          "type": "bool"
        }
      ],
      "stateMutability": "view",
      "type": "function"
    },
    {
      "inputs": [
        {
          "internalType": "address",
          "name": "spender",
          "type": "address"
        },
        {
          "internalType": "uint256",
          "name": "tokenId",
          "type": "uint256"
        }
      ],
      "name": "isApprovedOrOwner",
      "outputs": [
        {
          "internalType": "bool",
          "name": "",
          "type": "bool"
        }
      ],
      "stateMutability": "view",
      "type": "function"
    },
    {
      "inputs": [
        {
          "internalType": "address",
          "name": "forwarder",
          "type": "address"
        }
      ],
      "name": "isTrustedForwarder",
      "outputs": [
        {
          "internalType": "bool",
          "name": "",
          "type": "bool"
        }
      ],
      "stateMutability": "view",
      "type": "function"
    },
    {
      "inputs": [
        {
          "internalType": "address",
          "name": "to",
          "type": "address"
        },
        {
          "internalType": "uint256",
          "name": "tokenId",
          "type": "uint256"
        },
        {
          "internalType": "string",
          "name": "uri",
          "type": "string"
        }
      ],
      "name": "mint",
      "outputs": [],
      "stateMutability": "nonpayable",
      "type": "function"
    },
    {
      "inputs": [
        {
          "internalType": "address",
          "name": "to",
          "type": "address"
        },
        {
          "internalType": "uint256",
          "name": "tokenId",
          "type": "uint256"
        },
        {
          "internalType": "string",
          "name": "uri",
          "type": "string"
        },
        {
          "internalType": "string[]",
          "name": "keys",
          "type": "string[]"
        },
        {
          "internalType": "string[]",
          "name": "values",
          "type": "string[]"
        }
      ],
      "name": "mintWithRecords",
      "outputs": [],
      "stateMutability": "nonpayable",
      "type": "function"
    },
    {
      "inputs": [],
      "name": "name",
      "outputs": [
        {
          "internalType": "string",
          "name": "",
          "type": "string"
        }
      ],
      "stateMutability": "view",
      "type": "function"
    },
    {
      "inputs": [
        {
          "internalType": "uint256",
          "name": "tokenId",
          "type": "uint256"
        }
      ],
      "name": "nonceOf",
      "outputs": [
        {
          "internalType": "uint256",
          "name": "",
          "type": "uint256"
        }
      ],
      "stateMutability": "view",
      "type": "function"
    },
    {
      "inputs": [
        {
          "internalType": "address",
          "name": "",
          "type": "address"
        },
        {
          "internalType": "address",
          "name": "from",
          "type": "address"
        },
        {
          "internalType": "uint256",
          "name": "tokenId",
          "type": "uint256"
        },
        {
          "internalType": "bytes",
          "name": "data",
          "type": "bytes"
        }
      ],
      "name": "onERC721Received",
      "outputs": [
        {
          "internalType": "bytes4",
          "name": "",
          "type": "bytes4"
        }
      ],
      "stateMutability": "nonpayable",
      "type": "function"
    },
    {
      "inputs": [
        {
          "internalType": "uint256",
          "name": "tokenId",
          "type": "uint256"
        }
      ],
      "name": "ownerOf",
      "outputs": [
        {
          "internalType": "address",
          "name": "",
          "type": "address"
        }
      ],
      "stateMutability": "view",
      "type": "function"
    },
    {
      "inputs": [
        {
          "internalType": "string[]",
          "name": "keys",
          "type": "string[]"
        },
        {
          "internalType": "string[]",
          "name": "values",
          "type": "string[]"
        },
        {
          "internalType": "uint256",
          "name": "tokenId",
          "type": "uint256"
        }
      ],
      "name": "reconfigure",
      "outputs": [],
      "stateMutability": "nonpayable",
      "type": "function"
    },
    {
      "inputs": [
        {
          "internalType": "string[]",
          "name": "keys",
          "type": "string[]"
        },
        {
          "internalType": "string[]",
          "name": "values",
          "type": "string[]"
        },
        {
          "internalType": "uint256",
          "name": "tokenId",
          "type": "uint256"
        },
        {
          "internalType": "bytes",
          "name": "signature",
          "type": "bytes"
        }
      ],
      "name": "reconfigureFor",
      "outputs": [],
      "stateMutability": "nonpayable",
      "type": "function"
    },
    {
      "inputs": [
        {
          "internalType": "uint256",
          "name": "tokenId",
          "type": "uint256"
        }
      ],
      "name": "reset",
      "outputs": [],
      "stateMutability": "nonpayable",
      "type": "function"
    },
    {
      "inputs": [
        {
          "internalType": "uint256",
          "name": "tokenId",
          "type": "uint256"
        },
        {
          "internalType": "bytes",
          "name": "signature",
          "type": "bytes"
        }
      ],
      "name": "resetFor",
      "outputs": [],
      "stateMutability": "nonpayable",
      "type": "function"
    },
    {
      "inputs": [
        {
          "internalType": "uint256",
          "name": "tokenId",
          "type": "uint256"
        }
      ],
      "name": "resolverOf",
      "outputs": [
        {
          "internalType": "address",
          "name": "",
          "type": "address"
        }
      ],
      "stateMutability": "view",
      "type": "function"
    },
    {
      "inputs": [],
      "name": "root",
      "outputs": [
        {
          "internalType": "uint256",
          "name": "",
          "type": "uint256"
        }
      ],
      "stateMutability": "pure",
      "type": "function"
    },
    {
      "inputs": [
        {
          "internalType": "address",
          "name": "to",
          "type": "address"
        },
        {
          "internalType": "uint256",
          "name": "tokenId",
          "type": "uint256"
        },
        {
          "internalType": "string",
          "name": "uri",
          "type": "string"
        },
        {
          "internalType": "bytes",
          "name": "data",
          "type": "bytes"
        }
      ],
      "name": "safeMint",
      "outputs": [],
      "stateMutability": "nonpayable",
      "type": "function"
    },
    {
      "inputs": [
        {
          "internalType": "address",
          "name": "to",
          "type": "address"
        },
        {
          "internalType": "uint256",
          "name": "tokenId",
          "type": "uint256"
        },
        {
          "internalType": "string",
          "name": "uri",
          "type": "string"
        }
      ],
      "name": "safeMint",
      "outputs": [],
      "stateMutability": "nonpayable",
      "type": "function"
    },
    {
      "inputs": [
        {
          "internalType": "address",
          "name": "to",
          "type": "address"
        },
        {
          "internalType": "uint256",
          "name": "tokenId",
          "type": "uint256"
        },
        {
          "internalType": "string",
          "name": "uri",
          "type": "string"
        },
        {
          "internalType": "string[]",
          "name": "keys",
          "type": "string[]"
        },
        {
          "internalType": "string[]",
          "name": "values",
          "type": "string[]"
        }
      ],
      "name": "safeMintWithRecords",
      "outputs": [],
      "stateMutability": "nonpayable",
      "type": "function"
    },
    {
      "inputs": [
        {
          "internalType": "address",
          "name": "to",
          "type": "address"
        },
        {
          "internalType": "uint256",
          "name": "tokenId",
          "type": "uint256"
        },
        {
          "internalType": "string",
          "name": "uri",
          "type": "string"
        },
        {
          "internalType": "string[]",
          "name": "keys",
          "type": "string[]"
        },
        {
          "internalType": "string[]",
          "name": "values",
          "type": "string[]"
        },
        {
          "internalType": "bytes",
          "name": "data",
          "type": "bytes"
        }
      ],
      "name": "safeMintWithRecords",
      "outputs": [],
      "stateMutability": "nonpayable",
      "type": "function"
    },
    {
      "inputs": [
        {
          "internalType": "address",
          "name": "from",
          "type": "address"
        },
        {
          "internalType": "address",
          "name": "to",
          "type": "address"
        },
        {
          "internalType": "uint256",
          "name": "tokenId",
          "type": "uint256"
        }
      ],
      "name": "safeTransferFrom",
      "outputs": [],
      "stateMutability": "nonpayable",
      "type": "function"
    },
    {
      "inputs": [
        {
          "internalType": "address",
          "name": "from",
          "type": "address"
        },
        {
          "internalType": "address",
          "name": "to",
          "type": "address"
        },
        {
          "internalType": "uint256",
          "name": "tokenId",
          "type": "uint256"
        },
        {
          "internalType": "bytes",
          "name": "data",
          "type": "bytes"
        }
      ],
      "name": "safeTransferFrom",
      "outputs": [],
      "stateMutability": "nonpayable",
      "type": "function"
    },
    {
      "inputs": [
        {
          "internalType": "address",
          "name": "from",
          "type": "address"
        },
        {
          "internalType": "address",
          "name": "to",
          "type": "address"
        },
        {
          "internalType": "uint256",
          "name": "tokenId",
          "type": "uint256"
        },
        {
          "internalType": "bytes",
          "name": "data",
          "type": "bytes"
        },
        {
          "internalType": "bytes",
          "name": "signature",
          "type": "bytes"
        }
      ],
      "name": "safeTransferFromFor",
      "outputs": [],
      "stateMutability": "nonpayable",
      "type": "function"
    },
    {
      "inputs": [
        {
          "internalType": "address",
          "name": "from",
          "type": "address"
        },
        {
          "internalType": "address",
          "name": "to",
          "type": "address"
        },
        {
          "internalType": "uint256",
          "name": "tokenId",
          "type": "uint256"
        },
        {
          "internalType": "bytes",
          "name": "signature",
          "type": "bytes"
        }
      ],
      "name": "safeTransferFromFor",
      "outputs": [],
      "stateMutability": "nonpayable",
      "type": "function"
    },
    {
      "inputs": [
        {
          "internalType": "string",
          "name": "key",
          "type": "string"
        },
        {
          "internalType": "string",
          "name": "value",
          "type": "string"
        },
        {
          "internalType": "uint256",
          "name": "tokenId",
          "type": "uint256"
        }
      ],
      "name": "set",
      "outputs": [],
      "stateMutability": "nonpayable",
      "type": "function"
    },
    {
      "inputs": [
        {
          "internalType": "address",
          "name": "operator",
          "type": "address"
        },
        {
          "internalType": "bool",
          "name": "approved",
          "type": "bool"
        }
      ],
      "name": "setApprovalForAll",
      "outputs": [],
      "stateMutability": "nonpayable",
      "type": "function"
    },
    {
      "inputs": [
        {
          "internalType": "uint256",
          "name": "keyHash",
          "type": "uint256"
        },
        {
          "internalType": "string",
          "name": "value",
          "type": "string"
        },
        {
          "internalType": "uint256",
          "name": "tokenId",
          "type": "uint256"
        }
      ],
      "name": "setByHash",
      "outputs": [],
      "stateMutability": "nonpayable",
      "type": "function"
    },
    {
      "inputs": [
        {
          "internalType": "string",
          "name": "key",
          "type": "string"
        },
        {
          "internalType": "string",
          "name": "value",
          "type": "string"
        },
        {
          "internalType": "uint256",
          "name": "tokenId",
          "type": "uint256"
        },
        {
          "internalType": "bytes",
          "name": "signature",
          "type": "bytes"
        }
      ],
      "name": "setFor",
      "outputs": [],
      "stateMutability": "nonpayable",
      "type": "function"
    },
    {
      "inputs": [
        {
          "internalType": "string[]",
          "name": "keys",
          "type": "string[]"
        },
        {
          "internalType": "string[]",
          "name": "values",
          "type": "string[]"
        },
        {
          "internalType": "uint256",
          "name": "tokenId",
          "type": "uint256"
        }
      ],
      "name": "setMany",
      "outputs": [],
      "stateMutability": "nonpayable",
      "type": "function"
    },
    {
      "inputs": [
        {
          "internalType": "uint256[]",
          "name": "keyHashes",
          "type": "uint256[]"
        },
        {
          "internalType": "string[]",
          "name": "values",
          "type": "string[]"
        },
        {
          "internalType": "uint256",
          "name": "tokenId",
          "type": "uint256"
        }
      ],
      "name": "setManyByHash",
      "outputs": [],
      "stateMutability": "nonpayable",
      "type": "function"
    },
    {
      "inputs": [
        {
          "internalType": "string[]",
          "name": "keys",
          "type": "string[]"
        },
        {
          "internalType": "string[]",
          "name": "values",
          "type": "string[]"
        },
        {
          "internalType": "uint256",
          "name": "tokenId",
          "type": "uint256"
        },
        {
          "internalType": "bytes",
          "name": "signature",
          "type": "bytes"
        }
      ],
      "name": "setManyFor",
      "outputs": [],
      "stateMutability": "nonpayable",
      "type": "function"
    },
    {
      "inputs": [
        {
          "internalType": "address",
          "name": "to",
          "type": "address"
        },
        {
          "internalType": "uint256",
          "name": "tokenId",
          "type": "uint256"
        }
      ],
      "name": "setOwner",
      "outputs": [],
      "stateMutability": "nonpayable",
      "type": "function"
    },
    {
      "inputs": [
        {
          "internalType": "address",
          "name": "rootChainManager",
          "type": "address"
        }
      ],
      "name": "setRootChainManager",
      "outputs": [],
      "stateMutability": "nonpayable",
      "type": "function"
    },
    {
      "inputs": [
        {
          "internalType": "string",
          "name": "prefix",
          "type": "string"
        }
      ],
      "name": "setTokenURIPrefix",
      "outputs": [],
      "stateMutability": "nonpayable",
      "type": "function"
    },
    {
      "inputs": [
        {
          "internalType": "bytes4",
          "name": "interfaceId",
          "type": "bytes4"
        }
      ],
      "name": "supportsInterface",
      "outputs": [
        {
          "internalType": "bool",
          "name": "",
          "type": "bool"
        }
      ],
      "stateMutability": "view",
      "type": "function"
    },
    {
      "inputs": [],
      "name": "symbol",
      "outputs": [
        {
          "internalType": "string",
          "name": "",
          "type": "string"
        }
      ],
      "stateMutability": "view",
      "type": "function"
    },
    {
      "inputs": [
        {
          "internalType": "uint256",
          "name": "tokenId",
          "type": "uint256"
        }
      ],
      "name": "tokenURI",
      "outputs": [
        {
          "internalType": "string",
          "name": "",
          "type": "string"
        }
      ],
      "stateMutability": "view",
      "type": "function"
    },
    {
      "inputs": [
        {
          "internalType": "address",
          "name": "from",
          "type": "address"
        },
        {
          "internalType": "address",
          "name": "to",
          "type": "address"
        },
        {
          "internalType": "uint256",
          "name": "tokenId",
          "type": "uint256"
        }
      ],
      "name": "transferFrom",
      "outputs": [],
      "stateMutability": "nonpayable",
      "type": "function"
    },
    {
      "inputs": [
        {
          "internalType": "address",
          "name": "from",
          "type": "address"
        },
        {
          "internalType": "address",
          "name": "to",
          "type": "address"
        },
        {
          "internalType": "uint256",
          "name": "tokenId",
          "type": "uint256"
        },
        {
          "internalType": "bytes",
          "name": "signature",
          "type": "bytes"
        }
      ],
      "name": "transferFromFor",
      "outputs": [],
      "stateMutability": "nonpayable",
      "type": "function"
    },
    {
      "inputs": [
        {
          "components": [
            {
              "internalType": "address",
              "name": "from",
              "type": "address"
            },
            {
              "internalType": "uint256",
              "name": "nonce",
              "type": "uint256"
            },
            {
              "internalType": "uint256",
              "name": "tokenId",
              "type": "uint256"
            },
            {
              "internalType": "bytes",
              "name": "data",
              "type": "bytes"
            }
          ],
          "internalType": "struct IForwarder.ForwardRequest",
          "name": "req",
          "type": "tuple"
        },
        {
          "internalType": "bytes",
          "name": "signature",
          "type": "bytes"
        }
      ],
      "name": "verify",
      "outputs": [
        {
          "internalType": "bool",
          "name": "",
          "type": "bool"
        }
      ],
      "stateMutability": "view",
      "type": "function"
    }
  ],
  "bytecode": "0x608060405234801561001057600080fd5b50614db1806100206000396000f3fe608060405234801561001057600080fd5b506004361061038e5760003560e01c8063728a44d8116101de578063b88d4fde1161010f578063d3fc9864116100ad578063ef2c30881161007c578063ef2c3088146107de578063efda4d3e146107f1578063f5c1f76e14610804578063ffa1ad74146108175761038e565b8063d3fc98641461079d578063e985e9c5146107b0578063ebf0c717146107c3578063ec129eea146107cb5761038e565b8063c5974073116100e9578063c597407314610751578063c87b56dd14610764578063cd279c7c14610777578063ce92b33e1461078a5761038e565b8063b88d4fde14610718578063bb5b27e11461072b578063c4d66de81461073e5761038e565b8063a42474001161017c578063b3f9e4cb11610156578063b3f9e4cb146106be578063b55bc617146106d1578063b85afd28146106e4578063b87abc11146107055761038e565b8063a424740014610685578063ab3b87fe14610698578063b0f59177146106ab5761038e565b806399e0dd7c116101b857806399e0dd7c14610644578063a22cb46514610657578063a3557e6c1461066a578063a3f4df7e1461067d5761038e565b8063728a44d8146106165780638f69c1881461062957806395d89b411461063c5761038e565b8063430c2081116102c357806361603dd91161026157806368b62d321161023057806368b62d32146105bd5780636ccbae5f146105dd5780636debcb8d146105f057806370a08231146106035761038e565b806361603dd9146105635780636352211e14610576578063638e5c7814610589578063672b9f811461059c5761038e565b80634a72584d1161029d5780634a72584d146105175780634f558e791461052a57806350382c1a1461053d578063572b6c05146105505761038e565b8063430c2081146104de5780634348b562146104f157806347c81699146105045761038e565b80631bf7e13e11610330578063280d9b051161030a578063280d9b0514610492578063310bd74b146104a557806342842e0e146104b857806342966c68146104cb5761038e565b80631bf7e13e1461045957806323b872dd1461046c57806327f189751461047f5761038e565b8063095ea7b31161036c578063095ea7b3146103f1578063150b7a02146104065780631bd8cc1a146104265780631be5e7ed146104465761038e565b806301ffc9a71461039357806306fdde03146103bc578063081812fc146103d1575b600080fd5b6103a66103a1366004613e00565b61081f565b6040516103b3919061444d565b60405180910390f35b6103c4610832565b6040516103b3919061448b565b6103e46103df36600461400f565b6108c5565b6040516103b39190614305565b6104046103ff3660046139bf565b610911565b005b610419610414366004613820565b610963565b6040516103b39190614476565b610439610434366004613d46565b610a1a565b6040516103b39190614415565b6103c4610454366004613f29565b610b3a565b6103c4610467366004613fa3565b610b85565b61040461047a3660046137e0565b610c50565b61040461048d366004613c57565b610cdc565b6104046104a0366004613890565b610d5d565b6104046104b336600461400f565b610df9565b6104046104c63660046137e0565b610e6d565b6104046104d936600461400f565b610e88565b6103a66104ec3660046139bf565b610f05565b6104046104ff366004613a43565b610f11565b610404610512366004613e6b565b610f76565b610404610525366004614063565b610fee565b6103a661053836600461400f565b61106d565b61040461054b366004613f5e565b611078565b6103a661055e366004613770565b6110ae565b610404610571366004614027565b6110bf565b6103e461058436600461400f565b611148565b61040461059736600461400f565b61117d565b6105af6105aa3660046140b3565b6111cc565b6040516103b39291906144d9565b6105d06105cb366004614027565b6111e4565b6040516103b391906142ee565b6105d06105eb36600461400f565b611226565b6104046105fe366004613820565b611239565b6105d0610611366004613770565b61125b565b610404610624366004613770565b61129f565b610404610637366004613cc7565b61133c565b6103c4611362565b610404610652366004613e38565b611371565b610404610665366004613994565b6113f7565b610404610678366004613cc7565b6114c5565b6103c46114eb565b6103a6610693366004613fa3565b611514565b6104046106a63660046139bf565b61155f565b6104046106b9366004613a43565b6115e3565b6103e46106cc36600461400f565b61166c565b6104046106df366004613bcf565b611689565b6106f76106f2366004613d46565b611739565b6040516103b3929190614428565b610404610713366004614027565b6118a1565b61040461072636600461392b565b6118bf565b6103c461073936600461400f565b61193f565b61040461074c366004613770565b6119e1565b61040461075f366004613ec9565b611ace565b6103c461077236600461400f565b611af4565b6104046107853660046139ea565b611b76565b610404610798366004613c57565b611c00565b6104046107ab3660046139ea565b611c78565b6103a66107be3660046137a8565b611cf4565b6105d0611d22565b6104046107d9366004613c57565b611d27565b6104046107ec366004613820565b611d9f565b6104046107ff366004613af4565b611dc1565b610439610812366004613d8f565b611e4f565b6103c4611f2c565b600061082a82611f4d565b90505b919050565b60606065805461084190614ccd565b80601f016020809104026020016040519081016040528092919081815260200182805461086d90614ccd565b80156108ba5780601f1061088f576101008083540402835291602001916108ba565b820191906000526020600020905b81548152906001019060200180831161089d57829003601f168201915b505050505090505b90565b60006108d082611f8d565b6108f55760405162461bcd60e51b81526004016108ec906149b1565b60405180910390fd5b506000908152606960205260409020546001600160a01b031690565b8061091b336110ae565b1561094b57610928611faa565b81146109465760405162461bcd60e51b81526004016108ec906147c5565b610954565b61095481611fc4565b61095e8383611ff2565b505050565b600061096d612085565b6001600160a01b03166342966c68856040518263ffffffff1660e01b815260040161099891906142ee565b600060405180830381600087803b1580156109b257600080fd5b505af11580156109c6573d6000803e3d6000fd5b5050508215801591506109e057506109e082840184613dce565b156109fe576109ef3085612094565b6109f98585612173565b610a08565b610a088585612094565b50630a85bd0160e11b95945050505050565b6060826001600160401b03811115610a4257634e487b7160e01b600052604160045260246000fd5b604051908082528060200260200182016040528015610a7557816020015b6060815260200190600190039081610a605790505b50905060005b83811015610b3257610af4858583818110610aa657634e487b7160e01b600052603260045260246000fd5b9050602002810190610ab89190614b92565b8080601f01602080910402602001604051908101604052809392919081815260200183838082843760009201919091525087925061232b915050565b828281518110610b1457634e487b7160e01b600052603260045260246000fd5b60200260200101819052508080610b2a90614d08565b915050610a7b565b509392505050565b6060610b7d84848080601f01602080910402602001604051908101604052809392919081815260200183838082843760009201919091525086925061232b915050565b949350505050565b606060005a9050610b97858585611514565b610bb35760405162461bcd60e51b81526004016108ec90614adb565b610c45610bc36020870187613770565b30604088013584610bd760608b018b614b92565b8080601f01602080910402602001604051908101604052809392919081815260200183838082843760009201919091525050604080516020601f8e018190048102820181019092528c815292508c91508b908190840183828082843760009201919091525061236092505050565b9150505b9392505050565b80610c62610c5c612085565b8261244f565b610c7e5760405162461bcd60e51b81526004016108ec9061456c565b81610c88336110ae565b15610cb857610c95611faa565b8114610cb35760405162461bcd60e51b81526004016108ec906147c5565b610cc1565b610cc181611fc4565b610cca836124cc565b610cd5858585612537565b5050505050565b80610ce8610c5c612085565b610d045760405162461bcd60e51b81526004016108ec9061456c565b81610d0e336110ae565b15610d3e57610d1b611faa565b8114610d395760405162461bcd60e51b81526004016108ec906147c5565b610d47565b610d4781611fc4565b610d548787878787612664565b50505050505050565b60005a9050610dee63b88d4fde8989898989604051602401610d83959493929190614369565b6040516020818303038152906040529060e01b6020820180516001600160e01b0383818316178352505050508785858080601f0160208091040260200160405190810160405280939291908181526020018383808284376000920191909152508792506126e3915050565b505050505050505050565b80610e05610c5c612085565b610e215760405162461bcd60e51b81526004016108ec9061456c565b81610e2b336110ae565b15610e5b57610e38611faa565b8114610e565760405162461bcd60e51b81526004016108ec906147c5565b610e64565b610e6481611fc4565b61095e836124cc565b61095e838383604051806020016040528060008152506118bf565b80610e94610c5c612085565b610eb05760405162461bcd60e51b81526004016108ec9061456c565b81610eba336110ae565b15610eea57610ec7611faa565b8114610ee55760405162461bcd60e51b81526004016108ec906147c5565b610ef3565b610ef381611fc4565b610efc836124cc565b61095e83612728565b6000610c49838361244f565b610134546001600160a01b0316610f26612085565b6001600160a01b031614610f4c5760405162461bcd60e51b81526004016108ec90614732565b610f6c8888888888888888604051806020016040528060008152506127cf565b5050505050505050565b80610f82610c5c612085565b610f9e5760405162461bcd60e51b81526004016108ec9061456c565b81610fa8336110ae565b15610fd857610fb5611faa565b8114610fd35760405162461bcd60e51b81526004016108ec906147c5565b610fe1565b610fe181611fc4565b610d54878787878761281f565b80610ffa610c5c612085565b6110165760405162461bcd60e51b81526004016108ec9061456c565b81611020336110ae565b156110505761102d611faa565b811461104b5760405162461bcd60e51b81526004016108ec906147c5565b611059565b61105981611fc4565b611065868686866128fe565b505050505050565b600061082a82611f8d565b6110ab8160405160200161108c9190614223565b6040516020818303038152906040528051906020012060001c8261296e565b50565b6001600160a01b0381163014919050565b60005a9050610cd56342966c68856040516024016110dd91906142ee565b6040516020818303038152906040529060e01b6020820180516001600160e01b0383818316178352505050508585858080601f0160208091040260200160405190810160405280939291908181526020018383808284376000920191909152508792506126e3915050565b6000818152606760205260408120546001600160a01b03168061082a5760405162461bcd60e51b81526004016108ec906148a3565b80611189610c5c612085565b6111a55760405162461bcd60e51b81526004016108ec9061456c565b6111b76111b0612085565b3084612537565b6111c86111c2612085565b83612173565b5050565b6060806111d9848461299a565b909590945092505050565b6000610b7d8484848080601f0160208091040260200160405190810160405280939291908181526020018383808284376000920191909152506129bb92505050565b6000908152610100602052604090205490565b60005a9050610d546342842e0e8787876040516024016110dd93929190614345565b60006001600160a01b0382166112835760405162461bcd60e51b81526004016108ec90614859565b506001600160a01b031660009081526068602052604090205490565b60006112ca7fbe2bb46ac0377341a1ec5c3116d70fd5029d704bd46292e58f6265dd177ebafe6108c2565b546001600160a01b0316146112f15760405162461bcd60e51b81526004016108ec906149fd565b8061131b7fbe2bb46ac0377341a1ec5c3116d70fd5029d704bd46292e58f6265dd177ebafe6108c2565b80546001600160a01b0319166001600160a01b039290921691909117905550565b60005a9050610dee63ce92b33e89898989896040516024016110dd9594939291906143db565b60606066805461084190614ccd565b610134546001600160a01b0316611386612085565b6001600160a01b0316146113ac5760405162461bcd60e51b81526004016108ec90614732565b6113b96101338383613537565b507f4b120d6a959a84a520fa48f5f937cca0e79129423487af7901213b5d2e89313b82826040516113eb92919061449e565b60405180910390a15050565b6113ff612085565b6001600160a01b0316826001600160a01b031614156114305760405162461bcd60e51b81526004016108ec906146b9565b80606a600061143d612085565b6001600160a01b03908116825260208083019390935260409182016000908120918716808252919093529120805460ff191692151592909217909155611481612085565b6001600160a01b03167f17307eab39ab6107e8899845ad3d59bd9653f200f220920489ca2b5937696c31836040516114b9919061444d565b60405180910390a35050565b60005a9050610dee63ec129eea89898989896040516024016110dd9594939291906143db565b6040518060400160405280600d81526020016c554e533a20526567697374727960981b81525081565b6000610b7d61152285614c19565b3085858080601f016020809104026020016040519081016040528093929190818152602001838380828437600092019190915250612a3792505050565b8061156b610c5c612085565b6115875760405162461bcd60e51b81526004016108ec9061456c565b81611591336110ae565b156115c15761159e611faa565b81146115bc5760405162461bcd60e51b81526004016108ec906147c5565b6115ca565b6115ca81611fc4565b6115dd6115d684611148565b8585612537565b50505050565b610134546001600160a01b03166115f8612085565b6001600160a01b03161461161e5760405162461bcd60e51b81526004016108ec90614732565b61165f888888888080601f016020809104026020016040519081016040528093929190818152602001838380828437600092019190915250612af892505050565b610f6c848484848b612b3f565b600061167782611f8d565b61168257600061082a565b5030919050565b610134546001600160a01b031661169e612085565b6001600160a01b0316146116c45760405162461bcd60e51b81526004016108ec90614732565b611065868686868080601f01602080910402602001604051908101604052809392919081815260200183838082843760009201919091525050604080516020601f8a018190048102820181019092528881529250889150879081908401838280828437600092019190915250612bc992505050565b606080836001600160401b0381111561176257634e487b7160e01b600052604160045260246000fd5b60405190808252806020026020018201604052801561179557816020015b60608152602001906001900390816117805790505b509150836001600160401b038111156117be57634e487b7160e01b600052604160045260246000fd5b6040519080825280602002602001820160405280156117f157816020015b60608152602001906001900390816117dc5790505b50905060005b848110156118985761182f86868381811061182257634e487b7160e01b600052603260045260246000fd5b905060200201358561299a565b84838151811061184f57634e487b7160e01b600052603260045260246000fd5b6020026020010184848151811061187657634e487b7160e01b600052603260045260246000fd5b602002602001018290528290525050808061189090614d08565b9150506117f7565b50935093915050565b60005a9050610cd563310bd74b856040516024016110dd91906142ee565b816118cb610c5c612085565b6118e75760405162461bcd60e51b81526004016108ec9061456c565b826118f1336110ae565b15611921576118fe611faa565b811461191c5760405162461bcd60e51b81526004016108ec906147c5565b61192a565b61192a81611fc4565b611933846124cc565b61106586868686612c12565b600081815260c96020526040902080546060919061195c90614ccd565b80601f016020809104026020016040519081016040528092919081815260200182805461198890614ccd565b80156119d55780601f106119aa576101008083540402835291602001916119d5565b820191906000526020600020905b8154815290600101906020018083116119b857829003601f168201915b50505050509050919050565b600054610100900460ff16806119fa575060005460ff16155b611a165760405162461bcd60e51b81526004016108ec906148ec565b600054610100900460ff16158015611a41576000805460ff1961ff0019909116610100171660011790555b61013480546001600160a01b0319166001600160a01b0384161790556040805180820182526013815272556e73746f707061626c6520446f6d61696e7360681b60208083019190915282518084019093526002835261155160f21b90830152611aa991612c45565b611ab1612ce3565b611ab9612ce3565b80156111c8576000805461ff00191690555050565b60005a9050610dee6347c8169989898989896040516024016110dd9594939291906144b2565b6060611aff82611f8d565b611b1b5760405162461bcd60e51b81526004016108ec90614a8c565b6000611b25612d57565b90506000815111611b455760405180602001604052806000815250610c49565b80611b4f84612d67565b604051602001611b6092919061428e565b6040516020818303038152906040529392505050565b610134546001600160a01b0316611b8b612085565b6001600160a01b031614611bb15760405162461bcd60e51b81526004016108ec90614732565b6115dd848484848080601f016020809104026020016040519081016040528093929190818152602001838380828437600092018290525060408051602081019091529081529250612bc9915050565b80611c0c610c5c612085565b611c285760405162461bcd60e51b81526004016108ec9061456c565b81611c32336110ae565b15611c6257611c3f611faa565b8114611c5d5760405162461bcd60e51b81526004016108ec906147c5565b611c6b565b611c6b81611fc4565b610d548787878787612b3f565b610134546001600160a01b0316611c8d612085565b6001600160a01b031614611cb35760405162461bcd60e51b81526004016108ec90614732565b6115dd848484848080601f016020809104026020016040519081016040528093929190818152602001838380828437600092019190915250612af892505050565b6001600160a01b039182166000908152606a6020908152604080832093909416825291909152205460ff1690565b600090565b80611d33610c5c612085565b611d4f5760405162461bcd60e51b81526004016108ec9061456c565b81611d59336110ae565b15611d8957611d66611faa565b8114611d845760405162461bcd60e51b81526004016108ec906147c5565b611d92565b611d9281611fc4565b610d548787878787612e81565b60005a9050610d546323b872dd8787876040516024016110dd93929190614345565b610134546001600160a01b0316611dd6612085565b6001600160a01b031614611dfc5760405162461bcd60e51b81526004016108ec90614732565b611e438a8a8a8a8a8a8a8a8a8a8080601f0160208091040260200160405190810160405280939291908181526020018383808284376000920191909152506127cf92505050565b50505050505050505050565b6060816001600160401b03811115611e7757634e487b7160e01b600052604160045260246000fd5b604051908082528060200260200182016040528015611eaa57816020015b6060815260200190600190039081611e955790505b50905060005b82811015611f2557611ee7848483818110611edb57634e487b7160e01b600052603260045260246000fd5b9050602002013561193f565b828281518110611f0757634e487b7160e01b600052603260045260246000fd5b60200260200101819052508080611f1d90614d08565b915050611eb0565b5092915050565b604051806040016040528060058152602001640302e322e360dc1b81525081565b60006001600160e01b031982166380ac58cd60e01b1480611f7e57506001600160e01b03198216635b5e139f60e01b145b8061082a575061082a82612e97565b6000908152606760205260409020546001600160a01b0316151590565b6000611fb5336110ae565b156108c25750601f1936013590565b60008181526101006020526040902054611fdf906001614bd6565b6000918252610100602052604090912055565b6000611ffd82611148565b9050806001600160a01b0316836001600160a01b031614156120315760405162461bcd60e51b81526004016108ec90614b22565b806001600160a01b0316612043612085565b6001600160a01b0316148061205f575061205f816107be612085565b61207b5760405162461bcd60e51b81526004016108ec906147fc565b61095e8383612eb0565b600061208f612f1e565b905090565b6001600160a01b0382166120ba5760405162461bcd60e51b81526004016108ec9061497c565b6120c381611f8d565b156120e05760405162461bcd60e51b81526004016108ec9061463e565b6120ec6000838361095e565b6001600160a01b0382166000908152606860205260408120805460019290612115908490614bd6565b909155505060008181526067602052604080822080546001600160a01b0319166001600160a01b03861690811790915590518392907fddf252ad1be2c89b69c2b068fc378daa952ba7f163c4a11628f55a4df523b3ef908290a45050565b600061219e7fbe2bb46ac0377341a1ec5c3116d70fd5029d704bd46292e58f6265dd177ebafe6108c2565b5460405163721804d360e11b81526001600160a01b039091169150600090829063e43009a6906121d2903090600401614305565b60206040518083038186803b1580156121ea57600080fd5b505afa1580156121fe573d6000803e3d6000fd5b505050506040513d601f19601f820116820180604052508101906122229190613de8565b90506000826001600160a01b031663e66f9603836040518263ffffffff1660e01b815260040161225291906142ee565b60206040518083038186803b15801561226a57600080fd5b505afa15801561227e573d6000803e3d6000fd5b505050506040513d601f19601f820116820180604052508101906122a2919061378c565b90506122ae8185612eb0565b826001600160a01b031663e3dec8fb8630876040516020016122d091906142ee565b6040516020818303038152906040526040518463ffffffff1660e01b81526004016122fd93929190614319565b600060405180830381600087803b15801561231757600080fd5b505af1158015610dee573d6000803e3d6000fd5b6060610c49836040516020016123419190614223565b6040516020818303038152906040528051906020012060001c83612f4c565b606061236b85611fc4565b600080876001600160a01b0316866123858b8a898961300b565b6040516123929190614223565b60006040518083038160008787f1925050503d80600081146123d0576040519150601f19603f3d011682016040523d82523d6000602084013e6123d5565b606091505b5090925090506123e6603f87614bee565b5a1161240257634e487b7160e01b600052600160045260246000fd5b61244282826040518060400160405280601a81526020017f42617365466f727761726465723a2043414c4c5f4641494c454400000000000081525061303b565b9998505050505050505050565b600061245a82611f8d565b6124765760405162461bcd60e51b81526004016108ec90614779565b600061248183611148565b9050806001600160a01b0316846001600160a01b031614806124bc5750836001600160a01b03166124b1846108c5565b6001600160a01b0316145b80610b7d5750610b7d8185611cf4565b6124d581613074565b6040516020016124e591906142ee565b60408051601f198184030181528282528051602091820120600085815260cb9092529181209190915582917f185c30856dadb58bf097c1f665a52ada7029752dbcad008ea3fefc73bee8c9fe9190a250565b826001600160a01b031661254a82611148565b6001600160a01b0316146125705760405162461bcd60e51b81526004016108ec90614a43565b6001600160a01b0382166125965760405162461bcd60e51b81526004016108ec90614675565b6125a183838361095e565b6125ac600082612eb0565b6001600160a01b03831660009081526068602052604081208054600192906125d5908490614c02565b90915550506001600160a01b0382166000908152606860205260408120805460019290612603908490614bd6565b909155505060008181526067602052604080822080546001600160a01b0319166001600160a01b0386811691821790925591518493918716917fddf252ad1be2c89b69c2b068fc378daa952ba7f163c4a11628f55a4df523b3ef91a4505050565b60005b84811015611065576126d186868381811061269257634e487b7160e01b600052603260045260246000fd5b905060200201358585848181106126b957634e487b7160e01b600052603260045260246000fd5b90506020028101906126cb9190614b92565b856128fe565b806126db81614d08565b915050612667565b6060600061270e868051906020012030610100600089815260200190815260200160002054876130a0565b905061271e813087868a89612360565b9695505050505050565b600061273382611148565b90506127418160008461095e565b61274c600083612eb0565b6001600160a01b0381166000908152606860205260408120805460019290612775908490614c02565b909155505060008281526067602052604080822080546001600160a01b0319169055518391906001600160a01b038416907fddf252ad1be2c89b69c2b068fc378daa952ba7f163c4a11628f55a4df523b3ef908390a45050565b612812898989898080601f016020809104026020016040519081016040528093929190818152602001838380828437600092019190915250879250612bc9915050565b610dee858585858c612b3f565b6000858560405160200161283492919061427e565b60408051601f198184030181528282528051602091820120601f8901829004820284018201909252878352909250612888918391899089908190840183828082843760009201919091525061296e92505050565b6110658187878080601f01602080910402602001604051908101604052809392919081815260200183838082843760009201919091525050604080516020601f8b0181900481028201810190925289815292508991508890819084018382808284376000920191909152508892506130e8915050565b61290784613223565b6129235760405162461bcd60e51b81526004016108ec90614607565b6115dd846129308661193f565b85858080601f0160208091040260200160405190810160405280939291908181526020018383808284376000920191909152508792506130e8915050565b61297782613223565b6111c857600082815260c960209081526040909120825161095e928401906135b7565b6060806129a68461193f565b91506129b28484612f4c565b90509250929050565b60008151600014156129df5760405162461bcd60e51b81526004016108ec90614b63565b82826040516020016129f19190614223565b60405160208183030381529060405280519060200120604051602001612a189291906142f7565b60408051601f1981840301815291905280516020909101209392505050565b6040808401519051636ccbae5f60e01b815260009182913091636ccbae5f91612a6391906004016142ee565b60206040518083038186803b158015612a7b57600080fd5b505afa158015612a8f573d6000803e3d6000fd5b505050506040513d601f19601f82011682018060405250810190612ab39190613de8565b90506000612ace8660600151805190602001208684876130a0565b905085602001518214801561271e575085516001600160a01b038281169116149695505050505050565b612b028383612094565b817fc5beef08f693b11c316c0c8394a377a0033c9cf701b8cd8afd79cecef60c395282604051612b32919061448b565b60405180910390a2505050565b60005b8481101561106557612bb7868683818110612b6d57634e487b7160e01b600052603260045260246000fd5b9050602002810190612b7f9190614b92565b868685818110612b9f57634e487b7160e01b600052603260045260246000fd5b9050602002810190612bb19190614b92565b8661281f565b80612bc181614d08565b915050612b42565b612bd4848483613249565b827fc5beef08f693b11c316c0c8394a377a0033c9cf701b8cd8afd79cecef60c395283604051612c04919061448b565b60405180910390a250505050565b612c1d848484612537565b612c298484848461327c565b6115dd5760405162461bcd60e51b81526004016108ec906145b5565b600054610100900460ff1680612c5e575060005460ff16155b612c7a5760405162461bcd60e51b81526004016108ec906148ec565b600054610100900460ff16158015612ca5576000805460ff1961ff0019909116610100171660011790555b8251612cb89060659060208601906135b7565b508151612ccc9060669060208501906135b7565b50801561095e576000805461ff0019169055505050565b600054610100900460ff1680612cfc575060005460ff16155b612d185760405162461bcd60e51b81526004016108ec906148ec565b600054610100900460ff16158015612d43576000805460ff1961ff0019909116610100171660011790555b80156110ab576000805461ff001916905550565b6060610133805461084190614ccd565b606081612d8c57506040805180820190915260018152600360fc1b602082015261082d565b8160005b8115612db65780612da081614d08565b9150612daf9050600a83614bee565b9150612d90565b6000816001600160401b03811115612dde57634e487b7160e01b600052604160045260246000fd5b6040519080825280601f01601f191660200182016040528015612e08576020820181803683370190505b5090505b8415610b7d57612e1d600183614c02565b9150612e2a600a86614d23565b612e35906030614bd6565b60f81b818381518110612e5857634e487b7160e01b600052603260045260246000fd5b60200101906001600160f81b031916908160001a905350612e7a600a86614bee565b9450612e0c565b612e8a816124cc565b610cd58585858585612b3f565b6001600160e01b031981166301ffc9a760e01b14919050565b600081815260696020526040902080546001600160a01b0319166001600160a01b0384169081179091558190612ee582611148565b6001600160a01b03167f8c5be1e5ebec7d5bd14f71427d1e84f3dd0314c0f7b2291e5b200ac8c7c3b92560405160405180910390a45050565b6000612f29336110ae565b15612f3d575060331936013560601c6108c2565b612f45613394565b90506108c2565b606060ca6000612f5b84613074565b815260200190815260200160002060008481526020019081526020016000208054612f8590614ccd565b80601f0160208091040260200160405190810160405280929190818152602001828054612fb190614ccd565b8015612ffe5780601f10612fd357610100808354040283529160200191612ffe565b820191906000526020600020905b815481529060010190602001808311612fe157829003601f168201915b5050505050905092915050565b60608285856040516020016130229392919061423f565b6040516020818303038152906040529050949350505050565b6060831561304a575081610c49565b82511561305a5782518084602001fd5b8160405162461bcd60e51b81526004016108ec919061448b565b600081815260cb60205260408120541561309c57600082815260cb602052604090205461082a565b5090565b60006130df826130d98787876040516020016130be939291906141fb565b60405160208183030381529060405280519060200120613398565b906133c8565b95945050505050565b60ca60006130f583613074565b81526020019081526020016000206000858152602001908152602001600020805461311f90614ccd565b1515905061317657826040516131359190614223565b6040518091039020817f7ae4f661958fbecc2f77be6b0eb280d2a6f604b29e1e7221c82b9da0c4af7f868560405161316d919061448b565b60405180910390a35b8160ca600061318484613074565b8152602001908152602001600020600086815260200190815260200160002090805190602001906131b69291906135b7565b50816040516131c59190614223565b6040518091039020836040516131db9190614223565b6040518091039020827f851ffe8e74d5015261dba0a1f9e1b0e5d42c5af5d2ad1908fee897c7d80a0d9286866040516132159291906144d9565b60405180910390a450505050565b600081815260c960205260408120805482919061323f90614ccd565b9050119050919050565b6132538383612094565b613260600084848461327c565b61095e5760405162461bcd60e51b81526004016108ec906145b5565b6000613290846001600160a01b0316613444565b1561338c57836001600160a01b031663150b7a026132ac612085565b8786866040518563ffffffff1660e01b81526004016132ce94939291906143a8565b602060405180830381600087803b1580156132e857600080fd5b505af1925050508015613318575060408051601f3d908101601f1916820190925261331591810190613e1c565b60015b613372573d808015613346576040519150601f19603f3d011682016040523d82523d6000602084013e61334b565b606091505b50805161336a5760405162461bcd60e51b81526004016108ec906145b5565b805181602001fd5b6001600160e01b031916630a85bd0160e11b149050610b7d565b506001610b7d565b3390565b6000816040516020016133ab91906142bd565b604051602081830303815290604052805190602001209050919050565b6000806000808451604114156133f25750505060208201516040830151606084015160001a613438565b8451604014156134205750505060408201516020830151906001600160ff1b0381169060ff1c601b01613438565b60405162461bcd60e51b81526004016108ec90614535565b61271e8682858561344a565b3b151590565b60007f7fffffffffffffffffffffffffffffff5d576e7357a4501ddfe92f46681b20a082111561348c5760405162461bcd60e51b81526004016108ec906146f0565b8360ff16601b14806134a157508360ff16601c145b6134bd5760405162461bcd60e51b81526004016108ec9061493a565b6000600186868686604051600081526020016040526040516134e29493929190614458565b6020604051602081039080840390855afa158015613504573d6000803e3d6000fd5b5050604051601f1901519150506001600160a01b0381166130df5760405162461bcd60e51b81526004016108ec906144fe565b82805461354390614ccd565b90600052602060002090601f01602090048101928261356557600085556135ab565b82601f1061357e5782800160ff198235161785556135ab565b828001600101855582156135ab579182015b828111156135ab578235825591602001919060010190613590565b5061309c92915061362b565b8280546135c390614ccd565b90600052602060002090601f0160209004810192826135e557600085556135ab565b82601f106135fe57805160ff19168380011785556135ab565b828001600101855582156135ab579182015b828111156135ab578251825591602001919060010190613610565b5b8082111561309c576000815560010161362c565b60006001600160401b038084111561365a5761365a614d63565b604051601f8501601f19168101602001828111828210171561367e5761367e614d63565b60405284815291508183850186101561369657600080fd5b8484602083013760006020868301015250509392505050565b803561082d81614d79565b60008083601f8401126136cb578182fd5b5081356001600160401b038111156136e1578182fd5b60208301915083602080830285010111156136fb57600080fd5b9250929050565b8035801515811461082d57600080fd5b60008083601f840112613723578182fd5b5081356001600160401b03811115613739578182fd5b6020830191508360208285010111156136fb57600080fd5b600082601f830112613761578081fd5b610c4983833560208501613640565b600060208284031215613781578081fd5b8135610c4981614d79565b60006020828403121561379d578081fd5b8151610c4981614d79565b600080604083850312156137ba578081fd5b82356137c581614d79565b915060208301356137d581614d79565b809150509250929050565b6000806000606084860312156137f4578081fd5b83356137ff81614d79565b9250602084013561380f81614d79565b929592945050506040919091013590565b600080600080600060808688031215613837578081fd5b853561384281614d79565b9450602086013561385281614d79565b93506040860135925060608601356001600160401b03811115613873578182fd5b61387f88828901613712565b969995985093965092949392505050565b600080600080600080600060a0888a0312156138aa578182fd5b87356138b581614d79565b965060208801356138c581614d79565b95506040880135945060608801356001600160401b03808211156138e7578384fd5b6138f38b838c01613712565b909650945060808a013591508082111561390b578384fd5b506139188a828b01613712565b989b979a50959850939692959293505050565b60008060008060808587031215613940578182fd5b843561394b81614d79565b9350602085013561395b81614d79565b92506040850135915060608501356001600160401b0381111561397c578182fd5b61398887828801613751565b91505092959194509250565b600080604083850312156139a6578182fd5b82356139b181614d79565b91506129b260208401613702565b600080604083850312156139d1578182fd5b82356139dc81614d79565b946020939093013593505050565b600080600080606085870312156139ff578182fd5b8435613a0a81614d79565b93506020850135925060408501356001600160401b03811115613a2b578283fd5b613a3787828801613712565b95989497509550505050565b60008060008060008060008060a0898b031215613a5e578182fd5b8835613a6981614d79565b97506020890135965060408901356001600160401b0380821115613a8b578384fd5b613a978c838d01613712565b909850965060608b0135915080821115613aaf578384fd5b613abb8c838d016136ba565b909650945060808b0135915080821115613ad3578384fd5b50613ae08b828c016136ba565b999c989b5096995094979396929594505050565b60008060008060008060008060008060c08b8d031215613b12578384fd5b613b1b8b6136af565b995060208b0135985060408b01356001600160401b0380821115613b3d578586fd5b613b498e838f01613712565b909a50985060608d0135915080821115613b61578586fd5b613b6d8e838f016136ba565b909850965060808d0135915080821115613b85578586fd5b613b918e838f016136ba565b909650945060a08d0135915080821115613ba9578384fd5b50613bb68d828e01613712565b915080935050809150509295989b9194979a5092959850565b60008060008060008060808789031215613be7578384fd5b8635613bf281614d79565b95506020870135945060408701356001600160401b0380821115613c14578586fd5b613c208a838b01613712565b90965094506060890135915080821115613c38578384fd5b50613c4589828a01613712565b979a9699509497509295939492505050565b600080600080600060608688031215613c6e578283fd5b85356001600160401b0380821115613c84578485fd5b613c9089838a016136ba565b90975095506020880135915080821115613ca8578485fd5b50613cb5888289016136ba565b96999598509660400135949350505050565b60008060008060008060006080888a031215613ce1578081fd5b87356001600160401b0380821115613cf7578283fd5b613d038b838c016136ba565b909950975060208a0135915080821115613d1b578283fd5b613d278b838c016136ba565b909750955060408a0135945060608a013591508082111561390b578283fd5b600080600060408486031215613d5a578081fd5b83356001600160401b03811115613d6f578182fd5b613d7b868287016136ba565b909790965060209590950135949350505050565b60008060208385031215613da1578182fd5b82356001600160401b03811115613db6578283fd5b613dc2858286016136ba565b90969095509350505050565b600060208284031215613ddf578081fd5b610c4982613702565b600060208284031215613df9578081fd5b5051919050565b600060208284031215613e11578081fd5b8135610c4981614d8e565b600060208284031215613e2d578081fd5b8151610c4981614d8e565b60008060208385031215613e4a578182fd5b82356001600160401b03811115613e5f578283fd5b613dc285828601613712565b600080600080600060608688031215613e82578283fd5b85356001600160401b0380821115613e98578485fd5b613ea489838a01613712565b90975095506020880135915080821115613ebc578485fd5b50613cb588828901613712565b60008060008060008060006080888a031215613ee3578081fd5b87356001600160401b0380821115613ef9578283fd5b613f058b838c01613712565b909950975060208a0135915080821115613f1d578283fd5b613d278b838c01613712565b600080600060408486031215613f3d578081fd5b83356001600160401b03811115613f52578182fd5b613d7b86828701613712565b600060208284031215613f6f578081fd5b81356001600160401b03811115613f84578182fd5b8201601f81018413613f94578182fd5b610b7d84823560208401613640565b600080600060408486031215613fb7578081fd5b83356001600160401b0380821115613fcd578283fd5b9085019060808288031215613fe0578283fd5b90935060208501359080821115613ff5578283fd5b5061400286828701613712565b9497909650939450505050565b600060208284031215614020578081fd5b5035919050565b60008060006040848603121561403b578081fd5b8335925060208401356001600160401b03811115614057578182fd5b61400286828701613712565b60008060008060608587031215614078578182fd5b8435935060208501356001600160401b03811115614094578283fd5b6140a087828801613712565b9598909750949560400135949350505050565b600080604083850312156140c5578182fd5b50508035926020909101359150565b60008284526020808501945084818502860184845b8781101561414f5783830389528135601e19883603018112614109578687fd5b870180356001600160401b03811115614120578788fd5b80360389131561412e578788fd5b61413b85828985016141a5565b9a87019a94505050908401906001016140e9565b5090979650505050505050565b60008282518085526020808601955080818302840101818601855b8481101561414f57601f198684030189526141938383516141cf565b98840198925090830190600101614177565b60008284528282602086013780602084860101526020601f19601f85011685010190509392505050565b600081518084526141e7816020860160208601614ca1565b601f01601f19169290920160200192915050565b92835260609190911b6bffffffffffffffffffffffff19166020830152603482015260540190565b60008251614235818460208701614ca1565b9190910192915050565b60008451614251818460208901614ca1565b60609490941b6bffffffffffffffffffffffff191691909301908152601481019190915260340192915050565b6000828483379101908152919050565b600083516142a0818460208801614ca1565b8351908301906142b4818360208801614ca1565b01949350505050565b7f19457468657265756d205369676e6564204d6573736167653a0a3332000000008152601c810191909152603c0190565b90815260200190565b918252602082015260400190565b6001600160a01b0391909116815260200190565b6001600160a01b038481168252831660208201526060604082018190526000906130df908301846141cf565b6001600160a01b039384168152919092166020820152604081019190915260600190565b6001600160a01b038681168252851660208201526040810184905260806060820181905260009061439d90830184866141a5565b979650505050505050565b6001600160a01b038581168252841660208201526040810183905260806060820181905260009061271e908301846141cf565b6000606082526143ef6060830187896140d4565b82810360208401526144028186886140d4565b9150508260408301529695505050505050565b600060208252610c49602083018461415c565b60006040825261443b604083018561415c565b8281036020840152610c45818561415c565b901515815260200190565b93845260ff9290921660208401526040830152606082015260800190565b6001600160e01b031991909116815260200190565b600060208252610c4960208301846141cf565b600060208252610b7d6020830184866141a5565b6000606082526144c66060830187896141a5565b82810360208401526144028186886141a5565b6000604082526144ec60408301856141cf565b8281036020840152610c4581856141cf565b60208082526018908201527f45434453413a20696e76616c6964207369676e61747572650000000000000000604082015260600190565b6020808252601f908201527f45434453413a20696e76616c6964207369676e6174757265206c656e67746800604082015260600190565b60208082526029908201527f52656769737472793a2053454e4445525f49535f4e4f545f415050524f5645446040820152682fa7a92fa7aba722a960b91b606082015260800190565b60208082526032908201527f4552433732313a207472616e7366657220746f206e6f6e20455243373231526560408201527131b2b4bb32b91034b6b83632b6b2b73a32b960711b606082015260800190565b6020808252601c908201527f5265636f726453746f726167653a204b45595f4e4f545f464f554e4400000000604082015260600190565b6020808252601c908201527f4552433732313a20746f6b656e20616c7265616479206d696e74656400000000604082015260600190565b60208082526024908201527f4552433732313a207472616e7366657220746f20746865207a65726f206164646040820152637265737360e01b606082015260800190565b60208082526019908201527f4552433732313a20617070726f766520746f2063616c6c657200000000000000604082015260600190565b60208082526022908201527f45434453413a20696e76616c6964207369676e6174757265202773272076616c604082015261756560f01b606082015260800190565b60208082526027908201527f52656769737472793a2053454e4445525f49535f4e4f545f4d494e54494e475f60408201526626a0a720a3a2a960c91b606082015260800190565b6020808252602c908201527f4552433732313a206f70657261746f7220717565727920666f72206e6f6e657860408201526b34b9ba32b73a103a37b5b2b760a11b606082015260800190565b60208082526017908201527f52656769737472793a20544f4b454e5f494e56414c4944000000000000000000604082015260600190565b60208082526038908201527f4552433732313a20617070726f76652063616c6c6572206973206e6f74206f7760408201527f6e6572206e6f7220617070726f76656420666f7220616c6c0000000000000000606082015260800190565b6020808252602a908201527f4552433732313a2062616c616e636520717565727920666f7220746865207a65604082015269726f206164647265737360b01b606082015260800190565b60208082526029908201527f4552433732313a206f776e657220717565727920666f72206e6f6e657869737460408201526832b73a103a37b5b2b760b91b606082015260800190565b6020808252602e908201527f496e697469616c697a61626c653a20636f6e747261637420697320616c72656160408201526d191e481a5b9a5d1a585b1a5e995960921b606082015260800190565b60208082526022908201527f45434453413a20696e76616c6964207369676e6174757265202776272076616c604082015261756560f01b606082015260800190565b6020808252818101527f4552433732313a206d696e7420746f20746865207a65726f2061646472657373604082015260600190565b6020808252602c908201527f4552433732313a20617070726f76656420717565727920666f72206e6f6e657860408201526b34b9ba32b73a103a37b5b2b760a11b606082015260800190565b60208082526026908201527f52656769737472793a20524f4f545f434841494e5f4d414e454745525f4e4f546040820152655f454d50545960d01b606082015260800190565b60208082526029908201527f4552433732313a207472616e73666572206f6620746f6b656e2074686174206960408201526839903737ba1037bbb760b91b606082015260800190565b6020808252602f908201527f4552433732314d657461646174613a2055524920717565727920666f72206e6f60408201526e3732bc34b9ba32b73a103a37b5b2b760891b606082015260800190565b60208082526027908201527f554e535265676973747279466f727761726465723a205349474e41545552455f6040820152661253959053125160ca1b606082015260800190565b60208082526021908201527f4552433732313a20617070726f76616c20746f2063757272656e74206f776e656040820152603960f91b606082015260800190565b60208082526015908201527452656769737472793a204c4142454c5f454d50545960581b604082015260600190565b6000808335601e19843603018112614ba8578283fd5b8301803591506001600160401b03821115614bc1578283fd5b6020019150368190038213156136fb57600080fd5b60008219821115614be957614be9614d37565b500190565b600082614bfd57614bfd614d4d565b500490565b600082821015614c1457614c14614d37565b500390565b600060808236031215614c2a578081fd5b604051608081016001600160401b038282108183111715614c4d57614c4d614d63565b8160405284359150614c5e82614d79565b81835260208501356020840152604085013560408401526060850135915080821115614c88578384fd5b50614c9536828601613751565b60608301525092915050565b60005b83811015614cbc578181015183820152602001614ca4565b838111156115dd5750506000910152565b600281046001821680614ce157607f821691505b60208210811415614d0257634e487b7160e01b600052602260045260246000fd5b50919050565b6000600019821415614d1c57614d1c614d37565b5060010190565b600082614d3257614d32614d4d565b500690565b634e487b7160e01b600052601160045260246000fd5b634e487b7160e01b600052601260045260246000fd5b634e487b7160e01b600052604160045260246000fd5b6001600160a01b03811681146110ab57600080fd5b6001600160e01b0319811681146110ab57600080fdfea164736f6c6343000800000a",
  "linkReferences": {},
  "deployedLinkReferences": {}
}