{
  "_format": "hh-sol-artifact-1",
  "contractName": "UNSRegistry",
  "sourceName": "contracts/UNSRegistry.sol",
  "abi": [
    {
      "anonymous": false,
      "inputs": [
        {
          "indexed": false,
          "internalType": "address",
          "name": "previousAdmin",
          "type": "address"
        },
        {
          "indexed": false,
          "internalType": "address",
          "name": "newAdmin",
          "type": "address"
        }
      ],
      "name": "AdminChanged",
      "type": "event"
    },
    {
      "anonymous": false,
      "inputs": [
        {
          "indexed": true,
          "internalType": "address",
          "name": "owner",
          "type": "address"
        },
        {
          "indexed": true,
          "internalType": "address",
          "name": "approved",
          "type": "address"
        },
        {
          "indexed": true,
          "internalType": "uint256",
          "name": "tokenId",
          "type": "uint256"
        }
      ],
      "name": "Approval",
      "type": "event"
    },
    {
      "anonymous": false,
      "inputs": [
        {
          "indexed": true,
          "internalType": "address",
          "name": "owner",
          "type": "address"
        },
        {
          "indexed": true,
          "internalType": "address",
          "name": "operator",
          "type": "address"
        },
        {
          "indexed": false,
          "internalType": "bool",
          "name": "approved",
          "type": "bool"
        }
      ],
      "name": "ApprovalForAll",
      "type": "event"
    },
    {
      "anonymous": false,
      "inputs": [
        {
          "indexed": false,
          "internalType": "uint8",
          "name": "version",
          "type": "uint8"
        }
      ],
      "name": "Initialized",
      "type": "event"
    },
    {
      "anonymous": false,
      "inputs": [
        {
          "indexed": true,
          "internalType": "uint256",
          "name": "tokenId",
          "type": "uint256"
        },
        {
          "indexed": true,
          "internalType": "string",
          "name": "keyIndex",
          "type": "string"
        },
        {
          "indexed": false,
          "internalType": "string",
          "name": "key",
          "type": "string"
        }
      ],
      "name": "NewKey",
      "type": "event"
    },
    {
      "anonymous": false,
      "inputs": [
        {
          "indexed": true,
          "internalType": "uint256",
          "name": "tokenId",
          "type": "uint256"
        },
        {
          "indexed": false,
          "internalType": "string",
          "name": "uri",
          "type": "string"
        }
      ],
      "name": "NewURI",
      "type": "event"
    },
    {
      "anonymous": false,
      "inputs": [
        {
          "indexed": false,
          "internalType": "string",
          "name": "prefix",
          "type": "string"
        }
      ],
      "name": "NewURIPrefix",
      "type": "event"
    },
    {
      "anonymous": false,
      "inputs": [
        {
          "indexed": true,
          "internalType": "address",
          "name": "addr",
          "type": "address"
        }
      ],
      "name": "RemoveReverse",
      "type": "event"
    },
    {
      "anonymous": false,
      "inputs": [
        {
          "indexed": true,
          "internalType": "uint256",
          "name": "tokenId",
          "type": "uint256"
        }
      ],
      "name": "ResetRecords",
      "type": "event"
    },
    {
      "anonymous": false,
      "inputs": [
        {
          "indexed": true,
          "internalType": "uint256",
          "name": "tokenId",
          "type": "uint256"
        },
        {
          "indexed": true,
          "internalType": "string",
          "name": "keyIndex",
          "type": "string"
        },
        {
          "indexed": true,
          "internalType": "string",
          "name": "valueIndex",
          "type": "string"
        },
        {
          "indexed": false,
          "internalType": "string",
          "name": "key",
          "type": "string"
        },
        {
          "indexed": false,
          "internalType": "string",
          "name": "value",
          "type": "string"
        }
      ],
      "name": "Set",
      "type": "event"
    },
    {
      "anonymous": false,
      "inputs": [
        {
          "indexed": true,
          "internalType": "address",
          "name": "addr",
          "type": "address"
        },
        {
          "indexed": true,
          "internalType": "uint256",
          "name": "tokenId",
          "type": "uint256"
        }
      ],
      "name": "SetReverse",
      "type": "event"
    },
    {
      "anonymous": false,
      "inputs": [
        {
          "indexed": true,
          "internalType": "address",
          "name": "from",
          "type": "address"
        },
        {
          "indexed": true,
          "internalType": "address",
          "name": "to",
          "type": "address"
        },
        {
          "indexed": true,
          "internalType": "uint256",
          "name": "tokenId",
          "type": "uint256"
        }
      ],
      "name": "Transfer",
      "type": "event"
    },
    {
      "anonymous": false,
      "inputs": [
        {
          "indexed": true,
          "internalType": "address",
          "name": "implementation",
          "type": "address"
        }
      ],
      "name": "Upgraded",
      "type": "event"
    },
    {
      "anonymous": false,
      "inputs": [
        {
          "indexed": true,
          "internalType": "address",
          "name": "user",
          "type": "address"
        },
        {
          "indexed": false,
          "internalType": "uint256[]",
          "name": "tokenIds",
          "type": "uint256[]"
        }
      ],
      "name": "WithdrawnBatch",
      "type": "event"
    },
    {
      "inputs": [],
      "name": "BATCH_LIMIT",
      "outputs": [
        {
          "internalType": "uint256",
          "name": "",
          "type": "uint256"
        }
      ],
      "stateMutability": "view",
      "type": "function"
    },
    {
      "inputs": [],
      "name": "NAME",
      "outputs": [
        {
          "internalType": "string",
          "name": "",
          "type": "string"
        }
      ],
      "stateMutability": "view",
      "type": "function"
    },
    {
      "inputs": [],
      "name": "VERSION",
      "outputs": [
        {
          "internalType": "string",
          "name": "",
          "type": "string"
        }
      ],
      "stateMutability": "view",
      "type": "function"
    },
    {
      "inputs": [
        {
          "internalType": "string",
          "name": "key",
          "type": "string"
        }
      ],
      "name": "addKey",
      "outputs": [],
      "stateMutability": "nonpayable",
      "type": "function"
    },
    {
      "inputs": [
        {
          "internalType": "address",
          "name": "to",
          "type": "address"
        },
        {
          "internalType": "uint256",
          "name": "tokenId",
          "type": "uint256"
        }
      ],
      "name": "approve",
      "outputs": [],
      "stateMutability": "nonpayable",
      "type": "function"
    },
    {
      "inputs": [
        {
          "internalType": "address",
          "name": "owner",
          "type": "address"
        }
      ],
      "name": "balanceOf",
      "outputs": [
        {
          "internalType": "uint256",
          "name": "",
          "type": "uint256"
        }
      ],
      "stateMutability": "view",
      "type": "function"
    },
    {
      "inputs": [
        {
          "internalType": "uint256",
          "name": "tokenId",
          "type": "uint256"
        }
      ],
      "name": "burn",
      "outputs": [],
      "stateMutability": "nonpayable",
      "type": "function"
    },
    {
      "inputs": [
        {
          "internalType": "uint256",
          "name": "tokenId",
          "type": "uint256"
        },
        {
          "internalType": "string",
          "name": "label",
          "type": "string"
        }
      ],
      "name": "childIdOf",
      "outputs": [
        {
          "internalType": "uint256",
          "name": "",
          "type": "uint256"
        }
      ],
      "stateMutability": "pure",
      "type": "function"
    },
    {
      "inputs": [
        {
          "internalType": "address",
          "name": "user",
          "type": "address"
        },
        {
          "internalType": "bytes",
          "name": "depositData",
          "type": "bytes"
        }
      ],
      "name": "deposit",
      "outputs": [],
      "stateMutability": "nonpayable",
      "type": "function"
    },
    {
      "inputs": [
        {
          "internalType": "uint256",
          "name": "tokenId",
          "type": "uint256"
        }
      ],
      "name": "depositToPolygon",
      "outputs": [],
      "stateMutability": "nonpayable",
      "type": "function"
    },
    {
      "inputs": [
        {
          "components": [
            {
              "internalType": "address",
              "name": "from",
              "type": "address"
            },
            {
              "internalType": "uint256",
              "name": "nonce",
              "type": "uint256"
            },
            {
              "internalType": "uint256",
              "name": "tokenId",
              "type": "uint256"
            },
            {
              "internalType": "bytes",
              "name": "data",
              "type": "bytes"
            }
          ],
          "internalType": "struct IForwarder.ForwardRequest",
          "name": "req",
          "type": "tuple"
        },
        {
          "internalType": "bytes",
          "name": "signature",
          "type": "bytes"
        }
      ],
      "name": "execute",
      "outputs": [
        {
          "internalType": "bytes",
          "name": "",
          "type": "bytes"
        }
      ],
      "stateMutability": "nonpayable",
      "type": "function"
    },
    {
      "inputs": [
        {
          "internalType": "uint256",
          "name": "tokenId",
          "type": "uint256"
        }
      ],
      "name": "exists",
      "outputs": [
        {
          "internalType": "bool",
          "name": "",
          "type": "bool"
        }
      ],
      "stateMutability": "view",
      "type": "function"
    },
    {
      "inputs": [
        {
          "internalType": "string",
          "name": "key",
          "type": "string"
        },
        {
          "internalType": "uint256",
          "name": "tokenId",
          "type": "uint256"
        }
      ],
      "name": "get",
      "outputs": [
        {
          "internalType": "string",
          "name": "value",
          "type": "string"
        }
      ],
      "stateMutability": "view",
      "type": "function"
    },
    {
      "inputs": [
        {
          "internalType": "uint256",
          "name": "tokenId",
          "type": "uint256"
        }
      ],
      "name": "getApproved",
      "outputs": [
        {
          "internalType": "address",
          "name": "",
          "type": "address"
        }
      ],
      "stateMutability": "view",
      "type": "function"
    },
    {
      "inputs": [
        {
          "internalType": "uint256",
          "name": "keyHash",
          "type": "uint256"
        },
        {
          "internalType": "uint256",
          "name": "tokenId",
          "type": "uint256"
        }
      ],
      "name": "getByHash",
      "outputs": [
        {
          "internalType": "string",
          "name": "key",
          "type": "string"
        },
        {
          "internalType": "string",
          "name": "value",
          "type": "string"
        }
      ],
      "stateMutability": "view",
      "type": "function"
    },
    {
      "inputs": [
        {
          "internalType": "uint256",
          "name": "keyHash",
          "type": "uint256"
        }
      ],
      "name": "getKey",
      "outputs": [
        {
          "internalType": "string",
          "name": "",
          "type": "string"
        }
      ],
      "stateMutability": "view",
      "type": "function"
    },
    {
      "inputs": [
        {
          "internalType": "uint256[]",
          "name": "hashes",
          "type": "uint256[]"
        }
      ],
      "name": "getKeys",
      "outputs": [
        {
          "internalType": "string[]",
          "name": "values",
          "type": "string[]"
        }
      ],
      "stateMutability": "view",
      "type": "function"
    },
    {
      "inputs": [
        {
          "internalType": "string[]",
          "name": "keys",
          "type": "string[]"
        },
        {
          "internalType": "uint256",
          "name": "tokenId",
          "type": "uint256"
        }
      ],
      "name": "getMany",
      "outputs": [
        {
          "internalType": "string[]",
          "name": "values",
          "type": "string[]"
        }
      ],
      "stateMutability": "view",
      "type": "function"
    },
    {
      "inputs": [
        {
          "internalType": "uint256[]",
          "name": "keyHashes",
          "type": "uint256[]"
        },
        {
          "internalType": "uint256",
          "name": "tokenId",
          "type": "uint256"
        }
      ],
      "name": "getManyByHash",
      "outputs": [
        {
          "internalType": "string[]",
          "name": "keys",
          "type": "string[]"
        },
        {
          "internalType": "string[]",
          "name": "values",
          "type": "string[]"
        }
      ],
      "stateMutability": "view",
      "type": "function"
    },
    {
      "inputs": [
        {
          "internalType": "address",
          "name": "mintingManager",
          "type": "address"
        }
      ],
      "name": "initialize",
      "outputs": [],
      "stateMutability": "nonpayable",
      "type": "function"
    },
    {
      "inputs": [
        {
          "internalType": "address",
          "name": "owner",
          "type": "address"
        },
        {
          "internalType": "address",
          "name": "operator",
          "type": "address"
        }
      ],
      "name": "isApprovedForAll",
      "outputs": [
        {
          "internalType": "bool",
          "name": "",
          "type": "bool"
        }
      ],
      "stateMutability": "view",
      "type": "function"
    },
    {
      "inputs": [
        {
          "internalType": "address",
          "name": "spender",
          "type": "address"
        },
        {
          "internalType": "uint256",
          "name": "tokenId",
          "type": "uint256"
        }
      ],
      "name": "isApprovedOrOwner",
      "outputs": [
        {
          "internalType": "bool",
          "name": "",
          "type": "bool"
        }
      ],
      "stateMutability": "view",
      "type": "function"
    },
    {
      "inputs": [
        {
          "internalType": "address",
          "name": "forwarder",
          "type": "address"
        }
      ],
      "name": "isTrustedForwarder",
      "outputs": [
        {
          "internalType": "bool",
          "name": "",
          "type": "bool"
        }
      ],
      "stateMutability": "view",
      "type": "function"
    },
    {
      "inputs": [
        {
          "internalType": "address",
          "name": "user",
          "type": "address"
        },
        {
          "internalType": "uint256",
          "name": "tokenId",
          "type": "uint256"
        }
      ],
      "name": "mint",
      "outputs": [],
      "stateMutability": "nonpayable",
      "type": "function"
    },
    {
      "inputs": [
        {
          "internalType": "address",
          "name": "user",
          "type": "address"
        },
        {
          "internalType": "uint256",
          "name": "tokenId",
          "type": "uint256"
        },
        {
          "internalType": "bytes",
          "name": "",
          "type": "bytes"
        }
      ],
      "name": "mint",
      "outputs": [],
      "stateMutability": "nonpayable",
      "type": "function"
    },
    {
      "inputs": [
        {
          "internalType": "address",
          "name": "to",
          "type": "address"
        },
        {
          "internalType": "uint256",
          "name": "tokenId",
          "type": "uint256"
        },
        {
          "internalType": "string",
          "name": "uri",
          "type": "string"
        }
      ],
      "name": "mint",
      "outputs": [],
      "stateMutability": "nonpayable",
      "type": "function"
    },
    {
      "inputs": [
        {
          "internalType": "address",
          "name": "to",
          "type": "address"
        },
        {
          "internalType": "uint256",
          "name": "tokenId",
          "type": "uint256"
        },
        {
          "internalType": "string",
          "name": "uri",
          "type": "string"
        },
        {
          "internalType": "string[]",
          "name": "keys",
          "type": "string[]"
        },
        {
          "internalType": "string[]",
          "name": "values",
          "type": "string[]"
        }
      ],
      "name": "mintWithRecords",
      "outputs": [],
      "stateMutability": "nonpayable",
      "type": "function"
    },
    {
      "inputs": [],
      "name": "name",
      "outputs": [
        {
          "internalType": "string",
          "name": "",
          "type": "string"
        }
      ],
      "stateMutability": "view",
      "type": "function"
    },
    {
      "inputs": [
        {
          "internalType": "uint256",
          "name": "tokenId",
          "type": "uint256"
        }
      ],
      "name": "nonceOf",
      "outputs": [
        {
          "internalType": "uint256",
          "name": "",
          "type": "uint256"
        }
      ],
      "stateMutability": "view",
      "type": "function"
    },
    {
      "inputs": [
        {
          "internalType": "address",
          "name": "",
          "type": "address"
        },
        {
          "internalType": "address",
          "name": "from",
          "type": "address"
        },
        {
          "internalType": "uint256",
          "name": "tokenId",
          "type": "uint256"
        },
        {
          "internalType": "bytes",
          "name": "data",
          "type": "bytes"
        }
      ],
      "name": "onERC721Received",
      "outputs": [
        {
          "internalType": "bytes4",
          "name": "",
          "type": "bytes4"
        }
      ],
      "stateMutability": "nonpayable",
      "type": "function"
    },
    {
      "inputs": [
        {
          "internalType": "uint256",
          "name": "tokenId",
          "type": "uint256"
        }
      ],
      "name": "ownerOf",
      "outputs": [
        {
          "internalType": "address",
          "name": "",
          "type": "address"
        }
      ],
      "stateMutability": "view",
      "type": "function"
    },
    {
      "inputs": [
        {
          "internalType": "string[]",
          "name": "keys",
          "type": "string[]"
        },
        {
          "internalType": "string[]",
          "name": "values",
          "type": "string[]"
        },
        {
          "internalType": "uint256",
          "name": "tokenId",
          "type": "uint256"
        }
      ],
      "name": "reconfigure",
      "outputs": [],
      "stateMutability": "nonpayable",
      "type": "function"
    },
    {
      "inputs": [],
      "name": "removeReverse",
      "outputs": [],
      "stateMutability": "nonpayable",
      "type": "function"
    },
    {
      "inputs": [
        {
          "internalType": "uint256",
          "name": "tokenId",
          "type": "uint256"
        }
      ],
      "name": "reset",
      "outputs": [],
      "stateMutability": "nonpayable",
      "type": "function"
    },
    {
      "inputs": [
        {
          "internalType": "uint256",
          "name": "tokenId",
          "type": "uint256"
        }
      ],
      "name": "resolverOf",
      "outputs": [
        {
          "internalType": "address",
          "name": "",
          "type": "address"
        }
      ],
      "stateMutability": "view",
      "type": "function"
    },
    {
      "inputs": [
        {
          "internalType": "address",
          "name": "addr",
          "type": "address"
        }
      ],
      "name": "reverseOf",
      "outputs": [
        {
          "internalType": "uint256",
          "name": "",
          "type": "uint256"
        }
      ],
      "stateMutability": "view",
      "type": "function"
    },
    {
      "inputs": [],
      "name": "root",
      "outputs": [
        {
          "internalType": "uint256",
          "name": "",
          "type": "uint256"
        }
      ],
      "stateMutability": "pure",
      "type": "function"
    },
    {
      "inputs": [
        {
          "internalType": "address",
          "name": "to",
          "type": "address"
        },
        {
          "internalType": "uint256",
          "name": "tokenId",
          "type": "uint256"
        },
        {
          "internalType": "string",
          "name": "uri",
          "type": "string"
        },
        {
          "internalType": "bytes",
          "name": "data",
          "type": "bytes"
        }
      ],
      "name": "safeMint",
      "outputs": [],
      "stateMutability": "nonpayable",
      "type": "function"
    },
    {
      "inputs": [
        {
          "internalType": "address",
          "name": "to",
          "type": "address"
        },
        {
          "internalType": "uint256",
          "name": "tokenId",
          "type": "uint256"
        },
        {
          "internalType": "string",
          "name": "uri",
          "type": "string"
        }
      ],
      "name": "safeMint",
      "outputs": [],
      "stateMutability": "nonpayable",
      "type": "function"
    },
    {
      "inputs": [
        {
          "internalType": "address",
          "name": "to",
          "type": "address"
        },
        {
          "internalType": "uint256",
          "name": "tokenId",
          "type": "uint256"
        },
        {
          "internalType": "string",
          "name": "uri",
          "type": "string"
        },
        {
          "internalType": "string[]",
          "name": "keys",
          "type": "string[]"
        },
        {
          "internalType": "string[]",
          "name": "values",
          "type": "string[]"
        }
      ],
      "name": "safeMintWithRecords",
      "outputs": [],
      "stateMutability": "nonpayable",
      "type": "function"
    },
    {
      "inputs": [
        {
          "internalType": "address",
          "name": "to",
          "type": "address"
        },
        {
          "internalType": "uint256",
          "name": "tokenId",
          "type": "uint256"
        },
        {
          "internalType": "string",
          "name": "uri",
          "type": "string"
        },
        {
          "internalType": "string[]",
          "name": "keys",
          "type": "string[]"
        },
        {
          "internalType": "string[]",
          "name": "values",
          "type": "string[]"
        },
        {
          "internalType": "bytes",
          "name": "data",
          "type": "bytes"
        }
      ],
      "name": "safeMintWithRecords",
      "outputs": [],
      "stateMutability": "nonpayable",
      "type": "function"
    },
    {
      "inputs": [
        {
          "internalType": "address",
          "name": "from",
          "type": "address"
        },
        {
          "internalType": "address",
          "name": "to",
          "type": "address"
        },
        {
          "internalType": "uint256",
          "name": "tokenId",
          "type": "uint256"
        }
      ],
      "name": "safeTransferFrom",
      "outputs": [],
      "stateMutability": "nonpayable",
      "type": "function"
    },
    {
      "inputs": [
        {
          "internalType": "address",
          "name": "from",
          "type": "address"
        },
        {
          "internalType": "address",
          "name": "to",
          "type": "address"
        },
        {
          "internalType": "uint256",
          "name": "tokenId",
          "type": "uint256"
        },
        {
          "internalType": "bytes",
          "name": "data",
          "type": "bytes"
        }
      ],
      "name": "safeTransferFrom",
      "outputs": [],
      "stateMutability": "nonpayable",
      "type": "function"
    },
    {
      "inputs": [
        {
          "internalType": "string",
          "name": "key",
          "type": "string"
        },
        {
          "internalType": "string",
          "name": "value",
          "type": "string"
        },
        {
          "internalType": "uint256",
          "name": "tokenId",
          "type": "uint256"
        }
      ],
      "name": "set",
      "outputs": [],
      "stateMutability": "nonpayable",
      "type": "function"
    },
    {
      "inputs": [
        {
          "internalType": "address",
          "name": "operator",
          "type": "address"
        },
        {
          "internalType": "bool",
          "name": "approved",
          "type": "bool"
        }
      ],
      "name": "setApprovalForAll",
      "outputs": [],
      "stateMutability": "nonpayable",
      "type": "function"
    },
    {
      "inputs": [
        {
          "internalType": "uint256",
          "name": "keyHash",
          "type": "uint256"
        },
        {
          "internalType": "string",
          "name": "value",
          "type": "string"
        },
        {
          "internalType": "uint256",
          "name": "tokenId",
          "type": "uint256"
        }
      ],
      "name": "setByHash",
      "outputs": [],
      "stateMutability": "nonpayable",
      "type": "function"
    },
    {
      "inputs": [
        {
          "internalType": "address",
          "name": "registry",
          "type": "address"
        }
      ],
      "name": "setCNSRegistry",
      "outputs": [],
      "stateMutability": "nonpayable",
      "type": "function"
    },
    {
      "inputs": [
        {
          "internalType": "address",
          "name": "clientChainManager",
          "type": "address"
        }
      ],
      "name": "setChildChainManager",
      "outputs": [],
      "stateMutability": "nonpayable",
      "type": "function"
    },
    {
      "inputs": [
        {
          "internalType": "string[]",
          "name": "keys",
          "type": "string[]"
        },
        {
          "internalType": "string[]",
          "name": "values",
          "type": "string[]"
        },
        {
          "internalType": "uint256",
          "name": "tokenId",
          "type": "uint256"
        }
      ],
      "name": "setMany",
      "outputs": [],
      "stateMutability": "nonpayable",
      "type": "function"
    },
    {
      "inputs": [
        {
          "internalType": "uint256[]",
          "name": "keyHashes",
          "type": "uint256[]"
        },
        {
          "internalType": "string[]",
          "name": "values",
          "type": "string[]"
        },
        {
          "internalType": "uint256",
          "name": "tokenId",
          "type": "uint256"
        }
      ],
      "name": "setManyByHash",
      "outputs": [],
      "stateMutability": "nonpayable",
      "type": "function"
    },
    {
      "inputs": [
        {
          "internalType": "address",
          "name": "to",
          "type": "address"
        },
        {
          "internalType": "uint256",
          "name": "tokenId",
          "type": "uint256"
        }
      ],
      "name": "setOwner",
      "outputs": [],
      "stateMutability": "nonpayable",
      "type": "function"
    },
    {
      "inputs": [
        {
          "internalType": "uint256",
          "name": "tokenId",
          "type": "uint256"
        }
      ],
      "name": "setReverse",
      "outputs": [],
      "stateMutability": "nonpayable",
      "type": "function"
    },
    {
      "inputs": [
        {
          "internalType": "address",
          "name": "rootChainManager",
          "type": "address"
        }
      ],
      "name": "setRootChainManager",
      "outputs": [],
      "stateMutability": "nonpayable",
      "type": "function"
    },
    {
      "inputs": [
        {
          "internalType": "string",
          "name": "prefix",
          "type": "string"
        }
      ],
      "name": "setTokenURIPrefix",
      "outputs": [],
      "stateMutability": "nonpayable",
      "type": "function"
    },
    {
      "inputs": [
        {
          "internalType": "bytes4",
          "name": "interfaceId",
          "type": "bytes4"
        }
      ],
      "name": "supportsInterface",
      "outputs": [
        {
          "internalType": "bool",
          "name": "",
          "type": "bool"
        }
      ],
      "stateMutability": "view",
      "type": "function"
    },
    {
      "inputs": [],
      "name": "symbol",
      "outputs": [
        {
          "internalType": "string",
          "name": "",
          "type": "string"
        }
      ],
      "stateMutability": "view",
      "type": "function"
    },
    {
      "inputs": [
        {
          "internalType": "uint256",
          "name": "tokenId",
          "type": "uint256"
        }
      ],
      "name": "tokenURI",
      "outputs": [
        {
          "internalType": "string",
          "name": "",
          "type": "string"
        }
      ],
      "stateMutability": "view",
      "type": "function"
    },
    {
      "inputs": [
        {
          "internalType": "address",
          "name": "from",
          "type": "address"
        },
        {
          "internalType": "address",
          "name": "to",
          "type": "address"
        },
        {
          "internalType": "uint256",
          "name": "tokenId",
          "type": "uint256"
        }
      ],
      "name": "transferFrom",
      "outputs": [],
      "stateMutability": "nonpayable",
      "type": "function"
    },
    {
      "inputs": [
        {
          "internalType": "uint256[]",
          "name": "tokenIds",
          "type": "uint256[]"
        }
      ],
      "name": "upgradeAll",
      "outputs": [],
      "stateMutability": "nonpayable",
      "type": "function"
    },
    {
      "inputs": [
        {
          "components": [
            {
              "internalType": "address",
              "name": "from",
              "type": "address"
            },
            {
              "internalType": "uint256",
              "name": "nonce",
              "type": "uint256"
            },
            {
              "internalType": "uint256",
              "name": "tokenId",
              "type": "uint256"
            },
            {
              "internalType": "bytes",
              "name": "data",
              "type": "bytes"
            }
          ],
          "internalType": "struct IForwarder.ForwardRequest",
          "name": "req",
          "type": "tuple"
        },
        {
          "internalType": "bytes",
          "name": "signature",
          "type": "bytes"
        }
      ],
      "name": "verify",
      "outputs": [
        {
          "internalType": "bool",
          "name": "",
          "type": "bool"
        }
      ],
      "stateMutability": "view",
      "type": "function"
    },
    {
      "inputs": [
        {
          "internalType": "uint256",
          "name": "tokenId",
          "type": "uint256"
        }
      ],
      "name": "withdraw",
      "outputs": [],
      "stateMutability": "nonpayable",
      "type": "function"
    },
    {
      "inputs": [
        {
          "internalType": "uint256[]",
          "name": "tokenIds",
          "type": "uint256[]"
        }
      ],
      "name": "withdrawBatch",
      "outputs": [],
      "stateMutability": "nonpayable",
      "type": "function"
    },
    {
      "inputs": [
        {
          "internalType": "bytes",
          "name": "inputData",
          "type": "bytes"
        },
        {
          "internalType": "uint256",
          "name": "tokenId",
          "type": "uint256"
        },
        {
          "internalType": "string[]",
          "name": "keys",
          "type": "string[]"
        },
        {
          "internalType": "string[]",
          "name": "values",
          "type": "string[]"
        }
      ],
      "name": "withdrawFromPolygon",
      "outputs": [],
      "stateMutability": "nonpayable",
      "type": "function"
    },
    {
      "inputs": [
        {
          "internalType": "uint256",
          "name": "tokenId",
          "type": "uint256"
        }
      ],
      "name": "withdrawWithMetadata",
      "outputs": [],
      "stateMutability": "nonpayable",
      "type": "function"
    }
  ],
  "bytecode": "0x608060405234801561001057600080fd5b506153f8806100206000396000f3fe608060405234801561001057600080fd5b50600436106103d05760003560e01c80637f139a00116101ff578063b85afd281161011a578063d3fc9864116100ad578063efda4d3e1161007c578063efda4d3e14610905578063f25eb5c114610918578063f5c1f76e14610920578063ffa1ad741461093357600080fd5b8063d3fc98641461089c578063e985e9c5146108af578063ebf0c717146108eb578063ec129eea146108f257600080fd5b8063c87b56dd116100e9578063c87b56dd14610850578063cd279c7c14610863578063ce92b33e14610876578063cf2c52cb1461088957600080fd5b8063b85afd28146107f6578063b88d4fde14610817578063bb5b27e11461082a578063c4d66de81461083d57600080fd5b8063a3f4df7e11610192578063ae31844a11610161578063ae31844a146107aa578063b0f59177146107bd578063b3f9e4cb146107d0578063b55bc617146107e357600080fd5b8063a3f4df7e14610758578063a424740014610784578063a5e584dc146104ea578063ab3b87fe1461079757600080fd5b806395d89b41116101ce57806395d89b411461071757806399e0dd7c1461071f5780639c8d415614610732578063a22cb4651461074557600080fd5b80637f139a00146106d657806394d008ef146106e95780639508b1c4146106fc5780639559c0bd1461070f57600080fd5b8063430c2081116102ef578063638e5c781161028257806370a082311161025157806370a0823114610673578063728a44d814610686578063764a81bb146106995780637e37479e146106ac57600080fd5b8063638e5c78146105fd578063672b9f811461061057806368b62d32146106315780636ccbae5f1461065257600080fd5b80634f558e79116102be5780634f558e79146105a857806350382c1a146105bb578063572b6c05146105ce5780636352211e146105ea57600080fd5b8063430c20811461055c5780634348b5621461056f57806347c81699146105825780634a72584d1461059557600080fd5b806323b872dd11610367578063384e9a5511610336578063384e9a551461051057806340c10f191461052357806342842e0e1461053657806342966c681461054957600080fd5b806323b872dd146104c457806327f18975146104d75780632e1a7d4d146104ea578063310bd74b146104fd57600080fd5b8063150b7a02116103a3578063150b7a02146104525780631bd8cc1a1461047e5780631be5e7ed1461049e5780631bf7e13e146104b157600080fd5b806301ffc9a7146103d557806306fdde03146103fd578063081812fc14610412578063095ea7b31461043d575b600080fd5b6103e86103e3366004614a39565b610957565b60405190151581526020015b60405180910390f35b610405610968565b6040516103f49190614f74565b610425610420366004614c7a565b6109fa565b6040516001600160a01b0390911681526020016103f4565b61045061044b3660046145d0565b610a21565b005b61046561046036600461447a565b610a76565b6040516001600160e01b031990911681526020016103f4565b61049161048c3660046148d8565b610bcc565b6040516103f49190614ed5565b6104056104ac366004614ba1565b610cec565b6104056104bf366004614c1b565b610d37565b6104506104d236600461443a565b610e42565b6104506104e5366004614868565b610ec8565b6104506104f8366004614c7a565b610f43565b61045061050b366004614c7a565b610fbf565b61045061051e366004614c7a565b61102d565b6104506105313660046145d0565b611124565b61045061054436600461443a565b611171565b610450610557366004614c7a565b61118c565b6103e861056a3660046145d0565b611203565b61045061057d366004614654565b61120f565b610450610590366004614b43565b611274565b6104506105a3366004614cc2565b6112e6565b6103e86105b6366004614c7a565b61135f565b6104506105c9366004614bd6565b61137e565b6103e86105dc3660046143ca565b6001600160a01b0316301490565b6104256105f8366004614c7a565b6113b1565b61045061060b366004614c7a565b611411565b61062361061e366004614d12565b61145c565b6040516103f4929190614f87565b61064461063f366004614c92565b611474565b6040519081526020016103f4565b610644610660366004614c7a565b6000908152610100602052604090205490565b6106446106813660046143ca565b6114b6565b6104506106943660046143ca565b61153c565b6104506106a73660046143ca565b6115e3565b6106446106ba3660046143ca565b6001600160a01b03166000908152610135602052604090205490565b6104506106e43660046143ca565b611692565b6104506106f73660046145fb565b611731565b61045061070a366004614a71565b61177a565b610644601481565b610405611801565b61045061072d366004614b10565b611810565b610450610740366004614921565b611896565b610450610753366004614553565b611a19565b6104056040518060400160405280600d81526020016c554e533a20526567697374727960981b81525081565b6103e8610792366004614c1b565b611a2b565b6104506107a53660046145d0565b611a76565b6104506107b8366004614921565b611aee565b6104506107cb366004614654565b611bcc565b6104256107de366004614c7a565b611c55565b6104506107f13660046147e0565b611c7f565b6108096108043660046148d8565b611d2f565b6040516103f4929190614ee8565b6104506108253660046144ea565b611e97565b610405610838366004614c7a565b611f11565b61045061084b3660046143ca565b611fb3565b61040561085e366004614c7a565b61212d565b6104506108713660046145fb565b612193565b610450610884366004614868565b61221d565b61045061089736600461457e565b61228f565b6104506108aa3660046145fb565b61236c565b6103e86108bd366004614402565b6001600160a01b039182166000908152606a6020908152604080832093909416825291909152205460ff1690565b6000610644565b610450610900366004614868565b6123e8565b610450610913366004614705565b61245a565b6104506124e8565b61049161092e366004614921565b61256e565b61040560405180604001604052806005815260200164302e352e3160d81b81525081565b60006109628261264b565b92915050565b606060658054610977906152f4565b80601f01602080910402602001604051908101604052809291908181526020018280546109a3906152f4565b80156109f05780601f106109c5576101008083540402835291602001916109f0565b820191906000526020600020905b8154815290600101906020018083116109d357829003601f168201915b5050505050905090565b6000610a058261269b565b506000908152606960205260409020546001600160a01b031690565b8030331415610a5e57610a326126fa565b8114610a595760405162461bcd60e51b8152600401610a50906150c5565b60405180910390fd5b610a67565b610a678161270f565b610a71838361273d565b505050565b60007f8ffb960699dc2ba88f34d0e41c029c3c36c95149679fe1d0153a9582bec92378546001600160a01b0316610aab612860565b6001600160a01b03161415610b6d57610ac2612860565b6001600160a01b03166342966c68856040518263ffffffff1660e01b8152600401610aef91815260200190565b600060405180830381600087803b158015610b0957600080fd5b505af1158015610b1d573d6000803e3d6000fd5b505050821580159150610b375750610b3782840184614a07565b15610b5557610b46308561286f565b610b5085856129bd565b610b5f565b610b5f858561286f565b50630a85bd0160e11b610bc3565b60405162461bcd60e51b815260206004820152602560248201527f52656769737472793a204552433732315f524543454956494e475f50524f4849604482015264109255115160da1b6064820152608401610a50565b95945050505050565b6060826001600160401b03811115610bf457634e487b7160e01b600052604160045260246000fd5b604051908082528060200260200182016040528015610c2757816020015b6060815260200190600190039081610c125790505b50905060005b83811015610ce457610ca6858583818110610c5857634e487b7160e01b600052603260045260246000fd5b9050602002810190610c6a9190615189565b8080601f016020809104026020016040519081016040528093929190818152602001838380828437600092019190915250879250612a5e915050565b828281518110610cc657634e487b7160e01b600052603260045260246000fd5b60200260200101819052508080610cdc9061532f565b915050610c2d565b509392505050565b6060610d2f84848080601f016020809104026020016040519081016040528093929190818152602001838380828437600092019190915250869250612a5e915050565b949350505050565b606060005a9050610d49858585611a2b565b610da55760405162461bcd60e51b815260206004820152602760248201527f554e535265676973747279466f727761726465723a205349474e41545552455f6044820152661253959053125160ca1b6064820152608401610a50565b610e37610db560208701876143ca565b30604088013584610dc960608b018b615189565b8080601f01602080910402602001604051908101604052809392919081815260200183838082843760009201919091525050604080516020601f8e018190048102820181019092528c815292508c91508b9081908401838280828437600092019190915250612a9392505050565b9150505b9392505050565b80610e54610e4e612860565b82612b82565b610e705760405162461bcd60e51b8152600401610a5090614fac565b8130331415610ea457610e816126fa565b8114610e9f5760405162461bcd60e51b8152600401610a50906150c5565b610ead565b610ead8161270f565b610eb683612c00565b610ec1858585612c6d565b5050505050565b80610ed4610e4e612860565b610ef05760405162461bcd60e51b8152600401610a5090614fac565b8130331415610f2457610f016126fa565b8114610f1f5760405162461bcd60e51b8152600401610a50906150c5565b610f2d565b610f2d8161270f565b610f3a8787878787612e14565b50505050505050565b610f4c816113b1565b6001600160a01b0316610f5d612860565b6001600160a01b031614610fb35760405162461bcd60e51b815260206004820152601d60248201527f52656769737472793a20494e56414c49445f544f4b454e5f4f574e45520000006044820152606401610a50565b610fbc81612e93565b50565b80610fcb610e4e612860565b610fe75760405162461bcd60e51b8152600401610a5090614fac565b813033141561101b57610ff86126fa565b81146110165760405162461bcd60e51b8152600401610a50906150c5565b611024565b6110248161270f565b610a7183612c00565b80611036612860565b6001600160a01b0316611048826113b1565b6001600160a01b03161461109e5760405162461bcd60e51b815260206004820152601d60248201527f52656769737472793a2053454e4445525f49535f4e4f545f4f574e45520000006044820152606401610a50565b81303314156110d2576110af6126fa565b81146110cd5760405162461bcd60e51b8152600401610a50906150c5565b6110db565b6110db8161270f565b60008381526101366020526040902054839060ff161561110d5760405162461bcd60e51b8152600401610a5090615047565b61111e611118612860565b85612f3a565b50505050565b61112c612f82565b6001600160a01b031661113d612860565b6001600160a01b0316146111635760405162461bcd60e51b8152600401610a5090615147565b61116d828261286f565b5050565b610a7183838360405180602001604052806000815250611e97565b80611198610e4e612860565b6111b45760405162461bcd60e51b8152600401610a5090614fac565b81303314156111e8576111c56126fa565b81146111e35760405162461bcd60e51b8152600401610a50906150c5565b6111f1565b6111f18161270f565b6111fa83612c00565b610a7183612e93565b6000610e3b8383612b82565b610134546001600160a01b0316611224612860565b6001600160a01b03161461124a5760405162461bcd60e51b8152600401610a509061507e565b61126a888888888888888860405180602001604052806000815250613095565b5050505050505050565b80611280610e4e612860565b61129c5760405162461bcd60e51b8152600401610a5090614fac565b81303314156112d0576112ad6126fa565b81146112cb5760405162461bcd60e51b8152600401610a50906150c5565b6112d9565b6112d98161270f565b610f3a87878787876130f0565b806112f2610e4e612860565b61130e5760405162461bcd60e51b8152600401610a5090614fac565b81303314156113425761131f6126fa565b811461133d5760405162461bcd60e51b8152600401610a50906150c5565b61134b565b61134b8161270f565b611357868686866131cf565b505050505050565b6000818152606760205260408120546001600160a01b03161515610962565b610fbc816040516020016113929190614ddc565b6040516020818303038152906040528051906020012060001c8261326f565b6000818152606760205260408120546001600160a01b0316806109625760405162461bcd60e51b8152602060048201526018602482015277115490cdcc8c4e881a5b9d985b1a59081d1bdad95b88125160421b6044820152606401610a50565b8061141d610e4e612860565b6114395760405162461bcd60e51b8152600401610a5090614fac565b61144b611444612860565b3084612c6d565b61116d611456612860565b836129bd565b606080611469848461329b565b909590945092505050565b6000610d2f8484848080601f0160208091040260200160405190810160405280939291908181526020018383808284376000920191909152506132bc92505050565b60006001600160a01b0382166115205760405162461bcd60e51b815260206004820152602960248201527f4552433732313a2061646472657373207a65726f206973206e6f7420612076616044820152683634b21037bbb732b960b91b6064820152608401610a50565b506001600160a01b031660009081526068602052604090205490565b6000805160206153cc833981519152546001600160a01b0316156115b15760405162461bcd60e51b815260206004820152602660248201527f52656769737472793a20524f4f545f434841494e5f4d414e454745525f4e4f546044820152655f454d50545960d01b6064820152608401610a50565b806000805160206153cc8339815191525b80546001600160a01b0319166001600160a01b039290921691909117905550565b7f8bea9a6f8afd34f4e29c585f854e0cc5161431bf5fc299d468454d33dce53b87546001600160a01b03161561166b5760405162461bcd60e51b815260206004820152602760248201527f52656769737472793a204348494c445f434841494e5f4d414e454745525f4e4f604482015266545f454d50545960c81b6064820152608401610a50565b807f8bea9a6f8afd34f4e29c585f854e0cc5161431bf5fc299d468454d33dce53b876115c2565b7f8ffb960699dc2ba88f34d0e41c029c3c36c95149679fe1d0153a9582bec92378546001600160a01b03161561170a5760405162461bcd60e51b815260206004820181905260248201527f52656769737472793a20434e535f52454749535452595f4e4f545f454d5054596044820152606401610a50565b807f8ffb960699dc2ba88f34d0e41c029c3c36c95149679fe1d0153a9582bec923786115c2565b611739612f82565b6001600160a01b031661174a612860565b6001600160a01b0316146117705760405162461bcd60e51b8152600401610a5090615147565b61111e848461286f565b6117848787613369565b61178c612860565b6001600160a01b031661179e866113b1565b6001600160a01b0316146117f45760405162461bcd60e51b815260206004820152601d60248201527f52656769737472793a2053454e4445525f49535f4e4f545f4f574e45520000006044820152606401610a50565b610f3a84848484896133d8565b606060668054610977906152f4565b610134546001600160a01b0316611825612860565b6001600160a01b03161461184b5760405162461bcd60e51b8152600401610a509061507e565b61185861013383836141aa565b507f4b120d6a959a84a520fa48f5f937cca0e79129423487af7901213b5d2e89313b828260405161188a929190614f60565b60405180910390a15050565b8060148111156118e85760405162461bcd60e51b815260206004820152601d60248201527f52656769737472793a20455843454544535f42415443485f4c494d49540000006044820152606401610a50565b60005b818110156119c957600084848381811061191557634e487b7160e01b600052603260045260246000fd5b905060200201359050611927816113b1565b6001600160a01b0316611938612860565b6001600160a01b0316148160405160200161197f91907f52656769737472793a20494e56414c49445f544f4b454e5f4f574e45522000008152601e810191909152603e0190565b604051602081830303815290604052906119ac5760405162461bcd60e51b8152600401610a509190614f74565b506119b681612e93565b50806119c18161532f565b9150506118eb565b506119d2612860565b6001600160a01b03167ff871896b17e9cb7a64941c62c188a4f5c621b86800e3d15452ece01ce56073df8484604051611a0c929190614f0d565b60405180910390a2505050565b61116d611a24612860565b8383613462565b6000610d2f611a3985615240565b3085858080601f01602080910402602001604051908101604052809392919081815260200183838082843760009201919091525061353192505050565b80611a82610e4e612860565b611a9e5760405162461bcd60e51b8152600401610a5090614fac565b8130331415611ad257611aaf6126fa565b8114611acd5760405162461bcd60e51b8152600401610a50906150c5565b611adb565b611adb8161270f565b61111e611ae7846113b1565b8585612c6d565b610134546001600160a01b0316611b03612860565b6001600160a01b031614611b295760405162461bcd60e51b8152600401610a509061507e565b60005b81811015610a71576000838383818110611b5657634e487b7160e01b600052603260045260246000fd5b9050602002013590506000611b6a826113b1565b9050611b7582612c00565b600082815261013660209081526040808320805460ff191660011790556001600160a01b0384168352610135909152902054821415611bb757611bb781613689565b50508080611bc49061532f565b915050611b2c565b610134546001600160a01b0316611be1612860565b6001600160a01b031614611c075760405162461bcd60e51b8152600401610a509061507e565b611c48888888888080601f0160208091040260200160405190810160405280939291908181526020018383808284376000920191909152506136ce92505050565b61126a848484848b6133d8565b6000818152606760205260408120546001600160a01b0316611c78576000610962565b3092915050565b610134546001600160a01b0316611c94612860565b6001600160a01b031614611cba5760405162461bcd60e51b8152600401610a509061507e565b611357868686868080601f01602080910402602001604051908101604052809392919081815260200183838082843760009201919091525050604080516020601f8a01819004810282018101909252888152925088915087908190840183828082843760009201919091525061371a92505050565b606080836001600160401b03811115611d5857634e487b7160e01b600052604160045260246000fd5b604051908082528060200260200182016040528015611d8b57816020015b6060815260200190600190039081611d765790505b509150836001600160401b03811115611db457634e487b7160e01b600052604160045260246000fd5b604051908082528060200260200182016040528015611de757816020015b6060815260200190600190039081611dd25790505b50905060005b84811015611e8e57611e25868683818110611e1857634e487b7160e01b600052603260045260246000fd5b905060200201358561329b565b848381518110611e4557634e487b7160e01b600052603260045260246000fd5b60200260200101848481518110611e6c57634e487b7160e01b600052603260045260246000fd5b6020026020010182905282905250508080611e869061532f565b915050611ded565b50935093915050565b81611ea3610e4e612860565b611ebf5760405162461bcd60e51b8152600401610a5090614fac565b8230331415611ef357611ed06126fa565b8114611eee5760405162461bcd60e51b8152600401610a50906150c5565b611efc565b611efc8161270f565b611f0584612c00565b61135786868686613767565b600081815260c960205260409020805460609190611f2e906152f4565b80601f0160208091040260200160405190810160405280929190818152602001828054611f5a906152f4565b8015611fa75780601f10611f7c57610100808354040283529160200191611fa7565b820191906000526020600020905b815481529060010190602001808311611f8a57829003601f168201915b50505050509050919050565b600054610100900460ff1615808015611fd35750600054600160ff909116105b80611fed5750303b158015611fed575060005460ff166001145b6120505760405162461bcd60e51b815260206004820152602e60248201527f496e697469616c697a61626c653a20636f6e747261637420697320616c72656160448201526d191e481a5b9a5d1a585b1a5e995960921b6064820152608401610a50565b6000805460ff191660011790558015612073576000805461ff0019166101001790555b61013480546001600160a01b0319166001600160a01b0384161790556040805180820182526013815272556e73746f707061626c6520446f6d61696e7360681b60208083019190915282518084019093526002835261155160f21b908301526120db9161379a565b6120e36137e8565b6120eb6137e8565b801561116d576000805461ff0019169055604051600181527f7f26b83ff96e1f2b6a682f133852f6798a09c465da95921460cefb38474024989060200161188a565b60606121388261269b565b6000612142613811565b905060008151116121625760405180602001604052806000815250610e3b565b8061216c84613821565b60405160200161217d929190614e47565b6040516020818303038152906040529392505050565b610134546001600160a01b03166121a8612860565b6001600160a01b0316146121ce5760405162461bcd60e51b8152600401610a509061507e565b61111e848484848080601f01602080910402602001604051908101604052809392919081815260200183838082843760009201829052506040805160208101909152908152925061371a915050565b80612229610e4e612860565b6122455760405162461bcd60e51b8152600401610a5090614fac565b8130331415612279576122566126fa565b81146122745760405162461bcd60e51b8152600401610a50906150c5565b612282565b6122828161270f565b610f3a87878787876133d8565b7f8bea9a6f8afd34f4e29c585f854e0cc5161431bf5fc299d468454d33dce53b87546001600160a01b03166122c2612860565b6001600160a01b0316146122e85760405162461bcd60e51b8152600401610a5090615147565b602081141561230b5760006122ff82840184614c7a565b905061111e848261286f565b600061231982840184614960565b805190915060005b818110156113575761235a8684838151811061234d57634e487b7160e01b600052603260045260246000fd5b602002602001015161286f565b806123648161532f565b915050612321565b610134546001600160a01b0316612381612860565b6001600160a01b0316146123a75760405162461bcd60e51b8152600401610a509061507e565b61111e848484848080601f0160208091040260200160405190810160405280939291908181526020018383808284376000920191909152506136ce92505050565b806123f4610e4e612860565b6124105760405162461bcd60e51b8152600401610a5090614fac565b8130331415612444576124216126fa565b811461243f5760405162461bcd60e51b8152600401610a50906150c5565b61244d565b61244d8161270f565b610f3a878787878761393a565b610134546001600160a01b031661246f612860565b6001600160a01b0316146124955760405162461bcd60e51b8152600401610a509061507e565b6124dc8a8a8a8a8a8a8a8a8a8a8080601f01602080910402602001604051908101604052809392919081815260200183838082843760009201919091525061309592505050565b50505050505050505050565b60006124f2612860565b6001600160a01b038116600090815261013560205260409020549091506125655760405162461bcd60e51b815260206004820152602160248201527f52656769737472793a20524556455253455f5245434f52445f49535f454d50546044820152605960f81b6064820152608401610a50565b610fbc81613689565b6060816001600160401b0381111561259657634e487b7160e01b600052604160045260246000fd5b6040519080825280602002602001820160405280156125c957816020015b60608152602001906001900390816125b45790505b50905060005b82811015612644576126068484838181106125fa57634e487b7160e01b600052603260045260246000fd5b90506020020135611f11565b82828151811061262657634e487b7160e01b600052603260045260246000fd5b6020026020010181905250808061263c9061532f565b9150506125cf565b5092915050565b60006001600160e01b031982166380ac58cd60e01b148061267c57506001600160e01b03198216635b5e139f60e01b145b8061096257506301ffc9a760e01b6001600160e01b0319831614610962565b6000818152606760205260409020546001600160a01b0316610fbc5760405162461bcd60e51b8152602060048201526018602482015277115490cdcc8c4e881a5b9d985b1a59081d1bdad95b88125160421b6044820152606401610a50565b60003033141561270c5750601f193601355b90565b6000818152610100602052604090205461272a9060016151fd565b6000918252610100602052604090912055565b6000612748826113b1565b9050806001600160a01b0316836001600160a01b031614156127b65760405162461bcd60e51b815260206004820152602160248201527f4552433732313a20617070726f76616c20746f2063757272656e74206f776e656044820152603960f91b6064820152608401610a50565b806001600160a01b03166127c8612860565b6001600160a01b031614806127e457506127e4816108bd612860565b6128565760405162461bcd60e51b815260206004820152603e60248201527f4552433732313a20617070726f76652063616c6c6572206973206e6f7420746f60448201527f6b656e206f776e6572206e6f7220617070726f76656420666f7220616c6c00006064820152608401610a50565b610a718383613950565b600061286a6139be565b905090565b6001600160a01b0382166128c55760405162461bcd60e51b815260206004820181905260248201527f4552433732313a206d696e7420746f20746865207a65726f20616464726573736044820152606401610a50565b6000818152606760205260409020546001600160a01b03161561292a5760405162461bcd60e51b815260206004820152601c60248201527f4552433732313a20746f6b656e20616c7265616479206d696e746564000000006044820152606401610a50565b612936600083836139da565b6001600160a01b038216600090815260686020526040812080546001929061295f9084906151fd565b909155505060008181526067602052604080822080546001600160a01b0319166001600160a01b03861690811790915590518392907fddf252ad1be2c89b69c2b068fc378daa952ba7f163c4a11628f55a4df523b3ef908290a45050565b60006129c7612f82565b90506129d38183613950565b6000805160206153cc83398151915254604080516020808201869052825180830390910181528183019283905263e3dec8fb60e01b9092526001600160a01b0390921691829163e3dec8fb91612a30918891309190604401614e76565b600060405180830381600087803b158015612a4a57600080fd5b505af115801561126a573d6000803e3d6000fd5b6060610e3b83604051602001612a749190614ddc565b6040516020818303038152906040528051906020012060001c83613a47565b6060612a9e8561270f565b600080876001600160a01b031686612ab88b8a8989613b06565b604051612ac59190614ddc565b60006040518083038160008787f1925050503d8060008114612b03576040519150601f19603f3d011682016040523d82523d6000602084013e612b08565b606091505b509092509050612b19603f87615215565b5a11612b3557634e487b7160e01b600052600160045260246000fd5b612b7582826040518060400160405280601a81526020017f42617365466f727761726465723a2043414c4c5f4641494c4544000000000000815250613b36565b9998505050505050505050565b600080612b8e836113b1565b9050806001600160a01b0316846001600160a01b03161480612bd557506001600160a01b038082166000908152606a602090815260408083209388168352929052205460ff165b80610d2f5750836001600160a01b0316612bee846109fa565b6001600160a01b031614949350505050565b612c0981613b6f565b604051602001612c1b91815260200190565b60408051601f198184030181528282528051602091820120600085815260cb9092529181209190915582917f185c30856dadb58bf097c1f665a52ada7029752dbcad008ea3fefc73bee8c9fe9190a250565b826001600160a01b0316612c80826113b1565b6001600160a01b031614612ce45760405162461bcd60e51b815260206004820152602560248201527f4552433732313a207472616e736665722066726f6d20696e636f72726563742060448201526437bbb732b960d91b6064820152608401610a50565b6001600160a01b038216612d465760405162461bcd60e51b8152602060048201526024808201527f4552433732313a207472616e7366657220746f20746865207a65726f206164646044820152637265737360e01b6064820152608401610a50565b612d518383836139da565b612d5c600082613950565b6001600160a01b0383166000908152606860205260408120805460019290612d85908490615229565b90915550506001600160a01b0382166000908152606860205260408120805460019290612db39084906151fd565b909155505060008181526067602052604080822080546001600160a01b0319166001600160a01b0386811691821790925591518493918716917fddf252ad1be2c89b69c2b068fc378daa952ba7f163c4a11628f55a4df523b3ef91a4505050565b60005b8481101561135757612e81868683818110612e4257634e487b7160e01b600052603260045260246000fd5b90506020020135858584818110612e6957634e487b7160e01b600052603260045260246000fd5b9050602002810190612e7b9190615189565b856131cf565b80612e8b8161532f565b915050612e17565b6000612e9e826113b1565b9050612eac816000846139da565b612eb7600083613950565b6001600160a01b0381166000908152606860205260408120805460019290612ee0908490615229565b909155505060008281526067602052604080822080546001600160a01b0319169055518391906001600160a01b038416907fddf252ad1be2c89b69c2b068fc378daa952ba7f163c4a11628f55a4df523b3ef908390a45050565b6001600160a01b03821660008181526101356020526040808220849055518392917feb76a21470988c474a21f690cc28fee1ed511bd812dc3c21fd0f49c5e5d4708a91a35050565b6000806000805160206153cc8339815191525460405163721804d360e11b81523060048201526001600160a01b039091169150600090829063e43009a69060240160206040518083038186803b158015612fdb57600080fd5b505afa158015612fef573d6000803e3d6000fd5b505050506040513d601f19601f820116820180604052508101906130139190614a21565b60405163e66f960360e01b8152600481018290529091506001600160a01b0383169063e66f96039060240160206040518083038186803b15801561305657600080fd5b505afa15801561306a573d6000803e3d6000fd5b505050506040513d601f19601f8201168201806040525081019061308e91906143e6565b9250505090565b6130d8898989898080601f01602080910402602001604051908101604052809392919081815260200183838082843760009201919091525087925061371a915050565b6130e5858585858c6133d8565b505050505050505050565b60008585604051602001613105929190614e37565b60408051601f198184030181528282528051602091820120601f8901829004820284018201909252878352909250613159918391899089908190840183828082843760009201919091525061326f92505050565b6113578187878080601f01602080910402602001604051908101604052809392919081815260200183838082843760009201919091525050604080516020601f8b018190048102820181019092528981529250899150889081908401838280828437600092019190915250889250613b9b915050565b6131d884613ce2565b6132245760405162461bcd60e51b815260206004820152601c60248201527f5265636f726453746f726167653a204b45595f4e4f545f464f554e44000000006044820152606401610a50565b61111e8461323186611f11565b85858080601f016020809104026020016040519081016040528093929190818152602001838380828437600092019190915250879250613b9b915050565b61327882613ce2565b61116d57600082815260c9602090815260409091208251610a719284019061422a565b6060806132a784611f11565b91506132b38484613a47565b90509250929050565b60008151600014156133085760405162461bcd60e51b815260206004820152601560248201527452656769737472793a204c4142454c5f454d50545960581b6044820152606401610a50565b828260405160200161331a9190614ddc565b6040516020818303038152906040528051906020012060405160200161334a929190918252602082015260400190565b60408051601f1981840301815291905280516020909101209392505050565b6000805160206153cc83398151915254604051633805550f60e01b81526001600160a01b03909116908190633805550f906133aa9086908690600401614f60565b600060405180830381600087803b1580156133c457600080fd5b505af1158015610f3a573d6000803e3d6000fd5b60005b848110156113575761345086868381811061340657634e487b7160e01b600052603260045260246000fd5b90506020028101906134189190615189565b86868581811061343857634e487b7160e01b600052603260045260246000fd5b905060200281019061344a9190615189565b866130f0565b8061345a8161532f565b9150506133db565b816001600160a01b0316836001600160a01b031614156134c45760405162461bcd60e51b815260206004820152601960248201527f4552433732313a20617070726f766520746f2063616c6c6572000000000000006044820152606401610a50565b6001600160a01b038381166000818152606a6020908152604080832094871680845294825291829020805460ff191686151590811790915591519182527f17307eab39ab6107e8899845ad3d59bd9653f200f220920489ca2b5937696c31910160405180910390a3505050565b6040838101519051636ccbae5f60e01b8152600481019190915260009081903090636ccbae5f9060240160206040518083038186803b15801561357357600080fd5b505afa158015613587573d6000803e3d6000fd5b505050506040513d601f19601f820116820180604052508101906135ab9190614a21565b905060006136598660600151805190602001208688602001516040516020016135f99392919092835260609190911b6bffffffffffffffffffffffff19166020830152603482015260540190565b60408051601f1981840301815282825280516020918201207f19457468657265756d205369676e6564204d6573736167653a0a33320000000084830152603c8085019190915282518085039091018152605c909301909152815191012090565b905081866020015114801561367f5750855161367f906001600160a01b03168286613d08565b9695505050505050565b6001600160a01b03811660008181526101356020526040808220829055517ffcf5eec0cfa3e6332f5f0e63ec242d71f866a61d121d6cdf5c2eb3b668a26c4f9190a250565b6136d8838361286f565b817fc5beef08f693b11c316c0c8394a377a0033c9cf701b8cd8afd79cecef60c3952826040516137089190614f74565b60405180910390a2610a718383613e58565b613725848483613e99565b827fc5beef08f693b11c316c0c8394a377a0033c9cf701b8cd8afd79cecef60c3952836040516137559190614f74565b60405180910390a261111e8484613e58565b613772848484612c6d565b61377e84848484613ecc565b61111e5760405162461bcd60e51b8152600401610a5090614ff5565b600054610100900460ff166137c15760405162461bcd60e51b8152600401610a50906150fc565b81516137d490606590602085019061422a565b508051610a7190606690602084019061422a565b600054610100900460ff1661380f5760405162461bcd60e51b8152600401610a50906150fc565b565b60606101338054610977906152f4565b6060816138455750506040805180820190915260018152600360fc1b602082015290565b8160005b811561386f57806138598161532f565b91506138689050600a83615215565b9150613849565b6000816001600160401b0381111561389757634e487b7160e01b600052604160045260246000fd5b6040519080825280601f01601f1916602001820160405280156138c1576020820181803683370190505b5090505b8415610d2f576138d6600183615229565b91506138e3600a8661534a565b6138ee9060306151fd565b60f81b81838151811061391157634e487b7160e01b600052603260045260246000fd5b60200101906001600160f81b031916908160001a905350613933600a86615215565b94506138c5565b61394381612c00565b610ec185858585856133d8565b600081815260696020526040902080546001600160a01b0319166001600160a01b0384169081179091558190613985826113b1565b6001600160a01b03167f8c5be1e5ebec7d5bd14f71427d1e84f3dd0314c0f7b2291e5b200ac8c7c3b92560405160405180910390a45050565b6000303314156139d5575060331936013560601c90565b503390565b6000818152610136602052604090205460ff161580613a0357506001600160a01b03821661dead145b613a1f5760405162461bcd60e51b8152600401610a5090615047565b6001600160a01b0383166000908152610135602052604090205415610a7157610a7183613689565b606060ca6000613a5684613b6f565b815260200190815260200160002060008481526020019081526020016000208054613a80906152f4565b80601f0160208091040260200160405190810160405280929190818152602001828054613aac906152f4565b8015613af95780601f10613ace57610100808354040283529160200191613af9565b820191906000526020600020905b815481529060010190602001808311613adc57829003601f168201915b5050505050905092915050565b6060828585604051602001613b1d93929190614df8565b6040516020818303038152906040529050949350505050565b60608315613b45575081610e3b565b825115613b555782518084602001fd5b8160405162461bcd60e51b8152600401610a509190614f74565b600081815260cb602052604081205415613b9757600082815260cb6020526040902054610962565b5090565b613ba784848484613fdd565b60ca6000613bb483613b6f565b815260200190815260200160002060008581526020019081526020016000208054613bde906152f4565b15159050613c355782604051613bf49190614ddc565b6040518091039020817f7ae4f661958fbecc2f77be6b0eb280d2a6f604b29e1e7221c82b9da0c4af7f8685604051613c2c9190614f74565b60405180910390a35b8160ca6000613c4384613b6f565b815260200190815260200160002060008681526020019081526020016000209080519060200190613c7592919061422a565b5081604051613c849190614ddc565b604051809103902083604051613c9a9190614ddc565b6040518091039020827f851ffe8e74d5015261dba0a1f9e1b0e5d42c5af5d2ad1908fee897c7d80a0d928686604051613cd4929190614f87565b60405180910390a450505050565b600081815260c9602052604081208054829190613cfe906152f4565b9050119050919050565b6000806000613d178585614014565b90925090506000816004811115613d3e57634e487b7160e01b600052602160045260246000fd5b148015613d5c5750856001600160a01b0316826001600160a01b0316145b15613d6c57600192505050610e3b565b600080876001600160a01b0316631626ba7e60e01b8888604051602401613d94929190614f47565b60408051601f198184030181529181526020820180516001600160e01b03166001600160e01b0319909416939093179092529051613dd29190614ddc565b600060405180830381855afa9150503d8060008114613e0d576040519150601f19603f3d011682016040523d82523d6000602084013e613e12565b606091505b5091509150818015613e25575080516020145b8015613e4c57508051630b135d3f60e11b90613e4a9083016020908101908401614a21565b145b98975050505050505050565b61dead6001600160a01b03831614801590613e8a57506001600160a01b03821660009081526101356020526040902054155b1561116d5761116d8282612f3a565b613ea3838361286f565b613eb06000848484613ecc565b610a715760405162461bcd60e51b8152600401610a5090614ff5565b60006001600160a01b0384163b15613fd557836001600160a01b031663150b7a02613ef5612860565b8786866040518563ffffffff1660e01b8152600401613f179493929190614ea2565b602060405180830381600087803b158015613f3157600080fd5b505af1925050508015613f61575060408051601f3d908101601f19168201909252613f5e91810190614a55565b60015b613fbb573d808015613f8f576040519150601f19603f3d011682016040523d82523d6000602084013e613f94565b606091505b508051613fb35760405162461bcd60e51b8152600401610a5090614ff5565b805181602001fd5b6001600160e01b031916630a85bd0160e11b149050610d2f565b506001610d2f565b60008181526101366020526040902054819060ff161561400f5760405162461bcd60e51b8152600401610a5090615047565b610ec1565b60008082516041141561404b5760208301516040840151606085015160001a61403f87828585614084565b9450945050505061407d565b825160401415614075576020830151604084015161406a868383614171565b93509350505061407d565b506000905060025b9250929050565b6000807f7fffffffffffffffffffffffffffffff5d576e7357a4501ddfe92f46681b20a08311156140bb5750600090506003614168565b8460ff16601b141580156140d357508460ff16601c14155b156140e45750600090506004614168565b6040805160008082526020820180845289905260ff881692820192909252606081018690526080810185905260019060a0016020604051602081039080840390855afa158015614138573d6000803e3d6000fd5b5050604051601f1901519150506001600160a01b03811661416157600060019250925050614168565b9150600090505b94509492505050565b6000806001600160ff1b0383168161418e60ff86901c601b6151fd565b905061419c87828885614084565b935093505050935093915050565b8280546141b6906152f4565b90600052602060002090601f0160209004810192826141d8576000855561421e565b82601f106141f15782800160ff1982351617855561421e565b8280016001018555821561421e579182015b8281111561421e578235825591602001919060010190614203565b50613b9792915061429e565b828054614236906152f4565b90600052602060002090601f016020900481019282614258576000855561421e565b82601f1061427157805160ff191683800117855561421e565b8280016001018555821561421e579182015b8281111561421e578251825591602001919060010190614283565b5b80821115613b97576000815560010161429f565b60006001600160401b038311156142cc576142cc61538a565b6142df601f8401601f19166020016151cd565b90508281528383830111156142f357600080fd5b828260208301376000602084830101529392505050565b8035614315816153a0565b919050565b60008083601f84011261432b578182fd5b5081356001600160401b03811115614341578182fd5b6020830191508360208260051b850101111561407d57600080fd5b8035801515811461431557600080fd5b60008083601f84011261437d578182fd5b5081356001600160401b03811115614393578182fd5b60208301915083602082850101111561407d57600080fd5b600082601f8301126143bb578081fd5b610e3b838335602085016142b3565b6000602082840312156143db578081fd5b8135610e3b816153a0565b6000602082840312156143f7578081fd5b8151610e3b816153a0565b60008060408385031215614414578081fd5b823561441f816153a0565b9150602083013561442f816153a0565b809150509250929050565b60008060006060848603121561444e578081fd5b8335614459816153a0565b92506020840135614469816153a0565b929592945050506040919091013590565b600080600080600060808688031215614491578081fd5b853561449c816153a0565b945060208601356144ac816153a0565b93506040860135925060608601356001600160401b038111156144cd578182fd5b6144d98882890161436c565b969995985093965092949392505050565b600080600080608085870312156144ff578182fd5b843561450a816153a0565b9350602085013561451a816153a0565b92506040850135915060608501356001600160401b0381111561453b578182fd5b614547878288016143ab565b91505092959194509250565b60008060408385031215614565578182fd5b8235614570816153a0565b91506132b36020840161435c565b600080600060408486031215614592578081fd5b833561459d816153a0565b925060208401356001600160401b038111156145b7578182fd5b6145c38682870161436c565b9497909650939450505050565b600080604083850312156145e2578182fd5b82356145ed816153a0565b946020939093013593505050565b60008060008060608587031215614610578182fd5b843561461b816153a0565b93506020850135925060408501356001600160401b0381111561463c578283fd5b6146488782880161436c565b95989497509550505050565b60008060008060008060008060a0898b03121561466f578586fd5b883561467a816153a0565b97506020890135965060408901356001600160401b038082111561469c578788fd5b6146a88c838d0161436c565b909850965060608b01359150808211156146c0578485fd5b6146cc8c838d0161431a565b909650945060808b01359150808211156146e4578384fd5b506146f18b828c0161431a565b999c989b5096995094979396929594505050565b60008060008060008060008060008060c08b8d031215614723578384fd5b61472c8b61430a565b995060208b0135985060408b01356001600160401b038082111561474e578586fd5b61475a8e838f0161436c565b909a50985060608d0135915080821115614772578586fd5b61477e8e838f0161431a565b909850965060808d0135915080821115614796578586fd5b6147a28e838f0161431a565b909650945060a08d01359150808211156147ba578384fd5b506147c78d828e0161436c565b915080935050809150509295989b9194979a5092959850565b600080600080600080608087890312156147f8578384fd5b8635614803816153a0565b95506020870135945060408701356001600160401b0380821115614825578586fd5b6148318a838b0161436c565b90965094506060890135915080821115614849578384fd5b5061485689828a0161436c565b979a9699509497509295939492505050565b60008060008060006060868803121561487f578283fd5b85356001600160401b0380821115614895578485fd5b6148a189838a0161431a565b909750955060208801359150808211156148b9578485fd5b506148c68882890161431a565b96999598509660400135949350505050565b6000806000604084860312156148ec578081fd5b83356001600160401b03811115614901578182fd5b61490d8682870161431a565b909790965060209590950135949350505050565b60008060208385031215614933578182fd5b82356001600160401b03811115614948578283fd5b6149548582860161431a565b90969095509350505050565b60006020808385031215614972578182fd5b82356001600160401b0380821115614988578384fd5b818501915085601f83011261499b578384fd5b8135818111156149ad576149ad61538a565b8060051b91506149be8483016151cd565b8181528481019084860184860187018a10156149d8578788fd5b8795505b838610156149fa5780358352600195909501949186019186016149dc565b5098975050505050505050565b600060208284031215614a18578081fd5b610e3b8261435c565b600060208284031215614a32578081fd5b5051919050565b600060208284031215614a4a578081fd5b8135610e3b816153b5565b600060208284031215614a66578081fd5b8151610e3b816153b5565b60008060008060008060006080888a031215614a8b578081fd5b87356001600160401b0380821115614aa1578283fd5b614aad8b838c0161436c565b909950975060208a0135965060408a0135915080821115614acc578283fd5b614ad88b838c0161431a565b909650945060608a0135915080821115614af0578283fd5b50614afd8a828b0161431a565b989b979a50959850939692959293505050565b60008060208385031215614b22578182fd5b82356001600160401b03811115614b37578283fd5b6149548582860161436c565b600080600080600060608688031215614b5a578283fd5b85356001600160401b0380821115614b70578485fd5b614b7c89838a0161436c565b90975095506020880135915080821115614b94578485fd5b506148c68882890161436c565b600080600060408486031215614bb5578081fd5b83356001600160401b03811115614bca578182fd5b61490d8682870161436c565b600060208284031215614be7578081fd5b81356001600160401b03811115614bfc578182fd5b8201601f81018413614c0c578182fd5b610d2f848235602084016142b3565b600080600060408486031215614c2f578081fd5b83356001600160401b0380821115614c45578283fd5b9085019060808288031215614c58578283fd5b90935060208501359080821115614c6d578283fd5b506145c38682870161436c565b600060208284031215614c8b578081fd5b5035919050565b600080600060408486031215614ca6578081fd5b8335925060208401356001600160401b038111156145b7578182fd5b60008060008060608587031215614cd7578182fd5b8435935060208501356001600160401b03811115614cf3578283fd5b614cff8782880161436c565b9598909750949560400135949350505050565b60008060408385031215614d24578182fd5b50508035926020909101359150565b600081518084526020808501808196508360051b81019150828601855b85811015614d7a578284038952614d68848351614db0565b98850198935090840190600101614d50565b5091979650505050505050565b81835281816020850137506000828201602090810191909152601f909101601f19169091010190565b60008151808452614dc88160208601602086016152c8565b601f01601f19169290920160200192915050565b60008251614dee8184602087016152c8565b9190910192915050565b60008451614e0a8184602089016152c8565b60609490941b6bffffffffffffffffffffffff191691909301908152601481019190915260340192915050565b8183823760009101908152919050565b60008351614e598184602088016152c8565b835190830190614e6d8183602088016152c8565b01949350505050565b6001600160a01b03848116825283166020820152606060408201819052600090610bc390830184614db0565b6001600160a01b038581168252841660208201526040810183905260806060820181905260009061367f90830184614db0565b602081526000610e3b6020830184614d33565b604081526000614efb6040830185614d33565b8281036020840152610e378185614d33565b6020808252810182905260006001600160fb1b03831115614f2c578081fd5b8260051b808560408501379190910160400190815292915050565b828152604060208201526000610d2f6040830184614db0565b602081526000610d2f602083018486614d87565b602081526000610e3b6020830184614db0565b604081526000614f9a6040830185614db0565b8281036020840152610e378185614db0565b60208082526029908201527f52656769737472793a2053454e4445525f49535f4e4f545f415050524f5645446040820152682fa7a92fa7aba722a960b91b606082015260800190565b60208082526032908201527f4552433732313a207472616e7366657220746f206e6f6e20455243373231526560408201527131b2b4bb32b91034b6b83632b6b2b73a32b960711b606082015260800190565b60208082526018908201527f52656769737472793a20544f4b454e5f55504752414445440000000000000000604082015260600190565b60208082526027908201527f52656769737472793a2053454e4445525f49535f4e4f545f4d494e54494e475f60408201526626a0a720a3a2a960c91b606082015260800190565b60208082526017908201527f52656769737472793a20544f4b454e5f494e56414c4944000000000000000000604082015260600190565b6020808252602b908201527f496e697469616c697a61626c653a20636f6e7472616374206973206e6f74206960408201526a6e697469616c697a696e6760a81b606082015260800190565b60208082526022908201527f52656769737472793a20494e53554646494349454e545f5045524d495353494f6040820152614e5360f01b606082015260800190565b6000808335601e1984360301811261519f578283fd5b8301803591506001600160401b038211156151b8578283fd5b60200191503681900382131561407d57600080fd5b604051601f8201601f191681016001600160401b03811182821017156151f5576151f561538a565b604052919050565b600082198211156152105761521061535e565b500190565b60008261522457615224615374565b500490565b60008282101561523b5761523b61535e565b500390565b600060808236031215615251578081fd5b604051608081016001600160401b0382821081831117156152745761527461538a565b8160405284359150615285826153a0565b818352602085013560208401526040850135604084015260608501359150808211156152af578384fd5b506152bc368286016143ab565b60608301525092915050565b60005b838110156152e35781810151838201526020016152cb565b8381111561111e5750506000910152565b600181811c9082168061530857607f821691505b6020821081141561532957634e487b7160e01b600052602260045260246000fd5b50919050565b60006000198214156153435761534361535e565b5060010190565b60008261535957615359615374565b500690565b634e487b7160e01b600052601160045260246000fd5b634e487b7160e01b600052601260045260246000fd5b634e487b7160e01b600052604160045260246000fd5b6001600160a01b0381168114610fbc57600080fd5b6001600160e01b031981168114610fbc57600080fdfebe2bb46ac0377341a1ec5c3116d70fd5029d704bd46292e58f6265dd177ebafea164736f6c6343000804000a",
  "linkReferences": {},
  "deployedLinkReferences": {}
}