{
  "_format": "hh-sol-artifact-1",
  "contractName": "UNSRegistry",
  "sourceName": "contracts/UNSRegistry.sol",
  "abi": [
    {
      "anonymous": false,
      "inputs": [
        {
          "indexed": false,
          "internalType": "address",
          "name": "previousAdmin",
          "type": "address"
        },
        {
          "indexed": false,
          "internalType": "address",
          "name": "newAdmin",
          "type": "address"
        }
      ],
      "name": "AdminChanged",
      "type": "event"
    },
    {
      "anonymous": false,
      "inputs": [
        {
          "indexed": true,
          "internalType": "address",
          "name": "owner",
          "type": "address"
        },
        {
          "indexed": true,
          "internalType": "address",
          "name": "approved",
          "type": "address"
        },
        {
          "indexed": true,
          "internalType": "uint256",
          "name": "tokenId",
          "type": "uint256"
        }
      ],
      "name": "Approval",
      "type": "event"
    },
    {
      "anonymous": false,
      "inputs": [
        {
          "indexed": true,
          "internalType": "address",
          "name": "owner",
          "type": "address"
        },
        {
          "indexed": true,
          "internalType": "address",
          "name": "operator",
          "type": "address"
        },
        {
          "indexed": false,
          "internalType": "bool",
          "name": "approved",
          "type": "bool"
        }
      ],
      "name": "ApprovalForAll",
      "type": "event"
    },
    {
      "anonymous": false,
      "inputs": [
        {
          "indexed": true,
          "internalType": "uint256",
          "name": "tokenId",
          "type": "uint256"
        },
        {
          "indexed": true,
          "internalType": "string",
          "name": "keyIndex",
          "type": "string"
        },
        {
          "indexed": false,
          "internalType": "string",
          "name": "key",
          "type": "string"
        }
      ],
      "name": "NewKey",
      "type": "event"
    },
    {
      "anonymous": false,
      "inputs": [
        {
          "indexed": true,
          "internalType": "uint256",
          "name": "tokenId",
          "type": "uint256"
        },
        {
          "indexed": false,
          "internalType": "string",
          "name": "uri",
          "type": "string"
        }
      ],
      "name": "NewURI",
      "type": "event"
    },
    {
      "anonymous": false,
      "inputs": [
        {
          "indexed": false,
          "internalType": "string",
          "name": "prefix",
          "type": "string"
        }
      ],
      "name": "NewURIPrefix",
      "type": "event"
    },
    {
      "anonymous": false,
      "inputs": [
        {
          "indexed": true,
          "internalType": "uint256",
          "name": "tokenId",
          "type": "uint256"
        }
      ],
      "name": "ResetRecords",
      "type": "event"
    },
    {
      "anonymous": false,
      "inputs": [
        {
          "indexed": true,
          "internalType": "uint256",
          "name": "tokenId",
          "type": "uint256"
        },
        {
          "indexed": true,
          "internalType": "string",
          "name": "keyIndex",
          "type": "string"
        },
        {
          "indexed": true,
          "internalType": "string",
          "name": "valueIndex",
          "type": "string"
        },
        {
          "indexed": false,
          "internalType": "string",
          "name": "key",
          "type": "string"
        },
        {
          "indexed": false,
          "internalType": "string",
          "name": "value",
          "type": "string"
        }
      ],
      "name": "Set",
      "type": "event"
    },
    {
      "anonymous": false,
      "inputs": [
        {
          "indexed": true,
          "internalType": "address",
          "name": "from",
          "type": "address"
        },
        {
          "indexed": true,
          "internalType": "address",
          "name": "to",
          "type": "address"
        },
        {
          "indexed": true,
          "internalType": "uint256",
          "name": "tokenId",
          "type": "uint256"
        }
      ],
      "name": "Transfer",
      "type": "event"
    },
    {
      "anonymous": false,
      "inputs": [
        {
          "indexed": true,
          "internalType": "address",
          "name": "implementation",
          "type": "address"
        }
      ],
      "name": "Upgraded",
      "type": "event"
    },
    {
      "anonymous": false,
      "inputs": [
        {
          "indexed": true,
          "internalType": "address",
          "name": "user",
          "type": "address"
        },
        {
          "indexed": false,
          "internalType": "uint256[]",
          "name": "tokenIds",
          "type": "uint256[]"
        }
      ],
      "name": "WithdrawnBatch",
      "type": "event"
    },
    {
      "inputs": [],
      "name": "BATCH_LIMIT",
      "outputs": [
        {
          "internalType": "uint256",
          "name": "",
          "type": "uint256"
        }
      ],
      "stateMutability": "view",
      "type": "function"
    },
    {
      "inputs": [],
      "name": "NAME",
      "outputs": [
        {
          "internalType": "string",
          "name": "",
          "type": "string"
        }
      ],
      "stateMutability": "view",
      "type": "function"
    },
    {
      "inputs": [],
      "name": "VERSION",
      "outputs": [
        {
          "internalType": "string",
          "name": "",
          "type": "string"
        }
      ],
      "stateMutability": "view",
      "type": "function"
    },
    {
      "inputs": [
        {
          "internalType": "string",
          "name": "key",
          "type": "string"
        }
      ],
      "name": "addKey",
      "outputs": [],
      "stateMutability": "nonpayable",
      "type": "function"
    },
    {
      "inputs": [
        {
          "internalType": "address",
          "name": "to",
          "type": "address"
        },
        {
          "internalType": "uint256",
          "name": "tokenId",
          "type": "uint256"
        }
      ],
      "name": "approve",
      "outputs": [],
      "stateMutability": "nonpayable",
      "type": "function"
    },
    {
      "inputs": [
        {
          "internalType": "address",
          "name": "owner",
          "type": "address"
        }
      ],
      "name": "balanceOf",
      "outputs": [
        {
          "internalType": "uint256",
          "name": "",
          "type": "uint256"
        }
      ],
      "stateMutability": "view",
      "type": "function"
    },
    {
      "inputs": [
        {
          "internalType": "uint256",
          "name": "tokenId",
          "type": "uint256"
        }
      ],
      "name": "burn",
      "outputs": [],
      "stateMutability": "nonpayable",
      "type": "function"
    },
    {
      "inputs": [
        {
          "internalType": "uint256",
          "name": "tokenId",
          "type": "uint256"
        },
        {
          "internalType": "bytes",
          "name": "signature",
          "type": "bytes"
        }
      ],
      "name": "burnFor",
      "outputs": [],
      "stateMutability": "nonpayable",
      "type": "function"
    },
    {
      "inputs": [
        {
          "internalType": "uint256",
          "name": "tokenId",
          "type": "uint256"
        },
        {
          "internalType": "string",
          "name": "label",
          "type": "string"
        }
      ],
      "name": "childIdOf",
      "outputs": [
        {
          "internalType": "uint256",
          "name": "",
          "type": "uint256"
        }
      ],
      "stateMutability": "pure",
      "type": "function"
    },
    {
      "inputs": [
        {
          "internalType": "address",
          "name": "user",
          "type": "address"
        },
        {
          "internalType": "bytes",
          "name": "depositData",
          "type": "bytes"
        }
      ],
      "name": "deposit",
      "outputs": [],
      "stateMutability": "nonpayable",
      "type": "function"
    },
    {
      "inputs": [
        {
          "internalType": "uint256",
          "name": "tokenId",
          "type": "uint256"
        }
      ],
      "name": "depositToPolygon",
      "outputs": [],
      "stateMutability": "nonpayable",
      "type": "function"
    },
    {
      "inputs": [
        {
          "components": [
            {
              "internalType": "address",
              "name": "from",
              "type": "address"
            },
            {
              "internalType": "uint256",
              "name": "nonce",
              "type": "uint256"
            },
            {
              "internalType": "uint256",
              "name": "tokenId",
              "type": "uint256"
            },
            {
              "internalType": "bytes",
              "name": "data",
              "type": "bytes"
            }
          ],
          "internalType": "struct IForwarder.ForwardRequest",
          "name": "req",
          "type": "tuple"
        },
        {
          "internalType": "bytes",
          "name": "signature",
          "type": "bytes"
        }
      ],
      "name": "execute",
      "outputs": [
        {
          "internalType": "bytes",
          "name": "",
          "type": "bytes"
        }
      ],
      "stateMutability": "nonpayable",
      "type": "function"
    },
    {
      "inputs": [
        {
          "internalType": "uint256",
          "name": "tokenId",
          "type": "uint256"
        }
      ],
      "name": "exists",
      "outputs": [
        {
          "internalType": "bool",
          "name": "",
          "type": "bool"
        }
      ],
      "stateMutability": "view",
      "type": "function"
    },
    {
      "inputs": [
        {
          "internalType": "string",
          "name": "key",
          "type": "string"
        },
        {
          "internalType": "uint256",
          "name": "tokenId",
          "type": "uint256"
        }
      ],
      "name": "get",
      "outputs": [
        {
          "internalType": "string",
          "name": "value",
          "type": "string"
        }
      ],
      "stateMutability": "view",
      "type": "function"
    },
    {
      "inputs": [
        {
          "internalType": "uint256",
          "name": "tokenId",
          "type": "uint256"
        }
      ],
      "name": "getApproved",
      "outputs": [
        {
          "internalType": "address",
          "name": "",
          "type": "address"
        }
      ],
      "stateMutability": "view",
      "type": "function"
    },
    {
      "inputs": [
        {
          "internalType": "uint256",
          "name": "keyHash",
          "type": "uint256"
        },
        {
          "internalType": "uint256",
          "name": "tokenId",
          "type": "uint256"
        }
      ],
      "name": "getByHash",
      "outputs": [
        {
          "internalType": "string",
          "name": "key",
          "type": "string"
        },
        {
          "internalType": "string",
          "name": "value",
          "type": "string"
        }
      ],
      "stateMutability": "view",
      "type": "function"
    },
    {
      "inputs": [
        {
          "internalType": "uint256",
          "name": "keyHash",
          "type": "uint256"
        }
      ],
      "name": "getKey",
      "outputs": [
        {
          "internalType": "string",
          "name": "",
          "type": "string"
        }
      ],
      "stateMutability": "view",
      "type": "function"
    },
    {
      "inputs": [
        {
          "internalType": "uint256[]",
          "name": "hashes",
          "type": "uint256[]"
        }
      ],
      "name": "getKeys",
      "outputs": [
        {
          "internalType": "string[]",
          "name": "values",
          "type": "string[]"
        }
      ],
      "stateMutability": "view",
      "type": "function"
    },
    {
      "inputs": [
        {
          "internalType": "string[]",
          "name": "keys",
          "type": "string[]"
        },
        {
          "internalType": "uint256",
          "name": "tokenId",
          "type": "uint256"
        }
      ],
      "name": "getMany",
      "outputs": [
        {
          "internalType": "string[]",
          "name": "values",
          "type": "string[]"
        }
      ],
      "stateMutability": "view",
      "type": "function"
    },
    {
      "inputs": [
        {
          "internalType": "uint256[]",
          "name": "keyHashes",
          "type": "uint256[]"
        },
        {
          "internalType": "uint256",
          "name": "tokenId",
          "type": "uint256"
        }
      ],
      "name": "getManyByHash",
      "outputs": [
        {
          "internalType": "string[]",
          "name": "keys",
          "type": "string[]"
        },
        {
          "internalType": "string[]",
          "name": "values",
          "type": "string[]"
        }
      ],
      "stateMutability": "view",
      "type": "function"
    },
    {
      "inputs": [
        {
          "internalType": "address",
          "name": "mintingManager",
          "type": "address"
        }
      ],
      "name": "initialize",
      "outputs": [],
      "stateMutability": "nonpayable",
      "type": "function"
    },
    {
      "inputs": [
        {
          "internalType": "address",
          "name": "owner",
          "type": "address"
        },
        {
          "internalType": "address",
          "name": "operator",
          "type": "address"
        }
      ],
      "name": "isApprovedForAll",
      "outputs": [
        {
          "internalType": "bool",
          "name": "",
          "type": "bool"
        }
      ],
      "stateMutability": "view",
      "type": "function"
    },
    {
      "inputs": [
        {
          "internalType": "address",
          "name": "spender",
          "type": "address"
        },
        {
          "internalType": "uint256",
          "name": "tokenId",
          "type": "uint256"
        }
      ],
      "name": "isApprovedOrOwner",
      "outputs": [
        {
          "internalType": "bool",
          "name": "",
          "type": "bool"
        }
      ],
      "stateMutability": "view",
      "type": "function"
    },
    {
      "inputs": [
        {
          "internalType": "address",
          "name": "forwarder",
          "type": "address"
        }
      ],
      "name": "isTrustedForwarder",
      "outputs": [
        {
          "internalType": "bool",
          "name": "",
          "type": "bool"
        }
      ],
      "stateMutability": "view",
      "type": "function"
    },
    {
      "inputs": [
        {
          "internalType": "address",
          "name": "user",
          "type": "address"
        },
        {
          "internalType": "uint256",
          "name": "tokenId",
          "type": "uint256"
        }
      ],
      "name": "mint",
      "outputs": [],
      "stateMutability": "nonpayable",
      "type": "function"
    },
    {
      "inputs": [
        {
          "internalType": "address",
          "name": "user",
          "type": "address"
        },
        {
          "internalType": "uint256",
          "name": "tokenId",
          "type": "uint256"
        },
        {
          "internalType": "bytes",
          "name": "",
          "type": "bytes"
        }
      ],
      "name": "mint",
      "outputs": [],
      "stateMutability": "nonpayable",
      "type": "function"
    },
    {
      "inputs": [
        {
          "internalType": "address",
          "name": "to",
          "type": "address"
        },
        {
          "internalType": "uint256",
          "name": "tokenId",
          "type": "uint256"
        },
        {
          "internalType": "string",
          "name": "uri",
          "type": "string"
        }
      ],
      "name": "mint",
      "outputs": [],
      "stateMutability": "nonpayable",
      "type": "function"
    },
    {
      "inputs": [
        {
          "internalType": "address",
          "name": "to",
          "type": "address"
        },
        {
          "internalType": "uint256",
          "name": "tokenId",
          "type": "uint256"
        },
        {
          "internalType": "string",
          "name": "uri",
          "type": "string"
        },
        {
          "internalType": "string[]",
          "name": "keys",
          "type": "string[]"
        },
        {
          "internalType": "string[]",
          "name": "values",
          "type": "string[]"
        }
      ],
      "name": "mintWithRecords",
      "outputs": [],
      "stateMutability": "nonpayable",
      "type": "function"
    },
    {
      "inputs": [],
      "name": "name",
      "outputs": [
        {
          "internalType": "string",
          "name": "",
          "type": "string"
        }
      ],
      "stateMutability": "view",
      "type": "function"
    },
    {
      "inputs": [
        {
          "internalType": "uint256",
          "name": "tokenId",
          "type": "uint256"
        }
      ],
      "name": "nonceOf",
      "outputs": [
        {
          "internalType": "uint256",
          "name": "",
          "type": "uint256"
        }
      ],
      "stateMutability": "view",
      "type": "function"
    },
    {
      "inputs": [
        {
          "internalType": "address",
          "name": "",
          "type": "address"
        },
        {
          "internalType": "address",
          "name": "from",
          "type": "address"
        },
        {
          "internalType": "uint256",
          "name": "tokenId",
          "type": "uint256"
        },
        {
          "internalType": "bytes",
          "name": "data",
          "type": "bytes"
        }
      ],
      "name": "onERC721Received",
      "outputs": [
        {
          "internalType": "bytes4",
          "name": "",
          "type": "bytes4"
        }
      ],
      "stateMutability": "nonpayable",
      "type": "function"
    },
    {
      "inputs": [
        {
          "internalType": "uint256",
          "name": "tokenId",
          "type": "uint256"
        }
      ],
      "name": "ownerOf",
      "outputs": [
        {
          "internalType": "address",
          "name": "",
          "type": "address"
        }
      ],
      "stateMutability": "view",
      "type": "function"
    },
    {
      "inputs": [
        {
          "internalType": "string[]",
          "name": "keys",
          "type": "string[]"
        },
        {
          "internalType": "string[]",
          "name": "values",
          "type": "string[]"
        },
        {
          "internalType": "uint256",
          "name": "tokenId",
          "type": "uint256"
        }
      ],
      "name": "reconfigure",
      "outputs": [],
      "stateMutability": "nonpayable",
      "type": "function"
    },
    {
      "inputs": [
        {
          "internalType": "string[]",
          "name": "keys",
          "type": "string[]"
        },
        {
          "internalType": "string[]",
          "name": "values",
          "type": "string[]"
        },
        {
          "internalType": "uint256",
          "name": "tokenId",
          "type": "uint256"
        },
        {
          "internalType": "bytes",
          "name": "signature",
          "type": "bytes"
        }
      ],
      "name": "reconfigureFor",
      "outputs": [],
      "stateMutability": "nonpayable",
      "type": "function"
    },
    {
      "inputs": [
        {
          "internalType": "uint256",
          "name": "tokenId",
          "type": "uint256"
        }
      ],
      "name": "reset",
      "outputs": [],
      "stateMutability": "nonpayable",
      "type": "function"
    },
    {
      "inputs": [
        {
          "internalType": "uint256",
          "name": "tokenId",
          "type": "uint256"
        },
        {
          "internalType": "bytes",
          "name": "signature",
          "type": "bytes"
        }
      ],
      "name": "resetFor",
      "outputs": [],
      "stateMutability": "nonpayable",
      "type": "function"
    },
    {
      "inputs": [
        {
          "internalType": "uint256",
          "name": "tokenId",
          "type": "uint256"
        }
      ],
      "name": "resolverOf",
      "outputs": [
        {
          "internalType": "address",
          "name": "",
          "type": "address"
        }
      ],
      "stateMutability": "view",
      "type": "function"
    },
    {
      "inputs": [],
      "name": "root",
      "outputs": [
        {
          "internalType": "uint256",
          "name": "",
          "type": "uint256"
        }
      ],
      "stateMutability": "pure",
      "type": "function"
    },
    {
      "inputs": [
        {
          "internalType": "address",
          "name": "to",
          "type": "address"
        },
        {
          "internalType": "uint256",
          "name": "tokenId",
          "type": "uint256"
        },
        {
          "internalType": "string",
          "name": "uri",
          "type": "string"
        },
        {
          "internalType": "bytes",
          "name": "data",
          "type": "bytes"
        }
      ],
      "name": "safeMint",
      "outputs": [],
      "stateMutability": "nonpayable",
      "type": "function"
    },
    {
      "inputs": [
        {
          "internalType": "address",
          "name": "to",
          "type": "address"
        },
        {
          "internalType": "uint256",
          "name": "tokenId",
          "type": "uint256"
        },
        {
          "internalType": "string",
          "name": "uri",
          "type": "string"
        }
      ],
      "name": "safeMint",
      "outputs": [],
      "stateMutability": "nonpayable",
      "type": "function"
    },
    {
      "inputs": [
        {
          "internalType": "address",
          "name": "to",
          "type": "address"
        },
        {
          "internalType": "uint256",
          "name": "tokenId",
          "type": "uint256"
        },
        {
          "internalType": "string",
          "name": "uri",
          "type": "string"
        },
        {
          "internalType": "string[]",
          "name": "keys",
          "type": "string[]"
        },
        {
          "internalType": "string[]",
          "name": "values",
          "type": "string[]"
        }
      ],
      "name": "safeMintWithRecords",
      "outputs": [],
      "stateMutability": "nonpayable",
      "type": "function"
    },
    {
      "inputs": [
        {
          "internalType": "address",
          "name": "to",
          "type": "address"
        },
        {
          "internalType": "uint256",
          "name": "tokenId",
          "type": "uint256"
        },
        {
          "internalType": "string",
          "name": "uri",
          "type": "string"
        },
        {
          "internalType": "string[]",
          "name": "keys",
          "type": "string[]"
        },
        {
          "internalType": "string[]",
          "name": "values",
          "type": "string[]"
        },
        {
          "internalType": "bytes",
          "name": "data",
          "type": "bytes"
        }
      ],
      "name": "safeMintWithRecords",
      "outputs": [],
      "stateMutability": "nonpayable",
      "type": "function"
    },
    {
      "inputs": [
        {
          "internalType": "address",
          "name": "from",
          "type": "address"
        },
        {
          "internalType": "address",
          "name": "to",
          "type": "address"
        },
        {
          "internalType": "uint256",
          "name": "tokenId",
          "type": "uint256"
        }
      ],
      "name": "safeTransferFrom",
      "outputs": [],
      "stateMutability": "nonpayable",
      "type": "function"
    },
    {
      "inputs": [
        {
          "internalType": "address",
          "name": "from",
          "type": "address"
        },
        {
          "internalType": "address",
          "name": "to",
          "type": "address"
        },
        {
          "internalType": "uint256",
          "name": "tokenId",
          "type": "uint256"
        },
        {
          "internalType": "bytes",
          "name": "data",
          "type": "bytes"
        }
      ],
      "name": "safeTransferFrom",
      "outputs": [],
      "stateMutability": "nonpayable",
      "type": "function"
    },
    {
      "inputs": [
        {
          "internalType": "address",
          "name": "from",
          "type": "address"
        },
        {
          "internalType": "address",
          "name": "to",
          "type": "address"
        },
        {
          "internalType": "uint256",
          "name": "tokenId",
          "type": "uint256"
        },
        {
          "internalType": "bytes",
          "name": "data",
          "type": "bytes"
        },
        {
          "internalType": "bytes",
          "name": "signature",
          "type": "bytes"
        }
      ],
      "name": "safeTransferFromFor",
      "outputs": [],
      "stateMutability": "nonpayable",
      "type": "function"
    },
    {
      "inputs": [
        {
          "internalType": "address",
          "name": "from",
          "type": "address"
        },
        {
          "internalType": "address",
          "name": "to",
          "type": "address"
        },
        {
          "internalType": "uint256",
          "name": "tokenId",
          "type": "uint256"
        },
        {
          "internalType": "bytes",
          "name": "signature",
          "type": "bytes"
        }
      ],
      "name": "safeTransferFromFor",
      "outputs": [],
      "stateMutability": "nonpayable",
      "type": "function"
    },
    {
      "inputs": [
        {
          "internalType": "string",
          "name": "key",
          "type": "string"
        },
        {
          "internalType": "string",
          "name": "value",
          "type": "string"
        },
        {
          "internalType": "uint256",
          "name": "tokenId",
          "type": "uint256"
        }
      ],
      "name": "set",
      "outputs": [],
      "stateMutability": "nonpayable",
      "type": "function"
    },
    {
      "inputs": [
        {
          "internalType": "address",
          "name": "operator",
          "type": "address"
        },
        {
          "internalType": "bool",
          "name": "approved",
          "type": "bool"
        }
      ],
      "name": "setApprovalForAll",
      "outputs": [],
      "stateMutability": "nonpayable",
      "type": "function"
    },
    {
      "inputs": [
        {
          "internalType": "uint256",
          "name": "keyHash",
          "type": "uint256"
        },
        {
          "internalType": "string",
          "name": "value",
          "type": "string"
        },
        {
          "internalType": "uint256",
          "name": "tokenId",
          "type": "uint256"
        }
      ],
      "name": "setByHash",
      "outputs": [],
      "stateMutability": "nonpayable",
      "type": "function"
    },
    {
      "inputs": [
        {
          "internalType": "address",
          "name": "registry",
          "type": "address"
        }
      ],
      "name": "setCNSRegistry",
      "outputs": [],
      "stateMutability": "nonpayable",
      "type": "function"
    },
    {
      "inputs": [
        {
          "internalType": "address",
          "name": "clientChainManager",
          "type": "address"
        }
      ],
      "name": "setChildChainManager",
      "outputs": [],
      "stateMutability": "nonpayable",
      "type": "function"
    },
    {
      "inputs": [
        {
          "internalType": "string",
          "name": "key",
          "type": "string"
        },
        {
          "internalType": "string",
          "name": "value",
          "type": "string"
        },
        {
          "internalType": "uint256",
          "name": "tokenId",
          "type": "uint256"
        },
        {
          "internalType": "bytes",
          "name": "signature",
          "type": "bytes"
        }
      ],
      "name": "setFor",
      "outputs": [],
      "stateMutability": "nonpayable",
      "type": "function"
    },
    {
      "inputs": [
        {
          "internalType": "string[]",
          "name": "keys",
          "type": "string[]"
        },
        {
          "internalType": "string[]",
          "name": "values",
          "type": "string[]"
        },
        {
          "internalType": "uint256",
          "name": "tokenId",
          "type": "uint256"
        }
      ],
      "name": "setMany",
      "outputs": [],
      "stateMutability": "nonpayable",
      "type": "function"
    },
    {
      "inputs": [
        {
          "internalType": "uint256[]",
          "name": "keyHashes",
          "type": "uint256[]"
        },
        {
          "internalType": "string[]",
          "name": "values",
          "type": "string[]"
        },
        {
          "internalType": "uint256",
          "name": "tokenId",
          "type": "uint256"
        }
      ],
      "name": "setManyByHash",
      "outputs": [],
      "stateMutability": "nonpayable",
      "type": "function"
    },
    {
      "inputs": [
        {
          "internalType": "string[]",
          "name": "keys",
          "type": "string[]"
        },
        {
          "internalType": "string[]",
          "name": "values",
          "type": "string[]"
        },
        {
          "internalType": "uint256",
          "name": "tokenId",
          "type": "uint256"
        },
        {
          "internalType": "bytes",
          "name": "signature",
          "type": "bytes"
        }
      ],
      "name": "setManyFor",
      "outputs": [],
      "stateMutability": "nonpayable",
      "type": "function"
    },
    {
      "inputs": [
        {
          "internalType": "address",
          "name": "to",
          "type": "address"
        },
        {
          "internalType": "uint256",
          "name": "tokenId",
          "type": "uint256"
        }
      ],
      "name": "setOwner",
      "outputs": [],
      "stateMutability": "nonpayable",
      "type": "function"
    },
    {
      "inputs": [
        {
          "internalType": "address",
          "name": "rootChainManager",
          "type": "address"
        }
      ],
      "name": "setRootChainManager",
      "outputs": [],
      "stateMutability": "nonpayable",
      "type": "function"
    },
    {
      "inputs": [
        {
          "internalType": "string",
          "name": "prefix",
          "type": "string"
        }
      ],
      "name": "setTokenURIPrefix",
      "outputs": [],
      "stateMutability": "nonpayable",
      "type": "function"
    },
    {
      "inputs": [
        {
          "internalType": "bytes4",
          "name": "interfaceId",
          "type": "bytes4"
        }
      ],
      "name": "supportsInterface",
      "outputs": [
        {
          "internalType": "bool",
          "name": "",
          "type": "bool"
        }
      ],
      "stateMutability": "view",
      "type": "function"
    },
    {
      "inputs": [],
      "name": "symbol",
      "outputs": [
        {
          "internalType": "string",
          "name": "",
          "type": "string"
        }
      ],
      "stateMutability": "view",
      "type": "function"
    },
    {
      "inputs": [
        {
          "internalType": "uint256",
          "name": "tokenId",
          "type": "uint256"
        }
      ],
      "name": "tokenURI",
      "outputs": [
        {
          "internalType": "string",
          "name": "",
          "type": "string"
        }
      ],
      "stateMutability": "view",
      "type": "function"
    },
    {
      "inputs": [
        {
          "internalType": "address",
          "name": "from",
          "type": "address"
        },
        {
          "internalType": "address",
          "name": "to",
          "type": "address"
        },
        {
          "internalType": "uint256",
          "name": "tokenId",
          "type": "uint256"
        }
      ],
      "name": "transferFrom",
      "outputs": [],
      "stateMutability": "nonpayable",
      "type": "function"
    },
    {
      "inputs": [
        {
          "internalType": "address",
          "name": "from",
          "type": "address"
        },
        {
          "internalType": "address",
          "name": "to",
          "type": "address"
        },
        {
          "internalType": "uint256",
          "name": "tokenId",
          "type": "uint256"
        },
        {
          "internalType": "bytes",
          "name": "signature",
          "type": "bytes"
        }
      ],
      "name": "transferFromFor",
      "outputs": [],
      "stateMutability": "nonpayable",
      "type": "function"
    },
    {
      "inputs": [
        {
          "components": [
            {
              "internalType": "address",
              "name": "from",
              "type": "address"
            },
            {
              "internalType": "uint256",
              "name": "nonce",
              "type": "uint256"
            },
            {
              "internalType": "uint256",
              "name": "tokenId",
              "type": "uint256"
            },
            {
              "internalType": "bytes",
              "name": "data",
              "type": "bytes"
            }
          ],
          "internalType": "struct IForwarder.ForwardRequest",
          "name": "req",
          "type": "tuple"
        },
        {
          "internalType": "bytes",
          "name": "signature",
          "type": "bytes"
        }
      ],
      "name": "verify",
      "outputs": [
        {
          "internalType": "bool",
          "name": "",
          "type": "bool"
        }
      ],
      "stateMutability": "view",
      "type": "function"
    },
    {
      "inputs": [
        {
          "internalType": "uint256",
          "name": "tokenId",
          "type": "uint256"
        }
      ],
      "name": "withdraw",
      "outputs": [],
      "stateMutability": "nonpayable",
      "type": "function"
    },
    {
      "inputs": [
        {
          "internalType": "uint256[]",
          "name": "tokenIds",
          "type": "uint256[]"
        }
      ],
      "name": "withdrawBatch",
      "outputs": [],
      "stateMutability": "nonpayable",
      "type": "function"
    },
    {
      "inputs": [
        {
          "internalType": "uint256",
          "name": "tokenId",
          "type": "uint256"
        }
      ],
      "name": "withdrawWithMetadata",
      "outputs": [],
      "stateMutability": "nonpayable",
      "type": "function"
    }
  ],
  "bytecode": "0x608060405234801561001057600080fd5b506159cd80620000216000396000f3fe608060405234801561001057600080fd5b50600436106103f15760003560e01c80637f139a0011610215578063b87abc1111610125578063cf2c52cb116100b8578063ec129eea11610087578063ec129eea146108bb578063ef2c3088146108ce578063efda4d3e146108e1578063f5c1f76e146108f4578063ffa1ad7414610907576103f1565b8063cf2c52cb1461087a578063d3fc98641461088d578063e985e9c5146108a0578063ebf0c717146108b3576103f1565b8063c5974073116100f4578063c59740731461082e578063c87b56dd14610841578063cd279c7c14610854578063ce92b33e14610867576103f1565b8063b87abc11146107e2578063b88d4fde146107f5578063bb5b27e114610808578063c4d66de81461081b576103f1565b8063a3557e6c116101a8578063ab3b87fe11610177578063ab3b87fe14610775578063b0f5917714610788578063b3f9e4cb1461079b578063b55bc617146107ae578063b85afd28146107c1576103f1565b8063a3557e6c14610747578063a3f4df7e1461075a578063a424740014610762578063a5e584dc14610508576103f1565b806395d89b41116101e457806395d89b411461070657806399e0dd7c1461070e5780639c8d415614610721578063a22cb46514610734576103f1565b80637f139a00146106c55780638f69c188146106d857806394d008ef146106eb5780639559c0bd146106fe576103f1565b8063430c2081116103105780636352211e116102a35780636ccbae5f116102725780636ccbae5f146106665780636debcb8d1461067957806370a082311461068c578063728a44d81461069f578063764a81bb146106b2576103f1565b80636352211e146105ff578063638e5c7814610612578063672b9f811461062557806368b62d3214610646576103f1565b80634f558e79116102df5780634f558e79146105b357806350382c1a146105c6578063572b6c05146105d957806361603dd9146105ec576103f1565b8063430c2081146105675780634348b5621461057a57806347c816991461058d5780634a72584d146105a0576103f1565b806323b872dd11610388578063310bd74b11610357578063310bd74b1461051b57806340c10f191461052e57806342842e0e1461054157806342966c6814610554576103f1565b806323b872dd146104cf57806327f18975146104e2578063280d9b05146104f55780632e1a7d4d14610508576103f1565b8063150b7a02116103c4578063150b7a02146104695780631bd8cc1a146104895780631be5e7ed146104a95780631bf7e13e146104bc576103f1565b806301ffc9a7146103f657806306fdde031461041f578063081812fc14610434578063095ea7b314610454575b600080fd5b6104096104043660046145f5565b61090f565b6040516104169190614cfc565b60405180910390f35b610427610922565b6040516104169190614d3a565b610447610442366004614860565b6109b5565b6040516104169190614b7a565b61046761046236600461410e565b610a01565b005b61047c610477366004613f1d565b610a53565b6040516104169190614d25565b61049c610497366004614495565b610c1c565b6040516104169190614c8a565b6104276104b736600461471e565b610d3c565b6104276104ca366004614801565b610d87565b6104676104dd366004613edd565b610e52565b6104676104f03660046143a6565b610ede565b610467610503366004613f8d565b610f5f565b610467610516366004614860565b610ffb565b610467610529366004614860565b611047565b61046761053c36600461410e565b6110bb565b61046761054f366004613edd565b611108565b610467610562366004614860565b611123565b61040961057536600461410e565b6111a0565b610467610588366004614192565b6111ac565b61046761059b366004614660565b611211565b6104676105ae3660046148a8565b611289565b6104096105c1366004614860565b611308565b6104676105d4366004614753565b611313565b6104096105e7366004613e6d565b611346565b6104676105fa366004614878565b611357565b61044761060d366004614860565b6113e0565b610467610620366004614860565b611415565b6106386106333660046148f8565b611460565b604051610416929190614d88565b610659610654366004614878565b611478565b6040516104169190614b63565b610659610674366004614860565b6114ba565b610467610687366004613f1d565b6114cd565b61065961069a366004613e6d565b6114ef565b6104676106ad366004613e6d565b611533565b6104676106c0366004613e6d565b6115ac565b6104676106d3366004613e6d565b611628565b6104676106e6366004614416565b6116a4565b6104676106f9366004614139565b6116ca565b610659611719565b61042761171e565b61046761071c36600461462d565b61172d565b61046761072f3660046144de565b6117b3565b610467610742366004614091565b6118da565b610467610755366004614416565b6119a8565b6104276119ce565b610409610770366004614801565b6119f7565b61046761078336600461410e565b611a42565b610467610796366004614192565b611ac0565b6104476107a9366004614860565b611b49565b6104676107bc36600461431e565b611b66565b6107d46107cf366004614495565b611c16565b604051610416929190614c9d565b6104676107f0366004614878565b611d7e565b610467610803366004614028565b611d9c565b610427610816366004614860565b611e1c565b610467610829366004613e6d565b611ebe565b61046761083c3660046146be565b611fab565b61042761084f366004614860565b611fd1565b610467610862366004614139565b612053565b6104676108753660046143a6565b6120dd565b6104676108883660046140bc565b612155565b61046761089b366004614139565b612240565b6104096108ae366004613ea5565b6122bc565b6106596122ea565b6104676108c93660046143a6565b6122ef565b6104676108dc366004613f1d565b612367565b6104676108ef366004614243565b612389565b61049c6109023660046144de565b612417565b6104276124f4565b600061091a82612515565b90505b919050565b606060658054610931906158c9565b80601f016020809104026020016040519081016040528092919081815260200182805461095d906158c9565b80156109aa5780601f1061097f576101008083540402835291602001916109aa565b820191906000526020600020905b81548152906001019060200180831161098d57829003601f168201915b505050505090505b90565b60006109c082612555565b6109e55760405162461bcd60e51b81526004016109dc906152dc565b60405180910390fd5b506000908152606960205260409020546001600160a01b031690565b80610a0b33611346565b15610a3b57610a18612572565b8114610a365760405162461bcd60e51b81526004016109dc906150bb565b610a44565b610a448161258c565b610a4e83836125ba565b505050565b6000610a7e7f8ffb960699dc2ba88f34d0e41c029c3c36c95149679fe1d0153a9582bec923786109b2565b546001600160a01b0316610a9061264d565b6001600160a01b03161415610bfb576000610aa961264d565b9050610b33816001600160a01b031663c87b56dd876040518263ffffffff1660e01b8152600401610ada9190614b63565b60006040518083038186803b158015610af257600080fd5b505afa158015610b06573d6000803e3d6000fd5b505050506040513d6000823e601f3d908101601f19168201604052610b2e9190810190614798565b61265c565b610b4f5760405162461bcd60e51b81526004016109dc90615541565b604051630852cd8d60e31b81526001600160a01b038216906342966c6890610b7b908890600401614b63565b600060405180830381600087803b158015610b9557600080fd5b505af1158015610ba9573d6000803e3d6000fd5b505050831580159150610bc35750610bc3838501856145c3565b15610be157610bd230866126a2565b610bdc8686612781565b610beb565b610beb86866126a2565b50630a85bd0160e11b9050610c13565b60405162461bcd60e51b81526004016109dc906154fc565b95945050505050565b6060826001600160401b03811115610c4457634e487b7160e01b600052604160045260246000fd5b604051908082528060200260200182016040528015610c7757816020015b6060815260200190600190039081610c625790505b50905060005b83811015610d3457610cf6858583818110610ca857634e487b7160e01b600052603260045260246000fd5b9050602002810190610cba91906155f4565b8080601f016020809104026020016040519081016040528093929190818152602001838380828437600092019190915250879250612836915050565b828281518110610d1657634e487b7160e01b600052603260045260246000fd5b60200260200101819052508080610d2c90615904565b915050610c7d565b509392505050565b6060610d7f84848080601f016020809104026020016040519081016040528093929190818152602001838380828437600092019190915250869250612836915050565b949350505050565b606060005a9050610d998585856119f7565b610db55760405162461bcd60e51b81526004016109dc90615406565b610e47610dc56020870187613e6d565b30604088013584610dd960608b018b6155f4565b8080601f01602080910402602001604051908101604052809392919081815260200183838082843760009201919091525050604080516020601f8e018190048102820181019092528c815292508c91508b908190840183828082843760009201919091525061286b92505050565b9150505b9392505050565b80610e64610e5e61264d565b8261295a565b610e805760405162461bcd60e51b81526004016109dc90614e1b565b81610e8a33611346565b15610eba57610e97612572565b8114610eb55760405162461bcd60e51b81526004016109dc906150bb565b610ec3565b610ec38161258c565b610ecc836129d7565b610ed7858585612a42565b5050505050565b80610eea610e5e61264d565b610f065760405162461bcd60e51b81526004016109dc90614e1b565b81610f1033611346565b15610f4057610f1d612572565b8114610f3b5760405162461bcd60e51b81526004016109dc906150bb565b610f49565b610f498161258c565b610f568787878787612b6f565b50505050505050565b60005a9050610ff063b88d4fde8989898989604051602401610f85959493929190614bde565b6040516020818303038152906040529060e01b6020820180516001600160e01b0383818316178352505050508785858080601f016020809104026020016040519081016040528093929190818152602001838380828437600092019190915250879250612bee915050565b505050505050505050565b611004816113e0565b6001600160a01b031661101561264d565b6001600160a01b03161461103b5760405162461bcd60e51b81526004016109dc9061544d565b61104481612c33565b50565b80611053610e5e61264d565b61106f5760405162461bcd60e51b81526004016109dc90614e1b565b8161107933611346565b156110a957611086612572565b81146110a45760405162461bcd60e51b81526004016109dc906150bb565b6110b2565b6110b28161258c565b610a4e836129d7565b6110c3612cda565b6001600160a01b03166110d461264d565b6001600160a01b0316146110fa5760405162461bcd60e51b81526004016109dc90615583565b61110482826126a2565b5050565b610a4e83838360405180602001604052806000815250611d9c565b8061112f610e5e61264d565b61114b5760405162461bcd60e51b81526004016109dc90614e1b565b8161115533611346565b1561118557611162612572565b81146111805760405162461bcd60e51b81526004016109dc906150bb565b61118e565b61118e8161258c565b611197836129d7565b610a4e83612c33565b6000610e4b838361295a565b610134546001600160a01b03166111c161264d565b6001600160a01b0316146111e75760405162461bcd60e51b81526004016109dc90615028565b611207888888888888888860405180602001604052806000815250612dfe565b5050505050505050565b8061121d610e5e61264d565b6112395760405162461bcd60e51b81526004016109dc90614e1b565b8161124333611346565b1561127357611250612572565b811461126e5760405162461bcd60e51b81526004016109dc906150bb565b61127c565b61127c8161258c565b610f568787878787612e4e565b80611295610e5e61264d565b6112b15760405162461bcd60e51b81526004016109dc90614e1b565b816112bb33611346565b156112eb576112c8612572565b81146112e65760405162461bcd60e51b81526004016109dc906150bb565b6112f4565b6112f48161258c565b61130086868686612f2d565b505050505050565b600061091a82612555565b611044816040516020016113279190614a67565b6040516020818303038152906040528051906020012060001c82612f9d565b6001600160a01b0381163014919050565b60005a9050610ed76342966c68856040516024016113759190614b63565b6040516020818303038152906040529060e01b6020820180516001600160e01b0383818316178352505050508585858080601f016020809104026020016040519081016040528093929190818152602001838380828437600092019190915250879250612bee915050565b6000818152606760205260408120546001600160a01b03168061091a5760405162461bcd60e51b81526004016109dc90615199565b80611421610e5e61264d565b61143d5760405162461bcd60e51b81526004016109dc90614e1b565b61144f61144861264d565b3084612a42565b61110461145a61264d565b83612781565b60608061146d8484612fc9565b909590945092505050565b6000610d7f8484848080601f016020809104026020016040519081016040528093929190818152602001838380828437600092019190915250612fea92505050565b6000908152610100602052604090205490565b60005a9050610f566342842e0e87878760405160240161137593929190614bba565b60006001600160a01b0382166115175760405162461bcd60e51b81526004016109dc9061514f565b506001600160a01b031660009081526068602052604090205490565b600061154c6000805160206159a18339815191526109b2565b546001600160a01b0316146115735760405162461bcd60e51b81526004016109dc90615328565b8061158b6000805160206159a18339815191526109b2565b80546001600160a01b0319166001600160a01b039290921691909117905550565b60006115d77f8bea9a6f8afd34f4e29c585f854e0cc5161431bf5fc299d468454d33dce53b876109b2565b546001600160a01b0316146115fe5760405162461bcd60e51b81526004016109dc90614f24565b8061158b7f8bea9a6f8afd34f4e29c585f854e0cc5161431bf5fc299d468454d33dce53b876109b2565b60006116537f8ffb960699dc2ba88f34d0e41c029c3c36c95149679fe1d0153a9582bec923786109b2565b546001600160a01b03161461167a5760405162461bcd60e51b81526004016109dc90615272565b8061158b7f8ffb960699dc2ba88f34d0e41c029c3c36c95149679fe1d0153a9582bec923786109b2565b60005a9050610ff063ce92b33e8989898989604051602401611375959493929190614c50565b6116d2612cda565b6001600160a01b03166116e361264d565b6001600160a01b0316146117095760405162461bcd60e51b81526004016109dc90615583565b61171384846126a2565b50505050565b601481565b606060668054610931906158c9565b610134546001600160a01b031661174261264d565b6001600160a01b0316146117685760405162461bcd60e51b81526004016109dc90615028565b6117756101338383613c4b565b507f4b120d6a959a84a520fa48f5f937cca0e79129423487af7901213b5d2e89313b82826040516117a7929190614d4d565b60405180910390a15050565b8060148111156117d55760405162461bcd60e51b81526004016109dc906154c5565b60005b8181101561188a57600084848381811061180257634e487b7160e01b600052603260045260246000fd5b905060200201359050611814816113e0565b6001600160a01b031661182561264d565b6001600160a01b031614816040516020016118409190614b01565b6040516020818303038152906040529061186d5760405162461bcd60e51b81526004016109dc9190614d3a565b5061187781612c33565b508061188281615904565b9150506117d8565b5061189361264d565b6001600160a01b03167ff871896b17e9cb7a64941c62c188a4f5c621b86800e3d15452ece01ce56073df84846040516118cd929190614cc2565b60405180910390a2505050565b6118e261264d565b6001600160a01b0316826001600160a01b031614156119135760405162461bcd60e51b81526004016109dc90614faf565b80606a600061192061264d565b6001600160a01b03908116825260208083019390935260409182016000908120918716808252919093529120805460ff19169215159290921790915561196461264d565b6001600160a01b03167f17307eab39ab6107e8899845ad3d59bd9653f200f220920489ca2b5937696c318360405161199c9190614cfc565b60405180910390a35050565b60005a9050610ff063ec129eea8989898989604051602401611375959493929190614c50565b6040518060400160405280600d81526020016c554e533a20526567697374727960981b81525081565b6000610d7f611a05856157fe565b3085858080601f01602080910402602001604051908101604052809392919081815260200183838082843760009201919091525061306692505050565b80611a4e610e5e61264d565b611a6a5760405162461bcd60e51b81526004016109dc90614e1b565b81611a7433611346565b15611aa457611a81612572565b8114611a9f5760405162461bcd60e51b81526004016109dc906150bb565b611aad565b611aad8161258c565b611713611ab9846113e0565b8585612a42565b610134546001600160a01b0316611ad561264d565b6001600160a01b031614611afb5760405162461bcd60e51b81526004016109dc90615028565b611b3c888888888080601f01602080910402602001604051908101604052809392919081815260200183838082843760009201919091525061312792505050565b611207848484848b613161565b6000611b5482612555565b611b5f57600061091a565b5030919050565b610134546001600160a01b0316611b7b61264d565b6001600160a01b031614611ba15760405162461bcd60e51b81526004016109dc90615028565b611300868686868080601f01602080910402602001604051908101604052809392919081815260200183838082843760009201919091525050604080516020601f8a0181900481028201810190925288815292508891508790819084018382808284376000920191909152506131eb92505050565b606080836001600160401b03811115611c3f57634e487b7160e01b600052604160045260246000fd5b604051908082528060200260200182016040528015611c7257816020015b6060815260200190600190039081611c5d5790505b509150836001600160401b03811115611c9b57634e487b7160e01b600052604160045260246000fd5b604051908082528060200260200182016040528015611cce57816020015b6060815260200190600190039081611cb95790505b50905060005b84811015611d7557611d0c868683818110611cff57634e487b7160e01b600052603260045260246000fd5b9050602002013585612fc9565b848381518110611d2c57634e487b7160e01b600052603260045260246000fd5b60200260200101848481518110611d5357634e487b7160e01b600052603260045260246000fd5b6020026020010182905282905250508080611d6d90615904565b915050611cd4565b50935093915050565b60005a9050610ed763310bd74b856040516024016113759190614b63565b81611da8610e5e61264d565b611dc45760405162461bcd60e51b81526004016109dc90614e1b565b82611dce33611346565b15611dfe57611ddb612572565b8114611df95760405162461bcd60e51b81526004016109dc906150bb565b611e07565b611e078161258c565b611e10846129d7565b61130086868686613234565b600081815260c960205260409020805460609190611e39906158c9565b80601f0160208091040260200160405190810160405280929190818152602001828054611e65906158c9565b8015611eb25780601f10611e8757610100808354040283529160200191611eb2565b820191906000526020600020905b815481529060010190602001808311611e9557829003601f168201915b50505050509050919050565b600054610100900460ff1680611ed7575060005460ff16155b611ef35760405162461bcd60e51b81526004016109dc906151e2565b600054610100900460ff16158015611f1e576000805460ff1961ff0019909116610100171660011790555b61013480546001600160a01b0319166001600160a01b0384161790556040805180820182526013815272556e73746f707061626c6520446f6d61696e7360681b60208083019190915282518084019093526002835261155160f21b90830152611f8691613267565b611f8e613305565b611f96613305565b8015611104576000805461ff00191690555050565b60005a9050610ff06347c816998989898989604051602401611375959493929190614d61565b6060611fdc82612555565b611ff85760405162461bcd60e51b81526004016109dc906153b7565b6000612002613379565b905060008151116120225760405180602001604052806000815250610e4b565b8061202c84613389565b60405160200161203d929190614ad2565b6040516020818303038152906040529392505050565b610134546001600160a01b031661206861264d565b6001600160a01b03161461208e5760405162461bcd60e51b81526004016109dc90615028565b611713848484848080601f0160208091040260200160405190810160405280939291908181526020018383808284376000920182905250604080516020810190915290815292506131eb915050565b806120e9610e5e61264d565b6121055760405162461bcd60e51b81526004016109dc90614e1b565b8161210f33611346565b1561213f5761211c612572565b811461213a5760405162461bcd60e51b81526004016109dc906150bb565b612148565b6121488161258c565b610f568787878787613161565b61217e7f8bea9a6f8afd34f4e29c585f854e0cc5161431bf5fc299d468454d33dce53b876109b2565b546001600160a01b031661219061264d565b6001600160a01b0316146121b65760405162461bcd60e51b81526004016109dc90615583565b60208114156121df5760006121cd82840184614860565b90506121d984826126a2565b50610a4e565b60006121ed8284018461451d565b805190915060005b818110156113005761222e8684838151811061222157634e487b7160e01b600052603260045260246000fd5b60200260200101516126a2565b8061223881615904565b9150506121f5565b610134546001600160a01b031661225561264d565b6001600160a01b03161461227b5760405162461bcd60e51b81526004016109dc90615028565b611713848484848080601f01602080910402602001604051908101604052809392919081815260200183838082843760009201919091525061312792505050565b6001600160a01b039182166000908152606a6020908152604080832093909416825291909152205460ff1690565b600090565b806122fb610e5e61264d565b6123175760405162461bcd60e51b81526004016109dc90614e1b565b8161232133611346565b156123515761232e612572565b811461234c5760405162461bcd60e51b81526004016109dc906150bb565b61235a565b61235a8161258c565b610f5687878787876134a3565b60005a9050610f566323b872dd87878760405160240161137593929190614bba565b610134546001600160a01b031661239e61264d565b6001600160a01b0316146123c45760405162461bcd60e51b81526004016109dc90615028565b61240b8a8a8a8a8a8a8a8a8a8a8080601f016020809104026020016040519081016040528093929190818152602001838380828437600092019190915250612dfe92505050565b50505050505050505050565b6060816001600160401b0381111561243f57634e487b7160e01b600052604160045260246000fd5b60405190808252806020026020018201604052801561247257816020015b606081526020019060019003908161245d5790505b50905060005b828110156124ed576124af8484838181106124a357634e487b7160e01b600052603260045260246000fd5b90506020020135611e1c565b8282815181106124cf57634e487b7160e01b600052603260045260246000fd5b602002602001018190525080806124e590615904565b915050612478565b5092915050565b604051806040016040528060058152602001640302e332e360dc1b81525081565b60006001600160e01b031982166380ac58cd60e01b148061254657506001600160e01b03198216635b5e139f60e01b145b8061091a575061091a826134b9565b6000908152606760205260409020546001600160a01b0316151590565b600061257d33611346565b156109b25750601f1936013590565b600081815261010060205260409020546125a7906001615688565b6000918252610100602052604090912055565b60006125c5826113e0565b9050806001600160a01b0316836001600160a01b031614156125f95760405162461bcd60e51b81526004016109dc90615484565b806001600160a01b031661260b61264d565b6001600160a01b031614806126275750612627816108ae61264d565b6126435760405162461bcd60e51b81526004016109dc906150f2565b610a4e83836134d2565b6000612657613540565b905090565b600061269b61268c6040518060400160405280600a8152602001697564746573746465762d60b01b81525061356e565b6126958461356e565b90613593565b1592915050565b6001600160a01b0382166126c85760405162461bcd60e51b81526004016109dc906152a7565b6126d181612555565b156126ee5760405162461bcd60e51b81526004016109dc90614eed565b6126fa60008383610a4e565b6001600160a01b0382166000908152606860205260408120805460019290612723908490615688565b909155505060008181526067602052604080822080546001600160a01b0319166001600160a01b03861690811790915590518392907fddf252ad1be2c89b69c2b068fc378daa952ba7f163c4a11628f55a4df523b3ef908290a45050565b600061278b612cda565b905061279781836134d2565b60006127b06000805160206159a18339815191526109b2565b546040516001600160a01b039091169150819063e3dec8fb90869030906127db908890602001614b63565b6040516020818303038152906040526040518463ffffffff1660e01b815260040161280893929190614b8e565b600060405180830381600087803b15801561282257600080fd5b505af1158015611207573d6000803e3d6000fd5b6060610e4b8360405160200161284c9190614a67565b6040516020818303038152906040528051906020012060001c836135ba565b60606128768561258c565b600080876001600160a01b0316866128908b8a8989613679565b60405161289d9190614a67565b60006040518083038160008787f1925050503d80600081146128db576040519150601f19603f3d011682016040523d82523d6000602084013e6128e0565b606091505b5090925090506128f1603f876156a0565b5a1161290d57634e487b7160e01b600052600160045260246000fd5b61294d82826040518060400160405280601a81526020017f42617365466f727761726465723a2043414c4c5f4641494c45440000000000008152506136a9565b9998505050505050505050565b600061296582612555565b6129815760405162461bcd60e51b81526004016109dc9061506f565b600061298c836113e0565b9050806001600160a01b0316846001600160a01b031614806129c75750836001600160a01b03166129bc846109b5565b6001600160a01b0316145b80610d7f5750610d7f81856122bc565b6129e0816136e2565b6040516020016129f09190614b63565b60408051601f198184030181528282528051602091820120600085815260cb9092529181209190915582917f185c30856dadb58bf097c1f665a52ada7029752dbcad008ea3fefc73bee8c9fe9190a250565b826001600160a01b0316612a55826113e0565b6001600160a01b031614612a7b5760405162461bcd60e51b81526004016109dc9061536e565b6001600160a01b038216612aa15760405162461bcd60e51b81526004016109dc90614f6b565b612aac838383610a4e565b612ab76000826134d2565b6001600160a01b0383166000908152606860205260408120805460019290612ae09084906157e7565b90915550506001600160a01b0382166000908152606860205260408120805460019290612b0e908490615688565b909155505060008181526067602052604080822080546001600160a01b0319166001600160a01b0386811691821790925591518493918716917fddf252ad1be2c89b69c2b068fc378daa952ba7f163c4a11628f55a4df523b3ef91a4505050565b60005b8481101561130057612bdc868683818110612b9d57634e487b7160e01b600052603260045260246000fd5b90506020020135858584818110612bc457634e487b7160e01b600052603260045260246000fd5b9050602002810190612bd691906155f4565b85612f2d565b80612be681615904565b915050612b72565b60606000612c198680519060200120306101006000898152602001908152602001600020548761370e565b9050612c29813087868a8961286b565b9695505050505050565b6000612c3e826113e0565b9050612c4c81600084610a4e565b612c576000836134d2565b6001600160a01b0381166000908152606860205260408120805460019290612c809084906157e7565b909155505060008281526067602052604080822080546001600160a01b0319169055518391906001600160a01b038416907fddf252ad1be2c89b69c2b068fc378daa952ba7f163c4a11628f55a4df523b3ef908390a45050565b600080612cf46000805160206159a18339815191526109b2565b5460405163721804d360e11b81526001600160a01b039091169150600090829063e43009a690612d28903090600401614b7a565b60206040518083038186803b158015612d4057600080fd5b505afa158015612d54573d6000803e3d6000fd5b505050506040513d601f19601f82011682018060405250810190612d7891906145dd565b60405163e66f960360e01b81529091506001600160a01b0383169063e66f960390612da7908490600401614b63565b60206040518083038186803b158015612dbf57600080fd5b505afa158015612dd3573d6000803e3d6000fd5b505050506040513d601f19601f82011682018060405250810190612df79190613e89565b9250505090565b612e41898989898080601f0160208091040260200160405190810160405280939291908181526020018383808284376000920191909152508792506131eb915050565b610ff0858585858c613161565b60008585604051602001612e63929190614ac2565b60408051601f198184030181528282528051602091820120601f8901829004820284018201909252878352909250612eb79183918990899081908401838280828437600092019190915250612f9d92505050565b6113008187878080601f01602080910402602001604051908101604052809392919081815260200183838082843760009201919091525050604080516020601f8b01819004810282018101909252898152925089915088908190840183828082843760009201919091525088925061374d915050565b612f3684613888565b612f525760405162461bcd60e51b81526004016109dc90614eb6565b61171384612f5f86611e1c565b85858080601f01602080910402602001604051908101604052809392919081815260200183838082843760009201919091525087925061374d915050565b612fa682613888565b61110457600082815260c9602090815260409091208251610a4e92840190613ccb565b606080612fd584611e1c565b9150612fe184846135ba565b90509250929050565b600081516000141561300e5760405162461bcd60e51b81526004016109dc906155c5565b82826040516020016130209190614a67565b60405160208183030381529060405280519060200120604051602001613047929190614b6c565b60408051601f1981840301815291905280516020909101209392505050565b6040808401519051636ccbae5f60e01b815260009182913091636ccbae5f916130929190600401614b63565b60206040518083038186803b1580156130aa57600080fd5b505afa1580156130be573d6000803e3d6000fd5b505050506040513d601f19601f820116820180604052508101906130e291906145dd565b905060006130fd86606001518051906020012086848761370e565b9050856020015182148015612c29575085516001600160a01b038281169116149695505050505050565b61313183836126a2565b817fc5beef08f693b11c316c0c8394a377a0033c9cf701b8cd8afd79cecef60c3952826040516118cd9190614d3a565b60005b84811015611300576131d986868381811061318f57634e487b7160e01b600052603260045260246000fd5b90506020028101906131a191906155f4565b8686858181106131c157634e487b7160e01b600052603260045260246000fd5b90506020028101906131d391906155f4565b86612e4e565b806131e381615904565b915050613164565b6131f68484836138ae565b827fc5beef08f693b11c316c0c8394a377a0033c9cf701b8cd8afd79cecef60c3952836040516132269190614d3a565b60405180910390a250505050565b61323f848484612a42565b61324b848484846138e1565b6117135760405162461bcd60e51b81526004016109dc90614e64565b600054610100900460ff1680613280575060005460ff16155b61329c5760405162461bcd60e51b81526004016109dc906151e2565b600054610100900460ff161580156132c7576000805460ff1961ff0019909116610100171660011790555b82516132da906065906020860190613ccb565b5081516132ee906066906020850190613ccb565b508015610a4e576000805461ff0019169055505050565b600054610100900460ff168061331e575060005460ff16155b61333a5760405162461bcd60e51b81526004016109dc906151e2565b600054610100900460ff16158015613365576000805460ff1961ff0019909116610100171660011790555b8015611044576000805461ff001916905550565b60606101338054610931906158c9565b6060816133ae57506040805180820190915260018152600360fc1b602082015261091d565b8160005b81156133d857806133c281615904565b91506133d19050600a836156a0565b91506133b2565b6000816001600160401b0381111561340057634e487b7160e01b600052604160045260246000fd5b6040519080825280601f01601f19166020018201604052801561342a576020820181803683370190505b5090505b8415610d7f5761343f6001836157e7565b915061344c600a8661591f565b613457906030615688565b60f81b81838151811061347a57634e487b7160e01b600052603260045260246000fd5b60200101906001600160f81b031916908160001a90535061349c600a866156a0565b945061342e565b6134ac816129d7565b610ed78585858585613161565b6001600160e01b031981166301ffc9a760e01b14919050565b600081815260696020526040902080546001600160a01b0319166001600160a01b0384169081179091558190613507826113e0565b6001600160a01b03167f8c5be1e5ebec7d5bd14f71427d1e84f3dd0314c0f7b2291e5b200ac8c7c3b92560405160405180910390a45050565b600061354b33611346565b1561355f575060331936013560601c6109b2565b6135676139f9565b90506109b2565b613576613d3f565b506040805180820190915281518152602082810190820152919050565b60208083015183518351928401516000936135b192918491906139fd565b14159392505050565b606060ca60006135c9846136e2565b8152602001908152602001600020600084815260200190815260200160002080546135f3906158c9565b80601f016020809104026020016040519081016040528092919081815260200182805461361f906158c9565b801561366c5780601f106136415761010080835404028352916020019161366c565b820191906000526020600020905b81548152906001019060200180831161364f57829003601f168201915b5050505050905092915050565b606082858560405160200161369093929190614a83565b6040516020818303038152906040529050949350505050565b606083156136b8575081610e4b565b8251156136c85782518084602001fd5b8160405162461bcd60e51b81526004016109dc9190614d3a565b600081815260cb60205260408120541561370a57600082815260cb602052604090205461091a565b5090565b6000610c138261374787878760405160200161372c93929190614a3f565b60405160208183030381529060405280519060200120613aac565b90613adc565b60ca600061375a836136e2565b815260200190815260200160002060008581526020019081526020016000208054613784906158c9565b151590506137db578260405161379a9190614a67565b6040518091039020817f7ae4f661958fbecc2f77be6b0eb280d2a6f604b29e1e7221c82b9da0c4af7f86856040516137d29190614d3a565b60405180910390a35b8160ca60006137e9846136e2565b81526020019081526020016000206000868152602001908152602001600020908051906020019061381b929190613ccb565b508160405161382a9190614a67565b6040518091039020836040516138409190614a67565b6040518091039020827f851ffe8e74d5015261dba0a1f9e1b0e5d42c5af5d2ad1908fee897c7d80a0d92868660405161387a929190614d88565b60405180910390a450505050565b600081815260c96020526040812080548291906138a4906158c9565b9050119050919050565b6138b883836126a2565b6138c560008484846138e1565b610a4e5760405162461bcd60e51b81526004016109dc90614e64565b60006138f5846001600160a01b0316613b58565b156139f157836001600160a01b031663150b7a0261391161264d565b8786866040518563ffffffff1660e01b81526004016139339493929190614c1d565b602060405180830381600087803b15801561394d57600080fd5b505af192505050801561397d575060408051601f3d908101601f1916820190925261397a91810190614611565b60015b6139d7573d8080156139ab576040519150601f19603f3d011682016040523d82523d6000602084013e6139b0565b606091505b5080516139cf5760405162461bcd60e51b81526004016109dc90614e64565b805181602001fd5b6001600160e01b031916630a85bd0160e11b149050610d7f565b506001610d7f565b3390565b600080858411613aa25760006001613a168660206157e7565b613a219060086157c8565b613a2c9060026156fa565b613a3691906157e7565b845190199150811685613a498989615688565b613a5391906157e7565b805190935082165b818114613a8d57878411613a755787945050505050610d7f565b83613a7f816158b2565b945050828451169050613a5b565b613a978785615688565b945050505050610d7f565b5092949350505050565b600081604051602001613abf9190614b32565b604051602081830303815290604052805190602001209050919050565b600080600080845160411415613b065750505060208201516040830151606084015160001a613b4c565b845160401415613b345750505060408201516020830151906001600160ff1b0381169060ff1c601b01613b4c565b60405162461bcd60e51b81526004016109dc90614de4565b612c2986828585613b5e565b3b151590565b60007f7fffffffffffffffffffffffffffffff5d576e7357a4501ddfe92f46681b20a0821115613ba05760405162461bcd60e51b81526004016109dc90614fe6565b8360ff16601b1480613bb557508360ff16601c145b613bd15760405162461bcd60e51b81526004016109dc90615230565b600060018686868660405160008152602001604052604051613bf69493929190614d07565b6020604051602081039080840390855afa158015613c18573d6000803e3d6000fd5b5050604051601f1901519150506001600160a01b038116610c135760405162461bcd60e51b81526004016109dc90614dad565b828054613c57906158c9565b90600052602060002090601f016020900481019282613c795760008555613cbf565b82601f10613c925782800160ff19823516178555613cbf565b82800160010185558215613cbf579182015b82811115613cbf578235825591602001919060010190613ca4565b5061370a929150613d59565b828054613cd7906158c9565b90600052602060002090601f016020900481019282613cf95760008555613cbf565b82601f10613d1257805160ff1916838001178555613cbf565b82800160010185558215613cbf579182015b82811115613cbf578251825591602001919060010190613d24565b604051806040016040528060008152602001600081525090565b5b8082111561370a5760008155600101613d5a565b6000613d81613d7c84615661565b615638565b9050828152838383011115613d9557600080fd5b828260208301376000602084830101529392505050565b803561091d81615975565b60008083601f840112613dc8578182fd5b5081356001600160401b03811115613dde578182fd5b6020830191508360208083028501011115613df857600080fd5b9250929050565b8035801515811461091d57600080fd5b60008083601f840112613e20578182fd5b5081356001600160401b03811115613e36578182fd5b602083019150836020828501011115613df857600080fd5b600082601f830112613e5e578081fd5b610e4b83833560208501613d6e565b600060208284031215613e7e578081fd5b8135610e4b81615975565b600060208284031215613e9a578081fd5b8151610e4b81615975565b60008060408385031215613eb7578081fd5b8235613ec281615975565b91506020830135613ed281615975565b809150509250929050565b600080600060608486031215613ef1578081fd5b8335613efc81615975565b92506020840135613f0c81615975565b929592945050506040919091013590565b600080600080600060808688031215613f34578283fd5b8535613f3f81615975565b94506020860135613f4f81615975565b93506040860135925060608601356001600160401b03811115613f70578182fd5b613f7c88828901613e0f565b969995985093965092949392505050565b600080600080600080600060a0888a031215613fa7578485fd5b8735613fb281615975565b96506020880135613fc281615975565b95506040880135945060608801356001600160401b0380821115613fe4578384fd5b613ff08b838c01613e0f565b909650945060808a0135915080821115614008578384fd5b506140158a828b01613e0f565b989b979a50959850939692959293505050565b6000806000806080858703121561403d578182fd5b843561404881615975565b9350602085013561405881615975565b92506040850135915060608501356001600160401b03811115614079578182fd5b61408587828801613e4e565b91505092959194509250565b600080604083850312156140a3578182fd5b82356140ae81615975565b9150612fe160208401613dff565b6000806000604084860312156140d0578081fd5b83356140db81615975565b925060208401356001600160401b038111156140f5578182fd5b61410186828701613e0f565b9497909650939450505050565b60008060408385031215614120578182fd5b823561412b81615975565b946020939093013593505050565b6000806000806060858703121561414e578182fd5b843561415981615975565b93506020850135925060408501356001600160401b0381111561417a578283fd5b61418687828801613e0f565b95989497509550505050565b60008060008060008060008060a0898b0312156141ad578182fd5b88356141b881615975565b97506020890135965060408901356001600160401b03808211156141da578384fd5b6141e68c838d01613e0f565b909850965060608b01359150808211156141fe578384fd5b61420a8c838d01613db7565b909650945060808b0135915080821115614222578384fd5b5061422f8b828c01613db7565b999c989b5096995094979396929594505050565b60008060008060008060008060008060c08b8d031215614261578384fd5b61426a8b613dac565b995060208b0135985060408b01356001600160401b038082111561428c578586fd5b6142988e838f01613e0f565b909a50985060608d01359150808211156142b0578586fd5b6142bc8e838f01613db7565b909850965060808d01359150808211156142d4578586fd5b6142e08e838f01613db7565b909650945060a08d01359150808211156142f8578384fd5b506143058d828e01613e0f565b915080935050809150509295989b9194979a5092959850565b60008060008060008060808789031215614336578384fd5b863561434181615975565b95506020870135945060408701356001600160401b0380821115614363578586fd5b61436f8a838b01613e0f565b90965094506060890135915080821115614387578384fd5b5061439489828a01613e0f565b979a9699509497509295939492505050565b6000806000806000606086880312156143bd578283fd5b85356001600160401b03808211156143d3578485fd5b6143df89838a01613db7565b909750955060208801359150808211156143f7578485fd5b5061440488828901613db7565b96999598509660400135949350505050565b60008060008060008060006080888a031215614430578081fd5b87356001600160401b0380821115614446578283fd5b6144528b838c01613db7565b909950975060208a013591508082111561446a578283fd5b6144768b838c01613db7565b909750955060408a0135945060608a0135915080821115614008578283fd5b6000806000604084860312156144a9578081fd5b83356001600160401b038111156144be578182fd5b6144ca86828701613db7565b909790965060209590950135949350505050565b600080602083850312156144f0578182fd5b82356001600160401b03811115614505578283fd5b61451185828601613db7565b90969095509350505050565b6000602080838503121561452f578182fd5b82356001600160401b0380821115614545578384fd5b818501915085601f830112614558578384fd5b81358181111561456a5761456a61595f565b838102915061457a848301615638565b8181528481019084860184860187018a1015614594578788fd5b8795505b838610156145b6578035835260019590950194918601918601614598565b5098975050505050505050565b6000602082840312156145d4578081fd5b610e4b82613dff565b6000602082840312156145ee578081fd5b5051919050565b600060208284031215614606578081fd5b8135610e4b8161598a565b600060208284031215614622578081fd5b8151610e4b8161598a565b6000806020838503121561463f578182fd5b82356001600160401b03811115614654578283fd5b61451185828601613e0f565b600080600080600060608688031215614677578283fd5b85356001600160401b038082111561468d578485fd5b61469989838a01613e0f565b909750955060208801359150808211156146b1578485fd5b5061440488828901613e0f565b60008060008060008060006080888a0312156146d8578081fd5b87356001600160401b03808211156146ee578283fd5b6146fa8b838c01613e0f565b909950975060208a0135915080821115614712578283fd5b6144768b838c01613e0f565b600080600060408486031215614732578081fd5b83356001600160401b03811115614747578182fd5b6144ca86828701613e0f565b600060208284031215614764578081fd5b81356001600160401b03811115614779578182fd5b8201601f81018413614789578182fd5b610d7f84823560208401613d6e565b6000602082840312156147a9578081fd5b81516001600160401b038111156147be578182fd5b8201601f810184136147ce578182fd5b80516147dc613d7c82615661565b8181528560208385010111156147f0578384fd5b610c13826020830160208601615886565b600080600060408486031215614815578081fd5b83356001600160401b038082111561482b578283fd5b908501906080828803121561483e578283fd5b90935060208501359080821115614853578283fd5b5061410186828701613e0f565b600060208284031215614871578081fd5b5035919050565b60008060006040848603121561488c578081fd5b8335925060208401356001600160401b038111156140f5578182fd5b600080600080606085870312156148bd578182fd5b8435935060208501356001600160401b038111156148d9578283fd5b6148e587828801613e0f565b9598909750949560400135949350505050565b6000806040838503121561490a578182fd5b50508035926020909101359150565b818352602080840193600091908185020181018584845b878110156149965782840389528135601e19883603018112614950578687fd5b870180356001600160401b03811115614967578788fd5b803603891315614975578788fd5b61498286828985016149e9565b9a87019a9550505090840190600101614930565b5091979650505050505050565b6000815180845260208085018081965082840281019150828601855b858110156149965782840389526149d7848351614a13565b988501989350908401906001016149bf565b60008284528282602086013780602084860101526020601f19601f85011685010190509392505050565b60008151808452614a2b816020860160208601615886565b601f01601f19169290920160200192915050565b92835260609190911b6bffffffffffffffffffffffff19166020830152603482015260540190565b60008251614a79818460208701615886565b9190910192915050565b60008451614a95818460208901615886565b60609490941b6bffffffffffffffffffffffff191691909301908152601481019190915260340192915050565b6000828483379101908152919050565b60008351614ae4818460208801615886565b835190830190614af8818360208801615886565b01949350505050565b7f52656769737472793a20494e56414c49445f544f4b454e5f4f574e45522000008152601e810191909152603e0190565b7f19457468657265756d205369676e6564204d6573736167653a0a3332000000008152601c810191909152603c0190565b90815260200190565b918252602082015260400190565b6001600160a01b0391909116815260200190565b6001600160a01b03848116825283166020820152606060408201819052600090610c1390830184614a13565b6001600160a01b039384168152919092166020820152604081019190915260600190565b6001600160a01b0386811682528516602082015260408101849052608060608201819052600090614c1290830184866149e9565b979650505050505050565b6001600160a01b0385811682528416602082015260408101839052608060608201819052600090612c2990830184614a13565b600060608252614c64606083018789614919565b8281036020840152614c77818688614919565b9150508260408301529695505050505050565b600060208252610e4b60208301846149a3565b600060408252614cb060408301856149a3565b8281036020840152610e4781856149a3565b6020808252810182905260006001600160fb1b03831115614ce1578081fd5b60208302808560408501379190910160400190815292915050565b901515815260200190565b93845260ff9290921660208401526040830152606082015260800190565b6001600160e01b031991909116815260200190565b600060208252610e4b6020830184614a13565b600060208252610d7f6020830184866149e9565b600060608252614d756060830187896149e9565b8281036020840152614c778186886149e9565b600060408252614d9b6040830185614a13565b8281036020840152610e478185614a13565b60208082526018908201527f45434453413a20696e76616c6964207369676e61747572650000000000000000604082015260600190565b6020808252601f908201527f45434453413a20696e76616c6964207369676e6174757265206c656e67746800604082015260600190565b60208082526029908201527f52656769737472793a2053454e4445525f49535f4e4f545f415050524f5645446040820152682fa7a92fa7aba722a960b91b606082015260800190565b60208082526032908201527f4552433732313a207472616e7366657220746f206e6f6e20455243373231526560408201527131b2b4bb32b91034b6b83632b6b2b73a32b960711b606082015260800190565b6020808252601c908201527f5265636f726453746f726167653a204b45595f4e4f545f464f554e4400000000604082015260600190565b6020808252601c908201527f4552433732313a20746f6b656e20616c7265616479206d696e74656400000000604082015260600190565b60208082526027908201527f52656769737472793a204348494c445f434841494e5f4d414e454745525f4e4f604082015266545f454d50545960c81b606082015260800190565b60208082526024908201527f4552433732313a207472616e7366657220746f20746865207a65726f206164646040820152637265737360e01b606082015260800190565b60208082526019908201527f4552433732313a20617070726f766520746f2063616c6c657200000000000000604082015260600190565b60208082526022908201527f45434453413a20696e76616c6964207369676e6174757265202773272076616c604082015261756560f01b606082015260800190565b60208082526027908201527f52656769737472793a2053454e4445525f49535f4e4f545f4d494e54494e475f60408201526626a0a720a3a2a960c91b606082015260800190565b6020808252602c908201527f4552433732313a206f70657261746f7220717565727920666f72206e6f6e657860408201526b34b9ba32b73a103a37b5b2b760a11b606082015260800190565b60208082526017908201527f52656769737472793a20544f4b454e5f494e56414c4944000000000000000000604082015260600190565b60208082526038908201527f4552433732313a20617070726f76652063616c6c6572206973206e6f74206f7760408201527f6e6572206e6f7220617070726f76656420666f7220616c6c0000000000000000606082015260800190565b6020808252602a908201527f4552433732313a2062616c616e636520717565727920666f7220746865207a65604082015269726f206164647265737360b01b606082015260800190565b60208082526029908201527f4552433732313a206f776e657220717565727920666f72206e6f6e657869737460408201526832b73a103a37b5b2b760b91b606082015260800190565b6020808252602e908201527f496e697469616c697a61626c653a20636f6e747261637420697320616c72656160408201526d191e481a5b9a5d1a585b1a5e995960921b606082015260800190565b60208082526022908201527f45434453413a20696e76616c6964207369676e6174757265202776272076616c604082015261756560f01b606082015260800190565b6020808252818101527f52656769737472793a20434e535f52454749535452595f4e4f545f454d505459604082015260600190565b6020808252818101527f4552433732313a206d696e7420746f20746865207a65726f2061646472657373604082015260600190565b6020808252602c908201527f4552433732313a20617070726f76656420717565727920666f72206e6f6e657860408201526b34b9ba32b73a103a37b5b2b760a11b606082015260800190565b60208082526026908201527f52656769737472793a20524f4f545f434841494e5f4d414e454745525f4e4f546040820152655f454d50545960d01b606082015260800190565b60208082526029908201527f4552433732313a207472616e73666572206f6620746f6b656e2074686174206960408201526839903737ba1037bbb760b91b606082015260800190565b6020808252602f908201527f4552433732314d657461646174613a2055524920717565727920666f72206e6f60408201526e3732bc34b9ba32b73a103a37b5b2b760891b606082015260800190565b60208082526027908201527f554e535265676973747279466f727761726465723a205349474e41545552455f6040820152661253959053125160ca1b606082015260800190565b6020808252601d908201527f52656769737472793a20494e56414c49445f544f4b454e5f4f574e4552000000604082015260600190565b60208082526021908201527f4552433732313a20617070726f76616c20746f2063757272656e74206f776e656040820152603960f91b606082015260800190565b6020808252601d908201527f52656769737472793a20455843454544535f42415443485f4c494d4954000000604082015260600190565b60208082526025908201527f52656769737472793a204552433732315f524543454956494e475f50524f4849604082015264109255115160da1b606082015260800190565b60208082526022908201527f52656769737472793a20544f4b454e5f555047524144455f50524f4849424954604082015261115160f21b606082015260800190565b60208082526022908201527f52656769737472793a20494e53554646494349454e545f5045524d495353494f6040820152614e5360f01b606082015260800190565b60208082526015908201527452656769737472793a204c4142454c5f454d50545960581b604082015260600190565b6000808335601e1984360301811261560a578283fd5b8301803591506001600160401b03821115615623578283fd5b602001915036819003821315613df857600080fd5b6040518181016001600160401b03811182821017156156595761565961595f565b604052919050565b60006001600160401b0382111561567a5761567a61595f565b50601f01601f191660200190565b6000821982111561569b5761569b615933565b500190565b6000826156af576156af615949565b500490565b80825b60018086116156c657506156f1565b8187048211156156d8576156d8615933565b808616156156e557918102915b9490941c9380026156b7565b94509492505050565b6000610e4b600019848460008261571357506001610e4b565b8161572057506000610e4b565b816001811461573657600281146157405761576d565b6001915050610e4b565b60ff84111561575157615751615933565b6001841b91508482111561576757615767615933565b50610e4b565b5060208310610133831016604e8410600b84101617156157a0575081810a8381111561579b5761579b615933565b610e4b565b6157ad84848460016156b4565b8086048211156157bf576157bf615933565b02949350505050565b60008160001904831182151516156157e2576157e2615933565b500290565b6000828210156157f9576157f9615933565b500390565b60006080823603121561580f578081fd5b604051608081016001600160401b0382821081831117156158325761583261595f565b816040528435915061584382615975565b8183526020850135602084015260408501356040840152606085013591508082111561586d578384fd5b5061587a36828601613e4e565b60608301525092915050565b60005b838110156158a1578181015183820152602001615889565b838111156117135750506000910152565b6000816158c1576158c1615933565b506000190190565b6002810460018216806158dd57607f821691505b602082108114156158fe57634e487b7160e01b600052602260045260246000fd5b50919050565b600060001982141561591857615918615933565b5060010190565b60008261592e5761592e615949565b500690565b634e487b7160e01b600052601160045260246000fd5b634e487b7160e01b600052601260045260246000fd5b634e487b7160e01b600052604160045260246000fd5b6001600160a01b038116811461104457600080fd5b6001600160e01b03198116811461104457600080fdfebe2bb46ac0377341a1ec5c3116d70fd5029d704bd46292e58f6265dd177ebafea164736f6c6343000800000a",
  "linkReferences": {},
  "deployedLinkReferences": {}
}