{
  "_format": "hh-sol-artifact-1",
  "contractName": "UNSRegistry",
  "sourceName": "contracts/UNSRegistry.sol",
  "abi": [
    {
      "anonymous": false,
      "inputs": [
        {
          "indexed": false,
          "internalType": "address",
          "name": "previousAdmin",
          "type": "address"
        },
        {
          "indexed": false,
          "internalType": "address",
          "name": "newAdmin",
          "type": "address"
        }
      ],
      "name": "AdminChanged",
      "type": "event"
    },
    {
      "anonymous": false,
      "inputs": [
        {
          "indexed": true,
          "internalType": "address",
          "name": "owner",
          "type": "address"
        },
        {
          "indexed": true,
          "internalType": "address",
          "name": "approved",
          "type": "address"
        },
        {
          "indexed": true,
          "internalType": "uint256",
          "name": "tokenId",
          "type": "uint256"
        }
      ],
      "name": "Approval",
      "type": "event"
    },
    {
      "anonymous": false,
      "inputs": [
        {
          "indexed": true,
          "internalType": "address",
          "name": "owner",
          "type": "address"
        },
        {
          "indexed": true,
          "internalType": "address",
          "name": "operator",
          "type": "address"
        },
        {
          "indexed": false,
          "internalType": "bool",
          "name": "approved",
          "type": "bool"
        }
      ],
      "name": "ApprovalForAll",
      "type": "event"
    },
    {
      "anonymous": false,
      "inputs": [
        {
          "indexed": true,
          "internalType": "uint256",
          "name": "tokenId",
          "type": "uint256"
        },
        {
          "indexed": true,
          "internalType": "string",
          "name": "keyIndex",
          "type": "string"
        },
        {
          "indexed": false,
          "internalType": "string",
          "name": "key",
          "type": "string"
        }
      ],
      "name": "NewKey",
      "type": "event"
    },
    {
      "anonymous": false,
      "inputs": [
        {
          "indexed": true,
          "internalType": "uint256",
          "name": "tokenId",
          "type": "uint256"
        },
        {
          "indexed": false,
          "internalType": "string",
          "name": "uri",
          "type": "string"
        }
      ],
      "name": "NewURI",
      "type": "event"
    },
    {
      "anonymous": false,
      "inputs": [
        {
          "indexed": false,
          "internalType": "string",
          "name": "prefix",
          "type": "string"
        }
      ],
      "name": "NewURIPrefix",
      "type": "event"
    },
    {
      "anonymous": false,
      "inputs": [
        {
          "indexed": true,
          "internalType": "uint256",
          "name": "tokenId",
          "type": "uint256"
        }
      ],
      "name": "ResetRecords",
      "type": "event"
    },
    {
      "anonymous": false,
      "inputs": [
        {
          "indexed": true,
          "internalType": "uint256",
          "name": "tokenId",
          "type": "uint256"
        },
        {
          "indexed": true,
          "internalType": "string",
          "name": "keyIndex",
          "type": "string"
        },
        {
          "indexed": true,
          "internalType": "string",
          "name": "valueIndex",
          "type": "string"
        },
        {
          "indexed": false,
          "internalType": "string",
          "name": "key",
          "type": "string"
        },
        {
          "indexed": false,
          "internalType": "string",
          "name": "value",
          "type": "string"
        }
      ],
      "name": "Set",
      "type": "event"
    },
    {
      "anonymous": false,
      "inputs": [
        {
          "indexed": true,
          "internalType": "address",
          "name": "from",
          "type": "address"
        },
        {
          "indexed": true,
          "internalType": "address",
          "name": "to",
          "type": "address"
        },
        {
          "indexed": true,
          "internalType": "uint256",
          "name": "tokenId",
          "type": "uint256"
        }
      ],
      "name": "Transfer",
      "type": "event"
    },
    {
      "anonymous": false,
      "inputs": [
        {
          "indexed": true,
          "internalType": "address",
          "name": "implementation",
          "type": "address"
        }
      ],
      "name": "Upgraded",
      "type": "event"
    },
    {
      "inputs": [],
      "name": "NAME",
      "outputs": [
        {
          "internalType": "string",
          "name": "",
          "type": "string"
        }
      ],
      "stateMutability": "view",
      "type": "function"
    },
    {
      "inputs": [],
      "name": "VERSION",
      "outputs": [
        {
          "internalType": "string",
          "name": "",
          "type": "string"
        }
      ],
      "stateMutability": "view",
      "type": "function"
    },
    {
      "inputs": [
        {
          "internalType": "string",
          "name": "key",
          "type": "string"
        }
      ],
      "name": "addKey",
      "outputs": [],
      "stateMutability": "nonpayable",
      "type": "function"
    },
    {
      "inputs": [
        {
          "internalType": "address",
          "name": "to",
          "type": "address"
        },
        {
          "internalType": "uint256",
          "name": "tokenId",
          "type": "uint256"
        }
      ],
      "name": "approve",
      "outputs": [],
      "stateMutability": "nonpayable",
      "type": "function"
    },
    {
      "inputs": [
        {
          "internalType": "address",
          "name": "owner",
          "type": "address"
        }
      ],
      "name": "balanceOf",
      "outputs": [
        {
          "internalType": "uint256",
          "name": "",
          "type": "uint256"
        }
      ],
      "stateMutability": "view",
      "type": "function"
    },
    {
      "inputs": [
        {
          "internalType": "uint256",
          "name": "tokenId",
          "type": "uint256"
        }
      ],
      "name": "burn",
      "outputs": [],
      "stateMutability": "nonpayable",
      "type": "function"
    },
    {
      "inputs": [
        {
          "internalType": "uint256",
          "name": "tokenId",
          "type": "uint256"
        },
        {
          "internalType": "bytes",
          "name": "signature",
          "type": "bytes"
        }
      ],
      "name": "burnFor",
      "outputs": [],
      "stateMutability": "nonpayable",
      "type": "function"
    },
    {
      "inputs": [
        {
          "internalType": "uint256",
          "name": "tokenId",
          "type": "uint256"
        },
        {
          "internalType": "string",
          "name": "label",
          "type": "string"
        }
      ],
      "name": "childIdOf",
      "outputs": [
        {
          "internalType": "uint256",
          "name": "",
          "type": "uint256"
        }
      ],
      "stateMutability": "pure",
      "type": "function"
    },
    {
      "inputs": [
        {
          "internalType": "address",
          "name": "user",
          "type": "address"
        },
        {
          "internalType": "bytes",
          "name": "depositData",
          "type": "bytes"
        }
      ],
      "name": "deposit",
      "outputs": [],
      "stateMutability": "nonpayable",
      "type": "function"
    },
    {
      "inputs": [
        {
          "internalType": "uint256",
          "name": "tokenId",
          "type": "uint256"
        }
      ],
      "name": "depositToPolygon",
      "outputs": [],
      "stateMutability": "nonpayable",
      "type": "function"
    },
    {
      "inputs": [
        {
          "components": [
            {
              "internalType": "address",
              "name": "from",
              "type": "address"
            },
            {
              "internalType": "uint256",
              "name": "nonce",
              "type": "uint256"
            },
            {
              "internalType": "uint256",
              "name": "tokenId",
              "type": "uint256"
            },
            {
              "internalType": "bytes",
              "name": "data",
              "type": "bytes"
            }
          ],
          "internalType": "struct IForwarder.ForwardRequest",
          "name": "req",
          "type": "tuple"
        },
        {
          "internalType": "bytes",
          "name": "signature",
          "type": "bytes"
        }
      ],
      "name": "execute",
      "outputs": [
        {
          "internalType": "bytes",
          "name": "",
          "type": "bytes"
        }
      ],
      "stateMutability": "nonpayable",
      "type": "function"
    },
    {
      "inputs": [
        {
          "internalType": "uint256",
          "name": "tokenId",
          "type": "uint256"
        }
      ],
      "name": "exists",
      "outputs": [
        {
          "internalType": "bool",
          "name": "",
          "type": "bool"
        }
      ],
      "stateMutability": "view",
      "type": "function"
    },
    {
      "inputs": [
        {
          "internalType": "string",
          "name": "key",
          "type": "string"
        },
        {
          "internalType": "uint256",
          "name": "tokenId",
          "type": "uint256"
        }
      ],
      "name": "get",
      "outputs": [
        {
          "internalType": "string",
          "name": "value",
          "type": "string"
        }
      ],
      "stateMutability": "view",
      "type": "function"
    },
    {
      "inputs": [
        {
          "internalType": "uint256",
          "name": "tokenId",
          "type": "uint256"
        }
      ],
      "name": "getApproved",
      "outputs": [
        {
          "internalType": "address",
          "name": "",
          "type": "address"
        }
      ],
      "stateMutability": "view",
      "type": "function"
    },
    {
      "inputs": [
        {
          "internalType": "uint256",
          "name": "keyHash",
          "type": "uint256"
        },
        {
          "internalType": "uint256",
          "name": "tokenId",
          "type": "uint256"
        }
      ],
      "name": "getByHash",
      "outputs": [
        {
          "internalType": "string",
          "name": "key",
          "type": "string"
        },
        {
          "internalType": "string",
          "name": "value",
          "type": "string"
        }
      ],
      "stateMutability": "view",
      "type": "function"
    },
    {
      "inputs": [
        {
          "internalType": "uint256",
          "name": "keyHash",
          "type": "uint256"
        }
      ],
      "name": "getKey",
      "outputs": [
        {
          "internalType": "string",
          "name": "",
          "type": "string"
        }
      ],
      "stateMutability": "view",
      "type": "function"
    },
    {
      "inputs": [
        {
          "internalType": "uint256[]",
          "name": "hashes",
          "type": "uint256[]"
        }
      ],
      "name": "getKeys",
      "outputs": [
        {
          "internalType": "string[]",
          "name": "values",
          "type": "string[]"
        }
      ],
      "stateMutability": "view",
      "type": "function"
    },
    {
      "inputs": [
        {
          "internalType": "string[]",
          "name": "keys",
          "type": "string[]"
        },
        {
          "internalType": "uint256",
          "name": "tokenId",
          "type": "uint256"
        }
      ],
      "name": "getMany",
      "outputs": [
        {
          "internalType": "string[]",
          "name": "values",
          "type": "string[]"
        }
      ],
      "stateMutability": "view",
      "type": "function"
    },
    {
      "inputs": [
        {
          "internalType": "uint256[]",
          "name": "keyHashes",
          "type": "uint256[]"
        },
        {
          "internalType": "uint256",
          "name": "tokenId",
          "type": "uint256"
        }
      ],
      "name": "getManyByHash",
      "outputs": [
        {
          "internalType": "string[]",
          "name": "keys",
          "type": "string[]"
        },
        {
          "internalType": "string[]",
          "name": "values",
          "type": "string[]"
        }
      ],
      "stateMutability": "view",
      "type": "function"
    },
    {
      "inputs": [
        {
          "internalType": "address",
          "name": "mintingManager",
          "type": "address"
        }
      ],
      "name": "initialize",
      "outputs": [],
      "stateMutability": "nonpayable",
      "type": "function"
    },
    {
      "inputs": [
        {
          "internalType": "address",
          "name": "owner",
          "type": "address"
        },
        {
          "internalType": "address",
          "name": "operator",
          "type": "address"
        }
      ],
      "name": "isApprovedForAll",
      "outputs": [
        {
          "internalType": "bool",
          "name": "",
          "type": "bool"
        }
      ],
      "stateMutability": "view",
      "type": "function"
    },
    {
      "inputs": [
        {
          "internalType": "address",
          "name": "spender",
          "type": "address"
        },
        {
          "internalType": "uint256",
          "name": "tokenId",
          "type": "uint256"
        }
      ],
      "name": "isApprovedOrOwner",
      "outputs": [
        {
          "internalType": "bool",
          "name": "",
          "type": "bool"
        }
      ],
      "stateMutability": "view",
      "type": "function"
    },
    {
      "inputs": [
        {
          "internalType": "address",
          "name": "forwarder",
          "type": "address"
        }
      ],
      "name": "isTrustedForwarder",
      "outputs": [
        {
          "internalType": "bool",
          "name": "",
          "type": "bool"
        }
      ],
      "stateMutability": "view",
      "type": "function"
    },
    {
      "inputs": [
        {
          "internalType": "address",
          "name": "to",
          "type": "address"
        },
        {
          "internalType": "uint256",
          "name": "tokenId",
          "type": "uint256"
        },
        {
          "internalType": "string",
          "name": "uri",
          "type": "string"
        }
      ],
      "name": "mint",
      "outputs": [],
      "stateMutability": "nonpayable",
      "type": "function"
    },
    {
      "inputs": [
        {
          "internalType": "address",
          "name": "to",
          "type": "address"
        },
        {
          "internalType": "uint256",
          "name": "tokenId",
          "type": "uint256"
        },
        {
          "internalType": "string",
          "name": "uri",
          "type": "string"
        },
        {
          "internalType": "string[]",
          "name": "keys",
          "type": "string[]"
        },
        {
          "internalType": "string[]",
          "name": "values",
          "type": "string[]"
        }
      ],
      "name": "mintWithRecords",
      "outputs": [],
      "stateMutability": "nonpayable",
      "type": "function"
    },
    {
      "inputs": [],
      "name": "name",
      "outputs": [
        {
          "internalType": "string",
          "name": "",
          "type": "string"
        }
      ],
      "stateMutability": "view",
      "type": "function"
    },
    {
      "inputs": [
        {
          "internalType": "uint256",
          "name": "tokenId",
          "type": "uint256"
        }
      ],
      "name": "nonceOf",
      "outputs": [
        {
          "internalType": "uint256",
          "name": "",
          "type": "uint256"
        }
      ],
      "stateMutability": "view",
      "type": "function"
    },
    {
      "inputs": [
        {
          "internalType": "address",
          "name": "",
          "type": "address"
        },
        {
          "internalType": "address",
          "name": "from",
          "type": "address"
        },
        {
          "internalType": "uint256",
          "name": "tokenId",
          "type": "uint256"
        },
        {
          "internalType": "bytes",
          "name": "data",
          "type": "bytes"
        }
      ],
      "name": "onERC721Received",
      "outputs": [
        {
          "internalType": "bytes4",
          "name": "",
          "type": "bytes4"
        }
      ],
      "stateMutability": "nonpayable",
      "type": "function"
    },
    {
      "inputs": [
        {
          "internalType": "uint256",
          "name": "tokenId",
          "type": "uint256"
        }
      ],
      "name": "ownerOf",
      "outputs": [
        {
          "internalType": "address",
          "name": "",
          "type": "address"
        }
      ],
      "stateMutability": "view",
      "type": "function"
    },
    {
      "inputs": [
        {
          "internalType": "string[]",
          "name": "keys",
          "type": "string[]"
        },
        {
          "internalType": "string[]",
          "name": "values",
          "type": "string[]"
        },
        {
          "internalType": "uint256",
          "name": "tokenId",
          "type": "uint256"
        }
      ],
      "name": "reconfigure",
      "outputs": [],
      "stateMutability": "nonpayable",
      "type": "function"
    },
    {
      "inputs": [
        {
          "internalType": "string[]",
          "name": "keys",
          "type": "string[]"
        },
        {
          "internalType": "string[]",
          "name": "values",
          "type": "string[]"
        },
        {
          "internalType": "uint256",
          "name": "tokenId",
          "type": "uint256"
        },
        {
          "internalType": "bytes",
          "name": "signature",
          "type": "bytes"
        }
      ],
      "name": "reconfigureFor",
      "outputs": [],
      "stateMutability": "nonpayable",
      "type": "function"
    },
    {
      "inputs": [
        {
          "internalType": "uint256",
          "name": "tokenId",
          "type": "uint256"
        }
      ],
      "name": "reset",
      "outputs": [],
      "stateMutability": "nonpayable",
      "type": "function"
    },
    {
      "inputs": [
        {
          "internalType": "uint256",
          "name": "tokenId",
          "type": "uint256"
        },
        {
          "internalType": "bytes",
          "name": "signature",
          "type": "bytes"
        }
      ],
      "name": "resetFor",
      "outputs": [],
      "stateMutability": "nonpayable",
      "type": "function"
    },
    {
      "inputs": [
        {
          "internalType": "uint256",
          "name": "tokenId",
          "type": "uint256"
        }
      ],
      "name": "resolverOf",
      "outputs": [
        {
          "internalType": "address",
          "name": "",
          "type": "address"
        }
      ],
      "stateMutability": "view",
      "type": "function"
    },
    {
      "inputs": [],
      "name": "root",
      "outputs": [
        {
          "internalType": "uint256",
          "name": "",
          "type": "uint256"
        }
      ],
      "stateMutability": "pure",
      "type": "function"
    },
    {
      "inputs": [
        {
          "internalType": "address",
          "name": "to",
          "type": "address"
        },
        {
          "internalType": "uint256",
          "name": "tokenId",
          "type": "uint256"
        },
        {
          "internalType": "string",
          "name": "uri",
          "type": "string"
        },
        {
          "internalType": "bytes",
          "name": "data",
          "type": "bytes"
        }
      ],
      "name": "safeMint",
      "outputs": [],
      "stateMutability": "nonpayable",
      "type": "function"
    },
    {
      "inputs": [
        {
          "internalType": "address",
          "name": "to",
          "type": "address"
        },
        {
          "internalType": "uint256",
          "name": "tokenId",
          "type": "uint256"
        },
        {
          "internalType": "string",
          "name": "uri",
          "type": "string"
        }
      ],
      "name": "safeMint",
      "outputs": [],
      "stateMutability": "nonpayable",
      "type": "function"
    },
    {
      "inputs": [
        {
          "internalType": "address",
          "name": "to",
          "type": "address"
        },
        {
          "internalType": "uint256",
          "name": "tokenId",
          "type": "uint256"
        },
        {
          "internalType": "string",
          "name": "uri",
          "type": "string"
        },
        {
          "internalType": "string[]",
          "name": "keys",
          "type": "string[]"
        },
        {
          "internalType": "string[]",
          "name": "values",
          "type": "string[]"
        }
      ],
      "name": "safeMintWithRecords",
      "outputs": [],
      "stateMutability": "nonpayable",
      "type": "function"
    },
    {
      "inputs": [
        {
          "internalType": "address",
          "name": "to",
          "type": "address"
        },
        {
          "internalType": "uint256",
          "name": "tokenId",
          "type": "uint256"
        },
        {
          "internalType": "string",
          "name": "uri",
          "type": "string"
        },
        {
          "internalType": "string[]",
          "name": "keys",
          "type": "string[]"
        },
        {
          "internalType": "string[]",
          "name": "values",
          "type": "string[]"
        },
        {
          "internalType": "bytes",
          "name": "data",
          "type": "bytes"
        }
      ],
      "name": "safeMintWithRecords",
      "outputs": [],
      "stateMutability": "nonpayable",
      "type": "function"
    },
    {
      "inputs": [
        {
          "internalType": "address",
          "name": "from",
          "type": "address"
        },
        {
          "internalType": "address",
          "name": "to",
          "type": "address"
        },
        {
          "internalType": "uint256",
          "name": "tokenId",
          "type": "uint256"
        }
      ],
      "name": "safeTransferFrom",
      "outputs": [],
      "stateMutability": "nonpayable",
      "type": "function"
    },
    {
      "inputs": [
        {
          "internalType": "address",
          "name": "from",
          "type": "address"
        },
        {
          "internalType": "address",
          "name": "to",
          "type": "address"
        },
        {
          "internalType": "uint256",
          "name": "tokenId",
          "type": "uint256"
        },
        {
          "internalType": "bytes",
          "name": "data",
          "type": "bytes"
        }
      ],
      "name": "safeTransferFrom",
      "outputs": [],
      "stateMutability": "nonpayable",
      "type": "function"
    },
    {
      "inputs": [
        {
          "internalType": "address",
          "name": "from",
          "type": "address"
        },
        {
          "internalType": "address",
          "name": "to",
          "type": "address"
        },
        {
          "internalType": "uint256",
          "name": "tokenId",
          "type": "uint256"
        },
        {
          "internalType": "bytes",
          "name": "data",
          "type": "bytes"
        },
        {
          "internalType": "bytes",
          "name": "signature",
          "type": "bytes"
        }
      ],
      "name": "safeTransferFromFor",
      "outputs": [],
      "stateMutability": "nonpayable",
      "type": "function"
    },
    {
      "inputs": [
        {
          "internalType": "address",
          "name": "from",
          "type": "address"
        },
        {
          "internalType": "address",
          "name": "to",
          "type": "address"
        },
        {
          "internalType": "uint256",
          "name": "tokenId",
          "type": "uint256"
        },
        {
          "internalType": "bytes",
          "name": "signature",
          "type": "bytes"
        }
      ],
      "name": "safeTransferFromFor",
      "outputs": [],
      "stateMutability": "nonpayable",
      "type": "function"
    },
    {
      "inputs": [
        {
          "internalType": "string",
          "name": "key",
          "type": "string"
        },
        {
          "internalType": "string",
          "name": "value",
          "type": "string"
        },
        {
          "internalType": "uint256",
          "name": "tokenId",
          "type": "uint256"
        }
      ],
      "name": "set",
      "outputs": [],
      "stateMutability": "nonpayable",
      "type": "function"
    },
    {
      "inputs": [
        {
          "internalType": "address",
          "name": "operator",
          "type": "address"
        },
        {
          "internalType": "bool",
          "name": "approved",
          "type": "bool"
        }
      ],
      "name": "setApprovalForAll",
      "outputs": [],
      "stateMutability": "nonpayable",
      "type": "function"
    },
    {
      "inputs": [
        {
          "internalType": "uint256",
          "name": "keyHash",
          "type": "uint256"
        },
        {
          "internalType": "string",
          "name": "value",
          "type": "string"
        },
        {
          "internalType": "uint256",
          "name": "tokenId",
          "type": "uint256"
        }
      ],
      "name": "setByHash",
      "outputs": [],
      "stateMutability": "nonpayable",
      "type": "function"
    },
    {
      "inputs": [
        {
          "internalType": "address",
          "name": "registry",
          "type": "address"
        }
      ],
      "name": "setCNSRegistry",
      "outputs": [],
      "stateMutability": "nonpayable",
      "type": "function"
    },
    {
      "inputs": [
        {
          "internalType": "address",
          "name": "clientChainManager",
          "type": "address"
        }
      ],
      "name": "setChildChainManager",
      "outputs": [],
      "stateMutability": "nonpayable",
      "type": "function"
    },
    {
      "inputs": [
        {
          "internalType": "string",
          "name": "key",
          "type": "string"
        },
        {
          "internalType": "string",
          "name": "value",
          "type": "string"
        },
        {
          "internalType": "uint256",
          "name": "tokenId",
          "type": "uint256"
        },
        {
          "internalType": "bytes",
          "name": "signature",
          "type": "bytes"
        }
      ],
      "name": "setFor",
      "outputs": [],
      "stateMutability": "nonpayable",
      "type": "function"
    },
    {
      "inputs": [
        {
          "internalType": "string[]",
          "name": "keys",
          "type": "string[]"
        },
        {
          "internalType": "string[]",
          "name": "values",
          "type": "string[]"
        },
        {
          "internalType": "uint256",
          "name": "tokenId",
          "type": "uint256"
        }
      ],
      "name": "setMany",
      "outputs": [],
      "stateMutability": "nonpayable",
      "type": "function"
    },
    {
      "inputs": [
        {
          "internalType": "uint256[]",
          "name": "keyHashes",
          "type": "uint256[]"
        },
        {
          "internalType": "string[]",
          "name": "values",
          "type": "string[]"
        },
        {
          "internalType": "uint256",
          "name": "tokenId",
          "type": "uint256"
        }
      ],
      "name": "setManyByHash",
      "outputs": [],
      "stateMutability": "nonpayable",
      "type": "function"
    },
    {
      "inputs": [
        {
          "internalType": "string[]",
          "name": "keys",
          "type": "string[]"
        },
        {
          "internalType": "string[]",
          "name": "values",
          "type": "string[]"
        },
        {
          "internalType": "uint256",
          "name": "tokenId",
          "type": "uint256"
        },
        {
          "internalType": "bytes",
          "name": "signature",
          "type": "bytes"
        }
      ],
      "name": "setManyFor",
      "outputs": [],
      "stateMutability": "nonpayable",
      "type": "function"
    },
    {
      "inputs": [
        {
          "internalType": "address",
          "name": "to",
          "type": "address"
        },
        {
          "internalType": "uint256",
          "name": "tokenId",
          "type": "uint256"
        }
      ],
      "name": "setOwner",
      "outputs": [],
      "stateMutability": "nonpayable",
      "type": "function"
    },
    {
      "inputs": [
        {
          "internalType": "address",
          "name": "rootChainManager",
          "type": "address"
        }
      ],
      "name": "setRootChainManager",
      "outputs": [],
      "stateMutability": "nonpayable",
      "type": "function"
    },
    {
      "inputs": [
        {
          "internalType": "string",
          "name": "prefix",
          "type": "string"
        }
      ],
      "name": "setTokenURIPrefix",
      "outputs": [],
      "stateMutability": "nonpayable",
      "type": "function"
    },
    {
      "inputs": [
        {
          "internalType": "bytes4",
          "name": "interfaceId",
          "type": "bytes4"
        }
      ],
      "name": "supportsInterface",
      "outputs": [
        {
          "internalType": "bool",
          "name": "",
          "type": "bool"
        }
      ],
      "stateMutability": "view",
      "type": "function"
    },
    {
      "inputs": [],
      "name": "symbol",
      "outputs": [
        {
          "internalType": "string",
          "name": "",
          "type": "string"
        }
      ],
      "stateMutability": "view",
      "type": "function"
    },
    {
      "inputs": [
        {
          "internalType": "uint256",
          "name": "tokenId",
          "type": "uint256"
        }
      ],
      "name": "tokenURI",
      "outputs": [
        {
          "internalType": "string",
          "name": "",
          "type": "string"
        }
      ],
      "stateMutability": "view",
      "type": "function"
    },
    {
      "inputs": [
        {
          "internalType": "address",
          "name": "from",
          "type": "address"
        },
        {
          "internalType": "address",
          "name": "to",
          "type": "address"
        },
        {
          "internalType": "uint256",
          "name": "tokenId",
          "type": "uint256"
        }
      ],
      "name": "transferFrom",
      "outputs": [],
      "stateMutability": "nonpayable",
      "type": "function"
    },
    {
      "inputs": [
        {
          "internalType": "address",
          "name": "from",
          "type": "address"
        },
        {
          "internalType": "address",
          "name": "to",
          "type": "address"
        },
        {
          "internalType": "uint256",
          "name": "tokenId",
          "type": "uint256"
        },
        {
          "internalType": "bytes",
          "name": "signature",
          "type": "bytes"
        }
      ],
      "name": "transferFromFor",
      "outputs": [],
      "stateMutability": "nonpayable",
      "type": "function"
    },
    {
      "inputs": [
        {
          "components": [
            {
              "internalType": "address",
              "name": "from",
              "type": "address"
            },
            {
              "internalType": "uint256",
              "name": "nonce",
              "type": "uint256"
            },
            {
              "internalType": "uint256",
              "name": "tokenId",
              "type": "uint256"
            },
            {
              "internalType": "bytes",
              "name": "data",
              "type": "bytes"
            }
          ],
          "internalType": "struct IForwarder.ForwardRequest",
          "name": "req",
          "type": "tuple"
        },
        {
          "internalType": "bytes",
          "name": "signature",
          "type": "bytes"
        }
      ],
      "name": "verify",
      "outputs": [
        {
          "internalType": "bool",
          "name": "",
          "type": "bool"
        }
      ],
      "stateMutability": "view",
      "type": "function"
    }
  ],
  "bytecode": "0x608060405234801561001057600080fd5b5061523f806100206000396000f3fe608060405234801561001057600080fd5b50600436106103af5760003560e01c8063764a81bb116101f4578063b88d4fde1161011a578063d3fc9864116100ad578063ef2c30881161007c578063ef2c308814610838578063efda4d3e1461084b578063f5c1f76e1461085e578063ffa1ad7414610871576103af565b8063d3fc9864146107f7578063e985e9c51461080a578063ebf0c7171461081d578063ec129eea14610825576103af565b8063c87b56dd116100e9578063c87b56dd146107ab578063cd279c7c146107be578063ce92b33e146107d1578063cf2c52cb146107e4576103af565b8063b88d4fde1461075f578063bb5b27e114610772578063c4d66de814610785578063c597407314610798576103af565b8063a3f4df7e11610192578063b3f9e4cb11610161578063b3f9e4cb14610705578063b55bc61714610718578063b85afd281461072b578063b87abc111461074c576103af565b8063a3f4df7e146106c4578063a4247400146106cc578063ab3b87fe146106df578063b0f59177146106f2576103af565b806395d89b41116101ce57806395d89b411461068357806399e0dd7c1461068b578063a22cb4651461069e578063a3557e6c146106b1576103af565b8063764a81bb1461064a5780637f139a001461065d5780638f69c18814610670576103af565b80634348b562116102d95780636352211e116102775780636ccbae5f116102465780636ccbae5f146105fe5780636debcb8d1461061157806370a0823114610624578063728a44d814610637576103af565b80636352211e14610597578063638e5c78146105aa578063672b9f81146105bd57806368b62d32146105de576103af565b80634f558e79116102b35780634f558e791461054b57806350382c1a1461055e578063572b6c051461057157806361603dd914610584576103af565b80634348b5621461051257806347c81699146105255780634a72584d14610538576103af565b80631bf7e13e11610351578063310bd74b11610320578063310bd74b146104c657806342842e0e146104d957806342966c68146104ec578063430c2081146104ff576103af565b80631bf7e13e1461047a57806323b872dd1461048d57806327f18975146104a0578063280d9b05146104b3576103af565b8063095ea7b31161038d578063095ea7b314610412578063150b7a02146104275780631bd8cc1a146104475780631be5e7ed14610467576103af565b806301ffc9a7146103b457806306fdde03146103dd578063081812fc146103f2575b600080fd5b6103c76103c236600461417b565b610879565b6040516103d491906147ae565b60405180910390f35b6103e561088c565b6040516103d491906147ec565b61040561040036600461437d565b61091f565b6040516103d49190614666565b610425610420366004613c94565b61096b565b005b61043a610435366004613aa3565b6109bd565b6040516103d491906147d7565b61045a61045536600461401b565b610adb565b6040516103d49190614776565b6103e56104753660046142a4565b610bfb565b6103e561048836600461431e565b610c46565b61042561049b366004613a63565b610d11565b6104256104ae366004613f2c565b610d9d565b6104256104c1366004613b13565b610e1e565b6104256104d436600461437d565b610eba565b6104256104e7366004613a63565b610f2e565b6104256104fa36600461437d565b610f49565b6103c761050d366004613c94565b610fc6565b610425610520366004613d18565b610fd2565b6104256105333660046141e6565b611037565b6104256105463660046143c5565b6110af565b6103c761055936600461437d565b61112e565b61042561056c3660046142d9565b611139565b6103c761057f3660046139f3565b61116f565b610425610592366004614395565b611180565b6104056105a536600461437d565b611209565b6104256105b836600461437d565b61123e565b6105d06105cb366004614415565b61128d565b6040516103d492919061483a565b6105f16105ec366004614395565b6112a5565b6040516103d4919061464f565b6105f161060c36600461437d565b6112e7565b61042561061f366004613aa3565b6112fa565b6105f16106323660046139f3565b61131c565b6104256106453660046139f3565b611360565b6104256106583660046139f3565b6113fd565b61042561066b3660046139f3565b611479565b61042561067e366004613f9c565b6114f5565b6103e561151b565b6104256106993660046141b3565b61152a565b6104256106ac366004613c17565b6115b0565b6104256106bf366004613f9c565b61167e565b6103e56116a4565b6103c76106da36600461431e565b6116cd565b6104256106ed366004613c94565b611718565b610425610700366004613d18565b61179c565b61040561071336600461437d565b611825565b610425610726366004613ea4565b611842565b61073e61073936600461401b565b6118f2565b6040516103d4929190614789565b61042561075a366004614395565b611a5a565b61042561076d366004613bae565b611a78565b6103e561078036600461437d565b611af8565b6104256107933660046139f3565b611b9a565b6104256107a6366004614244565b611c87565b6103e56107b936600461437d565b611cad565b6104256107cc366004613cbf565b611d2f565b6104256107df366004613f2c565b611db9565b6104256107f2366004613c42565b611e31565b610425610805366004613cbf565b611f1c565b6103c7610818366004613a2b565b611f98565b6105f1611fc6565b610425610833366004613f2c565b611fcb565b610425610846366004613aa3565b612043565b610425610859366004613dc9565b612065565b61045a61086c366004614064565b6120f3565b6103e56121d0565b6000610884826121f1565b90505b919050565b60606065805461089b9061515b565b80601f01602080910402602001604051908101604052809291908181526020018280546108c79061515b565b80156109145780601f106108e957610100808354040283529160200191610914565b820191906000526020600020905b8154815290600101906020018083116108f757829003601f168201915b505050505090505b90565b600061092a82612231565b61094f5760405162461bcd60e51b815260040161094690614dd4565b60405180910390fd5b506000908152606960205260409020546001600160a01b031690565b806109753361116f565b156109a55761098261224e565b81146109a05760405162461bcd60e51b815260040161094690614bb3565b6109ae565b6109ae81612268565b6109b88383612296565b505050565b60006109e87f8ffb960699dc2ba88f34d0e41c029c3c36c95149679fe1d0153a9582bec9237861091c565b546001600160a01b03166109fa612329565b6001600160a01b03161415610aba57610a11612329565b6001600160a01b03166342966c68856040518263ffffffff1660e01b8152600401610a3c919061464f565b600060405180830381600087803b158015610a5657600080fd5b505af1158015610a6a573d6000803e3d6000fd5b505050821580159150610a845750610a8482840184614149565b15610aa257610a933085612338565b610a9d8585612417565b610aac565b610aac8585612338565b50630a85bd0160e11b610ad2565b60405162461bcd60e51b8152600401610946906149d6565b95945050505050565b6060826001600160401b03811115610b0357634e487b7160e01b600052604160045260246000fd5b604051908082528060200260200182016040528015610b3657816020015b6060815260200190600190039081610b215790505b50905060005b83811015610bf357610bb5858583818110610b6757634e487b7160e01b600052603260045260246000fd5b9050602002810190610b799190614ff7565b8080601f0160208091040260200160405190810160405280939291908181526020018383808284376000920191909152508792506125cf915050565b828281518110610bd557634e487b7160e01b600052603260045260246000fd5b60200260200101819052508080610beb90615196565b915050610b3c565b509392505050565b6060610c3e84848080601f0160208091040260200160405190810160405280939291908181526020018383808284376000920191909152508692506125cf915050565b949350505050565b606060005a9050610c588585856116cd565b610c745760405162461bcd60e51b815260040161094690614efe565b610d06610c8460208701876139f3565b30604088013584610c9860608b018b614ff7565b8080601f01602080910402602001604051908101604052809392919081815260200183838082843760009201919091525050604080516020601f8e018190048102820181019092528c815292508c91508b908190840183828082843760009201919091525061260492505050565b9150505b9392505050565b80610d23610d1d612329565b826126f3565b610d3f5760405162461bcd60e51b8152600401610946906148cd565b81610d493361116f565b15610d7957610d5661224e565b8114610d745760405162461bcd60e51b815260040161094690614bb3565b610d82565b610d8281612268565b610d8b83612770565b610d968585856127db565b5050505050565b80610da9610d1d612329565b610dc55760405162461bcd60e51b8152600401610946906148cd565b81610dcf3361116f565b15610dff57610ddc61224e565b8114610dfa5760405162461bcd60e51b815260040161094690614bb3565b610e08565b610e0881612268565b610e158787878787612908565b50505050505050565b60005a9050610eaf63b88d4fde8989898989604051602401610e449594939291906146ca565b6040516020818303038152906040529060e01b6020820180516001600160e01b0383818316178352505050508785858080601f016020809104026020016040519081016040528093929190818152602001838380828437600092019190915250879250612987915050565b505050505050505050565b80610ec6610d1d612329565b610ee25760405162461bcd60e51b8152600401610946906148cd565b81610eec3361116f565b15610f1c57610ef961224e565b8114610f175760405162461bcd60e51b815260040161094690614bb3565b610f25565b610f2581612268565b6109b883612770565b6109b883838360405180602001604052806000815250611a78565b80610f55610d1d612329565b610f715760405162461bcd60e51b8152600401610946906148cd565b81610f7b3361116f565b15610fab57610f8861224e565b8114610fa65760405162461bcd60e51b815260040161094690614bb3565b610fb4565b610fb481612268565b610fbd83612770565b6109b8836129cc565b6000610d0a83836126f3565b610134546001600160a01b0316610fe7612329565b6001600160a01b03161461100d5760405162461bcd60e51b815260040161094690614b20565b61102d888888888888888860405180602001604052806000815250612a73565b5050505050505050565b80611043610d1d612329565b61105f5760405162461bcd60e51b8152600401610946906148cd565b816110693361116f565b156110995761107661224e565b81146110945760405162461bcd60e51b815260040161094690614bb3565b6110a2565b6110a281612268565b610e158787878787612ac3565b806110bb610d1d612329565b6110d75760405162461bcd60e51b8152600401610946906148cd565b816110e13361116f565b15611111576110ee61224e565b811461110c5760405162461bcd60e51b815260040161094690614bb3565b61111a565b61111a81612268565b61112686868686612ba2565b505050505050565b600061088482612231565b61116c8160405160200161114d9190614584565b6040516020818303038152906040528051906020012060001c82612c12565b50565b6001600160a01b0381163014919050565b60005a9050610d966342966c688560405160240161119e919061464f565b6040516020818303038152906040529060e01b6020820180516001600160e01b0383818316178352505050508585858080601f016020809104026020016040519081016040528093929190818152602001838380828437600092019190915250879250612987915050565b6000818152606760205260408120546001600160a01b0316806108845760405162461bcd60e51b815260040161094690614c91565b8061124a610d1d612329565b6112665760405162461bcd60e51b8152600401610946906148cd565b611278611271612329565b30846127db565b611289611283612329565b83612417565b5050565b60608061129a8484612c3e565b909590945092505050565b6000610c3e8484848080601f016020809104026020016040519081016040528093929190818152602001838380828437600092019190915250612c5f92505050565b6000908152610100602052604090205490565b60005a9050610e156342842e0e87878760405160240161119e939291906146a6565b60006001600160a01b0382166113445760405162461bcd60e51b815260040161094690614c47565b506001600160a01b031660009081526068602052604090205490565b600061138b7fbe2bb46ac0377341a1ec5c3116d70fd5029d704bd46292e58f6265dd177ebafe61091c565b546001600160a01b0316146113b25760405162461bcd60e51b815260040161094690614e20565b806113dc7fbe2bb46ac0377341a1ec5c3116d70fd5029d704bd46292e58f6265dd177ebafe61091c565b80546001600160a01b0319166001600160a01b039290921691909117905550565b60006114287f8bea9a6f8afd34f4e29c585f854e0cc5161431bf5fc299d468454d33dce53b8761091c565b546001600160a01b03161461144f5760405162461bcd60e51b815260040161094690614a1c565b806113dc7f8bea9a6f8afd34f4e29c585f854e0cc5161431bf5fc299d468454d33dce53b8761091c565b60006114a47f8ffb960699dc2ba88f34d0e41c029c3c36c95149679fe1d0153a9582bec9237861091c565b546001600160a01b0316146114cb5760405162461bcd60e51b815260040161094690614d6a565b806113dc7f8ffb960699dc2ba88f34d0e41c029c3c36c95149679fe1d0153a9582bec9237861091c565b60005a9050610eaf63ce92b33e898989898960405160240161119e95949392919061473c565b60606066805461089b9061515b565b610134546001600160a01b031661153f612329565b6001600160a01b0316146115655760405162461bcd60e51b815260040161094690614b20565b61157261013383836137d2565b507f4b120d6a959a84a520fa48f5f937cca0e79129423487af7901213b5d2e89313b82826040516115a49291906147ff565b60405180910390a15050565b6115b8612329565b6001600160a01b0316826001600160a01b031614156115e95760405162461bcd60e51b815260040161094690614aa7565b80606a60006115f6612329565b6001600160a01b03908116825260208083019390935260409182016000908120918716808252919093529120805460ff19169215159290921790915561163a612329565b6001600160a01b03167f17307eab39ab6107e8899845ad3d59bd9653f200f220920489ca2b5937696c318360405161167291906147ae565b60405180910390a35050565b60005a9050610eaf63ec129eea898989898960405160240161119e95949392919061473c565b6040518060400160405280600d81526020016c554e533a20526567697374727960981b81525081565b6000610c3e6116db856150a7565b3085858080601f016020809104026020016040519081016040528093929190818152602001838380828437600092019190915250612cdb92505050565b80611724610d1d612329565b6117405760405162461bcd60e51b8152600401610946906148cd565b8161174a3361116f565b1561177a5761175761224e565b81146117755760405162461bcd60e51b815260040161094690614bb3565b611783565b61178381612268565b61179661178f84611209565b85856127db565b50505050565b610134546001600160a01b03166117b1612329565b6001600160a01b0316146117d75760405162461bcd60e51b815260040161094690614b20565b611818888888888080601f016020809104026020016040519081016040528093929190818152602001838380828437600092019190915250612d9c92505050565b61102d848484848b612de3565b600061183082612231565b61183b576000610884565b5030919050565b610134546001600160a01b0316611857612329565b6001600160a01b03161461187d5760405162461bcd60e51b815260040161094690614b20565b611126868686868080601f01602080910402602001604051908101604052809392919081815260200183838082843760009201919091525050604080516020601f8a018190048102820181019092528881529250889150879081908401838280828437600092019190915250612e6d92505050565b606080836001600160401b0381111561191b57634e487b7160e01b600052604160045260246000fd5b60405190808252806020026020018201604052801561194e57816020015b60608152602001906001900390816119395790505b509150836001600160401b0381111561197757634e487b7160e01b600052604160045260246000fd5b6040519080825280602002602001820160405280156119aa57816020015b60608152602001906001900390816119955790505b50905060005b84811015611a51576119e88686838181106119db57634e487b7160e01b600052603260045260246000fd5b9050602002013585612c3e565b848381518110611a0857634e487b7160e01b600052603260045260246000fd5b60200260200101848481518110611a2f57634e487b7160e01b600052603260045260246000fd5b6020026020010182905282905250508080611a4990615196565b9150506119b0565b50935093915050565b60005a9050610d9663310bd74b8560405160240161119e919061464f565b81611a84610d1d612329565b611aa05760405162461bcd60e51b8152600401610946906148cd565b82611aaa3361116f565b15611ada57611ab761224e565b8114611ad55760405162461bcd60e51b815260040161094690614bb3565b611ae3565b611ae381612268565b611aec84612770565b61112686868686612eb6565b600081815260c960205260409020805460609190611b159061515b565b80601f0160208091040260200160405190810160405280929190818152602001828054611b419061515b565b8015611b8e5780601f10611b6357610100808354040283529160200191611b8e565b820191906000526020600020905b815481529060010190602001808311611b7157829003601f168201915b50505050509050919050565b600054610100900460ff1680611bb3575060005460ff16155b611bcf5760405162461bcd60e51b815260040161094690614cda565b600054610100900460ff16158015611bfa576000805460ff1961ff0019909116610100171660011790555b61013480546001600160a01b0319166001600160a01b0384161790556040805180820182526013815272556e73746f707061626c6520446f6d61696e7360681b60208083019190915282518084019093526002835261155160f21b90830152611c6291612ee9565b611c6a612f87565b611c72612f87565b8015611289576000805461ff00191690555050565b60005a9050610eaf6347c81699898989898960405160240161119e959493929190614813565b6060611cb882612231565b611cd45760405162461bcd60e51b815260040161094690614eaf565b6000611cde612ffb565b90506000815111611cfe5760405180602001604052806000815250610d0a565b80611d088461300b565b604051602001611d199291906145ef565b6040516020818303038152906040529392505050565b610134546001600160a01b0316611d44612329565b6001600160a01b031614611d6a5760405162461bcd60e51b815260040161094690614b20565b611796848484848080601f016020809104026020016040519081016040528093929190818152602001838380828437600092018290525060408051602081019091529081529250612e6d915050565b80611dc5610d1d612329565b611de15760405162461bcd60e51b8152600401610946906148cd565b81611deb3361116f565b15611e1b57611df861224e565b8114611e165760405162461bcd60e51b815260040161094690614bb3565b611e24565b611e2481612268565b610e158787878787612de3565b611e5a7f8bea9a6f8afd34f4e29c585f854e0cc5161431bf5fc299d468454d33dce53b8761091c565b546001600160a01b0316611e6c612329565b6001600160a01b031614611e925760405162461bcd60e51b815260040161094690614f86565b6020811415611ebb576000611ea98284018461437d565b9050611eb58482612338565b506109b8565b6000611ec9828401846140a3565b805190915060005b8181101561112657611f0a86848381518110611efd57634e487b7160e01b600052603260045260246000fd5b6020026020010151612338565b80611f1481615196565b915050611ed1565b610134546001600160a01b0316611f31612329565b6001600160a01b031614611f575760405162461bcd60e51b815260040161094690614b20565b611796848484848080601f016020809104026020016040519081016040528093929190818152602001838380828437600092019190915250612d9c92505050565b6001600160a01b039182166000908152606a6020908152604080832093909416825291909152205460ff1690565b600090565b80611fd7610d1d612329565b611ff35760405162461bcd60e51b8152600401610946906148cd565b81611ffd3361116f565b1561202d5761200a61224e565b81146120285760405162461bcd60e51b815260040161094690614bb3565b612036565b61203681612268565b610e158787878787613125565b60005a9050610e156323b872dd87878760405160240161119e939291906146a6565b610134546001600160a01b031661207a612329565b6001600160a01b0316146120a05760405162461bcd60e51b815260040161094690614b20565b6120e78a8a8a8a8a8a8a8a8a8a8080601f016020809104026020016040519081016040528093929190818152602001838380828437600092019190915250612a7392505050565b50505050505050505050565b6060816001600160401b0381111561211b57634e487b7160e01b600052604160045260246000fd5b60405190808252806020026020018201604052801561214e57816020015b60608152602001906001900390816121395790505b50905060005b828110156121c95761218b84848381811061217f57634e487b7160e01b600052603260045260246000fd5b90506020020135611af8565b8282815181106121ab57634e487b7160e01b600052603260045260246000fd5b602002602001018190525080806121c190615196565b915050612154565b5092915050565b604051806040016040528060058152602001640302e332e360dc1b81525081565b60006001600160e01b031982166380ac58cd60e01b148061222257506001600160e01b03198216635b5e139f60e01b145b8061088457506108848261313b565b6000908152606760205260409020546001600160a01b0316151590565b60006122593361116f565b1561091c5750601f1936013590565b60008181526101006020526040902054612283906001615064565b6000918252610100602052604090912055565b60006122a182611209565b9050806001600160a01b0316836001600160a01b031614156122d55760405162461bcd60e51b815260040161094690614f45565b806001600160a01b03166122e7612329565b6001600160a01b03161480612303575061230381610818612329565b61231f5760405162461bcd60e51b815260040161094690614bea565b6109b88383613154565b60006123336131c2565b905090565b6001600160a01b03821661235e5760405162461bcd60e51b815260040161094690614d9f565b61236781612231565b156123845760405162461bcd60e51b81526004016109469061499f565b612390600083836109b8565b6001600160a01b03821660009081526068602052604081208054600192906123b9908490615064565b909155505060008181526067602052604080822080546001600160a01b0319166001600160a01b03861690811790915590518392907fddf252ad1be2c89b69c2b068fc378daa952ba7f163c4a11628f55a4df523b3ef908290a45050565b60006124427fbe2bb46ac0377341a1ec5c3116d70fd5029d704bd46292e58f6265dd177ebafe61091c565b5460405163721804d360e11b81526001600160a01b039091169150600090829063e43009a690612476903090600401614666565b60206040518083038186803b15801561248e57600080fd5b505afa1580156124a2573d6000803e3d6000fd5b505050506040513d601f19601f820116820180604052508101906124c69190614163565b90506000826001600160a01b031663e66f9603836040518263ffffffff1660e01b81526004016124f6919061464f565b60206040518083038186803b15801561250e57600080fd5b505afa158015612522573d6000803e3d6000fd5b505050506040513d601f19601f820116820180604052508101906125469190613a0f565b90506125528185613154565b826001600160a01b031663e3dec8fb863087604051602001612574919061464f565b6040516020818303038152906040526040518463ffffffff1660e01b81526004016125a19392919061467a565b600060405180830381600087803b1580156125bb57600080fd5b505af1158015610eaf573d6000803e3d6000fd5b6060610d0a836040516020016125e59190614584565b6040516020818303038152906040528051906020012060001c836131f0565b606061260f85612268565b600080876001600160a01b0316866126298b8a89896132af565b6040516126369190614584565b60006040518083038160008787f1925050503d8060008114612674576040519150601f19603f3d011682016040523d82523d6000602084013e612679565b606091505b50909250905061268a603f8761507c565b5a116126a657634e487b7160e01b600052600160045260246000fd5b6126e682826040518060400160405280601a81526020017f42617365466f727761726465723a2043414c4c5f4641494c45440000000000008152506132df565b9998505050505050505050565b60006126fe82612231565b61271a5760405162461bcd60e51b815260040161094690614b67565b600061272583611209565b9050806001600160a01b0316846001600160a01b031614806127605750836001600160a01b03166127558461091f565b6001600160a01b0316145b80610c3e5750610c3e8185611f98565b61277981613318565b604051602001612789919061464f565b60408051601f198184030181528282528051602091820120600085815260cb9092529181209190915582917f185c30856dadb58bf097c1f665a52ada7029752dbcad008ea3fefc73bee8c9fe9190a250565b826001600160a01b03166127ee82611209565b6001600160a01b0316146128145760405162461bcd60e51b815260040161094690614e66565b6001600160a01b03821661283a5760405162461bcd60e51b815260040161094690614a63565b6128458383836109b8565b612850600082613154565b6001600160a01b0383166000908152606860205260408120805460019290612879908490615090565b90915550506001600160a01b03821660009081526068602052604081208054600192906128a7908490615064565b909155505060008181526067602052604080822080546001600160a01b0319166001600160a01b0386811691821790925591518493918716917fddf252ad1be2c89b69c2b068fc378daa952ba7f163c4a11628f55a4df523b3ef91a4505050565b60005b848110156111265761297586868381811061293657634e487b7160e01b600052603260045260246000fd5b9050602002013585858481811061295d57634e487b7160e01b600052603260045260246000fd5b905060200281019061296f9190614ff7565b85612ba2565b8061297f81615196565b91505061290b565b606060006129b286805190602001203061010060008981526020019081526020016000205487613344565b90506129c2813087868a89612604565b9695505050505050565b60006129d782611209565b90506129e5816000846109b8565b6129f0600083613154565b6001600160a01b0381166000908152606860205260408120805460019290612a19908490615090565b909155505060008281526067602052604080822080546001600160a01b0319169055518391906001600160a01b038416907fddf252ad1be2c89b69c2b068fc378daa952ba7f163c4a11628f55a4df523b3ef908390a45050565b612ab6898989898080601f016020809104026020016040519081016040528093929190818152602001838380828437600092019190915250879250612e6d915050565b610eaf858585858c612de3565b60008585604051602001612ad89291906145df565b60408051601f198184030181528282528051602091820120601f8901829004820284018201909252878352909250612b2c9183918990899081908401838280828437600092019190915250612c1292505050565b6111268187878080601f01602080910402602001604051908101604052809392919081815260200183838082843760009201919091525050604080516020601f8b018190048102820181019092528981529250899150889081908401838280828437600092019190915250889250613383915050565b612bab846134be565b612bc75760405162461bcd60e51b815260040161094690614968565b61179684612bd486611af8565b85858080601f016020809104026020016040519081016040528093929190818152602001838380828437600092019190915250879250613383915050565b612c1b826134be565b61128957600082815260c96020908152604090912082516109b892840190613852565b606080612c4a84611af8565b9150612c5684846131f0565b90509250929050565b6000815160001415612c835760405162461bcd60e51b815260040161094690614fc8565b8282604051602001612c959190614584565b60405160208183030381529060405280519060200120604051602001612cbc929190614658565b60408051601f1981840301815291905280516020909101209392505050565b6040808401519051636ccbae5f60e01b815260009182913091636ccbae5f91612d07919060040161464f565b60206040518083038186803b158015612d1f57600080fd5b505afa158015612d33573d6000803e3d6000fd5b505050506040513d601f19601f82011682018060405250810190612d579190614163565b90506000612d72866060015180519060200120868487613344565b90508560200151821480156129c2575085516001600160a01b038281169116149695505050505050565b612da68383612338565b817fc5beef08f693b11c316c0c8394a377a0033c9cf701b8cd8afd79cecef60c395282604051612dd691906147ec565b60405180910390a2505050565b60005b8481101561112657612e5b868683818110612e1157634e487b7160e01b600052603260045260246000fd5b9050602002810190612e239190614ff7565b868685818110612e4357634e487b7160e01b600052603260045260246000fd5b9050602002810190612e559190614ff7565b86612ac3565b80612e6581615196565b915050612de6565b612e788484836134e4565b827fc5beef08f693b11c316c0c8394a377a0033c9cf701b8cd8afd79cecef60c395283604051612ea891906147ec565b60405180910390a250505050565b612ec18484846127db565b612ecd84848484613517565b6117965760405162461bcd60e51b815260040161094690614916565b600054610100900460ff1680612f02575060005460ff16155b612f1e5760405162461bcd60e51b815260040161094690614cda565b600054610100900460ff16158015612f49576000805460ff1961ff0019909116610100171660011790555b8251612f5c906065906020860190613852565b508151612f70906066906020850190613852565b5080156109b8576000805461ff0019169055505050565b600054610100900460ff1680612fa0575060005460ff16155b612fbc5760405162461bcd60e51b815260040161094690614cda565b600054610100900460ff16158015612fe7576000805460ff1961ff0019909116610100171660011790555b801561116c576000805461ff001916905550565b6060610133805461089b9061515b565b60608161303057506040805180820190915260018152600360fc1b6020820152610887565b8160005b811561305a578061304481615196565b91506130539050600a8361507c565b9150613034565b6000816001600160401b0381111561308257634e487b7160e01b600052604160045260246000fd5b6040519080825280601f01601f1916602001820160405280156130ac576020820181803683370190505b5090505b8415610c3e576130c1600183615090565b91506130ce600a866151b1565b6130d9906030615064565b60f81b8183815181106130fc57634e487b7160e01b600052603260045260246000fd5b60200101906001600160f81b031916908160001a90535061311e600a8661507c565b94506130b0565b61312e81612770565b610d968585858585612de3565b6001600160e01b031981166301ffc9a760e01b14919050565b600081815260696020526040902080546001600160a01b0319166001600160a01b038416908117909155819061318982611209565b6001600160a01b03167f8c5be1e5ebec7d5bd14f71427d1e84f3dd0314c0f7b2291e5b200ac8c7c3b92560405160405180910390a45050565b60006131cd3361116f565b156131e1575060331936013560601c61091c565b6131e961362f565b905061091c565b606060ca60006131ff84613318565b8152602001908152602001600020600084815260200190815260200160002080546132299061515b565b80601f01602080910402602001604051908101604052809291908181526020018280546132559061515b565b80156132a25780601f10613277576101008083540402835291602001916132a2565b820191906000526020600020905b81548152906001019060200180831161328557829003601f168201915b5050505050905092915050565b60608285856040516020016132c6939291906145a0565b6040516020818303038152906040529050949350505050565b606083156132ee575081610d0a565b8251156132fe5782518084602001fd5b8160405162461bcd60e51b815260040161094691906147ec565b600081815260cb60205260408120541561334057600082815260cb6020526040902054610884565b5090565b6000610ad28261337d8787876040516020016133629392919061455c565b60405160208183030381529060405280519060200120613633565b90613663565b60ca600061339083613318565b8152602001908152602001600020600085815260200190815260200160002080546133ba9061515b565b1515905061341157826040516133d09190614584565b6040518091039020817f7ae4f661958fbecc2f77be6b0eb280d2a6f604b29e1e7221c82b9da0c4af7f868560405161340891906147ec565b60405180910390a35b8160ca600061341f84613318565b815260200190815260200160002060008681526020019081526020016000209080519060200190613451929190613852565b50816040516134609190614584565b6040518091039020836040516134769190614584565b6040518091039020827f851ffe8e74d5015261dba0a1f9e1b0e5d42c5af5d2ad1908fee897c7d80a0d9286866040516134b092919061483a565b60405180910390a450505050565b600081815260c96020526040812080548291906134da9061515b565b9050119050919050565b6134ee8383612338565b6134fb6000848484613517565b6109b85760405162461bcd60e51b815260040161094690614916565b600061352b846001600160a01b03166136df565b1561362757836001600160a01b031663150b7a02613547612329565b8786866040518563ffffffff1660e01b81526004016135699493929190614709565b602060405180830381600087803b15801561358357600080fd5b505af19250505080156135b3575060408051601f3d908101601f191682019092526135b091810190614197565b60015b61360d573d8080156135e1576040519150601f19603f3d011682016040523d82523d6000602084013e6135e6565b606091505b5080516136055760405162461bcd60e51b815260040161094690614916565b805181602001fd5b6001600160e01b031916630a85bd0160e11b149050610c3e565b506001610c3e565b3390565b600081604051602001613646919061461e565b604051602081830303815290604052805190602001209050919050565b60008060008084516041141561368d5750505060208201516040830151606084015160001a6136d3565b8451604014156136bb5750505060408201516020830151906001600160ff1b0381169060ff1c601b016136d3565b60405162461bcd60e51b815260040161094690614896565b6129c2868285856136e5565b3b151590565b60007f7fffffffffffffffffffffffffffffff5d576e7357a4501ddfe92f46681b20a08211156137275760405162461bcd60e51b815260040161094690614ade565b8360ff16601b148061373c57508360ff16601c145b6137585760405162461bcd60e51b815260040161094690614d28565b60006001868686866040516000815260200160405260405161377d94939291906147b9565b6020604051602081039080840390855afa15801561379f573d6000803e3d6000fd5b5050604051601f1901519150506001600160a01b038116610ad25760405162461bcd60e51b81526004016109469061485f565b8280546137de9061515b565b90600052602060002090601f0160209004810192826138005760008555613846565b82601f106138195782800160ff19823516178555613846565b82800160010185558215613846579182015b8281111561384657823582559160200191906001019061382b565b506133409291506138c6565b82805461385e9061515b565b90600052602060002090601f0160209004810192826138805760008555613846565b82601f1061389957805160ff1916838001178555613846565b82800160010185558215613846579182015b828111156138465782518255916020019190600101906138ab565b5b8082111561334057600081556001016138c7565b60006001600160401b038311156138f4576138f46151f1565b613907601f8401601f191660200161503b565b905082815283838301111561391b57600080fd5b828260208301376000602084830101529392505050565b803561088781615207565b60008083601f84011261394e578182fd5b5081356001600160401b03811115613964578182fd5b602083019150836020808302850101111561397e57600080fd5b9250929050565b8035801515811461088757600080fd5b60008083601f8401126139a6578182fd5b5081356001600160401b038111156139bc578182fd5b60208301915083602082850101111561397e57600080fd5b600082601f8301126139e4578081fd5b610d0a838335602085016138db565b600060208284031215613a04578081fd5b8135610d0a81615207565b600060208284031215613a20578081fd5b8151610d0a81615207565b60008060408385031215613a3d578081fd5b8235613a4881615207565b91506020830135613a5881615207565b809150509250929050565b600080600060608486031215613a77578081fd5b8335613a8281615207565b92506020840135613a9281615207565b929592945050506040919091013590565b600080600080600060808688031215613aba578081fd5b8535613ac581615207565b94506020860135613ad581615207565b93506040860135925060608601356001600160401b03811115613af6578182fd5b613b0288828901613995565b969995985093965092949392505050565b600080600080600080600060a0888a031215613b2d578485fd5b8735613b3881615207565b96506020880135613b4881615207565b95506040880135945060608801356001600160401b0380821115613b6a578384fd5b613b768b838c01613995565b909650945060808a0135915080821115613b8e578384fd5b50613b9b8a828b01613995565b989b979a50959850939692959293505050565b60008060008060808587031215613bc3578182fd5b8435613bce81615207565b93506020850135613bde81615207565b92506040850135915060608501356001600160401b03811115613bff578182fd5b613c0b878288016139d4565b91505092959194509250565b60008060408385031215613c29578182fd5b8235613c3481615207565b9150612c5660208401613985565b600080600060408486031215613c56578081fd5b8335613c6181615207565b925060208401356001600160401b03811115613c7b578182fd5b613c8786828701613995565b9497909650939450505050565b60008060408385031215613ca6578182fd5b8235613cb181615207565b946020939093013593505050565b60008060008060608587031215613cd4578182fd5b8435613cdf81615207565b93506020850135925060408501356001600160401b03811115613d00578283fd5b613d0c87828801613995565b95989497509550505050565b60008060008060008060008060a0898b031215613d33578182fd5b8835613d3e81615207565b97506020890135965060408901356001600160401b0380821115613d60578384fd5b613d6c8c838d01613995565b909850965060608b0135915080821115613d84578384fd5b613d908c838d0161393d565b909650945060808b0135915080821115613da8578384fd5b50613db58b828c0161393d565b999c989b5096995094979396929594505050565b60008060008060008060008060008060c08b8d031215613de7578384fd5b613df08b613932565b995060208b0135985060408b01356001600160401b0380821115613e12578586fd5b613e1e8e838f01613995565b909a50985060608d0135915080821115613e36578586fd5b613e428e838f0161393d565b909850965060808d0135915080821115613e5a578586fd5b613e668e838f0161393d565b909650945060a08d0135915080821115613e7e578384fd5b50613e8b8d828e01613995565b915080935050809150509295989b9194979a5092959850565b60008060008060008060808789031215613ebc578384fd5b8635613ec781615207565b95506020870135945060408701356001600160401b0380821115613ee9578586fd5b613ef58a838b01613995565b90965094506060890135915080821115613f0d578384fd5b50613f1a89828a01613995565b979a9699509497509295939492505050565b600080600080600060608688031215613f43578283fd5b85356001600160401b0380821115613f59578485fd5b613f6589838a0161393d565b90975095506020880135915080821115613f7d578485fd5b50613f8a8882890161393d565b96999598509660400135949350505050565b60008060008060008060006080888a031215613fb6578081fd5b87356001600160401b0380821115613fcc578283fd5b613fd88b838c0161393d565b909950975060208a0135915080821115613ff0578283fd5b613ffc8b838c0161393d565b909750955060408a0135945060608a0135915080821115613b8e578283fd5b60008060006040848603121561402f578081fd5b83356001600160401b03811115614044578182fd5b6140508682870161393d565b909790965060209590950135949350505050565b60008060208385031215614076578182fd5b82356001600160401b0381111561408b578283fd5b6140978582860161393d565b90969095509350505050565b600060208083850312156140b5578182fd5b82356001600160401b03808211156140cb578384fd5b818501915085601f8301126140de578384fd5b8135818111156140f0576140f06151f1565b838102915061410084830161503b565b8181528481019084860184860187018a101561411a578788fd5b8795505b8386101561413c57803583526001959095019491860191860161411e565b5098975050505050505050565b60006020828403121561415a578081fd5b610d0a82613985565b600060208284031215614174578081fd5b5051919050565b60006020828403121561418c578081fd5b8135610d0a8161521c565b6000602082840312156141a8578081fd5b8151610d0a8161521c565b600080602083850312156141c5578182fd5b82356001600160401b038111156141da578283fd5b61409785828601613995565b6000806000806000606086880312156141fd578283fd5b85356001600160401b0380821115614213578485fd5b61421f89838a01613995565b90975095506020880135915080821115614237578485fd5b50613f8a88828901613995565b60008060008060008060006080888a03121561425e578081fd5b87356001600160401b0380821115614274578283fd5b6142808b838c01613995565b909950975060208a0135915080821115614298578283fd5b613ffc8b838c01613995565b6000806000604084860312156142b8578081fd5b83356001600160401b038111156142cd578182fd5b61405086828701613995565b6000602082840312156142ea578081fd5b81356001600160401b038111156142ff578182fd5b8201601f8101841361430f578182fd5b610c3e848235602084016138db565b600080600060408486031215614332578081fd5b83356001600160401b0380821115614348578283fd5b908501906080828803121561435b578283fd5b90935060208501359080821115614370578283fd5b50613c8786828701613995565b60006020828403121561438e578081fd5b5035919050565b6000806000604084860312156143a9578081fd5b8335925060208401356001600160401b03811115613c7b578182fd5b600080600080606085870312156143da578182fd5b8435935060208501356001600160401b038111156143f6578283fd5b61440287828801613995565b9598909750949560400135949350505050565b60008060408385031215614427578182fd5b50508035926020909101359150565b818352602080840193600091908185020181018584845b878110156144b35782840389528135601e1988360301811261446d578687fd5b870180356001600160401b03811115614484578788fd5b803603891315614492578788fd5b61449f8682898501614506565b9a87019a955050509084019060010161444d565b5091979650505050505050565b6000815180845260208085018081965082840281019150828601855b858110156144b35782840389526144f4848351614530565b988501989350908401906001016144dc565b60008284528282602086013780602084860101526020601f19601f85011685010190509392505050565b6000815180845261454881602086016020860161512f565b601f01601f19169290920160200192915050565b92835260609190911b6bffffffffffffffffffffffff19166020830152603482015260540190565b6000825161459681846020870161512f565b9190910192915050565b600084516145b281846020890161512f565b60609490941b6bffffffffffffffffffffffff191691909301908152601481019190915260340192915050565b6000828483379101908152919050565b6000835161460181846020880161512f565b83519083019061461581836020880161512f565b01949350505050565b7f19457468657265756d205369676e6564204d6573736167653a0a3332000000008152601c810191909152603c0190565b90815260200190565b918252602082015260400190565b6001600160a01b0391909116815260200190565b6001600160a01b03848116825283166020820152606060408201819052600090610ad290830184614530565b6001600160a01b039384168152919092166020820152604081019190915260600190565b6001600160a01b03868116825285166020820152604081018490526080606082018190526000906146fe9083018486614506565b979650505050505050565b6001600160a01b03858116825284166020820152604081018390526080606082018190526000906129c290830184614530565b600060608252614750606083018789614436565b8281036020840152614763818688614436565b9150508260408301529695505050505050565b600060208252610d0a60208301846144c0565b60006040825261479c60408301856144c0565b8281036020840152610d0681856144c0565b901515815260200190565b93845260ff9290921660208401526040830152606082015260800190565b6001600160e01b031991909116815260200190565b600060208252610d0a6020830184614530565b600060208252610c3e602083018486614506565b600060608252614827606083018789614506565b8281036020840152614763818688614506565b60006040825261484d6040830185614530565b8281036020840152610d068185614530565b60208082526018908201527f45434453413a20696e76616c6964207369676e61747572650000000000000000604082015260600190565b6020808252601f908201527f45434453413a20696e76616c6964207369676e6174757265206c656e67746800604082015260600190565b60208082526029908201527f52656769737472793a2053454e4445525f49535f4e4f545f415050524f5645446040820152682fa7a92fa7aba722a960b91b606082015260800190565b60208082526032908201527f4552433732313a207472616e7366657220746f206e6f6e20455243373231526560408201527131b2b4bb32b91034b6b83632b6b2b73a32b960711b606082015260800190565b6020808252601c908201527f5265636f726453746f726167653a204b45595f4e4f545f464f554e4400000000604082015260600190565b6020808252601c908201527f4552433732313a20746f6b656e20616c7265616479206d696e74656400000000604082015260600190565b60208082526026908201527f52656769737472793a204552433732315f524543454956494e475f4e4f545f41604082015265131313d5d15160d21b606082015260800190565b60208082526027908201527f52656769737472793a204348494c445f434841494e5f4d414e454745525f4e4f604082015266545f454d50545960c81b606082015260800190565b60208082526024908201527f4552433732313a207472616e7366657220746f20746865207a65726f206164646040820152637265737360e01b606082015260800190565b60208082526019908201527f4552433732313a20617070726f766520746f2063616c6c657200000000000000604082015260600190565b60208082526022908201527f45434453413a20696e76616c6964207369676e6174757265202773272076616c604082015261756560f01b606082015260800190565b60208082526027908201527f52656769737472793a2053454e4445525f49535f4e4f545f4d494e54494e475f60408201526626a0a720a3a2a960c91b606082015260800190565b6020808252602c908201527f4552433732313a206f70657261746f7220717565727920666f72206e6f6e657860408201526b34b9ba32b73a103a37b5b2b760a11b606082015260800190565b60208082526017908201527f52656769737472793a20544f4b454e5f494e56414c4944000000000000000000604082015260600190565b60208082526038908201527f4552433732313a20617070726f76652063616c6c6572206973206e6f74206f7760408201527f6e6572206e6f7220617070726f76656420666f7220616c6c0000000000000000606082015260800190565b6020808252602a908201527f4552433732313a2062616c616e636520717565727920666f7220746865207a65604082015269726f206164647265737360b01b606082015260800190565b60208082526029908201527f4552433732313a206f776e657220717565727920666f72206e6f6e657869737460408201526832b73a103a37b5b2b760b91b606082015260800190565b6020808252602e908201527f496e697469616c697a61626c653a20636f6e747261637420697320616c72656160408201526d191e481a5b9a5d1a585b1a5e995960921b606082015260800190565b60208082526022908201527f45434453413a20696e76616c6964207369676e6174757265202776272076616c604082015261756560f01b606082015260800190565b6020808252818101527f52656769737472793a20434e535f52454749535452595f4e4f545f454d505459604082015260600190565b6020808252818101527f4552433732313a206d696e7420746f20746865207a65726f2061646472657373604082015260600190565b6020808252602c908201527f4552433732313a20617070726f76656420717565727920666f72206e6f6e657860408201526b34b9ba32b73a103a37b5b2b760a11b606082015260800190565b60208082526026908201527f52656769737472793a20524f4f545f434841494e5f4d414e454745525f4e4f546040820152655f454d50545960d01b606082015260800190565b60208082526029908201527f4552433732313a207472616e73666572206f6620746f6b656e2074686174206960408201526839903737ba1037bbb760b91b606082015260800190565b6020808252602f908201527f4552433732314d657461646174613a2055524920717565727920666f72206e6f60408201526e3732bc34b9ba32b73a103a37b5b2b760891b606082015260800190565b60208082526027908201527f554e535265676973747279466f727761726465723a205349474e41545552455f6040820152661253959053125160ca1b606082015260800190565b60208082526021908201527f4552433732313a20617070726f76616c20746f2063757272656e74206f776e656040820152603960f91b606082015260800190565b60208082526022908201527f52656769737472793a20494e53554646494349454e545f5045524d495353494f6040820152614e5360f01b606082015260800190565b60208082526015908201527452656769737472793a204c4142454c5f454d50545960581b604082015260600190565b6000808335601e1984360301811261500d578283fd5b8301803591506001600160401b03821115615026578283fd5b60200191503681900382131561397e57600080fd5b6040518181016001600160401b038111828210171561505c5761505c6151f1565b604052919050565b60008219821115615077576150776151c5565b500190565b60008261508b5761508b6151db565b500490565b6000828210156150a2576150a26151c5565b500390565b6000608082360312156150b8578081fd5b604051608081016001600160401b0382821081831117156150db576150db6151f1565b81604052843591506150ec82615207565b81835260208501356020840152604085013560408401526060850135915080821115615116578384fd5b50615123368286016139d4565b60608301525092915050565b60005b8381101561514a578181015183820152602001615132565b838111156117965750506000910152565b60028104600182168061516f57607f821691505b6020821081141561519057634e487b7160e01b600052602260045260246000fd5b50919050565b60006000198214156151aa576151aa6151c5565b5060010190565b6000826151c0576151c06151db565b500690565b634e487b7160e01b600052601160045260246000fd5b634e487b7160e01b600052601260045260246000fd5b634e487b7160e01b600052604160045260246000fd5b6001600160a01b038116811461116c57600080fd5b6001600160e01b03198116811461116c57600080fdfea164736f6c6343000800000a",
  "linkReferences": {},
  "deployedLinkReferences": {}
}