{
  "_format": "hh-sol-artifact-1",
  "contractName": "UNSRegistry",
  "sourceName": "contracts/UNSRegistry.sol",
  "abi": [
    {
      "anonymous": false,
      "inputs": [
        {
          "indexed": false,
          "internalType": "address",
          "name": "previousAdmin",
          "type": "address"
        },
        {
          "indexed": false,
          "internalType": "address",
          "name": "newAdmin",
          "type": "address"
        }
      ],
      "name": "AdminChanged",
      "type": "event"
    },
    {
      "anonymous": false,
      "inputs": [
        {
          "indexed": true,
          "internalType": "address",
          "name": "owner",
          "type": "address"
        },
        {
          "indexed": true,
          "internalType": "address",
          "name": "approved",
          "type": "address"
        },
        {
          "indexed": true,
          "internalType": "uint256",
          "name": "tokenId",
          "type": "uint256"
        }
      ],
      "name": "Approval",
      "type": "event"
    },
    {
      "anonymous": false,
      "inputs": [
        {
          "indexed": true,
          "internalType": "address",
          "name": "owner",
          "type": "address"
        },
        {
          "indexed": true,
          "internalType": "address",
          "name": "operator",
          "type": "address"
        },
        {
          "indexed": false,
          "internalType": "bool",
          "name": "approved",
          "type": "bool"
        }
      ],
      "name": "ApprovalForAll",
      "type": "event"
    },
    {
      "anonymous": false,
      "inputs": [
        {
          "indexed": false,
          "internalType": "uint8",
          "name": "version",
          "type": "uint8"
        }
      ],
      "name": "Initialized",
      "type": "event"
    },
    {
      "anonymous": false,
      "inputs": [
        {
          "indexed": true,
          "internalType": "uint256",
          "name": "tokenId",
          "type": "uint256"
        },
        {
          "indexed": true,
          "internalType": "string",
          "name": "keyIndex",
          "type": "string"
        },
        {
          "indexed": false,
          "internalType": "string",
          "name": "key",
          "type": "string"
        }
      ],
      "name": "NewKey",
      "type": "event"
    },
    {
      "anonymous": false,
      "inputs": [
        {
          "indexed": true,
          "internalType": "uint256",
          "name": "tokenId",
          "type": "uint256"
        },
        {
          "indexed": false,
          "internalType": "string",
          "name": "uri",
          "type": "string"
        }
      ],
      "name": "NewURI",
      "type": "event"
    },
    {
      "anonymous": false,
      "inputs": [
        {
          "indexed": false,
          "internalType": "string",
          "name": "prefix",
          "type": "string"
        }
      ],
      "name": "NewURIPrefix",
      "type": "event"
    },
    {
      "anonymous": false,
      "inputs": [
        {
          "indexed": true,
          "internalType": "address",
          "name": "addr",
          "type": "address"
        }
      ],
      "name": "RemoveReverse",
      "type": "event"
    },
    {
      "anonymous": false,
      "inputs": [
        {
          "indexed": true,
          "internalType": "uint256",
          "name": "tokenId",
          "type": "uint256"
        }
      ],
      "name": "ResetRecords",
      "type": "event"
    },
    {
      "anonymous": false,
      "inputs": [
        {
          "indexed": true,
          "internalType": "uint256",
          "name": "tokenId",
          "type": "uint256"
        },
        {
          "indexed": true,
          "internalType": "string",
          "name": "keyIndex",
          "type": "string"
        },
        {
          "indexed": true,
          "internalType": "string",
          "name": "valueIndex",
          "type": "string"
        },
        {
          "indexed": false,
          "internalType": "string",
          "name": "key",
          "type": "string"
        },
        {
          "indexed": false,
          "internalType": "string",
          "name": "value",
          "type": "string"
        }
      ],
      "name": "Set",
      "type": "event"
    },
    {
      "anonymous": false,
      "inputs": [
        {
          "indexed": true,
          "internalType": "address",
          "name": "addr",
          "type": "address"
        },
        {
          "indexed": true,
          "internalType": "uint256",
          "name": "tokenId",
          "type": "uint256"
        }
      ],
      "name": "SetReverse",
      "type": "event"
    },
    {
      "anonymous": false,
      "inputs": [
        {
          "indexed": true,
          "internalType": "address",
          "name": "from",
          "type": "address"
        },
        {
          "indexed": true,
          "internalType": "address",
          "name": "to",
          "type": "address"
        },
        {
          "indexed": true,
          "internalType": "uint256",
          "name": "tokenId",
          "type": "uint256"
        }
      ],
      "name": "Transfer",
      "type": "event"
    },
    {
      "anonymous": false,
      "inputs": [
        {
          "indexed": true,
          "internalType": "address",
          "name": "implementation",
          "type": "address"
        }
      ],
      "name": "Upgraded",
      "type": "event"
    },
    {
      "inputs": [],
      "name": "BATCH_LIMIT",
      "outputs": [
        {
          "internalType": "uint256",
          "name": "",
          "type": "uint256"
        }
      ],
      "stateMutability": "view",
      "type": "function"
    },
    {
      "inputs": [],
      "name": "NAME",
      "outputs": [
        {
          "internalType": "string",
          "name": "",
          "type": "string"
        }
      ],
      "stateMutability": "view",
      "type": "function"
    },
    {
      "inputs": [],
      "name": "VERSION",
      "outputs": [
        {
          "internalType": "string",
          "name": "",
          "type": "string"
        }
      ],
      "stateMutability": "view",
      "type": "function"
    },
    {
      "inputs": [
        {
          "internalType": "string",
          "name": "key",
          "type": "string"
        }
      ],
      "name": "addKey",
      "outputs": [],
      "stateMutability": "nonpayable",
      "type": "function"
    },
    {
      "inputs": [
        {
          "internalType": "address",
          "name": "addr",
          "type": "address"
        }
      ],
      "name": "addProxyReader",
      "outputs": [],
      "stateMutability": "nonpayable",
      "type": "function"
    },
    {
      "inputs": [
        {
          "internalType": "address",
          "name": "to",
          "type": "address"
        },
        {
          "internalType": "uint256",
          "name": "tokenId",
          "type": "uint256"
        }
      ],
      "name": "approve",
      "outputs": [],
      "stateMutability": "nonpayable",
      "type": "function"
    },
    {
      "inputs": [
        {
          "internalType": "address",
          "name": "owner",
          "type": "address"
        }
      ],
      "name": "balanceOf",
      "outputs": [
        {
          "internalType": "uint256",
          "name": "",
          "type": "uint256"
        }
      ],
      "stateMutability": "view",
      "type": "function"
    },
    {
      "inputs": [
        {
          "internalType": "uint256",
          "name": "tokenId",
          "type": "uint256"
        }
      ],
      "name": "burn",
      "outputs": [],
      "stateMutability": "nonpayable",
      "type": "function"
    },
    {
      "inputs": [
        {
          "internalType": "address",
          "name": "user",
          "type": "address"
        },
        {
          "internalType": "bytes",
          "name": "depositData",
          "type": "bytes"
        }
      ],
      "name": "deposit",
      "outputs": [],
      "stateMutability": "nonpayable",
      "type": "function"
    },
    {
      "inputs": [
        {
          "internalType": "uint256",
          "name": "tokenId",
          "type": "uint256"
        }
      ],
      "name": "depositToPolygon",
      "outputs": [],
      "stateMutability": "nonpayable",
      "type": "function"
    },
    {
      "inputs": [
        {
          "components": [
            {
              "internalType": "address",
              "name": "from",
              "type": "address"
            },
            {
              "internalType": "uint256",
              "name": "nonce",
              "type": "uint256"
            },
            {
              "internalType": "uint256",
              "name": "tokenId",
              "type": "uint256"
            },
            {
              "internalType": "bytes",
              "name": "data",
              "type": "bytes"
            }
          ],
          "internalType": "struct IForwarder.ForwardRequest",
          "name": "req",
          "type": "tuple"
        },
        {
          "internalType": "bytes",
          "name": "signature",
          "type": "bytes"
        }
      ],
      "name": "execute",
      "outputs": [
        {
          "internalType": "bytes",
          "name": "",
          "type": "bytes"
        }
      ],
      "stateMutability": "nonpayable",
      "type": "function"
    },
    {
      "inputs": [
        {
          "internalType": "uint256",
          "name": "tokenId",
          "type": "uint256"
        }
      ],
      "name": "exists",
      "outputs": [
        {
          "internalType": "bool",
          "name": "",
          "type": "bool"
        }
      ],
      "stateMutability": "view",
      "type": "function"
    },
    {
      "inputs": [
        {
          "internalType": "string",
          "name": "key",
          "type": "string"
        },
        {
          "internalType": "uint256",
          "name": "tokenId",
          "type": "uint256"
        }
      ],
      "name": "get",
      "outputs": [
        {
          "internalType": "string",
          "name": "value",
          "type": "string"
        }
      ],
      "stateMutability": "view",
      "type": "function"
    },
    {
      "inputs": [
        {
          "internalType": "uint256",
          "name": "tokenId",
          "type": "uint256"
        }
      ],
      "name": "getApproved",
      "outputs": [
        {
          "internalType": "address",
          "name": "",
          "type": "address"
        }
      ],
      "stateMutability": "view",
      "type": "function"
    },
    {
      "inputs": [
        {
          "internalType": "uint256",
          "name": "keyHash",
          "type": "uint256"
        },
        {
          "internalType": "uint256",
          "name": "tokenId",
          "type": "uint256"
        }
      ],
      "name": "getByHash",
      "outputs": [
        {
          "internalType": "string",
          "name": "key",
          "type": "string"
        },
        {
          "internalType": "string",
          "name": "value",
          "type": "string"
        }
      ],
      "stateMutability": "view",
      "type": "function"
    },
    {
      "inputs": [
        {
          "internalType": "uint256",
          "name": "keyHash",
          "type": "uint256"
        }
      ],
      "name": "getKey",
      "outputs": [
        {
          "internalType": "string",
          "name": "",
          "type": "string"
        }
      ],
      "stateMutability": "view",
      "type": "function"
    },
    {
      "inputs": [
        {
          "internalType": "uint256[]",
          "name": "hashes",
          "type": "uint256[]"
        }
      ],
      "name": "getKeys",
      "outputs": [
        {
          "internalType": "string[]",
          "name": "values",
          "type": "string[]"
        }
      ],
      "stateMutability": "view",
      "type": "function"
    },
    {
      "inputs": [
        {
          "internalType": "string[]",
          "name": "keys",
          "type": "string[]"
        },
        {
          "internalType": "uint256",
          "name": "tokenId",
          "type": "uint256"
        }
      ],
      "name": "getMany",
      "outputs": [
        {
          "internalType": "string[]",
          "name": "values",
          "type": "string[]"
        }
      ],
      "stateMutability": "view",
      "type": "function"
    },
    {
      "inputs": [
        {
          "internalType": "uint256[]",
          "name": "keyHashes",
          "type": "uint256[]"
        },
        {
          "internalType": "uint256",
          "name": "tokenId",
          "type": "uint256"
        }
      ],
      "name": "getManyByHash",
      "outputs": [
        {
          "internalType": "string[]",
          "name": "keys",
          "type": "string[]"
        },
        {
          "internalType": "string[]",
          "name": "values",
          "type": "string[]"
        }
      ],
      "stateMutability": "view",
      "type": "function"
    },
    {
      "inputs": [
        {
          "internalType": "address",
          "name": "mintingManager",
          "type": "address"
        },
        {
          "internalType": "address",
          "name": "cnsRegistry",
          "type": "address"
        },
        {
          "internalType": "address",
          "name": "rootChainManager",
          "type": "address"
        },
        {
          "internalType": "address",
          "name": "childChainManager",
          "type": "address"
        }
      ],
      "name": "initialize",
      "outputs": [],
      "stateMutability": "nonpayable",
      "type": "function"
    },
    {
      "inputs": [
        {
          "internalType": "address",
          "name": "owner",
          "type": "address"
        },
        {
          "internalType": "address",
          "name": "operator",
          "type": "address"
        }
      ],
      "name": "isApprovedForAll",
      "outputs": [
        {
          "internalType": "bool",
          "name": "",
          "type": "bool"
        }
      ],
      "stateMutability": "view",
      "type": "function"
    },
    {
      "inputs": [
        {
          "internalType": "address",
          "name": "spender",
          "type": "address"
        },
        {
          "internalType": "uint256",
          "name": "tokenId",
          "type": "uint256"
        }
      ],
      "name": "isApprovedOrOwner",
      "outputs": [
        {
          "internalType": "bool",
          "name": "",
          "type": "bool"
        }
      ],
      "stateMutability": "view",
      "type": "function"
    },
    {
      "inputs": [
        {
          "internalType": "address",
          "name": "forwarder",
          "type": "address"
        }
      ],
      "name": "isTrustedForwarder",
      "outputs": [
        {
          "internalType": "bool",
          "name": "",
          "type": "bool"
        }
      ],
      "stateMutability": "view",
      "type": "function"
    },
    {
      "inputs": [
        {
          "internalType": "address",
          "name": "user",
          "type": "address"
        },
        {
          "internalType": "uint256",
          "name": "tokenId",
          "type": "uint256"
        }
      ],
      "name": "mint",
      "outputs": [],
      "stateMutability": "nonpayable",
      "type": "function"
    },
    {
      "inputs": [
        {
          "internalType": "address",
          "name": "user",
          "type": "address"
        },
        {
          "internalType": "uint256",
          "name": "tokenId",
          "type": "uint256"
        },
        {
          "internalType": "bytes",
          "name": "",
          "type": "bytes"
        }
      ],
      "name": "mint",
      "outputs": [],
      "stateMutability": "nonpayable",
      "type": "function"
    },
    {
      "inputs": [
        {
          "internalType": "uint256",
          "name": "tokenId",
          "type": "uint256"
        },
        {
          "internalType": "string",
          "name": "uri",
          "type": "string"
        }
      ],
      "name": "mintTLD",
      "outputs": [],
      "stateMutability": "nonpayable",
      "type": "function"
    },
    {
      "inputs": [
        {
          "internalType": "address",
          "name": "to",
          "type": "address"
        },
        {
          "internalType": "string[]",
          "name": "labels",
          "type": "string[]"
        },
        {
          "internalType": "string[]",
          "name": "keys",
          "type": "string[]"
        },
        {
          "internalType": "string[]",
          "name": "values",
          "type": "string[]"
        },
        {
          "internalType": "bool",
          "name": "withReverse",
          "type": "bool"
        }
      ],
      "name": "mintWithRecords",
      "outputs": [],
      "stateMutability": "nonpayable",
      "type": "function"
    },
    {
      "inputs": [],
      "name": "name",
      "outputs": [
        {
          "internalType": "string",
          "name": "",
          "type": "string"
        }
      ],
      "stateMutability": "view",
      "type": "function"
    },
    {
      "inputs": [
        {
          "internalType": "string[]",
          "name": "labels",
          "type": "string[]"
        }
      ],
      "name": "namehash",
      "outputs": [
        {
          "internalType": "uint256",
          "name": "",
          "type": "uint256"
        }
      ],
      "stateMutability": "pure",
      "type": "function"
    },
    {
      "inputs": [
        {
          "internalType": "uint256",
          "name": "tokenId",
          "type": "uint256"
        }
      ],
      "name": "nonceOf",
      "outputs": [
        {
          "internalType": "uint256",
          "name": "",
          "type": "uint256"
        }
      ],
      "stateMutability": "view",
      "type": "function"
    },
    {
      "inputs": [
        {
          "internalType": "address",
          "name": "",
          "type": "address"
        },
        {
          "internalType": "address",
          "name": "from",
          "type": "address"
        },
        {
          "internalType": "uint256",
          "name": "tokenId",
          "type": "uint256"
        },
        {
          "internalType": "bytes",
          "name": "data",
          "type": "bytes"
        }
      ],
      "name": "onERC721Received",
      "outputs": [
        {
          "internalType": "bytes4",
          "name": "",
          "type": "bytes4"
        }
      ],
      "stateMutability": "nonpayable",
      "type": "function"
    },
    {
      "inputs": [
        {
          "internalType": "uint256",
          "name": "tokenId",
          "type": "uint256"
        }
      ],
      "name": "ownerOf",
      "outputs": [
        {
          "internalType": "address",
          "name": "",
          "type": "address"
        }
      ],
      "stateMutability": "view",
      "type": "function"
    },
    {
      "inputs": [
        {
          "internalType": "string[]",
          "name": "keys",
          "type": "string[]"
        },
        {
          "internalType": "string[]",
          "name": "values",
          "type": "string[]"
        },
        {
          "internalType": "uint256",
          "name": "tokenId",
          "type": "uint256"
        }
      ],
      "name": "reconfigure",
      "outputs": [],
      "stateMutability": "nonpayable",
      "type": "function"
    },
    {
      "inputs": [],
      "name": "removeReverse",
      "outputs": [],
      "stateMutability": "nonpayable",
      "type": "function"
    },
    {
      "inputs": [
        {
          "internalType": "uint256",
          "name": "tokenId",
          "type": "uint256"
        }
      ],
      "name": "reset",
      "outputs": [],
      "stateMutability": "nonpayable",
      "type": "function"
    },
    {
      "inputs": [
        {
          "internalType": "uint256",
          "name": "tokenId",
          "type": "uint256"
        }
      ],
      "name": "resolverOf",
      "outputs": [
        {
          "internalType": "address",
          "name": "",
          "type": "address"
        }
      ],
      "stateMutability": "view",
      "type": "function"
    },
    {
      "inputs": [
        {
          "internalType": "address",
          "name": "addr",
          "type": "address"
        }
      ],
      "name": "reverseNameOf",
      "outputs": [
        {
          "internalType": "string",
          "name": "reverseUri",
          "type": "string"
        }
      ],
      "stateMutability": "view",
      "type": "function"
    },
    {
      "inputs": [
        {
          "internalType": "address",
          "name": "addr",
          "type": "address"
        }
      ],
      "name": "reverseOf",
      "outputs": [
        {
          "internalType": "uint256",
          "name": "reverse",
          "type": "uint256"
        }
      ],
      "stateMutability": "view",
      "type": "function"
    },
    {
      "inputs": [],
      "name": "root",
      "outputs": [
        {
          "internalType": "uint256",
          "name": "",
          "type": "uint256"
        }
      ],
      "stateMutability": "pure",
      "type": "function"
    },
    {
      "inputs": [
        {
          "internalType": "address",
          "name": "from",
          "type": "address"
        },
        {
          "internalType": "address",
          "name": "to",
          "type": "address"
        },
        {
          "internalType": "uint256",
          "name": "tokenId",
          "type": "uint256"
        }
      ],
      "name": "safeTransferFrom",
      "outputs": [],
      "stateMutability": "nonpayable",
      "type": "function"
    },
    {
      "inputs": [
        {
          "internalType": "address",
          "name": "from",
          "type": "address"
        },
        {
          "internalType": "address",
          "name": "to",
          "type": "address"
        },
        {
          "internalType": "uint256",
          "name": "tokenId",
          "type": "uint256"
        },
        {
          "internalType": "bytes",
          "name": "data",
          "type": "bytes"
        }
      ],
      "name": "safeTransferFrom",
      "outputs": [],
      "stateMutability": "nonpayable",
      "type": "function"
    },
    {
      "inputs": [
        {
          "internalType": "string",
          "name": "key",
          "type": "string"
        },
        {
          "internalType": "string",
          "name": "value",
          "type": "string"
        },
        {
          "internalType": "uint256",
          "name": "tokenId",
          "type": "uint256"
        }
      ],
      "name": "set",
      "outputs": [],
      "stateMutability": "nonpayable",
      "type": "function"
    },
    {
      "inputs": [
        {
          "internalType": "address",
          "name": "operator",
          "type": "address"
        },
        {
          "internalType": "bool",
          "name": "approved",
          "type": "bool"
        }
      ],
      "name": "setApprovalForAll",
      "outputs": [],
      "stateMutability": "nonpayable",
      "type": "function"
    },
    {
      "inputs": [
        {
          "internalType": "uint256",
          "name": "keyHash",
          "type": "uint256"
        },
        {
          "internalType": "string",
          "name": "value",
          "type": "string"
        },
        {
          "internalType": "uint256",
          "name": "tokenId",
          "type": "uint256"
        }
      ],
      "name": "setByHash",
      "outputs": [],
      "stateMutability": "nonpayable",
      "type": "function"
    },
    {
      "inputs": [
        {
          "internalType": "string[]",
          "name": "keys",
          "type": "string[]"
        },
        {
          "internalType": "string[]",
          "name": "values",
          "type": "string[]"
        },
        {
          "internalType": "uint256",
          "name": "tokenId",
          "type": "uint256"
        }
      ],
      "name": "setMany",
      "outputs": [],
      "stateMutability": "nonpayable",
      "type": "function"
    },
    {
      "inputs": [
        {
          "internalType": "uint256[]",
          "name": "keyHashes",
          "type": "uint256[]"
        },
        {
          "internalType": "string[]",
          "name": "values",
          "type": "string[]"
        },
        {
          "internalType": "uint256",
          "name": "tokenId",
          "type": "uint256"
        }
      ],
      "name": "setManyByHash",
      "outputs": [],
      "stateMutability": "nonpayable",
      "type": "function"
    },
    {
      "inputs": [
        {
          "internalType": "address",
          "name": "to",
          "type": "address"
        },
        {
          "internalType": "uint256",
          "name": "tokenId",
          "type": "uint256"
        }
      ],
      "name": "setOwner",
      "outputs": [],
      "stateMutability": "nonpayable",
      "type": "function"
    },
    {
      "inputs": [
        {
          "internalType": "uint256",
          "name": "tokenId",
          "type": "uint256"
        }
      ],
      "name": "setReverse",
      "outputs": [],
      "stateMutability": "nonpayable",
      "type": "function"
    },
    {
      "inputs": [
        {
          "internalType": "string[]",
          "name": "labels",
          "type": "string[]"
        }
      ],
      "name": "setReverse",
      "outputs": [],
      "stateMutability": "nonpayable",
      "type": "function"
    },
    {
      "inputs": [
        {
          "internalType": "string",
          "name": "prefix",
          "type": "string"
        }
      ],
      "name": "setTokenURIPrefix",
      "outputs": [],
      "stateMutability": "nonpayable",
      "type": "function"
    },
    {
      "inputs": [
        {
          "internalType": "bytes4",
          "name": "interfaceId",
          "type": "bytes4"
        }
      ],
      "name": "supportsInterface",
      "outputs": [
        {
          "internalType": "bool",
          "name": "",
          "type": "bool"
        }
      ],
      "stateMutability": "view",
      "type": "function"
    },
    {
      "inputs": [],
      "name": "symbol",
      "outputs": [
        {
          "internalType": "string",
          "name": "",
          "type": "string"
        }
      ],
      "stateMutability": "view",
      "type": "function"
    },
    {
      "inputs": [
        {
          "internalType": "uint256",
          "name": "tokenId",
          "type": "uint256"
        }
      ],
      "name": "tokenURI",
      "outputs": [
        {
          "internalType": "string",
          "name": "",
          "type": "string"
        }
      ],
      "stateMutability": "view",
      "type": "function"
    },
    {
      "inputs": [
        {
          "internalType": "address",
          "name": "from",
          "type": "address"
        },
        {
          "internalType": "address",
          "name": "to",
          "type": "address"
        },
        {
          "internalType": "uint256",
          "name": "tokenId",
          "type": "uint256"
        }
      ],
      "name": "transferFrom",
      "outputs": [],
      "stateMutability": "nonpayable",
      "type": "function"
    },
    {
      "inputs": [
        {
          "internalType": "address",
          "name": "to",
          "type": "address"
        },
        {
          "internalType": "uint256",
          "name": "tokenId",
          "type": "uint256"
        },
        {
          "internalType": "string[]",
          "name": "labels",
          "type": "string[]"
        },
        {
          "internalType": "string[]",
          "name": "keys",
          "type": "string[]"
        },
        {
          "internalType": "string[]",
          "name": "values",
          "type": "string[]"
        },
        {
          "internalType": "bool",
          "name": "withReverse",
          "type": "bool"
        }
      ],
      "name": "unlockWithRecords",
      "outputs": [],
      "stateMutability": "nonpayable",
      "type": "function"
    },
    {
      "inputs": [
        {
          "components": [
            {
              "internalType": "address",
              "name": "from",
              "type": "address"
            },
            {
              "internalType": "uint256",
              "name": "nonce",
              "type": "uint256"
            },
            {
              "internalType": "uint256",
              "name": "tokenId",
              "type": "uint256"
            },
            {
              "internalType": "bytes",
              "name": "data",
              "type": "bytes"
            }
          ],
          "internalType": "struct IForwarder.ForwardRequest",
          "name": "req",
          "type": "tuple"
        },
        {
          "internalType": "bytes",
          "name": "signature",
          "type": "bytes"
        }
      ],
      "name": "verify",
      "outputs": [
        {
          "internalType": "bool",
          "name": "",
          "type": "bool"
        }
      ],
      "stateMutability": "view",
      "type": "function"
    },
    {
      "inputs": [
        {
          "internalType": "bytes",
          "name": "inputData",
          "type": "bytes"
        },
        {
          "internalType": "uint256",
          "name": "tokenId",
          "type": "uint256"
        },
        {
          "internalType": "string[]",
          "name": "keys",
          "type": "string[]"
        },
        {
          "internalType": "string[]",
          "name": "values",
          "type": "string[]"
        }
      ],
      "name": "withdrawFromPolygon",
      "outputs": [],
      "stateMutability": "nonpayable",
      "type": "function"
    }
  ],
  "bytecode": "0x608060405234801561001057600080fd5b50615092806100206000396000f3fe608060405234801561001057600080fd5b50600436106103835760003560e01c806370a08231116101de578063b88d4fde1161010f578063e985e9c5116100ad578063f5c1f76e1161007c578063f5c1f76e14610824578063f7df5c6014610837578063f8c8765e1461084a578063ffa1ad741461085d57600080fd5b8063e985e9c5146107c6578063ebf0c71714610802578063ec129eea14610809578063f25eb5c11461081c57600080fd5b8063bebec6b4116100e9578063bebec6b41461077a578063c87b56dd1461078d578063ce92b33e146107a0578063cf2c52cb146107b357600080fd5b8063b88d4fde14610741578063ba5d40b714610754578063bb5b27e11461076757600080fd5b806399e0dd7c1161017c578063a424740011610156578063a4247400146106e7578063ab3b87fe146106fa578063b3f9e4cb1461070d578063b85afd281461072057600080fd5b806399e0dd7c14610695578063a22cb465146106a8578063a3f4df7e146106bb57600080fd5b806394d008ef116101b857806394d008ef1461065f5780639508b1c4146106725780639559c0bd1461068557806395d89b411461068d57600080fd5b806370a08231146106265780637e37479e1461063957806384442b511461064c57600080fd5b806342842e0e116102b85780635096023911610256578063638e5c7811610230578063638e5c78146105be578063663f7b2a146105d1578063672b9f81146105e45780636ccbae5f1461060557600080fd5b8063509602391461057c578063572b6c051461058f5780636352211e146105ab57600080fd5b806347c816991161029257806347c81699146105305780634a72584d146105435780634f558e791461055657806350382c1a1461056957600080fd5b806342842e0e146104f757806342966c681461050a578063430c20811461051d57600080fd5b80631bf7e13e1161032557806327f18975116102ff57806327f18975146104ab578063310bd74b146104be578063384e9a55146104d157806340c10f19146104e457600080fd5b80631bf7e13e1461046457806323b872dd14610477578063276fabb11461048a57600080fd5b8063095ea7b311610361578063095ea7b3146103f0578063150b7a02146104055780631bd8cc1a146104315780631be5e7ed1461045157600080fd5b806301ffc9a71461038857806306fdde03146103b0578063081812fc146103c5575b600080fd5b61039b6103963660046146a3565b610881565b60405190151581526020015b60405180910390f35b6103b8610892565b6040516103a79190614bcd565b6103d86103d33660046148d1565b610924565b6040516001600160a01b0390911681526020016103a7565b6104036103fe36600461435d565b61094b565b005b61041861041336600461414f565b6109a0565b6040516001600160e01b031990911681526020016103a7565b61044461043f366004614551565b610af6565b6040516103a79190614b68565b6103b861045f36600461480b565b610c16565b6103b8610472366004614872565b610c61565b61040361048536600461410f565b610d6c565b61049d6104983660046144a2565b610df2565b6040519081526020016103a7565b6104036104b93660046144e1565b610e06565b6104036104cc3660046148d1565b610e81565b6104036104df3660046148d1565b610eef565b6104036104f236600461435d565b610f7e565b61040361050536600461410f565b610fcb565b6104036105183660046148d1565b610fe6565b61039b61052b36600461435d565b61105d565b61040361053e3660046147ad565b611069565b610403610551366004614919565b6110db565b61039b6105643660046148d1565b611154565b610403610577366004614840565b611173565b61040361058a366004614044565b6111a9565b61039b61059d366004614044565b6001600160a01b0316301490565b6103d86105b93660046148d1565b611209565b6104036105cc3660046148d1565b611269565b6104036105df36600461459a565b6112b4565b6105f76105f2366004614969565b611357565b6040516103a7929190614be0565b61049d6106133660046148d1565b6000908152610100602052604090205490565b61049d610634366004614044565b61136f565b61049d610647366004614044565b6113f5565b61040361065a366004614388565b611426565b61040361066d366004614449565b6114b7565b6104036106803660046146db565b611506565b61049d601481565b6103b861155d565b6104036106a336600461477a565b61156c565b6104036106b63660046142e0565b6115f2565b6103b86040518060400160405280600d81526020016c554e533a20526567697374727960981b81525081565b61039b6106f5366004614872565b611604565b61040361070836600461435d565b61164f565b6103d861071b3660046148d1565b6116c7565b61073361072e366004614551565b6116f1565b6040516103a7929190614b7b565b61040361074f3660046141bf565b611859565b610403610762366004614228565b6118d3565b6103b86107753660046148d1565b611944565b6103b8610788366004614044565b6119e6565b6103b861079b3660046148d1565b611ab0565b6104036107ae3660046144e1565b611b16565b6104036107c136600461430b565b611b88565b61039b6107d436600461407c565b6001600160a01b039182166000908152606a6020908152604080832093909416825291909152205460ff1690565b600061049d565b6104036108173660046144e1565b611c65565b610403611cd7565b6104446108323660046144a2565b611d5d565b6104036108453660046148e9565b611e3a565b6104036108583660046140b4565b611ecb565b6103b8604051806040016040528060058152602001640c0b8d8b8d60da1b81525081565b600061088c826120a1565b92915050565b6060606580546108a190614f94565b80601f01602080910402602001604051908101604052809291908181526020018280546108cd90614f94565b801561091a5780601f106108ef5761010080835404028352916020019161091a565b820191906000526020600020905b8154815290600101906020018083116108fd57829003601f168201915b5050505050905090565b600061092f826120f1565b506000908152606960205260409020546001600160a01b031690565b80303314156109885761095c612150565b81146109835760405162461bcd60e51b815260040161097a90614d1e565b60405180910390fd5b610991565b61099181612165565b61099b8383612193565b505050565b60007f8ffb960699dc2ba88f34d0e41c029c3c36c95149679fe1d0153a9582bec92378546001600160a01b03166109d56122b6565b6001600160a01b03161415610a97576109ec6122b6565b6001600160a01b03166342966c68856040518263ffffffff1660e01b8152600401610a1991815260200190565b600060405180830381600087803b158015610a3357600080fd5b505af1158015610a47573d6000803e3d6000fd5b505050821580159150610a615750610a6182840184614671565b15610a7f57610a7030856122c5565b610a7a8585612413565b610a89565b610a8985856122c5565b50630a85bd0160e11b610aed565b60405162461bcd60e51b815260206004820152602560248201527f52656769737472793a204552433732315f524543454956494e475f50524f4849604482015264109255115160da1b606482015260840161097a565b95945050505050565b6060826001600160401b03811115610b1e57634e487b7160e01b600052604160045260246000fd5b604051908082528060200260200182016040528015610b5157816020015b6060815260200190600190039081610b3c5790505b50905060005b83811015610c0e57610bd0858583818110610b8257634e487b7160e01b600052603260045260246000fd5b9050602002810190610b949190614de2565b8080601f0160208091040260200160405190810160405280939291908181526020018383808284376000920191909152508792506124be915050565b828281518110610bf057634e487b7160e01b600052603260045260246000fd5b60200260200101819052508080610c0690614fc9565b915050610b57565b509392505050565b6060610c5984848080601f0160208091040260200160405190810160405280939291908181526020018383808284376000920191909152508692506124be915050565b949350505050565b606060005a9050610c73858585611604565b610ccf5760405162461bcd60e51b815260206004820152602760248201527f554e535265676973747279466f727761726465723a205349474e41545552455f6044820152661253959053125160ca1b606482015260840161097a565b610d61610cdf6020870187614044565b30604088013584610cf360608b018b614de2565b8080601f01602080910402602001604051908101604052809392919081815260200183838082843760009201919091525050604080516020601f8e018190048102820181019092528c815292508c91508b90819084018382808284376000920191909152506124f392505050565b9150505b9392505050565b80610d7e610d786122b6565b826125e2565b610d9a5760405162461bcd60e51b815260040161097a90614c3c565b8130331415610dce57610dab612150565b8114610dc95760405162461bcd60e51b815260040161097a90614d1e565b610dd7565b610dd781612165565b610de083612660565b610deb8585856126cd565b5050505050565b6000610d65610e018385614ebc565b612874565b80610e12610d786122b6565b610e2e5760405162461bcd60e51b815260040161097a90614c3c565b8130331415610e6257610e3f612150565b8114610e5d5760405162461bcd60e51b815260040161097a90614d1e565b610e6b565b610e6b81612165565b610e7887878787876128d1565b50505050505050565b80610e8d610d786122b6565b610ea95760405162461bcd60e51b815260040161097a90614c3c565b8130331415610edd57610eba612150565b8114610ed85760405162461bcd60e51b815260040161097a90614d1e565b610ee6565b610ee681612165565b61099b83612660565b80610ef86122b6565b6001600160a01b0316610f0a82611209565b6001600160a01b031614610f305760405162461bcd60e51b815260040161097a90614c05565b8130331415610f6457610f41612150565b8114610f5f5760405162461bcd60e51b815260040161097a90614d1e565b610f6d565b610f6d81612165565b61099b610f786122b6565b84612950565b610f86612998565b6001600160a01b0316610f976122b6565b6001600160a01b031614610fbd5760405162461bcd60e51b815260040161097a90614da0565b610fc782826122c5565b5050565b61099b83838360405180602001604052806000815250611859565b80610ff2610d786122b6565b61100e5760405162461bcd60e51b815260040161097a90614c3c565b81303314156110425761101f612150565b811461103d5760405162461bcd60e51b815260040161097a90614d1e565b61104b565b61104b81612165565b61105483612660565b61099b83612aab565b6000610d6583836125e2565b80611075610d786122b6565b6110915760405162461bcd60e51b815260040161097a90614c3c565b81303314156110c5576110a2612150565b81146110c05760405162461bcd60e51b815260040161097a90614d1e565b6110ce565b6110ce81612165565b610e788787878787612b52565b806110e7610d786122b6565b6111035760405162461bcd60e51b815260040161097a90614c3c565b813033141561113757611114612150565b81146111325760405162461bcd60e51b815260040161097a90614d1e565b611140565b61114081612165565b61114c86868686612c31565b505050505050565b6000818152606760205260408120546001600160a01b0316151561088c565b6111a6816040516020016111879190614a33565b6040516020818303038152906040528051906020012060001c82612cd1565b50565b610134546001600160a01b03166111be6122b6565b6001600160a01b0316146111e45760405162461bcd60e51b815260040161097a90614cd7565b6001600160a01b0316600090815261013760205260409020805460ff19166001179055565b6000818152606760205260408120546001600160a01b03168061088c5760405162461bcd60e51b8152602060048201526018602482015277115490cdcc8c4e881a5b9d985b1a59081d1bdad95b88125160421b604482015260640161097a565b80611275610d786122b6565b6112915760405162461bcd60e51b815260040161097a90614c3c565b6112a361129c6122b6565b30846126cd565b610fc76112ae6122b6565b83612413565b60006112bf82612874565b90506112c96122b6565b6001600160a01b03166112db82611209565b6001600160a01b0316146113015760405162461bcd60e51b815260040161097a90614c05565b3033141561133457611311612150565b811461132f5760405162461bcd60e51b815260040161097a90614d1e565b61133d565b61133d81612165565b610fc76113486122b6565b8261135285612cfd565b612d9a565b6060806113648484612e27565b909590945092505050565b60006001600160a01b0382166113d95760405162461bcd60e51b815260206004820152602960248201527f4552433732313a2061646472657373207a65726f206973206e6f7420612076616044820152683634b21037bbb732b960b91b606482015260840161097a565b506001600160a01b031660009081526068602052604090205490565b6001600160a01b0381166000908152610135602052604081205461141881612e48565b611420578091505b50919050565b610134546001600160a01b031661143b6122b6565b6001600160a01b0316146114615760405162461bcd60e51b815260040161097a90614cd7565b61146a88612660565b61147d61147689611209565b8a8a6126cd565b61148a858585858c612e92565b80156114ac576114ac89896114a76114a28a8c614ebc565b612cfd565b612f1c565b505050505050505050565b6114bf612998565b6001600160a01b03166114d06122b6565b6001600160a01b0316146114f65760405162461bcd60e51b815260040161097a90614da0565b61150084846122c5565b50505050565b6115108787612f5e565b6115186122b6565b6001600160a01b031661152a86611209565b6001600160a01b0316146115505760405162461bcd60e51b815260040161097a90614c05565b610e788484848489612e92565b6060606680546108a190614f94565b610134546001600160a01b03166115816122b6565b6001600160a01b0316146115a75760405162461bcd60e51b815260040161097a90614cd7565b6115b46101338383613dbc565b507f4b120d6a959a84a520fa48f5f937cca0e79129423487af7901213b5d2e89313b82826040516115e6929190614bb9565b60405180910390a15050565b610fc76115fd6122b6565b8383612fcd565b6000610c5961161285614ec9565b3085858080601f01602080910402602001604051908101604052809392919081815260200183838082843760009201919091525061309c92505050565b8061165b610d786122b6565b6116775760405162461bcd60e51b815260040161097a90614c3c565b81303314156116ab57611688612150565b81146116a65760405162461bcd60e51b815260040161097a90614d1e565b6116b4565b6116b481612165565b6115006116c084611209565b85856126cd565b6000818152606760205260408120546001600160a01b03166116ea57600061088c565b3092915050565b606080836001600160401b0381111561171a57634e487b7160e01b600052604160045260246000fd5b60405190808252806020026020018201604052801561174d57816020015b60608152602001906001900390816117385790505b509150836001600160401b0381111561177657634e487b7160e01b600052604160045260246000fd5b6040519080825280602002602001820160405280156117a957816020015b60608152602001906001900390816117945790505b50905060005b84811015611850576117e78686838181106117da57634e487b7160e01b600052603260045260246000fd5b9050602002013585612e27565b84838151811061180757634e487b7160e01b600052603260045260246000fd5b6020026020010184848151811061182e57634e487b7160e01b600052603260045260246000fd5b602002602001018290528290525050808061184890614fc9565b9150506117af565b50935093915050565b81611865610d786122b6565b6118815760405162461bcd60e51b815260040161097a90614c3c565b82303314156118b557611892612150565b81146118b05760405162461bcd60e51b815260040161097a90614d1e565b6118be565b6118be81612165565b6118c784612660565b61114c868686866131f4565b610134546001600160a01b03166118e86122b6565b6001600160a01b03161461190e5760405162461bcd60e51b815260040161097a90614cd7565b600061191d610e01888a614ebc565b905061193789826119316114a28b8d614ebc565b85613227565b6114ac8686868685612e92565b600081815260c96020526040902080546060919061196190614f94565b80601f016020809104026020016040519081016040528092919081815260200182805461198d90614f94565b80156119da5780601f106119af576101008083540402835291602001916119da565b820191906000526020600020905b8154815290600101906020018083116119bd57829003601f168201915b50505050509050919050565b6001600160a01b03811660009081526101356020526040902054606090611a0c81612e48565b611420576000818152610136602052604090208054611a2a90614f94565b80601f0160208091040260200160405190810160405280929190818152602001828054611a5690614f94565b8015611aa35780601f10611a7857610100808354040283529160200191611aa3565b820191906000526020600020905b815481529060010190602001808311611a8657829003601f168201915b5050505050915050919050565b6060611abb826120f1565b6000611ac561327a565b90506000815111611ae55760405180602001604052806000815250610d65565b80611aef8461328a565b604051602001611b00929190614ada565b6040516020818303038152906040529392505050565b80611b22610d786122b6565b611b3e5760405162461bcd60e51b815260040161097a90614c3c565b8130331415611b7257611b4f612150565b8114611b6d5760405162461bcd60e51b815260040161097a90614d1e565b611b7b565b611b7b81612165565b610e788787878787612e92565b7f8bea9a6f8afd34f4e29c585f854e0cc5161431bf5fc299d468454d33dce53b87546001600160a01b0316611bbb6122b6565b6001600160a01b031614611be15760405162461bcd60e51b815260040161097a90614da0565b6020811415611c04576000611bf8828401846148d1565b905061150084826122c5565b6000611c12828401846145df565b805190915060005b8181101561114c57611c5386848381518110611c4657634e487b7160e01b600052603260045260246000fd5b60200260200101516122c5565b80611c5d81614fc9565b915050611c1a565b80611c71610d786122b6565b611c8d5760405162461bcd60e51b815260040161097a90614c3c565b8130331415611cc157611c9e612150565b8114611cbc5760405162461bcd60e51b815260040161097a90614d1e565b611cca565b611cca81612165565b610e7887878787876133a3565b6000611ce16122b6565b6001600160a01b03811660009081526101356020526040902054909150611d545760405162461bcd60e51b815260206004820152602160248201527f52656769737472793a20524556455253455f5245434f52445f49535f454d50546044820152605960f81b606482015260840161097a565b6111a6816133b9565b6060816001600160401b03811115611d8557634e487b7160e01b600052604160045260246000fd5b604051908082528060200260200182016040528015611db857816020015b6060815260200190600190039081611da35790505b50905060005b82811015611e3357611df5848483818110611de957634e487b7160e01b600052603260045260246000fd5b90506020020135611944565b828281518110611e1557634e487b7160e01b600052603260045260246000fd5b60200260200101819052508080611e2b90614fc9565b915050611dbe565b5092915050565b610134546001600160a01b0316611e4f6122b6565b6001600160a01b031614611e755760405162461bcd60e51b815260040161097a90614cd7565b61013454611e8c906001600160a01b0316846122c5565b827fc5beef08f693b11c316c0c8394a377a0033c9cf701b8cd8afd79cecef60c39528383604051611ebe929190614bb9565b60405180910390a2505050565b600054610100900460ff1615808015611eeb5750600054600160ff909116105b80611f055750303b158015611f05575060005460ff166001145b611f685760405162461bcd60e51b815260206004820152602e60248201527f496e697469616c697a61626c653a20636f6e747261637420697320616c72656160448201526d191e481a5b9a5d1a585b1a5e995960921b606482015260840161097a565b6000805460ff191660011790558015611f8b576000805461ff0019166101001790555b61013480546001600160a01b0319166001600160a01b038716179055837f8ffb960699dc2ba88f34d0e41c029c3c36c95149679fe1d0153a9582bec9237880546001600160a01b0319166001600160a01b03929092169190911790556040805180820182526013815272556e73746f707061626c6520446f6d61696e7360681b60208083019190915282518084019093526002835261155160f21b90830152612033916133fe565b61203b61344c565b61204361344c565b61204c83613475565b612055826134a5565b8015610deb576000805461ff0019169055604051600181527f7f26b83ff96e1f2b6a682f133852f6798a09c465da95921460cefb38474024989060200160405180910390a15050505050565b60006001600160e01b031982166380ac58cd60e01b14806120d257506001600160e01b03198216635b5e139f60e01b145b8061088c57506301ffc9a760e01b6001600160e01b031983161461088c565b6000818152606760205260409020546001600160a01b03166111a65760405162461bcd60e51b8152602060048201526018602482015277115490cdcc8c4e881a5b9d985b1a59081d1bdad95b88125160421b604482015260640161097a565b6000303314156121625750601f193601355b90565b60008181526101006020526040902054612180906001614e79565b6000918252610100602052604090912055565b600061219e82611209565b9050806001600160a01b0316836001600160a01b0316141561220c5760405162461bcd60e51b815260206004820152602160248201527f4552433732313a20617070726f76616c20746f2063757272656e74206f776e656044820152603960f91b606482015260840161097a565b806001600160a01b031661221e6122b6565b6001600160a01b0316148061223a575061223a816107d46122b6565b6122ac5760405162461bcd60e51b815260206004820152603e60248201527f4552433732313a20617070726f76652063616c6c6572206973206e6f7420746f60448201527f6b656e206f776e6572206e6f7220617070726f76656420666f7220616c6c0000606482015260840161097a565b61099b83836134d5565b60006122c0613543565b905090565b6001600160a01b03821661231b5760405162461bcd60e51b815260206004820181905260248201527f4552433732313a206d696e7420746f20746865207a65726f2061646472657373604482015260640161097a565b6000818152606760205260409020546001600160a01b0316156123805760405162461bcd60e51b815260206004820152601c60248201527f4552433732313a20746f6b656e20616c7265616479206d696e74656400000000604482015260640161097a565b61238c6000838361355f565b6001600160a01b03821660009081526068602052604081208054600192906123b5908490614e79565b909155505060008181526067602052604080822080546001600160a01b0319166001600160a01b03861690811790915590518392907fddf252ad1be2c89b69c2b068fc378daa952ba7f163c4a11628f55a4df523b3ef908290a45050565b600061241d612998565b905061242981836134d5565b60008051602061506683398151915254604080516020808201869052825180830390910181528183019283905263e3dec8fb60e01b9092526001600160a01b0390921691829163e3dec8fb91612486918891309190604401614b09565b600060405180830381600087803b1580156124a057600080fd5b505af11580156124b4573d6000803e3d6000fd5b5050505050505050565b6060610d65836040516020016124d49190614a33565b6040516020818303038152906040528051906020012060001c836135fc565b60606124fe85612165565b600080876001600160a01b0316866125188b8a89896136de565b6040516125259190614a33565b60006040518083038160008787f1925050503d8060008114612563576040519150601f19603f3d011682016040523d82523d6000602084013e612568565b606091505b509092509050612579603f87614e91565b5a1161259557634e487b7160e01b600052600160045260246000fd5b6125d582826040518060400160405280601a81526020017f42617365466f727761726465723a2043414c4c5f4641494c454400000000000081525061370e565b9998505050505050505050565b6000806125ee83611209565b9050806001600160a01b0316846001600160a01b0316148061263557506001600160a01b038082166000908152606a602090815260408083209388168352929052205460ff165b80610c595750836001600160a01b031661264e84610924565b6001600160a01b031614949350505050565b61266981613747565b60405160200161267b91815260200190565b60408051601f198184030181528282528051602091820120600085815260cb9092529181209190915582917f185c30856dadb58bf097c1f665a52ada7029752dbcad008ea3fefc73bee8c9fe9190a250565b826001600160a01b03166126e082611209565b6001600160a01b0316146127445760405162461bcd60e51b815260206004820152602560248201527f4552433732313a207472616e736665722066726f6d20696e636f72726563742060448201526437bbb732b960d91b606482015260840161097a565b6001600160a01b0382166127a65760405162461bcd60e51b8152602060048201526024808201527f4552433732313a207472616e7366657220746f20746865207a65726f206164646044820152637265737360e01b606482015260840161097a565b6127b183838361355f565b6127bc6000826134d5565b6001600160a01b03831660009081526068602052604081208054600192906127e5908490614ea5565b90915550506001600160a01b0382166000908152606860205260408120805460019290612813908490614e79565b909155505060008181526067602052604080822080546001600160a01b0319166001600160a01b0386811691821790925591518493918716917fddf252ad1be2c89b69c2b068fc378daa952ba7f163c4a11628f55a4df523b3ef91a4505050565b805160009081905b8015611e33576128bd8285612892600185614ea5565b815181106128b057634e487b7160e01b600052603260045260246000fd5b6020026020010151613773565b9150806128c981614f7d565b91505061287c565b60005b8481101561114c5761293e8686838181106128ff57634e487b7160e01b600052603260045260246000fd5b9050602002013585858481811061292657634e487b7160e01b600052603260045260246000fd5b90506020028101906129389190614de2565b85612c31565b8061294881614fc9565b9150506128d4565b6001600160a01b03821660008181526101356020526040808220849055518392917feb76a21470988c474a21f690cc28fee1ed511bd812dc3c21fd0f49c5e5d4708a91a35050565b6000806000805160206150668339815191525460405163721804d360e11b81523060048201526001600160a01b039091169150600090829063e43009a69060240160206040518083038186803b1580156129f157600080fd5b505afa158015612a05573d6000803e3d6000fd5b505050506040513d601f19601f82011682018060405250810190612a29919061468b565b60405163e66f960360e01b8152600481018290529091506001600160a01b0383169063e66f96039060240160206040518083038186803b158015612a6c57600080fd5b505afa158015612a80573d6000803e3d6000fd5b505050506040513d601f19601f82011682018060405250810190612aa49190614060565b9250505090565b6000612ab682611209565b9050612ac48160008461355f565b612acf6000836134d5565b6001600160a01b0381166000908152606860205260408120805460019290612af8908490614ea5565b909155505060008281526067602052604080822080546001600160a01b0319169055518391906001600160a01b038416907fddf252ad1be2c89b69c2b068fc378daa952ba7f163c4a11628f55a4df523b3ef908390a45050565b60008585604051602001612b67929190614aca565b60408051601f198184030181528282528051602091820120601f8901829004820284018201909252878352909250612bbb9183918990899081908401838280828437600092019190915250612cd192505050565b61114c8187878080601f01602080910402602001604051908101604052809392919081815260200183838082843760009201919091525050604080516020601f8b018190048102820181019092528981529250899150889081908401838280828437600092019190915250889250613820915050565b612c3a8461395b565b612c865760405162461bcd60e51b815260206004820152601c60248201527f5265636f726453746f726167653a204b45595f4e4f545f464f554e4400000000604482015260640161097a565b61150084612c9386611944565b85858080601f016020809104026020016040519081016040528093929190818152602001838380828437600092019190915250879250613820915050565b612cda8261395b565b610fc757600082815260c960209081526040909120825161099b92840190613e3c565b6060600082600081518110612d2257634e487b7160e01b600052603260045260246000fd5b602002602001015190506000600190505b8351811015611e335781848281518110612d5d57634e487b7160e01b600052603260045260246000fd5b6020026020010151604051602001612d76929190614a8e565b60405160208183030381529060405291508080612d9290614fc9565b915050612d33565b6000828152610136602052604090208054612db490614f94565b15159050612dde576000828152610136602090815260409091208251612ddc92840190613e3c565b505b6001600160a01b03831660008181526101356020526040808220859055518492917feb76a21470988c474a21f690cc28fee1ed511bd812dc3c21fd0f49c5e5d4708a91a3505050565b606080612e3384611944565b9150612e3f84846135fc565b90509250929050565b6000818152610138602052604081205460ff16801561088c57506101376000612e6f6122b6565b6001600160a01b0316815260208101919091526040016000205460ff1692915050565b60005b8481101561114c57612f0a868683818110612ec057634e487b7160e01b600052603260045260246000fd5b9050602002810190612ed29190614de2565b868685818110612ef257634e487b7160e01b600052603260045260246000fd5b9050602002810190612f049190614de2565b86612b52565b80612f1481614fc9565b915050612e95565b61dead6001600160a01b03841614801590612f4e57506001600160a01b03831660009081526101356020526040902054155b1561099b5761099b838383612d9a565b60008051602061506683398151915254604051633805550f60e01b81526001600160a01b03909116908190633805550f90612f9f9086908690600401614bb9565b600060405180830381600087803b158015612fb957600080fd5b505af1158015610e78573d6000803e3d6000fd5b816001600160a01b0316836001600160a01b0316141561302f5760405162461bcd60e51b815260206004820152601960248201527f4552433732313a20617070726f766520746f2063616c6c657200000000000000604482015260640161097a565b6001600160a01b038381166000818152606a6020908152604080832094871680845294825291829020805460ff191686151590811790915591519182527f17307eab39ab6107e8899845ad3d59bd9653f200f220920489ca2b5937696c31910160405180910390a3505050565b6040838101519051636ccbae5f60e01b8152600481019190915260009081903090636ccbae5f9060240160206040518083038186803b1580156130de57600080fd5b505afa1580156130f2573d6000803e3d6000fd5b505050506040513d601f19601f82011682018060405250810190613116919061468b565b905060006131c48660600151805190602001208688602001516040516020016131649392919092835260609190911b6bffffffffffffffffffffffff19166020830152603482015260540190565b60408051601f1981840301815282825280516020918201207f19457468657265756d205369676e6564204d6573736167653a0a33320000000084830152603c8085019190915282518085039091018152605c909301909152815191012090565b90508186602001511480156131ea575085516131ea906001600160a01b03168286613981565b9695505050505050565b6131ff8484846126cd565b61320b84848484613ad1565b6115005760405162461bcd60e51b815260040161097a90614c85565b61323184846122c5565b827fc5beef08f693b11c316c0c8394a377a0033c9cf701b8cd8afd79cecef60c3952836040516132619190614bcd565b60405180910390a2801561150057611500848484612f1c565b606061013380546108a190614f94565b6060816132ae5750506040805180820190915260018152600360fc1b602082015290565b8160005b81156132d857806132c281614fc9565b91506132d19050600a83614e91565b91506132b2565b6000816001600160401b0381111561330057634e487b7160e01b600052604160045260246000fd5b6040519080825280601f01601f19166020018201604052801561332a576020820181803683370190505b5090505b8415610c595761333f600183614ea5565b915061334c600a86614fe4565b613357906030614e79565b60f81b81838151811061337a57634e487b7160e01b600052603260045260246000fd5b60200101906001600160f81b031916908160001a90535061339c600a86614e91565b945061332e565b6133ac81612660565b610deb8585858585612e92565b6001600160a01b03811660008181526101356020526040808220829055517ffcf5eec0cfa3e6332f5f0e63ec242d71f866a61d121d6cdf5c2eb3b668a26c4f9190a250565b600054610100900460ff166134255760405162461bcd60e51b815260040161097a90614d55565b8151613438906065906020850190613e3c565b50805161099b906066906020840190613e3c565b600054610100900460ff166134735760405162461bcd60e51b815260040161097a90614d55565b565b600054610100900460ff1661349c5760405162461bcd60e51b815260040161097a90614d55565b6111a681613be2565b600054610100900460ff166134cc5760405162461bcd60e51b815260040161097a90614d55565b6111a681613c3b565b600081815260696020526040902080546001600160a01b0319166001600160a01b038416908117909155819061350a82611209565b6001600160a01b03167f8c5be1e5ebec7d5bd14f71427d1e84f3dd0314c0f7b2291e5b200ac8c7c3b92560405160405180910390a45050565b60003033141561355a575060331936013560601c90565b503390565b6000818152610138602052604090205460ff16158061358657506001600160a01b03821615155b6135d25760405162461bcd60e51b815260206004820152601860248201527f52656769737472793a20544f4b454e5f55504752414445440000000000000000604482015260640161097a565b6001600160a01b0383166000908152610135602052604090205481141561099b5761099b836133b9565b606061360782612e48565b15613621575060408051602081019091526000815261088c565b60ca600061362e84613747565b81526020019081526020016000206000848152602001908152602001600020805461365890614f94565b80601f016020809104026020016040519081016040528092919081815260200182805461368490614f94565b80156136d15780601f106136a6576101008083540402835291602001916136d1565b820191906000526020600020905b8154815290600101906020018083116136b457829003601f168201915b5050505050905092915050565b60608285856040516020016136f593929190614a4f565b6040516020818303038152906040529050949350505050565b6060831561371d575081610d65565b82511561372d5782518084602001fd5b8160405162461bcd60e51b815260040161097a9190614bcd565b600081815260cb60205260408120541561376f57600082815260cb602052604090205461088c565b5090565b60008151600014156137bf5760405162461bcd60e51b815260206004820152601560248201527452656769737472793a204c4142454c5f454d50545960581b604482015260640161097a565b82826040516020016137d19190614a33565b60405160208183030381529060405280519060200120604051602001613801929190918252602082015260400190565b60408051601f1981840301815291905280516020909101209392505050565b60ca600061382d83613747565b81526020019081526020016000206000858152602001908152602001600020805461385790614f94565b151590506138ae578260405161386d9190614a33565b6040518091039020817f7ae4f661958fbecc2f77be6b0eb280d2a6f604b29e1e7221c82b9da0c4af7f86856040516138a59190614bcd565b60405180910390a35b8160ca60006138bc84613747565b8152602001908152602001600020600086815260200190815260200160002090805190602001906138ee929190613e3c565b50816040516138fd9190614a33565b6040518091039020836040516139139190614a33565b6040518091039020827f851ffe8e74d5015261dba0a1f9e1b0e5d42c5af5d2ad1908fee897c7d80a0d92868660405161394d929190614be0565b60405180910390a450505050565b600081815260c960205260408120805482919061397790614f94565b9050119050919050565b60008060006139908585613c89565b909250905060008160048111156139b757634e487b7160e01b600052602160045260246000fd5b1480156139d55750856001600160a01b0316826001600160a01b0316145b156139e557600192505050610d65565b600080876001600160a01b0316631626ba7e60e01b8888604051602401613a0d929190614ba0565b60408051601f198184030181529181526020820180516001600160e01b03166001600160e01b0319909416939093179092529051613a4b9190614a33565b600060405180830381855afa9150503d8060008114613a86576040519150601f19603f3d011682016040523d82523d6000602084013e613a8b565b606091505b5091509150818015613a9e575080516020145b8015613ac557508051630b135d3f60e11b90613ac3908301602090810190840161468b565b145b98975050505050505050565b60006001600160a01b0384163b15613bda57836001600160a01b031663150b7a02613afa6122b6565b8786866040518563ffffffff1660e01b8152600401613b1c9493929190614b35565b602060405180830381600087803b158015613b3657600080fd5b505af1925050508015613b66575060408051601f3d908101601f19168201909252613b63918101906146bf565b60015b613bc0573d808015613b94576040519150601f19603f3d011682016040523d82523d6000602084013e613b99565b606091505b508051613bb85760405162461bcd60e51b815260040161097a90614c85565b805181602001fd5b6001600160e01b031916630a85bd0160e11b149050610c59565b506001610c59565b600054610100900460ff16613c095760405162461bcd60e51b815260040161097a90614d55565b806000805160206150668339815191525b80546001600160a01b0319166001600160a01b039290921691909117905550565b600054610100900460ff16613c625760405162461bcd60e51b815260040161097a90614d55565b807f8bea9a6f8afd34f4e29c585f854e0cc5161431bf5fc299d468454d33dce53b87613c1a565b600080825160411415613cc05760208301516040840151606085015160001a613cb487828585613ccf565b94509450505050613cc8565b506000905060025b9250929050565b6000807f7fffffffffffffffffffffffffffffff5d576e7357a4501ddfe92f46681b20a0831115613d065750600090506003613db3565b8460ff16601b14158015613d1e57508460ff16601c14155b15613d2f5750600090506004613db3565b6040805160008082526020820180845289905260ff881692820192909252606081018690526080810185905260019060a0016020604051602081039080840390855afa158015613d83573d6000803e3d6000fd5b5050604051601f1901519150506001600160a01b038116613dac57600060019250925050613db3565b9150600090505b94509492505050565b828054613dc890614f94565b90600052602060002090601f016020900481019282613dea5760008555613e30565b82601f10613e035782800160ff19823516178555613e30565b82800160010185558215613e30579182015b82811115613e30578235825591602001919060010190613e15565b5061376f929150613eb0565b828054613e4890614f94565b90600052602060002090601f016020900481019282613e6a5760008555613e30565b82601f10613e8357805160ff1916838001178555613e30565b82800160010185558215613e30579182015b82811115613e30578251825591602001919060010190613e95565b5b8082111561376f5760008155600101613eb1565b6000613ed8613ed384614e56565b614e26565b9050808382526020808301915083868660051b86011115613ef857600080fd5b6000805b87811015613f385782356001600160401b03811115613f19578283fd5b613f258a828a01613fda565b8652509383019391830191600101613efc565b50505050509392505050565b60008083601f840112613f55578182fd5b5081356001600160401b03811115613f6b578182fd5b6020830191508360208260051b8501011115613cc857600080fd5b80358015158114613f9657600080fd5b919050565b60008083601f840112613fac578182fd5b5081356001600160401b03811115613fc2578182fd5b602083019150836020828501011115613cc857600080fd5b600082601f830112613fea578081fd5b81356001600160401b0381111561400357614003615024565b614016601f8201601f1916602001614e26565b81815284602083860101111561402a578283fd5b816020850160208301379081016020019190915292915050565b600060208284031215614055578081fd5b8135610d658161503a565b600060208284031215614071578081fd5b8151610d658161503a565b6000806040838503121561408e578081fd5b82356140998161503a565b915060208301356140a98161503a565b809150509250929050565b600080600080608085870312156140c9578182fd5b84356140d48161503a565b935060208501356140e48161503a565b925060408501356140f48161503a565b915060608501356141048161503a565b939692955090935050565b600080600060608486031215614123578081fd5b833561412e8161503a565b9250602084013561413e8161503a565b929592945050506040919091013590565b600080600080600060808688031215614166578283fd5b85356141718161503a565b945060208601356141818161503a565b93506040860135925060608601356001600160401b038111156141a2578182fd5b6141ae88828901613f9b565b969995985093965092949392505050565b600080600080608085870312156141d4578182fd5b84356141df8161503a565b935060208501356141ef8161503a565b92506040850135915060608501356001600160401b03811115614210578182fd5b61421c87828801613fda565b91505092959194509250565b60008060008060008060008060a0898b031215614243578586fd5b883561424e8161503a565b975060208901356001600160401b0380821115614269578788fd5b6142758c838d01613f44565b909950975060408b013591508082111561428d578485fd5b6142998c838d01613f44565b909750955060608b01359150808211156142b1578485fd5b506142be8b828c01613f44565b90945092506142d1905060808a01613f86565b90509295985092959890939650565b600080604083850312156142f2578182fd5b82356142fd8161503a565b9150612e3f60208401613f86565b60008060006040848603121561431f578081fd5b833561432a8161503a565b925060208401356001600160401b03811115614344578182fd5b61435086828701613f9b565b9497909650939450505050565b6000806040838503121561436f578182fd5b823561437a8161503a565b946020939093013593505050565b600080600080600080600080600060c08a8c0312156143a5578283fd5b89356143b08161503a565b985060208a0135975060408a01356001600160401b03808211156143d2578485fd5b6143de8d838e01613f44565b909950975060608c01359150808211156143f6578485fd5b6144028d838e01613f44565b909750955060808c013591508082111561441a578485fd5b506144278c828d01613f44565b909450925061443a905060a08b01613f86565b90509295985092959850929598565b6000806000806060858703121561445e578182fd5b84356144698161503a565b93506020850135925060408501356001600160401b0381111561448a578283fd5b61449687828801613f9b565b95989497509550505050565b600080602083850312156144b4578182fd5b82356001600160401b038111156144c9578283fd5b6144d585828601613f44565b90969095509350505050565b6000806000806000606086880312156144f8578283fd5b85356001600160401b038082111561450e578485fd5b61451a89838a01613f44565b90975095506020880135915080821115614532578485fd5b5061453f88828901613f44565b96999598509660400135949350505050565b600080600060408486031215614565578081fd5b83356001600160401b0381111561457a578182fd5b61458686828701613f44565b909790965060209590950135949350505050565b6000602082840312156145ab578081fd5b81356001600160401b038111156145c0578182fd5b8201601f810184136145d0578182fd5b610c5984823560208401613ec5565b600060208083850312156145f1578182fd5b82356001600160401b03811115614606578283fd5b8301601f81018513614616578283fd5b8035614624613ed382614e56565b80828252848201915084840188868560051b8701011115614643578687fd5b8694505b83851015614665578035835260019490940193918501918501614647565b50979650505050505050565b600060208284031215614682578081fd5b610d6582613f86565b60006020828403121561469c578081fd5b5051919050565b6000602082840312156146b4578081fd5b8135610d658161504f565b6000602082840312156146d0578081fd5b8151610d658161504f565b60008060008060008060006080888a0312156146f5578081fd5b87356001600160401b038082111561470b578283fd5b6147178b838c01613f9b565b909950975060208a0135965060408a0135915080821115614736578283fd5b6147428b838c01613f44565b909650945060608a013591508082111561475a578283fd5b506147678a828b01613f44565b989b979a50959850939692959293505050565b6000806020838503121561478c578182fd5b82356001600160401b038111156147a1578283fd5b6144d585828601613f9b565b6000806000806000606086880312156147c4578283fd5b85356001600160401b03808211156147da578485fd5b6147e689838a01613f9b565b909750955060208801359150808211156147fe578485fd5b5061453f88828901613f9b565b60008060006040848603121561481f578081fd5b83356001600160401b03811115614834578182fd5b61458686828701613f9b565b600060208284031215614851578081fd5b81356001600160401b03811115614866578182fd5b610c5984828501613fda565b600080600060408486031215614886578081fd5b83356001600160401b038082111561489c578283fd5b90850190608082880312156148af578283fd5b909350602085013590808211156148c4578283fd5b5061435086828701613f9b565b6000602082840312156148e2578081fd5b5035919050565b6000806000604084860312156148fd578081fd5b8335925060208401356001600160401b03811115614344578182fd5b6000806000806060858703121561492e578182fd5b8435935060208501356001600160401b0381111561494a578283fd5b61495687828801613f9b565b9598909750949560400135949350505050565b6000806040838503121561497b578182fd5b50508035926020909101359150565b600081518084526020808501808196508360051b81019150828601855b858110156149d15782840389526149bf848351614a07565b988501989350908401906001016149a7565b5091979650505050505050565b81835281816020850137506000828201602090810191909152601f909101601f19169091010190565b60008151808452614a1f816020860160208601614f51565b601f01601f19169290920160200192915050565b60008251614a45818460208701614f51565b9190910192915050565b60008451614a61818460208901614f51565b60609490941b6bffffffffffffffffffffffff191691909301908152601481019190915260340192915050565b60008351614aa0818460208801614f51565b601760f91b9083019081528351614abe816001840160208801614f51565b01600101949350505050565b8183823760009101908152919050565b60008351614aec818460208801614f51565b835190830190614b00818360208801614f51565b01949350505050565b6001600160a01b03848116825283166020820152606060408201819052600090610aed90830184614a07565b6001600160a01b03858116825284166020820152604081018390526080606082018190526000906131ea90830184614a07565b602081526000610d65602083018461498a565b604081526000614b8e604083018561498a565b8281036020840152610d61818561498a565b828152604060208201526000610c596040830184614a07565b602081526000610c596020830184866149de565b602081526000610d656020830184614a07565b604081526000614bf36040830185614a07565b8281036020840152610d618185614a07565b6020808252601d908201527f52656769737472793a2053454e4445525f49535f4e4f545f4f574e4552000000604082015260600190565b60208082526029908201527f52656769737472793a2053454e4445525f49535f4e4f545f415050524f5645446040820152682fa7a92fa7aba722a960b91b606082015260800190565b60208082526032908201527f4552433732313a207472616e7366657220746f206e6f6e20455243373231526560408201527131b2b4bb32b91034b6b83632b6b2b73a32b960711b606082015260800190565b60208082526027908201527f52656769737472793a2053454e4445525f49535f4e4f545f4d494e54494e475f60408201526626a0a720a3a2a960c91b606082015260800190565b60208082526017908201527f52656769737472793a20544f4b454e5f494e56414c4944000000000000000000604082015260600190565b6020808252602b908201527f496e697469616c697a61626c653a20636f6e7472616374206973206e6f74206960408201526a6e697469616c697a696e6760a81b606082015260800190565b60208082526022908201527f52656769737472793a20494e53554646494349454e545f5045524d495353494f6040820152614e5360f01b606082015260800190565b6000808335601e19843603018112614df8578283fd5b8301803591506001600160401b03821115614e11578283fd5b602001915036819003821315613cc857600080fd5b604051601f8201601f191681016001600160401b0381118282101715614e4e57614e4e615024565b604052919050565b60006001600160401b03821115614e6f57614e6f615024565b5060051b60200190565b60008219821115614e8c57614e8c614ff8565b500190565b600082614ea057614ea061500e565b500490565b600082821015614eb757614eb7614ff8565b500390565b6000610d65368484613ec5565b600060808236031215614eda578081fd5b604051608081016001600160401b038282108183111715614efd57614efd615024565b8160405284359150614f0e8261503a565b81835260208501356020840152604085013560408401526060850135915080821115614f38578384fd5b50614f4536828601613fda565b60608301525092915050565b60005b83811015614f6c578181015183820152602001614f54565b838111156115005750506000910152565b600081614f8c57614f8c614ff8565b506000190190565b600181811c90821680614fa857607f821691505b6020821081141561142057634e487b7160e01b600052602260045260246000fd5b6000600019821415614fdd57614fdd614ff8565b5060010190565b600082614ff357614ff361500e565b500690565b634e487b7160e01b600052601160045260246000fd5b634e487b7160e01b600052601260045260246000fd5b634e487b7160e01b600052604160045260246000fd5b6001600160a01b03811681146111a657600080fd5b6001600160e01b0319811681146111a657600080fdfebe2bb46ac0377341a1ec5c3116d70fd5029d704bd46292e58f6265dd177ebafea164736f6c6343000804000a",
  "linkReferences": {},
  "deployedLinkReferences": {}
}