{
  "_format": "hh-sol-artifact-1",
  "contractName": "UNSRegistry",
  "sourceName": "contracts/UNSRegistry.sol",
  "abi": [
    {
      "anonymous": false,
      "inputs": [
        {
          "indexed": false,
          "internalType": "address",
          "name": "previousAdmin",
          "type": "address"
        },
        {
          "indexed": false,
          "internalType": "address",
          "name": "newAdmin",
          "type": "address"
        }
      ],
      "name": "AdminChanged",
      "type": "event"
    },
    {
      "anonymous": false,
      "inputs": [
        {
          "indexed": true,
          "internalType": "address",
          "name": "owner",
          "type": "address"
        },
        {
          "indexed": true,
          "internalType": "address",
          "name": "approved",
          "type": "address"
        },
        {
          "indexed": true,
          "internalType": "uint256",
          "name": "tokenId",
          "type": "uint256"
        }
      ],
      "name": "Approval",
      "type": "event"
    },
    {
      "anonymous": false,
      "inputs": [
        {
          "indexed": true,
          "internalType": "address",
          "name": "owner",
          "type": "address"
        },
        {
          "indexed": true,
          "internalType": "address",
          "name": "operator",
          "type": "address"
        },
        {
          "indexed": false,
          "internalType": "bool",
          "name": "approved",
          "type": "bool"
        }
      ],
      "name": "ApprovalForAll",
      "type": "event"
    },
    {
      "anonymous": false,
      "inputs": [
        {
          "indexed": true,
          "internalType": "uint256",
          "name": "tokenId",
          "type": "uint256"
        },
        {
          "indexed": true,
          "internalType": "string",
          "name": "keyIndex",
          "type": "string"
        },
        {
          "indexed": false,
          "internalType": "string",
          "name": "key",
          "type": "string"
        }
      ],
      "name": "NewKey",
      "type": "event"
    },
    {
      "anonymous": false,
      "inputs": [
        {
          "indexed": true,
          "internalType": "uint256",
          "name": "tokenId",
          "type": "uint256"
        },
        {
          "indexed": false,
          "internalType": "string",
          "name": "uri",
          "type": "string"
        }
      ],
      "name": "NewURI",
      "type": "event"
    },
    {
      "anonymous": false,
      "inputs": [
        {
          "indexed": false,
          "internalType": "string",
          "name": "prefix",
          "type": "string"
        }
      ],
      "name": "NewURIPrefix",
      "type": "event"
    },
    {
      "anonymous": false,
      "inputs": [
        {
          "indexed": true,
          "internalType": "uint256",
          "name": "tokenId",
          "type": "uint256"
        }
      ],
      "name": "ResetRecords",
      "type": "event"
    },
    {
      "anonymous": false,
      "inputs": [
        {
          "indexed": true,
          "internalType": "uint256",
          "name": "tokenId",
          "type": "uint256"
        },
        {
          "indexed": true,
          "internalType": "string",
          "name": "keyIndex",
          "type": "string"
        },
        {
          "indexed": true,
          "internalType": "string",
          "name": "valueIndex",
          "type": "string"
        },
        {
          "indexed": false,
          "internalType": "string",
          "name": "key",
          "type": "string"
        },
        {
          "indexed": false,
          "internalType": "string",
          "name": "value",
          "type": "string"
        }
      ],
      "name": "Set",
      "type": "event"
    },
    {
      "anonymous": false,
      "inputs": [
        {
          "indexed": true,
          "internalType": "address",
          "name": "from",
          "type": "address"
        },
        {
          "indexed": true,
          "internalType": "address",
          "name": "to",
          "type": "address"
        },
        {
          "indexed": true,
          "internalType": "uint256",
          "name": "tokenId",
          "type": "uint256"
        }
      ],
      "name": "Transfer",
      "type": "event"
    },
    {
      "anonymous": false,
      "inputs": [
        {
          "indexed": true,
          "internalType": "address",
          "name": "implementation",
          "type": "address"
        }
      ],
      "name": "Upgraded",
      "type": "event"
    },
    {
      "inputs": [],
      "name": "NAME",
      "outputs": [
        {
          "internalType": "string",
          "name": "",
          "type": "string"
        }
      ],
      "stateMutability": "view",
      "type": "function"
    },
    {
      "inputs": [],
      "name": "VERSION",
      "outputs": [
        {
          "internalType": "string",
          "name": "",
          "type": "string"
        }
      ],
      "stateMutability": "view",
      "type": "function"
    },
    {
      "inputs": [
        {
          "internalType": "string",
          "name": "key",
          "type": "string"
        }
      ],
      "name": "addKey",
      "outputs": [],
      "stateMutability": "nonpayable",
      "type": "function"
    },
    {
      "inputs": [
        {
          "internalType": "address",
          "name": "to",
          "type": "address"
        },
        {
          "internalType": "uint256",
          "name": "tokenId",
          "type": "uint256"
        }
      ],
      "name": "approve",
      "outputs": [],
      "stateMutability": "nonpayable",
      "type": "function"
    },
    {
      "inputs": [
        {
          "internalType": "address",
          "name": "owner",
          "type": "address"
        }
      ],
      "name": "balanceOf",
      "outputs": [
        {
          "internalType": "uint256",
          "name": "",
          "type": "uint256"
        }
      ],
      "stateMutability": "view",
      "type": "function"
    },
    {
      "inputs": [
        {
          "internalType": "uint256",
          "name": "tokenId",
          "type": "uint256"
        }
      ],
      "name": "burn",
      "outputs": [],
      "stateMutability": "nonpayable",
      "type": "function"
    },
    {
      "inputs": [
        {
          "internalType": "uint256",
          "name": "tokenId",
          "type": "uint256"
        },
        {
          "internalType": "bytes",
          "name": "signature",
          "type": "bytes"
        }
      ],
      "name": "burnFor",
      "outputs": [],
      "stateMutability": "nonpayable",
      "type": "function"
    },
    {
      "inputs": [
        {
          "internalType": "uint256",
          "name": "tokenId",
          "type": "uint256"
        },
        {
          "internalType": "string",
          "name": "label",
          "type": "string"
        }
      ],
      "name": "childIdOf",
      "outputs": [
        {
          "internalType": "uint256",
          "name": "",
          "type": "uint256"
        }
      ],
      "stateMutability": "pure",
      "type": "function"
    },
    {
      "inputs": [
        {
          "internalType": "uint256",
          "name": "tokenId",
          "type": "uint256"
        }
      ],
      "name": "depositToPolygon",
      "outputs": [],
      "stateMutability": "nonpayable",
      "type": "function"
    },
    {
      "inputs": [
        {
          "components": [
            {
              "internalType": "address",
              "name": "from",
              "type": "address"
            },
            {
              "internalType": "uint256",
              "name": "nonce",
              "type": "uint256"
            },
            {
              "internalType": "uint256",
              "name": "tokenId",
              "type": "uint256"
            },
            {
              "internalType": "bytes",
              "name": "data",
              "type": "bytes"
            }
          ],
          "internalType": "struct IForwarder.ForwardRequest",
          "name": "req",
          "type": "tuple"
        },
        {
          "internalType": "bytes",
          "name": "signature",
          "type": "bytes"
        }
      ],
      "name": "execute",
      "outputs": [
        {
          "internalType": "bytes",
          "name": "",
          "type": "bytes"
        }
      ],
      "stateMutability": "nonpayable",
      "type": "function"
    },
    {
      "inputs": [
        {
          "internalType": "uint256",
          "name": "tokenId",
          "type": "uint256"
        }
      ],
      "name": "exists",
      "outputs": [
        {
          "internalType": "bool",
          "name": "",
          "type": "bool"
        }
      ],
      "stateMutability": "view",
      "type": "function"
    },
    {
      "inputs": [
        {
          "internalType": "string",
          "name": "key",
          "type": "string"
        },
        {
          "internalType": "uint256",
          "name": "tokenId",
          "type": "uint256"
        }
      ],
      "name": "get",
      "outputs": [
        {
          "internalType": "string",
          "name": "value",
          "type": "string"
        }
      ],
      "stateMutability": "view",
      "type": "function"
    },
    {
      "inputs": [
        {
          "internalType": "uint256",
          "name": "tokenId",
          "type": "uint256"
        }
      ],
      "name": "getApproved",
      "outputs": [
        {
          "internalType": "address",
          "name": "",
          "type": "address"
        }
      ],
      "stateMutability": "view",
      "type": "function"
    },
    {
      "inputs": [
        {
          "internalType": "uint256",
          "name": "keyHash",
          "type": "uint256"
        },
        {
          "internalType": "uint256",
          "name": "tokenId",
          "type": "uint256"
        }
      ],
      "name": "getByHash",
      "outputs": [
        {
          "internalType": "string",
          "name": "key",
          "type": "string"
        },
        {
          "internalType": "string",
          "name": "value",
          "type": "string"
        }
      ],
      "stateMutability": "view",
      "type": "function"
    },
    {
      "inputs": [
        {
          "internalType": "uint256",
          "name": "keyHash",
          "type": "uint256"
        }
      ],
      "name": "getKey",
      "outputs": [
        {
          "internalType": "string",
          "name": "",
          "type": "string"
        }
      ],
      "stateMutability": "view",
      "type": "function"
    },
    {
      "inputs": [
        {
          "internalType": "uint256[]",
          "name": "hashes",
          "type": "uint256[]"
        }
      ],
      "name": "getKeys",
      "outputs": [
        {
          "internalType": "string[]",
          "name": "values",
          "type": "string[]"
        }
      ],
      "stateMutability": "view",
      "type": "function"
    },
    {
      "inputs": [
        {
          "internalType": "string[]",
          "name": "keys",
          "type": "string[]"
        },
        {
          "internalType": "uint256",
          "name": "tokenId",
          "type": "uint256"
        }
      ],
      "name": "getMany",
      "outputs": [
        {
          "internalType": "string[]",
          "name": "values",
          "type": "string[]"
        }
      ],
      "stateMutability": "view",
      "type": "function"
    },
    {
      "inputs": [
        {
          "internalType": "uint256[]",
          "name": "keyHashes",
          "type": "uint256[]"
        },
        {
          "internalType": "uint256",
          "name": "tokenId",
          "type": "uint256"
        }
      ],
      "name": "getManyByHash",
      "outputs": [
        {
          "internalType": "string[]",
          "name": "keys",
          "type": "string[]"
        },
        {
          "internalType": "string[]",
          "name": "values",
          "type": "string[]"
        }
      ],
      "stateMutability": "view",
      "type": "function"
    },
    {
      "inputs": [
        {
          "internalType": "address",
          "name": "mintingManager",
          "type": "address"
        }
      ],
      "name": "initialize",
      "outputs": [],
      "stateMutability": "nonpayable",
      "type": "function"
    },
    {
      "inputs": [
        {
          "internalType": "address",
          "name": "owner",
          "type": "address"
        },
        {
          "internalType": "address",
          "name": "operator",
          "type": "address"
        }
      ],
      "name": "isApprovedForAll",
      "outputs": [
        {
          "internalType": "bool",
          "name": "",
          "type": "bool"
        }
      ],
      "stateMutability": "view",
      "type": "function"
    },
    {
      "inputs": [
        {
          "internalType": "address",
          "name": "spender",
          "type": "address"
        },
        {
          "internalType": "uint256",
          "name": "tokenId",
          "type": "uint256"
        }
      ],
      "name": "isApprovedOrOwner",
      "outputs": [
        {
          "internalType": "bool",
          "name": "",
          "type": "bool"
        }
      ],
      "stateMutability": "view",
      "type": "function"
    },
    {
      "inputs": [
        {
          "internalType": "address",
          "name": "forwarder",
          "type": "address"
        }
      ],
      "name": "isTrustedForwarder",
      "outputs": [
        {
          "internalType": "bool",
          "name": "",
          "type": "bool"
        }
      ],
      "stateMutability": "view",
      "type": "function"
    },
    {
      "inputs": [
        {
          "internalType": "address",
          "name": "to",
          "type": "address"
        },
        {
          "internalType": "uint256",
          "name": "tokenId",
          "type": "uint256"
        },
        {
          "internalType": "string",
          "name": "uri",
          "type": "string"
        }
      ],
      "name": "mint",
      "outputs": [],
      "stateMutability": "nonpayable",
      "type": "function"
    },
    {
      "inputs": [
        {
          "internalType": "address",
          "name": "to",
          "type": "address"
        },
        {
          "internalType": "uint256",
          "name": "tokenId",
          "type": "uint256"
        },
        {
          "internalType": "string",
          "name": "uri",
          "type": "string"
        },
        {
          "internalType": "string[]",
          "name": "keys",
          "type": "string[]"
        },
        {
          "internalType": "string[]",
          "name": "values",
          "type": "string[]"
        }
      ],
      "name": "mintWithRecords",
      "outputs": [],
      "stateMutability": "nonpayable",
      "type": "function"
    },
    {
      "inputs": [],
      "name": "name",
      "outputs": [
        {
          "internalType": "string",
          "name": "",
          "type": "string"
        }
      ],
      "stateMutability": "view",
      "type": "function"
    },
    {
      "inputs": [
        {
          "internalType": "uint256",
          "name": "tokenId",
          "type": "uint256"
        }
      ],
      "name": "nonceOf",
      "outputs": [
        {
          "internalType": "uint256",
          "name": "",
          "type": "uint256"
        }
      ],
      "stateMutability": "view",
      "type": "function"
    },
    {
      "inputs": [
        {
          "internalType": "uint256",
          "name": "tokenId",
          "type": "uint256"
        }
      ],
      "name": "ownerOf",
      "outputs": [
        {
          "internalType": "address",
          "name": "",
          "type": "address"
        }
      ],
      "stateMutability": "view",
      "type": "function"
    },
    {
      "inputs": [
        {
          "internalType": "string[]",
          "name": "keys",
          "type": "string[]"
        },
        {
          "internalType": "string[]",
          "name": "values",
          "type": "string[]"
        },
        {
          "internalType": "uint256",
          "name": "tokenId",
          "type": "uint256"
        }
      ],
      "name": "reconfigure",
      "outputs": [],
      "stateMutability": "nonpayable",
      "type": "function"
    },
    {
      "inputs": [
        {
          "internalType": "string[]",
          "name": "keys",
          "type": "string[]"
        },
        {
          "internalType": "string[]",
          "name": "values",
          "type": "string[]"
        },
        {
          "internalType": "uint256",
          "name": "tokenId",
          "type": "uint256"
        },
        {
          "internalType": "bytes",
          "name": "signature",
          "type": "bytes"
        }
      ],
      "name": "reconfigureFor",
      "outputs": [],
      "stateMutability": "nonpayable",
      "type": "function"
    },
    {
      "inputs": [
        {
          "internalType": "uint256",
          "name": "tokenId",
          "type": "uint256"
        }
      ],
      "name": "reset",
      "outputs": [],
      "stateMutability": "nonpayable",
      "type": "function"
    },
    {
      "inputs": [
        {
          "internalType": "uint256",
          "name": "tokenId",
          "type": "uint256"
        },
        {
          "internalType": "bytes",
          "name": "signature",
          "type": "bytes"
        }
      ],
      "name": "resetFor",
      "outputs": [],
      "stateMutability": "nonpayable",
      "type": "function"
    },
    {
      "inputs": [
        {
          "internalType": "uint256",
          "name": "tokenId",
          "type": "uint256"
        }
      ],
      "name": "resolverOf",
      "outputs": [
        {
          "internalType": "address",
          "name": "",
          "type": "address"
        }
      ],
      "stateMutability": "view",
      "type": "function"
    },
    {
      "inputs": [],
      "name": "root",
      "outputs": [
        {
          "internalType": "uint256",
          "name": "",
          "type": "uint256"
        }
      ],
      "stateMutability": "pure",
      "type": "function"
    },
    {
      "inputs": [
        {
          "internalType": "address",
          "name": "to",
          "type": "address"
        },
        {
          "internalType": "uint256",
          "name": "tokenId",
          "type": "uint256"
        },
        {
          "internalType": "string",
          "name": "uri",
          "type": "string"
        },
        {
          "internalType": "bytes",
          "name": "data",
          "type": "bytes"
        }
      ],
      "name": "safeMint",
      "outputs": [],
      "stateMutability": "nonpayable",
      "type": "function"
    },
    {
      "inputs": [
        {
          "internalType": "address",
          "name": "to",
          "type": "address"
        },
        {
          "internalType": "uint256",
          "name": "tokenId",
          "type": "uint256"
        },
        {
          "internalType": "string",
          "name": "uri",
          "type": "string"
        }
      ],
      "name": "safeMint",
      "outputs": [],
      "stateMutability": "nonpayable",
      "type": "function"
    },
    {
      "inputs": [
        {
          "internalType": "address",
          "name": "to",
          "type": "address"
        },
        {
          "internalType": "uint256",
          "name": "tokenId",
          "type": "uint256"
        },
        {
          "internalType": "string",
          "name": "uri",
          "type": "string"
        },
        {
          "internalType": "string[]",
          "name": "keys",
          "type": "string[]"
        },
        {
          "internalType": "string[]",
          "name": "values",
          "type": "string[]"
        }
      ],
      "name": "safeMintWithRecords",
      "outputs": [],
      "stateMutability": "nonpayable",
      "type": "function"
    },
    {
      "inputs": [
        {
          "internalType": "address",
          "name": "to",
          "type": "address"
        },
        {
          "internalType": "uint256",
          "name": "tokenId",
          "type": "uint256"
        },
        {
          "internalType": "string",
          "name": "uri",
          "type": "string"
        },
        {
          "internalType": "string[]",
          "name": "keys",
          "type": "string[]"
        },
        {
          "internalType": "string[]",
          "name": "values",
          "type": "string[]"
        },
        {
          "internalType": "bytes",
          "name": "data",
          "type": "bytes"
        }
      ],
      "name": "safeMintWithRecords",
      "outputs": [],
      "stateMutability": "nonpayable",
      "type": "function"
    },
    {
      "inputs": [
        {
          "internalType": "address",
          "name": "from",
          "type": "address"
        },
        {
          "internalType": "address",
          "name": "to",
          "type": "address"
        },
        {
          "internalType": "uint256",
          "name": "tokenId",
          "type": "uint256"
        }
      ],
      "name": "safeTransferFrom",
      "outputs": [],
      "stateMutability": "nonpayable",
      "type": "function"
    },
    {
      "inputs": [
        {
          "internalType": "address",
          "name": "from",
          "type": "address"
        },
        {
          "internalType": "address",
          "name": "to",
          "type": "address"
        },
        {
          "internalType": "uint256",
          "name": "tokenId",
          "type": "uint256"
        },
        {
          "internalType": "bytes",
          "name": "data",
          "type": "bytes"
        }
      ],
      "name": "safeTransferFrom",
      "outputs": [],
      "stateMutability": "nonpayable",
      "type": "function"
    },
    {
      "inputs": [
        {
          "internalType": "address",
          "name": "from",
          "type": "address"
        },
        {
          "internalType": "address",
          "name": "to",
          "type": "address"
        },
        {
          "internalType": "uint256",
          "name": "tokenId",
          "type": "uint256"
        },
        {
          "internalType": "bytes",
          "name": "data",
          "type": "bytes"
        },
        {
          "internalType": "bytes",
          "name": "signature",
          "type": "bytes"
        }
      ],
      "name": "safeTransferFromFor",
      "outputs": [],
      "stateMutability": "nonpayable",
      "type": "function"
    },
    {
      "inputs": [
        {
          "internalType": "address",
          "name": "from",
          "type": "address"
        },
        {
          "internalType": "address",
          "name": "to",
          "type": "address"
        },
        {
          "internalType": "uint256",
          "name": "tokenId",
          "type": "uint256"
        },
        {
          "internalType": "bytes",
          "name": "signature",
          "type": "bytes"
        }
      ],
      "name": "safeTransferFromFor",
      "outputs": [],
      "stateMutability": "nonpayable",
      "type": "function"
    },
    {
      "inputs": [
        {
          "internalType": "string",
          "name": "key",
          "type": "string"
        },
        {
          "internalType": "string",
          "name": "value",
          "type": "string"
        },
        {
          "internalType": "uint256",
          "name": "tokenId",
          "type": "uint256"
        }
      ],
      "name": "set",
      "outputs": [],
      "stateMutability": "nonpayable",
      "type": "function"
    },
    {
      "inputs": [
        {
          "internalType": "address",
          "name": "operator",
          "type": "address"
        },
        {
          "internalType": "bool",
          "name": "approved",
          "type": "bool"
        }
      ],
      "name": "setApprovalForAll",
      "outputs": [],
      "stateMutability": "nonpayable",
      "type": "function"
    },
    {
      "inputs": [
        {
          "internalType": "uint256",
          "name": "keyHash",
          "type": "uint256"
        },
        {
          "internalType": "string",
          "name": "value",
          "type": "string"
        },
        {
          "internalType": "uint256",
          "name": "tokenId",
          "type": "uint256"
        }
      ],
      "name": "setByHash",
      "outputs": [],
      "stateMutability": "nonpayable",
      "type": "function"
    },
    {
      "inputs": [
        {
          "internalType": "string",
          "name": "key",
          "type": "string"
        },
        {
          "internalType": "string",
          "name": "value",
          "type": "string"
        },
        {
          "internalType": "uint256",
          "name": "tokenId",
          "type": "uint256"
        },
        {
          "internalType": "bytes",
          "name": "signature",
          "type": "bytes"
        }
      ],
      "name": "setFor",
      "outputs": [],
      "stateMutability": "nonpayable",
      "type": "function"
    },
    {
      "inputs": [
        {
          "internalType": "string[]",
          "name": "keys",
          "type": "string[]"
        },
        {
          "internalType": "string[]",
          "name": "values",
          "type": "string[]"
        },
        {
          "internalType": "uint256",
          "name": "tokenId",
          "type": "uint256"
        }
      ],
      "name": "setMany",
      "outputs": [],
      "stateMutability": "nonpayable",
      "type": "function"
    },
    {
      "inputs": [
        {
          "internalType": "uint256[]",
          "name": "keyHashes",
          "type": "uint256[]"
        },
        {
          "internalType": "string[]",
          "name": "values",
          "type": "string[]"
        },
        {
          "internalType": "uint256",
          "name": "tokenId",
          "type": "uint256"
        }
      ],
      "name": "setManyByHash",
      "outputs": [],
      "stateMutability": "nonpayable",
      "type": "function"
    },
    {
      "inputs": [
        {
          "internalType": "string[]",
          "name": "keys",
          "type": "string[]"
        },
        {
          "internalType": "string[]",
          "name": "values",
          "type": "string[]"
        },
        {
          "internalType": "uint256",
          "name": "tokenId",
          "type": "uint256"
        },
        {
          "internalType": "bytes",
          "name": "signature",
          "type": "bytes"
        }
      ],
      "name": "setManyFor",
      "outputs": [],
      "stateMutability": "nonpayable",
      "type": "function"
    },
    {
      "inputs": [
        {
          "internalType": "address",
          "name": "to",
          "type": "address"
        },
        {
          "internalType": "uint256",
          "name": "tokenId",
          "type": "uint256"
        }
      ],
      "name": "setOwner",
      "outputs": [],
      "stateMutability": "nonpayable",
      "type": "function"
    },
    {
      "inputs": [
        {
          "internalType": "address",
          "name": "rootChainManager",
          "type": "address"
        }
      ],
      "name": "setRootChainManager",
      "outputs": [],
      "stateMutability": "nonpayable",
      "type": "function"
    },
    {
      "inputs": [
        {
          "internalType": "string",
          "name": "prefix",
          "type": "string"
        }
      ],
      "name": "setTokenURIPrefix",
      "outputs": [],
      "stateMutability": "nonpayable",
      "type": "function"
    },
    {
      "inputs": [
        {
          "internalType": "bytes4",
          "name": "interfaceId",
          "type": "bytes4"
        }
      ],
      "name": "supportsInterface",
      "outputs": [
        {
          "internalType": "bool",
          "name": "",
          "type": "bool"
        }
      ],
      "stateMutability": "view",
      "type": "function"
    },
    {
      "inputs": [],
      "name": "symbol",
      "outputs": [
        {
          "internalType": "string",
          "name": "",
          "type": "string"
        }
      ],
      "stateMutability": "view",
      "type": "function"
    },
    {
      "inputs": [
        {
          "internalType": "uint256",
          "name": "tokenId",
          "type": "uint256"
        }
      ],
      "name": "tokenURI",
      "outputs": [
        {
          "internalType": "string",
          "name": "",
          "type": "string"
        }
      ],
      "stateMutability": "view",
      "type": "function"
    },
    {
      "inputs": [
        {
          "internalType": "address",
          "name": "from",
          "type": "address"
        },
        {
          "internalType": "address",
          "name": "to",
          "type": "address"
        },
        {
          "internalType": "uint256",
          "name": "tokenId",
          "type": "uint256"
        }
      ],
      "name": "transferFrom",
      "outputs": [],
      "stateMutability": "nonpayable",
      "type": "function"
    },
    {
      "inputs": [
        {
          "internalType": "address",
          "name": "from",
          "type": "address"
        },
        {
          "internalType": "address",
          "name": "to",
          "type": "address"
        },
        {
          "internalType": "uint256",
          "name": "tokenId",
          "type": "uint256"
        },
        {
          "internalType": "bytes",
          "name": "signature",
          "type": "bytes"
        }
      ],
      "name": "transferFromFor",
      "outputs": [],
      "stateMutability": "nonpayable",
      "type": "function"
    },
    {
      "inputs": [
        {
          "components": [
            {
              "internalType": "address",
              "name": "from",
              "type": "address"
            },
            {
              "internalType": "uint256",
              "name": "nonce",
              "type": "uint256"
            },
            {
              "internalType": "uint256",
              "name": "tokenId",
              "type": "uint256"
            },
            {
              "internalType": "bytes",
              "name": "data",
              "type": "bytes"
            }
          ],
          "internalType": "struct IForwarder.ForwardRequest",
          "name": "req",
          "type": "tuple"
        },
        {
          "internalType": "bytes",
          "name": "signature",
          "type": "bytes"
        }
      ],
      "name": "verify",
      "outputs": [
        {
          "internalType": "bool",
          "name": "",
          "type": "bool"
        }
      ],
      "stateMutability": "view",
      "type": "function"
    }
  ],
  "bytecode": "0x608060405234801561001057600080fd5b50614c88806100206000396000f3fe608060405234801561001057600080fd5b50600436106103835760003560e01c8063728a44d8116101de578063b88d4fde1161010f578063d3fc9864116100ad578063ef2c30881161007c578063ef2c3088146107b3578063efda4d3e146107c6578063f5c1f76e146107d9578063ffa1ad74146107ec57610383565b8063d3fc986414610772578063e985e9c514610785578063ebf0c71714610798578063ec129eea146107a057610383565b8063c5974073116100e9578063c597407314610726578063c87b56dd14610739578063cd279c7c1461074c578063ce92b33e1461075f57610383565b8063b88d4fde146106ed578063bb5b27e114610700578063c4d66de81461071357610383565b8063a42474001161017c578063b3f9e4cb11610156578063b3f9e4cb14610693578063b55bc617146106a6578063b85afd28146106b9578063b87abc11146106da57610383565b8063a42474001461065a578063ab3b87fe1461066d578063b0f591771461068057610383565b806399e0dd7c116101b857806399e0dd7c14610619578063a22cb4651461062c578063a3557e6c1461063f578063a3f4df7e1461065257610383565b8063728a44d8146105eb5780638f69c188146105fe57806395d89b411461061157610383565b80634348b562116102b85780636352211e1161025657806368b62d321161023057806368b62d32146105925780636ccbae5f146105b25780636debcb8d146105c557806370a08231146105d857610383565b80636352211e1461054b578063638e5c781461055e578063672b9f811461057157610383565b80634f558e79116102925780634f558e79146104ff57806350382c1a14610512578063572b6c051461052557806361603dd91461053857610383565b80634348b562146104c657806347c81699146104d95780634a72584d146104ec57610383565b806323b872dd11610325578063310bd74b116102ff578063310bd74b1461047a57806342842e0e1461048d57806342966c68146104a0578063430c2081146104b357610383565b806323b872dd1461044157806327f1897514610454578063280d9b051461046757610383565b8063095ea7b311610361578063095ea7b3146103e65780631bd8cc1a146103fb5780631be5e7ed1461041b5780631bf7e13e1461042e57610383565b806301ffc9a71461038857806306fdde03146103b1578063081812fc146103c6575b600080fd5b61039b610396366004613ced565b6107f4565b6040516103a89190614339565b60405180910390f35b6103b9610807565b6040516103a89190614362565b6103d96103d4366004613efc565b61089a565b6040516103a891906141f1565b6103f96103f43660046138c6565b6108e6565b005b61040e610409366004613c4d565b610938565b6040516103a89190614301565b6103b9610429366004613e16565b610a58565b6103b961043c366004613e90565b610aa3565b6103f961044f3660046136e1565b610b6e565b6103f9610462366004613b5e565b610bfa565b6103f9610475366004613791565b610c7b565b6103f9610488366004613efc565b610d17565b6103f961049b3660046136e1565b610d8b565b6103f96104ae366004613efc565b610da6565b61039b6104c13660046138c6565b610e23565b6103f96104d436600461394a565b610e2f565b6103f96104e7366004613d58565b610e94565b6103f96104fa366004613f50565b610f0c565b61039b61050d366004613efc565b610f8b565b6103f9610520366004613e4b565b610f96565b61039b610533366004613671565b610fcc565b6103f9610546366004613f14565b610fdd565b6103d9610559366004613efc565b611066565b6103f961056c366004613efc565b61109b565b61058461057f366004613fa0565b611294565b6040516103a89291906143b0565b6105a56105a0366004613f14565b6112ac565b6040516103a891906141da565b6105a56105c0366004613efc565b6112ee565b6103f96105d3366004613721565b611301565b6105a56105e6366004613671565b611323565b6103f96105f9366004613671565b611367565b6103f961060c366004613bce565b611404565b6103b961142a565b6103f9610627366004613d25565b611439565b6103f961063a366004613895565b6114bf565b6103f961064d366004613bce565b61158d565b6103b96115b3565b61039b610668366004613e90565b6115dc565b6103f961067b3660046138c6565b611627565b6103f961068e36600461394a565b6116ab565b6103d96106a1366004613efc565b611734565b6103f96106b4366004613ad6565b611751565b6106cc6106c7366004613c4d565b611801565b6040516103a8929190614314565b6103f96106e8366004613f14565b611969565b6103f96106fb36600461382c565b611987565b6103b961070e366004613efc565b611a07565b6103f9610721366004613671565b611aa9565b6103f9610734366004613db6565b611b97565b6103b9610747366004613efc565b611bbd565b6103f961075a3660046138f1565b611c3f565b6103f961076d366004613b5e565b611cc9565b6103f96107803660046138f1565b611d41565b61039b6107933660046136a9565b611dbd565b6105a5611deb565b6103f96107ae366004613b5e565b611df0565b6103f96107c1366004613721565b611e68565b6103f96107d43660046139fb565b611e8a565b61040e6107e7366004613c96565b611f18565b6103b9611ff5565b60006107ff82612016565b90505b919050565b60606065805461081690614ba4565b80601f016020809104026020016040519081016040528092919081815260200182805461084290614ba4565b801561088f5780601f106108645761010080835404028352916020019161088f565b820191906000526020600020905b81548152906001019060200180831161087257829003601f168201915b505050505090505b90565b60006108a582612056565b6108ca5760405162461bcd60e51b81526004016108c190614888565b60405180910390fd5b506000908152606960205260409020546001600160a01b031690565b806108f033610fcc565b15610920576108fd612073565b811461091b5760405162461bcd60e51b81526004016108c19061469c565b610929565b6109298161208d565b61093383836120bb565b505050565b6060826001600160401b0381111561096057634e487b7160e01b600052604160045260246000fd5b60405190808252806020026020018201604052801561099357816020015b606081526020019060019003908161097e5790505b50905060005b83811015610a5057610a128585838181106109c457634e487b7160e01b600052603260045260246000fd5b90506020028101906109d69190614a69565b8080601f01602080910402602001604051908101604052809392919081815260200183838082843760009201919091525087925061214e915050565b828281518110610a3257634e487b7160e01b600052603260045260246000fd5b60200260200101819052508080610a4890614bdf565b915050610999565b509392505050565b6060610a9b84848080601f01602080910402602001604051908101604052809392919081815260200183838082843760009201919091525086925061214e915050565b949350505050565b606060005a9050610ab58585856115dc565b610ad15760405162461bcd60e51b81526004016108c1906149b2565b610b63610ae16020870187613671565b30604088013584610af560608b018b614a69565b8080601f01602080910402602001604051908101604052809392919081815260200183838082843760009201919091525050604080516020601f8e018190048102820181019092528c815292508c91508b908190840183828082843760009201919091525061218392505050565b9150505b9392505050565b80610b80610b7a612272565b82612281565b610b9c5760405162461bcd60e51b81526004016108c190614443565b81610ba633610fcc565b15610bd657610bb3612073565b8114610bd15760405162461bcd60e51b81526004016108c19061469c565b610bdf565b610bdf8161208d565b610be8836122fe565b610bf3858585612369565b5050505050565b80610c06610b7a612272565b610c225760405162461bcd60e51b81526004016108c190614443565b81610c2c33610fcc565b15610c5c57610c39612073565b8114610c575760405162461bcd60e51b81526004016108c19061469c565b610c65565b610c658161208d565b610c728787878787612496565b50505050505050565b60005a9050610d0c63b88d4fde8989898989604051602401610ca1959493929190614255565b6040516020818303038152906040529060e01b6020820180516001600160e01b0383818316178352505050508785858080601f016020809104026020016040519081016040528093929190818152602001838380828437600092019190915250879250612515915050565b505050505050505050565b80610d23610b7a612272565b610d3f5760405162461bcd60e51b81526004016108c190614443565b81610d4933610fcc565b15610d7957610d56612073565b8114610d745760405162461bcd60e51b81526004016108c19061469c565b610d82565b610d828161208d565b610933836122fe565b61093383838360405180602001604052806000815250611987565b80610db2610b7a612272565b610dce5760405162461bcd60e51b81526004016108c190614443565b81610dd833610fcc565b15610e0857610de5612073565b8114610e035760405162461bcd60e51b81526004016108c19061469c565b610e11565b610e118161208d565b610e1a836122fe565b6109338361255a565b6000610b678383612281565b610134546001600160a01b0316610e44612272565b6001600160a01b031614610e6a5760405162461bcd60e51b81526004016108c190614609565b610e8a888888888888888860405180602001604052806000815250612601565b5050505050505050565b80610ea0610b7a612272565b610ebc5760405162461bcd60e51b81526004016108c190614443565b81610ec633610fcc565b15610ef657610ed3612073565b8114610ef15760405162461bcd60e51b81526004016108c19061469c565b610eff565b610eff8161208d565b610c728787878787612651565b80610f18610b7a612272565b610f345760405162461bcd60e51b81526004016108c190614443565b81610f3e33610fcc565b15610f6e57610f4b612073565b8114610f695760405162461bcd60e51b81526004016108c19061469c565b610f77565b610f778161208d565b610f8386868686612730565b505050505050565b60006107ff82612056565b610fc981604051602001610faa919061410f565b6040516020818303038152906040528051906020012060001c826127a0565b50565b6001600160a01b0381163014919050565b60005a9050610bf36342966c6885604051602401610ffb91906141da565b6040516020818303038152906040529060e01b6020820180516001600160e01b0383818316178352505050508585858080601f016020809104026020016040519081016040528093929190818152602001838380828437600092019190915250879250612515915050565b6000818152606760205260408120546001600160a01b0316806107ff5760405162461bcd60e51b81526004016108c19061477a565b806110a7610b7a612272565b6110c35760405162461bcd60e51b81526004016108c190614443565b60006110ee7fbe2bb46ac0377341a1ec5c3116d70fd5029d704bd46292e58f6265dd177ebafe610897565b5460405163721804d360e11b81526001600160a01b039091169150600090829063e43009a6906111229030906004016141f1565b60206040518083038186803b15801561113a57600080fd5b505afa15801561114e573d6000803e3d6000fd5b505050506040513d601f19601f820116820180604052508101906111729190613cd5565b90506000826001600160a01b031663e66f9603836040518263ffffffff1660e01b81526004016111a291906141da565b60206040518083038186803b1580156111ba57600080fd5b505afa1580156111ce573d6000803e3d6000fd5b505050506040513d601f19601f820116820180604052508101906111f2919061368d565b90506112066111ff612272565b3087612369565b61121081866127cc565b826001600160a01b031663e3dec8fb611227612272565b308860405160200161123991906141da565b6040516020818303038152906040526040518463ffffffff1660e01b815260040161126693929190614205565b600060405180830381600087803b15801561128057600080fd5b505af1158015610d0c573d6000803e3d6000fd5b6060806112a1848461283a565b909590945092505050565b6000610a9b8484848080601f01602080910402602001604051908101604052809392919081815260200183838082843760009201919091525061285b92505050565b6000908152610100602052604090205490565b60005a9050610c726342842e0e878787604051602401610ffb93929190614231565b60006001600160a01b03821661134b5760405162461bcd60e51b81526004016108c190614730565b506001600160a01b031660009081526068602052604090205490565b60006113927fbe2bb46ac0377341a1ec5c3116d70fd5029d704bd46292e58f6265dd177ebafe610897565b546001600160a01b0316146113b95760405162461bcd60e51b81526004016108c1906148d4565b806113e37fbe2bb46ac0377341a1ec5c3116d70fd5029d704bd46292e58f6265dd177ebafe610897565b80546001600160a01b0319166001600160a01b039290921691909117905550565b60005a9050610d0c63ce92b33e8989898989604051602401610ffb9594939291906142c7565b60606066805461081690614ba4565b610134546001600160a01b031661144e612272565b6001600160a01b0316146114745760405162461bcd60e51b81526004016108c190614609565b6114816101338383613448565b507f4b120d6a959a84a520fa48f5f937cca0e79129423487af7901213b5d2e89313b82826040516114b3929190614375565b60405180910390a15050565b6114c7612272565b6001600160a01b0316826001600160a01b031614156114f85760405162461bcd60e51b81526004016108c190614590565b80606a6000611505612272565b6001600160a01b03908116825260208083019390935260409182016000908120918716808252919093529120805460ff191692151592909217909155611549612272565b6001600160a01b03167f17307eab39ab6107e8899845ad3d59bd9653f200f220920489ca2b5937696c31836040516115819190614339565b60405180910390a35050565b60005a9050610d0c63ec129eea8989898989604051602401610ffb9594939291906142c7565b6040518060400160405280600d81526020016c554e533a20526567697374727960981b81525081565b6000610a9b6115ea85614af0565b3085858080601f0160208091040260200160405190810160405280939291908181526020018383808284376000920191909152506128d792505050565b80611633610b7a612272565b61164f5760405162461bcd60e51b81526004016108c190614443565b8161165933610fcc565b1561168957611666612073565b81146116845760405162461bcd60e51b81526004016108c19061469c565b611692565b6116928161208d565b6116a561169e84611066565b8585612369565b50505050565b610134546001600160a01b03166116c0612272565b6001600160a01b0316146116e65760405162461bcd60e51b81526004016108c190614609565b611727888888888080601f01602080910402602001604051908101604052809392919081815260200183838082843760009201919091525061299892505050565b610e8a848484848b6129df565b600061173f82612056565b61174a5760006107ff565b5030919050565b610134546001600160a01b0316611766612272565b6001600160a01b03161461178c5760405162461bcd60e51b81526004016108c190614609565b610f83868686868080601f01602080910402602001604051908101604052809392919081815260200183838082843760009201919091525050604080516020601f8a018190048102820181019092528881529250889150879081908401838280828437600092019190915250612a6992505050565b606080836001600160401b0381111561182a57634e487b7160e01b600052604160045260246000fd5b60405190808252806020026020018201604052801561185d57816020015b60608152602001906001900390816118485790505b509150836001600160401b0381111561188657634e487b7160e01b600052604160045260246000fd5b6040519080825280602002602001820160405280156118b957816020015b60608152602001906001900390816118a45790505b50905060005b84811015611960576118f78686838181106118ea57634e487b7160e01b600052603260045260246000fd5b905060200201358561283a565b84838151811061191757634e487b7160e01b600052603260045260246000fd5b6020026020010184848151811061193e57634e487b7160e01b600052603260045260246000fd5b602002602001018290528290525050808061195890614bdf565b9150506118bf565b50935093915050565b60005a9050610bf363310bd74b85604051602401610ffb91906141da565b81611993610b7a612272565b6119af5760405162461bcd60e51b81526004016108c190614443565b826119b933610fcc565b156119e9576119c6612073565b81146119e45760405162461bcd60e51b81526004016108c19061469c565b6119f2565b6119f28161208d565b6119fb846122fe565b610f8386868686612ab2565b600081815260c960205260409020805460609190611a2490614ba4565b80601f0160208091040260200160405190810160405280929190818152602001828054611a5090614ba4565b8015611a9d5780601f10611a7257610100808354040283529160200191611a9d565b820191906000526020600020905b815481529060010190602001808311611a8057829003601f168201915b50505050509050919050565b600054610100900460ff1680611ac2575060005460ff16155b611ade5760405162461bcd60e51b81526004016108c1906147c3565b600054610100900460ff16158015611b09576000805460ff1961ff0019909116610100171660011790555b61013480546001600160a01b0319166001600160a01b0384161790556040805180820182526013815272556e73746f707061626c6520446f6d61696e7360681b60208083019190915282518084019093526002835261155160f21b90830152611b7191612ae5565b611b79612b83565b611b81612b83565b8015611b93576000805461ff00191690555b5050565b60005a9050610d0c6347c816998989898989604051602401610ffb959493929190614389565b6060611bc882612056565b611be45760405162461bcd60e51b81526004016108c190614963565b6000611bee612bf7565b90506000815111611c0e5760405180602001604052806000815250610b67565b80611c1884612c07565b604051602001611c2992919061417a565b6040516020818303038152906040529392505050565b610134546001600160a01b0316611c54612272565b6001600160a01b031614611c7a5760405162461bcd60e51b81526004016108c190614609565b6116a5848484848080601f016020809104026020016040519081016040528093929190818152602001838380828437600092018290525060408051602081019091529081529250612a69915050565b80611cd5610b7a612272565b611cf15760405162461bcd60e51b81526004016108c190614443565b81611cfb33610fcc565b15611d2b57611d08612073565b8114611d265760405162461bcd60e51b81526004016108c19061469c565b611d34565b611d348161208d565b610c7287878787876129df565b610134546001600160a01b0316611d56612272565b6001600160a01b031614611d7c5760405162461bcd60e51b81526004016108c190614609565b6116a5848484848080601f01602080910402602001604051908101604052809392919081815260200183838082843760009201919091525061299892505050565b6001600160a01b039182166000908152606a6020908152604080832093909416825291909152205460ff1690565b600090565b80611dfc610b7a612272565b611e185760405162461bcd60e51b81526004016108c190614443565b81611e2233610fcc565b15611e5257611e2f612073565b8114611e4d5760405162461bcd60e51b81526004016108c19061469c565b611e5b565b611e5b8161208d565b610c728787878787612d21565b60005a9050610c726323b872dd878787604051602401610ffb93929190614231565b610134546001600160a01b0316611e9f612272565b6001600160a01b031614611ec55760405162461bcd60e51b81526004016108c190614609565b611f0c8a8a8a8a8a8a8a8a8a8a8080601f01602080910402602001604051908101604052809392919081815260200183838082843760009201919091525061260192505050565b50505050505050505050565b6060816001600160401b03811115611f4057634e487b7160e01b600052604160045260246000fd5b604051908082528060200260200182016040528015611f7357816020015b6060815260200190600190039081611f5e5790505b50905060005b82811015611fee57611fb0848483818110611fa457634e487b7160e01b600052603260045260246000fd5b90506020020135611a07565b828281518110611fd057634e487b7160e01b600052603260045260246000fd5b60200260200101819052508080611fe690614bdf565b915050611f79565b5092915050565b604051806040016040528060058152602001640302e322e360dc1b81525081565b60006001600160e01b031982166380ac58cd60e01b148061204757506001600160e01b03198216635b5e139f60e01b145b806107ff57506107ff82612d37565b6000908152606760205260409020546001600160a01b0316151590565b600061207e33610fcc565b156108975750601f1936013590565b600081815261010060205260409020546120a8906001614aad565b6000918252610100602052604090912055565b60006120c682611066565b9050806001600160a01b0316836001600160a01b031614156120fa5760405162461bcd60e51b81526004016108c1906149f9565b806001600160a01b031661210c612272565b6001600160a01b03161480612128575061212881610793612272565b6121445760405162461bcd60e51b81526004016108c1906146d3565b61093383836127cc565b6060610b6783604051602001612164919061410f565b6040516020818303038152906040528051906020012060001c83612d50565b606061218e8561208d565b600080876001600160a01b0316866121a88b8a8989612e0f565b6040516121b5919061410f565b60006040518083038160008787f1925050503d80600081146121f3576040519150601f19603f3d011682016040523d82523d6000602084013e6121f8565b606091505b509092509050612209603f87614ac5565b5a1161222557634e487b7160e01b600052600160045260246000fd5b61226582826040518060400160405280601a81526020017f42617365466f727761726465723a2043414c4c5f4641494c4544000000000000815250612e3f565b9998505050505050505050565b600061227c612e78565b905090565b600061228c82612056565b6122a85760405162461bcd60e51b81526004016108c190614650565b60006122b383611066565b9050806001600160a01b0316846001600160a01b031614806122ee5750836001600160a01b03166122e38461089a565b6001600160a01b0316145b80610a9b5750610a9b8185611dbd565b61230781612ea6565b60405160200161231791906141da565b60408051601f198184030181528282528051602091820120600085815260cb9092529181209190915582917f185c30856dadb58bf097c1f665a52ada7029752dbcad008ea3fefc73bee8c9fe9190a250565b826001600160a01b031661237c82611066565b6001600160a01b0316146123a25760405162461bcd60e51b81526004016108c19061491a565b6001600160a01b0382166123c85760405162461bcd60e51b81526004016108c19061454c565b6123d3838383610933565b6123de6000826127cc565b6001600160a01b0383166000908152606860205260408120805460019290612407908490614ad9565b90915550506001600160a01b0382166000908152606860205260408120805460019290612435908490614aad565b909155505060008181526067602052604080822080546001600160a01b0319166001600160a01b0386811691821790925591518493918716917fddf252ad1be2c89b69c2b068fc378daa952ba7f163c4a11628f55a4df523b3ef91a4505050565b60005b84811015610f83576125038686838181106124c457634e487b7160e01b600052603260045260246000fd5b905060200201358585848181106124eb57634e487b7160e01b600052603260045260246000fd5b90506020028101906124fd9190614a69565b85612730565b8061250d81614bdf565b915050612499565b6060600061254086805190602001203061010060008981526020019081526020016000205487612ed2565b9050612550813087868a89612183565b9695505050505050565b600061256582611066565b905061257381600084610933565b61257e6000836127cc565b6001600160a01b03811660009081526068602052604081208054600192906125a7908490614ad9565b909155505060008281526067602052604080822080546001600160a01b0319169055518391906001600160a01b038416907fddf252ad1be2c89b69c2b068fc378daa952ba7f163c4a11628f55a4df523b3ef908390a45050565b612644898989898080601f016020809104026020016040519081016040528093929190818152602001838380828437600092019190915250879250612a69915050565b610d0c858585858c6129df565b6000858560405160200161266692919061416a565b60408051601f198184030181528282528051602091820120601f89018290048202840182019092528783529092506126ba91839189908990819084018382808284376000920191909152506127a092505050565b610f838187878080601f01602080910402602001604051908101604052809392919081815260200183838082843760009201919091525050604080516020601f8b018190048102820181019092528981529250899150889081908401838280828437600092019190915250889250612f1a915050565b61273984613055565b6127555760405162461bcd60e51b81526004016108c1906144de565b6116a58461276286611a07565b85858080601f016020809104026020016040519081016040528093929190818152602001838380828437600092019190915250879250612f1a915050565b6127a982613055565b611b9357600082815260c9602090815260409091208251610933928401906134c8565b600081815260696020526040902080546001600160a01b0319166001600160a01b038416908117909155819061280182611066565b6001600160a01b03167f8c5be1e5ebec7d5bd14f71427d1e84f3dd0314c0f7b2291e5b200ac8c7c3b92560405160405180910390a45050565b60608061284684611a07565b91506128528484612d50565b90509250929050565b600081516000141561287f5760405162461bcd60e51b81526004016108c190614a3a565b8282604051602001612891919061410f565b604051602081830303815290604052805190602001206040516020016128b89291906141e3565b60408051601f1981840301815291905280516020909101209392505050565b6040808401519051636ccbae5f60e01b815260009182913091636ccbae5f9161290391906004016141da565b60206040518083038186803b15801561291b57600080fd5b505afa15801561292f573d6000803e3d6000fd5b505050506040513d601f19601f820116820180604052508101906129539190613cd5565b9050600061296e866060015180519060200120868487612ed2565b9050856020015182148015612550575085516001600160a01b038281169116149695505050505050565b6129a2838361307b565b817fc5beef08f693b11c316c0c8394a377a0033c9cf701b8cd8afd79cecef60c3952826040516129d29190614362565b60405180910390a2505050565b60005b84811015610f8357612a57868683818110612a0d57634e487b7160e01b600052603260045260246000fd5b9050602002810190612a1f9190614a69565b868685818110612a3f57634e487b7160e01b600052603260045260246000fd5b9050602002810190612a519190614a69565b86612651565b80612a6181614bdf565b9150506129e2565b612a7484848361315a565b827fc5beef08f693b11c316c0c8394a377a0033c9cf701b8cd8afd79cecef60c395283604051612aa49190614362565b60405180910390a250505050565b612abd848484612369565b612ac98484848461318d565b6116a55760405162461bcd60e51b81526004016108c19061448c565b600054610100900460ff1680612afe575060005460ff16155b612b1a5760405162461bcd60e51b81526004016108c1906147c3565b600054610100900460ff16158015612b45576000805460ff1961ff0019909116610100171660011790555b8251612b589060659060208601906134c8565b508151612b6c9060669060208501906134c8565b508015610933576000805461ff0019169055505050565b600054610100900460ff1680612b9c575060005460ff16155b612bb85760405162461bcd60e51b81526004016108c1906147c3565b600054610100900460ff16158015612be3576000805460ff1961ff0019909116610100171660011790555b8015610fc9576000805461ff001916905550565b6060610133805461081690614ba4565b606081612c2c57506040805180820190915260018152600360fc1b6020820152610802565b8160005b8115612c565780612c4081614bdf565b9150612c4f9050600a83614ac5565b9150612c30565b6000816001600160401b03811115612c7e57634e487b7160e01b600052604160045260246000fd5b6040519080825280601f01601f191660200182016040528015612ca8576020820181803683370190505b5090505b8415610a9b57612cbd600183614ad9565b9150612cca600a86614bfa565b612cd5906030614aad565b60f81b818381518110612cf857634e487b7160e01b600052603260045260246000fd5b60200101906001600160f81b031916908160001a905350612d1a600a86614ac5565b9450612cac565b612d2a816122fe565b610bf385858585856129df565b6001600160e01b031981166301ffc9a760e01b14919050565b606060ca6000612d5f84612ea6565b815260200190815260200160002060008481526020019081526020016000208054612d8990614ba4565b80601f0160208091040260200160405190810160405280929190818152602001828054612db590614ba4565b8015612e025780601f10612dd757610100808354040283529160200191612e02565b820191906000526020600020905b815481529060010190602001808311612de557829003601f168201915b5050505050905092915050565b6060828585604051602001612e269392919061412b565b6040516020818303038152906040529050949350505050565b60608315612e4e575081610b67565b825115612e5e5782518084602001fd5b8160405162461bcd60e51b81526004016108c19190614362565b6000612e8333610fcc565b15612e97575060331936013560601c610897565b612e9f6132a5565b9050610897565b600081815260cb602052604081205415612ece57600082815260cb60205260409020546107ff565b5090565b6000612f1182612f0b878787604051602001612ef0939291906140e7565b604051602081830303815290604052805190602001206132a9565b906132d9565b95945050505050565b60ca6000612f2783612ea6565b815260200190815260200160002060008581526020019081526020016000208054612f5190614ba4565b15159050612fa85782604051612f67919061410f565b6040518091039020817f7ae4f661958fbecc2f77be6b0eb280d2a6f604b29e1e7221c82b9da0c4af7f8685604051612f9f9190614362565b60405180910390a35b8160ca6000612fb684612ea6565b815260200190815260200160002060008681526020019081526020016000209080519060200190612fe89291906134c8565b5081604051612ff7919061410f565b60405180910390208360405161300d919061410f565b6040518091039020827f851ffe8e74d5015261dba0a1f9e1b0e5d42c5af5d2ad1908fee897c7d80a0d9286866040516130479291906143b0565b60405180910390a450505050565b600081815260c960205260408120805482919061307190614ba4565b9050119050919050565b6001600160a01b0382166130a15760405162461bcd60e51b81526004016108c190614853565b6130aa81612056565b156130c75760405162461bcd60e51b81526004016108c190614515565b6130d360008383610933565b6001600160a01b03821660009081526068602052604081208054600192906130fc908490614aad565b909155505060008181526067602052604080822080546001600160a01b0319166001600160a01b03861690811790915590518392907fddf252ad1be2c89b69c2b068fc378daa952ba7f163c4a11628f55a4df523b3ef908290a45050565b613164838361307b565b613171600084848461318d565b6109335760405162461bcd60e51b81526004016108c19061448c565b60006131a1846001600160a01b0316613355565b1561329d57836001600160a01b031663150b7a026131bd612272565b8786866040518563ffffffff1660e01b81526004016131df9493929190614294565b602060405180830381600087803b1580156131f957600080fd5b505af1925050508015613229575060408051601f3d908101601f1916820190925261322691810190613d09565b60015b613283573d808015613257576040519150601f19603f3d011682016040523d82523d6000602084013e61325c565b606091505b50805161327b5760405162461bcd60e51b81526004016108c19061448c565b805181602001fd5b6001600160e01b031916630a85bd0160e11b149050610a9b565b506001610a9b565b3390565b6000816040516020016132bc91906141a9565b604051602081830303815290604052805190602001209050919050565b6000806000808451604114156133035750505060208201516040830151606084015160001a613349565b8451604014156133315750505060408201516020830151906001600160ff1b0381169060ff1c601b01613349565b60405162461bcd60e51b81526004016108c19061440c565b6125508682858561335b565b3b151590565b60007f7fffffffffffffffffffffffffffffff5d576e7357a4501ddfe92f46681b20a082111561339d5760405162461bcd60e51b81526004016108c1906145c7565b8360ff16601b14806133b257508360ff16601c145b6133ce5760405162461bcd60e51b81526004016108c190614811565b6000600186868686604051600081526020016040526040516133f39493929190614344565b6020604051602081039080840390855afa158015613415573d6000803e3d6000fd5b5050604051601f1901519150506001600160a01b038116612f115760405162461bcd60e51b81526004016108c1906143d5565b82805461345490614ba4565b90600052602060002090601f01602090048101928261347657600085556134bc565b82601f1061348f5782800160ff198235161785556134bc565b828001600101855582156134bc579182015b828111156134bc5782358255916020019190600101906134a1565b50612ece92915061353c565b8280546134d490614ba4565b90600052602060002090601f0160209004810192826134f657600085556134bc565b82601f1061350f57805160ff19168380011785556134bc565b828001600101855582156134bc579182015b828111156134bc578251825591602001919060010190613521565b5b80821115612ece576000815560010161353d565b60006001600160401b038084111561356b5761356b614c3a565b604051601f8501601f19168101602001828111828210171561358f5761358f614c3a565b6040528481529150818385018610156135a757600080fd5b8484602083013760006020868301015250509392505050565b803561080281614c50565b60008083601f8401126135dc578182fd5b5081356001600160401b038111156135f2578182fd5b602083019150836020808302850101111561360c57600080fd5b9250929050565b60008083601f840112613624578182fd5b5081356001600160401b0381111561363a578182fd5b60208301915083602082850101111561360c57600080fd5b600082601f830112613662578081fd5b610b6783833560208501613551565b600060208284031215613682578081fd5b8135610b6781614c50565b60006020828403121561369e578081fd5b8151610b6781614c50565b600080604083850312156136bb578081fd5b82356136c681614c50565b915060208301356136d681614c50565b809150509250929050565b6000806000606084860312156136f5578081fd5b833561370081614c50565b9250602084013561371081614c50565b929592945050506040919091013590565b600080600080600060808688031215613738578081fd5b853561374381614c50565b9450602086013561375381614c50565b93506040860135925060608601356001600160401b03811115613774578182fd5b61378088828901613613565b969995985093965092949392505050565b600080600080600080600060a0888a0312156137ab578182fd5b87356137b681614c50565b965060208801356137c681614c50565b95506040880135945060608801356001600160401b03808211156137e8578384fd5b6137f48b838c01613613565b909650945060808a013591508082111561380c578384fd5b506138198a828b01613613565b989b979a50959850939692959293505050565b60008060008060808587031215613841578182fd5b843561384c81614c50565b9350602085013561385c81614c50565b92506040850135915060608501356001600160401b0381111561387d578182fd5b61388987828801613652565b91505092959194509250565b600080604083850312156138a7578182fd5b82356138b281614c50565b9150602083013580151581146136d6578182fd5b600080604083850312156138d8578182fd5b82356138e381614c50565b946020939093013593505050565b60008060008060608587031215613906578182fd5b843561391181614c50565b93506020850135925060408501356001600160401b03811115613932578283fd5b61393e87828801613613565b95989497509550505050565b60008060008060008060008060a0898b031215613965578182fd5b883561397081614c50565b97506020890135965060408901356001600160401b0380821115613992578384fd5b61399e8c838d01613613565b909850965060608b01359150808211156139b6578384fd5b6139c28c838d016135cb565b909650945060808b01359150808211156139da578384fd5b506139e78b828c016135cb565b999c989b5096995094979396929594505050565b60008060008060008060008060008060c08b8d031215613a19578384fd5b613a228b6135c0565b995060208b0135985060408b01356001600160401b0380821115613a44578586fd5b613a508e838f01613613565b909a50985060608d0135915080821115613a68578586fd5b613a748e838f016135cb565b909850965060808d0135915080821115613a8c578586fd5b613a988e838f016135cb565b909650945060a08d0135915080821115613ab0578384fd5b50613abd8d828e01613613565b915080935050809150509295989b9194979a5092959850565b60008060008060008060808789031215613aee578384fd5b8635613af981614c50565b95506020870135945060408701356001600160401b0380821115613b1b578586fd5b613b278a838b01613613565b90965094506060890135915080821115613b3f578384fd5b50613b4c89828a01613613565b979a9699509497509295939492505050565b600080600080600060608688031215613b75578283fd5b85356001600160401b0380821115613b8b578485fd5b613b9789838a016135cb565b90975095506020880135915080821115613baf578485fd5b50613bbc888289016135cb565b96999598509660400135949350505050565b60008060008060008060006080888a031215613be8578081fd5b87356001600160401b0380821115613bfe578283fd5b613c0a8b838c016135cb565b909950975060208a0135915080821115613c22578283fd5b613c2e8b838c016135cb565b909750955060408a0135945060608a013591508082111561380c578283fd5b600080600060408486031215613c61578081fd5b83356001600160401b03811115613c76578182fd5b613c82868287016135cb565b909790965060209590950135949350505050565b60008060208385031215613ca8578182fd5b82356001600160401b03811115613cbd578283fd5b613cc9858286016135cb565b90969095509350505050565b600060208284031215613ce6578081fd5b5051919050565b600060208284031215613cfe578081fd5b8135610b6781614c65565b600060208284031215613d1a578081fd5b8151610b6781614c65565b60008060208385031215613d37578182fd5b82356001600160401b03811115613d4c578283fd5b613cc985828601613613565b600080600080600060608688031215613d6f578283fd5b85356001600160401b0380821115613d85578485fd5b613d9189838a01613613565b90975095506020880135915080821115613da9578485fd5b50613bbc88828901613613565b60008060008060008060006080888a031215613dd0578081fd5b87356001600160401b0380821115613de6578283fd5b613df28b838c01613613565b909950975060208a0135915080821115613e0a578283fd5b613c2e8b838c01613613565b600080600060408486031215613e2a578081fd5b83356001600160401b03811115613e3f578182fd5b613c8286828701613613565b600060208284031215613e5c578081fd5b81356001600160401b03811115613e71578182fd5b8201601f81018413613e81578182fd5b610a9b84823560208401613551565b600080600060408486031215613ea4578081fd5b83356001600160401b0380821115613eba578283fd5b9085019060808288031215613ecd578283fd5b90935060208501359080821115613ee2578283fd5b50613eef86828701613613565b9497909650939450505050565b600060208284031215613f0d578081fd5b5035919050565b600080600060408486031215613f28578081fd5b8335925060208401356001600160401b03811115613f44578182fd5b613eef86828701613613565b60008060008060608587031215613f65578182fd5b8435935060208501356001600160401b03811115613f81578283fd5b613f8d87828801613613565b9598909750949560400135949350505050565b60008060408385031215613fb2578182fd5b50508035926020909101359150565b818352602080840193600091908185020181018584845b8781101561403e5782840389528135601e19883603018112613ff8578687fd5b870180356001600160401b0381111561400f578788fd5b80360389131561401d578788fd5b61402a8682898501614091565b9a87019a9550505090840190600101613fd8565b5091979650505050505050565b6000815180845260208085018081965082840281019150828601855b8581101561403e57828403895261407f8483516140bb565b98850198935090840190600101614067565b60008284528282602086013780602084860101526020601f19601f85011685010190509392505050565b600081518084526140d3816020860160208601614b78565b601f01601f19169290920160200192915050565b92835260609190911b6bffffffffffffffffffffffff19166020830152603482015260540190565b60008251614121818460208701614b78565b9190910192915050565b6000845161413d818460208901614b78565b60609490941b6bffffffffffffffffffffffff191691909301908152601481019190915260340192915050565b6000828483379101908152919050565b6000835161418c818460208801614b78565b8351908301906141a0818360208801614b78565b01949350505050565b7f19457468657265756d205369676e6564204d6573736167653a0a3332000000008152601c810191909152603c0190565b90815260200190565b918252602082015260400190565b6001600160a01b0391909116815260200190565b6001600160a01b03848116825283166020820152606060408201819052600090612f11908301846140bb565b6001600160a01b039384168152919092166020820152604081019190915260600190565b6001600160a01b03868116825285166020820152604081018490526080606082018190526000906142899083018486614091565b979650505050505050565b6001600160a01b0385811682528416602082015260408101839052608060608201819052600090612550908301846140bb565b6000606082526142db606083018789613fc1565b82810360208401526142ee818688613fc1565b9150508260408301529695505050505050565b600060208252610b67602083018461404b565b600060408252614327604083018561404b565b8281036020840152610b63818561404b565b901515815260200190565b93845260ff9290921660208401526040830152606082015260800190565b600060208252610b6760208301846140bb565b600060208252610a9b602083018486614091565b60006060825261439d606083018789614091565b82810360208401526142ee818688614091565b6000604082526143c360408301856140bb565b8281036020840152610b6381856140bb565b60208082526018908201527f45434453413a20696e76616c6964207369676e61747572650000000000000000604082015260600190565b6020808252601f908201527f45434453413a20696e76616c6964207369676e6174757265206c656e67746800604082015260600190565b60208082526029908201527f52656769737472793a2053454e4445525f49535f4e4f545f415050524f5645446040820152682fa7a92fa7aba722a960b91b606082015260800190565b60208082526032908201527f4552433732313a207472616e7366657220746f206e6f6e20455243373231526560408201527131b2b4bb32b91034b6b83632b6b2b73a32b960711b606082015260800190565b6020808252601c908201527f5265636f726453746f726167653a204b45595f4e4f545f464f554e4400000000604082015260600190565b6020808252601c908201527f4552433732313a20746f6b656e20616c7265616479206d696e74656400000000604082015260600190565b60208082526024908201527f4552433732313a207472616e7366657220746f20746865207a65726f206164646040820152637265737360e01b606082015260800190565b60208082526019908201527f4552433732313a20617070726f766520746f2063616c6c657200000000000000604082015260600190565b60208082526022908201527f45434453413a20696e76616c6964207369676e6174757265202773272076616c604082015261756560f01b606082015260800190565b60208082526027908201527f52656769737472793a2053454e4445525f49535f4e4f545f4d494e54494e475f60408201526626a0a720a3a2a960c91b606082015260800190565b6020808252602c908201527f4552433732313a206f70657261746f7220717565727920666f72206e6f6e657860408201526b34b9ba32b73a103a37b5b2b760a11b606082015260800190565b60208082526017908201527f52656769737472793a20544f4b454e5f494e56414c4944000000000000000000604082015260600190565b60208082526038908201527f4552433732313a20617070726f76652063616c6c6572206973206e6f74206f7760408201527f6e6572206e6f7220617070726f76656420666f7220616c6c0000000000000000606082015260800190565b6020808252602a908201527f4552433732313a2062616c616e636520717565727920666f7220746865207a65604082015269726f206164647265737360b01b606082015260800190565b60208082526029908201527f4552433732313a206f776e657220717565727920666f72206e6f6e657869737460408201526832b73a103a37b5b2b760b91b606082015260800190565b6020808252602e908201527f496e697469616c697a61626c653a20636f6e747261637420697320616c72656160408201526d191e481a5b9a5d1a585b1a5e995960921b606082015260800190565b60208082526022908201527f45434453413a20696e76616c6964207369676e6174757265202776272076616c604082015261756560f01b606082015260800190565b6020808252818101527f4552433732313a206d696e7420746f20746865207a65726f2061646472657373604082015260600190565b6020808252602c908201527f4552433732313a20617070726f76656420717565727920666f72206e6f6e657860408201526b34b9ba32b73a103a37b5b2b760a11b606082015260800190565b60208082526026908201527f52656769737472793a20524f4f545f434841494e5f4d414e454745525f4e4f546040820152655f454d50545960d01b606082015260800190565b60208082526029908201527f4552433732313a207472616e73666572206f6620746f6b656e2074686174206960408201526839903737ba1037bbb760b91b606082015260800190565b6020808252602f908201527f4552433732314d657461646174613a2055524920717565727920666f72206e6f60408201526e3732bc34b9ba32b73a103a37b5b2b760891b606082015260800190565b60208082526027908201527f554e535265676973747279466f727761726465723a205349474e41545552455f6040820152661253959053125160ca1b606082015260800190565b60208082526021908201527f4552433732313a20617070726f76616c20746f2063757272656e74206f776e656040820152603960f91b606082015260800190565b60208082526015908201527452656769737472793a204c4142454c5f454d50545960581b604082015260600190565b6000808335601e19843603018112614a7f578283fd5b8301803591506001600160401b03821115614a98578283fd5b60200191503681900382131561360c57600080fd5b60008219821115614ac057614ac0614c0e565b500190565b600082614ad457614ad4614c24565b500490565b600082821015614aeb57614aeb614c0e565b500390565b600060808236031215614b01578081fd5b604051608081016001600160401b038282108183111715614b2457614b24614c3a565b8160405284359150614b3582614c50565b81835260208501356020840152604085013560408401526060850135915080821115614b5f578384fd5b50614b6c36828601613652565b60608301525092915050565b60005b83811015614b93578181015183820152602001614b7b565b838111156116a55750506000910152565b600281046001821680614bb857607f821691505b60208210811415614bd957634e487b7160e01b600052602260045260246000fd5b50919050565b6000600019821415614bf357614bf3614c0e565b5060010190565b600082614c0957614c09614c24565b500690565b634e487b7160e01b600052601160045260246000fd5b634e487b7160e01b600052601260045260246000fd5b634e487b7160e01b600052604160045260246000fd5b6001600160a01b0381168114610fc957600080fd5b6001600160e01b031981168114610fc957600080fdfea164736f6c6343000800000a",
  "linkReferences": {},
  "deployedLinkReferences": {}
}