{
  "_format": "hh-sol-artifact-1",
  "contractName": "UNSRegistry",
  "sourceName": "contracts/UNSRegistry.sol",
  "abi": [
    {
      "anonymous": false,
      "inputs": [
        {
          "indexed": false,
          "internalType": "address",
          "name": "previousAdmin",
          "type": "address"
        },
        {
          "indexed": false,
          "internalType": "address",
          "name": "newAdmin",
          "type": "address"
        }
      ],
      "name": "AdminChanged",
      "type": "event"
    },
    {
      "anonymous": false,
      "inputs": [
        {
          "indexed": true,
          "internalType": "address",
          "name": "owner",
          "type": "address"
        },
        {
          "indexed": true,
          "internalType": "address",
          "name": "approved",
          "type": "address"
        },
        {
          "indexed": true,
          "internalType": "uint256",
          "name": "tokenId",
          "type": "uint256"
        }
      ],
      "name": "Approval",
      "type": "event"
    },
    {
      "anonymous": false,
      "inputs": [
        {
          "indexed": true,
          "internalType": "address",
          "name": "owner",
          "type": "address"
        },
        {
          "indexed": true,
          "internalType": "address",
          "name": "operator",
          "type": "address"
        },
        {
          "indexed": false,
          "internalType": "bool",
          "name": "approved",
          "type": "bool"
        }
      ],
      "name": "ApprovalForAll",
      "type": "event"
    },
    {
      "anonymous": false,
      "inputs": [
        {
          "indexed": true,
          "internalType": "uint256",
          "name": "tokenId",
          "type": "uint256"
        },
        {
          "indexed": true,
          "internalType": "string",
          "name": "keyIndex",
          "type": "string"
        },
        {
          "indexed": false,
          "internalType": "string",
          "name": "key",
          "type": "string"
        }
      ],
      "name": "NewKey",
      "type": "event"
    },
    {
      "anonymous": false,
      "inputs": [
        {
          "indexed": true,
          "internalType": "uint256",
          "name": "tokenId",
          "type": "uint256"
        },
        {
          "indexed": false,
          "internalType": "string",
          "name": "uri",
          "type": "string"
        }
      ],
      "name": "NewURI",
      "type": "event"
    },
    {
      "anonymous": false,
      "inputs": [
        {
          "indexed": false,
          "internalType": "string",
          "name": "prefix",
          "type": "string"
        }
      ],
      "name": "NewURIPrefix",
      "type": "event"
    },
    {
      "anonymous": false,
      "inputs": [
        {
          "indexed": true,
          "internalType": "uint256",
          "name": "tokenId",
          "type": "uint256"
        }
      ],
      "name": "ResetRecords",
      "type": "event"
    },
    {
      "anonymous": false,
      "inputs": [
        {
          "indexed": true,
          "internalType": "uint256",
          "name": "tokenId",
          "type": "uint256"
        },
        {
          "indexed": true,
          "internalType": "string",
          "name": "keyIndex",
          "type": "string"
        },
        {
          "indexed": true,
          "internalType": "string",
          "name": "valueIndex",
          "type": "string"
        },
        {
          "indexed": false,
          "internalType": "string",
          "name": "key",
          "type": "string"
        },
        {
          "indexed": false,
          "internalType": "string",
          "name": "value",
          "type": "string"
        }
      ],
      "name": "Set",
      "type": "event"
    },
    {
      "anonymous": false,
      "inputs": [
        {
          "indexed": true,
          "internalType": "address",
          "name": "from",
          "type": "address"
        },
        {
          "indexed": true,
          "internalType": "address",
          "name": "to",
          "type": "address"
        },
        {
          "indexed": true,
          "internalType": "uint256",
          "name": "tokenId",
          "type": "uint256"
        }
      ],
      "name": "Transfer",
      "type": "event"
    },
    {
      "anonymous": false,
      "inputs": [
        {
          "indexed": true,
          "internalType": "address",
          "name": "implementation",
          "type": "address"
        }
      ],
      "name": "Upgraded",
      "type": "event"
    },
    {
      "inputs": [],
      "name": "NAME",
      "outputs": [
        {
          "internalType": "string",
          "name": "",
          "type": "string"
        }
      ],
      "stateMutability": "view",
      "type": "function"
    },
    {
      "inputs": [],
      "name": "VERSION",
      "outputs": [
        {
          "internalType": "string",
          "name": "",
          "type": "string"
        }
      ],
      "stateMutability": "view",
      "type": "function"
    },
    {
      "inputs": [
        {
          "internalType": "string",
          "name": "key",
          "type": "string"
        }
      ],
      "name": "addKey",
      "outputs": [],
      "stateMutability": "nonpayable",
      "type": "function"
    },
    {
      "inputs": [
        {
          "internalType": "address",
          "name": "to",
          "type": "address"
        },
        {
          "internalType": "uint256",
          "name": "tokenId",
          "type": "uint256"
        }
      ],
      "name": "approve",
      "outputs": [],
      "stateMutability": "nonpayable",
      "type": "function"
    },
    {
      "inputs": [
        {
          "internalType": "address",
          "name": "owner",
          "type": "address"
        }
      ],
      "name": "balanceOf",
      "outputs": [
        {
          "internalType": "uint256",
          "name": "",
          "type": "uint256"
        }
      ],
      "stateMutability": "view",
      "type": "function"
    },
    {
      "inputs": [
        {
          "internalType": "uint256",
          "name": "tokenId",
          "type": "uint256"
        }
      ],
      "name": "burn",
      "outputs": [],
      "stateMutability": "nonpayable",
      "type": "function"
    },
    {
      "inputs": [
        {
          "internalType": "uint256",
          "name": "tokenId",
          "type": "uint256"
        },
        {
          "internalType": "bytes",
          "name": "signature",
          "type": "bytes"
        }
      ],
      "name": "burnFor",
      "outputs": [],
      "stateMutability": "nonpayable",
      "type": "function"
    },
    {
      "inputs": [
        {
          "internalType": "uint256",
          "name": "tokenId",
          "type": "uint256"
        },
        {
          "internalType": "string",
          "name": "label",
          "type": "string"
        }
      ],
      "name": "childIdOf",
      "outputs": [
        {
          "internalType": "uint256",
          "name": "",
          "type": "uint256"
        }
      ],
      "stateMutability": "pure",
      "type": "function"
    },
    {
      "inputs": [
        {
          "internalType": "uint256",
          "name": "tokenId",
          "type": "uint256"
        }
      ],
      "name": "depositToPolygon",
      "outputs": [],
      "stateMutability": "nonpayable",
      "type": "function"
    },
    {
      "inputs": [
        {
          "components": [
            {
              "internalType": "address",
              "name": "from",
              "type": "address"
            },
            {
              "internalType": "uint256",
              "name": "nonce",
              "type": "uint256"
            },
            {
              "internalType": "uint256",
              "name": "tokenId",
              "type": "uint256"
            },
            {
              "internalType": "bytes",
              "name": "data",
              "type": "bytes"
            }
          ],
          "internalType": "struct IForwarder.ForwardRequest",
          "name": "req",
          "type": "tuple"
        },
        {
          "internalType": "bytes",
          "name": "signature",
          "type": "bytes"
        }
      ],
      "name": "execute",
      "outputs": [
        {
          "internalType": "bytes",
          "name": "",
          "type": "bytes"
        }
      ],
      "stateMutability": "nonpayable",
      "type": "function"
    },
    {
      "inputs": [
        {
          "internalType": "uint256",
          "name": "tokenId",
          "type": "uint256"
        }
      ],
      "name": "exists",
      "outputs": [
        {
          "internalType": "bool",
          "name": "",
          "type": "bool"
        }
      ],
      "stateMutability": "view",
      "type": "function"
    },
    {
      "inputs": [
        {
          "internalType": "string",
          "name": "key",
          "type": "string"
        },
        {
          "internalType": "uint256",
          "name": "tokenId",
          "type": "uint256"
        }
      ],
      "name": "get",
      "outputs": [
        {
          "internalType": "string",
          "name": "value",
          "type": "string"
        }
      ],
      "stateMutability": "view",
      "type": "function"
    },
    {
      "inputs": [
        {
          "internalType": "uint256",
          "name": "tokenId",
          "type": "uint256"
        }
      ],
      "name": "getApproved",
      "outputs": [
        {
          "internalType": "address",
          "name": "",
          "type": "address"
        }
      ],
      "stateMutability": "view",
      "type": "function"
    },
    {
      "inputs": [
        {
          "internalType": "uint256",
          "name": "keyHash",
          "type": "uint256"
        },
        {
          "internalType": "uint256",
          "name": "tokenId",
          "type": "uint256"
        }
      ],
      "name": "getByHash",
      "outputs": [
        {
          "internalType": "string",
          "name": "key",
          "type": "string"
        },
        {
          "internalType": "string",
          "name": "value",
          "type": "string"
        }
      ],
      "stateMutability": "view",
      "type": "function"
    },
    {
      "inputs": [
        {
          "internalType": "uint256",
          "name": "keyHash",
          "type": "uint256"
        }
      ],
      "name": "getKey",
      "outputs": [
        {
          "internalType": "string",
          "name": "",
          "type": "string"
        }
      ],
      "stateMutability": "view",
      "type": "function"
    },
    {
      "inputs": [
        {
          "internalType": "uint256[]",
          "name": "hashes",
          "type": "uint256[]"
        }
      ],
      "name": "getKeys",
      "outputs": [
        {
          "internalType": "string[]",
          "name": "values",
          "type": "string[]"
        }
      ],
      "stateMutability": "view",
      "type": "function"
    },
    {
      "inputs": [
        {
          "internalType": "string[]",
          "name": "keys",
          "type": "string[]"
        },
        {
          "internalType": "uint256",
          "name": "tokenId",
          "type": "uint256"
        }
      ],
      "name": "getMany",
      "outputs": [
        {
          "internalType": "string[]",
          "name": "values",
          "type": "string[]"
        }
      ],
      "stateMutability": "view",
      "type": "function"
    },
    {
      "inputs": [
        {
          "internalType": "uint256[]",
          "name": "keyHashes",
          "type": "uint256[]"
        },
        {
          "internalType": "uint256",
          "name": "tokenId",
          "type": "uint256"
        }
      ],
      "name": "getManyByHash",
      "outputs": [
        {
          "internalType": "string[]",
          "name": "keys",
          "type": "string[]"
        },
        {
          "internalType": "string[]",
          "name": "values",
          "type": "string[]"
        }
      ],
      "stateMutability": "view",
      "type": "function"
    },
    {
      "inputs": [
        {
          "internalType": "address",
          "name": "mintingManager",
          "type": "address"
        }
      ],
      "name": "initialize",
      "outputs": [],
      "stateMutability": "nonpayable",
      "type": "function"
    },
    {
      "inputs": [
        {
          "internalType": "address",
          "name": "owner",
          "type": "address"
        },
        {
          "internalType": "address",
          "name": "operator",
          "type": "address"
        }
      ],
      "name": "isApprovedForAll",
      "outputs": [
        {
          "internalType": "bool",
          "name": "",
          "type": "bool"
        }
      ],
      "stateMutability": "view",
      "type": "function"
    },
    {
      "inputs": [
        {
          "internalType": "address",
          "name": "spender",
          "type": "address"
        },
        {
          "internalType": "uint256",
          "name": "tokenId",
          "type": "uint256"
        }
      ],
      "name": "isApprovedOrOwner",
      "outputs": [
        {
          "internalType": "bool",
          "name": "",
          "type": "bool"
        }
      ],
      "stateMutability": "view",
      "type": "function"
    },
    {
      "inputs": [
        {
          "internalType": "address",
          "name": "forwarder",
          "type": "address"
        }
      ],
      "name": "isTrustedForwarder",
      "outputs": [
        {
          "internalType": "bool",
          "name": "",
          "type": "bool"
        }
      ],
      "stateMutability": "view",
      "type": "function"
    },
    {
      "inputs": [
        {
          "internalType": "address",
          "name": "to",
          "type": "address"
        },
        {
          "internalType": "uint256",
          "name": "tokenId",
          "type": "uint256"
        },
        {
          "internalType": "string",
          "name": "uri",
          "type": "string"
        }
      ],
      "name": "mint",
      "outputs": [],
      "stateMutability": "nonpayable",
      "type": "function"
    },
    {
      "inputs": [
        {
          "internalType": "address",
          "name": "to",
          "type": "address"
        },
        {
          "internalType": "uint256",
          "name": "tokenId",
          "type": "uint256"
        },
        {
          "internalType": "string",
          "name": "uri",
          "type": "string"
        },
        {
          "internalType": "string[]",
          "name": "keys",
          "type": "string[]"
        },
        {
          "internalType": "string[]",
          "name": "values",
          "type": "string[]"
        }
      ],
      "name": "mintWithRecords",
      "outputs": [],
      "stateMutability": "nonpayable",
      "type": "function"
    },
    {
      "inputs": [],
      "name": "name",
      "outputs": [
        {
          "internalType": "string",
          "name": "",
          "type": "string"
        }
      ],
      "stateMutability": "view",
      "type": "function"
    },
    {
      "inputs": [
        {
          "internalType": "uint256",
          "name": "tokenId",
          "type": "uint256"
        }
      ],
      "name": "nonceOf",
      "outputs": [
        {
          "internalType": "uint256",
          "name": "",
          "type": "uint256"
        }
      ],
      "stateMutability": "view",
      "type": "function"
    },
    {
      "inputs": [
        {
          "internalType": "uint256",
          "name": "tokenId",
          "type": "uint256"
        }
      ],
      "name": "ownerOf",
      "outputs": [
        {
          "internalType": "address",
          "name": "",
          "type": "address"
        }
      ],
      "stateMutability": "view",
      "type": "function"
    },
    {
      "inputs": [
        {
          "internalType": "string[]",
          "name": "keys",
          "type": "string[]"
        },
        {
          "internalType": "string[]",
          "name": "values",
          "type": "string[]"
        },
        {
          "internalType": "uint256",
          "name": "tokenId",
          "type": "uint256"
        }
      ],
      "name": "reconfigure",
      "outputs": [],
      "stateMutability": "nonpayable",
      "type": "function"
    },
    {
      "inputs": [
        {
          "internalType": "string[]",
          "name": "keys",
          "type": "string[]"
        },
        {
          "internalType": "string[]",
          "name": "values",
          "type": "string[]"
        },
        {
          "internalType": "uint256",
          "name": "tokenId",
          "type": "uint256"
        },
        {
          "internalType": "bytes",
          "name": "signature",
          "type": "bytes"
        }
      ],
      "name": "reconfigureFor",
      "outputs": [],
      "stateMutability": "nonpayable",
      "type": "function"
    },
    {
      "inputs": [
        {
          "internalType": "uint256",
          "name": "tokenId",
          "type": "uint256"
        }
      ],
      "name": "reset",
      "outputs": [],
      "stateMutability": "nonpayable",
      "type": "function"
    },
    {
      "inputs": [
        {
          "internalType": "uint256",
          "name": "tokenId",
          "type": "uint256"
        },
        {
          "internalType": "bytes",
          "name": "signature",
          "type": "bytes"
        }
      ],
      "name": "resetFor",
      "outputs": [],
      "stateMutability": "nonpayable",
      "type": "function"
    },
    {
      "inputs": [
        {
          "internalType": "uint256",
          "name": "tokenId",
          "type": "uint256"
        }
      ],
      "name": "resolverOf",
      "outputs": [
        {
          "internalType": "address",
          "name": "",
          "type": "address"
        }
      ],
      "stateMutability": "view",
      "type": "function"
    },
    {
      "inputs": [],
      "name": "root",
      "outputs": [
        {
          "internalType": "uint256",
          "name": "",
          "type": "uint256"
        }
      ],
      "stateMutability": "pure",
      "type": "function"
    },
    {
      "inputs": [
        {
          "internalType": "address",
          "name": "to",
          "type": "address"
        },
        {
          "internalType": "uint256",
          "name": "tokenId",
          "type": "uint256"
        },
        {
          "internalType": "string",
          "name": "uri",
          "type": "string"
        },
        {
          "internalType": "bytes",
          "name": "data",
          "type": "bytes"
        }
      ],
      "name": "safeMint",
      "outputs": [],
      "stateMutability": "nonpayable",
      "type": "function"
    },
    {
      "inputs": [
        {
          "internalType": "address",
          "name": "to",
          "type": "address"
        },
        {
          "internalType": "uint256",
          "name": "tokenId",
          "type": "uint256"
        },
        {
          "internalType": "string",
          "name": "uri",
          "type": "string"
        }
      ],
      "name": "safeMint",
      "outputs": [],
      "stateMutability": "nonpayable",
      "type": "function"
    },
    {
      "inputs": [
        {
          "internalType": "address",
          "name": "to",
          "type": "address"
        },
        {
          "internalType": "uint256",
          "name": "tokenId",
          "type": "uint256"
        },
        {
          "internalType": "string",
          "name": "uri",
          "type": "string"
        },
        {
          "internalType": "string[]",
          "name": "keys",
          "type": "string[]"
        },
        {
          "internalType": "string[]",
          "name": "values",
          "type": "string[]"
        }
      ],
      "name": "safeMintWithRecords",
      "outputs": [],
      "stateMutability": "nonpayable",
      "type": "function"
    },
    {
      "inputs": [
        {
          "internalType": "address",
          "name": "to",
          "type": "address"
        },
        {
          "internalType": "uint256",
          "name": "tokenId",
          "type": "uint256"
        },
        {
          "internalType": "string",
          "name": "uri",
          "type": "string"
        },
        {
          "internalType": "string[]",
          "name": "keys",
          "type": "string[]"
        },
        {
          "internalType": "string[]",
          "name": "values",
          "type": "string[]"
        },
        {
          "internalType": "bytes",
          "name": "data",
          "type": "bytes"
        }
      ],
      "name": "safeMintWithRecords",
      "outputs": [],
      "stateMutability": "nonpayable",
      "type": "function"
    },
    {
      "inputs": [
        {
          "internalType": "address",
          "name": "from",
          "type": "address"
        },
        {
          "internalType": "address",
          "name": "to",
          "type": "address"
        },
        {
          "internalType": "uint256",
          "name": "tokenId",
          "type": "uint256"
        }
      ],
      "name": "safeTransferFrom",
      "outputs": [],
      "stateMutability": "nonpayable",
      "type": "function"
    },
    {
      "inputs": [
        {
          "internalType": "address",
          "name": "from",
          "type": "address"
        },
        {
          "internalType": "address",
          "name": "to",
          "type": "address"
        },
        {
          "internalType": "uint256",
          "name": "tokenId",
          "type": "uint256"
        },
        {
          "internalType": "bytes",
          "name": "data",
          "type": "bytes"
        }
      ],
      "name": "safeTransferFrom",
      "outputs": [],
      "stateMutability": "nonpayable",
      "type": "function"
    },
    {
      "inputs": [
        {
          "internalType": "address",
          "name": "from",
          "type": "address"
        },
        {
          "internalType": "address",
          "name": "to",
          "type": "address"
        },
        {
          "internalType": "uint256",
          "name": "tokenId",
          "type": "uint256"
        },
        {
          "internalType": "bytes",
          "name": "data",
          "type": "bytes"
        },
        {
          "internalType": "bytes",
          "name": "signature",
          "type": "bytes"
        }
      ],
      "name": "safeTransferFromFor",
      "outputs": [],
      "stateMutability": "nonpayable",
      "type": "function"
    },
    {
      "inputs": [
        {
          "internalType": "address",
          "name": "from",
          "type": "address"
        },
        {
          "internalType": "address",
          "name": "to",
          "type": "address"
        },
        {
          "internalType": "uint256",
          "name": "tokenId",
          "type": "uint256"
        },
        {
          "internalType": "bytes",
          "name": "signature",
          "type": "bytes"
        }
      ],
      "name": "safeTransferFromFor",
      "outputs": [],
      "stateMutability": "nonpayable",
      "type": "function"
    },
    {
      "inputs": [
        {
          "internalType": "string",
          "name": "key",
          "type": "string"
        },
        {
          "internalType": "string",
          "name": "value",
          "type": "string"
        },
        {
          "internalType": "uint256",
          "name": "tokenId",
          "type": "uint256"
        }
      ],
      "name": "set",
      "outputs": [],
      "stateMutability": "nonpayable",
      "type": "function"
    },
    {
      "inputs": [
        {
          "internalType": "address",
          "name": "operator",
          "type": "address"
        },
        {
          "internalType": "bool",
          "name": "approved",
          "type": "bool"
        }
      ],
      "name": "setApprovalForAll",
      "outputs": [],
      "stateMutability": "nonpayable",
      "type": "function"
    },
    {
      "inputs": [
        {
          "internalType": "uint256",
          "name": "keyHash",
          "type": "uint256"
        },
        {
          "internalType": "string",
          "name": "value",
          "type": "string"
        },
        {
          "internalType": "uint256",
          "name": "tokenId",
          "type": "uint256"
        }
      ],
      "name": "setByHash",
      "outputs": [],
      "stateMutability": "nonpayable",
      "type": "function"
    },
    {
      "inputs": [
        {
          "internalType": "string",
          "name": "key",
          "type": "string"
        },
        {
          "internalType": "string",
          "name": "value",
          "type": "string"
        },
        {
          "internalType": "uint256",
          "name": "tokenId",
          "type": "uint256"
        },
        {
          "internalType": "bytes",
          "name": "signature",
          "type": "bytes"
        }
      ],
      "name": "setFor",
      "outputs": [],
      "stateMutability": "nonpayable",
      "type": "function"
    },
    {
      "inputs": [
        {
          "internalType": "string[]",
          "name": "keys",
          "type": "string[]"
        },
        {
          "internalType": "string[]",
          "name": "values",
          "type": "string[]"
        },
        {
          "internalType": "uint256",
          "name": "tokenId",
          "type": "uint256"
        }
      ],
      "name": "setMany",
      "outputs": [],
      "stateMutability": "nonpayable",
      "type": "function"
    },
    {
      "inputs": [
        {
          "internalType": "uint256[]",
          "name": "keyHashes",
          "type": "uint256[]"
        },
        {
          "internalType": "string[]",
          "name": "values",
          "type": "string[]"
        },
        {
          "internalType": "uint256",
          "name": "tokenId",
          "type": "uint256"
        }
      ],
      "name": "setManyByHash",
      "outputs": [],
      "stateMutability": "nonpayable",
      "type": "function"
    },
    {
      "inputs": [
        {
          "internalType": "string[]",
          "name": "keys",
          "type": "string[]"
        },
        {
          "internalType": "string[]",
          "name": "values",
          "type": "string[]"
        },
        {
          "internalType": "uint256",
          "name": "tokenId",
          "type": "uint256"
        },
        {
          "internalType": "bytes",
          "name": "signature",
          "type": "bytes"
        }
      ],
      "name": "setManyFor",
      "outputs": [],
      "stateMutability": "nonpayable",
      "type": "function"
    },
    {
      "inputs": [
        {
          "internalType": "address",
          "name": "to",
          "type": "address"
        },
        {
          "internalType": "uint256",
          "name": "tokenId",
          "type": "uint256"
        }
      ],
      "name": "setOwner",
      "outputs": [],
      "stateMutability": "nonpayable",
      "type": "function"
    },
    {
      "inputs": [
        {
          "internalType": "address",
          "name": "rootChainManager",
          "type": "address"
        }
      ],
      "name": "setRootChainManager",
      "outputs": [],
      "stateMutability": "nonpayable",
      "type": "function"
    },
    {
      "inputs": [
        {
          "internalType": "string",
          "name": "prefix",
          "type": "string"
        }
      ],
      "name": "setTokenURIPrefix",
      "outputs": [],
      "stateMutability": "nonpayable",
      "type": "function"
    },
    {
      "inputs": [
        {
          "internalType": "bytes4",
          "name": "interfaceId",
          "type": "bytes4"
        }
      ],
      "name": "supportsInterface",
      "outputs": [
        {
          "internalType": "bool",
          "name": "",
          "type": "bool"
        }
      ],
      "stateMutability": "view",
      "type": "function"
    },
    {
      "inputs": [],
      "name": "symbol",
      "outputs": [
        {
          "internalType": "string",
          "name": "",
          "type": "string"
        }
      ],
      "stateMutability": "view",
      "type": "function"
    },
    {
      "inputs": [
        {
          "internalType": "uint256",
          "name": "tokenId",
          "type": "uint256"
        }
      ],
      "name": "tokenURI",
      "outputs": [
        {
          "internalType": "string",
          "name": "",
          "type": "string"
        }
      ],
      "stateMutability": "view",
      "type": "function"
    },
    {
      "inputs": [
        {
          "internalType": "address",
          "name": "from",
          "type": "address"
        },
        {
          "internalType": "address",
          "name": "to",
          "type": "address"
        },
        {
          "internalType": "uint256",
          "name": "tokenId",
          "type": "uint256"
        }
      ],
      "name": "transferFrom",
      "outputs": [],
      "stateMutability": "nonpayable",
      "type": "function"
    },
    {
      "inputs": [
        {
          "internalType": "address",
          "name": "from",
          "type": "address"
        },
        {
          "internalType": "address",
          "name": "to",
          "type": "address"
        },
        {
          "internalType": "uint256",
          "name": "tokenId",
          "type": "uint256"
        },
        {
          "internalType": "bytes",
          "name": "signature",
          "type": "bytes"
        }
      ],
      "name": "transferFromFor",
      "outputs": [],
      "stateMutability": "nonpayable",
      "type": "function"
    },
    {
      "inputs": [
        {
          "components": [
            {
              "internalType": "address",
              "name": "from",
              "type": "address"
            },
            {
              "internalType": "uint256",
              "name": "nonce",
              "type": "uint256"
            },
            {
              "internalType": "uint256",
              "name": "tokenId",
              "type": "uint256"
            },
            {
              "internalType": "bytes",
              "name": "data",
              "type": "bytes"
            }
          ],
          "internalType": "struct IForwarder.ForwardRequest",
          "name": "req",
          "type": "tuple"
        },
        {
          "internalType": "bytes",
          "name": "signature",
          "type": "bytes"
        }
      ],
      "name": "verify",
      "outputs": [
        {
          "internalType": "bool",
          "name": "",
          "type": "bool"
        }
      ],
      "stateMutability": "view",
      "type": "function"
    }
  ],
  "bytecode": "0x608060405234801561001057600080fd5b50614bf0806100206000396000f3fe608060405234801561001057600080fd5b50600436106103835760003560e01c8063728a44d8116101de578063b88d4fde1161010f578063d3fc9864116100ad578063ef2c30881161007c578063ef2c3088146107b3578063efda4d3e146107c6578063f5c1f76e146107d9578063ffa1ad74146107ec57610383565b8063d3fc986414610772578063e985e9c514610785578063ebf0c71714610798578063ec129eea146107a057610383565b8063c5974073116100e9578063c597407314610726578063c87b56dd14610739578063cd279c7c1461074c578063ce92b33e1461075f57610383565b8063b88d4fde146106ed578063bb5b27e114610700578063c4d66de81461071357610383565b8063a42474001161017c578063b3f9e4cb11610156578063b3f9e4cb14610693578063b55bc617146106a6578063b85afd28146106b9578063b87abc11146106da57610383565b8063a42474001461065a578063ab3b87fe1461066d578063b0f591771461068057610383565b806399e0dd7c116101b857806399e0dd7c14610619578063a22cb4651461062c578063a3557e6c1461063f578063a3f4df7e1461065257610383565b8063728a44d8146105eb5780638f69c188146105fe57806395d89b411461061157610383565b80634348b562116102b85780636352211e1161025657806368b62d321161023057806368b62d32146105925780636ccbae5f146105b25780636debcb8d146105c557806370a08231146105d857610383565b80636352211e1461054b578063638e5c781461055e578063672b9f811461057157610383565b80634f558e79116102925780634f558e79146104ff57806350382c1a14610512578063572b6c051461052557806361603dd91461053857610383565b80634348b562146104c657806347c81699146104d95780634a72584d146104ec57610383565b806323b872dd11610325578063310bd74b116102ff578063310bd74b1461047a57806342842e0e1461048d57806342966c68146104a0578063430c2081146104b357610383565b806323b872dd1461044157806327f1897514610454578063280d9b051461046757610383565b8063095ea7b311610361578063095ea7b3146103e65780631bd8cc1a146103fb5780631be5e7ed1461041b5780631bf7e13e1461042e57610383565b806301ffc9a71461038857806306fdde03146103b1578063081812fc146103c6575b600080fd5b61039b610396366004613c9b565b6107f4565b6040516103a891906142e7565b60405180910390f35b6103b9610807565b6040516103a89190614310565b6103d96103d4366004613eaa565b61089a565b6040516103a8919061419f565b6103f96103f4366004613874565b6108e6565b005b61040e610409366004613bfb565b610938565b6040516103a891906142af565b6103b9610429366004613dc4565b610a58565b6103b961043c366004613e3e565b610aa3565b6103f961044f36600461368f565b610b6e565b6103f9610462366004613b0c565b610bfa565b6103f961047536600461373f565b610c7b565b6103f9610488366004613eaa565b610d17565b6103f961049b36600461368f565b610d8b565b6103f96104ae366004613eaa565b610da6565b61039b6104c1366004613874565b610e23565b6103f96104d43660046138f8565b610e2f565b6103f96104e7366004613d06565b610e94565b6103f96104fa366004613efe565b610f0c565b61039b61050d366004613eaa565b610f8b565b6103f9610520366004613df9565b610f96565b61039b61053336600461361f565b610fcc565b6103f9610546366004613ec2565b610fdd565b6103d9610559366004613eaa565b611066565b6103f961056c366004613eaa565b61109b565b61058461057f366004613f4e565b611294565b6040516103a892919061435e565b6105a56105a0366004613ec2565b6112ac565b6040516103a89190614188565b6105a56105c0366004613eaa565b6112ee565b6103f96105d33660046136cf565b611301565b6105a56105e636600461361f565b611323565b6103f96105f936600461361f565b611367565b6103f961060c366004613b7c565b6113b2565b6103b96113d8565b6103f9610627366004613cd3565b6113e7565b6103f961063a366004613843565b61146d565b6103f961064d366004613b7c565b61153b565b6103b9611561565b61039b610668366004613e3e565b61158a565b6103f961067b366004613874565b6115d5565b6103f961068e3660046138f8565b611659565b6103d96106a1366004613eaa565b6116e2565b6103f96106b4366004613a84565b6116ff565b6106cc6106c7366004613bfb565b6117af565b6040516103a89291906142c2565b6103f96106e8366004613ec2565b611917565b6103f96106fb3660046137da565b611935565b6103b961070e366004613eaa565b6119b5565b6103f961072136600461361f565b611a57565b6103f9610734366004613d64565b611b45565b6103b9610747366004613eaa565b611b6b565b6103f961075a36600461389f565b611bed565b6103f961076d366004613b0c565b611c77565b6103f961078036600461389f565b611cef565b61039b610793366004613657565b611d6b565b6105a5611d99565b6103f96107ae366004613b0c565b611d9e565b6103f96107c13660046136cf565b611e16565b6103f96107d43660046139a9565b611e38565b61040e6107e7366004613c44565b611ec6565b6103b9611fa3565b60006107ff82611fc4565b90505b919050565b60606065805461081690614b0c565b80601f016020809104026020016040519081016040528092919081815260200182805461084290614b0c565b801561088f5780601f106108645761010080835404028352916020019161088f565b820191906000526020600020905b81548152906001019060200180831161087257829003601f168201915b505050505090505b90565b60006108a582612004565b6108ca5760405162461bcd60e51b81526004016108c190614836565b60405180910390fd5b506000908152606960205260409020546001600160a01b031690565b806108f033610fcc565b15610920576108fd612021565b811461091b5760405162461bcd60e51b81526004016108c19061464a565b610929565b6109298161203b565b6109338383612069565b505050565b6060826001600160401b0381111561096057634e487b7160e01b600052604160045260246000fd5b60405190808252806020026020018201604052801561099357816020015b606081526020019060019003908161097e5790505b50905060005b83811015610a5057610a128585838181106109c457634e487b7160e01b600052603260045260246000fd5b90506020028101906109d691906149d1565b8080601f0160208091040260200160405190810160405280939291908181526020018383808284376000920191909152508792506120fc915050565b828281518110610a3257634e487b7160e01b600052603260045260246000fd5b60200260200101819052508080610a4890614b47565b915050610999565b509392505050565b6060610a9b84848080601f0160208091040260200160405190810160405280939291908181526020018383808284376000920191909152508692506120fc915050565b949350505050565b606060005a9050610ab585858561158a565b610ad15760405162461bcd60e51b81526004016108c19061491a565b610b63610ae1602087018761361f565b30604088013584610af560608b018b6149d1565b8080601f01602080910402602001604051908101604052809392919081815260200183838082843760009201919091525050604080516020601f8e018190048102820181019092528c815292508c91508b908190840183828082843760009201919091525061213192505050565b9150505b9392505050565b80610b80610b7a612220565b8261222f565b610b9c5760405162461bcd60e51b81526004016108c1906143f1565b81610ba633610fcc565b15610bd657610bb3612021565b8114610bd15760405162461bcd60e51b81526004016108c19061464a565b610bdf565b610bdf8161203b565b610be8836122ac565b610bf3858585612317565b5050505050565b80610c06610b7a612220565b610c225760405162461bcd60e51b81526004016108c1906143f1565b81610c2c33610fcc565b15610c5c57610c39612021565b8114610c575760405162461bcd60e51b81526004016108c19061464a565b610c65565b610c658161203b565b610c728787878787612444565b50505050505050565b60005a9050610d0c63b88d4fde8989898989604051602401610ca1959493929190614203565b6040516020818303038152906040529060e01b6020820180516001600160e01b0383818316178352505050508785858080601f0160208091040260200160405190810160405280939291908181526020018383808284376000920191909152508792506124c3915050565b505050505050505050565b80610d23610b7a612220565b610d3f5760405162461bcd60e51b81526004016108c1906143f1565b81610d4933610fcc565b15610d7957610d56612021565b8114610d745760405162461bcd60e51b81526004016108c19061464a565b610d82565b610d828161203b565b610933836122ac565b61093383838360405180602001604052806000815250611935565b80610db2610b7a612220565b610dce5760405162461bcd60e51b81526004016108c1906143f1565b81610dd833610fcc565b15610e0857610de5612021565b8114610e035760405162461bcd60e51b81526004016108c19061464a565b610e11565b610e118161203b565b610e1a836122ac565b61093383612508565b6000610b67838361222f565b610134546001600160a01b0316610e44612220565b6001600160a01b031614610e6a5760405162461bcd60e51b81526004016108c1906145b7565b610e8a8888888888888888604051806020016040528060008152506125af565b5050505050505050565b80610ea0610b7a612220565b610ebc5760405162461bcd60e51b81526004016108c1906143f1565b81610ec633610fcc565b15610ef657610ed3612021565b8114610ef15760405162461bcd60e51b81526004016108c19061464a565b610eff565b610eff8161203b565b610c7287878787876125ff565b80610f18610b7a612220565b610f345760405162461bcd60e51b81526004016108c1906143f1565b81610f3e33610fcc565b15610f6e57610f4b612021565b8114610f695760405162461bcd60e51b81526004016108c19061464a565b610f77565b610f778161203b565b610f83868686866126de565b505050505050565b60006107ff82612004565b610fc981604051602001610faa91906140bd565b6040516020818303038152906040528051906020012060001c8261274e565b50565b6001600160a01b0381163014919050565b60005a9050610bf36342966c6885604051602401610ffb9190614188565b6040516020818303038152906040529060e01b6020820180516001600160e01b0383818316178352505050508585858080601f0160208091040260200160405190810160405280939291908181526020018383808284376000920191909152508792506124c3915050565b6000818152606760205260408120546001600160a01b0316806107ff5760405162461bcd60e51b81526004016108c190614728565b806110a7610b7a612220565b6110c35760405162461bcd60e51b81526004016108c1906143f1565b60006110ee7fbe2bb46ac0377341a1ec5c3116d70fd5029d704bd46292e58f6265dd177ebafe610897565b5460405163721804d360e11b81526001600160a01b039091169150600090829063e43009a69061112290309060040161419f565b60206040518083038186803b15801561113a57600080fd5b505afa15801561114e573d6000803e3d6000fd5b505050506040513d601f19601f820116820180604052508101906111729190613c83565b90506000826001600160a01b031663e66f9603836040518263ffffffff1660e01b81526004016111a29190614188565b60206040518083038186803b1580156111ba57600080fd5b505afa1580156111ce573d6000803e3d6000fd5b505050506040513d601f19601f820116820180604052508101906111f2919061363b565b90506112066111ff612220565b3087612317565b611210818661277a565b826001600160a01b031663e3dec8fb611227612220565b30886040516020016112399190614188565b6040516020818303038152906040526040518463ffffffff1660e01b8152600401611266939291906141b3565b600060405180830381600087803b15801561128057600080fd5b505af1158015610d0c573d6000803e3d6000fd5b6060806112a184846127e8565b909590945092505050565b6000610a9b8484848080601f01602080910402602001604051908101604052809392919081815260200183838082843760009201919091525061280992505050565b6000908152610100602052604090205490565b60005a9050610c726342842e0e878787604051602401610ffb939291906141df565b60006001600160a01b03821661134b5760405162461bcd60e51b81526004016108c1906146de565b506001600160a01b031660009081526068602052604090205490565b806113917fbe2bb46ac0377341a1ec5c3116d70fd5029d704bd46292e58f6265dd177ebafe610897565b80546001600160a01b0319166001600160a01b039290921691909117905550565b60005a9050610d0c63ce92b33e8989898989604051602401610ffb959493929190614275565b60606066805461081690614b0c565b610134546001600160a01b03166113fc612220565b6001600160a01b0316146114225760405162461bcd60e51b81526004016108c1906145b7565b61142f61013383836133f6565b507f4b120d6a959a84a520fa48f5f937cca0e79129423487af7901213b5d2e89313b8282604051611461929190614323565b60405180910390a15050565b611475612220565b6001600160a01b0316826001600160a01b031614156114a65760405162461bcd60e51b81526004016108c19061453e565b80606a60006114b3612220565b6001600160a01b03908116825260208083019390935260409182016000908120918716808252919093529120805460ff1916921515929092179091556114f7612220565b6001600160a01b03167f17307eab39ab6107e8899845ad3d59bd9653f200f220920489ca2b5937696c318360405161152f91906142e7565b60405180910390a35050565b60005a9050610d0c63ec129eea8989898989604051602401610ffb959493929190614275565b6040518060400160405280600d81526020016c554e533a20526567697374727960981b81525081565b6000610a9b61159885614a58565b3085858080601f01602080910402602001604051908101604052809392919081815260200183838082843760009201919091525061288592505050565b806115e1610b7a612220565b6115fd5760405162461bcd60e51b81526004016108c1906143f1565b8161160733610fcc565b1561163757611614612021565b81146116325760405162461bcd60e51b81526004016108c19061464a565b611640565b6116408161203b565b61165361164c84611066565b8585612317565b50505050565b610134546001600160a01b031661166e612220565b6001600160a01b0316146116945760405162461bcd60e51b81526004016108c1906145b7565b6116d5888888888080601f01602080910402602001604051908101604052809392919081815260200183838082843760009201919091525061294692505050565b610e8a848484848b61298d565b60006116ed82612004565b6116f85760006107ff565b5030919050565b610134546001600160a01b0316611714612220565b6001600160a01b03161461173a5760405162461bcd60e51b81526004016108c1906145b7565b610f83868686868080601f01602080910402602001604051908101604052809392919081815260200183838082843760009201919091525050604080516020601f8a018190048102820181019092528881529250889150879081908401838280828437600092019190915250612a1792505050565b606080836001600160401b038111156117d857634e487b7160e01b600052604160045260246000fd5b60405190808252806020026020018201604052801561180b57816020015b60608152602001906001900390816117f65790505b509150836001600160401b0381111561183457634e487b7160e01b600052604160045260246000fd5b60405190808252806020026020018201604052801561186757816020015b60608152602001906001900390816118525790505b50905060005b8481101561190e576118a586868381811061189857634e487b7160e01b600052603260045260246000fd5b90506020020135856127e8565b8483815181106118c557634e487b7160e01b600052603260045260246000fd5b602002602001018484815181106118ec57634e487b7160e01b600052603260045260246000fd5b602002602001018290528290525050808061190690614b47565b91505061186d565b50935093915050565b60005a9050610bf363310bd74b85604051602401610ffb9190614188565b81611941610b7a612220565b61195d5760405162461bcd60e51b81526004016108c1906143f1565b8261196733610fcc565b1561199757611974612021565b81146119925760405162461bcd60e51b81526004016108c19061464a565b6119a0565b6119a08161203b565b6119a9846122ac565b610f8386868686612a60565b600081815260c9602052604090208054606091906119d290614b0c565b80601f01602080910402602001604051908101604052809291908181526020018280546119fe90614b0c565b8015611a4b5780601f10611a2057610100808354040283529160200191611a4b565b820191906000526020600020905b815481529060010190602001808311611a2e57829003601f168201915b50505050509050919050565b600054610100900460ff1680611a70575060005460ff16155b611a8c5760405162461bcd60e51b81526004016108c190614771565b600054610100900460ff16158015611ab7576000805460ff1961ff0019909116610100171660011790555b61013480546001600160a01b0319166001600160a01b0384161790556040805180820182526013815272556e73746f707061626c6520446f6d61696e7360681b60208083019190915282518084019093526002835261155160f21b90830152611b1f91612a93565b611b27612b31565b611b2f612b31565b8015611b41576000805461ff00191690555b5050565b60005a9050610d0c6347c816998989898989604051602401610ffb959493929190614337565b6060611b7682612004565b611b925760405162461bcd60e51b81526004016108c1906148cb565b6000611b9c612ba5565b90506000815111611bbc5760405180602001604052806000815250610b67565b80611bc684612bb5565b604051602001611bd7929190614128565b6040516020818303038152906040529392505050565b610134546001600160a01b0316611c02612220565b6001600160a01b031614611c285760405162461bcd60e51b81526004016108c1906145b7565b611653848484848080601f016020809104026020016040519081016040528093929190818152602001838380828437600092018290525060408051602081019091529081529250612a17915050565b80611c83610b7a612220565b611c9f5760405162461bcd60e51b81526004016108c1906143f1565b81611ca933610fcc565b15611cd957611cb6612021565b8114611cd45760405162461bcd60e51b81526004016108c19061464a565b611ce2565b611ce28161203b565b610c72878787878761298d565b610134546001600160a01b0316611d04612220565b6001600160a01b031614611d2a5760405162461bcd60e51b81526004016108c1906145b7565b611653848484848080601f01602080910402602001604051908101604052809392919081815260200183838082843760009201919091525061294692505050565b6001600160a01b039182166000908152606a6020908152604080832093909416825291909152205460ff1690565b600090565b80611daa610b7a612220565b611dc65760405162461bcd60e51b81526004016108c1906143f1565b81611dd033610fcc565b15611e0057611ddd612021565b8114611dfb5760405162461bcd60e51b81526004016108c19061464a565b611e09565b611e098161203b565b610c728787878787612ccf565b60005a9050610c726323b872dd878787604051602401610ffb939291906141df565b610134546001600160a01b0316611e4d612220565b6001600160a01b031614611e735760405162461bcd60e51b81526004016108c1906145b7565b611eba8a8a8a8a8a8a8a8a8a8a8080601f0160208091040260200160405190810160405280939291908181526020018383808284376000920191909152506125af92505050565b50505050505050505050565b6060816001600160401b03811115611eee57634e487b7160e01b600052604160045260246000fd5b604051908082528060200260200182016040528015611f2157816020015b6060815260200190600190039081611f0c5790505b50905060005b82811015611f9c57611f5e848483818110611f5257634e487b7160e01b600052603260045260246000fd5b905060200201356119b5565b828281518110611f7e57634e487b7160e01b600052603260045260246000fd5b60200260200101819052508080611f9490614b47565b915050611f27565b5092915050565b604051806040016040528060058152602001640302e322e360dc1b81525081565b60006001600160e01b031982166380ac58cd60e01b1480611ff557506001600160e01b03198216635b5e139f60e01b145b806107ff57506107ff82612ce5565b6000908152606760205260409020546001600160a01b0316151590565b600061202c33610fcc565b156108975750601f1936013590565b60008181526101006020526040902054612056906001614a15565b6000918252610100602052604090912055565b600061207482611066565b9050806001600160a01b0316836001600160a01b031614156120a85760405162461bcd60e51b81526004016108c190614961565b806001600160a01b03166120ba612220565b6001600160a01b031614806120d657506120d681610793612220565b6120f25760405162461bcd60e51b81526004016108c190614681565b610933838361277a565b6060610b678360405160200161211291906140bd565b6040516020818303038152906040528051906020012060001c83612cfe565b606061213c8561203b565b600080876001600160a01b0316866121568b8a8989612dbd565b60405161216391906140bd565b60006040518083038160008787f1925050503d80600081146121a1576040519150601f19603f3d011682016040523d82523d6000602084013e6121a6565b606091505b5090925090506121b7603f87614a2d565b5a116121d357634e487b7160e01b600052600160045260246000fd5b61221382826040518060400160405280601a81526020017f42617365466f727761726465723a2043414c4c5f4641494c4544000000000000815250612ded565b9998505050505050505050565b600061222a612e26565b905090565b600061223a82612004565b6122565760405162461bcd60e51b81526004016108c1906145fe565b600061226183611066565b9050806001600160a01b0316846001600160a01b0316148061229c5750836001600160a01b03166122918461089a565b6001600160a01b0316145b80610a9b5750610a9b8185611d6b565b6122b581612e54565b6040516020016122c59190614188565b60408051601f198184030181528282528051602091820120600085815260cb9092529181209190915582917f185c30856dadb58bf097c1f665a52ada7029752dbcad008ea3fefc73bee8c9fe9190a250565b826001600160a01b031661232a82611066565b6001600160a01b0316146123505760405162461bcd60e51b81526004016108c190614882565b6001600160a01b0382166123765760405162461bcd60e51b81526004016108c1906144fa565b612381838383610933565b61238c60008261277a565b6001600160a01b03831660009081526068602052604081208054600192906123b5908490614a41565b90915550506001600160a01b03821660009081526068602052604081208054600192906123e3908490614a15565b909155505060008181526067602052604080822080546001600160a01b0319166001600160a01b0386811691821790925591518493918716917fddf252ad1be2c89b69c2b068fc378daa952ba7f163c4a11628f55a4df523b3ef91a4505050565b60005b84811015610f83576124b186868381811061247257634e487b7160e01b600052603260045260246000fd5b9050602002013585858481811061249957634e487b7160e01b600052603260045260246000fd5b90506020028101906124ab91906149d1565b856126de565b806124bb81614b47565b915050612447565b606060006124ee86805190602001203061010060008981526020019081526020016000205487612e80565b90506124fe813087868a89612131565b9695505050505050565b600061251382611066565b905061252181600084610933565b61252c60008361277a565b6001600160a01b0381166000908152606860205260408120805460019290612555908490614a41565b909155505060008281526067602052604080822080546001600160a01b0319169055518391906001600160a01b038416907fddf252ad1be2c89b69c2b068fc378daa952ba7f163c4a11628f55a4df523b3ef908390a45050565b6125f2898989898080601f016020809104026020016040519081016040528093929190818152602001838380828437600092019190915250879250612a17915050565b610d0c858585858c61298d565b60008585604051602001612614929190614118565b60408051601f198184030181528282528051602091820120601f8901829004820284018201909252878352909250612668918391899089908190840183828082843760009201919091525061274e92505050565b610f838187878080601f01602080910402602001604051908101604052809392919081815260200183838082843760009201919091525050604080516020601f8b018190048102820181019092528981529250899150889081908401838280828437600092019190915250889250612ec8915050565b6126e784613003565b6127035760405162461bcd60e51b81526004016108c19061448c565b61165384612710866119b5565b85858080601f016020809104026020016040519081016040528093929190818152602001838380828437600092019190915250879250612ec8915050565b61275782613003565b611b4157600082815260c960209081526040909120825161093392840190613476565b600081815260696020526040902080546001600160a01b0319166001600160a01b03841690811790915581906127af82611066565b6001600160a01b03167f8c5be1e5ebec7d5bd14f71427d1e84f3dd0314c0f7b2291e5b200ac8c7c3b92560405160405180910390a45050565b6060806127f4846119b5565b91506128008484612cfe565b90509250929050565b600081516000141561282d5760405162461bcd60e51b81526004016108c1906149a2565b828260405160200161283f91906140bd565b60405160208183030381529060405280519060200120604051602001612866929190614191565b60408051601f1981840301815291905280516020909101209392505050565b6040808401519051636ccbae5f60e01b815260009182913091636ccbae5f916128b19190600401614188565b60206040518083038186803b1580156128c957600080fd5b505afa1580156128dd573d6000803e3d6000fd5b505050506040513d601f19601f820116820180604052508101906129019190613c83565b9050600061291c866060015180519060200120868487612e80565b90508560200151821480156124fe575085516001600160a01b038281169116149695505050505050565b6129508383613029565b817fc5beef08f693b11c316c0c8394a377a0033c9cf701b8cd8afd79cecef60c3952826040516129809190614310565b60405180910390a2505050565b60005b84811015610f8357612a058686838181106129bb57634e487b7160e01b600052603260045260246000fd5b90506020028101906129cd91906149d1565b8686858181106129ed57634e487b7160e01b600052603260045260246000fd5b90506020028101906129ff91906149d1565b866125ff565b80612a0f81614b47565b915050612990565b612a22848483613108565b827fc5beef08f693b11c316c0c8394a377a0033c9cf701b8cd8afd79cecef60c395283604051612a529190614310565b60405180910390a250505050565b612a6b848484612317565b612a778484848461313b565b6116535760405162461bcd60e51b81526004016108c19061443a565b600054610100900460ff1680612aac575060005460ff16155b612ac85760405162461bcd60e51b81526004016108c190614771565b600054610100900460ff16158015612af3576000805460ff1961ff0019909116610100171660011790555b8251612b06906065906020860190613476565b508151612b1a906066906020850190613476565b508015610933576000805461ff0019169055505050565b600054610100900460ff1680612b4a575060005460ff16155b612b665760405162461bcd60e51b81526004016108c190614771565b600054610100900460ff16158015612b91576000805460ff1961ff0019909116610100171660011790555b8015610fc9576000805461ff001916905550565b6060610133805461081690614b0c565b606081612bda57506040805180820190915260018152600360fc1b6020820152610802565b8160005b8115612c045780612bee81614b47565b9150612bfd9050600a83614a2d565b9150612bde565b6000816001600160401b03811115612c2c57634e487b7160e01b600052604160045260246000fd5b6040519080825280601f01601f191660200182016040528015612c56576020820181803683370190505b5090505b8415610a9b57612c6b600183614a41565b9150612c78600a86614b62565b612c83906030614a15565b60f81b818381518110612ca657634e487b7160e01b600052603260045260246000fd5b60200101906001600160f81b031916908160001a905350612cc8600a86614a2d565b9450612c5a565b612cd8816122ac565b610bf3858585858561298d565b6001600160e01b031981166301ffc9a760e01b14919050565b606060ca6000612d0d84612e54565b815260200190815260200160002060008481526020019081526020016000208054612d3790614b0c565b80601f0160208091040260200160405190810160405280929190818152602001828054612d6390614b0c565b8015612db05780601f10612d8557610100808354040283529160200191612db0565b820191906000526020600020905b815481529060010190602001808311612d9357829003601f168201915b5050505050905092915050565b6060828585604051602001612dd4939291906140d9565b6040516020818303038152906040529050949350505050565b60608315612dfc575081610b67565b825115612e0c5782518084602001fd5b8160405162461bcd60e51b81526004016108c19190614310565b6000612e3133610fcc565b15612e45575060331936013560601c610897565b612e4d613253565b9050610897565b600081815260cb602052604081205415612e7c57600082815260cb60205260409020546107ff565b5090565b6000612ebf82612eb9878787604051602001612e9e93929190614095565b60405160208183030381529060405280519060200120613257565b90613287565b95945050505050565b60ca6000612ed583612e54565b815260200190815260200160002060008581526020019081526020016000208054612eff90614b0c565b15159050612f565782604051612f1591906140bd565b6040518091039020817f7ae4f661958fbecc2f77be6b0eb280d2a6f604b29e1e7221c82b9da0c4af7f8685604051612f4d9190614310565b60405180910390a35b8160ca6000612f6484612e54565b815260200190815260200160002060008681526020019081526020016000209080519060200190612f96929190613476565b5081604051612fa591906140bd565b604051809103902083604051612fbb91906140bd565b6040518091039020827f851ffe8e74d5015261dba0a1f9e1b0e5d42c5af5d2ad1908fee897c7d80a0d928686604051612ff592919061435e565b60405180910390a450505050565b600081815260c960205260408120805482919061301f90614b0c565b9050119050919050565b6001600160a01b03821661304f5760405162461bcd60e51b81526004016108c190614801565b61305881612004565b156130755760405162461bcd60e51b81526004016108c1906144c3565b61308160008383610933565b6001600160a01b03821660009081526068602052604081208054600192906130aa908490614a15565b909155505060008181526067602052604080822080546001600160a01b0319166001600160a01b03861690811790915590518392907fddf252ad1be2c89b69c2b068fc378daa952ba7f163c4a11628f55a4df523b3ef908290a45050565b6131128383613029565b61311f600084848461313b565b6109335760405162461bcd60e51b81526004016108c19061443a565b600061314f846001600160a01b0316613303565b1561324b57836001600160a01b031663150b7a0261316b612220565b8786866040518563ffffffff1660e01b815260040161318d9493929190614242565b602060405180830381600087803b1580156131a757600080fd5b505af19250505080156131d7575060408051601f3d908101601f191682019092526131d491810190613cb7565b60015b613231573d808015613205576040519150601f19603f3d011682016040523d82523d6000602084013e61320a565b606091505b5080516132295760405162461bcd60e51b81526004016108c19061443a565b805181602001fd5b6001600160e01b031916630a85bd0160e11b149050610a9b565b506001610a9b565b3390565b60008160405160200161326a9190614157565b604051602081830303815290604052805190602001209050919050565b6000806000808451604114156132b15750505060208201516040830151606084015160001a6132f7565b8451604014156132df5750505060408201516020830151906001600160ff1b0381169060ff1c601b016132f7565b60405162461bcd60e51b81526004016108c1906143ba565b6124fe86828585613309565b3b151590565b60007f7fffffffffffffffffffffffffffffff5d576e7357a4501ddfe92f46681b20a082111561334b5760405162461bcd60e51b81526004016108c190614575565b8360ff16601b148061336057508360ff16601c145b61337c5760405162461bcd60e51b81526004016108c1906147bf565b6000600186868686604051600081526020016040526040516133a194939291906142f2565b6020604051602081039080840390855afa1580156133c3573d6000803e3d6000fd5b5050604051601f1901519150506001600160a01b038116612ebf5760405162461bcd60e51b81526004016108c190614383565b82805461340290614b0c565b90600052602060002090601f016020900481019282613424576000855561346a565b82601f1061343d5782800160ff1982351617855561346a565b8280016001018555821561346a579182015b8281111561346a57823582559160200191906001019061344f565b50612e7c9291506134ea565b82805461348290614b0c565b90600052602060002090601f0160209004810192826134a4576000855561346a565b82601f106134bd57805160ff191683800117855561346a565b8280016001018555821561346a579182015b8281111561346a5782518255916020019190600101906134cf565b5b80821115612e7c57600081556001016134eb565b60006001600160401b038084111561351957613519614ba2565b604051601f8501601f19168101602001828111828210171561353d5761353d614ba2565b60405284815291508183850186101561355557600080fd5b8484602083013760006020868301015250509392505050565b803561080281614bb8565b60008083601f84011261358a578182fd5b5081356001600160401b038111156135a0578182fd5b60208301915083602080830285010111156135ba57600080fd5b9250929050565b60008083601f8401126135d2578182fd5b5081356001600160401b038111156135e8578182fd5b6020830191508360208285010111156135ba57600080fd5b600082601f830112613610578081fd5b610b67838335602085016134ff565b600060208284031215613630578081fd5b8135610b6781614bb8565b60006020828403121561364c578081fd5b8151610b6781614bb8565b60008060408385031215613669578081fd5b823561367481614bb8565b9150602083013561368481614bb8565b809150509250929050565b6000806000606084860312156136a3578081fd5b83356136ae81614bb8565b925060208401356136be81614bb8565b929592945050506040919091013590565b6000806000806000608086880312156136e6578081fd5b85356136f181614bb8565b9450602086013561370181614bb8565b93506040860135925060608601356001600160401b03811115613722578182fd5b61372e888289016135c1565b969995985093965092949392505050565b600080600080600080600060a0888a031215613759578182fd5b873561376481614bb8565b9650602088013561377481614bb8565b95506040880135945060608801356001600160401b0380821115613796578384fd5b6137a28b838c016135c1565b909650945060808a01359150808211156137ba578384fd5b506137c78a828b016135c1565b989b979a50959850939692959293505050565b600080600080608085870312156137ef578182fd5b84356137fa81614bb8565b9350602085013561380a81614bb8565b92506040850135915060608501356001600160401b0381111561382b578182fd5b61383787828801613600565b91505092959194509250565b60008060408385031215613855578182fd5b823561386081614bb8565b915060208301358015158114613684578182fd5b60008060408385031215613886578182fd5b823561389181614bb8565b946020939093013593505050565b600080600080606085870312156138b4578182fd5b84356138bf81614bb8565b93506020850135925060408501356001600160401b038111156138e0578283fd5b6138ec878288016135c1565b95989497509550505050565b60008060008060008060008060a0898b031215613913578182fd5b883561391e81614bb8565b97506020890135965060408901356001600160401b0380821115613940578384fd5b61394c8c838d016135c1565b909850965060608b0135915080821115613964578384fd5b6139708c838d01613579565b909650945060808b0135915080821115613988578384fd5b506139958b828c01613579565b999c989b5096995094979396929594505050565b60008060008060008060008060008060c08b8d0312156139c7578384fd5b6139d08b61356e565b995060208b0135985060408b01356001600160401b03808211156139f2578586fd5b6139fe8e838f016135c1565b909a50985060608d0135915080821115613a16578586fd5b613a228e838f01613579565b909850965060808d0135915080821115613a3a578586fd5b613a468e838f01613579565b909650945060a08d0135915080821115613a5e578384fd5b50613a6b8d828e016135c1565b915080935050809150509295989b9194979a5092959850565b60008060008060008060808789031215613a9c578384fd5b8635613aa781614bb8565b95506020870135945060408701356001600160401b0380821115613ac9578586fd5b613ad58a838b016135c1565b90965094506060890135915080821115613aed578384fd5b50613afa89828a016135c1565b979a9699509497509295939492505050565b600080600080600060608688031215613b23578283fd5b85356001600160401b0380821115613b39578485fd5b613b4589838a01613579565b90975095506020880135915080821115613b5d578485fd5b50613b6a88828901613579565b96999598509660400135949350505050565b60008060008060008060006080888a031215613b96578081fd5b87356001600160401b0380821115613bac578283fd5b613bb88b838c01613579565b909950975060208a0135915080821115613bd0578283fd5b613bdc8b838c01613579565b909750955060408a0135945060608a01359150808211156137ba578283fd5b600080600060408486031215613c0f578081fd5b83356001600160401b03811115613c24578182fd5b613c3086828701613579565b909790965060209590950135949350505050565b60008060208385031215613c56578182fd5b82356001600160401b03811115613c6b578283fd5b613c7785828601613579565b90969095509350505050565b600060208284031215613c94578081fd5b5051919050565b600060208284031215613cac578081fd5b8135610b6781614bcd565b600060208284031215613cc8578081fd5b8151610b6781614bcd565b60008060208385031215613ce5578182fd5b82356001600160401b03811115613cfa578283fd5b613c77858286016135c1565b600080600080600060608688031215613d1d578283fd5b85356001600160401b0380821115613d33578485fd5b613d3f89838a016135c1565b90975095506020880135915080821115613d57578485fd5b50613b6a888289016135c1565b60008060008060008060006080888a031215613d7e578081fd5b87356001600160401b0380821115613d94578283fd5b613da08b838c016135c1565b909950975060208a0135915080821115613db8578283fd5b613bdc8b838c016135c1565b600080600060408486031215613dd8578081fd5b83356001600160401b03811115613ded578182fd5b613c30868287016135c1565b600060208284031215613e0a578081fd5b81356001600160401b03811115613e1f578182fd5b8201601f81018413613e2f578182fd5b610a9b848235602084016134ff565b600080600060408486031215613e52578081fd5b83356001600160401b0380821115613e68578283fd5b9085019060808288031215613e7b578283fd5b90935060208501359080821115613e90578283fd5b50613e9d868287016135c1565b9497909650939450505050565b600060208284031215613ebb578081fd5b5035919050565b600080600060408486031215613ed6578081fd5b8335925060208401356001600160401b03811115613ef2578182fd5b613e9d868287016135c1565b60008060008060608587031215613f13578182fd5b8435935060208501356001600160401b03811115613f2f578283fd5b613f3b878288016135c1565b9598909750949560400135949350505050565b60008060408385031215613f60578182fd5b50508035926020909101359150565b818352602080840193600091908185020181018584845b87811015613fec5782840389528135601e19883603018112613fa6578687fd5b870180356001600160401b03811115613fbd578788fd5b803603891315613fcb578788fd5b613fd8868289850161403f565b9a87019a9550505090840190600101613f86565b5091979650505050505050565b6000815180845260208085018081965082840281019150828601855b85811015613fec57828403895261402d848351614069565b98850198935090840190600101614015565b60008284528282602086013780602084860101526020601f19601f85011685010190509392505050565b60008151808452614081816020860160208601614ae0565b601f01601f19169290920160200192915050565b92835260609190911b6bffffffffffffffffffffffff19166020830152603482015260540190565b600082516140cf818460208701614ae0565b9190910192915050565b600084516140eb818460208901614ae0565b60609490941b6bffffffffffffffffffffffff191691909301908152601481019190915260340192915050565b6000828483379101908152919050565b6000835161413a818460208801614ae0565b83519083019061414e818360208801614ae0565b01949350505050565b7f19457468657265756d205369676e6564204d6573736167653a0a3332000000008152601c810191909152603c0190565b90815260200190565b918252602082015260400190565b6001600160a01b0391909116815260200190565b6001600160a01b03848116825283166020820152606060408201819052600090612ebf90830184614069565b6001600160a01b039384168152919092166020820152604081019190915260600190565b6001600160a01b0386811682528516602082015260408101849052608060608201819052600090614237908301848661403f565b979650505050505050565b6001600160a01b03858116825284166020820152604081018390526080606082018190526000906124fe90830184614069565b600060608252614289606083018789613f6f565b828103602084015261429c818688613f6f565b9150508260408301529695505050505050565b600060208252610b676020830184613ff9565b6000604082526142d56040830185613ff9565b8281036020840152610b638185613ff9565b901515815260200190565b93845260ff9290921660208401526040830152606082015260800190565b600060208252610b676020830184614069565b600060208252610a9b60208301848661403f565b60006060825261434b60608301878961403f565b828103602084015261429c81868861403f565b6000604082526143716040830185614069565b8281036020840152610b638185614069565b60208082526018908201527f45434453413a20696e76616c6964207369676e61747572650000000000000000604082015260600190565b6020808252601f908201527f45434453413a20696e76616c6964207369676e6174757265206c656e67746800604082015260600190565b60208082526029908201527f52656769737472793a2053454e4445525f49535f4e4f545f415050524f5645446040820152682fa7a92fa7aba722a960b91b606082015260800190565b60208082526032908201527f4552433732313a207472616e7366657220746f206e6f6e20455243373231526560408201527131b2b4bb32b91034b6b83632b6b2b73a32b960711b606082015260800190565b6020808252601c908201527f5265636f726453746f726167653a204b45595f4e4f545f464f554e4400000000604082015260600190565b6020808252601c908201527f4552433732313a20746f6b656e20616c7265616479206d696e74656400000000604082015260600190565b60208082526024908201527f4552433732313a207472616e7366657220746f20746865207a65726f206164646040820152637265737360e01b606082015260800190565b60208082526019908201527f4552433732313a20617070726f766520746f2063616c6c657200000000000000604082015260600190565b60208082526022908201527f45434453413a20696e76616c6964207369676e6174757265202773272076616c604082015261756560f01b606082015260800190565b60208082526027908201527f52656769737472793a2053454e4445525f49535f4e4f545f4d494e54494e475f60408201526626a0a720a3a2a960c91b606082015260800190565b6020808252602c908201527f4552433732313a206f70657261746f7220717565727920666f72206e6f6e657860408201526b34b9ba32b73a103a37b5b2b760a11b606082015260800190565b60208082526017908201527f52656769737472793a20544f4b454e5f494e56414c4944000000000000000000604082015260600190565b60208082526038908201527f4552433732313a20617070726f76652063616c6c6572206973206e6f74206f7760408201527f6e6572206e6f7220617070726f76656420666f7220616c6c0000000000000000606082015260800190565b6020808252602a908201527f4552433732313a2062616c616e636520717565727920666f7220746865207a65604082015269726f206164647265737360b01b606082015260800190565b60208082526029908201527f4552433732313a206f776e657220717565727920666f72206e6f6e657869737460408201526832b73a103a37b5b2b760b91b606082015260800190565b6020808252602e908201527f496e697469616c697a61626c653a20636f6e747261637420697320616c72656160408201526d191e481a5b9a5d1a585b1a5e995960921b606082015260800190565b60208082526022908201527f45434453413a20696e76616c6964207369676e6174757265202776272076616c604082015261756560f01b606082015260800190565b6020808252818101527f4552433732313a206d696e7420746f20746865207a65726f2061646472657373604082015260600190565b6020808252602c908201527f4552433732313a20617070726f76656420717565727920666f72206e6f6e657860408201526b34b9ba32b73a103a37b5b2b760a11b606082015260800190565b60208082526029908201527f4552433732313a207472616e73666572206f6620746f6b656e2074686174206960408201526839903737ba1037bbb760b91b606082015260800190565b6020808252602f908201527f4552433732314d657461646174613a2055524920717565727920666f72206e6f60408201526e3732bc34b9ba32b73a103a37b5b2b760891b606082015260800190565b60208082526027908201527f554e535265676973747279466f727761726465723a205349474e41545552455f6040820152661253959053125160ca1b606082015260800190565b60208082526021908201527f4552433732313a20617070726f76616c20746f2063757272656e74206f776e656040820152603960f91b606082015260800190565b60208082526015908201527452656769737472793a204c4142454c5f454d50545960581b604082015260600190565b6000808335601e198436030181126149e7578283fd5b8301803591506001600160401b03821115614a00578283fd5b6020019150368190038213156135ba57600080fd5b60008219821115614a2857614a28614b76565b500190565b600082614a3c57614a3c614b8c565b500490565b600082821015614a5357614a53614b76565b500390565b600060808236031215614a69578081fd5b604051608081016001600160401b038282108183111715614a8c57614a8c614ba2565b8160405284359150614a9d82614bb8565b81835260208501356020840152604085013560408401526060850135915080821115614ac7578384fd5b50614ad436828601613600565b60608301525092915050565b60005b83811015614afb578181015183820152602001614ae3565b838111156116535750506000910152565b600281046001821680614b2057607f821691505b60208210811415614b4157634e487b7160e01b600052602260045260246000fd5b50919050565b6000600019821415614b5b57614b5b614b76565b5060010190565b600082614b7157614b71614b8c565b500690565b634e487b7160e01b600052601160045260246000fd5b634e487b7160e01b600052601260045260246000fd5b634e487b7160e01b600052604160045260246000fd5b6001600160a01b0381168114610fc957600080fd5b6001600160e01b031981168114610fc957600080fdfea164736f6c6343000800000a",
  "linkReferences": {},
  "deployedLinkReferences": {}
}