{
  "_format": "hh-sol-artifact-1",
  "contractName": "UNSRegistry",
  "sourceName": "contracts/UNSRegistry.sol",
  "abi": [
    {
      "anonymous": false,
      "inputs": [
        {
          "indexed": false,
          "internalType": "address",
          "name": "previousAdmin",
          "type": "address"
        },
        {
          "indexed": false,
          "internalType": "address",
          "name": "newAdmin",
          "type": "address"
        }
      ],
      "name": "AdminChanged",
      "type": "event"
    },
    {
      "anonymous": false,
      "inputs": [
        {
          "indexed": true,
          "internalType": "address",
          "name": "owner",
          "type": "address"
        },
        {
          "indexed": true,
          "internalType": "address",
          "name": "approved",
          "type": "address"
        },
        {
          "indexed": true,
          "internalType": "uint256",
          "name": "tokenId",
          "type": "uint256"
        }
      ],
      "name": "Approval",
      "type": "event"
    },
    {
      "anonymous": false,
      "inputs": [
        {
          "indexed": true,
          "internalType": "address",
          "name": "owner",
          "type": "address"
        },
        {
          "indexed": true,
          "internalType": "address",
          "name": "operator",
          "type": "address"
        },
        {
          "indexed": false,
          "internalType": "bool",
          "name": "approved",
          "type": "bool"
        }
      ],
      "name": "ApprovalForAll",
      "type": "event"
    },
    {
      "anonymous": false,
      "inputs": [
        {
          "indexed": false,
          "internalType": "uint8",
          "name": "version",
          "type": "uint8"
        }
      ],
      "name": "Initialized",
      "type": "event"
    },
    {
      "anonymous": false,
      "inputs": [
        {
          "indexed": true,
          "internalType": "uint256",
          "name": "tokenId",
          "type": "uint256"
        },
        {
          "indexed": true,
          "internalType": "string",
          "name": "keyIndex",
          "type": "string"
        },
        {
          "indexed": false,
          "internalType": "string",
          "name": "key",
          "type": "string"
        }
      ],
      "name": "NewKey",
      "type": "event"
    },
    {
      "anonymous": false,
      "inputs": [
        {
          "indexed": true,
          "internalType": "uint256",
          "name": "tokenId",
          "type": "uint256"
        },
        {
          "indexed": false,
          "internalType": "string",
          "name": "uri",
          "type": "string"
        }
      ],
      "name": "NewURI",
      "type": "event"
    },
    {
      "anonymous": false,
      "inputs": [
        {
          "indexed": false,
          "internalType": "string",
          "name": "prefix",
          "type": "string"
        }
      ],
      "name": "NewURIPrefix",
      "type": "event"
    },
    {
      "anonymous": false,
      "inputs": [
        {
          "indexed": true,
          "internalType": "address",
          "name": "addr",
          "type": "address"
        }
      ],
      "name": "RemoveReverse",
      "type": "event"
    },
    {
      "anonymous": false,
      "inputs": [
        {
          "indexed": true,
          "internalType": "uint256",
          "name": "tokenId",
          "type": "uint256"
        }
      ],
      "name": "ResetRecords",
      "type": "event"
    },
    {
      "anonymous": false,
      "inputs": [
        {
          "indexed": true,
          "internalType": "uint256",
          "name": "tokenId",
          "type": "uint256"
        },
        {
          "indexed": true,
          "internalType": "string",
          "name": "keyIndex",
          "type": "string"
        },
        {
          "indexed": true,
          "internalType": "string",
          "name": "valueIndex",
          "type": "string"
        },
        {
          "indexed": false,
          "internalType": "string",
          "name": "key",
          "type": "string"
        },
        {
          "indexed": false,
          "internalType": "string",
          "name": "value",
          "type": "string"
        }
      ],
      "name": "Set",
      "type": "event"
    },
    {
      "anonymous": false,
      "inputs": [
        {
          "indexed": true,
          "internalType": "address",
          "name": "addr",
          "type": "address"
        },
        {
          "indexed": true,
          "internalType": "uint256",
          "name": "tokenId",
          "type": "uint256"
        }
      ],
      "name": "SetReverse",
      "type": "event"
    },
    {
      "anonymous": false,
      "inputs": [
        {
          "indexed": true,
          "internalType": "address",
          "name": "from",
          "type": "address"
        },
        {
          "indexed": true,
          "internalType": "address",
          "name": "to",
          "type": "address"
        },
        {
          "indexed": true,
          "internalType": "uint256",
          "name": "tokenId",
          "type": "uint256"
        }
      ],
      "name": "Transfer",
      "type": "event"
    },
    {
      "anonymous": false,
      "inputs": [
        {
          "indexed": true,
          "internalType": "address",
          "name": "implementation",
          "type": "address"
        }
      ],
      "name": "Upgraded",
      "type": "event"
    },
    {
      "anonymous": false,
      "inputs": [
        {
          "indexed": true,
          "internalType": "address",
          "name": "user",
          "type": "address"
        },
        {
          "indexed": false,
          "internalType": "uint256[]",
          "name": "tokenIds",
          "type": "uint256[]"
        }
      ],
      "name": "WithdrawnBatch",
      "type": "event"
    },
    {
      "inputs": [],
      "name": "BATCH_LIMIT",
      "outputs": [
        {
          "internalType": "uint256",
          "name": "",
          "type": "uint256"
        }
      ],
      "stateMutability": "view",
      "type": "function"
    },
    {
      "inputs": [],
      "name": "NAME",
      "outputs": [
        {
          "internalType": "string",
          "name": "",
          "type": "string"
        }
      ],
      "stateMutability": "view",
      "type": "function"
    },
    {
      "inputs": [],
      "name": "VERSION",
      "outputs": [
        {
          "internalType": "string",
          "name": "",
          "type": "string"
        }
      ],
      "stateMutability": "view",
      "type": "function"
    },
    {
      "inputs": [
        {
          "internalType": "string",
          "name": "key",
          "type": "string"
        }
      ],
      "name": "addKey",
      "outputs": [],
      "stateMutability": "nonpayable",
      "type": "function"
    },
    {
      "inputs": [
        {
          "internalType": "address",
          "name": "addr",
          "type": "address"
        }
      ],
      "name": "addProxyReader",
      "outputs": [],
      "stateMutability": "nonpayable",
      "type": "function"
    },
    {
      "inputs": [
        {
          "internalType": "address",
          "name": "to",
          "type": "address"
        },
        {
          "internalType": "uint256",
          "name": "tokenId",
          "type": "uint256"
        }
      ],
      "name": "approve",
      "outputs": [],
      "stateMutability": "nonpayable",
      "type": "function"
    },
    {
      "inputs": [
        {
          "internalType": "address",
          "name": "owner",
          "type": "address"
        }
      ],
      "name": "balanceOf",
      "outputs": [
        {
          "internalType": "uint256",
          "name": "",
          "type": "uint256"
        }
      ],
      "stateMutability": "view",
      "type": "function"
    },
    {
      "inputs": [
        {
          "internalType": "uint256",
          "name": "tokenId",
          "type": "uint256"
        }
      ],
      "name": "burn",
      "outputs": [],
      "stateMutability": "nonpayable",
      "type": "function"
    },
    {
      "inputs": [
        {
          "internalType": "uint256",
          "name": "tokenId",
          "type": "uint256"
        },
        {
          "internalType": "string",
          "name": "label",
          "type": "string"
        }
      ],
      "name": "childIdOf",
      "outputs": [
        {
          "internalType": "uint256",
          "name": "",
          "type": "uint256"
        }
      ],
      "stateMutability": "pure",
      "type": "function"
    },
    {
      "inputs": [
        {
          "internalType": "address",
          "name": "user",
          "type": "address"
        },
        {
          "internalType": "bytes",
          "name": "depositData",
          "type": "bytes"
        }
      ],
      "name": "deposit",
      "outputs": [],
      "stateMutability": "nonpayable",
      "type": "function"
    },
    {
      "inputs": [
        {
          "internalType": "uint256",
          "name": "tokenId",
          "type": "uint256"
        }
      ],
      "name": "depositToPolygon",
      "outputs": [],
      "stateMutability": "nonpayable",
      "type": "function"
    },
    {
      "inputs": [
        {
          "components": [
            {
              "internalType": "address",
              "name": "from",
              "type": "address"
            },
            {
              "internalType": "uint256",
              "name": "nonce",
              "type": "uint256"
            },
            {
              "internalType": "uint256",
              "name": "tokenId",
              "type": "uint256"
            },
            {
              "internalType": "bytes",
              "name": "data",
              "type": "bytes"
            }
          ],
          "internalType": "struct IForwarder.ForwardRequest",
          "name": "req",
          "type": "tuple"
        },
        {
          "internalType": "bytes",
          "name": "signature",
          "type": "bytes"
        }
      ],
      "name": "execute",
      "outputs": [
        {
          "internalType": "bytes",
          "name": "",
          "type": "bytes"
        }
      ],
      "stateMutability": "nonpayable",
      "type": "function"
    },
    {
      "inputs": [
        {
          "internalType": "uint256",
          "name": "tokenId",
          "type": "uint256"
        }
      ],
      "name": "exists",
      "outputs": [
        {
          "internalType": "bool",
          "name": "",
          "type": "bool"
        }
      ],
      "stateMutability": "view",
      "type": "function"
    },
    {
      "inputs": [
        {
          "internalType": "string",
          "name": "key",
          "type": "string"
        },
        {
          "internalType": "uint256",
          "name": "tokenId",
          "type": "uint256"
        }
      ],
      "name": "get",
      "outputs": [
        {
          "internalType": "string",
          "name": "value",
          "type": "string"
        }
      ],
      "stateMutability": "view",
      "type": "function"
    },
    {
      "inputs": [
        {
          "internalType": "uint256",
          "name": "tokenId",
          "type": "uint256"
        }
      ],
      "name": "getApproved",
      "outputs": [
        {
          "internalType": "address",
          "name": "",
          "type": "address"
        }
      ],
      "stateMutability": "view",
      "type": "function"
    },
    {
      "inputs": [
        {
          "internalType": "uint256",
          "name": "keyHash",
          "type": "uint256"
        },
        {
          "internalType": "uint256",
          "name": "tokenId",
          "type": "uint256"
        }
      ],
      "name": "getByHash",
      "outputs": [
        {
          "internalType": "string",
          "name": "key",
          "type": "string"
        },
        {
          "internalType": "string",
          "name": "value",
          "type": "string"
        }
      ],
      "stateMutability": "view",
      "type": "function"
    },
    {
      "inputs": [
        {
          "internalType": "uint256",
          "name": "keyHash",
          "type": "uint256"
        }
      ],
      "name": "getKey",
      "outputs": [
        {
          "internalType": "string",
          "name": "",
          "type": "string"
        }
      ],
      "stateMutability": "view",
      "type": "function"
    },
    {
      "inputs": [
        {
          "internalType": "uint256[]",
          "name": "hashes",
          "type": "uint256[]"
        }
      ],
      "name": "getKeys",
      "outputs": [
        {
          "internalType": "string[]",
          "name": "values",
          "type": "string[]"
        }
      ],
      "stateMutability": "view",
      "type": "function"
    },
    {
      "inputs": [
        {
          "internalType": "string[]",
          "name": "keys",
          "type": "string[]"
        },
        {
          "internalType": "uint256",
          "name": "tokenId",
          "type": "uint256"
        }
      ],
      "name": "getMany",
      "outputs": [
        {
          "internalType": "string[]",
          "name": "values",
          "type": "string[]"
        }
      ],
      "stateMutability": "view",
      "type": "function"
    },
    {
      "inputs": [
        {
          "internalType": "uint256[]",
          "name": "keyHashes",
          "type": "uint256[]"
        },
        {
          "internalType": "uint256",
          "name": "tokenId",
          "type": "uint256"
        }
      ],
      "name": "getManyByHash",
      "outputs": [
        {
          "internalType": "string[]",
          "name": "keys",
          "type": "string[]"
        },
        {
          "internalType": "string[]",
          "name": "values",
          "type": "string[]"
        }
      ],
      "stateMutability": "view",
      "type": "function"
    },
    {
      "inputs": [
        {
          "internalType": "address",
          "name": "mintingManager",
          "type": "address"
        }
      ],
      "name": "initialize",
      "outputs": [],
      "stateMutability": "nonpayable",
      "type": "function"
    },
    {
      "inputs": [
        {
          "internalType": "address",
          "name": "owner",
          "type": "address"
        },
        {
          "internalType": "address",
          "name": "operator",
          "type": "address"
        }
      ],
      "name": "isApprovedForAll",
      "outputs": [
        {
          "internalType": "bool",
          "name": "",
          "type": "bool"
        }
      ],
      "stateMutability": "view",
      "type": "function"
    },
    {
      "inputs": [
        {
          "internalType": "address",
          "name": "spender",
          "type": "address"
        },
        {
          "internalType": "uint256",
          "name": "tokenId",
          "type": "uint256"
        }
      ],
      "name": "isApprovedOrOwner",
      "outputs": [
        {
          "internalType": "bool",
          "name": "",
          "type": "bool"
        }
      ],
      "stateMutability": "view",
      "type": "function"
    },
    {
      "inputs": [
        {
          "internalType": "address",
          "name": "forwarder",
          "type": "address"
        }
      ],
      "name": "isTrustedForwarder",
      "outputs": [
        {
          "internalType": "bool",
          "name": "",
          "type": "bool"
        }
      ],
      "stateMutability": "view",
      "type": "function"
    },
    {
      "inputs": [
        {
          "internalType": "address",
          "name": "user",
          "type": "address"
        },
        {
          "internalType": "uint256",
          "name": "tokenId",
          "type": "uint256"
        }
      ],
      "name": "mint",
      "outputs": [],
      "stateMutability": "nonpayable",
      "type": "function"
    },
    {
      "inputs": [
        {
          "internalType": "address",
          "name": "user",
          "type": "address"
        },
        {
          "internalType": "uint256",
          "name": "tokenId",
          "type": "uint256"
        },
        {
          "internalType": "bytes",
          "name": "",
          "type": "bytes"
        }
      ],
      "name": "mint",
      "outputs": [],
      "stateMutability": "nonpayable",
      "type": "function"
    },
    {
      "inputs": [
        {
          "internalType": "address",
          "name": "to",
          "type": "address"
        },
        {
          "internalType": "uint256",
          "name": "tokenId",
          "type": "uint256"
        },
        {
          "internalType": "string",
          "name": "uri",
          "type": "string"
        }
      ],
      "name": "mint",
      "outputs": [],
      "stateMutability": "nonpayable",
      "type": "function"
    },
    {
      "inputs": [
        {
          "internalType": "address",
          "name": "to",
          "type": "address"
        },
        {
          "internalType": "uint256",
          "name": "tokenId",
          "type": "uint256"
        },
        {
          "internalType": "string",
          "name": "uri",
          "type": "string"
        },
        {
          "internalType": "string[]",
          "name": "keys",
          "type": "string[]"
        },
        {
          "internalType": "string[]",
          "name": "values",
          "type": "string[]"
        }
      ],
      "name": "mintWithRecords",
      "outputs": [],
      "stateMutability": "nonpayable",
      "type": "function"
    },
    {
      "inputs": [],
      "name": "name",
      "outputs": [
        {
          "internalType": "string",
          "name": "",
          "type": "string"
        }
      ],
      "stateMutability": "view",
      "type": "function"
    },
    {
      "inputs": [
        {
          "internalType": "uint256",
          "name": "tokenId",
          "type": "uint256"
        }
      ],
      "name": "nonceOf",
      "outputs": [
        {
          "internalType": "uint256",
          "name": "",
          "type": "uint256"
        }
      ],
      "stateMutability": "view",
      "type": "function"
    },
    {
      "inputs": [
        {
          "internalType": "address",
          "name": "",
          "type": "address"
        },
        {
          "internalType": "address",
          "name": "from",
          "type": "address"
        },
        {
          "internalType": "uint256",
          "name": "tokenId",
          "type": "uint256"
        },
        {
          "internalType": "bytes",
          "name": "data",
          "type": "bytes"
        }
      ],
      "name": "onERC721Received",
      "outputs": [
        {
          "internalType": "bytes4",
          "name": "",
          "type": "bytes4"
        }
      ],
      "stateMutability": "nonpayable",
      "type": "function"
    },
    {
      "inputs": [
        {
          "internalType": "uint256",
          "name": "tokenId",
          "type": "uint256"
        }
      ],
      "name": "ownerOf",
      "outputs": [
        {
          "internalType": "address",
          "name": "",
          "type": "address"
        }
      ],
      "stateMutability": "view",
      "type": "function"
    },
    {
      "inputs": [
        {
          "internalType": "string[]",
          "name": "keys",
          "type": "string[]"
        },
        {
          "internalType": "string[]",
          "name": "values",
          "type": "string[]"
        },
        {
          "internalType": "uint256",
          "name": "tokenId",
          "type": "uint256"
        }
      ],
      "name": "reconfigure",
      "outputs": [],
      "stateMutability": "nonpayable",
      "type": "function"
    },
    {
      "inputs": [],
      "name": "removeReverse",
      "outputs": [],
      "stateMutability": "nonpayable",
      "type": "function"
    },
    {
      "inputs": [
        {
          "internalType": "uint256",
          "name": "tokenId",
          "type": "uint256"
        }
      ],
      "name": "reset",
      "outputs": [],
      "stateMutability": "nonpayable",
      "type": "function"
    },
    {
      "inputs": [
        {
          "internalType": "uint256",
          "name": "tokenId",
          "type": "uint256"
        }
      ],
      "name": "resolverOf",
      "outputs": [
        {
          "internalType": "address",
          "name": "",
          "type": "address"
        }
      ],
      "stateMutability": "view",
      "type": "function"
    },
    {
      "inputs": [
        {
          "internalType": "address",
          "name": "addr",
          "type": "address"
        }
      ],
      "name": "reverseOf",
      "outputs": [
        {
          "internalType": "uint256",
          "name": "reverse",
          "type": "uint256"
        }
      ],
      "stateMutability": "view",
      "type": "function"
    },
    {
      "inputs": [],
      "name": "root",
      "outputs": [
        {
          "internalType": "uint256",
          "name": "",
          "type": "uint256"
        }
      ],
      "stateMutability": "pure",
      "type": "function"
    },
    {
      "inputs": [
        {
          "internalType": "address",
          "name": "to",
          "type": "address"
        },
        {
          "internalType": "uint256",
          "name": "tokenId",
          "type": "uint256"
        },
        {
          "internalType": "string",
          "name": "uri",
          "type": "string"
        },
        {
          "internalType": "bytes",
          "name": "data",
          "type": "bytes"
        }
      ],
      "name": "safeMint",
      "outputs": [],
      "stateMutability": "nonpayable",
      "type": "function"
    },
    {
      "inputs": [
        {
          "internalType": "address",
          "name": "to",
          "type": "address"
        },
        {
          "internalType": "uint256",
          "name": "tokenId",
          "type": "uint256"
        },
        {
          "internalType": "string",
          "name": "uri",
          "type": "string"
        }
      ],
      "name": "safeMint",
      "outputs": [],
      "stateMutability": "nonpayable",
      "type": "function"
    },
    {
      "inputs": [
        {
          "internalType": "address",
          "name": "to",
          "type": "address"
        },
        {
          "internalType": "uint256",
          "name": "tokenId",
          "type": "uint256"
        },
        {
          "internalType": "string",
          "name": "uri",
          "type": "string"
        },
        {
          "internalType": "string[]",
          "name": "keys",
          "type": "string[]"
        },
        {
          "internalType": "string[]",
          "name": "values",
          "type": "string[]"
        }
      ],
      "name": "safeMintWithRecords",
      "outputs": [],
      "stateMutability": "nonpayable",
      "type": "function"
    },
    {
      "inputs": [
        {
          "internalType": "address",
          "name": "to",
          "type": "address"
        },
        {
          "internalType": "uint256",
          "name": "tokenId",
          "type": "uint256"
        },
        {
          "internalType": "string",
          "name": "uri",
          "type": "string"
        },
        {
          "internalType": "string[]",
          "name": "keys",
          "type": "string[]"
        },
        {
          "internalType": "string[]",
          "name": "values",
          "type": "string[]"
        },
        {
          "internalType": "bytes",
          "name": "data",
          "type": "bytes"
        }
      ],
      "name": "safeMintWithRecords",
      "outputs": [],
      "stateMutability": "nonpayable",
      "type": "function"
    },
    {
      "inputs": [
        {
          "internalType": "address",
          "name": "from",
          "type": "address"
        },
        {
          "internalType": "address",
          "name": "to",
          "type": "address"
        },
        {
          "internalType": "uint256",
          "name": "tokenId",
          "type": "uint256"
        }
      ],
      "name": "safeTransferFrom",
      "outputs": [],
      "stateMutability": "nonpayable",
      "type": "function"
    },
    {
      "inputs": [
        {
          "internalType": "address",
          "name": "from",
          "type": "address"
        },
        {
          "internalType": "address",
          "name": "to",
          "type": "address"
        },
        {
          "internalType": "uint256",
          "name": "tokenId",
          "type": "uint256"
        },
        {
          "internalType": "bytes",
          "name": "data",
          "type": "bytes"
        }
      ],
      "name": "safeTransferFrom",
      "outputs": [],
      "stateMutability": "nonpayable",
      "type": "function"
    },
    {
      "inputs": [
        {
          "internalType": "string",
          "name": "key",
          "type": "string"
        },
        {
          "internalType": "string",
          "name": "value",
          "type": "string"
        },
        {
          "internalType": "uint256",
          "name": "tokenId",
          "type": "uint256"
        }
      ],
      "name": "set",
      "outputs": [],
      "stateMutability": "nonpayable",
      "type": "function"
    },
    {
      "inputs": [
        {
          "internalType": "address",
          "name": "operator",
          "type": "address"
        },
        {
          "internalType": "bool",
          "name": "approved",
          "type": "bool"
        }
      ],
      "name": "setApprovalForAll",
      "outputs": [],
      "stateMutability": "nonpayable",
      "type": "function"
    },
    {
      "inputs": [
        {
          "internalType": "uint256",
          "name": "keyHash",
          "type": "uint256"
        },
        {
          "internalType": "string",
          "name": "value",
          "type": "string"
        },
        {
          "internalType": "uint256",
          "name": "tokenId",
          "type": "uint256"
        }
      ],
      "name": "setByHash",
      "outputs": [],
      "stateMutability": "nonpayable",
      "type": "function"
    },
    {
      "inputs": [
        {
          "internalType": "address",
          "name": "registry",
          "type": "address"
        }
      ],
      "name": "setCNSRegistry",
      "outputs": [],
      "stateMutability": "nonpayable",
      "type": "function"
    },
    {
      "inputs": [
        {
          "internalType": "address",
          "name": "clientChainManager",
          "type": "address"
        }
      ],
      "name": "setChildChainManager",
      "outputs": [],
      "stateMutability": "nonpayable",
      "type": "function"
    },
    {
      "inputs": [
        {
          "internalType": "string[]",
          "name": "keys",
          "type": "string[]"
        },
        {
          "internalType": "string[]",
          "name": "values",
          "type": "string[]"
        },
        {
          "internalType": "uint256",
          "name": "tokenId",
          "type": "uint256"
        }
      ],
      "name": "setMany",
      "outputs": [],
      "stateMutability": "nonpayable",
      "type": "function"
    },
    {
      "inputs": [
        {
          "internalType": "uint256[]",
          "name": "keyHashes",
          "type": "uint256[]"
        },
        {
          "internalType": "string[]",
          "name": "values",
          "type": "string[]"
        },
        {
          "internalType": "uint256",
          "name": "tokenId",
          "type": "uint256"
        }
      ],
      "name": "setManyByHash",
      "outputs": [],
      "stateMutability": "nonpayable",
      "type": "function"
    },
    {
      "inputs": [
        {
          "internalType": "address",
          "name": "to",
          "type": "address"
        },
        {
          "internalType": "uint256",
          "name": "tokenId",
          "type": "uint256"
        }
      ],
      "name": "setOwner",
      "outputs": [],
      "stateMutability": "nonpayable",
      "type": "function"
    },
    {
      "inputs": [
        {
          "internalType": "uint256",
          "name": "tokenId",
          "type": "uint256"
        }
      ],
      "name": "setReverse",
      "outputs": [],
      "stateMutability": "nonpayable",
      "type": "function"
    },
    {
      "inputs": [
        {
          "internalType": "address",
          "name": "rootChainManager",
          "type": "address"
        }
      ],
      "name": "setRootChainManager",
      "outputs": [],
      "stateMutability": "nonpayable",
      "type": "function"
    },
    {
      "inputs": [
        {
          "internalType": "string",
          "name": "prefix",
          "type": "string"
        }
      ],
      "name": "setTokenURIPrefix",
      "outputs": [],
      "stateMutability": "nonpayable",
      "type": "function"
    },
    {
      "inputs": [
        {
          "internalType": "bytes4",
          "name": "interfaceId",
          "type": "bytes4"
        }
      ],
      "name": "supportsInterface",
      "outputs": [
        {
          "internalType": "bool",
          "name": "",
          "type": "bool"
        }
      ],
      "stateMutability": "view",
      "type": "function"
    },
    {
      "inputs": [],
      "name": "symbol",
      "outputs": [
        {
          "internalType": "string",
          "name": "",
          "type": "string"
        }
      ],
      "stateMutability": "view",
      "type": "function"
    },
    {
      "inputs": [
        {
          "internalType": "uint256",
          "name": "tokenId",
          "type": "uint256"
        }
      ],
      "name": "tokenURI",
      "outputs": [
        {
          "internalType": "string",
          "name": "",
          "type": "string"
        }
      ],
      "stateMutability": "view",
      "type": "function"
    },
    {
      "inputs": [
        {
          "internalType": "address",
          "name": "from",
          "type": "address"
        },
        {
          "internalType": "address",
          "name": "to",
          "type": "address"
        },
        {
          "internalType": "uint256",
          "name": "tokenId",
          "type": "uint256"
        }
      ],
      "name": "transferFrom",
      "outputs": [],
      "stateMutability": "nonpayable",
      "type": "function"
    },
    {
      "inputs": [
        {
          "internalType": "uint256[]",
          "name": "tokenIds",
          "type": "uint256[]"
        }
      ],
      "name": "upgradeAll",
      "outputs": [],
      "stateMutability": "nonpayable",
      "type": "function"
    },
    {
      "inputs": [
        {
          "components": [
            {
              "internalType": "address",
              "name": "from",
              "type": "address"
            },
            {
              "internalType": "uint256",
              "name": "nonce",
              "type": "uint256"
            },
            {
              "internalType": "uint256",
              "name": "tokenId",
              "type": "uint256"
            },
            {
              "internalType": "bytes",
              "name": "data",
              "type": "bytes"
            }
          ],
          "internalType": "struct IForwarder.ForwardRequest",
          "name": "req",
          "type": "tuple"
        },
        {
          "internalType": "bytes",
          "name": "signature",
          "type": "bytes"
        }
      ],
      "name": "verify",
      "outputs": [
        {
          "internalType": "bool",
          "name": "",
          "type": "bool"
        }
      ],
      "stateMutability": "view",
      "type": "function"
    },
    {
      "inputs": [
        {
          "internalType": "uint256",
          "name": "tokenId",
          "type": "uint256"
        }
      ],
      "name": "withdraw",
      "outputs": [],
      "stateMutability": "nonpayable",
      "type": "function"
    },
    {
      "inputs": [
        {
          "internalType": "uint256[]",
          "name": "tokenIds",
          "type": "uint256[]"
        }
      ],
      "name": "withdrawBatch",
      "outputs": [],
      "stateMutability": "nonpayable",
      "type": "function"
    },
    {
      "inputs": [
        {
          "internalType": "bytes",
          "name": "inputData",
          "type": "bytes"
        },
        {
          "internalType": "uint256",
          "name": "tokenId",
          "type": "uint256"
        },
        {
          "internalType": "string[]",
          "name": "keys",
          "type": "string[]"
        },
        {
          "internalType": "string[]",
          "name": "values",
          "type": "string[]"
        }
      ],
      "name": "withdrawFromPolygon",
      "outputs": [],
      "stateMutability": "nonpayable",
      "type": "function"
    },
    {
      "inputs": [
        {
          "internalType": "uint256",
          "name": "tokenId",
          "type": "uint256"
        }
      ],
      "name": "withdrawWithMetadata",
      "outputs": [],
      "stateMutability": "nonpayable",
      "type": "function"
    }
  ],
  "bytecode": "0x608060405234801561001057600080fd5b506153e7806100206000396000f3fe608060405234801561001057600080fd5b50600436106103db5760003560e01c80637e37479e1161020a578063b55bc61711610125578063cf2c52cb116100b8578063ec129eea11610087578063ec129eea146108f9578063efda4d3e1461090c578063f25eb5c11461091f578063f5c1f76e14610927578063ffa1ad741461093a57600080fd5b8063cf2c52cb14610890578063d3fc9864146108a3578063e985e9c5146108b6578063ebf0c717146108f257600080fd5b8063c4d66de8116100f4578063c4d66de814610844578063c87b56dd14610857578063cd279c7c1461086a578063ce92b33e1461087d57600080fd5b8063b55bc617146107ea578063b85afd28146107fd578063b88d4fde1461081e578063bb5b27e11461083157600080fd5b8063a22cb4651161019d578063ab3b87fe1161016c578063ab3b87fe1461079e578063ae31844a146107b1578063b0f59177146107c4578063b3f9e4cb146107d757600080fd5b8063a22cb4651461074c578063a3f4df7e1461075f578063a42474001461078b578063a5e584dc146104f557600080fd5b80639559c0bd116101d95780639559c0bd1461071657806395d89b411461071e57806399e0dd7c146107265780639c8d41561461073957600080fd5b80637e37479e146106ca5780637f139a00146106dd57806394d008ef146106f05780639508b1c41461070357600080fd5b8063430c2081116102fa5780636352211e1161028d5780636ccbae5f1161025c5780636ccbae5f1461067057806370a0823114610691578063728a44d8146106a4578063764a81bb146106b757600080fd5b80636352211e14610608578063638e5c781461061b578063672b9f811461062e57806368b62d321461064f57600080fd5b80634f558e79116102c95780634f558e79146105b357806350382c1a146105c657806350960239146105d9578063572b6c05146105ec57600080fd5b8063430c2081146105675780634348b5621461057a57806347c816991461058d5780634a72584d146105a057600080fd5b806323b872dd11610372578063384e9a5511610341578063384e9a551461051b57806340c10f191461052e57806342842e0e1461054157806342966c681461055457600080fd5b806323b872dd146104cf57806327f18975146104e25780632e1a7d4d146104f5578063310bd74b1461050857600080fd5b8063150b7a02116103ae578063150b7a021461045d5780631bd8cc1a146104895780631be5e7ed146104a95780631bf7e13e146104bc57600080fd5b806301ffc9a7146103e057806306fdde0314610408578063081812fc1461041d578063095ea7b314610448575b600080fd5b6103f36103ee366004614a65565b61095e565b60405190151581526020015b60405180910390f35b61041061096f565b6040516103ff9190614fa0565b61043061042b366004614ca6565b610a01565b6040516001600160a01b0390911681526020016103ff565b61045b6104563660046145fc565b610a28565b005b61047061046b3660046144a6565b610a7d565b6040516001600160e01b031990911681526020016103ff565b61049c610497366004614904565b610bd3565b6040516103ff9190614f01565b6104106104b7366004614bcd565b610cf3565b6104106104ca366004614c47565b610d3e565b61045b6104dd366004614466565b610e49565b61045b6104f0366004614894565b610ecf565b61045b610503366004614ca6565b610f4a565b61045b610516366004614ca6565b610fc6565b61045b610529366004614ca6565b611034565b61045b61053c3660046145fc565b6110f3565b61045b61054f366004614466565b611140565b61045b610562366004614ca6565b61115b565b6103f36105753660046145fc565b6111d2565b61045b610588366004614680565b6111de565b61045b61059b366004614b6f565b611243565b61045b6105ae366004614cee565b6112b5565b6103f36105c1366004614ca6565b61132e565b61045b6105d4366004614c02565b61134d565b61045b6105e73660046143f6565b611380565b6103f36105fa3660046143f6565b6001600160a01b0316301490565b610430610616366004614ca6565b6113e0565b61045b610629366004614ca6565b611440565b61064161063c366004614d3e565b61148b565b6040516103ff929190614fb3565b61066261065d366004614cbe565b6114a3565b6040519081526020016103ff565b61066261067e366004614ca6565b6000908152610100602052604090205490565b61066261069f3660046143f6565b6114e5565b61045b6106b23660046143f6565b61156b565b61045b6106c53660046143f6565b611612565b6106626106d83660046143f6565b6116c1565b61045b6106eb3660046143f6565b6116f3565b61045b6106fe366004614627565b611792565b61045b610711366004614a9d565b6117e1565b610662601481565b610410611868565b61045b610734366004614b3c565b611877565b61045b61074736600461494d565b6118fd565b61045b61075a36600461457f565b611a80565b6104106040518060400160405280600d81526020016c554e533a20526567697374727960981b81525081565b6103f3610799366004614c47565b611a92565b61045b6107ac3660046145fc565b611add565b61045b6107bf36600461494d565b611b55565b61045b6107d2366004614680565b611c01565b6104306107e5366004614ca6565b611c8a565b61045b6107f836600461480c565b611cb4565b61081061080b366004614904565b611d64565b6040516103ff929190614f14565b61045b61082c366004614516565b611ecc565b61041061083f366004614ca6565b611f46565b61045b6108523660046143f6565b611fe8565b610410610865366004614ca6565b612162565b61045b610878366004614627565b6121c8565b61045b61088b366004614894565b612252565b61045b61089e3660046145aa565b6122c4565b61045b6108b1366004614627565b6123a1565b6103f36108c436600461442e565b6001600160a01b039182166000908152606a6020908152604080832093909416825291909152205460ff1690565b6000610662565b61045b610907366004614894565b61241d565b61045b61091a366004614731565b61248f565b61045b61251d565b61049c61093536600461494d565b6125a3565b61041060405180604001604052806005815260200164302e352e3160d81b81525081565b600061096982612680565b92915050565b60606065805461097e906152e9565b80601f01602080910402602001604051908101604052809291908181526020018280546109aa906152e9565b80156109f75780601f106109cc576101008083540402835291602001916109f7565b820191906000526020600020905b8154815290600101906020018083116109da57829003601f168201915b5050505050905090565b6000610a0c826126d0565b506000908152606960205260409020546001600160a01b031690565b8030331415610a6557610a3961272f565b8114610a605760405162461bcd60e51b8152600401610a57906150ba565b60405180910390fd5b610a6e565b610a6e81612744565b610a788383612772565b505050565b60007f8ffb960699dc2ba88f34d0e41c029c3c36c95149679fe1d0153a9582bec92378546001600160a01b0316610ab2612895565b6001600160a01b03161415610b7457610ac9612895565b6001600160a01b03166342966c68856040518263ffffffff1660e01b8152600401610af691815260200190565b600060405180830381600087803b158015610b1057600080fd5b505af1158015610b24573d6000803e3d6000fd5b505050821580159150610b3e5750610b3e82840184614a33565b15610b5c57610b4d30856128a4565b610b5785856129f2565b610b66565b610b6685856128a4565b50630a85bd0160e11b610bca565b60405162461bcd60e51b815260206004820152602560248201527f52656769737472793a204552433732315f524543454956494e475f50524f4849604482015264109255115160da1b6064820152608401610a57565b95945050505050565b6060826001600160401b03811115610bfb57634e487b7160e01b600052604160045260246000fd5b604051908082528060200260200182016040528015610c2e57816020015b6060815260200190600190039081610c195790505b50905060005b83811015610ceb57610cad858583818110610c5f57634e487b7160e01b600052603260045260246000fd5b9050602002810190610c71919061517e565b8080601f016020809104026020016040519081016040528093929190818152602001838380828437600092019190915250879250612a93915050565b828281518110610ccd57634e487b7160e01b600052603260045260246000fd5b60200260200101819052508080610ce39061531e565b915050610c34565b509392505050565b6060610d3684848080601f016020809104026020016040519081016040528093929190818152602001838380828437600092019190915250869250612a93915050565b949350505050565b606060005a9050610d50858585611a92565b610dac5760405162461bcd60e51b815260206004820152602760248201527f554e535265676973747279466f727761726465723a205349474e41545552455f6044820152661253959053125160ca1b6064820152608401610a57565b610e3e610dbc60208701876143f6565b30604088013584610dd060608b018b61517e565b8080601f01602080910402602001604051908101604052809392919081815260200183838082843760009201919091525050604080516020601f8e018190048102820181019092528c815292508c91508b9081908401838280828437600092019190915250612ac892505050565b9150505b9392505050565b80610e5b610e55612895565b82612bb7565b610e775760405162461bcd60e51b8152600401610a5790614fd8565b8130331415610eab57610e8861272f565b8114610ea65760405162461bcd60e51b8152600401610a57906150ba565b610eb4565b610eb481612744565b610ebd83612c35565b610ec8858585612ca2565b5050505050565b80610edb610e55612895565b610ef75760405162461bcd60e51b8152600401610a5790614fd8565b8130331415610f2b57610f0861272f565b8114610f265760405162461bcd60e51b8152600401610a57906150ba565b610f34565b610f3481612744565b610f418787878787612e49565b50505050505050565b610f53816113e0565b6001600160a01b0316610f64612895565b6001600160a01b031614610fba5760405162461bcd60e51b815260206004820152601d60248201527f52656769737472793a20494e56414c49445f544f4b454e5f4f574e45520000006044820152606401610a57565b610fc381612ec8565b50565b80610fd2610e55612895565b610fee5760405162461bcd60e51b8152600401610a5790614fd8565b813033141561102257610fff61272f565b811461101d5760405162461bcd60e51b8152600401610a57906150ba565b61102b565b61102b81612744565b610a7883612c35565b8061103d612895565b6001600160a01b031661104f826113e0565b6001600160a01b0316146110a55760405162461bcd60e51b815260206004820152601d60248201527f52656769737472793a2053454e4445525f49535f4e4f545f4f574e45520000006044820152606401610a57565b81303314156110d9576110b661272f565b81146110d45760405162461bcd60e51b8152600401610a57906150ba565b6110e2565b6110e281612744565b610a786110ed612895565b84612f6f565b6110fb612fb7565b6001600160a01b031661110c612895565b6001600160a01b0316146111325760405162461bcd60e51b8152600401610a579061513c565b61113c82826128a4565b5050565b610a7883838360405180602001604052806000815250611ecc565b80611167610e55612895565b6111835760405162461bcd60e51b8152600401610a5790614fd8565b81303314156111b75761119461272f565b81146111b25760405162461bcd60e51b8152600401610a57906150ba565b6111c0565b6111c081612744565b6111c983612c35565b610a7883612ec8565b6000610e428383612bb7565b610134546001600160a01b03166111f3612895565b6001600160a01b0316146112195760405162461bcd60e51b8152600401610a5790615073565b6112398888888888888888604051806020016040528060008152506130ca565b5050505050505050565b8061124f610e55612895565b61126b5760405162461bcd60e51b8152600401610a5790614fd8565b813033141561129f5761127c61272f565b811461129a5760405162461bcd60e51b8152600401610a57906150ba565b6112a8565b6112a881612744565b610f418787878787613125565b806112c1610e55612895565b6112dd5760405162461bcd60e51b8152600401610a5790614fd8565b8130331415611311576112ee61272f565b811461130c5760405162461bcd60e51b8152600401610a57906150ba565b61131a565b61131a81612744565b61132686868686613204565b505050505050565b6000818152606760205260408120546001600160a01b03161515610969565b610fc3816040516020016113619190614e08565b6040516020818303038152906040528051906020012060001c826132a4565b610134546001600160a01b0316611395612895565b6001600160a01b0316146113bb5760405162461bcd60e51b8152600401610a5790615073565b6001600160a01b0316600090815261013660205260409020805460ff19166001179055565b6000818152606760205260408120546001600160a01b0316806109695760405162461bcd60e51b8152602060048201526018602482015277115490cdcc8c4e881a5b9d985b1a59081d1bdad95b88125160421b6044820152606401610a57565b8061144c610e55612895565b6114685760405162461bcd60e51b8152600401610a5790614fd8565b61147a611473612895565b3084612ca2565b61113c611485612895565b836129f2565b60608061149884846132d0565b909590945092505050565b6000610d368484848080601f0160208091040260200160405190810160405280939291908181526020018383808284376000920191909152506132f192505050565b60006001600160a01b03821661154f5760405162461bcd60e51b815260206004820152602960248201527f4552433732313a2061646472657373207a65726f206973206e6f7420612076616044820152683634b21037bbb732b960b91b6064820152608401610a57565b506001600160a01b031660009081526068602052604090205490565b6000805160206153bb833981519152546001600160a01b0316156115e05760405162461bcd60e51b815260206004820152602660248201527f52656769737472793a20524f4f545f434841494e5f4d414e454745525f4e4f546044820152655f454d50545960d01b6064820152608401610a57565b806000805160206153bb8339815191525b80546001600160a01b0319166001600160a01b039290921691909117905550565b7f8bea9a6f8afd34f4e29c585f854e0cc5161431bf5fc299d468454d33dce53b87546001600160a01b03161561169a5760405162461bcd60e51b815260206004820152602760248201527f52656769737472793a204348494c445f434841494e5f4d414e454745525f4e4f604482015266545f454d50545960c81b6064820152608401610a57565b807f8bea9a6f8afd34f4e29c585f854e0cc5161431bf5fc299d468454d33dce53b876115f1565b6001600160a01b038116600090815261013560205260408120546116e48161339e565b156116ed578091505b50919050565b7f8ffb960699dc2ba88f34d0e41c029c3c36c95149679fe1d0153a9582bec92378546001600160a01b03161561176b5760405162461bcd60e51b815260206004820181905260248201527f52656769737472793a20434e535f52454749535452595f4e4f545f454d5054596044820152606401610a57565b807f8ffb960699dc2ba88f34d0e41c029c3c36c95149679fe1d0153a9582bec923786115f1565b61179a612fb7565b6001600160a01b03166117ab612895565b6001600160a01b0316146117d15760405162461bcd60e51b8152600401610a579061513c565b6117db84846128a4565b50505050565b6117eb87876133e9565b6117f3612895565b6001600160a01b0316611805866113e0565b6001600160a01b03161461185b5760405162461bcd60e51b815260206004820152601d60248201527f52656769737472793a2053454e4445525f49535f4e4f545f4f574e45520000006044820152606401610a57565b610f418484848489613458565b60606066805461097e906152e9565b610134546001600160a01b031661188c612895565b6001600160a01b0316146118b25760405162461bcd60e51b8152600401610a5790615073565b6118bf61013383836141d6565b507f4b120d6a959a84a520fa48f5f937cca0e79129423487af7901213b5d2e89313b82826040516118f1929190614f8c565b60405180910390a15050565b80601481111561194f5760405162461bcd60e51b815260206004820152601d60248201527f52656769737472793a20455843454544535f42415443485f4c494d49540000006044820152606401610a57565b60005b81811015611a3057600084848381811061197c57634e487b7160e01b600052603260045260246000fd5b90506020020135905061198e816113e0565b6001600160a01b031661199f612895565b6001600160a01b031614816040516020016119e691907f52656769737472793a20494e56414c49445f544f4b454e5f4f574e45522000008152601e810191909152603e0190565b60405160208183030381529060405290611a135760405162461bcd60e51b8152600401610a579190614fa0565b50611a1d81612ec8565b5080611a288161531e565b915050611952565b50611a39612895565b6001600160a01b03167ff871896b17e9cb7a64941c62c188a4f5c621b86800e3d15452ece01ce56073df8484604051611a73929190614f39565b60405180910390a2505050565b61113c611a8b612895565b83836134e2565b6000610d36611aa085615235565b3085858080601f0160208091040260200160405190810160405280939291908181526020018383808284376000920191909152506135b192505050565b80611ae9610e55612895565b611b055760405162461bcd60e51b8152600401610a5790614fd8565b8130331415611b3957611b1661272f565b8114611b345760405162461bcd60e51b8152600401610a57906150ba565b611b42565b611b4281612744565b6117db611b4e846113e0565b8585612ca2565b610134546001600160a01b0316611b6a612895565b6001600160a01b031614611b905760405162461bcd60e51b8152600401610a5790615073565b60005b81811015610a785760016101376000858585818110611bc257634e487b7160e01b600052603260045260246000fd5b90506020020135815260200190815260200160002060006101000a81548160ff0219169083151502179055508080611bf99061531e565b915050611b93565b610134546001600160a01b0316611c16612895565b6001600160a01b031614611c3c5760405162461bcd60e51b8152600401610a5790615073565b611c7d888888888080601f01602080910402602001604051908101604052809392919081815260200183838082843760009201919091525061370992505050565b611239848484848b613458565b6000818152606760205260408120546001600160a01b0316611cad576000610969565b3092915050565b610134546001600160a01b0316611cc9612895565b6001600160a01b031614611cef5760405162461bcd60e51b8152600401610a5790615073565b611326868686868080601f01602080910402602001604051908101604052809392919081815260200183838082843760009201919091525050604080516020601f8a01819004810282018101909252888152925088915087908190840183828082843760009201919091525061375592505050565b606080836001600160401b03811115611d8d57634e487b7160e01b600052604160045260246000fd5b604051908082528060200260200182016040528015611dc057816020015b6060815260200190600190039081611dab5790505b509150836001600160401b03811115611de957634e487b7160e01b600052604160045260246000fd5b604051908082528060200260200182016040528015611e1c57816020015b6060815260200190600190039081611e075790505b50905060005b84811015611ec357611e5a868683818110611e4d57634e487b7160e01b600052603260045260246000fd5b90506020020135856132d0565b848381518110611e7a57634e487b7160e01b600052603260045260246000fd5b60200260200101848481518110611ea157634e487b7160e01b600052603260045260246000fd5b6020026020010182905282905250508080611ebb9061531e565b915050611e22565b50935093915050565b81611ed8610e55612895565b611ef45760405162461bcd60e51b8152600401610a5790614fd8565b8230331415611f2857611f0561272f565b8114611f235760405162461bcd60e51b8152600401610a57906150ba565b611f31565b611f3181612744565b611f3a84612c35565b611326868686866137a2565b600081815260c960205260409020805460609190611f63906152e9565b80601f0160208091040260200160405190810160405280929190818152602001828054611f8f906152e9565b8015611fdc5780601f10611fb157610100808354040283529160200191611fdc565b820191906000526020600020905b815481529060010190602001808311611fbf57829003601f168201915b50505050509050919050565b600054610100900460ff16158080156120085750600054600160ff909116105b806120225750303b158015612022575060005460ff166001145b6120855760405162461bcd60e51b815260206004820152602e60248201527f496e697469616c697a61626c653a20636f6e747261637420697320616c72656160448201526d191e481a5b9a5d1a585b1a5e995960921b6064820152608401610a57565b6000805460ff1916600117905580156120a8576000805461ff0019166101001790555b61013480546001600160a01b0319166001600160a01b0384161790556040805180820182526013815272556e73746f707061626c6520446f6d61696e7360681b60208083019190915282518084019093526002835261155160f21b90830152612110916137d5565b612118613823565b612120613823565b801561113c576000805461ff0019169055604051600181527f7f26b83ff96e1f2b6a682f133852f6798a09c465da95921460cefb3847402498906020016118f1565b606061216d826126d0565b600061217761384c565b905060008151116121975760405180602001604052806000815250610e42565b806121a18461385c565b6040516020016121b2929190614e73565b6040516020818303038152906040529392505050565b610134546001600160a01b03166121dd612895565b6001600160a01b0316146122035760405162461bcd60e51b8152600401610a5790615073565b6117db848484848080601f016020809104026020016040519081016040528093929190818152602001838380828437600092018290525060408051602081019091529081529250613755915050565b8061225e610e55612895565b61227a5760405162461bcd60e51b8152600401610a5790614fd8565b81303314156122ae5761228b61272f565b81146122a95760405162461bcd60e51b8152600401610a57906150ba565b6122b7565b6122b781612744565b610f418787878787613458565b7f8bea9a6f8afd34f4e29c585f854e0cc5161431bf5fc299d468454d33dce53b87546001600160a01b03166122f7612895565b6001600160a01b03161461231d5760405162461bcd60e51b8152600401610a579061513c565b602081141561234057600061233482840184614ca6565b90506117db84826128a4565b600061234e8284018461498c565b805190915060005b818110156113265761238f8684838151811061238257634e487b7160e01b600052603260045260246000fd5b60200260200101516128a4565b806123998161531e565b915050612356565b610134546001600160a01b03166123b6612895565b6001600160a01b0316146123dc5760405162461bcd60e51b8152600401610a5790615073565b6117db848484848080601f01602080910402602001604051908101604052809392919081815260200183838082843760009201919091525061370992505050565b80612429610e55612895565b6124455760405162461bcd60e51b8152600401610a5790614fd8565b81303314156124795761245661272f565b81146124745760405162461bcd60e51b8152600401610a57906150ba565b612482565b61248281612744565b610f418787878787613975565b610134546001600160a01b03166124a4612895565b6001600160a01b0316146124ca5760405162461bcd60e51b8152600401610a5790615073565b6125118a8a8a8a8a8a8a8a8a8a8080601f0160208091040260200160405190810160405280939291908181526020018383808284376000920191909152506130ca92505050565b50505050505050505050565b6000612527612895565b6001600160a01b0381166000908152610135602052604090205490915061259a5760405162461bcd60e51b815260206004820152602160248201527f52656769737472793a20524556455253455f5245434f52445f49535f454d50546044820152605960f81b6064820152608401610a57565b610fc38161398b565b6060816001600160401b038111156125cb57634e487b7160e01b600052604160045260246000fd5b6040519080825280602002602001820160405280156125fe57816020015b60608152602001906001900390816125e95790505b50905060005b828110156126795761263b84848381811061262f57634e487b7160e01b600052603260045260246000fd5b90506020020135611f46565b82828151811061265b57634e487b7160e01b600052603260045260246000fd5b602002602001018190525080806126719061531e565b915050612604565b5092915050565b60006001600160e01b031982166380ac58cd60e01b14806126b157506001600160e01b03198216635b5e139f60e01b145b8061096957506301ffc9a760e01b6001600160e01b0319831614610969565b6000818152606760205260409020546001600160a01b0316610fc35760405162461bcd60e51b8152602060048201526018602482015277115490cdcc8c4e881a5b9d985b1a59081d1bdad95b88125160421b6044820152606401610a57565b6000303314156127415750601f193601355b90565b6000818152610100602052604090205461275f9060016151f2565b6000918252610100602052604090912055565b600061277d826113e0565b9050806001600160a01b0316836001600160a01b031614156127eb5760405162461bcd60e51b815260206004820152602160248201527f4552433732313a20617070726f76616c20746f2063757272656e74206f776e656044820152603960f91b6064820152608401610a57565b806001600160a01b03166127fd612895565b6001600160a01b031614806128195750612819816108c4612895565b61288b5760405162461bcd60e51b815260206004820152603e60248201527f4552433732313a20617070726f76652063616c6c6572206973206e6f7420746f60448201527f6b656e206f776e6572206e6f7220617070726f76656420666f7220616c6c00006064820152608401610a57565b610a7883836139d0565b600061289f613a3e565b905090565b6001600160a01b0382166128fa5760405162461bcd60e51b815260206004820181905260248201527f4552433732313a206d696e7420746f20746865207a65726f20616464726573736044820152606401610a57565b6000818152606760205260409020546001600160a01b03161561295f5760405162461bcd60e51b815260206004820152601c60248201527f4552433732313a20746f6b656e20616c7265616479206d696e746564000000006044820152606401610a57565b61296b60008383613a5a565b6001600160a01b03821660009081526068602052604081208054600192906129949084906151f2565b909155505060008181526067602052604080822080546001600160a01b0319166001600160a01b03861690811790915590518392907fddf252ad1be2c89b69c2b068fc378daa952ba7f163c4a11628f55a4df523b3ef908290a45050565b60006129fc612fb7565b9050612a0881836139d0565b6000805160206153bb83398151915254604080516020808201869052825180830390910181528183019283905263e3dec8fb60e01b9092526001600160a01b0390921691829163e3dec8fb91612a65918891309190604401614ea2565b600060405180830381600087803b158015612a7f57600080fd5b505af1158015611239573d6000803e3d6000fd5b6060610e4283604051602001612aa99190614e08565b6040516020818303038152906040528051906020012060001c83613af7565b6060612ad385612744565b600080876001600160a01b031686612aed8b8a8989613bd8565b604051612afa9190614e08565b60006040518083038160008787f1925050503d8060008114612b38576040519150601f19603f3d011682016040523d82523d6000602084013e612b3d565b606091505b509092509050612b4e603f8761520a565b5a11612b6a57634e487b7160e01b600052600160045260246000fd5b612baa82826040518060400160405280601a81526020017f42617365466f727761726465723a2043414c4c5f4641494c4544000000000000815250613c08565b9998505050505050505050565b600080612bc3836113e0565b9050806001600160a01b0316846001600160a01b03161480612c0a57506001600160a01b038082166000908152606a602090815260408083209388168352929052205460ff165b80610d365750836001600160a01b0316612c2384610a01565b6001600160a01b031614949350505050565b612c3e81613c41565b604051602001612c5091815260200190565b60408051601f198184030181528282528051602091820120600085815260cb9092529181209190915582917f185c30856dadb58bf097c1f665a52ada7029752dbcad008ea3fefc73bee8c9fe9190a250565b826001600160a01b0316612cb5826113e0565b6001600160a01b031614612d195760405162461bcd60e51b815260206004820152602560248201527f4552433732313a207472616e736665722066726f6d20696e636f72726563742060448201526437bbb732b960d91b6064820152608401610a57565b6001600160a01b038216612d7b5760405162461bcd60e51b8152602060048201526024808201527f4552433732313a207472616e7366657220746f20746865207a65726f206164646044820152637265737360e01b6064820152608401610a57565b612d86838383613a5a565b612d916000826139d0565b6001600160a01b0383166000908152606860205260408120805460019290612dba90849061521e565b90915550506001600160a01b0382166000908152606860205260408120805460019290612de89084906151f2565b909155505060008181526067602052604080822080546001600160a01b0319166001600160a01b0386811691821790925591518493918716917fddf252ad1be2c89b69c2b068fc378daa952ba7f163c4a11628f55a4df523b3ef91a4505050565b60005b8481101561132657612eb6868683818110612e7757634e487b7160e01b600052603260045260246000fd5b90506020020135858584818110612e9e57634e487b7160e01b600052603260045260246000fd5b9050602002810190612eb0919061517e565b85613204565b80612ec08161531e565b915050612e4c565b6000612ed3826113e0565b9050612ee181600084613a5a565b612eec6000836139d0565b6001600160a01b0381166000908152606860205260408120805460019290612f1590849061521e565b909155505060008281526067602052604080822080546001600160a01b0319169055518391906001600160a01b038416907fddf252ad1be2c89b69c2b068fc378daa952ba7f163c4a11628f55a4df523b3ef908390a45050565b6001600160a01b03821660008181526101356020526040808220849055518392917feb76a21470988c474a21f690cc28fee1ed511bd812dc3c21fd0f49c5e5d4708a91a35050565b6000806000805160206153bb8339815191525460405163721804d360e11b81523060048201526001600160a01b039091169150600090829063e43009a69060240160206040518083038186803b15801561301057600080fd5b505afa158015613024573d6000803e3d6000fd5b505050506040513d601f19601f820116820180604052508101906130489190614a4d565b60405163e66f960360e01b8152600481018290529091506001600160a01b0383169063e66f96039060240160206040518083038186803b15801561308b57600080fd5b505afa15801561309f573d6000803e3d6000fd5b505050506040513d601f19601f820116820180604052508101906130c39190614412565b9250505090565b61310d898989898080601f016020809104026020016040519081016040528093929190818152602001838380828437600092019190915250879250613755915050565b61311a858585858c613458565b505050505050505050565b6000858560405160200161313a929190614e63565b60408051601f198184030181528282528051602091820120601f890182900482028401820190925287835290925061318e91839189908990819084018382808284376000920191909152506132a492505050565b6113268187878080601f01602080910402602001604051908101604052809392919081815260200183838082843760009201919091525050604080516020601f8b018190048102820181019092528981529250899150889081908401838280828437600092019190915250889250613c6d915050565b61320d84613da8565b6132595760405162461bcd60e51b815260206004820152601c60248201527f5265636f726453746f726167653a204b45595f4e4f545f464f554e44000000006044820152606401610a57565b6117db8461326686611f46565b85858080601f016020809104026020016040519081016040528093929190818152602001838380828437600092019190915250879250613c6d915050565b6132ad82613da8565b61113c57600082815260c9602090815260409091208251610a7892840190614256565b6060806132dc84611f46565b91506132e88484613af7565b90509250929050565b600081516000141561333d5760405162461bcd60e51b815260206004820152601560248201527452656769737472793a204c4142454c5f454d50545960581b6044820152606401610a57565b828260405160200161334f9190614e08565b6040516020818303038152906040528051906020012060405160200161337f929190918252602082015260400190565b60408051601f1981840301815291905280516020909101209392505050565b6000818152610137602052604081205460ff161580610969575061013660006133c5612895565b6001600160a01b0316815260208101919091526040016000205460ff161592915050565b6000805160206153bb83398151915254604051633805550f60e01b81526001600160a01b03909116908190633805550f9061342a9086908690600401614f8c565b600060405180830381600087803b15801561344457600080fd5b505af1158015610f41573d6000803e3d6000fd5b60005b84811015611326576134d086868381811061348657634e487b7160e01b600052603260045260246000fd5b9050602002810190613498919061517e565b8686858181106134b857634e487b7160e01b600052603260045260246000fd5b90506020028101906134ca919061517e565b86613125565b806134da8161531e565b91505061345b565b816001600160a01b0316836001600160a01b031614156135445760405162461bcd60e51b815260206004820152601960248201527f4552433732313a20617070726f766520746f2063616c6c6572000000000000006044820152606401610a57565b6001600160a01b038381166000818152606a6020908152604080832094871680845294825291829020805460ff191686151590811790915591519182527f17307eab39ab6107e8899845ad3d59bd9653f200f220920489ca2b5937696c31910160405180910390a3505050565b6040838101519051636ccbae5f60e01b8152600481019190915260009081903090636ccbae5f9060240160206040518083038186803b1580156135f357600080fd5b505afa158015613607573d6000803e3d6000fd5b505050506040513d601f19601f8201168201806040525081019061362b9190614a4d565b905060006136d98660600151805190602001208688602001516040516020016136799392919092835260609190911b6bffffffffffffffffffffffff19166020830152603482015260540190565b60408051601f1981840301815282825280516020918201207f19457468657265756d205369676e6564204d6573736167653a0a33320000000084830152603c8085019190915282518085039091018152605c909301909152815191012090565b90508186602001511480156136ff575085516136ff906001600160a01b03168286613dce565b9695505050505050565b61371383836128a4565b817fc5beef08f693b11c316c0c8394a377a0033c9cf701b8cd8afd79cecef60c3952826040516137439190614fa0565b60405180910390a2610a788383613f1e565b613760848483613f5f565b827fc5beef08f693b11c316c0c8394a377a0033c9cf701b8cd8afd79cecef60c3952836040516137909190614fa0565b60405180910390a26117db8484613f1e565b6137ad848484612ca2565b6137b984848484613f92565b6117db5760405162461bcd60e51b8152600401610a5790615021565b600054610100900460ff166137fc5760405162461bcd60e51b8152600401610a57906150f1565b815161380f906065906020850190614256565b508051610a78906066906020840190614256565b600054610100900460ff1661384a5760405162461bcd60e51b8152600401610a57906150f1565b565b6060610133805461097e906152e9565b6060816138805750506040805180820190915260018152600360fc1b602082015290565b8160005b81156138aa57806138948161531e565b91506138a39050600a8361520a565b9150613884565b6000816001600160401b038111156138d257634e487b7160e01b600052604160045260246000fd5b6040519080825280601f01601f1916602001820160405280156138fc576020820181803683370190505b5090505b8415610d365761391160018361521e565b915061391e600a86615339565b6139299060306151f2565b60f81b81838151811061394c57634e487b7160e01b600052603260045260246000fd5b60200101906001600160f81b031916908160001a90535061396e600a8661520a565b9450613900565b61397e81612c35565b610ec88585858585613458565b6001600160a01b03811660008181526101356020526040808220829055517ffcf5eec0cfa3e6332f5f0e63ec242d71f866a61d121d6cdf5c2eb3b668a26c4f9190a250565b600081815260696020526040902080546001600160a01b0319166001600160a01b0384169081179091558190613a05826113e0565b6001600160a01b03167f8c5be1e5ebec7d5bd14f71427d1e84f3dd0314c0f7b2291e5b200ac8c7c3b92560405160405180910390a45050565b600030331415613a55575060331936013560601c90565b503390565b6000818152610137602052604090205460ff161580613a8157506001600160a01b03821615155b613acd5760405162461bcd60e51b815260206004820152601860248201527f52656769737472793a20544f4b454e5f555047524144454400000000000000006044820152606401610a57565b6001600160a01b03831660009081526101356020526040902054811415610a7857610a788361398b565b6060613b028261339e565b613b1b5750604080516020810190915260008152610969565b60ca6000613b2884613c41565b815260200190815260200160002060008481526020019081526020016000208054613b52906152e9565b80601f0160208091040260200160405190810160405280929190818152602001828054613b7e906152e9565b8015613bcb5780601f10613ba057610100808354040283529160200191613bcb565b820191906000526020600020905b815481529060010190602001808311613bae57829003601f168201915b5050505050905092915050565b6060828585604051602001613bef93929190614e24565b6040516020818303038152906040529050949350505050565b60608315613c17575081610e42565b825115613c275782518084602001fd5b8160405162461bcd60e51b8152600401610a579190614fa0565b600081815260cb602052604081205415613c6957600082815260cb6020526040902054610969565b5090565b60ca6000613c7a83613c41565b815260200190815260200160002060008581526020019081526020016000208054613ca4906152e9565b15159050613cfb5782604051613cba9190614e08565b6040518091039020817f7ae4f661958fbecc2f77be6b0eb280d2a6f604b29e1e7221c82b9da0c4af7f8685604051613cf29190614fa0565b60405180910390a35b8160ca6000613d0984613c41565b815260200190815260200160002060008681526020019081526020016000209080519060200190613d3b929190614256565b5081604051613d4a9190614e08565b604051809103902083604051613d609190614e08565b6040518091039020827f851ffe8e74d5015261dba0a1f9e1b0e5d42c5af5d2ad1908fee897c7d80a0d928686604051613d9a929190614fb3565b60405180910390a450505050565b600081815260c9602052604081208054829190613dc4906152e9565b9050119050919050565b6000806000613ddd85856140a3565b90925090506000816004811115613e0457634e487b7160e01b600052602160045260246000fd5b148015613e225750856001600160a01b0316826001600160a01b0316145b15613e3257600192505050610e42565b600080876001600160a01b0316631626ba7e60e01b8888604051602401613e5a929190614f73565b60408051601f198184030181529181526020820180516001600160e01b03166001600160e01b0319909416939093179092529051613e989190614e08565b600060405180830381855afa9150503d8060008114613ed3576040519150601f19603f3d011682016040523d82523d6000602084013e613ed8565b606091505b5091509150818015613eeb575080516020145b8015613f1257508051630b135d3f60e11b90613f109083016020908101908401614a4d565b145b98975050505050505050565b61dead6001600160a01b03831614801590613f5057506001600160a01b03821660009081526101356020526040902054155b1561113c5761113c8282612f6f565b613f6983836128a4565b613f766000848484613f92565b610a785760405162461bcd60e51b8152600401610a5790615021565b60006001600160a01b0384163b1561409b57836001600160a01b031663150b7a02613fbb612895565b8786866040518563ffffffff1660e01b8152600401613fdd9493929190614ece565b602060405180830381600087803b158015613ff757600080fd5b505af1925050508015614027575060408051601f3d908101601f1916820190925261402491810190614a81565b60015b614081573d808015614055576040519150601f19603f3d011682016040523d82523d6000602084013e61405a565b606091505b5080516140795760405162461bcd60e51b8152600401610a5790615021565b805181602001fd5b6001600160e01b031916630a85bd0160e11b149050610d36565b506001610d36565b6000808251604114156140da5760208301516040840151606085015160001a6140ce878285856140e9565b945094505050506140e2565b506000905060025b9250929050565b6000807f7fffffffffffffffffffffffffffffff5d576e7357a4501ddfe92f46681b20a083111561412057506000905060036141cd565b8460ff16601b1415801561413857508460ff16601c14155b1561414957506000905060046141cd565b6040805160008082526020820180845289905260ff881692820192909252606081018690526080810185905260019060a0016020604051602081039080840390855afa15801561419d573d6000803e3d6000fd5b5050604051601f1901519150506001600160a01b0381166141c6576000600192509250506141cd565b9150600090505b94509492505050565b8280546141e2906152e9565b90600052602060002090601f016020900481019282614204576000855561424a565b82601f1061421d5782800160ff1982351617855561424a565b8280016001018555821561424a579182015b8281111561424a57823582559160200191906001019061422f565b50613c699291506142ca565b828054614262906152e9565b90600052602060002090601f016020900481019282614284576000855561424a565b82601f1061429d57805160ff191683800117855561424a565b8280016001018555821561424a579182015b8281111561424a5782518255916020019190600101906142af565b5b80821115613c6957600081556001016142cb565b60006001600160401b038311156142f8576142f8615379565b61430b601f8401601f19166020016151c2565b905082815283838301111561431f57600080fd5b828260208301376000602084830101529392505050565b80356143418161538f565b919050565b60008083601f840112614357578182fd5b5081356001600160401b0381111561436d578182fd5b6020830191508360208260051b85010111156140e257600080fd5b8035801515811461434157600080fd5b60008083601f8401126143a9578182fd5b5081356001600160401b038111156143bf578182fd5b6020830191508360208285010111156140e257600080fd5b600082601f8301126143e7578081fd5b610e42838335602085016142df565b600060208284031215614407578081fd5b8135610e428161538f565b600060208284031215614423578081fd5b8151610e428161538f565b60008060408385031215614440578081fd5b823561444b8161538f565b9150602083013561445b8161538f565b809150509250929050565b60008060006060848603121561447a578081fd5b83356144858161538f565b925060208401356144958161538f565b929592945050506040919091013590565b6000806000806000608086880312156144bd578081fd5b85356144c88161538f565b945060208601356144d88161538f565b93506040860135925060608601356001600160401b038111156144f9578182fd5b61450588828901614398565b969995985093965092949392505050565b6000806000806080858703121561452b578182fd5b84356145368161538f565b935060208501356145468161538f565b92506040850135915060608501356001600160401b03811115614567578182fd5b614573878288016143d7565b91505092959194509250565b60008060408385031215614591578182fd5b823561459c8161538f565b91506132e860208401614388565b6000806000604084860312156145be578081fd5b83356145c98161538f565b925060208401356001600160401b038111156145e3578182fd5b6145ef86828701614398565b9497909650939450505050565b6000806040838503121561460e578182fd5b82356146198161538f565b946020939093013593505050565b6000806000806060858703121561463c578182fd5b84356146478161538f565b93506020850135925060408501356001600160401b03811115614668578283fd5b61467487828801614398565b95989497509550505050565b60008060008060008060008060a0898b03121561469b578586fd5b88356146a68161538f565b97506020890135965060408901356001600160401b03808211156146c8578788fd5b6146d48c838d01614398565b909850965060608b01359150808211156146ec578485fd5b6146f88c838d01614346565b909650945060808b0135915080821115614710578384fd5b5061471d8b828c01614346565b999c989b5096995094979396929594505050565b60008060008060008060008060008060c08b8d03121561474f578384fd5b6147588b614336565b995060208b0135985060408b01356001600160401b038082111561477a578586fd5b6147868e838f01614398565b909a50985060608d013591508082111561479e578586fd5b6147aa8e838f01614346565b909850965060808d01359150808211156147c2578586fd5b6147ce8e838f01614346565b909650945060a08d01359150808211156147e6578384fd5b506147f38d828e01614398565b915080935050809150509295989b9194979a5092959850565b60008060008060008060808789031215614824578384fd5b863561482f8161538f565b95506020870135945060408701356001600160401b0380821115614851578586fd5b61485d8a838b01614398565b90965094506060890135915080821115614875578384fd5b5061488289828a01614398565b979a9699509497509295939492505050565b6000806000806000606086880312156148ab578283fd5b85356001600160401b03808211156148c1578485fd5b6148cd89838a01614346565b909750955060208801359150808211156148e5578485fd5b506148f288828901614346565b96999598509660400135949350505050565b600080600060408486031215614918578081fd5b83356001600160401b0381111561492d578182fd5b61493986828701614346565b909790965060209590950135949350505050565b6000806020838503121561495f578182fd5b82356001600160401b03811115614974578283fd5b61498085828601614346565b90969095509350505050565b6000602080838503121561499e578182fd5b82356001600160401b03808211156149b4578384fd5b818501915085601f8301126149c7578384fd5b8135818111156149d9576149d9615379565b8060051b91506149ea8483016151c2565b8181528481019084860184860187018a1015614a04578788fd5b8795505b83861015614a26578035835260019590950194918601918601614a08565b5098975050505050505050565b600060208284031215614a44578081fd5b610e4282614388565b600060208284031215614a5e578081fd5b5051919050565b600060208284031215614a76578081fd5b8135610e42816153a4565b600060208284031215614a92578081fd5b8151610e42816153a4565b60008060008060008060006080888a031215614ab7578081fd5b87356001600160401b0380821115614acd578283fd5b614ad98b838c01614398565b909950975060208a0135965060408a0135915080821115614af8578283fd5b614b048b838c01614346565b909650945060608a0135915080821115614b1c578283fd5b50614b298a828b01614346565b989b979a50959850939692959293505050565b60008060208385031215614b4e578182fd5b82356001600160401b03811115614b63578283fd5b61498085828601614398565b600080600080600060608688031215614b86578283fd5b85356001600160401b0380821115614b9c578485fd5b614ba889838a01614398565b90975095506020880135915080821115614bc0578485fd5b506148f288828901614398565b600080600060408486031215614be1578081fd5b83356001600160401b03811115614bf6578182fd5b61493986828701614398565b600060208284031215614c13578081fd5b81356001600160401b03811115614c28578182fd5b8201601f81018413614c38578182fd5b610d36848235602084016142df565b600080600060408486031215614c5b578081fd5b83356001600160401b0380821115614c71578283fd5b9085019060808288031215614c84578283fd5b90935060208501359080821115614c99578283fd5b506145ef86828701614398565b600060208284031215614cb7578081fd5b5035919050565b600080600060408486031215614cd2578081fd5b8335925060208401356001600160401b038111156145e3578182fd5b60008060008060608587031215614d03578182fd5b8435935060208501356001600160401b03811115614d1f578283fd5b614d2b87828801614398565b9598909750949560400135949350505050565b60008060408385031215614d50578182fd5b50508035926020909101359150565b600081518084526020808501808196508360051b81019150828601855b85811015614da6578284038952614d94848351614ddc565b98850198935090840190600101614d7c565b5091979650505050505050565b81835281816020850137506000828201602090810191909152601f909101601f19169091010190565b60008151808452614df48160208601602086016152bd565b601f01601f19169290920160200192915050565b60008251614e1a8184602087016152bd565b9190910192915050565b60008451614e368184602089016152bd565b60609490941b6bffffffffffffffffffffffff191691909301908152601481019190915260340192915050565b8183823760009101908152919050565b60008351614e858184602088016152bd565b835190830190614e998183602088016152bd565b01949350505050565b6001600160a01b03848116825283166020820152606060408201819052600090610bca90830184614ddc565b6001600160a01b03858116825284166020820152604081018390526080606082018190526000906136ff90830184614ddc565b602081526000610e426020830184614d5f565b604081526000614f276040830185614d5f565b8281036020840152610e3e8185614d5f565b6020808252810182905260006001600160fb1b03831115614f58578081fd5b8260051b808560408501379190910160400190815292915050565b828152604060208201526000610d366040830184614ddc565b602081526000610d36602083018486614db3565b602081526000610e426020830184614ddc565b604081526000614fc66040830185614ddc565b8281036020840152610e3e8185614ddc565b60208082526029908201527f52656769737472793a2053454e4445525f49535f4e4f545f415050524f5645446040820152682fa7a92fa7aba722a960b91b606082015260800190565b60208082526032908201527f4552433732313a207472616e7366657220746f206e6f6e20455243373231526560408201527131b2b4bb32b91034b6b83632b6b2b73a32b960711b606082015260800190565b60208082526027908201527f52656769737472793a2053454e4445525f49535f4e4f545f4d494e54494e475f60408201526626a0a720a3a2a960c91b606082015260800190565b60208082526017908201527f52656769737472793a20544f4b454e5f494e56414c4944000000000000000000604082015260600190565b6020808252602b908201527f496e697469616c697a61626c653a20636f6e7472616374206973206e6f74206960408201526a6e697469616c697a696e6760a81b606082015260800190565b60208082526022908201527f52656769737472793a20494e53554646494349454e545f5045524d495353494f6040820152614e5360f01b606082015260800190565b6000808335601e19843603018112615194578283fd5b8301803591506001600160401b038211156151ad578283fd5b6020019150368190038213156140e257600080fd5b604051601f8201601f191681016001600160401b03811182821017156151ea576151ea615379565b604052919050565b600082198211156152055761520561534d565b500190565b60008261521957615219615363565b500490565b6000828210156152305761523061534d565b500390565b600060808236031215615246578081fd5b604051608081016001600160401b03828210818311171561526957615269615379565b816040528435915061527a8261538f565b818352602085013560208401526040850135604084015260608501359150808211156152a4578384fd5b506152b1368286016143d7565b60608301525092915050565b60005b838110156152d85781810151838201526020016152c0565b838111156117db5750506000910152565b600181811c908216806152fd57607f821691505b602082108114156116ed57634e487b7160e01b600052602260045260246000fd5b60006000198214156153325761533261534d565b5060010190565b60008261534857615348615363565b500690565b634e487b7160e01b600052601160045260246000fd5b634e487b7160e01b600052601260045260246000fd5b634e487b7160e01b600052604160045260246000fd5b6001600160a01b0381168114610fc357600080fd5b6001600160e01b031981168114610fc357600080fdfebe2bb46ac0377341a1ec5c3116d70fd5029d704bd46292e58f6265dd177ebafea164736f6c6343000804000a",
  "linkReferences": {},
  "deployedLinkReferences": {}
}