{
  "_format": "hh-sol-artifact-1",
  "contractName": "UserSmartAccount",
  "sourceName": "contracts/smartAccounts/UserSmartAccount.sol",
  "abi": [
    {
      "inputs": [],
      "stateMutability": "nonpayable",
      "type": "constructor"
    },
    {
      "inputs": [],
      "name": "InvalidShortString",
      "type": "error"
    },
    {
      "inputs": [
        {
          "internalType": "string",
          "name": "str",
          "type": "string"
        }
      ],
      "name": "StringTooLong",
      "type": "error"
    },
    {
      "anonymous": false,
      "inputs": [
        {
          "indexed": true,
          "internalType": "uint256",
          "name": "nonce",
          "type": "uint256"
        },
        {
          "components": [
            {
              "internalType": "address",
              "name": "to",
              "type": "address"
            },
            {
              "internalType": "uint256",
              "name": "value",
              "type": "uint256"
            },
            {
              "internalType": "bytes",
              "name": "data",
              "type": "bytes"
            }
          ],
          "indexed": false,
          "internalType": "struct ISmartAccount.Call[]",
          "name": "calls",
          "type": "tuple[]"
        }
      ],
      "name": "BatchExecuted",
      "type": "event"
    },
    {
      "anonymous": false,
      "inputs": [
        {
          "indexed": true,
          "internalType": "address",
          "name": "sender",
          "type": "address"
        },
        {
          "indexed": true,
          "internalType": "address",
          "name": "to",
          "type": "address"
        },
        {
          "indexed": false,
          "internalType": "uint256",
          "name": "value",
          "type": "uint256"
        },
        {
          "indexed": false,
          "internalType": "bytes",
          "name": "data",
          "type": "bytes"
        }
      ],
      "name": "CallExecuted",
      "type": "event"
    },
    {
      "anonymous": false,
      "inputs": [],
      "name": "EIP712DomainChanged",
      "type": "event"
    },
    {
      "stateMutability": "payable",
      "type": "fallback"
    },
    {
      "inputs": [],
      "name": "SMART_ACCOUNT_TYPEHASH",
      "outputs": [
        {
          "internalType": "bytes32",
          "name": "",
          "type": "bytes32"
        }
      ],
      "stateMutability": "view",
      "type": "function"
    },
    {
      "inputs": [],
      "name": "eip712Domain",
      "outputs": [
        {
          "internalType": "bytes1",
          "name": "fields",
          "type": "bytes1"
        },
        {
          "internalType": "string",
          "name": "name",
          "type": "string"
        },
        {
          "internalType": "string",
          "name": "version",
          "type": "string"
        },
        {
          "internalType": "uint256",
          "name": "chainId",
          "type": "uint256"
        },
        {
          "internalType": "address",
          "name": "verifyingContract",
          "type": "address"
        },
        {
          "internalType": "bytes32",
          "name": "salt",
          "type": "bytes32"
        },
        {
          "internalType": "uint256[]",
          "name": "extensions",
          "type": "uint256[]"
        }
      ],
      "stateMutability": "view",
      "type": "function"
    },
    {
      "inputs": [
        {
          "components": [
            {
              "internalType": "address",
              "name": "to",
              "type": "address"
            },
            {
              "internalType": "uint256",
              "name": "value",
              "type": "uint256"
            },
            {
              "internalType": "bytes",
              "name": "data",
              "type": "bytes"
            }
          ],
          "internalType": "struct ISmartAccount.Call[]",
          "name": "calls",
          "type": "tuple[]"
        }
      ],
      "name": "encodeCalls",
      "outputs": [
        {
          "internalType": "bytes32",
          "name": "encodedCalls",
          "type": "bytes32"
        }
      ],
      "stateMutability": "pure",
      "type": "function"
    },
    {
      "inputs": [
        {
          "components": [
            {
              "internalType": "address",
              "name": "to",
              "type": "address"
            },
            {
              "internalType": "uint256",
              "name": "value",
              "type": "uint256"
            },
            {
              "internalType": "bytes",
              "name": "data",
              "type": "bytes"
            }
          ],
          "internalType": "struct ISmartAccount.Call[]",
          "name": "calls",
          "type": "tuple[]"
        }
      ],
      "name": "execute",
      "outputs": [],
      "stateMutability": "payable",
      "type": "function"
    },
    {
      "inputs": [
        {
          "components": [
            {
              "internalType": "address",
              "name": "to",
              "type": "address"
            },
            {
              "internalType": "uint256",
              "name": "value",
              "type": "uint256"
            },
            {
              "internalType": "bytes",
              "name": "data",
              "type": "bytes"
            }
          ],
          "internalType": "struct ISmartAccount.Call[]",
          "name": "calls",
          "type": "tuple[]"
        },
        {
          "internalType": "uint256",
          "name": "deadline",
          "type": "uint256"
        },
        {
          "components": [
            {
              "internalType": "uint8",
              "name": "v",
              "type": "uint8"
            },
            {
              "internalType": "bytes32",
              "name": "r",
              "type": "bytes32"
            },
            {
              "internalType": "bytes32",
              "name": "s",
              "type": "bytes32"
            }
          ],
          "internalType": "struct ISmartAccount.SplitSignature",
          "name": "signature",
          "type": "tuple"
        }
      ],
      "name": "execute",
      "outputs": [],
      "stateMutability": "payable",
      "type": "function"
    },
    {
      "inputs": [],
      "name": "nonce",
      "outputs": [
        {
          "internalType": "uint256",
          "name": "",
          "type": "uint256"
        }
      ],
      "stateMutability": "view",
      "type": "function"
    },
    {
      "stateMutability": "payable",
      "type": "receive"
    }
  ],
  "bytecode": "0x61016060405234801562000011575f80fd5b50604080518082018252601081526f155cd95c94db585c9d1058d8dbdd5b9d60821b602080830191909152825180840190935260018352603160f81b90830152906200005e825f6200010b565b610120526200006f8160016200010b565b61014052815160208084019190912060e052815190820120610100524660a052620000fc60e05161010051604080517f8b73c3c69bb8fe3d512ecc4cf759cc79239f7b179b0ffacaa9a75d522b39400f60208201529081019290925260608201524660808201523060a08201525f9060c00160405160208183030381529060405280519060200120905090565b60805250503060c0526200036a565b5f6020835110156200012a57620001228362000143565b90506200013d565b816200013784826200022c565b5060ff90505b92915050565b5f80829050601f8151111562000179578260405163305a27a960e01b8152600401620001709190620002f8565b60405180910390fd5b8051620001868262000346565b179392505050565b634e487b7160e01b5f52604160045260245ffd5b600181811c90821680620001b757607f821691505b602082108103620001d657634e487b7160e01b5f52602260045260245ffd5b50919050565b601f8211156200022757805f5260205f20601f840160051c81016020851015620002035750805b601f840160051c820191505b8181101562000224575f81556001016200020f565b50505b505050565b81516001600160401b038111156200024857620002486200018e565b6200026081620002598454620001a2565b84620001dc565b602080601f83116001811462000296575f84156200027e5750858301515b5f19600386901b1c1916600185901b178555620002f0565b5f85815260208120601f198616915b82811015620002c657888601518255948401946001909101908401620002a5565b5085821015620002e457878501515f19600388901b60f8161c191681555b505060018460011b0185555b505050505050565b5f602080835283518060208501525f5b81811015620003265785810183015185820160400152820162000308565b505f604082860101526040601f19601f8301168501019250505092915050565b80516020808301519190811015620001d6575f1960209190910360031b1b16919050565b60805160a05160c05160e051610100516101205161014051610f7c620003bc5f395f6101d501525f6101ab01525f61085d01525f61083501525f61079001525f6107ba01525f6107e40152610f7c5ff3fe608060405260043610610055575f3560e01c80633f707e6b1461005e57806370ecec441461007157806384b0196e146100b75780639b2bd7f9146100de578063affed0e0146100fd578063b0b6d7161461011d57005b3661005c57005b005b61005c61006c366004610b2a565b610130565b34801561007c575f80fd5b506100a47f0833d20926eeef7c1ae2a08b76639e026bf0059a10732018b6b7c4387838e37f81565b6040519081526020015b60405180910390f35b3480156100c2575f80fd5b506100cb61019e565b6040516100ae9796959493929190610bac565b3480156100e9575f80fd5b506100a46100f8366004610b2a565b610224565b348015610108575f80fd5b505f80516020610f50833981519152546100a4565b61005c61012b366004610c43565b6102f9565b3330146101905760405162461bcd60e51b815260206004820152602360248201527f55736572536d6172744163636f756e743a20496e76616c696420617574686f7260448201526269747960e81b60648201526084015b60405180910390fd5b61019a828261046e565b5050565b5f606080828080836101d07f00000000000000000000000000000000000000000000000000000000000000008361050c565b6101fb7f0000000000000000000000000000000000000000000000000000000000000000600161050c565b604080515f80825260208201909252600f60f81b9b939a50919850469750309650945092509050565b5f805b828110156102f2578184848381811061024257610242610ca5565b90506020028101906102549190610cb9565b610262906020810190610cf2565b85858481811061027457610274610ca5565b90506020028101906102869190610cb9565b6020013586868581811061029c5761029c610ca5565b90506020028101906102ae9190610cb9565b6102bc906040810190610d12565b6040516020016102d0959493929190610d55565b60408051601f1981840301815291905280516020909101209150600101610227565b5092915050565b8142106103535760405162461bcd60e51b815260206004820152602260248201527f55736572536d6172744163636f756e743a20446561646c696e65206578706972604482015261195960f21b6064820152608401610187565b5f6103d37f0833d20926eeef7c1ae2a08b76639e026bf0059a10732018b6b7c4387838e37f61038d5f80516020610f508339815191525490565b6103978888610224565b60408051602081019490945283019190915260608201526080810185905260a001604051602081830303815290604052805190602001206105b7565b90505f6103f6826103e76020860186610d8e565b856020013586604001356105e3565b90506001600160a01b038116301461045c5760405162461bcd60e51b815260206004820152602360248201527f55736572536d6172744163636f756e743a20496e76616c6964207369676e617460448201526275726560e81b6064820152608401610187565b610466868661046e565b505050505050565b5f6104845f80516020610f508339815191525490565b905061048e610609565b5f5b828110156104cc576104c48484838181106104ad576104ad610ca5565b90506020028101906104bf9190610cb9565b61062b565b600101610490565b50807f280bb3599696acbf79fb8ffcde81a57337b52500f789600fbb1cff9b4cbaba3984846040516104ff929190610dd6565b60405180910390a2505050565b606060ff83146105265761051f83610747565b90506105b1565b81805461053290610eae565b80601f016020809104026020016040519081016040528092919081815260200182805461055e90610eae565b80156105a95780601f10610580576101008083540402835291602001916105a9565b820191905f5260205f20905b81548152906001019060200180831161058c57829003601f168201915b505050505090505b92915050565b5f6105b16105c3610784565b8360405161190160f01b8152600281019290925260228201526042902090565b5f805f6105f2878787876108b2565b915091506105ff8161096f565b5095945050505050565b5f80516020610f508339815191528054905f61062483610ee6565b9190505550565b5f6106396020830183610cf2565b6001600160a01b031660208301356106546040850185610d12565b604051610662929190610f0a565b5f6040518083038185875af1925050503d805f811461069c576040519150601f19603f3d011682016040523d82523d5f602084013e6106a1565b606091505b50509050806106e25760405162461bcd60e51b815260206004820152600d60248201526c10d85b1b081c995d995c9d1959609a1b6044820152606401610187565b6106ef6020830183610cf2565b6001600160a01b0316337fed7e8f919df9cc0d0ad8b4057d084ebf319b630564d5da283e14751adc931f3a602085013561072c6040870187610d12565b60405161073b93929190610f19565b60405180910390a35050565b60605f61075383610abb565b6040805160208082528183019092529192505f91906020820181803683375050509182525060208101929092525090565b5f306001600160a01b037f0000000000000000000000000000000000000000000000000000000000000000161480156107dc57507f000000000000000000000000000000000000000000000000000000000000000046145b1561080657507f000000000000000000000000000000000000000000000000000000000000000090565b6108ad604080517f8b73c3c69bb8fe3d512ecc4cf759cc79239f7b179b0ffacaa9a75d522b39400f60208201527f0000000000000000000000000000000000000000000000000000000000000000918101919091527f000000000000000000000000000000000000000000000000000000000000000060608201524660808201523060a08201525f9060c00160405160208183030381529060405280519060200120905090565b905090565b5f807f7fffffffffffffffffffffffffffffff5d576e7357a4501ddfe92f46681b20a08311156108e757505f90506003610966565b604080515f8082526020820180845289905260ff881692820192909252606081018690526080810185905260019060a0016020604051602081039080840390855afa158015610938573d5f803e3d5ffd5b5050604051601f1901519150506001600160a01b038116610960575f60019250925050610966565b91505f90505b94509492505050565b5f81600481111561098257610982610f3b565b0361098a5750565b600181600481111561099e5761099e610f3b565b036109eb5760405162461bcd60e51b815260206004820152601860248201527f45434453413a20696e76616c6964207369676e617475726500000000000000006044820152606401610187565b60028160048111156109ff576109ff610f3b565b03610a4c5760405162461bcd60e51b815260206004820152601f60248201527f45434453413a20696e76616c6964207369676e6174757265206c656e677468006044820152606401610187565b6003816004811115610a6057610a60610f3b565b03610ab85760405162461bcd60e51b815260206004820152602260248201527f45434453413a20696e76616c6964207369676e6174757265202773272076616c604482015261756560f01b6064820152608401610187565b50565b5f60ff8216601f8111156105b157604051632cd44ac360e21b815260040160405180910390fd5b5f8083601f840112610af2575f80fd5b50813567ffffffffffffffff811115610b09575f80fd5b6020830191508360208260051b8501011115610b23575f80fd5b9250929050565b5f8060208385031215610b3b575f80fd5b823567ffffffffffffffff811115610b51575f80fd5b610b5d85828601610ae2565b90969095509350505050565b5f81518084525f5b81811015610b8d57602081850181015186830182015201610b71565b505f602082860101526020601f19601f83011685010191505092915050565b60ff60f81b881681525f602060e06020840152610bcc60e084018a610b69565b8381036040850152610bde818a610b69565b606085018990526001600160a01b038816608086015260a0850187905284810360c0860152855180825260208088019350909101905f5b81811015610c3157835183529284019291840191600101610c15565b50909c9b505050505050505050505050565b5f805f8084860360a0811215610c57575f80fd5b853567ffffffffffffffff811115610c6d575f80fd5b610c7988828901610ae2565b909650945050602086013592506060603f1982011215610c97575f80fd5b509295919450926040019150565b634e487b7160e01b5f52603260045260245ffd5b5f8235605e19833603018112610ccd575f80fd5b9190910192915050565b80356001600160a01b0381168114610ced575f80fd5b919050565b5f60208284031215610d02575f80fd5b610d0b82610cd7565b9392505050565b5f808335601e19843603018112610d27575f80fd5b83018035915067ffffffffffffffff821115610d41575f80fd5b602001915036819003821315610b23575f80fd5b8581526bffffffffffffffffffffffff198560601b166020820152836034820152818360548301375f9101605401908152949350505050565b5f60208284031215610d9e575f80fd5b813560ff81168114610d0b575f80fd5b81835281816020850137505f828201602090810191909152601f909101601f19169091010190565b60208082528181018390525f906040808401600586901b8501820187855b88811015610ea057878303603f190184528135368b9003605e19018112610e19575f80fd5b8a0160606001600160a01b03610e2e83610cd7565b168552878201358886015286820135601e19833603018112610e4e575f80fd5b90910187810191903567ffffffffffffffff811115610e6b575f80fd5b803603831315610e79575f80fd5b8188870152610e8b8287018285610dae565b96890196955050509186019150600101610df4565b509098975050505050505050565b600181811c90821680610ec257607f821691505b602082108103610ee057634e487b7160e01b5f52602260045260245ffd5b50919050565b5f60018201610f0357634e487b7160e01b5f52601160045260245ffd5b5060010190565b818382375f9101908152919050565b838152604060208201525f610f32604083018486610dae565b95945050505050565b634e487b7160e01b5f52602160045260245ffdfe63375c7ff2696e4243f9e586731b1d394b267a382914868acda084c4d3cf7daaa164736f6c6343000818000a",
  "linkReferences": {},
  "deployedLinkReferences": {}
}