{
  "_format": "hh-sol-artifact-1",
  "contractName": "UserSmartAccount",
  "sourceName": "contracts/smartAccounts/UserSmartAccount.sol",
  "abi": [
    {
      "inputs": [],
      "stateMutability": "nonpayable",
      "type": "constructor"
    },
    {
      "inputs": [],
      "name": "InvalidShortString",
      "type": "error"
    },
    {
      "inputs": [
        {
          "internalType": "string",
          "name": "str",
          "type": "string"
        }
      ],
      "name": "StringTooLong",
      "type": "error"
    },
    {
      "anonymous": false,
      "inputs": [
        {
          "indexed": true,
          "internalType": "uint256",
          "name": "nonce",
          "type": "uint256"
        },
        {
          "components": [
            {
              "internalType": "address",
              "name": "to",
              "type": "address"
            },
            {
              "internalType": "uint256",
              "name": "value",
              "type": "uint256"
            },
            {
              "internalType": "bytes",
              "name": "data",
              "type": "bytes"
            }
          ],
          "indexed": false,
          "internalType": "struct ISmartAccount.Call[]",
          "name": "calls",
          "type": "tuple[]"
        }
      ],
      "name": "BatchExecuted",
      "type": "event"
    },
    {
      "anonymous": false,
      "inputs": [
        {
          "indexed": true,
          "internalType": "address",
          "name": "sender",
          "type": "address"
        },
        {
          "indexed": true,
          "internalType": "address",
          "name": "to",
          "type": "address"
        },
        {
          "indexed": false,
          "internalType": "uint256",
          "name": "value",
          "type": "uint256"
        },
        {
          "indexed": false,
          "internalType": "bytes",
          "name": "data",
          "type": "bytes"
        }
      ],
      "name": "CallExecuted",
      "type": "event"
    },
    {
      "anonymous": false,
      "inputs": [],
      "name": "EIP712DomainChanged",
      "type": "event"
    },
    {
      "stateMutability": "payable",
      "type": "fallback"
    },
    {
      "inputs": [],
      "name": "SMART_ACCOUNT_TYPEHASH",
      "outputs": [
        {
          "internalType": "bytes32",
          "name": "",
          "type": "bytes32"
        }
      ],
      "stateMutability": "view",
      "type": "function"
    },
    {
      "inputs": [],
      "name": "eip712Domain",
      "outputs": [
        {
          "internalType": "bytes1",
          "name": "fields",
          "type": "bytes1"
        },
        {
          "internalType": "string",
          "name": "name",
          "type": "string"
        },
        {
          "internalType": "string",
          "name": "version",
          "type": "string"
        },
        {
          "internalType": "uint256",
          "name": "chainId",
          "type": "uint256"
        },
        {
          "internalType": "address",
          "name": "verifyingContract",
          "type": "address"
        },
        {
          "internalType": "bytes32",
          "name": "salt",
          "type": "bytes32"
        },
        {
          "internalType": "uint256[]",
          "name": "extensions",
          "type": "uint256[]"
        }
      ],
      "stateMutability": "view",
      "type": "function"
    },
    {
      "inputs": [
        {
          "components": [
            {
              "internalType": "address",
              "name": "to",
              "type": "address"
            },
            {
              "internalType": "uint256",
              "name": "value",
              "type": "uint256"
            },
            {
              "internalType": "bytes",
              "name": "data",
              "type": "bytes"
            }
          ],
          "internalType": "struct ISmartAccount.Call[]",
          "name": "calls",
          "type": "tuple[]"
        }
      ],
      "name": "encodeCalls",
      "outputs": [
        {
          "internalType": "bytes32",
          "name": "encodedCalls",
          "type": "bytes32"
        }
      ],
      "stateMutability": "pure",
      "type": "function"
    },
    {
      "inputs": [
        {
          "components": [
            {
              "internalType": "address",
              "name": "to",
              "type": "address"
            },
            {
              "internalType": "uint256",
              "name": "value",
              "type": "uint256"
            },
            {
              "internalType": "bytes",
              "name": "data",
              "type": "bytes"
            }
          ],
          "internalType": "struct ISmartAccount.Call[]",
          "name": "calls",
          "type": "tuple[]"
        }
      ],
      "name": "execute",
      "outputs": [],
      "stateMutability": "payable",
      "type": "function"
    },
    {
      "inputs": [
        {
          "components": [
            {
              "internalType": "address",
              "name": "to",
              "type": "address"
            },
            {
              "internalType": "uint256",
              "name": "value",
              "type": "uint256"
            },
            {
              "internalType": "bytes",
              "name": "data",
              "type": "bytes"
            }
          ],
          "internalType": "struct ISmartAccount.Call[]",
          "name": "calls",
          "type": "tuple[]"
        },
        {
          "internalType": "uint256",
          "name": "deadline",
          "type": "uint256"
        },
        {
          "components": [
            {
              "internalType": "uint8",
              "name": "v",
              "type": "uint8"
            },
            {
              "internalType": "bytes32",
              "name": "r",
              "type": "bytes32"
            },
            {
              "internalType": "bytes32",
              "name": "s",
              "type": "bytes32"
            }
          ],
          "internalType": "struct ISmartAccount.SplitSignature",
          "name": "signature",
          "type": "tuple"
        }
      ],
      "name": "execute",
      "outputs": [],
      "stateMutability": "payable",
      "type": "function"
    },
    {
      "inputs": [],
      "name": "helloEIP7702",
      "outputs": [
        {
          "internalType": "string",
          "name": "",
          "type": "string"
        }
      ],
      "stateMutability": "pure",
      "type": "function"
    },
    {
      "inputs": [],
      "name": "nonce",
      "outputs": [
        {
          "internalType": "uint256",
          "name": "",
          "type": "uint256"
        }
      ],
      "stateMutability": "view",
      "type": "function"
    },
    {
      "stateMutability": "payable",
      "type": "receive"
    }
  ],
  "bytecode": "0x61016060405234801562000011575f80fd5b50604080518082018252601081526f155cd95c94db585c9d1058d8dbdd5b9d60821b602080830191909152825180840190935260018352603160f81b90830152906200005e825f6200010b565b610120526200006f8160016200010b565b61014052815160208084019190912060e052815190820120610100524660a052620000fc60e05161010051604080517f8b73c3c69bb8fe3d512ecc4cf759cc79239f7b179b0ffacaa9a75d522b39400f60208201529081019290925260608201524660808201523060a08201525f9060c00160405160208183030381529060405280519060200120905090565b60805250503060c0526200036a565b5f6020835110156200012a57620001228362000143565b90506200013d565b816200013784826200022c565b5060ff90505b92915050565b5f80829050601f8151111562000179578260405163305a27a960e01b8152600401620001709190620002f8565b60405180910390fd5b8051620001868262000346565b179392505050565b634e487b7160e01b5f52604160045260245ffd5b600181811c90821680620001b757607f821691505b602082108103620001d657634e487b7160e01b5f52602260045260245ffd5b50919050565b601f8211156200022757805f5260205f20601f840160051c81016020851015620002035750805b601f840160051c820191505b8181101562000224575f81556001016200020f565b50505b505050565b81516001600160401b038111156200024857620002486200018e565b6200026081620002598454620001a2565b84620001dc565b602080601f83116001811462000296575f84156200027e5750858301515b5f19600386901b1c1916600185901b178555620002f0565b5f85815260208120601f198616915b82811015620002c657888601518255948401946001909101908401620002a5565b5085821015620002e457878501515f19600388901b60f8161c191681555b505060018460011b0185555b505050505050565b5f602080835283518060208501525f5b81811015620003265785810183015185820160400152820162000308565b505f604082860101526040601f19601f8301168501019250505092915050565b80516020808301519190811015620001d6575f1960209190910360031b1b16919050565b60805160a05160c05160e051610100516101205161014051610fe6620003bc5f395f61022d01525f61020301525f6108b501525f61088d01525f6107e801525f61081201525f61083c0152610fe65ff3fe60806040526004361061006d575f3560e01c806384b0196e1161004a57806384b0196e1461010f5780639b2bd7f914610136578063affed0e014610155578063b0b6d7161461017557005b80633f707e6b14610076578063416142311461008957806370ecec44146100ce57005b3661007457005b005b610074610084366004610b82565b610188565b348015610094575f80fd5b50604080518082018252600e81526d2432b636379022a4a8169b9b981960911b602082015290516100c59190610c04565b60405180910390f35b3480156100d9575f80fd5b506101017f0833d20926eeef7c1ae2a08b76639e026bf0059a10732018b6b7c4387838e37f81565b6040519081526020016100c5565b34801561011a575f80fd5b506101236101f6565b6040516100c59796959493929190610c1d565b348015610141575f80fd5b50610101610150366004610b82565b61027c565b348015610160575f80fd5b505f80516020610fba83398151915254610101565b610074610183366004610cb4565b610351565b3330146101e85760405162461bcd60e51b815260206004820152602360248201527f55736572536d6172744163636f756e743a20496e76616c696420617574686f7260448201526269747960e81b60648201526084015b60405180910390fd5b6101f282826104c6565b5050565b5f606080828080836102287f000000000000000000000000000000000000000000000000000000000000000083610564565b6102537f00000000000000000000000000000000000000000000000000000000000000006001610564565b604080515f80825260208201909252600f60f81b9b939a50919850469750309650945092509050565b5f805b8281101561034a578184848381811061029a5761029a610d16565b90506020028101906102ac9190610d2a565b6102ba906020810190610d63565b8585848181106102cc576102cc610d16565b90506020028101906102de9190610d2a565b602001358686858181106102f4576102f4610d16565b90506020028101906103069190610d2a565b610314906040810190610d7c565b604051602001610328959493929190610dbf565b60408051601f198184030181529190528051602090910120915060010161027f565b5092915050565b8142106103ab5760405162461bcd60e51b815260206004820152602260248201527f55736572536d6172744163636f756e743a20446561646c696e65206578706972604482015261195960f21b60648201526084016101df565b5f61042b7f0833d20926eeef7c1ae2a08b76639e026bf0059a10732018b6b7c4387838e37f6103e55f80516020610fba8339815191525490565b6103ef888861027c565b60408051602081019490945283019190915260608201526080810185905260a0016040516020818303038152906040528051906020012061060f565b90505f61044e8261043f6020860186610df8565b8560200135866040013561063b565b90506001600160a01b03811630146104b45760405162461bcd60e51b815260206004820152602360248201527f55736572536d6172744163636f756e743a20496e76616c6964207369676e617460448201526275726560e81b60648201526084016101df565b6104be86866104c6565b505050505050565b5f6104dc5f80516020610fba8339815191525490565b90506104e6610661565b5f5b828110156105245761051c84848381811061050557610505610d16565b90506020028101906105179190610d2a565b610683565b6001016104e8565b50807f280bb3599696acbf79fb8ffcde81a57337b52500f789600fbb1cff9b4cbaba398484604051610557929190610e40565b60405180910390a2505050565b606060ff831461057e576105778361079f565b9050610609565b81805461058a90610f18565b80601f01602080910402602001604051908101604052809291908181526020018280546105b690610f18565b80156106015780601f106105d857610100808354040283529160200191610601565b820191905f5260205f20905b8154815290600101906020018083116105e457829003601f168201915b505050505090505b92915050565b5f61060961061b6107dc565b8360405161190160f01b8152600281019290925260228201526042902090565b5f805f61064a8787878761090a565b91509150610657816109c7565b5095945050505050565b5f80516020610fba8339815191528054905f61067c83610f50565b9190505550565b5f6106916020830183610d63565b6001600160a01b031660208301356106ac6040850185610d7c565b6040516106ba929190610f74565b5f6040518083038185875af1925050503d805f81146106f4576040519150601f19603f3d011682016040523d82523d5f602084013e6106f9565b606091505b505090508061073a5760405162461bcd60e51b815260206004820152600d60248201526c10d85b1b081c995d995c9d1959609a1b60448201526064016101df565b6107476020830183610d63565b6001600160a01b0316337fed7e8f919df9cc0d0ad8b4057d084ebf319b630564d5da283e14751adc931f3a60208501356107846040870187610d7c565b60405161079393929190610f83565b60405180910390a35050565b60605f6107ab83610b13565b6040805160208082528183019092529192505f91906020820181803683375050509182525060208101929092525090565b5f306001600160a01b037f00000000000000000000000000000000000000000000000000000000000000001614801561083457507f000000000000000000000000000000000000000000000000000000000000000046145b1561085e57507f000000000000000000000000000000000000000000000000000000000000000090565b610905604080517f8b73c3c69bb8fe3d512ecc4cf759cc79239f7b179b0ffacaa9a75d522b39400f60208201527f0000000000000000000000000000000000000000000000000000000000000000918101919091527f000000000000000000000000000000000000000000000000000000000000000060608201524660808201523060a08201525f9060c00160405160208183030381529060405280519060200120905090565b905090565b5f807f7fffffffffffffffffffffffffffffff5d576e7357a4501ddfe92f46681b20a083111561093f57505f905060036109be565b604080515f8082526020820180845289905260ff881692820192909252606081018690526080810185905260019060a0016020604051602081039080840390855afa158015610990573d5f803e3d5ffd5b5050604051601f1901519150506001600160a01b0381166109b8575f600192509250506109be565b91505f90505b94509492505050565b5f8160048111156109da576109da610fa5565b036109e25750565b60018160048111156109f6576109f6610fa5565b03610a435760405162461bcd60e51b815260206004820152601860248201527f45434453413a20696e76616c6964207369676e6174757265000000000000000060448201526064016101df565b6002816004811115610a5757610a57610fa5565b03610aa45760405162461bcd60e51b815260206004820152601f60248201527f45434453413a20696e76616c6964207369676e6174757265206c656e6774680060448201526064016101df565b6003816004811115610ab857610ab8610fa5565b03610b105760405162461bcd60e51b815260206004820152602260248201527f45434453413a20696e76616c6964207369676e6174757265202773272076616c604482015261756560f01b60648201526084016101df565b50565b5f60ff8216601f81111561060957604051632cd44ac360e21b815260040160405180910390fd5b5f8083601f840112610b4a575f80fd5b50813567ffffffffffffffff811115610b61575f80fd5b6020830191508360208260051b8501011115610b7b575f80fd5b9250929050565b5f8060208385031215610b93575f80fd5b823567ffffffffffffffff811115610ba9575f80fd5b610bb585828601610b3a565b90969095509350505050565b5f81518084525f5b81811015610be557602081850181015186830182015201610bc9565b505f602082860101526020601f19601f83011685010191505092915050565b602081525f610c166020830184610bc1565b9392505050565b60ff60f81b881681525f602060e06020840152610c3d60e084018a610bc1565b8381036040850152610c4f818a610bc1565b606085018990526001600160a01b038816608086015260a0850187905284810360c0860152855180825260208088019350909101905f5b81811015610ca257835183529284019291840191600101610c86565b50909c9b505050505050505050505050565b5f805f8084860360a0811215610cc8575f80fd5b853567ffffffffffffffff811115610cde575f80fd5b610cea88828901610b3a565b909650945050602086013592506060603f1982011215610d08575f80fd5b509295919450926040019150565b634e487b7160e01b5f52603260045260245ffd5b5f8235605e19833603018112610d3e575f80fd5b9190910192915050565b80356001600160a01b0381168114610d5e575f80fd5b919050565b5f60208284031215610d73575f80fd5b610c1682610d48565b5f808335601e19843603018112610d91575f80fd5b83018035915067ffffffffffffffff821115610dab575f80fd5b602001915036819003821315610b7b575f80fd5b8581526bffffffffffffffffffffffff198560601b166020820152836034820152818360548301375f9101605401908152949350505050565b5f60208284031215610e08575f80fd5b813560ff81168114610c16575f80fd5b81835281816020850137505f828201602090810191909152601f909101601f19169091010190565b60208082528181018390525f906040808401600586901b8501820187855b88811015610f0a57878303603f190184528135368b9003605e19018112610e83575f80fd5b8a0160606001600160a01b03610e9883610d48565b168552878201358886015286820135601e19833603018112610eb8575f80fd5b90910187810191903567ffffffffffffffff811115610ed5575f80fd5b803603831315610ee3575f80fd5b8188870152610ef58287018285610e18565b96890196955050509186019150600101610e5e565b509098975050505050505050565b600181811c90821680610f2c57607f821691505b602082108103610f4a57634e487b7160e01b5f52602260045260245ffd5b50919050565b5f60018201610f6d57634e487b7160e01b5f52601160045260245ffd5b5060010190565b818382375f9101908152919050565b838152604060208201525f610f9c604083018486610e18565b95945050505050565b634e487b7160e01b5f52602160045260245ffdfe63375c7ff2696e4243f9e586731b1d394b267a382914868acda084c4d3cf7daaa164736f6c6343000818000a",
  "linkReferences": {},
  "deployedLinkReferences": {}
}