{
  "_format": "hh-sol-artifact-1",
  "contractName": "UserSmartAccount",
  "sourceName": "contracts/smartAccounts/UserSmartAccount.sol",
  "abi": [
    {
      "anonymous": false,
      "inputs": [
        {
          "indexed": true,
          "internalType": "uint256",
          "name": "nonce",
          "type": "uint256"
        },
        {
          "components": [
            {
              "internalType": "address",
              "name": "to",
              "type": "address"
            },
            {
              "internalType": "uint256",
              "name": "value",
              "type": "uint256"
            },
            {
              "internalType": "bytes",
              "name": "data",
              "type": "bytes"
            }
          ],
          "indexed": false,
          "internalType": "struct ISmartAccount.Call[]",
          "name": "calls",
          "type": "tuple[]"
        }
      ],
      "name": "BatchExecuted",
      "type": "event"
    },
    {
      "anonymous": false,
      "inputs": [
        {
          "indexed": true,
          "internalType": "address",
          "name": "sender",
          "type": "address"
        },
        {
          "indexed": true,
          "internalType": "address",
          "name": "to",
          "type": "address"
        },
        {
          "indexed": false,
          "internalType": "uint256",
          "name": "value",
          "type": "uint256"
        },
        {
          "indexed": false,
          "internalType": "bytes",
          "name": "data",
          "type": "bytes"
        }
      ],
      "name": "CallExecuted",
      "type": "event"
    },
    {
      "stateMutability": "payable",
      "type": "fallback"
    },
    {
      "inputs": [
        {
          "components": [
            {
              "internalType": "address",
              "name": "to",
              "type": "address"
            },
            {
              "internalType": "uint256",
              "name": "value",
              "type": "uint256"
            },
            {
              "internalType": "bytes",
              "name": "data",
              "type": "bytes"
            }
          ],
          "internalType": "struct ISmartAccount.Call[]",
          "name": "calls",
          "type": "tuple[]"
        }
      ],
      "name": "execute",
      "outputs": [],
      "stateMutability": "payable",
      "type": "function"
    },
    {
      "inputs": [
        {
          "components": [
            {
              "internalType": "address",
              "name": "to",
              "type": "address"
            },
            {
              "internalType": "uint256",
              "name": "value",
              "type": "uint256"
            },
            {
              "internalType": "bytes",
              "name": "data",
              "type": "bytes"
            }
          ],
          "internalType": "struct ISmartAccount.Call[]",
          "name": "calls",
          "type": "tuple[]"
        },
        {
          "internalType": "bytes",
          "name": "signature",
          "type": "bytes"
        }
      ],
      "name": "execute",
      "outputs": [],
      "stateMutability": "payable",
      "type": "function"
    },
    {
      "inputs": [],
      "name": "helloEIP7702",
      "outputs": [
        {
          "internalType": "string",
          "name": "",
          "type": "string"
        }
      ],
      "stateMutability": "pure",
      "type": "function"
    },
    {
      "inputs": [],
      "name": "nonce",
      "outputs": [
        {
          "internalType": "uint256",
          "name": "",
          "type": "uint256"
        }
      ],
      "stateMutability": "view",
      "type": "function"
    },
    {
      "stateMutability": "payable",
      "type": "receive"
    }
  ],
  "bytecode": "0x608060405234801561000f575f80fd5b50610b298061001d5f395ff3fe60806040526004361061003f575f3560e01c80633f707e6b14610048578063416142311461005b5780636171d1c9146100a0578063affed0e0146100b357005b3661004657005b005b610046610056366004610770565b6100d5565b348015610066575f80fd5b50604080518082018252600e81526d2432b636379022a4a8169b9b981960911b6020820152905161009791906107d1565b60405180910390f35b6100466100ae366004610803565b610143565b3480156100be575f80fd5b506100c75f5481565b604051908152602001610097565b3330146101355760405162461bcd60e51b815260206004820152602360248201527f55736572536d6172744163636f756e743a20496e76616c696420617574686f7260448201526269747960e81b60648201526084015b60405180910390fd5b61013f8282610313565b5050565b60605f5b8481101561020a578186868381811061016257610162610892565b905060200281019061017491906108a6565b6101829060208101906108df565b87878481811061019457610194610892565b90506020028101906101a691906108a6565b602001358888858181106101bc576101bc610892565b90506020028101906101ce91906108a6565b6101dc9060408101906108ff565b6040516020016101f0959493929190610942565b60408051601f198184030181529190529150600101610147565b505f80548260405160200161022092919061098e565b6040516020818303038152906040528051906020012090505f61026f827f19457468657265756d205369676e6564204d6573736167653a0a3332000000005f908152601c91909152603c902090565b90505f6102b18287878080601f0160208091040260200160405190810160405280939291908181526020018383808284375f920191909152506103a692505050565b90506001600160a01b03811630146102ff5760405162461bcd60e51b8152602060048201526011602482015270496e76616c6964207369676e617475726560781b604482015260640161012c565b6103098888610313565b5050505050505050565b5f805490819080610323836109b3565b91905055505f5b828110156103665761035e84848381811061034757610347610892565b905060200281019061035991906108a6565b6103c8565b60010161032a565b50807f280bb3599696acbf79fb8ffcde81a57337b52500f789600fbb1cff9b4cbaba3984846040516103999291906109ff565b60405180910390a2505050565b5f805f6103b385856104e4565b915091506103c081610526565b509392505050565b5f6103d660208301836108df565b6001600160a01b031660208301356103f160408501856108ff565b6040516103ff929190610ad7565b5f6040518083038185875af1925050503d805f8114610439576040519150601f19603f3d011682016040523d82523d5f602084013e61043e565b606091505b505090508061047f5760405162461bcd60e51b815260206004820152600d60248201526c10d85b1b081c995d995c9d1959609a1b604482015260640161012c565b61048c60208301836108df565b6001600160a01b0316337fed7e8f919df9cc0d0ad8b4057d084ebf319b630564d5da283e14751adc931f3a60208501356104c960408701876108ff565b6040516104d893929190610ae6565b60405180910390a35050565b5f808251604103610518576020830151604084015160608501515f1a61050c87828585610672565b9450945050505061051f565b505f905060025b9250929050565b5f81600481111561053957610539610b08565b036105415750565b600181600481111561055557610555610b08565b036105a25760405162461bcd60e51b815260206004820152601860248201527f45434453413a20696e76616c6964207369676e61747572650000000000000000604482015260640161012c565b60028160048111156105b6576105b6610b08565b036106035760405162461bcd60e51b815260206004820152601f60248201527f45434453413a20696e76616c6964207369676e6174757265206c656e67746800604482015260640161012c565b600381600481111561061757610617610b08565b0361066f5760405162461bcd60e51b815260206004820152602260248201527f45434453413a20696e76616c6964207369676e6174757265202773272076616c604482015261756560f01b606482015260840161012c565b50565b5f807f7fffffffffffffffffffffffffffffff5d576e7357a4501ddfe92f46681b20a08311156106a757505f90506003610726565b604080515f8082526020820180845289905260ff881692820192909252606081018690526080810185905260019060a0016020604051602081039080840390855afa1580156106f8573d5f803e3d5ffd5b5050604051601f1901519150506001600160a01b038116610720575f60019250925050610726565b91505f90505b94509492505050565b5f8083601f84011261073f575f80fd5b50813567ffffffffffffffff811115610756575f80fd5b6020830191508360208260051b850101111561051f575f80fd5b5f8060208385031215610781575f80fd5b823567ffffffffffffffff811115610797575f80fd5b6107a38582860161072f565b90969095509350505050565b5f5b838110156107c95781810151838201526020016107b1565b50505f910152565b602081525f82518060208401526107ef8160408501602087016107af565b601f01601f19169190910160400192915050565b5f805f8060408587031215610816575f80fd5b843567ffffffffffffffff8082111561082d575f80fd5b6108398883890161072f565b90965094506020870135915080821115610851575f80fd5b818701915087601f830112610864575f80fd5b813581811115610872575f80fd5b886020828501011115610883575f80fd5b95989497505060200194505050565b634e487b7160e01b5f52603260045260245ffd5b5f8235605e198336030181126108ba575f80fd5b9190910192915050565b80356001600160a01b03811681146108da575f80fd5b919050565b5f602082840312156108ef575f80fd5b6108f8826108c4565b9392505050565b5f808335601e19843603018112610914575f80fd5b83018035915067ffffffffffffffff82111561092e575f80fd5b60200191503681900382131561051f575f80fd5b5f8651610953818460208b016107af565b80830190506bffffffffffffffffffffffff198760601b168152856014820152838560348301375f9301603401928352509095945050505050565b8281525f82516109a58160208501602087016107af565b919091016020019392505050565b5f600182016109d057634e487b7160e01b5f52601160045260245ffd5b5060010190565b81835281816020850137505f828201602090810191909152601f909101601f19169091010190565b60208082528181018390525f906040808401600586901b8501820187855b88811015610ac957878303603f190184528135368b9003605e19018112610a42575f80fd5b8a0160606001600160a01b03610a57836108c4565b168552878201358886015286820135601e19833603018112610a77575f80fd5b90910187810191903567ffffffffffffffff811115610a94575f80fd5b803603831315610aa2575f80fd5b8188870152610ab482870182856109d7565b96890196955050509186019150600101610a1d565b509098975050505050505050565b818382375f9101908152919050565b838152604060208201525f610aff6040830184866109d7565b95945050505050565b634e487b7160e01b5f52602160045260245ffdfea164736f6c6343000818000a",
  "linkReferences": {},
  "deployedLinkReferences": {}
}