{
  "_format": "hh-sol-artifact-1",
  "contractName": "UserSmartAccount",
  "sourceName": "contracts/smartAccounts/UserSmartAccount.sol",
  "abi": [
    {
      "anonymous": false,
      "inputs": [
        {
          "indexed": true,
          "internalType": "uint256",
          "name": "nonce",
          "type": "uint256"
        },
        {
          "components": [
            {
              "internalType": "address",
              "name": "to",
              "type": "address"
            },
            {
              "internalType": "uint256",
              "name": "value",
              "type": "uint256"
            },
            {
              "internalType": "bytes",
              "name": "data",
              "type": "bytes"
            }
          ],
          "indexed": false,
          "internalType": "struct UserSmartAccount.Call[]",
          "name": "calls",
          "type": "tuple[]"
        }
      ],
      "name": "BatchExecuted",
      "type": "event"
    },
    {
      "anonymous": false,
      "inputs": [
        {
          "indexed": true,
          "internalType": "address",
          "name": "sender",
          "type": "address"
        },
        {
          "indexed": true,
          "internalType": "address",
          "name": "to",
          "type": "address"
        },
        {
          "indexed": false,
          "internalType": "uint256",
          "name": "value",
          "type": "uint256"
        },
        {
          "indexed": false,
          "internalType": "bytes",
          "name": "data",
          "type": "bytes"
        }
      ],
      "name": "CallExecuted",
      "type": "event"
    },
    {
      "stateMutability": "payable",
      "type": "fallback"
    },
    {
      "inputs": [
        {
          "components": [
            {
              "internalType": "address",
              "name": "to",
              "type": "address"
            },
            {
              "internalType": "uint256",
              "name": "value",
              "type": "uint256"
            },
            {
              "internalType": "bytes",
              "name": "data",
              "type": "bytes"
            }
          ],
          "internalType": "struct UserSmartAccount.Call[]",
          "name": "calls",
          "type": "tuple[]"
        }
      ],
      "name": "execute",
      "outputs": [],
      "stateMutability": "payable",
      "type": "function"
    },
    {
      "inputs": [
        {
          "components": [
            {
              "internalType": "address",
              "name": "to",
              "type": "address"
            },
            {
              "internalType": "uint256",
              "name": "value",
              "type": "uint256"
            },
            {
              "internalType": "bytes",
              "name": "data",
              "type": "bytes"
            }
          ],
          "internalType": "struct UserSmartAccount.Call[]",
          "name": "calls",
          "type": "tuple[]"
        },
        {
          "internalType": "bytes",
          "name": "signature",
          "type": "bytes"
        }
      ],
      "name": "execute",
      "outputs": [],
      "stateMutability": "payable",
      "type": "function"
    },
    {
      "inputs": [],
      "name": "nonce",
      "outputs": [
        {
          "internalType": "uint256",
          "name": "",
          "type": "uint256"
        }
      ],
      "stateMutability": "view",
      "type": "function"
    },
    {
      "stateMutability": "payable",
      "type": "receive"
    }
  ],
  "bytecode": "0x608060405234801561000f575f80fd5b50610a878061001d5f395ff3fe608060405260043610610034575f3560e01c80633f707e6b1461003d5780636171d1c914610050578063affed0e01461006357005b3661003b57005b005b61003b61004b36600461070c565b610089565b61003b61005e36600461074b565b6100df565b34801561006e575f80fd5b506100775f5481565b60405190815260200160405180910390f35b3330146100d15760405162461bcd60e51b8152602060048201526011602482015270496e76616c696420617574686f7269747960781b60448201526064015b60405180910390fd5b6100db82826102af565b5050565b60605f5b848110156101a657818686838181106100fe576100fe6107da565b905060200281019061011091906107ee565b61011e906020810190610827565b878784818110610130576101306107da565b905060200281019061014291906107ee565b60200135888885818110610158576101586107da565b905060200281019061016a91906107ee565b610178906040810190610847565b60405160200161018c9594939291906108b7565b60408051601f1981840301815291905291506001016100e3565b505f8054826040516020016101bc9291906108f8565b6040516020818303038152906040528051906020012090505f61020b827f19457468657265756d205369676e6564204d6573736167653a0a3332000000005f908152601c91909152603c902090565b90505f61024d8287878080601f0160208091040260200160405190810160405280939291908181526020018383808284375f9201919091525061034292505050565b90506001600160a01b038116301461029b5760405162461bcd60e51b8152602060048201526011602482015270496e76616c6964207369676e617475726560781b60448201526064016100c8565b6102a588886102af565b5050505050505050565b5f8054908190806102bf83610911565b91905055505f5b82811015610302576102fa8484838181106102e3576102e36107da565b90506020028101906102f591906107ee565b610364565b6001016102c6565b50807f280bb3599696acbf79fb8ffcde81a57337b52500f789600fbb1cff9b4cbaba39848460405161033592919061095d565b60405180910390a2505050565b5f805f61034f8585610480565b9150915061035c816104c2565b509392505050565b5f6103726020830183610827565b6001600160a01b0316602083013561038d6040850185610847565b60405161039b929190610a35565b5f6040518083038185875af1925050503d805f81146103d5576040519150601f19603f3d011682016040523d82523d5f602084013e6103da565b606091505b505090508061041b5760405162461bcd60e51b815260206004820152600d60248201526c10d85b1b081c995d995c9d1959609a1b60448201526064016100c8565b6104286020830183610827565b6001600160a01b0316337fed7e8f919df9cc0d0ad8b4057d084ebf319b630564d5da283e14751adc931f3a60208501356104656040870187610847565b60405161047493929190610a44565b60405180910390a35050565b5f8082516041036104b4576020830151604084015160608501515f1a6104a88782858561060e565b945094505050506104bb565b505f905060025b9250929050565b5f8160048111156104d5576104d5610a66565b036104dd5750565b60018160048111156104f1576104f1610a66565b0361053e5760405162461bcd60e51b815260206004820152601860248201527f45434453413a20696e76616c6964207369676e6174757265000000000000000060448201526064016100c8565b600281600481111561055257610552610a66565b0361059f5760405162461bcd60e51b815260206004820152601f60248201527f45434453413a20696e76616c6964207369676e6174757265206c656e6774680060448201526064016100c8565b60038160048111156105b3576105b3610a66565b0361060b5760405162461bcd60e51b815260206004820152602260248201527f45434453413a20696e76616c6964207369676e6174757265202773272076616c604482015261756560f01b60648201526084016100c8565b50565b5f807f7fffffffffffffffffffffffffffffff5d576e7357a4501ddfe92f46681b20a083111561064357505f905060036106c2565b604080515f8082526020820180845289905260ff881692820192909252606081018690526080810185905260019060a0016020604051602081039080840390855afa158015610694573d5f803e3d5ffd5b5050604051601f1901519150506001600160a01b0381166106bc575f600192509250506106c2565b91505f90505b94509492505050565b5f8083601f8401126106db575f80fd5b50813567ffffffffffffffff8111156106f2575f80fd5b6020830191508360208260051b85010111156104bb575f80fd5b5f806020838503121561071d575f80fd5b823567ffffffffffffffff811115610733575f80fd5b61073f858286016106cb565b90969095509350505050565b5f805f806040858703121561075e575f80fd5b843567ffffffffffffffff80821115610775575f80fd5b610781888389016106cb565b90965094506020870135915080821115610799575f80fd5b818701915087601f8301126107ac575f80fd5b8135818111156107ba575f80fd5b8860208285010111156107cb575f80fd5b95989497505060200194505050565b634e487b7160e01b5f52603260045260245ffd5b5f8235605e19833603018112610802575f80fd5b9190910192915050565b80356001600160a01b0381168114610822575f80fd5b919050565b5f60208284031215610837575f80fd5b6108408261080c565b9392505050565b5f808335601e1984360301811261085c575f80fd5b83018035915067ffffffffffffffff821115610876575f80fd5b6020019150368190038213156104bb575f80fd5b5f81515f5b818110156108a9576020818501810151868301520161088f565b505f93019283525090919050565b5f6108c2828861088a565b6bffffffffffffffffffffffff198760601b168152856014820152838560348301375f9301603401928352509095945050505050565b8281525f610909602083018461088a565b949350505050565b5f6001820161092e57634e487b7160e01b5f52601160045260245ffd5b5060010190565b81835281816020850137505f828201602090810191909152601f909101601f19169091010190565b60208082528181018390525f906040808401600586901b8501820187855b88811015610a2757878303603f190184528135368b9003605e190181126109a0575f80fd5b8a0160606001600160a01b036109b58361080c565b168552878201358886015286820135601e198336030181126109d5575f80fd5b90910187810191903567ffffffffffffffff8111156109f2575f80fd5b803603831315610a00575f80fd5b8188870152610a128287018285610935565b9689019695505050918601915060010161097b565b509098975050505050505050565b818382375f9101908152919050565b838152604060208201525f610a5d604083018486610935565b95945050505050565b634e487b7160e01b5f52602160045260245ffdfea164736f6c6343000818000a",
  "linkReferences": {},
  "deployedLinkReferences": {}
}