{
  "_format": "hh-sol-artifact-1",
  "contractName": "WhitelistedMinter",
  "sourceName": "dot-crypto/contracts/util/WhitelistedMinter.sol",
  "abi": [
    {
      "inputs": [
        {
          "internalType": "contract MintingController",
          "name": "mintingController",
          "type": "address"
        }
      ],
      "payable": false,
      "stateMutability": "nonpayable",
      "type": "constructor"
    },
    {
      "anonymous": false,
      "inputs": [
        {
          "indexed": true,
          "internalType": "address",
          "name": "sender",
          "type": "address"
        },
        {
          "indexed": true,
          "internalType": "address",
          "name": "signer",
          "type": "address"
        },
        {
          "indexed": true,
          "internalType": "bytes4",
          "name": "funcSig",
          "type": "bytes4"
        },
        {
          "indexed": false,
          "internalType": "bytes32",
          "name": "dataHash",
          "type": "bytes32"
        }
      ],
      "name": "Relayed",
      "type": "event"
    },
    {
      "anonymous": false,
      "inputs": [
        {
          "indexed": true,
          "internalType": "address",
          "name": "account",
          "type": "address"
        }
      ],
      "name": "WhitelistAdminAdded",
      "type": "event"
    },
    {
      "anonymous": false,
      "inputs": [
        {
          "indexed": true,
          "internalType": "address",
          "name": "account",
          "type": "address"
        }
      ],
      "name": "WhitelistAdminRemoved",
      "type": "event"
    },
    {
      "anonymous": false,
      "inputs": [
        {
          "indexed": true,
          "internalType": "address",
          "name": "account",
          "type": "address"
        }
      ],
      "name": "WhitelistedAdded",
      "type": "event"
    },
    {
      "anonymous": false,
      "inputs": [
        {
          "indexed": true,
          "internalType": "address",
          "name": "account",
          "type": "address"
        }
      ],
      "name": "WhitelistedRemoved",
      "type": "event"
    },
    {
      "constant": true,
      "inputs": [],
      "name": "NAME",
      "outputs": [
        {
          "internalType": "string",
          "name": "",
          "type": "string"
        }
      ],
      "payable": false,
      "stateMutability": "view",
      "type": "function"
    },
    {
      "constant": true,
      "inputs": [],
      "name": "VERSION",
      "outputs": [
        {
          "internalType": "string",
          "name": "",
          "type": "string"
        }
      ],
      "payable": false,
      "stateMutability": "view",
      "type": "function"
    },
    {
      "constant": false,
      "inputs": [
        {
          "internalType": "address",
          "name": "account",
          "type": "address"
        }
      ],
      "name": "addWhitelistAdmin",
      "outputs": [],
      "payable": false,
      "stateMutability": "nonpayable",
      "type": "function"
    },
    {
      "constant": false,
      "inputs": [
        {
          "internalType": "address",
          "name": "account",
          "type": "address"
        }
      ],
      "name": "addWhitelisted",
      "outputs": [],
      "payable": false,
      "stateMutability": "nonpayable",
      "type": "function"
    },
    {
      "constant": false,
      "inputs": [
        {
          "internalType": "address[]",
          "name": "accounts",
          "type": "address[]"
        }
      ],
      "name": "bulkAddWhitelisted",
      "outputs": [],
      "payable": false,
      "stateMutability": "nonpayable",
      "type": "function"
    },
    {
      "constant": false,
      "inputs": [
        {
          "internalType": "address[]",
          "name": "accounts",
          "type": "address[]"
        }
      ],
      "name": "bulkRemoveWhitelisted",
      "outputs": [],
      "payable": false,
      "stateMutability": "nonpayable",
      "type": "function"
    },
    {
      "constant": false,
      "inputs": [
        {
          "internalType": "address payable",
          "name": "receiver",
          "type": "address"
        }
      ],
      "name": "closeWhitelisted",
      "outputs": [],
      "payable": true,
      "stateMutability": "payable",
      "type": "function"
    },
    {
      "constant": true,
      "inputs": [],
      "name": "getDefaultResolver",
      "outputs": [
        {
          "internalType": "address",
          "name": "",
          "type": "address"
        }
      ],
      "payable": false,
      "stateMutability": "view",
      "type": "function"
    },
    {
      "constant": true,
      "inputs": [
        {
          "internalType": "address",
          "name": "account",
          "type": "address"
        }
      ],
      "name": "isWhitelistAdmin",
      "outputs": [
        {
          "internalType": "bool",
          "name": "",
          "type": "bool"
        }
      ],
      "payable": false,
      "stateMutability": "view",
      "type": "function"
    },
    {
      "constant": true,
      "inputs": [
        {
          "internalType": "address",
          "name": "account",
          "type": "address"
        }
      ],
      "name": "isWhitelisted",
      "outputs": [
        {
          "internalType": "bool",
          "name": "",
          "type": "bool"
        }
      ],
      "payable": false,
      "stateMutability": "view",
      "type": "function"
    },
    {
      "constant": false,
      "inputs": [
        {
          "internalType": "address",
          "name": "to",
          "type": "address"
        },
        {
          "internalType": "string",
          "name": "label",
          "type": "string"
        }
      ],
      "name": "mintSLD",
      "outputs": [],
      "payable": false,
      "stateMutability": "nonpayable",
      "type": "function"
    },
    {
      "constant": false,
      "inputs": [
        {
          "internalType": "address",
          "name": "to",
          "type": "address"
        },
        {
          "internalType": "string",
          "name": "label",
          "type": "string"
        },
        {
          "internalType": "string[]",
          "name": "keys",
          "type": "string[]"
        },
        {
          "internalType": "string[]",
          "name": "values",
          "type": "string[]"
        }
      ],
      "name": "mintSLDToDefaultResolver",
      "outputs": [],
      "payable": false,
      "stateMutability": "nonpayable",
      "type": "function"
    },
    {
      "constant": false,
      "inputs": [
        {
          "internalType": "address",
          "name": "to",
          "type": "address"
        },
        {
          "internalType": "string",
          "name": "label",
          "type": "string"
        },
        {
          "internalType": "string[]",
          "name": "keys",
          "type": "string[]"
        },
        {
          "internalType": "string[]",
          "name": "values",
          "type": "string[]"
        },
        {
          "internalType": "address",
          "name": "resolver",
          "type": "address"
        }
      ],
      "name": "mintSLDToResolver",
      "outputs": [],
      "payable": false,
      "stateMutability": "nonpayable",
      "type": "function"
    },
    {
      "constant": false,
      "inputs": [
        {
          "internalType": "bytes",
          "name": "data",
          "type": "bytes"
        },
        {
          "internalType": "bytes",
          "name": "signature",
          "type": "bytes"
        }
      ],
      "name": "relay",
      "outputs": [
        {
          "internalType": "bytes",
          "name": "",
          "type": "bytes"
        }
      ],
      "payable": false,
      "stateMutability": "nonpayable",
      "type": "function"
    },
    {
      "constant": false,
      "inputs": [
        {
          "internalType": "address",
          "name": "account",
          "type": "address"
        }
      ],
      "name": "removeWhitelisted",
      "outputs": [],
      "payable": false,
      "stateMutability": "nonpayable",
      "type": "function"
    },
    {
      "constant": false,
      "inputs": [],
      "name": "renounceMinter",
      "outputs": [],
      "payable": false,
      "stateMutability": "nonpayable",
      "type": "function"
    },
    {
      "constant": false,
      "inputs": [],
      "name": "renounceWhitelistAdmin",
      "outputs": [],
      "payable": false,
      "stateMutability": "nonpayable",
      "type": "function"
    },
    {
      "constant": false,
      "inputs": [],
      "name": "renounceWhitelisted",
      "outputs": [],
      "payable": false,
      "stateMutability": "nonpayable",
      "type": "function"
    },
    {
      "constant": false,
      "inputs": [
        {
          "internalType": "address payable",
          "name": "receiver",
          "type": "address"
        }
      ],
      "name": "rotateWhitelisted",
      "outputs": [],
      "payable": true,
      "stateMutability": "payable",
      "type": "function"
    },
    {
      "constant": false,
      "inputs": [
        {
          "internalType": "address",
          "name": "to",
          "type": "address"
        },
        {
          "internalType": "string",
          "name": "label",
          "type": "string"
        }
      ],
      "name": "safeMintSLD",
      "outputs": [],
      "payable": false,
      "stateMutability": "nonpayable",
      "type": "function"
    },
    {
      "constant": false,
      "inputs": [
        {
          "internalType": "address",
          "name": "to",
          "type": "address"
        },
        {
          "internalType": "string",
          "name": "label",
          "type": "string"
        },
        {
          "internalType": "bytes",
          "name": "_data",
          "type": "bytes"
        }
      ],
      "name": "safeMintSLD",
      "outputs": [],
      "payable": false,
      "stateMutability": "nonpayable",
      "type": "function"
    },
    {
      "constant": false,
      "inputs": [
        {
          "internalType": "address",
          "name": "to",
          "type": "address"
        },
        {
          "internalType": "string",
          "name": "label",
          "type": "string"
        },
        {
          "internalType": "string[]",
          "name": "keys",
          "type": "string[]"
        },
        {
          "internalType": "string[]",
          "name": "values",
          "type": "string[]"
        },
        {
          "internalType": "bytes",
          "name": "_data",
          "type": "bytes"
        }
      ],
      "name": "safeMintSLDToDefaultResolver",
      "outputs": [],
      "payable": false,
      "stateMutability": "nonpayable",
      "type": "function"
    },
    {
      "constant": false,
      "inputs": [
        {
          "internalType": "address",
          "name": "to",
          "type": "address"
        },
        {
          "internalType": "string",
          "name": "label",
          "type": "string"
        },
        {
          "internalType": "string[]",
          "name": "keys",
          "type": "string[]"
        },
        {
          "internalType": "string[]",
          "name": "values",
          "type": "string[]"
        }
      ],
      "name": "safeMintSLDToDefaultResolver",
      "outputs": [],
      "payable": false,
      "stateMutability": "nonpayable",
      "type": "function"
    },
    {
      "constant": false,
      "inputs": [
        {
          "internalType": "address",
          "name": "to",
          "type": "address"
        },
        {
          "internalType": "string",
          "name": "label",
          "type": "string"
        },
        {
          "internalType": "string[]",
          "name": "keys",
          "type": "string[]"
        },
        {
          "internalType": "string[]",
          "name": "values",
          "type": "string[]"
        },
        {
          "internalType": "address",
          "name": "resolver",
          "type": "address"
        }
      ],
      "name": "safeMintSLDToResolver",
      "outputs": [],
      "payable": false,
      "stateMutability": "nonpayable",
      "type": "function"
    },
    {
      "constant": false,
      "inputs": [
        {
          "internalType": "address",
          "name": "to",
          "type": "address"
        },
        {
          "internalType": "string",
          "name": "label",
          "type": "string"
        },
        {
          "internalType": "string[]",
          "name": "keys",
          "type": "string[]"
        },
        {
          "internalType": "string[]",
          "name": "values",
          "type": "string[]"
        },
        {
          "internalType": "bytes",
          "name": "_data",
          "type": "bytes"
        },
        {
          "internalType": "address",
          "name": "resolver",
          "type": "address"
        }
      ],
      "name": "safeMintSLDToResolver",
      "outputs": [],
      "payable": false,
      "stateMutability": "nonpayable",
      "type": "function"
    },
    {
      "constant": false,
      "inputs": [
        {
          "internalType": "address",
          "name": "resolver",
          "type": "address"
        }
      ],
      "name": "setDefaultResolver",
      "outputs": [],
      "payable": false,
      "stateMutability": "nonpayable",
      "type": "function"
    }
  ],
  "bytecode": "0x60806040523480156200001157600080fd5b506040516200263b3803806200263b8339810160408190526200003491620002f0565b62000048336001600160e01b036200012316565b600280546001600160a01b0319166001600160a01b038316908117909155604080517f7b1039990000000000000000000000000000000000000000000000000000000081529051637b10399991600480820192602092909190829003018186803b158015620000b657600080fd5b505afa158015620000cb573d6000803e3d6000fd5b505050506040513d601f19601f82011682018060405250620000f19190810190620002c7565b600480546001600160a01b0319166001600160a01b03929092169190911790556200011c3062000175565b5062000425565b6200013e816000620001c760201b620012101790919060201c565b6040516001600160a01b038216907f22380c05984257a1cb900161c713dd71d39e74820f1aea43bd3f1bdd2096129990600090a250565b62000190816001620001c760201b620012101790919060201c565b6040516001600160a01b038216907fee1504a83b6d4a361f4c1dc78ab59bfa30d6a3b6612c403e86bb01ef2984295f90600090a250565b620001dc82826001600160e01b036200024416565b156200021f576040517f08c379a00000000000000000000000000000000000000000000000000000000081526004016200021690620003ad565b60405180910390fd5b6001600160a01b0316600090815260209190915260409020805460ff19166001179055565b60006001600160a01b03821662000289576040517f08c379a00000000000000000000000000000000000000000000000000000000081526004016200021690620003bf565b506001600160a01b03811660009081526020839052604090205460ff165b92915050565b8051620002a78162000400565b8051620002a7816200041a565b600060208284031215620002da57600080fd5b6000620002e88484620002ad565b949350505050565b6000602082840312156200030357600080fd5b6000620002e88484620002ba565b600062000320601f83620003d1565b7f526f6c65733a206163636f756e7420616c72656164792068617320726f6c6500815260200192915050565b60006200035b602283620003d1565b7f526f6c65733a206163636f756e7420697320746865207a65726f20616464726581527f7373000000000000000000000000000000000000000000000000000000000000602082015260400192915050565b60208082528101620002a78162000311565b60208082528101620002a7816200034c565b90815260200190565b6000620002a782620003f4565b6000620002a782620003da565b6001600160a01b031690565b6200040b81620003da565b81146200041757600080fd5b50565b6200040b81620003e7565b61220680620004356000396000f3fe6080604052600436106101815760003560e01c8063898851f8116100d1578063be362e2e1161008a578063f6e491aa11610064578063f6e491aa14610434578063f8a6c3d614610454578063f8a8d0c914610474578063ffa1ad741461048757610181565b8063be362e2e146103df578063c66485b2146103ff578063d6cd94731461041f57610181565b8063898851f8146103355780639865027514610355578063a3f4df7e1461036a578063aceb47641461037f578063b2da29791461039f578063bb5f747b146103bf57610181565b80634b18abea1161013e5780634c5a628c116101185780634c5a628c146102b3578063564a5158146102c857806361050ffd146102f55780637362d9c81461031557610181565b80634b18abea146102535780634b44c01a146102735780634c0b0ed21461029357610181565b806310154bad14610186578063291d9549146101a8578063350959be146101c85780633af32abf146101db5780633d7989fe146102115780633efa047f14610231575b600080fd5b34801561019257600080fd5b506101a66101a1366004611539565b61049c565b005b3480156101b457600080fd5b506101a66101c3366004611539565b6104d6565b6101a66101d6366004611539565b610504565b3480156101e757600080fd5b506101fb6101f6366004611539565b610590565b6040516102089190611f91565b60405180910390f35b34801561021d57600080fd5b506101a661022c366004611631565b6105a9565b34801561023d57600080fd5b506102466105f1565b6040516102089190611e6a565b34801561025f57600080fd5b506101a661026e366004611791565b610600565b34801561027f57600080fd5b506101a661028e3660046116d7565b61064b565b34801561029f57600080fd5b506101a66102ae366004611557565b6106e2565b3480156102bf57600080fd5b506101a6610772565b3480156102d457600080fd5b506102e86102e336600461196c565b61077d565b6040516102089190611fe2565b34801561030157600080fd5b506101a6610310366004611631565b610905565b34801561032157600080fd5b506101a6610330366004611539565b610947565b34801561034157600080fd5b506101a6610350366004611855565b610975565b34801561036157600080fd5b506101a6610a16565b34801561037657600080fd5b506102e8610a9f565b34801561038b57600080fd5b506101a661039a3660046116d7565b610ad8565b3480156103ab57600080fd5b506101a66103ba366004611557565b610b31565b3480156103cb57600080fd5b506101fb6103da366004611539565b610b8a565b3480156103eb57600080fd5b506101a66103fa3660046115ac565b610b9c565b34801561040b57600080fd5b506101a661041a366004611539565b610c32565b34801561042b57600080fd5b506101a6610c79565b34801561044057600080fd5b506101a661044f366004611938565b610c82565b34801561046057600080fd5b506101a661046f366004611938565b610cd7565b6101a6610482366004611539565b610d2c565b34801561049357600080fd5b506102e8610d80565b6104a533610b8a565b6104ca5760405162461bcd60e51b81526004016104c190612033565b60405180910390fd5b6104d381610da1565b50565b6104df33610b8a565b6104fb5760405162461bcd60e51b81526004016104c190612033565b6104d381610de9565b61050d33610590565b6105295760405162461bcd60e51b81526004016104c190612063565b6001600160a01b03811661054f5760405162461bcd60e51b81526004016104c190612003565b610557610c79565b6040516001600160a01b038216903480156108fc02916000818181858888f1935050505015801561058c573d6000803e3d6000fd5b5050565b60006105a360018363ffffffff610e3116565b92915050565b6105b233610590565b6105ce5760405162461bcd60e51b81526004016104c190612063565b6003546105eb9085908590859085906001600160a01b0316610ad8565b50505050565b6003546001600160a01b031690565b61060933610590565b6106255760405162461bcd60e51b81526004016104c190612063565b60035461064490869086908690869086906001600160a01b0316610975565b5050505050565b61065433610590565b6106705760405162461bcd60e51b81526004016104c190612063565b60025460405163115a6c9f60e31b81526001600160a01b0390911690638ad364f8906106a490889088908690600401611ee3565b600060405180830381600087803b1580156106be57600080fd5b505af11580156106d2573d6000803e3d6000fd5b5050505061064484848484610e79565b6106eb33610590565b6107075760405162461bcd60e51b81526004016104c190612063565b600254604051632605876960e11b81526001600160a01b0390911690634c0b0ed29061073b90869086908690600401611e78565b600060405180830381600087803b15801561075557600080fd5b505af1158015610769573d6000803e3d6000fd5b50505050505050565b61077b33610fd8565b565b606060008585604051610791929190611e3d565b6040518091039020905060006107dd8286868080601f01602080910402602001604051908101604052809392919081815260200183838082843760009201919091525061102092505050565b9050606087878080601f016020809104026020016040519081016040528093929190818152602001838380828437600092018290525093945061082592508491506110b09050565b905060006060306001600160a01b03168b8b604051610845929190611e3d565b6000604051808303816000865af19150503d8060008114610882576040519150601f19603f3d011682016040523d82523d6000602084013e610887565b606091505b5090925090508161089f576040513d806000833e8082fd5b826001600160e01b031916856001600160a01b0316336001600160a01b03167f9490f91465d0d2c12728b9ad47d5f1dd2ac3ef39394796e54a48b94db0b33725896040516108ed9190611f9f565b60405180910390a4955050505050505b949350505050565b61090e33610590565b61092a5760405162461bcd60e51b81526004016104c190612063565b6003546105eb9085908590859085906001600160a01b031661064b565b61095033610b8a565b61096c5760405162461bcd60e51b81526004016104c190612033565b6104d3816111c8565b61097e33610590565b61099a5760405162461bcd60e51b81526004016104c190612063565b600254604051630f95e75b60e31b81526001600160a01b0390911690637caf3ad8906109d0908990899086908890600401611f12565b600060405180830381600087803b1580156109ea57600080fd5b505af11580156109fe573d6000803e3d6000fd5b50505050610a0e85858584610e79565b505050505050565b610a1f33610b8a565b610a3b5760405162461bcd60e51b81526004016104c190612033565b600260009054906101000a90046001600160a01b03166001600160a01b031663986502756040518163ffffffff1660e01b8152600401600060405180830381600087803b158015610a8b57600080fd5b505af11580156105eb573d6000803e3d6000fd5b6040518060400160405280601e81526020017f556e73746f707061626c652057686974656c6973746564204d696e746572000081525081565b610ae133610590565b610afd5760405162461bcd60e51b81526004016104c190612063565b60025460405163c36c212560e01b81526001600160a01b039091169063c36c2125906106a490889088908690600401611ee3565b610b3a33610590565b610b565760405162461bcd60e51b81526004016104c190612063565b60025460405163b2da297960e01b81526001600160a01b039091169063b2da29799061073b90869086908690600401611e78565b60006105a3818363ffffffff610e3116565b610ba533610590565b610bc15760405162461bcd60e51b81526004016104c190612063565b600254604051635f1b171760e11b81526001600160a01b039091169063be362e2e90610bf99088908890889088908890600401611ea2565b600060405180830381600087803b158015610c1357600080fd5b505af1158015610c27573d6000803e3d6000fd5b505050505050505050565b610c3b33610b8a565b610c575760405162461bcd60e51b81526004016104c190612033565b600380546001600160a01b0319166001600160a01b0392909216919091179055565b61077b33610de9565b610c8b33610b8a565b610ca75760405162461bcd60e51b81526004016104c190612033565b60005b815181101561058c57610ccf828281518110610cc257fe5b6020026020010151610da1565b600101610caa565b610ce033610b8a565b610cfc5760405162461bcd60e51b81526004016104c190612033565b60005b815181101561058c57610d24828281518110610d1757fe5b6020026020010151610de9565b600101610cff565b610d3533610590565b610d515760405162461bcd60e51b81526004016104c190612063565b6001600160a01b038116610d775760405162461bcd60e51b81526004016104c190612003565b61054f81610da1565b604051806040016040528060058152602001640302e332e360dc1b81525081565b610db260018263ffffffff61121016565b6040516001600160a01b038216907fee1504a83b6d4a361f4c1dc78ab59bfa30d6a3b6612c403e86bb01ef2984295f90600090a250565b610dfa60018263ffffffff61125c16565b6040516001600160a01b038216907f270d9b30cf5b0793bbfd54c9d5b94aeb49462b8148399000265144a8722da6b690600090a250565b60006001600160a01b038216610e595760405162461bcd60e51b81526004016104c190612023565b506001600160a01b03166000908152602091909152604090205460ff1690565b8251610e84576105eb565b600480546040805163ebf0c71760e01b815290516001600160a01b038581169463e837ae74948994899493909116926368b62d3292849263ebf0c7179281830192602092829003018186803b158015610edc57600080fd5b505afa158015610ef0573d6000803e3d6000fd5b505050506040513d601f19601f82011682018060405250610f1491908101906119da565b8a6040518363ffffffff1660e01b8152600401610f32929190612083565b60206040518083038186803b158015610f4a57600080fd5b505afa158015610f5e573d6000803e3d6000fd5b505050506040513d601f19601f82011682018060405250610f8291908101906119da565b6040518463ffffffff1660e01b8152600401610fa093929190611f5d565b600060405180830381600087803b158015610fba57600080fd5b505af1158015610fce573d6000803e3d6000fd5b5050505050505050565b610fe960008263ffffffff61125c16565b6040516001600160a01b038216907f0a8eb35e5ca14b3d6f28e4abf2f128dbab231a58b56e89beb5d636115001e16590600090a250565b600061106382611057853060405160200161103c929190611e17565b604051602081830303815290604052805190602001206112a4565b9063ffffffff6112d416565b90506001600160a01b03811661108b5760405162461bcd60e51b81526004016104c190612043565b61109481610590565b6105a35760405162461bcd60e51b81526004016104c190612073565b602081015160006001600160e01b03198216632605876960e11b14806110e657506001600160e01b03198216631ebcc4ff60e11b145b8061110157506001600160e01b03198216632b3ad1d960e21b145b8061111c57506001600160e01b0319821663b2da297960e01b145b8061113757506001600160e01b03198216635f1b171760e11b145b8061115257506001600160e01b031982166361050ffd60e01b145b8061116d57506001600160e01b0319821663258c55f560e11b145b8061118857506001600160e01b031982166325a2600d60e11b145b806111a357506001600160e01b031982166311310a3f60e31b145b9050806111c25760405162461bcd60e51b81526004016104c190612053565b50919050565b6111d960008263ffffffff61121016565b6040516001600160a01b038216907f22380c05984257a1cb900161c713dd71d39e74820f1aea43bd3f1bdd2096129990600090a250565b61121a8282610e31565b156112375760405162461bcd60e51b81526004016104c190611ff3565b6001600160a01b0316600090815260209190915260409020805460ff19166001179055565b6112668282610e31565b6112825760405162461bcd60e51b81526004016104c190612013565b6001600160a01b0316600090815260209190915260409020805460ff19169055565b6000816040516020016112b79190611e4a565b604051602081830303815290604052805190602001209050919050565b600081516041146112e7575060006105a3565b60208201516040830151606084015160001a7f7fffffffffffffffffffffffffffffff5d576e7357a4501ddfe92f46681b20a082111561132d57600093505050506105a3565b8060ff16601b1415801561134557508060ff16601c14155b1561135657600093505050506105a3565b600186828585604051600081526020016040526040516113799493929190611fad565b6020604051602081039080840390855afa15801561139b573d6000803e3d6000fd5b5050604051601f190151979650505050505050565b80356105a3816121a6565b600082601f8301126113cc57600080fd5b81356113df6113da826120c9565b6120a3565b9150818183526020840193506020810190508385602084028201111561140457600080fd5b60005b83811015611430578161141a88826113b0565b8452506020928301929190910190600101611407565b5050505092915050565b600082601f83011261144b57600080fd5b81356114596113da826120c9565b81815260209384019390925082018360005b83811015611430578135860161148188826114df565b845250602092830192919091019060010161146b565b60008083601f8401126114a957600080fd5b5081356001600160401b038111156114c057600080fd5b6020830191508360018202830111156114d857600080fd5b9250929050565b600082601f8301126114f057600080fd5b81356114fe6113da826120e9565b9150808252602083016020830185838301111561151a57600080fd5b61152583828461214d565b50505092915050565b80516105a3816121ba565b60006020828403121561154b57600080fd5b60006108fd84846113b0565b60008060006040848603121561156c57600080fd5b600061157886866113b0565b93505060208401356001600160401b0381111561159457600080fd5b6115a086828701611497565b92509250509250925092565b6000806000806000606086880312156115c457600080fd5b60006115d088886113b0565b95505060208601356001600160401b038111156115ec57600080fd5b6115f888828901611497565b945094505060408601356001600160401b0381111561161657600080fd5b61162288828901611497565b92509250509295509295909350565b6000806000806080858703121561164757600080fd5b600061165387876113b0565b94505060208501356001600160401b0381111561166f57600080fd5b61167b878288016114df565b93505060408501356001600160401b0381111561169757600080fd5b6116a38782880161143a565b92505060608501356001600160401b038111156116bf57600080fd5b6116cb8782880161143a565b91505092959194509250565b600080600080600060a086880312156116ef57600080fd5b60006116fb88886113b0565b95505060208601356001600160401b0381111561171757600080fd5b611723888289016114df565b94505060408601356001600160401b0381111561173f57600080fd5b61174b8882890161143a565b93505060608601356001600160401b0381111561176757600080fd5b6117738882890161143a565b9250506080611784888289016113b0565b9150509295509295909350565b600080600080600060a086880312156117a957600080fd5b60006117b588886113b0565b95505060208601356001600160401b038111156117d157600080fd5b6117dd888289016114df565b94505060408601356001600160401b038111156117f957600080fd5b6118058882890161143a565b93505060608601356001600160401b0381111561182157600080fd5b61182d8882890161143a565b92505060808601356001600160401b0381111561184957600080fd5b611784888289016114df565b60008060008060008060c0878903121561186e57600080fd5b600061187a89896113b0565b96505060208701356001600160401b0381111561189657600080fd5b6118a289828a016114df565b95505060408701356001600160401b038111156118be57600080fd5b6118ca89828a0161143a565b94505060608701356001600160401b038111156118e657600080fd5b6118f289828a0161143a565b93505060808701356001600160401b0381111561190e57600080fd5b61191a89828a016114df565b92505060a061192b89828a016113b0565b9150509295509295509295565b60006020828403121561194a57600080fd5b81356001600160401b0381111561196057600080fd5b6108fd848285016113bb565b6000806000806040858703121561198257600080fd5b84356001600160401b0381111561199857600080fd5b6119a487828801611497565b945094505060208501356001600160401b038111156119c257600080fd5b6119ce87828801611497565b95989497509550505050565b6000602082840312156119ec57600080fd5b60006108fd848461152e565b6000611a048383611b07565b9392505050565b611a1481612128565b82525050565b611a14611a2682612128565b612185565b6000611a3682612116565b611a40818561211a565b935083602082028501611a5285612110565b8060005b85811015611a8c5784840389528151611a6f85826119f8565b9450611a7a83612110565b60209a909a0199925050600101611a56565b5091979650505050505050565b611a1481612133565b611a1481612138565b611a14611ab782612138565b612138565b6000611ac8838561211a565b9350611ad583858461214d565b611ade83612196565b9093019392505050565b6000611af48385612123565b9350611b0183858461214d565b50500190565b6000611b1282612116565b611b1c818561211a565b9350611b2c818560208601612159565b611ade81612196565b6000611b42601f8361211a565b7f526f6c65733a206163636f756e7420616c72656164792068617320726f6c6500815260200192915050565b6000611b7b601c83612123565b7f19457468657265756d205369676e6564204d6573736167653a0a3332000000008152601c0192915050565b6000611bb460248361211a565b7f57686974656c69737465644d696e7465723a2052454345495645525f49535f458152634d50545960e01b602082015260400192915050565b6000611bfa60218361211a565b7f526f6c65733a206163636f756e7420646f6573206e6f74206861766520726f6c8152606560f81b602082015260400192915050565b6000611c3d60228361211a565b7f526f6c65733a206163636f756e7420697320746865207a65726f206164647265815261737360f01b602082015260400192915050565b6000611c8160408361211a565b7f57686974656c69737441646d696e526f6c653a2063616c6c657220646f65732081527f6e6f742068617665207468652057686974656c69737441646d696e20726f6c65602082015260400192915050565b6000611ce060278361211a565b7f57686974656c69737465644d696e7465723a205349474e41545552455f49535f8152661253959053125160ca1b602082015260400192915050565b6000611d2960238361211a565b7f57686974656c69737465644d696e7465723a20554e535550504f525445445f4381526210531360ea1b602082015260400192915050565b6000611d6e603a8361211a565b7f57686974656c6973746564526f6c653a2063616c6c657220646f6573206e6f7481527f2068617665207468652057686974656c697374656420726f6c65000000000000602082015260400192915050565b6000611dcd602c8361211a565b7f57686974656c69737465644d696e7465723a205349474e45525f49535f4e4f5481526b17d5d2125511531254d5115160a21b602082015260400192915050565b611a1481612147565b6000611e238285611aab565b602082019150611e338284611a1a565b5060140192915050565b60006108fd828486611ae8565b6000611e5582611b6e565b9150611e618284611aab565b50602001919050565b602081016105a38284611a0b565b60408101611e868286611a0b565b8181036020830152611e99818486611abc565b95945050505050565b60608101611eb08288611a0b565b8181036020830152611ec3818688611abc565b90508181036040830152611ed8818486611abc565b979650505050505050565b60608101611ef18286611a0b565b8181036020830152611f038185611b07565b90506108fd6040830184611a0b565b60808101611f208287611a0b565b8181036020830152611f328186611b07565b9050611f416040830185611a0b565b8181036060830152611f538184611b07565b9695505050505050565b60608082528101611f6e8186611a2b565b90508181036020830152611f828185611a2b565b90506108fd6040830184611aa2565b602081016105a38284611a99565b602081016105a38284611aa2565b60808101611fbb8287611aa2565b611fc86020830186611e0e565b611fd56040830185611aa2565b611e996060830184611aa2565b60208082528101611a048184611b07565b602080825281016105a381611b35565b602080825281016105a381611ba7565b602080825281016105a381611bed565b602080825281016105a381611c30565b602080825281016105a381611c74565b602080825281016105a381611cd3565b602080825281016105a381611d1c565b602080825281016105a381611d61565b602080825281016105a381611dc0565b604081016120918285611aa2565b81810360208301526108fd8184611b07565b6040518181016001600160401b03811182821017156120c157600080fd5b604052919050565b60006001600160401b038211156120df57600080fd5b5060209081020190565b60006001600160401b038211156120ff57600080fd5b506020601f91909101601f19160190565b60200190565b5190565b90815260200190565b919050565b60006105a38261213b565b151590565b90565b6001600160a01b031690565b60ff1690565b82818337506000910152565b60005b8381101561217457818101518382015260200161215c565b838111156105eb5750506000910152565b60006105a38260006105a3826121a0565b601f01601f191690565b60601b90565b6121af81612128565b81146104d357600080fd5b6121af8161213856fea365627a7a72315820784315ec8b4d04e6054761a9e35a177b8b066ce367d04086c10f90cb6add14f26c6578706572696d656e74616cf564736f6c634300050c0040",
  "linkReferences": {},
  "deployedLinkReferences": {}
}