{
  "_format": "hh-sol-artifact-1",
  "contractName": "WorkerSmartAccount",
  "sourceName": "contracts/smartAccounts/WorkerSmartAccount.sol",
  "abi": [
    {
      "inputs": [
        {
          "internalType": "contract IFaucet",
          "name": "_faucet",
          "type": "address"
        },
        {
          "internalType": "uint256",
          "name": "_balanceThreshold",
          "type": "uint256"
        }
      ],
      "stateMutability": "nonpayable",
      "type": "constructor"
    },
    {
      "stateMutability": "payable",
      "type": "fallback"
    },
    {
      "inputs": [
        {
          "components": [
            {
              "internalType": "address",
              "name": "to",
              "type": "address"
            },
            {
              "internalType": "uint256",
              "name": "value",
              "type": "uint256"
            },
            {
              "internalType": "bytes",
              "name": "data",
              "type": "bytes"
            }
          ],
          "internalType": "struct ISmartAccount.Call[]",
          "name": "calls",
          "type": "tuple[]"
        },
        {
          "internalType": "contract IUserSmartAccount",
          "name": "userSA",
          "type": "address"
        },
        {
          "internalType": "uint256",
          "name": "txDeadline",
          "type": "uint256"
        },
        {
          "components": [
            {
              "internalType": "uint8",
              "name": "v",
              "type": "uint8"
            },
            {
              "internalType": "bytes32",
              "name": "r",
              "type": "bytes32"
            },
            {
              "internalType": "bytes32",
              "name": "s",
              "type": "bytes32"
            }
          ],
          "internalType": "struct ISmartAccount.SplitSignature",
          "name": "userSignature",
          "type": "tuple"
        }
      ],
      "name": "executeAndCheckBalance",
      "outputs": [],
      "stateMutability": "payable",
      "type": "function"
    },
    {
      "inputs": [],
      "name": "helloEIP7702",
      "outputs": [
        {
          "internalType": "string",
          "name": "",
          "type": "string"
        }
      ],
      "stateMutability": "pure",
      "type": "function"
    },
    {
      "stateMutability": "payable",
      "type": "receive"
    }
  ],
  "bytecode": "0x60c060405234801561000f575f80fd5b506040516104df3803806104df83398101604081905261002e91610044565b6001600160a01b0390911660a05260805261007b565b5f8060408385031215610055575f80fd5b82516001600160a01b038116811461006b575f80fd5b6020939093015192949293505050565b60805160a05161044361009c5f395f61017e01525f61015601526104435ff3fe608060405260043610610029575f3560e01c806341614231146100325780635c8e4d891461007757005b3661003057005b005b34801561003d575f80fd5b50604080518082018252600e81526d2432b636379022a4a8169b9b981960911b6020820152905161006e91906101ed565b60405180910390f35b610030610085366004610250565b3330146100e65760405162461bcd60e51b815260206004820152602560248201527f576f726b6572536d6172744163636f756e743a20496e76616c696420617574686044820152646f7269747960d81b606482015260840160405180910390fd5b60405163585b6b8b60e11b81526001600160a01b0384169063b0b6d71690610118908890889087908790600401610343565b5f604051808303815f87803b15801561012f575f80fd5b505af1158015610141573d5f803e3d5ffd5b5050505061014d610154565b5050505050565b7f00000000000000000000000000000000000000000000000000000000000000004710156101eb577f00000000000000000000000000000000000000000000000000000000000000006001600160a01b0316633ccfd60b6040518163ffffffff1660e01b81526004015f604051808303815f87803b1580156101d4575f80fd5b505af11580156101e6573d5f803e3d5ffd5b505050505b565b5f602080835283518060208501525f5b81811015610219578581018301518582016040015282016101fd565b505f604082860101526040601f19601f8301168501019250505092915050565b6001600160a01b038116811461024d575f80fd5b50565b5f805f805f85870360c0811215610265575f80fd5b863567ffffffffffffffff8082111561027c575f80fd5b818901915089601f83011261028f575f80fd5b81358181111561029d575f80fd5b8a60208260051b85010111156102b1575f80fd5b602092830198509650508701356102c781610239565b9350604087013592506060605f19820112156102e1575f80fd5b506060860190509295509295909350565b81835281816020850137505f828201602090810191909152601f909101601f19169091010190565b803560ff811680821461032b575f80fd5b83525060208181013590830152604090810135910152565b60a080825281018490525f60c0600586901b8301810190830187835b888110156104145785840360bf190183528135368b9003605e19018112610384575f80fd5b8a016060813561039381610239565b6001600160a01b031686526020828101358188015260408084013536859003601e190181126103c0575f80fd5b90930181810193903567ffffffffffffffff8111156103dd575f80fd5b8036038513156103eb575f80fd5b83828a01526103fd848a0182876102f2565b98505050948501949390930192505060010161035f565b50505060208301859052905061042d604083018461031a565b9594505050505056fea164736f6c6343000818000a",
  "linkReferences": {},
  "deployedLinkReferences": {}
}