{
  "_format": "hh-sol-artifact-1",
  "contractName": "WorkerSmartAccount",
  "sourceName": "contracts/smartAccounts/WorkerSmartAccount.sol",
  "abi": [
    {
      "inputs": [
        {
          "internalType": "contract IFaucet",
          "name": "_faucet",
          "type": "address"
        }
      ],
      "stateMutability": "nonpayable",
      "type": "constructor"
    },
    {
      "anonymous": false,
      "inputs": [
        {
          "indexed": true,
          "internalType": "uint256",
          "name": "nonce",
          "type": "uint256"
        },
        {
          "components": [
            {
              "internalType": "address",
              "name": "to",
              "type": "address"
            },
            {
              "internalType": "uint256",
              "name": "value",
              "type": "uint256"
            },
            {
              "internalType": "bytes",
              "name": "data",
              "type": "bytes"
            }
          ],
          "indexed": false,
          "internalType": "struct WorkerSmartAccount.Call[]",
          "name": "calls",
          "type": "tuple[]"
        }
      ],
      "name": "BatchExecuted",
      "type": "event"
    },
    {
      "anonymous": false,
      "inputs": [
        {
          "indexed": true,
          "internalType": "address",
          "name": "sender",
          "type": "address"
        },
        {
          "indexed": true,
          "internalType": "address",
          "name": "to",
          "type": "address"
        },
        {
          "indexed": false,
          "internalType": "uint256",
          "name": "value",
          "type": "uint256"
        },
        {
          "indexed": false,
          "internalType": "bytes",
          "name": "data",
          "type": "bytes"
        }
      ],
      "name": "CallExecuted",
      "type": "event"
    },
    {
      "stateMutability": "payable",
      "type": "fallback"
    },
    {
      "inputs": [
        {
          "components": [
            {
              "internalType": "address",
              "name": "to",
              "type": "address"
            },
            {
              "internalType": "uint256",
              "name": "value",
              "type": "uint256"
            },
            {
              "internalType": "bytes",
              "name": "data",
              "type": "bytes"
            }
          ],
          "internalType": "struct WorkerSmartAccount.Call[]",
          "name": "calls",
          "type": "tuple[]"
        }
      ],
      "name": "executeAndCheckBalance",
      "outputs": [],
      "stateMutability": "payable",
      "type": "function"
    },
    {
      "inputs": [],
      "name": "helloEIP7702",
      "outputs": [
        {
          "internalType": "string",
          "name": "",
          "type": "string"
        }
      ],
      "stateMutability": "pure",
      "type": "function"
    },
    {
      "inputs": [],
      "name": "nonce",
      "outputs": [
        {
          "internalType": "uint256",
          "name": "",
          "type": "uint256"
        }
      ],
      "stateMutability": "view",
      "type": "function"
    },
    {
      "stateMutability": "payable",
      "type": "receive"
    }
  ],
  "bytecode": "0x60a060405234801561000f575f80fd5b5060405161069d38038061069d83398101604081905261002e9161003f565b6001600160a01b031660805261006c565b5f6020828403121561004f575f80fd5b81516001600160a01b0381168114610065575f80fd5b9392505050565b6080516106196100845f395f6101ba01526106195ff3fe608060405260043610610034575f3560e01c8063416142311461003d5780637677aad414610082578063affed0e01461009557005b3661003b57005b005b348015610048575f80fd5b50604080518082018252600e81526d2432b636379022a4a8169b9b981960911b602082015290516100799190610345565b60405180910390f35b61003b610090366004610391565b6100b7565b3480156100a0575f80fd5b506100a95f5481565b604051908152602001610079565b3330146100ff5760405162461bcd60e51b8152602060048201526011602482015270496e76616c696420617574686f7269747960781b60448201526064015b60405180910390fd5b6101098282610115565b6101116101a8565b5050565b5f80549081908061012583610400565b91905055505f5b828110156101685761016084848381811061014957610149610424565b905060200281019061015b9190610438565b610229565b60010161012c565b50807f280bb3599696acbf79fb8ffcde81a57337b52500f789600fbb1cff9b4cbaba39848460405161019b929190610499565b60405180910390a2505050565b670de0b6b3a7640000471015610227577f00000000000000000000000000000000000000000000000000000000000000006001600160a01b0316633ccfd60b6040518163ffffffff1660e01b81526004015f604051808303815f87803b158015610210575f80fd5b505af1158015610222573d5f803e3d5ffd5b505050505b565b5f6102376020830183610571565b6001600160a01b031660208301356102526040850185610591565b6040516102609291906105db565b5f6040518083038185875af1925050503d805f811461029a576040519150601f19603f3d011682016040523d82523d5f602084013e61029f565b606091505b50509050806102e05760405162461bcd60e51b815260206004820152600d60248201526c10d85b1b081c995d995c9d1959609a1b60448201526064016100f6565b6102ed6020830183610571565b6001600160a01b0316337fed7e8f919df9cc0d0ad8b4057d084ebf319b630564d5da283e14751adc931f3a602085013561032a6040870187610591565b604051610339939291906105ea565b60405180910390a35050565b5f602080835283518060208501525f5b8181101561037157858101830151858201604001528201610355565b505f604082860101526040601f19601f8301168501019250505092915050565b5f80602083850312156103a2575f80fd5b823567ffffffffffffffff808211156103b9575f80fd5b818501915085601f8301126103cc575f80fd5b8135818111156103da575f80fd5b8660208260051b85010111156103ee575f80fd5b60209290920196919550909350505050565b5f6001820161041d57634e487b7160e01b5f52601160045260245ffd5b5060010190565b634e487b7160e01b5f52603260045260245ffd5b5f8235605e1983360301811261044c575f80fd5b9190910192915050565b80356001600160a01b038116811461046c575f80fd5b919050565b81835281816020850137505f828201602090810191909152601f909101601f19169091010190565b60208082528181018390525f906040808401600586901b8501820187855b8881101561056357878303603f190184528135368b9003605e190181126104dc575f80fd5b8a0160606001600160a01b036104f183610456565b168552878201358886015286820135601e19833603018112610511575f80fd5b90910187810191903567ffffffffffffffff81111561052e575f80fd5b80360383131561053c575f80fd5b818887015261054e8287018285610471565b968901969550505091860191506001016104b7565b509098975050505050505050565b5f60208284031215610581575f80fd5b61058a82610456565b9392505050565b5f808335601e198436030181126105a6575f80fd5b83018035915067ffffffffffffffff8211156105c0575f80fd5b6020019150368190038213156105d4575f80fd5b9250929050565b818382375f9101908152919050565b838152604060208201525f610603604083018486610471565b9594505050505056fea164736f6c6343000818000a",
  "linkReferences": {},
  "deployedLinkReferences": {}
}