{
  "_format": "hh-sol-artifact-1",
  "contractName": "WorkerSmartAccount",
  "sourceName": "contracts/smartAccounts/WorkerSmartAccount.sol",
  "abi": [
    {
      "inputs": [
        {
          "internalType": "contract IFaucet",
          "name": "_faucet",
          "type": "address"
        },
        {
          "internalType": "uint256",
          "name": "_balanceThreshold",
          "type": "uint256"
        }
      ],
      "stateMutability": "nonpayable",
      "type": "constructor"
    },
    {
      "stateMutability": "payable",
      "type": "fallback"
    },
    {
      "inputs": [
        {
          "internalType": "address[]",
          "name": "targets",
          "type": "address[]"
        },
        {
          "internalType": "bytes[]",
          "name": "datas",
          "type": "bytes[]"
        },
        {
          "internalType": "uint256[]",
          "name": "values",
          "type": "uint256[]"
        }
      ],
      "name": "executeBatch",
      "outputs": [],
      "stateMutability": "payable",
      "type": "function"
    },
    {
      "inputs": [
        {
          "internalType": "address[]",
          "name": "targets",
          "type": "address[]"
        },
        {
          "internalType": "bytes[]",
          "name": "datas",
          "type": "bytes[]"
        },
        {
          "internalType": "uint256[]",
          "name": "values",
          "type": "uint256[]"
        }
      ],
      "name": "executeBatchAndEnsureBalance",
      "outputs": [],
      "stateMutability": "payable",
      "type": "function"
    },
    {
      "stateMutability": "payable",
      "type": "receive"
    }
  ],
  "bytecode": "0x60c060405234801561000f575f80fd5b5060405161066a38038061066a83398101604081905261002e91610044565b6001600160a01b0390911660a05260805261007b565b5f8060408385031215610055575f80fd5b82516001600160a01b038116811461006b575f80fd5b6020939093015192949293505050565b60805160a0516105ce61009c5f395f61031501525f6102ed01526105ce5ff3fe608060405260043610610029575f3560e01c8063b77ce56414610032578063d075a8c81461004557005b3661003057005b005b6100306100403660046103cc565b610058565b6100306100533660046103cc565b6101a2565b3330146100805760405162461bcd60e51b81526004016100779061045f565b60405180910390fd5b848314801561008e57508481145b6100aa5760405162461bcd60e51b8152600401610077906104a4565b5f5b85811015610199575f8787838181106100c7576100c76104ec565b90506020020160208101906100dc9190610500565b6001600160a01b03168484848181106100f7576100f76104ec565b90506020020135878785818110610110576101106104ec565b9050602002810190610122919061052d565b604051610130929190610570565b5f6040518083038185875af1925050503d805f811461016a576040519150601f19603f3d011682016040523d82523d5f602084013e61016f565b606091505b50509050806101905760405162461bcd60e51b81526004016100779061057f565b506001016100ac565b50505050505050565b3330146101c15760405162461bcd60e51b81526004016100779061045f565b84831480156101cf57508481145b6101eb5760405162461bcd60e51b8152600401610077906104a4565b5f5b858110156102da575f878783818110610208576102086104ec565b905060200201602081019061021d9190610500565b6001600160a01b0316848484818110610238576102386104ec565b90506020020135878785818110610251576102516104ec565b9050602002810190610263919061052d565b604051610271929190610570565b5f6040518083038185875af1925050503d805f81146102ab576040519150601f19603f3d011682016040523d82523d5f602084013e6102b0565b606091505b50509050806102d15760405162461bcd60e51b81526004016100779061057f565b506001016101ed565b506102e36102eb565b505050505050565b7f0000000000000000000000000000000000000000000000000000000000000000471015610382577f00000000000000000000000000000000000000000000000000000000000000006001600160a01b0316633ccfd60b6040518163ffffffff1660e01b81526004015f604051808303815f87803b15801561036b575f80fd5b505af115801561037d573d5f803e3d5ffd5b505050505b565b5f8083601f840112610394575f80fd5b50813567ffffffffffffffff8111156103ab575f80fd5b6020830191508360208260051b85010111156103c5575f80fd5b9250929050565b5f805f805f80606087890312156103e1575f80fd5b863567ffffffffffffffff808211156103f8575f80fd5b6104048a838b01610384565b9098509650602089013591508082111561041c575f80fd5b6104288a838b01610384565b90965094506040890135915080821115610440575f80fd5b5061044d89828a01610384565b979a9699509497509295939492505050565b60208082526025908201527f576f726b6572536d6172744163636f756e743a20496e76616c696420617574686040820152646f7269747960d81b606082015260800190565b60208082526028908201527f576f726b6572536d6172744163636f756e743a20496e76616c6964207472616e60408201526773616374696f6e7360c01b606082015260800190565b634e487b7160e01b5f52603260045260245ffd5b5f60208284031215610510575f80fd5b81356001600160a01b0381168114610526575f80fd5b9392505050565b5f808335601e19843603018112610542575f80fd5b83018035915067ffffffffffffffff82111561055c575f80fd5b6020019150368190038213156103c5575f80fd5b818382375f9101908152919050565b60208082526022908201527f576f726b6572536d6172744163636f756e743a2045786563757465206661696c604082015261195960f21b60608201526080019056fea164736f6c6343000818000a",
  "linkReferences": {},
  "deployedLinkReferences": {}
}