{
  "_format": "hh-sol-artifact-1",
  "contractName": "WorkerSmartAccount",
  "sourceName": "contracts/smartAccounts/WorkerSmartAccount.sol",
  "abi": [
    {
      "inputs": [
        {
          "internalType": "contract IFaucet",
          "name": "_faucet",
          "type": "address"
        }
      ],
      "stateMutability": "nonpayable",
      "type": "constructor"
    },
    {
      "stateMutability": "payable",
      "type": "fallback"
    },
    {
      "inputs": [],
      "name": "balanceThreshold",
      "outputs": [
        {
          "internalType": "uint256",
          "name": "value",
          "type": "uint256"
        }
      ],
      "stateMutability": "view",
      "type": "function"
    },
    {
      "inputs": [
        {
          "internalType": "address[]",
          "name": "targets",
          "type": "address[]"
        },
        {
          "internalType": "bytes[]",
          "name": "datas",
          "type": "bytes[]"
        },
        {
          "internalType": "uint256[]",
          "name": "values",
          "type": "uint256[]"
        }
      ],
      "name": "executeBatch",
      "outputs": [],
      "stateMutability": "payable",
      "type": "function"
    },
    {
      "inputs": [
        {
          "internalType": "address[]",
          "name": "targets",
          "type": "address[]"
        },
        {
          "internalType": "bytes[]",
          "name": "datas",
          "type": "bytes[]"
        },
        {
          "internalType": "uint256[]",
          "name": "values",
          "type": "uint256[]"
        }
      ],
      "name": "executeBatchAndEnsureBalance",
      "outputs": [],
      "stateMutability": "payable",
      "type": "function"
    },
    {
      "inputs": [],
      "name": "faucet",
      "outputs": [
        {
          "internalType": "contract IFaucet",
          "name": "",
          "type": "address"
        }
      ],
      "stateMutability": "view",
      "type": "function"
    },
    {
      "inputs": [
        {
          "internalType": "uint256",
          "name": "_newThreshold",
          "type": "uint256"
        }
      ],
      "name": "setBalanceThreshold",
      "outputs": [],
      "stateMutability": "nonpayable",
      "type": "function"
    },
    {
      "stateMutability": "payable",
      "type": "receive"
    }
  ],
  "bytecode": "0x60a060405234801561000f575f80fd5b5060405161066938038061066983398101604081905261002e9161003f565b6001600160a01b031660805261006c565b5f6020828403121561004f575f80fd5b81516001600160a01b0381168114610065575f80fd5b9392505050565b6080516105df61008a5f395f818160ea015261038e01526105df5ff3fe60806040526004361061004a575f3560e01c806387020d6b14610053578063b77ce56414610072578063c317377414610085578063d075a8c8146100c6578063de5f72fd146100d957005b3661005157005b005b34801561005e575f80fd5b5061005161006d3660046103fd565b610124565b61005161008036600461045c565b610170565b348015610090575f80fd5b507f5b8c3d83666741a3d369e0ad33d88661dc3e95bcb194a23d030cf3d9c5bc0e91546040519081526020015b60405180910390f35b6100516100d436600461045c565b610326565b3480156100e4575f80fd5b5061010c7f000000000000000000000000000000000000000000000000000000000000000081565b6040516001600160a01b0390911681526020016100bd565b33301461014c5760405162461bcd60e51b8152600401610143906104ef565b60405180910390fd5b7f5b8c3d83666741a3d369e0ad33d88661dc3e95bcb194a23d030cf3d9c5bc0e9155565b33301461018f5760405162461bcd60e51b8152600401610143906104ef565b848314801561019d57508481145b6101f35760405162461bcd60e51b815260206004820152602160248201527f576f726b6572536d6172744163636f756e743a20496e76616c69642063616c6c6044820152607360f81b6064820152608401610143565b5f5b8581101561031d575f8787838181106102105761021061053f565b90506020020160208101906102259190610553565b6001600160a01b03168484848181106102405761024061053f565b905060200201358787858181106102595761025961053f565b905060200281019061026b9190610580565b6040516102799291906105c3565b5f6040518083038185875af1925050503d805f81146102b3576040519150601f19603f3d011682016040523d82523d5f602084013e6102b8565b606091505b50509050806103145760405162461bcd60e51b815260206004820152602260248201527f576f726b6572536d6172744163636f756e743a2045786563757465206661696c604482015261195960f21b6064820152608401610143565b506001016101f5565b50505050505050565b3330146103455760405162461bcd60e51b8152600401610143906104ef565b610353868686868686610170565b61035b610363565b505050505050565b7f5b8c3d83666741a3d369e0ad33d88661dc3e95bcb194a23d030cf3d9c5bc0e91544710156103fb577f00000000000000000000000000000000000000000000000000000000000000006001600160a01b03166386cb61c26040518163ffffffff1660e01b81526004015f604051808303815f87803b1580156103e4575f80fd5b505af11580156103f6573d5f803e3d5ffd5b505050505b565b5f6020828403121561040d575f80fd5b5035919050565b5f8083601f840112610424575f80fd5b50813567ffffffffffffffff81111561043b575f80fd5b6020830191508360208260051b8501011115610455575f80fd5b9250929050565b5f805f805f8060608789031215610471575f80fd5b863567ffffffffffffffff80821115610488575f80fd5b6104948a838b01610414565b909850965060208901359150808211156104ac575f80fd5b6104b88a838b01610414565b909650945060408901359150808211156104d0575f80fd5b506104dd89828a01610414565b979a9699509497509295939492505050565b60208082526030908201527f576f726b6572536d6172744163636f756e743a2043616e206265206f6e6c792060408201526f31b0b63632b210333937b69039b2b63360811b606082015260800190565b634e487b7160e01b5f52603260045260245ffd5b5f60208284031215610563575f80fd5b81356001600160a01b0381168114610579575f80fd5b9392505050565b5f808335601e19843603018112610595575f80fd5b83018035915067ffffffffffffffff8211156105af575f80fd5b602001915036819003821315610455575f80fd5b818382375f910190815291905056fea164736f6c6343000818000a",
  "linkReferences": {},
  "deployedLinkReferences": {}
}