{
  "_format": "hh-sol-artifact-1",
  "contractName": "WorkerSmartAccount",
  "sourceName": "contracts/smartAccounts/WorkerSmartAccount.sol",
  "abi": [
    {
      "inputs": [
        {
          "internalType": "contract IFaucet",
          "name": "_faucet",
          "type": "address"
        }
      ],
      "stateMutability": "nonpayable",
      "type": "constructor"
    },
    {
      "stateMutability": "payable",
      "type": "fallback"
    },
    {
      "inputs": [
        {
          "components": [
            {
              "internalType": "address",
              "name": "to",
              "type": "address"
            },
            {
              "internalType": "uint256",
              "name": "value",
              "type": "uint256"
            },
            {
              "internalType": "bytes",
              "name": "data",
              "type": "bytes"
            }
          ],
          "internalType": "struct ISmartAccount.Call[]",
          "name": "calls",
          "type": "tuple[]"
        },
        {
          "internalType": "contract IUserSmartAccount",
          "name": "userSA",
          "type": "address"
        },
        {
          "internalType": "bytes",
          "name": "userSignature",
          "type": "bytes"
        }
      ],
      "name": "executeAndCheckBalance",
      "outputs": [],
      "stateMutability": "payable",
      "type": "function"
    },
    {
      "inputs": [],
      "name": "helloEIP7702",
      "outputs": [
        {
          "internalType": "string",
          "name": "",
          "type": "string"
        }
      ],
      "stateMutability": "pure",
      "type": "function"
    },
    {
      "stateMutability": "payable",
      "type": "receive"
    }
  ],
  "bytecode": "0x60a060405234801561000f575f80fd5b506040516104e43803806104e483398101604081905261002e9161003f565b6001600160a01b031660805261006c565b5f6020828403121561004f575f80fd5b81516001600160a01b0381168114610065575f80fd5b9392505050565b6080516104606100845f395f61016b01526104605ff3fe608060405260043610610029575f3560e01c806313527a7214610032578063416142311461004557005b3661003057005b005b610030610040366004610246565b61008a565b348015610050575f80fd5b50604080518082018252600e81526d2432b636379022a4a8169b9b981960911b6020820152905161008191906102ef565b60405180910390f35b3330146100eb5760405162461bcd60e51b815260206004820152602560248201527f576f726b6572536d6172744163636f756e743a20496e76616c696420617574686044820152646f7269747960d81b606482015260840160405180910390fd5b604051636171d1c960e01b81526001600160a01b03841690636171d1c99061011d908890889087908790600401610363565b5f604051808303815f87803b158015610134575f80fd5b505af1158015610146573d5f803e3d5ffd5b50505050610152610159565b5050505050565b67016345785d8a00004710156101d8577f00000000000000000000000000000000000000000000000000000000000000006001600160a01b0316633ccfd60b6040518163ffffffff1660e01b81526004015f604051808303815f87803b1580156101c1575f80fd5b505af11580156101d3573d5f803e3d5ffd5b505050505b565b6001600160a01b03811681146101ee575f80fd5b50565b80356101fc816101da565b919050565b5f8083601f840112610211575f80fd5b50813567ffffffffffffffff811115610228575f80fd5b60208301915083602082850101111561023f575f80fd5b9250929050565b5f805f805f6060868803121561025a575f80fd5b853567ffffffffffffffff80821115610271575f80fd5b818801915088601f830112610284575f80fd5b813581811115610292575f80fd5b8960208260051b85010111156102a6575f80fd5b602083019750809650506102bc602089016101f1565b945060408801359150808211156102d1575f80fd5b506102de88828901610201565b969995985093965092949392505050565b5f602080835283518060208501525f5b8181101561031b578581018301518582016040015282016102ff565b505f604082860101526040601f19601f8301168501019250505092915050565b81835281816020850137505f828201602090810191909152601f909101601f19169091010190565b60408082528181018590525f906060808401600588901b8501820189855b8a81101561043057878303605f190184528135368d9003605e190181126103a6575f80fd5b8c0180356103b3816101da565b6001600160a01b03168452602081810135818601528782013536839003601e190181126103de575f80fd5b90910181810191903567ffffffffffffffff8111156103fb575f80fd5b803603831315610409575f80fd5b878987015261041b888701828561033b565b96820196955050929092019150600101610381565b5050858103602087015261044581888a61033b565b9a995050505050505050505056fea164736f6c6343000818000a",
  "linkReferences": {},
  "deployedLinkReferences": {}
}