{
  "_format": "hh-sol-artifact-1",
  "contractName": "ZilliqaRecover",
  "sourceName": "contracts/ZilliqaRecover.sol",
  "abi": [
    {
      "anonymous": false,
      "inputs": [
        {
          "indexed": false,
          "internalType": "uint8",
          "name": "version",
          "type": "uint8"
        }
      ],
      "name": "Initialized",
      "type": "event"
    },
    {
      "inputs": [
        {
          "internalType": "uint256",
          "name": "tokenId",
          "type": "uint256"
        },
        {
          "internalType": "uint256",
          "name": "publicKey",
          "type": "uint256"
        },
        {
          "internalType": "address",
          "name": "newOwnerAddress",
          "type": "address"
        },
        {
          "internalType": "bytes",
          "name": "signature",
          "type": "bytes"
        }
      ],
      "name": "claim",
      "outputs": [],
      "stateMutability": "nonpayable",
      "type": "function"
    },
    {
      "inputs": [
        {
          "internalType": "bytes",
          "name": "publicKey",
          "type": "bytes"
        }
      ],
      "name": "compressPublicKey",
      "outputs": [
        {
          "internalType": "bytes",
          "name": "",
          "type": "bytes"
        }
      ],
      "stateMutability": "pure",
      "type": "function"
    },
    {
      "inputs": [
        {
          "internalType": "bytes",
          "name": "publicKey",
          "type": "bytes"
        }
      ],
      "name": "ethAddress",
      "outputs": [
        {
          "internalType": "address",
          "name": "",
          "type": "address"
        }
      ],
      "stateMutability": "pure",
      "type": "function"
    },
    {
      "inputs": [
        {
          "internalType": "uint256",
          "name": "tokenId",
          "type": "uint256"
        },
        {
          "internalType": "bytes",
          "name": "publicKey",
          "type": "bytes"
        }
      ],
      "name": "ethSignedMessage",
      "outputs": [
        {
          "internalType": "bytes32",
          "name": "",
          "type": "bytes32"
        }
      ],
      "stateMutability": "view",
      "type": "function"
    },
    {
      "inputs": [
        {
          "internalType": "uint256",
          "name": "tokenId",
          "type": "uint256"
        },
        {
          "internalType": "address",
          "name": "owner",
          "type": "address"
        }
      ],
      "name": "initialize",
      "outputs": [],
      "stateMutability": "nonpayable",
      "type": "function"
    },
    {
      "inputs": [
        {
          "internalType": "address",
          "name": "forwarder",
          "type": "address"
        }
      ],
      "name": "isTrustedForwarder",
      "outputs": [
        {
          "internalType": "bool",
          "name": "",
          "type": "bool"
        }
      ],
      "stateMutability": "view",
      "type": "function"
    },
    {
      "inputs": [
        {
          "internalType": "uint256",
          "name": "tokenId",
          "type": "uint256"
        },
        {
          "internalType": "bytes",
          "name": "publicKey",
          "type": "bytes"
        }
      ],
      "name": "message",
      "outputs": [
        {
          "internalType": "bytes32",
          "name": "",
          "type": "bytes32"
        }
      ],
      "stateMutability": "view",
      "type": "function"
    },
    {
      "inputs": [],
      "name": "msgSender",
      "outputs": [
        {
          "internalType": "address",
          "name": "",
          "type": "address"
        }
      ],
      "stateMutability": "view",
      "type": "function"
    },
    {
      "inputs": [
        {
          "internalType": "uint256",
          "name": "tokenId",
          "type": "uint256"
        },
        {
          "internalType": "bytes",
          "name": "publicKey",
          "type": "bytes"
        },
        {
          "internalType": "bytes",
          "name": "signature",
          "type": "bytes"
        }
      ],
      "name": "recover",
      "outputs": [
        {
          "internalType": "address",
          "name": "recovered",
          "type": "address"
        },
        {
          "internalType": "enum ECDSAUpgradeable.RecoverError",
          "name": "error",
          "type": "uint8"
        }
      ],
      "stateMutability": "view",
      "type": "function"
    },
    {
      "inputs": [
        {
          "internalType": "uint256",
          "name": "",
          "type": "uint256"
        }
      ],
      "name": "tokenOwners",
      "outputs": [
        {
          "internalType": "address",
          "name": "",
          "type": "address"
        }
      ],
      "stateMutability": "view",
      "type": "function"
    },
    {
      "inputs": [
        {
          "internalType": "uint256",
          "name": "tokenId",
          "type": "uint256"
        },
        {
          "internalType": "bytes",
          "name": "publicKey",
          "type": "bytes"
        },
        {
          "internalType": "bytes",
          "name": "signature",
          "type": "bytes"
        }
      ],
      "name": "verify",
      "outputs": [
        {
          "internalType": "bool",
          "name": "",
          "type": "bool"
        }
      ],
      "stateMutability": "view",
      "type": "function"
    },
    {
      "inputs": [
        {
          "internalType": "bytes",
          "name": "publicKey",
          "type": "bytes"
        }
      ],
      "name": "zilAddress",
      "outputs": [
        {
          "internalType": "address",
          "name": "",
          "type": "address"
        }
      ],
      "stateMutability": "pure",
      "type": "function"
    }
  ],
  "bytecode": "0x608060405234801561001057600080fd5b50610b5a806100206000396000f3fe608060405234801561001057600080fd5b50600436106100b45760003560e01c80639a8bb0c4116100715780639a8bb0c4146101af578063d44b6478146101c2578063d737d0c7146101d8578063da35a26f146101e0578063f8a14f46146101f3578063fb0e18ec1461021c57600080fd5b8063572b6c05146100b957806368555cb31461010f5780636889b16e1461013a5780636e4925b21461015a578063704625ed1461017b578063909f8e431461019c575b600080fd5b6100fa6100c7366004610760565b7f893ef2ea16c023f61d4f55d3e6ee3fc3f2fbfd478461323dbc2fbf919047086e546001600160a01b0390811691161490565b60405190151581526020015b60405180910390f35b61012261011d36600461081e565b610235565b6040516001600160a01b039091168152602001610106565b61014d61014836600461081e565b610297565b604051610106919061087f565b61016d6101683660046108b2565b610336565b604051610106929190610935565b61018e610189366004610970565b610358565b604051908152602001610106565b61018e6101aa366004610970565b6103c3565b6100fa6101bd3660046108b2565b6103f8565b6101d66101d03660046109b7565b50505050565b005b61012261047d565b6101d66101ee366004610a18565b61048c565b610122610201366004610a44565b6033602052600090815260409020546001600160a01b031681565b61012261022a36600461081e565b805160209091012090565b600080600261024384610297565b6040516102509190610a5d565b602060405180830381855afa15801561026d573d6000803e3d6000fd5b5050506040513d601f19601f820116820180604052508101906102909190610a79565b9392505050565b606060006102a483610a92565b9050600083600185516102b79190610ab9565b815181106102c7576102c7610ada565b016020015160f81c905060006102de600283610af0565b60ff16159050806102f05760036102f3565b60025b8360405160200161031d92919060f89290921b6001600160f81b0319168252600182015260210190565b6040516020818303038152906040529350505050919050565b60008061034c6103468686610358565b846105c2565b91509150935093915050565b60006103ba61036784846103c3565b6040517f19457468657265756d205369676e6564204d6573736167653a0a3332000000006020820152603c8101829052600090605c01604051602081830303815290604052805190602001209050919050565b90505b92915050565b60004683836040516020016103da93929190610b20565b60405160208183030381529060405280519060200120905092915050565b6000806000610408868686610336565b909250905060008160048111156104215761042161091f565b1480156104455750845160208601206001600160a01b0316826001600160a01b0316145b8015610473575061045585610235565b6000878152603360205260409020546001600160a01b039081169116145b9695505050505050565b6000610487610607565b905090565b600054610100900460ff16158080156104ac5750600054600160ff909116105b806104c65750303b1580156104c6575060005460ff166001145b61052d5760405162461bcd60e51b815260206004820152602e60248201527f496e697469616c697a61626c653a20636f6e747261637420697320616c72656160448201526d191e481a5b9a5d1a585b1a5e995960921b606482015260840160405180910390fd5b6000805460ff191660011790558015610550576000805461ff0019166101001790555b600083815260336020526040902080546001600160a01b0319166001600160a01b03841617905580156105bd576000805461ff0019169055604051600181527f7f26b83ff96e1f2b6a682f133852f6798a09c465da95921460cefb38474024989060200160405180910390a15b505050565b60008082516041036105f85760208301516040840151606085015160001a6105ec87828585610611565b94509450505050610600565b506000905060025b9250929050565b60006104876106fe565b6000807f7fffffffffffffffffffffffffffffff5d576e7357a4501ddfe92f46681b20a083111561064857506000905060036106f5565b8460ff16601b1415801561066057508460ff16601c14155b1561067157506000905060046106f5565b6040805160008082526020820180845289905260ff881692820192909252606081018690526080810185905260019060a0016020604051602081039080840390855afa1580156106c5573d6000803e3d6000fd5b5050604051601f1901519150506001600160a01b0381166106ee576000600192509250506106f5565b9150600090505b94509492505050565b7f893ef2ea16c023f61d4f55d3e6ee3fc3f2fbfd478461323dbc2fbf919047086e546000906001600160a01b0316330361073f575060331936013560601c90565b503390565b80356001600160a01b038116811461075b57600080fd5b919050565b60006020828403121561077257600080fd5b6103ba82610744565b634e487b7160e01b600052604160045260246000fd5b600082601f8301126107a257600080fd5b813567ffffffffffffffff808211156107bd576107bd61077b565b604051601f8301601f19908116603f011681019082821181831017156107e5576107e561077b565b816040528381528660208588010111156107fe57600080fd5b836020870160208301376000602085830101528094505050505092915050565b60006020828403121561083057600080fd5b813567ffffffffffffffff81111561084757600080fd5b61085384828501610791565b949350505050565b60005b8381101561087657818101518382015260200161085e565b50506000910152565b602081526000825180602084015261089e81604085016020870161085b565b601f01601f19169190910160400192915050565b6000806000606084860312156108c757600080fd5b83359250602084013567ffffffffffffffff808211156108e657600080fd5b6108f287838801610791565b9350604086013591508082111561090857600080fd5b5061091586828701610791565b9150509250925092565b634e487b7160e01b600052602160045260246000fd5b6001600160a01b0383168152604081016005831061096357634e487b7160e01b600052602160045260246000fd5b8260208301529392505050565b6000806040838503121561098357600080fd5b82359150602083013567ffffffffffffffff8111156109a157600080fd5b6109ad85828601610791565b9150509250929050565b600080600080608085870312156109cd57600080fd5b84359350602085013592506109e460408601610744565b9150606085013567ffffffffffffffff811115610a0057600080fd5b610a0c87828801610791565b91505092959194509250565b60008060408385031215610a2b57600080fd5b82359150610a3b60208401610744565b90509250929050565b600060208284031215610a5657600080fd5b5035919050565b60008251610a6f81846020870161085b565b9190910192915050565b600060208284031215610a8b57600080fd5b5051919050565b80516020808301519190811015610ab3576000198160200360031b1b821691505b50919050565b818103818111156103bd57634e487b7160e01b600052601160045260246000fd5b634e487b7160e01b600052603260045260246000fd5b600060ff831680610b1157634e487b7160e01b600052601260045260246000fd5b8060ff84160691505092915050565b83815282602082015260008251610b3e81604085016020870161085b565b9190910160400194935050505056fea164736f6c6343000811000a",
  "linkReferences": {},
  "deployedLinkReferences": {}
}