{
  "_format": "hh-sol-artifact-1",
  "contractName": "ZilliqaRecover",
  "sourceName": "contracts/custody/ZilliqaRecover.sol",
  "abi": [
    {
      "inputs": [
        {
          "internalType": "uint256",
          "name": "tokenId",
          "type": "uint256"
        }
      ],
      "name": "InvalidForwardedToken",
      "type": "error"
    },
    {
      "inputs": [],
      "name": "InvalidSignature",
      "type": "error"
    },
    {
      "inputs": [
        {
          "internalType": "bytes32",
          "name": "publicKeyX",
          "type": "bytes32"
        },
        {
          "internalType": "bytes32",
          "name": "publicKeyY",
          "type": "bytes32"
        }
      ],
      "name": "PublicKeyUnmatchSenderAddress",
      "type": "error"
    },
    {
      "inputs": [
        {
          "internalType": "uint256",
          "name": "tokenId",
          "type": "uint256"
        },
        {
          "internalType": "address",
          "name": "znsOwner",
          "type": "address"
        },
        {
          "internalType": "address",
          "name": "receivedOwner",
          "type": "address"
        }
      ],
      "name": "TokenOwnedByOtherZilAddress",
      "type": "error"
    },
    {
      "inputs": [
        {
          "internalType": "uint256",
          "name": "tokenId",
          "type": "uint256"
        },
        {
          "internalType": "address",
          "name": "contractAddress",
          "type": "address"
        }
      ],
      "name": "UnknownTokenReceived",
      "type": "error"
    },
    {
      "anonymous": false,
      "inputs": [
        {
          "indexed": false,
          "internalType": "uint8",
          "name": "version",
          "type": "uint8"
        }
      ],
      "name": "Initialized",
      "type": "event"
    },
    {
      "anonymous": false,
      "inputs": [
        {
          "indexed": true,
          "internalType": "address",
          "name": "previousOwner",
          "type": "address"
        },
        {
          "indexed": true,
          "internalType": "address",
          "name": "newOwner",
          "type": "address"
        }
      ],
      "name": "OwnershipTransferred",
      "type": "event"
    },
    {
      "anonymous": false,
      "inputs": [
        {
          "indexed": true,
          "internalType": "uint256",
          "name": "tokenId",
          "type": "uint256"
        },
        {
          "indexed": true,
          "internalType": "address",
          "name": "oldAddress",
          "type": "address"
        },
        {
          "indexed": true,
          "internalType": "address",
          "name": "newAddress",
          "type": "address"
        }
      ],
      "name": "ZnsTokenClaimed",
      "type": "event"
    },
    {
      "anonymous": false,
      "inputs": [
        {
          "indexed": true,
          "internalType": "uint256",
          "name": "tokenId",
          "type": "uint256"
        },
        {
          "indexed": true,
          "internalType": "address",
          "name": "zilAddress",
          "type": "address"
        },
        {
          "indexed": false,
          "internalType": "string",
          "name": "label",
          "type": "string"
        }
      ],
      "name": "ZnsTokenMinted",
      "type": "event"
    },
    {
      "inputs": [],
      "name": "ZIL_NODE",
      "outputs": [
        {
          "internalType": "uint256",
          "name": "",
          "type": "uint256"
        }
      ],
      "stateMutability": "view",
      "type": "function"
    },
    {
      "inputs": [
        {
          "internalType": "uint256",
          "name": "tokenId",
          "type": "uint256"
        },
        {
          "internalType": "bytes32",
          "name": "publicKeyX",
          "type": "bytes32"
        },
        {
          "internalType": "bytes32",
          "name": "publicKeyY",
          "type": "bytes32"
        },
        {
          "internalType": "address",
          "name": "newOwnerAddress",
          "type": "address"
        }
      ],
      "name": "claim",
      "outputs": [],
      "stateMutability": "nonpayable",
      "type": "function"
    },
    {
      "inputs": [
        {
          "internalType": "uint256[]",
          "name": "tokenIds",
          "type": "uint256[]"
        },
        {
          "internalType": "bytes32",
          "name": "publicKeyX",
          "type": "bytes32"
        },
        {
          "internalType": "bytes32",
          "name": "publicKeyY",
          "type": "bytes32"
        },
        {
          "internalType": "address",
          "name": "newOwnerAddress",
          "type": "address"
        }
      ],
      "name": "claimAll",
      "outputs": [],
      "stateMutability": "nonpayable",
      "type": "function"
    },
    {
      "inputs": [
        {
          "internalType": "bytes32",
          "name": "publicKeyX",
          "type": "bytes32"
        },
        {
          "internalType": "bytes32",
          "name": "publicKeyY",
          "type": "bytes32"
        }
      ],
      "name": "ethAddress",
      "outputs": [
        {
          "internalType": "address",
          "name": "",
          "type": "address"
        }
      ],
      "stateMutability": "pure",
      "type": "function"
    },
    {
      "inputs": [
        {
          "components": [
            {
              "internalType": "address",
              "name": "from",
              "type": "address"
            },
            {
              "internalType": "uint256",
              "name": "nonce",
              "type": "uint256"
            },
            {
              "internalType": "uint256",
              "name": "tokenId",
              "type": "uint256"
            },
            {
              "internalType": "bytes",
              "name": "data",
              "type": "bytes"
            }
          ],
          "internalType": "struct IForwarder.ForwardRequest",
          "name": "req",
          "type": "tuple"
        },
        {
          "internalType": "bytes",
          "name": "signature",
          "type": "bytes"
        }
      ],
      "name": "execute",
      "outputs": [
        {
          "internalType": "bytes",
          "name": "",
          "type": "bytes"
        }
      ],
      "stateMutability": "nonpayable",
      "type": "function"
    },
    {
      "inputs": [
        {
          "internalType": "contract IUNSRegistry",
          "name": "registry_",
          "type": "address"
        },
        {
          "internalType": "contract IMintingManager",
          "name": "mintingManager_",
          "type": "address"
        }
      ],
      "name": "initialize",
      "outputs": [],
      "stateMutability": "nonpayable",
      "type": "function"
    },
    {
      "inputs": [
        {
          "internalType": "address",
          "name": "forwarder",
          "type": "address"
        }
      ],
      "name": "isTrustedForwarder",
      "outputs": [
        {
          "internalType": "bool",
          "name": "",
          "type": "bool"
        }
      ],
      "stateMutability": "view",
      "type": "function"
    },
    {
      "inputs": [
        {
          "internalType": "string",
          "name": "label",
          "type": "string"
        },
        {
          "internalType": "address",
          "name": "zilOwner",
          "type": "address"
        }
      ],
      "name": "mint",
      "outputs": [
        {
          "internalType": "uint256",
          "name": "",
          "type": "uint256"
        }
      ],
      "stateMutability": "nonpayable",
      "type": "function"
    },
    {
      "inputs": [
        {
          "components": [
            {
              "internalType": "address",
              "name": "zilOwner",
              "type": "address"
            },
            {
              "internalType": "string",
              "name": "label",
              "type": "string"
            }
          ],
          "internalType": "struct ZilliqaRecover.MintingToken[]",
          "name": "tokens",
          "type": "tuple[]"
        }
      ],
      "name": "mintAll",
      "outputs": [],
      "stateMutability": "nonpayable",
      "type": "function"
    },
    {
      "inputs": [],
      "name": "mintingManager",
      "outputs": [
        {
          "internalType": "contract IMintingManager",
          "name": "",
          "type": "address"
        }
      ],
      "stateMutability": "view",
      "type": "function"
    },
    {
      "inputs": [
        {
          "internalType": "uint256",
          "name": "tokenId",
          "type": "uint256"
        }
      ],
      "name": "nonceOf",
      "outputs": [
        {
          "internalType": "uint256",
          "name": "",
          "type": "uint256"
        }
      ],
      "stateMutability": "view",
      "type": "function"
    },
    {
      "inputs": [
        {
          "internalType": "address",
          "name": "",
          "type": "address"
        },
        {
          "internalType": "address",
          "name": "",
          "type": "address"
        },
        {
          "internalType": "uint256",
          "name": "tokenId",
          "type": "uint256"
        },
        {
          "internalType": "bytes",
          "name": "",
          "type": "bytes"
        }
      ],
      "name": "onERC721Received",
      "outputs": [
        {
          "internalType": "bytes4",
          "name": "",
          "type": "bytes4"
        }
      ],
      "stateMutability": "view",
      "type": "function"
    },
    {
      "inputs": [],
      "name": "owner",
      "outputs": [
        {
          "internalType": "address",
          "name": "",
          "type": "address"
        }
      ],
      "stateMutability": "view",
      "type": "function"
    },
    {
      "inputs": [],
      "name": "registry",
      "outputs": [
        {
          "internalType": "contract IUNSRegistry",
          "name": "",
          "type": "address"
        }
      ],
      "stateMutability": "view",
      "type": "function"
    },
    {
      "inputs": [],
      "name": "renounceOwnership",
      "outputs": [],
      "stateMutability": "nonpayable",
      "type": "function"
    },
    {
      "inputs": [
        {
          "internalType": "address",
          "name": "newOwner",
          "type": "address"
        }
      ],
      "name": "transferOwnership",
      "outputs": [],
      "stateMutability": "nonpayable",
      "type": "function"
    },
    {
      "inputs": [
        {
          "components": [
            {
              "internalType": "address",
              "name": "from",
              "type": "address"
            },
            {
              "internalType": "uint256",
              "name": "nonce",
              "type": "uint256"
            },
            {
              "internalType": "uint256",
              "name": "tokenId",
              "type": "uint256"
            },
            {
              "internalType": "bytes",
              "name": "data",
              "type": "bytes"
            }
          ],
          "internalType": "struct IForwarder.ForwardRequest",
          "name": "req",
          "type": "tuple"
        },
        {
          "internalType": "bytes",
          "name": "signature",
          "type": "bytes"
        }
      ],
      "name": "verify",
      "outputs": [
        {
          "internalType": "bool",
          "name": "",
          "type": "bool"
        }
      ],
      "stateMutability": "view",
      "type": "function"
    },
    {
      "inputs": [
        {
          "internalType": "bytes32",
          "name": "publicKeyX",
          "type": "bytes32"
        },
        {
          "internalType": "bytes32",
          "name": "publicKeyY",
          "type": "bytes32"
        }
      ],
      "name": "zilAddress",
      "outputs": [
        {
          "internalType": "address",
          "name": "",
          "type": "address"
        }
      ],
      "stateMutability": "pure",
      "type": "function"
    },
    {
      "inputs": [
        {
          "internalType": "uint256",
          "name": "tokenId",
          "type": "uint256"
        }
      ],
      "name": "znsOwnerOf",
      "outputs": [
        {
          "internalType": "address",
          "name": "",
          "type": "address"
        }
      ],
      "stateMutability": "view",
      "type": "function"
    }
  ],
  "bytecode": "0x608060405234801561001057600080fd5b50611c05806100206000396000f3fe608060405234801561001057600080fd5b50600436106101215760003560e01c8063715018a6116100ad5780639e32d364116100715780639e32d36414610286578063a4247400146102ad578063e1c4b65a146102c0578063e35a14e5146102d3578063f2fde38b146102fc57600080fd5b8063715018a61461023d5780637b103999146102455780638da5cb5b146102585780638f0dbd25146102605780639810b6951461027357600080fd5b8063485cc955116100f4578063485cc955146101ad578063572b6c05146101c057806358884432146101ec5780636ccbae5f1461021757806371017a541461022a57600080fd5b8063150b7a02146101265780631694116d146101575780631bf7e13e1461016c5780631c351a9d1461018c575b600080fd5b61013961013436600461149d565b61030f565b6040516001600160e01b031990911681526020015b60405180910390f35b61016a610165366004611555565b6103a1565b005b61017f61017a3660046115c0565b610448565b60405161014e9190611681565b61019f61019a366004611694565b610514565b60405190815260200161014e565b61016a6101bb3660046116eb565b61053e565b6101dc6101ce366004611724565b6001600160a01b0316301490565b604051901515815260200161014e565b6067546101ff906001600160a01b031681565b6040516001600160a01b03909116815260200161014e565b61019f610225366004611741565b610689565b6101ff61023836600461175a565b6106e3565b61016a610724565b6066546101ff906001600160a01b031681565b6101ff610738565b61016a61026e36600461177c565b610766565b6101ff61028136600461175a565b6107db565b61019f7fd81bbfcee722494b885e891546eeac23d0eedcd44038d7a2f6ef9ec2f9e0d23981565b6101dc6102bb3660046115c0565b610837565b61016a6102ce3660046117bd565b610882565b6101ff6102e1366004611741565b6000908152606560205260409020546001600160a01b031690565b61016a61030a366004611724565b610914565b6066546000906001600160a01b031661032661098d565b6001600160a01b031614158061035157506000848152606560205260409020546001600160a01b0316155b1561038f578361035f61098d565b60405163634afa0d60e01b815260048101929092526001600160a01b031660248201526044015b60405180910390fd5b50630a85bd0160e11b95945050505050565b82826103ad82826106e3565b6001600160a01b03166103be61098d565b6001600160a01b0316146103ef57604051632cd9b44d60e11b81526004810183905260248101829052604401610386565b60006103fb86866107db565b905060005b8781101561043d5761042b89898381811061041d5761041d6117ff565b90506020020135838761099c565b806104358161182b565b915050610400565b505050505050505050565b606060005a905061045a858585610837565b61047757604051638baa579f60e01b815260040160405180910390fd5b6105096104876020870187611724565b3060408801358461049b60608b018b611844565b8080601f01602080910402602001604051908101604052809392919081815260200183838082843760009201919091525050604080516020601f8e018190048102820181019092528c815292508c91508b9081908401838280828437600092019190915250610ad792505050565b9150505b9392505050565b600061051e610bb8565b600061052b858585610c27565b905061053681610e44565b949350505050565b600054610100900460ff161580801561055e5750600054600160ff909116105b806105785750303b158015610578575060005460ff166001145b6105db5760405162461bcd60e51b815260206004820152602e60248201527f496e697469616c697a61626c653a20636f6e747261637420697320616c72656160448201526d191e481a5b9a5d1a585b1a5e995960921b6064820152608401610386565b6000805460ff1916600117905580156105fe576000805461ff0019166101001790555b606680546001600160a01b038086166001600160a01b031992831617909255606780549285169290911691909117905561063e61063961098d565b610e5d565b8015610684576000805461ff0019169055604051600181527f7f26b83ff96e1f2b6a682f133852f6798a09c465da95921460cefb38474024989060200160405180910390a15b505050565b604080517f1ee5d87a048b728f67073f282321992c260e5be4fa651d08665c5b4ee7a8381560208201529081018290526000906106dc906060016040516020818303038152906040528051906020012090565b5492915050565b6000808383604051602001610702929190918252602082015260400190565b60408051601f1981840301815291905280516020909101209150505b92915050565b61072c610bb8565b6107366000610e5d565b565b7fe1b9c5b9c6f25fc6c03fdb76829a7257b1cdb10ff4bc4f62e0a94358c8121905546001600160a01b031690565b828261077282826106e3565b6001600160a01b031661078361098d565b6001600160a01b0316146107b457604051632cd9b44d60e11b81526004810183905260248101829052604401610386565b856107be81610e44565b6107d2876107cc88896107db565b8661099c565b50505050505050565b60008060026107ea8585610ed9565b6040516107f7919061188b565b602060405180830381855afa158015610814573d6000803e3d6000fd5b5050506040513d601f19601f8201168201806040525081019061053691906118a7565b600061053661084585611930565b3085858080601f016020809104026020016040519081016040528093929190818152602001838380828437600092019190915250610f5f92505050565b61088a610bb8565b60005b81811015610684576109018383838181106108aa576108aa6117ff565b90506020028101906108bc91906119f3565b6108ca906020810190611844565b8585858181106108dc576108dc6117ff565b90506020028101906108ee91906119f3565b6108fc906020810190611724565b610c27565b508061090c8161182b565b91505061088d565b61091c610bb8565b6001600160a01b0381166109815760405162461bcd60e51b815260206004820152602660248201527f4f776e61626c653a206e6577206f776e657220697320746865207a65726f206160448201526564647265737360d01b6064820152608401610386565b61098a81610e5d565b50565b60006109976110a8565b905090565b6000838152606560205260409020546001600160a01b03838116911614610a0157600083815260656020526040908190205490516326995d8360e11b8152600481018590526001600160a01b0391821660248201529083166044820152606401610386565b6000838152606560205260409081902080546001600160a01b03191690556066549051632142170760e11b81523060048201526001600160a01b03838116602483015260448201869052909116906342842e0e90606401600060405180830381600087803b158015610a7257600080fd5b505af1158015610a86573d6000803e3d6000fd5b50505050806001600160a01b0316610a9c61098d565b6001600160a01b0316847f9a471856befea1cabcd7fc8a1c4d70ea07b8ed2ee205cc361f932433542ef3fe60405160405180910390a4505050565b6060610ae2856110c6565b600080876001600160a01b031686610afc8b8a898961112c565b604051610b09919061188b565b60006040518083038160008787f1925050503d8060008114610b47576040519150601f19603f3d011682016040523d82523d6000602084013e610b4c565b606091505b509092509050610b5d603f87611a1f565b5a11610b6b57610b6b611a33565b610bab82826040518060400160405280601a81526020017f42617365466f727761726465723a2043414c4c5f4641494c454400000000000081525061115c565b9998505050505050505050565b610bc061098d565b6001600160a01b0316610bd1610738565b6001600160a01b0316146107365760405162461bcd60e51b815260206004820181905260248201527f4f776e61626c653a2063616c6c6572206973206e6f7420746865206f776e65726044820152606401610386565b6000606060007fd81bbfcee722494b885e891546eeac23d0eedcd44038d7a2f6ef9ec2f9e0d2398686604051602001610c61929190611a49565b60405160208183030381529060405280519060200120604051602001610c91929190918252602082015260400190565b60408051808303601f190181528282528051602090910120600280845260608401909252925060009190816020015b6060815260200190600190039081610cc057905050905086868080601f0160208091040260200160405190810160405280939291908181526020018383808284376000920182905250855186945090925015159050610d2157610d216117ff565b6020026020010181905250604051806040016040528060038152602001621e9a5b60ea1b81525081600181518110610d5b57610d5b6117ff565b60209081029190910181019190915260008381526065909152604080822080546001600160a01b0319166001600160a01b03898116919091179091556067549151635cd7e3b360e01b8152911691635cd7e3b391610dc491309186918991829190600401611aae565b600060405180830381600087803b158015610dde57600080fd5b505af1158015610df2573d6000803e3d6000fd5b50505050846001600160a01b0316827f08717469d38a4b02325ea6637978c7952f94d3d8fc7848994f618ddbf4d637f18989604051610e32929190611b0d565b60405180910390a35095945050505050565b303303610e545761098a81611195565b61098a816110c6565b6000610e67610738565b9050817fe1b9c5b9c6f25fc6c03fdb76829a7257b1cdb10ff4bc4f62e0a94358c812190580546001600160a01b0319166001600160a01b03928316179055604051838216918316907f8be0079c531659141344cd1fd0a4f28419497f9722a3daafe3b4186f6b6457e090600090a35050565b6060600082610eea60016020611b3c565b60ff1660208110610efd57610efd6117ff565b1a9050610f0b600282611b55565b60ff1615610f1a576003610f1d565b60025b84604051602001610f4792919060f89290921b6001600160f81b0319168252600182015260210190565b60405160208183030381529060405291505092915050565b6040838101519051636ccbae5f60e01b8152600481019190915260009081903090636ccbae5f90602401602060405180830381865afa158015610fa6573d6000803e3d6000fd5b505050506040513d601f19601f82011682018060405250810190610fca91906118a7565b905060006110788660600151805190602001208688602001516040516020016110189392919092835260609190911b6bffffffffffffffffffffffff19166020830152603482015260540190565b60408051601f1981840301815282825280516020918201207f19457468657265756d205369676e6564204d6573736167653a0a33320000000084830152603c8085019190915282518085039091018152605c909301909152815191012090565b905081866020015114801561109e5750855161109e906001600160a01b031682866111bf565b9695505050505050565b60003033036110be575060331936013560601c90565b503390565b90565b604080517f1ee5d87a048b728f67073f282321992c260e5be4fa651d08665c5b4ee7a83815602082015290810182905260009060600160405160208183030381529060405280519060200120905061111b8190565b54611127906001611b77565b905550565b606082858560405160200161114393929190611b8a565b6040516020818303038152906040529050949350505050565b6060831561116b57508161050d565b82511561117b5782518084602001fd5b8160405162461bcd60e51b81526004016103869190611681565b61119d611301565b811461098a57604051635637b6af60e11b815260048101829052602401610386565b60008060006111ce8585611314565b909250905060008160048111156111e7576111e7611bc9565b1480156112055750856001600160a01b0316826001600160a01b0316145b156112155760019250505061050d565b600080876001600160a01b0316631626ba7e60e01b888860405160240161123d929190611bdf565b60408051601f198184030181529181526020820180516001600160e01b03166001600160e01b031990941693909317909252905161127b919061188b565b600060405180830381855afa9150503d80600081146112b6576040519150601f19603f3d011682016040523d82523d6000602084013e6112bb565b606091505b50915091508180156112ce575080516020145b80156112f557508051630b135d3f60e11b906112f390830160209081019084016118a7565b145b98975050505050505050565b60003033036110c35750601f1936013590565b600080825160410361134a5760208301516040840151606085015160001a61133e87828585611359565b94509450505050611352565b506000905060025b9250929050565b6000807f7fffffffffffffffffffffffffffffff5d576e7357a4501ddfe92f46681b20a0831115611390575060009050600361143d565b8460ff16601b141580156113a857508460ff16601c14155b156113b9575060009050600461143d565b6040805160008082526020820180845289905260ff881692820192909252606081018690526080810185905260019060a0016020604051602081039080840390855afa15801561140d573d6000803e3d6000fd5b5050604051601f1901519150506001600160a01b0381166114365760006001925092505061143d565b9150600090505b94509492505050565b6001600160a01b038116811461098a57600080fd5b60008083601f84011261146d57600080fd5b50813567ffffffffffffffff81111561148557600080fd5b60208301915083602082850101111561135257600080fd5b6000806000806000608086880312156114b557600080fd5b85356114c081611446565b945060208601356114d081611446565b935060408601359250606086013567ffffffffffffffff8111156114f357600080fd5b6114ff8882890161145b565b969995985093965092949392505050565b60008083601f84011261152257600080fd5b50813567ffffffffffffffff81111561153a57600080fd5b6020830191508360208260051b850101111561135257600080fd5b60008060008060006080868803121561156d57600080fd5b853567ffffffffffffffff81111561158457600080fd5b61159088828901611510565b909650945050602086013592506040860135915060608601356115b281611446565b809150509295509295909350565b6000806000604084860312156115d557600080fd5b833567ffffffffffffffff808211156115ed57600080fd5b908501906080828803121561160157600080fd5b9093506020850135908082111561161757600080fd5b506116248682870161145b565b9497909650939450505050565b60005b8381101561164c578181015183820152602001611634565b50506000910152565b6000815180845261166d816020860160208601611631565b601f01601f19169290920160200192915050565b60208152600061050d6020830184611655565b6000806000604084860312156116a957600080fd5b833567ffffffffffffffff8111156116c057600080fd5b6116cc8682870161145b565b90945092505060208401356116e081611446565b809150509250925092565b600080604083850312156116fe57600080fd5b823561170981611446565b9150602083013561171981611446565b809150509250929050565b60006020828403121561173657600080fd5b813561050d81611446565b60006020828403121561175357600080fd5b5035919050565b6000806040838503121561176d57600080fd5b50508035926020909101359150565b6000806000806080858703121561179257600080fd5b84359350602085013592506040850135915060608501356117b281611446565b939692955090935050565b600080602083850312156117d057600080fd5b823567ffffffffffffffff8111156117e757600080fd5b6117f385828601611510565b90969095509350505050565b634e487b7160e01b600052603260045260246000fd5b634e487b7160e01b600052601160045260246000fd5b60006001820161183d5761183d611815565b5060010190565b6000808335601e1984360301811261185b57600080fd5b83018035915067ffffffffffffffff82111561187657600080fd5b60200191503681900382131561135257600080fd5b6000825161189d818460208701611631565b9190910192915050565b6000602082840312156118b957600080fd5b5051919050565b634e487b7160e01b600052604160045260246000fd5b6040516080810167ffffffffffffffff811182821017156118f9576118f96118c0565b60405290565b604051601f8201601f1916810167ffffffffffffffff81118282101715611928576119286118c0565b604052919050565b60006080823603121561194257600080fd5b61194a6118d6565b823561195581611446565b81526020838101358183015260408085013590830152606084013567ffffffffffffffff8082111561198657600080fd5b9085019036601f83011261199957600080fd5b8135818111156119ab576119ab6118c0565b6119bd601f8201601f191685016118ff565b915080825236848285010111156119d357600080fd5b808484018584013760009082019093019290925250606082015292915050565b60008235603e1983360301811261189d57600080fd5b634e487b7160e01b600052601260045260246000fd5b600082611a2e57611a2e611a09565b500490565b634e487b7160e01b600052600160045260246000fd5b8183823760009101908152919050565b600081518084526020808501808196508360051b8101915082860160005b85811015611aa1578284038952611a8f848351611655565b98850198935090840190600101611a77565b5091979650505050505050565b6001600160a01b038616815260a060208201819052600090611ad290830187611a59565b8281036040840152611ae48187611a59565b90508281036060840152611af88186611a59565b91505082151560808301529695505050505050565b60208152816020820152818360408301376000818301604090810191909152601f909201601f19160101919050565b60ff828116828216039081111561071e5761071e611815565b600060ff831680611b6857611b68611a09565b8060ff84160691505092915050565b8082018082111561071e5761071e611815565b60008451611b9c818460208901611631565b60609490941b6bffffffffffffffffffffffff191691909301908152601481019190915260340192915050565b634e487b7160e01b600052602160045260246000fd5b828152604060208201526000610536604083018461165556fea164736f6c6343000811000a",
  "linkReferences": {},
  "deployedLinkReferences": {}
}