{
  "_format": "hh-sol-artifact-1",
  "contractName": "ZilliqaRecover",
  "sourceName": "contracts/ZilliqaRecover.sol",
  "abi": [
    {
      "inputs": [],
      "name": "InvalidSignature",
      "type": "error"
    },
    {
      "anonymous": false,
      "inputs": [
        {
          "indexed": false,
          "internalType": "uint256",
          "name": "tokenId",
          "type": "uint256"
        },
        {
          "indexed": false,
          "internalType": "address",
          "name": "oldAddress",
          "type": "address"
        },
        {
          "indexed": false,
          "internalType": "address",
          "name": "newAddress",
          "type": "address"
        }
      ],
      "name": "Claimed",
      "type": "event"
    },
    {
      "anonymous": false,
      "inputs": [
        {
          "indexed": false,
          "internalType": "uint8",
          "name": "version",
          "type": "uint8"
        }
      ],
      "name": "Initialized",
      "type": "event"
    },
    {
      "anonymous": false,
      "inputs": [
        {
          "indexed": true,
          "internalType": "address",
          "name": "previousOwner",
          "type": "address"
        },
        {
          "indexed": true,
          "internalType": "address",
          "name": "newOwner",
          "type": "address"
        }
      ],
      "name": "OwnershipTransferred",
      "type": "event"
    },
    {
      "anonymous": false,
      "inputs": [
        {
          "indexed": false,
          "internalType": "uint256",
          "name": "tokenId",
          "type": "uint256"
        },
        {
          "indexed": false,
          "internalType": "address",
          "name": "zilAddress",
          "type": "address"
        }
      ],
      "name": "ZilOwnership",
      "type": "event"
    },
    {
      "inputs": [
        {
          "internalType": "uint256",
          "name": "tokenId",
          "type": "uint256"
        },
        {
          "internalType": "bytes",
          "name": "publicKey",
          "type": "bytes"
        },
        {
          "internalType": "address",
          "name": "newOwnerAddress",
          "type": "address"
        }
      ],
      "name": "claim",
      "outputs": [],
      "stateMutability": "nonpayable",
      "type": "function"
    },
    {
      "inputs": [
        {
          "internalType": "uint256[]",
          "name": "tokenIds",
          "type": "uint256[]"
        },
        {
          "internalType": "bytes",
          "name": "publicKey",
          "type": "bytes"
        },
        {
          "internalType": "address",
          "name": "newOwnerAddress",
          "type": "address"
        }
      ],
      "name": "claimAll",
      "outputs": [],
      "stateMutability": "nonpayable",
      "type": "function"
    },
    {
      "inputs": [
        {
          "internalType": "bytes",
          "name": "publicKey",
          "type": "bytes"
        }
      ],
      "name": "compressPublicKey",
      "outputs": [
        {
          "internalType": "bytes",
          "name": "",
          "type": "bytes"
        }
      ],
      "stateMutability": "pure",
      "type": "function"
    },
    {
      "inputs": [
        {
          "internalType": "bytes",
          "name": "publicKey",
          "type": "bytes"
        }
      ],
      "name": "ethAddress",
      "outputs": [
        {
          "internalType": "address",
          "name": "",
          "type": "address"
        }
      ],
      "stateMutability": "pure",
      "type": "function"
    },
    {
      "inputs": [
        {
          "internalType": "uint256",
          "name": "tokenId",
          "type": "uint256"
        },
        {
          "internalType": "bytes",
          "name": "publicKey",
          "type": "bytes"
        }
      ],
      "name": "ethSignedMessage",
      "outputs": [
        {
          "internalType": "bytes32",
          "name": "",
          "type": "bytes32"
        }
      ],
      "stateMutability": "view",
      "type": "function"
    },
    {
      "inputs": [
        {
          "components": [
            {
              "internalType": "address",
              "name": "from",
              "type": "address"
            },
            {
              "internalType": "uint256",
              "name": "nonce",
              "type": "uint256"
            },
            {
              "internalType": "uint256",
              "name": "tokenId",
              "type": "uint256"
            },
            {
              "internalType": "bytes",
              "name": "data",
              "type": "bytes"
            }
          ],
          "internalType": "struct IForwarder.ForwardRequest",
          "name": "req",
          "type": "tuple"
        },
        {
          "internalType": "bytes",
          "name": "signature",
          "type": "bytes"
        }
      ],
      "name": "execute",
      "outputs": [
        {
          "internalType": "bytes",
          "name": "",
          "type": "bytes"
        }
      ],
      "stateMutability": "nonpayable",
      "type": "function"
    },
    {
      "inputs": [
        {
          "internalType": "contract IUNSRegistry",
          "name": "registry_",
          "type": "address"
        },
        {
          "internalType": "address",
          "name": "owner",
          "type": "address"
        }
      ],
      "name": "initialize",
      "outputs": [],
      "stateMutability": "nonpayable",
      "type": "function"
    },
    {
      "inputs": [
        {
          "internalType": "address",
          "name": "forwarder",
          "type": "address"
        }
      ],
      "name": "isTrustedForwarder",
      "outputs": [
        {
          "internalType": "bool",
          "name": "",
          "type": "bool"
        }
      ],
      "stateMutability": "view",
      "type": "function"
    },
    {
      "inputs": [
        {
          "internalType": "uint256",
          "name": "tokenId",
          "type": "uint256"
        },
        {
          "internalType": "bytes",
          "name": "publicKey",
          "type": "bytes"
        }
      ],
      "name": "message",
      "outputs": [
        {
          "internalType": "bytes32",
          "name": "",
          "type": "bytes32"
        }
      ],
      "stateMutability": "view",
      "type": "function"
    },
    {
      "inputs": [],
      "name": "msgSender",
      "outputs": [
        {
          "internalType": "address",
          "name": "",
          "type": "address"
        }
      ],
      "stateMutability": "view",
      "type": "function"
    },
    {
      "inputs": [
        {
          "internalType": "uint256",
          "name": "tokenId",
          "type": "uint256"
        }
      ],
      "name": "nonceOf",
      "outputs": [
        {
          "internalType": "uint256",
          "name": "",
          "type": "uint256"
        }
      ],
      "stateMutability": "view",
      "type": "function"
    },
    {
      "inputs": [
        {
          "internalType": "address",
          "name": "",
          "type": "address"
        },
        {
          "internalType": "address",
          "name": "",
          "type": "address"
        },
        {
          "internalType": "uint256",
          "name": "tokenId",
          "type": "uint256"
        },
        {
          "internalType": "bytes",
          "name": "",
          "type": "bytes"
        }
      ],
      "name": "onERC721Received",
      "outputs": [
        {
          "internalType": "bytes4",
          "name": "",
          "type": "bytes4"
        }
      ],
      "stateMutability": "view",
      "type": "function"
    },
    {
      "inputs": [],
      "name": "owner",
      "outputs": [
        {
          "internalType": "address",
          "name": "",
          "type": "address"
        }
      ],
      "stateMutability": "view",
      "type": "function"
    },
    {
      "inputs": [
        {
          "internalType": "uint256",
          "name": "tokenId",
          "type": "uint256"
        },
        {
          "internalType": "bytes",
          "name": "publicKey",
          "type": "bytes"
        },
        {
          "internalType": "bytes",
          "name": "signature",
          "type": "bytes"
        }
      ],
      "name": "recover1",
      "outputs": [
        {
          "internalType": "address",
          "name": "recovered",
          "type": "address"
        },
        {
          "internalType": "enum ECDSAUpgradeable.RecoverError",
          "name": "error",
          "type": "uint8"
        }
      ],
      "stateMutability": "view",
      "type": "function"
    },
    {
      "inputs": [],
      "name": "registry",
      "outputs": [
        {
          "internalType": "contract IUNSRegistry",
          "name": "",
          "type": "address"
        }
      ],
      "stateMutability": "view",
      "type": "function"
    },
    {
      "inputs": [],
      "name": "renounceOwnership",
      "outputs": [],
      "stateMutability": "nonpayable",
      "type": "function"
    },
    {
      "inputs": [
        {
          "internalType": "uint256[]",
          "name": "tokenIds",
          "type": "uint256[]"
        },
        {
          "internalType": "address",
          "name": "_zilAddress",
          "type": "address"
        }
      ],
      "name": "setZilOwner",
      "outputs": [],
      "stateMutability": "nonpayable",
      "type": "function"
    },
    {
      "inputs": [
        {
          "internalType": "address",
          "name": "newOwner",
          "type": "address"
        }
      ],
      "name": "transferOwnership",
      "outputs": [],
      "stateMutability": "nonpayable",
      "type": "function"
    },
    {
      "inputs": [
        {
          "components": [
            {
              "internalType": "address",
              "name": "from",
              "type": "address"
            },
            {
              "internalType": "uint256",
              "name": "nonce",
              "type": "uint256"
            },
            {
              "internalType": "uint256",
              "name": "tokenId",
              "type": "uint256"
            },
            {
              "internalType": "bytes",
              "name": "data",
              "type": "bytes"
            }
          ],
          "internalType": "struct IForwarder.ForwardRequest",
          "name": "req",
          "type": "tuple"
        },
        {
          "internalType": "bytes",
          "name": "signature",
          "type": "bytes"
        }
      ],
      "name": "verify",
      "outputs": [
        {
          "internalType": "bool",
          "name": "",
          "type": "bool"
        }
      ],
      "stateMutability": "view",
      "type": "function"
    },
    {
      "inputs": [
        {
          "internalType": "uint256",
          "name": "tokenId",
          "type": "uint256"
        },
        {
          "internalType": "bytes",
          "name": "publicKey",
          "type": "bytes"
        },
        {
          "internalType": "bytes",
          "name": "signature",
          "type": "bytes"
        }
      ],
      "name": "verify1",
      "outputs": [
        {
          "internalType": "bool",
          "name": "",
          "type": "bool"
        }
      ],
      "stateMutability": "view",
      "type": "function"
    },
    {
      "inputs": [
        {
          "internalType": "bytes",
          "name": "publicKey",
          "type": "bytes"
        }
      ],
      "name": "zilAddress",
      "outputs": [
        {
          "internalType": "address",
          "name": "",
          "type": "address"
        }
      ],
      "stateMutability": "pure",
      "type": "function"
    },
    {
      "inputs": [
        {
          "internalType": "uint256",
          "name": "tokenId",
          "type": "uint256"
        }
      ],
      "name": "zilOwnerOf",
      "outputs": [
        {
          "internalType": "address",
          "name": "",
          "type": "address"
        }
      ],
      "stateMutability": "view",
      "type": "function"
    }
  ],
  "bytecode": "0x608060405234801561001057600080fd5b50611ca7806100206000396000f3fe608060405234801561001057600080fd5b50600436106101425760003560e01c80638da5cb5b116100b8578063a3a1cd971161007c578063a3a1cd97146102f1578063a424740014610304578063d737d0c714610317578063f2fde38b1461031f578063fb0e18ec14610332578063fd9987911461034b57600080fd5b80638da5cb5b14610287578063909f8e431461028f578063939f59fe146102a25780639c6b9f8a146102b5578063a32ecf6c146102c857600080fd5b806368555cb31161010a57806368555cb3146101fa5780636889b16e146102255780636ccbae5f14610238578063704625ed14610259578063715018a61461026c5780637b1039991461027457600080fd5b8063150b7a02146101475780631bf7e13e14610178578063485cc95514610198578063572b6c05146101ad5780635b1e0f00146101d9575b600080fd5b61015a610155366004611419565b61035e565b6040516001600160e01b031990911681526020015b60405180910390f35b61018b61018636600461148b565b6103e4565b60405161016f919061154b565b6101ab6101a636600461155e565b6104b0565b005b6101c96101bb366004611597565b6001600160a01b0316301490565b604051901515815260200161016f565b6101ec6101e7366004611669565b6105e8565b60405161016f9291906116eb565b61020d610208366004611726565b61060a565b6040516001600160a01b03909116815260200161016f565b61018b610233366004611726565b610665565b61024b61024636600461175a565b6106fe565b60405190815260200161016f565b61024b610267366004611773565b610758565b6101ab610775565b60665461020d906001600160a01b031681565b61020d610789565b61024b61029d366004611773565b6107b7565b6101c96102b0366004611669565b6107ec565b6101ab6102c33660046117b9565b610886565b61020d6102d636600461175a565b6000908152606560205260409020546001600160a01b031690565b6101ab6102ff366004611892565b6108f7565b6101c961031236600461148b565b6109d2565b61020d610a25565b6101ab61032d366004611597565b610a34565b61020d610340366004611726565b805160209091012090565b6101ab6103593660046118d8565b610aad565b6000838152606560205260408120546001600160a01b03166103d25760405162461bcd60e51b815260206004820152602260248201527f5a696c6c6971615265636f7665723a20544f4b454e5f4841535f4e4f5f4f574e60448201526122a960f11b60648201526084015b60405180910390fd5b50630a85bd0160e11b95945050505050565b606060005a90506103f68585856109d2565b61041357604051638baa579f60e01b815260040160405180910390fd5b6104a56104236020870187611597565b3060408801358461043760608b018b611933565b8080601f01602080910402602001604051908101604052809392919081815260200183838082843760009201919091525050604080516020601f8e018190048102820181019092528c815292508c91508b9081908401838280828437600092019190915250610b5692505050565b9150505b9392505050565b600054610100900460ff16158080156104d05750600054600160ff909116105b806104ea5750303b1580156104ea575060005460ff166001145b61054d5760405162461bcd60e51b815260206004820152602e60248201527f496e697469616c697a61626c653a20636f6e747261637420697320616c72656160448201526d191e481a5b9a5d1a585b1a5e995960921b60648201526084016103c9565b6000805460ff191660011790558015610570576000805461ff0019166101001790555b606680546001600160a01b0319166001600160a01b03851617905561059482610c37565b61059c610cb3565b80156105e3576000805461ff0019169055604051600181527f7f26b83ff96e1f2b6a682f133852f6798a09c465da95921460cefb3847402498906020015b60405180910390a15b505050565b6000806105fe6105f88686610758565b84610ce2565b91509150935093915050565b600080600261061884610665565b6040516106259190611979565b602060405180830381855afa158015610642573d6000803e3d6000fd5b5050506040513d601f19601f820116820180604052508101906104a99190611995565b60606000610672836119ae565b90506000836001855161068591906119eb565b81518110610695576106956119fe565b016020015160f81c90506106aa600282611a2a565b60ff16156106b95760036106bc565b60025b826040516020016106e692919060f89290921b6001600160f81b0319168252600182015260210190565b60405160208183030381529060405292505050919050565b604080517f1ee5d87a048b728f67073f282321992c260e5be4fa651d08665c5b4ee7a838156020820152908101829052600090610751906060016040516020818303038152906040528051906020012090565b5492915050565b600061076c61076784846107b7565b610d27565b90505b92915050565b61077d610d7a565b6107876000610c37565b565b7fe1b9c5b9c6f25fc6c03fdb76829a7257b1cdb10ff4bc4f62e0a94358c8121905546001600160a01b031690565b60004683836040516020016107ce93929190611a4c565b60405160208183030381529060405280519060200120905092915050565b60008060006107fc8686866105e8565b90925090506000816004811115610815576108156116d5565b1480156108395750845160208601206001600160a01b0316826001600160a01b0316145b801561087c57506108498561060a565b6001600160a01b0316610871876000908152606560205260409020546001600160a01b031690565b6001600160a01b0316145b9695505050505050565b8180516040146108a85760405162461bcd60e51b81526004016103c990611a79565b805160208201206001600160a01b03166108c0610de9565b6001600160a01b0316146108e65760405162461bcd60e51b81526004016103c990611ac2565b6108f1848484610df3565b50505050565b6108ff610d7a565b60005b82518110156105e3578160656000858481518110610922576109226119fe565b6020026020010151815260200190815260200160002060006101000a8154816001600160a01b0302191690836001600160a01b031602179055507f65ee84af14b46d8bb3abef3f56f7107af27311b5eca54c8acf3441176fab166d83828151811061098f5761098f6119fe565b6020026020010151836040516109b89291909182526001600160a01b0316602082015260400190565b60405180910390a1806109ca81611b17565b915050610902565b6000610a1d6109e085611b30565b3085858080601f016020809104026020016040519081016040528093929190818152602001838380828437600092019190915250610f7992505050565b949350505050565b6000610a2f610de9565b905090565b610a3c610d7a565b6001600160a01b038116610aa15760405162461bcd60e51b815260206004820152602660248201527f4f776e61626c653a206e6577206f776e657220697320746865207a65726f206160448201526564647265737360d01b60648201526084016103c9565b610aaa81610c37565b50565b818051604014610acf5760405162461bcd60e51b81526004016103c990611a79565b805160208201206001600160a01b0316610ae7610de9565b6001600160a01b031614610b0d5760405162461bcd60e51b81526004016103c990611ac2565b60005b8451811015610b4f57610b3d858281518110610b2e57610b2e6119fe565b60200260200101518585610df3565b80610b4781611b17565b915050610b10565b5050505050565b6060610b6185611073565b600080876001600160a01b031686610b7b8b8a89896110d9565b604051610b889190611979565b60006040518083038160008787f1925050503d8060008114610bc6576040519150601f19603f3d011682016040523d82523d6000602084013e610bcb565b606091505b509092509050610bdc603f87611bba565b5a11610bea57610bea611bce565b610c2a82826040518060400160405280601a81526020017f42617365466f727761726465723a2043414c4c5f4641494c4544000000000000815250611109565b9998505050505050505050565b6000610c41610789565b9050817fe1b9c5b9c6f25fc6c03fdb76829a7257b1cdb10ff4bc4f62e0a94358c812190580546001600160a01b0319166001600160a01b03928316179055604051838216918316907f8be0079c531659141344cd1fd0a4f28419497f9722a3daafe3b4186f6b6457e090600090a35050565b600054610100900460ff16610cda5760405162461bcd60e51b81526004016103c990611be4565b610787611142565b6000808251604103610d185760208301516040840151606085015160001a610d0c87828585611179565b94509450505050610d20565b506000905060025b9250929050565b6040517f19457468657265756d205369676e6564204d6573736167653a0a3332000000006020820152603c8101829052600090605c01604051602081830303815290604052805190602001209050919050565b610d82610de9565b6001600160a01b0316610d93610789565b6001600160a01b0316146107875760405162461bcd60e51b815260206004820181905260248201527f4f776e61626c653a2063616c6c6572206973206e6f7420746865206f776e657260448201526064016103c9565b6000610a2f611266565b610dfc8261060a565b6001600160a01b0316610e24846000908152606560205260409020546001600160a01b031690565b6001600160a01b031614610e8f5760405162461bcd60e51b815260206004820152602c60248201527f5a696c6c6971615265636f7665723a20544f4b454e5f4f574e45445f42595f4f60448201526b544845525f4144445245535360a01b60648201526084016103c9565b600083815260656020526040902080546001600160a01b03191690556066546001600160a01b031615610f2957606654604051632142170760e11b81523060048201526001600160a01b03838116602483015260448201869052909116906342842e0e90606401600060405180830381600087803b158015610f1057600080fd5b505af1158015610f24573d6000803e3d6000fd5b505050505b7f3c75fca1decf7e281012586b8fab4c62d1e876fc95d6d0335723cd6ea5bba73a83610f53610de9565b604080519283526001600160a01b039182166020840152908416908201526060016105da565b6040838101519051636ccbae5f60e01b8152600481019190915260009081903090636ccbae5f90602401602060405180830381865afa158015610fc0573d6000803e3d6000fd5b505050506040513d601f19601f82011682018060405250810190610fe49190611995565b9050600061104d8660600151805190602001208688602001516040516020016110329392919092835260609190911b6bffffffffffffffffffffffff19166020830152603482015260540190565b60405160208183030381529060405280519060200120610d27565b905081866020015114801561087c5750855161087c906001600160a01b03168286611281565b604080517f1ee5d87a048b728f67073f282321992c260e5be4fa651d08665c5b4ee7a8381560208201529081018290526000906060016040516020818303038152906040528051906020012090506110c88190565b546110d4906001611c2f565b905550565b60608285856040516020016110f093929190611c42565b6040516020818303038152906040529050949350505050565b606083156111185750816104a9565b8251156111285782518084602001fd5b8160405162461bcd60e51b81526004016103c9919061154b565b600054610100900460ff166111695760405162461bcd60e51b81526004016103c990611be4565b610787611174610de9565b610c37565b6000807f7fffffffffffffffffffffffffffffff5d576e7357a4501ddfe92f46681b20a08311156111b0575060009050600361125d565b8460ff16601b141580156111c857508460ff16601c14155b156111d9575060009050600461125d565b6040805160008082526020820180845289905260ff881692820192909252606081018690526080810185905260019060a0016020604051602081039080840390855afa15801561122d573d6000803e3d6000fd5b5050604051601f1901519150506001600160a01b0381166112565760006001925092505061125d565b9150600090505b94509492505050565b600030330361127c575060331936013560601c90565b503390565b60008060006112908585610ce2565b909250905060008160048111156112a9576112a96116d5565b1480156112c75750856001600160a01b0316826001600160a01b0316145b156112d7576001925050506104a9565b600080876001600160a01b0316631626ba7e60e01b88886040516024016112ff929190611c81565b60408051601f198184030181529181526020820180516001600160e01b03166001600160e01b031990941693909317909252905161133d9190611979565b600060405180830381855afa9150503d8060008114611378576040519150601f19603f3d011682016040523d82523d6000602084013e61137d565b606091505b5091509150818015611390575080516020145b80156113b757508051630b135d3f60e11b906113b59083016020908101908401611995565b145b98975050505050505050565b6001600160a01b0381168114610aaa57600080fd5b60008083601f8401126113ea57600080fd5b5081356001600160401b0381111561140157600080fd5b602083019150836020828501011115610d2057600080fd5b60008060008060006080868803121561143157600080fd5b853561143c816113c3565b9450602086013561144c816113c3565b93506040860135925060608601356001600160401b0381111561146e57600080fd5b61147a888289016113d8565b969995985093965092949392505050565b6000806000604084860312156114a057600080fd5b83356001600160401b03808211156114b757600080fd5b90850190608082880312156114cb57600080fd5b909350602085013590808211156114e157600080fd5b506114ee868287016113d8565b9497909650939450505050565b60005b838110156115165781810151838201526020016114fe565b50506000910152565b600081518084526115378160208601602086016114fb565b601f01601f19169290920160200192915050565b60208152600061076c602083018461151f565b6000806040838503121561157157600080fd5b823561157c816113c3565b9150602083013561158c816113c3565b809150509250929050565b6000602082840312156115a957600080fd5b81356104a9816113c3565b634e487b7160e01b600052604160045260246000fd5b604051601f8201601f191681016001600160401b03811182821017156115f2576115f26115b4565b604052919050565b600082601f83011261160b57600080fd5b81356001600160401b03811115611624576116246115b4565b611637601f8201601f19166020016115ca565b81815284602083860101111561164c57600080fd5b816020850160208301376000918101602001919091529392505050565b60008060006060848603121561167e57600080fd5b8335925060208401356001600160401b038082111561169c57600080fd5b6116a8878388016115fa565b935060408601359150808211156116be57600080fd5b506116cb868287016115fa565b9150509250925092565b634e487b7160e01b600052602160045260246000fd5b6001600160a01b0383168152604081016005831061171957634e487b7160e01b600052602160045260246000fd5b8260208301529392505050565b60006020828403121561173857600080fd5b81356001600160401b0381111561174e57600080fd5b610a1d848285016115fa565b60006020828403121561176c57600080fd5b5035919050565b6000806040838503121561178657600080fd5b8235915060208301356001600160401b038111156117a357600080fd5b6117af858286016115fa565b9150509250929050565b6000806000606084860312156117ce57600080fd5b8335925060208401356001600160401b038111156117eb57600080fd5b6117f7868287016115fa565b9250506040840135611808816113c3565b809150509250925092565b600082601f83011261182457600080fd5b813560206001600160401b0382111561183f5761183f6115b4565b8160051b61184e8282016115ca565b928352848101820192828101908785111561186857600080fd5b83870192505b848310156118875782358252918301919083019061186e565b979650505050505050565b600080604083850312156118a557600080fd5b82356001600160401b038111156118bb57600080fd5b6118c785828601611813565b925050602083013561158c816113c3565b6000806000606084860312156118ed57600080fd5b83356001600160401b038082111561190457600080fd5b61191087838801611813565b9450602086013591508082111561192657600080fd5b506117f7868287016115fa565b6000808335601e1984360301811261194a57600080fd5b8301803591506001600160401b0382111561196457600080fd5b602001915036819003821315610d2057600080fd5b6000825161198b8184602087016114fb565b9190910192915050565b6000602082840312156119a757600080fd5b5051919050565b805160208083015191908110156119cf576000198160200360031b1b821691505b50919050565b634e487b7160e01b600052601160045260246000fd5b8181038181111561076f5761076f6119d5565b634e487b7160e01b600052603260045260246000fd5b634e487b7160e01b600052601260045260246000fd5b600060ff831680611a3d57611a3d611a14565b8060ff84160691505092915050565b83815282602082015260008251611a6a8160408501602087016114fb565b91909101604001949350505050565b60208082526029908201527f5a696c6c6971615265636f7665723a205055424c49435f4b45595f4c454e47546040820152681217d253959053125160ba1b606082015260800190565b60208082526035908201527f5a696c6c6971615265636f7665723a205055424c49435f4b45595f444f454e546040820152745f4d415443485f53454e4445525f4144445245535360581b606082015260800190565b600060018201611b2957611b296119d5565b5060010190565b600060808236031215611b4257600080fd5b604051608081016001600160401b038282108183111715611b6557611b656115b4565b8160405284359150611b76826113c3565b81835260208501356020840152604085013560408401526060850135915080821115611ba157600080fd5b50611bae368286016115fa565b60608301525092915050565b600082611bc957611bc9611a14565b500490565b634e487b7160e01b600052600160045260246000fd5b6020808252602b908201527f496e697469616c697a61626c653a20636f6e7472616374206973206e6f74206960408201526a6e697469616c697a696e6760a81b606082015260800190565b8082018082111561076f5761076f6119d5565b60008451611c548184602089016114fb565b60609490941b6bffffffffffffffffffffffff191691909301908152601481019190915260340192915050565b828152604060208201526000610a1d604083018461151f56fea164736f6c6343000811000a",
  "linkReferences": {},
  "deployedLinkReferences": {}
}