{
  "_format": "hh-sol-artifact-1",
  "contractName": "ZilliqaRecover",
  "sourceName": "contracts/ZilliqaRecover.sol",
  "abi": [
    {
      "anonymous": false,
      "inputs": [
        {
          "indexed": false,
          "internalType": "uint8",
          "name": "version",
          "type": "uint8"
        }
      ],
      "name": "Initialized",
      "type": "event"
    },
    {
      "inputs": [
        {
          "internalType": "uint256",
          "name": "tokenId",
          "type": "uint256"
        },
        {
          "internalType": "uint256",
          "name": "publicKey",
          "type": "uint256"
        },
        {
          "internalType": "bytes",
          "name": "signature",
          "type": "bytes"
        }
      ],
      "name": "claim",
      "outputs": [],
      "stateMutability": "nonpayable",
      "type": "function"
    },
    {
      "inputs": [
        {
          "internalType": "bytes",
          "name": "publicKey",
          "type": "bytes"
        }
      ],
      "name": "compressPublicKey",
      "outputs": [
        {
          "internalType": "bytes",
          "name": "",
          "type": "bytes"
        }
      ],
      "stateMutability": "pure",
      "type": "function"
    },
    {
      "inputs": [
        {
          "internalType": "bytes",
          "name": "publicKey",
          "type": "bytes"
        }
      ],
      "name": "ethAddress",
      "outputs": [
        {
          "internalType": "address",
          "name": "",
          "type": "address"
        }
      ],
      "stateMutability": "pure",
      "type": "function"
    },
    {
      "inputs": [
        {
          "internalType": "uint256",
          "name": "tokenId",
          "type": "uint256"
        },
        {
          "internalType": "bytes",
          "name": "publicKey",
          "type": "bytes"
        }
      ],
      "name": "ethSignedMessage",
      "outputs": [
        {
          "internalType": "bytes32",
          "name": "",
          "type": "bytes32"
        }
      ],
      "stateMutability": "view",
      "type": "function"
    },
    {
      "inputs": [
        {
          "internalType": "bytes",
          "name": "data",
          "type": "bytes"
        },
        {
          "internalType": "uint256",
          "name": "begin",
          "type": "uint256"
        },
        {
          "internalType": "uint256",
          "name": "end",
          "type": "uint256"
        }
      ],
      "name": "getSlice",
      "outputs": [
        {
          "internalType": "bytes",
          "name": "",
          "type": "bytes"
        }
      ],
      "stateMutability": "pure",
      "type": "function"
    },
    {
      "inputs": [
        {
          "internalType": "uint256",
          "name": "tokenId",
          "type": "uint256"
        },
        {
          "internalType": "address",
          "name": "owner",
          "type": "address"
        }
      ],
      "name": "initialize",
      "outputs": [],
      "stateMutability": "nonpayable",
      "type": "function"
    },
    {
      "inputs": [
        {
          "internalType": "address",
          "name": "forwarder",
          "type": "address"
        }
      ],
      "name": "isTrustedForwarder",
      "outputs": [
        {
          "internalType": "bool",
          "name": "",
          "type": "bool"
        }
      ],
      "stateMutability": "view",
      "type": "function"
    },
    {
      "inputs": [
        {
          "internalType": "uint256",
          "name": "tokenId",
          "type": "uint256"
        },
        {
          "internalType": "bytes",
          "name": "publicKey",
          "type": "bytes"
        }
      ],
      "name": "message",
      "outputs": [
        {
          "internalType": "bytes32",
          "name": "",
          "type": "bytes32"
        }
      ],
      "stateMutability": "view",
      "type": "function"
    },
    {
      "inputs": [],
      "name": "msgSender",
      "outputs": [
        {
          "internalType": "address",
          "name": "",
          "type": "address"
        }
      ],
      "stateMutability": "view",
      "type": "function"
    },
    {
      "inputs": [
        {
          "internalType": "uint256",
          "name": "tokenId",
          "type": "uint256"
        },
        {
          "internalType": "bytes",
          "name": "publicKey",
          "type": "bytes"
        },
        {
          "internalType": "bytes",
          "name": "signature",
          "type": "bytes"
        }
      ],
      "name": "recover",
      "outputs": [
        {
          "internalType": "address",
          "name": "recovered",
          "type": "address"
        },
        {
          "internalType": "enum ECDSAUpgradeable.RecoverError",
          "name": "error",
          "type": "uint8"
        }
      ],
      "stateMutability": "view",
      "type": "function"
    },
    {
      "inputs": [
        {
          "internalType": "uint256",
          "name": "",
          "type": "uint256"
        }
      ],
      "name": "tokenOwners",
      "outputs": [
        {
          "internalType": "address",
          "name": "",
          "type": "address"
        }
      ],
      "stateMutability": "view",
      "type": "function"
    },
    {
      "inputs": [
        {
          "internalType": "uint256",
          "name": "tokenId",
          "type": "uint256"
        },
        {
          "internalType": "bytes",
          "name": "publicKey",
          "type": "bytes"
        },
        {
          "internalType": "bytes",
          "name": "signature",
          "type": "bytes"
        }
      ],
      "name": "verify",
      "outputs": [
        {
          "internalType": "bool",
          "name": "",
          "type": "bool"
        }
      ],
      "stateMutability": "view",
      "type": "function"
    },
    {
      "inputs": [
        {
          "internalType": "bytes",
          "name": "publicKey",
          "type": "bytes"
        }
      ],
      "name": "zilAddress",
      "outputs": [
        {
          "internalType": "address",
          "name": "",
          "type": "address"
        }
      ],
      "stateMutability": "pure",
      "type": "function"
    }
  ],
  "bytecode": "0x608060405234801561001057600080fd5b50610d7d806100206000396000f3fe608060405234801561001057600080fd5b50600436106100cf5760003560e01c8063704625ed1161008c578063d737d0c711610066578063d737d0c714610205578063da35a26f1461020d578063f8a14f4614610220578063fb0e18ec1461024957600080fd5b8063704625ed146101be578063909f8e43146101df5780639a8bb0c4146101f257600080fd5b8063572b6c05146100d45780635bf145a21461012a5780635eddd1571461014a57806368555cb31461015f5780636889b16e1461018a5780636e4925b21461019d575b600080fd5b6101156100e23660046108a6565b7f893ef2ea16c023f61d4f55d3e6ee3fc3f2fbfd478461323dbc2fbf919047086e546001600160a01b0390811691161490565b60405190151581526020015b60405180910390f35b61013d610138366004610964565b61025c565b60405161012191906109d6565b61015d610158366004610a09565b505050565b005b61017261016d366004610a59565b610343565b6040516001600160a01b039091168152602001610121565b61013d610198366004610a59565b6103e1565b6101b06101ab366004610a96565b61045e565b604051610121929190610b0f565b6101d16101cc366004610b4a565b610480565b604051908152602001610121565b6101d16101ed366004610b4a565b6104eb565b610115610200366004610a96565b610520565b6101726105a7565b61015d61021b366004610b91565b6105b6565b61017261022e366004610bbd565b6033602052600090815260409020546001600160a01b031681565b610172610257366004610a59565b6106eb565b6060600061026a8484610bec565b610275906001610bff565b67ffffffffffffffff81111561028d5761028d6108c1565b6040519080825280601f01601f1916602001820160405280156102b7576020820181803683370190505b50905060005b6102c78585610bec565b811161033a578560016102da8784610bff565b6102e49190610bec565b815181106102f4576102f4610c12565b602001015160f81c60f81b82828151811061031157610311610c12565b60200101906001600160f81b031916908160001a9053508061033281610c28565b9150506102bd565b50949350505050565b6000806002610351846103e1565b60405161035e9190610c41565b602060405180830381855afa15801561037b573d6000803e3d6000fd5b5050506040513d601f19601f8201168201806040525081019061039e9190610c5d565b6040516020016103b091815260200190565b60405160208183030381529060405290506103ce81600d602061025c565b6103d790610c76565b60601c9392505050565b606060006103f2836001602061025c565b905060006104028460408061025c565b61040b90610cb2565b60f01c9050600061041d600283610ce5565b61ffff1615905080610430576003610433565b60025b83604051602001610445929190610d14565b6040516020818303038152906040529350505050919050565b60008061047461046e8686610480565b84610708565b91509150935093915050565b60006104e261048f84846104eb565b6040517f19457468657265756d205369676e6564204d6573736167653a0a3332000000006020820152603c8101829052600090605c01604051602081830303815290604052805190602001209050919050565b90505b92915050565b600046838360405160200161050293929190610d43565b60405160208183030381529060405280519060200120905092915050565b600080600061053086868661045e565b9092509050600081600481111561054957610549610af9565b14801561056f575061055a856106eb565b6001600160a01b0316826001600160a01b0316145b801561059d575061057f85610343565b6000878152603360205260409020546001600160a01b039081169116145b9695505050505050565b60006105b161074d565b905090565b600054610100900460ff16158080156105d65750600054600160ff909116105b806105f05750303b1580156105f0575060005460ff166001145b6106575760405162461bcd60e51b815260206004820152602e60248201527f496e697469616c697a61626c653a20636f6e747261637420697320616c72656160448201526d191e481a5b9a5d1a585b1a5e995960921b606482015260840160405180910390fd5b6000805460ff19166001179055801561067a576000805461ff0019166101001790555b600083815260336020526040902080546001600160a01b0319166001600160a01b0384161790558015610158576000805461ff0019169055604051600181527f7f26b83ff96e1f2b6a682f133852f6798a09c465da95921460cefb38474024989060200160405180910390a1505050565b60008082805190602001206040516020016103b091815260200190565b600080825160410361073e5760208301516040840151606085015160001a61073287828585610757565b94509450505050610746565b506000905060025b9250929050565b60006105b1610844565b6000807f7fffffffffffffffffffffffffffffff5d576e7357a4501ddfe92f46681b20a083111561078e575060009050600361083b565b8460ff16601b141580156107a657508460ff16601c14155b156107b7575060009050600461083b565b6040805160008082526020820180845289905260ff881692820192909252606081018690526080810185905260019060a0016020604051602081039080840390855afa15801561080b573d6000803e3d6000fd5b5050604051601f1901519150506001600160a01b0381166108345760006001925092505061083b565b9150600090505b94509492505050565b7f893ef2ea16c023f61d4f55d3e6ee3fc3f2fbfd478461323dbc2fbf919047086e546000906001600160a01b03163303610885575060331936013560601c90565b503390565b80356001600160a01b03811681146108a157600080fd5b919050565b6000602082840312156108b857600080fd5b6104e28261088a565b634e487b7160e01b600052604160045260246000fd5b600082601f8301126108e857600080fd5b813567ffffffffffffffff80821115610903576109036108c1565b604051601f8301601f19908116603f0116810190828211818310171561092b5761092b6108c1565b8160405283815286602085880101111561094457600080fd5b836020870160208301376000602085830101528094505050505092915050565b60008060006060848603121561097957600080fd5b833567ffffffffffffffff81111561099057600080fd5b61099c868287016108d7565b9660208601359650604090950135949350505050565b60005b838110156109cd5781810151838201526020016109b5565b50506000910152565b60208152600082518060208401526109f58160408501602087016109b2565b601f01601f19169190910160400192915050565b600080600060608486031215610a1e57600080fd5b8335925060208401359150604084013567ffffffffffffffff811115610a4357600080fd5b610a4f868287016108d7565b9150509250925092565b600060208284031215610a6b57600080fd5b813567ffffffffffffffff811115610a8257600080fd5b610a8e848285016108d7565b949350505050565b600080600060608486031215610aab57600080fd5b83359250602084013567ffffffffffffffff80821115610aca57600080fd5b610ad6878388016108d7565b93506040860135915080821115610aec57600080fd5b50610a4f868287016108d7565b634e487b7160e01b600052602160045260246000fd5b6001600160a01b03831681526040810160058310610b3d57634e487b7160e01b600052602160045260246000fd5b8260208301529392505050565b60008060408385031215610b5d57600080fd5b82359150602083013567ffffffffffffffff811115610b7b57600080fd5b610b87858286016108d7565b9150509250929050565b60008060408385031215610ba457600080fd5b82359150610bb46020840161088a565b90509250929050565b600060208284031215610bcf57600080fd5b5035919050565b634e487b7160e01b600052601160045260246000fd5b818103818111156104e5576104e5610bd6565b808201808211156104e5576104e5610bd6565b634e487b7160e01b600052603260045260246000fd5b600060018201610c3a57610c3a610bd6565b5060010190565b60008251610c538184602087016109b2565b9190910192915050565b600060208284031215610c6f57600080fd5b5051919050565b805160208201516bffffffffffffffffffffffff198082169291906014831015610caa5780818460140360031b1b83161693505b505050919050565b805160208201516001600160f01b03198082169291906002831015610caa5760029290920360031b82901b161692915050565b600061ffff80841680610d0857634e487b7160e01b600052601260045260246000fd5b92169190910692915050565b60ff60f81b8360f81b16815260008251610d358160018501602087016109b2565b919091016001019392505050565b83815282602082015260008251610d618160408501602087016109b2565b9190910160400194935050505056fea164736f6c6343000811000a",
  "linkReferences": {},
  "deployedLinkReferences": {}
}