{
  "_format": "hh-sol-artifact-1",
  "contractName": "ZilliqaRecover",
  "sourceName": "contracts/ZilliqaRecover.sol",
  "abi": [
    {
      "inputs": [],
      "name": "InvalidSignature",
      "type": "error"
    },
    {
      "anonymous": false,
      "inputs": [
        {
          "indexed": false,
          "internalType": "uint256",
          "name": "tokenId",
          "type": "uint256"
        },
        {
          "indexed": false,
          "internalType": "address",
          "name": "oldAddress",
          "type": "address"
        },
        {
          "indexed": false,
          "internalType": "address",
          "name": "newAddress",
          "type": "address"
        }
      ],
      "name": "Claimed",
      "type": "event"
    },
    {
      "anonymous": false,
      "inputs": [
        {
          "indexed": false,
          "internalType": "uint8",
          "name": "version",
          "type": "uint8"
        }
      ],
      "name": "Initialized",
      "type": "event"
    },
    {
      "anonymous": false,
      "inputs": [
        {
          "indexed": true,
          "internalType": "address",
          "name": "previousOwner",
          "type": "address"
        },
        {
          "indexed": true,
          "internalType": "address",
          "name": "newOwner",
          "type": "address"
        }
      ],
      "name": "OwnershipTransferred",
      "type": "event"
    },
    {
      "anonymous": false,
      "inputs": [
        {
          "indexed": false,
          "internalType": "uint256",
          "name": "tokenId",
          "type": "uint256"
        },
        {
          "indexed": false,
          "internalType": "address",
          "name": "zilAddress",
          "type": "address"
        }
      ],
      "name": "ZilOwnership",
      "type": "event"
    },
    {
      "inputs": [],
      "name": "ZIL_NODE",
      "outputs": [
        {
          "internalType": "uint256",
          "name": "",
          "type": "uint256"
        }
      ],
      "stateMutability": "view",
      "type": "function"
    },
    {
      "inputs": [
        {
          "internalType": "uint256",
          "name": "tokenId",
          "type": "uint256"
        },
        {
          "internalType": "bytes",
          "name": "publicKey",
          "type": "bytes"
        },
        {
          "internalType": "address",
          "name": "newOwnerAddress",
          "type": "address"
        }
      ],
      "name": "claim",
      "outputs": [],
      "stateMutability": "nonpayable",
      "type": "function"
    },
    {
      "inputs": [
        {
          "internalType": "uint256[]",
          "name": "tokenIds",
          "type": "uint256[]"
        },
        {
          "internalType": "bytes",
          "name": "publicKey",
          "type": "bytes"
        },
        {
          "internalType": "address",
          "name": "newOwnerAddress",
          "type": "address"
        }
      ],
      "name": "claimAll",
      "outputs": [],
      "stateMutability": "nonpayable",
      "type": "function"
    },
    {
      "inputs": [
        {
          "internalType": "bytes",
          "name": "publicKey",
          "type": "bytes"
        }
      ],
      "name": "compressPublicKey",
      "outputs": [
        {
          "internalType": "bytes",
          "name": "",
          "type": "bytes"
        }
      ],
      "stateMutability": "pure",
      "type": "function"
    },
    {
      "inputs": [
        {
          "internalType": "bytes",
          "name": "publicKey",
          "type": "bytes"
        }
      ],
      "name": "ethAddress",
      "outputs": [
        {
          "internalType": "address",
          "name": "",
          "type": "address"
        }
      ],
      "stateMutability": "pure",
      "type": "function"
    },
    {
      "inputs": [
        {
          "internalType": "uint256",
          "name": "tokenId",
          "type": "uint256"
        },
        {
          "internalType": "bytes",
          "name": "publicKey",
          "type": "bytes"
        }
      ],
      "name": "ethSignedMessage",
      "outputs": [
        {
          "internalType": "bytes32",
          "name": "",
          "type": "bytes32"
        }
      ],
      "stateMutability": "view",
      "type": "function"
    },
    {
      "inputs": [
        {
          "components": [
            {
              "internalType": "address",
              "name": "from",
              "type": "address"
            },
            {
              "internalType": "uint256",
              "name": "nonce",
              "type": "uint256"
            },
            {
              "internalType": "uint256",
              "name": "tokenId",
              "type": "uint256"
            },
            {
              "internalType": "bytes",
              "name": "data",
              "type": "bytes"
            }
          ],
          "internalType": "struct IForwarder.ForwardRequest",
          "name": "req",
          "type": "tuple"
        },
        {
          "internalType": "bytes",
          "name": "signature",
          "type": "bytes"
        }
      ],
      "name": "execute",
      "outputs": [
        {
          "internalType": "bytes",
          "name": "",
          "type": "bytes"
        }
      ],
      "stateMutability": "nonpayable",
      "type": "function"
    },
    {
      "inputs": [
        {
          "internalType": "contract IUNSRegistry",
          "name": "registry_",
          "type": "address"
        },
        {
          "internalType": "contract IMintingManager",
          "name": "mintingManager_",
          "type": "address"
        },
        {
          "internalType": "address",
          "name": "owner",
          "type": "address"
        }
      ],
      "name": "initialize",
      "outputs": [],
      "stateMutability": "nonpayable",
      "type": "function"
    },
    {
      "inputs": [
        {
          "internalType": "address",
          "name": "forwarder",
          "type": "address"
        }
      ],
      "name": "isTrustedForwarder",
      "outputs": [
        {
          "internalType": "bool",
          "name": "",
          "type": "bool"
        }
      ],
      "stateMutability": "view",
      "type": "function"
    },
    {
      "inputs": [
        {
          "internalType": "uint256",
          "name": "tokenId",
          "type": "uint256"
        },
        {
          "internalType": "bytes",
          "name": "publicKey",
          "type": "bytes"
        }
      ],
      "name": "message",
      "outputs": [
        {
          "internalType": "bytes32",
          "name": "",
          "type": "bytes32"
        }
      ],
      "stateMutability": "view",
      "type": "function"
    },
    {
      "inputs": [
        {
          "internalType": "string",
          "name": "label",
          "type": "string"
        },
        {
          "internalType": "address",
          "name": "zilOwner",
          "type": "address"
        }
      ],
      "name": "mint",
      "outputs": [],
      "stateMutability": "nonpayable",
      "type": "function"
    },
    {
      "inputs": [
        {
          "components": [
            {
              "internalType": "address",
              "name": "zilOwner",
              "type": "address"
            },
            {
              "internalType": "string",
              "name": "label",
              "type": "string"
            }
          ],
          "internalType": "struct ZilliqaRecover.MintingToken[]",
          "name": "tokens",
          "type": "tuple[]"
        }
      ],
      "name": "mintAll",
      "outputs": [],
      "stateMutability": "nonpayable",
      "type": "function"
    },
    {
      "inputs": [],
      "name": "mintingManager",
      "outputs": [
        {
          "internalType": "contract IMintingManager",
          "name": "",
          "type": "address"
        }
      ],
      "stateMutability": "view",
      "type": "function"
    },
    {
      "inputs": [
        {
          "internalType": "uint256",
          "name": "tokenId",
          "type": "uint256"
        }
      ],
      "name": "nonceOf",
      "outputs": [
        {
          "internalType": "uint256",
          "name": "",
          "type": "uint256"
        }
      ],
      "stateMutability": "view",
      "type": "function"
    },
    {
      "inputs": [
        {
          "internalType": "address",
          "name": "",
          "type": "address"
        },
        {
          "internalType": "address",
          "name": "",
          "type": "address"
        },
        {
          "internalType": "uint256",
          "name": "tokenId",
          "type": "uint256"
        },
        {
          "internalType": "bytes",
          "name": "",
          "type": "bytes"
        }
      ],
      "name": "onERC721Received",
      "outputs": [
        {
          "internalType": "bytes4",
          "name": "",
          "type": "bytes4"
        }
      ],
      "stateMutability": "view",
      "type": "function"
    },
    {
      "inputs": [],
      "name": "owner",
      "outputs": [
        {
          "internalType": "address",
          "name": "",
          "type": "address"
        }
      ],
      "stateMutability": "view",
      "type": "function"
    },
    {
      "inputs": [
        {
          "internalType": "uint256",
          "name": "tokenId",
          "type": "uint256"
        },
        {
          "internalType": "bytes",
          "name": "publicKey",
          "type": "bytes"
        },
        {
          "internalType": "bytes",
          "name": "signature",
          "type": "bytes"
        }
      ],
      "name": "recover1",
      "outputs": [
        {
          "internalType": "address",
          "name": "recovered",
          "type": "address"
        },
        {
          "internalType": "enum ECDSAUpgradeable.RecoverError",
          "name": "error",
          "type": "uint8"
        }
      ],
      "stateMutability": "view",
      "type": "function"
    },
    {
      "inputs": [],
      "name": "registry",
      "outputs": [
        {
          "internalType": "contract IUNSRegistry",
          "name": "",
          "type": "address"
        }
      ],
      "stateMutability": "view",
      "type": "function"
    },
    {
      "inputs": [],
      "name": "renounceOwnership",
      "outputs": [],
      "stateMutability": "nonpayable",
      "type": "function"
    },
    {
      "inputs": [
        {
          "internalType": "uint256[]",
          "name": "tokenIds",
          "type": "uint256[]"
        },
        {
          "internalType": "address",
          "name": "_zilAddress",
          "type": "address"
        }
      ],
      "name": "setZilOwner",
      "outputs": [],
      "stateMutability": "nonpayable",
      "type": "function"
    },
    {
      "inputs": [
        {
          "internalType": "address",
          "name": "newOwner",
          "type": "address"
        }
      ],
      "name": "transferOwnership",
      "outputs": [],
      "stateMutability": "nonpayable",
      "type": "function"
    },
    {
      "inputs": [
        {
          "components": [
            {
              "internalType": "address",
              "name": "from",
              "type": "address"
            },
            {
              "internalType": "uint256",
              "name": "nonce",
              "type": "uint256"
            },
            {
              "internalType": "uint256",
              "name": "tokenId",
              "type": "uint256"
            },
            {
              "internalType": "bytes",
              "name": "data",
              "type": "bytes"
            }
          ],
          "internalType": "struct IForwarder.ForwardRequest",
          "name": "req",
          "type": "tuple"
        },
        {
          "internalType": "bytes",
          "name": "signature",
          "type": "bytes"
        }
      ],
      "name": "verify",
      "outputs": [
        {
          "internalType": "bool",
          "name": "",
          "type": "bool"
        }
      ],
      "stateMutability": "view",
      "type": "function"
    },
    {
      "inputs": [
        {
          "internalType": "uint256",
          "name": "tokenId",
          "type": "uint256"
        },
        {
          "internalType": "bytes",
          "name": "publicKey",
          "type": "bytes"
        },
        {
          "internalType": "bytes",
          "name": "signature",
          "type": "bytes"
        }
      ],
      "name": "verify1",
      "outputs": [
        {
          "internalType": "bool",
          "name": "",
          "type": "bool"
        }
      ],
      "stateMutability": "view",
      "type": "function"
    },
    {
      "inputs": [
        {
          "internalType": "bytes",
          "name": "publicKey",
          "type": "bytes"
        }
      ],
      "name": "zilAddress",
      "outputs": [
        {
          "internalType": "address",
          "name": "",
          "type": "address"
        }
      ],
      "stateMutability": "pure",
      "type": "function"
    },
    {
      "inputs": [
        {
          "internalType": "uint256",
          "name": "tokenId",
          "type": "uint256"
        }
      ],
      "name": "zilOwnerOf",
      "outputs": [
        {
          "internalType": "address",
          "name": "",
          "type": "address"
        }
      ],
      "stateMutability": "view",
      "type": "function"
    }
  ],
  "bytecode": "0x608060405234801561001057600080fd5b50612197806100206000396000f3fe608060405234801561001057600080fd5b50600436106101735760003560e01c80638da5cb5b116100de578063a3a1cd9711610097578063e1c4b65a11610071578063e1c4b65a14610395578063f2fde38b146103a8578063fb0e18ec146103bb578063fd998791146103d457600080fd5b8063a3a1cd971461035c578063a42474001461036f578063c0c53b8b1461038257600080fd5b80638da5cb5b146102cb578063909f8e43146102d3578063939f59fe146102e65780639c6b9f8a146102f95780639e32d3641461030c578063a32ecf6c1461033357600080fd5b806368555cb31161013057806368555cb3146102565780636889b16e146102695780636ccbae5f1461027c578063704625ed1461029d578063715018a6146102b05780637b103999146102b857600080fd5b8063150b7a02146101785780631bf7e13e146101a95780631c351a9d146101c9578063572b6c05146101de578063588844321461020a5780635b1e0f0014610235575b600080fd5b61018b61018636600461176e565b6103e7565b6040516001600160e01b031990911681526020015b60405180910390f35b6101bc6101b73660046117e0565b61046d565b6040516101a091906118a0565b6101dc6101d73660046118b3565b610539565b005b6101fa6101ec366004611909565b6001600160a01b0316301490565b60405190151581526020016101a0565b60675461021d906001600160a01b031681565b6040516001600160a01b0390911681526020016101a0565b6102486102433660046119db565b610551565b6040516101a0929190611a5d565b61021d610264366004611a98565b610573565b6101bc610277366004611a98565b6105ce565b61028f61028a366004611acc565b610667565b6040519081526020016101a0565b61028f6102ab366004611ae5565b6106c1565b6101dc6106de565b60665461021d906001600160a01b031681565b61021d6106f2565b61028f6102e1366004611ae5565b610720565b6101fa6102f43660046119db565b610755565b6101dc610307366004611b2b565b6107ef565b61028f7fd81bbfcee722494b885e891546eeac23d0eedcd44038d7a2f6ef9ec2f9e0d23981565b61021d610341366004611acc565b6000908152606560205260409020546001600160a01b031690565b6101dc61036a366004611bf9565b610860565b6101fa61037d3660046117e0565b61093b565b6101dc610390366004611c4a565b61098e565b6101dc6103a3366004611c8a565b610ada565b6101dc6103b6366004611909565b610b49565b61021d6103c9366004611a98565b805160209091012090565b6101dc6103e2366004611cfe565b610bc2565b6000838152606560205260408120546001600160a01b031661045b5760405162461bcd60e51b815260206004820152602260248201527f5a696c6c6971615265636f7665723a20544f4b454e5f4841535f4e4f5f4f574e60448201526122a960f11b60648201526084015b60405180910390fd5b50630a85bd0160e11b95945050505050565b606060005a905061047f85858561093b565b61049c57604051638baa579f60e01b815260040160405180910390fd5b61052e6104ac6020870187611909565b306040880135846104c060608b018b611d59565b8080601f01602080910402602001604051908101604052809392919081815260200183838082843760009201919091525050604080516020601f8e018190048102820181019092528c815292508c91508b9081908401838280828437600092019190915250610c6b92505050565b9150505b9392505050565b610541610d4c565b61054c838383610dbb565b505050565b60008061056761056186866106c1565b84610e99565b91509150935093915050565b6000806002610581846105ce565b60405161058e9190611d9f565b602060405180830381855afa1580156105ab573d6000803e3d6000fd5b5050506040513d601f19601f820116820180604052508101906105329190611dbb565b606060006105db83611dd4565b9050600083600185516105ee9190611e11565b815181106105fe576105fe611e24565b016020015160f81c9050610613600282611e50565b60ff1615610622576003610625565b60025b8260405160200161064f92919060f89290921b6001600160f81b0319168252600182015260210190565b60405160208183030381529060405292505050919050565b604080517f1ee5d87a048b728f67073f282321992c260e5be4fa651d08665c5b4ee7a8381560208201529081018290526000906106ba906060016040516020818303038152906040528051906020012090565b5492915050565b60006106d56106d08484610720565b610ede565b90505b92915050565b6106e6610d4c565b6106f06000610f31565b565b7fe1b9c5b9c6f25fc6c03fdb76829a7257b1cdb10ff4bc4f62e0a94358c8121905546001600160a01b031690565b600046838360405160200161073793929190611e72565b60405160208183030381529060405280519060200120905092915050565b6000806000610765868686610551565b9092509050600081600481111561077e5761077e611a47565b1480156107a25750845160208601206001600160a01b0316826001600160a01b0316145b80156107e557506107b285610573565b6001600160a01b03166107da876000908152606560205260409020546001600160a01b031690565b6001600160a01b0316145b9695505050505050565b8180516040146108115760405162461bcd60e51b815260040161045290611e9f565b805160208201206001600160a01b0316610829610fad565b6001600160a01b03161461084f5760405162461bcd60e51b815260040161045290611ee8565b61085a848484610fbc565b50505050565b610868610d4c565b60005b825181101561054c57816065600085848151811061088b5761088b611e24565b6020026020010151815260200190815260200160002060006101000a8154816001600160a01b0302191690836001600160a01b031602179055507f65ee84af14b46d8bb3abef3f56f7107af27311b5eca54c8acf3441176fab166d8382815181106108f8576108f8611e24565b6020026020010151836040516109219291909182526001600160a01b0316602082015260400190565b60405180910390a18061093381611f3d565b91505061086b565b600061098661094985611f56565b3085858080601f01602080910402602001604051908101604052809392919081815260200183838082843760009201919091525061114a92505050565b949350505050565b600054610100900460ff16158080156109ae5750600054600160ff909116105b806109c85750303b1580156109c8575060005460ff166001145b610a2b5760405162461bcd60e51b815260206004820152602e60248201527f496e697469616c697a61626c653a20636f6e747261637420697320616c72656160448201526d191e481a5b9a5d1a585b1a5e995960921b6064820152608401610452565b6000805460ff191660011790558015610a4e576000805461ff0019166101001790555b606680546001600160a01b038087166001600160a01b0319928316179092556067805492861692909116919091179055610a8782610f31565b610a8f611244565b801561085a576000805461ff0019169055604051600181527f7f26b83ff96e1f2b6a682f133852f6798a09c465da95921460cefb38474024989060200160405180910390a150505050565b610ae2610d4c565b60005b8181101561054c5736838383818110610b0057610b00611e24565b9050602002810190610b129190611fe0565b9050610b36610b246020830183611d59565b610b316020850185611909565b610dbb565b5080610b4181611f3d565b915050610ae5565b610b51610d4c565b6001600160a01b038116610bb65760405162461bcd60e51b815260206004820152602660248201527f4f776e61626c653a206e6577206f776e657220697320746865207a65726f206160448201526564647265737360d01b6064820152608401610452565b610bbf81610f31565b50565b818051604014610be45760405162461bcd60e51b815260040161045290611e9f565b805160208201206001600160a01b0316610bfc610fad565b6001600160a01b031614610c225760405162461bcd60e51b815260040161045290611ee8565b60005b8451811015610c6457610c52858281518110610c4357610c43611e24565b60200260200101518585610fbc565b80610c5c81611f3d565b915050610c25565b5050505050565b6060610c7685611273565b600080876001600160a01b031686610c908b8a89896112d9565b604051610c9d9190611d9f565b60006040518083038160008787f1925050503d8060008114610cdb576040519150601f19603f3d011682016040523d82523d6000602084013e610ce0565b606091505b509092509050610cf1603f87611ff6565b5a11610cff57610cff61200a565b610d3f82826040518060400160405280601a81526020017f42617365466f727761726465723a2043414c4c5f4641494c4544000000000000815250611309565b9998505050505050505050565b610d54610fad565b6001600160a01b0316610d656106f2565b6001600160a01b0316146106f05760405162461bcd60e51b815260206004820181905260248201527f4f776e61626c653a2063616c6c6572206973206e6f7420746865206f776e65726044820152606401610452565b6060600080610dff86868080601f01602080910402602001604051908101604052809392919081815260200183838082843760009201919091525061134292505050565b60008181526065602052604080822080546001600160a01b0319166001600160a01b038a8116919091179091556067549151635cd7e3b360e01b815294965092945090911691635cd7e3b391610e5f913091879189918291600401612075565b600060405180830381600087803b158015610e7957600080fd5b505af1158015610e8d573d6000803e3d6000fd5b50505050505050505050565b6000808251604103610ecf5760208301516040840151606085015160001a610ec387828585611497565b94509450505050610ed7565b506000905060025b9250929050565b6040517f19457468657265756d205369676e6564204d6573736167653a0a3332000000006020820152603c8101829052600090605c01604051602081830303815290604052805190602001209050919050565b6000610f3b6106f2565b9050817fe1b9c5b9c6f25fc6c03fdb76829a7257b1cdb10ff4bc4f62e0a94358c812190580546001600160a01b0319166001600160a01b03928316179055604051838216918316907f8be0079c531659141344cd1fd0a4f28419497f9722a3daafe3b4186f6b6457e090600090a35050565b6000610fb7611584565b905090565b610fc582610573565b6001600160a01b0316610fed846000908152606560205260409020546001600160a01b031690565b6001600160a01b0316146110585760405162461bcd60e51b815260206004820152602c60248201527f5a696c6c6971615265636f7665723a20544f4b454e5f4f574e45445f42595f4f60448201526b544845525f4144445245535360a01b6064820152608401610452565b600083815260656020526040902080546001600160a01b03191690556066546001600160a01b0316156110f257606654604051632142170760e11b81523060048201526001600160a01b03838116602483015260448201869052909116906342842e0e90606401600060405180830381600087803b1580156110d957600080fd5b505af11580156110ed573d6000803e3d6000fd5b505050505b7f3c75fca1decf7e281012586b8fab4c62d1e876fc95d6d0335723cd6ea5bba73a8361111c610fad565b604080519283526001600160a01b0391821660208401529084169082015260600160405180910390a1505050565b6040838101519051636ccbae5f60e01b8152600481019190915260009081903090636ccbae5f90602401602060405180830381865afa158015611191573d6000803e3d6000fd5b505050506040513d601f19601f820116820180604052508101906111b59190611dbb565b9050600061121e8660600151805190602001208688602001516040516020016112039392919092835260609190911b6bffffffffffffffffffffffff19166020830152603482015260540190565b60405160208183030381529060405280519060200120610ede565b90508186602001511480156107e5575085516107e5906001600160a01b0316828661159f565b600054610100900460ff1661126b5760405162461bcd60e51b8152600401610452906120d4565b6106f06116e1565b604080517f1ee5d87a048b728f67073f282321992c260e5be4fa651d08665c5b4ee7a8381560208201529081018290526000906060016040516020818303038152906040528051906020012090506112c88190565b546112d490600161211f565b905550565b60608285856040516020016112f093929190612132565b6040516020818303038152906040529050949350505050565b60608315611318575081610532565b8251156113285782518084602001fd5b8160405162461bcd60e51b815260040161045291906118a0565b6060600082516000036113975760405162461bcd60e51b815260206004820152601b60248201527f5a696c6c6971615265636f7665723a204c4142454c5f454d50545900000000006044820152606401610452565b7fd81bbfcee722494b885e891546eeac23d0eedcd44038d7a2f6ef9ec2f9e0d239836040516020016113c99190611d9f565b604051602081830303815290604052805190602001206040516020016113f9929190918252602082015260400190565b60408051601f198184030181528282528051602091820120600280855260608501909352935082015b6060815260200190600190039081611422579050509150828260008151811061144d5761144d611e24565b6020026020010181905250604051806040016040528060038152602001621e9a5b60ea1b8152508260018151811061148757611487611e24565b6020026020010181905250915091565b6000807f7fffffffffffffffffffffffffffffff5d576e7357a4501ddfe92f46681b20a08311156114ce575060009050600361157b565b8460ff16601b141580156114e657508460ff16601c14155b156114f7575060009050600461157b565b6040805160008082526020820180845289905260ff881692820192909252606081018690526080810185905260019060a0016020604051602081039080840390855afa15801561154b573d6000803e3d6000fd5b5050604051601f1901519150506001600160a01b0381166115745760006001925092505061157b565b9150600090505b94509492505050565b600030330361159a575060331936013560601c90565b503390565b60008060006115ae8585610e99565b909250905060008160048111156115c7576115c7611a47565b1480156115e55750856001600160a01b0316826001600160a01b0316145b156115f557600192505050610532565b600080876001600160a01b0316631626ba7e60e01b888860405160240161161d929190612171565b60408051601f198184030181529181526020820180516001600160e01b03166001600160e01b031990941693909317909252905161165b9190611d9f565b600060405180830381855afa9150503d8060008114611696576040519150601f19603f3d011682016040523d82523d6000602084013e61169b565b606091505b50915091508180156116ae575080516020145b80156116d557508051630b135d3f60e11b906116d39083016020908101908401611dbb565b145b98975050505050505050565b600054610100900460ff166117085760405162461bcd60e51b8152600401610452906120d4565b6106f0611713610fad565b610f31565b6001600160a01b0381168114610bbf57600080fd5b60008083601f84011261173f57600080fd5b5081356001600160401b0381111561175657600080fd5b602083019150836020828501011115610ed757600080fd5b60008060008060006080868803121561178657600080fd5b853561179181611718565b945060208601356117a181611718565b93506040860135925060608601356001600160401b038111156117c357600080fd5b6117cf8882890161172d565b969995985093965092949392505050565b6000806000604084860312156117f557600080fd5b83356001600160401b038082111561180c57600080fd5b908501906080828803121561182057600080fd5b9093506020850135908082111561183657600080fd5b506118438682870161172d565b9497909650939450505050565b60005b8381101561186b578181015183820152602001611853565b50506000910152565b6000815180845261188c816020860160208601611850565b601f01601f19169290920160200192915050565b6020815260006106d56020830184611874565b6000806000604084860312156118c857600080fd5b83356001600160401b038111156118de57600080fd5b6118ea8682870161172d565b90945092505060208401356118fe81611718565b809150509250925092565b60006020828403121561191b57600080fd5b813561053281611718565b634e487b7160e01b600052604160045260246000fd5b604051601f8201601f191681016001600160401b038111828210171561196457611964611926565b604052919050565b600082601f83011261197d57600080fd5b81356001600160401b0381111561199657611996611926565b6119a9601f8201601f191660200161193c565b8181528460208386010111156119be57600080fd5b816020850160208301376000918101602001919091529392505050565b6000806000606084860312156119f057600080fd5b8335925060208401356001600160401b0380821115611a0e57600080fd5b611a1a8783880161196c565b93506040860135915080821115611a3057600080fd5b50611a3d8682870161196c565b9150509250925092565b634e487b7160e01b600052602160045260246000fd5b6001600160a01b03831681526040810160058310611a8b57634e487b7160e01b600052602160045260246000fd5b8260208301529392505050565b600060208284031215611aaa57600080fd5b81356001600160401b03811115611ac057600080fd5b6109868482850161196c565b600060208284031215611ade57600080fd5b5035919050565b60008060408385031215611af857600080fd5b8235915060208301356001600160401b03811115611b1557600080fd5b611b218582860161196c565b9150509250929050565b600080600060608486031215611b4057600080fd5b8335925060208401356001600160401b03811115611b5d57600080fd5b611b698682870161196c565b92505060408401356118fe81611718565b600082601f830112611b8b57600080fd5b813560206001600160401b03821115611ba657611ba6611926565b8160051b611bb582820161193c565b9283528481018201928281019087851115611bcf57600080fd5b83870192505b84831015611bee57823582529183019190830190611bd5565b979650505050505050565b60008060408385031215611c0c57600080fd5b82356001600160401b03811115611c2257600080fd5b611c2e85828601611b7a565b9250506020830135611c3f81611718565b809150509250929050565b600080600060608486031215611c5f57600080fd5b8335611c6a81611718565b92506020840135611c7a81611718565b915060408401356118fe81611718565b60008060208385031215611c9d57600080fd5b82356001600160401b0380821115611cb457600080fd5b818501915085601f830112611cc857600080fd5b813581811115611cd757600080fd5b8660208260051b8501011115611cec57600080fd5b60209290920196919550909350505050565b600080600060608486031215611d1357600080fd5b83356001600160401b0380821115611d2a57600080fd5b611d3687838801611b7a565b94506020860135915080821115611d4c57600080fd5b50611b698682870161196c565b6000808335601e19843603018112611d7057600080fd5b8301803591506001600160401b03821115611d8a57600080fd5b602001915036819003821315610ed757600080fd5b60008251611db1818460208701611850565b9190910192915050565b600060208284031215611dcd57600080fd5b5051919050565b80516020808301519190811015611df5576000198160200360031b1b821691505b50919050565b634e487b7160e01b600052601160045260246000fd5b818103818111156106d8576106d8611dfb565b634e487b7160e01b600052603260045260246000fd5b634e487b7160e01b600052601260045260246000fd5b600060ff831680611e6357611e63611e3a565b8060ff84160691505092915050565b83815282602082015260008251611e90816040850160208701611850565b91909101604001949350505050565b60208082526029908201527f5a696c6c6971615265636f7665723a205055424c49435f4b45595f4c454e47546040820152681217d253959053125160ba1b606082015260800190565b60208082526035908201527f5a696c6c6971615265636f7665723a205055424c49435f4b45595f444f454e546040820152745f4d415443485f53454e4445525f4144445245535360581b606082015260800190565b600060018201611f4f57611f4f611dfb565b5060010190565b600060808236031215611f6857600080fd5b604051608081016001600160401b038282108183111715611f8b57611f8b611926565b8160405284359150611f9c82611718565b81835260208501356020840152604085013560408401526060850135915080821115611fc757600080fd5b50611fd43682860161196c565b60608301525092915050565b60008235603e19833603018112611db157600080fd5b60008261200557612005611e3a565b500490565b634e487b7160e01b600052600160045260246000fd5b600081518084526020808501808196508360051b8101915082860160005b85811015612068578284038952612056848351611874565b9885019893509084019060010161203e565b5091979650505050505050565b6001600160a01b038616815260a06020820181905260009061209990830187612020565b82810360408401526120ab8187612020565b905082810360608401526120bf8186612020565b91505082151560808301529695505050505050565b6020808252602b908201527f496e697469616c697a61626c653a20636f6e7472616374206973206e6f74206960408201526a6e697469616c697a696e6760a81b606082015260800190565b808201808211156106d8576106d8611dfb565b60008451612144818460208901611850565b60609490941b6bffffffffffffffffffffffff191691909301908152601481019190915260340192915050565b828152604060208201526000610986604083018461187456fea164736f6c6343000811000a",
  "linkReferences": {},
  "deployedLinkReferences": {}
}