{
  "_format": "hh-sol-artifact-1",
  "contractName": "ZilliqaRecover",
  "sourceName": "contracts/custody/ZilliqaRecover.sol",
  "abi": [
    {
      "inputs": [
        {
          "internalType": "uint256",
          "name": "tokenId",
          "type": "uint256"
        }
      ],
      "name": "InvalidForwardedToken",
      "type": "error"
    },
    {
      "inputs": [],
      "name": "InvalidSignature",
      "type": "error"
    },
    {
      "inputs": [
        {
          "internalType": "bytes32",
          "name": "publicKeyX",
          "type": "bytes32"
        },
        {
          "internalType": "bytes32",
          "name": "publicKeyY",
          "type": "bytes32"
        }
      ],
      "name": "PublicKeyUnmatchSenderAddress",
      "type": "error"
    },
    {
      "inputs": [
        {
          "internalType": "address",
          "name": "sender",
          "type": "address"
        }
      ],
      "name": "SenderNotMinter",
      "type": "error"
    },
    {
      "inputs": [
        {
          "internalType": "uint256",
          "name": "tokenId",
          "type": "uint256"
        },
        {
          "internalType": "address",
          "name": "znsOwner",
          "type": "address"
        },
        {
          "internalType": "address",
          "name": "receivedOwner",
          "type": "address"
        }
      ],
      "name": "TokenOwnedByOtherZilAddress",
      "type": "error"
    },
    {
      "inputs": [
        {
          "internalType": "uint256",
          "name": "tokenId",
          "type": "uint256"
        },
        {
          "internalType": "address",
          "name": "contractAddress",
          "type": "address"
        }
      ],
      "name": "UnknownTokenReceived",
      "type": "error"
    },
    {
      "anonymous": false,
      "inputs": [
        {
          "indexed": false,
          "internalType": "uint8",
          "name": "version",
          "type": "uint8"
        }
      ],
      "name": "Initialized",
      "type": "event"
    },
    {
      "anonymous": false,
      "inputs": [
        {
          "indexed": true,
          "internalType": "uint256",
          "name": "tokenId",
          "type": "uint256"
        },
        {
          "indexed": true,
          "internalType": "address",
          "name": "oldAddress",
          "type": "address"
        },
        {
          "indexed": true,
          "internalType": "address",
          "name": "newAddress",
          "type": "address"
        }
      ],
      "name": "ZnsTokenClaimed",
      "type": "event"
    },
    {
      "anonymous": false,
      "inputs": [
        {
          "indexed": true,
          "internalType": "uint256",
          "name": "tokenId",
          "type": "uint256"
        },
        {
          "indexed": true,
          "internalType": "address",
          "name": "zilAddress",
          "type": "address"
        },
        {
          "indexed": false,
          "internalType": "string",
          "name": "label",
          "type": "string"
        }
      ],
      "name": "ZnsTokenMinted",
      "type": "event"
    },
    {
      "inputs": [],
      "name": "ZIL_NODE",
      "outputs": [
        {
          "internalType": "uint256",
          "name": "",
          "type": "uint256"
        }
      ],
      "stateMutability": "view",
      "type": "function"
    },
    {
      "inputs": [
        {
          "internalType": "uint256",
          "name": "tokenId",
          "type": "uint256"
        },
        {
          "internalType": "bytes32",
          "name": "publicKeyX",
          "type": "bytes32"
        },
        {
          "internalType": "bytes32",
          "name": "publicKeyY",
          "type": "bytes32"
        },
        {
          "internalType": "address",
          "name": "newOwnerAddress",
          "type": "address"
        }
      ],
      "name": "claim",
      "outputs": [],
      "stateMutability": "nonpayable",
      "type": "function"
    },
    {
      "inputs": [
        {
          "internalType": "uint256[]",
          "name": "tokenIds",
          "type": "uint256[]"
        },
        {
          "internalType": "bytes32",
          "name": "publicKeyX",
          "type": "bytes32"
        },
        {
          "internalType": "bytes32",
          "name": "publicKeyY",
          "type": "bytes32"
        },
        {
          "internalType": "address",
          "name": "newOwnerAddress",
          "type": "address"
        }
      ],
      "name": "claimAll",
      "outputs": [],
      "stateMutability": "nonpayable",
      "type": "function"
    },
    {
      "inputs": [
        {
          "internalType": "bytes32",
          "name": "publicKeyX",
          "type": "bytes32"
        },
        {
          "internalType": "bytes32",
          "name": "publicKeyY",
          "type": "bytes32"
        }
      ],
      "name": "ethAddress",
      "outputs": [
        {
          "internalType": "address",
          "name": "",
          "type": "address"
        }
      ],
      "stateMutability": "pure",
      "type": "function"
    },
    {
      "inputs": [
        {
          "components": [
            {
              "internalType": "address",
              "name": "from",
              "type": "address"
            },
            {
              "internalType": "uint256",
              "name": "nonce",
              "type": "uint256"
            },
            {
              "internalType": "uint256",
              "name": "tokenId",
              "type": "uint256"
            },
            {
              "internalType": "bytes",
              "name": "data",
              "type": "bytes"
            }
          ],
          "internalType": "struct IForwarder.ForwardRequest",
          "name": "req",
          "type": "tuple"
        },
        {
          "internalType": "bytes",
          "name": "signature",
          "type": "bytes"
        }
      ],
      "name": "execute",
      "outputs": [
        {
          "internalType": "bytes",
          "name": "",
          "type": "bytes"
        }
      ],
      "stateMutability": "nonpayable",
      "type": "function"
    },
    {
      "inputs": [
        {
          "internalType": "contract IUNSRegistry",
          "name": "registry_",
          "type": "address"
        },
        {
          "internalType": "contract IMintingManager",
          "name": "mintingManager_",
          "type": "address"
        }
      ],
      "name": "initialize",
      "outputs": [],
      "stateMutability": "nonpayable",
      "type": "function"
    },
    {
      "inputs": [
        {
          "internalType": "address",
          "name": "forwarder",
          "type": "address"
        }
      ],
      "name": "isTrustedForwarder",
      "outputs": [
        {
          "internalType": "bool",
          "name": "",
          "type": "bool"
        }
      ],
      "stateMutability": "view",
      "type": "function"
    },
    {
      "inputs": [
        {
          "internalType": "string",
          "name": "label",
          "type": "string"
        },
        {
          "internalType": "address",
          "name": "zilOwner",
          "type": "address"
        }
      ],
      "name": "mint",
      "outputs": [
        {
          "internalType": "uint256",
          "name": "",
          "type": "uint256"
        }
      ],
      "stateMutability": "nonpayable",
      "type": "function"
    },
    {
      "inputs": [
        {
          "components": [
            {
              "internalType": "address",
              "name": "zilOwner",
              "type": "address"
            },
            {
              "internalType": "string",
              "name": "label",
              "type": "string"
            }
          ],
          "internalType": "struct ZilliqaRecover.MintingToken[]",
          "name": "tokens",
          "type": "tuple[]"
        }
      ],
      "name": "mintAll",
      "outputs": [],
      "stateMutability": "nonpayable",
      "type": "function"
    },
    {
      "inputs": [],
      "name": "mintingManager",
      "outputs": [
        {
          "internalType": "contract IMintingManager",
          "name": "",
          "type": "address"
        }
      ],
      "stateMutability": "view",
      "type": "function"
    },
    {
      "inputs": [
        {
          "internalType": "uint256",
          "name": "tokenId",
          "type": "uint256"
        }
      ],
      "name": "nonceOf",
      "outputs": [
        {
          "internalType": "uint256",
          "name": "",
          "type": "uint256"
        }
      ],
      "stateMutability": "view",
      "type": "function"
    },
    {
      "inputs": [
        {
          "internalType": "address",
          "name": "",
          "type": "address"
        },
        {
          "internalType": "address",
          "name": "",
          "type": "address"
        },
        {
          "internalType": "uint256",
          "name": "tokenId",
          "type": "uint256"
        },
        {
          "internalType": "bytes",
          "name": "",
          "type": "bytes"
        }
      ],
      "name": "onERC721Received",
      "outputs": [
        {
          "internalType": "bytes4",
          "name": "",
          "type": "bytes4"
        }
      ],
      "stateMutability": "view",
      "type": "function"
    },
    {
      "inputs": [],
      "name": "registry",
      "outputs": [
        {
          "internalType": "contract IUNSRegistry",
          "name": "",
          "type": "address"
        }
      ],
      "stateMutability": "view",
      "type": "function"
    },
    {
      "inputs": [
        {
          "components": [
            {
              "internalType": "address",
              "name": "from",
              "type": "address"
            },
            {
              "internalType": "uint256",
              "name": "nonce",
              "type": "uint256"
            },
            {
              "internalType": "uint256",
              "name": "tokenId",
              "type": "uint256"
            },
            {
              "internalType": "bytes",
              "name": "data",
              "type": "bytes"
            }
          ],
          "internalType": "struct IForwarder.ForwardRequest",
          "name": "req",
          "type": "tuple"
        },
        {
          "internalType": "bytes",
          "name": "signature",
          "type": "bytes"
        }
      ],
      "name": "verify",
      "outputs": [
        {
          "internalType": "bool",
          "name": "",
          "type": "bool"
        }
      ],
      "stateMutability": "view",
      "type": "function"
    },
    {
      "inputs": [
        {
          "internalType": "bytes32",
          "name": "publicKeyX",
          "type": "bytes32"
        },
        {
          "internalType": "bytes32",
          "name": "publicKeyY",
          "type": "bytes32"
        }
      ],
      "name": "zilAddress",
      "outputs": [
        {
          "internalType": "address",
          "name": "",
          "type": "address"
        }
      ],
      "stateMutability": "pure",
      "type": "function"
    },
    {
      "inputs": [
        {
          "internalType": "uint256",
          "name": "tokenId",
          "type": "uint256"
        }
      ],
      "name": "znsOwnerOf",
      "outputs": [
        {
          "internalType": "address",
          "name": "",
          "type": "address"
        }
      ],
      "stateMutability": "view",
      "type": "function"
    }
  ],
  "bytecode": "0x608060405234801561001057600080fd5b50611b98806100206000396000f3fe608060405234801561001057600080fd5b50600436106101005760003560e01c806371017a54116100975780639e32d364116100665780639e32d36414610255578063a42474001461027c578063e1c4b65a1461028f578063e35a14e5146102a257600080fd5b806371017a54146102095780637b1039991461021c5780638f0dbd251461022f5780639810b6951461024257600080fd5b8063485cc955116100d3578063485cc9551461018c578063572b6c051461019f57806358884432146101cb5780636ccbae5f146101f657600080fd5b8063150b7a02146101055780631694116d146101365780631bf7e13e1461014b5780631c351a9d1461016b575b600080fd5b61011861011336600461140e565b6102cb565b6040516001600160e01b031990911681526020015b60405180910390f35b6101496101443660046114c6565b61035d565b005b61015e610159366004611531565b610404565b60405161012d91906115f2565b61017e610179366004611605565b6104d0565b60405190815260200161012d565b61014961019a36600461165c565b6105c1565b6101bb6101ad366004611695565b6001600160a01b0316301490565b604051901515815260200161012d565b6067546101de906001600160a01b031681565b6040516001600160a01b03909116815260200161012d565b61017e6102043660046116b2565b6106fc565b6101de6102173660046116cb565b610756565b6066546101de906001600160a01b031681565b61014961023d3660046116ed565b610797565b6101de6102503660046116cb565b61080c565b61017e7fd81bbfcee722494b885e891546eeac23d0eedcd44038d7a2f6ef9ec2f9e0d23981565b6101bb61028a366004611531565b610868565b61014961029d36600461172e565b6108b3565b6101de6102b03660046116b2565b6000908152606560205260409020546001600160a01b031690565b6066546000906001600160a01b03166102e26109e6565b6001600160a01b031614158061030d57506000848152606560205260409020546001600160a01b0316155b1561034b578361031b6109e6565b60405163634afa0d60e01b815260048101929092526001600160a01b031660248201526044015b60405180910390fd5b50630a85bd0160e11b95945050505050565b82826103698282610756565b6001600160a01b031661037a6109e6565b6001600160a01b0316146103ab57604051632cd9b44d60e11b81526004810183905260248101829052604401610342565b60006103b7868661080c565b905060005b878110156103f9576103e78989838181106103d9576103d9611770565b9050602002013583876109f5565b806103f18161179c565b9150506103bc565b505050505050505050565b606060005a9050610416858585610868565b61043357604051638baa579f60e01b815260040160405180910390fd5b6104c56104436020870187611695565b3060408801358461045760608b018b6117b5565b8080601f01602080910402602001604051908101604052809392919081815260200183838082843760009201919091525050604080516020601f8e018190048102820181019092528c815292508c91508b9081908401838280828437600092019190915250610b3092505050565b9150505b9392505050565b6067546000906001600160a01b031663aa271e1a6104ec6109e6565b6040516001600160e01b031960e084901b1681526001600160a01b039091166004820152602401602060405180830381865afa158015610530573d6000803e3d6000fd5b505050506040513d601f19601f8201168201806040525081019061055491906117fc565b158061056f5750306105646109e6565b6001600160a01b0316145b156105a15761057c6109e6565b60405163e2c8c9d560e01b81526001600160a01b039091166004820152602401610342565b60006105ae858585610c11565b90506105b981610e2e565b949350505050565b600054610100900460ff16158080156105e15750600054600160ff909116105b806105fb5750303b1580156105fb575060005460ff166001145b61065e5760405162461bcd60e51b815260206004820152602e60248201527f496e697469616c697a61626c653a20636f6e747261637420697320616c72656160448201526d191e481a5b9a5d1a585b1a5e995960921b6064820152608401610342565b6000805460ff191660011790558015610681576000805461ff0019166101001790555b606680546001600160a01b038086166001600160a01b031992831617909255606780549285169290911691909117905580156106f7576000805461ff0019169055604051600181527f7f26b83ff96e1f2b6a682f133852f6798a09c465da95921460cefb38474024989060200160405180910390a15b505050565b604080517f1ee5d87a048b728f67073f282321992c260e5be4fa651d08665c5b4ee7a83815602082015290810182905260009061074f906060016040516020818303038152906040528051906020012090565b5492915050565b6000808383604051602001610775929190918252602082015260400190565b60408051601f1981840301815291905280516020909101209150505b92915050565b82826107a38282610756565b6001600160a01b03166107b46109e6565b6001600160a01b0316146107e557604051632cd9b44d60e11b81526004810183905260248101829052604401610342565b856107ef81610e2e565b610803876107fd888961080c565b866109f5565b50505050505050565b600080600261081b8585610e4a565b604051610828919061181e565b602060405180830381855afa158015610845573d6000803e3d6000fd5b5050506040513d601f19601f820116820180604052508101906105b9919061183a565b60006105b9610876856118c3565b3085858080601f016020809104026020016040519081016040528093929190818152602001838380828437600092019190915250610ed092505050565b6067546001600160a01b031663aa271e1a6108cc6109e6565b6040516001600160e01b031960e084901b1681526001600160a01b039091166004820152602401602060405180830381865afa158015610910573d6000803e3d6000fd5b505050506040513d601f19601f8201168201806040525081019061093491906117fc565b158061094f5750306109446109e6565b6001600160a01b0316145b1561095c5761057c6109e6565b60005b818110156106f7576109d383838381811061097c5761097c611770565b905060200281019061098e9190611986565b61099c9060208101906117b5565b8585858181106109ae576109ae611770565b90506020028101906109c09190611986565b6109ce906020810190611695565b610c11565b50806109de8161179c565b91505061095f565b60006109f0611019565b905090565b6000838152606560205260409020546001600160a01b03838116911614610a5a57600083815260656020526040908190205490516326995d8360e11b8152600481018590526001600160a01b0391821660248201529083166044820152606401610342565b6000838152606560205260409081902080546001600160a01b03191690556066549051632142170760e11b81523060048201526001600160a01b03838116602483015260448201869052909116906342842e0e90606401600060405180830381600087803b158015610acb57600080fd5b505af1158015610adf573d6000803e3d6000fd5b50505050806001600160a01b0316610af56109e6565b6001600160a01b0316847f9a471856befea1cabcd7fc8a1c4d70ea07b8ed2ee205cc361f932433542ef3fe60405160405180910390a4505050565b6060610b3b85611037565b600080876001600160a01b031686610b558b8a898961109d565b604051610b62919061181e565b60006040518083038160008787f1925050503d8060008114610ba0576040519150601f19603f3d011682016040523d82523d6000602084013e610ba5565b606091505b509092509050610bb6603f876119b2565b5a11610bc457610bc46119c6565b610c0482826040518060400160405280601a81526020017f42617365466f727761726465723a2043414c4c5f4641494c45440000000000008152506110cd565b9998505050505050505050565b6000606060007fd81bbfcee722494b885e891546eeac23d0eedcd44038d7a2f6ef9ec2f9e0d2398686604051602001610c4b9291906119dc565b60405160208183030381529060405280519060200120604051602001610c7b929190918252602082015260400190565b60408051808303601f190181528282528051602090910120600280845260608401909252925060009190816020015b6060815260200190600190039081610caa57905050905086868080601f0160208091040260200160405190810160405280939291908181526020018383808284376000920182905250855186945090925015159050610d0b57610d0b611770565b6020026020010181905250604051806040016040528060038152602001621e9a5b60ea1b81525081600181518110610d4557610d45611770565b60209081029190910181019190915260008381526065909152604080822080546001600160a01b0319166001600160a01b03898116919091179091556067549151635cd7e3b360e01b8152911691635cd7e3b391610dae91309186918991829190600401611a41565b600060405180830381600087803b158015610dc857600080fd5b505af1158015610ddc573d6000803e3d6000fd5b50505050846001600160a01b0316827f08717469d38a4b02325ea6637978c7952f94d3d8fc7848994f618ddbf4d637f18989604051610e1c929190611aa0565b60405180910390a35095945050505050565b303303610e4157610e3e81611106565b50565b610e3e81611037565b6060600082610e5b60016020611acf565b60ff1660208110610e6e57610e6e611770565b1a9050610e7c600282611ae8565b60ff1615610e8b576003610e8e565b60025b84604051602001610eb892919060f89290921b6001600160f81b0319168252600182015260210190565b60405160208183030381529060405291505092915050565b6040838101519051636ccbae5f60e01b8152600481019190915260009081903090636ccbae5f90602401602060405180830381865afa158015610f17573d6000803e3d6000fd5b505050506040513d601f19601f82011682018060405250810190610f3b919061183a565b90506000610fe9866060015180519060200120868860200151604051602001610f899392919092835260609190911b6bffffffffffffffffffffffff19166020830152603482015260540190565b60408051601f1981840301815282825280516020918201207f19457468657265756d205369676e6564204d6573736167653a0a33320000000084830152603c8085019190915282518085039091018152605c909301909152815191012090565b905081866020015114801561100f5750855161100f906001600160a01b03168286611130565b9695505050505050565b600030330361102f575060331936013560601c90565b503390565b90565b604080517f1ee5d87a048b728f67073f282321992c260e5be4fa651d08665c5b4ee7a83815602082015290810182905260009060600160405160208183030381529060405280519060200120905061108c8190565b54611098906001611b0a565b905550565b60608285856040516020016110b493929190611b1d565b6040516020818303038152906040529050949350505050565b606083156110dc5750816104c9565b8251156110ec5782518084602001fd5b8160405162461bcd60e51b815260040161034291906115f2565b61110e611272565b8114610e3e57604051635637b6af60e11b815260048101829052602401610342565b600080600061113f8585611285565b9092509050600081600481111561115857611158611b5c565b1480156111765750856001600160a01b0316826001600160a01b0316145b15611186576001925050506104c9565b600080876001600160a01b0316631626ba7e60e01b88886040516024016111ae929190611b72565b60408051601f198184030181529181526020820180516001600160e01b03166001600160e01b03199094169390931790925290516111ec919061181e565b600060405180830381855afa9150503d8060008114611227576040519150601f19603f3d011682016040523d82523d6000602084013e61122c565b606091505b509150915081801561123f575080516020145b801561126657508051630b135d3f60e11b90611264908301602090810190840161183a565b145b98975050505050505050565b60003033036110345750601f1936013590565b60008082516041036112bb5760208301516040840151606085015160001a6112af878285856112ca565b945094505050506112c3565b506000905060025b9250929050565b6000807f7fffffffffffffffffffffffffffffff5d576e7357a4501ddfe92f46681b20a083111561130157506000905060036113ae565b8460ff16601b1415801561131957508460ff16601c14155b1561132a57506000905060046113ae565b6040805160008082526020820180845289905260ff881692820192909252606081018690526080810185905260019060a0016020604051602081039080840390855afa15801561137e573d6000803e3d6000fd5b5050604051601f1901519150506001600160a01b0381166113a7576000600192509250506113ae565b9150600090505b94509492505050565b6001600160a01b0381168114610e3e57600080fd5b60008083601f8401126113de57600080fd5b50813567ffffffffffffffff8111156113f657600080fd5b6020830191508360208285010111156112c357600080fd5b60008060008060006080868803121561142657600080fd5b8535611431816113b7565b94506020860135611441816113b7565b935060408601359250606086013567ffffffffffffffff81111561146457600080fd5b611470888289016113cc565b969995985093965092949392505050565b60008083601f84011261149357600080fd5b50813567ffffffffffffffff8111156114ab57600080fd5b6020830191508360208260051b85010111156112c357600080fd5b6000806000806000608086880312156114de57600080fd5b853567ffffffffffffffff8111156114f557600080fd5b61150188828901611481565b90965094505060208601359250604086013591506060860135611523816113b7565b809150509295509295909350565b60008060006040848603121561154657600080fd5b833567ffffffffffffffff8082111561155e57600080fd5b908501906080828803121561157257600080fd5b9093506020850135908082111561158857600080fd5b50611595868287016113cc565b9497909650939450505050565b60005b838110156115bd5781810151838201526020016115a5565b50506000910152565b600081518084526115de8160208601602086016115a2565b601f01601f19169290920160200192915050565b6020815260006104c960208301846115c6565b60008060006040848603121561161a57600080fd5b833567ffffffffffffffff81111561163157600080fd5b61163d868287016113cc565b9094509250506020840135611651816113b7565b809150509250925092565b6000806040838503121561166f57600080fd5b823561167a816113b7565b9150602083013561168a816113b7565b809150509250929050565b6000602082840312156116a757600080fd5b81356104c9816113b7565b6000602082840312156116c457600080fd5b5035919050565b600080604083850312156116de57600080fd5b50508035926020909101359150565b6000806000806080858703121561170357600080fd5b8435935060208501359250604085013591506060850135611723816113b7565b939692955090935050565b6000806020838503121561174157600080fd5b823567ffffffffffffffff81111561175857600080fd5b61176485828601611481565b90969095509350505050565b634e487b7160e01b600052603260045260246000fd5b634e487b7160e01b600052601160045260246000fd5b6000600182016117ae576117ae611786565b5060010190565b6000808335601e198436030181126117cc57600080fd5b83018035915067ffffffffffffffff8211156117e757600080fd5b6020019150368190038213156112c357600080fd5b60006020828403121561180e57600080fd5b815180151581146104c957600080fd5b600082516118308184602087016115a2565b9190910192915050565b60006020828403121561184c57600080fd5b5051919050565b634e487b7160e01b600052604160045260246000fd5b6040516080810167ffffffffffffffff8111828210171561188c5761188c611853565b60405290565b604051601f8201601f1916810167ffffffffffffffff811182821017156118bb576118bb611853565b604052919050565b6000608082360312156118d557600080fd5b6118dd611869565b82356118e8816113b7565b81526020838101358183015260408085013590830152606084013567ffffffffffffffff8082111561191957600080fd5b9085019036601f83011261192c57600080fd5b81358181111561193e5761193e611853565b611950601f8201601f19168501611892565b9150808252368482850101111561196657600080fd5b808484018584013760009082019093019290925250606082015292915050565b60008235603e1983360301811261183057600080fd5b634e487b7160e01b600052601260045260246000fd5b6000826119c1576119c161199c565b500490565b634e487b7160e01b600052600160045260246000fd5b8183823760009101908152919050565b600081518084526020808501808196508360051b8101915082860160005b85811015611a34578284038952611a228483516115c6565b98850198935090840190600101611a0a565b5091979650505050505050565b6001600160a01b038616815260a060208201819052600090611a65908301876119ec565b8281036040840152611a7781876119ec565b90508281036060840152611a8b81866119ec565b91505082151560808301529695505050505050565b60208152816020820152818360408301376000818301604090810191909152601f909201601f19160101919050565b60ff828116828216039081111561079157610791611786565b600060ff831680611afb57611afb61199c565b8060ff84160691505092915050565b8082018082111561079157610791611786565b60008451611b2f8184602089016115a2565b60609490941b6bffffffffffffffffffffffff191691909301908152601481019190915260340192915050565b634e487b7160e01b600052602160045260246000fd5b8281526040602082015260006105b960408301846115c656fea164736f6c6343000811000a",
  "linkReferences": {},
  "deployedLinkReferences": {}
}