{
  "_format": "hh-sol-artifact-1",
  "contractName": "ZilliqaRecover",
  "sourceName": "contracts/ZilliqaRecover.sol",
  "abi": [
    {
      "inputs": [],
      "name": "InvalidSignature",
      "type": "error"
    },
    {
      "anonymous": false,
      "inputs": [
        {
          "indexed": false,
          "internalType": "uint256",
          "name": "tokenId",
          "type": "uint256"
        },
        {
          "indexed": false,
          "internalType": "address",
          "name": "oldAddress",
          "type": "address"
        },
        {
          "indexed": false,
          "internalType": "address",
          "name": "newAddress",
          "type": "address"
        }
      ],
      "name": "Claimed",
      "type": "event"
    },
    {
      "anonymous": false,
      "inputs": [
        {
          "indexed": false,
          "internalType": "uint8",
          "name": "version",
          "type": "uint8"
        }
      ],
      "name": "Initialized",
      "type": "event"
    },
    {
      "anonymous": false,
      "inputs": [
        {
          "indexed": true,
          "internalType": "address",
          "name": "previousOwner",
          "type": "address"
        },
        {
          "indexed": true,
          "internalType": "address",
          "name": "newOwner",
          "type": "address"
        }
      ],
      "name": "OwnershipTransferred",
      "type": "event"
    },
    {
      "anonymous": false,
      "inputs": [
        {
          "indexed": false,
          "internalType": "uint256",
          "name": "tokenId",
          "type": "uint256"
        },
        {
          "indexed": false,
          "internalType": "address",
          "name": "zilAddress",
          "type": "address"
        }
      ],
      "name": "ZilOwnership",
      "type": "event"
    },
    {
      "inputs": [],
      "name": "ZIL_NODE",
      "outputs": [
        {
          "internalType": "uint256",
          "name": "",
          "type": "uint256"
        }
      ],
      "stateMutability": "view",
      "type": "function"
    },
    {
      "inputs": [
        {
          "internalType": "uint256",
          "name": "tokenId",
          "type": "uint256"
        },
        {
          "internalType": "bytes",
          "name": "publicKey",
          "type": "bytes"
        },
        {
          "internalType": "address",
          "name": "newOwnerAddress",
          "type": "address"
        }
      ],
      "name": "claim",
      "outputs": [],
      "stateMutability": "nonpayable",
      "type": "function"
    },
    {
      "inputs": [
        {
          "internalType": "uint256[]",
          "name": "tokenIds",
          "type": "uint256[]"
        },
        {
          "internalType": "bytes",
          "name": "publicKey",
          "type": "bytes"
        },
        {
          "internalType": "address",
          "name": "newOwnerAddress",
          "type": "address"
        }
      ],
      "name": "claimAll",
      "outputs": [],
      "stateMutability": "nonpayable",
      "type": "function"
    },
    {
      "inputs": [
        {
          "internalType": "bytes",
          "name": "publicKey",
          "type": "bytes"
        }
      ],
      "name": "compressPublicKey",
      "outputs": [
        {
          "internalType": "bytes",
          "name": "",
          "type": "bytes"
        }
      ],
      "stateMutability": "pure",
      "type": "function"
    },
    {
      "inputs": [
        {
          "internalType": "bytes",
          "name": "publicKey",
          "type": "bytes"
        }
      ],
      "name": "ethAddress",
      "outputs": [
        {
          "internalType": "address",
          "name": "",
          "type": "address"
        }
      ],
      "stateMutability": "pure",
      "type": "function"
    },
    {
      "inputs": [
        {
          "components": [
            {
              "internalType": "address",
              "name": "from",
              "type": "address"
            },
            {
              "internalType": "uint256",
              "name": "nonce",
              "type": "uint256"
            },
            {
              "internalType": "uint256",
              "name": "tokenId",
              "type": "uint256"
            },
            {
              "internalType": "bytes",
              "name": "data",
              "type": "bytes"
            }
          ],
          "internalType": "struct IForwarder.ForwardRequest",
          "name": "req",
          "type": "tuple"
        },
        {
          "internalType": "bytes",
          "name": "signature",
          "type": "bytes"
        }
      ],
      "name": "execute",
      "outputs": [
        {
          "internalType": "bytes",
          "name": "",
          "type": "bytes"
        }
      ],
      "stateMutability": "nonpayable",
      "type": "function"
    },
    {
      "inputs": [
        {
          "internalType": "contract IUNSRegistry",
          "name": "registry_",
          "type": "address"
        },
        {
          "internalType": "contract IMintingManager",
          "name": "mintingManager_",
          "type": "address"
        },
        {
          "internalType": "address",
          "name": "owner",
          "type": "address"
        }
      ],
      "name": "initialize",
      "outputs": [],
      "stateMutability": "nonpayable",
      "type": "function"
    },
    {
      "inputs": [
        {
          "internalType": "address",
          "name": "forwarder",
          "type": "address"
        }
      ],
      "name": "isTrustedForwarder",
      "outputs": [
        {
          "internalType": "bool",
          "name": "",
          "type": "bool"
        }
      ],
      "stateMutability": "view",
      "type": "function"
    },
    {
      "inputs": [
        {
          "internalType": "string",
          "name": "label",
          "type": "string"
        },
        {
          "internalType": "address",
          "name": "zilOwner",
          "type": "address"
        }
      ],
      "name": "mint",
      "outputs": [],
      "stateMutability": "nonpayable",
      "type": "function"
    },
    {
      "inputs": [
        {
          "components": [
            {
              "internalType": "address",
              "name": "zilOwner",
              "type": "address"
            },
            {
              "internalType": "string",
              "name": "label",
              "type": "string"
            }
          ],
          "internalType": "struct ZilliqaRecover.MintingToken[]",
          "name": "tokens",
          "type": "tuple[]"
        }
      ],
      "name": "mintAll",
      "outputs": [],
      "stateMutability": "nonpayable",
      "type": "function"
    },
    {
      "inputs": [],
      "name": "mintingManager",
      "outputs": [
        {
          "internalType": "contract IMintingManager",
          "name": "",
          "type": "address"
        }
      ],
      "stateMutability": "view",
      "type": "function"
    },
    {
      "inputs": [
        {
          "internalType": "uint256",
          "name": "tokenId",
          "type": "uint256"
        }
      ],
      "name": "nonceOf",
      "outputs": [
        {
          "internalType": "uint256",
          "name": "",
          "type": "uint256"
        }
      ],
      "stateMutability": "view",
      "type": "function"
    },
    {
      "inputs": [
        {
          "internalType": "address",
          "name": "",
          "type": "address"
        },
        {
          "internalType": "address",
          "name": "",
          "type": "address"
        },
        {
          "internalType": "uint256",
          "name": "tokenId",
          "type": "uint256"
        },
        {
          "internalType": "bytes",
          "name": "",
          "type": "bytes"
        }
      ],
      "name": "onERC721Received",
      "outputs": [
        {
          "internalType": "bytes4",
          "name": "",
          "type": "bytes4"
        }
      ],
      "stateMutability": "view",
      "type": "function"
    },
    {
      "inputs": [],
      "name": "owner",
      "outputs": [
        {
          "internalType": "address",
          "name": "",
          "type": "address"
        }
      ],
      "stateMutability": "view",
      "type": "function"
    },
    {
      "inputs": [],
      "name": "registry",
      "outputs": [
        {
          "internalType": "contract IUNSRegistry",
          "name": "",
          "type": "address"
        }
      ],
      "stateMutability": "view",
      "type": "function"
    },
    {
      "inputs": [],
      "name": "renounceOwnership",
      "outputs": [],
      "stateMutability": "nonpayable",
      "type": "function"
    },
    {
      "inputs": [
        {
          "internalType": "address",
          "name": "newOwner",
          "type": "address"
        }
      ],
      "name": "transferOwnership",
      "outputs": [],
      "stateMutability": "nonpayable",
      "type": "function"
    },
    {
      "inputs": [
        {
          "components": [
            {
              "internalType": "address",
              "name": "from",
              "type": "address"
            },
            {
              "internalType": "uint256",
              "name": "nonce",
              "type": "uint256"
            },
            {
              "internalType": "uint256",
              "name": "tokenId",
              "type": "uint256"
            },
            {
              "internalType": "bytes",
              "name": "data",
              "type": "bytes"
            }
          ],
          "internalType": "struct IForwarder.ForwardRequest",
          "name": "req",
          "type": "tuple"
        },
        {
          "internalType": "bytes",
          "name": "signature",
          "type": "bytes"
        }
      ],
      "name": "verify",
      "outputs": [
        {
          "internalType": "bool",
          "name": "",
          "type": "bool"
        }
      ],
      "stateMutability": "view",
      "type": "function"
    },
    {
      "inputs": [
        {
          "internalType": "bytes",
          "name": "publicKey",
          "type": "bytes"
        }
      ],
      "name": "zilAddress",
      "outputs": [
        {
          "internalType": "address",
          "name": "",
          "type": "address"
        }
      ],
      "stateMutability": "pure",
      "type": "function"
    },
    {
      "inputs": [
        {
          "internalType": "uint256",
          "name": "tokenId",
          "type": "uint256"
        }
      ],
      "name": "zilOwnerOf",
      "outputs": [
        {
          "internalType": "address",
          "name": "",
          "type": "address"
        }
      ],
      "stateMutability": "view",
      "type": "function"
    }
  ],
  "bytecode": "0x608060405234801561001057600080fd5b50611dab806100206000396000f3fe608060405234801561001057600080fd5b506004361061012c5760003560e01c80638da5cb5b116100ad578063c0c53b8b11610071578063c0c53b8b146102ce578063e1c4b65a146102e1578063f2fde38b146102f4578063fb0e18ec14610307578063fd9987911461032057600080fd5b80638da5cb5b146102505780639c6b9f8a146102585780639e32d3641461026b578063a32ecf6c14610292578063a4247400146102bb57600080fd5b806368555cb3116100f457806368555cb3146101ee5780636889b16e146102015780636ccbae5f14610214578063715018a6146102355780637b1039991461023d57600080fd5b8063150b7a02146101315780631bf7e13e146101625780631c351a9d14610182578063572b6c051461019757806358884432146101c3575b600080fd5b61014461013f3660046114df565b610333565b6040516001600160e01b031990911681526020015b60405180910390f35b610175610170366004611552565b6103ba565b6040516101599190611613565b610195610190366004611626565b610486565b005b6101b36101a536600461167d565b6001600160a01b0316301490565b6040519015158152602001610159565b6067546101d6906001600160a01b031681565b6040516001600160a01b039091168152602001610159565b6101d66101fc366004611751565b61049e565b61017561020f366004611751565b6104f9565b610227610222366004611786565b610592565b604051908152602001610159565b6101956105ec565b6066546101d6906001600160a01b031681565b6101d6610600565b61019561026636600461179f565b61062e565b6102277fd81bbfcee722494b885e891546eeac23d0eedcd44038d7a2f6ef9ec2f9e0d23981565b6101d66102a0366004611786565b6000908152606560205260409020546001600160a01b031690565b6101b36102c9366004611552565b61069f565b6101956102dc3660046117ef565b6106f2565b6101956102ef36600461182f565b61083e565b61019561030236600461167d565b6108ad565b6101d6610315366004611751565b805160209091012090565b61019561032e3660046118a4565b610926565b6000838152606560205260408120546001600160a01b0316156103a85760405162461bcd60e51b815260206004820152602260248201527f5a696c6c6971615265636f7665723a20544f4b454e5f4841535f4e4f5f4f574e60448201526122a960f11b60648201526084015b60405180910390fd5b50630a85bd0160e11b95945050505050565b606060005a90506103cc85858561069f565b6103e957604051638baa579f60e01b815260040160405180910390fd5b61047b6103f9602087018761167d565b3060408801358461040d60608b018b61197c565b8080601f01602080910402602001604051908101604052809392919081815260200183838082843760009201919091525050604080516020601f8e018190048102820181019092528c815292508c91508b90819084018382808284376000920191909152506109cf92505050565b9150505b9392505050565b61048e610ab0565b610499838383610b1f565b505050565b60008060026104ac846104f9565b6040516104b991906119c3565b602060405180830381855afa1580156104d6573d6000803e3d6000fd5b5050506040513d601f19601f8201168201806040525081019061047f91906119df565b60606000610506836119f8565b9050600083600185516105199190611a35565b8151811061052957610529611a4e565b016020015160f81c905061053e600282611a7a565b60ff161561054d576003610550565b60025b8260405160200161057a92919060f89290921b6001600160f81b0319168252600182015260210190565b60405160208183030381529060405292505050919050565b604080517f1ee5d87a048b728f67073f282321992c260e5be4fa651d08665c5b4ee7a8381560208201529081018290526000906105e5906060016040516020818303038152906040528051906020012090565b5492915050565b6105f4610ab0565b6105fe6000610bfd565b565b7fe1b9c5b9c6f25fc6c03fdb76829a7257b1cdb10ff4bc4f62e0a94358c8121905546001600160a01b031690565b8180516040146106505760405162461bcd60e51b815260040161039f90611a9c565b805160208201206001600160a01b0316610668610c79565b6001600160a01b03161461068e5760405162461bcd60e51b815260040161039f90611ae5565b610699848484610c88565b50505050565b60006106ea6106ad85611b3a565b3085858080601f016020809104026020016040519081016040528093929190818152602001838380828437600092019190915250610e1692505050565b949350505050565b600054610100900460ff16158080156107125750600054600160ff909116105b8061072c5750303b15801561072c575060005460ff166001145b61078f5760405162461bcd60e51b815260206004820152602e60248201527f496e697469616c697a61626c653a20636f6e747261637420697320616c72656160448201526d191e481a5b9a5d1a585b1a5e995960921b606482015260840161039f565b6000805460ff1916600117905580156107b2576000805461ff0019166101001790555b606680546001600160a01b038087166001600160a01b03199283161790925560678054928616929091169190911790556107eb82610bfd565b6107f3610f5f565b8015610699576000805461ff0019169055604051600181527f7f26b83ff96e1f2b6a682f133852f6798a09c465da95921460cefb38474024989060200160405180910390a150505050565b610846610ab0565b60005b81811015610499573683838381811061086457610864611a4e565b90506020028101906108769190611bc5565b905061089a610888602083018361197c565b610895602085018561167d565b610b1f565b50806108a581611bdb565b915050610849565b6108b5610ab0565b6001600160a01b03811661091a5760405162461bcd60e51b815260206004820152602660248201527f4f776e61626c653a206e6577206f776e657220697320746865207a65726f206160448201526564647265737360d01b606482015260840161039f565b61092381610bfd565b50565b8180516040146109485760405162461bcd60e51b815260040161039f90611a9c565b805160208201206001600160a01b0316610960610c79565b6001600160a01b0316146109865760405162461bcd60e51b815260040161039f90611ae5565b60005b84518110156109c8576109b68582815181106109a7576109a7611a4e565b60200260200101518585610c88565b806109c081611bdb565b915050610989565b5050505050565b60606109da85610f8e565b600080876001600160a01b0316866109f48b8a8989610ff4565b604051610a0191906119c3565b60006040518083038160008787f1925050503d8060008114610a3f576040519150601f19603f3d011682016040523d82523d6000602084013e610a44565b606091505b509092509050610a55603f87611bf4565b5a11610a6357610a63611c08565b610aa382826040518060400160405280601a81526020017f42617365466f727761726465723a2043414c4c5f4641494c4544000000000000815250611024565b9998505050505050505050565b610ab8610c79565b6001600160a01b0316610ac9610600565b6001600160a01b0316146105fe5760405162461bcd60e51b815260206004820181905260248201527f4f776e61626c653a2063616c6c6572206973206e6f7420746865206f776e6572604482015260640161039f565b6060600080610b6386868080601f01602080910402602001604051908101604052809392919081815260200183838082843760009201919091525061105d92505050565b60008181526065602052604080822080546001600160a01b0319166001600160a01b038a8116919091179091556067549151635cd7e3b360e01b815294965092945090911691635cd7e3b391610bc3913091879189918291600401611c73565b600060405180830381600087803b158015610bdd57600080fd5b505af1158015610bf1573d6000803e3d6000fd5b50505050505050505050565b6000610c07610600565b9050817fe1b9c5b9c6f25fc6c03fdb76829a7257b1cdb10ff4bc4f62e0a94358c812190580546001600160a01b0319166001600160a01b03928316179055604051838216918316907f8be0079c531659141344cd1fd0a4f28419497f9722a3daafe3b4186f6b6457e090600090a35050565b6000610c836111b2565b905090565b610c918261049e565b6001600160a01b0316610cb9846000908152606560205260409020546001600160a01b031690565b6001600160a01b031614610d245760405162461bcd60e51b815260206004820152602c60248201527f5a696c6c6971615265636f7665723a20544f4b454e5f4f574e45445f42595f4f60448201526b544845525f4144445245535360a01b606482015260840161039f565b600083815260656020526040902080546001600160a01b03191690556066546001600160a01b031615610dbe57606654604051632142170760e11b81523060048201526001600160a01b03838116602483015260448201869052909116906342842e0e90606401600060405180830381600087803b158015610da557600080fd5b505af1158015610db9573d6000803e3d6000fd5b505050505b7f3c75fca1decf7e281012586b8fab4c62d1e876fc95d6d0335723cd6ea5bba73a83610de8610c79565b604080519283526001600160a01b0391821660208401529084169082015260600160405180910390a1505050565b6040838101519051636ccbae5f60e01b8152600481019190915260009081903090636ccbae5f90602401602060405180830381865afa158015610e5d573d6000803e3d6000fd5b505050506040513d601f19601f82011682018060405250810190610e8191906119df565b90506000610f2f866060015180519060200120868860200151604051602001610ecf9392919092835260609190911b6bffffffffffffffffffffffff19166020830152603482015260540190565b60408051601f1981840301815282825280516020918201207f19457468657265756d205369676e6564204d6573736167653a0a33320000000084830152603c8085019190915282518085039091018152605c909301909152815191012090565b9050818660200151148015610f5557508551610f55906001600160a01b031682866111cd565b9695505050505050565b600054610100900460ff16610f865760405162461bcd60e51b815260040161039f90611cd2565b6105fe61130f565b604080517f1ee5d87a048b728f67073f282321992c260e5be4fa651d08665c5b4ee7a838156020820152908101829052600090606001604051602081830303815290604052805190602001209050610fe38190565b54610fef906001611d1d565b905550565b606082858560405160200161100b93929190611d30565b6040516020818303038152906040529050949350505050565b6060831561103357508161047f565b8251156110435782518084602001fd5b8160405162461bcd60e51b815260040161039f9190611613565b6060600082516000036110b25760405162461bcd60e51b815260206004820152601b60248201527f5a696c6c6971615265636f7665723a204c4142454c5f454d5054590000000000604482015260640161039f565b7fd81bbfcee722494b885e891546eeac23d0eedcd44038d7a2f6ef9ec2f9e0d239836040516020016110e491906119c3565b60405160208183030381529060405280519060200120604051602001611114929190918252602082015260400190565b60408051601f198184030181528282528051602091820120600280855260608501909352935082015b606081526020019060019003908161113d579050509150828260008151811061116857611168611a4e565b6020026020010181905250604051806040016040528060038152602001621e9a5b60ea1b815250826001815181106111a2576111a2611a4e565b6020026020010181905250915091565b60003033036111c8575060331936013560601c90565b503390565b60008060006111dc8585611346565b909250905060008160048111156111f5576111f5611d6f565b1480156112135750856001600160a01b0316826001600160a01b0316145b156112235760019250505061047f565b600080876001600160a01b0316631626ba7e60e01b888860405160240161124b929190611d85565b60408051601f198184030181529181526020820180516001600160e01b03166001600160e01b031990941693909317909252905161128991906119c3565b600060405180830381855afa9150503d80600081146112c4576040519150601f19603f3d011682016040523d82523d6000602084013e6112c9565b606091505b50915091508180156112dc575080516020145b801561130357508051630b135d3f60e11b9061130190830160209081019084016119df565b145b98975050505050505050565b600054610100900460ff166113365760405162461bcd60e51b815260040161039f90611cd2565b6105fe611341610c79565b610bfd565b600080825160410361137c5760208301516040840151606085015160001a6113708782858561138b565b94509450505050611384565b506000905060025b9250929050565b6000807f7fffffffffffffffffffffffffffffff5d576e7357a4501ddfe92f46681b20a08311156113c2575060009050600361146f565b8460ff16601b141580156113da57508460ff16601c14155b156113eb575060009050600461146f565b6040805160008082526020820180845289905260ff881692820192909252606081018690526080810185905260019060a0016020604051602081039080840390855afa15801561143f573d6000803e3d6000fd5b5050604051601f1901519150506001600160a01b0381166114685760006001925092505061146f565b9150600090505b94509492505050565b6001600160a01b038116811461092357600080fd5b803561149881611478565b919050565b60008083601f8401126114af57600080fd5b50813567ffffffffffffffff8111156114c757600080fd5b60208301915083602082850101111561138457600080fd5b6000806000806000608086880312156114f757600080fd5b853561150281611478565b9450602086013561151281611478565b935060408601359250606086013567ffffffffffffffff81111561153557600080fd5b6115418882890161149d565b969995985093965092949392505050565b60008060006040848603121561156757600080fd5b833567ffffffffffffffff8082111561157f57600080fd5b908501906080828803121561159357600080fd5b909350602085013590808211156115a957600080fd5b506115b68682870161149d565b9497909650939450505050565b60005b838110156115de5781810151838201526020016115c6565b50506000910152565b600081518084526115ff8160208601602086016115c3565b601f01601f19169290920160200192915050565b60208152600061047f60208301846115e7565b60008060006040848603121561163b57600080fd5b833567ffffffffffffffff81111561165257600080fd5b61165e8682870161149d565b909450925050602084013561167281611478565b809150509250925092565b60006020828403121561168f57600080fd5b813561047f81611478565b634e487b7160e01b600052604160045260246000fd5b604051601f8201601f1916810167ffffffffffffffff811182821017156116d9576116d961169a565b604052919050565b600082601f8301126116f257600080fd5b813567ffffffffffffffff81111561170c5761170c61169a565b61171f601f8201601f19166020016116b0565b81815284602083860101111561173457600080fd5b816020850160208301376000918101602001919091529392505050565b60006020828403121561176357600080fd5b813567ffffffffffffffff81111561177a57600080fd5b6106ea848285016116e1565b60006020828403121561179857600080fd5b5035919050565b6000806000606084860312156117b457600080fd5b83359250602084013567ffffffffffffffff8111156117d257600080fd5b6117de868287016116e1565b925050604084013561167281611478565b60008060006060848603121561180457600080fd5b833561180f81611478565b9250602084013561181f81611478565b9150604084013561167281611478565b6000806020838503121561184257600080fd5b823567ffffffffffffffff8082111561185a57600080fd5b818501915085601f83011261186e57600080fd5b81358181111561187d57600080fd5b8660208260051b850101111561189257600080fd5b60209290920196919550909350505050565b6000806000606084860312156118b957600080fd5b833567ffffffffffffffff808211156118d157600080fd5b818601915086601f8301126118e557600080fd5b81356020828211156118f9576118f961169a565b8160051b6119088282016116b0565b928352848101820192828101908b85111561192257600080fd5b958301955b8487101561194057863582529583019590830190611927565b985050508701359250508082111561195757600080fd5b50611964868287016116e1565b9250506119736040850161148d565b90509250925092565b6000808335601e1984360301811261199357600080fd5b83018035915067ffffffffffffffff8211156119ae57600080fd5b60200191503681900382131561138457600080fd5b600082516119d58184602087016115c3565b9190910192915050565b6000602082840312156119f157600080fd5b5051919050565b80516020808301519190811015611a19576000198160200360031b1b821691505b50919050565b634e487b7160e01b600052601160045260246000fd5b81810381811115611a4857611a48611a1f565b92915050565b634e487b7160e01b600052603260045260246000fd5b634e487b7160e01b600052601260045260246000fd5b600060ff831680611a8d57611a8d611a64565b8060ff84160691505092915050565b60208082526029908201527f5a696c6c6971615265636f7665723a205055424c49435f4b45595f4c454e47546040820152681217d253959053125160ba1b606082015260800190565b60208082526035908201527f5a696c6c6971615265636f7665723a205055424c49435f4b45595f444f454e546040820152745f4d415443485f53454e4445525f4144445245535360581b606082015260800190565b600060808236031215611b4c57600080fd5b6040516080810167ffffffffffffffff8282108183111715611b7057611b7061169a565b8160405284359150611b8182611478565b81835260208501356020840152604085013560408401526060850135915080821115611bac57600080fd5b50611bb9368286016116e1565b60608301525092915050565b60008235603e198336030181126119d557600080fd5b600060018201611bed57611bed611a1f565b5060010190565b600082611c0357611c03611a64565b500490565b634e487b7160e01b600052600160045260246000fd5b600081518084526020808501808196508360051b8101915082860160005b85811015611c66578284038952611c548483516115e7565b98850198935090840190600101611c3c565b5091979650505050505050565b6001600160a01b038616815260a060208201819052600090611c9790830187611c1e565b8281036040840152611ca98187611c1e565b90508281036060840152611cbd8186611c1e565b91505082151560808301529695505050505050565b6020808252602b908201527f496e697469616c697a61626c653a20636f6e7472616374206973206e6f74206960408201526a6e697469616c697a696e6760a81b606082015260800190565b80820180821115611a4857611a48611a1f565b60008451611d428184602089016115c3565b60609490941b6bffffffffffffffffffffffff191691909301908152601481019190915260340192915050565b634e487b7160e01b600052602160045260246000fd5b8281526040602082015260006106ea60408301846115e756fea164736f6c6343000811000a",
  "linkReferences": {},
  "deployedLinkReferences": {}
}