{
  "_format": "hh-sol-artifact-1",
  "contractName": "ZilliqaRecover",
  "sourceName": "contracts/ZilliqaRecover.sol",
  "abi": [
    {
      "inputs": [],
      "name": "InvalidSignature",
      "type": "error"
    },
    {
      "anonymous": false,
      "inputs": [
        {
          "indexed": false,
          "internalType": "uint256",
          "name": "tokenId",
          "type": "uint256"
        },
        {
          "indexed": false,
          "internalType": "address",
          "name": "oldAddress",
          "type": "address"
        },
        {
          "indexed": false,
          "internalType": "address",
          "name": "newAddress",
          "type": "address"
        }
      ],
      "name": "Claimed",
      "type": "event"
    },
    {
      "anonymous": false,
      "inputs": [
        {
          "indexed": false,
          "internalType": "uint8",
          "name": "version",
          "type": "uint8"
        }
      ],
      "name": "Initialized",
      "type": "event"
    },
    {
      "anonymous": false,
      "inputs": [
        {
          "indexed": true,
          "internalType": "address",
          "name": "previousOwner",
          "type": "address"
        },
        {
          "indexed": true,
          "internalType": "address",
          "name": "newOwner",
          "type": "address"
        }
      ],
      "name": "OwnershipTransferred",
      "type": "event"
    },
    {
      "anonymous": false,
      "inputs": [
        {
          "indexed": false,
          "internalType": "uint256",
          "name": "tokenId",
          "type": "uint256"
        },
        {
          "indexed": false,
          "internalType": "address",
          "name": "zilAddress",
          "type": "address"
        }
      ],
      "name": "ZilOwnership",
      "type": "event"
    },
    {
      "inputs": [
        {
          "internalType": "uint256",
          "name": "tokenId",
          "type": "uint256"
        },
        {
          "internalType": "bytes",
          "name": "publicKey",
          "type": "bytes"
        },
        {
          "internalType": "address",
          "name": "newOwnerAddress",
          "type": "address"
        }
      ],
      "name": "claim",
      "outputs": [],
      "stateMutability": "nonpayable",
      "type": "function"
    },
    {
      "inputs": [
        {
          "internalType": "uint256[]",
          "name": "tokenIds",
          "type": "uint256[]"
        },
        {
          "internalType": "bytes",
          "name": "publicKey",
          "type": "bytes"
        },
        {
          "internalType": "address",
          "name": "newOwnerAddress",
          "type": "address"
        }
      ],
      "name": "claimAll",
      "outputs": [],
      "stateMutability": "nonpayable",
      "type": "function"
    },
    {
      "inputs": [
        {
          "internalType": "bytes",
          "name": "publicKey",
          "type": "bytes"
        }
      ],
      "name": "compressPublicKey",
      "outputs": [
        {
          "internalType": "bytes",
          "name": "",
          "type": "bytes"
        }
      ],
      "stateMutability": "pure",
      "type": "function"
    },
    {
      "inputs": [
        {
          "internalType": "bytes",
          "name": "publicKey",
          "type": "bytes"
        }
      ],
      "name": "ethAddress",
      "outputs": [
        {
          "internalType": "address",
          "name": "",
          "type": "address"
        }
      ],
      "stateMutability": "pure",
      "type": "function"
    },
    {
      "inputs": [
        {
          "internalType": "uint256",
          "name": "tokenId",
          "type": "uint256"
        },
        {
          "internalType": "bytes",
          "name": "publicKey",
          "type": "bytes"
        }
      ],
      "name": "ethSignedMessage",
      "outputs": [
        {
          "internalType": "bytes32",
          "name": "",
          "type": "bytes32"
        }
      ],
      "stateMutability": "view",
      "type": "function"
    },
    {
      "inputs": [
        {
          "components": [
            {
              "internalType": "address",
              "name": "from",
              "type": "address"
            },
            {
              "internalType": "uint256",
              "name": "nonce",
              "type": "uint256"
            },
            {
              "internalType": "uint256",
              "name": "tokenId",
              "type": "uint256"
            },
            {
              "internalType": "bytes",
              "name": "data",
              "type": "bytes"
            }
          ],
          "internalType": "struct IForwarder.ForwardRequest",
          "name": "req",
          "type": "tuple"
        },
        {
          "internalType": "bytes",
          "name": "signature",
          "type": "bytes"
        }
      ],
      "name": "execute",
      "outputs": [
        {
          "internalType": "bytes",
          "name": "",
          "type": "bytes"
        }
      ],
      "stateMutability": "nonpayable",
      "type": "function"
    },
    {
      "inputs": [
        {
          "internalType": "contract IUNSRegistry",
          "name": "registry_",
          "type": "address"
        },
        {
          "internalType": "address",
          "name": "owner",
          "type": "address"
        }
      ],
      "name": "initialize",
      "outputs": [],
      "stateMutability": "nonpayable",
      "type": "function"
    },
    {
      "inputs": [
        {
          "internalType": "address",
          "name": "forwarder",
          "type": "address"
        }
      ],
      "name": "isTrustedForwarder",
      "outputs": [
        {
          "internalType": "bool",
          "name": "",
          "type": "bool"
        }
      ],
      "stateMutability": "view",
      "type": "function"
    },
    {
      "inputs": [
        {
          "internalType": "uint256",
          "name": "tokenId",
          "type": "uint256"
        },
        {
          "internalType": "bytes",
          "name": "publicKey",
          "type": "bytes"
        }
      ],
      "name": "message",
      "outputs": [
        {
          "internalType": "bytes32",
          "name": "",
          "type": "bytes32"
        }
      ],
      "stateMutability": "view",
      "type": "function"
    },
    {
      "inputs": [],
      "name": "msgSender",
      "outputs": [
        {
          "internalType": "address",
          "name": "",
          "type": "address"
        }
      ],
      "stateMutability": "view",
      "type": "function"
    },
    {
      "inputs": [
        {
          "internalType": "uint256",
          "name": "tokenId",
          "type": "uint256"
        }
      ],
      "name": "nonceOf",
      "outputs": [
        {
          "internalType": "uint256",
          "name": "",
          "type": "uint256"
        }
      ],
      "stateMutability": "view",
      "type": "function"
    },
    {
      "inputs": [
        {
          "internalType": "address",
          "name": "",
          "type": "address"
        },
        {
          "internalType": "address",
          "name": "",
          "type": "address"
        },
        {
          "internalType": "uint256",
          "name": "tokenId",
          "type": "uint256"
        },
        {
          "internalType": "bytes",
          "name": "",
          "type": "bytes"
        }
      ],
      "name": "onERC721Received",
      "outputs": [
        {
          "internalType": "bytes4",
          "name": "",
          "type": "bytes4"
        }
      ],
      "stateMutability": "view",
      "type": "function"
    },
    {
      "inputs": [],
      "name": "owner",
      "outputs": [
        {
          "internalType": "address",
          "name": "",
          "type": "address"
        }
      ],
      "stateMutability": "view",
      "type": "function"
    },
    {
      "inputs": [
        {
          "internalType": "uint256",
          "name": "tokenId",
          "type": "uint256"
        },
        {
          "internalType": "bytes",
          "name": "publicKey",
          "type": "bytes"
        },
        {
          "internalType": "bytes",
          "name": "signature",
          "type": "bytes"
        }
      ],
      "name": "recover1",
      "outputs": [
        {
          "internalType": "address",
          "name": "recovered",
          "type": "address"
        },
        {
          "internalType": "enum ECDSAUpgradeable.RecoverError",
          "name": "error",
          "type": "uint8"
        }
      ],
      "stateMutability": "view",
      "type": "function"
    },
    {
      "inputs": [],
      "name": "registry",
      "outputs": [
        {
          "internalType": "contract IUNSRegistry",
          "name": "",
          "type": "address"
        }
      ],
      "stateMutability": "view",
      "type": "function"
    },
    {
      "inputs": [],
      "name": "renounceOwnership",
      "outputs": [],
      "stateMutability": "nonpayable",
      "type": "function"
    },
    {
      "inputs": [
        {
          "internalType": "uint256[]",
          "name": "tokenIds",
          "type": "uint256[]"
        },
        {
          "internalType": "address",
          "name": "owner",
          "type": "address"
        }
      ],
      "name": "setZilOwner",
      "outputs": [],
      "stateMutability": "nonpayable",
      "type": "function"
    },
    {
      "inputs": [
        {
          "internalType": "address",
          "name": "newOwner",
          "type": "address"
        }
      ],
      "name": "transferOwnership",
      "outputs": [],
      "stateMutability": "nonpayable",
      "type": "function"
    },
    {
      "inputs": [
        {
          "components": [
            {
              "internalType": "address",
              "name": "from",
              "type": "address"
            },
            {
              "internalType": "uint256",
              "name": "nonce",
              "type": "uint256"
            },
            {
              "internalType": "uint256",
              "name": "tokenId",
              "type": "uint256"
            },
            {
              "internalType": "bytes",
              "name": "data",
              "type": "bytes"
            }
          ],
          "internalType": "struct IForwarder.ForwardRequest",
          "name": "req",
          "type": "tuple"
        },
        {
          "internalType": "bytes",
          "name": "signature",
          "type": "bytes"
        }
      ],
      "name": "verify",
      "outputs": [
        {
          "internalType": "bool",
          "name": "",
          "type": "bool"
        }
      ],
      "stateMutability": "view",
      "type": "function"
    },
    {
      "inputs": [
        {
          "internalType": "uint256",
          "name": "tokenId",
          "type": "uint256"
        },
        {
          "internalType": "bytes",
          "name": "publicKey",
          "type": "bytes"
        },
        {
          "internalType": "bytes",
          "name": "signature",
          "type": "bytes"
        }
      ],
      "name": "verify1",
      "outputs": [
        {
          "internalType": "bool",
          "name": "",
          "type": "bool"
        }
      ],
      "stateMutability": "view",
      "type": "function"
    },
    {
      "inputs": [
        {
          "internalType": "bytes",
          "name": "publicKey",
          "type": "bytes"
        }
      ],
      "name": "zilAddress",
      "outputs": [
        {
          "internalType": "address",
          "name": "",
          "type": "address"
        }
      ],
      "stateMutability": "pure",
      "type": "function"
    },
    {
      "inputs": [
        {
          "internalType": "uint256",
          "name": "tokenId",
          "type": "uint256"
        }
      ],
      "name": "zilOwnerOf",
      "outputs": [
        {
          "internalType": "address",
          "name": "",
          "type": "address"
        }
      ],
      "stateMutability": "view",
      "type": "function"
    }
  ],
  "bytecode": "0x608060405234801561001057600080fd5b50611ba9806100206000396000f3fe608060405234801561001057600080fd5b50600436106101425760003560e01c80638da5cb5b116100b8578063a3a1cd971161007c578063a3a1cd9714610316578063a424740014610329578063d737d0c71461033c578063f2fde38b14610342578063fb0e18ec14610355578063fd9987911461036e57600080fd5b80638da5cb5b146102ac578063909f8e43146102b4578063939f59fe146102c75780639c6b9f8a146102da578063a32ecf6c146102ed57600080fd5b806368555cb31161010a57806368555cb31461021f5780636889b16e1461024a5780636ccbae5f1461025d578063704625ed1461027e578063715018a6146102915780637b1039991461029957600080fd5b8063150b7a02146101475780631bf7e13e14610178578063485cc95514610198578063572b6c05146101ad5780635b1e0f00146101fe575b600080fd5b61015a610155366004611377565b610381565b6040516001600160e01b031990911681526020015b60405180910390f35b61018b6101863660046113e9565b610407565b60405161016f91906114a9565b6101ab6101a63660046114bc565b6104d3565b005b6101ee6101bb3660046114f5565b7f893ef2ea16c023f61d4f55d3e6ee3fc3f2fbfd478461323dbc2fbf919047086e546001600160a01b0390811691161490565b604051901515815260200161016f565b61021161020c3660046115c7565b61060b565b60405161016f929190611649565b61023261022d366004611684565b61062d565b6040516001600160a01b03909116815260200161016f565b61018b610258366004611684565b610688565b61027061026b3660046116b8565b610727565b60405190815260200161016f565b61027061028c3660046116d1565b610781565b6101ab61079e565b603454610232906001600160a01b031681565b6102326107b2565b6102706102c23660046116d1565b6107e0565b6101ee6102d53660046115c7565b610815565b6101ab6102e8366004611717565b61089a565b6102326102fb3660046116b8565b6000908152603360205260409020546001600160a01b031690565b6101ab6103243660046117f0565b6108e4565b6101ee6103373660046113e9565b6109bf565b33610232565b6101ab6103503660046114f5565b610a12565b610232610363366004611684565b805160209091012090565b6101ab61037c366004611836565b610a8b565b6000838152603360205260408120546001600160a01b03166103f55760405162461bcd60e51b815260206004820152602260248201527f5a696c6c6971615265636f7665723a20544f4b454e5f4841535f4e4f5f4f574e60448201526122a960f11b60648201526084015b60405180910390fd5b50630a85bd0160e11b95945050505050565b606060005a90506104198585856109bf565b61043657604051638baa579f60e01b815260040160405180910390fd5b6104c861044660208701876114f5565b3060408801358461045a60608b018b611891565b8080601f01602080910402602001604051908101604052809392919081815260200183838082843760009201919091525050604080516020601f8e018190048102820181019092528c815292508c91508b9081908401838280828437600092019190915250610b0d92505050565b9150505b9392505050565b600054610100900460ff16158080156104f35750600054600160ff909116105b8061050d5750303b15801561050d575060005460ff166001145b6105705760405162461bcd60e51b815260206004820152602e60248201527f496e697469616c697a61626c653a20636f6e747261637420697320616c72656160448201526d191e481a5b9a5d1a585b1a5e995960921b60648201526084016103ec565b6000805460ff191660011790558015610593576000805461ff0019166101001790555b603480546001600160a01b0319166001600160a01b0385161790556105b782610bee565b6105bf610c6a565b8015610606576000805461ff0019169055604051600181527f7f26b83ff96e1f2b6a682f133852f6798a09c465da95921460cefb3847402498906020015b60405180910390a15b505050565b60008061062161061b8686610781565b84610c99565b91509150935093915050565b600080600261063b84610688565b60405161064891906118d7565b602060405180830381855afa158015610665573d6000803e3d6000fd5b5050506040513d601f19601f820116820180604052508101906104cc91906118f3565b606060006106958361190c565b9050600083600185516106a89190611949565b815181106106b8576106b861195c565b016020015160f81c905060006106cf600283611988565b60ff16159050806106e15760036106e4565b60025b8360405160200161070e92919060f89290921b6001600160f81b0319168252600182015260210190565b6040516020818303038152906040529350505050919050565b604080517f1ee5d87a048b728f67073f282321992c260e5be4fa651d08665c5b4ee7a83815602082015290810182905260009061077a906060016040516020818303038152906040528051906020012090565b5492915050565b600061079561079084846107e0565b610cde565b90505b92915050565b6107a6610d31565b6107b06000610bee565b565b7fe1b9c5b9c6f25fc6c03fdb76829a7257b1cdb10ff4bc4f62e0a94358c8121905546001600160a01b031690565b60004683836040516020016107f7939291906119aa565b60405160208183030381529060405280519060200120905092915050565b600080600061082586868661060b565b9092509050600081600481111561083e5761083e611633565b1480156108625750845160208601206001600160a01b0316826001600160a01b0316145b801561089057506108728561062d565b6000878152603360205260409020546001600160a01b039081169116145b9695505050505050565b8151602083012082906001600160a01b0316336001600160a01b0316146108d35760405162461bcd60e51b81526004016103ec906119d7565b6108de848484610d90565b50505050565b6108ec610d31565b60005b825181101561060657816033600085848151811061090f5761090f61195c565b6020026020010151815260200190815260200160002060006101000a8154816001600160a01b0302191690836001600160a01b031602179055507f65ee84af14b46d8bb3abef3f56f7107af27311b5eca54c8acf3441176fab166d83828151811061097c5761097c61195c565b6020026020010151836040516109a59291909182526001600160a01b0316602082015260400190565b60405180910390a1806109b781611a19565b9150506108ef565b6000610a0a6109cd85611a32565b3085858080601f016020809104026020016040519081016040528093929190818152602001838380828437600092019190915250610ef992505050565b949350505050565b610a1a610d31565b6001600160a01b038116610a7f5760405162461bcd60e51b815260206004820152602660248201527f4f776e61626c653a206e6577206f776e657220697320746865207a65726f206160448201526564647265737360d01b60648201526084016103ec565b610a8881610bee565b50565b8151602083012082906001600160a01b0316336001600160a01b031614610ac45760405162461bcd60e51b81526004016103ec906119d7565b60005b8451811015610b0657610af4858281518110610ae557610ae561195c565b60200260200101518585610d90565b80610afe81611a19565b915050610ac7565b5050505050565b6060610b1885610ff3565b600080876001600160a01b031686610b328b8a8989611059565b604051610b3f91906118d7565b60006040518083038160008787f1925050503d8060008114610b7d576040519150601f19603f3d011682016040523d82523d6000602084013e610b82565b606091505b509092509050610b93603f87611abc565b5a11610ba157610ba1611ad0565b610be182826040518060400160405280601a81526020017f42617365466f727761726465723a2043414c4c5f4641494c4544000000000000815250611089565b9998505050505050505050565b6000610bf86107b2565b9050817fe1b9c5b9c6f25fc6c03fdb76829a7257b1cdb10ff4bc4f62e0a94358c812190580546001600160a01b0319166001600160a01b03928316179055604051838216918316907f8be0079c531659141344cd1fd0a4f28419497f9722a3daafe3b4186f6b6457e090600090a35050565b600054610100900460ff16610c915760405162461bcd60e51b81526004016103ec90611ae6565b6107b06110c2565b6000808251604103610ccf5760208301516040840151606085015160001a610cc3878285856110f2565b94509450505050610cd7565b506000905060025b9250929050565b6040517f19457468657265756d205369676e6564204d6573736167653a0a3332000000006020820152603c8101829052600090605c01604051602081830303815290604052805190602001209050919050565b33610d3a6107b2565b6001600160a01b0316146107b05760405162461bcd60e51b815260206004820181905260248201527f4f776e61626c653a2063616c6c6572206973206e6f7420746865206f776e657260448201526064016103ec565b610d998261062d565b6000848152603360205260409020546001600160a01b03908116911614610e175760405162461bcd60e51b815260206004820152602c60248201527f5a696c6c6971615265636f7665723a20544f4b454e5f4f574e45445f42595f4f60448201526b544845525f4144445245535360a01b60648201526084016103ec565b600083815260336020526040902080546001600160a01b03191690556034546001600160a01b031615610eb157603454604051632142170760e11b81523060048201526001600160a01b03838116602483015260448201869052909116906342842e0e90606401600060405180830381600087803b158015610e9857600080fd5b505af1158015610eac573d6000803e3d6000fd5b505050505b604080518481523360208201526001600160a01b038316918101919091527f3c75fca1decf7e281012586b8fab4c62d1e876fc95d6d0335723cd6ea5bba73a906060016105fd565b6040838101519051636ccbae5f60e01b8152600481019190915260009081903090636ccbae5f90602401602060405180830381865afa158015610f40573d6000803e3d6000fd5b505050506040513d601f19601f82011682018060405250810190610f6491906118f3565b90506000610fcd866060015180519060200120868860200151604051602001610fb29392919092835260609190911b6bffffffffffffffffffffffff19166020830152603482015260540190565b60405160208183030381529060405280519060200120610cde565b905081866020015114801561089057508551610890906001600160a01b031682866111df565b604080517f1ee5d87a048b728f67073f282321992c260e5be4fa651d08665c5b4ee7a8381560208201529081018290526000906060016040516020818303038152906040528051906020012090506110488190565b54611054906001611b31565b905550565b606082858560405160200161107093929190611b44565b6040516020818303038152906040529050949350505050565b606083156110985750816104cc565b8251156110a85782518084602001fd5b8160405162461bcd60e51b81526004016103ec91906114a9565b600054610100900460ff166110e95760405162461bcd60e51b81526004016103ec90611ae6565b6107b033610bee565b6000807f7fffffffffffffffffffffffffffffff5d576e7357a4501ddfe92f46681b20a083111561112957506000905060036111d6565b8460ff16601b1415801561114157508460ff16601c14155b1561115257506000905060046111d6565b6040805160008082526020820180845289905260ff881692820192909252606081018690526080810185905260019060a0016020604051602081039080840390855afa1580156111a6573d6000803e3d6000fd5b5050604051601f1901519150506001600160a01b0381166111cf576000600192509250506111d6565b9150600090505b94509492505050565b60008060006111ee8585610c99565b9092509050600081600481111561120757611207611633565b1480156112255750856001600160a01b0316826001600160a01b0316145b15611235576001925050506104cc565b600080876001600160a01b0316631626ba7e60e01b888860405160240161125d929190611b83565b60408051601f198184030181529181526020820180516001600160e01b03166001600160e01b031990941693909317909252905161129b91906118d7565b600060405180830381855afa9150503d80600081146112d6576040519150601f19603f3d011682016040523d82523d6000602084013e6112db565b606091505b50915091508180156112ee575080516020145b801561131557508051630b135d3f60e11b9061131390830160209081019084016118f3565b145b98975050505050505050565b6001600160a01b0381168114610a8857600080fd5b60008083601f84011261134857600080fd5b5081356001600160401b0381111561135f57600080fd5b602083019150836020828501011115610cd757600080fd5b60008060008060006080868803121561138f57600080fd5b853561139a81611321565b945060208601356113aa81611321565b93506040860135925060608601356001600160401b038111156113cc57600080fd5b6113d888828901611336565b969995985093965092949392505050565b6000806000604084860312156113fe57600080fd5b83356001600160401b038082111561141557600080fd5b908501906080828803121561142957600080fd5b9093506020850135908082111561143f57600080fd5b5061144c86828701611336565b9497909650939450505050565b60005b8381101561147457818101518382015260200161145c565b50506000910152565b60008151808452611495816020860160208601611459565b601f01601f19169290920160200192915050565b602081526000610795602083018461147d565b600080604083850312156114cf57600080fd5b82356114da81611321565b915060208301356114ea81611321565b809150509250929050565b60006020828403121561150757600080fd5b81356104cc81611321565b634e487b7160e01b600052604160045260246000fd5b604051601f8201601f191681016001600160401b038111828210171561155057611550611512565b604052919050565b600082601f83011261156957600080fd5b81356001600160401b0381111561158257611582611512565b611595601f8201601f1916602001611528565b8181528460208386010111156115aa57600080fd5b816020850160208301376000918101602001919091529392505050565b6000806000606084860312156115dc57600080fd5b8335925060208401356001600160401b03808211156115fa57600080fd5b61160687838801611558565b9350604086013591508082111561161c57600080fd5b5061162986828701611558565b9150509250925092565b634e487b7160e01b600052602160045260246000fd5b6001600160a01b0383168152604081016005831061167757634e487b7160e01b600052602160045260246000fd5b8260208301529392505050565b60006020828403121561169657600080fd5b81356001600160401b038111156116ac57600080fd5b610a0a84828501611558565b6000602082840312156116ca57600080fd5b5035919050565b600080604083850312156116e457600080fd5b8235915060208301356001600160401b0381111561170157600080fd5b61170d85828601611558565b9150509250929050565b60008060006060848603121561172c57600080fd5b8335925060208401356001600160401b0381111561174957600080fd5b61175586828701611558565b925050604084013561176681611321565b809150509250925092565b600082601f83011261178257600080fd5b813560206001600160401b0382111561179d5761179d611512565b8160051b6117ac828201611528565b92835284810182019282810190878511156117c657600080fd5b83870192505b848310156117e5578235825291830191908301906117cc565b979650505050505050565b6000806040838503121561180357600080fd5b82356001600160401b0381111561181957600080fd5b61182585828601611771565b92505060208301356114ea81611321565b60008060006060848603121561184b57600080fd5b83356001600160401b038082111561186257600080fd5b61186e87838801611771565b9450602086013591508082111561188457600080fd5b5061175586828701611558565b6000808335601e198436030181126118a857600080fd5b8301803591506001600160401b038211156118c257600080fd5b602001915036819003821315610cd757600080fd5b600082516118e9818460208701611459565b9190910192915050565b60006020828403121561190557600080fd5b5051919050565b8051602080830151919081101561192d576000198160200360031b1b821691505b50919050565b634e487b7160e01b600052601160045260246000fd5b8181038181111561079857610798611933565b634e487b7160e01b600052603260045260246000fd5b634e487b7160e01b600052601260045260246000fd5b600060ff83168061199b5761199b611972565b8060ff84160691505092915050565b838152826020820152600082516119c8816040850160208701611459565b91909101604001949350505050565b60208082526022908201527f5a696c6c6971615265636f7665723a205055424c49435f4b45595f494e56414c604082015261125160f21b606082015260800190565b600060018201611a2b57611a2b611933565b5060010190565b600060808236031215611a4457600080fd5b604051608081016001600160401b038282108183111715611a6757611a67611512565b8160405284359150611a7882611321565b81835260208501356020840152604085013560408401526060850135915080821115611aa357600080fd5b50611ab036828601611558565b60608301525092915050565b600082611acb57611acb611972565b500490565b634e487b7160e01b600052600160045260246000fd5b6020808252602b908201527f496e697469616c697a61626c653a20636f6e7472616374206973206e6f74206960408201526a6e697469616c697a696e6760a81b606082015260800190565b8082018082111561079857610798611933565b60008451611b56818460208901611459565b60609490941b6bffffffffffffffffffffffff191691909301908152601481019190915260340192915050565b828152604060208201526000610a0a604083018461147d56fea164736f6c6343000811000a",
  "linkReferences": {},
  "deployedLinkReferences": {}
}