{
  "_format": "hh-sol-artifact-1",
  "contractName": "ZilliqaRecover",
  "sourceName": "contracts/ZilliqaRecover.sol",
  "abi": [
    {
      "anonymous": false,
      "inputs": [
        {
          "indexed": false,
          "internalType": "uint8",
          "name": "version",
          "type": "uint8"
        }
      ],
      "name": "Initialized",
      "type": "event"
    },
    {
      "inputs": [
        {
          "internalType": "uint256",
          "name": "tokenId",
          "type": "uint256"
        },
        {
          "internalType": "uint256",
          "name": "publicKey",
          "type": "uint256"
        },
        {
          "internalType": "address",
          "name": "newOwnerAddress",
          "type": "address"
        },
        {
          "internalType": "bytes",
          "name": "signature",
          "type": "bytes"
        }
      ],
      "name": "claim",
      "outputs": [],
      "stateMutability": "nonpayable",
      "type": "function"
    },
    {
      "inputs": [
        {
          "internalType": "bytes",
          "name": "publicKey",
          "type": "bytes"
        }
      ],
      "name": "compressPublicKey",
      "outputs": [
        {
          "internalType": "bytes",
          "name": "",
          "type": "bytes"
        }
      ],
      "stateMutability": "pure",
      "type": "function"
    },
    {
      "inputs": [
        {
          "internalType": "bytes",
          "name": "publicKey",
          "type": "bytes"
        }
      ],
      "name": "ethAddress",
      "outputs": [
        {
          "internalType": "address",
          "name": "",
          "type": "address"
        }
      ],
      "stateMutability": "pure",
      "type": "function"
    },
    {
      "inputs": [
        {
          "internalType": "uint256",
          "name": "tokenId",
          "type": "uint256"
        },
        {
          "internalType": "bytes",
          "name": "publicKey",
          "type": "bytes"
        }
      ],
      "name": "ethSignedMessage",
      "outputs": [
        {
          "internalType": "bytes32",
          "name": "",
          "type": "bytes32"
        }
      ],
      "stateMutability": "view",
      "type": "function"
    },
    {
      "inputs": [
        {
          "internalType": "bytes",
          "name": "data",
          "type": "bytes"
        },
        {
          "internalType": "uint256",
          "name": "begin",
          "type": "uint256"
        },
        {
          "internalType": "uint256",
          "name": "end",
          "type": "uint256"
        }
      ],
      "name": "getSlice",
      "outputs": [
        {
          "internalType": "bytes",
          "name": "",
          "type": "bytes"
        }
      ],
      "stateMutability": "pure",
      "type": "function"
    },
    {
      "inputs": [
        {
          "internalType": "uint256",
          "name": "tokenId",
          "type": "uint256"
        },
        {
          "internalType": "address",
          "name": "owner",
          "type": "address"
        }
      ],
      "name": "initialize",
      "outputs": [],
      "stateMutability": "nonpayable",
      "type": "function"
    },
    {
      "inputs": [
        {
          "internalType": "address",
          "name": "forwarder",
          "type": "address"
        }
      ],
      "name": "isTrustedForwarder",
      "outputs": [
        {
          "internalType": "bool",
          "name": "",
          "type": "bool"
        }
      ],
      "stateMutability": "view",
      "type": "function"
    },
    {
      "inputs": [
        {
          "internalType": "uint256",
          "name": "tokenId",
          "type": "uint256"
        },
        {
          "internalType": "bytes",
          "name": "publicKey",
          "type": "bytes"
        }
      ],
      "name": "message",
      "outputs": [
        {
          "internalType": "bytes32",
          "name": "",
          "type": "bytes32"
        }
      ],
      "stateMutability": "view",
      "type": "function"
    },
    {
      "inputs": [],
      "name": "msgSender",
      "outputs": [
        {
          "internalType": "address",
          "name": "",
          "type": "address"
        }
      ],
      "stateMutability": "view",
      "type": "function"
    },
    {
      "inputs": [
        {
          "internalType": "uint256",
          "name": "tokenId",
          "type": "uint256"
        },
        {
          "internalType": "bytes",
          "name": "publicKey",
          "type": "bytes"
        },
        {
          "internalType": "bytes",
          "name": "signature",
          "type": "bytes"
        }
      ],
      "name": "recover",
      "outputs": [
        {
          "internalType": "address",
          "name": "recovered",
          "type": "address"
        },
        {
          "internalType": "enum ECDSAUpgradeable.RecoverError",
          "name": "error",
          "type": "uint8"
        }
      ],
      "stateMutability": "view",
      "type": "function"
    },
    {
      "inputs": [
        {
          "internalType": "uint256",
          "name": "",
          "type": "uint256"
        }
      ],
      "name": "tokenOwners",
      "outputs": [
        {
          "internalType": "address",
          "name": "",
          "type": "address"
        }
      ],
      "stateMutability": "view",
      "type": "function"
    },
    {
      "inputs": [
        {
          "internalType": "uint256",
          "name": "tokenId",
          "type": "uint256"
        },
        {
          "internalType": "bytes",
          "name": "publicKey",
          "type": "bytes"
        },
        {
          "internalType": "bytes",
          "name": "signature",
          "type": "bytes"
        }
      ],
      "name": "verify",
      "outputs": [
        {
          "internalType": "bool",
          "name": "",
          "type": "bool"
        }
      ],
      "stateMutability": "view",
      "type": "function"
    },
    {
      "inputs": [
        {
          "internalType": "bytes",
          "name": "publicKey",
          "type": "bytes"
        }
      ],
      "name": "zilAddress",
      "outputs": [
        {
          "internalType": "address",
          "name": "",
          "type": "address"
        }
      ],
      "stateMutability": "pure",
      "type": "function"
    }
  ],
  "bytecode": "0x608060405234801561001057600080fd5b50610d9a806100206000396000f3fe608060405234801561001057600080fd5b50600436106100cf5760003560e01c8063909f8e431161008c578063d737d0c711610066578063d737d0c714610206578063da35a26f1461020e578063f8a14f4614610221578063fb0e18ec1461024a57600080fd5b8063909f8e43146101ca5780639a8bb0c4146101dd578063d44b6478146101f057600080fd5b8063572b6c05146100d45780635bf145a21461012a57806368555cb31461014a5780636889b16e146101755780636e4925b214610188578063704625ed146101a9575b600080fd5b6101156100e23660046108a8565b7f893ef2ea16c023f61d4f55d3e6ee3fc3f2fbfd478461323dbc2fbf919047086e546001600160a01b0390811691161490565b60405190151581526020015b60405180910390f35b61013d610138366004610966565b61025d565b60405161012191906109d8565b61015d610158366004610a0b565b610344565b6040516001600160a01b039091168152602001610121565b61013d610183366004610a0b565b6103e2565b61019b610196366004610a48565b61045f565b604051610121929190610acb565b6101bc6101b7366004610b06565b610481565b604051908152602001610121565b6101bc6101d8366004610b06565b6104ec565b6101156101eb366004610a48565b610521565b6102046101fe366004610b4d565b50505050565b005b61015d6105a8565b61020461021c366004610bae565b6105b7565b61015d61022f366004610bda565b6033602052600090815260409020546001600160a01b031681565b61015d610258366004610a0b565b6106ed565b6060600061026b8484610c09565b610276906001610c1c565b67ffffffffffffffff81111561028e5761028e6108c3565b6040519080825280601f01601f1916602001820160405280156102b8576020820181803683370190505b50905060005b6102c88585610c09565b811161033b578560016102db8784610c1c565b6102e59190610c09565b815181106102f5576102f5610c2f565b602001015160f81c60f81b82828151811061031257610312610c2f565b60200101906001600160f81b031916908160001a9053508061033381610c45565b9150506102be565b50949350505050565b6000806002610352846103e2565b60405161035f9190610c5e565b602060405180830381855afa15801561037c573d6000803e3d6000fd5b5050506040513d601f19601f8201168201806040525081019061039f9190610c7a565b6040516020016103b191815260200190565b60405160208183030381529060405290506103cf81600d602061025d565b6103d890610c93565b60601c9392505050565b606060006103f3836001602061025d565b905060006104038460408061025d565b61040c90610ccf565b60f01c9050600061041e600283610d02565b61ffff1615905080610431576003610434565b60025b83604051602001610446929190610d31565b6040516020818303038152906040529350505050919050565b60008061047561046f8686610481565b8461070a565b91509150935093915050565b60006104e361049084846104ec565b6040517f19457468657265756d205369676e6564204d6573736167653a0a3332000000006020820152603c8101829052600090605c01604051602081830303815290604052805190602001209050919050565b90505b92915050565b600046838360405160200161050393929190610d60565b60405160208183030381529060405280519060200120905092915050565b600080600061053186868661045f565b9092509050600081600481111561054a5761054a610ab5565b148015610570575061055b856106ed565b6001600160a01b0316826001600160a01b0316145b801561059e575061058085610344565b6000878152603360205260409020546001600160a01b039081169116145b9695505050505050565b60006105b261074f565b905090565b600054610100900460ff16158080156105d75750600054600160ff909116105b806105f15750303b1580156105f1575060005460ff166001145b6106585760405162461bcd60e51b815260206004820152602e60248201527f496e697469616c697a61626c653a20636f6e747261637420697320616c72656160448201526d191e481a5b9a5d1a585b1a5e995960921b606482015260840160405180910390fd5b6000805460ff19166001179055801561067b576000805461ff0019166101001790555b600083815260336020526040902080546001600160a01b0319166001600160a01b03841617905580156106e8576000805461ff0019169055604051600181527f7f26b83ff96e1f2b6a682f133852f6798a09c465da95921460cefb38474024989060200160405180910390a15b505050565b60008082805190602001206040516020016103b191815260200190565b60008082516041036107405760208301516040840151606085015160001a61073487828585610759565b94509450505050610748565b506000905060025b9250929050565b60006105b2610846565b6000807f7fffffffffffffffffffffffffffffff5d576e7357a4501ddfe92f46681b20a0831115610790575060009050600361083d565b8460ff16601b141580156107a857508460ff16601c14155b156107b9575060009050600461083d565b6040805160008082526020820180845289905260ff881692820192909252606081018690526080810185905260019060a0016020604051602081039080840390855afa15801561080d573d6000803e3d6000fd5b5050604051601f1901519150506001600160a01b0381166108365760006001925092505061083d565b9150600090505b94509492505050565b7f893ef2ea16c023f61d4f55d3e6ee3fc3f2fbfd478461323dbc2fbf919047086e546000906001600160a01b03163303610887575060331936013560601c90565b503390565b80356001600160a01b03811681146108a357600080fd5b919050565b6000602082840312156108ba57600080fd5b6104e38261088c565b634e487b7160e01b600052604160045260246000fd5b600082601f8301126108ea57600080fd5b813567ffffffffffffffff80821115610905576109056108c3565b604051601f8301601f19908116603f0116810190828211818310171561092d5761092d6108c3565b8160405283815286602085880101111561094657600080fd5b836020870160208301376000602085830101528094505050505092915050565b60008060006060848603121561097b57600080fd5b833567ffffffffffffffff81111561099257600080fd5b61099e868287016108d9565b9660208601359650604090950135949350505050565b60005b838110156109cf5781810151838201526020016109b7565b50506000910152565b60208152600082518060208401526109f78160408501602087016109b4565b601f01601f19169190910160400192915050565b600060208284031215610a1d57600080fd5b813567ffffffffffffffff811115610a3457600080fd5b610a40848285016108d9565b949350505050565b600080600060608486031215610a5d57600080fd5b83359250602084013567ffffffffffffffff80821115610a7c57600080fd5b610a88878388016108d9565b93506040860135915080821115610a9e57600080fd5b50610aab868287016108d9565b9150509250925092565b634e487b7160e01b600052602160045260246000fd5b6001600160a01b03831681526040810160058310610af957634e487b7160e01b600052602160045260246000fd5b8260208301529392505050565b60008060408385031215610b1957600080fd5b82359150602083013567ffffffffffffffff811115610b3757600080fd5b610b43858286016108d9565b9150509250929050565b60008060008060808587031215610b6357600080fd5b8435935060208501359250610b7a6040860161088c565b9150606085013567ffffffffffffffff811115610b9657600080fd5b610ba2878288016108d9565b91505092959194509250565b60008060408385031215610bc157600080fd5b82359150610bd16020840161088c565b90509250929050565b600060208284031215610bec57600080fd5b5035919050565b634e487b7160e01b600052601160045260246000fd5b818103818111156104e6576104e6610bf3565b808201808211156104e6576104e6610bf3565b634e487b7160e01b600052603260045260246000fd5b600060018201610c5757610c57610bf3565b5060010190565b60008251610c708184602087016109b4565b9190910192915050565b600060208284031215610c8c57600080fd5b5051919050565b805160208201516bffffffffffffffffffffffff198082169291906014831015610cc75780818460140360031b1b83161693505b505050919050565b805160208201516001600160f01b03198082169291906002831015610cc75760029290920360031b82901b161692915050565b600061ffff80841680610d2557634e487b7160e01b600052601260045260246000fd5b92169190910692915050565b60ff60f81b8360f81b16815260008251610d528160018501602087016109b4565b919091016001019392505050565b83815282602082015260008251610d7e8160408501602087016109b4565b9190910160400194935050505056fea164736f6c6343000811000a",
  "linkReferences": {},
  "deployedLinkReferences": {}
}