{
  "_format": "hh-sol-artifact-1",
  "contractName": "ZilliqaRecover",
  "sourceName": "contracts/ZilliqaRecover.sol",
  "abi": [
    {
      "inputs": [],
      "name": "InvalidSignature",
      "type": "error"
    },
    {
      "anonymous": false,
      "inputs": [
        {
          "indexed": false,
          "internalType": "uint256",
          "name": "tokenId",
          "type": "uint256"
        },
        {
          "indexed": false,
          "internalType": "address",
          "name": "oldAddress",
          "type": "address"
        },
        {
          "indexed": false,
          "internalType": "address",
          "name": "newAddress",
          "type": "address"
        }
      ],
      "name": "Claimed",
      "type": "event"
    },
    {
      "anonymous": false,
      "inputs": [
        {
          "indexed": false,
          "internalType": "uint8",
          "name": "version",
          "type": "uint8"
        }
      ],
      "name": "Initialized",
      "type": "event"
    },
    {
      "anonymous": false,
      "inputs": [
        {
          "indexed": true,
          "internalType": "address",
          "name": "previousOwner",
          "type": "address"
        },
        {
          "indexed": true,
          "internalType": "address",
          "name": "newOwner",
          "type": "address"
        }
      ],
      "name": "OwnershipTransferred",
      "type": "event"
    },
    {
      "anonymous": false,
      "inputs": [
        {
          "indexed": false,
          "internalType": "uint256",
          "name": "tokenId",
          "type": "uint256"
        },
        {
          "indexed": false,
          "internalType": "address",
          "name": "zilAddress",
          "type": "address"
        }
      ],
      "name": "ZilOwnership",
      "type": "event"
    },
    {
      "inputs": [],
      "name": "ZIL_NODE",
      "outputs": [
        {
          "internalType": "uint256",
          "name": "",
          "type": "uint256"
        }
      ],
      "stateMutability": "view",
      "type": "function"
    },
    {
      "inputs": [
        {
          "internalType": "uint256",
          "name": "tokenId",
          "type": "uint256"
        },
        {
          "internalType": "bytes32",
          "name": "publicKeyX",
          "type": "bytes32"
        },
        {
          "internalType": "bytes32",
          "name": "publicKeyY",
          "type": "bytes32"
        },
        {
          "internalType": "address",
          "name": "newOwnerAddress",
          "type": "address"
        }
      ],
      "name": "claim",
      "outputs": [],
      "stateMutability": "nonpayable",
      "type": "function"
    },
    {
      "inputs": [
        {
          "internalType": "uint256[]",
          "name": "tokenIds",
          "type": "uint256[]"
        },
        {
          "internalType": "bytes32",
          "name": "publicKeyX",
          "type": "bytes32"
        },
        {
          "internalType": "bytes32",
          "name": "publicKeyY",
          "type": "bytes32"
        },
        {
          "internalType": "address",
          "name": "newOwnerAddress",
          "type": "address"
        }
      ],
      "name": "claimAll",
      "outputs": [],
      "stateMutability": "nonpayable",
      "type": "function"
    },
    {
      "inputs": [
        {
          "internalType": "bytes32",
          "name": "publicKeyX",
          "type": "bytes32"
        },
        {
          "internalType": "bytes32",
          "name": "publicKeyY",
          "type": "bytes32"
        }
      ],
      "name": "compressPublicKey",
      "outputs": [
        {
          "internalType": "bytes",
          "name": "",
          "type": "bytes"
        }
      ],
      "stateMutability": "pure",
      "type": "function"
    },
    {
      "inputs": [
        {
          "internalType": "bytes32",
          "name": "publicKeyX",
          "type": "bytes32"
        },
        {
          "internalType": "bytes32",
          "name": "publicKeyY",
          "type": "bytes32"
        }
      ],
      "name": "ethAddress",
      "outputs": [
        {
          "internalType": "address",
          "name": "",
          "type": "address"
        }
      ],
      "stateMutability": "pure",
      "type": "function"
    },
    {
      "inputs": [
        {
          "components": [
            {
              "internalType": "address",
              "name": "from",
              "type": "address"
            },
            {
              "internalType": "uint256",
              "name": "nonce",
              "type": "uint256"
            },
            {
              "internalType": "uint256",
              "name": "tokenId",
              "type": "uint256"
            },
            {
              "internalType": "bytes",
              "name": "data",
              "type": "bytes"
            }
          ],
          "internalType": "struct IForwarder.ForwardRequest",
          "name": "req",
          "type": "tuple"
        },
        {
          "internalType": "bytes",
          "name": "signature",
          "type": "bytes"
        }
      ],
      "name": "execute",
      "outputs": [
        {
          "internalType": "bytes",
          "name": "",
          "type": "bytes"
        }
      ],
      "stateMutability": "nonpayable",
      "type": "function"
    },
    {
      "inputs": [
        {
          "internalType": "contract IUNSRegistry",
          "name": "registry_",
          "type": "address"
        },
        {
          "internalType": "contract IMintingManager",
          "name": "mintingManager_",
          "type": "address"
        },
        {
          "internalType": "address",
          "name": "owner",
          "type": "address"
        }
      ],
      "name": "initialize",
      "outputs": [],
      "stateMutability": "nonpayable",
      "type": "function"
    },
    {
      "inputs": [
        {
          "internalType": "address",
          "name": "forwarder",
          "type": "address"
        }
      ],
      "name": "isTrustedForwarder",
      "outputs": [
        {
          "internalType": "bool",
          "name": "",
          "type": "bool"
        }
      ],
      "stateMutability": "view",
      "type": "function"
    },
    {
      "inputs": [
        {
          "internalType": "string",
          "name": "label",
          "type": "string"
        },
        {
          "internalType": "address",
          "name": "zilOwner",
          "type": "address"
        }
      ],
      "name": "mint",
      "outputs": [],
      "stateMutability": "nonpayable",
      "type": "function"
    },
    {
      "inputs": [
        {
          "components": [
            {
              "internalType": "address",
              "name": "zilOwner",
              "type": "address"
            },
            {
              "internalType": "string",
              "name": "label",
              "type": "string"
            }
          ],
          "internalType": "struct ZilliqaRecover.MintingToken[]",
          "name": "tokens",
          "type": "tuple[]"
        }
      ],
      "name": "mintAll",
      "outputs": [],
      "stateMutability": "nonpayable",
      "type": "function"
    },
    {
      "inputs": [],
      "name": "mintingManager",
      "outputs": [
        {
          "internalType": "contract IMintingManager",
          "name": "",
          "type": "address"
        }
      ],
      "stateMutability": "view",
      "type": "function"
    },
    {
      "inputs": [
        {
          "internalType": "uint256",
          "name": "tokenId",
          "type": "uint256"
        }
      ],
      "name": "nonceOf",
      "outputs": [
        {
          "internalType": "uint256",
          "name": "",
          "type": "uint256"
        }
      ],
      "stateMutability": "view",
      "type": "function"
    },
    {
      "inputs": [
        {
          "internalType": "address",
          "name": "",
          "type": "address"
        },
        {
          "internalType": "address",
          "name": "",
          "type": "address"
        },
        {
          "internalType": "uint256",
          "name": "tokenId",
          "type": "uint256"
        },
        {
          "internalType": "bytes",
          "name": "",
          "type": "bytes"
        }
      ],
      "name": "onERC721Received",
      "outputs": [
        {
          "internalType": "bytes4",
          "name": "",
          "type": "bytes4"
        }
      ],
      "stateMutability": "view",
      "type": "function"
    },
    {
      "inputs": [],
      "name": "owner",
      "outputs": [
        {
          "internalType": "address",
          "name": "",
          "type": "address"
        }
      ],
      "stateMutability": "view",
      "type": "function"
    },
    {
      "inputs": [],
      "name": "registry",
      "outputs": [
        {
          "internalType": "contract IUNSRegistry",
          "name": "",
          "type": "address"
        }
      ],
      "stateMutability": "view",
      "type": "function"
    },
    {
      "inputs": [],
      "name": "renounceOwnership",
      "outputs": [],
      "stateMutability": "nonpayable",
      "type": "function"
    },
    {
      "inputs": [
        {
          "internalType": "address",
          "name": "newOwner",
          "type": "address"
        }
      ],
      "name": "transferOwnership",
      "outputs": [],
      "stateMutability": "nonpayable",
      "type": "function"
    },
    {
      "inputs": [
        {
          "components": [
            {
              "internalType": "address",
              "name": "from",
              "type": "address"
            },
            {
              "internalType": "uint256",
              "name": "nonce",
              "type": "uint256"
            },
            {
              "internalType": "uint256",
              "name": "tokenId",
              "type": "uint256"
            },
            {
              "internalType": "bytes",
              "name": "data",
              "type": "bytes"
            }
          ],
          "internalType": "struct IForwarder.ForwardRequest",
          "name": "req",
          "type": "tuple"
        },
        {
          "internalType": "bytes",
          "name": "signature",
          "type": "bytes"
        }
      ],
      "name": "verify",
      "outputs": [
        {
          "internalType": "bool",
          "name": "",
          "type": "bool"
        }
      ],
      "stateMutability": "view",
      "type": "function"
    },
    {
      "inputs": [
        {
          "internalType": "bytes32",
          "name": "publicKeyX",
          "type": "bytes32"
        },
        {
          "internalType": "bytes32",
          "name": "publicKeyY",
          "type": "bytes32"
        }
      ],
      "name": "zilAddress",
      "outputs": [
        {
          "internalType": "address",
          "name": "",
          "type": "address"
        }
      ],
      "stateMutability": "pure",
      "type": "function"
    },
    {
      "inputs": [
        {
          "internalType": "uint256",
          "name": "tokenId",
          "type": "uint256"
        }
      ],
      "name": "znsOwnerOf",
      "outputs": [
        {
          "internalType": "address",
          "name": "",
          "type": "address"
        }
      ],
      "stateMutability": "view",
      "type": "function"
    }
  ],
  "bytecode": "0x608060405234801561001057600080fd5b50611c83806100206000396000f3fe608060405234801561001057600080fd5b506004361061012c5760003560e01c80637b103999116100ad578063a424740011610071578063a4247400146102b8578063c0c53b8b146102cb578063e1c4b65a146102de578063e35a14e5146102f1578063f2fde38b1461031a57600080fd5b80637b103999146102505780638da5cb5b146102635780638f0dbd251461026b5780639810b6951461027e5780639e32d3641461029157600080fd5b806358884432116100f457806358884432146101d657806366ee38f1146102015780636ccbae5f1461021457806371017a5414610235578063715018a61461024857600080fd5b8063150b7a02146101315780631694116d146101625780631bf7e13e146101775780631c351a9d14610197578063572b6c05146101aa575b600080fd5b61014461013f366004611467565b61032d565b6040516001600160e01b031990911681526020015b60405180910390f35b61017561017036600461154a565b6103b7565b005b61018a610185366004611613565b61044e565b60405161015991906116d4565b6101756101a53660046116e7565b61051a565b6101c66101b836600461173e565b6001600160a01b0316301490565b6040519015158152602001610159565b6067546101e9906001600160a01b031681565b6040516001600160a01b039091168152602001610159565b61018a61020f36600461175b565b610532565b61022761022236600461177d565b6105b9565b604051908152602001610159565b6101e961024336600461175b565b610613565b610175610652565b6066546101e9906001600160a01b031681565b6101e9610666565b610175610279366004611796565b610694565b6101e961028c36600461175b565b6106f3565b6102277fd81bbfcee722494b885e891546eeac23d0eedcd44038d7a2f6ef9ec2f9e0d23981565b6101c66102c6366004611613565b610757565b6101756102d93660046117d7565b6107a2565b6101756102ec366004611817565b6108ef565b6101e96102ff36600461177d565b6000908152606560205260409020546001600160a01b031690565b61017561032836600461173e565b61095e565b6000838152606560205260408120546001600160a01b03166103a55760405162461bcd60e51b815260206004820152602660248201527f5a696c6c6971615265636f7665723a20554e4b4e4f574e5f544f4b454e5f524560448201526510d15255915160d21b60648201526084015b60405180910390fd5b50630a85bd0160e11b95945050505050565b82826103c38282610613565b6001600160a01b03166103d46109d7565b6001600160a01b0316146103fa5760405162461bcd60e51b815260040161039c9061188c565b60005b86518110156104455761043387828151811061041b5761041b6118e1565b602002602001015161042d88886106f3565b866109e6565b8061043d8161190d565b9150506103fd565b50505050505050565b606060005a9050610460858585610757565b61047d57604051638baa579f60e01b815260040160405180910390fd5b61050f61048d602087018761173e565b306040880135846104a160608b018b611926565b8080601f01602080910402602001604051908101604052809392919081815260200183838082843760009201919091525050604080516020601f8e018190048102820181019092528c815292508c91508b9081908401838280828437600092019190915250610b4592505050565b9150505b9392505050565b610522610c26565b61052d838383610c95565b505050565b60606000826105436001602061196d565b60ff1660208110610556576105566118e1565b1a905061056460028261199c565b60ff1615610573576003610576565b60025b846040516020016105a092919060f89290921b6001600160f81b0319168252600182015260210190565b6040516020818303038152906040529150505b92915050565b604080517f1ee5d87a048b728f67073f282321992c260e5be4fa651d08665c5b4ee7a83815602082015290810182905260009061060c906060016040516020818303038152906040528051906020012090565b5492915050565b6000808383604051602001610632929190918252602082015260400190565b60408051808303601f190181529190528051602090910120949350505050565b61065a610c26565b6106646000610d73565b565b7fe1b9c5b9c6f25fc6c03fdb76829a7257b1cdb10ff4bc4f62e0a94358c8121905546001600160a01b031690565b82826106a08282610613565b6001600160a01b03166106b16109d7565b6001600160a01b0316146106d75760405162461bcd60e51b815260040161039c9061188c565b6106eb866106e587886106f3565b856109e6565b505050505050565b60008060026107028585610532565b60405161070f91906119be565b602060405180830381855afa15801561072c573d6000803e3d6000fd5b5050506040513d601f19601f8201168201806040525081019061074f91906119da565b949350505050565b600061074f610765856119f3565b3085858080601f016020809104026020016040519081016040528093929190818152602001838380828437600092019190915250610def92505050565b600054610100900460ff16158080156107c25750600054600160ff909116105b806107dc5750303b1580156107dc575060005460ff166001145b61083f5760405162461bcd60e51b815260206004820152602e60248201527f496e697469616c697a61626c653a20636f6e747261637420697320616c72656160448201526d191e481a5b9a5d1a585b1a5e995960921b606482015260840161039c565b6000805460ff191660011790558015610862576000805461ff0019166101001790555b606680546001600160a01b038087166001600160a01b031992831617909255606780549286169290911691909117905561089b82610d73565b6108a3610f38565b80156108e9576000805461ff0019169055604051600181527f7f26b83ff96e1f2b6a682f133852f6798a09c465da95921460cefb38474024989060200160405180910390a15b50505050565b6108f7610c26565b60005b8181101561052d5736838383818110610915576109156118e1565b90506020028101906109279190611ab6565b905061094b6109396020830183611926565b610946602085018561173e565b610c95565b50806109568161190d565b9150506108fa565b610966610c26565b6001600160a01b0381166109cb5760405162461bcd60e51b815260206004820152602660248201527f4f776e61626c653a206e6577206f776e657220697320746865207a65726f206160448201526564647265737360d01b606482015260840161039c565b6109d481610d73565b50565b60006109e1610f67565b905090565b6000838152606560205260409020546001600160a01b03838116911614610a645760405162461bcd60e51b815260206004820152602c60248201527f5a696c6c6971615265636f7665723a20544f4b454e5f4f574e45445f42595f4f60448201526b544845525f4144445245535360a01b606482015260840161039c565b6000838152606560205260409081902080546001600160a01b03191690556066549051632142170760e11b81523060048201526001600160a01b03838116602483015260448201869052909116906342842e0e90606401600060405180830381600087803b158015610ad557600080fd5b505af1158015610ae9573d6000803e3d6000fd5b505050507f3c75fca1decf7e281012586b8fab4c62d1e876fc95d6d0335723cd6ea5bba73a83610b176109d7565b604080519283526001600160a01b0391821660208401529084169082015260600160405180910390a1505050565b6060610b5085610f82565b600080876001600160a01b031686610b6a8b8a8989610fe8565b604051610b7791906119be565b60006040518083038160008787f1925050503d8060008114610bb5576040519150601f19603f3d011682016040523d82523d6000602084013e610bba565b606091505b509092509050610bcb603f87611acc565b5a11610bd957610bd9611ae0565b610c1982826040518060400160405280601a81526020017f42617365466f727761726465723a2043414c4c5f4641494c4544000000000000815250611018565b9998505050505050505050565b610c2e6109d7565b6001600160a01b0316610c3f610666565b6001600160a01b0316146106645760405162461bcd60e51b815260206004820181905260248201527f4f776e61626c653a2063616c6c6572206973206e6f7420746865206f776e6572604482015260640161039c565b6060600080610cd986868080601f01602080910402602001604051908101604052809392919081815260200183838082843760009201919091525061105192505050565b60008181526065602052604080822080546001600160a01b0319166001600160a01b038a8116919091179091556067549151635cd7e3b360e01b815294965092945090911691635cd7e3b391610d39913091879189918291600401611b4b565b600060405180830381600087803b158015610d5357600080fd5b505af1158015610d67573d6000803e3d6000fd5b50505050505050505050565b6000610d7d610666565b9050817fe1b9c5b9c6f25fc6c03fdb76829a7257b1cdb10ff4bc4f62e0a94358c812190580546001600160a01b0319166001600160a01b03928316179055604051838216918316907f8be0079c531659141344cd1fd0a4f28419497f9722a3daafe3b4186f6b6457e090600090a35050565b6040838101519051636ccbae5f60e01b8152600481019190915260009081903090636ccbae5f90602401602060405180830381865afa158015610e36573d6000803e3d6000fd5b505050506040513d601f19601f82011682018060405250810190610e5a91906119da565b90506000610f08866060015180519060200120868860200151604051602001610ea89392919092835260609190911b6bffffffffffffffffffffffff19166020830152603482015260540190565b60408051601f1981840301815282825280516020918201207f19457468657265756d205369676e6564204d6573736167653a0a33320000000084830152603c8085019190915282518085039091018152605c909301909152815191012090565b9050818660200151148015610f2e57508551610f2e906001600160a01b03168286611155565b9695505050505050565b600054610100900460ff16610f5f5760405162461bcd60e51b815260040161039c90611baa565b610664611297565b6000303303610f7d575060331936013560601c90565b503390565b604080517f1ee5d87a048b728f67073f282321992c260e5be4fa651d08665c5b4ee7a838156020820152908101829052600090606001604051602081830303815290604052805190602001209050610fd78190565b54610fe3906001611bf5565b905550565b6060828585604051602001610fff93929190611c08565b6040516020818303038152906040529050949350505050565b60608315611027575081610513565b8251156110375782518084602001fd5b8160405162461bcd60e51b815260040161039c91906116d4565b606060007fd81bbfcee722494b885e891546eeac23d0eedcd44038d7a2f6ef9ec2f9e0d2398360405160200161108791906119be565b604051602081830303815290604052805190602001206040516020016110b7929190918252602082015260400190565b60408051601f198184030181528282528051602091820120600280855260608501909352935082015b60608152602001906001900390816110e0579050509150828260008151811061110b5761110b6118e1565b6020026020010181905250604051806040016040528060038152602001621e9a5b60ea1b81525082600181518110611145576111456118e1565b6020026020010181905250915091565b600080600061116485856112ce565b9092509050600081600481111561117d5761117d611c47565b14801561119b5750856001600160a01b0316826001600160a01b0316145b156111ab57600192505050610513565b600080876001600160a01b0316631626ba7e60e01b88886040516024016111d3929190611c5d565b60408051601f198184030181529181526020820180516001600160e01b03166001600160e01b031990941693909317909252905161121191906119be565b600060405180830381855afa9150503d806000811461124c576040519150601f19603f3d011682016040523d82523d6000602084013e611251565b606091505b5091509150818015611264575080516020145b801561128b57508051630b135d3f60e11b9061128990830160209081019084016119da565b145b98975050505050505050565b600054610100900460ff166112be5760405162461bcd60e51b815260040161039c90611baa565b6106646112c96109d7565b610d73565b60008082516041036113045760208301516040840151606085015160001a6112f887828585611313565b9450945050505061130c565b506000905060025b9250929050565b6000807f7fffffffffffffffffffffffffffffff5d576e7357a4501ddfe92f46681b20a083111561134a57506000905060036113f7565b8460ff16601b1415801561136257508460ff16601c14155b1561137357506000905060046113f7565b6040805160008082526020820180845289905260ff881692820192909252606081018690526080810185905260019060a0016020604051602081039080840390855afa1580156113c7573d6000803e3d6000fd5b5050604051601f1901519150506001600160a01b0381166113f0576000600192509250506113f7565b9150600090505b94509492505050565b6001600160a01b03811681146109d457600080fd5b803561142081611400565b919050565b60008083601f84011261143757600080fd5b50813567ffffffffffffffff81111561144f57600080fd5b60208301915083602082850101111561130c57600080fd5b60008060008060006080868803121561147f57600080fd5b853561148a81611400565b9450602086013561149a81611400565b935060408601359250606086013567ffffffffffffffff8111156114bd57600080fd5b6114c988828901611425565b969995985093965092949392505050565b634e487b7160e01b600052604160045260246000fd5b6040516080810167ffffffffffffffff81118282101715611513576115136114da565b60405290565b604051601f8201601f1916810167ffffffffffffffff81118282101715611542576115426114da565b604052919050565b6000806000806080858703121561156057600080fd5b843567ffffffffffffffff8082111561157857600080fd5b818701915087601f83011261158c57600080fd5b81356020828211156115a0576115a06114da565b8160051b92506115b1818401611519565b828152928401810192818101908b8511156115cb57600080fd5b948201945b848610156115e9578535825294820194908201906115d0565b9850508801359550505060408601359250611608905060608601611415565b905092959194509250565b60008060006040848603121561162857600080fd5b833567ffffffffffffffff8082111561164057600080fd5b908501906080828803121561165457600080fd5b9093506020850135908082111561166a57600080fd5b5061167786828701611425565b9497909650939450505050565b60005b8381101561169f578181015183820152602001611687565b50506000910152565b600081518084526116c0816020860160208601611684565b601f01601f19169290920160200192915050565b60208152600061051360208301846116a8565b6000806000604084860312156116fc57600080fd5b833567ffffffffffffffff81111561171357600080fd5b61171f86828701611425565b909450925050602084013561173381611400565b809150509250925092565b60006020828403121561175057600080fd5b813561051381611400565b6000806040838503121561176e57600080fd5b50508035926020909101359150565b60006020828403121561178f57600080fd5b5035919050565b600080600080608085870312156117ac57600080fd5b84359350602085013592506040850135915060608501356117cc81611400565b939692955090935050565b6000806000606084860312156117ec57600080fd5b83356117f781611400565b9250602084013561180781611400565b9150604084013561173381611400565b6000806020838503121561182a57600080fd5b823567ffffffffffffffff8082111561184257600080fd5b818501915085601f83011261185657600080fd5b81358181111561186557600080fd5b8660208260051b850101111561187a57600080fd5b60209290920196919550909350505050565b60208082526035908201527f5a696c6c6971615265636f7665723a205055424c49435f4b45595f444f454e546040820152745f4d415443485f53454e4445525f4144445245535360581b606082015260800190565b634e487b7160e01b600052603260045260246000fd5b634e487b7160e01b600052601160045260246000fd5b60006001820161191f5761191f6118f7565b5060010190565b6000808335601e1984360301811261193d57600080fd5b83018035915067ffffffffffffffff82111561195857600080fd5b60200191503681900382131561130c57600080fd5b60ff82811682821603908111156105b3576105b36118f7565b634e487b7160e01b600052601260045260246000fd5b600060ff8316806119af576119af611986565b8060ff84160691505092915050565b600082516119d0818460208701611684565b9190910192915050565b6000602082840312156119ec57600080fd5b5051919050565b600060808236031215611a0557600080fd5b611a0d6114f0565b8235611a1881611400565b81526020838101358183015260408085013590830152606084013567ffffffffffffffff80821115611a4957600080fd5b9085019036601f830112611a5c57600080fd5b813581811115611a6e57611a6e6114da565b611a80601f8201601f19168501611519565b91508082523684828501011115611a9657600080fd5b808484018584013760009082019093019290925250606082015292915050565b60008235603e198336030181126119d057600080fd5b600082611adb57611adb611986565b500490565b634e487b7160e01b600052600160045260246000fd5b600081518084526020808501808196508360051b8101915082860160005b85811015611b3e578284038952611b2c8483516116a8565b98850198935090840190600101611b14565b5091979650505050505050565b6001600160a01b038616815260a060208201819052600090611b6f90830187611af6565b8281036040840152611b818187611af6565b90508281036060840152611b958186611af6565b91505082151560808301529695505050505050565b6020808252602b908201527f496e697469616c697a61626c653a20636f6e7472616374206973206e6f74206960408201526a6e697469616c697a696e6760a81b606082015260800190565b808201808211156105b3576105b36118f7565b60008451611c1a818460208901611684565b60609490941b6bffffffffffffffffffffffff191691909301908152601481019190915260340192915050565b634e487b7160e01b600052602160045260246000fd5b82815260406020820152600061074f60408301846116a856fea164736f6c6343000811000a",
  "linkReferences": {},
  "deployedLinkReferences": {}
}