{
  "_format": "hh-sol-artifact-1",
  "contractName": "ZilliqaRecover",
  "sourceName": "contracts/custody/ZilliqaRecover.sol",
  "abi": [
    {
      "inputs": [
        {
          "internalType": "uint256",
          "name": "tokenId",
          "type": "uint256"
        }
      ],
      "name": "InvalidForwardedToken",
      "type": "error"
    },
    {
      "inputs": [],
      "name": "InvalidSignature",
      "type": "error"
    },
    {
      "inputs": [
        {
          "internalType": "bytes32",
          "name": "publicKeyX",
          "type": "bytes32"
        },
        {
          "internalType": "bytes32",
          "name": "publicKeyY",
          "type": "bytes32"
        }
      ],
      "name": "PublicKeyUnmatchSenderAddress",
      "type": "error"
    },
    {
      "inputs": [
        {
          "internalType": "uint256",
          "name": "tokenId",
          "type": "uint256"
        },
        {
          "internalType": "address",
          "name": "znsOwner",
          "type": "address"
        },
        {
          "internalType": "address",
          "name": "receivedOwner",
          "type": "address"
        }
      ],
      "name": "TokenOwnedByOtherZilAddress",
      "type": "error"
    },
    {
      "inputs": [
        {
          "internalType": "uint256",
          "name": "tokenId",
          "type": "uint256"
        },
        {
          "internalType": "address",
          "name": "contractAddress",
          "type": "address"
        }
      ],
      "name": "UnknownTokenReceived",
      "type": "error"
    },
    {
      "anonymous": false,
      "inputs": [
        {
          "indexed": false,
          "internalType": "uint8",
          "name": "version",
          "type": "uint8"
        }
      ],
      "name": "Initialized",
      "type": "event"
    },
    {
      "anonymous": false,
      "inputs": [
        {
          "indexed": true,
          "internalType": "address",
          "name": "previousOwner",
          "type": "address"
        },
        {
          "indexed": true,
          "internalType": "address",
          "name": "newOwner",
          "type": "address"
        }
      ],
      "name": "OwnershipTransferred",
      "type": "event"
    },
    {
      "anonymous": false,
      "inputs": [
        {
          "indexed": true,
          "internalType": "uint256",
          "name": "tokenId",
          "type": "uint256"
        },
        {
          "indexed": true,
          "internalType": "address",
          "name": "oldAddress",
          "type": "address"
        },
        {
          "indexed": true,
          "internalType": "address",
          "name": "newAddress",
          "type": "address"
        }
      ],
      "name": "ZnsTokenClaimed",
      "type": "event"
    },
    {
      "anonymous": false,
      "inputs": [
        {
          "indexed": true,
          "internalType": "uint256",
          "name": "tokenId",
          "type": "uint256"
        },
        {
          "indexed": true,
          "internalType": "address",
          "name": "zilAddress",
          "type": "address"
        },
        {
          "indexed": false,
          "internalType": "string",
          "name": "label",
          "type": "string"
        }
      ],
      "name": "ZnsTokenMinted",
      "type": "event"
    },
    {
      "inputs": [],
      "name": "ZIL_NODE",
      "outputs": [
        {
          "internalType": "uint256",
          "name": "",
          "type": "uint256"
        }
      ],
      "stateMutability": "view",
      "type": "function"
    },
    {
      "inputs": [
        {
          "internalType": "uint256",
          "name": "tokenId",
          "type": "uint256"
        },
        {
          "internalType": "bytes32",
          "name": "publicKeyX",
          "type": "bytes32"
        },
        {
          "internalType": "bytes32",
          "name": "publicKeyY",
          "type": "bytes32"
        },
        {
          "internalType": "address",
          "name": "newOwnerAddress",
          "type": "address"
        }
      ],
      "name": "claim",
      "outputs": [],
      "stateMutability": "nonpayable",
      "type": "function"
    },
    {
      "inputs": [
        {
          "internalType": "uint256[]",
          "name": "tokenIds",
          "type": "uint256[]"
        },
        {
          "internalType": "bytes32",
          "name": "publicKeyX",
          "type": "bytes32"
        },
        {
          "internalType": "bytes32",
          "name": "publicKeyY",
          "type": "bytes32"
        },
        {
          "internalType": "address",
          "name": "newOwnerAddress",
          "type": "address"
        }
      ],
      "name": "claimAll",
      "outputs": [],
      "stateMutability": "nonpayable",
      "type": "function"
    },
    {
      "inputs": [
        {
          "internalType": "bytes32",
          "name": "publicKeyX",
          "type": "bytes32"
        },
        {
          "internalType": "bytes32",
          "name": "publicKeyY",
          "type": "bytes32"
        }
      ],
      "name": "ethAddress",
      "outputs": [
        {
          "internalType": "address",
          "name": "",
          "type": "address"
        }
      ],
      "stateMutability": "pure",
      "type": "function"
    },
    {
      "inputs": [
        {
          "components": [
            {
              "internalType": "address",
              "name": "from",
              "type": "address"
            },
            {
              "internalType": "uint256",
              "name": "nonce",
              "type": "uint256"
            },
            {
              "internalType": "uint256",
              "name": "tokenId",
              "type": "uint256"
            },
            {
              "internalType": "bytes",
              "name": "data",
              "type": "bytes"
            }
          ],
          "internalType": "struct IForwarder.ForwardRequest",
          "name": "req",
          "type": "tuple"
        },
        {
          "internalType": "bytes",
          "name": "signature",
          "type": "bytes"
        }
      ],
      "name": "execute",
      "outputs": [
        {
          "internalType": "bytes",
          "name": "",
          "type": "bytes"
        }
      ],
      "stateMutability": "nonpayable",
      "type": "function"
    },
    {
      "inputs": [
        {
          "internalType": "contract IUNSRegistry",
          "name": "registry_",
          "type": "address"
        },
        {
          "internalType": "contract IMintingManager",
          "name": "mintingManager_",
          "type": "address"
        },
        {
          "internalType": "address",
          "name": "owner",
          "type": "address"
        }
      ],
      "name": "initialize",
      "outputs": [],
      "stateMutability": "nonpayable",
      "type": "function"
    },
    {
      "inputs": [
        {
          "internalType": "address",
          "name": "forwarder",
          "type": "address"
        }
      ],
      "name": "isTrustedForwarder",
      "outputs": [
        {
          "internalType": "bool",
          "name": "",
          "type": "bool"
        }
      ],
      "stateMutability": "view",
      "type": "function"
    },
    {
      "inputs": [
        {
          "internalType": "string",
          "name": "label",
          "type": "string"
        },
        {
          "internalType": "address",
          "name": "zilOwner",
          "type": "address"
        }
      ],
      "name": "mint",
      "outputs": [
        {
          "internalType": "uint256",
          "name": "",
          "type": "uint256"
        }
      ],
      "stateMutability": "nonpayable",
      "type": "function"
    },
    {
      "inputs": [
        {
          "components": [
            {
              "internalType": "address",
              "name": "zilOwner",
              "type": "address"
            },
            {
              "internalType": "string",
              "name": "label",
              "type": "string"
            }
          ],
          "internalType": "struct ZilliqaRecover.MintingToken[]",
          "name": "tokens",
          "type": "tuple[]"
        }
      ],
      "name": "mintAll",
      "outputs": [],
      "stateMutability": "nonpayable",
      "type": "function"
    },
    {
      "inputs": [],
      "name": "mintingManager",
      "outputs": [
        {
          "internalType": "contract IMintingManager",
          "name": "",
          "type": "address"
        }
      ],
      "stateMutability": "view",
      "type": "function"
    },
    {
      "inputs": [
        {
          "internalType": "uint256",
          "name": "tokenId",
          "type": "uint256"
        }
      ],
      "name": "nonceOf",
      "outputs": [
        {
          "internalType": "uint256",
          "name": "",
          "type": "uint256"
        }
      ],
      "stateMutability": "view",
      "type": "function"
    },
    {
      "inputs": [
        {
          "internalType": "address",
          "name": "",
          "type": "address"
        },
        {
          "internalType": "address",
          "name": "",
          "type": "address"
        },
        {
          "internalType": "uint256",
          "name": "tokenId",
          "type": "uint256"
        },
        {
          "internalType": "bytes",
          "name": "",
          "type": "bytes"
        }
      ],
      "name": "onERC721Received",
      "outputs": [
        {
          "internalType": "bytes4",
          "name": "",
          "type": "bytes4"
        }
      ],
      "stateMutability": "view",
      "type": "function"
    },
    {
      "inputs": [],
      "name": "owner",
      "outputs": [
        {
          "internalType": "address",
          "name": "",
          "type": "address"
        }
      ],
      "stateMutability": "view",
      "type": "function"
    },
    {
      "inputs": [],
      "name": "registry",
      "outputs": [
        {
          "internalType": "contract IUNSRegistry",
          "name": "",
          "type": "address"
        }
      ],
      "stateMutability": "view",
      "type": "function"
    },
    {
      "inputs": [],
      "name": "renounceOwnership",
      "outputs": [],
      "stateMutability": "nonpayable",
      "type": "function"
    },
    {
      "inputs": [
        {
          "internalType": "address",
          "name": "newOwner",
          "type": "address"
        }
      ],
      "name": "transferOwnership",
      "outputs": [],
      "stateMutability": "nonpayable",
      "type": "function"
    },
    {
      "inputs": [
        {
          "components": [
            {
              "internalType": "address",
              "name": "from",
              "type": "address"
            },
            {
              "internalType": "uint256",
              "name": "nonce",
              "type": "uint256"
            },
            {
              "internalType": "uint256",
              "name": "tokenId",
              "type": "uint256"
            },
            {
              "internalType": "bytes",
              "name": "data",
              "type": "bytes"
            }
          ],
          "internalType": "struct IForwarder.ForwardRequest",
          "name": "req",
          "type": "tuple"
        },
        {
          "internalType": "bytes",
          "name": "signature",
          "type": "bytes"
        }
      ],
      "name": "verify",
      "outputs": [
        {
          "internalType": "bool",
          "name": "",
          "type": "bool"
        }
      ],
      "stateMutability": "view",
      "type": "function"
    },
    {
      "inputs": [
        {
          "internalType": "bytes32",
          "name": "publicKeyX",
          "type": "bytes32"
        },
        {
          "internalType": "bytes32",
          "name": "publicKeyY",
          "type": "bytes32"
        }
      ],
      "name": "zilAddress",
      "outputs": [
        {
          "internalType": "address",
          "name": "",
          "type": "address"
        }
      ],
      "stateMutability": "pure",
      "type": "function"
    },
    {
      "inputs": [
        {
          "internalType": "uint256",
          "name": "tokenId",
          "type": "uint256"
        }
      ],
      "name": "znsOwnerOf",
      "outputs": [
        {
          "internalType": "address",
          "name": "",
          "type": "address"
        }
      ],
      "stateMutability": "view",
      "type": "function"
    }
  ],
  "bytecode": "0x608060405234801561001057600080fd5b50611c0b806100206000396000f3fe608060405234801561001057600080fd5b50600436106101215760003560e01c80637b103999116100ad578063a424740011610071578063a42474001461029a578063c0c53b8b146102ad578063e1c4b65a146102c0578063e35a14e5146102d3578063f2fde38b146102fc57600080fd5b80637b103999146102325780638da5cb5b146102455780638f0dbd251461024d5780639810b695146102605780639e32d3641461027357600080fd5b8063572b6c05116100f4578063572b6c05146101ad57806358884432146101d95780636ccbae5f1461020457806371017a5414610217578063715018a61461022a57600080fd5b8063150b7a02146101265780631694116d146101575780631bf7e13e1461016c5780631c351a9d1461018c575b600080fd5b61013961013436600461149c565b61030f565b6040516001600160e01b031990911681526020015b60405180910390f35b61016a610165366004611554565b6103a1565b005b61017f61017a3660046115bf565b610448565b60405161014e9190611680565b61019f61019a366004611693565b610514565b60405190815260200161014e565b6101c96101bb3660046116ea565b6001600160a01b0316301490565b604051901515815260200161014e565b6067546101ec906001600160a01b031681565b6040516001600160a01b03909116815260200161014e565b61019f610212366004611707565b61053e565b6101ec610225366004611720565b610598565b61016a6105d9565b6066546101ec906001600160a01b031681565b6101ec6105ed565b61016a61025b366004611742565b61061b565b6101ec61026e366004611720565b610690565b61019f7fd81bbfcee722494b885e891546eeac23d0eedcd44038d7a2f6ef9ec2f9e0d23981565b6101c96102a83660046115bf565b6106ec565b61016a6102bb366004611783565b610737565b61016a6102ce3660046117c3565b61087c565b6101ec6102e1366004611707565b6000908152606560205260409020546001600160a01b031690565b61016a61030a3660046116ea565b610913565b6066546000906001600160a01b031661032661098c565b6001600160a01b031614158061035157506000848152606560205260409020546001600160a01b0316155b1561038f578361035f61098c565b60405163634afa0d60e01b815260048101929092526001600160a01b031660248201526044015b60405180910390fd5b50630a85bd0160e11b95945050505050565b82826103ad8282610598565b6001600160a01b03166103be61098c565b6001600160a01b0316146103ef57604051632cd9b44d60e11b81526004810183905260248101829052604401610386565b60006103fb8686610690565b905060005b8781101561043d5761042b89898381811061041d5761041d611805565b90506020020135838761099b565b8061043581611831565b915050610400565b505050505050505050565b606060005a905061045a8585856106ec565b61047757604051638baa579f60e01b815260040160405180910390fd5b61050961048760208701876116ea565b3060408801358461049b60608b018b61184a565b8080601f01602080910402602001604051908101604052809392919081815260200183838082843760009201919091525050604080516020601f8e018190048102820181019092528c815292508c91508b9081908401838280828437600092019190915250610ad692505050565b9150505b9392505050565b600061051e610bb7565b600061052b858585610c26565b905061053681610e43565b949350505050565b604080517f1ee5d87a048b728f67073f282321992c260e5be4fa651d08665c5b4ee7a838156020820152908101829052600090610591906060016040516020818303038152906040528051906020012090565b5492915050565b60008083836040516020016105b7929190918252602082015260400190565b60408051601f1981840301815291905280516020909101209150505b92915050565b6105e1610bb7565b6105eb6000610e5c565b565b7fe1b9c5b9c6f25fc6c03fdb76829a7257b1cdb10ff4bc4f62e0a94358c8121905546001600160a01b031690565b82826106278282610598565b6001600160a01b031661063861098c565b6001600160a01b03161461066957604051632cd9b44d60e11b81526004810183905260248101829052604401610386565b8561067381610e43565b610687876106818889610690565b8661099b565b50505050505050565b600080600261069f8585610ed8565b6040516106ac9190611891565b602060405180830381855afa1580156106c9573d6000803e3d6000fd5b5050506040513d601f19601f8201168201806040525081019061053691906118ad565b60006105366106fa85611936565b3085858080601f016020809104026020016040519081016040528093929190818152602001838380828437600092019190915250610f5e92505050565b600054610100900460ff16158080156107575750600054600160ff909116105b806107715750303b158015610771575060005460ff166001145b6107d45760405162461bcd60e51b815260206004820152602e60248201527f496e697469616c697a61626c653a20636f6e747261637420697320616c72656160448201526d191e481a5b9a5d1a585b1a5e995960921b6064820152608401610386565b6000805460ff1916600117905580156107f7576000805461ff0019166101001790555b606680546001600160a01b038087166001600160a01b031992831617909255606780549286169290911691909117905561083082610e5c565b8015610876576000805461ff0019169055604051600181527f7f26b83ff96e1f2b6a682f133852f6798a09c465da95921460cefb38474024989060200160405180910390a15b50505050565b610884610bb7565b60005b8181101561090e576108fb8383838181106108a4576108a4611805565b90506020028101906108b691906119f9565b6108c490602081019061184a565b8585858181106108d6576108d6611805565b90506020028101906108e891906119f9565b6108f69060208101906116ea565b610c26565b508061090681611831565b915050610887565b505050565b61091b610bb7565b6001600160a01b0381166109805760405162461bcd60e51b815260206004820152602660248201527f4f776e61626c653a206e6577206f776e657220697320746865207a65726f206160448201526564647265737360d01b6064820152608401610386565b61098981610e5c565b50565b60006109966110a7565b905090565b6000838152606560205260409020546001600160a01b03838116911614610a0057600083815260656020526040908190205490516326995d8360e11b8152600481018590526001600160a01b0391821660248201529083166044820152606401610386565b6000838152606560205260409081902080546001600160a01b03191690556066549051632142170760e11b81523060048201526001600160a01b03838116602483015260448201869052909116906342842e0e90606401600060405180830381600087803b158015610a7157600080fd5b505af1158015610a85573d6000803e3d6000fd5b50505050806001600160a01b0316610a9b61098c565b6001600160a01b0316847f9a471856befea1cabcd7fc8a1c4d70ea07b8ed2ee205cc361f932433542ef3fe60405160405180910390a4505050565b6060610ae1856110c5565b600080876001600160a01b031686610afb8b8a898961112b565b604051610b089190611891565b60006040518083038160008787f1925050503d8060008114610b46576040519150601f19603f3d011682016040523d82523d6000602084013e610b4b565b606091505b509092509050610b5c603f87611a25565b5a11610b6a57610b6a611a39565b610baa82826040518060400160405280601a81526020017f42617365466f727761726465723a2043414c4c5f4641494c454400000000000081525061115b565b9998505050505050505050565b610bbf61098c565b6001600160a01b0316610bd06105ed565b6001600160a01b0316146105eb5760405162461bcd60e51b815260206004820181905260248201527f4f776e61626c653a2063616c6c6572206973206e6f7420746865206f776e65726044820152606401610386565b6000606060007fd81bbfcee722494b885e891546eeac23d0eedcd44038d7a2f6ef9ec2f9e0d2398686604051602001610c60929190611a4f565b60405160208183030381529060405280519060200120604051602001610c90929190918252602082015260400190565b60408051808303601f190181528282528051602090910120600280845260608401909252925060009190816020015b6060815260200190600190039081610cbf57905050905086868080601f0160208091040260200160405190810160405280939291908181526020018383808284376000920182905250855186945090925015159050610d2057610d20611805565b6020026020010181905250604051806040016040528060038152602001621e9a5b60ea1b81525081600181518110610d5a57610d5a611805565b60209081029190910181019190915260008381526065909152604080822080546001600160a01b0319166001600160a01b03898116919091179091556067549151635cd7e3b360e01b8152911691635cd7e3b391610dc391309186918991829190600401611ab4565b600060405180830381600087803b158015610ddd57600080fd5b505af1158015610df1573d6000803e3d6000fd5b50505050846001600160a01b0316827f08717469d38a4b02325ea6637978c7952f94d3d8fc7848994f618ddbf4d637f18989604051610e31929190611b13565b60405180910390a35095945050505050565b303303610e535761098981611194565b610989816110c5565b6000610e666105ed565b9050817fe1b9c5b9c6f25fc6c03fdb76829a7257b1cdb10ff4bc4f62e0a94358c812190580546001600160a01b0319166001600160a01b03928316179055604051838216918316907f8be0079c531659141344cd1fd0a4f28419497f9722a3daafe3b4186f6b6457e090600090a35050565b6060600082610ee960016020611b42565b60ff1660208110610efc57610efc611805565b1a9050610f0a600282611b5b565b60ff1615610f19576003610f1c565b60025b84604051602001610f4692919060f89290921b6001600160f81b0319168252600182015260210190565b60405160208183030381529060405291505092915050565b6040838101519051636ccbae5f60e01b8152600481019190915260009081903090636ccbae5f90602401602060405180830381865afa158015610fa5573d6000803e3d6000fd5b505050506040513d601f19601f82011682018060405250810190610fc991906118ad565b905060006110778660600151805190602001208688602001516040516020016110179392919092835260609190911b6bffffffffffffffffffffffff19166020830152603482015260540190565b60408051601f1981840301815282825280516020918201207f19457468657265756d205369676e6564204d6573736167653a0a33320000000084830152603c8085019190915282518085039091018152605c909301909152815191012090565b905081866020015114801561109d5750855161109d906001600160a01b031682866111be565b9695505050505050565b60003033036110bd575060331936013560601c90565b503390565b90565b604080517f1ee5d87a048b728f67073f282321992c260e5be4fa651d08665c5b4ee7a83815602082015290810182905260009060600160405160208183030381529060405280519060200120905061111a8190565b54611126906001611b7d565b905550565b606082858560405160200161114293929190611b90565b6040516020818303038152906040529050949350505050565b6060831561116a57508161050d565b82511561117a5782518084602001fd5b8160405162461bcd60e51b81526004016103869190611680565b61119c611300565b811461098957604051635637b6af60e11b815260048101829052602401610386565b60008060006111cd8585611313565b909250905060008160048111156111e6576111e6611bcf565b1480156112045750856001600160a01b0316826001600160a01b0316145b156112145760019250505061050d565b600080876001600160a01b0316631626ba7e60e01b888860405160240161123c929190611be5565b60408051601f198184030181529181526020820180516001600160e01b03166001600160e01b031990941693909317909252905161127a9190611891565b600060405180830381855afa9150503d80600081146112b5576040519150601f19603f3d011682016040523d82523d6000602084013e6112ba565b606091505b50915091508180156112cd575080516020145b80156112f457508051630b135d3f60e11b906112f290830160209081019084016118ad565b145b98975050505050505050565b60003033036110c25750601f1936013590565b60008082516041036113495760208301516040840151606085015160001a61133d87828585611358565b94509450505050611351565b506000905060025b9250929050565b6000807f7fffffffffffffffffffffffffffffff5d576e7357a4501ddfe92f46681b20a083111561138f575060009050600361143c565b8460ff16601b141580156113a757508460ff16601c14155b156113b8575060009050600461143c565b6040805160008082526020820180845289905260ff881692820192909252606081018690526080810185905260019060a0016020604051602081039080840390855afa15801561140c573d6000803e3d6000fd5b5050604051601f1901519150506001600160a01b0381166114355760006001925092505061143c565b9150600090505b94509492505050565b6001600160a01b038116811461098957600080fd5b60008083601f84011261146c57600080fd5b50813567ffffffffffffffff81111561148457600080fd5b60208301915083602082850101111561135157600080fd5b6000806000806000608086880312156114b457600080fd5b85356114bf81611445565b945060208601356114cf81611445565b935060408601359250606086013567ffffffffffffffff8111156114f257600080fd5b6114fe8882890161145a565b969995985093965092949392505050565b60008083601f84011261152157600080fd5b50813567ffffffffffffffff81111561153957600080fd5b6020830191508360208260051b850101111561135157600080fd5b60008060008060006080868803121561156c57600080fd5b853567ffffffffffffffff81111561158357600080fd5b61158f8882890161150f565b909650945050602086013592506040860135915060608601356115b181611445565b809150509295509295909350565b6000806000604084860312156115d457600080fd5b833567ffffffffffffffff808211156115ec57600080fd5b908501906080828803121561160057600080fd5b9093506020850135908082111561161657600080fd5b506116238682870161145a565b9497909650939450505050565b60005b8381101561164b578181015183820152602001611633565b50506000910152565b6000815180845261166c816020860160208601611630565b601f01601f19169290920160200192915050565b60208152600061050d6020830184611654565b6000806000604084860312156116a857600080fd5b833567ffffffffffffffff8111156116bf57600080fd5b6116cb8682870161145a565b90945092505060208401356116df81611445565b809150509250925092565b6000602082840312156116fc57600080fd5b813561050d81611445565b60006020828403121561171957600080fd5b5035919050565b6000806040838503121561173357600080fd5b50508035926020909101359150565b6000806000806080858703121561175857600080fd5b843593506020850135925060408501359150606085013561177881611445565b939692955090935050565b60008060006060848603121561179857600080fd5b83356117a381611445565b925060208401356117b381611445565b915060408401356116df81611445565b600080602083850312156117d657600080fd5b823567ffffffffffffffff8111156117ed57600080fd5b6117f98582860161150f565b90969095509350505050565b634e487b7160e01b600052603260045260246000fd5b634e487b7160e01b600052601160045260246000fd5b6000600182016118435761184361181b565b5060010190565b6000808335601e1984360301811261186157600080fd5b83018035915067ffffffffffffffff82111561187c57600080fd5b60200191503681900382131561135157600080fd5b600082516118a3818460208701611630565b9190910192915050565b6000602082840312156118bf57600080fd5b5051919050565b634e487b7160e01b600052604160045260246000fd5b6040516080810167ffffffffffffffff811182821017156118ff576118ff6118c6565b60405290565b604051601f8201601f1916810167ffffffffffffffff8111828210171561192e5761192e6118c6565b604052919050565b60006080823603121561194857600080fd5b6119506118dc565b823561195b81611445565b81526020838101358183015260408085013590830152606084013567ffffffffffffffff8082111561198c57600080fd5b9085019036601f83011261199f57600080fd5b8135818111156119b1576119b16118c6565b6119c3601f8201601f19168501611905565b915080825236848285010111156119d957600080fd5b808484018584013760009082019093019290925250606082015292915050565b60008235603e198336030181126118a357600080fd5b634e487b7160e01b600052601260045260246000fd5b600082611a3457611a34611a0f565b500490565b634e487b7160e01b600052600160045260246000fd5b8183823760009101908152919050565b600081518084526020808501808196508360051b8101915082860160005b85811015611aa7578284038952611a95848351611654565b98850198935090840190600101611a7d565b5091979650505050505050565b6001600160a01b038616815260a060208201819052600090611ad890830187611a5f565b8281036040840152611aea8187611a5f565b90508281036060840152611afe8186611a5f565b91505082151560808301529695505050505050565b60208152816020820152818360408301376000818301604090810191909152601f909201601f19160101919050565b60ff82811682821603908111156105d3576105d361181b565b600060ff831680611b6e57611b6e611a0f565b8060ff84160691505092915050565b808201808211156105d3576105d361181b565b60008451611ba2818460208901611630565b60609490941b6bffffffffffffffffffffffff191691909301908152601481019190915260340192915050565b634e487b7160e01b600052602160045260246000fd5b828152604060208201526000610536604083018461165456fea164736f6c6343000811000a",
  "linkReferences": {},
  "deployedLinkReferences": {}
}