{
  "_format": "hh-sol-artifact-1",
  "contractName": "ZilliqaRecover",
  "sourceName": "contracts/custody/ZilliqaRecover.sol",
  "abi": [
    {
      "inputs": [],
      "name": "InvalidSignature",
      "type": "error"
    },
    {
      "anonymous": false,
      "inputs": [
        {
          "indexed": false,
          "internalType": "uint256",
          "name": "tokenId",
          "type": "uint256"
        },
        {
          "indexed": false,
          "internalType": "address",
          "name": "oldAddress",
          "type": "address"
        },
        {
          "indexed": false,
          "internalType": "address",
          "name": "newAddress",
          "type": "address"
        }
      ],
      "name": "Claimed",
      "type": "event"
    },
    {
      "anonymous": false,
      "inputs": [
        {
          "indexed": false,
          "internalType": "uint8",
          "name": "version",
          "type": "uint8"
        }
      ],
      "name": "Initialized",
      "type": "event"
    },
    {
      "anonymous": false,
      "inputs": [
        {
          "indexed": true,
          "internalType": "address",
          "name": "previousOwner",
          "type": "address"
        },
        {
          "indexed": true,
          "internalType": "address",
          "name": "newOwner",
          "type": "address"
        }
      ],
      "name": "OwnershipTransferred",
      "type": "event"
    },
    {
      "anonymous": false,
      "inputs": [
        {
          "indexed": false,
          "internalType": "uint256",
          "name": "tokenId",
          "type": "uint256"
        },
        {
          "indexed": false,
          "internalType": "address",
          "name": "zilAddress",
          "type": "address"
        }
      ],
      "name": "ZilOwnership",
      "type": "event"
    },
    {
      "inputs": [],
      "name": "ZIL_NODE",
      "outputs": [
        {
          "internalType": "uint256",
          "name": "",
          "type": "uint256"
        }
      ],
      "stateMutability": "view",
      "type": "function"
    },
    {
      "inputs": [
        {
          "internalType": "uint256",
          "name": "tokenId",
          "type": "uint256"
        },
        {
          "internalType": "bytes32",
          "name": "publicKeyX",
          "type": "bytes32"
        },
        {
          "internalType": "bytes32",
          "name": "publicKeyY",
          "type": "bytes32"
        },
        {
          "internalType": "address",
          "name": "newOwnerAddress",
          "type": "address"
        }
      ],
      "name": "claim",
      "outputs": [],
      "stateMutability": "nonpayable",
      "type": "function"
    },
    {
      "inputs": [
        {
          "internalType": "uint256[]",
          "name": "tokenIds",
          "type": "uint256[]"
        },
        {
          "internalType": "bytes32",
          "name": "publicKeyX",
          "type": "bytes32"
        },
        {
          "internalType": "bytes32",
          "name": "publicKeyY",
          "type": "bytes32"
        },
        {
          "internalType": "address",
          "name": "newOwnerAddress",
          "type": "address"
        }
      ],
      "name": "claimAll",
      "outputs": [],
      "stateMutability": "nonpayable",
      "type": "function"
    },
    {
      "inputs": [
        {
          "internalType": "bytes32",
          "name": "publicKeyX",
          "type": "bytes32"
        },
        {
          "internalType": "bytes32",
          "name": "publicKeyY",
          "type": "bytes32"
        }
      ],
      "name": "ethAddress",
      "outputs": [
        {
          "internalType": "address",
          "name": "",
          "type": "address"
        }
      ],
      "stateMutability": "pure",
      "type": "function"
    },
    {
      "inputs": [
        {
          "components": [
            {
              "internalType": "address",
              "name": "from",
              "type": "address"
            },
            {
              "internalType": "uint256",
              "name": "nonce",
              "type": "uint256"
            },
            {
              "internalType": "uint256",
              "name": "tokenId",
              "type": "uint256"
            },
            {
              "internalType": "bytes",
              "name": "data",
              "type": "bytes"
            }
          ],
          "internalType": "struct IForwarder.ForwardRequest",
          "name": "req",
          "type": "tuple"
        },
        {
          "internalType": "bytes",
          "name": "signature",
          "type": "bytes"
        }
      ],
      "name": "execute",
      "outputs": [
        {
          "internalType": "bytes",
          "name": "",
          "type": "bytes"
        }
      ],
      "stateMutability": "nonpayable",
      "type": "function"
    },
    {
      "inputs": [
        {
          "internalType": "contract IUNSRegistry",
          "name": "registry_",
          "type": "address"
        },
        {
          "internalType": "contract IMintingManager",
          "name": "mintingManager_",
          "type": "address"
        },
        {
          "internalType": "address",
          "name": "owner",
          "type": "address"
        }
      ],
      "name": "initialize",
      "outputs": [],
      "stateMutability": "nonpayable",
      "type": "function"
    },
    {
      "inputs": [
        {
          "internalType": "address",
          "name": "forwarder",
          "type": "address"
        }
      ],
      "name": "isTrustedForwarder",
      "outputs": [
        {
          "internalType": "bool",
          "name": "",
          "type": "bool"
        }
      ],
      "stateMutability": "view",
      "type": "function"
    },
    {
      "inputs": [
        {
          "internalType": "string",
          "name": "label",
          "type": "string"
        },
        {
          "internalType": "address",
          "name": "zilOwner",
          "type": "address"
        }
      ],
      "name": "mint",
      "outputs": [
        {
          "internalType": "uint256",
          "name": "",
          "type": "uint256"
        }
      ],
      "stateMutability": "nonpayable",
      "type": "function"
    },
    {
      "inputs": [
        {
          "components": [
            {
              "internalType": "address",
              "name": "zilOwner",
              "type": "address"
            },
            {
              "internalType": "string",
              "name": "label",
              "type": "string"
            }
          ],
          "internalType": "struct ZilliqaRecover.MintingToken[]",
          "name": "tokens",
          "type": "tuple[]"
        }
      ],
      "name": "mintAll",
      "outputs": [],
      "stateMutability": "nonpayable",
      "type": "function"
    },
    {
      "inputs": [],
      "name": "mintingManager",
      "outputs": [
        {
          "internalType": "contract IMintingManager",
          "name": "",
          "type": "address"
        }
      ],
      "stateMutability": "view",
      "type": "function"
    },
    {
      "inputs": [
        {
          "internalType": "uint256",
          "name": "tokenId",
          "type": "uint256"
        }
      ],
      "name": "nonceOf",
      "outputs": [
        {
          "internalType": "uint256",
          "name": "",
          "type": "uint256"
        }
      ],
      "stateMutability": "view",
      "type": "function"
    },
    {
      "inputs": [
        {
          "internalType": "address",
          "name": "",
          "type": "address"
        },
        {
          "internalType": "address",
          "name": "",
          "type": "address"
        },
        {
          "internalType": "uint256",
          "name": "tokenId",
          "type": "uint256"
        },
        {
          "internalType": "bytes",
          "name": "",
          "type": "bytes"
        }
      ],
      "name": "onERC721Received",
      "outputs": [
        {
          "internalType": "bytes4",
          "name": "",
          "type": "bytes4"
        }
      ],
      "stateMutability": "view",
      "type": "function"
    },
    {
      "inputs": [],
      "name": "owner",
      "outputs": [
        {
          "internalType": "address",
          "name": "",
          "type": "address"
        }
      ],
      "stateMutability": "view",
      "type": "function"
    },
    {
      "inputs": [],
      "name": "registry",
      "outputs": [
        {
          "internalType": "contract IUNSRegistry",
          "name": "",
          "type": "address"
        }
      ],
      "stateMutability": "view",
      "type": "function"
    },
    {
      "inputs": [],
      "name": "renounceOwnership",
      "outputs": [],
      "stateMutability": "nonpayable",
      "type": "function"
    },
    {
      "inputs": [
        {
          "internalType": "address",
          "name": "newOwner",
          "type": "address"
        }
      ],
      "name": "transferOwnership",
      "outputs": [],
      "stateMutability": "nonpayable",
      "type": "function"
    },
    {
      "inputs": [
        {
          "components": [
            {
              "internalType": "address",
              "name": "from",
              "type": "address"
            },
            {
              "internalType": "uint256",
              "name": "nonce",
              "type": "uint256"
            },
            {
              "internalType": "uint256",
              "name": "tokenId",
              "type": "uint256"
            },
            {
              "internalType": "bytes",
              "name": "data",
              "type": "bytes"
            }
          ],
          "internalType": "struct IForwarder.ForwardRequest",
          "name": "req",
          "type": "tuple"
        },
        {
          "internalType": "bytes",
          "name": "signature",
          "type": "bytes"
        }
      ],
      "name": "verify",
      "outputs": [
        {
          "internalType": "bool",
          "name": "",
          "type": "bool"
        }
      ],
      "stateMutability": "view",
      "type": "function"
    },
    {
      "inputs": [
        {
          "internalType": "bytes32",
          "name": "publicKeyX",
          "type": "bytes32"
        },
        {
          "internalType": "bytes32",
          "name": "publicKeyY",
          "type": "bytes32"
        }
      ],
      "name": "zilAddress",
      "outputs": [
        {
          "internalType": "address",
          "name": "",
          "type": "address"
        }
      ],
      "stateMutability": "pure",
      "type": "function"
    },
    {
      "inputs": [
        {
          "internalType": "uint256",
          "name": "tokenId",
          "type": "uint256"
        }
      ],
      "name": "znsOwnerOf",
      "outputs": [
        {
          "internalType": "address",
          "name": "",
          "type": "address"
        }
      ],
      "stateMutability": "view",
      "type": "function"
    }
  ],
  "bytecode": "0x608060405234801561001057600080fd5b50611c72806100206000396000f3fe608060405234801561001057600080fd5b50600436106101215760003560e01c80637b103999116100ad578063a424740011610071578063a42474001461029a578063c0c53b8b146102ad578063e1c4b65a146102c0578063e35a14e5146102d3578063f2fde38b146102fc57600080fd5b80637b103999146102325780638da5cb5b146102455780638f0dbd251461024d5780639810b695146102605780639e32d3641461027357600080fd5b8063572b6c05116100f4578063572b6c05146101ad57806358884432146101d95780636ccbae5f1461020457806371017a5414610217578063715018a61461022a57600080fd5b8063150b7a02146101265780631694116d146101575780631bf7e13e1461016c5780631c351a9d1461018c575b600080fd5b610139610134366004611446565b61030f565b6040516001600160e01b031990911681526020015b60405180910390f35b61016a610165366004611529565b610399565b005b61017f61017a3660046115f2565b610430565b60405161014e91906116b3565b61019f61019a3660046116c6565b6104fc565b60405190815260200161014e565b6101c96101bb36600461171d565b6001600160a01b0316301490565b604051901515815260200161014e565b6067546101ec906001600160a01b031681565b6040516001600160a01b03909116815260200161014e565b61019f61021236600461173a565b610519565b6101ec610225366004611753565b610573565b61016a6105b4565b6066546101ec906001600160a01b031681565b6101ec6105c8565b61016a61025b366004611775565b6105f6565b6101ec61026e366004611753565b610655565b61019f7fd81bbfcee722494b885e891546eeac23d0eedcd44038d7a2f6ef9ec2f9e0d23981565b6101c96102a83660046115f2565b6106b1565b61016a6102bb3660046117b6565b6106fc565b61016a6102ce3660046117f6565b610849565b6101ec6102e136600461173a565b6000908152606560205260409020546001600160a01b031690565b61016a61030a36600461171d565b6108bf565b6000838152606560205260408120546001600160a01b03166103875760405162461bcd60e51b815260206004820152602660248201527f5a696c6c6971615265636f7665723a20554e4b4e4f574e5f544f4b454e5f524560448201526510d15255915160d21b60648201526084015b60405180910390fd5b50630a85bd0160e11b95945050505050565b82826103a58282610573565b6001600160a01b03166103b6610938565b6001600160a01b0316146103dc5760405162461bcd60e51b815260040161037e9061186b565b60005b8651811015610427576104158782815181106103fd576103fd6118c0565b602002602001015161040f8888610655565b86610947565b8061041f816118ec565b9150506103df565b50505050505050565b606060005a90506104428585856106b1565b61045f57604051638baa579f60e01b815260040160405180910390fd5b6104f161046f602087018761171d565b3060408801358461048360608b018b611905565b8080601f01602080910402602001604051908101604052809392919081815260200183838082843760009201919091525050604080516020601f8e018190048102820181019092528c815292508c91508b9081908401838280828437600092019190915250610aa692505050565b9150505b9392505050565b6000610506610b87565b610511848484610bf6565b949350505050565b604080517f1ee5d87a048b728f67073f282321992c260e5be4fa651d08665c5b4ee7a83815602082015290810182905260009061056c906060016040516020818303038152906040528051906020012090565b5492915050565b6000808383604051602001610592929190918252602082015260400190565b60408051601f1981840301815291905280516020909101209150505b92915050565b6105bc610b87565b6105c66000610dd0565b565b7fe1b9c5b9c6f25fc6c03fdb76829a7257b1cdb10ff4bc4f62e0a94358c8121905546001600160a01b031690565b82826106028282610573565b6001600160a01b0316610613610938565b6001600160a01b0316146106395760405162461bcd60e51b815260040161037e9061186b565b61064d866106478788610655565b85610947565b505050505050565b60008060026106648585610e4c565b604051610671919061194c565b602060405180830381855afa15801561068e573d6000803e3d6000fd5b5050506040513d601f19601f820116820180604052508101906105119190611968565b60006105116106bf85611981565b3085858080601f016020809104026020016040519081016040528093929190818152602001838380828437600092019190915250610ed292505050565b600054610100900460ff161580801561071c5750600054600160ff909116105b806107365750303b158015610736575060005460ff166001145b6107995760405162461bcd60e51b815260206004820152602e60248201527f496e697469616c697a61626c653a20636f6e747261637420697320616c72656160448201526d191e481a5b9a5d1a585b1a5e995960921b606482015260840161037e565b6000805460ff1916600117905580156107bc576000805461ff0019166101001790555b606680546001600160a01b038087166001600160a01b03199283161790925560678054928616929091169190911790556107f582610dd0565b6107fd61101b565b8015610843576000805461ff0019169055604051600181527f7f26b83ff96e1f2b6a682f133852f6798a09c465da95921460cefb38474024989060200160405180910390a15b50505050565b610851610b87565b60005b818110156108ba573683838381811061086f5761086f6118c0565b90506020028101906108819190611a44565b90506108a56108936020830183611905565b6108a0602085018561171d565b610bf6565b505080806108b2906118ec565b915050610854565b505050565b6108c7610b87565b6001600160a01b03811661092c5760405162461bcd60e51b815260206004820152602660248201527f4f776e61626c653a206e6577206f776e657220697320746865207a65726f206160448201526564647265737360d01b606482015260840161037e565b61093581610dd0565b50565b600061094261104a565b905090565b6000838152606560205260409020546001600160a01b038381169116146109c55760405162461bcd60e51b815260206004820152602c60248201527f5a696c6c6971615265636f7665723a20544f4b454e5f4f574e45445f42595f4f60448201526b544845525f4144445245535360a01b606482015260840161037e565b6000838152606560205260409081902080546001600160a01b03191690556066549051632142170760e11b81523060048201526001600160a01b03838116602483015260448201869052909116906342842e0e90606401600060405180830381600087803b158015610a3657600080fd5b505af1158015610a4a573d6000803e3d6000fd5b505050507f3c75fca1decf7e281012586b8fab4c62d1e876fc95d6d0335723cd6ea5bba73a83610a78610938565b604080519283526001600160a01b0391821660208401529084169082015260600160405180910390a1505050565b6060610ab185611065565b600080876001600160a01b031686610acb8b8a89896110cb565b604051610ad8919061194c565b60006040518083038160008787f1925050503d8060008114610b16576040519150601f19603f3d011682016040523d82523d6000602084013e610b1b565b606091505b509092509050610b2c603f87611a70565b5a11610b3a57610b3a611a84565b610b7a82826040518060400160405280601a81526020017f42617365466f727761726465723a2043414c4c5f4641494c45440000000000008152506110fb565b9998505050505050505050565b610b8f610938565b6001600160a01b0316610ba06105c8565b6001600160a01b0316146105c65760405162461bcd60e51b815260206004820181905260248201527f4f776e61626c653a2063616c6c6572206973206e6f7420746865206f776e6572604482015260640161037e565b6000606060007fd81bbfcee722494b885e891546eeac23d0eedcd44038d7a2f6ef9ec2f9e0d2398686604051602001610c30929190611a9a565b60405160208183030381529060405280519060200120604051602001610c60929190918252602082015260400190565b60408051808303601f190181528282528051602090910120600280845260608401909252925060009190816020015b6060815260200190600190039081610c8f57905050905086868080601f0160208091040260200160405190810160405280939291908181526020018383808284376000920182905250855186945090925015159050610cf057610cf06118c0565b6020026020010181905250604051806040016040528060038152602001621e9a5b60ea1b81525081600181518110610d2a57610d2a6118c0565b60209081029190910181019190915260008381526065909152604080822080546001600160a01b0319166001600160a01b03898116919091179091556067549151635cd7e3b360e01b8152911691635cd7e3b391610d9391309186918991829190600401611aff565b600060405180830381600087803b158015610dad57600080fd5b505af1158015610dc1573d6000803e3d6000fd5b50939998505050505050505050565b6000610dda6105c8565b9050817fe1b9c5b9c6f25fc6c03fdb76829a7257b1cdb10ff4bc4f62e0a94358c812190580546001600160a01b0319166001600160a01b03928316179055604051838216918316907f8be0079c531659141344cd1fd0a4f28419497f9722a3daafe3b4186f6b6457e090600090a35050565b6060600082610e5d60016020611b5e565b60ff1660208110610e7057610e706118c0565b1a9050610e7e600282611b77565b60ff1615610e8d576003610e90565b60025b84604051602001610eba92919060f89290921b6001600160f81b0319168252600182015260210190565b60405160208183030381529060405291505092915050565b6040838101519051636ccbae5f60e01b8152600481019190915260009081903090636ccbae5f90602401602060405180830381865afa158015610f19573d6000803e3d6000fd5b505050506040513d601f19601f82011682018060405250810190610f3d9190611968565b90506000610feb866060015180519060200120868860200151604051602001610f8b9392919092835260609190911b6bffffffffffffffffffffffff19166020830152603482015260540190565b60408051601f1981840301815282825280516020918201207f19457468657265756d205369676e6564204d6573736167653a0a33320000000084830152603c8085019190915282518085039091018152605c909301909152815191012090565b905081866020015114801561101157508551611011906001600160a01b03168286611134565b9695505050505050565b600054610100900460ff166110425760405162461bcd60e51b815260040161037e90611b99565b6105c6611276565b6000303303611060575060331936013560601c90565b503390565b604080517f1ee5d87a048b728f67073f282321992c260e5be4fa651d08665c5b4ee7a8381560208201529081018290526000906060016040516020818303038152906040528051906020012090506110ba8190565b546110c6906001611be4565b905550565b60608285856040516020016110e293929190611bf7565b6040516020818303038152906040529050949350505050565b6060831561110a5750816104f5565b82511561111a5782518084602001fd5b8160405162461bcd60e51b815260040161037e91906116b3565b600080600061114385856112ad565b9092509050600081600481111561115c5761115c611c36565b14801561117a5750856001600160a01b0316826001600160a01b0316145b1561118a576001925050506104f5565b600080876001600160a01b0316631626ba7e60e01b88886040516024016111b2929190611c4c565b60408051601f198184030181529181526020820180516001600160e01b03166001600160e01b03199094169390931790925290516111f0919061194c565b600060405180830381855afa9150503d806000811461122b576040519150601f19603f3d011682016040523d82523d6000602084013e611230565b606091505b5091509150818015611243575080516020145b801561126a57508051630b135d3f60e11b906112689083016020908101908401611968565b145b98975050505050505050565b600054610100900460ff1661129d5760405162461bcd60e51b815260040161037e90611b99565b6105c66112a8610938565b610dd0565b60008082516041036112e35760208301516040840151606085015160001a6112d7878285856112f2565b945094505050506112eb565b506000905060025b9250929050565b6000807f7fffffffffffffffffffffffffffffff5d576e7357a4501ddfe92f46681b20a083111561132957506000905060036113d6565b8460ff16601b1415801561134157508460ff16601c14155b1561135257506000905060046113d6565b6040805160008082526020820180845289905260ff881692820192909252606081018690526080810185905260019060a0016020604051602081039080840390855afa1580156113a6573d6000803e3d6000fd5b5050604051601f1901519150506001600160a01b0381166113cf576000600192509250506113d6565b9150600090505b94509492505050565b6001600160a01b038116811461093557600080fd5b80356113ff816113df565b919050565b60008083601f84011261141657600080fd5b50813567ffffffffffffffff81111561142e57600080fd5b6020830191508360208285010111156112eb57600080fd5b60008060008060006080868803121561145e57600080fd5b8535611469816113df565b94506020860135611479816113df565b935060408601359250606086013567ffffffffffffffff81111561149c57600080fd5b6114a888828901611404565b969995985093965092949392505050565b634e487b7160e01b600052604160045260246000fd5b6040516080810167ffffffffffffffff811182821017156114f2576114f26114b9565b60405290565b604051601f8201601f1916810167ffffffffffffffff81118282101715611521576115216114b9565b604052919050565b6000806000806080858703121561153f57600080fd5b843567ffffffffffffffff8082111561155757600080fd5b818701915087601f83011261156b57600080fd5b813560208282111561157f5761157f6114b9565b8160051b92506115908184016114f8565b828152928401810192818101908b8511156115aa57600080fd5b948201945b848610156115c8578535825294820194908201906115af565b98505088013595505050604086013592506115e79050606086016113f4565b905092959194509250565b60008060006040848603121561160757600080fd5b833567ffffffffffffffff8082111561161f57600080fd5b908501906080828803121561163357600080fd5b9093506020850135908082111561164957600080fd5b5061165686828701611404565b9497909650939450505050565b60005b8381101561167e578181015183820152602001611666565b50506000910152565b6000815180845261169f816020860160208601611663565b601f01601f19169290920160200192915050565b6020815260006104f56020830184611687565b6000806000604084860312156116db57600080fd5b833567ffffffffffffffff8111156116f257600080fd5b6116fe86828701611404565b9094509250506020840135611712816113df565b809150509250925092565b60006020828403121561172f57600080fd5b81356104f5816113df565b60006020828403121561174c57600080fd5b5035919050565b6000806040838503121561176657600080fd5b50508035926020909101359150565b6000806000806080858703121561178b57600080fd5b84359350602085013592506040850135915060608501356117ab816113df565b939692955090935050565b6000806000606084860312156117cb57600080fd5b83356117d6816113df565b925060208401356117e6816113df565b91506040840135611712816113df565b6000806020838503121561180957600080fd5b823567ffffffffffffffff8082111561182157600080fd5b818501915085601f83011261183557600080fd5b81358181111561184457600080fd5b8660208260051b850101111561185957600080fd5b60209290920196919550909350505050565b60208082526035908201527f5a696c6c6971615265636f7665723a205055424c49435f4b45595f444f454e546040820152745f4d415443485f53454e4445525f4144445245535360581b606082015260800190565b634e487b7160e01b600052603260045260246000fd5b634e487b7160e01b600052601160045260246000fd5b6000600182016118fe576118fe6118d6565b5060010190565b6000808335601e1984360301811261191c57600080fd5b83018035915067ffffffffffffffff82111561193757600080fd5b6020019150368190038213156112eb57600080fd5b6000825161195e818460208701611663565b9190910192915050565b60006020828403121561197a57600080fd5b5051919050565b60006080823603121561199357600080fd5b61199b6114cf565b82356119a6816113df565b81526020838101358183015260408085013590830152606084013567ffffffffffffffff808211156119d757600080fd5b9085019036601f8301126119ea57600080fd5b8135818111156119fc576119fc6114b9565b611a0e601f8201601f191685016114f8565b91508082523684828501011115611a2457600080fd5b808484018584013760009082019093019290925250606082015292915050565b60008235603e1983360301811261195e57600080fd5b634e487b7160e01b600052601260045260246000fd5b600082611a7f57611a7f611a5a565b500490565b634e487b7160e01b600052600160045260246000fd5b8183823760009101908152919050565b600081518084526020808501808196508360051b8101915082860160005b85811015611af2578284038952611ae0848351611687565b98850198935090840190600101611ac8565b5091979650505050505050565b6001600160a01b038616815260a060208201819052600090611b2390830187611aaa565b8281036040840152611b358187611aaa565b90508281036060840152611b498186611aaa565b91505082151560808301529695505050505050565b60ff82811682821603908111156105ae576105ae6118d6565b600060ff831680611b8a57611b8a611a5a565b8060ff84160691505092915050565b6020808252602b908201527f496e697469616c697a61626c653a20636f6e7472616374206973206e6f74206960408201526a6e697469616c697a696e6760a81b606082015260800190565b808201808211156105ae576105ae6118d6565b60008451611c09818460208901611663565b60609490941b6bffffffffffffffffffffffff191691909301908152601481019190915260340192915050565b634e487b7160e01b600052602160045260246000fd5b828152604060208201526000610511604083018461168756fea164736f6c6343000811000a",
  "linkReferences": {},
  "deployedLinkReferences": {}
}