{
  "_format": "hh-sol-artifact-1",
  "contractName": "ZilliqaRecover",
  "sourceName": "contracts/ZilliqaRecover.sol",
  "abi": [
    {
      "inputs": [],
      "name": "InvalidSignature",
      "type": "error"
    },
    {
      "anonymous": false,
      "inputs": [
        {
          "indexed": false,
          "internalType": "uint256",
          "name": "tokenId",
          "type": "uint256"
        },
        {
          "indexed": false,
          "internalType": "address",
          "name": "oldAddress",
          "type": "address"
        },
        {
          "indexed": false,
          "internalType": "address",
          "name": "newAddress",
          "type": "address"
        }
      ],
      "name": "Claimed",
      "type": "event"
    },
    {
      "anonymous": false,
      "inputs": [
        {
          "indexed": false,
          "internalType": "uint8",
          "name": "version",
          "type": "uint8"
        }
      ],
      "name": "Initialized",
      "type": "event"
    },
    {
      "anonymous": false,
      "inputs": [
        {
          "indexed": true,
          "internalType": "address",
          "name": "previousOwner",
          "type": "address"
        },
        {
          "indexed": true,
          "internalType": "address",
          "name": "newOwner",
          "type": "address"
        }
      ],
      "name": "OwnershipTransferred",
      "type": "event"
    },
    {
      "anonymous": false,
      "inputs": [
        {
          "indexed": false,
          "internalType": "uint256",
          "name": "tokenId",
          "type": "uint256"
        },
        {
          "indexed": false,
          "internalType": "address",
          "name": "zilAddress",
          "type": "address"
        }
      ],
      "name": "ZilOwnership",
      "type": "event"
    },
    {
      "inputs": [],
      "name": "ZIL_NODE",
      "outputs": [
        {
          "internalType": "uint256",
          "name": "",
          "type": "uint256"
        }
      ],
      "stateMutability": "view",
      "type": "function"
    },
    {
      "inputs": [
        {
          "internalType": "uint256",
          "name": "tokenId",
          "type": "uint256"
        },
        {
          "internalType": "bytes",
          "name": "publicKey",
          "type": "bytes"
        },
        {
          "internalType": "address",
          "name": "newOwnerAddress",
          "type": "address"
        }
      ],
      "name": "claim",
      "outputs": [],
      "stateMutability": "nonpayable",
      "type": "function"
    },
    {
      "inputs": [
        {
          "internalType": "uint256[]",
          "name": "tokenIds",
          "type": "uint256[]"
        },
        {
          "internalType": "bytes",
          "name": "publicKey",
          "type": "bytes"
        },
        {
          "internalType": "address",
          "name": "newOwnerAddress",
          "type": "address"
        }
      ],
      "name": "claimAll",
      "outputs": [],
      "stateMutability": "nonpayable",
      "type": "function"
    },
    {
      "inputs": [
        {
          "internalType": "bytes",
          "name": "publicKey",
          "type": "bytes"
        }
      ],
      "name": "compressPublicKey",
      "outputs": [
        {
          "internalType": "bytes",
          "name": "",
          "type": "bytes"
        }
      ],
      "stateMutability": "pure",
      "type": "function"
    },
    {
      "inputs": [
        {
          "internalType": "bytes",
          "name": "publicKey",
          "type": "bytes"
        }
      ],
      "name": "ethAddress",
      "outputs": [
        {
          "internalType": "address",
          "name": "",
          "type": "address"
        }
      ],
      "stateMutability": "pure",
      "type": "function"
    },
    {
      "inputs": [
        {
          "components": [
            {
              "internalType": "address",
              "name": "from",
              "type": "address"
            },
            {
              "internalType": "uint256",
              "name": "nonce",
              "type": "uint256"
            },
            {
              "internalType": "uint256",
              "name": "tokenId",
              "type": "uint256"
            },
            {
              "internalType": "bytes",
              "name": "data",
              "type": "bytes"
            }
          ],
          "internalType": "struct IForwarder.ForwardRequest",
          "name": "req",
          "type": "tuple"
        },
        {
          "internalType": "bytes",
          "name": "signature",
          "type": "bytes"
        }
      ],
      "name": "execute",
      "outputs": [
        {
          "internalType": "bytes",
          "name": "",
          "type": "bytes"
        }
      ],
      "stateMutability": "nonpayable",
      "type": "function"
    },
    {
      "inputs": [
        {
          "internalType": "contract IUNSRegistry",
          "name": "registry_",
          "type": "address"
        },
        {
          "internalType": "contract IMintingManager",
          "name": "mintingManager_",
          "type": "address"
        },
        {
          "internalType": "address",
          "name": "owner",
          "type": "address"
        }
      ],
      "name": "initialize",
      "outputs": [],
      "stateMutability": "nonpayable",
      "type": "function"
    },
    {
      "inputs": [
        {
          "internalType": "address",
          "name": "forwarder",
          "type": "address"
        }
      ],
      "name": "isTrustedForwarder",
      "outputs": [
        {
          "internalType": "bool",
          "name": "",
          "type": "bool"
        }
      ],
      "stateMutability": "view",
      "type": "function"
    },
    {
      "inputs": [
        {
          "internalType": "string",
          "name": "label",
          "type": "string"
        },
        {
          "internalType": "address",
          "name": "zilOwner",
          "type": "address"
        }
      ],
      "name": "mint",
      "outputs": [],
      "stateMutability": "nonpayable",
      "type": "function"
    },
    {
      "inputs": [
        {
          "components": [
            {
              "internalType": "address",
              "name": "zilOwner",
              "type": "address"
            },
            {
              "internalType": "string",
              "name": "label",
              "type": "string"
            }
          ],
          "internalType": "struct ZilliqaRecover.MintingToken[]",
          "name": "tokens",
          "type": "tuple[]"
        }
      ],
      "name": "mintAll",
      "outputs": [],
      "stateMutability": "nonpayable",
      "type": "function"
    },
    {
      "inputs": [],
      "name": "mintingManager",
      "outputs": [
        {
          "internalType": "contract IMintingManager",
          "name": "",
          "type": "address"
        }
      ],
      "stateMutability": "view",
      "type": "function"
    },
    {
      "inputs": [
        {
          "internalType": "uint256",
          "name": "tokenId",
          "type": "uint256"
        }
      ],
      "name": "nonceOf",
      "outputs": [
        {
          "internalType": "uint256",
          "name": "",
          "type": "uint256"
        }
      ],
      "stateMutability": "view",
      "type": "function"
    },
    {
      "inputs": [
        {
          "internalType": "address",
          "name": "",
          "type": "address"
        },
        {
          "internalType": "address",
          "name": "",
          "type": "address"
        },
        {
          "internalType": "uint256",
          "name": "tokenId",
          "type": "uint256"
        },
        {
          "internalType": "bytes",
          "name": "",
          "type": "bytes"
        }
      ],
      "name": "onERC721Received",
      "outputs": [
        {
          "internalType": "bytes4",
          "name": "",
          "type": "bytes4"
        }
      ],
      "stateMutability": "view",
      "type": "function"
    },
    {
      "inputs": [],
      "name": "owner",
      "outputs": [
        {
          "internalType": "address",
          "name": "",
          "type": "address"
        }
      ],
      "stateMutability": "view",
      "type": "function"
    },
    {
      "inputs": [],
      "name": "registry",
      "outputs": [
        {
          "internalType": "contract IUNSRegistry",
          "name": "",
          "type": "address"
        }
      ],
      "stateMutability": "view",
      "type": "function"
    },
    {
      "inputs": [],
      "name": "renounceOwnership",
      "outputs": [],
      "stateMutability": "nonpayable",
      "type": "function"
    },
    {
      "inputs": [
        {
          "internalType": "address",
          "name": "newOwner",
          "type": "address"
        }
      ],
      "name": "transferOwnership",
      "outputs": [],
      "stateMutability": "nonpayable",
      "type": "function"
    },
    {
      "inputs": [
        {
          "components": [
            {
              "internalType": "address",
              "name": "from",
              "type": "address"
            },
            {
              "internalType": "uint256",
              "name": "nonce",
              "type": "uint256"
            },
            {
              "internalType": "uint256",
              "name": "tokenId",
              "type": "uint256"
            },
            {
              "internalType": "bytes",
              "name": "data",
              "type": "bytes"
            }
          ],
          "internalType": "struct IForwarder.ForwardRequest",
          "name": "req",
          "type": "tuple"
        },
        {
          "internalType": "bytes",
          "name": "signature",
          "type": "bytes"
        }
      ],
      "name": "verify",
      "outputs": [
        {
          "internalType": "bool",
          "name": "",
          "type": "bool"
        }
      ],
      "stateMutability": "view",
      "type": "function"
    },
    {
      "inputs": [
        {
          "internalType": "bytes",
          "name": "publicKey",
          "type": "bytes"
        }
      ],
      "name": "zilAddress",
      "outputs": [
        {
          "internalType": "address",
          "name": "",
          "type": "address"
        }
      ],
      "stateMutability": "pure",
      "type": "function"
    },
    {
      "inputs": [
        {
          "internalType": "uint256",
          "name": "tokenId",
          "type": "uint256"
        }
      ],
      "name": "znsOwnerOf",
      "outputs": [
        {
          "internalType": "address",
          "name": "",
          "type": "address"
        }
      ],
      "stateMutability": "view",
      "type": "function"
    }
  ],
  "bytecode": "0x608060405234801561001057600080fd5b50611d3e806100206000396000f3fe608060405234801561001057600080fd5b506004361061012c5760003560e01c80638da5cb5b116100ad578063e1c4b65a11610071578063e1c4b65a146102b8578063e35a14e5146102cb578063f2fde38b146102f4578063fb0e18ec14610307578063fd9987911461032057600080fd5b80638da5cb5b146102505780639c6b9f8a146102585780639e32d3641461026b578063a424740014610292578063c0c53b8b146102a557600080fd5b806368555cb3116100f457806368555cb3146101ee5780636889b16e146102015780636ccbae5f14610214578063715018a6146102355780637b1039991461023d57600080fd5b8063150b7a02146101315780631bf7e13e146101625780631c351a9d14610182578063572b6c051461019757806358884432146101c3575b600080fd5b61014461013f366004611472565b610333565b6040516001600160e01b031990911681526020015b60405180910390f35b6101756101703660046114e5565b6103bd565b60405161015991906115a6565b6101956101903660046115b9565b610489565b005b6101b36101a5366004611610565b6001600160a01b0316301490565b6040519015158152602001610159565b6067546101d6906001600160a01b031681565b6040516001600160a01b039091168152602001610159565b6101d66101fc3660046116e4565b6104a1565b61017561020f3660046116e4565b6104fc565b610227610222366004611719565b610595565b604051908152602001610159565b6101956105ef565b6066546101d6906001600160a01b031681565b6101d6610603565b610195610266366004611732565b610631565b6102277fd81bbfcee722494b885e891546eeac23d0eedcd44038d7a2f6ef9ec2f9e0d23981565b6101b36102a03660046114e5565b6106aa565b6101956102b3366004611782565b6106fd565b6101956102c63660046117c2565b610849565b6101d66102d9366004611719565b6000908152606560205260409020546001600160a01b031690565b610195610302366004611610565b6108b8565b6101d66103153660046116e4565b805160209091012090565b61019561032e366004611837565b610931565b6000838152606560205260408120546001600160a01b03166103ab5760405162461bcd60e51b815260206004820152602660248201527f5a696c6c6971615265636f7665723a20554e4b4e4f574e5f544f4b454e5f524560448201526510d15255915160d21b60648201526084015b60405180910390fd5b50630a85bd0160e11b95945050505050565b606060005a90506103cf8585856106aa565b6103ec57604051638baa579f60e01b815260040160405180910390fd5b61047e6103fc6020870187611610565b3060408801358461041060608b018b61190f565b8080601f01602080910402602001604051908101604052809392919081815260200183838082843760009201919091525050604080516020601f8e018190048102820181019092528c815292508c91508b90819084018382808284376000920191909152506109e292505050565b9150505b9392505050565b610491610ac3565b61049c838383610b32565b505050565b60008060026104af846104fc565b6040516104bc9190611956565b602060405180830381855afa1580156104d9573d6000803e3d6000fd5b5050506040513d601f19601f820116820180604052508101906104829190611972565b606060006105098361198b565b90506000836001855161051c91906119c8565b8151811061052c5761052c6119e1565b016020015160f81c9050610541600282611a0d565b60ff1615610550576003610553565b60025b8260405160200161057d92919060f89290921b6001600160f81b0319168252600182015260210190565b60405160208183030381529060405292505050919050565b604080517f1ee5d87a048b728f67073f282321992c260e5be4fa651d08665c5b4ee7a8381560208201529081018290526000906105e8906060016040516020818303038152906040528051906020012090565b5492915050565b6105f7610ac3565b6106016000610c10565b565b7fe1b9c5b9c6f25fc6c03fdb76829a7257b1cdb10ff4bc4f62e0a94358c8121905546001600160a01b031690565b8180516040146106535760405162461bcd60e51b81526004016103a290611a2f565b805160208201206001600160a01b031661066b610c8c565b6001600160a01b0316146106915760405162461bcd60e51b81526004016103a290611a78565b6106a48461069e856104a1565b84610c9b565b50505050565b60006106f56106b885611acd565b3085858080601f016020809104026020016040519081016040528093929190818152602001838380828437600092019190915250610dfa92505050565b949350505050565b600054610100900460ff161580801561071d5750600054600160ff909116105b806107375750303b158015610737575060005460ff166001145b61079a5760405162461bcd60e51b815260206004820152602e60248201527f496e697469616c697a61626c653a20636f6e747261637420697320616c72656160448201526d191e481a5b9a5d1a585b1a5e995960921b60648201526084016103a2565b6000805460ff1916600117905580156107bd576000805461ff0019166101001790555b606680546001600160a01b038087166001600160a01b03199283161790925560678054928616929091169190911790556107f682610c10565b6107fe610f43565b80156106a4576000805461ff0019169055604051600181527f7f26b83ff96e1f2b6a682f133852f6798a09c465da95921460cefb38474024989060200160405180910390a150505050565b610851610ac3565b60005b8181101561049c573683838381811061086f5761086f6119e1565b90506020028101906108819190611b58565b90506108a5610893602083018361190f565b6108a06020850185611610565b610b32565b50806108b081611b6e565b915050610854565b6108c0610ac3565b6001600160a01b0381166109255760405162461bcd60e51b815260206004820152602660248201527f4f776e61626c653a206e6577206f776e657220697320746865207a65726f206160448201526564647265737360d01b60648201526084016103a2565b61092e81610c10565b50565b8180516040146109535760405162461bcd60e51b81526004016103a290611a2f565b805160208201206001600160a01b031661096b610c8c565b6001600160a01b0316146109915760405162461bcd60e51b81526004016103a290611a78565b60005b84518110156109db576109c98582815181106109b2576109b26119e1565b60200260200101516109c3866104a1565b85610c9b565b806109d381611b6e565b915050610994565b5050505050565b60606109ed85610f72565b600080876001600160a01b031686610a078b8a8989610fd8565b604051610a149190611956565b60006040518083038160008787f1925050503d8060008114610a52576040519150601f19603f3d011682016040523d82523d6000602084013e610a57565b606091505b509092509050610a68603f87611b87565b5a11610a7657610a76611b9b565b610ab682826040518060400160405280601a81526020017f42617365466f727761726465723a2043414c4c5f4641494c4544000000000000815250611008565b9998505050505050505050565b610acb610c8c565b6001600160a01b0316610adc610603565b6001600160a01b0316146106015760405162461bcd60e51b815260206004820181905260248201527f4f776e61626c653a2063616c6c6572206973206e6f7420746865206f776e657260448201526064016103a2565b6060600080610b7686868080601f01602080910402602001604051908101604052809392919081815260200183838082843760009201919091525061104192505050565b60008181526065602052604080822080546001600160a01b0319166001600160a01b038a8116919091179091556067549151635cd7e3b360e01b815294965092945090911691635cd7e3b391610bd6913091879189918291600401611c06565b600060405180830381600087803b158015610bf057600080fd5b505af1158015610c04573d6000803e3d6000fd5b50505050505050505050565b6000610c1a610603565b9050817fe1b9c5b9c6f25fc6c03fdb76829a7257b1cdb10ff4bc4f62e0a94358c812190580546001600160a01b0319166001600160a01b03928316179055604051838216918316907f8be0079c531659141344cd1fd0a4f28419497f9722a3daafe3b4186f6b6457e090600090a35050565b6000610c96611145565b905090565b6000838152606560205260409020546001600160a01b03838116911614610d195760405162461bcd60e51b815260206004820152602c60248201527f5a696c6c6971615265636f7665723a20544f4b454e5f4f574e45445f42595f4f60448201526b544845525f4144445245535360a01b60648201526084016103a2565b6000838152606560205260409081902080546001600160a01b03191690556066549051632142170760e11b81523060048201526001600160a01b03838116602483015260448201869052909116906342842e0e90606401600060405180830381600087803b158015610d8a57600080fd5b505af1158015610d9e573d6000803e3d6000fd5b505050507f3c75fca1decf7e281012586b8fab4c62d1e876fc95d6d0335723cd6ea5bba73a83610dcc610c8c565b604080519283526001600160a01b0391821660208401529084169082015260600160405180910390a1505050565b6040838101519051636ccbae5f60e01b8152600481019190915260009081903090636ccbae5f90602401602060405180830381865afa158015610e41573d6000803e3d6000fd5b505050506040513d601f19601f82011682018060405250810190610e659190611972565b90506000610f13866060015180519060200120868860200151604051602001610eb39392919092835260609190911b6bffffffffffffffffffffffff19166020830152603482015260540190565b60408051601f1981840301815282825280516020918201207f19457468657265756d205369676e6564204d6573736167653a0a33320000000084830152603c8085019190915282518085039091018152605c909301909152815191012090565b9050818660200151148015610f3957508551610f39906001600160a01b03168286611160565b9695505050505050565b600054610100900460ff16610f6a5760405162461bcd60e51b81526004016103a290611c65565b6106016112a2565b604080517f1ee5d87a048b728f67073f282321992c260e5be4fa651d08665c5b4ee7a838156020820152908101829052600090606001604051602081830303815290604052805190602001209050610fc78190565b54610fd3906001611cb0565b905550565b6060828585604051602001610fef93929190611cc3565b6040516020818303038152906040529050949350505050565b60608315611017575081610482565b8251156110275782518084602001fd5b8160405162461bcd60e51b81526004016103a291906115a6565b606060007fd81bbfcee722494b885e891546eeac23d0eedcd44038d7a2f6ef9ec2f9e0d239836040516020016110779190611956565b604051602081830303815290604052805190602001206040516020016110a7929190918252602082015260400190565b60408051601f198184030181528282528051602091820120600280855260608501909352935082015b60608152602001906001900390816110d057905050915082826000815181106110fb576110fb6119e1565b6020026020010181905250604051806040016040528060038152602001621e9a5b60ea1b81525082600181518110611135576111356119e1565b6020026020010181905250915091565b600030330361115b575060331936013560601c90565b503390565b600080600061116f85856112d9565b9092509050600081600481111561118857611188611d02565b1480156111a65750856001600160a01b0316826001600160a01b0316145b156111b657600192505050610482565b600080876001600160a01b0316631626ba7e60e01b88886040516024016111de929190611d18565b60408051601f198184030181529181526020820180516001600160e01b03166001600160e01b031990941693909317909252905161121c9190611956565b600060405180830381855afa9150503d8060008114611257576040519150601f19603f3d011682016040523d82523d6000602084013e61125c565b606091505b509150915081801561126f575080516020145b801561129657508051630b135d3f60e11b906112949083016020908101908401611972565b145b98975050505050505050565b600054610100900460ff166112c95760405162461bcd60e51b81526004016103a290611c65565b6106016112d4610c8c565b610c10565b600080825160410361130f5760208301516040840151606085015160001a6113038782858561131e565b94509450505050611317565b506000905060025b9250929050565b6000807f7fffffffffffffffffffffffffffffff5d576e7357a4501ddfe92f46681b20a08311156113555750600090506003611402565b8460ff16601b1415801561136d57508460ff16601c14155b1561137e5750600090506004611402565b6040805160008082526020820180845289905260ff881692820192909252606081018690526080810185905260019060a0016020604051602081039080840390855afa1580156113d2573d6000803e3d6000fd5b5050604051601f1901519150506001600160a01b0381166113fb57600060019250925050611402565b9150600090505b94509492505050565b6001600160a01b038116811461092e57600080fd5b803561142b8161140b565b919050565b60008083601f84011261144257600080fd5b50813567ffffffffffffffff81111561145a57600080fd5b60208301915083602082850101111561131757600080fd5b60008060008060006080868803121561148a57600080fd5b85356114958161140b565b945060208601356114a58161140b565b935060408601359250606086013567ffffffffffffffff8111156114c857600080fd5b6114d488828901611430565b969995985093965092949392505050565b6000806000604084860312156114fa57600080fd5b833567ffffffffffffffff8082111561151257600080fd5b908501906080828803121561152657600080fd5b9093506020850135908082111561153c57600080fd5b5061154986828701611430565b9497909650939450505050565b60005b83811015611571578181015183820152602001611559565b50506000910152565b60008151808452611592816020860160208601611556565b601f01601f19169290920160200192915050565b602081526000610482602083018461157a565b6000806000604084860312156115ce57600080fd5b833567ffffffffffffffff8111156115e557600080fd5b6115f186828701611430565b90945092505060208401356116058161140b565b809150509250925092565b60006020828403121561162257600080fd5b81356104828161140b565b634e487b7160e01b600052604160045260246000fd5b604051601f8201601f1916810167ffffffffffffffff8111828210171561166c5761166c61162d565b604052919050565b600082601f83011261168557600080fd5b813567ffffffffffffffff81111561169f5761169f61162d565b6116b2601f8201601f1916602001611643565b8181528460208386010111156116c757600080fd5b816020850160208301376000918101602001919091529392505050565b6000602082840312156116f657600080fd5b813567ffffffffffffffff81111561170d57600080fd5b6106f584828501611674565b60006020828403121561172b57600080fd5b5035919050565b60008060006060848603121561174757600080fd5b83359250602084013567ffffffffffffffff81111561176557600080fd5b61177186828701611674565b92505060408401356116058161140b565b60008060006060848603121561179757600080fd5b83356117a28161140b565b925060208401356117b28161140b565b915060408401356116058161140b565b600080602083850312156117d557600080fd5b823567ffffffffffffffff808211156117ed57600080fd5b818501915085601f83011261180157600080fd5b81358181111561181057600080fd5b8660208260051b850101111561182557600080fd5b60209290920196919550909350505050565b60008060006060848603121561184c57600080fd5b833567ffffffffffffffff8082111561186457600080fd5b818601915086601f83011261187857600080fd5b813560208282111561188c5761188c61162d565b8160051b61189b828201611643565b928352848101820192828101908b8511156118b557600080fd5b958301955b848710156118d3578635825295830195908301906118ba565b98505050870135925050808211156118ea57600080fd5b506118f786828701611674565b92505061190660408501611420565b90509250925092565b6000808335601e1984360301811261192657600080fd5b83018035915067ffffffffffffffff82111561194157600080fd5b60200191503681900382131561131757600080fd5b60008251611968818460208701611556565b9190910192915050565b60006020828403121561198457600080fd5b5051919050565b805160208083015191908110156119ac576000198160200360031b1b821691505b50919050565b634e487b7160e01b600052601160045260246000fd5b818103818111156119db576119db6119b2565b92915050565b634e487b7160e01b600052603260045260246000fd5b634e487b7160e01b600052601260045260246000fd5b600060ff831680611a2057611a206119f7565b8060ff84160691505092915050565b60208082526029908201527f5a696c6c6971615265636f7665723a205055424c49435f4b45595f4c454e47546040820152681217d253959053125160ba1b606082015260800190565b60208082526035908201527f5a696c6c6971615265636f7665723a205055424c49435f4b45595f444f454e546040820152745f4d415443485f53454e4445525f4144445245535360581b606082015260800190565b600060808236031215611adf57600080fd5b6040516080810167ffffffffffffffff8282108183111715611b0357611b0361162d565b8160405284359150611b148261140b565b81835260208501356020840152604085013560408401526060850135915080821115611b3f57600080fd5b50611b4c36828601611674565b60608301525092915050565b60008235603e1983360301811261196857600080fd5b600060018201611b8057611b806119b2565b5060010190565b600082611b9657611b966119f7565b500490565b634e487b7160e01b600052600160045260246000fd5b600081518084526020808501808196508360051b8101915082860160005b85811015611bf9578284038952611be784835161157a565b98850198935090840190600101611bcf565b5091979650505050505050565b6001600160a01b038616815260a060208201819052600090611c2a90830187611bb1565b8281036040840152611c3c8187611bb1565b90508281036060840152611c508186611bb1565b91505082151560808301529695505050505050565b6020808252602b908201527f496e697469616c697a61626c653a20636f6e7472616374206973206e6f74206960408201526a6e697469616c697a696e6760a81b606082015260800190565b808201808211156119db576119db6119b2565b60008451611cd5818460208901611556565b60609490941b6bffffffffffffffffffffffff191691909301908152601481019190915260340192915050565b634e487b7160e01b600052602160045260246000fd5b8281526040602082015260006106f5604083018461157a56fea164736f6c6343000811000a",
  "linkReferences": {},
  "deployedLinkReferences": {}
}